F1901400290261049616001DRA MA. JESSIE IGLE VILLANUEVA                           2502CKO
F0101405650000001000499BABIDA, FLOCERFIDA MAGBUJOS                              2506CKO
F4101400260000000002171CAPACIO, MILAGROS RAFOL                                  2501CKO
