A0101400150000003141533MESINA, ELVIRA ALEJANDRO                                 0501
A0101410720653409732001ATIENZA, OLIVA MAILA ANYAYAHAN                           0502
A0101410720653565189001VICTO, BERNARD KING QUIJANO                              0504
A0101403320000014561652RDG TRUCKING                                             0501
B0101403320471047674001MJ COMMODITY FLAVOR & SPICES INC.                        1605
B0101403320471066739001FRANCES BUILDERS CORPORATION                             1601
B0101403320471206926002LOLITA B COLINA                                          1601
A0101413600000008636506DIRK MARTENS                                             0502
A1001400480000010131732ALERTA, ANALOU BELTRAN                                   0502
A1001400480000014186804SALABE, CHRISTY LEPARTO                                  0501
A0101409210000007864119PELAEZ, CARLAMAE ALVEEN MAQUIRA                          0501
A0101403320000001646631SANTIAGO, LEILANI SANTIAGO                               0502
A0101403320000014409457SADIWA, RODERICK S.                                      0501
A1901400160000014612341CHERIE JUDITH M. COMIA OR                               10501
A1901400160000014612341FLORANTE B. COMIA                                       20500
B1301400500684040904001EARLY RISERS CLUB OF RNGCI INC.                          1602
A1301400500000004093087ME-ANN'S EGG DEALER                                      0505
B1301400500000005963528KREXIM, INC.                                             1605
B0101400860000013483973***************                                          1603
B0101400860011583993001**********                                               1603
A0101401250021476357001CATHERINE GO UY                                          0501
A0101400150000001708130PAGLINAWAN, LUVIE ESCOBAR                                0501
A0101400150000009399808ARACO, ROSELLE CLEMENTE                                  0501
B0101400150000013484403SKIN PRESCRIPTIVES MARKETING INC.                        1602
A0101400150061038536048JOSET R. ANGELES                                         0502
A0101400150000002394625KATIGBAK, CARMENCITA D.                                  0506
A0101400150061453761009EVANGELINE SANTIAGO                                      0501
A0601400100000011854136FIGUEROA, CLAIRE JOAQUIN DBU                            10502
A0601400100000011854136AKIYAMA-333 WATE                                        20500
A0601400100081251817001PANLILIO, REYNESTO                                       0501
B0601400360000008477410GENTRY SCHOOL INCORPORATED                               1601
A0101410850000008264084GUILLERMO, I DBU MSG BOTTLE                             10505
A0101410850000008264084WASHING                                                 20500
A0101400730111481455001**********                                               0502
B0101406040000010857993GOLDEN BAY RESTAURANTS AND MANAGEMENT,                  11605
B0101406040000010857993INC.                                                    21600
B0101401830141021045001TCTS TRUCKING SERVICES                                   1610
A0101401830141316124001JOSEFINA L. GUIUA                                        0501
A0101400440000010744788SOTTO, ROWENA GARCIA                                     0501
A0101400440000009896264Bangayan, Renevie Maghanoy                               0501
A0101407270000011022703RAMIREZ-DORDE, KAREN ANN T                               0501
A0101401090000014635851REX RIS N. ANGELES OR JOHN                              10501
A0101401090000014635851ROBIN G. RAMOS                                          20500
A0101401090171362910001ESTRELLA S. MAJUELO                                      0501
A0301400530000006477274LUI, LORETO RABI                                         0504
A0301400660194421173001SOLOSOD, CHONA GABULE                                    0502
A0301400950000000566723FERNANDEZ, NESTY VON CHI                                 0503
A0301400950000008868966SEEKHANA STUDY HUB                                       0501
A0101413020000002292782TAN, JOSELINDA CASTILLO                                  0502
A0101410720000006128792G.R.O.W. ENTERPRISE                                      0502
A0101410720653172332001JOEL R. VITENTE OR                                      10502
A0101410720653172332001MA. CARMENCITA A. VITENTE                               20500
A0101412500000000739657****                                                     0502
A3101400160221506317001RACHELLE B. ALVIAR                                       0505
B3101400740224068263001R12 EMS PHILS INC                                        1601
A3101400870000014635931GRUTA, IRMA REGALADO                                     0501
A3001400130000001271790HERMOSADA, JAME DORIA                                    0502
A3001400130230478374004BALABA, JANETH BORJA                                     0501
A1001400190000008743922ALVAREZ, MANUEL SUKARNO BARTON                           0504
A1001400190231520766093NODADO, REYNOZA                                          0501
A1001400190231520766119CABANO, BERNADITH CATIWALAAN                             0501
A1001400190231520766125YANA, MAYFLOR DAGOC                                      0501
B1001400350000002048324GRAND CITY HOTELS, INC.                                  1603
A1001400480000014636007BAYHON, ARTURO O. DBU AVL INDUS                          0501
A1301400470000000061463MARIA ELNORA DE GUZMAN DEUS                             10505
A1301400470000000061463OR ANA LIZA VELARDE TAGO                                20500
A1301400760000002346129JIMMY C. CENA                                            0502
B0101401670271007777001SAN BEDA COLLEGE ALUMNI FOUNDATION                       1603
B0101401670000000739253A.L. SALAZAR CONSTRUCTION, INC.                          1605
A0101406460000011558451RAQUIDAN, GREGYJAMES GUIANG                              0502
A0101406460272747467001****************                                         0501
A0101406460272747467003**********                                               0501
A0101406620273217209001GADUANG, ALBERT &/OR                                    10502
A0101406620273217209001GADUANG, RYAN                                           20500
B0101411110000003202051**********************                                   1601
B0101411110000003202120MAGELLAN E-SUPPORT SERVICES INC.                         1601
B0101411110000003202131MY3D CONCEPTS CORPORATION                                1601
B0101400570281007188002KIMURA CHAVES ENTERPRISE, INC.                           1602
A6601400120000000022271MIRANDA, JUNETH LOURDES FIEL                             0502
A3401400280318478374001MARILYN B. BISMANOS                                      0502
A2901400130000009071789ICAMINA, MARY KAREN VERONICA RO                          0501
A0101402350321178721001********                                                 0510
A0101402350321557382002PARBA, NANCY MUNEZ OR                                   10501
A0101402350321557382002PARBA, JOEL QUIL                                        20500
A0101405650000011810847ABARCA, LEI ANNE HINAGPIS                                0501
B0101405650000000772798PDBTECH ENTERPRISE INC.                                  1601
A0101405650322183251001COSICO, ANTONIO PARAISO                                  0501
A0101402510000007408815JUAN, DIANA GRACE CRUZ                                   0502
A0101409050352042103002PACIFIC SMILES DENTAL CARE                               0501
A0201400760000001107511OQUIAS, JOCELYN LIM                                      0501
B0201400760000011325403PAGES HOLDINGS, INC.                                     1603
A0201400890000011928604MULLEY, KEITH RICHARD                                    0501
A0201400890376068475001BETTER MART                                              0503
A0101402930000003710621FAVILA, ALICE A. OR                                     10503
A0101402930000003710621ABIOG, ARLENE A.                                        20500
A0101402770000010082601FALLARIA, BENJO MARCO N. OR                             10501
A0101402770000010082601FALLARIA, BENEDICT N.                                   20500
A0101402770391034936001LOGPRO EXPRESS, INC.                                     0502
A0101402770391217495007REUEL R. AQUI                                            0502
A0101402770391355762050LACSI, EDWIN RIVERA                                      0502
B0101405490392038676001CLASSIC CHARACTERS (C.C.I.) INC.                         1601
A0101408400000012951714TABABA, JENELYN HURADA                                   0502
A0101408400394481765001BATALLA, ILUMINADA PAULINO                               0501
B0101408950000008364494GLOBAL CITY CAR LEASE & TRANSPORT CORP.                  1603
A0101409180000014440712RIA M. CIRINEO                                           0501
A0101409210000014618881BALBIN, RAMON FERNANDO LISING                            0501
B0301400820000001554912SAGARINO, MARIA CECILIA OR SAGARINO,                    11601
B0301400820000001554912JOSE JIMMY                                              21600
A2401400180411345642001DR. FRANCISCO OR DRA. LORNA                             10510
A2401400180411345642001LORENZO                                                 20500
A1201400150421313524001MOLLY C. ABIOG                                           0502
A5101400100000011337072ALINCASTRE, REY JOSEPH CABATO                            0501
B0101406330472441865001HALTBAR INDUSTRIES, INC.                                 1602
A0501400170481013111001TAN, BENIZON CHUA                                        0501
A0501400170481479745001AQUINO, MIGUEL LUIS L. OR                               10501
A0501400170481479745001CHUA, POMFIA L.                                         20500
A1901400320000009104307DE CHAVEZ, JOSEPHINE BORBON                              0501
A3801400170000013611499CABAGYO, NONETA M DBU PLA PLA                           10501
A3801400170000013611499GENERAL MERCHANDISE                                     20500
A1901400160000014623942AGUADO, JERRY DAYUTA                                     0501
A1601400170000009954396YAP, RHODA AYDALLA                                       0501
B0701400260000000671061PENALOZA, JONATHAN HIPOLITO DBU NAGA                    11602
B0701400260000000671061UNITED BEARING S                                        21600
A0101403900501527626001CHESTER C. GO                                            0501
A0101407430503041466001AFCSI-ASIA FREIGHT FORWARDERS                            0502
A0101407430503181551001DICKSON R. ESCOLAR OR                                   10501
A0101407430503181551001MARY ANN R. ESCOLAR                                     20500
A0101403580511031783001ROYAL BARGE TRAVEL AND TOURS                             0510
A0101405940512151522003********                                                 0501
A0101405940512597822001HERNANDEZ, ANTONIO PENGSON                               0503
A0101408530000002980994MABINI, WANDA BARRAMEDA                                  0503
A0101408530000001268491GLEN HOWARD P. SALAMAT                                   0501
A2201400250000009019892FROSTVILLE ICE CANDY                                     0502
A2201400250561075448001LARAINE DENZEL GAYONA OR NANCY                          10501
A2201400250561075448001GAYONA OR ALLAN GAYONA                                  20500
A2201400250561258513006ADY NOEL MERCADO                                         0502
A2201400250561529504001NANCY L. SIO OR ALLAN P. GAYONA                          0501
B0101404130601024227001AQUATREAT ENVIRONMENTAL SYSTEMS INC                      1602
A0101404130601451711001CATINGAN, HAZEL A.                                       0501
A0101404130601492243001DONGUINES, ROWENA DREQUITO                               0502
B0101407720000000885770LARRS SKIN SOLUTIONS, INC                                1605
A0101407720602455271001SARROSA, DONNA MARIE LEELIN OR                          10501
A0101407720602455271001SARROSA, EDWARD                                         20500
B0101407720602531639007INTELLIGENT BEAUTY SKIN SOLUTIONS INC.                   1610
B0101407720602779384001YUSIN NINE MARKETING INC.                                1602
A0101404260000003498419LACAP, LARINA LUSABIA                                    0502
A0101413440000002339528MACATLANG JR., RODRIGO C.                                0502
A0101413440655054550001SOMETHING DIFFERENT BAKESHOP                             0503
A0101413570000002976209LUMABAN, FELICIANO PEDRALVEZ                             0502
A0101413570000011434814ANG, JULIANNE PAZ FABIC                                  0501
A0101413570000013931596CRUZ, GENALINE                                           0501
B0101414120000001984201KAYAK CONSTRUCTION CORP.                                 1606
B0101414120000001984289DEMPSEY RESOURCE MANAGEMENT INC.                         1601
B0101406590000003007303STUDY PALS ABC INC.                                      1602
B1301400210682248659001ASIANLAND STRATEGIES CORPORATION                         1605
A1301400210682782329001IMELDA R LANUZA OR                                      10501
A1301400210682782329001REGINO A LANUZA                                         20500
B1301400340000006402502********                                                 1602
A1301400340683245451001************                                             0501
B1301400500000005963539IZULINE TRUCK PARTS TRADING                              1601
A0101408240000009452871SUAREZ JR., JOSE NARCISO OR                             10501
A0101408240000009452871SUAREZ, JANINA ANNA GO                                  20500
A0101408240711547894001VENDIVIL, DIOSA DALIGDIG                                 0501
A0101408240711699904001LO JR., ROGELIO AMBE                                     0501
A2801400100000006279838HUDSON, MILAGROS VICENTINO                               0501
A4101400260000012871120GABRIEL, JOYCE PADAOAN                                   0501
A4101400260000013624567VILLANUEVA, BEVERLY TRIBIANA                             0501
A4101400260000010623542FRANCISCO, RICHIE S.                                     0502
A4101400260812474557001OLEA, JOSSIE BARROS                                      0501
A4101400420000000120743VILLANUEVA, ROWENA ALARCON                               0503
A4101400420814520766134TERESITA A. CASTILLO                                     0502
A0101404840000010969374FANLO, FRANCES MICAELA MIRANDA                           0502
A0101404840851478374062VIOLITA V. GIDUCOS                                       0502
B0101406750000000017570BATAAN ST. JOSEPH HOSPITAL & MEDICAL                    11601
B0101406750000000017570CENTER CORP                                             21600
A0101406750852296707001SAMSON D. HECITA OR                                     10502
A0101406750852296707001JOSEPHINE R. HEC                                        20500
B0101406750000000480922HIJAZI, ADNAN ADEL AND ARABIA, RHOSDEE                  11602
B0101406750000000480922BASHIER                                                 21600
A0101406750000000173022DE GUZMAN, VERONICA RAFAEL                               0501
B0101406750852709702001DAFARM CORPORATION                                       1601
A0101405070000013277306ABDALLA, JEAN BOLO                                       0502
A0101405070861037846001GOODNESS & MERCY MOVERS                                 10503
A0101405070861037846001SERVICES                                                20500
A0101405070000000741053ABESAMIS, JOSE GAUDENCIO                                 0501
A0601400230000003638813YUSI, G DBU HEALTH OPTIONS ENTE                          0501
