F0301400110191452532008*******                                                  2502CKO
F1901400290261039375001DR. TEO BOSCO UY GONZALES                                2501CKO
F0101407300395406964001**********                                               2503CKO
F0101407300395418711001LUKBAN, HELEN BELLEN                                     2506CKO
F0101407720602170297001MACASAET JR., ROBERTO MONTINOLA                          2502CKO
F0101407720602406110001ANDRES, LETICIA PELAEZ                                   2504CKO
F0101405070861546194002AGSAWAY, EUCHIL MODOC                                    2501CKO
F0101408400000000077843HYOPAN LAND PHILIPPINES, INC.                            2602CKR
F0101408400000000077861W LANDMARK, INC.                                         2602CKR
F0101406620000000962443NIGHTHAWK GLOBAL BUSINESS PROCE                          2602CK1
F0101400570281042885001COCO DAVAO, INC.                                         2601CKR
F0101408400394042706002TICINO HOLDINGS, INC.                                    2602CKR
F0301400790000001211681GABUTERO, ROMMEL D OR                                   12601CKR
F0101405490000001935640ZC KINGS MANPOWER AND                                   12603CK1
F0101400570281042930001PRIME XYNERGIES FOOD                                    12601CKR
F0101405490392036290002THE MASTER'S ACADEMY FOUNDATION                         12601CKR
F0101404680651297826002LIM,YOLANDA OR CABIGON, MELISSA                         12605CKR
F4101400420814016644004EMI EMPLOYEES DEVELOPMENT                               12605CKR
F0301400790000001211681GABUTERO, MICHEL                                        22600CKR
F0101405490000001935640JANITORIAL SERVI                                        22600CK1
F0101400570281042930001CORPORATION                                             22600CKR
F0101405490392036290002INC.                                                    22600CKR
F0101404680651297826002OR LANGCAY, SHIE                                        22600CKR
F4101400420814016644004COOPERATIVE                                             22600CKR
