A0601400360000000025629RAMOS, WARREN DE GUZMAN                                  0501
A0101404680000000033132DENNIS M. CONSTANTINO                                    0503
A0101406620000000043978AGUIRRE, ALEXANDER PAR                                   0504
A1301400470000000061509PRICILLA GALMAN CALARA                                   0502
A0101406040000000096844********                                                 0501
A0101406040000000096844********                                                 0501
A0101404680000000120145MARILYN PANDUNGAN                                        0501
A5001400170000000213794UY, ARSENIA LIM                                          0502
A0601400230000000452839ARCINUE, S DBU SLA ENTERPRISES                           0502
A0101412470000000520250**********                                               0501
A0101412470000000853776GARCIA, MARILOU MANANSALA                                0501
A0601400360000000978696ONG, JEFFREY NAVARRO                                     0501
A0101400860000001005514**************                                           0502
A0101412890000001056495RIVERA, GOLDWYNIE CAOILE                                 0501
A0101412500000001146952BONA, JOHANNA TORRES                                     0503
A0101404840000001312532CHICO, DIVINA DE GULA                                    0501
A0101409920000001539522CEDENO, NOEMIE DEDICATORIA                               0501
A4101400260000001673521GOMEZ, JOCELYN CATALAN                                   0501
A1701400230000001786752**                                                       0501
A1701400230000001786996ZHANG, JIANHE HUANG                                      0510
A1401400110000001806873BUERA, ALICIA NARVAEZ                                    0501
A1401400110000001806913DE CHAVEZ, LOLITA SANTE                                  0501
A1401400110000001806986ALPHA CYCLE CENTER                                       0502
A0101406750000002040248AINZA, ROWENA MORALES                                    0502
A0101402060000002258897***********                                              0501
A1001400480000002300281TIBON, MARYCRIS AMPARO                                   0501
A0301400790000002301251VILLADEMOSA, JOSELITO BANIEL                             0502
A1701400230000002347286CORPUZ, NONILONE RAGUAL                                  0502
A0101411400000002639701AMON, ELENA ESLLER                                       0505
A0101400150000003162752MARVIN V. BERNARDEZ                                      0501
A0101400150000003218328ALLAN ADRIAN M. TANALIGA                                 0501
A0101412340000003341222LUZVIMINDA R. BERNARDEZ                                  0501
A0101412340000003343382ERWIN JOY C. GACUTAN                                     0501
A0101412340000003343393VENUS A. GAGABI                                          0501
A0101412340000003343735DARWIN E. HINOLAN                                        0501
A0101412340000003344410ARIOLO M. MAGBOO                                         0501
A0101412340000003345388RAYMOND JOSEPH D. PIMENTEL                               0501
A0101402930000003346694FERNANDO R. BAUTISTA III                                 0501
A0101412340000003349780IRWYN C. YPARRAGUIRRE                                    0501
A0101412340000003422693SHEENA D. MAGSISI                                        0501
A0101412340000003422762RECHILDA VIANKA N. ROSETE                                0501
A0101400860011374752002**********                                               0505
A0101400860011388049002**********                                               0502
A0101400860011415528001***********                                              0502
A0101400860011416442001**********                                               0505
A0101400860011419699001**********                                               0503
A0101400860011495810003**********                                               0501
A0101400860011532652002**********                                               0502
A0101400860011571320001**********                                               0502
A0101400860011606340001**********                                               0505
A0101400860011661386001**********                                               0502
A0101401700041189400002**********                                               0501
A0101401700041565412001COMEDA, MARIO TADURAN                                    0505
A0101400150061038536126COSUE, MA. LUISA                                         0501
A0101405810072344420003CHING, JENNIFER TIN                                      0502
A0101405810072385132001***********                                              0503
A0101405810072410185001HOU, YUANYONG LIM                                        0510
A0601400100081382138001MANGUERRA JR., WILFREDO TORRES                           0510
A0601400100081585421001LUMANOG, ROEL VILLAROSA                                  0501
A0601400360083591896001AGARRADO, ARVIN GAUDIA                                   0502
A0101400730111199062001ESPIRITU JR., DOMINADOR I.                               0501
A0101401830141209664001ROBERTO S. SANCHEZ                                       0502
A0101407270162587936002WILFRIDO G. TIRONA                                       0501
A0101401090171200861001ELVIRA OR MELVIN DOLIENTE                                0502
A0101401090171365718002MA. ANNALEAH S. CRUZ                                     0501
A0301400660194507916001*****                                                    0501
A0101401380201436370001MONSALE, MENLY ABENOJA                                   0501
A0101407140213190585001**********                                               0501
A1001400190231520766036ONIPA, JANE ROSE P                                       0502
A1901400290261478374009LEILA LUMANGLAS OLAVE                                    0502
A0101406620273208209001LEYNES, VIRGILIO CASTILLO                                0502
A0101406620273553969001CONRADO G. BELISARIO                                     0502
A0101400570281188318001ROSEMARIE V. JUMBAS                                      0502
A0101400570281200404001SAMUEL Y. LIM OR BETTY D. LIM                            0502
A0101400570281507259001MA. ELSIE M. DIMAANO                                     0501
A0101400570281706972001**********                                               0501
A2601400270302073683001VICTOR G. DY                                             0503
A2601400270302557323001MELANIE OR REYNALDO AGNES                                0501
A0101402480331219249001*************                                            0502
A0101408820333035060001FRAERJN TRADING                                          0501
A0101408820333478374059********                                                 0501
A0101402510341196455001ALAJAR, JOFFRE MURILLO                                   0501
A0101402510341395239001PATRICIA W. YAM                                          0501
A0101402640361443741001**********                                               0501
A0101402930381280647002ANA MARIE A. DELA CRUZ                                   0502
A0101402930381347955001ILUMIN C. ZAMORA                                         0501
A0101408370382227014001ANNIE T. COLEMAN                                         0501
A0101408370382445476001JULIUS A. ALBARILLO                                      0501
A0101402770391211335001BIENVENIDO ACOSTA                                        0502
A0101408400394310823004QUIZON, VIRGINIA RAYMUNDO                                0502
A0101408400394441796002SANTOS, ELSIE OR SANTOS, DANNY                           0502
A0101408400394478374061SONAJO, LOLITA C.                                        0502
A0101408400394478374063LACSON, MARITES                                          0502
A0101408400394605254001*****                                                    0504
A2401400180411478374040CHERRY S. VICTORIANO                                     0502
A1201400150421619129002TUVERA, ROSA DACANAY                                     0502
A0101403030441728625001**********                                               0502
A0101403320471478374055BENITO OR REYZEL ESLABA                                  0501
A1901400160491401041001ALBERTO G MARANAN, DMD                                   0503
A0101403450521315367001********                                                 0501
A0101404130601014815104MATILDE M. CUPIDO                                        0501
A0101407720602387084002VILLON, ROZAIDA RESTRIVERA                               0501
A0101407720602396245001******                                                   0503
A0101404420631478374195ANA A. EMPERIO                                           0501
A0101404680651422422001KHO, LUZ GATCHALIAN                                      0501
A0101404680651478374074NELIA A. DELLA                                           0501
A0101404680651520766111ANNIE G. LACSON                                          0501
A0101404680651520766128MELITA C. VELARO                                         0501
A0101404680651525001008ARLENE G. GUANCO                                         0502
A0101404680651529170001CARINO, FLORA CASTRO                                     0501
A0101404680651539885001MYRNA S. GENUINO                                         0502
A0101404680651561390001**********                                               0501
A0101404680651689115001MA. ESTELA S. TAMPUS                                     0501
A0101407690652034151001D' ABET JUNK SHOP                                        0502
A0101407690652039085001JUNBEL INDUSTRIAL SYSTEM CORP.                           0501
A0101413440655055766001NINI AND STITCH GARMENTS                                 0501
A1301400500684761703001DELOS SANTOS, MILLETTE MERCADO                           0501
A0101407560686359592001MA. MAY JASMIN R. YASON                                  0502
A1701400230693055708001ELOCIN CONSTRUCTION                                      0501
A1701400230693478374047BENITO, ROVILLA GOODALE                                  0501
A1701400230693478374061BAUTISTA, CRESENCIO RISCAL                               0501
A0101408240711226436001GUTIERREZ, NATIVIDAD                                     0502
A0101408240711385845004DE OCAMPO III, PACIFICO LAGDAME                          0502
A4101400260812468473002BIANAN, RODNER AYUKIL                                    0501
A4101400420814357382003REMULLA, GILDA VASQUEZ                                   0502
A4101400550815047719001CABUNTOCAN, GAY TAGHAP                                   0501
A0101404840851478374063AIRENE ALCANTARA                                         0501
A0101404840851520766156LILIBETH TONGO                                           0502
A0101404840851542980001MASANGCAY, NORA VERCELES                                 0501
A0101406750852182653002WILSON, ERLINDA JOSON                                    0502
A0101405070861027133001WORLDLINKS CABLE WORKS                                   0502
A0101405070861653563001TRINIDAD, ALFRED VILLAMOR                                0501
A0101405070861780080001SALCEDO, RAYMOND GALLARDO                                0501
A0101410850000000005712MACANAYA, AMELIA DBU NUMBERS                            10501
A0101413020000000056722CASTELL, CHRISTOPHER M. OR                              10502
A0101408240000000521771CASTILLO, JUAN MIGUEL DOMINGO                           10502
A0101402930000000623363KING, C DBU EASTERN CIRCLE                              10501
A0101405070000001124350DESCALZO, MARIA KHARIN H. OR                            10501
A0301400790000001244597LUNA, BILL ALLAN GUERRA DBU                             10501
A1901400290000001362976DR. JOSE RENE D. DE GRANO OR                            10502
A0101412890000001765802ARANAS, L DBU JADA LUMBER AND                           10502
A2401400180000001935895MAGBANUA, JOAN SANTOS DBU NJM E                         10502
A0101401250021334915002BLANQUISCO, NICARDO PALCES OR                           10501
A0301400660194350996088DEQUITO, GLEBA VENTOR / LANANG                          10501
A1901400290261244442005JOSE ADRIANO, JUAN MIGUEL,                              10502
A0101406620273444721001AGBAYANI, ENRIQUE R. OR                                 10501
A0201400890376633154002JIMENEZ, PETER UTLANG OR                                10502
A0201400890376731894001JIMENEZ, JEREMY MICHAEL ALMARIO                         10501
A0101402930381209050001GRACE DIMAANO OR                                        10501
A0101402930381209432003JOSELYN T. PEREZ OR                                     10504
A0101408370382408402001DR. RAUL V. DESTURA OR                                  10503
A0101402770391607207001ISON, JEFFREY GARCIA OR                                 10501
A0101405490392552022001MARIA THERESA D SOLIS OR                                10501
A0101408400394478374022CORNELIO, REY OR CORNELIO,                              10501
A5501400120410656023001BELTRAN, MANUEL OR                                      10501
A0101407720602298846006OCAMPO, LAMBERTO U OR                                   10502
A0101407720602397747001ERNESTO OLYMPIA M.D. OR                                 10503
A0101404680651527290001MARIO E. SORIANO OR                                     10510
A0101407690652443947001NOLIBETH L. RUELOS OR                                   10501
A0101407690652478374128LOIDA M. MAYOLA - DEALERS OF                            10502
A0101407690652520766007LOLITA SONZA - DEALERS OF                               10502
A0101407690652525001060SUSANA MORENO - DEALERS OF                              10501
A1301400500684615945002DIMAAPI, JOSELITO M. OR                                 10501
A1701400230693034990001VERTEXT HANDYPHONES- M.H. DEL                           10503
A0101405070861198331001VIJAY PHABIANI OR                                       10501
A0101410850000000005712AND LETTERS LEARNING CTR                                20500
A0101413020000000056722CASTELL, MARIA M                                        20500
A0101408240000000521771JT                                                      20500
A0101402930000000623363HUMAN RESOUCE SE                                        20500
A0101405070000001124350DESCALZO, LUZVIM                                        20500
A0301400790000001244597PRISCILLA FRAMES                                        20500
A1901400290000001362976DR. VILMA M. DE GRANO                                   20500
A0101412890000001765802HARDWARE TRADING                                        20500
A2401400180000001935895WORKS                                                   20500
A0101401250021334915002BILON, ERWIN BLAQUISCO                                  20500
A0301400660194350996088CALTEX SERVICENT                                        20500
A1901400290261244442005ZENAIDA P CUENCA                                        20500
A0101406620273444721001AGBAYANI, FLORA                                         20500
A0201400890376633154002JIMENEZ, MARIA T                                        20500
A0201400890376731894001OR JIMENEZ, MARI                                        20500
A0101402930381209050001ALFREDO DIMAANO                                         20500
A0101402930381209432003EXEQUIELITO PEREZ                                       20500
A0101408370382408402001BABY ASUNCION B. DESTURA                                20500
A0101402770391607207001ISON, ATHENE LYNN MAYOR                                 20500
A0101405490392552022001BENJAMIN D. SOLIS                                       20500
A0101408400394478374022ROSALIE                                                 20500
A5501400120410656023001BELTRAN, ALEGRIA                                        20500
A0101407720602298846006SARMIENTO, ANNABELLE                                    20500
A0101407720602397747001EVA MARIE OLYMPIA                                       20500
A0101404680651527290001MARLON P. SORIANO                                       20500
A0101407690652443947001VINCENT A. RUELOS                                       20500
A0101407690652478374128SHOECAT INC.                                            20500
A0101407690652520766007SHOECAT INC.                                            20500
A0101407690652525001060SHOECAT INC.                                            20500
A1301400500684615945002DIMAAPI, MERCEDITA                                      20500
A1701400230693034990001PILAR BRANCH                                            20500
A0101405070861198331001JAISHREE PHABIANI                                       20500
B0101400730000000002557NORTHSTAR TRAINING & CONSULTANCY INC                     1603
B0101411790000000005318REM BUILDERS CORPORATION                                 1602
B0101405490000000020008101 VENTURES SUPPORT CORPORATION                         1605
B0101407690000000025032GOLDLINK NETWORK SOLUTIONS INC.                          1601
B0101408530000000035867WE SEARCH @ SEARCHERS & STAFFERS CORP.                   1603
B0101412470000000045412FLC FOODSERVICE INC.                                     1601
B0101401380000000106743BUAN, NENY TOLENTINO                                     1602
B0101407140000000266302R8 CONSTRUCTION CORP.                                    1601
B0201401020000000470251SHANGS DEVT. CORP.                                       1602
B1201400150000000473392ETCC REALTY & DEVELOPMENT CORPORATI                      1602
B0101400150000000633481PHILIPPINE TRAVEL AGENCIES ASSOCIATION                   1603
B0101410850000001229743AURG, INC.                                               1604
B0101411400000001280320RBSS PROJECT MANAGMENT SERVICES                          1602
B0101404680000001296573**********                                               1602
B0101405490000001935691WESTCROP LENDING CORPORATION                             1603
B0101400860011388376002**********                                               1602
B0101400860011402223001**********                                               1605
B0101400860011458212001**********                                               1601
B0101400150061010670001ASIASEC EQUITIES INC.                                    1610
B0101405810072234719002***************                                          1605
B0101405810072412798001**********                                               1603
B0101410850109045828001OLOVUS MULTIRESOURCES INC.                               1602
B0101406040112039150001********                                                 1603
B0101407270162033826002UNI-FILES SAVER CORPORATION                              1601
B0101401090171054285001EBD REAL ESTATE LESSOR                                   1602
B0101401380201039122001BROMA CORPORATION                                        1602
B0101401380201641563001FUNTRAVEL & TOURS CORP.                                  1605
B1901400290261038595002B & V TRADING                                            1603
B1901400290261047635001SYLPAULJOYCE CORPORATION                                 1604
B0101401670271034948001REALTY INVESTMENTS INC.                                  1605
B0101401670271657140001NIC'S GOURMET DESSERTS, INC.                             1610
B0101406620273020543001GOLDEN DRAGON INDUSTRIAL CORPORATION                     1602
B0101406620273031145001KOHL INDUSTRIES CORPORATION                              1606
B0101405650322020426005LEISURE FARMS TAGAYTAY, INC.                             1605
B0101402480331027489001*****                                                    1602
B0101402480331580623001*********                                                1601
B0101402510341021863002SAN BEDA COLLEGE UNION (SBCU)                            1601
B0101402060351035807001SOLEREX WATER TECHNOLOGIES, INC.                         1610
B0101402060351046908001ORGANITEC LABORATORIES & SYSTEMS, INC.                   1602
B0101402640361032684001GREENSTONE PACKAGING CORP.                               1603
B0101402930381019682001RAWLINGS FOUNDATION INC.                                 1602
B0101402930381040531001R&C OUTDOOR BILLBOARD INC.                               1606
B0101402930381046614001PINOYGOLFER MEDIA INC.                                   1602
B0101405490392029745002MESINA BROTHERS, INCORPORATED                            1602
B0101405490392045166001LANDIS MARKETING                                         1603
B5501400120410042322003TRUMPH MOTORCYCLE CORPORATION                            1601
B2401400180411029585001IGLOO STORAGE COMPLEX CORPORATION                        1610
B0101403030441021825001**********                                               1603
B0101403030441039990001**********                                               1602
B0101403030441382008001**********                                               1602
B1901400160491012587001BSU CREDIT COOPERATIVE                                   1602
B1401400110492028896002CARLOS DRUGS-LUCENA, INC                                 1601
B1401400110492041160001SAN DIEGO BUILDERS                                       1601
B0101408530516005188001SEARCHERS & STAFFERS CORP.                               1610
B0101408530516548189001METAL EXPONENTS, INC.                                    1604
B0101403450521238245001**********                                               1605
B0101404130601100121002OMRON ASIA PACIFIC PTE. LTD.                             1602
B0101404680651367886001LITE SIGNS & DESIGNS                                     1605
B0101404680651793164001FELSON TECHNOLOGY & SOLUTIONS CORP.                      1610
B0101407690652537622001CREATIVE DISHES & RECIPES INC.                           1602
B1701400230693040556001**********                                               1601
B1701400230693041727001SHOP AND GO CONVENIENCE STORE                            1603
B0101408240711029638001KLAUS MULLER & ASSOCIATES, INC.                          1605
B0101408240711036897001EVER THEATRICAL, INC.                                    1601
B0101408400000000077872TECH-ASIA INDUSTRIAL ENTERPRISES                        11602
B1001400350000000244368PHILIPPINE GAMS GENERAL INSURANCE AND                   11605
B1301400470252033145001CABANATUAN CATHOLIC EDUCATIONAL                         11601
B2601400270302045063001ISABELA UNITED DOCTORS MEDICAL                          11620
B0101404130601450518001GEORGE T. SIY &/OR ANGELINE SIY                         11602
B0101408400000000077872CORP.                                                   21600
B1001400350000000244368FINANCIAL SRVCS                                         21600
B1301400470252033145001SYSTEM                                                  21600
B2601400270302045063001CENTER, INC.                                            21600
B0101404130601450518001FIECHTER ET AL                                          21600
B0101405230332821100608**********                                               2005
B0201400890376821100608**********                                               2010
