B0101417970001501050106**********                                               2101
A0101400150061469895001MENDOZA, JULLIENE MARY ABELIDA                           0501
B0101400150061058232001ONE PACSTAR REALTY CORPORATION                           1601
A0101400150061242841001MA. AURORA ORTIZ  OR                                    10501
A0101400150061242841001MA. AURORA CARLA ORTIZ                                  20500
A0101400150061526109001LEOMO, MERLITA MILLANO                                   0501
A0101400150061684116001MAGRAMO, FREDESWINDA CERDA                               0501
B0101400150061493496001TECHNOLOGY ENABLER DESIGNERS (PHILS) INC                 1603
B0101413730000001568458*****************************                            1601
A0101400440000002035110EVA D. SAMILLANO                                         0502
A2001400290315662278002********                                                 0502
A0101412890000002747971VERGARA, FERNANDO FERNANDO                               0501
A0501400170000002354598JOVEN, BONNIE VINLUAN                                    0501
A0101400860000001348658**********                                               0505
A0101400860011443455002**********                                               0505
A0101401250021034026001PETS AHOY FEEDS AND                                     10502
A0101401250021034026001POULTRY SUPPLY                                          20500
A0101401250021476357001CATHERINE GO UY                                          0501
A0101400150000004996701RAMIREZ, RUSSELL MARQUEZ                                 0501
A0101400150000004996712PATAUEG, JANICE ALCID                                    0501
A0101400150000004996723LAGANDAON, STEPHEN LLOPIS                                0501
A0101400150000004996730AMPER, PAMELA PEJI                                       0501
A0101400150000002902398SEGOVIA, HENRY FALCATAN                                  0501
A0101400150000004090555SANCHEZ, ARNEL TURTOSA                                   0501
A0101400150061337098062MARIA MYLIN CAYNILA                                      0502
B0101400600000001335842NAM, CHANGHO AND LANTANO, RUDY NEPACINA                  1601
B0101400600071396916001II                                                       1605
A0101413730000000469701********************                                     0501
A0101410560000000590614CHAVEZ, JONALIE RAIPAN                                   0501
A0101410560000001290842PAGGAO, HONEYLET OTEYZA                                  0501
B0101400730000000002591*****                                                    1601
A0101401960121436064001TAGLE, IMELDA CHUA                                       0501
A0101412630000004061976LIM, DANTE ALDEA                                         0501
A0101413310000001073756KU, FERNANDO YU                                          0501
B0101412920000004991426WATIWAT, MICHELLE QUIMORA AND WATIWAT,                  11601
B0101412920000004991426MACARIO FERROS                                          21600
A0101400440000000821298DIOBET ERDIE I. DIOQUINO                                 0502
A0101400440161520766075ERA G. LAMATA                                            0501
A0101400440161525001139JEMARIE S. SALUDAR                                       0501
B0101407270162032578001I.LEARN.CENTER INC.                                      1602
B0101407270162033286001DESIGN.STUDIO INC.                                       1602
A0101407270162333003005MERCYLITA B. PUNZALAN                                    0501
A0101401090171399340001CARMEN S. QUESADA                                        0501
A0101401090171432520001VICENTE M. BELTRAN                                      10502
A0101401090171432520001OR EDEN I. BELTRAN                                      20500
A0301400530000001009961IBOT, LETHLE P.                                          0501
A0301400530193582949001CABIGAO, RICARDO P.                                      0501
A0301400530193584721168YANG, CHAOWEI                                            0510
B0301400660000000195157WISDOM EDUCATIONAL MATERIALS PUBLIS                      1605
A0101412500000004908101MAGAT, RAFFY BALINGIT                                    0501
A3101400450000000013970YAMADA, LEONIDA PAMFILO                                  0501
A1001400190231520766112ALIBIO, NELYBETH TACBOBO                                 0501
A0101401670271189252001LOURDES LIM LEE                                          0502
B0101406620273036393001REYES, REYES & RIVERA-LUMIBAO LAW                       11602
B0101406620273036393001OFFICES                                                 21600
B0101406620273038508001AMTI COMPUTERS SUBIC INC.                                1603
A0101406620273553969001CONRADO G. BELISARIO                                     0502
A0101411820000000477203JOEY CORALES MATRO                                       0501
A0101411820000001356441BUENO, MAIDA DONCIRAS                                    0502
A0101400570281361144001ERIC G. IDIESCA                                          0501
A0801400160311055600001DORILLO, FLORENCIA LOMILLO DBU                           0505
A0801400160311478374106SORILLA, HAYDEE                                          0501
A1101400120000001920441NIPAL, RENATO S. OR                                     10502
A1101400120000001920441NIPAL, MARIA TERESA R.                                  20500
A1101400120313478374004ALBESA, JONALYN D.                                       0501
A1101400120313478374094AGAPITO, ROSA P.                                         0503
A6601400120314478374006THELMA BALATAY                                           0502
B2001400290000000020515***************************                              1602
B2001400290315047753001SILLIMAN UNIVERSITY COMMUNITY COOP.                      1610
B0101402350321027310001NECELINE CORPORATION                                     1606
A0101402350321177047001FRANCIS C. PAREDES                                       0501
A0101402350321381653001EVANGELINE O. ILAS OR                                   10503
A0101402350321381653001ARNELL M. ILAS                                          20500
A0101402350321478374017RIZA G. SANTOS                                           0503
A0101402510000004992292CUARTERO, MICHELLE CHING                                 0501
A0101402510341196657001AMELIA G. RUBIN DE CELIS                                 0501
A0101402060000000445538CABATLAO, JACKELYN MANO OS                               0501
B0101402060351039870001CHYNNA SALES & DISTRIBUTION INC.                         1620
A0101409050352694168001********                                                 0505
B0201400920375036273001PROFOOD INTERNATIONAL CORP.                              1604
A0201400920375478374008OLELA, DONATILLA OMELGO                                  0501
A0201401020000000470193LOUIE PENA'S TRAVEL TOURS & EVE                          0503
A0101408370000000336149SAWIT, SIMONETTE KRISTINE                               10501
A0101408370000000336149TIANGCO                                                 20500
B0101411660384046304001ELITE GLOBAL SOURCING PHIL. INC.                         1602
A0101402770000003488197IBUNA, ANNA BELEN TINGZON                                0501
B0101402770391009809002MITSUBISHI MOTORS PHILS. SALARIED                       11601
B0101402770391009809002EMPLOYEES UNION                                         21600
B0101402770391030634001CITY GREEN - AS STYLE                                    1605
A0101402770391472751004JERVIE RACELIS DE GUZMAN                                 0503
A0101405490000000232453ROMEL P. ALMEDA                                          0502
B0101405490392039459001MEGANESS PHARMA MARKETING                                1601
A0101405490000002880595MICHAEL JOHN ERIC R BALO DBU                            10502
A0101405490000002880595BLISSFUL HOUSE DIGITAL PH                               20500
A0101405490392333608002NAOMI S. PURISIMA                                        0506
A0101408400000000960430DITUCALAN, JAMILA FAISAL                                 0502
A0101408400000004490084JUGUIAD, MARIVIC CAGUD                                   0501
A0101408400000002921002LAUREAN PLANTS & FLOWERS SHOP                            0502
A0101408400394518233001CABADING, FEBY OR                                       10505
A0101408400394518233001CABADING JR., ANASTACIO                                 20500
A5501400120410719328001ILAO, YOLANDA CASTILLO                                   0501
B2401400180411033833088JOLISA AGRIBUSINESS CORPORATION                          1610
A2401400180411478374027ELLEN PANTUJAN OR                                       10501
A2401400180411478374027ELMER PANTUJAN                                          20500
A2401400180411478374042JOYCE R. GALLEON                                         0501
A2401400180411612792001SARDIDO, MARIA NAVALTA                                   0501
A0101403320000000735739DOMINGO, VELMA RAULE                                     0502
B0101403320471009122001ELDRICH FOODS CORPORATION                                1603
A0101403320471603471001BADIOLA JR., DANILO GARIANDO OR                         10501
A0101403320471603471001BADIOLA, RADLYNE                                        20500
A0101403320471708761001TOLENTINO JR., ARCADIO DATUIN                            0505
B0501400170481023482001ARZADON LEISURE CORPORATION                              1605
A0501400170481253600001NARDING C. CAMERO OR                                    10502
A0501400170481253600001JULIE C. CAMERO                                         20500
A0501400170481359894002CARRANZA, EDITHA RETORIO OR                             10501
A0501400170481359894002BARLAAN, BESSIE                                         20500
B1901400320000000041272SIMCO VILLAGE LEARNING CENTER INC.                       1601
B1901400160491012586001BSU CONSUMERS COOPERATIVE                                1602
B1901400160491012587001BSU CREDIT COOPERATIVE                                   1602
B1901400160491341189001VIRGINIA R VARGAS OR                                    11601
B1901400160491341189001RICHARD D LIM                                           21600
A1401400110492221994001IGNACIO, JEROMIE LOPEZ                                   0501
B1601400170000000036160LEGAZPI FOUR SEASONS                                    11603
B1601400170000000036160RESTAURANT, INC.                                        21600
A0101407430000001028897FERNANDEZ, JOVITO GERON                                  0501
B0101403580511005607002RAM FOOD PRODUCTS, INC.                                  1605
B0101403580000004558709MILLENNIUM ERECTORS CORPORATION                          1610
B0101403580511155828001JOUBERT CONSTRUCTION INC.                                1610
A0101403580511196754001CARMELITA E. LA O'                                       0502
A0101403580000002265567GUILLERMO, REYNOLD ORIO                                  0501
B0101405940000000002739********                                                 1601
A0101408530516571877039JETHROEL M. OBISPO                                       0501
A0101408530000001268526DAVID, ENRIQUE                                           0501
B0101408530516698301001HYDRATA, INC.                                            1601
A0101411790518055764118DELA CRUZ, NEIL JOSEPH PAR                               0501
B0101403450521031613001COMPOSITE ENTERPRISES CORP.                              1602
A0101403450521238268001**********                                               0502
A0101403450521313272001**********                                               0501
A0101403610531220657002SOUZA, TERESITA YAMBAO                                   0503
A0101403610531508580001ARZOLA, MATHEW MERVIN M. OR                             10501
A0101403610531508580001ARZOLA, MARIA LANLET C.                                 20500
A0101403610531762081001MIRANDA, SUSAN ESPINILI                                  0501
B0101404000551017357001MQL COMMERCIAL AND MARKETING CORP                        1605
A0101404000551150198001CANUTO, SYLVIA PANDAY                                    0501
A2201400250000003316492******                                                   0502
A0101404130000000043901BRILLO, RUBIAN GENER                                     0501
B0101404130601035292001SILVER ROSE GENERAL MERCHANDISE                          1610
A0101407720602339048001CABRERA, ALFREDO DE JESUS                                0501
A0101407720602353878001TARRIELA, MARIANO TRAMBULO                               0501
A0101407720602397131002**********                                               0501
B0101404260611040672001JL QUALITY CLINICAL LABORATORY CO.                       1601
A0101404260611044000001OPTIMUS SECURITY AND                                    10505
A0101404260611044000001INVESTIGATION AG                                        20500
A0101404260611478374085ROSALINA SUMILE                                          0501
B0101409890649012116001*************                                            1610
A0101409890649047047001**********                                               0506
A0101409890000003097943PACHEO, JOHN REY RAMOS                                   0502
A0101413440000001473041FORNOLLES, CAROLINE SITOY                                0501
A0101413570000002249470MANDO, NORMALA ISMAEL                                    0501
A0101413570656057648286AMELIA VILLAMOR                                          0502
A0101406590000002277574ASUSULA, REYNALDO SAYSON                                 0502
A0101406590662711800002ROQUE, EVELYN VALDOMAR                                   0502
A1301400340000002283781RODELIO D. RUBIO OR                                     10502
A1301400340000002283781ALONA D. ALIPIO                                         20500
B1301400340683023491001EMPRESS CHEMICAL INDUSTRIES, INC.                        1602
A1301400500000002063883LUCILA P. DELFINADO                                      0502
B0101408240711026678001SAMBEL PACIFIC CORPORATION                               1602
A0101408240711566885001MASUELA, JAYSON ESQUIBEL                                 0503
A0101408240711579997001MARASIGAN, RANDY ALTAREJOS                               0502
A0101408240711666739001GACU, JOY LEE MALIGAYA                                   0502
B0101408240711788024001RB & SONS PACIFIC TRADING CORPORATION                    1602
A2801400100712088718001FOO, JEROME B. OR FOO, YING YIN                         10510
A2801400100712088718001OR FOO, ANA T.                                          20500
A2801400230000001782061ERLINDO M. SIMBOL OR                                    10502
A2801400230000001782061LUCILA C. SIMBOL                                        20500
A4101400260812478374005JENITA Z. PALLE                                          0501
A4101400390813427399001VILLANUEVA, ELIZABETH MAIGUE                             0502
A0101412340000000031090BUDOMO, JENNIFER MARCELINO                               0501
A0101404840851298552067EMERENCIANA P. BOMBAY &/OR                              10502
A0101404840851298552067JEREMY P. BOMBAY                                        20500
A0101404840851478374071MARITESS C. CASARILLA                                    0501
A0101406750000000017490SESE, ALDEN ANTHONY DIZON                                0501
B0101405070861020451001SOUTHEAST TRAVEL CORPORATION                             1604
