F4101400260812039607017RUBIO, RUTH VALEREE                                      2502CKO
F0101400570281007178002ALFREDO'S STEAK HOUSE INC.                               2610CKR
F0101400570000000749491SILANGAN FOUNDATION FOR ART, CU                         12515CKO
F0101400570000000749491AND ECOLOGY INC                                         22500CKO
F0101408240711416949001KIM, TAI KUEN                                            2501CKO
F4101400260812028403001AQUA DE TAAL PURIFIED DRINKING                          12508CKO
F4101400260812028403001WATER                                                   22500CKO
