A0101402930000007030899OMBAC, KATHERINE REYES                                   0501
A0101400440161525001069ROMYLYN D. REAL                                          0501
B4101400550000000900003BINAKAYAN HOSPITAL AND MEDICAL                          11602
B4101400550000000900003CENTER, INC.                                            21600
A1201400150421253022001GARCIA, LEONILA LANSANG                                  0501
A0601400100000002072691BRAVO, CHARO SANTOS                                      0501
A0601400100081040294001MOIKAI INDUSTRIAL SUPPLIES AND                          10503
A0601400100081040294001AUTOMATION SERVI                                        20500
B0101414090108821200608**********                                               2002
A0101411240283061941001JUSTRIGHT PHARMACEUTICALS                                0505
A0101403450521238152001**********                                               0502
A0101403450521238152003**********                                               0502
A0101414120000005252864MVG HARDWARE                                             0502
A0101400860011379561003**********                                               0502
A0101400860011398777002**********                                               0506
B0101400150000000633469RNB TRAVEL AND TOURS CORPORATION                         1603
A0101400150061626610001********                                                 0502
A0101400600000002335786********                                                 0501
B0101400600000001335637**********                                               1602
A0101400600071720668001*******                                                  0501
B0601400100000002099210ALL THINGS FRESH INC.                                    1601
A0101413280000002317682**********                                               0502
A0101413280000000041783GUERRERO CREATIVE ENTERPRISE                             0501
A0101410850109061716001MONTEMAYOR JR., T DBU PRINCESS                          10501
A0101410850109061716001HANNAH TRUCKING                                         20500
B0101410560000000757240BALTAZAR, BEATRIZ POLO AND GARBILES,                    11601
B0101410560000000757240LETICIA MORILLA                                         21600
A0101400730000005317179ROPA, AILLEN VELASCO OR                                 10510
A0101400730000005317179JARDIOLIN, MAJAR BELLO                                  20500
A0101413150000002299272******                                                   0502
A0101412630000002040686APOLINARIO, JANET IPAC                                   0501
B0101401830141028161001EXTERMICON GENERAL SERVICES, INC.                        1603
A0101401830141289926001EDGARDO E. ALEA                                          0503
A0101400440161039572051MARIA EDILINA S. BULAC                                   0501
A0101400440161039572063EVELYN Y. BALLADARES                                     0501
A0101400440000005393502BABY JONI JANET REYES                                    0504
A0101400440161525001040DOLORES A. DE GUZMAN                                     0501
A0101400440161696849001MA. LOURDES K. PALMA                                     0501
A0101400440161760132001LANDIG, MA. GUIA GONZALES                                0502
A0101407270000007484377MANUBAY, KRISTOFFERSON RIVERA                            0501
A0101407270162331908014JENNIFER C. RAVELA                                       0502
A0101407270162495837001DANNY T. VIDAL                                           0501
A0101407270162539457001MARIA LACSINA A. DIAZ OR                                10501
A0101407270162539457001JOHN PAOLO N. CA                                        20500
A0101401090000001611461RAYMOND P. CLARIN                                        0502
A0101401090171195146001MARIA REBECCA M. PENAFIEL                                0501
A0101401090171312683001JAIME TRINIDAD &/OR                                     10501
A0101401090171312683001LEILA TRINIDAD                                          20500
A0101401090171462288001PADILLA, ERIC JOHN FRUTO                                 0505
A0301400950000002115231**********                                               0501
A0101412500000001146816BUENAVENTURA, MARILOU ROSERO                             0501
A3101400160000000429156SOSMENA, JONATHAN A OR                                  10502
A3101400160000000429156SOSMENA, AILEEN                                         20500
B3101400160221020497001AGUA CALIENTE HOT SPRING RESORT                          1603
B3101400160221224862001JOYME ROCKSCAPES CORPORATION                             1601
A3101400160221478374033ELMER M. VALERIO                                         0502
A3101400450223028468001NEW ARMSTRONG SECURITY AGENCY                            0502
A3101400450223352819001FARAON, RIZALINA OR                                     10502
A3101400450223352819001BELEN, RHODORA                                          20500
B3101400740000000013889IM DIGITAL PHIL INC.                                     1605
B1001400190000000124810GOCHUICO, PETER LIM                                      1602
A1001400190231478374083CHIONG, MARIVIC P.                                       0502
A1301400470252428897001DR. VICTOR OLIVER AMORIN OR                             10505
A1301400470252428897001DRA. EDELIZA AMORIN                                     20500
A0101401670271228042001TINIO, JUAN ANGEL LIGON                                 10501
A0101401670271228042001OR TINIO, MARIA CELESTE                                 20500
A0101406460000002331044CHUA, JACINTO SY DBU ALUFORM PR                          0501
A0101400570000005666555JRD TIRE RETREADING                                      0502
A0101400570281405220002AGNES FELIZA L. EDILLON                                  0501
B2601400270000005301739GAUDIOSO TALAVERA JR OR EMILIA TALAVERA                  1605
A0101402350000003080322DANAO, LINO OR DANAO, RUFINA                            10501
A0101402350000003080322DBU L2 AUTO SHOP                                        20500
A0101402350321478374050JESUSA G. CAYLAN                                         0501
A0101405650000004822275MARQUEZ, MARIE PAZ CASTILLEJO                            0504
B0101405650322022711001BF MANRESA HOMEOWNERS' ASSN., INC.                       1601
A0101405650000005284493LOPEZ, IMELDA MARCOSA LAUDE                              0502
A0101405650000000348903ESPERANZA F. BAYLON                                      0502
A0101405650322581405001GADIN, MYLA AURELIA OR VESES,                           10502
A0101405650322581405001LILIA OR HERNANDEZ, DANTE                               20500
A0101402510341199632002ANA LIZA R. DELA CRUZ OR                                10503
A0101402510341199632002ANTONIO T. DELA                                         20500
A0101402510341323156001ROMINA R. BARCARSE OR                                   10502
A0101402510341323156001DOMINGO R. BARCA                                        20500
A0101402060351392275001YAP, KENNETH YU                                          0503
B0101409050000000258571CITY MARQUE LIMITED                                      1602
A0101409050000002333400ALLAGADAN, ERIC CAYETANO                                 0501
A0201400890000006962021HERNANDEZ, JAN RYAN CANDOLESAS                           0502
A0101402930000003710494TECSON II, DELANO VINCENT DOROT                          0501
B0101402930381008800001THE PEARL PLAZA INC.                                     1605
B0101402930381008843001BASIC HOUSING SOLUTIONS, INC.                            1605
B0101408370382028392002YUMMY CORNER ENTERTAINMENT CORPORATION                   1606
A0101408370382392765001DRS. MC KASALA AND E CUAJUNCO                           10501
A0101408370382392765001AND MJ DE VERA                                          20500
A0101408370382397209002DR. PERCIVAL P. PANGILINAN                               0503
A0101408370382455223001DR. ROMMEL D. BAUTISTA                                   0502
A0101408370382503035001DR. MARIA ROSELLEE BAYONA OR                            10502
A0101408370382503035001ROBERTO BAYONA                                          20500
A0101411660000005324094SMITH, JON MICHAEL                                       0501
A0101402770391757431001CHAN, HAYDEE CHUA OR                                    10501
A0101402770391757431001CHAN, PAULINO CO                                        20500
A0101408950000004512069LAO, JONATHAN GIL CALUMPANG                              0501
A0301400820000001554730BATIANCILA JR., NARCISO D.                              10502
A0301400820000001554730OR BATIANCILA, JUDITH                                   20500
B5501400120410034944001STARBRIGHT OFFICE DEPOT, INC.                            1610
A5501400120410640220001SAGA, DEAN ADALLA                                        0501
A2401400180411023998002ENE MARKETING                                            0502
A1201400150421252661001JOHN KWAN OR JENNY KWAN                                  0504
A1201400150421252693002ALEJANDRIA, ARCELY ALABADO OR                           10503
A1201400150421252693002ALEJANDRIA, ARMAND                                      20500
A1201400150421478374035DALAN, LINDA G.                                          0505
A0901400220000001805129**********                                               0502
B0901400220432043681001EVERLAST CONSTRUCTION                                    1601
B0101403030441336479001**********                                               1603
A0501400170481046585002ANG, JUSSLYNN DBU                                       10501
A0501400170481046585002AVS DISTRIBUTION                                        20500
A0501400170481409728004ANG, JUSSLYNN MAISIE ONG                                 0501
A1901400160000004521311EVELYN APOSTOL LAVISTO                                   0501
B1401400110492046339002******                                                   1620
A1401400110492788204001***************                                          0503
A0701400260000003259363DELA CRUZ, JULIUS ESPINOSA                               0502
B0101407430503034519001D.G.X. PHILS., INC.                                      1603
A0101407430503185312001JANETTE CORDERO                                          0501
A0101411400000005329966ALSHBAT, TARIK                                           0502
A0101411790518055764112DE LA FUENTE, IRENE SERRANO                              0501
B0101403610531041038001ANM CHEMICAL RESOURCES INC.                              1605
A0101403610531478374002GRAPE, IMELDA HANDOG                                     0501
A0101404130601534060001CAMACHO, JEANE VINLUAN                                   0501
B0101404260000004781266RD PAWNSHOP, INCORPORATED                                1602
A0101404260611549813001GALLANOSA, JOEL VELASCO                                  0501
A0101407690000003207223TATOY, MICHAEL JACINTO                                   0501
B0101407690652036815001TAGALINIS, INC.                                          1603
A0101407690000000053881********                                                 0504
A0101413570000000635530CARLOS ANGELO O. GOZON                                   0501
A0101413990000003141157**********                                               0503
A0101413990000006434897CASTILLON, DARIAN M. DBU                                10501
A0101413990000006434897D-MANGADA BAG REPAIR SHOP                               20500
A0101413990657062002001CMPEREZ CONSTRUCTION                                     0501
A0101414120000004603241TAN, BENJAMIN TIU                                        0501
A0101414120000006864533BUCAS, JOVEN ILAO                                        0502
A1301400210682340751001WILLY & WILFRED GO & JANETTE                            10504
A1301400210682340751001ATENDIDO & WILLI                                        20500
B2601400140691821100608**********                                               2001
A0101408240711228456002MA. VICTORIA MANIQUIS                                   10502
A0101408240711228456002OR STEVE MANIQUIS                                       20500
A0101408240711373874001MARILYN P. ALTAREJOS JT                                  0502
A0101408240711609459001DE PEDRO, JANET BELENZO                                  0502
A4101400260812478374056EMILY T. DIAZ                                            0502
A4101400260812565457001DEMANDANTE, CELSO VILLAREAL                              0502
A4101400260000000048753DIMABUYU, PAOLO JAYME MEDINA                             0501
A4101400420814357382003REMULLA, GILDA VASQUEZ                                   0502
A4101400420814418225001LOPEZ, ROSALINA OR                                      10501
A4101400420814418225001LOPEZ JR., RODRI                                        20500
A4101400550000000900332FABIAN, APRIL JOY BORRES                                 0506
B4101400550000000900138WILSTAR HARDWARE AND CONST. SUPPLY CORP.                 1602
A0101412340000003341517ALFRED REY P. CAHIGAS                                    0501
A0101404840000005820457QUINIANO, SAMUEL CELAJE                                  0501
A0101406750852084318001SIBUG, GENEATH P. OR                                    10502
A0101406750852084318001SIBUG, ERNESTO M                                        20500
A0101405070861037846001GOODNESS & MERCY MOVERS                                 10503
A0101405070861037846001SERVICES                                                20500
B0101405070000000260331SAISEI TAXI TRANSPORT INC.                               1602
A0601400230891032012001AQUA SPARKLETTS BY CARLYN                               10508
A0601400230891032012001NICOLE ALKALINE                                         20500
