B0101410300663821100608**********                                               2003
B0101410300663821100608**********                                               2003
B0101410300663821100608**********                                               2003
B0101410300663821100608**********                                               2003
B0101410300663821100608**********                                               2003
B0101410300663821100608**********                                               2003
B0101410300663821100608**********                                               2003
B0101410300663821100608**********                                               2003
B0101410300663821100608**********                                               2003
B0101410300663821100608**********                                               2003
B0101410300663821100608**********                                               2003
B0101410300663821100608**********                                               2003
B0101413150000000082773**********                                               1602
A1901400290000001926241GERALDINE LAS DUAT                                       0501
B1901400290261053758001MALARAYAT INNOVATIVE FINANCING                          11601
B1901400290261053758001CORPORATION                                             21600
A1901400160000017227373TAN, ANGELIQUE MAY DOCE                                  0501
A1901400160000017270981LOPEZ, EILENE QUENE SASALUYA                             0501
A0101413570000011963707BAYOLA, AILEEN                                           0501
B4101400260000005724125H SQUARE CONCRETE MIX  INC.                              1602
A4101400260812478374058DHIESEL M. SAULOG                                        0502
A0101400860011382943004**********                                               0503
A0101400860011539633001**********                                               0502
A0101400860011675338001**********                                               0505
A0101400860011774698001**********                                               0505
B0101401250019110000106BRIGHT INTERNATIONAL MANPOWER SERVI                      1602
A0101400150000000253085PERONO, EMMA SORIANO                                     0501
A0101400150061337098169MA. GISELLE A. LICERALDE                                 0503
A0101400150061338964007AGNES LAMBERTE                                           0501
A0101400150061780152001MARTHYN S. CUAN OR MARIE GRACE                          10501
A0101400150061780152001VERA CRUZ                                               20500
A0101405810072531616001**********                                               0505
A0601400100000009324130KWONG, CRISTINE JOY ANTONIO                              0504
B0601400360000003186827ANDROBOTICS CLARK INC.                                   1602
A0101414090000014876323CABRAL, ALEXANDER DEL ROSARIO                           10502
A0101414090000014876323OR CABRAL, MA. THERSA                                   20500
B0101414090000007344676JSL SECURITY AGENCY, INC.                                1610
B0101414090000007344676JSL SECURITY AGENCY, INC.                                1610
B0101414090000013005439ASSOCIATION OF FACULTY AND EDUCATORS OF                 11605
B0101414090000013005439DLSU INC.                                               21600
B0101414090000013005473BAHAY.ASIA BUILDING VENTURES INC.                        1602
A0101410850000005316876RAMOS JR., RODOLFO P. OR                                10502
A0101410850000005316876RAMOS, MA. CARMEN D.C.                                  20500
A0101410850000011276601NAYUBA, JONATHAN LAMAYO DBU                             10502
A0101410850000011276601DBNS BOTTLE TRADING                                     20500
A0101410850109532051002PARAS, JANICE ANN LUPIBA                                 0501
A0101410560000000590556GUTIERREZ, DOMINICA DALISAY                              0501
A0101400730000000833396CARBONELL, LEVINA IBALE                                  0502
A0101400730111520766072NORMA VENTURA                                            0502
A0101401960121238456001**********                                               0501
A0101413150000003208335******                                                   0502
B0101401830141028161001EXTERMICON GENERAL SERVICES, INC.                        1603
A5001400170000003324074ONG, ALBINA UY                                           0503
A0101400440000002035201CRISANTA M. FREO                                         0501
A0101407270000014296978CONANAN, TERESITA DE VERA                                0502
A0101401090171199566001ALICIA OR VIRGILIO ESTILLER                              0501
A0101401090000015531478QUERIDO, CHRISTIAN LLOYD CASIMI                          0501
B0301400950000013759112ABAD, MARY GRACE DEGULLACION DBU MG                      1605
B0101410720653035483001GERMALIN ENTERPRISES, INCORPORATED                       1602
A0101410720653768067001DELOS REYES, MA. ERIKA WONG                              0501
A3101400160221451302002IBUNA, ROMMEL AMAGNA AND                                10502
A3101400160221451302002GUERRA, NORVIC NINO IBUNA                               20500
B3101400740000000013914BETA NANOCOATING PHILIPPINES INC.                        1602
A3101400870000016896245CONCEL, LUKE IVAN FLORES                                 0501
A3101400870000016896832IBANEZ, JANIEVE DE OCAMPO                                0501
A3101400870000017286609FLORES, LAWRENCE LANA DBU                               10501
A3101400870000017286609COLOURBLINDS INTERIOR PRO                               20500
A1001400480000014024312GINES, EVELYN LINAAC OR                                 10502
A1001400480000014024312VILLARMIA, STEVEN B                                     20500
A1301400470252529647001MICHAEL PATRICK L. BANZON OR                            10502
A1301400470252529647001EMILY GRACE V. BANZON                                   20500
A1301400470252547519001VICTORINO C. RIVERA OR                                  10505
A1301400470252547519001LORNA D. RIVERA                                         20500
A1901400290261012553001CARMEL OF OUR LADY MEDIATRIX                            10503
A1901400290261012553001OF ALL GRACE                                            20500
A1901400290261326348001MANGUIAT, GLENDA AGUILA                                  0501
B0101401670271007482001VISEVERSA, INC.                                          1605
A0101406620273236978001CALLEJA, HOWARD MACEDA                                   0503
B0101400570281026341001PUBLIC SAFETY SAVINGS AND LOAN                          11605
B0101400570281026341001ASSOCIATION, INC                                        21600
A0101411240000007844600ATIENZA, NINA MONICA YORO OR                            10501
A0101411240000007844600ATIENZA, ROMMEL BRYLLE GO                               20500
A2601400270000002312232EDGAR I. GAMMAD OR MARICAR T.                           10501
A2601400270000002312232GAMMAD                                                  20500
B0801400160311014846001CITI APPLIANCE CORPORATION                               1612
A6601400120000011286503ALLADO, MERLYN POLICARPIO DBU S                          0501
A6601400120314668441002MASLOC, SHERRY AMOR GALONO                               0501
A0101405650000008159126ENRIQUEZ, REGINA AILEEN JT                               0501
A0101409050000002333397GREGORIO, JULIUS MARTIN SALCEDO                          0501
A0101409050000014598362OTENO, JOMAR DELA CRUZ                                   0501
B0101409050352031646002DELTA EARTHMOVING, INC.                                  1610
A0101402930000010657753BORLAGDAN, ALLAN CORBELLA                                0501
A0101402930000014435920DUMPIT, TOMAS MEANA                                      0502
B0101402930381017213002UNIVERSAL ROBINA CORPORATION - UCP                       1601
B0101402930381017213003UNIVERSAL ROBINA CORPORATION                            11601
B0101402930381017213003URC - GD                                                21600
B0101402930381017213007UNIVERSAL ROBINA CORPORATION                            11601
B0101402930381017213007URC - CMC                                               21600
B0101408370000001991660FOURTH VALLE VERDE ASSOCIATION INC.                      1603
A0101408370382461772001MACARR_PARKING CORP.                                     0505
B0101408790000002659163ACCRUE BUOYANT CORPORATION                               1601
A0101402770000012616283***************                                          0501
A0101402770391034936001LOGPRO EXPRESS, INC.                                     0502
A0101402770391211617001ANGELES C. TRINIDAD                                      0501
A0101405490000000355571MA ANASTACIA S. OR RITA THERESE                         10501
A0101405490000000355571S. DELA MERCED                                          20500
A0101405490000003178432MIRIAM D. PANO OR MELANIO B.                            10502
A0101405490000003178432PANO JR.                                                20500
A0101405490000011681275NARCISO, ANNA LYN MESINA                                 0502
A0101408400394508074001WEE, LEE HIONG TAN                                       0503
B0101409180000008122683FIRST CIRCLE GROWTH FINANCE CORP.                        1603
A0101409180000016933461PINEDA, JOYCE LACSON                                     0502
A0101409210000016486881NARON, CHRISTINE TALAVERA                                0501
A0301400820000014657840CAGO, YOLANDA G.                                         0502
A0301400820000014657873GOLIMLIM, MARIA LUISA V.                                 0501
A0301400820000012928684CAINTIC, ERWIN MORALES DBU EVR                          10501
A0301400820000012928684POULTRY FARM                                            20500
B0301400820000004746101FAMACION, RAMSEY DBU JARED SUITES OR                    11601
B0301400820000004746101FAMACION, BEULAH                                        21600
B5501400120000012653548SAY, HELEN LAO DBU NEW MARBEL AMIGO                     11605
B5501400120000012653548COMMERCIAL                                              21600
A0101403030000016192119ZHUANG, XIUFEN                                           0501
A0101412890000009833861NERA, MAURA DE SAGUN OR                                 10502
A0101412890000009833861NERA, PASCUAL VILLAMOREL                                20500
A0101412890000005913340TAI, EVELYN SIA OR                                      10501
A0101412890000005913340TAI, SUN WAH LAO                                        20500
A0101412890000009833690AMERNA, EMMIE MARIE L. OR                               10503
A0101412890000009833690AMERNA, PAUL MICHAEL A.                                 20500
B0101412890470077699001SKY HIGH FITNESS GYM                                     1602
A1901400320000000679250RUEL FLORES ILAO                                         0501
A1901400160491063374002GARING, DBU EG PLUS FEEDS AND                           10503
A1901400160491063374002POULTRY SUPPLY                                          20500
A1401400110000016984240PANGANIBAN, STELLA VILLAREAL                             0501
B1601400170000000036035SIX IN ONE CORPORATION                                   1605
A0701400260000014169070DE LA ROSA, JUANITO ALIPIO ABAD                          0501
A0101405940512357111001LEONITA M. LABAYO                                        0502
A0101411400000017189734DIVA R. VELEZ                                            0502
B0101411400000017286563JCS GASTRONOMIE INC.                                     1601
A0101403450000013846541***********                                              0502
B0101403450521011882004PAN PACIFIC TRAVEL CORPORATION                           1603
B0101403450521240366001**********                                               1604
B2201400250561028327002ALLAN P. GAYONA                                          1602
A2201400250561655717001JAIME Y. MARIANO                                         0504
A2201400250561779860001ROBERTO P. VENTURA                                       0501
A0101410690000009658702LEONES, EVA MARIE BAUTISTA                               0501
A0101410690000016105683TANO, JAMAICA SAPA                                       0502
B0101407720602531639007INTELLIGENT BEAUTY SKIN SOLUTIONS INC.                   1602
B0101404260611018794002HAVEN MONTESSORI, INC.                                   1601
A0101407690000010774473DIEL, AMOR DALAYAP                                       0503
B0101407690652017362001IGLESIA NI CRISTO                                        1605
A0101407690652034151001D' ABET JUNK SHOP                                        0506
A0101407690000006736496SALLY B. LABIANA                                         0501
A0101407690652525001051ANNABELLE BADAYOS - DEALERS OF                          10501
A0101407690652525001051SHOECAT INC.                                            20500
A0101413990000007318687WILHELMINA C. REYES                                      0501
B0101414120000003584332GREAT SIERRA DEVELOPMENT CORP.                           1602
B0101414120000007655378ABMARAC CORPORATION                                      1601
B1301400210000005041007***                                                      1604
B13014002100000081738601960 METAL INDUSTRIES INC.                               1604
A1301400340000010467433PENA, DENNIS EMMANUEL CRUZ                              10501
A1301400340000010467433OR PENA, LEAH COLINA                                    20500
A1301400340683249082002RICARDO HERMOSO II OR                                   10501
A1301400340683249082002AGRIPINA HERMOSO                                        20500
A0101408240711395808001HERMENEGILDO P. MANZANO JR. OR                          10502
A0101408240711395808001NORMA Y. MANZANO                                        20500
A0101408240711630500001BELEN, VICTOR POSADAS                                    0502
A2801400230000009022075CUSTODIO, BRIAN EARL DEL ROSARI                          0501
A2801400230000001782101FRANCIS MERCHANDISING                                    0501
B4101400260812045529001CITISTORES INC.                                          1602
A4101400260812476645001ROLANDO S. BASILIO                                       0501
A4101400420000004848120AZARES, JANET LASCANO DBU                               10501
A4101400420000004848120LASCANO-AZARES DENTAL                                   20500
A4101400420814520766013CORTEZ, MARJORIE P.                                      0501
B4101400550000006044195HAPPYLEE FOOD CORP.                                      1605
A0101404840000001312543CERBITO, SALVACION                                       0501
A0101406750852020394001EQUITABLE BANK VILLAGE HOMEOWNE                         10501
A0101406750852020394001ASSOCIATION                                             20500
B0101405070861034415001ROTARY CLUB OF DOWNTOWN MANILA                           1601
A0101405070861197518001RICARDO G. CHAN OR                                      10504
A0101405070861197518001OLIMPIA C. CHAN                                         20500
A0101405070861366707001ARELLANO, MA. ELENA BALLESTEROS                          0502
B0101413860862059523001INTERNATIONAL SEAMEN MUTUAL LABOR A                      1601
A0601400230000014299659MUNOZ, MYLIN SANTOS                                      0501
A0601400230000002310241VILLEGAS, KRISELDA TANJUAQUIO                            0502
A0601400230000013259100MAIGUE, REYNANTE ASIS DBU RMK-K                         10502
A0601400230000013259100OR VILLEGAS, KRISELDA                                   20500
A0601400230891398766001..........                                               0501
