B0101406750852821100608**********                                               2005
B7201400170000003773626**********                                               1605
A7201400170000016056052MADARANG III, CARLOS NENGASCA                            0501
A0101402060000002259992CO SAY, ERIC CUA                                         0501
A0101408370382706108001ALFREDO P. DAVID                                         0501
A1901400160491069802001BICO JR., DBU TROY DANIEL                               10501
A1901400160491069802001TRUCKING SERVICE                                        20500
B4101400390000006103548IZU NOBLELINK INC.                                       1601
A0101400860011608256001**********                                               0502
A0101400860011693273001*************                                            0503
A0101401250021034026001PETS AHOY FEEDS AND                                     10502
A0101401250021034026001POULTRY SUPPLY                                          20500
A0101401250021762195001FERMIN, MARICAELI SANTILLAN                              0501
A0101400150000006551044NAKPIL, MARY GERALDINE ANN                              10501
A0101400150000006551044LOPEZ                                                   20500
A0101400150061341245002BENILDA CARPIO                                           0501
A0601400520000001706792BUNGQUE, ALDRIN CAPILI                                   0502
B0601400520000005943666EGG MASTER ASSOCIATION, INC.                             1603
A0101400730000011613722DIMACALI, LEONORA BARCELONA                              0501
A0101413150000001688639***********                                              0501
B0101412630132035817003H L T INTERNATIONAL INC.                                 1601
A0101412630000007168752MA TERESA D BICARME                                      0501
A7201400170000003773017EDULSA, NELSON CALME OR                                 10502
A7201400170000003773017EDULSA, CRISANTA IDOL                                   20500
A7201400170000007185853DACAL, GARY CAPACIO                                      0502
A0101412920000005675727TUMALA, JEFFREY PANTINO                                  0501
A0101412500000016074203GABIETA, MARICRIS VILAN                                  0501
A3101400160000016071635VOLFANGO, MA. JANINE CEPEDA                              0501
A3101400740000014277648MALIG, ALENA CUETO                                       0501
B3101400740000000013889IM DIGITAL PHIL INC.                                     1610
A1001400350000003867272BERNALES, CHRISTOPHER ERA OR                            10505
A1001400350000003867272BERNALES, JESSIC                                        20500
A1001400480000003357500SALVACION JR., DIONISIO CAINGLE                          0502
A1301400470252482273001DRA. LEONOR J. DIZON                                     0501
A1901400290000005565864VIOLETA CUENCA VILELA                                    0502
A1901400290000011244670NORIE HARINA SANTIAGO                                    0501
B0101406460000001231689***********                                              1602
B0101406620273031145003KOHL INDUSTRIES CORPORATION                              1601
B0101406620273033463001ARL BUSINESS CONSULTANCY, INC.                           1602
A0101406620273214161001FLORES, RUTH OR RICARDO JR., OR                         10501
A0101406620273214161001RICARDO OR RACHEL OR ERIK                               20500
B0101406620273459504001SANOSIL PHILIPPINES INC.                                 1601
B0101406620273545544001SUMMIT TEAM WELLNESS CORP.                               1601
B0101406620273733659001ULTRAGAS CARRIERS CORP.                                  1602
A0101410980000000533759TIOSIC, RUSTICA TANSENGCO                                0501
A0101400570000001681916BLACKA, ELIZABETH UBIAS                                  0501
A0101400570000015532988RODRIGUEZ, RALP IVAN ANN                                 0501
B0801400160311494221001JUCABAN, LEO LAGOS                                       1601
A0101405650322764132001BACERO, RENATO ARROJADO                                  0501
A0101402510341202209003********                                                 0501
A0101402060351495895002ARCEO, FLORDELIZA CHAVEZ                                 0501
A0201400920000002804480MIRANDA, SAMMY                                           0502
A0201401020000013924871ALERTA, BILLY JIM MAGALLANO                              0501
A0101408370382319789001ROCHELA B. CUAYCONG OR                                  10502
A0101408370382319789001CESAR A. CUAYCONG                                       20500
A0101408370382629554001*******                                                  0501
A0101405490000005692497MARCIANO, MARILYN FERRER                                 0502
A0101408400000012951601VITALES, MISAEL RANTE                                    0503
A0101408400394492875001SISTOZA, ERNESTO MORALES                                 0501
A0101409180000012364022SRINIVAS GOPAL, SATISH                                  10501
A0101409180000012364022BINDINGNAVALE                                           20500
A0101409180000003866677WITTIG, LARS BENDSON                                     0502
A0101409180397160632001HIPOLITO, MARIELA TWINKLE JAMIN                          0501
A0301400820000007135060ROSALITA, JEFF MARK LAMPAGO DBU                         10502
A0301400820000007135060JMR ENTERPRISES                                         20500
A2401400180000012748517**********                                               0502
A2401400180411514423001DEALA, BERNARDITA GATCHALIAN                             0502
A5101400100000011336917LIM JR., VIRGILIO RETAZO JT                              0502
A5101400100000011337243BALAGULAN, ABNER TUQUIB                                  0501
B0101403320000012881842********                                                 1603
A0101403320471478374016SONIA SALANIO                                            0501
A1901400160000007556809MANGUIAT, ELMA M. OR                                    10506
A1901400160000007556809MANGUIAT, ROMEL T.                                      20500
A1901400160000016072952MIRANDA, FRANK AGUINALDO                                 0501
A1601400170000001069170GILDA MAY S. BITARA OR                                  10504
A1601400170000001069170FRANCIS RAEL C.                                         20500
A0101403580000010176991NUNEZ, MAYLOUDEL CELIZ                                   0501
B0101403580000010847442MUY BUENO FOOD INC                                       1602
A0101403580511150751001RUFIA DOROTHY C VERA JT                                  0505
A0101405940000000061572SOLIMAN, TERESITA L. OR LUIG,                           10501
A0101405940000000061572ISABELA OR LUIG, CARL                                   20500
A0101405940000005359446BANIEL, BEN FABALE                                       0502
A0101408530000016066090MACUJA, GARRY POL MARQUEZ                                0501
A0101408530000016067840BASCO, ARNEL JOSE PARAS                                  0501
A0101408530000016066170DE JESUS, MARY ANGELY ROMARAOG                           0501
A0101408530000016066216MALATE, KIARA BUMATAY                                    0501
A0101403450521239921088*********                                                0505
B0101403610000015811191LA FELONILA SCRAP DEALER, INC.                           1601
A2201400250561299317001MIRASOL M. SAN SEBASTIAN OR                             10502
A2201400250561299317001ALLAN M. SAN SEBASTIAN                                  20500
B0101404130000004437223CAPTIVATE SHOPPER MARKETING INC.                         1604
A0101404130601547411001CO, ROYCE NASIS                                          0506
A0101407720000004664853QUINES, MEGAN MARIEL OROZCO                              0501
A0101407720602785772001ESCUREL, CAROLINA NAGUIT                                 0503
A0101404260000006374536VIOLAN, MASTER LANCE ARVIN CORT                          0501
A0101409920000010528782NG, ARVIN ARIEL NAVARRO DBU                             10502
A0101409920000010528782A. NG VANITY CENTER                                     20500
A0101407690652544490002HEYDEE B. ROSAL OR ALMA B. KING                          0502
A0101411530000003238286**********                                               0501
A0101414120000014550637OLONA, JESUSA SAN MIGUEL                                 0501
A0101414120000000875914NHOEL JR. CONSTRUCTION                                   0502
A0101414120000015400621TRILOGY EVENTS & TALENTS                                10502
A0101414120000015400621MANAGEMENTS                                             20500
A1301400210000007669289GONZALES, MARK OLIVER SANTIAGO                           0503
A1701400230000001786883LAO, ANGEL ALVAREZ DBU TRAVEL I                         10502
A1701400230000001786883LOCANDIA TOURS & TRAVEL                                 20500
A1701400230693710362001CUA, RONALD CU                                           0503
A0101408240000016070450DEL ROSARIO, ZANDRA LEE DELOS R                         10501
A0101408240000016070450OR DEL ROSARIO, JOSEPH D.                               20500
A4101400260000016066067SARAKINIS, ANDREW LEO                                    0501
A4101400260000014088350AMOS, JOAN AZENITH T. DBU                               10501
A4101400260000014088350GLENZEN HARDWARE                                        20500
A4101400390000003389548BELMORE R. TAGLE                                         0501
A4101400390000016072230ARENAL, CHRISTOPHER BACOLOD                              0501
A4101400390000016072332CALAGOS, NOREEZ JEM NAOA                                 0501
A4101400390000016072398CRUZADO, NIMROD MADRAMO                                  0501
A4101400390000016072456MACABANTE, NANETH ALCANTARA                              0501
A4101400390000016072490PALUSTRE, DARWIN MAJILLO                                 0501
A4101400390000016072536REYES, HONEY JOICE .                                     0501
A4101400390000016072569TURINGAN, ERLINDA CARINO                                 0501
A4101400420000002084522TERESITA A. AGAWIN                                       0501
A4101400550000001622571RIVERA, GENEVA NOELLE VARONA                             0501
A4101400550000006044628BALDERAMA, CARMELITA DAGALE                              0501
A0101404840851046725006MELA M. GEROLAO                                          0501
A0101404840851046725028GENERALES, RHODA ALTEZ                                   0502
A0101406750000007879392ROXAS, JARY NAZARETH MANDAP                              0501
A0101406750000014700955JOHN RUIZ NADAL OR EDD DARREN                           10501
A0101406750000014700955DIAZ                                                    20500
A0101406750000015823562ERSANDO, GREG NAIGAR OR                                 10501
A0101406750000015823562DAVIS-ERSANDO, ANNABELLE                                20500
A0101406750000005608493SOUTHERN HELEVICLE TRADING                               0503
A0101406750852182653002WILSON, ERLINDA JOSON                                    0502
A0101405070000015800569JOSEPHINE MARQUEZ SALVADOR                               0501
B01014050700000060060428FIFTH TRAVEL AVENUE CORP.                               1602
A0601400230000013259440MARTIN, GRACE YABUT OR                                  10501
A0601400230000013259440MARTIN, RYAN MARIS                                      20500
A0601400230000012134433**********                                               0502
