B0101400440000000337871GERAND BUSINESS CONSULTING CORP.                         1602
A0101400440161039572003JUDELITA S. ECHUAL                                       0501
A0101400440000004901564DOVIE T. JERMIA                                          0502
A0101400440161520766189PRESCILA P. DOTONG                                       0501
B0301400820409091735055LIMA, WINDELL BRISTOL DBU DAVAO HOME                    11602
B0301400820409091735055BUILDERS CENTER                                         21600
A0101403320000012772942BEN B. MACALALAD OR                                     10501
A0101403320000012772942BELEN B. MACALALAD                                      20500
A1601400170000009954221DIZON, GLENDA ABELLANO                                   0501
A0101413440000006680700MARIANO IV, JORGE BARTOLOME                              0501
B0101404840851214607002KAWASAKI EMPLOYEES MULTI-PURPOSE COOP.                   1602
A0101400860000003571679**********                                               0502
A0101400860011233228001SAGISI, NANCHITA Y.                                      0501
A0101400860011572208001**********                                               0502
A0101400860011774672001**********                                               0502
A0101400860011774698001**********                                               0505
A0101411370000002269343**********                                               0501
A0101400150000004915140PAREN, RYAN MAGNO                                        0501
A0101400150000002902354CEA-QUILLOPE, DOLORES DE LEON                            0502
A0101400150000003162278SHALUM B. AGUILA                                         0501
A0101400150000009400060CRUZ, MAY FRANCES ESTAVILLO                              0501
B0101400150061010612001INTERNATIONAL ELEVATOR & EQUIPMENT                       1605
B0101400150061044721001PHILIPPINE TRAVEL AGENCIES ASSOCIATION                  11601
B0101400150061044721001FOUNDATION INC                                          21600
A0101400150061420116003SISON JR., ANTERO MILITANTE                              0502
A0101400150061434843001IGNACIO, MARIA CHRISTI-ANNA                             10501
A0101400150061434843001LAWIS                                                   20500
A0101400150061720939001HUANG, OLIVIA SHAU                                       0501
A0101400600071457180001**********                                               0501
A0101405810000001021309MERCADO, TERESITA ARSITIO                                0505
A0101405810000002314621LAO, HELEN CHUA                                          0501
A0101405810000001021172PUA, C DBU MCK SCHOOL & OFFICE                          10505
A0101405810000001021172SUPPLIES                                                20500
B0101405810072412798001**********                                               1603
B0101405810072412798002**********                                               1603
A0101405810072432061001GO, SONIA LALLAVE                                        0501
A0101405810000001021207CHEN, TINGYU                                             0510
A0601400100081590627001BASILIO, ADAMSON CUNANAN                                 0501
A0601400360000012883677GONZALES, ROSELEO JOSE LAGMAN                            0501
A0101413280000005084920GREGORIO, ERDY ONIA                                      0501
A0101410560000002316525JULIE ANNE D. GARAN                                      0501
B0101400730111038945001COMMERCE ASIA, INC.                                      1601
A0101400730111334903027NELSON MANALILI                                          0501
A0101400730111386485063LYNETTE E. BENDANILLO                                    0501
A0101406040000010081420********                                                 0501
B0101406040000006025321ONGZEN BUILDERS INCORPORATED                             1601
A0101406040000000096811********                                                 0501
A0101401960000006004411***************                                          0501
A0101401960121569490001************                                             0502
A0101413150000000082619******                                                   0502
B0101401830000000059961CONSUELO MARIA PAZ, INC.                                 1601
A7201400170000003774210HORTELANO, SATURN BACOLOD                                0501
A7201400170000003774221MANCO JR., ANIANO RAMIREZ                                0502
B7201400170000003773513ZAMBOANGA DEL SUR I ELECTRIC COOPER                      1602
A5001400170000000044982URBAN PAINTS & MORE ENTERPRISES                          0502
A5001400170000000170141MOISES, RACHEL OR TIU, REBECCA                          10510
A5001400170000000170141OR TIU, EDUARDO                                         20500
A0101400440161565865001MARIA KATHRINA G. SALVADOR                               0501
A0101407270000000043472MATTHIAS WROBLEWITZ                                      0501
A0101401090000004753793FAMADICO, NORBERTO F.                                    0501
A0101401090171196803001ROSELLA L. MONTANO, M.D                                  0502
A0101401090171198373001MARIVIC G. USITA                                         0501
A0101401090171314587003AURORA S. CRUZ                                           0502
A0101401090171493504001LOUIE CHRISTIAN NARANJO                                  0502
B0301400530000003573357*****                                                    1603
B0301400660000002348541ERVY LOGISTICS                                           1602
A0301400790000006269787ONG, RUSSELL RITCHIE BAUTISTA                            0502
A0301400950000002251963LABRADOR, DANTE OLAIVAR                                  0501
A0101401380000000792201HERRERA, OLIVER BAETIONG                                 0501
B0101401380201018537001VELUZAR(PASAY) INC.                                      1601
A0101401380000000026888YABUT, MA. NICOLE KRISTINE                              10501
A0101401380000000026888GARCIA                                                  20500
A0101412500000003289992****                                                     0501
B3101400160221013530024RD PAWNSHOP, INC.                                        1606
A3101400160221218333001KATHERINE OR CARLOS SION                                 0506
A3101400160221419880001ROWENA B. SUN                                            0502
A3101400160221478374053CHRISTOPHER D LISING                                     0501
A3101400450000005355471CIGARAL, PEDRITO EXCONDE                                 0503
A3101400740000005111533BARRERA, JENNELY ORQUILLANO                              0501
A3101400740224620447001COQUILLA, FELIMONA SAMUYA                                0501
B1001400190000001057669HEXAGONTECH AUTOMATION, INC.                             1602
A1001400190231235649001DUGADUGA, METHOSALEM                                     0502
A1001400190231478374012FARINAS, EVA MAE CENTO                                   0501
A1001400190231520766094SALAGUSTE, FELIPE B.                                     0501
A1001400190231520766117TAROY, MARIONNE ANGELOU SALEM                            0501
A1001400190000000016468NERI, JENNY RACAZA                                       0501
A1001400190000002170532PADIZ, ROSA ALMA V.                                      0501
B1001400350233038700008KIANEN TRADING                                           1610
A1001400350233478374006IBANEZ, ELSA                                             0502
A1001400350233543683001DONGGAY, CERAEL CAGA-ANAN                               10502
A1001400350233543683001OR DONGGAY, FELI                                        20500
B1001400480000003357880PBRAGANDANG DEVELOPMENT CORPORATION                      1605
B1301400470252041195001GAMECOCKS BREEDERS ORGANIZATION OF                      11605
B1301400470252041195001NUEVA ECIJA, INC                                        21600
A1301400470000003270431CHRISTIAN VINCENT R. SALAZAR                             0502
A1901400290000003252833DE OCAMPO-DIMAANO, ROSELLE                              10501
A1901400290000003252833DIMAANO                                                 20500
A1901400290000002337726JOHN VINCENT MANALO CARAAN                               0502
A1901400290261244348001ROLANDO M REYES OR                                      10502
A1901400290261244348001DRA. ERLINDA V REYES                                    20500
A1901400290261541758001EDWIN C MENDOZA                                          0502
A0101401670000007555657TAMBA, OFELIA LARDIN                                     0501
A0101401670271217175002TERESITA OLIVEROS OR                                    10503
A0101401670271217175002GREGORIO OLIVERO                                        20500
A0101406460272747467002******************                                       0501
A0101406620000005394976TSUI, TERENCE KAR HO LUALHATI                            0501
B0101406620273024061001MOUNTAINGATE GOLF SERVICES, INC.                         1605
A0101406620273503260001PAGADUAN, MICHELLE DELOS REYES                           0501
A0101408660000000059932MARGAS, HELEN DUMAYAC                                    0501
A0101408660274478374012ELSA R. ETCUBANAS                                        0503
A0101411110000012643679NOELLE H. GONZALEZ                                       0501
B0101400570281007188002KIMURA CHAVES ENTERPRISE, INC.                           1602
A0101400570281186598003DR. BIENVENIDO S. GADDI OR                              10510
A0101400570281186598003NORA B. GADDI                                           20500
A0101400570281188735003ATTY. PAUL SAGAYO, JR. OR                               10501
A0101400570281188735003SNOOKY MARIA ANA                                        20500
A0101400570281507924001RAMOS JR., MIGUEL ARAOJO                                 0502
A0101400570281518037001TAN, WINDFIELD LIM                                       0502
A0101400570281670563001JANET M. MARTINEZ                                        0502
B0101411240283004287001LURONAGI CORP.                                           1601
A0101411240000005136516CHAN, JACKY UY                                           0501
A2601400270302762450001JOYCE ANN MAYE L. DOON                                   0501
B0801400160000001289932RD PAWNSHOP, INC. - ILOILO NORTH                         1603
A0801400160311478374079MANUEL F. RAGANAS JR.                                    0502
A0801400160311504342001JANG, WON JEON JEONG                                     0502
A2001400290315042654001GFR TIRE SUPPLY AND SERVICE                             10504
A2001400290315042654001CENTER                                                  20500
A20014002903157461190020UHISAN, CAROLINE LU   JT                                0505
A3401400280000002323451PETER RANDY G. DELA CRUZ OR                             10502
A3401400280000002323451CARINA C. DELA CRUZ                                     20500
A3401400280000003309242BICLAR JR., ALBERTO ALMASOL                              0501
A3401400280000001723382BENLIRO, ALFIE TIANCHON                                  0501
A3401400280318742721001ROGER T. LIM OR RUBY A. LIM                              0502
A0101402350000005645241FELLIZAR, EMILIA PABRUA JT.                              0502
A0101402350000000145571GOSGOLAN, JOSELINA SARIO                                 0501
A0101405650000009768074VILLAROSA, MA. AMELITA CALIMBAS                          0505
A0101405650322403661001BIENVENIDO C. CASTILLO III OR                           10502
A0101405650322403661001MARIA REGINA T.                                         20500
B0101402510341060430001STANDWELL CORPORATION                                    1601
B0101402510341060430001STANDWELL CORPORATION                                    1601
A0201400760000000223156NELSON A. TORRES OR                                     10505
A0201400760000000223156ASUNSCION G. TORRES                                     20500
B0201400760374032856001CEBU JETT TRADING, INC.                                  1601
B0201400760374032859001TA & A TRADING CORPORATION                               1601
A0201400760374443220001GO, ELIZABETH TIU                                        0501
B0201400920375035473001UNI KEANNE TRANSPORT SERVICES                            1605
A0201400920000002249998GALANG, LORLIE PACURIBOT OR                             10501
A0201400920000002249998GLENN ANTHONY GALANG                                    20500
A0201400920000002804480MIRANDA, SAMMY                                           0501
B0201401020000009499143CABESAS, MILDRED MARDO DBU PMS ELEC                      1603
B0101408370382011532001**********                                               1601
A0101408370382205314001CABRERA, MARY JANE SILAYAN                               0501
A0101408370382397942001DR. JULIETA S. MAHUSAY OR                               10505
A0101408370382397942001DR. TEODORO S. MAHUSAY                                  20500
A0101411660000000751137FREDERICK JOEL LIM OR                                   10501
A0101411660000000751137IMELDA ONG                                              20500
A0101415350000006212937SANAREZ, MARY ANN BALDONANZA                             0501
B0101415350000003212380TECH1 CORPORATION                                        1602
B0101415350000003212391SYNTECH SYSTEMS, INC.                                    1602
A0101402770391013439001JIREH'S CAR PAINT SHOP                                   0503
A0101408400000005286320AMEROL, ROSLINA MAROHOMSALIC                             0504
A0101408400394478374062APOLIS, SALVACION G.                                     0502
A0101408400394478374063LACSON, MARITES                                          0502
A0101408400394662341001MENDOZA III, MARIUS EXEQUIEL                             0501
A0101408950396504044001**********                                               0502
A0101409210398344507001ROXAS, NARCISA NARRA                                     0501
A0301400820000008995599SUMAGIT, DANILO S.                                       0502
A5501400120410042731001KENDRICK MANPOWER, ENGINEERING                          10505
A5501400120410042731001ALLIED SERVICES                                         20500
A2401400180411338845004PERALES, ROBERTO TAN         JT                          0503
A2401400180000000428051EGOS JR., JEMMERITO CASANA                               0504
A1201400150000006253761JAVIER, JESUS LADI                                       0502
B1201400150000000034379GOSHEN LAND CAPITAL INC.                                 1610
B1201400150421251384001FREE BELIEVERS IN CHRIST FELLOWSHIP                      1601
A1201400150421464835001*****                                                    0502
A1201400150000000034493YU, MARTINA BAGONA                                       0505
A1201400150421685972001JUCUTAN, HEIDI BONDAD OR                                10502
A1201400150421685972001JUCUTAN, ROMMEL                                         20500
A0101412890000007095287JOSEPH A ALZATE                                          0505
A0101412890000009833827**************                                           0502
B0101412890000003727899RUSTY LOPEZ ENTERPRISES INC.                             1601
A0101412890000001765379LINO E. LIM JR.                                          0510
B0101403320471064355002SQUARE METER TRADING AND CONSTRUCTION                   11601
B0101403320471064355002CORP.                                                   21600
B0101406330472046636001ENERTECH SYSTEMS INDUSTRIES, INC.                        1610
A0101406330000007331713QUICKFLAMES METAL FABRICATION                            0502
A0101406330472657550002**********                                               0501
A0101412760000001399573MARY ANN P. RIZO                                         0502
A0501400170481285059002CHUA, CRISTINA YU OR                                    10501
A0501400170481285059002CHUA, REBECCA YU                                        20500
A1901400160000012671211DOMINGO A. TORRES OR GLORIA G.                          10501
A1901400160000012671211TORRES                                                  20500
B1901400160491064500001GOOD HEART MARKETING INC.                                1602
A1401400110000010622641MILAR, RAMIRO JIMENEZ                                    0501
B1401400110492031376001LUCENA WHEELER ENTERPRISE INC.                           1602
A1401400110492412423001LUNA, MA. TERESA MAGBOO OR                              10503
A1401400110492412423001LUNA, EDWIN                                             20500
B1601400170000000036035SIX IN ONE CORPORATION                                   1605
B1601400170000000036160LEGAZPI FOUR SEASONS                                    11603
B1601400170000000036160RESTAURANT, INC.                                        21600
A0101407430000011167650UY, MICHAEL JOHN GESMUNDO                                0501
B0101407430503009819002AIRGLOBE, INC.                                           1603
B0101407430503023639001LAMBERT WILLIAMS LOGISTICS, INC.                         1610
B0101403580511020857001ROBROS INCORPORATED                                      1605
A0101408530516593577112PULANCO, REX LASTIMOSA                                   0501
A0101408530516593577113FERIA, RENATO .                                          0501
A0101408530516593577115ROA, MIGUEL CARLO ERFE                                   0501
A0101408530516593577116ZAPATA, JOSE FELIPE BUENO                                0501
A0101411790000009724632JIMENEZ, MAYFLOR VERIDIANO                               0501
A0101411790000012775914CHEN, SHUIQING                                           0501
B0101411790518046887002SCOTT PARK GROUP PHILIPPINES INC.                        1601
A0101403450000000889363ARES, MICHAEL ERNE                                       0501
A0101403450000001637903UNG, NATHANAEL SO                                        0501
A0101403450000001637910UNG, JACOB SO                                            0501
B0101403450521029235001*******                                                  1605
B0101403450521031323001******                                                   1601
B0101403450521039814001JADE BROS. FREIGHT INT'L. INC.                           1604
A0101403450521192368001NGO, TERESITA TAN OR                                    10504
A0101403450521192368001NGO, EDGAR KING                                         20500
B0101403610531014741001DOMFERRER DESIGNS, INC.                                  1604
A0101403610000002347231MERCADO, ALMA BERROYA                                    0501
A0101403610531304005001ANCHORIZ, NERRIZA OR                                    10505
A0101403610531304005001ANCHORIZ, FRANCI                                        20500
A2201400250561038458001PTT SOUTH RAMP GASOLINE STATION                          0501
B0101404130601021574001XYTRON INTERNATIONAL INC.                                1601
A0101404130601237439001ANCHETA, MIRAFLOR PEREZ                                  0501
B0101412180000001293152AGORA TECHNOLOGIES, INC.                                 1602
B0101412180000009200242PRIME GLOBALPRINTS, INC.                                 1601
A0101404260611150840001WILLY CHING OR ISIDORA CHING/                           10505
A0101404260611150840001GOLDSUN LUMBER                                          20500
A0101404260000000156803ORDONA, JEREMIAH RAMILO                                  0502
B0101409890649047997001SILICON VALLEY COMPUTER GROUP PHILS.                     1601
A0101413440000001472782MONSAY, MARY ROSE P.                                    10505
A0101413440000001472782AND EVALE, ANALI                                        20500
A0101413570000010111772MOLENO, ELVIRA GUZMAN                                    0502
A0101413570000000635596MEMBERS OF NATASHA                                      10501
A0101413570000000635596DOROTEA R. JACIN                                        20500
A0101413990000001195222VASQUEZ, ROMEO P. OR                                    10501
A0101413990000001195222VASQUEZ, MARIA JENNIFER S                               20500
A0101413990000006768638***                                                      0502
A0101413990000007318745*                                                        0501
A0101414120000011288998PASAY, NIGEL BYRON PAZ                                   0502
B0101414120000011637171ALI I.T. SUPPORT SERVICES INC.                           1601
B0101414120000004603398WEBLEND INC.                                             1601
A1301400210000002909226BUENAVENTURA, EFREN DELA CRUZ                            0502
A1301400210682540902001MARISA J RAMOS                                           0504
A1301400340000002283752JUANITO C. IGNACIO OR                                   10504
A1301400340000002283752MARY GRACE V. IGNACIO                                   20500
A1301400340000002283752JUANITO C. IGNACIO OR                                   10501
A1301400340000002283752MARY GRACE V. IGNACIO                                   20500
A1301400340683456739001LAZATIN JR., EDUARDO NIONES                              0502
A1301400340683776169001BARAQUIEL, JOCELYN LIM                                   0503
A0101408240000002821843LIMUEL T. LEDESMA                                        0501
A0101408240000008160070BLUE DRAGON ENTERPRISES                                  0501
B0101408240000006414575PRO LOGISTIC SOLUTIONS PHIL. INC.                        1620
B0101408240000010815197GAUDI7 PROPERTIES CORPORATION                            1601
A0101408240711323526001SHIRLEY A. MANESE OR MARIA                              10501
A0101408240711323526001ELENA M. ISAAC                                          20500
A0101408240711372563002ZAMORA, RITA OR ZAMORA, MILETTE                         10502
A0101408240711372563002LOPEZ                                                   20500
A0101408240000008160143ROWENA P. GONZALES                                       0502
A0101408240711554188001KIM, JIHUN JT                                            0501
A0101408240000001038846AMORANTO, ROMMEL OR MARLENE OR                          10501
A0101408240000001038846OMARK OR ROBIN OR STEFFI                                20500
A2801400230000005253281EMETERIO, EVELYN PANCHO                                  0501
A4101400260000012883713OGOT, FAUSTINE GINGER MARTIN                             0501
A4101400260000012883746SALVADOR, ERRIK NO MIDDLE NAME                           0501
A4101400260000012883848SAN DIEGO, TIMOTHY DERRICK ONG                           0501
A4101400260000012883893SAN JOAQUIN, KHRISTINE DYANNE F                          0501
A4101400260000012883940SANCHEZ, MARIA REGINA DELA CRUZ                          0501
A4101400260000012883991SANDEJAS, ROY SHERMAN MATOL                              0501
A4101400260000012884072SANGO, ROCHELLE ESGUERRA                                 0501
A4101400260000012884129SANO, NOEL SEVILLO                                       0501
A4101400260000012884170SANTILLAN, JONALYN CANJA                                 0501
A4101400260000012884232SANTOS, ERRYL LOZANTA                                    0501
A4101400260000012884283SAONOY, MARIE ARJAY MANGOMPIT                            0501
A4101400260000012884352SARCENO, KARYLL KAY SALOPISA                             0501
A4101400260000012884396SARMIENTO, JOSHUA PASCUAL                                0501
A4101400260000012884454SATO, IZUMI GRAMATICA                                    0501
A4101400260000012884512SEBASTIAN, JOLAZ MENDOZA                                 0501
A4101400260000012884567SEGOVIA, FRANCIS ARDEE PACLIBAR                          0501
A4101400260000012884625SERRANO, HECTOR CORTEZ                                   0501
A4101400260000012884681SERRANO, KARLO ALEJO SELMA                               0501
A4101400260000012884749SHIPLEY, RICHARD DEAN                                    0501
A4101400260000012884818SILDO, LORIE BATIFORA                                    0501
A4101400260000012884841SIMON, ACE MASA                                          0501
A4101400260000012884910SISON, CLAIRE JAMASALI                                   0501
A4101400260000012884961SON, JENNY ANN DELA CRUZ                                 0501
A4101400260000012885008STA ANA, JENO CAYETANO                                   0501
A4101400260000012885053SUAREZ, ABIGAIL MANGAO                                   0501
A4101400260000012885100SUELLO, PAULO DROMILO NARAVAL                            0501
A4101400260000012885162TEZON, NORMAN NO MIDDLE NAME                             0501
A4101400260000012885220TOLENTINO, APRIL QUINTOS                                 0501
A4101400260000012885286TORGMAN, IZDIHAR GEDA                                    0501
A4101400260000012885344TORNILLA, MA ELENA BARTOLOME                             0501
A4101400260000012885413TEVES, MICHAEL RAYMOND PORTILLO                          0501
A4101400260000012885468TENORIO, JENNY ROSE REGINO                               0501
A4101400260000012885515TEMELLOSO, RACHEL PAHIMNA                                0501
A4101400260000012885560TAWASIL, MARIA LOURDES GUADALUP                          0501
A4101400260000012885617TANTIADO, CHERY MICHELLE LIRIO                           0501
A4101400260000012885662TAMAYO, ABIGAEL CLEOPE                                   0501
A4101400260000012885708ZABALA, MARC GREGORY DELA CRUZ                           0501
A4101400260000012885793ZABALA, JOHN PHILIPPE BABAS                              0501
A4101400260000012885833ZAFRA, RYAN LAGDAAN                                      0501
A4101400260000012885884ZOBEL, ANDREW GABRIEL PRINZE ES                          0501
A4101400260000012885931ZULUETA, LAURICE JANE SAMBILAY                           0501
A4101400260000012885986TALAY, CALVIN CLAINE RIVERA                              0501
A4101400260000012886041TALASTAS, EMMANUEL REGNO                                 0501
A4101400260000012886110TABUAC, JOHN LOUIE LACAMBRA                              0501
A4101400260000012886176SUVA, GINNO CARLO CALADO                                 0501
A4101400260000012886223SUVA, ROGELIO DE OCAMPO                                  0501
A4101400260000012886278SUPANGA, BARTOLOME JR TITONG                             0501
A4101400260000012886347SUNGGAY, MARVIN NO MIDDLE NAME                           0501
A4101400260000012886405SUNGA, PAMELA JILL PENAFLOR                              0501
A4101400260000012886461SUNEJA, PUNEET NO MIDDLE NAME                            0501
A4101400260000012886490VIDA, JOEL VIRAY                                         0501
A4101400260000012886552VICTORINO, PATRICIA SOLIS                                0501
A4101400260000012886610VERGARA, MARILOU HERNANDEZ                               0501
A4101400260000012886661VENERACION, MAURICE JOHN NO MID                          0501
A4101400260000012886730VELORIA, RAYMOND WONG                                    0501
A4101400260000012886785VEDAR, KATE ADEE MENDOZA                                 0501
A4101400260000012886832UNTERBRINK, JUNNETTE ESPADILLA                           0501
A4101400260000012886901TULABOT, NATHANIEL RUIZ                                  0501
A4101400260000012886967TORRES, ARTHUR LINGAT                                    0501
A4101400260000012887033TORRES, SHEILA MARIE LANGAS                              0501
A4101400260000012887102VILLANUEVA, MEDEN LADIET                                 0501
A4101400260000012887157VILLOTA, MAEFLOR IBIA                                    0501
A4101400260000012887204VINUYA, JESSECA JAVIER                                   0501
A4101400260000012887260VITACION, LEONILA DELA FUENTE                            0501
A4101400260000012887328WEE SIT, VICENTE ANAND OCA                               0501
A4101400260000011418170BARRERA, ROSALYN ASUELO                                  0502
A4101400260812244954001REYNANTE J. ESTOCADO                                     0502
A4101400260812468473002BIANAN, RODNER AYUKIL                                    0502
A4101400260812708779001CAGARA, ANTHONY GARRIDO                                  0501
B4101400390813019416002STI COLLEGE-ROSARIO, CAVITE, INC.                        1602
A4101400390000003346103YABUT, ANNALIZA GAMBOA DBU AGY                          10502
A4101400390000003346103MANAGEMENT SERVICES                                     20500
B4101400390000006103691ALUMIS PHILIPPINES, INC.                                 1602
A4101400420000000121126LOS BANOS, RANDY VERZON                                  0502
B4101400420814045735001CARFIELD TOURIST TRANSPORT INC.                          1604
A4101400420000003715564SARIA, LESTER DBU DESERT QUENCH                         10501
A4101400420000003715564WATER REFILLING                                         20500
A0101412340000006375955JOSELITO S TRAYA JR.                                     0501
A0101412340000003344749JOENALYN C. MORAL                                        0501
A0101412340000003422864HENRY M. TORRES II                                       0501
A0101412340000004360489STU B. RAMOS                                             0505
B0101412340000005964123WME PHILS. CORP.                                         1602
A0101404840851520766162JANET H. ESTORES                                         0501
A0101406750000002040102GIMENEZ, ENRIQUE BENZON                                  0501
A0101406750852617055001PUA, HERMINIA SALAS                                      0501
A0101405070000005619638CHUA, ANGELICA DU                                        0502
A0101405070000005619467CALZADO, GENE DUMILON                                    0501
A0101405070861478374054LUZVIMINDA T. PONTANAR                                   0502
A0101413860000012248247DELA CRUZ, DESIREE ADRID                                 0502
A0101413860000010948202VILLA, MA. THERESA O'LACO                                0501
A0601400230000001687090GUTIERREZ, JOSEPH MONTES                                10502
A0601400230000001687090OR GUTIERREZ, MA                                        20500
A0601400230000003638846QUIAMBAO, NOEL S.                                       10503
A0601400230000003638846DBU VJON CONSTRUCTION                                   20500
B0601400230000000029861**************                                           1602
A0601400230891664298001ALMARIO, RENATO SICAT                                    0506
