B0101401670271821100608**********                                               2010
A0101405650000009768110LOPENA, MARITES BLANCO OR                               10503
A0101405650000009768110LOPENA, PATRICIO                                        20500
B010141030000000019166624-HOUR MOVER SERVICE COMPANY                            1604
A0101410300000000026531VELHAGEN, MELISA B.                                      0501
A6601400120000002978096HORCA, ROMAR BABIANO                                     0503
A6601400120000005710663GELERA, ELSA M.                                          0501
A0101400860000008319200**********                                               0503
A0101400860011397246002**********                                               0503
A0101400860011398302003**********                                               0502
A0101400860011419699001**********                                               0503
A0101400860000005313115**********                                               0510
A0101400860011479962001**********                                               0502
A0101400860000011515990**********                                               0503
B0101411370022046185001PRIMORIS MANPOWER SERVICES COMPANY                       1602
A0101400150061337099016AMADO ANDRADA JR.                                        0501
A0101400150061567341002CORDOVA JR., EBENEZER ADOLFO OR                         10501
A0101400150061567341002CORDOVA, MARIAME                                        20500
A0101400150061770839001HORTILANO, ALEXANDER                                     0501
A0101405810072543278001DE OMA, ROLANDO                                          0501
B0601400100000007185482ENVY BISTRO SPORTS SUITES, INC.                          1605
B0601400100000013801786FIFTH DISCIPLINE PACKAGING PAPER CO                      1602
A0601400360000013780286GO, ANDLEN ROLDAN                                        0501
A0601400520000002086062GUTIERREZ, GONZALO SAN MIGUEL                            0501
A0601400520000009516714LALU, RODOLFO DIAZ                                       0502
A0101414090000003314843VILLANUEVA, KENNETH BAYLON OR                           10502
A0101414090000003314843VILLANUEVA, JO-A                                        20500
A0101414090000007236451PERALTA, JANICE BERNADETTE ALAR                          0501
A0101413310000005433483TAN, SHIRLEY ONG                                         0501
A0101413310000010284681TIJAMO, MADRIROSE BASILIO                                0501
A0101401830141523628001PIOL, BENHUR BERNAL                                      0501
A0101400440000002035063BUGA, JULIET BONADOR                                     0501
A0101400440000016569434GUNTANG, RIZALYN VILLAPANDO                              0501
A0101407270000013665120VELASCO JR., L DBU TAWONG-LIPOD                          0502
B0101407270162019023001PHILIPPINE BATTERIES,                                   11610
B0101407270162019023001INCORPORATED                                            21600
B0101407270162041339001PRIMERA PHARMA CORP.                                     1605
A0101401090171196109001ANGELES A. UNTALAN                                       0501
B0301400660000000022868KEIZENNG TRUCKING CORP.                                  1605
B0301400660000006755195LOPZCOM BUILDERS CORPORATION                             1605
A0301400790000012274178ALING, MARK ALBEN BENOYA OR                             10501
A0301400790000012274178ALING, MARY GRACE GARCIA                                20500
A0301400790000000435830********                                                 0505
A0101401380000000682582WONG, CHING LEUNG                                        0503
A0101401380000001820002LEY, RICHMOND REGAN CO                                   0502
A0101401380201564133001NABLO, RODOLFO ORANTE                                    0501
A3101400160000000006500ANNIEFER P MERCADO                                       0502
A3101400160000012033304RIVERA, RETTZEN MATIAS                                   0501
A3101400160000019077144MAGALLANES, FAYME APACIONADO                             0501
B3101400160221284706001INSTITUTE FOR FOUNDATIONAL                              11605
B3101400160221284706001LEARNING, INC.                                          21600
B3101400870225045529002CITISTORES INC.                                          1601
B1001400190231272340001SIA, TOMAS C. OR GINA B.                                 1601
A1001400190231520766036ONIPA, JANE ROSE P                                       0501
A1001400190000002170612BAJUYO, MARJORI B                                        0501
B1001400350000000017052TIMBERLAND GENERAL MERCHANDISING                         1602
A1901400290261478374240LIZA CUADRA REANO                                        0501
A0101401670000017064687CHERRIE ROSE ROJAS                                       0502
A0101401670271175533001SY, LIN SIU TAN                                          0501
A0101401670271186300002MANUEL LUIS L. ZIALCITA                                  0501
A0101411110000016099680DE LEON, MARIA GENEVIEVE SARMIE                          0501
A0101411820000014406947DARWIN JACOB C. CHUA                                     0501
A0101412470000016805960SALONGA, EFREN BATIMANA                                  0501
B0101411240000005136469SANTIAGO, MA. CORAZON DIZON DBU                         11601
B0101411240000005136469CORS ENTERPRISES                                        21600
A0501400200000017208630TACLAY, RUBEN GAPUSAN                                    0501
A0501400200000019043520CAPILI, EDNA V.DBU CAPILI                               10503
A0501400200000019043520HARDWARE GEN MERCHANDISE                                20500
A0801400160311478374056CECILIA B. ASTROLOGO                                     0502
A1101400120000008001403RAFALES, MARIAN DAIL OR HUI, DA                         10505
A1101400120000008001403RWIN UY                                                 20500
A1101400120000006186729CHUA, ROMEO ALCONABA DBU ERR BU                         10501
A1101400120000006186729ILDERS                                                  20500
A6601400120314057745001MONCADA, JERLYN BETONIO DBU JET                          0501
A2001400290000000924572MARTY, CRESLYNN MARIE CERINO                             0502
A2001400290000015169425BALIOLA, ROY CUENCA DBU BAROROY                         10510
A2001400290000015169425EATERY                                                  20500
A2001400290000011716755DUMALAG, ANTHONY TOLOMIA DBU                            10502
A2001400290000011716755ADS EDGE ADVERTI                                        20500
B2001400290315052317001NRU TRADING                                              1605
A3401400280318736732001TERESA A. SANTOS OR MA. AILEEN                          10501
A3401400280318736732001A. SANTOS OR TINA S. ONG`                               20500
A0101402350321280548001NASSER, MARIA THERESA BUSTOS                             0501
A0101405650000017432827MENDOZA, PAMELA KRISTINE M.                              0501
A0101409050000006462951ARTEMIO SALAC                                            0502
A0101409050000008087521ORLINA, HONORIO GAHOL                                    0501
B0201400760374249471002COMMONWEALTH INSURANCE COMPANY                          11603
B0201400760374249471002-OPERATING FUND                                         21600
A0201400760374625964001SOLON, ENRICO MENDOZA                                    0501
B0201400920375035545001GSG ARCHITECTS CO.                                       1602
B0101415350000007877818JAMMUZ LENDING INVESTOR CORP.                            1601
A0101402770000016683182PABILLO, EMMA HERNANDEZ                                  0502
B0101402770000006812495RAMONLIM CONSTRUCTION & DEVELOPMENT                      1601
A0101405490000014677064LAGAJINO, EDRALIN ELONA                                  0502
B0101405490000013942122RS UNITECH MANUFACTURING AND TRADING                    11604
B0101405490000013942122CORPORATION                                             21600
A0101405490392332339001HUANG, WINFRED YU                                        0506
A0101408400000012225380JAVIER, RHEENA RENZ SANTIAGO                             0502
A0101408400394027889001TINA S. BERIN FLOWER SHOP                                0505
A0101408400394478374075VIOLETA I MANUEL                                         0501
A0101408400394542845001PINEDA, DINDO DOMINGO                                    0503
A0101408950000015585989LAWAS, GEORGIA or SUBIDO,                               10501
A0101408950000015585989HARLEY LICUDINE                                         20500
B0101408950396044935001GORDON & ASSOCIATES PHILIPPINE OFFICE                   11610
B0101408950396044935001CORP.                                                   21600
A0101408950396501244001DR. RHESA MAY MANALOTO MARTINEZ                          0501
B0101409210000004818840SO, GWENDOLYN NGO                                        1601
B0101409210000013390284NO GLARE MEDIA INC                                       1603
B0101409210000002783282NUTRIGENICS ASIA INC.                                    1601
A0101412210000005303235ALONSO, ROSALITO ATANGAN                                 0501
A0101412210000001236340GERARDO IGNACIO B. ONGKINGCO                             0502
A0301400820000001554730BATIANCILA JR., NARCISO D.                              10502
A0301400820000001554730OR BATIANCILA, JUDITH                                   20500
A0301400820000012928542BELDORO, LORRAINE V.                                    10502
A0301400820000012928542OR BELDORO, RAMIL B.                                    20500
A5501400120000011599401BACONGCO, TERESITA CASTRONUEVO                           0502
A5501400120000009875723CABALLERO, THELMA FUNDAL                                 0502
A0901400220000010424950SUAREZ, VYM BLANDO                                       0502
A0101403320000000067554SANTOS ESTRELLA, AILLEEN VILLAR                          0501
A0101403320000012881711COPADA, HANNIBAL S. DBU HAJC                            10502
A0101403320000012881711CONTROL LOGIC CONCEPT                                   20500
B0101403320471022389001PRIME PIZZA INCORPORATED                                 1603
B0101403320471024602001*********                                                1601
B0101403320471024602001*********                                                1601
A0101403320471671927001CRUZ, NOLI ESTOY OR                                     10501
A0101403320471671927001LOWELLA M. CRUZ                                         20500
A0101410140000014574866SANTIAGO, LOUIE DIAZ                                     0501
A0501400170481712963001SALAZAR, MA. JOSEPHINE F.                                0501
A0501400170481712963001SALAZAR, MA. JOSEPHINE F.                                0501
A1901400320000013754031TORIO, KATE CONCEPCION                                   0502
A1401400110000011179521DE CHAVEZ, ALMA SUAREZ                                   0501
A1401400110000016419197PASTRANA, MICHAEL FRANCIS ASERO                          0502
B1401400110492065190001FIRST QUEZON REALTY CO., INC.                            1601
A0101407430000013169956LABRADOR, CLARIZA ASINAS                                 0501
A0101408530000019075455CABILES, MIRIAM DIANA NAVA                               0501
A0101408530000019073879VILLACRUSIS, NEIL BRYAN LUMANLA                          0501
A0101408530516485540001PEREZ, MARY MILLICENT NACION                             0501
A0101412050000003966763DE LEON, ARTURO PUZON OR                                10502
A0101412050000003966763DE LEON, WILFRED                                        20500
A0101403450000016061602********                                                 0502
B0101403450521011955001KINGSWOOD TRADING CO., INC.                              1602
B0101403450521240030001**********                                               1610
A0101403610000011127950PILI, RUEL SANTIAGO OR PILI,                            10502
A0101403610000011127950GISELLA ALVAREZ                                         20500
A0101403610531771498002CAMPOS, ELIZABETH EXCELSIS                              10501
A0101403610531771498002SOLIDUM                                                 20500
A2201400250000006275749BARBIN, MARESH CASTILLO                                  0501
A2201400250000019066892ABANA, MA. EDISA CRUZ                                    0501
A2201400250000019067053ALDAY, ANGELA APOSTOL                                    0501
A2201400250000019067140ARCILLA, CAROLINE ANN MARIE PAZ                          0501
A2201400250000019067242AGUAS, GERARD VINCENT ANGELES                            0501
A2201400250000019067344AQUINO, CONSOLACION VEGA                                 0501
A2201400250000019067457ARGUELLES, MELISSA AQUINO                                0501
A2201400250000019067515ASIO, CATHERINE GUZMAN                                   0501
A2201400250000019067571BALDILLO, MARIA JENNIFER APURIL                          0501
A2201400250000019067639BUMANGLAG, NOEL CALDITO                                  0501
A2201400250000019067691BUSTOS, CHARO CACHERO                                    0501
A2201400250000019067742CACHOLA, GERALD ANCHETA                                  0501
A2201400250000019067811CACHOLA III, DANIEL RAFAEL RAMO                          0501
A2201400250000019067833CAIBIRAN, JERICHO OCAMPO                                 0501
A2201400250000019067902CRISTOBAL, MIGUEL ANTONIO CABRE                          0501
A2201400250000019067953CUDAL, BEINJERINCK IVAN BUMATAY                          0501
A2201400250000019067986CUDAL, BENJAMIN DAVID                                    0501
A2201400250000019068001DE BORJA, WILFREDO CRUZ                                  0501
A2201400250000019068023DE BORJA, MARTHA KIPPING                                 0501
A2201400250000019068030DE PANO, ANTONITA MACARAEG                               0501
A2201400250000019068041ENRILE, MA THERESA TOSINO                                0501
A2201400250000019068052HOBAYAN, PEARL GRACE AGUSTIN                             0501
A2201400250000019068063LUMBA, DORCAS NARVAEZ                                    0501
A2201400250000019068074MALONZO, VICTOR SANTOS                                   0501
A2201400250000019068085MANALILI, CZARINA LEAH CASTANED                          0501
A2201400250000019068096MANNONG, NATIVIDAD MALIAMAN                              0501
A2201400250000019068103MARTINEZ, GEORGE SANTIAGO                                0501
A2201400250000019068110MATIENZO, FRANCISCO LORETO FRIG                          0501
A2201400250000019068121MENDOZA, CARMELO FRANCISCO ALCA                          0501
A2201400250000019068132MENDOZA, JACQUELINE LUMBA                                0501
A2201400250000019068143PASAYLO, VANESSA SANTOS                                  0501
A2201400250000019068154POLINTAN, CHRISTINE CAPIL                                0501
A2201400250000019068165RAMOS, MA. RIKKA LORAIN TABASON                          0501
A2201400250000019068176RIVERA, GLOTHELDA SACUPAYO                               0501
A2201400250000019068187SIOSON, RAYMOND CRUZ                                     0501
A2201400250000019068198SISON, NONATO JOWIN MAGDAME                              0501
A2201400250000019068201SORIANO, ANNA CORITHA MADRAGA                            0501
A2201400250000019068212TORRES III, LUIS SOTTO                                   0501
A2201400250000019068223TYSMANS, TANYA LOUISSE LAPID                             0501
A2201400250000019068234VERGARA, LEA ROCHELLE DE GUZMAN                          0501
A2201400250000019068245VILLANUEVA, MARK HALL                                    0501
A2201400250000019068256SANTOS, DOMINIC DIAZ                                     0501
A2201400250000019068267MICU, IMELDA MANIEGO                                     0501
A2201400250000019068278PALMA, BABY GRACE GONZALES                               0501
A2201400250000019068289FERNANDEZ, ALEJANDRO FABIAN                              0501
A2201400250000019068290MAGNO, ENEROSE DE GUZMAN                                 0501
A2201400250000019068303DE OCAMPO, CELIINA MAGAT                                 0501
A2201400250000019068314MALLARI, RAYMUND NOEL CAISIP                             0501
A2201400250000019068325BERNARDO II, MANUEL SENGOR                               0501
A2201400250000019068336DIZON, FRANCIS AARON DY                                  0501
A2201400250000019068347CUNA, JAN BENISON CHAN                                   0501
A2201400250000019068358CASTRO, ARNOLD MENDOZA                                   0501
A2201400250000019068369DELA CRUZ, SONNY ALMAZAR                                 0501
A2201400250000019068370HOBAYAN JR., VITUS SALAZAR                               0501
A2201400250000019068381REMANDABAN, RONALDO JOSE MARALI                          0501
A2201400250561478374026MINDA S. BLAYA                                          10501
A2201400250561478374026MEMBERS OF NATASHA                                      20500
A2201400250000012983007MARIANO F. MALLARI                                       0502
A0101410690000016105661SIGLOS, DINA TAMAYO                                      0502
A0101404130000018556211YAO, XIAYI                                               0503
A0101404130000018556386LIU, TAO                                                 0503
A0101404130000018556222MI, XUE                                                  0503
A0101404130000018556397YU, LUYANG                                               0503
A0101407720602341473001VILLASOR, MA. TERESA GUSTILO                             0501
A0101407720602496503015DANIEL M. LUCHANGCO                                      0501
A0101412180000011560051ROSALES, RAYMOND MENELEO BERNAR                          0501
B0101412180000007360461ENLIFE GLOBAL INC.                                       1606
B0101404260611005306001THE HOUSE OF RACOR ADS., INC.                            1605
B0101404260611353663002CLAMAR, GLENDA SUAREZ                                    1601
A0101413440000002706072PORCIUNCULA, CATHERINE OR                               10504
A0101413440000002706072PORCIUNCULA, JOSE PAOLO                                 20500
A0101414120000001142863*****                                                    0501
A0101414120000008642622AGRAVANTE, CESAR LUCERO                                  0503
B0101414120000000399184CANTILEVER CONSTRUCTION CORPORATION                      1602
A0101410300000002375744SUAREZ, ARLENE A. OR                                    10503
A0101410300000002375744SUAREZ, JONATHAN                                        20500
A1301400340000000926870CUERDO, AYA                                              0503
A1301400340000000926789SAHARA P. SAMPIANO                                       0502
A1301400340000011813682MENDOZA, CHRISTELLE S. OR                               10501
A1301400340000011813682MENDOZA, REGINALD ANTHONY                               20500
A1301400500000016984933JOEMAR P. BULAON                                         0502
A1301400500000019082712JHON ALLAN C. TAGALAG                                    0501
A0101408240000000347313VALENCIA, LEUVINO BOBIER OR                             10502
A0101408240000000347313VALENCIA, YOLAND                                        20500
A0101408240000013171556OCTAVIO, R DBU ELEVENTH                                 10501
A0101408240000013171556MANAGEMENT                                              20500
A0101408240000008160172SALAZAR, L DBU CIANZAR                                  10501
A0101408240000008160172TRANSPORT SERVICES                                      20500
A2801400100712408983002AMORIN, CRISANTA ADVIENTO                                0501
A4101400390000000068600CABANGANAN, ANALIZA GELBOLINGO                           0501
A4101400420000016908675NOVELO, RAYMOND MARPURI                                  0501
A4101400420814478374030LIGAYA ILANO                                             0501
A4101400420814520766111COLETA, JEANNETTE C.                                     0502
A0101412340000004877392FREDRICK ANTHONY M. ROJAS                                0501
A0101412340000007305644MAYLENE S. ABELLA                                        0502
A0101404840000001312532CHICO, DIVINA DE GULA                                    0501
A0101404840000003410000HALUM, JEANINE ALINDOGAN                                 0501
A0101404840000000683443EVELYN FRIAS                                             0501
A0101404840000000090213SAPLALA AND SANTILLAN SMILE                             10501
A0101404840000000090213SYMMETRY DENTAL WELLNESS                                20500
A0101404840851217637044ALFREDO B. ALARCON                                       0502
A0101404840851281071005MA. THERESA LAVINA                                       0501
A0101404840851334120001MARY ANN R. PANGAN OR                                   10501
A0101404840851334120001JOHN NOEL PANGAN                                        20500
A0101406750000000172898MANAN, ABDUL RAKIM ELIAS                                 0504
A0101405070000016659213MARIA JULIENA BACURNAY                                  10501
A0101405070000016659213OBLIGACION                                              20500
A0101405070000019082701ROUMMEL URRIZA MAGARA                                    0501
A0101405070861280267001CHUA, SONNY HUI                                          0501
A0101405070861478374066ELMER LADRES APAS                                        0501
B0101413860000000145275CON-PAC WAREHOUSING INCORPORATED                         1605
A0601400230000003015885MABBAYAD, MILANIE LAZARO                                 0502
A0601400230000010703050MILANES, ROBERTO IVAN HIZON                              0502
A0601400230000013259582SACOCO III, ADRIANO OLMO                                 0501
A0601400230000017863631MILLARE, LOLITA SUNGA                                    0502
