A0101412630000009425338AIDA LUISA D. CAVITANA                                   0503
A0101403030441594340001**********                                               0501
A0101403320000015158308CABILLO, JESSICA GALLAMIT                                0501
A0101403320000001646879EIFFEL JARVIS H. DIAZ                                    0502
A4101400260000012863833MAGALSO, DESIREE C.                                      0501
A0101400150000015209971DE JESUS JR., ALEJANDRO AGUSTIN                          0501
B0101400150061010780001REXOR & COMPANY, INC.                                    1605
A0101400150061337098169MA. GISELLE A. LICERALDE                                 0503
A0101400150061412381001VILLARUZ, MA. CORAZON A. OR                             10501
A0101400150061412381001VILLARUZ, JOSEPH                                        20500
B0101405810072041885001CHUA HUAY SOON INCORPORATED                              1602
B0101405810072354724003FUENTES, LILIA S.                                        1601
B0601400100081251805004MUNOZ, ANTONIO AND ANACLETO JR. AND                     11602
B0601400100081251805004JENNIFER LAURIE                                         21600
A0601400100081346053001MACASPAC, ORLANDO ALFONSO                                0502
A0601400360000015405046DURON, ALBERT NEIL CATACUTAN                             0501
B0601400360000000025772CLERMONT PHARMACY AND GEN. MDSE. CO                      1603
A0601400520000009517017GONZALES, BELINDA ROQUE DBU                             10503
A0601400520000009517017MAJIC FRY ENTERPRISE                                    20500
A0101413280000005279643LIM, SUSAN DY                                            0502
B0101410850000000005621TURNSAT INTERNATIONAL LOGISTICS                         11605
B0101410850000000005621CORP.                                                   21600
A0101410850000000844695CASTILLO, DBU KING ABAK B                               10501
A0101410850000000844695CASTILLO CUSTOMS BROKERAG                               20500
A0101400730111203514026ELEONOR MAGBANUA                                         0501
A0101412630000003897401SHERIFF F. REVIBES                                       0501
A0101413310000015039693PE, MARIE GEMMA TAN                                      0501
B0101401830141021014001GINTONG ARAL PUBLICATIONS, INC.                          1605
B0101401830141032221001CARITAS ET LABORA HUMAN RESOURCE SERVICE                11610
B0101401830141032221001COOP.                                                   21600
B0101401830141069176001DEL VALLE, PEPITO DBU VIPECK                            11601
B0101401830141069176001GRAPHIC DESIGNS                                         21600
A0101401830141409771001ALRIC P. BOBO                                            0502
A7201400170000011454287OBAOB, MARIE FE MARAASIN                                 0501
A0101412920000005675727TUMALA, JEFFREY PANTINO                                  0501
A0101400440000012169312SAMPAGA, FERNANDO LIBUNAO                                0510
B0101400440161007542001PACE REALTY INVESTMENT INCORPORATED                      1601
A0101400440000001439863MARY JONEN T. GUILLERMO                                  0501
A0101400440000000596630MARY ANN A. OYARDO                                       0501
B0101400440161528688001POWERPHASES CONSTRUCTION SERVICES INC.                   1610
A0101401090171543387001********                                                 0501
A0301400660194304371001*****                                                    0510
A0301400790000011509732ELISEO JR., BENJAMIN CASTILLO                            0501
A0301400950000008000659TINDOY, FEDILINA P. OR                                  10501
A0301400950000008000659PALERMO, JESSIE                                         20500
B0101410720000011276732PEOPLE'S GENERAL INSURANCE CORPORATION                   1605
A0101413600000005794654AMELYN G. ALCANTARA                                     10502
A0101413600000005794654DBU BLUEPRINT EN                                        20500
A3001400130230691834001ANDAYA, JOSEPH OMAR O. OR                               10503
A3001400130230691834001ANDAYA, ASTRID M                                        20500
A1001400190231520766119CABANO, BERNADITH CATIWALAAN                             0501
A1001400350000012928111LAO, NORMAN GO DBU POWER                                10502
A1001400350000012928111FITNESS GYM OR LAO, MELBA                               20500
A1301400470000002299927RODEL LEMENCE OR                                        10501
A1301400470000002299927SHELLETE LEMENCE                                        20500
A1301400760000008699023JENNIFER ENCARNACION TOLENTINO                           0501
A1301400760253087654001CATHERINE F SANVICENTE OR                               10505
A1301400760253087654001VINCENT PAUL SAN VICENTE                                20500
A1901400290261666539001HELEN B DY/ AMELIA R RELLORA/                           10501
A1901400290261666539001GERALDINE D DIMACULANGAN                                20500
B0101406460272025554001MAGISTER SUITES I CORPORATION                            1601
A0101406620273720692001******                                                   0502
A0101408660000006296622ARANETA III, VICENTE MARTIN OR                          10501
A0101408660000006296622JOAN MARIE C. ARANETA                                   20500
A0101411820000001356161GEORGE V. CANSECO III                                    0502
A0101411820000004981740REYES, JO ANN RAMOS                                      0501
A0101411820000005709942ESPADON, DIANA ROSE CHIUTENA                             0503
A0101400570281186601002DR. JOSE PEPITO AMORES                                   0502
A2001400290000011355263MANGONDATO, AMERA TION                                   0502
A2001400290000011716755DUMALAG, ANTHONY TOLOMIA DBU                            10502
A2001400290000011716755ADS EDGE ADVERTI                                        20500
B2001400290315635869001**********                                               1601
A2901400130000006742265SALAZAR, ANN CONCEPCION                                  0506
B0101402510341021863001SAN BEDA COLLEGE UNION (SBCU)                            1602
A0101402510341165340001DACUDAO, JESUSA ROGADOR                                  0506
A0101402060000005323182BENGCO, ARMAND QUISMORIO                                 0501
A0101402060000009695761SANTAMARIA, ROMULO S DBU BMS LA                          0503
A0101409050000002971384RESULLAR, ALLEN CURAY                                    0501
B0201400760374041858001HELPMATE TRADING AND SERVICES                            1602
B0201400920375483668002**********                                               1601
A0101402930000007031272MENDOZA, ALLEN BLESS CASTANEDA                          10501
A0101402930000007031272OR MENDOZA, JASMIN F.                                   20500
B0101402930381008829002AXEIA DEVELOPMENT CORP.                                  1615
B0101402930381009107001PHILIPPINE PSYCHIATRIC                                  11610
B0101402930381009107001ASSOCIATION INC.                                        21600
B0101402930381516506001I-ASIATIC INNOVATIONS PHILS., INC.                       1602
A0101408790000005169126SADIA, MARVIN MIRAS                                      0502
B0101408790000010384608KEYS 2PROSPERITY INNOVATIONS INC.                        1601
A0101405490392571716001GERALDINE O. ACTHLEY OR                                 10501
A0101405490392571716001RAQUEL A. TAJONERA                                      20500
A0101409180000014367901ENRIQUEZ, JUDE PATRICK CASTANED                          0501
A0101409180000003310221HERNANDEZ, RAFAEL ANTONIO E. OR                         10501
A0101409180000003310221HERNANDEZ, MARIA ELENA C.                               20500
B0101409210000002783384ELEVATE PHILIPPINES INC.                                 1602
A2401400180411712618001ESTIMADA, JUDITH EBALLE                                  0501
A5101400100000010834078GABRINO, GENEVIEVE CHINGBEE TUL                         10503
A5101400100000010834078ANG JT                                                  20500
B0101403030000015369454IGNACIO,JOSE DBU J.I.TECH ENTERPRISE                     1601
B0101403320000001647230AMALGAMATED INVESTMENT BANCORP.                          1603
A0101403320000000452173******                                                   0502
A0101403320000000067463ZEPEDA, ABYGAIL ALIERMO                                  0501
B0501400170481040337001JERON DISTRIBUTION GROUP INC.                            1605
A1901400160491039396002BUROG, HONORATA LALAINE PICAR                            0501
A1401400110492029549002TRIPTORS DIAGNOSTIC CENTRE                               0504
A1401400110492478374017JOSEPHINE ECLAVEA                                        0501
A1601400170000001360769DON B. NICOL OR MA. DONNA                               10501
A1601400170000001360769MARCY B. NICOL                                          20500
B0101403580000013963881MEC - HOJ 2                                              1605
B0101405940512005556001THE FLOWER FARM CORPORATION                              1605
B0101411790518067369001EMERCHANT ASIA INC.                                      1602
A0101412050000011229217MATAGA, ALMIRA VILLANUEVA                                0501
B0101403450521012087001PACIFIC PLACE MULTI DEVELOPMENT                         11603
B0101403450521012087001CORPORATION                                             21600
B0101403450521019328001**********                                               1602
B0101403450521032691001************                                             1605
B0101403450521038124001**********                                               1602
B0101403450000008380843************                                             1601
A0101403450521238114002**********                                               0502
A0101403450000001769771SANTOS, EMMA CASTILLO                                    0501
B0101407720000000885714MMC PEDIA ASSOCIATION, INC.                              1601
B0101407720602227484001PRUDENTIAL GUARANTEE AND ASSURANCE INC.                  1601
A0101407720602401206001DE VEYRA, MA. LOURDES ARAGON                             0503
B0101404260000000157026INTERPRO FOOD SPECIALIST INC.                            1605
B0101404260000004781335LIM, HERMAN DONATO DBU ONEFULL TRADING                   1602
A0101409890000000437449**********                                               0501
A0101409920000009055647SOLAR, JOSE BENJIE BARCELA                               0501
A0101409920000010528731ESTILO, CYRIL C.                                         0502
A0101409920000001951880MEMBERS OF NATASHA (SHOECAT INC                         10502
A0101409920000001951880DEJUCOS, PURITA                                         20500
A0101411530000011326075**********                                               0501
A0101413570000014995034PASCUAL, PATRICIA ISABEL JURADO                          0501
A0101413570000013876021**********                                               0501
B0101413570000015060636DELA CRUZ, FELICITAS CLAMOR DBU RED                      1601
A0101413990000005854048BITUIN, MA. ZITA CARMELITA C.                           10501
A0101413990000005854048OR BITUIN, ANGEL C.                                     20500
A0101413990000015406790LESCANO, KARL REIMUN QUINTANA                            0501
A0101410300000000191815CARBALLO, LUIS ANTONIO S. OR                            10502
A0101410300000000191815SALAZAR, EMMANUE                                        20500
A1301400210682248069001ALICIA P. ANDAN                                          0501
A1301400210000002909362NEPOMUCENO, ANNABELLE TALUSAN                            0502
A1301400210000000540812DENNIS DS MUNOZ                                          0501
A1301400210682435928001EMMANUEL DC RAMOS                                        0501
A1301400340683249082002RICARDO HERMOSO II OR                                   10501
A1301400340683249082002AGRIPINA HERMOSO                                        20500
B1301400340683398713001***********                                              1602
A1301400340683478374039ABAOAG, CELIA SALVADOR                                   0502
A1301400500000012913263ELITE THEA ENTERPRISES                                   0502
B0101408240711039803001NUMANCHA INC.                                            1601
B0101408240000010815142SHIELDCOACH SECURITY COMPANY                             1601
B2801400230000009021932SAMER GLOBAL MANPOWER SERVICES, INC                      1602
A4101400260000012878572MIRANDA, MARJORIE                                        0501
A4101400260000012879320ORENDAIN, MARVIN                                         0501
A4101400260000012869935VIZON, ROMARIE                                           0501
A4101400260000014840412ALDANA, RESTY FRANCISCO                                  0501
A4101400260000010623593OBIAS, CHRISTIAN B. DBU TWINJ                           10502
A4101400260000010623593BAR AND RESTAURA                                        20500
A4101400420000000711915VELASQUEZ, RUSSEL DELA PENA                              0501
A0101412340000014512642MENDOZA, ANGELYN BOCO                                    0501
A0101404840000003069981ATIENZA, SHIRLEY                                         0501
B0101404840000006365142TRIMOTORS TECHNOLOGY CORP.                               1602
A0101404840851478374062VIOLITA V. GIDUCOS                                       0501
B0101406750852037740001ENVIRO CROPVET PRODUCTS INC.                             1603
A0101405070861578467001DIGNOS, LANI MARTINEZ                                    0502
A0101413860000013130373DIOKNO, GENER BARCELOS                                   0501
B0101413860000012289522GLI-GLOBAL IMPEX CONSOLIDATION INC                       1601
A0101413860000011796384DELA CRUZ, WILLY TESORERO WILLY                          0501
