B0101402930381821100608**********                                               2003
B0101400150000010164513ALPHA FOXTROT MEDIA INC. DOING BUSINESS                 11610
B0101400150000010164513AS ARTILLERIE ME                                        21600
A0101410720653043410001SQUARE SPOT ADVERTISING                                  0504
B0201400760374031471002PHILPACIFIC INSURANCE BROKERS &                         11610
B0201400760374031471002MANAGERS, INC.                                          21600
A0101412890000001056206GERONIMO, ANNABELLE ELEANOR LIM                         10502
A0101412890000001056206OR GERONIMO, MARLON                                     20500
A0101412890000000371599COBO PAVILLION                                           0505
A0101400860000005312958**********                                               0502
A0101400860000010683297**********                                               0503
B0101400860011023116001**********                                               1601
A0101400860011380653002**********                                               0505
A0101400860011385484001**********                                               0502
A0101400860011443455002**********                                               0505
A0101400860000001005376**********                                               0502
A0101400860011528078001**********                                               0505
A0101400860011685746001**********                                               0505
A0101400150000015538033MONTESCLAROS, BABY OUIDA RIVERA                          0501
A0101400150000009400760LIM, JOHN PAUL OCAMPO                                    0501
A0101400150061707501001ANG, JEANILLE ALYANNA UY                                 0501
A0101400600071295528002********                                                 0502
B0101405810072034989001TRANSWELL ENGINEERING CO.                                1602
A0101405810072545795001**********                                               0501
A0601400100000001442860DIZON, AGOSTO GALANG                                     0501
A0601400100081639196001DIMALANTA, ANALYN TEGIO                                  0502
B0101410850000003503733DELTA FIVE AGRI-VENTURES CORPORATION                     1606
B0101410850000003503711SL MARIVELES DRYDOCKING & SHIPYARD                      11605
B0101410850000003503711CORPORATION                                             21600
A0101410850000011276463PASCUA, RECHELLE ANNE V. DBU                            10501
A0101410850000011276463BOLET'S JUNKSHOP                                        20500
A0101400730111478374179MARIA LUISA S. TRUJILLO                                  0502
A0101406040000012695080LAO, FRANCIS YU                                          0501
A0101413150000011778115*                                                        0501
A0101413150000006294175**                                                       0501
B0101401830141059061001URGINO, MARIA CARMENCITA DBU MARICAR'S                  11601
B0101401830141059061001DANCE STUDIO                                            21600
B0101401830141206540001MEGA NURSERY ORCHIDS                                     1605
A7201400170000009673112LADLAD JR., JOSE BANA                                    0501
A7201400170000011454390ANDIGON, GINA NANO OR                                   10501
A7201400170000011454390ANDIGON, JESSIE MUNDO                                   20500
A5001400170000000213932TAN, WINLEY YU OR                                       10502
A5001400170000000213932YU, LEONARD OLIVAR                                      20500
A0101400440000002035041MARIA GEVELA CARDINOZA                                   0501
A0101407270162225350001GRACE Q. AGCAOILI                                        0501
A0101407270000010543665SULLERA, MARIA THERESA LUCERO                            0501
A0101401090171198373001MARIVIC G. USITA                                         0502
A0101401090171322573001DR. PORSHIA COMES-NATIVIDAD                              0501
A0301400660000006862997**********                                               0501
B0301400660000006755184EARTHPHIL CONST. CORP.                                   1603
A0301400660194304371001*****                                                    0510
A0301400790000000435830********                                                 0505
B0301400950000011415102DAZI CONSTRUCTION AND SUPPLY                             1601
A0101401380000014171730PITOGO, RENATO BACALSO                                   0501
A0101410720000013389541LAPARA, GILBERT ASUL DBU GLPR                           10501
A0101410720000013389541AUTO                                                    20500
A0101410720653006349001YZA COPY SYSTEM AND TRADING                              0503
A0101412500000015545470EBDANE, MARIANNE SUMAYOP                                 0501
A0101412500000015395523DIZON, MARIA TANYA CRUZ                                  0501
A0101412500000015552771ESCANO, MARK COLLINS ROSARIO                             0501
B0101412500000000041670MOLDEX REALTY INC.                                       1605
B3101400160221037479001TABLERIA LA CONFIANZA CO., INC.                          1601
A3101400160221217497034MARY ANN A. DIAZ                                         0501
A3101400450223569120001DELOS SANTOS, LOUIE LEE                                  0501
B3101400740000014511718**********                                               1602
A3101400870000000957666MARASIGAN, JAMES ILAGAN                                  0502
A3101400870000007678417SOTELO, DEXTER JONOS                                     0501
A3101400870000015536122VILLACORTA, DANILO PASCUAL                               0501
B1001400190000008744123NEOTRINITY CORPORATION                                   1610
A1001400190231283324001GICABAO, BENY CHAN OR                                   10501
A1001400190231283324001GICABAO, VILMA A                                        20500
A1001400350233272028001MAANDIG, ERLINDA B. OR                                  10503
A1001400350233272028001MAANDIG, CARLSTO                                        20500
A0101401670000011364526LOPEZ, MARIE CELINE HERAS                                0502
A0101406620000014258169KARL ANTHONY PUNZALAN                                    0501
A0101406620000014258472JOSE R. VILORIA                                          0501
B0101406620000004595757CLOUD PLUS SERVICES, INC.                                1603
A0101406620273285955001SANTOS, ROMMEL G. OR                                    10501
A0101406620273285955001SANTOS, VILMA T.                                        20500
A0101406620273373850001ESTEBAN, EUNICE BACHARO                                  0501
B0101408660274047925001CNT PROMO AND ADS SPECIALISTS, INC.                      1610
A0101408660274604723001MATHAY, MIGUEL KALUAG                                    0501
A0101400570000011681019**********                                               0501
A0101400570281706972001**********                                               0502
A0501400200000005751635PERDIDO JR., LEONARDO DIWATA OR                         10501
A0501400200000005751635FLORES, JOAN MAY                                        20500
A0801400160311478374070GENALYN M. BOTANERO                                      0501
A0101402350000000521231DY, WAN LING ONG                                         0501
A0101402350321330335001BEATRIZ G. WAKAI                                         0503
A0101402350321485233001TUI, CHARLES ANGELO                                      0503
B0201400760000005156474GESALEM, JONATHAN DBU LINCOLN                           11605
B0201400760000005156474TRADING                                                 21600
A0201400920375044441001SUI'S PRINTSONIC                                         0502
B0201400920000000047910JR INVESTING CORPORATION                                 1601
A0201400890000005196421LOPEZ, ESTRELLA SUPREMO                                  0501
A0101402930000014435913SANOL, JAYSON JAVELLANA                                  0501
B0101402930381042916001PACIFIC-RIM HARVESTER, INC.                              1602
A0101402930000003710814PISON, MARIA TERESA PENA                                10503
A0101402930000003710814DBU CITRUS                                              20500
A0101408370382396864001DR. ROMEO D. SANTOS OR                                  10502
A0101408370382396864001DOLORES S. SANTOS                                       20500
A0101408370382445729001DR. JASON D. ROSCA                                       0501
A0101408370382677453001TERESITA CELESTINO HOWARD                                0502
A0101408790000000599960BARRAIRO, ERINILLO CARILLA                               0502
A0101408790000015541989UY, LUZ EMOLYN MABAYO AND                               10501
A0101408790000015541989LEE, YIN HUI                                            20500
A0101411660000014748333CALIP, MA. ELLAINE ABUBO                                 0501
A0101415350000012246809RIVERA, LIZA GENEBLAZO                                   0501
A0101402770391308035001DELA CRUZ, CARMELITA SUELO                               0501
A0101408400000006813614GODALLE, FRANKIE SUS JT                                  0502
A0101408400394412577001REYES, EMMANUEL JOHN JOCSON OR                          10502
A0101408400394412577001REYES, MARY GRACE                                       20500
A0101409180000005326712DELA CRUZ, DENNIS TABUJARA                               0502
A0301400820000001185780RUFEROS, ROY KENNETH OR                                 10501
A0301400820000001185780AREVALO, MICHELLE KAY                                   20500
A0301400820000002271956COMAINGKING, JESUS B.                                    0501
A0301400820000004745962NAKILA, ARMAGIDON M.                                    10501
A0301400820000004745962DBU ALDON PJ MARKETING                                  20500
A5501400120000005492220ROCKWELL, SHARON SILVA                                   0501
A2401400180000000073527LAFARDZ MARKETING                                        0503
A0101403030441337771001**********                                               0501
A0101403320000012881966MA. SYLVETTE G. MARCELO                                  0501
B0101403320471008859001NEW LITE LUMBER & CONSTRUCTION                          11602
B0101403320471008859001SUPPLY                                                  21600
B0101403320471042942001SUPREMEBIKE CENTER                                       1601
A0101406330000011106202ANDREA MAE SANCHEZ/                                     10502
A0101406330000011106202JEAN MICHAEL SANCHEZ                                    20500
B0101406330472008908002M.R. REALTY CORPORATION                                  1602
B0101406330472020438001DAROMAR DEVELOPMENT CORP.                                1605
A0501400170000005002975LO, JOHN ALVIN DY                                        0501
A0501400170000013648325SORIANO, VERONICA FRANCISCO                              0501
A3801400170000015547585AGUIRRE, JOHN CARLO MARASIGAN                           10501
A3801400170000015547585AND BOBIS, MARBELLE ONG                                 20500
A1901400160000015491553MELO, TERESITA BAY                                       0501
A1901400160491282845001ARTHUR C MALALUAN OR                                    10501
A1901400160491282845001IRENE D MALALUAN                                        20500
A1901400160491623858001ANDAL, MAILA TARCELO                                     0501
A1401400110000005526990DIHIANSAN, CHRISTINE BRIOSO                              0501
A1601400170000000099029MYRA T. LAUSON                                           0501
A1601400170000001069216LARRY M. RIVERO                                          0503
B0701400260000000671090VAN TRI-SWORD CORPORATION                                1601
B0101407430503021143001PHIL-AMER IMMIGRATION SERVICES, INC.                     1602
A0101407430000006027903JONAS MARTIN OR MARIAN MARTIN                           10501
A0101407430000006027903DBU SIM ONE TRAD                                        20500
A0101403580000004683085REFE, KRYSTALLE CARREN ROXAS                             0501
A0101408530516485540001PEREZ, MARY MILLICENT NACION                             0502
A0101408530516568848001TANGCO, ERWIN CHUA                                       0501
B0101403450521036992001********                                                 1601
A0101403450521238265001**********                                               0501
A0101403450521238265001**********                                               0501
A0101404130000000485661MORALES, ANNALYN MOTOL                                   0503
A0101407720602283353001ERWIN HERNANDEZ OR                                      10501
A0101407720602283353001AGNES HERNANDEZ                                         20500
A0101407720602397270001MENDOZA, RITA ZAFRA                                      0501
A0101407720000006028246VILLAVICENCIO, MARIA LUISA                              10501
A0101407720000006028246JACINTO                                                 20500
A0101407720602492004001MARIA IMELDA BELEN VITUG-SALES                           0501
B0101404260000011682314AFNI, INC. - PHILIPPINES ROHQ                            1601
A0101409920000002260402ATENTO, SHERRY CLAIRE SOLEDAD F                          0503
A0101413570000000206391PAOLO P. PANGILINAN                                      0501
A0101413570000003379880ANGELICA F. FELIPE OR                                   10501
A0101413570000003379880ROBERT O. FELIPE                                        20500
A0101413570000003379931*************                                            0501
A0101413570000002906647EMMANUEL J. AGCAOILI OR                                 10501
A0101413570000002906647MILDRED O. AGCAO                                        20500
A0101413990000006278248VICTO, MELVIN FERNAN QUIJANO                             0502
A0101413990000015549963ARIADO, ARTONIE ALFAFARA                                 0501
A0101414120000009850780R. ACOSTA ENTERPRISES                                    0502
A0101410300000000191655VIRGILIO P. LABRADOR JR. AND                            10501
A0101410300000000191655RONIE A. SALEY                                          20500
B1301400210682039698001SEVENTY SEVEN TRAVELLERS INN CORP.                       1602
A1301400210682582829001ELENA G DEL ROSARIO OR                                  10503
A1301400210682582829001VICTORIA G DEL R                                        20500
B1301400340683014303001EXPRESSIONS STATIONERY SHOP, INC.                        1601
A1301400340000006402455CABIGAS, RENATO EXALTACION                               0501
A1301400340683326418001BERBOSO, MARIO TRINIDAD                                  0502
A1301400500000000213298DE JESUS, RAMON BANZON                                   0502
A1301400500000011254572PESEBRE, RAYMUND DILLA                                   0501
A1301400500000009723151**********                                               0502
A0101408240000009452893VILLANUEVA, ANACLETA FLORES JT                           0502
A2801400100000011266830MANZANO, LAILANI OSALBO                                  0502
A4101400260000012868590TEODORO, JEXZYLL VON                                     0501
A4101400390000007459198BERNARDO P. GUINOO OR                                   10503
A4101400390000007459198ANA B. GUINOO                                           20500
A4101400390000015547858JESSA A. RACAL                                           0501
A4101400420000004848080GARCIA, JANETH GARCIA                                    0501
A4101400420000002345331MERCEDITA D. LAGDAMEO                                    0501
A0101412340000008007754SABELO, NASRANE S.                                       0501
A0101406750000009472448PAUL ANTHONY GUEVARRA                                    0502
A0101405070000005619638CHUA, ANGELICA DU                                        0502
A0601400230891548391001YUMIACO, GLENN DIZON                                     0502
