F1301400630000000010322DIVINE'S GRILL ASIAN CUISINE                            12510CKO
F0201400180181442858001LUYM, JOHN LIM OR                                       12502CKO
F1901400290261282086001DRA. CECILIA MARIE                                      12502CKO
F1301400630000000010322CORP.                                                   22500CKO
F0201400180181442858001LUYM, EVELYN SHI                                        22500CKO
F1901400290261282086001ATIENZA RAMOS                                           22500CKO
F0401400270000001912341SYNCHROTEK CORPORATION                                   2603CKR
F0301400110191030258002M.M. U-CHEM INDUSTRIES, INC.                             2602CKR
F1301400210682042878001HABITAT TRADING                                          2601CKR
F1301400210682042878002HABITAT TRADING                                          2601CKR
