A0601400230000000045230VICENCIO, M DBU HCON BUILDERS &                          0502
A0101400440000000060324DINEROS, ROWELA BETONIO                                  0501
A0101411790000000134125********                                                 0501
A0101411530000000178938EMILY V BASCO TRADING                                    0503
A0101413600000000206755********                                                 0501
A1001400350000000245281BAGARES, AGUSTINA BALALA                                 0501
A0101404260000000532192GAVERIA, LORENZO MINA                                    0502
A0101413440000000570198EMELITA P. DAGUIT                                        0501
A1101400120000000652595TUALLA, YSAM ELANO                                       0501
A0101404840000000683585ROXANNE P. AGUILLON                                      0501
A0101401700000000890626ARENAS, EDWIN PASIA                                      0501
A2001400290000000978269UYMATIAO, CATHLEEN AMIL                                  0501
A1701400230000001108412DURAN JR., ROBERT MANDAC                                 0501
A0101403610000001174932ESTRADA, TERESITA ENTILA                                 0501
A0101405940000001209905MUECO, JAIME PEREZ                                       0502
A0701400260000001232006SABORDO, JUVY ORCIGA                                     0501
A0101411820000001356576EDDIE P. PASIONA                                         0501
A1901400290000001362954WILLIE AMBAL MERCADO                                     0501
A1101400120000001547520TAN, MELVIN NATHANIEL ANDRADE                            0501
A0101411240000001563388BERMEJO, GERALD PANLAQUI                                 0501
A0101402770000001570781AVEGAIL LAGMAY DONALDO                                   0501
A0101401090000001618811KRYZLER BEVERAGES STATION                                0501
A4101400550000001622593TEJANO, RODRIGO MALUNAS                                  0502
A0101400150000001708276SALVEDIA, LOL DBU SALVEDIA BUIL                          0501
A0101404260000001725457NELIA A REDELICIA                                        0501
A0101414120000002172505EUGENIO JR, BENJAMIN BALASUELA                           0501
A6601400120000002249794BALDOS, BERNARDO INIGO                                   0502
A0101412890000002324170ABUCEJO, ALONA CRUZ                                      0501
A0101413440000002339573CABRERA, LEOTHENY ALBANO                                 0502
A0101400860011236211001**********                                               0501
A0101400860011376202002**********                                               0502
A0101400860011385484001**********                                               0503
A0101400860011452222001**********                                               0505
A0101400860011533026001**********                                               0502
A0101400860011774698001**********                                               0503
A0101400150061037971001TRITON FOREIGN EXCHANGE                                  0502
A0101400150061088084001ADZUARA, ELOISA TANECA                                   0501
A0101400150061229814003**********                                               0501
A0101400150061236944069JUDY B. GONZALEZ                                         0502
A0101400150061315447001SUBIDO, M.D. JONAS CERTEZA                               0501
A0101400150061453761057FLORDELIZA C. REYES                                      0501
A0101401960121239576002**********                                               0501
A0101400440161039572072MEDITA P. ALIMPUANGON                                    0502
A0101407270162525008001RAYMOND S. FERNANDEZ                                     0502
A0101400310211391281001GARCIA, MYRNA TAN                                        0506
A0101407140213288444001**********                                               0502
A3101400160221674966001ERIC S. CUENTA                                           0501
A3101400450223081363001ANASTACIO, ESTELA LUARCA                                 0501
A1001400350233078715100**********                                               0503
A1301400470252478374018ELIZABETH P. BARNACHEA                                   0501
A1301400470252490894001RUTH G. ARENAS                                           0502
A1901400290261390520001JOEL PUNZALAN DIMAANO                                    0502
A1901400290261567865001ALEX IAN SISON DE LA CRUZ                                0501
A0101406460272529147001BIACAN, MARIA TERESA LAYGO                               0501
A0101402350321026869001GEM LIVESTOCKS FARM                                      0505
A0101402350321488644001LITA M. SUPERTICIOSO                                     0501
A0101402350321640781001ELVIRA O. DURA                                           0501
A0101402640361042795001CSC MANAGEMENT SERVICES                                  0501
A0101402640361725639001TORRES, MARIVIC KUDARAT                                  0501
A0101402640361784002001AGUSTIN, CATALINA LEANDADO                               0501
A0201400920375316580001LIM, PERRY TAN                                           0501
A0101402770391187974003DARWIN DEE PONA                                          0501
A0101402770391211579002PETRONILO YANGA                                          0501
A5501400120410698584008TRISTEZA, WILSON OR CORAZON                              0501
A0101403030441025544001**********                                               0505
A0101403030441534805001**********                                               0501
A0101403580511156599042EDELMIRA Z. ALAMBRA                                      0501
A0101403450521478374007********                                                 0501
A0101403610531475509001DE BELEN, VICTOR CONCEPCION                              0505
A0101403610531478374002GRAPE, IMELDA HANDOG                                     0501
A0101403610531762081001MIRANDA, SUSAN ESPINILI                                  0501
A0101407720602581738001DUCUSIN, MA. ANTONINA SUGUITAN                           0501
A0101404420631386485011OGATIS, CERCIA                                           0501
A0101409890649721922001DEL POSO, REYNALDO JIMENEZ                               0501
A0101407560686478374048REMEDIOS B. MALIT                                        0502
A0101408240711219571001MERCEDES M. OLIVER                                       0502
A0101408240711655327001MACAS, RONA FABIANO                                      0501
A2801400100712510109001BORDA, CONCEPCION TALOSIG                                0505
A0101406750852039943001RIGHT CLICK ENTERPRISES                                  0510
A0101406750852530398001REYES, LOLITA LARGADO                                    0501
A1301400470000001004082MARIFE M. APOSTOL OR                                    10505
A0101411820000001356781TREASURE HOLIDAYS TRAVEL &                              10502
A0101407270000001597022ERNESTO C. DELA DINGCO OR                               10501
A0201400920000002249954LORLIE P. GALANG OR GLENN                               10501
A0101408240000002397351CANIZARES, CHERISH ZAFRA OR                             10502
A0101400730111751676001ALFUERTO, VIOLETA DEPILO OR                             10501
A3101400450223701659001GRANT INSTITUTE OF TRADE AND                            10505
A1901400290261542971001DIVINIA ALTAMIRANO DIMAYUGA OR                          10503
A0101401670271186236004TANG, CLARITA OR GLORIA LIM OR                          10504
A0101401670271192707006FEDERICO C. LIM OR TORRES,                              10503
A0101402350321179521001FELLIZAR, CESAR OR EMILIA OR                            10504
A0101402350321341109002WONG, PAUL OR EDITA OR                                  10501
A0101402350321455174001CARVAJAL, DOROTHY S. OR                                 10501
A0101402350321597544001ROBERTO T. ARSITIO OR                                   10501
A0101403610531047978001TIMONES, ALPHA PINTACASI                                10502
A0101403610531182250001NERECENA, SYLVIA S.  OR                                 10503
A0101403610531704591001DELA CRUZ, AVELINA RODILLAS OR                          10501
A2801400100712290478004SANTIAGO, MARY SHERYLL LIM   OR                         10501
A4101400420814457337002ORDONEZ, JANE M. OR                                     10501
A1301400470000001004082FERNANDO M. NICANDRO                                    20500
A0101411820000001356781TOURS SERVICES                                          20500
A0101407270000001597022JANELITA G. DELA DINGCO                                 20500
A0201400920000002249954ANTHONY A. GALANG                                       20500
A0101408240000002397351TUPAZ, MARTIN ANTHONY                                   20500
A0101400730111751676001ALFUERTO, ABNER REQUINTO                                20500
A3101400450223701659001TECHNOLOGY                                              20500
A1901400290261542971001AMANDO BRIONES DIMAYUGA                                 20500
A0101401670271186236004ROBERT/CAESAR SY                                        20500
A0101401670271192707006VIRGINIA CHRISTINE L.                                   20500
A0101402350321179521001ABUDA, MICHELLE                                         20500
A0101402350321341109002CECIL OR PAULINE                                        20500
A0101402350321455174001CARVAJAL, KIM APPLE S.                                  20500
A0101402350321597544001LUVIZMINDA L. ARSITIO                                   20500
A0101403610531047978001DBU JAZKY BUILDERS                                      20500
A0101403610531182250001NERECENA, SHIRLEY S.                                    20500
A0101403610531704591001DELA CRUZ, DANILO OLAZO                                 20500
A2801400100712290478004WYRSCH, WALTER J                                        20500
A4101400420814457337002ORDONEZ, JOSE IB                                        20500
B0101407560000000003516***************                                          1605
B0101400440000000029310PERLA COMPANIA DE SEGUROS, INC.                          1602
B0101402770000000080691ORBIT INNOVATIVE CONST. CORPORATION                      1601
B0101406750000000090753A14 FOOD GROUP INC.                                      1602
B0101406750000000090782MANTECH CORPORATE SUPPORT INC.                           1602
B0101406750000000090793AUTOCIRCULO CORP.                                        1610
B0101406460000000182341TAMARGO, JOSEPH DBU ABSTRAK TRADING                      1601
B0101413570000000206482E SOURCE SYSTEMS DEVELOPMENT COOPERATIVE                 1610
B0101413570000000206595CAST IN PLACE SYSTEM BUILDERS INC.                       1601
B0101409180000000874740GREEN EDGE AGRI PHILS. CORPORATION                       1602
B0101402770000001571604MC GENTECH BUILDERS CORP.                                1601
B0101400860011374845003**********                                               1601
B0101400860011607604001**********                                               1601
B0101407270162033826001UNI-FILES SAVER CORPORATION                              1610
B0101407270162042616001GLOCAL AGRAQ VENTURES INC.                               1605
B0101400310211034256001KAPIANS VENTURES INC.                                    1602
B0101407140213407368001**********                                               1601
B3101400160221033214001RD CASH PADALA, INC. AREA 02                             1603
B1901400290261490775003LYNAR REALTY & DEVELOPMENT CORP.                         1601
B6601400120314612847001CHEN, CHAO CHONG OR CHEN, VALERIA                        1601
B2001400290315528399001**********                                               1601
B0101402350321006431001OLIVAREZ REALTY CORP.                                    1608
B0101402350321016002002GOLDRICH PAWNSHOP, INC                                   1602
B0101402350321024658002OLIVAREZ COLLEGE INC.                                    1608
B0101402350321035481001COUNTRY BREEZE LAUNDRYMAT                                1601
B0101408820333011826001MAGTECH PENTAX MARKETING                                 1602
B0201400760374043666001FORMWORKS RUBIA ARCHITECTS                               1601
B0101408370382028392002YUMMY CORNER ENTERTAINMENT CORPORATION                   1606
B0101403320471031797001SUNBEAM MARINE SPORTS CORPORATION                        1603
B0101403450521011915001**********                                               1605
B0101403610531044231001BLOOMING STAR                                            1602
B0101403610531047191001MALASAGA TRADING CORP.                                   1601
B0101407560686039241001VALAPSA, INC.                                            1601
B4101400420814000717002MARITIME SAVINGS BANK CORPORATION                        1602
B0101400730111100015004THE PHILIPPINE AMERICAN LIFE AND GENERAL                11603
B1901400290261023671001PONDONG BATANGAN COMMUNITY                              11601
B0101400570281023797002PROVINCIAL SUPERIOR OF THE PHILIPPINE                   11602
B0101402350321500384002ONG, JOSEPHINE T. AND                                   11602
B0101400730111100015004INSURANCE CO.                                           21600
B1901400290261023671001FOUNDATION, INC.                                        21600
B0101400570281023797002PROVINCE OF THE                                         21600
B0101402350321500384002DURA, ELVIRA O.                                         21600
B0101408820333821100608**********                                               2003
B0101408080514821100608**********                                               2020
