A0101413310000005433523MILCAH G. CRESPO OR REZ GERARD                          10501
A0101413310000005433523V. DELA FUENTE                                          20500
A0101408790000005169137AYTIN, JULIUS REY ALMENDRAS                              0501
B2401400180411040003001BRIGADA MASS MEDIA CORPORATION                           1604
A0101403320000012742193DARNIELYN MAY S. MANANSALA                               0501
B0101403320000012738922EXCELLENT BRAIN SCHOOL OF BARANGKA INC.                  1601
B0101405940512038350001ANGELITO A. BOLANOS CUSTOMS BROKERAGE                    1604
A0101405940000002268722DOMINGO, KAREN MUSNI                                     0501
B2201400250000007719897GARCIA MOM & KIDS CO.                                    1602
B0101406750000010166371PRCOCO PRODUCTION INC.                                   1610
A0101406750852478374002TERESITA LIWANAG                                         0501
A0101400860000008653458**********                                               0502
A0101400860011425148001**********                                               0502
A0101400860000000031574**********                                               0501
A0101401250000000441052ONGSUECO, SYLVIA K.                                      0502
B0101400150061016942007ASIA PACIFIC EXPRESS CORPORATION                         1605
B0101400150061048055001HOME DEVELOPMENT MUTUAL FUND                             1601
B0101400150000001708721SILVERREEL INC.                                          1601
A0101400150061228609001CYNTHIA C. JUATON                                        0501
A0101400150061337098032LIM, BETSY Y.                                            0501
A0101400150061365021001ARTHUR P. MARQUEZ OR                                    10501
A0101400150061365021001CLARA MARQUEZ                                           20500
A0101400600000001335648********                                                 0502
B0101400600000005943262********                                                 1605
A0101405810072470925002***************                                          0505
B0601400100081035852001LIBERATO T. REYES & ASSOCIATES,                         11602
B0601400100081035852001CPA                                                     21600
B0601400100000000032760RDF FEED, LIVESTOCK & FOODS, INC.                        1610
B0601400100000002099330RDF FEED, LIVESTOCK & FOODS, INC.                        1610
A0601400100081251812001CAPATI, EMILIA L. OR                                    10503
A0601400100081251812001SANGALANG, HAZEL                                        20500
B0601400100081709829001MENLO LIGHTING CORPORATION                               1602
A0101413730000002229687*                                                        0501
A0101400730111404908001CU, DOROTHY MILDRED SIA                                 10503
A0101400730111404908001OR CU, EUGENIO                                          20500
A0101400730111432322016IMY ANN COBRADO                                          0502
B01014060400000100814420*******                                                 1603
A0101401960121241230001**********                                               0501
A0101413150000005944421WANG, AMI                                                0501
A0101412630000000180389MARQUEZ, MA. ELIZA LIMCOLIOC                             0501
A0101412630000001485310BADILLA, EVANGELINE RAMOS                                0501
A0101412630000001823332RODRIGUEZA JR., ANTONIO DACIR                            0501
A0101412630000004062002CENAR, LOIDA DBU LMH MEDICAL                            10510
A0101412630000004062002SUPPLY DISTRIBUT                                        20500
A0101413310000009995795BUENAVENTURA, ARCY DOMINGO                               0501
A0101401830000012733589UY JR., SANTOS SALEM DBU JOCAR                          10501
A0101401830000012733589DELIVERY SERVICES                                       20500
B0101401830141008844001BM POWER SUPPLY & ELECTRIC SERVICES                      1605
A0101407270162331908110ARTURO C. BENEDICTO                                      0501
A0101401090171399334003CATHERINE R. CORDOVA                                     0501
A0301400530193037469001SONRISE COOPERATIVE                                      0501
B0301400530193037617168PIONEER BUENAS COMMODITIES CORP.                         1620
A0301400530193793952001AQUINO, JESUSA CURAMENG                                  0501
B0301400660000008941135YPARRAGUIRRE, ERVY BIASAGA DBU ERVY                      1604
B0301400660194046395088DAVSAM LINK CORPORATION                                  1601
B0301400660000000195066SAMMITO PACKAGING CORP.                                  1602
A0101401380000005320990*********                                                0505
A0101401380201607621001BATAC, LANI OROZCO                                       0501
A0101410720000007017381**********                                               0502
B0101412500000000041670MOLDEX REALTY INC.                                       1603
B0101412500000000041692MOLDEX PRODUCTS, INC                                     1603
A3101400450000008015267CERILLO, GRACE GANADEN                                  10502
A3101400450000008015267DBU EGKA FOODSHOP                                       20500
A3101400450223221366002*****                                                    0502
A3101400870000000074764ATIENZA, ADRIANO TOLENTINO OR                           10501
A3101400870000000074764ATIENZA, TERESITA                                       20500
B1001400190231039064001*****                                                    1604
B1901400290261050898001CHUA PHILIPPINE CORPORATION                              1601
A1901400290261244422001MERCEDES MERCADO HIRANG                                 10501
A1901400290261244422001OR PABLO LASIN H                                        20500
B0101406460272007511001STERLING GIFTS INC.                                      1605
B0101406460272045059001INTER-COASTAL INTERNATIONAL TECHNOLOGIES                11605
B0101406460272045059001CORPORATION                                             21600
B0101406460000000182472HYT TRADING AND SERVICES INC                             1601
A0101406460000002330803ZAMORA, FRANCISCO JAVIER M.                              0501
A0101406460272359690001DIANA SY-QUIA OR                                        10504
A0101406460272359690001CELIA ESPIRITU                                          20500
A0101406460272584554001ROQUE, SALLY CANTOS                                      0501
A0101406620000012373352YANGCO, ARNOLD Q. OR YANGCO,                            10501
A0101406620000012373352CORAZON Q.                                              20500
B0101406620273045167001VENTURANZA, HOSTALERO AND COMPANY, CPA'S                 1601
A0101406620273215980002GLORIA CHOA CHUA                                         0501
B0101408660000000034302EDGECOMM INC.                                            1601
A0101410980000000533782DE NOBILI, LYNN NAZARENO                                 0501
B0101400570281007191001ST. JOSEPH COLLEGE WORKERS ASSOCIATION                   1601
B0101400570281007191002ST. JOSEPH COLLEGE WORKERS ASSOCIATION                   1601
B0101400570281007191003ST. JOSEPH'S COLLEGE WORKERS ASSOCIATION                 1601
B0101400570281007191004ST. JOSEPH COLLEGE WORKERS ASSO.                         1601
B0101400570000003451589CONTEGO TECHNOLOGIES INC.                                1602
A0801400160000002676839JACOMILLE, ENRICO ORTILANO                               0501
B0801400160311029906001************                                             1602
B0801400160311268198001JOHNEL REALTY DEVELOPMENT CORP.                          1601
A0801400160311478374004MAELYN HACERMIDA                                         0502
A0801400160311478374087LOVENIA C. DELA CRUZ                                     0501
A1101400120000006081103BACSAL, EMMYLEEN BATAWAN OR                             10503
A1101400120000006081103BACSAL, DAVID DACUNOS                                   20500
A1101400120000008001021VILLAGRACIA, MARVIN REPOSO                               0501
B1101400120000000652904COASTALVIEW FOODS CORPORATION                            1603
A1101400120000000652351YAO, RONALD PHILIP GO                                    0502
B1101400120313549737001YU, RONNIE LIM                                           1602
B3401400280000006790965JL PRIORITY LENDING CORPORATION                          1602
B0101405650000002960741LEAN MANAGEMENT AND PEOPLE SOLUTION                      1601
A0101405650322539535001******                                                   0502
A0101402060000009179473CLEOFE-JAVIER, MA. ESTELA M.                            10501
A0101402060000009179473OR JAVIER, JEROME                                       20500
B0101402060351009544002RI CHEMICAL CORPORATION                                  1602
B0101402060351021742001WORLD IMPACT COMMUNICATIONS, INC.                        1605
B0101402060351022399001GOLDEN POT N' PAN FOOD SERVICES                         11601
B0101402060351022399001COMPANY                                                 21600
A0101409050352694168001FELIX, L JT.                                             0510
A0201400760374262278002CANG, MARIE JOCELYN G.                                   0501
A0201400760374465762001******                                                   0505
A0201400920000012757314QUIBOL, LEONARDO DBU SOUTHERN                           10503
A0201400920000012757314ISLAND SEA CARRIER & LOGI                               20500
A0201400890000007877501MAGLAD, REDONIO DALOMINGO                                0502
A0201400890376633154001JIMENEZ, PETER OR JIMENEZ,MARIA                         10504
A0201400890376633154001THEREZA OR ALAZA                                        20500
B0101402930381042025001CANIPAAN EARTH RESOURCES, INC.                           1602
A0101402930381535952001JUSTO M. ORROS                                           0503
B0101402930381724752001RBL TOOL & DIE CORP.                                     1610
A0101408370382504235001CARBONEL, SAMUEL ABRIGO                                  0502
A0101408790000012757483GONZALVO, DANIE SON DORONIO                              0501
B0101408790000010384608KEYS 2PROSPERITY INNOVATIONS INC.                        1601
A0101415350000005356889MARCELO, LEA D. OR GABINETE                             10502
A0101415350000005356889MARIE SUZZETTE Z                                        20500
A0101402770000000360865CRUZADO, ARNEL OLA                                       0501
B0101402770000000023758STOLLER PHILIPPINES INC.                                 1605
A0101408950000008554263ORTIZ, TERESA LIBDAN                                     0503
A0101408950396709443001CABALUNA, MA. LOURDES JOSEFINA                           0510
A0101409180000012756322PASCUA, DOMINGO BAGUYO                                   0501
A0101409180000012756366DOTE, CLAIRE CASUNCAD                                    0501
A0101412210000012172126ROXAS, AURORA RHODORA VILLEGAS                           0502
A5501400120000002348325ANG, ANDY MAN CHUNG CHANG                                0505
A5501400120000009875661COLLADO, LEAH NGITNGIT                                   0502
B2401400180411014376002PENBANK, INC. (A PRIVATE DEVELOPMENT                    11603
B2401400180411014376002BANK)                                                   21600
B2401400180411043008008TBB PETRON                                               1602
A2401400180411272614002BALAYO, JOEL BASCO                                       0510
A2401400180411478374039ABRENICA, COSMECIA L.                                    0502
A2401400180411542448001GUATLO, ANNA MARIE VILLASENCIO                           0501
A1201400150000009997160LONTOC, JOHN REYCON ASUNCION                            10505
A1201400150000009997160DBU JHONKHAY'Z FURNITURE                                20500
A0901400220000000425045LOZADA, ELIZABETH GO                                     0501
A0101403030441240270002**********                                               0501
A0101412890000005913351GAGUI, MICHELLE C. OR GAGUI,                            10501
A0101412890000005913351JOE ANTHONY YU                                          20500
A0101412890000009833554AMIDO, ANNA LIZA GUEVARA                                 0502
B0101406330472037043001STO. NINO PARISH                                         1603
B0101406330472037043002THE ROMAN CATHOLIC BISHOP OF PASIG-STO                  11603
B0101406330472037043002NINO PARISH                                             21600
B0501400170481018109001CSI WAREHOUSE CLUB INC.                                  1601
A1901400160000012295580MICHAEL R. BARIL OR SANDRA M.                           10506
A1901400160000012295580BARIL                                                   20500
A1901400160000000483783PAULA REA S. CASTOR                                      0502
B1601400170000000036057MULTI-WARE ECON-SALES CORPORATION                        1601
B0101407430503037323001EARTHDRILL, INC.                                         1604
A0101407430503181127001ALBERT S. SAW                                            0501
A0101407430503421013006IRIES A. RIVERA                                          0501
A0101403580511420184002MARIA CAROLINA S. MACASAET                               0505
A0101403580511495436001PAUL I. MACASAET OR MARIA                               10505
A0101403580511495436001CAROLINA MACASAET                                       20500
A0101403580511742901001MARIA CARMELA M. PERALTA                                 0505
A0101405940000005359388TIBAYAN, NICO GARCIA                                     0502
A0101411790518055815149TAMONDONG III, RIZALINO                                 10501
A0101411790518055815149VALDEROZA                                               20500
B0101403450521011773001PHILIPPINE ASLAM CORP.                                   1605
B0101403450521025155001**********                                               1602
B0101403450521025155001**********                                               1605
B0101403450521029023001**********                                               1602
B0101403450521029025001**********                                               1602
A0101403450521238821001**********                                               0505
A0101403450521339022001**********                                               0503
A0101403610000007106561DE GUZMAN, ARMANDO ALCANTARA                             0501
B0101403610000012759941C. WARREN & A. UY CORPORATION                            1601
A2201400250000002337862ALPHA PINGOL DIMARUCOT                                   0502
A2201400250000010425344NIKKO ADY M. MERCADO                                     0501
B0101404130601035458001CITYLAND CONDOMINIUM VIII, INC.                          1605
B0101404130601042675001iPRUDENTIAL STEVEDORING AND PORT                        11603
B0101404130601042675001SERVICES INC                                            21600
B0101404130601042675003iPRUDENTIAL STEVEDORING AND PORT                        11602
B0101404130601042675003SERVICES INC                                            21600
B0101404130000000321542iPRUDENTIAL STEVEDORING AND PORT                        11602
B0101404130000000321542SERVICES INC.                                           21600
B0101404130000002121533IPRUDENTIAL STEVEDORING AND PORT                        11602
B0101404130000002121533SERVICES INC                                            21600
B0101404130000005017703IPRUDENTIAL STEVEDORING AND PORT SE                      1601
B0101412180000000038008PERE ET FILS, INC.                                       1610
A0101409890000000004519DY, NAPOLEON KU                                          0501
A0101413990000012762077NAJERA, LEONIDA D. OR                                   10501
A0101413990000012762077NAJERA III, FELIPE M.                                   20500
A0101413990000009073343MAJAM, OFELIA R. DBU                                    10502
A0101413990000009073343NICOLE ANN'S COLLECTION                                 20500
A0101414120000011288910SIMBAJON, MARICEL MACAPUNDAG                             0501
B0101406590662015985001MIRIAM COLLEGE FOUNDATION, INC.                          1601
A0101406590662460942001BUALAN, DAVEY JOE LINGATING                              0501
A0101406590662728693001VARGAS, RAYMARK JOSEPH S. OR                            10501
A0101406590662728693001GENATO, MARY CAE                                        20500
A1301400210682478374027MARY ANN M. DE LEON                                      0501
B1301400340683037675001SERCHEM PHIL. INCORPORATED                               1601
A1301400340683361124002BUENAVENTURA, MYLINE SORIANO                             0502
A0101408240000003955482KHAW, SWEE AUN                                           0501
B2801400100000004560036OAKTREE PRODUCTIVITY INC.                                1601
A2801400100712255208002RAMON C ZAVALLA OR                                      10505
A2801400100712255208002ELIZABETH S ZAVA                                        20500
A2801400230000000937617GARCIA, JENNEN JULAO                                     0501
B2801400230000009021932SAMER GLOBAL MANPOWER SERVICES, INC                      1602
B4101400260812246790001MAGSAYSAY INSTITUTE OF SHIPPING, INC.                    1601
A4101400390000006302483FARIDAH M. BAGUINDA                                     10502
A4101400390000006302483DBU FARD'S FASHION STORE                                20500
A4101400420814478374171MICHAEL G. RIBOT                                         0501
A4101400420814559384001RIBOT, NORMA GAJE                                        0501
B0101412340000000031056HOME CREDIT MUTUAL BUILDING AND LOA                      1601
A0101404840000003069878RICAROS, FIDELA C.                                       0502
A0101404840851212512001TESORO, JOY A.                                           0501
A0101404840851478374012SAPORNO, ANNABELLE G.                                    0501
A0101404840851520766163JOCELYN ANONUEVO                                         0501
A0101406750000012757490TAN, JOEMI MASUKO                                        0501
A0101406750000012757552ROMERO, MARGARITA DELA CRUZ                              0501
B0101405070861022087001AIR SPACE TRAVEL AND TOURS INC.                          1605
A0101405070861197518001RICARDO G. CHAN OR                                      10505
A0101405070861197518001OLIMPIA C. CHAN                                         20500
A0101413860000007252388GIMENO, GERRY ARCIGA                                     0501
B0101413860000000145344SUPREME COURT EMPLOYEES MULTI-PURPO                      1650
A0601400230000001062355CANLAS, OWEN FRANCIS SANTOS AND                         10502
A0601400230000001062355DEANG, JIM PATRI                                        20500
B0601400230000000029941ST. THERESA DIALYSIS CENTER, INC.                        1610
A0601400230000002650171SANTOS, K DBU ADRICH ENTERPRISE                         10501
A0601400230000002650171OR SANTOS, CARMI                                        20500
