B0601400100081821100608**********                                               2010
B0101410300663821100608**********                                               2010
A0101400600071478374003JALIQUE, GENARA                                          0501
A0601400520000005001487ORQUIA, GERMAINE REVELLAME                               0501
B2601400270302821100608**********                                               2010
B2601400270302821200608**********                                               2005
A1101400120000001920678PALMA, JHOWIEN ROYO                                      0501
A0101405490000000232511MICHSJA MOPET MAY C. FELIX                               0502
A0101405490000000444626RUDOLPH VALENTINO M. PANLILIO                            0505
A0101405490000005210240MORADA, RONALD ALLAN AMORES                              0502
A0101405490000001092717ROSLINA M. AMEROL DBU AMEMAR                            10502
A0101405490000001092717GENERAL MERCHAND                                        20500
A0101405490000000444477MARIA TERESINA G. MESINA OR                             10504
A0101405490000000444477ALFONSO E. MESIN                                        20500
A5501400120410680839001DR. SYLVIA B. ADALIN OR                                 10502
A5501400120410680839001DR. EDGAR O. ADA                                        20500
A2401400180411577534001LASOLA, EDITHA RIVERAL OR                               10502
A2401400180411577534001LASOLA, ROGELIO                                         20500
B0101408110515821200608**********                                               2002
B4101400390813821100608**********                                               2004
B4101400390813821200608**********                                               2001
B0101400860011376523004**********                                               1602
A0101400860011482819001**********                                               0503
A0101400860011542443001**********                                               0505
A0101401250021476357001CATHERINE GO UY                                          0501
A0101401250021498847001*****                                                    0502
A0101400150000005947271BARRIENTOS, BARRY                                        0501
B0101400150061010612001INTERNATIONAL ELEVATOR & EQUIPMENT                       1605
B0101400150000001708403NEGROS ISLAND SOLAR POWER INC.                           1603
A0101400150000000253369DELA CRUZ, ANGELA BALASBAS                               0501
A0101400150000003601072BELISTA, VANESSA GLORY DELA CRU                          0501
A0101400150061707789001DIMAYUGA, ROBERTO BALASBAS                               0501
B0101400600071396921001**********                                               1605
B0601400100081821200608**********                                               2005
B0101413730000001568481******************************                           1602
B0101400730111042532001F.R. CUEVAS UNITED CORPORATION                           1603
A0101400730111520766060MONTILLA, BONIFACIO VIRAY                                0501
A0101412630000004062002CENAR, LOIDA DBU LMH MEDICAL                            10510
A0101412630000004062002SUPPLY DISTRIBUT                                        20500
A0101400440161478374198EUFRONIA I. BERGONIA                                     0501
A0101401090000001611449JEROME ALONZO                                            0501
A0101401090171758090001EVELYN R. LAURITO                                        0502
A0301400530000006051725LEGASPI, JEORGIE ARVIN AND                              10501
A0301400530000006051725LEGASPI, MARIA VICTORIA                                 20500
B0301400530000000025378D' UNIBUENAS CORPORATION                                 1601
A0301400790000002301779ALVEZ, RUVELYN ESCUADRO                                  0503
A0301400950000002115253**********                                               0502
B0301400950196821100608**********                                               2002
B0301400950196821100608**********                                               2002
B0301400950196821200608**********                                               2002
A0101413020000000880520CHONG, SIOK SOAN SY                                      0501
B0101412500000000041705SYNERGY GLOBAL LOGISTICS SOLUTION INC.                   1602
A3101400450000003072471REJUSO, MA. THERESA ALVAREZ                              0502
A3101400450223456163001ANGSICO, RACHELE THERESA OR                             10503
A3101400450223456163001    ROBERTO                                             20500
A3101400450223576401001GALLEGO, DHARIA CAJAYON                                  0502
A1001400190231478374075BARRON, LORNA                                            0502
A1001400190231478374086LORNA A. OMANDAM                                         0502
A1001400190231520766106MATURAN, EUMEDE JUAREZ                                   0501
A1001400190000000016457ANTIGA, LUNITA                                           0501
A1001400350233528399003KO, JOSE NELSON AND                                     10501
A1001400350233528399003KO, CHARMAINE                                           20500
A1001400350000002367273CHAN JR., BENJAMIN PO                                    0508
A1301400470000003270431CHRISTIAN VINCENT R. SALAZAR                             0501
A1301400470000003270442CHRISTIAN VINCENT R. SALAZAR                             0501
A1301400760000002346129JIMMY C. CENA                                            0502
A0101400570281186822001MELCHOR C. BUENVIAJE, M.D.                               0505
A2601400270000002677365BULACAN CONCRETE PRODUCT                                 0502
A1101400120000001547508DESUASIDO, IMELDA FAJARDO                                0501
A1101400120000000652824NIPAL, MARIA TERESA RIVERA                               0501
A6601400120314042312001NORSAM BUILDERS & CONSTRUCTION                          10503
A6601400120314042312001SUPPLY                                                  20500
A6601400120314617868088LUCERO, SINCLAIRE A. OR MIRA R.                          0505
A6601400120314622237001ADRIATICO, DON BASILIO C.                               10502
A6601400120314622237001OR MELIKA O.                                            20500
A6601400120314624062001GIPAY, MARICEL DIAZ                                      0501
A2001400290000000724510JUCOM, RODORA TUALE                                     10501
A2001400290000000724510OR JUCOM, JHUFEL                                        20500
A2001400290000002319520CADAMPOG, JOSE GLENN CENIZA                              0505
A0101402350321545021001BACIA, RIZA DIMAALA                                      0501
B0101405650000000772721PREMIERE COMMUNITY PARTNERS, INC.                        1610
B0101405650000004410039MIDNIGHTHOOCH INCORPORATED                               1604
A0101405650000002325515FERNANDO MARTIN D. TAN                                   0501
A0101402510341283815001RODRIGUEZ, LIEZEL DAMIAN                                 0501
B0201400920000000047710BUENA OCEAN FERRY SERVICES INC.                          1602
A0201400920375478374015GAYO, LOURDES O.                                         0502
A0201400890376567613001PEREZ, LENARD NAVAJA                                     0501
B0101402930381022284001INVESTORS ASSURANCE CORPORATION                          1601
A0101402930381341460001SUI SIONG T. CANDELARIA OR                              10502
A0101402930381341460001CHRISTINE S. CANDELARIA                                 20500
A0101408370382207011001DRS. GERARD C. AGCAOILI OR                              10502
A0101408370382207011001MA. THERESA C. AGCAOILI                                 20500
B0101402770391027350001STRATEGIC DISTRIBUTORS, INC.                             1605
A0101402770391217498032LEONARDO C. CASTANARES                                   0501
A0101402770391471636001EDITA C. SOLIS                                           0502
A0101402770391478374023MA. LUISA L. FELIPE                                      0501
A0101408400000003515108LESABA, MARIBEL SEVA                                     0501
A0101408400000001855381ABSA BUILDERS                                            0502
A0101408400394365559002LEDESMA, ROY CABAGAY                                     0502
A0101408950396563005001DR. ANDREW GABRIEL JACINTO                              10502
A0101408950396563005001TABBERRAH                                               20500
B5501400120410014206001PANABO MULTI-PURPOSE COOPERATIVE                         1610
B5501400120000000046893GRV FAMILY COMMERCIAL, INC.                              1620
A5501400120410283898001GARCIA, JOSIE OR                                        10510
A5501400120410283898001GARCIA, GERARDO                                         20500
A5501400120410685210001GUINTIBANO, EDEN VILLARUEL                               0501
A2401400180411478374004MESRIYA ABDULLAH                                         0501
A2401400180411478374068DELIGERO, JOCELYN JALA                                   0501
A2401400180000000428062SAMANION, FLORIVIC ARINO                                 0501
A0901400220000001805090**********                                               0502
A0101403320471524918001EMMA OR WILMA DIGUANGCO                                  0503
A0101410140000001074691MEMBERS OF NATASHA (SHOECAT INC                          0501
B1901400320000000041283SAN ISIDRO MULTI-PURPOSE COOPERATIVE                     1601
A1901400160000000483783PAULA REA S. CASTOR                                      0501
A1401400110492524359001VELUYA, DALISAY BRIONES                                  0501
A1601400170000001837863RENE N. ESPLANA OR                                      10501
A1601400170000001837863GLORYDEL B. ALAPAD                                      20500
B0101403450521011910001KITCHEN BEAUTY MARKETING                                 1605
B0101403450521029023001**********                                               1602
B0101403450521078888003PUREGOLD PRICE CLUB, INC.                                1620
A2201400250561038458001PTT SOUTH RAMP GASOLINE STATION                          0501
A0101412180604309212001DY, ELAINE ONG OR                                       10501
A0101412180604309212001DY, ROSITA ONG                                          20500
A0101404260000000532023TAGAO, JAYDEE CLAVERIA                                   0501
A0101410300663790131001VALDEZ, JENNIFER ANN Z OR VALDE                         10502
A0101410300663790131001Z, PABLO BASILIO                                        20500
A1301400210000000540743JONEL MAR S TRINIDAD                                     0501
A1301400210000000540721MONTANO, LEOPOLDO P. DBU                                10502
A1301400210000000540721L.MONTANO GRAVEL & SAND                                 20500
A1301400210000001206882GIPIT, GEMMA C.                                          0501
A1301400340683361124002BUENAVENTURA, MYLINE SORIANO                             0502
A1301400500000002063792ANTONIO, ALBERT SILVA                                    0501
A1701400230000003471732BARNESO, EDISON LAGAZO                                   0502
A2801400100712688356001DEL ROSARIO, RICHARD F. OR                              10501
A2801400100712688356001DEL ROSARIO, EVE                                        20500
A4101400260000000469329FALCUTILA, MARISSA RAMOS                                 0502
A4101400260812699781001ESPANTO, RHIA VERGARA                                    0501
B4101400390813036410001THE BOAT SHOP CORPORATION                                1602
A4101400390813478374035PLACIDES, MICHAEL                                        0502
A4101400420000000121080DONSOL, HENRY CALCITA                                    0501
A4101400420814478374154CABRERA, FELIZA                                          0501
A4101400420814572265009GERALDINE O. WONG                                        0501
A4101400550000004846835MARQUEZ JR., RAMON BALASOLLA                             0501
A0101412340000003717100ELIGIO R. PENDON JR.                                     0501
A0101404840851478374183ISABELITA P. MAMUYAC                                     0502
B0101406750852041068088SOUTHERN HELEVICLE TRADING                               1602
A0101406750852084318001SIBUG, GENEATH P. OR                                    10501
A0101406750852084318001SIBUG, ERNESTO M                                        20500
B0101406750852456290001**********                                               1602
A0101405070861340474001NA HAENG LEE                                             0501
A0101405070861478374066ELMER LADRES APAS                                        0501
