F1801400130151048763001MSU-IIT NMPC BACOLOD BR.                                 2601CKR
F0301400110000003762685LU, WILSON LU JT WORSLEY,ANDREW                          2605CKR
F0101405650322033184001ASIA PLUS CORPORATION                                    2705CKC
F0101405650322694925001ADAD JR., EMMANUEL CERVANTES                             2501CKO
F2401400180411057025001BRIA HOMES, INC.                                         2603CK1
F1901400160491040836004DR MA JOYCELYN R MERCADO                                 2501CKO
F0101405940512030823008AVID SALES CORPORATION                                   2610CKR
F0101404130601008578001AYLING CORPORATION                                       2602CKR
F0101408240711029699001POWER AD & PROMO VENTURE, INC.                           2601CKO
