A0101402930381786332002*********                                                0502
A0101412920000011166544PAGUIO, PATRICK JOHN SALALILA                            0501
B0301400660000003361931YNIGO & YVANNA CONSOLIDATED CORP.                        1602
A0501400200000007980912REDULFIN, ROY RONDIE RAMIREZ                             0501
A0101410300000011355514SISON, ERIC LOUIE SANTOS                                 0501
B0101406750000005608620HIGHLINK COMMUNICATIONS AND MARKETI                      1601
A0101406750852617055001PUA, HERMINIA SALAS                                      0501
B0101400860011374845003**********                                               1601
A0101400860000000414122*************                                            0502
A0101400150000004505468ILAGAN, JACQUILINE                                       0501
B0101400150061010686001AIR NIUGINI                                              1610
B0101400600000000007650**********                                               1601
A0101405810072362282001GO, ZENAIDA CAMAT                                        0501
B0601400100000000142236ANGELES FORTUNE (HONGKONG) SEAFOOD                       1610
B0601400100000000032806BLU BLAZE GAZ HAUS                                       1604
A0601400100081588114001MASAGCA, ELSIE DIMARUCUT                                 0501
A0601400520000005943553VILLANUEVA, MELJOYCE AQUINO                              0501
B0601400520000005943666EGG MASTER ASSOCIATION, INC.                             1603
A0101410850000003101991COQUIA JR., RODRIGO CARDOZO                              0501
A0101410850000003503853MAHINAY, LIZA ELORDE                                     0501
B0101410850000012086032ROTARY CLUB OF PASAY MALL OF ASIA (MOA)                 11601
B0101410850000012086032INC.                                                    21600
A0101410850000006560012MANGULABNAN, E DBU MRK METAL                            10501
A0101410850000006560012WORKS GLASS AND ALUMINUM                                20500
A0101410850109058582001CHRISTINE MAY BURLAZA'S CUSTOMS                         10501
A0101410850109058582001BROKERAGE                                               20500
B0101410850000007294262COASTWAY SHIPPING AGENCY CORP.                           1605
B0101410850109069934001TAMIYA ENTERPRISES CORPORATION                           1601
A0101400730111008318001ANIFEL MANAGEMENT AND GENERAL                           10504
A0101400730111008318001SERVICES CORP                                           20500
A0101400730111201344001LUI, CHI WAI OR LUI, ADELE                              10502
A0101400730111201344001SALIGUMBA                                               20500
A7201400170000007185551TAGO, KHARLOU CUAMBOT                                    0501
B7201400170000003773637MDSDOC CORPORATION                                       1601
A0101412920000008813281MANLOGON, TWILA MAE C                                    0501
A0101400440161032333001LURKSPUR MARKETING                                       0502
A0101401090000001618862REBURIANO, ROSSANO DEL CARMEN                           10501
A0101401090000001618862OR MA. AUXILIADORA                                      20500
A0101401090171199276001MARILYN C. MABINI                                        0501
A0101401090171312734001DE LARA, AILEEN CYNTHIA F.                               0502
A0101401090171390904001AMIE DELOS ANGELES ABELA                                 0501
A0101401090171393982001REYES JR., EMILIO RANAS                                  0501
A0101401090000000993302FLORIAN R. NUEVO OR                                     10502
A0101401090000000993302MA. CRISELDA R. NUEVO                                   20500
A0301400530000003087363LEGASPINO, HERMENEGILDA AARON                            0501
B0301400530000000025276KONRAD FERNANDO - ROYAL CROWNE TRUCKING                 11603
B0301400530000000025276CATHERINE FERNAN                                        21600
B0301400530000001409438GENSAN LCL TRADING, INC.                                 1605
B0301400530000000025378D' UNIBUENAS CORPORATION                                 1603
A0301400530000008307551GONZALES, SYLVIA EUGENIO or                             10505
A0301400530000008307551GONZALES SR., RE                                        20500
B0301400660000000023047SEAWHALE CUSTOMS BROKERAGE                               1601
A0301400950000002252131ARCENA, GENE ATANGAN                                     0501
A0301400950000005707126********                                                 0502
A0101401380000000792018********                                                 0501
A0101401380201425266001SANTOS, PATRICIA ORTIZ                                   0502
A0101413020000000880451ALCANTARA, ALDEA DEALA                                   0501
A0101410720000006239869******                                                   0503
A3101400450223352819001FARAON, RIZALINA OR                                     10502
A3101400450223352819001BELEN, RHODORA                                          20500
A3101400450223418716001GARCIA, JESUSA CORAZON PLAZA                             0502
A3101400450223442002001GARCIA, ROSALINA OR                                     10502
A3101400450223442002001JESUSA CORAZON                                          20500
A1901400290261538304001OFELIA HIPOLITO LANDICHO                                 0501
B0101406620000000015243SAMPO UNLIMITED SOLUTION INC.                            1601
B0101406620000000962421ARMCO HEALTHCARE SERVICES INC.                           1601
B0101406620000000962432ORTIGAS TECHNOPOINT REALTY INC.                          1605
A0101406620000001686597CUNANAN, JOANNA PAULINE DIMAL                            0501
A0101406620273502279001LOTILLA JR., PERPETUO MERCADO                            0501
A0101411240000002332496LAWAN, CARINA CRISOLOGO                                  0502
A0101411240000012081166DOMINGUEZ, KATRINA PAULA ABUNDO                          0501
A0501400200000002306150PACIS, WILMA RAMOS                                       0502
A2601400270000000561955MICHAEL T. DE GUZMAN OR                                 10505
A2601400270000000561955KAREN MAY B. DE GUZMAN                                  20500
A0801400160311055600001DORILLO, FLORENCIA LOMILLO DBU                          10505
A0801400160311055600001GAYFLOR EDUCATIO                                        20500
A0801400160311413609001LIM, JOSEPH PO                                           0505
A1101400120313478374067COSTIMIANO, LUCY DEJERO                                  0501
A0101402350321478374048GLENDA D. ESTRELLA                                       0501
B0101405650000006273167WELACO ASIA PHILIPPINES INC.                             1603
A0101402930000010657884HERMIDA, HENDRIC ANG                                     0501
A0101408790000010684854RUCERO, MANUEL MIRANDA                                   0501
A0101402770000006642839AVILA, KIMBERLEY FLORES                                  0501
B0101402770391024254001TRIPLE-A TRAVELLERS TRADING                              1601
B0101402770391035790001NEWBIG FOUR J CONSTRUCTION INC.                          1604
A0101402770391217498022EUGENIO M. CORONADO                                      0502
A0101408400000007905839VILLAR, CHRISTOPHER BUENO                                0502
A0101408400394089542001CRYSTAL FRIAS LAUNDRY SERVICES                           0502
A0101408950396255952001KAWASHIMA, GRACE ROSELLON                                0504
A0101408950396563754001DENNIS FRANCIS G. NATINO OR                             10502
A0101408950396563754001ANTONETTE ABIGAIL NATINO                                20500
A0101412210000012080345LIM, GLENFORD RONQUILLO                                  0501
A0101412210000001236191YAP, JAN ANGELMAN CHAN                                   0501
A0101412210399094817010PATRICK S. GARCIA                                        0502
A0301400820000007134870COMIA, JULIETO MORTA                                     0501
A0301400820000007134870COMIA, JULIETO MORTA                                     0503
B2401400180411033064001P.G. ANG AND SONS, INCORPORATED                          1610
A1201400150000011415900BONIFACIO, SHYREL RAMIREZ                                0501
A1201400150421478374035DALAN, LINDA G.                                          0505
A0101403030441239047001**********                                               0501
A0101403030441239092001**********                                               0501
A0101412890000002747824************                                             0502
A0101412890000001765551URBAN GORILLA ENTERPRISE                                 0501
A0101406330472323079001VIRGINIA P. GARCIA                                       0501
A0501400170000000018306LLAMAS, ULDARICO MARTINEZ                                0502
B3801400170000000018788MINDORO PPA EMPLOYEES MULTI-PURPOSE                     11605
B3801400170000000018788COOPERATIVE                                             21600
A1901400160491249550007PATRICK HENRY A. PEREZ                                   0501
A1401400110000000132885OBIEN, EDWIN CABALLES                                    0501
A0101407430000006027896KND ENTERPRISE                                           0501
B0101403580511005199002ACE FOODS, INC.                                          1602
A0101403580511481547001AGNES D. PECJO-ANG OR                                   10502
A0101403580511481547001MARIXI G. CARLOS                                        20500
A0101411790000003321980NAVARRA, JASMINE ESTANISLAO                              0501
A0101411790000012082136JARIUS MARK D. NALUPTA OR                               10501
A0101411790000012082136RINALYN D. PORTUGAL                                     20500
A0101411790518055764286CUNANAN, ASIA MARGARET ASUNCION                          0501
A0101411790518055764346MOJICA, CHRISTIAN NAPTALIE                              10501
A0101411790518055764346PARRA                                                   20500
B0101412050000007801530COOLAIRE CONSOLIDATED INCORPORATED                       1605
A0101412050000008837141SANTOS, ROMMELITO DE JOSE DBU                           10501
A0101412050000008837141ROMSANAIRE TRADING                                      20500
B0101403450521011599001**********                                               1605
B0101403450000000135635PHILIPPINE TRADE CENTER, INC.                            1606
A2201400250000009019858RTCO ARCHITECTURE                                        0503
A0101407720000004665009TOLENTINO JR., ROMEO BARRETO                             0502
B0101407720602031597001A.F. NAVARRETE AND PARTNERS CO.                          1601
A0101407720602165957002POSADAS, MARIA BELEN A. OR                              10505
A0101407720602165957002POSADAS, VICENTE                                        20500
A0101407720602250756002TIGULLO, EILEEN MONTERO                                  0501
A0101407720602381785001GUZMAN JR., PATRICIO BALA                                0502
A0101407720000003886922BALDIVIA, KATHLEEN HOCSON                                0501
A0101407720602455481001PANDATO, ROBIN CRUZ                                      0501
B0101412180000001293083CAPTIVEIGHT INC.                                         1605
B0101412180000008320089RONNIE AND JOE RETAIL CONCEPTS INC.                      1604
A0101409920000001951982MEMBERS OF NATASHA (SHOECAT INC                         10501
A0101409920000001951982TORRELIZA, GINA                                         20500
A0101407690000000243810PAGUIO, ANA CARDENAS                                     0502
A0101411530000000581453**********                                               0501
A0101414120000007655254ZHUANG, JUNMIN OR                                       10502
A0101414120000007655254DE JESUS, WILTON                                        20500
A0101414120000000875652PABLITO OR RONALD JOHN OR                               10503
A0101414120000000875652PRINCESS JOY OR                                         20500
A0101406590662208118001CYNTHIA OR CHERYL MYLA ARCINUE                           0501
A1301400340000000100330LAPENA, RAYMOND RANDALL CERTEZA                          0501
A1301400340683764616001DAZO, CHASTITY AILEEN CALONZO                            0501
A1301400500000011254429REYES, REYNA ANN CASTRO                                  0503
A1301400500000002064017FLORES, DELIA RICA MALLABO                               0501
A1301400500000000213163NORVY G. MARCELINO OR GILLYN                            10505
A1301400500000000213163D. MARCELINO                                            20500
B0101408240000010815120BEYOND YOGA ALABANG INC.                                 1605
A4101400260000006043301NICOLAS, LALAINE MADLANGBAYAN                            0502
A4101400260812719668001MATEO, MARIA TERESA FAJARDO                             10501
A4101400260812719668001OR MATEO, RONALD                                        20500
A4101400390000007459450GENALYN N. PABUA DBU                                    10502
A4101400390000007459450CUTIE RIBBON CAKE SHOP                                  20500
B4101400420814034500001PRODLINE ENTERPRISES COMPANY                             1603
A0101412340000004869816BERNADETTE S. HIDALGO                                    0502
A0101404840851317230009GINA A. ARROYO                                           0501
A0101404840851481664005ROWENA A DE LIMA                                         0501
A0101404840851481664033MICHELLE C TICZON                                        0502
A0101404840851520766073ELIZABETH A. SUAZO                                       0501
A0101406750000004642262LOBO, THELMA GLORIA                                      0501
B0101413860000000145275CON-PAC WAREHOUSING INCORPORATED                         1605
A0601400230000000990063**********                                               0508
A0601400230000002310150VILLEGAS, FRITZIE CABUSAO                                0501
