A1301400760000000007223GLENDA S. DACANAY                                        0501
A0301400790000000040859PILAY, ROMANITO BELACHO                                  0501
A0101409890000000049067VIRGINIA SY JAO                                          0501
A2801400230000000063221CARBALLO, LUDIVINA LOPEZ                                 0501
A1001400190000000124632ARLIGUE, RACSIEL C                                       0501
A0301400820000000132527DAGADAS, CONCORDIA A.                                    0501
A0101411790000000134125********                                                 0501
A2801400100000000188283PAJELA, JOHNNY DBU JOHN GRAPHIC                          0502
A0201401020000000470193LOUIE PENA'S TRAVEL TOURS & EVE                          0502
A0101406330000000683352PETIL, GASPAR WACAL                                      0501
A0101411080000000805710*****                                                    0502
A0101400150000000807870YUSON JR., EDGAR JUAREZ                                  0501
A0101412050000000890739TORRES, SHERWIN RAMOS                                    0501
A1001400350000000922025CAPUNONG, MARJUN GRAN                                    0501
A0101413310000001073494CORONA, JENNIFER RAMIREZ                                 0501
A0101403610000001174903LIZARDA, MICHELLE CASACOP                                0505
A0101408530000001268424SOCORRO S. ALVIAR                                        0501
A0101408530000001268560GUILBERT P. SAMPEDRO                                     0502
A0101411950000001272953********                                                 0501
A0101411950000001272953********                                                 0501
A0101413440000001472873BANARES, EMILIA CHUA                                     0501
A0101406750000001491830FORTIFAES, CHARISSE ANNE CARITO                          0501
A0101403450000001638002WYNNIE S. FABABIER CUSTOMS BROK                          0501
A2401400180000001677045SALVACION, ROSEMARIE DOCTOLERO                           0501
A0101410140000001939739MEMBERS OF NATASHA (SHOECAT INC                          0501
A1301400500000002063838CANOZA, WILFREDO GARCIA                                  0501
A0101408950000002255307BERTOSO, SHEILA ESPINA                                   0501
A0101400150000003352372FAJARDO, NHORMAN AUSTRIA                                 0510
A0101400150000003352383VELASQUEZ, CATHERINE  AMERICA                            0510
A0101400150000003352394VIRAY, KING LEAR JOAQUIN                                 0510
A0101400150061226470002RUFINO, ARMITA B.                                        0504
A0101400150061315349113********                                                 0501
A0101400150061564610150PARASO, ROMULUS                                          0501
A0101401090171196035001EDGARDO OR CECILIA ORLINA                                0502
A0101401090171598675001LADY ANN B. CUEVAS                                       0501
A1001400190231520766118AUSTRIA, MARY FILIPINA PINGGOY                           0502
A1301400470252478374030JERICA P. MATAMMU                                        0503
A0101401670271255010004PASCUAL, EMMANUEL DAVID                                  0501
A0101401670271289633003LIM, ROSARIO C.                                          0501
A0101401670271333076001BENJAMIN C. VICENTE                                      0501
A0101400570281191853002GREGORIO, JULIETA ORBISO                                 0501
A0101400570281493863001RAYMOND VINCENT P. JURILLA, M.D                          0501
A0101408820333158648001LQN GENERAL MERCHANDISE                                  0503
A0101408820333478374070ILUMINADA MELCHOR                                        0501
A0101408820333562140001ONG, ALANDALE CHUA                                       0501
A0101402510341199178001JAMES LORETO C. PISCOS                                   0502
A0101402510341433983007********                                                 0501
A0101402060351562812001DE LOS SANTOS, VICENTE REYES                             0501
A0101408370382433883001DR. RONALD AUGUSTINE O. CAMPOS                           0502
A0101408370382629554001JUMAWAN, JOHANNA BARGOLA                                 0501
A2401400180411606823002MONACILLO, MARICHU SABANDAL                              0501
A0101403030441239402002**********                                               0501
A0101403030441303194001**********                                               0505
A0101408110515349308006YOLANDA L. DUMARAOS                                      0501
A0101408530516615903018FORTES AVELINO                                           0502
A0101403450521238594001**********                                               0501
A0101403610531219308001ABANILLA, FRANCISCO APLASCA                              0510
A0101403610531302317002NORVIC D. SOLIDUM                                        0501
A0101403610531712013001LUMPAS, MARILYN DEL ROSARIO                              0501
A0101404130601492629001****************                                         0501
A0101407720602377521001CLAUDINE RAE L. JAVIER                                   0501
A0101407720602397271001OZAETA, MA. RAMONA PABLO                                 0501
A0101407720602398283001JOEL A. DE LA ROSA                                       0505
A0101407720602496503011KANDY KANE F. BORJA                                      0501
A0101407720602581738001DUCUSIN, MA. ANTONINA SUGUITAN                           0501
A0101404680651251562001ANGELITA S. DE VERA                                      0501
A0101404680651431081001MARICON P. BANGAYAN                                      0501
A0101404680651460108001ROBERTO B. ACUNA                                         0501
A0101404680651520766081ELIZABETH I. BELARDO                                     0501
A0101404680651520766135JULIET S. MANZOLIM                                       0503
A0101404680651520766194SUZETTE T. BLANCAVER                                     0501
A0101404680651750326001PERLA P. DOLOR                                           0502
A0101413440655055446001QFOUR-KONSTRUKT BUILDERS                                 0501
A1301400210682708273001EUGLENA P DELOS SANTOS                                   0502
A4101400420814520766106TORINO, MELIZA                                           0501
A0101404840851329120001XXXXXXXXXXXXXX                                           0502
A0101404840851518304001DOLENDO, AYMON CARL SORTIGOSA                            0502
A0101406750852181065001MARICAR V. PANGILINAN                                    0502
A0101406750852182713001CATALYST MEDICAL SUPPLY                                  0504
A1601400170000000421190JOHN F. TORROCHA OR                                     10501
A0101412500000001146963SANTOS, GERALD J. OR BALILO,                            10502
A0101412890000003352230RODRIGUEZ JR., TEODORO CRUZ                             10501
A0101400150061226989001EDUARDO E. CAEG OR                                      10501
A0101400150061469189001FERNANDEZ JR., PEREGRINO                                10501
A0101401090171195633002ESTRELLITA RUIZ OR                                      10501
A0101401090171196128001DRS. ROLANDO CABATU OR                                  10502
A3001400130230733226001DAVID, FRANCISCO P. OR DAVID, D                         10503
A0101406620273490354001SAN PEDRO, JAMES DARRELL P. OR                          10501
A0101402060351734699002RAMNANI, MICHAEL CHRISTOPHER OR                         10502
A0101402770391473263001LEONARDO, DANILO OR                                     10501
A0101408950396047389001MELROSHEAN CONSTRUCTION                                 10502
A0501400170481536304001BANEZ, CORAZON M. OR                                    10501
A0101403610531581656001RECASATA, MARIA CATHLEA T. OR                           10501
A0101404680651168769002DOMINGUEZ, EVELYN OR DOMINGUEZ,                         10502
A1301400500684611370001STA. JUANA, ELENA L. OR                                 10501
A0601400230891738531001CHUA, MARK ANTHONY GARCHITORENA                         10502
A1601400170000000421190ROCHELLE A. TORROCHA                                    20500
A0101412500000001146963VICTOR M.                                               20500
A0101412890000003352230OR RODRIGUEZ, LEONILA                                   20500
A0101400150061226989001BESSIE C. CAEG                                          20500
A0101400150061469189001OR FERNANDEZ, JO                                        20500
A0101401090171195633002FREDERICK RUIZ                                          20500
A0101401090171196128001MARCELLA RUIZ-CABATU                                    20500
A3001400130230733226001ANILO C. OR ENTONA, JOCEL                               20500
A0101406620273490354001SAN PEDRO, MA. C                                        20500
A0101402060351734699002RAMNANI, ASHOK                                          20500
A0101402770391473263001LEONARDO, MA. CONCHITA                                  20500
A0101408950396047389001CORPORATION                                             20500
A0501400170481536304001BANEZ, MARCO PAO                                        20500
A0101403610531581656001TROZADO, FELICIDAD                                      20500
A0101404680651168769002LOURDES TRINIDAD                                        20500
A1301400500684611370001STA. JUANA, FATIMA                                      20500
A0601400230891738531001TAYAO, GILBERT A                                        20500
B0601400100000000032806BLU BLAZE GAZ HAUS                                       1604
B0101407430000000035383METCHEM BUSINESS SOLUTIONS, INC.                         1603
B0101404680000000095710MVG HARDWARE                                             1601
B0601400520000000398512PAGASA PHILIPPINES LENDING COMPANY, INC.                 1606
B1601400170000000497041ROOTWORX, INC.                                           1601
B0101400150000000633390AVIZE INC.                                               1602
B0101413020000001175393***************                                          1601
B0101400730000001216379THE PREMIERE INSURANCE & SURETY CORP.                    1603
B0101400150000001708516BUGLAS AGRI-VENTURES, INC.                               1601
B0101401670271007375003MULTI-FOLD LINKS, INC.                                   1605
B0101401670271038514001DWIGHTSTEEL BUILDING SYSTEMS INC.                        1603
B0101401670271477778001VIRTUSIO PR INTERNATIONAL, INC.                          1601
B0101401670271684108001UP ABOVE THE SKYE, INC.                                  1605
B0101406620273007454005GLOBE ASIATIQUE REALTY HOLDINGS CORP.                    1605
B0101408660274035400001DAXIE RESTAURANT                                         1601
B0101411820277048022001FORGEMS MARKETING COMPANY, INC.                          1605
B0101402510341055539001AIO FX TRADE INC.                                        1601
B0101402060351019160001COMPOSITE MATERIALS, INC.                                1605
B0101402640361006186001HOLY CROSS FREE WORKERS UNION                            1601
B0101408790383021087001OCEAN TANKERS CORPORATION                                1605
B0101402770391009312001CAPITAL GARMENT CORPORATION                              1602
B0101402770391009325001SAKURAI PHILIPPINES CORP.                                1603
B0101405490392598457001FORBES DENTAL PROSTHETICS INC.                           1603
B5501400120410041377001PEOPLE'S GENERAL MERCHANDISE                             1605
B0101406330472020438001DAROMAR DEVELOPMENT CORP.                                1605
B0101403610531706312001MEDCARE HEALTHLINE INC.                                  1601
B0101404000551036631002TECHNICAL INSURANCE BROKERS, INC                         1601
B1301400210682016750001JFL AGRI VENTURE SUPPLIES                                1605
B1301400210682040563001ACTISERVE CORP.                                          1606
B3801400170000000018777ANTONIO CATIBOG II OR ZENAIDA CATIBOG OR                11605
B3001400130000001261250BAUTISTA III, ISIDORO TRANI OR BAUTISTA                 11606
B0201400760374042294001MANDAUE CEBU MARINE PRODUCTS                            11605
B3801400170000000018777HAZELYN ACEDERA                                         21600
B3001400130000001261250CHYRL TAN                                               21600
B0201400760374042294001CORPORATION                                             21600
B3101400320222821100608**********                                               2002
B0101413990657821100608**********                                               2001
