A0101409180000004409790SARMIENTO, KRISTINE MADRIGAL                             0501
A0301400950000002115413CUNANAN, ELEANOR G. DBU EB                              10504
A0301400950000002115413MARKETING SERVIC                                        20500
B0301400660194046002088GARDEN BY THE BAY CORPORATION                            1603
A0301400660194304371001*****                                                    0510
B0101405650000004410039MIDNIGHTHOOCH INCORPORATED                               1602
A0101409180000003310221HERNANDEZ, RAFAEL ANTONIO E. OR                         10502
A0101409180000003310221HERNANDEZ, MARIA ELENA C.                               20500
A0101400860011375890001*                                                        0501
B0101411370000000017945ST.THERESE OF THE CHILD JESUS INSTITUTE                 11601
B0101411370000000017945OF ARTS&SCIENCES                                        21600
B0101400150000000052731UNICAPITAL FINANCE AND INVESTMENTS                       1605
A0101400150061227075001ORLANDO S. MERCADO                                       0501
A0101400150061315349055DENNIS JOY EJERCITO                                      0501
A0101400150061632464002ANGELES, TERESITO AND LADEZA,                           10502
A0101400150061632464002AMON AND DAGDAYA                                        20500
B0101405810000000016811SK PLASTIC RELIANCE COMPANY                              1603
A0101405810072383141002WANG, CIHAI                                              0502
A0601400520000003187364ZAPATA, ANACURITA DIZON                                  0503
A0101410560000005280688ELIZA N. ADIAO                                           0502
A0101410560000001944141VALERIANO, EMALYN ESTREMOS                               0501
A0101401960121238669001**********                                               0501
B0101412630132047756001MAJOR PROPERTIES, INC.                                   1605
B0101401830000000033649CARITAS SALVE CREDIT COOPERATIVE-                       11603
B0101401830000000033649PASAY (009)                                             21600
B7201400170000003773615JAVAVED DEVELOPMENT CORPORATION                          1602
A0101412920000000042053MARISTELA, BRYAN PEREZ                                   0501
B0101412920160062124001ASH LETRATO INC                                          1601
A0101400440000001440044ESTABILLO, ESTELITA CARPIO                               0501
A0101407270162333154010ANTONIO C. CONTRERAS                                     0505
A0101407270162523576001YEKATERINA A. AGUILON                                    0501
B0101401090171036680001DIGESTIVE DISEASE RESEARCH GROUP INC.                    1601
B0301400530193551574001********                                                 1605
A0301400950000005707080*************                                            0501
A0101412500000007564567NG, PATRICK DEL ROSARIO                                  0501
B0101412500000000739748HI-END DATA I.T. SERVICES INC.                           1601
B0101413600000002822671AUNICAJ INTERNATIONAL TRADING                           11602
B0101413600000002822671CORPORATION                                             21600
A3001400130000006145228DEDICATORIA, ROMEO DBU LCM MARK                          0510
A3001400130000001271670EMPISTO, GENAH JUMAWAN                                   0501
B1001400190231015575001*****                                                    1602
B1001400190231282055001PIOUS SOCIETY OF THE DAUGHTERS OF                       11602
B1001400190231282055001ST PAUL                                                 21600
A1001400190000002266662MARY JOY S. MASTAIL                                      0501
A1001400350233272028001MAANDIG, ERLINDA B. OR                                  10503
A1001400350233272028001MAANDIG, CARLSTO                                        20500
A1301400470000001299009NIDA S. AQUINO                                           0501
A1301400760000000007303*****                                                    0501
B1301400760000000050871ENCORE LEASING & FINANCE CORP.                           1602
A0101406620000003661534VALERIANO, MA. TARA ANDREA P.                            0502
B0101406620273009619001FILMAL REALTY CORPORATION                                1605
B0101406620000003497176EMERGING POWER INC.                                      1603
A0101406620273216852001TRILLANA, NOEL TONOGBANUA                                0502
A0101406620273403813001VITENO, VERALYN DAE SAGISI                               0501
A0101406620000003661578TAN, APRIL LYNN LEE                                      0501
B0101406620273692749001EAS GROUP ASIA INC                                       1605
B0101411820000000477452HENRY & SONS TRADING AND MANUFACTURING                  11605
B0101411820000000477452COMPANY INC.                                            21600
A0101400570281442779001DR. SANDEE G. GO                                         0501
B0501400200292037748001FIRST EMA WEST CREDIT CORPORATION                        1605
A2601400270302264756001EDDIE T. RIVER0 OR                                      10501
A2601400270302264756001HENRIETTA U. RIVERO                                     20500
A1101400120000003981157CASIO, GIL POTESTAD DBU GIL                             10502
A1101400120000003981157LUMBER DEALER                                           20500
B6601400120314043609001FUNDACION GRAMEEN PILIPINAS INC.                         1605
A6601400120314613974002UY, CESAR LIM                                            0502
B0101402350321037708001RD CASH PADALA, INC. - PARANAQUE                         1601
A0101402350321179521001FELLIZAR, CESAR OR EMILIA OR                            10504
A0101402350321179521001ABUDA, MICHELE                                          20500
B0101405650322016488003CALOOCAN BEARING AND PARTS CORP.                         1610
A0101405650322478374002MAVIS W. PAREJA                                          0502
A0101402510341527509001ROWEL E. ANTONIO                                         0502
A0101409050000003536598FLORENTO, NHYKIE L.                                      0501
A0101409050000001353202REFORMADO, ROLANDO RAMIREZ                               0502
B0101409050352043844001COLLEGE OF ARTS & SCIENCES OF ASIA & THE                11603
B0101409050352043844001PACIFIC - TAYTAY                                        21600
A0101409050352645570003MYRNA P. CUASAY                                          0501
A0201400760000003598790BARTOLATA, CHERREY MAE PANCHO                            0501
B0201400760374032173001MARIANO & SONS MARKETING, INC.                           1605
B0201400760374046327001PELAYO, R. DBU TOTO ENTERPRISES                         11605
B0201400760374046327001COMMODITIES                                             21600
A0201400760374520766001CARULASAN, KRIZIA JANE BUGO                              0501
A0201400760374625336002REYES, BAYANI CARLOS OR REYES,                          10502
A0201400760374625336002VIRGINIA ALMEDA                                         20500
A0201400920375478374008OLELA, DONATILLA OMELGO                                  0501
B0101402930381009648001CHRIST'S COMMISSION FOUNDATION, INC.                     1620
A0101408370000005220142******                                                   0501
A0101408370382397306001DR.JOEL PATRICK A. ALDANA                                0503
A0101408370382407313001DR. JOHN P. QUEROL                                       0504
A0101408370382443668002DR. MICHAEL C. SAN FELIPE OR                            10504
A0101408370382443668002IRENE G. SAN FELIPE                                     20500
A0101408370382502182001CHRISTOPHER OLIVER NAZAL OR                             10501
A0101408370382502182001MARILES HERNANDEZ-NAZAL                                 20500
A0101411660000000489334CANUEL, ANTHONY DEXTER BAYLON                            0501
A0101411660000005323922********                                                 0501
B0101411660000000751553SOUTHDRIVE HOMES, INC.                                   1601
A0101402770391287062001AYSON, CONSELITA DALUPANG                                0501
A0101405490000005210193DEL ROSARIO, EDGARDO CRUZ                                0501
A0101405490000002880540MABALE, FRESVIE DBU JCB IND'L                           10501
A0101405490000002880540SALES                                                   20500
A0101405490000000444313BENITO M. LOJO                                           0503
A0101408400000002273230PEREZ, LESLEY ANNE BATTAD                                0501
A0101408400394041759001BUILTLINE INTERIOR FINISHES AND                         10502
A0101408400394041759001CONSTRUCTION                                            20500
A0101408400394429602001MARIE CATHERINE M. ZALVIDEA                              0501
A0101409180000003310185VIZMONTE, FRANCINE NELANIE PARE                          0501
A0101409210000003297541RECHELLE BERGONIA                                        0501
A2401400180411478374059ANALITA R. SUICO                                         0502
B1201400150000005357906COST OF MONEY LENDING CORPORATION                        1605
A0901400220000000425249RL TRADING                                               0503
A0101403030441239106001**********                                               0501
A0101410140000000499407EDORIA, MLE VALVE ENTERPRISE                             0504
A1401400110000000628535PERHIRIN, KEY ANN PORNELDA                               0501
A0701400260495062082001ABAD, MARIVIC DBU JIRAH RAPHA                           10501
A0701400260495062082001ENTERPRISES                                             20500
B0101403580511016689001ALASKA MILK CORPORATION                                  1603
A0101403580511152926001MARIO T. MANANGHAYA OR                                  10503
A0101403580511152926001REMEDIOS C. MANANGHAYA                                  20500
A0101403580511499197001ALEXANDER ROQUE                                          0501
A0101408530516571877097JESUS R. LICUANAN                                        0501
A0101408530000000489783ABO JR., WILFRED JULIUS                                  0502
A0101408530000001885801MARIE VELVET L. MACASAET                                 0501
A0101411400517061946001MANUEL,CHESTER KEITH EMMANUEL G                         10502
A0101411400517061946001DBU MANUEL'S TRADING                                    20500
B0101412050000001499921INWANGSAN CORP.                                          1602
B0101403450521011670001**********                                               1602
B0101403450000002975677SAFEWAY CUSTOMS BROKERAGE, INC.                          1605
B0101403450521036992001********                                                 1601
A0101403450521649009001*************                                            0501
A0101403610531712013001LUMPAS, MARILYN DEL ROSARIO                              0501
A0101404000000004486131MARITES A OLARTE                                         0501
B0101404000000000461107BASIC BNBI SOLUTIONS INC.                                1601
B0101404130000005017674IPRUDENTIAL STEVEDORING AND PORT                        11605
B0101404130000005017674SERVICES INC                                            21600
B0101407720602019823001MAKATI MED. CTR. FAMILY                                 11602
B0101407720602019823001CREDIT COOP                                             21600
A0101407720602349929002**********                                               0502
B0101412180000001293016JENNIEDEDIOS INC.                                        1603
B0101404260611018794002HAVEN MONTESSORI, INC.                                   1601
B0101404260611042763001ACJEM INDUSTRIAL MANPOWER & GEN.                        11604
B0101404260611042763001SERVICES, INC.                                          21600
B0101404260000004781255BESMONTE, A DBU A.B. BESMONTE DENTAL CLI                 1602
A0101409920650779998001PACTOL, JACKYLYN CADA                                    0501
A0101411530000002260340**********                                               0501
A0101413570000002976141JENNIFER A. SANTIAGO                                     0501
B0101406590662036200001SAMUEL T. AGUSTIN II CONSTRUCTION                        1603
B0101410300663062094002SPHEROID DYNAMIC BUILDERS INC.                           1601
A1301400210000005040522DELOS SANTOS, CAMILO STA MARIA                           0502
B1301400210682016750001JFL AGRI VENTURE SUPPLIES                                1606
A1301400500000002063805VENDIVIL, MA. TERESITA OCAMPO                            0501
A0101408240000000347551TAN, JUAN MIGUEL PAEZ                                    0501
A0101408240711228456002MA. VICTORIA MANIQUIS                                   10502
A0101408240711228456002OR STEVE MANIQUIS                                       20500
A0101408240711487311001RACHO, DESIDERIO OR TRANQUILINA                         10502
A0101408240711487311001OR ANNA OR ARTHUR                                       20500
A0101408240711572278001MARTIN, MA. LUISA NADULPIT                               0501
A0101408240711759891001BONTIA, NELIZA MARFA                                     0502
A0101412340000003342743CHRISTOPHER A. DURAN                                     0501
A0101412340000003343068ERNEST C. EUGENIO                                        0501
B0101412340000000030979GENNEX SOLUTIONS PHILS. INC.                             1603
B0101412340000000030980ACTON TECHNOPHILS INC.                                   1603
A0101404840851520766155JOSEFINA VERGARA                                         0501
A0101406750000006303293NAVARRO, AILEEN SUNGA                                    0501
A0101405070000000741053ABESAMIS, JOSE GAUDENCIO                                 0504
A0601400230000005185935SANKEM TRADING                                           0510
B3101400580452821100608**********                                               2005