B0101408240711821100608**********                                               2010
A0101406620000014258410MARK JOAR V. VILLACENTINO                                0501
A0101400570281483695001ACOSTA, ALAN PE                                          0502
A3101400870000005565211VALERIO JR., E DBU WEBER                                10504
A3101400870000005565211FORWARDING SERVICES                                     20500
A0101400150000003164172ALVIN T. DIZER                                           0501
A0101414090000000648493*******************                                      0502
A0101400440000005393568DIMAANO, GUNDAWAY GRAVIDEZ                               0501
B0101410720000011310220ADVOCATE BRIDAL BOUTIQUE INC.                            1603
A0101408370000010833202OCAMPO, VANESSA RUMBAOA                                  0501
A0101408370382391120001DR. SALVADOR M. EUSTAQUIO                                0502
A0101408370000010833188BERNARDINO, RICCA MAE ROCO                               0502
A0101405490392341023001JAZMIN P. GONZALES                                       0501
A0101400860011463630001**********                                               0510
A0101400860000008319244**********                                               0502
A0101400150000016130624MALINAO II, MAURICIO .                                   0501
A0101400150000012350053IGNACIO, JOCYLYN ALVARADO                                0501
B0101400150061010834001CITY OFFICE EQUIPMENT, INC.                              1604
A0101400150061042974001NG, WILLIAM DBU WELLINGTON                              10501
A0101400150061042974001ENTERPRISES                                             20500
A0101400600000015973132********                                                 0501
B0101400600071684249001******                                                   1602
A0101405810072391337001MONZON, SHARON NGO                                       0550
A0601400100081382138001MANGUERRA JR., WILFREDO TORRES                           0510
A0101413730000002289518**************************                               0501
B0101413730000006042440**********                                               1605
A0101414090000008926996PEYRA, CRISTINA CHAVEZ                                   0502
A0101410850109053560002HERNANDEZ, JUNE JT DBU JUNE AND                         10502
A0101410850109053560002YVETTE TRUCKING                                         20500
A0101410560000003562070**********                                               0501
A0101410560000005280746CATHERINE N CAPALOS                                      0501
A0101400730000015674885UNSON JR., CRISPIN DE MESA                               0501
A0101400730111195439001TAN, ROWENA                                              0501
A0101401960121240760001**********                                               0501
A0101401960121311258001**********                                               0501
B0101401960121339004001**********                                               1601
A0101413310000015039773**********                                               0501
A0101413310000015397563ZAPANTA, REYNALDO QUIAMBAO                               0501
A7201400170000003774141VELAYO JR., ROSALIO OSORES                               0502
A0101412920000005354223COMPANERO, LORENETE ISLETA                               0501
B0101400440000016121598SAMONTE, RAY SAMUEL C AND SAMONTE, ROLAN                11601
B0101400440000016121598STEPHEN C                                               21600
A0101400440161358347001MA. ELSA T. APOSTOL                                      0502
A0101400440161478374175MARYLEN R. MORADA                                        0503
A0101400440161525001117CATHY B. DELA PAZ                                        0501
A0101400440161591337001JENESSEY A. RANCES OR                                   10502
A0101400440161591337001JESSIE O. RANCES                                        20500
A0101407270000003264986MAMMUAD, ROGELIO REPANI                                  0502
B0101401090000012181747JONATHAN H. DE JESUS AND MA. CARMELITA                  11602
B0101401090000012181747F. SANTOS                                               21600
B0101401090171027076001THOMASIAN MEDICINE CLASS 1981, INC.                      1601
A0101401090171195427002URSULA E. REGIO                                          0502
A0101401090171196095001ALBERTO WONCHAI OR                                      10502
A0101401090171196095001MILAGROS W. LIM                                         20500
A0301400530000011432841ENTIZE, MIKE WRIGHT ALMEDILLA                            0502
B0301400530000003573528RD PAWNSHOP, INC.                                        1605
B0301400660194044846088HLC CONSTRUCTION AND DEVELOPMENT CORP.                   1602
A0301400950000008000660PE BENITO, HAZEL ANN NERI                                0503
A0101401380000000682731SERENIO, ANNA MARIE RAGAS                                0501
B0101410720653481345001VERLIN KONSTRUKT INC.                                    1604
A0101410720000000211736GABRIEL, JOEL ORTIZ                                      0504
A0101412500000014031891RAMOS, JONATHAN EDMUN MAABA                             10501
A0101412500000014031891OR RAMOS, NORMA MAABA                                   20500
A0101412500000016137541SIRIBAN, ANTHONY ASCUTIA OR                             10501
A0101412500000016137541SIRIBAN, MAY MENDOZA                                    20500
B0101412500000014693504VILLANUEVA, MANSUETA EMPLEO DBU MANSVILL                11601
B0101412500000014693504ENTERPRISE                                              21600
A0101413600000012980491SHARON ROSE R. MORTEL                                    0502
A3101400450000011907561AVANZADO, GRACIA GUERRA                                  0502
A3101400870000016136479SABAN, GRACEL ANN SALANGSANG                             0501
A3001400130000008916321DEL ROSARIO, EDNA MANILENA CERV                          0502
A3001400130230045294001TABASA, RICKY CARPIANO                                   0502
A3001400130000008264813SALUDES, GUILLERMA L.                                    0502
A3001400130000008264864CACAFRANCA, KARL RUSSEL INOCENC                         10501
A3001400130000008264864IO                                                      20500
B1001400190231024436002UMALAG FARMS INC.                                        1610
B1001400190231024436003UMALAG FARMS INC.                                        1610
A1001400190231380503007DRA. CYNTHIA BACONGA                                    10503
A1001400190231380503007PHILAMCARE DOCTO                                        20500
A1001400350000012928064TABASUARES JR, SEVERINO VELASCO                          0501
B1001400350233042688001SOLIDMARK, INC.                                          1605
A1001400480000006270782CHIU, HENRY LIM                                          0501
A0101401670271186236004TANG, CLARITA OR GLORIA LIM OR                          10502
A0101401670271186236004ROBERT/CAESAR SY                                        20500
B0101406620000009695403KDSJ PHARMA INC.                                         1601
B0101408660000001940610WESTMINN CONSTRUCTION AND DEVELOPMENT                   11602
B0101408660000001940610INC.                                                    21600
A0101411820000008442728JEMIMAH ADRIELLE DELA ROSA                               0502
B0101412470000002338923YANGCO TEXTILE CENTER INC.                               1601
A0101400570281507878001CHENG, FEDERICK CO                                       0502
A0101400570281519630001CARLOS, MARIA ARLENE DUMANDAN                            0502
B2601400270000007951166DJ OLIVIA'S GRAINS BUYING STATION AND                   11605
B2601400270000007951166GEN MDSE                                                21600
A1101400120000009119637GLOBA, ROSALIA ABRAHAM                                   0502
B1101400120000000652362YANG, ROSITA GO OR UY,TIA SHENG                         11602
B1101400120000000652362OR UY, JOSEPHINE                                        21600
A6601400120000000022339MOSCARE, LOURDES OPINION                                 0501
A6601400120314612855001SUNDAY LAVIN JR OR IRIANA LAVIN                          0505
A6601400120314612855001SUNDAY LAVIN JR OR IRIANA LAVIN                          0505
A6601400120000005710292CASTILLO, CANDELARIA MORALLOS                            0501
A2001400290000000978269UYMATIAO, CATHLEEN AMIL                                  0503
A2001400290000015748533ESTOCONING, JOCYLINE LINDAYAO                            0501
B2001400290000000020537LINK RI LOGISTICS INC.                                   1601
B0101402350321006984001INTEGRATED HYDRO-PNEUMATIC                              11610
B0101402350321006984001SYSTEMS INC.                                            21600
A0101409050000006319742CALUMPIANO, JORGE BALANG                                 0501
B0201400760374033207001W.T. CONSTRUCTION, INC.                                  1606
B0201400760374046327001PELAYO, R. DBU TOTO ENTERPRISES                         11605
B0201400760374046327001COMMODITIES                                             21600
B0201400920000006433616WERR CORPORATION INTERNATIONAL                           1601
A0201400890000012414003EAMIGUEL, WENDY LOU LANORIAS                             0501
B0201400890376004789001ECC FOREIGN LANGUAGE INSTITUTE OF THE                   11602
B0201400890376004789001PHILIPPINES INC.                                        21600
B0101402930000003734861POLICARPIO & ACORDA LAW OFFICE                           1601
B0101402930000003269390CONNECTICOM GLOBAL NETWORK INC.                          1605
A0101408370000000335631NANALE, MELYN PABUNA                                     0501
A0101408370382207153001MA. TERESITA Z. CABREIRA                                 0501
A0101408370382497608001DR. AZENETTE LACUNA-MENDOZA OR                          10502
A0101408370382497608001TRISTAN PHILIP MENDOZA                                  20500
A0101408370382527801002PHILIP LANCE ANTHONY A. LIU                              0501
A0101408790000000931037UYBOCO, EDELBERT CASTILLO OR                            10502
A0101408790000000931037UYBOCO, SHEILAH                                         20500
A0101408790000005251132DOLORITO, HERSHEY SAN DIEGO                              0501
B0101402770000001841043SMART CARD POS SOLUTIONS INC.                            1602
B0101405490392006286002LENDING INVESTORS NETWORK, INC.                          1602
B0101408400394032168001ALQUIROS FOOD CORPORATION                                1603
A5501400120000009875632ALOCADA, EDNA MIGUEL                                     0501
A2401400180000012748631SOTO, JAMIELOU BABATE                                    0502
A2401400180000015944519BALAZON, FREDDIE FERNANDEZ                               0502
B2401400180411783270088JSDR MARKETING - GEN. SANTOS BRANCH                      1604
A5101400100000010834012ABELANIO  DAFFODIL WYNNROSS NOT                          0501
A0101410140000001939984DELANTAR, DARMEL U. OR                                  10502
A0101410140000001939984SANTOS, JAIKA SO                                        20500
A0501400170481254469002OSCAR ARCINUE OR LUCIA DE VERA                           0505
A0501400170481480835001ONG, FRENZY CLAIRE FERRER                                0501
A3801400170000002302852NICA RAVEN A CHUA                                        0501
B3801400170490051151003MINDORO PPA EMPLOYEES MULTI-PURPOSE                     11601
B3801400170490051151003COOPERATIVE                                             21600
B1901400160491064503001J.A.M.C. MARKETING INC.                                  1603
A1401400110000015925718JOSEPH OR PAULITA OR JEFFREY                            10504
A1401400110000015925718OR JESSIE ALVAREZ                                       20500
A1401400110492788204001***************                                          0520
A0701400260000016114504SY, TERESITA LIM                                         0501
A0701400260000012724208TEVES, OMEGA CARIASO                                     0501
B0101407430000000044926JOSEPH BINGE B. MACASERO                                 1604
A0101405940000004476353YU, JENNY ANNE BOSALES                                   0501
A0101408530000000594183SADANG, MARK ROYCE REAMON                                0501
A0101408530516508072002TOMACRUZ, ANTHONY R. OR                                 10501
A0101408530516508072002TOMACRUZ, RICARDO                                       20500
A0101411790000004807990RAMOS, JANUARIO BERNARDO                                 0501
B0101411790000000005318REM BUILDERS CORPORATION                                 1602
A0101412050000005330643**********                                               0501
A0101403450000001638097**********                                               0501
A0101403610000016129390PEREZ, CHARMELAINE QUINTO                                0501
A0101403610531219563001LACDAN, PABLITO OR                                      10502
A0101403610531219563001LACDAN, ZENAIDA                                         20500
A0101403610531635037001SANTAMARIA, MENCHIE FAUSTO                               0501
A2201400250000013859055CRUZ, MARIZA COCHON                                      0501
A2201400250561396784002DR. VICTOR S. DE VILLA OR                               10502
A2201400250561396784002VANESSA GRACE M. DE VILLA                               20500
A2201400250561409662001JEFFERSON B. CASTRO                                      0501
B0101410690000001284395ALDANA, MA. ELENA M. DBU PANSOL TRADING                  1604
A0101404130000009533228JOHN CARLO R. VALENZUELA                                 0501
A0101407720000000112205VALERIE KRISTINE MARIE VILLEGAS                         10501
A0101407720000000112205SANTILLAN                                               20500
B0101407720602018196003BELO MEDICAL GROUP, INC.                                 1605
B0101407720000007951811PERFECT SKIN AND BEAUTY SOLUTIONS INC.                   1602
A0101407720602296819002MA. LOURDES G. GOZALI OR                                10503
A0101407720602296819002VICTOR K. GOZALI                                        20500
A0101407720602328663002********                                                 0502
A0101407720602397745001DE JESUS, CELESTINA MARCOJOS                             0502
B0101412180000000037983MGNP, INC.                                               1601
B0101412180000007360461ENLIFE GLOBAL INC.                                       1603
B0101412180000001293061CP OPTICS, INC.                                          1602
B0101412180000001293083CAPTIVEIGHT INC.                                         1602
A0101409890000016057380ATIENZA, LOURDES ABANTE                                  0501
A0101407690000016132813ORIAS, AURELIO NIMENZO                                   0501
A0101407690000012227171ENGUERRA JR., RUBEN ESPANO                               0502
A0101407690652020765001STARIAN MARKETING                                        0505
A0101407690000010166337SABIANO, JOLLY PENAFLORIDA                               0503
A0101413440000014550302LANGRIO, MARIA LUZONIA HABABAG                           0501
B0101413440000009697089OLEMAEA FOODS, CORP. DOING BUSINESS                      1602
A0101413990000000206066MARKVENT ENTERPRISES                                     0502
A1301400340000000926789SAHARA P SAMPIANO                                        0502
A1301400340683361105001DELA CRUZ, ESTER SANTIAGO                                0501
A1301400500684058869001YOUNG BUILDER'S TRADING                                  0502
A1301400500684762106001VICEO III, JAIME S.                                      0502
A1701400230693478374044CECILIA CORRALES                                         0501
A0101408240711384215002RHODA DELOS ANGELES                                      0501
A0101408240711384215003LOURDES GRACE MAPALAD                                    0501
A2801400100000005494259MANINGDING, ANALINE ACERO                                0502
B2801400230000005253623GLOBAL HOTEL & LEISURE PROPERTIES, INC.                  1605
A4101400260000015815013SABIAN, JENIFER-LYNN SIOSON                              0501
A4101400260000012872287ILEDAN, FREDERICK PAUL                                   0501
A4101400260000012883893SAN JOAQUIN, KHRISTINE DYANNE                            0501
A4101400260000012859515DAVID, RONALD                                            0501
B4101400390813012692002NIHON GARTER PHILS., INC.                                1610
A0101412340000000484782ABADIA, JONI LYN EVANO                                   0501
B0101404840851021512001STI COLLEGE ALABANG, INC.                                1603
A0101404840000004565953RODULFO, CLARIVEL M.                                     0501
A0601400230891471229001CRUZ, LOLITA CAMUS OR                                   10502
A0601400230891471229001CRUZ, DIVINELY CAMUS                                    20500
