B0101400730111821100608**********                                               2005
A0101400730000015204576JOSEPHINE ANN GO SEN OR JOSEFIN                         10502
A0101400730000015204576A GO SEN OR DANILE GO SEN                               20500
B0101400730000015204656ORONG, MARY ANN  DBU I.C.A INSURANCE AND                11605
B0101400730000015204656SURETY SERVICES                                         21600
A0101400730000011634785SAGANAY, MA. LOURDES TANTUAN                             0501
B1701400230000002762558STA. TERESITA HOSPITAL  (STH) INC.                       1601
A0101400860000008653367************                                             0502
A0101400860000010683297**********                                               0503
A0101400860000011515972**********                                               0503
B0101400860011400685002**********                                               1601
A0101400860011412003001**********                                               0505
A0101400860011775947001**********                                               0502
A0101401250000000057065VILLAS, ROGELIA L.                                       0501
A0101401250000013535321LOPEZ, LOVEWIN B.                                        0503
A0101411370000005524272MANCILLA, MERIAM ARGARIN                                 0501
A0101400150000003164014MAICYL B. DE GUZMAN                                      0502
A0101400150000002902718TOLENTINO, ROMEL TUCAY                                   0502
A0101400150000016744851ADACHI, AKIO NIL                                         0501
A0101400150000016117310NEPOMUCENO, RHANDIEVHER SANTOS                           0502
B0101405810072019239002ROYAL PINNACLE ESTATES CORP.                             1601
B0101405810072236261001**********                                               1602
A0101405810072381557004MATEO, ANALYN CASTILLO                                   0503
A0101405810072385132001***********                                              0503
A0601400100000010683884YOUNG, BENJAMIN EARL                                     0501
A0601400100081258225001NUQUI, ROLANDO OR ANITA                                  0502
A0601400360000000225250GUIAO, JEFFREY BONUS DBU J3A                            10520
A0601400360000000225250FOODLINE JT GUIAO, JOAN                                 20500
A0601400360000007539793SUAREZ, RAMON JOSE FLORES OR                            10501
A0601400360000007539793SUAREZ, GLORIA DE LEON                                  20500
A0101414090000011597592QUINTO, PAULO GABRIEL POJOL                              0502
B0101410560000008979366JVR PLACEMENT CO. INC.                                   1605
A0101400730000002882502ULOB, GUARDINO MARTINEZ                                  0502
B0101400730111035695001AFRO-ASIAN TRAVEL AND TOURS, INC.                        1602
B0101400730111201825001HEIRS OF CALIXTO CHIKIAMCO                               1601
A0101406040000008915551**********                                               0503
A0101406040112329333001LEO V. MORADA                                            0501
A0101413150000013434189***                                                      0501
A0101412630000002040471PANGCOGA, SAMSIAH MACARDI                                0503
A0101401830000013257659NAVARRO, MARILOU TABLATIN                                0501
A0101401830000011228925FARO, RUSSEL IRITAN                                      0502
B0101401830141019859001NIPPON WARE MANUFACTURING CORPORATION                    1606
A0101401830141429591001VENERACION M. PAGULAYAN                                  0502
A0101401830141486838001MARIA ISABEL P. LIMQUECO OR                             10501
A0101401830141486838001MA. MADELINE G.                                         20500
A5001400170000000044960CELESTINO A. VILLAFUERTE                                 0502
A0101401090000016746982AMBA, NEIL FRANCIS ADAP                                  0501
A0101401090171197840001DRS. PHILOMENA GABRIEL-LOPEZ                            10502
A0101401090171197840001OR ROLANDO LOPEZ                                        20500
A0301400530000001009943PANTUA, JERSON R.                                        0501
A0301400530000005001658UY, REY TAO                                              0502
A0301400530000015818570CELESTE, LESTHER CYRELL BALOGO                           0501
A0301400530000016646163HINGPIT, EUGENIA SOLIS DBU ST.                          10501
A0301400530000016646163EMISSION TESTING                                        20500
A0301400790000012274003PESPINAN, LORDEN SENO                                    0501
A0301400950000008868955JOSUE, ANA DBU TINTA AT PRINTA                          10503
A0301400950000008868955PRINTING SERVICE                                        20500
A0101410720000008730730******                                                   0501
A0101410720653694384001SAMBRANO II, SANTIAGO GARCIA                             0501
B3101400160221037479001TABLERIA LA CONFIANZA CO., INC.                          1601
A3101400450000016748717VERGARA, JOSHUA EMMANUEL RAYOS                           0501
A3101400740000016716633RIVERA, LEO ANGELO LAYACAN                               0501
A3101400740000014511707ARAGONES, JAY ROY GALANG                                 0501
A3101400740000006735879BALBOA, REYNALDO DBU GREAT HEAD                         10505
A3101400740000006735879BUILDING SYSTEM                                         20500
A3101400870000005565266GAMO, EMELSON PATAWE                                     0501
A1001400190000008743875OCERO, ALGENE ALEJAN OR                                 10502
A1001400190000008743875VALDEHUEZA, KENT                                        20500
A1001400190231520766024ALCOS, LIESIL SARIGUMBA                                  0501
A1901400290261193220001JOSEPHINE YU TAN                                         0501
A1901400290261298552066DOLORES SARMIENTO MANGUIAT                               0501
A0101401670271186344001MARLENE T. TOMACRUZ OR                                  10501
A0101401670271186344001MICHAEL JOSEPH T. HAIN                                  20500
B0101406460000001231781L'EPICERIE CORPORATION                                   1601
B0101406620273036393001REYES, REYES & RIVERA-LUMIBAO LAW                       11603
B0101406620273036393001OFFICES                                                 21600
B0101411820000013980613PGDV CONSTRUCTION AND DEVELOPMENT                       11601
B0101411820000013980613CORPORATION                                             21600
A0101400570000016611164CHUA, SHERWIN BRANDON ANG                                0501
A0101400570000015532733GENEBLAZA, LYDIA VILLARENA                               0502
A2601400270000016748455DOMINIQUE M. SALAS DBU DM SALAS                         10501
A2601400270000016748455GENERAL MERCHANDISE                                     20500
B0801400160000001289932RD PAWNSHOP, INC. - ILOILO NORTH                         1603
B1101400120000000652904COASTALVIEW FOODS CORPORATION                            1603
A1101400120000000652380CAYUBIT JR., SERAFIN ASERON                              0501
A3401400280000002323451PETE'S STOP TIRE                                        10502
A3401400280000002323451AND CAR CARE CENTER                                     20500
B3401400280000000002320MALLARE, B DBU B&E COMPUTER SALES &                     11601
B3401400280000000002320SERVICES                                                21600
A3401400280318086148002FLORENTINO, MIRALUNA LOYOLA                              0504
A0101402350000001474324MARTINEZ, KENNETH BUHAT                                  0502
B0101402350321031463001STATE ENTERPRISE                                         1610
B0101402510341014966001CEUFAWU-SOP                                              1602
A0101402060351295053001VINCENT ADRIAN H. ERMITA                                 0501
A0101409050000002971431CINCO, PATRICIA ISABELLE RIVERA                          0501
A0101409050000008491021BLAY, JOSEFINA LAURA PEREZ                               0501
A0101409050000014837831FENG, YANAN                                              0502
A0101409050352570678002DENNIS M. SILVA                                          0501
B0201400920375036322002PALMAS VERDES HOMEOWNERS ASSOCIATION                     1601
A0201400920375039398001QCS PHILS. - CONSULTANCY & TRAI                          0504
A0201400890376038937002ECB TRADING                                              0505
A0201401020000007935331TAN, DIOSCORA BUGAS                                      0502
A0101408370382436793001DR. ESTHER FREDELYN M. TOMAS                             0502
A0101408370382475326001DR. ALMIDA A. REODICA                                    0502
B0101408790383061003001CHEOMCHEORUM TOURS CORP.                                 1601
A0101402770000001275970LLORIN, JESUS ABITAN                                     0502
A0101402770000003488164NONATO, MA. VICTORIA CARABUENA                           0501
A0101408400000016732611MIRASOL, LARAINE LEIGH MARTINEZ                          0502
A0101408400000016732935DIONISIO, RHODORA HORCA                                  0501
A0101408400000016744548CANDAZA, ELDIE GARA                                     10501
A0101408400000016744548OR CANDAZA, EDGYN MERZO                                 20500
A0101408400394478374022CORNELIO, REY OR CORNELIO,                              10501
A0101408400394478374022ROSALIE                                                 20500
A0101408400394478374075VIOLETA I MANUEL                                         0501
A0101408400000001952770MERIAN B BUERE                                           0501
A0101408950000010507085REPORTOSO, CATHERINE CO                                  0501
A0101408950000016736277MAGUDDAYAO, CHERRY ANN DE ASIS                           0501
A0101408950000016739016MAGUDDAYAO, CRISTINE FAYE DE AS                          0501
A0301400820000001185780RUFEROS, ROY KENNETH OR                                 10501
A0301400820000001185780AREVALO, MICHELLE KAY                                   20500
B0301400820000010546335MEDICAL CENTER OF DIGOS COOPERATIVE                      1610
A5501400120410641408001GASCON, MERCEDITA TALAPIAN                               0505
B2401400180411042157088ERSONS BUY & SELL AGRI-PRODUCTS                          1610
A2401400180411275790003MALCAMPO, DIOSIE AGUIRRE                                 0503
A2401400180411514423001DEALA, BERNARDITA GATCHALIAN                             0503
A1201400150000000473205OBILLO, CORAZON AVILA                                    0501
A5101400100000010371110AYCO, ENRIQUE DABIONA                                    0502
A5101400100000010371381SOMBILON, HILLY GOMEZ                                    0501
A5101400100000010371096DESIERTO, ODELIO P DBU BUTCHAY                          10501
A5101400100000010371096TRUCKING SERVICE                                        20500
A0101403320000001646880*********                                                0501
A0101406330000016160600SANTOS, LUIS ROBERTO SOTELO                              0501
A3801400170000015547585AGUIRRE, JOHN CARLO MARASIGAN                           10501
A3801400170000015547585OR BOBIS, MARBE                                         20500
A3801400170000011559847DELA CRUZ, ENRIQUE RUIZ                                  0501
A1901400160491635678001MARIVIC ATIENZA CANTES                                   0501
A1401400110000015361976BON, JOANNA JOY ASINAS                                   0501
A1401400110000016228307MERLE, EDUARDO MONFERO                                   0501
A0701400260000013603720MALLARI, MARIA ELEANOR DE LA CR                          0501
A0101407430000006028002PENARANDA, LARRY LLAVE DBU HIGH                          0503
B0101407430503006808001FAIR TRAVEL AND TOURS CORP.                              1606
B0101403580511017534001SAN LORENZO VILLAGE ASSOCIATION                          1605
B0101403580000007864302FRAZI ROYAL TRADING CORP.                                1602
A0101403580511153109001ARTHUR P. ISRAEL                                         0503
A0101405940000005067790MARK LESTER SY SUAN CHING                                0501
A0101405940000005068213JOCELYN C. CO                                            0501
B0101405940000000002780MEGAHARVEST, INC.                                        1602
B0101405940000000886740IMMERSIVE MEDIA, INC.                                    1605
B0101405940000008479030MY ONE BAHAY CORPORATION                                 1602
A0101405940512364010002ANGUSTIA S BARRIENTOS                                    0502
A0101405940512368428001*****                                                    0502
A0101408530000016743250CIPRIANO, MANUELITO RAYMUNDO                             0501
A0101408530000016743403DE LUNA, JAMES RUSSELL PANOPIO                           0501
A0101408530000016743534GERONIMO, JASMINE CYRILLE PONTI                          0501
A0101408530000016743512AUSTRIA, MARY MELODY DE ROJA                             0501
A0101408530000016745154ESTALILLA JR., ALIENTO COLL                              0501
A0101408530000016745187TEODORO, MELODY WILLIAMSON                               0501
A0101408530000016741390ABELGAS, JHONA AVELLANO                                  0501
A0101408530000016743589CASTRODES, JANETH SANCHEZ                                0501
A0101408530000016741663SALVO, ASHTON JUNE BAP ROCA                              0501
A0101408530000016741696SAN MIGUEL, CHRISTINE ABARRA                             0501
A0101408530000016741721TORRES, JUDE DERICK CHICO                                0501
A0101408530000005029163CUYOS, DENISE DEANNE DUMANDAN                            0501
A0101412050000014386979SALVADOR, MARIA CHRISTINE I. OR                         10502
A0101412050000014386979SALVADOR, EMERSO                                        20500
B0101403450521012056001**********                                               1601
A0101403450521041400001**********                                               0502
B0101403450000008380821*************                                            1602
A0101403450521238152001**********                                               0502
A0101403450521238152002**********                                               0506
A0101403450521238152003**********                                               0502
A0101403450521241204001**********                                               0502
A0101403450521386450001Chua, Carlos or Chua, Lily or                           10501
A0101403450521386450001Chua, Charles or Yu,                                    20500
A0101403610000016362555ALDEA, SARAH JANE TUMAQUIP                               0502
B0101403610531014741001DOMFERRER DESIGNS, INC.                                  1604
B0101403610531029119001RECOLETOS MULTISALES AND SERVICES                       11602
B0101403610531029119001INC.                                                    21600
A0101403610531478374002GRAPE, IMELDA HANDOG                                     0501
B0101407720602005968001MEDICAL PLAZA MAKATI CONDOMINIUM                        11610
B0101407720602005968001CORPORATION                                             21600
A0101407720602398224001CUSTODIO, DEOGRACIAS BANABAN                            10501
A0101407720602398224001OR CUSTODIO, ELEANOR                                    20500
B0101412180000012033877DIGITALCLICK, INC.                                       1602
A0101412180603046057001GDMATIENZO TRANSPORT SERVICES                            0502
B0101412180000008320089WELCOME WORLDWIDE INC.                                   1603
A0101404260611478374077LUCIA CAPILITAN                                          0502
A0101404260611491958001******                                                   0501
A0101409890000011486463MAGTUBO JR, GARLITO DE JUAN                              0502
A0101409920000010528760Medseven Drug Marketing                                  0501
A0101409920000007304787***********                                              0502
A0101413440000006680880GUPANA, PAUL MARINO REYES                                0501
A0101413570000000206282JESUS CABITAC                                            0501
A0101413570000013876003JJ-KING MARKETING                                        0502
A0101413990000016573952SICAT, GABRIEL JACA                                      0501
A0101410300663238188001SHARE, JACK TAKYAM S. OR SHARE,                         10501
A0101410300663238188001JACQUELINE S.                                           20500
B1301400210682012854002BULACAN PUBLIC SCHOOL TEACHERS MULTI-                   11605
B1301400210682012854002PURPOSE COOP INC                                        21600
A1301400500000016062423MARANION, KRISTINE DE GUZMAN                             0501
A1301400500000012913456ESCOBIDO, GWENDOLYN S. DBU                              10502
A1301400500000012913456SGDM CONSTRUCTION SUPPLY                                20500
A0101408240000015858841MACASAET, MARIA MONICA ANNE FRU                          0506
A0101408240000008160172SALAZAR, L DBU CIANZAR                                  10502
A0101408240000008160172TRANSPORT SERVIC                                        20500
A0101408240711228456002MA. VICTORIA MANIQUIS                                   10502
A0101408240711228456002OR STEVE MANIQUIS                                       20500
A0101408240000002822062TY, ANNETTE SO                                           0502
A0101408240711396576001CAGANDA, JEANZIE LEE                                     0501
A2801400100000015478187SUNGA, NANCY REYES                                       0503
A4101400260000012871120GABRIEL, JOYCE PADAOAN                                   0501
A4101400420000012882958SARIA, LESTER CAMILON                                    0501
A4101400420814520766061ESTILLERO, SUSANA O.                                     0501
A4101400550000000315182MARGAJA, FELICITA BITOR                                  0502
A4101400550000010508642PAMINTUAN, LUALHATI MENDOZA                              0501
A0101404840000000683585ROXANNE P. AGUILLON                                      0501
A0101404840851520766155JOSEFINA VERGARA                                         0501
A0101404840851532839001CAJEDA, ARLENE OROSA                                     0502
A0101405070000010298423ANTONIO C. TAN DBU ANTONIO TAN                          10501
A0101405070000010298423TRADING                                                 20500
A0101405070000014045331ANTONIO C. TAN DBU GOLDEN STONE                         10501
A0101405070000014045331ELECTRONICS MANUFACTURING                               20500
A0101405070861478374066ELMER LADRES APAS                                        0501
A0601400230000014299659MUNOZ, MYLIN SANTOS                                      0501
A0601400230000005510150SANGA, WILBERT QUIAMBAO                                  0501
B0601400230891040165001FEDERATION OF PAMPANGA HIGH SCHOOL                       1602
