B0101412890000003727844SULHEN & TJJ CORPORATION                                 1602
A0101412890000001765682MARIA ROSELLE M SANTOS                                   0501
A0101412890000001056360AMIDO, NORMA GUEVARA                                     0502
A0101412340000001017769LUZARAN, FERNANDO DELA TORRE OR                         10501
A0101412340000001017769LUZARAN, CERIZA DELA CRUZ                               20500
A0101400860000002333488**********                                               0501
B0101400860011242516001*********                                                1604
A0101400860011395625002**********                                               0502
A0101400860011397246002**********                                               0503
A0101400860011496074002**********                                               0501
A0101400150000004090464ESCALER, NOEL DE LEON OR                                10504
A0101400150000004090464GERARD ESCALER                                          20500
A0101400150061055752060COMIA, RITCHIE ESTACIO                                   0505
A0101400150061530970002PANGHULAN, REX ANGELO QUILAO                             0502
A0101400600071233721001**********                                               0502
A0601400100000000142065CALDERON, RAYMUND QUAN OR                               10501
A0601400100000000142065CALDERON, RIZA P                                        20500
B0601400100000000032782BARANGAY CUTCUT MULTIPURPOSE COOPER                      1601
A0601400100081297885001FINA, SALVATORE OR ELVIRA                                0501
A0101410850000000778736GAPUZ, JAMES RAMOS OR                                   10501
A0101410850000000778736GAPUZ, MARIA TERESA B.                                  20500
A0101410850000002356830OPANO, ANNE  DBU RICHWIN                                10503
A0101410850000002356830TRADING ENTERPRISES                                     20500
A0101400730000000833192GLEN T. NIOKO                                            0502
A0101413150000001288342******                                                   0502
A0101412630000004062086BANZUELA, ELEANOR ADORNA                                 0502
A0101413310000001073869BARRETTO, DARWIN MANDAC OR                              10502
A0101413310000001073869PIMENTEL, AIZELL MERCADO                                20500
B0101401830000000033570CARITAS SALVE CREDIT COOPERATIVE                        11604
B0101401830000000033570(MALABON)002                                            21600
A0101401830141318371002COMIA, RICHARD FERNANDEZ OR                             10501
A0101401830141318371002COMIA, RICHELLE MAURICIO                                20500
B0101400440000005393717RD PAWNSHOP, INCORPORATED                                1603
A0101400440161039572023JIMMY S. PALISOC                                         0501
A0101400440161298552121MILMA M. QUIAMBAO                                        0501
A0101400440161444616001ELMA B. BADILLES                                         0501
A0101400440161520766031EDITHA FELARCA                                           0501
A0101400440161525001033MARY JANE V. MACALINAO                                   0501
A0101400440161525001117CATHY B. DELA PAZ                                        0501
A0101400440161525001139JEMARIE S. SALUDAR                                       0501
A0101407270000000043541OINEZA, JENNIFER URBANO                                  0501
A0101407270000002334812MARLON M. CRUZ                                           0504
B0101407270162028688001KAISA CONSULTING COMPANY, INC.                           1608
B0101407270162031529001CENTER INDUSTRIAL SUPPLY CORPORATION                     1601
B0101407270162046726001VALUE CARE HEALTH SYSTEMS, INC.                          1650
B0101407270162046726001VALUE CARE HEALTH SYSTEMS, INC.                          1650
B0101407270162046726001VALUE CARE HEALTH SYSTEMS, INC.                          1650
B0101407270000000830368ONE FOOD GROUP MANAGEMENT SERVICES, INC.                 1602
A0101407270162694765001NELSON N. CRUZ                                           0501
B0101401090171061896001USTFU - EMPLOYEES' RETIREMENT FUND                       1601
A0101401090171235546001GEORGE W. TING                                           0501
A0101401090171287980001ROMIL M. MARTINEZ                                        0506
A0301400530000001009943PANTUA, JERSON R.                                        0502
A0301400530000002318561VILLANUEVA, FEDERICO MAGPAYO OR                         10501
A0301400530000002318561VILLANUEVA, MARI                                        20500
B0301400530193043054001TAGUM CITY COUNCIL OF WOMEN, INC.                        1610
A0301400530000000065832PERIAS, FE                                               0501
A0301400950000002115479***********                                              0502
B0101401380201034247001HOBBIES OF ASIA INC.                                     1604
A0101401380000000414286********                                                 0510
A0101401380201517488001BENEDICTO, HERIBERTH MEDINA                              0501
A0101413020000002292742PASCUAL, JIMBE CABAUATAN                                 0502
A0101413020000000056999SOMBILLO, A DBU THE K-CAMP                              10503
A0101413020000000056999TUTORIAL & REVIE                                        20500
B1001400190231024436002UMALAG FARMS INC.                                        1620
B1001400190231024436003UMALAG FARMS INC.                                        1610
A0101401670271520370001CAREN AGUILA CRISOLOGO OR                               10503
A0101401670271520370001AUDREY CRISOLOGO                                        20500
A0101406460000001231532LIM, CANDY UY                                            0503
A0101406460000002330632MESINA, CHARMAINE FRANCISCO                              0501
B0101406460000000182370WEE COMMUNITY DEVELOPERS, INC.                           1605
A0101406620000000193628ACEDILLO, MA. JULIET DASIG                               0503
A2601400270000000084320GERVACIO S. MARFIL OR                                   10501
A2601400270000000084320REBECCA M. MARFI                                        20500
A2601400270000000561642ROMINA FRANCESCA C. MOLINA                               0501
A2601400270302476252001********                                                 0501
B0801400160311040546001RACSO'S WOODLAND INLAND RESORT                           1605
B0801400160311338254001*************                                            1605
A0801400160311478374056CECILIA B. ASTROLOGO                                     0501
A0801400160311478374093AMELIA H. TAYCO                                          0501
A6601400120000006154689UY, FLORIANE D OR UY, CHRISTIAN                         10501
A6601400120000006154689EMMANUEL W                                              20500
B0101402350321035857001MOBICAR TRADING CORPORATION                              1602
A0101402350000003080446AROSTEK ENTERPRISE                                       0501
A0101402350321179301002PABLO PEFANCO & ERLINDA PEFANCO                         10505
A0101402350321179301002& MA FLORINDA PEFANCO                                   20500
A0101402350000003880397ILAS, EVANGELINE OLIVAREZ                                0503
A0101402350321485233001TUI, CHARLES ANGELO                                      0503
A0101402060351213195001SARINGAN, MARCELA J.                                     0501
B0201400760374033207001W.T. CONSTRUCTION, INC.                                  1605
A0201400920000000047998FAELNAR, IRE CLAUDETTE MANSUETO                          0501
B0201401020000003031152VIRLO CONSTRUCTION DEV. CORP.                            1609
A0101408370382205119001DR. FLORANTE P. GONZAGA                                  0502
A0101408370382205236001DR. CYNTHIA A. AGUIRRE                                   0502
A0101408370382400439001DR.CORAZON JESUSA SERAFICA-DIAZ                          0501
A0101405490000004353031BARRAMEDA, ANITA VALIENTE                                0503
A0101405490000005566383BRINCES, CATHERINE CANALES                               0501
A0101405490000006241903PALLON, EMILY C. DBU MIL-LON EN                          0501
B0101408400394028560002NEW LIFE CHRISTIAN CENTER (THE FORT) INC                 1602
B0101408400394028560004NEW LIFE CHRISTIAN CENTER (THE FORT)                     1604
A0101408400394474655001ONGARIA, ROBERTO JIMENEZ                                 0501
A0101408950000005325822SARTILLO, JAHZEEL MANALILI                               0501
B0101409210000000031283IGNIFY SOFTWARE PHL INC.                                 1601
A1201400150000006851869AUSTRIA, LILIAN MAMITAG OR                              10501
A1201400150000006851869CALIWAY, MYRBEN DIBLO                                   20500
A1201400150421685972001JUCUTAN, HEIDI BONDAD OR                                10503
A1201400150421685972001JUCUTAN, ROMMEL                                         20500
B0101406330472034895001PRIME MKTG. AND DIST., INC.                              1603
A0101406330472298552011CARINA F. FALQUERABAO                                    0501
B0501400170000001072979VIRAY, HILARIO SISON AND VIRAY, LETICIA                  1601
B0501400170481018109001*********                                                1601
B1401400110000000167446SOUTHERN PROCESSING CORPORATION                          1606
A1401400110492600851001DE VERO, ROBERTO TANEDO                                  0503
A0701400260000001804553COLIS JR., BERMUDO FERNANDEZ                             0501
B0101407430503006862001FEDERATION OF AIR CUSTOMS FORWARDERS                     1602
B0101407430503039583001TG VAX MARKETING                                         1601
A0101407430503379026002RENATO G. MACANDILI OR                                  10501
A0101407430503379026002ELENA C. MACANDI                                        20500
A0101405940000005067841ADRIAN S. ARCEO                                          0501
A0101405940000001210017**********                                               0501
A0101408110000000379971CEPEDA, RODELLA G DBU                                   10502
A0101408110000000379971ZRRC ENTERPRISE                                         20500
A0101408530000007456644GO, MARIBETH LEAL                                        0501
A0101408530000007456746BALLESCA JR., RAMON CASTILLO                             0501
A0101408530000007456780DON, RIA ISOBEL CABEBE                                   0501
A0101408530000007456837WENCESLAO, RONALD PATRICK GUEVA                          0501
A0101408530000007456871CRUZ, MARY KRISTINE NUNEZ                                0501
A0101408530000007456928ROSALES, DARYL CHRISTIAN HUTCHI                          0501
A0101408530000007456973CONCEPCION, EMMA BEREN                                   0501
A0101408530000007457027ANTONIO, DANILO NMN                                      0501
A0101408530000007457083SPIGNESI, THOMAS NMN                                     0501
A0101408530000007457130MARQUESES, ALVIER TORRES                                 0501
A0101408530000007457141FRANCISCO, ARLENE CALIGUIA                               0501
A0101408530000001268399BALDOVINO, ASUNCION A OR                                10501
A0101408530000001268399BALDOVINO, MARY                                         20500
A0101411400517061933001OROLFO, JULIUS BRACAMONTE DBU                           10501
A0101411400517061933001COMARCKE ENTERPRISE                                     20500
A0101411400517061946001MANUEL,CHESTER KEITH EMMANUEL G                         10501
A0101411400517061946001DBU MANUEL'S TRADING                                    20500
A0101411790518086259001BANDAY, CELESTE EDULLANTES                               0501
A0101403450521238273001*******                                                  0501
A0101403450521238538002**********                                               0502
A0101403610531355089001MACASAET, DOMINGA YAMBAO                                10501
A0101403610531355089001MACASAET, LOPE MERCADO                                  20500
A0101404000551435680001PAPA, CATALINA ESTRELLA                                  0501
A0101404000551632826001NARVASA, EVALOR DEL ROSARIO                              0502
A0101404000551720372001***                                                      0503
A2201400250561478374026MINDA S. BLAYA                                          10501
A2201400250561478374026MEMBERS OF NATAS                                        20500
A0101407720602210403001JOSEPHINE QUINTOS-APOSTOL OR                            10502
A0101407720602210403001CARLOS FAUSTINO                                         20500
A0101407720602378956001ROWELL, VERMEN V.                                        0502
B0101404260611005306001THE HOUSE OF RACOR ADS., INC.                            1601
A0101404260611525197002REYES, YOLANDA DELA VEGA                                 0501
B0101404260611537674001KLINI-KAYA MEDICAL SPECIALISTS INC.                      1604
B0101409890000000437303**********                                               1602
A0101409890649723947002TONGOS, ROMARICO MACARANAS OR                           10501
A0101409890649723947002TONGOS, RALPH JU                                        20500
A0101409920000006336741GIMENEZ, MARIA AGNES VELASCO                             0501
B0101413440000000038213ROMBE PHILIPPINES, INC.                                  1605
A0101413570656057648162CONNERY C. MARTINEZ                                      0501
A0101414120000007044471PIEDAD, MONETTE MANALO OR PIEDA                         10501
A0101414120000007044471D JR, BIENVENIDO RUBIS                                  20500
B0101410300000000191586MEJIA, MELODY ANNE DBU MEE NOODLE BAR &                 11601
B0101410300000000191586RESTAURANT                                              21600
A1301400210682496862002ROSARIO C. PEREZ OR                                     10504
A1301400210682496862002EDGARDO J. PEREZ                                        20500
B0101408240711036910001ASIAN CENTRE FOR INSULATION PHILS.,                      1603
A0101408240711384215003LOURDES GRACE MAPALAD                                    0501
A4101400260000000541159REMOLACIO, MARIA DOLOR DURAN                             0502
A4101400390813043811001OXY CLEAR WATER FILTRATION AND                          10501
A4101400390813043811001REFILLING STATIO                                        20500
A4101400390813329357002DESBARRO, JOHN ONG                                       0501
A0101405070000003266362JAN, HARRY NUBLA                                         0502
B0101418940012821100608**********                                               2002