A0301400530000011715289NGO, JUSTIN CHIU                                         0501
A0301400530193774589001CREDO, ARIEL S.                                          0501
B0101410140000010858201AMANHARI BUILDERS CORP.                                  1602
A0101408950000000776621VISTA, EMMERSON GALE SILVERIO                            0502
A0101408950396615148001COBARRUBIAS, PAUL DESTREZA                               0502
A0101401250000002763346**********                                               0505
A0101401250000002290104ATUY, FLOREIVIC JOGEI BENLOT                             0501
A0101401250000008233312QUIAOIT, JOSE MA. LOPEZ                                  0502
A0101401250000008460031DR. CHRISTOPHER BAGA GAVIOLA                             0502
A0101400150000003162392CLAUDINE M. AMATA                                        0502
A0101400150061233523001BANGAYAN, TEOFILO OR                                    10506
A0101400150061233523001BANGAYAN, SHIRLEY                                       20500
A0101400150061427063001MEDIE F. REYES &/OR                                     10501
A0101400150061427063001JOSEPH L. REYES                                         20500
A0101400150061456754001ANCHETA, ANGELINO TAGUIBAO                              10501
A0101400150061456754001OR ANCHETA, CANDELARIA                                  20500
B0101400600000001335637**********                                               1603
A0101405810000014656905**********                                               0502
B0101405810072011448001C.P.P.C CONSUMER PACKAGING PRODUCT CORP.                 1603
A0601400100000007253945TANGLAO, CARMELO DE LEON DBU ME                          0501
B0601400360000008477312GARCIA, ROSELLE SARILE DBU R.S GARCIA                   11605
B0601400360000008477312ENTERPRISES                                             21600
A0601400520000003009270NAGUIT, ALFONSO MIRANDA                                  0501
A0101410850000002356783NONES, EMMA RIVERA OR NONES,                            10503
A0101410850000002356783SAMUEL BERMUDEZ                                         20500
A0101401960121238703001ROSA ISABEL C. UMINGA                                    0502
A0101412630000004062064BANZUELA, ELEANOR ADORNA                                 0503
A0101412630000004062086BANZUELA, ELEANOR ADORNA                                 0501
A7201400170000006487843CENTENO, FRANCIS MARIA MYRNA                            10501
A7201400170000006487843ANGELA TEVES                                            20500
A7201400170000003774389CHUA, STEVEN BAISA                                       0502
A0101400440000006679663AIDA S. RIVERA                                           0502
A0101400440161525001103OFELIA B. OLERMO                                         0501
A0101407270000003726527BATTUNG, SUSANA GALVEZ                                   0501
A0101407270000014063975BRILLO, ADONIS LUSTINA DBU ABJM                          0504
A0101407270162587936002WILFRIDO G. TIRONA                                       0501
A0101401090000005320256********                                                 0502
A0101401090171196106001MA. CELIA P. STA. MARIA OR                              10502
A0101401090171196106001REYNANTE D. STA. MARIA                                  20500
A0301400530000014998460BUYAN, VERINO ARADO                                      0501
B0301400660000013311363*****                                                    1602
B0301400660000003406077JAS MACHINE SHOP & ENGINEERING WORK                      1605
A0301400660000003406168*****                                                    0503
A0101413020000006295958CHONGCO, MARIA SONIA SANTOS                              0501
A0101412500000002304701FACTORA, MYLA MARCO                                      0501
A0101412500000002304774BUGAOAN, IVY ILLESCAS                                    0501
A3101400160000000006500ANNIEFER P MERCADO                                       0502
A3101400450223588221002GATDULA, JAMAILA AGONCILLO OR                           10501
A3101400450223588221002AGONCILLO, SUSAN                                        20500
A3101400740000009966432DANAO, KATHERINE N. OR DANAO,                           10501
A3101400740000009966432MARK ANTHONY B.                                         20500
B3001400130000008264933ROSE EXCELLENCE CORPORATION                              1610
B1001400190231274999001CHRIST'S COMMISSION FOUNDATION,                          1610
A1001400190231520766021CONDIMAN, MILDRED BAGAIPO                                0501
A1001400190000000016468NERI, JENNY RACAZA                                       0501
A1001400350233078715100TY, RENE TAN                                             0501
A1001400350233675969001INESIN, LYDIA TRINIDAD                                   0502
A1901400290000011282090EDWIN GONDA MAGSINO                                      0501
A1901400290261248453001LEONARDO RETANA GARING OR BUENA                         10503
A1901400290261248453001FLORES GARING                                           20500
A1901400290261567865001ALEX IAN SISON DE LA CRUZ                                0501
A0101406460272376552001ONG, ANNA LISA UY OR                                    10501
A0101406460272376552001CEDENIO, ELIZABETH                                      20500
A0101400570281767998001EDWIN R. BERNARDINO                                      0501
A0101400570000002329671TAN, CHRISTOPHER BADURIA                                 0502
A2601400270000012492507PROSPER GRAINS CENTER                                    0501
B2601400270000006014722NOEL G. PABLO DBU PABLO INTEGRATED FARM                 11601
B2601400270000006014722OR MA TERESITA D                                        21600
A0801400160311066091001EXPI'S BALLOON MAGIC, PARTY NEE                         10503
A0801400160311066091001CATERING SERVICE                                        20500
A1101400120000003197175LAGRIMAS, DENNIS CILLO                                   0502
A1101400120000003981317CANETE, ALEXIS JAN DY DBU                               10503
A1101400120000003981317CANETE ENTERPRIS                                        20500
A3401400280000002323451PETE'S STOP TIRE                                        10502
A3401400280000002323451AND CAR CARE CENTER                                     20500
A0101402350321185131001PAGTALUNAN, MARIA FE M.                                  0502
A0101402350000014043857MADLA, ANICIA RAMOS                                      0502
A0101402350321618569001DAMASO, GLORIA SANCHEZ                                   0501
A0101405650322677759002BESA, ODESSA MACATIVO                                    0501
A0101402510000010100786MESINA, MICHAEL THOMAS                                  10501
A0101402510000010100786PAGDANGANAN                                             20500
A0101402510000013485833LAO, SANDRA KOENGCHIAT                                   0502
B0201400920375038353001WEST OCEAN LINES & TRANSPORT, INC.                       1610
B0201400890000002027903GLOBAL REV GEN PTY LTD                                   1601
A0201400890000012352840********************                                     0503
B0201400890376668181001ST. MARK'S RESIDENCIA, INC.                              1605
B0201401020000010966813ARQUILLANO, JAIME CAPUTOL DBU BJA T                      1601
A0101408370382391723002FRITZIE C. CHUA                                          0501
A0101408370382677453001TERESITA CELESTINO HOWARD                                0502
B0101402770391752292001JUANITA OR TOMAS OR BENJAMIN                            11601
B0101402770391752292001VICTORIA                                                21600
B0101405490392006536003GEMINI INTEGRATED SERVICES, INC.                         1605
B0101405490392006541001GLOBALTECH AUTOMATION, INC.                              1605
A0101408400394160344001CALMA, ALFREDO MATAGA                                    0506
A0101408400394423791001VALERIANO, RUTH GRAMPON                                  0504
A0101408950000010111232PERALTA, JUDITH PEREZ                                    0501
A0101412210000015519232ISMAEL, AL SHWAID DE LEON                                0502
A0101412210000015519301RAZ JR., JOSEPH LEMUEL RANOLA                            0502
A5501400120000000046922CHIU, VALENTIN & JULIA EILEEN                           10502
A5501400120000000046922CHRISTIAN & CHRI                                        20500
A2401400180000012748551********                                                 0503
B2401400180000011299002BRIGADA DISTRIBUTIONS, INC.                              1605
B2401400180411020380001BOUNTY AGRO VENTURES, INC.                               1605
B2401400180411058219001BRIGADA PHARMACY, INC.                                   1630
A1201400150421039385001JL'S CLEAN UP JANITORIAL &                              10503
A1201400150421039385001MANPOWER SERVICE                                        20500
B0101403030441303324001**********                                               1602
A0101403030441674973001**********                                               0501
A0101403320000014409691JANE G. RODRIGO                                          0501
A0101403320000014818530FELIX D. MACARAYA                                        0501
A0101403320000014561652RDG TRUCKING                                             0505
A0101403320000015529292PARAGAS, RUTH SERRANO DBU RUTH                          10501
A0101403320000015529292FOOD HUB                                                20500
A0101403320000001646777MYRNA M. CRISOSTOMO                                      0501
A0101406330000014144986ALVAREZ, BRENDA MAALIHAN                                 0503
A0101406330472206513002MARIO O. QUE OR                                         10502
A0101406330472206513002ROSALINDA Y. QUE                                        20500
B0101406330472594322002IGNACIO JOSE JR/BULAKLAK CRUZ/GREG JOSE/                11601
B0101406330472594322002MARGARETH JOSE                                          21600
A0501400170000005002964DY JR., BERNABE ANG                                      0501
A1901400320000011382773ITURRALDE, MELANE BARTE OR                              10501
A1901400320000011382773ITURRALDE, DAVE                                         20500
A3801400170000000497832RAQUEL D. SALAS OR                                      10503
A3801400170000000497832ENRIQUE R. SALAS                                        20500
A1901400160000013648712DRA. SOFIA ROSELYN E. TAYLAN                             0501
B1901400160491039054001ST. VINCENT ARRASTRE STEVEDORING &                      11602
B1901400160491039054001FORWARDING CORP                                         21600
A1901400160491739070001EMMALYN GRACE C KHO OR                                  10501
A1901400160491739070001JOAN C KHO                                              20500
A1601400170000000497514DANTE D. VALLADOLID                                      0501
A1601400170000000497592MARLYN A. RELINGADO                                      0501
B1601400170000000036160LEGAZPI FOUR SEASONS                                    11603
B1601400170000000036160RESTAURANT, INC.                                        21600
A0101407430000000359513PAUL MICHAEL R. PALUERO                                  0502
B0101407430503024218001T.O.L. REALTY & DEVELOPMENT CORPORATION                  1603
B0101403580000000214662MEC - SUNTRUST PARKVIEW TOWER 1 & 2                      1605
A0101403580511026941001CECILIA NARVAEZ Y DISENOS                               10502
A0101403580511026941001INTERIOR                                                20500
A0101403580511310959002SANAGUSTIN, JORGE MA SANTIAGO                            0501
B0101405940000005359708NEXUS INDUSTRIAL GLOBAL SOLUTIONS                       11604
B0101405940000005359708CORP.                                                   21600
B0101408530000007318078THE PURPLE OVEN CORPORATION                              1602
B0101411400000006561082CRYSTAL SHIPPING INC.                                    1605
A0101411790000011046107RELINGADO, MARJORIE CARAMANCION                          0501
A0101403450000013091691ROSARIO, ERIN LOU MONILLAS,                              0501
B0101403450521011745001**********                                               1602
A0101403450521077932001ROSARIO, ERIN LOU MONILLAS                               0501
A0101403610000015425580DELA TORRE, NACONIEL CALDERON                            0501
A2201400250000012982333HIPOLITO, JOSE MARIO ARCEO OR                           10502
A2201400250000012982333HIPOLITO, JOSE MIGUEL P.                                20500
B0101404130601042675003IPRUDENTIAL STEVEDORING AND PORT                        11603
B0101404130601042675003SERVICES INC                                            21600
A0101407720000006627967GARCIA, CARLO NINO REMOGAT                               0502
A0101407720602164307001GABRIEL G. GABRIEL M.D. OR                              10502
A0101407720602164307001CAROLINE C. GABR                                        20500
A0101404260611434067001BARROGA, NORA FLORESCA                                   0502
A0101404260611478374077LUCIA CAPILITAN                                          0502
A0101404260611484749002BAHALA, AURELIA MANINANG                                 0505
A1301400210000000540914RAMOS, ALLAN BAUTISTA                                    0501
A1301400340000002283781RODELIO D. RUBIO OR                                     10502
A1301400340000002283781ALONA D. ALIPIO                                         20500
B1301400340683676666001FALCON, MIGUEL NITO OR FALCON,                          11601
B1301400340683676666001MICHAEL CEAZAR M                                        21600
A1701400230000001786752**                                                       0501
A0101408240000014502951ILAGAN, ARVYNE JOHN AQUINO                               0501
A0101408240711542164001SAUNAR, MARIA ANA TIBAYAN                                0501
A0101408240000000347528RAFAEL,JOSE JAVIER/ROSEMARIE/                           10502
A0101408240000000347528REGINA KRISTINE/                                        20500
A4101400260812306604001LAILANI L. CENTENO                                       0501
A4101400260812696720001MARANTAN, EVELYN MATA                                    0501
B4101400420000009391977SWINELAND INC                                            1601
A4101400420814248330001ALCALDE, DANILO SANTACERA                               10501
A4101400420814248330001OR ALCALDE, NORE                                        20500
A4101400420000000121057ROMERO, JOCELYN FERRERA                                  0502
A4101400420814520766108ESPANOLA, MERELY C.                                      0502
B4101400550815040996002MARICHE APARTELLE, INC                                   1601
A4101400550000001332632********                                                 0503
A4101400550000006044651AAT COMPUTER SUPPLY                                      0502
A0101412340000001017930SONIA MEDINA SIBI                                        0501
B0101404840851021512001STI COLLEGE ALABANG, INC.                                1603
A0101404840851478374121MARISSA L. ESPARAGOSA                                    0502
A0601400230000006045570GUIAO, JULIETA ONG                                       0505
A0601400230000013259406MALLARI JR., SIXTO CORTEZ                                0502
A0601400230891314354001MALLARI, MARY GRACE OR                                  10503
A0601400230891314354001MALLARI JR., DIOSDADO                                   20500
