B1101400120313036429001PERPETUAL HELP MULTI-PURPOSE COOPERATIVE                 1610
B0301400660000000195306G.E. 64 ENTERPRISES, INC.                                1603
B3401400280000000157059CAPIZ ARCHDIOCESAN SOCIAL ACTION CENTER                 11602
B3401400280000000157059INC.                                                    21600
B4101400260000001199093SOLOMON MULTI-PURPOSE COOPERATIVE (                      1602
A4101400260000003679943TAN, ANGELINA                                            0501
A4101400550000003266937CAGUETE, PRAXEDES ABAN                                   0502
A0101400860011423348001**********                                               0502
A0101400860011482361001**********                                               0503
A0101400150061227148001LUCY L. SY                                               0501
A0101400150061632464002ANGELES, TERESITO AND LADEZA,                           10502
A0101400150061632464002AMON AND DAGDAYA                                        20500
A0101400600071233718001YOLANDA VILLAR                                           0501
A0101400600071457180001**********                                               0501
B0601400100081046818001J.G. FLORES BUILDERS                                     1602
A0601400100081742493001SANTIAGO, FELICISIMO VALENCIA                            0502
B0601400520000000398512PAGASA PHILIPPINES LENDING COMPANY, INC.                 1606
A0101414090000001669645********************                                     0505
A0101410560000001944163CAINDOY, CHERRIE                                         0501
A0101400730000002376423MADLOS, YOHHEI PELIGRO                                   0502
A0101401960121569490001************                                             0502
A0101400440000000596630MARY ANN A. OYARDO                                       0501
A0101400440161478374198EUFRONIA I. BERGONIA                                     0501
A0101400440161520766189PRESCILA P. DOTONG                                       0501
A0101400440161525001033MARY JANE V. MACALINAO                                   0501
A0101400440161525001107ALMA B. JIMENO                                           0501
A0101407270000003253950BORJA, FE ARELLANO                                       0502
A0101407270000004915908LORENZO, TRICIA MARIE SOLANOY                            0501
A0101407270162351252001WILFREDO C. CUEVAS                                       0502
A0101401090171196026001AURORA OR LESLIE BAUZON                                  0502
A0101401090171290445002SANTOS, MARY ANN & DIESMOS,                             10501
A0101401090171290445002LEONIDA & BANAG, CECILIA                                20500
A0301400530000000065923POWER-UP TIRES, BATTERY AND                             10524
A0301400530000000065923AUTO SUPPLY                                             20500
A0301400660000003405990ICASAS, JOSHUA GARLON YUVIENCO                           0502
B0301400660000003361862SOUTHSHIP HANDLERS PHILIPPINES INC                       1602
A0101401380201182816001ENERIO A. MAYORES                                        0502
A0101401380201517488001BENEDICTO, HERIBERTH MEDINA                              0501
A3101400160221648167001MILDRED B. SAMSON OR                                    10501
A3101400160221648167001WENDELL M. SAMSON                                       20500
B3101400740000000013889IM DIGITAL PHIL INC.                                     1605
A1001400190231339933001MOORJANI, NOOR G                                         0501
A0101401670000000237530TRINIDAD, CATHERINE LADIA                                0502
A0101401670271704101001AGUILA, NESTOR SARMIENTO    AND                         10503
A0101401670271704101001CRISOLOGO, AUDREy AGUILA                                20500
A0101408660274387702002ANG, DESIREE T.                                          0503
A0101411820000000477178ANTONETTE TUBALE PERUELO                                 0501
B0101412470000000045372KIDMASTER INC.                                           1601
A0101400570281344838001AUGUSTO GUTIERREZ REYES OR                              10502
A0101400570281344838001MARITA REYES                                            20500
A0101400570281388539001JOSEFINA S. SUMAYA                                       0503
A2601400270000001009107TALOSIG, ROEMA DBU JOHN 3:16                            10501
A2601400270000001009107MUSIC CENTER AND SERVICES                               20500
B0801400160000001290022COLADA, JANETTE GARIN TIT                                1602
A0801400160311478374008RODELYN LEBUNA                                           0501
A1101400120000003197022BALENA, ROLIO JABOL                                      0501
A1101400120000003981066UY, VIVIEN CHERIE CHU OR                                10505
A1101400120000003981066UY, STEPHANIE GRACE CHU                                 20500
A2001400290000005703691DELA PENA, JEMUEL BALDEMOSA                              0501
A2001400290315043995001NAVARRO STOP N'SURF INTERNET                            10503
A2001400290315043995001CAFE                                                    20500
A2001400290315043996001STOP N' SHOP ENTERPRISE                                  0505
A0101405650322173449001AGUIRRE, MYRNA B.                                        0504
A0101402510341198615001ANGEL P. PALMA                                           0502
A0101402510341232460002HANS T. LU OR JUNE PAOLO Q.                             10501
A0101402510341232460002CAPISPISAN                                              20500
B0101402060351018216001RGC EMPLOYEES SAVINGS & LOAN ASSOCIATION                11602
B0101402060351018216001INC.                                                    21600
B0201400760374043348001EEIKAIWA INC.                                            1601
A0201400760374625386001MIKI, MASAFUMI                                           0501
A0201400760374720031001******                                                   0503
A0201400920000001331504GARCIA, NILA NOYA                                        0501
A0101402930381207563001ELENITA B. GONZALES OR                                  10501
A0101402930381207563001EMETERIO D. GONZ                                        20500
A0101402930381209126001 *******                                                 0502
A0101402930381209768001EMETERIO D. GONZALES III OR                             10501
A0101402930381209768001ELENITA B. GONZA                                        20500
A0101402930381370682002DR. RONELON PAGKALIWAGAN OR                             10501
A0101402930381370682002DR. LUDIVINA PAG                                        20500
A0101408370382419166001JOHN JERUSALEM A. TIONGSON M.D.                          0505
B0101402770000001571626BEARING CENTER & MACHINERY, INC.                         1601
B0101412210000000031512WALL STREET ACCOUNTING AND BUSINESS                     11602
B0101412210000000031512SOLUTIONS INC.                                          21600
A5501400120000002019023PINGOY, ALBERT YUSAY                                     0504
A5501400120410680839001DR. SYLVIA B. ADALIN OR                                 10502
A5501400120410680839001DR. EDGAR O. ADA                                        20500
B2401400180411016835001GENERAL TUNA CORPORATION                                 1605
A1201400150421299356004LARANANG, BENITA CRISELDA MANON                          0503
A0101403320471047588001RHINA JENEPER C. LIBIRAN DBU                            10502
A0101403320471047588001R-GENESIS DRUG STORE                                    20500
A0101403320471478374051MYRA ATANGAN                                             0501
B0101406330000000432619INNOVATI INTERNATIONAL INCORPORATED                      1602
B0101406330472314132001*****                                                    1601
A0101406330472478374044ARMES SMITH B. ALVARADO                                  0501
A0101406330000000162445UY, JONATHAN DOUGLAS C. OR                              10501
A0101406330000000162445UY, KRISELINE JEAN C.                                   20500
A0101406330000000451330UY, JONATHAN DOUGLAS COPENGCO                            0501
A3801400170000005702723DE LEON, ANTONIO ROXAS OR                               10501
A3801400170000005702723DE LEON, JESITA CACHA                                   20500
A3801400170490761000001NENITA R BERNARDO                                        0501
B1901400160491249313001BEEPER LENDING CORPORATION                               1601
A0101406880000000745000MENDOZA, MARIA THERESA VILLAREA                          0504
A0101406880513415610001TANCHI, WILHELMINA DAVID                                 0501
B0101406880513504675001Y-FI CORPORATION                                         1602
A0101411400000003750598DR. TWINKY D. BELINO                                     0502
B0101411400000001280488L' ABRE DU VOYAGEUR INC.                                 1601
B0101411400000001280524GCURRIE INC. DOING BUSINESS UNDER T                      1603
B0101403450521011975001**********                                               1602
B0101403450521348906001**********                                               1601
A0101403450521432767001********                                                 0501
A2201400250000002337828KIM, NORMALYN OMPOY                                      0501
B0101404130601100072001GERVEL, INC.                                             1602
A0101404130601450094003LORQUEL PASCUAL OR ANNIE                                10502
A0101404130601450094003PASCUAL                                                 20500
B0101407720602016446001INFORMATICS COLLEGE EASTWOOD, INC.                       1605
A0101407720602415232015JONNALYN FORONDA                                         0501
A0101409890000002326741ROJAS, RAYMOND DE VERA                                   0502
B0101409890649044639001BISKWIT CO.                                              1603
B0101409890649046783001**********                                               1601
A0101409890649625039001**********                                               0501
A0101409890649748239001**********                                               0508
A0101409920650478374005CRISOSTOMO, MA. EMELIA GASPAN                           10501
A0101409920650478374005MEMBERS OF NATAS                                        20500
B0101407690652032315001BENEHEIM VENTURES CORPORATION                            1601
A0101407690652034806001BROWNFLY COMMERCIAL                                      0504
B0101407690000000025032GOLDLINK NETWORK SOLUTIONS INC.                          1601
A0101407690652173311001RS JARDIN & ASSOCIATES                                   0505
A0101407690652455653001PEREZ, EDGARDO OR PERLA                                  0501
A0101407690652525001051ANNABELLE BADAYOS - DEALERS OF                          10501
A0101407690652525001051SHOECAT INC.                                            20500
A0101407690000001919899DE LEON, LIADENETH - DEALERS OF                         10501
A0101407690000001919899SHOECAT INC.                                            20500
A0101413440000000702156PASOS JR., ARSENIO WANIA                                 0501
A0101414120000003190929FORDAN, MERIAM ELECSION                                  0501
A0101414120000000398892A.R.P. TRUCKING                                          0503
B0101414120000003584281JD & P FOOD TRADING CORPORATION                          1601
A0101406590000000568758BAUCA, MYRA MEDRANO                                      0501
A1301400500000002063918RNV APPLIANCE SERVICE CENTER                             0503
B1701400230000002762525TOWN BAKERY AND CITY GROCERY INC.                        1602
A1701400230693478374061BAUTISTA, CRESENCIO RISCAL                               0501
B0101408240000003501282GERVACIO HOME MANAGEMENT AIDE SERVICES                   1602
A0101408240711400412001MICHAEL MIRCHANDANI OR                                  10502
A0101408240711400412001SHAM MIRCHANDANI                                        20500
A0101408240711478374019ESTUYE, GILDA PLACIDES                                   0505
A0101408240711796866001STEIGER, GEORG                                           0501
B2801400100712046914001IREC CORPORATION                                         1601
B28014001000000001883631 AIMHIGH SECURITY AGENCY INC.                           1603
A4101400260812035893001SGI TRADING                                              0502
A4101400390813019225002CUARTOS GLASS & ALUMINUM SUPPLY                          0503
B4101400390813036410001THE BOAT SHOP CORPORATION                                1602
A4101400390813298552015NECENA N. TOLEDO                                         0502
A4101400420814335947001VILLAR, PERLA RODRIGUEZ                                  0501
A4101400420814478374122AGUILO, RODENA T.                                        0501
A4101400420814520766119OMNOS, NOVA DESCARTIN                                    0502
A4101400420000000120970REYAN S. LINCAY                                          0501
A4101400420000002345280ACOL, FELOMINA ADOAN                                     0502
A0101412340000003438577LETICIA M. WALSH                                         0501
A0101412340000003341113JAY-R E. BARRERA                                         0501
A0101405070861197522001NOLIE HANS OR BENJAMIN M. LIM                            0506
A0101413860000001887090UMLAS, SUSAN GATTOC                                      0502
A0101413860000002314283AMIL, NUR-AIN OMAR JT                                    0504
B0601400230891047075001DRIVEASIA MOTOR CORPORATION                              1603
A0601400230000002649950RUSSELL DIZON PELAYO                                     0501
A0601400230000000452782GOZUN, R-JAY RAMOS                                      10510
A0601400230000000452782OR GOZUN, MYRNA                                         20500
