A4101400260000003679863JARABE, MARILOU PENARANDA                                0502
A1601400170000000497536WASSER TRADING                                           0502
B0101409920650047670001TOPFORMER CORPORATION                                    1602
A0301400660194737283088ZHI VENUS INDUSTRIAL SUPPLY                              0502
A4101400260000000469329FALCUTILA, MARISSA RAMOS                                 0503
B1001400350233013980001VIC IMPERIAL APPLIANCE CORP.                             1603
B1001400350233512004001VILLALBA, CHARLIE L.                                     1602
A1001400350233559184001KHO, PACITA T. OR CORDERO,                              10501
A1001400350233559184001KORINA K.                                               20500
A0101408370382436793001DR. ESTHER FREDELYN M. TOMAS                             0502
A0101408370382625178001DR. KAREN ANNE R. BALANA                                 0501
A2401400180411478374067CORTAL, CYNTHIA DE LEON                                  0501
A2401400180411478374069JUBAN, MARIVIC BABA                                      0501
A0101414120000000875903GRACE OR GEORGE DENNIS                                  10503
A0101414120000000875903CABARRUS                                                20500
A0101414120000005252864MVG HARDWARE                                             0501
A0101400860011386392002**********                                               0503
A0101400860011612510001**********                                               0502
A0101401250021760869001ONOFRE, JOHN RHAY ESTAREJA                               0501
A0101400150000002902547CANTO, MARIANNE JANDAYAN                                 0501
A0601400100000001442808BERNARDO, LILIAN VILLAPANA                               0503
B0601400100081013319001ANGELES CITY UNIVERSAL MARKETING                        11604
B0601400100081013319001CORPORATION                                             21600
B0601400360000003186656LACSINA, ORLANDO ESTACIO                                 1601
A0601400520000002086051FRANCISCO, MARRY ANN RAMIREZ                             0503
A0101406040000004587624********                                                 0502
A0101406040112197166003ZOSIMO FAJARDO JR. OR                                   10501
A0101406040112197166003VOLTAIRE IAN V. FAJARDO                                 20500
A0101406040112206284001DEMIE S. BULALAS                                        10502
A0101406040112206284001OR CRISTINA A. BULALAS                                  20500
A0101401960121362714001VILMA GUANLAO OR                                        10510
A0101401960121362714001VALERIANO GUANLA                                        20500
A0101401960121444286002**********                                               0501
B0101401830000000033605CARITAS SALVE CREDIT COOPERATIVE                        11605
B0101401830000000033605(QUIAPO-005)                                            21600
B0101401830141259521001JIMMY N. YANG (SONLY PRINTING PRESS)                     1601
A0101401830000003169333MUNAR, JEREMIE V. OR                                    10501
A0101401830000003169333MUNAR, MARK M.                                          20500
A7201400170000003774009FAMOR, MYRNA POLOYAPOY                                   0502
A0101400440000000596630MARY ANN A. OYARDO                                       0501
A0101400440000001439641BETTER CREDIT INSPECTION                                10501
A0101400440000001439641SERVICES CO.                                            20500
A0101400440161478374198EUFRONIA I. BERGONIA                                     0501
A0101400440161548266001VICTOR S. GONZALES OR ALMA A.                           10501
A0101400440161548266001GONZALES                                                20500
A0101407270000003253983SPIRO L. CLEMENTE                                        0502
A0101407270000003254253SPIRO L. CLEMENTE                                        0502
A0101407270000000511635DAVID STEPHEN STA. MARIA                                 0501
A0101401090171493391001CHRISTINA M. MILO                                        0503
A0101401090171531698001MARIA ISABEL D. CORNEJO                                  0501
B0101401090171572770002MA. LUISA D. AQUINO & ARNULFO M. CORNEJO                11601
B0101401090171572770002& LARRY S. KING                                         21600
A0301400530000001009943PANTUA, JERSON R.                                        0502
B0301400530000001409392PHILFRUITS PREMIUM CORPORATION                           1603
B0301400660000003406055*****                                                    1605
A0301400950000001379546SARABIA, MAY JOY DUCO                                    0501
B3101400450223025343001CAPUA ENTERPRISES                                        1601
A3101400450000005355471CIGARAL, PEDRITO EXCONDE                                 0502
B3101400450223415324001*****                                                    1601
B1001400190231039064001*****                                                    1605
A1001400190000002170781RAMIREZ, RHESA CABAGO                                    0502
A1001400480000000133337TUDTUD, NELSON ATAMOSA                                   0501
A1001400480000001054711VILIRAN, PRINCESS SYBIL BADAJOS                          0502
A1001400480000003357679SUMANDO, EXEQUIEL MANUEL                                 0503
A1301400470252478374028NORMA S. BALLESTEROS                                     0506
B0101401670271017449001HK HARDWARE SUPPLIER CO., INC.                           1601
A0101406620273072069001LEANO, DEVI PESSUMAL                                     0502
A0101411110000000009167CHUA, MARGARET GAW                                       0502
B0801400160000002676793TRI-LINE CAR CARE CENTER                                 1603
A0801400160311281230001ELMER OR LIZA FIGURACION                                 0501
A3401400280000003309139TERESA A. SANTOS OR MARIA                               10501
A3401400280000003309139CONSUELO A. ALMONTE                                     20500
A0101402350000000521213TONGO, ROWENA V.                                        10501
A0101402350000000521213OR TONGO, CAESAR D.                                     20500
A0101402350321478374059BERNARDITA D. LOPEZ                                      0501
B0101402060000006931822ASSURANT MANAGED SOLUTIONS INC.                          1601
A0101402060351349405002YAP, JAMES YU                                            0502
A0101409050352734686001LYNDON J. TABLANTE OR                                   10501
A0101409050352734686001KIMBERLY TABLANTE                                       20500
B0201400760374027367001HONDA CARS CEBU, INC.                                    1603
B0201400760374032939002GATEWAY MOTORS (CEBU), INC.                              1605
B0201400760374042294001MANDAUE CEBU MARINE PRODUCTS                            11605
B0201400760374042294001CORPORATION                                             21600
B0201400760374045286001C.K. BUILDERS CONST. & DEV'T. CORP.                      1605
B0201400920375526997001**********                                               1602
A0101408370382206550001DR. MARIETTA A. PANALIGAN OR                            10503
A0101408370382206550001PEDRO P. PANALIGAN                                      20500
A0101408370382211811001DR. SHARON CATING LIM                                    0501
A0101408370382550885001DR MARIA ROSEMARY N SAN MIGUEL                           0501
A0101405490000000355571MA ANASTACIA S. OR RITA THERESE                         10501
A0101405490000000355571S. DELA MERCED                                          20500
A0101405490000001092524MA ANASTACIA S. DELA MERCED OR                          10502
A0101405490000001092524RAYMOND ANTHONY                                         20500
B0101405490392494716001MASTERFLOW INCORPORATED                                  1605
A0101408400394478374061SONAJO, LOLITA C.                                        0502
A0101408950000001785555CRUZ, KANDRIA FRANCHEZCA CASTIL                          0501
A0101409210000002802688JUNGAYA, MARIA REINA MARTIREZ                            0502
A0301400820000004746043ALFAJORA, AL G.                                          0501
A1201400150000000034482CONG-O, AIDA LONOGAN                                     0503
A0901400220000001805107**********                                               0505
A0101403030441239072002**********                                               0502
A0101403030441241050001**********                                               0503
A0101403030441281777001**********                                               0501
A0101403030441673721001**********                                               0502
A0101406330000000162616LAND OF THE PROMISE TRUCKING                            10505
A0101406330000000162616SERVICES                                                20500
A0101412760000000767831ALDAS, SONNY BOY SERNAL                                  0501
B0501400170481016209001DAGUPAN FILCO MERCHANDISING                              1602
B0501400170481018109002****                                                     1604
A3801400170000002302830JAMIL HUSSEIN D. PENA                                    0502
A3801400170000007323522PENA, JAMIL HUSSEIN D. AND                              10501
A3801400170000007323522GARCIA, EDNA P.                                         20500
B1901400160491341189001VIRGINIA R VARGAS OR                                    11601
B1901400160491341189001RICHARD D LIM                                           21600
A1401400110000001549271CAMPOS, EDITHA NAVARRO                                   0502
A0101407430503225389002BRIAN A. PINEDA OR                                      10501
A0101407430503225389002MA. ELENA G. ARAGON                                     20500
A0101407430503478374017RIC L. ABADIANO                                          0502
A0101406880513197649001HARPER, ANNA MARIA LAMMOGLIA                             0501
A0101411790518055764007ADAME, NADENNE DIMATATAC                                 0501
A0101403450521239350001**********                                               0506
A0101403610531400725002HEREDIA, DALISAY OLIPAS                                  0501
A0101403610531690989001REFORMA, BENISON AND MARILOU                            10501
A0101403610531690989001AND ANDISON                                             20500
A2201400250000003558070VIRGINIA G. ROBLES OR ROBERTO                           10501
A2201400250000003558070G. ROBLES                                               20500
B2201400250561041156008COLINTAN CORPORATION                                     1601
A2201400250561254365002FROILAN S. SANCHEZ                                       0502
B2201400250561258273001*****                                                    1605
A2201400250561299317001MIRASOL M. SAN SEBASTIAN OR                             10502
A2201400250561299317001ALLAN M. SAN SEB                                        20500
B0101410690600045550001BEST ELECTRICAL COMPONENTS (BEC), INC.                   1605
A0101410690000000710712MONTEMAR, DONN DBU DHLM TRADING                          0501
B0101404130601100036002SCIENCE OF IDENTITY FOUNDATION, INC.                     1601
B0101404130601100074001KING'S DEVELOPMENT, INC.                                 1610
A0101404130601559335001TABULA, FLORANTE HIDALGO                                 0501
A0101407720602166062001FRANCISCO T. AGUSTIN, JR.                                0502
A0101407720602332798001ARNEL DIAZ OR LOURDES DIAZ                               0502
A0101407720602396366001BRAVO, ARLENE RICARTE                                    0502
A0101404260000003498419LACAP, LARINA LUSABIA                                    0501
A0101404260000003498460**********                                               0502
B0101404260611020600001MAKATI SAVINGS COOPERATIVE                               1610
B0101404260611043949001JCLC TRADING                                             1601
A0101404260611150901001CECILIO OR ROSALINDA ATIENZA                             0501
A0101404260000003498453CASTILLO, CIPRIANO                                       0501
A0101404260611293516007ESGUERRA, SOLOMON CARIDAD                                0501
A0101404260611478374082BEATRIZ BELMONTE                                         0501
A0101404260000001725344NOGALES, RAQUEL                                          0502
A0101404260611491958001******                                                   0501
A0101404260611491958001******                                                   0501
A0101409920650478374030DELA CALZADA, REGIL OMLANG                               0501
A0101413440000000183748MALLONGA, IRENE REYES                                    0503
B0101406590662517153001BRAND CONCEPTS SUPPLIES AND                             11605
B0101406590662517153001MANUFACTURING                                           21600
A1301400210682478374053RUBIROSA C CABUGWASON                                    0502
A1301400500684058869001YOUNG BUILDER'S TRADING                                  0501
A1301400500684762106001VICEO III, JAIME S.                                      0501
A1701400230000000097790ASIS, MARY JEANE PAGUSAN                                 0501
A0101408240000000521822MANGLAPUS JR., RAUL LAO                                  0501
B0101408240711041158001ACCUWORK COMPANY, INC.                                   1608
A0101408240711383150001AURELIO III OR AURELIO JR.                              10501
A0101408240711383150001OR AARON LITONJUA                                       20500
B2801400100712043886001SB CONSTRUCTION & WATER TREATMENT CORP.                  1606
A2801400100712582575001LLANTADA, JOANNA LEE BACALA                              0501
A2801400230713074852001DOMINGUEZ, MARIVIC MANDADERO                             0503
A4101400260000000048731RABADAN, FE TAER                                         0501
A4101400260000005333471RAPISTA, JOHNNY APISTAR                                  0503
A4101400260812310546003KHO, KWANG TAE                                           0501
A4101400260812324519002DEL ROSARIO, MERLITA BARRERA                             0501
A4101400260812478374030MA. CONCEPCION S. PARAGUISON                             0501
A4101400390813478374035PLACIDES, MICHAEL                                        0502
A4101400390813478374045FIRMALINO, MELECIA ATIENZA                               0503
A4101400550000000506814DALAGAN, CATALINO B. OR                                 10504
A4101400550000000506814DALAGAN, TERESITA S.                                    20500
A4101400550000003266982*****                                                    0501
B0101404840851061519001ZTA PROPERTY INVESTMENTS, INC.                           1601
B0101404840851061723001INNOVATIVE VENTURES LAND DEVELOPMENT                    11601
B0101404840851061723001PHIL. CORP.                                             21600
A0101404840851298552067EMERENCIANA P. BOMBAY &/OR                              10501
A0101404840851298552067JEREMY P. BOMBAY                                        20500
A0101404840851520766105ALICAWAY, HELEN                                          0501
A0101406750000004642108BANTILING, ALBERT PANES                                  0502
B0101405070000006005976SEARCH AND RESCUE UNIT FOUNDATION INC                    1601
B0101405070861198521002MSYTR                                                    1601
