F0101407300000000027789METRO ANTIPOLO HOSPITAL AND                             12601CKR
F0101407300000000027789MEDICAL CENTER                                          22600CKR
F0101406590662381982001MOJARES, RESURRECION ZAGALA                              2502CKO
F3101400740224664564002SE YOUNG PRECISION CORP.                                 2603CKR
F1301400470252428039003REYNALDO OR LUZVIMINDA PINE                              2505CKO
F0101407300000000027789METRO ANTIPOLO HOSPITAL AND                             12601CKR
F0101407300000000027789MEDICAL CENTER                                          22600CKR
