F1401400110492475410001ABCEDE, JOSEPH MICHAEL PINEDA                            2502CKO
F0301400110191452532008*******                                                  2502CKO
F0101400570281472968001ESGUERRA, ENRIQUE HILARIO ORLIN                          2502CKO
F0101408400394031095003LIVINGWATER SYSTEM, INC.                                 2610CKO
F0101407720602430823001CRISTINA ALEXANDRA B. HENARES                            2502CKO
F0101409890000000049136ENROE MARKETING CORPORATION                              2601CKR
F0101408240711432040001TIBAYAN, CORAZON AGONCILLO                               2502CKO
F4101400260812532566001KIM, MAHN SOO                                            2501CKO
