A0101412500000008919304LIM JR., LOWELL HOLDER BANGAYAN                          0501
B0101412500000000739737MIKEWELL WORLD OF HOUSEHOLD PRODUCTS                    11605
B0101412500000000739737CORPORATION                                             21600
A0101412500000008975693DY, LAWRENCE EDWARD LEE                                  0501
B0101416290410422000011**********                                               2001
B0101412500000000041670MOLDEX REALTY INC.                                       1603
A0101414120000003190890CRISTE, RODELLA VILLAFLOR                                0501
B0101414120000000399060ALGIRA CORPORATION                                       1603
A1301400470000000061550FLORENDO M. HOLGADO JR.                                  0503
A1901400320489064581001RED GIFT AIRLINE AND HOTEL                              10501
A1901400320489064581001RESERVATIONS SERVICE                                    20500
A0101400860011520310001**********                                               0502
A0101400860000008319313******                                                   0502
A0101400860011635682001**********                                               0503
A0101400860011740622001*                                                        0501
A0101400150000006356567WANG, CHENGUANG                                          0501
A0101400150061226989001EDUARDO E. CAEG OR                                      10501
A0101400150061226989001BESSIE C. CAEG                                          20500
A0101400150061326957001JAVIER, MA. THERESA OR LOMIBAO                          10501
A0101400150061326957001JR., ERNESTO                                            20500
A0101400150061338964107MYLENE S. MACAHILIG                                      0501
A0101405810000005314972UMALI, FRANCHETTE BERNADETTE UN                          0502
B0101405810072034176001**********                                               1605
A0101405810072361243002PONSARAN, MARY JANE RAMOS                                0503
A0601400100000000142065CALDERON, RAYMUND QUAN OR                               10501
A0601400100000000142065CALDERON, RIZA P                                        20500
A0601400100000005050377MEHEUST, ROWENA ANGELES                                  0502
A0601400100081517035002DASCO, DAVE SALEN                                        0505
A0601400100081590627001BASILIO, ADAMSON CUNANAN                                 0501
A0601400360000007539719EVARISTO, BONIFREDO BARRERA DBU                          0502
A0601400360083649312001KIM, KANG WOOK                                           0502
B0101410850000003503740CANELLE FOOD CORPORATION                                 1610
A0101410560000000590545JAMIE C. MOLINA                                          0501
A0101401960121238924001GAN, ESTELLA N.                                          0506
A0101401960000000008040**********                                               0505
A0101401960000006004411***************                                          0501
A0101413150000005319320*****                                                    0501
A0101413150000006294120*******                                                  0501
A0101413310000004735735TOMENES, JOSEPHINE BUENO                                 0501
A0101412920000003464873CADA, VERONICA NG                                        0501
A0101412920000009050282MADAYAG, MARIAN ZARA FLORIDO                             0501
A0101400440000004901495GENELYN C. RODILLA                                       0501
A0101400440000006679663AIDA S. RIVERA                                           0502
A0101400440161188352003ZALDY B. LAVARRO                                         0501
A0101400440161525001055MA. LUZ E. ABIERTA                                       0501
A0101407270162331908098ANGELITO NEPOMUCENO                                      0502
A0101407270162333003004MAURO C. AGUSTINES                                       0504
A0101407270162333006024FERDINAND R. TAPERO                                      0502
B0301400530193041076168BLACK FIGHTER SECURITY AGENCY, INC                       1605
B0301400530193042677177TAGUM FUNDAMENTAL BAPTIST ACADEMY                        1605
A0301400530193478374008CHYRL ANN SENANGOTE                                      0502
A0101401380201554626001BANGURAN, MYRNA BRINGAS                                  0501
A3101400870000008989833DE CASTRO, RAINIER ELLOSO                                0501
A1001400190000000124683ABCEDE, CARMENCITA A.                                    0501
A1001400190000002170678GENTILES, KEVIN                                          0501
A0101401670000000237603BELEN, PAULO ENRICO PAGDANGANAN                          0501
B0101401670271041791001A PI SQUARE KINDER SCHOOL INC.                           1601
B0101401670271041791003A PI SQUARE KINDER SCHOOL INC.                           1601
A0101401670271186238002AMELIA R. ABAYA                                          0510
B0101406460272027382001POWER AIRE AIRCONDITIONING &                            11602
B0101406460272027382001AIRWORKS, INC                                           21600
A0101406460272531630001CLAUDIO, ELIZABETH ADRIANO OR                           10501
A0101406460272531630001CLAUDIO JR., JOS                                        20500
B0101406620273037236001SANTOS SANTOS & SANTOS LAW OFFICES                       1601
B0101406620000000194030PTR (PETER THE ROCK) PROPERTIES, INC.                    1602
A0101406620273281234001ANNIE TAN YEE                                            0502
A0101406620273650685001QUIMINALES, ARLENE MARANAN                               0501
A0101406620273720692001******                                                   0502
A0101408660000002264939************                                             0501
A0101400570281043930002REALTY & ENTREPRENEURSHIP                               10501
A0101400570281043930002ACADEMY OF THE PHILIPPINE                               20500
B0101400570281043944002EXLO MANPOWER AND ALLIED SERVICES, INC.                  1602
B0801400160311037580002SOCIETY AGRI-VENTURE ENTERPRISES, INC.                   1602
A0801400160311267002001ALVIN PO OR ALICE PO                                     0502
A0801400160311478374037EDNA T. CARIAGA                                          0502
A1101400120000003595988VILLA, ELVIE DACLIZON                                    0502
A1101400120313478374112VILLASOTES, JEAN L.                                      0502
A3401400280318095661001OROLA, AIMEE PERALTA                                     0501
A3401400280000000784663ALMA V. TORREBLANCA                                      0501
A0101402350000002310634DIMSON, MA. DENISE FERNANDO                              0502
B0101402510341037808001FAIR ALL MARKETING                                       1602
A0101402510341419631001RUEL ROBERT A. DE GUZMAN                                 0501
A0101409050000006986705SARIBONG, JOANA KRISSLE CHAVEZ                          10501
A0101409050000006986705OR GUECO, JEAN PAUL MARIE                               20500
B0201400760374046036002SAM SOWAH SHIPPING CORPORATION                           1602
B0201400760000000033321SAM SOWAH SHIPPING CORPORATION                           1602
B0201400760000000033332SAM SOWAH SHIPPING CORPORATION                           1602
B0201400890376034720001CEBU AGRI CHEM TRADE INC.                                1602
A0101408370382396864001DR. ROMEO D. SANTOS OR                                  10502
A0101408370382396864001DOLORES S. SANTOS                                       20500
B0101408790383821200608**********                                               2001
A0101411660000008590427MENDOZA II, VIGOR DE DIOS                                0502
B0101411660000005434782G-MAX ENVIRONMENTAL SOLUTIONS INC.                       1601
A0101415350000005085030CARITAN, JOSEPH FERMIN ABESIA                            0501
A0101415350000006733297ONG, SHERYL CHUA                                         0501
A0101415350000007043763BESA, MARY JANE P. DBU YNEZ                             10502
A0101415350000007043763GADGET PAWNSHOP                                         20500
A0101402770391280878003JAIME ABESAMIS MALONZO                                   0501
A0101405490000002253010ROSEMAE J. SISON                                         0501
A0101405490392334377001ARMIN J. SY                                              0505
B0101408400000000029605ENNUI, INC.                                              1601
A0101408950000003978861PLACIDO, NARCISA CABALLERO                               0501
A0101408950396294877001DR. REBECCA BAUTISTA SINGSON                             0502
A0101409180000004409767MARCELINO, LEYLORD TADENA                                0501
A0101409210000009041503AMRAD, EFRAIM EROLES                                     0501
A0301400820000002271967NAVARRO, AVIS M. OR NAVARRO,                            10502
A0301400820000002271967RODRIGO P.                                              20500
A2401400180000000554949BARONA, ANDYLYN TABACUAN                                 0501
B2401400180411033588088FIESTA APPLIANCECENTER, INC.                             1605
A2401400180411338845001ROBERTO T. PERALES OR                                   10510
A2401400180411338845001JANET C. PERALES                                        20500
A2401400180411683511001AGUINALDO, BARBETTE BALABA OR                           10501
A2401400180411683511001AGUINALDO, ARNOLD SAMSON                                20500
A1201400150421384737002PERALTA, CARMELITA LALAS OR PER                         10501
A1201400150421384737002ALTA JR., SAMMY ITLIONG                                 20500
A0101403030441401301002**********                                               0501
A0101410140000007294791CAMARAO, VIRGINIA MAGUDDAYAO                             0503
A0101412760000002067494LOSARIA, LOVELYN VIOLA                                   0502
A0101412760000002067643PERLAS, CONRADO VERDADERO                                0502
A0501400170481350777002SISON, MARIA RESURRECCION                                0501
A0501400170481365467003CALLANTA, JOHN SORIANO                                   0505
A3801400170000000955040EDWIN C ACOB                                             0501
A1901400160491048459001KLENSTAR MANPOWER SERVICE                               10503
A1901400160491048459001SPECIALIST                                              20500
A1901400160491343774001MA REGINA THERESA A BLANDO                               0501
B0101407430503024216001BASIC POLYPRINTERS & PACKAGING CORP.                     1605
A0101407430503478374012ANALIE YPANTO                                            0501
A0101403580511420184003MARIA CAROLINA S. MACASAET                               0515
A0101408110515041358001MADE IN HEAVEN ENTERPRISE                                0501
B0101408530516033225001KONECT COMPANY                                           1601
B0101408530516036530001TEAM GLOBAL FACILITY SOLUTIONS INC.                      1603
B0101411790000007043967ALLIANCE OF NON-STOCK SAVINGS AND L                      1602
A0101403450000001638097**********                                               0501
A0101404000551150230001ROGELIO OR VERONICA L. CO                                0505
A2201400250561478374026MINDA S. BLAYA                                          10501
A2201400250561478374026MEMBERS OF NATASHA                                      20500
A2201400250561478374062JENNIFER M. RAMOS                                       10501
A2201400250561478374062MEMBERS OF NATASHA                                      20500
A0101407720602396825001EDWIN EPHRAIM G. WENCESLAO, MD                           0502
A0101409890000000049089GEMSTAR CLEANING SUPPLIES                               10505
A0101409890000000049089INTERNATIONAL                                           20500
A0101409920000007304787***********                                              0501
A0101413570000001720194JAY RON M. MORA                                          0503
B0101406590662038794001PRISMODIAL CONSTRUCTION CORPORATION                      1606
B1301400500684029282001L5 & SONS FINANCING CORP.                                1615
A1701400230693510832001DUQUEZ, ROBERTO AQUINO                                   0503
B0101408240711026678001SAMBEL PACIFIC CORPORATION                               1602
B0101408240711028488001INTAS DESTINATION MANAGEMENT INC.                        1605
B0101408240000000832735ESQUIRETECH CORP.                                        1601
A0101408240711748102001GASTON, SANDRA MONTECILLO                                0501
A4101400390000003346103YABUT, ANNALIZA GAMBOA DBU AGY                          10501
A4101400390000003346103MANAGEMENT SERVI                                        20500
A4101400550000007583733SERVELINE MERCHANT                                       0501
A4101400550000006044571TECSON, AIRENNE CELIZ                                    0501
A0101404840851520766163JOCELYN ANONUEVO                                         0501
B0101406750852041682001ALPINE COMMERCIAL CORPORATION                            1602
A0101406750000002251361POSEO, ANAFE CAJOCSON OR                                10501
A0101406750000002251361POSEO, LEO                                              20500
A0101406750000000017427ANTONIO, ARNALDO QUILATAN                                0501
B0101406750852763309001SUNSYSTEM TRADING AND DEVELOPMENT                       11602
B0101406750852763309001CORPORATION                                             21600
B0101405070000006006020BUKWANG PRIME INTERNATIONAL AGENCY                       1603
A0101405070000008250195ANTHONY S. SOL DBU NOBUNAGA                             10502
A0101405070000008250195JAPANESE RESTAURANT                                     20500
A0601400230000006243045PALOMO, JEROME BUSTOS                                    0502
B0101419330389821100608**********                                               2002
B0101419330389821200608**********                                               2002