F0101410690000000001850COLOR1DIGITAL, INC.                                      2603CKR
F0201400180181057315001CEBU LANDMASTERS, INC.                                   2601CK1
F0201400180181420248002ADNAMA MINING RESOURCES, INC.                            2601CK1
F0301400110191030382002TRI-STAR PLASTIC, INC.                                   2606CKR
F0101402480331020380002**********                                               2610CKR
F1201400150421061035001ASIAN CENTRAL REALTY &                                  12601CK1
F1201400150421061035001CONSTRUCTION INC                                        22600CK1
F1301400210682496862001ROSARIO C PEREZ   OR                                    12502CKO
F1301400210682496862001EDGARDO J PEREZ                                         22500CKO
