B0101402480331821100608**********                                               2010
B0101401670271821100608**********                                               2005
A0301400950000004455561ONTELING, JANELYN DEMUNA                                 0502
A0101410300000004361580DELAS ALAS, MARTINA EILEEN                              10505
A0101410300000004361580HERNANDEZ                                               20500
B0801400160000001290011*************                                            1601
A0101408370000005220062IRMA GERONIMO TAN-NUNEZ                                  0502
A0101402770391216029001MANUEL A. DE LEON                                        0501
A0101412890000002324232PAREDES, RICHARD CHAM                                    0503
B0101403580511015278001MTV INVESTMENT PROPERTIES HOLDINGS                      11605
B0101403580511015278001CORPORATION                                             21600
B0101403580511020857001ROBROS INCORPORATED                                      1603
B0101403580511042786001MTM PARTNERS & CO.                                       1602
B0101403580511575114002TIGER 22 MEDIA CORPORATION                               1610
A4101400420814520766027ARUTA, CORAZON G.                                        0501
A0101400860000003571691**********                                               0501
B0101400860011023116001**********                                               1602
A0101400860011382654002**********                                               0505
A0101400860011419699001**********                                               0503
A0101400860011420919001**********                                               0505
A0101401250021709223001ROLANDO F. ASTILLERO JR. OR                             10501
A0101401250021709223001GINA A. ASTILLERO                                       20500
A0101400150000006239250RODRIGUEZ JR., ROLANDO CABRE                             0502
A0101400150061227944001ALMIRANEZ, ROSALIE BALESTEROS                            0501
A0101400150061430140001**********                                               0501
A0101400150061430140001**********                                               0501
A0101400150000000053067GARCIA, GARRIE LEO REY                                   0501
A0101400150000004090726CRISTELLE CATES U. REYES                                 0502
A0101400600000002335720LI, MAOHUA                                               0502
A0601400100081041749001SERVICE TO ALL IN UNITY AND                             10502
A0601400100081041749001PROGRESS MULTI-P                                        20500
A0601400100000002365380VALERIO, NARDITO GONZALES DBU                           10502
A0601400100000002365380JUNAR                                                   20500
A0101413280000000312643CARLOS R. ATAYDE OR                                     10501
A0101413280000000312643CARMEN M. ATAYDE                                        20500
A0101413730000002289472*********************                                    0502
B0101401960121011796001**********                                               1603
B0101401830000000033638CARITAS SALVE CREDIT COOPERATIVE                        11604
B0101401830000000033638(MANDALUYONG)008                                        21600
A0101401830141409771001ALRIC P. BOBO                                            0501
A5001400170000001003381CALIMUTAN, OHARA DELA CERNA OR                          10501
A5001400170000001003381CALIMUTAN, REGINALDO G.                                 20500
A0101412920000005675727TUMALA, JEFFREY PANTINO                                  0501
B0101412920000000585815ELEANOR YU OCAMPO DBU EL CAMPO FOOT                      1601
A0101400440161037218001RELIGIOUS MISSIONARY SISTERS OF                         10502
A0101400440161037218001LEAVEN OF THE IMMACULATE                                20500
B0101407270162019023003PHILIPPINE BATTERIES, INCORPORATED                       1604
A0101407270162478374001JOCELYN S. ESTRADA                                       0501
A0101407270162587936002WILFRIDO G. TIRONA                                       0502
B0101401090000000772470CARLOS ALMEDA & RENE FELIPE & MARCELINO                 11610
B0101401090000000772470OSTREA JR.                                              21600
A0101401090171355235001EMMANUEL O. BRAGANZA                                     0503
A0101401090171379638001AURORA CRISTINA P. BERMUDEZ                              0502
A0301400530000001009943PANTUA, JERSON R.                                        0502
B0301400660000003361862SOUTHSHIP HANDLERS PHILIPPINES INC.                      1604
A0301400660000003406180*****                                                    0503
A0301400950000002115537DAVIS, JEFF RAY DELA PENA                                0503
B0301400950000002115964ESTIMADA, SHERWIN LASAGA AND PORRAS,                    11601
B0301400950000002115964CARMELITA Z.                                            21600
A0101401380201179684001ANTONIA C. CUNETA                                        0505
A0101413600000005354912KRISTOFFER IAN B. AQUINO                                 0501
B3101400160221010057002C AND H ENTERPRISES                                      1602
A3101400160221222870001ALFREDO D. LU OR MARITES A. LU                           0508
A3101400450000001104043CARANZO, MARI BAGACINA                                   0501
A3101400450000002092968MUNOZ, JOCELYN LIMUACO                                   0502
A1001400190000002170565CHABON, CLAI DBU SOUTHERNFIELDS                          0502
A1001400190231478374100OLAMIT, GENEVIEVE                                        0501
A1001400190231520766036ONIPA, JANE ROSE P                                       0502
A1001400350000000922014PEARSON, PILARCITA ROA                                   0504
A1001400350000004095341OPENA, RAYMOND ABRIOL                                    0501
A1301400470000003270540MARCIANO DC ABESAMIS JR.                                 0504
A1301400470000001299203M.M.MUTUC TRUCKING                                       0501
A1301400760000003415610ROMAN P. CASTILLO                                        0502
A0101401670000000237530TRINIDAD, CATHERINE LADIA                                0502
A0101401670271192170001GERARDO R. MENDOZA                                       0510
B0101401670271477778001VIRTUSIO PR INTERNATIONAL, INC.                          1601
A0101406620273215980002GLORIA CHOA CHUA                                         0501
A0101411820000001356703IBAY DIGINET INTERNET CAFE                               0501
A0101412470000002295907PALANCA, NORMA QUIRINO                                   0501
A0101400570281388539043**********                                               0502
A0501400200000002306127OYAMAN, GERTRUDES ABANDO                                 0502
B0101402350321024658002OLIVAREZ COLLEGE INC.                                    1608
B0101402350000000046091ACHIEVE A CAREER TODAY TRAINING CENTER                  11601
B0101402350000000046091& DEV'T. INC.                                           21600
A0101402350321179318001GIL M. TALAMPAS                                          0505
A0101402350321467757001ELAMPARO, SARAH TALANA                                   0501
A0101402350321478374017RIZA G. SANTOS                                           0503
B0101405650322016972001MEDICAL CENTER PARANAQUE, INC.                           1605
B0101402510341020441001FEDERATION OF ASIAN PHARMACEUTICAL                      11601
B0101402510341020441001ASSOCIATION                                             21600
B0101402510341039014001PHILFOOD PROVIDERS AND EXPERTS, INC.                     1605
A0101402060351009359001JIANDANI, SURESH G. OR                                  10501
A0101402060351009359001JIANDANI, KAVITA                                        20500
B0101402060351033204001ROYAL DAVAO DEVELOPMENT CORPORATION                      1601
B0201400760374006430001CHRIST COMMISSION FOUNDATION INC.                        1602
A0201400760000002047343ANORE, SEAN LABRA DBU CAFE BELL                          0501
B0201400760374249471001COMMONWEALTH INSURANCE COMPANY                           1604
A0201400760374625336002REYES, BAYANI CARLOS OR REYES,                          10502
A0201400760374625336002VIRGINIA ALMEDA                                         20500
A0101411660000000595313**********                                               0502
A0101402770391355762033TIBI, ANDREI R.                                          0502
A0301400820000000024893ALIVO, JOENALD C.                                        0501
A2401400180411478374061JUNRES AGAD OR                                          10502
A2401400180411478374061NORMELITA BLANCO                                        20500
A2401400180411572205001EBRAHIM, MA. AMOR ISHAD                                  0501
A0901400220000001805129**********                                               0501
A0101412890000005913340TAI, EVELYN SIA                                          0501
A0101403320000000736112GRACE A. GERVACIO                                        0502
A0101403320000006026973FRANCISCO, MICHELLE OR                                  10502
A0101403320000006026973FRANCISCO, RANDOLF ALMERO                               20500
B0101403320471009016001ABBA EQUIPMENTS TRADING AND                             11602
B0101403320471009016001SERVICES INC.                                           21600
B0101403320471022389001PRIME PIZZA INCORPORATED                                 1603
B0101403320000001647149UNIGOLD EVENTS AND PROMOTION MANAGEMENT                 11602
B0101403320000001647149INC.                                                    21600
A0101403320471429191002CECILE CABALLA                                           0503
A0101410140000001939984DELANTAR, DARMEL URAGA                                   0501
A0101410140000001074748GUTIERREZ, LEILANIE AUTENCIO                             0501
B0501400170481018109002****                                                     1605
B0501400170481025398002****                                                     1602
A0501400170481255549001*****                                                    0504
A3801400170000005702723DE LEON, ANTONIO ROXAS OR                               10501
A3801400170000005702723DE LEON, JESITA                                         20500
A1901400160000001718087GUNZEN RESOURCES ENTERPRISE                              0501
A1401400110492524359001VELUYA, DALISAY BRIONES                                  0501
A0101407430000001028773ELAINE S. CANLAS                                         0501
A0101405940000001047381MIRANI, DIANA NARESH  JT                                 0502
B0101405940512041026001PILLARS 5, INC.                                          1603
A0101405940512360728001ERWIN P. HERNANDEZ OR                                   10501
A0101405940512360728001AGNES T. HERNANDEZ                                      20500
B0101405940512522097001BISTRO LEGASPI & COFFEE INC.                             1604
A0101408530000000489572SRIKANTH SRINIVASAN                                      0501
A0101411400000005329944GATCHALIAN, WILLIAM CHRISTOPHER                          0501
B0101403450521078888003PUREGOLD PRICE CLUB, INC.                                1620
B0101403450521079217001DEPORRESANMAR CORP.                                      1603
A0101403450521237789001**********                                               0501
A0101407720000003886911TAMAYO, MA BELEN EVANGELISTA                             0501
B0101404260611034987001JS TRAVEL & TOURS                                        1606
A0101404260611335308002ALIMBOYONG, JOSEPHINE MAHINAY                            0503
A0101404260611478374085ROSALINA SUMILE                                          0501
A0101409920650478374005CRISOSTOMO, MA. EMELIA GASPAN                           10501
A0101409920650478374005MEMBERS OF NATASHA                                      20500
A0101409920000001951942MEMBERS OF NATASHA (SHOECAT INC                         10501
A0101409920000001951942TULAYBA, ARLENE                                         20500
A0101413570000001069443**************                                           0501
A0101410300000004361642SISON, JOSE VICENTE GALSIM                               0502
A1301400340000000926938MOLINA, REALYN COSTO                                     0502
A1301400500000001412366RUSTIA, GERARD CALUAG                                    0501
A1301400500000003070139SUGAR DADDY MARKETING                                    0502
A0101408240711643338001ARCAYA, MICHELLE GRASPARIL                               0501
A4101400550000001332461GONZALES, CARLOS CATALLA                                 0501
A0101404840851478374171LORENA A. ARES                                           0501
A0101404840851520766071TERESITA SANTOS                                          0502
A0101406750000000017490SESE, ALDEN ANTHONY DIZON                                0501
A0101406750000000480751DIMAPILIS, TERESITA GUNIO DBU                           10501
A0101406750000000480751TGD IMPORTZ TRADING & SER                               20500
A0601400230000000045241CANINO, CRISTINA FERNANDEZ                               0501
B0601400230891029282001L5 & SONS FINANCING CORP.                                1610
A0601400230891363362001MARITESS P. FLORES                                       0501
A0601400230891398766001..........                                               0502
