B0101408790383821100608**********                                               2005
A1101400120000003981157CASIO, GIL POTESTAD DBU GIL                             10502
A1101400120000003981157LUMBER DEALER                                           20500
A1101400120000009119546DUGANG, DAYLENE ABING                                    0502
A0101412500000012648881DIAZ SR., JULIO TAYOTO                                   0501
A1901400290000001926263LORAMEN M MAGSINO OR                                    10501
A1901400290000001926263MICHAEL D MAGSINO                                       20500
A1901400290261488341053DRA. HELEN PEREZ COMIA                                   0502
A1901400290000011244670NORIE HARINA SANTIAGO                                    0502
A1901400290261772647001ALEX CAMOS BUQUIR OR                                    10501
A1901400290261772647001MARIA LUCY GUCE BUQUIR                                  20500
A1101400120000003595955COLLANTES, JERMAINE JARDIN                               0501
B0101408400394019978002BACOLOD WORD OF LIFE MINISTRIES,                        11601
B0101408400394019978002INC.                                                    21600
A0101400150000003163077MARYLAND BETHESDA D. CLEMENTE                            0502
A0101400150000012660218MCGINNESS, SHANNON KATHLEEN                              0501
A0101400150000009399728ALMONTE, LUDIVINA TAN                                    0501
A0101400150000012145703VALDEZTAMON, ALVIN RIO USMAN                             0501
B0101400150061010860001TRIPLEX ENTERPRISES INC.                                 1602
B0101400150061010860001TRIPLEX ENTERPRISES INC.                                 1602
A0101400150061337098169MA. GISELLE A. LICERALDE                                 0502
B0101400150061451901001BIOMASS RESOURCES, INC.                                  1601
B0101400150061584014001PNEUMATIC AND MECHANICAL SERVICES INC.                   1602
A0101400150061686122001ZABALETA, JUAN XAVIER PONS                               0503
A0101405810072354724003FUENTES, LILIA S.                                        0501
A0101405810072376362001SEE, ROSARIO LIM                                         0503
A0601400100081501761001TAN, WINTHEL OR RALPH                                    0502
A0601400520000009516918RESURRECCION, NELINDA CAMARISTA                          0501
B0101414090000007344610CTZ-CARGOTRANZ SHIPPING AND TRANSPORT                   11602
B0101414090000007344610INC.                                                    21600
A0101400730111386485042ELENA B. PEREZ                                           0502
A0101400730111568458001BACCAY, CARMELINDA BUNQUIN                               0501
A0101406040112092241001********                                                 0501
A0101401960000004419830**********                                               0501
A0101413150000000038480**********                                               0501
B0101401830141029678001RINA TRANSPORT SERVICES                                  1602
B0101407270000012655493IDOLTAP PRODUCTIONS AND STUDIOS, IN                      1601
A0101401090171196050001DR. MENNEN ALSOL OR ANNA ALSOL                           0502
A0101401090171334282002*******                                                  0501
A0101401090000004753782RABACAL, MARIPIA PASCUAL                                 0501
A0301400530000012660689PINTUAN, SUSAN ADO                                       0501
A0301400530193044599168INSIDE ROOM INN                                          0502
A0301400660000003405967MARY ANN B. CUA OR EDWIN Y. CUA                          0502
A0301400790000005692173SIMON, DIOSEE GENTILES                                   0501
B0301400950000011415175BOOMIN' & BLOOMIN' BRAND INC.                            1602
B0101410720210821100608**********                                               2002
A0101412500000012644252PEREZ, MARIA HOSANNA ALVARO                              0501
A0101412500000012663360GOTERA, MA. LOURDES MENDIOLA                             0501
A0101412500000012663491MERU, JONALYN PERALTA                                    0501
B0101412500000000041670MOLDEX REALTY INC.                                       1605
B0101412500000000041692MOLDEX PRODUCTS, INC                                     1603
A3101400160000001559213IAN GARY C DELA TORRE                                   10501
A3101400160000001559213JACQUELINE A DELA TORRE                                 20500
A3101400160221386295002ROBERT J. BANATIN                                        0501
A3001400130000009103662SERRANO, GENELIN                                         0502
A3001400130230688380002**********                                               0501
A1001400190231093042001ALBASE, RAMON BURACHO                                    0501
A1001400190231093042001ALBASE, RAMON BURACHO                                    0501
A1001400190231478374056AMANTIAD, MAY                                            0501
B1001400350233034673001AJ WOOD PRODUCTS, INC.                                   1601
B1001400350000007920956F.E.D. CONSTRUCTION COMPANY, INC.                        1602
B1301400470000000009583PCCD FOODS CORP.                                         1601
A1301400470252507868001EDGAR P. CASTILLO, JR. OR                               10501
A1301400470252507868001EVANGELINE N. CASTILLO                                  20500
A1301400470252527415001MA. CRISTINA SALAZAR OR                                 10501
A1301400470252527415001MARIA PRISCILA GUTIERREZ                                20500
A1301400760000001295461MYRA JAZEL C. AUSTRIA                                    0502
B1301400760000000050860ENCORE LEASING & FINANCE CORP.                           1601
A0101406460272189284001**************                                           0501
B0101406620273036337001*************                                            1601
A0101406620273301500003LORENA E. VELARDE                                        0501
A0101406620273508834001PAGATPATAN, DANIELLE GONZAGA                             0501
B0101411820000003085112HARDCOM COMPUTER SYSTEM CO.                              1601
B0101411820000003085141HARDCOM COMPUTER SYSTEM CO.                              1601
B0101400570281007593001KINGSFORD ENVIRONMENTAL PHILS INC.                       1602
A0101400570281596416002SUSAN M. ALONZO OR                                      10504
A0101400570281596416002BENJAMIN T. ALON                                        20500
A0101411240000007845001CARSOLA, AGNES COLLADO                                   0502
A0501400200000002306127OYAMAN, GERTRUDES ABANDO                                 0502
B0801400160311100161001PRUDENTIAL CUSTOMS BROKERAGE SERVICES,                  11603
B0801400160311100161001INC.                                                    21600
B1101400120000000652442GICABAO, KATHLEEN JOY NG OR GICABAO,                    11603
B1101400120000000652442BONGKOK CHAN                                            21600
A1101400120000009119637GLOBA, ROSALIA ABRAHAM                                   0501
A3401400280000004958621CASTRO, MARILYN DELA CRUZ                                0501
A3401400280000006791100FERNANADO D. BEGAS JR.,                                 10502
A3401400280000006791100DBU BEGAS MERCHA                                        20500
B0101402350321046815001CASA DE SEQUOIA-AVILA CONDOMINIUM CORP                   1603
B0101402510000011827002ROA & ASSOCIATES, CPA'S                                  1602
A0101402510341196566001LUZVIMINDA G. CRUZ                                       0501
A0101402060351214812002BANTIGUE, WILLIAM OR ANGELITA                           10502
A0101402060351214812002OR JOHN PAUL OR                                         20500
A0101402060351464138001SALAZAR, CHRISTINE ANN DELA CRU                          0501
A0101409050000000999580CONOZA, JORDAN CHRISTIAN TAN                             0501
A0101409050000007511908TADENA, MIRASOL VENERABLE                                0504
B0201400760374030513001RQLIM RESOURCES, INC.                                    1601
B0201400760000005016682MARTIR, KATHE  DBU HAPPY FIT OPTICA                      1601
B0101402930381100004001MANILA ELECTRIC COMPANY                                  1602
A0101408790000000579751JACQUELINE CALIXTO                                       0501
B0101408790383040950001REDDS CONSTRUCTION & DEVELOPMENT                        11602
B0101408790383040950001CORPORATION                                             21600
A0101411660000003580341BESSIE L VALENZUELA                                      0502
A0101402770391403390001GEOFFREY PHILIP Q. NG                                    0501
B0101405490392030594002ESPINOSA REALTY INC.                                     1601
A0101408400000011986740ROXAS, CYNTHIA CORAZON DE GUZMA                          0501
A0101408400394034391001INTEGRATED TELENET SOLUTIONS CO                          0502
A0101408400394308077001DE LEON, JEAN YABUT                                      0501
B0101408950000006424882H2004 VENTURES INC.                                      1603
A0101408950396695350001ARANDIA, EDSEL FERNANDEZ                                 0501
B0101409180000000036600YOURSOURCE CORPORATION                                   1601
B0101409180397777777008DHOLWANI, GEETA OR DHOLWANI, MADHU OR                   11601
B0101409180397777777008WANI, VICTOR OR                                         21600
A2401400180000007031541JUVINREY TRADERS                                         0502
A2401400180000005536563GUINTO, ANNA CORINNA ASTURIAS                            0510
A2401400180411478374027ELLEN PANTUJAN OR                                       10502
A2401400180411478374027ELMER PANTUJAN                                          20500
A0901400220000007072499**********                                               0502
A0101403320000000522085SARMIENTO, LEAH GRACE SUPELANA                           0501
B0101410140000007303642KABUHAYAN SA GANAP NG KASARINLAN CR                      1610
B0101412760000007821812MAKE STUDIOS INC.                                        1602
A1901400160000012657222MERCEDITA M DRAGONE OR                                  10501
A1901400160000012657222NICOLE M DRAGONE                                        20500
B1901400160491050626001STCJ MULTIPLE INTELLIGENCE SCHOOL, INC.                  1602
A1401400110000001806920LAMES, EDGARDO LLAGADO                                   0502
A1401400110000011337432YNGENTE CAMOTA, NANCY JOSE                               0502
A0101407430503014947001SPV FORWARDERS SERVICES                                  0502
A0101407430503510833001MAGARANG, FEDERICO PAUDAC                                0502
A0101405940000001210006ALZONA, ANGELICA ROSELLO                                 0501
B0101405940512021682001PINNACLE PROPERTIES INC.                                 1603
A0101405940512151484001TERESITA P. SAMONTE                                      0501
A0101408530000000035925CASTRILLO, MILISA CAOIBES                                0502
A0101408530516593577111AUSTRIA, ELIZA DY                                        0501
A0101411790000000039303GAN, JOSEPHINE DELA CRUZ                                 0501
A0101411790000009841530SALAZAR, MARILYN DE DIOS                                 0501
B0101403450521011770001**********                                               1601
A0101403450521238091001**********                                               0503
A0101403450521321842001**********                                               0501
A0101403450521357127001**********                                               0502
A0101403610000001174852AUSTRIA, FELICISIMO SORIANO                              0501
A0101403610531492950001SY, WILSON CATANO                                        0510
A2201400250561040968003PADRE PIO ENTERPRISES                                    0502
B0101404130000005017652GAME CRAFT INC.                                          1602
A0101404130601466566002TUMANG, SHARON ADONA                                     0501
A0101404130601776831001ROSETE, RONALDO BONILLA                                  0501
B0101407720602023217001DAUGHTERS OF MARY IMMACULATE INTERN                      1601
B0101407720602463868002MAKATI HEALTH SPECIALIST CONNECTION, INC                 1602
A0101407720000000510870SALUD, VINCENT CERVANTES                                 0505
B0101407720602697838001NCT SPA CORPORATION                                      1602
B0101404260611026599001FILIPINO PEST CONTROL AND GENERAL                       11610
B0101404260611026599001SERVICES, INC.                                          21600
B0101404260000000156972PRIME POWER MANPOWER SERVICES                            1650
B0101404260000000156972PRIME POWER MANPOWER SERVICES                            1650
A0101404260611546282001ONEZA, MARILOU ESTRELLA                                  0501
A0101407690000003207343RECODO, NEOMILYN BALANAY                                 0501
A0101407690652478374032LILIA SOLOMON - DEALERS OF                              10502
A0101407690652478374032SHOECAT INC                                             20500
A0101413440000007953015**********                                               0502
A0101413570000000206260AC SHOWEREN 2000                                         0504
A0101406590000002277494DIZON, KAREN TRACY CADORNA                               0503
A1701400230693478374044CECILIA CORRALES                                         0501
B0101408240000010815142SHIELDCOACH SECURITY COMPANY                             1601
A0101408240711453117001MICHAEL RICHARD RAMIREZ                                  0501
A0101408240711478374015EMILY MONTILLANO                                         0502
A0101408240711656808001RAMIREZ, ANNA CARMELA OR                                10501
A0101408240711656808001MICHAEL RICHARD                                         20500
B2801400100712035579001PERDIDO KEY DISTRIBUTION CORPORATION                     1601
A2801400230000001782130GOLDEN STATE ALUMINUM GLASS &                           10505
A2801400230000001782130GENERAL MERCHAND                                        20500
A4101400260000000541193MAGNANAO, MARIA THERESA P.                               0501
A4101400260000011418181TUAZON, RUTH TURLA                                       0501
B4101400260812012643001KUM KANG CERAMIC PHILS. CO., INC.                        1604
A4101400420000000120970REYAN S. LINCAY                                          0501
A0101412340000003343393VENUS A. GAGABI                                          0501
A0101412340000006386441AILEEN Q. SOCHAYSENG                                     0501
A0101404840851520766058JOLARIE ANN DECENA                                       0501
A0101404840851520766067JOSEPHINE V. GABAYERON                                   0501
A0101406750000002040317TIGNO, ALEXANDER MORALES                                 0501
A0101405070861478374004WINIEFRENDA O. PILANDE                                   0505
A0101413860000001886844PERLAS, KENNETH MASALUNGA                                0501
A0101413860000001886844PERLAS, KENNETH MASALUNGA                                0501
A0601400230891409285001NESTOR OR CORAZON YAMBAO                                 0501
