B0101406590662042173001NEW ARCOND BUILDERS INCORPORATED                         1601
A0301400950000006080257TOUGH18 TIRE MARKETING                                   0502
A0101400150000013484283MENOR, MARY JOY LAGDAMEN                                 0501
A0101411240000013962035BLAS, ERICKA LAIZA MATEO                                 0501
B0101400860000007087121**********                                               1602
A0101400860011421630001**********                                               0503
A0101400860011443455002**********                                               0505
A0101400150000003164678JENNY GWEN J. IGNACIO                                    0501
A0101400150000007280460CHAVEZ, MA ELIZABETH NICER OR                           10501
A0101400150000007280460CHAVEZ, ARMANDO NICER                                   20500
A0101400150000014918842KING, HENRY RIVERA                                       0501
B0101400150061047933001LBP LEASING AND FINANCE CORPORATION                      1601
A0101400150061229814002LEONCIO C. LIM                                           0501
A0101400150061290485002ERIBERTO LUIS ELIZAGA                                    0503
B0101405810000001021172PUA, C DBU MCK SCHOOL & OFFICE                          11603
B0101405810000001021172SUPPLIES                                                21600
A0601400100000014907316SEVILLA, KENNEDY KING                                    0501
B0601400100081251835004TORRES, ROBERT/MARY ANNE/ROBERT JR. AND                 11603
B0601400100081251835004ONG, JONATHAN                                           21600
A0601400100081355483001GEROCHE, JOEFREY BUENAVIDEZ                              0502
A0601400360000014907305DE JESUS, ANGELICA MERCADO                               0501
A0601400360000014907429HERMOSO, RONNEL DANIEL BACARRO                           0501
A0101410850000013601848TAN, BEATRIZ REYNOSO,                                    0501
B0101410850109057711001SWAN SHIPPING CORP.                                      1605
A0101400730111471027001BENEDICT JESS FERRER OR LOURDES                         10501
A0101400730111471027001 FERRER                                                 20500
A0101406040112659686001********                                                 0501
A0101401960000010787483ISLA, DEVINE GRACE LLAGAS                                0502
A0101412630000007168712FORTICH, DIANE TAGAPULOT                                 0502
A0101413310000001794578REYES, RYAN JOSE LOQUE                                   0501
A7201400170000003773120ASUGAS, GRACE MARIE NARCISO                              0503
A0101412920000014085975CLAVECILLAS, ARNS RASHEED                               10501
A0101412920000014085975GARCIA                                                  20500
A0101400440000013845473ROJAS, JOSE ELTON TERGA                                  0501
B0101400440000000821123VICENTE, EMMANUEL DBU MAV PETRON                        11601
B0101400440000000821123SERVICENTER                                             21600
A0101400440161478374144CELERINA M. MARASIGAN                                    0501
A0101400440161525001095MARITES T. TAPIADOR                                      0501
A0101400440161525001125MAY M. RAMOS                                             0501
A0101400440161525001179EDNA S. VILLENA                                          0502
A0101400440161574323001MARISSA P. MAGPAYO                                       0502
A0101407270000014908553LEICHT, STEFAN WERNER                                    0501
B0101407270162052125002DELISCENTS, INC.                                         1610
B0101407270000000830506HANSBURY, INC.                                           1610
B0101407270162061497001GRAND TAIPAN LAND DEVELOPMENT INC.                       1605
A0101407270162331908060BERNARD JOSEPH VELASCO                                   0502
A0101401090171198008001PEARL OR JOY AMETHYST OR BENSON                         10501
A0101401090171198008001OR GLADNESS MART                                        20500
A0101401090000001611405VARGAS, ANDREA GERCAYO                                   0501
B0301400530193041338001CALIAN AGRI-VENTURES, INC.                               1605
B0301400530193043459002MARSMAN ESTATE PLANTATION, INC.                          1610
A0301400530000003573288COSMENO, JELLY JUANILLO                                  0501
B0301400660000002348541ERVY LOGISTICS                                           1602
B0301400790195062743001GREATSYSTEMS WORKX, INC.                                 1601
B0301400950196066278001WCTI SOLAR POWER SERVICES                                1602
B010140138020103504200183EM ENTERPRISES                                         1606
A0101412500000006708336TAN, JEROME MONTIERO                                     0501
A0101412500214349654002MANAOIS, VICTORIA PENALBER                               0501
A0101413600000005227992ABIGAIL O. ENRIQUEZ                                      0502
A0101413600000005355084KENYON S. CHEE                                           0505
B3101400160000010010741VERGARA JR., PORFIRIO JORVINA DBU                       11602
B3101400160000010010741VRJ ENTERPRISES                                         21600
B3101400160221224862001JOYME ROCKSCAPES CORPORATION                             1602
A3101400160221679655001WINNIE O MARANAN                                         0501
A3101400870000007622400NUGUID, JULIET LAGUMBAY OR                              10501
A3101400870000007622400NUGUID, RUPERTO                                         20500
A3101400870000014911812APORONGAO, JENNY LIMPIN                                  0501
A3001400130000008916309MONES, POCHOLO NIKKO ASIS                                0502
A3001400130000008264864CACAFRANCA, KARL RUSSEL INOCENC                         10501
A3001400130000008264864IO                                                      20500
A3001400130230767566064BALAHAY, ETHEL OCULARES                                  0501
B1001400350000014892836LAO ACCOUNTING OFFICE                                    1601
B1001400350233040744001GOLDCREST MARKETING CORPORATION                          1601
A1001400350000000017165MEN DBU A&L MARKETING SOLUTIONS                          0501
A1001400480000014845613LIM, ROSANNA ROSALES                                     0501
A1901400290261355605001PAZ CRISTIANA TIAMSIM LANDICHO                           0501
A0101401670000009425532SUBIDA, MARY ARENAS                                      0501
A0101401670000013222354ALBERT P. CARAG JR.                                      0502
B0101408660000000373120STRATHMORE MANAGEMENT INC.                               1601
A0101408660000005109831YAO, OLIVIA BORLONGAN                                    0501
B0101410980000003479458RATTRAPANTE INC.                                         1601
A0101400570281186881002SANTAMARIA, MA. ZENEIDA SERRANO                          0502
A0101400570281344838001AUGUSTO GUTIERREZ REYES OR                              10502
A0101400570281344838001MARITA REYES                                            20500
A0101400570281492316001COLMENAR, MANUEL TOMAS ILANO                             0501
A6601400120000003673056EVASCO, OTELIA ENRERAS JT                                0503
B0101402350321006697001CATALINA AND SONS, INC.                                  1605
A0101402350000003080399BALUTAN, ROSALIE TALISAYSAY                              0501
A0101402350321542967001ABUNDIENTE, JONATHAN GUMBA                               0502
A0101402060351324318001EUN SOO PARK                                             0501
A0201400920375524523001MIEL, PRINCESITA OR MIEL, ALEX                           0502
A0201400890376080642001GALANG, LORLIE PACURIBOT OR                             10501
A0201400890376080642001GALANG, GLENN AN                                        20500
A0201400890376763623001**********                                               0501
A0101402930000010658096MAGNO, ARNEL LAUREANO                                    0501
A0101402930000013537361CANAPI, MARITES BINULUAN                                 0501
B0101402930381009079001THE AMERICAN EYE CORRECTION                             11610
B0101402930381009079001CENTER INC.                                             21600
A0101402930381205144001LYRA RUTH CLEMENTE-CHUA                                  0501
B0101408370000007031410VIRI CIBUS MEDICINAM, INC.                               1602
A0101411660000003580210LEILANI ESTEBAT                                          0501
B0101411660384046304001ELITE GLOBAL SOURCING PHIL. INC.                         1602
A0101415350000014531216GO, PIA MARIE B.                                         0501
A0101402770000006642839AVILA, KIMBERLEY FLORES                                  0501
A0101408400000001855381ABSA BUILDERS                                            0503
A0101408400394406768001DELOS REYES, LILIBETH MANUEL                             0501
A0101408400394412453001TAYAG JR., DANILO OCAMPO                                 0501
A0101408400394478374061SONAJO, LOLITA C.                                        0502
A0101408950000002255381ORTILE, MARY ANTONIETTE LUCILLE                          0501
B0101409180397042779002***                                                      1603
A0101412210000013721363RIINGEN, MARIA PATRICIA ZAMORA                          10501
A0101412210000013721363OR ZAMORA, MARTIN ANTONIO                               20500
A0301400820000013996291DINO, ANTHONY L. OR MOMO,                               10501
A0301400820000013996291SHINYBELLE Y.                                           20500
A5501400120000014874612TEFORA, JENNIFER LEYSA DBU RAFM                         10502
A5501400120000014874612AN AGRI SUPPLY AND FARM S                               20500
B5501400120000005492402PRIMOS UNIDOS FOOD CORPORATION                           1602
B2401400180411014376002PENBANK, INC. (A PRIVATE DEVELOPMENT                    11603
B2401400180411014376002BANK)                                                   21600
A0901400220000002300845LIM, RENEEROSE VESAGAS                                   0502
B0101403030441043810001CORE SOURCE TRADING                                      1606
A0101403030000014004756**********                                               0501
A0101412890000011813022BONA, REYMAR AFABLE                                      0501
B0101403320471019960002DIRECT ELECTRIX EQUIPMENT                               11605
B0101403320471019960002CORPORATION                                             21600
B0101403320471034459001LORDCHEM INTL. CORP.                                     1605
B0101403320000001647149UNIGOLD EVENTS AND PROMOTION MANAGEMENT                 11601
B0101403320000001647149INC.                                                    21600
A0101403320000001803418MARIANITO CRUZ OR                                       10502
A0101403320000001803418JULIETA CRUZ                                            20500
A0101406330000014145085PABALATE, MARK GJEFFERSON                               10501
A0101406330000014145085ESTRELLADO                                              20500
A0101406330000014904511RABANG, CEZAR DBU RABANG                                10501
A0101406330000014904511MARKETING & CONSTRUCTION                                20500
A0101406330472206513002MARIO QUE                                                0502
A0101406330000011106031DELA CRUZ SR., WILSON COLLADO                            0502
B0501400170000000018317DAGUPAN DOCTORS VILLAFLOR MEMORIAL                       1602
A3801400170490757939001RENEL GARCIA MEDINA                                      0502
A3801400170490759443001ACOB, ELEANOR OR BROTONEL,                              10501
A3801400170490759443001ELVIRA OR CACHA, EVELYN                                 20500
A1901400160491035294001BATANGAS CITY GOVERNMENT                                10510
A1901400160491035294001EMPLOYEES CREDIT                                        20500
A1901400160491244484001IRENE H BERBA OR                                        10510
A1901400160491244484001CARLOS R BERBA                                          20500
A1401400110492391345002R'S WINE CENTER                                          0502
A1401400110492471992001*************                                            0503
A1401400110492524359001VELUYA, DALISAY BRIONES                                  0501
B0101403580000000015790MEC - SFHS                                               1601
B0101403580511020857001ROBROS INCORPORATED                                      1605
A0101403580511156550002SARITA S. GARRATON                                       0503
A0101403580000000016053MARIA CARMINA S. MESIAS                                  0508
A0101403580000004683052NARDONE, JENNIFER REYES                                  0501
B0101408530000001275172PHILIPPINE BRITISH ASSURANCE CO., INC                    1615
A0101408530000011779932**********                                               0501
A0101411790000004807990RAMOS, JANUARIO BERNARDO                                 0501
B0101412050000007801552NORTH ASIA CENTRAL MANPOWER SERVICE                      1603
A0101403450000001638031UY, MARJORIE CHUA                                        0501
A0101404130601354508001LOLITA M. HODREAL OR                                    10505
A0101404130601354508001JOSEPH M. HODREA                                        20500
A0101407720602397271001OZAETA, MA. RAMONA PABLO                                 0501
B0101404260611024952001EFGEN DEVELOPMENT & REALTY CORP.                         1602
A0101404260611150902001MARITESS OR BERNARD PAMA                                 0501
A0101404260611343821005FONTANOZ, EDGAR PABROS                                   0501
A0101409920000001951851MEMBERS OF NATASHA (SHOECAT INC                         10501
A0101409920000001951851ANNALYN E. AMPELOQUIO                                   20500
A0101407690000008045823BARCELONA, JONATHAN DBU                                 10504
A0101407690000008045823BDZ TRUCKING SERVICES                                   20500
A0101413990000014917383MOLO, ELEDON MULETA                                      0501
A0101413990000014917907DOCTOR, DANTE MAESTRE DBU FMD                           10501
A0101413990000014917907REF-AIRE ENTERPRISES                                    20500
A0101406590662363529001CASTRO, SOFIA QUEYQUEP                                   0501
A1301400210682500958001ESTRELLITA M. ESTABILLO                                  0501
B1301400340683025603001LINCOPHIL ALUMINUM MFG. CORPORATION                      1601
B1301400340683032709001LINCO METALWARES CORPORATION                             1601
A1301400340683552624001ENRACA, MA. THERESA GREGORIO                             0502
A1701400230693712781002BLAS, SAMUEL SIMEON JT                                   0503
B0101408240711042252001MARINELINK TANKERS CORPORATION                           1610
A0101408240000000522001OROBIA, JOSE RAMON INUMERABLE                            0502
A2801400100712375669002SEVA, MA. JESUSA SANTOS                                  0501
A2801400230000001782083DE GUZMAN, LITO C. DBU D.G.L                            10501
A2801400230000001782083MOTOR WORKS & GE                                        20500
A4101400390813313743001SANTOS, IAN VIRGO BARTOLOME                              0501
A4101400550815046007001DIGIBOX PRINTING SERVICES                                0501
A4101400550000007583802LEE, CHOONG HO                                           0501
B0101404840851009288001CHRIST BAPTIST CHURCH                                    1602
A0101404840851210994001LIGAYA P. GASCON OR                                     10502
A0101404840851210994001MARIA LOVELY DEL                                        20500
A0101404840851509869001LABOG, MERLIE MANIO                                      0502
B0101406750852474662001SECURITY MARKETING & PEST MANAGEMENT                    11603
B0101406750852474662001INC.                                                    21600
B0101405070861197658001****************                                         1602
B0601400230000011168357MAA GENERAL ASSURANCE PHILS., INC                        1601
