B0101410300663047358001CAGC LADIES CHAPTER                                     11601
B0101410300663047358001CAGC LADIES CHAP                                        21600
A0101410300000006278777*****                                                    0501
A0101400440161478374107MARITES R. CRUZ                                          0504
B0101400440000000337740ERWIN AGUSTIN AND DAIZY SACAGUING                        1602
A0101400440161676185001DAIZY S. SACAGUING                                       0503
B0101413020000006295572SRV 888 INTERNATIONAL TRADING CORP.                      1601
A0101408370382394648002DRS. IRMA GERONIMO TAN NUNEZ OR                         10504
A0101408370382394648002ANTHONY RICHARD G. NUNEZ                                20500
A1901400160491494343001RAINIER C UNTALAN OR                                    10505
A1901400160491494343001RELYN M UNTALAN                                         20500
B0101406590662034552001CHANBAR BUILDERS CORPORATION                             1602
B0101410300663047358001CAGC LADIES CHAPTER                                     11601
B0101410300663047358001CAGC LADIES CHAP                                        21600
A0101410300000004361653TAN, MARICEL MAMBURAM                                    0501
B0101402060351073248001CIANEZ CORPORATION                                       1601
A0101412760476048071001DEPANO, BERNADETTE GATCHALIAN                           10502
A0101412760476048071001DBU BERICH TRADI                                        20500
B0101407430000000035214FLIGHT RAJA TRAVELS PRIVATE LIMITED                      1601
A0101405940000007540612GONZALES, MICHAEL CONDE                                  0502
A0101405940512652774001GO, KIAN LIN LI                                          0502
A0101406590662036406001RODRIGUEZ, RACHEL DBU RED                               10503
A0101406590662036406001ROASTER GOURMET                                         20500
A0101410300000005237747***********                                              0501
B0101410300000005331726ELPILU, INC.                                             1602
A0101412340000003340963CHARMAINE KATHLEEN S. BABAS                              0501
A0101412340000003342065ARNOLD E. CORTON                                         0501
A0101412340000003343893PAUL NINO S. JAVIER                                      0501
A0101412340000003718741DIWANI C. ALEGRE                                         0501
A0101400860000011515950**********                                               0501
A0101400860011086423001**********                                               0505
B0101400860011399627003**********                                               1605
A0101400860011557547001**********                                               0501
A0101400860011635682001**********                                               0505
A0101401250021468980001GENELYN C. CARTON                                        0502
A0101411370022790042001HELEN L. CO OR MICHEL S. CO                              0501
B0101411370022821100608**********                                               2001
A0101400150000003141373WYNES, ROY SCOTT                                         0501
A0101400150000003141500ROQUE, DANTE VILLAMOR                                    0503
A0101400150000004090464ESCALER, NOEL DE LEON OR                                10504
A0101400150000004090464GERARD ESCALER                                          20500
B0101400150061011144001FORMSMASTER COMPUTER PAPER, INC.                         1601
A0101400150061226423001TUNGPALAN, ERLINDA                                       0501
A0101400150061226941001ROBERTO L. CO OR                                        10501
A0101400150061226941001DOLORES I. CO                                           20500
B0101400150061290060001UNION CEMENT HOLDINGS CORPORATION                        1601
A0101400150061373516001LIM, GORDON VERRA                                        0501
A0601400100000006092680GUECO, ADRIAN DE LEON                                    0501
A0601400100081254937001LACAP, REV. FR. JOSE (USI)                               0502
B0601400100081579627001RED PLANET HOTELS PHILIPPINES CORP.                      1610
A0101410560000005280520JANNETTE C. ATUEL                                        0501
A0101410560000000590603AL O. MONRAYO                                            0501
A0101410560000000590556GUTIERREZ, DOMINICA DALISAY                              0501
B0101400730111015420001FELANER REALTY DEVELOPMENT CORPORATION                   1606
A0101400730111481455001JACINTA Y. PHOA OR                                      10506
A0101400730111481455001BELINDA O. TAN                                          20500
B0101400730111579627001RED PLANET HOTELS PHILIPPINES CORP.                      1610
A0101406040000003332932********                                                 0502
A0101401960000005392554LIN, YUZHU                                               0502
A0101401830141397459001LACANLALAY, FLORINDA MANUEL JT                           0501
A0101401830141482333002ONG, ELAYNE FRIAS OR ONG,                               10501
A0101401830141482333002ERWYNN ALDERETE                                         20500
A7201400170000003774163MACARIO N. SEPADA OR                                    10505
A7201400170000003774163JUVY P. SEPADA                                          20500
A7201400170000011201224AGUISANDA, CATHERINE LAGERA                              0501
A7201400170000009673265ETA, ROLAND PERIGO                                       0502
A7201400170000011454276MALINAO, AMESILE MAGHINAY                                0502
A0101412920000005193900EDORIA, JOEVON MITAL                                     0501
A0101412920000012287855YANOS, RENATO DOMINGO                                    0505
A0101400440000004901513GO, MELISSA ANNE BUSTAMANTE                              0502
B0101400440161026216001TELEGA, INC.                                             1605
A0101400440161272899001*****                                                    0502
A0101400440161441960001TIMOTHY JOHN G. DIVINAGRACIA                             0501
A0101400440161459294001MARY ANN T. REGINALDO                                    0502
A0101400440161478374042PEARLY ROSE ALEJO                                        0501
A0101400440161525001119NORA S. TALENTO                                          0501
A0101400440161525001173ELIZABETH V. FAJARDO                                     0501
A0101400440161621420002CANO, EDWIN SANTOS                                       0501
A0101407270000013048312AQUIA, MOHAMAD TIMPOLOK                                  0505
B0101407270000011558268INFINITE DEALS CORP.                                     1602
B0101407270162016355001ONWARD COMMUNICATIONS & SERVICES                         1604
A0101407270162333465009NUCUM, REMILYN E.                                        0502
A0101407270162739083004JIMMY P. HERNANDEZ                                       0501
A0101401090171198491002LARRY &/OR JOSILYN KING                                  0502
A0101401090171225530001BEE-GIOK TAN-SALES OR                                   10502
A0101401090171225530001RENATO SALES                                            20500
A0101401090171565714001ANGELA ROSE HERNANDEZ                                    0501
B0301400530193691303188********                                                 1605
B0301400660000000022891TECHNO-TRADE RESOURCES, INC.                             1601
B0301400660000000194967MINDANAO TRANS CARRIERS CORPORATION                      1602
A0301400790000003969262GENTILES, DIOSA C. AND                                  10503
A0301400790000003969262GENTILES, PHILLIP C.                                    20500
A0301400790000005692219VAPOR, ROLANDO FULMERNAR OR                             10501
A0301400790000005692219VAPOR, EVANGELINE BADE                                  20500
A0301400790000009412460HERRERA JR., JUAN RAMOS                                  0501
A0101413020000000056795CHUA, PH HERMELINA UBALDO                                0505
A0101410720000000234933BACAY, MARIBETH                                          0502
A0101410720653174169002GALVEZ, GLENN ANTHONY BAJA                               0501
A0101410720653299707002GALVEZ, GERALD JOSEPH BAJA                               0502
A0101410720653405344001ROGADO, EVA DELGADO                                      0502
B0101410720653615648002ASE I.T. HUBLINX INC.                                    1601
A0101412500000002305066MOLDEZ, HERMAN ALVARO                                    0501
A0101412500000002304694VALENCIA, GABRIEL PIETRO CACHA                           0501
B3101400160221017929001PILI BATTERY SALES, INC.                                 1602
B3101400160221065820001TOYOTA CALAMBA, LAGUNA INC.                              1603
A3101400450000012147807MACABUHAY, FLOREDEN ARBIS                                0501
A3101400450223044155001AGRIPLUS CENTER CO.                                      0501
A3101400870000000957666MARASIGAN, JAMES ILAGAN                                  0502
B1001400190000003881903LAURON, ALEXIS PEREZ DBU BOSSMANN TRADIN                11603
B1001400190000003881903G AND ENGINEERIN                                        21600
B1001400190231300482001ORO SOLID HARDWARE, INCORPORATED                         1603
A1001400190231520766117TAROY, MARIONNE ANGELOU SALEM                            0501
A1001400190000001057396LOLITA B. DULCA                                          0501
A1001400190000001057589NORMALIS C. REYES                                        0501
B1001400350233037754001FIRST MINDANAO OPPORTUNITY VENTURES                      1601
B1001400350233040292001OIRASOR MANPOWER RESOURCES CORPORAT                      1603
A1001400350000000017712VILLODRES, KARL ROBERT B.                                0502
A1001400480000008501922BOLLOZOS, SHELDON LABASAN                                0502
A1001400480000013253537ENRIQUEZ, ALVIN TAN                                      0501
B1001400480000003357840BALDADO, MARIA LYDIA PEPITO DBU JOMARI                  11602
B1001400480000003357840TRUCKING SERVICE                                        21600
A1901400290000003435670LILYBETH HERNANDEZ VALDESANCHO                           0501
B1901400290000001363111TEODORO-LANDICHO INCORPORATED                            1601
A0101401670271228042001TINIO, JUAN ANGEL LIGON                                 10501
A0101401670271228042001OR TINIO, MARIA                                         20500
A0101406460000001231554WEE, AUDREY ANN SY OR                                   10503
A0101406460000001231554WEE JR., CESAR L                                        20500
B0101406460272007487001FOODMACH, INC.                                           1604
B0101406460272021483001STALLION REALTY DEVELOPMENT                             11602
B0101406460272021483001CORPORATION                                             21600
B0101406460000000182483WEE COMMUNITY DEVELOPERS, INC.                           1603
A0101406460272190124002UNSON, MA. LUISA D.                                      0502
A0101406460272548275001SUNGA, PETER EDWIN JAO OR                               10502
A0101406460272548275001SY JR., MARCIANO                                        20500
A0101406460272789592001*************                                            0501
A0101406620273418262001NELLY CLETO OR ALFREDO MARIANO                          10501
A0101406620273418262001OR NAIDA MARIANO                                        20500
A0101408660274371567001DEL CARMEN, MICHAEL                                      0502
B0101411110000007950761***********                                              1601
A0101411820000003838211CHERRYLEN TORNO                                          0501
B0101412470000000045401SHIN MANN-HANN CORPORATION                               1601
B0101412470000002338872ACTS ACHI & AHIA, INC.                                   1602
B0101400570281015729001SLMC EMPLOYEES ASSOCIATION - AFW                         1602
B0101400570281039543001MUSIC COPYRIGHT ADMINISTRATORS OF THE                   11602
B0101400570281039543001PHILIPPINES                                             21600
B2601400270302045063001ISABELA UNITED DOCTORS MEDICAL                          11620
B2601400270302045063001CENTER, INC.                                            21600
A6601400120314672077001ONGRAY, ALDWIN L. OR RYKIEL O.                           0501
A3401400280000000784516MYLA B. MUYCO                                           10501
A3401400280000000784516DBU MBM CONSTRUCTION                                    20500
B0101402350321016640001ST LAWRENCE ACADEMY                                      1601
B0101402350321038297001CABLELINK INTERNET SERVICES INC.                         1601
B0101402350321038840001CONCEPCION PAY-TV NETWORK, INC.                          1601
A0101402350321179353001MA. ELNORA ESPIRITU                                      0501
A0101402350321330335001BEATRIZ G. WAKAI                                         0503
A0101402350321478374017RIZA G. SANTOS                                           0503
A0101405650000002325582AVILA, EVELYN GAMORAS                                    0501
A0101402510000011695022TUY, MIGUEL FRANCISCO SANDIL                             0502
A0101402510341058757001RCAM-NATIONAL SHRINE OF SAINT                           10506
A0101402510341058757001MICHAEL & THE ARCHANGELS                                20500
A0101402060000000445492BATE, ALICIA CEDRO                                       0501
A0101402060351078081001BATE, EDGARDO SANTOS                                     0501
A0101402060000002258831ANGELES, JOSE AMADO RAYMUNDO                            10503
A0101402060000002258831OR ANGELES, LEON                                        20500
A0101409050352686644001REYNALDO M. COQUIA                                       0501
B0201400890376045790003****************                                         1603
A0201400890376763623001**********                                               0502
A0101402930000000859907SALAMAT, ADRIAN LEAL                                     0504
A0101402930000007031192TORRES, KRISZEL RAZO                                     0501
B0101402930000003710814PISON, MARIA TERESA PENA                                11603
B0101402930000003710814DBU CITRUS                                              21600
A0101402930381205137001DR. ROMANITO C. CABALONA OR                             10506
A0101402930381205137001LORETA E. CABALONA                                      20500
A0101402930381491178001GERALDINE P. BOBIS                                       0501
A0101408370000010341732FABELLON, DIANE SUMALJAG                                 0502
A0101408370000000476693SECTION OF DERMATOLOGY                                  10501
A0101408370000000476693THE MEDICAL CITY                                        20500
A0101408790000004983520EDGAR F. MORALES JR.                                     0501
B0101408790000000599704BATOCABE & ASSOCIATES LAW OFFICES                        1601
A0101402770000006642793SUESS, FLORENCIA GERODIAS DBU                           10502
A0101402770000006642793FGS ENTERPRISES JT                                      20500
A0101402770391212442001MEDIARITO, GENEROSO AGUILAR OR                          10501
A0101402770391212442001FUENTES, PACITA SEBASTIAN                               20500
A0101405490000006299923ERIKA T. SHIMADA                                         0501
B0101405490000005196567SERVE - WELL SERVICES AND SUPPLIES                      11601
B0101405490000005196567CORPORATION                                             21600
A0101409180000003906989LOIDA S. SAMSON                                          0501
A0101409180000008122314GATBUNTON, LORDIE GUITANG                                0501
B0101409180000002036824FLORES III, P DBU MOM SUE BAKESHOPP                      1601
A5101400100000011337083PIEDAD, JULIE PEARL DATUGAN OR                          10501
A5101400100000011337083CABATAC, JULIETA PIEDAD                                 20500
B0101403030000013456696L N J GLOBAL TRADE INC.                                  1601
A0101403030441240658002LU, TUN TUE                                              0502
A0101403030441240945001**********                                               0502
A0101403320471004315001UCLARAY, NASSER JULIUS C. DBU                           10502
A0101403320471004315001UCLARAY TRANSPORT                                       20500
B0101403320471009087001TEKNOKONSTRUKT, INC.                                     1601
A0101403320471208764001NOMEL LAPIRA OR                                         10501
A0101403320471208764001MARIA RUTH LOPEZ                                        20500
A0101406330472573158001CHRIS WILSON Y. GO                                       0502
A0101410140000001939984DELANTAR, DARMEL URAGA                                   0501
A0101410140000001939922ENCALLADO, CARLO CRUZ                                    0501
B0501400170481025398002COSTSAVER'S SUPERMARKET, INC.                            1601
A0501400170481318580003ANA CRISTINA L. SINLAO                                   0502
A0501400170481383006001FERNANDEZ, ALIPIO SERAFIN D.                             0502
A0501400170000002354532FERNANDEZ, ALIPIO SERAFIN DAVID                          0502
A3801400170490762644001LINA CORDOVA YUMANG                                      0501
A1901400160491521956001CARMELA BALIWAG RAMIREZ                                  0501
A1401400110000003869898UY, DOMINGO OR UY, SOLEDAD A.                           10501
A1401400110000003869898OR UY, DORIS A.                                         20500
A1401400110000008266280MORALES, JOLITO GEQUINTO                                 0501
B1401400110492010148001COTTA REALTY & DEVELOPMENT CORP.                         1606
A1401400110492777638001DY, EDNA AYCARDO                                         0506
A1601400170000002334112ZENIT, EDBERT AGUDO                                      0501
B1601400170000000497570FUN DIVE ASIA INC.                                       1601
A0701400260000000040980ALBEUS, JESSIE ROQUE                                     0502
A0101407430000003193304REGASPI, MERCEDITA SAN JOSE                              0501
B0101407430503033337002AMDG DEVELOPMENT & LOGISTICS, INC.                       1602
A0101407430503185438005LETICIA D. JIMENEZ                                       0503
A0101407430503358085001CHRISTIAN C. SANTAMARIA OR                              10501
A0101407430503358085001ANNA LILLIE S. S                                        20500
A0101407430503375315003LILIAN LIZA C. MACATO                                    0501
B0101403580511005173001DYNAWINDS INC.                                           1604
A0101403580511560248001MARA PARDO DE TAVERA                                     0501
A0101405940000002268664CASAS, CECILIA TRINIDAD ASUNCIO                          0501
A0101405940512027202001MIGS JURASSICA BAR & GRILL                               0503
B0101405940512028730001S' SERVICES, INC.                                        1602
B0101405940512034555001PHILIPPINE NATIONAL POLICE ACADEMY                       1601
A0101408530000013465904CRUZ, ANNA CELESTINA ROSARIO                             0501
B0101408530516033397001SPRINGER INTERNATIONAL, INC.                             1605
A0101408530516571877040LEGASPI, EDMER CRUZ                                      0501
A0101408530516593577118ALMONTE, KATHLEEN KAYE MACABITA                          0501
A0101411790000004808026ISIDRO, ARMANDO APALIS                                   0502
B0101403450521012010001********                                                 1603
B0101403450521012164002CLOTH B INDUSTRIAL CORP.                                 1602
B0101403450000011473675***********                                              1605
B0101403450521238061002**********                                               1602
A0101403450521559329001***********                                              0501
A0101403450521736290001TAN, ANGELINE KUA                                        0502
A2201400250561783603002JEVY C. BALMORES                                         0502
A0101407720602081606001DY, JAY VILLAR                                           0502
A0101407720602163735001LILIAN DOMINGUEZ-LEGASPI                                 0505
A0101407720602166527001ALIPIO ABAD JR. OR                                      10505
A0101407720602166527001ADORACION ABAD                                          20500
A0101407720602313257002PARRA, JOSEPH DINULOS                                    0505
A0101407720602378666002FILOTEO CERENO FERRER                                    0502
A0101407720602412659001DOROMAL, DENNIS VEGA                                     0502
A0101412180000013475726RANOLA, ERIK MICHAEL MERCADO                             0501
B0101412180000000075290TACHOO FARMS HOLDING CO., INC.                           1601
A0101404260000003498419LACAP, LARINA LUSABIA                                    0502
A0101404260000012668696RIA JANICE DELA CRUZ                                     0502
A0101404260611005236001WILTRON ELECTRONICS                                      0502
B0101404260611020600002MAKATI SAVINGS COOPERATIVE                               1601
B0101404260611040672001JL QUALITY CLINICAL LABORATORY CO.                       1601
B0101404260000000157037INTERPRO FOOD SPECIALIST INC.                            1605
A0101404260611080620001TIMBANCAYA, DAVID DOMINIC VELHA                          0502
A0101404260611525197002REYES, YOLANDA DELA VEGA                                 0501
A0101404260611749390001JOSE ANDREW ENRICO B. PASTORIL                          10501
A0101404260611749390001OR NERI SUNGA PA                                        20500
B0101409920650044950001EINSTEIN SCHOOL FOR KIDS, INC.                           1601
A0101411530000005493643CLAUDIO, GABRIEL S                                       0502
A0101413570000013096390OAO, MAYBELLE                                            0501
A0101413990000013466770LAGGUI, ARNOLD CRISOLOGO                                 0501
B0101406590662042173001NEW ARCOND BUILDERS INCORPORATED                         1602
A0101406590662550567002MARZAN, MYLENE OR MARZAN,                               10501
A0101406590662550567002SALVADOR                                                20500
A0101406590662550570002BELMONTE, ERIC OR MARZAN,                               10501
A0101406590662550570002MYLENE                                                  20500
A0101410300000006278419TAN, HANS GARCIA                                         0502
A1301400340683584414001CRUZ, ARISTEO RUBIO                                      0502
B1301400500684609087001MENDOZA, IAN LEO V.OR MENDOZA                           11601
B1301400500684609087001LORELIE A.                                              21600
A1701400230000011972873GAMBOA, IMELDA LOPEZ                                     0502
A0101408240000001038595REVILLA, JEROME COCHANGCO                                0501
A0101408240000002397351CANIZARES, CHERISH ZAFRA OR                             10501
A0101408240000002397351TUPAZ, MARTIN ANTHONY                                   20500
A0101408240000003311075OLIVER SELIBIO                                           0501
B0101408240711028643001MPM CORPORATION                                          1602
B0101408240711036055002GEMPHIL ELECTRONICS ASSEMBLIES, INC                      1601
B0101408240000000832973DSiGLOBAL, INC.                                          1605
A0101408240711465361003RAZON, CONCHITA OR                                      10504
A0101408240711465361003DEL ROSARIO, TER                                        20500
A0101408240711554763001CUCHON, IRMA BARCELON                                    0502
B0101408240711697785001PILLARLAND PROPERTIES, INC.                              1601
B2801400100000000188443SUBIC RAY CORPORATION                                    1603
A2801400100000009533484PROHHOROV, GINA OCOL                                     0501
B2801400230000000008324J-A-N-B-Y MARKETING CORPORATION                          1601
B4101400390000003346187PAGASA PHILIPPINES LENDING COMPANY                       1603
B4101400420814038250001JDC GASOLINE STATION                                     1601
A4101400420814478374164LENITA PARRILLA BALISA                                   0501
A4101400420814486223002REBULLAR, EVELYN EVANGELISTA                             0501
A4101400420814520766064ANDAYA, AURORA A.                                        0501
B4101400550000006043932LES BON VIVANTS FOODS INC.                               1602
A0101412340000001017861DERECHO, VIRGINIA ALCONERA                               0502
A0101406750000009471832DEL CASTILLO, LAWRENCE SORIANO                           0501
A0101406750852184616001EUGENE T. MANGUBAT                                       0501
A0601400230891032012001AQUA SPARKLETTS BY CARLYN                               10505
A0601400230891032012001NICOLE ALKALINE                                         20500
B0601400230000002310161ST. JOHN BOSCO DORMITORY                                 1601
