B0101410850000007294433RUMKOR INC.                                              1608
A0101411240000013961970DONATO, DEXTER DASIG                                     0501
A0501400200000015220492MUNDA, MARIBEL MACAZO                                    0501
A6601400120314629254001CU, EDUARDO ZALDIVAR                                     0503
A0101405650000000525831GONARANAO, SITTIEAISAH ZAMAN                             0502
A0101405650000009767873MABINI, CATHERINE ANNE BARRAMED                          0502
B1901400160491012827001PORT CITY CREDIT AND LOANS CORP.                         1602
A4101400390000015242441FRANCO AHMEL R GREPO DBU MOSSAD                         10501
A4101400390000015242441SECURITY & INVESTIGATION                                20500
A4101400390000000500643SIMON C. PLETA                                           0501
A0101400860000013978842**********                                               0504
A0101401250000004374630GANZON, MARITES M.                                       0501
B0101400150061039643001J.M.PIZARRAS AND ASSOCIATES LAW OFFICE                   1605
A0101400150061228038001MANUEL C. CHAN                                           0501
A0101400150061387199001AGUILAR, LEAH MOLINYAWE                                  0501
A0101400150061422618001JORDAN M. PIZARRAS OR                                   10505
A0101400150061422618001MARIVIC M. PIZAR                                        20500
A0101400150061593323001TAPNIO, JHOMARIE CHRISS REMEDIO                          0501
A0101400150061746999001ELEANOR G. COLIANGCO OR RICO                            10501
A0101400150061746999001MA. ANTONIO GONZ                                        20500
A0601400100000007250600SARITA, V DBU JT VCREATIVE                              10505
A0601400100000007250600PRINTING                                                20500
B0601400360000013047660CYBER CITY EMPLOYEES MULTIPURPOSE                       11610
B0601400360000013047660COOPERATIVE                                             21600
B0601400360000000978936THE MEDICAL CITY CLARK, INC.                             1615
A0601400520000001349582MANALOTO, ISRAEL CUNANAN                                 0505
A0101410850000003503482CANILLAS, MARTIN LAPPAY DBU                             10502
A0101410850000003503482MARCCHARM INDUST                                        20500
B0101410850109066494001MABOLO M2 TRUCKING & ENTERPRISES CO                      1605
A0101406040000002272482SY, MELITON                                              0501
B0101401960000005988852**********                                               1601
A0101413150000001288251JOEL TAN                                                 0502
A0101413310000002317944BAYNO JR., FELIPE MANIGOS OR                            10501
A0101413310000002317944BAYNO, ROSALINDA OCAMPO                                 20500
B0101401830141037764001MICHAELJONA TRUCKING SERVICES, CO.                       1602
A0101401830141283129001YOLANDA M. LIM                                           0502
B7201400170000003774163MACARIO N. SEPADA OR                                    11605
B7201400170000003774163JUVY P. SEPADA                                          21600
A7201400170000009673141TRAYA, MARY JOY SEPADA OR                               10501
A7201400170000009673141TRAYA, REX JULIU                                        20500
B0101400440000000029310PERLA COMPANIA DE SEGUROS, INC.                          1605
B0101400440000000337773VIENNA PORCELANA PHILS. INC.                             1610
A0101400440161591337001JENESSEY A. RANCES OR                                   10502
A0101400440161591337001JESSIE O. RANCES                                        20500
B0101407270162046726001VALUE CARE HEALTH SYSTEMS, INC.                          1650
B0101407270162046726001VALUE CARE HEALTH SYSTEMS, INC.                          1650
A0101401090000000772225EDLYN ABAN EBIAS                                         0501
A0301400530000012016798PARAMIO, WARREN PETARCO                                  0502
B0301400530000000025378D' UNIBUENAS CORPORATION                                 1603
B0301400660000003361862SOUTHSHIP HANDLERS PHILIPPINES INC.                      1602
A0301400950000004455481**********                                               0501
B0101401380000014548822MUYA, MARLON BATHAN DBU NEWREIGN TRADING                 1603
A0101401380201522168002PESIGAN, JOSEPH C. OR PESIGAN,                          10501
A0101401380201522168002MARIA VICTORIA R                                        20500
A0101401380000010190422WONG, SAI FUNG CHARLES                                   0501
A0101410720653173243001ARLENE MAE LIM OR DOLORES LIM                            0501
A0101410720653418045001LEIDO, EMMANUEL BERTULFO OR                             10501
A0101410720653418045001LEIDO, VANESSA MAE                                      20500
A0101412500000014957107NITURA, VICTOR DAVID DELOS REYE                          0501
B0101412500000000739737MIKEWELL WORLD OF HOUSEHOLD PRODUCTS                    11610
B0101412500000000739737CORPORATION                                             21600
A3101400160000013868078RANCAP, FERDELITO P DBU EUGRACE                         10502
A3101400160000013868078ACCOUNTING SERVICES                                     20500
A3101400870000015264890GONZAGA, NORA DIZON                                      0501
A1001400190000008743988OLAIVAR, FATIMA ORBISO                                   0502
B1001400190000011057979RD PAWNSHOP, INC.                                        1605
A1001400190231520766112ALIBIO, NELYBETH TACBOBO                                 0501
A1001400350233478374006IBANEZ, ELSA                                             0502
B1001400480000003028931BELICAN, ALDIN TORNIADO DBU BELICAN                     11605
B1001400480000003028931TRUCKING                                                21600
A1001400480000008501940BALANA JR., RICHARD ZAMAYLA DBU                         10501
A1001400480000008501940RBJ ENTERPRISES                                         20500
A1301400470000013689859ZAIDA C. TORRES                                         10501
A1301400470000013689859DBU ZAIXEN PHARMA                                       20500
B1301400470000000009532PROSPERITY SUPERMART                                     1602
B0101401670000006812342GALAHAD LABOR SERVICE COOPERATIVE                        1605
B0101401670000008000831JACKPHARMA INC.                                          1601
A0101406460000002331113***************                                          0501
A0101406460272326885001CARIASO, CONSOLACION JUNIO                               0501
B0101406620273017284001ACCENT MICRO TECHNOLOGIES, INC.                          1605
B0101411240000013845731GOLDMARK PRODUCTION CORPORATION                          1605
A2601400270000000561573RUFINO M. BUTAC JR. OR                                  10503
A2601400270000000561573MELISSA B. BUTAC                                        20500
A6601400120314631091001ABANTAO, MATILDA ESPINA                                  0501
A2901400130000009071938STEPHEN PAUL ESCAÑO                                      0501
A0101402350321456633001JOY ANNE DANGAN OR                                      10501
A0101402350321456633001DON PAUL TRINIDA                                        20500
A0101402350321478374048GLENDA D. ESTRELLA                                       0501
A0101405650000000525831GONARANAO, SITTIEAISAH ZAMAN                             0502
A0101405650000014026045AMPUAN, JALILAH MAMAO                                    0502
A0101405650322047677001THE J. BIJE'S WINDOW SHOP                                0505
B0101405650322077417001ELEGANT INFOVENTURES, INC.                               1602
A0101402060000002259925RICARDO, KEVIN CHRISTOPHER CORO                          0502
B0101402060351046908001ORGANITEC LABORATORIES & SYSTEMS, INC.                   1602
A0101409050000002652957EQUIZA, OMAR A.                                          0501
A0201400920000002804480MIRANDA, SAMMY                                           0501
A0101408790000008502987BUMANGIT, MARY CRISTINA BIOGAN                           0501
A0101405490392446228001BARTOLOME S. DELA CRUZ                                   0501
A0101408400000007264511SALGADO, ARNEL LOZADA                                    0501
A0101408950000001039412DRILON, CECILIA VICTORIA ORENA                           0502
A0101408950396381963001DR. EMMANUEL RAMOS KASILAG                               0501
A0101412210000014244492REBLORA , RHIZALDY DOZON                                 0501
B2401400180411057100001L.H.E. CONSTRUCTION & INDUSTRIAL                        11605
B2401400180411057100001SERVICES, INC.                                          21600
A2401400180411542448002GUATLO, ANNA MARIE VILLASENCIO                           0502
A0901400220432518401001**********                                               0506
B0101403030000001302123**********                                               1601
B0101403030441029489001**********                                               1606
A0101403030441239686001**********                                               0502
B0101403030441707375001**********                                               1602
A0101412760000002067632VILORIA, REMEDIOS O. OR                                 10502
A0101412760000002067632VILORIA, EDUARDO                                        20500
B0501400170481018109002CSI WAREHOUSE CLUB INC.                                  1604
B1901400160491012762001ATI-BATANGAS, INC.                                       1610
A1401400110000003988996CARCIDO, JEFFERSON CU                                    0501
B1401400110492365609001JEORGE S MALIGAT - PILIPINO HARDWARE AND                11601
B1401400110492365609001CONST. SUPPLY                                           21600
A1601400170000001837863RENE N. ESPLANA OR                                      10503
A1601400170000001837863GLORYDEL B. ALAPAD                                      20500
A0701400260000014877873ABILAY, LAWRENCE ROBERT PASCUAL                          0501
A0101407430000013169810DAGOHOY, GERALDINE CASIDSID                              0502
B0101407430503028651001TMC TRUCKING SERVICES                                    1601
A0101408530516571877129MAHEDY G. BRIZUELA                                       0501
A0101411400000012209868***                                                      0501
B0101412050000007801665PRIMEBEEF COMPANY INC.                                   1603
A0101403450521238157003**********                                               0503
A0101403450521582387001**********                                               0501
B0101403610000013963921MAV DISCOVERY BEACH RESORT DEV'T. CORP.                  1601
B0101403610000015239273MMG CORPORATION                                          1601
B0101403610000015239422HERCULES FINANCING CORP.                                 1601
B0101403610000015242890MMG CONSTRUCTION AND DEVELOPMENT                        11601
B0101403610000015242890CORPORATION                                             21600
A2201400250561255737002WILFREDO Y. SAWIT                                       10506
A2201400250561255737002OR JOSEFINA B. SAWIT                                    20500
A2201400250000001545580MEMBERS OF NATASHA (SHOECAT INC                         10501
A2201400250000001545580GAUDIOSA A. WAGE                                        20500
A0101404260611519349001JUSTO, ROGETO BUALA                                      0501
A0101413990000000726512CASTRO, GIZA A.                                          0501
A0101413990000000726512*                                                        0501
A0101413990000015250303MANANGHAYA, DOMINIC JOSEPH                              10501
A0101413990000015250303GONZALES                                                20500
A0101413990000015260307MATEO-SILVA, JOYCE ANNE PAULINE                         10501
A0101413990000015260307LUCIANO                                                 20500
A0101413990000015268234CALAGUIO, RYAN SMITH MARTINEZ                            0501
A0101410300000011355503DIMALANTA, ANNA CATALINA ANIAG                           0501
A0101410300000011355558*****                                                    0503
A1301400210000009982198PAULINO, ALEXANDER SARMIENTO                             0501
B13014002100000081738601960 METAL INDUSTRIES INC.                               1604
A1301400500000007096571LUISITO R. MIRANDA                                       0501
A0101408240000005740701UY, JOAQUIN CARLOS ZABALA OR                            10503
A0101408240000005740701CHARLENE ABIGAIL P. UY                                  20500
A0101408240711449303001MORALES, PEARL MERCEDES ARCACHE                          0501
A0101408240711478374015EMILY MONTILLANO                                         0502
A2801400230000012228454CELESTINO, NANCY AMMAY                                   0501
A4101400260000011417611ANDAG, EDUARDO NEPOMUCENO                                0502
A4101400260812579894001DIOSDADO R. SALIBIO                                      0502
A4101400390000001404266SAMARITAN C. SOLAS                                       0502
A4101400420814478374100LORLIE B. AGPOON                                         0501
A4101400420814520766033DELA CRUZ, MARILOU M.                                    0501
A4101400420000002345320CALLEJO, LILIBETH                                        0501
A4101400420000000710223ROMERO, MARICRIS BAUTISTA                                0501
A4101400550000014848630LUCKILEE CONSTRUCTION SUPPLY                             0503
A0101412340000014628492RACHELLE P. CALMA                                        0501
A0101406750000002251361ANAFE C POSEO OR LEO POSEO                               0502
B0601400230891021614001QUIOC (D) QUIOC & ASSOCIATE                              1601
B0601400230000003644853ALL 'BOUT PEOPLE SERVICES & TRADING                      1602
A0601400230000000045172RODA, ZENAIDA GARCIA  OR                                10501
A0601400230000000045172RODA, BENJAMIN                                          20500
