F0101406040112403407001REUBEN C. ESTILLORE                                      2501CKO
F2401400180411276248001MACABANGON, MARLON M.                                    2510CKO
F4101400260812546031001EDNA R. ALVAREZ                                          2502CKO
F0101405490000001092455GRB ENTERPRISES, INC.                                    2602CKR
F1901400290261039565001UGNAYAN SECURITY AGENCY, INC.                            2601CKR
F4101400260812041283001TAKEMOTO INDUSTRIAL SALES INCORPORATED                   2602CKO
