B2001400290315047753001SILLIMAN UNIVERSITY COMMUNITY COOP.                      1610
A0101413990000001406531TRIPLE JMT DOCUMENTATION                                10501
A0101413990000001406531SERVICES                                                20500
A0101400860011490664001**********                                               0502
B0101400860011507585001LU, SHAOYI                                               1605
A0101400860011550744001**********                                               0502
A0101400860011559979002**********                                               0501
A0101401250021184135001MITRA, LAARNI RIVERA OR                                 10503
A0101401250021184135001MITRA, JOHN ERIK RIVERA                                 20500
A0101411370000003294900FARRALES, MARCUS GLEN B. DBU                            10502
A0101411370000003294900GOLDLINE BROKERAGE SVCS                                 20500
B0101400150061035408001ATLAS FERTILIZER CORPORATION                             1601
A0601400100081255514001RIVERA, EDGARDO DE GUZMAN                                0501
B0601400100081335078001RUSH, MIRIAM OSTONAL                                     1605
A0101401960121240744002MAGNAYE, JESSIE M.                                       0502
A0101412630000000045321**********                                               0502
B7201400170000003773524JUSTINIANO, MARIO L. AND DELOS SANTOS                   11601
B7201400170000003773524MARIA THERESA M.                                        21600
B7201400170000003773535JUSTINIANO, MARIO L. AND DELOS SANTOS                   11601
B7201400170000003773535MARIA THERESA M.                                        21600
B0101412920160022330002S.M. CASTRO MANAGEMENT & CONSTRUCTION                   11602
B0101412920160022330002SERVICES                                                21600
A0101407270000002334721MOPER ANGELICA P. PAPA                                   0502
A0101407270000008850482MARTINEZ, ALFONSO ALBERTO ALVAR                          0501
A0101407270000008877256HWANG, YO HAN                                            0501
B0101407270162041489001******                                                   1604
A0101401090000003835916NOVIO, RONA REGADO                                       0502
A0101401090171196120003MERCY LEE-JATICO OR                                     10502
A0101401090171196120003MATTHEW STEPHEN                                         20500
A0101401090171196383001RECTO REX M. CALINGASAN                                  0501
A0101401090000000993375CARPIO, MARITES AGUBA                                    0501
A0101401090000001611405VARGAS, ANDREA GERCAYO                                   0501
A0301400530000001009943PANTUA, JERSON R.                                        0501
B0301400660000003406077JAS MACHINE SHOP & ENGINEERING WORK                      1606
B0301400950000002115840DAVAO BARRIO BISTRO, INC.                                1603
B0101401380201041802001D'GLACIERS' MGM INC. - MAC                               1602
B0101401380201042910001SECURITRON SECURITY SERVICES, INC.                       1610
A0101401380201500598001CARREON, DAISY FONG                                      0501
A0101410720653570185001ROMERO, PHILIPPE JERVIE CASABAR                          0503
A3001400130000000931231CHUBB'S AGRIVET SUPPLY AND                              10502
A3001400130000000931231GENERAL MERCHAND                                        20500
A1001400350000000922105FACTURA, JACKELOU CORONEL                                0501
A1301400470000003270453CHRISTIAN VINCENT R. SALAZAR                             0502
A1301400760000005379422VICTORIA P. PASCUAL OR                                  10501
A1301400760000005379422CRISTOPHER S. PASCUAL                                   20500
B0101401670271007375003MULTI-FOLD LINKS, INC.                                   1605
B0101406460272017045001INFORMATICS COLLEGE-MANILA, INC                          1605
B0101406620273026285001DBQUEST, INC.                                            1602
B0101406620000000962403GEOWORKS INTERNATIONAL CORPORATION                       1601
B0101406620000003497347BOUNCE.ASIA ONLINE CORPORATION                           1602
B0101406620000004595677GAWIN, INC.                                              1602
A0101411820277773020001JOSEPH OLIVER V. GAN                                     0502
B0101412470000000949544BEYOND METRO POINTE GREENHILLS INC.                      1601
B0101412470000000949544BEYOND METRO POINTE GREENHILLS INC.                      1601
A0101400570281388539025ROSALIE B. CABRERA                                       0501
A0501400200000005751635PERDIDO JR., LEONARDO DIWATA OR                         10501
A0501400200000005751635FLORES, JOAN MAY                                        20500
A0501400200292552798001RAMOS, ADELAIDA MATIAS OR                               10501
A0501400200292552798001RAMOS, LEONORA A.                                       20500
B2301400150301821100608**********                                               2002
A0801400160311478374104RUBIE BAGAFORO                                           0501
B0101402350321046511001SIDAMO DISTRIBUTION INC.                                 1605
A0101402350321179400001NILDA Q. APISTAR                                         0505
B0101405650322043032001LEAN MANAGEMENT AND PEOPLE SOLUTION                      1601
A0101405650322093557001CUEVAS, MA. DONATA NADINE OR                            10501
A0101405650322093557001CUEVAS, RAFAEL                                          20500
A0101405650322219483001ELISES, LENORA OR NELSON OR                             10502
A0101405650322219483001JOSE MARI OR JOSE MIGUEL                                20500
A0101405650322522833001JIMENEZ, MARIA JEAN BREBONERIA                           0501
A0101402510341232460006LU, HANS TE                                              0501
A0101409050000003533424CHRISTOPHER S. PAPA                                      0503
B0101409050352041357001COZY NAIL LOUNGE INC.                                    1605
A0201400890000008898640ONG, RICHIE ROBERT C. OR                                10501
A0201400890000008898640ONG, RODERICK RYAN C.                                   20500
B0201401020000007458173NAVAL, LEONARD PASCUBILLO DBU G                          1601
A0201401020000007458195TITCO, MA. CHERIELENE SUPERALES                          0501
A0101408370382410095001DR. EDNA C. BANTA                                        0505
A0101408400000005286320AMEROL, ROSLINA MAROHOMSALIC                             0502
A0101408400394422774001BALLON, MARY GRACE PAYADE                                0501
A0101408400394478374069BLANCAFLOR, JOCELYN R.                                   0501
A0101409180000003310232HERNANDEZ, RAFAEL ANTONIO E. OR                         10501
A0101409180000003310232HERNANDRZ, MARIA                                        20500
A0301400820000007372810GOLIMLIM, MARICHU M.                                     0503
A5501400120000002018888INOCENCIO, STEVEN DELOS REYES                            0504
B5501400120000002949735VALEENLAND REALTY CORPORATION DBU                        1601
A5501400120000006976596FIGUEROA, RONELLYN BILLONES DBU                          0510
A5501400120000000046882CHIU, VALENTIN & JULIA EILEEN &                         10502
A5501400120000000046882CHRISTIAN & CHRI                                        20500
A2401400180000003949020CABUENA, NESTOR BOADO OR                                10501
A2401400180000003949020CABUENA, GERALDINE LU                                   20500
B2401400180000000019827CHONA U. CARIAGA FOODSHOPPE                              1603
A2401400180411272571001*****************                                        0501
A2401400180411458238001ANIMAS, JULIUS PETER CABATO                              0503
A2401400180000000428051EGOS JR., JEMMERITO CASANA                               0502
A2401400180411577135001***************                                          0501
A0101403030441241013001**********                                               0506
B0101403030441327386001**********                                               1605
A0101403320000006027243RARANG, CECILIA DACUNO                                   0501
A0101403320000006026780CAMPOSANO, CHRISTIAN PAUL I.                             0501
A0101403320471032831001R.C. TAGALA CONSTRUCTION                                 0506
B0101410140475046427001EQUAL LENDING INVESTOR CORPORATION                       1610
B0501400170481796492001ARCINUE COMM'L. CORPORATION                              1602
A1901400160491244619001ALEJANDRO F UY OR                                       10502
A1901400160491244619001APOLONIA AGNES B                                        20500
B1901400160491246031001CARLITO GO/FELIE GO/MYRNA MORALES/MONINA                11601
B1901400160491246031001REMO/CARLEEN SIH                                        21600
B1901400160491246031002CARLITO/FELIE/TIMOTHY GO / MONINA REMO                  11601
B1901400160491246031002/MYRNA MORALES                                          21600
A1401400110000005526990DIHIANSAN, CHRISTINE BRIOSO                              0501
A1401400110492220879001ANGLO, ROMEO F. OR                                      10502
A1401400110492220879001ANGLO, CECILIA N                                        20500
B1601400170000000036035SIX IN ONE CORPORATION                                   1603
B0101407430000003193902M.N.V. TRADING                                           1610
A0101405940000005359782************                                             0502
B0101405940512634885001TUGGYS TRAVEL INC.                                       1602
A0101408110000001165851MACARIO, EURA JAYNE TRINIDAD                             0501
B0101403450521022302001**********                                               1602
B0101403450000002975622CROWN ASIA CHEMICALS CORPORATION                         1610
A0101403450521238140002**********                                               0502
B0101403450521238590001**********                                               1601
A0101403450521366584001**********                                               0501
A0101403610531478374002GRAPE, IMELDA HANDOG                                     0501
A0101404000000003706756AARON D FIGUEROA                                         0501
B0101407720000007951800TRENCHNET SOLUTIONS INC.                                 1602
A0101407720602495778001CAPELLAN, MARIA LEONORA                                 10502
A0101407720602495778001DEL ROSARIO                                             20500
A0101409920000006336785NAVARRO, NORMAN CALAPIS                                  0510
A0101409920650478374005CRISOSTOMO, MA. EMELIA GASPAN                           10501
A0101409920650478374005MEMBERS OF NATAS                                        20500
A0101413440000002634608ESPINOSA, JOCEL BETH CRUZ                                0501
A0101413570000000635596MEMBERS OF NATASHA                                      10501
A0101413570000000635596DOROTEA R. JACIN                                        20500
A0101413990000006278124ENCINARES, ROVILYN RODRIGUEZ                             0501
A0101406590000000131706CARRANZA, JANITH BOTALON                                 0502
A0101410300000006278755TANBONLIONG, THERESA CARLA TANA                          0501
A0101410300000000191939CARBALLO, LUIS ANTONIO S. OR                            10510
A0101410300000000191939SALAZAR, EMMANUE                                        20500
A1301400210682628277001ADELIA MARIA B SOTO OR                                  10502
A1301400210682628277001MANOLET C SOTO                                          20500
B1301400340683025550001HONDA MINERVA INC.                                       1601
A1301400340000005264922EUGENIO, MARC VINCENT HERMOSO                            0501
A1301400500000000213265VINCENT P. JAVIER OR                                    10505
A1301400500000000213265TERESITA F. JAVIER                                      20500
A1301400500684039485001CRUZ, BIENVENIDO A. OR                                  10503
A1301400500684039485001CRUZ, GUILLERMA C.                                      20500
A1301400500000003070139SUGAR DADDY MARKETING                                    0502
B0101408240711036910001ASIAN CENTRE FOR INSULATION PHILS.,                      1603
B0101408240711038557001THE BRIDGE SCHOOL, INC.                                  1605
A2801400100000000004720REYES, MYRA DBU MRC DENTAL                              10501
A2801400100000000004720CLINIC                                                  20500
A4101400260000006043072POBRE, ANTERO JACINTO                                    0503
A4101400550000004846891PAROLE, GLORIA RAYO                                      0501
A4101400550000007583842CHIYUTO III, PATROCINIO CALVEZ                           0501
A4101400550000007583864RIVERA, ROSALINDA LOVERIA                                0502
A0101404840000005820560BERBANO, MARY JEAN ARGENCITA A.                          0502
A0601400230000002650108TUAZON, REMIGIO ESCANO                                   0501
