F0101405650000000772743BF FEDERATION OF HOMEOWNERS                             12601CK1
F0101405650000000772743ASSOCIATION INC.                                        22600CK1
F0101415190000001745702LIZARDBEAR TASKING INC.                                  2605CK1
F0101401830141357303001ONGCHUAN, ALEXANDER CO                                   2503CKO
F0301400820409062963001LLANOS MEDICAL CLINIC                                   12602CK1
F0301400820409062963001AND HOSPITAL                                            22600CK1
F2401400180411057025001BRIA HOMES, INC.                                         2603CK1
