A0101411530000005493610**********                                               0502
A0101410140000001939984DELANTAR, DARMEL URAGA                                   0501
A3001400130000001261283LIM, EDGAR ALLAN DIAZ                                    0502
B0301400660000000023069ALEXANDER OLIVER AND ELIZABETH OLIVER                    1606
B2301400150301821200608**********                                               2002
A1401400110492587895001PE BENITO, CONCEPCION FULGAR                             0501
A0101401250021178990003CEDILLA, REMEDIOS SANTOS OR                             10502
A0101401250021178990003SAN PABLO, ARIEL ESTEBAN                                20500
A0101401250021483705002SISON, ROSIVINI ISIDRO                                   0502
A0101400150061571188001ANTONIO, ANGELYN DALDE                                   0501
B0101400600000002335753DADULA, ROLANDO LATRAS OR KEY, ERWIN YAP                 1603
A0101405810072367320001**********                                               0506
A0601400100000002365380VALERIO, NARDITO GONZALES DBU                           10502
A0601400100000002365380JUNAR                                                   20500
B0601400360000003186816GWU MKTG. CORP.                                          1602
A0601400520000001120385BANAG, ESMERALDO PINEDA                                  0501
A0101413730000002289552**********************                                   0501
A0101410850000003102158BAUTISTA, O DBU LEOLEE TRADING                          10502
A0101410850000003102158& TRUCKING SERVICES                                     20500
A0101410850109061716001MONTEMAYOR JR., T DBU PRINCESS                          10501
A0101410850109061716001HANNAH TRUCKING                                         20500
A0101410850109062884001AVILA, ROLAND DBU RC AVILA                              10501
A0101410850109062884001CONSTRUCTION & ENGINEERIN                               20500
A0101400730111278185002ARANDELA, MARY GRACE                                     0501
A0101400730111347787002CHAVEZ, LYNN FLORENTINO                                  0501
A0101413310000000863963CONCEPCION, MICHAEL JOSEPH G.OR                         10501
A0101413310000000863963CONCEPCION, JACQUELINE R.                               20500
B0101401830141037764001MICHAELJONA TRUCKING SERVICES, CO.                       1602
A0101401830141040554001DREAMBOOKS PUBLICATION                                   0502
A5001400170000000213761ISAW, NEIL JOHN ATAYAN                                   0501
A0101400440000004889912MARIA VICTORIA F. ORACION                                0502
A0101400440000004901502DE BORJA, JOSEPH ALARCON                                 0501
A0101400440000004901575PALMERO JR, ROMEO CABINTOY                               0501
B0101407270162037605002MAINE CITY PROPERTY HOLDING CORP.                        1605
B0101407270162038101001BIRDS INTERNATIONAL, INC.                                1603
A0101401090171195155001MA. AUXILIADORA R. REBURIANO                             0501
A0101401090171196121001PILAR AGNES G. ANDAYA OR JOSE                           10501
A0101401090171196121001MARIA G. ANDAYA                                         20500
A0101401090171283976001VICTOR D. JAGONOS                                        0501
A0101401090171314728001CYNTHIA B. LOZA                                          0501
A0301400530000002318561VILLANUEVA, FEDERICO MAGPAYO OR                         10501
A0301400530000002318561VILLANUEVA, MARI                                        20500
A0301400790000000435909KASER, NELIDA AREVALO                                    0501
A0101410720653173054002SARMIENTO, FLOR DE LYS TOMINES                          10502
A0101410720653173054002OR SARMIENTO, ALEXANDER                                 20500
B0101413600000005524863HIMLAYANG PILIPINO PLANS, INC.                           1610
B3101400870225044849001OMNITECHNOLOGY INDUSTRIAL INC.                           1601
A3001400130000001271363PALUCA, LIZA MORAL                                       0502
A1001400190000005709100NERY, JASON JAY JASPER AMPER                             0501
B1001400190231035648001ORO B AND W CORPORATION                                  1610
B1001400190231417579001CLAVERIA TREE NURSERY, INC.                              1602
A1001400190231478374154EVELYN A. CABALLERO                                      0501
A1001400190231520766117TAROY, MARIONNE ANGELOU SALEM                            0501
A1901400290000001737715DONNA BELLE STONEY M MATIBAG                             0501
B1901400290000001363188RD PAWNSHOP, INCORPORATED                                1603
B1901400290261027293001LIPA MEDICS INC.                                         1610
A1901400290261078910001THOR VICTOR DIZON KORIONOFF                              0501
A1901400290000003252899MARLON VILLAPANDO FETALVO                                0502
A1901400290261355605001PAZ CRISTIANA TIAMSIM LANDICHO                           0501
A1901400290261493025051DR. ERWIN PEREA MARALIT                                  0502
A1901400290261663904001EVELYN ROSALES PURINO                                    0501
A1901400290000003252720DIVINA GINA SANGALANG DE CASTRO                          0501
A0101401670271186233001ASTEYA SANTIAGO OR                                      10502
A0101401670271186233001ABIGAIL SANTIAGO                                        20500
B0101406460272007487001FOODMACH, INC.                                           1604
B0101406460272038141001LIMKETKAI HOTEL & RESORT CORPORATION                     1602
A0101410980000000012562JEODIMEL O. CORONADO                                     0502
A0101400570000008735111VALMOCINA, JOHFEL CANQUE                                 0501
A0101400570000008791864KASILAG, MAE CABAHUG                                     0501
A0101400570281186565002DANILO D. REYES                                          0505
A0101411240000008786570ESPALDON, ANNA MARIE DE GUZMAN                           0501
A0501400200000005751599BALMEDIANO, MYRNA SOLIVEN OR                            10505
A0501400200000005751599BALMEDIANO, ISMAEL                                      20500
B6601400120314045385001SANVIC SUPERMART INCORPORATED                            1610
A6601400120314625677001ORSOLINO, JOY SURIO                                      0501
A3401400280318478374008ELNA L. PINEDA                                           0501
B0101402510341060430001********                                                 1601
A0101402510341323210001ALBERTO V. ALAMAN JR.                                    0505
B0201400760374006430001CHRIST COMMISSION FOUNDATION INC.                        1601
A0201400760000002047161REIMER KEN G. BONGHANOY                                  0502
A0201401020000004409158IGOT, JIMMY V DBU JVI MARINE SE                          0501
A0101405490000000530943GRAGASIN, FE GONZALES                                    0501
A0101405490000004808657PALLON, EMILY CASTANEDA                                  0501
A0101408400000005286411GUILLERMO, PRESCILLA SALISE                              0501
A0101408400000005286524GARCIA, MUSTIOLA STA. ANA                                0501
A0101408400394508088001WEE, FRANCIS AUGUSTUS LEE                                0502
A0101409180000005295321CHRISTINE RABAGO                                         0501
A0101409210000007762910PUNO, ANNA CRISTINA TEODORO                              0501
B0301400240401821200608**********                                               2002
A5501400120000006976574PENDON, VENISE NICHOLE VILLOREN                          0503
A5501400120000006976632FIGUEROA, RONELLYN BILLONES                              0510
B2401400180411033733033ECA RESOURCES, INC.                                      1602
B2401400180411037037001GENSAN FEEDMILL, INC                                     1605
A2401400180411458238001ANIMAS, JULIUS PETER CABATO                              0504
A0101403030441660281001**********                                               0503
A0101410140475046983001OCAMPO, DBU MAAY POOL SUP &                             10506
A0101410140475046983001EQPT CTR                                                20500
A0101410140475046984001OCAMPO, DBU INDOOR & OUTDOOR                            10506
A0101410140475046984001LIVING CONST.                                           20500
A0101412760000002262813DORADO, JAZON ROEL REGALADO                              0502
A1401400110000003988923DY, EDNA AYCARDO                                         0506
A0701400260000001069676MURODA II, MARK ANTHONY                                 10501
A0701400260000001069676FERNANDEZ                                               20500
A0101403580511690056001GONZALES, SHARWINA WADJA                                 0501
A0101408110000002364683VILLAS, NOEMI EDISON                                     0501
A0101408110515427749001HILARIO TAMONDONG JR. OR                                10502
A0101408110515427749001TRISHA MARIE TAMONDONG                                  20500
A0101411400000008785093CAPILI, CHARMAINE OLEA                                   0501
B0101411400000004555802BOP INTERNATIONAL COMPANY, INC.                          1601
B0101403450521032691001************                                             1605
A0101404000000006176634SALONGA, EMMA AGUILA                                     0501
A0101407720000007936163GRUENBERG, JANICE MARIE OR                              10502
A0101407720000007936163CHRISTOPHER ALAN                                        20500
A0101407720602343284001MARY ANGELINE RECTO OR                                  10501
A0101407720602343284001RODRIGO RECTO JR                                        20500
A0101407720602418565001RELOS, JESUS ALVAREZ                                     0505
A0101407720602721978001FRANCISCO, MARIA CARMEN BAGUNAS                         10501
A0101407720602721978001OR FRANCISCO, PATRICK                                   20500
A0101412180000001293385CRUZ, ALICE STREEGAN OR                                 10502
A0101412180000001293385CRUZ, JOSE GERARDO ANONAS                               20500
A0101404260611157118001AQUINO, REGINA SUERO                                    10501
A0101404260611157118001OR ARMANDO AQUIN                                        20500
A0101409920000000998569MEMBERS OF NATASHA (SHOECAT INC                         10501
A0101409920000000998569PEDROSA, JULIE                                          20500
A0101411530000000013703SABERON, RAUL DBU                                       10501
A0101411530000000013703RALCO COMMERCIAL TRADING                                20500
A0101413440000001472942ANAS, MONINA DELA CRUZ                                   0501
A0101413990657478374015MANILYN M. CAYABYAB                                     10501
A0101413990657478374015MEMBER OF NATASHA, SHOECA                               20500
A1301400210000007669074CLIMACO, JEFFREY ELNAR                                   0501
A1301400210682478374053RUBIROSA C CABUGWASON                                    0502
B1301400500684037591001UPLIFT PHILIPPINES, INC.,                                1605
A1701400230693478374015FERNANDEZ, FEMA L.                                       0501
B0101408240711036897001EVER THEATRICAL, INC.                                    1601
B0101408240000000832779SANS FIN HOLDINGS CORP.                                  1602
A0101408240000002822062TY, ANNETTE SO                                           0502
A0101408240711399428001JOSELITO OR ROSEMARIE RAFAEL                             0501
A0101408240711478374015EMILY MONTILLANO                                         0502
A0101408240000002331191**********                                               0501
A2801400100712553031001PROHHOROV, GINA OCOL                                     0501
B2801400230000005253641COST OF MONEY LENDING CORPORATION                        1602
A4101400550815653395001MINGOA, JOB JULIANO OR                                  10505
A4101400550815653395001MINGOA, BEFIE ME                                        20500
A0101404840851520766104PARAGAS, MARILOU                                         0502
B0101406750000000090691THE PLAZA HOTEL BALANGA CITY INC.                        1605
A0101406750000006303555TALAHURON, GILDA ROBLES                                  0501
A0101405070000001726198DEE, DOMINGO CHUA OR DEE, BRIAN                          0501
B0101405070000006006013ATALIN, ESTERLITA G. AND TANQUINTIC,                    11605
B0101405070000006006013JOY ANN B. JT                                           21600
A0101405070000006006097CANTILLO, ALDWIN C. DBU ALDWIN                          10502
A0101405070000006006097C. CANTILLO LOGISTICS SER                               20500
A0101405070000005619252ARRE III, JOHN IRENEO GONZALES                           0501
B0101413860000000145300**********                                               1605
B0601400230000002650119WILFREDO'S GENERAL                                      11601
B0601400230000002650119MERCHANDISE                                             21600
A0601400230000000452840GOZUN, R-JAY RAMOS OR                                   10510
A0601400230000000452840GOZUN, MYRNA RAM                                        20500
