A2401400180000000019861GABALES, LETECIA GARDOSE                                 0501
A0101408400000000077941LAUREAN PLANTS & FLOWERS SHOP                            0502
A0301400820000000132561DAGON, RESTITUTO JR.                                     0501
A0301400660000000194901TORRES, ROSELYN CARREON                                  0501
A0101400150000000253278GELANO, ANGELO RECTO                                     0501
A0101404130000000321451TANAKA, TAKUYA                                           0501
A0101405490000000444671******                                                   0503
A0101405490000000444706MA CRISTINA V. BUNI                                      0501
A1601400170000000497581MARK ERWIN C. CHAN                                       0501
A0101404260000000532169ROMAN, JOCELYN LAXAMANA                                  0501
A4101400260000000541148SAN JUAN, ANNE PRICEL MANAGO                             0501
A0101413570000000635585DELA CRUZ, KRISTINE MARJORIE UY                          0505
A1101400120000000652351YAO, RONALD PHILIP GO                                    0501
A0101404680000000766963NEMESIO C. DELIGERO JR.                                  0501
A0101404680000000767022EMBILE, JESUSA MAGTIBAY                                  0501
A0101405650000000772914PAMINTUAN, MARIFER CABIGAS                               0502
A0101403450000000889410**********                                               0501
A0101401700000000890557**********                                               0501
A0601400230000000990052DAYAO, MARIBEL MASIBAC                                   0501
A0501400170000001032211PERALTA, MARIA THERESA RODRIGUE                          0503
A1601400170000001068640JOSE NOEL R. RUBIO                                       0501
A0101413570000001069621**********                                               0501
A0101410140000001074839BACOSMO, RICKY MINGUA                                    0501
A1401400110000001095927PANGANIBAN, NORMEL REMO                                  0502
A0601400520000001120363OCAMPO, JOAN KRISTEL SERRANO                             0501
A0101406330000001235001VERTEX SECURITY AGENCY                                   0502
A0101406330000001235216LAZO, AMARIS OLIVEROS                                    0501
A0101406330000001235227JOSE LESLIE R. SANTOS                                    0501
A0101412210000001236260LIPA JR., JOSE LAYUG                                     0501
A3001400130000001271454ZORILLA, MARIE ROSE GONZAGA                              0501
A3001400130000001271750CABRERA, FERDINAND GLORIA                                0502
A0101410560000001291065TESORIO, MARY GRACE MANANGGIT                            0501
A0101404840000001312645JALLORES, NAE ANN SEBIGAN                                0501
A0301400950000001379637GARDOSE, LALAINE GALLAZA                                 0501
A0101406040000001392007********                                                 0502
A0101407720000001393324FORES, LEO BIENVENIDO MANUEL                             0503
A1301400500000001412413MANOLITO C. ASILO                                        0501
A0101412050000001499727ENRIQUEZ, CANDICE GANZON                                 0501
A0101412050000001499738AKASAKA, LOLITA ELGARICO                                 0502
A0101405940000001534316RIVERA, ROWELL CRUZ                                      0501
A1101400120000001547520TAN, MELVIN NATHANIEL ANDRADE                            0501
A0101409050000001662539LOPEZ, GELLIAN RANDELL TORRES                            0502
A0101413570000001682679ARNOLD HAIRDRESSING SYSTEM CO.                           0501
A0101406620000001686699SINDA, EMIEBETH ENOMERABELLON                            0501
A0101413570000001720212NIMFA C. ESPULGAR                                        0501
A0101404260000001725300CHING, ELVIN SIA  JT                                     0502
A0301400790000001776172JOSE, ROBERTO NATIVIDAD                                  0502
A0701400260000001804451BERINA, MELVIN CELOS                                     0501
A0701400260000001804473JOSE, JOSELLE TAYAG                                      0501
A1401400110000001806840GABITANAN, LORELIE LUNA                                  0502
A1401400110000001806851BALDOVINO, ARACELI DALANGIN                              0501
A0101400150061227441001ERNESTO T. ECHAUZ                                        0502
A0101400150061392849001PINGOL, TERESA GARCIA                                    0501
A0101400150061564610033MARLON SORONGON                                          0502
A0601400100081572327001PONCE, AILEEN OR ROBERTO JR.                             0501
A0101400440161525001095MARITES T. TAPIADOR                                      0501
A0301400660194421173001SOLOSOD, CHONA GABULE                                    0501
A0101407140213374548001**********                                               0503
A3101400450223405022001REYES, RIZALINA OR MANOLO                                0501
A3101400450223576401001GALLEGO, DHARIA CAJAYON                                  0502
A1001400190231520766105ABUCAYON, MEBB BALA-ON                                   0501
A1301400470252518432001**********                                               0510
A0101406620273357236001GABRIELE G. BOSCHI                                       0501
A0101400570281186653002DR. BRICCIO ALCANTARA                                    0510
A0101400570281200175001MARLENE M. GONZALES                                      0501
A0101400570281388539039ROSAURO E. MANUEL                                        0501
A0101400570281555619001MACROHON, MA. CRISTINA ZAFRA                             0502
A6601400120314647693001BALLESTA, SUSANA DOMINICE                                0502
A0101402770391355762045MARLON MOLANO                                            0502
A0101402770391478374032ELPEDIA C. ABRASALDO                                     0502
A0101405490392033011001VICELA MOTOR WORKS                                       0503
A0101406330472027958001A. ANOLIN ENTERPRISES                                    0502
A0101406330472296884001JAYLEE TRADING                                           0502
A0101406330472296884001JAYLEE TRADING                                           0502
A0101406330472478374037LOLITA D. AMADOR                                         0501
A0101406330472478374038MARIBEL P. ZAFE                                          0501
A0101406330472478374041ROSEMARIE A. NAPIGKIT                                    0502
A0101406330472478374055ESPERANZA L. MALABOTE                                    0501
A0101406330472520087001MARIA MERLY R. CASTILLANO                                0501
A3801400170490088864001JOSEPHINE I FAUNILLO                                     0501
A0101403610531478374002GRAPE, IMELDA HANDOG                                     0501
A0101404130601450867001COLLIN, BERTRAND                                         0502
A0101404130601541814001DELA CRUZ, KERVIN MALANAY                                0501
A0101404130601554196001MERCADO, KENNETH JOSE LINATOC                            0501
A0101404130601657831001LAURON, MARCOS ARCADIO GALANG                            0502
A0101407720602291724004SEVILLA, JAIME OBLETA                                    0501
A0101407720602692869001NIELSEN, KAREN LUCERO                                    0502
A0101404420631478374111MARY ANN P. SANTIAGO                                     0501
A0101404680651230380001ROMEO C. RUBI                                            0501
A0101404680651515024001BERNADETTE D. RACHO                                      0501
A0101404680651520766010SEGUNDINA B. CAIS                                        0501
A0101404680651520766174MA. LOURDES G. ROMINEZ                                   0501
A0101404680651525001037MINDA M. PAJARITO                                        0501
A0101404680651526973001BONARD L. TE                                             0502
A0101404680651561390001NO NAME                                                  0501
A0101404680651628078001PRESENTACION S. ALANIS                                   0501
A1301400340683467501001ROBERTO P. BANIGUED                                      0503
A1301400340683492812001SANTOS, LEONORA DISQUITADO                               0506
A1301400500684642014001HERMOSO, DESIREEN SANTOS                                 0501
A0101407560686478374024LORNA SIBAYAN                                            0501
A0101407560686526155001101C TRADING CORP.                                       0505
A0101408240711429939004CARMELA CARAGUE                                          0501
A0101408240711536525001CALABAZARON, JOYCE PAJATIN                               0501
A0101408240711643077001PRELIGERA, MARIETA VERGARA                               0501
A2801400100712404040001ABERAS, MARY ANN DIANGZON                                0502
A2801400230713308421001BASTO, LORALIE DELA CRUZ                                 0501
A4101400260812478374067LAZARA A. SALAGUINTO                                     0501
A4101400420814520766118ADOC, MYLEN A.                                           0502
A4101400420814744380001BARLAS, MONALIZA GOLIPARDO                               0501
A0101404840851520766028MARY LILIAN R. PANDONGGAN                                0501
A0101404840851520766194FELIPA O. VILLANUEVA                                     0501
A0201400760000000040291KARGADOOR LOGISTICS CONSULTANCY                         10502
A0101412890000000125362CRISTINE MARIE LEGASPI DBU                              10502
A0101406590000000131693DR. FAITH T. BELLO OR                                   10502
A1001400480000000133542GUINTO, CHARLOTTE JANE MAGO AND                         10501
A5001400170000000170141MOISES, RACHEL OR TIU, REBECCA                          10505
A0101408110000000379971CEPEDA, RODELLA DBU                                     10501
A0101405650000000448599SIMBULAN, DENNIS DE LEON                                10501
A0101404130000000485723YEE, SONNY L DBU SLY POULTRY                            10502
A0101414090000000648562CHOA, NELSON GO OR                                      10501
A0101408660000000855932ORAYANI, RAUL SALAC OR                                  10501
A6601400120000001065394SAN PABLO, MELBA DAYMON OR                              10501
A0101413990000001406531TRIPLE JMT DOCUMENTATION                                10501
A0101413570000001682588MELODY C. CHUA DBU:                                     10502
A0101412890000001765404ACUNA, SALVADOR A OR ACUNA,                             10501
A0101401250021180940001DOMINGO, LAURA S. OR                                    10505
A0101401250021334915002BLANQUISCO, NICARDO PALCES OR                           10501
A0101400150061406534002GARCIA JR., ANTONIO RIZAL M. OR                         10502
A0101400150061697165001SERVER, CATHERINE ANNE B. OR                            10501
A0101401090171195137001DRA. ESTELA RIVERA OR                                   10502
A0101401090171195610001WILFREDO/CYNTHIA/MARIFEL MITZI/                         10502
A0101401090171196095001ALBERTO WONCHAI OR                                      10502
A0101401090171198417001ERLINDA HIPOLITO OR CAROLINA                            10510
A0301400660194086884001TORRES JR., MIGUEL VARGAS                               10505
A3101400450223545635002ALINA, EMERISSA OR                                      10501
A0201400890376053308001LIM, DOMINGO WARREN DBU CABLE                           10501
A0501400170481033355001GOLDEN TIES AND FOOD                                    10501
A1401400110492320667002AVERIA, SOLOMON DY OR                                   10501
A0101403610531220632001BLANDO, LETICIA SALEM OR                                10501
A0101403610531355089001MACASAET, DOMINGA YAMBAO                                10501
A0101403610531690989001REFORMA, BENISON AND MARILOU                            10501
A0101407720602287906001FLORENCIO GERARDO                                       10503
A0101404680651785728001IRAGEL M. ABING OR                                      10504
A0201400760000000040291SERVICES                                                20500
A0101412890000000125362OLIVIA SHOE MANUFACTURING                               20500
A0101406590000000131693RAMON ANTONIO E.BELLO                                   20500
A1001400480000000133542GUINTO, NEMER SA                                        20500
A5001400170000000170141OR TIU, EDUARDO H                                       20500
A0101408110000000379971ZRPC ENTERPRISE                                         20500
A0101405650000000448599OR SIMBULAN, KARLA ANGEL                                20500
A0101404130000000485723FARM                                                    20500
A0101414090000000648562CHOA, CORAZON CO TONG                                   20500
A0101408660000000855932MARIAN ORAYANI                                          20500
A6601400120000001065394UY, IMELDA SAN PABLO                                    20500
A0101413990000001406531SERVICES                                                20500
A0101413570000001682588M.C. CHUA TRADING                                       20500
A0101412890000001765404ALONA C                                                 20500
A0101401250021180940001DOMINGO, EDWIN V                                        20500
A0101401250021334915002BILON, ERWIN BLANQUISCO                                 20500
A0101400150061406534002GARCIA, ANNA LIZA                                       20500
A0101400150061697165001CHRISTINE MICHEL                                        20500
A0101401090171195137001LEAH SOCORRO RIVERA                                     20500
A0101401090171195610001CYNTHIA MARIE FERNANDEZ                                 20500
A0101401090171196095001MILAGROS W. LIM                                         20500
A0101401090171198417001AMARO OR LOURDES MEDRANO                                20500
A0301400660194086884001TORRES, MARILOU                                         20500
A3101400450223545635002GATDULA, ENRICO                                         20500
A0201400890376053308001HYDRO MACHINING CENTER                                  20500
A0501400170481033355001RESOURCES INC.                                          20500
A1401400110492320667002AVERIA, MA.SARAH                                        20500
A0101403610531220632001BLANDO JR., LUIS                                        20500
A0101403610531355089001MACASAET, LOPE M                                        20500
A0101403610531690989001AND ANDISON                                             20500
A0101407720602287906001CAEDO JR. M.D.                                          20500
A0101404680651785728001FELIX F. MONFORT                                        20500
B0101402060000000022686RSL PROPERTY DEVELOPMENT CORP.                           1602
B0101412630000000024040MONDAVI CONDOMINIUM CORPORATION                          1601
B0101407430000000035270TURPS AND TUCKER INTERNATIONAL CORP.                     1602
B0301400660000000048213G.J.T.F. BUILDERS AND CONTRACTORS, inc.                  1603
B0101404840000000090366BATAAN AUTOMOTIVE RE-MANUFACTURING                       1602
B0101406040000000096695FORMULA OIL CORPORATION                                  1601
B2801400100000000188421AV SURFER SUBIC CORP.                                    1605
B0101400150000000633390AVIZE INC.                                               1602
B1101400120000000653003FIRST LE MARKE RESOURCES INC.                            1601
B0101408240000000832633A & V MALITLIT DEVELOPMENT CORPORATION                   1603
B0101401700000000890411FREENOR AUTO SUPPLY                                      1608
B0301400660194031358088*****                                                    1605
B1001400350233013980001VIC IMPERIAL APPLIANCE CORP.                             1603
B0101402770391025883001DA LEONARDO INDUSTRIAL INC.                              1601
B0101406330472034895001PRIME MKTG. AND DIST., INC.                              1603
B1401400110492046339002****                                                     1610
B0101406880513327783001ALPHA SALCEDO CONDOMINIUM CORP.                          1602
B0101403450521024677001GRAND MAJESTIC MANUFACTURING CORP.                       1602
B0101403610531044399001AURORA QUINTO ESPINO TRUCKING                            1603
B0101404130601506100002LINK RI LOGISTICS INC.                                   1603
B0101404130601513612001JMATERIALS CORPORATION                                   1602
B0101404260611034715001LAY BARE FRANCHISING CORPORATION                         1601
B0101409890649080657001XXXXXX                                                   1601
B0101404680651027819001EXCELLENT PLASTIC PRODUCTS MFG. CO.                      1602
B4101400390813751573001E.GROUP VENTURES INC.                                    1602
B0101401090171008320001OSTEOPOROSIS SOCIETY OF THE PHILS.                      11605
B3101400160221017124001PANASONIC PRECISION DEVICES PHILIPPINES                 11602
B0101402060351009365002GREEN VALLEY TOWNHOUSE OWNERS                           11601
B0201400760374047054001UY, RAMONSITO BUHIA DBU                                 11610
B0101403610531393288002CHING, IRENE AVERIA OR CHING,NG                         11601
B0101404130601042675001iPRUDENTIAL STEVEDORING AND PORT                        11605
B0101404130601042675003iPRUDENTIAL STEVEDORING AND PORT                        11605
B0101401090171008320001FOUNDATION INC.                                         21600
B3101400160221017124001CORPORATION                                             21600
B0101402060351009365002ASSOCIATION INC.                                        21600
B0201400760374047054001VINEYARD CONSTRU                                        21600
B0101403610531393288002OR CHING, JOWELL                                        21600
B0101404130601042675001SERVICES INC                                            21600
B0101404130601042675003SERVICES INC                                            21600
B0101402770391821100608**********                                               2050
B0101407720602821100608**********                                               2005
