F0101404130601417875004TUMIBAY, BIANCA JILL FERRER                              2505CKO
F0101405490000001092422ADVIRA TRADING CORPORATION                               2601CKR
F0201400180181051134002ELSALVADOR LENDING CORPORATION                           2603CKO
F3101400450223028412001CERDA MATERNITY CLINIC                                   2602CKO
F1001400480000000133600INDORAMA VENTURES PACKAGING (PH                         12601CKR
F0101404130601614586002UNICHAMP MINERAL PHILIPPINES                            12604CKR
F1001400480000000133600ILIPPINES) CORPO                                        22600CKR
F0101404130601614586002INC.                                                    22600CKR
