A0101403450521239867001**********                                               0503
A1901400160491298552008VILMA F FALCUNAYA                                        0502
A1901400160000016900413ILUSTRE, JOEL REYES                                      0502
A0101413440000018606363VILLAMOR, NANCY MAGLENTE                                10501
A0101413440000018606363or VILLAMOR, CONCEPCION                                 20500
A0101400860011516486001**********                                               0501
A0101401250000017479462GARCIA, MA. VERONICA SAYAT                               0501
A0101401250021478374001BAGTAS, JOSEPHINE P.                                     0501
A0101400150000002394692CLERIGO, JOHN CARLOS BALOIS                              0501
A0101400150000003141482CABRERA JR., PELAGIO ESPERAT                             0502
A0101400150000009995153NICDAO, MELINDA DOLOSO                                   0502
B0101400150061011181001BIO MINERALS DEVELOPMENT CORP.                           1603
B0101400150061024381001EVERGREEN LOGISTICS PHILS. CORP.                         1610
B0101400150061036959001PINNACLE ASIA, INC.                                      1603
B0101400150061040628001ARPAPHIL SHIPPING CORPORATION                            1602
B0101400150061085874001ANNING CORPORATION                                       1602
A0101400150000002394625KATIGBAK, CARMENCITA D.                                  0506
A0101400150061396165001SANTIAGO, MA. SOCORRO S. OR                             10501
A0101400150061396165001PACIFICADOR, AIN                                        20500
A0101405810000001021321***********                                              0501
A0601400100081382865005REYES, LIBERATO OR GLORIA                                0501
A0601400100000002072668SAN JOSE, ERNESTO ALBUERO                                0501
B0601400360000015474269TAT-PRINTING PHILS. INC.                                 1602
A0601400520000005943702IMPACT BALIBAGO ARTS AND CRAFTS                          0510
A0601400520000009516792GONZALES, ELIZABETH BONDOC DBU                          10503
A0601400520000009516792EBG TRADING                                             20500
A0101410560000003562190POLOTAN, KATRINA LYN JAVIER OR                          10501
A0101410560000003562190POLOTAN, CHRISTIAN WARDE                                20500
A0101410560000010317738TENG, MARIA FE TERESA EDRALIN                           10501
A0101410560000010317738DBU YALA BAGS TRADING                                   20500
A0101406040000014388577DAVID, CASEY ANNE PASCO                                  0503
B0101406040000003547620LESINC SCIENTIFIC EQUIPMENT INC.                         1604
A0101406040112208430001PRISCILA C. RAMOS                                        0502
A0101413150000006294233HUANG, LIANGLIANG                                        0502
A0101413150000016613757UNG, REBEKAH ONG                                         0502
A0101413310000018629053SANTIBANEZ, ALFRED GARCIA                                0501
A0101413310000015039751MASCARDO, GUIAN CARLO ARBOLEDA                           0501
B0101413310133057300002THINKSCAPE RESEARCH SERVICES INC.                        1603
B7201400170000007185562CARUMBA, MARGIE SEPADA OR CARUMBA,                      11602
B7201400170000007185562DANIECITO PASCO                                         21600
A7201400170000010016056GANANCIAL JR., CARLOS FUENTES                            0502
A7201400170000018578762CHUA, DENNIS TY OR                                      10501
A7201400170000018578762CHUA, CATHERINE TIO                                     20500
A0101400440000016569434GUNTANG, RIZALYN VILLAPANDO                              0501
A0101400440161525001052MARY B. MONDRAGON                                        0501
A0101407270000017833064BAYOT, CYNTHIA PARRILLA                                  0501
A0101401090000005320392ANDRES, MYKA ANGELIQUE ORENSE                            0501
B0301400660000012086743ASIA PACIFIC EXPRESS CORPORATION                         1601
A0301400790000005691990EMBALSADO JR., ALBERTO GEMPESAW                          0502
A0301400950000013857322ANG, DANIEL TE                                           0502
A0101401380000001820002LEY, RICHMOND REGAN CO                                   0504
A0101401380201554626001BANGURAN, MYRNA BRINGAS                                  0501
A0101401380201618189001CINCO, ROSA OR LAM, LAURENCE                             0505
B0101410720000011276743DABALOS, ZARRIN ROSE DBU ZMDA HEALTHCARE                11601
B0101410720000011276743MARKETING                                               21600
A0101412500000018623646SAGMAQUEN, REYVIE VENTURA                                0501
A3101400160000014143870OBLEA, PORTIA TOLENTINO                                  0501
A3101400740000016514711KING, MYLENE AVILES                                      0501
B1001400350233032957001PCCI FINANCE CORPORATION                                 1601
A1001400350000000017165MEN DBU A&L MARKETING SOLUTIONS                          0501
A1001400480000014023580ELIZAR, CATHERINE GRACE B DBU                           10502
A1001400480000014023580CATHY'S BOOKKEEPING SERVI                               20500
B1001400480000000133593DELUXE RANCH TRANSPORT CORPORATION                       1602
A1301400470000005394254KATHERINE MALONES PANAHON OR                            10501
A1301400470000005394254MIROFE JUAN MALONES                                     20500
B1301400760000007820660VICTOR R. DEL ROSARIO RICE MILL CORP.                    1605
A1901400290000001975255JIAO, AGNES TUBILLEJA                                    0502
A1901400290261244564002ANITA LUMBERA SAUZ                                       0503
B0101406460000000182370WEE COMMUNITY DEVELOPERS, INC.                           1605
B0101406460000000182483WEE COMMUNITY DEVELOPERS, INC.                           1605
A0101406620000006317860DELGADO, JUDY GRACE TIONGCO                              0502
B0101406620273031145002KOHL INDUSTRIES CORPORATION                              1601
B0101412470000002086353ISABELA ASIA STAR CORP.                                  1608
A0801400160000016201179AMARANTE, JOSELYN MAPRANGALA                             0502
A0101402350000016545461SANTOS, FRANZ JOSEF SIA                                  0502
A0101402060000011455166CASTILLO, IRISH MAE PAREDES                              0502
B0101402060351009368001RESINS, INC.                                             1604
B0101402060351019160001COMPOSITE MATERIALS, INC.                                1605
A0101409050000009981122REYES, MA. LOURDES GARCIA                                0501
B0101402930381042032001GLOBAL STRATEGIC SOLUTIONS AND SERVICES                 11602
B0101402930381042032001INC.                                                    21600
A0101402930381205376002ROGELIO LUSONG OR                                       10502
A0101402930381205376002EVELYN LUSONG                                           20500
A0101408370382597245001DR. NIKKOH P. MUNOZ                                      0503
A0101408370382660357001DRS. THERESA MARIE R. CACAS OR                          10501
A0101408370382660357001JEANNE MARIE R. MARQUEZ                                 20500
B0101411660000009219990REDSTONE APPAREL, INC.                                   1605
B0101411660000000032191QUANTUM AMUSEMENT CORPORATION                            1602
A0101402770391757431003CHAN, HAYDEE CHUA OR                                    10501
A0101402770391757431003CHAN, PAULINO COYIT                                     20500
A0101405490000000126496MARONILLA, CONNIE ARCELO                                 0501
A0101405490000002253010ROSEMAE J. SISON                                         0501
A0101405490000006300152OGOT, PABLITO BINUNGCAL                                  0502
B0101405490000000019963NAJIA MOVERS & PROJECT SPECIALIST INC.                   1604
B0101405490000008380723ORIENT STAR TRANSPORT PHILS. INC.                        1604
A0101405490392589729001SUSAN O. DU                                              0503
A0101408400000005782294COMETA, EMER T.                                          0501
A0101409180000001237343CAMPA, CARLOS NIETO                                      0502
A0101409210000009966825EVANGELISTA JR., CARLITO ACAR                            0501
A0101412210000012172126ROXAS, AURORA RHODORA VILLEGAS                           0503
B0301400820000017664047LOQUINTE, MACARIO P. DBU JAMM BREADHAUS                  1601
A2401400180000000073527LAFARDZ MARKETING                                        0503
A2401400180411478374044UGAT, ELVA T.                                            0502
A2401400180000012748619TUPAS, BEATRIZ PALACIOS                                  0502
B0101403030441241050001**********                                               1602
A0101410140000006015407EDORIA, DBU MLE VALVE ENTERPRIS                          0503
B0501400170481018109002CSI WAREHOUSE CLUB INC.                                  1603
B0501400170481025398002COSTSAVER'S SUPERMARKET, INC.                            1601
B0501400170481258347003COLEGIO DE SAN JUAN DE LETRAN-                          11605
B0501400170481258347003MANAOAG INC.                                            21600
A0501400170481610785001TAMBAOAN, JEAN ESTOQUE                                   0501
A3801400170000002302983RENATO L ABALOS                                          0501
A1401400110000017625300DE VERO, ROBERTO TANEDO DBU BOM                          0504
A0701400260000009912876SOLA, MA EVA ICARO                                       0501
A0701400260000013603571SOLA, VEA ROMELLE ICARO                                  0501
A0701400260000013603760BARRION, DELFIN CLUTARIO                                 0501
A0701400260000017068532REDBURN, MARISSA REORIZO                                 0501
A0701400260000017068674JOSON, FLORINDA ABOGADO                                  0501
A0101403580000005961931VERA, RUFIA DOROTHY C.                                   0505
A0101405940512155818001ANTONIO C. KO OR LEE MEE LING                            0502
A0101408530000018613948CATUGAL, JOHNSAN SUMINGUIT                               0501
A0101408530000018613982DESTRAJO, PATRICK BALIOS                                 0501
A0101408530000018614058DUADUA, TEDD CENT ANTHONY BABIL                          0501
A0101408530000018614105FELISCO, RITCHEL AMARAN                                  0501
A0101408530000018614150FEROLINO, MARJORIE ANNE ESPANO                           0501
A0101408530000018614190HERNIA, JOHN PAUL EVANGELISTA                            0501
A0101408530000018614230HUDIERES, PRINCESS MAE CABLINDA                          0501
A0101408530000018614309LAPINIED, MARK DOUGHLAS CANILAO                          0501
A0101408530000018614343MACAHILO, MA KATRINA ALYSSA BAT                          0501
A0101408530000018614383MAIZ, JOEL TEJONES                                       0501
A0101408530000018614423NUDALO, ARNIE JANE VILLARTE                              0501
A0101408530000018614452PANGCOGA, ADAM ABELLANOSA                                0501
A0101408530000018614496PATOSA, ANGIELY SUMALINOG                                0501
A0101408530000018614521SALERA, ANGELA .                                         0501
A0101408530000018614554TACUBAN, JEMALYN PASTOLERO                               0501
A0101408530000018614598AGULLANA, LUIGI LYNE VILLAPAZ                            0501
A0101408530000018614623ALBARILLO, CHRISTIAN JOHN BASAY                          0501
A0101408530000018614678AMOREN, CHINA JANE AGUDERA                               0501
A0101408530000018614703ATON, PRINCESS SHANADRA CABALLE                          0501
A0101408530000018614736AYUPAN, RENZ MIKHAEL FLORES                              0501
A0101408530000018614769BALANE, JUNA TOLEDO                                      0501
A0101408530000018614805BENASING, AIDALYN MAMARINTA                              0501
A0101408530000018614849BROWN, CAMILLE SALIGUMBA                                 0501
A0101408530000018614872ELLARINA, RANNIE CERVANTES                               0501
A0101408530000018614907FLORES, NICHOL LUMAGOD                                   0501
A0101408530000018614941HAYAG, MICHELLE ORDIZ                                    0501
A0101408530000018614981LAPINIG, GLADY GRACE TANDAYAG                            0501
A0101408530000018615017LUGA, JOMARI .                                           0501
A0101408530000018615040MONTER, MAYVEER ELLIONADO                                0501
A0101408530000018615073MUSTAPHA, AMIRAH UMPARA                                  0501
A0101408530000018615119PAGADUAN, ALDREN NAPALA                                  0501
A0101408530000018615153PARAN, JOHN REY PACIONES                                 0501
A0101408530000018615182PAULO, CHRISTOPHER REY BARTE                             0501
A0101408530000018615211REYES, CHRISTIAN CEDIE LOGRONIO                          0501
A0101408530000018615251SILONGAN, ALMAILEEN LAUBAN                               0501
A0101408530516571877170CHRISTIAN T. SILAGAN                                     0501
B0101403450521011882004PAN PACIFIC TRAVEL CORPORATION                           1603
B0101403450000002975655***************                                          1603
A0101403450521238178001**********                                               0502
A0101403450521441986001***********                                              0520
A0101403610000017059291CAINTIC, VIVIAN GARCIA                                   0501
B0101403610531009928002LAMP METALS INDUSTRIES                                   1602
B0101403610531035657001A1 STEELFORMER CORP.                                     1602
B0101403610531518484001A1 STEELFORMER CORP.                                     1602
B0101407720602044366001A. ILUSTRE & ASSOCIATES, ARCHITECTS                      1601
A0101407720602415232033ROSEMARIE C. ONG                                         0501
A0101412180000000908390LIM, LEA YAP                                             0501
A0101404260611549185001REYES JR., ROSENDO ALCAFARAS                             0501
A0101413440000016444343SALCEDO, JEANNETTE OR                                   10502
A0101413440000016444343SALCEDO, ERIC                                           20500
B0101413570000013276923JEZREEL TRAVEL AND TOURS INC.                            1601
B1301400210000013219233NU CETUS LENDING INC.                                    1610
B0101408240000013786946TRESALMACEN CORP.                                        1601
B0101408240000013787089BONNESMAINS SERVICES CORP.                               1602
A0101408240711487311001RACHO, DESIDERIO OR TRANQUILINA                         10502
A0101408240711487311001OR ANNA OR ARTHUR                                       20500
A2801400100000002253549PARAZO, DARLOW BALMORES OR                              10502
A2801400100000002253549PARAZO, RAYDA PA                                        20500
B2801400100712043405001MALAYAN TOWAGE & SALVAGE CORPORATION                    11610
B2801400100712043405001- SUBIC                                                 21600
A2801400230000005752387BALDEO, ROSA MARIA BUSTAMANTE                           10503
A2801400230000005752387OR MONTANO, GENEVIEVE                                   20500
B2801400230000005253561PRAGMATIC DEVELOPMENT & CONSTRUCTION                    11610
B2801400230000005253561CORP.                                                   21600
A4101400260000016254329TOMARONG, ANA P. DBU LUCKY                              10503
A4101400260000016254329BUDDIES PHARMACY                                        20500
A4101400390813478374008FELICITAS CORTEZ                                         0501
A4101400420000003309004MEMBERS OF, NATASHA SHOECAT INC                         10501
A4101400420000003309004VILLAR, LUCIA                                           20500
A4101400550000006044424MEDIAVILLO, MARK CHRISTIAN AGUI                          0501
A0101412340000003343502PHILIP S. GARCIA                                         0501
A0101412340000017937881EDWIN V. MATULIN                                         0505
A0101412340000010660061ESTAYANI, ZHARA LY M.                                    0502
A0101406750000005666817CDB ACCOUNTING AND TAXATION                             10502
A0101406750000005666817SERVICES                                                20500
A0101413860000001886946FERNANDEZ, DOLORES GOZON                                 0502
A0101413860000018622136OBSIOMA, CHERANE EBUNA                                   0501
A0601400230000003015550SAMIA, RETINA PANGILINAN                                 0501
A0601400230000017769254BONUS, HECTOR BRIONES                                    0501
