A1101400120000001547315GABORNES, CARMELITA C.                                   0502
A0101401670271424545001SIY, CLARIZA ANNE CHIA                                   0501
B1101400120313543446001TY CHAN HAI,SANTIAGO OR TY,LISA OR TY,                  11602
B1101400120313543446001SHANE LAWRENCE                                          21600
B0301400530000000066088********                                                 1605
A0301400530000003087329VALDIVIA JR., ABELARDO SAN LUIS                         10501
A0301400530000003087329OR VALIDIVIA, ALICIA M.                                 20500
A5501400120000005492253CIRINEO, LILA MARIE LITERAL                              0506
A0101401250021535073002BILON, ERWIN BLANQUISCO                                  0501
A0601400520000005001374LAXAMANA, KC OHLA VALENCIA                               0501
A0601400520000005943597SAENZ, EDUARDO BATAC                                     0504
B0101413730000001568470***********************************                      1602
A0101410560000001944196KRISTINA MAE A. SAPIERA                                  0501
A0101410560000000020151JERLYN B. SAMSON                                         0501
A0101406040112553569001ANNALIZA C. MANDAGUIT                                    0501
A7201400170000002791411HASAN, MOJAHED YUSOP OR                                 10501
A7201400170000002791411HASAN, NAILAH DIMAPORO                                  20500
A0101400440161039572023JIMMY S. PALISOC                                         0502
A0101407270000007689716PONCE, DARYL ANN JIMENO                                  0502
A0101407270162552753001LIMPANGAN, JOHNHOFF PABUSTAN                             0503
B0101401090171027703001INSTANT DRUGSTORE AND GENERAL                           11602
B0101401090171027703001MERCHANDISE                                             21600
B0101401090171035575001MOSS MANILA EVENTS HOUSE INC.                            1605
B0101401090171196348002EVELYN A. SONGCO AND MARIA MERCEDES C.                  11601
B0101401090171196348002BUENDIA                                                 21600
A0101401090171391935001JULIE CHRISTIE G. VISPERAS                               0501
A0301400530000001409694ALIADO SR., JIMMY M.                                     0502
A0301400530193710800001TABANAO, JESICA G.                                       0504
A0301400660000006862617BANGAYAN, EDWARD LAWRENCE UY                             0501
A0301400660000005691881CHIU, PETER PAUL VINCENT CUE                             0501
A0301400950000001379477CCD AUTO HUB AUTO SERVICE                               10503
A0301400950000001379477CENTER                                                  20500
A0101410720653575025001CRISTINA G. CUEVAS                                       0502
A0101410720210774990001PERALTA, JOANNA MAUREEN TIONLOC                          0501
B3101400160221010538003ADVANCED MEDICAL SYSTEMS, INC.                           1602
A3101400160221356270002RONALD J. PUA                                            0501
A3101400740000006735824GARCIA, EMILY B. DBU MMA EVENTS                         10502
A3101400740000006735824SPECIALISTS AND CATERING                                20500
A1001400190231275077001TAN, EDUARDO                                            10502
A1001400190231275077001TAN, LUCIA                                              20500
A1001400190231478374012FARINAS, EVA MAE CENTO                                   0501
A1001400190231520766051NANCY DAAYATA                                            0501
A1301400470252496286001MARIO G. VILLASAN OR                                    10501
A1301400470252496286001ROSARIO A. VILLASAN                                     20500
A0101401670000000237643FREDESWINA TANTENGCO JAVIER                              0502
B0101401670271486391001EXCELLENT GOLFING PARTNERS                              11602
B0101401670271486391001CORPORATION                                             21600
B0101406460000000182483WEE COMMUNITY DEVELOPERS, INC.                           1605
A0101406620273072069001LEANO, DEVI PESSUMAL                                     0502
B0101400570281024044001CREDITNET PHILIPPINES, INC.                              1605
A0501400200000005137188******                                                   0501
A2601400270302633240168LEA HATOL OR JOSEPH HATOL                                0503
A0801400160000002676782GAW, CHENONG LIMSUI DBU ONE                             10501
A0801400160000002676782PLUS ONE                                                20500
A0801400160311419412001UY, CARMELA WENDY OR                                    10502
A0801400160311419412001UY, JOHN ROLAND                                         20500
A1101400120000002254877POTICANO, BERNARDO IGANA                                 0501
A1101400120000003595988VILLA, ELVIE DACLIZON                                    0501
A1101400120000003022544PULMA, MARY ANN G. DBU GASPANG-                         10501
A1101400120000003022544AGUILLON BIRTHING CLINIC                                20500
A1101400120000005608260SANITA, ERIC SALIENTE                                    0502
B3401400280000000002342VIC IMPERIAL APPLIANCE CORP.                             1604
A3401400280318478374001MARILYN B. BISMANOS                                      0502
B0101402350321027310001NECELINE CORPORATION                                     1606
A0101402350321708802001ALMAROSE C. VILLAPANDO                                   0501
B0101405650322036086001VISTALAND INTERNATIONAL MARKETING, INC.                  1610
A0101405650322497703001BASCON, PHILLIP HOWARD                                   0502
A0101402510000008314112SADURAL, LEA LISA NAVARRO                                0501
A0101402510341331222002ERLINDA C. RECOCO                                        0502
A0101409050000003533560CALDITO, MIRASOL                                         0501
A0201400760000002309593CORTES, JOAN BALUNGAG                                    0502
B0101402930381023938001SNOW MOUNTAIN DAIRY CORPORATION                          1605
B0101402930381047467001FLUID SOLUTIONS, INC.                                    1601
A0101408370000002264057REYES, ALEXANDER JOSEPH LAI                             10506
A0101408370000002264057OR PALMERO, ELIZABETH L.                                20500
A0101408370382485515003MARGUERITHA LOUISE ARAMBULO OR                          10502
A0101408370382485515003VICTOR MICHAEL LUCENA                                   20500
A0101408370382597245001DR. NIKKOH P. MUNOZ                                      0501
A0101408370382660357001DRS. THERESA MARIE R. CACAS OR                          10501
A0101408370382660357001JEANNE MARIE R. MARQUEZ                                 20500
A0101402770391013439001JIREH'S CAR PAINT SHOP                                   0504
A0101402770391391251001CAMENFORTE JR., JOSE DARADAL OR                         10501
A0101402770391391251001CAMENFORTE, YOLANDA GAVAN                               20500
A0101402770391563406001YMBONG, FRANCIS WILLIAM B. OR                           10501
A0101402770391563406001YMBONG, ROTSEL JANE L.                                  20500
A0101408400000003120736DE VERA, AIRYN GOROSPE                                   0501
A0101408400394478374058CHARINA BENIGNOS                                         0505
A0101409210000007762641GUIANG, MA LOTA ECHIPARE                                 0501
B0101409210000004818895JDP CONSULTING LTD. CO.                                  1602
A5501400120410283898001GARCIA, JOSIE OR                                        10510
A5501400120410283898001GARCIA, GERARDO                                         20500
A5501400120410675739001BAYLON, EDWIN ELLON                                      0501
A2401400180411514423001DEALA, BERNARDITA GATCHALIAN                             0502
B1201400150421287283001*****                                                    1601
A1201400150421478374035DALAN, LINDA G.                                          0505
A0101412890000001056371CALUSA, MA CRISTEL MAICA LEYNO                          10502
A0101412890000001056371OR CALUSA, RODEL                                        20500
A0101412890000002324209MERAN, MARIA ANA LAMBUS                                  0501
A0101403320471212175001CABALDE, EDNA SIMON OR                                  10501
A0101403320471212175001ERNESTO CABALDE                                         20500
A0501400170481365467003CALLANTA, JOHN SORIANO                                   0505
A3801400170000005288100FAUNILLO, JOSEPHINE ISADA                                0501
A1401400110000003988996CARCIDO, JEFFERSON CU                                    0501
A1401400110492531512001SALVANERA, ZIEGFREDO AGUILAN                             0501
A1601400170000000497423MENCHU R. BUADO                                          0501
A1601400170000000497569MARISSA A. ARCANGEL                                      0501
A1601400170000001360656HOMER O. REYES                                           0501
A0101403580511152534001RHEAVILYN A. DELA CRUZ OR                               10502
A0101403580511152534001MARITESS ALVAREZ                                        20500
A0101405940000007298562CASEDO, LILIBETH MEDALLON                                0502
B0101408530000003866126HOPPLER INC.                                             1602
A0101408530516471293001CALICDAN, ENRIQUE S. OR                                 10501
A0101408530516471293001CALICDAN, FLORIT                                        20500
B0101403450521025882001**********                                               1601
A0101403450000006055701**********                                               0505
A0101403450521478374007********                                                 0501
B0101403610531393288002CHING, IRENE AVERIA OR CHING,NG                         11601
B0101403610531393288002OR CHING, JOWELL                                        21600
A2201400250561019818001KIS ENTERPRISES                                          0505
A2201400250561297004017ROWENA M. GENDRALA                                       0501
A0101407720602472259001CALILONG, LORELEI IRA                                    0501
B0101404260000004781335LIM, HERMAN DONATO DBU ONEFULL TRADING                   1604
A0101404260611152161001PABLO O. LABRADOR                                        0502
A0101404260611478374135EMELITA B. MONCHEZ                                       0502
B0101409920650058086001MANNICK COMMERCIAL TRADING CO.                           1605
B0101413440000000038195SIENA MOBILE WORLD CORP.                                 1601
A0101413570000005867310LEJANO, VIRGILIA PAHAYAHAY DBU                           0501
A0101413990000006278157MONTERDE, MARGARITA CAMAGON                              0502
A0101413990000003141179ONG, CHARLIE E.                                          0503
A1701400230000001786741BACLIG, CHARISMA LOPEZ                                   0501
B4101400390813019416002STI COLLEGE-ROSARIO, CAVITE, INC.                        1602
A0101412340000003340412ALVIN E. ACAR                                            0501
A0101412340000003343433JHON JEFFERSON P. GAMILLA                                0501
A0101412340000004360296LIWAYWAY M. LANGIT                                       0501
A0101412340000001017849MASUBAY, MA. CHRISTINA B.                                0501
A0101404840851520766184PASCUAL, GLEN IVAN                                       0501
A0101405070000001455863ERNESTO GONZALES, JR. JT DBU EG                         10502
A0101405070000001455863THREE MANPOWER S                                        20500
A0101405070861366707001ARELLANO, MA. ELENA BALLESTEROS                          0502
A0601400230891738531001MARK ANTHONY CHUA OR GILBERT A                          10503
A0601400230891738531001TAYAO OR ABELARD                                        20500
