F3201400190000001493045DR. ROMEO P. PIRA DBU PIRA CLINIC &                     12603CKO
F3201400190000001493045HOSPITAL                                                22600CKO
F0101403580511024261003A.R.M. RESOURCES, INC.                                   2620CKR
F0101403580511034358001A.R.M. SERVICES COOPERATIVE                              2610CKR
F0101403580511378857001ARM WAREHOUSE MANAGEMENT &                              12610CKR
F0101403580511378857001CONSULTANCY SERV                                        22600CKR
F3101400870225059739001PIMENTEL, S DBU GDNC GAS                                12601CK1
F3101400870225059739001STATION                                                 22600CK1
F0101400570281506759001EDUARDO ROMMEL S. POBLETE                                2503CKO
F0101408400000000077861W LANDMARK, INC.                                         2603CKR
F2201400250561029074001MAGANDANG KAPALARAN PRIMARY                             12610CKR
F2201400250561029074001MULTI PURPOSE CO                                        22600CKR
F4101400260812044042001PALIPARAN KING CONSTRUCTION                             12505CKO
F4101400260812044042001SUPPLY                                                  22500CKO
