B0201400210371821100608**********                                               2020
A0101412500000006708336TAN, JEROME MONTIERO                                     0501
A0101408400394463922001ANOG, BONIFACIO BAQUIRAN                                 0501
A0101406750000005397759ALVAREZ, PRESENTACION MAURICIO                           0502
A0101412500000000739657****                                                     0503
A4101400420814299258001JARO, JERRY RAMOS                                        0510
A4101400420000003715724FLAVIANO, PERLITA                                        0501
B0101405650322172336001RCBP-OUR LADY OF GRACE PARISH                            1601
B0101403580511016327001KSEARCH ASIA CONSULTING INC.                             1610
B0101403580511016440001SUGI MANAGEMENT CORPORATION                              1610
A0101403580511327851001MARIETA G. DEL ROSARIO                                   0501
A0101403580511356243001EMERALD ANNE C. BAGNES                                   0505
A0101407720602379811001NOEL S. AYPA OR MA. CARMEN                              10502
A0101407720602379811001TERESA G. AYPA                                          20500
A0101413440000001472635TORRES, MYRNA DBU STJC SCHOOL                            0502
A0101413440000001472839TORRES, MYRNA DBU STJC SCHOOL                            0502
A0101414120000004603110CO, WILBERT KHO                                          0501
A0101414120000003584150NICOLO-MARTIN MARKETING                                  0501
A0101400860000001005490**********                                               0502
A0101400860000005312992*                                                        0505
B0101401250021007015001RIZAL FUNERAL HOMES, INC.                                1606
B0101400600000000007792**********                                               1601
A0101405810072291768001**********                                               0501
A0101405810072368655001***************                                          0501
A0601400100000007250724BUAN, LIEZL ROQUE                                        0502
A0601400100000000141864DEL ROSARIO, ROCELLE PENA                                0504
B0601400360000003186907MEDINA  FLORES PALARCA & OFRIN                           1601
B0601400520000000398512PAGASA PHILIPPINES LENDING COMPANY, INC.                 1606
A0101400730111203514043JULIE P. VILLANUEVA                                      0502
A0101400730111386485175IVANHOE O. MARASIGAN                                     0502
A0101401960121096152001***************                                          0502
B0101413150000000082784*********                                                1601
A0101401830141205402002ZABALA JR., ARMANDO V. OR                               10502
A0101401830141205402002ZABALA, CRISTINA C.                                     20500
A0101401830141206536001PEDRO S. FLORES OR                                      10505
A0101401830141206536001IRMA G. FLORES                                          20500
B7201400170000003773984BAJAMUNDE JR., JESUS BLANCIA                             1603
B7201400170000003773637MDSDOC CORPORATION                                       1601
A0101400440161471044001SHERWIN T GERBUYOS OR                                   10505
A0101400440161471044001CRISTINA I GERBU                                        20500
A0101400440161525001040DOLORES A. DE GUZMAN                                     0502
A0101400440161582425001JENNIE C. ARGANOZA OR                                   10501
A0101400440161582425001JOMYR C. ARGONOZ                                        20500
B0101407270162052125002DELISCENTS, INC.                                         1605
A0101401090171199858001RODELIO DOMINGO LIM                                      0501
A0101401090171374243001ANNABELLE G. LAURO                                       0501
B0301400530000001409438GENSAN LCL TRADING, INC.                                 1603
B0301400530193558888088GAISANO, VIRGINIA / BENITO                               1605
B0101401380201018788001PHILIPPINE BAPTIST, S.B.C., INC.                         1610
A0101401380201328165001RIVERO, HENRIETTA UY                                     0501
A0101412500000008527544GANDULLAS, RALPH RIGOR AMADOR                            0501
A3101400870000002861538ALEMAN, EULALIA JAUM                                     0502
A3101400870000005410268GARCIA, SUSAN SALAZAR                                    0502
B3001400130000001271783WINPHARMA DISTRIBUTOR                                    1603
A1001400190231235649001DUGADUGA, METHOSALEM                                     0501
A1001400190231520766093DACUTANAN, REYNOZA RADOC                                 0501
A1001400480000000606911FREGIL JR., BENITO GO OR FREGIL                         10501
A1001400480000000606911MICHELLE                                                20500
B1001400480000003357840BALDADO, MARIA LYDIA PEPITO DBU JOMARI                  11601
B1001400480000003357840TRUCKING SERVICE                                        21600
B1301400470000003270157L5 & SONS FINANCING CORP.                                1610
B0101408660000001940610WESTMINN CONSTRUCTION AND DEVELOPME                      1602
B0101412470000003847449GAUFRE WAFELS INC.                                       1605
B0101400570281007176001ASIAN INSTITUTE OF LITURGY & MUSIC                       1601
B0101400570281007593001KINGSFORD ENVIRONMENTAL PHILS INC.                       1604
A0101400570281706972001**********                                               0501
A2601400270000002677569DEXTER C. DUMRIQUE                                       0502
A2601400270302794359001VENILDA S. ZARA                                          0501
A6601400120314612973001CABILI, MANUEL MELFORD OR                               10505
A6601400120314612973001MANUEL OR TERESITA OR ZYB                               20500
B0101405650322172336001RCBP-OUR LADY OF GRACE PARISH                            1601
A0101405650000002325515**********                                               0502
A0101402060351009458001LION TWIN ENTERPRISES                                    0502
A0101402060351211814001MA. ANA S SANTOS                                         0502
B0101409050352043882001NONITO SHOES AND BAGS SUBCONTRACTOR                      1605
A0201400920000000991711MAGDUA, MAY ANN DARUNDAY                                 0501
A0101408370382399866001EDWARD L. TAN OR                                        10503
A0101408370382399866001MA. MONICA CARDINEZ-TAN                                 20500
A0101408370382663801001DRS. RICARDO G. ROCO OR                                 10503
A0101408370382663801001URSULA V. ROCO                                          20500
A0101408790000000579795BMS LAMPS DECORS & SUPPLIES                              0503
B01014116600000075557711-TRANSPORT EQUIPMENT AGGREGATOR AN                      1610
A0101415350000005356969SATSATIN, LOIDA TAMPIL                                   0501
B0101402770000000023758STOLLER PHILIPPINES INC.                                 1602
B0101405490392043958001LIPA TRADING CENTER                                      1601
A0101405490392177005001DOMINGA P. BUENAOBRA                                     0501
A0101408400000005286320AMEROL, ROSLINA MAROHOMSALIC                             0502
A0101408950396583694001VILLAGOMEZA, ELSA GUERZO                                 0502
B0101412210000003448731AIKKAITO CORP.                                           1601
A0101412210000004644553DE LEON, EDWARD MAXIMO                                   0502
A5501400120410478374001ESTACION, EDELYN                                         0501
A2401400180000003949162AQUILINO, WARDLEN MAE PALACA                             0505
A2401400180000007031687BODHI YOGA CENTER                                        0502
A2401400180411478374059ANALITA R. SUICO                                         0502
A1201400150421039385001JL'S CLEAN UP JANITORIAL &                              10504
A1201400150421039385001MANPOWER SERVICE                                        20500
B0901400220432043681001EVERLAST CONSTRUCTION                                    1601
B0901400220432788718001**********                                               1603
A0101412890000007095618DIMALANTA, D DBU AIRNAD                                 10503
A0101412890000007095618CONSTRUCTION                                            20500
A0501400170481039591001MACA DEO REGALIA REALTY                                  0501
B1401400110492037847001LUCBAN BROADCASTING SYSTEM                               1601
A1601400170000003845250DON M. PENAFLOR                                          0501
A0101403580511153476004THERESITA S. TIU                                         0505
B0101405940000005359593STAR MOTOR ARMORING TECHNOLOGIES, INC.                   1601
A0101408110000001364825YUHENGCO, JEFFERSON JOHN CHUA                            0502
B0101408110515018934001RUSTAN COFFEE CORPORATION                                1603
B0101404000551019197001MAA GENERAL ASSURANCE PHILS., INC                        1610
B0101404000551046316001PHILAB INDUSTRIES, INC.                                  1604
A0101404130000000043901BRILLO, RUBIAN GENER                                     0501
B0101404130601030838001ELEV 8 MEDIA, INC.                                       1605
A0101404130601754700001BORCENA, ANA MARIEL TUMANG                               0501
B0101404260000000156972PRIME POWER MANPOWER SERVICES                            1650
B0101404260000000156972PRIME POWER MANPOWER SERVICES                            1650
A0101404260611478374104JUDITH R LUMBO                                           0501
A0101404260611549185001REYES JR., ROSENDO ALCAFARAS                             0501
A0101409920000007304754DINO, NIKOLIENA MOJICA                                   0501
B0101409920000005460635PHILSOUTH HIGHLAND VENTURES & CONST.                    11602
B0101409920000005460635CORP.                                                   21600
A0101407690652034151001D' ABET JUNK SHOP                                        0501
A0101407690000001919888LLUBIT, JOSERRY DBU JBL BLDRS                            0505
A0101407690000000587800*****                                                    0501
A0101407690652520766004OLIVE R. DACLIZON - DEALERS OF                          10503
A0101407690652520766004SHOECAT INC.                                            20500
A0101407690652525001075DOCDOCIL, GELITA - DEALERS OF                           10503
A0101407690652525001075SHOECAT INC.                                            20500
A0101407690000000243810PAGUIO, ANA CARDENAS                                     0502
A0101407690000000053881********                                                 0504
A0101413440000002844711URBI, KRISTINE MAE PUYO                                  0501
A0101413440000006680675MARCELLANA, CONCHITA GOLLENA                             0501
B0101413570000000206595CAST IN PLACE SYSTEM BUILDERS INC.                       1601
A0101413570656057648254JONNIE SIAO                                              0501
A0101406590000000131682SISON, JOANNE TABORA                                     0501
A0101406590662058970001MERCADO, LIGAYA SAN PEDRO DBU                           10502
A0101406590662058970001QUADEM ENTERPRISes                                      20500
A0101410300000000191826*********                                                0501
B0101408240000003501351SIGAYAN BAY BEACH RESORT                                 1604
A2801400230000001734761FERMIDA CONSTRUCTION SERVICES                           10501
A2801400230000001734761AND SUPPLIES                                            20500
A2801400230000005253281EMETERIO, EVELYN PANCHO                                  0501
A4101400260812047321001MEDCREST MULTISPECIALTY DIAGNOS                         10502
A4101400260812047321001CLINIC & PHARMAC                                        20500
A4101400260000000469329FALCUTILA, MARISSA RAMOS                                 0503
A4101400260000001673452VELUZ, RONALD VILLANUEVA                                 0502
A0101404840851415656001LEAL, MARIETTA I. OR                                    10502
A0101404840851415656001LEAL, LEONARDO L                                        20500
A0101404840851534813001CATAPANGAN, SALEA REYES                                  0501
A0101406750000001491896AGUILOS, MARY AMBROSE MACALINO                           0501
A0101406750852290414001BULAON, MARITES I. OR                                   10501
A0101406750852290414001BULAON, SONNY T.                                        20500
A0101405070000005619398RECANA, MARIA CYREEN ROJAS                               0501
A0601400230000005185833DUMAN-AG, MERCEDES MANUEL                                0501
A0601400230891083893001**********                                               0501
