B0301400530193821100608**********                                               2010
A0101410300000011355558*****                                                    0502
A0101402930000010103627SARMIENTO, ROMINA ANGELA CO                              0501
B0101402930381021732001PENEL INTERNATIONAL, INC.                                1601
B0101402930381022284001INVESTORS ASSURANCE CORPORATION                          1602
A0101402930381036609001BELLFLOWER INTERNATIONAL TRADIN                          0501
A0101402930381205136001NORA LACAP AVILA M.D.                                    0502
A0101402930381423656001SUZETTE A. CELICIOUS                                     0501
B3001400130000001271523BERRYL DRUG CORP.                                        1602
A3001400130000001271476JUNASA, BERNADETTE DALAYAN                               0501
A3001400130230762305154CABELA, TERESITA MATA                                    0502
A3001400130230788248001TAN, HENRY LUY                                           0503
A0101412890000005945071CRISTI, RUSSEL MENDOZA                                   0502
A0101406330000002277825DUNHAM, MELANIE MYCHELLE                                10501
A0101406330000002277825PENARUBIA                                               20500
A0101409920000000857990QUIZAN, ROMANA C. OR                                    10502
A0101409920000000857990GORRE, RODELYN Q                                        20500
B0101410300000000191633THE KIDS FOR KIDS INC.                                   1601
A0101401250000000907186DESPI, FREDA FATIMA QUINTANO                             0501
A0101401250000000907197GARING, MELANIE CASTILLO                                 0501
A0101401250021180271001ERLINDA V. EQUIBAL                                       0502
A0101400150000013063440TAYAG, ADRIAN VARGAS                                     0501
A0101400150000013063677MEDEL, CARMINA AMATORIO                                  0501
A0101400150000004090373ATIENZA II, NOE PAREJA                                   0501
B01014001500610108470016776 AYALA AVE. CONDOMINIUM CORP.                        1605
B0101400150061037399001SECURITY BANK FOUNDATION, INC.                           1605
B0101400150061039643001J.M.PIZARRAS AND ASSOCIATES LAW OFFICE                   1605
B0101400150061045940001V MONEY INC.                                             1601
A0101400150061150547001ANG, JONATHAN ONG                                        0501
A0101400150061228390002NG, MELISSA ONG  OR                                     10501
A0101400150061228390002NG, RICHARD ONG                                         20500
A0101400150061228656001LAWRENCE T. CO                                           0501
A0101400150061335760001DIANE GRACE SUBIDO OR                                   10501
A0101400150061335760001JONAS SUBIDO                                            20500
A0101400150061631957001LAPIDEZ, TIRESO RANDY FENEQUITO                          0510
B0101400600071469137001**********                                               1602
B0601400100081022878001DM CRISSAN AUTO SUPPLY & CAR ACCESSORIES                11604
B0601400100081022878001SAN FERNANDO                                            21600
B0601400100081024450001ANGELES FORTUNE HONGKONG SEAFOOD                        11610
B0601400100081024450001REASTAURANT INC.                                        21600
B0601400360000013039133HORSE RIDER LENDING AND TRADING                         11603
B0601400360000013039133CORPORATION                                             21600
A0601400360083047383001SURE HIRE EMPLOYMENT                                    10502
A0601400360083047383001SERVICES, INC.                                          20500
A0601400520000001706792BUNGQUE, ALDRIN CAPILI                                   0502
A0101414090000011597763DOCTOR, MA. LUALHATI PELAYO                              0503
A0101414090000006211392GANZON, JULIE ANN TRIGO                                  0502
B0101400730111008311001COUNTRY BANKERS LIFE INSURANCE CORP.                     1605
A0101400730111203514024JOSEPH S. TAROY                                          0504
B0101406040112039150001********                                                 1603
B0101406040112044294001*******                                                  1602
B0101406040000004587646********                                                 1602
A0101401960121239576002**********                                               0501
A0101401960121295973001**********                                               0504
A0101401960000004419852ONG, EUGENE JEREMY HUI                                   0501
A0101401960121357972001**********                                               0503
A0101413310000005433147TERESITA G. CONCEPION OR                                10501
A0101413310000005433147ANTONIO D. CONCEPCION                                   20500
A0101401830141703189001TRIA JR., EXEQUIEL A. OR                                10502
A0101401830141703189001TRIA, RITA VERON                                        20500
A7201400170000012533152GAVIOLA, RIA BETH PAMARAN                                0501
A7201400170000009673094SAMMAN, SHERMIN IGGONG                                   0502
A7201400170000011454287OBAOB, MARIE FE MARAASIN                                 0501
A7201400170000012533141GERNALE, AIME GRACE DULACA OR                           10501
A7201400170000012533141GAVIOLA, RIA BETH P                                     20500
B7201400170000003773740CABERTE, FLORA SIBUGAL DBU CABERTE                       1601
A5001400170000005705197MAGBAGO, JUCEASAR MACALONG                               0501
A0101412920000003465030REYES, JENNIFER SANTOS                                   0501
A0101407270000009673390CRISTOBAL, RONALDO REMORIN                               0502
B0101407270000000010180COUNTRY CHATEAU HOTELIERS CORPORATION                    1602
A0101407270162474002002GELACIA M. DALOG                                         0505
A0101401090000005320449MARAMBA JR., MARCOS OBRA                                 0502
A0101401090171349823001LEAH ANN S. SARMIENTO                                    0501
A0301400530000001009943PANTUA, JERSON R.                                        0503
A0301400530000010370673DINGAL, CHESTER DOLOJAN DBU ELE                          0501
A0301400530193356168188MILA A. BRIONES                                          0505
A0301400530193574863001DAGAANG, DAISYDARIO OR JENNE                            10503
A0301400530193574863001OR DAISYJENNE OR                                        20500
B0301400530193641218168********                                                 1602
A0301400660000010222014SAJULGA, DON JT                                          0501
A0301400660000008940989BANDAYANON, HEMERITO SENDIN                              0505
A0301400660000007029143COCHERO TRUCKING                                         0505
A0301400660194758323001FERNANDEZ, GIL BREINARD SY                               0503
B0301400790000003969484CODINO, JUDITO LAMOSTE OR                               11601
B0301400790000003969484CODINO, MARY ANN                                        21600
B0101401380201034247002HOBBIES OF ASIA INC.                                     1601
B0101401380201525090001HONGKONG MASTER COOK CORPORATION                         1605
A0101401380201575067001VILLEGAS, MARVIN G. OR                                  10501
A0101401380201575067001VILLEGAS, CATHER                                        20500
A0101401380000005219790********                                                 0501
A0101410720000006239767DUPAYA, JACQUELINE ESPINOSA                              0503
A0101410720653036247002GPS GLASS ALUMINUM & IRON WORKS                          0501
B3101400160000010010730KABALIKAT PARA SA MAUNLAD NA BUHAY INC.                  1605
B3101400160221036447001OUTSOURCE1 CORPORATION                                   1601
B3101400160221044050001MARGIMEL CORPORATION                                     1601
B3101400160221044153001JMBE CORPORATION                                         1601
A3101400160000001559300PRIUSS DIAGNOSTICS AND MEDICAL                          10505
A3101400160000001559300SUPPLY                                                  20500
A3101400450000001149291BALDOVINO, ISABEL VALDOPENA                              0502
A3101400450000002330438PAGUIA, ALBERTO ANGELES                                  0503
A3101400450000009464742RAMENTO, MICHELLE DAVID                                  0502
A3101400740000002634773KANG, YANG GI                                            0501
A3001400130000000931208BENDIJO, AMELITO MONDEJA OR                             10501
A3001400130000000931208BENDIJO, ERLEN A                                        20500
B3001400130000000006839GORME, GRACE R. OR GORME, MIKAELA R. OR                 11601
B3001400130000000006839GORME, MICHAEL R                                        21600
B3001400130230739047001GORME, MIKAELA ADELIZ R. AND GORME,                     11601
B3001400130230739047001GRACE R.                                                21600
A3001400130230757981001SACAY, RENE CANTOR OR SACAY,                            10502
A3001400130230757981001JOSEPHINE SIMBIT                                        20500
A1001400480000000474953FERNANDEZ, JOFFREY MAHINAY                               0502
B1301400470000000009532PROSPERITY SUPERMART                                     1602
A1301400470252547519001VICTORINO C. RIVERA OR                                  10505
A1301400470252547519001LORNA D. RIVERA                                         20500
B1901400290261027293004LIPA MEDICS INC.                                         1602
A1901400290261298552118CONCEPCION GONZALES ESTIGOY                              0501
B1901400290261535730001SOUTH LUZON HIGH RISK PREGNANCY AND IN-                 11602
B1901400290261535730001FERTILITY CENTER                                        21600
B1901400290261535730002SOUTH LUZON HIGH RISK PREGNANCY AND IN-                 11602
B1901400290261535730002FERTILITY CENTER                                        21600
A0101401670271186882001ATIENZA, ANGEL MEDARDO G.                                0501
A0101401670271289633003LIM, ROSARIO C.                                          0501
A0101401670271579412001PINEDA, ENRICO LORENZO MACAM                            10505
A0101401670271579412001OR MARICEL ADELINE PINEDA                               20500
B0101406620000009695298JK CAPITAL FINANCE, INC.                                 1604
A0101406620273417682001BELDAD, DULCE ESPLANA                                    0501
A0101406620273458914001**********                                               0501
B0101406620273733659001ULTRAGAS CARRIERS CORP.                                  1602
B0101408660274038999001FRASOR GLASS AND ALUMINUM INC.                           1601
B0101400570000000749560BUSINESS BUILDERS, EXPERTS, ADVISERS,                   11601
B0101400570000000749560MANAGERS, INC.                                          21600
A0101400570281186594001MA LUISA YU OR YU PEK KIAN OR                           10501
A0101400570281186594001DAWN ISOBEL OR M                                        20500
A0101400570281186867001DR. DIANA JEAN ROXAS                                     0501
A0101400570281303497001JOYCE ANN K. ANG OR PAUL RYAN                           10503
A0101400570281303497001T. DAGDAG                                               20500
A0101400570281442475001AQUINO-AQUINO, PRUDENCE VALERA                           0501
A0101400570281468358001DORIS MARIEBEL C. CAMAGAY, M.D.                          0502
B0101411240283004287001LURONAGI CORP.                                           1602
B0101411240000005136896FILIPINO ENTREPRENEURS & RESOURCES                       1602
A0101411240283238100001PUA, WILSON PO                                           0502
A0501400200292768913001ANTONIO, PEPITO MAMARADLO                                0501
A2601400270000011716460RICHARVEST GRAINS CENTER                                 0510
A2601400270000011415244DEL CATHERINE I. DAMATAN DBU                            10502
A2601400270000011415244RITA ISIDRO'S STORE                                     20500
B0801400160000005656982**********                                               1605
B0801400160311338254001*************                                            1605
B6601400120314043609012FUNDACION GRAMEEN PILIPINAS INC.                        11605
B6601400120314043609012CATUBIG BRANCH                                          21600
A6601400120314771929001GIRAY, ROGELIO IRINCO                                    0501
A2001400290000011716533VINCOY, LUCILLE PINTOR                                   0502
B0101402350321040284002THERMOCOOL TECHNOLOGY INC.                               1601
A0101405650322298552012ROSITA A. CARANDANG                                      0502
A0101402510000011695033ORTEGA, DECELYNDA CABARDO                                0503
B0101402060000000653850TAASCOR MANAGEMENT & GENERAL SERVIC                      1603
B0101402930381018413001BENEDICTINE INTERNATIONAL                               11601
B0101402930381018413001SCHOOL OF Q.C.                                          21600
A0101402930381205152001VICENTE QUIMPO                                           0502
A0101408370382207662001DR. CELSO F. BATE OR                                    10501
A0101408370382207662001MRS. SOPHIA S. BATE                                     20500
A0101408370382318824001NODADO, IRENE PANGANIBAN                                 0501
A0101408370382393039001DR. EUGENIO JOSE F. RAMOS                                0503
A0101408370382434379001DR. LOURDES JOSEPHINE                                   10502
A0101408370382434379001ANGLIONGTO-RAMOS                                        20500
A0101408790000009466231POTESTAD, REYNALDO CARPIZ                                0503
A0101402770000003488051FERNANDEZ, PETER KHO                                     0502
A0101402770000010605175MACAPAGAL, LILLIANE FORTUNA                              0502
A0101402770000001571062VICTORINO DE CASTRO III DBU FSV                         10502
A0101402770000001571062E POULTRY PROCESSING SERV                               20500
A0101402770391211531001**********                                               0504
A0101402770391217101001BOBBY OR HAYDEE GARZA                                    0502
B0101408400394041333001W TOWER CONDOMINIUM CORPORATION                          1602
A0101408950396654758001DR. KARL TID - ANG MORALES                               0501
A0101412210000001347611MALICAD, MYLENE QUEMQUEM                                 0502
A0101412210000001236191YAP, JAN ANGELMAN CHAN                                   0501
A0301400820000007372883ABRIL, STEPHEN R.                                        0502
A0301400820000007372901CAINTIC, ERWIN M.                                        0501
A5501400120000002348314LABATOS, JEANEROSE DIMZON                                0501
B5501400120410042322001TRUMPH MOTORCYCLE CORPORATION                            1603
B5501400120410042322002TRUMPH MOTORCYCLE CORPORATION - SURALLAH                 1601
B5501400120410048184088HAPPY LIVING REALTY AND DEVELOPMENT                     11601
B5501400120410048184088CORPORATION                                             21600
A5501400120000002949859CHIU, VALENTIN SIRA                                      0501
B5501400120410636179088CHIU, VALENTIN & JULIA & CHRISTIAN &                    11601
B5501400120410636179088CHRISTEL                                                21600
A5501400120410787960001TANTERAS, EDWIN MONTEJO                                  0502
A2401400180000010066172PERALES, SUSAN TAN                                       0502
A0101403030441351775001**********                                               0502
A0101403320000001646891CUA, EDWARD SALVADOR OR                                 10502
A0101403320000001646891AILEEN CUA                                              20500
A0101403320471206060001CARLOS M. GO                                             0501
A0101403320471368063001MARIA CHRISTINA H. VENTURA                               0502
A0101403320471387693002BIENVENIDO ARAGON OR                                    10501
A0101403320471387693002CECILE ARAGON                                           20500
A0101403320000000067532YAGUEL, SALVE L.                                         0501
B0101406330000010658290TRU-SERV MARKETING CORPORATION                           1602
A0101406330472372718001PRISCILA BADELLES                                        0502
A0101406330000000451330UY, JONATHAN DOUGLAS COPENGCO                            0502
B0501400170481018109002CSI WAREHOUSE CLUB INC.                                  1603
B0501400170481025398002COSTSAVER'S SUPERMARKET, INC.                            1601
B0501400170481257491001CARING FOR THE FUTURE FOUNDATION INC                     1601
A0101407430000006027921DHALYN M. ESTRELLA DBU                                  10501
A0101407430000006027921HYPER CLEAN TRAD                                        20500
A0101408530000013063553VALENZUELA, GARLET ROXAS                                 0501
A0101408530000013063962CO, MARK ALVIN FABRO                                     0501
A0101408530000013064050MARCELO, SYLVIA MARIE ICASIANO                           0501
A0101408530000013064130TESTA JR., DANILO MINARDO                                0501
A0101408530000013064192TIMOTEO, RON VELASCO                                     0501
A0101408530000013051017ACAMPADO, LOUIE JOHN MARK RAZON                          0501
A0101408530000013051353ADRIANO, TONNI RAY RODRIGUEZ                             0501
A0101408530000013051433ALI, AMANI MUSLIMIN                                      0501
A0101408530000013051513AMAYA, SAMANTHA USI                                      0501
A0101408530000013051615AMBRE, MICAH ANGELICA VILLARBA                           0501
A0101408530000013051682ANDRES, LYNCE MACALIPAY                                  0501
A0101408530000013051751AQUINO, BRENDA CALUNOD                                   0501
A0101408530000013051933ASPERO, ANGELICA JAVELOSA                                0501
A0101408530000013052009BALINGIT, CHARLOTTE HOPE SAN GA                          0501
A0101408530000013052050BAYONA, ARNOLD FRANCISCO                                 0501
A0101408530000013052112BENITEZ, APRIL DESCALLAR                                 0501
A0101408530000013052163BERGONIA, JOHN CARLO LAZARO                              0501
A0101408530000013052232BOLANOS, JADE TANEDO                                     0501
A0101408530000013052298BUENAMENTE, JOHN PAOLO BUSTOS                            0501
A0101408530000013052345BUSTINO, LEAN VARGAS                                     0501
A0101408530000013052414CANARIAS, EARL ANDJO GAMAO                               0501
A0101408530000013052469CANDAO, EMAN LADROMA                                     0501
A0101408530000013052516COSTALES, MARK JOSEPH LAGUTAN                            0501
A0101408530000013052550CUARES, MARK ANTHONY IBITA                               0501
A0101408530000013052618CUSI, ROBERT EMMANUEL CORTEZ                             0501
A0101408530000013052641DE LOS ANGELES, CEDRIC SAN PEDR                          0501
A0101408530000013052692DEJORAS III, NAPOLEON MANDAPAT                           0501
A0101408530000013052743DELA PENA, REYNALDO ROSALES                              0501
A0101408530000013052794DELFIN, KHRISTINE JOY DIAZ                               0501
A0101408530000013052830DELGADO, ENRIQUE CARDONA                                 0501
A0101408530000013052874DELORINO JR., RODOLFO BUENAFLOR                          0501
A0101408530000013052921DELOS SANTOS, GRENAN LLOYD CONC                          0501
A0101408530000013052976DEVINO, CIRLYN ASARES                                    0501
A0101408530000013053013DIGNOS, COLONEL BAG ID                                   0501
A0101408530000013053064DUAVIS, LEONARD ANGELO SALAS                             0501
A0101408530000013053111DUYAG, DENNIS ANDAYA                                     0501
A0101408530000013053155EDEM, KAREN CASINILLO                                    0501
A0101408530000013053199ENRIQUEZ, JEANNE PAULINE LORENZ                          0501
A0101408530000013053246ENTONA, ALVIN ALBERT VALERIO                             0501
A0101408530000013053280ESPORLAS, MARK VINCENT VALENCIA                          0501
A0101408530000013053326FABROS, GEOZELLE FARIN                                   0501
A0101408530000013053359FLORES, MAGGIE MAY TRAPERO                               0501
A0101408530000013053382GEGUDAS, JOSHUA MIGUEL DELA CRU                          0501
A0101408530000013053439INTONG, RICHYLL ECHAVEZ                                  0501
A0101408530000013053462INZON, ZINJI PENIEL CAIRO                                0501
A0101408530000013053491ISIP, MARIA CRISTINA PELAYO                              0501
A0101408530000013053520ISORENA, RHODORA JALAS                                   0501
A0101408530000013053553JAVIER, PAUL BORLONGAN                                   0501
A0101408530000013053582LAGRIO, FLORIEBELLE PASCUA                               0501
A0101408530000013053622LAMPA, KRISTINE JEC BUSCANO                              0501
A0101408530000013053684LAMPITOC, MARY JANE TAMAYO                               0501
A0101408530000013053713LEGARSE, MARIA CLAUDETTE NOTART                          0501
A0101408530000013053742LOPEZ, AILEEN CALDA                                      0501
A0101408530000013053775LUCHING, ELNOR ALBERTO                                   0501
A0101408530000013053811MADERAZO, CRIS CARDONA                                   0501
A0101408530000013053844MAGPUSAO, PATRICIA ANGELA ROXAS                          0501
A0101408530000013053888MALONES, JELYN MAE FRANCISCO                             0501
A0101408530000013053924MANDAPAT, CHARLOTTE TINIO                                0501
A0101408530000013053946MASBAD III, PROCORO SANTOS                               0501
A0101408530000013053968MATILLANO, CHARIBELLE MILLARO                            0501
A0101408530000013053980MOSENDE, MA RENALYN MOLETA                               0501
A0101408530000013054012MUSNI, MAGDALENA ANNE SORIANO                            0501
A0101408530000013054034NADONGA, ERWIN HERNANDEZ                                 0501
A0101408530000013054056NILLAR, JIM BALADAD                                      0501
A0101408530000013054078OLMILLA, MICKAEL KEITH DIAZ                              0501
A0101408530000013054103ORTANEZ, LEI ANN SUAREZ                                  0501
A0101408530000013054136ORTIZ, LORD RJ II FLORES                                 0501
A0101408530000013054158PATINO, RABBI VILLANUEVA                                 0501
A0101408530000013054170PEIG, JAN MIGUEL CARLO MARTIN                            0501
A0101408530000013054192PETALVER, RACHELLE FINNELLA CHI                          0501
A0101408530000013054227POCHE, MARICON BON                                       0501
A0101408530000013054250PORTRIAS, BLANDCHARD LADEZA                              0501
A0101408530000013054272QUIZON, MARY ANNE FABRIGAS                               0501
A0101408530000013054290RAFAEL, STEPHEN LORENCE AREVALO                          0501
A0101408530000013054318RANGEL III, EDDIE CEFERINO MARC                          0501
A0101408530000013054330SALAZAR, ALYSSA ASHLEY SANTOS                            0501
A0101408530000013054352SAN RAFAEL, MICHAELLA ROSALIN                            0501
A0101408530000013054381SANCHEZ, MA ROWENA BALAGUER                              0501
A0101408530000013054409SANTOS, NICHOLLE ANN ABRAZADO                            0501
A0101408530000013054421SANTOS, ISAIAH JOSHUA JOSE                               0501
A0101408530000013054443SINGER, PETER ROBIN STEWART PAN                          0501
A0101408530000013054461TAYOTO, LEA BERNAS                                       0501
A0101408530000013054494TOLIBAS, JOSHUA ZION MARTINEZ                            0501
A0101408530000013054523TOLOSA, KATHLEEN GAIL GANZON                             0501
A0101408530000013054541TUAZON, KIMBERLY MAE NA                                  0501
A0101408530000013054563VIDAL, JOANNA YU                                         0501
A0101408530000013054585YABUT, STEPHANIE RAE MALATE                              0501
A0101408530000013054603YUQUIMPO, TRUE FAITH DEL ROSARI                          0501
A0101408530000013054621YUQUIMPO, TRUST MAE DEL ROSARIO                          0501
A0101411400000003342981CRUZ, NORMITA ALIBUDBUD                                  0501
A0101411400000013085633VILLAR, JACQUELINE YU                                    0501
A0101411400000013085768VILLAR, IRENE PAVILANDO                                  0501
A0101411400000013085848YU, NOEMIE MON                                           0501
A0101411400000013085940SUGIHARA, HIROTAKA .                                     0501
A0101411400000013086038YU, MARICEL MON                                          0501
A0101411400000013086129TADEJA, ERICSON DE LEMOS                                 0501
A0101411790518055815170VALENZUELA, CARLA LORAINE                               10501
A0101411790518055815170LUCBAN                                                  20500
A0101412050000008837141SANTOS, ROMMELITO DE JOSE DBU                           10501
A0101412050000008837141ROMSANAIRE TRADI                                        20500
A0101412050000008837203VILLEGAS JR, ROSENDO NAZARETH                            0503
A0101403450521080109001***********                                              0502
B0101403450000000009798********                                                 1601
A0101403450521579097002SUSTITUEDO, KAREN OR                                    10501
A0101403450521579097002SUSTITUEDO, DENN                                        20500
A2201400250000013014890MARY GRACE B. LOVEREZ                                    0501
A2201400250000013014992MARK DANIEL C. LEYNES                                    0501
A0101404130601450195002CAYANES, GLORIA M.                                       0504
B0101404130000005017685I.PRUDENTIAL SHIPPING AGENCY SERVICES,                  11601
B0101404130000005017685INC.                                                    21600
A0101407720000004664251BRIONES, FRANCIS SALVADOR                               10501
A0101407720000004664251ZARATE                                                  20500
A0101407720000004664375MACALINDONG, JHOANNA EUNICE                             10501
A0101407720000004664375PACIS                                                   20500
A0101407720000004664477LAMATA, ANNALYN FE DE GUZMAN                             0501
A0101407720000004665032UY, REMAR JUDE LEANO                                     0501
B0101407720602030155003DEPARTMENT OF DERMATOLOGY MAKATI MEDICAL                11603
B0101407720602030155003CENTER FOUNDATIO                                        21600
A0101407720602346136002DR. SIXTA NAVARRO-FORONDA OR                            10505
A0101407720602346136002DR. J.D. FORONDA                                        20500
B0101412180603046946001JBROQUEZA "JB" TOY BALLOONS & PARTY                     11605
B0101412180603046946001NEEDS                                                   21600
B0101412180000009200253DULO F AND B EVENTS MANAGEMENT CORP                      1602
A0101409890000002326632ANG IT, FRANCIS SIOSON                                   0501
B0101409890000012558635FULL TOP STEEL MARKETING CORPORATIO                      1602
A0101409920000001539522CEDENO, NOEMIE DEDICATORIA                               0503
A0101409920000011312700ATO, MARY JANE BARRION                                   0502
A0101407690000010774622DAVAO, PAMELA MAY PINEDA                                 0501
A0101407690652045019001AXIS ROOF SERVICES                                       0502
A0101413990657062002001CMPEREZ CONSTRUCTION                                     0501
A0101413990657062002001CMPEREZ CONSTRUCTION                                     0501
A0101406590662434303001CLEMENTE, RUIZA M. OR JOSE E.                           10503
A0101406590662434303001OR RAYMUNDO, MA.                                        20500
B1301400210682044996001PARASAMASA LENDING INVESTORS, INC.                       1601
B1301400210682495300001*****                                                    1602
A1301400500000007096571LUISITO R. MIRANDA                                       0502
A0101408240000006600131SANTOS, GLENDA BRODETT                                   0502
A0101408240000007478126ALDANA, FELIPE FLORENCIO B. JT                           0502
A4101400260812389433001SHIRLEY H. VIRATA M.D.                                   0501
A4101400390813248327001SARIEGO, DANILO BAGONA                                   0501
A4101400420814520766004SALVACION D. BITANCUR                                    0501
A4101400420814520766027ARUTA, CORAZON G.                                        0501
A4101400420814557947001SAYAROT, GLENN MAGO                                      0502
A0101412340000005431874JAIME P. CRUZ                                            0501
B0101412340000002880000ROMTECH CONSTRUCTION INC.                                1603
A0101404840000006364792BAGAYAN, LOVELY KRISTINE MAY                             0501
A0101404840851317230019FURAGGANAN, GENE C.                                      0502
A0101406750000004641918VELEZ, VIRMY REPRADO                                     0501
A0101406750000000017427ANTONIO, ARNALDO QUILATAN                                0501
A0101405070861023470001ASIANA KITCHEN EQUIPMENT                                10503
A0101405070861023470001SPECIALIST                                              20500
B0101405070861045757001EUROLINK NETWORK INTERNATIONAL CORP                      1601
A0101413860000001233812BRIGALA, JORDAN DELA CRUZ                                0501
