B0301400530193821100608**********                                               2010
A0101400440000013845520AIROSO, GRACE SIOSON                                     0501
A0101412630000017892141CRISANTO D. MONTOYA OR                                  10501
A0101412630000017892141AGNES ANGELINA D. MONTOYA                               20500
A0101413600000012980491SHARON ROSE R. MORTEL                                    0502
A4101400260000001198803NOEL BELINA OR ARLENE BELINA                             0503
A4101400260812047321001MEDCREST MULTISPECIALTY DIAGNOS                         10502
A4101400260812047321001CLINIC & PHARMAC                                        20500
A4101400390000017706311JUAN ANTONIO GUTIERREZ                                   0501
A0101400860000017478852*************                                            0504
A0101400860011504202002**********                                               0502
B0101400860000010683286***********                                              1610
A0101400150000000253234ESTANISLAO, RONNA MA LARGO                               0505
A0101400150000003164918ELAINE GRACE B. LIMOANCO                                 0502
B0101400150061039626002MENZI & CO., INC.                                        1602
A0101400150061473504001SAGUIL, EDUARDO FABELLA                                 10502
A0101400150061473504001OR SAGUIL, ANNE                                         20500
A0101400150061564610064BUENAFLOR, MARIA GERALDINE ROSE                          0501
A0601400100081357036001MUTSUJI, LEONORA MANGUERA                                0502
A0601400360000017954959BENOLIRAO, JEROME SULA                                   0501
A0601400360000017955070SOMERA, JULIET SOMERA                                    0501
A0101410560000005280871CIERVO JR., ELMER CALLENA                                0501
A0101410560000016521561HERMOSO, ROSA MISTICA LAPUZ                              0501
A0101400730000000833396CARBONELL, LEVINA IBALE                                  0502
A0101400730111377984001LEGASPI, JULIETA CABRAL                                  0501
A0101400730111574027001BERNARDO, FRANCIS ROBERT SANTOS                          0505
A0101413150000006294175TAN, SUY TIN                                             0501
A0101401830000014085640GREGORIO, ERDY ONIA                                      0502
A0101401830000013257579ECHAGUE, HERWIN AZORES                                   0502
A0101401830000017822130ROSELLO, CHERRY NIEL SANICO                              0501
A0101401830141208052002RICARDO S. CRUZ                                          0501
A0101401830141528394001GONZALES, ALDWIN SEBASTIAN                               0501
A0101412920000005354398LANA, DORINA BATALLER                                    0501
B0101400440000016136736ANIZ, ROSELYN LACAMBRA DBU                              11601
B0101400440000016136736GARLYN TRADING                                          21600
B0101400440161026216001TELEGA, INC.                                             1605
A0101400440161525001174RIZALYN V. GUNTANG                                       0503
A0101407270000011873284EQUIPAJE, ARON GINO ISIP                                 0510
A0101407270162047643001PORTS UNIFIED CARGO SOLUTIONS                            0502
B0101401090171035575001MOSS MANILA EVENTS HOUSE INC.                            1605
A0101401090000008940923NICOLAS, CHRISTINE CHUA                                  0501
B0301400530000014129870TAGUM CITY COUNCIL OF WOMEN FOUNDATION,                 11605
B0301400530000014129870INC.                                                    21600
A0301400530000010370662BENEMERITO, MARIA CLAMUCHA                               0505
B0301400660000008941135ERVY CUSTOMS BROKERAGE                                   1602
B0301400660000012086630KONKRETE KONTRAKTORS, INC.                               1602
B0301400660000002348541ERVY LOGISTICS                                           1602
B0301400660000003368427GARDENSTATE ENTERPRISES, INC.                            1605
A0301400660194731082088PEJI, JUNE ANN SOLER OR PEJI,                           10505
A0301400660194731082088JONATHAN CORTES                                         20500
B0301400790000008014997DETRIOT TRUCK AND PARTS, INC.                            1601
B0301400790195069710001MITHRIL DEV'T. CORP.                                     1605
A0301400950000010701003LORENZANA, RACHELLE CARREON                              0504
A0101401380000001820002********                                                 0504
A0101410720000000882782**********                                               0510
A0101410720000016903305ANDIN, MARK OLIVER AGRA                                  0501
A0101410720653478374025SYLVIA AGBUYA                                            0501
A3101400160000015974886SALOM, EUGIENE ZAMORA                                    0502
A3101400160000017972597MAUNAHAN, JENNIFER MANAIG DBU                           10501
A3101400160000017972597SHOURINEJ ENTERPRISES                                   20500
B3101400740224045253001MADISON SOUTH HOMEOWNERS' ASSOCIATION,                  11601
B3101400740224045253001INC.                                                    21600
B1001400190231028389001JAPNAR TRAK CORPORATION                                  1601
A1001400190231478374012FARINAS, EVA MAE CENTO                                   0501
A1001400190000002170769JUGAN, NOUE MALOLOT                                      0501
B1001400350000007920876PEARSON, PILARCITA ROA AND  HEQUILAN,                   11601
B1001400350000007920876ELVIE CORTEZ                                            21600
A1001400480000011810056NAVAREZ, MARGIE ABASTAS DBU                             10502
A1001400480000011810056MADANO MARKETING                                        20500
A1301400470000013690263LUCIANO I. LLANILLO III                                  0502
B1301400470000003270102LFCI-KPP KASANIB SA PAGABOT NG                          11610
B1301400470000003270102PANGARAP INC.                                           21600
B1301400470000007863127LFCI-KPP KASANIB SA PAGABOT NG                          11610
B1301400470000007863127PANGARAP INC.                                           21600
A1301400760000002346016NIO A. LATINA                                            0501
A1901400290261021148001ACR CONSTRUCTION SUPPLY                                  0505
B1901400290261040667001PRIMERA AGRO DEVELOPMENT CORPORATION                     1603
A0101406620273375724004LINDA FERNANDEZ                                          0501
B0101408660274035634001CLARISSA RACELIS-FELICIA DENTAL OFFICE                   1601
A0101400570281395118001HONEYLIN C. ROXAS                                        0501
A0501400200000005751646JACINTO, JOCELYN ORPILLA                                 0501
A0501400200000013602501CAYAGO, MARLON AQUINO DBU STARL                         10501
A0501400200000013602501IGHTS EVENTS                                            20500
A1101400120000001547348LIGAN, MITYA COSTIBOLO                                   0502
B6601400120314083829001**********                                               1603
B6601400120000013898969DELA CRUZ, ANNALY SANSON                                 1601
A2001400290000016251193GARLITO JR.,ROLANDO MERCADO DBU                          0501
A0101402350000001474324MARTINEZ, KENNETH BUHAT                                  0502
B0101402350000000046028IGOLD COMMUNICATIONS INC.                                1603
A0101405650000000348856COLINA JR., FERNANDO OR                                 10501
A0101405650000000348856COLINA, CYRILL                                          20500
B0101405650000017970933SORIANO, CEASAR CANAMA DBU DIVINE CZAR                  11602
B0101405650000017970933HOSPITAL                                                21600
B0101405650000000772703BASE SECURITY AGENCY & INTER - INV. INC.                11610
B0101405650000000772703BSAI                                                    21600
A0101402510000010100924GRANADO, MA. CARMINA ROMERO                              0501
A0101402060351217441024VINORNA V. LIM                                           0503
A0101409050000017954879CRUZ, IAN MONITO REFUNDO                                 0501
A0101409050352696788001MONJE, FRANCES S. OR BONOAN,                            10501
A0101409050352696788001MARIEVIC M.                                             20500
A0201400890000012951383ABAYON, JONESSA FAYE ERAUDA                              0501
A0201400890000012951350MONDERO, ELRIZA MAE CABANA                               0501
A0101408790000010684876TUVERA, NENIA BELTRAN                                    0501
A0101402770000009923464TOLENTINO, CLIFORD JOHN R. OR                           10501
A0101402770000009923464TOLENTINO, REYNELYN E.                                  20500
B0101408400000003120532BRUNO BUILDERS                                           1601
A0101408950000011298890CHUA, DANNY LIM                                          0502
A0101409180000011750064CAMILLE L. MENGULLO                                      0501
A0101409210000009309753SENIR, MARIA MICHIKO REYES                               0501
B0301400820000008995486COMEDIDO, DANTE L. DBU DL COMEDIDO                      11606
B0301400820000008995486BAKESHOP                                                21600
B1201400150000005357906COST OF MONEY LENDING CORPORATION                        1605
A5101400100000010371358DELA TORRE, MARY GRACE ESCUADRO                          0501
A0101403030441481559001**********                                               0501
A0101412890000002747824************                                             0502
A0101412890000014437362****************                                         0502
B0101412890000007906092PAPAJEK FOOD CORPORATION                                 1602
A0101403320000004830995GATTECH SUPPLY AND ENGINEERING                           0505
A0101403320471603471001BADIOLA JR., DANILO GARIANDO OR                         10501
A0101403320471603471001BADIOLA, RADLYNE                                        20500
A1901400160000011077893MARILYN M. BERBERABE                                     0503
A1401400110000013091388PALAD, LISLIE MANALO                                     0501
B0101407430000008901326CERILO C. CATALAN DBU CERILO'S CATERING                 11610
B0101407430000008901326SERVICES                                                21600
B0101403580511005607002RAM FOOD PRODUCTS, INC.                                  1605
B0101403580511017560001MSC EMPLOYEES CREDIT COOPERATIVE                         1605
A0101403580511151510002NOEL SALAZAR OR ARIZA MANGALILE                         10502
A0101403580511151510002OR SUSAN EVANGELISTA                                    20500
A0101405940512356426001BERNADETTE P. RAMIREZ OR                                10501
A0101405940512356426001CESAR S. RAMIREZ                                        20500
A0101412050000000890882LIM, ANTONIO VILLANUEVA                                  0502
B0101403450521011602002GOTHIC SALES, INC.                                       1601
A0101410690000009658724ANDAYA, JOLLY SARABIA                                    0501
A0101404130000005962252CU, ANGELITO DEQUINA                                     0501
B0101404130000000696191PINAGPALANG SAMAHAN NG NAGKAKAISANG                     11602
B0101404130000000696191MANGGAGAWA MULTI                                        21600
A0101409890000006813038DE JESUS, WILTON DBU WILCHAT                            10501
A0101409890000006813038MARKETING                                               20500
A0101409920000006336901CUBACUB, ISAGANI MALANA                                  0501
B0101409920000003672031ELECTRON COLLEGE OF TECHNICAL EDUCATION                 11601
B0101409920000003672031CORPORATION                                             21600
A0101407690652525001060SUSANA MORENO - DEALERS OF                              10501
A0101407690652525001060SHOECAT INC.                                            20500
A0101411530000017962199BALILIA, MARIA TERESA ALGENIO                            0501
B0101411530000002641790PETITE GRAINE PRE SCHOOL INC                             1601
A0101413440000002125291VALDEHUEZA, MARILYN ADSUARA                              0501
A0101414120000006864460JAQUIACA, JEROME ALBERT CORTES                           0502
A0101414120000006005312JOAQUIN ANG OR MARIA TERESA                             10503
A0101414120000006005312ANG                                                     20500
A0101414120000000398921MC DAGGLE'S CONSTRUCTION &                              10502
A0101414120000000398921TRADING                                                 20500
B0101406590662043947001NUEVO GRUPO REALTY & DEVELOPMENT CORP.                   1601
A1301400210000000540823VILLAMOR P CRUZ                                          0505
A1301400210000013218810RAMOS, DAISY FLORES                                      0502
A1301400210000000540652LEONCIO, GENE ANTHONY GIRON DBU                          0502
A1701400230000014502444SAMONTE, DONNA FAY BAPTISTA                              0501
A0101408240000009452991ROJAS, CARMENCITA SORIANO                                0501
A0101408240711219571001MERCEDES M. OLIVER                                       0502
A0101408240711232945004SALOM, HERMELITA JIMENEZ                                 0505
A4101400260000017964219GUIAM, MONETTE MANALO                                    0501
A4101400260000017964420REYES, MARK BENJAMIN CAPULONG                            0501
A4101400260812383492002MARIA OLIVIA V. MARAAN                                   0502
A4101400260812576485001SARAH MARIE M. JALANDOON                                 0501
B4101400420814025598001JACA CONSTRUCTION AND MANAGEMENT CORP                    1605
A4101400420000015978388ROSALES, DARLENE PASCUA                                  0501
A4101400420814710353001GRANADA, MILDRED SISON                                   0502
A4101400550000016588473BALIDIO, WAYNE MINA                                      0501
A4101400550815181680001MONTARDE, NELSON V. OR                                  10504
A4101400550815181680001MONTARDE, MILDRE                                        20500
A0101412340000004360321CELINE M. PALOMA                                         0502
A0101406750852478374055ALBINA, ANALIZA                                          0502
A0101406750852631359001BUERA, MELCHOR SEBOLLENA                                 0501
A0101406750852649565001AYSON, CRISTLE APELO                                     0501
A0101406750852799786001RIGUERA, JOSE MAURICIO AGUSTIN                          10501
A0101406750852799786001DBU MRIGUERA PRO                                        20500
A0101405070000010298354SINGSON, MARIKU CORRECHE                                 0501
A0101405070861478374066ELMER LADRES APAS                                        0501
B0101413860000000145275CON-PAC WAREHOUSING INCORPORATED                         1605
