B0101405070861821100608**********                                               2001
B2401400180411821100608**********                                               2010
A0101402060351211701004MA. DOLORES DANNUG                                       0503
A0101402060351414987003NOBLE, FELICISIMA CASANOVA                               0502
A0101400150000013484283MENOR, MARY JOY LAGDAMEN                                 0502
B0101400150061015628001PETRON CORPORATION                                       1602
B0101400150000001708447PHILIPPINE VENDING CORPORATION                           1610
B0101402060351044456001ARMORCON SYSTEMS BUILDERS CORP.                          1602
A0101402060351213745001CLAVECILLAS, REYNALDO GREGORIO                           0501
A0101400150000011714884FRAGANTE, SOCORRO PROTACIO                               0501
B0101400150000009694615ICONNECT INTEGRATED SOLUTIONS INC.                       1605
A0101400150061226702002SISCAR, MA ARLEEN                                        0502
A6601400120314728707001TIOSEN, EVA ONTOG                                        0501
B0601400100000007185357LUSCIOUS LILAC ENTERTAINMENT INC.                        1601
A1101400120000013536864HUI DARWIN UY DBU TOP SOIL CONC                          0505
A1101400120000005608191CELSO, GORGIE CAROLA                                     0502
A0101412890000002747824************                                             0502
A0101412890000005944863DELA  PAZ, MICHELLE BUENAFE                              0502
B0101412890000009624535IBMS TECHNOLOGY PHILS. CORP.                             1605
B0101403610000012759941C. WARREN & A. UY CORPORATION                            1602
A0101403610531624567001DE QUILLA, JOEGIE CUANO                                  0501
A0101400860011559271001**********                                               0505
A0101400860000001005514**************                                           0505
A0101411370000005524421BATUIGAS, AURORA REBOQUIO                                0501
B0101411370000009102761PRONTO METRO DISTRIBUTION SERVICES                       1602
A0101400150000004915253MIRABUENO, MARIA MARGARITA RIVE                          0501
A0101400150061055752066JAVIER, ANNA CLARISSA ASTORGA                            0502
A0101400150061227793006DY, ANASTASIA OR DY, EVELYN                              0501
A0101400150061311743050RAYMUND PUYAT                                            0502
A0101405810072234861001**********                                               0501
A0601400100000006092639ARRIBE, BAZIL CHRISTIAN OR                              10502
A0601400100000006092639ARRIBE, CHARMIE                                         20500
A0601400100081032955001JENPREZ LAUNDRYNET                                       0501
A0601400100081460436003CRUZ, ALETH SANTOS                                       0501
B0101413730000000469125*******************                                      1601
B0101414090000007344563BACOLOD ACREDITAR LENDING CORPORATION                    1610
B0101410850000000005610AKARI LAND CORPORATION                                   1601
A0101412630000004061943SCHOLARSHIP PLANS PHILIPPINES,                          10510
A0101412630000004061943INC.                                                    20500
A5001400170000014111858YU, ANGELO INVENTADO                                     0501
B5001400170000008743795PETRA CEMENT INC.                                        1601
B50014001700000059890535 STAR PCC BUILDERS CORPORATION                          1603
B5001400170000008743773GLORY TO JESUS CHRIST FELLOWSHIP                        11601
B5001400170000008743773INTERNATIONAL                                           21600
A0101400440161039572092JOSEFINA R. JONES                                        0501
A0101400440161452744001CRISTINA P. UMALI                                        0501
B0101407270000000010151TIHIK.COM CORPORATION                                    1605
A0101407270162421293007YOLANDA L. DE ALBA                                       0501
B0101401090171035575001MOSS MANILA EVENTS HOUSE INC.                            1605
A0101401090171232456001DRS. ALBERT OR DAISY ISMAEL                              0503
A0301400660000013311181**********                                               0501
A0301400660194606143002ANGCOS, ROEL ONGCOY                                      0502
A0301400660194779841088*****                                                    0501
A0301400790000002301308AQUINO, ALLAN E. OR                                     10505
A0301400790000002301308AQUINO, DENNIS E                                        20500
B0301400790000002301342MONTEVERDE II, GEORGE MENDEZ DBU GV & HH                11601
B0301400790000002301342MARKETING                                               21600
B0101401380000014548833RAMIREZ, CYNTHIA TAN DBU DRAGON WOR                      1602
A0101401380000010190591LEY, MONICA JOY CO                                       0501
B0101410720000011276732PEOPLE'S GENERAL INSURANCE CORPORATION                   1605
B0101410720000011276732PEOPLE'S GENERAL INSURANCE CORPORATION                   1605
A0101410720000000095152SANTOS JR., ROBERT SAN PEDRO                             0505
A3101400450000005960530PAPERA, ELENA DE GORIO                                   0501
A3101400870000003515153YU, ALMEDA TAN                                           0502
A3001400130000010813431ARAGONCILLO, NECYLYN ICALINA                             0501
A3001400130000012557836MAGALONA, MAGGIE ESCABAL                                 0502
A3001400130000001261249BANJAO, JENELYN LARA                                     0501
A3001400130000008915971JUBAC, CHARLES TATAD                                     0502
A1001400190000008743977LLAMIS, JOVER SALVADOR                                   0501
A1001400190231520766025BALBERAN, FLORA ABOY                                     0501
B1301400760000010656852MARY JANE SIOJO ENTERPRISES                              1601
A1901400290000003435670LILYBETH HERNANDEZ VALDESANCHO                           0501
A0101406620000000193760DIAZ, FRANCIS PATRICK TAYENGCO                           0502
A0101412470000002295792**********                                               0501
B0101400570000011364760ALL TIME RETREADERS CORP.                                1603
A0101400570281405383001JEZIEL P. MISSION                                        0503
A0101400570281443866001ANA MARIA S. POHANG OR                                  10502
A0101400570281443866001KATRINA S. MARTI                                        20500
A0101400570000001681927ANA MARIA LORETTA S. POHANG                              0502
A0101411240000013756799UY, CRISTINE MERCADO                                     0502
A0501400200000002306014MAXIMO JR., ALFREDO PATRIARCA                            0501
A0501400200000011516993ELEGORES JR., ROMY MARTINEZ                             10501
A0501400200000011516993OR ELEGORES, JOVELYN G.                                 20500
A0801400160000001031332AMIL, WAHAB AHMAD                                        0502
A3401400280000000784692VISTA, LECEL CERILO                                      0502
A0101402350321478374017RIZA G. SANTOS                                           0505
B0101405650000004410039MIDNIGHTHOOCH INCORPORATED                               1610
A0101402510000013485800ALCALA, GINA CALA  OR                                    0502
B0101402060000010846741CHATEAU VERDE CONDOMINIUM CORP                           1603
A0101402060351036454001TRITECH TRADING                                          0501
A0101402060351211636001POLICARPIO S BERNABE                                     0501
A0101402060351213195001SARINGAN, MARCELA J.                                     0501
A0101402060351381072001SAN DIEGO, QUERUBIN VARGAS                               0501
A0201400760000009466015LUN, SHANGUO JEFFREY                                     0502
A0201401020000012951401GODINEZ, ANIEL SACRISTAN                                 0501
A0101408370000015475239ORILLAZA, TIMOTHY JOSEPH                                10501
A0101408370000015475239SOLPICO                                                 20500
A0101408370382773323001DR.ERIC GEORGE V. CRUZ                                   0502
A0101402770391313030002***************                                          0502
A0101402770391496072001CHUA, LETICIA TAN                                        0502
A0101405490000015646970LEE, CATHERINE AGUILAR                                   0501
A0101405490000015648550ABAT JR, QUINTIN BOADO                                   0502
A0101405490392029745001MESINA BROTHERS, INCORPORATED                            0502
A0101405490000001092751MARIA TERESINA G. MESINA                                 0501
A0101405490392552022001MARIA THERESA D. SOLIS OR                               10501
A0101405490392552022001BENJAMIN D.SOLIS                                        20500
A0101408400394030681001BANIG HANDICRAFT AND NOVELTIES                           0502
B0101408400000003120521GILIGAN'S ISLAND BAGUIO, INC.                            1602
B0101408950000008364494GLOBAL CITY CAR LEASE & TRANSPORT CORP.                  1602
A0101408950000010507165ABAYA-BLAS, ROSARIO SALUD                                0502
B0101409180397062516001PHYSIXARE ADTEK SOLUTIONS, INC                           1601
A0101409180000000874539DIMAANO, ROY VILLALOBOS                                  0502
A0101412210000005302943REYES, RENEL BACERA                                      0502
A0101412210000005303177********                                                 0502
B0301400820409091735055LIMA, WINDELL BRISTOL DBU DAVAO HOME                    11601
B0301400820409091735055BUILDERS CENTER                                         21600
A5501400120000014312373PAGUNSAN, VENA PACINABAO                                 0502
B5501400120410283898001GARCIA, JOSIE OR                                        11605
B5501400120410283898001GARCIA, GERARDO                                         21600
A2401400180000007031574HAO, YOLANDA GARCIA OR                                  10501
A2401400180000007031574HAO, HENRY GO                                           20500
A2401400180000010066376NIEDO, TETCHIE OBRA DBU TETCHIE                          0501
A2401400180411478374027ELLEN PANTUJAN OR                                       10502
A2401400180411478374027ELMER PANTUJAN                                          20500
B1201400150421009374001ESLA MANAGEMENT AND CONSULTING CORPORATI                11605
B1201400150421009374001ON                                                      21600
A0901400220000006214502**********                                               0501
A5101400100000010834290GALAN, JONATHAN HENRI PARIS DBU                         10501
A5101400100000010834290RED STAR & GALAN,MIRALUNA                               20500
A0101403030441239449002**********                                               0501
A0101403320000014340648MA. LOURDES S. FUENTE                                    0501
B0501400170000013295980GUANZON MERCHANDISING CORPORATION                        1601
B0501400170481528391001KONSEPTO DAGUPENO INCORPORATED                           1603
B1901400160000015644530EARN MORE TRUCKING CORP.                                 1603
B1901400160491012586001BSU CONSUMERS COOPERATIVE                                1602
A1901400160491043905001GRANBY TRADING & CONSTRUCTION                            0505
A1901400160491247764001MARITES E RAMIREZ                                        0501
B1401400110000012353274BPROPERTY MANAGEMENT AND HOLDINGS I                      1605
B1401400110000005945479TRIOWNED CONSTRUCTION COMPANY                            1602
A1401400110492222049001AMORSOLO S. NIEVA                                        0508
B0101405940512020791002ACRYDENTAL LABORATORIES, INC.                            1601
B0101408530000003866080GLOBAL CITY INNOVATIVE COLLEGE, INC                      1603
A0101411790000006543342CHANDRA, FERDINAND                                       0502
B0101411790518050226003ZIMI TECH, INC.                                          1605
B0101403450000001769902SACABEN, LOURDES IGNACIO DBU FOUR SQUARE                11603
B0101403450000001769902CARGO HANDLERS                                          21600
A0101403450521281581001**********                                               0501
A0101403450521390447001**********                                               0501
A0101403610000007124934NIONES, MARIA SOCORRO ALVAREZ                            0502
B0101403610531010097001UNI FUNDS INCORPORATED                                   1601
B0101403610000006637114RD PAWNSHOP, INC.                                        1603
A2201400250000013859055CRUZ, MARIZA COCHON                                      0501
A2201400250000015672703YALUNG, JOSEPH PAUL DIZON OR                            10501
A2201400250000015672703YALUNG, JOSE TALAVERA                                   20500
A2201400250561484428001WILSON LAO SIO OR                                       10502
A2201400250561484428001EDUARD LAO SIO                                          20500
B0101404130601018669002QUALITY SHOE CARE PLUS, INC.                             1601
A0101404260000007498299LICAROS, NENITA RAMOS                                    0502
A0101407690000003207201BENOSA, RANDY RIVERA                                     0501
A0101407690000015666023VINLUAN, MA. MARIE SHIELA VINLU                          0501
A0101413440000011382955**********                                               0501
A0101413570000002976210OSABEL, NOELE JOY OR                                    10501
A0101413570000002976210OSABEL, E. DANIEL                                       20500
A0101413570000013901263FUENTES, HECTOR JOHN DELFIN                              0501
A0101413570000013348966FARIN, ELIZABETH DBU NELO INTER                         10502
A0101413570000013348966NATIONAL CARGO EXPRESS                                  20500
A0101413570000005867474LIM, ROSALYN DBU                                        10501
A0101413570000005867474SANROSE CONSTRUCTION                                    20500
A0101414120000002172618JOANNA MICHELLE Y. TAGORDA                               0501
B1301400210682038666001EMERALD MANAGEMENT SERVICES &                           11601
B1301400210682038666001CONSULTANCY                                             21600
B1301400340683005408001REPUBLIC COURIER SERVICE INC.                            1602
A1301400340683387803001ESGUERRA, DANILO M.OR                                   10504
A1301400340683387803001ESGUERRA, ANGELITA T.                                   20500
B1301400340683821100608**********                                               2001
B0101408240711028488001INTAS DESTINATION MANAGEMENT INC.                        1610
A0101408240711180164001TUPAZ, CORAZON RONQUILLO                                 0501
A0101408240711454365001LUPAGUE, MARIETTA RESURRECCION                           0501
A0101408240711478374015EMILY MONTILLANO                                         0502
A0101408240711547952001FABELLANO, JOGIE GREGORIO                                0501
A2801400100712401674002DEL ROSARIO, DANILO LARACAS                              0501
A2801400230000011730420GURAY, ANITA BASA                                        0502
A4101400260000012880285PENSON, JANE                                             0501
A4101400260000012861182FAJARDO, RUBITO                                          0501
A4101400260000013704393GALICIA, CRISTAL GRACE                                   0501
A4101400260812576194001NOEL N. RAZON                                            0502
A4101400420000001063832MADRID, CHERYL CALMA                                     0501
A4101400420000012882787BAYARONG, MELCHORA GAYOSO                                0502
A0101412340000008161415MIYAHIRA, MITCHELLE PHIFFER                             10501
A0101412340000008161415BEBIERA                                                 20500
A0101404840000005397004LAVADIA, JEFFERSON MAMERTO                              10501
A0101404840000005397004ZINGAPAN                                                20500
A0101405070861032590001J-VEL-PIL TRANSPORT SERVICES                             0502
B0601400230000013259224GARCIA, PRISCILLA MIRANDA DBU PMG REALTY                 1610
