A0101408790000011218549JANDUSAY, GERALD SALAYOG                                 0501
A1101400120000003981317CANETE, ALEXIS JAN DY DBU                               10502
A1101400120000003981317CANETE ENTERPRISE                                       20500
A0101400600000001403638*******                                                  0502
A0101400440000000821538MARITES T. JIMENEZ                                       0501
A1101400120313478374066FUNCION, LANIE ECIJA                                     0502
A0101405650000005284522VALERA, ANA VILLALUZ                                     0501
A0101405650000004822231AZARCON JR., DBU                                        10501
A0101405650000004822231NOVAMIND BUILDERS                                       20500
A0101405650000000525739RUFA MACABENTA                                           0502
A0101405650000002325515**********                                               0502
B0101409210398015788001PETNET, INC.                                             1608
A2401400180411523954001ANG, DANNY KO JT                                         0502
A0101400860000000031643**********                                               0501
A0101400860000001348749************                                             0501
A0101400860011550744001**********                                               0502
B0101400860000001005398**********                                               1601
A0101400150000011268001MATE, ALVIN FARAON                                       0501
A0101400150000010848941CHAN, ROMUALDO                                           0501
A0101400150000009400004CHRISTINE COMETA                                         0501
A0101400150061039916043HERNANDEZ, EUGENIO OR                                   10501
A0101400150061039916043HERNANDEZ, MICHAEL ALAN                                 20500
A0101400150061087284001RODA, JULIUS R. DBU SJA TRADING                          0501
A0101400150061231268003TAN, CORAZON J.                                          0501
A0101400150061379810002BUMAGAT, MOLITA L.                                       0501
A0101400150061392849001PINGOL, TERESA GARCIA                                    0501
A0101400150061433959002KUBOTA, KUMI                                             0502
A0101400150061663651001VERA CRUZ, MARIE GRACE TEE                               0502
A0101400600000001335648********                                                 0502
B0101405810072018018001AIMWAY PLASTIC & PRINTING CORP.                          1602
A0101405810000001021172PUA, C DBU MCK SCHOOL & OFFICE                          10503
A0101405810000001021172SUPPLIES                                                20500
A0101405810072367320001**********                                               0503
A0101405810072385132001***********                                              0504
B0101405810072412798001**********                                               1603
B0101405810072412798002**********                                               1603
A0101405810072696577001CHAN, MERCELYN TAN                                       0501
B0601400100000000032839TANCUNGCO BENSING LIVESTOCK CORPORA                      1605
A0601400100081450924002VASAY, JUN OR ARLENE                                     0501
A0601400360083528303002SUAREZ, RAMON JOSE FLORES                                0503
A0101413730000002229767*                                                        0502
A0101410560110478374009SAUDILYN M. PENAS                                        0502
B0101400730000000833341MT.-PROVINCE TEACHERS' MUTUAL AID                       11603
B0101400730000000833341SYSTEM, INC.                                            21600
A0101400730111432322015SHARON ALIBO                                             0501
A0101400730111751676001ALFUERTO, VIOLETA DEPILO OR                             10501
A0101400730111751676001ALFUERTO, ABNER                                         20500
A0101406040000008915482LIM, SHEAN ROZEN                                         0502
A0101413150000001688571******                                                   0504
A0101413310000001073858PICART, ROSEMARIE LIM                                    0501
A0101413310000008415394CHUA, IVY BARTULABA                                      0502
A0101412920000011270196CASAUAY, MARIA CHELLY AGLIPAY                           10502
A0101412920000011270196AND OLIVAS, SOLEDAD ADDUN                               20500
B0101400440161007221001ILA EXPRESS HAULER                                       1602
A0101400440000009896231GINA L. SUPUESCA                                         0502
A0101407270162333006014CARLOS R. VILLEGAS JR.                                   0501
B0101401090171007908003PERPETUAL SUCCOR HOSPITAL & MATERNITY                   11605
B0101401090171007908003INC.                                                    21600
A0301400530000001010040MENGUITA, KAREN JANE ONGBAY                              0502
A0301400660194079451001DEOCAREZA, ELENA CONSOLACION                             0501
A0301400790000005691990EMBALSADO JR., ALBERTO GEMPESAW                          0502
A0301400950000008868933SEVILLANO, LILIA CEPE                                    0501
B0101410720000005786769XCELTEK, INC.                                            1601
B0101412500000000739715PACIFIC CONCRETE PRODUCTS INC.                           1605
A3101400160000002355762LUCIDO, MARKLIN ALCANTARA                                0501
A3101400450000001104112SY, MARVIN DAANTOS OR                                   10505
A3101400450000001104112SY, REMELIE ISIP                                        20500
A1001400350000008698899EBUNA, RALF JOSEPH MADRONERO                             0501
A1901400290000009112123MA. LOURDES ALVIAR ALDAY                                 0501
A0101406620000010201091MARTINEZ, GEORGINA CAROLINA Y.                           0501
A0101406620273215629001PATRICK G. SANTOS OR                                    10502
A0101406620273215629001MONICA S. SANTOS                                        20500
A0101406620273521300001GARCIA, LEO MCGUIRE OR                                  10501
A0101406620273521300001GARCIA, CARMEN                                          20500
B0101400570281015729002ST. LUKE'S MEDICAL CENTER EMPLOYEES                     11602
B0101400570281015729002ASSOCIATION                                             21600
A0101400570281378117001SHERYL LYNN A. YU                                        0508
A0101400570281551802001SHERYL LYNN A. YU                                       10505
A0101400570281551802001OR STEVEN L. YU                                         20500
A0801400160000000476222LARANO III, JOSEPH EDUARD GAIN                           0501
A1101400120000003595966BARRETO, DIONNE AMIEL DAYAG                              0501
A1101400120000006081103BACSAL, EMMYLEEN BATAWAN OR                             10503
A1101400120000006081103BACSAL, DAVID DACUNOS                                   20500
A1101400120000000653070ELECTRONICS CITY AND SERVICE                            10501
A1101400120000000653070CENTER INC.                                             20500
B1101400120000000653116LMWD MULTIPURPOSE COOPERATIVE                            1605
A1101400120313705988001CABIGON, AILEEN A. OR CABIGON,                          10501
A1101400120313705988001CARL ALDRICH                                            20500
A6601400120000002249830LUCERO, MYRNA DELA TORRE OR                             10501
A6601400120000002249830LUCERO, ARPON U                                         20500
A2001400290000006776727MANSO, RAZEL GARUPA                                      0502
A2001400290315081010001TAN, JAMES ERWIN VILLABERT                               0501
A0101402350000005645241FELLIZAR, EMILIA PABRUA JT.                              0502
B0101402350321024658002OLIVAREZ COLLEGE INC.                                    1608
A0101405650000002325515**********                                               0502
A0101405650000000525717TAMBUNTING, JOY MYRA SALVADOR                            0505
A0101402510000001554030ROQUE, JUDE ERICSON PEREA                                0501
B0101402060351022562001C.M. MALIGAYA ENTERPRISES CORP.                          1603
A0101409050000007511839DE JESUS, RAMIL LAGAREJO                                 0502
A0101409050000011151101LAGMAN, JEFFERSON LIGAYA                                 0502
B0101409050352043844001COLLEGE OF ARTS & SCIENCES OF ASIA & THE                11603
B0101409050352043844001PACIFIC - TAYTAY                                        21600
A0201400760000009996101************                                             0502
A0201400890000002141873DR. CHARLES P. SIA                                       0502
B0101408370000001991671FOURTH VALLE VERDE ASSOCIATION INC.                      1601
B0101408370382034675001THE MEDICAL CITY, SECTION OF                            11601
B0101408370382034675001ENDOCRINOLOGY                                           21600
A0101408370382205132001DR. MILAGROS T. JOCSON                                   0501
A0101408370382209111001DR. JOSEFINA C. PONCIANO OR                             10503
A0101408370382209111001RANDOLF C. PONCIANO                                     20500
A0101408370382407313001DR. JOHN P. QUEROL                                       0505
A0101408370382652736001VELORO, LYRA VALERA                                      0501
A0101408790000003701340MARIA ASUNCION V. LAGMAN                                 0501
A0101408790000005251110CLARINO, RANDY LUBAN                                     0501
B0101411660000005434793STRATWORTH SOLUTIONS, INC.                               1603
B0101402770000001571233LEADER GARMENTS CORPORATION                              1610
B0101402770000001571579LEADER GARMENTS CORPORATION                              1605
A0101402770000006642793SUESS, FLORENCIA GERODIAS DBU                           10502
A0101402770000006642793FGS ENTERPRISES JT                                      20500
A0101402770391187974003DEE PONA, DARWIN ANTIPOLO                                0501
A0101402770391211308001*********                                                0504
A0101402770391360120001CEFERINO V. PRONTO JR.                                   0501
A0101405490000002880551MARIE GRACE BUITRE DBU CEDAR                            10503
A0101405490000002880551TREE CONS. SUPPL                                        20500
A0101408950000011077671DELA ROSA II, ROGELIO BINAYA                             0502
A0101409180000005326712DELA CRUZ, DENNIS TABUJARA                               0504
A0101409180000003780410BAUTISTA JR., EDGAR ROLDON                               0501
A0101409180000003780421ESPERANZA LUZ BUNI                                       0502
B0101409180397040384001PAYNAMICS TECHNOLOGIES INC.                              1603
B0101409180000000036655WINGSTOP PHILIPPINES INC                                 1610
A0301400820000001185644MIAG-AO, MAE A.                                          0501
A0301400820000002692102JAUM, ESTELA R.                                          0501
B5501400120000007963377EASY PAY FINANCE CORPORATION                             1610
A2401400180411479333002NARSOLIS, ANALIZA GARBO                                  0501
A2401400180411621739001JACOB, NOEL RULLON                                       0501
B1201400150421015912001SUNSHINE SUPERMART, INC.                                 1601
A0101403320471389976001HENRY C. GOMEZ                                           0502
A0101412760000007822100NIONES, RUTH FAVILA                                      0501
B1901400160491013980001VIC IMPERIAL APPLIANCE CORP.                             1602
B1901400160491046052001BANAPRA DEVELOPMENT COOPERATIVE                          1603
B1401400110000000034693LUCENA CITY PHARMA CORPORATION                           1601
A1401400110000000132841*******                                                  0501
A0701400260000002339095BERNARDO JR., JAIME MIRALLES OR                         10502
A0701400260000002339095BERNARDO, CYRIL                                         20500
A0101407430000001028802LITA T. GUZMAN                                           0502
A0101407430503182735005JEFFERSON G. CHENG                                       0504
A0101407430503185437001JOSEPH BALTAZAR C. MADRIGAL                              0502
A0101407430503736499001CECILIA R. NALAUNAN                                      0501
A0101403580511396376001RAFAEL A. MACALINAO OR                                  10501
A0101403580511396376001GLICELLE S. MACA                                        20500
B0101405940512522097001BISTRO LEGASPI & COFFEE INC.                             1604
B0101403450521011938001FAS DEVELOPMENT CORPORATION                              1603
B0101403450521012010001********                                                 1603
A0101403450521021871002**********                                               0504
B0101403450521041342001*********                                                1601
B0101403450521042526001HOPE CHRISTIAN HIGH SCHOOL, INC.                         1605
B22014002500000077200123 KIS FOOD STORE CORPORATION                             1601
A0101404130000000043934DELA CRUZ, MA. ELINORE                                  10503
A0101404130000000043934DE CASTRO                                               20500
A0101407720602417297001SUNTAY, MARCUS LESTER RODRIGUEZ                          0501
A0101407720602480488001GERALDINE MAJELLA L. JURILLA MD                          0501
B0101404260611005306001THE HOUSE OF RACOR ADS., INC.                            1605
B0101404260000004781266RD PAWNSHOP, INCORPORATED                                1605
B0101404260611018939001LILLES DEVELOPMENT CORPORATION                           1605
B0101404260611023318001EUNEE TRADERS AND CO. INC.                               1610
A0101404260611478374121FLORDELIZA B. HUVALLA                                    0501
A0101404260611491958001******                                                   0502
A0101413570000009020028PEREZ, GRACEILL JUDYCERY MOJICA                          0502
A0101413570000001682486STEVENS, MARIA ME DBU BMJ INTL                           0501
A0101413570000007373831CHAN, MIKE HAROLD INCIERTO                               0501
A0101413990000004511077ESPEJO, MA. CAMILLE T. OR                               10501
A0101413990000004511077ESPEJO, MARLO L.                                        20500
A0101406590662034547001F.C. DINO CONSTRUCTION                                   0501
B0101406590662517153001BRAND CONCEPTS SUPPLIES AND                             11610
B0101406590662517153001MANUFACTURING                                           21600
B2801400100712045009001ASIA-PACIFIC CHARTERING PHIL. (SUBI                      1602
A2801400230000005752478BIRON, JUDITH MANLAGNIT                                  0501
B4101400260000005724170STRONG MONEY BUILDER'S DEV'T. INT'L                      1605
A4101400260812299913002CAMPOS, FILOMENA OR CAMPOS,                             10501
A4101400260812299913002BERNIE OR CAMPOS                                        20500
A4101400420814520766131LACSON, MELIZA FRANI                                     0501
A0101412340850087236001ROSELYN J. HERRERA OR                                   10501
A0101412340850087236001ACE GERALD J. HERRERA                                   20500
A0101412340000001017747KALALO, GLENDA MAGBILANG                                 0501
A0101404840851298552067EMERENCIANA P. BOMBAY &/OR                              10502
A0101404840851298552067JEREMY P. BOMBAY                                        20500
A0101404840851684504001DILAO, ANGELITO AMBOY OR                                10502
A0101404840851684504001ITO, NEYSA ANDRE                                        20500
B0601400230000007953960AUTOSALES & AFTERSALES COMPANY INC.                      1602
A0601400230891255071002ATTY. MARIA ELISSA VELEZ                                 0503
A0601400230891255331001MA. RITA TERESITA S. JINGCO                              0501
