B0101403450521821100608**********                                               2030
A0101412630000001823285VERGARA, MARY ANN S.                                     0501
A0601400360000012820461RUBIA JR., LEONARDO C.                                   0501
A0601400360000013102377VALDEPENAS, MILKA A.                                     0501
A0601400360083649312001KIM, KANG WOOK                                           0502
A1101400120000000652493BELETA, REBECCA OBAOB                                    0503
A0501400170000001032200RICAFORT, JESSICA TINTE                                  0502
A0501400170481252349002LALAS, MAEVA DELA CRUZ                                   0501
A0501400170481252352001DR ESTRELLA B ESPINO                                     0501
A0501400170481253455001NORMELITO QUIMO OR IRENE QUIMO                           0502
A0101410300000004361642SISON, JOSE VICENTE GALSIM                               0501
B0101400860000005313137**********                                               1601
A0101400860000005313115**********                                               0510
A0101400860011422604001**********                                               0505
A0101400860011478516001**********                                               0502
A0101401250021359256001CLARA M. ASUNCION                                        0501
A0101411370000003548925AW, HARVEY LIM                                           0502
A0101400150000013828878DEL ROSARIO, ANNA CATRINA AGUIR                          0501
A0101400150000011286172YANG, HENRY BAUTISTA                                     0501
B0101400150061010873001BAP CREDIT GUARANTY CORPORATION                          1601
B0101400150061043753001MABINI GRINDING MILL CORPORATION                         1601
A0101400150061226430002ORO, ERNESTO N.                                          0501
A0101405810000012014467***************                                          0502
A0601400100081040294001MOIKAI INDUSTRIAL SUPPLIES AND                          10505
A0601400100081040294001AUTOMATION SERVI                                        20500
B0601400100081048064001RIDGE MHILLS, INC. DBU PACIFIC BREE                      1601
B0601400100000002099209RIDGE MHILLS, INC. DBU PACIFIC BREE                      1601
B0601400100000007185266ANGELES FFTH DEVELOPMENT CORP.                           1610
A0601400100081251805002MUNOZ, ANTONIO J. OR                                    10501
A0601400100081251805002MUNOZ, JENNIFER                                         20500
A0601400100081254239001CABRERA, CHRISTIAN OR CYNTHIA                            0501
A0101414090108067349001ORALDENT DENTAL CENTER                                   0502
A0101400730000002882502ULOB, GUARDINO MARTINEZ                                  0501
A0101400730111478374017VEBELITA G. GALLETO                                      0502
A0101413150000003208324**********                                               0501
A0101412630000004062064BANZUELA, ELEANOR ADORNA                                 0502
A0101401830141209574001JENNIFFER C. ZABALA                                      0501
A0101401830141288964001ATTY. JOCELYN C. ZABALA                                  0501
A7201400170000006487518ARANDING, LIZA MEDADO                                    0502
B5001400170000000169904GREEN SUMMIT REALTY AND MANAGEMENT                      11601
B5001400170000000169904CONSULTANCY CO.                                         21600
A0101400440000013535996BAYSA, MARIA CECILIA RIVERA                              0501
A0101400440000000596630MARY ANN A. OYARDO                                       0501
A0101400440000002035041MARIA GEVELA CARDINOZA                                   0501
A0101407270000003254162LI, HOU WAN HOWARD HUNG                                  0501
B0101407270162028545001G-1ST VALUE HOLDINGS, INC.                               1601
B0101407270162033522001KENZO CRANES VENTURES INC.                               1601
B0101407270162567342001LUCKY5 DRAGONS INCORPORATED                              1601
A0101401090171353988001CITADEL C. DE CASTRO                                     0502
A0101401090171704770001MARIO ALVARO M. FABRO                                    0501
B0301400530000003573528RD PAWNSHOP, INC.                                        1605
A0301400790000006269787ONG, RUSSELL RITCHIE BAUTISTA                            0502
A0101401380000006542349**********                                               0501
A0101401380201180089001SANTIAGO L. ALINO                                        0502
A0101401380000001820002********                                                 0502
B0101413020000000038457ZIG3 INDUSTRIAL GAS TRADING CO LTD                       1603
A0101413020000003055314JVF COMMERCIAL AND PROJECT DEVT                         10503
A0101413020000003055314SUPPORT SERVICES                                        20500
A0101412500000002304694VALENCIA, GABRIEL PIETRO CACHA                           0501
B0101412500000003408131MOLDEX LAND, INCORPORATED                                1601
A3101400160000001169131YACON, MARGARETTE EVANGELISTA                            0501
A3101400160221410884002AQUILINA C FALCESO                                       0501
B3101400740000004509535MOLD PARTS MANUFACTURING ASIA INC.                       1605
B1001400190231272340001SIA, TOMAS C. OR GINA B.                                 1601
A1001400190231509590001LAGUYAN, ENGRACIO SALONA OR                             10504
A1001400190231509590001LAGUYAN, HELEN BRETANA                                  20500
A1001400190231520766015CALUMBA, VICTOR ARQUITA                                  0501
A1001400190231520766110MAYOR, CARMELITA ANGCAY                                  0501
A1001400480000000133279DACUDAO, LILUISA OR DACUDAO,LEO                          0502
A1301400470000011839662**********                                               0502
A1301400470000011839731RAQUEL F. MARCOS                                         0501
A1301400470252478374030JERICA P. MATAMMU                                        0503
A1901400290000001926274GIRLIDIA SANCHEZ PANALIGAN OR                           10503
A1901400290000001926274RODOLFO MARANAN PANALIGAN                               20500
A1901400290261284559001ARACELI ORONA ESPINILI OR                               10503
A1901400290261284559001NOEL ESPINILI                                           20500
A1901400290261488341026FRITZIE B TENORIO                                        0502
B0101401670000011534455RORAIMA DATA SERVICES (ASIA) INC.                        1602
B0101406620273033463001ARL BUSINESS CONSULTANCY, INC.                           1602
A0101406620273609466001LANEDA, RICHARD GOLANGCO                                 0501
B0101408660274039402001AVON INDEPENDENT MANAGERS MULTI-PUR                      1601
A0101411110000000604868**********                                               0502
B0101411820000003085072*************                                            1601
A0101412470000000853776GARCIA, MARILOU MANANSALA                                0501
B0101400570000003451498LUSH ENTERPRISES CORPORATION                             1605
B0101411240000005136943HIYAS PRESS, INC.                                        1601
B2601400270000012492472ERIKA RYNELL C. UY JT                                    1603
A2601400270000012492483LIZ ANDREI M. MARQUEZ DBU ELITE                         10501
A2601400270000012492483TUTORIAL AND REVIEW                                     20500
A0801400160000001031456BELONIO, MICHAEL BELANDRES                               0501
A1101400120000003197142ROMERO, CATHERINE DEMETERIO OR                          10503
A1101400120000003197142ROMERO JR., RAMON ROCHE                                 20500
A1101400120313478374124BADAR, GINA C.                                           0501
A6601400120000008490411CU, LILIA T                                              0501
A6601400120000011286310MARTIRES, ROMMEL GAMAY OR                               10502
A6601400120000011286310MARTIRES, MHEL JOSEPH                                   20500
A2901400130000011947518ROLDAN, NEIL TALUNAY                                     0501
A0101402350321180459002TING, CHING LAN OR CHANG, CHIAO                         10501
A0101402350321180459002FEI OR CHANG, CH                                        20500
A0101402350321478374059BERNARDITA D. LOPEZ                                      0501
B0101402510341037516002PRIMEWORLD MANAGEMENT SERVICES, INC                      1601
B0101402060351009377001ESLA LAND DEVELOPERS, INC.                               1601
A0101409050352228509001JOHN ANTHONY M. CASTRONUEVO                              0501
B0201400760374037819001MAPECON PHILIPPINES, INC.                                1601
A0201400760374514049001CHUA, EDDIE TING                                         0502
A0201400890000002037172****************                                         0501
A0201400890376591320001************                                             0501
B0201401020000000005078COMMONWEALTH INSURANCE COMPANY                           1602
A0101408370000006446302VELASQUEZ, ELIZABETH RAE C.                              0501
A0101408790000003812100HUR, IMELDA ASPERIN OR                                  10501
A0101408790000003812100HUR, IN MU MOON                                         20500
A0101408790000011535043DE VERA, HENRY TIGNO DBU LOVE                           10501
A0101408790000011535043YOUR SKIN DERMACLINIC                                   20500
A0101402770391033536001BEST BUY MOTTO ENTERPRISE                                0501
A0101402770000001571364JOSE E. ZAULDA JR.                                       0502
A0101408400000008744765RAMOS, JOHN WALTER BELLO                                 0502
A0101408400394402626001GARCIA, NATIVIDAD P. OR GARCIA                          10503
A0101408400394402626001JR., HERMOGENES                                         20500
A0101408400394425228001CRUZ, CONRADO JIMENO                                     0502
B0101408400394427962002SALONGA, JEFFREY V. AND                                 11602
B0101408400394427962002SALONGA, MA. DAN                                        21600
A0101408400394478374008EDUALINO, LEONORA OR                                    10501
A0101408400394478374008EDUALINO, EDGAR                                         20500
A0101408400394667959001PAUL DANIEL TAMAYO OR CARLA                             10501
A0101408400394667959001MARIE TAMAYO                                            20500
A0101409180000002252477ENCARNACION, MELISSA FORTALEZA                           0501
B0101409210000004818895JDP CONSULTING LTD. CO.                                  1604
A0101412210000013486610SANA, BLESSYLYN PADILLA                                  0501
A0101412210000005303177MORAZA, ANTONIO ROIG OR                                 10502
A0101412210000005303177MORAZA, JOSE MARI ROIG                                  20500
B5501400120410044567001RASAY INSURANCE AGENCY AND GENERAL                      11601
B5501400120410044567001SERVICES                                                21600
A0101403030000000320492**********                                               0502
A0101403030441415037001**********                                               0502
A0101403320000001803258RODEL A. DANGA                                           0502
B01014063304720209890011 TO 1 MARKETING INC.                                    1610
B0101406330472040053001KUS OFFICE SYSTEM MFG. CORP.                             1602
A0101406330472212432006ANA L. ROMUALDEZ OR LEONARD LIM                          0501
A1901400320000013754031TORIO, KATE CONCEPCION                                   0501
A1901400160000003198696GUTIERREZ, ARNOLD RAYMOND                                0501
A1901400160491343996001MARIA DOROTHY M HERNANDEZ                                0502
A1401400110492221115001MANOLO A MERCADO                                         0504
A1601400170000000421138ALITA ANNE H. GOINGO                                     0501
A0101403580000002265681DEE, HANS CHUA                                           0501
B0101403580511034322001CADAS PHIL. 1, INC.                                      1601
A0101403580511044026001SORORES ENTERPRISE                                       0501
B0101408530000003866024EMERALDPAWN SERVICES, INC.                               1601
A0101408530516491420001TENGCO, TERENCE L.                                       0501
A0101411400000004555675NIDEA, GAYLYN BAUTISTA OR                               10501
A0101411400000004555675NIDEA, ELVIN HAYES E.                                   20500
A0101411790000006648008SAUADAN, SHIRLEY MABBORANG                               0501
B0101411790000005537060CITY & LAND DEVELOPERS, INCORPORATED                     1601
B0101411790000005537059CITYLAND, INC.                                           1601
B0101411790000005537048CITYPLANS, INCORPORATED                                  1601
A0101411790000000469461PANGILINAN, RENATO                                      10504
A0101411790000000469461DBU RLRM ENTERPR                                        20500
B0101411790000005537071CITYLAND DEVELOPMENT CORPORATION                         1604
A0101403450521389380001**********                                               0501
A0101403450000000889585SEE, NELSON NGO                                          0501
A2201400250000001932258RCT MED PHARMA CORPORATION                               0503
A2201400250561639490001AUDREY LIM TAN                                           0501
A0101407720602396410001PEREZ, MARTESIO C. OR                                   10501
A0101407720602396410001PEREZ, AGNES ESS                                        20500
B0101412180000003275181PHDELI CORP.                                             1602
A0101412180603757129001LOPEZ, PAOLO DUNCA                                       0501
B0101409920000005460624WHITE EAGLE INTERNATIONALE TRADING,                      1603
A0101407690000000495512MARIA BELEN FEDERIZON OR                                10501
A0101407690000000495512JOSE RENEIRIO FE                                        20500
B0101407690652029452003CA TELEMARKETING INC.                                    1601
A0101407690000010166337SABIANO, JOLLY PENAFLORIDA                               0503
A0101407690652093287002ANNA LEAH Y. TIONGSON-MENDOZA                            0501
A0101407690000005197913LOPEZ, SHIRLEY LUDOVICE                                  0501
A0101413570000010111636CUALES, MARK FRANCIS ROTA                                0505
A0101413990000010191301BERNALDO, PAOLO VIRTUDAZO OR                            10501
A0101413990000010191301MENDIOLA, JASMINE                                       20500
B0101413990000013844334JPCB COFFEE LAUNDRY CORPORATION                          1601
A0101406590662317770001NUVAL, CYNTHIA DALAO                                     0502
A0101410300000003290173**********                                               0501
A0101410300000000026508TAGLE, E DBU E.S. TAGLE TRADING                          0503
A0101410300000004361642SISON, JOSE VICENTE GALSIM                               0502
B1301400340683353482001MARLENE R. JOSE OR JOSE MARI R. JOSE                     1602
A0101408240000000039701NAVARRO, LIGAYA GAYO                                     0501
B0101408240711026678001SAMBEL PACIFIC CORPORATION                               1605
A0101408240711561358001DEL MUNDO, KAREN MAGLINES                                0502
A0101408240711593997001VAFLOR, ELENA RECALDE                                    0501
B2801400100712036104001SUBIC WATER AND SEWERAGE COMPANY, I                      1603
B2801400100712039090001GREAT WALL EXPLORATION, INC.                             1601
A4101400420000003715586DE VEYRA, ROMEO AVILA                                    0501
A4101400420814506413001IBIAS, JOSEPHINE OCAMPO OR                              10501
A4101400420814506413001IBIAS, SEGISMUND                                        20500
A0101412340000001017930SONIA MEDINA SIBI                                        0501
A0101404840000013836661DE VERA, MARIA SONIA GUEVARRA                            0501
A0101404840000013836723MANAOG, NOEL COBARRUBIAS                                 0501
A0101404840000013836763SECRETARIO, HAIDE DILAO                                  0501
A0101404840000013836803FERNADEZ, JHAN CURT STEVEN GATC                          0501
A0101404840000013836843ANDAL, MARICAR DANO                                      0501
A0101404840000013836898HERRERA, RHEYMART LLAGUNO                                0501
A0101404840000013836967ADDURU, CHARMAINE YUSAY                                  0501
A0101404840000013837011ADAN, JOHN KRISTOPHER BECHAYDA                           0501
A0101404840000013837077CIRIACO, ERICSON VOBORA                                  0501
A0101404840000013837113CRISOSTOMO, WENDY AMIL                                   0501
A0101404840851037570001FGC GAS SERVICE STATION                                  0501
B0101404840851037721001ECG DYNAMIC MEDICAL SYSTEM INC.                          1601
A0101404840851403558001SOLIVERES, YOLANDA A.                                    0502
A0101406750852717102001SOQUENA, MARIA SUNITA TEJWANI                            0502
B0101405070861036521001VICTORIA MANSIONS INC.                                   1602
A0101405070000006006086CHAN, OLIMPIA CALUGAY                                    0502
