B0101405780212821100608**********                                               2005
A3001400130000000007052JAY-AR AUTO PARTS                                        0501
A3001400130000001261249BANJAO, JENELYN LARA                                     0501
B1001400480000003028873RESMA, EUGENE UTLANG DBU TYPE R                          1601
B1001400480000004097154SABAL HOSPITAL, INC.                                     1610
A0801400160000005562392************                                             0501
B0101402350000000655345MICHAEL ANGELO B. VERGARA AND                           11602
B0101402350000000655345SHIRWELL M ISADA                                        21600
B0101402350000000046108ABSOLUTE INDUSTRIAL SOLUTIONS, INC.                      1602
A0101402350321478374008VICTORIA ELLE                                            0501
A0101405650000004822231AZARCON JR., DBU                                        10501
A0101405650000004822231NOVAMIND BUILDERS                                       20500
A0101405490000002141042ALCOREZA, MA.SALOME SISCAR                               0503
A0101412890000005546647VILLALON, GILDA CABALLERO                                0501
A0101403320000001646631SANTIAGO, LEILANI SANTIAGO                               0502
A0101403320000001803203ARROJADO, ARTURO CARTUJANO                               0502
B0101403320471020319001LORD OF THE NATIONS, INC.                                1605
A1601400170000000497581MARK ERWIN C. CHAN                                       0501
A4101400550815478374010CRISTINO, DANA JAMAICA                                   0501
A0101400860011442481001*******                                                  0503
A0101400860011514595001**********                                               0502
A0101400860011516358001**********                                               0503
A0101400860000000031610**********                                               0502
B0101401250021013681001P.J. LHUILLIER, INC.                                     1605
B0101401250021029733001PAWNCARE SERVICES INC.                                   1605
A0101400150061227107001KIM H. APOLEGA                                           0501
A0101400150000005015650AQUINO, CELESTE DIVINA ANGELES                           0501
A0101400600000001335648********                                                 0501
A0101405810072265481001PLAZA, LEONORA LIM                                       0503
A0101405810000001021332UY, RAYMOND VELASCO                                      0501
A0601400100000001442808BERNARDO, LILIAN VILLAPANA                               0503
A0601400100081025360002AMOR REFRIGERATION & AIR                                10501
A0601400100081025360002CONDITION REPAIR                                        20500
A0601400100081588114001MASAGCA, ELSIE DIMARUCUT                                 0501
A0101410850109042727001KISMET CONSTRUCTION AND SUPPLY                           0505
A0101400730000000833396CARBONELL, LEVINA IBALE                                  0503
B0101400730111008382002JEMARA INTERNATIONAL FREIGHT                            11602
B0101400730111008382002SERVICES INC                                            21600
A0101400730111198710001FERNANDEZ, HENRY F. OR                                  10502
A0101400730111198710001FERNANDEZ, AMELI                                        20500
A0101412630000004062031CRUTO, AURORA DONES                                      0501
A0101412630000005566970ALEJANDRINO, ARGEL MALLARI                               0501
B0101401830141008845001PANDACAN TRANSPORT SERVICE & MULTI-                     11603
B0101401830141008845001PURPOSE COOP.                                           21600
B0101401830141008845002PANDACAN TRANSPORT SERVICE & MULTI-                     11602
B0101401830141008845002PURPOSE COOP.                                           21600
A7201400170000002791319**********                                               0502
A0101400440000000596618REYES, MARIA TERESA MARIN                                0502
A0101400440161039572063EVELYN Y. BALLADARES                                     0501
A0101400440161525001088MARIA ELENA B. BONCALO                                   0501
A0101401090171200528001GIOVANNA V. FONTANILLA                                   0502
A0101401090171399340001CARMEN S. QUESADA                                        0501
A0301400950000001379477CCD AUTO HUB AUTO SERVICE                               10503
A0301400950000001379477CENTER                                                  20500
B0101401380201034271004LC BUILDERS AND DEVELOPERS, INC.                         1604
A1001400190231039064001SUSAN LO OR DENNIS LO                                    0504
A1001400190231333383002SIRAD, MADRIGAL MAMBATAO                                10505
A1001400190231333383002OR SIRAD, DAYAMON                                       20500
A1001400190231478374086LORNA A. OMANDAM                                         0502
A1001400350233503410002APARICI, ARMANDO AKIAT                                   0502
A1001400480000005558381GO, VENCITO TORRES                                       0501
A1301400470000002299869GONZALES, FRANCO CRISANTO LLANE                          0502
A1301400470252518432001**********                                               0510
B1301400760000000007121GLOBAL CARS PHILS., INC.                                 1605
A0101401670000000079316********                                                 0501
A0101401670271186264002ATENDIDO, ANITA OR                                      10501
A0101401670271186264002ATENDIDO, RAYMUND                                       20500
B0101406460272020749001EASTGATE COMPUTER CORPORATION                            1601
B0101406620273022309001VISOR RESOURCES, INC.                                    1604
B0101406620273028521001I-REMIT INC.                                             1602
A0101406620273678366002MAGHIRANG JR., ROSAURO GRANARIO                          0502
A0501400200292567569001LARILYN D. GATCHALLAN                                    0501
A0801400160311265752001DIVINAGRACIA, LLANE GRACE                                0501
A0801400160311478374055LURELA FERASOL                                           0502
A2001400290000001301244TEMBLOR SR., FLORIDO                                    10505
A2001400290000001301244VILLAGONZALO                                            20500
A3401400280000002323520GUPILAN, MARIBETH BEGASO                                 0501
A0101402350000005567239MACASAET , ALLEN MICHAEL ALERTA                          0501
A0101402350000005567320MACASAET , MARIA MONICA ANNE  F                          0501
A0101402350000005567400MACASAET II, AMADO SALVADOR FRU                          0501
A0101402350000005567451MACASAET , ANTONIO ALBERTO  FRU                          0501
A0101402350000005567484SERRANO , NERITA BACOY                                   0501
B0101402350321017613001BOARDWALK BUSINESS VENTURES, INC.                        1601
A0101402350321485233001TUI, CHARLES ANGELO                                      0503
B0101402350321738079001OLIVAREZ GENERAL HOSPITAL INC.                           1610
B0101405650322821200608**********                                               2001
A0101402510341045146001GOLDEN DIMSUM FOOD EXPRESS                               0502
A0101402510341399755001********                                                 0501
A0101402060351211788002ROMUALDEZ, FRANCISCO C. OR                              10501
A0101402060351211788002ROMUALDEZ, ANNA                                         20500
B0201400920000000048020DONG JUAN CENTRAL CORPORATION                            1601
A0101408790000004483090MA. TERESA D. BO-OT                                      0501
A0101408790000005482260JAMES BEN L. JERUSALEM                                   0501
A0101408790000005555682MARIE KIRSTIN C. DE JESUS                                0501
A0101411660000001145788TUMPALAN, SOCRATES DBU FIRST                            10502
A0101411660000001145788SUN MARKETING                                           20500
A0101402770000001521857ANTONIO, JHOMARIE RIVERA                                 0501
B0101408400394025635001KETMAR FASTFOOD CORPORATION                              1605
B0101408400000000077872TECH-ASIA INDUSTRIAL ENTERPRISES                        11602
B0101408400000000077872CORP.                                                   21600
A2401400180000005569673TERO, GERARDO OMEGA                                      0510
A2401400180411059111001HILARIO, MA ALICIA C. DBU BIG                           10501
A2401400180411059111001SISTER MKTG OR HILARIO, N                               20500
A0101403320000001646813LAURENTE, ARNOLD SILVERIO                                0501
A0101406330000001235114VILLANUEVA, JAN KEVIN MALLARI                            0501
A0101406330472206513002**********                                               0505
A0101406330472311319001ALEJANDRO V. VICTORINO JR.                               0502
A0101406330472464109002FLORANTE FALCON OR                                      10502
A0101406330472464109002EVELINA FALCON                                          20500
A0101406330472478374046YVONNE M. LOMIBAO                                        0502
A0101410140000000254408COMSTI, CHARITO C.                                       0501
B0501400170481025398002****                                                     1601
A1601400170000000421161GEORGIA SOFIA GIMENEZ-LUISTRO                           10501
A1601400170000000421161OR LUISITO B. LUISTRO                                   20500
A1601400170000000497536WASSER TRADING                                           0502
B0101407430000001213034BORDERTRADE MANAGEMENT INC.                              1603
B0101407430503651749001ROTARY CLUB PARANAQUE POBLACION INC.                     1602
A0101405940000005306792LINUS JAMES P. LAINES                                    0501
A0101405940000005568523CARLOS, NAYDHA JAVIER                                    0501
A0101405940512397652001JULIETA B. JAVIER                                        0506
A0101408110000001823821LORENZO, DOMINADOR MELCHOR DBU                          10502
A0101408110000001823821DMLORENZO BUILDERS                                      20500
A0101408110000001823810REMOLACIO, FRANCIS LILIAN DBU                           10502
A0101408110000001823810BLUE SKY TRANSPORT                                      20500
A0101408530000001268399BALDOVINO, ASUNCION A OR                                10501
A0101408530000001268399BALDOVINO, MARY ANN PAMEL                               20500
A0101408530000001885910MANLAPAZ, ARREM IBE                                      0501
A0101403450521238046001**********                                               0502
B0101403610000000015972LAGUNA SCIENCE AND TECHNOLOGY                           11601
B0101403610000000015972COLLEGE INC.                                            21600
A0101403610531302317002NORVIC D. SOLIDUM                                        0501
A0101404000000002258324FRANE, LEO DANTE CAPULONG                                0501
A0101404000000005231721HENRY C ESPENILLA II                                     0501
B2201400250561821100608**********                                               2005
A0101407720602341263001RIVERA, LUIS MARCELO                                     0501
A0101407720602394088001EDRIC O. CASTILLO                                        0501
A0101407720602484947001BAUTISTA, SHEILA R. OR                                  10503
A0101407720602484947001BAUTISTA, LUDIVI                                        20500
B0101407720000000017632LOVE MY BODY, INC.                                       1603
B0101404260000000003750TRESTON INTERNATIONAL COLLEGE, INC.                      1605
A0101404260611344625001BESMONTE, ARLENE TAN                                     0502
A0101411530000003238275MACAPAGAL, JENNIFER VILA OR                             10502
A0101411530000003238275MACAPAGAL, EINAR LUNA                                   20500
B0101406590662683945001JUANITEZ, ALBINA FERRER                                 11601
B0101406590662683945001ET.AL.                                                  21600
A0101406590662749087001LOPEZ JR., OSCAR B. OR                                  10502
A0101406590662749087001LOPEZ, GLADICE C                                        20500
B0101410300663082813001DELTA GRID POWER SYSTEM CORPORATION                      1603
A1301400210000001206973JANICE D DE LEON                                         0506
A1301400210682247780001AILEEN A. MUNOZ                                          0502
A1301400500000000213265VINCENT P. JAVIER OR                                    10505
A1301400500000000213265TERESITA F. JAVIER                                      20500
A1701400230000005455632BERNARDINO, RUVELYN VILLANUEVA                           0501
A0101408240711375102001PANICUCCI, MA. PILAR M. JT                               0501
A0101408240711598793001SALAZAR, ELMA TENEDERO                                   0501
A4101400260812576194001NOEL N. RAZON                                            0502
A4101400420000003308961REYES, CHARISSA MANALO                                   0502
A4101400420814520766110DELA CRUZ, ARMINDA E.                                    0501
A4101400420814572265006JOCELYN M. TWANO                                         0502
B0101406750000000091012AUGUSTINIAN ABBEY SCHOOL, INC.                           1602
A0101406750852180776001SAQUIDO, JOSE ARBO                                       0503
A0601400230000001687107CANLAS, FERDDIE QUIROZ                                   0501
