A2601400270000000019576ANDRES P. TATTAO                                         0501
A0101411080000000026326*****                                                    0501
A0601400100000000141933CANLAS, ROGEL YAP                                        0501
A0101407140000000149455**********                                               0501
A0101410720000000211907DE JESUS, FRANCISCO DALUZ                                0502
A0101414120000000398972ULDERICO MERCED TRUCKING                                 0502
A4101400390000000500530ARCILLA, CAESYLYNNE FORTUNO                              0502
A0101405650000000525751ZAFRA, APRIL ROSE PENALBA                                0501
A0301400950000000566774SENEN A. VILLANUEVA JR.                                  0501
A0101413440000000570347LADISLAO N. FIRMACION JR.                                0502
A0101400440000000596629ZENAIDA O. CALLEJO                                       0501
A0101401380000000792063HAVERIA, ANA MARGARITA                                   0501
A0101414120000000875572REDESIL CONSTRUCTION                                     0502
A0101413020000000880371DE GUZMAN, MA DONNA REMPIS                               0502
A0101401250000000907233JAMITO, GERALDINE QUIBRAL                                0501
A2001400290000000924447CLAVEL, ALAN ZAMORA                                      0502
A0301400530000001009994PADAYHAG, WINNIE L.                                      0503
A0101408400000001035385LAURON, ZAFIRO TIRADOR                                   0501
A0301400950000001379568TAOJO, MUTYA SANTIAGO                                    0502
A0301400530000001409701CHEN, SHICONG                                            0505
A0101406750000002040204JULIANDA, DBU TILESTONE TRADING                          0501
A0101401250000002131908LAWRENCE SENO                                            0502
A0101414090000002282760TOLENTINO, JAY MONTANO                                   0502
A0301400660000002348472NANIE DORADO OR RICHARD DORADO                           0501
A0301400660000002348563LUY, ROGELIO BALIGHOT                                    0501
A0601400100000002365459MURPHY, JAMES MARSHALL                                   0501
A0601400230000002649983REYES, JODEL MANUEL                                      0502
A0101414120000002879885FCB TECHNOLOGIES                                         0501
A0301400530000003087745REYES, EMILIA CUMALING                                   0501
A0101413310000003169219ARCILLA, CARLO INFANTE                                   0501
A0101411400000003311166MANAHAN, MARK DEXTER VILLADELGA                          0501
A0101400150000003322301AUGUSTUS CAESAR MANUEL                                   0501
A0101411660000003580341BESSIE L VALENZUELA                                      0501
A0101411660000003580363GILDA C VILLALON                                         0501
A2001400290000003761733TARING, HARRY DWIGHT UY                                  0501
A0101400860011514595002**********                                               0502
A0101400860011533026001**********                                               0502
A0101401700041192370001******                                                   0506
A0101401700041360888001ANNEE SAIDA T. ESCLETO                                   0503
A0101401700041429657001RARALIO, GAY AGATEP                                      0502
A0101400150061055752087PATRICIA ANN CELIS                                       0501
A0101400150061229957001KU, VICENTE S.                                           0501
A0101400150061292057001***************                                          0503
A0101400150061695646001HANOPOL, MA. ESTER DEMETRIO                              0501
A0101405810072300425001**********                                               0501
A0101405810072552611001ADELIA CABRERA                                           0502
A0101401830141395937002JAVIER, DIA KRISTINE SERRANO                             0501
A0101400440161485250001TRINA ANN L. GORAYEB                                     0501
A0101401090171322573001DR. PORSHIA COMES-NATIVIDAD                              0501
A0101401380201425266001SANTOS, PATRICIA ORTIZ                                   0502
A1001400190231520766171WILDY G. OCHIGUE                                         0501
A0101401670271188147003FRANCISCO M. LIBORO                                      0505
A0101406620273216080001MARIA CONCESSA V. DAROY                                  0501
A0801400160311265752001DIVINAGRACIA, LLANE GRACE                                0502
A0101405650322346354001DAYRIT, ARMANDO RODRIGUEZ                                0504
A0101402480331478374160MIRAFUENTES, MARELYN                                     0502
A0101402480331520766046NUNEZ, EVANGELINE                                        0501
A0101402060351042151001R.N.C. SAFETY ENTERPRISES                                0502
A0101402060351595339001CARLOS, CORAZON ALIMARIO                                 0501
A0101402640361170240002**********                                               0502
A0101402930381478374015DIMARANAN, ARNOLD ABEJERO                                0501
A0101402770391404096001******************                                       0502
A0101405490392375066001LEE, CHUL WOO                                            0502
A0101405490392478374008MARGARITA R. CIELO                                       0501
A0101411790518055764152GAGUI, JOE ANTHONY YU                                    0501
A0101403610531712013001LUMPAS, MARILYN DEL ROSARIO                              0502
A0101404000551371853001AVILA, MERCEDITA CUNNANAN                                0501
A0101404130601478374010FERNANDO, MARINO A.                                      0501
A0101404130601520766001MANEJA, ELIZA T.                                         0501
A0101407720602382305001PARDINAN, ROSSANA O.                                     0501
A0101410720653029859003GK INTERNATIONAL VILLAGE HOMEOW                          0502
A1301400340683608747001TALUSIG, MARILYN ESGUERRA                                0502
A0101407560686174180001MANUEL S. QUEROL                                         0503
A4101400420814405680001TIBAYAN, CYNTHIA SAPUTIL                                 0501
A4101400420814520766097ORIENDO, CECILIA B.                                      0501
A0101404840851520766142ANITA DOGILIO                                            0502
A0101405490000000019689RHYAN HARLIE L. ARAGOZA OR                              10502
A0101409890000000049089GEMSTAR CLEANING SUPPLIES                               10506
A1601400170000000421190JOHN F. TORROCHA OR                                     10501
A2601400270000000561897EDWIN S. SANTOS OR                                      10504
A0101405490000001092524MA ANASTACIA S. DELA MERCED OR                          10502
A1301400500000001412388GERONIMO G. QUIZA JR. OR                                10501
A0301400790000001776150SAAVEDRA, EARL JOSEPH B                                 10501
A0101400150061229962001ACLETO C. RIGOR OR                                      10504
A0601400100081251801001PANLILIO, AUGUSTO G. OR                                 10502
A0301400530193753759001TAYONG, EDILBERTO L. OR                                 10505
A0101408660274448186001GAMO, WEISEN BAGAMANO OR                                10501
A0101400570281296123001BANARES, MYRNA N. OR                                    10503
A0101405650322400866001LEVISTE, PANCHO M. OR                                   10502
A0101402480331626813001KHO, PATRICIA FLORESTINE MALAY                          10501
A0101402640361423715001DE LEON, JILL SOLOMON  OR                               10501
A0201400890376731894001JIMENEZ, JEREMY MICHAEL ALMARIO                         10501
A0201400890376731894001JIMENEZ, JEREMY MICHAEL ALMARIO                         10501
A2401400180411495475001SANCHEZ, HANNY CORPUZ OR                                10502
A0101407430503369731001LILIBETH M. ARCEGA OR                                   10501
A0101411790518055815029MANALILI, GLAIZA ALARICE                                10501
A2201400250561478374026MINDA S. BLAYA                                          10501
A0101404130601450411001NIDA D. AGCAOILI OR                                     10501
A0101407720602573510001LIMSON, MARC ANTHONY MANUEL OR                          10501
A0101406590662728693001VARGAS, RAYMARK JOSEPH S. OR                            10501
A0101407560686172490001EMILIO APALISOC OR                                      10501
A0101406750852359932001FRANCISCO S. PANAHON OR                                 10503
A0101405070861196343001EDGARDO DAVID OR ANGELINA DAVID                         10505
A0101405490000000019689ELOISA P. ARAGOZA                                       20500
A0101409890000000049089INTERNATIONAL                                           20500
A1601400170000000421190ROCHELLE A. TORROCHA                                    20500
A2601400270000000561897JACQUELINE Q. SANTOS                                    20500
A0101405490000001092524RAYMOND ANTHONY DAYLEG                                  20500
A1301400500000001412388MA ROSELLE P. QUIZA                                     20500
A0301400790000001776150OR SAAVEDRA, MARIE CHONA                                20500
A0101400150061229962001CARINA M. RIGOR                                         20500
A0601400100081251801001PANLILIO, MARIE                                         20500
A0301400530193753759001TAYONG, RITA M.                                         20500
A0101408660274448186001GAMO, JOHN BRYAN                                        20500
A0101400570281296123001BANARES, LEOPOLDO II J.                                 20500
A0101405650322400866001LEVISTE, EDITHA                                         20500
A0101402480331626813001OR KHO, RICHARD                                         20500
A0101402640361423715001SOLOMON, LUISA M                                        20500
A0201400890376731894001OR JIMENEZ, MARI                                        20500
A0201400890376731894001OR JIMENEZ, MARI                                        20500
A2401400180411495475001SANCHEZ, RUFO                                           20500
A0101407430503369731001PATRICIO M. ARCEGA                                      20500
A0101411790518055815029AGUILAR                                                 20500
A2201400250561478374026MEMBERS OF NATASHA                                      20500
A0101404130601450411001LEOPOLDO A. AGCAOLI                                     20500
A0101407720602573510001CRISTI-LIMSON, MARGARET                                 20500
A0101406590662728693001GENATO, MARY CAESARYLE S.                               20500
A0101407560686172490001CARMELITA APALIS                                        20500
A0101406750852359932001FILIPINAS A. PAN                                        20500
A0101405070861196343001OR MARY ELAINE DAVID                                    20500
B2001400290000000020537LINK RI LOGISTICS INC.                                   1601
B0301400660000000022824PHILSAGA MINING CORPORATION                              1603
B0101401380000000106761PRODUKTONG PINAS SOUVENIR ITEMS INC.                     1605
B0101412890000000125339RICHRESOURCES TRADING CO.                                1601
B1401400110000000167468PETER PAUL PHILIPPINE CORPORATION                        1605
B0101406620000000194176RIOFIL CORPORATION                                       1602
B0101408790000000599817PARLANCE BUSINESS SOLUTIONS INT'L. INC.                  1601
B0101400150000000633196DURAFLAME GAS CORP.                                      1603
B0101403450000000889552CENTURY GLASSCENTER INC.                                 1601
B1301400340000000981922KLINAIRE SUPPLY METAL FABRICATION INC.                   1601
B0101402480000001100012AJKL ENTERPRISES                                         1608
B0101400860011409046002**********                                               1601
B0101400150061010680001CONSORTIUM INDUSTRIES, INC.                              1602
B0101407270162047861001PHIL. ECOLOGY SYSTEMS CORP.                              1603
B0301400530193041076168BLACK FIGHTER SECURITY AGENCY, INC                       1610
B0301400660194034150168FIRST WELAN CORPORATION                                  1601
B1001400350233032957001PCCI FINANCE CORPORATION                                 1601
B1001400350233039624001ORO LZT MARKETING ENTERPRISES, INC.                      1604
B0101406620273012462001COL FINANCIAL GROUP, INC.                                1615
B0101402480331010223001MEGA ENTERPRISES, INC.                                   1602
B0101402510341008564001SAN BEDA COLLEGE ALUMNI ASSOCIATION                      1602
B01014026403616040690017MG HAULING SERVICES PHIL. CORPORATION                   1604
B0101402770391009441001ST. ANTHONY HOMEOWNERS' ASSOCIATION INC.                 1602
B0501400170481015879001TDG VEHICLE SALES DEPARTMENT                             1615
B1901400160491013980001VIC IMPERIAL APPLIANCE CORP.                             1605
B0101409890649044639001BISKWIT CO.                                              1604
B0101410720653026764001AMMARSONS CONST. SERVICES CORP                           1606
B0101410720653026764002AMMARSONS CONST. SERVICES CORP                           1606
B0101407560686009918001ACQUISITIONS INDUSTRIAL CORP.                            1602
B0101408240711023600003HERSAN REALTY CORPORATION                                1602
B0101405070861020451001SOUTHEAST TRAVEL CORPORATION                             1604
B0101401830141027203001ARTWORK PRODUCTION AND TELEPROMPTER                     11602
B3101400160221047376001JFA ELECTRICAL CONSTRUCTION AND GENERAL                 11603
B0101401830141027203001SERVICES                                                21600
B3101400160221047376001SERVICES INC.                                           21600
B0101410720210821100608**********                                               2005
B3301400120581821100608**********                                               2010
B0101409890649821100608**********                                               2002
