B0101408820333821100608**********                                               2002
B0101400730111021297001CRESLEIGH FOODS CORPORATION                              1601
B0101400730111021297002CRESLEIGH FOODS CORPORATION                              1603
A0101400730111386485063LYNETTE E. BENDANILLO                                    0501
A1301400500000000213378GONZALES, JEAN NICOLAS                                   0501
B4101400550000003388050JUMEIRAH CONSTRUCTION AND DEVELOPME                      1601
A0101400860011425868001**********                                               0502
A0101400860011462049001**********                                               0502
A0101400860011629068001************                                             0501
A0101411370000003294842BUENCAMINO, FRANCIS S. DBU                              10502
A0101411370000003294842BUENCAMINO PRESS                                        20500
B0101400150000004703360ACTION.ABLE INC.                                         1602
B0101400600071233610002**********                                               1620
A0101413280000002317682**********                                               0501
A0101410850000003503506BOLADO, CRISYEN CORONA DBU CIEN                         10502
A0101410850000003503506TRADING                                                 20500
A0101410850000002356841DELA CRUZ, E DBU E. DELA CRUZ                           10501
A0101410850000002356841GRAVEL & SAND/TRUCKING                                  20500
A0101410850109554406001DELA CUESTA, ZHEENA CHOO                                 0501
A0101400730000000833396CARBONELL, LEVINA IBALE                                  0503
A0101400730000001822577REMO JR., JOSE HARI                                     10502
A0101400730000001822577OR REMO, EVELINA                                        20500
A0101400730000001822613VALENZUELA, ARLEN GUEVARA                                0502
B0101401830000000033616CARITAS SALVE CREDIT COOPERATIVE                        11603
B0101401830000000033616PACO                                                    21600
A0101401830141395937002JAVIER, DIA KRISTINE SERRANO                             0501
B0101400440161037708002RD CASH PADALA, INC.-AREA 1                              1603
A0101400440161039572023JIMMY S. PALISOC                                         0501
A0101400440161798533001MINGOY JR., ANDIOLO PATCHICO                             0501
A0101407270000003253916LIM, NELLIE CACHO                                        0501
A0101407270000004832673JULIUS CAESAR C. BABAO                                   0501
B0101401090171030100001THOMASIAN MULTI-PURPOSE EMPLOYEES                       11630
B0101401090171030100001COOPERATIVE                                             21600
A0101401090000000034591CAGUIOA III, EDUARDO VICENTE S.                          0501
A0101401090171370022001MACAPAGAL, LUALHATI SANCHEZ                              0501
A0101401090171468916001FRANCISCO, MA. GENEVIEVE RAMOS                           0502
A0101401090171506804002CUNANAN, ELAINE CHEEAY                                   0502
A0301400790000002301280SENEN, PATRICK VINCENT GAPUZAN                           0501
A3101400160221478374027ERNESTINA S. VILLANUEVA                                  0501
A1001400190231342333001BUSGANO, HIPOLITO S.                                     0503
A1001400190231478374075BARRON, LORNA                                            0502
A1001400350000000017165MEN DBU A&L MARKETING SOLUTIONS                          0501
B1001400350000002048335PRIVATE ENTERPRISE CORPORATION                           1601
A1001400480000000133279**********                                               0502
A1301400470000000061463DEUS, MARIA ELNORA DE GUZMAN                            10505
A1301400470000000061463OR TAGO, ANA LIZA VELARDE                               20500
B1301400470000000009561FUND LINK CREDIT & LOANS, INC.                           1602
A1301400470252478374018ELIZABETH P. BARNACHEA                                   0501
A1301400470252478374030JERICA P. MATAMMU                                        0503
B1301400760000000050819HC FAM HOLDINGS INC.                                     1601
B0101401670271027397001KELEYNA ENTERPRISES                                      1601
A0101406620000001686780PANGILINAN, GENALYN RUBY POLIDA                          0501
B0101406620273024855068TANGENT SOLUTIONS, INC.                                  1605
B0101406620000003497154**************                                           1610
B0101406620000003497165***************                                          1605
B0101411110276046529088BOOK MEDIA PRESS INC.                                    1605
B0101411110000000604926CROSSPROPERTY MANAGEMENT INC.                            1610
B0101412470000000949555OPENSIDE INC.                                            1601
A0101400570281186530001CARLOS AGUILA OR                                        10502
A0101400570281186530001MERCEDES AGUILA                                         20500
A0101400570281191853002GREGORIO, JULIETA ORBISO                                 0501
A0101411240000001563322CHUA, MARIVIC CHING                                      0502
A0101411240000002332496LAWAN, CARINA CRISOLOGO                                  0502
A2601400270000002312210JANET GELACIO OR BARTOLOME                              10503
A2601400270000002312210GELACIO                                                 20500
A2601400270302567227001ROSITA TAN VALLE                                         0501
A0801400160000000476346TSC SUPREME MOTOR SHOP                                   0503
A0801400160000002287589FORMILLEZA JR., BERNAL                                   0501
A0801400160311478374057JUNIEH CHRISTINE S. HALABA                               0501
A6601400120314612871001**********                                               0502
A6601400120314737040001DURA, CARLITO OR DURA, RENY                              0503
B2001400290000000020560VIMLE UNIVERSAL SOLUTIONS INC.                           1601
B2001400290315042343001VISAYAS RAM CYCLES, INC.                                 1601
A2001400290315478374001MEMBERS OF NATASHA (SHOECAT INC                         10501
A2001400290315478374001ABANTE JR., FELI                                        20500
B2001400290315635857001****************                                         1601
B0101402350321015321001BEST CHOICE MINIMART INC.                                1605
B0101405650000000772743BF FEDERATION OF HOMEOWNER ASSOCIATION                   1601
A0101405650322170744002DELA PENA, DINA REYES OR                                10501
A0101405650322170744002DELA PENA,LAURENCE                                      20500
A0101402510000005211129GENORGA, MERCEDES OCAMPO                                 0505
A0101402060351349598001MORANO, CATHERINE GUINTO                                 0501
A0201400760000002047445SANCHEZ, MARICHU SOCO                                    0501
A0201400890376058678001SING, ARTURO YU                                          0503
A0201400890376058683001JUICYFIED HEALTHY CAFE                                   0501
B0101408370382027041005THE MEDICAL CITY EMPLOYEES ASSOCIATION                   1603
A0101408370382205132001DR. MILAGROS T. JOCSON                                   0502
A0101402770000001571295OSCAR DYCAUSING BANUA II                                 0501
A0101402770391355762053ALFIE VIADO                                              0502
B0101408400394028489001KING'S HOLLY, INC.                                       1602
A0101408400394478374021BALDEVARONA, SALLY                                       0502
A0101408950000003171326SUMI, NATIVIDAD SANTOS                                   0503
B0101409180397041522001UNI-PRESIDENT (PHILIPPINES) CORPORATION                  1601
A0101409210000000043821GUTIERREZ, ROSEMARIE MALABRIGO                           0501
B0101409210398042656001FIELD OUTSOURCE ASIA, INC.                               1605
A2401400180411048131001ONTARIO PURIFIED DRINKING WATER                         10501
A2401400180411048131001DISTRIBUTOR                                             20500
A2401400180411478374020MORI, LYDIA                                              0501
A2401400180411478374061JUNRES AGAD OR                                          10501
A2401400180411478374061NORMELITA BLANCO                                        20500
A0901400220000000888042**********                                               0503
B0101403320471028831001COVENANT CHILDREN, INC.                                  1601
A0101403320471560880001REYNALDO JAMERO SANTIAGO JR.                            10501
A0101403320471560880001OR JOCELYN V. SANTIAGO                                  20500
A0101406330472573170001WILLARD SY GO                                            0502
A0101410140000001940074LOZANO, MARIE CRIS GUINTO                                0501
A0101410140000001939933*****                                                    0501
B0501400170481018109002****                                                     1605
A1901400160491246285002LOURDES P. CLEOFE                                       10501
A1901400160491246285002OR SHIRLEY D. FLORES                                    20500
B1401400110492041160001SAN DIEGO BUILDERS                                       1601
B1401400110492776542001****************                                         1601
A1601400170000001360576SAYAT, MARJORIE CASTUERA OR                             10501
A1601400170000001360576SAYAT, ZALRIAN ZUNIGA                                   20500
A0101408110000002364741SALAPARE, NORMAN CANDELARIO                              0501
A0101408530000002980772ADRANEDA, LOUIS ALPHONSO                                10502
A0101408530000002980772AVIGUETERO                                              20500
A0101408530000002980761ADRANEDA, JOSE VICTOR                                   10502
A0101408530000002980761AVIGUETERO                                              20500
A0101408530000003519384DEBBIE ROSE S. SANTOS                                    0502
A0101411790518055764183PAUL B. JUAN                                             0501
B0101403450521011882004PAN PACIFIC TRAVEL CORPORATION                           1603
A0101403610531219488001REFORMA, MARILOU                                         0502
A0101404000000000574618OH, JONG EUN                                             0502
B0101404000551026854001MACKIM PRINTS, INC.                                      1602
A2201400250000000141200NOEL M. ESPINOSA DBU N.M                                10501
A2201400250000000141200ESPINOSA CONSTRUCTION                                   20500
A0101404130601150580001WERLE P. GALANG                                          0501
B0101407720602016457001NEWGEN INFORMATION TECHNOLOGY CORP                       1602
A0101407720602348840002MACALINTAL, CLAVEL MARANAN                               0502
A0101404260611478374075VIVENCIA HATOL                                           0501
A0101404260611478374115FE S. BONDOC                                             0501
B0101409920000000021245PEREY, GERONIMO DBU TRI-OHMS ENGINEERING                 1605
A0101409920650478374005CRISOSTOMO, MA. EMELIA GASPAN                           10501
A0101409920650478374005MEMBERS OF NATAS                                        20500
B0101407690652036815001TAGALINIS, INC.                                          1603
A0101407690652045019001AXIS ROOF SERVICES                                       0502
A0101407690652520766022ELVIE GALENDEZ - DEALERS OF                             10501
A0101407690652520766022SHOECAT INC.                                            20500
B0101406590662560649001FOURSPOONS VENTURES CORPORATION                          1602
A0101406590662641633001ALAZAS, MIMI TOMASA OR ALFONZE                          10502
A0101406590662641633001MIKEL OR ANDRE Miko                                     20500
A1701400230000000097790ASIS, MARY JEANE PAGUSAN                                 0501
A0101408240711608249001SANTUYO, MARY JANE DULAY                                 0501
A4101400390000000975071ORTEGA, NATHALIE DBU NATH'S DRY                         10501
A4101400390000000975071GOODS                                                   20500
A4101400550000002091043RAMIREZ, CYNTHIA TAN                                     0503
A0101412340000003341357JEANNE APRIL MARIE P. BRUNEAU                            0501
A0101412340000003344909MARIBETH G. NOLEAL                                       0501
A0101404840851046725019LETICIA QUINANOLA                                        0501
A0101404840000001312725GUERRERO, EDELMARIE BOBIS                                0501
A0101404840851791747001BALMES, GERVACIO OR SARADAT,                            10501
A0101404840851791747001MONICA OR GALLAG                                        20500
A0101406750852338027001JANE G. LACHICA                                          0501
A0101405070861478374020SOL G. CONFLOR                                           0503
A0601400230891585876001GAGUI, JAY ACOBO                                         0501
