B0101400730111821100608**********                                               2005
B0101408820333821100608**********                                               2002
A0101410690000000001758IGNACIO, JONATHAN DBU JCJ                               10502
A0101410690000000001758MANAGEMENT SERVI                                        20500
A0101400150061229002001REGINA S. ALCANTARA                                      0501
A0101400150061464185003DE SAGUN, SIGFRID ALEXIS ARCE                           10502
A0101400150061464185003DE SAGUN, ANNE MARIE                                    20500
B4101400550815821100608**********                                               2003
A0101400860000003571657**********                                               0501
B0101400860011305536001**********                                               1601
A0101400860011394300002**********                                               0503
B0101400860011394544002**********                                               1601
A0101400860000005313115**********                                               0505
A0101400860011494800001**********                                               0503
B0101400860000005313079*******                                                  1601
B0101411370000000017945ST.THERESE OF THE CHILD JESUS INSTITUTE                 11601
B0101411370000000017945OF ARTS&SCIENCES                                        21600
A0101400150000002902752FISCHER, JANICE TUMAMBING                                0501
B0101400600071233745002******                                                   1602
A0601400100081065284001FIGUEROA, ROXANNE SUFICIENCIA                           10501
A0601400100081065284001DBU SICHER ENTERPRISES                                  20500
A0601400520000001349559PINEDA, JIM CARLO                                        0505
B0101410850109064545001SAGAWA GLOBAL LOGISTICS PHILIPPINES,INC.                 1604
A0101400730000001822082DULIN, MARNELLI FERANIL                                  0502
A0101401960121569490001************                                             0502
A0101413150000003208299******                                                   0501
B0101413150000000082784*********                                                1604
B0101413310000001928914HONEYCOMB BUILDERS, INC                                  1602
A0101400440000000821538MARITES T. JIMENEZ                                       0501
A0101400440161520766098JUDITH D. BRISO                                          0501
B0101407270162032077001ULTIMAX MANPOWER RESOURCES INC.                          1603
B0101407270162038101001BIRDS INTERNATIONAL, INC.                                1603
B0101407270000000830368ONE FOOD GROUP MANAGEMENT SERVICES, INC.                 1605
B0101407270162063091001MOTHERSHIP, INC.                                         1603
A0101401090171385883001CENON R. ALFONSO OR                                     10503
A0101401090171385883001MARGARITA LUISA                                         20500
A0301400530000001409712OCHEA, CHARLYN S.                                        0504
B0301400660000000022868KEIZENNG TRUCKING CORP.                                  1602
B0301400660000006862720**********                                               1602
A0301400950000002975002*********                                                0501
B0101401380201034247001HOBBIES OF ASIA INC.                                     1604
B0101401380000000106732ANIMAL FIRST PET PRODUCTS CORPORATION                   11605
B0101401380000000106732DOING BUSINESS                                          21600
B0101410720210764716001J.C.T. EZ LOAN CORPORATION                               1602
A0101413600000000206697******                                                   0505
A0101413600000005355022EDDY FRANCIS B. GABRIEL                                  0501
A3101400160000001276017JEFAGIO B TOLEDANES                                      0501
A3101400160000008941260ROSARIO, LINA BOQUIREN                                   0501
A3101400160000008941271PEREZ, RICHARD TAGLE                                     0502
A3001400130000001271341SURALTA, GEGINIA MONTICINO                               0501
A3001400130000008264784MEMBERS OF NATASHA, SHOECAT INC                          0501
A1001400190000004487641SIAO, MICHAEL FRANKLIN NERI                              0501
B1001400190231009544004RI CHEMICAL CORPORATION                                  1608
B10014001902312723450015N GLASS SUPPLY                                          1610
A1001400190231274559001SY, MAN CHAK                                             0501
A1001400190000002170656AMELINA E. FACTURA                                       0501
A1001400190000002266662MARY JOY S. MASTAIL                                      0501
A1301400760000002346129JIMMY C. CENA                                            0503
A1301400760000003415596PATRICK C. MUNCAL OR                                    10501
A1301400760000003415596LEA IVY F. MUNCAL                                       20500
A1301400760000009441987JOHN JEFFREY G. SANTIAGO OR                             10501
A1301400760000009441987MA. FILIPINA V. SANTIAGO                                20500
B1301400760000000050853CONSUMERREACH, INC.                                      1610
A0101408660000007457994F. CURA INDUSTRIES                                       0504
B0101411820000003085141HARDCOM COMPUTER SYSTEM CO.                              1601
B0101400570281007188002KIMURA CHAVES ENTERPRISE, INC.                           1602
A1101400120000003197153SERRATO, ELSA OCASLA                                     0501
B1101400120000000653116LMWD MULTIPURPOSE COOPERATIVE                            1603
B1101400120313544308001**********                                               1610
A6601400120000000060368LAGRIMAS, MARIA ISABEL VERANO                            0501
A6601400120000002249830LUCERO, MYRNA DELA TORRE OR                             10501
A6601400120000002249830LUCERO, ARPON UL                                        20500
A6601400120314616978001SAURO, MICHEL CASTILLO                                   0502
A2001400290000003961693UYCHIAT, JOHN CARLO MOTOOMULL                            0503
A0101402350321180119001SHERENA O. PARUCHA OR                                   10501
A0101402350321180119001VIRGILIO B. PARU                                        20500
B0101405650322006303001GIL'S TRADING                                            1606
A0101402510000006356910PASTRANA, RONALD MANAL                                   0502
A0101402510000009458853TABISOLA, ROCHELY JAVIER                                 0501
B0101402510341065266001GOTESCO PROPERTIES, INC.                                 1601
A0101402510000000049329UNICARE DENTAL, MEDICAL TRADING                         10501
A0101402510000000049329CORPORATION                                             20500
A0101409050352460292001LUCELI C. CUASAY                                         0501
B0201401020000003031141CITADEL MINING CORPORATION                               1602
A0201401020000007458184POBLADOR, HENRY CATUBAY DBU GLO                          0501
A0101402930000007031307SUMALDE, LAARNIE ROXANNE PESQUI                          0501
A0101402930381419788001ALMARITA JIMENEZ OR                                     10501
A0101402930381419788001MA. REGINA COELI                                        20500
A0101402930381453357001DR. CARLO GIOVANNI B. LOZADA                             0502
A0101408370382387113001DR. MAUREEN M. COZ                                       0505
A0101408370382407309003JOHANN MICHAEL G REYES DBU                              10501
A0101408370382407309003JMGREYES EYE CLINIC                                     20500
A0101408370382550614001BETITA, JUDITH SEVILLA                                   0501
A0101402770391211301001TENG MU KUNG                                             0503
A0101405490392478374008MARGARITA R. CIELO                                       0502
A0101408400394410835001ARABIA, FORTUNE GAY SANTOS                               0503
A0101408400394423791001VALERIANO, RUTH GRAMPON                                  0503
A0101408400394478374034MERLA M TANO                                             0502
A0101409210000001501466MORALES, RONNIEL SARMIENTO                               0501
A5501400120000005492220ROCKWELL, SHARON SILVA                                   0501
A0101403320471032385001CHRISTIAN OR EVANGELINE                                 10501
A0101403320471032385001VALENCERINA                                             20500
A0101403320471316949002VIRGINIA GALAMGAM                                        0501
A0101412760000000767977ABELIDO, RAYMOND OR MICHELLE                             0502
B1901400160491027966002SALESFORCE ONE MARKETING, INC.                           1603
A1401400110000000132841*******                                                  0501
A0701400260000001231981SABIDO, CECILE ANG                                       0501
A0101403580000005961931VERA, RUFIA DOROTHY C.                                   0503
A0101408110000001165833ONGPIN, DIANA FRANCES OBISPO                             0501
A0101411790518055815027MANABAT, ELAINE BUNDALIAN                                0501
A0101403450521392545001NANETTE CHRISTY Y. ONG                                   0501
A0101403450000001769851RODRIGUEZ, MEE LEN CHAN OR                              10501
A0101403450000001769851RODRIGUEZ JR., T                                        20500
A0101403450000001769913**********                                               0501
A0101403610531220921002MEALA, BELEN PARACALE                                    0502
A0101404000000009085890OCHANGCO, JOSE PAOLO FEUNTES                             0501
A0101404000000003853081GESTIADA, RUBY BENIG                                     0501
A0101410690000000710741FAJARDO, MARIA RAMONA CANLAS                             0501
A0101404130601488703001EUSTACIO, RONNIE TORRES                                  0502
A0101407720000003099201VENTURANZA, MARIA EDURNE                                10502
A0101407720000003099201GOTANCO                                                 20500
A0101407720602381795001FORES, MIGUEL EDGARDO MANUEL                            10502
A0101407720602381795001OR FORES, LUCIA                                         20500
B0101412180000001292991RELL'S AGRI AND TRADING CORPORATION                      1602
A0101404260000007498299LICAROS, NENITA RAMOS                                    0502
B0101404260611031875001CIPRIANO C. GAGAN CONSTRUCTION                           1601
B0101413570000007212984PRIMUS UNO DISTRIBUTION INC.                             1603
B0101414120000000649127WILCHAT MARKETING                                        1610
B0101414120000004603398WEBLEND INC.                                             1601
A0101414120000005252864MVG HARDWARE                                             0502
A0101406590662044117001D VISAGE INTERNATIONAL                                  10502
A0101406590662044117001CORPORATION                                             20500
A0101406590662296475001RAMOS, MA. JESUSA FERNANDEZ OR                          10503
A0101406590662296475001RAMOS, JOSE FRANCISCO                                   20500
A1301400210000005040511CRUZ, JENNIFER LUMBANG                                   0502
A1301400340683249082002RICARDO HERMOSO II OR                                   10501
A1301400340683249082002AGRIPINA HERMOSO                                        20500
A0101408240711608249001SANTUYO, MARY JANE DULAY                                 0502
A2801400230000001782094PARPAN, MARILOU DBU VISTA RENT                          10503
A2801400230000001782094A CAR OR PARPAN,EDDIE N.                                20500
B2801400230000005253641COST OF MONEY LENDING CORPORATION                        1602
B2801400230000005253663SEGARA SUBIC BAY PROPERTIES INC.                         1602
A4101400260000000469272TINGZON, PRIMO YSON                                      0501
A4101400260812423341001ESTEFANIA B. RANDOY                                      0505
A4101400260000003679863JARABE, MARILOU PENARANDA                                0502
A4101400390000007459198GUINOO, BERNARDO PRUDENTE OR                            10503
A4101400390000007459198GUINOO, ANA BOSC                                        20500
A4101400390813760059001PENTENIO, BALTAZAR DANDAN                               10502
A4101400390813760059001OR PENTINIO, SHIRLY D.                                  20500
A4101400550000004847070MULOK, LOMALA MACOTE OR                                 10501
A4101400550000004847070MULOK, RASNIE RADIAMODA                                 20500
A4101400550815046007001DIGIBOX PRINTING SERVICES                                0501
A0101412340000003422682ALEXIS C. GUEVARRA                                       0501
A0101412340000007088891JUAN MIGUEL B. VIAJE                                     0501
B0101404840851065167001BEST SECURITY AGENCY, INC                                1601
A0101404840851478374086EDITHA ALOJADO                                           0501
B0101404840000003069685CHOWLEEMIEN FOODS INCORPORATED                           1605
A0101406750852799786001RIGUERA, JOSE MAURICIO AGUSTIN                          10503
A0101406750852799786001DBU MRIGUERA PRO                                        20500
A0601400230000000045230VICENCIO, M DBU HCON BUILDERS &                          0502
B1301400920002901010002**********                                               2002
