B0101400440161007221001ILA EXPRESS HAULER                                       1602
A0101400440161039572092JOSEFINA R. JONES                                        0501
B010141247000000731789981 COFFEE INC.                                           1601
B0101412470000007317902LUNARGLOW, INC.                                          1603
A0101408370000002264080CHAVEZ, CHRISTINE LAOANG                                 0501
A0101400860011483037001CASTRO, ROWENA                                           0502
A0101401250000002131806JESSE A. PERICO II                                       0501
A0101400150000008044142GELANO, ANGELO RECTO                                     0501
B0101400600071516450001********                                                 1601
B0601400100000000032760RDF FEED, LIVESTOCK & FOODS, INC.                        1610
B0601400100081335078001RUSH, MIRIAM OSTONAL                                     1605
B0601400360083037368002CLARK INVESTORS AND LOCATORS ASSOCIATION                11601
B0601400360083037368002(CILA)                                                  21600
A0101400730111520766015MARISA C RAMOS                                           0501
A0101400730111561049002CUEVAS, EMMANUEL GUINTO OR                              10501
A0101400730111561049002CUEVAS, NADINE                                          20500
B0101412920160065373001ACCELERATED METAL TECHNOLOGY & CONSTRUC                 11601
B0101412920160065373001TION, INC.                                              21600
A0101400440000002034840MAGBAG JR., JESUS ROY TRINIDAD                           0501
B0101400440161065374001COFREROS CONSTRUCTION MANAGEMENT & TRUCK                11601
B0101400440161065374001ING SERVICES INC                                        21600
A0101400440161525001103OFELIA B. OLERMO                                         0501
A0101400440161525001139JEMARIE S. SALUDAR                                       0501
A0101401090000002358687COCUACO, LOURDES DY OR                                  10504
A0101401090000002358687COCUACO, PHOEBE                                         20500
A0101401090171035426001BIG MARTHA ENTERPRISES                                   0510
A0101401090171200998001LUCAS OR NADINEE ARCEO                                  10502
A0101401090171200998001OR ABIGAIL ARCEO                                        20500
A0101401090171341240002RAUL M. SUNICO                                           0502
A0301400530000008156212NASOLE, LOIDA CABRERA OR NASOLE                         10502
A0301400530000008156212, RANEL COSTAN                                          20500
B0301400660000003406011*****                                                    1601
A0101410720653478374025SYLVIA AGBUYA                                            0501
A0101412500000009526781AGPALO, JOSEPH PORCIONCULA                               0501
A3101400160000001792003MARLON G GARCIA                                          0501
B3101400160221037479001TABLERIA LA CONFIANZA CO., INC.                          1601
B3101400160221224760001R. LAPID'S CHICHARON                                     1601
A3101400450223056521002SAMIANO DENTAL CORP DBU THE                             10501
A3101400450223056521002NAME AND STYLE OF SMILE                                 20500
A3001400130000005708523MANGAO, NECITAS BATALUNA                                 0502
A3001400130000008264762RICHELLE SUMIPO DRESSED CHCKEN                           0501
A3001400130230478374237LANQUINO, JOCELYN GIJAN                                  0501
A1001400190231478374164SARAUS, BAMBET SOGOC                                     0501
A1001400190231520766049JOCELYN S. LLUBIT                                        0501
A1301400470252495255001IMELDA IRENE V. ULIP OR                                 10501
A1301400470252495255001JUANITO I. ULIP                                         20500
A0101401670000003181677ANG, BENITA TAN                                          0502
A0101401670271186360001ROBERT OR CAESAR SYLIANTENG OR                          10501
A0101401670271186360001TANG,CLARITA OR LIM,GLORI                               20500
A0101401670271188831002REGINALDO C. LIM                                         0501
A0101401670271189252002LOURDES LIM LEE OR CARMEN C.                            10501
A0101401670271189252002LIM OR ROSARIO C. LIM                                   20500
A0101406620273214161001RUTH FLORES OR RICARDO FLORES                           10502
A0101406620273214161001OR RACHEL RUTH FLORES                                   20500
A0101412470278093268001NG, CRISTINA TAN OR                                     10502
A0101412470278093268001NG, MENG TAM HOI                                        20500
B0101400570000002104147AB1 MEGA BUILDERS INC.                                   1601
A0801400160000006893112BATA, MARICEL FERNANDEZ                                  0501
B0801400160000001289829PANAY MEDICAL VENTURES, INC.  PMVI                       1605
A0801400160311265752001DIVINAGRACIA, LLANE GRACE                                0501
A2001400290315644867001SY, BENSON GO                                           10502
A2001400290315644867001SY, MARGIE TERES                                        20500
A0101405650000005284373DE LEON, ALEXANDRA ANDOLONG                              0503
B0101405650322016488003CALOOCAN BEARING AND PARTS CORP.                         1610
B0101405650000004410028MELANGELL TRUCKING SERVICES CORP.                        1602
A0101405650000000525717TAMBUNTING, JOY MYRA SALVADOR                            0505
B0101402510341060430001STANDWELL CORPORATION                                    1602
A0101409050352600066001FAYE CARLIE CRUZ OR                                     10501
A0101409050352600066001BENSON RYAN CRUZ                                        20500
B0201401020000000005078COMMONWEALTH INSURANCE COMPANY                           1602
B0101402930381022554001BANCO DE ORO UNIVERSAL BANK                              1602
A0101408370382363867001ANNA LEAH P. SANGA                                       0501
A0101408370382550614003BETITA, JUDITH SEVILLA                                   0501
A0101408370000005220017LUISA LOURDES BENGZON                                    0501
B0101405490392494716001MASTERFLOW INCORPORATED                                  1605
A0101408400000007264577RAFAEL, MARK JOSEPH REYES                                0502
B0101408400000006813625ANG, DAVIE UY                                            1602
A0101408950000000776592GENOVIA, MA. VICTORIA OR DUASO,                         10501
A0101408950000000776592 MA CECILIA OR MANOLITO                                 20500
A0101412210000005302885RAMOS, FATIMA CAMELA REYES                               0501
A2401400180000002284266DONGOSA, JANETTE GUEVARRA                                0503
A0101403030441241051001**********                                               0501
B0101403320471022389001PRIME PIZZA INCORPORATED                                 1603
B0101403320471065376001CHEESECARTEL FOOD CORPORATION                            1601
A0101403320471207023001CESAR MADRIAGA OR                                       10503
A0101403320471207023001SHIRLEY MADRIAGA                                        20500
A3801400170000002302852NICA RAVEN A CHUA                                        0502
A3801400170000005288002JUMANGIT III, AMBROSIO CLAUD                             0501
A1901400160491244286001CARLITO GO OR FELIE GO OR                               10505
A1901400160491244286001CARLEEN OR CHERY                                        20500
B1401400110492013980002IMPERIAL APPLIANCE PLAZA                                 1601
A1401400110492029549002TRIPTORS DIAGNOSTIC CENTRE                               0502
B1401400110492046339002******                                                   1620
A0101407430503181551001DICKSON R. ESCOLAR                                      10501
A0101407430503181551001OR MARY ANN R. ESCOLAR                                  20500
B0101403580511017534001SAN LORENZO VILLAGE ASSOCIATION                          1605
A0101403580511152926001MARIO T. MANANGHAYA OR                                  10503
A0101403580511152926001REMEDIOS C. MANANGHAYA                                  20500
A0101403580511156598004ALICIA C. DELOS ANGELES                                  0502
A0101408110000000202804GARCIA, GRETCHEN ARAGON                                  0501
B0101408110515027863001INTERNATIONAL SPECIALTY CONCEPTS, INC.                   1603
B0101411400000006560869AL BATRA COFFEE SHOP & RESTAURANT I                      1610
B0101411400000006560870AL BATRA RECRUITMENT AGENCY, INC.                        1610
B0101411400000006560938JORDAN'S PREMIER BEAUTY SECRETS INC                      1610
A0101411790518055815117ROXAS, ARMI AQUINO                                       0501
A0101403450000001637823********                                                 0502
B0101403450000002975735**********                                               1602
A0101403610000002347140TALOSIG, ANN MARGARE DBU ZAFIRA                         10501
A0101403610000002347140SPA                                                     20500
A0101404130601339889002HODREAL JR., JOSEPH M. OR                               10510
A0101404130601339889002HODREAL, MUTYA G.                                       20500
A0101404130601451810001SALVACION C. MAGLANTAY                                   0501
B0101407720602037259001EMERGENCY MEDICINE SCIENTIFIC RESEARCH                  11602
B0101407720602037259001FUND, INC                                               21600
A0101413570000006596430DOMINGO, MARIA THERESA M.                                0502
A0101413990000004511180CAPILOS, JELSON E. OR                                   10501
A0101413990000004511180CAPILOS, HYACINTH B.                                    20500
B0101413990000006498117KASAGANA-KA DEVELOPMENT CENTER, INC.                     1606
A0101406590000000568747ENDRIGA SR., VICTOR BERMEJO                              0501
A0101406590662470961001VALMOCINA, ESTRELLA C. OR                               10510
A0101406590662470961001GUTIERREZ, MARY ANNE                                    20500
A0101410300000004361580DELAS ALAS, MARTINA EILEEN                              10510
A0101410300000004361580HERNANDEZ                                               20500
A0101410300663792087001YBANEZ, ROSALIE VILLANUEVA OR                           10501
A0101410300663792087001NELSON JR., JOHN                                        20500
B1701400230000002762581JOHN HENRY CAR CARE CENTER                               1602
B2801400230000005253743ROYAL88 VENTURES CORPORATION                             1605
A4101400260812632500001NUNEZA, MA. DELIA BARREN                                 0503
A4101400390813278149001MA. GLENDA O. ANGELES                                    0501
A0101404840851481664016AMIHAN G. LIQUIGAN                                       0501
A0101406750852742816001BERZAMINA, EMMAN CIANO                                   0501
A0601400230000002310149LAMPA, JULIE PANGILINAN                                  0502
B0601400230891021614001QUIOC (D) QUIOC & ASSOCIATE                              1601
