A0201401020000000056200TRIX SIGNADS AND SERVICES                                0505
A0101404000000000136456DABLE, ROXANNE VILLARIN                                  0501
A0101410140000000499065MORDIDO, LYN ROBELLES                                    0502
A4101400390000000500461TANEGA, NENET DAGDAG                                     0501
A1001400350000000922190RIVERA, JACKIE LOU VILLAROYA                             0502
A1001400350000000922292OH, EDWARD YU                                            0501
A1301400340000000980201ROMASANTA, ABEGAIL LLORENTE                              0502
A0101408240000001038584VBC CAPITAL MARKETS CONSULTANCY                          0502
A1001400190000001057636VIRTUDAZO, JENEFER S.                                    0501
A0101405940000001534372NAVAREZ, JOANA LEA ALINSUNURIN                           0501
A2001400290000001557713MORENO, HANANEEL ASIEL PADRELAN                          0501
A0101406620000001686780PANGILINAN, GENALYN RUBY POLIDA                          0501
A0101404260000001725435CALANNO, J DBU JDCALANNO VENTUR                          0503
A0101400730000001822300PURACAN, GIEHRJEM PALANG                                 0502
A0101400440000002034782CHARITO IBANEZ                                           0502
A3101400450000002092968MUNOZ, JOCELYN LIMUACO                                   0503
A3101400450000002092968MUNOZ, JOCELYN LIMUACO                                   0501
A1001400350000002367273CHAN JR., BENJAMIN PO                                    0504
A3101400450000003072460CUELLO IV, BERNABE JUNE PANDANA                          0502
A0201400890000003163711ESPINA, JOSE AARON ROSKA                                 0501
A0101400150061229814002LEONCIO C. LIM                                           0501
A0101400150061231678001GALANG, SHIRLEY DELA CRUZ                                0501
A0101400150061334116001MICHAEL A.P. ADAMS                                       0505
A0101400150061532387001NATIVIDAD, ANABELE REDONDO                               0501
A0101400600071478374004JULIET E. SY                                             0506
A0101400730111203514059REYNALDO N. SALAMANCA JR.                                0501
A0101401090171277352001CUEVAS, GEORGE C.                                        0501
A1001400190231520766118AUSTRIA, MARY FILIPINA PINGGOY                           0501
A1001400350233503410003APARICI, ARMANDO AKIAT                                   0502
A0101401670271186267001ELOISA L. CAMPOS                                         0503
A0101406620273766429001TING, DIANE DOMINIQUE CO                                 0501
A6601400120314071890001MARTIRES, MYLA TURLA                                     0502
A0101402350321526808001LUCITA R. TARRAY                                         0502
A0101402350321698308001JERINE S. MALASIG                                        0501
A0101402060351217440018MARY EVELYN C. CHEN                                      0501
A0101402640361170266001ROLANDO BUHAT CABRAL                                     0502
A0101402640361332373003**********                                               0501
A0201400920375504647001**********                                               0502
A0201400920375525898003DUTERTE, RANDULPH LEYRITANA                              0501
A0101408400394481765001BATALLA, ILUMINADA PAULINO                               0501
A0101409210398618789001ALEJANDRINO F. CIRERA                                    0502
A1201400150421463344001MACABANTOG, NAMRODING TONGAO                             0501
A0101403030441425140001**********                                               0501
A1401400110492410299001**************                                           0501
A1401400110492543613001AVELLANO, BEVERLY MARTINEZ                               0501
A1401400110492710433001MACABUAG, PIER PAOLO DE LOS ANG                          0501
A0101403450521238096001**********                                               0501
A0101403450521238596001**********                                               0503
A0101404000551735313001DE LUNA, PATRICK JOHN LUPISAN                            0501
A0101404000551779954001DE MESA, MARC ARICAYA                                    0502
A0101404130601451302002IBUNA, ROMMEL AMAGNA                                     0501
A0101407720602298709001JOSEPH B. BARRIL                                         0504
A0101404260611151278002OFELIA F. RAMOS                                          0501
A0101410720653035743001A.C.P. CONSTRUCTION                                      0504
A0101410720653378318001NAJOS, ELVIRA ABAO                                       0501
A0101410720653452116001VIRGILIO R. BACQUEL JR.                                  0501
A0101407560686321199001ROSARIO S. ROA                                           0501
A0101407560686478374067SHERLITA T. FERNANDEZ                                    0501
A4101400420814422280001DELGADO, ELVIRA CARIENENA                                0502
A4101400420814478374193CONDE, EMMA D.                                           0501
A4101400420814520766110DELA CRUZ, ARMINDA E.                                    0502
A0101406750852478374004IMELDA TAGUNA                                            0501
A0101406750852656672001FELIX, ROMEL GANZON                                      0501
A0101406750852700693002MATIBAG, MA. J. ANGELINA GARCIA                          0501
A0101401090000000210373MARC ROBERT OR MARIA VICTORINA                          10505
A0101408660000000373084YANG, MARIE GEM RACHELE R. OR                           10501
A0101412630000000801574SALVADOR T. FLORESCA JR. OR                             10501
A3101400450223558112001CRISTINA MADERAZO OR MARIANNE                           10502
A1301400470252428897001DR. VICTOR OLIVER AMORIN OR                             10505
A1301400470252538611001LIWAYWAY LUCITA M. OGANIZA OR                           10501
A6601400120314702171001ANDAYA, REYMUNDO M.                                     10501
A0101402350321597544001ROBERTO T. ARSITIO OR                                   10501
A0101408370382207662001DR. CELSO F. BATE OR                                    10501
A1901400160491244484001IRENE H BERBA OR                                        10505
A0101405940512151914003WASSMER, REBECCA SAMONTE OR                             10501
A1301400340683523858001PURIFICACION, DYAN CRISEL D. OR                         10502
A0101406750852799786001RIGUERA, JOSE MAURICIO AGUSTIN                          10503
A0101401090000000210373LADISLA                                                 20500
A0101408660000000373084YANG, QUINCY LE KIM                                     20500
A0101412630000000801574ADELAIDA O. FLOR                                        20500
A3101400450223558112001DIMAYUGA OR ENIA                                        20500
A1301400470252428897001DRA. EDELIZA AMORIN                                     20500
A1301400470252538611001LEOPOLDO F. OGANIZA                                     20500
A6601400120314702171001OR ANDAYA, LETICIA A.                                   20500
A0101402350321597544001LUVIZMINDA L. ARSITIO                                   20500
A0101408370382207662001MRS. SOPHIA S. BATE                                     20500
A1901400160491244484001CARLOS R BERBA                                          20500
A0101405940512151914003SAMONTE, TERESITA                                       20500
A1301400340683523858001PURIFICACION, MA                                        20500
A0101406750852799786001DBU MRIGUERA PROPERTY DEV                               20500
B0101408820000000027370********                                                 1603
B0101410720000000030042KAGAYAKI AGRO-COMM'L CORP                                1602
B0601400100000000032760RDF FEED, LIVESTOCK & FOODS, INC.                        1610
B0101408530000000035903INTERNATIONAL SPECIALTY FASHIONS, I                      1603
B1001400480000000133268**********                                               1610
B0101407690000000243930M & HC EQUIPMENT PHILIPPINES INC.                        1601
B0101400440000000337751COMMANDER RANGE & SPORTS CLUB, INC.                      1605
B0101400440000000337791TOPCOM SECURITY AGENCY INC.                              1605
B0101401700000000890400HEALTHWAYS TRADING                                       1605
B0101408110000001199208INTERNATIONAL SPECIALTY APPAREL INC                      1603
B0101407430000001213125GLOBALAIR LYNX INC.                                      1603
B0101401960121238876001**********                                               1601
B0101400440161044506001STAR COMMANDER SECURITY AGENCY, INC                      1605
B0101407140213019539001**********                                               1602
B3101400160221017871001ALPHA INSURANCE & SURETY CO., INC.                       1603
B3101400160221017959001SECURITY BANK SAVINGS                                    1601
B0101401670271029786001AGUIRRE & AGUIRRE LAW FIRM                               1602
B0101408820333042383002********                                                 1605
B0101408820333042383003********                                                 1605
B0201400920375731987001*******                                                  1602
B0101409180397044045001CACHO CONSTRUCTIONS, INC.                                1602
B1401400110492013980002IMPERIAL APPLIANCE PLAZA                                 1601
B0101403450521011774002**********                                               1602
B0101403450521035366001***********                                              1603
B0101410720653615648001ASE I.T. HUBLINX INC.                                    1610
B4101400420814016269002DAMAYAN SA ANABU II B CREDIT COOPERATIVE                 1603
B0101404840851009288001CHRIST BAPTIST CHURCH                                    1602
B0101401250000000057189GECOSA, M DBU PRAETORIUM                                11601
B0101400440000000337762SUPREME COMMANDER INVESTIGATION AND                     11605
B0101400440000000337780KNIGHT COMMANDER ARMORED & SECURITY                     11605
B0101400440000000337808COMMANDER AUTOMATION & ELECTRONIC                       11605
B0101400440000000337882PHILIPPINE SECURITY & SAFETY                            11605
B0101402350321006923002LOPEZ VILLAGE HOMEOWNERS ASSOCIATION                    11601
B0101401250000000057189ENTERPRISE                                              21600
B0101400440000000337762SECURITY AGENCY                                         21600
B0101400440000000337780SERVICES INC                                            21600
B0101400440000000337808SECURITY SYS INC                                        21600
B0101400440000000337882PROFESSIONAL                                            21600
B0101402350321006923002INC. PHASE I-B                                          21600
