A0101410720000001602302******                                                   0501
A0101410720000000967900EFFINGER, JON ERIC                                       0502
A1401400110492221994001IGNACIO, JEROMIE LOPEZ                                   0502
B0101410720653042569001TUGSON CONSTRUCTION & DEV. CORP.                         1605
A6601400120314770822001SY JR., LARRY OR SY, WILLIAM                             0502
A0101400150000013484312MAGADIA, DANILO FLORES                                   0501
A0101400150000011138326KING, HENRY RIVERA DBU                                  10502
A0101400150000011138326HKCOM REALTY                                            20500
B0101400150061010975001PHILMETAL PRODUCTS INC.                                  1603
B0101400150061011079001QUASHA ANCHETA PENA & NOLASCO                           11610
B0101400150061011079001LAW OFFICE                                              21600
B0101400150061228665001MALAYAN TOWAGE AND SALVAGE CORPORATION                   1610
A0101400150061430140001MIMI C. QUA                                              0501
A0101400600071034263001*********                                                0505
A0101400600071719765001********                                                 0501
A0101405810000002314603WANG, BAOLIANG                                           0505
A0601400100081255514001RIVERA, EDGARDO DE GUZMAN                                0501
A0101414090000001669645********************                                     0505
A0101410560000001290977KATHERINE T. SY                                          0501
A7201400170000008740023ARANDING, LIZA MEDADO                                    0502
B0101412920000014358762ERIN MILES MANPOWER AND GENERAL SERVICES                11601
B0101412920000014358762INC.                                                    21600
A0101400440000012169363YOUNG, GRACE BALGOS                                      0501
B0101400440161015324003RADIANCE OF CHRIST MINISTRIES INTER                      1601
A0101400440161478374018MA. DELIA P. FERMANTE                                    0501
A0101400440161520766098JUDITH D. BRISO                                          0501
A0101400440161525001094MARIFE M. ENDE                                           0502
A0101400440161525001139JEMARIE S. SALUDAR                                       0501
A0101407270000013188273MAGAUAY, NELIEZA SANTOS                                  0501
B0101407270162023333001MEDIA TOUCHSTONE VENTURES, INC.                          1604
B0101407270162038058001MJM GLOBALKITS CORPORATION                               1620
B0101401090171016630001PHIL. ASSOCIATION FOR GRADUATE EDUCATION                 1602
B0101401090171034513001HAWK SECURITY SERVICE INC.                               1602
A0101401090171197427002LEVINA D. ZUNIGA                                         0505
A0101401090171197827001EDWIN S. MARTIN                                          0501
A0101401090171201345002MA. CECILIA OR RAMIL TIO CUISON                          0501
A0101401090171481442001STA. ANA, ALVIN MACARAIG                                 0501
A0301400530000012273222TORRES, ELMER VILLASIS                                   0502
A0301400530000014490532BONGHANOY, ANCILLA SANCHEZ DBU                          10501
A0301400530000014490532CASSALLEYAH BEAUTY HUB                                  20500
B0301400530193044706199ROYAL CROWNE BEVERAGES                                   1603
A0301400790000003969611BERSABAL, AGNES TUBANG OR                               10502
A0301400790000003969611BERSABAL, MARVIN                                        20500
A0301400950000002115286************                                             0501
B0301400950000011415175BOOMIN' & BLOOMIN' BRAND INC.                            1602
B0101401380201034247001HOBBIES OF ASIA INC.                                     1604
A0101401380201630387001LAI, ZHIYONG                                             0502
A0101413020209057107001SANTOS, JESSALY JAPSON DBU RJ S                         10505
A0101413020209057107001AN PRINTING SERV                                        20500
B0101410720000000008711DERMCARE PROFESSIONAL SKIN, HAIR &                       1605
A0101410720000000029763MANUEL, RONALDO CRISTOBAL OR                            10501
A0101410720000000029763MANUEL, IRENE ALVAREZ                                   20500
A0101410720653530140001BERNAL, BARBARA JAY SADIWA                               0501
A0101410720000012557181PROLOGO, JORDAN CAMINO                                   0502
B0101412500000000041670MOLDEX REALTY INC.                                       1605
A0101412500214062951001NAVARRO, RUBY PACIA DBU GLC                             10503
A0101412500214062951001TRUCKS & EQUIPME                                        20500
B0101412500000003408131MOLDEX LAND, INCORPORATED                                1601
A3101400160000014057126FERNANDEZ, JAMES CEDRICK M.                              0501
A3101400160221478374002MA. LOURDES T. ELIZON                                    0505
A3101400450000014230632VILLANUEVA, HEGGLEN MAGHIRANG                            0501
A3101400450223466114002NATIVIDAD, GINA DUNGO                                    0503
A3101400450223550092001DEL MUNDO, ERNALYN ANGELES                               0502
A3101400450223689767001CHAVEZ, DOLORES PAR                                      0501
A3101400870000001712163TUAZON, ALLAN SANTOS OR TUAZON                          10502
A3101400870000001712163EDNA BLANCA ALDI                                        20500
A3101400870000014475011QUIAMBAO, DENNIS VIRAY                                   0501
A3101400870225511016002GONZALES, FE REMEDIOS FIGUERAS                           0501
A3001400130000001271312SHAPE & WELL NUTRITIONAL                                10503
A3001400130000001271312PRODUCTS                                                20500
A3001400130230478374007ABADILLA, JOCELYN MARIE RAVELO                           0502
B3001400130000000067218LIGHT ME UP CORPORATION                                  1601
B1001400190231040271001ROADNET 2000 ENTERPRISES                                 1602
A1001400190231520766024ALCOS, LIESIL SARIGUMBA                                  0501
B1001400480000011810136SATOR, JOSEPH PACQUIAO DBU WELL                         11602
B1001400480000011810136BAZAAR CONVENIEN                                        21600
B1001400480000006296240PISTOLEROS GRILL & BAR CORP.                             1603
B1001400480000008501791PISTOLEROS GRILL & BAR CORP.                             1602
A1301400470000011839662**********                                               0502
A1301400470252534802001FRANCISCO R. SALAZAR III                                 0502
A1301400760000005989913YOUSEF, HALA MANUEL                                      0501
A1901400290000011244652MACASAET, JOYCE ANN DE CASTRO                            0501
A0101401670271333076001BENJAMIN C. VICENTE                                      0501
B0101406620273026509001DG3 IDOCS, INC.                                          1602
B0101406620000000015221JOURNEYS AND DISCOVERIES, INC.                           1601
A0101406620000009018673LA NOUVELLE IMAGE DERMATOLOGY                           10502
A0101406620000009018673& PLASTIC SURGERY                                       20500
A0101406620000009018673CORONA, MA. CORAZON REGINA C.                            0502
A0101406620000012950700NGAN, BRIAN JOHNSON FUNG                                 0501
A0101412470000010561872*******                                                  0501
B0101412470000000949544BEYOND METRO POINTE GREENHILLS INC.                      1603
A0101400570281071603001LEGARDA, ROBERTO MORTERA                                 0502
A0101400570281191056001OFELIA C. MARIANO                                        0501
A0101400570000011504053JINKY C. GAMIT                                           0502
A0101400570281388539042RODELIO L. BATHAN                                        0502
A0101411240000005136469SANTIAGO, MA. CORAZON DIZON DBU                         10501
A0101411240000005136469CORS ENTERPRISES                                        20500
A2601400270000000561540KRISTEL MAY D. DY                                        0501
B0801400160000001289932RD PAWNSHOP, INC. - ILOILO NORTH                         1603
B0801400160311100161001PRUDENTIAL CUSTOMS BROKERAGE SERVICES,                  11603
B0801400160311100161001INC.                                                    21600
A0801400160311478374008RODELYN LEBUNA                                           0501
A6601400120314042312003NORSAM BUILDERS & CONSTRUCTION                          10503
A6601400120314042312003SUPPLY                                                  20500
A6601400120314668441002MASLOC, SHERRY AMOR GALONO                               0501
A2001400290000009721882SIERRA, SANTIAGO VILLEGAS                                0503
B3401400280318044735001A & T SANTOS INCORPORATED                                1605
B0101402350321045418001******                                                   1603
B0101405650000006273178GIGALAND PROPERTIES AND DEVELOPMENT                      1601
A0101405650322570781001OANIA, CARLITO V. OR                                    10501
A0101405650322570781001OANIA, SHARON T.                                        20500
B0101402510341026660001SAMSON COLLEGE OF SCIENCE & TECHNOLOGY                   1601
A0101409050000000999631CALLUENG III, EDUARDO DISCAYA                            0501
A0101409050000012409580MORENO, JONA NINA VILLANUEVA                             0501
B0101409050352212676001LIAMZON, MA. ANTONIA/FRANCISCO/FRANCIS                  11601
B0101409050352212676001KEVIN/CATHERINE                                         21600
A0201400760374559596001MISSION, SONNY QUINING                                   0501
A0201400920000004087365MATA, JAYMAR ONG                                         0502
A0201400920000002804504BARENG, NATHALYN C.                                      0503
A0201401020000000470193LOUIE PENA'S TRAVEL TOURS & EVE                          0503
A0101402930000013537470PARRAS, CHRISTINE MAGO OR                               10502
A0101402930000013537470AYAB, EDELBERT                                          20500
A0101408370382042666001TMC DEPARTMENT OF ORTHOPEDICS                            0501
A0101408370000000336149SAWIT, SIMONETTE KRISTINE                               10501
A0101408370000000336149TIANGCO                                                 20500
A0101411660000014045682LACUSTALES, SHEILA MAY                                   0501
A0101411660000002309531AGUIRRE, JERICHO ICATAR                                  0502
B0101402770391030634001CITY GREEN - AS STYLE                                    1605
A0101405490000006300050PALLON, EMILY CASTANEDA                                  0501
A0101405490392032715001ALDEA, NESTOR DBU                                       10502
A0101405490392032715001ALDEA ENTERPRISES                                       20500
A0101405490392034138001MCMAR & MARY ELECTRICAL                                 10502
A0101405490392034138001& CONSTRUCTION SUPPLY                                   20500
A0101408950000003171279POBLETE, ROSEMARIE JEAN JAUCIAN                          0502
A0101408950000000776683DY-AGRA, GUINEVERE NGO                                   0504
A1201400150421301485002GO, ROLANDO DISTOR                                       0503
A1201400150421464835001PADLAN, MICHAEL G. OR PADLAN,                           10502
A1201400150421464835001CHARINA L.                                              20500
A1201400150421478374035DALAN, LINDA G.                                          0505
A5101400100000010371289BARDON, RUEL PALAHANG                                    0502
A5101400100000010371370ABA, LEILANI JOY DULCE                                   0501
A0101403030441239072002**********                                               0502
A0101412890000004435563REYNOSO, ROSEMARIE GOCO OR                              10502
A0101412890000004435563GLORI, DOMINIQUE                                        20500
A0101412890000012154573ZAPATA, ISIDORA OCAMPO                                   0501
B0501400170481015879001TDG VEHICLE SALES DEPARTMENT                             1615
B0501400170481015881001TOYOTA DAGUPAN INC.-2                                    1620
B0501400170481018109002CSI WAREHOUSE CLUB INC.                                  1602
A1401400110492321242001***************                                          0505
A0101407430503225389002BRIAN A. PINEDA OR                                      10501
A0101407430503225389002MA. ELENA G. ARA                                        20500
A0101403580000009899503BERZABETH P. ESPINO                                      0501
A0101403580000005328661PALER IV, SAMUEL EDMUND DE LEON                          0502
B0101403580000010847482ARTI-ARTIHAN, INC.                                       1601
A0101405940000005068231AMELIA S. GREFALDA                                       0501
A0101408530000014487557DE GUZMAN, JOHN KENNETH TOLENTI                          0501
A0101408530000014487808ESTIOCO, REGIENA DESCALLER                               0501
A0101408530000014487893FORTADES, JASMIN TEJERERO                                0501
A0101408530000014484358DENACO, ROMIN JOSEPH YALUNG                              0501
A0101408530000014484541ESCABAL, JEZEBEL BLANCO                                  0501
A0101408530000014484643FLORENTINO, JANICE MAE ABAD                              0501
A0101408530000014484832SERRANO, MARY JEAN CARREON                               0501
A0101408530000014484912SIMPAUCO, CZARINA ROQUE                                  0501
A0101408530000009788852DEANNA D. GINER                                          0502
A0101412050000005330169SADULANG, FLORLYN GRACE RUBI                             0502
B0101403450521011924002PANTRONICS INTERNATIONAL CORP.                           1604
B0101403450521011938001FAS DEVELOPMENT CORPORATION                              1603
A0101403450521238628001**********                                               0501
A0101403610000011007284SIETEREALES, ALVIN MARISTANEZ                            0502
A2201400250000007122749RICARDO Y. DIMARUCOT DBU R.Y.                           10505
A2201400250000007122749DIMARUCOT ENTERPRISES                                   20500
A2201400250561478374019ELOISA F. VIGILIA                                       10501
A2201400250561478374019MEMBERS OF NATASHA                                      20500
B0101404130601030838001ELEV 8 MEDIA, INC.                                       1610
B0101404130601542506001ELEV8 TRADING AND MARKETING CORPORATION                  1605
B0101404260000000550332S-GERA PAINTING INC.                                     1605
A0101404260000006374456CONISE, MA. RI DBU SHERMS                               10501
A0101404260000006374456TRAVEL AND TOURS                                        20500
A0101404260000013860232DEMIAR, ROSIE                                            0502
A0101409920000006336785NAVARRO, NORMAN CALAPIS                                  0505
B0101407690652029782001NATRACARE, INC.                                          1603
A0101407690652318224001CABRERA, RODELIO EVANGELISTA                             0501
B0101411530000004882431**********                                               1601
B0101411530000004882442**********                                               1601
B0101411530000004882453**********                                               1601
B0101411530000004882464**********                                               1601
B0101411530000004882475**********                                               1601
B0101411530000003448253**********                                               1601
B0101411530000003448264**********                                               1601
B0101411530000003448275**********                                               1601
B0101411530000003448286**********                                               1601
B0101411530000003448297**********                                               1601
B01014134400000090067248MANOR 8BINGO8 CORP.                                     1601
A0101413570000010111772MOLENO, ELVIRA GUZMAN                                    0503
B0101413570000014492750CASTRO, SENERIZA DIZON DBU S CASTRO                     11602
B0101413570000014492750ENTERPRISE                                              21600
A0101406590000003007212STAMBOEL, IRSYAD KAUTZAR                                 0501
A0101406590000003007030BATOCABE, MARY GRACE TABLIZO                             0501
B0101406590000014442383CHECK THIS OUT ADVERTISING COMPANY                       1601
B0101406590662024757001GUPIT INDUSTRIYA INC.                                    1610
A1301400210000005040760MARCELINO, RUBY DEOGRACIAS                               0501
A1301400210682478374053RUBIROSA C CABUGWASON                                    0502
A1301400340683478374058RUBIO, YUME ADANTE                                       0501
A1301400500000000212995LUDETTE FATIMA T. CASTRO                                 0504
A1301400500684478374003ELMA I. DE LEON                                          0502
A0101408240711379848001GINA MARIE R. MEDINA                                     0501
A0101408240000013983178DE LOS REYES, MARTIN MANZANO OR                         10502
A0101408240000013983178DE LOS REYES, MARIE C.                                  20500
A2801400230713059189001REQUESTO, R DBU GROUNDZERO SWAP                          0502
A4101400260000011417553KIM, KYUNG YEE                                           0502
A4101400260000006043090SAN PEDRO, MA. ROSITA F.                                 0501
A4101400390000007459198BERNARDO P. GUINOO OR                                   10503
A4101400390000007459198ANA B. GUINOO                                           20500
B4101400390000003346187PAGASA PHILIPPINES LENDING COMPANY                       1603
B4101400420814029855001FEDERATION OF CHRISTIAN SCHOOLS - C                      1601
A4101400420814478374122AGUILO, RODENA T.                                        0501
A0101412340000003343319ANN MICHELLE T. FRONDOZO                                 0502
A0101412340000012464772Jeannette Panghulan                                      0501
B0101412340000000031012MALATE CONSTRUCTION AND DEVELOPMENT                     11610
B0101412340000000031012CORPORATION                                             21600
A0101404840000001312554MARIA FE V. MALIG-ON                                     0501
B0101404840000006365142TRIMOTORS TECHNOLOGY CORP.                               1602
A0101406750000003393297MIGUEL BARDOS JR OR CHRISTINA                           10501
A0101406750000003393297FAYE BARDOS                                             20500
A0101406750000005608453ELMER DE LUNA LOREDO                                     0503
A0101406750852680577001RHOMMEL FERRER RODRIGUEZ                                 0501
A0601400230000001687090GUTIERREZ, JOSEPH MONTES                                10502
A0601400230000001687090OR GUTIERREZ, MA                                        20500
A0601400230000006243078CATOY, MARIETA CHAVEZ                                   10501
A0601400230000006243078OR QUIROZ, ROSEL ILAGAN                                 20500
