A0101410720000007843538ALEJANDRO, ARNALDO ROBLES                                0501
A0101405650000004822286DE LEON, FRANCESS VINEL ZAMORA                          10501
A0101405650000004822286OR DE LEON, FRANK LLOYD C                               20500
A0101400150000008306967PILAR, EXEQUIEL RODRIGO ARREZA                           0502
A0101400150000012146206FRAGANTE, SOCORRO PROTACIO                               0501
B0101410850000013190922CLC QEA MARINES SERVICES INC.                            1602
B0101410850000013190933RDC REIELD MARINES SERVICES INC.                         1603
B1901400290261060606001F.J.H. HARDWARE & ELECTRICAL SUPPLIES                    1601
A0101400860011425868001**********                                               0502
B0101400860011488646001**********                                               1605
A0101400860011743703001**********                                               0510
B0101401250000000057247MP MAGDALENA PAWNSHOP & JEWELRY, INC.                    1610
A0101400150000003164036RONALD T. DE JESUS                                       0501
A0101400150061230908001MAPE, JOSELITO OR MAPE, ARLENE                           0502
A0101400150000012116953MAPE, JOSELITO ENRACA OR MAPE,                          10502
A0101400150000012116953ARLENE DYTOC                                            20500
A0101400150061326594001REYNALD C. UY OR                                        10501
A0101400150061326594001SHIRLEY G. UY                                           20500
A0101400150061564610064BUENAFLOR, MARIA GERALDINE ROSE                          0501
B0101400600071234351001**********                                               1603
A0101400600071719765001********                                                 0501
B0101405810072011448001C.P.P.C CONSUMER PACKAGING PRODUCT CORP.                 1603
A0101405810072234892001**********                                               0501
B0601400100000010683833ARNOLD, LOIDA LINTAG                                     1601
A0601400100000010683964EPRM TRADING                                             0501
A0601400100000011854114AURELIO,STEPHEN REYES,QUALILIFE                         10503
A0601400100000011854114MEDICAL & LYING-                                        20500
B0601400360083594999001ICE INTERNATIONAL TECHNOLOGIES INC.                      1602
B0101410850109045828001OLOVUS MULTIRESOURCES INC.                               1601
A0101410560000005836217PROCLEY C. CRISTOBAL                                     0502
A0101406040000014388668GOLIMLIM, MARIBEL SUICO                                  0501
A0101401960121238671001**********                                               0505
A0101413310000009641152DIZON, YOLANDA ALABANZA                                  0501
A0101401830141546547001REATAZA, NELIA MORABE                                    0503
A0101412920000008813309DIMAIWAT, ODESSA RESUENA                                 0501
A0101400440161039572046MELVIN D. VILLACO                                        0501
A0101400440000004889898MA. CARMELA ERNA                                         0501
A0101400440161520766113MARIFE MANZANO                                           0501
A0101400440161781194001MARICHU R. DE CASTRO                                     0501
B0101407270162031640002RVG SPARROW HOLDINGS INC.                                1602
A0101407270162430046001ROMANO JR., RAFAEL T.                                    0501
A0101401090000015881551ONA, JOHN PATRICK FRANCISCO                              0501
A0101401090000015883820AQUINO, ROMELIA BASSIG                                   0501
B0101401090171024135001PHYSIOLOGY RESEARCH FOUNDATION OF THE                   11601
B0101401090171024135001PHILS., INC.                                            21600
A0101401090171353569001ALETH THERESE L. DACANAY                                 0502
A0101401090171448025001ANDALES, MINERVA DE LEON OR                             10502
A0101401090171448025001ANDALES, ARNOLD                                         20500
A0301400530000011715223SISON, MARICRIS VILLAREAL                                0501
A0301400950000010701150DOMINGO, CATHERINE LIM                                   0501
B0101401380201042553001MUSTANG SECURITY AGENCY, INC.                            1605
B0101413020000001175393CABUHAT, MARIVIC M. AND RODRIGUEZ, MARIA                11601
B0101413020000001175393 ELISA C.                                               21600
B0101410720653035483001GERMALIN ENTERPRISES, INCORPORATED                       1602
A0101410720000001602302I. P. W. TRADING                                         0502
A0101410720653452116001VIRGILIO R. BACQUEL JR.                                  0502
A3101400160000014779470SARDIN, PRINCESS ABAJA                                   0501
A3101400870000001712174PASCUA, LUZVIMINDA BATARA                                0502
A1001400350233077997001JONATHAN ROLIDA OR ANITA ROLIDA                         10501
A1001400350233077997001OR FRANCISCO ROLIDA                                     20500
A1001400350233554328001DE MARCAIDA, MARGARET MARY                              10502
A1001400350233554328001MENDOZA OR DE MA                                        20500
A1001400480000005355831CARILLO, MERLONE DAMING                                  0501
A1001400480000014748822CARERAS, CARLO CIELO                                     0501
B0101401670271191081001EAGLECOR, INC.                                           1605
A0101411820000002328452GENISES C. SOLOMON                                       0505
B0101411820277821100608**********                                               2002
A0101400570281388539048JOSE LINO L. SARMIENTO                                   0501
A2901400130000005961140REYES, ERNIE CEZAR                                       0502
A0101402350321415696003MANGUBAT, PAOLO TOLENTINO                                0501
B0101405650322032686001TERRAZAS DE PUNTA FUEGO VILLAGE HOMEOWNE                11601
B0101405650322032686001RS ASSOCIATIONS                                         21600
A0101405650000004822231AZARCON JR., DBU                                        10501
A0101405650000004822231NOVAMIND BUILDER                                        20500
A0101405650322311534001CALUBAQUIB, RUBY ENRIQUEZ                                0501
A0101405650322490598001MARANON, FRANCES CLAUDINE E.                            10501
A0101405650322490598001MARANON, RAYMOND                                        20500
A0101402060351392275001YAP, KENNETH YU                                          0503
A0101409050000006319731RIVERA, FREDERICK ISIDRO                                 0501
A0201400760000013668863ROA, FREZIE GENE GELIG                                   0502
A0201400920375478374008OLELA, DONATILLA OMELGO                                  0501
A0101402930000014435913SANOL, JAYSON JAVELLANA                                  0501
B0101402930000003269447DETOXICARE PHILS INC                                     1602
A0101408370000006446073ZARSUELA, EDWIN STA CRUZ                                 0502
A0101408370382399866001EDWARD L. TAN OR                                        10504
A0101408370382399866001MA. MONICA CARDINEZ-TAN                                 20500
A0101402770391210939001RENATO S. LAMPANO                                        0501
A0101402770391217498018RICHARD GUILING                                          0501
A0101405490000004353031BARRAMEDA, ANITA VALIENTE                                0505
A0101405490392541343002CRISTOBAL, IMMANUEL OR LIBRADO                          10501
A0101405490392541343002OR CRISTINA                                             20500
A0101408400000005286320AMEROL, ROSLINA MAROHOMSALIC                             0504
A0101408950396294877002SINGSON, REBECCA BAUTISTA                                0502
A0101409180000003780443MORALES, JENNIFER                                        0504
A0101409210000010895540RONDARIO, CELESTE EDEN MORCO                             0502
A0101409210000007762710GAVILE, KATHERINE HIPOL                                  0502
A0101409210000011535378VELVEZ, MA. LOURDES CAMILLE TEA                          0501
A0101409210000014368506HERNANDEZ, ODESSA PERALTA                                0501
A0301400820000004745962NAKILA, ARMAGIDON M.                                    10502
A0301400820000004745962DBU ALDON PJ MARKETING                                  20500
A2401400180000014472169*******************                                      0502
A0901400220000006214546**********                                               0501
A5101400100000010371201JUMAWID, ARCELI MAURO OR                                10502
A5101400100000010371201JUMAWID, JOEL DU                                        20500
B0101412890000009624513UPLIFT CONSTRUCTION AND AUGMENTATION                    11602
B0101412890000009624513SERVICES INC.                                           21600
B0101403320000000522325L.B.T AND SONS CO., INC                                  1601
A0501400170000000018215VILLANUEVA, ENRIQUE MEJIA                                0502
A0501400170000009953973GO, CHARLIE QUE                                          0501
A1901400320000011971830RIVERA, MARIA TERESA SUAREZ                              0503
A1901400160000015880201DRA. MA. MELYNDA J. FRANI                                0501
A1901400160491069051002DRA. DIVINA GRACIA D. FRANCISCO                          0501
A1401400110000008266251ODNIMER, MARIFE DELIN                                    0501
A1401400110000013957258REYES, ISADORA GOB                                       0502
A1601400170000002334061AGRIPA, FRANCIS DOMINIC AMADOR                           0502
A1601400170000012410869MERIOLES, AILEEN COSTA                                   0502
A0101403580000015867897IRAL, ROWEN REMIS RAMOS                                  0501
A0101403580000013963716MONTESA, MA. TERESA BAYLON                               0501
B0101405940000000002739********                                                 1601
A0101405940512152920001***********                                              0501
A0101405940512368799002LASALA, LANI SALVADOR                                    0502
A0101408530000015878270DELA CRUZ, CATHERINE VILLANUEVA                          0501
A0101408530000015878350SIBAYAN, VINCENT LAYA                                    0501
A0101408530000015878401TEJERERO, PAUL JORDAN LUNOT                              0501
A0101408530000015868269DINOPOL, FRITZ ALVIN CHENTE                              0501
A0101408530000015878394ROSQUITES, GUEVARRA ESPINOSA                             0501
A0101408530000015878430TOLEDO, RONALD VERGEL PRIMAVERA                          0501
A0101408530000015878292MERCADO, PHILIPINO VIVENCIO REY                          0501
A0101408530000002980852LEE, SUSAN DURANA                                        0501
A0101408530000006599855**************                                           0503
A0101412050000014386979SALVADOR, MARIA CHRISTINE I. OR                         10501
A0101412050000014386979SALVADOR, EMERSON D.                                    20500
A0101403450521237287001*********                                                0501
A0101403450000011972322*************                                            0501
A0101403610000006643230GERNAN, CINDERELLA MAGTULIS                              0501
A2201400250000007122716GARCIA, MARY TANCHULING OR                              10501
A2201400250000007122716ADONIS DE VERA GARCIA                                   20500
A0101407720000001393084LAGUNDI, JANICE GARCIA                                   0501
A0101407720000005100285BANATAO, MARIA C. OR BANATAO,                           10502
A0101407720000005100285DIOSDADO P.                                             20500
A0101407720602162363001JOHNNY B. SINON, M.D. OR                                10505
A0101407720602162363001VIRGINIA J. SINON                                       20500
B0101404260000000156972PRIME POWER MANPOWER SERVICES                            1650
B0101404260000000156972PRIME POWER MANPOWER SERVICES                            1650
A0101404260000006374252MENDOZA, DAISY LAPIDEZ                                   0501
A0101409890649748239001**********                                               0508
A0101407690000015884692FABRE, CATHERINE GARCIA                                  0501
A0101407690000011457362ADVERTURE, INC.                                          0502
A0101407690652045019001AXIS ROOF SERVICES                                       0502
A0101413440000002844711URBI, KRISTINE MAE PUYO                                  0501
A0101413570000013901350KO, RICHARD TIU                                          0502
B1301400500000005963404PAGASA PHILIPPINES LENDING COMPANY INC.                  1605
A0101408240000003955293BILLANO, EDNA YAMBAO OR HERNAN                           0501
B0101408240711033174001THE MARVELS OF TRAVEL                                    1601
B0101408240711492799002CENTER FOR INFECTIOUS DISEASE & TRAVEL                  11601
B0101408240711492799002MEDICINE, INC.                                          21600
B4101400260000006043465VIANKA REALTY CORPORATION                                1601
A4101400420814520766131LACSON, MELIZA FRANI                                     0502
A4101400420000002345273LEONICIA S. HERRERA                                      0501
A4101400550000009643030MAYUGA, EFREN ARELLANO                                   0501
B4101400550815040996002MARICHE APARTELLE, INC                                   1601
A0101412340000003348714NELSON C. SANGALANG                                      0501
A0101404840000003410011MENDOZA, MARY ANN GRANADA                                0502
B0101404840000006365142TRIMOTORS TECHNOLOGY CORP.                               1603
B0101404840000006365295PI COOL GAGS, INC.                                       1601
A0101406750000014700922CAMPOSANO, JOAMA FRANCISCO                               0501
B0101413860000012289566LOGISTIKUS, INC.                                         1602
B0101413860000011297539NEGROS HOLDINGS AND MANAGEMENT CORP                      1602
A0601400230000007402224**********                                               0502
