B0101400150061032615001HKR EQUIPMENT CORPORATION                                1605
B0201401020377821100608**********                                               2003
A0601400100081023131001ADYR TRADING                                             0506
B2001400290315638201001HO, NELLA OR HO, EMMANUEL                                1603
A0101405490000004808646MAMUYAC, KRISTIAN PERALTA                                0501
A0101405490392170537002LORNA V. TUGADE                                          0501
B2401400180411014376002PENBANK, INC. (A PRIVATE DEVELOPMENT                    11603
B2401400180411014376002BANK)                                                   21600
A0101400860011389648001**********                                               0502
A0101400860011404358002**********                                               0503
B0101400860000001005321**********                                               1604
A0101400860011605108001**********                                               0505
A0101400150000000806906DE LEON, CAROLINE TUAZON                                 0501
A0101400150000003162518LEONARD MEL A. AVILA                                     0502
A0101400150000008034262MOSES BRAHMS TIU                                         0501
B0101405810072031175001WESTMINSTER INSURANCE AGENCY, INC.                       1605
A0101405810072234892001**********                                               0501
B0601400100081026547002ANGELES FRIED CHICKEN, INC.                              1610
A0601400100081441512001DIMAILIG, ARLEEN SORIANO                                 0501
A0101410560000002316581**********                                               0501
A0101410560000005280688ELIZA N. ADIAO OR                                       10503
A0101410560000005280688MARLON G. ADIAO                                         20500
A0101400730000002882251PUERTO JR., EDUARDO TECSON                               0502
B0101400730111037800001AMALGAMATED PUBLICATIONS, INC.                           1602
A0101400730111386485069DELIA R. PIOQUINTO                                       0502
A0101400730111386911001JONEL M. PAULE OR MAHAR B.                              10505
A0101400730111386911001JARDIOLIN                                               20500
A0101401960000004419830**********                                               0501
A0101401960000006004411***************                                          0501
B0101401830141029955002SHELL EMPLOYEES MULTI-PURPOSE COOP. -                   11605
B0101401830141029955002CANTEEN                                                 21600
A0101400440000000029365EDGAR A. CAYANAN                                         0502
B0101407270162019023001PHILIPPINE BATTERIES,                                   11610
B0101407270162019023001INCORPORATED                                            21600
B0101407270162041489001******                                                   1604
A0101401090171202251001AMELITA OR MARCOS BARTOLOME                              0502
A0101401090171339798001GRANADO, GEZZEZ GIEZI GARALDE                            0501
A0301400530000006477274LUI, LORETO RABI                                         0502
A0301400530000005300309VALDIVIA, ALICIA MARZON                                  0504
B0301400530193038633088JHG TRADING, INC. - B                                    1610
A0101401380201577691001GATO, EDNA CABANGON                                      0502
A0101412500000001146805ARROJADO, JENNIFER DY                                    0501
A3101400160221386295002ROBERT J. BANATIN                                        0502
A3101400870000005565266GAMO, EMELSON PATAWE                                     0501
B1001400190231010692001PHILIPPINE IRON CONSTRUCTION & MARINE                   11604
B1001400190231010692001WORKS INC.                                              21600
A1001400190000001057625REPUNO, REBECCA                                          0501
A1301400470000005394243RAMIR ASAS GALLARIN JR.                                  0501
A0101401670271327344002**********                                               0503
A0101408660000007457994F. CURA INDUSTRIES                                       0504
A0101400570000008374432DASIG, JEFFERSON TAGUINOD                                0501
A6601400120314612845001LOMAGDONG, PETER OR TANG, PATRI                         10502
A6601400120314612845001LOMAGDONG, JOYCE                                        20500
A2001400290000001301211CATUBIG, AIRISH MIRA                                     0501
A0101405650000000012977AZARCON JR., NOEL PIERRE HACHER                          0501
A0101405650000003893567INOCENCIO, GEORGE SY                                     0501
A0101405650000004822151FADUL, WENDELL AGBADA                                    0501
A0101405650322388029001REYES, MARIA CRISTINA V. OR MA.                         10501
A0101405650322388029001SOPHIA OR JOSE G                                        20500
A0101402510341433983005********                                                 0505
A0101402060351217441009RONILO MATAS                                             0501
B0201400760374043348001EEIKAIWA INC.                                            1603
A0201400760374625386001MIKI, MASAFUMI                                           0503
A0201400920375505756001CAMPOS JR., VIRGILIO PAGLINAWAN                          0501
A0201400920375524523001MIEL, PRINCESITA OR MIEL, ALEX                           0502
A0201401020000000055952DANO, JOSIE DANAS                                        0501
A0101408370382206275002DR. ELIZABETH P. PACHECO OR                             10501
A0101408370382206275002DR. BENITO M. PACHECO                                   20500
A0101408370382475326001DR. ALMIDA A. REODICA                                    0501
A0101408790000002031492AGUILAR JR., ERNESTO VERONA                              0502
A0101408790000005482260JAMES BEN L. JERUSALEM                                   0502
B0101402770391035790001NEWBIG FOUR J CONSTRUCTION INC.                          1604
A0101408950396563183001HUERTO, ANTONIO PETRONIO SIMPAO                          0502
B01014092100000027833516-24 PROPERTY HOLDINGS, INC.                             1605
B2401400180411035164002MOMMY GINA TUNA RESOURCES (MGTR), INC.                   1605
A1201400150421295171001BORROMEO, CAROL QUILING                                  0501
A0901400220432339854001**********                                               0502
A0101403030441239402002**********                                               0501
A0101403030441584474001**********                                               0503
A0101412890000000125419MADAMBA, JOEL VALENTINE F                                0501
A0101403320471478374059HARRY PABLO S. SAC                                       0502
B1901400160491012586001BSU CONSUMERS COOPERATIVE                                1602
B1901400160491012587001BSU CREDIT COOPERATIVE                                   1602
A1601400170000001360805MIQUE, JOEL ORINA                                        0501
B0101407430503015295001PC SUPPLIES, INC.                                        1602
A0101407430503478374009HAIDEE F. LIM                                            0501
B0101408110000006055512BELMONT AGRICORP, INC.                                   1605
B0101408530516481834001**************                                           1601
B0101403610000000016008LEE TOP BUILD INDUSTRIES CORP.                           1603
A0101403610000006497916CRUZ, MA ERICA FERNANDEZ                                 0501
A0101403610531478374002GRAPE, IMELDA HANDOG                                     0501
A0101403610000001450828ANDES, EDNA MASAYDA                                      0503
A0101404000000008365500SERRANILLA, CATHERINE LAUREN GA                          0501
A0101404000551340823001JESUS CLINT O. ARANAS                                    0503
A2201400250561478374062JENNIFER M. RAMOS                                       10501
A2201400250561478374062MEMBERS OF NATAS                                        20500
B0101404260611038904001REYESHEN PRINT AND OFFICE                               11601
B0101404260611038904001SUPPLIES                                                21600
A0101413570000001720183CRUZ, MA LOURDES NICODEMUS                               0501
A0101413990000000205990SINCIOCO, GEMMA LAGUITAN                                 0501
A0101410300000002375904TRISTAN PAUL C. TAGLE OR                                10502
A0101410300000002375904KRISTINE N. TAGL                                        20500
A1301400340000005264751**********                                               0510
A0101408240711383150001AURELIO III OR AURELIO JR.                              10501
A0101408240711383150001OR AARON LITONJUA                                       20500
B4101400260812046539001PALIPARAN-BACAO MANPOWER SERVICE CO                      1601
A4101400260000003679669ROSARIO, JESSICA GUTIERREZ                               0501
A0101412340000004360132MAMANGUN, MARHIELLE DE VERA                              0501
A0101404840000005396767SISON, MICHELLE SISON                                    0501
A0101404840851368068003BALAGTAS, ROWELLDA CHIONG                                0503
A0101406750000006303646CANTONJOS, MARY JEAN JUNDIS                              0501
A0101406750852478374015GABIN, GERTRUDES                                         0501
A0101406750852530814001PUNZALAN, HEYDE MAGRO                                    0501
