B0101400440161007221001ILA EXPRESS HAULER                                       1602
A0101400440161039572010MYRNA A. CANELAS                                         0501
A0101400440161478374051LILIA S. FELICES                                         0502
A0101400440161478374144CELERINA M. MARASIGAN                                    0501
A0101400440161478374181GERALDINE N. CUTLER                                      0501
A0101400440161525001104EVELYN G. GARCIA                                         0501
A0101412630000004061943SCHOLARSHIP PLANS PHILIPPINES,                          10510
A0101412630000004061943INC.                                                    20500
A0101413310000001073836DE LEON, PAOLO MIGUEL NICOLAS                            0501
A0101400440000012169352NABONG, MARIE ADELLAINE CASTIGA                          0502
B0101400440000005393717RD PAWNSHOP, INCORPORATED                                1605
A0101400440161036282001GHERKIN INDUSTRIAL MARKETING                             0505
A0101400440000009591871ROSANA CATCHO                                            0501
A0101400440161385731001ROSANNA L.JUSTADO                                        0501
A0101400440161478374198EUFRONIA I. BERGONIA                                     0502
A0101400440161520766159CHONA Y. ELUMBRA                                         0502
A0101400440161525001174RIZALYN V. GUNTANG                                       0505
B2401400180411055578168NEW KAMAN MARKETING CORPORATION                          1605
A2401400180411333023001CHARLES LIM OR                                          10503
A2401400180411333023001PERCEY S. BOHOLS                                        20500
A4101400260000001673372BUENDIA DANTE DBU PATIO BUENDIA                         10502
A4101400260000001673372FARM RESORT AND                                         20500
B4101400260000005724158JABEZ MOTOR CORPORATION                                  1603
A4101400420814520766111COLETA, JEANNETTE C.                                     0502
A4101400420814520766118ADOC, MYLEN A.                                           0501
A4101400420814520766139VILLAMAYOR, MINA                                         0501
A4101400420814562876001*****                                                    0502
A4101400420814760374001QUINONES, GABRIELA LARIOSA OR                           10502
A4101400420814760374001QUINONES, GIL IG                                        20500
A4101400420000000710223ROMERO, MARICRIS BAUTISTA                                0501
A0101400860000010683297**********                                               0503
A0101400860011095115001**********                                               0501
B0101400860011305536001**********                                               1601
A0101400860011374819002**********                                               0506
A0101400860011387131002**********                                               0502
A0101400860011389710002**********                                               0502
B0101400860011409861001**********                                               1603
A0101400860011422394002**********                                               0502
A0101400860011516486001**********                                               0501
A0101400860011532652002**********                                               0501
A0101400860011541134002**********                                               0502
A0101400860011559271001**********                                               0505
A0101400860011599297001**********                                               0502
A0101400860011622702001**********                                               0501
A0101400860011651458001**********                                               0503
A0101400860011701831001**********                                               0501
B0101401250021019457001BOAZ AND JACHIN FOOD COMPANY                             1602
A0101401250021178924001CHI, MIN FA OR CHUA, GLORIA TAN                          0503
A0101411370022774052001MARISSA M. RAMIREZ OR                                   10502
A0101411370022774052001LEONARD M. RAMIREZ                                      20500
B0101400150061011052001TAMIYA, INC.                                             1602
B0101400150061011073001TAMIYA HOLDINGS, INC.                                    1602
B0101400150061041900001PAXYS, INC.                                              1601
A0101400150061226167001GASPAR R. ANDRES JR.                                     0501
A0101400150061596273001YAP, TYRONE JUSTIN CHAM                                  0502
A0101400600071508998001*********                                                0503
B0101405810072011511001**********                                               1601
B0101405810072027398002JSG PREMIER REAL ESTATE, INC.                            1601
B0101405810000000016895TOUGHMAN REALTY & DEVELOPMENT                           11601
B0101405810000000016895CORPORATION                                             21600
A0101405810072353703003GUO, ZHI SHEN                                            0505
A0101405810072367854001**********                                               0501
A0601400100000005050479BORROMEO, MARINA E. DBU DIDI'S                           0501
B0601400360000003186689GOLD TREE TOBACCO MANUFACTURING CORP                     1605
B0601400360000003186781GOLD TREE IMPORT AND EXPORT INC.                         1610
B0601400520000004423432AQUINO, JENNY ALIMURONG DBU JENNY A                      1601
A0101414090000011597592QUINTO, PAULO GABRIEL POJOL                              0502
A0101400730000002882477TAN, RAYMOUND JOSHUA YU                                  0501
B0101400730000001216379THE PREMIERE INSURANCE & SURETY CORP.                    1603
A0101400730111304745001AUSTRIA, ERNESTO CRUZ OR                                10505
A0101400730111304745001EVELYN AUSTRIA                                          20500
A0101406040112197166003ZOSIMO FAJARDO JR. OR                                   10501
A0101406040112197166003VOLTAIRE IAN V.                                         20500
B0101401960121014850002*****************                                        1601
B0101401960121238845002**********                                               1601
A0101401960121452871001VIENNA MARIE GUANLAO                                     0505
A0101401960000000211058LIM, JACQUELINE KING                                     0502
B0101412630000002186529ONESUNASIA INC.                                          1601
A0101413310000001073574VILLEGAS, LORNA LOTERENA                                 0501
A0101413310000001073701PENAFLORIDA, ALEX TASIN                                  0502
A0101413310000008415401MASCARDO, GASPAR LITO SAGMIT                             0501
B7201400170000007185562CARUMBA, MARGIE SEPADA OR CARUM                         11601
B7201400170000007185562DANIECITO PASCO                                         21600
A7201400170000003773342CHIONG JR., JOSE LUY DBU SOON-E                          0501
A5001400170000000190685MARI CHANEL NGO UY OR                                   10501
A5001400170000000190685RICHARD KIM LIM                                         20500
B0101400440000000337773VIENNA PORCELANA PHILS. INC.                             1620
A0101400440161525001139JEMARIE S. SALUDAR                                       0501
B0101407270162028071001CORPORATE HR SERVICES & CONSULTING                       1601
B0101407270162029977002TECHNOFAST ENTERPRISES, INC.                             1601
A0101401090000001618593MARISA M. DELOS SANTOS                                   0501
A0101401090171197389001SANDRA C. SY                                             0501
A0101401090171198730001DR. NELSON T. LIM                                        0501
A0101401090171200556002MARY CATHERINE C. CHUA                                   0502
B0301400530000002318470DEBILDOS, PEARL MI LAINE LAO                             1601
B0301400530000000025210M.S. LITTLE TRUMPET LEARNING CENTER, INC                 1601
B0301400530193768647001DEBILDOS, MILANIE L.                                     1601
B0301400790000000040882NEW SAVE-O-MATIC GROCERY, INC.                           1601
A0301400790000000435932ABARSOLO, THELMA ROSAS                                   0501
B0301400950000002115122**********                                               1601
A0101401380201720392001SY, WYNNE-CHARLES GACAD                                  0501
B3101400160221010054001LUZON DEVELOPMENT BANK - HEAD OFFICE                     1601
A3101400160221220343001LAARNI A. CALAPATIA                                      0502
B3101400160221224862001JOYME ROCKSCAPES CORPORATION                             1602
B3101400450223025343001CAPUA ENTERPRISES                                        1601
A3101400450223221122001NUA, MELECIO OR MELODY OR                               10505
A3101400450223221122001RICHARD                                                 20500
A3101400450000008015325AGONCILLO JR, JOSE ARANGUREN                             0501
A3101400450000000163506PEREZ, RAFAEL SALAMAT                                    0501
B3001400130230695822001CHAN, ALAN UY OR CHAN, CHERIE                           11601
B3001400130230695822001MARIE TAN                                               21600
B1001400190000002170816WILLIAM CHAI CHUA OR MARIE KHRISTINE                    11605
B1001400190000002170816CHAN CHUA                                               21600
B1001400190231033768002STREAMFLOW TRADING & GENERAL                            11605
B1001400190231033768002SERVICES                                                21600
A1001400190231288800002ABBOTT, CLYDE MAVERRICK FAJARDO                          0501
A1001400190231520766107DELIA ENRIQUEZ                                           0501
A1001400190000001057523MEDA B. REYES                                            0501
A1001400350000000922014PEARSON, PILARCITA ROA                                   0502
B1001400350000000017041LIMKETKAI HOTEL & RESORT CORPORATION                     1610
B1001400350233041564001INFORMATICS COMPUTER INSTITUTE CAG. DE                  11605
B1001400350233041564001ORO CENTER, INC.                                        21600
A1001400350233532085001CASTRENCE, CERINO SERINA                                 0502
A1001400350233635947001GOMEZ, CHRISTOPHER IAN CARILLO                           0501
A1001400480000000133359LIMBACO, RONALDO CABANA                                  0501
A1301400470000000366443VICTORIA M. LUMBA OR                                    10501
A1301400470000000366443RUDY D. LUMBA                                           20500
A1301400470252540258001EMELITA S. MANAHAN OR                                   10501
A1301400470252540258001SHERYL LOU S. MANAHAN                                   20500
B1301400760000000007121GLOBAL CARS PHILS., INC.                                 1610
B1901400290261045450002LIPA INTEGRATED PRODUCER CORPORATION                     1602
B0101401670271025503001SANTUARIO DE SAN JOSE-PARISH PASTORAL                   11601
B0101401670271025503001COUNCIL                                                 21600
B0101401670271025503002SANTUARIO DE SAN JOSE-PARISH PASTORAL                   11602
B0101401670271025503002COUNCIL                                                 21600
B0101401670271477779001CONTEXT INNOVATORS & RESOURCES INTERNATI                11601
B0101401670271477779001ONAL, INC.                                              21600
A0101406460000000021752************                                             0501
B0101406460000001231689DY, TERENCE LAO DBU PROALMIGHTY ENT                      1601
A0101406460272785726002DY, TERENCE LAO                                          0501
B0101406620273009710001ASIAN CABLE COMM. INC.                                   1601
A0101406620273399562001BARTOLOME, NORWIN ALARCON                                0503
B0101408660000000034346LYFE MARKETING SYNERGY, INC.                             1605
A0101412470000000026822O, HERBERT LAO DBU EASYBUYS CAR                         10505
A0101412470000000026822TRADING                                                 20500
B0101400570281026341001PUBLIC SAFETY SAVINGS AND LOAN ASSOCIATI                 1605
B0101400570281039520001AUTOMOBILE ASSOCIATION OF THE                           11602
B0101400570281039520001PHILIPPINES, INC                                        21600
A0101400570281186549001DR. JOSE F. ORETA, JR.                                   0502
A0101400570281186611001EMERITA R. DOMINGO                                       0501
A0101400570281186627001GRACE R. BATTAD                                          0502
A0101400570281491697001LAXAMANA, EFREN CORTEZ                                   0505
A6601400120314593270001DIAZ, REO DBU RUDMAR TRADING JT                          0505
B6601400120314612845001LOMAGDONG, PETER OR TANG, PATRI                         11602
B6601400120314612845001LOMAGDONG, JOYCE                                        21600
A6601400120314612970002UNAY, ELIZER S. OR HEDWIGES S.                           0503
A2001400290000000924447CLAVEL, ALAN ZAMORA                                      0503
B2001400290315044204001ACEBANK CREDIT, INC.                                     1601
B2001400290000000020548BBC PERSONNEL AND ALLIED SERVICES,                       1602
B2001400290315058509001SILLIMAN ALUMNI ASSOCIATION, INC.                        1605
A2001400290315636053002RAMAS-UYPITCHING, ALEMBERT                              10501
A2001400290315636053002BRIAN OR FELMA                                          20500
B2001400290315638201001HO, NELLA OR HO, EMMANUEL                                1603
A2901400130000005961384CHAN LEK, RYAN TEOFILO                                   0501
B0101402350321034245001CABLE LINK & HOLDINGS CORPORATION                        1602
B0101402350000000046017SAN DIONISIO CREDIT COOPERATIVE                          1605
A0101405650000000448231ACOSTA, LOURENZ RAMOS                                    0502
B0101405650322034381001FUDMAN CANTEEN                                           1602
B0101402510000011827020******                                                   1601
A0101409050352623584001MARLYN A. VILLAPANDO                                     0501
B0201400760374031471001PHILPACIFIC INSURANCE BROKERS & MANAGERS                11610
B0201400760374031471001INC.                                                    21600
B0201400760374040348001CPHEC                                                    1601
B0201400920375042734001A. LIM DEVELOPMENT INC.                                  1602
A0201400920375718711001LIM, ROSARIO TAN                                         0501
B0201400920375731987001*******                                                  1602
A0201400890000002270111DONGHIL, ERNILO OR CATURAN,                             10501
A0201400890000002270111GAUDENCIO                                               20500
B0201400890000000973508CLASSIC COLORS ENTERPRISES                               1603
A0201401020000003031129DEL PRADO, JOSE VICE DBU DE LAR                          0502
B0101402930381008800001THE PEARL PLAZA INC.                                     1605
B0101402930381008810001MEDICO CORPORATION                                       1601
B0101402930381008957002BANIQUED LAYUG AND BELLO                                 1603
B0101402930000000038673BANIQUED LAYUG AND BELLO                                 1603
A0101402930381037077001COACH INTERIORS                                          0501
B0101402930381041202001COACH CONCEPTS AND OFFICE FURNISHINGS,                  11601
B0101402930381041202001INC.                                                    21600
A0101402930381205376002ROGELIO LUSONG OR                                       10502
A0101402930381205376002EVELYN LUSONG                                           20500
A0101402930381338086001RONALDO G. GARCIA                                        0501
A0101402930000000859736ALMA V. PATAY                                            0501
A0101402930381569104001********                                                 0502
A0101408370382472964001VEROY, IRMA ALICIAS                                      0501
A0101408370000010833188BERNARDINO, RICCA MAE ROCO                               0502
A0101408370000000586038QUINIO, IRENE BALLICAS                                   0501
A0101408790000002326132CARPIO, JOSEPH LOU GAMUYOD                               0501
A0101408790000005251150REBULDELA, JAYSON REBOLLIDO                              0501
B0101408790000010384551METRO SANITAS CORPORATION                                1602
A0101408790383092337001SURLA, JOHN PAUL MAGBAG                                  0501
B0101408790383776386001ASIANA ASSET PREMIERE HOLDINGS                          11602
B0101408790383776386001INCORPORATED                                            21600
A0101411660000000109311**********                                               0501
A0101411660000002309440GATCHALIAN, ARMINA BENDOL                                0501
B0101411660384046304001ELITE GLOBAL SOURCING PHIL. INC.                         1602
B01014116600000075557711-TRANSPORT EQUIPMENT AGGREGATOR AN                      1610
A0101415350000007043810CHEN, TENNYSON G. OR                                    10501
A0101415350000007043810CHEN, MARIA THER                                        20500
B0101402770391009305001PRECISION ELECTRONICS REALTY CORP.                       1610
B0101402770391009313001PMPC EMPLOYEES RETIREMENT FUND                           1610
A0101402770391022532001VIREX ENTERPRISES                                        0501
B0101402770391028778003SAN ANTONIO DE PADUA - COLUMBARIUM                       1601
B0101402770391030297001CRW MARKETING SERVICES FOR                              11605
B0101402770391030297001PUBLISHERS, INC.                                        21600
B0101402770000000080613SPRAYED POLYURETHANE FOAM SYSTEM                        11605
B0101402770000000080613CORPORATION                                             21600
B0101402770000001841043SMART CARD POS SOLUTIONS INC.                            1602
A0101402770391391513001CORTEZ, MANIYA MENDOZA OR                               10501
A0101402770391391513001CORTEZ, ULYSSES CHUA                                    20500
A0101402770391471636001EDITA C. SOLIS                                           0501
B0101405490392037130001CEMS INDUSTRIAL PRODUCTS & SYSTEMS                      11603
B0101405490392037130001INC.                                                    21600
B0101408400394028124001VENICE CREATION, INC.                                    1602
A0101408400000000403847BALOLOY, RODELIA MORALES                                 0503
A0101408950000000776785AMANTE, ANGEL JOAQUIN MANUEL                             0501
B0101408950396042389001PHILIPPINE SPECIAL CARE DENTISTRY CO.                    1603
A0101408950396403215001DR. ARVIN C. FAUNDO                                      0501
A0101408950396586054001CALMA, LORENZO LICAD OR                                 10501
A0101408950396586054001CALMA, STELLA G.                                        20500
B0101409180000008122650PAYNAMICS TECHNOLOGIES INC                               1602
B0101409180397041180001GREEN VALLEY AUTO SALES CORP.                            1601
A0101412210000001347611MALICAD, MYLENE QUEMQUEM                                 0506
A0101412210000010256732OPULENCIA, ETHYLYN REARTE                                0502
A0301400820000007135060ROSALITA, JEFF MARK LAMPAGO DBU                         10502
A0301400820000007135060JMR ENTERPRISES                                         20500
A5501400120410274654003CARISMA, MORITO OR RUFINA                                0501
B5501400120410688775001GREFAB PROPERTIES, INC.                                  1601
B2401400180411032357077SANTA CRUZ SEAFOODS, INC.                                1602
A2401400180411045435001HP FRANCISCO CONSTRUCTION                                0510
A2401400180411718106168PANES, JESUS SOMODIO OR                                 10501
A2401400180411718106168PANES, MA. THERESA E.                                   20500
B5101400100000010370997KABALIKAT PARA SA MAUNLAD NA BUHAY                       1605
A0101403030441240297001**********                                               0501
B0101403030441240905001**********                                               1601
A0101403030441433845001**********                                               0501
A0101403030000001302189**********                                               0501
A0101412890000001056331ZABALA, MARCO ANGELO VILLA                               0501
A0101412890000004345055ASERON, E DBU 3E ASERON MANUFAC                          0502
A0101403320000013265208ANTHONY BENEDICT B RAMOS                                 0502
B0101403320471008879002GOLDWIN MANUFACTURING                                   11610
B0101403320471008879002LABORATORIES                                            21600
B0101403320471031672001JARECA PETRON SERVICE STATION                            1603
B0101403320000001647172SDS MEDICAL CENTER INC                                   1601
A0101403320471478374003BELICANO, LERMA D.                                       0501
A0101403320471478374051MYRA ATANGAN                                             0501
A0101403320471505013001RIVERA, REYNALDO MANALAC                                 0501
A0101406330000002277938BULOSAN, KRISTELL RAYMUNDO                               0501
A0101406330472573379001POI HOK SY                                               0501
A0101410140000012209620CHAN, EDUARDO YAO                                        0502
B0101410140000010858183LAGERA, MA. CORA  NABONG DBU CNL BO                      1602
B0501400170481005408003REPUBLIC COURIER SERVICE INC.                            1603
A0501400170481253553001DRA. LIBERTY P. SUMILANG OR                             10502
A0501400170481253553001DR. ROMANOFF J.                                         20500
A0501400170481253600001NARDING C. CAMERO OR                                    10502
A0501400170481253600001JULIE C. CAMERO                                         20500
A1901400320000013211766BARREDO, HAZEL MARIE EBORA                               0501
B1901400320000000041272SIMCO VILLAGE LEARNING CENTER INC.                       1601
B1901400320489062995002CLEVERGOLD CREDIT CORPORATION                            1610
B3801400170000000018733CALAPAN VENDORS MULTI-PURPOSE                           11601
B3801400170000000018733COOPERATIVE                                             21600
A1901400160000012985867MARIO CANTRE ANDAL ENTERPRISE                            0501
A1901400160491042095001HIPOLITO'S HARDWARE & GENERAL                           10503
A1901400160491042095001MERCHANDISE                                             20500
B1901400160491064500001GOOD HEART MARKETING INC.                                1602
B1901400160491064503001J.A.M.C. MARKETING INC.                                  1603
A1901400160491244484001IRENE H BERBA OR                                        10510
A1901400160491244484001CARLOS R BERBA                                          20500
A1901400160491337469001FLORANTE B COMIA OR                                     10502
A1901400160491337469001CHERIE JUDITH M COMIA                                   20500
A1901400160491731081001ERIKA VIANCA MACARAIG DALANGIN                           0501
A0701400260000002339095BERNARDO JR., JAIME MIRALLES OR                         10502
A0701400260000002339095BERNARDO, CYRIL                                         20500
B0101407430000000035338SEAHAWK TRANSPORT, INC.                                  1603
B0101407430000004491754OPTIMUS FREIGHT FORWARDING INC.                          1605
A0101407430503185437002GILBERT TY                                               0503
A0101407430000003193406ANTOLIN M. SOSA JR.                                      0502
A0101407430503278586004ANTOLIN M. SOSA JR.                                      0505
A0101407430503278586005ANTOLIN M. SOSA JR.                                      0505
B0101403580000000922929KAIZEN E & M CORPORATION                                 1605
B0101403580000002185413ACUMU CONSULTANTS INC.                                   1602
A0101403580000002265614SALAZAR, NOEL BELLOSILLO                                 0502
B0101405940512015937001BATAAN 2020, INC.                                        1605
A0101408530000007456644MARIBETH L. GO                                           0501
B0101403450521011651001**********                                               1601
B0101403450521012137002**********                                               1603
B0101403450521025314001*********                                                1603
B0101403450000010454292***********                                              1602
A0101403450521237815001**********                                               0501
A0101403450521239872002**********                                               0501
A0101403450521304368002LIBREA, FARITA S. OR MA. LUISA                          10502
A0101403450521304368002ANGELICA LIBREA                                         20500
A0101403450521456076001SY, PACITA LIM                                           0502
A0101403450521643515001***********                                              0502
A0101403610000013215393CINCO, MICHAEL ANGELO FLORDELIZ                          0501
A0101403610000013245722BUENAVENTURA, CARLO MONTEMAR                             0501
A0101403610000013272372BAMBAO, ELEONOR MUNGIT                                   0501
A0101403610531430756002GERTRUDES A. SALVADOR OR                                10503
A0101403610531430756002LEONOR A. HADUCA                                        20500
A2201400250000010425311*******                                                  0501
A2201400250000007122841JERLIQUE ENTERPRISES                                     0501
A2201400250000007122841JERLIQUE ENTERPRISES                                     0501
A2201400250561253789002MELIZA TRACY G. FLORES OR                               10502
A2201400250561253789002JOSE ANGELO D. FLORES                                   20500
A2201400250561293366001JOSE ANGELO D. FLORES OR MELIZA                         10501
A2201400250561293366001TRACY MARGARET G                                        20500
A2201400250561425826008********                                                 0501
B0101410690000000305273RIC POBLETE & SONS AGRICULTURAL                         11602
B0101410690000000305273ENTERPRISES,INC.                                        21600
A0101404130000003181382BUERANO, NESTOR ALDAY                                    0501
A0101407720602397498001ARNEL S. NUGUID, M.D.                                    0510
A0101407720602701334001MALE, EDWIN BALGOMA                                      0501
B0101412180000000037961MGNP, INC.                                               1601
B0101412180000000037983MGNP, INC.                                               1601
B0101412180000001293072NYNE BEAUTY INC.                                         1601
A0101404260611005266001SHAMM PHOTO SUPPLY                                       0501
B0101404260611023318001EUNEE TRADERS AND CO. INC.                               1610
B0101404260611027994001DELRENE EB CONTROLS CENTER                               1602
B0101404260611028921001KICEM TRADERS AND CO. INC.                               1610
B0101404260611044359158GREAT ARCHER SALES                                       1602
B0101404260611057756001SYNERGOS PASSION ASIA, INC.                              1610
A0101404260611150842001NICOLAS, EVELYN C.                                       0501
A0101404260611478374010MARITES R. LACSON                                        0501
A0101407690000008045801DANNY'S NATIVE FOOD                                      0504
A0101407690652525001064JOAQUIN JUANCE - DEALERS OF                             10501
A0101407690652525001064SHOECAT INC.                                            20500
A0101411530000000741662LLOYD DELOS SANTOS OR MARIA                             10501
A0101411530000000741662ANGELA DELOS SANTOS                                     20500
A0101411530000013261819PINEDA, JOSE MANUEL N                                    0501
A0101411530000013261911ESPINA, MINERVA S                                        0501
A0101413440000001472920**********                                               0502
A0101413440655054550001SOMETHING DIFFERENT BAKESHOP                             0501
B0101413570000003580681FERRER, MARK OLIVER AND FERRER,                         11601
B0101413570000003580681ADLIN MAE                                               21600
A0101406590662684958001GUTIERREZ, EVANGELINE ALCANTARA                          0501
B0101410300000000191677ROPABLANCA CORPORATION                                   1601
A0101410300000002375824HERNANDEZ, EVA P.                                        0501
A0101410300663792106001MONDONEDO, MILAGROS P. OR MONDO                         10501
A0101410300663792106001NEDO, ABELARDO A                                        20500
A1301400340683288793001******                                                   0502
A1301400500000000213403CHOLLO TRANSPORT                                         0505
B1701400230000002762718*                                                        1601
A1701400230693510832001DUQUEZ, ROBERTO AQUINO                                   0503
B0101408240711036098003RAAGAS HEART GROOMING SALON INC                          1601
B0101408240000000005158DEARBORN MOTORS CO., INC.                                1602
A0101408240711400908001SHAM MIRCHANDANI                                         0501
A0101408240711495999001ENVERGA, MARY JOANNE LONTOC                              0501
A0101408240711551803001MACAYAN, CLARISSA PRUSIA                                 0501
B2801400100712582034001DONGHYUP PHIL. INC.                                      1602
B2801400100712582034002DONGHYUP PHIL. INC.                                      1602
B2801400230000005253674A CHILD'S TRUST IS OURS TO NURTURE                       1601
B2801400230000005253663SEGARA SUBIC BAY PROPERTIES INC.                         1601
A2801400230713792777001LOPEZ, JEAN EBANCULLA                                    0502
A4101400260000001198654CASTILLO, LEO NINO ANGELO CANTI                          0502
A4101400260000005333357TAN, JAYSON LIM                                          0505
A4101400260000011418261BABAR, JENELYN CABILES                                   0501
A4101400260000010623560SABANDO, MELANIE T. DBU VAUGHN                           0503
B4101400260812022123001JESUS FAITH CHRISTIAN FELLOWSHIP CHURCH                  1607
A4101400260000000469329FALCUTILA, MARISSA RAMOS                                 0503
A4101400420000011952271DE LEON, ERNESTO SAGURIT DBU                            10501
A4101400420000011952271WALYUMI BAKESHOP                                        20500
A4101400420814520766045BOCO, ADELA G.                                           0501
A4101400420814520766061ESTILLERO, SUSANA O.                                     0501
A4101400550000000315062SUSON, STEVEN OGABANG                                    0502
A4101400550000011973405AQUILLO, JENALYN SAN JUAN                                0501
A4101400550815046007001DIGIBOX PRINTING SERVICES                                0501
B4101400550000006043910TOYOTA BACOOR, CAVITE, INC.                              1602
A0101412340000003341539CALAYAG, MIA ANN MARICE                                  0501
A0101412340000004681396PATRICK C. FORMOSO                                       0502
A0101412340000003717264RONALD C. TOLENTINO                                      0501
A0101412340000013015291MARIVIC ABILONG                                          0501
B0101412340850004657002TSOOMI SYSTEMS PHIL., INCORPORATED                       1601
A0101404840000012411082VILLANUEVA, FLORAMEL PIAD                                0501
A0101404840000010969487GATMAITAN, MA SOCORRO OR JULIAN                         10503
A0101404840000010969487OR JOMINI                                               20500
A0101404840851044151001KID-A ENTERPRISES                                        0502
A0101404840000000085107JELLA M. GERONIMO                                        0504
A0101404840851175235001CEPRES, LOURDES BALAGUER                                 0501
A0101404840000001312703RUIZ, ELLEN ESPELETA                                     0501
A0101404840851520766071TERESITA SANTOS                                          0501
B0101405070861026394008TRAVELLERS INSURANCE & SURETY                           11606
B0101405070861026394008CORPORATION                                             21600
B0101405070861026394088TRAVELLERS INSURANCE & SURETY                           11602
B0101405070861026394088CORPORATION                                             21600
A0101413860000007252399WU, SHEN WEI                                             0502
