A3101400450000000014035GENEROSO, NOVELET BRION                                  0501
A1401400110000000132841*******                                                  0501
A1001400480000000133279**********                                               0502
A1001400480000000133439CABELLO, ERLINDA ALARIN                                  0502
A0101407720000000245203*********                                                0501
A0101412050000000323646SCHUCK, MARIA DEODITA MARGARITA                          0501
A0101406750000000357993DELA CRUZ, MISSY DALISAY                                 0501
A0101408820000000408724******                                                   0502
A0101405070000000414742SAMANIEGO, REYNALDO PULIDO                               0501
A0901400220000000425249RL TRADING                                               0502
A0101407560000000477703YOGI PIA BANAL HEBRES                                    0502
A0101408240000000521833SSB CONSTRUCTION                                         0502
A0301400950000000566832HERNANDEZ, SHEILA MARIE QUIACHO                          0501
A0101402640000000567077BOU, PERLITO BIOY                                        0501
A1401400110000000628615SANTOS, JOEY ROSLIN                                      0501
A0101405650000000772903ESTEBAN, GARY MANANSALA                                  0502
A0101407270000000818224****************                                         0501
A4101400390000000975140TRIAS, RENAN DELA TORRE                                  0501
A4101400550000000981802ATIENZA'S COPY CENTER                                    0501
A3001400130000001271501DUBOUZET, ZENAIDA DAGASDAG                               0501
A0101404840000001312747CRUZ, ERIC DBU NODION BUILDERS                           0502
A6601400120000001370581GARIN, MARICEL CASAS                                     0501
A6601400120000001370638SURIO, MARILYN DULAY                                     0501
A0101403450000001637903UNG, NATHANAEL SO                                        0501
A0101403450000001637910UNG, JACOB SO                                            0501
A0101406620000001686871*******                                                  0501
A4101400390000001732736CLAVERIA III, DON VIVENCIO G                             0501
A4101400390000001732907ALFONSO, CHAIRA MARIE APILO                              0501
A0701400260000001804586MENDOZA, MARK JOSEPH VALDEZ                              0502
A0101400730000001822139AMPARO, ANGELO HABLADO                                   0502
A1901400290000001926303PAULER PANGANIBAN ANI                                    0501
A0101406750000002040340DELFINO, ANALILI MANKIN                                  0502
A0201400890000002141873DR. CHARLES P. SIA                                       0501
A1701400230000002347311RAMBAUD, MARICAR CATHERINA V.                            0501
A0201400920000002804479MARY JOANNE L. ELAGO                                     0502
A0101400860011376202002**********                                               0502
A0101400860011389659002**********                                               0505
A0101400860011407777001**********                                               0503
A0101400860011428673001**********                                               0502
A0101400860011478374002RENDOQUE, WIRANDA SAUDI                                  0502
A0101400860011487539001**********                                               0503
A0101400860011570367001**********                                               0502
A0101401830141433370001ARNALDO P. SERRANO                                       0502
A0101407270162029071001M+E SALVALOSA & ASSOCIATES                               0502
A0101407270162770709001MARTIN WILLISON U. REYES                                 0502
A0301400530193699754001BUTALID, FELINA L.                                       0502
A1901400290261022373001AJEL BUILDERS                                            0503
A1901400290261298552013LEONILA QUESADA GUEVARRA                                 0501
A1901400290261411419001TERESITA DIMAILIG PERCE                                  0502
A0101406620273367221001GUERZON, CAESAR ABESAMIS                                 0501
A0101400570281375245001CHUNG, JANE LEE                                          0501
A1101400120313478374093GIMARANGAN, JINKY A.                                     0501
A3401400280318742468001BELTRAN, NAPOLEON LOPEZ                                  0503
A0101402510341196507001EVELYN SA. CALBAY                                        0502
A0101408370382206445001CHONA D. CAPILI                                          0502
A0101402770391355762066JENNIFER ALFORQUE                                        0502
A2401400180411558577001PRINO, ROSANA CAJUTAY                                    0501
A2401400180411693442001PINTUAN, NELIA DEQUILLA                                  0502
A0101403030441239072002**********                                               0501
A0101406330472215608001JOSEFINA "JOJO" SALAZAR                                  0505
A1901400160491363632001ANN ABEGAIL ROSALES PEREZ                                0501
A0101403580511152151003VICTOR JISON OR THERESE JISON                            0503
A0101403580511403658011MICHAEL GUARIN                                           0503
A0101403450521481849001**********                                               0502
A0101404000551570537002CABRERA, ALEJANDRO CATAMIO                               0501
A0101407720602396333001RAJAGUKGUK, BELEN PANTANGCO                              0502
A0101407720602398542002DR. ROBERT DENNIS J. GARCIA                              0502
A0101404420631459427001GLORIA, GLORIA CRUZ                                      0501
A1301400340683092718001GUMBAN, ROLANDO SEMPIO                                   0501
A0101407560686478374070MAURA G. CAGAS                                           0502
A0101408240711231493001ROBERTO OR MA. CRISTINA LIMJUCO                          0501
A2801400100712525700001AMADOR JR., RODOLFO BALTAZAR                             0501
A4101400390813478374003AUXTERO, ELANE                                           0501
A0101404840851520766121ESTREMOS, LUNES                                          0501
A0101406750852071621001DELA CRUZ, MARY QUEENIE MAE M.                           0502
A1301400470000000009981CRUZ, JOCELYN NAVARRO OR                                10501
A0101408370000000014495DR. DONALD JUDE U. MEGUIZO OR                           10502
A0101405070000000028839GOMEZ, ALFREDO YUMUL OR                                 10501
A0201400920000000048188ALTIN TRADING & CONVENIENCE                             10501
A2201400250000000141200NOEL M. ESPINOSA DBU N.M                                10502
A0101405070000000239376RONELL PAGCALIWANGAN OR                                 10501
A0101409920000000523573MEMBERS OF NATASHA (SHOECAT INC                         10501
A2601400270000000561551RODERICK E. MADRIDEO OR                                 10501
A1001400480000001054886CUEVAS, JONATHAN MAGHINAY OR                            10501
A0101405070000001124350DESCALZO, MARIA KHARIN H. OR                            10501
A0601400520000002085849SUN, CHARISMA DBU ANGELS AT                             10501
A0601400520000002085849SUN, CHARISMA DBU ANGELS AT                             10501
A5001400170000002288242AJOC, RODOLFO PAPELLERAS OR                             10504
A0101401250021709223001ROLANDO F. ASTILLERO JR. OR                             10501
A0101400150061227521002MIRANDA, YOLANDA D. OR                                  10502
A0301400530193571748168UY, EMERALD L. OR                                       10510
A1901400290261248453001LEONARDO RETANA GARING                                  10502
A0101406620273444658001GINA L. JULIANO OR                                      10502
A1101400120313535537001COLLERA, LEONOR M. OR                                   10504
A0101408370382455298001BERNICE ELAINE T. ONG M.D. OR                           10504
A1901400160491399740001IAN P PORTUGAL OR                                       10502
A1401400110492220879001ANGLO, ROMEO F. OR                                      10502
A0101403580511390958001CECILE SALANDA OR                                       10502
A0101408110515427749001HILARIO TAMONDONG JR. OR                                10502
A0101404420631659319002NARUSHIMA, JASMIN CAPULE OR                             10501
A0101406590662533811001LEGION, ROMEO JALDO OR                                  10501
A1301400500684589977001VIOLAGO, MA. LORENA M.OR                                10501
A0101405070861023470001ASIANA KITCHEN EQUIPMENT                                10502
A1301400470000000009981NAVARRO, HAZEL PUNZAL                                   20500
A0101408370000000014495DRA. DEBBIE GUANI MEGUIZO                               20500
A0101405070000000028839GOMEZ, PAUL AMATOSA                                     20500
A0201400920000000048188STORE                                                   20500
A2201400250000000141200ESPINOSA CONSTRUCTION                                   20500
A0101405070000000239376JEVERNELL RABAGO                                        20500
A0101409920000000523573JOANNE L. MABULAY                                       20500
A2601400270000000561551JUANITA S. MADRIDEO                                     20500
A1001400480000001054886CUEVAS, REGGIE B                                        20500
A0101405070000001124350DESCALZO, LUZVIMINDA                                    20500
A0601400520000002085849WORK MKTG & GEN MDSE                                    20500
A0601400520000002085849WORK MKTG & GEN MDSE                                    20500
A5001400170000002288242AJOC, MARY JUNE BERMUDO                                 20500
A0101401250021709223001GINA A. ASTILLERO                                       20500
A0101400150061227521002MIRANDA, FERNAND                                        20500
A0301400530193571748168UY, CIARA ISABEL                                        20500
A1901400290261248453001OR BUENA FLORES GARING                                  20500
A0101406620273444658001NOLY P. JULIANO                                         20500
A1101400120313535537001COLLERA JR., AGUSTIN                                    20500
A0101408370382455298001MELVIN L. ONG                                           20500
A1901400160491399740001JOLLY C PORTUGAL                                        20500
A1401400110492220879001ANGLO, CECILIA N                                        20500
A0101403580511390958001RICARDO V. SALANDA JR.                                  20500
A0101408110515427749001TRISHA MARIE TAMONDONG                                  20500
A0101404420631659319002CAPULI, TERESA I                                        20500
A0101406590662533811001LEGION, CORAZON                                         20500
A1301400500684589977001VIOLAGO, GIDO C.                                        20500
A0101405070861023470001SPECIALIST                                              20500
B0101405650000000012988ESTEBAN, GARY MANANSALA                                  1602
B0101403580000000015738MEC - SPV 5 & 6                                          1610
B0101409180000000036600YOURSOURCE CORPORATION                                   1601
B0301400790000000040917EURO HYDRO POWER (ASIA) HOLDINGS, I                      1602
B0101406040000000096720********                                                 1601
B0101411950000000490880********                                                 1601
B0101405940000000886762MYAPP CORPORATION                                        1601
B0101405070000001161335W4 ALLIANCE SECURITY AGENCY, INC.                        1601
B1901400290000001363133TRIDEA ADVERTISING                                       1602
B0101404130000002121500CONTINUOUS PRINTING CORPORATION                          1605
B0101412470000002338843WEBLEND INC.                                             1601
B0101401250021040371001ENHANCE CARGO MOVERS CORP.                               1610
B0101400150061040542001MEGABUILD 101, INC.                                      1601
B0101400150061044906001G-GATEWAY MOBILE PHILIPPINES INC.                        1605
B0601400100081253610001WILFREDO M. NG                                           1601
B0601400360083594999001ICE INTERNATIONAL TECHNOLOGIES INC.                      1602
B0101400730111014312001NGC MEDICAL SPECIALIST CLINIC, INC.                      1610
B0101407270162028545001G-1ST VALUE HOLDINGS, INC.                               1602
B0101407270162040538001HENRYVILLE, INC.                                         1605
B0301400530193038459169PIONEER BEE CORP. 2                                      1605
B3101400450223365119002VICTOR HUGO ENERGY CORPORATION                           1601
B0101406620273046907001RS CONCEPTS, INC.                                        1610
B0101400570281046883001SURE CURE PHARMA INC.                                    1605
B1101400120313039184001SARC FOODS CORPORATION                                   1605
B0101408820333042436001TM TOPS MERCHANDISING                                    1605
B0101402640361041622001DAVID KNIGHT SECURITY AGENCY                             1601
B0101402770391041647001G B B TECH ELECTRO MECHANICAL & DEV. INC                 1604
B0101403030441012179001**********                                               1602
B0101403320471043308001DAMAYAN AT TIYAGA FOUNDATION, INC.                       1601
B0501400170481018109002****                                                     1604
B0101403580511016046001GENOSI, INCORPORATED                                     1605
B0101403580511024916001JAYJAY REALTY CORPORATION                                1603
B0101403450521019763001**********                                               1605
B0101403450521078888003PUREGOLD PRICE CLUB, INC.                                1620
B2201400250561088535001CHRISTOPHER JORDAN L. CHUA                               1601
B0101411950680046173001*****                                                    1605
B0101411950680046275001******                                                   1601
B0101411950680046277001********                                                 1605
B1701400230693042562001LAOAG CITY-ILOCOS NORTE ASSOCIATION                      1601
B4101400260812047082001SERENITA INC.                                            1601
B0101405070861046931001BUKWANG PRIME INTERNATIONAL AGENCY                       1601
B0101401830000000033638CARITAS SALVE CREDIT COOPERATIVE                        11603
B0101401090171007908001PERPETUAL SUCCOR HOSPITAL &                             11605
B0101401830000000033638MANDALUYONG                                             21600
B0101401090171007908001MATERNITY, INC.                                         21600
B0101403580511821100608**********                                               2010
