A1001400480000000041534BASHER, ASHARY ABDULWAHAB                                0501
A0101400150000000052991CRUZ, RAMIL JOSEPH PADUA                                 0501
A1301400340000000293612ALCANAR, MARDY BARRETTO                                  0501
A0101404840000000475952GONZALES, ROWENA POLLICAR                                0502
A1601400170000000497536WASSER TRADING                                           0501
A0101411820000000589408ARLYNE B. BRANDA                                         0502
A0101400150000000806699ESCARCHA, ELAINE FOJAS                                   0501
A0101400440000000821414MARY ANTONETTE B. APIT                                   0501
A0101404420000000866593SANTOS, LODY DBU TEL JOSH ACCTG                          0501
A4101400550000000981831BESANA, ARDITH GALVAN                                    0501
A1301400210000000983815FELICITAS S SUNGA                                        0504
A1001400480000001054711VILIRAN, PRINCESS SYBIL BADAJOS                          0501
A6601400120000001370809SALVADOR, ZALDY GARABEL                                  0501
A0101400440000001440055MARAVILLAS, FRANCES MAY IGNACIO                          0501
A1101400120000001547268JADOC, MA. ARIELYN PALOGAN                               0501
A0901400220000001805129**********                                               0502
A0101410140000001939962IMPERIAL, BRENDA MEJICA                                  0501
A0101406620000002009212ALCANTARA, GRACELYN ORIAS                                0501
A0101400440000002034840MAGBAG JR., JESUS ROY TRINIDAD                           0501
A0601400100000002099107ONG, ANDREW ARQUIZA                                      0505
A0101405490000002253010ROSEMAE J. SISON                                         0501
A0101406620000002279638ROSARIO, NONY LIM UY DBU NONY R                          0505
A0801400160000002286035************                                             0501
A0101409890000002326752EVANGELINE GONZALES ALFONSO                              0501
A4101400260000002888391NOLASCO, VIVIAN LADA                                     0502
A0101406590000003007212STAMBOEL, IRSYAD KAUTZAR                                 0501
A0101406750000003393213SORRA, DELIA SOSITO                                      0501
A2401400180000003949060BUTAL, JULES ANTHONY TABANAO                             0501
A0101404000000003950765SOLIMAN, CATHERINE CRISOSTOMO                            0501
A0101404000000003950798VERCELES, LEILA BUENCONSEJO                              0501
A3101400160000004362903REYVELINDA E GUEVARRA                                    0502
A0101409180000004375406YOINGCO, OLGA JEAN TANEDO                                0501
A0101411790000004531811GLAZER, DORON                                            0501
A0101400860011783032001**********                                               0502
A0101400150061227793001**********                                               0501
A0101400600071235565001**********                                               0501
A0601400100081251829001FELICIANO, EREDITO OR ROSA ANA                           0502
A0601400100081353657001ANUNCIACION, ERLINDA PABUSTAN                            0503
A0101413280092047618001JENELYN C. GALEON                                        0501
A0101412630132315301001JAUCIAN, ADELE ASPE                                      0501
A0101407270162485062001NORLY B. VILLANUEVA                                      0502
A0101413020209057241001***********                                              0501
A3101400160221386295002ROBERT J. BANATIN                                        0502
A3101400160221772429001MEDINA, VILMA ALVIAR                                     0501
A1001400190231446795001******                                                   0501
A1301400470252040709001ANGEL INNA TRADING                                       0510
A0101406620273306796008OSCAR B. BIASON                                          0501
A0101406620273492017001SOLIVEN, REYNANTE BAVIERA                                0501
A0801400160311494221001JUCABAN, LEO LAGOS                                       0501
A1101400120313678888003TIU, EDGAR ACORIN                                        0505
A6601400120314041602001LEXTAN GENERAL MERCHANDISE                               0502
A2001400290315688009001ALGOPERA, LLOYD GARCIA                                   0504
A0101402350321463175001CRISANTO P. MALONZO                                      0502
A0101402480331036586001GOD'S ANGELS LOGISTICS SERVICES                          0502
A0101402510341397178001RUTH JAVIER REYES                                        0501
A0201400760374625964001SOLON, ENRICO MENDOZA                                    0501
A0101408400394443611001MAGBANUA, JOSEFINA SANTIAGO                              0502
A0101408400394650469001SALAMANCA, JOSEPHINE MOJICA                              0501
A2401400180411625023001PROVIDO, JULIET MAHINAY                                  0502
A0901400220432429653001**********                                               0502
A1401400110492220705001ZETA, DULCE CORAZON LONTOC                               0502
A0101407430503036416001JUPITER'S BUTCHER SHOP                                   0505
A0101408110515030321001CONCEPTOS ADS PRODUCTIONS                                0506
A0101411790518055815102RENOMERON, JASON BUGHO                                   0501
A0101403450521238538002**********                                               0502
A0101404000551325019001***                                                      0502
A0101407720602421754002LIM, CHRISTINE EBARVIA                                   0501
A0101404420631478374076BERNADETH B. MIRANDA                                     0501
A1301400210682073330001MICHAEL M AQUINO                                         0502
A0101408240711427132001SORIANO, AVELINA OR REYNALDO                             0501
A2801400100712251595001VALDEZ, CORAZON REYES                                    0502
A0101404840851040206001RZB PROPERTY MANAGEMENT                                  0502
A0101400600000000007616ANGEL T. CONCEPCION JR. OR                              10504
A0301400530000001010033YABUT, ELVIS G. OR                                      10501
A0501400170000001072702RAFANAN, SALVADOR R. DBU                                10501
A0501400170000001072935HERNANDEZ JR., ROMEO FERRER DBU                         10501
A0101408400000001231070CRUZ, LAILANI ALFARO OR                                 10502
A4101400550000001332370RODRIGUEZ, NELIA GENER OR                               10501
A0101409920000001951931MEMBERS OF NATASHA (SHOECAT INC                         10501
A2601400270000003510738FARMER'S FRIEND AGRICULTURAL                            10501
A0101406620273046520001FAMA, JOHN JASON DBU                                    10501
A0101406620273214161001RUTH FLORES OR RICARDO FLORES                           10501
A0101400570281188687001LORGENE A. MATA OR                                      10503
A0801400160311389143001CHAN, MILAGROS OR                                       10502
A0101402350321179313001ELIZABETH EVANGELISTA OR RENATO                         10501
A0101402350321341109002WONG, PAUL OR EDITA OR                                  10501
A0201400890376056207002MARDZ AIRCONDITIONING SUPPLY &                          10501
A1201400150421371201001MEDALLA, OSCAR D. OR                                    10504
A0101403610531219303001DR. ROMEO R. ANDAYA  OR                                 10502
A0101407720602161863003ROBERTO K. MACASAET OR                                  10502
A4101400260812752512001HIPONIA, CATALINA PEDIDA OR                             10502
A0101400600000000007616MAJA MARIE C. CO                                        20500
A0301400530000001010033YABUT, MARELIE L.                                       20500
A0501400170000001072702RAFANAN TRUCKING SERVICES                               20500
A0501400170000001072935ZAIRON TRADING                                          20500
A0101408400000001231070CRUZ, RHAYAN DEL                                        20500
A4101400550000001332370RODRIGUEZ, NELIA THERESA                                20500
A0101409920000001951931TRASPORTE, GINA                                         20500
A2601400270000003510738SUPPLY                                                  20500
A0101406620273046520001AGILE PARADOX I.                                        20500
A0101406620273214161001OR RACHEL RUTH                                          20500
A0101400570281188687001CLARISSA MATA                                           20500
A0801400160311389143001CHAN, NATHANIEL                                         20500
A0101402350321179313001OR KAREN EVANGELISTA                                    20500
A0101402350321341109002CECIL OR PAULINE                                        20500
A0201400890376056207002SERVICES                                                20500
A1201400150421371201001MEDALLA, KATHERI                                        20500
A0101403610531219303001DR. ANGELITA Y. ANDAYA                                  20500
A0101407720602161863003VIRGINIA M. RAFAEL                                      20500
A4101400260812752512001JUAN, EMMANUEL B                                        20500
B0101406880000000027169MARINE BENEFITS ASSISTANCE SERVICES, INC                 1602
B0101413150000000038651******                                                   1601
B0101404260000000156972PRIME POWER MANPOWER SERVICES                            1650
B0101404260000000156972PRIME POWER MANPOWER SERVICES                            1650
B0101407720000000885634LARRS SKIN SOLUTIONS, INC                                1603
B0101402770000001841043SMART CARD POS SOLUTIONS INC.                            1602
B1401400110000003475643*******                                                  1602
B0101405490000003905151ASIA PRIME REALTY NETWORK, INC.                          1602
B0101400150061014689001MANNASOFT TECHNOLOGY CORPORATION                         1601
B0101400150061040542001MEGABUILD 101, INC.                                      1601
B0101400150061506034001NOVEL CAPITAL, INC.                                      1610
B0101401380201041802001D'GLACIERS' MGM INC. - MAC                               1602
B0101407140213047947001************                                             1603
B1001400190231057237001HMG PRIME BUILDERS DEVELOPMENT CORP                      1601
B0101406620273032436001NORSOPHIL METAL RESOURCES, INC.                          1603
B0801400160311043928001DELIFRANZ BACKEREI, INC.                                 1602
B0101402350321006431001OLIVAREZ REALTY CORP.                                    1608
B0101402350321024658002OLIVAREZ COLLEGE INC.                                    1608
B1401400110492010098001CASEI MARKETING CORPORATION                              1610
B0101406880513155494001G & O  REALTY AND DEVELOPMENT CORP.                      1602
B0101406590662044117002D VISAGE INTERNATIONAL CORPORATION                       1602
B0101408240711033951001MILCOR MANAGEMENT CORPORATION                            1602
B0101412180000000075410ECOLOGY VILLAGE III CONDOMINIUM                         11602
B1101400120000000652442GICABAO, KATHLEEN JOY NG OR                             11603
B0601400100000002099107ONG, ANDREW OR ONG,ING LEE OR ONG, ANSON                11605
B0101401090171037028001MENDOZA & DEL MUNDO JANITORIAL                          11602
B0101407720602007039001TRINITY WOMAN & CHILD CENTER                            11605
B1301400210682012962001STO. ROSARIO CREDIT & DEVELOPMENT                       11605
B0101412180000000075410CORPORATION                                             21600
B1101400120000000652442GICABAO, BONGKOK                                        21600
B0601400100000002099107OR HAO, EMILIA                                          21600
B0101401090171037028001SERVICES                                                21600
B0101407720602007039001THE BIRTH PLACE                                         21600
B1301400210682012962001  COOPERATIVE                                           21600
B0101404710681821100608**********                                               2005
