B0101404130601821100608**********                                               2030
B0101410720210821100608**********                                               2005
B0101410720210821100608**********                                               2005
B0101410720210821100608**********                                               2005
A0101400730111718087001PASAGUE, LALAINE TRINANES                                0501
A0101400440000017672552RICAMATA JR., ANGELITO DBU                              10501
A0101400440000017672552JAY-AIR AUTO & AIRCON                                   20500
A0301400950000016514511LINDO, MARIBEL PADEL                                     0504
A0101410720000016903292DE JESUS, LAURICE GENE MACAYA                            0501
B0101410720653042569001TUGSON CONSTRUCTION & DEV. CORP.                         1605
A0101410720000000882862CASTRO, JASMIN PABLO                                     0501
A0101412500000005300601LACAP, JENNIFER                                          0501
A0101412500000017919823OFN ENTERPRISES                                          0502
A3001400130000012557836MAGALONA, MAGGIE ESCABAL                                 0502
B0101402930381689926001YAKITORI ONE INTERNATIONAL INC.                          1610
A0101400860000015923410***********                                              0503
A0101401250001100005171CRUZ, KIMMY MAGNO                                        0502
A0101401250920190000296ALANO, MARILYN REYES                                     0502
A0101400150000017940968DE CASTRO, CARLO MANUEL HIZON                            0501
B0101400150061039643001J.M.PIZARRAS AND ASSOCIATES LAW OFFICE                   1605
B0101400150000006004108SCC BULK WATER SUPPLY, INC                               1603
A0101400150000000525422ORDIZ, ARLENE CASTILLO                                   0501
A0101405810000002314687DEPANO, BERNARD GAN                                      0502
A0601400100000013256770DE JESUS, NODY BONIFACIO OR                             10502
A0601400100000013256770DE JESUS, NANETTE LOBO                                  20500
A0101410560000013758962GABEST, MARLYN CABUGAWAN                                 0501
B0101413310133057300002THINKSCAPE RESEARCH SERVICES INC.                        1601
B0101401090171063018001CLYDE KRENT CO.                                          1603
A0101401090171395251001CYD CATHERINE L. CARDOZO                                 0501
A0101401090171467544001ANDREI DOMINIC AVELLANOSA OR                            10501
A0101401090171467544001ANGEL MA. AMPIL                                         20500
A0301400530000011715267PIATOS, MARIA LINA PETARCO                               0502
A0301400660000010222116HONTANOSAS, LUZVIMINDA CORONG                            0505
B0301400660000003368507BANAFAMILYA CORPORATION                                  1610
A0301400660000016080312*****                                                    0501
B0301400790195065500001JABEZ LA PRIMERA POWER FIVE                             11603
B0301400790195065500001CORP.                                                   21600
A0101410720000012557170OPENA, MA. ANA JAY GLADY CUADRO                         10501
A0101410720000012557170OR FERDINAND GABRIEL                                    20500
A3101400160221220998001DANILO C. CUEVAS                                         0502
A3101400450223394475001*****                                                    0501
A3101400450223588221001GATDULA, JAMAILA OR AGONCILLO,                          10501
A3101400450223588221001JAYVEE OR JOSE                                          20500
A3101400450000000014035GENEROSO, NOVELET BRION                                  0501
A3101400740000006735879BALBOA, REYNALDO DBU GREAT HEAD                         10504
A3101400740000006735879BUILDING SYSTEM                                         20500
A1001400190231520766208LACRE, HAYDEE DAGPIN                                     0501
A1001400480000010131732ALERTA, ANALOU BELTRAN                                   0501
A1001400480000014023568SIA, MARIO JOSE ACHAS DBU CAGAY                         10510
A1001400480000014023568AN DE ORO HARDWARE                                      20500
A1301400470000016656981MARY JANE ASUNCION                                       0501
B1301400470000007863036PRIMEWATER INFRASTRUCTURE CORPORATION                    1610
A1301400470000001299009NIDA S. AQUINO OR                                       10502
A1301400470000001299009MANUEL M. AQUINO JR.                                    20500
A1901400290000005565911DRA. JOAN DE VILLA SARAGOZA                              0502
A1901400290261691064001EVELYN BAUTISTA AQUINO                                   0501
A0101406460000008890428***********                                              0501
A0101406620000003639678MARIROSE G. GO                                           0501
B0101406620273033463001ARL BUSINESS CONSULTANCY, INC.                           1602
A0101406620273553969001CONRADO G. BELISARIO                                     0502
B0101408660000013610882CHEEZCAKE COMPANY, INC.                                  1602
B0101411820000010701263PACORCA CONSTRUCTION CORPORATION                         1601
A0101400570000016544946RINA CHRISTINE E. DOMINGO                                0501
A2601400270000012149989CASTILLO, JOSEPHINE GARCIA                               0501
B0801400160000001289932RD PAWNSHOP, INC. - ILOILO NORTH                         1603
A0801400160311478374037EDNA T. CARIAGA                                          0502
A0801400160000001031332AMIL, WAHAB AHMAD                                        0502
A6601400120000017042261CUSTORIO, PETER ALPHONSUS URBAN                          0505
A6601400120314593270001DIAZ, REO DBU RUDMAR TRADING JT                          0505
A6601400120000016158691SAN PABLO, MELBA DAYMON OR                              10501
A6601400120000016158691UY, IMELDA SAN P                                        20500
A6601400120000000060493ABELA, LEONITA MIJARES                                   0501
A2901400130000017846052DE GUZMAN, ROGER JUBILADO                                0501
B0101405650000017917570MOONWALK UNITED METHODIST CHURCH                         1601
B0101405650322022799002FUEGO LAND CORPORATION                                   1602
A0101402510341196706001DRIZ, NOEMI PUNZAL                                       0501
A0201400760000013668950JIMENEZ, KIMBERLY REYES                                  0502
B0201400760374026266001VISAYAN ELECTRIC COMPANY, INC.                           1602
A0201400760374625964001SOLON, ENRICO MENDOZA                                    0501
B0201400920000008813769KABALIKAT PARA SA MAUNLAD NA BUHAY INC.                  1605
A0201400920000002804480MIRANDA, SAMMY                                           0502
A0201400890376535273001TOLEDO,HAROLD XAVIER OR CLIMACO                         10502
A0201400890376535273001BRYAN OR GUEVARRA,KENNETH                               20500
A0201401020000000470193LOUIE PENA'S TRAVEL TOURS & EVE                          0503
A0101402930000013537470PARRAS, CHRISTINE MAGO OR                               10503
A0101402930000013537470AYAB, EDELBERT                                          20500
A0101408370382457717001O.Q. MALANYAON, M.D.                                     0502
B0101408790383021083001MABINI TERMINAL DEVELOPMENT, INC.                        1602
B0101408790383042386001SUPREME DOMINION CONSOLIDATED, INC.                      1602
A0101415350000006213127MANGILIN, CHERYL CHIVA                                   0502
A0101415350000005028831DE CHAVEZ, MEDARDO DBU MERDEC                           10502
A0101415350000005028831ENTERPRISE                                              20500
A0101402770000017703538VALENCIA, CATHERINA ROSENDO                              0501
A0101402770000017065220CAPISTRANO, JENNIFER F. OR                              10502
A0101402770000017065220CAPISTRANO, HERBERT L.                                  20500
A0101402770391211308001FELIZARDO, ANTHONY AMAN JT                               0502
A0101405490000014158875RAMON, BRYAN LIMON OR                                   10501
A0101405490000014158875RAMON, TESSIE LIMON                                     20500
A0101405490392171839001JOSE NELDRICH B. PRUDENTE                                0501
A0101405490392332339001HUANG, WINFRED YU                                        0503
A0101409180000003813078BERMUNDO, MARIVIC B.                                     0502
A0101409180000014367963AO, JUAN                                                 0501
B0101409180000002036835BLOOMBOOKS, INC.                                         1601
A0101409210000016486790NORTE, TRACY SHELLEY BATE                                0501
B0101412210000000031461PINTXOS & TAPAS INC.                                     1610
A5501400120410624314001MORALES, RAUL OR                                        10502
A5501400120410624314001MORALES, BELINDA                                        20500
A2401400180000012748693LIM, CHARLES LIM                                         0503
A2401400180411362043001LIM, CYRIL CHRISTIAN YAP                                 0502
A1201400150421685972001JUCUTAN, HEIDI BONDAD OR                                10502
A1201400150421685972001JUCUTAN, ROMMEL                                         20500
A0901400220432079352001ONG, LIONEL ROY ZAPANTA                                  0502
A0101403320000001803390MELQUIADES D. ADEA OR                                   10502
A0101403320000001803390SONIA D. ADEA                                           20500
B0101403320471035191001ST. GABRIEL CREDIT COOPERATIVE                           1601
B0101403320471047674001MJ COMMODITY FLAVOR & SPICES INC.                        1604
A0101403320471316949002VIRGINIA GALAMGAM                                        0501
A0101403320471563661001LEDESMA, EMILIE MANAAY                                   0501
A0101406330000015172119BALDONADO, MILAGROS TOTANES                              0502
A0101406330472350547001ROMEO ROMAN A. CRISTI                                    0501
A0501400170000012633500LIM, CELIA CHUA                                          0506
A1401400110000017924159RACELIS, RICHARD VER PEREZ                               0501
A1401400110000017265339LETARGO, LIBERATO ANTONINO MAGA                          0502
B0101407430000001213089ASSOCIATED FREIGHT CONSOLIDATORS, INC.                   1601
A0101403580000000383664MARIA LUISA SYLVIA A ABELLO                              0502
B0101403580511005154001R.G. MANABAT & CO.                                       1610
B0101403580000007864273ESSCOR INTEGRATED SECURITY SYSTEMS                       1602
A0101408530516578215030DELLA, TERRY JEAN SANTIAGO                               0503
A0101408530000005493507SALIM, RAGHIB                                            0501
A0101403450000009517648**********                                               0502
B0101403450521029235001*******                                                  1605
B0101403450000008380785CERITH & GOSHEN COMMUNICATION MEDIA                      1606
A0101403450521567563001********                                                 0503
A2201400250000015209748JESUS R. TIMBOL                                          0501
B0101404130601015014001BC CONCEPTS INC.                                         1610
B0101407720602022973001MMC SECTION OF PSYCHIATRY                                1601
B0101404260611043081001EUMAN ENTERPRISE                                         1602
A0101404260000005446915**********                                               0501
A0101404260000005446915YU, EDITO COPIO                                          0501
B0101413440000014245280DELA TRINIDAD, EUGENIO DBU DELA TRINIDAD                11603
B0101413440000014245280CONSTRUCTION                                            21600
A0101413570000017388800TABILIN, LOURDES MARIANO                                 0502
A0101413990657004502002PAJARILLAGA, JOSEPH MANGAHAS                            10502
A0101413990657004502002DBU JAPJAK TRADING                                      20500
A1301400210000000915851DARCEN,DIANA INGENTE OR DARCEN,                         10501
A1301400210000000915851WEGELINA INGENTE                                        20500
A1301400210682394090002RICARDO CAMUA JR. OR                                    10501
A1301400210682394090002MIRAFLOR CAMUA                                          20500
A1301400500684039485001CRUZ, BIENVENIDO A. OR                                  10504
A1301400500684039485001CRUZ, GUILLERMA C.                                      20500
B1301400500000005963551**********                                               1603
A1701400230000013092325LABUCAY, KRISHURMURTY ANN CASIL                          0501
A0101408240000012882492MACASAET, MARIA GENEVIEVE FRUCT                          0502
A0101408240711385389001MANALILI, MARIA NELYN MARSHALL                           0501
A28014001000000154781870UNGA, NANCY REYES                                       0510
A2801400100712494193001DIANO, BLESILDA MISTICA                                  0501
A2801400230000012228410ROMERO, JOWALS CORONEL                                   0503
A4101400260000017946688CORTEZ, EUMAR YBANEZ                                     0501
A4101400260000017946871DE JESUS, ERWIN ALQUEZA                                  0501
B4101400390000008744878E-NAKA-MA CORPORATION                                    1601
A4101400420000017915983MACASAQUIT, DIVINE GRACE MENDOZ                          0501
A4101400420814478374146ZETA B. CLIDORO                                          0501
A4101400550000014767470SANTOSIDAD, M DBU EARTH & STYLE                         10501
A4101400550000014767470BUILDERS AND CON                                        20500
B4101400550000015517510PUREHEALTH DIAGNOSTIC CENTER INCORP                      1605
A4101400550000001332427HILAGA, R DBU RGM EXHIBIT AND                           10502
A4101400550000001332427EVENTS SERVICES                                         20500
A4101400550815693134001LLANES, TUDOR HERNANDEZ OR                              10501
A4101400550815693134001LLANES, PRESCILL                                        20500
A0101404840851298552056ROSARIO GABAYERON                                        0501
A0101404840851520766067JOSEPHINE V. GABAYERON                                   0501
A0101406750000016120493ASEJO, SONIA PEDROZA DBU CJ &                           10505
A0101406750000016120493A TRADING                                               20500
A0101406750852036401001E.B.A. CONSTRUCTION                                      0505
A0101405070000017717763ELMA LIRIO ENDAYA                                        0501
