F0401400270242039448002BACOLOD ASTAR TRANSPORT INC                              2610CK1
F0101400570281415005001MYLA OR ROBERT CHOA                                      2502CKO
F0101405650000005381820OTAKE, DBU LNM TRAVEL                                   12601CK1
F0101405650000005381820DOCUMENTATION SE                                        22600CK1
F0101403290461039958002FUSION INTEGRATED SERVICE                               12620CKR
F0101403290461039958002COOPERATIVE                                             22600CKR
