B0101408790383821100608**********                                               2005
A4101400260812478374055ARLENITA E. MORALITA                                     0501
A3101400870000006443803MIRANDA, ROWENA RAMOS                                    0501
A0101400150061173544001ONG, ATHENA POA                                          0501
A0101400150000000807545GO, CLEMENT TAN                                          0501
A0101405650322028641001FROM THE KITCHEN OF LIZ                                  0502
A0101408370000000014513**********                                               0502
A0101412890000000007570CRISTINA S. SANTOS                                       0502
A0101400860011406314001*************                                            0502
A0101401250000000907022BALLESCA, ARCELIE CALUMPIT                               0501
A0101400150000003600951SUAREZ, JESSICA CRISELDA EDILLO                          0502
B01014001500000006332988990 HOLDINGS, INC.                                      1601
A0101400150061656401001GOMEZ, SHIELA GLINOGA OR                                10501
A0101400150061656401001GOMEZ, BEDE LOVE                                        20500
B0101400600000001335682********                                                 1602
A0601400100081467712001JESUSA VARGAS DYCHIOCO                                   0502
B0601400100081675425001VIRTUAL LANDHOLDINGS DEVELOPMENT GROUP                  11602
B0601400100081675425001CORP.                                                   21600
B0101413730000001568403**********************************                       1601
A0101410560000005836126BANES, GENELYN C DBU ORANGEDROP                         10501
A0101410560000005836126DIGITAL PRINTING SERVICES                               20500
A0101410560000001944210BANES, GENELYN C DBU DARKSIDE                           10501
A0101410560000001944210RESTAURANT AND DISCO BAR                                20500
B0101401960121011796001**********                                               1605
A0101401960121075261001DELA ROSA, MAYUMI ORAA                                   0502
A0101413310000001073461DE GUZMAN, FRANCIS LOU MANIGBAS                          0501
A0101413310000005433103VALENTOS, LIZZA MARIE GRACE OR                          10503
A0101413310000005433103MARCOS, FERNANDO SANGUEZA                               20500
A0101400440000003705946ESTELITA MELEGRITO                                       0501
A0101407270000006869723MARIA NARCISA A. ESPINOSA                                0502
A0101407270000007335340GRACHEL ARLENE E. NAVARRO                                0501
A0101401090000000772270REINIEL MARK APOONG SISON                                0501
A0101401090171195733001JOEHANNA KHO NGO OR                                     10502
A0101401090171195733001WILLIAM NGO                                             20500
A0301400530000007352350LIMBAGO, SHERWIN CANIZARES AND                          10501
A0301400530000007352350CHAVEZ, JEORGE MONROY                                   20500
B0301400530193038633008JHG TRADING, INC. - A                                    1610
B0301400660000000048224*****                                                    1605
A3101400870000000957655BITHAO, C DBU BP-1 CAR AUDIO                            10502
A3101400870000000957655AND ACCESSORIES                                         20500
A1001400190231520766042GEOTORO, INES MANGUILIMOTAN                              0501
A1001400350233335599001DELA CRUZ, THELMA MAANDIG                                0501
A1301400760000003415596PATRICK C. MUNCAL OR                                    10501
A1301400760000003415596LEA IVY F. MUNCAL                                       20500
A1901400290261021148001ACR CONSTRUCTION SUPPLY                                  0505
A1901400290261061718001CUMAGUN, DULCIS MA. PURISSIMA R                         10502
A1901400290261061718001DBU DULCISSIMA BAKESHOP                                 20500
A1901400290261244409001ESPERANZA PAZ M LEYEZA OR                               10502
A1901400290261244409001JUAN GUALBERTO M LEYEZA                                 20500
A1901400290261244447002LETICIA BAYLON HIPOLITO OR                              10510
A1901400290261244447002ERNESTO B HIPOLITO JR.                                  20500
A1901400290261372244002CYNTHIA CUELLO MENDIOLA                                  0501
A1901400290261488341053DRA. HELEN PEREZ COMIA                                   0501
A1901400290261541758001EDWIN C MENDOZA                                          0502
B0101401670271657140001NIC'S GOURMET DESSERTS, INC.                             1610
B0101406620273025674001PHIL. GAME FISHING FOUNDATION INC.                       1602
A0501400200292707151001TIDALGO, CHERRY GRACE CARBONEL                           0501
A2601400270000000561955MICHAEL T. DE GUZMAN OR                                 10505
A2601400270000000561955KAREN MAY B. DE GUZMAN                                  20500
A0101405650000001911940BARBERS, RAINIER LOUISE PENA                             0501
A0101405650000002960810LIMCAOCO, RAFAEL ACUNA                                   0502
A0101405650000005284493LOPEZ, IMELDA MARCOSA LAUDE                              0501
A0101405650000000013167BELLERAN, MERCEDITA M.                                   0502
B0101402510341008473001CENTRO ESCOLAR UNIVERSITY EDUCATIONAL                   11602
B0101402510341008473001FOUNDATION, INC.                                        21600
B0101402510341041291001MAGALLANES PUBLISHING HOUSE                              1602
B0101402060351009403001ROMAN CATHOLIC BISHOP OF PASIG                          11601
B0101402060351009403001STA. ROSA DE LIM                                        21600
A0101409050000003535066PACIFICO, SIR CHRISTIAN                                  0502
A0201400760000002047285SUMAIT, RUBEN NUDO                                       0501
B0201400760374037513008CATC                                                     1601
A0201400760374260158002PINEDA, ALFREDO B.                                       0501
B0201400920000000007923AVANT TEACH INTERNATIONAL CORP.                          1610
B0201400890376061758001CEBU MICRO TECHNOLOGIES & METAL PRODUCTS                11601
B0201400890376061758001CORPORATION                                             21600
A0201400890376545727001SY, VICENTE OR CHARITO OR VANCE                         10501
A0201400890376545727001CEDRIC OR CHUA,                                         20500
A0101402930000003710745CASTANEDA JR., EDWIN JOSEPH ORT                          0501
A0101408370382425270001ARLENE C. CABANGANAN                                     0501
A0101408950000003171268DONATO, CATHERINE CANONIZADO                             0501
A0101409210000000502350ORTIZ, DIANNE JOY WARREN                                 0501
A0101412210000000238555ABABAO, GLENN DE LEON                                    0501
A0101412210399094817011ISHIHARA, KOICHI                                         0501
B2401400180411036779001********                                                 1605
A1201400150000000034415BALLERAS, JEFFERSON RAMOS                                0501
A1201400150421039385001JL'S CLEAN UP JANITORIAL &                              10502
A1201400150421039385001MANPOWER SERVICE                                        20500
A1201400150421301485002GO, ROLANDO DISTOR                                       0502
B1201400150421496291001LIQUETE, DOLORES SAGUID OR LIQUETE,                     11601
B1201400150421496291001LEONARDO                                                21600
A0101403030441240227002**********                                               0501
B0101403030441314128003**********                                               1601
A0101412890000002747926BALDIVICIO, DOLORES VILLARIN                             0501
A0101412890000005913242BELVIS, GOODY LACSON                                     0505
B0101403320000001647230AMALGAMATED INVESTMENT BANCORP.                          1603
B0101403320471047674001MJ COMMODITY FLAVOR & SPICES INC.                        1605
A0101406330472313284001ATTY. MAMERTO Z. MONDRAGON                               0505
B0101406330000000162478JOSE JR.,IGNACIO/REGIO,ELISA/SAYOS,MA.CE                11602
B0101406330000000162478CILIA/MATRE,DANI                                        21600
A0101406330472479118001JENNIFER DY OR KENNETH DY                                0501
B0501400170481015881001TOYOTA DAGUPAN INC.-2                                    1615
B0501400170481023482001ARZADON LEISURE CORPORATION                              1605
A0501400170481454752001GAGARIN, MELCHOR FRANCISCO                               0502
A1901400160000005632606BALMES, REINHILD ROSALES                                 0501
A1401400110000000628604LANDAYAN, CHRISTOPHER CRISTOBAL                          0501
A1401400110000000132896MORALES, RAIN DBU DIRL AND JANE                          0501
A1401400110000000628502MANALO, GLORIA GARCIA                                    0502
A0101407430503410640003ANTONIO M. ALERIA                                        0501
A0101408530000000035925CASTRILLO, MILISA CAOIBES                                0501
A0101408530516741704001FILIO, MARIA LEONORA FLORENDO                            0501
A0101411400000000230111NEPOMUCENO, ARIEL FRANCISCO                              0501
A0101411790000000469512FAN, LUCY                                                0501
A0101411790518055815008LOPEZ, MICHELLE ROSE RAMOS                               0501
A0101411790518055815027MANABAT, ELAINE BUNDALIAN                                0501
B0101403450521011604001CROWN ASIA COMPOUNDERS CORP.                             1601
B0101403450521237620001**********                                               1602
A0101403450521478374007********                                                 0501
A0101404000000003853138AQUINO, LAARNI MILAN                                     0501
B0101404000551005464003JOHN CLEMENTS CONSULTANTS INC.                           1620
A0101410690000000710990BUENAFLOR, ANNABELLE CALAGUAS                            0501
A0101407720000004664819RANESES, ERNESTO RODILA                                  0501
B0101407720000004959931PERFECT SKIN AND BEAUTY SOLUTIONS INC.                   1605
A0101407720602283353001ERWIN HERNANDEZ OR                                      10501
A0101407720602283353001AGNES HERNANDEZ                                         20500
A0101407720602496503026DR. JUANITO B. BILLOTE                                   0505
A0101412180000002340610YU, ROVE PAULO TUPAZ OR                                 10505
A0101412180000002340610YU, LORENZO TIBO                                        20500
A0101404260611157058001ALSOL, LUCIA HORMILLOSA                                  0501
A0101404260611451653004SUNGA, NERY OCAMPO                                       0510
B0101409890000006812735**********                                               1601
A0101411530000000741713**********                                               0501
A1301400500000007096753BALBUENA, ROLANDO CADIENA                                0501
B1301400500684026442002CJ PHILIPPINES, INC.                                     1601
A1701400230000004469643SALAZAR, MARIBETH DBU  NORTH                            10505
A1701400230000004469643TECH BUILDERS                                           20500
A0101408240711373157002UICHANCO, LETICIA NARCISO OR                            10503
A0101408240711373157002ABOLA, CYNTHIA                                          20500
A2801400230000002312481IGNACIO, NORA DACAYO                                     0501
B2801400230000000008379LAVADIA, WILSON DBU BACON MARKETING OR                  11601
B2801400230000000008379LAVADIA, ERLINDA                                        21600
A4101400260000001783571MANUEL, MA. CORAZON LILIBETH                            10501
A4101400260000001783571TANEDO                                                  20500
A4101400390813478374014ELIZABETH V. EVAL                                        0502
A4101400550000006044424MEDIAVILLO, MARK CHRISTIAN AGUI                          0502
B0101406750852023612001LAS PINAS CITY MEDICAL CENTER, INC.                      1610
A0101406750852620298001EMILY COLINA OR DOMINGO                                 10501
A0101406750852620298001COLINA JR                                               20500
B0101405070861008411002CASINO ESPANOL DE MANILA                                 1605
A0601400230000003638824ABARQUEZ, EDWARD BACANI                                  0501
A0601400230000003638926TUMANG, TEDDY CANLAS OR                                 10501
A0601400230000003638926TUMANG, FEBRUARY VELASCO                                20500
A0601400230000005185640DAVID, MARY CHRISTY ANN LALU                             0501
A0601400230000002650028CORDOVA JR., IGNACIO DBU NICHE                          10505
A0601400230000002650028ADVISORS                                                20500
A0601400230891254779001MEDIADORA OR JIMMY ANTHONY                               0501
B0601400230891821100608**********                                               2005
A0101403900501527626001CHESTER C. GO                                            0501
B0101418940012821200608**********                                               2002