B1501400140291821100608**********                                               2001
A0101402930381208083001LEONARDO S. CUEVAS                                       0501
A4101400420814520766027ARUTA, CORAZON G.                                        0501
A4101400420814520766081IBASCO, NENITA F.                                        0501
A0101406750000002950894RATCLIFFE, CELYNITA SIMEON                               0502
A0101406750000002040066GUIYAB, MA. ELENA ONCHER                                 0501
A0101400860000001348738************                                             0501
A0101400860011086656001**********                                               0503
A0101400860011386650002**********                                               0502
B0101400860011394967002**********                                               1605
A0101400860011581564001**********                                               0502
A0101400860011653651001**********                                               0503
A0101401250021471792001PIOQUINTO, DELIA ROSQUITES                               0501
A0101400150061087284001RODA, JULIUS R. DBU SJA TRADING                          0501
B0601400100081020786001MULDONG CONCRETE PRODUCTS & CONSTRUCTION                 1601
A0601400100081545371002CRUZ, LESLIE BARREDO                                     0501
A0601400520000005943400ARCEO, MARIA RACHEL ROMERO                               0501
A0101410560000001291010SUMAGAYSAY, JENNIFER MACHADO                             0501
A0101400730111195461002JOSE L. DIZON OR                                        10502
A0101400730111195461002JANICE D. DIZON                                         20500
A0101400730111386485199JULITA D. MERCADO                                        0501
A0101401830141205769001JOSEFINA V. VALMOCENA OR                                10506
A0101401830141205769001NANCY S. VALMOCENA                                      20500
A0101401830141206671002MISA, EILEEN FRIAS                                       0502
A0101401830000000865130ANGELES, ALTON GLENN NEPOMUCENO                          0502
B7201400170000003772981LADLAD, EMSA BANA                                        1601
B5001400170000000169857LINK RI LOGISTICS INC.                                   1605
B0101412920160063471001RIZAL DOLLARSTORE INC DOING BUSINESS                    11601
B0101412920160063471001UNDER THE NAME                                          21600
B0101400440161025954001DEX INTERNATIONAL CO.                                    1605
A0101400440000000060255LOUELLIN L. LIM                                          0501
A0101400440000000821538MARITES T. JIMENEZ                                       0501
A0101400440000000596630MARY ANN A. OYARDO                                       0501
A0101400440161478374076JAYNE D. BARBIN                                          0501
A0101400440161525001033MARY JANE V. MACALINAO                                   0501
A0101400440161525001139JEMARIE S. SALUDAR                                       0501
B0101407270162019034001FOOD FEST LAND, INCORPORATED                             1603
A0101401090000000037807BAUTISTA, BEVERLY MACAYAN                                0501
B0101401090171195606002REYNALDO JAVATE & MARCELINO BANZON &                    11601
B0101401090171195606002JESUS EUSEBIO JR                                        21600
A0301400530000001409621ARASA, ELEUTERIA A.                                      0501
A0301400660000002913259PADAPAT, ZALDY GEROMO                                    0502
B0301400660000003361971IMAGE CARS DAVAO, INC.                                   1610
A0301400950000000566723FERNANDEZ, NESTY VON CHI                                 0502
A0301400950000006080155SANDOVAL, STEPHEN LU                                     0501
A0101401380201501412001MEDINA, RUEL LIM                                         0501
A0101410720000006128792G.R.O.W. ENTERPRISE                                      0501
A0101413600000005794621ROMMEL G. DE JESUS                                       0501
A3101400160221062981001CARVAJAL, DBU CARLOS A CARVAJAL                         10501
A3101400160221062981001RESTAURANT JT                                           20500
A3101400160221478374058MARIBEL S SIBOR                                          0501
A3101400870000002007727LUMBRIS, ZAHRA DAYO                                      0501
A3001400130000002303560PULIDO, PEARL ANN DAY                                    0501
A3001400130000006145148FERNANDEZ, ALICIA LASCUNA                                0501
A3001400130230520766002CALLANGA, JEGER                                          0501
A1001400190231273213001TOGLE, ROBERTO OR GILDA                                  0502
A1001400480000003357679SUMANDO, EXEQUIEL MANUEL                                 0503
B1001400480000004097154SABAL HOSPITAL, INC.                                     1610
A0101400570281419686001ANTONIO C. VALERA III                                    0501
B0101411240283061941001JUSTRIGHT PHARMACEUTICALS                                1601
A2601400270000000019601THELMA P. GARCIA OR HENSON                              10503
A2601400270000000019601JESUS A. DULDULAO                                       20500
B2601400270302037885001ISABELA LA SUERTE RICE MILL CORPORATION                  1605
A2601400270000001009050BATTAD, AURELIO DBU AUB CONSULT                         10501
A2601400270000001009050MGT&ENGINEERING SERVICES                                20500
A0801400160311478374056CECILIA B. ASTROLOGO                                     0502
B1101400120000000652937SALINAS, ANTONIO DELA CRUZ AND                          11605
B1101400120000000652937LLAGA, DAVID S.                                         21600
A1101400120000001547520TAN, MELVIN NATHANIEL ANDRADE                            0502
A1101400120000006186478BOLECHE, MERLINE BANDALA                                 0502
A6601400120314674720001OSITO SOMORAY JR.                                        0501
B0101402350000005645781BHUBHANESH INTERNATIONAL BUSINESS                       11603
B0101402350000005645781VENTURES INC                                            21600
A0101405650000002325640ZIOUTOS, ALEXIOS S.                                     10504
A0101405650000002325640OR ZIOUTOS, JULIZELLE                                   20500
A0101405650000005284493LOPEZ, IMELDA MARCOSA LAUDE                              0501
A0101402510000000200073MAGNO, IMELDA ROY                                        0501
A0101402510000000200175BARTOLOME, MAAN ROSE TIBERIO                             0501
A0101402060000000358463JOROMO, VERALYNN ALMARIEGO                               0501
A0101402060000000445436J. ANTONIO FORWARDING SERVICES                           0501
A0101409050000002333284NAVARRO, DON SHERWIN GENE VIM J                          0501
A0101408790000005293632LAUREN ANN PASCUA                                        0501
B0101402770391027408001INDANG VILLAGE COMMERCIAL CNTR. INC                      1601
A0101402770391218209002REYES, ELEANOR BORJA                                     0501
A0101409180000000874619DOMINGO, CARMENCITA ALIMARIO                             0501
A0301400820000004746101FAMACION, RAMSEY DBU JARED SUIT                         10502
A0301400820000004746101ES OR FAMACION, BEULAH                                  20500
B5501400120410042322003TRUMPH MOTORCYCLE CORPORATION                            1601
A5501400120000006976596FIGUEROA, RONELLYN BILLONES DBU                          0510
A5501400120410622095001CORDER, JAIMELITA OR EDWIN                               0505
A2401400180411272640001VICKY M. BOJE                                            0502
A2401400180411658464001FRUTO, RUTH GENAYAS                                      0501
A2401400180411752561001OSORIO JR., EUGERLY JANOLINO                             0501
A0901400220432761897001PELINGGON, VIVIAN GUZON                                  0502
A0101410140000000499372MARVIDA, FRANCIS BORROMEO                                0501
B3801400170000000018788MINDORO PPA EMPLOYEES MULTI-PURPOSE                     11605
B3801400170000000018788COOPERATIVE                                             21600
B1401400110492046339002******                                                   1620
A0701400260000002339095BERNARDO JR., JAIME MIRALLES OR                         10502
A0701400260000002339095BERNARDO, CYRIL                                         20500
B0101405940512018663001MIX MASTERS INC.                                         1609
B0101405940512023451001MILKPACT PHILS. INC.                                     1602
A0101405940512155853001HIGINIO C. TAN OR CAROL M. TAN                          10501
A0101405940512155853001OR CHRISTOPHER M. TAN                                   20500
B0101408110515017881001GROUP MANAGEMENT CORPORATION                             1603
A0101408110000000202768**********                                               0502
A0101408530000000136310MIRABUENO, PIERRE PAULINE                               10503
A0101408530000000136310RIVERA                                                  20500
B0101408530000003866126HOPPLER INC.                                             1602
A0101408530000006599855**************                                           0502
A0101408530516765274111*************                                            0501
B0101403450521012075001**********                                               1610
B0101403450521238245001**********                                               1604
A2201400250561026927001FILTERED SURE                                           10502
A2201400250561026927001PURIFIED DRINKIN                                        20500
A0101404130601692777001PASCUAL, GAMALIEL CABRERA OR                            10505
A0101404130601692777001PASCUAL, MA. LOU                                        20500
A0101407720602346136002DR. SIXTA NAVARRO-FORONDA OR                            10510
A0101407720602346136002DR. J.D. FORONDA                                        20500
A0101407720602399405002CLAVER P. RAMOS, M.D. OR                                10503
A0101407720602399405002THELMA E. RAMOS                                         20500
A0101407690652478374179LENIE ANDO - DEALERS OF                                 10503
A0101407690652478374179SHOECAT INC                                             20500
A0101413570000001720285ARCEO, MARIA DESIREE RAMOS                               0501
A0101413570000001069501MEMBERS OF NATASHA                                      10501
A0101413570000001069501SUSANA B. SANTOS                                        20500
B0101413990000006498117KASAGANA-KA DEVELOPMENT CENTER, INC.                     1608
A0101408240711219571001MERCEDES M. OLIVER                                       0502
A0101408240711480752001ESTACIO, GERONIMO CAPULONG JT                            0501
A4101400260000001135011OMELGO, RAMIL MERSADO OR                                10502
A4101400260000001135011OMELGO, MARIVIC                                         20500
A4101400260000006043061DEPANO, ABEL DBU EXCELLENT                              10502
A4101400260000006043061DEPANO DENTAL CLINIC                                    20500
A4101400260812245001001AILEEN S. CAMPOS                                         0504
A4101400420814478374144JOCELYN TALANA                                           0501
A4101400550000003839190ORTIZ, JOHN MEMITA                                       0501
A4101400550000000006093DONAYRE, MARIA LETICIA P. OR                            10501
A4101400550000000006093DONAYRE, ROMEO B                                        20500
A0101412340000007065325CARLOS VINCENT D. CAPUCION                               0501
A0101404840851046725006MELA M. GEROLAO                                          0501
A0101406750000007879143LUCILLA, JELYN GLORIA                                    0501
A0101406750000001491732SUPAN, YANEZA STA MARIA                                  0501
B0101406750852023612001LAS PINAS CITY MEDICAL CENTER, INC.                      1610
A0101405070861478374086MARLYN C. GABEST                                         0502
A0601400230891013164002FOXFIRE INDUSTRIAL SALES                                 0501
A0601400230891527563001MELINDA M. MANALO                                        0501
A0601400230891627261001RAMOS, ANGELITA BAUTISTA                                 0503
