A1101400120000000065121ALVARADO, LIEZEL CASINO                                  0501
A0301400530000000065832PERIAS, FE                                               0501
A0101406750000000173000SUMANG, WILFREDO SALONGA                                 0501
A0101413440000000183680LORENA D. FADERANGA                                      0501
A0101404420000000471921SANCHEZ, MARY GRACE BERNABE                              0501
A0101407720000000510512SALUD, CARMENCITA ESGUERRA                               0501
A0101407690000000587811BANAAG, ARVIN PECSON                                     0502
A0101400150000000807421MIGUEL ENCARNACION                                       0501
A0301400820000000814179JUBAN, MYRNA G.                                          0501
A0101402930000000859770METT MOTIVATIONAL ENGLISH TRAIN                          0502
A3001400130000000931333K AND S ENTERPRISES                                      0502
A4101400550000000981900UMENGAN JR., FELICISIMO BATOON                           0502
A0301400530000001009961IBOT, LETHLE P.                                          0501
A0301400820000001027832TORRES, REY P.                                           0501
A0101412890000001056320LICUP, MARIANITA ROQUE                                   0501
A0101412890000001056542FLORES, MYRAFLOR PABLO                                   0501
A6601400120000001065383ALEXANDER SY OR RITA NILA CHY                            0503
A4101400260000001673496SUNIEGA, FREDERICK FLORES                                0501
A0101403320000001803065BIGORNIA, GISELLE MORA                                   0501
A1401400110000001806975ORIBIANA, MARK JOHN PASILABAN                            0501
A0101401960000001844486**********                                               0501
A0101413440000002339573CABRERA, LEOTHENY ALBANO                                 0501
A0101404680000002845981CABRIETO, BERNIE DELA TORRE                              0501
A0101400860011413316001**********                                               0503
A0101400860011468485001MANALO, DAISY PICAZO                                     0502
A0101400860011478374007**********                                               0501
A0101400860011566268001**********                                               0503
A0101401700041311242002**********                                               0510
A0101400150061292057006SISON, GIDEON GOCHIOCO                                   0502
A0101400150061777201002SANTOS, ALEXANDER ARAGON                                 0501
A0601400360083576587001ANICIETE, NOEL DABU                                      0502
A0101400730111386485155EVANGELINE F. TUMAMAO                                    0502
A0101400440161039572032IAN PAUL A. PADILLA                                      0502
A0101407270162528842001MIGUEL ROBERTO M. GARCIA                                 0503
A0101401090171195802001EVELINA N. LAGAMAYO                                      0504
A0101401090171468916002MA. GENEVIEVE R. FRANCISCO                               0502
A0101407140213385506002**********                                               0501
A1001400190231036837001RTD MARKETING                                            0505
A1901400290261016395001GOLDEN OIL GASOLINE STATION                              0502
A1901400290261478374030NATIVIDAD GONZALES MAGTIBAY                              0501
A1901400290261478374031REALYN MARASIGAN CUENCA                                  0503
A0101400570281186824001ALEX V. BUENAVENTURA                                     0506
A1101400120313478374077ROMO, ALILY P.                                           0502
A0101402060351211754001ABAD H. &/OR LOWIDA C. ALVARO                            0501
A0101402060351217441011EMMANUEL Y. GO                                           0501
A0101402930381350846004ROWENA G. BACANI                                         0501
A0101402930381472659001MA ELIZABETH F. ESTANISLAO                               0501
A0101408950396186576001POBLETE, ROSEMARIE JEAN JAUCIAN                          0502
A0101408950396563723001CELLONA, CLARISSA VILLARAMA                              0502
A0101403580511156580005MANUEL R. GUILLERMO                                      0502
A0101403450521238265001**********                                               0502
A0101404130601027289001JULIUS L NONO                                            0501
A0101407720602496503021URRIZA, MAGDALENA                                        0501
A0101407690652045019001AXIS ROOF SERVICES                                       0502
A0101410720653478687001ABANALO, ADORA AMANTILLO                                 0501
A1301400210682073330001MICHAEL M AQUINO                                         0502
A0101407560686478374069ROLANDO PATAC                                            0502
A0101408240711405706001CONDE, SHEILA LLANES                                     0501
A2801400100712487899001NOCUM, LEANDRO CASTELO                                   0503
A4101400260812246078001EMILANIE J. ESTOCADO                                     0502
A4101400390813478374059CUEVAS, MERIAM                                           0501
A4101400420814520766077DOMINGUEZ, SYLLIE                                        0501
A0101406750852298552032FLORDELIZA L. RETARDO                                    0502
A0101406590000000035418YONG, JAMES LESTER C. AND                               10501
A0301400530000000066033XU, CHARLES EDUARD BARCELA OR                           10503
A1901400290000000135173JUDE RECINTO SEMANA OR                                  10502
A0101408240000000522001OROBIA, JOSE RAMON INUMERABLE                           10501
A2401400180000001935895MAGBANUA, JOAN SANTOS DBU NJM E                         10501
A0101401250021528042001UBALDE, JUMAR TALENTO OR                                10501
A0301400530193504844168NEO, IAN OR                                             10502
A0301400530193702921168SELGAS, ROBERT U. OR                                    10501
A1901400290261040973001ICT-ED INSTITUTE OF SCIENCE                             10502
A0101402510341031743001H.R. RAPOSON ARCHITECT &                                10501
A0101402510341196467001GLORIA VERA OR                                          10502
A0101402930381505507001TRINOS, ROCHELLE VERANO OR                              10502
A2401400180411478374061JUNRES AGAD OR                                          10501
A0101407690652462352001DYTOC, JULIET SIA                                       10501
A0101407690652478374027MARILOU S. BAGON - DEALERS OF                           10501
A0101407690652478374034EDNA D. PENALVER - DEALERS OF                           10501
A0101407690652478374131TARROQUIN, NORA - DEALERS OF                            10501
A0101407690652525001075DOCDOCIL, GELITA - DEALERS OF                           10501
A4101400420814635620001CORPUZ, ELMER AGSALDA  OR                               10501
A0601400230891506645001SALLY M. DABU OR                                        10501
A0101406590000000035418YONG, ROSABELLE                                         20500
A0301400530000000066033XU, ZHIPEI                                              20500
A1901400290000000135173EVELYN UMALI SEMANA                                     20500
A0101408240000000522001OR OROBIA, ANNA KRISTINE                                20500
A2401400180000001935895WORKS                                                   20500
A0101401250021528042001UBALDE, ALONA POTESDA                                   20500
A0301400530193504844168NEO, MARY LORRAI                                        20500
A0301400530193702921168SELGAS, ELVIRA R                                        20500
A1901400290261040973001AND TECHNOLOGY, INC.                                    20500
A0101402510341031743001BUILDERS                                                20500
A0101402510341196467001RAMONA SIQUIJOR                                         20500
A0101402930381505507001AVILES JR., ISAGANI                                     20500
A2401400180411478374061NORMELITA BLANCO                                        20500
A0101407690652462352001OR FELIZA DYTOC                                         20500
A0101407690652478374027SHOECAT INC.                                            20500
A0101407690652478374034SHOECAT, INC.                                           20500
A0101407690652478374131SHOECAT, INC.                                           20500
A0101407690652525001075SHOECAT INC.                                            20500
A4101400420814635620001CORPUZ, AMELITA                                         20500
A0601400230891506645001BERNARDINO D. DA                                        20500
B1301400470000000009583PCCD  FOODS CORP.                                        1601
B0101407690000000025032GOLDLINK NETWORK SOLUTIONS INC.                          1601
B0601400360000000025750NT. LIVE INCORPORATED                                    1603
B0101400860000000030304****************                                         1601
B0101412210000000031530BREWS AND BLUES, INC.                                    1602
B0201401020000000042322MENDERO MEDICAL CENTER, INC.                             1601
B0101402930000000057481CENTURY PACIFIC FOOD, INC.                               1602
B2401400180000000073692BROTHERS D & D INC.                                      1605
B0101401380000000106721CFS BAREBOAT CORP.                                       1610
B1001400480000000133611TRADEMAX CORPORATION                                     1601
B0101413990000000206179M.A. SARSONA CONSTRUCTION SERVICES, INC.                 1601
B0101407690000000243923EVER READY CREDIT AND FINANCE CORP.                      1602
B0101408240000000832688YOUNG IL G5 CORPORATION                                  1601
B0101405940000000886740IMMERSIVE MEDIA, INC.                                    1601
B0101400860011305536001**********                                               1601
B0101400860011483267001**********                                               1602
B0101400150061009628002EASTMAN INSURANCE AGENCY, INC.                           1601
B0301400530193629929188FLORES, ANGELITO S. / MA. FE S.                          1605
B0101407140213039369001**********                                               1602
B0101401670271038486001POWER FASHION INC.                                       1605
B0101406620273025607003DELL EQUIPMENT & CONSTRUCTION CORP.                      1601
B0101400570281043944002EXLO MANPOWER AND ALLIED SERVICES, INC.                  1602
B0101405650322043032001LEAN MANAGEMENT AND PEOPLE SOLUTION                      1601
B0101402640361027755002CARE 1ST CORPORATION                                     1605
B0101402930381022284001INVESTORS ASSURANCE CORPORATION                          1601
B0101402930381022675002CEBU AIR, INC.                                           1603
B2401400180411040003002BRIGADA MASS MEDIA CORPORATION                           1610
B2401400180411042194088GSC ECOPARTS                                             1605
B0101403320471022749001LES SACS MANUFACTURING                                   1602
B0101403320471034459001LORDCHEM INTL. CORP.                                     1605
B1901400160491014714002TALUMPOK SILANGAN MULTI-PURPOSE COOP.                    1602
B0101403580511005189001SL SEARCH CORPORATION                                    1605
B0101403580511015363071MEC - SL - T5                                            1603
B0101403580511015363078MEC (DOJ)                                                1610
B0101403580511020857001ROBROS INCORPORATED                                      1603
B0101403580511155828001JOUBERT CONSTRUCTION INC.                                1610
B0101406880513023100003PENTACAPITAL INVESTMENT CORPORATION                      1610
B0101403450521011769001SAFEWAY CUSTOMS BROKERAGE, INC.                          1610
B0101407720602031597001A.F. NAVARRETE AND PARTNERS CO.                          1601
B0101407720602044366001A. ILUSTRE & ASSOCIATES, ARCHITECTS                      1602
B0101404680651006221002PRADO AND SONS INDUSTRIES, INC.                          1601
B0101407560686043296001REYGOR AUTO SUPPLY                                       1605
B4101400390813043479001UNITED IMUS DOCTORS, INC.                                1601
B0101404840851041620002JOY PLANET INC.                                          1603
B0101406750852023612001LAS PINAS CITY MEDICAL CENTER, INC.                      1610
B0101402510000000049272CAROLINA T. DELA CRUZ OR JERRY E.                       11601
B0301400950000000566912SOUTHGATE MANAGEMENT AND CONSULTANCY                    11601
B0101403320000001647149UNIGOLD EVENTS AND PROMOTION MANAGEMENT                 11602
B1001400190000003017789FELIX C. IGCALINOS DBU IFM GENERAL                      11601
B0101406620273026526002LAW FIRM OF KALAW SY VIDA SELVA &                       11601
B0101403320471008859001NEW LITE LUMBER & CONSTRUCTION                          11602
B0101402510000000049272DELA CRUZ                                               21600
B0301400950000000566912GROUP, INC.                                             21600
B0101403320000001647149INC.                                                    21600
B1001400190000003017789SERVICES                                                21600
B0101406620273026526002CAMPOS                                                  21600
B0101403320471008859001SUPPLY                                                  21600
