F0101407690652092681001ELMA CHONG OR EDUARD CHONG                               2501CKO
F0101411950000002691303BEYONDCONCEPTS INC.                                      2603CK1
F0201400180181051629001PRIFOOD CORPORATION                                      2602CKR
F6601400120314040469001ESD CRUZ CONSTRUCTION & SUPPLY                           2602CK1
F0101408370382046274001SMART DRIVING CORPORATION                                2605CKR
F0101407720602016082004SPURGEON SCHOOL (FOUNDATION),                           12605CKR
F0101407720602016082004INC.                                                    22600CKR
