F4101400260000001198745VILLANUEVA, MARIA VILINDA ENDAY                          2501CKO
F4101400390008133500318MA-MA'S HOPE HAVEN OF NORWAY, I                          2601CKR
F0101405780212025807002PITSTOP MOTORS (PSM) INC.                                2605CKR
F0301400240401030277088FIRST VITA PLUS MARKETING CORPORATION                    2610CKO
F0101411400517052551001BCMS INTERNATIONAL SPECIALTY CO                          2605CKR
F0101407690652034386001THE COLUMBIA GARDEN RESIDENTS                           12601CKR
F0101407690652034386001ASSOCIATION, INC                                        22600CKR
