B0101407690652821100608**********                                               2003
A0101403580511388107001ANTONIO G. PEDRO OR                                     10502
A0101403580511388107001FELISA C. PEDRO                                         20500
A1901400160000017146173FE D ORTIZ AND  MA. ISABEL G                            10501
A1901400160000017146173MANALO OR MIGUEL P LINA                                 20500
A1901400160000017145687ALVAREZ, DAWN ERIKA EVANGELISTA                          0501
A1301400760000017146311LILIAN G. DE RAMOS AND MARIA                            10501
A1301400760000017146311ADELIA T. VERGARA                                       20500
A0101402060351217441047CLARIZA C. EMALADA                                       0501
A2201400250000013859055CRUZ, MARIZA COCHON                                      0501
A2201400250000004405025*******                                                  0502
B1301400210000017071022MARINO LIZASO III TIRE SUPPLY                            1601
A0101401250000000057065VILLAS, ROGELIA L.                                       0501
B0101400150061010962002PHILIPPINE WELDING SOCIETY INC.                          1603
B0101400150061016361001ZONTA CLUB OF MAKATI                                     1610
B0101400150061016942007ASIA PACIFIC EXPRESS CORPORATION                         1605
B0101400150061046991001MILFORD DEVELOPMENT COMPANY, INC.                        1601
A0101400150000008307293LEUTERIO, ROMMEL MABBUN                                  0505
B0101400150061468081001MONTALBAN METHANE POWER CORP.                            1605
A0101405810072390933001**********                                               0502
B0601400100081013032001MT. VIEW BIBLE BAPTIST CHURCH                            1605
A0601400100081251939002ELIZARDO OR WILMA MARTINEZ                               0502
A0601400360000013099691DE GUIA, MARILYN OPIANA                                  0501
A0601400360000013101312PANIZA, SHEENA KAY MARQUELENCIA                          0501
A0601400520000004423192CARPIO, SHEILA BORRERO                                   0501
A0101400730000008619507*******************                                      0501
A0101400730000001016493CAMPOS, JOSE PAULO ESPIRITU                              0502
A0101412630000012146451AQUINO, RENE PAOLO TURINGAN                              0502
A0101401830141378973001ALBINO S. JACINTO JR., M.D.                              0501
A0101407270000013577836BARTOLO, ANNA MARIE TANSECO                              0501
A0101407270000014296876DOMAYAN, JOEL ALBERCA                                    0502
A0101407270162331908087MARTIN F. ALISANGCO                                      0501
A0101407270162673794001IMEE P. LIM                                              0502
B0101401090000017179256NORTH STAR PROFESSIONAL LEARNING AND                    11601
B0101401090000017179256DEVELOPMENT                                             21600
B0101401090171008012025UNIVERSITY OF SANTO TOMAS                                1602
A0301400530000017053060CAI, XINYI                                               0501
A0301400660000010221971DAYANGHIRANG, CAMILLE JOYCE RES                         10501
A0301400660000010221971TOR                                                     20500
A0301400660000008940989BANDAYANON, HEMERITO SENDIN                              0510
B0301400950000008869054MCG ENTERPRISE                                           1603
A0101401380000002297516PENUS, ALLEN VERICIO                                     0501
A0101413600000008442626GINA A. JUSAY                                            0502
A3101400160000011243911VICENTE, LINNETTE FRONDOSO                               0501
A3101400160000015271082MENOR, GLENN PHILIP NONES                                0502
A3001400130000008916127MANLIGUES, ELVIRA AGOT                                   0503
A1001400190000002170612BAJUYO, MARJORI B                                        0501
A1001400350000000922058ARENO, ANN JANE BUCO                                     0502
B1001400350233034673001AJ WOOD PRODUCTS, INC.                                   1601
A1301400470000011839662**********                                               0502
B1301400470000000009630FIRST KINGSTON LEISURE AND SERVICES                     11650
B1301400470000000009630CORPORATION                                             21600
A1301400470252634995001LOUISE L. ANG AND LOED L. ANG                            0510
A1301400760000012980913DIVINO L. FELICIANO OR GEORGINA                         10501
A1301400760000012980913C. FELICIANO                                            20500
A1901400290261635338001ERWIN R SALES                                            0501
A0101406620000013961867LACA, MARCELO DESIPEDA                                   0501
A0101406620000005394943CHIONG, CATHERINE SANTOS                                 0501
A0101406620000015713341PACULDAR, ANGELICA ALVIAR                                0501
A0101406620273577282001LUMIBAO, RICA RIVERA                                     0502
A0101410980000015371361FUENTES, CRISTY BEBEDOR                                  0501
A0101411110000016825213RUBIO, AL JOSEPH DE GUZMAN                               0502
A0101400570281343717001MARIA MARGARITA REGUDO ALMORO                            0503
A0101400570281532404001ONG, EARLEEN SENO                                        0501
A0101411240000016802972TAN, JECTOFFER JANS COLOMA                               0501
A0501400200000001081145MANIPON,W. DBU FA WELS CONSTRUC                         10502
A0501400200000001081145TION SUPPLY OR MANIPON,C.                               20500
A0501400200292567569001LARILYN D. GATCHALLAN                                    0501
A2601400270000002312221BETTY D. ABUAN JR. OR                                   10512
A2601400270000002312221JOCELYN C. ABUAN                                        20500
A2601400270302510455001MARIBEL L. DELA CRUZ OR MARIA                           10501
A2601400270302510455001GERABEL L. DELA CRUZ                                    20500
A0101402350321319273002VALDEZ, MIGUELA D. OR                                   10501
A0101402350321319273002VALDEZ, REDENCIO                                        20500
A0101402930381283088002JOSEPH VINCENT A. ALBA OR                               10502
A0101402930381283088002AGNES A. ALARILL                                        20500
A0101402930381305156001REDEMTOR S. DIAZ OR                                     10502
A0101402930381305156001MARIA LUISA B. D                                        20500
A0101408370000010833177NAVALTA, MICHAEL EDWARD ARELLAN                          0501
A0101408370382400439001DR.CORAZON JESUSA SERAFICA-DIAZ                          0501
A0101408370382410095001DR. EDNA C. BANTA                                        0510
A0101408790000000039063CO, MA. JULIETA LIM                                      0502
A0101408790000014004370PEREZ, MARK CLEMENTE                                     0501
A0101408790000004697145OLBES, JENNY VI MUNCAL                                   0502
A0101402770391529757028EDWARDO CORNELIO S. ALEGRID                              0501
A0101412210000001236106HERRERA, CHRISTINE ANG OR                               10502
A0101412210000001236106HERRERA, ERNAN CAYOS                                    20500
A0101412210000016640950SULIT, RON ALFRITZ STA. CRUZ                             0501
A2401400180000012748562JUVINREY TRADERS                                         0502
A2401400180411537301001**********************                                   0503
B5101400100000010370902ESTRELLA, FE BELESARIO DBU GOLDEN T                      1602
B0101403030441017706002**********                                               1601
A0101403320000012881773LACE, MARK ANGELO A.                                     0501
B0101403320471204827001IMMACULATE CONCEPCION PARISH                             1601
A0101410140000008159353LAMPA, MELODY RACHEL ARRIOLA                             0501
A1901400160000014869211DRA. RHEA LUMANGLAS EVANGELISTA                          0501
B1901400160491012578001NEMARIANS CREDIT CORPORATION                             1603
A1401400110000003475643*******                                                  0505
A0101407430000011167901PANGILINAN, JOHN PAUL ROSARIO                            0501
B0101407430000006027794OCEANSTAR TRAVEL & TOURS INC.                            1603
B0101407430503069253001NINE DRAGONS VENTURES                                    1602
B0101403580000007864386EYEC REALTY DEVELOPMENT CORPORATION                      1602
A0101403580511558749001HENRY D. ANTONIO                                         0504
A0101405940000015247744BELARMA, JANETH AGUITONG                                 0501
B0101408530516033397001SPRINGER INTERNATIONAL, INC.                             1610
B0101403450521441848001**********                                               1602
A2201400250000002337817JOVEN E. ANGELES                                         0501
A2201400250000012982891MALLARI, MARIANO FLORES DBU                             10502
A2201400250000012982891QDEL ENTERPRISES                                        20500
A2201400250561256082002JOSEPH P. CORTEZ                                         0504
A2201400250000012982726LYRA GRACE SANCHEZ-TORIO                                 0501
A2201400250000012982726LYRA GRACE SANCHEZ-TORIO                                 0501
A0101410690000000061834IQBAL, BERNADETTE G.                                     0501
A0101410690000000710672BADE, MINERVA V DBU E3V                                 10502
A0101410690000000710672ENTERPRISE                                              20500
A0101404130000009533206SARAH P. CANLAS                                          0503
B0101404130601024227001AQUATREAT ENVIRONMENTAL SYSTEMS INC                      1602
A0101404130601775194001SURIO, VADESHNA AQUINO                                   0501
B0101412180000008320125APPLE AIR TRADING INDUSTRIES INC                         1603
A0101404260611150836001CHING, WILSON OR SUSANA                                  0505
A0101407690000008045863SAMPOLLO, MARIO MANUEVO DBU MJS                          0501
A0101413570000011268283Joseph Anthony B. Fabia                                  0502
A0101406590662463813001CORONA, VIRGIE RAMIREZ                                   0501
B1301400210000005041109*****                                                    1604
A1301400210682478374062MA. ERLINDA C CHUA                                       0501
A1301400340000006402444PRINZ DENNIS TRUCKING SERVICES                           0503
A1701400230000016323892TAPEC, GLENN BAGUINON                                    0501
A0101408240000006600131SANTOS, GLENDA BRODETT                                   0501
A0101408240000010639342ARCE, MARIA ANGELA JEREZA                                0501
A2801400230000005752456ELBO, MALYN ANGELES                                      0501
A4101400390813478374005CHARON V. MAGBUO                                         0501
A4101400420000000120856NAPILI, EMELY DACOYCOY                                   0502
A4101400420000006643467CACA, MARIETA C                                          0501
A4101400420814520766064ANDAYA, AURORA A.                                        0501
A0101412340000007847274NERISSA F. FUCLAN                                        0501
A0101412340000003344323RONALDO G. LUCIANO                                       0501
A0101412340000003349006JEROME KRISTOFFER G. SOLO                                0501
A0101404840000017175247EGAGAMAO, EDUARDO PUNTA                                  0501
A0101404840000017175509PALMA, FRANCIS ANGUSTIA                                  0501
A0101404840851420697001LAYAO, FRANCIA CUETO                                     0502
A0101404840000003410033PARK, KI BOM                                             0501
A0101405070000006006133LOLITA SIM CO OR YVETTE SIM CO                           0502
