F0101406620273031795001FIRST VITA PLUS MARKETING CORPO                          2610CKR
F0101400570281042880001CATARMAN OIL MILLS, INC.                                 2602CKR
F0101400570281042883001DIPOLOG COCONUT OIL MILL, INC.                           2602CKR
F0101400570281042885001COCO DAVAO, INC.                                         2603CKR
F0101400570281434586001DR.IRMINIA C. MONTECILLO                                 2503CKO
F0101409050352040155001E.M. CUERPO, INC.                                        2620CKR
F0101408370382009005003ASSOCIATED EYE SPECIALISTS CO.                           2605CKR
F3101400580452217787005**********                                               2503CKO
F1301400210000000540845HQ GASOLINE STATION                                      2505CKO
F1301400210682083462001CENARE RESTAURANT AND CATERING                          12605CKO
F1301400210682083462001SERVICES, INC.                                          22600CKO
F1701400230693714245001VISIONAIRE, INC.                                         2505CKO
