A0101403320471442721001CANDIDO M. MANEJA OR                                    10502
A0101403320471442721001GLADYS MANEJA                                           20500
A0101405940000000061652RONA, MARILYN ARGENTE OR                                10502
A0101405940000000061652ASUNCION, ROGELIO                                       20500
A0301400530193760685002AGUILAR, AGUINALDO V. OR                                10501
A0301400530193760685002AGUILAR, DINA C.                                        20500
A0101411110000000604846ALAIN Z D. AMPONGAN DBU SIDERE                          10501
A0101411110000000604846MANAGEMENT CONSU                                        20500
A0301400530193617407001DAHILOG, FELY L. OR                                     10501
A0301400530193617407001DAHILOG, MA. EDI                                        20500
A3001400130000000931208BENDIJO, AMELITO MONDEJA OR                             10501
A3001400130000000931208BENDIJO, ERLEN A                                        20500
A6601400120314071890001MARTIRES, MYLA TURLA                                     0502
A0101401250000000441052ONGSUECO, SYLVIA K.                                      0502
A0101401250021536726001AURELIO D. RIVERA JR., OR                               10502
A0101401250021536726001CRISTINA E. RIVERA                                      20500
A0101400150000001422075MANDAP, MARK JOSEPH DUNGCA                               0501
B0101400150061027665001SYNERGY EXPERTISE INCORPORATED                           1602
B0101400150000001708583FLT PRIME INSURANCE CORP                                 1601
A0101400150000000053089BORLONGAN, IVAN RUDOLF RECABE                            0501
A0101400150000002394738CANO, MARIA THERESA R. OR                               10501
A0101400150000002394738RESMA, DOMINGA A.                                       20500
B0101400600071025563001**********                                               1601
A01014058100722345740013*********                                               0503
A0101405810072234684002TAN, RAYMOND                                             0501
A0101405810072385132001***********                                              0503
A0601400100081300983001MARILYN OR JONATHAN LACSON                               0501
A0101414090000003314872UY, SALLY TAN JT                                         0504
A0101410560000001944163CAINDOY, CHERRIE                                         0501
A0101400730111195439001TAN, ROWENA                                              0501
A0101400730111198892001RIGOR, ISAGANI Z.                                        0501
B0101401830141591649001OMNI PROVENTURE ENTERPRISES CORPORATION                  1601
A5001400170000001003410DY JR., DIONESIO K. AND                                 10502
A5001400170000001003410JUAN JR., MARLOU D.                                     20500
A0101400440000004889832APPLE A. MARASIGAN                                       0501
A0101400440161358347001MA. ELSA T. APOSTOL                                      0501
A0101407270000006373037ABIGAN, RONALD LAM                                       0501
A0101401090171196037001EMILIO A. HERNANDEZ JR.                                  0502
A0101401090171196089001ISABEL C. CO HUY                                         0502
A0101401090171444052002ROBERT PAUL V. JURADO                                    0503
A0101410720000004626324BERNAL, GELYN SADIWA                                     0501
A0101410720653173641001ISMAEL, LOLITA FABRE                                    10502
A0101410720653173641001OR ISMAEL, HUBERTO                                      20500
A0101410720653288723001BARANGAN, JOSEPHINE TUNGPALAN                            0506
A0101410720000000967900EFFINGER, JON ERIC                                       0502
A0101410720653503650001TAPE, ANA LYN HERRERA                                    0501
B0101410720653561759001KNOX.COM CORP.                                           1602
A0101410720653674611001TABIJE, JAY HANSEL INACAY                                0501
A0101413600000003134487MIRRIAM A. DELA CRUZ                                     0502
B3101400160221224862001JOYME ROCKSCAPES CORPORATION                             1602
A3101400450000001104043CARANZO, MARI BAGACINA                                   0501
A3101400450000004751713ALARVA, VIDAL VILLAPANDO                                 0501
A3101400450223365991001REYES, DR. RUEL RAMOS OR                                10503
A3101400450223365991001JANET JOY                                               20500
A3101400450223478374004MORENO, JONALYN                                          0501
B3101400740224821100608**********                                               2005
A3001400130230767566010PARINAS, ESTER LUCILLE K.                                0504
A1001400190000003017789FELIX C. IGCALINOS DBU IFM GENE                         10502
A1001400190000003017789SERVICES                                                20500
B1001400190000002170850RD PAWNSHOP, INC.                                        1603
B1001400190231029291001JAMESON CONSTRUCTION SUPPLY                              1610
A0101401670271186230001LETICIA R. MALOLES OR                                   10503
A0101401670271186230001TERESITA M. OLIVEROS                                    20500
A0101408660274630330001*****                                                    0501
B0101411110000000009043ACADEMY OF ST. ELIZABETH, LAGUNA,                       11601
B0101411110000000009043PHILIPPINES INC.                                        21600
B0101400570000003451498LUSH ENTERPRISES CORPORATION                             1605
A0101400570281079210001**********                                               0505
B6601400120314043609002FUNDACION GRAMEEN PILIPINAS INC.                        11605
B6601400120314043609002GEL BRANCH                                              21600
B6601400120314043609011FUNDACION GRAMEEN PILIPINAS INC.                        11605
B6601400120314043609011FEED BRANCH                                             21600
A6601400120314617951001AGUILANA, ALEX OR LILIAN                                 0510
B0101402350321031463001STATE ENTERPRISE                                         1605
B0101402350321046511001SIDAMO DISTRIBUTION INC.                                 1603
B0101402350000000046051ALLSTUFF TRADERS INC.                                    1603
A0101402350000002310736ARIAS JR., ISIDORO TANZO                                 0502
A0101402060351036454001TRITECH TRADING                                          0501
A0101402060351039707001GJD CARGO FREIGHT FORWARDING                            10502
A0101402060351039707001CO.                                                     20500
A0101409050352666540001PLACIDA A. NUNEZ OR JAYME G.                            10501
A0101409050352666540001NUNEZ                                                   20500
B0201400760374030466002A.D. GOTHONG MANUFACTURING CORP.                         1602
A0201400760374030540001ST. FRANCIS MANPOWER SERVICES                            0501
B0201400760374055989001GOLDEN GREAT PEAK ENGLISH INC.                           1602
A0101402930381350846004ROWENA G. BACANI                                         0501
A0101408370382205209002OCCENA, LUZVIMINDA MAYBITUIN                             0501
A0101402770391043391001IMPRENTA ISABEL                                          0503
A0101408400000001981702MARCELO, LEA DE GUIA                                     0502
A0101408400394419461001MARIA AURORA AQUINO BARROS                               0501
B0101408950000002768416H2004 VENTURES INC.                                      1604
A0101408950396576467001DR. JOANNA TERESA MARGARITA                             10501
A0101408950396576467001L. MANALO                                               20500
A0301400820000002106354VILLARAN, LUZ C.                                         0501
B2401400180411014550001GSC PROGRESSIVE MULTI-PURPOSE COOP.                      1603
B0101406330472021511001ASSOCIATED WIRE CORP. OF THE PHILS.                      1610
A0101406330000000011752JONAH ROMANO DBU AW ENGINEERING                         10504
A0101406330000000011752SERVICES                                                20500
A0101406330000000162616LAND OF THE PROMISE TRUCKING                            10505
A0101406330000000162616SERVICES                                                20500
A0101412760000001399328MANALAYSAY, VIRGINIA PALARUAN                           10501
A0101412760000001399328DBU AMITY GARMENTS                                      20500
A0501400170000000494702TOMELDEN, FELICE RITCHIE RAE                            10505
A0501400170000000494702DBU NOVAJEST MARKETING                                  20500
A1401400110000000034784ZENG, JUNQIANG                                           0502
A1401400110000000034784ZENG, JUNQIANG                                           0502
B1601400170494047397001FEDERATION OF BACMAN HOST                               11602
B1601400170494047397001COMMUNITIES, INC                                        21600
A0101405940000005068333TIOSECO, DAISY MAE CHUA                                  0502
A0101405940000000505775ROXAS, LINCOLN CHAN                                      0502
A0101408110000001823832PATATAG, WILFREDO DBU FLASSIQUE                         10503
A0101408110000001823832FINE FURNITURE & INTERIOR                               20500
A0101403450000001769811*******                                                  0501
A0101403450521478374007********                                                 0501
B0101404130601030412001EXODUS BROADCASTING COMPANY, INC.                        1605
A0101407720602294677001RAYMUND I. DURAN OR                                     10503
A0101407720602294677001IRENE MAE T. DURAN                                      20500
A0101407720602365124001FUNAKI, MITSUO FUNAKI OR                                10502
A0101407720602365124001SEIICHIRO MIYAMOTO                                      20500
A0101404260611478374077LUCIA CAPILITAN                                          0502
B0101409890649044639001BISKWIT CO.                                              1606
A0101413440000002846400STO. DOMINGO, JESSE J. OR                               10502
A0101413440000002846400STO. DOMINGO, MA                                        20500
A0101406590662289338001KIM C. DINO                                              0503
B1301400210682041444001SYCLOR CONSULTAX INC.                                    1603
A1301400500000002063792ANTONIO, ALBERT SILVA                                    0502
A0101408240711377201001CARMELITA OR DANILO POSADAS                              0502
B2801400100712041676001ANGELES FINANCING CORPORATION                            1601
A4101400550000000981900UMENGAN JR., FELICISIMO BATOON                           0503
A4101400550000002090962JESSIE CASTILLO OR PETER SIMON                          10502
A4101400550000002090962LARA OR EVANGELINE LUNAR                                20500
A4101400550000003267105MCMAR & MARY ELECTRICAL                                 10501
A4101400550000003267105& CONSTRUCTION SUPPLY                                   20500
A4101400550000003266982*****                                                    0501
A0101404840000004565891BEATRIZ P. REALCO                                        0502
A0101406750000004642006MALINIS, LISBETH MANALANG                               10501
A0101406750000004642006OR MARIO MALINIS                                        20500
