B0101400730111821100608**********                                               2005
B1901400160491821100608**********                                               2005
A2401400180000000826233OXALES, HANNAH LOUISE RAQUEDAN                           0501
B2401400180411021162002TBB & SONS MARKETING                                     1602
A2401400180411455559001VENDIX GEN. MERCHANDISE                                  0501
A2401400180411478374027ELLEN PANTUJAN OR                                       10502
A2401400180411478374027ELMER PANTUJAN                                          20500
A2401400180000000073469TAPUZ, JOSEFINO TORCUATOR                                0501
A0101400440161391940001*****                                                    0501
A3101400870000003515320PRINDIANA, JOSE JULIUS B. OR                            10501
A3101400870000003515320PRINDIANA, SHERYL A.                                    20500
A0101412210000013647793ESPEDILLON, CLAUDINE                                     0502
A0101400860000008653414***********                                              0501
A0101400860011234687001CLARENCE T. DUNGAN                                       0501
A0101400860011453407001**********                                               0501
A0101400860011690445001**********                                               0501
A0101401250021404038001SIMPAO, GERALDO JOSE LUIS RUIZ                           0501
A0101400150000000525240CORDOVA, DANILO BARTOLOME                                0502
A0101400150000003601101CHAN, ALFREDO IGARTA                                     0502
B0101400150000001708681IRC PROPERTIES INC.                                      1605
A0101400150061571188001ANTONIO, ANGELYN DALDE                                   0502
A0101400150000001422155MAMPO, JENELYN DIOLATA                                   0501
A0101400150061709306001NGABBU, ALFIE JOY BACANI                                 0501
A0101405810072381557004MATEO, ANALYN CASTILLO                                   0503
B0601400100081044923001PERT REALTY CORPORATION                                  1602
A0101400730111393421012RAQUEL A. STA CRUZ                                       0501
A0101401830141210005002BELEN A. GODOY                                           0501
A0101401830000001281910DE GUZMAN, CONCEPCION FRANCISCO                          0501
A0101401830141538820001YSRAEL G. REBULADO                                       0502
B7201400170000003773626**********                                               1605
B7201400170000003773717PERLA COMPANIA DE SEGUROS, INC.                          1603
A5001400170000000044982URBAN PAINTS & MORE ENTERPRISES                          0502
A5001400170000002288399BULANG, MARIA CHONA RECAMADAS                            0503
A0101412920000013816736HECHANOVA, JOHN PAUL BABIERA                             0501
B0101400440161026461001ADENIP, INC.                                             1602
A0101400440161030161001LYKA ENTERPRISES                                         0501
A0101400440000004889810MARILOU A. RAMISO                                        0501
A0101400440000000821301TOPCOM CONVENIECE STORE                                  0505
A0101400440161190481001HELEN LEONG OR ROSALINDA LI                              0501
A0101400440161344934001OCIDO, TERESITA JAVIER AND                              10501
A0101400440161344934001LEONOR J. MALLAR                                        20500
A0101400440161525001105VIRGIE B. CRUZ                                           0501
A0101400440161525001107ALMA B. JIMENO                                           0501
A0101400440161662700001RACQUEL M. NUVAL                                         0502
A0101407270000000511602JOSE ARNOLD T. ALVERO                                    0501
A0101407270000009286115CABILDO, MARICEL CARALDE                                 0502
A0101407270162502895001CRISTY C. SAMONTE                                        0502
A0101401090171067446001ABAD, J DBU ATELIER 1A                                  10501
A0101401090171067446001ARCHITECTS                                              20500
A0301400530000005300309VALDIVIA, ALICIA MARZON                                  0505
A0301400530000003573448GENTUGAYA, RIZAL OR GENTUGAYA,                          10501
A0301400530000003573448ROSITA OR ESPANOL, ROSALY                               20500
B0301400530000006477303BUENAS HOME CENTER CORP.                                 1605
A0301400530193060848001LEPA MILL MASTER                                         0501
B0301400530000008307755VALDIVIA, ALICIA MARZON DBU YUM SHI                      1602
B0301400660000003368405LU, JETTY JET JT                                         1601
B0301400950000006054064DVS MEAT DISTRIBUTORS, INC.                              1605
A0301400950000008869112GROVE TRADING AND CONSTRUCTION                           0503
B0101401380201042553001MUSTANG SECURITY AGENCY, INC.                            1605
A0101413600000003134589MARIESOL R. GIRANG                                       0501
A3101400160221671542001EVELYN L. CANDELARIO OR                                 10502
A3101400160221671542001DR. VIRGILIO R. LAZAGA                                  20500
A3101400450000002330392SIMBULAN, KARLA ANGEL HERRERA                            0501
B3101400450223028468001NEW ARMSTRONG SECURITY AGENCY                            1602
B3101400450223709906001SPC HARDWARE & CONSTRUCTION SUPPLY                       1602
A3101400870000000957655BITHAO, C DBU BP-1 CAR AUDIO                            10502
A3101400870000000957655AND ACCESSORIES                                         20500
B3001400130000008264911UNIBAKERS CORPORATION                                    1602
B1001400190231010692001PHILIPPINE IRON CONSTRUCTION & MARINE                   11606
B1001400190231010692001WORKS INC.                                              21600
A1001400350000002367393TALATALA, RAY-AN BOLONIA                                 0501
B1001400350233036889001TRYP BALI CORPORATION                                    1601
A1001400350000004095294LIMBO, EMMANUEL CHAVES OR                               10501
A1001400350000004095294LIMBO, HELEN MOORJANI                                   20500
B1001400480000000133440DAHILAYAN FOREST PARK, INC.                              1605
A1301400760000002346129JIMMY C. CENA                                            0502
A1301400760000008698968GILBERT TAYAO OR TIRSO FRANCO                           10502
A1301400760000008698968JR. OR DANTE HILARIO                                    20500
B1301400760000007820660VICTOR R. DEL ROSARIO RICE MILL CORP.                    1605
A1901400290261390520001JOEL PUNZALAN DIMAANO                                    0502
A1901400290261488341018ALBERT CESAR S FALLER JR                                 0501
A1901400290261488341030DRA ZENAIDA S PASION                                     0504
B0101401670271025034001M.P.S. FOOD CORP.                                        1603
A0101406460000009497783********************                                     0503
B0101406460000000182341TAMARGO, JOSEPH DBU ABSTRAK TRADING                      1601
A0101406460272702865022LAM, WAI PUN OR                                         10503
A0101406460272702865022LAM, MARY GRACE                                         20500
B0101406620000000193953PROSALES MARKETING CORPORATION                           1601
B0101406620273040510001DIAMOND CONCEPT, INC.                                    1604
A0101406620273720692001******                                                   0502
A0101400570281507259001MA. ELSIE M. DIMAANO                                     0501
A0101400570000001134252AMBATALI, JOSEPHINI PESCADOR                            10501
A0101400570000001134252OR JACINTO, ROSA                                        20500
A0101411240000013422656BAUTISTA, ALVIN ASTUDILLO                                0501
B0101411240283047591001MOVIMENTO 5 CORPORATION                                  1605
A0501400200292629981001ALAMAY JR., MOISES PANGLAO OR                           10503
A0501400200292629981001ALAMAY, PECKEY GAONGEN                                  20500
A2601400270000002312185MARY GRACE P. BUMANGLAG                                  0501
A2001400290000011380486LETHAM, ROWENA SARTE                                     0501
A2001400290000013257739LONGAKIT, VIRGINIA CHIN                                  0502
B2001400290315047753001SILLIMAN UNIVERSITY COMMUNITY COOP.                      1610
B0101402350321027314001HH ASTRO SALES CORPORATION                               1601
B0101405650322015699001ROTARY CLUB-PARANAQUE METRO SOUTH                        1601
A0101402510000000003083NERISSA M. ESCANILLA OR JEAN                            10501
A0101402510000000003083CATHERINE E. GOCON                                      20500
A0101402510341365778002JOYLYN L. MEJILLA                                        0501
A0101402060000002258999CAMBA, MARVIN CANETE                                     0501
A0101402060351211709001MARGARITA B. DINGLASA OR                                10502
A0101402060351211709001ERNESTO D. DINGL                                        20500
A0101402060351212245001MARIA MUTYA T. FAIGAO OR                                10501
A0101402060351212245001EUGENIE F. FAIGA                                        20500
A0101409050000008491043VILLAFLOR, RIA RODELAS                                   0501
A0101409050352600066001FAYE CARLIE CRUZ OR                                     10502
A0101409050352600066001BENSON RYAN CRUZ                                        20500
A0201400760000011472063PINEDA, ALFREDO BUHAY                                    0501
A0201400890376606828008**********                                               0501
A0201400890376667775001BUYSER, MISAN CANAS OR BUYSER,                          10501
A0201400890376667775001RENZIE RAFAEL CA                                        20500
B0201401020000003031130RDC PETROLEUM TRADING CORPORATION                        1601
A0101408370382212341001ENGR. LEORICO E. SAMONTE OR                             10501
A0101408370382212341001DR. CRISTINA C. SAMONTE                                 20500
A0101408370382319789001ROCHELA B. CUAYCONG OR                                  10501
A0101408370382319789001CESAR A. CUAYCONG                                       20500
A0101408370382416471001DR FRANCISCO JAVIER D MILLAR                             0501
A0101408790000005251423FILOMENO, KYLE CAESAR RONQUILLO                          0501
A0101408790000012313221KIM, DONGKEUN                                            0502
B0101411660384821100608**********                                               2002
A0101402770391211318001TRINIDAD ESPINOZA OR                                    10501
A0101402770391211318001MANUEL ESPINOZA                                         20500
A0101402770391558606001CRUZ, MELISSA PRADO                                      0501
A0101405490000006299843LIBERATO, RHYAN ODENCIO                                  0502
A0101405490000013773509DE PAZ, ROLAND MICHAEL V. OR                            10501
A0101405490000013773509FRANCISCO, MA. GRACE M.                                 20500
A0101405490392333608002NAOMI S. PURISIMA                                        0502
B0101408400394030457001LAZER SUPERIOR INSTRUMENTS INC.                          1601
A0101408400394473872001ARCA, ROWENA LUGTU  OR                                  10502
A0101408400394473872001ARCA, EMMANUEL D                                        20500
A0101408400000001835230DILIDILI, JAYDIELOU BACANI                               0502
A0101412210000001236139GONZALES, NOEL MANDOCDOC                                 0501
A0101412210000001236293JOVEN, RODEL PELONIA                                     0501
B0301400820409821100608**********                                               2003
B5501400120410041754001KENDRICK PETRON STATION                                  1604
A2401400180000007031574HAO, YOLANDA GARCIA OR                                  10501
A2401400180000007031574HAO, HENRY GO                                           20500
A2401400180000012748700BETONIO, JAMES TUAZON DBU                               10502
A2401400180000012748700SAGUMAY AQUA VENTURES                                   20500
B2401400180411031958001***********                                              1605
B2401400180411034431001ALLIED PACIFIC PACKAGING SOLUTIONS                       1603
B2401400180411042194088GSC ECOPARTS                                             1605
A2401400180000002146334OMAY, Z DBU CRIZA ENTERPRISES                            0502
A5101400100000011336980REVILLA, EVANGELINE COLINARES                            0502
A0101403030441239100002**********                                               0502
A0101403030441490531001**********                                               0502
A0101403320000004831032********                                                 0501
A0101403320471633972001CRISTINA LOYOLA YSMAEL                                   0501
A1901400160000002291498GLENDA CRISELDA L ATIENZA OR                            10501
A1901400160000002291498MIGUEL ROY L ATIENZA                                    20500
B1901400160491046052001BANAPRA DEVELOPMENT COOPERATIVE                          1603
A1901400160491366464001ANA MARIA H BALMES                                       0502
A1401400110000005526661ARIAS, BELEN MATILDE BONUS                               0502
B1401400110000012353274BPROPERTY MANAGEMENT AND HOLDINGS I                      1605
B1401400110492028287001MARYHILL COLLEGE, INCORPORATION                          1605
B1401400110492044975001RAQUEL PAWNSHOP, INC                                     1602
A0101411790518055764174INOFERIO, AARON NEIL AVANZADO                            0501
A0101411790518055815041MAYUGA, AARON LORENZ PIMENTEL                            0501
B010141179051805692200188 INFINITY LENDING POOL INC                             1601
A0101411790518094095001MAGCALE, EVANGELINE BORJA                                0502
A0101412050000012912402WEN, CHUN-HUNG                                           0501
A0101412050000012912395TU, TE-I                                                 0501
A0101412050000012912384LU, YAN                                                  0501
B0101403450521079217001DEPORRESANMAR CORP.                                      1602
A0101403450521238571002*********                                                0501
A0101403450521397819001**********                                               0501
A0101403450521520443001**********                                               0503
A0101403610531475509001DE BELEN, VICTOR CONCEPCION                              0505
A2201400250000010425413ORENA, WALTER PUBLICO                                    0501
A0101404130601708628001PABALATE, PACITA BATAC OR                               10501
A0101404130601708628001PABALATE, HELENA                                        20500
A0101407720602316120001LUCIA CASTRO-FORES OR                                   10501
A0101407720602316120001MIGUEL EDGARDO F                                        20500
A0101412180000007360370VILLANUEVA, EUGENIO DEL ROSA JT                          0502
A0101404260000013778722DOMINGO, PAUL BENJAMIN NICOLAS                           0501
A0101404260000013809504JEFFERSON C. CARLOS                                      0501
A0101404260000006374252MENDOZA, DAISY LAPIDEZ                                   0501
B0101409890000012558679ESQUEJO, ROMMEL DBU KISMET CONSTRUCTION                 11602
B0101409890000012558679AND SUPPLY                                              21600
A0101413570000001720143JOCELYN S. STEVENS                                       0501
A0101413570000005867430*******************                                      0501
A0101413570656057648286AMELIA VILLAMOR                                          0502
A0101406590000003007063ALMERIA, JANSEN BACANI                                   0502
B0101406590000000035561WINNVES CORPORATION                                      1602
B0101406590000003007336OUTBOUND EDUCATION AND INTERNSHIP I                      1602
B0101410300000000026428INTERIOR ASIA CONSTRUCTION SUPPLIES &                   11602
B0101410300000000026428SERVICES CORPORA                                        21600
A1301400210000011696054JUAT, EMELITA CAPISTRANO                                 0501
B1301400210000000915651CPK REALTY & DEVELOPMENT CORPORATIO                      1601
A0101408240000012882463AMIL, CHRISTIAN JAMES ASISTIO                            0501
B0101408240000000005596SILAYSANDIEGO LENDING INVESTOR, INC.                     1602
A0101408240711384215001PAUL LOUIE M. TUGADE                                     0505
A0101408240711386762004TUGADE, PAUL LOUIE MADDELA                               0503
A0101408240711402155001EMMANUEL OR LEE THERESE LLIGE                            0501
A0101408240711443671001CARMENCITA C. GUIAO                                      0501
A0101408240711449000001PECACHE, MONICA BAGATSING                                0501
A0101408240711546479001TIBURCIO, NOEL OR MARIA ALYN                            10501
A0101408240711546479001OR NOMER                                                20500
A0101408240711619524001BAUTISTA, ROSALYN P. OR                                 10501
A0101408240711619524001ELISEO                                                  20500
B0101408240711691416001FIVESOME INC.                                            1601
A0101408240711721738001AURELIO, LEAH LUZURIAGA                                 10502
A0101408240711721738001OR AURELIO JR., MANUEL P.                               20500
A0101408240000006600244CARAG, KATHRYN CONCEPCION                                0502
B2801400100712024726001SWEET TOOTH CORPORATION                                  1608
B2801400100712035008001ASIA INTERNATIONAL AUCTIONEERS, INC.                     1620
A2801400100712507001001*****                                                    0503
A2801400230000011730420GURAY, ANITA BASA                                        0502
A4101400390000000048695BUGAYONG, FRANCIS MEDINA                                 0501
A4101400390000000975151MARIO D. ZAMORA                                          0502
A4101400390813478374035MICHAEL E. PLACIDES                                      0502
A4101400390000001732412PEREA, PAUL JOSEPH VILLAS                                0502
A4101400390813775566002MARIO C. TUAZON                                          0502
A4101400550000003839281DE LEON, ARLENE OCAMPO                                   0501
A0101412340000003438793TALASTAS, EDWARD BALA                                    0501
A0101412340000003438839RECTO, CHARISSE BALBIDO                                  0501
B0101404840851041585002TOM'S WORLD PHILIPPINES CORPORATION                      1601
B0101404840000000004111TOM'S WORLD PHILIPPINES CORPORATION                      1601
B0101404840851047431001ISUZU AUTOMOTIVE DEALERSHIP, INC.                        1601
A0101404840851398016002HERBERT A. CHITO OR                                     10503
A0101404840851398016002ADORACION M. CHITO                                      20500
A0101406750000000480988ALEXANDRIA CARGO SERVICES                                0505
B0101405070861019832001NICE TRAVEL & TOURS, INC.                                1603
B0101405070861025030001***                                                     11601
B0101405070861025030001***                                                     21600
B0101405070861042250001ASSOCIATION OF INTERNATIONAL SHIPPI                      1601
A0101413860000000858971BALASAN, MA. NANCY TIMBAL JT                            10501
A0101413860000000858971BALASA, JORGE HILVANO                                   20500
B0101413860000000145275CON-PAC WAREHOUSING INCORPORATED                         1605
A0601400230000003015823ALURA, JIMMY SUENO                                      10502
A0601400230000003015823OR ALURA, MERLE                                         20500
