A0101400150000000806677EMELITA G. PURISIMA                                      0501
A0301400950000002115231**********                                               0501
A0101413860000010948042SY SU, KARL MATTHEW CO                                   0501
A0101401250000000907211CORRALES, RITA M.                                        0501
A0101401250000004374681LEE, ENGELBERT DELA CRUZ                                 0502
A0101411370000002269343**********                                               0501
A0101400150000010773721SEAN T. CERENO                                           0501
A0101405810072554045001**********                                               0505
A0601400100081023131001ADYR TRADING                                             0506
A0601400100000002365380VALERIO, NARDITO GONZALES DBU                           10502
A0601400100000002365380JUNAR                                                   20500
B0601400100000002099221JETTWORLD INTEGRATED CORPORATE SERV                      1610
B0601400100081251905009TAN, WILFREDO OR SALVADOR, ROWENA                       11603
B0601400100081251905009OR SULA, REGINA                                         21600
B0601400100081251905010TAN, WILFREDO OR SALVADOR, ROWENA                       11603
B0601400100081251905010OR SULA, REGINA                                         21600
A0601400520000005001374LAXAMANA, KC OHLA VALENCIA                               0502
A0601400520000001349560MAGAT, ALLAN MANLAPIG DBU MAGAT                         10501
A0601400520000001349560ACCOUNTING FIRM                                         20500
B0101413730000000144636**********                                               1602
A0101410560000003562014CASTELO, JOIE M.                                         0501
B0101400730111032131001WORKMEN'S LENDING CORPORATION                            1601
B0101400730111035655001FSL INT'L. MANPOWER & PROMOTION SERVICES                11601
B0101400730111035655001INC.                                                    21600
A0101400730111478374198DE VERA, NORLINDA                                        0502
A0101400730111585447001VELASQUEZ, WENCY DALISAY                                 0501
A0101401960000002331813LADARAN, LANI VILLANUEVA                                 0501
B0101413310000006144685GERUND INC.                                              1602
B0101401830141068064001THE BARKING ZOO PH. CO.                                  1601
A7201400170000011201224AGUISANDA, CATHERINE LAGERA                              0501
A0101400440000008234633AHMAD A. HASSAN HAGHIGHI FARD                            0501
A0101400440161039572069IMELDA A. ESTRADA                                        0501
A0101400440161525001010JULIETA S. CEBUJANO                                      0501
B0101400440161548227001JR 888 INC.                                              1610
A0101407270162629425001CO, LOLITA SY                                            0501
A0101401090000001618651BERNARDINO, REYLAN OROS OR                              10502
A0101401090000001618651FERNANDEZ, MYRA                                         20500
A0101401090171039151001ECOWASTE MANAGEMENT COMPANY                              0502
A0101401090000001619023BANAW ENTERPRISES                                        0501
A0101401090171201339001GASPAR A. TOLENTINO                                      0502
A0101401090171314587003AURORA S. CRUZ                                           0504
A0101401090171618288001ANDREA MARIE OR JONNIFER                                10501
A0101401090171618288001MENDOZA                                                 20500
A0301400530193060848001LEPA MILL MASTER                                         0501
B0301400660000000194989WEST JBT RESTAURANT GROUP CORPORATION                    1605
B0301400660000000194934WEST JBT RESTAURANT GROUP CORPORATION                    1605
A0101401380000000682684ALLAUIGAN, BERNARD UMAYAM                                0503
A3101400160000004362765MA TERESA L RODRIGUEZ                                    0501
A3101400160221529439001ESTELLA MARIE M RAMIREZ                                  0502
A3101400450000005960501*****                                                    0502
A3101400450000005960501MARANTAL, ANDY DIOKNO OR                                10504
A3101400450000005960501SALAZAR, JAY ABRENA                                     20500
B3101400450223016839001LANDCO PACIFIC CORPORATION                               1603
A3101400870000002963375ARABIT, AIRYN LIM                                        0502
A3101400870000005410100GATDULA, GLADYS DIONISIO                                 0501
A3001400130000008916263DALUGDOG, SHELA CAMINSE                                  0502
B1001400190000002170850RD PAWNSHOP, INC.                                        1605
B1001400190231036837001RTD MARKETING                                            1605
A1001400190231520766103BALCUEVA, CESAR S.                                       0501
A1001400190231520766128MAGLANGIT, JONIE QUIACAO                                 0501
A1301400760000005990003ROWENA D. ALVAREZ                                        0501
A1901400290261567865001ALEX IAN SISON DE LA CRUZ                                0501
B01014016702710417910014 PI SQUARE KINDER SCHOOL INC.                           1605
B0101401670271041791003A PI SQUARE KINDER SCHOOL INC.                           1605
A0101401670271189366002RUBI A. NGO                                              0502
A0101401670271291657001ROMULO M. SANTOS, JR. OR                                10502
A0101401670271291657001KATHERINE LOURDE                                        20500
B0101406620273821200608**********                                               2002
A0101410980000001154318REA M. VALENZUELA                                        0501
A0101410980000002303862DE GUZMAN, DIANE ROSE CARPIO                             0501
B0101410980000000171975**********                                               1602
B0101410980000000171975AMMC - AVERY MANILA MARKETING CORP.                      1603
A0101411110276068072001DELA UMBRIA, E DBU CLEARSKIES                           10501
A0101411110276068072001TRAVEL AND TOURS                                        20500
A0101400570000000749593MANOLITO M. TURALBA                                      0502
A0801400160311413609001LIM, JOSEPH PO                                           0505
A6601400120314694059001BANTILO, DEODATO LUTAO                                   0501
B2001400290315047753001SILLIMAN UNIVERSITY COMMUNITY COOP.                      1610
A0101402350321354933003YOLANDA UY                                               0501
A0101402510341196657001AMELIA G. RUBIN DE CELIS                                 0501
A0101402060351211809001ALBERTO TAYENGCO                                         0501
A0101402060351217441018JOSEPH PAUL J. JAURIGUE                                  0501
A0101409050000003536532LOPEZ, SHIELA MAE                                        0501
B0201400760374249471002COMMONWEALTH INSURANCE COMPANY                          11603
B0201400760374249471002-OPERATING FUND                                         21600
A0201400890000007877487LI, RONG GUI                                             0505
A0201400890376745254001BUYSER, IAN CHRISTOPHER COLETO                           0501
A0101402930000010657840VILLAREAL, JENNIFER TIPDAS                               0501
A0101402930381387448001DRA. MA. PAZ PAULA M. RAMA                               0503
A0101402930381472197001ALEXANDER G. HAROCHOC                                    0501
A0101408370000006446466CANSANA, BERNALYNN ERIS MATEO                            0501
A0101408790383633624001JIM STENIEL TAN GAWSON                                   0502
B0101411660000000032191QUANTUM AMUSEMENT CORPORATION                            1602
B0101411660000009219945ADEKAYA 1ST CORP.                                        1602
A0101402770000007413950FALLARIA JR., BENJAMIN OBSUM                            10503
A0101402770000007413950DBU BF & MF ENTERPRISE                                  20500
A0101405490000004353064MORALES, ADELAINE MARIE ALMEDA                           0501
A0101408950396615148001COBARRUBIAS, PAUL DESTREZA                               0502
A0101409180000004375991LEONEDDA MASLOG                                          0501
A0101409180000009769260AMAD, APRIL JOY MADRINAN                                 0501
B0101409180397821100608**********                                               2010
B0101412210399061660001NEWMINCO PACIFIC MINING CORPORATION                      1601
A0301400820000000316670TIONG, ARISTON D.                                        0501
B0301400820000008995486COMEDIDO, DANTE L. DBU DL COMEDIDO                      11605
B0301400820000008995486BAKESHOP                                                21600
A5501400120410675739001BAYLON, EDWIN ELLON                                      0501
A2401400180411330256003CHARLES L. LIM OR                                       10503
A2401400180411330256003LETICIA Y. LIM                                          20500
A1201400150421655515001RANI, SITA                                               0501
A0101403030441413980001**********                                               0502
A0101403320471078260001JOSON III, TOMAS NORIEL                                  0502
A0101403320471478374077RAISY L. MAMARIL                                         0501
A0101403320471603471001BADIOLA JR., DANILO GARIANDO OR                         10501
A0101403320471603471001BADIOLA, RADLYNE                                        20500
B0101406330472034614001TRI-SM PROFESSIONAL SERVICES, CO                         1603
A1401400110492029549002TRIPTORS DIAGNOSTIC CENTRE                               0504
A1401400110492222234003MARTINEZ, FERNANDO PELIPADA OR                          10504
A1401400110492222234003MARTINEZ, MA. LU                                        20500
A0101407430503505447001PORFIRIO B. TIZON                                        0501
A0101403580511327187002LUDIVINA MAGPANTAY                                       0502
A0101405940512368428001*****                                                    0502
B0101408530000003865958VXI GLOBAL HOLDINGS, B.V. - ROHQ                         1605
A0101411790518055764298FRANCISCO, OLIVER DELOS SANTOS                           0501
A0101412050000005330169SADULANG, FLORLYN GRACE RUBI                             0501
A0101403450000001769708**************                                           0501
B0101403450521012105001**********                                               1601
A0101403450521240531001**********                                               0501
A0101403610531068069001CARANDANG, JOEL S DBU AMC                               10501
A0101403610531068069001AIRCONDITIONING JT                                      20500
A0101403610000006637078MORANDO, ALAN REYES                                      0505
A2201400250561253929002BENJAMIN DAVID CUDAL                                     0501
A2201400250561478374026MINDA S. BLAYA                                          10501
A2201400250561478374026MEMBERS OF NATASHA                                      20500
B0101404130601022494001ARE BEST INTERNATIONAL, INC.                             1604
B0101404260611047841001PR GAZ, INC.                                             1605
A0101409890649721922001DEL POSO, REYNALDO JIMENEZ                               0501
B0101409920000009981851NORTHERNLAND REALTY COMPANY                              1603
A0101409920000005460782MEMBERS OF NATASHA, SHOECAT INC                         10502
A0101409920000005460782DELOS SANTOS, CHARIE R.                                 20500
A0101413570000005867292NORTHEASTERN ENGINEERING                                10502
A0101413570000005867292SERVICES                                                20500
A0101413990000006278237DE CASTRO - AGBUYA, HAYDEE AMOR                          0501
A0101413990000005252642RAMOS, CHERISH IVY DE GUZMAN                             0502
B0101414120000000649138GREEN CONCEPT SYSTEMS PHILS. INC.                        1605
B1301400210682032957001PCCI FINANCE CORPORATION                                 1602
B1301400210000000915673EDCON CARGOTRANS, INC.                                   1602
A0101408240000008854344ORDONEZ, NATHALIE OR NICOLE                             10501
A0101408240000008854344MICHELLE OR MARCO ALFONSO                               20500
A0101408240711640902001AGUINALDO, MARLENE A. OR                                10501
A0101408240711640902001AGUINALDO, RODERICK R.                                  20500
A2801400100000002253692SUBIERA, JERALD BASINILLO                                0501
B2801400100712298202002WIDE-WIDE WORLD EXPRESS CORP.                            1603
A2801400100712488902001CHUA, ROSEMARIE CRUZ                                     0501
A4101400260000009533564ESTOCADO, EDITHA JARDINIANO                              0505
A4101400260812460928001FELINA S. ANTANG                                         0501
A4101400390000000379180LIBATON, NENA MORALDE                                    0501
A4101400420814342049001MENDOZA, DIVINA LORY ANN E. OR                          10510
A4101400420814342049001MENDOZA, GILBERT                                        20500
A4101400420814418225001LOPEZ, ROSALINA OR                                      10502
A4101400420814418225001LOPEZ JR., RODRI                                        20500
A4101400420814520766102EUFRACIA TINGEL                                          0501
B4101400550000000900014CAVITE PEOPLE FOR SOCIAL CONCERNS MULTI                 11605
B4101400550000000900014PURPOSE COOP                                            21600
A0101404840000001312736ALVAREZ, MARY ANN A.                                     0501
A0101406750852236873002SISORA OLGAH ELUMIR                                      0501
B0101405070861022986001SEVEN RED DIAMOND CORPORATION                            1610
A0101405070861027133001WORLDLINKS CABLE WORKS                                   0502
A0101413860000000145020DASIGAN, ANGELITA GONZALES                               0501
