A1301400760000000007223GLENDA S. DACANAY                                        0502
A5001400170000000044960VILLAFUERTE, CELESTINO AMPLAYO                           0504
A0101406040000000096866********                                                 0505
A4101400420000000120696CARMELA G. ROMA                                          0501
A0101412630000000180414BONIFACIO, JOCELYN MADRID                                0501
A0101412340000000319497PINEDA, IMELDA PEREZ                                     0502
A0101408240000000521920REVILLA, WILMA GUJELDE                                   0501
A4101400420000000710223ROMERO, MARICRIS BAUTISTA                                0501
A0101412500000000739657****                                                     0501
A0101410850000000778827MABOLO ENTERPRISES                                       0502
A0101400150000000806906DE LEON, CAROLINE TUAZON                                 0501
A0101413020000000880553***************                                          0502
A0101401250000000907095SY, JANETH M.                                            0501
A0101412630000001485270DU, MARK HENRY CORTEZ                                    0501
A0301400820000001554707MANAUG, ANICETA R.                                       0501
A0101407270000001596810CHARL LESTER E. QUIJANO                                  0502
A0101401090000001611369SULQUIANO, REX HERRERA                                   0501
A0101410140000001940041ATTWOOD, BARBRA JANE VICTORIA                            0501
A1001400190000002170612**********                                               0501
A0101406330000002277983SY, AREN ROBERT SANTOS                                   0501
A0101409890000002326752EVANGELINE GONZALES ALFONSO                              0502
A0101410850000002356761**********                                               0502
A1101400120000002789833PORMIDA, JAYPEE GO                                       0504
A0101409210000002802688JUNGAYA, MARIA REINA MARTIREZ                            0501
A0101405490000002880675NERLITA T. VILLENA                                       0502
A0101413990000002962883BUHAIN, VICTOR PEREZ                                     0501
A0301400950000002975035NANCY B. MORALIZON                                       0501
A0101410980000002987075GEORGE GO OR ELISA NGO                                   0503
A0101400150000003141306MORALES, NORIEL MAGAN                                    0502
A1101400120000003197211HERNANDEZ, MAY CONDE                                     0503
A0101412340000003344807SHERYL A. NAGALES                                        0501
A2401400180000003949122RAMOS, RENE ANGELO FAMORCAN                              0501
A0101412340000004359917GLENN R. GREGORIO                                        0501
A0101412340000004360143SHEILA MARIE Y. SERAFICA                                 0501
A0101412340000004360490RONICA ARLENE M. EUGENIO                                 0501
A0101412340000004543748MARIA VANESSA P. MADRONA                                 0501
A0101400150061227793004**********                                               0501
A0101400150061777201002SANTOS, ALEXANDER ARAGON                                 0502
A0601400100081501761001TAN, WINTHEL OR RALPH                                    0501
A0101400730111477011001SAMSON, CECILIA DURAN                                    0501
A0101401960121238800001***************                                          0504
A0101401960121505415001************                                             0501
A0101400440161039572036ANTONIO S. VILLANDA JR.                                  0501
A0101407270162333003004MAURO C. AGUSTINES                                       0502
A0101401090171197483001ANNA LEA L. ENRIQUEZ                                     0501
A0101401090171531698001MARIA ISABEL D. CORNEJO                                  0501
A3101400870225056928001GABA, A DBU CRM ENTERPRISES                              0502
A1001400190231478374056AMANTIAD, MAY                                            0501
A1301400470252638757002*****                                                    0502
A0101410980275424608001LIM, CARMEN RITA GOMEZ                                   0501
A0101400570281344782001LYDE ALDAY-MAGPANTAY, M.D.                               0501
A0101400570281359812001DR. HECTOR A. DELURIA                                    0503
A2601400270302567227001ROSITA TAN VALLE                                         0501
A2001400290315746119002BUHISAN, CAROLINE LU   JT                                0505
A0101402350321179400001NILDA Q. APISTAR                                         0505
A0101402510341325995001ALEX TAN LIM                                             0501
A0101408370382477581001JOVITA DIOLA-PEREZ                                       0501
A0101405490392341023001JAZMIN P. GONZALES                                       0502
A0101408400394028638001A. SANCHEZ CARGO SERVICES                                0503
A0101408400394409317001BANDWAGON ENTERPRISE                                     0502
A0101403030441239047001**********                                               0501
A0101406330472027958001A. ANOLIN ENTERPRISES                                    0502
A0101406330472478374041ROSEMARIE A. NAPIGKIT                                    0502
A0501400170481255549001*****                                                    0502
A0101407430503333427002GODOFREDO V. PALASIGUE                                   0501
A2201400250561043302001JREL BAKESHOP                                            0501
A0101407720602375361002SANTIAGO, CARLOS FRANCIS ARCEO                           0501
A0101407720602466238001EDUSMA-DY, REGINA TAN                                    0502
A0101407720602471605001UY, HELENE BERNICE GO                                    0501
A0101404260611150837001EMILIANO OR MARIETTA REYES                               0503
A0101404260611151571001GUANZON CHING OR ROCHELLE CHING                          0502
A0101404260611151571002GUANZON CHING OR ROCHELLE CHING                          0502
A0101407690652678597001HERRERA, ALICIA ARCEO                                    0501
A0101406590662694250001VIDANES, ELIZABETH ALVIAR                                0501
A1701400230693478374031VILMA R. BAGAY                                           0501
A0101408240711381977001VALENCIA, DEORI DEANO                                    0502
A2801400100712401674002DEL ROSARIO, DANILO LARACAS                              0501
A4101400420814520766110DELA CRUZ, ARMINDA E.                                    0501
A0101404840851542980001MASANGCAY, NORA VERCELES                                 0501
A0101406750852530398001REYES, LOLITA LARGADO                                    0501
A0101410140000000499076DE VELLERES, DOROTHY T. (MEMBER                         10501
A0101401090000000993302FLORIAN R. NUEVO OR                                     10502
A1601400170000001069158HULAR, MILAGROSA HAPAL DBU                              10502
A1601400170000001069192GALVADORES, THRESSE ERICA                               10501
A0301400530000001409774DUMALUAN, MARIA LUZ D. OR                               10510
A0101407690000002348843PABLITO G. BENEDICTO JR. OR                             10502
A0101404840000003069889MIRANDA, JACK DBU BESTREAD                              10505
A0101408400000003104672ALFREDO R BAUTISTA OR MARIE                             10501
A0101413600000003134636EDRICK N. TULOD OR                                      10501
A4101400420000003715655DEPANO, ABEL GONZALES DBU                               10503
A0101401090171225530001BEE-GIOK TAN-SALES OR                                   10501
A3101400160221557336002JOSELITO M GUEVARRA OR                                  10501
A3001400130230757981001SACAY, RENE CANTOR OR SACAY,                            10506
A0101402350321179570001NEAL ORTEZA OR                                          10501
A0101402060351653390001ACAYAN, MARY ANN OR                                     10501
A0201400890376056207002MARDZ AIRCONDITIONING SUPPLY &                          10501
A1401400110492023002001THESAURUS DRUGSTORE & GENERAL                           10505
A2201400250561424857001ELEN L. YUTUC                                           10501
A2201400250561478374026MINDA S. BLAYA                                          10501
A0101407720602161918001MARY ANNE LUCIANO-AMON OR                               10503
A0101407720602397494001GENARA M. LIMSON M.D. OR                                10501
A0101410140000000499076S OF NATASHA (SHOECAT                                   20500
A0101401090000000993302MA. CRISELDA R. NUEVO                                   20500
A1601400170000001069158GM ENTERPRISES                                          20500
A1601400170000001069192VILLARIN                                                20500
A0301400530000001409774DUMALUAN, DOLORE                                        20500
A0101407690000002348843JULIE V. BENEDICTO                                      20500
A0101404840000003069889TRADING                                                 20500
A0101408400000003104672ANACELLE ROSARIO BAUTISTA                               20500
A0101413600000003134636EDGARDO S. TULOD                                        20500
A4101400420000003715655EXCELLENT DEPANO DENTAL                                 20500
A0101401090171225530001RENATO SALES                                            20500
A3101400160221557336002JOVEN M GUEVARRA                                        20500
A3001400130230757981001JOSEPHINE SIMBIT                                        20500
A0101402350321179570001IMELDA OLIVAREZ                                         20500
A0101402060351653390001ACAYAN, JACINTO                                         20500
A0201400890376056207002SERVICES                                                20500
A1401400110492023002001MERCHANDISE                                             20500
A2201400250561424857001OR ROY Y. YUTUC                                         20500
A2201400250561478374026MEMBERS OF NATASHA                                      20500
A0101407720602161918001JONATHAN M. AMON                                        20500
A0101407720602397494001ANTONIO LIMSON                                          20500
B3101400740000000013889IM DIGITAL PHIL INC.                                     1605
B0101410140000000038942FLOM ENTERPRISES, INC.                                   1603
B1401400110000000167446SOUTHERN PROCESSING CORPORATION                          1606
B0101410980000000172052REAL VISION PROPERTY SOLUTIONS INC.                      1601
B0101406330000000432682MAGAYON EMISSION TESTING CENTER, INC.                    1602
B0101406330000000432897MITC EMPLOYMENT AGENCY INC.                              1602
B0101405650000000772732LEISURE FARMS TAGAYTAY, INC.                             1601
B1301400210000000915582PMAP BULACAN CHAPTER INC.                                1601
B0101404130000003105751GOLD NUGGETS HAULING AND TRUCKING CORP.                  1602
B1301400470000003270124FMN DEVELOPERS CORP.                                     1610
B0101400150061028045003CENTERPOINT CSGT DISTRIBUTION, INC.                      1601
B0101400150061044881001PRICE PRODUCT TESTING SERVICES INC.                      1601
B0101400150061044905001RISING TIDE MOBILE ENTERTAINMENT, INC.                   1605
B0101400150061058102003BRIGHT RANGE OPERATIONS INC                              1601
B0101400150061058106003ADVECT MARKETING CORPORATION                             1601
B0101400150061584014001PNEUMATIC AND MECHANICAL SERVICES INC.                   1602
B0101400440161037708002RD CASH PADALA, INC.-AREA 1                              1603
B0301400530193555747168YANG, CHAO CHENG                                         1605
B0101401380201041802003D'GLACIERS' MGM INC. - ALABANG                           1601
B3001400130230042943088VENTURA PLYWOOD PHILIPPINES INC.                         1610
B1001400190231014206001PANABO MULTI-PURPOSE COOPERATIVE                         1603
B0101406620273034224002JDS CONSTRUCTION PHILS., INC.                            1602
B2001400290315045753001HOTEL PALWA                                              1610
B0101402350321738079001OLIVAREZ GENERAL HOSPITAL INC.                           1610
B0101408400394028375001LEARN AND PLAY BOOK STORE                                1601
B2401400180411035164001MOMMY GINA TUNA RESOURCES (MGTR), INC.                   1610
B2401400180411043008008TBB PETRON                                               1602
B0101410140475046427001EQUAL LENDING INVESTOR CORPORATION                       1610
B2201400250561016484001BARON FARMS CORPORATION                                  1615
B0101407720602029713001MMC - SECTION OF NEUROLOGY                               1601
B0101409920650058086001MANNICK COMMERCIAL TRADING CO.                           1601
B0101408240711039263001STALWART REALTY, INC.                                    1620
B0101404840851041620003JOY PLANET INC.                                          1602
B0101411530654046834001ALPHA HILLS DEVELOPMENT AND                             11605
B0101411530654046834001MANAGEMENT INC.                                         21600
B0201400180181821100608**********                                               2010
B1301400760253821100608**********                                               2003
