B0101405070861821100608**********                                               2002
B0101413860862821100608**********                                               2003
B0101412920160059095001TORIBIO, EMELY DUAY DBU HIC PRINTING                    11602
B0101412920160059095001SERVICES                                                21600
A0101403450000014728373LAO, CHIN MENG A.K.A. LAO, RICK                          0502
A0101409050000013769732LIM, RAYMOND ANTHONY                                     0501
B0101402930381021740001YOSHINOYA CENTURY PACIFIC INC.                           1605
B0101402930381033256001BENMARK GROUP HOLDINGS, INC.                             1606
A0101402350000000019127ARDIENTE, MARIA CORAZON C. OR                           10501
A0101402350000000019127ARDIENTE, EDUARD                                        20500
A0101402350000005645172GARCIA, ELFLEDA MENDOZA                                  0501
A0101403320000014818610RIVERA, GILCHRIST S.                                     0502
A0101403320471417333001GAVINO S. CRUZ OR                                       10505
A0101403320471417333001BERNADETTE T. CRUZ                                      20500
A0101403320471464326001HILDA C. SALONGA                                         0505
A0101412630000007158172STA. CRUZ, CONCEPCION LAZARO                             0501
A0301400950000002115202GUEVARRA, GEMMA D. OR                                   10502
A0301400950000002115202GUEVARRA, ARTURO                                        20500
A0101403320000016119692SIAROT, MICHELLE J. OR                                  10501
A0101403320000016119692MUJERES, REYNALD S.                                     20500
B0101403320000018021802YUSI, MARLON G. DBU KEN-MAR                             11601
B0101403320000018021802CONSTRUCTION                                            21600
B0301400530000014433837GFD78 COLOUR STATION, INC.                               1603
B0301400530000012016936RVSONS CORPORATION                                       1603
B0301400530000000025378D' UNIBUENAS CORPORATION                                 1603
A0101412500000002304810BOCAR, FE NIBAL                                          0501
A0101412500000003289992******                                                   0501
A1001400350000015675520ABML DATA-ONLINE SERVICES                                0501
B0101402350321042551001KRAUSE VILLAGE HOMEOWNERS ASSOCIATION                    1601
B0101400150061047262001SUPER GT MOTOR SALES AND SERVICES INC.                   1604
B0101400150000004703439IDEAMORPHOSIS INCORPORATED                               1610
A0101400150000000000022FORTU, ANNE LORRAINE FESALBONI                           0502
B0101400600071536828001CLAXTER GENERAL MERCHANDISE INC.                         1620
A0101405810000014656972OCAMPO, REMEDIOS CRUZ                                    0502
A0601400100000013802307SAMSON,EVERSON R. DBU FOREVER                           10501
A0601400100000013802307VICTORY TILES & TRADING                                 20500
A0601400100081322973001ARUELO, ADELINA VILLAR                                   0502
A0601400360000018063908TAMAYO, ANGELICA AMURAO                                  0501
A0601400520000013872665SALINAS, JOEY BANHAO                                     0502
A0101410560000014510862MARTINEZ, GEREMIAH DUNGCA                                0501
B0101401960121238699002SO, PONCIANO CHUA                JT                      1601
B0101401960121608874001**********                                               1602
A0101412630000009425178AGUSTIN, RHELLY BIHASA                                   0501
A7201400170000006487518ARANDING, LIZA MEDADO                                    0502
A7201400170000011454390ANDIGON, GINA NANO OR                                   10501
A7201400170000011454390ANDIGON, JESSIE MUNDO                                   20500
A7201400170000015855204CATIPAY, JOHNNY VILLADAR                                 0501
B0101400440000017916219EVARM TRADING                                            1601
A0101400440161478374189CORAZON C. BOLA                                          0501
A0101400440161525001095MARITES T. TAPIADOR                                      0501
A0101407270162682596001DELOS REYES, MYRNA MIRANDA                               0501
A0101401090171364681001CRISELDA OR RAYMUND REYES                                0510
A0101401090171391935001JULIE CHRISTIE G. VISPERAS                               0501
B0301400530193022834168DAVAO ORCHARD ROAD, INC                                  1610
A0301400790000001010682ASTILLO, EDGAR AGTON                                     0501
B0101410720653035483001GERMALIN ENTERPRISES, INCORPORATED                       1602
B0101410720000000968112*******                                                  1602
A0101412500000018034812BACALLO, ALEXANDER SUAREZ                                0501
B3101400160000010010610FRANCISCO P GARCIA & CYNTHIA T ALARCON                  11610
B3101400160000010010610& LEILA D TORRES                                        21600
A3101400160000014779345CENTENO JR., ROBERTO RICO                                0501
B3101400160000010010752PASEO UNO DE CALAMBA, INC.                               1610
A3101400160221478374052MARTA L BONDOC                                           0501
A3101400160000001559286MICHELLE ROXANNE S MALLARI                               0501
A3001400130000014779772CORREOS, RUTH CUSAP                                      0501
B3001400130000000007029CROSS LUG TRADING                                        1601
A3001400130230478374022TUAN, MARY GRACE AMADOR                                  0501
A1001400190000005709140TAN, RENARIO TOYLO                                       0502
A1001400190231520766032TACBOBO, BEATRIZ WABE                                    0501
A1001400190231520766042GEOTORO, INES MANGUILIMOTAN                              0501
A1001400190231629873001BOMEDIANO, ANASTACIA SEMAFRANCA                          0502
A1001400480000014023433RANIDO, LORNA ZAMBRANO                                   0502
B1001400480234821100608**********                                               2003
A1301400470252490222001ALAIN CRISPIN W. WY OR                                  10501
A1301400470252490222001ARLENE D. WY                                            20500
A1301400760000000050422RAFAEL DR CLEMENTE                                       0502
B0101406460000000182443FLATPANEL TVS FOR LESS INC.                              1601
A0101406620273528771002***************                                          0501
A0101410980275771013001**********                                               0502
A0101411820000005380110***********                                              0501
B0101400570000005666219AMSIR DEVELOPMENT CORPORATION                            1602
A0101411240000017806185MANEJA, LENNIE BACUDIO                                   0501
B0101411240000017831375MORENO SHARWIN JAMES MORTA DBU LIZION                   11601
B0101411240000017831375DELIVERY SERVICE                                        21600
A0501400200292735444001OYAMAN, GENEVIVE ABANDO                                  0505
A2601400270000007951177RAYMOND RUEL D. VALLE                                    0501
A2601400270000014231306QUIJANO, RAYMOND GUILLERMO                               0501
A2601400270000012492541TAN, JIM CORNEQUE DBU GLORY                             10510
A2601400270000012492541GRAINS CENTER                                           20500
A2601400270000012492570DARREL N. ALIVIA DBU DRAGON                             10502
A2601400270000012492570MINE HAULERS                                            20500
A0801400160311478374039LEONORA J. ESFORMA                                       0502
A1101400120000000652380CAYUBIT JR., SERAFIN ASERON                              0501
A1101400120000000652351YAO, RONALD PHILIP GO                                    0502
A6601400120000010637533SIERVO, OWEN LAMBERTO LUTAO                              0502
A6601400120000018074796IFUN LEARNING AND ACTIVITY CENT                          0502
B0101405650322025100001GLOBAL PACKAGING SYSTEMS AND MATERIALS                  11601
B0101405650322025100001CORP.                                                   21600
B0101405650000002960741LEAN MANAGEMENT AND PEOPLE SOLUTION                      1601
A0101405650322172164002AQUINO, CHRISTIAN CASTRO                                 0501
A0101405650000000348903ESPERANZA F. BAYLON                                      0502
A0101405650000003491412DE JESUS, CARLO FRANCIS CRUZ                             0502
A0101405650322617005001GANA, JOSE MA. ESCALER                                   0502
A0101402510000011695142ANATALIO, MELANIE SABALBORO                              0501
A0101409050000012409722ABARRO, HECTOR ABELLA                                    0503
A0101409050000007526670MANUEL, VC DONALD JIMENEZ                                0501
A0101409050000017374940FLORES II, JAMES VINCENT SALVAD                          0501
A0101409050352718990001DOLORES T. ONG OR PATRICK                               10501
A0101409050352718990001RICHMOND T. ONG                                         20500
B0201400760000013668716GO, HERBERT JOSEPH GALLANO DBU FGO                       1602
A0201400920375048147001COLONIE PEST CONTROL                                     0502
A0201401020377046499001TEH, MARIA ELENA BLANCO DBU                             10503
A0201401020377046499001E.T. PRINTSHOPPE                                        20500
A0201401020000000055952DANO, JOSIE DANAS                                        0502
A0101402930000014435895PASTRANA, MERCEDITA GONZALES                             0501
B0101402930000005645996BENMARK GROUP HOLDINGS, INC.                             1603
B0101402930000005645985MAGIC BROTH, INC.                                        1620
A0101408370382212341001ENGR. LEORICO E. SAMONTE OR                             10501
A0101408370382212341001DR. CRISTINA C.SAMONTE                                  20500
A0101408370000015475780NILDA T. TESTADO                                         0502
A0101408370000000476660MENDOZA, MONALISA SIMPAO                                 0501
A0101408370000000586038QUINIO, IRENE BALLICAS                                   0501
A0101408790000014004421APARTE, JOSE ARIEL DATOR                                 0502
A0101408790383046687001ROB.L CONSULTANTS                                        0502
A0101402770000017065220CAPISTRANO, JENNIFER F. OR                              10502
A0101402770000017065220CAPISTRANO, HERBERT L.                                  20500
A0101402770000015748937TANQUECO, SHEELAN KARL ALCANTAR                          0501
A0101402770391211308001FELIZARDO, ANTHONY AMAN JT                               0502
A0101402770391242648002YABUT, LEILA VICENCIO                                    0501
A0101402770391355762067HOMER P. PONESTO                                         0501
A0101405490000015229393CRUZ, DENNIS MALICDEM                                    0501
B0101405490000003905173KANITY PRINTING INC.                                     1604
A0101405490000004808668DAISY B. MAJAIT                                          0501
A0101408400394572175001MANALAYSAY, ERICKSON TABLANTE                            0501
A0101408950000000776683DY-AGRA, GUINEVERE NGO                                   0504
A0101408950396645140001TATCO, VINCENT REYES                                     0502
A0101409210000013276541DE GUZMAN, ROMMEL PINEDA                                 0502
B0301400820000000814135DIGOS MARKET VENDORS MULTI-PURPOSE                      11605
B0301400820000000814135COOPERATIVE                                             21600
A5501400120000015560940DELFIN, MANDY ALIP                                       0502
B5501400120000007963377EASY PAY FINANCE CORPORATION                             1610
A2401400180000012748517ENRIQUEZ, ANNA LISA AMISTOSO                             0502
A0901400220000000012299GAYON, MARINA TACHADO                                    0502
A5101400100000015857342SANICO, FELOMINA SOTTO                                   0501
A0101403030441240960001**********                                               0501
B01014063304720209890011 TO 1 MARKETING INC.                                    1610
A0101410140000011288823LANORIAS, JOVENNES D. DBU JDL B                          0501
A1401400110492029549002TRIPTORS DIAGNOSTIC CENTRE                               0505
A1601400170000001069056CHRISTOPHER S. CO                                        0505
A0101407430000013169865TONG, MICHAEL SAN DIEGO                                  0502
A0101407430000013868610JACQUES KATE G. CALVEZ-DIOKNO                            0502
A0101408530000017209917LAGOS, JESSICA NERA                                      0502
A0101403450521037347002********                                                 0501
A2201400250000002337817JOVEN E. ANGELES                                         0502
B2201400250561026458001SDE (PHILIPPINES) CORPORATION                            1605
B0101404130601030838001ELEV 8 MEDIA, INC.                                       1610
B0101404260000004781324AMAZIGRACE MANPOWER SERVICES                             1650
B0101404260000004781324AMAZIGRACE MANPOWER SERVICES                             1628
A0101404260611478374028ARNEL N. SANTIAGO                                        0503
B0101409920000005460704MJM FOODGRADE PLASTIC CORPORATION                        1603
A0101407690652319667001TANTAMCO, RAMON NICOLAS                                  0510
A0101407690652377213001ASPE, NILO OR ESMERALDA                                  0503
A0101413570000002976130FLORINDA J. BUBAN                                        0501
A0101413990000017513623PENARANDA, ANA PATRICIA REYES                            0501
A0101413990000017513634DELA CRUZ, EDGARD LESLIE                                10501
A0101413990000017513634DERRICK MANALILI                                        20500
B0101406590000000035594SAYSON COTTAGE INDUSTRIES INC.                           1602
A1301400340000014341761SORIANO, MARK ANTHONY BLACO                              0501
A1301400340683453552002NATIVIDAD, EDUARDO PACHECO                               0502
A1701400230000004469643SALAZAR, MARIBETH SALVADOR DBU                          10505
A1701400230000004469643NORTH TECH BUILDERS                                     20500
A0101408240000015858629CADIZ, LEO ANGELO TERRIBLE                               0502
A4101400260000018066390DAYRIT, RIGEL ANTONIO                                    0501
A4101400260000018066594ISIDRO, JONATHAN QUITORIANO                              0501
A4101400260000018066710MONTANO, MARTIN REY OLIVER VELA                          0501
A4101400550000014678790BERNAL, MARISSA BERNALTE                                 0501
A0101420680000016277139SULTAN, KARIMMA CRISTINA B. DBU                         10501
A0101420680000016277139URBANADSOURCE ADVERTISING                               20500
A0101404840000008871376FELICIANO, JOSELITO RIVERA                               0504
A0101404840851320776044MARASIGAN, JR. NILO M.                                   0501
A0101404840851481664042LUIS GONZALES                                            0501
A0101413860000002314227BONCAVIL, CLARISSA MORRE                                 0501
A0101413860000014390713LIGON, FLERIDA RAMIREZ                                   0501
A0101413860000010948286GENOVA, LEA SALAZAR                                      0502
A0601400230000002650120CAO, MARIA THERESA TUBIG                                 0503
B0601400230000003644871PAIS CARRIERS INC.                                       1601
