B0301400530193821100608**********                                               2010
B0101406330472821100608**********                                               2005
A0101412050000006291409MEDRANO, BERNADETH DOMINGO OR                           10503
A0101412050000006291409ENRIQUEZ, KING L                                        20500
A1001400350000000922058ARENO, ANN JANE BUCO                                     0502
B0101412050519821100608**********                                               2002
A0101406590662317770001NUVAL, CYNTHIA DALAO                                     0502
A0101400600071672958001*********                                                0501
A3101400870000000957917GATDULA, J DBU SIX PENCE                                10501
A3101400870000000957917TRUCKING SERVICE                                        20500
A3001400130230478374004BALABA, JANETH BORJA                                     0501
B1101400120000000652926BUSINESS FRONTIER CORPORATION                            1603
A1101400120000006186387AGUILAR, MARIA LUISA MAGA                                0501
A1101400120000000652351YAO, RONALD PHILIP GO                                    0501
A0101402350321036762001TRADE SPECS BUILDERS                                     0502
A0101400860000001348669**********                                               0502
A0101400860011089290001**********                                               0501
A0101400860011394597001**********                                               0501
A0101400860011453178001**********                                               0502
A0101400860011467674001**********                                               0501
A0101400860011498803002**********                                               0501
A0101400860011508115001**********                                               0502
A0101400860011523512001**********                                               0502
B0101400860000000030268**********                                               1605
A0101401250021476357001CATHERINE GO UY                                          0502
A0101411370022774052001MARISSA M. RAMIREZ                                       0503
A0101400150000000253234ESTANISLAO, RONNA MA LARGO                               0503
B0101400150061042377001BIOSYSTEMS REAGENTS & INSTRUMENTS,                      11610
B0101400150061042377001INC.                                                    21600
A0101400150061326957001JAVIER, MA. THERESA OR LOMIBAO                          10501
A0101400150061326957001JR., ERNESTO                                            20500
A0101400150061338964021RHOEL DE GUZMAN                                          0503
A0101400150061444972001SARAH P. AGUDON                                          0502
B0101400150061506034001NOVEL CAPITAL, INC.                                      1610
A0101400600071236517002******                                                   0502
A0601400100000002365471*****************                                        0505
A0601400360083558825001PINEDA, MA. VICTORIA BAUTISTA                            0501
A0601400520000001706890CASTRO, KASMICHELF MIRANDA                               0502
A0601400520000005943411GOMEZ, MA. GEMMA CALALANG                                0501
A0101400730111195973001NAVIDAD, LALAINE M.                                      0502
A0101400730111368112001**********************                                   0501
A0101400730111423961003ROCES, RAFAEL VILLAREAL OR                              10501
A0101400730111423961003ALCALDE, REYNALD                                        20500
A0101400730111520766046MARIVIC GATDULA                                          0501
A0101401960000002331813LADARAN, LANI VILLANUEVA                                 0501
A0101401960121301941001**********                                               0501
A0101412630000001823398BANZUELA, ELEANOR ADORNA OR                             10502
A0101412630000001823398ZAPANTA, VICTOR                                         20500
A0101401830000006763062SIERRA, RICHELLE ABAJA                                   0501
A7201400170000003773120ASUGAS, GRACE MARIE NARCISO                              0503
A7201400170000003772929LAMIING, JUNEVELL ORAIZ                                  0502
A7201400170000003774112AMPIL, FLOYD TABAYAG                                     0501
B0101412920000000276711KALAKAL FOOD CONCEPT INC.                                1601
B0101407270162032578001I.LEARN.CENTER INC.                                      1602
B0101407270162033286001DESIGN.STUDIO INC.                                       1602
A0101407270162081565001EDUARD P. VELASCO                                        0502
A0101407270162202571001ROGELIO R. MAMMUAD OR                                   10501
A0101407270162202571001MARIBEL D. MAMMU                                        20500
A0101407270162775985001EDNEL V. PASCUAL                                         0501
A0101401090000006009343LEIA G. MACALAM                                          0501
A0101401090171196035001EDGARDO OR CECILIA ORLINA                                0502
A0101401090171196220003DR. IMELDA S. DAVID                                      0505
A0101401090171197664001ELIZABETH D. CORTEZ                                      0501
B0301400660194044769038LUMINOUS DEVELOPMENT CORPORATION                         1605
B3101400160000001169211PALMSVILLE HOMEOWNERS ASSOCIATION INC                    1602
B3101400450223017929001PILI BATTERY SALES, INC.                                 1602
B3101400870225821100608**********                                               2002
B1001400190231009544004RI CHEMICAL CORPORATION                                  1607
B1001400190231010692001PHILIPPINE IRON CONSTRUCTION & MARINE                   11603
B1001400190231010692001WORKS INC.                                              21600
B1001400190231038390001MC SHIPPING CORPORATION                                  1603
B1001400190231272348001LAO, SHERWIN                                             1602
A1001400480000000133542GUINTO, CHARLOTTE JANE MAGO OR                          10502
A1001400480000000133542GUINTO, NEMER SARDEA                                    20500
A0101401670271186305002ROBERTO D. CRISOLOGO OR                                 10503
A0101401670271186305002AUDREY A. CRISOLOGO                                     20500
A0101406620273306796044MA REGINA Y. MILLARE                                     0501
A0101406620273519559001EDUARTE, LOLITA CADAPAN                                  0501
A0101410980000000012528IFORE L. YU OR                                          10502
A0101410980000000012528JISELLE COLLEEN                                         20500
A0101410980000002987086**************                                           0503
A0101411820000000023992MELANIE M. MINORAS                                       0501
B0101412470000000045412FLC FOODSERVICE INC.                                     1602
A0101400570281188735003ATTY. PAUL SAGAYO, JR. OR                               10501
A0101400570281188735003SNOOKY MARIA ANA SAGAYO                                 20500
A0101400570281703490001GONZALES, GERARD ERIKSON G.                              0502
A0101411240000005136469SANTIAGO, MA. CORAZON DIZON DBU                         10502
A0101411240000005136469CORS ENTERPRISES                                        20500
B1101400120000000653105PERPETUAL HELP MULTI-PURPOSE COOPERATIVE                 1605
A1101400120000003981317CANETE, ALEXIS JAN DY DBU                               10503
A1101400120000003981317CANETE ENTERPRISE                                       20500
A1101400120313572041001YAO, MARK ALAIN GO                                       0501
B1101400120000000652880YAO, ANTHONY ROBERTSON GO AND YAO, MARK                 11601
B1101400120000000652880ALAIN GO                                                21600
A6601400120314042058007CHEERS TRADING                                           0504
A2001400290000002319462ARCO, MARIA ISABEL MOMONGAN                              0501
A2001400290315688009001ALGOPERA, LLOYD GARCIA                                   0504
A0101402350321478374008VICTORIA ELLE                                            0501
A0101402350321683053001NOVA N. NICOLAS                                          0501
A0101405650322171206001CEDILLA, LILIAN V. OR                                   10501
A0101405650322171206001CEDILLA, NOEL S.                                        20500
A0101402510341203117002CRISTINA M. ALIWALAS                                     0501
A0201400760000005710878MIRANDA, BHIBLE SERGUINO                                 0502
B0201400760374041705001KYLES AUTOMOTIVE AIR                                    11601
B0201400760374041705001CONDITIONING SER                                        21600
A0201400920375045050001BIG START REVIEW AND TRAINING                           10502
A0201400920375045050001CENTER                                                  20500
A0201400890000002270231CORTES, MARICEL M.                                       0502
A0201400890376080642001GALANG, LORLIE PACURIBOT OR                             10502
A0201400890376080642001GALANG, GLENN AN                                        20500
A0101411660000004597220BONDOC, NARCISA NAVARRO                                  0502
A0101402770391034936001LOGPRO EXPRESS, INC.                                     0502
B0101402770000001571671JB WALL SYSTEMS, INC.                                    1602
A0101402770391436048001ROMEO R. GONZALES                                        0501
A0101408400000006969028MIRALLES, ERNESTO DIZON                                  0501
A0101408400394421077001PANES, ABUNDIO OR PANES,                                10502
A0101408400394421077001VERONICA                                                20500
A0101408400394550481001FELICIANO, LEONARDO LAPUZ                                0501
A0301400820409093916001RACILLO, FRANK OR                                       10501
A0301400820409093916001RACILLO, MACLARA                                        20500
B5501400120000001121742PENDON, NIXONLIE OR PENDON DIVINA                        1605
B5501400120000005492399DSSD FAMILY REALTY DEVELOPMENT CORP                      1610
A2401400180000001935793PACULANAN, NORMA REPONTE                                 0502
A2401400180411051200002NOLEAL, MARLON M. DBU MRP AUTO                          10502
A2401400180411051200002CENTER OR NOLEAL, ROSIE D                               20500
A2401400180411061316001GUAZO, ROBERT DIZON DBU                                 10501
A2401400180411061316001MAGNITON ENG'G. SUPPLY                                  20500
A2401400180411478374035MERLINDA D. TAMUDTAMUD                                   0501
B0901400220000000888166**********                                               1603
A0101403030441380539001**********                                               0502
A0101406330000001235483UY, JUANITO DELA CRUZ                                    0505
B0101406330472017863001INTEXT BUILDERS & CONSTRUCTION CORP                      1602
A0101406330472027958001A. ANOLIN ENTERPRISES                                    0502
B0101406330472314132001*****                                                    1602
A0101406330000002277881CHIU, LARA PRINCESS COSTALES                             0502
A0101406330472428084001DARWIN JEBB YLO OR MARILEN YLO                           0502
A0101406330472478374053NOEL P. MOJICA OR                                       10502
A0101406330472478374053JOCELYN P. MOJICA                                       20500
A0501400170481400649001REYNA, CICEL MANAOIS                                     0501
A3801400170490757939001RENEL GARCIA MEDINA                                      0502
B1401400110000003475661QUEEN MARGARETTE HOTEL, INC.                             1610
A1601400170000000099029MYRA T. LAUSON                                           0501
A1601400170000001069216LARRY M. RIVERO                                          0502
B1601400170000000036193EAST JAVA COMPANY                                        1605
B0101407430503040314001MONDE LEI IMPORT                                         1601
A0101407430503478374009HAIDEE F. LIM                                            0501
A0101407430503508540001ROBERTO P. JAO                                           0501
A0101405940000001210073AGUSTIN, LAWRENCE FRISCO OR                             10501
A0101405940000001210073JAVIER, LUVIE                                           20500
B0101405940512005329001TRIANON INTERNATIONAL, INC.                              1610
A0101405940512366890001RAFAEL R CASTILLO                                        0501
A0101408110000002364683VILLAS, NOEMI EDISON                                     0501
A0101408110000002907997MARY ANN CAROL L. SAN PEDRO                              0502
B0101411400000001280557ROMEO B SIRA DBU RBSS PROJECT MANAGEMENT                11601
B0101411400000001280557SERVICES                                                21600
B0101411400000001280524GCURRIE INC. DOING BUSINESS UNDER T                      1603
A0101412050000002314494RAMCHANDANI, VASUDEV DOULATRAM                           0501
A0101412050519060940001JMCG  TRADING                                            0501
B0101403450521011644001PACIFIC PAINT (BOYSEN) PHILIPPINES                       1601
B0101403610531046549001BIG APPLE PLASTIC PACKAGING INC.                         1602
A0101403610000001174903LIZARDA, MICHELLE CASACOP                                0505
A0101404000000005039903KIM, SEUNG WOOK                                          0501
A2201400250000000433452RUBY V. CRUZ OR                                         10505
A2201400250000000433452FRANCISCO N. CRUZ                                       20500
A0101410690000000001758IGNACIO, JONATHAN DBU JCJ                               10502
A0101410690000000001758MANAGEMENT SERVI                                        20500
B0101404130601015014001BC CONCEPTS INC.                                         1610
A0101404130601450903003REYES, LYDIA SUAREZ                                      0501
B0101412180000001293016JENNIEDEDIOS INC.                                        1603
B0101414410612821100608**********                                               2001
A0101409920000000998581LOPEZ, SUSANA OR                                        10501
A0101409920000000998581LOR, MICHAEL PAT                                        20500
A0101406590000000131568GARCIA III, FRANCISCO CAJUCOM                            0501
A0101406590000000035481EVELYN D. MASCARINAS                                     0501
A0101410300663238188001SHARE, JACK TAKYAM S. OR SHARE,                         10501
A0101410300663238188001JACQUELINE S.                                           20500
A1301400340683523858001PURIFICACION, DYAN CRISEL D. OR                         10501
A1301400340683523858001PURIFICACION, MARIBEL D.                                20500
A0101408240711638677001UBASA, PILAR SAGUN                                       0501
A0101408240711681184001PAMISAL, TESSIE UNATING                                  0502
A2801400100000000188163INFANTE JR., ROGELIO ABIDIN                              0501
A4101400550000004846891PAROLE, GLORIA RAYO                                      0501
B4101400550000000900003BINAKAYAN HOSPITAL AND MEDICAL                          11602
B4101400550000000900003CENTER, INC.                                            21600
A0101404840000000683610HAN, CYNTHIA MARAVILLA                                   0502
