F0101401120131030124003MIGALLOS & LUNA LAW OFFICES                              2603CKR
F0201400180181041625001CEBU HYBRID FARMS CORPORATION                            2702CKC
F0101400310211029980001ACTIVESIGNS INTERNATIONAL CORP.                          2605CKR
F3101400450223038326001BLUE DIAMOND COURT INC.                                  2602CKR
F0101401670271047018001BUSINESSCOACH INC.                                       2603CKR
F0101408400394163404003PILI, JUANITO/LAZARO, ARRHENIUS                         12605CKR
F0101408400394163404003/LAZARO,JENNIFER                                        22600CKR
F1901400160491043709034LUIGI RAYMUND S LIRA                                     2502CKO
F0101407720000006028166MEDGATE PHILIPPINES, INC.                                2601CK1
F4101400390813039464021ADAJAR, JANET                                            2501CKO
F4101400390813039464024ADAJAR, AMIEL C.                                         2502CKO
