B0101400570281821100608**********                                               2005
B4101400420814039001001DOMINGUEZ TRANSMAN MACHINE WORKS CO.                     1601
A1101400120000003022413DUCENTES, GLORIA TROCINO                                 0501
B1101400120313037025001RICKY CONCRETE PRODUCTS & AGGREGATE                      1602
A4101400420814478374146ZETA B. CLIDORO                                          0501
A1101400120000001547520TAN, MELVIN NATHANIEL ANDRADE                            0502
A1101400120000002254899OBENA, ROSEMARIE GIL OPRIASA                             0502
A1101400120313478374124BADAR, GINA C.                                           0502
A0101412890000002747755RAMIREZ, RUTH LAURELES                                   0501
A0101405940000005068322ALCANTARA, ARMIN                                         0501
A4101400420814768923001VIRTUZ, SALVADOR ABAQUITA OR                            10502
A4101400420814768923001VIRTUZ, REBECCA                                         20500
A0101400860011385484001**********                                               0503
A0101400860011416222002**********                                               0502
B0101400860011435654001**********                                               1602
A0101400860011465021001**************                                           0502
A0101400860011746708001**********                                               0505
A0101401250021309269001BORBON, AMADO ELUTIN                                     0502
A0101401250000004374583CASTA, LORENA L.                                         0502
A0101400150000004915191SORIANO, EDMUNDO SANTOS                                  0501
A0101400150000006994105GUEVARA, LYLE OCAMPO                                     0501
A0101400150000006994149TENORIO, BLESS VIR MARIE MENIOR                          0501
B0101400150061010975001PHILMETAL PRODUCTS INC.                                  1602
B0101400150061016942006ASIA PACIFIC EXPRESS CORPORATION                         1605
A0101400150061469189001FERNANDEZ JR., PEREGRINO                                10501
A0101400150061469189001OR FERNANDEZ, JO                                        20500
A0601400100000000141933CANLAS, ROGEL YAP                                        0501
B0601400100000000786803SIMON AND STANLEY INTERNATIONAL TRADING                 11604
B0601400100000000786803& DEVELOPMENT CO                                        21600
A0601400100000001442751CACHO, EDGAR ESPIRITU                                    0501
A0601400520000001120385BANAG, ESMERALDO PINEDA                                  0501
A0101413280000002317762ERICKSON G. PEDROSA                                      0501
A0101410560000002316456REYES, REDENTOR HERNANDEZ                                0501
A0101400730000000833396CARBONELL, LEVINA IBALE                                  0505
A0101400730000001822840ANALYN V. SOLIVA                                         0502
A0101406040000000096811********                                                 0501
A0101406040000000014688LIM, ARNOLD BERLIN LIM                                  10501
A0101406040000000014688OR PIAK HUN LIM                                         20500
B0101401960121339004001**********                                               1601
A0101413150000002299307*******                                                  0502
B0101413310000001928914HONEYCOMB BUILDERS, INC                                  1601
A0101400440000002035121RUBY R. BUGAY                                            0501
A0101400440000004901564DOVIE T. JERMIA                                          0502
A0101400440161520766071MA. TERESITA M. ROA                                      0501
A0101400440161525001104EVELYN G. GARCIA                                         0501
B0101407270162036499001JOB PLACEMENT RESOURCES SERVICES                        11603
B0101407270162036499001COOPERATIVE                                             21600
B0101407270000003254395SUCCERO SERVICES CORPORATION                             1603
A0101407270162333154011DON ALBERT CUESTA                                        0501
A0101407270162673794001IMEE P. LIM                                              0501
A0101401090171200444001FRANCIS ROASA OR ELIZABETH                              10505
A0101401090171200444001ANGELICA ROASA                                          20500
B0301400660000001113740LAI, RHEA MAE POLO                                       1603
A0101401380000001412731MANAHAN, MARK LESTER MOHAMMAD                            0501
A0101413020000002292731CALIXTO, HEIDI CAMMAYO                                   0501
A0101410720000002284051BARTOLOME JR., ENRIQUE ROASA                             0502
A0101410720000000968094FIGUERAS, RAINIER C.                                    10501
A0101410720000000968094DBU FIGUERAS TRANSPORT                                  20500
A0101410720653412394001ALGO, GEMMA MONTALES                                     0501
A0101410720653693151001SAMBRANO, CARMELITA ASIS                                 0501
A0101413600000002276491PONCIANO E. RIVERA JR.                                   0505
A1001400190231520766119CABANO, BERNADITH CATIWALAAN                             0502
B0101401670271038514001DWIGHTSTEEL BUILDING SYSTEMS INC.                        1604
A0101406460000000021730PADILLA, HELEN GRACE TORTOLES                            0501
A0101406460272469459001*****                                                    0502
A0101406460272674209001**********                                               0501
A0101406620000001686940TOBIAS, ADRIAN LUIS MA CHENG                             0502
B0101406620273045167001VENTURANZA, HOSTALERO AND COMPANY, CPA'S                 1601
B0101406620000000194074PROLIFIC HEALTH OPTIONS AND TRADING                      1602
B0101406620273545544001SUMMIT TEAM WELLNESS CORP.                               1601
A0101400570281191853002GREGORIO, JULIETA ORBISO                                 0501
B2601400270000002677296******                                                   1601
B0801400160311014846001CITI APPLIANCE CORPORATION                               1612
A1101400120000000652453YOUNG, RICHARD EGEA                                      0501
B1101400120313039185001COASTALVIEW FOODS CORPORATION                            1601
A1101400120313478374099SALAS, ERIKA GALAROSA                                    0501
A6601400120314612866001ALCERA, JUNELL PAUL OR JENNIFER                          0503
A6601400120314648197001PAJOTA, RUNETO OLMEDA                                    0505
A2001400290000002319520CADAMPOG, JOSE GLENN CENIZA                              0505
A2001400290315044705002REMAN GLASS & ALUMINUM                                   0501
A2001400290000002319531SANOY, EZELBETHA ABLON OR                               10503
A2001400290000002319531SANOY, REY CECIL                                        20500
A0101402350321085678001GUZMAN, ESTRELLA E. OR                                  10502
A0101402350321085678001GUZMAN, NOEL M.                                         20500
A0101402350321179498001ROSARIO ARCEO                                            0501
A0101402350321182462003SALAZAR, ROSALINA R.                                     0501
A0101402350000000145571GOSGOLAN, JOSELINA SARIO                                 0501
B0101402510341031237001VIACAREM RESTAURANTS                                     1602
A0101402510341585773001SANTANA, DON ALCANTARA                                   0501
B0101402060351009544001RI CHEMICAL CORPORATION                                  1608
A0101402060351211701003MA. DOLORES C. DANNUG OR                                10503
A0101402060351211701003EDNA S. CABALDE                                         20500
A0101402060000000358612PACIFICO ERIC E. CALDERON MD                             0502
B0201400760374032939001GATEWAY MOTORS (CEBU), INC.                              1605
B02014007600000000333545A FEEDMILL CORPORATION                                  1605
B0201400920000000007963THE PERSIMMON CONDOMINIUM CORPORATION                    1602
B0201400920000000047874TURBO TRANSPORT INC.                                     1602
A0201400890000006989022RAFANAN, ZOSIMA LIM OR                                  10501
A0201400890000006989022RAFANAN, BENSON LIM                                     20500
A0201401020000000470193LOUIE PENA'S TRAVEL TOURS & EVE                          0503
B0101402930381040001001TURQUOISE TRAVEL & EVENTS                               11602
B0101402930381040001001MANAGEMENT CORP.                                        21600
A0101402930381206638002TANCHI, PETER FU OR MCCOMB,                             10501
A0101402930381206638002RUTH OR MCCOMB, JEFFREY                                 20500
A0101411660000000032060LORY ANN L OLIVA OR JEFF CARLO                          10501
A0101411660000000032060T OLIVA                                                 20500
A0101408400000003515108LESABA, MARIBEL SEVA                                     0501
A0101408400394506485001EBAJAN, ALEX BERGADO                                    10501
A0101408400394506485001OR EBAJAN, MERCE                                        20500
A0101408950396046916001DentalOne, Inc.                                          0505
A5501400120000001121720BELDAD JR., REMEGIO DEBELDOS                             0501
B5501400120410044488008**********                                               1605
A5501400120410641408002GASCON, MERCEDITA TALAPIAN                               0501
B2401400180411042157088ERSONS BUY & SELL AGRI-PRODUCTS                          1620
A2401400180000000428051EGOS JR., JEMMERITO CASANA                               0502
A2401400180411516002001GAVINO, RHEA MEA LAUREA                                  0501
A1201400150421200676001MAULBECKER, HEINRICH                                     0501
A1201400150000000034437YSIT, EFRAIM TANDOC                                      0501
A1201400150421381000001SIW-ANGAN, EVANGELINE FERNANDO                           0501
A0101403030441238999001**********                                               0502
B0101406330000000432820SIVI INTERNATIONAL TRADING INCORPORATED                  1602
A0101406330472283352001ESTRADELLA O. ERMITA                                     0510
B0101410140475045534001J-BREN STAR CORP. DOING BUSINESS UNDER                  11602
B0101410140475045534001THE NAME AND STY                                        21600
A1901400320489409608001DAEL JR., DOMINGO DURANA                                 0501
B1901400160491027966003SALESFORCE ONE MARKETING, INC.                           1603
A1901400160491494343001RAINIER C UNTALAN OR                                    10504
A1901400160491494343001RELYN M UNTALAN                                         20500
B1401400110492010098001CASEI MARKETING CORPORATION                              1610
B0101407430503015295001PC SUPPLIES, INC.                                        1601
B0101407430503027906001CHURCH STRENGTHENING MINISTRY INC.                       1603
A0101405940000002268653BANIEL, BEN FABALE                                       0501
B0101406880513621005001NIKKA TRADING, INC.                                      1605
A0101408530516578215010MARK G. SANTOS                                           0502
B0101403450521238082001*********                                                1602
A2201400250561254365002FROILAN S. SANCHEZ                                       0502
B0101404130601100079001POWERDIESEL PHILIPPINES, INC.                            1610
B0101404130601100161001PRUDENTIAL CUSTOMS BROKERAGE SERVICES,                  11610
B0101404130601100161001INC.                                                    21600
A0101404130601450094003LORQUEL PASCUAL OR ANNIE                                10502
A0101404130601450094003PASCUAL                                                 20500
A0101407720602396826002REMEDIOS G. SUNTAY                                       0502
A0101412180000002340603PAGAYATAN, ALLEN TAAY                                    0501
B0101412180000001293038WESTMONT INDUSTRIAL SALES INC.                           1602
B0101404260611010597001FMW HUMAN RESOURCES INTERNATIONAL                        1606
A0101409920000006336785NAVARRO, NORMAN CALAPIS                                  0504
A0101413570000002249527VICTORIA H. VILLEGAS                                     0501
B0101413570000000206453DIAMONDS STARS PACKAGING RESOURCES                      11602
B0101413570000000206453CO., INC.                                               21600
B0101413570000003580681FERRER, MARK OLIVER AND                                 11601
B0101413570000003580681PARAGAS, ADLIN                                          21600
A0101413990000006998216VILLANUEVA, MARIA THERESA B. OR                         10501
A0101413990000006998216JOLO, TERESITA D.                                       20500
A0101406590662470961001VALMOCINA, ESTRELLA C. OR                               10510
A0101406590662470961001GUTIERREZ, MARY                                         20500
A1301400210000003104912ZEN TEN TRUCKING AND HAULING SE                          0501
B2801400100000000004811TRADER RIC'S RESORT CORPORATION                          1602
A4101400260000000048713MANUEL SILVESTRE II OR                                  10501
A4101400260000000048713KRISTINE SILVESTRE                                      20500
A4101400260812212269001MA. GINA R. AMANCIO                                      0503
A4101400260812409493001AMELIA RAZON OR EMILINO RAZON                            0501
A4101400390000000379124PATAWARAN, AILEEN AGAHAN                                 0501
A4101400390000000379237VISTA, RUBEN AQUINO                                      0503
A0101412340000006859223ADRIAN S. AGRAVANTE                                      0501
B0101412340000000031012MALATE CONSTRUCTION AND DEVELOPMENT                     11610
B0101412340000000031012CORPORATION                                             21600
A0101404840851368068003BALAGTAS, ROWELLDA CHIONG                                0502
A0101404840851403916003BARCLAY, ZENA MARIE IYOG                                 0502
B0101404840851671030001QUANTUMMEDIA MARKETING INC                               1604
A0101406750000002251383MORALES, GLORIA REYES                                    0505
A0101406750000006992570LOYOLA, ARLENE SERRANO                                   0501
A0101406750000006992581WASING, ANN KATE BASCO                                   0501
A0101406750852478374098JOCELYN ARBOSO                                           0501
B0101405070861028566001AVESTA REALTY, INC.                                      1602
B0101405070861036521001VICTORIA MANSIONS INC.                                   1602
A0101405070861360022002PARK, SUJIN                                              0505
B0101413860000001767906GLEN CEDAR INSURANCE AGENCY CORP.                        1603
A0601400230891320333001WILFREDO OR ROILA DUNGAO                                 0501
