B0101401960121821100608**********                                               2005
A0101410720000006128792G.R.O.W. ENTERPRISE                                      0502
A0101412890000014437180CARLOS, VERNETTE CARDINO                                 0501
B1901400290000016272309TREK DISTRIBUTION, INC.                                  1601
A0101403320000016119670HILARIO, MA. ANGELA SHARON L.                            0501
A0101400860011449713001**********                                               0502
A0101400860011478516001**********                                               0502
A0101401250021180208001GERVASIO, REMEDIOS SAMONTE                               0504
A0101400150000011138337ZAIDE III, RAFAEL LIM                                    0503
A0601400100000005050286LANSANG, MICHAEL JEROME M.                               0502
B0601400360000012046314FSPHIL CORP.                                             1610
A0101414090000011597923MELEGRITO, MA. ALEXIA REYES                              0501
A0101401960000002331686SAVELLANO, ALLAN TAMAYO                                  0501
A0101412630000004062020CASTRONUEVO, SHARON CORTEZ                               0501
A0101412630000004062020CASTRONUEVO, SHARON CORTEZ                               0501
B0101401830000000033627CARITAS SALVE CREDIT COOPERATIVE                        11603
B0101401830000000033627(LAS PINAS) 007                                         21600
B7201400170000003774010FERRAZ, JIMMARY VIC CANETE                               1605
A7201400170000003773295CAGAMPANG, EMMANUEL ERASMO DBU                          10501
A7201400170000003773295FIVE STAR BUILDERS                                      20500
A0101400440161525001105VIRGIE B. CRUZ                                           0501
A0101407270000014296978CONANAN, TERESITA DE VERA                                0502
A0101407270162478141001PHILIP HANS A. PAYAWAL                                   0502
B0101401090171007908001PERPETUAL SUCCOR HOSPITAL &                             11606
B0101401090171007908001MATERNITY, INC.                                         21600
A0101401090171203082002JUDE PADAMA GUIANG                                       0502
A0101401090171655835002ESTHER D. MASING                                         0501
A0301400530000013780873BONGA, VALLIE ROSS BAGA OR                              10505
A0301400530000013780873BONGA, BALDWIN BRIONES                                  20500
B0301400530000008307700APEX PREMIER PHARMACEUTICAL AND CON                      1605
A0101413020000006295134CORTES, CHRISTOPHER PARUNGO                              0501
A0101410720000011909676VIVAR, CECILIO PANICAN OR                               10501
A0101410720000011909676VIVAR, ELEONOR IMELDA                                   20500
A3101400160000010460954VILLEGAS, WILMA T OR VILLEGAS,                          10502
A3101400160000010460954WYLEE T OR VILLEGAS, PAUL                               20500
B3101400160221017124001PANASONIC PRECISION DEVICES PHILIPPINES                 11601
B3101400160221017124001CORPORATION                                             21600
A3101400160221775869001TAKESHI MISUMI                                           0501
A3101400450000016320977VERGARA, ARIANE JAKE AMORAO                              0501
A3101400450223612365001ARAGO, ANDREW HIZON RODA                                 0503
A3101400870225667810002OLIVARES III,LUIS B.OR OLIVARES                         10501
A3101400870225667810002JOHANNA KARLYN V.                                       20500
A3001400130000001271669OLACO, BELINDA LACORTE                                   0501
B3001400130000008264922TANJAY, ANNABELLE R AND LLOREN, SIMPLICI                11605
B3001400130000008264922A S                                                     21600
A3001400130000010506548RICABORDA, MELANIE C                                     0501
A3001400130230478374026SONOT, RODERICK AMAHOY                                   0501
A3001400130230697960001FERRER, ODELIO YU                                        0502
A1001400190000008743988OLAIVAR, FATIMA ORBISO                                   0502
A1001400350000000017165MEN DBU A&L MARKETING SOLUTIONS                          0501
B1901400290261027293001LIPA MEDICS INC.                                         1620
B1901400290261036122001LODLOD PARISH MULTI-PURPOSE COOPERATIVE                  1605
A1901400290261244564002ANITA LUMBERA SAUZ                                       0503
B0101401670000000178585TOYOTA SAN FERNANDO PAMPANGA, INC.                       1602
A0101406460000008890519FLAVIANO, RICARDO TORRES                                 0501
A0101406620000014256896POLICARPIO BELONZA                                       0502
B0101406620273007454005GLOBE ASIATIQUE REALTY HOLDINGS CORP.                    1605
B0101406620273009744001NORCONSULT MANAGEMENT SERVICES PHILS.,                  11602
B0101406620273009744001INC.                                                    21600
B0101406620273034224002JDS CONSTRUCTION PHILS., INC.                            1602
B0101406620273037236001SANTOS SANTOS & SANTOS LAW OFFICES                       1601
B0101406620273039952001VERSATECH INTERNATIONAL, INC.                            1603
B0101406620273215897003PATHLAND DEVELOPMENT CORP.                               1612
A0101406620273294329001**********                                               0510
A0101406620273313236001HARRY YU OR ROSA YU                                      0501
A0101406620273518518001RICALDE, ROSARIO RODRIGUEZ                               0502
A0101412470000014499713LINDO, ELY ROY B. OR                                    10501
A0101412470000014499713LINDO, JOSEPHINE L.                                     20500
A0101400570281021967001CHANGING DIGITAL IMAGING                                10501
A0101400570281021967001GRAPHIC                                                 20500
A0101400570281507924001RAMOS JR., MIGUEL ARAOJO                                 0502
A2601400270000011716453ABELARDO T. PAGSIBIGAN III                               0501
A2601400270302510455001MARIBEL L. DELA CRUZ OR MARIA                           10502
A2601400270302510455001GERABEL L. DELA CRUZ                                    20500
A2601400270302794359001VENILDA S. ZARA                                          0501
A0801400160000006893196**********                                               0502
B0801400160000011219582WINEGARD MARKETING, INC.                                 1605
A6601400120314041602001LEXTAN GENERAL MERCHANDISE                               0505
B6601400120000006154230ACRHOCONS CORP.                                          1603
A6601400120000002249910YRUMA, ALBERT OR EMELITA                                 0510
A2001400290315688009001ALGOPERA, LLOYD GARCIA                                   0504
A3401400280000003309219ROMULO D. CAPUNONG OR RUELYN C.                         10502
A3401400280000003309219EDUQUE                                                  20500
B0101405650000000772812ONE BFCEA INC.                                           1602
B0101402510341024728001YAHU "G" FOODS CORPORATION                               1605
B0101402510341024728001YAHU "G" FOODS CORPORATION                               1605
A0101402510000013485640**********                                               0501
A0101409050000006463016NAVARRO, DON SHERWIN                                     0501
A0201400760000009466128CHIONG, GLADYS MAE ROSAUPAN                              0501
A0201400920000006792023IGOT, JUDYLYN LIM OR IGOT,                              10502
A0201400920000006792023MARCELO ANTHONY                                         20500
A0201400920000012765061IGOT, MARCELO ANTHONY OR                                10502
A0201400920000012765061IGOT, JUDYLYN                                           20500
A0201400920000012764819MARCUELO, MARLON TORRES                                  0501
A0201400890000006961886TAJANLANGIT, MICHAEL JOSEPH                              0501
B0201401020000010966842TURTLE BAY TABOGON INC.                                  1601
A0101402930000012171510MEDINA, BERNARD JOHN PAUL PARED                          0501
B0101408370000010545230NIYAMA INC.                                              1601
A0101408370000003775100DRS. CECILE CASIMIRO OR MA. LUZ                         10501
A0101408370000003775100CASIMIRO-QUERUBIN                                       20500
A0101408370382455298001BERNICE ELAINE T. ONG M.D. OR                           10505
A0101408370382455298001MELVIN L. ONG                                           20500
A0101408790000010423319SANCHEZ, CHRISTOPHER L.                                  0502
A0101408790000014277984ADUBE, MARY SHIELA ALGURA                                0502
A0101405490000000444477MARIA TERESINA G. MESINA OR                             10502
A0101405490000000444477ALFONSO E. MESINA                                       20500
A0101405490000005566470MERCENE, ERWIN SALAZAR                                   0502
A0101408400000006054519ALFON, RUDOLF MOTILLA                                    0501
A0101408400000004490244JISON, VICTOR LEDESMA OR                                10502
A0101408400000004490244JISON, THERESE P                                        20500
A0101408400394478374019EVELYN PAGENTE                                           0501
A0101409180000003780410BAUTISTA JR., EDGAR ROLDON                               0502
A0301400820000010546346GATOC, RAYMUND MORANO                                    0501
A2401400180000010066547BANTAYAN, ARIEL AMARILLE                                 0501
A2401400180000015944640ESVER, MARK NEIL OMAS                                    0501
A5101400100000010371369ISIDRO, ARLENE CANOY                                     0502
A0101403030000000008900**********                                               0501
A0101412890000009833992*************                                            0501
B0101412890470821100608**********                                               2002
A0101403320000011293075ADELAIDA R. CRUZ AND                                    10504
A0101403320000011293075ALEXANDER M. CRUZ                                       20500
A0101403320000015944899********                                                 0501
B0101403320471068525001XELAND, INC.                                             1601
B0101403320471068525001XELAND, INC.                                             1602
B0101406330000000432831OTO MARKETING, INC                                       1610
A0101410140000005945231SUNGA, JERILY TANGLAO                                    0504
B0501400170000013648085NORTHERN CREDIT, INC.                                    1603
B0501400170481250825001CHUA, EVANGELINE G./ GAPUZ, IMELDA G./                  11601
B0501400170481250825001SIY, ELIZABETH G                                        21600
A3801400170000016340953BARRANDA, JOHN S DBU SOLIDROCK                          10501
A3801400170000016340953JSB TRADING AND HAULING                                 20500
A3801400170490757939001RENEL GARCIA MEDINA                                      0502
A1901400160000000243683RENILO BALMES PANGANIBAN                                 0501
A1401400110000003988996CARCIDO, JEFFERSON CU                                    0501
A1601400170000001360805MIQUE, JOEL ORINA                                        0501
A0101407430000011167843MULDER, SHARMANE QUINTO                                  0503
A0101407430503153283005NGO, PATRICK S.                                          0501
A0101403580000010176951BANTILING, IAN PATRICK PUNZALAN                          0501
B0101405940000005359691NEXUS INDUSTRIAL PRIME SOLUTIONS CORP                    1606
B0101408530000003866046TAMBAI YAKITORI-MO SNACK-BAR CORPORATION                 1601
B0101411400000010984155HOUSINGINTERACTIVE INC.                                  1601
B0101403450000006055836**********                                               1610
B0101403450521025788001PALAWAN AQUATIC MARINE FISHING AND                       1601
A0101410690000003027589MARIANO, WILMINA GONZALES                                0502
B0101404130601035458001CITYLAND CONDOMINIUM VIII, INC.                          1605
B0101404130601037502001JS PHILIPPINES GLOBAL CORPORATION                        1602
A0101404130000006275881REYNALDO O. CALAYAN JR. OR                              10504
A0101404130000006275881REBECCA A. CALAYAN                                      20500
A0101407720602374401001DE GRANO, JOANNE DAVAC                                   0502
A0101407720602379811001NOEL S. AYPA OR MA. CARMEN                              10503
A0101407720602379811001TERESA G. AYPA                                          20500
A0101407720602402493001**********                                               0503
A0101407720602454953001BERNARDO, JASMIN MELISSA BALLEN                          0503
A0101407720602483110001YU, MICHELLE ANABELLE MERCADO                            0504
A0101407720602496503014KAREN O. TORRES                                          0501
A0101404260000007498299LICAROS, NENITA RAMOS                                    0505
A0101404260611343821005FONTANOZ, EDGAR PABROS                                   0501
A0101409890000006812780**********                                               0505
A0101410300000005237678BARRIOS, ROSANNA VERONICA                               10501
A0101410300000005237678TAN-TORRES                                              20500
B1301400210000000023474RICH-WELL INTERBRAND CORPORATION                         1602
A1301400340000010467462GONZALES, ROSALINDA DELA CRUZ                            0501
A1301400340683093687001CANTOR, DANJELLO NAVARRO                                 0501
A0101408240711605603001SANTOS, MARK ANDREW FETISAN                              0501
A2801400100712688356001DEL ROSARIO, RICHARD F. OR                              10501
A2801400100712688356001DEL ROSARIO, EVE                                        20500
A2801400230000014314251DEL ROSARIO, AIDA DACAYO                                 0501
A2801400230000001734732CITY REJUVENATING SPA                                    0503
A2801400230713074852001DOMINGUEZ, MARIVIC MANDADERO                             0502
A4101400390813378814001GIGI D. ABOGADO                                          0501
A4101400420000015173681LIZA, MICHAEL PALANAS DBU                               10501
A4101400420000015173681KLEENWAY MARKETING                                      20500
A4101400420814478374044BERATIO, MARITES M.                                      0501
A0101412340000003422682ALEXIS C. GUEVARRA                                       0502
A0101404840000010969385MERCADO, RENELYN GUARDAILAO                              0501
A0101404840000014398593VILLORIA, JOSELITO G.                                    0502
A0101404840851281035001NELLIE M. LAW &/OR                                      10503
A0101404840851281035001HERMINIO T. LAW                                         20500
A0101406750000004641929ALBA, BRIAN DBU PRYSM TECHNOLOG                          0501
A0101405070861196343001EDGARDO DAVID OR ANGELINA DAVID                         10505
A0101405070861196343001OR MARY ELAINE D                                        20500
A0101405070000006006086OLIMPIA CALUGAY CHAN                                     0503
A0101413860000001887090UMLAS, SUSAN GATTOC                                      0502
A0601400230000003638960DIZON, JOSE JUN G. DBU INTERTEC                          0502
A0601400230891083893001**********                                               0501
