A0101400440161520766042MONINA H. DUKA                                           0501
B0101406460000000182483WEE COMMUNITY DEVELOPERS, INC.                           1605
A1101400120000001920601MARTINEZ JR., RENATO BARRANTES                           0501
B0101412920160059095001TORIBIO, EMELY DUAY DBU HIC PRINTING                    11602
B0101412920160059095001SERVICES                                                21600
B0101400440161027962002CASAYRA CORPORATION                                      1601
A0101400440161478374198EUFRONIA I. BERGONIA                                     0501
A0101400440161525001139JEMARIE S. SALUDAR                                       0502
A0101400440161525001159MARITES P. MONTALBAN                                     0501
A1101400120000006186661MORETE, MARELINE RADORES                                 0501
A1101400120000000652351YAO, RONALD PHILIP GO                                    0501
B0101405650322018681007LANDCO PACIFIC CORPORATION                               1603
A0101400860000003571691**********                                               0501
A0101400860000005312958**********                                               0502
A0101400860011379561003**********                                               0502
A0101400860011449807001**********                                               0503
A0101400860011612510001**********                                               0502
B0101400860011821200608**********                                               2002
A0101401250000000460586AZUCENA, MARIA PAMELA ENRIQUEZ                           0501
A0101400150000003164281MA. KAREN M. EBONIA                                      0501
A0101400150000005015616BONZON, AURA BERNADETTE RICASAT                          0501
B0101400150061036325001AIKO ENVIRONMENTAL & GENERAL MANPOWER                   11601
B0101400150061036325001SERVICES INC                                            21600
B0101400600071538520001*********                                                1605
A0601400520000001707028AMBO MARKETING                                           0502
A0101410850000009034640**********                                               0501
A01014105600000019440430OODNESS & MERCY MOVERS                                 10503
A0101410560000001944043SERVICES                                                20500
A0101400730111047618004RONALDO BAARDE PRADO                                     0503
A0101406040000004587624********                                                 0502
A0101401960000006004411***************                                          0501
B0101401960121821200608**********                                               2001
A0101400440000003705968TEPPANG, HAZEL RUTH TOMAS                                0502
B0101407270162063089001REALITY ENTERTAINMENT, INC.                              1605
B0101407270162063091001MOTHERSHIP, INC.                                         1605
A0101401090000010234418PANALIGAN, ORWENDY AQUINO                                0501
B0101401090171040208001GOLDEN CHOPSTICKS DELITE CORP.                           1603
B0101401090171821200608**********                                               2002
A0301400660000006862593VILLAGRACIA, FERNANDO BOHOL DBU                          0501
B0301400660000003368438GREENHOPE AGRI-DEVELOPMENT CORP.                         1603
A0301400950000001379477CCD AUTO HUB AUTO SERVICE                               10503
A0301400950000001379477CENTER                                                  20500
A0301400950000006080417**********                                               0501
B0301400950196821200608**********                                               2002
A3101400160221533268001DOLORES B. BERNARDO                                      0501
A3101400740224065393001DIPOLOG, RICO DBU EXPRESS                               10501
A3101400740224065393001MILITARY SUPPLY AND GEN                                 20500
A3001400130230478374231MEMBERS OF NATASHA, SHOECAT INC                          0501
A1001400190000000124803FANTONIAL, MERILY H.                                     0501
A1001400350233528399003KO, JOSE NELSON AND                                     10502
A1001400350233528399003KO, CHARMAINE                                           20500
A1301400470252478374028NORMA S. BALLESTEROS                                     0505
A0101406460272314180001********                                                 0503
A0101406460272677065001YAPJUANGCO, DIVINA GRACIA T. OR                         10502
A0101406460272677065001YAPJUANGCO, SAMU                                        20500
A0101406620273471129001TAN, APRIL LYNN LEE                                      0501
A0101406620273489416001TANCHULING, PATRICIA IRIS OR                            10502
A0101406620273489416001TANCHULING, VINC                                        20500
A0101411820000000024006IMPERIAL, CLARISSA CUACHAN                               0501
A0101411820000001356190EMMANUEL MARTIN V. NOLASCO                               0501
A0101411820000005380081MARK MIKHAIL F. SUBIDO                                   0501
B0101411820277821200608**********                                               2001
A0101412470000005380467CABALLERO, BENEDICTO ROXAS                               0501
A6601400120314612868001FE ADRIATICO OR MIGUEL ARIATICO                          0503
A6601400120314622580001SOSING, CAROL O. OR FELIPE A.                           10505
A6601400120314622580001OR CAROLYN O.                                           20500
A2001400290315688009001ALGOPERA, LLOYD GARCIA                                   0504
A3401400280000003493925TAMUYAO, JESSE DUMALOS                                   0502
B0101402350000000655492RD PAWNSHOP, INCORPORATED                                1605
A0101402350321180302001EFREN S. BORDADOR OR                                    10502
A0101402350321180302001JOCELYN Y. BORDA                                        20500
B0101402510341048034001PHILDIZ PHOTO GALLERY, INC.                              1610
B0101402510341821200608**********                                               2002
A0101409050352614642001**********                                               0501
A0201400890000002270617*************                                            0505
B0201400890376034720001CEBU AGRI CHEM TRADE INC.                                1602
A0201400890376580542001WAHING, ERWIN LAVESORES                                  0501
A0101402770391383276018MICHAEL ADRIAN BORJA                                     0502
B0101402770391601391001SPORTSFOCUS, INC.                                        1605
A0101408400394039604001VDM WATERLILY ARTS AND CRAFTS                            0501
A0101408400394471974002PESICO, GINA GERALDINO                                   0501
B0101409180397043819001VALUE ADVERTISING                                        1602
A0101412210000002714592LINAO, RYAN AGUSTIN OR                                  10502
A0101412210000002714592LINAO, MELODY ROGELIO                                   20500
A2401400180000003949093DEVERA, EDGAR SURMILLON                                  0503
A2401400180411041996001BRIGADAROCK GARDEN RESORT                                0510
A2401400180411564736001CATULPOS, ELMER VILLEGAS OR                             10515
A2401400180411564736001CATULPOS, YELCY YASAY                                   20500
A2401400180411614556001ALZONA, MA. TERESA MIRABUENO                             0501
A2401400180000007031530FERNANDEZ, JOSEPH SEVILLA                                0501
A0901400220000006214400**********                                               0505
B0901400220432821200608**********                                               2001
B0101403320471206926002LOLITA B COLINA                                          1601
A0101403320000001646777MYRNA M. CRISOSTOMO                                      0501
A0101403320471692905001ANTONIO S. CHUA                                          0501
B0101406330472821200608**********                                               2001
A0101412760000002067621DEL ROSARIO, DBU MEGA MB GRAPHI                         10502
A0101412760000002067621C DESIGN & PRINT                                        20500
B3801400170490058363001CALAPAN WATERWORKS CORPORATION                           1602
A1901400160000005632606BALMES, REINHILD ROSALES                                 0501
A1401400110000000628499HUI, KEUNG DAR                                           0501
B1401400110492046339001SOUTHERN QUEZON PACIFIC OIL MILL                        11605
B1401400110492046339001CORPORATION                                             21600
A1601400170000000421069CHARLES P. CLEMENTE III OR                              10505
A1601400170000000421069CHARLES L. CLEMENTE JR.                                 20500
B0101407430000001213001MILLENNIUM OCEAN STAR CORPORATION                        1602
A0101407430503333427005ABNER G. LACSON OR                                      10501
A0101407430503333427005EVELYN D. LACSON                                        20500
A0101407430503674542001********                                                 0505
A0101403580000004091912MATA, ANTONIO MANALO                                     0501
B0101403580511542394002STA. RITA 168 BUILDERS CORP.                             1603
A0101411400000001280313GARCIA JR., EXPEDITO GARCIA                              0501
A0101412050000008837254********                                                 0503
A0101403450000008159940SANTIAGO, AURORA MIRANDA                                 0502
B0101403610000003053141VALPARADISO LENDING INVESTOR CORPORATION                 1601
A0101404130000002121146BAYNOSA, JOSEPHINE CEJAS                                 0501
B0101404130601821200608**********                                               2001
A0101407720602316120001LUCIA CASTRO-FORES OR                                   10501
A0101407720602316120001MIGUEL EDGARDO FORES                                    20500
B0101407720602821200608**********                                               2001
A0101404260611703483001BENDANILLO, THELMA PALENTINOS                           10505
A0101404260611703483001AND PINGOL, ENRI                                        20500
A0101409890000006812815PABUSTAN, CORNELIO GAMBOA                                0502
B0101407690652042938001SIGNWOOD HARDWARE & LUMBER SUPPLY                        1603
A0101407690652236874001SIVA, HANNY JANETTE SARADOR                              0501
A0101407690652520766005GILNNA M. MALIGAT - DEALERS OF                          10501
A0101407690652520766005SHOECAT INC.                                            20500
B1301400210000005041007***                                                      1602
A1701400230000001786650PEDRO, ALAN BAOIT                                        0503
A1701400230000005694142RACCA, SOCRATES CACAYURIN                                0503
A0101408240711400412005MIRCHANDANI, MICHAEL OR SHERYL                          10501
A0101408240711400412005OR SHAM OR LALA                                         20500
A0101408240711402864001GUERRERO, EDITHA OR                                     10501
A0101408240711402864001NARCISO, LEONARDO                                       20500
A0101408240711638080001ISAAC, MA. ELENA MANESE OR                              10501
A0101408240711638080001MANESE, CLARENCE                                        20500
A4101400260000006043403RAPISTA, JOHNNY APISTAR                                  0501
A4101400260812513078001VILLANUEVA, ZSHORNACK                                    0501
A0101404840851298552055SIXTA MELBA C. ENGBINO                                   0502
