A0101412050000000697190RIVERA, TEODO DBU BLAZE EFX                             10501
A0101412050000000697190EVENTS PRODUCTIO                                        20500
A7201400170152058498001CHANG, ALAIN MICHAEL D. DBU                             10501
A7201400170152058498001STARLIGHT GENERAL MDSE.                                 20500
A2601400270000000084360CRISTINA L. CENDANA                                      0501
B3001400130230043534001BERRY HAPPY MART INC.                                    1603
A2601400270000000561795RHEA GLENDA S. LAYUGAN                                   0501
A0101405650000001377339POLICARPIO JR., JOSE C.                                  0501
B0101412890000000125260ACADEMY OF CHRISTIAN EXCELLENCE                          1601
A0101400860000001348738************                                             0501
A0101401250021709223001ROLANDO F. ASTILLERO JR. OR                             10501
A0101401250021709223001GINA A. ASTILLERO                                       20500
A0101400150000000253427ARNEL C. CUARESMA                                        0501
A0101400150061271857001JEGIE PEREDA OR                                         10503
A0101400150061271857001EDNA PEREDA                                             20500
A0601400100081251942001FERNANDO R. NARCISO                                      0503
A0101414090000003314901CATCHILLAR, SHARYL DIANA M OR                           10502
A0101414090000003314901PEMRIK, JERICHO G                                       20500
A0101410560000001944221SALVADOR O. MONTERO                                      0501
A0101413310000001073563LOPEZ, MA CECILIA REYES                                  0502
A0101401830000003508632LIM, JOVEN AGUILAR                                       0502
B7201400170000003773524JUSTINIANO, MARIO L. AND DELOS SANTOS                   11601
B7201400170000003773524MARIA THERESA M.                                        21600
A0101400440000001439663MEDCON PHARMA                                            0502
A0101407270000001596923KATHERINE SUZANNE B. ROBLES                              0501
A0101407270162681015001JEFFRE P. TOLENTINO                                      0501
A0301400950000000566723FERNANDEZ, NESTY VON CHI                                 0502
A0101413600000005227992ABIGAIL O. ENRIQUEZ                                      0502
A0101413600000005228002CATHY A. FRIAS                                           0501
A0101413600000005228024MADELAINE J. AURELIO                                     0501
A3101400160000004952245GENIE MALLARI CHAN                                       0501
A3001400130000000931282BALANGA, MARIO FERNANDEZ                                 0501
A3001400130000000944714LIM, KLAUDIO DIAZ                                        0502
A1001400190231275093001CAUMBAN, CRISTY MARIE                                    0502
A1301400760000002346152JIMMY C. CENA OR                                        10502
A1301400760000002346152REBECCA R. CENA                                         20500
B0101401670271007087001BELSON SECURITIES, INC.                                  1610
A0101401670271371481001CARLOS JOSE O. RIVERA                                    0502
B0101406620000000194041ZIOSOFT INC.                                             1601
A0101406620273317146001CHUA, FERNANDO LIM OR                                   10504
A0101406620273317146001CHUA, ELENA                                             20500
A0101406620273360841003ASUNCION, ALEXANDER GOMEZ                                0505
B0101408660274038268001AVO AIRVENT INCORPORATED                                 1601
B0101411820000000477430CONLINS COFFEE WORLD, INC.                               1602
B0101400570281015360003SKY CABLE CORPORATION                                    1610
B0101400570281015729001SLMC EMPLOYEES ASSOCIATION - AFW                         1602
A0101400570281186603001DR. RESTITUTO C. BUENVIAJE                               0502
A0101400570281412649001ALEJANDRO P. ORTIGAS                                     0501
A0101400570281508723001RAMOS, ROBERTO VILLARAMA                                 0502
A3401400280000001723433FIRMALINO, MONICA BURATA                                 0503
A0101402350321180459002TING CHING LAN OR CHANG CHIAO                           10501
A0101402350321180459002FEI OR CHANG CHIAO FENG                                 20500
A0101402350321180985001CHIEN CHUNG P. HO                                        0501
A0101405650322637767001DELA DINGCO, ANGELO PEREZ                                0501
A0101402510000005391766CALIMLIM, JOHN PATRICK DAYAP                             0501
B0101402510341020561001PHILIPPINE PHARMACISTS ASSOCIATION                       1602
B0101402060351018216001RGC EMPLOYEES SAVINGS & LOAN ASSOCIATION                11602
B0101402060351018216001INC.                                                    21600
A0101409050000005211421PUSHKAR RAMESH                                           0501
B0201400760374035388001PREMAN MARKETING & DISTRIBUTION NET                      1610
B02014007600000016129938990 LUZON HOUSING DEVELOPMENT                          11601
B0201400760000001612993CORPORATION                                             21600
B0201400920000000047910JR INVESTING CORPORATION                                 1601
A0101408370382502527001DR. NARCISA Q. FAJARDO OR                               10502
A0101408370382502527001DR. MA. FLORENTINA GOMEZ                                20500
A0101408790000005293603FRANCESCA O. SANTIANO                                    0501
A0101405490000001092717ROSLINA M. AMEROL DBU AMEMAR                            10502
A0101405490000001092717GENERAL MERCHANDISE                                     20500
A0101408950396567425001DR. SHEILA LYN REMOT RANIN                               0501
A0101412210399094817003GAZMIN JR., RODRIGO GARCIA                               0501
A0301400820409091735055LIMA, WINDELL OR LIMA, DIANA                             0501
A5501400120000002019158SUPERIO, MERLYN G. DBU DIAMOND                          10502
A5501400120000002019158MEMORIAL CARE SA                                        20500
A5501400120000000046882CHIU, VALENTIN & JULIA EILEEN &                         10502
A5501400120000000046882CHRISTIAN & CHRI                                        20500
A0901400220000000888031**********                                               0502
A0101403030441648140001**********                                               0510
A0101412890000004638820LOPEZ, MARIA CONCHITA TORRICER                           0501
B0101412890000000125317LANSANG CONSTRUCTION                                     1601
A0101403320000004830900*********                                                0501
B0501400170481018109002****                                                     1601
B1901400160491027966001SALESFORCE ONE MARKETING, INC.                           1605
B1401400110492046364001GROUP AFFILIATES INTERACTIVE NETWORK                    11605
B1401400110492046364001MANPOWER SERVICE                                        21600
A1401400110492409739002NERI, MA. CARMELA DE LEON                                0501
A1401400110492501372001NORMA TAN OR MICHAEL SIA                                10502
A1401400110492501372001OR JOHNSTON SIA                                         20500
A1401400110000003988923DY, EDNA AYCARDO                                         0501
B0101407430503045993001VIREO LOADWORKS INC.                                     1602
A0101403580511026941001CECILIA NARVAEZ Y DISENOS                               10502
A0101403580511026941001INTERIOR                                                20500
B0101403580511036608001WELLTHY SOLUTIONS INC.                                   1605
B0101403580000004558670KPMG CONSULTING (PHILIPPINES) INC.                       1603
A0101405940512338558002CECILIA B. CLAVECILLA                                    0501
A0101406880000000027147LAWS, KATRINA REYNOSO OR LAWS,                          10505
A0101406880000000027147JOSEPH REYNOSO                                          20500
A0101408110515475060001MOTOGP INTERNATIONAL DESIGNS MG                         10501
A0101408110515475060001& MERCHANDISING                                         20500
A0101408530000000594241ROCES, CARLOS NOEL BENARES                               0501
A0101408530516548003001EUGENE T. TAN                                            0502
A0101411790000000469596**********                                               0501
B0101403450000001770003**********                                               1601
A0101403450521281581001**********                                               0501
A0101403450000001769913**********                                               0501
A0101403450521679548001**********                                               0502
B0101410690000000710843REJUSO, JEFFREY ACUNA AND TAN, DENNIS LI                 1601
A0101407720602243680002PRING, AGUEDA S.                                         0502
A0101407720602415232023ARLYN L. SONGCO                                          0502
A0101407720602701334001MALE, EDWIN BALGOMA                                      0501
A0101404260611434800001LLARENAS, RODOLFO PARAGATOS                             10510
A0101404260611434800001AND VERNIE BUNO                                         20500
A0101407690000000587895MANLIMOS, AMALYN DELANI                                  0501
B0101407690000000243843IDESCO CONSTRUCTION AND DEVELOPMENT CORP                 1601
A0101407690652525001047NOEMI B. BUNDA - DEALERS OF                             10501
A0101407690652525001047SHOECAT INC.                                            20500
A0101407690652563634001RUEL L. LECAROS  OR                                     10502
A0101407690652563634001JOVITA M. LECAROS                                       20500
A0101407690652700817001PITOGO, CECILIA JALEM                                    0501
A0101407690000000053881********                                                 0503
A0101413440000002339573CABRERA, LEOTHENY ALBANO                                 0502
A0101413440000000570416HIZON, MARIA  CHRISTINA M.                              10502
A0101413440000000570416OR HIZON, RICHARD T.                                    20500
B0101413440000000038195SIENA MOBILE WORLD CORP.                                 1601
A0101413570000003379931*************                                            0501
A0101413570656057648112RICHARD FLORES                                           0501
A0101413990000001195200FILOTEO, AILYN GAY ANDALAY                               0502
B1301400210000000915673EDCON CARGOTRANS, INC.                                   1602
A1301400500000003070093AMISTAD, RONALDO ESTAVILLEO                              0503
A1301400500684058869001YOUNG BUILDER'S TRADING                                  0501
A1301400500684635536001JOSELYN D SANTOS OR                                     10501
A1301400500684635536001EDGAR D VILLAR J                                        20500
A2801400100712507515001PINEDA, JENIPHER VISDA       OR                         10501
A2801400100712507515001PINEDA, RAUL PER                                        20500
B2801400230713045988001NGE TRADING                                              1602
B4101400260812027130001EMI IND'L CORP.                                          1610
A4101400260812694199001ORTIZ, ELPIDIO RAMOS                                     0502
A0101405070000000414582NICANOR P. NATIVIDAD OR                                 10501
A0101405070000000414582ADORA G. NATIVID                                        20500
A0101413860000001886980LUMBAY, M DBU MARK LUMBAY PROJE                          0502
