B0101412630000002186529ONESUNASIA INC.                                          1602
B0301400820000015222983UY, DANILO PULONG DBU DANVIC                            11603
B0301400820000015222983CONSTRUCTION                                            21600
A0101403450521397310001**********                                               0502
B0101410300000005331691SPECIFIED CONTRACTORS AND DEVELOPME                      1602
A4101400260000012862870JULATON, BENJAMIN                                        0501
A6601400120000000060380ADRIATICO, ROMEO VILLASIN                                0502
A0501400170000006300681NAVAL, MARIA ANGELA MARGES                               0501
B0501400170000013295980GUANZON MERCHANDISING CORPORATION                        1601
A0501400170481046585002ANG, JUSSLYNN DBU                                       10505
A0501400170481046585002AVS DISTRIBUTION                                        20500
A0501400170481252349002LALAS, MAEVA DELA CRUZ                                   0501
A0501400170481253841003VINLUAN JR., JOSE D.                                     0501
A0101410300000011355514SISON, ERIC LOUIE OR SISON,                             10502
A0101410300000011355514AURORA MARGARET                                         20500
B0101400860011374740004**********                                               1605
A0101400860011742231001**********                                               0510
A0101400150000010875615NOEL FONTILLA                                            0501
B0101400150061021566001SUGAR MASTER PLAN FOUNDATION, INC.                       1603
B0101400150061021566005SUGAR MASTER PLAN FOUNDATION, INC.                       1602
B0101405810072374751001**********                                               1601
A0601400100000009324090SIMSUANGCO, PAUL ALLAN DIWA OR                          10501
A0601400100000009324090DEL ROSARIO, MARIA FRANCE                               20500
A0601400100000012782344VERMA, GAURAV                                            0501
A0601400100081251806002MUNOZ JR., ANACLETO JUICO                                0502
A0601400360000015947398BONDOC, RILAMAE RODRIGUEZ                                0501
B0101413280000009368454POSITIVE EXPOSURE PRODUCTIONS INC.                       1602
A0101410850109055107001BOTE, MARISSA M. DBU SUN CHASER                         10501
A0101410850109055107001TRUCKING                                                20500
A0101406040112206979001DR. JOSEPHINE M. LIMETA                                  0501
A0101401960121348042001YAP, HELEN SY                                            0501
A0101412630000007168803STA. CRUZ, CONCEPCION LAZARO                             0501
B7201400170000003773637MDSDOC CORPORATION                                       1601
A5001400170000000044982URBAN PAINTS & MORE ENTERPRISES                          0502
A0101412920000005675727TUMALA, JEFFREY PANTINO                                  0501
A0101412920000015383094GALINATO, JOVINA OBAR                                    0501
A0101407270000014296990DE GUZMAN, ANGELITA BUENASEDA                            0501
B0101407270000015779012WEALTHWORLD INTERNATIONAL INC.                           1601
A0101401090000015948539ABOGADO, JANNEL NOVINO                                   0501
A0101401090000015789545HIZOLA, JOMAR METEORO                                    0501
A0101401090171196077001EUSEBIO E. LLAMAS OR                                    10502
A0101401090171196077001LOURDES LLAMAS                                          20500
A0101401090171680564001LUMASAG, CHARLOTTE TOLEDO                                0501
A0301400660000006862851ARELLANO, RINABETH LUMINARIO                             0501
A0301400790000015958339ESCUADRO, DENNIS S DBU NCKK ENT                         10501
A0301400790000015958339OR ESCUADRO, REVENCY C                                  20500
B0301400950000002115800UNITED WIL MANPOWER AND ALLIED SERVICES                  1605
A0101401380000001819996********                                                 0502
A0101401380000015062530MUYA, MARLON BATHAN                                      0503
B0101410720653035012001GENERIC SAVES DRUGSTORE                                  1606
B0101410720000007017314RUBEN C. BARTOLOME MD CLINIC INC.                        1602
B0101412500000000041670MOLDEX REALTY INC.                                       1605
A0101413600000005355022EDDY FRANCIS B. GABRIEL                                  0502
A3101400160000001169153VANESSA L BELEN                                          0501
A3101400450000015661711BICOMONG, MELANIE BARCENAS                               0501
B3101400450223040460001CREATIVE AUDIO VISUAL SOLUTIONS,INC                      1601
A3101400450223588221001GATDULA, JAMAILA  OR AGONCILLO,                         10501
A3101400450223588221001JAYVEE OR JOSE                                          20500
A3101400450223702062001BALBUENA, BENIZON BIRON OR                              10501
A3101400450223702062001KIM, SUN                                                20500
A3101400740224369648001CHO, MA. CECILIA SAMUYA                                  0501
A3101400870000009926776TUMANDAO, JAYSON JULIANO                                 0501
A3101400870000015958788BATO, MARICEL D. AND                                    10501
A3101400870000015958788DELA CRUZ, JOCELYN G.                                   20500
B3101400870000005960701TOMO GOLD TRUCKING SERVICES, INC.                        1602
B1301400470000000009583PCCD FOODS CORP.                                         1602
A1301400470252478374028NORMA S. BALLESTEROS                                     0505
A1901400290261298552056TERESITA EUGENIO PUNZALAN                                0502
A0101401670000005039834TEH, JASON SY OR TAMAYO, JEROME                         10501
A0101401670000005039834CABRERA                                                 20500
B0101406460272020749001EASTGATE COMPUTER CORPORATION                            1601
B0101406460000001231656EASTGATE COMPUTER CORPORATION                            1601
A0101400570281192838001ERNESTO GUARIN MEDINA                                    0502
A0101400570281242384001ELE0NOR PARAMBITA BUNGALON                               0502
B0501400200000000035710GOLDEN DRAGON MOTOR SALES CORP.                          1601
A6601400120314617868088LUCERO, SINCLAIRE A. OR MIRA R.                          0505
A6601400120314668441002MASLOC, SHERRY AMOR GALONO                               0501
A2001400290315081010001TAN, JAMES ERWIN VILLABERT                               0501
A3401400280000003493925TAMUYAO, JESSE DUMALOS                                   0502
A3401400280000006791235ELECHICON III, ALFREDO SIA                               0502
B0101405650322024999001SUPERIOR MAINTENANCE SERVICES, INC.                      1630
B0101405650322172336001RCBP-OUR LADY OF GRACE PARISH                            1601
A0101402060000009179622AUGUSTO ROSALES &/OR                                    10503
A0101402060000009179622TERESITA S. ROSA                                        20500
A0101409050000011558913ARRICIVITA, MARIANE ILLORDE                              0502
B0201400890376047100001MANDAUE PRINT SHOP CORPORATION                           1605
A0101402930000010657884**********                                               0502
B0101402930381024568001MCKS FOOD FOR THE HUNGRY                                11605
B0101402930381024568001FOUNDATION, INC                                         21600
A0101408790000005251092MAGPANTAY, CHARLYN MAE PACSON                            0504
A0101405490000001092693JOVELYN L. AMINAGA                                       0501
A0101408400000010507030CASTRO, NEHEMIAS DIN                                     0501
A0101409210000014368460CARPENA, KLAREESSE MARIA LOURDE                          0501
A0101412210399094817016MARTIN G. ZAMORA                                         0505
B0301400820409091735055LIMA, WINDELL BRISTOL DBU DAVAO HOME                    11601
B0301400820409091735055BUILDERS CENTER                                         21600
A5501400120000012653413CABLITAS, KRISTIAN JAY MANUEL                            0503
B5501400120410821100608**********                                               2020
A1201400150000015171952JOSON, OISHEN PHOEBE OWATAN                              0502
A0901400220000006214604QUEEN LEE GARMENTS                                       0502
A5101400100000011336951VALIENTE, ELVIRA CUIZON                                  0502
A0101406330000015172153ZALDIVAR, JOSEPHINE ROBAS                                0501
A0701400260000005303713EVANGELISTA, EDUARDO ERNESTO                            10502
A0701400260000005303713ALMEDA                                                  20500
B0101407430000000035258LINAHEIM CORPORATE TRAVEL & TOURS INC.                   1601
A0101407430503378986001VILMA SANCHEZ MONTILLA                                   0501
A0101407430503403861001AIDA P. PANCHO                                           0502
A0101408530000002981008CHUA, THERESA SY                                         0501
A0101411790000000469596**********                                               0502
A0101403450521240346001**********                                               0504
A0101403450521393150001**********                                               0501
A0101403610000006637034**********                                               0501
B0101403610531224782001**********                                               1603
A2201400250000013014947RESURRECCION T. QUIAMBAO                                 0502
B0101404130601042675001IPRUDENTIAL STEVEDORING AND PORT                        11603
B0101404130601042675001SERVICES INC                                            21600
A0101404130601463563001DE GUZMAN, NORMA MALANG                                 10501
A0101404130601463563001OR DE GUZMAN, NE                                        20500
A0101404130601644287001CABARDO, CHUCK LUIGI PASCUA                              0502
A0101407720000010907747ROSALES, RONN ROBBY DE CASTRO                            0501
A0101407720602161854002**********                                               0501
A01014121800000018388881ERAIN, IRJOHN BACQUIAN                                  0501
A0101412180000001838888DERAIN, IRJOHN BACQUIAN                                  0501
A0101404260611151435002LORNA VEJANO AND RAUL VEJANO                             0502
B0101409920650047984001INNOTREND BUILDERS                                       1602
A0101407690000008045874CRUZ, MARITES ZOILO DBU TICKLAI                          0502
B0101407690000006736543JAMAMA.CONSTRUCTION INC.                                 1602
A0101413440000015041584NAMOC, JEFFERYI TORENO                                   0502
A0101414120000015400643ARELLANO, KATRINA CO                                     0501
B0101414120000007655378ABMARAC CORPORATION                                      1601
A0101406590662506446001CANCIO, LUIS BORROMEO                                    0501
B1301400210000005040953EDEL'S PLANT NURSERY                                     1603
B1301400500684029282001L5 & SONS FINANCING CORP.                                1610
A0101408240711374194001ELBA S. CRUZ                                             0503
A0101408240711530967001RUSTE, CHRISTOPHER PATRICK OR                           10501
A0101408240711530967001RUSTE, JOANNE KA                                        20500
A2801400100000007895996ARMAMENTO, CRISPINO VILELA                               0502
A4101400420814477593003BAUTISTA, TERESA PONCEJA                                 0502
A4101400420814520766027ARUTA, CORAZON G.                                        0501
B4101400550000006043994*********                                                1604
A0101412340000003344210LAARNI S. LIMACO                                         0501
A0101412340000014512740TILISTYAK, ROSHILEY DUCA                                 0501
A0101404840000010224505Ricalde, Mary Ann A.                                     0501
A0101404840851463516002ARCIAGA, FRANCISCO OR                                   10510
A0101404840851463516002ARCIAGA, GERALDI                                        20500
A0101406750000002251423NAVARRO, ANNIE ROSE SUNGA                                0501
