A1301400760000005379531JOBY L. MORENO OR                                       10505
A1301400760000005379531LAWRENCE G. MORENO                                      20500
A0101410720000000095163PAYLAN, JUVY OCER                                        0501
A0101413990000002274051CIUDAD, DIOSELL LYDIA LAYOS                              0501
A0101401250000002131817PERICO, JOSEPH MARIA AGUSTIN                             0501
B0101400150000001708470V MONEY INC.                                             1605
A0101400150061290485002ERIBERTO LUIS ELIZAGA                                    0502
A0101400150061316369005NENITA C. LINAO                                          0501
A0101400150061738608001SANTOS, ZOSIMA OR SANTOS, RALPH                          0502
A06014001000810330290015SC SHUTTLE SERVICE                                     10505
A0601400100081033029001BY: KRISTINE S.                                         20500
A0101412630000002352392DE CASTRO, FREDERICK D.                                  0501
A0101413310000001073585CHEN, CHARLENE JIM                                       0501
A0101407270000006950576MENDERO, HANNAH ALYSSA VENTURA                           0501
A0101410720653172369002NOVILLA, WARLITA                                         0502
A0101412500000001146758MARIANO, RICHEL PELIGRO                                  0501
A1001400190231520766117TAROY, MARIONNE ANGELOU SALEM                            0502
A1301400470000000366494GROSPE, GERARDO OR                                      10501
A1301400470000000366494GROSPE, EVANGELINE                                      20500
A1901400290261042311009DR. CORNELIO CUAYZON ONG II                              0501
A1901400290261056959001QUINO, ALVIN PADUA                                       0501
A1901400290261390520001JOEL PUNZALAN DIMAANO                                    0502
A0101401670271033400001PHILIPPINE NUMISMATIC &                                 10501
A0101401670271033400001ANTIQUARIAN                                             20500
A0101401670271036980001ALKION WATER STATION                                     0502
A0101406460000002359782RICAFRANCA, EVELYN ACUIN                                 0501
A0101406620273038576001VENTURE 11 FOODS EXCHANGE                                0501
A0101406620273038576002VENTURE 11 FOODS EXCHANGE                                0501
A0801400160311391813002*******                                                  0501
A6601400120314612855001SUNDAY LAVIN JR OR IRIANA LAVIN                          0505
A3401400280318478374002PIONELO, LENIDIE DEVELOS                                 0501
A0101402350321584873001********                                                 0501
A0101402510341199103001CORAZON D. HUANG                                         0502
B0101402060351217550002PETRON VALLE VERDE                                       1610
B0201400920375034855001SHELLS TREASURES INTERNATIONAL CORP                      1605
A0201400890000003645123SOCO, GLENN ANTHONY OCAMPO                               0502
A0201400890000003645185RODRIGUEZ, ANGELICA SERENITY S.                         10503
A0201400890000003645185OR SUEZO, SUSAN V.                                      20500
A0101408370382381086001TULOD, LUZVIMINDA MUNCAL OR                             10501
A0101408370382381086001TULOD JR., AMANTE MUNCAL                                20500
A0101408370382518011001MARIE ANTOINETTE DIZON, MD                               0502
A0101402770391473263001LEONARDO, DANILO OR                                     10501
A0101402770391473263001LEONARDO, MA. CONCHITA                                  20500
A0101405490000002253021BANZIL, VENESSA TANTICO                                  0502
A0101405490392478374008MARGARITA R. CIELO                                       0502
A0101409210000005251809RUBINSTEIN, BEN WILLIE                                   0501
A1201400150421685972001JUCUTAN, HEIDI BONDAD OR                                10503
A1201400150421685972001JUCUTAN, ROMMEL                                         20500
A0101403030441239031002**********                                               0501
A0101406330472213329001EVANGELINE G. REAL                                       0506
A0101406330472217737001ARR MARKETING & GENERAL MDSE.                            0501
A0101406330472356808002CHRISTIAN E. CANGCO                                      0510
A0101406330472508335002RAMIR R. ALVAREZ                                         0503
A0101410140475478374011MEMBERS OF NATASHA (SHOECAT INC                          0501
B0101412760000000031990PRIVE PROPERTIES DEVELOPMENT INC.                        1601
B3801400170000000018788MINDORO PPA EMPLOYEES MULTI-PURPOSE                     11603
B3801400170000000018788COOPERATIVE                                             21600
A1601400170000000497514DANTE D. VALLADOLID                                      0501
A0101405940000001534258BAUTISTA, JUVY PAGSUGUIRON                               0501
B0101405940000000002995KONA COFFEE AND DELI COMPANY INC.                        1604
A0101405940512151522006**********                                               0502
A0101408530516571877162MA. CORAZON L. MAKASIAR                                  0501
A0101411790000006946952VARGAS, ANGELAZHARYL SANTOS                              0501
A0101411790000004807916JALANDONI, SYLVIA  ESPINO                                0503
A0101412050000006005163**********                                               0501
B0101403450521010718002FIL-PACIFIC APPAREL CORPORATION                          1610
B0101403450521012009001SYMPHONY TECHNOLOGIES, INC.                              1603
B0101403450521020418001**********                                               1605
A0101403450521238594001**********                                               0502
A0101403450521361575001PO, PAULINE LU                                           0501
A2201400250561555847001**********                                               0503
A0101407720602332279002CAYCO, ANTONIO V. OR                                    10501
A0101407720602332279002CAYCO, MARGARITA                                        20500
B01014042606110209570013G CABLENET AND CONSULTANCY INC.                         1603
B01014042606110209570013G CABLENET AND CONSULTANCY INC.                         1603
B0101404260611027402002ENTRUSTED CORP                                           1605
A0101404260000003498420LABRADOR, ROGELIO DBU PRL METAL                          0502
B0101409890000003098151TECHNOLINE DIGITAL TRADING INC.                          1605
B0101407690000000243894MT. BLANC MOTORS, INC.                                   1601
B0101407690000000243901ETNA MOTORS, INC.                                        1601
B0101407690000000243912MCKINLEY MOTORS, INC.                                    1601
A0101407690000000495381DE GUZMAN, THEODORE PARTIBLE                             0501
A0101407690652344105001DR. RICARDO S.D. LEDESMA OR                             10501
A0101407690652344105001AVELINA G. LEDESMA                                      20500
B0101407690652505889001VANCOUVER HILL PRESCHOOL, INC.                           1601
A0101407690652525001064JOAQUIN JUANCE - DEALERS OF                             10501
A0101407690652525001064SHOECAT INC.                                            20500
A0101407690652525001083TULABING, VIOLETA - DEALERS OF                          10501
A0101407690652525001083SHOECAT INC.                                            20500
A0101411530000006217483**********                                               0501
B0101413570000000206522HOLY SPIRIT COMMUNITY MULTIPURPOSE                      11601
B0101413570000000206522COOPERATIVE                                             21600
A0101414120000005252820JKJK WATER STATION                                       0501
A0101414120000005252864MVG HARDWARE                                             0501
A0101414120000006005323CASIMIRO, ANNA KATRINA CANLAS                            0501
A0101406590662478374008CARMILITA C. LEYSA                                       0502
A0101406590662523209001BENDANA, SARAH PO                                        0501
A1301400210000000540732LUPENA, MA. LINDA GANZON DBU JI                          0502
A1301400210682246147001MA. ANGELA O. CELERIDAD                                  0502
A1301400340000000980212OLIVETE, FELOMENA MONTANIEL                              0501
B0101408240000000832575BOCUSE FOOD CORP.                                        1605
B2801400100712032123002ZAMBALES MEDICAL MISSION GROUP HOSPITALS                 1601
B2801400230000001580296DEL ROS AMUSEMENT ENTERPRISES, INC.                      1602
A4101400260812039003001CEASEFIRE INDUSTRIAL SALES &                            10505
A4101400260812039003001SERVICES                                                20500
A4101400260812047321001MEDCREST MULTISPECIALTY DIAGNOS                         10502
A4101400260812047321001CLINIC & PHARMAC                                        20500
B4101400390813028210001GOLDEN DRAGON MOTOR SALES CORP.                          1603
B0101404840851045308001CONBUILT ENGINEERING                                     1602
A0101404840851217637056IMELDA A. OSORIO                                         0501
A0101404840851298552056ROSARIO GABAYERON                                        0501
A0101404840851478374115ERLINDA O. PRADO                                         0501
A0101404840851542980001MASANGCAY, NORA VERCELES                                 0501
A0101406750000002040157SANCHEZ, IRMA CASTUSCIANO                                0501
B0101406750852709702001DAFARM CORPORATION                                       1602
A0101405070000000414548BALSAMO, VINCENT ALIOY                                  10502
A0101405070000000414548OR BALSAMO, MYLA                                        20500
A0101405070000002281972VASQUEZ, JOE RIZ FABRIAG                                 0501
