B0101400860011821100608**********                                               2003
B0101400860011821100608**********                                               2003
B0101400860011821100608**********                                               2003
A4101400260000011417440LAZO, CHRISTINA TANEDO                                   0502
A0101400860000002333591******                                                   0503
A0101400860000011515961**********                                               0502
B0101400860011389659002**********                                               1605
A0101400860011395231001***********                                              0504
B0101400860011397647001**********                                               1602
A0101400860011475361001**********                                               0505
A0101400860011505101001**********                                               0502
A0101400860011537484001**********                                               0505
A0101400860011568203001**********                                               0510
A0101400860011656351001**********                                               0502
A0101401250000008233265HABIB, MARIJILL AQUINO                                   0503
A0101411370000003548925AW, HARVEY LIM                                           0502
A0101400150000010296938BLASURCA, ERLIND GENIVIEVE PAMB                          0502
A0101400150000013758739CAJUCOM, MARGIE ROMERO                                   0502
B0101400150061019206001BUENAVENTURA ECHAUZ & PARTNERS                           1601
B0101400150061048055001HOME DEVELOPMENT MUTUAL FUND                             1601
A0101400150061191530001AMELIA DULCE D. SUPETRAN                                 0501
A0101400150061228390001MELISSA O. NG                                            0501
A0101400150000002749780DANOSO, SHIELLA VAFLOR                                   0501
A0101400150061711212001LAWRENCE KRISTOFFER YU                                   0501
B0101400600000008915000********                                                 1601
B0101400600071045155001*******                                                  1602
B0101400600071787115001**********                                               1602
A0101405810000013190813TEPACE, ALYANNA MARIE JAVIER                             0501
B0101405810000005943320D.W. PLASTIC CORPORATION                                 1601
B0101405810072361051003**********                                               1602
A0601400100000000786767TAN, JUANITA YU OR TAN, ADRIEN                          10501
A0601400100000000786767YU                                                      20500
B0601400100081018566001BLUE QUEST PURIFIED WATER STATION                        1601
B0601400100081022878001DM CRISSAN AUTO SUPPLY & CAR ACCESSORIES                11608
B0601400100081022878001SAN FERNANDO                                            21600
A0601400100000006334049MCDONALD, DONNA KAY                                      0501
A0601400100081710246001CHOI, JAE JUN                                            0502
A0601400520000003187273TUAZON, MA. ELISA MACAPAGAL                              0502
A0101410850000016136253DETOON, NORBERTO PADLAN DBU                             10501
A0101410850000016136253MARKPRESS TRADING                                       20500
A0101410560000011873171RUBEN L TALABOC                                          0501
A0101400730000003892251MYRLENE BAYANI                                           0501
A0101400730111478374151MELANIE T. SIGUE                                         0501
A0101400730111478374198DE VERA, NORLINDA                                        0502
A0101406040112206767001LUZMINIA ALANES OR                                      10501
A0101406040112206767001PEDRO ALANES JR.                                        20500
A0101401960121096152001***************                                          0502
A0101401960000006004411***************                                          0501
A0101413310000010284716MONTE, SHYRLYN ABAD OR MONTE,                           10501
A0101413310000010284716JENERSON JINGCO                                         20500
A0101401830000000535653DONATO, AARON ACOBA                                      0501
A7201400170000003774276TOLENTINO, ELENA TUDTUD                                  0501
A7201400170000003773182TESSIE J. YU DBU RAMONA CONST.                          10501
A7201400170000003773182& ENT. OR THELMA ODTOHAN                                20500
A7201400170000010016056GANANCIAL JR., CARLOS FUENTES                            0502
A7201400170000013006825ARIEL S. VILLANUEVA                                      0501
A0101400440000014296592GALANG, PETER PAUL CASTRO                                0501
A0101400440161525001049MYRA M. MANDO                                            0501
A0101407270162081811001LINGA, FIDELA LINING                                     0501
A0101407270000013577814BUTAC, RUFINA DARIAGAN                                   0501
A0101401090171196066001DRS. REDARIO OR MARY JOCELYN                            10502
A0101401090171196066001LAYGO                                                   20500
B0301400660000006755173**********                                               1601
B0301400660194044769038LUMINOUS DEVELOPMENT CORPORATION                         1605
B0301400660000012086652**********                                               1603
B0301400790000001244531LAGARTO, SHECEL DBU SHEER DEW                           11604
B0301400790000001244531PURIFIED WATER                                          21600
A0301400790000003969542******                                                   0501
A0101401380000005320978KIM, WON KAB                                             0502
A0101401380000012372855MUYA, ROLLYMIN MECLAT DBU                               10501
A0101401380000012372855ROLLYMIN ENTERPRISES                                    20500
A0101401380201517488001BENEDICTO, HERIBERTH MEDINA                              0501
B0101401380201525090001HONGKONG MASTER COOK CORPORATION                         1605
B0101410720653028089001INOCENTES REALTY & SALES CORPORATION                     1603
A0101410720000000095254MIRANDA, ROWENA CRUZ OR                                 10502
A0101410720000000095254MIRANDA, ANTHONY                                        20500
A0101413600000014854589AL-HADRAMIE P. ABDULMAJIED                               0501
A3101400160221478374062LANI R PEREZ                                             0501
A3101400160221534753001ALFRED T OPINIANO                                        0502
A3101400450000005960450TAN, ROCKY TIENG                                         0501
A3101400450223058711001ESEO, GUIA DBU BUENA-VENTURES                           10501
A3101400450223058711001TRADING POST JT                                         20500
A3101400740224646140001CHUA, JANETTE SY                                         0501
B1001400190231022229001CITY ALLIANCE CHURCH                                     1602
B1001400190231043368001SML VENTURES                                             1601
A1001400190231478374086LORNA A. OMANDAM                                         0501
A1001400190231520766006DELFIN, LORENA                                           0501
A1001400190231520766020LUBIDO, CAROLINE JARALES                                 0501
A1001400190231520766029COTIAMCO, EDEN                                           0501
A1001400190231520766051NANCIE DAAYATA                                           0501
A1001400190231520766125YANA, MAYFLOR DAGOC                                      0501
A1001400480000003357760ABADIANO, CARMEN ALINSUG                                 0501
A1301400470252458486001ZENAIDA TAN CHUA OR JESSE                               10501
A1301400470252458486001ALLAN CHUA OR ANGELO CHUA                               20500
A1301400760000012980913DIVINO L. FELICIANO                                      0501
A1901400290000002337759OLIVA LEYESA MALDONADO                                   0502
A1901400290000003252742NACACHI, ALLYSSA NIKKA OLARTE                            0502
B1901400290261038595001B & V TRADING                                            1602
A1901400290261298552022ALVIN DEL ROSARIO MAGNAYE                                0502
A1901400290000006560158CHENG, XIAOZHEN OR                                      10502
A1901400290000006560158YANG, ZONGCHANG                                         20500
B0101401670271038641001DIGITEL MOBILE PHILS., INC.                              1601
A0101406460272674209001**********                                               0501
B0101406620273046416001FIRST SHELTER VENTURES & REALTY CORP.                    1605
B0101406620000003497103GREENROOF CORPORATION                                    1606
A0101406620273403501001BASA, CATHERINE VIRAY                                    0501
A0101408660000002264893*************                                            0502
A0101411110000002319951***********                                              0501
A0101411820000008442780RELIZA REMOLIN OR                                       10501
A0101411820000008442780LANIE GAJETE                                            20500
A0101411820000004981791JOSE WILLIAM L. YUTUC OR                                10501
A0101411820000004981791MICHAEL VINCENT MANALO                                  20500
A0101411820277775683001***********                                              0502
B0101412470000000949544BEYOND METRO POINTE GREENHILLS INC.                      1603
A0101411240000015038092TUMANG, DELIA LENY PLASTINA                              0501
A2601400270302556418001RONNIE P. BALOLONG                                       0501
B0801400160311100161001PRUDENTIAL CUSTOMS BROKERAGE SERVICES,                  11603
B0801400160311100161001INC.                                                    21600
A2001400290000004890057FERNANDEZ, SHEILA BANOGON                                0501
A2001400290000011716755DUMALAG, ANTHONY TOLOMIA DBU                            10502
A2001400290000011716755ADS EDGE ADVERTI                                        20500
B3401400280318028083002LEMACEL TRADING CORPORATION                              1615
A0101402510000003482295CRUZ, MARIA ELIZA PULUMBARIT                             0501
A0101402510000013485582RAGOS, KATHLEEN CHARMAINE                               10502
A0101402510000013485582SAN JUAN                                                20500
B0101402510341034222001E.J. "G" FOODS CORPORATION                               1610
A0101402510341197697001GLORIA R. DEL MUNDO                                      0501
A0101402060351496056001LANDRITO, JUANITO CARLOS                                 0501
A0201400760000009466191**********                                               0501
A0201400760000013874752ORTANEZ, PATRICK JOSEPH PLACENC                          0501
A0201400920000012765083LAUDEREZ, RICHARD PAUL PABILLAR                          0502
A0201400920000007951742LUMAPAS, NESTOR CRISPIN MIGUEL                           0501
B0201400920000000007963THE PERSIMMON CONDOMINIUM CORPORATION                    1603
A0201401020000000056131KHOSRAVIBABADI, MASOUD                                   0502
A0201401020000007935440REGIS, MANUEL ARAZO                                      0501
B0101402930381010731001********                                                 1601
A0101402930000000859770METT MOTIVATIONAL ENGLISH                               10502
A0101402930000000859770TRAINING                                                20500
A0101408370382237007001DR. NENITA C. CRUZ OR                                   10506
A0101408370382237007001RODOLFO A. CRUZ                                         20500
A0101408370382315305001HERMINIA F. FRESNOZA                                     0501
A0101408370382663801001DRS. RICARDO G. ROCO OR                                 10502
A0101408370382663801001URSULA V. ROCO                                          20500
A0101408790000005954083CULLADO, MA. CORALYN SAGRADO                             0501
A0101408790000010423331BENJAMIN VILLACORTA III                                  0501
B0101408790000002659141BETUR, INC.                                              1602
A0101415350000007878140PELAYO, JESCTONI TORRES                                  0502
B0101402770391025883001DA LEONARDO INDUSTRIAL INC.                              1601
A0101402770391029270001RCABAN - SAN ANTONIO DE PADUA                           10501
A0101402770391029270001PARISH                                                  20500
A0101402770000006642793SUESS, FLORENCIA GERODIAS                               10502
A0101402770000006642793DBU FGS ENTERPRISES JT                                  20500
A0101405490000016156035CATAHUM, MARY ANN LIBRES                                 0501
A0101405490000002880551MARIE GRACE BUITRE DBU CEDAR                            10504
A0101405490000002880551TREE CONSTRUCTION SUPPLY                                20500
A0101405490000000530874JOYA, MADELYN CASANADA                                   0502
A0101405490392298552043BETTY R. ARENA                                           0502
A0101405490000006241943MINERVA V. VILLACORTA                                    0501
B0101408400000014004687ABSHA CONSTRUCTION & DEVELOPMENT INC.                    1602
A0101408400394033625002IVAN COMPUTER SYSTEM                                     0504
A0101408400000001855381ABSA BUILDERS                                            0502
A0101408400000007540003HERNANDEZ, AMANDA BEATRICE VENE                          0501
A0101408400394426438001DETOYATO, LAURA ROSANNA LAOAGAN                          0501
A0101409180000003780472MADISON CORRALES                                         0504
A0301400820000002272055DELA VICTORIA, MERLE D.                                 10502
A0301400820000002272055OR JEMINO, ELMAMER P.                                   20500
A0301400820000008995599SUMAGIT, DANILO S.                                       0501
A0301400820000002271967NAVARRO, AVIS M. OR NAVARRO,                            10502
A0301400820000002271967RODRIGO P.                                              20500
A2401400180000002146378CHAN, KRISTINE ANNE ILUMBA                               0501
B2401400180411014376006PENBANK, INC. (A PRIVATE DEV'T BANK) -                  11605
B2401400180411014376006FISHPORT BRANCH                                         21600
A1201400150000000034426GARINGARAO, RYAN DUMALAGAN OR                           10504
A1201400150000000034426GARINGARAO, CARM                                        20500
A5101400100000010371461ACTUB, JONELYN BERNASOL OR ACTU                         10505
A5101400100000010371461B, MICHAEL CLOMA                                        20500
B5101400100000010833957GAW, AIRY LUNA JT                                        1603
A5101400100000014191363DE ASIS, ADELAIDA BALOGO                                 0502
A0101403030441239184001DARWIN NG                                                0501
A0101412890000012154493ENCABO, MARIANNE EVANGELISTA                             0502
A0101412890000014437522DE GUZMAN, PAOLO CECILIO                                 0501
A0101406330472027958001A. ANOLIN ENTERPRISES                                    0502
A0101406330472372718001PRISCILA BADELLES                                        0502
B0501400170481016209001DAGUPAN FILCO MERCHANDISING                              1602
A0501400170481046585002ANG, JUSSLYNN DBU                                       10510
A0501400170481046585002AVS DISTRIBUTION                                        20500
B0501400170000013295917LEAD WITH INTEGRITY AND GOOD GOVERN                      1603
A0501400170481062103001ANG, JUSSLYNN MAISIE ONG DBU                            10502
A0501400170481062103001SOULSTICE SPA                                           20500
A0501400170481385350001MARILYN FERNANDEZ OR CAROLINE                           10501
A0501400170481385350001FERNANDEZ                                               20500
A1901400320000013129954ZARA, HAZEL FRANCES DAGLI                                0501
A1601400170000005991973UY, KATHERINE B. OR                                     10501
A1601400170000005991973UY, FERDINAND C.                                        20500
A0101403580000002265603ROBEDISO, LEANDRO BEN MOLINA                             0501
A0101405940000016147341TOTTORI, SHIGEMASA .                                     0501
A0101408530000016154102FRISCO, MAUREEN GAIL MENDOZA                             0501
B0101408530000010055722PANELO, JANE G DBU LOGICARE CUSTOMS                     11602
B0101408530000010055722BROKERAGE SERVIC                                        21600
A0101408530516571877059JEFFREY CALDERON                                         0501
A0101411790000011564082ESTACIO, ANA LIZA DELADIA                                0502
A0101411790000016153741FLORENTIN, MADEL TEOLOGO                                 0501
B0101411790000004808082PDB PROPERTIES, INC.                                     1605
A0101412050000016152208ANIBAN, SHERYL MAI EVANGELISTA                           0501
A0101403610000016147990ACUYONG, RENATO DIESTRO                                  0501
A2201400250000012982806BLANCO, NOEL SANTOS OR URSUA,                           10502
A2201400250000012982806AMELITA MANUBA                                          20500
A0101404130000000043934DELA CRUZ, MA. ELINORE                                  10502
A0101404130000000043934DE CASTRO                                               20500
A0101404130601027289001JULIUS L NONO                                            0501
A0101407720602161863003ROBERTO K. MACASAET OR                                  10502
A0101407720602161863003VIRGINIA M. RAFAEL                                      20500
A0101407720602166527001ALIPIO ABAD JR. OR                                      10510
A0101407720602166527001ADORACION ABAD                                          20500
A0101407720602166527002ALIPIO ABAD JR. OR ADORACION                            10510
A0101407720602166527002ABAD OR ANABELLE ABAD                                   20500
A0101407720602396595001DR. MILAN P. TAMBUNTING                                  0505
A0101407720602461436003JANICE STEPHANIE                                        10503
A0101407720602461436003GIMENEZ-MENDOZA                                         20500
B0101412180000008320089RONNIE AND JOE RETAIL CONCEPTS INC.                      1603
A0101404260000005447105**********                                               0501
B0101404260611044359158GREAT ARCHER SALES                                       1602
A0101409890000011486710DINO, SUSAN BADULIS                                      0502
A0101409920000011312660**********                                               0501
A0101409920000010528822LAZO, JELLYN P DBU JP LAZO                              10501
A0101409920000010528822ENTERPRISES                                             20500
A0101407690652034151001D' ABET JUNK SHOP                                        0502
A0101411530000013261911ESPINA, MINERVA  S.                                      0502
B0101413440000000038202NORZON CONST. AND DEVELOPMENT CORP.                      1601
A0101413570000015823404GUTIERREZ, ANNALIZA TRIPOLI                              0501
A0101413570000010111636CUALES, MARK FRANCIS ROTA                                0505
B0101413570000009426193UNIVERSAL SIMBA DISTRIBUTION CORP.                       1601
A0101413990000002962872VARILLA, CHRISTOPHER REY ANINON                          0501
A0101413990000000631890BALTAZAR, LEA MANUZON                                    0501
A0101413990657448038002BALTAZAR, LEA M.                                         0501
A0101414120000015400676CAMASO, CELEDON BONDOC                                   0501
B0101414120000003584281JD & P FOOD TRADING CORPORATION                          1602
A1301400210682518493001MELANIA B BLANQUISCO                                    10501
A1301400210682518493001ARNOLD M BLANQUI                                        20500
A1301400340683361153001LICAROS JR, ALEJANDRO LAGPAO OR                         10502
A1301400340683361153001LICAROS, ELSA R.                                        20500
A1301400340683788020001FUENTES, RICHARD MARIANO                                 0502
A1701400230000001786843LIM, ALEAH TAMBIDAN                                      0501
B0101408240711018196001BELO MEDICAL GROUP, INC.                                 1602
B0101408240711036910001ASIAN CENTRE FOR INSULATION PHILS.,                      1603
B0101408240711039556001TIP-TOP MARKETING                                        1605
B0101408240000000832815WOWA'S FAST FOODS INC.                                   1605
A0101408240711386973003ROBERTO SANTIAGO OR                                     10502
A0101408240711386973003DIANA SANTIAGO                                          20500
A0101408240711462694001FROILAN D. ANIAG                                         0505
A2801400100000005475389SERVITO, ALMA RESIDE                                     0502
A2801400230713070903001EMETERIO, HONORIO DOMINGO                                0505
B4101400260000006043829GNM MAHNLEN TRADING INC.                                 1603
A4101400260812245444001EVELINA P. SAPIDA                                        0501
A4101400260812245865001AUGUSTO O. TRIJO                                         0501
B4101400390000003346198SUPERSTAR PACKAGING CORPORATION                          1601
A4101400390813248893002MERCY O. ASEGURADO                                       0505
A4101400420814520766135MOTILLA, ROSELLE                                         0501
A4101400420000000120970REYAN S. LINCAY                                          0501
A0101412340000004877392FREDRICK ANTHONY M. ROJAS                                0501
B0101412340000005964065CM2 CONSTRUX, INC.                                       1603
B0101404840851004865001GENESIS QUEZON TUGS, INC.                                1601
A0101404840000000085129ESTELA A. BOCO                                           0501
A0101404840851520766026MENALIZA MABINI                                          0501
A0101404840851520766073ELIZABETH A. SUAZO                                       0501
A0101405070861023470001ASIANA KITCHEN EQUIPMENT                                10502
A0101405070861023470001SPECIALIST                                              20500
B0101413860000012289522GLI-GLOBAL IMPEX CONSOLIDATION INC                       1602
B06014002300000060452907R FINANCE CORP.                                         1605
