B0101409050352821100608**********                                               2002
B3101400450223821100608**********                                               2001
A0101403320471004315001UCLARAY, NASSER JULIUS C. DBU                           10502
A0101403320471004315001UCLARAY TRANSPORT                                       20500
A0101403320471550493001VILLAMIEL, MARIA ANTONIA ESCASA                          0501
B0101406590662027606001XANLAND PLACE CONDOMINIUM                               11609
B0101406590662027606001CORPORATION                                             21600
A0101413860000006219547PIZARRO, KRISTEL MAE CO                                  0501
A0101400150061226702002SISCAR, MA ARLEEN                                        0501
A3001400130000000931231CHUBB'S AGRIVET SUPPLY AND                              10502
A3001400130000000931231GENERAL MERCHAND                                        20500
A3001400130000010813431ARAGONCILLO, NECYLYN ICALINA                             0502
A1001400350000011297682FLEXLOGIC PROCESS CONTROLS                               0502
A1001400350233653580001EVELYN OH OR EDWARD OH OR                               10502
A1001400350233653580001EDMUND OH                                               20500
A1101400120000003022413DUCENTES, GLORIA TROCINO                                 0501
A6601400120314593270001DIAZ, REO DBU RUDMAR TRADING JT                          0505
A6601400120314612856001FRANZUELA, SARAH S.                                      0504
A0101411660000002309371RAJAN BHAGWANDAS GIDWANI OR                             10505
A0101411660000002309371MAYA BHAGWANDAS                                         20500
A0101411660000014676794BRAGANZA, MARICEL CUENCA                                 0501
A0101411660000011949207ANTONIO, REGINALD QUILATAN                               0502
A0101403320000015944800TORRALBA, LLEWELYN C.                                    0501
A0101403580511322954003VIRATA, LEONIDES J M CUUNJIENG                           0505
A0101403450521241204001**********                                               0502
B0101400860000011853957*************                                            1603
A0101400860011421335001********                                                 0502
B0101400860000000414133**********                                               1602
A0101401250021041673001TROPICAL HARVEST MARKETING                               0505
A0101400150000010773885PACHECO, AILEN ALITAGTAG                                 0501
A0101400150061230586001MARTIN STEPHAN JAKOB KURER                               0502
A0101400150000014853433ACEVEDO, CERMINE MARANAN                                 0501
B0101400600000005943273********                                                 1602
A0101405810072326780001**********                                               0515
B0101405810072344420003CHING, JENNIFER TIN                                      1602
A0601400100081251899001YALUNG, ROBERT OR MA. CRISTINA                          10503
A0601400100081251899001OR SANTOS, MA. L                                        20500
A0601400100081552852001SANTOS, MA. LUCILA DIZON OR                             10502
A0601400100081552852001EDWIN MARK                                              20500
A0101414090000014876016CAVITENO, LILYBETH DE LAS ALAS                           0501
A0101400730000008619563SOBITO, MA CRISTINA ROCERO                               0501
A0101406040000001392007********                                                 0502
A0101401960121241244001**********                                               0501
A0101413150000005944272********                                                 0501
A0101412630000004062042RACHO, E DBU RAR ELJAY                                  10501
A0101412630000004062042AUTO SUPPLY                                             20500
A0101401830000013257648MAGTALAS, LEE MARVIN BACTAD OR                          10502
A0101401830000013257648MAGTALAS,MARIA V                                        20500
A7201400170000009673185**********                                               0502
A0101412920000005354201DELA FUENTE, MARIA JANNET THEIN                          0502
A0101400440000009591871ROSANA CATCHO                                            0501
A0101400440161190481001HELEN LEONG OR ROSALINDA LI                              0505
A0101400440161478374144CELERINA M. MARASIGAN                                    0502
A0101407270162333006037***************                                          0501
A0101401090000000993397ARCENAL, SHENA RICCA TORILLAS                            0501
A0101401090000001618606AMADO VICTOR A. BELTRAN                                  0505
B0101401090171036680001DIGESTIVE DISEASE RESEARCH GROUP INC.                    1601
A0101401090171196112001DARIO T. GARCIA                                         10501
A0101401090171196112001OR ELSINOR GARCIA                                       20500
B0301400530193037617168PIONEER BUENAS COMMODITIES CORP.                         1620
B0301400530000001409438GENSAN LCL TRADING, INC.                                 1603
A0301400530193704187088MERCED, TERESITA S. OR                                  10501
A0301400530193704187088MERCED, PETER V.                                        20500
A0301400660000006862873DEQUITO, CITZY VENTOR                                    0502
A0301400660000006755213MINDANAO BUTCHERS & CO., INC.                            0501
A0301400950000000566810**********                                               0501
B0301400950000013536095*************                                            1601
A0301400950000002115231**********                                               0501
A0101401380000005320843TORRES, JESSRAEL SALONGA                                 0502
A0101401380000015062490DIVINA, JOCELYN DELIMA                                   0501
A0101401380201171279001TSAI, ROBERT                                             0501
A0101401380000000682622********                                                 0501
A0101401380000001820002********                                                 0504
A0101413600000014854603ERNESTO C. SYKI JR.                                      0501
B3101400160221025324001LAGUNA MRI CENTER INC.                                   1610
B3101400160221031027001ALLIED DOCTORS FOOD RESOURCES, INC.                      1604
A3101400450223352819001FARAON, RIZALINA OR                                     10502
A3101400450223352819001BELEN, RHODORA                                          20500
A3101400870000000957939ARROYO, ALMA CIELO DE RAMOS                              0501
B3101400870225067454001GDNC GAS AND LUBES CORP.                                 1604
A1001400190231478374006LIBRADO, HAZEL T.                                        0501
A1001400190231520766035LIBRADO, GLENNFORD TALO                                  0501
A1001400190000002170769JUGAN, NOUE MALOLOT                                      0501
A1001400190231577958001GORDIEL, JAMES LESTER UY                                 0501
A1001400350000010526735CHAN, MATTHEW BONN GAN                                   0501
B1001400350233036049001RANTRADE INDUSTRIAL SALES CORPORATION                    1601
B1001400350233512004001VILLALBA, CHARLIE L.                                     1601
A1001400350233543683001DONGGAY, CERAEL CAGA-ANAN                               10502
A1001400350233543683001OR DONGGAY, FELI                                        20500
B0101406460272007511001STERLING GIFTS INC.                                      1605
A0101406620000012950857REYES, RALPH TOBIAS                                      0502
B0101406620000000962512ALLIANCE SELECT FOODS INTERNATIONAL                      1602
A0101410980000006014335LIM, JENNIFER MARIE WEE                                  0501
A0101411820000003838211CHERRYLEN TORNO                                          0502
A0101400570281360412001DR. LONABEL A. ENCARNACION                               0502
A0101400570281453706002SHIRLEY C. TEEHANKEE OR MARIE                           10502
A0101400570281453706002THERESE C. TEEHANKEE                                    20500
A0101400570000001681949SUN, BRYAN HERMOSA                                       0501
A0501400200000004457045MARINAS, SUSAN TAMPUECO                                  0502
A2601400270000012492461JUANITO B. CANCILLER                                     0501
A2601400270000014231168ALVIN C. ABALAJEN                                        0502
A2601400270302796616001MARIA ROSA ELVIRA M. ALVAREZ OR                         10502
A2601400270302796616001MYRNA M. ALVAREZ                                        20500
B0801400160311014079002C C C FINANCE CORPORATION                                1610
B0801400160311268076001MACAVINTA, MA. THERESA L.        JT                      1610
A1101400120000013536864HUI DARWIN UY DBU TOP SOIL CONC                          0510
A1101400120313459301002LANOY, JERRY MALINAO                                     0510
A1101400120313547700001NICOLASORA, ALMARIE EULOGIA P.                           0510
B6601400120314040180001NORTHERN LIGHT HOME DEPOT                                1602
B6601400120000003642744FLORIANE UY OR CHRISTIAN                                11601
B6601400120000003642744EMMANUEL UY                                             21600
A2001400290000014470750LLENA, FRANCIS LLOYD SUICO DBU                           0501
A0101402350000012300433TAHER, SOHRIA BONSALAGAN                                 0501
A0101405650000000525739RUFA MACABENTA                                           0501
A0101409050000000939259TIMBANG, JESSE ETCUBANAS                                 0501
B0101409050352018120001ELECTRONIC COMMERCE PAYMENTS, INC.                       1605
B0101409050000000258491INFORMATICS COLLEGE CALOOCAN, INC.                       1603
B0101409050000010506800EXIST CORPORATION                                        1602
B0201400920000012764973***************                                          1601
B0201400920375035929001UPLAND STOCK FEEDS, INC.                                 1602
A0201400920000004087387AQUINO, PABLITO FEDERIZO                                 0501
A0201400890000012951372NELMIDA, GERALDO PACANA                                  0501
B0201400890000007877403HIVE GROUP BPO PHILS INC.                                1603
B0201400890000007877410HIVE GROUP BPO PHILS INC.                                1603
B0201400890000007877301RD PAWNSHOP, INC.                                        1606
B0101402930381021732001PENEL INTERNATIONAL, INC.                                1601
A0101402930381402177002**********                                               0501
A0101408370382070779001DR. ANDRES R. LIPANA,JR.                                 0501
A0101408370382489193001DR. MICHAEL EDMOND S. DAZO                              10504
A0101408370382489193001OR ARLENE S. DAZO                                       20500
A0101408370000000014531CARLO EMMANUEL J SUMPAICO                                0501
A0101408790000005182792ANTHONY JOHN S. RULLODA                                  0505
A0101411660000000109311**********                                               0501
A0101411660384047607001QUEEN'S LAIR HAIR CARE AND                              10510
A0101411660384047607001BEAUTY SALON                                            20500
A0101402770000009722909MAPA, GENEVAIVE BALENDRES                                0504
B0101405490000013942111REXIM PHILIPPINES UNIVERSAL SALES                       11602
B0101405490000013942111CORPORATION                                             21600
A0101408400000016294452AGUSTIN, MARICEL AGUADO                                  0501
A0101408950396572239001PUYAT, MARIA LUISA TICZON                                0505
B0101409180397041229001****                                                     1603
A0101409210000001294606LIU, XIANGCHAO                                           0502
A0101409210000002279018AGONCILLO, CONSUELO FLORES                               0502
A0101409210000007762681HERRERA, MICHELLE STA ANA                                0501
A0101409210000014948544PINEDA, PAMELA CRIZELLE ABALOS                           0501
A5501400120000002348325ANG, ANDY MAN CHUNG CHANG                                0505
A2401400180000002146287BAUTISTA, WEDELIZA DIOQUINO                              0501
B2401400180411014383001RD EMPLOYEES CREDIT COOPERATIVE                          1612
A2401400180000010066172PERALES, SUSAN TAN                                       0502
A5101400100000010371212BAGONOC, ALDRIN POLICARPIO                               0502
A5101400100000011337363ORONG, NINOFE PANGANURON                                 0501
A0101403030441239254001**********                                               0502
A0101403030441240960001**********                                               0501
A0101403320000001646744VERINA, MA ZARAH ASUNCION                               10501
A0101403320000001646744MENESES                                                 20500
A0101403320471659935001LORALYN G. DEL PRADO OR                                 10501
A0101403320471659935001ISIDRO DEL PRADO JR.                                    20500
B0501400170481015881001TOYOTA DAGUPAN INC.-2                                    1620
A0501400170481257787001DR ANTONIO B ESPINO II                                   0501
A1401400110000008266239ABOGADO, CARLOS OCAMPO                                   0501
A0701400260000002339095BERNARDO JR., JAIME MIRALLES OR                         10502
A0701400260000002339095BERNARDO, CYRIL                                         20500
A0701400260000001804644PRIELA, ROCHELLE ONTENGCO OR                            10501
A0701400260000001804644PRIELA, GIAN PAOLO PENA                                 20500
B0101407430000006027812LAN ASTUTE LOGISTICS, INC.                               1610
B0101407430503509183002RICKNETH DISTRIBUTION, INC.                              1602
A0101405940000010372102YONZON, DAWA TSHERING                                   10501
A0101405940000010372102ONG, JESSIE LYN TIO                                     20500
A0101405940512152957001CHUA, MA. ELENA OR GO, PHILIP                            0503
A0101408530000016292723CONTI, LUIGI CALINGASAN                                  0501
A0101408530000016293066CAYAS, DANIEL JOSEPH BORBOLLA                            0501
A0101408530000001885681VIDANES, EIRENE                                          0501
A0101408530000009248604ROALD ANTHONY M. MOSCARDON                               0501
A0101411400000000484617REPOSO, CLARITA GADDI                                    0502
A0101403450521240346001**********                                               0504
B0101403610531063589001RS CHRISAN BUILDERS CORPORATION                          1602
A2201400250000002337851LUGAY, JOSE GERMAN BENOZA                                0501
A2201400250561395433001JOSE M. SALTING JR.                                      0501
A0101404130000005962109TUAZON, PHILIP DE GUZMAN DBU P.                          0501
A0101404130601490590001BONIFACIO JR., GERMAN DERILO                             0502
B0101404130601563008001I. PRUDENTIAL SHIPPING AGENCY SERVICES                  11610
B0101404130601563008001INC.                                                    21600
A0101407720602390297001PREYSLER, MARIVIC G.                                     0502
A0101407720602715175001LACONICO, MINERVA MAGNO                                  0501
A0101412180000003275483ECHEVARRIA, MARILYN REYES                                0504
A0101404260611478374098CECILIA ORIAS                                            0501
A0101404260000003498373MA. DESIRIE J PATOC                                      0501
A0101409920000016286921DINOY, OMELITA TOLENTINO DBU                            10501
A0101409920000016286921JHORIANNE MOTORS PHILS                                  20500
A0101409920000001951931MEMBERS OF NATASHA (SHOECAT INC                         10501
A0101409920000001951931TRASPORTE, GINA                                         20500
A0101413990000016292694CHIO, JUDY MAE G. OR FERRER,                            10501
A0101413990000016292694JULIUS ABRAHAM C.                                       20500
B0101414120000003584350LRKD MARKETING AND TECHNOLOGY SERVICES                  11603
B0101414120000003584350CORP.                                                   21600
A0101406590000003007052SANCHEZ, LUZVIMINDA OR MICHELLE                         10501
A0101406590000003007052OR TENG, MARIE SHARON                                   20500
A0101406590000016292303HERNANDO, HARMAINE GENER                                 0501
A0101410300000007613814LOON, JOSE MARTIN AZCARRAGA                              0505
A1301400210000009982621VILLENA, RENIESON HADUCA                                 0502
B1301400210000000023543SAN PABLO LIAM FOODS CORPORATION                         1603
A1301400340000014501792STA MARIA, ALEXANDER CRUZ                                0501
A1301400500000007096571LUISITO R. MIRANDA                                       0502
B1301400500684037591001UPLIFT PHILIPPINES, INC.,                                1605
A1301400500000012913274BIO ERIXX PHARMA DISTRIBUTION                            0502
A1301400500684655684001FELIZARDO, FRANCIS CAMOMOT                               0501
B1701400230000002762638KOOKEE HOUSE, INC.                                       1601
B2801400100712024577001PHILIPPINE COASTAL STORAGE AND                          11605
B2801400100712024577001PIPELINE CORP.                                          21600
B2801400100712298202002WIDE-WIDE WORLD EXPRESS CORP.                            1603
A2801400230000014314240CAPILI, YOLANDA MAGTANONG                                0503
A4101400260000010623775CASTILLO, LEO NINO ANGELO C OR                          10501
A4101400260000010623775WU, HARVEY RICHA                                        20500
A4101400260000016288694PALAD, MICHELLINE RUBIO                                  0501
A4101400260000012864063CORPUZ, HANNAH THERESE                                   0501
B4101400390000003346187PAGASA PHILIPPINES LENDING COMPANY                       1603
A4101400390813406195001LEONARD LAO OR SUSANA LAO                                0501
B4101400420000009392076**********                                               1602
A4101400420814357382003REMULLA, GILDA VASQUEZ                                   0501
A4101400550000000900383FERNANDEZ, GILBERT LICUANAN                              0502
A4101400550815043110001AAD GASOLINE STATION                                     0501
A4101400550815693134001LLANES, TUDOR HERNANDEZ OR                              10501
A4101400550815693134001LLANES, PRESCILL                                        20500
A0101404840000002327868SORREDA, ERIKA ROMA MALABANAN                            0502
A0101404840000005820479YOLANDA W. GAGAN                                         0501
A0101404840851520766070ELSA NAVARRO                                             0501
B0101406750852456290001**********                                               1602
A0101406750852620298001EMILY COLINA OR DOMINGO                                 10501
A0101406750852620298001COLINA JR                                               20500
A0101413860000015679528CANOR, MARVIN CAMANTILES                                 0505
A0101413860000007110152GONZALEZ, VERONICA SANTOS                                0510
A0601400230000002650108TUAZON, REMIGIO ESCANO                                   0501
