F0101403290000000542501VERAFEDE INC.                                            2601CKR
F0501400170481445956001FRICK, ANNALEE N. OR                                    12502CKO
F0501400170481445956001ONG JR., JUANITO                                        22500CKO
F0101407720602294877009DR. REBECCA B. SINGSON                                   2602CKR
