A0101408660000000059921VYAS, ANJANA MANOHAR                                     0501
A0101412760000000208615JANET N. BUCAG                                           0501
A1301400500000000212995LUDETTE FATIMA T. CASTRO                                 0502
A1901400160000000243525SHIRLEY M PAGCALIWANGAN                                  0501
A0101410560000000268320BALTAZAR, BEATRIZ POLO                                   0501
A1601400170000000421149EVELYN B. DELVO                                          0502
A1601400170000000497525HAZEL E. GAVERIA                                         0501
A0101404000000000574618OH, JONG EUN                                             0501
A1401400110000000628579****************                                         0506
A0101404420000000866428FLORES, CAROLINA VERGARA                                 0501
A0101413020000000880564TORRES, PIA CATRINA TOLENTINO                            0501
A0101406590000000905486CUCUECO, FILOMENO ROQUE                                  0501
A2001400290000000924447CLAVEL, ALAN ZAMORA                                      0502
A5501400120000001121782BARRIENTOS, ALPHA JOY FLORES                             0502
A0101404000000001187019***                                                      0502
A0101413860000001233681LEE, SAMUEL UY                                           0505
A0101407720000001393197AUSTRIACO JR., FERNANDO ROMEO Z                          0502
A0101412760000001399777MONTEVERDE, ALEJO REPIZO                                 0501
A0101402480000001561962*******                                                  0502
A0101402480000001562141GO, CORAZON SOPANG                                       0501
A1201400150000001863094SOMNGI, ESTEBAN ACROPEN                                  0501
A0101402480000001927831**********                                               0501
A0101408790000002031441LANLOGIC COMPUTER SALES                                  0501
A0101402640000002069489JARALVE, JESSIE RUBIO DBU JRJ M                          0510
A2601400270000002257110SHEENA MARIE MAMERTA V. CULHI                            0501
A0101411790000002275954LECTOR, MARIA ANTONIETTA ASTOR                           0502
A0101410720000002283930LADIA, APRIL IRIS RUPIDO                                 0502
A0101410720000002283941OLEDAN, NELSA GASING                                     0502
A0101400860011388535002*********                                                0502
A0101400860011412769001**********                                               0506
A0101400860011426068002**********                                               0502
A0101400860011582198001**********                                               0505
A0101400860011675338001**********                                               0505
A0101400150061226120001JUAN RAMON C. GARCIA                                     0502
A0101400150061226167001GASPAR R. ANDRES JR.                                     0501
A0601400100081639196001DIMALANTA, ANALYN TEGIO                                  0501
A0101406040112298724001RAMON STEPHEN R. VILLAFLOR                               0503
A0101400440161478374042PEARLY ROSE ALEJO                                        0501
A0101400440161520766185FLORA S. CHUA                                            0501
A0101400440161525001139JEMARIE S. SALUDAR                                       0501
A0101401380201179684001ANTONIA C. CUNETA                                        0510
A0101401380201610412001SIM, VENUZ NIVAL                                         0501
A3101400450223310377002PENALOZA, RAINIER OR ROMA                                0501
A1301400470252430515002**********                                               0502
A0101400570281344782001LYDE ALDAY-MAGPANTAY, M.D.                               0502
A0801400160311478374082ZAIDA FERNANDEZ TAMON                                    0501
A0801400160311494221001JUCABAN, LEO LAGOS                                       0501
A0101402480331313437003***************                                          0501
A0101402480331478374068PARANGUE, ROSANNA                                        0502
A0101402640361039299001JANRELK TRADING                                          0501
A0101408370382391120001DR. SALVADOR M. EUSTAQUIO                                0502
A0101408790383756670001JUAN, MELISSA SARMIENTO                                  0502
A0101408400394033093001KOLETZ ART GALLERY                                       0501
A0101408400394500051001MATIBAG, ABRAHAM TIMAJO                                  0503
A0101408400394734916001TIU, JOSEPHIN ATIENZA                                    0501
A5501400120410042696088CAMBARIJAN MOTOR DOK                                     0505
A2401400180411584752001AMADEO, MARY MAGDALENE MILES                             0502
A1201400150421295296002YAP, EDISON LEE                                          0501
A0101407430503185437004SHIRLEY B. RENIEDO                                       0502
A0101407430503381561003MARY TERESITA M. DE JOYA                                 0503
A0101406880513571409001ARCILLA, AURIETTA MINDANA                                0501
A0101408110515708717001JOAN IRIS T. CACHO                                       0501
A0101403450521478374007********                                                 0501
A0101407720602359786001JIMMY B. ARAGON                                          0501
A0101407720602421754002LIM, CHRISTINE EBARVIA                                   0501
A0101404420631478374001SOTERANIA VILLAMOR                                       0502
A0101410720653336595001RCBN - THE OUR FATHER PARISH                             0505
A0101410720653478374048VILLAFLOR E. OPELADA                                     0501
A0101407560686347562001**********                                               0501
A4101400260812292364001AMELIA C. VIDALLON                                       0501
A0101404840851534093001MESIAS, RUBILYN ARCILLA                                  0501
A0601400230891328611001ENGR. NELSON G. LINGAT                                   0501
A6601400120000000060711ESPINA III, SIXTO OR                                    10501
A0101402060000000358645ESPINA, WILBERT BALUYOT DBU                             10501
A0101413020000000880495JUMAWAN, SHEILA MATEO OR                                10501
A0501400170000001032131ARCINUE, OSCAR LLAMAS OR                                10502
A0101413990000001202377ELLEN MAE L. GONZALES OR                                10501
A0101401090000001618571MA. LOURDES P. JAVATE OR                                10502
A1701400230000001786718RAMBAUD, ALBERT LACRO OR                                10501
A0101401830141482333002ONG, ELAYNE FRIAS OR ONG,                               10501
A3101400450223365991001REYES, DR. RUEL RAMOS OR                                10502
A0101406620273358539001MARIA TERESA L. JAHRLING OR                             10501
A0101408370382209111002PONCIANO, JOSEFINA COLARINA  OR                         10502
A0501400170481320433004MELENDEZ, AURORA REYES OR                               10502
A3801400170490055006001MICHAEL OR CARYL MONTALES DBU                           10501
A0101410720653402452001JONE P. LIU CHIANG OR                                   10501
A1301400340683593629001ALEX R. LUSTRE OR                                       10504
A0101408240711379306001RAYMUNDO SUAREZ OR                                      10502
A0101406750852184574001DELA ROSA, DANILO V. OR                                 10502
A0601400230891738531001CHUA, MARK ANTHONY GARCHITORENA                         10502
A6601400120000000060711ESPINA, LYRA FAY                                        20500
A0101402060000000358645WBE LOGISTICS                                           20500
A0101413020000000880495JUMAWAN, JODELL                                         20500
A0501400170000001032131DE VERA, LUCIA M                                        20500
A0101413990000001202377RONALDO AMADOR GONZALES                                 20500
A0101401090000001618571MARTIN PETER M. CUNANAN                                 20500
A1701400230000001786718MARICAR CATHERIN                                        20500
A0101401830141482333002ERWYNN ALDERETE                                         20500
A3101400450223365991001JANET JOY                                               20500
A0101406620273358539001ANGELO JAHRLING                                         20500
A0101408370382209111002PONCIANO, PAULO JOSE C.                                 20500
A0501400170481320433004COQUIA, MARIBETH                                        20500
A3801400170490055006001MONTALES LEARNING CENTER                                20500
A0101410720653402452001LEO VILLAVERT                                           20500
A1301400340683593629001MA. CECILIA Q. L                                        20500
A0101408240711379306001KIMBERLY SUAREZ                                         20500
A0101406750852184574001DELA ROSA, VILMA                                        20500
A0601400230891738531001TAYAO, GILBERT A                                        20500
B0101413020000000038424BIOSPEED CORPORATION                                     1601
B0101413020000000038435AVITEK ANIMAL HEALTH INC.                                1603
B0101402480000000310432PINNACLE PARTS CO. INC.                                  1606
B0301400950000000566887CHRISMA TRAVEL AND TOURS, INC.                           1601
B0101400150000000633505DIGISCRIPT PHILIPPINES INC.                              1601
B0101407270000000830482NUTRIDOUGH, INC.                                         1605
B0101412470000000949577LIVAN TRADE CORPORATION                                  1602
B0101402480000001100041**********                                               1602
B0601400100081013321001BIO-TECH MARKETING CORPORATION                           1605
B0101406040112041872001********                                                 1601
B0101412630132047704001THE PROPERTY FORUM PHILS. INC.                           1602
B0101407270162038101001BIRDS INTERNATIONAL, INC.                                1603
B0101401380201011227001PHILTRANCO SERVICES ENTERPRISES, INC                     1610
B0101407140213042536001AUDIO-VIDEO SOLUTIONS CORPORATION                        1602
B0101402480331010240001BOUNTY FARMS INC.                                        1610
B0101402480331010292001**********                                               1601
B0101402480331028227001INOZA INDUSTRIES INC.                                    1610
B0101402480331044325001SAV COMPANY LTD. ( SAVORY CUISINE )                      1605
B0101402480331223774001**********                                               1601
B0101402060351044989001IGLOO CARRIERS, INC.                                     1610
B0201400760374745313001EVO ENVIRO SOLUTIONS, INC.                               1601
B2401400180411014206001PANABO MULTI-PURPOSE COOPERATIVE                         1610
B0501400170481018109002****                                                     1604
B0101403450521017837001**********                                               1601
B0101404420631164902002SAN BARTOLOME PARISH CHURCH-MASS FUND                    1601
B0101404420631701574001ARIOM TECH COMPUTER SYSTEM                               1606
B4101400390813047907001ST. JOHN BOSCO FAITH TRAINING CENTER                     1601
B3401400280000000784652CAPUNONG, ROMULO DELCANO OR EDUQUE,                     11602
B0101404130601042675001iPRUDENTIAL STEVEDORING AND PORT                        11605
B0101406750852474662001SECURITY MARKETING & PEST MANAGEMENT                    11603
B3401400280000000784652RUELYN CAPUNONG                                         21600
B0101404130601042675001SERVICES INC                                            21600
B0101406750852474662001INC.                                                    21600
