A3001400130000001261283LIM, EDGAR ALLAN DIAZ                                    0501
A0101409180000004375979ABORDO, NOELAN IBANEZ                                    0501
B0101412890000000125260ACADEMY OF CHRISTIAN EXCELLENCE                          1601
B0101404000551005037001CONRAD & SONS REALTY INC.                                1605
B0101404000551047775001BISQUERA, A DBU TOPMINDS GLOBAL                         11601
B0101404000551047775001MARKETING                                               21600
A0101400150000002749682RENNA, LAWRENCE DANIEL                                   0502
B0101400150061016942006ASIA PACIFIC EXPRESS CORPORATION                         1605
A0101400150061230586001**********                                               0502
A0101400150061231008001FILIPINAS T. PINSON                                      0501
A0101400150061720595119MARIE NICOLE JANE B. HIFNY                               0501
A0101400600071720668001*******                                                  0501
A0601400100000000142065CALDERON, RAYMUND QUAN OR                               10502
A0601400100000000142065CALDERON, RIZA PANGILINAN                               20500
A0601400100081300983001MARILYN OR JONATHAN LACSON                               0501
A0101400730000000833396CARBONELL, LEVINA IBALE                                  0502
B0101400730111035655001FSL INT'L. MANPOWER & PROMOTION SERVICES                11601
B0101400730111035655001INC.                                                    21600
B0101401830141028161001EXTERMICON GENERAL SERVICES, INC.                        1603
A7201400170000002791433PULMANO, DIEROSEL LARIDE                                10502
A7201400170000002791433OR PULMANO, JULIUS MARZAN                               20500
A0101412920000000276362PENIALBER, MARK ANTHONY OR                              10501
A0101412920000000276362PENIALBER, NHELLEAH                                     20500
A0101400440161459294001MARY ANN T. REGINALDO                                    0502
A0101400440161520766060CRESENCIA CLEOFE                                         0501
A0101407270000003786750SERVANEZ, IRIS JUNE MINANO or S                         10501
A0101407270000003786750ERVANEZ JR., VIC                                        20500
B0101401090171007908001PERPETUAL SUCCOR HOSPITAL &                             11605
B0101401090171007908001MATERNITY, INC.                                         21600
B0101401090171007908003PERPETUAL SUCCOR HOSPITAL & MATERNITY                   11603
B0101401090171007908003INC.                                                    21600
A0101401090171200033001MARIA ROSARIO R. ARANDA                                  0501
A0301400790000003969382NECESITO, JOANNE HORTILLOSA OR                          10502
A0301400790000003969382NECESITO, JAFET DULA                                    20500
A0101401380000000791993********                                                 0503
A0101410720653478374048VILLAFLOR E. OPELADA                                     0501
A0101410720653768067001DELOS REYES, MA. ERIKA WONG                              0501
A0101412500000002304774BUGAOAN, IVY ILLESCAS                                    0501
A3101400160000004919360GILBERT D CALBAN                                         0501
A3101400450000001104112SY, MARVIN DAANTOS OR                                   10505
A3101400450000001104112SY, REMELIE ISIP                                        20500
A3001400130000000944714LIM, KLAUDIO DIAZ                                        0502
A1001400190231520766093DACUTANAN, REYNOZA RADOC                                 0501
A1301400470252428900001JUAN NEPOMUCENO OR                                      10502
A1301400470252428900001SILVIA NEPOMUCENO                                       20500
B1301400760000000050751CONSUMERREACH, INC.                                      1605
B1301400760000000050791CONSUMERREACH, INC.                                      1605
B1301400760000000007161TARLAC MAC ENTERPRISES, INC. DBU SAVER'S                11601
B1301400760000000007161DIGITAL HUB                                             21600
A0101406620273375724001JULIETA LAGMAY                                           0503
A0101406620000000193840TAN, APRIL LYNN LEE                                      0501
B0101408660000001940570LUSTERIO, VENECIO DBU GASPOINT MECH                      1603
A0101400570281019045001INTRA TIRE RETREADING                                    0505
A0101400570281383821001LUISA L. ANG LEY OR LILY L. LEY                          0502
A2601400270000000561944KAREN B. CARBONEL                                        0501
A1101400120000000652500UY, TINONG Y. OR UY, BELINDA C.                         10501
A1101400120000000652500UY, STEPHANIE GRACE C.                                  20500
A1101400120313478374068BIGOY, DONABEL CABIDOG                                   0501
A6601400120314646431001DUBONGCO JR., ARTURO OR                                 10505
A6601400120314646431001DUBONGCO, ARLENE                                        20500
A0101402350321180119001SHERENA O. PARUCHA OR                                   10501
A0101402350321180119001VIRGILIO B. PARUCHA                                     20500
A0101409050000003533571RAYMOND R. REMOQUILLO                                    0502
A0101409050000003642077CALIBUT, MARY DEANNE JR.                                 0503
B0201400760374031953001B AND E SEA TRANSPORT CORP.                              1601
B0201400760374046036001SAM SOWAH SHIPPING CORPORATION                           1602
B0201400760374046036002SAM SOWAH SHIPPING CORPORATION                           1602
B0201400760000001612891TOLEDO DEVELOPMENT SERVICES                              1602
A0201400760374465762001******                                                   0505
B0201400890000002027903GLOBAL REV GEN PTY LTD                                   1601
A0101408370382490482001DR. KRISINDA C. DIM-JAMORA                               0501
B0101408400394028410002HUCKLEBERRY MONTESSORI SCHOOL, INC.                      1601
A0101408400394401872001******                                                   0501
A0101408950396659332001DR. ANGELICA ANNE ACEDILLO CHUA                          0501
A0101409180000003780045RUTH ROSELLE JOAQUIN                                     0501
A0101409180000003780090JACQUELINE P. GULAY                                      0502
A0101409180000003780147SHERYL F. NIDUAZA                                        0501
A0101409180000003780170KAROL JOAN TAN                                           0501
A0101409180000003780701LIM, ROCKFORD TUPAZ                                      0501
A0101409210000004933028TOLENTINO, ARC ALDRIN NAVARRO                            0501
A0101409210000004933080QUILLAO, JENEVIE GRACE SAJENES                           0501
A0301400820000000814088OZOA, EUGENE B. OR OZOA, LYDIA                          10505
A0301400820000000814088P.                                                      20500
A5501400120000000265718JAVELOSA, TERESITA SEROFIA                               0501
A2401400180000000428102SAGABAEN, AMALIA COSTALES                                0501
A2401400180411478374061JUNRES AGAD OR                                          10501
A2401400180411478374061NORMELITA BLANCO                                        20500
A2401400180411478374069JUBAN, MARIVIC BABA                                      0501
A2401400180411572205001EBRAHIM, MA. AMOR ISHAD                                  0501
A0901400220000000888086**********                                               0503
A0101412760476047778001GAKO, CRISTINA LLANERA DBU                              10503
A0101412760476047778001KRANECOM ENTERPRISE                                     20500
B0501400170481018109002****                                                     1602
A0501400170481392485001*****                                                    0502
B0501400170000001072957ALEJO, ERVIN MARQUEZ AND ALEJO, NORMAN                  11602
B0501400170000001072957MARQUEZ                                                 21600
B3801400170000000018788MINDORO PPA EMPLOYEES MULTI-PURPOSE                     11603
B3801400170000000018788COOPERATIVE                                             21600
A3801400170000002302841SHERWIN REYMOND M ICALINA                                0501
A1901400160000004521311EVELYN APOSTOL LAVISTO                                   0502
B1901400160000000007489RED GIFT AIRLINE AND HOTEL RESERVATIONS                 11601
B1901400160000000007489SERVICE                                                 21600
A1901400160491244484001IRENE H BERBA OR                                        10505
A1901400160491244484001CARLOS R BERBA                                          20500
A1401400110492029549002TRIPTORS DIAGNOSTIC CENTRE                               0504
B1401400110492042503001LUCENA ROOFWARE TRADING & SERVICES                       1601
A1401400110000003025214BLUE HIGH POINT TRADING                                  0502
A1601400170000001068673CHRISTOPHER DOUGLAS G. GIMENEZ                           0504
A1601400170494058123001ERIN'S CAFE                                              0501
A0101403580000000016082SWEET BELLA DESSERTS                                     0510
A0101403580511155834002PURIFICACION SANTIAGO                                    0503
A0101403580511493558001HBO ENTERPRISES                                          0503
A0101405940000000886973**********                                               0501
A0101411400000001280375SALES, MARIA CHRISTINA MANEGO                            0501
A0101411400000001280251CASTRO, ROBERT LOUIS CALAYAG                             0501
B0101411400000001280524GCURRIE INC. DOING BUSINESS UNDER T                      1601
A0101403450000001637896********                                                 0501
B0101403450521014870004PARAMOUNT LIFE & GENERAL INS. CORP.                      1604
B0101403450521034346001**********                                               1603
A0101404000000003707635HERBY JOSE E TAINO                                       0501
A0101404000000004802146GARY G GONZALES                                          0501
A0101404000551570537002CABRERA, ALEJANDRO CATAMIO                               0502
A2201400250000001932247CLDH EMPLOYEES CREDIT                                   10503
A2201400250000001932247COOPERATIVE                                             20500
B0101404130000002121584INCUBIX TECHNOLOGIES INC.                                1601
A0101404130601708628001PABALATE, PACITA BATAC OR                               10501
A0101404130601708628001PABALATE, HELEN                                         20500
B0101407720000000885725MAXIMA HEALTH PRODUCT VENTURES, INC                      1601
A0101407720602396825001EDWIN EPHRAIM G. WENCESLAO, MD                           0502
A0101407720602399405002CLAVER P. RAMOS, M.D. OR                                10503
A0101407720602399405002THELMA E. RAMOS                                         20500
A0101411530000000178938EMILY V BASCO TRADING                                    0505
A0101411530654168711001**********                                               0502
A0101413570000003379908CABANIG, MYRA MELAYA                                     0503
A0101413570656057648046GENALINE ESPIRITU CRUZ                                   0502
A0101413570656057648169HANS MONTENEGRO                                          0501
A0101413570656057648203RICHARD B. PINEDA                                        0501
A0101413570656057648234JERICO SANDOVAL                                          0502
A0101413570656057648251ROD MARK VILLADOS                                        0502
A0101413570656057648262LARICEL TABIEN                                           0501
A0101413570656057648281PIERRE LUDOVICE                                          0501
A0101413570656057648282ANDREA DE GUZMAN                                         0501
A0101414120000003190907CHRISTIAN LEYGO OR MHARISTIANE                          10501
A0101414120000003190907LEYGO                                                   20500
A0101414120000001642597ELICAS TRADING                                           0501
A0101406590662040759001MI BELLA SALON                                           0505
B0101406590662058068001PNOY SERVE MANPOWER INC.                                 1601
A1301400210000000540743JONEL MAR S TRINIDAD                                     0501
A1301400340683555340001MORAGA, SHIRLEY ANDAYA                                   0502
A1301400340000000980212OLIVETE, FELOMENA MONTANIEL                              0502
A1301400500000000213083JUANITO F. GREGORIO OR AURELIA                          10501
A1301400500000000213083S. GREGORIO                                             20500
A0101408240711428123001VICENTE V. IBE                                           0501
B2801400100712028150001SUBIC NEXUS TECHNOLOGIES INC.                            1603
A2801400100712378394001REYNOLD JOHN B. MADAMBA OR                              10501
A2801400100712378394001ANNE RAQUEL S. M                                        20500
A4101400420000003715597DUMA, RAQUEL BIALA                                       0501
A4101400420000003715575ABAD, CHRISTINE MARIE REYES                              0502
A4101400420814365288001LANDICHO, WILFREDO DE JESUS                              0501
A4101400420814470604001ABANES, MARILOU CANTORIA                                 0501
A4101400420000003715724FLAVIANO, PERLITA                                        0501
A0101412340000003341922ERLAND R. CHENG                                          0501
A0101412340000003422671FREDERICK G. ENRIQUEZ                                    0501
A0101412340000003564458ABIGAIL H. CABAS                                         0501
A0101412340000003718956RENNEL B. COLLADO                                        0501
A0101412340000004359906ZARRA F. ALEGRE                                          0501
B0101404840851013980002VIC IMPERIAL APPLIANCE CORP.                             1601
A0101404840000001312576DOMINGUIANO, GLORIA D.                                   0502
A0101404840851478374175CHONA S. SOTES                                           0501
B0101406750852456290001**********                                               1602
B0101405070000001161335W4 ALLIANCE SECURITY AGENCY, INC.                        1601
A0101413860000001887067CORDERO, KRISTINE DAYO                                   0501
