B0101412920160058851001BREAKROAD35 INTERNATIONAL MARKETING                     11630
B0101412920160058851001CORPORATION                                             21600
A0101400150061341245002BENILDA CARPIO                                           0503
A0101400150061697165001SERVER, CATHERINE ANNE B. OR                            10502
A0101400150061697165001CHRISTINE MICHEL                                        20500
A0101405490000001876195MARIA RICA CECILIA B. ESCUETA                            0501
A0101405490000005643421RUEL S. ORO                                              0501
A0101405490392571716001GERALDINE O. ACTHLEY OR                                 10501
A0101405490392571716001RAQUEL A. TAJONERA                                      20500
A0101400860011504202002**********                                               0501
A0101400860011534620001**********                                               0501
A0101400150000000253369DELA CRUZ, ANGELA BALASBAS                               0501
B0101405810072030630001***************                                          1603
A0101405810072284224001*********                                                0501
A0601400520000001349662TIMBOL ROMAN MANALOTO                                   10502
A0601400520000001349662ACCTNG & TAX CON                                        20500
B0101400730111042662001CENCAR CORP.                                             1606
A0101400730111458403002ABREGANA, CLEOFE TAMPOS                                  0501
A0101400730111520766035ALMA S. CARDONA                                          0502
B0101413310000001928823GEO MEDICAL CONTACT LENS INC.                            1602
A0101401830141316124001JOSEFINA L. GUIUA                                        0501
B5001400170000000045025S. A. MALON LENDING CORP.                                1601
A0101407270162287683001JOSE FREDDIE P. BAUTISTA                                 0502
A0101407270162385235002RAFAEL M. MERCADO                                        0502
A0101401090171196088001LIBERTAD NAZARENO ROSALES                                0505
A0301400530000005650762MAMBULAO, GILBERT SERRA AND                             10502
A0301400530000005650762ROSALES, HAROLD RAY TERO                                20500
A0301400530193659725168TIU, GWYNETH TERESA W.                                   0502
A0301400530193710800001TABANAO, JESICA G.                                       0502
A0301400660194737283088ZHI VENUS INDUSTRIAL SUPPLY                              0502
B0101413600000000206926GPRS-UNIFIED PRODUCTS AND SERVICES INC.                  1601
B0101413600000002822700POWERGEN INTEGRATED SOLUTIONS COMPA                      1605
A3101400450223442002001GARCIA, ROSALINA OR                                     10502
A3101400450223442002001JESUSA CORAZON                                          20500
A3101400870000003515411ISLETA, ANGELA LEAH DUREMDES                             0504
A3101400870000000957677FLORES, R DBU COLOURBLINDS                              10501
A3101400870000000957677INTERIOR PRODUCTS                                       20500
A1001400190000002266504MARABE, RIKKA AND LA VINA,                              10502
A1001400190000002266504IRISH OR MARABE, LUIGI                                  20500
A1001400350233478374009CAJANDAB, FLORABEL M.                                    0502
A1001400480000000133542GUINTO, CHARLOTTE JANE MAGO AND                         10501
A1001400480000000133542GUINTO, NEMER SARDEA                                    20500
A1301400470252634995001LOUISE L. ANG AND LOED L. ANG                            0510
A1301400760000001295529JOSE P. LOPEZ                                            0502
B1301400760000001295552DIAMOND GRAIN AGRICULTURAL TRADE                         1602
A0101406460000002330990********                                                 0502
B0101406620000000015243SAMPO UNLIMITED SOLUTION INC.                            1601
B0101406620000000015005CARPIO & BELLO LAW OFFICES                               1601
B0101406620000000193942SOURCEFIT PHILIPPINES INC.                               1601
A0101411240000005136425GACULA, NORMAN DIZON                                     0502
A0501400200000001081065DELOS REYES JR., PEDRO BULOSAN                           0503
B2601400270302039764001MOTORAM MOTOR PARTS                                      1602
A2601400270000001009050BATTAD, AURELIO DBU AUB CONSULT                         10501
A2601400270000001009050MGT&ENGINEERING SERVICES                                20500
A0801400160000001031354DUREMDES, DANIEL JOB                                     0502
B6601400120314047332001ST. ANTHONY FARM INSTITUTE OF                           11601
B6601400120314047332001TECHNOLOGY INC.                                         21600
A6601400120314076124001MARCELINO, JOCELYN LESIGUES                              0502
A2001400290315641895001WENCESLAO, JUNE CLEO OR                                 10501
A2001400290315641895001WENCESLAO, ANTON                                        20500
A2001400290000000924670UYPITCHING, CECILIA JUSTO                                0501
B3401400280000000157059CAPIZ ARCHDIOCESAN SOCIAL ACTION CENTER                 11601
B3401400280000000157059INC.                                                    21600
A3401400280318736732001TERESA A. SANTOS OR MA. AILEEN                          10501
A3401400280318736732001A. SANTOS OR TINA S. ONG                                20500
B34014002803187788880880318778888088                                            1605
B34014002803187788881680318778888168                                            1605
A0101402350000003080322DANAO, LINO OR DANAO, RUFINA                            10501
A0101402350000003080322DBU L2 AUTO SHOP                                        20500
A0101402350321671189001DELOS SANTOS, EDUARDO DORIA                              0502
B0101405650322018681008LANDCO PACIFIC CORPORATION                               1603
A0201400760374081590001GAISANO, JACK SY                                         0501
B0201400920000000047921HEDLAND VENTURES INC.                                    1602
A0201401020377046499001TEH, MARIA ELENA BLANCO DBU                             10502
A0201401020377046499001E.T. PRINTSHOPPE                                        20500
B0101402930381033903001T.H.E. TRAVEL GURU INC.                                  1601
B0101402930000000623410R AND C OUTDOOR MEDIA INC.                               1606
B0101402930381205334001IMPERIAL CONSOLIDATED CORPORATION                        1604
A0101408370382194449001**********                                               0510
A0101408370382336346001DR. MA. FAIDA R. REYES                                   0502
A0101408370382497608001DR. AZENETTE LACUNA-MENDOZA OR                          10502
A0101408370382497608001TRISTAN PHILIP MENDOZA                                  20500
A0101411660000002881150JOSE C PEPITO JR DBU JCAP                               10501
A0101411660000002881150SIMPLIFIED BUILD                                        20500
A0101402770000001571375EDITHA C. DIONISIO                                       0501
A0101408400000003844962DATUMANONG, ROCAINA PENONDANG                            0501
A0101408400000001855541CAMPOSANO, MARILYN F DBU MARSDE                         10502
A0101408400000001855541NISSE TRAVEL AND TOURS                                  20500
A0301400820000001185622DOMINGO, MARIA ROSELA P. OR                             10503
A0301400820000001185622DOMINGO, RITA P.                                        20500
B5501400120410040779001NOTRE DAME OF NORALA, INC                                1601
A2401400180411478374054LUENGO, IMELDA AMPO                                      0501
B0101403030000001302225**********                                               1602
A0101412890000004345044SILCOCK, PAMELA PALLON                                   0501
B0101412760476048068001BARBOZA JR., GAUDE DBU GAB MANPOWER                     11601
B0101412760476048068001AND SERVICES                                            21600
A1601400170000000497423MENCHU R. BUADO                                          0501
B0101407430503028318001LONGHORN TRANSPORT SERVICES INC.                         1605
B0101408110515020436002JMD INTERNATIONAL CORPORATION                            1607
A0101408530516521997001ANGKICO, JEANETTE F.                                     0501
A0101411790000000469596**********                                               0501
B0101403450521011955001KINGSWOOD TRADING CO., INC.                              1603
B0101403450000000889574***********                                              1605
A0101403450521242339001ONG, ROBIN                                               0502
A0101403450521478374007********                                                 0501
B0101403610531046549001BIG APPLE PLASTIC PACKAGING INC.                         1602
A0101404000551478727001HUANG, GEORGE EMIL SHAU OR                              10501
A0101404000551478727001HUANG, OLIVIA SH                                        20500
A0101407720602399125002LIBAO, ARTURO CABRERA                                    0501
B0101407720602569898001SHINES DERMTECH SOLUTIONS, CORP.                         1601
A0101404260611040956001POWER ZONE ELECTRICAL SERVICES                           0501
A0101411530000000013732CALILUNG, TARCISIO SURLA                                 0501
A0101413990000002273941CARAMANZANA, EDGAR MABORANG                              0502
A0101413990000003141157**                                                       0503
B0101406590662058753001F.C. DINO CONSTRUCTION                                   1603
B1301400340000000981966PACHECO, CZYLVESTER LIM DBU VERDE PETROL                 1601
A1301400340683092718001GUMBAN, ROLANDO SEMPIO                                   0501
B0101408240711025397005KINGSMEN CORPORATION                                     1605
A4101400550000001332581RASE, IRENE LAXAMANA                                     0502
A4101400550000003267127NAVEA, A DBU VELJO ENTERPRISES                           0501
A0101404840000001312736ALVAREZ, MARY ANN A.                                     0501
A0601400230000003015987ALIGORA, MARY JANE DIMAL                                10501
A0601400230000003015987OR ALIGORA,  RENE UTULO                                 20500
A0601400230891043883001ROYCE'S FLORAL ARTS AND GIFTS                            0501
