B0101407690652821100608**********                                               2001
A2401400180000010066285SABROSO, CHARITO PALOMARES                               0501
B2801400230713045784001VILLAVICENCIO VERGARA TAN & CO.                          1602
A2001400290000004444542RAMAS UYPITCHING, MARESA SOCORR                          0502
A0101405650000005284493LOPEZ, IMELDA MARCOSA LAUDE                              0502
A0101412340000007305724RODOLFO D. PAGLICAWAN JR.                                0501
A0101400860000005312981**********                                               0502
B0101400860011374845003**********                                               1601
B0101400860011390372002**********                                               1603
A0101400860011426068001**********                                               0503
A0101400860011426546001**********                                               0505
A0101400860000000414122*************                                            0504
A0101400860011511921001**********                                               0502
A0101400150000005794410CHING, NELSON RAMEL                                      0501
B0101400150061028993001PHILAGROW INCORPORATED                                   1603
B0101400150061036106001SAN CARLOS LAND, INC.                                    1606
A0101400150000006551077AMPOL, JONIS ASIS                                        0501
A0101400150061771746001SARI, EZEKIEL MARASIGAN                                  0502
A0101405810000009970158WANQING WU                                               0503
A0101405810072387220001**********                                               0501
B0101405810072412798001**********                                               1603
B0601400100000002099421********************                                     1610
A0601400100081358739001CHUA, IRENE ANUNCIACION                                 10503
A0601400100081358739001OR REYES, GLORIA                                        20500
B0601400360000008477261SABELLON, JACKIELYN CAINGAT DBU KITCHEN                 11601
B0601400360000008477261LOVERS                                                  21600
A0101410850000002356885MEDRANO, R DBU RAM TRUCKING                             10502
A0101410850000002356885SERVICES                                                20500
B0101410850109066500001THRAN BULK MOVERS INC.                                   1604
A0101413310000009641152DIZON, YOLANDA ALABANZA                                  0501
B0101413310000001928914HONEYCOMB BUILDERS, INC                                  1602
B7201400170000003772929LAMIING, JUNEVELL ORAIZ                                  1601
A0101407270000004915908LORENZO, TRICIA MARIE SOLANOY                            0501
B0101401090000000210500PARACLETE DEVELOPMENT CORPORATION                        1603
A0101401090171615473001EMERALD C. SUAREZ                                        0502
B0301400530000000025378D' UNIBUENAS CORPORATION                                 1603
A0301400660000002348621**********                                               0503
B0301400660194046073088WEST EMPIRE SEAFOODS AND CHINESE RESTAUR                11610
B0301400660194046073088ANT                                                     21600
A0301400660000005691789**********                                               0502
A0101413020000006295225**********                                               0501
A0101413600000003134647CZARINA ROSARIO AVILA PARDINEZ                           0502
A3101400160000006497814LU, MARITES A. OR LU, JUSTIN A                           0510
A3101400160221767573001VICTORIA M DEL ROSARIO                                   0501
B3101400740000006701004CABALLERO, JOFFER/BALQUEDRA, AVEGALE/                   11602
B3101400740000006701004FLOR JR, CARLOS                                         21600
B3101400740224068403001FRIEND NIPPON MANILA INC.                                1601
A3001400130000009103600ESCRIBIR, SANDRECS L DBU ABOVE                          10502
A3001400130000009103600& BEYOND TRAVEL & TOURS                                 20500
A3001400130230478374004BALABA, JANETH BORJA                                     0501
A3001400130000008264864CACAFRANCA, KARL RUSSEL INOCENC                         10501
A3001400130000008264864IO                                                      20500
B1001400190231039789001MINDANAO ENERGY SYSTEMS, INC.                            1602
A1001400190231520766036ONIPA, JANE ROSE P                                       0501
A1301400760000000050671JEFFREY D. ABESAMIS OR                                  10501
A1301400760000000050671CINDY F. ABESAMIS                                       20500
A0101408660000006296815PERALTA, CARLA MARIE ANGKEE                              0503
A0101410980275077813001LUNA, HENRY ANTHONY NUBLA                                0501
A0101411820000001356703IBAY DIGINET INTERNET CAFE                               0501
A0101400570281186530001CARLOS AGUILA OR                                        10502
A0101400570281186530001MERCEDES AGUILA                                         20500
A0101400570281421615001ANDREW S. ONG OR                                        10503
A0101400570281421615001CHERRIE ANN L. O                                        20500
A0501400200000006445025GANAO, JULIUS MARZAN                                     0501
B0501400200000000035721R.D. SABADO BUILDERS INC.                                1601
A0801400160000002287647LYDIA E. GRABATO                                         0503
A0801400160311066091001EXPI'S BALLOON MAGIC, PARTY NEE                         10502
A0801400160311066091001CATERING SERVICE                                        20500
A1101400120000000652653SOLAYAO, ROY DACLAG                                      0501
A1101400120000000652824NIPAL, MARIA TERESA RIVERA                               0501
A6601400120000002249772ADARAYAN, MA PAZ ORTEA                                   0503
A6601400120000003084717DATO JR., BAYANI EVARISTO DBU C                         10502
A6601400120000003084717CONSTRUCTION                                            20500
A3401400280318095661001OROLA, AIMEE PERALTA                                     0501
A0101402350321179400001NILDA Q. APISTAR                                         0505
A0101402350321287893001CHANG, PO HAN                                            0501
A0101402510000010100742BANZUELA, MA. CECILIA ASENJO                             0501
B0101402510341068366001MAKI SUSHI FACTORY INC.                                  1601
B0101402060351009401001PHIL. IRON CONSTRUCTION & MARINE WORKS,                 11605
B0101402060351009401001INC.                                                    21600
B0201400760374041432001PUERTO GATEWAY MOTORS CORPORATION                        1603
B0201400920000000047910JR INVESTING CORPORATION                                 1601
B0201401020000000470240GOLDEN TONIQ CORPORATION                                 1605
A0101402930381381233001LEAH LIZETTE M. ESGUERRA                                 0502
A0101408370000010341732FABELLON, DIANE SUMALJAG                                 0501
A0101408370000002264080CHAVEZ, CHRISTINE LAOANG                                 0501
A0101408790383610468005NEALEGA, MARIE CARMEL M.                                 0501
A0101402770000000360530MARIA ESPERANZA E. GUTIERREZ                             0502
A0101402770391034936001LOGPRO EXPRESS, INC.                                     0502
A0101402770391211301001TENG MU KUNG                                             0503
A0101408400000005286171PONCE, MINA MUSNGI                                       0501
A0101408400000005286320AMEROL, ROSLINA MAROHOMSALIC                             0504
B0101408400000002386183GOLDENWILL INC.                                          1602
B0101408400000004733773SINCERE FACADE PHILIPPINES, INC.                         1602
B5501400120410275289088KORONADAL COMMERCIAL CORPORATION                         1605
A5501400120410638200008ALAJAR, CELESTINA DE JESUS                              10502
A5501400120410638200008OR DE JESUS, LOU                                        20500
A2401400180411478374020MORI, LYDIA                                              0502
A1201400150000006253716DAPLIAN, BRIAN RAGUINDIN                                 0502
A1201400150421253624001GUANZON, ALICE D. OR                                    10506
A1201400150421253624001GUANZON, DELFINO                                        20500
A0101403030441240658002**********                                               0501
A0101412890000007095334*********                                                0501
A0101412890000000371599COBO PAVILLION                                           0503
A0101403320000001646602PERALTA, MARITES FARINAS                                 0501
A0101403320000001803481GUZMAN, MARLON ONG                                       0502
B0101403320471030317001UPLIFT PHILIPPINES INC.                                  1610
B0101403320471062316002ZEAL POWER CONSTRUCTION & DEV'T. CORP.                   1601
A0101403320471067995001LEE, MICHAEL A. DBU                                     10502
A0101403320471067995001HAYWARD PRINTING                                        20500
A0101403320471473368001DANILO U. CATRE                                          0501
A0101403320471518986001FARAH ALBANIA                                            0501
A0101406330472635480001NUCUM, MA. CRISTINA DELA CRUZ                           10503
A0101406330472635480001OR NUCUM, JAY T.                                        20500
A0501400170481255549001GAZMEN, MA. HAZEL RITA THERESE                          10503
A0501400170481255549001RAYOS                                                   20500
B1901400320489068578001DM BERBERABE CONSTRUCTION & DEVELOPMENT                 11603
B1901400320489068578001CORP.                                                   21600
A1901400160000007556763FELIX E PEREZ OR                                        10505
A1901400160000007556763PACITA P CULATA                                         20500
A1901400160000009055038BONDAD JR., CONRADO AUGUST                              10501
A1901400160000009055038AMBIDA                                                  20500
A0101405940000001534305LAURIO, FLORIEN DOSADO                                   0501
B0101412050519061409001O.S.A. CLEAN AND COMFY LAUNDRY AND DRY                  11602
B0101412050519061409001CLEAN SERVICES                                          21600
A0101403450521238594001**********                                               0501
A0101403610000006643183TAYAO, ANA PATRICIA TEE                                  0505
A0101403610000011306293MENDOZA, RODEL PASTERA                                   0501
A0101403610000011442914SUANER, MARY GRACE RAMOS                                 0501
A0101403610531355089001MACASAET, DOMINGA YAMBAO                                10501
A0101403610531355089001MACASAET, LOPE M                                        20500
A0101410690000000478893ATANACIO, ANNABELLE ANGELES                              0501
A0101404130601555571001DE GUZMAN, ELSA MONTEALEGRE                              0501
A0101407720000000245214LEORNA, IRENE CASUBUAN                                   0502
A0101407720000005100263CASTILLO, VICTOR REY GONZALES                            0501
A0101407720602167555001JAIME E. VILLAMIN OR                                    10501
A0101407720602167555001MA. ANGELIE M. VILLAMIN                                 20500
A0101407720602318369117ORLANDO A. RUIZ                                          0501
A0101407720602340866001HONG, CRISTINA CHO                                       0501
A0101407720602342044001DR. DARWIN ALBERT DASIG                                  0502
A0101404260611005236001WILTRON ELECTRONICS                                      0502
B0101404260611038904001REYESHEN PRINT AND OFFICE                               11601
B0101404260611038904001SUPPLIES                                                21600
A0101404260611335308002ALIMBOYONG, JOSEPHINE MAHINAY                            0505
A0101409920000009981515***********                                              0501
A0101411530000011424712ORDONO, REX FROILAN OR                                  10501
A0101411530000011424712ORDONO, JOANNA MARIE                                    20500
A0101413440655054550001SOMETHING DIFFERENT BAKESHOP                             0501
A0101414120000000648960AZUELA, CYNTHIA LARGADO                                  0502
B0101414120000001984289DEMPSEY RESOURCE MANAGEMENT INC.                         1602
A1301400210000005040577**********                                               0501
A1301400210000007669289GONZALES, MARK OLIVER SANTIAGO                           0503
A1301400210682582829001ELENA G DEL ROSARIO OR                                  10503
A1301400210682582829001VICTORIA G DEL R                                        20500
B1301400340683041966002TPG MANCOM SERVICE COOPERATIVE                           1602
B1301400340683353482001MARLENE R. JOSE OR JOSE MARI R. JOSE                     1602
A1301400340000005265123CALAM, MAE RONDINA                                       0508
A1301400340683433734001DELA RAMA, CARMELITA LOZADA                              0504
A1301400500000005963379EVANGELISTA, ROGELIO CONCEPCION                          0501
A0101408240711469368001CAGANDA, ANTERO JOSE MADARA                             10501
A0101408240711469368001OR JEANZIE LEE                                          20500
A0101408240711571673001BAYER, MYLA ATIENZA                                      0502
A0101408240711701664001AQUINO, MA. CRISTINA ISABEL MAR                          0503
B2801400100000003400540SUBIC KOREAN HOTEL AND RESTAURANT AND                   11603
B2801400100000003400540GENERAL MERCHAND                                        21600
B2801400230000005253561PRAGMATIC DEVELOPMENT & CONSTRUCTION                    11605
B2801400230000005253561CORP.                                                   21600
A4101400260000006043403RAPISTA, JOHNNY APISTAR                                  0503
A4101400390000000048633ANALYN MANALO ANACIN M.D.                                0501
A4101400390813478374035PLACIDES, MICHAEL                                        0502
B4101400420000009391933RITA SAMSON MEMORIAL GARDEN, INC.                        1605
A4101400420814478374102MALIBIRAN, MARLYN M.                                     0502
A4101400420000000120685NANCY A. PACE                                            0501
A4101400550815047619001HIMOC, RUBY ESTOR                                        0501
A0101412340000005431874JAIME P. CRUZ                                            0501
A0101412340000007305757EVELYN D. ALVAREZ                                        0501
A0101406750000010508857ESPINOSA, ELSIE PARNONCILLON                             0502
B0101405070861008460004STARS TRAVEL INCORPORATED                                1602
A0601400230000007252771TAN, ALLAN PANGILINAN                                    0502
