A0101407690000000025174MADRIAGA, LUZMINDA CAMINA                                0501
A0101400440000000060335LYNDEE ANN D. SIA                                        0502
A6601400120000000060562CO, TOMAS OR CO, HELEN                                   0502
A0301400530000000065832PERIAS, FE                                               0501
A3101400870000000074786KARUNUNGAN, ALLAN MALALUAN                               0501
A3101400870000000074786KARUNUNGAN, ALLAN MALALUAN                               0501
A0301400660000000194530JATTRO MARKETING                                         0502
A0101405490000000232493JOSELITA R. TUASON                                       0502
A0101408820000000408666CAMARO, MYRNA DELA CRUZ                                  0501
A0101408370000000586038QUINIO, IRENE BALLICAS                                   0501
A1001400480000000606819TAN, LYDIA OR TAN, OLIVER                                0503
A0101414090000000648493*******************                                      0502
A0101409180000000874539DIMAANO, ROY VILLALOBOS                                  0501
A0101407690000000914016******                                                   0501
A0301400660000001020102RODRIGUEZ, DARREN ALAMPAYAN                              0503
A0101400600000001025114CARMELITA V. NATIVIDAD JR.                               0501
A0101407430000001028864CECILIA SY CAMPOSANO                                     0503
A0101407140000001218433CHENG, BERNARD SEE                                       0501
A3001400130000001271352MONTECLARO, JOSEPHINE VILLAROSA                          0501
A0101401830000001281910DE GUZMAN, CONCEPCION FRANCISCO                          0502
A0101412760000001399226SORIANO, DIVINE GRACE DIONISIO                           0501
A1301400500000001412424PAULA NEA M. DE VERA                                     0501
A0101404680000001617352FE R. LIM                                                0501
A0101403320000001803203ARROJADO, ARTURO CARTUJANO                               0501
A0101403320000001803225MARLON P. ESPIEL                                         0501
A0101400730000001822715ARNOLD M. CARBONELL                                      0501
A0101407690000001919844APUNDAR, MYLENE CABASOY                                  0502
A0101410140000001939933FERRER, J DBU AJ1201 TREAD ENTE                          0501
A2801400100000002253549PARAZO, DARLOW BALMORES                                  0501
A0101411950000002266082SANNY O. BALANSAG                                        0502
A0101413990000002273963AVILA, ANNABELLE CARRERAS                                0503
A0101405650000002325560SUGUI, CHERYL MERCADO                                    0502
A1901400290000002337782REYNALDO JOVES GARCIA                                    0501
A0101400730000002882273*****                                                    0501
A4101400550000003266926SABADO, ROSALINDA QUERUBIN                               0501
A0101411400000003311155MARTINEZ, MARIE SOSA                                     0502
A0101411660000003580210LEILANI ESTEBAT                                          0501
A0101400440000003671721ALCANTARA, MARLYN DACORO                                 0501
A0101412180000004089032RAMOS, GRACE SHARLYNE STA. ANA                           0501
A0101412180000004089043ALMENDRALA, ALLAN ALFREDO                                0501
A0101412180000004089054GUERRERO JR., NEMESIO LAZO                               0501
A0101412180000004089065POBLETE JR., RICARDO CHUA                                0501
A0101412180000004089076MORONA, JHAYLORDE SAMPANG                                0501
A0101412180000004089087DIMAANO, DARWIN CO                                       0501
A0101412180000004089098OINEZA, BERNARD BACUD                                    0501
A0101412180000004089101ORNILLO, MA. CRISTINA REGLOS                             0501
A0101412180000004089112BASALO, MECIL ETANG                                      0501
A0101412180000004089123BRUAL, WILFREDO NARITO                                   0501
A0101400860011393568001***********                                              0502
A0101400150061315447001SUBIDO, M.D. JONAS CERTEZA                               0501
A0101400150061316369002WARREN TAN SY                                            0502
A0101400150061337098169MA. GISELLE A. LICERALDE                                 0501
A0101400150061444972001SARAH P. AGUDON                                          0503
A0101405810072283303001**********                                               0501
A0101405810072283303002**********                                               0501
A0101405810072291768001**********                                               0501
A0601400100081765431001CASTILLO, MADELYN MARIANO                                0501
A0101410560110478374009SAUDILYN M. PENAS                                        0502
A0101401960121239548001MELANIE YAO                                              0501
A0101401830141306724003GUEVARRA JR., ANTONIO PASCUAL                            0503
A0101400440161187024002ADORABLE B. JACINTO                                      0501
A0101400440161520766125FELY TUBELLO                                             0501
A0101401090171196062001DRS. GIL OR ZAIDA GAMILLA                                0506
A0101401090171199911001AUGUSTO OR MA. VICTORIA PIA                              0502
A0101401090171309046001CESAR M. VELASCO JR.                                     0501
A0101401380201698915001ELEN, MIRABEL CEPEDA                                     0501
A0101407140213485140001**********                                               0501
A3101400870225057143001CUETO, L DBU LSC FOOD SERVICES                           0501
A1301400470252478374028NORMA S. BALLESTEROS                                     0505
A1901400290261298552013LEONILA QUESADA GUEVARRA                                 0501
A1901400290261298552022ALVIN DEL ROSARIO MAGNAYE                                0502
A1901400290261298552151JEFFER JOHN ESTEBAN MONTEALTO                            0501
A0101406620273314677002*****                                                    0501
A2601400270302591563001ROSITA R. CHE                                            0501
A6601400120314737040001DURA, CARLITO OR DURA, RENY                              0503
A0101405650322412858004GANDOL, ARSENIA BALANE                                   0502
A0101402060351386924002SY, PRISCILLA PINILI                                     0503
A0101402640361022047001METRI-INCH MARKETING                                     0510
A0201400760374720031001******                                                   0502
A0101408370382042666001TMC DEPARTMENT OF ORTHOPEDICS                            0501
A0101408370382397168001DR. CRISTINA C. BERNARDO                                 0504
A0101408370382457017001DR. RONEIL M. NOGOY                                      0502
A0101405490392478374008MARGARITA R. CIELO                                       0501
A0101403030441239002001**********                                               0503
A0101403030441469355001**********                                               0501
A0101407720602398798001AVANCENA, MARIA CORAZON MONZON                           0501
A0101404260611155266001YU, SUSANA OR EDDIE                                      0501
A0101404680651478374142**********                                               0502
A0101404680651551290001RUFINA M. MENDOZA                                        0502
A0101410720653461660001NOCHE, MARIA CORAZON ALARCON                             0502
A0101406590662211749002ALONZO, LETICIA TUAZON                                   0501
A0101406590662411701002YARA, MELISSA ANTONETTE ALONZO                           0501
A1301400340683484518001DELOS REYES, ANDRES JOSE                                 0505
A1301400500684606544001CUNANAN, EMELITA MANACO                                  0501
A0101407560686314209001**********                                               0501
A0101407560686415825001CHARITO A. GUMAPAC                                       0506
A0101404840851478374038EVANGELINE UMALI                                         0501
A0101404840851481664020VINCENT VERZOSA                                          0501
A0101404840851520766104PARAGAS, MARILOU                                         0501
A0101406750852656672001FELIX, ROMEL GANZON                                      0502
A3101400160000000006464CANDELARIO, EVELYN DBU                                  10502
A0301400820000000045554DENUNA, HAZEL F. OR DENUNA,                             10501
A0201401020000000056113LUCHAVEZ, R DBU YULIAN                                  10503
A0101410300000000191815CARBALLO, LUIS ANTONIO S. OR                            10503
A0101405070000000260411RAGADIO, NOLY DIVINA OR                                 10501
A0101407690000000495596DE JESUS, AUGUSTO OR MILA OR                            10501
A0101400730000000645283ROCA, ARGON JACOB D. DBU                                10502
A0101409920000000857989ABUYUAN, NORA G. OR                                     10502
A0101413440000001472602GP-GENESIS DIALYSIS CLINIC                              10502
A0101402770000001570576CORPUZ, ODETTE ESTRADA OR                               10501
A0601400100081254011001PANLILIO, MARIE CARMEN OR                               10501
A0101400730111304745001AUSTRIA, ERNESTO CRUZ OR                                10505
A0301400660194741763001TIRADO, MARY MISAL OR TIRADO, R                         10502
A1901400290261244409001ESPERANZA PAZ M LEYEZA OR                               10502
A0101408370382403238001DR. EUGENIO EMMANUEL V. REGALA                          10505
A0101402770391757431003CHAN, HAYDEE CHUA OR                                    10501
A1901400160491244619001ALEJANDRO F UY OR                                       10502
A0101404260611152420001AGAPITO A. AQUINO OR                                    10502
A0101404680651742300001STEPHEN P. DE SILVA OR                                  10501
A0101407690652525001072BETITA, ROSELYN  - DEALERS OF                           10501
A1301400340683458901001TORRES, RAMONCITO BAISA   OR                            10501
A1301400500684592585001ROBERTO M CARLOS OR                                     10504
A2801400100712255396001VITT O GUTIERREZ OR                                     10503
A3101400160000000006464RALC REALTY                                             20500
A0301400820000000045554JOZEL HANZ F.                                           20500
A0201401020000000056113MERCHANDISE                                             20500
A0101410300000000191815SALAZAR, EMMANUE                                        20500
A0101405070000000260411VIVAR, RAMON D.                                         20500
A0101407690000000495596JOSE MARIA AUGUSTO                                      20500
A0101400730000000645283RADIANT TRAVEL &                                        20500
A0101409920000000857989ABUYUAN, JIMMY G                                        20500
A0101413440000001472602DIAGNOSTIC CENTE                                        20500
A0101402770000001570576GARCIA, JAINEVILL                                       20500
A0601400100081254011001PANLILIO, AUGUST                                        20500
A0101400730111304745001EVELYN AUSTRIA                                          20500
A0301400660194741763001UEL TAPUROC                                             20500
A1901400290261244409001JUAN GUALBERTO M LEYEZA                                 20500
A0101408370382403238001OR MARY JANE M. REGALA                                  20500
A0101402770391757431003CHAN, PAULINO CO                                        20500
A1901400160491244619001APOLONIA AGNEY B                                        20500
A0101404260611152420001REMEDIOS T. HERN                                        20500
A0101404680651742300001NORMA P. DE SILV                                        20500
A0101407690652525001072SHOECAT INC.                                            20500
A1301400340683458901001TORRES, AILLEEN                                         20500
A1301400500684592585001MILAGROS T. CARLOS                                      20500
A2801400100712255396001MARY ANN GUTIERR                                        20500
B0301400790000000040939ALLIANCE HYBRID SEED GENETICS, INC.                      1605
B0301400660000000048235DAVAO MULTIBUILD CORPORATION                             1605
B0101406620000000193942SOURCEFIT PHILIPPINES INC.                               1602
B0101413990000000206226EREHWON ARTWORLD CORP.                                   1601
B0101400440000000337773VIENNA PORCELANA PHILS. INC.                             1610
B0101404260000000550412GOLDLAND HOTEL CONCEPTS INC.                             1603
B0101405650000000772721PREMIERE COMMUNITY PARTNERS, INC.                        1610
B0101408790000002659129SUNFISH ASIA ENERGY SOLUTIONS INC.                       1603
B0101400440000002846575COMMANDER SECURITY SERVICES, INC.                        1610
B0101400150061010809001VENDOME INSURANCE AGENCY KONSULT, INC.                   1603
B0101400150061045973001PACSPORTS PHILS., INC.                                   1603
B0101400150061047569001JACKBILT INDUSTRIES, INCORPORATED                        1602
B0101400150061228665001MALAYAN TOWAGE AND SALVAGE CORPORATION                   1610
B0101400600071637415001CHAN, DOMINGO MATONDO                                    1601
B0101405810072083905001HONG, HAN MING                                           1601
B0601400100081018566001BLUE QUEST PURIFIED WATER STATION                        1601
B0601400100081028347001NP ANGELES SERVICES, INC.                                1610
B0301400790195055985001PHILSUMMIT EQUITIES INC                                  1605
B0101407140213510054001FULL CIRCLE EVENTS ASIA, INC.                            1604
B0101406620273026509001DG3 IDOCS, INC.                                          1602
B0101408660274036067001FABRIDUCT AND METAL SYSTEMS, INC.                        1601
B0101402480331035815001***************************                              1601
B0101402480331036785001********                                                 1601
B0101402480331043435001UNIFIBER INDUSTRIES, INC.                                1603
B0101402480331219221001**********                                               1601
B0101402510341030620001JAFEL PROPERTIES INC.                                    1601
B0101403320471024815001GOLDRICH FOODS CORPORATION                               1603
B0701400260495037805002PRINCETON ENTERPRISES                                    1602
B0101407430503006924001ALL TRANSPORT NETWORK INC.                               1605
B0101403450521011989001**********                                               1610
B0101403450521012171001**********                                               1602
B0101404000551019197001MAA GENERAL ASSURANCE PHILS., INC                        1610
B0101407720602531639007INTELLIGENT BEAUTY SKIN SOLUTIONS INC.                   1610
B0101404420631056982001JCMJ STEEL WORKS FABRICATION INC.                        1601
B0101404680651006224003NOVALICHES DEVELOPMENT COOPERATIVE                       1601
B0101404680651034523001NO NAME                                                  1601
B0101407690652042938001SIGNWOOD HARDWARE & LUMBER SUPPLY                        1603
B0101407690652505889001VANCOUVER HILL PRESCHOOL, INC.                           1601
B0101410300663082813001DELTA GRID POWER SYSTEM CORPORATION                      1602
B4101400420814015551002REGATTA CLASSICS HOMEOWNERS ASSOCIATION                  1601
B0601400230891039268001GOLDIE PLUS LENDERS, INC.                                1605
B0101413600000000206915LEGEND OF ICE RECRUITMENT                               11603
B0101402480331039322001LIBRO AT PAPEL INC (MERRIAM AND WEBSTER                 11605
B1301400210682012854002BULACAN PUBLIC SCHOOL TEACHERS MULTI-                   11605
B0101413600000000206915& SERVICES INC.                                         21600
B0101402480331039322001BOOKSTORE INC.)                                         21600
B1301400210682012854002PURPOSE COOP INC                                        21600
