B0101404710681821100608**********                                               2003
B0601400360083821100608**********                                               2002
B0101404710681821200608**********                                               2003
A2001400290315641895001WENCESLAO, JUNE CLEO OR                                 10502
A2001400290315641895001WENCESLAO, ANTON                                        20500
B0101402510341204183001ANA ABERILLA AND GILBERT MURILLO                         1602
B0101402930381021740001YOSHINOYA CENTURY PACIFIC INC.                           1605
B0101402930381022284001INVESTORS ASSURANCE CORPORATION                          1601
A0101402930381455329001ANNA THERESE M. CHAN                                     0501
A0101402930381615796001LOTILLA, CATHERINA MANUELA REME                          0501
A3801400170490767277001GERALDINE PACO VIVERO                                    0502
A1601400170494058123001ERIN'S CAFE                                              0501
A1701400230693478374060ROMOSOD, ADELA PASCUA                                    0501
A4101400420000002084584DULAY, BENJIE DBU MADDOX METAL                           0501
A4101400420814520766097ORIENDO, CECILIA B.                                      0501
A4101400420000000120696CARMELA G. ROMA                                          0501
A0101400860011388241003**********                                               0502
A0101400860000000414122*************                                            0503
A0101401250021401825001CHUA, REYNALDO MAGNO OR                                 10504
A0101401250021401825001CHUA, EMMA GESLANI                                      20500
A0101400150000005794381PATERNO, JOSE VICTOR PARDO OR                           10502
A0101400150000005794381PATERNO, MA. ELI                                        20500
A0101400150061390534002DY, ANDREW CHUA                                          0501
A0101400150061434587001CENTENO, REYNALDO MAGTOTO                                0501
B0601400360000000978936THE MEDICAL CITY CLARK, INC.                             1610
A0101410560000005280699FELIX CHRISTIAN H ZEPEDA III                             0501
A0101410560000005836182PATRICIO RAGOUSIS V. ESPOS                               0501
A0101410560000005836182**********                                               0501
B0101412630000000024040MONDAVI CONDOMINIUM CORPORATION                          1605
A0101401830000000865043CACHO, MA ELENA MORENO                                   0501
B0101400440161027962002CASAYRA CORPORATION                                      1601
A0101400440000004901440NLR INSURANCE SERVICES                                   0503
A0101407270000008162970SERRANO, PETER FLORES                                    0501
A0101407270000008185622PAYUMO, MARY GRACE LIGON                                10501
A0101407270000008185622OR PAYUMO, TARA JULIUS C                                20500
B0101407270162036459001ULTRATECH PRINTING CORP.                                 1610
B0101401090171019015001THOMASIAN ENDOCRINE PROGRESS INC.                        1602
A0101401090171197856001JOLINDA VILLANO ALMAZAN, M.D.                            0502
A0101401090171417697001TAUSA, FERNANDO ESTIOCO                                  0501
B0301400530000006477321*****                                                    1601
B0301400530000006477303BUENAS HOME CENTER CORP.                                 1605
A0101413020000000056722CASTELL, CHRISTOPHER M. OR                              10502
A0101413020000000056722CASTELL, MARIA M                                        20500
A0101413600000005355000PAUL VINCENT U. FABROS                                   0501
A3101400450223223458004ALVERO, LEAH AURORA TOLENTINO                            0501
A3101400450223693052001FERRER, PAMELA PIA OR MELVIN                            10506
A3101400450223693052001JOHN OR AUSTRIA, APRYL                                  20500
B3101400740224045556001JPP ENGINEERING SERVICES AND                            11602
B3101400740224045556001SUPPLIES                                                21600
A3001400130000001271341SURALTA, GEGINIA MONTICINO                               0501
A1001400190000005737471****                                                     0503
A1001400350233042653001BLUE ENERGY RESOURCES                                    0502
A1001400350233536957001ALLA, GODOFREDO RIVERA OR ALLA,                         10501
A1001400350233536957001 CELESTE MARIE M                                        20500
B1001400480000004097132EAGLE EQUIPMENT COMPANY, INCORPORATED                    1601
B0101401670271027397001KELEYNA ENTERPRISES                                      1601
A0101406620000000193731NERI, EVELYN PAGTAKHAN                                   0501
A0101406620000000193760DIAZ, FRANCIS PATRICK TAYENGCO                           0502
A0101406620000002009143VENTURANZA, THADDEUS ENRIQUEZ                            0505
A0101406620273213498001JORGE, LEILA EBORA OR                                   10502
A0101406620273213498001JORGE, ROBERT                                           20500
A0101412470000005380296ABAD, YOLANDA SOCORRO QUIRINO                            0502
A0101400570281361144001ERIC G. IDIESCA                                          0501
A0501400200000005751635PERDIDO JR., LEONARDO DIWATA OR                         10501
A0501400200000005751635FLORES, JOAN MAY                                        20500
A0801400160000006893043HTX TRUCKING SERVICES                                    0501
A1101400120000006186398VILLEGAS, ALVIN BRIAN PACRES OR                         10501
A1101400120000006186398DONGHIL, ERNILO DINOY                                   20500
A6601400120314041602001LEXTAN GENERAL MERCHANDISE                               0502
A2001400290315044705002REMAN GLASS & ALUMINUM                                   0501
B2001400290000000020571PHILIPPINE REACHWELL DISTRIBUTION                       11603
B2001400290000000020571CORPORATION                                             21600
A0101405650000002325640ZIOUTOS, ALEXIOS S.                                     10505
A0101405650000002325640OR ZIOUTOS, JULIZELLE                                   20500
B0101405650000000772652MARY MOUNT SCHOOL                                        1605
B0101405650000005381831GTVL MANUFACTURING INDUSTRIES, INC.                      1602
A0101405650000001377339POLICARPIO JR., JOSE C.                                  0505
A0101402510341202209003********                                                 0501
A0101402510341526386002LACSON, JOSE MARI VENTOSA AND                           10501
A0101402510341526386002RUBIO, MICHAEL JOHN YOUNG                               20500
A0101402510341565802002GLAISA A. CLAVERIA OR                                   10503
A0101402510341565802002JAMES RONALDO A.                                        20500
A0101402060000000358565DECENDARIO, MARICHU TADLAN                               0502
A0201400760000002047401AZNAR, MA. THERESA SOLANO                                0503
B0201400760374030157001ABOITIZ CONSTRUCTION GROUP, INC.                         1605
A0101402770000005324458MINOZA, JEROME PAUL P. OR                               10502
A0101402770000005324458SOTTO, LORDANA C                                        20500
B0101402770391009575001EASTERN RIZAL (JALAJALA) RURAL BANK, INC                 1603
A0101402770391211322001ELIZABETH P. GILDORE                                     0505
A0101402770391362124001CALICA, CORAZON ORALLO                                   0501
A0101402770391380022001KUNG, CHIEN-LIANG                                        0501
B0101402770391752292002JUANITA OR TOMAS OR BENJAMIN                            11601
B0101402770391752292002VICTORIA                                                21600
A0101408400000001614693ELICARL SALON                                            0502
A0101408400394478374063LACSON, MARITES                                          0502
A0101408400394566645001SIMON, SUSAN BABOL                                       0501
A0101408950396565472001DEBBIE GUANI DY MEGUIZO OR                              10503
A0101408950396565472001DONALD JUDE UY MEGUIZO                                  20500
B1201400150421013348002ARGEM FINANCE, INC.                                      1605
A0101403030441528979002**********                                               0506
B0101403030441593223001**********                                               1601
A0101412890000004435563REYNOSO, ROSEMARIE GOCO OR                              10501
A0101412890000004435563GLORI, DOMINIQUE                                        20500
A0101406330000000011752JONAH ROMANO DBU AW ENGINEERING                         10504
A0101406330000000011752SERVICES                                                20500
A0101406330472472283001MA CYNTHIA FALZADO                                      10501
A0101406330472472283001OR EDGAR FALZADO                                        20500
B1901400320489063071001LACSAMANA, JOEBERT M. DBU: JET TRADING                   1601
A1901400160491247707002GLORIA R BOOL                                            0510
B0101406880000000027169MARINE BENEFITS ASSISTANCE SERVICES, INC                 1602
A0101408530000008181771FRANCISCO, ANN MARGARETTE DELA                           0501
A0101411400000007169191SIA, JADE CARRASCO                                       0501
A0101411790518055815027MANABAT, ELAINE BUNDALIAN                                0501
A0101403450521061888001***********                                              0501
A0101404000551150199001DOMINGO MALLARI OR FRANCISCA                            10501
A0101404000551150199001MALLARI                                                 20500
B2201400250000000016913ABRAHM CHASE CORPORATION                                 1601
A2201400250561258530025CATHERINA T. DOMINGO                                    10501
A2201400250561258530025EMPLOYEES OF IEWPC                                      20500
B0101404130601015346002GLOBAL GAS & OIL CARRIERS, INC.                          1603
A0101404130601027289031KRESTA MARIE MAGLALANG                                   0501
A0101407720602163717001EDWIN E. DIMAYUGA                                        0502
A0101407720602318369104MA. LUZ E. SALVADORA                                     0502
A0101404260611150837001EMILIANO OR MARIETTA REYES                               0502
A0101413990000006278055GREGORIO, OSCAR DELOS REYES                              0501
B0101410300663047358001CAGC LADIES CHAPTER                                      1601
B0101410300000000191699ST. MARTIN SQUARE REAL ESTATE LESSO                      1602
A1301400340683249082002RICARDO HERMOSO II OR                                   10501
A1301400340683249082002AGRIPINA HERMOSO                                        20500
A1301400340683478374025REYES, SHIELLA                                           0501
A1301400500000003070139SUGAR DADDY MARKETING                                    0502
A1701400230693478374071QUILIT, RIZALINA ANCHETA                                 0501
B0101408240711026678001SAMBEL PACIFIC CORPORATION                               1602
A0101408240000002822062TY, ANNETTE SO                                           0501
A0101408240711443671001CARMENCITA C. GUIAO                                      0501
A0101408240711558994001REAL, RENALYN GASGA                                      0501
A0101408240711604633002MAKASAKIT, ALEX MANALO OR                               10501
A0101408240711604633002ELIZABETH                                               20500
A2801400100000002253458DATU, FERDINAND BULAONG                                  0502
A4101400260812249154001RIZALDY J. ESTOCADO                                      0501
B4101400420000006643387LEAD WITH INTEGRITY AND GOOD GOVERNANCE                 11604
B4101400420000006643387IN HELPING COMMU                                        21600
A4101400420814477593003BAUTISTA, TERESA PONCEJA                                 0502
A4101400420814520766054DELA TORRE, LUCENA ALMERIA                               0501
A0101404840851046725011ANALENE MONTECASTRO                                      0501
A0101406750000006303500ARNEJO, CHRISTOFFER WILLIAM MAS                          0501
B0101405070861028566001AVESTA REALTY, INC.                                      1602
