A0101406750000000090862CARMELINA, DBU MSDC TEA CORNER                           0502
A1001400480000000133279**********                                               0502
A0101413730000000144738**********                                               0501
A0101413860000000145053MARTINEZ, ROSEMARIE AURE                                 0501
A0301400820000000316670TIONG, ARISTON D.                                        0502
A0101413730000000469170***********************                                  0501
A0101408240000000521720RICAFRENTE, MA. ANALYN DELFIN                            0502
A0101403030000000531462HARROW, ALAN JAMES ANTHONY CASA                          0501
A0101410560000000590614CHAVEZ, JONALIE RAIPAN                                   0501
A0101413440000000702236*******                                                  0502
A0101412500000000739657****                                                     0502
A1301400340000000926869CUERDO, MARIA ANA SORNE                                  0502
A1301400340000001415769********                                                 0501
A0101401670000001598452SARMIENTO, LOURDES GARCIA                                0502
A0101408400000001614819EVAN KYLE'S BOUTIQUE                                     0501
A0101403320000001803010LORENZO, DANIEL JUN ABULENCIA                            0501
A0101408400000001855450EVANGELINE I. ALIGATO                                    0506
A0101410560000001944101CRUZ, RECOLLECTION ACOSTA                                0502
A0101400440000002034782CHARITO IBANEZ                                           0502
A0101413020000002292673********                                                 0501
A0101413280000002317671MA. CRISTINA DELA CRUZ DUMIGPE                           0502
A1901400290000002337782REYNALDO JOVES GARCIA                                    0501
A0101413440000002339573CABRERA, LEOTHENY ALBANO                                 0502
A1101400120000003197000HERNANDEZ, CONCEPCION PAPAURAN                           0501
A0101407270000003253905ANA ISABEL B. DIAZ                                       0501
A0101400150000003322374PAGBA, LOIDA                                             0501
A0101408370000003357140FRANCES IRENE O. SANA                                    0501
A0101408370000003357151SUANNIE MANGALI                                          0501
A0101401700041020988001MIKE'S BIKES CENTER                                      0501
A0101401700041339444001******                                                   0501
A0101411080042587892001****************                                         0502
A0101400150061226167001GASPAR R. ANDRES JR.                                     0501
A0101400730111423961001ROCES, RAFAEL VILLAREAL                                  0502
A0101400730111478374028LIBRADA MAGNO                                            0502
A0101400730111505403001GUEVARRA, FE DELA ROSA                                   0501
A0101400440161444616001ELMA B. BADILLES                                         0502
A0101400440161520766184MA. RENITTE D. ROMA                                      0501
A0101400440161525001040DOLORES A. DE GUZMAN                                     0501
A0101400440161525001112JELLIE ANN D. LOMAHAN                                    0501
A0101401090171200033001MARIA ROSARIO R. ARANDA                                  0501
A0101401090171622298001IDA MARIE T. LIM                                         0501
A0101407140213190353001********                                                 0501
A1001400350233042653001BLUE ENERGY RESOURCES                                    0502
A1901400290261042311011DRA. IRENE ENDOZO CASTILLO                               0501
A1901400290261415870001BUENAVENTURA ROBLES INFANTE                              0503
A1901400290261530754004DESSIRE MALALUAN ONG                                     0501
A0101406620273327382001GLORIA UNSON OR WAYNE UNSON                              0502
A0101408660274362607001SALAZAR, EMMANUEL B.                                     0501
A0101400570281511243001DR. REYNANTE C. MIRANO                                   0501
A1101400120313666687001RESTOR, MARJORIE YU                                      0501
A0101402480331219993001**********                                               0505
A0101402480331222392001**********                                               0510
A0101408820333158643001ROSITA L. TAN                                            0501
A0101408820333478374062SANDRA G. BUENO                                          0501
A0101408370382206210001DR. NOEL MENOR CASTILLO                                  0502
A0101408790383756670001JUAN, MELISSA SARMIENTO                                  0502
A0101405490392170286001MARY JANE P. SABILI                                      0501
A0101408400394036671001CAIT FURNITURE SHOP                                      0501
A0101408400394039740001KAINAN SA STAFFHOUSE                                     0506
A0101406330472027958001A. ANOLIN ENTERPRISES                                    0502
A0101407430503373415001ARNEL CUENTO JUSAY                                       0501
A0101411790518055764011ALAIR, ROMELYN APIL                                      0501
A0101411790518055764013ALEGRE, ROCKY THOMPSON BALAORO                           0501
A0101411790518055764015ALOJADO, ERLINDA CABUGAO                                 0501
A0101411790518055764026ANTONIO, MARY CARGIE RUBIO                               0501
A0101411790518055764027ANTONIO, RENATO SALVADOR                                 0501
A0101411790518055764033ARLEGUI, ZILLAH GERMINO                                  0501
A0101411790518055764036ASPERAS, FATIMA TANDOC                                   0501
A0101411790518055764038AVILA, JULIE-ANN VILLANUEVA                              0501
A0101411790518055764039BACANI, MARK ANTHONY SABORDO                             0501
A0101411790518055764042BALBON, JUAN CARLOS OLBES                                0501
A0101411790518055764043BALBUENA, FRANK ANTHONY SALEM                            0501
A0101411790518055764050BARTE, ANJELICA SORIA                                    0501
A0101411790518055764057BERNABE, ARIANE JELLIE OSANO                             0501
A0101411790518055764066BORLONGAN, FITZGERALD RODRIGUEZ                          0501
A0101411790518055764068BULALAQUE, LEI EUGENIO                                   0501
A0101411790518055764083CARSULA, JOY VERGEL VELOSO                               0501
A0101411790518055764084CASIPE, ANNABE AYALIN                                    0501
A0101411790518055764089CERILLO, PAUL ALBURO                                     0501
A0101411790518055764090CHALLOY, MICHELLE LAYABAN                                0501
A0101411790518055764108DANDOY, IRISH GUEVARA                                    0501
A0101411790518055764124DIMACULANGAN, LYRA CYRINE LUNA                           0501
A0101411790518055764133ENANO, CHATTY LOU HIZON                                  0501
A0101411790518055764135ESPADA, ADABELLE ANDAYA                                  0501
A0101411790518055764137ESTRADA, MARK TWAIN MENDOZA                              0501
A0101411790518055764140FELIX, HERSHEY                                           0501
A0101411790518055764142FERRER, JUAN FLORENCIO CALUZA                            0501
A0101411790518055764151GADOR, CONOR VESTIL                                      0501
A0101411790518055764153GALANG, JOBERT ARDALES                                   0501
A0101411790518055764156GERONIMO, NICCOLO CALUYA                                 0501
A0101411790518055764158LIM, MARIE-JADE GO                                       0501
A0101411790518055764162GONZALES, MELANIE CONCHE                                 0501
A0101411790518055764164GREFALDEO, EVERLY GODOY                                  0501
A0101411790518055764184JUMAO-AS, RHODIE RAYMOND DESPI                           0501
A0101411790518055764191LAWYER, CHRISTIAN APOLLO URQUIA                          0501
A0101411790518055764192LAYGO, LARA LESLIE MANGUIAT                              0501
A0101411790518055815005LIWANAG, EMMANUEL MESIAS                                 0501
A0101411790518055815008LOPEZ, MICHELLE ROSE RAMOS                               0501
A0101411790518055815023MAGANO, MA. NOELYN MIRANDA                               0501
A0101411790518055815024MAGAT, MARIECAR MENESES                                  0501
A0101411790518055815026MALLARI, MARVIN BUDOMO                                   0501
A0101411790518055815027MANABAT, ELAINE BUNDALIAN                                0501
A0101411790518055815036MARINO, MARIA LORELIE RODELAS                            0501
A0101411790518055815041MAYUGA, AARON LORENZ PIMENTEL                            0501
A0101411790518055815058NICOLAS, FREIDAH PAULENNE TAALA                          0501
A0101411790518055815067OSUNA, FRANCESCA YVONNA MANALO                           0501
A0101411790518055815070PACOT, MAYLODY PIE                                       0501
A0101411790518055815073PAMBID, MINETTE VELASCO                                  0501
A0101411790518055815081PEREZ, MARY GRACE BACLAGAN                               0501
A0101411790518055815089PUZON, JOY DULVA                                         0501
A0101411790518055815095RAMOS, MARITESS SANTIAGO                                 0501
A0101411790518055815106RIANO, KRISTEL LILY RAMIREZ                              0501
A0101411790518055815111ROCA, UZZIAH NITRO PEGGY                                 0501
A0101411790518055815113RODIS, OSCAR PESTANO                                     0501
A0101411790518055815128SANTOS, JONISON SOTERO                                   0501
A0101411790518055815130SATURNINO, MARINELA SANTOS                               0501
A0101411790518055815142SUMALAPAO, BRYANT AGUIRRE                                0501
A0101411790518055815152TANINGCO, DAHLIA PICSON                                  0501
A0101411790518055815153TIONGSON, ENRICHAMEL YANGA                               0501
A0101411790518055815171VALIAO, MA. FLORDELIZA CABRIGAS                          0501
A0101411790518055815174VASQUEZ, JEANETTE EVE GALVEZ                             0501
A0101411790518055815178VELASCO, MARJORIE CARRASCO                               0501
A0101411790518055815181VILLAFRANCA, SHALIMAR CAMLIAN                            0501
A0101411790518055815188VIZCAYNO, DANIELITO CARCIDO                              0501
A0101411790518055815190WONG, SYRIL ERNAN YGPUARA                                0501
A0101404000551377329001MONTENEGRO, ROSALIE ROTH                                 0502
A2201400250561254811001BABY GRACE G. PALMA                                      0502
A2201400250561395433001JOSE M. SALTING JR.                                      0502
A0101409920650478374015FRANCISCO, LUZ LEDESMA                                   0501
A0101407560686378269001AGNES T. MILLARE                                         0503
A0101408240711388003001SAYAROT, ANNE KATHLEEN ENDAYA                            0501
A0101408240711510985001DELA CRUZ, RODERICK CRUZ                                 0501
A0101408240711561358001DEL MUNDO, KAREN MAGLINES                                0502
A0101408240711571673001BAYER, MYLA ATIENZA                                      0502
A0101408240711571673001BAYER, MYLA ATIENZA                                      0502
A4101400260812566629001JESSICA G. ROSARIO                                       0501
A4101400420814478374043ESPINO, GEMMA D.                                         0501
A4101400420814520766110DELA CRUZ, ARMINDA E.                                    0501
A4101400420814520766114BAYER, LOWELYN C.                                        0501
A0101404840851046725013MARY JANE A. DE GUIA                                     0501
A0101404840851217637017AMELIA L. FLORDELIS                                      0502
A0101404840851217637038MA.CORAZON M. MENDOZA                                    0502
A0101404840851421456001MARCELO, MERIAM ACAIN                                    0502
A0101404840851522784001BROZAS, MERCEDES MISION                                  0501
A0101406750852787916002TAN, LUZBELLA FORTICH                                    0502
A0101405070861478374074STA. ANA PURISIMA                                        0502
A0101405070861478374086MARLYN C. GABEST                                         0502
A0101411080000000805856SORIANO, MARGARETTE ANNE P OR                           10502
A0101400730000000833465DANILO L. CATAM OR                                      10502
A0101403320000001803189KHONG HUN, ARMANDO OR KHONG HUN                         10503
A0101409920000001951880MEMBERS OF NATASHA (SHOECAT INC                         10502
A0101400150061396548001ALIMURUNG, BENJAMIN N. OR                               10502
A0101401090171409077003RAUL CRUZ JR. & JOSE PEDRO                              10503
A3101400740224056192001YQUIN, EVELYN DBU EXCLUZ0                               10501
A0101401670271228042001TINIO, JUAN ANGEL LIGON                                 10501
A0101406620273418262001NELLY CLETO OR ALFREDO MARIANO                          10501
A0201400760374625336002REYES, BAYANI CARLOS OR REYES,                          10501
A0101402930381419788001ALMARITA JIMENEZ OR                                     10501
A0101408370382205140001DR. PAULA  A. ALONZO OR                                 10502
A0101408370382341971001DR. ARNOLD OZAETA OR                                    10502
A0101408370382397942001DR. JULIETA S. MAHUSAY OR                               10505
A0101408370382485515003MARGUERITHA LOUISE ARAMBULO OR                          10503
A0101406330472768288001SABARRE, NERISSA GALIT AND                              10501
A1901400160491244619001ALEJANDRO F UY OR                                       10502
A0101411790518055764159GOLVEO, SHERLYNN MARIE CAROLINA                         10501
A0101411790518055764178JALECO, RIA VERONICA SAN                                10501
A0101411790518055815149TAMONDONG III, RIZALINO                                 10501
A2201400250561478374006ANGELINA P. QUIBALLO                                    10501
A0101407720602298846008LAMBERTO U. OCAMPO OR                                   10501
A0101407720602455271001SARROSA, DONNA MARIE LEELIN OR                          10502
A0101407560686366970003CRUZ, RICHELLE OR BRIAN ULEP OR                         10502
A0101404840851463516002ARCIAGA, FRANCISCO OR                                   10520
A0101404840851710251001MALAIKA, ABDULAZIZ OR GONZALES,                         10501
A0101406750852078501001TAKEDA, RACQUEL G. OR                                   10501
A0101411080000000805856SORIANO, MARJORI                                        20500
A0101400730000000833465LORD KRISTINE V.                                        20500
A0101403320000001803189MARY KATHLYN                                            20500
A0101409920000001951880DEJUCOS, PURITA                                         20500
A0101400150061396548001ALIMURUNG, ALICE                                        20500
A0101401090171409077003CABRERA                                                 20500
A3101400740224056192001GENERAL MERCHANDISE                                     20500
A0101401670271228042001OR TINIO, MARIA CELESTE                                 20500
A0101406620273418262001OR NAIDA MARIANO                                        20500
A0201400760374625336002VIRGINIA ALMEDA                                         20500
A0101402930381419788001MA. REGINA COELI JIMENEZ                                20500
A0101408370382205140001DR. DANIEL M. ALONZO                                    20500
A0101408370382341971001MA. RAMONA OZAETA                                       20500
A0101408370382397942001DR. TEODORO S. MAHUSAY                                  20500
A0101408370382485515003VICTOR MICHAEL LUCENA                                   20500
A0101406330472768288001PUYOT, MARILYN BERMUDEZ                                 20500
A1901400160491244619001APOLONIA AGNEY B UY                                     20500
A0101411790518055764159TALBAN                                                  20500
A0101411790518055764178ESTEBAN                                                 20500
A0101411790518055815149VALDEROZA                                               20500
A2201400250561478374006MEMBERS OF NATASHA                                      20500
A0101407720602298846008ANNABELLE SARMIENTO                                     20500
A0101407720602455271001SARROSA, EDWARD                                         20500
A0101407560686366970003NEIL GARRET ULEP                                        20500
A0101404840851463516002ARCIAGA, GERALDINE                                      20500
A0101404840851710251001KARIMA                                                  20500
A0101406750852078501001JULAO, FLORENCE                                         20500
B0101412890000000006919VAMECA FOODS INCORPORATED                                1603
B0101406330000000162672MSA LORRY HAULING SERVICES CORP.                         1602
B0101413860000001767826SAFEWAY WAREHOUSING, INC.                                1602
B0101401700041046197001SERVERIGHT MANPOWER SERVICES                             1601
B0101407270162037605001MAINE CITY PROPERTY HOLDING CORP.                        1610
B0101407270162046726001VALUE CARE HEALTH SYSTEMS, INC.                          1650
B0101407270162046726001VALUE CARE HEALTH SYSTEMS, INC.                          1650
B1901400290261049824001BONLOU, INC.                                             1610
B0101400570281007186002SUKYO MAHIKARI PHILIPPINES, INC.                         1603
B0101402480331010335001PUREFEEDS CORPORATION                                    1610
B0101402480331048036001************                                             1603
B0101402930381008829002AXEIA DEVELOPMENT CORP.                                  1615
B0101408400394032168001ALQUIROS FOOD CORPORATION                                1605
B2401400180411056150001GENSAN TBB & SONS MARKETING, INC.                        1602
B0101403320471030317001UPLIFT PHILIPPINES INC.                                  1605
B0101403320471035191001ST. GABRIEL CREDIT COOPERATIVE                           1601
B0101408530516035673001FERROTECH STEEL CORPORATION                              1608
B0101404260611028187002AMERICAN PRIME MANPOWER SERVICES, INC.                   1602
B0101404260611030903001ASIAN INSTITUTE OF COMPUTER STUDIES                      1605
B4101400260812012643001KUM KANG CERAMIC PHILS. CO., INC.                        1606
B4101400420814037047001GRJ JARO PAWNSHOP CORP.                                  1602
B4101400420814037048001RA JARO PAWNSHOP                                         1602
B4101400420814497546001**********                                               1601
B0301400950000002115202GUEVARRA, GEMMA D. OR                                   11601
B0101401670271017305001HONGKONG HARDWARE SUPPLIER,                             11601
B0101403320471019960002DIRECT ELECTRIX EQUIPMENT                               11605
B0301400950000002115202GUEVARRA, ARTURO                                        21600
B0101401670271017305001INC.                                                    21600
B0101403320471019960002CORPORATION                                             21600
B0101405940512821100608**********                                               2020
