B0101412050519821100608**********                                               2010
B0101400150061018835001STRONGHOLD INSURANCE CO., INC                            1610
A0101412210000010256652DEL ROSARIO, EMY LOU DECOY                               0501
A0101406460272459759001CHUA, JULIETA CANTOS                                     0501
A2001400290000004905373EMMANUEL, JORGE AGUSTIN OROZCO                           0501
A2001400290000010684336CHUA, JEOREX POBLACION OR CHUA,                         10501
A2001400290000010684336MELANIE ROSE GAR                                        20500
A0101402060351217440025ARLENE F. MANGURAY                                       0501
A0101402060000000358612PACIFICO ERIC E. CALDERON MD                             0502
B0101412890000007906092PAPAJEK FOOD CORPORATION                                 1602
A0101407720000002693138JADE A. PRESBITERO OR                                   10501
A0101407720000002693138CECILIA B. PRESBITERO                                   20500
A0101407720602397126001PASTORES, JOHN VINCENT GOCO                              0505
A0101400860011548447001**********                                               0502
A0101400860011612510001**********                                               0502
A0101400150000002902683LUNA, JOSEFINA CABRAL                                    0501
A0101400150061227251001CRISTINA V. HENSON                                       0502
A0101400150061337099127CARMENCITA L. TAN                                        0501
B0101400600071232728001**********                                               1601
B0101400600071233610002**********                                               1630
B0601400360000003186714BSD TRADE SERVICES CORP.                                 1603
A0101410560000009034833ANNELYN M QUIZA                                          0502
A0101400730111334903018ROMEO VELASQUEZ                                          0501
B0101406040000000096633*********                                                1602
A0101412630000000801381ROMARAOG, ALENE GARING                                   0501
B0101413310000006144754GEMRICHS FOODS CORP.                                     1605
A0101401830000001139953ROSEMARIE S. NOJADERA OR                                10501
A0101401830000001139953ISAGANI M. NOJADERA                                     20500
A0101401830141392466002SANTOS, ROBERTO VERSUELA                                 0501
A0101401830141546547001REATAZA, NELIA MORABE                                    0503
A0101407270000009066899DE OCAMPO, MARIA ROSELA HIPOLIT                          0502
A0101407270162333154043SANGUYO, KATRINA VELASQUEZ                               0501
A0101407270162455615001MARIO LARRY G. ALBA                                      0501
B0101401090000012629960UST MEDICINE CLASS 1972 INC.                             1601
A0101401090000000993353VELASCO, ZENAIDA FAINSAN                                 0501
A0301400530000000066124LICAYAN, PRINCE LLOYD M. OR                             10502
A0301400530000000066124LICAYAN, ZENAIDA                                        20500
A0301400660000003406000*******                                                  0502
B0301400660194045813088SUMMIT WORLD DAVAO, INC.                                 1602
B0301400660000002348541ERVY LOGISTICS                                           1602
A0301400660000006862606**********                                               0502
A0301400950000006080359REYSON, JOHN KIM D. OR                                  10503
A0301400950000006080359ABALLE, MEL CHIT                                        20500
A0301400950000002115231**********                                               0501
A0101401380000001820002********                                                 0506
A0101413020000000038286RAY C. CASTRO, M.D.                                      0501
A0101413020000000038297RICA C. CASTRO, M.D.                                     0501
B0101413020000000038388ASISI SYSTEM CORP.                                       1603
B0101410720210024872001THE CITADEL CHURCH                                       1602
A0101412500000012489215BAGOS, JUN JUN BOY CASTILLO                              0501
A0101412500000012612656DIMASANGAL JR., JESUS BERNAL                             0501
A3101400160221757524001ANOYO, RENELYN TERRENAL                                  0501
A3101400450223056521002SAMIANO DENTAL CORP DBU THE                             10501
A3101400450223056521002NAME AND STYLE OF SMILE                                 20500
B3101400450223415324001*****                                                    1601
A3101400870000000074844ROA, ROSEMARIE JUNDOS OR ROA,                           10502
A3101400870000000074844JAMES ROQUE GARC                                        20500
A3101400870000003849838RAMOS, MIZPAH MEDIAVILLA                                 0501
A3101400870000001712174PASCUA, LUZVIMINDA BATARA                                0502
A1001400190000002266628ABEJUELA, RAMON JAVIER                                   0502
A1001400190231520766128MAGLANGIT, JONIE QUIACAO                                 0501
A1001400190000008743886BARRON, LORNA ROA                                        0502
B1001400350233013980001VIC IMPERIAL APPLIANCE CORP.                             1603
B1001400350000000244380ECO WORKERS UNLIMITED CORP.                              1603
A1001400480000005355897CREDO-MALALIS, RONAH LYN DENAMA                          0501
A1001400480000006270340DAING, DAISY SALVANA                                     0502
A1301400470000005394470MA. ELENA G. CASIO                                       0502
A1301400760000012626750JAYSON C. CHICO AND JILLIAN                             10501
A1301400760000012626750KARREN D. CHICO                                         20500
A1901400290000012625575JOHN ARRAD ALMENDRAS CASTOR                              0501
A0101401670000002341646TAN, HINES HENRICSON TAO                                 0501
A0101401670271194340003GO, ANNE CATHERINE SILAYAN                               0502
A0101401670271452929168***********                                              0501
A0101406620000009018684PODADOR, APRIL CLAIRE CHAGAS                             0501
B0101406620273022260001CROWN SYNERGY TRADING CORP.                              1608
B0101406620000000962465TOP TIER INNOVATION ENTERPRISES                          1604
A0101406620273315888001LAUREL, JOANNA OR LAUREL, CARLA                         10501
A0101406620273315888001LAUREL, CARLOS P                                        20500
A0101406620273430028001WANG, MARGARET                                           0501
A0101406620273495068001DANILO B. ESCARLAN                                       0503
A0101406620273498379001JOHN LABSKY P. MAXIMO                                    0501
A0101408660000006296702MARCAIDA, JED NIDERA                                     0504
A0501400200000001081065DELOS REYES JR., PEDRO BULOSAN                           0503
A2601400270000000561693ROMARICK G. TABUCOL                                      0501
A0801400160000006272886GUERZON, CHRISTOPHER DELLA                               0501
B0801400160311414617001ANOCHE ASSOCIATES INTERNATIONAL, INC.                    1610
B2001400290315044204001ACEBANK CREDIT, INC.                                     1601
A34014002800000001566212ELA CRUZ, LOIDA GARCIA                                  0502
A3401400280000006791199BERCADES, ARIEL CORTEL                                   0505
B0101405650322024999001SUPERIOR MAINTENANCE SERVICES, INC.                      1620
B0101405650322033676001BF CITIFARM CORPORATION                                  1601
B0101402510341027854001*****                                                    1602
B0101402060000000022755HEALTHY INTAKES FOOD & BEVERAGE CORP.                    1601
A0101409050000002333233TABONES, WILFREDO NICANDRO                               0502
A0201400760000002047212BARBON, RUTH OLIVAR                                      0501
B0201400760374032939001GATEWAY MOTORS (CEBU), INC.                              1603
B0201400760374033207001W.T. CONSTRUCTION, INC.                                  1606
A0201400920000000048075JALKCAA SWIMMING POOL-SPA                               10502
A0201400920000000048075BUILDERS SERVICE                                        20500
A0201400890000000027892FORTRESS ELECTRICAL SUPPLY                               0501
A0201400890000002270297ARRIESGADO, JOCELYN ROSAS                                0502
A0201400890000008415690BONCAVIL, EDBERGT RYAN GIBRAN M                          0501
B0101402930381023938001SNOW MOUNTAIN DAIRY CORPORATION                          1603
A0101402930381341460001SUI SIONG T. CANDELARIA OR                              10502
A0101402930381341460001CHRISTINE S. CANDELARIA                                 20500
A0101402930381505507001TRINOS, ROCHELLE VERANO OR                              10504
A0101402930381505507001AVILES JR., ISAG                                        20500
A0101408370382431146001DR. ETHEL L. MENDOZA                                     0501
A0101411660000011791036MERCEDES DELA VINA                                       0501
A0101415350000011336724DIDEL, LOTLOT SORONGON                                   0501
A0101405490000010702120MAGALLANES, JUAN PAOLO MABANTA                           0506
A0101408400000009875030RICANA, I DBU IPR FASHION BOUTI                          0502
A0101408400000001614751ANGLON, JIMMY LANGURAYAN                                 0501
B0101409180397042779002***                                                      1605
A0101409210000004736016DOLDE, DAVID                                             0501
B0101409210000000031170DDB PHILIPPINES, INC.                                    1601
A0101412210399094817011ISHIHARA, KOICHI                                         0501
A5501400120000005492220ROCKWELL, SHARON SILVA                                   0501
A2401400180000003949140UY, RUBING SIOCO                                         0502
A1201400150421464835001*****                                                    0502
A0101403030441433845001**********                                               0501
A0101412890000011813062DE AUSTRIA, EDISON PARINGIT                              0503
A0101406330000009181506ESF ENTERPRISES                                          0501
A0501400170481252588001ESTRELLITO MAGLIBA OR                                   10502
A0501400170481252588001ERLINDA MAGLIBA                                         20500
A1901400160000012576933BAHALA, MARIO ALMARIO                                    0501
A1901400160491279781001GONZALES, THELMA BEJASA                                  0501
A1401400110000012489282JENSEN, PETER                                            0501
A1601400170000000497525HAZEL E. GAVERIA                                         0501
B1601400170000000497121LEGASPI HOPE CHRISTIAN SCHOOL, INC.                      1605
B0101403580511005203001CORPORATE BUSINESS CENTRE CORP.                          1604
B0101403580000004540561GALALA DEVELOPMENT CORP                                  1601
B0101403580511512181001KNOWLEDGE CITY HOLDINGS AND DEVELOPMENT                  1601
B0101405940512005319001MANTRADE DEVELOPMENT CORP.                               1603
B0101405940512038984001ST. JOSEPH ACCOUNTING SERVICES                           1601
A0101405940512558822002**********                                               0501
B0101405940512672346001COAX5748 INC.                                            1601
B0101408530516037477002VXI GLOBAL HOLDINGS B.V.                                 1610
B0101403450521025329002RELIANCE MULTI-IND'L & MKTG. CORPOR                      1601
A0101403450521242339001ONG, ROBIN                                               0503
A0101403450521356732001**********                                               0501
A0101403610000001174812ONG, WILSON SO                                           0502
A0101403610531462190001CAPUNO, PAULINE BERROYA                                  0502
A0101404130601576874001CAYTON, GILBERT SANTOS                                   0501
B0101407720602044376001MAKATI FINANCE CORPORATION                               1610
A0101407720602396506002DR. ESTELA Z. CABRERA                                    0501
A0101404260611005236001WILTRON ELECTRONICS                                      0502
A0101404260611153647002CHING, JOSE DY                                          10502
A0101404260611153647002OR ONG, EMILY CH                                        20500
A0101404260611478374115FE S. BONDOC                                             0502
B0101409890649004894001JISMAR EQUIPMENT TRADING & SERVICES                      1601
B0101409920000009981851NORTHERNLAND REALTY COMPANY                              1603
A0101409920000001951982MEMBERS OF NATASHA (SHOECAT INC                         10501
A0101409920000001951982TORRELIZA, GINA                                         20500
A0101413440000010659248BARONA, LEILA SOCORRO HEDRIANA                           0503
A0101413570000012466945BARBARA ANN MECUA                                        0504
A0101413990000000206033MARITES R. CONANAN                                       0502
A0101410300000000919455*****                                                    0501
A1301400210682539533001ROBERTO L TUGADE OR                                     10503
A1301400210682539533001MARA B TUGADE                                           20500
B1301400340683023491001EMPRESS CHEMICAL INDUSTRIES, INC.                        1602
B1301400340683353482001MARLENE R. JOSE OR JOSE MARI R. JOSE                     1602
A1301400340683354466002LEGASPI, CRISTINA D. OR ZAMORA,                         10505
A1301400340683354466002MARY CATHERINE                                          20500
A2801400100000006279792VEDAJA, SANDY MIRAVALLES OR                             10502
A2801400100000006279792ONG, WILLIAM OCA                                        20500
B2801400100000007629265ALPHA SBFZ ZAMBALES BUILDERS INC. D                      1601
A4101400260000000048731RABADAN, FE TAER                                         0501
B4101400260000001199004EXPLODING YUMMIES INC.                                   1601
B4101400260000001198990ENSAIMADA MAMON INC.                                     1601
A4101400420000004847872MIJARES, CELESTE AGUIRRE DBU                            10501
A4101400420000004847872REYCOR TRADING                                          20500
A4101400420814478374102MALIBIRAN, MARLYN M.                                     0502
A4101400550000006044628BALDERAMA, CARMELITA DAGALE                              0501
A4101400550000010508602M.A. NACIONAL BUILDERS                                   0502
A0101412340000003349535MARIFE TRINIDAD T. VERMUDO                               0501
A0101412340000010659959MEMBERS OF NATASHA SHOECAT INC                          10501
A0101412340000010659959ROLDAN, REYMERLENE G.                                   20500
A0101404840851530598001VILLAMIN, KRISTINE AGUIRRE                               0502
A0101405070861478374066ELMER LADRES APAS                                        0501
A0601400230000000990052DAYAO, MARIBEL MASIBAC                                   0501
