A0201400890000000027892FORTRESS ELECTRICAL SUPPLY                               0501
A0101411950000000036308************                                             0502
A0101408240000000039796RARE MEAT SHOP                                           0505
A0101412340000000044802******                                                   0501
A1301400500000000213210RBN ENGINEERING & DEVELOPMENT                            0502
A0101404420000000472199*****                                                    0501
A1301400470000000472640SHERRY ANN SEVILLA RODRIGUEZ                             0501
A0101406880000000745033NATIVIDAD, HELEN BAYONA                                  0502
A0101400150000000808071SAGAL, ALBINO MEDALLA                                    0501
A0101411240000001026851MARQUEZ, YOLLY MONTESA                                   0501
A0801400160000001031332AMIL, WAHAB AHMAD                                        0501
A2201400250000001066006BERLYN T. COSTALES                                       0501
A2201400250000001066006BERLYN T. COSTALES                                       0504
A0301400820000001185780RUFEROS, ROY KENNETH D.                                  0501
A0101409210000001294606LIU, XIANGCHAO                                           0502
A0101411820000001356474GENALYN ELE ASUNCION                                     0502
A0101411820000001356612JENNIFER I. TANAP                                        0502
A0101402640000001536625SIA, VIVIAN VILLANUEVA                                   0501
A0101409920000001539471DANAO, MARIA MILA ALVARADO                               0501
A0601400100000002099294HUI, PO FUNG NONE                                        0505
A0601400230000002310252VALENCIA, VICTOR R.                                      0502
A0101405650000002325515TAN, FERNANDO MARTIN DE GUZMAN                           0501
A0101407720000002727819CHUA, ARLIE MARTIREZ                                     0501
A0101401700041478374017VILMA ZOLETA MAGYAYA                                     0501
A0101400150061227496001JOSE A. LANDAYAN                                         0503
A0101400730111432322002TOLECO, RICO                                             0501
A0101400730111478374017VEBELITA G. GALLETO                                      0502
A0101400440161027568001GARB CLOTHING COLLECTION                                 0503
A0101400440161358347001MA. ELSA T. APOSTOL                                      0501
A0101400440161478374021DOROTHY D. SANICO                                        0501
A0101400440161525001159MARITES P. MONTALBAN                                     0502
A0101401090171416998001CABRERA, JOSE PEDRO GAGUI                                0503
A0101401090171417083001ABIGAIL T. PAGALILAUAN                                   0501
A0101407140213408994002**********                                               0502
A0101401670271188831002REGINALDO C. LIM                                         0501
A0101406620273519473001SALUCERAN, MARISOL ENGALAN                               0501
A0801400160311478374034ROSEMARIE R. TUBIANO                                     0501
A0801400160311478374079MANUEL F. RAGANAS JR.                                    0501
A0101402510341380534001RUBEN D. GAMBOA                                          0501
A0101402060351040443001Q-TECH TESTING LABORATORY                                0502
A0101402060351086918001BENITO, EMMANUEL DETERA                                  0502
A0101402060351380733002UY, ANNA LISSA GAW                                       0501
A0101402060351444611001BONDOC, NARCISA NAVARRO                                  0502
A0101402770391526213002*********                                                0501
A0101403030441344484001**********                                               0504
A0101406330472428084001DARWIN JEBB YLO OR MARILEN YLO                           0502
A0501400170481319119001XXXXX                                                    0501
A0101405940512481887001LEONILA P. ANDAL                                         0501
A0101406880513281942004SUAREZ, HERNANDO CAMACHO                                 0503
A0101406880513666065001VILLARMINO, JOSELITO VILLANUEVA                          0503
A0101403450521073740001TANDAAN, LEO PANTE                                       0501
A0101403450521239350001**********                                               0506
A0101403450521397310001**********                                               0502
A0101403450521567563001********                                                 0502
A2201400250561028327002******                                                   0502
A0101407720602351011001CARMELITA A. YANGA                                       0501
A0101407720602516697001SOLER, NATIVIDAD DELOS SANTOS                            0501
A0101404680651788265001LOPEZ, AMELITA ABENOJAR                                  0502
A0101406590662761059001BALDEO, MONICA REXANNE BAUTISTA                          0501
A1301400340683356585002ORBE, ALICIA JUSON                                       0502
A4101400420814429171001RAMAS, MILAGROS OGSILA                                   0502
A4101400420814478374009FELOMINA PERICO                                          0501
A4101400420814572265006JOCELYN M. TWANO                                         0501
A0101412340850084786001MIRACLE GRACE S. DUMIP-IG                                0501
A0101404840851046725019LETICIA QUINANOLA                                        0502
A0101404840851520766073ELIZABETH A. SUAZO                                       0501
A0101406750852081045001RAGAT, GERALDINE DULDULAO                                0502
A0101406750852095591001DELA VEGA, MARIA ANNIE HIPE                              0501
A0101406750852704935001VILLAREAL, JULIET DE GUZMAN                              0501
A0101412340000000031136VILLACORTE, BIENVENIDO L. OR                            10501
A0101411240000001563457UY, CASSIDY YU DBU DRAGON                               10501
A0101413440000002339539HERNANDEZ JR., RICARDO B. OR                            10501
A0101406590000003006953DE LARA, RHANE VINCE DBU                                10502
A0101401700041352928001JESUSITO O. TUMACAS OR                                  10505
A0101400150061335760001DIANE GRACE SUBIDO OR                                   10501
A0101401090171197840001DRS. PHILOMENA GABRIEL-LOPEZ                            10502
A0101402060351009359003JIANDANI, SURESH G. OR                                  10501
A0101402060351020934001WINSTAR CALIBRATION CENTER &                            10505
A0101402060351316025001MAUN, PABLO CANLAS OR                                   10503
A0101406330472377465001JESUS S. DELA CRUZ JR. OR                               10505
A1301400340683588590001MARY JOY B. GO OR                                       10502
A0101412340000000031136VILLACORTE, ADELINA C.                                  20500
A0101411240000001563457INTERNATIONAL TRADING                                   20500
A0101413440000002339539HERNANDEZ, CATHERINE                                    20500
A0101406590000003006953RHANE'S SIOMAI CORNER                                   20500
A0101401700041352928001AVELINA A. TUMAC                                        20500
A0101400150061335760001JONAS SUBIDO                                            20500
A0101401090171197840001OR ROLANDO LOPEZ                                        20500
A0101402060351009359003JIANDANI KAVITA                                         20500
A0101402060351020934001PARTS                                                   20500
A0101402060351316025001MAUN, CYNTHIA                                           20500
A0101406330472377465001MARY JANE DELA CRUZ                                     20500
A1301400340683588590001LESTER C. GO                                            20500
B3101400740000000013914BETA NANOCOATING PHILIPPINES INC.                        1601
B0101409210000000031238******                                                   1615
B4101400260000000048913CRUZ, DBU HEATSENSOR ENG AND TRDG                        1602
B0101403320000000522325L.B.T AND SONS CO., INC                                  1601
B0101412050000000890973MCQUEEN AND TOW MATER, INC.                              1601
B0101412470000000949566POSTMANILA, INC.                                         1610
B0101411400000001280502PHIL. TRAVEL A LA CARTE INC.                             1601
B0101400150000001708389GOODRICH VENTURES, INC.                                  1601
B0101413310000001928889JPE SECURITY AGENCY                                      1601
B0101407140000002670926GLITTRA TRADING INTERNATIONAL, INC.                      1602
B0101400150061010833001VELCA TRAVEL & TOURS, INC.                               1601
B0101400150061011066001FOOD SOURCE, INC.                                        1605
B0101400150061039643001J.M.PIZARRAS AND ASSOCIATES LAW OFFICE                   1605
B0101400150061227726001UNION ADVERTISING                                        1604
B0101400150061494758001MACOLYTES INC.                                           1605
B0101406620273460663001PREMIUMSOLE INTERNATIONAL CORPORATION                    1604
B0801400160311014846001CITI APPLIANCE CORPORATION                               1612
B3401400280318047186001CONTRERAS, MICHAEL DBU MILCON BLDRS                      1602
B0101405650322018681008LANDCO PACIFIC CORPORATION                               1602
B0101408820333034334001PINTAKASI TRANSPORT INC.                                 1602
B0101408790383694411001SEAOIL FOUNDATION INC.                                   1605
B2401400180411038988088AIMICAN CORPORATION                                      1601
B0101406330472012365002VERMONT SQUARE TOWNHOMES COND. CORP                      1601
B0101406330472017558002**********                                               1601
B0501400170481023049001SAMAHANG BANGKO RURAL NG PANGASINAN                      1601
B1901400160491347054001EMMA MACATANGAY AND MARIO MACATANGAY                     1602
B0101403450521011675001TORQUE BUILDERS, INC.                                    1604
B4101400260812012893001VV PROPERTY HOLDINGS CORPORATION                         1602
B1901400160000000007478BAYAN ENTERPRISE DEVELOPERS, GROWERS AND                11610
B0101408790000000599880HANSTON COMMERCIAL AND INDUSTRIAL                       11602
B0601400360083037368002CLARK INVESTORS AND LOCATORS ASSOCIATION                11603
B0101401670271486391001EXCELLENT GOLFING PARTNERS                              11603
B0101406620273026526001LAW FIRM OF KALAW SY VIDA SELVA &                       11601
B0101402060351386715002REGINA OR CRISTINA C. CRUZ OR CONCEPCION                11601
B0101406590662027606001XANLAND PLACE CONDOMINIUM                               11605
B1901400160000000007478EVOLVERS, INC.                                          21600
B0101408790000000599880CORPORATION                                             21600
B0601400360083037368002(CILA)                                                  21600
B0101401670271486391001CORPORATION                                             21600
B0101406620273026526001CAMPOS                                                  21600
B0101402060351386715002C. VESAGAS                                              21600
B0101406590662027606001CORPORATION                                             21600
B0101407140213821100608**********                                               2005
B1001400350233821100608**********                                               2005
