B0301400240401821100608**********                                               2030
B0101402930381821100608**********                                               2010
B0301400660194821100608**********                                               2010
A0101400440161478374051LILIA S. FELICES                                         0502
A0101400440161525001040DOLORES A. DE GUZMAN                                     0501
A0101400440161525001174RIZALYN V. GUNTANG                                       0505
A1101400120000002254946MEJICA, SORIEL BARDIAGO                                  0502
B4101400420814034973001JOVEN TIRE ENTERPRISE                                    1602
A4101400420814478374162RODORA A. CAUSAREN                                       0501
A4101400420814520766135MOTILLA, ROSELLE                                         0501
A4101400420000004847918VIDAL, TRAZY ALMERIA                                     0501
B0101410850000001229794TRANSLOGISTICA INTERNATIONAL                            11602
B0101410850000001229794FREIGHT INC.                                            21600
B0101410850000003503751ONE OPTI MARKETING, INC.                                 1605
A0101410850000003503551DUQUEZ, PRUDENCIO MALDA                                  0502
A0101400440000000060200LANIE C. BALISONG                                        0502
A0101400440000002035041MARIA GEVELA CARDINOZA                                   0501
A0101400440161478374018MA. DELIA P. FERMANTE                                    0501
A1101400120000003981237ORTEGA, RICKY GALVEZ DBU RCP                            10502
A1101400120000003981237ENTERPRISES                                             20500
A1101400120313478374103ENVERZO, NARISSA LEONORA G.                              0501
A0101405650000004822151FADUL, WENDELL AGBADA                                    0501
B0101414120000000399093*****                                                    1604
A0101414120000003584190EQUAL TRADE ENTERPRISES                                  0501
B0101400860000000030279**********                                               1604
A0101400860011233237001ANGELA JULIAN                                            0501
A0101400860011509252001**********                                               0505
A0101400860011533026001**********                                               0502
A0101401250000000057065VILLAS, ROGELIA L.                                       0501
A0101400150000006619407AMOIN, NICK HESPER MIRA                                  0501
A0101400150000006619543PINEDA, MARIA ELENA TARIMAN                              0501
A0101400150000006619594DULARZA, LIZELDA POSESANO                                0501
A0101400150000006619612MENDOZA, ENRICO LUBATON                                  0501
B0101400150061040628001ARPAPHIL SHIPPING CORPORATION                            1602
B0101400150000000633094KINETIC PHILS. ELECTRICAL CONSTRUCTION                  11602
B0101400150000000633094INC                                                     21600
B0101400150000001708414SAN CARLOS CLEAN ENERGY INC.                             1603
A0101400150061227793008***************                                          0501
A0101400150061231736002PUNO, CARMELITA DE MESA OR                              10501
A0101400150061231736002SANTIAGO, MA. SO                                        20500
A0101400150061327950002TORRIJOS, ABDULIA ESPIRITU                               0502
A0601400100000001442808BERNARDO, LILIAN VILLAPANA                               0503
A0601400100081023131001ADYR TRADING                                             0506
B0601400100081042835001FORTUNE HONGKONG SEAFOOD RESTAURANT                     11610
B0601400100081042835001(NEWSTREET)                                             21600
A0601400100081572327001PONCE, AILEEN OR ROBERTO JR.                             0502
A0101410850000000005712MACANAYA, AMELIA DBU NUMBERS                            10501
A0101410850000000005712AND LETTERS LEARNING CTR                                20500
A0101410850000000778827MABOLO ENTERPRISES                                       0503
A0101410560000003562149**********                                               0503
B0101400730111015420002FELANER REALTY DEVELOPMENT CORPORATION                   1606
A0101400730000000112676PEREZ, EDITHA ORTIZ                                      0501
A0101401960000000008040**********                                               0505
A0101412630000004062086BANZUELA, ELEANOR ADORNA                                 0502
B0101401830141056446001GADDI DBU GREENTEK ENVIRONMENTAL ENG.                   11601
B0101401830141056446001SERVICES JT                                             21600
B0101407270162041489001******                                                   1604
A0101401090171293965003VIVECA JANE OR CHARLIE                                  10502
A0101401090171293965003DEOCADIZ                                                20500
A0101401090000005320234KHO, SJOBERG A. OR KHO, JOSIE N                          0502
B0301400530193037457168SHIRLINA LU OR                                          11605
B0301400530193037457168WILLIAM LU                                              21600
B0301400660194046002088GARDEN BY THE BAY CORPORATION                            1603
A0101410720000000968061FRANCISCO, SALVACION QUINTIA                             0501
B0101410720653041869001MATSUBI TRADING                                          1602
B0101410720653043060001METRO DRY CLEAN VENTURES, INC.                           1603
A0101410720653478374050MYRA B. GERMANO                                          0501
A0101410720000002283985DIAZ, CELINA CRUZ                                        0501
A0101412500000002304810BOCAR, FE NIBAL                                          0501
A3101400160221383785001BIENVENIDO V. RIVERA JR. OR                             10501
A3101400160221383785001BELEN P. RIVERA                                         20500
A3001400130230762295195CABELA, BIENVENIDO DE JESUS                              0501
A1301400760000005379440MONALIZA B. BELGAR                                       0503
A0101401670271192058002SEGOVIA, CARMEN V.                                       0504
B0101406460000000712758HOMEMATCH CORPORATION                                    1605
A0101400570281191853002GREGORIO, JULIETA ORBISO                                 0501
A0101400570000002329706TAYAG JR., DANILO OCAMPO JT                             10501
A0101400570000002329706GALVEZ, MARIE FRANCE D                                  20500
B0101400570281628149001ORETA MEDICAL CLINIC, INC.                               1604
A2601400270000000019510GILBERT T. FAGEL OR                                     10501
A2601400270000000019510AILEEN A. FAGEL                                         20500
B0801400160311035991001HAPI ILOILO CORPORATION                                  1601
A0801400160311040177001TRI ADVERTISING                                          0502
A1101400120000003022333ENFECTANA, EMIL ROY DY                                   0501
A3401400280000000156643MELOURD L. BONILLA                                       0501
A0101402350321184494001ESTELLA, FLORANTE (DANTE)                                0501
A0101402350321382603001GONZALEZ, MARIE JACINTO                                  0501
A0101405650322171890001AQUINO, CARLOS P. OR CYNTHIA OR                         10501
A0101405650322171890001CHRISTIAN OR CAROLINE                                   20500
B0101409050000000258582BITUMEN GLOBAL ALLIANZ INC.                              1603
B0101409050000000258531HENDERSON BLAKE BUSINESS SOLUTIONS,                      1602
B0201400920375035929001UPLAND STOCK FEEDS, INC.                                 1602
A0201400890376080642001GALANG, LORLIE PACURIBOT OR                             10502
A0201400890376080642001GALANG, GLENN AN                                        20500
A0201401020377796477001MERCADO, RICHARD OR MERCADO,                            10503
A0201401020377796477001ERLINDA ET AL                                           20500
A0101402930381205667001SALVADOR B. FRANCO OR                                   10504
A0101402930381205667001JOCELYN J. YAMBAO                                       20500
A0101408370382206455001DR. RUBEN G. KASALA OR                                  10502
A0101408370382206455001DR. MA. CARMELA KASALA                                  20500
A0101408370382379254001DR. CESAR A. DE LEON                                     0501
A0101408370382488821001DR. ROSALYN C. SARMIENTO                                 0501
A0101408370382492341001LYDIA Y. MARCIANO OR                                    10503
A0101408370382492341001KRISTINE JOAN M. MARTINEZ                               20500
A0101411660000002309560RIVERA, VENUS TUMPALAN                                   0501
A0101408400000005286284DUCUSIN, RIZALDY LAGRANA                                 0501
A0101408400394311423002GUEVARA, NORMA RAYOS DEL SOL                             0501
A0101408400394478374057EVELYN M. BONGAT                                         0504
A0101408400394650593001PACALUNDO, ANSARY ALIPO                                  0501
A0101408950396563723001CELLONA, CLARISSA VILLARAMA                              0503
A0101409180000003882315PHOEBE BERNARDO                                          0501
A0101409180000005922647MA. TRINIDAD BUFI                                        0505
A5501400120000002949622SANDIG, EDGARDO REYES                                    0501
A55014001204106330820010APALES, MARILOU OR TAPALES,                            10501
A5501400120410633082001AMADO                                                   20500
A2401400180411275790003MALCAMPO, DIOSIE AGUIRRE                                 0501
A2401400180411478374020MORI, LYDIA                                              0501
A2401400180411478374040CHERRY S. VICTORIANO                                     0502
B0101403030441303324001**********                                               1602
B0101406330472020438001DAROMAR DEVELOPMENT CORP.                                1605
B0101406330472032269001MONTECRUZ ENTERPRISES, INC.                              1610
B0101406330472047554001SHAPESTUDIO DESIGNS, INC.                                1610
A0101406330000001235272VHANZ HARDWARE                                           0501
B0101406330000000432955ADELA LAND CORPORATION                                   1602
A0101406330000000683363EDUARDO LEGARIO                                          0501
A0101406330000001235410SHIELA LAPUENTE                                          0501
A1901400160491451956001ANDY C BINUYA OR                                        10502
A1901400160491451956001DYESEBEL D BINUYA                                       20500
A1901400160000000483783PAULA REA S. CASTOR                                      0501
A1401400110000003475643*******                                                  0502
A1401400110000003475741ZETA, JENNELYN LONTOC                                    0502
B0101407430503006865001AIRTROPOLIS CONSOLIDATORS PHILS. INC.                    1620
B0101408110000001199362MARIAN TRADING ENTERPRISES, INC.                         1602
A0101411790518055764284GREGORIO, AIMEE VANIA SOLIS                              0501
A0101403450521238140002**********                                               0502
A0101410690000003027603PANELO, REYLEE LOZADA                                    0501
A0101404130601354900001YBANEZ, JUDITH JANDA                                     0501
A0101407720602166869002CHAN, LUZ GARCIA                                         0502
A0101407720602382305001PARDINAN, ROSSANA O.                                     0501
A0101407720602397820001SIBAYAN, SANTIAGO ANTONIO B.                            10501
A0101407720602397820001OR SIBAYAN, SUSAN                                       20500
A0101407720602415232023ARLYN L. SONGCO                                          0502
A0101407720602697692001SANTOS, GENEVERE SERNA OR                               10501
A0101407720602697692001SANTOS, DANILO S                                        20500
A0101412180000000259501CABEBE JR., BER DBU B. CABEBE                           10506
A0101412180000000259501ENGINEERING AND CONSULTIN                               20500
A0101413570000003379908CABANIG, MYRA MELAYA                                     0502
A0101413570656057648282ANDREA DE GUZMAN                                         0501
A0101413990000000726512**********                                               0501
A0101413990000000726512GIZA A. CASTRO                                           0501
A0101406590662209239002CRUZ, ANNIE LOU OR EMANUEL OR                           10502
A0101406590662209239002ENRICO JOSE                                             20500
A0101410300000004361608REYES, MA CARMEN ALCUAZ                                  0501
A1301400210682394090002RICARDO CAMUA JR. OR                                    10502
A1301400210682394090002MIRAFLOR CAMUA                                          20500
B2601400140691821200608**********                                               2001
A0101408240711400412005MIRCHANDANI, MICHAEL OR SHERYL                          10501
A0101408240711400412005OR SHAM OR LALA                                         20500
A0101408240711559730001MAGSUCI, KARL BAUTISTA OR                               10502
A0101408240711559730001MAGSUCI, MONICA                                         20500
A4101400260000003680062HONDO, MARIBETH VILLAR                                   0501
A0101412340000004877352PAULO O. VALENZUELA                                      0501
A0101404840000003409794GILAY, ROMEO ANDOY                                       0501
A0101404840851298552056ROSARIO GABAYERON                                        0501
A0101404840851478374071MARITESS C. CASARILLA                                    0501
B0601400230891028240001SUPER BIKES CENTER BRANCH FUND                           1601
