A0101410300000007614004RIMANDO, CARLO MEYNARD SANTOS                            0503
A0101410300000011355514SISON, ERIC LOUIE OR SISON,                             10502
A0101410300000011355514AURORA MARGARET                                         20500
B0101410300663045332001ECCRUZ CORPORATION                                       1601
B0101410300000000191586******                                                   1601
A0101400440000004901495GENELYN C. RODILLA                                       0501
A0101400440161525001103OFELIA B. OLERMO                                         0501
B0101412630000007157793ASHER MKTG. AND STATIONERY SUPPLY I                      1602
A0101413440000000702134TOLDO, MARK ANTHONY AUREADA                              0501
A0101406590662465821001MANALON, IRENE SALES                                     0501
A0101410300000006278460KING, JULIUS NO                                          0501
A0101412630000002040686APOLINARIO, JANET IPAC                                   0501
A0101402060000005323160SANTOS, MA. ANA SUMO                                     0501
B0101410300663045437001ACTUALIZE INC.                                           1601
A0101414090000006211507DAVID MARTIN M. RASAY                                    0501
B0101410140000010858252AGRIGROWTH INTERNATIONAL CORPORATIO                      1605
B1901400160491347054001EMMA MACATANGAY AND MARIO MACATANGAY                     1603
A4101400260000012862072BHATTACHARYA, PRATIM                                     0501
A0101400860011561283001**********                                               0501
A0101400860011618820001**********                                               0505
A0101401250000008460019TIBAJIA, JOSEFA S. OR                                   10501
A0101401250000008460019ZAFRA, MARIE JOSEPHINE T.                               20500
A0101400150000003218033MIRIAM C. SALVA                                          0501
B0101400150061032087002CHRIST'S GOSPEL ACADEMY OF LEARNING &                   11603
B0101400150061032087002LEADERSHIP INC                                          21600
A0101400150061391946002TORRES, RICARDO GUTIERREZ                                0501
B0101400600071045158001*******                                                  1603
B0101400600071516450001********                                                 1601
B0101405810072367597002WANG, GUO YANG                                           1602
A0101405810072405509003*************                                            0501
B0601400100000005690593BALIGRILL FOOD CORPORATION                               1608
A0101413730000000469238*                                                        0501
A0101414090000003315022EDEN REGALA FLORES                                       0501
A0101414090000004803623RELOVA, CHRISTIAN MABANTA                                0501
A0101414090000006211563JUGO, CHELOY CORINA CASTILLO                             0501
B0101414090000007344563BACOLOD ACREDITAR LENDING CORPORATION                    1610
A0101410850000000778736GAPUZ, JAMES RAMOS OR                                   10501
A0101410850000000778736GAPUZ, MARIA TERESA B.                                  20500
A0101410850000013666543ESCASINAS, ROSALIE RULONA                                0501
A0101400730000011264350**********************                                   0501
A0101400730000001016248BON, ARLENE DBU BROBIO TRAVEL A                         10501
A0101400730000001016248SERVICES                                                20500
A0101406040112094295001********                                                 0501
A0101401960000001844599*****************                                        0501
A0101412630000002040533MACARAEG, ALBERT CALIMLIM                                0501
A0101412630000009425098SERRANO, EFRAIM VELARDE                                  0501
A0101413310000001073523BACERRA, HECTOR BRIONES                                  0501
A0101413310000001073938ESCANO, JOHN ANGELO DIZON DBU                           10504
A0101413310000001073938J.A.D.E TOWING S                                        20500
A0101401830000012441768BONA, JONALYN SAVEDIA OR                                10501
A0101401830000012441768LIM, LOU ERIC MA                                        20500
B0101407270000014188862DIGITAL 2WIST INC.                                       1602
B0101407270162015302001GABNA REALTY CORPORATION                                 1601
B0101407270162038101001BIRDS INTERNATIONAL, INC.                                1603
A0101401090171195893001DR. RICARDO AGBAYANI                                     0501
A0101401090171196097001HERNANDO OR LEONCIA OLONAN OR                           10502
A0101401090171196097001BIANCA NIKKOLA O                                        20500
A0101401090171353569001ALETH THERESE L. DACANAY                                 0501
A0101401090171510164001MARIA CECILIA D. LOBO                                    0501
A0301400660000000048360DOMINGO, LAARNI GARCIA                                   0502
A0301400660194084447001MAAY INDOOR AND OUTDOOR LIVING                          10508
A0301400660194084447001CONSTRUCTION                                            20500
A0101401380000010190604MUYA, MARLON BATHAN                                      0503
A0101401380000012372855MUYA, ROLLYMIN MECLAT DBU                               10502
A0101401380000012372855ROLLYMIN ENTERPRISES                                    20500
B0101413020000001175428ALL HEALTHY HEALTH VENTURES, INC.                        1605
A3101400160221478374057SABRINA N JORDA                                          0501
A3101400450000005355471CIGARAL, PEDRITO OR KLARISSE                            10505
A3101400450000005355471OR KIM PATRICIA                                         20500
B3101400740000000013889IM DIGITAL PHIL INC.                                     1610
A3101400870000008979913RAMCHANDANI, JAYNA VIRAY                                 0501
A3001400130000009103651BANJAO, ANACORITA G                                      0501
A1001400480000000606911FREGIL JR., BENITO GO OR FREGIL                         10501
A1001400480000000606911MICHELLE                                                20500
A1001400480000001054711VILIRAN, PRINCESS SYBIL BADAJOS                          0502
B1001400480000012715907TINGTING, JO-ANN BENDICIO DBU FRAN-FRAN                 11603
B1001400480000012715907TRADING                                                 21600
A1301400470252436215001MANUEL OR EMMANUEL TAN OR                               10510
A1301400470252436215001JANET SANGIL                                            20500
A1301400760000003415596PATRICK C. MUNCAL OR                                    10501
A1301400760000003415596LEA IVY F. MUNCAL                                       20500
A1301400760000011058363ERNESTO B. MENCIAS JR.                                   0501
B0101401670000004588490H.S. POW CONSTRUCTION AND DEVELOPMENT                   11603
B0101401670000004588490CORPORATION                                             21600
B0101406460000000182483WEE COMMUNITY DEVELOPERS, INC.                           1605
A0101406460272190124002UNSON, MA. LUISA D.                                      0502
A0101410980000013898878SY, BRYLLE JANSTED YUCHONGTIAN                           0505
B0101411820000010701241ITECH COMPUTER SYSTEM CO.                                1601
B0101400570281628149001ORETA MEDICAL CLINIC, INC.                               1604
B2601400270302045645001RISING DRAGON ENTERPRISE                                 1602
A3401400280000003493856DELOS SANTOS, JOEL DORESA                                0501
A0101402350000011252850RANISES, NARCISO GOLOSINDA                               0501
B0101402350321013681001P.J. LHUILLIER, INC.                                     1610
A0101402350000005645172GARCIA, ELFLEDA MENDOZA                                  0501
A0101405650322478374002MAVIS W. PAREJA                                          0503
A0101402510000013485691CHING, GRACE DE GUZMAN                                   0501
A0101402510000013485571PEREZ, J DBU PHILISITIANA                               10501
A0101402510000013485571PRINTING                                                20500
A0101402510341514366001**********                                               0501
A0101402060000000358623IMMACULATA, ROWENA MARTINEZ                              0501
A0101409050000000258315AURORA E. SAN JUAN OR EDUARDO B                         10501
A0101409050000000258315SAN JUAN                                                20500
A0101409050000012409591MATA, TWEENIE ANN ARRIETA                                0502
A0101409050000011151236GUINGAB, DONNAFER FAITH SURAT                            0501
B0201400760374035335001MECHAIRE, INC.                                           1610
B0201400760374047477001MARRO MARKETING CORPORATION                              1601
A0201400760374550346001COLE, MELISSA VILLADOLID OR                             10501
A0201400760374550346001COLE, BONIFACIO                                         20500
A0201401020000005250613YUSICO JR., PEDRO HERRERA                                0501
A0101402930000002269172CASTRO, ARVIN JAYSON TAMAYO                              0501
A0101408370382426871001BELEY, RAMIRO DAQUIS                                     0501
A0101408370382503035001DR. MARIA ROSELLEE BAYONA OR                            10502
A0101408370382503035001ROBERTO BAYONA                                          20500
A0101408370382663801001DRS. RICARDO G. ROCO OR                                 10503
A0101408370382663801001URSULA V. ROCO                                          20500
B0101408790000003845749**********                                               1602
A0101415350000007877881STEVENSON, MARIE ISABEL FAJARDO                          0501
B0101405490392022976001DYNAMICSTAR MARKETING CORPORATION                        1601
B0101405490392023156001PHIL. MOTORCYCLE RESOURCES CORP.                         1601
B0101405490000001092477ARKIMETRICS INC.                                         1602
A0101405490000000232500MARY JANE M. SILVESTRE                                   0501
A0101405490000005566316BAJAMUNDI, ROSILYN ASUNCION RIM                          0501
A0101408400000003421310PUSTA, CHARITO ORILLANEDA                                0502
B0101408400000004733773SINCERE FACADE PHILIPPINES, INC.                         1603
B0101408400394365559001LEDESMA, ROY C OR                                       11601
B0101408400394365559001LEDESMA, KATHLEE                                        21600
A0101408400394365559002LEDESMA, ROY CABAGAY                                     0501
A0101408400394471974002PESICO, GINA GERALDINO                                   0501
A0101409180000013849671LYRA DEVA L. PASIA                                       0501
A0101409180000009240802ANGELYN BADEO                                            0501
A0301400820409094648001LADAGA, SHERRYL E. OR LADAGA,                           10502
A0301400820409094648001JOSEPH FRANKLYN                                         20500
A2401400180000003949140UY, RUBING SIOCO                                         0502
B2401400180000007476853ECA RESOURCES, INC.                                      1602
B2401400180411056764001RD PAWNSHOP, INC. - GENSAN REGION                        1603
A2401400180000010066161PERALES, JAN ROBERT CANG DBU JA                          0503
A2401400180411478374020MORI, LYDIA                                              0502
A2401400180411501589001VALILA, NOL S. OR VALILA, MA.                           10501
A2401400180411501589001LOURDES D.                                              20500
A1201400150000001863287DAOAY, ANDREW LUPIAN                                     0501
A1201400150421685972001JUCUTAN, HEIDI BONDAD OR                                10502
A1201400150421685972001JUCUTAN, ROMMEL                                         20500
B0901400220432043565001CASA CANELAR PENSION                                     1602
A5101400100000010834090BAJAN, ISRAEL VILLALUNA                                  0502
A5101400100000010833979TUASON, JOY CADIGAL DBU JC JOY                           0501
A0101403030441238998001DEE, CHRISTINA OR CO, PHILIP                             0501
A0101403030441240227002**********                                               0501
A0101403030441314128002**********                                               0501
A0101403030441528979002**********                                               0506
A0101412890000000371442JASPER S FULGENCIO OR                                   10501
A0101412890000000371442LEONORA V FULGENCIO                                     20500
B0101412890470047248001MONTALBAN MILLEX AGGREGATES CORPORATION                  1602
A0101403320000014144800RODERICK A. VILLEGAS                                     0501
A0101403320000014386640FLORANTE S. FLORES                                       0503
A0101406330000012633328CASABAR, SUSANA VILLEGAS                                 0501
A0101406330472323079001VIRGINIA P. GARCIA                                       0501
A0101410140000001940187DAY, MA. LYNN GERONIMO                                   0501
B0101410140475045534001J-BREN STAR CORP. DOING BUSINESS UNDER                  11602
B0101410140475045534001THE NAME AND STY                                        21600
A0101410140000010760335MEDINA, CHRISTOPHER BRYAN DESTU                          0501
B0501400170000000018317DAGUPAN DOCTORS VILLAFLOR MEMORIAL                       1602
A1901400160491298907001SANTISIMA B HERNANDEZ OR                                10501
A1901400160491298907001MARIE JANE H VINAS                                      20500
B1901400160491341189001VIRGINIA V LIM OR                                       11601
B1901400160491341189001RICHARD D LIM                                           21600
A1901400160491546773001IRENEA M ERLANO                                          0501
A1401400110492412423001LUNA, MA. TERESA MAGBOO OR                              10503
A1401400110492412423001LUNA, EDWIN                                             20500
A1601400170000000497581MARK ERWIN C. CHAN                                       0501
A0701400260000006215641LANUZA, ROSE ANN TOLENTINO                               0501
B0101407430000001213136FLORESE, JOSE FREDERICK P. AND OBRERO JR                11601
B0101407430000001213136ALFREDO F.                                              21600
A0101407430503478374012ANALIE YPANTO                                            0501
B0101403580000004558710CALABUENA RESORT CORPORATION                             1602
A0101408530000002980545DAVID, MARIA LUISITA CARMEN GUI                          0501
A0101411400000012209868***                                                      0501
A0101403450000009517660**********                                               0501
B0101403450521007922001**********                                               1602
A0101403610000013460338DIZON, MARIA DOLORES RIVERO OR                          10501
A0101403610000013460338RIVERO, FELICIDA                                        20500
B2201400250000000016913ABRAHM CHASE CORPORATION                                 1602
A0101407720602384186003SARMIENTO, JOSIERINA YANEZA                              0502
A0101407720602504234001STA. MARIA, ARLENE CEDILLA                               0502
B0101412180603045589001PROBIO MEDCARE INCORPORATED                              1610
A0101412180000003275483ECHEVARRIA, MARILYN REYES                                0505
A0101404260611150837001EMILIANO OR MARIETTA REYES                               0503
A0101409890649720960001CASTRO, KARLEN SANTIAGO                                  0503
A0101409920000010528708***************                                          0501
A0101409920650478374009PABILONIA JR. SALVADOR B.                                0501
A0101409920650478374012CATUBAY, GLORIA JIMENEZ                                 10501
A0101409920650478374012MEMBERS OF NATAS                                        20500
A0101407690000006736496SALLY B. LABIANA                                         0502
A0101407690652525001047NOEMI B. BUNDA - DEALERS OF                             10501
A0101407690652525001047SHOECAT INC.                                            20500
A0101407690000000053881********                                                 0504
A0101413440000002846382PASCUA, MICHAEL BALILA                                   0501
A0101413440000007953191TORRES, LESTER LORENZO                                   0501
A0101413440000012579227TORRES, LESTER LORENZO                                   0501
B0101413440000011893180EVOLANDER MOTOR CORPORATION                              1603
B0101406590000000905511MAINEVENT AND MARKETING CORP.                            1604
A0101410300000014338111REYES, RALPH RICHARD GONZALES                            0501
A1301400210000002909293CRISTOBAL, JOSEPH JOSE                                   0501
B1301400210000008173940N.B. VINTA CONSTRUCTION CORPORATION                      1602
A1301400500000005963299********                                                 0501
A0101408240000012315854RAMOS, ALBERTO EMILIO OR                                10501
A0101408240000012315854RAMOS, ELIZABETH GRACE                                  20500
A0101408240000013983305ROMANO, MARY CORAZON SANTOS                              0501
A0101408240711375102001PANICUCCI, MA. PILAR M. JT                               0501
A0101408240711525040002FLORO, MICHAEL CHAVES                                    0502
B2801400100712024577001PHILIPPINE COASTAL STORAGE AND                          11605
B2801400100712024577001PIPELINE CORP.                                          21600
A4101400260000012861980DELOS REYES KAREEN G                                     0501
A4101400260000012862669INFANTE KHRISTEEN KIM                                    0501
A4101400390000000500370LIBADIA, AURORA GLORIA INGUILLO                          0501
B4101400420000007305360VIC IMPERIAL APPLIANCE CORP.                             1602
A4101400420814478374171MICHAEL G. RIBOT                                         0501
A4101400420814520766004SALVACION D. BITANCUR                                    0501
A4101400420814520766084PADILLA, ROSEMARIE E.                                    0501
A4101400420814520766110DELA CRUZ, ARMINDA E.                                    0501
A4101400420814559384001RIBOT, NORMA GAJE                                        0501
A4101400550000013277157CATEDRILLA, ROLAND CELINO                                0502
A4101400550000004846926JAMBALOS, J DBU JMJ COMMERCIAL                           0501
A4101400550815478374001ONAYAN, CAROLINA BAUTISTA                                0501
B0101404840851042694001YILIN FASTFOOD VENTURE INCORPORATED                      1610
A0101404840000000122658MARIFE DE CASTRO                                         0501
A0101406750000000480619TAYO JR., FELITO TRIA                                    0501
A0101406750000010508846FANDIDA, MARTINA NIANGO                                  0503
A0101406750852795765001BALTAZAR, JOANN MARIE CAMPANANO                          0501
B0101405070861045120001PHILIPPINE CROSS-STRAIT CHINESE SRR                      1602
A0101405070000006006086CHAN, OLIMPIA CALUGAY                                    0503
A0601400230000001062435**********                                               0502
A0601400230000006243045PALOMO, JEROME BUSTOS                                    0502
A0601400230891479259001AMELIA M. ARCE                                           0501
