F0101406620273023895002RG-FINANCIAL SERVICES LIMITED                           12602CKR
F0101406620273023895002(PHILIPPINES) IN                                        22600CKR
F0101405100571036688001ALL COUNTS TRANSPORT SERVICES                           12602CKR
F0101405100571036688001CORPORATION                                             22600CKR
F0101400570281040888002TACLOBAN OIL MILLS, INC.                                 2602CKR
F0101400570281042886001PRIMEX COCO PRODUCTS, INC.                               2603CKR
F0201401280379055788001FIVE WATER DRAGONS DEVELOPMENT                           2601CK1
F0101409210000006598943ALBATROS BUSINESS SOLUTIONS INC                          2601CK1
F2401400180411049051001MSU-IIT NMPC GEN. SANTOS-1 BR.                           2602CKR
F0101403580000000214720TRENDS AND CONCEPTS TOTAL                               12605CK1
F0101403580000000214720INTERIOR SOLUTIO                                        22600CK1
F0101408110515017722007STORES SPECIALISTS, INC.                                 2602CKO
F0101409890649045548001MAX-TEL INDUSTRIES CORP.                                 2601CKR
F1301400210682033690001FELIZA JAZZ CORPORATION                                  2602CKO
F1301400210682496862001ROSARIO C PEREZ   OR                                    12504CKO
F1301400210682496862001EDGARDO J PEREZ                                         22500CKO
F3201400190000001493078*********                                                2502CKO
