B0101405230332821100608**********                                               2002
A0101406620273523271001CRUZ, MARIA LOURDES SANTIAGO                             0501
A3101400870000005565266GAMO, EMELSON PATAWE                                     0501
B3001400130230042943088VENTURA PLYWOOD PHILIPPINES INC.                         1610
A0101412050519061409001O.S.A. CLEAN AND COMFY LAUNDRY                          10501
A0101412050519061409001AND DRY CLEAN SERVICES                                  20500
A0101400860011790112001HUANG, QINGNONG                                          0503
A0101401250000004374641DOMINGO, EDWIN V. OR                                    10506
A0101401250000004374641DOMINGO, LAURA MANUELA S.                               20500
A0101401250021183991001JUDITH M. TICZON                                         0501
A0101400150000000525411ORDONEZ, GINA MARINA PANGILINAN                          0501
A0101400150000003157920LAWRENCE JAMES KEATING                                   0502
A0101400150000007216015RUDOLF, JOHN MARK SOLABO                                 0501
A0101400150000007216071BARIT, JOHN JOSEPH DUNOS                                 0501
B0101400150061010688010SB CARDS CORPORATION                                     1610
B0101400150061032615001HKR EQUIPMENT CORPORATION                                1605
A0101400150061364636001YOSHII, TSUNENORI                                        0501
A0101400150061455323001MANGLAPUS, ANA DEL ROSARIO OR                           10501
A0101400150061455323001MANGLAPUS II, VA                                        20500
B0101400600071328360002**********                                               1601
B0101405810072018018001AIMWAY PLASTIC & PRINTING CORP.                          1603
B0101405810072034989001TRANSWELL ENGINEERING CO.                                1602
B0101405810072040696002PLASTIC TECHNOBAG CO. LTD.                               1602
A0101405810000001021172PUA, C DBU MCK SCHOOL & OFFICE                          10503
A0101405810000001021172SUPPLIES                                                20500
A0101405810072367597002WANG, GUO YANG                                           0501
B0601400100081020255001WIDE WIDE WORLD EXPRESS CORPORATION                      1603
A0601400100081347367002TAYAG, ELIZABETH GOQUINGCO                               0502
A0601400360083649312001KIM, KANG WOOK                                           0502
A0101410850000003503482CANILLAS, MARTIN LAPPAY DBU                             10502
A0101410850000003503482MARCCHARM INDUST                                        20500
A0101410560000000590614CHAVEZ, JONALIE RAIPAN                                   0501
B0101400730111039580001SIXDEGREES INC.                                          1601
A0101406040000001392007********                                                 0501
A0101401960121238703001**********                                               0502
A0101401960000002331686SAVELLANO, ALLAN TAMAYO                                  0501
B0101401830000005577984BILLONES, MARIE ANN DISONGLO DBU                        11602
B0101401830000005577984LEVONTECH ENT.                                          21600
B0101400440161022597001PHILMAN POWER CENTER INC.                                1612
A0101400440161039572023JIMMY S. PALISOC                                         0501
A0101400440161193398001LAURO OR MARILYN ABUSTAN                                 0501
A0101407270000001596810CHARL LESTER E. QUIJANO                                  0504
A0101407270000007220715OCAMPO, JOCELYN ESCOBAR                                  0505
A0101407270162036357001CIRCLES PLASTIC MANUFACTURING                            0510
A0101407270162497087001ALTAMIRANO, ARTHUR LADDARAN                             10501
A0101407270162497087001OR ALTAMIRANO, HERITA                                   20500
A0101407270162497087001ALTAMIRANO, ARTHUR LADDARAN                             10501
A0101407270162497087001OR ALTAMIRANO, HERITA                                   20500
B0101401090000000210482BLUMEX PLUS CREDIT INVESTOR INC.                         1605
A0101401090171327925001REMEDIOS C. ONG                                          0502
A0101401090171336393001REBECCA R. ABRILLA                                       0502
A0101401380201502664001LEY, RICHARD NOEL CO                                     0501
A0101401380201559410001PADON, CLITA GADO                                        0503
B3101400870225054761001DE JESUS, T DBU JDT TRANSPORT AND                       11601
B3101400870225054761001GENERAL SERVICES                                        21600
A1001400190231022073001FARASIA EDUCATIONAL LIBRARY COR                          0502
A1001400190231032517001FRAN-FRAN TRADING                                        0503
A1301400470000000009970AIMEE C. VENTANILLA OR                                  10501
A1301400470000000009970SOLITA P. CHUA                                          20500
B0101401670271027397001KELEYNA ENTERPRISES                                      1601
A0101401670271188831002REGINALDO C. LIM                                         0501
B0101406460272020749003EASTGATE COMPUTER CORPORATION                            1601
A0101406620273311311001JERRY PEREZ &/OR ROLLY PEREZ                             0503
B0101406620273401681001NEW YORK BAY PHILS., INC.                                1602
B0101408660274047925001CNT PROMO AND ADS SPECIALISTS, INC.                      1620
A0101411110276792560088MESINA, SHERYLL ANN CARPIO                               0502
A2601400270000002677569DEXTER C. DUMRIQUE                                       0502
A1101400120000000652675YU, ANTONIO ALMENARIO                                    0504
A1101400120000000652380CAYUBIT JR., SERAFIN ASERON                              0502
A1101400120000000652777BIDUA, FERDINAND ALMADEN                                 0510
A1101400120313535537001COLLERA, LEONOR M. OR                                   10504
A1101400120313535537001COLLERA JR., AGU                                        20500
A2001400290000002319622TAMPUS, MARIA LORENZA GALETTI                            0501
A0101402350000002310747SION, BERNADETTE COLLADO                                 0501
B0101402350321041173001GO TEC INTERNATIONAL BUSINESS SCHOOL,                   11602
B0101402350321041173001INC.                                                    21600
A0101402350321185166001GARCIA, DANILO M. OR JULIE M.OR                         10502
A0101402350321185166001MARY CHERRIE PIE M.                                     20500
A0101402350321406149003********                                                 0502
A0101402350000002310667CULTURA, REA SALENGUA                                    0501
B01014056500000029607964-S HOMEOWNERS' ASSOCIATION, INC                         1601
A0101409050000003533606CAROLINE VICTORIA A. REGALA                              0501
B0201400760374026266001VISAYAN ELECTRIC COMPANY, INC.                           1602
A0201400760374030540001ST. FRANCIS MANPOWER SERVICES                            0501
A0201400890000000973440COLINA, TERESITA LLANTO                                  0501
A0201401020377776942001VILBAR, FRANCISCO SALVALEON                              0501
B0101402930381046095001DAVIES TECHNICAL SOLUTIONS, INC.                         1605
A0101402930000003710523BILLENA JR., ISMAEL CONSTANTINO                         10501
A0101402930000003710523OR BILLENA, MARY JEAN S                                 20500
A0101408370000006446073ZARSUELA, EDWIN STA CRUZ                                 0502
A0101408370382341971001DR. ARNOLD OZAETA OR                                    10501
A0101408370382341971001MA. RAMONA OZAETA                                       20500
A0101408370382409089001DR. ELIZZA S. SENSENG OR                                10503
A0101408370382409089001IMMANUEL DOMINIC SENGSENG                               20500
A0101408370382498940001DR. MARIA VANESSA H. DE VILLA                            0501
A0101408370382592860001ANGELINE S. TINGA                                        0502
A0101408790000005954083CULLADO, MA. CORALYN SAGRADO                             0501
A0101402770391495752001VILLANUEVA, JOSE ARCANGEL L.                             0503
A0101402770000000080588ROBERT C. TARRIELA                                       0501
A0101408400000005286320AMEROL, ROSLINA MAROHOMSALIC                             0502
A0101408400394160344001CALMA, ALFREDO MATAGA                                    0506
A0101408400394162577001REYES, ELSA UNGSOD                                       0501
B0101409210398042284001D FORT EXPRESS LOANS & CREDIT, INC.                      1603
A5501400120410719328001ILAO, YOLANDA CASTILLO                                   0501
A1201400150421478374014PERIDO, MARY JANE                                        0503
B0101403030441303324001**********                                               1602
B0101403320471009043001ABCOR INDUSTRIAL CORPORATION                             1605
B0101403320000001647263MASTERCLASS MANUFACTURING CORPORATION                    1605
A1901400160491246942001CIRILO C BALMACEDA OR                                   10501
A1901400160491246942001MARLEN C BALMACEDA                                      20500
A0101405940000007213761NOBLEZA, MA. LUCIA PEDROSO                               0501
A0101406880000000027067ESQUIVEL, GARY NOBLE                                     0510
B010141179051805692200188 INFINITY LENDING POOL INC                             1601
A0101412050000000323679BLANQUISCO, AARON HARINA                                 0501
B0101403450000000135635PHILIPPINE TRADE CENTER, INC.                            1606
A0101403450521240361001**********                                               0501
A0101404000000001186783JANDAYAN, KIMBERLY SARAUS                                0502
B0101410690600046449001APP-AAA PARTNERS CORP.                                   1603
B0101410690000001284162CORNER STONE PROPERTIES AND REALTY                      11610
B0101410690000001284162DEVELOPMENT INC                                         21600
A0101407720000002693150FONTAMILLAS, FAYE TORRES                                 0501
A0101404260611337876002CHING, ROSA MATIAS                                       0503
A0101404260000001725355**********                                               0501
B0101409890000003098173V.T. LAGUYO CONSTRUCTION, INC.                           1602
B0101407690652032192001RCBN - ST. PETER SHRINE                                  1610
B0101407690652032315001BENEHEIM VENTURES CORPORATION                            1601
A0101407690000000154750BARANGAN, ROMEO DBU                                     10505
A0101407690000000154750BARANGAN TRADING                                        20500
A0101407690652266112001BENJAMIN H REMOQUILLO                                    0501
A0101407690652478374128LOIDA M. MAYOLA - DEALERS OF                            10502
A0101407690652478374128SHOECAT INC.                                            20500
A0101407690652525001075DOCDOCIL, GELITA - DEALERS OF                           10503
A0101407690652525001075SHOECAT INC.                                            20500
A0101407690652742627001******                                                   0501
A0101413570000002906647EMMANUEL J. AGCAOLI OR                                  10501
A0101413570000002906647MILDRED O. AGCAOLI                                      20500
A0101413570000002906578BENEDICT M. REYES DBU                                   10501
A0101413570000002906578DIVEREP GEN. MERCHANDISE                                20500
A1301400340000000926927DELA CRUZ, RONNEL SANTIAGO                               0501
A1301400340683406123001TOBIAS, SUSANA FULGENCIO                                 0502
A1301400500000000213163NORVY G. MARCELINO                                       0504
B1701400230693552315001DUQUEZ, MICHAEL GODFREY LAZAGA AND                      11601
B1701400230693552315001DUQUEZ, MERLINA                                         21600
B0101408240711007456001SEATRANS CORPORATION                                     1610
A0101408240711478374015EMILY MONTILLANO                                         0502
A2801400100000000004720REYES, MYRA DBU MRC DENTAL CLIN                          0501
A2801400100712478374006OLIVIA G. ARAO                                           0501
B4101400390000003346187PAGASA PHILIPPINES LENDING COMPANY                       1606
A4101400550000006044651AAT COMPUTER SUPPLY                                      0502
A0101412340000005265976MANDAPAT, CHRISTOPHER J                                  0501
A0101406750000004641576DAVID, SANDY DBU PRO BEATBOX                            10506
A0101406750000004641576ENTERTAINMENT CONCEPT                                   20500
B0101405070861028566002AVESTA REALTY, INC.                                      1603
B0101405070000006005965LEBRIA TRANSPORT AND ALLIED SERVICES                    11610
B0101405070000006005965CORP                                                    21600
A0101405070861478374086MARLYN C. GABEST                                         0502
B0101413860000000145184FLIGHTMART TRAVEL & TOURS, INC.                          1602
A0601400230891738531001MARK ANTHONY CHUA OR GILBERT A                          10502
A0601400230891738531001TAYAO OR ABELARDO LEYDA                                 20500
