A6601400120000003642722DESTURA, PEDRO DERPO DBU VILLA-                          0501
A0101413860000010948202VILLA, MA. THERESA O'LACO                                0501
A4101400420814422280001DELGADO, ELVIRA CARIENENA                                0502
B0101400860000001005423***********                                              1603
B0101400860000001005354**********                                               1602
A0101400860011539810001**********                                               0503
A0101400150000008307204PATRICK IGNACIO OR TERESA STEPH                         10502
A0101400150000008307204ENSON OR DENNIS IGNACIO                                 20500
B0101400150000011138199EVIDENT STRATEGIC RESEARCH AND                          11601
B0101400150000011138199CONSULTING INC                                          21600
A0101400150061739693001FRANCISCO D. VARUA OR MARIA                             10502
A0101400150061739693001MARLENE A. VARUA                                        20500
A0101405810000011484649PILI, IAN JOHN ZENG                                      0502
A0601400100000014351032GARCIA, RANDY ROQUE                                      0501
A0601400100000014360584YAP, RITER JAY MALLARI                                   0501
A06014001000000000324860Y, BENNY ANG DBU GREAT POWER E                          0501
A0601400520000009516792GONZALES, ELIZABETH BONDOC DBU                          10503
A0601400520000009516792EBG TRADING                                             20500
A0101410560000013688685DEL CASTILLO, CATHERINE ESTEVES                          0501
A0101400730000000833192GLEN T. NIOKO                                            0502
A0101401960000001844566PANESA, SALVACION VALEZA                                 0501
A0101413150000001288262******                                                   0501
A0101413150000002299352******                                                   0502
B0101413150000000038628******                                                   1601
B0101413150000000082802CLIPRITE CORPORATION                                     1601
A0101413310000000863941SUMALINOG, KATHERINE MANZANO                             0501
A0101401830000006269732MONIS,JOSEPH ARGUELLES                                   0502
A0101401830000014322128ARCE, ALBERT ALAIN ACUNA                                 0501
A0101401830141532677001CULLADO, JOCELYN C OR                                   10501
A0101401830141532677001CULLADO, ARNALDO G.                                     20500
B5001400170000010100491ST. LAURENCE DPL LENDING CORP.                           1602
B0101412920000014357149BONAMY, FREDERICK CHUA DBU BONAMY                       11601
B0101412920000014357149BUILDING                                                21600
B0101400440000002846655P.D. & SONS DEVELOPMENT CORPORATION                      1601
A0101400440161186982001HAYDEE D. CARRILLO                                       0502
A0101400440161520766081EVA C. VILLANUEVA                                        0501
A0101407270162085940001FERRER, SARA YEO                                         0502
A0101407270162629824002GRACE T. YAP OR                                         10501
A0101407270162629824002CHI KING YAP                                            20500
A0101401090171504210001ALBINA R. GANDALLA                                       0501
A0301400530000012665139*****                                                    0503
B0301400660000002348541ERVY LOGISTICS                                           1602
A0301400790000005692173SIMON, DIOSEE GENTILES                                   0501
B0301400790000013577983AGF ELITEGROUP DISTRIBUTION INC.                         1602
B0301400790000002301342MONTEVERDE II, GEORGE MENDEZ DBU GV & HH                11601
B0301400790000002301342MARKETING                                               21600
A0301400790000006269776SARONA JR., GILBERTO A. DBU                             10502
A0301400790000006269776SDES ENTERPRISES                                        20500
A0301400950000008869065MALOMPONG, DONNA MAY TABUCAN                             0503
A0101401380201500598001CARREON, DAISY FONG OR CARREON                          10501
A0101401380201500598001JR., PONCIANO SI                                        20500
B0101412500214028920002SANKO PLASTICS PHILIPPINES INC.                          1601
A3101400160000001559213IAN GARY C DELA TORRE                                   10502
A3101400160000001559213JACQUELINE A DELA TORRE                                 20500
A3101400160000002762030RONALDO M. DELA CRUZ AND                                10505
A3101400160000002762030JOSELITO M. GUEVARRA                                    20500
A3101400160221386295002ROBERT J. BANATIN                                        0501
B3101400450223635512001TOTAL QUALITY MANAGEMENT BUSINESS                       11602
B3101400450223635512001VENTURES                                                21600
A3001400130000008916058LUAREZ, TESSIE GUMAPAC                                   0503
A3001400130000001271432FERNANDEZ, EDGAR P DBU                                  10501
A3001400130000001271432LIFEGUARD SECURITY AGENCY                               20500
A3001400130000008915971JUBAC, CHARLES TATAD                                     0502
A1001400190231520766094SALAGUSTE, FELIPE B.                                     0501
A1001400480000010131463CANATOY, ELSON MUSTACHO                                  0502
A0101406620273380453001**********                                               0501
A0101408660000011967761HERNANDEZ, GIRELY TEVES                                  0503
A0101411820000008442831GENALINE ESPIRITU CRUZ                                   0501
A0101400570281186842001DR. BENITO H. RAMOS JR.                                  0503
B0101411240000007844451NIC'S GOURMET DESSERTS, INC.                             1610
A6601400120314612973001CABILI,MANUEL MELFORD OR MANUEL                         10504
A6601400120314612973001OR TERESITA OR Z                                        20500
A3401400280000003493798FORMILLEZA, JR BERNAL                                    0502
A0101402350000012300160QUIAMBAO, EDISON C. OR                                  10505
A0101402350000012300160QUIAMBAO, GIA KARLA V.                                  20500
A0101402350000011252770BIOC, ROWIE LIGAYA INDUCTA                               0501
A0101402350321038584002HEALTHY 8 WATER REFILLING                               10501
A0101402350321038584002STATION                                                 20500
A0101402510341199160001EDWARD JOHN PECACHE CARRILLO                            10501
A0101402510341199160001AND MARY FRANCES                                        20500
A0101402510341381018001DANICA FRANCIA SANCHEZ CAUDAL                            0501
A0101409050352406449001ARIEL V. BATASIN                                         0502
B0201400760000007134461THE QUEEN CITY FOOD CHAIN, INC.                          1601
B0201400760000011325414PAGES HOLDINGS, INC.                                     1605
A0201400920375044441001SUI'S PRINTSONIC                                         0501
A0201400920000001331559JNJ FURNITURE AND DESIGNS                                0505
B0201400890376036280001WHITE GOLD CLUB INC.                                     1601
A0101402930000013537361CANAPI, MARITES BINULUAN                                 0501
A0101402930920130000105SIGARRA, MARIA KRISTINA ANN ALC                          0501
A0101408370000003775111**********                                               0505
A0101408370382518011001MARIE ANTOINETTE DIZON, MD                               0501
A0101408790000014293411CABILDO, CHERILYN ANTONIO                                0501
B0101408790000006025769STORM FLEX SYSTEMS, INC.                                 1602
A0101415350000012246730REYES, WILLEEN ROSE SAJUELA                              0502
B0101402770391033539001VICTORIA VALLEY ASSOCIATION, INC.                        1602
A0101405490000006241943MINERVA V. VILLACORTA                                    0502
A0101408400000014148728ESCORO, TITA CABA                                        0501
B0101408400000000029581NEW LIFE CHRISTIAN CENTER                               11602
B0101408400000000029581(THE FORT)                                              21600
A0101408400394225267002POSADAS, ROLANDO BUGAYONG                                0501
A0101408400394540946001SANGDAAN, KATHLEENE ROSE CONDAT                          0502
B0101408950000010411295ACUTE CARE AND TRAUMA SURGEONS                          11602
B0101408950000010411295ADMINISTRATIVE                                          21600
B0101408950000000036859ROTARY CLUB OF MAKATI DASMARINAS                         1601
A0101408950000001785544MALABANAN, M DBU                                        10503
A0101408950000001785544ONE MEGA LOGISTICS                                      20500
A0101408950000000776694ALVAREZ, YSMAEL BUAN                                     0502
A0101408950396562714001DR. RICARDO FELICIANO DE CASTRO                          0505
A0101409180000003780090JACQUELINE P. GULAY                                      0502
B0101409180000008122785PEARSON MANAGEMENT SERVICES                             11601
B0101409180000008122785PHILIPPINES INC.                                        21600
A0101409180000004959691GO, SONIA LALLAVE                                        0501
A0101409210000004736038FEBRE, HAROLD ESCUSA                                     0501
A0101412210000010434932BURGOS, JONATHAN ENANO                                   0503
B0301400820000000316710KWAN, PAO GAN LI OR KWAN,                               11602
B0301400820000000316710MARLON                                                  21600
A2401400180000014303812AGUILAR, TONI ROSE OR AGUILAR,                          10501
A2401400180000014303812ELGIE BOY GILBERT D.                                    20500
A2401400180000000428051EGOS JR., JEMMERITO CASANA                               0504
A5101400100000010370964LAZARITO, OLIVER BRANZUELA DBU                           0506
A0101403320471271634001WILLY C. CASTRO OR                                      10501
A0101403320471271634001ANASTACIA R. CASTRO                                     20500
A1901400320000011971830RIVERA, MARIA TERESA SUAREZ                              0502
A1401400110492320667002AVERIA, SOLOMON DY OR                                   10501
A1401400110492320667002AVERIA, MA.SARAH                                        20500
B0101403580000000015738MEC - SPV 5 & 6                                          1605
B0101403580000004540630CHBCNET INC.                                             1601
A0101403580511322954003VIRATA, LEONIDES J M CUUNJIENG                           0501
A0101403580511369144001ANDREW C. THAY OR                                       10502
A0101403580511369144001MOIRA O. THAY                                           20500
A0101403580511558749001HENRY D. ANTONIO                                         0504
A0101403580511693764001MESIAS, MARIA CARMINA SANTIAGO                           0502
A0101405940512746092001BELLO, JANET RANILE                                      0501
B0101411400000000001689SOSAJB PROPERTY MANAGEMENT CORP.                         1605
A0101411790000014011711GILBUENA, DANICA CINCO                                   0501
A0101412050000012373665COX, MARIA BIENVENIDA MELENDRES                          0501
A0101403450521238064001**********                                               0502
A0101403450521238133001**********                                               0501
A0101403450521329789001GO, YIAKSO TAN                                           0501
A0101403450521329789002*********                                                0501
A0101403610000007106607CRUZ, MARIANNE REYNA LUNA                                0501
A0101403610000012132675ECHALUCE, MARRAH BOAYES                                  0501
A0101403610000014303969ROQUE, REYMUNDO DAQUIS                                   0501
A0101403610000014304046MINA, JESSIE B DBU J. MARK GLAS                          0501
A0101403610531221338001REFORMA, MA. SHEREELLE A.    OR                         10502
A0101403610531221338001REFORMA, BENISON                                        20500
A0101403610531624567001DE QUILLA, JOEGIE CUANO                                  0501
A2201400250561377607001JOSE L. MONTANCES                                        0503
A2201400250561478374006ANGELINA P. QUIBALLO                                    10501
A2201400250561478374006MEMBERS OF NATASHA                                      20500
A0101404260611500923001BESMONTE, ARNEL BERMUNDO                                 0502
A0101409890000000209174PUNZALAN, MICAH ELIGENE ROXAS                            0503
A0101409890000011486349HARI-ON, MARCELINA NOBLEZA                               0502
A0101409890000006812973DELORAYA, ABEGAYLE PEREZ DBU                            10501
A0101409890000006812973APD EXPERTS MANPOWER SERV                               20500
A0101409920000010528691AQUINO, ERNESTO JIMERA                                   0501
B0101407690652047936001WATER DRAGON CONST. & DEVELOPMENT INC.                   1601
A0101407690652609264006AUGUSTO S. DE JESUS OR                                  10502
A0101407690652609264006MILA S. DE JESUS                                        20500
A0101411530000006217574MOMMY & ME ENTERPRISES                                   0503
A0101413990000013171118BELLEZA, ALFONSO CALOPE                                  0501
A1701400230693711027001AGUSTIN, FERDINAND MENOR                                 0501
A0101408240000003955380OCAMPO, MA. CHRISTINA IMPERIAL                           0502
A0101408240711384215003LOURDES GRACE MAPALAD                                    0501
A2801400230000009022235ASIS, LIZA EDNACOT                                       0501
A4101400260000012880092POLINTAN, MARK                                           0501
A4101400390813478374021JERESANO, ASUNCION L.                                    0501
B4101400420814038765001EG&G CONSTRUCTION SUPPLY                                 1601
A4101400420814342049001MENDOZA, DIVINA LORY ANN E. OR                          10505
A4101400420814342049001MENDOZA, GILBERT                                        20500
A4101400420814478374044BERATIO, MARITES M.                                      0501
B0101412340000005964065CM2 CONSTRUX, INC.                                       1602
A0101404840000004565891BEATRIZ P. REALCO                                        0501
A0101404840851406561002MARYLYN V. ANGELES                                       0503
A0101405070861397365001UEDA, EDRALIN DUBLIN                                     0501
A0101413860000005527813RAMIRO, LISA ROSE CHAN                                   0502
A0601400230000003015721DUCUT, AMADOR PENA                                       0501
