B0101408530516821100608**********                                               2010
B0101408950396821100608**********                                               2005
A0301400950000000566723FERNANDEZ, NESTY VON CHI                                 0502
A0301400950000001379604BRYAN YAP LIM                                            0501
B0301400950000002115851**********                                               1601
A0301400950000002115300ILA ENTERPRISES                                          0502
A0101404260611490335001TAN, MARIA JENALYN TULIAO                                0501
A3001400130230094974001BRAVO, ROSEPT EBARLE                                     0503
A3001400130230767566012RAFIL, SHARON PEROCHO                                    0501
A1001400190231520766086ABANG, ELVIE EGDAMIN                                     0501
B0101402930381008880001AIRTIME MARKETING INC (PHILS.)                           1610
A0101408400000003421310PUSTA, CHARITO ORILLANEDA                                0501
A4101400420000006643412ARTETA, PAUL MICHAEL ZAMORA                              0501
A0101412340000000031136VILLACORTE, BIENVENIDO L. OR                            10501
A0101412340000000031136VILLACORTE, ADEL                                        20500
A0101412340000003345760MIGUEL ANGELO A. REYES                                   0501
A0101400860000005312981**********                                               0502
A0101400860011449266001**********                                               0502
A0101400860011479505001**********                                               0505
A0101400860011512628001**********                                               0505
A0101400860011537388001**********                                               0505
A0101400150000002413645MARTINEZ, RENANTE CABALLERO                              0501
A0101400150000003163022REGIN D. CASTILLO                                        0502
B0101400150061010644001JESUS V. DEL ROSARIO FOUNDATION,INC                      1610
B0101400150061036325001AIKO ENVIRONMENTAL & GENERAL MANPOWER                   11601
B0101400150061036325001SERVICES INC                                            21600
B0101400150061055521001LEGAL REVOLVING FUND                                     1601
A0101400150061088084001ADZUARA, ELOISA TANECA                                   0501
A0101400150061315447001SUBIDO, M.D. JONAS CERTEZA                               0501
A0101400150061337099127CARMENCITA L. TAN                                        0501
A0101400150061510141001MAPANAO, BILLIE TAMSI                                    0501
B0101400600071313239001MERCEDITA J. BERNARDO                                    1602
A0601400100000005050377MEHEUST, ROWENA ANGELES                                  0502
B0101413730000000469723********************                                     1601
A0101400730111527208001********                                                 0501
B0101406040112017780001ASSOCIATED WORKERS UNION                                 1610
A0101413310000001073654********                                                 0501
A5001400170000002288388PANOZA, PRECIOUS ESTEBAN                                 0501
A0101407270162435350001******                                                   0501
B0101401090171035575001MOSS MANILA EVENTS HOUSE INC.                            1605
A0101401090171061610001VESTRA MARKETING                                         0501
A0101401090171198491001DR. LARRY S. KING                                        0505
A0301400790000003969440ARELLANO, AIDA LARA                                      0502
B0301400790195027016387MARS AGRI VENTURES AND COMMODITIES                       1601
A0301400950000002115435LASALA, MIGUELITO WALAWALA OR                           10501
A0301400950000002115435LASALA, LYNNETTE L.                                     20500
A0301400950000002115537DAVIS, JEFF RAY DELA PENA                                0503
A0101410720000006239745LIM, JAYNE MICHELLEY ADOLFO                              0502
A0101410720000006239756GALORPO, ANTHONY ZALAVARIA                               0501
B0101410720653022858002FOODKING CUISINE & SERVICES INC                          1602
A0101410720000001602051CRUZ, E DBU JEFF & F-ROSE PALAY                          0502
A0101410720000001602051CRUZ, E DBU JEFF & F-ROSE PALAY                          0502
A0101410720653085934001TOBIAS, MERRILL JAVIER OR                               10503
A0101410720653085934001CONEJERO, NINIBETH R.                                   20500
A0101410720653575025001CRISTINA G. CUEVAS                                       0503
A3101400160221478374058MARIBEL S SIBOR                                          0501
A3101400740000001692457MALABANAN, MILANNIE G. OR                               10502
A3101400740000001692457MALABANAN, ROHNELL C.                                   20500
A3101400740000006349460SANTOS, MARIA TERESA DIMALALUAN                          0502
A3101400870000003656360BENITEZ, MA ETHELWOLDA NAPIZA                            0502
A3001400130000002063496ATAZAN, MARTIN CARDONIGA DBU BN                          0501
B0101406460272038032004WEE COMMUNITY DEVELOPERS, INC.                           1604
A0101406460272377244001ALA, JESSIE ATENTA                                       0501
A0101406620000003661396**************                                           0501
B0101406620273216386001CITIMEX, INC.                                            1602
A0101406620273301500003LORENA E. VELARDE                                        0501
A0101406620273372591002****************                                         0502
A0101408660000000372952*************                                            0501
B0101412470000003847416FUNDACION SANSO, INC.                                    1601
B0101400570281007818001ACE-NBS MULTI PURPOSE COOPERATIVE                        1610
A0101400570281186842001DR. BENITO H. RAMOS JR.                                  0503
A0101400570281405455001EMERSON OR ARLENE MAGALLANES                             0502
A0101400570281417780001JOYCELYN TAN TANZO, D.M.D.                               0501
A0801400160311061599001BELASA, LEONARDO LUCENA DBU                             10502
A0801400160311061599001STELLAR BUILDERS                                        20500
B0801400160311267111001CHRIST THE KING MEMORIAL PARK, INC.                      1608
A1101400120000002254902BARREDA, EDKENS MARASIGAN                                0501
A1101400120313459301002LANOY, JERRY MALINAO                                     0505
A6601400120000000060711SIXTO C ESPINA III DBU LFCE                             10501
A6601400120000000060711PETRON JT                                               20500
A6601400120314612866001ALCERA, JUNELL PAUL OR JENNIFER                          0503
A6601400120314622580001SOSING, CAROL O. OR FELIPE A.                           10505
A6601400120314622580001OR CAROLYN O.                                           20500
A6601400120314629254001CU, EDUARDO ZALDIVAR                                     0503
A2001400290000000924572MARTY, CRESLYNN MARIE CERINO                             0501
A2001400290315688009001ALGOPERA, LLOYD GARCIA                                   0504
A0101402350000000521300LOPEZ, ROWENA F. OR                                     10502
A0101402350000000521300LOPEZ, IRENE R.                                         20500
A0201400760374007555001CORNERSTONE INTERNATIONAL PHILS                          0501
A0201400760374625964001SOLON, ENRICO MENDOZA                                    0501
A0101402930381478374009MARIVIC R. DELA CRUZ                                     0501
A0101408370000002264159FRANCISCO, MICHAEL CARPINA  OR                          10502
A0101408370000002264159TAGAYUNA, MARIA CRISTINA                                20500
A0101408370382410095001DR. EDNA C. BANTA                                        0505
A0101411660000000751137FREDERICK JOEL LIM OR                                   10501
A0101411660000000751137IMELDA ONG                                              20500
B0101402770391034995001THE HOUSE PRINTERS CORPORATION                           1602
A0101408400394028886002DEC ORIENTAL FOOD STREET CO. LT                          0504
B0101408400394047325001VICLOR MICROLENDING INVESTOR                            11602
B0101408400394047325001CORPORATION                                             21600
A0101408400000001981666MANANSALA, MAPHIT NUDALO DBU J2                          0501
A0101408400394403584001FELIZARDO ROMERO OR                                     10501
A0101408400394403584001FLORDESETS ROMERO                                       20500
A0101408400394473872001ARCA, ROWENA LUGTU  OR                                  10501
A0101408400394473872001ARCA, EMMANUEL D                                        20500
A0101408400394478374070MARILYN C ZENAROSA                                       0502
B0101408950396041569001HEART INSTITUTE STAFF DEV. FUND                          1602
B0101408950396043161001ST. LUKE'S GLOBAL CITY -TRAUMA TEAM                      1602
A0101408950396567425001DR. SHEILA LYN REMOT RANIN                               0503
A0101408950396569875001BERNARDO, MARIA CRISTINA CORNEL                          0505
A0101408950396663666001EDGARDO SAN JOSE CRISTOBAL                               0501
A0101408950396726811001GERARD M. MORALES OR                                    10502
A0101408950396726811001REGINA ISABEL S. MORALES                                20500
A0101409180000003310243CARILLO, VIEL MERCK MINOSA                               0501
B0101412210399061592001ANTHONY S. TAO DBU A.S.T. CONSTRUCTION                   1601
B5501400120410042322003TRUMPH MOTORCYCLE CORPORATION                            1601
A2401400180411478374020MORI, LYDIA                                              0502
A2401400180411478374059ANALITA R. SUICO                                         0502
A2401400180411514423001DEALA, BERNARDITA GATCHALIAN                             0502
A0101403030441337771001**********                                               0501
A0101403320471518986001FARAH ALBANIA                                            0501
B0101410140000000499032V-COPY DUPLICATOR SERVICES AND                           1601
A1401400110492029549002TRIPTORS DIAGNOSTIC CENTRE                               0504
A1401400110492378227001VEJERANO, ROBERTO MAMORE                                 0502
A1401400110492620230001DELOS SANTOS, ENRICO PEREZ                               0503
A1601400170000006771759HONORIO, BRIAN HARRY LANA                                0501
A0101405940000001534269**********                                               0501
A0101408110515041358001MADE IN HEAVEN ENTERPRISE                                0501
B0101408110000003281503SEPTUS INC.                                              1601
B0101408530000000035889R.L. SUSANO REALTY CORPORATION                           1601
A0101411790000002275932MARIANO-CRUZ, MARIA ANTONIETTE                           0501
B0101403450521029991001**********                                               1601
A0101403450521238138001**********                                               0501
B0101403450521239481001**********                                               1602
A0101403450521239750002EDDIE L. CHUA                                            0502
A0101403610531219282001ALMENDRALA, FERNANDO GERODIAS                           10505
A0101403610531219282001OR ALMENDRALA, PAULINA                                  20500
A0101403610531444284001DUENAS, RENDER MACASPAC                                 10501
A0101403610531444284001OR DUENAS, RYAN                                         20500
A0101403610531762081001MIRANDA, SUSAN ESPINILI                                  0501
A2201400250561315662002LAARNI M. TARRONAS OR                                   10502
A2201400250561315662002RICHARD S. TARRONAS                                     20500
A0101407720602341731001************                                             0502
A0101404260611478374077LUCIA CAPILITAN                                          0502
A0101404260000003498533JOUSELYN PONTILLAS                                       0501
A0101409890000000209123NADONGA, ADRIANA LALU                                    0501
A0101413990000000205898**********                                               0501
A0101414120000000875663EVELYN D. TADALAN OR GLORIA                             10501
A0101414120000000875663F. MORALES                                              20500
A0101414120000002172583DELOS SANTOS, AUREA LOPEZ                                0501
A0101414120000006864442VALDEZ, EMERSON V. OR                                   10502
A0101414120000006864442INOCENCIO, EDWINA B.                                    20500
B0101406590662058753001F.C. DINO CONSTRUCTION                                   1603
A1301400340683378168001RODIL, CONSUELO CREUS                                    0501
A1301400340683495036001MARCELO, ELENA RIVERA                                    0510
A1301400340683511819002DELA CRUZ, NESTOR AGUILERA                               0501
A1701400230693478374044CECILIA CORRALES                                         0501
A0101408240000002821843LIMUEL T. LEDESMA                                        0501
A2801400100000002253732VIRAY, ANDREA ARANETA OR                                10502
A2801400100000002253732VIRAY, ADRIAN BALUYUT                                   20500
A4101400260000000377537JASMINE FATIMA WATER STATION                             0505
A4101400420000000121057ROMERO, JOCELYN FERRERA                                  0502
A4101400420814520766109MILAGROS E. BAWAG                                        0502
A4101400420814520766135MOTILLA, ROSELLE                                         0502
A4101400420814736230002SARMIENTO, RAFAEL CAMARCE                                0501
A4101400420814772577001FERMANES, EMILY CALAYAG                                  0501
A0101412340000003564469DONNEY ROY C. MORALES                                    0501
A0101404840000003069834***********                                              0503
A0101404840851520766065TAYSON, FERNANDO                                         0501
B0101406750000000090691THE PLAZA HOTEL BALANGA CITY INC.                        1605
A0101406750852478374105ROSECHEL T. MENDOZA                                      0501
A0101405070000000239241SASAKI, TOMOAKI                                         10501
A0101405070000000239241OR RODRIGUEZ, MEE LEN C.                                20500
A0101405070861478374074STA. ANA PURISIMA                                        0502
A0601400230000003015896MABBAYAD, JAMELO RAMEL QUERUBIN                          0502
B0601400230000000029861**************                                           1602
A0601400230891698269001DIMABUYU, LESLIE BALUYUT                                 0502
