F0101401250000004851161LORENZO, AURORA DELA CRUZ DBU                           12602CK1
F0101401250000004851161A. LORENZO SHELL                                        22600CK1
F0101400150061361421001J. C. ALABANZA                                           2503CKO
F0101409050352031646004DELTA EARTHMOVING, INC.                                  2610CKR
F0101408370382046274001SMART DRIVING CORPORATION                                2605CKR
F1401400110492020017002PEOPLE'S GENERAL INSURANCE                              12610CKO
F1401400110492020017002CORPORATION                                             22600CKO
F0801400290591395533002xxxxxxxxxxxxxxxxxxxxxxxxxxxxx                            2510CKO
