B0101408530516005188001SEARCHERS & STAFFERS CORP.                               1610
B0101408530516005189001SL SEARCH CORPORATION                                    1603
B0101408530000000035867WE SEARCH @ SEARCHERS & STAFFERS CORP.                   1605
B0101408530516524823001SL TEMPS INC.                                            1610
A0101408530000007981977LEE, LEA ANGELA BALINGIT                                 0501
B0101408530516036529001HALDANE INVESTMENTS NV                                   1610
A0101400730111520766064LITA L. LARIZA                                           0501
A1101400120313716731001CHU, LETICIA CHUA                                       10502
A1101400120313716731001CHU, ANITA CHUA                                         20500
A0101405070861289926002ALEA, EDGARDO EBORA                                      0501
A0101400860011375339001**********                                               0501
A0101400860011388186002TAN, MYRNA MENDOZA                                       0502
A0101400860011428673001**********                                               0502
B0101401250021019057001ARAGON SECURITY AND INVESTIGATION AGENCY                11603
B0101401250021019057001CORPORATION                                             21600
A0101401250021077163001OFRACIO, JUAN OLIVER SOLA                                0501
A0101401250000000441041LAGMAY, MERLITA L.                                       0501
A0101411370000000350478**********                                               0502
A0101400150000003162303JEMILY ANNE S. ALAPIDE                                   0501
A0101400150000003197820Joi Kristen M. Napoles                                   0501
A0101400150000002902752FISCHER, JANICE TUMAMBING                                0501
A0101400150000004915220FRANCO, ESTELITA FLORES                                  0502
B0101400150061023257001ISLAND PHOTO CENTER, INC.                                1601
B0101400150061025672002EASTERN POWER EXPRESS COMPANY, INC.                      1603
B0101400150061042227001BULKCEM PHILIPPINES, INC.                                1601
B0101400150000006432533QFI DISCOM.NCR, INC                                      1605
A0101400150061074546004RIINGEN, MARIA PATRICIA ZAMORA                           0501
A0101400150061364365008LEE, DAESOO                                              0501
A0101400150000000807749FERNANDEZ JR., PEREGRINO PUNAN                           0503
A0101400600071037799001********                                                 0501
A0101400600071233706001MILAGROS MERCADO OR                                     10502
A0101400600071233706001ROBERTO MERCADO                                         20500
B0101400600071498223001*********                                                1601
B0601400100081029288001ST. JOHN INTEGRATED SCHOOL OF ANGELES                   11605
B0601400100081029288001CITY, PAMPANGA                                          21600
B0601400100081040295002ANGELES BEACH CLUB RESORTS CORP.                         1603
B0601400100081040296001ANGELES BEACH CLUB TOWER, INC.                           1603
B0601400100000005690520LE GRANDE BEAUTY AND WELLNESS CORPO                      1602
B06014001000000071851533JJJ MINIBAR COR.                                        1603
B0601400100081458246001VANDERPAS DEVELOPMENT CORPORATION                        1601
B0601400100081557748001BELGOPHIL DEVELOPMENT CORP.                              1601
B0601400360000008477261SABELLON, JACKIELYN CAINGAT DBU KITCHEN                 11601
B0601400360000008477261LOVERS                                                  21600
A0601400520000004423301AGNE, JULIETA ALBANO                                     0501
B0601400520000000986741SANCHEZ MANUCUM & CO. CERTIFIED PUBLIC                  11602
B0601400520000000986741ACCOUNTANTS                                             21600
A0101410560000005836126BANES, GENELYN C DBU ORANGEDROP                         10501
A0101410560000005836126DIGITAL PRINTING                                        20500
B0101400730111007943002PHILIPPINE DAILY INQUIRER NEWSBOY                       11601
B0101400730111007943002FOUNDATION INC                                          21600
B0101400730111018269001PHILHEALTHCARE, INC.                                     1601
B0101400730111018269002PHILHEALTHCARE INC.                                      1601
B0101400730111025218001ADKINS TRAVEL AGENCY, INC.                               1601
B0101400730111100015004THE PHILIPPINE AMERICAN LIFE AND GENERAL                11602
B0101400730111100015004INSURANCE CO.                                           21600
A0101400730111298364001**********                                               0502
A0101400730111308294001JARDIOLIN, MAHAR B. OR                                  10501
A0101400730111308294001TAROY, JOSEPH S.                                        20500
A0101400730111403905001MONTERDE, ARNEL MORA OR                                 10502
A0101400730111403905001JARDIOLIN, MAJAR                                        20500
A0101400730111403905001MONTERDE, ARNEL MORA OR                                 10502
A0101400730111403905001JARDIOLIN, MAJAR                                        20500
A0101406040000002272471SI, VINCE LAWRENCE WONG                                  0501
B0101406040112021958001KNIGHTS OF COLUMBUS FRATERNAL ASSOC. OF                 11601
B0101406040112021958001THE PHILS. INC.                                         21600
A0101406040000000096888********                                                 0501
A0101413150000005944421WANG, AMI                                                0502
A0101412630000004062086BANZUELA, ELEANOR ADORNA                                 0503
A0101412630000004061987ANDES, JOANNE CAMILLE ROMA                               0501
A7201400170000002791371ALMONTE, JEFFREY ANTHONY PAREDE                          0501
A7201400170000003773040ESTOSE, JULIET CORAGE                                    0501
A7201400170000003773331ACLA, ESPERIDION AMORA                                   0501
A7201400170000003773604ORPADI LENDING SHOP, INC.                                0501
B7201400170000003773739NDC FISHING CORPORATION                                  1603
B7201400170152067937001PAGADIAN JUNIOR COLLEGE (PJC), INC.                      1603
A0101407270000000511646******                                                   0503
B0101407270162031529001CENTER INDUSTRIAL SUPPLY CORPORATION                     1602
A0101407270162201562004ANG, BEE ENG                                             0505
A0101407270162431645001MARYO J. DE LOS REYES                                    0502
A0101401090000001611449JEROME ALONZO                                            0502
A0101401090171196072001CARLOS M. ALMEDA                                         0510
A0101401090171370022001MACAPAGAL, LUALHATI SANCHEZ                              0501
A0101401090171451898002LANIWINONA B. DARE                                       0503
A0101401090171520604001CARMELITA OR JULIUS DALUPANG                            10502
A0101401090171520604001OR ZENAIDA MALAN                                        20500
A0101401090171781354001CLAUDIA S. MENDOZA                                       0501
B0301400530193034066168TAGUM COMMERCIAL & REALTY                               11650
B0301400530193034066168CORPORATION                                             21600
B0301400660000001020135*****                                                    1602
B0301400790000000040939ALLIANCE HYBRID SEED GENETICS, INC.                      1603
A0101401380000005320854TAN, JHONNY ANG                                          0502
A0101410720000009157280MEDINA, DIANA KATHERINE TORIBIO                          0501
A0101410720653042934001BMLP MOTOR WORKS                                         0503
A0101410720653333633001NAVIDAD, NOEL NILLO                                      0503
A3101400160000013289722BELTRAN, ZAMIR REMULLA                                  10501
A3101400160000013289722DBU ZRB LOGISTIC SERVICES                               20500
A3101400160221081200001YOSHINO, MITSUKUNI                                       0501
A3101400450000005355540SILVA, MILO GENIL OR                                    10501
A3101400450000005355540SILVA, EDNA TICZON                                      20500
B3101400450223034070001VILLA ESCUDERO PLANTATIONS AND                          11601
B3101400450223034070001RESORTS INC.                                            21600
A3101400450223222578001JUAN OR DELIA FULE                                       0502
A3101400870000000957893CHING, KARMELA AVILA                                     0501
A3001400130000002063441JONGKO, JOSE MARI MARCO OR                              10502
A3001400130000002063441JONGKO, DEBORAH                                         20500
A3001400130000008264751QUINGCO, JOECEL G.                                       0501
B1001400190000000124901AMPIT, MERILENE OR NILO OR RHEMA INDUSTR                11601
B1001400190000000124901IAL SALES                                               21600
A1001400190231032628001ELIZABETH AMADO NOBLE AND SONS                          10502
A1001400190231032628001CORPORATION                                             20500
A1001400190231478374116ESTRELLITA E. BERMUDEZ                                   0501
A1001400190231520766019GO, JUDITH SATURNO                                       0501
A1001400190231520766125YANA, MAYFLOR DAGOC                                      0501
A1001400350000000922058ARENO, ANN JANE BUCO                                     0502
B1001400480000000133257********                                                 1601
A1001400480000000606893DERECHO, REYNALDO RAMAYLA OR                            10502
A1001400480000000606893DERECHO, MILRENAH                                       20500
A1001400480000008502032GAMBE, CAROLYN ESPANUEVA                                 0501
A1901400290261037598001SCR ENTERPRISES                                          0503
A1901400290261547956001REYES, ELMER OBVIAR                                      0502
A1901400290261575043001VIOLETA VERGARA BANCORO                                  0501
B0101406460272007447001SYNERTRONIX, INC.                                        1602
A0101406460272742513001SANTOS, LORRAINE SILAO                                   0501
B0101406620273025492001FIRST BALFOUR INC.                                       1610
A0101406620273306796032EUGENIO U. FERNANDEZ                                     0501
A0101406620273519243001PRESCILDA B. CUSTARD OR TIMOTHY                         10501
A0101406620273519243001ALAN CUSTARD                                            20500
A0101400570281285653001EMMA CONCEPCION SY-YU OR                                10501
A0101400570281285653001KEVIN D. YU                                             20500
A0101400570281478374006ROSA BELLA R. DINGDING                                   0501
A0101411240000002332430UY, JUDY ANG                                             0501
B2601400270000000020628WMP GRAIN CENTER                                         1602
A0801400160000002287567ONG, VEDETTE TANIA COTINGHUA                             0502
B0801400160311494221001JUCABAN, LEO LAGOS                                       1601
B0801400160311731234001ILOILO JMP CORPORATION                                   1602
B1101400120313036429001PERPETUAL HELP MULTI-PURPOSE COOPERATIVE                 1610
B1101400120313058888001CORNER BROOKE REALTY INC.                                1603
A1101400120313645550001UY, ORLANDO CO OR                                       10501
A1101400120313645550001UY, HEIDI JOY TAN                                       20500
A3401400280000000784692VISTA, LECEL CERILO                                      0502
A0101402350321185453001LIM, PONCIANA OR LIM, SEVERIANA                         10501
A0101402350321185453001OR SANTIBANEZ, BELINDA                                  20500
A0101402350321327884001ANG, MONICA CHOY                                         0501
A0101402350000000521184************                                             0501
B0101402060351009365002GREEN VALLEY TOWNHOUSE OWNERS                           11601
B0101402060351009365002ASSOCIATION INC.                                        21600
A0101402060351078081001BATE, EDGARDO SANTOS                                     0501
A0101402060351217444024EMPLOYEES OF REPUBLIC ASAHI GLA                          0501
A0101402060351380947001**********                                               0501
A0101402060351632932001MANCILLA, ABIGAIL SARDILLO                               0501
A0101402060000000042253COLLARGA, ERIC DBU TECHYPE I.T.                         10501
A0101402060000000042253SERVICES OR AVEL                                        20500
B0101409050352044167001RECYCLE PLUS, INC.                                       1601
B0101409050000010506800EXIST CORPORATION                                        1601
B0201400760000001612835GLOBAL STAR MOTORS CORPORATION                           1602
B0201400760374027367001HONDA CARS CEBU, INC.                                    1602
A0201400760000005710889DY, CHARLIE BALENA                                       0505
A0201400920000011194011AMORES, RENE CABANILLAS OR                              10505
A0201400920000011194011CAPUL, ORLANDO MANCO                                    20500
A0201400890000002270213ORTEGA, GILBERTO                                         0501
A0201400890376633154003JIMENEZ, PETER UTLANG OR                                10501
A0201400890376633154003JIMENEZ, MARIA T                                        20500
B0101402930381025739001ROBINSONS LAND CORPORATION                               1601
B0101402930381030377002COMMUNITY BAPTIST CHURCH                                 1605
A0101408370382205132001DR. MILAGROS T. JOCSON                                   0501
A0101408370382205236001DR. CYNTHIA A. AGUIRRE                                   0502
A0101408370382480808001GARY MERCADO OR MELISSA MERCADO                          0503
A0101408790000002031510LUIS FRANCISCO G. SOLIVEN                                0502
A0101408790000004983473EDWARD G. LUMBAQUIN                                      0501
A0101408790000005293603FRANCESCA O. SANTIANO                                    0502
A0101408790000004697145OLBES, JENNY VI MUNCAL                                   0502
A0101408790383242406001KAW, ALEXANDER OR KAW, JENNIFER                          0503
A0101402770391211599001PUNZALAN, ANGELITA DIZON                                 0502
A0101402770391313030002********                                                 0502
A0101405490000004353122JIMENEZ, CARL MARTIN BELIZARIO                           0501
B0101405490000008380621BMS JANITORIAL AND ALLIED SERVICES                       1603
A0101405490392552022001MARIA THERESA D. SOLIS OR                               10501
A0101405490392552022001BENJAMIN D.SOLIS                                        20500
A0101405490392668882001AUREL MARK M. RAMOS                                      0501
A0101408400394230018001JOSE H. GAOAT JR. OR                                    10503
A0101408400394230018001JANEFER F. GAOAT                                        20500
A0101408400394513972001VALENCIA, JAZON or                                      10501
A0101408400394513972001VALENCIA, JAQUIE                                        20500
A0101408950000003439201FIRMEZA, ANDREA                                          0501
A0101408950000000037005TAN, JENNIFER LEE                                        0501
A0101409180000002036602CHUA, STEPHANIE TAN                                      0502
A0101409210000009309753SENIR, MARIA MICHIKO REYES                               0501
A0101409210000010895584CARBONELL, DEILHMARC KENNEDY ES                          0501
B01014092100000027833406-24 PROPERTY HOLDINGS, INC.                             1601
B01014092100000027833336-24 PROPERTY HOLDINGS, INC.                             1601
B0101409210000002783271CRESCENT PARK 14-678 PROPERTY HOLDINGS,                 11601
B0101409210000002783271INC.                                                    21600
B0101409210000002783260CRESCENT PARK 19-1 PROPERTY HOLDINGS,                   11601
B0101409210000002783260INC.                                                    21600
B010140921000000278325318-2 PROPERTY HOLDINGS, INC.                             1601
B0101409210000002783242CRESCENT PARK 6-24 PROPERTY HOLDINGS,                   11601
B0101409210000002783242INC.                                                    21600
B010140921000000278323119-1 PROPERTY HOLDINGS, INC.                             1601
B01014092100000027832206-3 PROPERTY HOLDINGS, INC                               1601
B010140921000000278321914-678 PROPERTY HOLDINGS, INC.                           1601
B0101409210000002783208CRESCENT PARK 6-3 PROPERTY HOLDINGS,                    11601
B0101409210000002783208INC.                                                    21600
B0101409210000002783191CRESCENT PARK 18-2 PROPERTY HOLDINGS,                   11601
B0101409210000002783191INC.                                                    21600
A0301400820000007372792ALARO, ROSEMARIE P.                                      0502
B0301400820000010546573THRIFT AND LIVELIHOOD MULTIPURPOSE                      11605
B0301400820000010546573COOPERATIVE                                             21600
B0301400820409055791001CONSOLIDATED COOPERATIVE BANK                            1601
B0301400820409055791001CONSOLIDATED COOPERATIVE BANK                            1601
A2401400180000005287021BAYHON JR., EDUARDO DIESTRO                              0503
B2401400180411014378001RD HARDWARE & FISHING SUPPLY, INC.                       1601
B2401400180411023294001RD TUNA VENTURES, INC.                                  11610
B2401400180411023294001TIN:001-947-522                                         21600
B2401400180411026265001SOUTH SEA FISHING VENTURES PHILS, INC.                   1605
B2401400180000000073721ASIA PACIFIC ALLIED FISHING                             11605
B2401400180000000073721VENTURES, CORP.                                         21600
B2401400180411061343002OBET AND BEA INDUSTRY CORPORATION                        1605
A1201400150421253798002KUMAR, SUNIL                                             0503
A0901400220000000012335**********                                               0503
B0901400220432750068001NOCOM, JOSELITO GABRIEL                                  1602
B5101400100000010370942ZAMUCO, LEOVEMIN CABANGCA DBU VALEN                      1602
A0101403030441239746002**********                                               0501
A0101403030441239746003**********                                               0501
B0101403030441314128003**********                                               1601
B0101403320000013283659ANHUI TIANRUN CONSTRUCTION                              11601
B0101403320000013283659GROUP CO. LTD.                                          21600
B0101406330472021511003ASSOCIATED WIRE CORP. OF THE PHILS.                      1602
B0101406330472021960001DANVIEW PROPERTY HOLDINGS CORP.                          1601
A0101406330472314548001SOCORRO O. RANGEL                                        0501
A0101406330472478374049DANILO GIL M. SETENTA OR                                10502
A0101406330472478374049DELIA A. SETENTA                                        20500
A0501400170000000495250POSERIO, SALVADOR RICO                                   0501
A3801400170000010082970JOSEPHINE I FAUNILLO                                     0501
A1901400160000013288274MENDOZA II, JOSE RANDY SOLIS                             0501
A1901400160491244585001MARIO E VILLENA                                          0501
A1401400110000003475643*******                                                  0504
A1401400110000010622549ARAGONA, ANGELINA ZORDILLA                               0502
B1601400170000000099092HIAN HIAN Y. SY OR ARSENIO SY OR                        11601
B1601400170000000099092ADRIANNE Y. SY                                          21600
A1601400170000001068684JOANNE MARIE L. BUBAN                                    0501
B0101407430503006833001UPS DELBROS TRANSPORT INC.                               1601
B0101407430503006836002UPS DELBROS INT'L EXPRESS                                1601
B0101403580511005504001EXCHANGE PROPERTIES RESOURCES CORP.                      1602
B0101403580511015278001MTV INVESTMENT PROPERTIES HOLDINGS                      11605
B0101403580511015278001CORPORATION                                             21600
B0101403580511024916001JAYJAY REALTY CORPORATION                                1603
A0101403580511026941001CECILIA NARVAEZ Y DISENOS                               10502
A0101403580511026941001INTERIOR                                                20500
B0101403580511043260001SOUTH PACIFIC CHEMICAL INDUSTRIES INC                    1601
A0101403580511150629008MIRIAM HIPOLITO OR RAMONA PENA                          10501
A0101403580511150629008OR GERALDINE LIM                                        20500
A0101403580511150665001CARLITO G. JABONILLO                                     0505
A0101403580511279669001JOSEPHINE MATEO-BULURAN                                  0501
A0101403580511339686001PRAKASH GHANSHYAMDAS CHANDNANI                           0505
B0101403580511487333001KYNSWORD EQUITIES, INC.                                  1602
A0101403580000003311753BASAS, ROSALINDA YNGCONG                                 0501
A0101405940000005359559GALVEZ, RAFAEL ESTRERA                                   0501
B0101405940512030961001STARWORLD CORPORATION                                    1610
A0101405940512517320001********                                                 0503
A0101405940512682265001BANAL II, HERNANDO TUAZON                                0502
A0101408530000002980578ALFONSO, MA VIOLETA GANCAYCO                             0505
A0101408530516500859001TIONGLICO, OLIVER CO                                     0502
B0101411400000001280546WARNER BARNES TRAVEL, INC.                               1601
B0101411400000006561071GALACTICA TRAVELS, INCORPORATED                          1601
A0101411790000012535249MAGTARAYO, HELEN BRUL                                    0501
A0101411790000013288569LINAOGO, MA. LORELEI ROMAN                               0501
A0101411790518055764122DIAZ, MA. EDNA ROSARIO ACOSTA                            0501
A0101411790518055815169VALBUENA, NANCY NIVAL                                    0501
B0101411790000007879110CONREV INC.                                              1601
A0101412050000000367908*************                                            0502
A0101403450000000009801**************                                           0501
B0101403450521011621002FIDELITY STEEL MANUFACTURING, INC.                       1601
B0101403450521012068002********                                                 1601
B0101403450521029302001***********                                              1601
B0101403450521029691001**********                                               1601
B0101403450521033888001**********                                               1602
A0101403450521238148001**********                                               0501
B0101403450521239535001******                                                   1602
A0101403450521298753001**********                                               0501
B0101403610531029447001QUEENS BEST COOKING OIL AND                             11602
B0101403610531029447001MARKETING CORP.                                         21600
B0101403610531035875001G'TECHNOLOGIES INTL. INC.                                1605
B0101403610531041038001ANM CHEMICAL RESOURCES INC.                              1605
A0101403610531478374002GRAPE, IMELDA HANDOG                                     0501
A2201400250561028596004ST. RAPHAEL THE ARCHANGEL                               10501
A2201400250561028596004PARISH                                                  20500
A2201400250000001066028SALVADOR FREIGHT CORPORATION                             0502
A2201400250000003558081RAMOS, RICARDO RAZON DBU                                10505
A2201400250000003558081AMAZING KIDS INTERACTIVE                                20500
A2201400250561371209001ANTONIO S. TANJUAKIO                                     0501
A0101407720000000510603CANO, KRISTINE THERESE CURA                              0501
B0101407720602037259001EMERGENCY MEDICINE SCIENTIFIC RESEARCH                  11601
B0101407720602037259001FUND, INC                                               21600
A0101407720602167450001RAPHAEL GERARDITO MIRASOL OR                            10505
A0101407720602167450001NORMA JEAN MIRASOL                                      20500
A0101407720602397503001DE JESUS, GERARD OSMENA                                  0506
A0101407720000003886773EMIR D. PUNSALAN OR ERANIO L.                           10501
A0101407720000003886773PUNSALAN                                                20500
A0101407720000003886977DUNGO, EDISON TAMAYO                                     0501
A0101412180000000501551BILOG, ROSELYN BADAL                                     0501
A0101412180000000333593RUIZ, LUISITO LACSAMANA OR                              10501
A0101412180000000333593RUIZ, ABE EDUARDO ANTIQUE                               20500
B0101404260611026173001PHINMA PROPERTY HOLDINGS CORP.                           1610
B0101404260611028187002AMERICAN PRIME MANPOWER SERVICES, INC.                   1602
B0101404260000000157026INTERPRO FOOD SPECIALIST INC.                            1605
B0101404260000008700721SYNERGOS PASSION ASIA, INC.                              1602
A0101404260000003498482EDNA S PLAN JANITORIAL SERVICES                          0501
A0101404260611489159001RAZOTE, SHIRLEY SANTOS                                   0501
A0101404260000006374514GARDE, JOEL BABLES                                       0501
A0101411530000006217574MOMMY & ME ENTERPRISES                                   0503
A0101413440000002125684CALAWOD, L. DBU NEUROBALANCE OC                          0501
B0101413440000002691661VASWANI, R. DBU SERENA ENTERPRISES                       1601
A0101413570000001720143JOCELYN F. SALONGA                                       0501
A0101413570000005867430*******************                                      0501
A0101413570000007373842WEE, YASMEN ANGELES                                      0501
A0101413990000009073354JFF ELECTRICAL CONSTRUCTION                              0502
A0101414120000004603081BRIONES, HELEN RUTH PASCUAL                              0502
A0101414120000000875572REDESIL CONSTRUCTION                                     0502
B0101406590662037667001XANFIRST REALTY CORPORATION                              1601
A0101406590662497497001BELMONTE, FELICIANO ISAAC GO                             0502
A1301400500000002063816LOLITA T. MANUEL                                         0501
B1301400500000003071901FERNANDEZ COLLEGE OF ARTS &                             11602
B1301400500000003071901TECHNOLOGY, INC.                                        21600
B0101408240711024282002MAXI CREDIT CORPORATION                                  1601
B0101408240711039263001STALWART REALTY, INC.                                    1605
A0101408240711420342001SONIA TERESITA HENDERSON                                 0503
A0101408240711424673001PASCUAL, MA. LIZBETH                                     0502
A4101400260000001783866FLORES, PEDRO FROMENCIO FERNAND                          0502
A4101400390813640996001DELA CRUZ, LILIA PALON                                   0501
B4101400390813751573001E.GROUP VENTURES INC.                                    1604
A4101400420000003715495GREGORIO, JOMER BENSING DBU CJG                         10502
A4101400420000003715495DIGITAL MARKETING                                       20500
A4101400420814357382003REMULLA, GILDA VASQUEZ                                   0501
A4101400420814365288001LANDICHO, WILFREDO DE JESUS                              0501
A4101400420000011952099AURORA G. DINO                                           0501
A4101400550000001332592RASE, ARNALDO ROBIS                                      0502
A4101400550815047715001CAGINGIN, LAMBERTO JAVIER                                0501
A0101412340000003349119JOHN VINCENT V. TABUG                                    0501
A0101412340000003349706MARIA GRACIA T. VIZCARRA                                 0501
A0101412340000003438511JENNIFER GAYLE B. REYES OR                              10501
A0101412340000003438511JOCELYN B. REYES                                        20500
B0101412340850047476001SWISS FINANCE & INVESTMENTS CORP.                        1605
B0101412340850047786001SAINT ANTHONY SCHOOL OF LOS BANOS INC                    1610
B0101404840851047568001SAINT FRANCIS DE ASSISI EDUCATIONAL                     11610
B0101404840851047568001FOUNDATION INC.                                         21600
A0101404840000005820526BUYERS AND SELLERS DISTRIBUTORS                          0502
A0101404840851511380001PRADO, DANILO VITUALLA                                   0501
A0601400230000002310241VILLEGAS, KRISELDA TANJUAQUIO                            0501
A0601400230000001687192MIRANDA, CHERYLL CELSO                                   0501
A0601400230891390383003DEOGRACIAS KERR S. GALANG                                0501
