B0101410720000000029996J.C.T. EZ LOAN CORPORATION                               1602
A0101410720000007843323CUNANAN, JANE CATO                                       0502
A0101410720000011909632BLANCO JR., R DBU MYB ROYAL SPA                          0502
A0101410720653174169002GALVEZ, GLENN ANTHONY BAJA                               0501
A0101410720653299707002GALVEZ, GERALD JOSEPH BAJA                               0501
B0101406620273009744001NORCONSULT MANAGEMENT SERVICES PHILS.,                  11602
B0101406620273009744001INC.                                                    21600
B0101406620273039712001OMNIPRIME MARKETING, INC.                                1601
B1901400160491052059003FIRST UNITED 23, INC.                                    1610
A0101400860000001348614**********                                               0501
A0101400860000011515950**********                                               0502
A0101400860000011515972**********                                               0503
A0101400860000001005547**********                                               0501
A0101400860011420919001**********                                               0505
A0101400860011496074002**********                                               0501
A0101400860011499528001**********                                               0501
A0101401250000004980689FRAGANTE, JANA FLORES                                    0501
A0101401250000008460008YAO, EDISON UY                                           0501
A0101411370000003294900FARRALES, MARCUS GLEN B. DBU                            10502
A0101411370000003294900GOLDLINE BROKERAGE SVCS                                 20500
A0101400150000003164127ELVIE P. DELA CRUZ                                       0501
A0101400150000006004331MENA OJEDA JR OR ERIC MANUEL                            10501
A0101400150000006004331BELLO OR DIANE SUBIDO                                   20500
A0101400150000009401650SHINJI YAMAGUCHI                                         0501
A0101400150061231268003TAN, CORAZON J.                                          0502
A0101400150061232035003NORBERTO REYES OR                                       10501
A0101400150061232035003SOLEDAD REYES                                           20500
A0101400150000000807396ROWENA N. ROYO                                           0501
A0101400150061626610001NATIVIDAD A. PAPPAS OR MARIA                            10502
A0101400150061626610001MARGARITA A. CEREZO                                     20500
A0101400150000001708009SISON, JOSEPH CECILIO NACHURA                            0501
A0101405810072361243002PONSARAN, MARY JANE RAMOS                                0503
B0601400100081034116001FIESTA COMMUNITIES INCORPORATED                          1610
A0601400100000010025068MARASIGAN, CHRISTOPHER LOPEZ DB                          0502
A0601400360000007539708VICENCIO, JORGE AMADO DIZON                             10501
A0601400360000007539708OR PILAPIL III, ANTONINO                                20500
A0601400360000013099599DAVID, LEILANI IBE                                       0501
A0601400360000000225250GUIAO, JEFFREY BONUS DBU J3A                            10510
A0601400360000000225250FOODLINE JT GUIAO, JOAN                                 20500
A0101413280000012146262**********                                               0501
A0101414090000004803598UY, KRISTOPHER ROBERT SANTOS                             0501
A0101414090000006211563JUGO, CHELOY CORINA CASTILLO                             0501
A0101410850000014125036PIGASON, JULIUS ALBERT PUJOL                             0502
A0101410850000014125092IMAI, JUNICHI .                                          0501
A0101410560000002316569**********                                               0501
B0101406040000001392041********                                                 1603
A0101401960121298123001LAILA BURABOD CAY                                        0501
A0101401960121325958001MACAPAZ, JOSE BRENDO REQUIZO                             0502
B0101412630000002186570JEC REALTY CORPORATION                                   1602
B0101401830141037520001DLPRO PHOTOGRAPHY                                        1601
A0101401830141206536001PEDRO S. FLORES OR                                      10505
A0101401830141206536001IRMA G. FLORES                                          20500
A0101401830141207328002MARIA LUISA A. DE LUNA OR                               10502
A0101401830141207328002JOSE RIZAL TECSON                                       20500
A0101401830141306724003GUEVARRA JR., ANTONIO PASCUAL                            0502
A0101401830000013257568MAGTALAS, LEE MARVIN BACTAD  OR                         10503
A0101401830000013257568MAGTALAS, MARIA VERONICA                                20500
A0101401830000013257648MAGTALAS, LEE MARVIN BACTAD OR                          10503
A0101401830000013257648MAGTALAS,MARIA VERONICA                                 20500
A0101401830141546547001REATAZA, NELIA MORABE                                    0503
A7201400170000011158200ESPANOLA, ANGELA J. OR                                  10501
A7201400170000011158200ESPANOLA, RENNOR                                        20500
A7201400170000007185911ARANDING, DWIGHT JOSHUA MEDADO                           0502
A0101400440000013845451MAMARIL, CAROLYN SERNADILLA                              0502
A0101407270000004915880DISTOR, JOY D                                            0501
A0101407270000010200667JAMLIG, CARLO RAMIRO BUENAVENTU                          0502
B0101407270162050140003NORTHPOINT, INC.                                         1610
A0101407270162351252001WILFREDO C. CUEVAS                                       0502
B0101407270162520398001******                                                   1601
B0101401090000014139403TAMOLANG, ROSE ANN ZARATAN                               1601
A0101401090000014126940ATADERO, LEAH CAMANDONA                                  0502
A0101401090000014139772PANG, MAE LISETTE JAURIGUE                               0501
B0101401090000005157780INGUSAN, GREGORIO & INDUCTIVO, LINA &                   11601
B0101401090000005157780INGUSAN, ARSENIO                                        21600
B0101401090171016552002FAMILY MEDIA ADVOCACY FOUNDATION INC.                    1601
A0101401090171196383001RECTO REX M. CALINGASAN                                  0502
A0101401090000000210431LITAO, RODRIGO ANDAYA                                    0501
A0101401090171572770001MA. LUISA AQUINO,FRANCIS ROASA,                         10501
A0101401090171572770001OR ALBERTO MOLANO                                       20500
A0101401090171572770001MA. LUISA AQUINO& FRANCIS ROASA                         10501
A0101401090171572770001& ALBERTO MOLANO                                        20500
A0301400530000002318561VILLANUEVA, FEDERICO MAGPAYO OR                         10501
A0301400530000002318561VILLANUEVA, MARI                                        20500
B0301400530000014129870TAGUM CITY COUNCIL OF WOMEN FOUNDATION,                 11605
B0301400530000014129870INC.                                                    21600
B0301400530000006477321*****                                                    1602
B0301400530193674940001APOLINARIO, FRANCIS A. OR                               11605
B0301400530193674940001LOU JOSEPHINE M.                                        21600
A0301400530193699754001BUTALID, FELINA L.                                       0502
A0301400530193753759001TAYONG, EDILBERTO L. OR                                 10505
A0301400530193753759001TAYONG, RITA M.                                         20500
B0301400660194046672088BUDGET SAVER'S BUILDERS SUPPLY                           1601
A0301400660000000048406GEORGE T. BAUTISTA AND AMELITA                          10501
A0301400660000000048406M. BAUTISTA                                             20500
A0301400790000000435994********                                                 0502
A0301400790000002301393BARCELONA, JANET TIZON                                   0501
A0301400950000001379535SO, GIOK SU OR                                          10501
A0301400950000001379535SO, FELISA CHENG                                        20500
A0101401380201400137001BATINGAN, EVELYN MARCELO                                 0501
A0101410720000009157193LOMONDOT, ROCMA ADIONG                                   0501
A0101410720000000211769GAN, ROWENA NAVARRO                                      0502
A0101412500000014062432MACSABEJON, NIEVA                                        0503
A3101400160000014129181SAMONTE, SYLVIA MAE BARANDA                              0501
A3101400160000014129847ADAO, JANELLE GALLIVO                                    0501
B3101400160221284706001INSTITUTE FOR FOUNDATIONAL                              11605
B3101400160221284706001LEARNING, INC.                                          21600
B3101400160000000006577INSTITUTE FOR FOUNDATIONAL LEARNING INC                  1601
A3101400160000004362903REYVELINDA E GUEVARRA                                    0502
A3101400450000013739676MARIANNE CRISELDA D. BELEN                               0501
B3101400450223028468001NEW ARMSTRONG SECURITY AGENCY                            1602
A3101400740000013957145RESIDE, JULIUS TALACAY                                   0501
A3101400870000003515273CALIDA, NORIETA WAGAN                                    0501
A1001400190231478374116ESTRELLITA E. BERMUDEZ                                   0501
B1301400760000000050819HC FAM HOLDINGS INC.                                     1601
A1301400760000001294913CORPUZ, AMELIA GALANG                                    0501
A0101401670000009425543NATCHOR, LITO GAMINO                                     0502
B0101401670000008000831JACKPHARMA INC.                                          1602
A0101406620000002009201GANCAYCO, MARIA CARMEN                                  10501
A0101406620000002009201BERNADETTE K.                                           20500
A0101406620000014136573JAMBARO, MELODY LANZANAS                                 0501
A0101408660000013602090PUJALTE, NERY ORJALO                                     0501
A0101408660274738415001GOSINGCO, MARY JANE TONG JT                              0501
A0101411110276784754088SERRANO, EDGARDO ASIS                                    0501
A0101412470000000853834CHUNG, EUN JOO                                           0502
A0101412470000002295907PALANCA, NORMA QUIRINO                                   0501
B0101400570281034598001INTERNATIONAL FAMILY FOOD SERVICES, INC                  1601
A0101400570281258962001POOTEN JR., JAMES BAGANO                                 0501
A0101400570281362546001WEE, DENNIS LIM                                          0501
A0101400570000005666453YU, LESTER CO                                            0501
A0101411240000014133432GEGAJO, LUISITA FRANCISCO                                0501
B0501400200000000035710GOLDEN DRAGON MOTOR SALES CORP.                          1601
A0501400200000002306150PACIS, WILMA RAMOS                                       0502
A2601400270000010433762WHITAKER JR., PHILIP AGGABAO                             0505
A1101400120000009119591DIOPER SOLIDOR GATELA                                    0501
A3401400280000006791100FERNANADO D. BEGAS JR.,                                 10502
A3401400280000006791100DBU BEGAS MERCHANDISING                                 20500
B0101402350321041173001GO TEC INTERNATIONAL BUSINESS SCHOOL,                   11603
B0101402350321041173001INC.                                                    21600
B0101402350000007062860PRIMERA BIOSOLUTIONS INCORPORATED                        1601
B0101402510341020561001PHILIPPINE PHARMACISTS ASSOCIATION                       1602
A0101402510341196491001JOSE M. TIONGCO                                          0502
A0101402510341325995002ALEX T LIM OR ELISA N LIM                               10502
A0101402510341325995002A.E.L. MARKETING                                        20500
A0101409050000003533582CLEMENTE, JANICE R.                                      0502
A0201400920000007951720TUBO, EDGAR ABAD                                         0501
B0201400920000000007974NEW YUTEK HARDWARE  & INDUSTRIAL SUPPLY                 11608
B0201400920000000007974CORP.                                                   21600
A0201400920000002804480MIRANDA, SAMMY                                           0501
A0201400890000014136233OCIO, LINDLEY JAMORA                                     0501
A0201401020000000056233BIG ATIN TRADING                                         0505
A0101402930010120000565VILLALOBOS, DBU MD PRINT WORLD                           0505
B0101402930000005645952FARMFRESHFORYOU CORPORATION                              1601
A0101402930381205134001EDMUNDO SANIEL OR                                       10501
A0101402930381205134001MEDIADORA SANIEL                                        20500
B0101402930381321280003S.D. FLORES CORPORATION                                  1602
A0101408370382455223001DR. ROMMEL D. BAUTISTA                                   0502
B0101408790383040734001RADIOWEALTH FINANCE COMPANY, INC.                        1605
B0101402770000001571626BEARING CENTER & MACHINERY, INC.                         1601
A0101402770391043391001IMPRENTA ISABEL                                          0502
B0101402770000000080635PHILIPPINE SKYBIRD INDUSTRIAL                           11603
B0101402770000000080635CORPORATION                                             21600
A0101405490000000232453ROMEL P. ALMEDA                                          0502
A0101405490000001092579LOURENCE E. ESCANLAR                                     0501
B0101405490392020556001AIRFREIGHT 2100 INCORPORATED                             1601
B01014054903920389180021STSERVE LOGISTICS, INC.                                 1601
A0101405490392170286001MARY JANE P. SABILI                                      0501
A0101405490392176510001MA. LUISA D. CONCEPCION                                  0502
A0101405490392542313002MARTIN A. CLAUDIO OR                                    10501
A0101405490392542313002MARICRIS D. CLAU                                        20500
A0101408400000001981644HINOSO, PATNUBAY RAMEL OR                               10501
A0101408400000001981644HINOSO, EDWIN BELZONSE                                  20500
A0101408950000010507096TATCO, VICTOR REYES                                      0502
A0101408950396373113001DR. VIRGILIO M. NOVERO, JR. OR                          10510
A0101408950396373113001MARIA LOWELA C. NOVERO                                  20500
A0101408950396565099001DR. BENJAMIN DANIEL S. VALERA                            0502
A0101408950396648660001DELA PENA, ARTURO SILVA                                  0501
A0101409180000008122347SILLOTE, JOENALYN INTIA                                  0502
B0101409210000008642308TERROIR PHILIPPINES, INC.                                1605
A2401400180000012748591AARON JR., EDUARDO CAGBAY                                0502
A2401400180000005536621BANTUG, IMELDA MARAVILLOSA DBU                           0506
A2401400180000010066365DULLA, JOE BEN MAQUILING DBU                            10502
A2401400180000010066365DAYO BUSINESS CENTER                                    20500
A1201400150000001863298MOLL, MONICA ISABEL NILO                                 0501
A0901400220000011299239**********                                               0501
A0101403030441079735001**********                                               0501
A0101412890470511412001TORRES, NELSON DOGILLO                                   0501
A0101412890000000371453DOLERA, PERLA DE GRACIA                                  0501
A0101410140000001939984DELANTAR, DARMEL URAGA                                   0501
A0101412760000001399226SORIANO, DIVINE GRACE DIONISIO                           0501
B0101412760000007821954OLYMPUS COPY PRINTING CORP.                              1603
A1901400160000011077893MARILYN M. BERBERABE                                     0504
A1901400160491402248001RONNEL M REYES                                           0501
B1601400170494061553001BOOMSOURCING INC.                                        1605
A0701400260000002339095BERNARDO JR., JAIME MIRALLES OR                         10502
A0701400260000002339095BERNARDO, CYRIL                                         20500
B0101407430000000044926JOSEPH BINGE B. MACASERO                                 1602
B0101407430000000035316D' FRADA ALLIED SERVICES INC.                            1603
A0101407430503036416001JUPITER'S BUTCHER SHOP                                   0510
A0101403580000007265423GALLAR, KRISTINE JOY SOMERA                              0502
A0101403580000012912128GRETCHEN ANA TUMAOB                                      0501
B0101403580000000922883UXMNL INC.                                               1603
A0101405940000002268711CASTILLO, GERARDO MALVAR                                 0501
A0101405940000005359275PASTORIN, MARIA RUSSEL AGUIRRE                           0502
B0101405940000008478771HIGH ADSVENTURE INC.                                     1601
B0101405940512539189001FILLED BY GRACE INC.                                     1604
A0101408530516433800001***************                                          0502
A0101408530000008159542JOHN CHRISTOPHER PAPAS AQUINO                            0501
B0101403450521353210002**********                                               1601
A0101403610000012132653ENRIQUEZ, JELLO NAZARENO                                 0502
A0101403610531219566001TAN, CARMELITA D. OR                                    10502
A0101403610531219566001YASON, AMELIA V.                                        20500
A2201400250000007122727GARCIA, ADONIS DE VERA DBU DOC                          10501
A2201400250000007122727DIAMONG MARKETING                                       20500
A2201400250000009019858RTCO ARCHITECTURE                                        0503
A0101410690000003027578ALVAREZ JR., ARIEL VILLA                                 0503
B0101407720602035999001GALLANTRY SECURITY & INVESTIGATION                       1605
A0101407720000005100230RODRIGUEZ, ANDREI RHONEIL MANCE                          0503
B0101412180000003275192SOLIDPOINT MANPOWER AND ALLIED SERV                      1605
A0101412180000000333560BENAVIDEZ, YVONNE REBECCA V                              0502
B0101404260611005561001WILSTRONG LUMBER & HARDWARE                              1603
A0101404260611478374085ROSALINA SUMILE                                          0501
A0101404260611478374121FLORDELIZA B. HUVALLA                                    0501
A0101404260000001725355**********                                               0501
A0101409890000000004593RAGOS TY, DESMOND CARVEY TAN                             0501
A0101409920000006336785NAVARRO, NORMAN CALAPIS                                  0502
A0101411530000005198256CASTRO, MARIA PAZ APACIBLE                               0501
A0101413440000002846360CABIGON, JHASON JOHN JOVEN                               0501
A0101413440000003298173MACANAS, MA. LINDA ADVINCULA                             0506
A0101413570656057648234JERICO SANDOVAL                                          0502
A0101413990000006768581NEBRIA, ESTER P. DBU BUTTER-NUT                         10503
A0101413990000006768581BAKESHOP                                                20500
A0101406590662289338001KIM C. DINO                                              0503
B0101406590662634974001CITY HILLS BUILDERS (CHBC) CORPORATION                   1601
A1301400210000000915851DARCEN,DIANA INGENTE OR DARCEN,                         10501
A1301400210000000915851WEGELINA INGENTE                                        20500
A1301400210682478374062MA. ERLINDA C CHUA                                       0501
A0101408240000010148011YNION, ROMMEL SALVA                                      0501
A0101408240000008160143ROWENA P. GONZALES                                       0502
A0101408240711506076001TORRES, ROY CARLOS CONDE                                 0501
A0101408240711759891001BONTIA, NELIZA MARFA                                     0502
A2801400100712251595001VALDEZ, CORAZON REYES                                    0502
A4101400260000005333277SY, ALVIN BELLO                                          0501
A4101400390000012157232JAN GABRIELLE R. SOBREMONTE                              0502
A4101400390813404913002DUCAT, ARNEL FRANCISCO                                   0505
A4101400550000002090871SIOSON, JESSALY JOYCE CUSTODIO                           0502
A4101400550000000315040BUMA-AT, THELMA                                          0501
A0101412340000007305564ELNA O. GALAROZA                                         0501
A0101404840851298552056ROSARIO GABAYERON                                        0501
A0101406750000006303351**********                                               0501
B0101406750000000481021AU VENTRE' CO. LTD                                       1601
A0101405070000003439672GOMEZ, ALFREDO YUMUL OR                                 10501
A0101405070000003439672GOMEZ, PAUL A.                                          20500
B0101405070861034415001ROTARY CLUB OF DOWNTOWN MANILA                           1601
A0101413860000012248247DELA CRUZ, DESIREE ADRID                                 0502
