F2201400250561409939001DRA. LYRA GRACE S. TORIO                                 2502CKO
F0201400180000000450417ARCENAS, MARILYN OR                                     12501CKO
F0201400180000000450417ARCENAS, VICTOR                                         22500CKO
F1801400130151048770001MSU-IIT NMPC BURU-UN ILIGAN BR.                          2603CKR
F0101405780212039655001CMC DIAGNOSTICS, INC.                                    2602CKR
F0101408400394030136001ASP MANPOWER SERVICES                                    2610CKR
F0101410690600047128001PIG IMPROVEMENT COMPANY, INC.                            2601CKR
F4101400260812028697001WELLCARE CLINICS AND LAB., INC.                          2610CKR
F0301400110191029587008DAVAO EVERFLEX ELECTRICALS &                            12605CKR
F0101401670271555562004GREEN ASIA REAL ESTATE AND                              12601CKR
F0101402060351046144001BROWNSTONE ASIA-TECH,                                   12602CKR
F0101410690600047000002HOLIDAY HILLS STOCK & BREEDING                          12601CKR
F0101404840851041585005TOM'S WORLD PHILIPPINES                                 12601CKR
F0101406750852044869001SAFEBOOKS BUSINESS SOLUTIONS,                           12601CKR
F0301400110191029587008GLASSWARE                                               22600CKR
F0101401670271555562004DEVELOPMENT INC                                         22600CKR
F0101402060351046144001INCORPORATED                                            22600CKR
F0101410690600047000002CORPORATION                                             22600CKR
F0101404840851041585005CORPORATION                                             22600CKR
F0101406750852044869001INC.                                                    22600CKR
