A2801400100000000004731ESCOTO, JESUSA DALIT                                     0502
A0101408240000000005461SANCHEZ, MARIANO ALTOBAR                                 0503
A0301400790000000040859PILAY, ROMANITO BELACHO                                  0502
A0101400440000000060255LOUELLIN L. LIM                                          0501
A2601400270000000084171JENNY A. BALAYAN                                         0501
A0101406750000000172854HASEGAWA, MARIA CORAZON C.                               0501
A0601400230000000186867SAPNU, D DBU D.L.S.J GLASS ALUM                          0501
A0101410560000000268400MACAJELOS SR., GEORGE EPARWA                             0502
A0101410690000000498404CABALLERO, ROSALIA TAPIA                                 0502
A1301400210000000540823VILLAMOR P CRUZ                                          0510
A0101402480000000794470BALENA, EMELYN                                           0502
A0101414120000000875532R.M. PABUSTAN BUILDERS                                   0502
A3001400130000000944714LIM, KLAUDIO DIAZ                                        0502
A0301400790000001010619CABASAG, JEY R LAGONOY                                   0502
A0101407430000001028802LITA T. GUZMAN                                           0501
A1601400170000001069056CHRISTOPHER S. CO                                        0505
A0101414120000001142863GRANDE, CHERRY ROSE BUZON                                0501
A0301400820000001185791JARED HOTEL AND CONDOTEL                                 0502
A0101406460000001231532LIM, CANDY UY                                            0502
A0301400790000001244600YBANEZ, RITCHIE AGUIO                                    0501
A0201400920000001331782BARTE, RICHILLE YBANEZ                                   0501
A0101401960000001844646****************                                         0501
A0101400440000002035110EVA D. SAMILLANO                                         0502
A0601400520000002085907BONDOC, AURORA LACANLALE                                 0501
A3101400450000002092899SIMBULAN, DENNIS DE LEON                                 0502
A0601400100000002099261QUIWA, JEREMIAH BADAGUAS                                 0502
A0101414120000002172641KITMA, SILVAN VIRGILIO ENRIQUEZ                          0502
A0301400950000002252108******                                                   0502
A0101400150000002395071MA. CARLA C. SAN MIGUEL                                  0501
A6601400120000002978096HORCA, ROMAR BABIANO                                     0502
A1301400500000003070093AMISTAD, RONALDO ESTAVILLEO                              0502
A0101413600000003134487MIRRIAM A. DELA CRUZ                                     0502
A0101400150000003141697CORPUS, ANGEL MAGSAYSAY                                  0502
A0101402770000003488095GUZMAN, NOEMI PAGULAYAN                                  0501
A0101405490000003633178NADIYA W. STAMBOEL                                       0501
A0101400570000003891430ALIMAGNO, FERNANDO MARTINEZ                              0502
A0101401830000004102627PASTRANA, CHRISTOPHER VILLARUEL                          0501
A0101400860011420361001**********                                               0502
A0101401700041036012001MORNING GLORY AUTO SUPPLY                                0510
A0101400150061232020138RICHARD BENEDICT SO                                      0501
A0101400150061337098192EVELYN LUSUAN                                            0501
A01014001500616174670013ANDA, AKIO                                              0502
A0101400600071457180001**********                                               0501
A0601400100081286804004WARD, BARRY MAXWELL                                      0501
A0601400100081358072002NOEL C. DAVID                                            0505
A0101401960121239576002**********                                               0501
A0101401960121240673001*************                                            0501
A0101400440161039572045DOVIE T. JERMIA                                          0502
A0101400440161358347001MA. ELSA T. APOSTOL                                      0501
A0101400440161525001139JEMARIE S. SALUDAR                                       0501
A0301400530193686503001CORPUZ, GLENN A.                                         0502
A0101407140213023148001**********                                               0502
A3101400160221356270001RONALD J. PUA                                            0502
A3101400160221478374058MARIBEL S SIBOR                                          0501
A3101400450223221513001FANDINO, DULCE GALLIVO                                   0502
A3001400130230706849001XXXXXXXX                                                 0501
A3001400130230767566072ROBLES, ADAH JUNE CATEDRAL                               0501
A1001400190231478374128BONIFACIO, LIZA                                          0501
A1001400350233503410003APARICI, ARMANDO AKIAT                                   0502
A1301400470252466782002MENDOZA, LICERIA CABUHAT                                 0501
A0101400570281075141001JOANNA T. ADALIM                                         0502
A0101400570281795709001GREGORIO DE JESUS DARCA                                  0501
A0501400200292797119001VENTURA, LORENA CACATIAN                                 0501
A0801400160311478374063SUBALDO, ROSELLA VILLANUEVA                              0501
A1101400120313572041001YAO, MARK ALAIN GO                                       0501
A6601400120314042058007CHEERS TRADING                                           0505
A2001400290315636070001DY, DANILO BANCAIREN                                     0501
A0101402350321310360001FLORES, RICARDO TIRSO QUIACHON                           0502
A0101402480331708888001**************                                           0501
A0101408370382313183001DR. SIDNEY Y. CHENG                                      0504
A0101408370382592860001ANGELINE S. TINGA                                        0502
A0101402770391217498003ARNALDO EXEQUIEL T. JANOLO                               0505
A0101405490392033011001VICELA MOTOR WORKS                                       0503
A0101405490392170151001MINDA A. TIMTIMAN                                        0505
A0101405490392638455001FE V. BERSALONA                                          0501
A2401400180411042912088QUISHA FOODS                                             0501
A2401400180411478374035MERLINDA D. TAMUDTAMUD                                   0501
A0101405940512285942001LEUS, ROMAN OR LEUS, MICHELLE                            0501
A0101405940512393176001CARINA N. ARMARILLE                                      0501
A0101408530516571877134HERA C. LLANETA                                          0501
A0101403450521357127001**********                                               0501
A0101404000551408537001PERPETUA, ERICSON MAQUIRANG                              0502
A0101404130601775194001SURIO, VADESHNA AQUINO                                   0502
A0101407720602161854002**********                                               0501
A0101404260611478374098CECILIA ORIAS                                            0501
A0101409920650416463001TANCIO, SALLY PANGA                                      0501
A1301400210682544771001MARY ANN R DELA CRUZ                                     0505
A1701400230693478374044CECILIA CORRALES                                         0501
A0101408240711609459001DE PEDRO, JANET BELENZO                                  0501
A0101408240711647541001SALVADOR, PAUL LLANAS                                    0502
A0101404840851415107001SANTOS, ELSA ADRALES                                     0501
A0101404840851415107001SANTOS, ELSA ADRALES                                     0501
A0101404840851509778001LABAROZA, RAZEL GOLINGAN                                 0501
A0101404840851520766194FELIPA O. VILLANUEVA                                     0502
A0101405070861478374086MARLYN C. GABEST                                         0502
A2601400270000000084320GERVACIO S. MARFIL OR                                   10501
A0101404840000000232824PACETE DBU CYCLE ONE TRADING                            10503
A2601400270000000561682JANET A. GELACIO OR                                     10502
A0101413990000000631838DE OCAMPO, IMELDA C. OR                                 10505
A1601400170000001069125SAMBAJON, ALDEN OROPESA OR                              10501
A1601400170000001069125ALDEN O. SAMBAJON OR                                    10501
A0301400950000002115311GORGONIO, GILBERTO A. DBU ANG                           10501
A1901400160000002291512EVELYN A. LAVISTO OR                                    10501
A0101408110000004421112LIM, JULIA ORTEGA OR                                    10501
A0601400100081360442001DE JESUS, NODY BONIFACIO OR                             10505
A0101400440161417387001ARNOLD F. AVILES                                        10501
A0101401090171196330001TAN, EMILY B. OR TAN, STEVENSON                         10502
A0101407140213447145001LIM, GLORIA ALABATA OR                                  10502
A3101400450223442002001GARCIA, ROSALINA OR                                     10502
A3001400130230757981001SACAY, RENE CANTOR OR SACAY,                            10506
A0101406460272358045001VALERIO, RAMON TORRES                                   10502
A6601400120314042312001NORSAM BUILDERS & CONSTRUCTION                          10503
A6601400120314613263008ORTIZ, JUAN M. OR ORTIZ, MYRNA                          10505
A6601400120314629212001ANNACEL S TUBA OR                                       10502
A0101402350321455174001CARVAJAL, DOROTHY S. OR                                 10501
A0101405650322325947001CATALINA FUNTILA OR                                     10501
A0101402510341196514001JAIME LIM OR CHRISTINA LIM OR                           10501
A0201400760374625336002PERES, BAYANI CARLOS OR REYES,                          10501
A0101402770391752292005JUANITA OR TOMAS OR BENJAMIN N.                         10501
A0101402770391752292007JUANITA OR BENJAMIN OR TOMAS                            10501
A0101402770391752292008JUANITA OR BENJAMIN OR TOMAS                            10501
A0101405490392034138001MCMAR & MARY ELECTRICAL                                 10501
A0101403610531221282002ZAGUIRRE, WALFREDO ALCANTARA OR                         10502
A0101407720602165627004ALVIN SANTOS OR                                         10502
A0101406590662594215001SISON JR., VICTOR OR                                    10501
A0101404840851211074001RODRIGO SP VIVO &/OR                                    10506
A2601400270000000084320REBECCA M. MARFIL                                       20500
A0101404840000000232824AND SERVICES                                            20500
A2601400270000000561682BARTOLOME L. GELACIO                                    20500
A0101413990000000631838DE OCAMPO, AUGUSTO F.                                   20500
A1601400170000001069125SAMBAJON, MINDA OROPESA                                 20500
A1601400170000001069125MINDA O. SAMBAJON                                       20500
A0301400950000002115311MANTALAAN NEWS SERVICE                                  20500
A1901400160000002291512NOEL P. LAVISTO                                         20500
A0101408110000004421112FIDELES, VINCENT MICHAEL                                20500
A0601400100081360442001DE JESUS, NANETTE                                       20500
A0101400440161417387001OR MADELYN M. AVILES                                    20500
A0101401090171196330001J.                                                      20500
A0101407140213447145001LIM, JAMES CHIONG                                       20500
A3101400450223442002001JESUSA CORAZON                                          20500
A3001400130230757981001JOSEPHINE SIMBIT                                        20500
A0101406460272358045001OR JANE VALERIO                                         20500
A6601400120314042312001SUPPLY                                                  20500
A6601400120314613263008ORTIZ JR., JUAN                                         20500
A6601400120314629212001REMEGIO L TUBA JR                                       20500
A0101402350321455174001CARVAJAL, KIM APPLE S.                                  20500
A0101405650322325947001CAROL PAULINE FUNTILA                                   20500
A0101402510341196514001GINA LIM                                                20500
A0201400760374625336002VIRGINIA ALMEDA                                         20500
A0101402770391752292005VICTORIA                                                20500
A0101402770391752292007VICTORIA                                                20500
A0101402770391752292008VICTORIA                                                20500
A0101405490392034138001& CONSTRUCTION S                                        20500
A0101403610531221282002ZAGUIRRE, JULIETA T.                                    20500
A0101407720602165627004NORA FIGUEROA-SANTOS                                    20500
A0101406590662594215001SISON, MA. ANGELA                                       20500
A0101404840851211074001JULIA A VIVO                                            20500
B0101411110000000009010**************                                           1602
B1301400470000000009696MAKOBOBI DISTRIBUTORS INC.                               1605
B2201400250000000016920STAPLERS INC.                                            1601
B2601400270000000020639IGNACIO OR WILMA DATU                                    1605
B0101404420000000025896PRINCEJ ENTERPRISES                                      1601
B0101411080000000026280 *****                                                   1605
B1401400110000000034700QUEEN MARGARETTE HOTEL, INC.                             1602
B0101410140000000038913BISHOP OF LIGHTHOUSE BIBLE BAPTIST                       1601
B0101401670000000739219HYDRO-TECH ENVIRONMENT MGT. INC.                         1602
B0601400100000000786790ANGELES FORTUNE HONGKONG SEAFOOD REST                    1605
B0101407430000001213078PEAK FREIGHT SOLUTIONS INC.                              1601
B0601400520000001349708LEEWEL'S VIBRO PLANT INC.                                1610
B0101400150000001708721SILVERREEL INC.                                          1602
B0101409180000002036802*****                                                    1601
B0101400570000002104147AB1 MEGA BUILDERS INC.                                   1601
B0101405490000002841949******                                                   1603
B0101413990000003141146*                                                        1602
B1401400110000003475661QUEEN MARGARETTE HOTEL, INC.                             1605
B0101414120000003584281JD & P FOOD TRADING CORPORATION                          1601
B0101405490000003905162CORDELION INC.                                           1601
B0601400100081024450001MALOLOS FORTUNE (HONGKONG) SEAFOOD                       1610
B0601400100081024665001CLARK PIPELINE & DEPOT COMPANY, INC                      1602
B0601400100081200942001CHENG, SZE KIT                                           1610
B0101407140213510054001FULL CIRCLE EVENTS ASIA, INC.                            1604
B1301400470252018901001NUEVA ECIJA LAND CO., INC.                               1605
B0101401670271684108001UP ABOVE THE SKYE, INC.                                  1605
B0101406460272012461001INFORMATICS HOLDINGS PHILS INC                           1605
B0201400760374032843001ALLMIX TRADING, INC.                                     1601
B0101408790383040734001RADIOWEALTH FINANCE COMPANY, INC.                        1602
B0101405490392006541001GLOBALTECH AUTOMATION, INC.                              1603
B0101408400394028560001NEW LIFE CHRISTIAN CENTER (THE FORT) INC                 1602
B0101409180397670520001CASAEUROPA INC.                                          1604
B0101403580511016440001SUGI MANAGEMENT CORPORATION                              1610
B0101403450521391338001**********                                               1610
B0101404000551005043002PHIL COMMERCIAL CAPITAL INC.                             1605
B0101404130601035458001CITYLAND CONDOMINIUM VIII, INC.                          1605
B1301400340683398713001***********                                              1601
B2801400100712024870001SIGMA PACIFIC BPO SOLUTIONS CORP.                        1605
B4101400260812028697002WELLCARE CLINICS AND LAB., INC.                          1605
B0101406750852028918001CBR ASIA REINSURANCE BROKERS, INC.                       1601
B0101409050000001662875OSORIO, MARIZENA REGIO DBU ZAM                          11601
B0601400100081253610002NG, WILFREDO M. AND AQUINO, JANET B. AND                11601
B6601400120314043068001NEW ECONOMY HARDWARE AND ELECTRICAL                     11602
B0101409050000001662875ENTERPRISES                                             21600
B0601400100081253610002BUAN, ROLAND S.                                         21600
B6601400120314043068001SUPPLY                                                  21600
B0101418360410432000011**********                                               2102
