B0101407140213821100608**********                                               2005
A0101405650322553258001KHO, MYRNA P. OR                                        10502
A0101405650322553258001KHO, MARIAN P.                                          20500
A0601400360083437396001LAPINID, LINO HORACIO E                                  0502
A1201400150421039600001CIMAS VERDES CORPORATION                                 0505
B0501400200292036584001SSS EXPRESS CREDIT, INC.                                 1605
A1101400120000003022384ELCARTE, ERNA GONZAGA                                    0501
A0101402930381205136001NORA LACAP AVILA M.D.                                    0502
A0101402930381209797001LAURA VICTORIA A.S. YUSON                                0501
A0101402930381209797002LAURA VICTORIA Y. LAYUG                                  0501
A0101402930000000038742RAMERSON OFFICE FURNITURE INC.                           0502
A2401400180411496346001OCIEL, MARIA MAGDALINA S. OR                            10501
A2401400180411496346001OCIEL, RANDY L.                                         20500
B0101404260611028963001PARC HOUSE II CONDOMINIUM ASSOCIATION                   11602
B0101404260611028963001INC.                                                    21600
A4101400420814457337002ORDONEZ, JANE M. OR                                     10502
A4101400420814457337002ORDONEZ, JOSE IB                                        20500
A4101400420814478374025RICHEL T. PALGAN                                         0501
A4101400420814478374193CONDE, EMMA D.                                           0501
A0101400860011546416001**********                                               0502
B0101401700041821100608**********                                               2003
B0101400150061000544001CITIBANK - N.A.                                          1601
A0101400150061354288001CORAZON G. TAGLE                                         0502
B0101400150061495790001BUILDING BRIDGES CHRISTIAN MINISTRIES                   11605
B0101400150061495790001FOUNDATION INC.                                         21600
A0101400150061720595104EMPLOYEES OF PB COMMUNICATIONS                           0501
A0601400100081382138001MANGUERRA JR., WILFREDO TORRES                           0510
A0601400100081382138002MANGUERRA JR., WILFREDO TORRES                           0510
B0101410560000000757240BALTAZAR, BEATRIZ POLO AND GARBILES,                    11601
B0101410560000000757240LETICIA MORILLA                                         21600
A0101400730000000168683YABUT, LYNDON BUNCH                                      0501
A0101400730111347787002CHAVEZ, LYNN FLORENTINO                                  0501
A0101400730111432322017ARNEL S. MANALASTAS                                      0501
A0101400730111458403002ABREGANA, CLEOFE TAMPOS                                  0502
B0101413310000000040024LIBERTAD TRADING CORPORATION                             1601
A0101401830141530136001RACELLE MARY B. ABANES OR                               10501
A0101401830141530136001LUIS FRANCISCO V. LEBRON                                20500
A7201400170000002791319SOLON, NESIL COLINARES                                   0502
A7201400170000003772992BALLAR, RAUL PASINABO                                    0501
A0101400440000001439863MARY JONEN T. GUILLERMO                                  0501
A0101400440000002034782CHARITO IBANEZ                                           0502
A0101400440161459294001MARY ANN T. REGINALDO                                    0502
A0101407270000005417421**********                                               0501
B0101407270162019525001CASTFOOD CORPORATION                                     1601
A0101407270162333006012ROSEMARY B. CALINA                                       0501
A0101407270000000818224****************                                         0501
A0101401090171197481002MA. NOEMI OR ELIEZER SALAZAR                             0502
B0301400530000001409392PHILFRUITS PREMIUM CORPORATION                           1601
B0301400530193792821088LI, DENNIS JOSEPH T.                                     1601
A0301400950000003249949JOROLAN, RONIE FLORENOSOS                                0501
B0101401380201039122001BROMA CORPORATION                                        1602
A0101401380201554626001BANGURAN, MYRNA BRINGAS                                  0501
A0101410720653378318001NAJOS, ELVIRA ABAO                                       0501
A0101410720653475723001LIWAG, NATHANIEL NUNEZ                                   0502
A3101400450223088272001ARANGUREN, ROLAND ONTOY                                 10501
A3101400450223088272001OR AGONCILLO JR., JOSE                                  20500
A3101400450223223458004ALVERO, LEAH AURORA TOLENTINO                            0501
A1001400190231040271001ROADNET 2000 ENTERPRISES                                 0502
A1001400190231495870001MICAYABAS, EMMA CACAFRANCA                               0501
A1001400190231520766079JANDAYAN, SATURNINA                                      0501
A1001400350000000017774VENADAS, MARC LOUIE L. OR                               10503
A1001400350000000017774VENADAS, ANGELICA FUENTES                               20500
A1001400480000001054795ERENO, MARINA GALLANA                                    0501
A0101406460272095168001***************                                          0501
A0101406620000001686644DOMETITA, JOHN QUILIT                                    0501
A0101408660000000523799MAURICIO III, VICENTE DE CASTRO                          0502
B0101400570281035080001LEGEND OF ICE RECRUITMENT & SERVICES INC                 1603
B0101400570000002104147AB1 MEGA BUILDERS INC.                                   1601
A0101400570281189115002LORRAINE P FELICIANO OR                                 10515
A0101400570281189115002YOLANDA A PALANC                                        20500
A0101400570281392614001BENITA C. BARNES                                         0502
A0101400570281595882001LEDESMA, JOSE FORTUNATO GAMBOA                           0505
B0101411240000000012073ADVANTAGE-VEGA BUSINESS SERVICES INC.                    1602
A0801400160311478374079MANUEL F. RAGANAS JR.                                    0503
A0801400160311478374103INAYAN, MERLINDA GUARDAMANO                              0501
A1101400120000001547520TAN, MELVIN NATHANIEL ANDRADE                            0502
A1101400120000002254822NABAUNAG, LEONORA FUENTES                                0503
A1101400120313717829001UY, WILSON S. OR                                        10510
A1101400120313717829001UY, CHIQUI RUTH                                         20500
A6601400120000001370672BROTO, ANTONIO DBU CAPRICORN                            10502
A6601400120000001370672BOOKS & SCHOOL SUPPLIES                                 20500
A2001400290315087033001ROLIDA, JASON UY                                        10502
A2001400290315087033001OR ONG, WILMER R                                        20500
A2001400290315087033002ROLIDA, JASON UY OR ROLIDA                              10502
A2001400290315087033002SANDRA, UYMATIAO                                        20500
B0101402350321035789001V.A. BORLAGDAN TRUCKING SERVICES                         1601
A0101402510341625399001GELERA, TITO SOLIS                                       0501
A0101402060000002259947REYES, ALEXIS JANEANE ALVAREZ                            0501
A0101409050000002333273RASTAS, MICHAEL                                          0502
B0201400760374030513001RQLIM RESOURCES, INC.                                    1601
A0201400760374720031001******                                                   0503
A0201400890376535273002TOLEDO,HAROLD XAVIER/GUEVARRA,                          10502
A0201400890376535273002KENNETH/CLIMACO,                                        20500
B0201401020000000304098MAGICMELT FOODS, INC.                                    1601
B0101402930381041771001AII SYSTEMS, INC.                                        1601
A0101402930381505507001TRINOS, ROCHELLE VERANO OR                              10502
A0101402930381505507001AVILES JR., ISAGANI                                     20500
A0101408370382489193001DR. MICHAEL EDMOND S. DAZO                              10502
A0101408370382489193001OR ARLENE S. DAZO                                       20500
A0101411660000002881161RBE ACCOUNTING SERVICES                                  0502
A0101402770391036958001WCQ CONSTRUCTION                                         0502
A0101402770391198396001PEDRAJAS, TERESITA PAED                                  0501
A0101402770391355762066JENNIFER ALFORQUE                                        0502
A0101408400000001213432VIRAY, JOHN ANTHONY CACDAC                               0501
A0101408400394034261001SALOWA PEARLS & FASHION                                 10501
A0101408400394034261001ACCESSORIES                                             20500
B0101408400000002386263CORMANT TECHNOLOGIES INC.                                1602
A0101408400394478374063LACSON, MARITES                                          0502
A0101408400000000077996RENEVA, JOHN ALBERT MEDRANO                              0502
A5501400120410677708008PE JR., ARTHUR BORJA OR MARIA                           10501
A5501400120410677708008LUCIA OR SABLON,                                        20500
A2401400180411043200001DYNAMIC FORCE SECURITY AGENCY                            0510
B2401400180411058476001MOUNTAIN SPRING AGRIVENTURES                            11601
B2401400180411058476001CORPORATION                                             21600
A2401400180411564736001CATULPOS, ELMER VILLEGAS                                10510
A2401400180411564736001OR CATULPOS, YEL                                        20500
A2401400180411584752001AMADEO, MARY MAGDALENE MILES                             0502
A0901400220000000425045LOZADA, ELIZABETH GO                                     0501
A0901400220432769818088**********                                               0501
B0101403030441303324001**********                                               1602
B0101403320471019960002DIRECT ELECTRIX EQUIPMENT                               11605
B0101403320471019960002CORPORATION                                             21600
A0101403320471478374060WINDI B TABARREJO                                        0501
A0101403320471480971001GINA T. CALABIO                                          0501
B0101410140000001939973CASTILLO, R DBU VRMJ MANPOWER S                          1602
A1901400160491048459001KLENSTAR MANPOWER SERVICE                               10502
A1901400160491048459001SPECIALIST                                              20500
A1401400110000003475643*******                                                  0502
A1401400110492320667002AVERIA, SOLOMON DY OR                                   10501
A1401400110492320667002AVERIA, MA.SARAH                                        20500
A1401400110492620230001DELOS SANTOS, ENRICO PEREZ                               0503
A0101407430503499238001JANETTE A. CORDERO                                       0501
A0101405940000001047352CHUA, BARTON ONG                                         0502
A0101405940000000505764SALCEDO, RICHARD REODIQUE                                0501
B0101405940512023235001LIKAS YAMAN SERVICE CORP.                                1605
B0101408110515027863001INTERNATIONAL SPECIALTY CONCEPTS, INC.                   1603
A0101408110000000474340RUFON, MARIA FE EDAR                                     0501
B0101408530516036530001TEAM GLOBAL FACILITY SOLUTIONS INC.                      1603
B0101408530000000035903INTERNATIONAL SPECIALTY FASHIONS, I                      1603
A0101411400000004555733MANOLOTO JR., ANTONIO CANDELARI                          0501
A0101403450000001769811*******                                                  0501
B0101403450521012212001JERRONE CORPORATION(RADO-CITIZEN SERVICE                11601
B0101403450521012212001CENTER-MAKATI)                                          21600
A0101403450521567563001********                                                 0502
B0101414960522821100608**********                                               2001
A0101407720000004664900IVY ROSETTE C. ORTEGA                                    0501
A0101407720602342044001DR. DARWIN ALBERT DASIG                                  0501
A0101407720602397425001HENSON, MARIA THERESA GUEVARA                            0501
A0101407720602398798001AVANCENA, MARIA CORAZON MONZON                           0501
A0101404260611151278002OFELIA F. RAMOS                                          0501
A0101404260611478374052ROSEMARY F. ROLDAN                                       0501
A0101404260000001725515NORA B. VALENCIA                                         0502
B0101409890000002636217CELIZ JR., NORETO MEDALLE                                1602
A0101409920000001951982MEMBERS OF NATASHA (SHOECAT INC                         10501
A0101409920000001951982TORRELIZA, GINA                                         20500
A0101409920000001952029MEMBERS OF NATASHA (SHOECAT INC                         10502
A0101409920000001952029REYES, REMEDIOS B.                                      20500
A0101406590662058970001MERCADO, LIGAYA SAN PEDRO DBU                           10501
A0101406590662058970001QUADEM ENTERPRISES                                      20500
A1301400210000002909146CATAHAN, AGNES SUNPONGCO                                 0502
A1301400210000000983735LIWANAG DC SUMANGA                                       0503
B0101408240711028488001INTAS DESTINATION MANAGEMENT INC.                        1605
B0101408240000002419996**********                                               1601
A0101408240711374373002**********                                               0501
A0101408240711588674001INONOG, PRINCE OR LOWELLA                                0501
A4101400260000003680000MANTILLA, WILMA FAMARAN                                  0502
A4101400390813566231001BROAS JR., RICARDO QUION OR                             10501
A4101400390813566231001BROAS, ANNALIZA                                         20500
A4101400420814456030002AGELLON, LILY RADY AGUINALDO                             0501
A4101400420814520766111COLETA, JEANNETTE C.                                     0502
A0101412340000001017747KALALO, GLENDA MAGBILANG                                 0501
B0101404840000003069601INFINITY JOURNEYS, INC.                                  1601
B0101417840001701049624**********                                               2102
B0101416450002002000829**********                                               2110
