B0101402510341821100608**********                                               2010
B0101413860000001767826SAFEWAY WAREHOUSING, INC.                                1602
B3001400130000010506515CUMBA, WENDY GO AND GO, ANTONIO TIMCANG                  1602
A3001400130230478374025GUERZON, MERLINDA FALLER                                 0501
B0601400360000000978936THE MEDICAL CITY CLARK, INC.                             1615
A0101400730000002857903MALVAR, OLIVER OR MALVAR, ELIMA                         10501
A0101400730000002857903R (BORROWERS OF EASYCASH)                               20500
A0301400790000003969484CODINO, JUDITO LAMOSTE OR                               10502
A0301400790000003969484CODINO, MARY ANN                                        20500
A0101403580000000016082SWEET BELLA DESSERTS                                     0510
A0101403580511150629008MIRIAM HIPOLITO OR RAMONA PENA                          10501
A0101403580511150629008OR GERALDINE LIM                                        20500
A0101403580511639251001ALICIA S. COLUMBRES                                      0502
A0101400860011298552007MA. TERESA N. MERCADER                                   0503
A0101400150000000806768YOUNG, MEGAN LYNNE TALDE                                 0502
A0101400150000002749808RECOMENDABLE, CAROLINA VALERIO                           0501
A0101400150000014853433ACEVEDO, CERMINE MARANAN                                 0501
B0101405810072045865001UNO FOREX INCORPORATED                                   1603
B0601400100081256915005KWONG, WILLIAM G. OR                                    11603
B0601400100081256915005ANTONIO, ADELA                                          21600
B0601400360083037368002CLARK INVESTORS AND LOCATORS ASSOCIATION                11601
B0601400360083037368002(CILA)                                                  21600
A0101414090000011597621JAVIER, MARK GERALD CRUZ                                 0501
A0101410850000005316832ZARATE, MARY JOCELYN PALE                                0503
B0101400730000015361021SHUTTLE MARINE ELECTRO-MECHANICAL TRAINI                11602
B0101400730000015361021NG CENTER CO LTD                                        21600
A0101401830141206536001PEDRO S. FLORES OR                                      10505
A0101401830141206536001IRMA G. FLORES                                          20500
A0101401830141367511001VELASCO, MA. TERESA ABUYO                                0501
A7201400170000003774436MAATA, JANIETH S. OR                                    10502
A7201400170000003774436MAATA, JEFFRY P.                                        20500
B7201400170152067937001PAGADIAN JUNIOR COLLEGE (PJC), INC.                      1603
B0101400440000005393717RD PAWNSHOP, INCORPORATED                                1610
A0101407270000003254004CLEMENTE, SPIRO LU                                       0502
A0101407270162430046001ROMANO JR., RAFAEL T.                                    0501
A0101401090000001618840ARRIERO, MARIA REGINA                                   10502
A0101401090000001618840POLICARPIO                                              20500
A0101401090171199911001AUGUSTO OR MA. VICTORIA PIA                              0502
A0101401090171376119006MARC LADISLA OR JOHN REYES                              10502
A0101401090171376119006OR ALFONSE ADALI                                        20500
A0101401090171429779001FERNANDEZ, DENNIS FRANCO                                 0501
A0101401090171469464004REPOQUIT, MICHELLE ACLAN                                 0501
A0301400530000001009932TAUTHO, SHIRLEY E.                                       0502
A0301400530193702921168SELGAS, ROBERT U. OR                                    10501
A0301400530193702921168SELGAS, ELVIRA R                                        20500
A0301400660000000023092GO, ROMEO YU                                             0501
A0301400790000001010671DELA CRUZ JR., VALENTIN                                 10501
A0301400790000001010671BERGONIA                                                20500
A0301400950000005707342PASCUA, HOSANNA AISAH MORDEN                             0502
A0301400950000002251952**********                                               0506
A0101401380000015062530MUYA, MARLON BATHAN                                      0503
A0101412500000015850101CRUZ, MA VERGIE LYNNIE NIETES                            0501
A0101412500000000041647CHAN, EDITHA GO DBU TOP EDGE                            10503
A0101412500000000041647GARMENTS                                                20500
A3101400160000014779470SARDIN, PRINCESS ABAJA                                   0501
B3101400160221224862001JOYME ROCKSCAPES CORPORATION                             1602
A3101400450000005355682ESCORSA, ANNABELLE ORBE                                  0501
A3101400450223066990001ALVERO, MERLY DBU PRIME CONNECT                         10501
A3101400450223066990001CALL CENTER OR GAPANGADA                                20500
A3101400450223313426001*****                                                    0501
A3001400130230688885001FARON, JHONNA ALMONICAR                                  0502
A3001400130230757981001SACAY, RENE CANTOR OR SACAY,                            10502
A3001400130230757981001JOSEPHINE SIMBIT                                        20500
A1001400350000000922014PEARSON, PILARCITA ROA                                   0502
A1001400350233770191001PATRIANA, LINDY CASTILLO                                 0501
A1301400470000005394436SHELLA MARIE C. SANTOS                                   0501
A1901400290261499267001ALBERTO GUEVARRA MENDOZA JR.                             0501
A0101411110000009465723GUIALA, MIA MYRA CALDERON                                0501
A0101411820000001356350ADRIAN VIKTOR SANCHEZ PEREZ                              0501
B0101411820000010701207GREEN OLIVES LENDING CORP.                               1601
B0101400570281036729002LAIYA GOURMET                                            1605
A0101400570000011504053JINKY C. GAMIT                                           0502
A0101400570281388539039ROSAURO E. MANUEL                                        0502
A2601400270000000561619RAUL T. SAWIT OR CARMELITA A.                           10504
A2601400270000000561619SAWIT                                                   20500
A0801400160000000009430SALAO, EVELYN ENCANTO                                    0506
B0801400160311025468002SANTELLEN CORPORATION                                    1602
A6601400120000009613823PAMBUENA, LINA AMARO                                     0505
A0101402350000005644793ALEJANDRO, JOHN CUEVAS                                   0501
B0101402350000008956950ELITE SALES FORCE INTERNATIONAL INC                      1601
B0101402350000007062860PRIMERA BIOSOLUTIONS INCORPORATED                        1602
A0101405650322219483001ELISES, LENORA OR NELSON OR                             10502
A0101405650322219483001JOSE MARI OR JOS                                        20500
A0101405650322587026001MALICSE, CORNELIO ANTONIO                                0502
A0101405650000006893403KIMOTO, YOSHIHIKO CORTEZ                                 0501
B0101402510341034222001E.J. "G" FOODS CORPORATION                               1610
B0101402060351085656001REBINTECH CONSTRUCTION, INC.                             1603
A0101409050000003536463RABUY, ELEANOR                                           0502
A0201400760000002047285RUBEN N. SUMAIT                                          0501
A0201400890000012951361LEDESMA, TEDDY PO                                        0502
A0201401020000003031016ARTETA, ACE AGUALLO                                      0501
B0201401020000007458162SEMPERFI TRANSPORT INC.                                  1603
B0101402930381009171001CREDIT PILIPINAS INC.                                    1602
B0101402930000000623410R AND C OUTDOOR MEDIA INC.                               1606
A0101408370382795237001DR. LUIGI PIERRE S. SEGUNDO                              0501
A0101402770391355762051NOLASCO, ALAN BULAWAN                                    0501
A0101409210000005251923TRIAS, AGNES DE JESUS                                    0501
A0301400820000000316670TIONG, ARISTON D.                                       10502
A0301400820000000316670OR TIONG, FLORITA C.                                    20500
A5501400120000002019056ONG, DANIEL STEVEN DY                                    0505
A5501400120410691763008DR. JANET P. CELIZ                                       0502
A1201400150421013348001ARGEM FINANCE INC.                                       0510
A0901400220000003069043**********                                               0502
B5101400100000010833935KAAMINO, MIRALYN BUCAG DBU WELK                          1604
B0101403030000005944841**********                                               1605
A0101412890000004435563REYNOSO, ROSEMARIE GOCO OR                              10502
A0101412890000004435563GLORI, DOMINIQUE                                        20500
A0101403320000001803292BAUTISTA, HERBERT DAYON                                  0501
B0101406330472032269001MONTECRUZ ENTERPRISES, INC.                              1610
B0501400170481016901001CARRIED LUMBER COMPANY, INC.                             1610
A0501400170481454752001GAGARIN, MELCHOR FRANCISCO                               0501
A1901400320000000679250RUEL FLORES ILAO                                         0501
A1901400160491066454001ANTINERO, BELINA ATO                                     0501
A1901400160491066574001ANTINERO, ALLAN OLORVIDA                                 0501
A1401400110000015835233LOTO, JULE PHILIP SADIWA                                 0501
A1401400110000015852210LINAO, ROEL PATRICIO ANDAYA                              0501
A0701400260000013783838MANLAGNIT, MARIA SOTERA ROSARIO                         10501
A0701400260000013783838PILI                                                    20500
A0701400260000014169116RUSTIA, MA. YVONNE MASBATE                               0501
A0701400260000014169149VARGAS, ARVEE TABANGCORA                                 0501
A0101407430000014298441DELOS SANTOS, WAYNE DE VERA                              0505
A0101407430000014990631BETHILDA B. ALVERO                                       0501
A0101407430000014992717MARY LOVELY GIL D. GUMBA                                 0501
A0101407430000014993050MARCILLA, MARC JULESER                                   0501
A0101407430000014993152MOLINA, MARRIETTA                                        0501
A0101407430000014993174MONTERO, AILEN PANDEZ                                    0501
A0101407430000014993312SHERYL ANNE PABLO                                        0501
A0101407430000014993390MOINCA RAGAZA                                            0501
A0101407430000014993561JON LLOYD SARMIENTO                                      0501
A0101407430000014993618MERVIN SESCON                                            0501
A0101407430000015521634EDISON E. DOTE                                           0501
A0101407430000015521849MICHELL MARASIGAN                                        0501
A0101407430000015521883CHRISTINE MAYORDO                                        0501
B0101407430503042216001HIGH COMMAND AVIATION SECURITY                          11605
B0101407430503042216001SERVICES CORP.                                          21600
A0101403580511150737001LUIS JUAN L. VIRATA                                      0510
B0101403580511155828001JOUBERT CONSTRUCTION INC.                                1610
A0101405940000005359782************                                             0505
B0101405940512023092001CONSUNJI & BONIFACIO LAW OFFICES                         1603
A0101408530000007981897ABELLA, AGNES TORRES                                     0501
A0101408530000013064192TIMOTEO, RON VELASCO                                     0501
A0101408530516494431001******************                                       0501
B0101411790000007043967ALLIANCE OF NON-STOCK SAVINGS AND LOAN                  11604
B0101411790000007043967INSTITUTIONS INC                                        21600
A0101403610000015849042SEGURA, KAREN TIJANY MILLARE                             0501
A0101403610000012945325PILI, RUEL S DBU GIMAYA FOOD                            10502
A0101403610000012945325STOP OR PILI, GISELLA                                   20500
B0101403610000006637090**********                                               1601
B0101403610531659842002DELAMO LENDING INVESTOR CORPORATION                      1603
A0101403610531712013001LUMPAS, MARILYN DEL ROSARIO                              0502
A2201400250000007122716GARCIA, MARY TANCHULING OR                              10501
A2201400250000007122716ADONIS DE VERA GARCIA                                   20500
A2201400250000004405025*******                                                  0501
A0101407720602332798001ARNEL DIAZ OR LOURDES DIAZ                               0502
A0101407720602397271001OZAETA, MA. RAMONA PABLO                                 0501
A0101407720602415232036MARITES COLORADO                                         0502
A0101407720000003886795DELES, ROSEMARIE ARELLANO                                0502
B0101404260000015239484TOUGH COOKIE DESIGN, INC.                                1602
B0101409890000007373255ZINGY LINE INTERNATIONAL TRADING CO                      1602
A0101409920650478374024DUMAWING, LUALHATI SANTIAGO                              0501
B0101413440000014245193RICE WATCH ACTION NETWORK INC.                           1602
A0101413990000015851655CRUZ, HENRY JAVIER                                       0501
A0101414120000008642622AGRAVANTE, CESAR LUCERO                                  0502
A1301400210000009982198PAULINO, ALEXANDER SARMIENTO                             0501
A1301400210000009982643BAUTISTA, MARVIN DIAZ DBU MDB P                          0501
A1301400210000005040931ILLESCAS, ERIC REYES DBU STARLI                          0501
A1301400500684594759001ROLANDO R. VELASQUEZ OR                                 10504
A1301400500684594759001MERCEDITA V. VELASQUEZ                                  20500
A1701400230693635864001SORIANO, JOSE JOEY QUINTO                                0502
A0101408240000000347299BENDITA, MICHELLE DELOS SANTOS                          10501
A0101408240000000347299AND AQUINO, MARI                                        20500
A0101408240000001038595REVILLA, JEROME COCHANGCO                                0501
B0101408240711029537001ED LINK FOUNDATION, INC.                                 1602
A2801400230000001782061ERLINDO M. SIMBOL OR                                    10501
A2801400230000001782061LUCILA C. SIMBOL                                        20500
B2801400230000005253612GLOBAL TERMINALS AND DEVELOPMENT, INC.                   1605
A4101400260000012858410APACIBLE, FE MARIE CANEZA                                0501
A4101400260000012884681SERRANO, KARLO ALEJO SELMA                               0501
A4101400260000012857137BADILLO, LUZVIMINDA YAPE                                 0501
A4101400260000014088292ROMA, CARMELA                                            0501
A0101412340000004360296LIWAYWAY M. LANGIT                                       0501
A0101404840000005396949ESPORLAS, AURA AREVALO                                   0503
A0101404840000000122658MARIFE DE CASTRO                                         0501
B0101404840000006365353INFINITY JOURNEYS, INC.                                  1602
A0101404840851214627001ALLAN GERVASIO OR                                       10501
A0101404840851214627001EMMA GERVASIO                                           20500
A0101406750000009472482ROJAS, ROSEMARIE OTAZA                                   0503
A0101406750852478374015GABIN, GERTRUDES                                         0501
A0101405070861478374054LUZVIMINDA T. PONTANAR                                   0502
B0101413860000012289566LOGISTIKUS, INC.                                         1602
B0601400230891038825001VOLT HAROLD MARKETING CORPORATION                        1602
B0601400230000000029741ROYCE CREDIT AND FINANCIAL SERVICES                      1602
A0601400230000007252673GRANDA, LIDUVINA PINEDA                                  0504
