B2801400100712821100608**********                                               2002
B0101412050000000890973MCQUEEN AND TOW MATER, INC.                              1602
A0101400150061227688001BALANGUE JR., ELPIDIO PATRICK                            0501
A0101400440161039572051MARIA EDILINA S. BULAC                                   0501
B2001400290000007832400RITESTREET LENDING CORPORATION                           1601
A0101406330472359169001JENNIFER  ROMUALDEZ OR                                  10501
A0101406330472359169001LOUIE LIM                                               20500
A0101400860000005313115**********                                               0505
A0101400860011421630001**********                                               0503
A0101401250000000522416RED, AMALIA NOVALES                                      0502
A0101400150000000253314AUSTRIA, MICHAEL MAALIHAN                                0501
A0101400150000011647619ISHIDA, TATSUTO NIL                                      0501
A0101400150000011138371DAGAMAN, ISHMAEL DOMINGO                                 0501
B0101400150061010688010SB CARDS CORPORATION                                     1610
A0101400150061039916060JOSE, RENER OR JOSE, REYNATO                             0501
A0101400150061039916063JOSE, REYNATO                                            0501
B0101400150000010164502RED ROCK SECURITY INC                                    1602
A0101400150061231207001TOLENTINO, SNOOKY N.                                     0501
A0101400150061356288002FERNANDEZ, EDINA T OR                                   10501
A0101400150061356288002FERNANDEZ, VERNO                                        20500
B0101400150061571313001BEZANT HOLDINGS INC.                                     1601
A0101400600071057858001BESTA SHIPPING LINES, INC.                               0503
B0101400600071328360002**********                                               1601
B0601400100081013032001MT. VIEW BIBLE BAPTIST CHURCH                            1605
A0601400100081363399001WONG, CHUN CHING                                         0501
A0101413280000005279643LIM, SUSAN DY                                            0501
A0101413730000005959740*                                                        0501
A0101410560000003562036GINA D DELA CRUZ OR                                     10501
A0101410560000003562036SONNY C DELA CRUZ                                       20500
A0101400730111063473223SEMBRAN, ARMEL MAINES                                    0501
A0101400730111063473224BRUNA, ALLAN JOHN ANDAYA                                 0501
A0101400730111063473225BOLOS, ANTHONY TEJERO                                    0501
A0101400730111063473226ALMERA, JONATHAN PALOMIA                                 0501
A0101400730111063473227IGNACIO, AMADO ESPOSO                                    0501
A0101400730111063473228COLINDON, MARK ORTINEZ                                   0501
A0101400730111063473229REYES, JOHN CARLO MANZAN                                 0501
A0101400730111063473230SAN LORENZO, ARMAN J.                                    0501
A0101400730111063473231CAJABAN, JERRY NICK GAMBOA                               0501
A0101400730111063473232MATEOS, MIKO SORIANOSOS                                  0501
A0101400730111452111001PEREZ IV, MAURICIO GUTIERREZ OR                         10502
A0101400730111452111001JARDIOLIN, MAJAR                                        20500
A0101400730111452111001PEREZ IV, MAURICIO GUTIERREZ OR                         10503
A0101400730111452111001JARDIOLIN, MAJAR                                        20500
B0101400730111493349001ATOS, EDITHA PADRE JUAN                                  1601
A0101400730111555905001ROMERO, MARIA CECILIA TAN OR                            10501
A0101400730111555905001ROMERO, CESAR DELA CRUZ                                 20500
A0101406040000001392030**********                                               0501
A0101401830141581965001REALUBIT, ANGELA LOPEZ                                   0501
A7201400170152060879001RENDON, EDNALYN BACAY DBU                               10502
A7201400170152060879001FRIENDLY MOTORS REPUBLIC                                20500
B7201400170000003773728THE ROMAN CATHOLIC BISHOP OF                            11604
B7201400170000003773728PAGADIAN, INC.                                          21600
A0101407270000000511624JADE CASIDSID                                            0502
B0101407270162062163002MAREJBHEL TRANSPORTATION SERVICE CO                      1602
A0101407270000000010060SPIRO CLEMENTE OR                                       10502
A0101407270000000010060JENNIFER CLEMENT                                        20500
B0101401090171028710001UNIVERSITY OF SANTO TOMAS MEDICAL A                      1601
A0101401090171195764001FORTUNATO B. SEVILLA III                                 0501
A0101401090171336393001REBECCA R. ABRILLA                                       0501
A0101401090171402989001SUSANA F. BALDIA                                         0502
A0101401090171588320001KRISTINE R. GONZAGA                                      0502
A0301400950000008000659TINDOY, FEDILINA P. OR                                  10502
A0301400950000008000659PALERMO, JESSIE C                                       20500
A0301400950000008868955JOSUE, ANA DBU TINTA AT PRINTA                          10502
A0301400950000008868955PRINTING SERVICE                                        20500
A0101401380201171279001TSAI, ROBERT                                             0501
A0101413020000006295878CANTARA, FRANCIA REMONTE                                 0501
B0101410720000005786770ISIP MANA BUILDERS AND REALTY COMPA                      1602
B3101400160221013530024RD PAWNSHOP, INC.                                        1603
A3101400160000000006464CANDELARIO, EVELYN DBU                                  10501
A3101400160000000006464RALC REALTY                                             20500
A1001400190000001057636VIRTUDAZO, JENEFER S.                                    0501
A1001400190000002170758JUGAN, JUDITH MALOLOT                                    0501
B1001400350000000017041LIMKETKAI HOTEL & RESORT CORPORATION                     1610
B1001400350000009439103MAK GRAND MACHINERY WORKS CORPORATION                    1602
A0101401670271191734004CARLOS, EVANGELINA DIÑO                                  0501
A0101401670271367363001SUACO, JESUS ANGELO ABAYA                                0501
A0101406620000001686495CO CHIEN JR., VICENTE TAN DBU                            0502
B0101406620000009695298JK CAPITAL FINANCE, INC.                                 1603
A0101406620000009018673CORONA, MA. CORAZON REGINA C.                            0502
A0101411110276792560088MESINA, SHERYLL ANN CARPIO                               0502
A0101412470000002086375NAKPIL, JOSE ANDRES OR                                  10502
A0101412470000002086375DE CASTRO, MARIA GUIA                                   20500
A0101412470000005380365GUTIERREZ, JANINE MARIE                                 10501
A0101412470000005380365ELIZABETH                                               20500
A0101412470000000026800ALAN T. CHU                                              0501
A0101400570281019045001INTRA TIRE RETREADING                                    0501
B0501400200000000035710GOLDEN DRAGON MOTOR SALES CORP.                          1601
A0801400160311478374037EDNA T. CARIAGA                                          0503
A0801400160311791295001PAMA, DAISY BALAYO                                       0501
B6601400120314043609011FUNDACION GRAMEEN PILIPINAS INC.                        11605
B6601400120314043609011FEED BRANCH                                             21600
A6601400120000005710630DY, FREDERIC JAN TUBELLO                                 0502
B0101402350321031463001STATE ENTERPRISE                                         1605
A0101402350321179561001TERESITA R. ORIS OR                                     10501
A0101402350321179561001RODOLFO P. ORIS                                         20500
A0101402350321180985001CHIEN CHUNG HO                                           0501
A0101402350321618569001DAMASO, GLORIA SANCHEZ                                   0501
B0101405650322543721001OMNIBILT CONSTRUCTION AND MAINTENANCE                   11604
B0101405650322543721001INC.                                                    21600
A0101402510000011630470MEDRANO, ZENITH ANN PRESENTACIO                          0501
A0101402060351160004002*********                                                0505
B0101409050352039846001KRISANTI VENTURES INC.                                   1602
A0201400920000002804480MIRANDA, SAMMY                                           0501
A0101402930010100003649BRAR, MANPREET SINGH                                     0501
A0101408370382319789001ROCHELA B. CUAYCONG OR                                  10501
A0101408370382319789001CESAR A. CUAYCON                                        20500
B0101411660384046304001ELITE GLOBAL SOURCING PHIL. INC.                         1603
A0101402770391028626002RED ELEPHANT TRADING                                     0502
B0101402770391033332001MARYLAND DISTRIBUTOR'S, INC.                             1602
B0101402770391033377001RHEINLAND DISTRIBUTIONS, INC.                            1603
A0101409180000004940723DAMOLE, GLENN LYNARD                                     0501
A0101409180000004892571JENNIFER DELA CRUZ                                       0502
A0101409180000000874539DIMAANO, ROY VILLALOBOS                                  0501
A0101409210000010895642VALENCIA, DIONESIA DELOS SANTOS                          0501
A0301400820000000316670TIONG, ARISTON D.                                        0502
A0301400820000008995599SUMAGIT, DANILO SUNIEGA                                  0501
B5501400120410044567001RASAY INSURANCE AGENCY AND GENERAL                      11601
B5501400120410044567001SERVICES                                                21600
A2401400180411537301001**********************                                   0503
A1201400150000006253603ACLOPEN, ANGELINA NGA-EB                                 0501
B1201400150000000034379GOSHEN LAND CAPITAL INC.                                 1610
A1201400150421252661001JOHN KWAN OR JENNY KWAN                                  0504
A0901400220000002300845LIM, RENEEROSE VESAGAS                                   0502
A5101400100000010371438DURAN, JIZZA BEN PEARL C. OR                            10502
A5101400100000010371438VISITACION, JAN EARL R.                                 20500
A5101400100000010371245CHEN, LILIBETH DONAIRE DBU JINF                          0502
A0101412890000000007525JEFFERSON S CHONG OR MARYJANE S                         10503
A0101412890000000007525CHONG                                                   20500
A0101403320000000067554SANTOS ESTRELLA, AILLEEN VILLAR                          0501
A0101403320000011605702MICHELLE WILLA U. ORTIZ                                  0505
B0101403320471068309001GAPAN LAND, INC.                                         1601
A0101403320471368063001MARIA CHRISTINA H. VENTURA                               0502
A0101406330000009181459ESQUILALA TRADING                                        0502
A0101406330472213441001JUANITO R. GALINGAN                                      0501
A0101406330472542494001TEODORA A. RAZON                                         0502
A0101410140000001940063ARCENAS, CRESENCIA (MEMBERS OF                          10502
A0101410140000001940063NATASHA (SHOECAT                                        20500
B0501400170481018109002CSI WAREHOUSE CLUB INC.                                  1602
B0501400170481025398002COSTSAVER'S SUPERMARKET, INC.                            1602
A1901400320000002296006INHUMANG, EVARISTA BUTIC                                 0502
A1901400320000005492593CUASAY, NEMESIA RESURRECCION                             0501
A1401400110492372983002FLORES, MYRNA ABAYLE                                     0501
A1401400110492478374010BACULI, TERESA D.                                        0501
A1601400170000009954352OXALES, FRANCES JOHN MORTEGA                             0501
A0101407430000002298315EXCEL A. GRESOS                                          0501
B0101408530516035673001FERROTECH STEEL CORPORATION                              1608
B0101411790000004808106SPECTRUMED INC.                                          1601
B0101412050000011229273********                                                 1602
B0101403450521033882002*********                                                1610
A0101404130000005962398FETALINO, JENA FORMILLEZA                                0502
B0101404130601563008001I. PRUDENTIAL SHIPPING AGENCY SERVICES                  11605
B0101404130601563008001INC.                                                    21600
B0101404260000004781335LIM, HERMAN DONATO DBU ONEFULL TRADING                   1602
A0101404260000007498288DE GUZMAN, MARILOU GREGORIO                              0502
A0101404260611478374076NEREZA P RULL                                            0502
A0101409920650078985001REYES, ANGELINA BERSABE                                  0501
A0101409920000001951880MEMBERS OF NATASHA (SHOECAT INC                         10503
A0101409920000001951880DEJUCOS, PURITA                                         20500
A0101411530000006094431RAVELO, NYMLA C                                          0501
A0101411530000010702648PANGILINAN, MANUEL ESPIRITU                              0502
B0101413570000003580681FERRER, MARK OLIVER AND FERRER, ADLIN                   11601
B0101413570000003580681MAE                                                     21600
A1301400210000007669392ESPIQUE, TEODORO SANTOS                                  0502
A1301400210000009982256AYCO, GEORGE ELERA DBU AYCO TRA                          0504
A1301400210682245136001ELIZABETH L. ALONZO                                      0502
A0101408240711656808001RAMIREZ, ANNA CARMELA OR                                10502
A0101408240711656808001MICHAEL RICHARD                                         20500
A2801400100712039498002VECTOR PEST CONTROL                                      0502
A2801400100000011266783ARMAMENTO, HONORIO PEREZ                                 0501
B2801400230000009021812A CHILD'S TRUST IS OURS TO NURTURE                      11601
B2801400230000009021812(ACTION), INC.                                          21600
B4101400260000001198949MONTALBAN CONCRETE AND ASPHALT INC.                      1605
A4101400260000003680084CAMPOS, FILOMENA FORTICH                                 0501
B4101400390813027260001PHILS-JEON GARMENTS, INC.                                1605
B4101400420000007305360VIC IMPERIAL APPLIANCE CORP.                             1601
B4101400420814027409001JAMGASCO INC.                                            1601
A4101400420814408530001LEGASPI, ANA MARIE MAATA                                 0502
A4101400420000006643490LA AS, NORA P.                                           0501
A4101400420000000120798MILO, ROMELDA F.                                         0501
A4101400420000003715724FLAVIANO, PERLITA                                        0501
B4101400550815038465004SOUTH EAST ASIAN MEDICAL CENTER INC                      1630
A0101412340000003341175RICHARD C. BECHAIDA                                      0502
A0101412340000003348849MARIAN C. SARENAS                                        0501
A0101412340850091247001ROSTRATA, DANILO DELA CRUZ                               0502
A0101404840000003069981ATIENZA, SHIRLEY                                         0501
A0101404840851478374183ISABELITA P. MAMUYAC                                     0502
A0101405070000008250202ALCID, ANA MELISSA MAPUA DBU NA                          0502
A0601400230000006242968PANGILINAN, JOSEPH MARK BUNDALI                          0503
