B0101403320471004355001Z & P GLOBAL STEEL MANUFACTURING CORP.                   1601
A0101412630000000909768LAUZON, BEATA GRATIL                                     0501
A0101412630000004062086BANZUELA, ELEANOR ADORNA                                 0502
A0101405940000000061685GALVEZ, GENE DUARTE                                      0501
A0101405940000000061685GALVEZ, GENE DUARTE                                      0502
B4101400260000000048991*****                                                    1603
A0101400860000000632637**********                                               0501
A0101400860011422394002**********                                               0502
A0101411370000003294900FARRALES, MARCUS GLEN B. DBU                            10502
A0101411370000003294900GOLDLINE BROKERAGE SVCS.                                20500
B0101400150000000633436HUBB STORES AND SERVICES, INC.                           1605
A0101400150000012117161PADAYHAG, PEDRO RICARDO SAQUIN                           0501
A0101400150061039916170FELIX, MARJORIE R.                                       0501
B0101400150061043190001NORTHERN STAR ENERGY & FUEL DISTRIBUTION                11605
B0101400150061043190001CORPORATION                                             21600
A0101400150061055752090HENRY H. LIWANAG                                         0501
A0101400150061376495001MA ARLEEN P. SISCAR                                      0501
A0101400150061559668002CARLOS, AILEEN ROSE SARNO                                0501
A0101400150061753042001LIM, ROSANNA JOY NOLASCO OR                             10501
A0101400150061753042001LIM, MARK GREGORY JULIO N                               20500
A0101400600071233684001LIM, RONALD N.                                           0505
B0101405810000000016884PLASTIC CONSUMER CORP.                                   1601
B0601400100000000142247ANGELES FORTUNE (HONGKONG) SEAFOOD                       1610
B0601400100000002099250ECO-HYGIENE INSTITUTIONAL SALES COR                      1601
A0601400100081255379001MUNOZ, JENNIFER LAURIE E.                                0501
A0601400100081255379002MUNOZ, JENNIFER LAURIE E.                                0501
A0601400100081478374001SANCHEZ, REGINA OR JERRY                                 0502
A0601400100081615489001SOLIMAN JR., PABLO ZAMORA                                0504
A0601400100081689611001MALINIT, MARSHAL OR MALINIT,                            10501
A0601400100081689611001JENNIFER                                                20500
A0601400520000009516485CRISTOBAL, LUISITO QUIZON                                0501
B0101413730000000469734L.Y.S. HARDWARE & INDUSTRIAL SALES INC.                  1610
A0101400730111203514067ELIZABETH MILES                                          0501
A0101400730111377984001LEGASPI, JULIETA CABRAL                                  0502
B7201400170000003773488ALINAB, WILSON                                           1601
B7201400170000003773591JELAY CONSTRUCTION AND SUPPLY                            1601
B7201400170000003773660LABANGAN FARMERS FIRST CONSOLIDATED                      1602
B0101407270162036499001JOB PLACEMENT RESOURCES SERVICES                        11603
B0101407270162036499001COOPERATIVE                                             21600
B0101407270162039491001UMALAG FARMS, INC.                                       1604
B0101407270000004558367SANTIAGO, DAREEN DEL MONTE                               1601
A0101407270162331908087MARTIN F. ALISANGCO                                      0501
A0101401090000000037841XERILLE MARJO V. CRISTOBAL                               0501
A0101401090171195828001SANCHEZ, JOSEFINO IGNACIO                                0510
A0101401090171343574001NOEL L. FLORES OR                                       10502
A0101401090171343574001MA. VICTORIA E. FLORES                                  20500
A0101401090000010238552MADDATU, MELLANIE MARTINEZ                               0501
B0301400660000000194990CMGCOR CORPORATION                                       1605
B0301400660000006755031HUANGHOU FRUITS CORP.                                    1605
A0301400660194731082088PEJI, JUNE ANN SOLER OR PEJI,                           10506
A0301400660194731082088JONATHAN CORTES                                         20500
B0101401380201041467001D' GREAT ROVERS EVENTS                                  11602
B0101401380201041467001MANAGEMENT                                              21600
A0101413020000002292680**********                                               0501
A0101413020000002292760********                                                 0501
A0101410720000001602302******                                                   0502
A0101412500000012575576BALTAZAR JR., DANTE BARBASA                              0501
B3101400450223028468001NEW ARMSTRONG SECURITY AGENCY                            1602
B3101400450000005960585KABALIKAT PARA SA MAUNLAD NA BUHAY, INC.                11605
B3101400450000005960585(KMBI)                                                  21600
A3101400450000005960432LACANILAO, MARKUS DBU MAVLAC                            10502
A3101400450000005960432METAL TRADING                                           20500
A3101400450223478374004MORENO, JONALYN                                          0501
B3001400130000006004717BAKERS ENTERPRISES                                       1602
A3001400130000008264864CACAFRANCA, KARL RUSSEL INOCENC                         10501
A3001400130000008264864IO                                                      20500
A1001400350000000922014PEARSON, PILARCITA ROA                                   0502
B1001400350000007920876PEARSON, PILARCITA ROA AND  HEQUILAN,                   11602
B1001400350000007920876ELVIE CORTEZ                                            21600
B1301400470000003270113OBRIGADO LENDING INVESTOR, INC.                          1601
A1901400290000009110143JOSELITO NORBERTE UMALI II                               0501
B1901400290261004758001PHILTIMES CREDIT CORPORATION                             1602
A0101401670000011364571TRINIDAD, SONNY BALDERAMA                                0501
A0101406620000001686451YSMAEL, MANUEL CHUA                                      0501
B0101410980000006014551FATIMA DOMINIQUE C. VENTURA AND GEREMY                  11601
B0101410980000006014551VANDER F. KHO                                           21600
A0101411240000005136425GACULA, NORMAN DIZON                                     0502
A2601400270000000084273BATALLONES, TELESFORO DBU T.G.                          10502
A2601400270000000084273BATALLONES TRADING                                      20500
A1101400120000006186514MACATO, ALEX C. DBU BA                                  10503
A1101400120000006186514ENGINEERING & CONST.                                    20500
A6601400120314612856001FRANZUELA, SARAH S.                                      0503
A6601400120314613263008ORTIZ, JUAN M. OR ORTIZ, MYRNA                          10505
A6601400120314613263008ORTIZ JR., JUAN                                         20500
A3401400280318478374001MARILYN B. BISMANOS                                      0504
A0101402350321557382002PARBA, NANCY MUNEZ OR                                   10501
A0101402350321557382002PARBA, JOEL QUIL                                        20500
A0101405650000009768110LOPENA, MARITES BLANCO OR                               10503
A0101405650000009768110LOPENA, PATRICIO                                        20500
A0101405650322177290001LEONIDA, ELIZABETH ALESNA                                0501
A0101405650322400866001LEVISTE, PANCHO M. OR                                   10503
A0101405650322400866001LEVISTE, EDITHA                                         20500
A0101405650322522833001JIMENEZ, MARIA JEAN BREBONERIA                           0501
A0101402060000005137326SALCEDO, CIELITO LINDO BLANCO                            0501
A0201400920000000048031FMC CATERING SERVICES                                    0502
A0201400920375093391001BARRAL, IMEE CONSTANTINO OR                             10501
A0201400920375093391001BARRAL, ROY WENC                                        20500
A0201400920375478374008OLELA, DONATILLA OMELGO                                  0501
A0201400890000012208967ADOLFO, KARL MATTHEW RUFIN                               0501
A0201400890376520766003MANCAO, MA. RINALYN B.                                   0501
A0201400890376535273002TOLEDO,HAROLD XAVIER/GUEVARRA,                          10503
A0201400890376535273002KENNETH/CLIMACO,                                        20500
B0101402930381690943001LA CUMBRE LAND INC.                                      1602
A0101408370000003775100DRS. CECILE CASIMIRO OR MA. LUZ                         10501
A0101408370000003775100CASIMIRO-QUERUBIN                                       20500
A0101408370382462112001BASA, ALDINE ASTRID ARIVE                                0505
A0101411660000000109300WILFREDO M. PADILLA                                      0501
A0101402770000010082598LEE, BERNADETTE DELAS ALAS                               0502
B0101405490392029745002MESINA BROTHERS, INCORPORATED                            1601
A0101408400000011986751ODONIO, MARY GRACE MENDOZA                               0501
B0101408400394028489001KING'S HOLLY, INC.                                       1602
A0101408400394433036001OROSA, ROSALINDA L OR GARCIA,                           10502
A0101408400394433036001EVELYN R.                                               20500
A0101408400394478374094NUNEZ, GENIE                                             0501
A0101408400394539327001WEE, ROSALIND LEE                                        0505
A0101408950396563723001CELLONA, CLARISSA VILLARAMA                              0503
A0101409210000008922516REGINALD REGIO                                           0502
A5501400120410617600001DE LA CRUZ, JERRY FLORES                                 0502
A5501400120410617600001DE LA CRUZ, JERRY FLORES                                 0501
A2401400180000000428022PEREZ, AUGUSTO DAGANZO                                   0501
A2401400180000010066401MALANA, ZENIA CONGSON                                    0501
B1201400150000005357906COST OF MONEY LENDING CORPORATION                        1605
A0101403320000001647036LORENZO RENAN E. TORRES                                  0502
A0101403320000001803167ACOMPANADO, ERIC GALANG                                  0501
B0101403320000006027009OAKS RESIDENCES HOMEOWNERS ASSOCIATION                   1601
A0101403320471067829001RED COUCH KTV BAR                                        0501
A0101403320000001646777MYRNA M. CRISOSTOMO                                      0501
B0101403320471640763001RIJISA LENDING INVESTOR                                 11602
B0101403320471640763001CORPORATION                                             21600
B0101406330472045599001BES SERV LOGISTICS CORP.                                 1603
A0101406330472212402001ARTEMIO V. DEL ROSARIO                                   0505
A0101406330472478374044ARMES SMITH B. ALVARADO                                  0501
B0501400170481016901001CARRIED LUMBER COMPANY, INC.                             1610
A1901400160491244286001CARLITO GO OR FELIE GO OR                               10505
A1901400160491244286001CARLEEN OR CHERYL ANNE                                  20500
B1401400110000000167446SOUTHERN PROCESSING CORPORATION                          1606
A1601400170000012471011DE VERA, JEZZALEN DIZON                                  0501
B1601400170494047397001FEDERATION OF BACMAN HOST                               11602
B1601400170494047397001COMMUNITIES, INC                                        21600
B0101403580511005607002RAM FOOD PRODUCTS, INC.                                  1610
A0101403580511150629008MIRIAM HIPOLITO OR RAMONA PENA                          10501
A0101403580511150629008OR GERALDINE LIM                                        20500
A0101403580511152575002BERDOS, REX REDENTOR C. OR                              10502
A0101403580511152575002BERDOS, MARIBEL                                         20500
A0101405940512449606125*******                                                  0501
B0101408530000010055722PANELO, JANE G DBU LOGICARE CUSTOMS                     11602
B0101408530000010055722BROKERAGE SERVIC                                        21600
B0101408530516033397001SPRINGER INTERNATIONAL, INC.                             1605
A0101411790000004808015WONG, KWOK MING                                          0501
B0101403450000008069181ANTARCTICA COLD STORAGE INCORPORATE                      1603
A0101403450521238097001**********                                               0502
A0101403450521638611001**********                                               0503
A0101403450521679548001**********                                               0502
A2201400250000001066006BERLYN T. COSTALES OR                                   10505
A2201400250000001066006JOYCE D. GOMEZ                                          20500
A2201400250561767092001MARIA K. CHAN OR ALONA T. CHAN                           0501
B0101404130601450518001GEORGE T. SIY &/OR ANGELINE SIY                         11602
B0101404130601450518001FIECHTER ET AL                                          21600
A0101407720602496503007CYNTHIA RAMILO                                           0501
A0101404260000003498391SILVA, ARISTOTLE GIMOTEA                                 0501
A0101404260611349222001GAGARIN, MA CHRISTINA GLEAN                              0501
A0101409890000003098213AQUINO, VIL DBU JOVAROM                                 10502
A0101409890000003098213COMMERCIAL                                              20500
A0101411530000010702637**********                                               0502
A0101411530654089400001**********                                               0501
A0101413440000002125348**********                                               0501
A0101413990000000206033MARITES R. CONANAN                                       0502
A0101413990000007318687WILHELMINA C. REYES                                      0501
A0101414120000001751333BALDAGO, MELECIO MAESTRE                                 0501
A0101414120000000649081MC EDRICK TRUCKING SERVICES                              0502
B1701400230000002762558STA. TERESITA HOSPITAL  (STH) INC.                       1601
A0101408240000008854468ULEP, MARICEL HAJI AHMAD                                 0502
A0101408240711609524002REYES, MARIA ELMA MONTELOYOLA                            0501
A2801400230000000937548VITUG, QUIRINO DBU VI-JETT                              10502
A2801400230000000937548ACCOUNTING OFFIC                                        20500
B2801400230000001580296DEL ROS AMUSEMENT ENTERPRISES, INC.                      1602
A4101400260000005333302DEL CALLAR, ROLANDO REDOTA                               0501
A4101400260000011417553KIM, KYUNG YEE                                           0502
A4101400260000010623593OBIAS, CHRISTIAN B. DBU TWINJ                           10501
A4101400260000010623593BAR AND RESTAURANT                                      20500
A4101400390000007459490********                                                 0501
A4101400420000009270571GALANG, ROBIN SOLIMAN                                    0501
B4101400420814037712001REAJALE GAS STATION                                      1601
A4101400420814246372001ERIBERTO P. CABREZA OR                                  10501
A4101400420814246372001MARIETTA V. CABR                                        20500
A4101400420814456030002AGELLON, LILY RADY AGUINALDO                             0503
A4101400420000004847890NELLIE B. CARAIG                                        10502
A4101400420000004847890NELLIE B. CARAIG                                        20500
A0101412340000001017907BANGAYAN, RAQUEL TAN OR                                 10502
A0101412340000001017907BANGAYAN, JOSE S                                        20500
A0101412340000003344050LANDICHO, ADRIAN VERGARA                                 0501
B0101412340000000031012MALATE CONSTRUCTION AND DEVELOPMENT                     11610
B0101412340000000031012CORPORATION                                             21600
A0101412340850095320001BAUYON, HERMAN L. OR                                    10503
A0101412340850095320001BAUYON, ROWENA M                                        20500
B0101406750852033630001NEO-TES CONSTRUCTION SERVICES                            1601
B0101406750000007097227BRIA HOMES, INC.                                         1610
A0101405070861197650002********                                                 0502
