B0301400530193821100608**********                                               2005
B1201400150421821100608**********                                               2003
B0501400200292821100608**********                                               2002
A5101400100000015856827HERA, ROGER MARK CUEVAS DBU TAG                          0502
A0101408400394230018001JOSE H. GAOAT JR. OR                                    10503
A0101408400394230018001JANEFER F. GAOAT                                        20500
A5101400100000010371212BAGONOC, ALDRIN POLICARPIO                               0502
A5101400100000011337396MAMAWAG, HAIDEE TULANG                                   0501
A0101403320471311190002*****                                                    0505
A0101400860011443455002**********                                               0510
A0101400860011568203001**********                                               0505
A0101401250920190000009*********                                                0510
B0101400150000001708425INTELUCK CORPORATION                                     1602
A0101400150000003322374PAGBA, LOIDA                                             0501
B0101400150061010635001ROSCAL CORP.                                             1602
B0101400150061024429001BRONZEOAK PHILIPPINES INC.                               1603
B0101400150000000633470RHEMAWAY INC.                                            1602
A0101400150061292057006SISON, GIDEON GOCHIOCO                                   0503
A0101405810000013190813TEPACE, ALYANNA MARIE JAVIER                             0501
B0101405810000001021172PUA, C DBU MCK SCHOOL & OFFICE                          11603
B0101405810000001021172SUPPLIES                                                21600
A0101405810072234892001**********                                               0501
A0101405810072328069001VASQUEZ, SOCORRO                                         0502
B0601400100081013319001ANGELES CITY UNIVERSAL MARKETING                        11606
B0601400100081013319001CORPORATION                                             21600
B0601400100081013322001LACTO B INCORPORATED                                     1604
A0601400100081251944001DAVID, GERARDO MORENO                                    0501
A0601400100000013256770DE JESUS, NANETTE LOBO                                   0502
A0101410850000003101991COQUIA JR., RODRIGO CARDOZO                              0502
A0101410850000002356761**********                                               0503
B0101400730111009203001QUESTOURS                                                1601
A0101400730111718087001PASAGUE, LALAINE TRINANES                                0501
A0101401960121380499001**********                                               0501
B0101401830141021045001TCTS TRUCKING SERVICES                                   1610
B0101401830141029678001RINA TRANSPORT SERVICES                                  1602
A0101401830141465885001IDUROT, CHARISSA V.                                     10501
A0101401830141465885001OR IDUROT, UZIEL S.                                     20500
B0101407270162044602002FRONTLAKE, INC.                                          1610
B0101407270162044738002BARTLE BEYL, INC.                                        1610
B0101407270162050373002AMARELA, INC.                                            1605
B0101407270162053928002QUANTUS BUSINESS SERVICES, INC.                          1610
B0101407270162658952001YUMUL, HEIDEE GARCIA AND MALLARI, HAZEL                 11601
B0101407270162658952001GARCIA                                                  21600
A0301400530000011432921MATURAN, ZALDY BALAGOT DBU MATU                          0502
B0301400660000000194832ESTANO, BEWEL JOY LEYSON                                 1603
A0301400790000006269856DEDELES, ARMAN CASCABEL                                  0502
B0301400950000013759112ABAD, MARY GRACE DEGULLACION DBU MG                      1604
A0101410720000008730774PASCO, ANNALIZA ALCANTARA                                0502
A3101400450000011907561AVANZADO, GRACIA GUERRA                                  0502
A3101400450000013898623APRICIO, ACE EMMANUELLE ZARATE                           0501
A3101400450000015168200DE VERA, RAUL CLAUREN                                    0503
A3101400740000006735857JARABELO, NATANIEL MADRID DBU                           10502
A3101400740000006735857COZY TREK RENT A CAR                                    20500
A1001400190231339933001MOORJANI, NOOR G                                         0502
A1301400470252478374030JERICA P. MATAMMU                                        0502
A1301400760000003415643BERNARDITE O. FERRER                                    10501
A1301400760000003415643OR VIC KEVIN O. FERRER                                  20500
A1301400760000012981089DENNIS SCOTCH HERNANDEZ OR                              10505
A1301400760000012981089CHARLES LUIGIE HERNANDEZ                                20500
A1301400760000000050422RAFAEL R. CLEMENTE                                       0502
B1901400290261027293001LIPA MEDICS INC.                                         1650
B0101401670271045353001DETECTNET SECURITY CREDIT COOPERATIVE                    1604
B0101410980000000171975********                                                 1601
B0101410980000000171997FUNTOURS TRAVEL CORPORATION                              1601
A0101411820000001356656CRISTINITA A. HERMENEGILDO                               0501
B0501400200000000035710GOLDEN DRAGON MOTOR SALES CORP.                          1601
A6601400120000003084717DATO JR., BAYANI EVARISTO DBU C                         10501
A6601400120000003084717CONSTRUCTION JT                                         20500
B0101402350321024658002OLIVAREZ COLLEGE INC.                                    1608
B0101405650000000772834MIFFI LOGISTICS CO. INC.                                 1610
A0101402510000013486096DEL RIO, CANDY OBCENA                                    0501
A0101402060000002258831ANGELES, JOSE AMADO RAYMUNDO                            10505
A0101402060000002258831OR ANGELES, LEON                                        20500
A0201400890000011279593LIM, MICHAEL ONGVELOSO                                   0501
A0201400890000015383276RIGOR, JESSY LANTERNA                                    0501
B0201400890000007877312NG KHAI DEVELOPMENT CORPORATION                          1602
B0101402930381008843001BASIC HOUSING SOLUTIONS, INC.                            1605
A0101402930381488888002EDWARD P. LIM                                            0501
A0101405490000006214153RUIZ, IAN JERICHO NAZARETH ENGU                          0501
B0101405490392039342001COMBINED ELECTRO-MECHANICAL SUPPLY, INC.                 1606
A0101408400000003120623PEREZ, PAMELA MANECLANG                                  0501
A0101408400000005782294COMETA, EMER T.                                          0502
A0101408400000016801104CADUBLA, RYAN VINCENT DINO                               0501
A0101408400394478374034MERLA M TANO                                             0502
A0101409180000008700156CAUTON,ANNA KATRINA, HERNANDEZ,                         10501
A0101409180000008700156MIGUEL OR HERNAN                                        20500
A0101409180000014368011JACKSON, ANDREW DAVID                                    0501
A0101412210000016679940NERIA, RONALD POLECINA                                   0501
A0101412210000016700355BLANCAFLOR, RAMON NOEL PANELO                            0501
A0101412210000010434852RAMOS, GEORGE RAMIL CADIZ                                0501
B0301400820000012928797DIAMOND MULTIPURPOSE COOPERATIVE                         1605
A5501400120000009875803FERNANDEZ, JACQUILINE GETANO                             0503
A5501400120000012653413CABLITAS, KRISTIAN JAY MANUEL                            0503
B5501400120000005492402PRIMOS UNIDOS FOOD CORPORATION                           1602
A5501400120410787960001TANTERAS, EDWIN MONTEJO                                  0502
A1201400150421039385001JL'S CLEAN UP JANITORIAL &                              10503
A1201400150421039385001MANPOWER SERVICE                                        20500
A5101400100000010371392NAVALES, ALICE OLIVERIO                                  0501
B0101403030441390145001**********                                               1602
A0101410140475478374010PELAEZ, BEATRIZ GUEVARRA                                 0501
B1901400320489062995002CLEVERGOLD CREDIT CORPORATION                            1610
A1901400160000016800969SAN JUAN, RICHARD CORDERO                                0501
A1901400160000016803413PADILLA, JANETH RACEL ESTRELLA                           0501
A1901400160491505354001ATIENZA, CHRISTINE JOY CARANDAN                          0501
A1401400110000014855593UY, MEL REY MINGOA                                       0501
B1401400110492028287001MARYHILL COLLEGE, INCORPORATION                          1605
A0701400260000005303713EVANGELISTA, EDUARDO ERNESTO                            10502
A0701400260000005303713ALMEDA                                                  20500
B0701400260000000041083MULTI-WARE ECON-SALES CORPORATION                        1605
A0101407430000014298792CANO, ANNA VANESSA HERRERA                               0501
B0101403580511005607002RAM FOOD PRODUCTS, INC.                                  1608
B0101403580000004540629ST. ANTHONY RESIDENCES PARANAQUE INC.                    1602
A0101403580000012314793MONDRAGON, MAMERTO ZAPATA                                0503
A0101405940512360728001ERWIN P. HERNANDEZ OR                                   10501
A0101405940512360728001AGNES T. HERNANDEZ                                      20500
A0101408530000014752399ROMINNA ANGELINE R. RAYMUNDO                             0501
A0101412050000008837130GARCIA, MARY NICOLE GALVEZ OR                           10502
A0101412050000008837130GARCIA, JOSE LEONARDO                                   20500
B0101403450521011605003********                                                 1601
A0101403450521738065001**********                                               0501
A0101403610000007106378JUREIDINI, IRZAN DU                                      0501
A0101403610531219568002OLIVAREZ, RAUL IMZON                                     0501
B2201400250000004405241GO TRAKTORA TRADING INCORPORATED                         1601
A0101404130000016787250IDA, HIROAKI .                                           0501
A0101404130000009533291MACALAGAY, ALAN JASPER ARBOLADO                          0502
A0101407720000006028224RAYMOND JUDE GERARD PANLILIO OR                         10503
A0101407720000006028224MARIA LUISA PANLILIO                                    20500
A0101407720602398542002DR. ROBERT DENNIS J. GARCIA                              0502
A0101407720602399815001ALEJANDRO, RUTH MARGARET                                10501
A0101407720602399815001FRANCISCO                                               20500
A0101407720000005100161DE JOYA, MADELENE ANG                                    0501
A0101407720602477075001MAGPILI, CHRISTINE JONTILANO                             0501
A0101404260611155266001YU, SUSANA OR EDDIE                                      0501
A0101407690000015400238CABIAS, NICK MALQUISTO                                   0502
A0101411530000014898341SABERON, JACQUELINE FILOMENO                             0504
A0101413570000013487391CHUNG, DONG SEUNG                                        0501
B0101413570000000206522HOLY SPIRIT COMMUNITY MULTIPURPOSE                      11601
B0101413570000000206522COOPERATIVE                                             21600
B0101413990000006498106NORTHEAST DEVELOPMENT & ACQUISITIONS                    11602
B0101413990000006498106CORPORATION                                             21600
A0101414120000001142863*****                                                    0501
B0101414120000003584281JD & P FOOD TRADING CORPORATION                          1602
A0101406590662366986001TOMAWIS, AGAKHAN MANCAO                                  0501
A0101410300000007614219MELCHOR, GISELA MILLAR                                   0501
B1301400210000000023532SKYMAT FIBERGLASS ENTERPRISES                            1603
A1301400210000000540652LEONCIO, GENE ANTHONY GIRON DBU                          0502
A1301400340683590977001NON, JOHN VIADO                                          0501
A1301400500000011254594RAMOS, MA. TERESA FLORES                                 0501
B1301400500684602319001*****                                                    1610
A1701400230000011255291MUSNI JR., CARLITO CENTENO DBU                          10505
A1701400230000011255291FJ MAYO ENTERPRISES                                     20500
A1701400230000008555391ANG, ENRICO FORMOSO DBU COUNTRY                         10502
A1701400230000008555391RICE MILL AND TRADING                                   20500
A1701400230693478374015FERNANDEZ, FEMA L.                                       0501
A0101408240000002822120BORRA III, JUAN MERIS                                    0502
A4101400420000003715724FLAVIANO, PERLITA                                        0501
A4101400550000007583660DIZON, C DBU C.D. DIZON CONSTRU                          0502
A0101412340000003349780IRWYN C. YPARRAGUIRRE                                    0501
B0101412340000002879932EUROASIATIC PHILIPPINES INC.                             1602
A0101404840851406561002MARYLYN V. ANGELES                                       0503
A0101406750852023552001DEN-DEN & DJ ANNE                                       10503
A0101406750852023552001GENERAL MERCHANDISE                                     20500
