F0101401250021599833001HASHIMOTO, LYDIA BONDOC                                  2504CKO
F01014130200000000567844TH WALL PRODUCTION DESIGN                              12602CKR
F0101413020000000056784STATION                                                 22600CKR
F1001400190231048767001MSU-IIT NMPC PUERTO-CDO BR.                              2601CKR
F0101406460000001231770DY, ALLAN LAO DBU TRIAWOOD MARK                          2602CK1
F0101400570281506759001EDUARDO ROMMEL S. POBLETE                                2503CKO
