A1601400170000001360792CHEN, ZE DENG                                            0501
A0101410720653478374002ZENAIDA O. CARLOS                                        0501
A1101400120000003595886JAVIER, FRANCIS ALBERT S. OR                            10501
A1101400120000003595886MANUEL, BLESSING FAITH W.                               20500
B0101402930381010731001********                                                 1601
A4101400420814405680001TIBAYAN, CYNTHIA SAPUTIL                                 0502
A4101400420814481492001MADERA, EILEEN SOLANO OR                                10501
A4101400420814481492001MADERA, ABEGAIL                                         20500
A4101400420814715455001GAMALONG, EVELYN SAMOY                                   0501
A0101401250000004980645DE GUZMAN, CANDY LOU MANZANO                             0501
A0101401250021034026001PETS AHOY FEEDS AND                                     10502
A0101401250021034026001POULTRY SUPPLY                                          20500
A0101401250000000460586AZUCENA, MARIA PAMELA ENRIQUEZ                           0501
B0101400150061228498001SECURITY LAND CORPORATION                                1605
B0601400100081035921001MOTHER'S CAKE HOUSE AND RESTO, INC.                      1605
A0601400100081257324001CUNANAN, MYLENE T.                                       0501
A0601400100081661360001TORRES, KEVIN JAY GAMES                                  0502
B0601400360000000978936THE MEDICAL CITY CLARK, INC.                             1610
A0101413280092047618001JENELYN C. GALEON                                        0501
B0101413280092062305001RELIANCE EDIFICE MANAGEMENT SERVICES                    11601
B0101413280092062305001CORP.                                                   21600
A0101401960000001844566PANESA, SALVACION VALEZA                                 0501
A7201400170000002791262LACIERDA, JANRY H. OR                                   10501
A7201400170000002791262MONTERA, ELIZABETH A.                                   20500
A0101400440161039572010MYRNA A. CANELAS                                         0502
A0101400440161525001052MARY B. MONDRAGON                                        0501
A0101407270000007689716PONCE, DARYL ANN JIMENO                                  0501
A0101401090171704770001MARIO ALVARO M. FABRO                                    0502
A0101410720000000211907DE JESUS, FRANCISCO DALUZ                                0501
A0101410720000001602302******                                                   0501
A0101410720000006239869******                                                   0501
A3101400450000002092979SAMONTE, MAXIMA ELEANOR BIENVEN                          0501
A1301400470000005737835CHAROL GAY G. FERNANDEZ                                  0501
A1301400470252478374018ELIZABETH P. BARNACHEA                                   0501
A0101401670271189252002LOURDES LIM LEE OR CARMEN C.                            10501
A0101401670271189252002LIM OR ROSARIO C                                        20500
A0101412470000005380332SALIGUMBA, JULIE MAE RAS                                 0502
A0101412470000000520170NG, MARJORIE OR SIY, CHERRIE OR                         10502
A0101412470000000520170BARCELON, MARILYN                                       20500
A1101400120000000065103BELLO, TERESITA CASTARITAS                               0502
A6601400120000001065292AOYANG, DONABEL CERBITO                                  0501
A6601400120314041602001LEXTAN GENERAL MERCHANDISE                               0502
A3401400280000001723495JENNIFER G ONG OR JOHN OWEN ONG                         10501
A3401400280000001723495OR JOAQUIN C GOCHANGCO JR                               20500
B0101402510341020561001PHILIPPINE PHARMACISTS ASSOCIATION                       1602
A0101402060351009359001JIANDANI, SURESH G. OR                                  10501
A0101402060351009359001JIANDANI, KAVITA                                        20500
A0201400920000007403227YAP, ARVIN ANTHONY CAUSIN                                0501
B0201400890000005491341********                                                 1602
A0201401020000002250482LIM, TANYA LOU RIVERA                                    0501
A0101411660000003580192COSTELO, EVANGELINE PADILLA                              0501
A0101402770391472751004DE GUZMAN, JERVIE RACELIS                                0502
A0101408400000001614693ELICARL SALON                                            0502
A0101408400394230018001JOSE H. GAOAT JR. OR                                    10503
A0101408400394230018001JANEFER F. GAOAT                                        20500
A2401400180000000073550ALBARRACIN, JEMAR DEGAMO                                 0501
A2401400180000000428102SAGABAEN, AMALIA COSTALES                                0501
A2401400180000000826233OXALES, HANNAH LOUISE RAQUEDAN                           0501
B2401400180411014550001GSC PROGRESSIVE MULTI-PURPOSE COOP.                      1603
B2401400180411033064001P.G. ANG AND SONS, INCORPORATED                          1610
A2401400180411431120001GELLANG, JOVY ALBARANDO                                  0501
A1201400150421039385001JL'S CLEAN UP JANITORIAL &                              10502
A1201400150421039385001MANPOWER SERVICE                                        20500
A1201400150000001863298MOLL, MONICA ISABEL NILO                                 0501
B0101403030441382008001**********                                               1602
B0101403320000000522245MAGPIKIT RESOURCES INC.                                  1610
A0101406330000001235114VILLANUEVA, JAN KEVIN MALLARI                            0501
A0101406330000000451381TACUBAN, THERESA JOY MONTIERRO                           0501
A0101406330000002278004FLORESTA, WILLIAM LEE                                    0501
B0101406330472034614001TRI-SM PROFESSIONAL SERVICES, CO                         1603
B0101406330000000432999ELM WATER SYSTEMS AND EQUIPMENT SUPPLIES                11603
B0101406330000000432999CORPORATION                                             21600
A0101406330472528023001RONALDO L. GERON                                         0502
A0101406330472564317001MERLIE S. RAYOS                                          0501
A0101406330472657552002**********                                               0502
B1901400160491013980001VIC IMPERIAL APPLIANCE CORP.                             1605
A1901400160491247764001MARITES E RAMIREZ                                        0501
A1601400170000001069056CHRISTOPHER S. CO                                        0505
A1601400170000000421149EVELYN B. DELVO                                          0502
B0101407430000004491732PORT STAR SHIPPING & MARINE SERVICES INC                 1603
A0101405940000001047381MIRANI, DIANA NARESH  JT                                 0502
A0101408110515554871001EDGAR R. RODRIGUEZ                                       0501
A0101408530516568727001MARKING, AMADO MATA                                      0503
A0101404000000000574618OH, JONG EUN                                             0501
A0101404000000000574641CUNA, LUISA ZORRILLA                                     0501
B0101404000000006028122PCCI FINANCE CORPORATION                                 1601
B0101404000551700890001HEADLAND ROAD CAPITAL INC.                               1601
B22014002500000000169863 KIS FOOD STORE CORPORATION                             1601
A0101404130000001173615KING, ARTHUR CELESTINO                                   0501
B0101404130601491951001LUGANO ENGINEERING CONSULTANCY                           1604
B0101404130601621189001PROPEL MANILA 360, INC.                                  1605
A0101407720602166267001BLAISE K. LIAO                                           0502
A0101407720602298846008LAMBERTO U. OCAMPO OR                                   10501
A0101407720602298846008ANNABELLE SARMIENTO                                     20500
A0101413440000002339528MACATLANG JR., RODRIGO C.                                0503
A0101410300000000592154MILLAR, JOSEFINA C. OR                                  10504
A0101410300000000592154MELCHOR, GISELA                                         20500
A0101410300000002375891PAZCOGUIN, HERNANI ALDABA                                0505
B1301400210000000023463SAN PABLO MULTI-PURPOSE COOPERATIVE                      1603
B1301400340000005264831NET20 CREDIT & ENTERPRISE DEVELOPMENT                   11601
B1301400340000005264831SERVICES                                                21600
B2801400100712024577001PHILIPPINE COASTAL STORAGE AND                          11605
B2801400100712024577001PIPELINE CORP.                                          21600
B2801400230000001580296DEL ROS AMUSEMENT ENTERPRISES, INC.                      1601
B4101400260000001198916FIRST SOLID BUILDERS, INC.                               1610
A4101400260812035863001GREAT CAVITENO TRADING                                   0501
A4101400390000000975191SANCHEZ, SENEN DE JESUS                                  0501
A4101400420000000710369SAULOG, ROLDAN NAVARETTE                                 0503
B4101400420814037048001RA JARO PAWNSHOP                                         1603
A4101400420814453380001TOLENTINO, JONETT MISA                                   0501
A4101400550815693992001AMONDINA, MARIAN ORPIA                                   0501
A0101412340000007404311LORIE LYN DIOLAZO DE LA CRUZ                             0501
A0101412340000007404373ENJELICA D. TAN                                          0501
A0101404840851478374086EDITHA ALOJADO                                           0501
B0101405070861008149004TABAQUERIA DE FILIPINAS INC.                             1606
A0101405070861027133001WORLDLINKS CABLE WORKS                                   0502
A0601400230891398766001..........                                               0503
