A0101406750000000480573ACOSTA, GRACE TAMAYO                                     0502
B0301400530193037468001KARPENTRADE, INC.                                        1601
A0101412210000005303199LAGURA, ROLAN GONZALES                                   0501
B2401400180411040788088KCC PROPERTY HOLDINGS, INC.                              1610
A0101400860011388186002TAN, MYRNA MENDOZA                                       0502
A0101400860011426836001*********                                                0502
A0101400860011533026001**********                                               0502
B0101411370022046185001PRIMORIS MANPOWER SERVICES COMPANY                       1602
A0101400150000011195349TEODORO ESTRADA III                                      0501
B0101400150061023257001ISLAND PHOTO CENTER, INC.                                1601
B0101400150061035943001DALLE AGRO SOLUTIONS CORPORATION                         1603
B0101400150061047577001A. CHAN RESORTS & ENTERTAINMENT COR                      1602
B0101400150000000633185SB RENTAL CORPORATION                                    1605
A0101400150061226461002SHEILA GOMEZ OR                                         10501
A0101400150061226461002BEDE LOVELL GOMEZ                                       20500
A0101400150061370228133ANA LIZA M. MARTIJA                                      0501
B0101405810072019239002ROYAL PINNACLE ESTATES CORP.                             1601
A0101405810072462871001LI, SHAO YA KE                                           0505
A0601400100081040294001MOIKAI INDUSTRIAL SUPPLIES AND                          10505
A0601400100081040294001AUTOMATION SERVI                                        20500
A0601400520000009516850LIMJOCO, MAYRA CAPITLI                                   0503
A0101410560000000590567SABAR, MARY GRACE BACONGAN                               0502
A0101410560000001290853CARRERAS, JOY STEPHANIE S. OR                           10501
A0101410560000001290853BORNILLA, LORELYN GRACE L                               20500
B0101400730111008426001COUNTRY BANKERS INSURANCE CORPORATION                    1604
B0101400730111037800001AMALGAMATED PUBLICATIONS, INC.                           1603
A0101406040112428212001MARVIN WILLIAM TRINIDAD OR                              10501
A0101406040112428212001MARIA CERRIZA TR                                        20500
A0101401960121239341001**********                                               0501
A0101401960121285558001**********                                               0501
B0101412630132058436001SPACE EDSA CORPORATION                                   1603
A5001400170000000213750RATUNIL, JULIETA OR RATUNIL,                            10502
A5001400170000000213750BYRON, OR RATUNIL, CARMEL                               20500
A0101412920000005915682CASTRO, STEPHEN JOSEPH ROMERO                            0501
A0101407270162420515001ELENA C. LU OR JEAN C. LU                                0501
A0101401090171196186001ROMULO &/OR ROSALIA BUZON                                0505
A0101401090000000993302FLORIAN R. NUEVO OR                                     10501
A0101401090000000993302MA. CRISELDA R. NUEVO                                   20500
A0301400530000001009943PANTUA, JERSON R.                                        0502
B0301400660194046395088DAVSAM LINK CORPORATION                                  1601
A0301400660000006862719**********                                               0502
A0101410720653342496001NATIVIDAD, ANITA DONNA  ROBLES                           0501
B3101400160221013980001VIC IMPERIAL APPLIANCE CORPORATION                       1605
B3101400740224068411001AMPLUS TECHNOLOGIES, INC.                                1601
B3001400130230043534001BERRY HAPPY MART INC.                                    1606
B1001400190000002170565CHABON, CLAI DBU SOUTHERNFIELDS                          1602
A1001400190231274559001SY, MAN CHAK                                             0501
A1001400350000000922014PEARSON, PILARCITA ROA                                   0502
A1301400470000000061390M.R. VARGAS CONSTRUCTION                                 0501
B1301400470000003270113OBRIGADO LENDING INVESTOR, INC.                          1601
A1301400470252556533001CESAR B. ESTACIO OR                                     10501
A1301400470252556533001EMELITA A. ESTACIO                                      20500
A1301400760000001294953AQUINO, RUDY PASCUAL                                     0501
A1901400290000008850591JUDYLYN CALDE AMBAL                                      0502
A1901400290261052327002SIASON, JEMALYN PARAY DBU                               10501
A1901400290261052327002VONHESSEN TRANSPORT                                     20500
A1901400290261244344001AVELINA B DE GUZMAN OR                                  10502
A1901400290261244344001BENJAMIN D DE GUZMAN                                    20500
A1901400290261298552105AIDA NABOS REYES                                         0501
A1901400290261691064001EVELYN BAUTISTA AQUINO                                   0501
B0101401670271017449001HK HARDWARE SUPPLIER CO., INC.                           1601
A0101401670271186300002MANUEL LUIS L. ZIALCITA                                  0501
A0101401670271283319001JEFFREY A. MAGSUMBOL OR ELLA                            10505
A0101401670271283319001CECILIA C. MAGSU                                        20500
A0101401670000009425509GARBIDA, GABRIEL GUEVARRA                                0505
B0101406460000000182370WEE COMMUNITY DEVELOPERS, INC.                           1605
B0101406460000000182483WEE COMMUNITY DEVELOPERS, INC.                           1605
A0101406620000003661501ILAO, MARK JASSON CUEVAS                                 0501
A0101406620000010591290ALLAN L. YUMUL                                           0501
B0101406620000000193920RCBC BANKARD SERVICES CORPORATION                        1601
B0101406620273216386001CITIMEX, INC.                                            1602
A0101410980000002987155SUA, ELAINE HAM                                          0502
A1101400120000000652351YAO, RONALD PHILIP GO                                    0502
A2001400290000010684336CHUA, JEOREX POBLACION OR CHUA,                         10501
A2001400290000010684336MELANIE ROSE GARCES                                     20500
B2001400290315081901001SILLIMAN UNIVERSITY                                      1650
A2001400290315688009001ALGOPERA, LLOYD GARCIA                                   0504
A0101402510341316353002DELLOSA, LENY REYES                                      0501
A0101402510341429634001TOMAS, MERCEDITA GLINOGA OR                             10501
A0101402510341429634001TOMAS, WENCHIE G                                        20500
A0101402060351495895002ARCEO, FLORDELIZA CHAVEZ                                 0501
A0101409050352645570003MYRNA P. CUASAY                                          0501
B0201400760374043348001EEIKAIWA INC.                                            1602
A0201400760374720031001******                                                   0505
A0201400890376724162003******************                                       0501
B0201401020000007458082DE ORO RESOURCES INCORPORATED                            1605
B0101402930381041771001AII SYSTEMS, INC.                                        1601
B0101402930000008462551BE A LIGHT CONST. INC                                    1603
A0101408370000009296626HENSON, KARL EVANS RIVERA                                0501
A0101408370382629554001JUMAWAN, JOHANNA BARGOLA                                 0501
A0101408370382629554001*******                                                  0501
B0101415350000007877614MAKING LIVES BETTER WITH ALORICA                        11601
B0101415350000007877614FOUNDATION INC.                                         21600
B0101415350000007877625MAKING LIVES BETTER WITH ALORICA FO                      1601
B0101415350000007877636MAKING LIVES BETTER WITH ALORICA                        11601
B0101415350000007877636FOUNDATION INC.                                         21600
B0101415350000007877749MAKING LIVES BETTER WITH ALORICA                        11601
B0101415350000007877749FOUNDATION INC.                                         21600
B0101415350000007877750MAKING LIVES BETTER WITH ALORICA                        11601
B0101415350000007877750FOUNDATION INC.                                         21600
B0101415350000007877761MAKING LIVES BETTER WITH ALORICA                        11601
B0101415350000007877761FOUNDATION INC.                                         21600
B0101415350000007877647MAKING LIVES BETTER WITH ALORICA                        11601
B0101415350000007877647FOUNDATION INC.                                         21600
B0101415350000007877658MAKING LIVES BETTER WITH ALORICA                        11601
B0101415350000007877658FOUNDATION INC.                                         21600
B0101415350000007877669MAKING LIVES BETTER WITH ALORICA                        11601
B0101415350000007877669FOUNDATION INC.                                         21600
B0101415350000007877670MAKING LIVES BETTER WITH ALORICA                        11601
B0101415350000007877670FOUNDATION INC.                                         21600
B0101415350000007877681MAKING LIVES BETTER WITH ALORICA                        11601
B0101415350000007877681FOUNDATION INC.                                         21600
B0101415350000007877692MAKING LIVES BETTER WITH ALORICA                        11601
B0101415350000007877692FOUNDATION INC.                                         21600
B0101415350000007877705MAKING LIVES BETTER WITH ALORICA                        11601
B0101415350000007877705FOUNDATION INC.                                         21600
B0101415350000007877716MAKING LIVES BETTER WITH ALORICA                        11601
B0101415350000007877716FOUNDATION INC.                                         21600
B0101415350000007877727MAKING LIVES BETTER WITH ALORICA                        11601
B0101415350000007877727FOUNDATION INC.                                         21600
A0101402770000003488033AMBROSE, EDWIN KARL ABAT                                 0502
A0101408400000009875030RICANA, I DBU IPR FASHION BOUTI                          0502
A0101408400394472125002MELOCOTON, MA. LORRAINE OR                              10503
A0101408400394472125002ALRAFAEI, EBRAHI                                        20500
B0101408400394542517001WLH & SONS PROPERTIES, INC.                              1602
B0101408400394670987001W REALTY, INC.                                           1602
B0101408400394679265001W RESIDENTIAL, INC                                       1602
B0101408400394718230001SEASHELL HOLDINGS, INC.                                  1602
A0101409180000003780250RELATADO, AILENE S.                                      0501
A0101409180000004796778COO, JANE V.                                             0501
B0101409180000000036644THE TABLE GROUP, INC.                                    1610
A5501400120000002949564CLAUDIO, JOSE DACAYANAN                                  0501
A2401400180000002146414ANIMAS, JULIUS PETER CABATO DBU                          0504
A2401400180411514423001DEALA, BERNARDITA GATCHALIAN                             0502
A0901400220432079352001ONG, LIONEL ROY ZAPANTA                                  0502
A0101403030441029489001**********                                               0506
A0101412890000007095750ANGELES, CRISTINA DBU INTERIOR                          10501
A0101412890000007095750PERSPECTIVE MARKETING                                   20500
A0101403320000001803010LORENZO, DANIEL JUN ABULENCIA                            0502
B0101403320471008854002JESUS LOVES YOU MINISTRIES, INC.                         1606
B0101403320471008857001A.M. PACLEB ENTERPRISES, INC.                            1602
A0101403320000001646766EROSA TRADING                                            0502
B0501400170481026607001MAGICLUB INCORPORATED                                    1603
A1901400160000008297792BAHALA, RONALINA RAMIREZ                                 0501
A1901400160491247764001MARITES E RAMIREZ                                        0501
A1901400160491422212001OLIVER B BORILLO OR                                     10503
A1901400160491422212001MARIBEL C BORILL                                        20500
B1401400110492365609001JEORGE S MALIGAT - PILIPINO HARDWARE AND                11601
B1401400110492365609001CONST. SUPPLY                                           21600
A1401400110000000132841*******                                                  0501
A0101405940000005067841ADRIAN S. ARCEO                                          0501
B0101405940512032494001ROTARY CLUB MAKATI POBLACION (RCMP)                      1601
A0101408530516494431001******************                                       0501
A0101408530000005493518EDMAR ERVENE PATENO                                      0501
A0101408530000006599844VINOD SINGH YADAV                                        0502
A0101403610000011344180MELLANO, MA EVANGELINE REY                               0501
A0101403610000011343701SAN PEDRO, LOUELY CANULLAS OR                           10501
A0101403610000011343701SAN PEDRO, LOREMAR A.                                   20500
A0101410690000005383393GESTOPA, ISMAEL TABLIGAN                                 0501
A0101410690000000001758IGNACIO, JONATHAN DBU JCJ                               10502
A0101410690000000001758MANAGEMENT SERVI                                        20500
A0101404130601506310001SALARIA, LILIBETH SANDAGON                               0501
A0101407720602397444002JOSE T. SANCHEZ OR                                      10507
A0101407720602397444002TERESITA R. SANCHEZ                                     20500
A0101407720602403958001GALANG, ROEL LEONARDO ROBLES                             0502
B0101404260611022505002SEAA CORPORATION                                         1603
A0101404260611684918001ERAMIS, DIONESIO OR                                     10502
A0101404260611684918001JOCELYN ERAMIS                                          20500
A0101409920650478374005CRISOSTOMO, MA. EMELIA GASPAN                           10501
A0101409920650478374005MEMBERS OF NATASHA                                      20500
A0101409920650478374009PABILONIA JR. SALVADOR B.                                0501
B0101411530000003238344BEYOND SCENTS ENTERPRISES                                1602
A0101413440000002846320DIVINAGRACIA, CARMELA OR                                10501
A0101413440000002846320DIVINAGRACIA, MA                                        20500
A0101413570000011338833ALLEN JR., CARL ALTAJEROS                                0501
A0101413990000006434922AGUSTIN, JANET J. DBU JAN &                             10502
A0101413990000006434922LEON GENERAL MER                                        20500
B0101414120000003584332GREAT SIERRA DEVELOPMENT CORP.                           1601
A0101414120000005252831GERALD GALVEZ                                            0501
A0101406590662541726001BUROG, MARITA DE GUZMAN                                  0501
A1301400210000000540969ROWENA C DE SILVA                                        0501
B0101408240000000832597RNUABLE ENERGY CORPORATION                               1602
A0101408240711681184001PAMISAL, TESSIE UNATING                                  0501
A2801400100000007896000BELGA, MARISOL FERNANDEZ                                 0501
B2801400230713045988001NGE TRADING                                              1602
A2801400230000001782094PARPAN, MARILOU DBU VISTA RENT                          10503
A2801400230000001782094A CAR OR PARPAN,                                        20500
B4101400260812043809001UPLIFT DASMARINAS                                        1610
B4101400260000006043909J.E.M. 88 CONSTRUCTION DEVELOPMENT CORP.                 1601
A4101400260812579894001DIOSDADO R. SALIBIO                                      0502
A4101400550815568762001RASAY, EDNA GOMEZ                                        0501
A0101412340000003564470MARIVIC A. NARRA                                         0501
A0101412340000007396958RALPH OLIVER E. GESMUNDO                                 0501
A0101404840851520766032MILA SALAZAR                                             0502
A0101404840851520766065TAYSON, FERNANDO                                         0501
A0101406750000010508868ALMANZOR, CLARIFA DE TORRES                              0501
A0101406750852182475001ANALIZA B. HIZOLE                                        0501
A0601400230891255354001JAMEL OR JEANETTE SAMONTE                                0502
A0601400230000001062504                                                         0501