B0101411400517821100608**********                                               2001
A3101400160000014696496CETRA, EVELYN MAGSINO                                    0501
A3101400740000016577130BAYER, ROSALIE ROMERO                                    0501
A3001400130000005446340BALANGA, MARIO FERNANDEZ                                 0501
A0101402930000003346683MA. PAZ FRANCISCA V. ARCELLANA                           0501
A3801400170000016590182MALIWANAG, KING M. DBU KEMM                             10501
A3801400170000016590182RESTAURANT AND CATERING                                 20500
A0101400860011516358001**********                                               0502
A0101400860011548430001**********                                               0502
A0101400860011663274001**********                                               0502
A0101400150000016117383ASTROLAVIO, RAMER PENAROYO                               0501
B0101400150061226857001ARL MARITIME SERVICES INC.                               1603
B0101400600000000007627**********                                               1601
A0101405810072361243002PONSARAN, MARY JANE RAMOS                                0505
A0101414090000012424952CAGUINGIN, ROBERTO TORCELINO                             0501
A0101410850000002356863PORILLO, DBU PORILLO'S SUGAR                            10501
A0101410850000002356863CANE FARM & TRUCKING SVCS                               20500
A0101410850000006559875MARASIGAN, R DBU FIVE RM                                10503
A0101410850000006559875TRUCKING SERVICES                                       20500
A0101400730111472699002LARGA, ANGELITA ZOLETA                                   0503
A0101413310000005433329RAMOS, CLAIRGEMINE BEBSIE B.                             0501
A0101401830000001139953ROSEMARIE S. NOJADERA OR                                10501
A0101401830000001139953ISAGANI M. NOJAD                                        20500
A7201400170000011454345CHIO, JESIEL LACIERDA OR                                10501
A7201400170000011454345CHIO, DAVID ABAO                                        20500
B5001400170000000169733DR. RUTH M. BRILLANTES                                   1605
A0101407270000007525375LIM, NELLIE CACHO                                        0501
A0101407270000014296901SEVILLA, JOSE MARI VALERA                                0504
A0101401090171389246001ANGELITA R. GUINTO                                       0501
A0101401090171640963001JOSEPH OR MARITES CRISTOBAL                              0501
A0301400530000013780742MANGAHAS, AL MUYCO OR LOW,                              10503
A0301400530000013780742JOSEPH B                                                20500
B0301400530193034066168TAGUM COMMERCIAL & REALTY                               11610
B0301400530193034066168CORPORATION                                             21600
A0301400530193683920002CREAYLA, THELMA G. OR                                   10501
A0301400530193683920002CREAYLA, ALBERTO R.                                     20500
A0301400660000000194552LU, MICHAEL YAP                                          0503
A0301400790000009412493DALUPAN, JUVY ACCION                                     0502
B0301400790000013577990DALUPAN, JUVY ACCION DBU JADA TROPI                      1601
A0301400950000002115593FERNANDEZ, NESTY VON CHI JT                              0501
A0101413020000003055405AVO-AIR ENGINEERING SERVICES                             0501
A0101410720653528817001VINCENT GONZALO SY OR TIMOTHY                           10508
A0101410720653528817001JON SY OR JULIE                                         20500
A3101400160000011243780AMADURE, JONES VARGAS CELEBRE                            0502
A3101400160000016596040VALDEZ, MARY ANN CANTA                                   0502
A3101400160221478374027ERNESTINA S. VILLANUEVA                                  0502
A3101400160221519790002MALAYA JR, ELI RODRIGUEZ                                 0501
A3101400740000014426401CACALDA, MA. CRISTINA JAYLO DBU                         10501
A3101400740000014426401CJW ENTERPRISES                                         20500
A3101400870000016607773BERNAL, SANDRA PATRICIA MINA                             0501
B1001400190231010692001PHILIPPINE IRON CONSTRUCTION & MARINE                   11605
B1001400190231010692001WORKS INC.                                              21600
A1301400470000004626886LOIDA FUNERAL HOME                                       0501
A1301400760000012981034PAOLO CARMELO DIZON LIWAG                                0502
A1301400760000016080589RODRIGO CONSTANTINO PABLO JR.                            0502
B0101406620000000962501SEENERGY MULTI-PURPOSE COOPERATIVE                       1601
B0101411110276046529088BOOK MEDIA PRESS INC.                                    1612
A0101411820000008442871LICUANAN, JESUS RAMOS DBU                               10502
A0101411820000008442871LEPARADIS FOOD EXPRESS                                  20500
A0101400570000016610018CHIOK, CHERRY MANADLANG                                  0501
B0101400570281011155001SOUND BUSINESS HOLDINGS, INC.                            1601
A0101400570281359687003CERVANTES, JULIETA GOPEZ                                 0501
A0101400570000013360253Fernando V. Trinidad                                     0501
A0101411240000013000483ALMADIN, RONALD ANTONIO                                  0502
A0501400200000009556705SANIDAD, MICHAEL NARRY MAGPANTA                          0501
A2601400270000006014853HECTOR A. MARCELO JR. OR                                10506
A2601400270000006014853MARGARITA A. MARCELO                                    20500
A2601400270000014231282CANCILLER, MIA LIM                                       0502
A2601400270000011826976ALIVIA, ARVIN MANERA                                     0501
B6601400120314041984001SAMNEST FOOD CORPORATION                                 1605
A0101402350000003880513ENCINA, MANUEL OCOP                                      0502
B0101402350321037880001UNITRADERS ALUMINUM & GLASS CORP.                        1602
A0101402350321427762001CHOY, ENG FAN OR                                        10501
A0101402350321427762001MILA B. AQUINO                                          20500
A0101402350321427762001CHOY, ENG FAN OR                                        10501
A0101402350321427762001MILA B. AQUINO                                          20500
A0201400760000009996167ALESNA JR., DIOSCORO TORREFRANC                          0502
B0201400760374042294001MANDAUE CEBU MARINE PRODUCTS                            11605
B0201400760374042294001CORPORATION                                             21600
B0201400920375035473001UNI KEANNE TRANSPORT SERVICES                            1605
A0201400890000000973462***************                                          0502
B0101402930381008829002AXEIA DEVELOPMENT CORP.                                  1615
A0101408370382327238001DR. MA. CORAZON A. CASTILLO                              0502
A0101408370382592860001ANGELINE S. TINGA                                        0502
A0101415350000015170744LAZARTE, EMILY VINOYA                                    0501
A0101402770000005324458MINOZA, JEROME PAUL P. OR                               10502
A0101402770000005324458SOTTO, LORDANA C                                        20500
A0101402770000009247150ESTANOL, ANGIE MALATE                                   10502
A0101402770000009247150DBU ALLIANCE CRA                                        20500
A0101402770000002267121RIVERA, JOHNNY CONTRERAS                                 0502
A0101405490000006300152OGOT, PABLITO BINUNGCAL                                  0502
B0101405490000005196556CORNERSTONECONSTRUCTION CORPORATION                      1603
A0101405490392613731001CORAZON OR RICARDO OR MICHAEL                           10501
A0101405490392613731001CHRISTIAN PICHEL                                        20500
A0101408400000008744743DUCUT JR., RUBEN LAXINA DBU RLD                          0502
A0101408400000008744787BOLISAY, BEULAN ANN D DBU FIRMI                          0502
A0101408400394421193001ROMERO, RODELA INOCENCIO                                 0501
A0101408400000005286331SALINIO, NARCISO MANTIQUILLA                             0504
A0101408950000015585990BINARAO, LACILDA CERINA                                  0501
A0101409180000004796654NIEVES, ARTHUR                                           0501
A0101409210000005251792BONDOC, KRISTINE PINEDA                                  0501
A5501400120000005492202TIU, CARMEN MALABUYOC                                    0503
A5501400120000014312293GA-AN, ANNIE DIAMANTE                                    0502
A5501400120000014838681FLORIDA, MA. CRISANTA CABLITAS                           0503
A2401400180411034282001N. CONGSON CONSTRUCTION SUPPLY                           0510
A2401400180411442136088***************                                          0501
A0101403030441337771001**********                                               0501
B0101410140000000038895NANOZ, DE LA CRUZ AND ASSOCIATES, C                      1601
A1901400160000015840896AMPARO, REY NELSON BUENVIAJE                             0502
A1901400160491448897001DELIA P PORTUGAL                                         0501
A1401400110492061588001VELASCO, M DBU VELFLO TRADING                            0501
B0101403580000000214702MEC - CAMBRIDGE                                          1603
A0101408530516508072001TOMACRUZ, ANTHONY R. OR                                 10501
A0101408530516508072001TOMACRUZ, MA. GE                                        20500
B0101411400000012210192AVIATION COOPERATIVE FOR ENHANCED                       11601
B0101411400000012210192SERVICES (ACES)                                         21600
A0101403450521357926001**********                                               0501
B2201400250000009913215J.M.C.T.O. REALTY SERVICES & CONSULTANCY                11601
B2201400250000009913215FIRM                                                    21600
A2201400250561258530025CATHERINA T. DOMINGO                                    10501
A2201400250561258530025EMPLOYEES OF IEW                                        20500
B0101404260611500347001RITEAIRE CORPORATION                                     1602
A0101413570000012289282KUPSCH, TANIA CAMILLA GALANG                             0501
A0101413570000005867430*******************                                      0502
A0101413570000015976940TAGAL, IVY CECILIO                                       0501
A0101413570000016323692PARRENO, RAMIL ENOJAS                                    0501
A0101413990000009469470BERNABE, JOHN ALI NAVARRO                                0502
A0101413990000016083733CAYANAN, ANGELYN MORA                                    0501
A0101414120000006005425BRIONES, MARIA LUZ GENIZA                                0501
A0101414120000009850780R. ACOSTA ENTERPRISES                                    0502
A1301400210000011696510DAVID, BARBARRA KEYT DE GUZMAN                           0501
A1301400340000015886825LUCENIADA, CRISPIN MENDOZA                               0501
A1301400340000015886825LUCENIADA, CRISPIN MENDOZA                               0501
A1301400340000000100330LAPENA, RAYMOND RANDALL CERTEZA                          0501
A1301400340683664578001HERMOSO, MARCOS STA. CRUZ                                0501
A1301400500684635536001JOSELYN D SANTOS OR                                     10501
A1301400500684635536001EDGAR D VILLAR JR                                       20500
B0101408240000000832644COLLYER SHIPPING PHILIPPINES, INC.                       1610
A0101408240711418819006RICA S. BAGATSING                                        0503
A0101408240711606837001MAYS, CHERYL ANN                                         0501
A2801400230000000937617GARCIA, JENNEN JULAO                                     0501
A2801400230000001734761FERMIDA CONSTRUCTION SERVICES                           10502
A2801400230000001734761AND SUPPLIES                                            20500
A4101400260812027359001MA. MAGDALENA IRABAGON                                   0505
A4101400260000015401839DAGANTA, LELLANIE ENRIQUEZ                               0501
A4101400390000012157481GILBERT B. BARRERA                                       0502
A4101400420000012882867NELLIE B. CARAIG                                         0502
A4101400550000002091009PANGAN, SONIA DINGLASAN                                  0502
A4101400550000011973290CABRAL, ZENAIDA RAZON                                    0502
A0101412340000003349762AIREEN F. YAZON                                          0501
A0101404840000000122658MARIFE DE CASTRO                                         0502
A0101404840851298552056ROSARIO GABAYERON                                        0501
A0101404840851478374193JONALYN BACALANGCO                                       0501
A0101404840851520766163JOCELYN ANONUEVO                                         0501
A0101406750000015859235MASIP, KRISTAMINE REI PELEJO                             0501
A0601400230000002650160DEL ROSARIO, JHOENEL MONTANO                            10501
A0601400230000002650160OR ELSA OR NUCUP LUIGINEL                               20500
B0601400230000013259246VALERIO, RAOUL PEREZ DBU R. VALERIO                     11602
B0601400230000013259246TRADING                                                 21600
A0601400230891035178001LEORLYN IRON WORKS                                       0502
A0601400230891077308001NUCUP, ELSA GUTIERREZ OR                                10501
A0601400230891077308001NOEL OR RICO                                            20500
A0601400230000003015772VICENCIO, CRISTINA DELA CRUZ                             0502
