B0101405070861821100608**********                                               2002
A0301400530000001009932TAUTHO, SHIRLEY E.                                       0502
B0101402060351543344001J ANGELES PROPERTIES AND MANAGEMENT                      1603
B0101412210000005051336GEOGEN CORPORATION                                       1602
A0101403320000010292930ROSENA S. TAN                                            0501
A0101400150061055752087PATRICIA ANN V. CELIS                                    0501
A0101405810072234900005***************                                          0503
A0101405810072663520003***************                                          0505
B0601400100000000786790ANGELES FORTUNE HONGKONG SEAFOOD REST                    1605
A0101414090000000399231REYES, JEREMIAS GUTIERREZ                                0501
A0101414090000006211472ADANG-AS, FELICLAIRE MANGIBAT                            0502
B0101410560000000757240BALTAZAR, BEATRIZ POLO AND GARBILES,                    11601
B0101410560000000757240LETICIA MORILLA                                         21600
A0101410560000005836291PAULO G. QUIZA                                           0503
A0101406040000002272420********                                                 0501
A0101401960000004419830**********                                               0501
A0101401830141205881003IREEN R. BANGUG JT                                       0505
A0101400440000004901451*****                                                    0501
A0101400440000000821538MARITES T. JIMENEZ                                       0501
A0101400440000000821301TOPCOM CONVENIECE STORE                                  0505
B0101400440000000337780KNIGHT COMMANDER ARMORED & SECURITY                     11605
B0101400440000000337780SERVICES INC                                            21600
B0101400440000000337773VIENNA PORCELANA PHILS. INC.                             1610
A0101400440161520766031EDITHA FELARCA                                           0501
A0101400440161525001179EDNA S. VILLENA                                          0502
A0101401090000000993422SIA, DEXTER JOHN CAMACHO                                 0502
B0101401090171029283001S.P. RABANO BUILDERS INC.                                1602
B0101401090171035575001MOSS MANILA EVENTS HOUSE INC.                            1605
B0101401090000000210482BLUMEX PLUS CREDIT INVESTOR INC.                         1610
A0101401090171202961001TERESITA N. SANTOS                                       0502
B0301400530193038166088FUTURE OPTIONS DISTRIBUTION SYSTEM, INC.                 1603
A0301400660000001020102RODRIGUEZ, DARREN ALAMPAYAN                              0506
A0301400660000002348472NANIE DORADO OR RICHARD DORADO                           0502
A0301400660000003406191*****                                                    0501
A0301400660000005691767VILLALBA, ERIKA MAITA VILLAGRAC                          0501
B0301400660000003368450EARTHPHIL CONST. CORP.                                   1604
A0301400660194731082088PEJI, JUNE ANN SOLER OR PEJI,                           10505
A0301400660194731082088JONATHAN CORTES                                         20500
A0101401380201502664001LEY, RICHARD NOEL CO                                     0501
B0101413600000000206904GHAWAR CONSTRUCTION & TRADING                           11601
B0101413600000000206904CORPORATION                                             21600
B3101400160221010057002C AND H ENTERPRISES                                      1602
A3101400160221386295002ROBERT J. BANATIN                                        0501
A3001400130230094974001BRAVO, ROSEPT EBARLE                                     0503
A3001400130000008915971JUBAC, CHARLES TATAD                                     0501
A1001400350000003867272BERNALES, CHRISTOPHER ERA OR                            10503
A1001400350000003867272BERNALES, JESSIC                                        20500
A1901400290000001926303PAULER PANGANIBAN ANI                                    0504
A1901400290261040973001ICT-ED INSTITUTE OF SCIENCE AND                         10503
A1901400290261040973001TECHNOLOGY, INC.                                        20500
B1901400290261048088001B & V FEEDMILL                                           1605
A1901400290000006560090VIRGINIA S MACASAET OR                                  10501
A1901400290000006560090RICKY C MACASAET                                        20500
A1901400290261244447002LETICIA BAYLON HIPOLITO OR                              10510
A1901400290261244447002ERNESTO B HIPOLITO JR                                   20500
A1901400290261298552013LEONILA QUESADA GUEVARRA                                 0501
B0101401670271027397001KELEYNA ENTERPRISES                                      1601
B0101401670271028082002DDT KONSTRACT, INC.                                      1630
A0101401670271188489001CARMEN C. LIM                                            0501
A0101401670271189252002LOURDES LIM LEE OR CARMEN C.                            10501
A0101401670271189252002LIM OR ROSARIO C. LIM                                   20500
A0101406460272548275001SUNGA, PETER EDWIN JAO OR                               10502
A0101406460272548275001SY JR., MARCIANO                                        20500
A0101406460000001285558TAN, KEK HUI TEE                                         0501
B0101406620273026285001DBQUEST, INC.                                            1602
B0101406620273401681001NEW YORK BAY PHILS., INC.                                1602
A0101400570000003891509GUARINA, RONALDO JARLEGO                                 0501
A1101400120000001920634GUIRON, TERESA GALLARON                                  0501
A1101400120000006186332MAGLASANG, LAARNIE VALES                                 0502
A6601400120000005710338CUAYZON, KRISTOFFER KINNO NUEVO                          0502
A6601400120000008490444OLATIC, ANALIZA DBU ANALIZA                             10502
A6601400120000008490444PRESTO-OLATIC GEN. MDSE.                                20500
A2001400290000000046477YUAG, LYHLE SANCHEZ                                      0501
B0101402350321012513001CONNER HARDWARE CORP                                     1601
A0101405650000006893709DACANAY, DELIA VILLANUEVA                                0503
B0101402510341020561001PHILIPPINE PHARMACISTS ASSOCIATION                       1602
A0101402510341415764001EMILY I. BAGARES                                         0501
A0101409050352734290001CELERINO S CUERPO                                        0505
A0201400760000004467341SALIMBANGON, KEN ALFONSO                                 0501
B0101402930000003269312MORALES RISOS-VIDAL & DAROY-MORALES                      1602
A0101408370382205236001DR. CYNTHIA A. AGUIRRE                                   0502
A0101408790000008864600CLAIRE MARIE S. MEDRANO                                  0501
A0101408790000006026051SIMON, ARLENE DEL ROSARIO                                0502
A0101415350000005085041MARCELO, JOSEPH ESGUERRA                                 0501
A0101415350000005085109FABRO, GENEVA NIMO                                       0501
A0101402770000006642793SUESS, FLORENCIA GERODIAS DBU                           10502
A0101402770000006642793FGS ENTERPRISES                                         20500
A0101402770391401379001DELOS REYES, MARINA MARCELO                              0501
B0101409180397042109001AICI PHILIPPINE CHAPTER                                  1602
A0101412210000003448680********                                                 0505
A0101412210000008654393CAYETANO, RENE CARL SCHRAMM                             10501
A0101412210000008654393OR CALALANG, MARY BIANCA                                20500
A0301400820000000132527DAGADAS, CONCORDIA A.                                    0501
B0301400820000001554792VIC IMPERIAL APPLIANCE CORP.                             1601
B2401400180411033733088ECA RESOURCES, INC.                                      1610
A0901400220000006214386D' RANGER SECURITY AGENCY, INC.                          0502
B0101403030441037132001MASTER BRAKE AUTO SUPPLY                                 1601
A0101403030441368293001**********                                               0503
A0101410140000000254431OBENITA, GENIELYN NAVARRO                                0501
A0501400170481454752001GAGARIN, MELCHOR FRANCISCO                               0501
A3801400170000010312760HAZEL RAMIREZ REYES                                      0501
A3801400170490757939001RENEL GARCIA MEDINA                                      0503
A1901400160491034372001FIESTA HOME CENTER (FHC) CORP                            0505
A1601400170000001360634ALDON, CONSUELO DAYTO                                    0501
A1601400170000000497423MENCHU R. BUADO                                          0501
B0101407430000001213056AERO EQUIPT AVIATION INC.                                1601
A0101407430000004687425NIAH D. NERY                                             0501
A0101403580511151398002ARIZA TERESA MANGALILE OR                               10501
A0101403580511151398002REYNALDO JOSE MANGALILE                                 20500
A0101403580511767569001EVA FEHDA Y. BORNILLA                                    0501
B0101408530516026922001STAR HOUSE INCORPORATED                                  1601
A0101408530000001268491GLEN HOWARD P. SALAMAT                                   0501
B0101403450521011626001**********                                               1603
B0101403450521011954001*********                                                1603
B0101403450521029025001**********                                               1602
A0101403450521238152002**********                                               0506
A0101403450521241204001**********                                               0501
A2201400250561256285001JESUS C. CHUA                                           10501
A2201400250561256285001OR JOSEFINA G. CHUA                                     20500
B0101404130601010620001AMERICAN WIRE & CABLE CO., INC.                          1601
A0101404130601450158001JIMENEZ, JACINTO D.                                      0501
A0101407720000003886911TAMAYO, MA BELEN EVANGELISTA                             0501
B0101407720602428613001DERMA 360 CORP.                                          1602
A0101407720602496503007CYNTHIA RAMILO                                           0501
A0101404260000003498373MA. DESIRIE J PATOC                                      0501
B0101409920000005460602TOP-MAR METAL VENTURES CORP.                             1602
A0101409920650478374028RENDON, RENELYN GABATAN                                  0501
A0101407690000000154750BARANGAN, ROMEO DBU                                     10505
A0101407690000000154750BARANGAN TRADING                                        20500
A0101407690000000587800*****                                                    0501
A0101407690652478374027MARILOU S. BAGON - DEALERS OF                           10502
A0101407690652478374027SHOECAT INC.                                            20500
A0101407690652478374128LOIDA M. MAYOLA - DEALERS OF                            10501
A0101407690652478374128SHOECAT INC.                                            20500
A0101407690652609264002DE JESUS, AUGUSTO OR MILA                                0505
A0101413440000000570303GUARINA, R. DBU GEOMATICA                               10502
A0101413440000000570303ENGINEERING                                             20500
A0101413990000006278124ENCINARES, ROVILYN RODRIGUEZ                             0501
B0101406590662038794001PRISMODIAL CONSTRUCTION CORPORATION                      1610
A1301400210682246147001MA. ANGELA O. CELERIDAD                                  0502
A0101408240711226436001GUTIERREZ, NATIVIDAD                                     0502
A0101408240711402864001GUERRERO, EDITHA OR                                     10501
A0101408240711402864001NARCISO, LEONARDO                                       20500
B2801400100712026672001HAGBARDS CORP.                                           1605
A2801400100712387797001ROCHELLE C. PEREZ                                        0503
A2801400100712478374001BERNARD R. CORPUS                                        0503
A4101400390000006302483BAGUINDA, FARIDAH MUSTAPHA DBU                          10502
A4101400390000006302483FARD'S FASHION S                                        20500
B4101400390000006103560LEAD WITH INTEGRITY AND GOOD GOVERN                      1605
A4101400550000007583813ARCARDO, M DBU DRJ HAULING                              10502
A4101400550000007583813SERVICES                                                20500
A0101404840851542980001MASANGCAY, NORA VERCELES                                 0501
A0101406750000007879592MAGAT, JOHN JOSEPH CAPALIHAN                             0501
A0101406750000007879610BONA, MECHIE ROMAN                                       0501
A0101405070861449261002RONCO, LEABETH LOPEZ                                     0501
A0101405070000005619252ARRE III, JOHN IRENEO GONZALES                           0502
