B2401400180411821100608**********                                               2010
A0101400150061087284001RODA, JULIUS R. DBU SJA TRADING                          0501
A0101400150061709306001BACANI, ALFIE JOY LUMAYAM                                0501
B3101400160221224862001JOYME ROCKSCAPES CORPORATION                             1602
A3101400160221478374031ROMEO C. OLIVEROS                                        0501
A0101405650000000348903ESPERANZA F. BAYLON                                      0502
A0101405940000001047307PRIMA, MARIA PRESCILLA P.                                0501
A0101408530000000035925CASTRILLO, MILISA CAOIBES                                0501
A0101400860000002262539PAYABYAB, ROGER SALVADOR                                 0503
A0101400860011402005002**********                                               0502
A0101400860011425868001**********                                               0502
A0101400860011539810001**********                                               0505
B0101401250021005516001THE PROVINCIAL SUPERIOR OF THE PIOUS                    11603
B0101401250021005516001SOCIETY OF THE                                          21600
A0101401250021368766001ZAGUIRRE, ELIZA R. OR                                   10501
A0101401250021368766001ZAGUIRRE, RENATO B.                                     20500
B0101411370000000018124AIO FINANCE GROUP INC.                                   1601
A0101400150000002902638DIAMANTE, ANNALIZA HUGO                                  0501
A0101400600071496801002******                                                   0501
A0101400600071720668001*******                                                  0501
A0101410560000000590556GUTIERREZ, DOMINICA DALISAY                              0501
B0101400730111015420002FELANER REALTY DEVELOPMENT CORPORATION                   1606
B0101400730111037800001AMALGAMATED PUBLICATIONS, INC.                           1602
A0101400730111203514058MARY ANNE CUARTERO                                       0501
A0101400730111432322013CARLOS S. MORALES JR                                     0502
A0101400730111574027001BERNARDO, FRANCIS ROBERT SANTOS                          0505
A0101401960121238701001**********                                               0501
A0101401960121311258001**********                                               0501
A0101401960121362714002VILMA GUANLAO OR                                        10510
A0101401960121362714002VIENNA MARIE GUA                                        20500
A0101413150000003208335******                                                   0502
A0101400440000000596630MARY ANN A. OYARDO                                       0501
A0101400440161478374198EUFRONIA I. BERGONIA                                     0501
A0101407270162331908120CHERRY T. PENA                                           0501
A0101407270000000511566ABIGAIL S. BAYAM                                         0501
A0101401090171061136001GR MANLANGIT CONSTRUCTION                                0501
A0101401380201179958001JULIUS G. ANDRADA                                        0505
B0101410720653042569001TUGSON CONSTRUCTION & DEV. CORP.                         1605
B0101410720000000968152MAXIPRO TRADING COMPANY                                  1605
A0101410720210092714001BRINGERA, GINA ROSARIO                                  10502
A0101410720210092714001DELA CRUZ                                               20500
A0101410720653377024001AQUINO, RONALD QUINSAY                                   0501
B0101412500000000041749UNITED DOCTORS MEDICAL CENTER, INC.                      1620
A3101400160000004362765MA TERESA L RODRIGUEZ                                    0501
A3101400450000000013970YAMADA, LEONIDA PAMFILO                                  0502
A1001400190231295205002ANG, SIOK BIN                                            0502
A1001400190231477800001TAN, KENNETH SZE                                         0501
A1001400190000002170758JUGAN, JUDITH MALOLOT                                    0502
A1301400470252442532001DRA. MELISSA C. DE GUZMAN                                0502
A1901400290000000135220MARGGIE LUMBERA SALES                                    0501
A1901400290000003252913JOHN FRANK TINGABNGAB BELMONTE                           0502
B1901400290261027293001LIPA MEDICS INC.                                         1610
A1901400290261040973001ICT-ED INSTITUTE OF SCIENCE AND                         10503
A1901400290261040973001TECHNOLOGY, INC.                                        20500
A1901400290000006560090VIRGINIA S MACASAET OR                                  10501
A1901400290000006560090RICKY C MACASAET                                        20500
A1901400290261244419001NICASIO V HERNANDEZ                                      0503
A1901400290261478374240LIZA CUADRA REANO                                        0502
A0101406460000000182596**************                                           0503
A0101406460000000182676PUNZALAN, RAMON TIANGCO                                  0501
B0101406620273033986001F. YAP SECURITIES, INC.                                  1602
B0101411820277048022001FORGEMS MARKETING COMPANY, INC.                          1606
A0101400570281047282001WORLDTECH ENGINEERING &                                 10503
A0101400570281047282001INDUSTRIAL SALES                                        20500
A0501400200000000473836******                                                   0501
B1101400120000000652868TACLOBAN ACME HARDWARE CO., INC.                         1605
A1101400120313691192001CRUZ, JANIS CERENA                                       0501
A2001400290000000724878QUIAMCO, RHEA VILLANUEVA                                 0501
A0101402350321708802001ALMAROSE C. VILLAPANDO                                   0501
A0101402510000001292262SANTOS, LUZVIMINDA ESTEPAR                               0501
A0101402510000000049329UNICARE DENTAL, MEDICAL TRADING                         10502
A0101402510000000049329CORPORATION                                             20500
A0101402510341331222002ERLINDA C. RECOCO                                        0502
A0101402060351349405002YAP, JAMES YU                                            0502
A0101409050000002971384RESULLAR, ALLEN CURAY                                    0501
A0101409050000003535044BERNADETE P. MATEO                                       0501
A0201401020000000056415SORELA, DBU M.P. SORELA CONSTRU                          0501
B0101402930381009079001THE AMERICAN EYE CORRECTION                             11620
B0101402930381009079001CENTER INC.                                             21600
B0101402930381041450001FOURTH WAVE GLOBAL CONSTRUCTION INC.                     1602
A0101408790000006623098AILEEN T. MATIC                                          0501
B0101402770391009317001FIBERTEX CORPORATION                                     1605
A0101408950000004512105LUIS JR., LOLITO RODRIGUEZ                               0501
A0101408950396431312001TANSENGCO, MARIA LORA GARCIA                             0501
A0101408950396563004001ERIC VIDAD NAGTALON                                      0505
B2401400180411014383001RD EMPLOYEES CREDIT COOPERATIVE                          1610
B2401400180411325173001ERICO T. UY  AND ERICA B.UY                              1605
A2401400180411478374027ELLEN PANTUJAN OR                                       10501
A2401400180411478374027ELMER PANTUJAN                                          20500
A2401400180411478374035MERLINDA D. TAMUDTAMUD                                   0502
A0901400220432718927001**********                                               0502
A0101403030441299321002**********                                               0501
A0101403320000006026984CUNTAPAY, MA. VICTORIA SAN                              10501
A0101403320000006026984ANTONIO                                                 20500
A0101410140000001939933FERRER, J DBU AJ1201 TREAD                              10502
A0101410140000001939933ENTERPRISES                                             20500
A0501400170000000494611ROQUE, MARK JOHN PEREZ                                   0501
B3801400170490058867001KATIPUNAN FOODS SERVICES, INC.                           1610
A1901400160491244484001IRENE H BERBA OR                                        10505
A1901400160491244484001CARLOS R BERBA                                          20500
A1401400110492391345002R'S WINE CENTER                                          0503
A1401400110492649286001IBARROLA, GIL MANCENIDO                                  0501
B0101407430503024218001T.O.L. REALTY & DEVELOPMENT CORPORATION                  1603
B0101403580511005143001INTERPACIFIC TRANSIT, INC.                               1610
B0101403580511043261001FILIPINAS BENSON INDUSTRIAL &                           11603
B0101403580511043261001DEVELOPMENT CORP                                        21600
B0101403580000004558710CALABUENA RESORT CORPORATION                             1602
A0101403580511150629008MIRIAM HIPOLITO OR RAMONA PENA                          10501
A0101403580511150629008OR GERALDINE LIMOSNERO                                  20500
A0101403580511323054001FEDERICO C. LAFUENTE JR.                                 0501
A0101405940000005718101DEOCAMPO, MA. ZOILA CHRISTINA D                          0504
A0101405940000003121780BETITA, ANA FRANCESCA A DBU                             10502
A0101405940000003121780CHALKMARK MULTIMEDIA SVCS                               20500
A0101405940512152920001**********                                               0501
A0101405940512152920001***********                                              0501
A0101408530000002980556SALAZAR, CHRISTOPHER REYNO                               0503
B0101408530000003866068AVANT TENT CITY MALL INC.                                1602
A0101408530000001268617YU, YUN-TING                                             0501
B0101411790000004808117BROADMEDIC INC.                                          1603
B0101403450521036992001********                                                 1601
A0101403450000000889483*********                                                0504
A0101403450521241204001**********                                               0502
A0101403450000006055665***********                                              0501
B0101403610531035657001A1 STEELFORMER CORP.                                     1602
A0101403610531400970001BRILLANTE, ROSARIO AMIL                                  0501
A2201400250000001932270DIZON, DANILO GAMBOA DBU NEW                            10503
A2201400250000001932270DAN'S ELECTRONIC                                        20500
A0101404130000000043934DELA CRUZ, MA. ELINORE                                  10501
A0101404130000000043934DE CASTRO                                               20500
B0101404130601045788001BIOMEDICA HEALTH CARE INC                                1603
B0101404130000002121584INCUBIX TECHNOLOGIES INC.                                1602
A0101404130000002329108PAGUIO, EDWIN PAJATE                                     0502
A0101404130601708628001PABALATE, PACITA BATAC OR                               10501
A0101404130601708628001PABALATE, HELEN                                         20500
A0101407720602161854002**********                                               0501
A0101407720602382023001VICENTE FRANCISCO R. HIZON OR                           10501
A0101407720602382023001MARIETTA CRISTINA HIZON                                 20500
A0101407720602399405002CLAVER P. RAMOS, M.D. OR                                10503
A0101407720602399405002THELMA E. RAMOS                                         20500
B0101407690652041404001AUBURN POWER TECHNOLOGIES INC.                           1601
A0101407690000000154750BARANGAN, ROMEO DBU                                     10505
A0101407690000000154750BARANGAN TRADING                                        20500
A0101407690652371018001**********                                               0501
A0101407690652520766012CLARITA BUENAVENTE - DEALERS OF                         10502
A0101407690652520766012SHOECAT INC.                                            20500
A0101407690652525001067MAILA M. NACIN - DEALERS OF                             10501
A0101407690652525001067SHOECAT INC.                                            20500
B0101413440000001085610SEASTEMAS INTERNATIONAL, INC.                            1605
A1301400210000002909328MARIA SALOME C. SANTOS                                   0502
B1301400210682040563001ACTISERVE CORP.                                          1605
A1701400230000004469643SALAZAR, MARIBETH DBU  NORTH                            10504
A1701400230000004469643TECH BUILDERS                                           20500
A0101408240000000521942PULIDO, REGINA SALVE LUZURIAGA                          10501
A0101408240000000521942OR PULIDO, EBNARD                                       20500
A0101408240000006600084PENILLA, SUNSHINE DE LOS REYES                          10502
A0101408240000006600084OR PENILLA, CHRISTOPHER                                 20500
A0101408240711219571001MERCEDES M. OLIVER                                       0502
A0101408240711359216001HONTIVEROS, ASUNCION PAPRUZ                              0502
B0101408240711637150001*****************                                        1601
A2801400100712701754001DALIT, MADONNA VERSOZA                                   0501
A4101400260000005333299TORRES, JEFFREY PADRO                                    0503
A4101400260000005333591TIU, VILMA SUICO                                         0502
A4101400260812041334001M.B. JIMENEZ RICE DEALER T                               0502
A0101404840851478374094LETICIA FULLO                                            0501
A0101406750000000172843GABAYNO, DELIA CHAN                                      0502
B0101406750000000091023PLUS CONSTRUCTION INDUSTRIES                            11601
B0101406750000000091023CORP.                                                   21600
A0101405070000003439683PANINGBATAN, MARIA APRIL L DBU                          10501
A0101405070000003439683MAKI BELA TRUCKING SVCS                                 20500
A0101405070861338912002GIM, LOIDA CONALES                                       0501
B0101413860000001768090FIRST DIGITAL FINANCE CORPORATION                        1603
