A2801400100000000004753GRIVA, KRISTINE PULIDO                                   0501
A0101411790000000005381********                                                 0503
A0301400820000000024871JAO, EDMUNDO C.                                          0502
A1301400470000000061509PRICILLA GALMAN CALARA                                   0502
A0301400530000001009961IBOT, LETHLE P.                                          0501
A0501400170000001032113DAVID, ERMO ABULENCIA                                    0501
A0101413310000001073701PENAFLORIDA, ALEX TASIN                                  0501
A0101400600000001335579********                                                 0501
A0101406040000001392030**********                                               0501
A0101406620000001686495CO CHIEN JR., VICENTE TAN DBU                            0502
A0901400220000001805027BLACK ARROW SECURITY AGENCY INC                          0501
A0901400220000001805107**********                                               0504
A0101406750000002040260TOLENTINO, ROSALINA SABATER                              0502
A4101400420000002084631MANICIO, MARIA ARMI ORTEGA                               0501
A0101400440000002249630RELLAMA, MARIA ROSARIO KING                              0501
A0101408820000002280166**********                                               0501
A0101414090000002282657KIM, JONG HO                                             0501
A0101411240000002332503*****                                                    0503
A3101400160000002355860WAGAN, ROEL RANOLA                                       0502
A0101402480000003031534***********                                              0501
A0101412340000003342112JAYCEE ANNE G. CRUZ                                      0501
A0101413570000003379908CABANIG, MYRA MELAYA                                     0502
A0101408400000003515062LEVY, ALBERT AASEKJAER                                   0501
A0101400860011495810002**********                                               0501
A0101400860011498803002**********                                               0503
A0101400860011534620001**********                                               0501
A0101400860011643795001**********                                               0501
A0101401250021583769001HERNANDEZ, CELIA OR SY, ABIGAIL                          0501
A0101401700041188766001ALFONSO A. PO                                            0503
A0101400150061226360001JEANETT L. EVANGELISTA                                   0501
A0101400150061430140001**********                                               0501
A0101400730111198377001STARADUB, ROBERT PATRICK                                 0501
A0101400730111520766057PROCLEY C. CRISTOBAL                                     0503
A0101400440161029925001VESPER INSURANCE ADJUSTERS                               0503
A0101400440161525001070MARIBEL S. SOLEDAD                                       0501
A0101400440161760132001LANDIG, MA. GUIA GONZALES                                0502
A0101407270162331908011EDGARDO F. BAUTISTA                                      0501
A0301400530193776408001AQUINO, MARICEL B.                                       0502
A0101401380201670119001SANTOS, MARIA DIVINA GAYOS                               0501
A0101407140213279190001**********                                               0501
A1001400190231520766049JOCELYN S. LLUBIT                                        0501
A1001400190231520766110MAYOR, CARMELITA ANGCAY                                  0501
A1001400190231520766126ORTIZANO, MERLYN B.                                      0501
A1001400350233770191001PATRIANA, LINDY CASTILLO                                 0501
A1301400470252634995001LOUISE L. ANG AND LOED L. ANG                            0510
A1301400470252667113002**********                                               0502
A0101400570281654095001BUNOY, LERMAH SONICO                                     0501
A6601400120314630541002LIAD, ROSIE ORTIZ                                        0502
A3401400280318478374002PIONELO, LENIDIE DEVELOS                                 0501
A0101402480331020937001**********                                               0503
A0101402480331478374061**************                                           0501
A0101402510341541325002GO, JONATHAN TING                                        0501
A0201400920375478374015GAYO, LOURDES O.                                         0502
A0101408370382550614003BETITA, JUDITH SEVILLA                                   0501
A0101405490392170537002LORNA V. TUGADE                                          0501
A0101408400394478374062APOLIS, SALVACION G.                                     0502
A0101408400394483019001TRINIDAD, LIEZEL CACULITAN                               0502
A0101408400394510820001SONGCO, CHARLOTTE ARIOLA                                 0501
A0101408400394566645001SIMON, SUSAN BABOL                                       0502
A0101403030441043810001CORE SOURCE TRADING                                      0504
A0101403030441707375001**********                                               0502
A1901400160491247764001MARITES E RAMIREZ                                        0501
A0101408110515041358001MADE IN HEAVEN ENTERPRISE                                0501
A0101411790518055764147FRANCISCO, JONELO NAPARAN                                0501
A0101411790518055815060NOLLEDO, JOHN KEVIN                                      0501
A0101403450521017769001**********                                               0502
A0101404260611478374135EMELITA B. MONCHEZ                                       0501
A0101404260611491692001EDGARDO M BALANI                                         0501
A0101409920650478374030DELA CALZADA, REGIL OMLANG                               0501
A1301400340683313960001CABIGAS, RENATO EXALTACION                               0503
A1701400230693478374071QUILIT, RIZALINA ANCHETA                                 0501
A0101408240711478374015EMILY MONTILLANO                                         0502
A4101400260812035893001SGI TRADING                                              0507
A4101400420814388902001PAGDALIAN, ANITA OCAMPO                                  0501
A4101400420814478374026FLORENCIA DELA CALZADA                                   0501
A4101400420814478374122AGUILO, RODENA T.                                        0501
A0601400230891698269001DIMABUYU, LESLIE BALUYUT                                 0501
A0601400230000000452782GOZUN, R-JAY RAMOS                                      10520
A4101400390000000975071ORTEGA, NATHALIE DBU NATH'S DRY                         10501
A0101411240000001563344LIMPIN, MA. LIOBA AYSON OR                              10501
A2801400230000001734732TAN, S DBU CITY REJUVENATING                            10502
A0101412470000002086433ESTHER ARCA DBU WASABE SPICE OF                         10503
A0101402930000003179537DOMINGO, JAN DBU EAGLE TASK                             10502
A0101402930000003710472G, DBU PENTAGON STRUCTURAL                              10510
A0101401250021057023001BERNARDO, VICENTE DBU CLARION                           10501
A0101401250021179020001LLAMADO, REYNALDO C. OR                                 10501
A0101400150061229009001MANGLAPUS III, RAUL JAY OR                              10501
A3101400160221222009001REYNALDO A. GEDORIA OR                                  10501
A0101402350321427762001CHOY, ENG FAN OR                                        10502
A0201400920375525898003DUTERTE, RANDULPH LEYRITANA                             10502
A0201400890376667775001BUYSER, MISAN CANAS OR BUYSER,                          10501
A0101408950396771951001EVANGELINE S. MAGNAYE OR                                10501
A2201400250561533057001RAFAEL R. RICAFORT OR                                   10501
A1301400210682328520001DARIA OR EDUARD REBADOMIA                               10501
A1701400230693763026001SANCHEZ, REX GUILLERMO  OR                              10501
A2801400100712584654001GARCIA, RACHELLE EDELO       OR                         10501
A0601400230000000452782OR GOZUN, MYRNA                                         20500
A4101400390000000975071GOODS                                                   20500
A0101411240000001563344CASTRO, LUDY RODRIGUEZ                                  20500
A2801400230000001734732SPA JT                                                  20500
A0101412470000002086433 THE ORIENT                                             20500
A0101402930000003179537TRADING                                                 20500
A0101402930000003710472STEEL DETAILING                                         20500
A0101401250021057023001GENERAL MERCHANDISE, D'                                 20500
A0101401250021179020001LLAMADO, NATIVIDAD                                      20500
A0101400150061229009001MANGLAPUS, JENNI                                        20500
A3101400160221222009001MA. EVANGELINE O. GEDORIA                               20500
A0101402350321427762001MILA B. AQUINO                                          20500
A0201400920375525898003OR STEPHANY U. DUTERTE                                  20500
A0201400890376667775001IAN CHRISTOPHER                                         20500
A0101408950396771951001SHIELA MARIZ S.                                         20500
A2201400250561533057001RAYMOND R. RICAFORT                                     20500
A1301400210682328520001OR EDUARD REBADO                                        20500
A1701400230693763026001MARLENE                                                 20500
A2801400100712584654001GARCIA, EMMANUEL                                        20500
B0301400530000000066088********                                                 1605
B0101412180000001293049AUTO MAGIC CORPORATION                                   1601
B0101400150000001708538ESQUIRE FINANCING INC                                    1605
B2801400100000003400539SUBIC METRO LANKA INTERNATIONAL COR                      1601
B0101400860011792731001**********                                               1603
B0101400440161043992001AGAPP FOUNDATION, INC.                                   1601
B1001400190231029291001JAMESON CONSTRUCTION SUPPLY                              1610
B0101406620273692749001EAS GROUP ASIA INC                                       1604
B0101408820333041843001SERVICTORY CO. LTD.                                      1601
B0101402060351030919001UNITED TERMINALS SERVICES INC.                           1603
B0101402930381015075001KEYSTONE SOLUTIONS, INC.                                 1601
B0101408950396026318001GLOBAL CITY AUTO SALES, INC.                             1604
B0101409180397044045001CACHO CONSTRUCTIONS, INC.                                1602
B0101409210398703674001J.LEGACY BUILDERS CORPORATION                            1605
B0101403320471034459001LORDCHEM INTL. CORP.                                     1605
B0101403450521028565001**********                                               1602
B0101406590662744080002MARKETMIX TRADING INC.                                   1604
B0101407560686043296001REYGOR AUTO SUPPLY                                       1605
B0101408240711008390001TRANSLIFT SHIP MANAGEMENT, INC.                          1610
B2801400100712028940001HUANG CONSTRUCTION CORPORATION                           1604
B4101400390813047907001ST. JOHN BOSCO FAITH TRAINING CENTER                     1604
B4101400420814016269002DAMAYAN SA ANABU II B CREDIT COOPERATIVE                 1603
B0101405070861022986002SEVEN RED DIAMOND CORPORATION                            1610
B0101405070861038257001GREAT CRESCENT FLOUR CORPORATION                         1604
B1301400470000000009685FIRST KINGSTON LEISURE AND SERVICES                     11601
B0101405490392052350002NORTHSHORE HARDWARE & CONSTRUCTION                      11602
B0101403320471033185001VILLA RONAR GARDEN & RESORT,                            11605
B1301400470000000009685CORPORATION                                             21600
B0101405490392052350002SUPPLY                                                  21600
B0101403320471033185001INC.                                                    21600
