B0101407720602821100608**********                                               2005
B0101407720602821100608**********                                               2005
A0101413860000013130373DIOKNO, GENER BARCELOS                                   0503
B0101413860000007953931BACKOFFICE SOLUTIONS, INC.                               1602
B0101413860000010275891MEGA MILE TRANS INTERNATIONAL CARGO                      1605
B3801400170000014034958ANGELU'S MIXED RICE                                      1601
A0101400440161525001112JELLIE ANN D. LOMAHAN                                    0501
A1101400120313478374103ENVERZO, NARISSA LEONORA G.                              0501
A0201400760000002047445SANCHEZ, MARICHU SOCO                                    0502
A0201400760374045286001C.K. BUILDERS CONST. & DEV'T. C                          0501
A5501400120000002019158SUPERIO, MERLYN G. DBU DIAMOND                          10505
A5501400120000002019158MEMORIAL CARE SA                                        20500
A2401400180000005536687YAP JR., ENRIQUE BARRERA                                 0505
B0101405940000003571737HOT DISK CORP.                                           1602
A0101401250021333461001SATURNINO, EDRALIN P.                                   10501
A0101401250021333461001OR SATURNINO, JEANETTE C.                               20500
A0101401250021653593001SOLANOY, JENNIFER BRIONES                                0501
A0101411370000000903553CASEL, LILIBETH DE BELEN                                 0501
A0101400150000003218642ANTON DANIEL V. YAP                                      0501
B0101400150061028210001GOLDEN DRAGON MOTOR SALES CORP.                          1605
B0101400150061047817001TOMITA INDUSTRIAL & MACHINERY INC.                       1601
B0101400150061047820001TOYAMA INC.                                              1601
A0101400150061227440001ERIC L. MONTANDON                                        0501
A0101400150061228073002CHONG, SANDRA S. or                                     10501
A0101400150061228073002CHONG, CHRISTOPHER S.                                   20500
B0101405810072011448001C.P.P.C CONSUMER PACKAGING PRODUCT CORP.                 1603
B0101405810072018018001AIMWAY PLASTIC & PRINTING CORP.                          1602
B0101405810072029570001PLASTIC CONSUMER CORPORATION                             1602
B0101405810072030630002SK PLASTIC RELIANCE COMPANY                              1601
B0601400360000003186930SOMANG GLOBAL CLARK  CORPORATION                         1601
B0601400520000000398512PAGASA PHILIPPINES LENDING COMPANY, INC.                 1606
A0601400520000007553337GONZALES, LEONEL PARE DBU MRS.                          10505
A0601400520000007553337KIMCHIE KOREAN R                                        20500
A0101410850000000472440PIAMONTE, M DBU M.S. PIAMONTE                           10502
A0101410850000000472440CUSTOMS SERVICES                                        20500
A0101400730000000833396CARBONELL, LEVINA IBALE                                  0502
B0101400730111008442001SOVEREIGN TRAVEL & TOURS, INC.                           1601
A0101400730111382955001PRADO, EDWARDO BAARDE                                    0501
A0101406040000003332903*******                                                  0501
B0101401960121238762002***********                                              1601
A0101413150000005319142****                                                     0501
A7201400170000011454345CHIO, JESIEL LACIERDA                                    0501
A7201400170000011454345CHIO, JESIEL LACIERDA OR                                10501
A7201400170000011454345CHIO, DAVID ABAO                                        20500
A5001400170000000214002REQUINA, ORWINO ATAY                                     0501
A5001400170000005705197MAGBAGO, JUCEASAR MACALONG                               0502
A0101412920000008813521ESTIPULAR, MICHAEL OLIVER SIA                            0501
B0101407270000000830459EMPRESSO CREATIVE CO.                                    1601
A0101407270162333465002ALVIN BARON A. SIA                                       0501
A0101407270162569405001ALBERTO M. ALVAREZ                                       0505
A0101401090000007525706YEBAN, MARINA VICTORIA P. OR                            10501
A0101401090000007525706YEBAN JR. RAMONCITO H.                                  20500
A0101401090171194904001DR. NERISSA SANTOS                                       0501
A0101401090171463204001JERRYZALDY & SALLY TUGBO                                 0502
A0301400530000000066113RUDELA, JIVIR S. OR                                     10502
A0301400530000000066113RUDELA, ANALYN C                                        20500
A0301400660000010221971DAYANGHIRANG, CAMILLE JOYCE RES                          0501
A0301400660000005691803**********                                               0501
A0301400660000000195099BEAGLE IDA SECURITY AGENCY, INC                          0502
B0301400660000003368490ARBICON, INC.                                            1603
B0301400660000006755162KILOTRADE MARKETING CORPORATION                          1604
A0301400660194733226088DAVID, FRANCISCO OR ZAMORA JR.,                         10501
A0301400660194733226088 CERIACO                                                20500
A0301400950000013129301MABUNGA, MARIAN CRUZ                                     0502
B0301400950000011415102DAZI CONSTRUCTION AND SUPPLY                             1601
A0101401380201769428001FLORES, JENNIFER LUCIDO                                  0501
A0101413600000009611792MICHAEL RALPH M. ABRIGO                                  0501
A3101400450223019932004SAN PABLO CITY (HOST) LIONS                             10501
A3101400450223019932004CLUB                                                    20500
B1001400190231039064001*****                                                    1604
A1001400190231520766119CABANO, BERNADITH CATIWALAAN                             0501
B1001400350000007920876PEARSON, PILARCITA ROA AND  HEQUILAN,                   11602
B1001400350000007920876ELVIE CORTEZ                                            21600
A1001400350000000017165MEN DBU A&L MARKETING SOLUTIONS                          0501
A1001400350233478374006IBANEZ, ELSA                                             0502
A1001400480000002300327VILLO, AZUCENA PANGANTIHON                               0501
A1001400480000010131743TAN, BLAIR MACASERO                                      0505
B1301400470252036216001WHEELTEK MOTOR SALES CORPORATION                         1603
A1301400470252442158001TEOFILO B. TALAVERA JR. OR                              10502
A1301400470252442158001AUREA TALAVERA                                          20500
A1301400470252444292001ROSARIO TERESITA O.L. ODULIO                            10503
A1301400470252444292001OR REYNALDO B. ODULIO                                   20500
A1301400760000005990003ROWENA D. ALVAREZ                                        0503
A1901400290000012632483EMMA ESPIRITU VERGARA OR                                10504
A1901400290000012632483KEITH CARLA E VERGARA                                   20500
A1901400290261356002001MARICEL REJANO LUCERO                                    0501
B0101401670271007115001RAMIREZ AND CUTTER, INC.                                 1602
B0101401670271029269001SIXTO AND ALICE REALTY HOLDINGS CORP                     1601
A0101401670271194255001MARIA MARTHA LOPEZ ANGELES                               0501
A0101401670000007555680*******                                                  0501
B2001400290000007832400RITESTREET LENDING CORPORATION                           1602
A0101402350321022842001FALCIS FRESH CHICKEN                                     0503
B0101402350321031867001ALOMER PRINTING, INC.                                    1601
B0101405650322024999001SUPERIOR MAINTENANCE SERVICES, INC.                      1630
A0101402060351211638001DIOSDADA AGUILAR &/OR                                   10503
A0101402060351211638001ERWIN NOEL AGUIL                                        20500
B0201400760000011325561PAGES HOLDINGS, INC.                                     1605
B0101402930381046346001CONNECTICOM GLOBAL NETWORK INC.                          1605
B0101408370382027041005THE MEDICAL CITY EMPLOYEES ASSOCIATION                   1601
A0101408370382205337001DR. LOUIE C. RACELIS                                     0505
A0101402770391211422001JOSE L. ARANAS OR                                       10501
A0101402770391211422001MA. AZUCENA B. ARANAS                                   20500
A0101405490392351448001MARIA GENALINE V. PANINGBATAN                           10501
A0101405490392351448001OR EDUARDO D. PA                                        20500
A0101408400000001213585DUCTA, ANALIZA ABULENCIA                                 0501
A0101408400000007539997CALACA, MARIA SALAM FAJARDO                              0502
A0101408400394402626001GARCIA, NATIVIDAD P. OR GARCIA                          10505
A0101408400394402626001JR., HERMOGENES                                         20500
A0101408950000000776552FAVIA, WALBERTO DE BELEN                                 0502
A0101408950000007458931QUIMPO, MARY GRACE MANALESE                              0501
A0101409180000003882224ROCERO, ANA JOY                                          0502
B0101409180000000874751MENARCO DEVELOPMENT CORPORATION                          1602
A0101409210000009309844SARMIENTO, PABLO ENRIQUE CONQUI                          0502
A0301400820000013996291DINO, ANTHONY L. OR MOMO,                               10501
A0301400820000013996291SHINYBELLE Y.                                           20500
B0301400820000005196750POWER ASSET SERVICES CREDIT CORP.                        1603
A5501400120000000265872MORALES, ROMEO BAMA                                      0502
B2401400180411014376006PENBANK, INC. (A PRIVATE DEV'T BANK) -                  11605
B2401400180411014376006FISHPORT BRANCH                                         21600
A2401400180000003949042ESMOND ENGINEERING RESOURCES                             0502
A0101403030000008089334TAN, JESUSA POTIAN                                       0505
B0101403030441590302001**********                                               1603
A0101412890000002324209MERAN, MARIA ANA LAMBUS                                  0501
A0101403320000014017788GO, MARIZ YVONNE C. DBU                                 10501
A0101403320000014017788GOKONEK MARKETING                                       20500
B0101410140000007303682SINAG TALA (ST) MICROLENDING CORPOR                      1603
A3801400170000002302807SY, EDGARDO CHENG                                        0503
A3801400170000011559881COLLANTES, ALBERTO REMO                                  0501
A1901400160491063374001EG PLUS FEEDS AND POULTRY                               10502
A1901400160491063374001SUPPLY                                                  20500
A1901400160491659463001GLORIA JARO PENA                                         0502
A1401400110000005526752DE SILVA, RENILDA TORIO                                  0501
A1401400110000014109161VICEDO, MELLA MASANGKAY                                  0501
A1601400170000001837863RENE N. ESPLANA OR                                      10503
A1601400170000001837863GLORYDEL B. ALAP                                        20500
A1601400170000002334101NAYVE, ROSELLER NAMIA OR NAYVE,                         10501
A1601400170000002334101LUCEA RICKY DAYMON                                      20500
A0701400260000013603691YU, ZENNIA MORENO                                        0501
B0701400260495821100608**********                                               2003
A0101407430000013169712UY, HAIDE LADEMORA                                       0502
A0101403580000005328434GARCIA, JULIA ADRIENNE ESCANO                            0502
B0101403580000010847482ARTI-ARTIHAN, INC.                                       1601
A0101403580511028909001E.M. MOLINA'S CONSULTANCY FIRM                           0501
B0101403580000010847511M22 BUILDERS INC.                                        1605
B0101403580000010847522M22 BUILDERS INC.                                        1605
A0101403580000005961873NOLASCO, GIL DBU FAR EAST                               10502
A0101403580000005961873INDUSTRIAL SALES                                        20500
A0101403580511156549006VIRGINIA C. PANGILINAN                                   0501
B0101403580511542394002STA. RITA 168 BUILDERS CORP.                             1605
A0101405940000003121831KO, MICHAEL ANTHONY LEE                                  0501
A0101412050000011929174LANGIT, MIRIAM OR LEA COLINE OR                         10502
A0101412050000011929174RIA MAELENE OR MARK                                     20500
B0101403450000000009787*********                                                1601
A0101403450000013846409LI, YONGXIN                                              0501
A0101403450521753734001TAN, BENJAMIN MASA                                       0507
A0101403610000007106505FIGUEROA, REYNEE FISCO                                   0501
A0101410690000000061834IQBAL, BERNADETTE G.                                     0502
B0101410690000001284395ALDANA, MA. ELENA M. DBU PANSOL TRADING                  1603
A0101404130000000043956WARDE, ROWENA REA                                        0501
B0101404130601044275001MYOUTDESK INC                                            1601
A0101407720602336697001DE CASTRO, YOLANDA U.                                    0502
A0101407720602397661001LAZARO-DIZON, GERGEN MARIE SERR                          0502
A0101407720602398203001CONRADO GABRIEL C. LORENZO OR                           10503
A0101407720602398203001PIA L. LORENZO                                          20500
A0101407720602399405002THELMA E. RAMOS OR                                      10503
A0101407720602399405002CLAVER P. RAMOS                                         20500
A0101404260611478374076NEREZA P RULL                                            0502
A0101404260611478374081ROSITA VIVIT                                             0502
A0101404260611478374091ROSITA LLANES                                            0501
B0101409890000003098151TECHNOLINE DIGITAL TRADING INC.                          1610
B0101409890000006812688INK DELIVERY ONLINE INC                                  1603
A0101407690652369463001MARLENE P TRINIDAD OR ARNEL L                           10502
A0101407690652369463001TRINIDAD                                                20500
A0101407690652564294003GALVEZ, NERISA RIVERA                                    0502
A0101413990000013171107SANTOS, KARREN KRESTA AUSTRIA                            0501
A0101408240000014082925DAVIES, JOSEPH KEITH MENDOZA                             0501
B0101408240711029537001ED LINK FOUNDATION, INC.                                 1602
A0101408240000000039530MORADA, VICTOR GERARDO M. OR                            10501
A0101408240000000039530MORADA, MARIA MAI MONICA                                20500
B2801400100000004560047JTO CONSTRUCTION CORPORATION                             1603
A2801400100000011911630ROJO, JAIME JESUS DINGLASAN                              0510
A2801400100000002253458DATU, FERDINAND BULAONG                                  0503
B2801400230000000372729KRJ TRADING                                              1601
A4101400260000012859322CUNANAN, PRECIOSA DEL MUNDO                              0501
A4101400390813246359002NORLINDA R. LEGASPI                                      0501
A4101400390813248327001DANILO B. SARIEGO                                        0501
A4101400550000002091043RAMIREZ, CYNTHIA TAN                                     0502
A0101412340000003341153KIMBERLY APRYL JADE C. BATTON                            0501
A0101412340000003344170JENNIFER A. LIABAN                                       0501
A0101412340000003438862PAMELA LAUREN A. CHAN                                    0501
A0101404840000004565851JACKY I. LEONARDO                                        0502
B0101413860862066709001CONTINENTAL CARGO CARRIERS, INC.                         1604
A0601400230000000498619NEPOMUCENO, NOLI SICAT                                   0501
A0601400230000003638960DIZON, JOSE JUN G. DBU INTERTEC                          0502
