B0101406590662821100608**********                                               2003
B0101406620273025400002FOOTACTION INTERNATIONAL MFTG CORP.                      1601
A0101415350000012006009CARLO A. CARREON                                         0501
A0101415350000006731280MALVAR, NANETTE CHAVES                                   0502
A0101413860000001887023FRANCISCO, MILAN CORTEZ                                  0501
B0101406590000003007289ARSENAL CINEMATOGRAPHY COMPANY INC                       1602
A0101410300000004361660BALOCATING, CARMENCITA C. OR                            10502
A0101410300000004361660BALOCATING III,                                         20500
B0101410300663044385001STAR E GAS TRADING                                       1602
A0101410300000000592198BARBASA, J DBU TIGER WATER                              10501
A0101410300000000592198STATION & GEN ME                                        20500
A0101413730000002289529*                                                        0501
B0101406460272038433001DYNING SISTERS REALTY CORPORATION                        1601
A0101409180000005326421SANTOK, MARENNEL LEE VILLANUEVA                          0502
B0101410140000010858194LIMPIN, EXSUR CRUZ AND LIMPIN, MICHELLE                 11603
B0101410140000010858194GONZALES                                                21600
A0101413990657004502002PAJARILLAGA, JOSEPH MANGAHAS                            10501
A0101413990657004502002DBU JAPJAK TRADING                                      20500
A0101406590662035265001******                                                   0503
A0101400860000001005503**********                                               0503
A0101400860011468776001**********                                               0502
A0101400860011717406001**********                                               0502
A0101400150000000806906DE LEON, CAROLINE TUAZON                                 0501
A0101400150000003601112FORTEA, ADORNA LIGUTUM OR                               10501
A0101400150000003601112FORTEA, ROMEO BALANCIO                                  20500
A0101400150000009401343******                                                   0502
B0101400150000011138133ROXAS, ESTELITA C & CADAVA, CONRADO JR M                11603
B0101400150000011138133& DE LEON, LORNA                                        21600
A0101400150000011714931CIRUJANO, RAYMOND ANTHONY MENDO                          0501
B0101400150061009768001ACTIVE COMPONENTS HOLDINGS, INC.                         1602
B0101400150061039488001PETERSON ENTERPRISES CORPORATION                         1601
B0101400150000001708447PHILIPPINE VENDING CORPORATION                           1610
A0101400150061226097001LIM, BELEN OR LIM, TIN CHONG OR                         10501
A0101400150061226097001LIM, CALVIN BERNARD                                     20500
A0101400150061226097002LIM, BELEN OR LIM, TIN CHONG OR                         10501
A0101400150061226097002CHOA, KAREN OR CHOA, LAY                                20500
B0101400150000000633323SISON, GIDEON AND SISCAR, MA ARLEEN AND                 11602
B0101400150000000633323IGNACIO, DENNIS                                         21600
A0101400150000002749615CAINAP, MAY NABO                                         0501
B0101405810072034021001ACCUFORM FABRICATION INC.                                1601
A0101405810000002314610LIN, CHEN SHENG                                          0501
A0101405810072582749001VACAL, CARMELITA CALALANG                                0502
B0601400100081256915004WILLIAM G. KWONG OR ANTONIO, ADELA                       1603
B0601400100081256915005KWONG, WILLIAM G. OR                                    11603
B0601400100081256915005ANTONIO, ADELA                                          21600
A0601400100081424085001ALAPAG, JASMINDA B. OR                                  10502
A0601400100081424085001ALAPAG, MARCELIN                                        20500
B0601400360000000978936THE MEDICAL CITY CLARK, INC.                             1610
A0601400520000007553326SIGUI, MARY ANNE ANQUILO                                 0501
A0601400520000009516689CASTRO, DENNIS AGUILAR                                   0501
B0601400520000002085963CANLAPAN, ARNOLD MANGUNE OR CANLAPAN,                   11605
B0601400520000002085963REBECCA PABALAN                                         21600
A0101413730000000469125*******************                                      0501
A0101400730111478374179MARIA LUISA S. TRUJILLO                                  0501
B0101401960121023340001**********                                               1601
B0101401960121238699002SO, PONCIANO CHUA                JT                      1601
A0101401830141206962001MARIA D. VALIENTE                                        0501
A0101401830000001281910DE GUZMAN, CONCEPCION FRANCISCO                          0501
A5001400170000006294471ASOMBRADO, JOESIL B. OR                                 10501
A5001400170000006294471ASOMBRADO, JEANNETH V.                                  20500
A0101407270000000997748VICTORIA MICHELLE TAMAYO OR                             10502
A0101407270000000997748ALESSANDRO TAMAY                                        20500
A0101407270162185788001*****                                                    0501
A0101401090171199876001********                                                 0501
A0101401090171200861001ELVIRA OR MELVIN DOLIENTE                                0502
A0101401090171201395001JOSE S. BLAS                                             0501
A0101401090171417083001ABIGAIL T. PAGALILAUAN                                   0501
A0301400660000002348483**********                                               0503
A0101401380000010190499ANGUS, ROBINSON CAL                                      0502
A0101401380000010190660MEJICA, KIM PATRICK PANGANIBAN                           0503
B0101401380201024290001KSP INTERTRADE CORPORATION                               1602
A3101400160000002711775MA ANGELA L GARCIA AND                                  10503
A3101400160000002711775LEONILO E ERCIA                                         20500
A3101400740000006735857JARABELO, NATANIEL MADRID DBU                           10503
A3101400740000006735857COZY TREK RENT A CAR                                    20500
B1001400190231010692001PHILIPPINE IRON CONSTRUCTION & MARINE                   11605
B1001400190231010692001WORKS INC.                                              21600
B1001400190000008744123NEOTRINITY CORPORATION                                   1610
A1001400190231520766022SALCEDO, KEIRSTENE MAE CASINO                            0501
A1001400190231520766026AYSON, ROWENA L                                          0501
A1301400470000001004082MARIFE M. APOSTOL OR                                    10505
A1301400470000001004082FERNANDO M. NICANDRO                                    20500
A0101406460272747467001****************                                         0501
A0101406460272747467003**********                                               0501
A0101406620000004926096JOHN, HYUNG JOON                                         0501
B0101406620273007454005GLOBE ASIATIQUE REALTY HOLDINGS CORP.                    1606
B0101406620273033463001ARL BUSINESS CONSULTANCY, INC.                           1602
A0101406620273085326001SARMIENTO, GLEN LOUDYMIR ACUNA                           0502
A0101406620000000962152VILLANUEVA, JOSELYN MANICLANG                            0501
B0101406620273692749001EAS GROUP ASIA INC                                       1605
A0101408660000006296815PERALTA, CARLA MARIE ANGKEE                              0505
A0101410980000006014437DEMALATA, MICHAEL DEMDAM                                 0502
A0801400160311327543001CONCEPCION S. DUMAYAS OR                                10502
A0801400160311327543001RODOLFO S. DUMAY                                        20500
B1101400120313036430002LEYTE HOME DEPOT INC.                                    1610
A6601400120000000060711SIXTO C ESPINA III DBU LFCE                             10502
A6601400120000000060711PETRON JT                                               20500
A6601400120314071890001MARTIRES, MYLA TURLA                                     0502
A6601400120314083348001BRIONES, DINAH SORIANO                                   0502
A6601400120314633618001AGONIAS, JONATHAN CASENAS                                0501
A2001400290000000924447CLAVEL, ALAN ZAMORA                                      0503
A0101402350321285195001JUAN PUAN TIU OR BEDA TAN TIU                           10501
A0101402350321285195001OR JOHN KELLY TIU                                       20500
B0101405650322043032001LEAN MANAGEMENT AND PEOPLE SOLUTION                      1601
A0101405650322052876001DUMALE, DBU TOPS MODULAR                                10501
A0101405650322052876001BUILDERS                                                20500
A0101405650000000348903ESPERANZA F. BAYLON                                      0502
A0101405650000006273685CABRERA, ENRICO LARA                                     0501
A0101402510000000200062BERNALDEZ, LIGAYA MACALINTAL                             0502
A0101409050000011558833UBAS, DANIEL JOSHUA OR LAGUYO,                          10502
A0101409050000011558833VIKTORIA DENISE                                         20500
B0101409050352031646001DELTA EARTHMOVING, INC.                                  1605
A0201400920375048147001COLONIE PEST CONTROL                                     0501
A0201400890000000027990MULLEY, AIRIZA ACIDO                                     0501
A0101402930381607882001MARAMO, ROLANDO HONRADE                                  0501
A0101408370382391929001DR. DONATO R. MARANON                                    0510
A0101408370382418301001DR. HAROLD L. TAN                                        0501
B0101408790000000038964NORTHPINE LAND, INC.                                     1601
A0101411660000004597220BONDOC, NARCISA NAVARRO                                  0503
B0101415350000007877567FABRO, JUN M. DBU SDB INDUSTRIAL SUPPLY                 11601
B0101415350000007877567AND SERVICES                                            21600
B0101405490392034314001RAEMANN CORPORATION                                      1602
A0101408400394162577001REYES, ELSA UNGSOD                                       0502
A0101408400394435044002TROVELA, RAQUEL ANTONIETTE GARC                          0501
A0101408950000002255450LIM, ADELINA SABAY                                       0502
B0101409180000009085263B P S PHILIPPINES, INC.                                  1602
A0301400820000004746009MAGNO, LOLITA                                            0501
A5501400120000002019090PENDON, NIXONLIE PASTRANA                                0505
A5501400120000002019090PENDON, NIXONLIE PASTRANA                                0501
A0101403030000001302123**********                                               0501
A0101412890000009833645URMINITA, DALISAY PAZ                                    0502
A0101412890000000007514RICO T RIVERA DBU WISEMIX                               10502
A0101412890000000007514CONSTRUCTION SUPPLY                                     20500
A0101403320471478374002GONZALES, ELIZABETH                                      0501
B0101406330000000162661BRILLIANT IMAGE, INC.                                    1603
B0101406330000007845723JZI CONELI VENTURES INC.                                 1605
A0101406330472478374043ROLLY A. MALLARI                                         0501
B1401400110492027100002SACRED HEART COLLEGE                                     1601
A1401400110492621336001MOISES, JESSIE LOSAURO                                   0502
B1601400170494087988002AEGEL DEVELOPMENT AND                                   11603
B1601400170494087988002MANAGEMENT, INC.                                        21600
A0701400260000009912661DR. LLAGAS, FE AMPARO CARIDAD                            0501
B0101403580511005173001DYNAWINDS INC.                                           1604
A0101403580511196754001CARMELITA E. LA O' JT                                    0502
A0101403580511693764001MESIAS, MARIA CARMINA SANTIAGO                           0502
B0101405940512702149001VANDEM MACHINERY TRADERS, INC.                           1605
A0101408530000008159677ESPECTACION, JIAN KARLA                                  0501
A0101411790000006792341VALDES, JENNIFFER ALEJO                                  0501
A0101411790000000469596**********                                               0502
B0101403450521011639001**********                                               1602
B0101403450521011830001SANBROS HOLDING INCORPORATED                             1601
B0101403450521011981001UFH HOLDINGS INCORPORATED                                1601
A0101403610000012445482BERNAL, JOEL TRINIDAD                                    0501
A0101403610531383110001YAMAT, ANGELITA ARELLANO                                 0501
A2201400250561478374062JENNIFER M. RAMOS                                       10501
A2201400250561478374062MEMBERS OF NATASHA                                      20500
B0101407720602047777001MEGAJOY POWER SOLUTION INC.                              1602
A0101407720602334161001MA. TERESA CONCEPCION C. PEREZ                          10501
A0101407720602334161001OR JUANITO T. PEREZ JR.                                 20500
A0101407720602397271001OZAETA, MA. RAMONA PABLO                                 0501
A0101407720602487544001FLORES III, AMADO ANGELES                                0503
A0101407720602772612001PILOT, DIONISIO PRE                                      0501
A0101407720602772612001PILOT, DIONISIO PRE                                      0501
B0101407720602779384001YUSIN NINE MARKETING INC.                                1602
A0101404260000002302181CRUZ, RODOLFO ESTEBAN D OR                              10501
A0101404260000002302181CRUZ, RHONA KARUNUGAN                                   20500
A0101404260611478374028ARNEL N. SANTIAGO                                        0503
A0101404260611478374076NEREZA P RULL                                            0502
A0101404260611478374097MILA B. RIELO                                            0501
B0101404260000008700732CARMONA, CARLOS AND LACASANDILE, SHIELA                 11601
B0101404260000008700732AND REYES, NICOL                                        21600
A0101409920000010528673CUIZON, ROSIE BALUNAN DBU 1120                           0502
A0101407690652045019001AXIS ROOF SERVICES                                       0502
A0101411530000000741640ESTRELLITA VENERACION OR VICTOR                         10502
A0101411530000000741640EMMANUEL VENERACION                                     20500
A0101411530000001393682PACIA, EDWIN MICHAEL JOY B OR                           10502
A0101411530000001393682PACIA, ANNABELLE                                        20500
A0101413570000012192186LAZARTE, NEIL DARWIN PEREYRA                             0501
A0101413570000009426160BARRIENTOS, BLESSIE BASCOS                               0501
A0101414120000001751413SALVADOR J. LAGARE OR EMILIA                            10502
A0101414120000001751413V. LAGARE                                               20500
A0101406590662346608001ELAINE O. LOPEZ OR                                      10502
A0101406590662346608001CARMELO ELISEO Y. LOPEZ                                 20500
A0101406590662501295001DE GUZMAN, MARIO TUBADEZA                                0501
A0101410300000002375904TRISTAN PAUL C. TAGLE OR                                10505
A0101410300000002375904KRISTINE N. TAGLE                                       20500
B1301400210000008173842SANTOS, DANILO ANGELES                                   1601
B1301400210682038666001EMERALD MANAGEMENT SERVICES &                           11601
B1301400210682038666001CONSULTANCY                                             21600
A1301400210682478374062MA. ERLINDA C CHUA                                       0501
A1301400210000011696338APOSTOL, ANGELINE AGULTO                                 0501
A1301400340683456739001LAZATIN JR., EDUARDO NIONES                              0502
A1301400500000001412388GERONIMO G. QUIZA JR. OR                                10501
A1301400500000001412388MA ROSELLE P. QUIZA                                     20500
A1301400500000005963368********                                                 0502
A0101408240000009452893VILLANUEVA, ANACLETA FLORES                              0501
B0101408240000002419996**********                                               1602
A0101408240711087827001PANGILINAN, SUSAN CABRERA                                0501
A0101408240711393907002CABRERA, MARC LAMSON OR                                 10501
A0101408240711393907002CABRERA, CAROL                                          20500
A0101408240000000039683MIRCHANDANI, SHERYL OR LALA                             10501
A0101408240000000039683OR MICHAEL                                              20500
A0101408240711440866001ROMAN OR LEONORA SANTOS                                  0503
A0101408240711542230001ADRIANO, GLENDA TULAY                                    0502
A0101408240711622356001SORIANO, DELIGHT CASTILLO                                0501
A2801400100000006977384RAINERI, CHERRY DAVE SAAC DBU W                          0501
A2801400100712744757001MORALES, FELISA JOY CLEMENTE                             0501
A4101400260812409493001AMELIA RAZON OR EMILINO RAZON                            0502
A4101400550000007583693SO, ZEPPELIN SAYO DBU LEDZEP TR                          0502
B0101406750852456290001**********                                               1602
A0101405070000006006097ALDWIN CANTILLO LOGISTICS                               10502
A0101405070000006006097SERVICES                                                20500
A0101413860000002314227BONCAVIL, CLARISSA MORRE                                 0501
B0101413860000001767939JUDICIARY SAVINGS & LOAN ASSN., INC                      1610
A0101413860000009426411ONG, JEFFERSON CHAN DBU STITCH                          10501
A0101413860000009426411PRO MARKETING                                           20500
B0601400230891021614001QUIOC (D) QUIOC & ASSOCIATE                              1601
B0601400230891028013001OCAMPO'S MARKETING, INC.                                 1603
B0601400230000001062366BEARING CENTER & MACHINERY, INC.                         1601
B0601400230891040013001OCAMPO'S METROSALES INC.                                 1603
A0601400230891539871001MALONZO, EDUARDO PATAWARAN                               0505
