B0101410300663821100608**********                                               2002
B0101407270162043148001LA COMMERCIALE M&J REALTY                               11603
B0101407270162043148001INCORPORATED                                            21600
A0101407270162333006016MA. CIELO VILLEGAS                                       0501
A0101412500000016221628REYES, MARIE ANNE YLAGAN OR                             10502
A0101412500000016221628NICOLAS, KRISTIN                                        20500
A0101412500214068283001AOSBC TRADING                                            0501
A3001400130230767566012RAFIL, SHARON PEROCHO                                    0501
A0501400200000002306025QUISMONDO, ARNEL LAPENA                                  0501
A0101402350321025863001PROGRESSIVE MASON CLUB                                  10501
A0101402350321025863001(SOUTH MANILA CH                                        20500
A0101402350321236824001CARMEN T. GO                                             0501
B0101402060351217550002PETRON VALLE VERDE                                       1610
A0101415350000009103833AGLERON,NORMAN RODERICH FRANCIS                         10501
A0101415350000009103833OR AGLERON,GINA                                         20500
B0101400860011035923001**********                                               1601
A0101400860011413316001**********                                               0506
A0101400860011596360001**********                                               0503
A0101411370000005524403GAURANO, RIO LAO OR                                     10501
A0101411370000005524403GAURANO, RAICEPH                                        20500
A0101400150000000053114SANTOS-CRUZ, MA. CHRISTINA                               0501
B0101400150000000633185SB RENTAL CORPORATION                                    1610
A0101400150061514440001SACLAYAN, MYRNA BAUTISTA                                 0501
A0101400600000008914978TIU, MARC LOUISE ESPIRITU                                0502
B0101400600071040992001DMS FRUITS AND VEGETABLE DEALER                          1601
B0101405810000005943320D.W. PLASTIC CORPORATION                                 1601
B0101405810072029570001PLASTIC CONSUMER CORPORATION                             1602
A0601400100000005050491TONGOL, NOEL SIBAL                                       0501
B0601400360000013047660CYBER CITY EMPLOYEES MULTIPURPOSE                       11610
B0601400360000013047660COOPERATIVE                                             21600
B0601400360000013047671CYBER CITY EMPLOYEES MULTIPURPOSE                       11610
B0601400360000013047671COOPERATIVE                                             21600
A0101413280000002317671MA. CRISTINA DUMIGPE                                     0501
A0101414090000004803623RELOVA, CHRISTIAN MABANTA                                0503
A0101400730000000833192GLEN T. NIOKO                                            0502
B0101400730000008477870B&R FINEST AND FAMOUS FOODS CORPORATION                  1605
B0101400730000010255493B&R FINEST AND FAMOUS FOODS CORPORATION                  1605
A0101400730111386485199JULITA D. MERCADO                                        0501
A0101400730111412858010LOLITA MANALO                                            0503
A0101406040000017041075GARDOSE, JEFF CARASICAS                                  0501
A0101406040000014388613**********                                               0504
A0101406040112733226001FRANCISCO DAVID OR                                      10502
A0101406040112733226001DELIA ADOLFO                                            20500
A0101401960000004419761**********                                               0505
B0101413310000006144652FUTURISTIC AVIATION AND MARITIME                        11603
B0101413310000006144652ENTERPRISE INC.                                         21600
B0101401830000000059972CARITAS SALVE CREDIT COOPERATIVE (NOVA/                 11603
B0101401830000000059972ST.PETER) 010                                           21600
B0101401830000001281998RIVERA, RAMIL DBU ICON RBR                              11602
B0101401830000001281998GLASS AND ALUMIN                                        21600
A0101400440161520766147EVANGELINE GARAY                                         0501
A0101400440161525001103OFELIA B. OLERMO                                         0501
A0101400440161525001174RIZALYN V. GUNTANG                                       0503
A0101407270000006939082DELA PENA, AIDA ROSAURO                                  0502
A0101407270162493078001GINNY M. OCAMPO                                          0503
A0101401090171487578001LIM, LARA GABRIELLE LEE                                  0501
A0301400660000013311432CHIU, CAMILLE JOYCE OR                                  10502
A0301400660000013311432CHIU, PETER PAUL VINCENT                                20500
B0301400660000003368347SKY TEAM SERVICES, INC.                                  1603
B0301400660000007029143COCHERO TRUCKING                                         1605
A0301400790000013578180OLAMIT, CORAZON SAAGON DBU                              10501
A0301400790000013578180OLAMIT STORE                                            20500
B0301400950000000566887CHRISMA TRAVEL AND TOURS, INC.                           1602
B0101401380201025256001MESSE & HANDEL CORPORATION                               1601
B0101401380201030648001ITEMP HOLDINGS INCORPORATED                              1601
B0101401380201042910001SECURITRON SECURITY SERVICES, INC.                       1605
A0101410720000016903190DE JOYA, REVERE ANTHONY BUSTAMA                          0503
A3101400160000008941453JULIANO, JOSEPH ALABADO                                  0502
A3101400160221386295002ROBERT J. BANATIN                                        0502
A3101400450000016932559SALEHKHORRAM,MONA OR SEDIGHPOUR                         10501
A3101400450000016932559BAKHSHAYESH, HOUSHANG                                   20500
A3101400450223223502001LOYOLA, EMMANUEL D OR MARYLENE                           0502
A3101400450223379020001AWAYAN, SHIRLY OR AWAYAN,                               10501
A3101400450223379020001APOLLO                                                  20500
A3001400130000009103651BANJAO, ANACORITA G                                      0501
A3001400130230478374004BALABA, JANETH BORJA                                     0501
A1001400480000000606893DERECHO, REYNALDO RAMAYLA OR                            10502
A1001400480000000606893DERECHO, MILRENAH                                       20500
A1301400470000005394447CYRUS J. FERRER OR JOANNA                               10502
A1301400470000005394447THERESE T. FERRER                                       20500
A1301400760000016570800REMEDIOS BINIAS HONCHU                                   0502
A0101406460000002331011BAVIERA, PORTIA CASTELLANO                               0502
A0101406620000005394801YANGCO, ARNOLD QUIMSON                                   0502
B0101406620000011433166VALENS RESEARCH ASIA, INC.                               1601
B0101406620273015217001LANDPATCH CORP.                                          1604
B0101406620000003497325FILIPINO DYNAMIC DATA CONSULT INC.                       1601
B0101406620273216386001CITIMEX, INC.                                            1602
A0101412470000002135962NG, STEVE HOI OR KUNG, SUSAN GO                          0502
A0101412470000017284049GARCIA, LITO DE GUIA                                     0501
A0101412470000017284301GARCIA, TINA MATA                                        0501
A0101400570000011219439PONDEVIDA, ERMELO RIEGO                                  0501
A0101411240000016955314FRANCISCO, MA. CONCEPCION BAUTI                          0501
A0801400160000006893123SALIENDRA, MARY ANNE SORRILLA                            0501
B0801400160311494221001JUCABAN, LEO LAGOS                                       1601
A6601400120000010637442CUYCO, RONALD ESPAYOS                                    0502
A6601400120000011286270GACUSAN, RAUL CORRAL DBU 8.3                            10502
A6601400120000011286270COMPUTER TECHNOL                                        20500
A2001400290000010684336CHUA, JEOREX POBLACION OR CHUA,                         10501
A2001400290000010684336MELANIE ROSE GAR                                        20500
A2001400290315771486001MIOLE, CARLITO TOLIBAS                                   0501
A0101402350000011252810TAPEL, BERTILLA TATEL                                    0501
A0101402350321179524001MA. TERESITA PAJARILLO OR                               10501
A0101402350321179524001ROMEO PAJARILLO                                         20500
A0101402510341323210001ALBERTO V. ALAMAN JR.                                    0505
B0101402060351015284001GREEN VALLEY COUNTRY CLUB                                1601
A0101409050000011151178MONDONEDO, COLEEN CAMILLE ESPLA                         10501
A0101409050000011151178NA                                                      20500
A0101409050000002971486SALAS, KATHERINE MARTIN                                  0502
A0201400760000015883751BRUA, ROLEN ROSALES                                      0501
A0201400760000015753430WENCESLAO, NISTA KATRINE CALDOZ                          0501
A0201400920000000048031FMC CATERING SERVICES                                    0503
A0201400920375524523001MIEL, PRINCESITA OR MIEL, ALEX                           0502
A0201400890000016705221CANTALEJO, ROJEN DE LA CRUZ                              0501
B0101402930000013314700BOOMSOURCING INC.                                        1605
A0101402930381370682002DR. RONELON PAGKALIWAGAN OR                             10502
A0101402930381370682002DR. LUDIVINA PAG                                        20500
A0101402930381381233001LEAH LIZETTE M. ESGUERRA                                 0502
A0101408370382209111001DR. JOSEFINA C. PONCIANO OR                             10504
A0101408370382209111001RANDOLF C. PONCIANO                                     20500
A0101402770391220971001MIARAL, JOHNNY CAWALING                                  0502
A0101408400000017142648WALKER, ANITA BESTOSO                                    0501
B0101408950000015963907BAYOCA, R DBU LINGSNET ENTERPRISE                        1602
B0101409210000000031169CAISHEN MARKETING SERVICES, INC.                         1606
A2401400180411038015001GENSAN ULTIMATE AUTO SUPPLY                             10510
A2401400180411038015001& HARDWARE, INC.                                        20500
B2401400180000000019769WILL & JOE AGGREGATES, INC.                              1605
A1201400150000015799607VILLANUEVA, BRENDA LEE ATOS                              0502
A0101403030441587118001FLORENTINO, ROSEMARIE JUNAS                              0501
B0101412760000007822013E-BLACKBOARDS LEARNING AND SOLUTION                      1602
A0501400170481043466001RUSKIN MARKETING                                         0501
A0501400170481330355001JESSE STEWARD L ONG                                      0502
B0501400170481398688001GWENDOLYN S. TAN AND JOHN O. TAN OR                     11601
B0501400170481398688001ENOCH O. TAN                                            21600
A3801400170000012459013ARBAN, MARY SYNDELL RUTH OR                             10501
A3801400170000012459013BALITA JR., EFREN                                       20500
A1401400110000007186623DY, DAVE FRANCIS AYCARDO                                 0506
B0101408530516026922001STAR HOUSE INCORPORATED                                  1601
B0101408530516033358001FMCB, INC.                                               1603
A0101403610000007106583DAMOT, LEONILA KATIGBAK                                  0501
B0101404130601100034002ADVATECH INDUSTRIES, INC.                                1612
A0101404130601450078001ROBERT B. OCANA OR                                      10502
A0101404130601450078001MARJORIE OCANA                                          20500
A0101407720602298846008LAMBERTO U.OCAMPO OR                                    10501
A0101407720602298846008ANNABELLE SARMIENTO                                     20500
B0101404260000000550230INTERPRO FOOD SPECIALIST INC.                            1605
A0101404260611756625004CARAMBA, BERNARDINO DUGANG OR                           10505
A0101404260611756625004CARAMBA, VIVIAN VICENTE                                 20500
A0101409920000011312700ATO, MARY JANE BARRION                                   0503
A0101413570000007373886GUILLERMO, LITA REMOLACIO                                0501
A0101410300000011355503DIMALANTA, ANNA CATALINA ANIAG                           0501
A1301400210000001206820MERLITA R SALAVERIA                                      0510
A1301400500000005963740MARK GIL S. ARCENAL                                      0501
A0101408240711375102001PANICUCCI, MA. PILAR M. JT                               0501
A0101408240711582419001BANAS, ANALY NARISMA                                     0502
A4101400420000014280150TEE, RUSTICA HERTUS                                      0501
B0101404840000003069641GAZ DE BAY INC                                           1605
A0101406750000011370373LINDA V DELA CRUZ                                        0501
A0101406750000014701003BULANHAGUI, ARACELI CRUZ                                 0502
B06014002300000060452907R FINANCE CORP.                                         1610
B0601400230000003644853ALL 'BOUT PEOPLE SERVICES & TRADING CORP                 1602
A0601400230891363362001MARITESS P. FLORES                                       0501
