B0101400310211821100608**********                                               2003
A4101400420814520766114BAYER, LOWELYN C.                                        0502
A4101400420814478374164LENITA PARRILLA BALISA                                   0501
B0101400600000001335693ANDRES, JOENATHAN DBU JOENATHAN                         11603
B0101400600000001335693ANDRES GENERAL M                                        21600
A06014001000000026985005ASTRO, DERRICK SANGIL                                   0502
A0101405650000000525751ZAFRA, APRIL ROSE PENALBA                                0501
A0101405650322035182001*****                                                    0501
A0101405650322553972001CALUGAY, PAULO M. OR                                    10502
A0101405650322553972001CALUGAY, KATRINA                                        20500
B0101405650322566792001MATHESA FOOD INGREDIENTS INC.                            1602
A0101410140475478374010PELAEZ, BEATRIZ GUEVARRA                                 0501
A4101400420814015061002AUTO AIRE CAR AIRCON SERVICE                             0502
A4101400420814298552026JOSEFINA FERNANDEZ                                       0502
A4101400420814520766084PADILLA, ROSEMARIE E.                                    0501
A4101400420814520766095SHERYL NICOLAS MENDOZA                                   0502
A4101400420000002084471ISIP, CLEOFE J.                                          0501
A4101400420814757410001SAPANGHILA, GEMMA ILANO                                  0501
A0101401250021476357001CATHERINE GO UY                                          0502
B0101400150000001708425INTELUCK CORPORATION                                     1602
A0101400150061236944132ORENCIO ANDRE IBARRA III                                 0501
A0101400150061315349166MARICAR R. LOPEZ                                         0504
A0601400100000002072680MARCOS, DULCE FORTO                                      0503
B0101413730000000144636**********                                               1602
A0101414090000001652331ABIERA, GABRIEL PHILLIPE AMURAO                          0502
A0101410560000002316616LORILYN A. JAYSON                                        0501
A0101400730000001697265CAWALING, MARY ANN                                       0501
A0101406040112733226001FRANCISCO DAVID OR                                      10502
A0101406040112733226001DELIA ADOLFO                                            20500
A0101401960121348042001YAP, HELEN SY                                            0501
B0101400440000000337819LAZARO, RUPERTH & LAZARO, MARIA THERESA                  1603
A0101400440000000596549BIMBO FERNANDEZ TUCAY                                    0503
A0101400440161039070001LGRM ENGINEERING & CONSTRUCTION                          0502
A0101400440000001439663MEDCON PHARMA                                            0502
A0101407270000000818491RYAN RESELVA                                             0502
A0101401090000001633741SORIANO, CHARLES SHERWIN M.                              0501
A0101401090171199546002DANIEL I. NIETO                                          0502
A0101401090171418942001JOSELITO B. DIAZ                                         0501
A0301400660000000475592*****                                                    0501
A0101401380000000682622********                                                 0501
B3101400740000007201663CABALLERO, JOFFER AND BALQUEDRA, AVEGALE                 1601
A3101400870000002007716ALMAZORA, RYAN ACE VIBAR                                 0502
A3101400870000001712185LLAGAS, ROED VALLESTERO                                  0502
A3101400870000001177082MABAET, EVELYN MERCADO OR                               10501
A3101400870000001177082MABAET, TRISHA D                                        20500
B3101400870000004767751MITSUBISHI MOTORS PHILIPPINES CORP                       1601
B3101400870225029703003MITSUBISHI MOTORS PHILIPPINES SUPERVISOR                11601
B3101400870225029703003UNION                                                   21600
A1001400190000002170736MARABE, RIKKA LA VINA AND                               10502
A1001400190000002170736LA VINA, IRISH P                                        20500
A1001400190231478374012FARINAS, EVA MAE CENTO                                   0502
A1001400190231478374084UBAGAN, MARISA T.                                        0501
A1001400190231520766125YANA, MAYFLOR DAGOC                                      0501
B1001400350233036707001KASANAG DAUGHTERS FOUNDATION, INC.                       1602
A1301400470000003270584SONNY J. CARINO                                          0502
A0101406460272521121001CHUA, DANNY CHING                                        0501
B0101406620273017284001ACCENT MICRO TECHNOLOGIES, INC.                          1605
B0101406620273037461002FIRENZE CORPORATION                                      1602
B0101406620273215897003PATHLAND DEVELOPMENT CORP.                               1610
A0101411820000002328474ANNE CHRISTINE O. SANDEJAS                               0501
B0101411820000003085094MEDINFINITY INC.                                         1601
A0101400570281188687001LORGENE A. MATA OR                                      10503
A0101400570281188687001CLARISSA MATA                                           20500
A0101400570281519630001CARLOS, MARIA ARLENE DUMANDAN                            0502
A0101400570281711955001PERINA, IMELDA OBLIGACION                                0501
A0101411240283389614001REYES, MYLA BURCE                                        0501
A0801400160000000476346TSC SUPREME MOTOR SHOP                                   0504
A6601400120000003642846FLORESCA, MANOLITO ESTERNON DBU                         10505
A6601400120000003642846RMF SARI SARI STORE                                     20500
A0101402350321671189001DELOS SANTOS, EDUARDO DORIA                              0502
A0101402350321712665001ALEX U. PASCUAL                                          0502
A0101405650322150163001CASIBANG, NATALIA T.                                     0505
A0101402060351009385001JORGE ALOMBRO JR. OR                                    10505
A0101402060351009385001NELIA ALOMBRO                                           20500
B0101402060351009577001AGC FLAT GLASS PHILIPPINES, INC.                         1603
B0201400890376037020001BREEDERS AGRIVET SUPPLIES INC.                           1605
B0101408790000002659129SUNFISH ASIA ENERGY SOLUTIONS INC.                       1603
A0101415350000005308372EMPLOYEES OF, TECH1 CORPORATION                          0502
A0101402770391211531001**********                                               0504
B0101405490392006511001TACKS AND BUTTONS APPAREL, INC.                          1601
A0101405490000005566236CONTI, MA. RIZA AMADA                                    0501
A0101405490000001092751MARIA TERESINA G. MESINA                                 0501
A0101408400000000029514SULIT, MARIA ADELMA ALVARADO                             0501
A0101408400394479058001PACALUNDO, JONAIDA OR PACALUNDO                         10501
A0101408400394479058001OR PACALUNDO, MA                                        20500
A0101408950396396902001RUTH MARIE DIVINAGRACIA                                  0505
A0101408950396483245002LEDESMA, KATHLEEN ROSE VARANDMA                          0502
A0101409180000004959635FERRERAS, EDWIN L. DBU BICORE                           10501
A0101409180000004959635ONE NETWORK ENTERPRISE                                  20500
A5501400120000002348325ANG, ANDY MAN CHUNG CHANG                                0505
B5501400120410044675008JAFKL ENTERPRISES                                        1601
A5501400120000002019089VILLORENTE, KRISTINE PRADO DBU                           0505
B2401400180411037264001CEVCEG MARKETING                                         1602
A2401400180411478374042JOYCE R. GALLEON                                         0501
A0101403030441239047001**********                                               0501
A0101406330000004349713RIVAS, ABIGAIL MARIE LICAS                               0502
B0101406330472046636001ENERTECH SYSTEMS INDUSTRIES, INC.                        1610
B0101406330000000011683SPOOFS LIMITED INC.                                      1601
A0101406330000000011770DANIEL A. ARQUINES                                       0502
A0101406330472370108002MA. VICTORIA L. ESTRELLA                                 0501
A3801400170490762644001LINA CORDOVA YUMANG                                      0501
B1401400110492013980002IMPERIAL APPLIANCE PLAZA                                 1601
A1401400110492493108001DEQUITO, BERNABE VILLANUEVA                              0502
A1401400110492777638001DY, EDNA AYCARDO                                         0502
A0701400260000005303702TAGUPA, MARIA CECILIA TOLENTINO                          0502
A0101407430503736499001CECILIA R. NALAUNAN                                      0501
A0101406880513081555001UI, LELIE S. OR LINDSAY OR                              10503
A0101406880513081555001LEILANI OR LIANN                                        20500
A0101408110515762922001SHINJI FUJIOKA                                           0501
A0101408530000000594207CASAS, MA LOURDES GOJAR                                  0501
B0101408530516033397001SPRINGER INTERNATIONAL, INC.                             1605
A0101408530000001885761GAMBOA, STACY SEZY CHUA                                  0501
B0101403610531044363001RAIN'S PLACE CORPORATION                                 1603
A0101403610531219680004RONWHEELS PARTS & ACCESORIES                             0501
B0101403610000006637114RD PAWNSHOP, INC.                                        1603
A2201400250561309932001RAUL S. BUAN                                            10502
A2201400250561309932001OR FELICITAS R.                                         20500
A0101410690000000061834IQBAL, BERNADETTE G.                                     0502
B0101404130601022494001CARE BEST INTERNATIONAL, INC.                            1604
A0101407720000004658328GALLENERO, JENNETTE TOLEDO                               0502
A0101407720602298846010OCAMPO, LAMBERTO UN OR                                  10502
A0101407720602298846010SARMIENTO, ANNAB                                        20500
A0101409920000001539522CEDENO, NOEMIE DEDICATORIA                               0502
A0101413440000001472942ANAS, MONINA DELA CRUZ                                   0501
A0101406590662032571002MOTHER BUTLER GUILD- OLPP                                0501
A0101406590662478277002SY, RAMONITA YBANEZ AND                                 10501
A0101406590662478277002OBERO, CRISTINA ORBELLO                                 20500
A1301400210000001206882GIPIT, GEMMA C.                                          0501
B1301400340683353482001MARLENE R. JOSE OR JOSE MARI R. JOSE                     1602
A1301400340000005264762JOYA, RYAN ROQUE                                         0501
A1301400340683478374039ABAOAG, CELIA SALVADOR                                   0502
A1301400340683768623001SALAZAR, RHODA RAMIREZ                                   0503
A1301400500000000213403CHOLLO TRANSPORT                                         0503
A1701400230000005694540RAMOS, AMADO MANUEL                                      0501
A0101408240000003955271MARTINEZ, ABEGAIL PINLAC                                 0502
A0101408240711512871001MORANO, RENATO OR TERESITA                               0502
A0101408240000002331191**********                                               0501
B2801400100712042633001SUBIC DRYDOCK CORPORATION                                1610
A2801400100712495268002LEE, JOSEPHINE GLECINDA TULAO                           10502
A2801400100712495268002LEE, JAMES TAN                                          20500
A2801400230000001781984BORLONGAN, P DBU SAYONG'S                               10501
A2801400230000001781984PASILYO COUNTRY JT.                                     20500
B4101400390813044652001MEGALINE CREDIT CORPORATION                              1602
A4101400390813478374058LEDESMA, LUZVIMINDA                                      0501
A0101412340000007088879ZENAIDA R. DULLA                                         0501
A0101404840851217637050RITA ANNE L. CAGAMPANG                                   0501
A0101404840851317230019FURAGGANAN, GENE C.                                      0501
B0101405070000003417569PAJULAS, CRISTINA DBU WYAA GENERAL                      11602
B0101405070000003417569MERCHANDISE                                             21600
B0601400230000006045381RD PAWNSHOP, INCORPORATED                                1603
A0601400230891255071002ATTY. MARIA ELISSA VELEZ                                 0503
