F0301400790000001211681GABUTERO, ROMMEL D OR                                   12601CKR
F0301400790000001211681GABUTERO, MICHEL                                        22600CKR
F0101407720602531639009INTELLIGENT BEAUTY SKIN                                 12610CKR
F0101407720602531639009SOLUTIONS INC.                                          22600CKR
F0101406750852032744001COSCO INTEGRATED OFFICE SYSTEMS                         12605CKR
F0101406750852032744001INC.                                                    22600CKR
