A0901400220000000012313**********                                               0502
A2401400180000000019872PABLO, SHARMINE IRISH MORALES                            0502
A0101409920000000022066DAVIS, JONALYN ARGUILLES                                 0501
A0101410300000000026531VELHAGEN, MELISA B.                                      0501
A0101404840000000085141NICOLASA R. GUIAS                                        0502
A0101409920000000118625DILE, BEBERLYN MUNEZ                                     0501
A4101400420000000120743VILLANUEVA, ROWENA ALARCON                               0503
A0101408530000000136212**********                                               0501
A0101404000000000136503JULIANO, MARIE JOY CRUZ                                  0505
A3401400280000000156698ARDIVILLA, MA. EMILE MENDEZ                              0501
A0101406460000000182530LICUDINE, CLARITA DELA CRUZ                              0502
A0101413990000000205934MGN GARMENT LINE SERVICES                                0505
A0101400150000000253278GELANO, ANGELO RECTO                                     0501
A0101405650000000348903ESPERANZA F. BAYLON                                      0501
A0101404840000000475952GONZALES, ROWENA POLLICAR                                0501
A0101401250000000907255BAGUAL, MARY JEAN BARAQUIEL                              0501
A4101400390000000975139ALBELDA, RHEA LOU CAUILAN                                0501
A0101407430000001028897FERNANDEZ, JOVITO GERON                                  0501
A0101407430000001028944MARY SWEET S. ARCE                                       0501
A0101412890000001056513BOQUIREN, ALBERT OR DANICA                               0501
A4101400420000001063832MADRID, CHERYL CALMA                                     0501
A2201400250000001066073JCP AND 3 SONS TRADING CO.                               0501
A0101412500000001146849*******                                                  0502
A0101412500000001146850*******                                                  0502
A0101404000000001187019***                                                      0501
A0101412920000001313740LINGAN, ROSALINDA PALATAN                                0502
A0101411820000001356474GENALYN ELE ASUNCION                                     0501
A0301400530000001409632BANSILOY, ROMEO ENOC                                     0501
A0101400440000001439692OMG ARTS & FRAME SHOP                                    0502
A0601400520000001706930DIZON, ISAGANI CHANTENGCO                                0503
A0101405650000001911980ROCAS, MILAGROS ESPINA                                   0501
A0101405650000001911991DESCALLAR, MARIA ISABEL FARA L.                          0501
A3801400170000002302790VIOLETA M. VALOIS                                        0501
A3401400280000002323371BUENSALIDO, RAYMUND DIAZ                                 0501
A3401400280000002323382MAESTRO, EDGAR ALLAN BELUSO                              0501
A0101400730000002376423MADLOS, YOHHEI PELIGRO                                   0501
A0101401700041681821001******                                                   0502
A0101400150061226190001MYRA S. SEVILLA                                          0501
A0101400150061226969001LUCY E. TIU                                              0501
A0101400150061236944084SOCORRO R. YABUT                                         0501
A0101400150061236944132ORENCIO ANDRE IBARRA III                                 0501
A0101400150061442787002CALLEJA, ROSELYN DOLINDO                                 0501
A0101400150061627323001DANDAN, DENNIS CAMIA                                     0502
A0601400100081032955001JENPREZ LAUNDRYNET                                       0501
A0101410560110478374009SAUDILYN M. PENAS                                        0501
A0101410560110478374013CYNTHIA EVANGELISTA MENDOZA                              0501
A0101400730111478374151MELANIE T. SIGUE                                         0502
A0101401960121238737001*********                                                0503
A0101400440161478374087LORNA V. GALLARDO                                        0501
A0101401090171035426001BIG MARTHA ENTERPRISES                                   0510
A0101401090171195115002ENRIQUE C. CHUA                                          0502
A0301400530193047254189TAGUM TRIO LUMBER CORP.                                  0510
A0101407140213279190001**********                                               0501
A3101400160221506317001RACHELLE B. ALVIAR                                       0502
A3101400450223223556001*****                                                    0505
A1001400350233546037001ORENCIA V. RAAGAS                                        0501
A1301400470252496058002ROMANITO DEL ROSARIO JUATCO                              0501
A1301400470252521830002EMELITA F. CARPIO                                        0502
A0101408660274595574001MORILLA, GAUDIOSA TENA                                   0501
A3401400280318478374008ELNA L. PINEDA                                           0501
A0101402510341199103001CORAZON D. HUANG                                         0502
A0101402510341199103002********                                                 0502
A0101402510341478374008MARY GRACE B. ANDRES                                     0501
A0101402060351086918001BENITO, EMMANUEL DETERA                                  0502
A0101409050352645570003MYRNA P. CUASAY                                          0501
A0201400760374041502001FANTAZTIC MARINE SERVICES CORP.                          0501
A0101408370382205330001DR. MA. CECILIA G. VICENCIO                              0504
A0101408370382336346001DR. MA. FAIDA R. REYES                                   0502
A0101405490392669148001RICSON S. TARCE                                          0501
A2401400180411344858001CHUA, MAGDALENA SALAZAR                                  0501
A2401400180411514423001DEALA, BERNARDITA GATCHALIAN                             0501
A1901400160491476162001GINA A PELESMINA                                         0501
A0101403580511150737004LUIS JUAN L. VIRATA                                      0502
A0101403580511322954003VIRATA, LEONIDES J M CUUNJIENG                           0504
A0101403580511561518002MARIA LARA U. ESPINUEVA                                  0501
A0101408110515041358001MADE IN HEAVEN ENTERPRISE                                0501
A0101403450521239572002ONG, SIN CHIOK                                           0501
A0101407720602161854002**********                                               0501
A0101407720602332798001ARNEL DIAZ OR LOURDES DIAZ                               0501
A0101404420631495161001ZOLAN CONSTRUCTION INC.                                  0502
A0101404680651465843001ANALYN M. PARAN                                          0501
A1301400340683520107001ROSELADA, MILAGROS DIMARUCOT                             0501
A0101408240711359216001HONTIVEROS, ASUNCION PAPRUZ                              0502
A4101400260812478374021CATHERINE C. RODA                                        0501
A4101400420814520766110DELA CRUZ, ARMINDA E.                                    0502
A4101400420814520766134TERESITA A. CASTILLO                                     0502
A0101404840851046725013MARY JANE A. DE GUIA                                     0501
A0101404840851527202001CASILAN, MARY GRACE MONTEFALCON                          0501
A0101406750852182713001CATALYST MEDICAL SUPPLY                                  0503
A0101406750852617055001PUA, HERMINIA SALAS                                      0501
A1001400190000000016388VALMORIA, LORENA CORTEZ                                 10501
A0701400260000000041050DELOS SANTOS JR. III, LEOPOLDO                          10503
A2601400270000001009050BATTAD, AURELIO DBU AUB CONSULT                         10501
A3401400280000001723440EDUQUE, JESSIE ECARAN OR EDUQUE                         10501
A0101401250021178978001BAUTISTA, LOLITA DATO OR                                10501
A0101400150061632464002ANGELES, TERESITO AND LADEZA,                           10502
A0101400150061738224001NUBLA, MELVIN SIXTO                                     10502
A0601400100081022019001CLARK HOUSE OF WINE & GEN MDSE.                         10502
A0101402510341744996001SIMEONA SONIA N. BUMONGCAG OR                           10501
A0101405490392173389001RICARDO R. GO OR                                        10505
A1901400160491282845001ARTHUR C MALALUAN OR                                    10501
A2201400250561478374010ZENAIDA L. REYES                                        10501
A0101404420631412995001VERDE, DALISAY OR VERDE, EMERY                          10501
A0101404680651419570001LILIBETH L. IGUICO OR                                   10501
A1301400340683361153001LICAROS JR, ALEJANDRO LAGPAO OR                         10502
A1001400190000000016388or VALMORIA, DIANA APPLE                                20500
A0701400260000000041050PEORO                                                   20500
A2601400270000001009050MGT&ENGINEERING SERVICES                                20500
A3401400280000001723440RUELYN CAPUNONG                                         20500
A0101401250021178978001BERTOL, LIEZL B.                                        20500
A0101400150061632464002AMON AND DAGDAYA                                        20500
A0101400150061738224001OR NUBLA, KAREN                                         20500
A0601400100081022019001BY: CSC                                                 20500
A0101402510341744996001MANUEL C. BUMONGCAG                                     20500
A0101405490392173389001EVELYN  GO                                              20500
A1901400160491282845001IRENE D MALALUAN                                        20500
A2201400250561478374010MEMBERS OF NATASHA                                      20500
A0101404420631412995001OR VERDE, TERESINA                                      20500
A0101404680651419570001ALLAN G. IGUICO                                         20500
A1301400340683361153001LICAROS, ELSA RE                                        20500
B0101402060000000022675REBAC CONST. AND DEV. CORP.                              1602
B0101401670000000178552LA JOYA PROPERTY HOLDINGS, INC.                          1601
B2801400230000000372718RL VERCONS MERCHANTS CORP.                               1605
B0101411820000000477430CONLINS COFFEE WORLD, INC.                               1601
B0101411950000000490880********                                                 1601
B0101403580000000922929KAIZEN E & M CORPORATION                                 1602
B0301400530000001009841********                                                 1602
B0101401250021039247001PHILIPPINE REGISTRY OF INTERPRETERS                      1602
B0101401700041042655001FIRST SCAN PHILS., INC.                                  1602
B0101401700041044263001GIANT MERCANTILE CORPORATION                             1601
B0101400150061016942006ASIA PACIFIC EXPRESS CORPORATION                         1605
B0601400100081251751009TAN, WILFREDO M. OR TAN, MARIANO G.                      1605
B0101406040112016172002LABORATORY EQUIPMENT AND SERVICES,INC.                   1604
B0101407270162019054001BUILDWORKS CONS. CORP.                                   1605
B0101407270162036585002STA. MARIA INDUSTRIAL PARK CORPORATION                   1610
B0301400530193037467168TAGUM SG MARKETING CO.                                   1603
B0301400530193038633008JHG TRADING, INC. - A                                    1610
B0301400530193038633088JHG TRADING, INC. - B                                    1610
B0301400530193041191088BANSUYE TRADING                                          1603
B0301400530193043054001TAGUM CITY COUNCIL OF WOMEN, INC.                        1605
B0301400530193044968008ASIAMOTOR, INC.                                          1610
B0301400530193551574001********                                                 1603
B0301400530193641218168********                                                 1602
B1001400190231015575001*****                                                    1602
B0101406620273212676001**********                                               1601
B0101402510341037808001FAIR ALL MARKETING                                       1602
B0101402060351048004001UNITED DEFENSE MANUFACTURING CORP.                       1604
B0201400760374030466002A.D. GOTHONG MANUFACTURING CORP.                         1604
B0201400920375034419001GONZALODO ENTERPRISES                                    1605
B0201400890376037750001TWIN PEAKS WAXERS CORP.                                  1602
B0101403580511155274001ZOBELLA & CO., INC.                                      1605
B0101403450521011872001**********                                               1601
B0101403450521011977001TRUSTY AUTOMOTIVE PHILS.                                 1602
B0101404680651009964001PINAKAMASARAP  CORPORATION                               1610
B0101411950680046173001*****                                                    1605
B0101411950680046277001********                                                 1605
B0601400100081251905009TAN, WILFREDO OR SALVADOR, ROWENA                       11605
B0601400100081251905010TAN, WILFREDO OR SALVADOR, ROWENA                       11605
B0301400530193551180168LIM, MARK EDUARD G. OR                                  11603
B0101403580511015278001MTV INVESTMENT PROPERTIES HOLDINGS                      11605
B0101403580511017676001SHIMIZU CORPORATION                                     11610
B0601400100081251905009OR SULA, REGINA                                         21600
B0601400100081251905010OR SULA, REGINA                                         21600
B0301400530193551180168LIM, LIZA S.                                            21600
B0101403580511015278001CORPORATION                                             21600
B0101403580511017676001(MANILA OFFICE)                                         21600
B0101400280051821100608**********                                               2005
