B0101402930381008829001AXEIA DEVELOPMENT CORPORATION                            1601
A1601400170000012410803AZOTEA, MARJORIE FRESADO OR                             10501
A1601400170000012410803AZOTEA, WARREN BERMILLO                                 20500
B0101413570656821100608**********                                               2001
B4101400420000009392021SWINELAND INC                                            1601
B0601400100000014930151SANGALANG, MERCADO & CO.                                 1601
A0101410850000005316876RAMOS JR., RODOLFO P. OR                                10501
A0101410850000005316876RAMOS, MA. CARMEN D.C.                                  20500
A4101400420000012882845MANGOTARA, MAISARA ORANGOT                               0503
B4101400420814015551002REGATTA CLASSICS HOMEOWNERS ASSOCIATION                  1601
A0101400860000008319197***********                                              0501
A0101411370000005524301DE LARA, ROBERTO QUIAOIT                                 0501
A0101411370000005524421BATUIGAS, AURORA REBOQUIO                                0501
B0101405810072029570001PLASTIC CONSUMER CORPORATION                             1602
A0601400100000010683884YOUNG, BENJAMIN EARL                                     0501
A0601400100081253555002MENDIOLA, JOSEPHINE ADARVE                               0501
A0601400520000001706792BUNGQUE, ALDRIN CAPILI                                   0502
A0601400520000009516485CRISTOBAL, LUISITO QUIZON                                0502
A0601400520000009516792GONZALES, ELIZABETH BONDOC DBU                          10503
A0601400520000009516792EBG TRADING                                             20500
B0601400520000002085963CANLAPAN, ARNOLD MANGUNE OR CAN                         11605
B0601400520000002085963REBECCA PABALAN                                         21600
A0101410850000011276532VILLANUEVA JR., ARTURO ESGUERRA                          0502
B0101410850000006559864SWIFTFLOW TRUCKERS, INC.                                 1602
A0101410850000006560034SEMANA, JUDE                                            10502
A0101410850000006560034DBU SEMANA TRUCKING                                     20500
A0101400730000005208811CABUAL, EVELYN FERNANDEZ                                 0501
A0101401960000010787563**********                                               0501
A0101401960000006004422***************                                          0501
B0101401830141026671001BRIGGS CONSTRUCTION AND GENERAL SERVICES                11602
B0101401830141026671001COMPANY                                                 21600
A7201400170000014981349LUSAY, SARAH DUHAYLUNGSOD                                0501
A7201400170000014243051CLINT T. MADERAZO OR                                    10501
A7201400170000014243051EDALIE MAY V. MADERAZO                                  20500
A7201400170152060879001RENDON, EDNALYN BACAY DBU                               10502
A7201400170152060879001FRIENDLY MOTORS REPUBLIC                                20500
B0101400440000010744959PORNOBI, RONALD JAVIER DBU IBONROP                      11602
B0101400440000010744959MARKETING                                               21600
A0101400440161186940001MARILOU I. DIVINA                                        0506
A0101401090171598675001LADY ANN B. CUEVAS OR MARVIN                            10501
A0101401090171598675001GAYE P. ABRIGO                                          20500
B0301400530000003573528RD PAWNSHOP, INC.                                        1605
A0301400530000003573426ASNE, BEDASTO DBU NL BAKERY                              0503
B0301400660000011140200**********                                               1601
A0101401380000001820002********                                                 0505
A0101413600000012980560HENRY S. PALANCA                                         0501
A3101400450000001149291BALDOVINO, ISABEL VALDOPENA                              0502
A3101400450000002092980MAGHIRANG, SEVERINO A. OR                               10501
A3101400450000002092980MAGHIRANG, JEANNE A.                                    20500
A1001400190231478374086LORNA A. OMANDAM                                         0501
B1301400760000001295552DIAMOND GRAIN AGRICULTURAL TRADE                         1602
B1901400290261038595002B & V TRADING                                            1605
B0101401670000000178552LA JOYA PROPERTY HOLDINGS, INC.                          1602
A0101401670000013222398DATUMULOK, ABDULLAH DIMAPORO                             0503
B0101406460272047405001ACEBUCHE, E DBU EL ACEBUCHE BUI                          1605
A0101406620000012950857REYES, RALPH TOBIAS                                      0502
A0101411820000000023963MERLITO JOHN DE JESUS LORENZO                            0502
A0101400570281344782001LYDE ALDAY-MAGPANTAY, M.D.                               0501
A0501400200000001000131DE MESA, JOSEFINA PASCUA OR                             10502
A0501400200000001000131DE MESA III,SERGIO V.                                   20500
B0501400200000006444868LIS INVESTMENT CORPORATION                               1605
B0501400200000006444824C SQUARED PRIME COMMODITIES CORPORATION                  1602
B2601400270302821200608**********                                               2002
B0801400160311494221001JUCABAN, LEO LAGOS                                       1601
A1101400120000001920667CAMENFORTE, NEIL M. OR                                  10501
A1101400120000001920667CAMENFORTE, ELKE                                        20500
A2001400290000000978269UYMATIAO, CATHLEEN AMIL                                  0501
A0101402350000014043960ZIALCITA, CONCEPCION CASTRO                              0501
A0101405650000000448231**********                                               0502
A0101405650000002325582AVILA, EVELYN GAMORAS                                    0501
B0101405650000000772798PDBTECH ENTERPRISE INC.                                  1601
A0101405650322174596002VIRAY, MELINDA A.                                        0505
A0101402510000011630470MEDRANO, ZENITH ANN PRESENTACIO                          0501
A0101402510000002346692*****                                                    0501
A0101402510341353926001ROLANDO G. GALAO OR                                     10506
A0101402510341353926001RUE B. GALAO                                            20500
A0101402060351217441008RENATO R. ERMITA                                         0503
A0101409050000012249484EMPLOYEES OF, DELL INTERNATIONA                          0501
A0201400760374705541001FELICEN, CARLITO                                         0501
A0201400890000007668515CUABO JR, RAMON ABRACIA                                  0501
A0201400890376530551001GAISANO, GLORIA CHAN                                     0501
A0201400890376545727001********                                                 0501
B0101402930000003269403PETRA CEMENT INC.                                        1601
A0101411660000004845290ABAN, CARLO MIGUEL SANTOS                                0501
B0101402770391009809002MITSUBISHI MOTORS PHILS. SALARIED                       11601
B0101402770391009809002EMPLOYEES UNION                                         21600
B0101408400394032168001ALQUIROS FOOD CORPORATION                                1602
A0101409180397696150001MARINO, SALVY OR MARINO, HECTOR                         10501
A0101409180397696150001OR NAVOA, NANETT                                        20500
A0101409210000002279018AGONCILLO, CONSUELO FLORES                               0502
B0101412210000003881210SWELL STUFF INTERNATIONAL TRADING                       11601
B0101412210000003881210CORPORATION                                             21600
A0301400820000008995599SUMAGIT, DANILO S.                                       0502
A0301400820000010907332PERIA, MARITES S.                                        0501
B2401400180411036168088TSP MARINE INDUSTRIES                                    1605
A2401400180000012748562JUVINREY TRADERS                                         0501
A2401400180411478374020MORI, LYDIA                                              0502
A0101403030000014982137TAN, RYAN ANTHONY LIM                                    0501
A0101403030000011253886********                                                 0502
B0101403030441359631001**********                                               1601
A0101403320000009740401MACALPANG, SANAIRAH CAWASA                               0505
B0101403320471027104001ZENITH FOOTWEAR, INC.                                    1605
A0101410140000001939933FERRER, J DBU AJ1201 TREAD                              10503
A0101410140000001939933ENTERPRISES                                             20500
A1901400160491055562001DRA. DULCE TERESA M. PLATON                              0501
A1401400110000005181146DIASANTA, IVAN VILLAMAYOR                                0502
A1401400110000010622561RIOLA, SIXTO DADIA OR                                   10502
A1401400110000010622561RIOLA, MARISSA                                          20500
A1601400170000001069090MARY NATHALIE P. MONTES                                  0502
A1601400170000001069169EVARDONE, ANA ELENITA B.OR                              10501
A1601400170000001069169BARISO, TERESITA                                        20500
B1601400170494047923001PRIMEVIEW REALTY INC.                                    1601
A0701400260000000040962CASTANEDA, NENEBETH ESMERALDA                           10502
A0701400260000000040962OR CASTANEDA, ROBERTO                                   20500
A0701400260000000041005KALAW, REYNALDO ORTEGA                                   0501
B0101407430000011167592COMMODORE TRANSPORT SERVICES                             1601
A0101405940000003121762CONSUNJI, JORGE ALMEDA                                   0501
B010141179051805692200188 INFINITY LENDING POOL INC                             1602
A0101403450521572135001***********                                              0502
A0101403450521679548001**********                                               0502
B2201400250000007122909PORNOBI, RONALD JAVIER DBU RJ PORNOBI                   11602
B2201400250000007122909REALTY                                                  21600
B0101404130601100161001PRUDENTIAL CUSTOMS BROKERAGE SERVICES,                  11610
B0101404130601100161001INC.                                                    21600
A0101407720000004664028BALCE, RIZALDY EBE                                       0501
A0101407720602376695001REINALDO GONZALES OR NANCY                              10501
A0101407720602376695001GONZALES OR NORA GONZALES                               20500
A0101412180000014979829HALAMANI JR., WILMOR CASTRO                              0501
A0101409920000006336810TUGANO JR., ROMEO CABALLERO                              0501
A0101409920000011312813MERCADO, EMIGDIO LEDESMA                                 0501
A0101409920000014278885PASCUAL, RAMON GOPEZ                                     0502
A0101407690000000587800*****                                                    0501
A0101407690652517989001FLORANO, GUILBERTO COYOG                                 0501
B0101411530000006217596VG PINEDA CONSTRUCTION CORPORATION                       1604
A0101413570000005867383SALIC, ENSANA DBU JAM-ENS                               10501
A0101413570000005867383GENERAL MERCHANDISE JT.                                 20500
B1301400340000009310441HOMMSS TRADING CORPORATION                               1605
A1301400340683542735002BIUNAS, REMEDIOS GREGORIO                                0502
A0101408240000010639455ABUCAR, MICHELLE BONGON                                  0501
B0101408240711025180001THE LINDEN TREE INSTITUTE INC.                           1605
B0101408240711025397001KINGSMEN CORPORATION                                     1605
A2801400100000000004720REYES, MYRA DBU MRC DENTAL                              10501
A2801400100000000004720CLINIC                                                  20500
A2801400230000009022111PALMA, LESLIE ANN BAUTISTA                               0501
A4101400260812616831001FLORA S. CAMO                                            0501
A4101400390000000975173NOAH'S ARK MANPOWER SERVICES                             0505
B4101400390000003346187PAGASA PHILIPPINES LENDING COMPANY                       1603
A4101400420000006969860SANTOCILDES, ARIANNE FAE TARDAG                          0501
A4101400420000012882867NELLIE B. CARAIG                                         0502
A0101404840000013645724CARREON, NESRAIM CUNETA AND                             10504
A0101404840000013645724CARREON, KEVIN C                                        20500
A0101404840000002327846LADRERA, CONCHITA MENDOZA                                0501
A0101404840851520766176RODOLFO ESTUYE JR.                                       0501
A0101406750000014212276NADAL, JOHN RUIZ F OR DIAZ,                             10501
A0101406750000014212276EDD DARREN P                                            20500
