A2801400100000000004720REYES, MYRA DBU MRC DENTAL CLIN                          0501
A0101412180000000037950********                                                 0501
A1301400340000000100374PRADO, ERLINDA SORIENTE                                  0501
A0101404680000000120247ELVIRA N. LUNA                                           0501
A1901400290000000135093MARITES LIM SANCHEZ                                      0502
A1301400500000000213378GONZALES, JEAN NICOLAS                                   0501
A0101404840000000232857MELANIA M TENDERO                                        0501
A0101408240000000347493COLLANTES, MA. CORAZON TARNATE                           0501
A0101408820000000408780********                                                 0501
A0601400230000000452851SAMBILE, NOEL REYES                                      0501
A0101411790000000469621BUSTAMANTE, JOSE MARI KARLO P.                           0501
A0101403320000000735773ROSALIE FAUSTINO                                         0501
A0101403320000000735853AQUILIZAN JR., ERNESTO CABATE                            0501
A0101405650000000772992BALUBAR, TEODORA VILLEGAS                                0501
A0101400150000000807830MOJANA JR., ABRAHAM AGUILAR                              0501
A3001400130000000931260BONGATO, MARCELY ABRIGANA                                0501
A4101400260000000974089BONGLO, JAIMIE LOUISE MIGUEL                             0501
A0101412340000001017861DERECHO, VIRGINIA ALCONERA                               0501
A0501400170000001072702RAFANAN, SAL DBU RAFANAN TRKNG                           0501
A5501400120000001122030TAKAHASHI, EDGAR FLORES                                  0502
A4101400550000001332461GONZALES, CARLOS CATALLA                                 0501
A0101411820000001356430FRANCIS S. LIM                                           0501
A0101404260000001725559IBE, MYRNA CONCEPCION                                    0501
A0101413860000001886844PERLAS, KENNETH MASALUNGA                                0501
A0101413860000001886866AMIRIL, AMILBAHAL HASSAN                                 0501
A5501400120000002018935FALCIS, MARK ANTHONY PARIAN                              0501
A0101401670000002341635ARSAGA, MARLON ALAMIS                                    0503
A1001400480000002659783REFUGIO, SOFRONIO RETUTAS                                0502
A0101400150061226387002**********                                               0502
A0101400150061230957005ZABALETA, JOSE MARIA TARAGABULL                          0505
A0101401090171362910001ESTRELLA S. MAJUELO                                      0501
A0101407140213190363001**********                                               0503
A1001400190231478374109BONGCALES, JOYCE G.                                      0501
A1901400290261366172001MYLA VIVAS GONZALES                                      0501
A0101401670271304199001OLIVIA B. PABLO                                          0501
A1101400120313478374004ALBESA, JONALYN D.                                       0501
A0101402510341199103002********                                                 0502
A0101402510341487199001NESTOR B. ESTABILLO                                      0501
A0201400760374514049001CHUA, EDDIE TING                                         0502
A0201401020377669152001LEE, MI JUNG                                             0503
A0101408370382376113001ERLINDA C. ORACION M.D.                                  0501
A0101408400394650469001SALAMANCA, JOSEPHINE MOJICA                              0501
A1201400150421478374014PERIDO, MARY JANE                                        0502
A0501400170481256189003SORIANO, JOSEPH ROQUE                                    0501
A0101408530516571877191JON ANTHONY AGUIRE                                       0502
A0101403450521238554001********                                                 0501
A0101403450521240346001**********                                               0502
A0101404000551188147001LIBORO, FRANCISCO MIRAFLORES                             0503
A0101407720602326333001SATURNINO PEREZ JAVIER                                   0502
A0101407720602397448001GUERRERO, CARMENCITA GISBERT                             0503
A0101404260611453447001HERMOSO, JOSEPHINE AQUINO                                0501
A0101404260611478374075VIVENCIA HATOL                                           0501
A0101404260611484749002BAHALA, AURELIA MANINANG                                 0505
A0101404260611635256001ABELLA, EDUARDO JUAN FAUSTINO                            0504
A0101404420631325081001PASCUAL, SALOME HERNANDEZ                                0501
A0101406590662622920002CANDO, LOURDES NER                                       0505
A1301400500684777122001VALERA, LORETO HINLO                                     0502
A4101400260812244954001REYNANTE J. ESTOCADO                                     0502
A4101400260812666303001SALAZAR, EMERLANDO DE GUIA                               0501
A0101404840851040206001RZB PROPERTY MANAGEMENT                                  0502
A0101404840851520766163JOCELYN ANONUEVO                                         0501
A1001400350000000017865PATRICIO, RITZMO DBU RITZ CAR                           10502
A0101413860000000145008GALICIA, MARY ANN GONZALES JT                           10501
A0101411370000000903571URBAN FONTS ADVERTISING                                 10503
A0101401700041188748001WILLIAM C. TING TAN OR                                  10501
A0601400360083047383001SURE HIRE EMPLOYMENT                                    10504
A1901400290261244344001AVELINA B DE GUZMAN OR                                  10502
A1901400290261247727001LEVITA LINATOC RAGO OR                                  10502
A0101405650322795081001VICENTE OR TERESITA VALDEZ OR                           10501
A0201400760374625336002REYES, BAYANI CARLOS OR REYES,                          10501
A0901400220432093658001LYDIA L. RAMIREZ OR                                     10503
A1901400160491392399001DANTE V DIMAANDAL OR                                    10505
A0101407720602283353001ERWIN HERNANDEZ OR                                      10501
A0101407560686173817003ROBERT BUNALES OR                                       10502
A0101407560686321128001MAILEEN DELA CRUZ OR                                    10502
A0101408240711546479001TIBURCIO, NOEL OR MARIA ALYN                            10501
A1001400350000000017865SALES                                                   20500
A0101413860000000145008DAVID, ERLINDA                                          20500
A0101411370000000903571SERVICES                                                20500
A0101401700041188748001HELEN O. TAN                                            20500
A0601400360083047383001SERVICES, INC.                                          20500
A1901400290261244344001BENJAMIN D DE GUZMAN                                    20500
A1901400290261247727001RODEL TACLA LINATOC                                     20500
A0101405650322795081001VALDEZ JR., VICENTE                                     20500
A0201400760374625336002VIRGINIA ALMEDA                                         20500
A0901400220432093658001MARIA LEILANI R. YEO                                    20500
A1901400160491392399001DIONISIA R DIMAANDAL                                    20500
A0101407720602283353001AGNES HERNANDEZ                                         20500
A0101407560686173817003ARLENE BUNALES                                          20500
A0101407560686321128001ROMEO DELA CRUZ                                         20500
A0101408240711546479001OR NOMER                                                20500
B0101410560000000757233PHARMACOPOEIA CORP.                                      1603
B0101413020000001175406DIGIFLASH CONCEPT CO.                                    1601
B0201400760000001612857FAIRLANE AUTOMOTIVE VENTURES, INC.                       1602
B0101407270162019028001PHILIPPINE RECYCLERS, INCORPORATED                       1602
B0101407270162040845001RDJ INDUSTRIAL SUPPLY, INC.                              1601
B0101407140213029078001*************                                            1602
B1301400470252047582001FREEWAY MOTOR SALES OF CABANATUAN                        1602
B1901400290261033214002RD CASH PADALA, INC.                                     1603
B0101405650322020426005LEISURE FARMS TAGAYTAY, INC.                             1605
B0101405650322024999001SUPERIOR MAINTENANCE SERVICES, INC.                      1630
B0101405650322042919001BSU CARGO SYSTEM INC.                                    1601
B0101408820333022171001FABRICATOR PHILS. INC                                    1601
B0101402510341027740001ENTER INTERNATIONAL PHILIPPINES, INC.                    1603
B0101402640361043708001DSS EMPLOYEES' MULTI-PURPOSE COOPERATIVE                 1602
B02014007603740286120018990 HOUSING DEVELOPMENT CORPORATION                     1601
B0201400760374452730001C & L INTERNATIONAL PACKAGING CORP.                      1610
B0101403450521011852001CHT CAPITAL RESOURCES INC.                               1602
B0101407560686006475001CUSTOM PLASTICS INC.                                     1605
B0101408240711036055002GEMPHIL ELECTRONICS ASSEMBLIES, INC                      1601
B0101401090171037028001MENDOZA & DEL MUNDO JANITORIAL                          11602
B1901400290261040049001GROWTH & INTELLECTUAL NOURISHMENT LEARN-                11601
B0101401090171037028001SERVICES                                                21600
B1901400290261040049001ING CENTER, INC.                                        21600
