A2401400180000016217253DAMALERIO, JULIETA PALOSO                                0502
A0101404840851520766063LORELIE P. DALIGDIG                                      0501
A0101412500000003289992******                                                   0501
A1901400290000011353643NESSIE RENA PAGCALIWAGAN                                 0501
A0101415350000010052072CANDO, HELEN JOYCE P.                                    0503
A0101412890000007095287JOSEPH A ALZATE                                          0510
A0101413860000006219547PIZARRO, KRISTEL MAE CO                                  0501
A0101400860000010390768MAGTIBAY, VINCENT VILLAMIN                               0501
A0101400860011379561003**********                                               0502
A0101400860011397182002**********                                               0503
A0101411370000005524501TUAZON, LYOANNA ABRIL                                    0501
B0101400150061010779001DIAMOND STAR AGRO PRODUCTS, INC.                         1610
A0101400150000008307248YUZON, NIDA VALENCIA DBU EWI WI                          0501
B0101400150061226909001STARS TRAVEL, INC.                                       1602
A0101400150000000807545GO, CLEMENT TAN                                          0501
A0101400150061329718001ZABALETA JR., JOSE MARIA PONS                           10502
A0101400150061329718001OR ZABALETA, JOS                                        20500
A0101400150061663651001VERA CRUZ, MARIE GRACE TEE                               0502
B0101400600071516450001********                                                 1601
B0601400100081296256001CHRISTOPHER OR LOYA MALLARI FAO CHRISSAN                11603
B0601400100081296256001AUTO SUPPLY                                             21600
B0601400360000000978936THE MEDICAL CITY CLARK, INC.                             1620
B0601400360000008477261SABELLON, JACKIELYN CAINGAT DBU KITCHEN                 11601
B0601400360000008477261LOVERS                                                  21600
B0101413730000001568516***                                                      1601
B0101410560000008979457PETS ALL YOU CAN MARKETING                               1601
B0101400730000002102334RAMON M. CARREDO AND NILO P. MISAGAL                     1601
A0101400730111751676001ALFUERTO, VIOLETA DEPILO OR                             10502
A0101400730111751676001ALFUERTO, ABNER                                         20500
A0101406040000007842660********                                                 0520
B0101401960121238699002SO, PONCIANO CHUA                JT                      1601
A0101401960121358563001SIOCO, MARY JANE SORIANO                                 0505
B0101401830000016197605PALACOL, MELANIE R DBU AMCBII ASPHALT                   11601
B0101401830000016197605TRADING AND SERV                                        21600
A7201400170000007185842SARMIENTO, MARY JOAN BRANZUELA                           0505
B5001400170000005705255HUANG, PATRICIA DY OR HUANG, WAN NING OR                11610
B5001400170000005705255PULVERA, MIA H.                                         21600
A0101412920000005354467LEE, MARIA RICHELLE MALATE                               0501
A0101412920000015383094GALINATO, JOVINA OBAR                                    0501
A0101407270000008185622PAYUMO, MARY GRACE LIGON                                10501
A0101407270000008185622OR PAYUMO, TARA                                         20500
B0101407270000007747079STERN REAL ESTATE AND DEVELOPMENT C                      1602
A0101401090000016316517TAN, MICHAEL ALFRED VELASCO                              0501
A0101401090000016316404LAT, ALEXANDER BENEDICT DE LEON                         10501
A0101401090000016316404OR SANCHEZ, JOSEFINO I.                                 20500
A0101401090171195891002JIMMY DV PAYOT                                           0501
A0301400530000003573379CABALLERO, SORAYA MIGUEL OR                             10504
A0301400530000003573379CABALLERO, JOEMA                                        20500
B0301400530193024226001DAVAO METRO SHUTTLE CORPORATION                          1602
A0301400790000011509732ELISEO JR., BENJAMIN CASTILLO                            0502
B0301400790000002301342MONTEVERDE II, GEORGE MENDEZ DBU GV & HH                11601
B0301400790000002301342MARKETING                                               21600
A0301400950000000566683CARISSA ANNE C. DELOS SANTOS                             0503
A0301400950000008869032HUTALLE, RONILA JABONERO                                 0502
A0101401380000010190502********                                                 0501
A0101410720653412394001ALGO, GEMMA MONTALES                                     0502
A0101410720000006239869******                                                   0506
A0101412500000016308291WU, PHILIP LIM OR WU, MARK                              10501
A0101412500000016308291PHILIP UY                                               20500
A3101400450000005960392ESEO, GUIA BUENAVENTURA OR                              10501
A3101400450000005960392BUENAVENTURA, SOFIA                                     20500
B3001400130000006004671UHLAND LOANS CORPORATION                                 1602
A3001400130230478374029FERNANDEZ, MARIA MORINA PEROY                            0501
B1001400190231035648001ORO B AND W CORPORATION                                  1610
B1001400350233032957001PCCI FINANCE CORPORATION                                 1601
A1001400350233777505001CESAR, NEMAS ACERA                                       0501
A1001400480000014023831CADAMPOG, ELEANOR MAGALLANES                             0501
A1001400480000014024061VALLEJOS, ROMMEL BALANCAR OR                            10505
A1001400480000014024061OLALO, ALOHA NIE MAGTO                                  20500
A0101401670000000237603BELEN, PAULO ENRICO PAGDANGANAN                          0502
A0101406620000010983221LEE, LOURDES LIM OR LEE, MARIE                          10503
A0101406620000010983221JOSEPHINE LIM                                           20500
A0101406620273483517001BUENAVENTURA, ROWENA PULGA                               0501
B0101410980000003479505MULTIPRINT SCREENPRINTING SUPPLY IN                      1601
A0101411820000008442831GENALINE ESPIRITU CRUZ                                   0501
B0101411820000010701241ITECH COMPUTER SYSTEM CO.                                1601
B0101411820000000024142HARDCOM COMPUTER SYSTEM CO.                              1601
A0101400570281688590001TEJADA, MELANIE TORRES                                   0501
A2601400270000012506233JERRY GALOPE                                             0501
B2601400270000005301739GAUDIOSO JR OR EMILIA OR JENNIFER OR FER                11605
B2601400270000005301739DINAND TALAVERA                                         21600
B0801400160000001290011*************                                            1605
A2001400290000009721804BUENAFLOR, MILDRED ELEMIA                                0501
B2001400290000002406680HDTS TRANSPORT & CARGO INC.                              1601
A2901400130000009072128NAGTALON, DONNA DELA CRUZ                                0503
A0101405650000000080071JORDUELA, NOBY BAUTISTA                                  0501
B0101405650322025100001GLOBAL PACKAGING SYSTEMS AND MATERIALS                  11601
B0101405650322025100001CORP.                                                   21600
A0101405650322170933001VERGARA, MICHAEL ANGELO B.                               0501
A0101402060000015399025MAMARIL, NICK CACHO                                      0502
B0101402060351022301001TSUCHIYA KOGYO PHILS., INC.                              1602
A0201400760374573867001CELERINOS, MARIA FE ALMOCERA                             0501
A0201400920000007951731IMELDA D. ESTOCADO                                       0501
A0201400890000015611873DR. CHARLES P. SIA OR CHRISTY                           10501
A0201400890000015611873ANNE E. SIA                                             20500
B0201400890000007877385**********                                               1603
A0201400890376080642001GALANG, LORLIE PACURIBOT OR                             10505
A0201400890376080642001GALANG, GLENN AN                                        20500
B0201401020000010966831ASIA PACIFIC EXPRESS CORPORATION                         1605
A0101402930000000859758CELFO, R DBU R.F. CELFO                                 10501
A0101402930000000859758FINANCIAL CONSULTANCY                                   20500
A0101402930381206550002MARIETTA A. PANALIGAN                                    0502
A0101408370382411639001DR. CONSTANTINO CASTILLO III                             0503
A0101408370382433161001DR. ANTHONY MARC B. ANCHETA OR                          10503
A0101408370382433161001DR. CELINA Z. ANCHETA                                   20500
A0101408790000013824512SARDILLO, MARIA BERNADETTE                              10501
A0101408790000013824512VILLANUEVA                                              20500
A0101402770000001571364JOSE E. ZAULDA JR.                                       0501
A0101402770391617226001FERNANDEZ, FE AUSEJO OR                                 10501
A0101402770391617226001FERNANDEZ, ETHELWOLDO E.                                20500
A0101405490000007362781OREILLY, PETER JOSEPH                                    0502
A0101405490000013753669GLINO, EMALYN MONTES                                     0501
A0101405490000016088136CARBONEL, MINERVA ASOY                                   0503
A0101405490392693267001ADELA C. TABALE                                          0502
A0101408400000007905971DELOS REYES, RYAN JAMES RIMORIN                          0501
B0101408400000003120554GILIGAN'S ISLAND BAGUIO, INC.                            1602
B0101408400394401915003CERVANTES, NENITA FRANCO JT                              1601
A0101409180000005326483ENOPRE, DICK KLYDE APA AP                                0502
A0101409210000003297530ARTHUR POLICARPIO                                        0502
A5501400120000015561118SORMILLO, LIZA ONG                                       0502
B5501400120410654342008SAY, CLETO OR FELING OR HELEN OR DANNY                   1605
A5101400100000011336951VALIENTE, ELVIRA CUIZON                                  0502
B0101403030000005944669**********                                               1602
B0101403320000001647230AMALGAMATED INVESTMENT BANCORP.                          1603
B0101406330000000432619INNOVATI INTERNATIONAL INCORPORATED                      1602
A0101412760000011574673MEMBERS OF NATASHA SHOECAT  INC                          0503
A0501400170000009953906PERALTA, MARCELINA IMELDA SAING                          0501
A3801400170000015727634FRANCISCO, ROLAND LAURESTA                               0501
B3801400170490058867001KATIPUNAN FOODS SERVICES, INC.                           1615
A1401400110492364401001RAFA,RAQUELITA OR RAFA, RENE OR                         10501
A1401400110492364401001RAFA,REI ANTHONY                                        20500
A0701400260000003259363DELA CRUZ, JULIUS ESPINOSA                               0501
A0701400260000009912876SOLA, MA EVA ICARO                                       0501
A0701400260000009912912CACERES, MARIA JOCELYN MORENO                            0501
A0701400260000013603571SOLA, VEA ROMELLE ICARO                                  0501
B0701400260000014694358TIMEZONE LENDING INVESTOR CORP.                          1602
B0101407430503017546001ALL-TO-CUSTOMS BROKERAGE & FREIGHT                      11605
B0101407430503017546001CORPORATION                                             21600
A0101403580000013963772MARIANO, JENNY BEE MARASIGAN                             0501
A0101403580000016315052VILLARIN, KATRINA MA. LOUISE .                           0501
A0101405940000005068333TIOSECO, DAISY MAE CHUA                                  0502
B0101405940512023451001MILKPACT PHILS. INC.                                     1602
B0101408530000001275281THE COVENANT CAR COMPANY, INC.                           1602
A0101408530000000035925CASTRILLO, MILISA CAOIBES                                0503
A0101411790000015835604CATAMORA, MARY GRACE OROZCO                              0501
B0101412050000007801483BUENA RICH COMMISSARY CORPORATION                        1602
B0101403450521011649002**********                                               1601
A0101403610000014268716MA. LUISA B. BATUNGBACAL                                 0501
A0101403610000016193185ESPIRITU, MYLENE TRINIDAD                                0501
B0101403610531044363001RAIN'S PLACE CORPORATION                                 1603
A2201400250000015111041BALENTON, WILLIAM JAE MAGLALANG                         10501
A2201400250000015111041OR DION, JULIE KRYSTIE R.                               20500
A2201400250000001066073JCP AND 3 SONS TRADING CO.                               0502
B0101404130601100161001PRUDENTIAL CUSTOMS BROKERAGE SERVICES,                  11610
B0101404130601100161001INC.                                                    21600
B0101407720602033271001DR. ANTHONY KING & PARTNERS CARDIAC                     11603
B0101407720602033271001RHYTHM SPEC CO.                                         21600
A0101407720602397743001NAZARETH, STEPHEN MAGSINO                                0505
A0101407720602493587001CABUJAT, ROSEMARIE BALIBALOS                             0504
A0101412180000015830790CHUAHIOCK, HOWARD ELDON Q. OR                           10501
A0101412180000015830790CHUAHIOCK, GWENDOLYN JEAN                               20500
B0101404260611035660001BETERAVIA CREDIT CORPORATION                             1604
A0101407690000002348763DALISAY, MA. ELENA GECOMO                                0501
A0101407690000010774473DIEL, AMOR DALAYAP                                       0503
B0101407690000000243843IDESCO CONSTRUCTION AND DEVELOPMENT CORP                 1602
B0101407690000003767891IDESCO CONSTRUCTION AND DEVELOPMENT CORP                 1602
A0101407690652478374131TARROQUIN, NORA - DEALERS OF                            10501
A0101407690652478374131SHOECAT, INC.                                           20500
A0101407690652478374169MEDRAN, ESTELA RAVINA - DEALERS                         10501
A0101407690652478374169OF SHOECAT INC.                                         20500
A0101414120000014550637OLONA, JESUSA SAN MIGUEL                                 0502
B0101414120000000399184CANTILEVER CONSTRUCTION CORPORATION                      1602
A0101414120000007655185NELLCON BUILDERS & CONST.                               10501
A0101414120000007655185SUPPLY                                                  20500
A0101406590000000568758BAUCA, MYRA MEDRANO                                      0501
B0101406590662038794001PRISMODIAL CONSTRUCTION CORPORATION                      1602
B0101406590662042173001NEW ARCOND BUILDERS INCORPORATED                         1602
B0101406590662058753001F.C. DINO CONSTRUCTION                                   1605
A1301400500684594780002CASTRO, RAYMUNDO OR                                     10502
A1301400500684594780002CASTRO, ROSEMARIE                                       20500
A0101408240000010148073YNION, ROMMEL SALVA                                      0504
A0101408240711292762001HERMINA H. TAGAYUN OR                                   10502
A0101408240711292762001CRIS B. TAGAYUN                                         20500
A0101408240711417025001LUPOT, JULIUS CALACAT                                    0504
A2801400100000014169598TUBLE, MA. PRINCESS DBU Q-STAR                           0501
A2801400230000001782130GOLDEN STATE ALUMINUM GLASS &                           10504
A2801400230000001782130GENERAL MERCHAND                                        20500
A4101400260000011417644MORAL II, JOSE AMANDO MALLARI                            0502
A4101400260000010623542FRANCISCO, RICHIE S.                                     0502
A4101400260000000469329FALCUTILA, MARISSA RAMOS                                 0503
A4101400390000015067133RODELIO P. UBANDO                                        0502
A4101400390813245846002DOLORES A. MORALES                                       0501
A4101400420814249077001SOLEDAD D.R. RODRIGUEZ                                   0501
A4101400420814292582001RAMOS, LILIA SARMIENTO                                   0501
A4101400420814478374026FLORENCIA DELA CALZADA                                   0501
A4101400550000014678790BERNAL, MARISSA BERNALTE                                 0501
A0101412340000007305564ELNA O. GALAROZA                                         0501
B0101412340000002879932EUROASIATIC PHILIPPINES INC.                             1601
B0101404840000006365477SOUTH CARE COSMETICS MFG. INC.                           1604
A0101404840000001312736ALVAREZ, MARY ANN A.                                     0501
A0101404840851217637038MA.CORAZON M. MENDOZA                                    0501
A0101405070861478374086MARLYN C. GABEST                                         0502
A0101405070000005619252JOHN IRENEO GONZALES ARRE III                            0504
A0101413860000009392258*********                                                0505
A0601400230000001687090GUTIERREZ, JOSEPH MONTES                                10502
A0601400230000001687090OR GUTIERREZ, MARLENE                                   20500
A0601400230000002649916SINGLE CENTAVO FINANCING CORPOR                          0505
