B0101412920160059095001TORIBIO, EMELY DUAY DBU HIC PRINTING                    11602
B0101412920160059095001SERVICES                                                21600
B0301400790000013292650KAIBIGANG ATENISTA SA DAVAO (KADAV)-ADDU                11601
B0301400790000013292650H.S. '92, INC.                                          21600
B1301400340000006402502********                                                 1603
A0101400860011397772003**********                                               0505
A0101400150000003197784Jessica Jane B. Morales                                  0501
A0101400150000003601061OJEDA, RENEE BACSAL DBU SECTOR                           0503
A0101400150061179137001JAIME C. DEL ROSARIO                                     0506
A0101400150061227183001MA. MELISSA C. SERRANO                                   0501
A0101400150061228995001LORETO L. MERCADO                                        0501
B0101405810072369274002***********                                              1605
A0601400100000006092720DELFINADO, JERRY OFIAZA                                  0502
A0601400100000010024914BOK, JANE DUE DBU MOGORA ASIAN                           0505
B0601400100081034790001SHINMEI CREDIT AND LOANS CORP.                           1601
B0101406040000000096662CONCEPT SPECIALIST, INC.                                 1605
A0101401960000005392474******************                                       0501
A0101401960000006004422***************                                          0501
B0101413310000001928914HONEYCOMB BUILDERS, INC                                  1601
A0101401830000003508632LIM,JOVEN AGUILAR                                        0501
A7201400170000011158200ESPANOLA, ANGELA J. OR                                  10501
A7201400170000011158200ESPANOLA, RENNOR ANDREW C                               20500
A0101412920000008813576TOLENTINO, MYLA LEE                                      0504
A0101412920000011166602ALMADEN, CAROLINA SANTOS                                 0502
B0101412920000015838734PAIL AND SHOVEL INTEGRATED SCHOOL, INC                   1604
A0101400440161478374008MARY FE I. REDONDO                                       0501
A0101400440161520766101FE M. GLODO                                              0501
A0101400440161625470001KRISTINE A. CECILIA                                      0501
A0101400440161667573001EVELYN P. DE ZUNIGA                                      0501
B0101407270000000830551POULTRYMAX OMNIS, INC.                                   1610
A0101401090171195984002PURA RODRIGUEZ-CAISIP M.D.                               0505
A0101401090171196062001DRS. GIL OR ZAIDA GAMILLA                                0506
A0101401090171201345002MA. CECILIA OR RAMIL TIO CUISON                          0502
A0101401090171618288001ANDREA MARIE OR JONNIFER                                10501
A0101401090171618288001MENDOZA                                                 20500
A0301400530000005300190EDANO, ALVIC GANZON                                      0502
A0301400530000000065854PAMAONG, TERESITA                                        0502
B0301400660000008941135ERVY CUSTOMS BROKERAGE                                   1602
A0301400950000010424841***********                                              0504
A0301400950000006080155SANDOVAL, STEPHEN LU                                     0501
A0101412500000015838056GABIETA, GERRICO ALCERA                                  0501
A0101412500000015838290BONTIA, AIRAM ASERET ILAGAN                              0501
B3101400450223018245001PERLA COMPANIA DE SEGUROS, INC.                          1604
A1001400190000008743886BARRON, LORNA ROA                                        0502
A1001400350233478374001JUNIO, ROGELIA A.                                        0501
A1901400290000013720202MARJORIE REYES FELIX                                     0501
A0101401670271186236006CLARITA S. TANG OR MARGRIET S.                          10501
A0101401670271186236006TANG OR HELEN TA                                        20500
A0101401670271197188001STO. DOMINGO, CESAR                                      0504
A0101408660000014998831CHUA, JOAN FALGUERA                                      0501
A0101408660000000373073ROBERTO MONROY OR                                       10501
A0101408660000000373073ANNELLE MONROY                                          20500
A0101400570281361144001ERIC G. IDIESCA                                          0501
A0801400160000002681729MA. FE M. FACTO                                          0505
B6601400120314612845001LOMAGDONG, PETER OR TANG, PATRI                         11603
B6601400120314612845001LOMAGDONG, JOYCE                                        21600
A3401400280318478374006LOVERAS, EMCY DEL ROSARIO                                0510
A0101402350321184585001AGUIPO, ADELA PADILLO                                    0501
A0101402350321584873001*******                                                  0501
B0101402510341023155001**********                                               1605
B0101402510341023155001**********                                               1605
A0101402510341433983003********                                                 0505
B0101409050000015817260PILI, HATTIE EMILIA AND RIEZA, JONATHAN                  1601
B0201400760374499501002PRIMEHOMES DEVELOPMENT CORPORATION                       1601
A0201400920375478374008OLELA, DONATILLA OMELGO                                  0501
A0201401020000003031129DEL PRADO, JOSE VICE DBU DE LAR                          0502
A0101408370000011287193**********                                               0501
A0101408370000010833393MAKALINAW, SARAH REYNOSO                                 0502
A0101408370382042666001TMC DEPARTMENT OF ORTHOPEDICS                            0501
A0101408370382205155003DR. ERWIN B. ALCAZAREN                                   0502
A0101408370000000335584DR. MARIA KAISERIN J.                                   10501
A0101408370000000335584SANTOS-LIPANA                                           20500
A0101408790000005703442SO, CHRISTOPHER BATALLER                                 0501
B0101408790000000599840BETUR, INC.                                              1602
B0101408790000003845761DESIERTO AND DESIERTO LAW FIRM                           1610
B0101411660000012458327B-MIRK ENTERPRISES CORPORATION                           1601
A0101408950000007458913SANTIAGO, MARIA CRISTINA GIRON                           0504
A0101409180397681135001UICHICO, ERNESTO FLORO                                   0501
A0101409210000013276552SORIANO, NICANOR LAZARO                                  0501
A0301400820000007372810GOLIMLIM, MARICHU M.                                     0505
A0301400820000012928877TAN, KRISTINE R. DBU                                    10510
A0301400820000012928877BCCC ENTERPRISES                                        20500
A5501400120000013825599DEDASE JR.,  ALBERTO CABUSLAY D                          0502
B2401400180411276067001GAISANO DADIANGAS, INC.                                  1610
B1201400150421496291001LIQUETE, DOLORES SAGUID OR LIQUETE,                     11601
B1201400150421496291001LEONARDO                                                21600
A1201400150421533137001RULLODA, ELMER BORROMEO                                  0508
A1201400150421635554001JOTIC, ROSALIA TULIO                                     0501
A0101412890000011813040**********                                               0501
B0101412890000000125380CHRIST'S COMMISSION FOUNDATION, INC                      1601
A0101412890470674791001OPINION, SYLVIA P.                                       0501
A0101403320471047588001RHINA JENEPER C. LIBIRAN DBU                            10502
A0101403320471047588001R-GENESIS DRUG STORE                                    20500
A0101403320000000067543ATENDIDO, MANUEL T. JT                                  10502
A0101403320000000067543DBU ATENDIDO REALTY                                     20500
A0101406330472399265001TAN, RAYMOND PO OR                                      10501
A0101406330472399265001TAN, SUSANA CHUA                                        20500
A0101406330472573166001ROSA Z. TIUTING                                          0501
B0501400170000013295940ALEJANDRINO, JAYVEE SOKUA DBU HANDY                      1602
A0501400170481777043001QUINTO III, ALFREDO ARZADON                              0501
A1901400160000014640445ENDAYA, ORLANDO DIAZ                                     0501
A1901400160000015825451ARELLANO, GLORIA EVANGELISTA                             0501
A1601400170000009954487GONZALES, FREITZ LORICA                                  0501
B0101407430503043975001SEAHAWK TRANSPORT, INC.                                  1605
A0101407430503478374012ANALIE YPANTO                                            0501
B0101403580511045732001AMVI DEVELOPMENT CORPORATION                             1602
A0101405940000015826523CIUDAD, JESSMAR DIANE                                    0501
A0101405940000015826727KAMATA, ATSUSHI .                                        0501
A0101405940000015826818REYES, LORELIE PABILONA                                  0501
A0101405940000000505775ROXAS, LINCOLN CHAN                                      0501
A0101408530000000594332PETER NEIL P. SIAROT                                     0501
A0101411790518055815122SAILE, ELIZABETH MIRO                                    0501
B0101411790000007879085E DATA SERVICES PHILS., INC.                             1603
A0101403450000001638075ACUNA, TERESITA CABRERA                                  0505
A0101403450521239193002**********                                               0501
A0101404130601014815176ANSELMA P. MAUL                                          0501
B0101407720000007951797MANILA HOME FURNITURE RENTAL CO. LTD.                    1603
A0101407720602302987001RAMOS, CLAVER PORCIUNCULA                                0501
A0101407720602376703002CONRADO T. CALALANG OR                                  10502
A0101407720602376703002JOCELYN CALALANG                                        20500
A0101407720602472259001CALILONG, LORELEI IRA                                    0501
A0101407690000015835364CUSTODIO, GLORIEBE TAGHAP                                0501
A0101407690000015666023VINLUAN, MA. MARIE SHIELA VINLU                          0501
A0101411530000010702637**********                                               0502
A0101411530000006792352MINDA  GAPUZ  OR  FELMINDA                              10503
A0101411530000006792352PICHAY-SINSUAT                                          20500
A0101413440000002125291VALDEHUEZA, MARILYN ADSUARA                              0501
B1301400210000008173911FTC77 CORPORATION                                        1602
A1301400340000000926870CUERDO, AYA                                              0503
B1301400340683467501001ROBERTO P. BANIGUED                                      1602
A1301400340683542735002BIUNAS, REMEDIOS GREGORIO                                0502
A1701400230000004469701CORPUZ, FLORINA CONDE DBU ST. M                         10503
A1701400230000004469701ARTIN DE PORRES                                         20500
A1701400230000012227342DUQUEZ, MERLINA LAZAGA                                   0501
A0101408240000003501311DUMAWAL, RHODORA LAUS                                    0501
A0101408240000000005181POL CAMACHO SECURITY                                    10502
A0101408240000000005181CONSULTANCY                                             20500
A0101408240711421642001SAYAROT, MAYNARD ENDAYA OR                              10501
A0101408240711421642001SAYAROT, EVANGELINE                                     20500
A4101400260000015832774ARENAZA, MAE ANGIELEE KAE MOSQU                          0501
A4101400260000012857422BAROBARO, JORELYN D.                                     0501
A4101400260000010623673KING, KRISTOPHER A. DBU BROMEDS                          0502
A4101400260812039607027PAULINE PUGAY                                            0502
A4101400390813775566002MARIO C. TUAZON                                          0502
A4101400420000015173823LAUREL, CHRISTOP DBU SPEEDTRACK                         10503
A4101400420000015173823PERFORMANCE CAR ACCESSORI                               20500
A0101412340000003343815MARY GRACE M. IMPERIAL                                   0501
A0101412340000004359882IZUN AISHA M. AL-RASCHID                                 0501
A0101406750852385184001ANCOG, WILFREDO VILLARAMA                                0501
B0101405070000015601000BLUELOGIC SOLUTIONS INC                                  1601
A0101405070861197518001RICARDO G. CHAN OR                                      10503
A0101405070861197518001OLIMPIA C. CHAN                                         20500
