B0101408950396821100608**********                                               2010
A0101414120000006005367NAJOS, ELVIRA ABAO                                       0501
A0301400950000000566694**********                                               0502
A3801400170000005288020MAYETTE LAGUSTAN PINEDA                                  0501
A1601400170000005991951RANOLA, MA TERESA QUE                                    0505
A2201400250000003558149BARTOLOME, VIRGILIO ANCHETA DBU                         10501
A2201400250000003558149SALVATION SECURITY AGENCY                               20500
A0101400860011397772003**********                                               0503
A0101400860011420919001**********                                               0505
A0101401250021178953002TENSUAN, ERNESTO OR NECITAS OR                          10510
A0101401250021178953002EMMANUEL                                                20500
A0101401250021478374014IRENE P. FADULLO                                         0501
B0101400150000000633287STRONGOAK INC.                                           1602
A0101400150000011138337ZAIDE III, RAFAEL LIM                                    0502
B0101400150061024375001ORIX METRO LEASING AND FINANCE CORP                      1601
B0101400150061044904001EXCELMIND TECHNOLOGY HOLDINGS INC.                       1601
B0101400150061045789001GREENCRETE, INC.                                         1601
B0101400150000004703337WILDLEMON INC.                                           1601
B0101400150061081008001DEEP EARTH DRILLERS HOLDINGS, INC.                       1601
A0101400150061236944107VICTOR S. TANKIANG                                       0501
B0101400150061547219001GANESHA VENTURES, INC.                                   1601
A0101400600071684249001******                                                   0503
B0101405810000012676132**********                                               1601
B0101405810072018018001AIMWAY PLASTIC & PRINTING CORP.                          1602
A0101405810072265481001PLAZA, LEONORA LIM                                       0505
B0601400100081021320001MGL AGROTRADE, INC.                                      1601
A0101414090000002282771DAGUM, ROSA VILLENA OR                                  10501
A0101414090000002282771DAGUM, BERNEE ADRIAN V.                                 20500
B0101400730111042348001SBJ MARIKINA SHOE EXCHANGE CORP.                         1602
A0101406040000004587635********                                                 0501
A0101406040000003332910******                                                   0501
A0101412630000000045321*********                                                0501
A0101407270000001596810CHARL LESTER E. QUIJANO                                  0504
B0101407270162041339001PRIMERA PHARMA CORP.                                     1605
A0101407270162047643001PORTS UNIFIED CARGO SOLUTIONS                            0502
B0101401090171036158001AIRBORNE MAINTENANCE AND ALLIED                         11602
B0101401090171036158001SERVICES INC.                                           21600
A0101401090171196120003MERCY LEE-JATICO OR                                     10501
A0101401090171196120003MATTHEW STEPHEN                                         20500
A0301400530000002318561VILLANUEVA, FEDERICO MAGPAYO OR                         10501
A0301400530000002318561VILLANUEVA, MARI                                        20500
A0301400660000000194643MANILA, MARIA ZENAIDA ARFAPO                             0501
A0301400660194734141001ALCEBAR, JONATHAN PANTINOPLE                             0505
B0301400950000002252006JROG MARKETING                                           1605
B0101401380201041802001D'GLACIERS' MGM INC. - MAC                               1602
A0101401380000001412457RUBIANO, NICOLE C. DBU                                  10502
A0101401380000001412457NCR DENTAL CLINI                                        20500
B0101410720210045834002GRACE GOSPEL CHURCH NORTH INC.                           1601
A0101410720653409732001ATIENZA, OLIVA MAILA ANYAYAHAN                           0501
A3101400160000002761953PUA, JENI MAUNAHAN                                       0503
A3101400450000012693404SOLIQUIO, DULCIE ARESTADO                                0501
A3101400740000009966432DANAO, KATHERINE N.OR DANAO,                            10501
A3101400740000009966432MARK ANTHONY B.                                         20500
A3101400870000008979680SERRANO, JOSE KRISTOPHER GUIRUE                          0501
A3101400870000000957655BITHAO, C DBU BP-1 CAR AUDIO                            10502
A3101400870000000957655AND ACCESSORIES                                         20500
A3101400870225057143001CUETO, L DBU LSC FOOD SERVICES                           0501
B3001400130230043534001BERRY HAPPY MART INC.                                    1606
A3001400130230094974001BRAVO, ROSEPT EBARLE OR BRAVO,                          10504
A3001400130230094974001ALEXA ROSE EBARLE                                       20500
A3001400130000008264795SERONAY, PERLA B.                                        0501
A3001400130230691834001ANDAYA, JOSEPH OMAR O. OR                               10502
A3001400130230691834001ANDAYA, ASTRID M                                        20500
A3001400130230697960001FERRER, ODELIO YU                                        0501
B1001400480000008501871SARMIENTO, VINCENT FLORES DBU SNDC                       1601
A1301400760000005379393ANTIMANO, ALVIN CORNELIO OR                             10502
A1301400760000005379393ANTIMANO, ELEONOR                                       20500
B0101401670000000739219HYDRO-TECH ENVIRONMENTAL MGT. INC.                       1603
B0101401670271191081001EAGLECOR, INC.                                           1605
A0101401670271794897001SIAN, VENERANDA PEDRALVEZ                                0501
B0101406620273026526002LAW FIRM OF KALAW SY VIDA SELVA &                       11601
B0101406620273026526002CAMPOS                                                  21600
B0101406620273029633001VANTAGE EQUITIES, INC.                                   1602
A0101406620273477709002LUCERO JR., JUANITO ARIEL RUFON                          0502
A0101408660000006296871BUYCO, GEDEON ERLO LUCASAN                               0502
A0101408660000005263838FABELLA, AUGUSTO KATIGBAK                                0501
A0101411110000002319980********                                                 0501
A0101411110000002320029********                                                 0501
A0101411820000002328612RIOJA, DAISY GO                                          0501
A0101411820000004981773ABAYGAR, MA. CARMELA LIPA                                0501
A0801400160000011336382CAMARISTA, RONILO CALAMPINAY                             0503
B0801400160000001289910ALLI RESOURCE DEVELOPMENT CORPORATI                      1601
A0801400160000000476299*********                                                0503
B6601400120314612847001CHEN, CHAO CHONG OR CHEN, VALERIA                        1601
A6601400120314615888088FRANCISCO, EMMA OR REYNALDO                             10504
A6601400120314615888088OR CO, ESTELITA                                         20500
B2001400290315688888001**********                                               1610
B0101402350321020540001UMEREZ PROPERTIES                                        1603
A0101402350321495228001JOSE, CARMEN POBLETE                                     0501
A0101402510341068838001*********                                                0503
A0101402510341622026001ALER III, DIOSDADO MARTINEZ                              0501
B0101402060351027951001STA. ROSA DE LIMA PARISH-VALLE VERDE 2                  11602
B0101402060351027951001MINI PASTORAL                                           21600
B0101402060351046908001ORGANITEC LABORATORIES & SYSTEMS, INC.                   1602
A0101402060351217441018JOSEPH PAUL J. JAURIGUE                                  0501
A0101402060351751583001PULINTAN, ARSENIO CATAYLO                                0501
A0201400760000002047296HEIDSCHOTTER, CARRIE                                     0501
A0201400760000009466180BATESON, JARMIE ALTHEA ALTOBAR                           0501
A0201401020000000470193LOUIE PENA'S TRAVEL TOURS & EVE                          0503
B0101402930381046614001PINOYGOLFER MEDIA INC.                                   1601
A0101402930000000859747LIM, EDWARD PANTILO                                      0501
B0101402930381516506001I-ASIATIC INNOVATIONS PHILS., INC.                       1602
A0101402930381658198001MORENO, ABEGAIL VASQUEZ                                  0501
A0101408370382445476001JULIUS A. ALBARILLO                                      0501
A0101408790000012702351TULIAO, DANICA PAULA TAYLAN                              0501
A0101402770391217498025REYNOLD G. MAULIT                                        0502
A0101405490000000126463LORNA V. TUGADE                                          0502
A0101408400394532322001LEANO, NEONITA ANCHETA                                   0501
A0101408950000003171202LIM, CHAUNCEY KESTER LAO                                 0502
B0101408950000004428671FWD LIFE INSURANCE CORPORATION                           1610
B0101408950000008364494GLOBAL CITY CAR LEASE & TRANSPORT CORP.                  1603
A0101408950396567591001DR. DANILO V. CONSTANTINO II                             0501
B01014092100000000313186-24 PROPERTY HOLDINGS, INC.                             1610
B01014092100000027833516-24 PROPERTY HOLDINGS, INC.                             1610
A0101412210000005302812QUEVENCO, MIRIAM CECILIA                                10502
A0101412210000005302812MAGBANUA                                                20500
B5501400120000002019125GARCIA, JOSIE JAVELLANA                                  1602
A5501400120410616229001ESCANO, CLAIRE BASAN                                     0505
B5501400120410685505008THAIRAPEUTIC, CORPORATION                                1603
A5501400120410729506001JOSOL, ARLIEN BACON                                      0501
A2401400180411478374020MORI, LYDIA                                              0502
A1201400150000000473169DE VERA, JEANNIE ANN DELA CRUZ                           0501
A1201400150421252666003MENESES, ANGELITA DE GUZMAN                              0503
B0901400220432750068001**********                                               1602
A0101403320471432699001PONTINES, AVENIDO C.                                     0503
B0101406330472021511001ASSOCIATED WIRE CORP. OF THE PHILS.                      1610
B0101406330472021511001ASSOCIATED WIRE CORP. OF THE PHILS.                      1610
B0101406330000000432900GLOBE MARITIME TRAINING CENTER                          11603
B0101406330000000432900- MANILA - INC.                                         21600
A0101410140000007294780ENCOMIENDA, MARIA ANGELICA MATE                          0501
A0101410140000001939933FERRER, J DBU AJ1201 TREAD                              10501
A0101410140000001939933ENTERPRISES                                             20500
A0101410140475478374010PELAEZ, BEATRIZ GUEVARRA                                 0501
B0501400170481018109002CSI WAREHOUSE CLUB INC.                                  1602
B0101407430000004491743LACERTA SHIPPING AGENCIES PHILS. IN                      1602
A0101407430503521967001MARY GRACE B. PALINES                                    0501
A0101407430000004687538TEMPLANZA, MARILOU FERIA                                 0501
A0101403580511327851001MARIETA G. DEL ROSARIO                                   0501
B0101403580511709173001RAM FOOD PRODUCTS EXPORT, INC.                           1601
B0101403450521038981001***********                                              1601
A0101403610000007106583DAMOT, LEONILA KATIGBAK                                  0501
A0101403610000001450817TULAY, RACHEL ABOGADO                                    0501
A2201400250000006736218BALOT, FLORENCIA CATACUTAN DBU                          10501
A2201400250000006736218SAN FRANCISCO REALTY                                    20500
A0101410690000000001805MAGNO, JANUARY BARBOSA                                   0502
A0101404130601345507001ADRIATICO, ULYSSES CORPUS                                0501
A0101407720000004657570BONGCO, PETER PAUL MANALO                                0502
A0101407720602165558001PAGTANAC-PAGUNTALAN, ROSARIO                             0503
A0101407720602271723138SIERRA ROMA HERNANDEZ                                    0502
A0101407720000003099176PENARANDA JR., ELADIO MIGUEL                             0501
A0101407720602398875001OFELIA E. ACLIPEN OR FRANCIS                            10502
A0101407720602398875001S. ACLIPEN JR.                                          20500
A0101412180000003275483ECHEVARRIA, MARILYN REYES                                0504
B0101404260000012711498REBEL MANILA BRAND MARKETING SERVICES IN                 1601
A0101404260611042970001PRIMELAB-PRIMEPOWER LABORATORY                          10505
A0101404260611042970001MEDICAL CLINIC                                          20500
B0101404260611047841001PR GAZ, INC.                                             1605
A0101404260611154350002TEODOSIO, SOL MELANIA PASTRANA                           0502
B0101404260000004781244********                                                 1601
A0101404260000003498408AREVALO, MA. JORLYN                                      0501
B0101413440000002691581DON TINO REALTY AND DEVELOPMENT COR                      1602
A0101413570000000206306ABUDA, LAURENCIA DBU CRESTEVEN                           0501
A0101414120000000875903GRACE OR GEORGE DENNIS                                  10505
A0101414120000000875903CABARRUS                                                20500
A0101414120000002172527AMELIA DE JESUS OR EDGARDO                              10502
A0101414120000002172527DE JESUS                                                20500
B0101414120000000649127WILCHAT MARKETING                                        1620
B1301400210682039698001SEVENTY SEVEN TRAVELLERS INN CORP.                       1602
A1301400210000009982267SANTOS, LEO SAN PEDRO DBU SUPER                          0502
A1301400210682496862002ROSARIO C. PEREZ OR                                     10502
A1301400210682496862002EDGARDO J. PEREZ                                        20500
A1301400340683584368001SAMANIEGO JR., NARCISO MANIQUIZ                          0503
A1301400500000007096520BAUTISTA, SHIELA MARIE OR                               10505
A1301400500000007096520BAUTISTA, ERICKSON                                      20500
A0101408240000000347313VALENCIA, LEUVINO BOBIER OR                             10501
A0101408240000000347313VALENCIA, YOLAND                                        20500
B0101408240711024553002PERRY'S HOLDINGS CORPORATION                             1605
A2801400230000011504526MATIC, MARILOU MERIS                                     0502
B4101400420000007305360VIC IMPERIAL APPLIANCE CORP.                             1602
A4101400420000004848120AZARES, JANET LASCANO DBU LASCA                          0501
A0101412340000003716783EUNICO PEDRO D. CUNANAN                                  0501
A0101412340000003438771********                                                 0501
B0101406750852023612001LAS PINAS CITY MEDICAL CENTER, INC.                      1610
B0101405070861008155001MANDARIN REALTY CORPORATION                              1601
A0101405070861027133001WORLDLINKS CABLE WORKS                                   0502
A0601400230891746394001**********                                               0502
