A0101402060000009179564SUPETRAN, ISABELO ERNESTO LUMAQ                          0501
B0101402060000000653850TAASCOR MANAGEMENT & GENERAL SERVIC                      1603
A0101402060000002258900LAO, MINERVIA DE LOS SANTOS                              0501
A0101400440000000821549PENOSO, LILIA RODULFO                                    0501
A0101400440161022597001PHILMAN POWER CENTER INC.                                0512
A0101400440161039572010MYRNA A. CANELAS                                         0501
A0101400440161189640001PEDRO C. PALTING JR OR                                  10501
A0101400440161189640001ELIZABETH A. PAL                                        20500
A0101400440000009591860**********                                               0501
A0101400440161478374021DOROTHY D. SANICO                                        0501
A0101400440161525001112JELLIE ANN D. LOMAHAN                                    0501
A0101400440161525001153JENNY P. CRUZ                                            0502
A0101400440161539841001PONFERRADA, RODOLFO MA. ALLENA                           0501
A0101400440161549556001TEODORO R. BAUTISTA                                      0502
A0101400440161591337001JENESSEY A. RANCES OR                                   10502
A0101400440161591337001JESSIE O. RANCES                                        20500
A0101405490392481659001MARITES Q. FACTURA                                       0501
A0101400600071295528002********                                                 0501
B0101410720210821100608**********                                               2003
A2401400180000000073538GABAYERON, RINADEL DELOS SANTOS                          0501
A4101400420814478374119ESTRELLA, MARIFE P.                                      0501
A4101400550815047552003DR. GASPAR MONTENEGRO                                    0501
A4101400550000006044311SALVACION ELECTRONICS SALES                             10505
A4101400550000006044311CENTRE                                                  20500
B0101400860011374740002**********                                               1602
A0101400860011384021001**********                                               0504
A0101400860011478374007**********                                               0501
A0101400860011575074001**********                                               0502
B0101411370000011680210JNE MANILA TECHNICAL SERVICES                           11601
B0101411370000011680210CORPORATION                                             21600
B0101400150061044906001G-GATEWAY MOBILE PHILIPPINES INC.                        1601
B0101400150061047262001SUPER GT MOTOR SALES AND SERVICES INC.                   1603
A0101400150061226097002LIM, BELEN OR LIM, TIN CHONG                             0502
A0101400150061226341001ROBERTO S. SANTOS OR                                    10502
A0101400150061226341001ELVIRA K. SANTOS                                        20500
A0101400150061229214001PROSPERIDAD A. RONDILLA                                  0501
A0101400150061564610128VICENTE N. BORJAL JR.,                                   0501
A0101400150061697406001LIM, JUDY LOU OR                                        10501
A0101400150061697406001LIM, JAMES JULIA                                        20500
A0101400600071233615002********                                                 0501
B0101400600071536828001CLAXTER GENERAL MERCHANDISE INC.                         1625
B0101405810072020925003DW PLASTIC CORP.                                         1602
A0101405810072354724003FUENTES, LILIA S.                                        0501
A0601400100000011854136FIGUEROA, CLAIRE JOAQUIN DBU                            10502
A0601400100000011854136AKIYAMA-333 WATER                                       20500
B0601400100081034790001SHINMEI CREDIT AND LOANS CORP.                           1601
B0601400100000007185380MUNOZ, ANTONIO JUICO                                     1601
A0601400100081255379001MUNOZ, JENNIFER LAURIE E.                                0502
A0601400100081578724001ROMERO, OFELIA SUBA                                      0501
A0601400100081742493001SANTIAGO, FELICISIMO VALENCIA                            0502
B0601400360000000978936THE MEDICAL CITY CLARK, INC.                             1615
A0601400520000001349662TIMBOL ROMAN MANALOTO                                   10501
A0601400520000001349662ACCTNG & TAX CON                                        20500
B0601400520000001349719MAGTOTO, KELVIN DBU CALULUT CONVENIENCE                 11605
B0601400520000001349719STORE                                                   21600
A0101413280092062132001REIKEN AUTOMOTIVE SUPPLY                                 0501
A0101413730000003715837************************                                 0502
A0101413730000005316370MAGOS, REYNALDO RANCE OR                                10501
A0101413730000005316370MAGOS, MARIA LAURA CARINO                               20500
A0101410560000010317783ERNANI C. CRISTOBAL                                      0502
A0101410560000005836217PROCLEY C. CRISTOBAL                                     0502
A0101401830000001139953ROSEMARIE S. NOJADERA OR                                10501
A0101401830000001139953ISAGANI M. NOJADERA                                     20500
B0101401830141008845001PANDACAN TRANSPORT SERVICE & MULTI-                     11603
B0101401830141008845001PURPOSE COOP.                                           21600
B0101400440000014227835FAC PHILIPPINES - FOREIGN ASSISTANCE                    11601
B0101400440000014227835CENTER INC.                                             21600
B0101400440161015324003RADIANCE OF CHRIST MINISTRIES INTER                      1601
B0101401090171034162001UST FACULTY OF MEDICINE AND SURGERY                      1602
B0101401090171041259001THOMASIAN HEART SPECIALIST ALUMNI                       11602
B0101401090171041259001ASSOCIATION,INC.                                        21600
A0101401090171195628002PATRIA P. PUNSALAN OR                                   10501
A0101401090171195628002ZAIDA N. GAMILLA                                        20500
A0101401090171195837001DR. SIMEON MINA MARASIGAN                                0505
A0301400530193686503001CORPUZ, GLENN A.                                         0502
A0301400530193709195001CHENANIE S. ENERIO                                       0502
B0301400660000000048224*****                                                    1610
A0301400660000006862873DEQUITO, CITZY VENTOR                                    0502
A0301400790000003969600PASCUAL, COLEEN BOJA                                     0501
A0101401380201782577001DEL ROSARIO, MARY ANNE ESLABON                           0501
A0101410720000001602313DALAWAN, M DBU MEDAL INDUSTRIAL                         10501
A0101410720000001602313MARKETING & SERVICES                                    20500
B0101412500000000041749UNITED DOCTORS MEDICAL CENTER, INC.                      1620
B3101400870000014228218CABRERA, ROMY ANGEL M. DBU ALL ABOUT IT                 11601
B3101400870000014228218ENTERPRISE                                              21600
B3001400130000006004706RUELAN, NEIL DBU RUELAN ENTERPRISES                      1602
A3001400130230478374026SONOT, RODERICK AMAHOY                                   0501
A1001400480000011810238LAO, CHERRY ESTOQUE                                      0502
B1001400480000011809831WOO, BENJAMIN ACAAC DBU WOO GENERAL                     11604
B1001400480000011809831MERCHANDISE                                             21600
B1001400480000008501871SARMIENTO, VINCENT FLORES DBU SNDC                       1602
B1301400470252030548001CABANATUAN JAC MARKETING CORPORATION                     1604
A1301400470252428897001DR. VICTOR OLIVER AMORIN OR                             10505
A1301400470252428897001DRA. EDELIZA AMORIN                                     20500
A1901400290000012351881MARIA LOVELY PETRONILA M CACHO                           0502
A1901400290261298552066DOLORES SARMIENTO MANGUIAT                               0501
B0101401670271007776001ASHTON TECHNOLOGIES CORPORATION                          1605
B0101401670271031093001NUOVO ART & POWER GROUP, INC.                            1603
B0101401670000000739219HYDRO-TECH ENVIRONMENTAL MGT. INC.                       1605
A0101401670271186409006RAMIREZ, GARY WEBB OR                                   10501
A0101401670271186409006RAMIREZ, BEATRIX                                        20500
B0101406460000011598408ESTRELLAS PILIPINAS, INC.                                1610
B0101406460000010284863BIG BOYS GENERAL CONTRACTORS, INC                        1605
B0101406620273033463001ARL BUSINESS CONSULTANCY, INC.                           1602
B0101406620273212676001**********                                               1602
A0101406620273280285001PELAGIO / ROSARIO / REBECCA /                           10501
A0101406620273280285001RAFAEL / ROWENA                                         20500
A0101406620273313236001HARRY YU OR ROSA YU                                      0501
B0101411110000001037096TECHNOVORE SYSTEMS INC.                                  1602
B0101411820000010701207GREEN OLIVES LENDING CORP.                               1601
B0101400570281007197001MABOA                                                    1602
A0101400570000011681122HEHAR, PARAMJIT SINGH                                    0503
B0801400160311271206001WESTERN LAMP & ELECTRICAL SUPPLY                         1604
B3401400280000006791013NORTH PANAY PILOTS' PARTNERSHIP COMPANY                  1601
A0101402350000000521213TONGO, ROWENA V.                                        10501
A0101402350000000521213OR TONGO, CAESAR                                        20500
A0101405650322172239001REYES, JOCELYN P.                                        0501
B0101402510341021863002SAN BEDA COLLEGE UNION (SBCU)                            1603
A0101402510341405258001CHRISTINE N. FRESCO                                      0501
A0101402060351211701003MA. DOLORES C. DANNUG                                    0503
B0201400920000006433638CEED FORMING CORPORATION                                 1603
A0101402930381205187002JOCELYN M. RESURRECCION                                  0501
A0101402930381364974001GEOFFREY TSE WEI CHEN OR                                10502
A0101402930381364974001GAYNARDIA K. LAO                                        20500
A0101408370382209769001DR. ELIZABETH L. PALMERO                                10505
A0101408370382209769001OR ANNA L. PALMERO                                      20500
A0101411660000001145799ANIANO D ALCANTARA                                       0504
A0101402770000000360650AGUIRRE, LORY OR AGUIRRE, NOEL                          10502
A0101402770000000360650DBU FIRST LINE TRADING                                  20500
A0101405490000003178432MIRIAM D. PANO OR MELANIO B.                            10503
A0101405490000003178432PANO JR.                                                20500
A0101405490392176390002MELANIE MACARUBBO OR ARTHUR                             10501
A0101405490392176390002MACARUBBO                                               20500
A0101408400000014227533RIVERA, LARISA BAUTISTA DBU                             10501
A0101408400000014227533ELMWOOD INTERNET SHOP                                   20500
A0101408400394524529001EMERSON CRUZ OLIVER                                      0502
B0101408950000002768438WINOL INC.                                               1601
A0101409180397747901001KALAW, ANGELO PAOLO TRINIDAD                             0501
B0101412210000007251669PABAZA IMPORT & EXPORT INC.                              1603
B0301400820409060774001ORANGE FGR BASIC COMMODITIES CORP.                       1601
B0301400820409067037001PHARMA ELEVEN MEDICAL SUPPLY, INC.                       1605
B2401400180000000073750OCEAN DELI PACKING CORP.                                 1603
A1201400150000007556354AQUINO, KEVIN JAN MAGLAYA                                0505
A1201400150421296859002ELPIDIO R GARABILES                                      0502
A1201400150421400428001PAATAN, ESTEBAN VALDEZ OR                               10503
A1201400150421400428001PAATAN, LILY ANN                                        20500
B0901400220000006214284**********                                               1601
B0901400220432750068001NOCOM, JOSELITO GABRIEL                                  1601
A5101400100000010371461ACTUB, JONELYN BERNASOL OR ACTU                         10504
A5101400100000010371461B, MICHAEL CLOMA                                        20500
A5101400100000010834078GABRINO, GENEVIEVE CHINGBEE TUL                          0503
A0101412890000000442055ARSENIO NICANOR J HECHANOVA                              0501
A0101403320000007886820RONNIE P SANCHEZ                                         0502
B0101403320471019960002DIRECT ELECTRIX EQUIPMENT                               11605
B0101403320471019960002CORPORATION                                             21600
A0101403320471032831001R.C. TAGALA CONSTRUCTION                                 0506
A0101403320471235198001*****                                                    0501
A0101403320471235198001*****                                                    0501
A0101403320471549019001CRUZ, ALTHER EVANGELISTA                                10501
A0101403320471549019001OR AMELIA E. CRUZ                                       20500
A0101406330472617564001FRANCISCO DE LEON QUIROZ                                 0501
A0501400170481253773001BAUZON, MARLON P. OR                                    10502
A0501400170481253773001BAUZON, MARIBEL                                         20500
A1901400320000002295918ENRIQUEZ, EDNA JARENO                                    0501
A1401400110492378227001VEJERANO, ROBERTO MAMORE                                 0502
A1601400170000000421149EVELYN B. DELVO                                          0502
A0701400260000000041005KALAW, REYNALDO ORTEGA                                   0502
A0101403580000000016082SWEET BELLA DESSERTS                                     0510
A0101403580511154423001LUCIANO NESI                                             0502
A0101403580511156579014IMELDA FUNDALES                                          0502
A0101403580000000922781GALAURAN, DOMINICK ADOLFO                                0501
A0101405940000005068253MARIA CHARMINIA T. BRAVO                                 0501
B0101405940512031052001LAGUNA INTERNATIONAL INDUSTRIAL PARK                     1601
A0101411400000005329977NARVAEZ, LEYDENN DEL ROSARIO                             0502
B0101411400000006560990WY, DEE HUA GAN DBU VAGABOND FINE                       11610
B0101411400000006560990RESTAURANT                                              21600
B0101411400000008249981WY, DEE HUA GAN DBU VAGABOND FINE                       11602
B0101411400000008249981RESTAURANT                                              21600
A0101411790000011046027ESCANAN, CHERRY AMOR MONTEMAYOR                          0502
A0101403450000013846410**********                                               0510
B0101403450521011736001COFTA MOULDINGS CORPORATION                              1603
B0101403450521239812001********                                                 1601
A0101403610000010286563SOUZA, TRINIDAD ALFONSO OR                              10501
A0101403610000010286563SOUZA, MICHELLE ALFONSO                                 20500
A2201400250561253929002BENJAMIN DAVID CUDAL                                     0501
A0101407720000006627990MENDOZA, NONA VALMORES                                   0502
A0101407720602165436001MUYARGAS, WILMA M.                                       0501
B0101404260611035660001BETERAVIA CREDIT CORPORATION                             1604
A0101409890000000437449**********                                               0501
A0101409920000002260453CALANGLANG, LOURDES NIETO                                0502
B0101411530000006217596VG PINEDA CONSTRUCTION CORPORATION                       1604
A0101413990000014225468ESCARILLA, KRYSRYL FAYE LEBRILL                          0501
A0101414120000002879830ROSARIO JR., NICANOR DACASIN                             0501
A0101408240000012316055DAY, EVELINA OCHANGCO                                    0502
A0101408240000013983156CHING, ANA BENA GOYENA                                   0502
B0101408240711026617001TOKYO HEALTHLINK, INC.                                   1603
B0101408240000000832962CARMEL LAND SALES & DEVELOPMENT CORP.                    1610
A0101408240711396310001LESTER C. VICTORIA OR                                   10503
A0101408240711396310001GIL JOSE E. PULU                                        20500
A0101408240000008160143ROWENA P. GONZALES                                       0502
A2801400230000001734750CAPILI, YOLANDA MAGTANONG                                0501
B4101400260812047211001GMA FAITH FAMILY CHURCH INC.                             1602
A4101400390000012157221LAWRENCE ANGELO ENCARNACION                              0501
A4101400420814298552026JOSEFINA FERNANDEZ                                       0502
A4101400420814478374146ZETA B. CLIDORO                                          0501
A4101400420814520766012SUSAN B. MALBOG                                          0501
A0101412340000003340398SHAYNE T. ABIERA                                         0501
A0101412340000004360109JOSEL A. ROSALES                                         0501
A0101412340000004360843MA. CRISTINA F. ABRERA                                   0501
A0101412340000003438624BERNADETTE A. HODGES                                     0502
A0101404840851478374115ERLINDA O. PRADO                                         0501
A0101406750852617055001PUA, HERMINIA SALAS                                      0501
A0101405070000005619354BARRERA, BERNARD PAGUIRIGAN                              0502
A0101413860000010948286GENOVA, LEA SALAZAR                                      0502
