B0101400730111821100608**********                                               2005
B0101406620000000015005CARPIO & BELLO LAW OFFICES                               1601
B0101406620000009695298JK CAPITAL FINANCE, INC.                                 1604
A0101406620273375724001JULIETA LAGMAY                                           0502
A0101406620273719676002************                                             0503
A0101406620273719678001*****                                                    0504
A0101400860011394597001**********                                               0501
A0101400860011400861002**********                                               0505
A0101400860011559769001**********                                               0503
A0101400860011611356001**********                                               0503
B0101411370000007861796MCT GABRIELLE REALTY DEVELOPMENT INC.                    1602
A0101400150000002902592PADLAN, JODY JAMES SIMPAO                                0501
A0101400150000015474021HOSOMI, TAKEFUMI                                         0501
A0101400150061229832001DIANA HERNANDEZ-PERALTA M.D.                            10505
A0101400150061229832001P&D PERALTA MED.                                        20500
A0101400150000000253256MARTHYN CUAN OR MARIE GRACE                             10501
A0101400150000000253256VERA CRUZ                                               20500
A0101400730000002882386SANCHEZ, SHIRLEY SANCHEZ                                 0501
A0101400730111199724001DAVID, JERRY M.                                          0501
A0101400730111423961001ROCES, RAFAEL VILLAREAL                                  0502
A0101400730111545796001FAMERONAG, NICON FAMARIN                                 0502
B0101401960000015610181**********                                               1601
B0101401960121012201001ARCTUS ENTERPRISES, INC.                                 1601
A0101413150000003208335******                                                   0502
A0101413310000010284681TIJAMO, MADRIROSE BASILIO                                0501
A7201400170000003774301ROGER E. ALIVIO OR JENNIFER                             10501
A7201400170000003774301C. ALIVIO                                               20500
A7201400170000013359047YBALANE, MESLIE C DBU WALLIE                            10502
A7201400170000013359047GENERAL MERCHANDISE                                     20500
A7201400170000011454414ISHIBASHI, ROWENA VIRTUDEZ                               0501
A0101407270000001596810CHARL LESTER E. QUIJANO                                  0505
B0101401090171007908003PERPETUAL SUCCOR HOSPITAL & MATERNITY                   11605
B0101401090171007908003INC.                                                    21600
A0101401090000001618913EMMANUEL M. BATULAN                                      0501
A0301400530000002318441GIMONGALA, LOWELL PONDOYO                                0502
A0301400530000012016890LUSDOC, ARNOLD LINGCONG                                  0501
A0301400530000014269571CAUBE, JOENRIE  DBU J AND G                             10504
A0301400530000014269571MARKETING AND OS                                        20500
A0301400530000000066113RUDELA, JIVIR S. OR                                     10502
A0301400530000000066113RUDELA, ANALYN C                                        20500
A0301400530193704002001GLORIA, GERALD CADENAS                                   0501
A0301400530193778099001GARLEY, LEAH ROSETTE N.                                  0501
A0301400660000002348472NANIE DORADO OR RICHARD DORADO                           0502
A0301400660000014406710CAVAN, SHIRLEY BARUIS                                    0505
B0301400660000008941055RELY CONSTRUCTION & SUPPLY                               1602
A0301400950000001379580MACKAY, RAMON R. OR MACKAY,                             10501
A0301400950000001379580CATHERINE F.                                            20500
A0301400950000013129312CANETE, ALAIN BRAYHE REGALADO                            0502
A0101401380201619697002CIPCON, FERDINAND INABANGAN                              0501
A3101400740000014788302ASHWANI KUMAR                                            0501
A3101400740000006735835DAVIN, LIZA DBU ROMERO DAVIN                            10502
A3101400740000006735835REALTY AND SERVICES                                     20500
A3101400870000015911727MANAHAN, AMABELLA DIVINAGRACIA                           0501
A3001400130000008916149DUAY, MARLOWE T. OR DUAY, WILDE                         10502
A3001400130000008916149LIZA T.                                                 20500
B3001400130000009103520L.M. TING FOODILICIOUS CORPORATION                       1605
A3001400130000000007063GOLDEN HARVEST CATERING SERVICE                         10502
A3001400130000000007063FASTFOOD                                                20500
A1001400480000000133360ALL TRIO TRADING                                         0504
A1001400480000003357748DEDEL, PATRICK JUNE YEMA                                 0502
A1001400480000000474993ESCOBIDO, JOSE LABADAN                                   0501
A1301400760000002346152JIMMY C. CENA OR                                        10502
A1301400760000002346152REBECCA R. CENA                                         20500
A1301400760000005990003ROWENA D. ALVAREZ                                        0502
A1301400760000008698968GILBERT TAYAO OR TIRSO FRANCO                           10510
A1301400760000008698968JR. OR DANTE HILARIO JR                                 20500
A1301400760000014114404JEREMIAS TOLENTINO ABALOS                                0501
B1301400760000010656852MARY JANE SIOJO ENTERPRISES                              1601
A1901400290000014042165ELIZABETH K. LOZANO                                      0502
A0101401670000013222201ROSALES, LALAINE ANN REYES                               0501
A0101401670000008015381OBEN, MARIA MARGARITA SUACO                              0502
A0501400200000011150391DIO, MIGUEL BERNARDO DBU AKRI                           10502
A0501400200000011150391SENSE MEDICAL SUPPLIES                                  20500
A0801400160000006272911LIBUTAQUE, MA. GIRLIE AFINIDAD                           0501
A0801400160000006893123SALIENDRA, MARY ANNE SORRILLA                            0501
A2001400290000012677880BASILIO, LODELYN CATUBAY                                 0501
A2901400130000009071983FULGENCIO, CECELLE FRANCISCO                             0502
A0101402350321406149003********                                                 0502
A0101405650000001912038SAYSON, JESUS DOMINGO OR                                10502
A0101405650000001912038SAYSON, MICHELLE                                        20500
A0101402510000011748759TAGANAS, ERICK JORDAN LU                                 0501
A0101409050000006986749SALAVANTE, FRANCES TRINA AQUINO                          0503
A0101409050000014544066SABADO, TWEETIE JR DACERA                                0501
B0201400760374006430001CHRIST COMMISSION FOUNDATION INC.                        1604
B0101402930013130000244R.I. ARCADIO CONSTRUCTION CORPORATION                    1603
B0101402930000012171441TRUFIDELITY INNOVATIONS INC.                             1601
B0101402930381021740001YOSHINOYA CENTURY PACIFIC INC.                           1605
B0101402930381040001001TURQUOISE TRAVEL & EVENTS                               11602
B0101402930381040001001MANAGEMENT CORP.                                        21600
A0101402930381354198001WILFRIDO OR MA ELENA SANCHEZ OR                         10502
A0101402930381354198001MA THERESA MURGA                                        20500
A0101402930381478374009MARIVIC R. DELA CRUZ                                     0501
A0101408370000014727405CONCEPCION, SARAH CAMILLE                               10501
A0101408370000014727405MONTANO                                                 20500
A0101408790000002326110CUNANAN, POLLY MICHELLE QUIDES                           0501
A0101408790000013295273ELLAMIL, EMILIO ALDAY                                    0502
A0101408400394712542001SERRANO JR., ERNESTO AGLER                               0506
A0101409180000006002993LAWRENCE ROSS JIM YAP                                    0501
A0101409180000009213445SULIT, MA. ANGELINA MUGOL                                0501
B0101409180397063136001COFFEE TABLE INC.                                        1620
A5501400120410622095001CORDER, JAIMELITA OR EDWIN                               0502
A2401400180000015915510EIGHTH MERCHANT LOGISTICS                                0501
A1201400150000011415620TULAS, NIDA PANG-AO                                      0502
B0101403030441039990001TOPTRUCK ENTERPRISES                                     1601
A0101412890000002747971VERGARA, FERNANDO FERNANDO                               0501
A0101412890000009833667LIM JR., WILSON LAO                                      0501
B0101403320471027450002********                                                 1601
A0101406330472081531001MARIA SHIERILA R. IGOT                                   0504
A0101406330472216347002MARION B. SINGH OR EDWIN G. LEE                          0501
A0101412760000011575012BADINAS, ESPERANZA VILUNTA                               0501
A0101412760000007822144MELENDEZ, EVELYN BACANI                                  0502
A1901400160491476162001GINA A PELESMINA                                         0501
A1401400110492222234003MARTINEZ, FERNANDO PELIPADA OR                          10501
A1401400110492222234003MARTINEZ, MA. LU                                        20500
A1401400110000010622652TAN, FERNANDO LIM                                        0501
B0701400260000000670991PURITAN LAND DEVELOPMENT CORPORATION                     1602
B0701400260000000041130TREVOR ETON REALTY CORPORATION                           1602
A0101407430000015016281CANILLO, MONA LIZA                                       0502
B0101403580511016440001SUGI MANAGEMENT CORPORATION                              1610
A0101411400000002639701ELENA E. AMON                                            0505
A0101411790518055815080PEREZ, ABEGAIL PADILLA                                   0501
B0101403450521011748001EUROTILES INDUSTRIAL CORP.                               1606
B0101403450521011748001EUROTILES INDUSTRIAL CORP.                               1606
B0101403450521026315001**********                                               1602
B0101403450521040479001CL METALS & WIRE MFG. CORP.                              1601
A0101403610000006637089DELOS REYES JR., NICASIO EMPIO                           0502
A0101403610000011343701SAN PEDRO, LOUELY CANULLAS OR                           10501
A0101403610000011343701SAN PEDRO, LOREM                                        20500
A0101403610000015921743PE BENITO, MAYBELLE AQUINO DBU                          10501
A0101403610000015921743MIRAI MARKETING SERVICES                                20500
A0101407720602397352001RIVERA, LUIS ROBERTO FOOSHEE                             0502
A0101404260000015917009LLARENA, MINETTE GRACE ARIAS                             0502
B0101404260000000003761TRESTON INTERNATIONAL COLLEGE, INC.                      1610
A0101404260611549813001GALLANOSA, JOEL VELASCO                                  0501
A0101409890649779865001TAN, ROSMINA DY OR TAN, DENISE                          10501
A0101409890649779865001RAELYNNE  DY                                            20500
A0101407690000015918371PORCEL, MICHELLE VIDAMO                                  0501
B0101407690000011457402PALAGANAS, MARY ANN SANTIAGO                             1601
A0101407690000010774702DEQUITO, MAR DBU DEVINE ELECTRI                          0501
A0101407690652028378002HIGHER GROUND FOOD STATION                               0501
A0101407690000000913600MARQUI AUTO SUPPLY                                       0502
A0101407690652478374128LOIDA M. MAYOLA - DEALERS OF                            10501
A0101407690652478374128SHOECAT INC.                                            20500
A0101413570000009231458JULIAN, MARK ANTHONY                                     0501
A0101413570000011963963YMATA, MICHAEL                                           0501
A0101414120000011288910SIMBAJON, MARICEL MACAPUNDAG                             0502
A0101410300000006278777*****                                                    0505
B0101410300000000191586******                                                   1601
B1301400340000000011894RADIANTPOWER CORPORATION                                 1601
B1301400340683353482001MARLENE R. JOSE OR JOSE MARI R. JOSE                     1602
A1301400340683433734001DELA RAMA, CARMELITA LOZADA                              0504
A1301400500000012913434MJX PURIFIED DRINKING WATER                              0502
B0101408240711025397005KINGSMEN CORPORATION                                     1605
A0101408240000000347528RAFAEL,JOSE JAVIER/ROSEMARIE/                           10502
A0101408240000000347528REGINA KRISTINE/JOSELITO                                20500
A4101400260000012887157VILLOTA, MAEFLOR IBIA                                    0501
A4101400260000011418454MANAOIS, REA ABCEDE                                      0501
A4101400260812039607023MONTALES, MA. GLERISSA                                   0502
A4101400420814357382003REMULLA, GILDA VASQUEZ                                   0501
A0101412340000003340894MARCUS M. ASUNCION                                       0501
