B0101407690652821100608**********                                               2002
B0101410980275821100608**********                                               2002
A0101415350000006731193CHUA, VINSON REYES                                       0501
B1401400110000001095905BOMEL CONSTRUCTION, SUPPLY AND                          11603
B1401400110000001095905DEVELOPMENT CORP                                        21600
A0101410300000011355490PARADA, MARY ANNE GERALDINE A.                           0501
A0101402350321526808001LUCITA R. TARRAY                                         0502
B0101402930381045839001EQUILAND PROPERTY MANAGEMENT (EPMC)                      1601
B0101408370382035738001MEDICAL EXPERTS GROUP AND ASSOCIATES                    11605
B0101408370382035738001INC.                                                    21600
A0101402770391211308001*********                                                0504
A0101403030000000008831**********                                               0501
A0101410300000003290213MELCHOR, JOHN JUDE PANGANIBAN                            0501
A0101401250000002763346**********                                               0505
A0101401250000000460688MAGNO, FLORENCE UY                                       0502
A0101400150000000806906DE LEON, CAROLINE TUAZON                                 0501
A0101400150000003164252DOROTHEO, ANTONIO CASINILLO                              0501
A0101400150000003164805LABIANO, JENNY ISABEL SALANDANA                          0501
B0101400150061044905001RISING TIDE MOBILE ENTERTAINMENT, INC.                   1602
B0101400150000010164513ALPHA FOXTROT MEDIA INC. DOING BUSINESS                 11607
B0101400150000010164513AS ARTILLERIE ME                                        21600
A0101400150061453761063JESUS ROMEO A. RIVERA                                    0501
A0101400150061554336001ROXAS, GRACIA LOPEZ                                      0501
B0101405810072383141002WANG, CIHAI                                              1602
A0101405810072508002001WANG, JINZHE WANG                                        0502
A0601400100081032473001HOUSE OF MANY MANSIONS MEMORIAL                         10503
A0601400100081032473001CHAPELS                                                 20500
A0601400100081251935001DIZON, HENEDINA OR DIZON, TANYA                         10503
A0601400100081251935001OR DIZON, ROWENA                                        20500
A0601400100081322973001ARUELO, ADELINA VILLAR                                   0502
A0601400520000009516554CORTEZ, MARVIN TOMANENG                                  0503
A0601400520000001706792BUNGQUE, ALDRIN CAPILI                                   0501
A0101413730000002229701*************                                            0501
A0101414090000008926996PEYRA, CRISTINA CHAVEZ                                   0502
B0101414090000000399457ANTARA VENTURES INC.                                     1603
A0101400730111432322006RIOLO, RODERICK                                          0502
B0101401960121023087001**********                                               1601
B0101401960000000008186GOLDEN WING STAINLESS STEEL CORPORATION                  1602
B0101401960121339004001**********                                               1601
A0101413310000005433596OCAMPO, LUCILA FLORES                                    0501
B0101401830141019859001NIPPON WARE MANUFACTURING CORPORATION                    1602
A0101401830141292912001EDUARDO P. AMBAS OR                                     10503
A0101401830141292912001JOSEPHINE M. AMBAS                                      20500
A0101400440000011310117RODICA, JOHN MARTIN BINGIL                               0503
A0101407270162331908018CATHERINE MADONNA C. CRUZ                                0501
A0101407270162468329001TRAJANO, FRANCISCO SEKOK                                 0502
B0101401090000012181747JONATHAN H. DE JESUS AND MA. CARMELITA                  11601
B0101401090000012181747F. SANTOS                                               21600
A0101401090171195862001DR. NARCISO S. NAVARRO JR.                               0505
A0101401090171409077003RAUL CRUZ JR. & JOSE PEDRO                              10505
A0101401090171409077003CABRERA                                                 20500
A0101401090171534705001ANGELES, ROGELIO FAJARDO                                 0502
A0101401090171622298001IDA MARIE T. LIM                                         0501
A0301400950000010701003*************                                            0502
A0101401380000005320901DELA ROSA, JOSEFINA J. OR                               10501
A0101401380000005320901DELA ROSA, DINO MARTIN J.                               20500
A0101413020000000880553***************                                          0503
A0101410720000007843470SAMBRANO, MARIE CAMILLE ASIS                             0502
A0101410720653240354001ONG CHIONG, WILLIAM C. OR                               10501
A0101410720653240354001ONG CHIONG, JULIE                                       20500
A0101413600000001430539GONZALES, MARIA JASMINE TINAWIN                          0501
A3101400160221478374056ALLAN P. TINAMBACAN                                      0501
A3101400450000003072528ABELLIDO, MATILDE OR HINDIANA                           10501
A3101400450000003072528JR., MARGARITO                                          20500
A3101400450223391044003GUNTER, FORTUNATA AZORES                                 0504
A3101400870000011437619BABILONIA, IAN ANDREW RICAMORA                           0501
A1001400480000003357500SALVACION JR., DIONISIO CAINGLE                          0502
A1301400760000005989884GALLO, CIAN CARLO MARCELO                                0502
B1301400760000000007132EXCITE AUTOMOBILES, INC.                                 1610
A1901400290261478374031REALYN MARASIGAN CUENCA                                  0503
A0101406620000003661396**************                                           0501
B0101406620000000962403GEOWORKS INTERNATIONAL CORPORATION                       1601
A0101406620273367221001GUERZON, CAESAR ABESAMIS                                 0502
A0101410980000006014335LIM, JENNIFER MARIE WEE                                  0501
A0101411820000001356229FERNANDEZ, NELSON JOSEF AND                             10501
A0101411820000001356229FERNANDEZ, RESCYN MARY                                  20500
A0101412470000002136049**********                                               0503
B0101412470000007317902LUNARGLOW, INC.                                          1605
A0101400570000002329739LIM, STEPHANIE RISSA WE                                  0501
A0101400570000003451567COJUANGCO, MA. VIOLETA DELGADO                           0501
B2901400130000005960892ANDORAN COMMUNITY DEVELOPMENT INC                        1601
A0101402350000005645150QUEG, CHRISTOPHER MULI DBU CM                           10501
A0101402350000005645150QUEG TRUCKING SE                                        20500
A0101402510000000200153LPR GRAPHIC DESIGNS                                      0502
A0101402060000000358554JACOBE, MANOLO ARELLANO                                  0501
A0101402060000002258988LIM, ALBERT DELA ROSA                                    0502
A0101402060351324574001FABIAN, ROMULO CRUZ                                      0501
A0101409050000012176551MAISONET, BENJAMIN RAY                                   0501
A0101409050000012176620DELA CRUZ, JENNYLYN ROMERO                               0501
A0101409050000012176686RODRIGUEZ SR., EMMANUEL NA                               0501
A0101409050000012176733CASS, JAKE NA                                            0501
B0201400760374026695001HJR INTERNATIONAL CORPORATION                            1603
B0101402930381014599001HEALTH SOLUTIONS CORPORATION                             1601
B0101402930381017213007UNIVERSAL ROBINA CORPORATION                            11601
B0101402930381017213007URC - CMC                                               21600
A0101402930381706358002**********                                               0501
A0101408370000006446240CRUZ, JOHN CHRISTIAN DE LEON                             0510
A0101411660000002309417ROMERO, MICHAEL LAGMAN                                   0502
A0101415350000006731433NGAN, MICHAEL                                            0502
A0101402770000006642839AVILA, KIMBERLEY FLORES                                  0501
A0101405490000000355742FONG, JAN MICHAEL MANALO                                 0501
B0101405490392039459001MEGANESS PHARMA MARKETING                                1601
B0101405490000006214222MEGANESS PHARMA MARKETING                                1601
A0101408400000005286320AMEROL, ROSLINA MAROHOMSALIC                             0504
A0101408400394478374094NUNEZ, GENIE                                             0501
B0101409210000006599013UNIVERSITY OF MAKATI EMPLOYEES MULT                      1601
B0301400820000008995577KART & KYLE FEEDS AND VETERINARY                        11603
B0301400820000008995577SUPPLIES, INC.                                          21600
A5501400120000000047356JOCSON, JACKIELYN COCJIN                                 0501
A5501400120000006976927DEDASE, WILBERT VALENCIA                                 0505
A5501400120410656023001BELTRAN, MANUEL OR                                      10504
A5501400120410656023001BELTRAN, ALEGRIA                                        20500
B1201400150421009374001ESLA MANAGEMENT AND CONSULTING                           1605
A1201400150421397888001GO, BRIAN SY OR                                         10501
A1201400150421397888001GO, CYNDY SY                                            20500
A1201400150421459509001TEE, CHITO LAYUGAN                                       0503
A0101403030441239049001**********                                               0501
A0101403320000000736163DEL ROSARIO, RONNIE ELISEO                               0501
A0101403320471480971001GINA T. CALABIO                                          0502
A0101406330472508335002RAMIR R. ALVAREZ                                         0503
A0101410140000000499134LANORIAS, JOVENNES DAVID                                 0502
A0101410140000001940110BARRIOS, MARISSA ACHACOSO                                0502
A0101410140475339949001SANTOS, ADORACION SANCHEZ OR                            10505
A0101410140475339949001SANTOS, MYRNA SA                                        20500
B0501400170481018109002CSI WAREHOUSE CLUB INC.                                  1603
B1901400160491013980001VIC IMPERIAL APPLIANCE CORP.                             1603
A1401400110492041611001BLUECLICKER COMPUTER CENTER                              0505
A1601400170000001837863RENE N. ESPLANA OR                                      10502
A1601400170000001837863GLORYDEL B. ALAPAD                                      20500
A1601400170000002334094BUENA MARIE B. REDOBLADO OR                             10501
A1601400170000002334094ALVIN JOSHUA N. REDOBLADO                               20500
A1601400170494079466001MA. ANICETA R. LLAGUNO                                  10505
A1601400170494079466001OR HERIBERTO M. LLAGUNO                                 20500
A0101403900501712681001YUPANGCO, GLENN LEMUEL PEPITO                            0501
A0101407430000012181601TIOSEN, MELANIE TAGLE                                    0501
B0101403580511020857001ROBROS INCORPORATED                                      1603
A0101403580511151398002ARIZA TERESA MANGALILE OR                               10501
A0101403580511151398002REYNALDO JOSE MANGALILE                                 20500
A0101403580511156550001TERESITA DUNGO OR                                       10501
A0101403580511156550001ELPIDIO DUNGO                                           20500
A0101408530516571877083DANILO A. CACHERO                                        0501
A0101408530516571877148MARIAN C. ADVENTO                                        0502
A0101403450521449078002*********                                                0502
A2201400250000004916150LEABRES, RONEL DELA CRUZ                                 0501
B2201400250561028327002ALLAN P. GAYONA                                          1601
B2201400250000000016913ABRAHM CHASE CORPORATION                                 1602
A2201400250000006736252EDC TYREQUEST  MARKETING                                 0503
A2201400250561299317001MIRASOL M. SAN SEBASTIAN OR                             10502
A2201400250561299317001ALLAN M. SAN SEBASTIAN                                  20500
A2201400250561478374015ARLENE T. CERBAS                                        10501
A2201400250561478374015MEMBERS OF NATASHA                                      20500
A0101407720000003886955SANCHEZ, ARISTOTLE FRANCIS GERO                          0503
A0101407720602346235002TEODORO, MARY ROSE PINEDA                                0502
A0101407720602398542002DR. ROBERT DENNIS J. GARCIA                              0502
A0101407720602697692001SANTOS, GENEVERE SERNA OR                               10501
A0101407720602697692001SANTOS, DANILO S                                        20500
A0101407720000002693116PUNO, MARIA PATRICIA ANN TANEDO                          0501
A0101404260000005446926AGUIWAS, EDNA GUMBAN                                     0502
A0101413570000002976232TAAY, MAYUMIE MAE BERNARDO                               0501
B0101413570000003580750SARMIENTO, FRANCESCA ISABELLE BESIN                      1601
A0101406590662544315001PIORNATO, ANDY ALEJANDRO                                 0502
B1301400210000005041007***                                                      1603
A1301400340683391841002EVELYN M. BAUL OR                                       10502
A1301400340683391841002EDUARDO T. BAUL                                         20500
A1301400500000009723297ABESAMIS, IEA PAULA V. DBU                              10501
A1301400500000009723297ISTORY PRODUCTIONS                                      20500
A1301400500000009723300CABABA, JARRETT MALLILLIN                                0501
A0101408240000011487240CAMBAY, KRISTINE ALMA CONTRERAS                          0501
A0101408240000008160172SALAZAR, L DBU CIANZAR                                  10501
A0101408240000008160172TRANSPORT SERVICES                                      20500
A0101408240711429939004CARMELA CARAGUE                                          0501
B2801400100000007896000BELGA, MARISOL FERNANDEZ                                 1602
A4101400260000000469329FALCUTILA, MARISSA RAMOS                                 0503
B4101400390000003346187PAGASA PHILIPPINES LENDING COMPANY                       1603
A4101400390813547100001CABABA, JARRETT MALLILLIN                                0501
A0101412340000003345548JOSEPH BENJAMIN B. QUINTAL                               0502
B0101404840851013980002VIC IMPERIAL APPLIANCE CORP.                             1601
A0101404840851217637036CIPRES, ALEXANDER                                        0501
A0101404840851436137001BAGANO, ROLANDO PAGADUAN                                 0502
A0101404840851520766190LARRY G. PADERE                                          0501
A0101406750000000173044REYES, JOEL FLORENTINO                                   0501
A0101405070861462736001ARTURO V. TIAOQUI OR RAMON F.                           10502
A0101405070861462736001TIAOQUI JR                                              20500
A0101405070861462736002ARTURO VITA TIAOQUI JT                                   0502
