F0101406620000000962443NIGHTHAWK GLOBAL BUSINESS                               12605CK1
F0101406620000000962443PROCESS SERVICES                                        22600CK1
F0101400570281042886001PRIMEX COCO PRODUCTS, INC.                               2603CKR
F0101400570281506824001VALERA, ENRICO CASTRO                                    2501CKO
F0101409500000000217109ASPEN CONSTRUCTION &                                    12604CKR
F0101409500000000217109DEVELOPMENT CORP                                        22600CKR
F1901400160491043709016CYNTHIA C CRESENCIA                                      2501CKO
F0101411400517052551001BCMS INTERNATIONAL SPECIALTY CO                          2601CKR
F0101404260611027114001ABS PROMOTIONS CORPORATION                               2620CKR
F1201400280671028218001WINACA DEVELOPMENT CORP.                                12605CKO
F12014002806710282180016715500030                                              22600CKO
F0101408240711382933001TERESA OR FRANCO DEL ROSARIO                             2508CKO
F4101400260812038727001METRO CAVITE HEALTH SYSTEM INC.                          2610CKR
F4101400260812433131001TERESITA DUNGCA OR                                      12502CKO
F4101400260812433131001REBECCA DUNGCA                                          22500CKO
