B0101404260611821100608**********                                               2004
A0101406750000014700842MANIO, MARIONE DAVE AGPAOA                               0501
A0101406750000014700853LOPEZ, MIGUEL ALALAYIN                                   0501
A0101406750000014700842MANIO, MARIONE DAVE AGPAOA                               0501
A0101406750000014700853LOPEZ, MIGUEL ALALAYIN                                   0501
A0101414090000008927095UMALI, MAR ANDRIEL SANTOS                                0501
A0101408660000011998853LAZA, VICENTE ADUNA                                      0502
A1101400120000009119682NEBRIJA, LITO TOMANDA DBU LMCC                           0503
B0101400600000015939932********                                                 1602
A0101400730111196336001CHAN, ILDEFONSO M. OR                                   10502
A0101400730111196336001CHAN, VALORIE F.                                        20500
A0101400730111203514052MILAN, ROWELA TIBE                                       0501
A0101400730111334903023CHAVEZ, ANABEL                                           0501
A1101400120000006081023SALINAS, ANTONIO DELA CRUZ                               0505
A1101400120000000652584LARIDO, HERMENIO C. OR                                  10501
A1101400120000000652584LARIDO, HARVIET                                         20500
A1101400120000003197200SINGH, SAWINDER KAUR                                     0503
A1101400120000000652824NIPAL, MARIA TERESA RIVERA                               0502
A0101412890000009833952CHU, MARITA MONTEMAYOR                                   0505
B0101412890000000006942SOLID INTEGRATED COMPANY, INC.                           1601
A0101401250021698692001ROCELIE M. PALMOS                                        0502
A0101400150000009071381ERANA, FRANCIS NIKOLAI P. OR                            10501
A0101400150000009071381ERANA, MA FRANCHESCA P.                                 20500
B0101400150061010885003SBM LEASING, INC.                                        1605
A0101400150061230098001SALVADOR R. SERRANO                                      0501
B0101400600071234514001*********                                                1601
A0101405810072387220001**********                                               0501
A0101414090000001652411MORLA, ALFREDO JR. SABILE                                0501
A0101410850000006559853RM CARRIER CORPORATION                                   0501
A0101400730111347787002CHAVEZ, LYNN FLORENTINO                                  0501
A0101406040000007842671MILLER, LESLIE ANN LIM                                   0501
A0101413150000013434156***                                                      0502
A0101412630000004062086BANZUELA, ELEANOR ADORNA                                 0503
A0101412630000007158172STA. CRUZ, CONCEPCION LAZARO                             0501
A0101413310000006735766NEKOUDAST, MAHNAZ NAZARENO                               0501
A0101401830000000033718ROSACENA, GRACE PAPAS                                    0502
A0101412920000000276339HOLAZO, RAFAEL ALEXANDER V. OR                          10501
A0101412920000000276339HOLAZO, MARIA LIZA B.                                   20500
A0101401090000005320278FERNANDO L. LOPEZ OR ESTRELLITA                         10504
A0101401090000005320278F. LOPEZ                                                20500
A0101401090171039151001ECOWASTE MANAGEMENT COMPANY                              0502
A0101401090171195628001PATRIA PEREZ PUNSALAN, M.D.                              0502
A0101401090171314587003AURORA S. CRUZ                                           0502
A0301400660000006862593VILLAGRACIA, FERNANDO                                    0502
A0301400660000008941077YAP, RHODORA MORENO                                      0502
A0101401380000015062530MUYA, MARLON BATHAN                                      0503
B0101410720000011310271JB ULTRATECH BUILDERS INC.                               1601
A0101410720653570185001ROMERO, PHILIPPE JERVIE CASABAR                          0503
A3101400160221386295002ROBERT J. BANATIN                                        0501
A3101400870000002327926BAGUYO, MARIA LUISA GALIDO OR                           10501
A3101400870000002327926BAGUYO, LEO RAMORAN                                     20500
A1001400190231520766033BARICUATRO, JESA LABADAN                                 0501
A1001400190000002170645John Marc Solano                                         0501
A1001400480000000041523PO, MARILOU TRAJANO OR PO,                              10504
A1001400480000000041523MAUREEN TRAJANO                                         20500
A1001400480000000606762PLATON, JULIUS CEASAR EROLES                             0501
A1001400480000002300463GO, MARIA AMBROCIA BORROMEO                              0501
B1001400480000000133593DELUXE RANCH TRANSPORT CORPORATION                       1602
B1001400480000004097154SABAL HOSPITAL, INC.                                     1610
B1301400470000000009561FUND LINK CREDIT & LOANS, INC.                           1602
A1301400760000011058574SAN PEDRO, EDGAR SAMSON                                  0501
A0101406620000010591249NICANOR M. MONTESINES                                    0501
A0101406620273519823001MANUEL, RESTY FRANCISCO                                  0501
A0101406620273565345001MACALINDONG, RICARDO BOBADILLA                           0501
A0101408660274448186001GAMO, WEISEN BAGAMANO OR                                10501
A0101408660274448186001GAMO, JOHN BRYAN                                        20500
A0101412470000002086411GLORIANI, ELENITA PERDON                                 0501
B0101400570281041722001DALLAS AUTO SERVICE CENTER, INC.                         1610
A0101411240000014877140LAWANA, AIZA MYLA DESCARTIN                              0501
B0101411240283004670001GRAND LARAIN PRODUCTIONS CORP.                           1605
A0101402350321480369002ROSALIN B. AMADA OR                                     10501
A0101402350321480369002RAMEL M. AMADA                                          20500
A0101402510341538955001********                                                 0505
A0101402060351773032001FERRER, ROSE ELLAINE FIDELINO                            0502
B0201400760374044038001RYUKO FASHION LINE                                       1603
B0201400760374249471002COMMONWEALTH INSURANCE COMPANY                          11603
B0201400760374249471002-OPERATING FUND                                         21600
A0101408790000002326096JUGO, ROGELIO JAVINIAR                                   0502
B0101402770391009312001CAPITAL GARMENT CORPORATION                              1602
B0101402770391015995001CLAYTON INDUSTRIAL CORPORATION                           1604
A0101405490392478374008MARGARITA R. CIELO                                       0502
A0101408400000003120792GUEVARRA, LADY KATHLEN PENAMORA                          0502
A0101408950000004512172DE VEYRA, ELSON PETER BRANDES                           10501
A0101408950000004512172OR AENLLE, FATIMA VIDA                                  20500
A0101409180000008700156CAUTON,ANNA KATRINA, HERNANDEZ,                         10501
A0101409180000008700156MIGUEL OR HERNAN                                        20500
A0301400820000001185780RUFEROS, ROY KENNETH OR                                 10501
A0301400820000001185780AREVALO, MICHELLE KAY                                   20500
A0301400820000002271912BARAN, DERICK S.                                         0501
A2401400180000016048003ADAM, ZAINUDIN MAMALAC                                   0501
B1201400150421025695001PRINTING AND PUBLISHING MULTI-PURPOSE                   11602
B1201400150421025695001COOPERATIVE                                             21600
A0901400220000011299239**********                                               0501
B0901400220432750068001NOCOM, JOSELITO GABRIEL                                  1602
A0101403030441552227002CORDOVA, JOSEFA VALMONTE OR                             10501
A0101403030441552227002CORDOVA, LEOPOLD                                        20500
A0101403320471205809002UMALI, FLORENTINO ILAGAN OR                             10503
A0101403320471205809002MARIA LILIBETH DE GUZMAN                                20500
A0101403320471442993001RUBY-MAE R. BOSTRE                                       0501
A0101410140000014278174VILLA, MA.  JEANNE DIAZ                                  0501
A0501400170000005002873SANTIAGO, MARWIN LOPEZ                                   0502
A3801400170000002302761NANCY M VINAS                                            0502
B3801400170000016058970ADEVA, LEO MACATANGAY DBU LEO ADEVA                      1601
B1401400110000000034693LUCENA CITY PHARMA CORPORATION                           1601
B1601400170000000497121LEGASPI HOPE CHRISTIAN SCHOOL, INC.                      1602
A0701400260000006215641LANUZA, ROSE ANN TOLENTINO                               0502
B0101407430000000035281MOVE IT MULTIMODAL TRANSPORT AND                        11601
B0101407430000000035281LOGISTICS INC.                                          21600
A0101407430000000521133HERNANDEZ, MAY ANNE PARCO DBU M                          0501
A0101407430000002298188MIGUEL MANUEL S. DAVID                                   0505
A0101403580000012314720CANTADA, LUIS DE LEON                                    0502
A0101403580511152926001MARIO T. MANANGHAYA OR                                  10503
A0101403580511152926001REMEDIOS C. MANANGHAYA                                  20500
B0101405940512031029001SOLID VIDEO CORPORATION                                  1602
A0101408530000012953112GARCIA, CONSTANCIO DAYANGHIRANG                         10501
A0101408530000012953112DBU ROBERT KING ENGINEERI                               20500
A0101403610000016057362MENDOZA, FELICIANA ALCANTARA                             0501
A0101403610531400641001CASI, JOSE ELIA                                         10501
A0101403610531400641001CASI. FE CIRUJAL                                        20500
A0101403610531453729001CHAMBER, MARY HYACINTH CRUZ                              0501
A0101403610000000015830CARRASCO, EUNICE JANE CERDENA                            0501
B2201400250561035096001SOUTH PEARL PROPERTIES, INC.                             1605
A0101404130000000043898BAUTISTA, VIVIAN ARAGO                                   0501
A0101407720000009414091GARCIA, SOPHIA MA. CARMELA REBU                          0501
A0101407720602390297001PREYSLER, MARIVIC G.                                     0501
A0101407720602499900001***************                                          0501
A0101409890000006813129VILLAR, RUSSELBERT YUZON                                 0502
A0101409890000011486532CADAMPOG, MADONNA CARREON                                0501
B0101407690000000025043PHILIPPINE MECHANICAL ENGINEERING                       11601
B0101407690000000025043PRACTITIONERS, I                                        21600
A0101407690000006736496SALLY B. LABIANA                                         0501
A0101407690652298552012ANALIRIO GENERALI - DEALERS OF                          10502
A0101407690652298552012SHOECAT , INC.                                          20500
A0101411530000008555011**********                                               0501
A0101413440000004882891KIM, MYOUNGHAN                                           0501
A0101413440655055766001MIRANA, DOLLY DIANNE DBU NINI                           10502
A0101413440655055766001AND STITCH GARMENTS                                     20500
A0101413570000004353811REGADO, FRANCIA COLLANTES                                0501
A0101413570656057648075DUNGO, IVY MARI                                          0501
B0101414120000004603354SANTABES COMPANY INC.                                    1601
B1301400210682041444001SYCLOR CONSULTAX INC.                                    1602
B1301400340000009310452BALUCANAG, CRISALDO B. DBU PESOPLUS                     11602
B1301400340000009310452DRUGSTORE                                               21600
A1301400500000015837651DR. RYAN S. RAMOS                                        0501
A1301400500000009723344ESTEVEZ, MATEA CENTENO OR                               10505
A1301400500000009723344ESTEVEZ, JOEY CENTENO                                   20500
A1701400230000011517332ONG, ARLENE CAPILI OR ONG,                              10501
A1701400230000011517332ERIC ENRIQUE CORTINA                                    20500
A0101408240000003955102RUSTE, CHRISTIAN TAN                                    10501
A0101408240000003955102OR RUSTE, JOANNE KATHLYN                                20500
A0101408240000002331282PINEDA, GISBERT DEL CARMEN                               0501
A4101400260000012857600ALBERIO, MAVERICK REM RABE                               0501
A4101400260000012886552VICTORINO, PATRICIA SOLIS                                0501
A4101400260812588369001NENITA M. BUHAY                                          0501
A4101400390000007459369LIM, PATRICK ADONACION DBU                              10502
A4101400390000007459369FLYINGCOLOURS REALTY                                    20500
A4101400550815046007001DIGIBOX PRINTING SERVICES                                0501
A0101406750000000358116MURATA, CRISTINA GUARDINO                                0502
A0101406750000015823506CAMO, HYACINTH HIMONGALA                                 0501
A0101406750000015823493CAMO, JONATHAN SANTIAGO                                  0501
A0101406750000014700922CAMPOSANO, JOAMA FRANCISCO                               0502
A0101405070000002282082NOLASCO, ELVA CATHERINE INDON                            0502
