B0101402350321821100608**********                                               2005
A1101400120000000652835GO, SHERRY ALETTA UY OR                                 10501
A1101400120000000652835GO, MARILYN UY                                          20500
B1101400120313046425001BLACKGOLD AGRIVET INC.                                   1602
A1101400120000003981317CANETE, ALEXIS JAN DY DBU                               10502
A1101400120000003981317CANETE ENTERPRIS                                        20500
A1101400120000005608191CELSO, GORGIE CAROLA                                     0502
A1101400120000006186456HORCA, JEAN ROSE DAROLE                                  0504
A1101400120000003022533LIM, RICHARD YAP                                         0502
A1101400120313547700001NICOLASORA, ALMARIE EULOGIA P.                           0510
A6601400120000003642788BALANON, RAQUEL ADORA                                    0502
A6601400120000010637442CUYCO, RONALD ESPAYOS                                    0502
B6601400120314612844001MARTINEZ, ANGELINE OR MANUEL OR ORTIZ,                  11605
B6601400120314612844001LEOVIGILDO                                              21600
A6601400120314616978001SAURO, MICHEL CASTILLO                                   0501
A0101402350321183614001TAJON, ANSELMA B.                                        0501
A0101408370000000586049RAMOS-ATIENZA, MICHELLE E.                               0502
A0101403320471661005001MARIQUIT R FERMIN OR POCHOLO S                          10501
A0101403320471661005001FERMIN OR PEDRO ROSALES                                 20500
B0501400170481020083003COLEGIO DE DAGUPAN, INC.                                 1610
A0101401250000011296923BINAS, JULIE NUAL                                        0505
A0101400150000000253041DELENA, MARITES CATBAGAN                                 0502
A0101400150000003162785LORD VINCENT B. BORDADOR                                 0501
A0101400150000003198123Ace L. Ramin                                             0501
A0101400150061038536025ABAD, MARITA                                             0502
A0101400150061038536087LETICIA G. BONIFACIO OR                                 10501
A0101400150061038536087CATHERINE BONIFA                                        20500
A0101400150061227521002MIRANDA, YOLANDA D. OR                                  10502
A0101400150061227521002MIRANDA, FERNAND JOSEPH D                               20500
A0101400150000000806688MIRANDA, YOLANDA D. OR                                  10501
A0101400150000000806688MIRANDA, FERNAND JOSEPH D                               20500
A0101400150061228609001CYNTHIA C. JUATON                                        0501
A0101400150061417371001FELICITAS CASTILLO OR                                   10502
A0101400150061417371001MA. ASUNCION PAN                                        20500
A0101400150061464032001CHAI, ADRIENNE NICOLE TYPOCO                             0501
B0101400600000001335637**********                                               1602
B0601400100000000142065CALDERON, RAYMUND QUAN OR                               11601
B0601400100000000142065CALDERON, RIZA P                                        21600
A0601400360000013694578BASILIO, RIO SIMBULAN                                    0501
A0101413730000011325101*********************                                    0501
B0101400730000008477534ALVENDIA, AMADOR PAHATI                                  1602
A0101401960121240773002************                                             0501
A0101401960000000211047***************                                          0501
A0101413310000004735702CHONG JR., JAIME YEE CONCEPCION                          0501
B0101401830141068237001BERMUDO, SHARALYNN Q. DBU AKEISHA TRAVEL                11601
B0101401830141068237001AND TOURS                                               21600
A0101401830141528566001BARIRING, ROSEMARIE J. OR                               10501
A0101401830141528566001BARIRING, DANILO                                        20500
A7201400170000003774112AMPIL, FLOYD TABAYAG                                     0501
A7201400170000007185886DELA CRUZ, ANGELES SABULBERO                             0505
B7201400170000003773637MDSDOC CORPORATION                                       1601
A0101407270000003254260CHERYL C. SOLANGON                                       0501
A0101407270000007918332ANGELITO SIMBA JR.                                       0501
A0101407270162479362001ERYMAR D.C. REYES OR                                    10501
A0101407270162479362001AUBREY S. REYES                                         20500
A0101407270162551435001MARIA LOURDES E. BAUTISTA                                0501
A0101401090171198434002DRS. MARY JOCELYN LAYGO OR GIL                          10501
A0101401090171198434002GONZALEZ OR ROLANDO LOPEZ                               20500
A0101401090171201680002RAFAEL P. BANTAYAN JR.                                   0502
A0101401090171202557001GONZALEZ, GIL SISON                                     10506
A0101401090171202557001OR FELICITAS C.                                         20500
A0101401090171390547001CARLO D. ABIOG                                           0501
A0101401090171390547002CARLO OR MYRABELLE ANN ABIOG                             0501
B0301400530000000065967CEPEDA, SHERLY BALILI                                   11610
B0301400530000000065967OR BALILI, MICHE                                        21600
B0301400530000001409592DUCAO, CRISTY BALILI OR                                 11610
B0301400530000001409592CEPEDA, SHERLY B                                        21600
A0301400530000005001636MAGUNCIA, CHERYL PECONCILLO                              0501
B0301400530193042539001NELSHENE MARKETING                                       1610
B0301400530193719985001CEPEDA, SHERLY OR BALILI, MICHELLE                       1610
A0301400790000002301393BARCELONA, JANET TIZON                                   0501
A0301400790000005692219VAPOR, ROLANDO FULMERNAR OR                             10501
A0301400790000005692219VAPOR, EVANGELINE BADE                                  20500
B0301400790000000435738NEW GREAT LUMBER AND CONSTRUCTION                       11601
B0301400790000000435738SUPPLY, INC.                                            21600
A0301400790000006269823MONTEVERDE, CHARMAINE MONINA M.                          0501
B0101401380201045945001COMPETITIVE IT SOLUTIONS, INC.                           1601
B0101410720000000030031CONGRESIONAL RESIDENCES DEVELOPMENT                      1605
A0101410720000000053238RONALDO C. MANUEL OR                                    10501
A0101410720000000053238IRENE A. MANUEL                                         20500
A0101412500000013718793DUAZO, ALYZA JESSALYN FRANCISCO                          0503
B0101412500000000739759ITEXPRESS CO., INC.                                      1602
B3101400160221023025001KALAYAAN MULTI-PURPOSE COOPERATIVE                       1601
A3101400870000005410020CONCEPCION, ROEL SACRAMENTO OR                          10501
A3101400870000005410020DE LA ROSA, JOSE                                        20500
A1001400190000002266680SUAN JR., AGAPITO SALES                                  0501
B1001400190231043021001UNIPACE CORPORATION                                      1603
A1001400190000002266560LAGRITO JR., JOSE REY ALBAO                              0501
A1301400470252558418001ALODIA DC. SALAZAR                                       0502
B1901400290261027293001LIPA MEDICS INC.                                         1620
A0101406460000002330810*************                                            0501
B0101406460000001231678GRACE GOSPEL CHURCH, INC.                                1601
A0101406620000001686893MALLILLIN, FRANCIS MEL GONZALEZ                          0501
B0101406620273012462006COL FINANCIAL GROUP, INC.                                1620
A0101406620000010983152GHORBEL, FATHIMA DORADO                                  0503
A0101400570000006271730ADAN, CHRISTINA HOYUMPA                                  0504
A0101400570281334588001ARACELI ESTEVES ONA                                      0501
A0101400570281500151001EVELYN O. DICDIQUIN                                      0501
A0101400570281703490001GONZALES, GERARD ERIKSON G.                              0502
B0101411240000000012084PAZ LIFE PLANS HOLDINGS INC                              1601
A0501400200000000035685DELGADO, EVELYN VIDAL                                    0501
B6601400120000003084693J.H. PAJARA CONST.CORP./CTC CONST. AND                  11603
B6601400120000003084693SUPPLIES                                                21600
A6601400120314613222008ORTIZ, BRIAN C. OR RAYMUNDA M.                           0501
A6601400120314648793001CARPIO, MARISOL L OR FERNANDO G                          0501
A6601400120314696683088ORTIZ JR., JUAN OR MARGARITA                             0503
A2001400290000010684336CHUA, JEOREX POBLACION OR CHUA,                         10501
A2001400290000010684336MELANIE ROSE GAR                                        20500
A0101402350000005644817H. NOOR, SHAQERA BEL                                     0501
A0101402350321086855001SUSAN M. SANTOS                                          0501
A0101402350321179313001ELIZABETH EVANGELISTA OR RENATO                         10501
A0101402350321179313001OR KAREN EVANGEL                                        20500
A0101402350321543301001SANTOS, MARIA SALVACION G.                               0502
B0101405650000000013043JOHNICA BENCIA P. AHERRERA                               1601
A0101405650000003491387GORRES, SHEILA SANEZ or                                 10501
A0101405650000003491387GORRES, ROBERTO                                         20500
A0101405650322172570002********                                                 0501
A0101405650322175234001EDWARD J. SANTOS OR                                     10501
A0101405650322175234001CARMELA YUTUC-SANTOS                                    20500
B0101402510341030386001OLIAND HAUTE COUTURE, INC.                               1602
A0101402510341196679001CALIXTRO, ANGELINA FARALA                                0501
A0101402510341199103001CORAZON D. HUANG                                         0503
A0101402510341199103002********                                                 0503
B0101402060000000022675REBAC CONST. AND DEV. CORP.                              1602
B0101409050352018120001ELECTRONIC COMMERCE PAYMENTS, INC.                       1603
B0101402930381021740001YOSHINOYA CENTURY PACIFIC INC.                           1605
A0101402930381206360002LILIBETH A. VERTUCIO                                     0503
A0101402930381338441001JOSE MA. B. DELA ROSA JR.                                0501
A0101402930381380749001GENUINA C. RANOY                                         0503
A0101402930381381233001LEAH LIZETTE M. ESGUERRA                                 0502
A0101408370382363867001ANNA LEAH P. SANGA                                       0501
A0101408790000000579255GARCIA, RENATO BALOTRO                                   0501
B0101408790000000039030ELEVEN KT1 HOLDINGS INC.                                 1602
B0101402770391039149001ASIA PACIFIC ACCELERATED CHRISTIAN                      11602
B0101402770391039149001SCHOOL                                                  21600
A0101402770391366493001LYONS, JOSEPH CORBETT OR                                10501
A0101402770391366493001LYONS, JESSIE MARIE                                     20500
B0101405490000008380661GOLDENCITY NATURALS PHILS. CORPORATION                   1602
A0101405490392170475001ERNESTO A. CHUA OR                                      10501
A0101405490392170475001MA. SOCORRO R. CHUA                                     20500
A0101408400000001213461GARCIA, CORNELIA LIBREA                                  0501
A0101408950000010507165ABAYA-BLAS, ROSARIO SALUD                                0502
A0101408950396697080001DR. ROMULO L. MADRID OR                                 10502
A0101408950396697080001DR. EDNA M. MADRID                                      20500
B0101409180000008122832REDSCOPE COMMUNICATIONS, INC.                            1602
A0301400820000010907127CORTES, LIZA HONG OR                                    10504
A0301400820000010907127LEYSON, JEMMY LUI                                       20500
B0301400820000008623256CORTES, LIZA HONG DBU GOLDEN TOP                        11602
B0301400820000008623256HARDWARE                                                21600
A1201400150421200676001MAULBECKER, HEINRICH                                     0501
A0901400220432415094001**********                                               0502
A0101403030000008089312**********                                               0501
B0101403030441037143001REYCO INDUSTRIAL SALES CORP.                             1601
A0101403030441239023001**********                                               0501
A0101403030441384597003**********                                               0501
B0101403320000012967832PRINCE KEAN WELLNESS CENTER                              1601
A0101403320471039955001SQUARE METER TRADING & CONST.                           10503
A0101403320471039955001OR LITO PASCUAL                                         20500
A0101403320000004830911726RADLEY TRADING                                        0501
B0101406330472034852001CAGUINGUIN, AMBANTA AND ASSOCIATES                       1603
A0101406330472206499001LUZVIMINDA H. GERONIMO OR                               10502
A0101406330472206499001LUZDIVINA H. GERONIMO                                   20500
A0101406330472213789002MELCHOR V. JOSE                                          0501
A0101406330472386186001DIETRICH L. ROMUALDEZ                                    0501
A0101406330472509809001SHERRYL T. YAP OR                                       10501
A0101406330472509809001DIETRICH L. ROMUALDEZ                                   20500
A0501400170000006300743ARENOS, EMMANUEL TAMINAYA                                0501
A0501400170000013455988FERNANDEZ, ANN ROWENA CO DBU DA                         10501
A0501400170000013455988GUPAN CONTEMPO ENTERPISES                               20500
B0501400170481256535001NORTHERN LUZON MARITIME TRAINING                         1602
A0501400170000001072713ANG, JUSSLYNN MAISIE ONG                                 0501
A1901400320000002296051GONZALES, MARY GRACE NICHA                               0505
A1901400320000011382762PADRILAN, SHERYL ALMAZAN                                 0501
B1901400160491012587001BSU CREDIT COOPERATIVE                                   1602
A1401400110000011179474ESPINA, PAMELA BABAO                                     0502
A1401400110000000132841*******                                                  0501
A1601400170000001069056CHRISTOPHER S. CO                                        0505
A0701400260000009912934REODIQUE JR., RODOLFO BADIOLA                            0501
A0101403900501456168001TUMAMAO, GEORGINA AQUINO                                 0501
A0101403580000000922587EVANGELINE O. MARTIN                                     0501
A0101403580000012314691CARINO, RUSHELL PABALAN                                  0502
B0101403580511005591001PUHUNAN INC.                                             1603
A0101403580000000016082SWEET BELLA DESSERTS                                     0510
A0101403580511156550002SARITA S. GARRATON                                       0503
A0101403580511289190002SERAFICO PLACER OR VERNIE BUNO                          10510
A0101403580511289190002OR GREZILDA DENSING                                     20500
A0101403580511420184003MARIA CAROLINA S. MACASAET                               0525
B0101405940512034257001STERLING PAPER PRODUCTS ENTERPRISES INC.                 1605
A0101405940512285942001LEUS, ROMAN OR LEUS, MICHELLE                            0501
A0101405940512360728001ERWIN P. HERNANDEZ OR                                   10501
A0101405940512360728001AGNES T. HERNANDEZ                                      20500
A0101408530000000136212ALBA, NOEL JOSE TORRES OR                               10501
A0101408530000000136212ALBA, CESAR JOSE TORRES                                 20500
A0101408530000007981813MOJICA, ALLEN ALBERT                                     0501
A0101412050000001499772ANTONIO, JUDY VICTORIA ROMAN                             0501
A0101412050000002314494********                                                 0502
B0101403450521026315001**********                                               1602
A0101403450521310248001**********                                               0501
A0101403610531219282001ALMENDRALA, FERNANDO GERODIAS                           10505
A0101403610531219282001OR ALMENDRALA, PAULINA                                  20500
A2201400250561558363001JOSEPH B. SAWIT OR                                      10501
A2201400250561558363001JOSEFINA B. SAWIT                                       20500
A0101404130601027289186GERARD CASUGBO                                           0501
B0101404130000000321560ASSIST AND ASSISTANCE CONCEPT INC.                       1605
B0101404130000009342376PROVENTA CONSULTING LIMITED                              1601
A0101407720602294877006REBECCA B. SINGSON                                       0505
A0101407720602397131002**********                                               0501
A0101407720602397820001SIBAYAN, SANTIAGO ANTONIO B.                            10501
A0101407720602397820001OR SIBAYAN, SUSAN                                       20500
B0101404260000000156972PRIME POWER MANPOWER SERVICES                            1650
B0101404260000000156972PRIME POWER MANPOWER SERVICES                            1650
B0101404260611043081001EUMAN ENTERPRISE                                         1601
A0101404260611150843001MA. GLORIA A. SUNGA                                      0502
A0101404260611478374097MILA B. RIELO                                            0501
A0101404260611478374126MA. GLENDA C. TUPAS                                      0501
A0101411530000005493621AGRIPINO ESTRELLAS JR OR                                10501
A0101411530000005493621IMELDA ESTRELLAS                                        20500
A0101413570656057648016CHERRY BATION                                            0501
A1301400210000000983768BULAONG, BERNARDITHA NOLASCO                             0505
A1301400340683249082002RICARDO HERMOSO II OR                                   10501
A1301400340683249082002AGRIPINA HERMOSO                                        20500
A1301400340683354337001RUIZ, MA. ANTONIA ALDABA                                 0501
A1301400500000002063992JOSHUA & JAMES CONSTRUCTION                              0502
A1301400500684594780002CASTRO, RAYMUNDO OR                                     10502
A1301400500684594780002CASTRO, ROSEMARIE                                       20500
A0101408240711372530001********                                                 0501
A0101408240000000347288MIRCHANDANI, SHERYL SHAM                                10501
A0101408240000000347288OR MICHAEL OR LALA                                      20500
B0101408240711492799001CENTER FOR INFECTIOUS DISEASE AND TRAVEL                11602
B0101408240711492799001MEDICINE-CIDTRAM                                        21600
A0101408240000012882481MAKASAKIT, ELIZABETH ROCHA                               0501
A2801400230000012228294ESPIRITU, IRENE CRUZ                                     0501
A4101400260000013704371CASALA, CHRISTOPHER BRYAN TOLEN                          0501
A4101400260000013704422DIAZ, NIGUEL JOHN LOZADA                                 0501
A4101400260000013704382ALONZO, DRANREB LANUZA                                   0501
A4101400260000013704393GALICIA, CRISTAL GRACE QUINONES                          0501
A4101400260000010623622SERCOSO, ESTER C. DBU CHL                               10502
A4101400260000010623622DIGITAL PRINTING AND SCHO                               20500
A4101400260812299913002CAMPOS, FILOMENA OR CAMPOS,                             10502
A4101400260812299913002BERNIE OR CAMPOS                                        20500
A4101400260812332370002SIN, SUNG CHUL                                           0505
A4101400260812478374067LAZARA A. SALAGUINTO                                     0501
A4101400390000000048542MISA, DARWIN ONSIANGCO                                   0501
A4101400390813046444001MARIA VICTORIA H. ARMESTO DBU                           10501
A4101400390813046444001MAESTRO'S BUSINESS CONSUL                               20500
A4101400420814357382003REMULLA, GILDA VASQUEZ                                   0501
A4101400550000003839087PAHIMNAYAN, ALDWIN SALAZAR                               0501
A4101400550000000900332FABIAN, APRIL JOY BORRES                                 0501
A4101400550815478374010CRISTINO, DANA JAMAICA                                   0501
A4101400550815693134001LLANES, TUDOR HERNANDEZ OR                              10501
A4101400550815693134001LLANES, PRESCILL                                        20500
A0101412340000004360310JOVILYN C. ESTARIS                                       0503
A0101412340000009501133JOSEPH RAMON L. CAMPOS                                   0510
B0101404840851036636001JAMMAS(JANITORIAL MAINTENANCE MANPOWER &                11603
B0101404840851036636001ALLIED SERVICES)                                        21600
A0101404840851041506001RVL MOVERS CORPORATION                                   0502
A0101404840851316655037EDUARDO CON-CON                                          0501
A0101404840851478374062VIOLITA V. GIDUCOS                                       0504
A0101406750852071621001DELA CRUZ, MARY QUEENIE MAE M.                           0501
A0101413860000000145020DASIGAN, ANGELITA GONZALES                               0501
A0601400230891380832001ANGELITO OR MARISSA LOPEZ                                0502
A0601400230000001687232CHRISTLE M.TUNGUL OR                                    10503
A0601400230000001687232LIONEL M. TUNGUL                                        20500
