F0101400860011038338001ANGELS AT HEART FOODS SHOP                               2502CKO
F0101400570281460855001SITIO REMEDIOS HERITAGE CORPORATION                      2610CKO
F4101400260000001198745VILLANUEVA, MARIA VILINDA ENDAY                          2502CKO
F4101400390813039464007MISA, DARWIN O.                                          2501CKO
