B0101403580511821100608**********                                               2020
B2201400250000000016913ABRAHM CHASE CORPORATION                                 1601
B0101410720653043060001METRO DRY CLEAN VENTURES, INC.                           1603
A1101400120000001920576EDER, CONCORDIA ECO                                      0502
A1101400120313478374094AGAPITO, ROSA P.                                         0502
A2901400130000006737739TEMPLONUEVO, GERICK MARIBOJO                             0502
A0101402060351009359003JIANDANI, SURESH G. OR                                  10501
A0101402060351009359003JIANDANI KAVITA                                         20500
A4101400550000000506814DALAGAN, CATALINO B. OR                                 10504
A4101400550000000506814DALAGAN, TERESIT                                        20500
A0101400860011350677001**********                                               0501
A0101400860011799843001**********                                               0501
A0101400150000007280408ABANADOR, CHRISTIAN JAY MABITAS                          0501
A0101400150000004915282ESPINA, ANNIE MAY MANAMPAN                               0502
A0101400150061327908001CRUZ, FERNANDO PADERES                                   0501
B0101400600071396916001II                                                       1605
B0101400600071396921001**********                                               1605
B0101405810072029570001PLASTIC CONSUMER CORPORATION                             1603
B0101405810072412798001**********                                               1603
A0601400100081518167001BASA, GOMER PANLILIO                                     0501
B0601400360000003186645PUNTA DESIGN INCORPORATED                                1602
B0101413730000000144692*************************                                1601
A0101414090000004803623RELOVA, CHRISTIAN MABANTA                                0501
A0101414090000006211278TAN, NUKI OVEJAS                                         0501
B0101400730000005593597NATASHA SALES & MARKETING CORP.                          1602
A0101400730111201344001LUI, CHI WAI OR LUI, ADELE                              10502
A0101400730111201344001SALIGUMBA                                               20500
A0101401830141349607001AGNES G0 GAISER - BURAC                                  0501
B5001400170000000169711LIM, EDDIE ONG OR LIM, GEORGE ONG                        1605
A0101412920000005354296ABROGENA, SHARON LOPEZ                                   0501
A0101412920000000276500SALUDEZ, RICARDO JR. DAR DBU                            10502
A0101412920000000276500LIBERTY STONE SU                                        20500
B0101412920000000276562ALPHA STONEWORKS ENTERPRISES                             1602
A0101400440000000137346DE CASTRO, FELIXBERTO PANSOY                             0501
B0101400440161037561001FLUXLINE INDUSTRIAL & ELECTRICAL                        11602
B0101400440161037561001DISTRIBUTION SYS                                        21600
A0101400440161478374010VIVIAN T. REGALARIO                                      0502
B0101407270162019525001CASTFOOD CORPORATION                                     1602
A0101407270162044304001KELVIN MARKETING                                         0501
B0101407270000000010151TIHIK.COM CORPORATION                                    1605
A0101407270162493078001GINNY M. OCAMPO                                          0502
A0101401090000004753851AIJP FOOD SERVICES                                       0502
A0101401090171195984002PURA RODRIGUEZ-CAISIP M.D.                               0505
A0101401090171346372001MARIA LUALHATI C. CLUTARIO                               0505
B0301400950000002115851**********                                               1603
B0101401380201018537001VELUZAR(PASAY) INC.                                      1601
B0101410720653022858002FOODKING CUISINE & SERVICES INC                          1602
A0101410720653452116001VIRGILIO R. BACQUEL JR.                                  0501
A0101410720210479517001MEDINA, ADELE MERCEDES SOLON                             0501
A0101410720210570600001DELA CRUZ, ASSHLEY UY DBU                               10502
A0101410720210570600001JAMINIC ENTERPRI                                        20500
A0101410720653693151001SAMBRANO, CARMELITA ASIS                                 0501
A0101412500000003289992FELARCA, ROBERTO AUGUSTUS FAJAR                          0501
A0101413600000007730454YURI B. LITERATO                                         0501
A0101413600000002122361YOLANDA S. SELARDE DBU MCARKHOS                         10502
A0101413600000002122361TRAINING CENTER AND CORDE                               20500
A3001400130000006145228DEDICATORIA, ROMEO DBU LCM MARK                          0505
A0101401670271217175002TERESITA OLIVEROS OR                                    10503
A0101401670271217175002GREGORIO OLIVEROS                                       20500
A0101401670271333076001BENJAMIN C. VICENTE                                      0502
B0101406620273020543001GOLDEN DRAGON INDUSTRIAL CORPORATION                     1602
B0101406620273037461002FIRENZE CORPORATION                                      1602
A0101411110276448822002SYJUICO, WILCON JOHN CHRISTOPHE                         10501
A0101411110276448822002OR SYCUICO, DORELENE D                                  20500
B0101412470000000949544BEYOND METRO POINTE GREENHILLS INC.                      1602
A0101400570281186536001DR. MERCY ANTOINETTE GAPPI                               0502
A0101400570281508723001RAMOS, ROBERTO VILLARAMA                                 0502
A1101400120000003981306AGULLO, JEFFREY ARTATES                                  0501
A1101400120313094914001CHU,VISITACION UY OR CHU, GARY                          10501
A1101400120313094914001OR HO,EVANGELINE                                        20500
B1101400120313539341001PORAQUE, VICENTE TAN    JT                               1602
A1101400120313549737002YU, RONNIE LIM                                           0501
A0101402350321459520001TIU, DANTE TAN OR JUAN PUAN TIU                         10502
A0101402350321459520001OR TIU, DAN CARLO                                       20500
B0101405650322006303001GIL'S TRADING                                            1605
B0101405650322025100001GLOBAL PACKAGING SYSTEMS AND MATERIALS                  11601
B0101405650322025100001CORP.                                                   21600
A0101405650000002325548GREGORIO, DALMACIO HILARIO                               0501
A0101402510341036645001MANG INASAL RESTAURANT                                   0501
A0101402510341433983003********                                                 0505
B0201401020000000005023***************                                          1602
A0101408370382211448001DR. JOSE PAOLO A. PRADO                                  0501
A0101408370382728827001AGNES B. GALURA-FAMERO                                   0503
B0101402770391040285001FRONTIER ELECTRONIC TRADING                              1604
B0101402770391040288001CYBER FRONTIER ELECTRONICS TRADING                       1604
A0101402770391211308001*********                                                0506
B0101408400394565771001W VENTURES, INC.                                         1601
A0101408950000003439285ABEDO, MICHELLE PEREZ                                    0501
A0101408950396047389001MELROSHEAN CONSTRUCTION                                 10505
A0101408950396047389001CORPORATION                                             20500
A0101408950396405202001MONTECASTRO, NATHALIE TEE TEN                            0502
A0101409180000003780392JAO, ERICH LESTER                                        0501
B5501400120410042322003TRUMPH MOTORCYCLE CORPORATION                            1601
B2401400180411057100001L.H.E. CONSTRUCTION & INDUSTRIAL                        11604
B2401400180411057100001SERVICES, INC.                                          21600
A0101412890000002324294AUJERO, NETHEL LEAL                                      0501
A0101412890000005913442*****************                                        0501
B0101406330472020438001DAROMAR DEVELOPMENT CORP.                                1610
A0101406330472478374037LOLITA D. AMADOR                                         0501
A0101406330000000451216MARIBEL P. ZAFE OR                                      10503
A0101406330000000451216NOEL B. ZAFE                                            20500
A3801400170000002302852NICA RAVEN A CHUA                                        0501
A3801400170490062585001FANCUBIT AGRICULTURAL SUPPLY                             0501
B1901400160491012917001ALPS THE BUS INC.                                        1610
A1401400110492222234003MARTINEZ, FERNANDO PELIPADA OR                          10504
A1401400110492222234003MARTINEZ, MA. LU                                        20500
A1401400110492417709001BARRIENTOS, JOSEPH RUSSEL P.                             0501
B0101407430503022062002PEOPLE'S AIRPORT SERVICES CORP.                          1605
B0101407430503028318001LONGHORN TRANSPORT SERVICES INC.                         1605
A0101405940000005067921CATHERINE CHIQUI F. DIONISIO                             0501
A0101408530000002980738*****************                                        0501
A0101411790000000039358RANGAS, ADILYN VILLARMIA                                 0502
A0101403450521238594001**********                                               0501
A0101403610531220657002SOUZA, TERESITA YAMBAO                                   0503
B0101404000551386046001PERCEPTION GAMING INC.                                   1610
A2201400250561037321001PTT NORTH RAMP GASOLINE STATION                          0501
A0101407720000004659150GRUENBERG, JANICE MARIE VELASCO                          0504
A0101407720602163482001RAYNATO R. KASILAG                                       0504
B0101409920000003672013ANGELICA DL MOJICA CORPORATION                           1602
B0101413570000000206540KASECO HOMEOWNERS ASSOCIATION INC.                       1601
A0101413990000006768558HERRERA, BOBBY L.                                        0501
A1301400210000000983757RODOLFO C BONIFACIO OR                                  10505
A1301400210000000983757YOLANDA S BONIFA                                        20500
A1301400500000002063963NICOLAS, JAY JOSEPH GARCIA                               0502
A1301400500000000213312RAMOS, LORINO IBERIO ARZADON                             0502
A4101400420000004848073GUEVARRA, BALTAZAR BARTOLOME                             0501
A4101400420000000710563RAPI, CANDY S OR RAPI SR.,                              10502
A4101400420000000710563NESTOR M                                                20500
A4101400420814478374171MICHAEL G. RIBOT                                         0501
A4101400420814520766018SARINAS, ARLENE S.                                       0501
A0101404840000005396949ESPORLAS, AURA AREVALO                                   0502
A0101404840851368068003BALAGTAS, ROWELLDA CHIONG                                0502
A0101406750000006303395BRIZUELA, RHEA GUIRIBA                                   0501
