B1101400120313821100608**********                                               2005
A1101400120000000065110BOLECHE, CLARA GACUTAN                                   0501
A0101412890000002747846SISA, J DBU OYS MARKETING                                0502
A0101400150000002902569RACHO, DONNA VICEDO                                      0504
A0101400150000000253278GELANO, ANGELO RECTO                                     0501
A0101400440000003705877INDANGAN, BABEY POLAYAGAN                                0504
A0101400440000001439732ANALY M. VILLARMA                                        0501
A0101400440161520766147EVANGELINE GARAY                                         0501
A0101400440161525001125MAY M. RAMOS                                             0501
A1001400350233478374026ANNABEL ESTOMO                                           0501
A1101400120313478374071ZACARIAS, MARIA FE C.                                    0502
B2001400290315636080001LIM, HERBERT VALDE OR                                   11601
B2001400290315636080001LIM, HENRISA                                            21600
A0101408370382502189001CECILIA ANNA E. MOLINA                                   0501
B0101408950000000036848ST. LUKE'S MEDICAL CENTER (GLOBAL CITY)                 11603
B0101408950000000036848EMPLOYEES ASSOC                                         21600
B0101412890000000006942SOLID INTEGRATED COMPANY, INC.                           1601
A4101400420000004847929CARRILLO, BELLA RECANA DBU EHOB                          0501
A4101400420814520766119OMNOS, NOVA DESCARTIN                                    0502
A0101405070861321046001MARK LAURENCE V. LEBRIA OR                              10503
A0101405070861321046001GERLY D.C. LEBRI                                        20500
A0101400860011392490001**********                                               0505
A0101400860011394300002**********                                               0503
A0101400860011474911001**********                                               0503
A0101400150000005729353PEDROSO, DAN CARLO ARCANGEL                              0501
A0101400150061337098165ANNABEL C. LEE                                           0502
A0101400150061508836001ERIC LIM LEE OR CHRISTINE LEE                            0502
A0101400730000004948683MENCHIE T. ALCORAN                                       0502
A0101400730111361187001RAYMUNDO JR, JOSE MARCELO                               10503
A0101400730111361187001& OR MARILOU C.                                         20500
B0101400730111579627001RED PLANET HOTELS PHILIPPINES CORP.                      1605
A0101400730111587293001AGAD, JENNILYN VALEZA                                    0501
A0101401830000000033729ABEJAR, SUSAN GAUNA                                      0501
A5001400170000000044971PULVERA, MIA HUANG OR                                   10501
A5001400170000000044971PULVERA JR., MATEO MILAR                                20500
A0101400440000002034913CLARICE PORRAS                                           0501
A0101400440161459294001MARY ANN T. REGINALDO                                    0502
A0101401090171342914001ELIZABETH ANGELICA L. ROASA                              0502
A0301400530000001409785VILLANUEVA, MELISSA MAY MATA                             0502
A0301400530193583614088VILLANUEVA, MELISSA MAY OR                              10502
A0301400530193583614088VILLANUEVA, PHIL                                        20500
A0301400530193729179088VILLANUEVA, PHILIP OR                                   10502
A0301400530193729179088VILLANUEVA, MELI                                        20500
A0301400950000003249916HERRERO, SAMANTHA JANE CANETE                            0501
A0101401380000000682753LIM, ALFONSO MANGIN                                      0501
A0101410720000001602302POZON, B DBU I.P.W. TRADING                              0502
A0101410720000001602313DALAWAN, M DBU MEDAL INDUSTRIAL                         10501
A0101410720000001602313MARKETING & SERVICES                                    20500
A3101400870000000074786KARUNUNGAN, ALLAN MALALUAN                               0502
A3001400130000001261283LIM, EDGAR ALLAN DIAZ                                    0501
A1001400190231036837001RTD MARKETING                                            0505
A1001400350000000922105FACTURA, JACKELOU CORONEL                                0501
B1001400350000000244368PHILIPPINE GAMS GENERAL INSURANCE AND                   11610
B1001400350000000244368FINANCIAL SRVCS                                         21600
A1001400480000002300270CABURATAN JR., DILFEN MAQUILING                          0501
A1301400470000002299789PAGSAMBUGAN, DANILO CRUZ                                 0502
A1901400290000003435663ANNALIZA PANGANIBAN GAMEZ                                0501
B1901400290261012814001PJ LHUILLIER, INC.                                       1605
B1901400290261043258001WYN POWER CORPORATION                                    1601
A1901400290000004366085CUENCA, NINA ANGELINA TANCHANCO                         10505
A1901400290000004366085DBU CUENCA JEWELRY                                      20500
A1901400290261057642002CUENCA, NINA ANGELINA TANCHANCO                         10502
A1901400290261057642002DBU CUENCA JEWELRY                                      20500
A1901400290261250069001DRA. JABES BUCE CARRASCOSO                               0505
A1901400290261321834001AIDA NINO PESIMO OR                                     10510
A1901400290261321834001NESTOR PALAYPAYON PESIMO                                20500
A1901400290261493025096DR CELESTE TOLENTINO                                     0501
A1901400290261585775001LITA CUETO MENDOZA OR DORIS                             10502
A1901400290261585775001MARIE MENDOZA MEDINA                                    20500
B0101411110276046529088BOOK MEDIA PRESS INC.                                    1610
A0101400570281022080002COSMOPOLITAN AD                                          0510
A0101400570281511482001CANDELARIO, HELEN MARIBAO                                0501
A2601400270000000084320GERVACIO S. MARFIL OR                                   10501
A2601400270000000084320REBECCA M. MARFIL                                       20500
A1101400120000002254899OBENA, ROSEMARIE GIL OPRIASA                             0501
B1101400120313821200608**********                                               2003
A6601400120314612866001ALCERA, JUNELL PAUL OR JENNIFER                          0504
B2001400290315052317001NRU TRADING                                              1610
B0101402350321035857001MOBICAR TRADING CORPORATION                              1602
A0101402350321564527001YANQUILING, NATIVIDAD G.                                 0502
B0101405650322022799002FUEGO LAND CORPORATION                                   1603
A0101402510341204057001CHARRY SO CHAN OR                                       10502
A0101402510341204057001STEVE LAWRENCE CHAN                                     20500
B0201400760000001612880DELTA FIVE AGRI-VENTURES CORPORATION                     1605
A0201400760374465762001******                                                   0505
A0201400920000002249965SEVILLA, JOCELYN OSORNO                                  0501
A0101402930381488888002EDWARD P. LIM                                            0501
A0101408370000002264068MYCAH S. CABALONA OR ANGELO                             10501
A0101408370000002264068ROMAN E. CABALONA                                       20500
A0101408790000006049276ESTRADA, JOHN ROGER DORIA                                0501
B0101415350000003212404REGENT FOODS CORPORATION                                 1602
B0101402770000000080635PHILIPPINE SKYBIRD INDUSTRIAL                           11603
B0101402770000000080635CORPORATION                                             21600
A0101402770391752292001JUANITA OR TOMAS OR BENJAMIN                            10501
A0101402770391752292001VICTORIA                                                20500
A0101405490392473716001RODRIGO C. SILVESTRE OR                                 10503
A0101405490392473716001MARLENE A. SILVE                                        20500
A0101405490392741525001JO A. BANAWA                                             0501
A0101408400000002921013GUMARO, S DBU RICHMAIN CONSTRUC                          0501
A0101408400394416106002BARRA, REINE NG                                          0501
A0101409180000006024146AILENE G. SOTELO                                         0501
A0101409180000003882428JEFFERSON TIO                                            0501
A0101409210000000043763ENDOZO, ANICIA Q. OR                                    10501
A0101409210000000043763ENDOZO, MELECIO                                         20500
A0301400820000000316710KWAN, PAO GAN LI OR KWAN,                               10503
A0301400820000000316710MARLON                                                  20500
A2401400180000001676980BAUTISTA, LUELLEN MABITAD                                0501
B2401400180411039574001ROS JETTI STATION                                        1602
B2401400180411276067001GAISANO DADIANGAS, INC.                                  1610
B0101403030441303324001**********                                               1602
A0101403030441337771001**********                                               0501
A0101412890000001765573******                                                   0501
A0101412890000004345044SILCOCK, PAMELA PALLON                                   0501
B0101403320471008859001NEW LITE LUMBER & CONSTRUCTION                          11602
B0101403320471008859001SUPPLY                                                  21600
B0101403320471206926002LOLITA B COLINA                                          1601
A0101410140000002307751DUNGO, ERNESTO LEGASPI                                   0501
A0101410140000002307819SAN AGUSTIN, NATIVIDAD BARCELON                          0501
A0501400170481285059001CHUA, CRISTINA YU OR                                    10501
A0501400170481285059001CHUA, STEVEN                                            20500
A1901400160000000243581ROMAN CATHOLIC ARCHBISHOP OF                            10502
A1901400160000000243581LIPA (RCAL)                                             20500
A1901400160000001718065BOSS HOBS SHOES AND                                     10502
A1901400160000001718065BAG REPAIR SHOP                                         20500
A1401400110492433218001MILLA, MAYNARD BUSTAMANTE                                0501
A1601400170000000421069CHARLES P. CLEMENTE III OR                              10505
A1601400170000000421069CHARLES L. CLEMENTE JR                                  20500
A1601400170000001360678LLENO, MARGIE REONAL                                     0501
A0101403580000000922645AUREA AGENA BUENSALIDA                                   0502
A0101403580000000016082SWEET BELLA DESSERTS                                     0508
A0101403580511036648001R2C TRADING                                              0501
A0101405940512152827001REULY M ULEP                                             0501
B0101406880513036413001VISAYA KNOWLEDGE PROCESS OUTSOURCING                     1606
A0101408110000002364832VELASCO, DANTE MARTINEZ                                  0502
A0101403450521238265001**********                                               0502
A0101403450521514344001********                                                 0505
B0101404000551046316001PHILAB INDUSTRIES, INC.                                  1605
A0101410690000000710712MONTEMAR, DONN DBU DHLM TRADING                          0501
B0101404130000002121551BOOMERANG CORPORATE OUTSOURCING                         11601
B0101404130000002121551SOLUTIONS INC.                                          21600
A0101407720602785772001ESCUREL, CAROLINA NAGUIT                                 0503
B0101404260611034715001LAY BARE FRANCHISING CORPORATION                         1605
A0101404260000000532056REGINA C ALTO                                            0501
A0101404260611703483001BENDANILLO, THELMA PALENTINOS                           10503
A0101404260611703483001AND PINGOL, ENRI                                        20500
A0101407690000000154750BARANGAN, ROMEO DBU                                     10503
A0101407690000000154750BARANGAN TRADING                                        20500
A0101407690000001919913JAIRUS RAE ENTERPRISE/                                  10501
A0101407690000001919913BOBBY ALEJO                                             20500
A0101407690652496446002BUNSAY, LYDIA GUEVARRA                                   0501
A0101407690652520766035EMILDA R. TAMAYO - DEALERS OF                           10501
A0101407690652520766035SHOECAT, INC.                                           20500
A0101411530000006094351CATINDIG, ELIZABETH ANN FERNAND                          0501
A0101411530000006094391DELA CRUZ, OLYMPIA QUILANG                               0501
A0101411530000006094431RAVELO, NYMLA CATADMAN                                   0501
A0101411530000006094471TAN, RAYMIR JOHN TANDICO                                 0501
A0101411530000006094533TEPAUREL JR., JAIME FRANCISCO                            0501
A0101413990000000205898**********                                               0502
B0101410300000000191586MEJIA, MELODY ANNE DBU MEE NOODLE BAR &                 11602
B0101410300000000191586RESTAURANT                                              21600
A1301400340683776169001BARAQUIEL, JOCELYN LIM                                   0502
A1301400500684594780002CASTRO, RAYMUNDO OR                                     10502
A1301400500684594780002CASTRO, ROSEMARIE                                       20500
A0101408240000000005461SANCHEZ, MARIANO ALTOBAR                                 0503
A0101408240000000521771CASTILLO, JUAN MIGUEL DOMINGO                           10501
A0101408240000000521771JT                                                      20500
A0101408240000003955391MARZAN, BELEN CAPILI                                     0501
A4101400260812433882001JOSIE GRACE L. AZORES                                    0502
A4101400260812519502001APOSTOL, JESSIE BOY MARTINEZ                             0502
A4101400390813378814001GIGI D. ABOGADO                                          0501
A4101400420814405395001PIAMONTE, ARSENIO VILOG                                  0501
A4101400420814520766034LEONIDA M. OBELIDOR                                      0501
A4101400420814520766064ANDAYA, AURORA A.                                        0502
A4101400420814520766138SAN PEDRO, ANA LIZA                                      0501
A4101400550000003266915ALONSO, MICHELLELIZA PEREZ                               0501
B4101400550000000900092MC BASSIG CATERING SERVICES, INC.                        1601
A0101412340000004360321CELINE M. PALOMA                                         0502
A0101404840000000085107JELLA M. GERONIMO                                        0502
A0101404840000000943260AGOSTO, ANALYN HAYAHAY                                   0501
B0101406750000000090560NATURESCAPE SERVICES INC.                                1610
A0101405070861399414001RACELIS, DENNISE DINAQUE                                 0503
A0601400230000003015885MABBAYAD, MILANIE LAZARO                                 0502
A0601400230000003638891ALAJATI, C DBU ALPHA LANE CUSTO                          0501
