B0101408530516821100608**********                                               2005
B0201400890376821100608**********                                               2005
A0301400950000000566683CARISSA ANNE C. DELOS SANTOS                             0501
A1101400120000001920496ADONIS, LILIAN TOLIBAS                                   0502
A2001400290315688009001ALGOPERA, LLOYD GARCIA                                   0504
B0101408400394042570002HAP CHAN TRADING AND MANAGEMENT                         11603
B0101408400394042570002CORP                                                    21600
A0101403320471550493001VILLAMIEL, MARIA ANTONIA ESCASA                          0502
A0501400170000002357473QUINTO III, ALFREDO ARZADON                              0502
B0501400170000000494673QUINTO III, ALFREDO A./ YUCHONGTIAN II,                 11603
B0501400170000000494673JOSE NIELSEN/                                           21600
A0101403580511770331001MARISTELLA B. CLAUDIO                                    0501
A0101401250000000460564EVANGELISTA, ELAINE DEL ROSARIO                          0503
B0101400150061027012001PRECEPT MINISTRIES INTERNATIONAL OF                     11601
B0101400150061027012001THE PHILIPPINE                                          21600
B0101400150061044905001RISING TIDE MOBILE ENTERTAINMENT, INC.                   1605
A0101400150000002394932FORTEA, ROMEO B.                                         0501
A0101400150061227644001JOSEFINA T. GUTIERREZ OR                                10502
A0101400150061227644001MA. REGINA PAZ G                                        20500
A0601400100081358739002CHUA, IRENE ANUNCIACION REYES                           10502
A0601400100081358739002OR REYES, GLORIA                                        20500
A0101410560000001944083GABAS, EVANGELINE ESPONILLA                              0501
A0101400730111334462002MARIETTA L. ADORABLE OR                                 10501
A0101400730111334462002DOMINADOR S. ADO                                        20500
A0101400730111624597001QUIMO, LINDA CUNANAN                                     0505
A0101412630000006196267CHUA, CRISTINE DIMALANTA                                 0501
B0101401830000000059972CARITAS SALVE CREDIT COOPERATIVE (NOVA/                 11602
B0101401830000000059972ST.PETER) 010                                           21600
B7201400170000003773546L.C. CONSTRUCTION CORPORATION                            1606
B7201400170152060140001CERILLES, ACE WILLIAM E. DBU BOSS GYM                    1602
A0101400440000000821298DIOBET ERDIE I. DIOQUINO                                 0502
A0101400440161194113001MA. CYNTHIA S. CAJUCOM OR                               10501
A0101400440161194113001VIRGINIA CAJUCOM                                        20500
A0101407270000006189342MACATANGAY, RAUL MANALO                                  0501
B0101407270162037015003THERAYASCHOOL INC.                                       1605
B0101401090000000210573UST STUDENT ORGANIZATIONS COORDINATING                  11602
B0101401090000000210573COUNCIL                                                 21600
A0101401090171198513001CORAZON DE CASTRO TAN                                    0501
A0301400530000001409701******                                                   0505
A0301400660000001113795VILLADAREZ, RICHARD RANIS                                0501
A0301400950000002251970CEZAR B. BETONIO OR                                     10502
A0301400950000002251970EMMA M. BETONIO                                         20500
A0101412500214060210001ANGELES,GALELEO DBU G.P.ANGELES                         10501
A0101412500214060210001& ASSOCIATES LAW OFFICE                                 20500
A3101400160221478374053CHRISTOPHER D LISING                                     0501
A3101400740000002634740JABOLA, MICHAEL CONTRERAS                                0502
B1001400190231022229001CITY ALLIANCE CHURCH                                     1601
B1001400190231272340001SIA, TOMAS C. OR GINA B.                                 1601
A1001400190231520766112ALIBIO, NELYBETH TACBOBO                                 0501
A1301400470000000061463DEUS, MARIA ELNORA DE GUZMAN                            10505
A1301400470000000061463OR TAGO, ANA LIZA VELARDE                               20500
B1301400760000000050860ENCORE LEASING & FINANCE CORP.                           1601
B1301400760000000050871ENCORE LEASING & FINANCE CORP.                           1601
B0101406460272017045001INFORMATICS COLLEGE-MANILA, INC                          1605
B0101406460272043457001TARSIER SECURITY AGENCY, INC.                            1602
A0101406620273505530001MANDANAS, NOEL MOTTIL OR                                10501
A0101406620273505530001CO, NANCY M.                                            20500
A0101411240000000629436LLONILLO, MARY GRACE OR LOPEZ,                          10503
A0101411240000000629436ELAINE OR TAN, MYRIAM                                   20500
A2601400270302567227001ROSITA TAN VALLE                                         0501
B0801400160311060028001GRANDCARS INCORPORATED                                   1601
A0801400160311478374070GENALYN M. BOTANERO                                      0501
A1101400120000001547520TAN, MELVIN NATHANIEL ANDRADE                            0502
A6601400120314040857002MEDLINE DRUG & MEDICAL SUPPLY                            0501
A6601400120314612856001FRANZUELA, SARAH S.                                      0505
A6601400120314770822001SY JR., LARRY OR SY, WILLIAM                             0504
A2001400290000001999804CUAL, BASILISA LIMPAHAN                                  0501
A0101402510000000200062BERNALDEZ, LIGAYA MACALINTAL                             0501
A0101402060351734699002RAMNANI, MICHAEL CHRISTOPHER OR                         10502
A0101402060351734699002RAMNANI, ASHOK                                          20500
A0201400890000005415350***************                                          0502
A0201400890376537955001****************                                         0501
B0201400890376821200608**********                                               2001
A0101402770391534166001SANTOS, DANTE CASTILLO                                  10502
A0101402770391534166001OR SANTOS, MARIA FLORA D.                               20500
A0101408400394478374094NUNEZ, GENIE                                             0501
A0101409180000006071212DAPHNE JOYCE ROSALES                                     0501
A0101409180397635600001MANALO, JOSHUA ALEXANDER SALGAD                          0501
A5501400120000002019078AGUERO, RONNIE SUMBLINGO                                 0501
A5501400120000002348325ANG, ANDY MAN CHUNG CHANG                                0510
A5501400120000002949622SANDIG, EDGARDO REYES                                    0501
B5501400120410044008008FRANCISKOZ MOTORCYCLE PARTS,SRVCS &                     11605
B5501400120410044008008ELEC. SUPPLIES                                          21600
B5501400120410044488008**********                                               1605
B5501400120000000046893GRV FAMILY COMMERCIAL, INC.                              1620
A5501400120410636168001SUENO, JOCELYN BERNARDO                                  0504
A5501400120000000265850SUENO, ISMAEL JADE BERNARDO                              0503
B5501400120410654342008SAY, CLETO OR FELING OR HELEN OR DANNY                   1610
B5501400120000005492526DELA PENA, MARIA HENRIETTA CHIU  JT                      1603
A5501400120410719328001ILAO, YOLANDA CASTILLO                                   0501
A2401400180411478374027ELLEN PANTUJAN OR                                       10501
A2401400180411478374027ELMER PANTUJAN                                          20500
A2401400180000000826102SORIA, DONNA DONES                                       0501
A2401400180411605033001SERRANO, DANIEL EMBAYARTE OR                            10505
A2401400180411605033001SERRANO, SYLVIA                                         20500
A1201400150421036214001PINES ARCADE                                             0501
A1201400150421776673001CORREOS, GEROME DUA                                      0503
B0101403030441031034002**********                                               1610
A0101403030441239049001**********                                               0501
A0101403320471464342002EILEEN PEREZ OR                                         10501
A0101403320471464342002FELICISIMO MICHAEL PEREZ                                20500
B0101406330472021511003ASSOCIATED WIRE CORP. OF THE PHILS.                      1602
A0101406330472027958001A. ANOLIN ENTERPRISES                                    0502
A0101406330472296884001JAYLEE TRADING                                           0502
A0101406330472372718001PRISCILA BADELLES                                        0502
A0101406330472573166001ROSA Z. TIUTING                                          0501
B0101406330472654676001KEVIN SQUARE-CIRCLE APPAREL, INC.                        1602
A0101410140000001940132BUENAVENTURA, MARY ANN MENCIAS                           0501
A0101412760000001399306BALMEO, DEXCESTER MARIE PARRO                            0501
A0501400170000001072713ANG, JUSSLYNN MAISIE ONG                                 0502
A3801400170490771120001ROMEL B DEINLA OR                                       10501
A3801400170490771120001ELVIRA A DEINLA                                         20500
A1901400160000002291501KERVIN FRANCIS DE LA CRUZ LIM                            0501
B1901400160491027966003SALESFORCE ONE MARKETING, INC.                           1603
A1401400110492228930001ABUEDO, ESTELA S.                                        0503
A1401400110000001806873BUERA, ALICIA NARVAEZ                                    0501
A0101403580511150737004LUIS JUAN L. VIRATA JT                                   0510
B0101403580000000214713OFFICE ESSENTIALS SYSTEMS                               11605
B0101403580000000214713FURNITURE INC.                                          21600
A0101403450521239350001**********                                               0506
A0101403610531478374002GRAPE, IMELDA HANDOG                                     0501
A2201400250561478374025LUZMINDA M. GACILAN                                     10501
A2201400250561478374025MEMBERS OF NATASHA                                      20500
A2201400250561566764001ANNABELLE A. MONATO OR                                  10501
A2201400250561566764001ANGELA MICHELLE  A.MONATO                               20500
B0101404130601045903001SEIKI DIGITAL PH INC.                                    1603
B0101404260611005305001KING EPIPHANY HOLDINGS AND                              11602
B0101404260611005305001PROPERTY CORP                                           21600
A0101404260611018041001JP LONEZA CONSTRUCTION                                  10502
A0101404260611018041001& TRADING                                               20500
A0101404260611774129001MARIA D LOCQUIAO                                         0502
A0101407690652169028001MEDRANO, ROMEO CASAPAO                                   0502
A0101407690652542581001POLINTAN, MIRASOL TORIBIO                                0501
A0101410300000000026491NAZAL II, ROBERTO GERARD LOPEZ                           0501
A1301400210000002909022DONATO, EDNA FRENESI ESPIRITU                            0501
B1301400210682016750001JFL AGRI VENTURE SUPPLIES                                1606
A1301400210000000023229FRANCISCO P CABOTEJA                                     0501
B1301400500000001412275ANTONIO E. ONG AND ANGELO C. ONG                         1601
A0101408240000000347299BENDITA, MICHELLE DELOS SANTOS                          10501
A0101408240000000347299AND AQUINO, MARILEN                                     20500
A0101408240711402864001GUERRERO, EDITHA OR                                     10501
A0101408240711402864001NARCISO, LEONARDO                                       20500
A0101408240711689316001DEL ROSARIO, EULA DEENETH B.                             0501
B2801400100712017643001MAGELLAN'S GALLEON MARINE, INC.                          1605
A2801400100712378394001REYNOLD JOHN B. MADAMBA OR                              10501
A2801400100712378394001ANNE RAQUEL S. M                                        20500
A4101400390000000379293ICASIANO, BRYAN VALERIANO                                0503
A4101400390813079906001ESPIRITU, GEMILLON PILONES                               0502
B0101404840851041585009TOM'S WORLD PHILIPPINES CORPORATION                      1603
A0101404840851217637095MELINDA VILLAGOMESA                                      0501
A0101404840851317230019FURAGGANAN, GENE C.                                      0502
A0101406750852687669001ALVAREZ, PRESENTACION M. OR                             10501
A0101406750852687669001ALVAREZ, MA. PRECILLA M.                                20500
B0101405070861036521001VICTORIA MANSIONS INC.                                   1602
A0101405070861202773002HUI, CHING CHUEN                                         0501
A0101405070861339825001DINO JR., DOMINGO VARGAS                                 0501
A0101405070861478374086MARLYN C. GABEST                                         0502
B0601400490890821100608**********                                               2001
B06014002300000036448207R FINANCE CORP.                                         1605
A0601400230891627261001RAMOS, ANGELITA BAUTISTA                                 0502
B0101417550410482000011**********                                               2002
