B0301400530000000025378D' UNIBUENAS CORPORATION                                 1602
A0301400530193738511001GAMENG, RUBEN ABAYA                                      0502
B0101402770391027350002STRATEGIC DISTRIBUTORS, INCORPORATED                     1601
A1201400150421039385001JL'S CLEAN UP JANITORIAL &                              10502
A1201400150421039385001MANPOWER SERVICE                                        20500
A0101412890000001056575UDOG, MA GINA SAN PEDRO                                  0504
A0101410560000001944043GOODNESS & MERCY MOVERS                                 10503
A0101410560000001944043SERVICES                                                20500
B0101400730000000002591*****                                                    1601
B0101406040000000096640LINKEN-EXIN TRADING CORPORATION                          1605
A0101401960121240766001**********                                               0501
A0101400440161520766113MARIFE MANZANO                                           0501
A0101400440161525001033MARY JANE V. MACALINAO                                   0501
A0101407270000006289310ARNELENE C. PEREZ OR                                    10501
A0101407270000006289310RYAN CHRISTOPHER LIM                                    20500
A0101407270000006308534DOLORES T. CAZON OR                                     10501
A0101407270000006308534FELIPE CAZON JR                                         20500
A0101407270162333154023ROBERTO S. MENDOZA                                       0505
A0101407270162372845001ZORAYDA NATIVIDAD G. ZAGALA                              0502
A0301400790000002401729CHIN, RICHARD LAM OR                                    10501
A0301400790000002401729CHIN, EDWARD LAM                                        20500
A0301400950000004455538************                                             0503
A0101401380201179684001ANTONIA C. CUNETA                                        0504
B0101413020000000038435AVITEK ANIMAL HEALTH INC.                                1603
A3101400160221220998001DANILO C. CUEVAS                                         0502
B3101400450223040460001CREATIVE AUDIO VISUAL SOLUTIONS,INC                      1601
A3101400450223466114002NATIVIDAD, GINA DUNGO                                    0503
A1001400190231339933001MOORJANI, NOOR G                                         0501
A1001400190231478374083CHIONG, MARIVIC P.                                       0502
A1001400480000000133542GUINTO, CHARLOTTE JANE MAGO OR                          10502
A1001400480000000133542GUINTO, NEMER SARDEA                                    20500
B0101401670271026611001MERGE MARKETING STRATEGISTS INC.                         1602
A0101406620273339295001SEGUNDO B. DAYAG                                         0502
B0101411110000000604891NICHE PLAY INTEGRATED MEDIA INC.                         1602
B0101400570281047910001SACRED HEART OF JESUS PARISH-SVD                         1603
A0801400160311389143001CHAN, MILAGROS OR                                       10502
A0801400160311389143001CHAN, NATHANIEL                                         20500
A0801400160311478374106SORILLA, HAYDEE                                          0501
A6601400120314618149001DY, FRANCO NEIL TUBELLO                                  0503
A6601400120314648495001ADORA, GENARO TUBALLAS                                   0501
A2001400290000000924572MARTY, CRESLYNN MARIE CERINO                             0501
B0101405650322026870001TALIBON TRADING & INDUSTRIAL CORP.                       1605
B0101405650000005381886SMS CEBU, INC.                                           1605
A0101402510341087790002CALMA, RONALD, MORELOS, ANA                             10502
A0101402510341087790002FLORES, ANTON, AND FONTAN                               20500
A0101402510341392942001MANAHAN, ANTONINO ARTURO                                10501
A0101402510341392942001CONCEPCION                                              20500
A0101402510341487199001NESTOR B. ESTABILLO                                      0501
B0201400760374020279001*****                                                    1620
B0201400760374041914001OUROKU CORPORATION                                       1605
B0201400760374060310001NANAICHI RETAIL STORE                                    1603
A0201400760374537038001HO, RICHELIEU MARIANO SIA                                0501
A0201400760374720031001******                                                   0503
A0101408370000000586038QUINIO, IRENE BALLICAS                                   0501
A0101402770391476396001DEANNE A. SARMIENTO                                      0505
A0101402770391526213002*********                                                0501
B0101408400394042570001HAP CHAN TRADING AND                                    11605
B0101408400394042570001MANAGEMENT CORP                                         21600
A0101408950396726811001GERARD M. MORALES OR                                    10502
A0101408950396726811001REGINA ISABEL S.                                        20500
A0101409180000003882348SHERILL ENCARNACION                                      0501
B0101409180397044045001CACHO CONSTRUCTIONS, INC.                                1602
A0101409210000006310178VILLAMIN, EISHYL ANNE ROSELADA                           0501
B0101412210000003881196OUTOFOZ ENTERPRISES INC DBU NAME & STYLE                11602
B0101412210000003881196OF BACK PADDOCK                                         21600
B1201400150421013238001JARCO REALTY AND DEV. CORP.                              1625
A0101403030441578463001**********                                               0501
A0101412890000000371533JOSELITO B. PRAJIO AND MELINDA                          10504
A0101412890000000371533F. PRAJIO                                               20500
A0101403320000001803258RODEL A. DANGA                                           0501
B0101403320471561910001GRAND DECIMAL REALTY                                     1605
B0101409760474821100608**********                                               2001
B0101412760000002068048J.H. PAJARA CONST. CORP./ CTC CONST. &                  11606
B0101412760000002068048SUPPLIES (JV)                                           21600
B1901400160000000007467FIRST UNITED 23, INC.                                    1605
B1901400160491341189001VIRGINIA R VARGAS OR                                    11601
B1901400160491341189001RICHARD D LIM                                           21600
A1901400160491546773001IRENEA M ERLANO                                          0501
B0701400260000000041083MULTI-WARE ECON-SALES CORPORATION                        1602
B0101407430503045582001PRO FREIGHT INTERNATIONAL CORP.                          1602
B0101411400517821100608**********                                               2001
A0101411790000002276086LOZANO, CARLITO CULASI                                   0501
A0101412050000003966763DE LEON, ARTURO PUZON OR                                10501
A0101412050000003966763DE LEON, WILFRED                                        20500
A0101412050000006291409MEDRANO, BERNADETH DOMINGO OR                           10501
A0101412050000006291409ENRIQUEZ, KING LAWRENCE                                 20500
B0101403450521011749001TWF CUSTOMS BROKERAGE CORPORATION                        1610
A0101403450521649009001*************                                            0501
A0101404130601450094003LORQUEL PASCUAL OR ANNIE                                10502
A0101404130601450094003PASCUAL                                                 20500
A0101407720000002151439CUEVAS, MICAH ANGELI MASIAN                              0501
A0101407720000005100150CAPULE, PATRICIA FRANCISCO                               0501
A0101407720602332279002CAYCO, ANTONIO V. OR                                    10501
A0101407720602332279002CAYCO, MARGARITA                                        20500
B0101412180000001293049AUTO MAGIC CORPORATION                                   1601
B0101413570000003580681FERRER, MARK OLIVER AND                                 11601
B0101413570000003580681PARAGAS, ADLIN                                          21600
A0101414120000000398932R. ACOSTA ENTERPRISES                                    0502
A0101414120000000875914NHOEL JR. CONSTRUCTION                                   0502
A0101414120000003584150NICOLO-MARTIN MARKETING                                  0501
A0101406590662070270001INOCIAN, MARIA TSARINA OR                               10504
A0101406590662070270001PAJARO,VICENTE OR YOLANDA                               20500
B0101406590662639224001CURRENTCONCEPTS INC.                                     1603
B1301400340683353482001MARLENE R. JOSE OR JOSE MARI R. JOSE                     1602
A1301400340683388909001BALUYOT, AMELIA RENOSA                                   0505
A1301400340683453552002NATIVIDAD, EDUARDO PACHECO                               0502
A1301400340683542735002BIUNAS, REMEDIOS GREGORIO                                0502
A1301400500000001412388GERONIMO G. QUIZA JR. OR                                10501
A1301400500000001412388MA ROSELLE P. QUIZA                                     20500
B0101408240711024238001GEBO CERMEX PHILIPPINES INC.                             1602
A2801400100712401674002DEL ROSARIO, DANILO LARACAS                              0501
A2801400230000002312389DEMETRIO, MARVIN CULLADO                                 0501
A4101400260000001198563BACOLOD, SADAM SARIP                                     0502
A0101412340000000319453CEBRERO JR., LUIS CELI                                   0502
B0101412340000000031023OVIALAND INC.                                            1602
A0101404840851520766037MAGDALENE DE GUZMAN                                      0501
A0601400230000005185924GAJE, AGNES DBU JCG AIRCONDITIO                          0501
