F0201400180181063099001*******                                                  2601CK1
F1801400130151048770001MSU-IIT NMPC BURU-UN ILIGAN BR.                          2601CKR
F0901400190431038091001PEASE CORPORATION                                        2601CKR
F0101407430503026554002THE VILLAGE SPORTS CLUB                                 12605CKR
F0101407430503026554002VENTURES INC.                                           22600CKR
F0101403580511005485009P.J. LHUILLIER, INC.                                     2605CKR
F0101403580000000214720TRENDS AND CONCEPTS TOTAL                               12608CK1
F0101403580000000214720INTERIOR SOLUTIO                                        22600CK1
