B1001400190231821100608**********                                               2004
A0101400440000004901600FRAGO, INOCENCIA OSEO                                    0503
A0101400440000004901564DOVIE T. JERMIA                                          0502
A0101400440161418459001FRANCISCA R. AZURIN                                      0502
A0101400440161478374198EUFRONIA I. BERGONIA                                     0501
A0101413600000005355084KENYON S. CHEE                                           0505
B0101400150061010688010SB CARDS CORPORATION                                     1610
A0101400440000005393513GALVEZ, WILLIAM BORROMEO                                 0501
A0101400440000000596641LUZVIMINDA EVANGELISTA                                   0502
A0101400440161520766030JESSICA RAMILO                                           0502
A0101400440161520766189PRESCILA P. DOTONG                                       0501
B0101401670271041791001A PI SQUARE KINDER SCHOOL INC.                           1601
B0101401670271041791003A PI SQUARE KINDER SCHOOL INC.                           1601
A0101402060000002259925RICARDO, KEVIN CHRISTOPHER CORONEL JT                    0501
B0101400860011011416001**********                                               1601
B0101400860000000414133**********                                               1605
A0101401250000000460513CORDORA, JOSEFINA REYES                                  0501
A0101401250021468980001GENELYN C. CARTON                                        0501
A0101411370000003294882CHANDRASEKAR, SANJAY                                     0504
B0101400150061010809001VENDOME INSURANCE AGENCY KONSULT, INC.                   1603
A0101400150061231008001FILIPINAS T. PINSON                                      0501
A0101405810000001021172PUA, C DBU MCK SCHOOL & OFFICE                          10503
A0101405810000001021172SUPPLIES                                                20500
B0101405810072234719002***************                                          1605
A0101405810072373265003MANANSALA, JOYCEE CATARATA                               0502
A0101405810072441666001**********                                               0503
B0601400360000003186849TSS TRIXAN SUPPORT SERVICES                              1602
A0101401960121239340001***********                                              0504
A0101401960000001844522***************                                          0501
A0101401960000001844500**********                                               0502
A0101412630000005721842KUWABARA, SHERYL VILLASTIQUI                             0502
A0101401830141061615001DE LEON, JANINE ALYSSA DBU                              10501
A0101401830141061615001GOLDEN BIMBEE KITCHENETTE                               20500
A0101407270000001596810CHARL LESTER E. QUIJANO                                  0503
A0101407270162230614001ORTILE, RONALD ANGARA                                    0501
A0101407270162387970001******                                                   0503
A0101407270162739083005RICHARD A. CHAN                                          0501
A0101401090171196114001LEILANI M. ASIS OR                                      10503
A0101401090171196114001ROMULO Z. ASIS                                          20500
A0101401090171322573001DR. PORSHIA COMES-NATIVIDAD                              0501
B0301400660000006862640EMARCOS BUILDERS AND SUPPLY                              1601
A0101410720653452116001VIRGILIO R. BACQUEL JR.                                  0502
A0101410720653461660001NOCHE, MARIA CORAZON ALARCON                             0501
B3101400160221010055002CALAMBA LUMBER ENTERPRISES                               1605
B3101400160221027279002TORCHRESEARCH RESOURCES CORP.                            1605
A3001400130000001271790HERMOSADA, JAME DORIA                                    0501
B1001400190231014504006ROY D. TANCINCO                                          1603
A1001400190231478374067DAGANATO, NICANORA BALOS                                 0501
B1301400470000003270135EPS HAULING COMPANY INC.                                 1601
A1301400470000000009947LEA P. JOSE                                              0501
A1301400470252667113002**********                                               0505
A1901400290000000135220MARGGIE LUMBERA SALES                                    0501
B1901400290000001363086MARIELLE JOY T ARGONZA AND LOU VINCENT J                11601
B1901400290000001363086RODRIGUEZ                                               21600
B1901400290000008200713NATHANIEL FANDINO OR CHIARA DE LA PAZ OR                11601
B1901400290000008200713JOSE MIGUEL CRUZ                                        21600
A1901400290261470375002NORA BUQUIR MIRAL                                        0501
A1901400290261488341075DR. HELEN BAUTISTA DY                                    0502
A1901400290261488341090ROMULO ROMMEL L ROSITA                                   0501
A1901400290261488341159DR. JOSEPH E MANGONON                                    0502
A1901400290261585775001LITA CUETO MENDOZA OR DORIS                             10502
A1901400290261585775001MARIE MENDOZA MEDINA                                    20500
A1901400290261689596001MARY ERNESTINE C COLUMBRES                               0501
A0101401670000003181586LOBARBIO, JANICE CLARETE                                 0501
B0101406460272038032004WEE COMMUNITY DEVELOPERS, INC.                           1605
B0101406460000000182370WEE COMMUNITY DEVELOPERS, INC.                           1605
A0101406460272531877001CHUA, DANNY RODRIGUEZ OR                                10501
A0101406460272531877001CHUA, CARLA DANI                                        20500
A0101406620273417682001BELDAD, DULCE ESPLANA                                    0501
A0101406620273482326001REMOTO JR., FRANCISCO R. OR                             10502
A0101406620273482326001ARACELY M. REMOT                                        20500
A0101406620000006317922DY, DANILO MAGSINO                                       0510
A0101411240000001563424TAN, DOMINGO L. OR TAN, DAYANOR                          0501
A0101411240000002332412SAQUIN, JHOANNA CRUZ                                     0502
A0501400200000005751599BALMEDIANO, MYRNA SOLIVEN OR                            10505
A0501400200000005751599BALMEDIANO, ISMAEL                                      20500
A0801400160311265752001DIVINAGRACIA, LLANE GRACE                                0501
A6601400120000004440817BAQUERO, ADELINA DULA DBU                               10502
A6601400120000004440817FLORIANA'S GEN.                                         20500
A6601400120314622237001ADRIATICO, DON BASILIO C.                               10502
A6601400120314622237001OR MELIKA O.                                            20500
A3401400280318742468001BELTRAN, NAPOLEON LOPEZ DBU                             10505
A3401400280318742468001NLB ENTERPRISES                                         20500
A0101405650322356435001ENRIQUE BIE OR EVELYN V. PAULI                          10501
A0101405650322356435001OR RICHARD M. PAULI                                     20500
A0101402510341322353001DR. MARIVIC GUERIN TAN                                   0501
A0101402510341776847002TOPE, CHARLES JULIAN                                     0501
A0101402060000000358623IMMACULATA, ROWENA MARTINEZ                              0501
A0101402060000000358929ILAYA, FORTUNATO C.                                      0502
A0101402060351479109001ALMADEN, ROSALINDA CLACIO                                0501
A0201400920375034984002CITY LIGHT ELECTRONICS SERVICE                           0505
A0201400920375405086001ASAYAS, MARGARITA TUGAHAN                                0502
A0201400890376056207002MARDZ AIRCONDITIONING SUPPLY &                          10501
A0201400890376056207002SERVICES                                                20500
A0201400890376534224001PAYOT, CARLOS COPERNICUS OR                             10502
A0201400890376534224001PAYOT, ANA ISABE                                        20500
B0101402930381008843001BASIC HOUSING SOLUTIONS, INC.                            1605
B0101402930381040393001RESOURCE ONE CORPORATION                                 1601
A0101408370382490705001DR. TIMOTHY ELBERT R. TAN OR                            10505
A0101408370382490705001DR. GUIA C. TAN                                         20500
A0101402770000001571397ZABALZA, MA. ARVY VELASCO                                0501
A0101408950396645140001TATCO, VINCENT REYES                                     0501
A0101412210000000238566OCLOS, ARCHIE LUIGI ALCAZAR                              0501
A0301400820000005991859MARQUEZ, ALMA L.                                         0501
A2401400180000001676913***********                                              0501
A0101403320471720456001OCAMPO, ERLINDA MENDOZA                                  0501
B0501400170481258347001OUR LADY OF MANAOAG COLLEGE, INC.                        1605
B0501400170481258347002OUR LADY OF MANAOAG COLLEGE, INC.                        1605
B0501400170481258347003COLEGIO DE SAN JUAN DE LETRAN-                          11605
B0501400170481258347003MANAOAG INC.                                            21600
B1401400110492500431001STRONG BRIDGES POULTRY FARM INC.                         1601
A1401400110492777638001DY, EDNA AYCARDO                                         0506
A0101407430000003193360APRIL ROSE A. MAGSAMBOL                                  0501
B0101403580511017534001SAN LORENZO VILLAGE ASSOCIATION                          1603
B0101403580000004540572BLOOMSOLUTIONS INC.                                      1601
B0101403580000004540629ST. ANTHONY RESIDENCES PARANAQUE INC.                    1603
A0101403580511420184003MARIA CAROLINA S. MACASAET                               0515
A0101405940512157443001CECILIA B. WYSON OR                                     10501
A0101405940512157443001ROBERT T. WYSON                                         20500
A0101408110515550581001ENDAYA, ROBERT DUMO                                      0505
B0101408530516034772001INFOSTORAGE CORPORATION                                  1603
B0101403450521011989001**********                                               1610
B0101403450521012087001PACIFIC PLACE MULTI DEVELOPMENT                         11603
B0101403450521012087001CORPORATION                                             21600
B0101403450521021003002GRANVILLE INDUSTRIAL CHEMICAL CORP.                      1606
B0101403450521029023001**********                                               1602
A0101403450521238152001**********                                               0502
A0101403450521238152002**********                                               0506
A0101403450521238152003**********                                               0502
A0101403450521240963001********                                                 0503
A0101403610000000015863GONZALES, JONATHAN JOSE VADLIT                           0501
A2201400250000007122829TONGOL, WILMA PAMINTUAN                                  0501
A0101410690000000001758IGNACIO, JONATHAN DBU JCJ                               10502
A0101410690000000001758MANAGEMENT SERVI                                        20500
B0101404130601031478001ERGOTRONICS AUTOMATION ENTERPRISE CORP                   1601
B0101404130000000321519CARENETT_PHILIPPINES INC.                                1605
A0101407720000006628011LEELIN, FEDERICO TANCIOCO                                0504
A0101407720602342044001DR. DARWIN ALBERT DASIG                                  0501
A0101407720602534681001DE MATA, CHRISTINE DENISSE A.                            0502
A0101407720000003886977DUNGO, EDISON TAMAYO                                     0501
A0101404260000006374343CRUZ, RHAYAN DEL ROSARIO                                 0502
A0101404260000006374343*******                                                  0502
A0101404260000003498500GUMIA, NORA PERANDO                                      0501
A0101411530000003238344BEYOND SCENTS ENTERPRISES                                0503
A0101413990000000205898**********                                               0501
A0101413990000006768638***                                                      0501
B0101414120000000399151POWER PULSE, INC.                                        1602
A0101414120000000875481AMPILAM ENTERPRISES                                      0502
B0101414120000001984289DEMPSEY RESOURCE MANAGEMENT INC.                         1602
A1301400340683495036001MARCELO, ELENA RIVERA                                    0510
A1301400340683542735002BIUNAS, REMEDIOS GREGORIO                                0502
B0101408240711036910001ASIAN CENTRE FOR INSULATION PHILS.,                      1603
A0101408240000000005181POL CAMACHO SECURITY                                    10502
A0101408240000000005181CONSULTANCY                                             20500
A0101408240000003501362RICAFRENTE, MA. ANALYN DELFIN                            0502
A0101408240000000347528RAFAEL, JOSE JAVIER PAY JT                               0502
A2801400230000001781984BORLONGAN, P DBU SAYONG'S                               10501
A2801400230000001781984PASILYO COUNTRY JT                                      20500
A0101404840851046725004NELIA MANINGULA                                          0501
A0101404840000004565942CARLOS JR., ALFREDO AREVALO                              0501
A0101405070861321046002GERLY LEBRIA OR                                         10501
A0101405070861321046002MARK LAURENCE LE                                        20500
A0601400230891698269001DIMABUYU, LESLIE BALUYUT                                 0501
