A0101408950000006424820SUBIDO, HARLEY LICUDINE                                  0501
B0101402930000000038680PH AUSSIE RESOURCES INC.                                 1603
A0101407720602492004001MARIA IMELDA BELEN VITUG-SALES                           0501
A0101407720602752994001CASTRO, CARLA VICTORIA ESPINA                            0503
A1401400110000008266251ODNIMER, MARIFE DELIN                                    0501
B1401400110492031376001LUCENA WHEELER ENTERPRISE INC.                           1602
A0101401250000004374710**********                                               0503
A0101401250021478374001BAGTAS, JOSEPHINE P.                                     0501
A0101411370000000350456SALAZAR, ROSARIO FERNANDO                                0502
A0101411370000000903611RAMIREZ, MARISSA MARTINEZ                                0502
A0101400150000003162416ANN TENETTE D. ANDAL                                     0501
A0101400150000004505468EMPLOYEES OF ADP (PHILIPPINES),                          0501
A0101400150000003322374PAGBA, LOIDA                                             0501
A0101400150061087284001RODA, JULIUS R. DBU SJA TRADING                          0502
A0101400150061226944001SALVADOR P. CASTRO JR. OR                               10502
A0101400150061226944001NORA D. CASTRO                                          20500
A0101400150061227622001MELINDA R. AGCAOILI                                      0502
A0101400150061229814003LEONCIO C. LIM AND/OR                                   10501
A0101400150061229814003SIRENE L. ONG JT                                        20500
A0101400150061232035003NORBERTO REYES OR                                       10501
A0101400150061232035003SOLEDAD REYES                                           20500
A0101400150061517059001CHAM, LESLIE YU OR                                      10501
A0101400150061517059001CHAM, SUSIE SY                                          20500
A0101400150061555183001CELIZ, MARY ANN DILAY                                    0501
A0101405810000012008290SHI, SHANSHAN                                            0501
A0101405810000012014467LI, ANNI                                                 0501
A0101405810072286152001SIY, BAILEY OR JUDY ANN TEUNG                            0503
A0601400520000005943440ENGCO, LEAH DOMINGO OR ENGCO,                           10502
A0601400520000005943440GREGORIO SUAYAN                                         20500
B0101406040000001392041********                                                 1603
A0101413150000001688559******                                                   0501
B7201400170000007185562CARUMBA, MARGIE SEPADA OR CARUMBA,                      11601
B7201400170000007185562DANIECITO PASCO                                         21600
A5001400170000005705324CALIMUTAN, REGINALDO GASATAN                             0501
A0101401090171335981001JOCELYN OR FERNANDO OR CELDENE                          10501
A0101401090171335981001ORBASIDO                                                20500
A0301400530000002318561VILLANUEVA, FEDERICO MAGPAYO OR                         10501
A0301400530000002318561VILLANUEVA, MARI                                        20500
B0301400950000000566912SOUTHGATE MANAGEMENT AND CONSULTANCY                    11601
B0301400950000000566912GROUP, INC.                                             21600
B0101401380201025256001MESSE & HANDEL CORPORATION                               1601
B0101401380201030648001ITEMP HOLDINGS INCORPORATED                              1601
A0101413020000000056988AGUSTIN, FL DBU FIX AND CARE                            10503
A0101413020000000056988REF & AIRCON REP                                        20500
A0101410720000004626380**********                                               0501
A0101412500214061098001CEJAS RONEL I DBU DELTA CAFE                            10501
A0101412500214061098001AND RESTO BAR                                           20500
A0101413600000005355022EDDY FRANCIS B. GABRIEL                                  0501
B0101413600000002822653PERSONAL COLLECTION DIRECT SELLING,                      1602
B3101400160221010174001MARINOR DEVELOPMENT CORP.                                1610
B3101400740224022200001FILCON MANUFACTURING CORPORATION                         1602
B3101400740224024279001SPORTS MIX MARKETING CORP.                               1602
A3101400870000005410224BLANCO, RUSSELL SIMSUANGCO                               0502
A3101400870225217498016RACADIO, FRANJUDEL TORREVILLAS                           0501
A3001400130000001271330PITOGO, VINICAR PASA                                     0505
A3001400130000001271312SHAPE & WELL NUTRITIONAL                                10501
A3001400130000001271312PRODUCTS                                                20500
B1001400190231272348001LAO, SHERWIN                                             1605
A1001400190231509590001LAGUYAN, ENGRACIO SALONA                                 0504
A1001400190231520766018CABARDO, LORETA PADILLO                                  0501
A1001400350233528399003KO, JOSE NELSON AND                                     10502
A1001400350233528399003KO, CHARMAINE                                           20500
A1001400480000002300270CABURATAN JR., DILFEN MAQUILING                          0502
A1001400480000002300349HUERTAS, SAMUEL PONDOC                                   0505
A1301400470000001299210A.V. PAWAY ENTERPRISES                                   0501
A1301400760000004522592KRISTOFFER ROMEO E. GATDULA OR                          10502
A1301400760000004522592SANDRA D. GATDULA                                       20500
B1901400290000001363188RD PAWNSHOP, INCORPORATED                                1606
A1901400290261067040002MITAL, PRIMO OCAVA DBU MAESTRO                          10502
A1901400290261067040002SYSTEMAS TECHNOLOGIES                                   20500
A0101406620000001686928EVIO, JENNIFER RAPAS                                     0505
B0101402350321027310001NECELINE CORPORATION                                     1606
B0101402350321031479001MED OPTIONS MULTI SPECIALTY CLINIC                       1602
A0101402350321341109002WONG, PAUL OR EDITA OR                                  10501
A0101402350321341109002CECIL OR PAULINE                                        20500
B0101402510341024961001PHILIPPINE ASSOCIATION OF COLLEGES                      11602
B0101402510341024961001OF PHARMACY                                             21600
A0101402060000002258820MARTINEZ, MARGELYN LAPINA                                0501
A0101402060000002259845LIM, CAROL DELA ROSA                                     0501
A0101409050000002971384RESULLAR, ALLEN CURAY                                    0501
A0101409050000008087634RAMOS, ROMMEL PIMENTEL                                   0502
B0101409050000010506793ONG, FRANKIE DOMANOG DBU ZURI TRADI                      1602
A0201400760000009996098ORMOC, MARY JANE UYKINGTAN OR                           10501
A0201400760000009996098ABANO, CATALINA                                         20500
A0101402930920130000152MANGUBAT II, GERONIMO SAMSON OR                         10501
A0101402930920130000152MANGUBAT, EILLEN BARREDO                                20500
B0101402930381009093001PHILIPPINE ASSOCIATION OF COLLEGES AND                  11605
B0101402930381009093001UNIVERSITIES                                            21600
B0101402930381009093002PHILIPPINE ASSOCIATION OF COLLEGES                      11605
B0101402930381009093002AND UNIVERSITIES                                        21600
B0101408790383021087001OCEAN TANKERS CORPORATION                                1605
B0101408790383021087004OCEAN TANKERS CORPORATION                                1601
B0101408790383039290001AUTO SOURCES INC.                                        1605
B0101408790383042385001JADE PINNACLE CONSOLIDATED, INC                          1601
B0101408790383042386001SUPREME DOMINION CONSOLIDATED, INC.                      1601
B0101408790383042387001AQUARIAN DRAGON'S LAIR, INC.                             1601
B0101408790383042388001YANG KUO PING HOLDINGS, INC.                             1601
B0101408790383042390001SIEN ENTERPRISE, INC.                                    1601
B0101408790383042391001FYSON, INC.                                              1601
B0101408790383042393001GREEN GALLOPING STALLIONS, INC.                          1601
B0101405490000001092477ARKIMETRICS INC.                                         1602
A0101408950000004512105LUIS JR., LOLITO RODRIGUEZ                               0501
A0101408950000000776592GENOVIA, MA. VICTORIA OR DUASO,                         10502
A0101408950000000776592 MA CECILIA OR MANOLITO                                 20500
A0101409180000003813078BERMUNDO, MARIVIC B.                                     0501
A0101409180000010760120HAMOR, RONANDO LADIMO                                    0501
A0101409180397695033001***                                                      0502
A0101409210000007762812ELAGO, THERESE INDIONGCO                                 0501
B0101409210000002783282NUTRIGENICS ASIA INC.                                    1601
A0301400820000000045554DENUNA, HAZEL F. OR DENUNA,                             10501
A0301400820000000045554JOZEL HANZ F.                                           20500
B0301400820409091735055LIMA, WINDELL BRISTOL DBU DAVAO HOME                    11602
B0301400820409091735055BUILDERS CENTER                                         21600
A0101403030000011965441SYLING, ANDREW PATRICK CHING                             0501
A0101403030441590302001**********                                               0503
A0101403320000011293075ADELAIDA R. CRUZ AND                                    10503
A0101403320000011293075ALEXANDER M. CRUZ                                       20500
B0101403320471035758001***                                                      1603
A0101403320471065202001GLAM JAM FOOTWEAR                                        0501
B0501400170481018109002CSI WAREHOUSE CLUB INC.                                  1605
A0501400170481285059001CHUA, CRISTINA YU OR                                    10501
A0501400170481285059001CHUA, STEVEN                                            20500
A1901400160491264756001EDDIE T RIVERO OR                                       10501
A1901400160491264756001HENRIETTA U RIVERO                                      20500
A1401400110000003988923DY, EDNA AYCARDO                                         0510
A1601400170000000036473BENITA A. CALLEJA                                        0501
A0701400260000002339095BERNARDO JR., JAIME MIRALLES OR                         10502
A0701400260000002339095BERNARDO, CYRIL                                         20500
A0101408530000007457141ARLENE C. FRANCISCO                                      0501
A0101408530516042413001DENTAPRIME DENTAL SERVICES                               0503
B0101403450000000889621FERRIS SOBELL PROPERTIES INC.                            1603
A0101403450521238046001**********                                               0502
A0101403450521239750002EDDIE L. CHUA                                            0502
B2201400250000000016913ABRAHM CHASE CORPORATION                                 1602
B2201400250561428755001*****                                                    1602
B0101404130601100161002PRUDENTIAL CUSTOMS BROKERAGE SERVICES                   11602
B0101404130601100161002INC.                                                    21600
A0101404130601451021001JESUS D. CHUAUNSU OR                                    10501
A0101404130601451021001VONG IN VA                                              20500
A0101404130601451021002CHUAUNSU, JESUS D. OR JANE V.                           10501
A0101404130601451021002CHUAUNSU                                                20500
A0101404130000001831670JESUS D. CHUAUNSU OR JANE INVA                          10501
A0101404130000001831670V. CHUAUNSU                                             20500
A0101407720602364331001MARIVEL R. PAGLINAWAN OR                                10501
A0101407720602364331001RANDY R. PAGLINAWAN                                     20500
A0101407720602396960001GANZON, DOMINGO ESTEBAN                                  0502
B01014077206024892100011stMARK GLOBAL MEDICAL SERVICES, INC                     1602
B0101404260000004781302POLYSTAR GENERAL SERVICES, INCORPOR                      1601
A0101404260000001725297KOREAN LANGUAGE CULTURE (KLC) T                          0503
B0101404260000004781313EXTRA ORDINAIRE JANITORIAL AND MANP                      1601
A0101404260611636432001DEDEL, MARY ANNE MAKASIAR                               10506
A0101404260611636432001AND KENNETH DEDE                                        20500
A0101409890000003097972MELENCIO, BENNET                                         0501
A0101413440000001472873BANARES, EMILIA CHUA                                     0501
A0101413440000007953128RVVS SKINNOVATE SKIN CARE                               10505
A0101413440000007953128CLINIC                                                  20500
A0101413990000000206066MARKVENT ENTERPRISES                                     0501
A0101414120000001142852TERESITA M. PUYAT OR MARY ANN                           10505
A0101414120000001142852MAGNO                                                   20500
A0101414120000004603241TAN, BENJAMIN TIU                                        0501
B0101414120000000399093*****                                                    1604
A1301400210000000023292LARA BUILDERS                                            0502
A1301400210682572080001SALOME V CASTILLO OR                                    10502
A1301400210682572080001MA SHERINA C ALM                                        20500
A1301400340683555340001MORAGA, SHIRLEY ANDAYA                                   0501
A1301400340683776169001BARAQUIEL, JOCELYN LIM                                   0502
A4101400260000001673496SUNIEGA, FREDERICK FLORES                                0501
A4101400260812075947001PARADERO, CHARISSE SITCHON                               0501
B4101400390000006103691ALUMIS PHILIPPINES, INC.                                 1601
A4101400390813470914001AZIS, ARMELA MERIADO OR HADJI                           10520
A4101400390813470914001AZIS JR., SAILAN                                        20500
A4101400420814478374044BERATIO, MARITES M.                                      0501
A4101400420814520766051GANZON, WILMA A.                                         0502
A4101400420814520766065ANGUE, HONEYLYN D.                                       0501
A0101412340000003718796BASBAS, TETCHIE M.                                       0501
A0101412340000005165139PICONES, EDLYN A.                                        0502
A0101404840851214816001BARRIENTOS, JAIME ARCE OR                               10501
A0101404840851214816001BARRIENTOS, AMEL                                        20500
A0101406750000006303340GUZMAN, LILIA ACUESTA                                    0501
A0101405070000001726121CASAS, CRISTINA DBU CNC                                 10505
A0101405070000001726121SHIPPING AGENCY                                         20500
B0101413860000001768038CAPROTEC CORPORATION                                     1605
B0101413860000010275931CAPROTEC CORPORATION                                     1605
B0101413860000010275942CAPROTEC CORPORATION                                     1605
