F1901400290261282086001DRA. CECILIA MARIE                                      12502CKO
F1901400290261282086001ATIENZA RAMOS                                           22500CKO
F0101406460000001231769CLOUDCFO INC.                                            2601CK1
F0101404130601033660001HOLIDAY ASIA DIVERS RESORT, INC.                         2602CKO
F0101404260611514786001CRUZ, GLENDA MAE PANGILINAN                              2503CKO
