B2401400180411821100608**********                                               2010
A1301400760000000050706WILLIE ONG DBU FUEL ZONE                                10505
A1301400760000000050706GASOLINE STATION                                        20500
B0101407270162038101001BIRDS INTERNATIONAL, INC.                                1602
B0101401670271007375003MULTI-FOLD LINKS, INC.                                   1605
B0101400570000005666219AMSIR DEVELOPMENT CORPORATION                            1602
A0101402930000010374739ANTOLIN, FAYE LUCIANO                                    0501
A0101412890000009833521YULO, JISELLE & SINGSON, JOSE &                         10502
A0101412890000009833521VILLACARLOS, MERLA                                      20500
A0501400170481257686001CERALDE, MARITA JOVELLANOS                               0501
A0101414120000002172590**********                                               0506
A4101400420000008280546BALDOZA, MARIA THELMA M                                  0501
A0101400860000010390137ANASCO  JR., DIMITRIUS RENE MAN                          0501
A0101400860000010390273ANASCO, ANN FRANCIS KING                                 0501
A0101400860000010390353ALONDE, MAYONNETH AFU                                    0501
A0101400860000010390473APIADO, DENISE ANNE ALCONIS                              0501
A0101400860000010390531CARI, RICA VANESSA GABILO                                0501
A0101400860000010390611DE LEON, LEONOR CEBANICO                                 0501
A0101400860000010390677GRACIA, ROWENA THERESE BALDEMOR                          0501
A0101400860000010390713LIM, MIREILLE NICOLE PO                                  0501
A0101400860000010390768MAGTIBAY, VINCENT VILLAMIN                               0501
A0101400860000010390804ORDIALES, MARY FRANCE GRIMALDO                           0501
A0101400860000010390837SARMIENTO, SINAG GABRIEL                                 0501
A0101400860000010390859VILLALUZ, LYDA SUSAN JOSON                               0501
A0101400860011449960001**********                                               0501
A0101401250000004980532MACOCO, CRISTOPHER MAGBANUA DBU                         10501
A0101401250000004980532CMM ACCOUNTING SERVICES                                 20500
A0101400150061228522001**********                                               0501
A0101400150061236944115MA. SHARON COMIA                                         0501
A0101400150061315349045BETTINA JOY L. SANGA                                     0502
A0101400150061337098041EDITHA N. BAUTISTA                                       0501
A0101400600071057858001BESTA SHIPPING LINES, INC.                               0503
B0101400600000001335637**********                                               1602
B0101400600071603898001*******                                                  1601
A0101405810000009970158WANQING WU                                               0502
A0101405810072319968009***************                                          0501
A0601400100000002072668SAN JOSE, ERNESTO ALBUERO                                0501
A0601400100081724887001MAYAMAYA, LEAH DEL ROSARIO                               0501
A0601400360083649312001KIM, KANG WOOK                                           0501
B0101413730000000469734L.Y.S. HARDWARE & INDUSTRIAL SALES INC.                  1610
B0101410560000000757200MERCADO AMBULATORY AND SURGICAL                         11605
B0101410560000000757200CENTERS, INC.                                           21600
A0101412920000005354201DELA FUENTE, MARIA JANNET THEIN                          0501
A0101400440000000821549PENOSO, LILIA RODULFO                                    0501
A0101400440000003705946ESTELITA MELEGRITO                                       0502
B0101400440161528688001POWERPHASES CONSTRUCTION SERVICES INC.                   1604
A0101407270162331908060BERNARD JOSEPH VELASCO                                   0502
A0101407270162333465004ARLENE A. BILTZ                                          0502
A0101407270162377333002******                                                   0501
A0101407270162523194001GARCIA, CAMILLE DACANAY                                  0501
A0101401090000001611427QUINTO, EDWARD ASTORAS                                   0501
B0301400530193066649001PANABO CHRISTIAN SCHOOL, INC.                            1601
A0301400530000000065763THE MUSIKAHAN SA TAGUM                                  10501
A0301400530000000065763FOUNDATION INC.                                         20500
A0301400530193504844111********                                                 0503
B0301400660000000195282*****                                                    1605
B0301400660000000195306G.E. 64 ENTERPRISES, INC.                                1605
B0301400660000003361891TUNAY AGRI-CHEMICALS CORPORATION                         1606
B0301400660000003368416MABVCO AGRI-SUPPLIES & SERVICES, INC.                    1606
A0301400660000006862617*****                                                    0504
B0301400660194469662168*****                                                    1605
B3101400450000005960563BATO SPRINGS, INC.                                       1601
A3001400130000001261283LIM, EDGAR ALLAN DIAZ                                    0502
A1001400190231478374075BARRON, LORNA                                            0501
A1001400190231478374086LORNA A. OMANDAM                                         0501
A1001400190231520766125YANA, MAYFLOR DAGOC                                      0501
A1001400350000004095432BOLLOZOS JR., ARMANDO MOLE OR                           10502
A1001400350000004095432BOLLOZOS, EVELYN                                        20500
A1301400760000001295450NUMERIANO Y. GALANG                                      0502
A1301400760000000050706WILLIE ONG DBU FUEL ZONE                                10505
A1301400760000000050706GASOLINE STATION                                        20500
A1901400290000001926296DINDO PATRON BARTE OR FLORINDA                          10502
A1901400290000001926296MASAS BARTE                                             20500
A1901400290000009031641MARIA ARLENE BRIONES DE VEYRA                            0501
B1901400290261027293001LIPA MEDICS INC.                                         1610
B1901400290261027293003LIPA MEDICS INC.                                         1602
B1901400290261027293005LIPA MEDICS INC.                                         1602
B1901400290261038595002B & V TRADING                                            1605
A1901400290261298552105AIDA NABOS REYES                                         0501
A1901400290261493025064CELESTINA RAQUEL LAYLO-NAVARRO                           0503
B0101401670271041791001A PI SQUARE KINDER SCHOOL INC.                           1601
B0101401670271041791003A PI SQUARE KINDER SCHOOL INC.                           1601
B0101406620273046745001PRESIDENCY CAPITAL CORP.                                 1602
A0101406620273490354001SAN PEDRO, JAMES DARRELL P. OR                          10501
A0101406620273490354001SAN PEDRO, MA. CHARISMA                                 20500
A0101408660274539990001BELTRAN, EDGARDO MAR D. OR                              10501
A0101408660274539990001BELTRAN, MARIA C                                        20500
B0101400570281015729001SLMC EMPLOYEES ASSOCIATION - AFW                         1602
B08014001603110189040013 TOPS TRADING                                           1610
B0801400160311494221001JUCABAN, LEO LAGOS                                       1601
B2001400290315066625001IINNRU REALTY CO.                                        1604
A2901400130000005961253YABUT, MARK ARBUES DELA CRUZ DB                          0501
A0101405650322170702003ADAN, ANTONIO D. OR                                     10501
A0101405650322170702003ADAN, GRACE CASTANEDA                                   20500
A0101402510341541150001SUMILONG, ANNA CHRISTINA A. AND                         10502
A0101402510341541150001SUMILONG, ROMMEL                                        20500
B0101402060351085656001REBINTECH CONSTRUCTION, INC.                             1603
A0101402060351445404001ACOSTA, REYNALDO DELA TORRE                              0502
B0201400760374043050001SIMPLY CLEAN CAR WASH                                    1601
A0201400920375478374008OLELA, DONATILLA OMELGO                                  0501
B0201400920375526997001**********                                               1602
A0101402930000010388833**********                                               0501
B0101402930381008829002AXEIA DEVELOPMENT CORP.                                  1615
A0101408370000002264024CAPIRAL, RAUL ELLARD SERRA                               0502
A0101408370382390973001DR. GEOFFREY J. CORPUZ                                   0503
A0101402770391190325001JOSIE G. PACENCIA                                        0501
A0101409180000003780483FAUSTINO, MA. CECILIA                                    0502
B0101412210000003448742NOLASCO INTERNATIONAL MEDICAL AND                       11603
B0101412210000003448742DIAGNOSTIC                                              21600
A0301400820000001185837RANGGAN, EDNA J.                                         0501
B0301400820409063822002COMEDIDO, DANTE L. DBU DL COMEDIDO                      11601
B0301400820409063822002BAKESHOP                                                21600
B2401400180411031958001***********                                              1603
A2401400180411038015001GENSAN ULTIMATE AUTO SUPPLY                             10510
A2401400180411038015001& HARDWARE, INC.                                        20500
A2401400180411272614002BALAYO, JOEL BASCO                                       0501
A0901400220000000887903**********                                               0501
B0101403030441303324001**********                                               1602
B0501400170481015879001TDG VEHICLE SALES DEPARTMENT                             1615
A0501400170481400649001REYNA, CICEL MANAOIS                                     0501
A1401400110000008266342DELA ROSA, VIOLETA AQUINO                                0503
B1601400170000000497570FUN DIVE ASIA INC.                                       1601
A0101407430503185437004SHIRLEY B. RENIEDO                                       0502
B0101403580000007864262JAPAN EXTERNAL TRADE ORGANIZATION                        1605
A0101408530516571877044VERONICA CHANLIONGCO                                     0501
A0101412050000000323602FERRER, VIOLETA MANALO                                   0502
A0101403450000001769800************                                             0501
B0101403610531224782001**********                                               1603
B0101404130601100161001PRUDENTIAL CUSTOMS BROKERAGE SERVICES,                  11610
B0101404130601100161001INC.                                                    21600
A0101404130601450094003LORQUEL PASCUAL OR ANNIE                                10502
A0101404130601450094003PASCUAL                                                 20500
A0101407720602328663002********                                                 0501
A0101407720602332279002CAYCO, ANTONIO V. OR                                    10501
A0101407720602332279002CAYCO, MARGARITA                                        20500
A0101404260611155266001YU, SUSANA OR EDDIE                                      0501
A0101404260611665137001TEOXON, ROWENA SILANG                                   10501
A0101404260611665137001OR LEOPOLDO TEOX                                        20500
A0101407690000000914061MERJUDIO, EDNA PANGAN                                    0501
A0101407690652034151001D' ABET JUNK SHOP                                        0502
A0101407690652517989001FLORANO, GUILBERTO COYOG                                 0502
A0101407690652525001083TULABING, VIOLETA - DEALERS OF                          10501
A0101407690652525001083SHOECAT INC.                                            20500
A0101407690652651198001DE LEON, FRANCISCA LEGASPI                               0501
A0101413990000003141157**********                                               0504
A0101414120000002172527AMELIA DE JESUS OR EDGARDO                              10501
A0101414120000002172527DE JESUS                                                20500
A0101414120000001751388LVQ MERCHANDISING                                        0502
B0101414120000001984154RAMY CONSTRUCTION INC.                                   1602
B0101414120000004603398WEBLEND INC.                                             1601
A0101410300000006278584NANAGAS III, VITALIANO HORACIO                           0503
B1301400210000005041109*****                                                    1603
A1301400210000000540776EDNA S ENANO                                             0506
A1301400210000000983826DELA CRUZ, MAE CARDINAL                                  0502
B0101408240000008160081TANCINCO JR., M DBU MARTIN'S CAR                        11601
B0101408240000008160081ACCESSORIES PART                                        21600
B2801400230000009021823INTECH MARINE SERVICES SUBIC BAY IN                      1603
B4101400260812012607002FOUR STEPS CORPORATION                                   1603
B4101400260812012607005FOUR STEPS CORPORATION                                   1602
B4101400260812012607010FOUR STEPS CORPORATION                                   1604
A4101400390813775566002TUAZON, MARIO CALDERON                                   0502
A4101400420814478374164LENITA PARRILLA BALISA                                   0501
A4101400420814520766039SORIANO, JOAN MONTECILLO                                 0501
A4101400420814520766138SAN PEDRO, ANA LIZA                                      0501
A4101400550815047760001MUCAS, MURIEL SANSAET                                    0501
A410140055000000964295318TREADS LOGISTICS SERVICES                              0501
A0101412340000008947128JAMIELYNNE D. WANG                                       0501
A0101404840000004565862CLOTILDE P. ARROYO                                       0501
A0101404840851478374115ERLINDA O. PRADO                                         0501
A0101406750000004642262LOBO, THELMA GLORIA                                      0501
B0101406750852034199001JOCANIMA CORPORATION                                     1603
B0101405070861008182001MANILA CIGARS INCORPORATED                               1604
A0101413860000000145008GALICIA, MARY ANN GONZALES JT                           10501
A0101413860000000145008DAVID, ERLINDA                                          20500
A0101413860000000145020DASIGAN, ANGELITA GONZALES                               0501
