B0101403450521821100608**********                                               2030
B5501400120410683469001RDJ AGRIFARMS INC.                                       1605
A0101412180000005360156RASE, MOLLIER ALEJO                                      0501
B0101414090000013005662RONDOLO, BENILDA ROBLES DBU NKC CON                      1604
A3101400870000016654230ALDON, JOSE MIGUEL PERALTA OR                           10501
A3101400870000016654230ALDON, MARY LIZA CRUZ                                   20500
A1101400120000001353691BABIANO, BARRY ADVINCULA                                 0501
B0101402350321012513001CONNER HARDWARE CORP                                     1603
A0101402350321287893001CHANG, PO HAN                                            0503
A0101412890000007095692TORRES, NICA CABUSLAY                                    0501
A0101412890000012474141TIRONA, MARIANO VASQUEZ                                  0502
A0101400860011444169001**********                                               0505
A0101400860011453178001**********                                               0501
A0101401250021194572001BASCON, ED DANTE OR                                     10501
A0101401250021194572001BASCON, BLANQUITA                                       20500
A0101400150000016671397TAKEZAWA, KAZUMA NIL                                     0501
B0101400150061033941002LA COSTA SHIPPING AND LIGHTERAGE CO.                     1601
A0101405810000001021263HUANG, JINXIA                                            0501
B0101405810072412798001**********                                               1610
B0101405810072412798002**********                                               1605
A0101405810072475435003LOURDES L. CRUZ                                          0503
A0601400100000011854170LAGUISMA, ALEX CALMA DBU ADVTEC                          0501
A0601400100081251829001FELICIANO, EREDITO OR ROSA ANA                           0501
B0601400360000012046358BOLUS, AARON CHRISTIAN GONZALES DBU                     11603
B0601400360000012046358AMB2 CONS.                                              21600
A0601400520000013872585GOMEZ, LUCILA TAN                                        0501
A0601400520000002085883MA, JENNIFER TECSON DBU                                 10501
A0601400520000002085883D'AFFAIR FURNITU                                        20500
B01014140900000003994462 TORRE LORENZO CONDOMINIUM CORP.                        1605
A0101410850109055892001CABANTING, MARISSA B. DBU                               10501
A0101410850109055892001ERLISH HAULING SERVICES                                 20500
A0101401830000015811271ABACON, EDUARDO GOCOTANO                                 0501
A0101400440161036282001GHERKIN INDUSTRIAL MARKETING                             0501
B0101400440000005393882JKRFG UPGRADE BUSINESS SOLUTION CORP.                    1605
A0101400440161591337001JENESSEY A. RANCES OR                                   10502
A0101400440161591337001JESSIE O. RANCES                                        20500
A0101400440161760130001CANDELARIO, MYRNA SATURNINO                              0501
A0101407270162474002002GELACIA M. DALOG                                         0505
A0101401090000001611461RAYMOND P. CLARIN                                        0502
A0101401090171202251001AMELITA OR MARCOS BARTOLOME                              0502
B0301400660000000195282*****                                                    1605
A0301400660194734141001ALCEBAR, JONATHAN PANTINOPLE                             0501
B0301400790000013578048DAVAO DREAM BUILDERS REALTY & SERVICES                   1603
A0301400950000002115220DEL MUNDO, JENNY OR                                     10501
A0301400950000002115220DEL MUNDO, DENMARK                                      20500
A0301400950000010701003LORENZANA, RACHELLE CARREON                              0502
B0101410720653035483001GERMALIN ENTERPRISES, INCORPORATED                       1601
A0101413600000003851132SHYELA MARIE BADLON                                      0501
B0101413600000011614587******                                                   1602
A3101400160000014779447OCAMPO, ROY BELLEN                                       0501
A3101400160000016678247ALCONABA, MARIA CONSOLACION Y.                          10501
A3101400160000016678247OR ALCONABA, DENNIS B.                                  20500
B3101400160221224862001JOYME ROCKSCAPES CORPORATION                             1602
A3101400160221533265001DR. ROMAN C. SY QUI  OR                                 10510
A3101400160221533265001MRS. EVELYN SY Q                                        20500
A3101400450000013874132BELEN, MARY GRACE HERNANDEZ                              0501
A3101400450223558607001MACATOL JR., DANIEL GARAY                                0501
A3001400130000005708501SOLIMA, ELEUTERIO M OR SOLIMA,                          10502
A3001400130000005708501JINA E                                                  20500
B3001400130230043293001L.M. TING FOODILICIOUS CORPORATION                       1620
A1001400190231478374056AMANTIAD, MAY                                            0501
A1001400190231520766125YANA, MAYFLOR DAGOC                                      0501
A1001400190000002170769JUGAN, NOUE MALOLOT                                      0501
A1301400760000014114539MILAGROS REYES VALENTINO                                 0502
B1901400290000016679804A.Q. LOISAGA CONSTRUCTION, GEN TRADING                  11601
B1901400290000016679804& SERVICES INC.                                         21600
A1901400290000016679928MK LOISAGA-CASTILLO ENTERPRISES                          0501
B0101401670271555562003GREEN ASIA REAL ESTATE AND DEVELOPMENT                  11601
B0101401670271555562003INC.                                                    21600
B0101406620273017284001ACCENT MICRO TECHNOLOGIES, INC.                          1605
A0101406620273418923001BACNAN, EMIL AUSTIN BAUTISTA                             0502
B0101408660000005990532EIGHT INFINITY COMMUNICATIONS INC.                       1602
B0101408660000007962261ACHT PFERDE DEVELOPMENT CORPORATION                      1602
B0101411820000010701263**********                                               1602
A0101400570000000749651LIBERTY B. MALUBAY                                       0501
A0101400570281361144001ERIC G. IDIESCA                                          0501
A2601400270000016635308MARINO TRANQUILINO V. FLORES                             0501
A1101400120000000652511BASTIAS, ROSANNA QUISUMBING OR                          10503
A1101400120000000652511TOLENTINO, EMMANUEL SONGC                               20500
A1101400120000006186729CHUA, ROMEO ALCONABA DBU ERR BU                         10501
A1101400120000006186729ILDERS                                                  20500
B3401400280318044735001A & T SANTOS INCORPORATED                                1605
B2901400130000005961037ANG, RYAN MONTES                                         1604
B0101402350000012299931TSUYOSA BUILDERS AND DESIGN CO.                          1601
B0101402350321500384001ONG, JOSEPHINE T. AND HERRERA,                          11602
B0101402350321500384001VICTORIA                                                21600
B0101402350321738079001OLIVAREZ GENERAL HOSPITAL INC.                           1610
B0101405650322016488003CALOOCAN BEARING AND PARTS CORP.                         1610
B0101402510000013485833**********                                               1602
B0201400760000005711104SANDRA YOUNG OR JANICE LORRAINE YOUNG                    1601
A0201400760000000222733CU, ANTON ONG OR HONG, XIANG                             0502
A0201400920375048147001COLONIE PEST CONTROL                                     0501
A0201400890000016538659LAJOSA WATER REFILLING STATION                           0501
A0201400890376520766002PIJO, ROSEMARIE BARTIANA                                 0501
A0201401020000000056415SORELA, DBU M.P. SORELA CONSTRU                          0501
B0101411660000014676629AKYLAS INC.                                              1602
A0101402770000013464570AGUSTIN, MIGUEL LIGOT                                    0501
B0101402770391046279001LEGACY RENOVE INC.                                       1605
A0101408400000001855541CAMPOSANO, MARILYN F DBU MARSDE                         10502
A0101408400000001855541NISS                                                    20500
A0101408400394536858001DE ROXAS, DEMETRIO CASTILLO                              0501
A0101408950396206480001DAVID YU DY  OR AMY GOLETA DY                            0501
B0101409180397062516001PHYSIXARE ADTEK SOLUTIONS, INC                           1605
A0301400820409094648001LADAGA, SHERRYL E. OR LADAGA,                           10502
A0301400820409094648001JOSEPH FRANKLYN                                         20500
B5501400120410041087001GREENSTATE SUITES                                        1605
B5501400120410041925008EASY PAY FINANCE CORPORATION                             1610
B5501400120410042035001CYCLERS BYKE HUB                                         1601
B5501400120000012653526HAPPY LIVING REALTY AND DEVELOPMENT                      1610
A5501400120000001121811VILLARUEL, MARIA VIRGINIA                                0505
A2401400180411275346001GILMOORE O. ALIAN                                        0501
A2401400180411478374020MORI, LYDIA                                              0502
A2401400180411555962001SILVA, VIOLETA P. OR                                    10502
A2401400180411555962001SILVA, MARCELINO                                        20500
A0901400220000000012299GAYON, MARINA TACHADO                                    0502
B0101412890000009624535IBMS TECHNOLOGY PHILS. CORP.                             1605
A0101403320471603471001BADIOLA JR., DANILO GARIANDO OR                         10501
A0101403320471603471001BADIOLA, RADLYNE                                        20500
A0101406330000015172466MAGSINO, JERWIN JAVIER DBU                              10501
A0101406330000015172466JJM CONDIMENTS                                          20500
B0501400170481018109002CSI WAREHOUSE CLUB INC.                                  1604
A1901400160000015999432DRA. RIZZAH M. AGBAY                                     0501
A1901400160000016000472DRA. CRISTETA I. UNIRA                                   0501
B1401400110000009019745TRINIDAD, DBU ANN FLORENCE C. TRINI                      1601
B1401400110000009019723TRINIDAD, JOSELITO DBU JACT BUILDING                     1601
A1401400110492320667002AVERIA, SOLOMON DY OR                                   10501
A1401400110492320667002AVERIA, MA.SARAH                                        20500
B0101407430000008901315ROMINE LASERJET TONER CORPORATION                        1601
A0101407430000006027885FAJARDO, MIRIAM P. DBU                                  10502
A0101407430000006027885FARMIE MARKETING                                        20500
A0101407430000006027903JONAS MARTIN OR MARIAN MARTIN                           10501
A0101407430000006027903DBU SIM ONE TRAD                                        20500
A0101403580000016661104BERNARDO, NIDA DE LEON                                   0501
A0101403580000016661331BOYLES, PEDRO TEMPLA                                     0501
A0101403580000016661411CHOI, CARL LAWRENCE SAY                                  0501
A0101403580000016661513CHU, EMELITA DELA ROSA                                   0501
A0101403580000016661575CRUZ, CHERRY ANN REYES                                   0501
A0101403580000016661655CURA, LEONISA VILLANUEVA                                 0501
A0101403580000016661724DE DIOS, CYNTHIA HILARIA GONZAL                          0501
A0101403580000016661815DELOS REYES, NATHANIEL PANCELES                          0501
A0101403580000016661882DIONISIO, TOBIAS PINGOL                                  0501
A0101403580000016661940GERONGAY, REYNOLD YBANEZ                                 0501
A0101403580000016662005HOLGANZA, RIZALINO RHETT QUIJAN                          0501
A0101403580000016662072MADRIGAL, PHILIP SIA                                     0501
A0101403580000016662129MALIG, GERARDO VILLARINA                                 0501
A0101403580000016662181MARTIREZ, GEORGE JALANDONI                               0501
A0101403580000016662221MARTIREZ, MICHAEL GERARD NANADI                          0501
A0101403580000016662261PAMPOLINA III, GERMAN JEREMY EN                          0501
A0101403580000016662312PAREDES, DENNIS IBAY                                     0501
A0101403580000016662341RATA, JOHN WALVINE CUMPAS                                0501
A0101403580000016662363REGNIM, ANASTACIA CATAAG                                 0501
A0101403580000016662385REYES, MARISSA ENRIQUEZ                                  0501
A0101403580000016662403SAN JOSE, LARRY TADEO                                    0501
A0101403580000016662432SIAPNO, ANNA LIZA MARTIREZ                               0501
A0101403580000016662454SINGSON, MARTHA CECILIA MEDINA                           0501
A0101403580000016662476SIRUG, REDENTOR SECUNDO                                  0501
A0101403580000016662498SIY, JERRISON ERIC GAPUZ                                 0501
A0101403580000016662523TUMALI, ERILENE NOCHE                                    0501
B0101403450521011670001**********                                               1601
B0101403450521011968001**********                                               1602
A0101403450521012086001**********                                               0502
A0101403610000016590773MANALAC, MARIETTA MAYO                                   0501
A0101403610531053004002OREJOLA, WILSON C DBU WILCORE                           10502
A0101403610531053004002ENGINEERING SERVICES                                    20500
B0101403610531069397001CASTASUS AND COMPANY                                     1603
A2201400250000012982500CONRADO M. ORQUIOLA                                      0506
A2201400250561428755002*******                                                  0502
A0101410690600090990001PASTOR, MARK STEVEN CO                                   0501
B0101407720000007951844SNOW WHITE WELLNESS & BEAUTY SPA INC.                    1601
A0101407720000006028224PANLILIO, RAYMOND JUDE GERARDO                          10503
A0101407720000006028224OR MARIA LUISA                                          20500
A0101412180000008480091MARCOS, TEODORA REYES DBU B & D                         10503
A0101412180000008480091TOY BALLOONS & PARTY NEED                               20500
B0101404260000008700798ONE SOURCE SPECIALIZED SERVICES INC                      1605
A0101409890000003098213AQUINO, VIL DBU JOVAROM                                 10503
A0101409890000003098213COMMERCIAL                                              20500
A0101409920000010528873CRUTA, CELESTE                                           0501
A0101413570000010111772MOLENO, ELVIRA GUZMAN                                    0505
A0101414120000000649025GERNESON ESPENORIO OR                                   10504
A0101414120000000649025RHEA ESPENORIO                                          20500
A0101414120000015400665ESMUNDO, RINA CANLAS DBU RINA                           10501
A0101414120000015400665CANLAS ENTERPRISES                                      20500
B1301400210682039698001SEVENTY SEVEN TRAVELLERS INN CORP.                       1602
B1301400210682042117001JELLI'S GAS STATION                                      1602
B1301400210000000023503JELLI'S GAS STATION                                      1602
B1301400210000000023510JELLI'S GAS STATION                                      1602
A1301400210682247780001AILEEN A. MUNOZ                                          0502
A1301400210682371374001PRISCILA G GARCIA                                        0502
A1701400230000008555197TAN, LINA KENG OR TAN, JAIMIE                           10502
A1701400230000008555197MARABELLA KENG                                          20500
B0101408240711028488001INTAS DESTINATION MANAGEMENT INC.                        1610
B0101408240711029638001KLAUS MULLER & ASSOCIATES, INC.                          1602
B0101408240000010815113PREMIER PETROL DISTRIBUTORS INC.                         1603
A0101408240000008160183**********                                               0504
A0101408240711372755002SIMPAO, IAN FRANCIS OCHANGCO                            10501
A0101408240711372755002OR SIMPAO, JOANNA AMOR                                  20500
B4101400260812024721001DORMBUILT, INC.                                          1603
B4101400260812043808001UPLIFT CAVITE HEAD OFFICE                                1610
A0101412340000007305757EVELYN D. ALVAREZ                                        0501
A0101406750852478374027ELENA HINUNANGAN                                         0502
A0101406750852774013001MARK JEROME SAQUING OR MARY ANN                         10502
A0101406750852774013001SAQUING                                                 20500
A0601400230000005185833DUMAN-AG, MERCEDES MANUEL                                0501
A0601400230000013259571PACIA, GENIE LEGASPI OR                                 10501
A0601400230000013259571PACIA, MICHELLE BARRIL                                  20500
