F0101408110515062411001XORAND SOLUTIONS COMPUTER                               12602CKR
F0101408110515062411001CORPORATION                                             22600CKR
F0101408110515062411001XORAND SOLUTIONS COMPUTER                               12602CKR
F0101408110515062411001CORPORATION                                             22600CKR
F0101408080514026336003THE FLIGHT SHOP, INC.                                    2602CKR
F0101404680651297826002LIM,YOLANDA OR CABIGON, MELISSA                         12605CKR
F0101404680651297826002OR LANGCAY, SHIE                                        22600CKR
F4101400550000006044133BINAKAYAN HOSPITAL AND MEDICAL                          12603CK1
F4101400550000006044133CENTER, INC.                                            22600CK1
