A1001400190000000016468NERI, JENNY RACAZA                                       0501
A1001400350000000017165MEN DBU A&L MARKETING SOLUTIONS                          0501
A2401400180000000073550ALBARRACIN, JEMAR DEGAMO                                 0501
A0101400860000000100841**********                                               0505
A0101408660000000373113CO, FENADY SALES                                         0501
A0101412890000000543042ARRIER0, MARIA CRISTINA LAUDE                            0501
A0101408950000000776609DEL PRADO, BETTINA AQUINO                                0501
A0101400730000000833396CARBONELL, LEVINA IBALE                                  0505
A0101408820000000840620******                                                   0501
A0901400220000000887903**********                                               0501
A5001400170000001003432DE LUNA JR., ROMAN TE                                    0501
A2601400270000001009083MERNELLY R. RAFAEL                                       0501
A0101405810000001021343CUDIA, LORNA ROMERO                                      0503
A1001400190000001057614ENDERES, EMMANUEL                                        0501
A0101413150000001288320BARUMAN, VEBELYN MONTECIREN                              0501
A0101402770000001571120TANG, SHU WING                                           0501
A0101401090000001618975AGANON, ERICSON ALMORADIE                                0501
A0101412890000001765813MILITAR, DOLORES RAMILLA                                 0501
A0101408950000002255370CHIA, CATHERINE ANNE TEO                                 0502
A0101402640000002349522ATIENZA CONSTRUCTION SUPPLY                              0504
A0101400150000003322283LEGATA, JOSE JR. MEJIA                                   0501
A0101412340000003342550EXEQUIEL D. DELGADO                                      0501
A0101406620000003639069ABELLA, EUJHINE PEROCHO                                  0501
A0101406620000003639598ABELLA, EUJHINE PEROCHO                                  0501
A0101406620000003639601BLAS, ARMIE CAPULI                                       0501
A0101406620000003639612CUNANAN, MARK KELVIN MUNSAYAC                            0501
A0101406620000003639623DE GUZMAN JR., HENRY ABOGA                               0501
A0101406620000003639634DIMACULANGAN, LEONARDO MAGADIA                           0501
A0101406620000003639645DIACAN, JAMES PAUL MANALANG                              0501
A0101406620000003639656FESALBON, ROBETH QUIJANO                                 0501
A0101406620000003639678GO, MARIROSE GUEVARRA                                    0501
A0101406620000003639689SARMIENTO, CARMINA ISABELLE MAR                          0501
A0101406620000003639690TULABOT, REISSON DALISAY                                 0501
A0101400860011056078001**********                                               0501
A0101400150061340658001GAZO, GERALDINE SO                                       0501
A0601400100081044064001PARALUMAN ENTERPRISE                                     0505
A0601400100081615489001SOLIMAN JR., PABLO ZAMORA                                0504
A0101406040112420530001IMELDA C. DEL ROSARIO                                    0501
A0101400440161520766042MONINA H. DUKA                                           0501
A0101400440161520766189PRESCILA P. DOTONG                                       0501
A0101401090171195155001MA. AUXILIADORA R. REBURIANO                             0501
A0101401090171336336002IRENE P. EVANGELISTA                                     0501
A0101401090171396960002GANZON, DOMINGO ESTEBAN                                  0501
A0101401380201171279001TSAI, ROBERT                                             0501
A0101401380201691760001CASTILLO, KHRISS MARIANO                                 0501
A1001400190231520766092TACBOBO, BEATRIZ WABE                                    0501
A1001400190231520766112ALIBIO, NELYBETH TACBOBO                                 0501
A1001400190231556864001KHU, JOY LACDOO                                          0501
A2601400270302557323001MELANIE OR REYNALDO AGNES                                0505
A6601400120314616978001SAURO, MICHEL CASTILLO                                   0501
A0101402480331546994001******                                                   0501
A0101408820333159328001AIDA M. GENERALI                                         0501
A0101409050352716164001ANYAYAHAN, EDWARD GONZALES                               0502
A0101408950396563723001CELLONA, CLARISSA VILLARAMA                              0503
A2401400180411275790003MALCAMPO, DIOSIE AGUIRRE                                 0501
A1201400150421478374066FLORES, JONATHAN                                         0501
A0101403320471442993001RUBY-MAE R. BOSTRE                                       0501
A0101406330472356808002CHRISTIAN E. CANGCO                                      0510
A0101406330472369996001DOLORES P. SUMADIC                                       0502
A1901400160491327217001JENALYN T DE LEON                                        0501
A1401400110492427326004******************                                       0502
A0101407430503674542001********                                                 0505
A0101403450521649009001*************                                            0501
A0101404260611312084002*******                                                  0501
A0101404420631158444001ALBERT RAMOS   JT                                        0502
A0101407560686532134001GREGORIO S. REYES                                        0502
A0101407560686662041001RACHIEL R. CORDOVA                                       0501
A2801400230713074852001DOMINGUEZ, MARIVIC MANDADERO                             0503
A4101400420814436040001MALACAS, VERONICA CRUZ                                   0501
A4101400420814520766119OMNOS, NOVA DESCARTIN                                    0501
A0101404840851481664012HITOSHI INOUE                                            0501
A0101405070861478374073ROSARIO V. PARRENO                                       0502
A0901400220000000012324SPECIALIST MOTORCYCLE PARTS &                           10504
A0301400950000000566796ILAGAN, LEO AMADO OR                                    10501
A0101404000000001186716BRAGADO, CATHERINE GONZALES OR                          10502
A0101401250021629902001BASIANO, NEIL N. OR                                     10501
A0101400570281514703001SEVERA C. RONQUILLO OR                                  10501
A0101409180397696150001MARINO, SALVY OR MARINO, HECTOR                         10501
A2401400180411539646003ONCADA, VANESSA CALUBIA OR                              10502
A2201400250561255737002WILFREDO Y. SAWIT                                       10501
A0101404130601450094003LORQUEL PASCUAL OR ANNIE                                10502
A0101406590662368220001LIMGENCO, MYRA R. OR LIMGENCO,                          10503
A0101410300663740727001CUKINGNAN, ANGELINE S. OR                               10502
A4101400420814635620001CORPUZ, ELMER AGSALDA  OR                               10501
A0901400220000000012324ACCESSORIES, INC                                        20500
A0301400950000000566796ILAGAN, CECILLE ANNE                                    20500
A0101404000000001186716BRAGADO, PETER L                                        20500
A0101401250021629902001BASIANO, WILMAR M.                                      20500
A0101400570281514703001TITO P. RONQUILL                                        20500
A0101409180397696150001OR NAVOA, NANETT                                        20500
A2401400180411539646003ONCADA, JOSEPH Q                                        20500
A2201400250561255737002OR JOSEFINA B. SAWIT                                    20500
A0101404130601450094003PASCUAL                                                 20500
A0101406590662368220001MARTIN W.                                               20500
A0101410300663740727001CUKINGNAN, ALEXANDER A.                                 20500
A4101400420814635620001CORPUZ, AMELITA                                         20500
B0201400920000000007996SUNPRIDE FOODS, INC.                                     1605
B0101405810000000016811SK PLASTIC RELIANCE COMPANY                              1603
B0701400260000000041118PMDONG DEVELOPMENT CORPORATION                           1601
B0101412500000000041705SYNERGY GLOBAL LOGISTICS SOLUTION INC.                   1602
B0101412890000000125293SHOEMIXX INTERNATIONAL, INC.                             1610
B0101413570000000206642DRICKSLEE BUILDERS COMPANY                               1602
B0101410690000000710803FPD GLOBAL INTEGRATED SERVICES, INC                      1603
B0101411080000000806080******                                                   1602
B0101412470000002338843WEBLEND INC.                                             1601
B0101400150061026122002DDC LAND INC.                                            1610
B0101400150061056020001PAWNHERO PAWNSHOP PHILIPPINES, INC.                      1601
B0101405810072011448001C.P.P.C CONSUMER PACKAGING PRODUCT CORP.                 1602
B0101405810072018018001AIMWAY PLASTIC & PRINTING CORP.                          1601
B0101405810072019239002ROYAL PINNACLE ESTATES CORP.                             1601
B0601400100081022507002FORTUNE FOOK YUEN TEA HOUSE, INC.                        1610
B0601400100081026547002ANGELES FRIED CHICKEN, INC.                              1605
B0101401380201023821001DAIRO AIRE CORPORATION                                   1603
B3101400160221031171001FBDP CONSTRUCTION CORPORATION                            1601
B3101400450223365119002VICTOR HUGO ENERGY CORPORATION                           1601
B0101409050352042202002DAN VIL COMMERCIAL CORPORATION                           1602
B0101402640361032109001UNITED CHRISTIAN MULTI-PURPOSE COOP                      1602
B0101408400394041333001W TOWER CONDOMINIUM CORPORATION                          1602
B2401400180411040003003BRIGADA MASS MEDIA CORPORATION                           1610
B0101412890470077699001SKY HIGH FITNESS GYM                                     1601
B1901400160491026197001OMEGA MANPOWER MANAGEMENT CORP.                          1610
B1401400110492013980002IMPERIAL APPLIANCE PLAZA                                 1601
B0101407430503034519001D.G.X. PHILS., INC.                                      1602
B0101407430503045582001PRO FREIGHT INTERNATIONAL CORP.                          1601
B0101406750852039992088MERCURY ACE TRADING                                      1601
B5001400170000000169904GREEN SUMMIT REALTY AND MANAGEMENT                      11601
B0101400150061010985001PHILIPPINE SUGAR RESEARCH INSTITUTE                     11605
B0101400150061042377001BIOSYSTEMS REAGENTS & INSTRUMENTS,                      11610
B0101400570281022330001S.M. CASTRO MANAGEMENT & CONSTRUCTION                   11602
B1201400150421032018001DAP-AYAN TI JOHN HAY EMPLOYEES CREDIT                   11603
B1201400150421040810001"H3" HYDRO HEALTH HABIT (17 STAGES PURIF                11601
B1401400110492365609001JEORGE S MALIGAT - PILIPINO HARDWARE AND                11601
B0101407720602005985001MONTEMAR MANAGEMENT &                                   11601
B5001400170000000169904CONSULTANCY CO.                                         21600
B0101400150061010985001FOUNDATION, INC.                                        21600
B0101400150061042377001INC.                                                    21600
B0101400570281022330001SERVICES                                                21600
B1201400150421032018001COOP.                                                   21600
B1201400150421040810001IED DRINKING                                            21600
B1401400110492365609001CONST. SUPPLY                                           21600
B0101407720602005985001DEVELOPMENT CORP                                        21600
B0601400100081821100608**********                                               2010
B0101407980123821200608**********                                               2005
