A6601400120000013857811ESPINA III, SIXTO C. DBU LFCE P                          0501
A6601400120000001370490GALIT, VERNIE GAZO DBU RVG                              10503
A6601400120000001370490DIGITAL PRINTING                                        20500
A6601400120000001370569MONTERA, GLENDA GAZO DBU RONVER                         10502
A6601400120000001370569ENTERPRISES                                             20500
B0201400760000013668870MANGLAPUS, MIKHAEL MARTIN APAWAN DBU                    11602
B0201400760000013668870DIGI M GRAFIX DE                                        21600
A0101407720602163314001SALLY KING JOAQUINO OR                                  10504
A0101407720602163314001JACQUELINE JOAQUINO                                     20500
A0101407720602283353001ERWIN HERNANDEZ OR                                      10501
A0101407720602283353001AGNES HERNANDEZ                                         20500
A0101407720602355070002SHERYLL MAGALIT-CORNEJO OR                              10502
A0101407720602355070002CARLO CORNEJO                                           20500
A0101407720602384186003SARMIENTO, JOSIERINA YANEZA                              0501
A0101407720602390297001PREYSLER, MARIVIC G.                                     0502
A0101407720602396595001DR. MILAN P. TAMBUNTING                                  0505
A0101400860011571320001**********                                               0505
A0101401250000016824534BANGA, MIRAFLOR ARDEMER                                  0501
B0101401250021006617001SPEARHEAD MACHINE SHOP                                  11603
B0101401250021006617001CORPORATION                                             21600
A0101400150000016750868ALIMAGNO, MARY ANN CONCEPCION                            0502
A0101400150000018661442OLALIA, KAROLINE RIVERA                                  0501
A0101400150061232035003NORBERTO REYES OR                                       10501
A0101400150061232035003SOLEDAD REYES                                           20500
A0101400150061569177001YOUNG, ROLAND SAMUEL                                     0501
A0601400360000004915351GOZUN, JOSE MIGUEL LACSAMANA                             0502
A0601400520000005943473DALUSUNG, ANGELITO LIWAG                                 0501
A0601400520000016097702DALUSUNG, ANGELITO LIWAG                                 0501
A0101414090000016879473OCSAN, MELITO TORIO                                      0502
A0101414090000016879491HEDRIANA, DEMOSTHENES OR                                10502
A0101414090000016879491HEDRIANA, GLORIA                                        20500
A0101410850000012549714ANG, AMIRA SORIANO                                       0506
B0101410850000013190842EMERALD GARDEN, INC.                                     1602
A0101400730000011613722DIMACALI, LEONORA BARCELONA                              0501
A0101400730111772448001BOCABEL, MARIFE DE GUZMAN                                0501
A0101400440000001440000LAPASARAN, MARY GRACE FRANCISCO                          0503
A0101400440000016275866BOHOLST, NORA MALINAO                                    0502
B0101400440161007363001HARMONICS ELECTRICAL SERVICES                            1605
A0101400440161670356001MA. ESTELA CLEOFE                                        0502
A0101407270162501845001PINILI, DOMINIC MANABAT                                  0502
A0101401090171457831002ERIC P. REDOTA OR                                       10502
A0101401090171457831002RACHEL N. REDOTA                                        20500
A0301400530000003087363LEGASPINO, HERMENEGILDA AARON                            0501
A0301400530193047804168JULIE'S BAKESHOP                                         0502
A0301400660000016080487PERALTA, NINO KRISTOPHER REYES                           0502
A0301400790000003969542******                                                   0501
A0301400950000018858856YAP, MARK ANTHONY CHUA                                   0501
B0301400950000011415062TIPICON ENGINEERING INNOVATIONS                          1601
A0301400950000002251952CAMINS, DENNIS C.  OR CAMINS,                           10506
A0301400950000002251952CECILE  A.                                              20500
A0101412500000019153945ONG, BENJAMIN S. OR MARIA OR                            10501
A0101412500000019153945ELLAINE OR BERNARDO                                     20500
A0101412500000019160524DE VILLA, VICENTE MARTIN TAMBUN                          0501
A3101400450000016637964MIRABALLES, EDWARD UMALI                                 0502
A3101400450000013874110MARFORI, JO ANNE CATIPON                                 0501
A1001400350000015675279QUILANG, LANI DELA ROSA                                  0503
A1001400350233478374026ANNABEL ESTOMO                                           0501
A1001400350000015675393GO, ELVIRA LIBAGO                                        0501
A1301400470000001299061SHERWIN ORDONEZ CONSTANTINO                              0504
A1301400470000007863430FERNANDEZ, JOANA DIALO                                   0501
A1301400470252495255001IMELDA IRENE V. ULIP OR                                 10501
A1301400470252495255001JUANITO I. ULIP                                         20500
B1901400290261038595002B & V TRADING                                            1605
A0101401670000008015472MACOMIS, MENCHIE JACABA                                  0501
A0101401670271475286001ALBERNINA PASCUAL-LOPEZ                                  0502
A0101406460272289071002KO, MARINA THERESA TAN                                   0501
A0101406620000004925964REFUERZO, DIDITH KATIGBAK                                0501
B0101406620000000962403GEOWORKS INTERNATIONAL CORPORATION                       1601
A0101406620000000051061MANCILLA, MICHAEL LEE                                   10502
A0101406620000000051061OR MANCILLA, MIL                                        20500
B0101406620273545544001SUMMIT TEAM WELLNESS CORP.                               1601
B0101400570281047910001SACRED HEART OF JESUS PARISH-SVD                         1603
B0101400570000003451556DE LOS SANTOS MEDICAL CENTER, INC.                       1603
A0101400570281225647001YEUNG, YUEN CHING TONG                                   0501
A0501400200292567569001LARILYN D. GATCHALLAN                                    0501
A0801400160000011336542FERRER, JADE MARIE AURELIO                               0501
B0801400160000001289932RD PAWNSHOP, INC. - ILOILO NORTH                         1603
B1101400120000000652904COASTALVIEW FOODS CORPORATION                            1605
A1101400120000003981168MAHID M. SIDIC DBU MAHID                                10502
A1101400120000003981168CELLPHONE ACCESS                                        20500
A1101400120000000065110BOLECHE, CLARA GACUTAN                                   0501
A0101402350321323061001ANGELA A. FERRER                                         0501
A0101402510000006356910PASTRANA, RONALD MANAL                                   0502
A0101402510341198071001ROSEMARIE I. SO                                          0501
A0101409050000013553072CARLA A. MARTICIO                                        0501
B0201400760000011325630IRESPONSE BUSINESS SOLUTIONS INC.                        1602
B0201401020000000005307ALEGRE AQUACULTURE DEVELOPMENT                           1601
A0101402930000000859770METT MOTIVATIONAL ENGLISH                               10502
A0101402930000000859770TRAINING                                                20500
A0101402930000003710621FAVILA, ALICE A. OR                                     10506
A0101402930000003710621ABIOG, ARLENE A.                                        20500
A0101402930381423656005EXCELSIS V. ANTOLIN                                      0501
A0101408790000013849233DENNIS BAYOT                                             0501
A0101408790000019160808CARINGAL, KRISTIA LORRAINE                              10501
A0101408790000019160808VILLAR                                                  20500
B0101408790000016571745EUROTILES INDUSTRIAL CORP.                               1603
A0101411660000018079713DEL ROSARIO, ALMA LEA ALIMANGOH                          0501
B0101405490392030564001NEW FS COOL AIRE INDUSTRIES, INC.                        1603
A0101409180000005326712DELA CRUZ, DENNIS TABUJARA                               0505
A0101409180000003310323PANGILINAN, CHARISSE CRUZ                                0502
B0101409180000009085281DELA CRUZ, DENNIS TABUJARA DBU                          11605
B0101409180000009085281DTDC BUILDERS                                           21600
A0101409210000006796112UY, ELAINE GRACE PENALOSA                                0501
A0101409210000007864073ANG, CYRIL VICTOR ISLA                                   0501
A0301400820000002272033ASARAK, YASIR A.                                         0501
A0301400820000019109794ARNADO, GUILLERMO A.                                     0501
A5501400120000017065759FARROFO, JOHANNA PAULA CRUZ                              0501
B5501400120000012653526HAPPY LIVING REALTY AND DEVELOPMENT                      1610
A5501400120000014838607DELA PENA, MARIA HENRIETTA CHIU                          0510
A2401400180000007031574HAO, YOLANDA GARCIA OR                                  10501
A2401400180000007031574HAO, HENRY GO                                           20500
B2401400180411014376002PENBANK, INC. (A PRIVATE DEVELOPMENT                    11603
B2401400180411014376002BANK)                                                   21600
A1201400150000017292781ALIBA, ROLAND TITIWA                                     0502
A1201400150421301485002GO, ROLANDO DISTOR                                       0503
A1201400150421543715001CAMADO, JUSCILLE P. OR                                  10503
A1201400150421543715001CAMADO, MILLER                                          20500
A0101412890000002747868Moses Eleazar B. Pua                                     0501
A0101412890000018329434EZRAH MAE UYAMMI LUPAIS                                  0501
B0101412890000019081811TASTY PALATE FOOD LAB INC.                               1601
A0101412890000007095732TRABALLO, M DBU MARK ANTHONY                            10502
A0101412890000007095732ROCK SUPPLY                                             20500
A0101403320471205971001CESAR S. GODOY                                           0501
A0101410140000009390730SANDE, AMOR BONUS                                        0501
A0501400170000013648461DE VERA, ROSELYN CANCINO                                 0502
A1901400160000018195867BUENAVENTURA, PAUL PANINGASAN                            0501
A1901400160491035294001BATANGAS CITY GOVERNMENT                                10520
A1901400160491035294001EMPLOYEES CREDIT                                        20500
A1901400160491343996001MARIA DOROTHY M HERNANDEZ                                0502
A1401400110000015925718JOSEPH OR PAULITA OR JEFFREY                            10505
A1401400110000015925718OR JESSIE ALVARE                                        20500
A1401400110000005945388HOLANDA, W DBU COMPREMED TRADIN                          0501
B0101403580000010847391THE CONTAGIOUS SECTION PRODUCTIONS                       1601
A0101411400000001140350BARCELO, ANA RUBIE TALAG                                 0503
A0101411400000017148608WANG, QIAOMIN                                            0506
A0101411400000017148591SHEN, MENGSI                                             0506
B0101403450521017837001**********                                               1601
A0101403450000006055665***********                                              0501
B0101403610000006637114RD PAWNSHOP, INC.                                        1604
A0101403610531762297001HO, HELEN TAN OR                                        10503
A0101403610531762297001TAN, DOLORES LIM                                        20500
A2201400250561293366001JOSE ANGELO D. FLORES OR MELIZA                         10502
A2201400250561293366001TRACY MARGARET G                                        20500
A2201400250561478374006ANGELINA P. QUIBALLO                                    10502
A2201400250561478374006MEMBERS OF NATASHA                                      20500
A0101410690000000710621MALLARI JR., RO DBU ROMA PRINT                           0501
A0101404130000009342525MAYUGA, VANESSA MARCIAL                                  0501
A0101407720602164307001GABRIEL G. GABRIEL M.D. OR                              10502
A0101407720602164307001CAROLINE C. GABRIEL                                     20500
A0101407720602338230001JULIET A. YAP                                            0502
A0101407720602399337001MARIO BENITO F. BAUTISTA                                10502
A0101407720602399337001OR JOSEPHINE L.                                         20500
B0101412180000000333617STA. ANA IMPORT-EXPORT, INC.                             1603
B0101412180000003275192SOLIDPOINT MANPOWER AND ALLIED SERV                      1605
B0101404260000000157015INTERPRO FOOD SPECIALIST INC.                            1605
A0101404260000001725639************                                             0503
B0101409920000019052543MOJICA, VICTORIA DL. DBU FAT COUSINS                    11601
B0101409920000019052543DINER JT.                                               21600
A0101407690652474247001**********                                               0503
A0101413990000018479873BANIQUED, RONALD ALLAN E. OR                            10501
A0101413990000018479873BANIQUED, REZALYN Y.                                    20500
A0101413990657068745001CLORES, RICARDO R. DBU                                  10505
A0101413990657068745001SAMUEL JOSEPH STORE                                     20500
B0101414120000000399100LPA AND PARTNERS CO.                                     1601
B0101410300000000026417PHILIPPINE COLLEGE OF RADIOLOGY, IN                      1601
A1301400210000007669289GONZALES, MARK OLIVER SANTIAGO                           0501
A1301400210000009982369LORENZO, NOELIN CUNANAN                                  0502
B1301400210000008173911FTC77 CORPORATION                                        1602
A0101408240711384215003LOURDES GRACE MAPALAD                                    0502
A2801400230000001734732CITY REJUVENATING SPA                                    0503
A4101400260000016685311RELACION, REYNALDO RIEL OR                              10501
A4101400260000016685311RELACION, AMMIE                                         20500
A4101400390000000975173NOAH'S ARK MANPOWER SERVICES                             0505
A4101400420000019149290BUGAYON, ROWENA CASTRO                                   0501
A4101400420814478374044BERATIO, MARITES M.                                      0501
A4101400420814506413001IBIAS, JOSEPHINE OCAMPO OR                              10501
A4101400420814506413001IBIAS, SEGISMUND                                        20500
A4101400420814520766032ALFARAS, READELL ORTEGA                                  0501
A4101400550000015887071RIVERA, ROSALINDA LOVERIA                                0504
A0101412340000003341482CABUNAG, RAINIER A.                                      0502
A0101412340000007305564ELNA O. GALAROZA                                         0501
A0101404840000005396949ESPORLAS, AURA AREVALO                                   0503
A0101406750000017168880CUNANAN, MARAELLE JOHN ANDRADE                           0502
A0101413860000007558270BORROWERS OF FIRST DIGITAL FINA                          0501
A0101413860000010298952AL-HAZAR, DIANA GOLING                                   0501
A0601400230000017863693PIMENTEL, AFRICA ABEDANA                                 0502
A0601400230000001687118**********                                               0502
A0601400230000006243114CASTILLO, IVY CLAIRE PARUNGAO                            0502
A0601400230000002649961GARBES OLALIA TRADING CORPORATI                          0505
A0601400230891788658001LENON, DIOSDADO MANLUTAC                                10501
A0601400230891788658001OR LENON, CLARITA                                       20500
