B0101400150061821100608**********                                               2050
B0101400570281821100608**********                                               2005
B0101400570281821100608**********                                               2005
B0101400570281821100608**********                                               2005
B0101400570281821100608**********                                               2005
A0101400440000002035041MARIA GEVELA CARDINOZA                                   0501
A0101400440161186930002LAURO M. AMANTE                                          0501
A0101400440161478374144CELERINA M. MARASIGAN                                    0501
B0101400440000000337871GERAND BUSINESS CONSULTING CORP.                         1603
A0101400440000004889803ALBIA, HELEN S.                                          0501
A0101400440161525001025JUANITA D. LADI                                          0501
A0101400440161525001164NERYLROSE B. VINLUAN                                     0501
A0101400440161549556001TEODORO R. BAUTISTA                                      0502
A0101407270162331908024MARIA FLORDELIZA F. REYES                                0503
A3001400130000002063532MAGATAO, FRETCHER DACERA                                 0501
B3001400130230043018003CARAGA AGRICULTURAL BUSINESS CORP                        1610
A3001400130230767566053VILLANUEVA, MERRIBEL TUMANENG                            0501
A2401400180000002284288GONZALES, JERISSA HONG                                   0501
A2401400180000003949042ESMOND ENGINEERING RESOURCES                             0501
A2401400180000005536512PROSERV AUTO AND ARCHITECTURAL                          10501
A2401400180000005536512GLASS SUPPLY                                            20500
A2401400180411075579001JALALAGTOY, MARVIN SUAREZ                                0502
A2401400180411459008001SALES, LYNETH SALVAN OR                                 10501
A2401400180411459008001SALES JR., POTEN                                        20500
A2401400180411478374061JUNRES AGAD OR                                          10502
A2401400180411478374061NORMELITA BLANCO                                        20500
B2401400180411542448002GUATLO, ANNA MARIE VILLASENCIO                           1602
A0101411530000003238344BEYOND SCENTS ENTERPRISES                                0502
A0101406590662361882001FLORENTINO OR DIVINA LUPE                               10503
A0101406590662361882001LAZARO                                                  20500
A0101406750852048053001DILIG, ZARA DBU ZPD ACCOUNTING                          10502
A0101406750852048053001AND MANAGEMENT S                                        20500
A0101406750000004641861SIMBUL III, FILEMON NICOLAS OR                          10502
A0101406750000004641861ADELFINA SIMBUL                                         20500
A0101400860011086656001**********                                               0505
B0101400860011374740004**********                                               1605
A0101400860011386656002**********                                               0503
B0101400860011389659002**********                                               1603
B0101400860011400367001**********                                               1602
B0101400860011400367002**********                                               1602
A0101400860011522691001**********                                               0503
A0101400860011539633001**********                                               0505
A0101400860000001005401**********                                               0502
A0101401250000004980576**********                                               0503
A0101401250021401825001CHUA, REYNALDO MAGNO OR                                 10504
A0101401250021401825001CHUA, EMMA GESLANI                                      20500
A0101401250021478374003FRIAS, CELIA SILVANIA                                    0502
B0101411080042821100608**********                                               2005
B0101400150061021685001RFD FOOD SERVICES, INC.                                  1601
B0101400150061028210001GOLDEN DRAGON MOTOR SALES CORP.                          1605
B0101400150061047569001JACKBILT INDUSTRIES, INCORPORATED                        1602
B0101400150061048012001LUDGORON MINING CORPORATION                              1601
A0101400150061055752073RYAN ORDILLANO                                           0501
A0101400150061420473001ARBOLEDA, JERRY SEQUIZA                                  0501
A0101400150061506307001*********                                                0502
A0101400150061512334001SANTAYANA, RAY RYAN                                      0501
B0101400150061584014001PNEUMATIC AND MECHANICAL SERVICES INC.                   1602
A0101400150061760831001CRYSTAL, PAUL EMMANUEL OR                               10501
A0101400150061760831001CRYSTAL, LOLITA                                         20500
A0101400150000002902296*****************                                        0502
A0601400100000000141966BANAS, CESARLIE AMBASA OR                               10502
A0601400100000000141966REGULACION, JACK                                        20500
A0601400100000002698486**********************                                   0501
A0601400100081256597001GIL D. MADLAMBAYAN                                       0502
B0601400100081393742001DECLARADOR, GENOVEVA OR KRISTIAN                         1610
A0101413730000002229701*************                                            0501
B0101414090000002244662THINKSCAPE RESEARCH SERVICES INC.                        1602
A0101400730111478374028LIBRADA MAGNO                                            0502
A0101400730111478374179MARIA LUISA S. TRUJILLO                                  0501
A0101400730111520766072NORMA VENTURA                                            0502
B0101401960121238699002SO, PONCIANO CHUA                JT                      1601
A0101401960000000211014WEE, JOHANNE THOMSON TAN                                 0502
A0101401830141057463001POLANCOS, JAY-AR PERALTA DBU                            10501
A0101401830141057463001VISTA ADVERTISING                                       20500
A0101401830000005690980CUEVAS, BENILDA B                                        0501
A0101401830141752259001CARANDANG, FREDERICK ANGELES                             0503
B0101400440161007542001PACE REALTY INVESTMENT INCORPORATE                       1601
A0101400440161039572010MYRNA A. CANELAS                                         0501
A0101400440161039572029LORNA A. CERRO                                           0501
A0101400440000000821301TOPCOM CONVENIECE STORE                                  0505
A0101407270162474002003BENEDICT ROUMEL V. CID                                   0502
A0101407270162496878003JENNIFER LUCY LEE VILLANUEVA                             0501
B0101401090171007908001PERPETUAL SUCCOR HOSPITAL &                             11606
B0101401090171007908001MATERNITY, INC.                                         21600
A0301400660000002913260ORALLER, LEIZL VISMANOS                                  0501
A0301400950000004455549FERNANDEZ, NESTY VANLORD OR                             10502
A0301400950000004455549FERNANDEZ, VIOLETA                                      20500
B0301400950000000566912SOUTHGATE MANAGEMENT AND CONSULTANCY                    11601
B0301400950000000566912GROUP, INC.                                             21600
A0101401380000005320843TORRES, JESSRAEL SALONGA                                 0502
B0101413600000000206879COOL TECHNICAL SYSTEMS MAINTENANCE                       1602
A3101400160000002355871URRIZA, SHIELA NACOR                                     0501
B3101400160221010055002CALAMBA LUMBER ENTERPRISES                               1605
A3101400160000004362903REYVELINDA E GUEVARRA                                    0502
A3101400450223246101001DE VILLA, MADGELINA AURE                                 0502
A3101400450223352819001FARAON, RIZALINA OR                                     10502
A3101400450223352819001BELEN, RHODORA                                          20500
B1001400190231024403001FIESTA GROCERS                                           1601
A1001400190231283324001GICABAO, BENY CHAN OR                                   10501
A1001400190231283324001GICABAO, VILMA A                                        20500
A1001400190231509590001LAGUYAN, ENGRACIO SALONA                                 0503
A1001400190231520766089CODILLA, ORLAND ORIAS                                    0501
A1001400190231520766089CODILLA, ORLAND ORIAS                                    0501
A1001400190231520766107DELIA ENRIQUEZ                                           0501
A1001400190231520766126ORTIZANO, MERLYN B.                                      0501
A1001400190000000124876JENNY CALDERON                                           0501
A1001400190000001057396LOLITA B. DULCA                                          0501
B1001400350000000017041LIMKETKAI HOTEL & RESORT CORPORATION                     1610
A1001400480000003357715OCERO, SHERLITA TUPAS OR OCERO                          10501
A1001400480000003357715MAUREEN ECHAVEZ                                         20500
A1301400470252045619001GOLEM ENTERPRISES                                        0504
A1301400760000001295570BIEN M. CRUZ                                             0503
A1901400290000005565762MARIA LIEZA PASIA MENDOZA                                0501
A1901400290000002337760EUBERT CASTOR BAUTISTA OR                               10501
A1901400290000002337760APRIL ROSE L BAUTISTA                                   20500
B1901400290261048088001B & V FEEDMILL                                           1605
A1901400290000001975404MARANAN, MERCEDITA DBU REYMER                           10502
A1901400290000001975404DIGITAL PHOTOGRAPHY                                     20500
A1901400290261488341028JOSEPH GLENN A DIMATATAC                                 0502
A1901400290261488341064MARIA THERESA VARGAS                                     0501
A1901400290000006560158CHENG, XIAOZHEN OR                                      10502
A1901400290000006560158YANG, ZONGCHANG                                         20500
A1901400290261717650001MYLENE SUBIA SILVA                                       0502
A0101401670000000843709CHUYACO, MARIA ELISA VALENZUELA                          0501
A0101401670271188016001ALEJANDRO R. SABINO                                      0501
A0101406460000002359919TAN, JENELYN HERNANDEZ                                   0502
A0101406460272358045001VALERIO, RAMON TORRES                                   10502
A0101406460272358045001OR JANE VALERIO                                         20500
B0101406620273022309001VISOR RESOURCES, INC.                                    1605
A0101406620273314677002GEORGE G. ANGEL OR GLENDA M.                            10501
A0101406620273314677002AGUILA                                                  20500
B0101406620273460663001PREMIUMSOLE INTERNATIONAL CORPORATION                    1605
A0101408660274521676001MABASA, CARISSA MOONYEEN S. OR                          10501
A0101408660274521676001MABASA, GERARD Q                                        20500
A0101408660000000059829JALANDONI, JOSELITO PURIFICACIO                          0502
B0101411820000000024142HARDCOM COMPUTER SYSTEM CO.                              1601
B0101400570000002104147AB1 MEGA BUILDERS INC.                                   1601
A1101400120000003022402OMEGA, CRYSTAL GALE SMITH                                0501
A1101400120000003197102ARJON, ARCELITO BAYOT                                    0501
A6601400120000003673114ULTRA, CHERRY OR ULTRA, ALLAN                            0501
A2001400290315087033002ROLIDA, JASON UY OR ROLIDA                              10502
A2001400290315087033002SANDRA, UYMATIAO                                        20500
B2001400290000000020537LINK RI LOGISTICS INC.                                   1601
B0101402350321038337001JC UMEREZ PRIME HOLDINGS CORP.                           1606
B0101402350321046288001TMI FOOD PROCESSING & DEV. INC.                          1602
A0101402510000007110470CHING, SARAH WISCO OR                                   10501
A0101402510000007110470CHING, MARICAR WISCO                                    20500
B0101402510341008055001MENDIOLA CONSORTIUM                                      1602
A0101402510341196449002LOLITA M. BALBOA                                         0501
A0101402510341198276001SEGUBAN, DANILO H.                                       0501
A0101402510341199103002********                                                 0502
A0101402060351211706001GEORGE FERRER                                            0504
B0201400760374037583001...........                                              1610
B0201400760374037583002..........                                               1610
A0201400760000000222762UY, JOHN CHIU OR JOHN JEFFERSON                          0505
A0201400920000000007872JLJ INDUSTRIAL SUPPLY                                   10502
A0201400920000000007872& SERVICES                                              20500
B0201400890376037750001TWIN PEAKS WAXERS CORP.                                  1602
A0201400890376535273002TOLEDO,HAROLD XAVIER/GUEVARRA,                          10505
A0201400890376535273002KENNETH/CLIMACO,                                        20500
A0201401020000000055952DANO, JOSIE DANAS                                        0501
A0101402930000007113486BANTOLIN, ANALYN DAMASCO                                 0501
A0101408370382420560001DR. MICHAEL VILLA OR                                    10505
A0101408370382420560001DR. PATRICIA YUKIJI VILLA                               20500
A0101408370000005220039TUAZON, MA. CRISTINA SANTOS                              0502
A0101408790383242406001KAW, ALEXANDER OR KAW, JENNIFER                          0502
B0101402770000001571626BEARING CENTER & MACHINERY, INC.                         1601
B0101402770000006812440NESYAN CORPORATION                                       1603
A0101402770391565804001METHUSHEL D. SANTOS                                      0501
A0101408400394478374065VILLANUEVA, VILMA E.                                     0501
A0101408400000002921133MARILYN R. ALMARIO                                       0501
A0101408950396373113001DR. VIRGILIO M. NOVERO, JR. OR                          10510
A0101408950396373113001MARIA LOWELA C. NOVERO                                  20500
A0101409180000003906989LOIDA S. SAMSON                                          0501
B0101409210398055893001PHILMOVERS HAULING AND LOGISTICS INC.                    1605
A2401400180000003949140UY, RUBING SIOCO                                         0501
A2401400180000005536512PROSERV AUTO AND ARCHITECTURAL                          10501
A2401400180000005536512GLASS SUPPLY                                            20500
A2401400180411478374020MORI, LYDIA                                              0501
A2401400180000000073538GABAYERON, RINADEL DELOS SANTOS                          0501
B0901400220432044564001MARCIAN CONVENTION CENTER                                1610
A0901400220000000425045LOZADA, ELIZABETH GO                                     0501
A0101403030441433845001**********                                               0502
A0101403030441660281001**********                                               0503
A0101403320000000522052*****                                                    0501
A0101403320000001646631SANTIAGO, LEILANI SANTIAGO                               0502
A0101403320000001803338CALAQUIAN JR., RUBEN NUGUID                              0501
A0101403320000001803190HILARIO, MICHAEL OR HILARIO                             10502
A0101403320000001803190ANNA MARIA GWEND                                        20500
B0101403320471008859001NEW LITE LUMBER & CONSTRUCTION                          11602
B0101403320471008859001SUPPLY                                                  21600
A0101403320471047588001RHINA JENEPER C. LIBIRAN DBU                            10502
A0101403320471047588001R-GENESIS DRUG S                                        20500
B0101403320000001647270RED DOT DESIGN INC.                                      1610
A0501400170000001072888CASTANARES, PETRONILO ZAMORA OR                         10501
A0501400170000001072888CASTANARES, VIRGINIA RIVO                               20500
A0501400170000005002953ORFINADA, TERRY A. OR                                   10501
A0501400170000005002953ORFINADA, ALBERT                                        20500
A1901400320000002296006INHUMANG, EVARISTA BUTIC                                 0502
A1401400110492600851001DE VERO, ROBERTO TANEDO                                  0502
A0101407430503478374012ANALIE YPANTO                                            0501
A0101403580511237144004VALENCIA, JOSE OR MA FLORECITA                          10502
A0101403580511237144004OR MA CLARISE                                           20500
A0101403580511327187012MARIA LEAH TOPACIO                                       0502
A0101403580511617964001JEROME MATTHEW Y. GATMAITAN                              0502
A0101411400000000230151NOBLE, SYLVIA NIVERBA                                    0501
A0101411790000006647818JORVINA, GERRY MALABORBOR                                0502
A0101411790518055764062BINOMAN, JERELYN NAROSA                                  0501
A0101411790000000469596**********                                               0501
B0101403450521011989001**********                                               1610
B0101403450521078888003PUREGOLD PRICE CLUB, INC.                                1620
A0101403450521238302001**********                                               0502
A0101403450521392545001NANETTE CHRISTY Y. ONG                                   0501
A0101404000551377329001MONTENEGRO, ROSALIE ROTH                                 0502
B2201400250561028028002ASSOCIATION OF SUGAR PLANTERS OF CENTRAL                11603
B2201400250561028028002LUZON, INC.                                             21600
A0101407720602295336001AGUIRRE, ANGELITA MIGUEL                                 0501
A0101407720602382805001BAGABALDO, ZENAIDA GARCIA                                0501
A0101407720602384186003SARMIENTO, JOSIERINA YANEZA                              0502
A0101407720602470788001ISIDRO, MARIA JOCELYN CAPULI                             0502
A0101411530000006217483**********                                               0501
A0101413990000004511102MANALO, NORA LEGASPI                                     0501
A0101406590000002277523********                                                 0501
B0101406590662042458001*****                                                    1604
B0101406590662659846001THE KIMBERLEY PLACE INC.                                 1602
B0101406590662744080002MARKETMIX TRADING INC.                                   1606
A1301400500000001412388GERONIMO G. QUIZA JR. OR                                10501
A1301400500000001412388MA ROSELLE P. QUIZA                                     20500
B1301400500684042020001DEPARTMENT OF AGRARIAN REFORM EMPLOYEES                 11601
B1301400500684042020001ASSOCIATION                                             21600
A1301400500000004093087ME-ANN'S EGG DEALER                                      0505
A0101408240000006599902ALMANZA, RONALD MARASIGAN                                0501
B0101408240711038089001RAJI INC.                                                1601
A0101408240711410292003**********                                               0501
A0101408240711490981001MILLS, AMPARO OR VICENTE JR.                             0501
A4101400260812491679001JUN JUN E. COMIA                                         0504
A4101400420814362781001ECOFILTERS ENTERPRISES                                   0502
A4101400420000000710223ROMERO, MARICRIS BAUTISTA                                0501
A0101404840000003069925VALENCIA, JUDY D.                                        0503
A0101404840851214627001ALLAN GERVASIO OR                                       10503
A0101404840851214627001EMMA GERVASIO                                           20500
A0101404840851520766008ERLINDA G. MATOCINOS                                     0504
A0101404840851520766163JOCELYN ANONUEVO                                         0501
A0101404840851571190002LAURENTE, JULIETA YALONG                                 0502
A0101406750000000172967QUIRANTE, ALAN TACSAN                                    0501
B0101406750852033630001NEO-TES CONSTRUCTION SERVICES                            1601
B0101406750852041203001AUTOCIRCULO CORP.                                        1610
A0101406750852338027001JANE G. LACHICA                                          0502
A0101406750852478374095LORENA N TANGPUZ                                         0501
B0101413860000000145297IUBI INSURANCE INTERMEDIARY CORPORA                      1601
