F0101402480000005302481EGENERATION AGRI CORP                                    2602CK1
F0101402930381020092004ASIAN BAPTIST CLEARING HOUSE                             2604CKR
F0101407720602021008002WAYFAIR TOURS, INC.                                      2601CKR
F1201400280671025773008*****                                                    2620CKO
F4101400260812022293004JOMIJOH'S BAKESHOP INC.                                  2601CKO
F4101400260000000469330DEPANO, ABEL GONZALES                                    2503CKO
F4101400260812543920001ARTHUR B. ALVIAR                                         2508CKO
F0101406750000005608442W 9 GLOBAL MICROSOLUTIONS INC.                           2601CK1
