B1901400290261821100608**********                                               2005
A7201400170000014242941LUMASAG, IRYN VILLANUEVA                                10501
A7201400170000014242941OR LUMASAG, CLIFF AYA-AY                                20500
B0101402060351085656001REBINTECH CONSTRUCTION, INC.                             1602
B3001400130000000067241BUTUAN BRAKE CENTER SALES CORPORATION                    1610
A0101411820000005380183JIMMY PUYING CANUTO                                      0502
A0101403580000000383722MICHAEL GERARD PELAYO OR                                10505
A0101403580000000383722KARLENE THERESE PELAYO                                  20500
A0101410300000000191837VISAYA, LILIBETH ORDONIO                                 0505
A0101410300000000919626********                                                 0501
A0101400860000008319200**********                                               0502
A0101400860011409220002**********                                               0505
B0101400860011619501001**********                                               1601
A0101400150000012145765IGNACIO, JAMES LUNA                                      0501
A0101400150000009995233PINGA, ELLEN VALLES                                      0501
A0101400150000002902412NAVATO, MAEBELLE P.                                      0501
A0101400150061567479001TAN, CINDY LEE                                           0502
B0601400100081013321001BIO-TECH MARKETING CORPORATION                           1604
B0601400100081013322001LACTO B INCORPORATED                                     1604
A0601400100081023131001ADYR TRADING                                             0506
B0601400520000004423385THE XEVERA HOMEOWNERS ASSOCIATION,                       1605
A0101410560000010317727EVANGELINE E. GABAS                                      0501
A0101400730000000412046TAN, PRAXEDES OR TAN, RAYMOUND                          10502
A0101400730000000412046OR TAN, MIKHAIL                                         20500
A0101400730000014276781DE VERA, FREDERICK NASSER PED                            0501
A0101413310000001794603LEE, ABRAHAM ONG DBU LEEDS DATA                         10501
A0101413310000001794603TECHNOLOGIES                                            20500
A0101401830141366498001GRACE I. RIVERA-JACINTO, MD                              0501
A0101400440000000060200LANIE C. BALISONG                                        0502
A0101407270000011907367YU, SHIRLEEN BALUSO                                      0501
B0101407270162036585002STA. MARIA INDUSTRIAL PARK CORPORATION                   1610
A0101407270162474002004MILA R. DELA PENA                                        0501
A0101407270162495420001PALAYON, GRACE JENNIFER L                                0501
A0101401090171312734001DE LARA, AILEEN CYNTHIA F.                               0502
A0101401090171541582001KATRINA ANNE C. VALDEZ                                   0502
B0301400530000012016936RVSONS CORPORATION                                       1601
A0301400660000006862662**********                                               0501
B0301400660000008941135YPARRAGUIRRE, ERVY BIASAGA DBU ERVY                      1602
B0301400660000003368427GARDENSTATE ENTERPRISES, INC.                            1605
A0301400660000013311385VILLENA, JESUS FLORES                                    0501
A0301400790000001244600YBANEZ, RITCHIE AGUIO                                    0501
A0301400790000001010693BACALI, JOVI TINGSON OR                                 10504
A0301400790000001010693BACALI, KRYSMAE                                         20500
A0101401380000005320978KIM, WON KAB                                             0501
A0101401380000005219790********                                                 0501
A0101410720000013389530ONG, EDUARDO MENDOZA DBU                                10501
A0101410720000013389530GREEN ENERGY TRADING                                    20500
B0101410720653036522001LEDROMECH ENGINEERING SERVICES                           1602
A3101400450000002330438PAGUIA, ALBERTO ANGELES                                  0501
A3101400870000000957655BITHAO, C DBU BP-1 CAR AUDIO                            10502
A3101400870000000957655AND ACCESSORIES                                         20500
A1001400190231520766020LUBIDO, CAROLINE JARALES                                 0501
A1001400190231520766036ONIPA, JANE ROSE P                                       0501
A1001400190231520766117TAROY, MARIONNE ANGELOU SALEM                            0501
A1001400190000001057636VIRTUDAZO, JENEFER S.                                    0501
A1001400350000000922321LIBRON, NANETTE RANISES                                  0502
A1001400350000012928199BEACH, IRENE CEBEDO                                      0502
A1301400470252599213001REYNALDO OR ROSARIO TERESITA OR                         10503
A1301400470252599213001RAYMOND JOSEPH ODULIO                                   20500
A1901400290000014042978AILEEN CHUA MATIBAG                                      0501
A1901400290261244447002LETICIA BAYLON HIPOLITO OR                              10510
A1901400290261244447002ERNESTO B HIPOLITO JR                                   20500
A0101401670271479173002RESURRECCION, MARIA VERONICA                            10505
A0101401670271479173002GARCIA                                                  20500
B0101406460272039835001TECHNOMED INTERNATIONAL, INC.                            1603
B0101410980000000171975AMMC - AVERY MANILA MARKETING CORP.                      1602
B0101411820000010701241ITECH COMPUTER SYSTEM CO.                                1601
B0101400570281043944002EXLO MANPOWER AND ALLIED SERVICES, INC.                  1602
A0101400570281186867001DR. DIANA JEAN ROXAS                                     0501
A0101400570281361144001ERIC G. IDIESCA                                          0501
A0101411240000013962024DE CASTRO, GERALYN FRANCISCO                             0501
A0501400200000005751839GONZALES, GERALD ANACAN                                  0501
B2601400270000011485255DIAMOND BUYING STATION AND RICEMILL                      1605
B2601400270000011485266LBO LUMBER & CONSTRUCTION SUPPLY                         1605
A0801400160311478374034ROSEMARIE R. TUBIANO                                     0502
A6601400120000005710338CUAYZON, KRISTOFFER KINNO NUEVO                          0503
A6601400120314612961001SALAVARRIA, VICKY OR CRISALDO                            0502
A6601400120000005710630DY, FREDERIC JAN TUBELLO                                 0502
A0101402350000011252810TAPEL, BERTILLA TATEL                                    0501
A0101402350000014043824SACARIA, ROHANIE CADAR                                   0502
A0101402350000010384379FAST WHEEL SHELL GAS STATION                             0502
A0101402510341471095001QUIETA, JENIFFER GAY                                     0501
A0101402060351009359003JIANDANI, SURESH G. OR                                  10501
A0101402060351009359003JIANDANI KAVITA                                         20500
B0101402060351035807001SOLEREX WATER TECHNOLOGIES, INC.                         1610
A0201400760000009996098ORMOC, MARY JANE UYKINGTAN OR                           10502
A0201400760000009996098ABANO, CATALINA                                         20500
A0101402930000009324943SAMONTE, A  DBU CRYSTAL BELGIAN                         10502
A0101402930000009324943WAFFLE                                                  20500
B0101402930381026704001RHI-SBC BLOOMFIELDS DAVAO                                1601
B0101402930000003734901TELESERV ASIA SOLUTIONS INC.                             1610
A0101408370382408300001DR. RODRIGO C. SANTOS OR                                10502
A0101408370382408300001DR. ALWYN JOHANNA SANTOS                                20500
A0101408370000005220182MALONG, MARIA ELENA AZARRAGA                             0501
A0101408370382622435001JORGE C. GREGORIO OR                                    10503
A0101408370382622435001LISA CORAZON R.GREGORIO                                 20500
A0101408790000001486331BARREIRO, RAFAEL VILLAR                                  0501
B0101408790383047956001NOVARAD ASIA PACIFIC CORPORATION                         1603
A0101408790383698989001CANDELARIA, MARY JANE DOMINGO                            0502
A0101411660000014311821MENDOZA, LORENZA ALCANTARA                               0501
B0101411660000014822170IGNITECOM INC.                                           1601
A0101402770000001571386ANTONIA O. MANGAMPO                                      0501
A0101408400394162700001FLORES, CATHERINE DOMINGO                                0502
A0101408950000001760630SAMONTE, CLAUDIA YLAGAN                                  0502
B0101409180000008122876UNIONSTAR DEVELOPMENT CORPORATION                        1602
A0101409210000007762910PUNO, ANNA CRISTINA TEODORO                              0502
A0101409210000005251850CRUZ, RONALD REY DELA CRUZ                               0502
B5501400120410041925008EASY PAY FINANCE CORPORATION                             1610
A5501400120410622095001CORDER, JAIMELITA OR EDWIN                               0502
A5101400100000010371110AYCO, ENRIQUE DABIONA                                    0503
A0101403030441240960001**********                                               0501
A0101403320000001646722VERGARA, ANALYN ALABAN                                   0501
A0101403320000010851328CRUZ, NARCISO CRUZ OR                                   10501
A0101403320000010851328CRUZ, AURORA BENAMER                                    20500
A0101403320471040994002E. LAJERAS BUILDERS AND TRADING                          0501
B0101403320000006027009OAKS RESIDENCES HOMEOWNERS ASSOCIATION                   1603
A0101406330000011106020ESPLANADA, RHENA AQUINO                                  0501
A0101410140000001074919LEGASPI, ROWENA BIACO                                    0501
A0501400170000013410850ARCH. ADRIANE DE VERA DASIG                              0501
A1901400160000014828465SOFRONIO E. COLIYAT OR                                  10501
A1901400160000014828465ANDREA D. COLIYAT                                       20500
A1901400160491244128001NATHANIEL L SERRANO                                     10501
A1901400160491244128001OR NIDA V SERRANO                                       20500
A1401400110000003475832RADONES, ARIEL SACRISTIA                                 0504
B1401400110000014145212MARCONSTRUK, INC.                                        1603
A0701400260000012724162HIDALGO, KEITH EDUARD SANTIANO                           0501
A0701400260495241956001SYCHAY, RYAN YU                                          0501
B0101407430503069253001NINE DRAGONS VENTURES                                    1601
A0101403580511293144001EDIBERTH G. LLUZ                                         0502
A0101403580511482747001PAOLO ANTONIO LOPEZ AZURIN                               0501
A0101408530000010580275PASCUAL, VICTORIA EUGENIA ILANO                          0502
A0101411400000005330001***                                                      0501
A0101411790518055815027MANABAT, ELAINE BUNDALIAN                                0502
B0101403450521011968002***********                                              1601
B0101403450521025882001**********                                               1601
A0101403450521239693001*********                                                0506
A0101403610531453729001CHAMBER, MARY HYACINTH CRUZ                              0501
B2201400250000004404960RJ MANALANG CAR CARE CENTER                              1603
A0101404130601450094003LORQUEL PASCUAL OR ANNIE                                10502
A0101404130601450094003PASCUAL                                                 20500
B0101407720602040303001EMERGENCY DOCTORS GROUP OF MAKATI CO.                    1602
A0101409890000006812906TEODORO, JACKIELYN DBU                                  10502
A0101409890000006812906JRGT ENTERPRISE                                         20500
A0101409920000002260588MARTILLO, PAULA BIANCA B. OR                            10501
A0101409920000002260588MARTILLO, VIRGINIA B.                                   20500
A0101409920000013391549TRIA, SEAN ARBIE NAMORO                                  0501
A0101407690652324673001RAFAEL FELIX F. BORROMEO OR                             10503
A0101407690652324673001BERNADETTE CECIL                                        20500
A0101407690652525001073ELVIRA D. BASA  DEALERS OF                              10503
A0101407690652525001073SHOECAT, INC.                                           20500
B0101413440000002691581DON TINO REALTY AND DEVELOPMENT CORP.                    1602
A0101413990000014831699SAN PEDRO, LORENZO UMALI                                 0501
A0101406590662419004001CASAS, CATALINO ASIS                                     0503
A1301400340000009813721************                                             0505
B1301400340000005264900URIAN, KRIS NESTOR LEGASPI                               1601
A1301400340000012156171MAALA, ERWYN FRAN GARCIA                                 0501
B1301400500000005963404PAGASA PHILIPPINES LENDING COMPANY INC.                  1605
B0101408240000010815335**********                                               1603
A0101408240711381561003MARY TERESITA M. DE JOYA                                 0502
A0101408240000013983269AGRIPA, MYRA MANALO                                      0503
A2801400230000001782130GOLDEN STATE ALUMINUM GLASS &                           10505
A2801400230000001782130GENERAL MERCHAND                                        20500
A4101400260000014826189TORRES, BELINDA JEAN DULAY                               0501
A4101400260000012876274LIM JR., JOSEPH BENJAMIN G.                              0501
A4101400260000014820470GENER, ROWENA EMELO                                      0501
A4101400260812247002002RODRIGO M. TUMOLVA OR                                   10501
A4101400260812247002002HELEN B. TUMOLVA                                        20500
A4101400260812478374056EMILY T. DIAZ                                            0502
A4101400260000000377355LOYOLA, ANNIE BAYAN                                      0501
A4101400420000000120970REYAN S. LINCAY                                          0501
A4101400550000000315062SUSON, STEVEN OGABANG                                    0501
A0101412340000005165139PICONES, EDLYN A.                                        0501
A0101412340000011097573PATRISHA AIRIS B. LANZANAS                               0501
A0101412340000004869816BERNADETTE S. HIDALGO                                    0502
A0101404840000006365080VICENTE, MENCHIE MONTILLANA                              0501
A0101404840851520766155JOSEFINA VERGARA                                         0501
A0601400230000012134499WAAY, KAREN MAE GALLARDO DBU K                           0501
A0601400230891253085002MARIVIC T. YAP                                           0502
