F1301400470252522471001NELSON V. LARGO OR                                      12502CKO
F1301400470252522471001RUVELYN S. LARGO                                        22500CKO
F0101400570281434586001DR.IRMINIA C. MONTECILLO                                 2504CKO
F6601400120314050601002CARPIO, WILBERT DIANO DBU CTC                           12602CK1
F6601400120314050601002CONSTRUCTION AND                                        22600CK1
F0101408400394034371002W GROUP, INC.                                            2603CKR
F0101410140000004499021JUAN REPUBLIK FOODS INC.                                 2604CK1
F0101404260611027114001ABS PROMOTIONS CORPORATION                               2610CKR
F0101409890649047374001FRIGID ZONE AUTO AIRCON                                 12603CKR
F0101409890649047374001SPECIALIST CO.                                          22600CKR
