B0101406330472821100608**********                                               2005
A0101408950000002255409LIM, EDNA LAPUZ OR                                      10502
A0101408950000002255409LIM, ALVIN CHE                                          20500
A0201400920000000991711MAGDUA, MAY ANN DARUNDAY                                 0501
B0101408370382027111001PHILIPPINE SOCIETY OF HOSPITAL                          11602
B0101408370382027111001PHARMACISTS INC.                                        21600
A0101408370382618960001JOHN GEOFFREY G. PALISOC                                 0502
A5501400120410614539002SAGABAY, LOURDES A.                                      0501
A5501400120410660853001DARAUG, JOHN MICHAEL DELMORO                             0503
B5501400120410668344001VILLAMOR, AMIHAN OR VILLAMOR, EDUARDO                    1606
B0901400220000000012266**********                                               1601
B0501400170481015881001TOYOTA DAGUPAN INC.-2                                    1615
A4101400420814520766027ARUTA, CORAZON G.                                        0501
A0101400860000005312958**********                                               0501
A0101400860000005312981**********                                               0502
A0101400860000005312981**********                                               0502
A0101400860011391519002**********                                               0502
A0101400860011443455002**********                                               0505
B0101400150061016942006ASIA PACIFIC EXPRESS CORPORATION                         1605
B0101400150061027860002MULTINATIONAL BANCORPORATION (ENTER                      1601
B0101400150000000052731UNICAPITAL FINANCE AND INVESTMENTS                       1605
A0101400150061229009001MANGLAPUS III, RAUL JAY OR                              10501
A0101400150061229009001MANGLAPUS, JENNIFER JANE                                20500
A0101400150061360716001QUILALA, KEITH CELESTINE OR                             10501
A0101400150061360716001QUILALA, EMELITA                                        20500
A0101400150061554336001ROXAS, GRACIA LOPEZ                                      0501
A0101400600071478374004JULIET E. SY                                             0502
B0601400100081013322001LACTO B INCORPORATED                                     1604
A0601400360083043693001R3J BUILDER AND TRADING                                  0502
B0601400360000003186781GOLD TREE IMPORT AND EXPORT INC.                         1605
A0101413280000000312643CARLOS R. ATAYDE OR                                     10501
A0101413280000000312643CARMEN M. ATAYDE                                        20500
A0101414090000007841452YOKOYAMA, TOSHIHIDE AQUINO                               0501
A0101410560000001944072VALEN, ROSANA RETIG                                      0501
B7201400170000003773637MDSDOC CORPORATION                                       1601
B7201400170000003773659LAFFICO MPC - STA. CRUZ BRANCH                           1605
A0101412920000003464891SOLEDAD, HELEN LUCERO OR                                10501
A0101412920000003464891SOLEDAD, BIANCA FRANCESCA                               20500
A0101412920000005354285VICERAL, MICHAEL PANGUE                                  0501
A0101400440000006679663AIDA S. RIVERA                                           0502
A0101400440161478374018MA. DELIA P. FERMANTE                                    0501
B0101407270162037605002MAINE CITY PROPERTY HOLDING CORP.                        1605
B0101401090171037028001MENDOZA & DEL MUNDO JANITORIAL                          11602
B0101401090171037028001SERVICES                                                21600
A0101401090171198410001IMELDA S. DORADO                                         0501
A0101401090171200113001FRED S. UNILONGO                                         0501
A0101401090171574253001REJEZZA L. BAETIONG                                      0501
A0301400530193560797088********                                                 0501
B0101401380201045990001MORE FUN SOUVENIR CO.                                    1602
B0101401380201525090001HONGKONG MASTER COOK CORPORATION                         1605
A0101401380201572546001GUZMAN, JOSEPH JOVEL GIRON                               0501
A3101400160221220998001DANILO C. CUEVAS                                         0503
A3101400450223723510001RIVERA, JOVITO JOBLE                                     0501
A3101400870000001712101CABREA, N DBU LUXE MODERN DAY                           10501
A3101400870000001712101SPA                                                     20500
A3001400130000006145148FERNANDEZ, ALICIA LASCUNA                                0501
A3001400130230711844001BLACANO JR., ADOLFO LACORTE                              0501
A1001400190231040271001ROADNET 2000 ENTERPRISES                                 0502
A1001400190000002266582GAAMIL, JOE ERIC TINONAS DBU                            10501
A1001400190000002266582VICTORY HARDWARE                                        20500
A1001400190231478374001OCERO, ALGENE                                            0502
A1001400190231520766036ONIPA, JANE ROSE P                                       0502
A1001400190231520766103BALCUEVA, CESAR S.                                       0501
A1001400480000005355820TABAN, NOEL OLIVEROS                                     0502
A1001400480000003357793RICARDO, ESTHER LARANJO                                  0502
A1001400480234051824001DESCALLAR, DARWIN LEE CUNADO                            10501
A1001400480234051824001DBU CYNON AGRI CENTER                                   20500
B0101406460272021381001CAMFEL HOLDINGS PHILIPPINES,INC.                         1602
A0101406460272289071002********                                                 0501
A0101411820000000589391LOIS MAE P. MENDOZA                                      0501
A0101400570000006271770MARTIN, MERILLE LISONDRA                                 0502
A0101400570281186867001DR. DIANA JEAN ROXAS                                     0501
A0101400570000001681927ANA MARIA LORETTA S. POHANG                              0502
A0501400200000005751602VILLA ABRILLE, ROMEO AFAN                                0502
B0801400160311751949001FRANCESCA CHAN OR TERESITA BAYANI                        1601
A3401400280000000972783DELA CRUZ, EMILIO BILLONES OR                           10501
A3401400280000000972783DELA CRUZ, MEL CLEMENT                                  20500
A3401400280000003309208CAPCOR MOTORS CORPORATION                                0506
A3401400280318478374002PIONELO, LENIDIE DEVELOS                                 0501
A0101402350321180562001OLIVAREZ, EDWIN L. OR OLIVAREZ,                         10503
A0101402350321180562001MARIA VICTORIA A.                                       20500
A0101402350321408269001SALAZAR, FREDERICK R. OR                                10502
A0101402350321408269001SALAZAR, ELLA CRISTINA J.                               20500
A0101402350321618389001ELVIRA V. MAGLONZO OR                                   10502
A0101402350321618389001MARICRIS V. MAGLONZO                                    20500
A0101405650000000525751ZAFRA, APRIL ROSE PENALBA                                0501
A0101402510000007838488PANGAIBAT, ALIZA MACARAYA                                0501
A0101409050000006986625FERNANDO, MAFE ANGEL                                     0501
A0201400760374682272002OUANO, RUPERTO VILLAFLOR OR                             10502
A0201400760374682272002JAYME, STEPHEN R                                        20500
A0201400760000002309713ARRIOLA, LYLL KAREN BIGORNIA                             0502
A0201400920000000047965TOP WASH LAUNDRY SERVICES                                0501
A0201400890376633154002JIMENEZ, PETER UTLANG OR                                10503
A0201400890376633154002JIMENEZ, MARIA THERESA                                  20500
A0201400890376731894001JIMENEZ, JEREMY MICHAEL ALMARIO                         10501
A0201400890376731894001OR JIMENEZ, MARIA THERESA                               20500
A0101408370382336346001DR. MA. FAIDA R. REYES                                   0501
B0101415350000007839954TAN, CATHERINE A. AND TAN, FRANCIS LOUIE                11601
B0101415350000007839954G.                                                      21600
A0101402770391553570001FERNANDEZ JR., ERNESTO ACOB OR                          10501
A0101402770391553570001FERNANDEZ, CAREN F.                                     20500
A0101408400394037647001FRIAS WATER STATION                                      0502
A0101408400000001855381ABSA BUILDERS                                            0503
A0101408400000001981586BMFV BEAUTY SALON                                        0502
A0101408400394401247002CAPISTRANO, LORALAI REYES OR                            10501
A0101408400394401247002CAPISTRANO JR., REX T.                                  20500
A0101408400394421193001ROMERO, RODELA INOCENCIO                                 0501
A0101408400000000029525PELAEZ, MARIA ANGELINA ARAULLO                           0501
A0101408950000007837161DEL FIERRO, RENAN DE GUZMAN                              0501
A0101408950396493204002DE VERA, JANIS ANN ESPINO                                0501
A0101409180000007809490ALEXANDER CATIERO                                        0501
A0301400820000000045554DENUNA, HAZEL F. OR DENUNA,                             10501
A0301400820000000045554JOZEL HANZ F.                                           20500
A5501400120000005492344DECOLONGON, FLOYD CARREL DIAMAN                          0501
B5501400120000005492399DSSD FAMILY REALTY DEVELOPMENT CORP                      1610
A2401400180000005536712CALERO, MARIA JOCELYN SUNIO OR                          10501
A2401400180000005536712CALERO, FERNANDO                                        20500
B2401400180411021162001TBB & SONS MARKETING                                     1605
B2401400180411033733033ECA RESOURCES, INC.                                      1602
A2401400180000005536621BANTUG, IMELDA MARAVILLOSA DBU                           0506
A2401400180411572205001EBRAHIM, MA. AMOR ISHAD                                  0501
A1201400150421520473001FLORES, MARY JANE KIMAKIM                                0501
A0901400220000000425045LOZADA, ELIZABETH GO                                     0501
A0101403320000007827123JOYCE B. GATCHALIAN                                      0501
A0101403320471478374059HARRY PABLO S. SAC                                       0501
B0101406330472821200608**********                                               2002
A0101410140000001939984DELANTAR, DARMEL URAGA                                   0501
A0501400170000002357451GUILLERMO, SHERRY ANNE ABULENCI                          0501
B1901400160491027966001SALESFORCE ONE MARKETING, INC.                           1605
A1901400160491298552008VILMA F FALCUNAYA                                        0502
A1901400160491405481001CARMELA P LLANA OR                                      10504
A1901400160491405481001VINCENT WIGBERT P LLANA                                 20500
B1401400110492013980002IMPERIAL APPLIANCE PLAZA                                 1601
A1401400110492329425003CUACHON III, NORBERTO AMILHAMJA                          0502
A1601400170000000497581MARK ERWIN C. CHAN                                       0501
A0101405940000007837138TEANO, ODONICA OLARTE                                    0501
B0101408530516035673001FERROTECH STEEL CORPORATION                              1608
B0101403450521011639001**********                                               1604
A0101403450521239736001**********                                               0501
A0101403450000001089896**********                                               0501
B0101407720602033271001DR. ANTHONY KING & PARTNERS CARDIAC                     11604
B0101407720602033271001RHYTHM SPEC CO.                                         21600
A0101407720602382305001PARDINAN, ROSSANA O.                                     0502
A0101404260000000532181MIRANDA, GERARDO REGONDOLA                               0501
A0101404260611478374029EVELYN M. DELFIN                                         0501
A0101404260611478374091ROSITA LLANES                                            0501
B0101415220613821200608**********                                               2001
A0101409920000005461194GUASCH, MARY GRACE SABOLAAN                              0501
B0101411530000003038257**********                                               1603
A0101406590662434303001CLEMENTE, RUIZA M. OR JOSE E.                           10503
A0101406590662434303001OR RAYMUNDO, MA. RACHEL                                 20500
B0101414670679821200608**********                                               2001
A1301400500000005041121PADIERNOS, LIWAYWAY GARCIA                               0501
A0101408240711228456002MA. VICTORIA MANIQUIS                                   10502
A0101408240711228456002OR STEVE MANIQUIS                                       20500
A0101408240711377091002AARON LITONJUA                                           0501
B2801400100712035008001ASIA INTERNATIONAL AUCTIONEERS, INC.                     1620
A2801400100712539678001BELEN, CRISTINA LULU                                     0501
A4101400260000001783957DEPANO, ABEL DBU EXCELLENT                              10501
A4101400260000001783957DEPANO DENTAL CLINIC                                    20500
A4101400260812396084001JOSEFINO S. REBANCOS, M.D.                              10505
A4101400260812396084001LIGAYA S. REBANCOS, M.D.                                20500
A4101400260812469791001CAROL E. COMIA                                           0502
A4101400390000000975173NOAH'S ARK MANPOWER SERVICES                             0505
A4101400390813378814001GIGI D. ABOGADO                                          0501
A4101400390813478374060CASTRO, AMELIA                                           0501
A4101400420000000120696CARMELA G. ROMA                                          0501
A4101400420000003715724FLAVIANO, PERLITA                                        0501
A0101404840851520766104PARAGAS, MARILOU                                         0502
A0101406750000003393253PACHECO, GLENDA ARANA                                    0503
A0101406750000004642313QUEVEDO, MONALISSA MAYE MARCELI                          0502
B0101406750000000090480ALEXANDRIA MARINE AND GENERAL SHIPPING                  11605
B0101406750000000090480AGENCY INC.                                             21600
B0101406750000000090593ALEXANDRIA MARINE AND GENERAL SHIPPING                   1605
A0101405070861579475001SY, MICHAEL TIU                                          0501
A0601400230891698269001DIMABUYU, LESLIE BALUYUT                                 0501
B0101418520003002000029**********                                               2010
