A0101410300000002375802ARCEO, EMY ANICIETE                                      0501
B0101410300000005331737VETS IN PRACTICE, INC.                                   1601
A0101413020000002292680**********                                               0502
A0101410300000000191826*********                                                0501
A2001400290315673185001TAHIR, SAMSODIN TOMAWIS                                  0502
A0101409050000000601403MILITAR, JODIELYN GUSTILO                                0501
A0101409050000008087554TORRES, MIA FAE KOH                                      0501
A0101408370382205182001DR. RICARDO L. JOCSON                                    0501
A0101400860000005312969**********                                               0501
A0101400150000002394590SOLIDUM, JUVER TORRE                                     0501
A0101400150061381319001MYRNA DE JESUS UY                                        0501
A0101400600071334892001**********                                               0501
A0101405810000005315008TRONCALES, CHARLENE FRANCO                               0510
A0601400100000007254022DIMATULAC, CHARL ALVIZ                                   0501
A0101414090000007236519CHAN, GIDEON D DBU WOODEN HOUSE                         10510
A0101414090000007236519DEV'T ENTERPRISES                                       20500
A0101410560000005280462ROSE MARY S. RAPADAS                                     0502
A0101410560000005836291PAULO G. QUIZA                                           0505
A0101400730000013955558PALATTAO, MARY GRACE RAMOS                               0501
B0101400730111036857001FRC SULO RIVIERA HOTEL CORPORATION                       1606
A0101413310000005433363VILLASENOR, MARJORIE ALABADO                             0502
B0101401830000013953552NAGTAHAN TERMINALS, INC.                                 1601
B0101401830000013954037NAGTAHAN TERMINALS, INC.                                 1601
B0101401830141037764001MICHAELJONA TRUCKING SERVICES, CO.                       1602
A7201400170000003774367MEJOS, ANIEVER ANTEGA                                    0501
B0101407270162038146002PELATUS TRADING                                          1602
A0101407270162495837001DANNY T. VIDAL                                           0503
A0101407270162587936002WILFRIDO G. TIRONA                                       0501
A0101401090000013957776ADVINCULA, EDMUND ROJAS                                  0501
A0101401090171196057001ALITA R. CONDE                                           0501
A0101401090171196109001ANGELES A. UNTALAN                                       0501
A0101401090171290445001MARY ANN G. SANTOS                                       0501
A0101401090171295293002ERNESTO R. GONZALES                                      0501
A0101401090171532332001CHRISTIAN ARIS M. VALIX                                  0502
A0101401090171666435001DONDI C. LIM                                             0501
B0301400530000001409438GENSAN LCL TRADING, INC.                                 1603
A0301400660000008941022YPARRAGUIRRE, EGAN BIASAGA                               0505
B0301400660000013311385VILLENA, JESUS FLORES                                    1602
A0301400660194731082088PEJI, JUNE ANN SOLER OR PEJI,                           10506
A0301400660194731082088JONATHAN CORTES                                         20500
A0101401380000006542463MANGROBANG JR., CESAR CUISIA                             0501
A0101413020000003353842JOCO, KRISTINA PEARL LINGAD                              0501
A0101412500000000041614BERMEJO, MARIA JOSEFINA                                 10501
A0101412500000000041614JAVALUYAS                                               20500
A0101412500000000041589CRUZ, SIMON JONAS JAUCIAN                                0501
A0101413600000005355266WALDETRUDES A. LICERIO                                   0502
B3101400160221041096001HEALTHSERV LOS BANOS INC.                                1605
B3101400160000001169295GCDRIVE INDUSTRIAL CORPORATION                           1605
A3101400450223019232001D' BROTHERS AUTO REPAIR SHOP                             0501
A3101400870000008979902CANTUBA, NESTLEE MALABANAN                               0502
A3101400870000013959750REJUSO, SOPHIO CIPPI REY                                10501
A3101400870000013959750MAGALLANES                                              20500
A3001400130000010506560CURITANA, COLEEN BARRIENTOS DBU                         10501
A3001400130000010506560BIAN'Z WHITE CLOSET                                     20500
A3001400130000001261249BANJAO, JENELYN LARA                                     0501
A1001400190231295205002ANG, SIOK BIN                                            0501
A1001400190231520766006DELFIN, LORENA                                           0501
A1301400470000001299185MA. CRISTINA B. CARLOS                                   0501
B1901400290261041112001G&G MANPOWER & PROFESSIONAL                             11602
B1901400290261041112001SERVICES                                                21600
A1901400290000001363133TRIDEA ADVERTISING                                       0502
A1901400290261488341186DR. ANSBERT SALINDONG CO                                 0501
B0101406460000001231645JUNNA LOGISTICS, INC.                                    1603
B0101406460000001231781L'EPICERIE CORPORATION                                   1602
A0101406460272314180001********                                                 0503
A0101406620000000193680VICENTE, MARLON ESPIRITU                                 0501
A0101406620000005394710LIWANAG, RAQUEL ONG                                      0502
B0101406620273034224002JDS CONSTRUCTION PHILS., INC.                            1602
A0101406620273038576001VENTURE 11 FOODS EXCHANGE                                0501
A0101406620273038576002VENTURE 11 FOODS EXCHANGE                                0501
B0101406620273041414001GANO I-TOUCH PHILIPPINES INCORPORATED                    1605
A0101406620273517001001ASUNCION, JOHN DEXTER LIZARDO                            0502
A0101400570000000031836MARIJANE L. LAUREOLA                                     0501
B0101411240000013912357PLAY HARD SPORTS EQUIPMENT                               1601
B0501400200292021985001FOREST LAKE DEVELOPMENT, INC.                            1604
A1101400120000002789833PORMIDA, JAYPEE GO                                       0504
A1101400120000003595813SANTOS, RENATO DE VEYRA                                  0501
A1101400120000000652380CAYUBIT JR., SERAFIN ASERON                              0501
A1101400120313478374094AGAPITO, ROSA POLICARPIO                                 0501
A6601400120314630541002LIAD, ROSIE ORTIZ                                        0502
A2901400130000009071870TALISLIS, HERBERT MAGSAEL DBU H                          0502
B0101402350321040284002THERMOCOOL TECHNOLOGY INC.                               1605
A0101405650000002325515FERNANDO MARTIN TAN                                      0501
A0101402510341536180001ELMA O. ABENGOZA                                         0501
A0101409050000003536503BANGALORE PARTHASARATHY                                 10501
A0101409050000003536503RAJAGOPAL                                               20500
A0201400760000013944339CEJUDO, MARY JEAN GEOLIN                                 0501
A0201400760000013944500SARABOSING, DENIECE MARIE YUMAG                          0501
A0201400760000013944620YBANEZ, JECAR LOUE VEQUISO                               0501
B0201400760000011325403PAGES HOLDINGS, INC.                                     1603
A0201400760374660084001DALUMPINES,SHECKY MAE VILLAVERT                          0501
A0201400920000007951713GUANZON, ELLA SANCHEZ                                    0501
A0201400920375513629001CHUA, JENNIFER OR CHUA, EUGENE                           0501
B0101402930000000623396BENMARK GROUP HOLDINGS, INC.                             1604
A0101411660000002309560RIVERA, VENUS TUMPALAN                                   0501
A0101415350000012246605KALINGKING, NICOLE GABRIELLE V.                          0501
A0101402770391013439001JIREH'S CAR PAINT SHOP                                   0503
A0101402770391039271001MMCSG - BUSES                                            0502
A0101402770391039387002VERTICAL GROUP INTERNATIONAL CO                         10505
A0101402770391039387002MARKETING                                               20500
A0101402770391217498014BERNARDO UMALI                                           0502
A0101402770391529757003SY, WENYFREDA BORGONOS                                   0501
A0101408400000011986671MANARPAAC, GERWEL FERNANDO                               0502
B0101409180000002036846IMPACTHUB PH INC.                                        1601
A0101409180397681135001UICHICO, ERNESTO FLORO                                   0501
A0101409180397696150001MARINO, SALVY OR MARINO, HECTOR                         10501
A0101409180397696150001OR NAVOA, NANETT                                        20500
A0101412210000000238544QUIOHILAG, ABAIGEAL LIM                                  0501
B0301400820000008995577KART & KYLE FEEDS AND VETERINAR                         11601
B0301400820000008995577SUPPLIES, INC.                                          21600
A5501400120410641408001GASCON, MERCEDITA TALAPIAN                               0502
A2401400180000006038280LEDESMA, JULIE ANN CALISTERIO                            0502
B2401400180411014550001GSC PROGRESSIVE MULTI-PURPOSE COOP.                      1604
A2401400180411459505001MARK T. GO OR MADELINE Q. GO                             0502
A1201400150421254492001KUMAR, ARUN OR POONAM                                    0501
A0101403030441239186001**********                                               0505
A0101403030441349976001**********                                               0501
A0101403320471065202001GLAM JAM FOOTWEAR                                        0502
A0101403320471480971001GINA T. CALABIO                                          0502
B0101406330472040053001KUS OFFICE SYSTEM MFG. CORP.                             1602
A0101406330472213329001EVANGELINE G. REAL                                       0502
A0501400170000001072811ALLAS, ALMENDRAS DELENA                                  0501
B0501400170481015881001TOYOTA DAGUPAN INC.-2                                    1615
B1401400110492046339002******                                                   1620
B0701400260000000041083MULTI-WARE ECON-SALES CORPORATION                        1605
B0701400260000007895810PRINCETON ENTERPRISES INCORPORATED                       1603
A0101407430000006147793MARILIZA P. ABONG                                        0501
A0101407430000013169763BERNAL, JOSEPH MEDENILLA                                 0501
B0101403580511005607002RAM FOOD PRODUCTS, INC.                                  1605
A0101405940000005068042BALTAZAR, DORIS DE MESA                                  0501
A0101405940000005068297RICKY M. SEDA                                            0501
B0101411400000001280626POWER QUALITY ENGINEERING LIMITED-R                      1605
A0101411790000002276086LOZANO, CARLITO CULASI                                   0501
A0101411790000013948888ASUNCION, JAY BRYLLE ACIERDA                             0501
A0101411790518055815074PANIS, RONA VANESSA LACHICA                              0501
A0101411790000000134147LUCHAVEZ, ESTHEFANY CAPACIO                              0501
A0101412050000011929185BUENAVENTURA, VICTOR JOSEPH                             10502
A0101412050000011929185DELOS SANTOS                                            20500
B0101412050000007801483BUENA RICH COMMISSARY CORPORATION                        1603
B0101403450000000135555LE FRANK INGREDIENTS PHILS. INC.                         1605
B2201400250000009913168ALICE B. DE VERA/ ROWENA M. GENDRALA/                   11606
B2201400250000009913168DILIDAN S PASION                                        21600
A0101404130601450094004PASCUAL, LORQUEL OR PASCUAL,                            10501
A0101404130601450094004ANNIE S.                                                20500
A0101404260611045966001FRONDOZO TRADING                                         0501
A0101404260611478374012RUBEN P. SANTOS                                          0501
A0101411530000008554930PAULINO, SHEILLA MAE WENCESLAO                           0503
A0101413440000006680675MARCELLANA, CONCHITA GOLLENA                             0502
A0101413440000007953059KANDOLA, MANJIT SINGH                                    0502
A0101413570000012738831VALDEZ, YOLANDA DBU LZV                                 10502
A0101413570000012738831FOODOPHILE FOOD                                         20500
A0101413990000002274073ROLDAN, MARIE KRISTINE MANALO                            0501
B0101413990000003182545J F G CONSTRUCTION & TRADING CORPORATION                 1601
A0101413990000006768638***                                                      0502
B0101414120000011637200CH PEREZ BROS. CONSULTANCY CORP.                         1610
A0101414120000007655185NELLCON BUILDERS AND                                    10501
A0101414120000007655185CONSTRUCTION SUP                                        20500
A0101414120000003190849SORIANO, MARIFE PIEDAD                                   0501
A0101406590662553121001MENRIGE, JONATHAN SOLOMON                                0501
A0101406590000003007198TONGSON, MARILYN ROSALES                                 0501
B1301400210682012854002BULACAN PUBLIC SCHOOL TEACHERS MULTI-                   11605
B1301400210682012854002PURPOSE COOP INC                                        21600
A1301400210682544771001MARY ANN R DELA CRUZ                                     0505
A1301400340000005265072CARREON, RONALD LEGASPI                                  0501
B0101408240000003501464BAUTISTA, MA. ROSARIO PILAR ANASTAC                      1601
A0101408240711375240001**********                                               0505
B2801400100712032123001ZAMBALES MEDICAL MISSION GROUP HOSP                      1602
A2801400230000009021783SINGH, GURMEJ OR SINGH, JAIL                            10502
A2801400230000009021783OR KUMARI, NARESH                                       20500
A4101400260812386293001DR. LORETA B. ZOLETA                                     0501
A4101400420000006643467CACA, MARIETA C                                          0501
A0101412340000003341795AARON PAUL L. CASTILLO                                   0501
A0101412340000004360332JOSEMARI B. CARAG                                        0501
A0101412340000003438704ALFONSO, RAQUEL PUERTOLLANO                              0502
A0101404840000013645724CARREON, NESRAIM CUNETA AND                             10502
A0101404840000013645724CARREON, KEVIN CHRISTIAN                                20500
A0101406750000003393297BARDOS JR, MIGUEL C. OR BARDOS,                         10501
A0101406750000003393297CHRISTINA FAYE Y.                                       20500
B0101406750852023612001LAS PINAS CITY MEDICAL CENTER, INC.                      1610
A0101406750000008644042SALAN, JOAN JUMAMOY                                      0502
