A0101407690000000053881********                                                 0503
A0201401020000000055952DANO, JOSIE DANAS                                        0502
A0101408660000000059790**********                                               0501
A0301400530000000065832PERIAS, FE                                               0501
A0301400530000000066044**********                                               0502
A0101402510000000200164EVELYN M. TOLENTINO                                      0501
A0101413570000000206351**********                                               0501
A1001400350000000245281BAGARES, AGUSTINA BALALA                                 0501
A4101400260000000377515SALAZAR, WERNER VILLANUEVA                               0501
A0101404260000000532056REGINA C ALTO                                            0501
A0101407690000000587895MANLIMOS, AMALYN DELANI                                  0501
A0101408530000000594394ARNOLD LAT FERNANDEZ                                     0501
A1001400480000000606871RICHFIELD AGRICULTURAL SUPPLY                            0503
A0101400730000000645410ASIS, REDENTOR CONSTANCIO                                0501
A3001400130000000668504CUPAY, MERCY FE GANGCA                                   0502
A0101403320000000735808VERGARA, RONA GALIZA                                     0502
A3401400280000000784607SANGRENES, MICHAEL DILE                                  0501
A0101413020000000880451ALCANTARA, ALDEA DEALA                                   0501
A0101401700000000890637LIWANAG, ANALIZA PARTICULO                               0504
A0101412630000000909826VILLEGAS, MARISA DUMAGAT                                 0501
A0601400230000000990052DAYAO, MARIBEL MASIBAC                                   0501
A0301400530000001009830********                                                 0504
A0301400530000001010033YABUT, ELVIS G.                                          0501
A0301400530000001010040MENGUITA, KAREN JANE ONGBAY                              0502
A0101412890000001056440CRUZ, PAULITA BERNARDO                                   0502
A3101400450000001149291BALDOVINO, ISABEL VALDOPENA                              0501
A1301400210000001206831RUTH S IRENEA                                            0510
A0101400860000001348705**********                                               0501
A0301400530000001409694ALIADO SR., JIMMY M.                                     0502
A0101412050000001499772ANTONIO, JUDY VICTORIA ROMAN                             0501
A2801400230000001734750CAPILI, YOLANDA MAGTANONG                                0501
A0101407560000001770801PATICA, MERLYN CUBACUB                                   0501
A3101400160000001792190MIRAFLOR M CARINGAL                                      0501
A0101412630000001823354BATCHAN, ROSEMARY DESCALZO                               0502
A0101412630000001823365MUNCADA, JOSEPHINE SO                                    0501
A0101407690000001919844APUNDAR, MYLENE CABASOY                                  0501
A0601400520000002271063RASAY, ALWINA MAY CRUZ                                   0501
A0101401830000002274386REYES, MEL ANDREW YU                                     0502
A0301400530000002318509********                                                 0503
A0701400260000002338952GONZAGA, RENATO LAVAPIE                                  0502
A4101400260000002888186ROSANO, ROXANNE ANDRADA                                  0501
A4101400260000002888197ALMERO, ANGELITO ABAD                                    0501
A0101406750000002950809CARTAS, EMMANUEL LOMBOY                                  0502
A2201400250000003072120******                                                   0502
A0101412340000003340558EDUARDO S. ALBARAN II                                    0501
A0101412340000003342065ARNOLD E. CORTON                                         0501
A0101412340000003349193MARISSA MAE R. TANA                                      0501
A0101412340000003349397VERDICT ED B. VALDEZ                                     0501
A0101402510000003436786MATUDAN, ROSALITA VILLACERAN                             0501
A0101408950000003439143VILLARTA, MARIA CRISTINA SALAZA                          0510
A0101408950000003439150MOLINA, GINA LOMINOQUE                                   0510
A0101408950000003439172LOTERIO, ANALYN DAVID                                    0510
A0101408950000003439183AYSON, MARIE KAREEN IDEA                                 0510
A0101408950000003439194JALANDONI, LONIE PEDROSA                                 0510
A0101408950000003439201FIRMEZA, ANDREA CRESTA PINEDA                            0510
A0101408950000003439212TIGLAO, ELIZEL TUAZON                                    0510
A0101408950000003439230DALMAN, JOHN ERIC BAQUIRAN                               0510
A0101408950000003439241OCAMPO, MARGARET SUAREZ                                  0510
A0101408950000003439252GAYANILO, MARIA ANA ISABEL CAPE                          0510
A0101408950000003439263ACEDERA, MARIA CHRISTIA PAGCALI                          0510
A0101408950000003439274LUMABI, MICHELLE MANLISES                                0510
A0101408950000003439285ABEDO, MICHELLE PEREZ                                    0510
A0101408950000003439303LACANILAO, OSCAR JR. VILLANUEVA                          0510
A0101408950000003439310SAN JUAN, CARLOS PABLO SANTOS                            0510
A0101408950000003439321LISING, GLADYS NICDAO                                    0510
A0101408950000003439332LICAS, JOHN MICHAEL AMPARO                               0510
A0101408950000003439343CARTACIANO, MICHAEL DALORAN                              0510
A0101408950000003439354TOLETE, ANNE MARIE MONDRAGON                             0510
A0101408950000003439365BANEZ, ROLLY NOTO                                        0510
A0101408950000003439376GOTENGCO, WILFRED BACTOL                                 0510
A0101408950000003439387LAZARO, AGUSTIN CRUZ                                     0510
A0101408950000003439398PURIFICACION, TROY AQUINO                                0510
A0101408950000003439401MOTAS, LAWRENCE  ALEJANDRINO                             0510
A0101400860011374955002**********                                               0501
A0101400860011397182002**********                                               0503
A0101400860011422604001**********                                               0505
A0101400860011456028001**********                                               0505
A0101400860011482819001**********                                               0503
A0101400860011618820001**********                                               0505
A0101400860011706509001***************                                          0502
A0101400150061226998001DANIEL U. YU                                             0503
A0101400440161621420002CANO, EDWIN SANTOS                                       0501
A0301400530193478374012FUEREN, JANETH C.                                        0501
A0301400530193551320168SO, MARIA CARMEN F.                                      0504
A0301400530193581627001BANCUD, ELIEZER L.                                       0501
A0101407140213023148001**********                                               0502
A3101400160221041281001GOHLONG TIRE AND SERVICE CENTER                          0502
A3101400160221220998001DANILO C. CUEVAS                                         0502
A3101400160221529439001ESTELLA MARIE M RAMIREZ                                  0502
A3101400450223028468001NEW ARMSTRONG SECURITY AGENCY                            0502
A1001400190231520766049JOCELYN S. LLUBIT                                        0501
A1001400190231583772001SHIMOKAWA, ROSALYN BARNUEVO                              0501
A1301400470252478374027RICA D. SANTIAGO                                         0502
A1901400290261193220001JOSEPHINE YU TAN                                         0501
A1901400290261298552118CONCEPCION GONZALES ESTIGOY                              0502
A1901400290261360285001CEFERINA MENDOZA MARQUEZ                                 0502
A0101406460272464714002MONTANER, CARMEN GARCIA                                  0504
A0101406460272789592001*************                                            0501
A0101406620273306796044MA REGINA Y. MILLARE                                     0501
A0101400570281388539043**********                                               0501
A6601400120314617580001DORADO, ANITA ACEDILLA                                   0501
A0101408370382475326001DR. ALMIDA A. REODICA                                    0501
A0101402770391350884001ARIEL A. NAVARRO                                         0501
A0101402770391720682001BERNARDO V. LIBERATO                                     0506
A0101409210398689832001SALUD JR., LEODEGARIO HOCBO                              0501
A1201400150421379218001AGWIKING, JONA MANGACCAM                                 0505
A1201400150421478374017TAMAYO, JOEMEL                                           0502
A0101403030441294299001**********                                               0501
A0101403030441481559001**********                                               0502
A0101403320471478374006NELIA MORALES                                            0501
A0501400170481256317001JOVES, NORMA ESTRADA                                     0501
A0101407430503036416001JUPITER'S BUTCHER SHOP                                   0505
A0101403580511031783001ROYAL BARGE TRAVEL AND TOURS                             0510
A0101403580511408773001SIEGFRIED M. MANOOS                                      0502
A0101403580511420184003MARIA CAROLINA S. MACASAET                               0515
A0101403580511718894001JOAN SEMENA CARINO                                       0501
A0101408530516571877137AL SEVERO ONGSIAPCO                                      0501
A0101408530516578215026SABAL, CRISTOPHER VENTURA                                0502
A0101407720602374721001MOHASHIEN SOLIVEN MALO-MAHMOOD                           0502
A0101407720602396604001SANTOS, REBECCA CHUNG                                    0510
A0101407720602404060001MARZO, MARIA ROWENA FERNANDEZ                            0502
A0101404260611156772001ALINEA, LEONORA OR LENI A PIA                            0501
A0101404260611491958001******                                                   0502
A1301400500684090817001MAGTIRA, JIMMY M.                                        0501
A0101408240711372563002ZAMORA, RITA LOPEZ                                       0502
A4101400260812576485001SARAH MARIE M. JALANDOON                                 0501
A4101400260812637312001MARY JANE G. PERINA                                      0501
A0101404840851478374096MARIA JESUSA G. BATARIO                                  0501
A0101404840851520766181ANISAH ALI                                               0502
A0101406750852236873002SISORA OLGAH ELUMIR                                      0501
A0101406750852478374095LORENA N TANGPUZ                                         0501
A1001400480000000133542GUINTO, CHARLOTTE JANE MAGO AND                         10501
A0101407690000000154750BARANGAN, ROMEO DBU                                     10503
A1901400160000000243581ROMAN CATHOLIC ARCHBISHOP OF                            10501
A0501400170000001032131ARCINUE, OSCAR LLAMAS OR                                10502
A0501400170000001072935HERNANDEZ JR., ROMEO FERRER DBU                         10501
A0101400150000001707933CAPISONDA, JULIO R. OR                                  10501
A0301400790000001776230OLAGUER, DENISE ALEXANDRA DBU                           10502
A4101400550000002090962JESSIE CASTILLO OR PETER SIMON                          10501
A0201400890000003411769YAP, INGRID MARIE OR                                    10501
A0101401250021178973001VICENTE S. BERNARDO OR                                  10510
A0101400150061464371002RODA, MARY ANN FLORES                                   10501
A0301400530193768155001IMBOY, MARIECHU C. OR                                   10505
A3101400740224714475002BISCOCHO, GEMMA SANTOS OR                               10501
A1001400350233528399003KO, JOSE NELSON AND                                     10502
A1901400290261085970001DANTE ARANDA MATIAS OR                                  10501
A0101406620273315888001LAUREL, JOANNA OR LAUREL, CARLA                         10501
A0101406620273400631001DINDO P. SANCHEZ OR                                     10502
A0101405650322795084001PAULO B. VALDEZ OR                                      10502
A2201400250561478374066MARY ROSE C. ALFONSO                                    10501
A0101407720602283353001ERWIN HERNANDEZ OR                                      10501
A0101407690652525001019NACENO, LOURDES B. - DEALERS OF                         10501
A0101407690652525001056ENRIQUE, EMY SANTOS - DEALERS                           10501
A1301400210682245918002CHRISTINA JANE TORNO OR                                 10501
A0101408240711486190001LOLITA DELA CRUZ OR                                     10504
A1001400480000000133542GUINTO, NEMER SARDEA                                    20500
A0101407690000000154750BARANGAN TRADING                                        20500
A1901400160000000243581LIPA (RCAL)                                             20500
A0501400170000001032131DE VERA, LUCIA M                                        20500
A0501400170000001072935ZAIRON TRADING                                          20500
A0101400150000001707933CAPISONDA, IMELDA M.                                    20500
A0301400790000001776230LJDA ENTERPRISE                                         20500
A4101400550000002090962LARA OR EVANGELINE LUNAR                                20500
A0201400890000003411769YAP, KELVIN                                             20500
A0101401250021178973001ARACELI C. BERNARDO                                     20500
A0101400150061464371002OR RODA, JULIUS                                         20500
A0301400530193768155001IMBOY, JULIUS S.                                        20500
A3101400740224714475002BISCOCHO, BENEDICT PAMESA                               20500
A1001400350233528399003KO, CHARMAINE                                           20500
A1901400290261085970001TERESITA REYES M                                        20500
A0101406620273315888001LAUREL, CARLOS O                                        20500
A0101406620273400631001EMILY H. SANCHEZ                                        20500
A0101405650322795084001STEPHANEY ANN S.                                        20500
A2201400250561478374066MEMBERS OF NATASHA                                      20500
A0101407720602283353001AGNES HERNANDEZ                                         20500
A0101407690652525001019SHOECAT INC.                                            20500
A0101407690652525001056OF SHOECAT INC.                                         20500
A1301400210682245918002  ROMINAVAR TORNO                                       20500
A0101408240711486190001RAMIL DELA CRUZ                                         20500
B2801400230000000008380J&D OLONGAPO PHILS. CO.                                  1602
B1301400470000000009543GJG MAN POWER & JANITORIAL SERVICES                      1602
B0101408820000000027363********                                                 1603
B0101408820000000027370********                                                 1605
B4101400390000000033963KINGSMEN CREDIT AND LOANS, INCORPOR                      1605
B0101406460000000182410OFFICE DEPOT CORPORATION                                 1601
B0101403580000000214695MEC - SONRIA                                             1610
B0101409050000000258473AMALGAMATED INVESTMENT BANCORP.                          1603
B1201400150000000473381BAYQUEN REALTY AND MANAGEMENT CORPO                      1603
B0101401090000000772350BLUMEX PLUS CREDIT INVESTOR INC.                         1605
B4101400260000001199071SCALE SNIPER TREATMENT PHILIPPINES, INC.                 1601
B0101408110000001199220EAT OUT MANILA, INC.                                     1602
B0101412180000001293016JENNIEDEDIOS INC.                                        1603
B0101401700000003073992M2 AUTO PARTS CENTER INC.                                1606
B0101400860011023116001**********                                               1601
B0101400860011043377002WAI-YING FASTFOOD                                        1605
B0101400860011425868001**********                                               1601
B0101401700041192600001128 DREAM FOUNTAIN CORP.                                 1605
B0101400730111482881001CASA BOCOBO HOTEL, INC.                                  1605
B0101401090171031978001STUDIO 234 GRAPHICS & DESIGN                             1602
B0301400530193038620001RD CASH PADALA, INC. - TAGUM                             1603
B0301400790195053525002EMCELI PROPERTY HOLDINGS CORP                            1602
B0101407140213037444001THREE WAYS RECRUITMENT PHILS. CO.                        1605
B0101407140213047947001*****************                                        1603
B3001400130230043293001L.M. TING FOODILICIOUS CORPORATION                       1620
B1901400290261015948001CANOSSA ACADEMY                                          1602
B1901400290261047372001EXCEL LOANS AND CREDIT CORPORATION                       1604
B0101406620273460371001PHIL. MANAGEMENT, INC.                                   1603
B2001400290315047753001SILLIMAN UNIVERSITY COMMUNITY COOP.                      1610
B2001400290315635857001****************                                         1601
B0101405650322016488003CALOOCAN BEARING AND PARTS CORP.                         1610
B0101405650322043988001AUTRONIX SYSTEMS, INC.                                   1604
B0101408820333042383001********                                                 1605
B0101402060351040060001BUILDSMART HOME SUPPLY CO.                               1601
B0101409050352044426001DELTA CONCRETE CORPORATION                               1620
B0201400890376055653001BROLLEE DISTRIBUTIONS & LOGISTICS INC.                   1601
B0101405490392518855001ISABELLE ROYAL HOTEL & SUITES INC.                       1602
B0101409210398015788001PETNET, INC.                                             1603
B2401400180411032583001TOTAL SEA GRADE MARKETING CORPORATION                    1604
B1201400150421009374001ESLA MANAGEMENT AND CONSULTING                           1605
B0101403580511015363083MILLENNIUM ERECTORS CORPORATION                          1610
B0101405940512022289003MGNP, INC.                                               1606
B0101403450521011735001BASIC PACKAGING CORP.                                    1602
B0101403450521015552001**********                                               1603
B0101403450521029023001**********                                               1602
B0101403450521238051001*********                                                1602
B0101407560686040555001*************                                            1605
B0101408240711026678001SAMBEL PACIFIC CORPORATION                               1602
B0101408240711028488001INTAS DESTINATION MANAGEMENT INC.                        1605
B2801400100712034349001FUSEWORX, INC.                                           1605
B4101400550815043037001BETAFOAM CORPORATION                                     1601
B4101400550815046300001SAGREX CORPORATION                                       1601
B4101400550815047959001DASMA PLASTIC RECYCLING CORP.                            1601
B4101400550815047960001INSUPACK FOAM CONVERTER INC.                             1601
B0601400230891046531001RD CASH PADALA, INC. - AREA 03 SAN                       1603
B0101400150061027012001PRECEPT MINISTRIES INTERNATIONAL OF                     11601
B0101401830141032221001CARITAS ET LABORA HUMAN RESOURCE SERVICE                11605
B0301400530193037483168TAGUM AB MARKETING BUY & SELL                           11605
B0101409050352009648001CHRIST'S COMMISSION FOUNDATION, INC.                    11601
B1301400210682038666001EMERALD MANAGEMENT SERVICES &                           11601
B0101400150061027012001THE PHILIPPINE                                          21600
B0101401830141032221001COOP.                                                   21600
B0301400530193037483168AGRI PRODUCTS                                           21600
B0101409050352009648001(EASTWOOD)                                              21600
B1301400210682038666001CONSULTANCY                                             21600
B0101406620273821100608**********                                               2010
