B1901400290261033408001FEEDS EDITION DISTRIBUTION SYSTEMS INC.                  1615
A0101413150000000082671AGABIN, JULIO OR AGABIN, GEORGE                          0502
A1901400290000000135060ALELI GUTIERREZ PERCE OR                                10502
A1901400290000000135060FLORENCIO D PERCE                                       20500
A1901400290261395813001PAZ LAYGO JOSE                                           0501
A0101400860011474635001**********                                               0501
A0101400860011561618002**********                                               0501
A0101400860011594952001**********                                               0505
A0101401250900001131787SANCEBUCHE, NOEME CABILLO                                0502
B0101401250000003803336OCEAN AIRE HOTEL CORPORATION                             1605
A0101401250021411710001JAMBALOS, MARISSA LANELUZ                                0503
A0101400150000012146206FRAGANTE, SOCORRO PROTACIO                               0501
A0101400150000000525579PORNETE, MA LUZ LABANDAN                                 0502
A0101400150000001422002HERNANDEZ, CARRIE ANN SENIQUE                            0502
A0101400150000009218008LIM, CELESTE MARIE VALENCIA                              0502
B0101400150061047235001ROYAL METRO POINTE DEVELOPMENT INC.                      1603
B0101405810000001021172PUA, C DBU MCK SCHOOL & OFFICE                          11603
B0101405810000001021172SUPPLIES                                                21600
A0101405810072385132001**********                                               0503
A0601400100000017681091AQUINO, RONNEL PENARANDA                                 0501
B0601400100000000032806BLU BLAZE GAZ HAUS                                       1602
A0601400360000017674974TIGLAO, DOMINIC PANGILINAN                               0501
B0601400360000003186714BSD TRADE SERVICES CORP.                                 1603
A0601400520000013872530TIONGSON, CHARMIE LIMIAC                                 0501
A0601400520000003009270NAGUIT, ALFONSO MIRANDA                                  0501
A0101413730000005316176***                                                      0505
B0101414090000002244782A&A KNOWLEDGE BASE RESEARCH CONSULTANCY                 11602
B0101414090000002244782TRAINING INC.                                           21600
A0101400730111520766061BERNADETT BALUTOC                                        0502
A0101401960121238669001**********                                               0502
A0101401960121238669001**********                                               0501
A0101413150000011778104DAVID PENAFLOR                                           0501
A0101413310000016813451JAN CHRISTOPHER M. CRUZ AND                             10501
A0101413310000016813451MARIA ELILOU JHOY MERCIDO                               20500
A7201400170000003774436MAATA, JANIETH S. OR                                    10502
A7201400170000003774436MAATA, JEFFRY P.                                        20500
B5001400170000000169722LIM, WILSON TAN OR LIM, MARIA NILA WEE                   1602
A0101412920000016981752BERNARDINO, MARVIN MACATULAD                             0502
B0101400440161025954001DEX INTERNATIONAL CO.                                    1610
B0101400440161039070001LGRM ENGINEERING & CONSTRUCTION                          1602
A0101400440161039572010MYRNA A. CANELAS                                         0502
A0101400440000000029423ROBINA P. OTAZA                                          0502
A0101400440161520766125FELY TUBELLO                                             0501
A0101400440161574323001MARISSA P. MAGPAYO                                       0501
A0101407270000008551013MONTEMAYOR, JESUS RIVERA                                 0502
B0101401090171023763001STO. TOMAS COMMUNITY SAVINGS AND CR                      1601
A0301400530000010370673DINGAL, CHESTER DOLOJAN DBU                             10501
A0301400530000010370673ELECTRO WORLD                                           20500
A0301400660000008941180DU, RACHEL ANNE CHIU OR                                 10501
A0301400660000008941180ALMORADIE, MARK GOODWIN                                 20500
A0301400950000010701003LORENZANA, RACHELLE CARREON                              0502
A0101401380000005219905COBARRUBIAS, MARIA CECILIA                              10504
A0101401380000005219905DELA CRUZ                                               20500
A0101413020000006295992PRUDENCIO, MARK ARTHUR EVANGELI                          0501
A0101412500214331365001CRUZ, WYNALDI TABLIZO                                    0501
A3101400450000000014013CRUZ, MA. BELENETTE CORONADO                             0501
A1001400190000015442287ARQUIZA, DAISY VICENTE                                   0501
A1301400470000001299185MA. CRISTINA B. CARLOS                                   0501
A1301400760000008699045DIANA LAREEN S. ANGELES                                 10502
A1301400760000008699045DBU A-STAR PAWNSHOP                                     20500
B1901400290000017672585JHL MEGADAM CORP.                                        1601
B1901400290261060606001F.J.H. HARDWARE & ELECTRICAL SUPPLIES                    1601
B0101406460272017045001INFORMATICS COLLEGE-MANILA, INC                          1605
B0101406620000011433144NEW YORK BAY PHILS., INC.                                1602
A0101406620273629194001CAEZAR JR.OR MA. SOCORRO LANUZA                         10502
A0101406620273629194001OR SANDRA FERNAN                                        20500
A0101412470000008158834TOLENTINO, JOHNSON LU DBU NEW                           10501
A0101412470000008158834JOLEN MARKETING                                         20500
A2601400270000005301728MORA, CRISANTO MAGORA DBU AM                            10501
A2601400270000005301728MEATSHOP AND STORE                                      20500
B2601400270000011415266SHANGRI-LA RICEMILL & BUYING STATION                     1605
A2601400270000000020639IGNACIO DATU OR WILMA DATU                               0510
A2601400270000014231339VIRAY, BRIGIDA AMIGO                                     0501
A0801400160311520511001CORONADO, LYDIA CRUZ                                     0501
A0101402510341081225001MANIGBAS, ROSARIO DONALYNE                              10502
A0101402510341081225001LANDICHO                                                20500
B0101402060351021742001WORLD IMPACT COMMUNICATIONS, INC.                        1605
B0101409050000007526469MCN FREEDOM! TECH INC                                    1602
A0201400760000016614738OLIVA, MARY JOSEPHINE GO OR GO,                         10502
A0201400760000016614738HERBERT JOSEPH GALLANO                                  20500
A0201400760000015753241CHUA, CLARK PONCE                                        0502
A0201400760374705541001FELICEN, CARLITO                                         0501
B0201400920375036273001PROFOOD INTERNATIONAL CORP.                              1605
A0201400920375048147001COLONIE PEST CONTROL                                     0502
A0201400920000002249998GALANG, LORLIE PACURIBOT OR                             10501
A0201400920000002249998GLENN ANTHONY GALANG                                    20500
A0101408790000012313209CRUZ, ANGELITA DE JESUS                                  0501
A0101408790000016826416SADIVAR, CATHERINE DEL ROSARIO                           0501
B0101411660000007555806COMQUEST INGREDIENTS TRADE, INC.                         1601
A0101402770391095895001RAMOS, JAYAR DE CASTRO                                   0502
A0101405490000014676954GALE, RUSSIEL FERRAREZA                                  0503
A0101408400000007264577RAFAEL, MARK JOSEPH REYES                                0503
A0101408400000011277451ORPILA, GLORIA PALMA                                     0505
A0101408400000014500631DELA PENA, WARREN GARCIA                                 0505
B0101408400000003120554GILIGAN'S ISLAND BAGUIO, INC.                            1602
A0101409180000017410689JAIME D. CARLOBOS JR.                                    0501
B0101409180397024348001APPLESEED MONTESSORI INCORPORATED                        1601
B0101412210000005051336GEOGEN CORPORATION                                       1602
B5501400120000005492399DSSD FAMILY REALTY DEVELOPMENT CORP                      1615
A2401400180000007031916DORADO, ROY LUBATON                                      0501
B2401400180411026265001SOUTH SEA FISHING VENTURES PHILS, INC.                   1615
B2401400180411033012001RUGELA FISHING INDUSTRIES INC                            1603
A1201400150000015171890BONDOC, DAYANARA BARIBAL                                 0501
A1201400150000015171970QUIANIO, WILFREDO FLORES                                 0504
A1201400150000016104362DULNUAN, ALPINE SILOT                                    0502
B1201400150000000034379GOSHEN LAND CAPITAL INC.                                 1610
B0101406330472020438001DAROMAR DEVELOPMENT CORP.                                1605
A0101406330472035709001MUSIC101 MUSIC TRAINING CENTER                           0501
A0101406330472691386001EDILBERT HOMO GERONIMO                                   0501
B0501400170481023482001ARZADON LEISURE CORPORATION                              1605
A0501400170481252361001LO, JOSEPH GUANZON OR                                   10502
A0501400170481252361001LO, RUBY                                                20500
A1401400110000017623042PENA, GIOVANNI EXCELCIS DE CHAV                          0501
A1401400110000014145392ZAFRANCO, JEFFERSON DBU TEALDIA                          0501
A1401400110492221115001MANOLO A MERCADO                                         0504
B0101403580511016327001KSEARCH ASIA CONSULTING INC.                             1610
A0101403580511156579014IMELDA FUNDALES                                          0502
B0101405940000005359606SOMNOMED PHILIPPINES, INC.                               1603
A0101408530000008159893ALKUINO JR., NESTOR                                      0501
A0101408530516615903013DEL ROSARIO, JULIETA                                     0501
B0101403450521024677001GRAND MAJESTIC MANUFACTURING CORP.                       1602
B0101403450521033882001**********                                               1610
B0101403450521033882002*********                                                1610
A0101403450521238046001**********                                               0502
A0101403450521389380001**********                                               0502
A0101403610000016246230MAPUSAO, KENNY MALEJANA OR                              10502
A0101403610000016246230MAPUSAO, ROSALIN                                        20500
A0101403610000017675448LAMBINO, JULITA TACATA                                   0501
B0101403610000015381452CANONIZADO, ZORAIDA MACASERO DBU                        11601
B0101403610000015381452LKZ FOOD STATION                                        21600
A2201400250000010425311RAYMUNDO OR ROBERTO OR GERARDO                          10501
A2201400250000010425311OR MELLANIE ROBLES                                      20500
A0101407720000003886802OLIVAREZ, MA. CELESTE JACOBE                             0501
A0101407720602379217001ALFONSO N. BLANCH OR                                    10501
A0101407720602379217001MARIA ELIZABETH BLANCH                                  20500
A0101412180000014410087MIRANDA, NATALIE LIM                                     0504
B0101409890649012116001*************                                            1608
A0101409890649747345001SORIANO, DONNA MARCELA                                  10502
A0101409890649747345001DELOS REYES                                             20500
A0101411530000010702648PANGILINAN, MANUEL ESPIRITU                              0503
A0101413990000016958313COMBO, NOEMIE TUMALAD                                    0501
A0101413990000016958320MAGPANTAY, RYCEL BUENCAMINO                              0501
A0101414120000011288863TORRALBA, MA. EMILIA ASIS                                0502
A0101406590662694250001VIDANES, ELIZABETH ALVIAR                                0501
A0101410300000000191917CABARRUS, GRACE K. OR CABARRUS,                         10503
A0101410300000000191917GEORGE DENNIS K.                                        20500
A1301400210000017362011BAUTISTA, REYNALYN FRANCISCO                             0501
B1301400210682038636001FBIC INDUSTRIAL ESTATE ASSOCIATION                       1602
B1301400210682043735001BULACAN SPORTS COUNCIL FEDERATION I                      1604
B1301400210682066821001SAINT EZEKIEL MORENO SCHOOL OF                          11602
B1301400210682066821001MALOLOS,INC.                                            21600
A1301400210000016642290CASTILLO, ALICE FRANCISCO                                0502
A1301400340000005264911URIAN, YVONNE LYN-MAE TAN                                0501
B1301400340000000011883METAMORPHOSIS SCHOOL INC.                                1605
A1301400500000004093087ME-ANN'S EGG DEALER                                      0505
B1301400500000005963437SOFIETH FOOD CORP.                                       1605
A1301400500000009723311ANTIPORDA, ELIZABETH SAYSON                              0501
B0101408240000016454518GNADE GOTTES CORPORATION                                 1601
B2801400100712041870001SUBIC MOBYMIX TRADING INC.                               1601
A2801400100712744077001ARMAMENTO II, PAULO ROMULO                               0502
A2801400230713045955001LITTLE SCISSORS UNISEX SALON                            10502
A2801400230713045955001(RONNIE B. RUIZ)                                        20500
B2801400230000001580285GR888T C CORPORATION - (YBC)                             1603
A2801400230713074852001DOMINGUEZ, MARIVIC MANDADERO                             0502
A4101400260000017671695SHARMA, VISHAL .                                         0501
A4101400260000012859322CUNANAN, PRECIOSA DEL MUNDO                              0501
A4101400260000012864978MENON, BHANU SHANKER                                     0501
A4101400420814298552007NOEMI S. GARCIA                                          0502
A4101400420814478374122AGUILO, RODENA T.                                        0501
A4101400420814758362001LACSA, ROSA SIMBALLA                                     0501
A4101400550815478374008LORELYN C. PARCIA                                        0502
A0101404840000012411180BALACUA, ERNESTO DE GUZMAN                               0507
A0101404840851217637065LUCY D. AMPO                                             0501
A0601400230891328611001ENGR. NELSON G. LINGAT                                   0501
A0601400230000015248747GENONANGAN, YANEXAS VILLAR                               0501
A0601400230000007402188CHUA, MARK ANTHONY GARCHITORENA                          0504
