B2401400180411821100608**********                                               2010
A0101406620273306796004FE FORTUNATA R. RIO                                      0501
B0101403320471062316001ZEAL POWER CONSTRUCTION & DEV'T. CORP.                   1601
A2001400290315644867001SY, BENSON GO                                           10501
A2001400290315644867001SY, MARGIE TERES                                        20500
A0101414120000002172590**********                                               0501
A4101400420814436355001BAUTISTA, LOIDA U. OR                                   10502
A4101400420814436355001BAUTISTA, EPITAC                                        20500
A4101400420814478374044BERATIO, MARITES M.                                      0501
A4101400420814478374193CONDE, EMMA D.                                           0501
A4101400420814520766118ADOC, MYLEN A.                                           0502
B4101400420814821100608**********                                               2005
A0101400860011413316001**********                                               0505
A0101400150000000806906DE LEON, CAROLINE TUAZON                                 0501
B0101400600071027347001*****                                                    1602
A0601400520000001120385BANAG, ESMERALDO PINEDA                                  0501
A0601400520000005943564FELIPE, DONNA FIDES SOMERA                               0501
A0601400520000004423250ALBROS CARGO                                             0501
A0601400520000003009310ICECREAMVILLE                                            0501
A0101410850000002356761**********                                               0502
A0101410850000003503999**********                                               0501
A0101400730111478374009VERGARA, GLENDA                                          0502
A0101400730111478374017VEBELITA G. GALLETO                                      0502
A0101412630000001823274TURINGAN, MARIA ELENA LASAFIN                            0502
A0101412630000000909779FORTICH, DIANE TAGAPULOT                                 0501
A0101412630000007168712FORTICH, DIANE TAGAPULOT                                 0501
A0101401830141288700001ROSALINDA V. SEPULVIDA OR                               10501
A0101401830141288700001MICHAEL V. SEPULVIDA                                    20500
A7201400170000003772952GALEON, ELIZABETH FUENTES OR                            10503
A7201400170000003772952GALEON, DOMINADOR OLETA                                 20500
A0101400440161525001100CATHERINE J. NARAGA                                      0501
B0101401090000000210482BLUMEX PLUS CREDIT INVESTOR INC.                         1605
A0301400530000001009863LEANO, MARIVI MESA                                       0501
A0301400530000001409752URSUA, PRINCESS F.                                       0501
A0101401380000001412651LEY, VALENTINO TING                                      0503
A0101413020000000056977ROBLES, ANDREW GULA                                      0501
A0101410720653401664001PADUA, GILDA MONICA CANCINO                              0501
A0101412500000007793471MERCADO, JOLITO ORTIZ                                    0501
A3101400740000001692457MALABANAN, MILANNIE G. OR                               10502
A3101400740000001692457MALABANAN, ROHNELL C.                                   20500
B3101400870225054035001WAKABA PHILIPPINES, INC                                  1602
A1001400190000007777642TAN, ERIC TSAI                                           0501
A1001400190231478374067DAGANATO, NICANORA BALOS                                 0501
A1001400350233782517001**********                                               0501
B1001400480000003028873RESMA, EUGENE UTLANG DBU TYPE R                          1601
A0101406620273358539001MARIA TERESA L. JAHRLING OR                             10502
A0101406620273358539001ANGELO JAHRLING                                         20500
A0101406620273458914001**********                                               0501
B0101408660274038268001AVO AIRVENT INCORPORATED                                 1601
A0101412470000000520192ARCA, ESTHER DBU WASABE SPICE                           10503
A0101412470000000520192OF THE ORIENT                                           20500
B0101411240283046060001GRAND STAR GENERAL CONTRACTOR                            1604
A2601400270000002677547MILA R. VALDEZ                                           0502
A1101400120000006080673ACUNA, MARIA NIMFA DALINO                                0501
A1101400120000003022373BANTULA, EVELISA                                         0501
A1101400120000001547268JADOC, MA. ARIELYN PALOGAN                               0501
A6601400120000006154725PAILAGAO, MERCY BACONGUIS DBU                           10505
A6601400120000006154725MERJEL GENERAL MDSE.                                    20500
A6601400120314081806001AMOR, ZALDY FRANCISCO                                    0503
A2001400290315043995001NAVARRO STOP N'SURF INTERNET                            10510
A2001400290315043995001CAFE                                                    20500
A0101402510341346704001DIZON, AMELIA TIOSEJO                                   10505
A0101402510341346704001DIZON, MARVIN PAUL GALANG                               20500
B0101414700353821100608**********                                               2003
A0201400760000002047343ANORE, SEAN LABRA DBU CAFE BELL                          0501
A0201400890376080642001GALANG, LORLIE PACURIBOT OR                             10502
A0201400890376080642001GALANG, GLENN AN                                        20500
A0201401020000000055952DANO, JOSIE DANAS                                        0501
A0101408370382490482001DR. KRISINDA C. DIM-JAMORA                               0501
A0101408370382579874001DR CARLOS E PAGUIO OR                                   10510
A0101408370382579874001MA PAZ M PAGUIO                                         20500
B0101408790383047729001INFINITE GRAFIX & OUTDOOR ADVERTISING                   11601
B0101408790383047729001INC.                                                    21600
B0101408790000000039012ARDENT COMMUNICATIONS, INC.                              1603
A0101415350000007797873ENAJE, ANDREA ESTAREJA                                   0501
A0101402770391404096001****************                                         0503
A0101402770391404096002PANLILIO, MYLENE BAGON                                   0501
A0101408400394473872001ARCA, ROWENA LUGTU  OR                                  10501
A0101408400394473872001ARCA, EMMANUEL D                                        20500
A0101408400394535998001ANDAM, KATHERINE KRISTY TOMAS                            0502
B0101409180397024361001ASALUS CORPORATION                                       1603
B0101409210000002783282NUTRIGENICS ASIA INC.                                    1601
A0301400820000001554821ACLAO, MARILOU G.                                        0501
A2401400180411276219002NONO, JENNY DIZON                                        0502
A2401400180411478374069JUBAN, MARIVIC BABA                                      0501
A0901400220000002300845LIM, RENEEROSE VESAGAS                                   0502
A0901400220000003069043**********                                               0502
A0901400220432077473001**********                                               0502
A0101403320000000735717BAUTO, GUADA LYNNE CASTILLO                              0501
A0101403320000001803481GUZMAN, MARLON ONG                                       0502
A0101403320000000067543ATENDIDO, MANUEL T. JT                                  10501
A0101403320000000067543DBU ATENDIDO REALTY                                     20500
B0101403320000001647149UNIGOLD EVENTS AND PROMOTION MANAGEMENT                 11601
B0101403320000001647149INC.                                                    21600
A0101403320471442721001CANDIDO M. MANEJA OR                                    10502
A0101403320471442721001GLADYS MANEJA                                           20500
A0101403320471470037001JULIETA D. MALLARE                                       0502
A0101403320471478374051MYRA ATANGAN                                             0501
A0101403320000000067532YAGUEL, SALVE L.                                         0501
A0101412760000002067552VILORIA, REMEDIOS O. OR                                 10501
A0101412760000002067552VILORIA, EDUARDO C.                                     20500
A0501400170481254469002OSCAR ARCINUE OR LUCIA DE VERA                           0505
B3801400170490058565001KRUSTY PATTY PIZZA CORP.                                 1601
A3801400170490757939001RENEL GARCIA MEDINA                                      0502
B1901400160491341189001VIRGINIA R VARGAS OR                                    11601
B1901400160491341189001RICHARD D LIM                                           21600
B1401400110492046339002******                                                   1620
A1401400110492221706002SY, GRACE T.                                             0501
A1401400110000000132841*******                                                  0501
A1601400170000000497423MENCHU R. BUADO                                          0501
B0101405940000005359560AUTOBRANDS MEDIA VENTURES, INC.                          1602
B0101406880513028753002AVT PROPERTIES INC.                                      1605
A0101408530516568848001TANGCO, ERWIN CHUA                                       0501
A0101408530516571877055JIXY JOAN D. GATCHALIAN                                  0502
A0101408530000000035936PARK, JEE WHAN                                           0501
A0101408530000007304550GLINOGA, MA. NATIVIDAD TOMAS                             0501
A0101411790518055815027MANABAT, ELAINE BUNDALIAN                                0501
B0101412050519062508001OUTBOUND ASIA INCORPORATED                               1601
A0101404000000004366661JESCELLE EMMALYN B AVIADO                                0501
A0101404130000006275909DEL ROSARIO, GIZELLE ROSE PADUA                          0501
A0101407720602163476001PAGDANGANAN, ERNEST APACIBLE                             0501
A0101407720602328663002********                                                 0502
A0101407720602381371001SHIELA H. PAGDANGANAN OR                                10502
A0101407720602381371001ERNEST PAGDANGANAN                                      20500
A0101407720602399815001ALEJANDRO, RUTH MARGARET                                10501
A0101407720602399815001FRANCISCO                                               20500
B0101412180000001293049AUTO MAGIC CORPORATION                                   1602
A0101404260611150840001WILLY CHING OR ISIDORA CHING/                           10505
A0101404260611150840001GOLDSUN LUMBER                                          20500
A0101404260611478374076NEREZA P RULL                                            0503
A0101407690000000025174MADRIAGA, LUZMINDA CAMINA                                0501
A0101407690000005198063JARDINICO, ROMEL LAMAYAO                                 0501
A0101407690652025438001BETA BAKERY SUPPLIES & GENERAL                          10501
A0101407690652025438001MERCHANDISE                                             20500
A0101407690652045951001JMK BUILDERS CONSTRUCTION                                0502
A0101407690000000154750BARANGAN, ROMEO DBU                                     10505
A0101407690000000154750BARANGAN TRADING                                        20500
A0101407690000001919833COOL CLASS GARMENTS ENTERPRISE                           0502
A0101407690652496446002BUNSAY, LYDIA GUEVARRA                                   0502
A0101407690652604420001FERNANDEZ, CHRISTINE ROSE JOLO                           0502
A0101413570000005435161OROZCO, ELIZABETH ARAGON                                 0502
A0101413990000006278088CORREA, TRISTAN JAY BONTO                                0503
B0101406590662062507001DORMITORIO DE MANILA REALTY &                           11601
B0101406590662062507001DEVELOPMENT CORP                                        21600
A1301400210682395691001AUREA VALERIO OR                                        10502
A1301400210682395691001  AMELIA BICALDO                                        20500
A1301400340000000926789********                                                 0503
A1301400500000004093292MARA ANGELIQUE C. CRUZ                                   0501
A1301400500000007096428SANTOS, JOSEFINO RIVERA OR                              10502
A1301400500000007096428SANTOS, ALLAN JOSEPH ONG                                20500
A1701400230693478374015FERNANDEZ, FEMA L.                                       0501
A1701400230693478374079GAN, MARIETTA FERNANDEZ                                  0501
A0101408240711383150001AURELIO III OR AURELIO JR.                              10501
A0101408240711383150001OR AARON LITONJUA                                       20500
A0101408240711396778001MA. FRANCESCA ROMANA OR                                 10501
A0101408240711396778001PHILIPPE SEYER                                          20500
A4101400260812478374012MA. THELMA M. BALDOZA                                    0501
A4101400390000003389504CARAIG, ELENA CONSIGO                                    0502
B4101400420814045735001CARFIELD TOURIST TRANSPORT INC.                          1604
A4101400420814520766017ALAVA, JOSEPHINE D.                                      0501
A4101400420000002345273LEONICIA S. HERRERA                                      0501
A4101400550000000315062SUSON, STEVEN OGABANG                                    0501
A0101405070000003439690GUTIERREZ, ROSIE VALERO                                  0502
A0601400230891035178001LEORLYN IRON WORKS                                       0502
A0601400230000000452839ARCINUE, S DBU SLA ENTERPRISES                           0502
A0601400230891527563001MELINDA M. MANALO                                        0501
