B0101410720000005786769XCELTEK, INC.                                            1601
A2001400290315688009001ALGOPERA, LLOYD GARCIA                                   0504
A0501400170481059315001ABAOAG, MAGELINE DBU M.K.A                              10502
A0501400170481059315001INSURANCE SERVIC                                        20500
A0501400170481485605001MACARAEG, MERIAM REASONDA                                0501
A0101403580000007265401BANTILING, JOSE P. OR                                   10504
A0101403580000007265401BANTILING, ELENITA P.                                   20500
A0101403580511771223001CHERILYN FADERAGAO                                       0501
A0101411790000013955412URAG, VALIAN NAPALA                                      0501
A0101403610000013995903PANGANIBAN, ROUPERT JEYSON BERR                          0501
A0101410300000000919637FLORA M. LLANES                                         10501
A0101410300000000919637FLORA M. LLANES                                         20500
A4101400420814641056001LARROZA, ELOIDA LOJA                                     0501
A0101400860000002333499**********                                               0502
A0101400860011395459004**********                                               0505
A0101400860011413316001**********                                               0506
A0101400860011483037001CASTRO, ROWENA                                           0502
A0101400860011539633001**********                                               0502
A0101400860011552925001**********                                               0501
A0101400860011568203001**********                                               0505
A0101400860011569183001**********                                               0502
A0101400860011675338001**********                                               0505
A0101400860011742231001**********                                               0505
A0101400150000014011842MILLAR, DONNE MITCHELLE SOLIVEN                          0501
A0101400150000012146002PARAN, RONA JEAN BUNYI OR                               10501
A0101400150000012146002CAGALINGAN, ROY VOLTAIRE                                20500
A0101400150061228121001CARLOS S. PALANCA IV                                     0501
A0101400150061229917003TAN, CORETTE S.                                          0501
A0101400150061294643001BERNARD CARAGUE OR                                      10501
A0101400150061294643001OFELIA CARAGUE                                          20500
A0101400600071092538001CHAN, GIDEON DY OR                                      10510
A0101400600071092538001CHAN, JEANNE P.                                         20500
A0601400100000009324016GO, EUGENE CHUA                                          0501
B0601400100081022878001DM CRISSAN AUTO SUPPLY & CAR ACCESSORIES                11604
B0601400100081022878001SAN FERNANDO                                            21600
B0601400100081039107001REPLICAS MARITIME & AVIATION MODELS INC.                 1604
B0601400100081295398001MALLARI JR., DIOSDADO OR MARY GRACE                     11604
B0601400100081295398001FAO O2 DESIGN                                           21600
A0601400520000014020370BACOLOR, BENEDICT SALDUA                                 0501
A0101414090000010560971MIRANDA, JOHN DIAZ                                       0501
B0101414090000007344610CTZ-CARGOTRANZ SHIPPING AND TRANSPORT                   11603
B0101414090000007344610INC.                                                    21600
A0101410850000008263996MALABAGUIO, JOSEPHINE SARDEA                             0502
A0101410850000008264153CORDOVA, C DBU CLC BOTTLE                               10503
A0101410850000008264153RECYCLING CENTER                                        20500
B0101400730111022056001RECOVERY INSURANCE AGENCY, INC                           1603
B0101400730000010487540EDKAM FOOD VENTURES INC                                  1603
A0101400730111199062001ESPIRITU JR., DOMINADOR I.                               0501
A0101400730111386485158ANITA B. ALDAY                                           0501
A0101400730111683043001GUMATAY, WILBERT ALLAN GULINAO                           0501
A0101401960121757986001**********                                               0501
A0101413150000001288273******                                                   0501
A0101413310000006735722MASANGKAY, ROLLIE PATOLOT                                0501
A0101401830000003647352SEE, NATIVIDAD ONG                                       0501
B0101412920000000276711KALAKAL FOOD CONCEPT INC.                                1601
B0101400440000003766967COOPERATIVE HEALTH MANAGEMENT FEDERATION                 1605
A0101400440161459294001MARY ANN T. REGINALDO                                    0502
A0101400440161520766112DOLORES V. ARCEGA                                        0501
A0101400440161520766189PRESCILA P. DOTONG                                       0501
A0101400440000002249641IBE, REBECCA LIZAN                                       0501
B0101401090171008320001OSTEOPOROSIS SOCIETY OF THE PHILS.                      11604
B0101401090171008320001FOUNDATION INC.                                         21600
A0101401090171197481002MA. NOEMI OR ELIEZER SALAZAR                             0502
A0101401090171281379001JOYCE L. ARRIOLA                                         0501
A0301400790000000436008MANALILI, ANNABELLE LEONOR                               0501
A0301400950000001379524**********                                               0501
A0301400950000008000717ANG, JAN KRISTOFFER TE                                   0502
A0101410720000004626437DE LA CRUZ, ROSSELLIER CHONG                             0501
A0101410720653482939001REV. FR. ELENO G. TEPACE                                 0502
A0101410720653528817001VINCENT GONZALO SY OR TIMOTHY                           10502
A0101410720653528817001JON SY OR JULIE                                         20500
B0101413600000005524807TRUCKMASTER GOLDEN BODY MFG. CORP.                       1602
A3101400160000004362958GARCIA, MARLON DBU M. GARCIA                            10502
A3101400160000004362958CONSTRUCTION                                            20500
A3101400450000001103973EXCONDE, NORMAN JOSEPH OR                               10501
A3101400450000001103973MARY GRACE                                              20500
A3101400740000014014163VALDEZ, PORTIA TOLENTINO                                 0501
A3101400870000014019626CRUZ, SUNSHINE GERVASIO                                  0501
B3101400870225045529002CITISTORES INC.                                          1601
A1301400470252478374028NORMA S. BALLESTEROS                                     0506
A1301400470252507995001VERA A. BORROMEO AND                                    10502
A1301400470252507995001MARY GRACE B. SANTOS                                    20500
A1301400470000000472622VERA ABRERA BORROMEO                                     0501
A0101401670271287090002ANALIZA D. SAN JUAN OR                                  10501
A0101401670271287090002CHRISTIAN STEVEN SAN JUAN                               20500
A0101406460000001231423OCARIZ, ROSARIO LAGAK                                    0501
B0101406460000000182370WEE COMMUNITY DEVELOPERS, INC.                           1603
A0101406620000012950700NGAN, BRIAN JOHNSON FUNG                                 0501
A0101408660000000372985NUQUI, MADELINE AMOR DECENA                              0501
A0101408660000002264973LEE, LUCY LINDA DY                                       0501
B0101408660274047815001OLYMPIC VILLAGE ENT. INC.                                1601
A0101408660274387702002HO, DESIREE ANG                                          0502
A0101408660274583977001GANNABAN, MERLINDA SIBAL                                 0504
A0101410980000001154341LYRA D. LACUNA                                           0501
A0101400570000011680790CO, WOODWARD JOHN L. AND                                10502
A0101400570000011680790SAMONTE, JANYA C                                        20500
A0501400200000011516891NICOLAS, MERIAM PERALTA                                  0501
A2601400270000002677569DEXTER C. DUMRIQUE                                       0505
A2601400270000011415255ALLAN B. CHING                                          10505
A2601400270000011415255DBU SAKURA RICEMILL                                     20500
B0801400160311065867001ELM INDUSTRIAL SASLES                                    1602
B0801400160311494221001JUCABAN, LEO LAGOS                                       1601
A6601400120314087174001CASTILLO, JACK OR GENEVIEVE                              0501
A2001400290000000924572MARTY, CRESLYNN MARIE CERINO                             0502
B2001400290000000020537LINK RI LOGISTICS INC.                                   1601
B0101402350321006431001OLIVAREZ REALTY CORP.                                    1608
B0101402350321024658002OLIVAREZ COLLEGE INC.                                    1608
B0101402350321030788001TRADEMASTER RESOURCES CORPORATION                        1601
B0101402350000000655538COMGLASCO AGUILA GLASS CORPORATION                       1605
B0101402350000000655549FLAGSHIP HOLDINGS CORPORATION                            1605
A0101402350321478374048GLENDA D. ESTRELLA                                       0501
A0101405650000006273601H. NOOR, MALIKSAIF BANGON                                0502
B0101405650000002960752SAVORICH CORPORATION                                     1601
A0101405650322705299001ANILA, MARILOU HERRERA                                   0501
A0101402060351009385001JORGE ALOMBRO JR. OR                                    10505
A0101402060351009385001NELIA ALOMBRO                                           20500
A0101409050000003533639INFANTADO, MA. ANTONETTE                                 0501
B0201401020000007458162SEMPERFI TRANSPORT INC.                                  1603
B0101402930381008829002AXEIA DEVELOPMENT CORP.                                  1615
A0101402930381441645001BILLY JOE R. LEONES                                      0501
B0101402930381646578001RPROPERTIES REALTY CORPORATION                           1601
B0101408370000007031410VIRI CIBUS MEDICINAM, INC.                               1601
A0101408790000010423251ORTIZ, CARLO JOHN M.                                     0501
A0101405490000001092682TOMAS C. FALCIS                                          0501
B0101405490000014019933KC INCINERATION SYSTEMS MANAGEMENT INC.                  1601
A0101408400394159198001ORATE, GILDA JUNSAY                                      0501
A0101408400394412594001DE VILLA, ARRIEL DE ROXAS                                0501
A0101412210000005303144EVANGELIO, MARIANELA COMPAY                              0503
B0101412210000010833713C & S TRAVEL & LEISURE CORPORATION                       1605
B2401400180411041890001BIOCIELO REALTY & DEVELOPMENT                           11610
B2401400180411041890001CORPORATION                                             21600
A2401400180000000555015ONG, AIRA MAE JAVIER DBU SMARTA                         10502
A2401400180000000555015IRE AIRCON SPECI                                        20500
A5101400100000010371289BARDON, RUEL PALAHANG                                    0502
A5101400100000010371201JUMAWID, ARCELI MAURO OR                                10501
A5101400100000010371201JUMAWID, JOEL DUROLA                                    20500
A0101403030441351222001**********                                               0501
B0101403030441362981001**********                                               1601
A0101412890000009833849UBINCUBE ENTERPRISES                                     0502
A0101403320000000735717BAUTO, GUADA LYNNE CASTILLO                              0501
A0101403320000012691500PACIFICAR PLASTIC PRODUCT                                0502
A0101403320000014019251ROSARIO, BENIGNO V. DBU                                 10501
A0101403320000014019251BV ROSARIO CONSTRUCTION                                 20500
B0101403320471043706001M-TRI-R CONSTRUCTION & TRADING CORP                      1605
A0101403320000006026842*********                                                0502
B0501400170481018109001CSI WAREHOUSE CLUB INC.                                  1601
B3801400170490060790001MINDORO GOLDEN EAGLE DISTRIBUTION CORP                   1610
A3801400170000000018813LEOVINO P MACARAIG JR. OR                               10501
A3801400170000000018813ARSENIA C MACARA                                        20500
A1901400160000013819673RICALDE, VICTOR DIEZMOS                                  0501
A1901400160491361876001MELISA RAMOS LIM                                         0503
B1401400110000012353274BPROPERTY MANAGEMENT AND HOLDINGS I                      1605
B1401400110000000034693LUCENA CITY PHARMA CORPORATION                           1601
A1601400170000000036531ERNESTO REYNOSO OR ISABEL                               10503
A1601400170000000036531REYNOSO OR CARLO                                        20500
A1601400170000012410687WONG, MARIA LORNA YAP                                    0501
B0101403580511020857001ROBROS INCORPORATED                                      1605
B0101403580511037494001MAGENTE BPO CO. LTD.                                     1602
A0101403580511390958001CECILE SALANDA OR                                       10502
A0101403580511390958001RICARDO V. SALAN                                        20500
A0101405940512152920001***********                                              0501
A0101408530000004647894ALMONTE, FRANCIS KRISTOPHER N.                           0501
A0101411790000013747543VARGAS, CLARINDA BAY                                     0501
B0101411790000004808082PDB PROPERTIES, INC.                                     1605
B0101412050000000890984NINON RETAIL CONCEPTS, INC.                              1602
A0101403450000006055621*********                                                0501
B0101403450521011910001KITCHEN BEAUTY MARKETING                                 1605
B0101403450521238191002**********                                               1601
A0101403610531219950001DRA. RUBRICO, KHRISTINE CARRERA                          0502
B2201400250000001066182PLUS8 PROPERTIES, INC.                                   1601
A2201400250561402359001DELA CRUZ, HONORIO SAMIN                                 0501
B0101413570000000206482E SOURCE SYSTEMS DEVELOPMENT COOPERATIVE                 1610
B0101414120000004603398WEBLEND INC.                                             1601
A0101406590662546625001RAMA, REINA MAITIM                                       0503
A0101410300000002375868COLORADO, BENIGNO P.                                     0503
A0101410300000003290195MADAMBA, ARCELYN GARCIA                                  0501
A1301400210000009982632AGULTO JR., FROILAN CRUZ                                 0502
A0101408240000006600131SANTOS, GLENDA BRODETT                                   0501
B0101408240711036910001ASIAN CENTRE FOR INSULATION PHILS.,                      1603
A0101408240000000005181POL CAMACHO SECURITY                                    10502
A0101408240000000005181CONSULTANCY                                             20500
A0101408240711540925001VALERIO, REMEDIOS SANTOS                                 0503
A2801400100712337434001CHO, SUNG-IL                                             0502
A2801400100000009533433MONTANER, CARMEN GARCIA                                  0502
A2801400100000002253561DEL GALLEGO, ALICIA SANTOS                               0502
B2801400230713045988001NGE TRADING                                              1601
A4101400260000009533699BAYBAY, MICAH JANE DELOS SANTOS                          0502
A4101400260000012861973BHASKAR, SAURABH                                         0501
A4101400260000012864978MENON, BHANU                                             0501
B4101400260000005724089EVANGELICANS APPAREL CORP                                1603
B4101400260000005724090YIRYE FASHION INC.                                       1603
B4101400390000003346198SUPERSTAR PACKAGING CORPORATION                          1601
A4101400390813377498002AMELIA DY FRANCISCO                                      0502
B4101400420000006643387LEAD WITH INTEGRITY AND GOOD GOVERNANCE                 11605
B4101400420000006643387IN HELPING COMMU                                        21600
A4101400420814245143001ALVAREZ, MA. BELEN SAULOG                                0501
A4101400420814457337002ORDONEZ, JANE M. OR                                     10501
A4101400420814457337002ORDONEZ, JOSE IB                                        20500
A4101400550000010508777GUYA, MARICRIS CANLOG                                    0502
A0101412340000010659982MARZYCOM DIGI ART DESIGN                                 0502
A0101404840851478374193JONALYN BACALANGCO                                       0501
A0101406750000002040066GUIYAB, MA. ELENA ONCHER                                 0501
B0601400230891028240001SUPER BIKES CENTER BRANCH FUND                           1601
A0601400230000000452782GOZUN, R-JAY RAMOS                                      10510
A0601400230000000452782OR GOZUN, MYRNA                                         20500
