B0101409210398821100608**********                                               2002
A0101400600071234714001**********                                               0502
A0101405810000011282994KIONG, RAIZEL LYNE YU                                    0501
A0101400730000000833396CARBONELL, LEVINA IBALE                                  0502
B0101400730111068282001QUIAMBAO, R DBU DROIDHERO ENTERPRISE JT                  1601
A0101400730111520766072NORMA VENTURA                                            0501
B0101403320471068309001GAPAN LAND, INC.                                         1601
A4101400390000007459392FAMOUS CARE MEDICAL CLINIC, LAB                         10501
A4101400390000007459392& DIAGNOSTIC CENTER                                     20500
A0101400860000002262539PAYABYAB, ROGER SALVADOR                                 0505
A0101400860011394300002**********                                               0503
A0101400860011416442001**********                                               0505
A0101400860011508115001**********                                               0502
A0101400150000010773721SEAN T. CERENO                                           0501
A0101400150000011138553SANDUCAL, KIM JOHN JAUDINES                              0501
B0101400150061000544001CITIBANK - N.A.                                          1601
B0101400150061010635001ROSCAL CORP.                                             1602
B0101400150061043190001NORTHERN STAR ENERGY & FUEL DISTRIBUTION                11605
B0101400150061043190001CORPORATION                                             21600
A0101400150061227112001PACITA G. LIM                                            0501
A0101400150061338964002CAROLYN M. ATIDO                                         0501
A0101400150061372223001RAFAEL ANTONIO R. MONTILLA                               0501
A0101400150061707251001ALAMAR, VIRNA LIZA OR GOMEZ,                            10501
A0101400150061707251001TRISHA MARIE                                            20500
A0101400150061799966001MARIA JOCELYN SIMON                                      0501
A0101400600000005942509COMIA, JUAN DE ROXAS OR                                 10502
A0101400600000005942509COMIA, ELEAMOR MACALALAD                                20500
A0101400600071233615002********                                                 0502
A0101405810072234609002TAN, JOSEFINA MANOSCA                                    0505
B0601400100000000142214SIMON AND STANDLEY INTERNATIONAL TRADING                11605
B0601400100000000142214& DEVT CO, INC.                                         21600
A0101413280000005084953*****                                                    0501
B0101413730000005316187SY, LOUIENELLE JOHNSON CHENG                             1601
A0101410850000003503653MASONG, A DBU A.A. MASONG                               10501
A0101410850000003503653CONSTRUCTION                                            20500
A0101410560000000590545JAMIE C. MOLINA                                          0501
A0101400730111297939002BISNAR, DAVI DELOS SANTOS OR                            10515
A0101400730111297939002JARDIOLIN, MAJAR B                                      20500
A0101400730111412858010LOLITA MANALO                                            0501
A0101400730111655444001BALTAZAR, MARY CHRIST ANG                                0502
A0101406040112208404001HULIPAS, ELIZABETH VILLAFRANCA                           0502
B0101401960121023340001**********                                               1601
A0101412630000004061943SCHOLARSHIP PLANS PHILIPPINES,                          10501
A0101412630000004061943INC.                                                    20500
B0101401830141032221001CARITAS ET LABORA HUMAN RESOURCE SERVICE                11610
B0101401830141032221001COOP.                                                   21600
A0101401830141473879002MALINAO, EVELYN DE GUZMAN                                0501
A7201400170000003774009FAMOR, MYRNA POLOYAPOY                                   0503
A0101400440161039572010MYRNA A. CANELAS                                         0502
A0101400440161039572046MELVIN D. VILLACO                                        0501
A0101400440161187168001DE LEON JR., MANUEL PAMINTUAN                            0502
A0101400440161511479003SUTICO C. MENDOZA                                        0501
A0101400440161511479003SUTICO C. MENDOZA                                        0501
B0101407270000011305045NAWOL, ABIGAIL LORRAINE VALLEDO AND                     11601
B0101407270000011305045VALLEDO, AMPARO                                         21600
B0101407270162043721001ABS-CBN HOLDINGS CORPORATION                             1605
B0301400530000000025254CAMELLA TAGUM HOMEOWNERS ASSOCIATION                     1602
A0301400790000002301239NATAD, JULIET ALBARILLO                                  0502
A0301400790000002652742AGAD, FLORA ALBARILLO                                    0501
B0301400950000000567011CS3 LENDING AND REALTY, INC.                             1602
A0101401380201453025001BANGLO, CHRISTINE ORONICO                                0501
A0101401380201695057001ONG, MARGARET HONG OR                                   10501
A0101401380201695057001ONG, JOHN CARY LEE                                      20500
B0101410720000000968123DPE ASIA CONTAINER SERVICES&OUTSOURCING                 11603
B0101410720000000968123SOLUTION INC.                                           21600
A0101410720653342496001NATIVIDAD, ANITA DONNA  ROBLES                           0501
A0101413600000000206697******                                                   0505
A3101400160221220198002MINERVA B. ALAVA                                         0502
A3101400450223221366002*****                                                    0502
A3101400450223442002001GARCIA, ROSALINA OR                                     10502
A3101400450223442002001JESUSA CORAZON                                          20500
B3101400870225821100608**********                                               2002
A1001400190231478374116ESTRELLITA E. BERMUDEZ                                   0501
A1001400190231478374128BONIFACIO, LIZA                                          0501
A1001400190000002170656AMELINA E. FACTURA                                       0501
B1301400470000003270124FMN DEVELOPERS CORP.                                     1610
A1301400470000001299130ANDREW P. MANGIDUYOS                                     0501
B0101401670271041152001PHILADELPHIA BUSINESS INITIATIVES INC.                   1602
B0101401670000006812342GALAHAD LABOR SERVICE COOPERATIVE                        1602
A0101401670271188173001EMMANUEL G. LIM                                          0505
A0101401670271292571001CHRIS RYAN R. CRUZ OR JANICE                            10504
A0101401670271292571001CLAIRE C. CUASO-CRUZ                                    20500
A0101406620000000193782CASTILLO, CARMENCITA REYES                               0501
A0101406620000004925964REFUERZO, DIDITH KATIGBAK                                0501
A0101406620000004925902ESPINOSA, ELIZA MADRIAGA                                 0501
A0101406620273301500005MENDIOLA, GABRIEL JOSE E.                                0501
A0101406620273306796056MICHAEL DINO F. EMAAS                                    0501
A0101406620273306796057JUANITA L. BAYUDAN                                       0501
A0101411820000004981791JOSE WILLIAM L. YUTUC OR                                10501
A0101411820000004981791MICHAEL VINCENT MANALO                                  20500
A0101400570281186867001DR. DIANA JEAN ROXAS                                     0501
A0101400570281364099001RAUL NESTOR A. ANCHETA OR                               10503
A0101400570281364099001MARIA CARMEN ANC                                        20500
A0101400570000002329648UMALI, MA NENITA CANSANA                                 0501
B0101411240000007844451NIC'S GOURMET DESSERTS, INC.                             1610
A2601400270000002257201KATHERINE M. GALINGANA                                   0505
A2601400270302657810001********                                                 0502
B0801400160311265752001DIVINAGRACIA, LLANE GRACE                                1601
B0801400160311794356001GALLOS JR., GLICERIO JOPSON                              1605
A1101400120000002254902BARREDA, EDKENS MARASIGAN                                0501
A1101400120313478374093GIMARANGAN, JINKY A.                                     0501
A2001400290000001974150CALINGACION, MARLENDA REFE                               0501
A3401400280000003493914GUMBAN, GYBBYN GUZMAN                                    0501
B0101405650322034969001ALPHINELAKE WATER REFILLING STATION                      1601
A0101405650322093557001CUEVAS, MA. DONATA NADINE OR                            10502
A0101405650322093557001CUEVAS, RAFAEL                                          20500
A0101405650000000348801RANOLA, NELLY YAP OR                                    10501
A0101405650000000348801RANOLA, VICKY YAP                                       20500
A0101402510341196500001MARLON RAMON L. NAVARRO                                  0502
A0101402060351009359002JIANDANI, SURESH G. &/OR                                10501
A0101402060351009359002JIANDANI, KAVITA                                        20500
A0101402060351009359003JIANDANI, SURESH G. OR                                  10501
A0101402060351009359003JIANDANI KAVITA                                         20500
A0101402060351331171001MICHAEL SARINGAN                                         0502
A0101409050000006986692EBARVIA, SUSAN ROMERO                                    0501
B0101402930381008843001BASIC HOUSING SOLUTIONS, INC.                            1605
A0101402930381206118001HERIBERTO P. GUBALLA OR                                 10501
A0101402930381206118001MYRNA E. GUBALLA                                        20500
A0101408370382205176001IRMINGARDA P. GUECO, M.D.                                0502
A0101411660000000109340ALIGUYON, CHERISH TAGUINOD                               0501
A0101405490000000126463LORNA V. TUGADE                                          0502
A0101405490392613731001CORAZON OR RICARDO OR MICHAEL                           10502
A0101405490392613731001CHRISTIAN PICHEL                                        20500
A0101408950000011077820*****                                                    0501
A2401400180411478374039ABRENICA, COSMECIA L.                                    0501
A0101403030000010411342SHI, YAQING                                              0503
A0101403030441368293002**********                                               0502
A0101412890000002747868************                                             0502
A0101412890000002324323ABANGON, NORMINA PANDI                                   0502
A0101412890000009833612FLORES, MA AISSA ONG                                     0502
A0101403320000011291973BOSITO, EMER CRIS FERRER                                 0502
B0101406330472046636001ENERTECH SYSTEMS INDUSTRIES, INC.                        1610
A0101406330472311319001ALEJANDRO V. VICTORINO JR.                               0502
A0501400170481254455001DR. ALBERT DE GUZMAN                                     0501
B1401400110000000167446SOUTHERN PROCESSING CORPORATION                          1606
B1601400170000000497150ADERMA ANGELIE D. ALCAZAR AND                           11602
B1601400170000000497150RONALDO A GARBIN                                        21600
A0101407430000006027932SUSAN A. ANDAYA DBU SUNRAIN                             10502
A0101407430000006027932WATER REFILLING STATION                                 20500
A0101405940000004476222ROXAS, MARK ERIC CHUA                                    0501
A0101405940512395416001ANGELITO A BOLANOS                                       0501
A0101408530000002260151GEROCHI, AXEL TRECHO OR                                 10503
A0101408530000002260151GEROCHI, RICO MA                                        20500
B0101408530516036896001UNITED GRAPHIC EXPRESSION CORPORATION                    1606
B0101411790000000005318REM BUILDERS CORPORATION                                 1604
B0101411790000007879132*********                                                1601
B0101403450521011657001UPTOWN INDUSTRIAL SALES, INC.                            1610
B0101403450000006055847***********                                              1603
B0101403610531046549001BIG APPLE PLASTIC PACKAGING INC.                         1602
B0101403610000006637114RD PAWNSHOP, INC.                                        1603
A0101403610531359244001ESQUIVEL, ROBERTO PUNZALAN                               0504
A0101403610531762297001HO, HELEN TAN OR                                        10502
A0101403610531762297001TAN, DOLORES LIM                                        20500
B0101404130601100168001MAGPRO RESOURCES CORPORATION                             1601
A0101404130601541814001DELA CRUZ, KERVIN MALANAY                                0502
A0101407720000002693207CRUZ, LOURA MAE BERNARDINO                               0501
A0101407720602397425001HENSON, MARIA THERESA GUEVARA                            0505
A0101404260611150914001LUCZON, LUMINOSO OR LUZ                                  0501
A0101404260611476049001GAMBOA, CRISTINA OBILLO                                  0501
A0101404260611553911001DE LEON, PAULINA SALENGUA                                0502
A0101407690000000495512MARIA BELEN FEDERIZON OR                                10502
A0101407690000000495512JOSE RENEIRIO FE                                        20500
B0101407690652017367002EAGLE BROADCASTING CORPORATION                          11605
B0101407690652017367002(NET 25)                                                21600
A0101407690000000154750BARANGAN, ROMEO DBU                                     10505
A0101407690000000154750BARANGAN TRADING                                        20500
A0101407690000000243810PAGUIO, ANA CARDENAS                                     0502
A0101413440000000702418GARCIA, GREGORIO REY DBU                                10501
A0101413440000000702418SUPERMASTER'S IN                                        20500
A0101413440000002125360BASTASA, CAROLYN GALIDO                                  0501
A0101413990000000206066MARKVENT ENTERPRISES                                     0501
A0101414120000006864511CO, OFELIA QUITO                                         0501
B1301400210682248659001ASIANLAND STRATEGIES CORPORATION                         1605
A1701400230000009625447CHUA, GIAN NICOLETTE GUILLEN                             0505
A4101400260000000469329FALCUTILA, MARISSA RAMOS                                 0503
B4101400390000003346187PAGASA PHILIPPINES LENDING COMPANY                       1603
B4101400390000006103560LEAD WITH INTEGRITY AND GOOD GOVERN                      1606
A4101400390813723742001**********                                               0503
A4101400420000008280728BORROMEO, LUISA CECILIA CUIZON                           0501
A4101400420000003715542DUCOT, ERNESTO MALLARI                                   0501
A4101400420000009343175REGALARIO, VIVIAN T                                      0502
B4101400550815000593001IMUS RURAL BANK, INCORPORATED                            1601
A0101412340000003422682ALEXIS C. GUEVARRA                                       0502
A0101412340000003422784SONNY KAJ C. ALIBANGBANG                                 0501
A0101404840000004565920ADRIAN S. ALCANTARA                                      0501
A0101404840851520766063LORELIE P. DALIGDIG                                      0501
B0101413860000001767906GLEN CEDAR INSURANCE AGENCY CORP.                        1602
B0101413860000009426411**********                                               1601
A0601400230000000186867SAPNU, D DBU D.L.S.J GLASS ALUM                          0501
A0601400230891585876001GAGUI, JAY ACOBO                                         0501
