F3101400740000000013903INDORAMA VENTURES PACKAGING                             12610CKR
F3101400740000000013903(PHILIPPINES) CO                                        22600CKR
F1501400140291027914001FL MEMORIAL PARKS, INC.                                  2610CKR
F2301400150301408683001ESTHER BUNAGAN                                           2610CKO
F0101402930381667403002PRIVE PROPERTIES DEVELOPMENT                            12602CKR
F0101402930381667403002INC.                                                    22600CKR
F0101408400394030029001KEVIN'S KUT BARBERS, INC.                                2603CKO
F0101406590662381982001MOJARES, RESURRECION ZAGALA                              2502CKO
F0101408240711381753001ALCOBER, MELINDA OR ALCOBER,                            12503CKO
F0101408240711381753001RUBEN OR LEJANO, REGINA                                 22500CKO
F4101400260000000469330DEPANO, ABEL GONZALES                                    2503CKO
F4101400260812543920001ARTHUR B. ALVIAR                                         2508CKO
