B0101406880513821100608**********                                               2010
B1001400350233821100608**********                                               2005
A0101406880513573270001TURALBA JR., ANTONIO VALERA                              0504
A0101406880513197649001HARPER, ANNA MARIA LAMMOGLIA                             0501
B0101406880513023100003PENTACAPITAL INVESTMENT CORPORATION                      1610
B0101406880513022143001PENTACAPITAL MANAGEMENT CORPORATION                      1610
A0101406880000002291790VALENZUELA, MARIA CARMEN LIZARE                          0501
A0101406880513565496013ABDON, ANTONELLA TURALBA                                 0502
B0101410560110821100608**********                                               2003
A0101402930000003710745CASTANEDA JR., EDWIN JOSEPH ORT                          0501
B0101406590662560649001FOURSPOONS VENTURES CORPORATION                          1602
A0101400440161520766113MARIFE MANZANO                                           0501
A0101401380201610115001BELTRAN, SYLVIA HAZEL BISMONTE                           0502
A0101406880513384219002JILOCA, ARLENE VISTA                                     0505
A0101408110515035205001A.Z. CORONEL BUILDERS                                    0502
A0101404260611478374121FLORDELIZA B. HUVALLA                                    0501
A0101406590000005305208LEE, EVANGELINE MONDEJAR                                 0502
B0101400860011374845003**********                                               1601
A0101400860011394716002**********                                               0503
B0101400860011402223001**********                                               1605
A0101400860011413667001**********                                               0503
A0101400860011479962001**********                                               0502
A0101400860011496074002**********                                               0501
A0101400860011613579002**********                                               0503
A0101400860011634790001**********                                               0504
A0101400860011661386001**********                                               0504
A0101411370000002269343**********                                               0501
A0101400150000002394761FRAGANTE, SOCORRO PROTACIO                               0501
A0101400150000003163904MANILETTE R. CORPUZ                                      0501
A0101400150000003164838RHIA S. LAUREA                                           0501
A0101400150000004090522JUSTIN CARLO U. ANG                                      0502
B0101400150061228665001MALAYAN TOWAGE AND SALVAGE CORPORATION                   1605
A0101400150061230908001MAPE, JOSELITO OR MAPE, ARLENE                           0502
A0101400150061464371002RODA, MARY ANN FLORES                                   10501
A0101400150061464371002OR RODA, JULIUS                                         20500
A0101400150061666194001GERARD H. BRIMO                                          0502
A0601400100081604957001BARREDO, ELIZABETH OMBAO                                 0502
B0601400360083041164001TOP SELLERS PLUS, INC.                                   1602
A0101410560000001291010SUMAGAYSAY, JENNIFER MACHADO                             0501
A0101400730111278185002ARANDELA, MARY GRACE                                     0501
A0101400730111392034001SENA, GLENDA A. OR MAHAR B.                             10505
A0101400730111392034001JARDIOLIN                                               20500
A0101400730111478374112STO DOMINGO, CONSTANCIA                                 10502
A0101400730111478374112CHARLENE                                                20500
A0101406040000002272442JACQUELINE C. SAMONTE                                    0502
A0101406040000002272460********                                                 0503
A0101406040112206767001LUZMINIA ALANES OR                                      10502
A0101406040112206767001PEDRO ALANES JR.                                        20500
A0101412630000001823310SALVADOR, ARLENE IGNACIO                                 0501
A0101412630000000045321**********                                               0502
B0101401830141043121002ASIA DIRECT CONSOLIDATORS INC.                           1610
A0101401830141292667002GEMMA OR LEE MARVIN OR                                  10503
A0101401830141292667002JOHN GEMMO MAGTALAS                                     20500
A0101401830141292667003MAGTALAS, GEMMA OR LEE MARVIN                           10504
A0101401830141292667003OR JOHN GEMMO                                           20500
A0101401830141546547001REATAZA, NELIA MORABE                                    0503
A0101401830000001140010SANTOS, ROSIELYN LUCERO OR                              10501
A0101401830000001140010SANTOS, MICHAEL DAGAL                                   20500
B7201400170000003772981LADLAD, EMSA BANA                                        1602
B7201400170000003773626**********                                               1605
B7201400170000003773524JUSTINIANO, MARIO L. AND DELOS SANTOS                   11601
B7201400170000003773524MARIA THERESA M.                                        21600
B7201400170000003773535JUSTINIANO, MARIO LIZARDO                                1601
A7201400170000006842675PANCHO, VENUS SIPIN                                      0501
A7201400170000006939162HORTELANO, IVAN SU                                       0501
B7201400170000003773320GUMANSING, FRANCIS ALCAIDE                               1601
A5001400170000000213761ISAW, NEIL JOHN ATAYAN                                   0501
A0101400440161238376001SOLEDAD A. LIM                                           0501
A0101400440161478374010VIVIAN T. REGALARIO                                      0502
A0101400440161520766153VIRGILIA C. SIEGA                                        0501
A0101407270000000818268ONG, ALVIN CHUN                                          0501
A0101401090171196120003MERCY LEE-JATICO OR                                     10502
A0101401090171196120003MATTHEW STEPHEN                                         20500
A0101401090171198596001DENIS C. NGO, M.D.                                       0502
A0101401090171199276001MARILYN C. MABINI                                        0501
A0101401090171202961001TERESITA N. SANTOS                                       0502
A0101401090171281347003CECILIA AGLEHAM                                          0502
A0301400530193047254189TAGUM TRIO LUMBER CORP.                                  0510
A0101401380000000792132********                                                 0501
B0101401380201043880001ZHONGFA DEVELOPMENT, INC.                                1602
A0101413600000003134512EFREN A. BALINAS                                         0502
A0101413600000002122241JOSE FRANCISCO CABOCHAN DBU                             10501
A0101413600000002122241CABOCHAN LAW OFFICE                                     20500
B3101400160221037479001TABLERIA LA CONFIANZA CO., INC.                          1601
A3101400450223442002001GARCIA, ROSALINA OR                                     10502
A3101400450223442002001JESUSA CORAZON                                          20500
B3101400740224041181001SHIN HEUNG ELECTRO-DIGITAL INC.                          1603
B3101400740000000013889IM DIGITAL PHIL INC.                                     1605
A3101400740224754411001CAJILIG, GLENN C. OR                                    10501
A3101400740224754411001RIVAS, JOANA MARIE F.                                   20500
A1001400190000001057589NORMALIS C. REYES                                        0502
A1001400190000002170769JUGAN, NOUE MALOLOT                                      0502
A1001400350000002367319CHAN, ALFREDO CAGARA                                     0502
A1001400350000000017165MEN DBU A&L MARKETING SOLUTIONS                          0502
A1001400350233478374020ELMA O. GAWAT                                            0501
A1001400480000003357679SUMANDO, EXEQUIEL MANUEL                                 0503
A1301400470252446871001DANILO G. SARMENTA                                       0504
A1301400470252509663001JOSSIE P. ESQUIVEL OR                                   10502
A1301400470252509663001DANTE B. ESQUIVEL                                       20500
A0101406460000001231587LEE, MARGARET CHAM                                       0501
A0101406620273280285001PELAGIO / ROSARIO / REBECCA /                           10501
A0101406620273280285001RAFAEL / ROWENA                                         20500
A0101406620273496081001LOBRAMONTE, LEONARD MEJORADA                             0502
A0101408660000002264893CHAN, CHERYL JOY ANG                                     0501
A0101411820000000477247GEORGE BALDADO VILLAGANTOL                               0501
A0101400570000006271661********                                                 0504
B0101400570281015729002ST. LUKE'S MEDICAL CENTER EMPLOYEES                     11603
B0101400570281015729002ASSOCIATION                                             21600
A0101400570281186594001MA LUISA YU OR YU PEK KIAN OR                           10501
A0101400570281186594001DAWN ISOBEL OR MILES CHRI                               20500
A2601400270000002312101NELIA A. CORTEZ OR MARVIN T.                            10501
A2601400270000002312101CORTEZ                                                  20500
B2601400270000002677376MANLICLIC, MICHELLE LOPEZ DBU KI WATER                  11601
B2601400270000002677376REFILLING STATION AND TECHNOLOGY SYSTEM                 21600
A0801400160311478374084MARY P. PANERGO                                          0501
A6601400120000001065372CABILI, JULIUS MICHAEL MACAMAY                           0501
A6601400120000002978121NOGAL, GEMMA ONG                                         0502
A6601400120314694059001BANTILO, DEODATO LUTAO                                   0501
B0101402350321015321001BEST CHOICE MINIMART INC.                                1605
A0101402350321408269001SALAZAR, FREDERICK RANOLA OR                            10501
A0101402350321408269001SALAZAR, ELLA CRISTINA J.                               20500
A0101402350321478374058DELA CRUZ, MERLITA GABON                                 0501
A0101405650322695154001MUNOZ JR., MAXIMO SOLANO                                 0501
A0101402510341668835001LAO, RYBIGAIL LEI                                        0501
A0101402060351039467001LAY BARE WAXING SALON                                    0502
A0101402060351039467002LAY BARE WAXING SALON                                    0502
A0101402060351039467003LAY BARE WAXING SALON                                    0502
A0101402060351039467004LAY BARE WAXING SALON                                    0502
A0101402060000000358770LAY BARE WAXING SALON                                    0502
A0101402060351422451001OLARTE, JOEL QUIAMCO                                     0501
A0101402060351426733001HILARIO, SIMONE-MARIE RIVERA                             0501
B0101409050000006319268BUBBIE'S DELI CORP.                                      1603
A0101409050352228509001JOHN ANTHONY M. CASTRONUEVO                              0501
A0201400760000005710890SUA, HELTON SY                                           0503
B0201400760000005156452REAL IMAGINATION HOME & GARDEN                          11602
B0201400760000005156452FURNISHINGS                                             21600
B0101402930381022284001INVESTORS ASSURANCE CORPORATION                          1601
A0101402930381205753001ALBERTO FELICIANO OR                                    10503
A0101402930381205753001CECILIA FELICIANO                                       20500
A0101402770391028626002RED ELEPHANT TRADING                                     0502
A0101405490000000355571MA ANASTACIA S. OR RITA THERESE                         10501
A0101405490000000355571S. DELA MERCED                                          20500
B0101405490392043918001GOLDENGRACE MARKETING INC.                               1601
B0101405490000006214193PALMA,H DBU NORTHSHORE HARDWARE & CONSTR                11606
B0101405490000006214193UCTION SUPPLY JT                                        21600
B0101408400394028489001KING'S HOLLY, INC.                                       1601
A0101408400394037647001FRIAS WATER STATION                                      0502
A0101408400394424700001QUILAY, EVELINDA QUEBEC                                  0501
A0101408950396331268001AREVALO, ALEJANDRO ESQUIERES                             0501
A0301400820000002271956COMAINGKING, JESUS B.                                    0501
A0301400820000003148445AQUINO, ROSEMAE B.                                       0501
A2401400180411459505001MARK T. GO OR MADELINE Q. GO                             0502
A2401400180411606823002MONACILLO, MARICHU SABANDAL                              0501
A1201400150421459509001TEE, CHITO LAYUGAN                                       0503
B0101403030441326059001**********                                               1601
A0101403030441561516001**********                                               0501
A0501400170481252349002LALAS, MAEVA DELA CRUZ                                   0502
A1901400320000000041163DINO ANGELO FERNANDEZ DE LEON                            0501
A3801400170490793031001RUEL D QUINZON                                           0502
A1401400110492412423001LUNA, MA. TERESA MAGBOO OR                              10503
A1401400110492412423001LUNA, EDWIN                                             20500
A0101407430000002298257ABDULLA, AISA PINEDA                                     0501
B0101405940512039959001AV VALUE HOLDINGS CORPORATION                            1603
B0101405940000005359628AA COMMERCIAL INC.                                       1602
B0101406880000001286357KRIS FINSOFTWARE, INC.                                   1601
A0101411400000002301193VIDAL, MARIA ANGELA BOJE                                 0501
A0101411400000000001598SANTILLAN, AMALIA CHUA                                   0501
B0101403450521011662002SUNTRA INT'L TRADING CO., LTD.                           1605
B0101403450521078888003PUREGOLD PRICE CLUB, INC.                                1620
A0101403450521238571002*********                                                0501
A0101403450521240099001**********                                               0501
A2201400250000003558190EDWIN S. ESPIRITU OR ANNA                               10501
A2201400250000003558190JESSICA S. ESPIRITU                                     20500
A2201400250000001545580MEMBERS OF NATASHA (SHOECAT INC                         10501
A2201400250000001545580GAUDIOSA A. WAGE                                        20500
A0101410690000001284475ROSE & J LAMINATION                                      0501
A0101404130601754700001BORCENA, ANA MARIEL TUMANG                               0501
A0101407720000001393084LAGUNDI, JANICE GARCIA                                   0501
A0101407720602398542002DR. ROBERT DENNIS J. GARCIA                              0502
A0101407720000000510512SALUD, CARMENCITA ESGUERRA                               0501
A0101404260611096282001LUCERO, LEILANI DIGO                                     0501
A0101404260611478374088MARIFE BARACENA                                          0501
A0101404260611478374097MILA B. RIELO                                            0501
A0101409920000002260402ATENTO, SHERRY CLAIRE SOLEDAD F                          0501
A0101409920000001283410CHAVEZ, SARAH DBU SMC FURNITURE                          0505
A0101409920000001951931MEMBERS OF NATASHA (SHOECAT INC                         10501
A0101409920000001951931TRASPORTE, GINA                                         20500
A0101411530000002260253**********                                               0501
A0101413570656057354002CLEVER MINDS MARKETING                                   0501
A0101413990000001406495RENOLAYAN, LEA DELOS SANTOS                              0501
A0101413990000001947128MARS STONE SUPPLY                                        0501
A0101413990000001947162ZENAIDA O. PAYONGAYONG                                   0501
A0101406590000000568758BAUCA, MYRA MEDRANO                                      0501
A0101410300000003290093DE LEON, ERLINDA SARANGAYA                               0501
A1301400340683608747001TALUSIG, MARILYN ESGUERRA                                0502
A1301400500000005041121PADIERNOS, LIWAYWAY GARCIA                               0501
A1301400500684589977001VIOLAGO, MA. LORENA M.OR                                10501
A1301400500684589977001VIOLAGO, GIDO C.                                        20500
A0101408240711228456002MA. VICTORIA MANIQUIS                                   10504
A0101408240711228456002OR STEVE MANIQUIS                                       20500
A0101408240711469368001CAGANDA, ANTERO JOSE MADARA                             10501
A0101408240711469368001OR JEANZIE LEE                                          20500
A0101408240711478374009MARIVIC C. FLORA                                         0501
A2801400100712038891001A - POLE SURVEY & GEODETIC SERV                          0501
A4101400260812041696001LUCKY RED CONSTRUCTION AND                              10502
A4101400260812041696001TRADING                                                 20500
A4101400260000003679943TAN, ANGELINA                                            0501
A4101400260000003679807JOAN DANTE                                               0501
A4101400390000001732736CLAVERIA III, DON VIVENCIO G                             0501
A4101400550000003839065PENA, GERRY SANTOSIDAD                                   0501
A0101412340000001017930SONIA MEDINA SIBI                                        0502
A0101404840000000683574NELIA L. BABILA                                          0502
A0101404840000004565851JACKY I. LEONARDO                                        0502
A0101405070861476115001REYES, MA. MILAGROS ABRAJANO                             0503
A0601400230891471229001LOLITA C. CRUZ                                           0501
