B0101400150061821100608**********                                               2010
B0801400160311821100608**********                                               2010
A0101411370000005524396JOSEPHINE R. BRACAMONTE OR                              10501
A0101411370000005524396CARLITO E. BRACAMONTE                                   20500
A1901400290000018027237OLAVE, MADELEINE PESA                                    0501
A1901400290261432900001JULIUS PIO AFRICA RANA OR                               10501
A1901400290261432900001CHARMAINE DE GUZ                                        20500
A0101411240000018578882REIG, ANNA ROSE PLANAS                                   0501
A2201400250561253929002BENJAMIN DAVID CUDAL                                     0501
A0101401090171417083001ABIGAIL T. PAGALILAUAN                                   0501
A3001400130000000068211BATTAD, ARNULFO RICAFORTE                                0501
A3001400130000014779772CORREOS, RUTH CUSAP                                      0501
A3001400130230757981001SACAY, RENE CANTOR OR SACAY,                            10503
A3001400130230757981001JOSEPHINE SIMBIT                                        20500
A0101403320000018561436RELLOSA, LORENZO BUENVIAJE                               0501
B0101403320471030317001UPLIFT PHILIPPINES INC.                                  1610
A4101400550815478374006RECODIG, VILMA ROTUGAL                                   0501
A0101400860011529455001**********                                               0505
A0101400860011742231001**********                                               0510
B0101411370000009102812ARQUEE CORPORATION                                       1602
B0101400150000018656661CABINGAN, CHARMAINE OR ISIDRO, REGINA OR                11601
B0101400150000018656661PEREZ, JOSE GIL                                         21600
A0101400150000008307033CORDOVA JR., EBENEZER ADOLFO OR                         10505
A0101400150000008307033CORDOVA, MARIAMEL VIGO                                  20500
B0101400600071538520001Rafael Tantuco Jr or Janet Chan and                     11605
B0101400600071538520001Rowena Lim or                                           21600
A0101405810000009970158WANQING WU                                               0502
A0101405810072265481001PLAZA, LEONORA LIM                                       0505
B0101405810072554045001**********                                               1602
B0601400100000007185426RS SQUARE VARIABLES INC.                                 1607
A0601400100081040683001AMGAT WELLS & PUMPS INC.                                 0501
A0601400360000008147535DIZON, RONALD MERCADO                                    0502
A0101410560000005280520JANNETTE C. ATUEL                                        0501
A0101410560000005836319CRISTINA L. LUALHATI                                     0501
A0101401960000005392474******************                                       0501
A0101413310000001928936CABANSAG, ARMEL CABANATAN DBU                           10505
A0101413310000001928936AVIATOURS TRAVEL                                        20500
B0101401830000000033638CARITAS SALVE CREDIT COOPERATIVE                        11606
B0101401830000000033638(MANDALUYONG)008                                        21600
B0101401830000000059972CARITAS SALVE CREDIT COOPERATIVE (NOVA/                 11604
B0101401830000000059972ST.PETER) 010                                           21600
A5001400170000002288253YU, LEONARD OLIVAR                                       0502
A0101400440000017809931SOLAR, JOSEPHINE MANUEL                                  0501
B0101407270162008369001NMS CONSTRUCTION COMPANY                                 1604
A0101401090171197481002MA. NOEMI OR ELIEZER SALAZAR                             0503
A0301400790000005692173SIMON, DIOSEE GENTILES                                   0501
B0301400790000013578048DAVAO DREAM BUILDERS REALTY & SERVICES                   1603
A3101400160000014895084PERALTA, TERESITA QUEZADA                                0501
A3101400160000018655560GUINTO, LUISITO S. AND                                  10501
A3101400160000018655560DELA CRUZ, RICARDO S.                                   20500
A3101400450223418716001GARCIA, JESUSA CORAZON PLAZA                             0502
A3101400450223520812001VILLANUEVA, EDWIN THOMAS LIMPIN                          0501
A1001400480000000133371BINUAG, MARGARET MANGALLAB                               0501
A1001400480000014024141BEROU, ORNIEL DANIEL OR                                 10501
A1001400480000014024141BEROU, VENICE MARIE                                     20500
A1001400480000014023546BERJES, RINO OPOL DBU RESTO                             10510
A1001400480000014023546FREENO                                                  20500
B1301400760000013941432RUSTAN M. PAYUMO DBU RAIN CARLOS                        11603
B1301400760000013941432POULTRY SUPPLY                                          21600
B0101406460000001231781L'EPICERIE CORPORATION                                   1602
A0101411110000013980511MANALASTAS, JENNIFER LIM                                 0501
A0101411110000018649917SANTOS, VENICE ZENDY NAGUIT                              0501
A2601400270000000561762EDGAR M. ROSETE OR EMELITA R.                           10503
A2601400270000000561762ROSETE                                                  20500
A2601400270000016704973AQUINO, SHARON MAYE AVELINO                              0501
A0801400160000016201226TIO, JENNY GO                                            0503
A0801400160311754232001CAROLINE B. ROLIDA OR                                   10505
A0801400160311754232001JOHN U. ROLIDA                                          20500
A1101400120313478374094AGAPITO, ROSA POLICARPIO                                 0502
A1101400120000005608191CELSO, GORGIE CAROLA                                     0502
B6601400120000018578911RNMK CONSTRUCTION, SUPPLY AND DEVEL                      1605
A0101402510000011748715GONZALES, MARY ANN SAENZ                                 0501
B0101402510341008469001SAM ALUMNI CHAPTER                                       1601
B0101402510341038438001ONE IN CHRIST JESUS OUR LORD, INC.                       1601
A0101402510000014897542ALCALA, GINA CALA  OR                                    0502
A0101402060000000358565DECENDARIO, MARICHU TADLAN                               0502
A0101402060000015398993CRUZ, APRIL TISMO                                        0501
B0101402060351009401001PHIL. IRON CONSTRUCTION & MARINE WORKS,                 11605
B0101402060351009401001INC.                                                    21600
B0101402060351009431001RPP SAVINGS AND LOANS ASSOCIATION, INC.                  1603
A0201400920000018643720TAMPUS, GRACE PONCE                                      0501
A0101402930013120000238PORCINCULA, DBU MITONI BUSINESS                         10510
A0101402930013120000238VENTURES                                                20500
B0101402930381041518001PANPISCO TECHNOLOGIES, INC.                              1603
A0101402930000010658212BAUTISTA, PORTIA MAYUGBA                                 0501
A0101408370382372061001DR. ELSA S. DIONISIO                                     0501
A0101408790000005293632LAUREN ANN PASCUA                                        0502
B0101408790000000599880HANSTON COMMERCIAL AND INDUSTRIAL                       11602
B0101408790000000599880CORPORATION                                             21600
A0101411660000011949116YEE, MICHAEL BAYONA                                      0501
B0101411660384821100608**********                                               2002
B0101402770391009325001SAKURAI PHILIPPINES CORP.                                1603
A0101405490000014676954GALE, RUSSIEL FERRAREZA                                  0503
A0101408400000017980442DELA PENA, WARREN GARCIA                                 0505
A0101408400394457359001MENDOZA, EDITHA DAWAG                                    0501
A5501400120410633077001CLAVISILLAS, JOSIE OR                                   10502
A5501400120410633077001CLAVISILLAS, RON                                        20500
A0101412890000001056411DELA  CUESTA, RAMON RAMOS                                0501
A0101403320000001803167ACOMPANADO, ERIC GALANG                                  0501
B0101406330000017981532QUICKJALF METAL FABRICATION INC.                         1602
A0101410140000010760379GARCIA, PAULO GASPAR                                     0502
B0501400170000013296005L'ORIE MERGE & D' ACQUWESTE, INC.                        1601
A0501400170481367892001MARIO A. DE GUZMAN OR ANICIA                            10510
A0501400170481367892001Q. DE GUZMAN                                            20500
B1901400160491064503001J.A.M.C. MARKETING INC.                                  1602
A1401400110492170180001TAI, KUO AN OR                                          10501
A1401400110492170180001SUMINISTRADO, BE                                        20500
A1401400110492622560001MORATO, CHERRYL DECHAVEZ                                 0503
B0101403580511542394002STA. RITA 168 BUILDERS CORP.                             1605
B0101411400517004637001T3 DATA SOLUTIONS, INC.                                  1602
A0101412050000018205711QIN, JING JING                                           0502
A0101412050000018205722CAI, YAN                                                 0502
A0101412050000017044296FRANCISCO, DELIA MISAGAL                                 0501
A0101404130601450518001GEORGE T. SIY &/OR ANGELINE SIY                         10502
A0101404130601450518001FIECHTER ET AL                                          20500
A0101407720000004664091BARTOLOME, MARIA IMELDA MACTAL                           0501
A0101407720602391484001GLER, MA. TARCELA SABARRE                                0501
B0101412180000001293049AUTO MAGIC CORPORATION                                   1602
B0101404260000004781335LIM, HERMAN DONATO DBU ONEFULL TRADING                   1602
A0101404260611478374077LUCIA CAPILITAN                                          0502
A0101409890649044793001DATAEAST SALES                                           0502
B0101407690000003768003MT. SINAI MOTORS CORPORATION                             1602
A0101411530000017407193REYES, JOSINE SANDEJAS                                   0501
A0101411530000017407200TING, JESSICA REYES                                      0501
A0101413990000018030187SABELLA, ROMERICK RAMOS                                  0501
B0101413990000018195981IPROTECT CONSULTANCY AND INSURANCE                      11602
B0101413990000018195981AGENCY, INC.                                            21600
B0101413990000018196046IPROTECT CONSULTANCY AND INSURANCE                      11602
B0101413990000018196046AGENCY, INC                                             21600
B0101413990000018196104IPROTECT CONSULTANCY AND INSURANCE                      11602
B0101413990000018196104AGENCY, INC.                                            21600
A0101413990000006768638***                                                      0502
B0101414120000001984223SOUTH SEA DEV'T. CORP.                                   1603
A0101406590662208118001CYNTHIA OR CHERYL MYLA ARCINUE                           0501
A0101410300000006278460KING, JULIUS NO                                          0501
B1301400210682016750001JFL AGRI VENTURE SUPPLIES                                1604
A1301400500000012953965UY, HOOVER TAN                                           0502
A1301400500000015422001BERTUMEN, ANAGRES CRUZ                                   0502
A0101408240000015207520CHUA, SHIRLEY YU JT                                      0501
A2801400230000011504468BATTAD, ISABELITA CORREA                                 0501
A4101400260000000541115VILLA, APRILLE PANGALIMAN                                0501
A4101400260000018645373BORJA, ANNA LEE CALDERON                                 0501
A4101400260000018645475HERNANDEZ, DARA NOELA PANTE                              0501
A4101400260000018645566NATO, JEFFERSON NAVE                                     0501
A4101400390000015067280SANDEE R. MOLATO                                         0501
A4101400550000001332609FENIS, DANILO LAGPAS OR                                 10502
A4101400550000001332609FENIS, LOU DIANE                                        20500
A0101412340000003343502PHILIP S. GARCIA                                         0501
A0101404840851478374002VIOLETA Z. PANZO                                         0501
B0101413860000001767826SAFEWAY WAREHOUSING, INC.                                1605
B0601400230891012908002JRS BUSINESS CORPORATION                                 1603
