A3001400130000008264864CACAFRANCA, KARL RUSSEL INOCENC                         10501
A3001400130000008264864IO                                                      20500
B3001400130230042943088VENTURA PLYWOOD PHILIPPINES INC.                         1610
B1101400120313039184001SARC FOODS CORPORATION                                   1605
A1101400120000006186354ROSALIJOS, ROY                                           0501
B6601400120314040180001NORTHERN LIGHT HOME DEPOT                                1602
A0101412500000015618063LORCA, AGNES ERLANO                                      0501
B3001400130000008264900AGUSAN LENDING CORPORATION                               1605
A3001400130000008264853AMOIN, MARILYN B                                         0501
B0101403320471041653001CRYSTAL DREAMS DEVELOPMENT CORPORATION                   1603
A0101403320000006026871ARCE, BERNADETTE M. DBU                                 10502
A0101403320000006026871ST. CLAIRE BUILDERS JT                                  20500
A4101400260000012861600BAYOT, DONNA MARIE ORBETA                                0501
A0101400860011413316001**********                                               0505
A0101400860011416442001**********                                               0505
A0101400860011426836001*********                                                0502
A0101400860000005312890**********                                               0502
A0101401250000002290126VERGEL DE DIOS, EDITA V OR                              10501
A0101401250000002290126VERGEL DE DIOS, RAYMOND V                               20500
A0101401250000008233334ANDRADA, MALOU CARBONILLA                                0503
B0101401250000002763391FILASIA SYSTEM TECHNOLOGIES INC.                         1603
A0101400150000003165182ANNA MARIA RAMONA M. MADERAL                             0501
A0101400150000004915219MERCADO, ABRAHAM RAMON MANALOTO                          0503
A0101400150061379943001NORBERTO R. REYES OR                                    10501
A0101400150061379943001SOLEDAD REYES                                           20500
A0101400150061453761077POLICARPIO, JEMUEL AFABLE                                0501
B0101400600071233748002**********                                               1601
B0101400600071313239001MERCEDITA J. BERNARDO                                    1602
B0101405810072018018001AIMWAY PLASTIC & PRINTING CORP.                          1602
B0101405810072029570001PLASTIC CONSUMER CORPORATION                             1602
A0101405810072319037001**********                                               0501
A0101405810072373265003MANANSALA, JOYCEE CATARATA                               0502
A0601400100081251942001FERNANDO R. NARCISO                                      0503
A0601400100081605598001AYSON, RINA CRISOSTOMO                                   0501
A0101413280000014945943CHANG, EVANGELINE DBU GLORIOUS                          10501
A0101413280000014945943MORNING & INDUS. SALES                                  20500
A0101413280092062132001REIKEN AUTOMOTIVE SUPPLY                                 0501
A0101413730000002289450***************                                          0501
A0101414090000006211472ADANG-AS, FELICLAIRE MANGIBAT                            0504
A0101410850000013666721NOBLE, MARY GRACE LACSAMANA                              0501
A0101410560000002316558LAGASCA, CHERIELYN                                       0501
A0101400730000014853779LAFUENTE, DHANNA CORAZON RAMOS                           0501
A0101400730111370569001MANABAT, DANILO MORALES OR                              10501
A0101400730111370569001ARLENE MANABAT                                          20500
A0101406040000013257466ONG, JANMIKEL TAJONERA DBU JILZ                          0502
A0101401960121238342002************                                             0505
A0101413310000000863992VICEO, CARLOS ESTANISLAO OR                             10501
A0101413310000000863992VICEO, AIDA GUILLERMO                                   20500
A7201400170000015640936BALALA, RAMON JULIUS CANIZARES                          10501
A7201400170000015640936AND BALALA, LIERA ESCOBIA                               20500
A0101400440000007121826NALANGAN, LEMUEL PACLIBAR                                0501
A0101400440000015102240QUIAMBAO, LOU FRANCHESCA GAMO                            0501
A0101400440000001439732ANALY M. VILLARMA                                        0501
B0101400440000002846611LIBERTY SERVICE PROVIDER INC.                            1603
B0101400440000005393791TRIMOTORS TECHNOLOGY CORP.                               1602
A0101407270000003254242MUPRA, ROSAME BARGAYO                                    0501
B0101407270000012664789PRIMO FORTEM CONSTRUIR CORP.                             1602
B0101407270162036499001JOB PLACEMENT RESOURCES SERVICES                        11605
B0101407270162036499001COOPERATIVE                                             21600
B0101407270000004558425CBB PRODUCTIONS EVENTS ORGANIZING &                     11602
B0101407270000004558425MANAGEMENT INC.                                         21600
B0101401090171031508002DUBBEL MEDICAL CORPORATION                               1606
A0101401090171522034001KATHLEEN OR ELISEO ZUNIGA                                0501
A0301400530000011432921MATURAN, ZALDY BALAGOT DBU MATU                          0502
B0301400660194046395088DAVSAM LINK CORPORATION                                  1602
A0301400660194084735001LABARITE, JOSEFA MANCERAS                                0502
A0301400950000014675717************                                             0501
A0301400950000002115231**********                                               0501
A0101401380000001819963ILISCUPIDEZ, LIEZL JANITO                                0502
A0101401380000010190604MUYA, MARLON BATHAN                                      0503
A0101401380201572546001GUZMAN, JOSEPH JOVEL GIRON                               0502
B0101413020000000038377CRYSTAL RAIN INTERNATIONAL CORPORATION                   1601
A0101413020000003055405AVO-AIR ENGINEERING SERVICES                             0502
A0101413020000002292833DE GUZMAN, MA. DONNA REMPIS                              0501
B0101412500000015579209MULTI-FORMS CORPORATION                                  1601
B0101413600000011614601THE CLEAN COMPANY, INC.                                  1604
A3101400450223225152001EXCONDE, SOFRONIO OR ARSENIO DO                         10501
A3101400450223225152001GABRIEL TIMOTHY                                         20500
A3101400450000005355471CIGARAL, PEDRITO OR KLARISSE                            10505
A3101400450000005355471OR KIM PATRICIA                                         20500
B1001400190000011826721GRUESO, MARIA FE SUCAYRE DBU MARANDING                  11602
B1001400190000011826721AUTO PARTYS OR S                                        21600
B1001400190000008744145ROAD TRANSPO SPECIALIST INC.                             1601
B1001400190231300482001ORO SOLID HARDWARE, INCORPORATED                         1603
A1001400190231342333001BUSGANO, HIPOLITO S.                                     0503
A1301400470000002299789DANILO C. PAGSAMBUGAN                                    0502
A1301400470252478374030JERICA P. MATAMMU                                        0502
A1301400470252697686001AUGUSTUS CEACZAR P. RUIZ                                 0502
A1301400760000001294840MARLENE C. CASINO                                        0501
A0101401670271033400001PHILIPPINE NUMISMATIC &                                 10501
A0101401670271033400001ANTIQUARIAN SOCIETY                                     20500
B0101406460272043457001TARSIER SECURITY AGENCY, INC.                            1602
A0101406620000012200318IBASCO, RONALDO DY LIACCO                                0503
A0101406620273505335001MA. TERESITA L. ROCA OR                                 10503
A0101406620273505335001AGNES HILDA L. ROCA                                     20500
A0101408660274512962640ZIALCITA III, BENIGNO L.     JT                          0502
A0101408660274668915001TEMPORAL, DENNIS OLAVIDES                                0501
A0101411820000000589391LOIS MAE P. MENDOZA                                      0502
A0101411820000001356241HAO, KENNETH MONDIDO                                     0502
B0101411820000010701230PHILIA TRAVEL AND TOURS INC.                             1601
B0101411820000001356827PRINTTALK ADVERTISING INC.                               1601
B0101400570281024165001PHILIPPINE SOCIETY OF CLIMACTERIC                       11602
B0101400570281024165001MEDICINE                                                21600
B0101400570281024862001FILIPINO SOCIETY OF COMPOSERS, AUTHORS &                11610
B0101400570281024862001PUBLISHERS, INC.                                        21600
A0101400570000011364811YU, LESTER CO                                            0501
A0501400200000011516971DALOPE, VANESSA MAYRONG OR                              10502
A0501400200000011516971DALOPE, ROMULO ARENAS                                   20500
A0501400200000006272164TOLETE, MELINDA OVALLES                                  0502
A1101400120000001547520TAN, MELVIN NATHANIEL ANDRADE                            0503
A6601400120314047332001ST. ANTHONY FARM INSTITUTE OF                           10502
A6601400120314047332001TECHNOLOGY INC.                                         20500
A6601400120314081356001KAW, ROBERTO OR KAW, MILAGROS                            0501
A6601400120314622580001SOSING, CAROL O. OR FELIPE A.                           10505
A6601400120314622580001OR CAROLYN O.                                           20500
A6601400120000005710630DY, FREDERIC JAN TUBELLO                                 0504
B3401400280000006790965JL PRIORITY LENDING CORPORATION                          1602
A0101402350000000019138VALENZUELA, MARIJOY CRUZ                                 0501
B0101402350321006710001DASMA CITYWIDE GEN MDSG INC.                             1604
A0101402350321478374013ROSALINA M. MARAVILLA                                    0501
A0101402350000012300411PASANDALAN, MORSHIEDAH HABIB                             0501
A0101405650000009768201DOMINGO, MARK RAYMOND TEOPE                              0502
B0101405650000015633771DUMALE, MC DENVER PURIFICACION DBU                       1601
A0101402510000013066507DAESEOYANG SEAFOOD RESTAURANT                            0502
A0101402510341478374008MARY GRACE B. ANDRES                                     0501
A0201400760374483079001STEINBERGER, OTTO WILHELM                                0501
A0101408370000009296671LOBENDINO, FRANCES KAORI TOGEZA                          0501
A0101408370000010341798ANGUE, CINDY QUIACOS                                     0502
B0101408370000010545296CACAO LAVEZARES CHOCOLATES AND CONFISERI                11603
B0101408370000010545296E CORPORATION                                           21600
A0101408370382397168001DR. CRISTINA C. BERNARDO                                 0505
A0101408370382397168001DR. CRISTINA C. BERNARDO                                 0505
A0101408790000015636145FELIX, MARIA TERESA SOLMIRANO                            0501
A0101408790000015636258CRUZ, JOSE LUIS ALONSO                                   0501
A0101402770391286509001TABIOS, ANDRES D.                                        0502
A0101408400000008744732BRAVANTE, JOMAR ADRIAN SORIANO                           0501
A0101408400394417405001EVANGELISTA, JOSELITO OR                                10501
A0101408400394417405001EVANGELISTA, ROMELINDA                                  20500
A0101408400394419461001MARIA AURORA AQUINO BARROS                               0501
A0101408400394420990001CRISTOBAL, ROMEO PILLAS OR                              10501
A0101408400394420990001CRISTOBAL, NELLI                                        20500
A0101408400394443611001MAGBANUA, JOSEFINA SANTIAGO                              0502
A0101408950000009451076ESCULTO, MARICAR MADRIDEJOS                              0502
A0101408950000006424831FLORES, VIRGINIA MARANON                                 0501
A0101408950000003439398EMPLOYEES OF, FWD LIFE INSURANC                          0501
A0101408950396501550002ANDREW POBLETE                                           0501
A0101408950396761506001DONALD C. CRISTOBAL OR MA.                              10501
A0101408950396761506001FLORDELIZA A. CR                                        20500
A0101409180000010760033CAUTON, ANNA KATRINA H. OR                              10501
A0101409180000010760033CAUTON III, LUCA                                        20500
A0101409180000006071289NATIVIDAD, ROWENA BRAVO                                  0501
A0101409180000010760244CANONIZADO, JANELLE DAQUIWAG                             0501
A0101409210000012318984GAON, GLADDYS HAZEL REGINO                               0501
B5501400120000000046842TACURONG FIT MART, INC.                                  1625
B0101403030441239806001JETCO MOTOR SALES                                        1604
A0101412890000007095750ANGELES, CRISTINA DBU INTERIOR                          10502
A0101412890000007095750PERSPECTIVE MARKETING                                   20500
B0101403320471019960002DIRECT ELECTRIX EQUIPMENT                               11605
B0101403320471019960002CORPORATION                                             21600
A0101406330000006943662TUNDAG, MICHELLE KAY DELA CRUZ                           0501
A0501400170000001032113DAVID, ERMO ABULENCIA                                    0501
A0501400170000009954050CUNA, JOSE MARIANO CHAN                                  0501
A1901400320489632830001ANTHONY E BAGON                                          0503
A1901400160491279781001GONZALES, THELMA BEJASA                                  0502
A1901400160491659463001GLORIA JARO PENA                                         0502
A1401400110492560122001VELUZ, NORMAN GAMBOA                                     0501
A1601400170000000036531ERNESTO REYNOSO OR ISABEL                               10503
A1601400170000000036531REYNOSO OR CARLO                                        20500
A0701400260000013603719YBANEZ, NATIVIDAD BORJA                                  0502
A0101407430503181551001DICKSON R. ESCOLAR OR                                   10501
A0101407430503181551001MARY ANN R. ESCO                                        20500
A0101407430503434847002JOCELYN L. CUSTORIO                                      0501
A0101403580000003777464BALADIANG, NOEL AGUINALDO                                0502
A0101405940512026524001DAVENNIEL PROMATS MARKETING                              0503
A0101405940000012443435LIBAGO, MAYDEEH REYMUNDO                                 0501
A0101405940512366890005CASTILLO, RAFAEL RICAFRANCA OR                          10501
A0101405940512366890005CASTILLO, REBECCA                                       20500
A0101405940512522504001YU, JONATHAN MARC CHAM OR                               10502
A0101405940512522504001YU, HENRY LEE                                           20500
A0101408530000015654483MORALES, GABRIEL GUY TINGCHUY                            0501
A0101408530000015648823CADIZ, DENNIS ESPANOLA                                   0501
A0101408530000015648921JIMENEZ, MARY GRACE PARTORIZA                            0501
B0101408530516026161118DIGITAL ISYS CORPORATION                                 1601
B0101408530000001275270ENZO CONDOMINIUM CORPORATION                             1605
A0101408530000000035981LORRAINE L. LAVARRO                                      0501
B0101408530516687771001THE FRENCH PATISSERIE CORP.                              1605
A0101411790000004808048ESPANOL, ANGELITO MALVAR                                 0501
A0101411790000014770011Ramones, Evangeline                                      0501
B0101411790518046887002SCOTT PARK GROUP PHILIPPINES INC.                        1602
A0101411790518055764041BALADAD, PAOLO ANTONIO AQUINO                            0501
A0101411790518055815080ETRADE INFORMATION SERVICES  LL                          0501
A0101412050000008837141SANTOS, ROMMELITO DE JOSE DBU                           10501
A0101412050000008837141ROMSANAIRE TRADING                                      20500
B0101403450000002975804***********                                              1603
A0101412180000000037932*******                                                  0501
B0101404260611042763001ACJEM INDUSTRIAL MANPOWER & GEN.                        11603
B0101404260611042763001SERVICES, INC.                                          21600
A0101404260611478374075VIVENCIA HATOL                                           0501
A0101409920000009981480HADDADIN, ASHRAF MALEK CONGCO                            0502
B0101413570000000206533DYD ESLA                                                 1601
A0101413570000005867412JACABAN, ANALYN VILLANUEVA DBU                           0505
A0101413570000003379919CLEMEN, VICTOR EMMANUEL                                  0501
A0101413990000015655793CALALANG, DING MENDOZA                                   0501
A0101414120000003190929FORDAN, MERIAM ELECSION                                  0502
A0101414120000007655276**********                                               0502
B0101414120000011637171ALI I.T. SUPPORT SERVICES INC.                           1601
A0101414120000000398932R. ACOSTA ENTERPRISES                                    0501
A0101414120000000398892A.R.P. TRUCKING                                          0502
A0101414120000006005323CASIMIRO, ANNA KATRINA CANLAS                            0502
A0101414120000012536173MARAMAG, REMEDIOS AGUAS                                  0502
A1301400210000002908956RAMIL A CRUZ                                             0505
B1301400210000008174174SOTO, DEVORAH MENDOZA DBU KIERA SPR                      1601
A1301400210682478374062MA. ERLINDA C CHUA                                       0501
A1301400500000009723162CUERPO, RINA CANLAS                                      0501
A1301400500000003070139SUGAR DADDY MARKETING                                    0503
B1301400500000005963517P.P.E.B. CORPORATION                                     1603
A0101408240711427132001SORIANO, AVELINA                                         0501
A0101408240711568686001RAFER, JENNIFER PACAO                                    0503
B2801400100000007629276JOBIN-SQM INC.                                           1602
A4101400260000006043118KAHBLESS, AKA DBU KAHBLESS                              10505
A4101400260000006043118INTERNATIONAL EN                                        20500
A4101400260000003679669ROSARIO, JESSICA GUTIERREZ                               0501
A4101400260812681817001VICEDO, ERMINDA VILLAFLORES                              0501
A4101400420000006643401PINEDA, MARK ANTHONY ROSAS                               0502
B4101400420814012637001ANABU DEVELOPMENT COOPERATIVE                           11603
B4101400420814012637001(ANADECO)                                               21600
B4101400420000009391944SCHNELL MARKETING PHILIPPINES INC.                       1603
A4101400420814457337002ORDONEZ, JANE M. OR                                     10501
A4101400420814457337002ORDONEZ, JOSE IB                                        20500
A4101400550000010508664PLACIDO, KATHLEEN ANN MESINA                             0502
A0101412340000003340930GERALD D. AUSTRIA                                        0501
A0101412340000009501020MARGALLO, MARY ROSE FRANCISCO                            0501
A0101404840000002327766LAZAN, MARY JANE CRUZ                                    0501
A0101404840851520766033FLORDELIZA M. RAVALO                                     0502
A0101404840851520766163JOCELYN ANONUEVO                                         0501
A0101406750852290414001MARITES BULAON JT                                        0501
A0101405070861027133001WORLDLINKS CABLE WORKS                                   0502
