B0801400160311821100608**********                                               2010
A4101400420000002345262LOPEZ, ERENE TADEO                                       0501
B4101400420814038765001EG&G CONSTRUCTION SUPPLY                                 1604
A0601400520000001706890CASTRO, KASMICHELF MIRANDA                               0502
A0101400440161478374126DELIA SERRANO                                            0501
B0101409920000000437001BELTRAN, RA DBU MJR2 PRINTING SERVICES                   1602
B1301400500684059418001LUWALHATI HIMLAYANG PANGALA-ALA, INC.                    1601
A0101400860000002333477**********                                               0503
B0101400860011305536001**********                                               1601
B0101400860011374845003**********                                               1601
A0101400860011391313002**********                                               0504
B0101400860000001005354**********                                               1602
A0101400860011429714003**********                                               0502
A0101400860011526024001**********                                               0503
B0101400150061016166001XPLORE PHILIPPINES, INC.                                 1602
B0101400150061038667001VISTA LAND AND LIFESCAPES, INC                           1603
A0101400150061228362001MA. SHIELAH S. ASONG                                     0502
A0101400150061337099127CARMENCITA L. TAN                                        0501
B0101400150000000052713TANY FOUNDATION INC                                      1601
B0601400100081296256001CHRISTOPHER OR LOYA MALLARI FAO CHRISSAN                11603
B0601400100081296256001AUTO SUPPLY                                             21600
B0101414090000002244651KS DIGITAL MARKETING AND IT SERVICES INC                 1601
B0101414090108821100608**********                                               2005
A0101400730111301951008EVALE, BENIGNA D.                                        0502
A0101400730111393421005DAVI N. DELOS SANTOS                                     0501
A0101400730000000112881GUTIERREZ, DOMINICA DALISAY                              0501
B0101401960121012201001ARCTUS ENTERPRISES, INC.                                 1606
B0101401830141044349001D'COLD MAN AIR CON SERVICES                              1601
B0101400440161007221001ILA EXPRESS HAULER                                       1602
A0101400440161036282001GHERKIN INDUSTRIAL MARKETING                             0510
B0101400440161037708002RD CASH PADALA, INC.-AREA 1                              1603
A0101400440000002035110EVA D. SAMILLANO                                         0502
A0101400440000004901440NLR INSURANCE SERVICES                                   0503
A0101400440161466113001CATHERINE E. CABACHETE                                   0501
A0101400440161591337001JENESSEY A. RANCES OR                                   10502
A0101400440161591337001JESSIE O. RANCES                                        20500
A0101401090171197840001DRS. PHILOMENA GABRIEL-LOPEZ                            10502
A0101401090171197840001OR ROLANDO LOPEZ                                        20500
A0101401090171200033001MARIA ROSARIO R. ARANDA                                  0501
A0101401090171200617001JOSE RICARTE OR                                         10502
A0101401090171200617001MARIZZA ORIGENES                                        20500
A0101401090171448116002SYLVIA BERNARTE-ALS OR                                  10501
A0101401090171448116002ANDREA MARIE BERNARTE                                   20500
A0101401380000000792132********                                                 0502
A0101401380000002297425KIM, WON KAB                                             0502
A0101401380000002297481BAYLON, CONRAD YU                                        0501
A0101401380000005219869GARCES, RANDY MOISES                                     0502
A0101413020000000056988AGUSTIN, FL DBU FIX AND CARE                            10502
A0101413020000000056988REF & AIRCON REP                                        20500
A0101412500000002304723ARDIDON, NESTOR PANTONE                                  0501
B3101400160221019509001DYNASTY ALUMINUM, GLASS &                               11601
B3101400160221019509001GEN. MDSG CORP.                                         21600
A3101400450000004751713ALARVA, VIDAL VILLAPANDO                                 0501
A1001400190000004487641SIAO, MICHAEL FRANKLIN NERI                              0501
A1001400190231283324001GICABAO, BENY CHAN                                       0501
A1001400190231478374179BACAN, JULIET                                            0501
A1001400190231520766093DACUTANAN, REYNOZA RADOC                                 0501
A1001400480000002300383GUINTO, JEAN MAGO                                        0502
B1001400480000003028920BRANA, JIMMY LACUARTA DBU JG MOVERS                      1603
A1301400760000000007223GLENDA S. DACANAY                                        0502
B0101401670271034948001REALTY INVESTMENTS INC.                                  1605
A0101401670271039999001INFINITY INSURANCE SERVICES                              0502
A0101406460272381558001********                                                 0501
B0101406620273020543001GOLDEN DRAGON INDUSTRIAL CORPORATION                     1602
B0101406620000000962403GEOWORKS INTERNATIONAL CORPORATION                       1601
A0101406620273393856001BRYAN S. GOMEZ                                           0501
A0101411110000000604802MORENO, NILDA NUNEZ                                      0501
B0101411110000001037085********                                                 1602
A0101400570000002329780REYES, GABRIEL AGUILA                                    0502
A0101400570000000031814TYLER-BOOM ENTERTAINMENT                                 0501
B0501400200292821100608**********                                               2001
A2601400270000002257201KATHERINE M. GALINGANA                                   0505
A2601400270302591563001ROSITA R. CHE                                            0501
A0801400160311267899001RAMON J. JAVELOSA OR                                    10501
A0801400160311267899001GRACE M. JAVELOS                                        20500
A0801400160311380582001CHUA, ANDREW UY OR                                      10501
A0801400160311380582001CHUA, PAMELA G.                                         20500
A6601400120000001370883CEBUJANO, MARILYN ESTREMERA                              0501
A6601400120000002978096HORCA, ROMAR BABIANO                                     0502
A0101402350000002310678MONES, ELMIE LANTACA                                     0502
B0101402350321037708002RD CASH PADALA, INC.- AREA 1                             1603
B0101405650000000772721PREMIERE COMMUNITY PARTNERS, INC.                        1605
B0101405650000000772743BF FEDERATION OF HOMEOWNER ASSOCIATION                   1601
A0101408790000002031463CASTANEDA, CAMILLA ANN LASALA                            0501
A0101402770391187974003DARWIN DEE PONA                                          0501
A0101402770391355762062RUTH TOLENTINO                                           0501
B0101408400000002386172DIGNOS, MARIA VIOLETA SALVADOR                           1601
A0101408400394160344001CALMA, ALFREDO MATAGA                                    0504
A0101409210000001294413MAMARIL, RASHIEL SOBREVILLA                              0502
A0101409210000005739648MAGTOTO, JOVILYN CRUZ                                    0501
A2401400180000000073550ALBARRACIN, JEMAR DEGAMO                                 0501
B2401400180411036168088TSP MARINE INDUSTRIES                                    1605
A2401400180411455559001VENDIX GEN. MERCHANDISE                                  0501
A2401400180411478374017PERPECTUO BULAQUINA, JR.  OR                            10501
A2401400180411478374017EMMA C. BULAQUIN                                        20500
A2401400180411744426001ENGCONG, JAY CUEVAS                                      0501
A0901400220000003069043**********                                               0501
A0901400220000000425136ROSOS, LORAINE WAYCO                                     0501
A0101403030441545175001**********                                               0501
A0101412890000000371431GINA B BARBUENA                                          0501
A0101403320000001803372MARIA CHIELO T. SAN PEDRO                                0502
A0101403320000000736112GRACE A. GERVACIO                                        0502
A0101403320000001646982TIMBOL, GINA CALIWLIW                                    0501
B0101403320000001647149UNIGOLD EVENTS AND PROMOTION MANAGEMENT                 11602
B0101403320000001647149INC.                                                    21600
A0101406330472027531001MYRO SHOES & BAGS                                        0501
A0101406330472214807001EMELDA P. LINDAYAG                                       0501
A0101406330472215990001DFB GLASS & ALUMINUM SUPPLY                              0502
A0101406330472217737001ARR MARKETING & GENERAL MDSE.                            0501
A0101406330472294535002DE VERA'S COMBINED SERVICES REF                         10506
A0101406330472294535002& AIRCON SPECIALIST                                     20500
A0101410140475339949001SANTOS, ADORACION SANCHEZ OR                            10504
A0101410140475339949001SANTOS, MYRNA SA                                        20500
A0501400170000001072731ABCEDE, JORRECA DE PERIO                                 0502
A1901400160491244128001NATHANIEL L SERRANO                                     10501
A1901400160491244128001OR NIDA V SERRANO                                       20500
A1601400170000001068593JINKY M. NIEVA                                           0501
A1601400170000000421047JUVY G. VILLANUEVA DBU                                  10501
A1601400170000000421047THE BICOL GREENLEAF GRILL                               20500
B0101407430000001213192SHIMBURUM CENTER CORP.                                   1602
B0101408110515059508001CAFFE ITALIA VIA EMILIA INC.                             1601
B0101408530516033397001SPRINGER INTERNATIONAL, INC.                             1605
A0101412050000000043347DAVID, RANILITO DBU R. DAVID                            10502
A0101412050000000043347TAILORING                                               20500
A0101403450521357926001**********                                               0501
A2201400250000003316441TERESA DE JESUS OCAMPO                                   0502
A2201400250561478374062JENNIFER M. RAMOS                                       10501
A2201400250561478374062MEMBERS OF NATASHA                                      20500
B0101404130601030838001ELEV 8 MEDIA, INC.                                       1605
B0101407720602021008001WAYFAIR TOURS, INC.                                      1601
B0101407720000000885792MG LANTING SECURITY SPECIALIST                          11603
B0101407720000000885792AGENCY INC.                                             21600
A0101407720602387084002VILLON, ROZAIDA RESTRIVERA                               0501
A0101407720000003886795DELES, ROSEMARIE ARELLANO                                0502
A0101404260611005236001WILTRON ELECTRONICS                                      0502
B0101404260611028921001KICEM TRADERS AND CO. INC.                               1610
A0101404260611478374052ROSEMARY F. ROLDAN                                       0503
A0101404260611478374135EMELITA B. MONCHEZ                                       0501
A0101409890000000437416DE JESUS, NAZARINA ONG                                   0502
A0101413990000004838057MONFORTE, JENNELY TEVES                                  0504
B0101406590000000905657BRAINCHILD SIX INC.                                      1602
A1301400210000000983791OLAIVAR, JEFFERSON M.                                    0503
B1301400210682200942001SZE KIT CHENG                                            1610
A1301400340683367953001FELLO, ROSEMARIE RODIL OR                               10503
A1301400340683367953001FELLO, BISMARK C                                        20500
A1301400340683400365001MEDINA, EUGENIO DE SAGUN                                 0502
A1301400500684478374003ELMA I. DE LEON                                          0501
A1301400500684589977001VIOLAGO, MA. LORENA M.OR                                10501
A1301400500684589977001VIOLAGO, GIDO C.                                        20500
A0101408240000001038697APARICIO, RENATO FRANCIA                                 0505
A0101408240711228456002MA. VICTORIA MANIQUIS                                   10502
A0101408240711228456002OR STEVE MANIQUIS                                       20500
A0101408240711373874001MARILYN P. ALTAREJOS JT                                  0502
A4101400260000002888200GARCIA, SHARIROSE NACASABUG                              0501
A4101400260812403511001BOSITA, CHRISTIAN DUA                                    0501
A4101400260812632500001NUNEZA, MA. DELIA BARREN                                 0502
A4101400550000001622582RAMA,MARIA EVA M. OR                                    10502
A4101400550000001622582RAMA,VINCENT JEFFREY M.                                 20500
A4101400550000003839167IMELDA F. TAN                                            0501
A0101412340000003341631EFREN B. CANZANA JR.                                     0501
A0101412340000003344681BENJONARD V. MIPA                                        0501
A0101404840851524547001BUENAVENTURA, ALLAN JOHN TORREV                          0501
A0101406750000000017427ANTONIO, ARNALDO QUILATAN                                0501
A01014067508526176540010SORIO, THELMA RAVELAS                                   0502
A0101405070861087185001FORTUN, MARIA DOLORES REMULLA                            0501
B0101417000002502000011**********                                               2002
