F0101414410000001346327TRANSCOM WORLDWIDE                                      12620CK1
F0101414410000001346327(PHILIPPINES) IN                                        22600CK1
F3101400580452541714001BUNGAY, EVELYN ESGUERRA OR                              12615CKO
F3101400580452541714001BUNGAY, GELLYN E                                        22600CKO
F0101403290461028962001MIX PLANT INC.                                           2630CKR
F0101414410000001346338TRANSCOM WORLDWIDE                                      12620CK1
F0101414410000001346338(PHILIPPINES) IN                                        22600CK1
F0101414410000001346349TRANSCOM WORLWIDE BV ROHQ                                2605CK1
F0101414410000001346350TRANSCOM WORLWIDE BV ROHQ                                2605CK1
F1301400340683012920002MEYCAUAYAN COLLEGE INC.                                  2605CKR
