B0101400280051821100608**********                                               2005
A0101409210000002279018AGONCILLO, CONSUELO FLORES                               0502
A0601400520000002086028IMPACT BALIBAGO ARTS & CRAFTS                            0503
A0101402060351217444005BIENVENIDA S. CRUZ                                       0501
A0101412890000003508154FALCONIT, CARLA PAGUIA                                   0501
B0101412890000000007007CREATIVE FILES INC.                                      1606
A0101400860011557059001**********                                               0504
A0101401250021468980001GENELYN C. CARTON                                        0501
B0101400280051821200608**********                                               2003
A0101400150000006074900SANTIAGO, QUINTIN MADRIAGA                               0501
A0101400150000006074911AMO, ANNE KRISSY GAWARAN                                 0501
A0101400150000006074922SANTOS, RO-ANN ESTAYAN                                   0501
A0101400150061227441001ERNESTO T. ECHAUZ                                        0503
B0101405810072301363001**********                                               1602
A0101405810072630331001CAI, MINGLANG GO                                         0501
A0601400100081046868001**********                                               0502
A0601400100081370388002REYES JR., LIBERATO DAYRIT                              10502
A0601400100081370388002OR MELINA                                               20500
A0101400730111520766057PROCLEY C. CRISTOBAL                                     0502
A0101413310000000863941SUMALINOG, KATHERINE MANZANO                             0501
B0101400440000005393728RD PAWNSHOP, INCORPORATED                                1603
A0101400440161478374010*****                                                    0503
A0101400440161478374141GENILA J. TORCENDE                                       0501
A0101400440161520766098JUDITH D. BRISO                                          0501
A0101400440161525001095MARITES T. TAPIADOR                                      0501
B0101407270162008543001INTERNATIONAL HEAVY EQUIPMENT                           11610
B0101407270162008543001CORPORATION                                             21600
A0101407270162200220001LARRAZABAL, ZENAIDA                                      0502
A0101407270162333006004PRINCESITA T. DELA CRUZ                                  0501
A0101401090171287980001ROMIL M. MARTINEZ                                        0506
A0301400530000001009961IBOT, LETHLE P.                                          0501
B0301400530193042322002TRUMPH MOTORCYCLE CORPORATION                            1602
A0301400790000002301308AQUINO, ALLAN ESPINA OR                                 10503
A0301400790000002301308AQUINO, DENNIS ESPINA                                   20500
A0101410720000002284051BARTOLOME JR., ENRIQUE ROASA                             0501
A0101410720000000053272BARUANG, SALOMBAI AZIS                                   0503
A0101410720000002283930LADIA, APRIL IRIS RUPIDO                                 0504
B3101400160221032914001AARON EAGLE SECURITY AND INVESTIGATION                  11610
B3101400160221032914001AGENCY                                                  21600
A3101400450223058711001ESEO, GUIA DBU BUENA-VENTURES                           10501
A3101400450223058711001TRADING POST JT                                         20500
A3101400450223352819001FARAON, RIZALINA OR                                     10502
A3101400450223352819001BELEN, RHODORA                                          20500
A3101400870000002662433GUEVARRA, MARICHU GARILLO                                0502
A1301400470252428022001DRA. MA. CLARISSA ELIZABETH                             10502
A1301400470252428022001VILLAROMAN                                              20500
B1301400760253821200608**********                                               2001
B0101406620273033986001F. YAP SECURITIES, INC.                                  1602
A0101406620273306796017KATRINA JOY G. CRUZ                                      0501
A0101408660000000059818****************                                         0501
A0101400570000001681825TEODUCIO SENA DBU                                       10502
A0101400570000001681825GAARA ENTERPRISE                                        20500
A0101400570000000470604RABANAL, EVELYN TINONG DBU RAKI                          0501
A2601400270000000561762EDGAR M. ROSETE OR EMELITA R.                           10503
A2601400270000000561762ROSETE                                                  20500
A0801400160000001031423RICARDO P. PROVIDO, JR.                                  0501
B0801400160311025468002SANTELLEN CORPORATION                                    1602
A2001400290000005926069TAN, EARL FRANCIS ROMANO                                 0503
A2001400290315048040001SILVER RIVERS                                           10505
A2001400290315048040001CONSTRUCTION SUP                                        20500
A2001400290315636172001KHO, EVAN HO                                             0502
A0101405650000000525751ZAFRA, APRIL ROSE PENALBA                                0501
A0101405650322342825001DIAZ, RHANI JOY TERESITA M.                              0502
A0101402060351009359002JIANDANI, SURESH G. &/OR                                10501
A0101402060351009359002JIANDANI, KAVITA                                        20500
A0101402060351211713002WENEFREDA &/OR JORGE TORRE                               0501
B0201400920000000047863KOWEN LOGISTICS COMPANY                                  1602
B0201401020000000042286PILIPINAS PRECIOUS METAL RESOURCES, INC.                 1602
A0101408370382205155003DR. ERWIN B. ALCAZAREN                                   0502
A0101408370382728827001AGNES B. GALURA-FAMERO                                   0502
B01014087903830459120011WORLD CASH PHILS INC.                                   1601
A0101411660000002309531AGUIRRE, JERICHO ICATAR                                  0501
A0101408400394026124001GYSERHEAD PURIFIED WATER                                 0501
B0101408400394035588001JUANSIXATE CO. INC.                                      1606
A0101408950000002255329PAGCALIWAGAN, MELISSA O'CONNER                          10501
A0101408950000002255329OR PAGCALIWAGAN, JOEL                                   20500
B0101409210398703674001J.LEGACY BUILDERS CORPORATION                            1605
A0301400820000001554912SAGARINO, MARIA CECILIA OR                              10501
A0301400820000001554912SAGARINO, JOSE JIMMY                                    20500
A0301400820000003148434BRINAN, REY RITCHER D.                                   0501
A0301400820000001185702EDLYN D. JIMENEZ                                         0501
A2401400180000000826233OXALES, HANNAH LOUISE RAQUEDAN                           0501
A2401400180411026519003CITY BANKERS ASSOCIATION OF                             10501
A2401400180411026519003GENERAL SANTOS                                          20500
B2401400180411030534001GENSAN-PRIMAL AUTO PARTS                                 1605
B2401400180411043965001BRIGADA HEALTHLINE CORP.                                 1610
A2401400180411487779008LIM, CARLITO TAN                                         0501
B0501400170481013109001MOTORCENTER INC.                                         1602
A0501400170481254469002OSCAR ARCINUE OR LUCIA DE VERA                           0505
A0501400170000002354510BERMUDEZ, ELSIE MALAPIRA OR                             10502
A0501400170000002354510LEIZA JR., JUANI                                        20500
B1901400160000000007423SUPER GT MOTOR SALES AND SERVICES INC.                   1602
B1401400110492031376001LUCENA WHEELER ENTERPRISE INC.                           1601
A1601400170000001069125ALDEN O. SAMBAJON OR                                    10502
A1601400170000001069125MINDA O. SAMBAJON                                       20500
A0701400260000001804699PAPIN, DOMINIC TUASON DBU ASIAN                         10505
A0701400260000001804699STARHUB TIRE TRADING                                    20500
A0101407430503452069001DULCE OBUSAN OR IRIS ISLA                                0501
A0101403580511156576001NIDAN E. ALBA                                            0503
B0101405940000000002773BT AUTO SPORT CORP.                                      1605
A0101405940512360728001ERWIN P. HERNANDEZ OR AGNES                             10501
A0101405940512360728001T. HERNANDEZ                                            20500
A0101408110000000202768**********                                               0501
A0101408530516571877185DARREL C. ROSALES                                        0502
A0101403610000001174852AUSTRIA, FELICISIMO SORIANO                              0501
A0101404000000003706654ORVILLE A DUPLA                                          0501
B0101407720602041447001MMC DEPARTMENT OF NEUROSCIENCES                          1601
B0101407720000000885656JBB & AFB CORPORATION                                    1601
A0101407720602396331001RAMON I. DIAZ JR. OR                                    10502
A0101407720602396331001CYNTHIA M. DIAZ                                         20500
A0101407720602421097002JOSEPH A. CORDERO, M.D.,                                10502
A0101407720602421097002F.P.C.S.                                                20500
A0101407720602537066001ENJL D. PUNSALAN OR                                     10502
A0101407720602537066001EMIR D. PUNSALAN                                        20500
B0101404260611005448001GUADALUPE CATHOLIC SCHOOL                                1605
A0101404260611150910003AMUERFINA I. MASIGON                                     0501
B0101409890000003098173V.T. LAGUYO CONSTRUCTION, INC.                           1601
B0101411530000002641783TRI GONZ FLOWER TRADING CORPORATION                      1601
A1301400340683424357002LAO, ALMA RUBY OR                                       10504
A1301400340683424357002LAO, JOSELITO                                           20500
A1301400340683542735002BIUNAS, REMEDIOS GREGORIO                                0501
A1301400500000006065943JENINO A. ONG OR SONIA A. ONG                            0501
A0101408240000002821763HADUCA, PATRICIA ALEXANDRIA G.                           0501
A0101408240711383150001AURELIO III OR AURELIO JR.                              10501
A0101408240711383150001OR AARON LITONJUA                                       20500
A0101408240711553930001UMAYAT, PHILIP MANABENG                                  0501
A2801400100000002253469HERILLA, ANDREA MONTAJES                                 0501
B2801400100712035008001ASIA INTERNATIONAL AUCTIONEERS, INC.                     1620
A4101400260000005333299TORRES, JEFFREY PADRO                                    0502
A4101400260000005333335BLANCO, MARCELINA SUAYBAGUIO                             0502
A4101400260000003679943TAN, ANGELINA                                            0501
A4101400390813478374060CASTRO, AMELIA                                           0501
A0101412340000001017827BALLELOS, KAREN R. OR                                   10502
A0101412340000001017827MERCADO, DEXTER M.                                      20500
A0101404840851478374115ERLINDA O. PRADO                                         0502
A0101404840851520766002CYNTHIA S. GERODIAS                                      0502
A0101406750000003393111BARANDA, ANA-ELISA MAICO                                 0502
A0101406750852483384001RAVIZ, GENALEN ZURITA                                    0501
A0101405070861380698001REYES SR., RENATO SISCAR                                 0501
A0101413860000001233670DE LEON, EVANGELINE PASIOLES                             0501
A0601400230891402549001BENEDICT O. DUNGAO OR                                   10502
A0601400230891402549001ANGELICA A. DUNG                                        20500
