F3101400320222448311001YABUT, ERNESTO GONZALES                                  2502CKO
F0301400820409048362001SOUTH EAST MINDANAO TRANSPORT                           12601CKR
F0301400820409048362001MULTI-PURPOSE CO                                        22600CKR
F0301400820409098501001PUENTESPINA, MARY VIC OR                                12601CKR
F0301400820409098501001MARCELO OR MARCE                                        22600CKR
F0101403290000000542501VERAFEDE INC.                                            2601CKR
F0101406330472042088001PRIME MKTG. & DIST., INC.                                2701CKC
F0101403450521012151002**********                                               2602CKR
F0101410690600047000002HOLIDAY HILLS STOCK & BREEDING                          12601CKR
F0101410690600047000002CORPORATION                                             22600CKR
F0101410690600047128001PIG IMPROVEMENT COMPANY, INC.                            2601CKR
F1301400210682432849002JOSE ANTONIO R SY-ALVARADO                               2520CKO
F4101400390008133500318MA-MA'S HOPE HAVEN OF NORWAY, I                          2605CKR
