A0101408400394573996001LABASAN, FLORDEJASMIN CHANCO                             0501
B1001400350233039880008NORMIN FOOD CHAIN CORPORATION - JOLLIBEE                11610
B1001400350233039880008LIMKETKAI                                               21600
B0101400860011394544002**********                                               1601
A0101400860011410778002**********                                               0510
A0101400860011410778003*********                                                0505
B0101400150061010688010SB CARDS CORPORATION                                     1610
B0101400150061027839001ROSCOR                                                   1602
A0101400150061277658001ESTRELLITA V. ONG                                        0501
A0101400600071233611001WELLINGTON GO                                            0502
A0601400100000000032500LACSINA, MARVIN OR CHERYLLAD                             0501
B0601400360083821100608**********                                               2002
A0101410850109055934001ANDAL, MARK GREGORY JT DBU                              10505
A0101410850109055934001RUMKOR TRUCKING                                         20500
B01014007301110195730012GO GROUP, INC.                                          1620
A0101413310000001073676PANGILINAN, EMMANUELA ORDONEZ                            0502
A0101401830141752259001CARANDANG, FREDERICK ANGELES                             0503
A7201400170000002791433PULMANO, DIEROSEL LARIDE                                10503
A7201400170000002791433OR PULMANO, JULIUS MARZAN                               20500
A0101407270000003254242MUPRA, ROSAME BARGAYO                                    0501
B0101407270162021675001TACTICAL PROMOTIONS, INC.                                1610
B0301400660194044417088*****                                                    1603
A0301400790000001776218CELI, MARIA ESTELA MARFORI                               0501
A0101412500000000739635CRUZ, ANNA MARIE CRUZ                                    0501
A1001400190231520766110MAYOR, CARMELITA ANGCAY                                  0501
A0101410980000000171913**********                                               0501
A0101410980275076915001LUNA, RUFINO YAP                                        10501
A0101410980275076915001OR LUNA, MA.DOLO                                        20500
B0101411820277048023001FORGEMS PLUS TECHNOLOGIES CORPORATION                    1605
A0101400570281506374001ALTAREJOS, FRANCISCO PEREZ                               0503
A2601400270000002257274FRANCISCO B. ACORDA                                      0501
A2601400270302574301001ALEX UY TY                                               0501
A6601400120000001065263AMANDE, BEATRIZ NALAZON                                  0501
B6601400120314040235001VILLEGAS APPLIANCE & HOME FURNISHING INC                 1603
A0101402350000001474324MARTINEZ, KENNETH BUHAT                                  0501
B0101405650322018681007LANDCO PACIFIC CORPORATION                               1601
B0101405650322018681008LANDCO PACIFIC CORPORATION                               1605
A0101405650322041571001EUGENE D. MANIQUIZ                                       0501
A0101405650322321476001DE GUZMAN, MYRNA SARMIENTO OR                           10501
A0101405650322321476001DE GUZMAN, GAZEL                                        20500
A0101402510000000049329UNICARE DENTAL, MEDICAL TRADING                         10501
A0101402510000000049329CORPORATION                                             20500
A0101402510341199103001CORAZON D. HUANG                                         0502
B0101402060351028684001EMSI MARKETING NETWORK                                   1602
A0101402060351211701004MA. DOLORES DANNUG                                       0503
A0201400760374041860001ONE URBAN CONSTRUCTION                                   0501
B0201400920000000007832JTL CABINET CONCEPTS                                     1605
A0201400920375609447001RAMIRO, MARIA ARCELI AVANZADO                            0502
A0201400890000000027892FORTRESS ELECTRICAL SUPPLY                               0502
A0101408790000002326023CHIONG, RONELL CANEDO                                    0502
A0101411660000002309560RIVERA, VENUS TUMPALAN                                   0501
B0101411660384047607001QUEEN'S LAIR HAIR CARE AND                              11605
B0101411660384047607001BEAUTY SALON                                            21600
A0101402770391472751004JERVIE RACELIS DE GUZMAN                                 0502
B0101402770000001571604MC GENTECH BUILDERS CORP.                                1601
B0101408400000003120521GILIGAN'S ISLAND BAGUIO, INC.                            1605
B0101408400000003120554GILIGAN'S ISLAND BAGUIO, INC.                            1605
A0101408400000004490175LUCIDO, VLENROY SANTOS                                   0502
A0101409180000004919462MARIA CECILIA FERNANDEZ                                  0501
B0101409210000000031192LSC CORPORATION                                          1602
B0101403030441027936001**********                                               1602
B0101403030441036245001**********                                               1601
A0101406330472216347002MARION B. SINGH OR EDWIN G. LEE                          0501
A0101406330472296884001JAYLEE TRADING                                           0502
A0101406330472298552001EDWINA M. PADERNAL                                       0501
A0101406330472528023001RONALDO L. GERON                                         0502
A0101410140000001074931LEYSON, JEFFERSON D. OR LEYSON,                         10501
A0101410140000001074931MARRY SHYNE C.                                          20500
A0101412760000002262831CALICA, FERNANDO BESMONTE                                0501
A0101412760000000528205SARAH JAYNE A. SANCHEZ                                   0501
B0501400170481398688001**********                                               1601
A3801400170000006083883CZAR OPENA CABALLERO                                     0501
B1901400160491012827001PORT CITY CREDIT AND LOANS CORP.                         1605
A1901400160491346311001NIDA M LACSAMANA                                         0502
B0101405940000000886706JADE ENTERTAINMENT AND GAMING                           11603
B0101405940000000886706TECNOLOGIES INC.                                        21600
A0101412050000000890740********                                                 0501
A0101403450000001769811*******                                                  0501
B0101403450521007922001**********                                               1604
A0101403450521240844001**********                                               0502
B0101404000000000461038NEWINGTON BUILDERS, INC.                                 1603
B2201400250561000684001CAMILING RURAL BANK, INC.                                1601
B2201400250561428755001*****                                                    1602
A0101407720602464099001GOMEZ, MARIE RHIAMAR SAULER                              0501
A0101404260611043982001J.G BALDEO RTW & BAGS STORE                              0501
A0101404260611478374078SUPERAL, CORAZON                                         0502
A0101413440000002846262SARET, MARIA JENNIFER JADE M.                            0505
A0101413440000002339528MACATLANG JR., RODRIGO C.                                0502
B0101410300000000026428INTERIOR ASIA CONSTRUCTION SUPPLIES &                   11602
B0101410300000000026428SERVICES CORPORA                                        21600
A1301400210000003104974SAN JUAN, BRYAN MARC ALVARAN                             0502
A1301400210682470535001JINKY C. GATCHALIAN OR                                  10501
A1301400210682470535001GILBERT T. GATCH                                        20500
A1301400210682478374051IRMA S CRUZ                                              0501
B1301400340683398713001***********                                              1601
B0101408240711008262001TRANSOIL CORPORATION                                     1610
B0101408240711044039001RMR 888 ENTERPRISE CO.                                   1601
A0101408240000003955460TORRES, JULIUS CHARLES                                  10501
A0101408240000003955460DE CASTRO                                               20500
A2801400100712251595001VALDEZ, CORAZON REYES                                    0502
B4101400550815042993001BAGTEC DRUGSTORE & GENERAL MERCHANDISE                   1601
A0101404840851046725021HELEN GELIZON                                            0503
A0101406750000000358229INGUSAN, L DBU L.A. PETRON SERV                          0501
A0101406750852086494001ILAGAN, RAFAEL ALELIS                                    0501
B0101417130001101010077**********                                               2002
B0701400260495821100608**********                                               2003