B0101402060351033204001ROYAL DAVAO DEVELOPMENT CORPORATION                      1602
B0101412760000002068071WOODEN KEGS BAR & KITCHEN INC.                           1603
A0101400150061430140001MIMI C. QUA                                              0501
B0101412630000013000074WINDSOR FOOD PARK AND PROPERTIES IN                      1601
A0101408400394417530001BRANA, NELSON MASILANG                                   0502
A4101400260000011418261BABAR, JENELYN CABILES                                   0501
B0101406750000000090931GERODA PRESTIGE SOLUTIONS INC.                           1601
B0101400860011388241003**********                                               1603
A0101400860011425868001**********                                               0502
B0101400860011629199001************                                             1601
A0101400860011737873001**********                                               0502
B0101401250021185567001STA. CLARA PARISH SCHOOL                                 1605
A0101401250021219561002DELOS REYES, SHIRLEY G. OR                              10505
A0101401250021219561002DELOS REYES, NICASIO E.                                 20500
A0101401250021349772001********                                                 0502
A0101411370000007861810CHIONG, E DBU MC JEAN PROPERTY                          10505
A0101411370000007861810MANAGEMENT SERVICES                                     20500
A0101400150000006759831AJAY PHLIP                                               0502
A0101400150000006551066ROSACENA, LEAH PONTILAR                                  0501
B0101400150061047074001TRAININGPHYSICIANS IN ER INCORPORATED                    1601
A0101400150000000806677EMELITA G. PURISIMA                                      0501
A0101400150061338964091AGUILAR, VIVIAN VALDEZ                                   0501
A0101400150061398851002ANDAYA, ETHYL EROLIN                                     0501
A0101400150061541075001SISON, TIMOTHY GOCHIOCO                                  0501
A0101400600071234544002CHOW, ALICIA CHUA                                        0502
A0101400600071515972001********                                                 0501
A0101400600071534842002****************                                         0503
A0101405810000001021172PUA, C DBU MCK SCHOOL & OFFICE                          10503
A0101405810000001021172SUPPLIES                                                20500
A0101405810072352521001GO, SHEENA VERON                                         0501
B0101405810072573152001COMEBUY ENTERPRISES CORP.                                1601
A0101405810072583797002DEE, JASPER DELICA                                       0502
B0601400100081251805005MUNOZ,ANTONIO JUICO & MUNOZ JR,ANTONIO &                11602
B0601400100081251805005MALINIT,JENNIFER                                        21600
B0601400100081296256001CHRISTOPHER OR LOYA MALLARI FAO CHRISSAN                11603
B0601400100081296256001AUTO SUPPLY                                             21600
A0601400100081403474003TAYAG, DENISE OCAMPO                                     0502
B0101413730000006042433*                                                        1602
A0101410850109053560002HERNANDEZ, JUNE JT DBU JUNE AND                         10502
A0101410850109053560002YVETTE TRUCKING                                         20500
A0101410850109055892001CABANTING, MARISSA B. DBU                               10502
A0101410850109055892001ERLISH HAULING SERVICES                                 20500
B0101410850000001229852SWM SHIPMANAGEMENT INC.                                  1610
B0101410850000007294371WINDWEST HOLDINGS, INC.                                  1601
A0101410560000002316503GARCIA, CLARO MARCELO                                    0501
A0101410560000010318333ARIANE JOY M UBANE                                       0502
B0101410560000000020322JESUS REIGNS CHRISTIAN ACADEMY (JRCA)                   11602
B0101410560000000020322FOUNDATION, INC.                                        21600
A0101400730000013545934BONDOY, ALMA CUADRA                                      0501
A0101400730000013545934ALMA C. BONDOY                                           0501
A0101400730000013543761BUERA, ROY ORBANA                                        0501
A0101400730000013543761ROY O. BUERA                                             0501
A0101400730000013543932TAROY, ELISA SESCAR                                      0501
A0101400730000013543932ELISA S. TAROY                                           0501
A0101400730111046434120MICHAEL CHIONG OR                                       10501
A0101400730111046434120MARY JEAN CHIONG                                        20500
A0101400730111203514019MELBA ALMARIO                                            0501
A0101400730111644159001CASUNCAD, CATHERINE GRAGASIN                             0501
A0101406040112207941001DOMINGUEZ, APOLONIO II VILORIA                           0501
B0101401960121339004001**********                                               1601
A0101401960000001844500**********                                               0503
A0101412630000007158194BAINA, DEOGRACIAS AGACAN                                 0501
A0101401830000001139997VIOLAGO, MA. MERCEDES MENDOZA                            0501
A0101401830000001140087ESPIRITU, MARIA CARMEN CELUCIA                           0501
A7201400170000003773222ARANDING, ARNEIL BALBIN                                  0502
A7201400170000011201224AGUISANDA, CATHERINE LAGERA                              0501
A0101400440161323001001ROSALINDA L. LI                                          0501
A0101407270000002334732REDUCINDO, SONIA VASWANI                                 0501
B0101407270162033927001PEARL S. BUCK FOUNDATION- PHILIPPIN                      1601
A0101401090171338371001CULLING, LOWELL PERALTA                                  0503
A0301400530193047254189TAGUM TRIO LUMBER CORP.                                  0505
A0301400530193455730088BANO, LILIAN CORPUZ                                      0502
B0301400790000000435647PANABO MULTI-PURPOSE COOPERATIVE                         1605
A0101413020000002292822MENDOZA II, ISIDORO P. OR                               10501
A0101413020000002292822MENDOZA, MA. GWENDOLYN C.                               20500
B0101410720653560019001FLORES, DENNIS LIM                                       1601
A0101412500000004597673PEREGRIN, EDGAR AQUINO                                   0501
A0101413600000002122270JUANCHO D. CAALIM                                        0502
A0101413600000005794603JUANCHO D. CAALIM                                        0502
B0101413600000005524910BUCKLEUP, INC.                                           1602
B0101413600215821100608**********                                               2003
A3101400160000002355842RAMIREZ, SHEILA ESPIRITU                                 0501
B3101400160221028210002GOLDEN DRAGON MOTOR SALES CORP.                          1601
A3101400160000000006566RENATO B GALICIA DBU MANHATTAN                          10501
A3101400160000000006566METAL TRADING                                           20500
A3101400740224671978001BALDONADO, ROWENA LEGASPI                                0501
A3101400870000013540255BORGONA, CECILIA AGUILAR                                 0501
A1001400190231520766129SANCHEZ, CATHLYN E.                                      0501
A1001400480000003357668CARREON, RAMIL GORRES                                    0501
A1001400480000010131732ALERTA, ANALOU BELTRAN                                   0502
B1001400480000003028920BRANA, JIMMY LACUARTA DBU JG MOVERS                      1605
A1301400470000000366450GABRIEL LEONARDO CALLING                                 0502
A1301400760000000050466GIL P. MENDOZA II                                        0502
A1301400760000005379520LUIS V. CHUA                                             0502
A1901400290261042311009DR. CORNELIO CUAYZON ONG II                              0501
A1901400290261244456001LEO YAP ONG OR                                          10505
A1901400290261244456001MEI MEI YULO ONG                                        20500
A1901400290261415870001BUENAVENTURA ROBLES INFANTE                              0502
A1901400290261493025041DRA REEZA Q MARQUEZ                                      0502
A1901400290261567865001ALEX IAN SISON DE LA CRUZ                                0501
A0101401670000000237621JACINTO, GENEROSA DEL ROSARIO                            0501
A0101401670000002341691TULIAO, PATRICK HEBRON OR                               10501
A0101401670000002341691TULIAO, CHRISTINE JOAN V.                               20500
A0101401670000002341691TULIAO, PATRICK HEBRON OR                               10501
A0101401670000002341691TULIAO, CHRISTINE JOAN V.                               20500
B0101401670271026611001MERGE MARKETING STRATEGISTS INC.                         1602
B0101401670271034948001REALTY INVESTMENTS INC.                                  1605
B0101401670000004588547ANG, SANDY TAN DBU REALEX LESSOR                         1601
A0101401670271186351003BONITA L. DABU OR                                       10503
A0101401670271186351003LUCILA S. CLEMENTE                                      20500
B0101401670271345868001REGINA ANGELA H. CASTILLO                                1601
A0101406460000008890417********                                                 0501
A0101406460000000021712***********                                              0501
A0101406460272796136001TIU, EDWIN SIA                                           0501
B0101406620273035642001MICROSTATION COMPUTER CENTER, INC.                       1602
A0101406620273280285001PELAGIO / ROSARIO / REBECCA /                           10501
A0101406620273280285001RAFAEL / ROWENA                                         20500
B0101410980000013551474GLOBAL MD HEALTHCARE SYSTEMS INC.                        1601
A0101411820000002328452GENISES C. SOLOMON                                       0507
A0101411820000004981728JAIME MARIANO GUILLERMO JR.                              0502
A0101412470000002295781ANG, EVELYN DY PAC                                       0504
A0101400570000012266261ORDANZA, MARY JOY PINEDA                                 0502
A2601400270000002312232EDGAR I. GAMMAD OR MARICAR T.                           10501
A2601400270000002312232GAMMAD                                                  20500
B2601400270302043341001TOP SPEED MARKETING                                      1601
A0801400160311413609001LIM, JOSEPH PO                                           0505
B2001400290000001973782***************                                          1601
A3401400280318086148002FLORENTINO, MIRALUNA LOYOLA                              0504
A3401400280318740628001MALAPAJO, RAYMOND DANGDANG                               0503
A0101402350000000019150*************                                            0501
A0101402350000000019149*************                                            0501
A0101402350321323061001ANGELA A. FERRER                                         0501
A0101402510341068838001*********                                                0503
A0101402510000011695073**********                                               0502
B0101402060351046049001SENCOLINK TECHNOLOGIES INC.                              1601
A0101402060351217444024ARZEL FRIM LAPUS                                         0501
A0101409050000008087521ORLINA, HONORIO GAHOL                                    0501
A0201400760000011472085***********                                              0505
B0101402930381008829002AXEIA DEVELOPMENT CORP.                                  1615
A0101402930381478374010LEONILA Y. DAIZ                                          0504
A0101402930381757923001HAHN, DUCK WOO                                           0501
A0101408370382470581001EIZMENDI, JOSE RAMON EUBINAG                             0501
A0101408370382498940001DR. MARIA VANESSA H. DE VILLA                            0501
A0101408790000000599920LOPEZ, NELIA SANTOS                                      0501
B0101411660000000032162OMNICONTENT MANAGEMENT, INC.                             1602
B0101411660000002808119ORANGE POOL, INC.                                        1601
A0101402770000009722909MAPA, GENEVAIVE BALENDRES                                0503
A0101402770391404096001PANLILIO, MYLENE BAGON                                   0503
A0101402770391404096002PANLILIO, MYLENE BAGON                                   0502
A0101408400394550481001FELICIANO, LEONARDO LAPUZ                                0501
A0101409180000004409905HERNANDEZ, HAZEL GRACE VALIN                             0502
A0101409210000004736016DOLDE, DAVID                                             0501
A0101409210000008922287AREJOLA, NASTASSJA FRANCESCA                            10502
A0101409210000008922287BIANCA DELA CRUZ                                        20500
A0101412210000012652681TOLENTINO, PATRICK JOSEPH L.                             0501
A0101412210000012652670TANGO, KAREN LEE DELA ROSA                               0501
B1201400150421025756001FIRST PINESIDE PROPERTY CORPORATION                      1601
A1201400150421039385001JL'S CLEAN UP JANITORIAL &                              10501
A1201400150421039385001MANPOWER SERVICE                                        20500
A1201400150421253624001GUANZON, ALICE D. OR                                    10501
A1201400150421253624001GUANZON, DELFINO                                        20500
A1201400150421257466001VENANCIO BESAVILLA JR. AND/OR                           10502
A1201400150421257466001MIMOSA BESAVILLA                                        20500
B0101406330000000432580LIGHTSCAPE, INC.                                         1605
B0101406330000000432671WHIFF EMISSION TESTING CENTER, INC.                      1602
A0101412760000002306229DE GUZMAN, DUSTIN EWALD DANTES                           0501
B0501400170481029507001ARCINUE DEVELOPMENT CORPORATION                          1601
A1901400160491403244001OFELIA T LANDICHO OR                                    10501
A1901400160491403244001ROMMEL Y LANDICHO                                       20500
A1601400170000000424440BENJAMIN O. PO                                           0501
B0101407430000001213181NORVIC DRUGS CORPORATION                                 1602
B0101407430503069055001ORAGON PORT SERVICES INC.                                1602
A0101407430503388139001ALLAN B. PEREZ                                           0505
A0101407430000002298315EXCEL A. GRESOS                                          0501
B0101407430503728966001TURPS AND TUCKER INTERNATIONAL CORP                      1601
B0101403580511005188001SEARCHERS & STAFFERS CORP.                               1602
B0101403580511015363080MEC - TREETOP VILLAS                                     1601
A0101403580511153476005THERESITA S. TIU                                         0505
A0101403580511153476006THERESITA S. TIU                                         0505
A0101403580511153476009THERESITA S. TIU                                         0505
B0101403580511524823001SL TEMPS INC.                                            1602
A0101408530000005029203SY, MICHAEL                                              0501
A0101408530516615903041SANTIAGO, MARCIANO                                       0501
B0101411400000000230264EVERVOLT ENTERPRISES CO., LTD                            1602
A0101411790518055764153GALANG, JOBERT ARDALES                                   0501
B0101403450521011666001**********                                               1620
B0101403450521040617001FSL & ASSOCIATES CO.                                     1601
A0101403450521239350001**********                                               0506
A0101403450521240366002**********                                               0501
A2201400250561028844002CHRISTIAN HOME FURNISHING                                0505
A0101404130601490093001CUEVAS, REYNALDO MAKILING                               10505
A0101404130601490093001OR CUEVAS, BERNA                                        20500
A0101404130601576988001JIMENEZ, JAYPEE VINOYA                                   0502
B0101407720602016380001PHIL ASSO OF CHRISTIAN COUNSELORS INC.                   1601
B0101407720000000885678KALASANGI HOLDINGS CORPORATION                           1601
A0101407720602343284001MARY ANGELINE RECTO OR                                  10501
A0101407720602343284001RODRIGO RECTO JR                                        20500
A0101407720602377406002LAURA SAN LUIS ETROIT OR                                10502
A0101407720602377406002MA. CARMELA VILLEGAS                                    20500
A0101407720602396331001RAMON I. DIAZ JR. OR                                    10506
A0101407720602396331001CYNTHIA M. DIAZ                                         20500
A0101407720602398460001ESPIRITU-PICAR, ROSALINA BIBIES                          0502
A0101407720602552407001PASCUAL, JOSELITO CAPITO                                 0501
A0101407720602601483001AGUSTIN, FLOR DE JASMIN MANUEL                           0501
A0101407720602700944001ABELA, NADINE GUYTINGCO OR                              10502
A0101407720602700944001ABELA JR., BENJAMIN                                     20500
A0101407720602785772001ESCUREL, CAROLINA NAGUIT                                 0503
A0101412180000007360325DAZA, JOSEPHINE DIONISIO                                 0502
B0101412180000001293038WESTMONT INDUSTRIAL SALES INC.                           1603
A0101412180603092406001ARCILLA, ROMINA MANLANGIT                                0502
B0101409890649053745002AVESCO MARKETING CORPORATION                             1601
A0101409890000006812980S.V.U. FEEDMILL                                          0502
A0101407690652037480002U.L. SOMIDO BUILDERS &                                  10501
A0101407690652037480002INDUSTRIAL SALES                                        20500
A0101413570000010111772MOLENO, ELVIRA GUZMAN                                    0503
A0101413570000004353968BONAYON, GIOVANNI BILONO                                 0501
A0101413570000005867412JACABAN, ANALYN VILLANUEVA DBU                           0502
A0101413990000004838068BOTES, ESTRELLA BREDES                                   0501
A0101406590000013528213MENDOZA, VERONICA ZALAMEDA                               0501
B1301400210682016750001JFL AGRI VENTURE SUPPLIES                                1604
B1301400210000008173853SANTOS, AURENZ MANALON DBU AURENZ G                      1601
A1301400210682245541001ALICE F. CASTILLO                                        0502
A1301400210682364925001PRESCILLA P. SANTIAGO OR                                10505
A1301400210682364925001  CELESTINO SANT                                        20500
A1301400210682635116001DEVORAH M SOTO OR                                       10501
A1301400210682635116001MIGUEL CARLOS B                                         20500
A1701400230000011517310LABAO, MARK NEIL TRINIDAD                                0501
B0101408240711023931001CHRIST'S COMMISSION FOUNDATION, INC.                     1610
B0101408240711032019001ANNIE'S LAND, INC.                                       1601
A0101408240711643338001ARCAYA, MICHELLE GRASPARIL                               0501
A0101408240711799424001MADARA, JOSE MARIA NINO PARAS                            0501
B4101400550000000900036BACOOR DOCTORS MEDICAL CENTER INC.                       1603
A0101406750000009471683**********                                               0501
A0101406750852184574001DELA ROSA, DANILO V. OR                                 10501
A0101406750852184574001DELA ROSA, VILMA                                        20500
A0101406750852478374117IDA MACARO                                               0501
A0101405070000012374919DAGANG, EMELITA DIOCADEZ                                 0501
A0101413860000007558350OCAMPO, CATTLEYA G OR                                   10501
A0101413860000007558350OCAMPO, ERLINDA G.                                      20500
A0601400230000007954183SIACO, JAMES NGAN                                        0503
