B0301400110191821100608**********                                               2030
B0101408950396821100608**********                                               2010
B0101412920000000276711KALAKAL FOOD CONCEPT INC.                                1601
B0101413860862821200608**********                                               2001
B3101401130920352000022**********                                               2001
B0101405810072235877001**********                                               1602
A0101410850000006560034SEMANA, JUDE                                            10502
A0101410850000006560034DBU SEMANA TRUCKING                                     20500
A1101400120000001547520TAN, MELVIN NATHANIEL ANDRADE                            0502
A1101400120000003595922FABILLO, NERISSA OLIVAR                                  0501
A1101400120000003981248ABUNALES SR., MARLO PAANO DBU                           10505
A1101400120000003981248ML ABUNALES ENTERPRISES                                 20500
A1101400120000000652380CAYUBIT JR., SERAFIN ASERON                              0502
A0101402930000003179582GERNALIN, E DBU UNIMAN CONSTRUC                          0502
B0101403320000001647263MASTERCLASS MANUFACTURING CORPORATION                    1606
A1601400170000001069023MARIA TERESA Q. RANOLA                                   0510
B0101406750000000017609EXTANT PR SYSTEMS, INC.                                  1601
A0101406750000001491710TAN, JOEMI MASUKO                                        0501
A0101406750852413660001ALCALA, ANGELO LUSOC                                     0505
B0101413860862051522002RENAISSANCE TRAINING CENTER, INC.                        1601
B0101400860011421932001CAI, JIANJUN                                             1601
A0101400860011570367001**********                                               0503
A0101401250021478374001BAGTAS, JOSEPHINE P.                                     0501
A0101400150000006239272AQUINO, NINO ESCARCHA                                    0502
B0101400150000000000124WORLD AVIATION CORPORATION                               1603
B0101400150061032076002NEXTRANS INCORPORATED                                    1605
B0101400150000000052702VISMAY INTERNATIONAL CORP. DBU GADG                      1602
A0101400150061073880018TE, ADRIAN GAMUS                                         0501
A0101400150061337098169MA. GISELLE A. LICERALDE                                 0501
A0101400150061337098183ROSITA LIM                                               0501
A0101400150061564501001RESURRECCION, ROSETTE GARCIA                             0501
A0101400150061739693001***********                                              0501
B0101400600071328360002**********                                               1601
B0101406040000000096633*********                                                1601
A0101406040112209765001**********                                               0502
A0101406040112428212001MARVIN WILLIAM TRINIDAD OR                              10501
A0101406040112428212001MARIA CERRIZA TRINIDAD                                  20500
A0101401960000000211014WEE, JOHANNE THOMSON TAN                                 0501
A0101401960000000211014*************                                            0501
B0101401830141029955001SHELL EMPLOYEES MULTI-PURPOSE COOP. -                   11605
B0101401830141029955001STORE                                                   21600
A0101401830141206435001EMMA G. CHUA                                             0503
A5001400170000002023596JEFF CARASICAS GARDOSE                                   0505
A0101412920000000042020PEDRO, FERDINAND CASTANEDA                               0501
A0101400440161525001112JELLIE ANN D. LOMAHAN                                    0501
B0101401090171054285001EBD REAL ESTATE LESSOR                                   1605
A0101401090171628075001PETER S. LIM                                             0503
B0301400530193037467168TAGUM SG MARKETING CO.                                   1603
A0301400660000000048359DIZON, ROMULO ENRIQUE MANGA                              0501
A0301400660194507916001*****                                                    0501
A0301400660194730766001MONTENEGRO, VENUS ALCOMENDRAS                            0501
A0101401380000000682622********                                                 0501
A0101410720000006128827BLANCO JR., R DBU MYB ROYAL SPA                          0501
A0101412500000001146758MARIANO, RICHEL PELIGRO                                  0502
A3101400450000001104174ANGSICO, VOUGHN IVAN ALCANTARA                           0501
A3101400450000005355471CIGARAL, PEDRITO EXCONDE                                 0502
A1001400190000002170736MARABE, RIKKA LA VINA AND                               10503
A1001400190000002170736LA VINA, IRISH P                                        20500
A1001400190231520766094SALAGUSTE, FELIPE B.                                     0501
B1001400480000004097234ONAHON, DANIEL BARTH V DBU GREAT FIRST                  11601
B1001400480000004097234TRAVEL AND TOURS                                        21600
B1901400290261013980001VIC IMPERIAL APPLIANCE CORP.                             1602
B1901400290261034107001FIESTA WORLD MALL CORPORATION                            1610
A1901400290261193220001JOSEPHINE YU TAN                                         0501
A0101406620000003661421ROBLEZA, RICHARD DALE                                    0502
B0101406620273031145001KOHL INDUSTRIES CORPORATION                              1602
B0101411110000000604891NICHE PLAY INTEGRATED MEDIA INC.                         1603
A0501400200000005751646JACINTO, JOCELYN ORPILLA                                 0502
A2601400270000000561459PEDRO A. PAUAL                                           0502
A2601400270000000561671EDGAR D. ZARA                                            0501
B0801400160000005656937KIKAY KOMERCIAL CORPORATION                              1605
A1101400120000000652824NIPAL, MARIA TERESA RIVERA                               0501
A6601400120314593270001DIAZ, REO DBU RUDMAR TRADING JT                          0505
A6601400120314755333001NAVAROZA, BRYAN VERANO OR NAVAR                         10503
A6601400120314755333001OZA, MARICEL DONCILLO                                   20500
A0101402510000007968976CORPUZ, LAURA AQUINO                                     0501
B0101402510341018003001COLEGIO MEDICO-FARMACEUTICO                             11606
B0101402510341018003001DE FILIPINAS INC                                        21600
B0101402510341022935002CHATEAU ROYALE SPORTS & COUNTRY                         11615
B0101402510341022935002CLUB                                                    21600
A0101402510341733749002ALCALA, GINA CALA-OR                                     0505
A0101402060351211701005DANNUG, MARIA DOLORES CARLOS                             0503
A0101409050000002652957EQUIZA, OMAR A.                                          0501
A0201400760374449882001LEYCO, CATHERINE MAILIG                                  0501
A0201400920000002250033LIMAS, ADELAIDA CATUBAY                                  0501
A0201400890000002028160*****************                                        0501
A0201401020377046499001TEH, MARIA ELENA BLANCO DBU                             10503
A0201401020377046499001E.T. PRINTSHOPPE                                        20500
A0101408370382327238001DR. MA. CORAZON A. CASTILLO                              0502
A01014083703827288270010GNES B. GALURA-FAMERO                                   0502
A0101408370382728827001AGNES B. GALURA-FAMERO                                   0502
A0101411660000002309560RIVERA, VENUS TUMPALAN                                   0501
A0101402770000001358458CRUZ, ROWELL DELDIO                                      0501
A0101408950396569875001BERNARDO, MARIA CRISTINA CORNEL                          0505
A0101409180397338232001BALO, JENNIFER JARDIOLIN                                 0504
A0301400820000002692055SALAJOG, ALEXANDER DBU AJ                               10501
A0301400820000002692055SALAJOG METAL SCRAP                                     20500
A1201400150421252707001ARNALDO OR ROWENA AROMIN                                 0503
A1201400150421257377001SANAUNA OR MANNY PUNDOGAR                                0506
A0101403030441371302001**********                                               0502
A0101412890000005944910FLORES, MARIA  AISSA ONG                                 0503
A0101412890000005944910*****************                                        0501
A0101412890000005945031FLORES, MARIA  AISSA ONG                                 0501
A0101412890000005945031************                                             0501
A0101412890000005945071CRISTI, RUSSEL MENDOZA                                   0501
A0101412890000004345099CUENTO, C DBU CENTERLINE                                10501
A0101412890000004345099ARCHITECTURAL DESIGN                                    20500
A0101403320000004830922MAMARIL, ANNA MELISSA SANTOS                             0501
A0101410140475339949001SANTOS, ADORACION SANCHEZ OR                            10505
A0101410140475339949001SANTOS, MYRNA SA                                        20500
A0501400170481043466001RUSKIN MARKETING                                         0505
A0501400170481253600001NARDING C. CAMERO OR                                    10502
A0501400170481253600001JULIE C. CAMERO                                         20500
A1901400320000005492582LACSAMANA, JOEBERT M.   OR                              10501
A1901400320000005492582LACSAMANA, TIFFANY N.                                   20500
A1901400160491062780001CAFE DE ALPS                                             0501
A1901400160491346311001NIDA M LACSAMANA                                         0502
A1901400160491488114001RON VINCENT G CAGUIMBAL                                  0503
A1401400110000003025258REVILLA, RONUALDO LUSTERIO                               0501
A0101403580000000383755JIMENEZ, DENNISE SALVADOR                                0501
B0101403580511015363072MEC - EMD ANGONO                                         1610
B0101405940512041188001PREMIUM WINE EXCHANGE INC.                               1601
B0101408110000003281616BITMARKET.PH INC.                                        1602
A0101408530000002260117LUCERO, FELOMINO GONZALES                                0501
A0101408530000007304452************************                                 0502
A0101412050000000323588HARVEY, MARIA ROSARIO NOBLEZA                            0501
B0101403450521068888001NATION REALTY INC.                                       1610
A0101403450521213501001KHO, DAVIDSON ONG                                        0501
A0101403450521238269001**********                                               0505
A0101403610531712013001LUMPAS, MARILYN DEL ROSARIO                              0502
B0101404000551035759001SYMPHONY AND COLORS FLOWER SHOP - P                      1604
B2201400250000004404960RJ MANALANG CAR CARE CENTER                              1602
A2201400250561428755002*******                                                  0502
A0101407720602421754002LIM, CHRISTINE EBARVIA OR                               10502
A0101407720602421754002LIM, LEONCIO N.                                         20500
B0101404260611043675001CIS BAYAD CENTER, INC.                                   1603
A0101404260000000156892RENDOQUE, CARMELITA                                     10502
A0101404260000000156892DBU NATURES BOUN                                        20500
A0101404260000007498233SUNGA, SUSAN MARCELO                                     0505
A0101404260611150932002DELIA D. UY                                              0501
A0101404260611335308002ALIMBOYONG, JOSEPHINE MAHINAY                            0503
A0101409920000000022099DELA VEGA, ANTONIO S. OR                                10501
A0101409920000000022099DELA VEGA, IMELDA                                       20500
A0101413440000002339573CABRERA, LEOTHENY ALBANO                                 0502
B0101413440655821100608**********                                               2005
A0101413990000001947128MARS STONE SUPPLY                                        0502
B0101406590662043139001HAVEN OF LEARNING TUTORIAL AND THERAPY                  11601
B0101406590662043139001CENTER CO.                                              21600
B1301400340683041966002TPG MANCOM SERVICE COOPERATIVE                           1603
A1701400230000001786810NORTHPOINT COMPUTER TECHNOLOGY                           0505
A0101408240000000347299BENDITA, MICHELLE DELOS SANTOS                          10501
A0101408240000000347299AND AQUINO, MARILEN                                     20500
B0101408240711029638001KLAUS MULLER & ASSOCIATES, INC.                          1605
A0101408240711643338001ARCAYA, MICHELLE GRASPARIL                               0501
A2801400230000002312481IGNACIO, NORA DACAYO                                     0501
A4101400420814366489001DE VILLA, FELISA DE MESA                                 0503
A4101400550815047552003DR. GASPAR MONTENEGRO                                    0501
A4101400550000004846993REFUERZO,A DBU TJR TRAVEL AND T                          0502
A0101405070000001455892ROY A. MIRANDA OR JULIE ANNE                            10501
A0101405070000001455892MIRANDA                                                 20500
A0601400230000001687221GUEVARRA, SHARON AUSTRIA                                 0501
A0601400230000000452840GOZUN, R-JAY RAMOS OR                                   10510
A0601400230000000452840GOZUN, MYRNA RAM                                        20500
