A1301400760000000050693MARLON P. MALLARI                                        0501
A0101401380000000106481LUNA, ANTONIA CAMIT                                      0502
A0101413730000000144578**********                                               0501
A0101401670000000237676MAGTOTO, CHRISTIAN ALLAN L.                              0501
A2401400180000000428153BAYABOS, JULIETA DINO                                    0501
A0101411820000000477112TUBALLA, MELISSA BLAWIS                                  0501
A0101405650000000773068DUMIP IG, HELEN TIMARIO                                  0501
A0101406620000000962330DIZON, MARIDEL TRINIDAD                                  0501
A0101409050000000999528TRIA, JAYA PATRICIA MAREE DE GU                          0503
A0101405490000001092557******                                                   0502
A0101403320000001803350REYES, ALVIN JOHN MENDOZA                                0501
A0101408530000001885607CALALAY, ADAM ROSALES                                    0501
A0101406750000002040168CENA, IMELDA NIMFA BAYBAY                                0501
A0101406590000002277494DIZON, KAREN TRACY CADORNA                               0502
A1401400110000003063425SANTOS, WILFREDO GASPAR                                  0502
A1401400110000003063436FRANCISCO, CHRISTINE MAPLE                               0502
A0101403580000003311684WILLY C. TAN OR ANABEL N. TAN                            0502
A0101408240000003955259MORALES JR., PAQUITO JIMENEZ                             0501
A0101412340000004360092NIEL DAVID C. MARTINEZ                                   0501
A0101412340000004360581MARIVEL B. DEODORES                                      0501
A0101412630000004609643ARCEO, JESUSA ACULLADOR                                  0501
A0101403580000004614022BANTILING, ELENITA PUNZALAN                              0501
A0101400150000004614157SALDUA, JEED OWEN BATAYOLA                               0501
A0101400860011386650002**********                                               0502
A0101400150061236944048JENNIFER TRINITY S. MAYNIGO                              0501
A0101401960121614040001SY, EDERICK MELITON TONG                                 0501
A0101401830141409771001ALRIC P. BOBO                                            0502
A0101400440161520766084GODELINA C. AQUINO                                       0501
A0101407270162203204001OGIE P. DIAZ                                             0503
A0101407270162560664001LOURDES HYACINTH P. MARTINEZ                             0501
A0101401090171278999001JANINE MARGARITA R. DIZON                                0501
A0301400530193478374008CHYRL ANN SENANGOTE                                      0502
A0101407140213483164001TAN, WILLIAM LAO                                         0502
A3101400160221506317001RACHELLE B. ALVIAR                                       0503
A1001400190231057386001RADYO DE ORO CORPORATION                                 0501
A1001400190231295205002ANG, SIOK BIN                                            0501
A1001400190231520766036ONIPA, JANE ROSE P                                       0502
A1001400350233478374026ANNABEL ESTOMO                                           0501
A1001400350233539705001SIMBAJON, ELENA P.                                       0502
A1901400290261298552118CONCEPCION GONZALES ESTIGOY                              0502
A1901400290261567865001ALEX IAN SISON DE LA CRUZ                                0501
A0501400200292502440001ONTALAN III, FRANCISCO KUAN                              0503
A2001400290315685595001TAGLE, FE MARIE DICEN                                    0502
A3401400280318478374006LOVERAS, EMCY DEL ROSARIO                                0505
A0101402510341420133001BONGCAWIL, GHADA ZACARIAS                                0501
A0101402510341487199001NESTOR B. ESTABILLO                                      0502
A0101408370382363874001ANAFE O. GLORIA                                          0510
A0101408790383633624001JIM STENIEL TAN GAWSON                                   0502
A0101405490392372930001ELIZABETH P. CARRASCAL                                   0502
A1401400110492620230001DELOS SANTOS, ENRICO PEREZ                               0503
A0101403580511005290001ETHEL T. YUSON                                           0501
A0101403580511156550004CESAR A. AVERIA                                          0506
A0101403580511418090001ANGEL T. REDOBLE                                         0502
A0101403580511420184003MARIA CAROLINA S. MACASAET                               0515
A0101403580511499197001ALEXANDER ROQUE                                          0502
A0101403580511683480001SANTIAGO, LEAH ABIGAIL PINEDA                            0501
A0101404260611478374121FLORDELIZA B. HUVALLA                                    0501
A0101404260611491692001EDGARDO M BALANI                                         0501
A0101404260611501323001PERALTA, DIOSDADO NAVARRO                                0503
A0101404420631160964002ROWENA TE                                                0501
A0101404680651087886001PLAZA, ELEANOR ESTONILO                                  0501
A0101404680651548102001DANILO C. CALPITO                                        0502
A1701400230693478374061BAUTISTA, CRESENCIO RISCAL                               0501
A0101408240711609524002REYES, MARIA ELMA MONTELOYOLA                            0501
A4101400420814478374041SABANDO, JULIUS C.                                       0501
A0101404840851046725013MARY JANE A. DE GUIA                                     0501
A0101405070861707742001ELMER G. CHAN                                            0501
A0101405490000000444477MARIA TERESINA G. MESINA OR                             10504
A0101405940000000505822DINGLASAN, JUAN JOSE ANTONIO                            10502
A1601400170000001069158HULAR, MILAGROSA HAPAL DBU                              10501
A3401400280000001723495JENNIFER G ONG OR JOHN OWEN ONG                         10501
A0901400220000001805130VERAR JR., MANUEL LOSBANES DBU                          10502
A0101404130000001831670JESUS D. CHUAUNSU OR JANE INVA                          10501
A0101404130000001831670JESUS D. CHUAUNSU OR JANE INVA                          10501
A1901400290261432900001JULIUS PIO AFRICA RANA OR                               10501
A0101401670271186305002ROBERTO D. CRISOLOGO OR                                 10503
A0101408370382408300001DR. RODRIGO C. SANTOS OR                                10501
A0101408370382408402001DR. RAUL V. DESTURA OR                                  10503
A0101405490392173745001LUCIO P. DEL MUNDO OR                                   10503
A0101407720602283353001ERWIN HERNANDEZ OR                                      10501
A0101407720602398260001JURILLA, JON EDWARD OR                                  10503
A0101404680651403109001FORTUNATA B. CONDE OR                                   10502
A4101400420814768923001VIRTUZ, SALVADOR ABAQUITA OR                            10501
A0101405490000000444477ALFONSO E. MESIN                                        20500
A0101405940000000505822FRANCO                                                  20500
A1601400170000001069158GM ENTERPRISES                                          20500
A3401400280000001723495OR JOAQUIN C GOCHANGCO JR                               20500
A0901400220000001805130HEAVEN'S SPRING WATER                                   20500
A0101404130000001831670V. CHUAUNSU                                             20500
A0101404130000001831670V. CHUAUNSU                                             20500
A1901400290261432900001CHARMAINE DE GUZMAN RANA                                20500
A0101401670271186305002AUDREY A. CRISOLOGO                                     20500
A0101408370382408300001DR. ALWYN JOHANNA SANTOS                                20500
A0101408370382408402001BABY ASUNCION B. DESTURA                                20500
A0101405490392173745001LALAINE A. DEL M                                        20500
A0101407720602283353001AGNES HERNANDEZ                                         20500
A0101407720602398260001CAMILLE L. JURILLA                                      20500
A0101404680651403109001FLORINDA B. CONDE                                       20500
A4101400420814768923001VIRTUZ, REBECCA                                         20500
B0201400920000000007923AVANT TEACH INTERNATIONAL CORP.                          1605
B0301400950000000566956TRAUFFER AND PARTNERS CORP.                              1601
B0101405650000000772743BF FEDERATION OF HOMEOWNER ASSOCIATION                   1601
B1301400210000000915673EDCON CARGOTRANS, INC.                                   1602
B0201401020000003031129DEL PRADO, JOSE VICE DBU DE LARRA FOODS                  1602
B0101406620000003497103GREENROOF CORPORATION                                    1605
B1001400190000004593999HUANG, EDEN TAN or DEBBIE LYNN T. HUANG                  1601
B0101407270162056115001GOOD VOYAGE BATTERY DISTRIBUTOR MAR                      1605
B0101401380201183447002CASINO BAR PHILS., INC.                                  1602
B0101407140213035967001MAYLAND CONSTRUCTION & ELECTRICAL SUPPLY                 1601
B0101407140213190851001**********                                               1601
B1001400190231015575001*****                                                    1602
B1901400290261033214002RD CASH PADALA, INC.                                     1603
B0101401670271007482001VISEVERSA, INC.                                          1605
B0101405650322045649001SILVERLINE INDUSTRIAL SUPPLY                             1601
B0101402480331009877001GUE CON MFG. CORP.                                       1605
B0101402480331033229016TGP DRUGSTORE                                            1603
B0101402480331036207004MYGENERICS PHARMACY INC                                  1603
B0101402480331039628007TOTALGENERICS PHARMACY INC.                              1603
B0101402480331748556009QUALIGEN PHARMACY CORP.                                  1603
B0101402510341008565001SAN BEDA COLLEGE                                         1620
B0101402510341024728001YAHU "G" FOODS CORPORATION                               1610
B0101402510341035330001CHRIST THE LIGHT MINISTRY, INC.                          1601
B0101408790383047276001SYSCO DEVELOPMENT CORPORATION                            1601
B5501400120410040096001RDJ CORPORATION                                          1605
B2401400180411057290001SOUTHERN MINDA TRADERS CORP.                             1604
B1201400150421024631001RICHGATE SQUARE HOMEOWNER'S ASSOCIATION                  1605
B0101403580511044427001EUROCONTROLS SWITCHGEAR CORP.                            1601
B0101403450521239197001**********                                               1605
B0101403610531017603001LINBERR CONSTRUCTION AND DEVT.CORP.                      1602
B0101403610531044823001WELLSPRING OF GRACE SCHOOL, INC.                         1601
B0101407690652029782001NATRACARE, INC.                                          1609
B0101406590662659846001THE KIMBERLEY PLACE INC.                                 1601
B0101401830000000033638CARITAS SALVE CREDIT COOPERATIVE                        11603
B4101400550000000900014CAVITE PEOPLE FOR SOCIAL CONCERNS MULTI                 11610
B0101408790383047729001INFINITE GRAFIX & OUTDOOR ADVERTISING                   11602
B0101403610531029119001RECOLETOS MULTISALES AND SERVICES                       11602
B0101401830000000033638(MANDALUYONG)008                                        21600
B4101400550000000900014PURPOSE COOP                                            21600
B0101408790383047729001INC.                                                    21600
B0101403610531029119001INC.                                                    21600
B0101401670271821100608**********                                               2005
B1001400510410502000011**********                                               2105
