A3001400130000002063383PULVERA, RAMIL M. OR PULVERA,                           10501
A3001400130000002063383KRISTIANNI C.                                           20500
A12014001504212536240016UANZON, ALICE D. OR                                    10506
A1201400150421253624001GUANZON, DELFINO                                        20500
A1401400110492412423001LUNA, MA. TERESA MAGBOO OR                              10503
A1401400110492412423001LUNA, EDWIN                                             20500
B0101400860011395693003**********                                               1601
A0101400860011495810002**********                                               0501
A0101401250021179004001TIBAJIA,JOSEFA OR LAPID,MYRA OR                         10501
A0101401250021179004001SEE,GINA OR TIBAJIA,CESAR                               20500
A0101401250021468980001GENELYN C. CARTON                                        0501
B0101400150061010833001VELCA TRAVEL & TOURS, INC.                               1601
A0101400150061531842002**********                                               0501
A0601400100081251939002ELIZARDO OR WILMA MARTINEZ                               0502
B0101413280000000041910INTERNET OF THINGS PHILIPPINES INC.                      1601
A0101413280000000041852OLA, EDAM CRUZ DBU HIJK SHIRT                           10502
A0101413280000000041852PRINTING & DESIGNS                                      20500
A0101400730111543247001ROSARIO, PETER CALANGIAN                                 0502
A0101400730000001822373AGUSTIN, JOSEPHINE DAYRIT                                0501
A0101406040000000096811********                                                 0501
B0101412630132047700001KNIGHTGOLD PROPERTIES & INSURANCE                       11602
B0101412630132047700001AGENCY INC.                                             21600
A5001400170000000214020ARNOCO, MARIETA DIAMANTE                                 0502
B0101412920160059095001TORIBIO, EMELY DUAY DBU HIC PRINTING                    11601
B0101412920160059095001SERVICES                                                21600
A0101400440161039572058ERLINDA S. AVERILLA                                      0501
A0101400440000003705957OFELIA R. LEYSON                                         0501
B0101400440161044506001STAR COMMANDER SECURITY AGENCY, INC                      1610
B0101400440000000337791TOPCOM SECURITY AGENCY INC.                              1610
B0101401090000000210482BLUMEX PLUS CREDIT INVESTOR INC.                         1605
A0101401090171312734001DE LARA, AILEEN CYNTHIA F.                               0502
A0101401090171491726001SHERI ANN SY LIQUETE                                     0502
B0301400530193041929001NEW CORELLA AGRICH MARKETING CORP.                       1601
A0301400660000000194854TANIO, DANILO CALUNSAG                                   0502
A0301400790000002301228*********                                                0501
A0101412500000003289838AMARILA, ELMA BADAJOS                                    0502
A3101400160000002762030RONALDO M. DELA CRUZ AND                                10505
A3101400160000002762030JOSELITO M. GUEVARRA                                    20500
A1001400190231036837001RTD MARKETING                                            0505
A1001400190231520766017RABANES, ELECTA CAMPION                                  0501
A1001400480000000133542GUINTO, CHARLOTTE JANE MAGO AND                         10501
A1001400480000000133542GUINTO, NEMER SARDEA                                    20500
A1301400470252428148002DELIA P. GONZALES OR                                    10504
A1301400470252428148002BERNARDINO R. GONZALES                                  20500
A1901400290000001195142ESTEBAN ALDRIN HERNANDEZ BISA                           10502
A1901400290000001195142OR DONNA MARIE G ORILLA                                 20500
B1901400290000001363188RD PAWNSHOP, INCORPORATED                                1603
A1901400290000001975380HERNANDEZ, ALILY SAMSON DBU                             10501
A1901400290000001975380BAKE IT UP BAKING NEED                                  20500
B0101401670271047796001TYLERMARK CORPORATION                                    1601
B0101401670271389719001PHILREM SERVICE CORP.                                    1605
A0101406460272393022001GAW, ELIZABETH CHENG                                     0501
A0101406620273315888001LAUREL, JOANNA OR LAUREL, CARLA                         10501
A0101406620273315888001LAUREL, CARLOS O                                        20500
A0101408660274648585001* * * * * * * *                                          0501
B0101412470000002338901BEEMONT MULTI PRODUCTS CORP.                             1601
A2001400290315644867001SY, BENSON GO                                           10502
A2001400290315644867001SY, MARGIE TERES                                        20500
A3401400280000000972783DELA CRUZ, EMILIO BILLONES                               0501
B0101402350321006984001INTEGRATED HYDRO-PNEUMATIC                              11610
B0101402350321006984001SYSTEMS INC.                                            21600
A0101402350321287566002LETICIA M. FERNANDEZ                                     0502
A0101402350321478374054ALEGERE S. TAPAO                                         0501
B0101402350321500384001ONG, JOSEPHINE T. AND HERRERA,                          11602
B0101402350321500384001VICTORIA                                                21600
A0101402350321557382002PARBA, NANCY MUNEZ OR                                   10501
A0101402350321557382002PARBA, JOEL QUILISADIO                                  20500
A0101409050000000022482PINEDA, ROMEO SANTIAGO                                   0501
B0201400760374006430001CHRIST COMMISSION FOUNDATION INC.                        1602
B0201400760374033749001UNIVERSITY OF THE PHILIPPINES CEBU                       1601
B0201400760374038778001CPERC                                                    1602
A0201400890376039667001PROTECH WATER SYSTEMS                                    0502
A0201400890376458754001NOMBRADO, GILBERT DOMASIS                                0501
A0101408370000003775144AZARRAGA, E DBU HOLY KING                               10505
A0101408370000003775144LEASING                                                 20500
A0101408370382550455001SIA, AMELITO ESGUERRA                                    0502
B0101408790000000599862GOFAST LOGISTICS INC.                                    1601
A0101411660000003580294RICA JOANNA C. NICOMEDES                                 0501
A0101402770000001570612ANCHETA, DENNIS NINO ALFAR                               0501
A0101408400000002273241MAXIAN, JORDAN DELFIN                                    0504
A0101408400000005157080SIATRIZ, MARIA CRISANTA BULAON                          10501
A0101408400000005157080OR SIATRIZ JR., ARSENIO O                               20500
A5501400120000001122074GARCIA, MARIENEL TAMAYO                                  0502
A2401400180000002146312VENERACION, CECILIA CARANDANG                            0501
B1201400150000001863356LAO, ELENA TAN OR LAO, JOSE MARI RACIMO                  1601
B0101412890000000125260ACADEMY OF CHRISTIAN EXCELLENCE                          1601
A0101403320471205812001AUREEN ESTEPA OR AURORA UY                               0501
B3801400170490058867001KATIPUNAN FOODS SERVICES, INC.                           1615
A1401400110492222049001AMORSOLO S. NIEVA                                        0508
A0101407430503478374012ANALIE YPANTO                                            0502
B0101405940512031029001SOLID VIDEO CORPORATION                                  1602
B0101408530516035451001DAVE-LOUIE ENTERPRISES                                   1601
B0101411400000001280557ROMEO B SIRA DBU RBSS PROJECT MANAGEMENT                11601
B0101411400000001280557SERVICES                                                21600
A0101411790518055815065ONG, JENNY ROSE MACASO                                   0501
A0101412050000000697229********                                                 0504
A0101403450521238268001**********                                               0502
B0101403610531013980001VIC IMPERIAL APPLIANCE CORP.                             1603
A0101403610531304005001ANCHORIZ, NERRIZA OR                                    10505
A0101403610531304005001ANCHORIZ, FRANCISCO                                     20500
A0101404000000003813892HAZEL JOYCE O ATIENZA                                    0501
A0101404000551292555001LAGDAMEO, ENRIQUE BIENVENIDO                             0502
A2201400250561297004072LESTER N. CUSI                                          10502
A2201400250561297004072EMPLOYEES OF IWSPC                                      20500
A0101410690000003027567VALENCIA, MARIA ELIZA MENDIOLA                           0501
B0101404130601100161001PRUDENTIAL CUSTOMS BROKERAGE SERVICES,                  11610
B0101404130601100161001INC.                                                    21600
A0101407720602402493001**********                                               0501
A0101407720602760751001DR. DONNA L. DEL ROSARIO                                 0502
B0101404260000000550252ISOMATIC INC.                                            1602
A0101407690000000913699QUIJANO, ERLINDA ANANO                                   0501
A0101407690000002348832ALUNDAY, TERESITA AREVALO                                0501
A0101407690000000154750BARANGAN, ROMEO DBU                                     10503
A0101407690000000154750BARANGAN TRADING                                        20500
B0101407690652422144001MELENCIO MEDEL OR CORAZON MEDEL                          1603
A0101407690652520766005GILNNA M. MALIGAT - DEALERS OF                          10501
A0101407690652520766005SHOECAT INC.                                            20500
A0101407690652525001060SUSANA MORENO - DEALERS OF                              10501
A0101407690652525001060SHOECAT INC.                                            20500
A0101407690652525001081AGUSTINO, ROWENA - DEALERS OF                           10501
A0101407690652525001081SHOECAT INC.                                            20500
A0101407690652525001083TULABING, VIOLETA - DEALERS OF                          10501
A0101407690652525001083SHOECAT INC.                                            20500
A0101413570000001720194JAY RON M. MORA                                          0502
A0101413570000002906669PADERNAL, MARIVIC                                       10501
A0101413570000002906669DBU ARMAV MARKETING                                     20500
B0101410300663044402001******                                                   1604
A0101410300000000919422ROQUE, EUGENIE AMANDA V.                                 0501
A1301400340683081069001CABANTOG, CARISSA CASTILLO                               0501
A2801400100712253346001CHERYLL P. PERALTA                                       0502
A4101400420814478374169SANTOCILDES, SALVE S.                                    0502
A4101400420000000121057ROMERO, JOCELYN FERRERA                                  0502
A4101400420000002345273LEONICIA S. HERRERA                                      0501
A0101412340000004072013MICHAEL REYES TABING                                     0501
A0101404840000003069981ATIENZA, SHIRLEY                                         0501
A0101404840851710251001MALAIKA, ABDULAZIZ OR GONZALES,                         10501
A0101404840851710251001KARIMA                                                  20500
A0101406750852043541001GRAFIX VENUE ENTERPRISE                                  0502
A0101406750000000358281LARSON, DANI DBU D.S. LARSON                            10501
A0101406750000000358281FITNESS                                                 20500
A0101406750852078501001TAKEDA, RACQUEL G. OR                                   10502
A0101406750852078501001JULAO, FLORENCE                                         20500
A0101405070000002282093MALAZARTE, CHARISSE SILAO                                0501
B0101405070861008149004TABAQUERIA DE FILIPINAS INC.                             1603
