A3101400160000015974900ARANSAZO, CAMILLE NIDO                                   0502
B0101411240000007844519EUSTAQUIO, ARNI RUSSEL FLORES DBU A                      1601
A2401400180000018834321SERONDO, ARNEL BUSCANO                                   0503
B4101400260000006043512MEGATECHNIP INCORPORATED                                 1602
B4101400260000006043421FOUR STEPS CORPORATION                                   1605
A4101400260812030742002GODGIVEN PHARMACY & GENERAL                             10510
A4101400260812030742002MERCHANDISE                                             20500
A0101400860000003571680*************                                            0501
A0101400860000002333499**********                                               0503
B0101400860011486476001**********                                               1603
A0101400860011681002001**********                                               0502
A0101401250001100002449JOCSON, RUSSEL MAGCUYAO                                  0504
B0101401250000003803336OCEAN AIRE HOTEL CORPORATION                             1605
A0101400150000003601021DIALA, JEFFREY MARIANO                                   0502
A0101400150000009832675CABRERA, MICHAEL ANGELO PIO ROD                          0501
B0101400150061011076001GENERAL METAL CONTAINER CORPORATION                      1605
B0101400150061021914001E- SCRIBIR INC.                                          1605
B0101400150061047817001TOMITA INDUSTRIAL & MACHINERY INC.                       1603
A0101400150000017977850GAVINI, APRIL VICUNA                                     0501
B0101405810000000016884PLASTIC CONSUMER CORP.                                   1601
A0601400360000013100371LAGUIN, ARLENE LANSANG                                   0501
B0601400360000003186714BSD TRADE SERVICES CORP.                                 1605
A0101410850000011219406DELA CRUZ, JEFFERSON DANO                                0502
A0101410560000010317783ERNANI C. CRISTOBAL                                      0502
A0101401960000006004422***************                                          0501
A0101413310000019240003BONSOL, JAY-VEE CUARTO                                   0501
A0101401830000014085771CABUNILAS, JOEL ROMERO                                   0501
A0101400440000017123778EMEN, JOSEPHINE PATRICIO                                 0501
A0101400440000017810043DALUSONG, GRACE DE VERA                                  0501
A0101407270000011873284EQUIPAJE, ARON GINO ISIP                                 0510
A0101407270000009673469BITARA, JULIET RECELESTINO                               0501
A0301400530000005300361TIMBOL, MARILOU SUBALDO                                  0505
A0301400660000016080374SO, DOMINIC DEXON TE                                     0501
A0301400790000016320493PACQUING, CATHERINE CASCABEL                             0502
B0101401380201370046001CO,MARK REYSON OR HONG,CLIFFORD CHARLIE                 11602
B0101401380201370046001OR TUAZON,MERVIN                                        21600
A0101413020000000056722CASTELL, CHRISTOPHER M. OR                              10502
A0101413020000000056722CASTELL, MARIA M                                        20500
A0101410720000013857548SORIANO, ANNA LIEZL DELOS REYES                          0501
A0101412500000019220323LANUZA, ALVIN MOJADO                                     0501
A3101400160000018256363VILLAREAL, VICTOR MANUEL S OR                           10501
A3101400160000018256363VILLAREAL, MAIRISH                                      20500
B3101400160221013530024RD PAWNSHOP, INC.                                        1604
A3101400450223357912001NAGA, JOSE V.                                            0501
A3101400740000017898334SAMSON, CHRISTIAN TORRES                                 0501
B1301400470252031506001LAWNDALE FINANCE COMPANY INC.                            1605
A1901400290000003252822ROMA PARAN RECINTO                                       0502
B0101401670000011534535GREEN ASIA HOLDING CO., INC.                             1601
B0101406460000011598540MADARANG, WILHELMINA CHAO                                1604
B0101406460272012461001INFORMATICS HOLDINGS PHILS INC                           1605
B0101406460272047405001ACEBUCHE, E DBU EL ACEBUCHE BUI                          1605
B0101406620000009695390DL FARMS AND AGROBUSINESS INC.                           1602
A0101406620000004926052DE GUZMAN, ROSARIO OR DE GUZMAN                         10501
A0101406620000004926052CARLA OR DE GUZMAN                                      20500
B0101410980000013551474GLOBAL MD HEALTHCARE SYSTEMS INC.                        1602
B0101411820000013980599AFABLE, HERACLEA MANLUBATAN                              1601
B0101411820000010701230PHILIA TRAVEL AND TOURS INC.                             1602
A0101400570000015532733GENEBLAZA, LYDIA VILLARENA                               0502
B2601400270000012506233JERRY GALOPE                                             1603
A2601400270000007951177RAYMOND RUEL D. VALLE                                    0501
B2601400270302040945001FAMILY CHOICE GRAINS PROCESSING CENTER,                 11601
B2601400270302040945001INC.                                                    21600
B0801400160000005656982JUANTONG & SONS BUILDER CORP.                            1610
A0801400160000011336502LIM, MONIEN JOVACON                                      0506
A0801400160311478374070GENALYN M. BOTANERO                                      0501
A6601400120000011286503ALLADO, MERLYN POLICARPIO DBU S                          0501
A3401400280000019223128BANZON, VICTORIA ONG                                     0501
A3401400280000019223340ONG, HANNIBAL ZENON DIOSO                                0501
A3401400280000019223475ONG, MA. SIGRID DELFIN                                   0501
A3401400280000019223577ONG, NERY JOACHIM DIOSO                                  0501
A3401400280000019223704ONG III, VICENTE DIOSO                                   0501
A3401400280000019223793ONG, JOSE NERY DIOSO                                     0501
A3401400280000019223862ONG, MARY DAPHNIE DIOSO                                  0501
A3401400280000019223931VITERBO, HYACINTH ONG                                    0501
A0101402350000005644704SAN JOSE, AILEEN LU                                      0501
A0101402350321478374017RIZA G. SANTOS                                           0502
A0101402510000013485720SANSAIT, MICHAEL ALLAN SEBASTIA                          0501
A0101402510341541150001SUMILONG, ANNA CHRISTINA A. AND                         10502
A0101402510341541150001SUMILONG, ROMMEL                                        20500
A0101409050000006986705SARIBONG, JOANA KRISSLE CHAVEZ                          10502
A0101409050000006986705OR GUECO, JEAN P                                        20500
A0101409050352600066001FAYE CARLIE CRUZ OR                                     10502
A0101409050352600066001BENSON RYAN CRUZ                                        20500
A0201400760000009465990VELASCO, BENJAMIN UNCHUAN JT                             0503
A0101402930000014436143ESTIL, MARIA CRISTINA RESUELLO                           0501
B0101402930381033903001T.H.E. TRAVEL GURU INC.                                  1601
B0101402930000005645963CADSYS PHILIPPINES INC.                                  1602
A0101408790000014277951SATO, DAIKI                                              0501
A0101402770391758040001VICTORIA, TOMAS N. OR                                   10503
A0101402770391758040001VICTORIA, LOURDE                                        20500
A0101405490000014677202BERNAL, RYAN ANTHONY DIAMANTE                            0501
B0101405490392038676001CLASSIC CHARACTERS (C.C.I.) INC.                         1605
B0101408400394032168001ALQUIROS FOOD CORPORATION                                1603
A0101408400394033625002IVAN COMPUTER SYSTEM                                     0504
B0101409180000012558271PHYSIXARE ADTEK SOLUTIONS, INC                           1601
B0101409180000015677048PHYSIXARE ADTEK SOLUTIONS, INC                           1602
A0101409180397633993001MANALO, JESULITO ANIT                                    0501
A0301400820000002271912BARAN, DERICK S.                                         0501
A5501400120000017065993DULCE, JOSIE OMENA                                       0501
A5501400120000017065919APUD, MARY JOY PACINABAO DBU C-                          0502
A5501400120410691763008DR. JANET P. CELIZ                                       0502
A2401400180000010066252DEVERA, EDGAR SURMILLON                                  0504
B2401400180000019235948CHI FARM                                                 1601
A2401400180411275346001GILMOORE O. ALIAN                                        0501
A2401400180411478374020MORI, LYDIA                                              0502
A1201400150421329088003DR. LILY MUNSAYAC-SUNGA OR DR.                          10502
A1201400150421329088003BENITO V. SUNGA                                         20500
A5101400100000010371212BAGONOC, ALDRIN POLICARPIO                               0501
A5101400100000010371256BASA, RALPH MANUEL VALLAR DBU                           10505
A5101400100000010371256JT                                                      20500
B0101406330000000432831OTO MARKETING, INC                                       1605
A0501400170000005002975LO, JOHN ALVIN DY                                        0501
A0501400170000015516500DE VERA, CHARO IZA HONRADO                               0502
B1901400320000000041272SIMCO VILLAGE LEARNING CENTER INC.                       1601
B3801400170000019109863CONCEPCION,JOCELYN OR GERARDO DBU GERCON                11601
B3801400170000019109863SHELL STATION                                           21600
A1901400160000019037591RICHARD G. ARDID                                         0501
A1901400160000018758479MANDIGMA, JELYN M OR                                    10501
A1901400160000018758479MANDIGMA, BIENVENIDO D.                                 20500
B1901400160491012917004ALPS THE BUS INC.                                        1605
A1901400160491034372001FIESTA HOME CENTER (FHC) CORP                            0510
A1401400110492066928001CAMONIAS, E DBU J'MAR MARKETING                          0505
A0101407430000018179496AGUILAR, JACQUELINE SANTOS                               0502
B0101403580511542394002STA. RITA 168 BUILDERS CORP.                             1605
B0101405940512015044001CASA REGENT PROPERTIES CORPORATION                       1604
B0101405940000008478873AUTOBRANDS MEDIA VENTURES, INC.                          1602
B0101405940000005359593STAR MOTOR ARMORING TECHNOLOGIES, INC.                   1602
A0101408530516571877034ROY DENIS MANALILI                                       0501
A0101412050000016152208ANIBAN, SHERYL MAI EVANGELISTA                           0501
B0101403450521039814001JADE BROS. FREIGHT INT'L. INC.                           1603
A0101403450521240099001**********                                               0501
A0101403450521582387001**********                                               0501
A0101403610000019220527JARA, ROCHELLE GABIANO                                   0501
A0101403610000019206727MOJE, CAMILLE MANINANG                                   0501
B0101403610000000015983SAN LORENZO RUIZ PARISH - SAN PEDRO                      1601
A2201400250000001545433CATALINA INES B. TAJANLANGIT OR                         10510
A2201400250000001545433RANDOLPH C. TAJANLANGIT                                 20500
B2201400250000000016920STAPLERS INC.                                            1602
A2201400250561296301002MARIA ANTONETTE I. BELMONTE                              0501
A2201400250561342534003ROWENA B. FERRER                                        10501
A2201400250561342534003OR JENNIFER L. FERRER                                   20500
B0101404130601045788001BIOMEDICA HEALTH CARE INC                                1603
B0101407720000000885770LARRS SKIN SOLUTIONS, INC                                1605
B0101407720000004959931PERFECT SKIN AND BEAUTY SOLUTIONS INC.                   1605
A0101407720602396331001RAMON I. DIAZ JR. OR                                    10506
A0101407720602396331001CYNTHIA M. DIAZ                                         20500
A0101407720602396607002TENCHAVEZ, PAULINO SINGSON OR                           10503
A0101407720602396607002TENCHAVEZ, LUZVIMINDA                                   20500
B0101407720000000885805INTELLIGENT BEAUTY SKIN SOLUTIONS INC                    1601
B0101404260611537674001KLINI-KAYA MEDICAL SPECIALISTS INC.                      1605
A0101409890000011486696CHUA - LAO, VINCENT LAWRENCE CH                          0501
B0101409890000012558748CENTURY REALTY CORPORATION                               1601
B0101409890649033780001WATCH TOWER BIBLE AND TRACT SOCIETY OF                  11605
B0101409890649033780001THE PHILS. INC                                          21600
A0101407690652525001056ENRIQUE, EMY SANTOS - DEALERS                           10501
A0101407690652525001056OF SHOECAT INC.                                         20500
A0101411530000018391103LAPITAN, DANELLE LOUIES ROSE TO                          0501
A0101411530000018762651EVANGELISTA, ROSANNA TECSON                              0501
A0101411530000019162980REGUNDA, JEFFREY SAMPAN                                  0501
A0101411530000019198802PADERO, PAMELA LEGASPI                                   0501
A0101413570000005867430**********                                               0502
A0101413570000018080970DUMAUA JR., WILSON BLAS DE LEON                          0501
B0101413570000003580749MORALES, EMIL T. DBU DMD PHOTOGRAPHY                     1605
A0101413990000000206066MARKVENT ENTERPRISES                                     0502
A0101414120000011765069DELOS REYES, JESSICA VILLORENTE                         10501
A0101414120000011765069DBU TAMILEX TRADING                                     20500
B0101406590000000905657BRAINCHILD SIX INC.                                      1602
A1301400210000011696247DIEGO, ALEXIS LOUISE VICENTE                             0501
B1301400210000013219324ROBLES, NELSON DELA CRUZ DBU CHARGESAVVY                11601
B1301400210000013219324CALL CENTER                                             21600
B1301400210682036160001RICH-WELL INTERBRAND CORPORATION                         1602
A1301400340000018641262SARIPADA, AKESA AIKO MAGALLON                            0501
A1301400500000005963368ANELITA S. CAPARAS                                       0502
A1701400230000012227735DAMO, MARYLOU P                                          0501
A0101408240711375064001DR. MARILYN P. CALILUNG JT                               0501
A0101408240711478374015EMILY MONTILLANO                                         0502
B2801400100000012667277SUPPORTONE MANPOWER SERVICES INC.                        1610
B2801400100712028150001SUBIC NEXUS TECHNOLOGIES INC.                            1603
A2801400100000014389729JULIUS S ESCALONA                                        0501
A4101400260000018321336GUATNO, JANE TACOGDOY                                    0502
A4101400420000017688221SAN AGUSTIN, JACLYN IAN                                  0501
A4101400420814418225001LOPEZ, ROSALINA OR                                      10502
A4101400420814418225001LOPEZ JR., RODRI                                        20500
A0101412340000000044799ANDRADE, MARIA LOURDES GONZALES                          0504
A0101412340000008021252JEFF REY ADDJAR                                          0501
A0101412340000014512864MECIJA, ERWIN ORTANEZ                                    0501
A0101404840000003409772LELIS, FRANCIS ANTIADO OR                               10502
A0101404840000003409772LELIS, MA. CRESSIDA RUBIO                               20500
A0101404840851217637064CESAR D. CO                                              0501
A0101404840851520766073ELIZABETH A. SUAZO                                       0501
B0601400230000010299200DEL ROSARIO, ANTONIO GUTIERREZ                           1601
A0601400230000017863591*********                                                0501
B0601400230000005185924GAJE, AGNES DBU JCG AIRCONDITIO                          1601
