B0101403320471029785001F.D. ROOSEVELT MEMORIAL SCHOOL, INC                      1601
A0301400950000002115366**********                                               0501
B0101405490000003905184NORTHSHORE HARDWARE AND CONSTRUCTION                    11602
B0101405490000003905184SUPPLY                                                  21600
A0101412890000004344990IP, M DBU GOLDEN WORKERS                                10502
A0101412890000004344990CONSTRUCTION                                            20500
B1901400160491012917004ALPS THE BUS INC.                                        1610
A1901400160491660523001LEXTER LINA GUTIERREZ                                    0501
B0101416580410442000011**********                                               2003
B0101400860011374845003**********                                               1601
A0101400150000003162752MARVIN V. BERNARDEZ                                      0502
B0101400150061029759002A.M. SISON, JR. & PARTNERS LAW OFFICE                    1610
A0101400150061389261001AYSON, JOEL RAYMOND REDULA                               0502
A0101400150061534441001BUSHNAG, SAMIR MOHAMMEDALI A                             0502
A0101400600071233721001**********                                               0502
A0101400600071720668001*******                                                  0501
A0101405810072354724003FUENTES, LILIA S.                                        0501
B0601400100081256915005KWONG, WILLIAM G. OR                                    11603
B0601400100081256915005ANTONIO, ADELA                                          21600
B0101413730104821100608**********                                               2001
B0101413730104821200608**********                                               2001
A0101400730000000833410GOMEZ, EDWIN VITUG                                       0501
A0101400730000001822373AGUSTIN, JOSEPHINE DAYRIT                                0501
B0101412920000000042111DIZON, DELEXTER JOHN SCHNUPP DBU 3                      11601
B0101412920000000042111ANGELS MARKETING                                        21600
A0101400440161039572023JIMMY S. PALISOC                                         0501
A0101400440000004889785ELEANOR A. APO                                           0501
A0101400440161391940001*****                                                    0501
A0101400440161520766189PRESCILA P. DOTONG                                       0501
A0101400440161525001166CELESTE G. CASABAR                                       0501
A0101407270162370131001CHERRY PIE S. PICACHE                                    0502
A0101401090171199201001MARIA TERESA CASADO-RAMOS                                0503
A0101401090171391935001JULIE CHRISTIE G. VISPERAS                               0501
B0301400530193041601001GRANITE CREDIT CORPORATION                               1602
A0301400950000000566796ILAGAN, LEO AMADO OR                                    10501
A0301400950000000566796ILAGAN, CECILLE                                         20500
A0101401380201476813002TO, EVELYN LIM                                           0501
A0101413020000003055358ANGELES, MA.LENY DBU NY2 ENTERP                          0501
A0101412500000006480891NG, FRANCIS JOHN PARRAS OR                              10503
A0101412500000006480891NG, PLUTARCO CUADRA                                     20500
A0101412500000006485050SANTOS, MARICRIS SUAREZ                                  0501
A3101400160221478374062LANI R PEREZ                                             0501
A3101400450223679687001MONZONES, MARIA DOLORES OR                              10503
A3101400450223679687001HENRY                                                   20500
A1001400190231478374179BACAN, JULIET                                            0501
A1001400190000002170576CORAZON TANGUB                                           0501
A1001400350233528399003KO, JOSE NELSON AND                                     10502
A1001400350233528399003KO, CHARMAINE                                           20500
A1001400350233532290001BURROUGHS, ROGELIA CRISMUNDO                             0502
A1001400480000000133279**********                                               0502
A1901400290000001363064MARIANO BENEDICTO GUTIERREZ JR.                          0501
A1901400290261042024001HAPAG FILIPINO FAST FOOD                                 0502
A1901400290261247580001ERLINDA R FORTES                                         0502
A1901400290261419007001FE LEJANO TONGOL                                         0503
A1901400290261488341053DRA. HELEN PEREZ COMIA                                   0501
A0101401670271188395001ANITA T. ANG                                             0502
A0101406460272391534001MA. VICENTA G. NAVAL OR                                 10503
A0101406460272391534001COSME ILDEFONSO                                         20500
A0101406460272532219001DAYU, ANNABELLE BONAOBRA OR                             10501
A0101406460272532219001DAYU, FELIPE S.                                         20500
A0101406620000000962192FELIX, REYNALDO BARCELO                                  0502
B0101406620273012462001COL FINANCIAL GROUP, INC.                                1615
A0101411820000002328612RIOJA, DAISY GO                                          0501
A0101400570000000031803ROXANNE ABIGAIL R. EDUAVE                                0501
A2601400270302794359001VENILDA S. ZARA                                          0501
A1101400120000001547326TOLENTINO, EMMANUEL S. OR                               10501
A1101400120000001547326BASTIAS, ROSANNA Q.                                     20500
A1101400120000000652511BASTIAS, ROSANNA QUISUMBING                              0501
A1101400120000003022373BANTULA, EVELISA                                         0501
A0101402350321478374013ROSALINA M. MARAVILLA                                    0501
A0101409050000000601432GARCIA, CHARLES PHILIP ISTURIS                          10502
A0101409050000000601432OR MA. JESSA RIC                                        20500
A0101409050000002333284NAVARRO, DON SHERWIN GENE VIM J                          0501
B0201400760374031471001PHILPACIFIC INSURANCE BROKERS & MANAGERS                11610
B0201400760374031471001INC.                                                    21600
A0201400760374625336002REYES, BAYANI CARLOS OR REYES,                          10502
A0201400760374625336002VIRGINIA ALMEDA                                         20500
B0201400760000000222886JAYME, STEPHEN RODRIGUEZ                                 1602
A0201400890376080642001GALANG, LORLIE PACURIBOT OR                             10502
A0201400890376080642001GALANG, GLENN AN                                        20500
A0101408370382391637001DR. REGINA Y. SANTIAGO-AQUIAS                            0502
A0101408370382392437001DR. RONALD S. PEREZ                                      0502
A0101408370382425691001DRS. KAB OR JSS OR JGF OR HHS                           10502
A0101408370382425691001OR FVF OR RG OR CL                                      20500
A0101408790000002031463CASTANEDA, CAMILLA ANN LASALA                            0501
A0101402770391496072001CHUA, LETICIA TAN                                        0501
A0101402770391496072001CHUA, LETICIA TAN                                        0503
B0101405490000005196545ZC KINGS MANPOWER AND JANITORIAL                        11603
B0101405490000005196545SERVICES COOP.                                          21600
A0101408400394590854001GAA, RIZA NOBLEZA                                        0501
B0301400820000001554792VIC IMPERIAL APPLIANCE CORP.                             1601
A0301400820000005991586PAPERINK ENTERPRISES                                     0501
A5501400120000002348290BASILIO, STEFEN ENDAYA                                   0502
A5501400120410275634001BAUTISTA, RYAN REYES                                     0505
A2401400180000002284266DONGOSA, JANETTE GUEVARRA                                0502
A0901400220432080362001**********                                               0502
B0101403030441544108002**********                                               1605
A0101403320471419366001VILVESTRE, HELEN MARAVILLA                               0505
A1901400160491298552008VILMA F FALCUNAYA                                        0502
A1901400160491416981001JOEL C ATIENZA                                           0501
B1401400110000000167446SOUTHERN PROCESSING CORPORATION                          1606
A0101405940512447601001********                                                 0501
B0101408530516033397001SPRINGER INTERNATIONAL, INC.                             1605
A0101408530516494431001******************                                       0501
B0101403450521011954001*********                                                1602
A0101403450521310248001**********                                               0502
A0101403610531220224004FERRER, NESTOR AMIL                                      0502
A0101403610000001450828ANDES, EDNA MASAYDA                                      0502
A0101407720602332201004LIM, MARIA SOCORRO CAEDO                                 0504
A0101407720602399405002CLAVER P. RAMOS, M.D. OR                                10503
A0101407720602399405002THELMA E. RAMOS                                         20500
A0101407720602484582001MARIA ROWENA M. ANTENOR OR                              10501
A0101407720602484582001MARIA VICTORIA M. ANTENOR                               20500
B01014077206024892100011stMARK GLOBAL MEDICAL SERVICES, INC                     1603
A0101404260611150932002DELIA D. UY                                              0501
A0101404260611478374091ROSITA LLANES                                            0501
B0101413440000000038242FOCUSMEDIA AUDIOVISUALS INC.                             1610
B0101413990000003141146**********                                               1602
A0101413990000002274091PEREZ, CARLOS MANGUNDAYAO                                0501
A0101406590662363449001LA VINA, ANGELINA SAN JUAN                               0501
A1701400230000004469643SALAZAR, MARIBETH DBU  NORTH                            10503
A1701400230000004469643TECH BUILDERS                                           20500
A0101408240000003955340SIMPAO, MELISSA OCHANGCO                                 0501
A0101408240711542230001ADRIANO, GLENDA TULAY                                    0501
B4101400550000000900003BINAKAYAN HOSPITAL AND MEDICAL                          11602
B4101400550000000900003CENTER, INC.                                            21600
A0101412340850084786001MIRACLE GRACE S. DUMIP-IG                                0501
B0101406750000005608595METROWIDE HOMEBUILDERS, INC.                             1630
A0101406750852741281002HELEN A FANGON                                           0501
A0101405070861196343001EDGARDO DAVID OR ANGELINA DAVID                         10506
A0101405070861196343001OR MARY ELAINE D                                        20500
A0601400230891698269001DIMABUYU, LESLIE BALUYUT                                 0501
