B0101408530516821100608**********                                               2010
A3101400870000005565255DE GUZMAN JR., O DBU ODG                                10501
A3101400870000005565255ENGINEERING SERVICES                                    20500
B1901400610226821100608**********                                               2002
B1001400480000006296262MA. DEL CARMEN MART, INC.                                1605
A0101408370382391600002DR. JONATHAN A.I. SANDEJAS OR                           10505
A0101408370382391600002DR. MELISSA P. SANDEJAS                                 20500
A0101410690000001284497JEHAR ENTERPRISES                                        0502
A0101400860011542443001**********                                               0505
A0101401250000000441052ONGSUECO, SYLVIA K.                                      0502
A0101400150000000053158*******                                                  0501
A0101400150061700441001SAYLAGO, CLYDE ABAD                                      0501
A0101400600000000007707**********                                               0502
B0601400100081025333001TRUE NORTH MANUFACTURING SERVICES CORP.                  1610
A0601400100081042604002CRK LUMBER AND HARDWARE                                  0505
A0601400100081253896001GALURA, RESTITUTO Y.                                     0504
A0601400100000002365368REGULACION, J DBU JAJEJI MINIBA                          0503
A0101410850000008263985DIZON, JOLLY DBU STARLIGLHT                             10503
A0101410850000008263985TRUCKING                                                20500
A0101412630132094898001VENTURA, ELIZABETH CERVANTES OR                         10501
A0101412630132094898001VENTURA, ALEX NG                                        20500
B0101413310000001928914HONEYCOMB BUILDERS, INC                                  1602
B0101401830000000033627CARITAS SALVE CREDIT COOPERATIVE                        11605
B0101401830000000033627(LAS PINAS) 007                                         21600
A0101400440000008201083ARMIE C BLAS OR ARMAN A CAPULI                           0502
B0101400440161026216001TELEGA, INC.                                             1605
A0101400440161039572043CERENO, GLECY GUTIERREZ                                  0504
A0101407270000008409187PASCUAL, JEMAR COSTA                                     0501
A0101407270162331908018CATHERINE MADONNA C. CRUZ                                0501
A0101401090171389246001ANGELITA R. GUINTO                                       0501
B0301400660194047064088CVM PETRON SERVICE STATION                               1605
A0301400790000001010619CABASAG, JEY R LAGONOY                                   0501
B0101413020000000038377CRYSTAL RAIN INTERNATIONAL CORPORATION                   1601
B3101400160221010059001ATDRMAM LAGUNA CORPORATION                               1605
A3101400160221478374027ERNESTINA S. VILLANUEVA                                  0501
B3001400130230043534001BERRY HAPPY MART INC.                                    1606
A1001400190000001057396LOLITA B. DULCA                                          0501
A1301400760000004522592KRISTOFFER ROMEO E. GATDULA OR                          10502
A1301400760000004522592SANDRA D. GATDUL                                        20500
B1301400760000000050860ENCORE LEASING & FINANCE CORP.                           1601
A0101406460272377244001ALA, JESSIE ATENTA                                       0501
A0101406620000008197508MARY ROSE D. VILLAREAL                                   0501
A0101406620273217518001MELINDA MAGPANTAY                                        0501
A0101400570281739506001JOHN CLAUDE S. CABREROS OR                              10502
A0101400570281739506001HERBERT R. FERAN                                        20500
B0101411240000007844440F.MAGANTO CONSTRUCTION                                   1601
A0501400200000002306127OYAMAN, GERTRUDES ABANDO                                 0502
A1101400120000003022384ELCARTE, ERNA GONZAGA                                    0501
A3401400280318736732001TERESA A. SANTOS OR MA. AILEEN                          10501
A3401400280318736732001A. SANTOS OR TINA S. ONG                                20500
B0101402350321034292001JACINTHE MANUFACTURING CORPORATION                       1602
A0101402350321455602001ISAAC JAMES D. JIMENEZ                                   0503
A0101402510341526386001JOSE MARI V. LACSON                                      0502
B0101408370382015456001WT DERRICK REALTY CORPORATION                            1604
A0101408370382205163001DR. ERMELO P. BALCUEVA OR                               10505
A0101408370382205163001JULITA C. BALCUEVA                                      20500
B0101408790383047253001NUVOLAND PHILIPPINES, INC.                               1605
A0101415350000007043752PARAJAS, ARSENIO P. DBU AAGP                            10502
A0101415350000007043752OR PARAJAS, GRACE                                       20500
A0101402770391757431003**********                                               0501
B0101405490000006214262IZAKAYA DEN FOOD CORPORATION DOING                       1602
A0101408400394037647001FRIAS WATER STATION                                      0502
A0101408400000001981586BMFV BEAUTY SALON                                        0502
A0101408400394089542001CRYSTAL FRIAS LAUNDRY SERVICES                           0502
A0101408400394473443001VITALES, MARIBEL F                                      10502
A0101408400394473443001VITALES, MISAEL                                         20500
B0101409210398042656001FIELD OUTSOURCE ASIA, INC.                               1606
B2401400180411043008008TBB PETRON                                               1602
A2401400180411539646003ONCADA, VANESSA CALUBIA OR                              10504
A2401400180411539646003ONCADA, JOSEPH Q                                        20500
A1201400150421685972001JUCUTAN, HEIDI BONDAD OR                                10502
A1201400150421685972001JUCUTAN, ROMMEL                                         20500
B1201400150421821100608**********                                               2002
A0901400220000000425045LOZADA, ELIZABETH GO                                     0501
A0101403030441240653001**********                                               0501
A0101403030441314128002**********                                               0501
B0101403030441314128003**********                                               1601
B0101406330472027368002R & A FASTFRATE CORP.                                    1603
A0101406330472212402001ARTEMIO V. DEL ROSARIO                                   0505
A0101410140000001939911BOBARES, ROBERT BALDOZA                                  0502
A1901400160491250555001MARCELO  BUQUID JR OR                                   10502
A1901400160491250555001JOSEPHINE BUQUID                                        20500
A0101407430503736499001CECILIA R. NALAUNAN                                      0501
B0101403580511036608001WELLTHY SOLUTIONS INC.                                   1605
B0101405940000000886728TORRE LORENZO PROPERTY MANAGEMENT                       11603
B0101405940000000886728CORPORATION                                             21600
B0101406880513035850001PENTACAPITAL FINANCE CORPORATION                         1605
A0101408110000001823810REMOLACIO, FRANCIS LILIAN DBU                           10503
A0101408110000001823810BLUE SKY TRANSPORT                                      20500
A0101411790518055764312ABAYA, ALDRIN ALBA                                       0501
A0101403450000000889363ARES, MICHAEL ERNE                                       0501
B0101403450521011738001INDUSTRIAL WELDING CORPORATION                           1610
B0101403450521046455009FIRST RIDGE CONCRETE AGGREGATES CORP                     1603
B0101403450000000889621FERRIS SOBELL PROPERTIES INC.                            1603
A0101403450521237287001*********                                                0501
A0101403450521238571003**********                                               0501
B0101404000551024935002VENTURES CREDIT INCORPORATED                             1603
A0101404000551150186001DANIEL OR DEANNA SAMANIEGO                               0501
A0101404000551150186001DANIEL OR DEANNA SAMANIEGO                               0504
A0101404000551566844001DAYAO, PATRICK CALDERON                                  0501
A0101404130601039572001NORMA SANTOS ESTEBAN                                     0502
B0101404130601100161001PRUDENTIAL CUSTOMS BROKERAGE SERVICES,                  11610
B0101404130601100161001INC.                                                    21600
B0101404130601100161002PRUDENTIAL CUSTOMS BROKERAGE SERVICES                   11602
B0101404130601100161002INC.                                                    21600
B0101404130601100161003PRUDENTIAL CUSTOMS BROKERAGE SERVICES                   11602
B0101404130601100161003INC.                                                    21600
A0101412180000006471332MANZANO, JANINE DAET                                     0501
B0101412180000001293083CAPTIVEIGHT INC.                                         1605
A0101404260000000532125RIVERA, VINCENT BANIEL                                   0501
B0101404260611022505001SEAA CORPORATION                                         1603
B0101404260611022505002SEAA CORPORATION                                         1603
A0101404260611459534001LAOLAO, MARDELYN CALLORA                                 0502
A0101404260000003498373MA. DESIRIE J PATOC                                      0501
A0101404260000000532290PESTANO, ALBERT L. OR PESTANO,                          10501
A0101404260000000532290LUCIA M.                                                20500
B0101407690652025536001ST. MARK'S CHILD DEVT. CENTER, INC.                      1603
A0101407690652700817001PITOGO, CECILIA JALEM                                    0501
A0101411530000005198267**********                                               0502
A0101413570000007373802MAURICIO, JESSIE TEROCHO                                 0507
A0101413990000000969188SORIANO, FELY STA ROMANA                                 0502
A0101414120000001142807CASA LUMINARIA PARTY VENUE                               0503
A0101414120000001142818CAS PROPERTIES INC.                                      0503
B1701400230693821100608**********                                               2005
B1701400230693821200608**********                                               2001
B0101408240711044425001PCKB REAL ESTATE LESSOR                                  1602
A0101408240711372563002ZAMORA, RITA OR ZAMORA, MILETTE                          0501
B2801400100712031823001REYES, DIANO, TUMANDA & CO.                              1602
A4101400390813557721001LOZARES, VIVENCIO JR. QUE                                0501
A4101400550000004846824PANGAN, S DBU SDP REALTY                                 0502
A0101412340000007305520ROWENA P. GONZALES                                       0502
A0101404840000000683585ROXANNE P. AGUILLON                                      0502
A0101404840851478374094LETICIA FULLO                                            0501
A0101404840851478374195LUZVIMINDA RANOCO                                        0501
A0101404840851520766189DIAGO, MARY JANE                                         0502
A0601400230000003015583HERNANDEZ, VILMA VALENCIA                                0505
B0601400230000002649927MJ EXPRESS CREDIT INC.                                   1605
A0601400230891697083001GOMEZ, VICENTE SANTOS                                    0501
