F0101408400394539327001WEE, ROSALIND LEE                                        2505CKO
F0101408530516535099001MARIA DELAS MERCEDES U. ZOBEL                            2505CKO
F1801400130151048749001MSU-IIT NMPC TUBOD BR.                                   2601CKR
F1801400130151048751001MSU-IIT NMPC TIBANGA MAIN BR.                            2602CKR
F0101402480331635109001*********                                                2603CKR
F0101408530516504417001ZOBEL, INIGO URQUIJO                                     2605CKO
F3101400740000000013903INDORAMA VENTURES PACKAGING                             12601CKR
F0101403290461029163001PHIL.ASSO.OF SERVICE EXPORTERS,                         12605CKR
F3101400740000000013903(PHILIPPINES) CO                                        22600CKR
F0101403290461029163001INC.                                                    22600CKR
