B0401400270242821100608**********                                               2010
B0101401830141821100608**********                                               2001
A0101414120000002172618*****                                                    0501
A0101414120000004603201MERCADER, JOHN LESTHER BONAYOG                           0501
A0101414120000004603121FLYRYNE TRAVEL AND TOURS                                 0501
A0101407270000003253523SALAZAR, GARY SAZON                                      0501
B0101407270162036585002STA. MARIA INDUSTRIAL PARK CORPORATION                   1610
A0101407270000000818304RICARDO FERNANDEZ DBU                                   10502
A0101407270000000818304RG TRUCKING SERV                                        20500
A0101407270162199731002TRIFINA O. MARTINEZ                                      0502
B1301400760253821100608**********                                               2003
A0101405650322522833001JIMENEZ, MARIA JEAN BREBONERIA                           0501
A2401400180000000073590GUMBOC, LUALHATI CONSTANTINO                             0501
B2401400180411043965001BRIGADA HEALTHLINE CORP.                                 1610
B2401400180411058219001BRIGADA PHARMACY, INC.                                   1610
B0101400150061010833001VELCA TRAVEL & TOURS, INC.                               1602
A0101400150061055752093MICHELLE B. MERCADO                                      0501
A0101400150061227793004**********                                               0501
A0101400150061296553003TANDOC, CHRISTOPHER MANZON                               0502
B0601400100081013158001TRUST INTERNATIONAL PAPER CORPORATION                    1610
B0601400100081034116001FIESTA COMMUNITIES INCORPORATED                          1610
A0601400100081501761001TAN, WINTHEL OR RALPH                                    0501
B0601400360000000025750NT. LIVE INCORPORATED                                    1603
A0101410850000003503619JJJS LOYD'S REALTY & DEVELOPER                          10502
A0101410850000003503619CORPORATION                                             20500
A0101410850000000005803JOSE, SHARON KAYE LU                                     0501
A0101400730111375290001TOLENTINO, NERREN VIRAY                                  0506
A0101400730111478374112STO DOMINGO, CONSTANCIA                                 10501
A0101400730111478374112CHARLENE                                                20500
A0101406040000003332954NERVES, JOSE ROLITO NAPA DBU                            10502
A0101406040000003332954JRN GENERAL MERCHANDIZE                                 20500
A0101401960121237552001**********                                               0501
A0101401960121569490001************                                             0502
B0101401830141029482001ONE BODY CHRISTIAN MINISTRIES INC.                       1601
B0101401830141821200608**********                                               2001
A7201400170000003774009FAMOR, MYRNA POLOYAPOY                                   0503
A0101412920000005915631CASTRO, SONNY VALEN ROMERO                               0501
A0101412920000005915682CASTRO, STEPHEN JOSEPH ROMERO                            0501
A0101412920000005915693CASTRO JR., SANTIAGO ROMERO                              0501
A0101412920000005915700CASTRO SR., SANTIAGO MENDOZA                             0501
A0101400440000002034997MERLITA ALICANTE                                         0501
A0101400440161478374183NORY S. OLIVERON                                         0501
A0101400440161525001049MYRA M. MANDO                                            0501
A0101400440161525001105VIRGIE B. CRUZ                                           0501
A0101400440161574323001MARISSA P. MAGPAYO                                       0501
A0101400440000000821112MADRIDEJOS, LINALYN BACSID                               0501
B0101407270162040113001EVERGREEN ENVIRONMENTAL RESOURCES INC.                   1605
B0101401090171007908001PERPETUAL SUCCOR HOSPITAL &                             11605
B0101401090171007908001MATERNITY, INC.                                         21600
B0101401090000000210562PHILIPPINE ASSOCIATION OF SCHOOLS OF                    11602
B0101401090000000210562MEDICAL TECH.                                           21600
A0101401090171197481002MA. NOEMI OR ELIEZER SALAZAR                             0502
A0101401090171500760002ERIC B. ZERRUDO                                          0502
A0101401090171669483001REGINA C. YAO                                            0501
A0301400790000003969360********                                                 0502
B0101401380201041802001D'GLACIERS' MGM INC. - MAC                               1602
A0101401380201554626001BANGURAN, MYRNA BRINGAS                                  0501
A0101410720000000968021CAPARROS, MARY MARJORIE CHUA                             0501
A0101410720000004626391SILVESTRE, SALDY SABINANO                                0501
A0101410720000001602113PALAD, L DBU E.L. PALAD CONSTRU                          0502
A0101410720653199035002*****                                                    0501
A0101410720653675032001TOLEDO, CONSTANCIO CUADRA                                0502
A3101400870000001712163TUAZON, ALLAN SANTOS OR TUAZON                          10502
A3101400870000001712163EDNA BLANCA ALDIANO                                     20500
A1001400190231478374067DAGANATO, NICANORA BALOS                                 0501
B1301400470252047582001FREEWAY MOTOR SALES OF CABANATUAN CORP.                  1601
A0101406620273720692001******                                                   0502
A0101412470000000520192ARCA, ESTHER DBU WASABE SPICE                           10502
A0101412470000000520192OF THE ORIENT                                           20500
A0101400570000001681961SALAZAR, LISETTE GREGORIO JT                            10501
A0101400570000001681961TRINIDAD, JESUSA PINEDA                                 20500
B0101400570281007593001KINGSFORD ENVIRONMENTAL PHILS INC.                       1603
A0101400570281043930002REALTY & ENTREPRENEURSHIP                               10501
A0101400570281043930002ACADEMY OF THE P                                        20500
A0101411240283781478001DINOPOL JR., CRISTETO ESTRELLA                           0502
A2601400270000000561619RAUL T. SAWIT OR CARMELITA A.                           10502
A2601400270000000561619SAWIT                                                   20500
A2601400270000000561671EDGAR D. ZARA                                            0501
A2601400270302591563001ROSITA R. CHE                                            0501
A2001400290000000724510JUCOM, RODORA TUALE                                     10501
A2001400290000000724510OR JUCOM, JHUFEL                                        20500
A3401400280318478374001MARILYN B. BISMANOS                                      0502
B0101405650322025100001GLOBAL PACKAGING SYSTEMS AND MATERIALS                  11601
B0101405650322025100001CORP.                                                   21600
B0101402510341027740001ENTER INTERNATIONAL PHILIPPINES, INC.                    1605
A0101402510341202843003**********                                               0501
A0101409050000005698997FE ESPERANZA J. PINGKIAN                                 0502
B0101409050352046541001CTU SECURITY AND INVESTIGATION AGEN                      1601
B0101408790000000039012ARDENT COMMUNICATIONS, INC.                              1603
B0101402770391025883001DA LEONARDO INDUSTRIAL INC.                              1601
A0101408400394420934001SANTIBANEZ, EUGENIA SANTIAGO                             0505
B0101409180397821100608**********                                               2003
A0101409210398612916002AMPIG, MARK CHRISTIAN OTERO                              0503
A2401400180000002284211GONZALES, JERISSA HONG                                   0501
B2401400180411033064001P.G. ANG AND SONS, INCORPORATED                          1610
A1201400150000001863276KLEMSON MEDICAL SUPPLY                                   0502
A1201400150421301485002GO, ROLANDO DISTOR                                       0502
A0901400220000000887954ALANANO, NATHANIEL P. OR                                10502
A0901400220000000887954ALANANO, MADELYN                                        20500
A0901400220000000012324SPECIALIST MOTORCYCLE PARTS &                           10503
A0901400220000000012324ACCESSORIES, INC.                                       20500
A0901400220000001805090**********                                               0502
A0101403030441660281001**********                                               0502
A0101412760000002067665BEGATA, RIZALINA SALCEDO                                 0501
B0501400170481013156001K SERVICO TRADE, INC.                                    1603
A3801400170000000955073LOLITA C CABUNGCAL OR                                   10501
A3801400170000000955073JAIME D CABUNGCAL                                       20500
B3801400170000000018788MINDORO PPA EMPLOYEES MULTI-PURPOSE                     11603
B3801400170000000018788COOPERATIVE                                             21600
A3801400170490793031001RUEL D QUINZON                                           0502
B1401400110492013980002IMPERIAL APPLIANCE PLAZA                                 1601
A1401400110492543449001ACEITUNA, MYRNA CANZON                                   0502
B0701400130493821100608**********                                               2005
A1601400170000000099150HERMELINA E. ROSAL                                       0501
B1601400170494821100608**********                                               2005
B1601400170494821200608**********                                               2002
A0101407430503036416001JUPITER'S BUTCHER SHOP                                   0505
B0101407430000001213238PEREZ, CRISTY DBU CRISTY F PEREZ CUSTOMS                11601
B0101407430000001213238BROKERAGE                                               21600
B0101408110000003281434CYBERONE.PH, INC.                                        1601
B0101408110000003281503SEPTUS INC.                                              1601
A0101412050000000323668DOMINGO P. ZARASPE OR JOYCE                             10501
A0101412050000000323668RICHELLE R. ZARASPE                                     20500
A0101404000000004729426LIEZEL N KABIGTING                                       0501
A0101404130601708628001PABALATE, PACITA BATAC OR                               10501
A0101404130601708628001PABALATE, HELEN                                         20500
B0101404130601821200608**********                                               2002
A0101407720602298846008LAMBERTO U. OCAMPO OR                                   10501
A0101407720602298846008ANNABELLE SARMIE                                        20500
A0101407720602780335001ABAYA, MA. LUZ VIRGINIA SUNTAY                           0502
A0101412180000001293301SANGCO, SYLVIA LIM                                       0501
A0101409920650089841001SIA, REYNALDO CABRERA                                    0503
A1301400210000000540765LHARA DG MERCADO                                         0501
B1301400210682248659001ASIANLAND STRATEGIES CORPORATION                         1605
A1301400340683427695001********                                                 0502
A1701400230000002762974BERNABE, PANTALEON ABELLA                                0502
A1701400230693633961002CHUA, HENRY YANG or CHUA, ERIC                          10502
A1701400230693633961002HERBERT TANG                                            20500
B0101408240711023931001CHRIST'S COMMISSION FOUNDATION, INC.                     1620
B4101400260812043808001UPLIFT CAVITE HEAD OFFICE                                1610
B4101400260812043809001UPLIFT DASMARINAS                                        1610
A4101400550000003267105MCMAR & MARY ELECTRICAL                                 10501
A4101400550000003267105& CONSTRUCTION SUPPLY                                   20500
A4101400550000003266982*****                                                    0501
A0101412340000003348634GABRIEL S. SALCEDO                                       0501
A0101412340850084786001MIRACLE GRACE S. DUMIP-IG                                0501
A0101404840851478374038EVANGELINE UMALI                                         0501
A0101406750000000090942ADIVISO, SHIRARD LEONARDO CATIG                          0501
A01014067508520359810014K MEDICAL & DENTAL SUPPLY                               0503
A0101413860000001887103CALAMBA, GENEVIVE LEONES                                 0501
A0601400230000002650120CAO, MARIA THERESA TUBIG                                 0502
B0101418520003002000029**********                                               2010
B0101418520920302000022**********                                               2001
B0101418360410432000011**********                                               2003
B0101418360920432000022**********                                               2001
