F01014130200000000567844TH WALL PRODUCTION DESIGN                              12602CKR
F0101413020000000056784STATION                                                 22600CKR
F1001400190231048767001MSU-IIT NMPC PUERTO-CDO BR.                              2602CKR
F0901400190431038091001PEASE CORPORATION                                        2601CKR
F1301400210682033690001FELIZA JAZZ CORPORATION                                  2601CKO
F1301400210682712312001ALVAREY CORPORATION                                      2602CKO
F4101400260812478302001CHITO Y. OLBIDO OR                                      12505CKO
F4101400260812478302001AGNES C. OLBIDO                                         22500CKO
