A0101410720000004626324BERNAL, GELYN SADIWA                                     0501
B0301400950000001379648**********                                               1602
B2001400290315043653001G & S SOLID CORPORATION                                  1605
A2001400290315688009001ALGOPERA, LLOYD GARCIA                                   0504
A0101406590662209239001ANNIE LOU OR EDGARDO CRUZ                                0501
A0101401250000008460008YAO, EDISON UY                                           0501
A0101400150000004915260DIAZ, MA. GRACIA, CASALS                                 0501
B0101400150061015841002ENZIMA INTERNATIONAL, INC.                               1602
B0101400150061047235001ROYAL METRO POINTE DEVELOPMENT INC.                      1603
A0101400150061337010163RAZON MORALES                                            0502
A0101400150061456754002ANCHETA, ANGELINO TAGUIBAO                               0502
A0101405810072376922001LALLAVE, GONZALO GAN                                     0501
B0601400100081015753001TAPANG REALTY COMPANY                                    1603
B0601400100081016360001T. CAPATI ESTATE & DEVELOPMENT CORP                      1601
B0601400100081487023001CAPGUN LONG MILES CORP.                                  1601
B0101400730111014312001NGC MEDICAL SPECIALIST CLINIC, INC.                      1610
A0101407270000004915908LORENZO, TRICIA MARIE SOLANOY                            0502
B0101407270162019008001ORIENTAL & MOTOLITE MARKETING CORP.                      1610
A0101407270162528842003MIGUEL ROBERTO M. GARCIA                                 0506
A0101407270162690201001******                                                   0501
A0101401090171196024002ASUNCION PILAR GUTIERREZ OR                             10501
A0101401090171196024002RUTH V. GUTIERRE                                        20500
A0101401380000005219892DE CASTRO, MA LEAH CARBALLO                              0501
A0101401380000005219905COBARRUBIAS, MARIA CECILIA                              10502
A0101401380000005219905DELA CRUZ                                               20500
B0101401380201034271004LC BUILDERS AND DEVELOPERS, INC.                         1604
A0101413020000006295361ROJAS, RINCHON MONDEJAR                                  0501
B0101410720653035012001GENERIC SAVES DRUGSTORE                                  1604
A3101400160000014144008CANLOBO, FRANK DANIEL ALGER                              0501
A3101400160000014476641BUGUIS, JONELLE GRACE ANGELES                            0501
A3101400450000005960530PAPERA, ELENA DE GORIO                                   0501
A3001400130000001271330PITOGO, VINICAR PASA                                     0505
B1001400190231274341003JAVIER, WILFREDO G.                                      1602
A1001400350000003867250PEARSON, LAARNIE PEARL ROA                               0502
A1001400350000012928155LOBUSTA, CHERYLL AURORA BORROME                         10501
A1001400350000012928155OR LOBUSTA, ERNAN R.                                    20500
B1001400480000011809820TORREPALMA, JELLYFE CELESTIANO DBU                      11602
B1001400480000011809820VIBRANT DOCUMENT                                        21600
A1301400470000000366574ROBERT DE BELEN CUNANAN                                  0501
A1301400760000011058370 MARILYN FIGUEROA SOLIMAN                                0501
B0101401670000011534375MABUHAY ENERGY CORPORATION                               1601
A0101406620000004925873THELMA DE LEON                                           0502
B0101410980000006014551FATIMA DOMINIQUE C. VENTURA AND GEREMY                  11601
B0101410980000006014551VANDER F. KHO                                           21600
B0101411820000003085094MEDINFINITY INC.                                         1602
B0101412470000003847507SUGARLAND GLOBAL HOLDINGS INC                            1603
A0101400570281332030002DR. SIMEON D. TANZO A.K.A                               10501
A0101400570281332030002DR. SAMMY TANZO                                         20500
A0101400570281519630001CARLOS, MARIA ARLENE DUMANDAN                            0502
B0501400200000004456902CBE ESTRADA PAWNSHOP, INC.                               1605
A0501400200000002306025QUISMONDO, ARNEL LAPENA                                  0501
A6601400120314041602001LEXTAN GENERAL MERCHANDISE                               0505
A6601400120000008490284UY, CHRISTIAN EMMANUEL WAN                               0501
B3401400280318028083001LEMACEL TRADING CORPORATION                              1610
A0101402350000012300411PASANDALAN, MORSHIEDAH HABIB                             0502
A0101405650000003893476TAMBUNTING, JOSEPH SUAREZ OR                            10502
A0101405650000003893476TAMBUNTING, IAN                                         20500
B0201400760000011325618FAST UNIMERCHANTS INC.                                   1601
B0201400760000011325629FAST DISTRIBUTION CORPORATION                            1601
B0201400890000005491363ECC SCHOOL OF GLOBAL COMMUNICATION                       1602
A0101402930381205232001DELIA D. REVILLA                                         0501
A0101402930381205755001JAIME B. ESTRELLA                                        0501
B0101408370382034300001GRAY AND ALL PLANNERS CORP.                              1602
A0101408370382418195001MOISES T. CLAVERIA JR.                                   0501
A0101408370382436793001DR. ESTHER FREDELYN M. TOMAS                             0501
A0101408370000000014542GO, ANGELICA MONTANO                                     0501
A0101408400394412594001DE VILLA, ARRIEL DE ROXAS                                0501
B0101408950396026318001GLOBAL CITY AUTO SALES, INC.                             1605
A0101408950396563723001CELLONA, CLARISSA VILLARAMA                              0503
A0101408950396564287001DR. IMELDA S. ESTRELLAS  OR                             10502
A0101408950396564287001ESTRELLAS,REGINE ISABELLE                               20500
A0101408950000005325571TAN, JOHN ERIC NGO OR                                   10501
A0101408950000005325571QUIROZ,BERNICE V                                        20500
A0101408950000011598799MAGNAYE, EVANGELINE SAPIN                                0501
B0101409210398632476001C3 INTERACTIVE MANILA, INC.                              1604
A2401400180000014562353BIALA, PSYCHE DARYL LECERA DBU                          10501
A2401400180000014562353PSYCON ENGINEERING                                      20500
B2401400180411014383001RD EMPLOYEES CREDIT COOPERATIVE                          1610
A2401400180411343202003KOJIMA, LEONA PATAYAN                                    0502
B2401400180411394620003DE GUZMAN, VERNA JOY ROGADOR AND                        11601
B2401400180411394620003HIDALGO, LIZA R.                                        21600
A1201400150000011415875SOMNGI, ESTEBAN ACROPEN                                  0503
A1201400150000009997115CORPUZ, DIANNE ACOSTA                                    0502
B0101406330000000011690DEUSTONE CORP.                                           1601
B0101406330472046636001ENERTECH SYSTEMS INDUSTRIES, INC.                        1610
B0101410140000005945184HERRERA, JOSEPHINE C. DBU HERRERA A                      1605
B0501400170000013648023BIO-TECH MARKETING CORPORATION                           1603
B0501400170000013295917LEAD WITH INTEGRITY AND GOOD GOVERN                      1603
A0501400170000006300629GAZMEN, ARNEL GERARD RAYOS                               0503
A0501400170481376327001RIVERA, ROSARIO ZARCAL                                   0502
A0501400170000002354510BERMUDEZ, ELSIE MALAPIRA OR                             10502
A0501400170000002354510LEIZA JR., JUANI                                        20500
B0501400170000001072957ALEJO, ERVIN MARQUEZ AND ALEJO, NORMAN                  11602
B0501400170000001072957MARQUEZ                                                 21600
B1901400320000014568984MACATANGAY, MARICAR EJE DBU XMARKLEY'S                  11601
B1901400320000014568984MEDICAL SUPPLIES                                        21600
A1901400160000007581026MERCADO, CELIS DE LEON                                   0501
A1901400160491298552008VILMA F FALCUNAYA                                        0502
A1401400110000014232150JONG, CLAUDINE MEJARES                                   0501
B0101408530516005188001SEARCHERS & STAFFERS CORP.                               1605
B0101403450521011882004PAN PACIFIC TRAVEL CORPORATION                           1602
B0101403450521305942001**********                                               1601
B0101403610531068604001BALDO, E DBU INTENSITY HARDWARE AND                     11603
B0101403610531068604001SUPPLY AND BALDO                                        21600
A2201400250000012982555HOBAYAN, PEARL GRACE AGUSTIN                             0504
B0101404130000000001241PREMIER CREATIVE PACKAGING, INC.                         1604
B0101407720000000885656JBB & AFB CORPORATION                                    1601
A0101404260000005446904**********                                               0502
A0101404260611151278002OFELIA F. RAMOS                                          0501
A0101404260611151571001*****                                                   10505
A0101404260611151571001*****                                                   20500
A0101404260611491958001******                                                   0501
A0101409890649741648001LIM, KIAN PANG                                           0502
A0101411530000011326075**********                                               0503
A0101413990000014570044MADRONA JR., SEVERO CANETE                               0501
A0101414120000011288965DOROTHEO, POLEE CASINILLO                                0501
B0101406590662037318001NETWORK TWENTYONE, INC.                                  1601
A0101406590000000131604PALMA, TADEO MUNOZ                                       0501
B1301400340683035600001H.C. METAL MANUFACTURING CORP.                           1601
A1701400230000011517423PAZ-TAN, LIZA MARIE RIOS                                 0501
B1701400230000008555022KOOKEE HOUSE, INC.                                       1610
A1701400230000008555186LEE, ALAIN CHUA DBU VIKING CONS                         10502
A1701400230000008555186TRUCTION OR LEE, MARIANNE                               20500
B0101408240711042133001GOOD SHEPHERD ACADEMY OF TAGUIG, INC.                    1603
A0101408240711396778001MA. FRANCESCA ROMANA OR                                 10501
A0101408240711396778001PHILIPPE SEYER                                          20500
B2801400230000000372770DBA GLOBAL SHARED SERVICES INC.                          1603
A4101400260000006042991CRISTINA P. IGNACIO                                      0502
A4101400390000000048651TIAMZON, ALTHEA MARIA SANTOS                             0502
A4101400420814478374026FLORENCIA DELA CALZADA                                   0501
A4101400420814598473001YAMAT, MARISSA V. OR                                    10502
A4101400420814598473001YAMAT, ARISTOTLE                                        20500
A4101400550815671722001**********                                               0502
A0101404840000014562473AZANZA, LILIA DIZON                                      0501
A0101404840000014562666GARCIA, VANESSA TAN                                      0501
A0101404840000014562780LUCAS, JUANITA DELA CRUZ                                 0501
A0101404840000014562882MARTINITO JR., LIBERATO HERBERT                          0501
A0101404840000014562951PEREZ, APOLONIA MACATANGAY                               0501
A0101404840000014563050VILLORIA, MARTIN FRANCIS TIONGS                          0501
A0101404840000014563141SANTIAGO, MARIA EDEN MEJOS                               0501
A0101404840851217637025ARCHIMEDES D. CORPUZ                                     0501
A0101404840851217637103SERAPIO R. MABILANGAN JR.                                0501
A0101404840851520766065TAYSON, FERNANDO                                         0501
A0101404840851520766073ELIZABETH A. SUAZO                                       0501
A0101406750000002040339DELA CRUZ, HANNAH SANTOS DBU PA                          0501
B0101406750852066061001CS-PAC GLOBAL BPO INC.                                   1602
A0101406750852669100001DUDANG, VICENTA TOLENTINO                                0501
B0101405070000000428900BLUESHIFT INC.                                           1601
