A3801400170490761000001NENITA R BERNARDO                                        0502
A0101412890000012474265*********                                                0503
B0101405810000000016884PLASTIC CONSUMER CORP.                                   1601
B0101405810000011484569JB MERCHANDISING INC.                                    1602
A3001400130230767566087EMPLOYEES OF SANTOS CLINIC, INC                         10501
A3001400130230767566087ORLAN CHAN JR.                                          20500
A1901400290261244419001NICASIO V HERNANDEZ                                      0503
A1101400120000001547508DESUASIDO, IMELDA FAJARDO                                0502
A1101400120000006081103BACSAL, EMMYLEEN BATAWAN OR                             10503
A1101400120000006081103BACSAL, DAVID DA                                        20500
A1101400120000003981102EVARDONE IV, REYNALIS ORGAS                              0501
A1101400120313478374116MASIN, NANCY KELISTE                                     0501
B0101411370000000018168AREVALO, RAQUEL RAMONA R. DBU RR-EIGHT                  11603
B0101411370000000018168MARKETING                                               21600
A0101411370000003294900FARRALES, MARCUS GLEN B. DBU                            10503
A0101411370000003294900GOLDLINE BROKERA                                        20500
A0101400150000010560380MAGSINO, FERMINA CASAL                                   0501
B0101400150061022669001ST. TYKE, INC.                                           1610
B0101400150000010164502RED ROCK SECURITY INC                                    1602
A0101400150061697165001SERVER, CATHERINE ANNE B. OR                            10502
A0101400150061697165001CHRISTINE MICHEL                                        20500
B0101405810000001021172PUA, C DBU MCK SCHOOL & OFFICE                          11603
B0101405810000001021172SUPPLIES                                                21600
B0601400100000007185357LUSCIOUS LILAC ENTERTAINMENT INC.                        1602
B0601400100081034116001FIESTA COMMUNITIES INCORPORATED                          1610
B0601400100000005690519MICRO-B, INC.                                            1603
A0601400360000013780253FREIRE, PHILIP VINCENT ROY RUST                          0501
A0601400520000009516883GODINEZ, VERGEL DELA PENA OR                            10502
A0601400520000009516883GODINEZ, OLIVE Q                                        20500
B0601400520000009516372D' CHIX OPTION, INC.                                     1605
A0101413280092055822001CHERLYN ANN SO DBU C.A.S                                10501
A0101413280092055822001PROPERTY MANAGEMENT                                     20500
A0101414090000003314843VILLANUEVA, KENNETH BAYLON OR                           10502
A0101414090000003314843VILLANUEVA, JO-AN                                       20500
B0101410850000013190933RDC REIELD MARINES SERVICES INC.                         1602
B0101410850000013190955LMDC CORP.                                               1605
B0101410560110061721002CCT CREDIT COOPERATIVE                                   1601
B0101410560110061721003CCT CREDIT COOPERATIVE                                   1601
B0101410560110061721004CCT CREDIT COOPERATIVE                                   1601
B0101410560110061721005CCT CREDIT COOPERATIVE                                   1601
B0101410560110061721006CCT CREDIT COOPERATIVE                                   1601
A0101401960000004419772**********                                               0501
B0101401830141045610001INTERZONAL COURIER SERVICE                               1601
A0101401830141582040001EDNA FABREGAS HERNANDEZ                                  0505
A0101401830141710891001LEE, RINA FALCIS                                         0501
A0101400440161039572036ANTONIO S. VILLANDA JR.                                  0502
A0101401090000015531310HAPAN, MA. FRIEDA ZAPANTA                                0501
A0101401090171197850001TERESITA G. ALMADIN                                     10501
A0101401090171197850001OR ROMEO G. ALMADIN                                     20500
B0301400660000000048257BERNSTER MINING EXPLORATION AND AGRO-IND                11605
B0301400660000000048257USTRIAL CORP.                                           21600
B0301400660000013311038MANAGRA TRADING CORPORATION                              1605
A0301400950000005707182HERRERO, KENNETH DON S. OR                              10502
A0301400950000005707182HERRERO, FANNY GIRL C.                                  20500
B0301400950000012244858VICTORY CHAPEL CHRISTIAN CENTER OF                      11605
B0301400950000012244858DAVAO CITY, INC.                                        21600
A0101401380000015062552GALICIA, CARINA DELA PENA OR                            10501
A0101401380000015062552GALICIA, ANNA DELA PENA                                 20500
A0101413020000000057003********                                                 0501
A3101400160221494732001CHRISTINE L. DADO                                        0501
B3101400450223010142002FORTUNE CORPORATION                                      1605
A3101400450223310377002PENALOZA, RAINIER OR ROMA                                0501
A3101400870000005410224BLANCO, RUSSELL SIMSUANGCO                               0502
B3101400870225061853001RAIDAN TRADING & CONSTRUCTION, INC.                      1605
A3001400130000001261283LIM, EDGAR ALLAN DIAZ                                    0502
A3001400130000014114211TABINAS, JULIET CABATUANDO DBU                           0505
A1001400190000008743875OCERO, ALGENE ALEJAN OR                                 10501
A1001400190000008743875VALDEHUEZA, KENT                                        20500
B1001400190231022073001FARASIA EDUCATIONAL LIBRARY COR                          1601
A1001400190231446795001SAARENAS, LOIDA TAN OR SAARENAS                         10501
A1001400190231446795001JR., JULIAN                                             20500
A1001400190231478374012FARINAS, EVA MAE CENTO                                   0501
A1001400190231520766042GEOTORO, INES MANGUILIMOTAN                              0501
A1901400290000002337748NOVA RIVERA DE CASTRO                                    0501
A1901400290000012352093LEAH LEONIDA SUAREZ                                      0501
A1901400290000001975244LIEZL LUNAR COMIA                                        0502
A1901400290261250069001DRA. JABES BUCE CARRASCOSO                               0505
A0101401670271507870001MANUEL, PATRICIA SUACO                                   0502
A0101411820000012245668PANGILINAN, SATURNINO VILLARTA                           0501
A1101400120000001920576EDER, CONCORDIA ECO                                      0502
A1101400120313478374004ALBESA, JONALYN D.                                       0501
A1101400120313478374071ZACARIAS, MARIA FE LERIOS                                0501
A6601400120314042312003NORSAM BUILDERS & CONSTRUCTION                          10503
A6601400120314042312003SUPPLY                                                  20500
A6601400120000003084717DATO JR., BAYANI EVARISTO DBU C                         10501
A6601400120000003084717CONSTRUCTION JT                                         20500
A6601400120000010637664LAYON, GILBERT FIGUEROA                                  0502
B3401400280000006791020RAPHAEL JR & CHERYL &ROSARIO DEL ROSARIO                11603
B3401400280000006791020&DADIVAS, JOANNE                                        21600
A0101405650000012457277ABOTANATIN, FILIPINA CALDA OR                           10501
A0101405650000012457277ABOTANATIN, ARNEL HAGOS                                 20500
B0101402060351009394002CHEMSERVE INC.                                           1601
A0101408790000005703402MARK LOUIS G. MENDOZA                                    0501
A0101411660000015086069SUAREZ, AUGUSTUS PORNILLOZA                              0506
B0101411660000000032242ALERT GENERAL SERVICES CORPORATION                       1615
B0101402770000001571233LEADER GARMENTS CORPORATION                              1605
B0101402770000001571579LEADER GARMENTS CORPORATION                              1605
A0101402770391187974003DEE PONA, DARWIN ANTIPOLO                                0501
A0101402770391338470001ALARCON, EMELITA DE LEON                                 0501
A0101402770391383276018MICHAEL ADRIAN BORJA                                     0502
A0101405490000004808602RANTE, NENITA GAYOL                                      0501
A0101405490392563453002ALLAN L. DE GUZMAN OR                                   10501
A0101405490392563453002MARIVEL R. DE GU                                        20500
A0101408400394041759001BUILTLINE INTERIOR FINISHES AND                         10501
A0101408400394041759001CONSTRUCTION                                            20500
A0101408400000010394237YONGGONG BUILDERS                                        0502
A0301400820000005196658PRADEL, KARENNE F.                                       0501
B2401400180411044070001MABUHAY TECHNOPARK CORPORATION                           1602
A2401400180411333023088BOHOLST, PERCY SISTOSO                                   0505
A0901400220432478374002EVELYN ALGA DEMECILLO                                    0501
B0101403320000013283659ANHUI TIANRUN CONSTRUCTION                              11601
B0101403320000013283659GROUP CO. LTD                                           21600
A0101403320471400801001MARILEN I. CRUZ                                         10503
A0101403320471400801001OR DENNIS MICHAEL CRUZ                                  20500
A0101403320471428227001FERRY R. ANOLIN                                          0501
A0101403320000015139923KAYE S. PONCE                                            0501
A0101406330472213329001EVANGELINE G. REAL                                       0503
A0101406330472573170001WILLARD SY GO                                            0504
A0101406330000001235370F. G. NUCUM                                              0502
B0101412760000007822013E-BLACKBOARDS LEARNING AND SOLUTION                      1602
A0501400170000006300783VEEDOR, CHARMAINE APPLE LLAMAS                           0501
A3801400170000012458947INCIONG, RICHARD VALENCIA                                0501
A3801400170000012458947INCIONG, RICHARD VALENCIA                                0501
B1901400160491035389001SAINT PATRICK'S HOSPITAL, INC.                           1610
B1901400160491043142001ALIGN MARKETING INC.                                     1601
B1901400160491341189001VIRGINIA V LIM OR                                       11601
B1901400160491341189001RICHARD D LIM                                           21600
A1401400110492033515001BARCELONA & ASSOCIATES, CPA'S                            0501
A1601400170000009954341JACOB, KARLO DIMAANO                                     0501
A0701400260000006215670MURODA, MICHAEL ANTHONY                                 10502
A0701400260000006215670FERNANDEZ                                               20500
A0101408530000002260015TAN, PINKIE ONG                                          0502
A0101408530516571877194SANCHO, MARIA TERESA R.                                  0501
A0101411790518681263002TIMOG, ANALIZA MANAHAN                                   0505
A0101412050000013784160TSAI, CHIN-SHENG                                         0501
B0101404130601016662001PAYROLL SERVICE PROVIDERS, INC                           1603
B0101404130000004437172GAME CRAFT, INC.                                         1602
B0101404130000004437183GAME CRAFT, INC.                                         1602
B0101404130000004437194GAME CRAFT INC.                                          1602
A0101407720000010907736QUIOGUE, ALMA PURA GILLEGO                               0501
A0101412180000010719689WARREN, MARTIN NOLASCO                                   0502
A0101409920000000998569MEMBERS OF NATASHA (SHOECAT INC                         10501
A0101409920000000998569PEDROSA, JULIE                                          20500
A0101409920000000118512NACUA, CYD CANDICE VENIEGAS                              0501
A0101407690000005198132BERMASE, ELIZABETH TAN                                   0501
B0101413440000011893180EVOLANDER MOTOR CORPORATION                              1603
B0101414120000003584281JD & P FOOD TRADING CORPORATION                          1602
A0101406590662354457001DOMINGO M. DE GUZMAN JR.                                 0502
B1301400210682016750001JFL AGRI VENTURE SUPPLIES                                1606
A1301400340683323170001CHUA, LIGI TAN                                           0501
A1301400500000014799394DR. LEANDRO P. DE GUZMAN                                 0501
A0101408240000002822062TY, ANNETTE SO                                           0502
A0101408240711398939001FERNANDEZ, CHARLES HESED P. JT                          10503
A0101408240711398939001FERNANDEZ, STEPHANIE ANNE                               20500
B0101408240711691416001FIVESOME INC.                                            1601
A4101400260000012856925ADAMS, WILLIAM                                           0501
A4101400260000012865551NARULA, UDIT                                             0501
B4101400260812012893001VV PROPERTY HOLDINGS CORPORATION                         1602
A4101400260812247613001LUZVIMINDA J. ESTOCADO                                   0505
A4101400260000001673452VELUZ, RONALD VILLANUEVA                                 0502
A4101400260812460928001FELINA S. ANTANG                                         0501
A4101400390000007459289EVANGELINE A. DENILA                                     0502
A4101400420814520766061ESTILLERO, SUSANA O.                                     0501
A4101400420000002345280ACOL, FELOMINA ADOAN                                     0501
A0101404840000001312678ONDOY, FRANCISCO PALER                                   0502
A0101404840000003069834MARCELO, MERIAM A.                                       0503
A0101404840851217640001CONCEPCION L. FERRER                                     0501
A0101406750000010508993CENON, YVONNE BACOLOD                                    0501
B0601400230000010299211RD PAWNSHOP, INCORPORATED                                1605
