B0101405650322821100608**********                                               2003
B0101405650322821100608**********                                               2003
A0101401250021183070002CORLET, EVELYN LACERNA                                   0502
A0101400440000009591860**********                                               0501
A1001400350233478374020ELMA O. GAWAT                                            0501
A1101400120000003197011CHUA, THERESA ANG OR                                    10501
A1101400120000003197011CHUA, PETER JUST                                        20500
A0101402350321176404002MATIAS, GINA A. OR DANILO M. OR                         10501
A0101402350321176404002MATIAS JR., DANI                                        20500
A0101400860011402223002**********                                               0503
A0101400860011412773001**********                                               0505
A0101400860000001348692**********                                               0501
A0101400860011779757001**********                                               0505
A0101400150061230211001JESUSA T. AGABIN                                         0501
A0101400150061315349052LILIAN MAKALINTAL                                        0501
A0101400150061555486001PERALTA, ANA FE DULDULAO                                 0502
A0601400100000009324049REUTTER, MARIA CHERRYL EVIDENTE                          0503
A0601400100000012778593EMPLOYEES OF RMS COLLECT PHILS.                          0502
A0601400100000010025013OSTONAL, HARLAN MAMISAO DBU IKA                          0505
B0601400100081335078001RUSH, MIRIAM OSTONAL                                     1605
A0101414090000006211694GICARO, RAY JACOB EDQUILA                                0501
A0101406040000000097001********                                                 0502
A0101406040112653549001JEANETTE G. SY                                           0505
A7201400170000013006745PAULIN, GYRNYLL ALBARRACIN                               0501
A7201400170000011160700LOQUIAS, CECILIA VIDAD                                   0501
A7201400170000013006916G & A YAP TRUCKING SERVICES                              0502
A0101412920000016174413CCA DIGITAL PRINTING SERVICES                            0501
A0101400440161525001174RIZALYN V. GUNTANG                                       0503
A0101407270000000010060SPIRO CLEMENTE OR                                       10502
A0101407270000000010060JENNIFER CLEMENTE                                       20500
A0101401090000016169916LINGAN, MARY CLAIRE OR LINGAN,                          10501
A0101401090000016169916MARIA CORAZON IMELDA                                    20500
A0101401090171195802001EVELINA N. LAGAMAYO                                      0504
A0301400530000000066077SHI, PING PING                                           0503
A0301400530000002318561VILLANUEVA, FEDERICO MAGPAYO OR                         10501
A0301400530000002318561VILLANUEVA, MARI                                        20500
A0301400530000013781110CABONITA, LEO LUAGUE                                     0501
A0301400530193671710001TULEN, JAN MICHAEL AAMES L. OR                          10501
A0301400530193671710001TULEN, LUCILLE M                                        20500
A0301400660194731082088PEJI, JUNE ANN SOLER OR PEJI,                           10505
A0301400660194731082088JONATHAN CORTES                                         20500
A0101401380000001819809TOLENTINO, MAUREEN CENTENO                               0501
A0101410720000006239723LADIA, APRIL IRIS RUPIDO                                 0501
A0101410720000006239723LADIA, APRIL IRIS RUPIDO                                 0501
A0101410720000007843425LADIA, APRIL IRIS RUPIDO                                 0502
A0101410720000007843425LADIA, APRIL IRIS RUPIDO                                 0504
A0101413600000005355033MARY LORELLEI CARMELLI ARENAS                            0501
A3101400160000006497814LU, MARITES A. OR LU, JUSTIN A                           0510
A3101400160221329641001CARMELITO F. CARACUEL JR. OR                            10501
A3101400160221329641001ROWENA B. CARACUEL                                      20500
A3101400160221533266001ANGELITO S. LAZARO JR.                                   0503
A3101400740000016168673GUPTA, MANEESH .                                         0501
A3101400870000016173381PEROCHO, SHAYNE O. DBU BABYBITS                         10501
A3101400870000016173381ACTIVITY CENTER                                         20500
A3101400870000005410020CONCEPCION, ROEL S. OR                                  10501
A3101400870000005410020DE LA ROSA, JOSE GLEN Y.                                20500
A3001400130000001271556WABINA, JOEL BASADRE                                     0501
A3001400130000005708625ESPINA, YVONNE MAY                                       0501
A1001400350233478374001JUNIO, ROGELIA A.                                        0501
A1001400350233619429001DIONSON, JOEL PADOR                                      0502
A1001400480000003357771ESTILLORE, YVONNE GUMAPAC                                0501
A1301400760000002346129JIMMY C. CENA                                            0503
B1301400760000010656807SOLIDMIX AGGREGATES CORP.                                1602
A1901400290000012081268NINA RODRIGUEZ ILAGAN                                    0501
A1901400290261478374024NANCY MOJARES PALO                                       0503
B0101401670271014934001KINGS HOPEWELL GROUP CORP.                               1602
B0101406620000011433188CROWN ROYAL DISTILLERS, INC.                             1601
B0101406620000000193902EAST PACIFIC STAR BOTTLERS PHILS INC.                    1601
B0101406620000009695152GVALUE TRADING CORP.                                     1603
B0101406620000009695163ITECH SYSTEM SOLUTIONS AND SERVICES                      1603
A0101400570281494522001SISON, RICARDO JOAQUIN V.                                0501
A0101411240000016171050SE, KATHERINE                                            0502
A0501400200000002306070ORPIA, MARY HAZELLE BRAULIO OR                          10501
A0501400200000002306070PEREZ, RONALDO P.                                       20500
A2601400270000014231204LORELEI S. RANJO DBU LORELEI                            10502
A2601400270000014231204BUYING STATION                                          20500
A1101400120313572041001YAO, MARK ALAIN GO                                       0501
A6601400120000013858023DIVINA, ALEXANDER ANCHETA DBU                           10502
A6601400120000013858023AAD ENTERPRISES                                         20500
A6601400120000006154149UNAY,JOEL DBU YO-EL ENGINEERING                         10501
A6601400120000006154149DESIGN CONST. & SUPPLY                                  20500
B6601400120314539341008PORAQUE, VICENTE TAN OR TAN, SANTOS LEE                  1610
B6601400120314617698002CATARMAN DOCTORS HOSPITAL, INC.                          1610
A6601400120000006154689UY, FLORIANE D OR UY, CHRISTIAN                         10501
A6601400120000006154689EMMANUEL WAN                                            20500
A0101402350321638505001********                                                 0502
B0101405650322172207001BF TRADERS MULTI-PURPOSE                                11603
B0101405650322172207001COOPERATIVE                                             21600
A0101405650322688572001JAVIER, MIGUEL ALFONSO BUNCIO                            0501
B0101402510341035591001PALACE APARTMENTS CONDOMINIUM                           11603
B0101402510341035591001CORPORATION                                             21600
B0101402510341060430001STANDWELL CORPORATION                                    1602
A0101402510341202843003CONSTANTINO, JOSE GREGORIO OR                           10501
A0101402510341202843003CONSTANTINO, MARICHU                                    20500
A0101409050000002971384RESULLAR, ALLEN CURAY                                    0501
A0101409050000009065043CARLO A SUBIDO                                           0502
B0201400760374026695001HJR INTERNATIONAL CORPORATION                            1603
B0201400920375041285001VIRLO CONSTRUCTION DEV. CORP.                            1605
A0201400920375512966002LIM JR., MANUEL OR LIM, IMELDA                          10503
A0201400920375512966002OR LIM, SANTIAGO                                        20500
A0101402930000007031238KAPUNAN, SANTIAGO ANGELO OR                             10501
A0101402930000007031238BARCELONA, MARIGOLD ANA D                               20500
B0101402930381040393001RESOURCE ONE CORPORATION                                 1601
B0101402930381047467001FLUID SOLUTIONS, INC.                                    1601
B0101402930000005645894CE INTERNATIONAL DISEGNO INC                             1602
A0101402930000007030946ESPINO, MA.SUSANA S. OR                                 10503
A0101402930000007030946ESPINO JR.,  JUANITO G.                                 20500
A0101408370000011287320*********                                                0502
A0101408790000005251132DOLORITO, HERSHEY SAN DIEGO                              0501
A0101408790000000931093KAW, CHRISTIAN ALLEN CHEN                                0502
A0101415350000015170522IBAY, LOLITA ABIAD                                       0501
A0101405490000004353064MORALES, ADELAINE MARIE ALMEDA                           0501
A0101405490000006214160LUCIANO, LIZELLE SAMSON                                  0501
B01014054903920389180021STSERVE LOGISTICS, INC.                                 1601
A0101408400000001981542CUANO, MARITA GUEVARA                                    0502
A0101408400000014838436GADUYON, LILYN ARANZADO                                  0501
A0101408400394031949001ROBIMIKO ENTERPRISES                                     0503
A0101408400394409317001BANDWAGON ENTERPRISE                                     0501
A0101408400394444684001SY-WICO, MARY GRACE DORIA                                0502
A0101408400394478374094NUNEZ, GENIE                                             0501
A0101408400000006813705ORTEGA, NANCY BANAGLORIOSO                               0502
A0101409210000010895511ANGELES, FRANCIS VITUG                                   0502
A0301400820000010546562BULILAN, EMILIA M.                                       0502
A5501400120000014312419PERNIA, NELLY MARTERIOR DBU                             10502
A5501400120000014312419NELLYPERN ENTEPRISE                                     20500
A5501400120410636179018CHIU, VALENTIN & JULIA EILEEN                           10504
A5501400120410636179018& CHRISTIAN & CH                                        20500
A2401400180411032438001DADIANGAS AUTOWORLD PARTS                                0504
A2401400180411045435001HP FRANCISCO CONSTRUCTION                                0510
B2401400180411056764001RD PAWNSHOP, INC. - GENSAN REGION                        1603
A2401400180411478374020MORI, LYDIA                                              0502
A0901400220000011299262THREE J BUILDERS AND DEVELOPER                           0502
A0101412890000014437482FRANCISCO, CRISTINA LETADA                               0502
B0101403320471031672001JARECA PETRON SERVICE STATION                            1601
A0101406330000014145030RAMOS, JOSE NINO SANTOS                                  0503
A0101406330472478374032ROSALINDA R. TOMAS                                       0501
A0101412760000007822188CLAMOR, CARLO CABIDOG DBU JQC                           10502
A0101412760000007822188INSURANCE SERVICES                                      20500
A1901400320489409608001DAEL JR., DOMINGO DURANA                                 0502
A1901400160000013233471MAGADIA, EMETERIO                                       10501
A1901400160000013233471OR MAGADIA, MYRA                                        20500
A1901400160000016150337MANDOCDOC, PATT FLEXL MANDOCDOC                          0501
A1901400160000016173803RAYMUNDO, MARGARITA ANN CANTOS                           0501
A1401400110000003475887SY, TERRENCE KENNETH ROCES                               0501
A1401400110000011337578DIAMANTE, KRISTINE TALAVERA                              0501
A1401400110492064340001DY, D DBU DAVE AND GOLIATH ENTE                          0502
B1401400110492365609001JEORGE S MALIGAT - PILIPINO HARDWARE AND                11601
B1401400110492365609001CONST. SUPPLY                                           21600
A1401400110492478374010BACULI, TERESA D.                                        0504
A1601400170000013603100LUISTRO, GEORGIA SOFIA G.                               10502
A1601400170000013603100OR LUISTRO, LUISITO B.                                  20500
B1601400170000014244914PACARDO, MARC JOSEPH DBU MARC &                         11602
B1601400170000014244914JOSEPH'S EVENTS                                         21600
B0101407430000016026316LEIGEMS TRADING INTERNATIONAL CORP.                      1601
A0101407430503370409003ROSEMARIE MORADILLA                                      0501
A0101407430503433655001DANIEL F. FURAQUE                                        0502
B0101403580000010847408CAVITEX HOLDING CORP.                                    1602
A0101403580511155834002PURIFICACION SANTIAGO                                    0503
A0101405940000005068322ALCANTARA, ARMIN SAMONTE                                 0501
A0101405940000007298471MARY AIMEELYNNE G OCENAR                                 0501
A0101408530000016163956DELA RAMA, GIAN PAULO GARRA                              0501
B0101403450521011774002**********                                               1602
A0101403610000006637432SANTOS, MARK ALVIN BUSTAMANTE                            0501
A0101403610000016147734GUTIERREZ, RONALD MATANGUIHAN                            0501
A0101403610000013665631MORANDO, JOVIT R DBU LOT AND                            10502
A0101403610000013665631TAN'S BAKESHOP                                          20500
A0101403610531279193002MORANO, ELISA QUEJANO                                    0501
A0101403610531717691001PONCE, LUISA BERNABE                                     0501
A0101403610531792048001MORDIDO, IRMA GAMBA                                      0502
A2201400250000010425311ROBERTO G. ROBLES OR                                    10502
A2201400250000010425311MELLANIE P. ROBLES                                      20500
B2201400250000001065963EXCITE AUTOMOBILES, INC.                                 1610
A2201400250000001065952ALICE B. DE VERA                                         0502
A2201400250561573412001GILBERT V. MANGUERRA                                     0501
A0101404130601450094003LORQUEL PASCUAL OR ANNIE                                10502
A0101404130601450094003PASCUAL                                                 20500
B0101404130601555406001TALIFUEGO PROPERTIES, INC.                               1601
A0101407720000004664615ENCARNACION, JOSEPHINE FAJARDO                           0501
A0101407720602316120001LUCIA CASTRO-FORES OR                                   10501
A0101407720602316120001MIGUEL EDGARDO FORES                                    20500
A0101407720602318369101JOHNNY B. SINON, MD                                      0505
A0101407720602643741001JAVIER, GAYNDAH LAMINTA                                  0503
B0101412180000001293016JENNIEDEDIOS INC.                                        1606
B0101409890000002136498**********                                               1601
A0101407690000015739936GO, KARLA JANE DELA ROSA                                 0501
A0101413570000002906567TORRES, LIZA CRUZ                                        0501
A0101410300663726407001PANGAN, LAMBERTO L. OR PANGAN,                          10501
A0101410300663726407001MA. TERESA L.                                           20500
A1301400500684760808001DEL POSO, MARLON SANTOS                                  0502
A0101408240000003955595BROWN-ARANETA, MICHELLE LANA                             0501
A0101408240000013171523BABARAN JR., J DBU JLB INDUSTRI                          0502
B0101408240000010815120BEYOND YOGA ALABANG INC.                                 1605
A0101408240000013983418GUTIERREZ, NATIVIDAD T.                                  0502
A0101408240711469368001CAGANDA, ANTERO JOSE MADARA                             10501
A0101408240711469368001OR JEANZIE LEE                                          20500
B2801400100712034844002MURAMI SUBIC TRADING CORPORATION                         1602
A2801400230000005752478BIRON, JUDITH MANLAGNIT                                  0501
A4101400420814559384001RIBOT, NORMA GAJE                                        0502
A0101406750852413660001ALCALA, ANGELO LUSOC                                     0505
A0101405070000010969790SUSAN DIZON LAUREOLA                                     0506
A0601400230000002650171SANTOS, K DBU ADRICH ENTERPRISE                         10502
A0601400230000002650171OR SANTOS, CARMINA                                      20500
A0601400230891479259001AMELIA M. ARCE                                           0503
