F0101401670271356341001FRANCIS OR GLENN OR MARK OR                             12520CKO
F0101401670271356341001LAWRENCE OR STEPHEN YU                                  22500CKO
F1501400140291256710002MARIO J. UMEL                                            2501CKO
F4101400260000001673394CANTIMBUHAN, MARIA PATRICIA AUS                          2504CKO
