B0101400600071026675001INNOVISTA TECHNOLOGIES INC.                              1601
A0101400600071233721001ONG, TERESITA A.                                         0502
A2601400270000003510772TIRZO L. PENAFLOR                                        0502
A0101400860000002333488**********                                               0502
A0101400860000005312856**********                                               0501
B0101400860000000030268**********                                               1605
A0101400150000003218055CHARLES KRISTIAN B. SAMSON                               0501
A0101400150000006433194SUIZA, ERIK JOSEPH MEJIA                                 0501
B0101400150000007599231ACCUBOOKS INC.                                           1602
A0101400150061453761188MARIA NELLIZA E. BERMEJO                                 0501
A0101400600000000007707TAN, CHESTER AARON OR TAN,                              10505
A0101400600000000007707LANCE KEVIN                                             20500
B0101400600071325133001CHUA, BIO TAN OR CHUA, CORAZON                           1602
B0101405810000011484569JB MERCHANDISING INC.                                    1602
B0101405810072083905001HONG, HAN MING                                           1601
A0601400100000013802192PINEDA, ANDRO LOUIE DIZON                                0501
A0601400100081545371002CRUZ, LESLIE BARREDO                                     0501
A0601400360000013780402KIM, SEUNGHWAN                                           0501
A0601400520000014433217DELIGENCIA, NANETTE GONZALES                             0501
B0101413730104060378002**                                                       1603
B0101413730104060379002***                                                      1603
A0101400730000001016248BON, ARLENE DBU BROBIO TRAVEL A                         10505
A0101400730000001016248SERVICES                                                20500
A0101400730111198710001FERNANDEZ, HENRY F. OR                                  10502
A0101400730111198710001FERNANDEZ, AMELIA                                       20500
A0101401960000006004591**********                                               0503
A0101413310000018762582SOLENO, EVANGELINE DIOSO OR                             10501
A0101413310000018762582TAGAMOLILA, EDGAR ALLAN B                               20500
A0101401830000001140010SANTOS, ROSIELYN LUCERO OR                              10501
A0101401830000001140010SANTOS, MICHAEL                                         20500
B7201400170152060597002JAVAVED DEVELOPMENT CORPORATION                          1604
A0101401090171196035001EDGARDO OR CECILIA ORLINA                                0502
A0101401090171196223001TEOFILO SAN LUIS JR. &/OR                               10501
A0101401090171196223001MA. VICTORIA SAN                                        20500
A0101401090171198596001DENIS C. NGO, M.D.                                       0505
B0301400790000000435727OUR BRIGHT SEEDS, INC.                                   1601
B0101401380201041802001D'GLACIERS' MGM INC. - MAC                               1602
A0101413020000006295327LLAMAS JR., LUIS SOLANO                                  0501
A0101413020000003055290JOROLAN, LIDA GALAPIN DBU G Y C                          0502
B0101410720000000030020BINGO PALACE CORPORATION                                 1605
A0101410720000007017405CERNA, CECILIA DBU CRN                                  10502
A0101410720000007017405ENTERPRISES                                             20500
B0101412500000018755189LANDGROUP INC                                            1601
B0101412500000018755601PEAKLAND PROPERTIES INC                                  1601
B3101400740224045253002MADISON SOUTH HOMEOWNERS' ASSOCIATION                   11601
B3101400740224045253002INC.                                                    21600
B3101400870000018703983EIGHT MEDIA ONLINE SOLUTIONS INC.                        1601
B0101408660274038999001FRASOR GLASS AND ALUMINUM INC.                           1601
A0101411820000003838153ANGUSTIA REBLORA                                         0501
A0101411820000003838211CHERRYLEN TORNO                                          0501
A0101412470000012130902PAGUIA, MYRA ANTONETTE DIONISIO                          0501
A0101400570281442475001AQUINO-AQUINO, PRUDENCE VALERA                           0501
B2601400270302045063001ISABELA UNITED DOCTORS MEDICAL                          11620
B2601400270302045063001CENTER, INC.                                            21600
A0801400160000016202150CELIZ, MYLA MIAGAO                                       0502
B1101400120313039102001ALVEZ COMMERCIAL INCORPORATED                            1601
B1101400120000000652880YAO, ANTHONY ROBERTSON GO AND YAO, MARK                 11610
B1101400120000000652880ALAIN GO                                                21600
B2001400290315081901001SILLIMAN UNIVERSITY                                      1650
A2001400290315644867001SY, BENSON GO                                           10501
A2001400290315644867001SY, MARGIE TERES                                        20500
A3401400280000017124208MAGUSARA, PATRICIO BUENAVISTA                            0501
A0101402350321331009001SIANY P. PADURA                                          0502
A0101405650000000448668BARDON, NELSON BELDA                                     0501
B0101405650000005382032OLYMPUS GLOBAL LOGISTICS INC.                            1602
B0101405650322172336001RCBP-OUR LADY OF GRACE PARISH                            1601
A0101405650322523964001BARDON, REMEDIOS BATALLA                                 0501
B0101402510341060430001STANDWELL CORPORATION                                    1602
A0101402060351504048001ZAMORA, FRANCES ROA                                      0501
A0101409050000010671451MICHELLE VALERIE L FONTANO                               0501
B0201400760374026694001BULACAN HJR INTERNATIONAL CORPORATION                    1602
A0201400920375524523001MIEL, PRINCESITA OR MIEL, ALEX                           0502
A0201400890000018759103AGUHOB, AGUSTINE KIMBERLY BAMBA                          0501
A0201400890000013008212********                                                 0502
A0201400890000018750902SIGNATURE CONCEPTS FURNISHING                            0501
A0201401020000000056415SORELA, DBU M.P. SORELA CONSTRU                          0501
A0101402930000002269161TAO, QI FEI                                              0502
A0101408370382617982001DRS. MARITA T. REYES OR                                 10502
A0101408370382617982001CORNELIO G. BANAAG                                      20500
B0101408790383039290001AUTO SOURCES INC.                                        1605
A0101415350000007878300CHEN, TENNYSON GO OR                                    10502
A0101415350000007878300CHEN, MARIA THERESA A.                                  20500
A0101402770391383276015HARRY M. SARMIENTO                                       0501
A0101408400394557338001PAULE, REYNALD BELTRAN                                   0501
A0101408950396399866001MARIA MONICA CARDINEZ-TAN OR                            10502
A0101408950396399866001EDWARD L. TAN                                           20500
A5501400120000012653275GUINTIBANO, JOEL JARDELIZA                               0502
A5501400120000017775136GUINTIBANO, JOEL JARDELIZA DBU                           0502
B2401400180411026932001NDBRC FOUNDATION KINDERMISSIONSWERK                      1601
B2401400180411033733033ECA RESOURCES, INC.                                      1603
A2401400180411475726001CED, JAN SYGO                                            0503
A2401400180411478374067CORTAL, CYNTHIA DE LEON                                  0501
B5101400100000010833957GAW, AIRY LUNA JT                                        1603
A5101400100000014191363DE ASIS, ADELAIDA BALOGO                                 0502
A5101400100000014191534ABARRIENTOS, CARLOS EDQUILA                              0501
A5101400100000015856736LOPENA, GAYLE MIRABUENO DBU MED                          0501
B0101403030441039990001TOPTRUCK ENTERPRISES                                     1601
A0101403320000017792631TALAGTAG, RAMIL V.                                       0501
A0101406330472027958001A. ANOLIN ENTERPRISES                                    0502
B0101406330472040053001KUS OFFICE SYSTEM MFG. CORP.                             1603
B0101406330000012246872METRO-SOURCE CONSOLIDATORS CORP.                         1605
A0101410140000001074704LABORTE, BELEN GARCIA                                    0502
A0101410140475478374010PELAEZ, BEATRIZ GUEVARRA                                 0501
B3801400170000018229531FAJARITO, L JT DBU STARSHINE GRAINS                     11601
B3801400170000018229531TRADING                                                 21600
A3801400170000018762020CASUBUAN, JONAR P DBU LA LUCE                           10501
A3801400170000018762020FUEL STATION                                            20500
A1901400160000015260409DIMAANO, DARREL MILLAR                                   0501
A1901400160000015261128DIMAANO, DIANNE ALEGAR                                   0501
A1901400160000018753387BGARCIA TRANSPORT SOLUTION                               0501
A1401400110000005526990DIHIANSAN, CHRISTINE BRIOSO                              0501
A1401400110000017924826MOTAVALLI KACHAEE, LOURDES CAMA                          0501
A1401400110000017748731CAALAM, VICAR OMANDAP                                    0501
A1401400110000017625311OUYANG, SHANSHAN                                         0501
A1401400110000018330097HERNANDEZ, RIZZA GERONA                                  0501
A1401400110492023002001THESAURUS DRUGSTORE & GENERAL                           10505
A1401400110492023002001MERCHANDISE                                             20500
A0701400260000006215641LANUZA, ROSE ANN TOLENTINO                               0502
A0101407430503452069001DULCE OBUSAN OR IRIS ISLA                                0501
A0101403580000017767758MARIETA G. DEL ROSARIO                                   0501
A0101405940000007540981GIL, DINO ROAN                                           0501
A0101408530000007981911PINEDA, MARIA CARMELA ERICA                             10502
A0101408530000007981911LEGASPI                                                 20500
A0101408530516513043001GUINGONA, MA. VICTORIA G. OR                            10502
A0101408530516513043001LORENZO, MARIA FATIMA G.                                20500
A0101411400000017148539YOUNG, MARIA CIELO CRUZADO                               0501
B0101403450521011599001**********                                               1605
B0101403450521012137001**********                                               1610
B0101403450521027036001**********                                               1602
B0101403450521344500001**********                                               1602
B0101403610000018446041MERAV PHARMACEUTICAL ENTERPRISE INC.                     1603
B0101403610531029447001QUEENS BEST COOKING OIL AND                             11602
B0101403610531029447001MARKETING CORP.                                         21600
B0101403610000006637170CATALONIA, M DBU MJ CATALONIA TRADING &                 11603
B0101403610000006637170CONSTRUCTION                                            21600
A2201400250000010425311RAYMUNDO OR ROBERTO OR GERARDO                          10501
A2201400250000010425311OR MELLANIE ROBLES                                      20500
B2201400250561037709001NEW DAN'S ELECTRICAL                                    11603
B2201400250561037709001REFRIGERATION                                           21600
A2201400250561639490001AUDREY LIM TAN                                           0501
A0101407720602286255002ALEXANDER AYCO                                           0503
A0101412180000013362880SANTIAGO, PATRICK AFABLE                                 0501
A0101409890000011486349HARI-ON, MARCELINA NOBLEZA                               0502
A0101413570000000635643JOANALINE Z. EVANGELISTA                                 0502
A0101413570000003379993KARREN ANNE M. CARNERO OR                               10502
A0101413570000003379993RYAN CONRAD D. CARNERO                                  20500
A0101413990000018479635LACEDA, EILEEN JOY                                       0501
A0101414120000017210592BANIAGA, LETICIA CARDENO                                 0502
B0101406590000003007290COLAYCO, MAYA JAZMIN AND LACUESTA, ANA                  11602
B0101406590000003007290MARIA SEGUNDA                                           21600
A1301400340000012156251CUYCO, KENT LEY TROY CABLAY                              0502
A1301400340683776169001BARAQUIEL, JOCELYN LIM                                   0502
A1301400500000002063805VENDIVIL, MA. TERESITA OCAMPO                            0501
B1301400500000018550024FREEWAY MOTOR SALES OF BALIUAG CORP                      1602
B1301400500000005963517P.P.E.B. CORPORATION                                     1603
A1701400230000012227724MULLEY, KEITH RICHARD AND LAWAS                         10502
A1701400230000012227724, ROLANDO BALOGBOG                                      20500
A1701400230000013742417AUINGAN, APRIL LORETO                                    0502
B0101408240000018750797FAST ARK DISTRIBUTION INC.                               1601
B0101408240000000832893WOWA'S FAST FOODS INC.                                   1605
B0101408240000000832815WOWA'S FAST FOODS INC.                                   1605
A2801400100000006279792VEDAJA, SANDY MIRAVALLES OR                             10502
A2801400100000006279792ONG, WILLIAM OCA                                        20500
B2801400100712019694001ESGUERRA, G DBU LUNTIAN                                 11601
B2801400100712019694001LANDSCAPING & GE                                        21600
A2801400230000016303143SYFU JR., ROLANDO GRANDE                                 0501
A4101400260000018406965BOSCH, NADINE ALYSIA RAMIREZ                             0501
A4101400390000007459234JOHNNY A. RODRIGUEZ                                      0502
A4101400390000015067291CASTRO, RANDY LUNA                                       0501
A4101400420814298552026JOSEFINA FERNANDEZ                                       0502
A4101400420814481492001MADERA, EILEEN SOLANO OR                                10501
A4101400420814481492001MADERA, ABEGAIL                                         20500
A4101400420814520766030CACULITAN, EMYLENE                                       0501
A4101400550000001332483BARROSO, MARIA SARAH JAYNE M.                            0502
A0101412340000017304740JOEL C. JACINTO                                          0501
B0101412340000005964065CM2 CONSTRUX, INC.                                       1603
A0101404840000003069970LORENCITA L. UNO                                         0501
A0101406750000001491852DELA TORRE, RODA JANE ANTONIO                           10501
A0101406750000001491852OR DECENA, ARNUL                                        20500
B0101405070000009557942CALLCENTRIX INC.                                         1602
A0101405070861707742001ELMER G. CHAN                                            0501
A0601400230000010702808CABREROS, DAY CLARENCE DIZON                             0503
