B0101407270162016355001ONWARD COMMUNICATIONS & SERVICES                         1602
A0101407270162377333002******                                                   0502
A0101412500000018948408SANTOS, MARIA PATRICIA LAZARO                            0501
A0101412500000018941690***                                                      0501
A3001400130230767566046CUSTODIO, JOSEPH TAAY                                    0502
A0101412500000018943492ALFONSO, IGNACIO IRINEO                                  0501
B0101412500000018474150BRINGERA, GINA ROSARIO DBU BRINGERA                     11601
B0101412500000018474150SPACE RENTAL                                            21600
A3001400130000010506548RICABORDA, MELANIE C                                     0502
A0101406620000017734404DONOR, BEVERLY PALING DBU                               10501
A0101406620000017734404BEVERLYS EVENTS MANAGEMEN                               20500
A0101400860011443455002**********                                               0510
A0101400860000005312992**********                                               0505
B0101400150061021187001CORAL BAY NICKEL CORPORATION                             1601
A0101400150061229860001VELASQUEZ, JUAN GABRIEL L.                               0504
A0101400150061236944140MAE S. VILLANUEVA                                        0501
A0601400100081032955001JENPREZ LAUNDRYNET                                       0502
A0601400100000017089608BANAS, CESARLIE AMBASA DBU B AN                          0505
A0101413730000016157454****************                                         0501
A0101410560000010318297MA. CRISTINA G. MANALAD                                  0501
B0101401960121046474001DE LUXE HOME DESIGN CENTER, INC.                         1601
A0101413150000016613815STERN, CHRISTOPHE                                        0501
B0101413150000008024491ZOOMOOV PHILIPPINES CORPORATION                          1601
A0101413310000005433147TERESITA G. CONCEPCION OR                               10501
A0101413310000005433147ANTONIO D. CONCEPCION                                   20500
A0101413310000001073585CHEN, CHARLENE JIM                                       0501
B0101401830141021045001TCTS TRUCKING SERVICES                                   1605
B0101401830000000033581CARITAS SALVE CREDIT COOPERATIVE                        11603
B0101401830000000033581(BULACAN) 003                                           21600
A0101401830141377758001********                                                 0503
A0101401830141740190001LEBRON, LUIS FRANCISCO VILLACOR                          0501
A7201400170000002791331JUDITO N. ALVIAR OR                                     10503
A7201400170000002791331JOCELYN C. ALVIAR                                       20500
A7201400170000008740023ARANDING, LIZA MEDADO                                    0503
A7201400170000009673287BOLOTAOLO, ROSE MARIE NADALA                             0503
A7201400170000007185900BARBADILLO, ELSIE ALANGCAS                               0501
A7201400170000011454390ANDIGON, GINA NANO OR                                   10502
A7201400170000011454390ANDIGON, JESSIE MUNDO                                   20500
A7201400170000001585533SAMUEL R. EPE DBU SAM'S ENT. OR                         10501
A7201400170000001585533WENIFREDA I. EPE                                        20500
B0101412920000000276711KALAKAL FOOD CONCEPT INC.                                1601
A0101400440161525001040DOLORES A. DE GUZMAN                                     0501
A0101401090171195421001CONRADO T. VALIX                                         0502
A0301400530000018997430RANA, GERRY ROJAS                                        0502
A0301400530193478374008CHYRL ANN SENANGOTE                                      0502
A0301400660000016080312*****                                                    0501
A0101401380000005320901DELA ROSA, JOSEFINA J. OR                               10501
A0101401380000005320901DELA ROSA, DINO MARTIN J.                               20500
B0101410720000005786792ADVOCATE FASHION INC.                                    1605
A0101410720653478374010SOCORRO MARASIGAN JIMENEZ                                0503
A0101412500214721193001ARNAIZ, LIZSER DIAZ                                      0501
A3101400450000014311632MENDOZA, ARMINE RHEA BAGUIO                              0501
A3101400450223365991001REYES, DR. RUEL RAMOS OR                                10502
A3101400450223365991001JANET JOY                                               20500
B3101400740000014277557K LINE AUTO LOGISTICS PHILIPPINES, INC.                  1602
A3101400870000005410020CONCEPCION, ROEL S. OR                                  10501
A3101400870000005410020DE LA ROSA, JOSE                                        20500
A1001400350233770191001PATRIANA, LINDY CASTILLO                                 0501
B0101406620273017284001ACCENT MICRO TECHNOLOGIES, INC.                          1605
A0101410980000013898890VALLE, LIRA JOY QUEMUEL                                  0501
A0101411820000003838186MARIA AIZA O. ROBLES                                     0501
A0101411820000003838211CHERRYLEN TORNO                                          0501
A0101400570000018739070ESTOQUE, NINA KIA TANEDO                                 0501
A0101400570281235501001CARLOS TIU OR ROSARIO TIU OR                            10501
A0101400570281235501001CHRISTOPHER TIU                                         20500
A0101411240000018353494SANTOS, MICHELLE AERIELE LEANDI                          0501
A1101400120000006186478BOLECHE, MERLINE BANDALA                                 0502
A6601400120000016158833NUGUIT, ALFREDO DIAZ                                     0502
A6601400120314713053001BALLESTA, GOLDA SOMORAY                                  0501
A2001400290000005926069TAN, EARL FRANCIS ROMANO                                 0503
A0101402350000011252770BIOC, ROWIE LIGAYA INDUCTA                               0501
A0101405650000000080093PULGA, JASMIN BAUTISTA                                   0501
A0101405650322488260001BARREDO, CARMENCITA CALIXIHAN                            0502
A0101405650322531153001MARITES Q. VILORIA                                       0501
A0101402060000002258897DE GUZMAN, CARLO CRUZ                                    0502
A0101402060351295053001VINCENT ADRIAN H. ERMITA                                 0501
B0201400890000018495191ALLIANZ INTERNATIONAL MACHINERY &                       11602
B0201400890000018495191TRADING CORP.                                           21600
B0201400890000007877323NG KHAI DEVELOPMENT CORPORATION                          1602
A0101402930381325163001SUSAN D. CORNEJO                                         0501
A0101402930381370821001CHIN C. CHIEN                                            0501
A0101408790000018257122ALCANTARA, ALMA ROSETE                                   0501
A0101415350000013691346GUERRERO, JOYCE MALUEGHA                                 0502
A0101405490000018028116PAEZ, LORIE VIVIAN ATENDIDO                              0502
A0101405490000014676932CIBRABORN, CHITO G. OR                                  10502
A0101405490000014676932BRINCES, CATHERINE C.                                   20500
A0101409180000002252568SON, DAVID SANTOS OR SON, NELIA                         10501
A0101409180000002252568 AGUINALDO                                              20500
A2401400180000018993152DAMALERIO, FRANCES LAWRENCE ONG                          0501
B2401400180411014575003SOCSKSARGEN FEDERATION OF FISHING &                     11603
B2401400180411014575003ALLIED IND.                                             21600
B2401400180411035164001MOMMY GINA TUNA RESOURCES (MGTR), INC.                   1610
A5101400100000010371358DELA TORRE, MARY GRACE ESCUADRO                         10502
A5101400100000010371358JT                                                      20500
B0101403030441037132001MASTER BRAKE AUTO SUPPLY                                 1601
B0101403030441240945001**********                                               1602
A0101410140000014244765OLARTE, RHONA ROSE SALES                                 0501
A0501400170481357950002JASPER SPENCER L. ONG                                    0503
A1901400320000018988291PASTOR, JULIAN PEDRO MACATANGAY                          0501
B1901400320000018996642CELEMIN, CHITO LEONARDO RAMOS DBU W                      1601
A3801400170000017475022REYES,JAMESY DBU SOUTHERN                               10502
A3801400170000017475022AGGREGATES AND CRUSHING                                 20500
B1401400110000014232394ROMAN CATHOLIC BISHOP OF LUCENA, INC                     1605
A0101407430000014993987RALPH STEVE KARUNUNGAN VIERNEZA                          0501
B0101403580000015735552KABSLASH IT INC.                                         1601
A0101405940000005359344QUIBA, REGIE TUGADE                                      0501
A0101408530000016394402PINEDA, JOSEPH RAYMOND LAGMAN                            0502
A0101408530000017861522NAVAL, REVO CRISOSTOMO                                   0501
B0101412050000018156891SENTINEL INTEGRATED SERVICES INC.                        1604
B0101403450000011473675***********                                              1610
A0101403610000006637089DELOS REYES JR., NICASIO EMPIO                          10505
A0101403610000006637089OR DELOS REYES, SHIRLEY                                 20500
B0101404260000012711498REBEL MANILA BRAND MARKETING SERVICES IN                 1602
A0101407690000000154794PETER C. SANGUENZA - DEALERS OF                         10502
A0101407690000000154794SHOECAT INC.                                            20500
A0101411530000002260231MOYA, MARIE DELOS SANTOS                                 0501
A0101413570000010111772MOLENO, ELVIRA GUZMAN                                    0505
A0101413570000010676583SIAO, JONNIE                                             0501
A0101413990000018479793ROBIS, ELVIE JO C. OR                                   10502
A0101413990000018479793SABLAYAN, GEORGE O.                                     20500
A0101413990000018479806FONSECA, JERUSALEM E. OR                                10501
A0101413990000018479806FONSECA, MARIA PRINCESS                                 20500
A0101413990000018479817EVANGELISTA, SANDRA LYN E. OR                           10501
A0101413990000018479817EVANGELISTA, REYMAN N.                                  20500
A0101406590000010435013CALIJAN, RICKY UY                                        0501
B1301400210682026707001GOLDEN DAME FOOD CENTER, INC.                            1603
A1301400500000000213265VINCENT P. JAVIER OR                                    10505
A1301400500000000213265TERESITA F. JAVIER                                      20500
A1301400500000011254361KE, JINZENG                                              0502
B1301400500000012953965UY, HOOVER TAN                                           1602
A0101408240711652748001SUAREZ, ANTONIO MENCHACA OR                             10501
A0101408240711652748001SUAREZ, MIGUEL ANTONIO                                  20500
A2801400100000012289442VALDEZ, CORAZON REYES                                    0501
A2801400100000009533484PROHHOROV, GINA OCOL                                     0501
A4101400390000017294783ZOLINA, LUCKY CHRISTIAN NUNEZ                            0501
A4101400390000007459541ROBERTA E. REYES                                         0501
A4101400420000012882958SARIA, LESTER CAMILON                                    0501
A4101400420000003715564SARIA, LESTER DBU DESERT QUENCH                         10501
A4101400420000003715564WATER REFILLING                                         20500
A4101400420000003715542DUCOT, ERNESTO MALLARI                                   0502
A4101400420814559384001RIBOT, NORMA GAJE                                        0502
A4101400550000011973449MAGPAYO JR., ARSENIO BANAL                               0502
B4101400550815040996002MARICHE APARTELLE, INC                                   1601
A0101412340000003340650RODOLFO V. AMBITA JR.                                    0502
A0101412340000009501508MORON, ORLYN COLINARES                                   0501
A0101404840000001312656DE VERA, JAYVEE DELA TORRE OR                           10502
A0101404840000001312656DE VERA, FLORDEL                                        20500
A0101404840000016575492CHU, NANCY RONQUILLO                                     0502
A0101405070861366707001ARELLANO, MA. ELENA BALLESTEROS                          0503
A0101413860000018992393LUCIDO, ANNE MENDOZA                                     0501
A0101413860000018992513ORTEGA, MARIA ALINEA GONZALES                            0501
A0101413860000018992586PALISOC, MARIANNE ROSALES                                0501
A0101413860000018992371GARCERA, AILEA KATHLEEN AMORES                           0501
A0101413860000018993312MORO, ALPHARD ELMAN CALIZO                               0501
A0601400230000017769163RIZA C. QUIZON                                           0502
A0601400230891515560001LIBERTY INES D. LACSON                                   0501
A0601400230891597238001VIRAY, LOLITA BUNGAY                                     0501
A0601400230891627261001RAMOS, ANGELITA BAUTISTA                                 0503
