B0101403320471821100608**********                                               2010
B1301400890012402000559**********                                               2003
B1501400140291821100608**********                                               2002
B1501400140291821200608**********                                               2001
A1101400120313478374205MEMBERS OF NATASHA (SHOECAT INC                          0501
A1101400120000003022413DUCENTES, GLORIA TROCINO                                 0501
A0101405810072236268001KENG, LOUELLA JOCELYN BARRETTO                           0501
A0101405810072373265003MANANSALA, JOYCEE CATARATA                               0502
A0101405810072432190002ZHENG, LI HUA SHI                                        0506
A0101412920000005193820ROLDAN, NORELYN CUSTODIO                                 0501
B0101401090171008020001UST PARISH                                               1605
A0101413020000002292793BALOLOY JR., LEOPOLDO ANGELES                            0504
A0101413020000002292811********                                                 0503
B3001400130000001261250BAUTISTA III, ISIDORO TRANI OR BAUTISTA                 11603
B3001400130000001261250CHYRL TAN                                               21600
A5501400120000002019067BENDITA, MARITES VILLASFER                               0501
A0101412890000003508201***************                                          0502
B0101405940512038848001JADE ENTERTAINMENT AND GAMING                           11603
B0101405940512038848001TECHNOLOGIES,INC                                        21600
B0101408110000003281478WASHMAN BROS, INC.                                       1602
A0101400860011452222001**********                                               0505
A0101400860011464419001**********                                               0503
A0101400860011523266001**********                                               0503
A0101400860011596360001**********                                               0503
B0101400150061026597001HONDA MOTOR SPORTS INC.                                  1605
B0101400150061028210001GOLDEN DRAGON MOTOR SALES CORP.                          1605
B0101400150000001708663MDR MANAGEMENT PARTNERS INC                              1601
B0601400100000005690428BRETTO'S INTERNATIONAL FOOD CORP.                        1605
B0101400730111033396001FRC SULO RIVIERA RESIDENCES CORPORATION                  1603
B0101400730111036857001FRC SULO RIVIERA HOTEL CORPORATION                       1606
A0101400730000001822657MARY JANE P. SHAKEEL                                     0502
A5001400170000000213750RATUNIL, JULIETA OR RATUNIL,                            10501
A5001400170000000213750BYRON, OR RATUNIL, CARMEL                               20500
A0101400440000002035063BUGA, JULIET BONADOR                                     0501
A0101400440161478374018MA. DELIA P. FERMANTE                                    0501
A0101400440161478374021DOROTHY D. SANICO                                        0501
A0101400440161525001148MILA L. SIBAYAN                                          0501
A0101407270000006017658DAGOL, RONALD JARDIN                                     0501
A0101407270000006020433ORILLA, JOJO BALAOS                                      0501
B0101407270162038101001BIRDS INTERNATIONAL, INC.                                1603
A0101401090171200400001MICHAEL ANTHONY C. VASCO                                 0502
A0101401090171337824001FE MARSHA V. NICOLAS                                     0501
A0101401090171494997001RAMON OR VANESSA ANNE GONZALEZ                           0502
A0301400790000000040859PILAY, ROMANITO BELACHO                                  0502
A0301400790000002301280SENEN, PATRICK VINCENT GAPUZAN                           0501
A0101412500000001146918ENRIQUEZ, MARILYN R. OR                                 10501
A0101412500000001146918BUENAVENTURA, MA                                        20500
A3101400160221220343001LAARNI A. CALAPATIA                                      0502
A3101400160221478374056ALLAN P. TINAMBACAN                                      0501
A1001400190000002170565CHABON, CLAI DBU SOUTHERNFIELDS                          0502
A1301400470000003270482CECILIA E. TANIO                                         0502
B0101401670271672666001NTC IMPORT EXPORT INC                                    1605
A0101406460272420187001CHAN, CHRISTINE JOY TAN OR                              10501
A0101406460272420187001CHAN, CHRISTOPHE                                        20500
A0101406620273417637001LAPUZ, ANNE SHARLYNE GOBOY                               0502
A0101400570000003891572GALICIA, JEFFERSON RAPIZ                                 0501
A0101400570281706972001**********                                               0501
B2301400150301821100608**********                                               2002
B2301400150301821200608**********                                               2001
B2601400300303821100608**********                                               2010
B2601400300303821200608**********                                               2005
A0801400160311478374064MILAMAE G. GRANDE                                        0501
A1101400120000003981157CASIO, GIL POTESTAD DBU GIL                             10501
A1101400120000003981157LUMBER DEALER                                           20500
A1101400120000000652380CAYUBIT JR., SERAFIN ASERON                              0502
A66014001203140421880015G GALVEZ CONSTRUCTION                                  10502
A6601400120314042188001AND SUPPLY                                              20500
B2001400290315528399001**********                                               1601
A3401400280318267619001SAN ANTONIO, DANILO LORENZO                              0501
A3401400280000003309219ROMULO D. CAPUNONG OR RUELYN C.                         10502
A3401400280000003309219EDUQUE                                                  20500
A0101402060351212481004EMILIO S. LIM JR.                                        0504
A0101402060000000358816MARIANO, RONIE DE JESUS                                  0501
A0101409050000000601465BEARSLEY, GRANT ANTHONY                                  0502
B0101409050000000022595EM CUERPO INC DANILO IBAY AND ASSOC                      1601
A0201400890000000027905MENDOZA, VAL VINCENT FABIAN OR                          10503
A0201400890000000027905CASTILLO, NEIL B                                        20500
B0201400890376036898001GOOD HARVEST FLAVORS AND SPICE CORP.                     1605
A0101402770391022532001VIREX ENTERPRISES                                        0501
B0101402770391025883001DA LEONARDO INDUSTRIAL INC.                              1601
B0101402770391630383002FIRST LOAD MASTER AND POWER SERVICE INC.                 1601
A0101405490392653476001******                                                   0501
B0101408400394028323001U-MYX TRADING-MARKET MARKET BRANCH                       1601
A0101408400394421336001TIRON, ARNALDO PENAROYO                                  0501
A0101408400394478374090MARY DUMASLAN                                            0501
A0101408400394606029001ARIMAO, JUNAIRA PACALUNDO                                0501
A0101408400394642089001MAQUILING, ELLEN TAMIO                                   0501
A0101408950000003171257LLORIN, RYAN MARTE                                       0503
A0101408950396501244001DR. RHESA MAY MANALOTO MARTINEZ                          0501
A0101408950396664059001REYES, ABIGAIL NOCON                                     0501
A0101409180000005800362KEIJI INAMINI                                            0501
A0101412210000005723166VILLANUEVA, JOHN MARTIN TABBERR                          0501
A0301400820409091735055LIMA, WINDELL OR LIMA, DIANA                             0502
A5501400120000002019067BENDITA, MARITES VILLASFER                               0501
B5501400120410042035001CYCLERS BYKE HUB                                         1601
B0101403030441336479001**********                                               1602
A0101403320000004831083RICARDO E. BUENO JR.                                     0502
B0101403320471821200608**********                                               2001
A0101406330000001235432SENADAN, JEMELITA BENGALA                                0501
B0101406330000000432842**********                                               1605
B0101410140475821200608**********                                               2001
A0501400170000005003041VILLAMIL III, ALFONSO CLAVERIA                          10505
A0501400170000005003041VILLAMIL, NENITA                                        20500
A1901400320000000679250RUEL FLORES ILAO                                         0501
B1901400160491046052001BANAPRA DEVELOPMENT COOPERATIVE                          1603
A1401400110492320667002AVERIA, SOLOMON DY OR                                   10501
A1401400110492320667002AVERIA, MA.SARAH                                        20500
A1601400170000000421092RUBEN C. UY OR                                          10503
A1601400170000000421092EVA A. UY                                               20500
B0101408110515017881001GROUP MANAGEMENT CORPORATION                             1603
A0101411790000000469603FORNESTE, CHRISTIAN A. DBU                              10501
A0101411790000000469603A.B.P.O.S. BUSINESS PROCE                               20500
A0101411790518055764222HERNANDEZ, MAUREEN LUMBA                                 0501
A0101403450521559329001***********                                              0501
A0101403610531400970001BRILLANTE, ROSARIO AMIL                                  0502
A2201400250000002337982DURIMAN, ERLINDA BALINGIT                                0501
A0101404130000001173591ARCE, MELISSA MAYOR                                      0501
A0101407720602210403001JOSEPHINE QUINTOS-APOSTOL OR                            10502
A0101407720602210403001CARLOS FAUSTINO                                         20500
A0101407720602390297001PREYSLER, MARIVIC G.                                     0501
A0101407720602391484001GLER, MA. TARCELA SABARRE                                0501
A0101404260611484749002BAHALA, AURELIA MANINANG                                 0505
B0101409890649046783001**********                                               1601
A0101407690652678597001HERRERA, ALICIA ARCEO                                    0501
A0101407690652776768001MANANGAT, LETECIA MORALES                                0501
A0101413440000002339619RAMOS, JOSE VICENTE A. OR                               10502
A0101413440000002339619RAMOS, MARIA RAQUEL L.                                  20500
A0101413570656057648092ALICIA DELA CRUZ                                         0501
B0101414120000001142950POLYSERVE PHILIPPINES INC.                               1605
B0101414120000001142961HR NETWORK, INC.                                         1605
A1301400210000002909328***                                                      0502
B1301400210000000023463SAN PABLO MULTI-PURPOSE COOPERATIVE                      1603
B1301400210000000023474RICH-WELL INTERBRAND CORPORATION                         1602
A1301400210682722987001******                                                   0503
A1301400340000000926870CUERDO, AYA                                              0501
B1301400340000000982087CORNELIO, RACHEL ANN L DBU ACRC                         11601
B1301400340000000982087MARKETING                                               21600
A1301400340683478374021GERONIMO, MARY ANN HERRERO                               0501
A1301400340000000926869CUERDO, MARIA ANA SORNE                                  0503
A1301400500000000212995LUDETTE FATIMA T. CASTRO                                 0502
B0101408240711036897001EVER THEATRICAL, INC.                                    1601
A0101408240711384215002RHODA DELOS ANGELES                                      0501
A0101408240711554763001CUCHON, IRMA BARCELON                                    0501
A0101408240711701664001AQUINO, MA. CRISTINA ISABEL MAR                          0501
B2801400100712020330001HOYA MARINE CORPORATION                                  1602
A2801400100000003116689SANTOS, MA. GRACE MIRANDA DBU G                          0501
A2801400100712257696001CHRISTIAN D DY OR FLORENCE                              10501
A2801400100712257696001JOE D DY                                                20500
A4101400420814478374043ESPINO, GEMMA D.                                         0501
A0101404840851046725002MA GERALDINE F. BOCADO                                   0502
A0101404840000003410044GARCIA, MAR DBU GYDS TRADING                             0501
A0101404840851478374135VIRGINIA AGUILAR                                         0502
B0101405070861008144002COMO COMMERCIAL CORP.                                    1603
A0101405070000003439661TALLA, AARON JOSHUA ORTIZ DBU A                          0501
A0101413860000001887089ARAGON, MARY JANE BORROMEO                               0502
B0601400230891023794002MEGA FROST ICE CREAM BAR                                 1601
B0101417840001701049624**********                                               2002