B0101404840851821100608**********                                               2003
B1301400760253821100608**********                                               2003
B0601400520000009516372D' CHIX OPTION, INC.                                     1605
B0101400150061014955001METROBANK CARD CORPORATION (A FINANCE                   11602
B0101400150061014955001COMPANY)                                                21600
A0101414090000014404930RAMOS, PRISCILLA IGNACIO                                 0502
B0101412500000009179079IHOPE DIGITAL INCORPORATED                               1605
A3001400130000000067230GAMBA, RAZEL CURILAN AND GAMBA,                         10502
A3001400130000000067230KRISTIN SUAZO                                           20500
B1001400480000004097121DABA, ANNIE DBU RICHFIELD AGRICULTURAL                  11601
B1001400480000004097121SUPPLY                                                  21600
A1901400290000014042438MYLA AGUILERA VILLANUEVA                                 0502
B1901400290261027293001LIPA MEDICS INC.                                         1620
B1901400290261027293002LIPA MEDICS INC.                                         1605
B1901400290261038035001LMI GROUP FOOD CO. LTD.                                  1605
A1901400290000013720202MARJORIE REYES FELIX                                     0501
A1901400290261337520001DRA NATALIA B CARDONA OR                                10504
A1901400290261337520001DR DANILO C CARDONA                                     20500
B0101402350000000046108ABSOLUTE INDUSTRIAL SOLUTIONS, INC.                      1604
A0201400920000002804480MIRANDA, SAMMY                                           0501
B0101400860000002333604**********                                               1603
A0101400860011435365001**********                                               0505
A0101411370000003294842BUENCAMINO, FRANCIS S. DBU                              10504
A0101411370000003294842BUENCAMINO PRESS                                        20500
A0101400150000000525579PORNETE, MA LUZ LABANDAN                                 0501
A0101400150000003164510KATHERINE ANNE M. GATMAITAN                              0501
A0101400150000007280562ARAW, GERARD ALUQUIN                                     0502
A0101400150000001708009SISON, JOSEPH CECILIO NACHURA                            0501
A0101400600071233615002********                                                 0501
B0601400520000001349719MAGTOTO, KELVIN DBU CALULUT CONVENIENCE                 11605
B0601400520000001349719STORE                                                   21600
A0101414090000007236519CHAN, GIDEON D DBU WOODEN HOUSE                         10506
A0101414090000007236519DEV'T ENTERPRISE                                        20500
A0101410850000000005712MACANAYA, AMELIA DBU NUMBERS                            10501
A0101410850000000005712AND LETTERS LEARNING CENT                               20500
A0101400440000000029401ANGEL, HELEN VILLANUEVA                                  0501
A0101401090000000993400BASAYSAY, LYDIA ANGUSTIA                                 0501
A0101401090000015732682PEREZ, KARLO JAY LINAO                                   0501
A0101401090000011984402CATAPIA, FRANCIS GABRIEL SALVAD                          0501
B0301400530000008307700APEX PREMIER PHARMACEUTICAL AND CON                      1603
B0301400660000003368490ARBICON, INC.                                            1605
B0301400950000011415186SYSTEMSANDSHELVES INC.                                   1602
A0101401380000015062530MUYA, MARLON BATHAN                                      0503
A0101401380201476813002TO, EVELYN LIM                                           0501
A0101412500000003290019ANTAY, ROSSBENOR MACKAY                                  0501
A0101413600000003851052ANNARIA CORONADO                                         0502
A0101413600000005355244ALBERT C. GUMISAD                                        0502
A0101413600000010758882CHERYMAY L. LIM                                          0501
A3101400160000015270892MANAOIS, LILIAN OJEDA                                    0501
A3101400870000015723772PADILLA, CRISTINA NITO                                   0501
A3101400870000000957655BITHAO, C DBU BP-1 CAR AUDIO                            10502
A3101400870000000957655AND ACCESSORIES                                         20500
A3001400130000005446340BALANGA, MARIO FERNANDEZ                                 0501
A3001400130230478374023NOLASCO, CHARITO DELA PENA                               0501
A3001400130000001271670EMPISTO, GENAH JUMAWAN                                   0501
A1001400190000002170769JUGAN, NOUE MALOLOT                                      0501
A1001400480000006270500ALINABON, JOSY PABIONA                                   0501
A1301400470000005737835CHAROL GAY G. FERNANDEZ                                  0502
A1301400760000005379400ESMINO, REGALADO BALANGUE                                0501
A1301400760000005379531JOBY L. MORENO OR                                       10510
A1301400760000005379531LAWRENCE G. MORENO                                      20500
A1301400760000008698968GILBERT TAYAO OR TIRSO FRANCO                           10502
A1301400760000008698968JR. OR DANTE HILARIO JR                                 20500
A1301400760000012981114CORNES, WILFREDO CALMA                                   0502
B1301400760000000050791CONSUMERREACH, INC.                                      1610
A1901400290000013720086PERLA VICENTA DE CASTRO                                  0501
B0101406460000000182370WEE COMMUNITY DEVELOPERS, INC.                           1605
B0101406460000000182483WEE COMMUNITY DEVELOPERS, INC.                           1605
A0101411820000014406834DANIEL FROILAN C. LACSON                                 0501
B0101411820000010701241ITECH COMPUTER SYSTEM CO.                                1601
A0101400570000015532733GENEBLAZA, LYDIA VILLARENA                               0501
A0101400570281338985001VALENTINA T. DE JOYA OR                                 10501
A0101400570281338985001DAVIS T. DE JOYA                                        20500
A0101400570281506374001ALTAREJOS, FRANCISCO PEREZ                               0503
B0101411240283065913001DAELIFT TRADING INC.                                     1603
A0501400200000015227120GERONA, WERNHER LLEGO                                    0505
A2601400270302557323001MELANIE AGNES OR REYNALDO AGNES                          0505
A2001400290000010684336CHUA, JEOREX POBLACION OR CHUA,                         10501
A2001400290000010684336MELANIE ROSE GAR                                        20500
A2001400290315636172001KHO, EVAN HO                                             0502
B0101402350000000655583PORT NET LOGISTICS, INC.                                 1601
B0101402350000000655572TRIPLE V WORLDWIDE LOGISTICS INC.                        1601
A0101405650000012457222AMANTE, EDGAR                                           10501
A0101405650000012457222OR AMANTE, MA. THERESA                                  20500
B0101402060351030802001PACIFIC RESINS INC.                                      1605
A0101402060351211731001SANTOS JR., RODOLFO S.                                   0501
A0101402060351217440016ELIZABETH STEPHANIE R. CARLOS                            0502
A0101402060351367081001CLAVECILLAS, ELIZABETH C. &/OR                          10502
A0101402060351367081001CLAVECILLAS, REY                                        20500
A0101409050000015273993ARRIOLA, ALBERTO RAMOS,                                  0502
A0201400920000012764751RAFFINAN, RUTH CRISTOBAL                                 0502
B0201400890000007877363SPEEDFUSION NETWORKS, INC.                               1601
A0101402930000014435986SIQUIAN, MARY CONCEPCION                                10503
A0101402930000014435986FRANCESCA VERGARA                                       20500
A0101408370000009296535LUA, CLARA CHRISTINA PAULA E.OR                         10502
A0101408370000009296535SANTOS,FRANCIS J                                        20500
A0101408790000000600080BAUTISTA, M DBU ROUND ONE RESTO                          0501
A0101408790383671821001ELLEN BALING MENDOZA                                     0502
A0101405490000014676885MIRANDA, ROWEL ANTHONY MALLARI                           0501
A0101405490392787306001JOEL S. BERNARDO OR                                     10501
A0101405490392787306001JENETTE Y. BERNARDO                                     20500
B0101408400394027710001PATEROS-FORT BONIFACIO TRANSPORT SERVICE                11602
B0101408400394027710001COOPERATIVE                                             21600
B0101408400394028560003NEW LIFE CHRISTIAN CENTER (THE FORT) INC                 1601
B0101408400394028560004NEW LIFE CHRISTIAN CENTER (THE FORT)                     1602
B0101408400000008699916NEW LIFE CHRISTIAN CENTER (THE FORT                      1602
A0101408400394513146001MAGNIFICO, DIONICIO DACUTAN                              0501
B0101408950396026318001GLOBAL CITY AUTO SALES, INC.                             1605
A0101409210000009966723CONCHA, CHERI MAE GUANZON                                0501
B0101412210399061660001NEWMINCO PACIFIC MINING CORPORATION                      1601
A1201400150000014699417ALDANA, RAMON FLORENDO OR ALDAN                         10505
A1201400150000014699417A, DONNA DANE GOMEZ                                     20500
A0901400220000000425045LOZADA, ELIZABETH GO                                     0501
A0101403030441587118001FLORENTINO, ROSEMARIE JUNAS                              0501
B0101403320000012881813SCHEIRMAN & CRUZ CONSTRUCTION INC.                       1610
B0101403320471035191001ST. GABRIEL CREDIT COOPERATIVE                           1601
A0101403320471042842001MIGO MEATSHOP AND FOOD SUPPLY                           10510
A0101403320471042842001CENTER                                                  20500
B0101410140475821100608**********                                               2002
B1401400110492022856001PARADISE MEMORIAL PARK, INC.                             1602
B1401400110492046339001SOUTHERN QUEZON PACIFIC OIL MILL                        11606
B1401400110492046339001CORPORATION                                             21600
A1401400110492541441001MANTALA, ROSEMARIE ARAOJO                                0502
A1401400110492650874002ALCALA, RYAN CAEZAR EDANO                                0501
B0701400260000006599520MORANO, JOEL STA. ROMANA DBU JOEL TIRE                  11605
B0701400260000006599520CAR CHECK CENTER                                        21600
B0101407430503033337002AMDG DEVELOPMENT & LOGISTICS, INC.                       1603
A0101407430503036416001JUPITER'S BUTCHER SHOP                                   0510
A0101407430503674542001********                                                 0505
A0101403580000014727865ALQUIZOLA, MELCHOR SANTOS                                0502
B0101403580511005202001151 CONDOMINIUM CORPORATION                              1602
A0101403580511151532003CYNTHIA R. MAMON OR                                     10501
A0101403580511151532003CESAR MARIO O. MAMON                                    20500
B0101411400000012210170BLUE APPLE GLOBAL SERVICES INC.                          1601
A0101411790518705718003ABCEDE, JAY-ANNE SARIO                                   0502
B0101412050000000891009AFFINAGE PHILIPPINES INC.                                1601
A0101403450000010454361UY, MARY ROSE ROMEO                                      0501
B0101403450521011643001**********                                               1605
B0101403450521011989001**********                                               1610
A0101403450521238057001**********                                               0503
A0101403450521238057003*****                                                    0503
B0101403610000014608892GALANG, EDWIN CUSTODIO AND VARGAS,                      11602
B0101403610000014608892MARISSA GALANG                                          21600
A0101403610000014724939MARQUEZ, CARLO MARTIN ALEJAR                             0501
B0101403610531046502001SAN PEDRO APOSTOL PARISH                                 1603
B0101403610000006637158RVM BONNE NOURRITURE, INC.                               1601
A2201400250000001066006BERLYN T. COSTALES OR                                   10505
A2201400250000001066006JOYCE D. GOMEZ                                          20500
A2201400250561478374006ANGELINA P. QUIBALLO                                    10501
A2201400250561478374006MEMBERS OF NATASHA                                      20500
A0101404260611548757001RAMIREZ, CORINA TORCUATOR                                0501
A0101409890000006812940**********                                               0501
A0101409920000001951953MEMBERS OF NATASHA (SHOECAT INC                         10501
A0101409920000001951953IGPIT, IRENE                                            20500
A0101407690000015732626NAGUIT, WILSON RABULAN                                   0501
A0101413440000015041653DELA PAZ, SHEILA SANTIAGO                                0501
A0101406590662533811001LEGION, ROMEO JALDO OR                                  10501
A0101406590662533811001LEGION, CORAZON                                         20500
A0101406590662694250001VIDANES, ELIZABETH ALVIAR                                0501
A1301400340000013761036DELA CRUZ, RONNEL SANTIAGO                               0502
A1701400230000011517423PAZ-TAN, LIZA MARIE RIOS                                 0502
B1701400230000000097949NORTHPOINT ALLIANCE MOTORS CORPORAT                      1601
A1701400230000000097687BLAS, SAMUEL SIMEON                                      0504
A0101408240000012315854RAMOS, ALBERTO EMILIO OR                                10502
A0101408240000012315854RAMOS, ELIZABETH GRACE                                  20500
B0101408240000013786913PER PETROLEUM CORPORATION                                1603
A0101408240711570503001DELA TORRE, JOEL ABIERTA                                 0501
A2801400230000005253390ECHON, ROGELIO HERMOSO                                   0501
B2801400230713821100608**********                                               2002
A4101400260000012885162TEZON, NORMAN                                            0501
A4101400260000011418545VILLANUEVA, RUFO ACOL                                    0501
A4101400260000010623593OBIAS, CHRISTIAN B. DBU TWINJ                           10503
A4101400260000010623593BAR AND RESTAURANT                                      20500
A4101400420000002084562CANTILERO, NILCE SAMONTE                                 0501
A4101400420814520766110DELA CRUZ, ARMINDA E.                                    0501
A4101400420814522913002GUELOS, PERSEUS PANES                                    0501
A4101400420814522913002GUELOS, PERSEUS PANES                                    0501
A0101412340000002266811PACETE, MARK ANTHONY DEMA ALA                            0501
A0101412340000015673375CARREON, JOSE GERARDO ELASIGUE                           0501
A0101412340000005566543ALARCON, ARMI KRIZELL SANTOS                             0501
A0601400230000007402188CHUA, MARK ANTHONY GARCHITORENA                          0504
