B0301400790000000435738NEW GREAT LUMBER AND CONSTRUCTION                       11601
B0301400790000000435738SUPPLY, INC.                                            21600
A3101400160221220455001JACINTA J. TORRES OR                                    10503
A3101400160221220455001RENATO I. TORRES                                        20500
A3001400130230478374011BULADACO, RUBY MADRIO                                    0501
A3001400130230767566062DELLOSA, MARIE ANTOINETTE ABAD                           0502
A1101400120000002254899OBENA, ROSEMARIE GIL OPRIASA                             0501
A1101400120313478374066FUNCION, LANIE E.                                        0502
B0101410690600045550001BEST ELECTRICAL COMPONENTS (BEC), INC.                   1605
A0101401250021180208001GERVASIO, REMEDIOS SAMONTE                               0502
B0101400150061010662001HINATUAN MINING CORP.                                    1610
A0101400150061338964185RYAN ABLAZA                                              0502
A0101400150061510141001MAPANAO, BILLIE TAMSI                                    0501
A0101400150000002394750GAMENG, MHYRIAN BOBON                                    0502
B0601400100081256915004WILLIAM G. KWONG OR ANTONIO, ADELA                       1603
B0601400100081256915005KWONG, WILLIAM G. OR                                    11603
B0601400100081256915005ANTONIO, ADELA                                          21600
A0101413280092058345001**********                                               0501
A0101413730000000144750**********************                                   0505
A0101400730111478374026ANABELLE TOMAS                                           0502
A0101400730000001822373AGUSTIN, JOSEPHINE DAYRIT                                0501
B0101406040112044294001*******                                                  1601
A0101413150000003868264*****                                                    0501
A0101413150000001688617******                                                   0505
B0101401830000000059972CARITAS SALVE CREDIT COOPERATIVE (NOVA/                 11603
B0101401830000000059972ST.PETER) 010                                           21600
B01014129201600584090017RF DELIFOODS ENTERPRISE                                 1601
A0101400440000000342390APOSTOL, MARLO RAMOS                                     0503
A0101400440161092595001DIONSON, ROCELYN CABALIN                                 0501
A0101400440161525001092EDNA D. DOLORES                                          0502
A0101400440161591337001JENESSEY A. RANCES OR                                   10502
A0101400440161591337001JESSIE O. RANCES                                        20500
A0101407270162039326001TITANIUM ENTERPRISES                                     0502
B0101407270162039491001UMALAG FARMS, INC.                                       1602
A0101407270162458099001CHANDA F. ESPIRITU                                       0501
A0301400530000001009943PANTUA, JERSON R.                                        0502
A0301400530000000066044**********                                               0503
B0301400530193035726168TAGUM PIONEER FOODS CORP. - 2                            1605
A0301400950000002251963LABRADOR, DANTE OLAIVAR                                  0502
B0101410720653048111001PERIDOT PARTS SALES & SUPPLY INC.                        1602
A0101410720653478374054CRISTINA CALDERON                                        0501
A0101410720653509852001SOMOSIERRA, NERIO GELLANGARIN                           10501
A0101410720653509852001OR SOMOSIERRA, ANNA MARIA                               20500
B0101410720653561759001KNOX.COM CORP.                                           1602
A0101412500000002304803BATTUNG, GENEROSO DE POLONIA                             0502
A3101400160000004952683OLIVER P SANGALANG                                       0501
A3101400160000004362890JANETTE CALLO                                            0501
A1001400190231478374006LIBRADO, HAZEL T.                                        0505
A1001400190231478374128BONIFACIO, LIZA                                          0501
A1001400190231520766117TAROY, MARIONNE ANGELOU SALEM                            0503
A1001400190000000016413LEDESMA, EDITHA LERA                                     0501
A1001400190231648468002NACAYA, REINA ADVINCULA                                  0501
B1001400480000000133571************                                             1603
B0101401670271028082002DDT KONSTRACT, INC.                                      1620
B0101406460272040204001A & N HOLDINGS CORPORATION                               1610
B0101406620273000377001HONGKONG & SHANGHAI BANKING CORP. LTD.                   1605
A0101400570281186580001DR. ARSENIO C. CANTOS OR                                10503
A0101400570281186580001DRA. CORAZON CAN                                        20500
A0101400570281286356001KEVIN D. YU                                              0503
A0101400570281333519001EDITHA M. SIMEON                                         0505
A0101400570281423865002RIBAYA, VICTORIA CABRERA                                 0501
A0101400570281527773001CARANDANG, RICHARD DANTE LOPEZ                           0502
A1101400120000001547326TOLENTINO, EMMANUEL S. OR                               10502
A1101400120000001547326BASTIAS, ROSANNA                                        20500
A1101400120000003981135CABRERA, VILMA GUIRON DBU                               10501
A1101400120000003981135POSING AGRIVET                                          20500
A1101400120313478374096MAGLALANG, MARISA YADAWON                                0501
A6601400120000000060368LAGRIMAS, MARIA ISABEL VERANO                            0501
A0101402350321179301002PABLO PEFANCO & ERLINDA PEFANCO                         10505
A0101402350321179301002& MA FLORINDA PEFANCO                                   20500
A0101402350321368435003******                                                   0501
A0101405650000002960821BATALAN, BERNADETTE HORTALEZA                            0502
B0101405650000000772685WISEMEDIA GROUP, INC.                                    1601
A0101405650000002325515FERNANDO MARTIN D. TAN                                   0501
A0101402510341478374008MARY GRACE B. ANDRES                                     0502
A0101402510341588910001JOPSON, JESSICA GEPOLIO                                  0501
A0101402060351211701003MA. DOLORES C. DANNUG OR                                10503
A0101402060351211701003EDNA S. CABALDE                                         20500
A0101402060351217440001ZENAIDA ESCANO                                           0502
B0101402930381008843001BASIC HOUSING SOLUTIONS, INC.                            1610
B0101402930381021732001PENEL INTERNATIONAL, INC.                                1601
A0101402930381493392001FAVILA, CHERYL VILLARICA OR                             10501
A0101402930381493392001FAVILA, MARIO ANGELO C.                                 20500
A0101408370382042090001COLORECTAL CARE CLINIC AND                              10501
A0101408370382042090001SURGICAL SPECIAL                                        20500
A0101402770000001571364JOSE E. ZAULDA JR.                                       0501
A0101402770391476396002RICHARD A. SARMIENTO                                     0502
A0101405490000000444411WEA S. BABINA                                            0503
A0101405490000002253101BENDANA, JACOB CONCEPCION                                0502
B0101405490000001092411BARANGAY SUN VALLEY MULTI-PURPOSE                       11603
B0101405490000001092411COOPERATIVE                                             21600
A0101405490000001092717ROSLINA M. AMEROL DBU AMEMAR                            10502
A0101405490000001092717GENERAL MERCHANDISE                                     20500
A0101405490000000355673PASCUA, VIOLETA ZACARIAS                                 0501
A0101408400000001952718CUTANDA, LYNMOR ARIOLA                                   0501
B0101409210000000031192LSC CORPORATION                                          1602
A0301400820000000024871JAO, EDMUNDO C.                                          0503
A5501400120000002019114GARCIA, JOSIE JAVELLANA                                  0505
A5501400120410616229001ESCANO, CLAIRE BASAN                                     0502
B2401400180411014376006PENBANK, INC. (A PRIVATE DEV'T BANK) -                  11605
B2401400180411014376006FISHPORT BRANCH                                         21600
B2401400180411033588088FIESTA APPLIANCECENTER, INC.                             1605
A2401400180411045435001HP FRANCISCO CONSTRUCTION                                0508
B2401400180000000073732TURNSAT INTERNATIONAL LOGISTICS CORP.                    1601
A2401400180411478374004MESRIYA ABDULLAH                                         0501
A2401400180411478374061JUNRES AGAD OR                                          10501
A2401400180411478374061NORMELITA BLANCO                                        20500
A2401400180411574010001TUPAS, KHERYL PARRENO                                    0501
A2401400180000003949173SERMESE, JENALYN LEGASPINO                               0501
A2401400180411620777001DUMALAG, MARIA TUYOC                                     0501
A2401400180411680952001ALCOVER, MA. SOCORRO TENAJA                              0502
B0901400220000000888177**********                                               1603
A0101403030441090730001**********                                               0501
B0101403320000001647218ARMANDO U. KHONG HUN GENERAL                            11601
B0101403320000001647218CONTRACTOR INC.                                         21600
B0101403320471518351001LEGACY UNLIMITED, INC.                                   1605
B1401400110000000034693LUCENA CITY PHARMA CORPORATION                           1601
A1401400110000001806873BUERA, ALICIA NARVAEZ                                    0502
A0101406880000002291790VALENZUELA, MARIA CARMEN LIZARE                          0501
A0101406880000001286762ALANDY, ULYSIS SABAS DBU ALTEL                           0501
A0101406880513392342002RAMIREZ, MA. ELENA MANGAMPO                              0501
A0101406880513454169001PE, CAROLINE UY                                          0504
B0101408110515017881001GROUP MANAGEMENT CORPORATION                             1603
A0101408530516482667001GADDI, FATIMA LUCIA SARENAS                              0501
A0101403450521240285002**********                                               0502
A0101404000000001187053GARCIA, MARISTELA GARCIA                                 0501
A0101404000551361842004VILLACORTA, MELANIE LAGRANA                              0501
A0101404000551564985001TORCULAS, LYNNIE ANN LAGARDE                             0503
A2201400250000000141200NOEL M. ESPINOSA DBU N.M                                10501
A2201400250000000141200ESPINOSA CONSTRUCTION                                   20500
A2201400250000001066073JCP AND 3 SONS TRADING CO.                               0501
A0101410690600046558001RANDXELL'S DIGITAL PRINTING &                           10502
A0101410690600046558001PHOTOCOPY CENTER                                        20500
A0101404130601039572001NORMA SANTOS ESTEBAN                                     0501
A0101404130601657831001LAURON, MARCOS ARCADIO GALANG                            0502
B0101407720602016380001PHIL ASSO OF CHRISTIAN COUNSELORS INC.                   1601
B0101409890649046783001**********                                               1601
A0101409920000001951891MEMBERS OF NATASHA (SHOECAT INC                         10501
A0101409920000001951891BARTE, CECILE                                           20500
A0101413570656057648053MARIA CAPARUZO                                           0501
A0101413570000000635530CARLOS ANGELO O. GOZON                                   0501
A0101413990000002273930APOSTOL, KRISTOFFER JOHN PAPA                            0503
A1301400210682332597001EDWIN A GONZALES   OR                                   10501
A1301400210682332597001MAYRA P GONZALES                                        20500
A1301400210682396526001GUIA E. PESTANO-DACUMOS, M.D.                            0502
A1301400210682405530003MARITA Y. ESPIRITU                                       0501
A1701400230693478374015FERNANDEZ, FEMA L.                                       0501
B0101408240000000005552PACIFIC AOE LOGISTICS INC.                               1602
A2801400100000002253469HERILLA, ANDREA MONTAJES                                 0501
B4101400260000001199128CHEF ELMER FOOD SOLUTIONS CORP.                          1602
A4101400260000003679943TAN, ANGELINA                                            0501
B4101400390813019416002STI COLLEGE-ROSARIO, CAVITE, INC.                        1602
A4101400390813378814001GIGI D. ABOGADO                                          0501
B4101400390813766574001SCIENCE TECHNOLOGY INSTITUTE OF ROSARIO                  1602
A4101400420814478374162RODORA A. CAUSAREN                                       0501
A4101400550815042023002AUTOWELL TRADING                                         0502
A0101404840851520766073ELIZABETH A. SUAZO                                       0501
A0101404840851737546001MERCADO, LAUREL ASPREC                                   0502
B0101406750852033630001NEO-TES CONSTRUCTION SERVICES                            1601
A0101406750852478374062ZAIDA A JIMENEZ                                          0502
A0101406750852478374085CARMELA REVESENCIO                                       0501
B0101405070861047281001AVISTELE CORPORATION                                     1601
A0101413860000000145008GALICIA, MARY ANN GONZALES JT                           10501
A0101413860000000145008DAVID, ERLINDA                                          20500
A0101413860000001886855CRUZ, MALAYANG DIWA MEDIJA                               0502
A0601400230000000186823LAZATIN, JANET RITA BAUTISTA                             0503
