B1901400290261821100608**********                                               2005
A0101412470000002295770TIQUIA, MA. LOURDES NAVARRO                              0502
A0101403610531548246001IGONIA JR., SERGIO ORIONDO                               0501
B0101404260611353663002CLAMAR, GLENDA SUAREZ                                    1601
A0101408370382592860001ANGELINE S. TINGA                                        0502
A5501400120000005492322TUMAMPIL, TYRON VON BUSTAMANTE                           0504
A0101412890000011812963VICENTE, ORNAN SEVIDAL                                   0502
A0101412890000011813142HERNANDEZ, ANNALIZA PALANA                               0502
B0101412890000007906092PAPAJEK FOOD CORPORATION                                 1602
A0101410140000010760368BATANGANTANG, MA. ASTRUDE ZARAG                          0502
A0101410140475478374010PELAEZ, BEATRIZ GUEVARRA                                 0501
B1701400230000002762558STA. TERESITA HOSPITAL  (STH) INC.                       1601
A0101400860000011515961**********                                               0502
A0101400860011464161001**********                                               0505
A0101400860011514595001********                                                 0502
A0101400860011559271001**********                                               0505
A0101401250021178953002TENSUAN, ERNESTO OR NECITAS OR                          10510
A0101401250021178953002EMMANUEL                                                20500
A0101411370000005524421BATUIGAS, AURORA REBOQUIO                                0501
A0101400150000014709458TAMERA, LUIRENE YSON                                     0501
A0101400150000003322443RICHARD B. VILLANUEVA                                    0503
A0101400150000004915311SAN PEDRO, RACHELLE GRACE OCOL                           0501
B0101400150061011050001A & A SECURITIES, INC.                                   1605
A0101400600071461128001**********                                               0502
B0101405810072040421001SK-T COMPANY                                             1602
B0101405810072507268003**********                                               1601
A0601400100000010025002TOLENTINO JR., CESAR LAPIRA DBU                         10505
A0601400100000010025002CELIANTO ENTERPR                                        20500
A0101410560000010093460PETIL JR., ARTEMIO TIBAYAN                               0501
A0101410560000010317790TOV TRUCKING SERVICES                                    0503
B0101400730000009389940AMARONN FOOD AND SERVICES INCORPORATED                   1602
A0101400730111478374020FERMANES, LILIA S                                        0502
A0101401830141209187002PEEJAY JENNIFER G. LAO                                   0501
A0101401830141239325001CRUZ, VERNON CRUZ                                        0504
A0101401830141239325001CRUZ, VERNON CRUZ                                        0501
A0101401830000001281910DE GUZMAN, CONCEPCION FRANCISCO                          0501
A0101401830000010452803SAMONTE JR., ANTONIO IBARRA                              0502
A5001400170000014724360INSALADA, FALCONERIE MOMONGAN                            0501
A5001400170153062924002DAAROL, ZORAYDA DBU MANUEL RESO                          0501
B0101412920160065603001CELEBRITY CONSTRUCTION INC.                              1602
A0101400440161591337001JENESSEY A. RANCES OR                                   10502
A0101400440161591337001JESSIE O. RANCES                                        20500
A0101407270000008409187PASCUAL, JEMAR COSTA                                     0502
A0101407270000000010060SPIRO CLEMENTE OR                                       10502
A0101407270000000010060JENNIFER CLEMENT                                        20500
B0101407270000000830471SPIRO L. CLEMENTE AND JEFFERSON T. SO                    1601
A0101407270162164614003FERNANDO ALFONSO                                         0504
A0101407270162404819001ANG, TED SARTE                                           0502
B0101401090000013757047MAXCOR PUBLISHING HOUSE INC.                             1601
A0101401090171195941001AURORA S.D. MARTINITO                                    0501
A0101401090000000210373MARC ROBERT LADISLA OR MARIA                            10510
A0101401090000000210373VICTORINA LADISL                                        20500
A0301400530000002318492TORRES, MERIDETH ISALES                                  0502
A0301400530000011715212BELLO, KENNETH VINCENT SOLAMILL                          0501
B0301400530193038633008JHG TRADING, INC. - A                                    1610
B0301400530193038633088JHG TRADING, INC. - B                                    1610
A0301400790000001010620SIMON, DIOSEE GENTILES                                   0501
A0301400790000006269834JALALON, CONNIE GENTILES DBU                            10501
A0301400790000006269834D C G GASOLINE STATION                                  20500
B0101401380000005960103SHOOTERS SECURITY SERVICES, INC.                         1601
A0101401380201554626001BANGURAN, MYRNA BRINGAS                                  0501
A0101413600000003134534FRANCISCO B. SINGIAN                                     0501
A0101413600000005355120******                                                   0501
B3101400160000010010610FRANCISCO P GARCIA & CYNTHIA T ALARCON                  11610
B3101400160000010010610& LEILA D TORRES                                        21600
A3101400160000002355893CHIPECO, ROLANDO MONTANANO                               0501
A3101400450000013739698MALIGALIG, IMELDA DEQUITO                                0501
A3101400870000014724228VERACRUZ, SHIERYL ENTENA                                 0501
A3101400870000014724451SANTOS, KHARLA DIOKNO                                    0501
A3001400130000010506606BESMANOS, CORNELIA BALAGA DBU M                         10503
A3001400130000010506606HIE-MHIE PHARMACY                                       20500
A1001400190231478374012FARINAS, EVA MAE CENTO                                   0501
A1001400190231478374128BONIFACIO, LIZA                                          0501
A1001400190231520766031CARANO-O, JANFIR JANE V                                  0501
A1001400190231520766106MATURAN, EUMEDE JUAREZ                                   0501
B1001400350233039624001ORO LZT MARKETING ENTERPRISES, INC.                      1604
B1001400350000002367273CHAN JR., BENJAMIN PO                                    1603
B1001400480000000133268**********                                               1610
B1301400470000003270113OBRIGADO LENDING INVESTOR, INC.                          1601
A1301400470252599213002REYNALDO OR ROSARIO TERESITA OR                         10501
A1301400470252599213002RAYMOND JOSEPH ODULIO                                   20500
A1301400760000012980713PATRICK C. PINILI OR CHERRY                             10503
A1301400760000012980713HILL A. PINILI                                          20500
A1901400290000001975346RASMIA MIMBALAWAG LUMACTOD                               0501
B1901400290261027293001LIPA MEDICS INC.                                         1620
B1901400290261027293002LIPA MEDICS INC.                                         1602
A0101401670271518087001* * * * * * *                                            0502
A0101406460000002330887SON, HARRY GO                                            0501
A0101406620273720692001******                                                   0502
B0101411820000014713841ASCEND PARTNERSHIP SOLUTIONS, CO.                        1601
A0101412470000010561714UY, MARK BENEDICT ABELITA                                0504
A0101400570000012977125SAN JOSE, JEROME KYLE RASCO                              0502
A0101400570281506269001MABERIT, ADELITA MANALO                                  0501
A0501400200000005751646JACINTO, JOCELYN ORPILLA                                 0502
A0501400200292567569001LARILYN D. GATCHALLAN                                    0501
B2601400270000000020639IGNACIO DATU OR WILMA DATU                               1610
A0801400160000000476313REX MUZONES                                              0502
A1101400120000003022413DUCENTES, GLORIA TROCINO                                 0502
A1101400120000003197233DONNA FE A. BATAN OR                                    10501
A1101400120000003197233DOROTEO B. BATAN                                        20500
A1101400120000003022384ELCARTE, ERNA GONZAGA                                    0501
A1101400120000013536711MEMBERS OF NATASHA, SHOECAT INC                         10502
A1101400120000013536711MARISSA A. LUCIDO                                       20500
A1101400120313478374067COSTIMIANO, LUCY DEJERO                                  0501
A1101400120000006186332MAGLASANG, LAARNIE VALES                                 0502
A3401400280000002323451PETE'S STOP TIRE                                        10502
A3401400280000002323451AND CAR CARE CENTER                                     20500
A3401400280000003309219ROMULO D. CAPUNONG OR RUELYN C.                         10503
A3401400280000003309219EDUQUE                                                  20500
A2901400130000005961253YABUT, MARK ARBUES DELA CRUZ DB                          0502
B0101405650322021985002FOREST LAKE DEVELOPMENT, INC.                            1601
B0101405650000000772685WISEMEDIA GROUP, INC.                                    1601
A0101402510000011748862QUICHO, NELFA EDORA OR QUICHO,                          10502
A0101402510000011748862FERNANDO CATCHILLAR                                     20500
A0101402510341763814001HORTALEZA, JOEDY VALDEZ                                  0502
A0101402060351030004001ZANVEL MANPOWER SERVICES                                 0502
A0201400760374443220001GO, ELIZABETH TIU OR                                    10501
A0201400760374443220001NGO, JUANITA TIU                                        20500
A0201400920000009575131GUANLAO, ANNABEL TANUCO                                  0503
A0201400920000002804480MIRANDA, SAMMY                                           0501
A0201400890000006961900CUIZON, JASMINE LAURON                                   0501
A0201401020000004398363AGURO, ROWELA AGRAMON                                    0501
A0201401020000004409089DELFINO, RHEENAN GONZALES                                0501
A0101402930000009325019ILAGAN, SALONICA ANDAYA DBU N.I                          0501
A0101408370000009296762MENDOZA, SARAH CHRISTINE DOMING                          0503
A0101408790000003812166TUANDO, ALJUMAR CLIMACO                                  0501
B0101402770000001571660CVM FINANCE AND CREDIT CORPORATION                       1610
A0101405490000011287871ESTUITA, MAY VERZO                                       0501
A0101405490392177005001DOMINGA P. BUENAOBRA                                     0501
A0101405490392399841001GODOFREDO L. MALLARI JR. OR                             10501
A0101405490392399841001ROSE L. MALLARI                                         20500
A0101408400000014706215IBARDO, JESTINE GRACE CATUBLAS                           0501
A0101408400000014706168CEPE, CLAIRE MARIE PILAYRE                               0501
A0101408400394060869002SPSD PRIMAICONS CASTING AGENCY                           0502
A0101408400394478374034MERLA M TANO                                             0502
A0101408950000011598868MURALLON, MARLON VERGARA                                 0502
A0101408950000000776741TABLANTE, EMILIANO BAULA                                 0502
A0101408950000002255450LIM, ADELINA SABAY                                       0502
A0101409210000002802688JUNGAYA, MARIA REINA MARTIREZ                            0501
A0101409210000007864051SUN, KRISTINE MANALOTO                                   0501
A0101409210398733233001NARON, IRIS JUSTINE BUAYA                                0501
A0101412210000003448673MONSALVE, MARIO CANLAS OR                               10503
A0101412210000003448673MONSALVE, MARIAN                                        20500
B0101412210000007251670SALCEDO SQUARE RESIDENCES CONDOMINI                      1602
A0301400820000007372963DUAY, LEAH S.                                            0505
A2401400180411059128001ELZANO ENTERPRISE                                        0502
A2401400180411344858001CHUA, MAGDALENA SALAZAR                                  0501
A1201400150421369824001MARMELINA I. CAIDO OR                                   10502
A1201400150421369824001BENIE C. CAIDO                                          20500
A1201400150000011415853MENDOZA, EMMA BONG-OG                                    0501
B0901400220000000888133ZC SECURITY CREDIT CORPORATION                           1602
A0901400220000001805090**********                                               0502
A5101400100000010834147FERRERA, EVELYN TIGTIG DBU ROVE                          0502
A0101403030441239184001DARWIN NG                                                0501
B0101403030000005944818**********                                               1602
A0101403320000014713469NORTHAMPERE ELECTRICAL SERVICES                          0501
A0101412760000011574953CONIEGA, ANTONIO CARDONA                                 0502
A0101412760000002067621DEL ROSARIO, DBU MEGA MB GRAPHI                         10502
A0101412760000002067621C DESIGN & PRINT                                        20500
A0101412760000001399293PEREZ, GABRIEL REYNALDO P. OR                           10501
A0101412760000001399293PEREZ, REYNALDO                                         20500
B0501400170481025398002COSTSAVER'S SUPERMARKET, INC.                            1601
A3801400170000000154203DON ERIX TROY M MAGNO                                    0505
A1401400110000014625533ABCEDE, ALYCA JHONNA SIDRO                               0502
A1401400110000013091435ESCARO, SHIERALYN CANDELARIA                             0502
A0101407430503736499001CECILIA R. NALAUNAN                                      0501
A0101403580511420184003MARIA CAROLINA S. MACASAET                               0525
A0101408530000014713629PERLADO, JOSEPH AGNES CORAZON P                          0501
A0101408530000014719189VALLEGA, SHIELA JANE AMBA                                0501
A0101408530000014719236DAZA, PRECIOUS GRACE DELIMA                              0501
A0101408530000014719316ROMUALDO, RAY ALVIN AMBLON                               0501
A0101408530516554597001MALALUAN, SHIRAZ M. OR                                  10501
A0101408530516554597001ARREGLADO, GREGO                                        20500
A0101411400000014720880DEL ROSARIO, BIANCA CAMILLE OCA                          0501
B0101403610000006637114RD PAWNSHOP, INC.                                        1603
A0101410690000006663585PENG, CHAO                                               0505
A0101404130000001831727DIMAPILIS, TERESITA GUNIO                                0502
B0101404130601035292001SILVER ROSE GENERAL MERCHANDISE                          1610
B0101407720602044366001A. ILUSTRE & ASSOCIATES, ARCHITECTS                      1602
A0101407720602161918001MARY ANNE LUCIANO-AMON OR                               10505
A0101407720602161918001JONATHAN M. AMON                                        20500
A0101407720602283353001ERWIN HERNANDEZ OR                                      10501
A0101407720602283353001AGNES HERNANDEZ                                         20500
A0101412180000003275523MONTORO, SUSANA REYES                                    0501
A0101412180000010395036REYES, MARIA CARMEN GARCIA                               0501
B0101412180603043679001LEADS AGRICULTURAL PRODUCTS CORPORA                      1602
B0101404260611036634001BREEZE WOODS DEVELOPMENT CORPORATION                     1601
A0101404260611151320001NAYDA N. SONZA OR ORLANDO SONZA                          0501
A0101404260611478374078SUPERAL, CORAZON                                         0502
A0101409890000009468539GALMAN, MARICEL BANDILLA                                 0503
A0101409890000006812980S.V.U. FEEDMILL                                          0501
B0101407690652025536001ST. MARK'S CHILD DEVT. CENTER, INC.                      1603
A0101413440000006680711TAYAG, DENISE OCAMPO DBU D.O.                           10501
A0101413440000006680711TAYAG'S KITCHEN STORE                                   20500
A0101413570000000635603CABACUNGAN JR., TORENIO CASEM                            0501
A0101413570656057648176RONNA MYR M. NANAO                                       0501
A0101414120000002172527AMELIA DE JESUS OR EDGARDO                              10501
A0101414120000002172527DE JESUS                                                20500
A0101414120000005252853******                                                   0501
A0101406590662590885001BARRIENTOS, MARITES ABRAHAM                              0503
A1301400210682493606002PAQUITO SALALILA OR                                     10501
A1301400210682493606002MARISSA SALALILA                                        20500
A1301400500000000213390********                                                 0501
A1701400230693744218001LOPEZ, JOY NAVARRO                                       0501
A0101408240000012315854RAMOS, ALBERTO EMILIO OR                                10502
A0101408240000012315854RAMOS, ELIZABETH                                        20500
A2801400230000012228487YAN, YEEN TSAN FOO                                       0501
A2801400230000009022246**********                                               0501
B2801400230000005253721PERLA COMPANIA DE SEGUROS, INC.                          1601
A4101400260000003680102SASO, MARINA DINGLASAN                                   0501
A4101400260000012856732ANDALLON, BIENADI                                        0501
A4101400260000012857320BANTING, MICHAEL ANGELO                                  0501
A4101400260000012858261CALUBAQUIB, ALDWIN                                       0501
A4101400260000012860361DELMUNDO, RHODA MAY                                      0501
A4101400260000012860583DJANDAGHI, ASHLEY                                        0501
A4101400260000012861291FILOSOPO, MAY ANN                                        0501
A4101400260000012862272GUEVARRA, MARLON                                         0501
A4101400260000012862578HIPOLITO, ALVIN JEROME                                   0501
A4101400260000012864103MALONZO, MA. PATRICIA FRANCESCA                          0501
A4101400260000012866861PAPA, ROMMELL                                            0501
A4101400260000012893160GERONA, ALICIA                                           0501
A4101400420814478374030LIGAYA ILANO                                             0501
A4101400420814478374144JOCELYN TALANA                                           0501
B4101400550000006044151MONTON, FERDINAND CABALAN AND PELAGIO,                  11601
B4101400550000006044151LENA MOLINA                                             21600
A0101412340000003438624BERNADETTE A. HODGES                                     0502
A0101404840000012411139TANGSAWASDIKUL, GOBBOON                                  0501
A0101404840000010224516NAVARRO, SHARON ROSE D.                                  0502
A0101406750000009472200SABRINA DAVID                                            0501
A0101406750000001491823VILLACUTA-MORA, SHERRILYN BDO                           10503
A0101406750000001491823DENTAL HAVEN                                            20500
A0101406750852380584002RABE, LEAH                                               0501
A0601400230000014703170AVILA, SHARMAINE JOY CARINO DBU                         10501
A0601400230000014703170RSN LIGHTINGS OR AVILA, R                               20500
