F0401400270000000006715ISECURE REALTY CORPORATION                               2610CKR
F0101407690652034386001THE COLUMBIA GARDEN RESIDENTS                           12601CKR
F0101407690652034386001ASSOCIATION, INC                                        22600CKR
