B0101405100571821100608**********                                               2005
A0101412050000000323646SCHUCK, MARIA DEODITA MARGARITA                          0501
A0101406620000003661385LAGMAN, MICHELLE MENDOZA                                 0501
A0101405650000004822220YANGUAS, DOSIE SALDANA                                   0501
A4101400260812478374078DATU, CARMEN                                             0501
A1001400350233732232002CAUBE, MARIVIC JAMERO                                   10503
A1001400350233732232002OR CAUBE, VICTOR                                        20500
A0101400570281043930002REALTY & ENTREPRENEURSHIP                               10501
A0101400570281043930002ACADEMY OF THE PHILIPPINE                               20500
A2001400290000001557520DOMALAON, LELANI LASMARIAS                               0502
B2001400290315047753001SILLIMAN UNIVERSITY COMMUNITY COOP.                      1610
B0101402060351009368002RESINS INCORPORATED                                      1601
B0101402060351085656001REBINTECH CONSTRUCTION, INC.                             1604
B0101409890649821100608**********                                               2003
B0101400860011232941001**********                                               1601
A0101400860000005313068**********                                               0504
A0101401250021180271001ERLINDA V. EQUIBAL                                       0501
A0101400150000003162887KARINA MARIE V. CACHO                                    0501
A0101400150000003141500ROQUE, DANTE VILLAMOR                                    0502
B0101400150061011006001LUCY CORPORATION                                         1601
B0101400150061021027002UNI-FIL TECHNICAL SERVICES CORPORAT                      1601
B0101400150061493496001TECHNOLOGY ENABLER DESIGNERS (PHILS) INC                 1603
A0101405810072381557003MATEO, ANALYN CASTILLO                                   0505
B0101405810072409064001**********                                               1605
A0101410850000003102034CHAN, PETER TSAI                                         0504
A0101410850000003503631BULUSAN JR., R DBU ROBUST                               10502
A0101410850000003503631GENERAL INDUSTRIES                                      20500
A0101410850000006560001VELASQUEZ, DBU R.M. VELASQUEZ                           10505
A0101410850000006560001ENTERPRISES                                             20500
A0101410560000001944043GOODNESS & MERCY MOVERS                                 10503
A0101410560000001944043SERVICES                                                20500
A0101410560000005836091LNJ PRINTING PRESS                                       0502
A0101401960000002331813LADARAN, LANI VILLANUEVA                                 0501
B0101401960121011796001**********                                               1605
B0101401960121046474001DE LUXE HOME DESIGN CENTER, INC.                         1601
A0101401960121238737001*********                                                0503
A0101401830000001139997VIOLAGO, MA. MERCEDES MENDOZA                            0501
A0101401830141526215001DE LOS REYES, THELMA REMOS                               0501
A0101401830141752259001CARANDANG, FREDERICK ANGELES                             0501
A0101400440000004889898MA. CARMELA ERNA                                         0501
A0101400440161520766185FLORA S. CHUA                                            0501
A0101400440161602321001ROLAND B. GALVAN                                         0502
A0101400440161785794001MARY ANN O. DUMAPIAS                                     0505
A0101407270000007864940LEONARDO JOSE BERBA                                      0501
A0101401090171195860002JOVE JIM S. AGUAS                                        0502
A0101401090171287980001ROMIL M. MARTINEZ                                        0506
A0301400530000000025243RAZONABLE JR., CAMILO L.                                 0502
B0301400790195053525001EMCELI PROPERTY HOLDINGS CORP                            1601
A0101401380201564133001NABLO, RODOLFO ORANTE                                    0501
B3101400160221024274002STA. CECILIA BUSINESS CENTER                             1601
A3101400160221220163001AZUCENA R. BEREDO                                        0501
A3101400450000000013970YAMADA, LEONIDA PAMFILO                                  0502
A3101400450000000163506PEREZ, RAFAEL SALAMAT                                    0501
A1001400350233505176001AGAWIN, ERLINDA GALENZOGA                                0502
B0101401670271007087001BELSON SECURITIES, INC.                                  1610
B0101406460000001231656EASTGATE COMPUTER CORPORATION                            1601
A0101406460000002330887SON, HARRY GO                                            0501
B0101406620273036393001REYES, REYES & RIVERA-LUMIBAO LAW                       11602
B0101406620273036393001OFFICES                                                 21600
B0101406620273047822001ROCKHAUS REALTY AND DEVELOPMENT INC.                     1601
B0101406620000003497289NATURASI, INC                                            1603
B0101411110000001037074NIECER TRADING COMPANY INC.                              1602
A0101411820000001356554JOSEFINA M. CALABIG                                      0503
B0101412470000002338872ACTS ACHI & AHIA, INC.                                   1601
A0801400160311170180001TAI, KUO AN                                              0502
B1101400120000000653150PERPETUAL HELP MULTI-PURPOSE COOPERATIVE                 1603
A1101400120000006186478BOLECHE, MERLINE BANDALA                                 0502
A0101402350321478374058DELA CRUZ, MERLITA GABON                                 0501
A0101402350321654355001PARK, HUN NAM OR HWANG, HEE                              0501
A0101405650000002325548GREGORIO, DALMACIO HILARIO                               0501
A0101405650322647248001SEBASTIAN, GENEROSE ALIDO                                0501
B0101402510341037808001FAIR ALL MARKETING                                       1602
B0101402510341037951001D' MULTI-ESSENCE PRODUCTS                                1602
A0201400920000001331504GARCIA, NILA NOYA                                        0501
A0201400890000007668479**********                                               0503
A0201400890000007668480**********                                               0502
B0201400890376042233001CEBU BOLTCENTER CORPORATION                              1610
A0101408370000000335631NANALE, MELYN PABUNA                                     0501
B0101415350390821200608**********                                               2002
A0101402770000001570725DBU CHRISTINE MANALO VILLAMORA                          10501
A0101402770000001570725INTERIOR DESIGNS                                        20500
A0101402770391217498021ARLAN ANTONIO JR. REYES                                  0501
A0101408400000001213643REGALADO, ANGELA AMOR BALDOS                             0501
B0101408400394025635001KETMAR FASTFOOD CORPORATION                              1605
A0101408400000001213501FERNANDEZ2 AND CO ENTERPRISES                           10502
A0101408400000001213501COMPANY                                                 20500
A0101408400394478374034MERLA M TANO                                             0502
A0101408950000007458913RIVERA, MARIA CRISTINA SANTIAGO                          0503
A0101409180000003882359VALEIRY FLORES                                           0501
B0101409180397044045001CACHO CONSTRUCTIONS, INC.                                1602
A0101409180397681135001UICHICO, ERNESTO FLORO                                   0501
A0301400820000004746101FAMACION, RAMSEY DBU JARED SUIT                         10502
A0301400820000004746101ES OR FAMACION, BEULAH                                  20500
A0301400820409094648001LADAGA, SHERRYL E. OR LADAGA,                           10502
A0301400820409094648001JOSEPH FRANKLYN V.                                      20500
A5501400120000002949622SANDIG, EDGARDO REYES                                    0501
A5501400120410705630001DIZON, LEANDRO ADOR ANDRES                               0502
A2401400180000002146367ONG, FE LEAH PACAYRA                                     0502
A1201400150421419955001CADWISING, CANDIDO PAGTOC                                0501
B0901400220000000012175FLORIVEL M. DE JESUS ACCOUNTING OFFICE                   1601
A0901400220432093658001LYDIA L. RAMIREZ OR                                     10506
A0901400220432093658001MARIA LEILANI R. YEO                                    20500
B0101403030441574082001**********                                               1610
B0101412890000000007007CREATIVE FILES INC.                                      1606
A0101403320000007744343ALVAREZ JR., SERVANDO BAUTISTA                           0501
A0101403320000006027276PIALAGO, RODEL CANETE                                    0501
B0101403320471035191001ST. GABRIEL CREDIT COOPERATIVE                           1601
B0101403320471043308001DAMAYAN AT TIYAGA FOUNDATION, INC.                       1601
A0101410140000001940110BARRIOS, MARISSA ACHACOSO                                0501
B1401400110000000167468PETER PAUL PHILIPPINE CORPORATION                        1605
B1601400170494047397001FEDERATION OF BACMAN HOST                               11602
B1601400170494047397001COMMUNITIES, INC                                        21600
A0101407430503036416001JUPITER'S BUTCHER SHOP                                   0510
B0101407430000001213261ROMINE LASERJET TONER CORPORATION                        1602
A0101407430503375315003LILIAN LIZA C. MACATO                                    0501
B0101408110515027863001INTERNATIONAL SPECIALTY CONCEPTS, INC.                   1603
A0101408110515035205001A.Z. CORONEL BUILDERS                                    0504
A0101408530000002260128MONTOYA, JOHN ARAYATA                                    0501
B0101408530516005188001SEARCHERS & STAFFERS CORP.                               1610
B0101411790518821100608**********                                               2001
B0101403450521441848001**********                                               1605
A0101403450000001769997**********                                               0501
A0101404000000000574618OH, JONG EUN                                             0502
A0101404000000005867138MANAHAN, JANELLE ANN CAREN QUIN                          0501
B0101404000551026854001MACKIM PRINTS, INC.                                      1602
A0101404000551166600005EVELYN SORONGON                                          0502
A2201400250000001545375YAMAMOTO, MASARU                                         0501
A2201400250000003558190EDWIN S. ESPIRITU OR ANNA                               10501
A2201400250000003558190JESSICA S. ESPIRITU                                     20500
B0101405100571821200608**********                                               2001
B0101407720602005906001ASSOCIATED MEDICAL & CLINICAL                           11610
B0101407720602005906001SERVICES, INC.                                          21600
A0101407720000005100194BERNARDO, CARMINA GRECIA                                 0502
B0101404260000004781200G1CAFE INC.                                              1601
A0101404260611337876002CHING, ROSA MATIAS                                       0503
B0101404420631821100608**********                                               2001
B0101404420631821200608**********                                               2001
A0101409920650478374030DELA CALZADA, REGIL OMLANG                               0501
B0101407690652039085001JUNBEL INDUSTRIAL SYSTEM CORP.                           1601
B0101407690652041404001AUBURN POWER TECHNOLOGIES INC.                           1601
A0101407690652319667001TANTAMCO, RAMON NICOLAS                                  0510
A0101407690652445517001ALFEROS, MAELLEN GRACE SUALOG                            0501
A0101407690652478374131TARROQUIN, NORA - DEALERS OF                            10501
A0101407690652478374131SHOECAT, INC.                                           20500
A0101407690652520766035EMILDA R. TAMAYO - DEALERS OF                           10501
A0101407690652520766035SHOECAT, INC.                                           20500
A0101407690652723779002DE JESUS, AUGUSTO THEODORE OR                           10505
A0101407690652723779002AUGUSTO OR JOSE                                         20500
A0101407690652763117001MARILYN BAGGAYAN AND CONSTANCE                           0502
A0101410300663737649001ERLINDA G SANTOS                                         0502
A0101410300663776849001******                                                   0503
A1301400210000002909191PANGAN, BIENVENIDO CASTRO                                0502
A1301400340000005264780INSIGNE, MERNANDO VOLUNTAD                               0503
A1301400340683560646001BUGARIN, ONOFRE BRILLANTE                                0502
B1301400500000005963415******                                                   1602
B0101408240000000832644COLLYER SHIPPING PHILIPPINES, INC.                       1605
A2801400100712378394001REYNOLD JOHN B. MADAMBA OR                              10502
A2801400100712378394001ANNE RAQUEL S. MADAMBA                                  20500
A2801400100712478374012DELA CRUZ, VANESSA JOY                                   0501
A2801400100712551709001SANTOS, OSCAR CO                                         0510
A2801400230000001734761FERMIDA CONSTRUCTION SERVICES                           10501
A2801400230000001734761AND SUPPLIES                                            20500
A4101400420000002345331MERCEDITA D. LAGDAMEO                                    0502
A4101400550000006044651AAT COMPUTER SUPPLY                                      0502
A0101405070861478374073ROSARIO V. PARRENO                                       0501
A0101413860000001886877AGUSTIN, GINA TRINIDAD OR                               10503
A0101413860000001886877TRINIDAD, JOSEPHINE                                     20500
A0101413860000007252399WU, SHEN WEI                                             0502
A0601400230000002310127VIANZON, NOEL MORALES                                    0502
B0101417550920482000022**********                                               2001
