B0601400520000000398512PAGASA PHILIPPINES LENDING COMPANY, INC.                 1606
A6601400120000000060795ALCAZAR JR., CESAR GIBA DBU                             10501
A6601400120000000060795INK FOR CARE & SERVICES                                 20500
A0901400220432769818088**********                                               0501
B0101403320471235950001LUCIA DE LOS ANGELES DI RAMOS                            1601
A0101405940000005068242AIMEE R. CACAYORIN                                       0501
A0101405940512152345001OFELIA D. DE GUZMAN                                      0501
A0101400860011081984001**********                                               0502
A0101400860011461291003**********                                               0501
A0101401250000002289978TEDIOS, DECILIN SELVESTRE                                0502
A0101401250021041673001TROPICAL HARVEST MARKETING                               0505
A0101401250021178953002TENSUAN, ERNESTO OR NECITAS OR                          10510
A0101401250021178953002EMMANUEL                                                20500
A0101400150000003322374PAGBA, LOIDA                                             0501
B0101400150061009769001KEYLAND CORPORATION                                      1620
B0101400150061010845001LUCY PROPERTIES, INC.                                    1604
B0101400150061023257001**********                                               1601
B0101400150061042005001PHYSICAL DISTRIBUTION NETWORK CORP.                      1601
A0101400150061226989001EDUARDO E. CAEG OR                                      10501
A0101400150061226989001BESSIE C. CAEG                                          20500
A0101400150061370228118ZENAIDA L. TAN                                           0501
A0601400100081424085002ALAPAG, JASMINDA BRIONES OR                             10502
A0601400100081424085002SARMIENTO, FE SA                                        20500
A0601400100081501761001TAN, WINTHEL OR RALPH                                    0501
B0601400360000003186714BSD TRADE SERVICES CORP.                                 1602
A0601400520000005001432SERRANO, JELEZA PEROCHO OR                              10502
A0601400520000005001432SERRANO, ARNEL FRANCISCO                                20500
B0101410850000007294251GUCO INDUSTRIES CORP.                                    1606
A0101400730000000833396CARBONELL, LEVINA IBALE                                  0505
A0101412630000004061965SABERON, PAUL RICHARD ABADA                              0502
B0101401830000000033581CARITAS SALVE CREDIT COOPERATIVE                        11602
B0101401830000000033581(BULACAN) 003                                           21600
B0101401830000000033592CARITAS SALVE CREDIT COOPERATIVE                        11605
B0101401830000000033592TAYUMAN (004)                                           21600
A0101401830141306724003GUEVARRA JR., ANTONIO PASCUAL                            0502
B0101412920160022330002S.M. CASTRO MANAGEMENT & CONSTRUCTION                   11602
B0101412920160022330002SERVICES                                                21600
A0101407270000007783375MARIFE J. LOGO                                           0501
A0101401090000001618931ESCOBAR, MARIA LOURDES B.                                0503
A0101401090171335821001FLORA JEAN R. CABRERA                                    0501
A0301400530000006239472PABROQUIZ, JONELYN VISAYA                                0502
A0101401380201038274001CHI-JO RESTO BAR                                         0502
A0101410720653172730002DE GUZMAN, ANGELINA GONZALES                             0502
A0101410720000000882862CASTRO, JASMIN PABLO                                     0501
B0101412500000000041669ACETECH, INC.                                            1605
A0101412500214062488001SANKALPA YOGA STUDIO                                     0501
A0101413600000003851176ARNOLD R. MENDIORO                                       0501
A3101400450223459293002CORONADO, ABNER LOPEZ                                    0501
A1001400190231478374090HOY, MINELLYN J.                                         0502
A1001400190000002170656AMELINA E. FACTURA                                       0501
A1001400350233272028001MAANDIG, ERLINDA B. OR                                  10503
A1001400350233272028001MAANDIG, CARLSTO                                        20500
A1001400350000002367273CHAN JR., BENJAMIN PO                                    0505
A1001400480000000133279**********                                               0502
B1001400480000000133611TRADEMAX CORPORATION                                     1601
B1301400760000005989822GLENN ANTHONY DE JESUS OR KAREN GALILEE                 11602
B1301400760000005989822DE JESUS                                                21600
B0101401670000000016300NEWLINE INDUSTRIES, INC.                                 1603
A0101400570281442308001ABAYA, CAMILLE ANN CASTANEDA                             0505
A0501400200292673006001DE GUZMAN, JOSEPH RANGEL OR                             10501
A0501400200292673006001DE GUZMAN, GLENDA                                       20500
A2601400270000000084273BATALLONES, TELESFORO DBU T.G.                          10505
A2601400270000000084273BATALLONES TRADING                                      20500
A1101400120313478374074UNGAB, ROSALINDA B.                                      0501
A1101400120313478374093GIMARANGAN, JINKY A.                                     0501
A1101400120000000652351YAO, RONALD PHILIP GO                                    0501
B3401400280000000784641CAPUNONG, ROMULO DELCANO OR EDUQUE,                     11602
B3401400280000000784641RUELYN CAPUNONG                                         21600
B0101402350321024658002OLIVAREZ COLLEGE INC.                                    1608
A0101405650322172164002AQUINO, CHRISTIAN CASTRO                                 0502
A0101405650322553972001CALUGAY, PAULO M. OR                                    10501
A0101405650322553972001CALUGAY, KATRINA                                        20500
B0101405650322612381001GREENTREND PRODUCT LINES CORPORATION                     1601
A0101402510341323210001ALBERTO V. ALAMAN JR.                                    0501
B0101402060351033699001EXQUISITE INTERIOR SUPPLY CORPORATION                    1606
A0101402060351160004002*********                                                0503
A0101402060351211648001REMIGIO D. MERCADO &/OR                                 10502
A0101402060351211648001JOSEFINA M. MERC                                        20500
B0201400760000002309673GO, MICHELLE KIMBERLY CHANLIM                            1601
A0201400760000002047063BARCE, HITLER MAGLANGIT                                  0502
B0201400760374041914001OUROKU CORPORATION                                       1605
B0201400760374042003001*****                                                    1601
A0201400890000007546872**************                                           0502
B0201400890000000027916STRONGHOLD GLASS AND ALUMINUM CORP.                      1601
A0201400890000000027961TAN, JAMES CHUA                                          0501
A0101408370382416147001JOSE PACIANO BALTAZAR REYES OR                          10503
A0101408370382416147001BERNADETTE HEIZEL REYES                                 20500
A0101408370382545939002DRS. JEANNE MARIE R. MARQUEZ OR                         10502
A0101408370382545939002ARTHUR JOSEPH M. MARQUEZ                                20500
A0101411660000005323951DOMINGO, ILUMINADA VIVIEN RUIZ                           0502
A0101402770000001841130A.B. MANALANG ENGINEERING SVCS                          10502
A0101402770000001841130AND INDUSTRIAL SUPPLY                                   20500
A0101408400394525007001CRUZ, SIMONI LIEBCHEN CADELINA                           0501
A0101408400394630733001DOMINGO, NORMITA BITANGCOL                               0501
A0101409180000006002993LAWRENCE ROSS JIM YAP                                    0501
A0101409180000002036613THREE B AND C KONSTRUCT                                  0501
A5501400120410611619001PERNIA, NELLY M. OR                                     10505
A5501400120410611619001PERNIA, JOSE REY                                        20500
A5501400120000005492300SABLON, FRANCIS NEIL DUREZA                              0505
B0301400400413821200608**********                                               2003
A1201400150421252665001VICTOR / MERCEDITA NAVARRO                               0510
A1201400150421252878001ABELLA, RAFAEL MANZANILLO                                0504
A0101406330472027958001A. ANOLIN ENTERPRISES                                    0503
A0101406330000000162616LAND OF THE PROMISE TRUCKING                            10505
A0101406330000000162616SERVICES                                                20500
A0101406330472311319001ALEJANDRO V. VICTORINO JR.                               0502
A0101406330000004349593LILIBETH B. VITO                                         0501
A0501400170481062489001CHUA, JOHN VINCENT ONG DBU JOHN                          0501
A0501400170481252588001ESTRELLITO MAGLIBA OR                                   10502
A0501400170481252588001ERLINDA MAGLIBA                                         20500
B3801400170000000018722ANTONIO OR ZENAIDA OR WESLEY CATIBOG OR                 11605
B3801400170000000018722HAZELYN ACEDERA                                         21600
B3801400170490058867001KATIPUNAN FOODS SERVICES, INC.                           1610
B1901400160491012578001NEMARIANS CREDIT CORPORATION                             1604
A1401400110492635504001TOLOSA, RUBY ROSE ARINO                                  0501
A1601400170000001360634ALDON, CONSUELO DAYTO                                    0501
A1601400170000001360805MIQUE, JOEL ORINA                                        0501
A1601400170000007782423FURAQUE, CHONEMY MIRABETE                                0501
A0701400260000003259374**********                                               0501
A0101407430503427391001JOEL F. GRESOLA                                          0502
A0101405940512457925001LEDALYN S. CATULAY                                       0501
B0101406880513046802001ELECTROCOM MANAGEMENT & MANPOWER                        11604
B0101406880513046802001SERVICES, INC.                                          21600
A0101408110515366914001JOSE PAULO P. LORENZO OR                                10503
A0101408110515366914001MA. PILAR P. LORENZO                                    20500
A0101403450000001638075ACUNA, TERESITA CABRERA                                  0504
B0101403450521021842005WALL VISION CORPORATION                                  1605
A0101403450521238091001**********                                               0503
A2201400250000002337828KIM, NORMALYN OMPOY                                      0501
A2201400250000006736230KIS ENTERPRISES                                          0504
A0101404130000002121113VERIDIANO, AIMEE DUMARAOS                                0502
A0101407720000002693172DAVID, SAMUEL SOLIVEN                                    0502
A0101407720602396744002ANG, JENNIFER CU                                         0501
A0101404260611461489001OBNIAL, ARLENE OPERIO                                    0501
A0101409920000001951891MEMBERS OF NATASHA (SHOECAT INC                         10501
A0101409920000001951891BARTE, CECILE                                           20500
A0101413570000001069443**************                                           0501
A0101406590662289338001KIM C. DINO                                              0503
A0101406590662297269001MARTINEZ, ARMAN M. OR MARTINEZ,                         10501
A0101406590662297269001MARIA THERESE G.                                        20500
A1301400210682478374027MARY ANN M. DE LEON                                      0501
A1301400500684594780002CASTRO, RAYMUNDO OR                                     10502
A1301400500684594780002CASTRO, ROSEMARIE                                       20500
B1301400500684821100608**********                                               2003
A2801400100712255396001VITT O GUTIERREZ OR                                     10502
A2801400100712255396001MARY ANN GUTIERREZ                                      20500
A2801400230713414628001ENDAYA, MARITES PRONTO                                   0501
A4101400260000000469329FALCUTILA, MARISSA RAMOS                                 0503
A4101400550000000506881ARABEJO, ERLINDA GALBAN                                  0501
A0101412340000003342123RHEANN J. CRUZ                                           0501
A0101412340000003719620JENNY LYN S. TANGCO                                      0501
B0101405070861008182001MANILA CIGARS INCORPORATED                               1604
B0101416160011401050074**********                                               2002
