A3001400130000000931208BENDIJO, AMELITO MONDEJA OR                             10501
A3001400130000000931208BENDIJO, ERLEN A                                        20500
A0101407430000017277120MUTYA, ELVIE RAMIRO DBU DOUBLE                           0502
A0101407430503036416001JUPITER'S BUTCHER SHOP                                   0510
A0101406620273381533001SY, NELLIE CO                                            0501
A0101407270000006939082DELA PENA, AIDA ROSAURO                                  0502
A0101407270000016485280BENITEZ, JULIE ANNE REGINIO                              0502
A0101407270162331908052SANTIAGO, MA. DEL CARMEN                                 0501
A0101407270162458099001CHANDA F. ESPIRITU                                       0501
A3001400130000001271312SHAPE & WELL NUTRITIONAL                                10501
A3001400130000001271312PRODUCTS                                                20500
A0101400860000017345201***********                                              0501
A0101400860011393568001***********                                              0502
A0101401250000012949896ALCOS, MARICON INGUILLO                                  0501
A0101401250001120001147SEBALLA, CHERRY ANN TRIBACO                              0502
B0101400150061009719001WOODSON PROPERTY HOLDINGS                                1601
A0101400150000009217829VALLESPIN, CHERRYMAE RICHELLE F                          0502
B0101400150061584014001PNEUMATIC AND MECHANICAL SERVICES INC.                   1602
A0601400100081358072002NOEL C. DAVID                                            0505
B0601400520000004423374XEVERA WATER SERVICES COMPANY INC                        1601
A0101410850000017334059MARINAS, MARITA M DBU RF3                               10501
A0101410850000017334059CONSTRUCTION AND SUPPLY                                 20500
A0101410850000008263985DIZON, JOLLY DBU STARLIGLHT                             10505
A0101410850000008263985TRUCKING                                                20500
B0101410560110045564001S.M. LAZO MEDICAL CLINIC, INC.                           1610
A0101401960000010787483ISLA, DEVINE GRACE LLAGAS                                0502
A0101401960121239340001***********                                              0504
A0101401960000006004422***************                                          0501
A0101413310000001073847BAGUBE, BILL ANTHONY BAYLOSIS                            0501
B0101401830000017241286AGUSTIN, JORDAN CALARA                                   1601
B0101401830141039167012CARITAS SALVE CREDIT COOPERATIVE                         1602
A0101401830141546547001REATAZA, NELIA MORABE                                    0503
A5001400170000005705197MAGBAGO, JUCEASAR MACALONG                               0502
A5001400170000014111905GO, ALLAN MENDOLA                                        0502
A0101400440000017343614FELISILDA, JENNIE BONAGUA                                0501
A0101400440000017343829BALINGIT, MARY GRACE MOSQUERA                            0501
A0101400440000017343943GONDA, EDWIN DIMAYUGA                                    0501
A0101400440000017344042LAURICIO, EDMUNDO DOMINGO                                0501
A0101400440000017344140MERCADO, LOLITA QUILATAN                                 0501
A0101400440000002035041MARIA GEVELA CARDINOZA                                   0501
A0101400440161459294001MARY ANN T. REGINALDO                                    0502
A0101401090000015531901BARRION, RAYMOND ARGUELLES                               0501
A0101401090171280036001NARCIDA, MARIFE VILLAMAYOR                               0502
A0101401380000012373023HUANG, PENGXIANG                                         0502
A0101401380000016569616TSANG, MING LUN WILLY                                    0501
A3101400160221478374053CHRISTOPHER D LISING                                     0501
B3101400160221572901001ATTGIG INTERNATIONAL INC.                                1601
A3101400870000017303452GARCIA, ABIGAIL SAMONTE                                  0501
A3001400130000008916281KEWLEY, JOAN ASCAREZ                                     0502
A3001400130000006145228DEDICATORIA, ROMEO DBU LCM MARK                         10525
A3001400130000006145228ETING                                                   20500
A3001400130000008264784SANCHEZ, AGNES M.                                        0502
A3001400130000008915971JUBAC, CHARLES TATAD                                     0502
A3001400130000001261103FERRER,ODELIO Y. OR FERRER, IVY                         10501
A3001400130000001261103M. OR VALEROSO,                                         20500
A1001400480000012612190JABAR, JOJO BORJA                                        0502
A1301400470000005737835CHAROL GAY G. FERNANDEZ                                  0501
A1301400470000013690030JOAHNA MARIE T. SIMON                                    0501
A1901400290261244447002LETICIA BAYLON HIPOLITO OR                              10510
A1901400290261244447002ERNESTO B HIPOLITO JR                                   20500
A1901400290000005565864VIOLETA CUENCA VILELA                                    0503
B0101406460000000182483WEE COMMUNITY DEVELOPERS, INC.                           1605
A0101406620000009018651TABUAC, NANETTE NILO                                     0501
A0101412470000000026822O, HERBERT LAO DBU EASYBUYS CAR                         10504
A0101412470000000026822TRADING                                                 20500
A0101412470000005380332SALIGUMBA, JULIE MAE RAS                                 0502
B0101400570281018010001EARLY STEPS SCHOOL CORPORATION                           1602
A0101400570281186842001DR. BENITO H. RAMOS JR.                                  0503
A0101400570281192945001MINDA D. BUENVIAJE                                       0501
A2601400270000002677569DEXTER C. DUMRIQUE                                       0506
A2601400270000016854047BAUA, RESTITUTO PALTENG                                  0501
A2601400270000014231248KEVIN R. PUA DBU AK PALAY BUYIN                         10501
A2601400270000014231248G STATION OR ANGEL R. PUA                               20500
A0801400160311267069001MA. JIZA BARREDO OR MANUEL                              10502
A0801400160311267069001JOSEPH BARREDO                                          20500
A6601400120000003673001AFUNDAR, ROGER NOYNAY DBU RNA                           10502
A6601400120000003673001CONSTRUCTION AND                                        20500
A6601400120000005710338CUAYZON, KRISTOFFER KINNO NUEVO                          0503
A3401400280000004959082OQUENDO, JEAN PORRAS                                     0502
A0101402510000011325232TORRES, MARLENE CASAYURAN                                0502
A0101402510000011695011TAN, YEANA VICTORIA SALDANA                              0502
A0101402510000013485582RAGOS, KATHLEEN CHARMAINE                               10501
A0101402510000013485582SAN JUAN                                                20500
A0201400760000002309742JAMILARIN, ADRIAN CARLO UY                               0501
B0201400760000017330962108 SOCIAL INNOVATIONS & CONCEPTS INC.                   1601
A0201400760000002309571RABUTIN, BB GIRL MELINDA TORRES                          0501
A0201400920000002250146YEO, JOAN DANIEL                                         0505
A0201400920000015820905PARK, KI YOONG                                           0501
A0201400920000015820905*************                                            0501
B0201400890376045790003****************                                         1606
A0101402930381478374004ANALIN ARTIOLA                                           0501
A0101408370382208100001DR. ARTHUR M. TORRES                                     0502
A0101411660000000109311**********                                               0502
A0101411660000005324254OKUTSU, SHINGO                                           0501
A0101402770391217498027MARCELO C. CENIR                                         0501
A0101408400000007905971DELOS REYES, RYAN JAMES RIMORIN                          0501
A0101408400394089542001CRYSTAL FRIAS LAUNDRY SERVICES                           0502
A0101408400394522122001MENDOZA, ROSELYN DONADO                                  0501
B0101409180000009085150RYC GO DINING INC.                                       1605
A2401400180000002146203ESPANOL JR., BENJAMIN LADESMA                            0502
A2401400180000000555015ONG, AIRA MAE JAVIER DBU SMARTA                         10502
A2401400180000000555015IRE AIRCON SPECI                                        20500
B2401400180411056764001RD PAWNSHOP, INC. - GENSAN REGION                        1603
A2401400180000016516791ESTILLORE JR., JUANITO RECLA                             0502
A2401400180411594040001LOGMAO, NORE LEE SANIDAD                                 0501
A0101403030000000531451**********                                               0501
A0101412890000012474009CARMELITO P. VALENCIA                                   10501
A0101412890000012474009MA. SHARIE I. VALENCIA                                  20500
B0101412890000001765426RCCCW CORPORATION                                        1602
A0101403320000000067532YAGUEL, SALVE L.                                         0501
B0101406330472045827001PRIMARK TOOLING INDUSTRIES CORPORATION                   1605
A0101410140000001074931LEYSON, JEFFERSON D. OR LEYSON,                         10501
A0101410140000001074931MARRY SHYNE C.                                          20500
B0101412760000002068026**********                                               1601
A1901400320000002296006INHUMANG, EVARISTA BUTIC                                 0506
B3801400170000000018788MINDORO PPA EMPLOYEES MULTI-PURPOSE                     11605
B3801400170000000018788COOPERATIVE                                             21600
A1901400160000017333990FREDERICK L. IGLESIA OR                                 10501
A1901400160000017333990MARIAN B. IGLESIA                                       20500
A1901400160000017333825MARIAN B. IGLESIA OR                                    10501
A1901400160000017333825FREDERICK L. IGLESIA                                    20500
A1901400160491244619001ALEJANDRO F UY OR                                       10502
A1901400160491244619001APOLONIA AGNES B UY                                     20500
A0701400260000016322160VILLANUEVA, CAROL DELL REY                               0501
A0101407430000014298781DIOSO, ROSALIE SANGIL                                    0502
A0101407430503185438006LETICIA D. JIMENEZ                                       0510
A0101407430503445064001MA TERESA C. MOHAMMAD OR                                10501
A0101407430503445064001ALVIN F. COLLANT                                        20500
B0101405940512005329001TRIANON INTERNATIONAL, INC.                              1610
A0101408530000017341327SAULOG III, EDWIN LIONZON                                0501
A0101408530000005493245Canete, Gregor Panganiban                                0501
A0101411400000003750598DR. TWINKY D. BELINO                                     0502
B0101411400000001280579RDC INTERNATIONAL LTD. PHILIPPINES                      11601
B0101411400000001280579BRANCH                                                  21600
B0101403450521011657001UP-TOWN INDUSTRIAL SALES, INC.                           1610
A0101403450521238268001**********                                               0502
A0101403610000017347703MARASIGAN, DANILO AMADO                                  0501
B0101403610000015239273MMG CORPORATION                                          1603
B0101403610000015572640MMG LOGISTICS CORP.                                      1603
A2201400250000015111398ARVIN R. FERNANDO                                        0501
A2201400250561558363001JOSEPH B. SAWIT OR                                      10501
A2201400250561558363001JOSEFINA B. SAWIT                                       20500
A0101410690000014753085MORANO, ARIS NANOZ                                       0502
B0101404130000000696168PHILIPPINE DAILY INQUIRER, INC.                          1601
A0101404130601278977001************                                             0501
A0101412180000016031159REYES, MARIA CARMEN GARCIA                               0502
A0101404260000013860250SIOCHI, JOVET MAGALONG OR                               10501
A0101404260000013860250GANGCUANGCO, ROMAR ARSULA                               20500
A0101413570000015962511CARBILLEDO, KIM JOSEPH UY                                0501
A0101413570656057648251ROD MARK VILLADOS                                        0501
A0101406590000000568758BAUCA, MYRA MEDRANO                                      0501
A0101406590000011637364CRISOSTOMO, MARTIN ANTONIO OR                           10502
A0101406590000011637364CRISOSTOMO, MA. ANNA VICT                               20500
B0101406590662560649001FOURSPOONS VENTURES CORPORATION                          1601
A1301400340000000926870CUERDO, AYA                                              0503
A1301400340683478374039ABAOAG, CELIA SALVADOR                                   0501
A1301400500000000213390********                                                 0501
A1301400500000012953921GUINTO, RAYMOND DELA CRUZ                                0502
A1701400230000002762832ANG, MARY ANN LIU OR ANG, VICTO                         10505
A1701400230000002762832R FORMOSO                                               20500
A0101408240000017168004GUCE, ARMELA VILLANUEVA                                  0501
A0101408240000017308624TRINIDAD, PAUL ROGER  CANOY                              0501
A0101408240000017168082GAERLAN-REVECHO, NINA PATRICIA                           0501
B0101408240000000832611BU-DA SNAX CORP.                                         1602
A0101408240711449303001MORALES, PEARL MERCEDES ARCACHE                          0501
A0101408240000015207451ALCANTARA, JOSE MIGUEL SILVA                             0501
A2801400100000014169714SONZA, MILAGROS SOLONGA DBU MIL                          0503
A2801400230000015422767MABEZA, RUSSELL MARSHALL SOLIS                           0501
A4101400260000012859515DAVID, RONALD M                                          0501
A4101400260000012870321ZAMBRA, ALDRICH LOUIE A                                  0501
B4101400260812024102001CITAFEL TRADING & SERVICES                               1601
A4101400390000002293609PANGAN, RICHARD BAUTISTA                                 0501
A4101400420000014280190ELIZABETH DELA CRUZ APURILLO                             0501
A4101400420814553183001LEONARDO, NANCY BATINGA                                  0501
A0101412340000009501337FERRER, ANNIE LAO                                        0503
A0101404840000006365073DIVINA, SHARLENE JOY TORRALBA                            0501
A0101404840000013382297REGIDOR, JUDELYN TIRO                                    0502
A0101404840851046725021HELEN GELIZON                                            0502
A0101404840851298552055SIXTA MELBA C. ENGBINO                                   0501
A0101406750852377819001LLANES, KRISTINE DIANE PABLEO                            0502
A0101405070000011795734RIEJHEL JIMENEZ TUBO                                     0501
A0101405070861368305001MASUMI MORIYAMA TANABE                                   0501
A0601400230000010702842TIGLAO JR., EDGARDO DELA CRUZ                            0501
B0601400230891013018002SAN FERNANDO ELECTRIC LIGHT & POWER                     11601
B0601400230891013018002COMPANY, INC.                                           21600
A0601400230000001062399RODA, ZENAIDA GARCIA OR                                 10503
A0601400230000001062399MANIO, CRISTINA                                         20500
