A0101403610000000015909SAN PEDRO, VINCENT LACSON                                0501
A0101410690000000061845DAYAO JR., FELICIANO IAN BIOLEN                          0502
A0101405650000000080117*******                                                  0501
A4101400550000000081650SHI, JIN SHAN                                            0502
A0101406040000000096811********                                                 0501
A0101408530000000136343DONNA REGIE S. ESTEBAN                                   0502
A0101411370000000350467**********                                               0501
A0101405650000000448362WALTENSPIEL, JASON CORTEZ                                0504
A0101408530000000489492GUINTO, MARIA CARINA ARGUELLES                           0501
A0101405650000000525717TAMBUNTING, JOY MYRA SALVADOR                            0510
A0101406590000000568758BAUCA, MYRA MEDRANO                                      0501
A0101413990000000726512CASTRO, GIZA ATENDIDO                                    0501
A0101405650000000772914PAMINTUAN, MARIFER CABIGAS                               0502
A0101412630000000801381ROMARAOG, ALENE GARING                                   0501
A0101407270000000818291MIRANDA, VIRGIE CABRAL                                   0501
A0101413020000000880484***************                                          0501
A0101401250000000907131PERICO, AURORA ATIENZA                                   0501
A0101403610000001174943MIR & RYVI HOME OF ORGANICS COM                          0502
A0101411820000001356441BUENO, MAIDA DONCIRAS                                    0501
A1901400290000001362954WILLIE AMBAL MERCADO                                     0501
A0101404260000001725479VILLAMOR, EDMUND RAMOS                                   0502
A4101400390000001732883PRUDENTE, ALDWIN TORRES                                  0501
A0701400260000001804542***********                                              0503
A0101401960000001844442**********                                               0501
A0101408400000001981611LEANO, FIDES BEATRICE DE LEON                            0501
A0101410140000002307717SAMSON, IRENE LAGBAS                                     0501
A0101408240000003310976LEANDRO JULIAN                                           0501
A0101408240000003310987DARWIN TANEDO                                            0501
A0101408240000003310998MARCO ERIC MANIMTIM                                      0501
A0101408240000003311013RYAN BRAZAL                                              0501
A0101408240000003311020JOHNDEE YU                                               0501
A0101408240000003311031SALVADOR EUGENIO JR.                                     0501
A0101408240000003311042REY GUADALQUIVER                                         0501
A0101408240000003311053JOSEPHINE ALMALVEZ                                       0501
A0101408240000003311064JOEL SANGUENZA                                           0501
A0101408240000003311075OLIVER SELIBIO                                           0501
A0101408240000003311086NEMAR BATHAN                                             0501
A0101408240000003311097JERRY SUELLO                                             0501
A0101408240000003311100ANDREW AMBAL                                             0501
A0101408240000003311111LINDY LOU GABUYO                                         0501
A0101408240000003311224KRISTEL VILLAMAYOR                                       0501
A0101408240000003311235ERIC ROY LERIO                                           0501
A0101408240000003311246SUZETTE FAJO                                             0501
A0101408240000003311257CHERYLLE GALAPON                                         0501
A0101408240000003311268JOHN LAWRENCE LINDOG                                     0501
A0101408240000003311279ROMEO ONGPOY JR.                                         0501
A0101408240000003311280BRYAN MONTALBAN                                          0501
A0101408240000003311291LOUIE PAOLO CARPIO                                       0501
A0101400860011396464001**********                                               0503
A0101400860011397246002**********                                               0503
A0101400860011523512001**********                                               0501
A0101401250021180359001PASCUA, SYLVIA C.                                        0501
A0101401700041024130001AARON SAMUEL INC.                                        0505
A0101400150061230211001JESUSA T. AGABIN                                         0501
A0101405810072291768001**********                                               0501
A0101405810072390933001**********                                               0502
A0101405810072444240001*************                                            0502
A0601400100081256597001GIL D. MADLAMBAYAN                                       0502
A0101400440161525001026LERA B. CUISON                                           0501
A0101407270162351252001WILFREDO C. CUEVAS                                       0502
A0101407270162381769001REYNANTE E. CANTONG                                      0505
A0101401090171197481002MA. NOEMI OR ELIEZER SALAZAR                             0502
A0101401090171500760001ERIC B. ZERUDO                                           0501
A0101401090171500760002ERIC B. ZERRUDO                                          0501
A0101400310211164269001TEODORO &/0R TRINIDAD RAMOS                              0501
A0101400310211165218001MELANIA JOCOY                                            0503
A0101400310211387538001MARISSA L. TORRALBA                                      0501
A0101400310211483132001MENGOTE, RUBY MIRANDA                                    0501
A0101400310211720376002PATAYON, THELMA SIMO                                     0502
A1001400350233478374033CARAOS, PATROSENIA T.                                    0501
A1901400290261244475001EFRENILA VINAS FAJARDO                                   0502
A1901400290261244564002ANITA LUMBERA SAUZ                                       0504
A1901400290261493025051DR. ERWIN PEREA MARALIT                                  0501
A1901400290261530754004DESSIRE MALALUAN ONG                                     0501
A1101400120313547700001NICOLASORA, ALMARIE EULOGIA P.                           0506
A6601400120314737040001DURA, CARLITO OR DURA, RENY                              0504
A0101408820333700783001**********                                               0502
A0201400920375733530001LIM, WILKY TAN                                           0501
A0201400890376661159001SHS-B BATCH 1985 FOUNDATION INC                          0502
A0101402770391027121001ABBI PRINTHAUZ                                           0502
A0101402770391355762049WILLIAM DENIEGA                                          0501
A0101405490392033011001VICELA MOTOR WORKS                                       0503
A0101405490392444214001MELANIO B. PANO, JR.                                     0502
A0101412210399094817007PADILLO, IRYAN UNGSON                                    0501
A2401400180411455559001VENDIX GEN. MERCHANDISE                                  0501
A0101403030441300096001**********                                               0501
A1901400160491343774001MA REGINA THERESA A BLANDO                               0501
A0101408530516571877097JESUS R. LICUANAN                                        0501
A0101403610531478374004BADA, GLORIFINA GAN                                      0501
A0101403610531682827001LU, ZISHAO                                               0505
A2201400250561019818001KIS ENTERPRISES                                          0504
A0101407720602381785001GUZMAN JR., PATRICIO BALA                                0502
A0101407720602390297001PREYSLER, MARIVIC G.                                     0501
A0101404420631579303001VICENCIO, MELENCIO FRANCISCO                             0501
A0101408240711478374015EMILY MONTILLANO                                         0501
A4101400260812362318005MAXIMO P. SARTE                                          0502
A4101400260812403511001BOSITA, CHRISTIAN DUA                                    0501
A4101400260812576194001NOEL N. RAZON                                            0502
A4101400390813478374020BLANCA, MARRISA                                          0502
A0101404840851481664031RAPIRAP, CHERRYL                                         0501
A0601400230891597238001VIRAY, LOLITA BUNGAY                                     0501
A4101400420000000710143GERONDA, RIZALDY DBU HRDG                               10502
A1301400210000002285167VILLAMOR P CRUZ OR                                      10502
A1901400290000002337704EVARISTO TAN DY OR EVANGELINA                           10503
A0101401250021183977001RCAM - SANTA CLARA DE                                   10510
A0601400100081251801001PANLILIO, AUGUSTO G. OR                                 10502
A0101401830141530136001RACELLE MARY B. ABANES OR                               10501
A0101401090171195610001WILFREDO/CYNTHIA/MARIFEL MITZI/                         10502
A1901400290261042311010DR. JONATHAN RYAN                                       10501
A1901400290261244345001FERNANDO C GO OR LUCY S GO                              10502
A0101405650322321476001DE GUZMAN, MYRNA SARMIENTO OR                           10501
A0101408370382593318001DRS. MICHAEL JOSEPH B. REYES OR                         10501
A0101405940512543803001ROXAS, HELEN CHAN OR                                    10510
A0101406880513375156001LIBUNAO, RHONEIL ISON OR                                10502
A0101403610531220255002MARY JOY A. DADIVAS OR                                  10501
A0101407720602355070002SHERYLL MAGALIT-CORNEJO OR                              10502
A0101407720602398589001IMELDA CABRAL-VILLAR OR                                 10501
A0101408240711469368001CAGANDA, ANTERO JOSE MADARA                             10501
A4101400420000000710143TIRE RECAPPING SERVICES                                 20500
A1301400210000002285167ANGELA DC CRUZ                                          20500
A1901400290000002337704MACALINAO DY                                            20500
A0101401250021183977001MONTEFALCO PARISH                                       20500
A0601400100081251801001PANLILIO, MARIE                                         20500
A0101401830141530136001LUIS FRANCISCO V. LEBRON                                20500
A0101401090171195610001CYNTHIA MARIE FERNANDEZ                                 20500
A1901400290261042311010TIBAYAN SERRANO                                         20500
A1901400290261244345001OR ALDWIN S GO                                          20500
A0101405650322321476001DE GUZMAN, GAZEL                                        20500
A0101408370382593318001SEIZAN MARIE E. REYES                                   20500
A0101405940512543803001ROXAS, LINCOLN CHAN                                     20500
A0101406880513375156001LIBUNAO, DIANA C                                        20500
A0101403610531220255002HUGO A. DADIVAS                                         20500
A0101407720602355070002CARLO CORNEJO                                           20500
A0101407720602398589001ROLANDO VILLAR                                          20500
A0101408240711469368001OR JEANZIE LEE                                          20500
B0101404260000000003761TRESTON INTERNATIONAL COLLEGE, INC.                      1610
B0201400920000000007832JTL CABINET CONCEPTS                                     1601
B1301400210000000023496JELLI'S GAS STATION                                      1602
B0201400760000000033303SAM SOWAH SHIPPING CORPORATION                           1601
B0201400760000000033310SAM SOWAH SHIPPING CORPORATION                           1602
B0101407430000000044926JOSEPH BINGE B. MACASERO                                 1602
B2801400230000000372707BALOOGA GRILLERIA CORP.                                  1601
B0601400360000000978936THE MEDICAL CITY CLARK, INC.                             1603
B0101411400000001280524GCURRIE INC. DOING BUSINESS UNDER T                      1603
B0101400150000001708492NARRA HOSPITALITY, INC.                                  1602
B0101405940000001800311KEGITAR HOME, INC.                                       1603
B0101411080042041218001******                                                   1601
B0101400730111037800001AMALGAMATED PUBLICATIONS, INC.                           1602
B0101400310211005834006PAN PHOENIX MFG. INDUSTRIES, INC.                        1601
B0101400310211037423001VEND VENTURES, INC.                                      1605
B0101400310211046817002LINKS & VISIONS, INC.                                    1601
B0101405650322023605001FELIZ, INC.                                              1603
B0101405650322044157001BRUMBO SECURITY AGENCY, INC.                             1603
B0201400760374046036001SAM SOWAH SHIPPING CORPORATION                           1602
B0201400760374046036002SAM SOWAH SHIPPING CORPORATION                           1602
B0201400760374046036003SAM SOWAH SHIPPING CORPORATION                           1602
B0201400760374046036004SAM SOWAH SHIPPING CORPORATION                           1602
B0101402770391025883001DA LEONARDO INDUSTRIAL INC.                              1601
B0101409210398632476001C3 INTERACTIVE MANILA, INC.                              1604
B0101403030441303324001**********                                               1602
B0101403580511020337002SIX N ENTERPRISES CORPORATION                            1601
B0101405940512020791002ACRYDENTAL LABORATORIES, INC.                            1601
B0101408110515017881001GROUP MANAGEMENT CORPORATION                             1603
B0101408530516033397001SPRINGER INTERNATIONAL, INC.                             1605
B0101407720602035999001GALLANTRY SECURITY & INVESTIGATION                       1605
B01014077206024892100011stMARK GLOBAL MEDICAL SERVICES, INC                     1601
B0101404420631030262001LICA GAS CENTER                                          1602
B0101406590662639224001CURRENTCONCEPTS INC.                                     1602
B0101401830000000033592CARITAS SALVE CREDIT COOPERATIVE                        11603
B4101400390000000034051CHEUNG, WILLYS W AND SEE, JASON                         11601
B0101412500000000739737MIKEWELL WORLD OF HOUSEHOLD PRODUCTS                    11605
B2001400290315071661001R.UYPITCHING, IRWIN, KATRINA, ADAM, KEN                 11601
B0101409050352212676001LIAMZON, MA. ANTONIA/FRANCISCO/FRANCIS                  11601
B0101401830000000033592(TAYUMAN)                                               21600
B4101400390000000034051AND LI, ROBERT                                          21600
B0101412500000000739737CORPORATION                                             21600
B2001400290315071661001& LU,CIPRIANO II                                        21600
B0101409050352212676001KEVIN/CATHERINE                                         21600
B0101400860011821100608**********                                               2002
B0101414120658821100608**********                                               2002
