A0101403580000000016082SWEET BELLA DESSERTS                                     0505
A0101409920000000022066DAVIS, JONALYN ARGUILLES                                 0501
A1401400110000000034773RAMOSO, RANCHETTE OBNAMIA                                0501
A1401400110000000132896MORALES, RAIN DBU DIRL AND JANE                          0501
A0101402640000000201969HELEN MILLEZA                                            0501
A0201400760000000222922PELUCHI ESSENTIALS SPA                                   0501
A4101400550000000315182MARGAJA, FELICITA BITOR                                  0501
A0101408660000000372963PACIS, OSCAR AGCAOILI                                    0501
A0101414090000000648500CHOA, CLYTIE GAY CO TONG                                 0501
A0101414120000000648971CORPUZ, KRISTOFFER GAYNOR NEVAD                          0501
A0101404840000000683483HERNANDEZ, HERMELINA BURGOS                              0502
A0101408950000000776661SEGOVIA, DYSM ZAMORA                                     0501
A0101414120000000875481AMPILAM ENTERPRISES                                      0502
A0101414120000000875510DELA CRUZ, DARWIN SALTA                                  0506
A0101414120000000875572REDESIL CONSTRUCTION                                     0502
A0101410720000000882793FALCON, EJAY LASAP                                       0501
A0101401700000000890499**********                                               0501
A1001400350000000922058ARENO, ANN JANE BUCO                                     0501
A0101403580000000922758CALIRAYA BUILDERS                                        0502
A0201400920000000991711MAGDUA, MAY ANN DARUNDAY                                 0501
A0101412340000001017861DERECHO, VIRGINIA ALCONERA                               0501
A6601400120000001065309SOSA, NESTOR OR TERESITA                                 0501
A0501400170000001072651ANG, JUSSLYNN MAISIE ONG                                 0501
A6601400120000001105833CARDENAS, NICANOR OR IRMA                                0501
A2801400100000001494511A. TEJ. TRADE & MARKETING DBU M                          0501
A1101400120000001547235DUGANG, JESSA EBIT                                       0501
A0101407270000001596945******                                                   0501
A0101401090000001618720KARL T. MORALES                                          0501
A0101414120000001642531ROADEL, SUGAR BUSTOS                                     0501
A0101414120000001642611NEBREJA, GLORIA ANTONIO                                  0501
A0101404260000001725377MONTELIBANO, MARVIN ROSALES                              0501
A0101414120000001751424DAYRIT, JONATHAN SARENAS                                 0502
A2401400180000001935942ISMAEL, KHALID ABDULLAH                                  0510
A0101401250000002131759PAZ VALERIO CORPUZ                                       0503
A0101405490000002140983******                                                   0502
A0101411080042289624001******                                                   0502
A0101400150061331787095MAYBEL G. DANTES                                         0501
A0101400150061512334001*************                                            0501
A0101400150061552908001CHING, JOSELITO CENTENO                                  0501
A0101400730111035979001EMPRESS PRINTING                                         0503
A0101401830141546547001REATAZA, NELIA MORABE                                    0503
A0101400440161036282001GHERKIN INDUSTRIAL MARKETING                             0505
A0101400440161520766031EDITHA FELARCA                                           0501
A0101400440161565865001MARIA KATHRINA G. SALVADOR                               0501
A0101400440161760130001CANDELARIO, MYRNA SATURNINO                              0501
A0101407270162203614002ROBERTO LEYBA                                            0501
A0101407270162493078001GINNY M. OCAMPO                                          0502
A1001400190231039064001SUSAN LO OR DENNIS LO                                    0506
A0101406620273508834001PAGATPATAN, DANIELLE GONZAGA                             0502
A0101411240283781478001DINOPOL JR., CRISTETO ESTRELLA                           0502
A1101400120313478374096MAGLALANG, MARISA YADAWON                                0501
A6601400120314612855001SUNDAY LAVIN JR OR IRIANA LAVIN                          0505
A0101408820333639402001********                                                 0502
A0101402510341331467001DR. NIEVES C. BELTRAN                                    0501
A0101402640361039299001JANRELK TRADING                                          0501
A0101402640361478374061CRISTINA T. JOROLAN                                      0501
A0101408370382391971001DR. MANUEL FRANCISCO T. ROXAS                            0504
A0101409210398786227001CAPICOY, ANNA CHRISTINA PASTOR                           0505
A2401400180411458238001ANIMAS, JULIUS PETER CABATO                              0502
A2401400180411478374059ANALITA R. SUICO                                         0501
A2401400180411487779008LIM, CARLITO TAN                                         0502
A0901400220432300404001REYSON, JOCELYN ORTIZ                                    0502
A0501400170481547931001TAN, KENNETH CU                                          0501
A0101407430503434847002JOCELYN L. CUSTORIO                                      0501
A0101403580511150648001MANUEL A. POBLADOR                                       0502
A0101403580511150737004LUIS JUAN L. VIRATA                                      0510
A0101403580511153476004THERESITA S. TIU                                         0510
A0101403580511339686001PRAKASH GHANSHYAMDAS CHANDNANI                           0508
A0101403580511420184002MARIA CAROLINA S. MACASAET                               0510
A0101403450521238106001**********                                               0505
A0101404000551039954002FRAIGN REALTY CORPORATION                                0510
A0101404000551166600005EVELYN SORONGON                                          0501
A0101407720602163476001PAGDANGANAN, ERNEST APACIBLE                             0501
A0101404260611478374077LUCIA CAPILITAN                                          0501
A0101404260611478374098CECILIA ORIAS                                            0501
A0101404260611778918001GARCIA, NATHANIEL CRUDA                                  0502
A0101407690652034151001D' ABET JUNK SHOP                                        0502
A0101407690652599539002GIGANTOCA, IMELDA ANINAO                                 0502
A0101407690652790127001PENAREJO JR., BONIFACIO PABATAO                          0502
A0101410720653006349001YZA COPY SYSTEM AND TRADING                              0505
A0101410720653089510001GONZALES, GENEVIEVE FRIAS                                0504
A0101410720653470975001BELTRAN, ROBERT LUI                                      0502
A0101407560686506885001**************                                           0504
A0101408240711418819006RICA S. BAGATSING                                        0503
A0101407430000000447125ESCOLAR, JESSIE FAJARDO DBU                             10501
A0101410690000000498391BUNAO, ANDRES DBU ANDYHIL'S                             10501
A0101414120000000875652PABLITO OR RONALD JOHN OR                               10503
A0101405490000001092717ROSLINA M. AMEROL DBU AMEMAR                            10503
A0101410720000001602266TAN, LEONCIO HA OR                                      10502
A0101414120000001751413SALVADOR J. LAGARE OR EMILIA                            10501
A0101412890000001765493GASATAN, MARIESAN L. OR                                 10501
A0101407690000001919786GINA C URIAN - DEALERS OF                               10501
A2401400180000001935931MC-MAX CABALLES ENGINEERING                             10501
A1001400190231520766045BALBERAN, FLORA ABOY OR                                 10502
A1001400350233576675002LEGASPI, ECILIETO AMARGA OR                             10502
A1301400470252620184001ARMANDO A. SANTIN OR                                    10501
A0101405650322170702003ADAN, ANTONIO D. OR                                     10501
A0101405490392094963001MICHAEL BERNARDO P. DEL PRADO                           10503
A2401400180411478374061JUNRES AGAD OR                                          10501
A0101403580511150751001VIOLA V. CRUZ OR                                        10505
A0101403580511495436001PAUL I. MACASAET OR MARIA                               10510
A0101407720602316120001LUCIA CASTRO-FORES OR                                   10501
A0101407720602332279002CAYCO, ANTONIO V. OR                                    10501
A0101407690652478374034EDNA D. PENALVER - DEALERS OF                           10501
A0101407690652478374179LENIE ANDO - DEALERS OF                                 10502
A0101407430000000447125OFF SET TIRE AND WHEELS                                 20500
A0101410690000000498391PRINTING                                                20500
A0101414120000000875652PRINCESS JOY OR                                         20500
A0101405490000001092717GENERAL MERCHANDISE                                     20500
A0101410720000001602266TAN, LILY HONG                                          20500
A0101414120000001751413V. LAGARE                                               20500
A0101412890000001765493GASATAN, SIMPLICIO M.                                   20500
A0101407690000001919786SHOECAT INC.                                            20500
A2401400180000001935931SERVICES                                                20500
A1001400190231520766045BALBERAN, BERNAR                                        20500
A1001400350233576675002LEGASPI, VIRGINIA                                       20500
A1301400470252620184001ADELYN L. SANTIN                                        20500
A0101405650322170702003ADAN, GRACE CASTANEDA                                   20500
A0101405490392094963001OR RAMONA V. DEL PRADO                                  20500
A2401400180411478374061NORMELITA BLANCO                                        20500
A0101403580511150751001RUFIA DOROTHY C. VERA                                   20500
A0101403580511495436001CAROLINA MACASAET                                       20500
A0101407720602316120001MIGUEL EDGARDO FORES                                    20500
A0101407720602332279002CAYCO, MARGARITA                                        20500
A0101407690652478374034SHOECAT, INC.                                           20500
A0101407690652478374179SHOECAT INC                                             20500
B2401400180000000019827CHONA U. CARIAGA FOODSHOPPE                              1603
B0601400230000000029883ORO OXYGEN CORPORATION                                   1602
B0601400230000000029941ST. THERESA DIALYSIS CENTER, INC.                        1610
B0101407140000000266302R8 CONSTRUCTION CORP.                                    1601
B0101400150000000633403ONE SUBIC POWER GENERATION CORP.                         1603
B4101400550000000900070SOLDIERS' HILLS IV, BACOOR, CAVITE                       1602
B0101401250021006948001PANGARAP FOUNDATION, INC.                                1606
B0101401700041190338003**********                                               1601
B0101400730111035695001AFRO-ASIAN TRAVEL AND TOURS, INC.                        1602
B3101400160221224862001JOYME CONSTRUCTION SUPPLIES, INC.                        1602
B0101406620273009661001MICROS-FIDELIO SOFTWARE PHILS. INC                       1603
B0101402060351009544001RI CHEMICAL CORPORATION                                  1610
B0101402060351035807001SOLEREX WATER TECHNOLOGIES, INC.                         1605
B01014026403610241660041021 DEVELOPMENT CORP.                                   1610
B0101402640361038833001KASAGANA-KA DEVELOPMENT CENTER, INC                      1605
B0101409210398042284001D FORT EXPRESS LOANS & CREDIT, INC.                      1603
B5501400120410043920001FILLAND PRIME PROPERTIES, INC.                           1605
B0101403580511005203001CORPORATE BUSINESS CENTRE CORP.                          1602
B0101403580511005406001SHINRYO (PHILIPPINES) COMPANY, INC.                      1605
B0101403580511005607002RAM FOOD PRODUCTS, INC.                                  1603
B0101403580511020857001ROBROS INCORPORATED                                      1603
B0101403580511575114002TIGER 22 MEDIA CORPORATION                               1610
B0101407690652042938001SIGNWOOD HARDWARE & LUMBER SUPPLY                        1603
B0101407690652045218001MECSEARCH HUMAN RESOURCES                                1601
B0101407690652047936001WATER DRAGON CONST. & DEVELOPMENT INC.                   1601
B0101410720653021283001RIX INTEGRATED CO., INC.                                 1602
B0101410720653021283002RIX INTEGRATED CO., INC.                                 1604
B0101410720653041869001MATSUBI TRADING                                          1602
B0101404840851021512001STI COLLEGE ALABANG, INC.                                1603
B0101408530000001275241LUMENIS MARKETING & GEN. MERCHANDISE                    11601
B0101406620273025607004DELL EQUIPMENT & CONSTRUCTION                           11602
B0101402060351018216001RGC EMPLOYEES SAVINGS & LOAN ASSOCIATION                11601
B2401400180411014376006PENBANK, INC. (A PRIVATE DEV'T BANK) -                  11605
B0101403320471008879002GOLDWIN MANUFACTURING                                   11610
B1401400110492365609001JEORGE S MALIGAT - PILIPINO HARDWARE AND                11601
B0101407690652039399005C.Q. & C. GENERAL CONSTRUCTION AND                      11602
B0101408530000001275241CORP.                                                   21600
B0101406620273025607004CORP.                                                   21600
B0101402060351018216001INC.                                                    21600
B2401400180411014376006FISHPORT BRANCH                                         21600
B0101403320471008879002LABORATORIES                                            21600
B1401400110492365609001CONST. SUPPLY                                           21600
B0101407690652039399005SUPPLIES CORP                                           21600
B0101413730104821100608**********                                               2002
B0101413730104821200608**********                                               2001
