A1901400290000000030702ANGELITO DIMAPASOC SANDOVAL                              0502
A0101408240000000039381BERMUDEZ, MARICEL YAGO                                   0501
A1301400500000000213210RBN ENGINEERING & DEVELOPMENT                            0502
A0101410850000000259938GORDON, ANNE MARIE CUNADA                                0510
A0901400220000000425147FRANCISCO, EVELYN CATILOC                                0501
A0101401250000000460542PAPALID, JOEBIE LIBRE                                    0501
A0101408790000000599891DE GUZMAN, MA GUIA SALINAS                               0501
A1001400190000001057636VIRTUDAZO, JENEFER S.                                    0501
A3001400130000001271501DUBOUZET, ZENAIDA DAGASDAG                               0501
A0101403030000001302189**********                                               0501
A2401400180000001676913***********                                              0501
A0101401960000001844624****************                                         0503
A0101410140000001939762MEMBERS OF NATASHA (SHOECAT INC                          0502
A0101408400000001981699HONRALES, ARIEL COSICO                                   0501
A5501400120000002019056ONG, DANIEL STEVEN DY                                    0503
A5501400120000002019103PENDON, VENISE NICHOLE VILLOREN                          0502
A0101413600000002122172MINERVA IMPERIAL                                         0502
A0101402770000002267212ONGKEKO, FREDERICK SAYSON                                0503
A0101412500000002304785****                                                     0501
A0101400600000002335651PAMINTUAN, DAHLINE THURS                                 0502
A0101411080000002343988******                                                   0501
A0101410850000002356794SANCHEZ, MA. BELINDA NAYUBA                              0505
A0101406750000002950781DIESTA, SIR PATRICK RAYMUND M.                           0501
A0301400950000002975035NANCY B. MORALIZON                                       0501
A0101412340000003340547MICHAEL V. ALBANO                                        0501
A0101412340000003342156RAMEL MANUEL L CUMIGAD                                   0502
A0101404000000003707219ROCHELLE R NUQUE                                         0501
A0101400860011391313002**********                                               0504
A0101400860011413316001**********                                               0503
A0101401700041241467001FIRME, NESAURO HERNANDEZ                                 0501
A0101400150061329718004ZABALETA JR., JOSE MARIA PONS                            0501
A0101400150061383637001DE GUZMAN, CATHERINE YANG                                0501
A0101400600071672958001*********                                                0501
A0101405810072300780002MAGNAYE, MA. CECILIA ADRIANO                             0503
A0101405810072535569001RAMIREZ, MARIGOLD MAGNAYE                                0502
A0601400100081395539004DELA CRUZ, TERESA SUGANOB                                0501
A0101410850109046512001*****                                                    0501
A0101406040112208404001HULIPAS, ELIZABETH VILLAFRANCA                           0502
A0101401830141378455001MANUEL E. TEODORO                                        0502
A0101400440161520766030JESSICA RAMILO                                           0502
A0101400440161520766189PRESCILA P. DOTONG                                       0501
A0101400440161549901001EMMANUEL C. FLORENDO                                     0504
A0101401090171242611001RICARDO OR EMERITA CARAIG                                0502
A1301400470252541667001PUNO, MARCELINA ESERJOSE                                 0502
A1901400290261298552105AIDA NABOS REYES                                         0501
A1901400290261390520001JOEL PUNZALAN DIMAANO                                    0502
A1901400290261488341030DRA ZENAIDA S PASION                                     0504
A1901400290261488341053DRA. HELEN PEREZ COMIA                                   0501
A0101406620273072069001LEANO, DEVI PESSUMAL                                     0502
A0501400200292670008001*****                                                    0510
A0101402350321584873001********                                                 0501
A0101402350321708802001ALMAROSE C. VILLAPANDO                                   0501
A0101402480331520766088ROSELYN M. ATANOSO                                       0501
A0101402060351217441014BALBIN, WARLITO                                          0502
A0101402060351217441024VINORNA V. LIM                                           0501
A0101402770391213549001RAMON OR MARILOU VILLARETE                               0502
A0101402770391752292006VICTORIA, JUANITA NAVAL                                  0501
A5501400120410640220001SAGA, DEAN ADALLA                                        0501
A2401400180411478374050****************                                         0501
A2401400180411666890088TIONGSON, RALIN SOLIVIO                                  0501
A0101403030441567138002**********                                               0501
A1901400160491032512001ASEPTIQUE TRADING                                        0504
A1601400170494057284001F2M TOWER                                                0501
A0101408530516571877159JOSE RUDYLIN R. GAMBOA                                   0501
A0101411790518055815122SAILE, ELIZABETH MIRO                                    0501
A0101407720602303381001CRISOSTOMO, ANGELA UMALI                                 0510
A0101404420631478374195ANA A. EMPERIO                                           0501
A0101413440655054550001SOMETHING DIFFERENT BAKESHOP                             0502
A0101406590662457304001ESQUIVIAS, JOAQUIN PABLO A.                              0502
A0101407560686478374067SHERLITA T. FERNANDEZ                                    0501
A1701400230693478374060ROMOSOD, ADELA PASCUA                                    0501
A4101400260812383492002MARIA OLIVIA V. MARAAN                                   0502
A4101400260812478374056EMILY T. DIAZ                                            0501
A4101400390813017514001PRESTIGE AUTO CARE                                       0501
A0101404840851520766149LORNA S. RODOLFO                                         0501
A0101404840851526058001DIZON, EDWIN OBRA                                        0501
A0101405070861540871001***************                                          0503
A5001400170000000170141MOISES, RACHEL OR TIU, REBECCA                          10505
A3101400160000000429167NATHANIA SABRINA L VENTURA AND                          10502
A0101413020000000880473LAGUNDA, JOAN DBU:                                      10505
A0101409050000000999642CASTILLO, ASHRICK REIGN BELLO                           10501
A5501400120000001121719ONG, DANIEL STEVEN OR                                   10505
A0101405070000001455892ROY A. MIRANDA OR JULIE ANNE                            10501
A2801400230000001734709CUSTODIO, JAMEEL DBU JACUDIBI                           10501
A0701400260000002339095BERNARDO JR., JAIME MIRALLES OR                         10502
A0101410850000003101913DIA, ELVIRA ALEGRE OR DIA,                              10502
A0101400150061227644001JOSEFINA T. GUTIERREZ OR                                10502
A0101400150061329718001ZABALETA JR., JOSE MARIA PONS                           10501
A0101401830141057246001RYAN BARANGAY DBU R BARANGAY                            10501
A1001400350233653580001EVELYN OH OR EDWARD OH OR                               10503
A1901400290261585775001LITA CUETO MENDOZA OR DORIS                             10502
A0201400760374047906001SAPAYAN LIM ALVAREZ & LIGUTAN                           10502
A0201400920375529534001BESANES, LAVOISIER OR BESANES,                          10510
A0201400920375534474003CHUA, JEFFREY O. OR                                     10502
A0201400890376763623001BELO, EDWARD JOHN DENNIS OR                             10505
A0101407720602598618001MELLANIE L. VALDEZ OR JAHN                              10501
A0101406590662296475001RAMOS, MA. JESUSA FERNANDEZ OR                          10502
A1301400210682628277001ADELIA MARIA B SOTO OR                                  10501
A0101407560686174374002BERNALES, RUFINA PE¥ARANDA AND                          10501
A0101408240711382862001DEL ROSARIO, FRANCO OR TERESA                           10502
A01014048408510283300013RD ROCKSAND GENERAL                                    10501
A5001400170000000170141OR TIU, EDUARDO                                         20500
A3101400160000000429167SONIA L VENTURA                                         20500
A0101413020000000880473JJ CONSTRUCTION                                         20500
A0101409050000000999642OR AQUINO, MA. FLORIANNE                                20500
A5501400120000001121719YU, MARICA ARMIN                                        20500
A0101405070000001455892MIRANDA                                                 20500
A2801400230000001734709BUSINESS SOLUTIONS JT                                   20500
A0701400260000002339095BERNARDO, CYRIL NIDEA                                   20500
A0101410850000003101913ABNER NATHANIEL ALEGRE                                  20500
A0101400150061227644001MA. REGINA PAZ G                                        20500
A0101400150061329718001OR ZABALETA, JOS                                        20500
A0101401830141057246001HARDWARE & ROVIE BARANGAY                               20500
A1001400350233653580001EDMUND OH                                               20500
A1901400290261585775001MARIE MENDOZA MEDINA                                    20500
A0201400760374047906001LAW OFFICES                                             20500
A0201400920375529534001CHUCHI OR BESANE                                        20500
A0201400920375534474003CHUA, SHEILA FAT                                        20500
A0201400890376763623001BELO, TERESITA L                                        20500
A0101407720602598618001FELICISIMO ATAYDE                                       20500
A0101406590662296475001RAMOS, JOSE FRANCISCO C.                                20500
A1301400210682628277001MANOLET C SOTO                                          20500
A0101407560686174374002BERNALES, MARCIA                                        20500
A0101408240711382862001OR KATRINA                                              20500
A0101404840851028330001MERCHANDISE                                             20500
B0101402060000000022766SUMMA WATER RESOURCES INC.                               1610
B0101407140000000266302R8 CONSTRUCTION CORP.                                    1601
B4101400420000000711937DAIRY TECHNOLOGIES CORPORATION                           1601
B01014077200000008856011CONNECT INTERNATIONAL INC.                              1602
B1901400290000001363177WESTERN BATANGAS UROLOGY SPECIALISTS INC                 1602
B0101402770000001571579LEADER GARMENTS CORPORATION                              1605
B0601400230000002649972GARBES AND GARBES TRADING CORPORATION                    1601
B0101408400000003120521GILIGAN'S ISLAND BAGUIO, INC.                            1602
B0101408400000003120554GILIGAN'S ISLAND BAGUIO, INC.                            1602
B0101400150061009719001WOODSON PROPERTY HOLDINGS                                1601
B0101400150061011058001CHATHAM HOUSE CONDOMINIUM CORP.                          1605
B0101400600071328360002**********                                               1601
B3001400130230043534001BERRY HAPPY MART INC.                                    1606
B1001400350233512004001VILLALBA, CHARLIE L.                                     1602
B1901400290261038035001LMI GROUP FOOD CO. LTD.                                  1602
B1901400290261041112001G&G MANPOWER & PROFESSIONAL SERVICES                     1603
B1901400290261047635001SYLPAULJOYCE CORPORATION                                 1605
B1901400290261490775003LYNAR REALTY & DEVELOPMENT CORP.                         1601
B0101401670271039608001*******                                                  1601
B3401400280318045071001ASIA PACIFIC AQUA MARINE, INC.                           1606
B0101402480331038160001****************                                         1603
B0101402480331220013001**********                                               1604
B0101402480331740883001ROSTECH HOLDINGS, INC.                                   1601
B0201400760374041914001OUROKU CORPORATION                                       1605
B0201400890376045807001**********                                               1620
B0101402930381018178001SUMMIT COLLECTION & ALLIED SERVICES                      1602
B0101402930381030725001SURTIDOS TRADING                                         1602
B0101409180397024348001APPLESEED MONTESSORI INCORPORATED                        1601
B0101405940512020791002ACRYDENTAL LABORATORIES, INC.                            1601
B0101408110515023779001RUSH HOUR ADVERTISING, INC.                              1601
B0101408530516033397001SPRINGER INTERNATIONAL, INC.                             1605
B0101408530516037477002VXI GLOBAL HOLDINGS B.V.                                 1605
B0101403450521011910001KITCHEN BEAUTY MARKETING                                 1605
B0101413440655056766001ADVISIBLE MARKETING CO.                                  1601
B1301400210682039340001CDS MACHINE SHOP CORPORATION                             1605
B0101404840851021512001STI COLLEGE ALABANG, INC.                                1603
B0101406750852041203004AUTOCIRCULO CORP.                                        1610
B0101401830000000033605CARITAS SALVE CREDIT COOPERATIVE                        11603
B0101406040112033135001NCR-DPWH - EMPLOYEES UNION SOUTH MANILA                 11601
B0101401670271555562003GREEN ASIA REAL ESTATE AND DEVELOPMENT                  11601
B0101406460272021483001STALLION REALTY DEVELOPMENT                             11605
B0101402060351009365002GREEN VALLEY TOWNHOUSE OWNERS                           11601
B0101407720602031840001LA CONSOLACION PARADISE BEACH RESORTS,                  11602
B0101401830000000033605QUIAPO                                                  21600
B0101406040112033135001ENGINEERING DIST                                        21600
B0101401670271555562003INC.                                                    21600
B0101406460272021483001CORPORATION                                             21600
B0101402060351009365002ASSOCIATION INC.                                        21600
B0101407720602031840001INC.                                                    21600
B1301400210682821100608**********                                               2005
