A0101405650000012457415BERBANO, MARIE THERESE CATRAL                            0502
B0101405650322018681007LANDCO PACIFIC CORPORATION                               1602
B0101405650322018681008LANDCO PACIFIC CORPORATION                               1602
B0101405650322018681012LANDCO PACIFIC CORPORATION                               1602
B0101405650000014044496ALLMODERN HOME COMPANY INC.                              1601
A0101405650322172156002AGUILAR, MELINDA NAVARRO                                 0501
B0101410850000007294228JDD5 LOGISTIC ENTERPRISE SERVICES, INC                   1601
B0101407270162038101001BIRDS INTERNATIONAL, INC.                                1603
A0101412500214337108002OCONER, MARIA ANGELA NAPIZA                              0501
B6601400120000000060911SAMNORTH BUILDERS CORP.                                  1601
A6601400120314618149001DY, FRANCO NEIL TUBELLO                                  0510
A0101405650322342825001DIAZ, RHANI JOY TERESITA M.                              0502
A0101405650322670876001INACAY, VICTORIA T. OR                                  10501
A0101405650322670876001INACAY, ORLANDO                                         20500
A0101412760000002067621DEL ROSARIO, DBU MEGA MB GRAPHI                         10502
A0101412760000002067621C DESIGN & PRINT                                        20500
A0101407430000000521111ROBERTO L. NERI II                                       0501
A4101400260000011417462CONTEMPLACION, PEARL ELIZABETH                           0502
B0101400860011035923001**********                                               1602
A0101400860011500268001**********                                               0502
A0101401250920190000007DISOMIMBA, TANAUN MINANG                                 0501
A0101401250019120002328IGAYA, MIRIAM DEROCA                                     0503
A0101401250920190000160MIRABEL, JANICE BARCELON                                 0501
A0101401250021309334001NAIDA T. TALIMAN AND                                    10502
A0101401250021309334001S.MA.FLORLINDA V                                        20500
A0101400150000004090395SULIT, MARIA NINOTCHKA MANO                              0501
A0101400150000012350042GALANG, GIDEON DANTE TARACATAC                           0501
A0101400150000001708083SERVER, ERNEST FRITZ DULA OR                            10502
A0101400150000001708083SERVER, CHRISTOP                                        20500
A0101405810000016514362WU, QING BO                                              0502
A0601400100000012780860EMPLOYEES OF RMS COLLECT PHILS.                         10501
A0601400100000012780860CALIXTO, RANDY                                          20500
A0601400100000017089773FLORES, CYNTHIA MENDOZA                                  0502
A0601400520000001706907EVANGELISTA, JHOEMY DIZON                                0501
A0601400520000016098476JUANILLO, JOSEFINA LOZANO                                0501
A0601400520000007553202LUMANOG, EVELENE HUYPUNGCO                               0501
A0601400520000014433262PUNZALAN, LILIA NARCISO                                  0503
B0601400520000009516758NEPOMUCENO, MARCO ARMANDO                               11603
B0601400520000009516758DBU ARMANDO'S PI                                        21600
A0101414090000016879371GARDOSE, JOANNA CLARISSE A.                              0501
A0101414090000014876403RONQUILLO, KIMBERLEY FAYE ENRIQ                          0501
A0101410850000009034571VELONZA, VICTORIO CAMBA                                  0502
A0101410850000011219224BAUTISTA, EDITHA NATIVIDAD                               0502
B0101401960121238800001***************                                          1602
A0101413310000018896481BAUTISTA, JENEROSE NUNEZ                                 0501
B0101401830141027203002ARTWORK PRODUCTION & TELEPROMPTER S                      1601
A0101412920000003465063ALMARIO, CORNELIO AQUINO                                 0501
A0101412920000018915683SADAY, TEOTEMIO CARAMPATANA DBU                         10501
A0101412920000018915683ESEMAS ELECTRONIC SYSTEM                                20500
B0101400440161007221001ILA EXPRESS HAULER                                       1602
B0101401090000000772338DELFIN ARNEL DEASIS RAZON AND                           11601
B0101401090000000772338LARRY SIA KING                                          21600
A0101401090000018907276DEVANADERA, JANE GOCON                                   0501
A0101401090171197427002LEVINA D. ZUNIGA                                         0505
A0301400530000015420903SEBASTIAN, DANILO RAYMUND HERRE                          0502
A0301400530193037469001SONRISE COOPERATIVE                                      0502
A0301400790000016320460RUBIO, RHEGNER DENIA                                     0501
A0301400950000008000660PE BENITO, HAZEL ANN NERI                                0503
B0301400950000012244789WESTGATE AGRI-VENTURES ENTERPRISES,INC.                  1601
A0101410720000018425700SANCHEZ, NICOLE MANGAOANG                                0502
A3101400160000017370651USI, ANNALYN APELO DBU FOUR                             10502
A3101400160000017370651PILLARS HUMAN RESOURCES                                 20500
A3101400870000017261160DELLOSA, RENINO CULADA                                   0502
A1001400190231520766013PATALINGHUG, BEVERLY MERCADO                             0501
A1001400350000008698899EBUNA, RALF JOSEPH MADRONERO                             0503
B1301400470000003270113OBRIGADO LENDING INVESTOR, INC.                          1601
A1301400470252478374018ELIZABETH P. BARNACHEA                                   0501
A1301400760000016080830PETER JOHN P. SAMIN OR CORNELIO                         10503
A1301400760000016080830C. SENANGELO JR.                                        20500
A1301400760000016080841PETER JOHN P. SAMIN OR CORNELIO                         10503
A1301400760000016080841C. SENANGELO JR.                                        20500
B1301400760000010656829ELITE MOTORBIKE SALES CORPORATION                        1602
A1901400290000012632529DAQUIOAG, ARLENE CORPUZ                                  0501
A1901400290261244456001LEO YAP ONG OR                                          10505
A1901400290261244456001MEI MEI YULO ONG                                        20500
B0101406460272039835001TECHNOMED INTERNATIONAL, INC.                            1603
A0101406460000000182530LICUDINE, CLARITA DELA CRUZ                              0503
B0101406620273022260001CROWN SYNERGY TRADING CORP.                              1608
B0101406620273040722001ARDENT NETWORKS INC.                                     1602
B0101406620000000962465TOP TIER INNOVATION ENTERPRISES                          1606
A0101410980000010894901JUSI, MARIA CORAZON SOMIL                                0501
A0101411110000005356710DELA PENA, MARILYN M OR                                 10503
A0101411110000005356710DELA PENA, EMMANUEL M                                   20500
A0101411110000010082172MARCOS, TEODORA R DBU B & D TOY                         10502
A0101411110000010082172BALLOONS & PARTY NEEDS                                  20500
A0101411820000005380110CHARLES B. VILLANUEVA                                    0501
A0101412470000002136141DEL ROSARIO, MA PAULA ANGELA OR                         10503
A0101412470000002136141ERLINDA OR LADY                                         20500
A0101400570281361144001ERIC G. IDIESCA                                          0501
A0101400570281720451001VALERIO, MYRA D. OR                                     10501
A0101400570281720451001VALERIO, ANGELO                                         20500
A2601400270000011826943BANIQUED, LORELEI FAITH ASUNCIO                          0501
A6601400120000017042238UY, FLORIANE DY DBU I BUILDERS                           0501
A3401400280000004958621CASTRO, MARILYN DELA CRUZ                                0501
A0101405650000008159002DESAMPARADO DBU RUNNING CHEF'S                          10502
A0101405650000008159002TOPPINGS AND CONGEE                                     20500
A0101405650322478374002MAVIS W. PAREJA                                          0503
B0101402510341037808001FAIR ALL MARKETING                                       1602
A0201400760000016614761OLIVA, FRANK IGNATIUS GUINARES                          10502
A0201400760000016614761OR OLIVA, MARY JOSEPHINE                                20500
B0201400760374033207001W.T. CONSTRUCTION, INC.                                  1606
B0201400760374046327001PELAYO, R. DBU TOTO ENTERPRISES                         11605
B0201400760374046327001COMMODITIES                                             21600
A0201400890000016858687MONDIGO, DOMINGA ABARRO OR                              10501
A0201400890000016858687MONDIGO, MARK ARTHUR V.                                 20500
A0201401020000015170191ISIDRO, GIRLY ABARQUEZ DBU 10 3                          0502
A0101402930000014435920DUMPIT, TOMAS MEANA                                      0502
A0101402930000016933290ONG, JOCELYN BENAVIDEZ                                   0501
B0101402930000013314511TOMZEN REALTY INC.                                       1602
A0101408370000008667723TANG, JAYMIE LOUISE HERNANDEZ                            0502
A0101408370382205155003DR. ERWIN B. ALCAZAREN                                   0502
A0101405490000018028069JAVIER, LYNDON TIONG                                     0501
A0101408400394605254002**************                                           0504
A0101408950000003171202LIM, CHAUNCEY KESTER LAO                                 0502
A0101408950396622136001MICHELLE VERGARA DELA CRUZ, M.D                          0503
A0101409210000003297530ARTHUR POLICARPIO                                        0502
A0301400820000018627473CALDERON, ANGELIZA E.                                    0501
A0301400820000002271956COMAINGKING, JESUS B.                                    0501
A0301400820000010546471TUGNAO, CLARISH MAY ANN C.                               0501
A5501400120000009875803FERNANDEZ, JACQUILINE GETANO                             0502
B0101406330000000162718IMPLICARE INTERNATIONAL MGT. RESOURCES                  11603
B0101406330000000162718INC.                                                    21600
B3801400170490060785001CALAPAN GOLDEN EAGLE MART, INC.                          1615
A1901400160491055392001BONDOC, RENATO SANCHEZ                                   0501
A1901400160491247840001OFELIA D FETALVERO OR                                   10501
A1901400160491247840001HARRY F FETALVER                                        20500
B0101407430503006854003CARGO DATA EXCHANGE CENTER, INC.                         1603
A0101403580511150639001DAPHNE B. ROLDAN                                         0501
A0101405940512360728001ERWIN P. HERNANDEZ OR                                   10501
A0101405940512360728001AGNES T. HERNANDEZ                                      20500
A0101408530000001268424SOCORRO S. ALVIAR                                        0501
A0101408530516774975001RELOZA, VICENTE ANTONIO A. OR                           10501
A0101408530516774975001RELOZA, MA. VERO                                        20500
A0101411400000012210107MICHELENA, MA. ALEXANDRA DUMPIT                          0501
B0101403450000006055847***********                                              1603
B0101403450521029023001BARRINGTON CARPETS, INC.                                 1602
A0101403450521298753001**********                                               0501
B0101403450521344500001**********                                               1601
A0101403610000018792900ALMALVEZ, MARINA AMORANTO                                0501
A2201400250561028844002CHRISTIAN HOME FURNISHING                                0504
A0101410690000018909927BASBANO, JOHN FABIO GREGORI                              0501
A0101407720602397352001RIVERA, LUIS ROBERTO FOOSHEE                             0501
B0101412180603045589001PROBIO MEDCARE INCORPORATED                              1610
B0101409890000012559041AMZEN INDUSTRIES, INC.                                   1602
A0101407690000008045943ANDRES, JOVINA CARINA BALMACEDA                          0501
A0101407690652520766005GILNNA M. MALIGAT - DEALERS OF                          10501
A0101407690652520766005SHOECAT INC.                                            20500
A0101413440000002846262SARET, MARIA JENNIFER JADE M.                            0505
A0101413440655055766001MIRANA, DOLLY DIANNE DBU NINI                           10501
A0101413440655055766001AND STITCH GARMENTS                                     20500
A0101413440000003298173MACANAS, MA. LINDA ADVINCULA                             0506
A0101413570000015140342RUBIO, VIVIAN ABETRIA                                    0505
A0101414120000015400665ESMUNDO, RINA CANLAS DBU RINA                           10505
A0101414120000015400665CANLAS ENTERPRIS                                        20500
B1301400210682040563001ACTISERVE CORP.                                          1605
B1301400210000000023543SAN PABLO LIAM FOODS CORPORATION                         1603
A1301400210682470535001JINKY C. GATCHALIAN OR                                  10502
A1301400210682470535001GILBERT T. GATCH                                        20500
B1301400340000006402502********                                                 1604
A1301400340683367953001FELLO, ROSEMARIE RODIL OR                               10503
A1301400340683367953001FELLO, BISMARK C                                        20500
A1301400500000000213436ROSALINDA C. PLACIDO                                     0501
B2801400100712036235001MS-JC INT'L. LOGISTICS INC.                              1601
A2801400230000014314273GUANCIA, RACHEL SALVAN DBU                              10501
A2801400230000014314273GRANDIYOSA SALON                                        20500
A4101400260000009533553BANGILAN, JAHMAE JIMENEZ                                 0502
A4101400390000003389435JEMELY M. PUNZALAN                                       0501
A4101400390813478374021ASUNCION L. JERESANO                                     0501
A4101400420000017688196BENEMERITO, HONEY MAE SAAVEDRA                           0501
B4101400420814033668001PETRO VENTURE CORPORATION                                1601
A4101400420814478374154CABRERA, FELIZA                                          0502
A4101400420000003715724FLAVIANO, PERLITA                                        0501
A0101404840000014398593VILLORIA, JOSELITO G.                                    0502
B0101404840000001312463LF GLOBAL LOGISTICS SOLUTIONS INC.                       1602
A0101404840851520766037MAGDALENE DE GUZMAN                                      0502
A0101406750000015824003ADA, LEAH GLORIA ESPINAR                                 0502
A0101405070000013277339**********                                               0501
