B0101404260611821100608**********                                               2005
A3001400130230767566052FLORES, VIRGINIA MALBAS                                  0502
B0101405940512007477002SATURN CEMENT MARKETING CORPORATION                      1603
A0101410560000001944196KRISTINA MAE A. SAPIERA                                  0501
B0101410560110821100608**********                                               2002
A3001400130230716404001SERVADO,VIOLETA CHAN OR ABEJAY,                         10503
A3001400130230716404001MARIA LIGAYA PAZ                                        20500
A0101403320471566591001EDDIE C. BULANON                                         0502
A1601400170000001360598LUIS P. LOYOLA JR.                                       0501
B0101405940512020791002ACRYDENTAL LABORATORIES, INC.                            1601
B2201400250561026458001SDE (PHILIPPINES) CORPORATION                            1605
A4101400260812579022001NESTOR C. SANTOS                                         0501
A0101400860011412003001**********                                               0505
A0101400860011518992001**********                                               0505
A0101400150000005486542SANTOS, LALAINE FLORES                                   0501
A0101400150000004915180RIVERA JR., RODRIGO PABELLO                              0502
B0101400150061011066001FOOD SOURCE, INC.                                        1605
B0101400150061036320003IPM CONSTRUCTION & DEVELOPMENT CORP                      1610
A0101400150061316369006ALEX LI                                                  0501
A0101400150061720595104PISCO, ROMMEL BILBAO                                     0501
A0601400100081621919001DAVID, CRISANDA MERCADO                                  0503
B0101413730000000469687UNITED EVANGELICAL CHURCH OF THE PHILS.                  1606
A0101414090000003314963MINDALANO, ABDUL LATIF AGUAM                             0501
A0101400730000001822760DY, MERYLL LYN YU DBU MYTY                              10505
A0101400730000001822760MARKETING                                               20500
A0101400730000001822771DY, G DBU GWDY MARKETING                                 0505
A0101400730000001822782LIM, C DBU LOEWE MARKETING                               0505
A0101400730111478374151MELANIE T. SIGUE                                         0502
B0101401960121034732001*****************                                        1601
B0101401960121038076001*****************                                        1601
A0101401960121075261001DELA ROSA, MAYUMI ORAA                                   0502
A0101401960121238701001**********                                               0502
A0101401960121327478001AIDA MEDEL                                              10502
A0101401960121327478001OR ROD MEDEL                                            20500
A0101401960000002331744*************                                            0501
A0101412630000001823401COT-OM, MARY BERNADETTE CABUYOC                          0501
A0101413310000003169219ARCILLA, CARLO INFANTE                                   0503
B0101401830000000033570CARITAS SALVE CREDIT COOPERATIVE                        11603
B0101401830000000033570(MALABON)002                                            21600
B0101401830000000033581CARITAS SALVE CREDIT COOPERATIVE                        11603
B0101401830000000033581(BULACAN)003                                            21600
A0101401830141724867001GOMEZ, GEORGE CASSIUS ALFONSO                           10502
A0101401830141724867001FARRALES                                                20500
A5001400170000000044982ANTONIO, JORDANNE DBU URBAN                             10502
A5001400170000000044982PAINTS & MORE ENTERPRISES                               20500
A0101400440000003705888ASERON III, MELQUIADES MARTINEZ                          0501
A0101400440000003705913JESABEL REMODO                                           0501
A0101400440161525001174RIZALYN V. GUNTANG                                       0505
A0101407270162387970001******                                                   0503
A0101401090171195769001NONATO, MARIBEL GANGOSO                                  0501
A0101401090171457732001MARCELA MILA D. DAYA                                     0501
A0101401090171666435001DONDI C. LIM                                             0501
A0301400530193047866001MALBAS, MAHINAY & CO., CPA'S                             0501
B0301400660000000023058HARVEYSHEEN HARDWARE GLASS AND ALUMINUM                 11602
B0301400660000000023058SUPPLY                                                  21600
A0101401380201436370001MONSALE, MENLY ABENOJA                                   0502
A3101400160221221673001ALMIRA A. DIMACULANGAN OR                               10501
A3101400160221221673001RAMON M DIMACULANGAN                                    20500
B3101400740000000013914BETA NANOCOATING PHILIPPINES INC.                        1602
A3101400870000003515524AGRIMANO, GYNALEN GARCIA OR                             10501
A3101400870000003515524BANGUGUILAN, ARIS PRESBIT                               20500
A1001400350233599284001ELEAZAR, NANCY CONCEMINO                                 0501
A1301400470000002299870MANUEL BIEN S. PINE                                      0505
B0101406460000000182483WEE COMMUNITY DEVELOPERS, INC.                           1605
A0101406460272612377001********                                                 0501
A0101406620273575453001*********                                               10501
A0101406620273575453001*********                                               20500
A0101406620273793427001AMORADO, JOSE AMOR AND AMORADO                          10502
A0101406620273793427001CRISTINA                                                20500
B0101411820000000024142HARDCOM COMPUTER SYSTEM CO.                              1601
A2601400270000002677503GILBERT V. DAMIAN OR                                    10501
A2601400270000002677503RUBY MILAGROS C. DAMIAN                                 20500
A0801400160000000476313REX MUZONES                                              0502
A2001400290000000724510JUCOM, RODORA TUALE                                     10501
A2001400290000000724510OR JUCOM, JHUFEL                                        20500
A2001400290315688009001ALGOPERA, LLOYD GARCIA                                   0504
A0101402350321638505001********                                                 0502
A0201400760374660084001DALUMPINES,SHECKY MAE VILLAVERT                          0501
A0201400890000005478657YAMZON, ESTELLE MARIE SALAZAR                            0501
B0201400890376059041001GR LED SOLUTIONS                                         1602
B0201400890376059044001AUTOPREMIUM INCORPORATED                                 1601
A0201401020000000055952DANO, JOSIE DANAS                                        0502
A0101408370382391439001EDREN S. MONTERDE OR                                    10502
A0101408370382391439001LORNA O. MONTERDE                                       20500
A0101408370382398259001DR. MARIA LIZA ASUNCION M. CRUZ                          0502
A0101411660000000751137FREDERICK JOEL LIM OR                                   10501
A0101411660000000751137IMELDA ONG                                              20500
A0101402770000000361000PARVIL SHELL SERVICE STATION                             0501
A0101402770391360120001CEFERINO V. PRONTO JR.                                   0501
A0101408400394042747001CHARIS GLASSBLOWING PRODUCT                              0502
A0101408400394078250001MALA, ARATOC DISOCOR                                     0502
A0101408400394478374034MERLA M TANO                                             0502
A0101408950000000776785AMANTE, ANGEL JOAQUIN MANUEL                             0501
A0101408950396565613001AGCAOILI, MA. DULCE FLORENCE                             0501
A0101409180397616924001MALING, PATRICK NELSON ZUNIGA                            0501
A0301400820000001185780RUFEROS, ROY KENNETH OR                                 10501
A0301400820000001185780AREVALO, MICHELLE                                       20500
A5501400120410283898004GARCIA, JOSIE JAVELLANA                                  0502
A2401400180000000428022PEREZ, AUGUSTO DAGANZO                                   0501
A2401400180000000073492NAINGUE. JANETH AVES                                     0501
B0901400220432043565001CASA CANELAR PENSION                                     1602
B0101403030000000008875TAN, ANTONIO SY                                          1601
A0101412890000002747824************                                             0501
A0101412890000002747982*********                                                0501
A3801400170000000154185EVANGELISTA, BABY DAISY DBU                             10502
A3801400170000000154185R.D.E. BEAUTY CENTER                                    20500
A3801400170490055006001MICHAEL OR CARYL MONTALES DBU                           10501
A3801400170490055006001MONTALES LEARNIN                                        20500
A1901400160491405481001CARMELA P LLANA OR                                      10504
A1901400160491405481001VINCENT WIGBERT P LLANA                                 20500
A1901400160491546773001IRENEA M ERLANO                                          0501
B1401400110492011585002LUCENA GREENVIEW, INC.                                   1602
A1401400110492773514001ABETRIA, MARLENE SALIENDRA                               0502
A0701400260000001804600VILLAMOR, LUCIANO FRANCISCO DBU                         10502
A0701400260000001804600VILUFRA AGRI SOLUTIONS                                  20500
B0101407430503006854003CARGO DATA EXCHANGE CENTER, INC.                         1602
B0101407430503047489001MANILA INTERNATIONAL FREIGHT                            11603
B0101407430503047489001FORWARDERS, INC.                                        21600
A0101407430503378525001EMMA C. MANALO                                           0501
A0101407430000000044904ROWENA L. ESPIRITU                                       0501
A0101405940512152920001NELSON T. LAO OR STELLA MARIE                           10501
A0101405940512152920001CASTILLO LAO                                            20500
B0101408530000001275229PEOPLE'S CREDIT PAWNBROKERAGE                           11601
B0101408530000001275229CORPORATION                                             21600
A0101408530000001885852EDUARDO F. DE LEON DBU AMITY                            10502
A0101408530000001885852CUSTOMS BROKERAG                                        20500
A0101411400517513576001GRIARTE, KENNETH MARTIN ROBLES                           0501
A0101411790518055764203BUNAG, CHARLES ANTHONY RAMOS                             0501
B0101403450521078888003PUREGOLD PRICE CLUB, INC.                                1620
A0101403450000001638053*************                                            0501
B0101403450521238946001********                                                 1602
A0101403610531219472002NAVOA JR., FILOMENO CORPUZ OR                           10502
A0101403610531219472002NAVOA, NANETTE PANO                                     20500
A0101403610531219950001DRA. RUBRICO, KHRISTINE CARRERA                          0505
A0101407720602404060001MARZO, MARIA ROWENA FERNANDEZ                            0502
A0101404260611335308002ALIMBOYONG, JOSEPHINE MAHINAY                            0503
A0101404260611478374067ESTELA RAMIREZ                                           0502
A0101404260611478374091ROSITA LLANES                                            0501
B0101409890649046783001**********                                               1601
A0101409890000000049089GEMSTAR CLEANING SUPPLIES                               10505
A0101409890000000049089INTERNATIONAL                                           20500
B0101409920000003672031ELECTRON COLLEGE OF TECHNICAL EDUCATION                 11602
B0101409920000003672031CORPORATION                                             21600
A0101409920650078372001PENA, MA. CHRISTINE GAMAYO                               0502
A0101413990000000631883NEBRIA, ESTER PUJOL OR                                  10503
A0101413990000000631883NEBRIA, NATHANIEL                                       20500
A0101413990000004511102MANALO, NORA LEGASPI                                     0501
A0101413990000003431336*****                                                    0505
A0101414120000001142852TERESITA M. PUYAT OR MARY ANN                           10505
A0101414120000001142852MAGNO                                                   20500
A0101414120000001642655*****                                                    0502
A0101414120000005252875LABACANACRUZ, JOSE ROMERO                                0502
A0101414120000000649116STEADFAST BUILDERS, THE                                  0502
A0101406590662289338001KIM C. DINO                                              0503
A1301400210000002909306VIVAS, MARICHU NAVALTA                                   0501
B1301400210682012854002BULACAN PUBLIC SCHOOL TEACHERS MULTI-                   11605
B1301400210682012854002PURPOSE COOP INC                                        21600
B1301400340000000982032DELA TORRE, ERIBERTO C. DBU SUN GOLD REA                11601
B1301400340000000982032LTY DEVELOPMENT                                         21600
A0101408240000000347299BENDITA, MICHELLE DELOS SANTOS                          10501
A0101408240000000347299AND AQUINO, MARILEN                                     20500
A2801400100712257546001CUSTODIO, GODWIN                                         0501
A4101400260812030742002GODGIVEN PHARMACY & GENERAL                             10505
A4101400260812030742002MERCHANDISE                                             20500
B4101400260812681389001MARIVIC B AGUIBIADOR OR DAVID B CHARLTON                 1603
A4101400390000001404266SOLAS, SAMARITAN CATARATA                                0502
B4101400390813021892003FAREMO INTERNATIONAL, INC.                               1610
A4101400420000002084362SINONGCO, MICHAEL ANGELI CABRAL                          0501
B4101400420814047949001SOUTHWOODS SCHOOL OF CAVITE, INC.                        1605
A4101400420814328455001LARGA, ROMMEL YAP                                        0501
B4101400550000000006015EFFICIENS PROCESS INC.                                   1602
A0101412340000003343171ARIS M. FERNANDO                                         0501
A0101412340000002900329SERAFIN D MOLDEZ DBU SC MOLDEZ                          10501
A0101412340000002900329ENGINEERING &CONSTRUCTION                               20500
B0101404840851021512001STI COLLEGE ALABANG, INC.                                1603
A0101404840851298552056ROSARIO GABAYERON                                        0502
A0101404840851478374063AIRENE ALCANTARA                                         0501
A0101404840851478374171LORENA A. ARES                                           0501
A0101404840851520766073ELIZABETH A. SUAZO                                       0501
B0101406750000000090559GLOBAL ACCESS FINANCIAL SERVICES, INC                    1603
A0101405070861037846001GOODNESS & MERCY MOVERS                                 10503
A0101405070861037846001SERVICES                                                20500
B0601400230891021614001QUIOC (D) QUIOC & ASSOCIATE                              1603
