A1101400120000001547337ALDIANO, FLORDELUNA LATO                                 0502
A1101400120000003197142ROMERO, CATHERINE DEMETERIO OR                          10502
A1101400120000003197142ROMERO JR., RAMON ROCHE                                 20500
A1101400120313478374004ALBESA, JONALYN D.                                       0501
A1101400120313478374112VILLASOTES, JEAN LIBATIGUE                               0502
A0201400760000000222733CU, ANTON ONG OR HONG, XIANG                             0501
A0101406460000010875353ARRIOLA, FERDINAND DIOLAZO                               0501
A1101400120000003981306AGULLO, JEFFREY ARTATES                                  0501
A1101400120313478374116MASIN, NANCY KELISTE                                     0501
B0101400860011395693003**********                                               1601
A0101400860011519806001**********                                               0504
A0101400860011708347001**********                                               0502
B0101401250000002763391FILASIA SYSTEM TECHNOLOGIES INC.                         1602
B0101401250021185567001STA. CLARA PARISH SCHOOL                                 1605
A0101401250021471792001PIOQUINTO, DELIA ROSQUITES                               0501
A0601400100000002072680MARCOS, DULCE FORTO                                      0503
A0601400100081251823001QUINLAN, JOHN OR PAM                                     0508
A0101410560000001944043GOODNESS & MERCY MOVERS                                 10503
A0101410560000001944043SERVICES                                                20500
A0101400730000001822862ALVENDIA, AMADOR PAHATI                                  0502
A0101406040112208430001PRISCILLA C. RAMOS                                       0502
A0101401830141259521001JIMMY N. YANG                                           10501
A0101401830141259521001SONLY PRINTING PRESS                                    20500
A0101401830000001281910DE GUZMAN, CONCEPCION FRANCISCO                          0501
B0101400440000000029310PERLA COMPANIA DE SEGUROS, INC.                          1603
A0101400440161045289001RAPTURE CAFE' BAR                                        0502
A0101407270000009066899DE OCAMPO, MARIA ROSELA HIPOLIT                          0502
A0301400530000001409661KE, BINGZHANG OR                                        10505
A0301400530000001409661YE, XIUHUI                                              20500
B0301400660000000022813MULTIMAX INDUSTRIES CORPORATION                          1603
B0301400950000002115840DAVAO BARRIO BISTRO, INC.                                1604
A0101401380201602988088********************                                     0501
B0101410720210046169001ASSAM TEA CORPORATION                                    1605
B0101410720000007017290SAN FERNANDO ISUPARTS CENTER INC                         1603
A0101410720653693151001SAMBRANO, CARMELITA ASIS                                 0501
A3101400160000006497814LU, MARITES A. OR LU, JUSTIN A                           0510
A3001400130000008264813SALUDES, GUILLERMA L.                                    0502
A3001400130000008264864CACAFRANCA, KARL RUSSEL INOCENC                         10501
A3001400130000008264864IO                                                      20500
A1001400190231478374067DAGANATO, NICANORA BALOS                                 0501
A1001400190000000016480ANGELITUD, LYDIA LECIAS                                  0501
A1001400190000002170781RAMIREZ, RHESA CABAGO                                    0501
A1001400350000000017165MEN DBU A&L MARKETING SOLUTIONS                          0501
A1001400350000000922412FHEDZ VENTURES                                           0505
B1301400470000000009561FUND LINK CREDIT & LOANS, INC.                           1602
A1301400470252532242001CONSTANCIA C. DACUMOS                                    0501
A1301400760000004522592KRISTOFFER ROMEO E. GATDULA OR                          10501
A1301400760000004522592SANDRA D. GATDULA                                       20500
A1901400290261412190001DRA RESTITUTA D RIVERA                                   0502
A1901400290261499450001ALFIE DIMACULANGAN DIMAANO                               0501
A0101401670271289633003LIM, ROSARIO C.                                          0501
A0101406460272469459001*****                                                    0502
A0101408660274519407001ZIALCITA, MA. CRISTINA B.                                0501
A0101400570281075141001JOANNA T. ADALIM                                         0501
A0101400570281200404001SAMUEL Y. LIM OR BETTY D. LIM                            0501
A0501400200000006272164TOLETE, MELINDA OVALLES                                  0501
A1101400120000006081103BACSAL, EMMYLEEN BATAWAN OR                             10501
A1101400120000006081103BACSAL, DAVID DACUNOS                                   20500
A1101400120000006186616GALO, TERESITA ECLE                                      0502
A6601400120000004440840ARGENIO, ADELA EULIN DBU SAINT                          10501
A6601400120000004440840ROCK'S CAFE                                             20500
A6601400120314612855001SUNDAY LAVIN JR OR IRIANA LAVIN                          0505
A2001400290000000924572MARTY, CRESLYNN MARIE CERINO                             0501
A3401400280000001723495JENNIFER G ONG OR JOHN OWEN ONG                         10501
A3401400280000001723495OR JOAQUIN C GOCHANGCO JR                               20500
A0101402350321282385001EVELYN D. ARRANZA                                        0505
A0101402510341350578002FRITZ G. MILLER III OR                                  10501
A0101402510341350578002MA. RACHEL T. MILLER                                    20500
A0201400760000008869765*********                                                0501
A0201400920000002804559DELA PENA, RUBELYN ARESTOTILES                           0502
A0101402930381205293001MAGDALENA L. MENDOZA                                     0501
A0101402930381381181001BERNARD FAH OR                                          10502
A0101402930381381181001MARIA CAROLINA F                                        20500
A0101408370000006446182NAVALTA, JOCELYN THERESA P. OR                          10501
A0101408370000006446182MICHAEL EDWARD A. NAVALTA                               20500
A0101408370382504035001MYRNA Q. VILLANO                                         0502
A0101408370382685982001MICHAEL JOHN FRANCIS GASTON OR                          10502
A0101408370382685982001RETSIEL LORRENZ L. LAZARO                               20500
A0101411660000005324072MAMA, SALMA MACARIK                                      0501
B0101415350000007877589AMR GLOBAL SOLUTIONS INC.                                1601
A0101402770000004842126ESPINOSA, TIMOTEO CRUZ DBU                              10501
A0101402770000004842126ERSTE ENTERPRISES                                       20500
A0101402770391340733001DOMINGO, CESAR ESGUERRA                                  0501
A0101408400394160344001CALMA, ALFREDO MATAGA                                    0506
A0101408400394424700001QUILAY, EVELINDA QUEBEC                                  0501
A0101408400394563581001ISON, AMERIZZA GOMEZ                                     0501
A0101409180000004892571JENNIFER DELA CRUZ                                       0501
A0301400820000007372985BOLO, LORELYN OCABA                                      0502
A0301400820000004745962NAKILA, ARMAGIDON M.                                    10501
A0301400820000004745962DBU ALDON PJ MARKETING                                  20500
A5501400120000000047276LEGARIO JR., SONNY AJERO                                 0501
B5501400120000005492402PRIMOS UNIDOS FOOD CORPORATION                           1602
A2401400180000001935873RICABLANCA, MARY ANN GABRIEL                             0502
A2401400180411295890001MANIAGO, JIMMY CATAYNA                                   0502
A2401400180411478374027ELLEN PANTUJAN OR                                       10502
A2401400180411478374027ELMER PANTUJAN                                          20500
A2401400180000000428051EGOS JR., JEMMERITO CASANA                               0502
A2401400180411514423001DEALA, BERNARDITA GATCHALIAN                             0503
A1201400150421253603001FLORES, ISABELITA MENDOZA OR                            10501
A1201400150421253603001DOLOROSA JR., ROMEO F.                                  20500
B1201400150421324279001AOYONG, NENITA OR AOYONG, ANTONIO OR                    11605
B1201400150421324279001AOYONG, DOMINIC                                         21600
B0101403320471821200608**********                                               2002
A1901400160000005632628ALBAY, RUSSEL RUBILLOS                                   0504
A1401400110000007186583**************                                           0505
B1401400110492031376001LUCENA WHEELER ENTERPRISE INC.                           1602
A1401400110492035385001ENGR. MOREL L. ESCALONA                                  0502
B1401400110492047717001KKT CONST. & SUPPLY                                      1601
A0101403580511592923001CANTRE, EVELYN GARCIA                                    0501
A0101411400000005330034TUAZON, DON LESTER BAUTISTA                              0502
A0101411790000009724552MENDOZA, CARLO VICTORINO                                10501
A0101411790000009724552ALMARINES                                               20500
A0101411790000009908483CABILLO, ARNULFO                                         0501
B0101403450521021842005WALL VISION CORPORATION                                  1602
B0101403450000000889621FERRIS SOBELL PROPERTIES INC.                            1603
A2201400250561254356001JOSUE I. SENGCO OR SALVADOR D.                          10501
A2201400250561254356001LINAO OR AURITA                                         20500
A0101410690000005383353VIAJANTE, RONNEL NABONG                                  0501
A0101404130000002121259NOGRA, MA. SHIERA MAE MASCULINO                          0501
A0101407720602161863003ROBERTO K. MACASAET OR                                  10502
A0101407720602161863003VIRGINIA M. RAFAEL                                      20500
A0101407720000000112181ARNOLD C. OCAMPO                                         0505
A0101407720602398260001JURILLA, JON EDWARD OR                                  10504
A0101407720602398260001CAMILLE L. JURILLA                                      20500
A0101407720602398260002JON EDWARD B. JURILLA OR                                10504
A0101407720602398260002JOAN S. GATCHALIAN                                      20500
A0101407720602581738001DUCUSIN, MA. ANTONINA SUGUITAN                           0502
A0101407720000000510621STA. ANA, ANA ROSARIO PONCE                              0502
A0101409920000007304903MAGNO, HERMINIA PAJARILLO                                0501
A0101413570000002249367*** **** ***                                             0501
A0101414120000002172527AMELIA DE JESUS OR EDGARDO                              10501
A0101414120000002172527DE JESUS                                                20500
B0101414120000001984201KAYAK CONSTRUCTION CORP.                                 1615
A1301400340683493166001BUNDOC, REDMOND CASAJE                                   0501
A0101408240711372181001BELEN H. SANTIANO                                        0501
A0101408240711383964003MA. ESPERANZA OR                                        10502
A0101408240711383964003LAMBERTO MEER JT                                        20500
A2801400100000005494259MANINGDING, ANALINE ACERO                                0501
A2801400100712255396001VITT O GUTIERREZ OR                                     10502
A2801400100712255396001MARY ANN GUTIERR                                        20500
A4101400260812047321001MEDCREST MULTISPECIALTY DIAGNOS                         10502
A4101400260812047321001CLINIC & PHARMAC                                        20500
A4101400260000000377355LOYOLA, ANNIE BAYAN                                      0501
A4101400260000006043090SAN PEDRO, MA. ROSITA F.                                 0501
B4101400390813036443001JINHOEMB CORPORATION                                     1610
B4101400390813751573001E.GROUP VENTURES INC.                                    1604
A4101400420000000120696CARMELA G. ROMA                                          0502
A4101400420814768923001VIRTUZ, SALVADOR ABAQUITA OR                            10502
A4101400420814768923001VIRTUZ, REBECCA                                         20500
A4101400550815181675001MONTARDE, MILDRED PALABRICA                              0502
A0101404840851520766073ELIZABETH A. SUAZO                                       0501
A0101406750000010886630ESTACIO, ARLYN C OR ESTACIO JR,                         10501
A0101406750000010886630RAMON G.                                                20500
A0101405070861360022002PARK, SUJIN                                              0505
