A0101411400000000001521LEE, JAE MUN                                             0504
A0101408240000000005461SANCHEZ, MARIANO ALTOBAR                                 0503
A0101401250000000020424BALIAO, JOVITA LINGGON                                   0503
A0101413310000000039876IBAZETA, FERNANDO CHACARRATEGUI                          0502
A0101413020000000056733AZADA, EDMUNDO HABANA                                    0505
A0101405650000000080026OPRECIO, ERWINA ZABALA                                   0501
A0101408790000000210891TINAMBACAN, JOSELYN AMANTE                               0501
A0101404420000000472235*****                                                    0501
A0101407720000000510836JOVEN, MYLAH ABELLA                                      0502
A4101400260000000541160SANGANGBAYAN, BELINDA MOJICA                             0501
A0101413440000000570198EMELITA P. DAGUIT                                        0501
A0101410300000000592096PARADA, MARY ANNE GERALDINE A.                           0501
A0101400150000000807829VARGAS, MEL JHANE DECANO                                 0501
A0101404680000000862260MERLY F. BANGUILAN                                       0502
A0101413020000000880553***************                                          0501
A0601400360000000978776BIN, SU WON                                              0501
A1001400480000001054711VILIRAN, PRINCESS SYBIL BADAJOS                          0502
A1001400190000001057534MIGUELA, JUANITO PANGILINAN                              0502
A0301400820000001554649HAGUIMIT, AILEEN C.                                      0501
A0101407270000001597179CHERILYN E. MEDINA                                       0501
A0101401090000001611256VIRGENES, MERLA AVELLANO                                 0502
A2401400180000001676913***********                                              0501
A0101400570000001681712GIL M. VICENTE                                           0502
A0601400520000001707040LOUDON, NYMPHA DE LUNA                                   0501
A0101412890000001765682MARIA ROSELLE M SANTOS                                   0502
A0101412890000001765700*****************                                        0501
A1701400230000001786996ZHANG, JIANHE HUANG                                      0502
A3101400160000001792190MIRAFLOR M CARINGAL                                      0501
A2401400180000001935782ONAS, ROSITA PLANOS                                      0501
A0101406750000002040260TOLENTINO, ROSALINA SABATER                              0501
A0101413440000002339608BAGOYORO, MARIFE M.                                      0501
A1701400230000002422982CHUA, ANTHONY LIM                                        0501
A0801400160000002867269EVANGELINE S. BEDANO                                     0501
A3101400870000002963375ARABIT, AIRYN LIM                                        0501
A0101400150061316369005NENITA C. LINAO                                          0501
A0601400100081504737001KAW, GEMINI DEANG                                        0502
A0101401960121238747001**********                                               0501
A0101401960121239340001***********                                              0504
A0101401090171196109001ANGELES A. UNTALAN                                       0501
A0101401090171337824001FE MARSHA V. NICOLAS                                     0502
A0301400530193478374012FUEREN, JANETH C.                                        0501
A0301400530193708832001ALVIOR, SUZETTE JOCELYN E.                               0505
A0101407140213289248001LORENZANA, MA. LUISA M.                                  0501
A3101400160221221575002FARNENIO M. MAGTULIS, JR.                                0501
A3001400130230767566016MONTON, RAUL ESCOLASTICO GOMEZ                           0501
A1001400190231276564004LONGNO, HARRY GALLINERA                                  0502
A1001400190231478374100OLAMIT, GENEVIEVE                                        0501
A1001400190231478374159TILLO, ROMEO B.                                          0501
A1001400190231520766031CARANO-O, JANFIR JANE V                                  0501
A1001400190231520766126ORTIZANO, MERLYN B.                                      0501
A1301400470252667113001********                                                 0501
A1901400290261298552105AIDA NABOS REYES                                         0501
A1901400290261390520001JOEL PUNZALAN DIMAANO                                    0502
A1901400290261488341075DRA. HELEN BAUTISTA DY                                   0502
A0101406620273072069001LEANO, DEVI PESSUMAL                                     0502
A0101406620273236978001CALLEJA, HOWARD MACEDA                                   0503
A0101406620273547486001BACANI, SENEN CARLOS                                     0502
A0101400570281580385001GUINGON, JESSICA FERNANDEZ                               0501
A0801400160311267968001MUYCO, REX MELCHOR D.                                    0502
A0801400160311478374053JONNA O. ALCAIN                                          0502
A0801400160311724231001ROMERO, RAMESES MEDINA                                   0501
A3401400280318478374006LOVERAS, EMCY DEL ROSARIO                                0505
A0101408820333597106001**********                                               0502
A0201400890376192121001TORRES, GIL FERDINAND ABELLO                             0502
A0101402770391211308001*********                                                0504
A0101408950396770365001PALENCIA, JENIFFER QUIAMBAO                              0501
A2401400180411625023001PROVIDO, JULIET MAHINAY                                  0501
A0901400220432401541088**********                                               0501
A0101403030441497564001**********                                               0501
A0101403320471205844001ESTELA OR VICENTE MACARAEG                               0501
A0101403320471478374055BENITO OR REYZEL ESLABA                                  0501
A0101403320471478374060WINDI B TABARREJO                                        0501
A0501400170481253455001NORMELITO QUIMO OR IRENE QUIMO                           0502
A0101407430503655116001CARMEL V. AVELINO                                        0502
A0101408110515406714001MA. EDITHA WONG JACINTO                                  0501
A0101408530516499116001***********                                              0501
A0101403450521348027001**********                                               0502
A0101407720602381877001LIBERATO P. GONZALES                                     0501
A0101404260611478374119LEA B. DAGANTE                                           0501
A0101404260611478374135EMELITA B. MONCHEZ                                       0501
A0101404420631158414003*****                                                    0502
A0101404420631478374130SUSANA S. TIANGCO                                        0501
A0101404420631528885001SAN LUIS, OLIVIA BUENAVENTURA                            0501
A0101404680651517847001LUCILA C. BERNAL                                         0505
A0101404680651520766082ANGELINE A. URETA                                        0501
A0101404680651520766168MIRASOL T. FIRMALINO                                     0501
A0101406590662207517002CASINO, ROSITA M.                                        0501
A0101406590662289338001KIM C. DINO                                              0503
A0101406590662398844001NG, UENDIE GEOELI LU                                     0501
A1301400210682480189001GERARDO C VILLENA                                        0501
A1301400340683353482001JOSE, MARLENE RODIL                                      0502
A1301400340683478374055CASTANEDA, LILIBETH ASTOR                                0501
A0101408240711403809001MARY MAUREEN H. ALBARRACIN                               0505
A4101400260812478374055ARLENITA E. MORALITA                                     0501
A4101400390813482809001AGCAOILI, EVANGELINE EDROSA JT                           0502
A4101400420814478374040TAN, IMELDA F.                                           0501
A4101400550815754909001MORILLO, RIZA MARIE MARTIN                               0502
A0101404840851298552056ROSARIO GABAYERON                                        0501
A0101404840851478374071MARITESS C. CASARILLA                                    0501
A0101404840851520766067JOSEPHINE V. GABAYERON                                   0501
A0101404840851520766071TERESITA SANTOS                                          0501
A0101404840851520766156LILIBETH TONGO                                           0501
A1001400480000000041501SALVANA, RODOLFO L OR SALVANA,                          10510
A0101412630000000045309LAGON, LEO ANTONIO T. OR                                10501
A0101406620000000051072CASPE, MICHELLE DBU MMC                                 10503
A0301400530000000066237GINA S. AMPATIN OR                                      10502
A0101403320000000067565DE CASTRO, RENIEL DBU                                   10502
A4101400550000000506938DEMDAM, MA. MIRIAM DY                                   10501
A0101409920000000857990QUIZAN, ROMANA C. OR                                    10502
A6601400120000001370729DURITAN, NOLI OR                                        10501
A4101400260000001783957DEPANO, ABEL DBU EXCELLENT                              10503
A2401400180000001935931MC-MAX CABALLES ENGINEERING                             10501
A0101401700041316267001REYNALDO B. BONGALOS OR                                 10515
A0101401090171196112001DARIO T. GARCIA                                         10501
A0101407140213517498001QUINTIN L. PAREDES III OR                               10501
A1901400290261244456001LEO YAP ONG OR                                          10505
A1901400290261432900001JULIUS PIO AFRICA RANA OR                               10501
A0101400570281596416002SUSAN M. ALONZO OR                                      10504
A2001400290315641895001WENCESLAO, JUNE CLEO OR                                 10501
A0101402770391214496001FRANCISCO KUAN WONG OR                                  10505
A0101405490392170122001LEONIDES A. SANTOS OR                                   10501
A0101408950396559428001HERNANDEZ, MARIANNE PEREZ OR                            10504
A0101408950396692502001DR. AILEEN U. AGBANLOG OR                               10501
A5501400120410636179018CHIU, VALENTIN & JULIA EILEEN                           10502
A5501400120410636391028CHIU, JULIA EILEEN & VALENTIN                           10503
A0101407720602162070001DR. CLEMENTE GATMAITAN OR                               10503
A0101407720602162144001SUSAN ABAD OR ANTOINETTE                                10503
A0101407720602398462001GOMEZ, JOHN MANALO OR                                   10502
A0101404680651169005001FERDINAND M. FERNANDO OR                                10502
A1301400340683249082002RICARDO HERMOSO II OR                                   10501
A1001400480000000041501ELIZABETH C                                             20500
A0101412630000000045309LAGON, ANNA MARIE R.                                    20500
A0101406620000000051072ELECTRICAL INDUS                                        20500
A0301400530000000066237ROEL M. AMPATIN                                         20500
A0101403320000000067565E+DC ARQUITECTOS                                        20500
A4101400550000000506938OR DEMDAM, CHARMAINE DY                                 20500
A0101409920000000857990GORRE, RODELYN Q                                        20500
A6601400120000001370729ALCOBER, JEANETTE                                       20500
A4101400260000001783957DEPANO DENTAL CLINIC                                    20500
A2401400180000001935931SERVICES                                                20500
A0101401700041316267001MARICEL BONGALOS                                        20500
A0101401090171196112001OR ELSINOR GARCIA                                       20500
A0101407140213517498001MA. ASUNCION G.                                         20500
A1901400290261244456001MEI MEI YULO ONG                                        20500
A1901400290261432900001CHARMAINE DE GUZMAN RANA                                20500
A0101400570281596416002BENJAMIN T. ALONZO                                      20500
A2001400290315641895001WENCESLAO, ANTON                                        20500
A0101402770391214496001JOYAL KUAN WONG                                         20500
A0101405490392170122001CONCHITA R. SANT                                        20500
A0101408950396559428001PEREZ, MA. MARGARITA                                    20500
A0101408950396692502001DR. MARIO M. PAN                                        20500
A5501400120410636179018& CHRISTIAN & CHRISTEL                                  20500
A5501400120410636391028& CHRISTIAN & CHRISTEL                                  20500
A0101407720602162070001CARLOS P. GATMAITAN                                     20500
A0101407720602162144001KATRINA ONGKIKO                                         20500
A0101407720602398462001GOMEZ, MA. PAZ C                                        20500
A0101404680651169005001ANA MARIE E. FER                                        20500
A1301400340683249082002AGRIPINA HERMOSO                                        20500
B5501400120000000003298MARBEL FIT MART, INC.                                    1605
B0101408240000000005603ALFONSO GAS & FUEL STATION, INC.                         1610
B0101405650000000012933CASTLE MERCHANTS AND HAULAGES INC.                       1605
B3101400740000000013878S & P MEDICAL AND DENTAL TRADING, INC.                   1605
B0101411950000000036400EJIST VALENZUELA INC.                                    1603
B0101409180000000874751MENARCO DEVELOPMENT CORPORATION                          1601
B1301400500000002063941GIANT LUMBER & HARDWARE CO.                              1602
B0101401700041527619001Q.C. TOYOCARS MOTOR PARTS CORP.                          1606
B0101400150061010658002GROLIER INTERNATIONAL, INC.                              1603
B0101400150061014878001**********                                               1610
B0101400730111323005001LAGUNILLA, VIRGILIO JOSE                                 1601
B0101401090171008021001THE CENTRAL SEMINARY FOUNDATION,INC                      1602
B3101400740224054663001IM HOLDINGS INC.                                         1601
B3101400870225054540001ONE SOURCE GENERAL SOLUTIONS INC.                        1601
B1901400290261012818001JEM MANAGEMENT AND HOLDING CORP.                         1601
B0801400160311013984002HOPE LENDING CORPORATION                                 1602
B0801400160311035991001HAPI ILOILO CORPORATION                                  1601
B0101405650322018681014LANDCO PACIFIC CORPORATION                               1605
B0101405650322045389001HAULING 1 TRUCKING CORPORATION                           1601
B0101405650322045389001HAULING 1 TRUCKING CORPORATION                           1601
B0501400170481023482001ARZADON LEISURE CORPORATION                              1605
B0101408530516557675001ZEE2 RESOURCES INC.                                      1603
B0101403450521048101168SKYBLUE LENDING CORPORATION                              1605
B0101403450521240074001**********                                               1602
B0101408240711033672001FINANCIAL RISK RESOLUTION ADVISORY                       1603
B0101408240711036910001ASIAN CENTRE FOR INSULATION PHILS.,                      1603
B3101400870000001177106BALITE, G DBU BGT FOOD ESSENTIAL                        11602
B0301400530000001409741ROBLES, EDDIE DBU VICTORIA CONSTRUCTION                 11601
B0101402770000001571637BERMUDEZ, MARCELIANA E. DBU BERMUDEZ CUT                11601
B1901400290261023671001PONDONG BATANGAN COMMUNITY                              11602
B0101402770391038856001SUBURBAN HEIGHTS HOMEOWNERS ASSOCIATION,                11601
B2401400180411014575003SOCSKSARGEN FEDERATION OF FISHING &                     11603
B0101410300663054721001KAPISANAN NG MGA MANGGAGAMOT NG QUIRINO                 11601
B4101400420814034216001BETHANY BIBLE BAPTIST ACADEMY,                          11603
B3101400870000001177106CATERING SRVS                                           21600
B0301400530000001409741CELEDONIA ROBLES                                        21600
B0101402770000001571637S LIVELIHOOD ENT                                        21600
B1901400290261023671001FOUNDATION, INC.                                        21600
B0101402770391038856001INC.                                                    21600
B2401400180411014575003ALLIED IND.                                             21600
B0101410300663054721001MEMORIAL MEDICAL                                        21600
B4101400420814034216001CAVITE INC.                                             21600
