F4101400260000001673401ALESTANTE, ALYER MENDOZA                                 2501CKO
F0101406590662493176001OLPOC, MARIA CHRISTINA CARDINO                           2502CKO
F4101400550815042176001S.N.S. WHOLESALE TRADING CORP.                           2603CKO
