B0101400730111821100608**********                                               2005
A0101413310000005433585CONNIE BERNADETTE S. URBANO                              0501
A1001400480000006270420ANTICAMARA, JEFFREY MILLORIA                             0502
A1001400480000008501940BALANA JR., RICHARD ZAMAYLA DBU                         10501
A1001400480000008501940RBJ ENTERPRISES                                         20500
A0101401830000008395757PAGALILAWAN, LORETA MANIO                                0501
B0101401830141029955001SHELL EMPLOYEES MULTI-PURPOSE COOP. -                   11605
B0101401830141029955001STORE                                                   21600
B0101401830141066155001BUCE, ANTONIO C DBU BDMA MOTOR WORKS JT                  1601
A0101413600000005355197JULIO CESAR AGUILUZ                                      0501
A4101400260812362318005MAXIMO P. SARTE                                          0501
B0101400860000000794936**********                                               1601
A0101400860000007087154************                                             0502
A0101400860011695643001**********                                               0501
A0101411370000011680261RAMIREZ, LEONARD MARTINEZ                                0501
B0101411370000000017989POWEREE COMMERCIAL CORPORATION                           1601
A0101400150000003165142Marica L. Llenado                                        0502
A0101400150000009401467TAKAHASHI, SHINYA                                        0501
B0101400150061011038001114 VALERO CONDOMINIUM CORPORATION                       1601
B0101400150061011058001CHATHAM HOUSE CONDOMINIUM CORP.                          1605
B0101400150061034719001WATERWOOD RESOURCES CORPORATION                          1601
B0101400150000001708414SAN CARLOS CLEAN ENERGY INC.                             1602
A0101400150061315349113********                                                 0501
B0101400150061768692001VERBENA INTERNATIONAL HOLDINGS, INC                      1601
B0101400150061769160001CARRICK CORPORATION                                      1601
A0101400600000000470040ONG, I. OR CONCEPCION, EDWARD                           10501
A0101400600000000470040IVAN OR IWA EDILEEN                                     20500
A0101400600000002335775********                                                 0501
B0601400100081023056001ADDERLEY DATA ENCODING SERVICES                          1601
B0601400100081038110001QUANTA PAPER MARKETING INC.                              1602
A0601400100000010024889MANALOTO, ISRAEL CUNANAN DBU                            10503
A0601400100000010024889ICM PRINTSHOP                                           20500
A0601400360000004915431CHUNG, DUCK KYO                                          0501
B0601400360000012046347SEONG LIM CONSTRUCTION & DEVELOPMENT                    11603
B0601400360000012046347CORPORATION                                             21600
B0601400520000000398512PAGASA PHILIPPINES LENDING COMPANY, INC.                 1606
A0101400730000000412046TAN, PRAXEDES OR TAN, RAYMOUND                          10502
A0101400730000000412046OR TAN, MIKHAIL                                         20500
A0101400730111412858010LOLITA MANALO                                            0503
A0101400730111435544001MARGARITA B. BINAYAS                                     0501
A0101400730111576608001HERNANDEZ, ERIC                                          0502
A0101401960000002331733**********                                               0501
B0101401960121044032001EASTERN INTEGRATED SYSTEM & AUTOMATION                   1603
B0101413310000000039978LIBERTAD TRADING CORPORATION                             1601
B0101413310000001928823GEO MEDICAL CONTACT LENS INC.                            1602
B0101413310000001928856PRIME INTERNATIONAL CONTACT LENS                        11602
B0101413310000001928856INTERNATIONAL                                           21600
A0101401830000012966100DASALLA JR., FEDERICO ARELLANO                           0501
A0101401830141209187002PEEJAY JENNIFER G. LAO                                   0501
A7201400170000008740023ARANDING, LIZA MEDADO                                    0502
A5001400170000000045047ONG, LESTER UY OR                                       10505
A5001400170000000045047ONG, HAIDEE GO                                          20500
A5001400170000002288355LIM, LISA YU OR GO, JOJI LIM                             0501
A0101407270162203614002ROBERTO LEYBA                                            0501
A0101407270162542118001MARISSA DV. BAUTISTA OR                                 10501
A0101407270162542118001SANDY M. BAUTIST                                        20500
A0101407270162587936002WILFRIDO G. TIRONA                                       0501
A0101401090000005320336CUEVAS, GEORGE CHAVEZ                                    0501
A0101401090171343574001NOEL L. FLORES OR MA. VICTORIA                          10502
A0101401090171343574001E. MORTEL-FLORES                                        20500
B0301400660194044846088HLC CONSTRUCTION AND DEVELOPMENT CORP.                   1602
B0301400660000003406215SUNRISE VIEW BEACH RESORT                                1602
B0301400660000006755195LOPZCOM BUILDERS CORPORATION                             1603
A0301400790000005692117CUSILIT, AUDE CORTEZ OR                                 10502
A0301400790000005692117CUSILIT, ELAINE D.                                      20500
A0301400790000009806215RODRIGUEZ, SOCRATES SALDUA OR                           10501
A0301400790000009806215RODRIGUEZ, ROWENA M.                                    20500
A0301400790000002301273DANGCALAN, MARITES DALOGDOG                              0501
A0101401380000006542361CUNETA, MA. ANTONIA CARBALLO                             0505
A0101401380201684400001PERAS, GISELLE AMANTE                                    0502
A0101412500000002305088RAGOS, MARICOR SAN PEDRO                                10501
A0101412500000002305088OR RAGOS, BENJAMIN                                      20500
B0101412500000003408120GRAND SPACE FURNITURE & INTERIORS C                      1603
A0101413600000005355113NENA T. OLIVEROS OR                                     10502
A0101413600000005355113GEORGE OLIVEROS                                         20500
A1001400190000004487641SIAO, MICHAEL FRANKLIN NERI                              0501
B1001400190231044960001F4J VENTURES, INC.                                       1601
A1001400190231367169001CALINGASAN, ELLA TEJANO                                  0503
A1001400190231520766015CALUMBA, VICTOR ARQUITA                                  0501
A1001400190231520766204VELEZ, RUSTICA LABADAN                                   0501
A1001400480000005355842BUNTAG, RONA AQUINO OR BUNTAG,                          10501
A1001400480000005355842DANNY BOY                                               20500
A1301400760000001295449MEINARDO C. MARIN                                        0502
B1301400760000000050739CQM PETROLEUM GROUP, INC.                                1603
B1901400290261040049001GROWTH & INTELLECTUAL NOURISHMENT LEARN-                11602
B1901400290261040049001ING CENTER, INC.                                        21600
A0101401670271367363001SUACO, JESUS ANGELO ABAYA                                0501
A0101406620000003661410LIM, SHARON T. OR CHIKIAMCO,                            10501
A0101406620000003661410PAOLO GABRIEL V.                                        20500
B0101406620273016438003LAMCO INTERNATIONAL TRADING CO., INC.                    1601
B0101406620000009695152GVALUE TRADING CORP.                                     1603
A0101411110000012643839ULEP, LARRY AL AQUINO                                    0501
A0101411820000001356241HAO, KENNETH MONDIDO                                     0501
A0101400570000000749651LIBERTY B. MALUBAY                                       0501
A2601400270302026495001KIMBERLIN ENTERPRISES                                    0501
B6601400120314043068001NEW ECONOMY HARDWARE AND ELECTRICAL                     11602
B6601400120314043068001SUPPLY                                                  21600
A6601400120314617868088LUCERO, SINCLAIRE A. OR MIRA R.                          0505
A3401400280000002323484JENIFER G. BATAAN OR ALEX C.                            10501
A3401400280000002323484BATAAN                                                  20500
A3401400280000001723360RICHELLE V. ALMONGUERA                                   0501
B0101402350321011516001PSP MANUFACTURING CO., INC                               1605
B0101405650322043988001AUTRONIX SYSTEMS, INC.                                   1612
B0101405650000005381802AUTOCURE ECOSYSTEMS TECHNOLOGY CO.                       1606
A0101402510341199103001CORAZON D. HUANG                                         0503
A0101409050352049885002CABRERA, CARSWELL MENDOZA DBU T                          0504
A0201400760000009996098ORMOC, MARY JANE UYKINGTAN OR                           10502
A0201400760000009996098ABANO, CATALINA                                         20500
B02014007603740550530028990 MINDANAO HOUSING DEVELOPMENT CORP.                 11601
B0201400760374055053002(COLLECTING)                                            21600
A0201400890000001796201TIONG, CRESENCIO TAN                                     0501
A0101408370000002264057REYES, ALEXANDER JOSEPH LAI                             10505
A0101408370000002264057OR PALMERO, ELIZABETH                                   20500
A0101408370382206210001DR. NOEL MENOR CASTILLO                                  0503
A0101408370000002264080CHAVEZ, CHRISTINE LAOANG                                 0501
A0101415350000008010437KALINGKING, GRACITA ISABEL                              10501
A0101415350000008010437VILLARMIA                                               20500
B0101405490000008380672KIDSVILLE CREATIVE SYSTEMS, INC.                         1602
A0101408950000010507074TOBIAS, SHERYL SAPIN                                     0501
B0101408950396037899001NOLSEN CONSTRUCTION & TRADING                            1602
B0101408950000010411251ATELIER ALMARIO CORP.                                    1603
A0101408950396411684001GANI, SUKARNO KANAY                                      0502
A0101408950000003171304CONSTANTINO II, DANILO VILLANUE                          0501
A0101408950396643519001LIM, CATHERINE GRACE LEDESMA                            10503
A0101408950396643519001OR LIM, JONNEL LUGOD                                    20500
A0101409180000011749478ANNA CAUTON OR LUCAS CAUTON III                         10501
A0101409180000011749478OR ROSSELL MICLAT                                       20500
A0101409180000011955590REGINA ISABEL ABENALES                                   0501
A5501400120000002019158SUPERIO, MERLYN G. DBU DIAMOND                          10502
A5501400120000002019158MEMORIAL CARE SA                                        20500
A5501400120000000265850SUENO, ISMAEL JADE BERNARDO                              0503
A5501400120410650423001ANG, LITY OR ANG, LIJON                                 10501
A5501400120410650423001OR LUA, LILIAN                                          20500
A2401400180411019214001CROPLINK ENTERPRISES                                     0503
B2401400180411075773001CHROM TRANSPORT RENTALS                                  1602
A1201400150000011266481GATCHALIAN, EDERLYN MARIE DULNU                          0501
B1201400150421018141001TOYOTA BAGUIO CITY                                       1601
A1201400150000007556365QUILOP, CARLO CLYDE CO DBU LIKH                          0502
A5101400100000010371358DELA TORRE, MARY GRACE ESCUADRO                          0501
B0101403030441707375001**********                                               1602
A0101403320000006027389BALLETA, MARK ANTHONY DOMINGO                            0501
A0101403320000012960117JOHN EMIL FRANKLIN P. RAMOS                              0501
B0101403320471024815001GOLDRICH FOODS CORPORATION                               1603
B0101403320471068309001GAPAN LAND, INC.                                         1603
A3801400170000000497832RAQUEL D. SALAS OR                                      10501
A3801400170000000497832ENRIQUE R. SALAS                                        20500
A3801400170000005287903ATIENZA, LUCIA RAMOS                                     0501
A3801400170000012957872AUSTRIA, BETRENAND O, DBU NAUJA                          0501
A1401400110492029549002TRIPTORS DIAGNOSTIC CENTRE                               0504
A1401400110492531512001SALVANERA, ZIEGFREDO AGUILAN                             0501
A0701400260000001804553COLIS JR., BERMUDO FERNANDEZ                             0501
B0101403580511030319001FRANKLIN BAKER COMPANY OF THE                           11602
B0101403580511030319001PHILIPPINES, INC                                        21600
A0101403580511403658011MICHAEL GUARIN                                           0503
A0101405940000005568523CARLOS, NAYDHA                                           0502
A0101408530000002980512MENENDEZ, MA. PILAR URRA                                 0501
B0101408530516034772001INFOSTORAGE CORPORATION                                  1603
A0101408530516499738001**********                                               0501
A0101408530000001268424SOCORRO S. ALVIAR                                        0501
B0101403450521019763001**********                                               1605
B0101403450521024779002**********                                               1601
A0101403450000001769840*************                                            0501
A0101403450000001637943YAP, DY LING OR YU, LE KHENG                             0501
A0101403450521238219002**********                                               0501
A0101403450521519000001*********                                                0501
A0101410690000000570672DE GUZMAN, DARLITO GARCIA                               10501
A0101410690000000570672OR YAO CHEN                                             20500
A0101410690000000001736**********                                               0501
B0101404130601563008001I. PRUDENTIAL SHIPPING AGENCY SERVICES                  11605
B0101404130601563008001INC.                                                    21600
A0101407720000000245214LEORNA, IRENE CASUBUAN                                   0502
B0101412180603045634001CONFIANZA BREAST PROSTHESES AND                         11601
B0101412180603045634001ACCESSORIES                                             21600
B0101404260611034715001LAY BARE FRANCHISING CORPORATION                         1605
B0101404260000004781313EXTRA ORDINAIRE JANITORIAL AND MANP                      1601
A0101404260611366377001MAGSUMBOL, RISSA REYES                                   0501
A0101409890000006812780**********                                               0505
A0101409920000009055614DUQUE, SHIRLEY                                           0502
A0101407690652520766005GILNNA M. MALIGAT - DEALERS OF                          10501
A0101407690652520766005SHOECAT INC.                                            20500
A0101407690000002348843PABLITO G. BENEDICTO JR. OR                             10502
A0101407690000002348843JULIE V. BENEDICTO                                      20500
A0101407690652703320001NIDOY, IMELDA FERNANDO                                   0501
A0101407690652753466001RONALDO DELA CRUZ PEREZ OR                              10501
A0101407690652753466001VALERIE VILLANUEVA PEREZ                                20500
A0101411530000005198290**********                                               0502
B0101413990000012970202DPI MANAGEMENT SERVICES INC.                             1601
A0101414120000000875601CELSO OR CONSOLACION                                    10501
A0101414120000000875601MARTINEZ                                                20500
A0101406590662044117001D VISAGE INTERNATIONAL                                  10502
A0101406590662044117001CORPORATION                                             20500
A1301400210000000540732LUPENA, MA. LINDA GANZON DBU JI                          0502
A1301400340000001415747VICTORIANO, ANA MARIE ATAD                               0501
A1301400340683407216002GARCIA, JUDITH TEMBLIQUE                                 0501
A1301400500000000212995LUDETTE FATIMA T. CASTRO                                 0502
A1301400500000005963346MERCADO, MELANIE OR                                     10501
A1301400500000005963346MERCADO, LAWRENCE DOMINIC                               20500
A0101408240000008854402**********                                               0501
A0101408240711516971001ADOLPHO M. GUERZON                                       0503
B2801400100000007629287SELLSIA INTERNATIONAL INC.                               1602
A4101400260812641398001ARNELIO A. NAVARRO                                       0501
A4101400390000000379191WILMA J. JIMENEZ                                         0503
B4101400420000007305360VIC IMPERIAL APPLIANCE CORP.                             1601
B4101400420000006643387LEAD WITH INTEGRITY AND GOOD GOVERNANCE                 11605
B4101400420000006643387IN HELPING COMMU                                        21600
A0101412340000003349524PAUL B. VERGARA                                          0501
A0101412340000003719675VILLAVERDE, CHERRYLL FILIO                               0501
B0101404840851013980002VIC IMPERIAL APPLIANCE CORP.                             1601
B0101404840000001312281ANDALES, NARCISO DBU ANDALES CONCRETE                   11604
B0101404840000001312281PRODUCT                                                 21600
A0101404840851424429002MAQUINANA, JOEL MACABUHAY                                0502
A0101405070000010969790LAUREOLA, SUSAN DIZON                                    0503
B06014002300000060452907R FINANCE CORP.                                         1605
B0601400230891255071002ATTY. MARIA ELISSA VELEZ                                 1602
A0601400230000001687232CHRISTLE M.TUNGUL OR                                    10503
A0601400230000001687232LIONEL M. TUNGUL                                        20500
A0601400230000007402188CHUA, MARK ANTHONY GARCHITORENA                          0504
