B0101408950396821100608**********                                               2005
A0601400520000005001396ALCANTARA, JOEL LACANLALE                                0501
A0101401250021183070002CORLET, EVELYN LACERNA                                   0502
A0101401250021309334001NAIDA T. TALIMAN AND                                    10502
A0101401250021309334001S.MA.APOLONIA S. DUMANDAN                               20500
B5001400170000000169799ZORAYDA LENDING SERVICES CORPORATION                     1605
A0101402930000003710803CHOA, C DBU CJATC ENTERPRISES                            0501
A0101400860000002333455************                                             0505
A0101400860011420919001**********                                               0505
A0101400860011426931001**********                                               0501
A0101400860011675338001**********                                               0505
A0101401250021406782001ALCANTARA, MYLA VILLANUEVA                               0503
A0101400150000000253278GELANO, ANGELO RECTO                                     0501
A0101400150000009995153NICDAO, MELINDA DOLOSO                                   0502
B0101400150061047262001SUPER GT MOTOR SALES AND SERVICES INC.                   1603
A0101400150061226702001MA. ARLEEN P. SISCAR                                     0502
B0601400100081025784001QUANTA PAPER CORPORATION                                 1602
A0601400360083595938001CUNETA, CESAR JOSEPH GAMBOA                              0503
A0601400520000005943513BUCO, DONALD DELA PENA                                   0502
A0101413730000003715837************************                                 0502
B0101413730000000144681*******************                                      1601
A0101400730111196336001CHAN, ILDEFONSO M. OR                                   10502
A0101400730111196336001CHAN, VALORIE F.                                        20500
A0101401830141546547001REATAZA, NELIA MORABE                                    0503
A0101401830141581965001REALUBIT, ANGELA LOPEZ                                   0501
A0101407270162085922017SPIRO L. CLEMENTE                                        0502
B0101401090171197710001STUH - MEDICAL STAFF ASS'N. INC.                         1601
A0101401090171390481001GIGELYN B. RIVERA                                        0501
A0101401090171554738001HECTOR C. MARINAS                                        0501
A0301400530193686503001CORPUZ, GLENN A.                                         0502
A0301400530193704187088MERCED, TERESITA S. OR                                  10502
A0301400530193704187088MERCED, PETER V.                                        20500
A0301400950000002115231**********                                               0501
B0101401380201525090001HONGKONG MASTER COOK CORPORATION                         1605
A3101400450000000163506PEREZ, RAFAEL SALAMAT                                    0501
A3001400130000008915971JUBAC, CHARLES TATAD                                     0501
A1001400190000008743875OCERO, ALGENE ALEJAN                                     0502
A1001400190231520766112ALIBIO, NELYBETH TACBOBO                                 0501
A1001400190000000016468NERI, JENNY RACAZA                                       0501
A1001400190000002170769JUGAN, NOUE MALOLOT                                      0501
A1001400350233478374006IBANEZ, ELSA                                             0502
B1001400350233588824001***********************                                  1603
A0101401670000011364479BABILONIA, ACHILLES ALFONSO                              0502
A0101401670000008015381OBEN, MARIA MARGARITA SUACO                              0502
B0101406620273032637001OILINK INTERNATIONAL CORPORATION                         1602
B0101406620273044226003QUANTUM REINSURANCE BROKERS, INC.                        1605
A0101406620273215980002GLORIA CHOA CHUA                                         0501
B0101406620273545544001SUMMIT TEAM WELLNESS CORP.                               1601
B0101408660000005990429NAGA STEEL DEPOT INC.                                    1602
B0101408660000005990430NSD BUILDERS DEPOT INC.                                  1602
A2601400270000005301728MORA, CRISANTO MAGORA DBU AM                            10501
A2601400270000005301728MEATSHOP AND STORE                                      20500
A0801400160311468085001QUE, JUDITH DAN OR                                      10502
A0801400160311468085001QUE, BRIAN GERAR                                        20500
B2001400290315068487001STELLAR DAS UNITED CORPORATION                           1601
B2001400290315080808001RAMAS-UYPITCHING SONS, INC. (RUSI)                       1601
A3401400280000002323502ARRIOLA, ANA CECILIA ARELLANO                            0502
A0101402350321236824001CARMEN T. GO                                             0501
A0101405650000006893590BAYANI, AGNES ALMAZAR                                    0503
A0101405650322345025001GASGONIA, DONNA ZAPA                                     0501
A0101402510341045146001GOLDEN DIMSUM FOOD EXPRESS                               0502
A0101402510341661836001QUILON, ANNABEL DELA CRUZ                                0502
A0101402060000000445425LIMJUCO, DIANA GOROSPE                                   0501
A0101409050000006986705SARIBONG, JOANA KRISSLE CHAVEZ                          10502
A0101409050000006986705OR GUECO, JEAN P                                        20500
B0201400760374041914001OUROKU CORPORATION                                       1605
B0201400760374045286001C.K. BUILDERS CONST. & DEV'T. CORP.                      1605
A0201400920000002804504BARENG, NATHALYN C.                                      0503
A0201401020000008693672CORPUZ, DOREEN ANNE                                      0501
A0101402930013100000355SANTOS, MARIO CALONZO                                    0502
B0101408370382048163001HEPATOLOGY SOCIETY OF THE PHILS.INC                      1605
A0101408370382205133001DR. ROWENA P. RIVERA OR                                 10503
A0101408370382205133001REBECCA P. RIVERA                                       20500
A0101408370000000336183CUAJUNCO, EILEEN ALIKPALA                                0503
A0101415350000007877852PELAYO, JESCTONI TORRES                                  0502
A0101415350000007043763BESA, MARY JANE P. DBU YNEZ                             10502
A0101415350000007043763GADGET PAWNSHOP                                         20500
A0101402770000006812520FALLARIA, BENJO MARCO NATIVIDAD                          0502
A0101402770000007921157AMA, SONIA EVALLE OR                                    10506
A0101402770000007921157AMA, HENRY DUBOUZET                                     20500
B0101402770391009705002VICTORIA VALLEY CONDOMINIUM INTEGRATED                  11602
B0101402770391009705002CORPORATION                                             21600
A0101402770391013439001JIREH'S CAR PAINT SHOP                                   0502
B0101402770391034617003JEFF JAMES INCORPORATED                                  1605
B0101405490392332339001HUANG, WINFRED YU                                        1603
A0101405490000001092706LEVIE E. NAPIGKIT                                        0501
B0101408400394037910001HARBOURSQUARE FOOD INC.                                  1605
A0101408400394478374063LACSON, MARITES                                          0502
A0101409180000005326352BRONOLA, ROSALIE MARANO                                  0501
A0101409180000008122290VELASQUEZ, MARILYN AGUIRRE OR                           10502
A0101409180000008122290VELASQUEZ, RAISSA MIKAELA                               20500
A0101412210399094817014JOSE RODERICK F. FERNANDO                                0501
A0301400820000007372809CAI, LILI                                                0503
A5501400120000002019023PINGOY, ALBERT YUSAY                                     0504
A2401400180000000427996TUPAS, MARVIN REY PALLARCO OR                           10505
A2401400180000000427996TUPAS, BEATRIZ P                                        20500
A1201400150000001863276KLEMSON MEDICAL SUPPLY                                   0502
A0101403030000011532879XU, QUANHUA                                              0501
A0101412890000009833532***********                                              0502
B0101412890000007906092PAPAJEK FOOD CORPORATION                                 1602
B0101403320471068784001HUAFIN TRADING INTERNATIONAL CORP.                       1601
A0101412760000007822246JABSON, ARISTOTLE GERONIMO                               0502
B0501400170481013096001PANGASINAN BANK (A RURAL BANK), INC                      1601
B1901400160491282845002ARTHUR MALALUAN OR BIENVENIDO DELICA OR                 11601
B1901400160491282845002MARIVIC DAVID                                           21600
A1901400160491494343001RAINIER C UNTALAN OR                                    10503
A1901400160491494343001RELYN M UNTALAN                                         20500
A1601400170000000099029MYRA T. LAUSON                                           0501
B1601400170000000497092SUNWEST CONSTRUCTION AND DEVELOPMENT                    11615
B1601400170000000497092CORPORATION                                             21600
A0701400260000005303786RAMIREZ, ANELLE FORTUNO                                  0501
A0701400260000011543456ZARRAGA, MARIA CAROLYN CANUTO                           10501
A0701400260000011543456DBU ZARRAGA PHARMACY JT                                 20500
A0101407430503736499001CECILIA R. NALAUNAN                                      0501
B0101403580511015363083MEC - CT                                                 1610
A0101403580000005961920PINEDA, BRIAN DBU TWIST OF FATE                         10510
A0101403580000005961920TRADING                                                 20500
A0101408530000007981733MALLEN, EMY FLOR RIVAS                                   0501
B0101408530516033397001SPRINGER INTERNATIONAL, INC.                             1605
A0101411400000003311144KIM, JEONGHEE                                            0505
A0101411400517381317168*******                                                  0502
A0101411400517381317168*******                                                  0502
B0101403610531068604001BALDO, E DBU INTENSITY HARDWARE AND                     11601
B0101403610531068604001SUPPLY AND BALDO                                        21600
B0101403610531492950002******                                                   1610
A0101403610531662330001BERROYA, MARK LESTER AMOR  OR                           10502
A0101403610531662330001BERROYA, CONNIE                                         20500
A0101403610531671318001PAGCALIWAGAN, AMALIA PADUA                               0501
A0101403610531712013001LUMPAS, MARILYN DEL ROSARIO                              0502
A2201400250561383886001WILFREDO D. TOLDANES                                    10501
A2201400250561383886001OR ROWENA O. TOLDANES                                   20500
A0101404130000002121282LOUISITA O. ARISTORENAS OR                              10502
A0101404130000002121282PRECIOUS O. ARIS                                        20500
A0101407720000011552344TALLO, RANDY ARINTOC                                     0501
A0101407720602382055001VILLANUEVA, JOYCELYN A.                                  0501
A0101412180000001293323SANTIAGO, DOMINADOR REYES                                0502
A0101404260000000156892RENDOQUE, CARMELITA                                     10502
A0101404260000000156892DBU NATURES BOUN                                        20500
B0101409890649033780001WATCH TOWER BIBLE AND TRACT SOCIETY OF                  11605
B0101409890649033780001THE PHILS. INC                                          21600
A0101407690652034151001D' ABET JUNK SHOP                                        0502
A0101407690000005198132BERMASE, ELIZABETH TAN                                   0501
A0101411530654096299001TOLA, ELISA CUEVAS                                       0502
A0101413440000003298162SALA, CHRISTINE CASTILLON                                0501
A0101413440000003298180BORJA, KARL FREDERICK SANTOS                             0501
A0101413570000011372591JONATHANY R. BALTAZAR                                    0501
A0101413570000007373813FABELLA, ANA LYN PAGKALINAWAN                            0502
A0101413570000005435007MANIO, MELANI MAPALAD                                    0501
A0101410300000000191940TUASON, MORRIS LEO LEANO                                 0501
A0101410300000000592187HIZON LOQUIAS, VALERIE                                  10501
A0101410300000000592187JEAN CAGUIAT                                            20500
A1301400210000003105033GOPELA, RALPH ERNEST MATANGUIHA                          0501
A1301400210682555728001MARINA M. ROQUE                                          0505
A1301400340000006402455CABIGAS, RENATO EXALTACION                               0501
A1301400340683676666001FALCON, MIGUEL NITO OR FALCON,                          10501
A1301400340683676666001MICHAEL CEAZAR MANGALILI                                20500
A1301400340683678684001BAGOAN, MAOKI IBRAHIM                                    0501
B1301400500000005963404PAGASA PHILIPPINES LENDING COMPANY INC.                  1606
A0101408240000008160143ROWENA P. GONZALES                                       0502
A0101408240000002331248PADILLA, JONATHAN EMMANUEL BALU                          0502
A4101400420814478374171MICHAEL G. RIBOT                                         0501
A4101400420814520766033DELA CRUZ, MARILOU M.                                    0502
A4101400420814520766061ESTILLERO, SUSANA O.                                     0501
A4101400420000002084540PELIMIANO, EDNA                                          0502
A4101400420814559384001RIBOT, NORMA GAJE                                        0501
A0101412340000011084501MARIA JUANA LEAGUE                                       0501
A0101412340000004360321CELINE M. PALOMA                                         0502
A0101412340000011425099RIO C. OCAMPO                                            0501
A0101404840000008871376FELICIANO, JOSELITO RIVERA                               0503
B0101404840000011533081IFE ELEVATORS PHILIPPINES, INC.                          1605
A0101404840851046725013MARY JANE A. DE GUIA                                     0501
A0101404840000000232880PANLILIO, DBU PATRICE LIGHTINGS                          0501
A0101404840851520766155JOSEFINA VERGARA                                         0501
A0101406750852307853002GUERRERO, JOCELYN E.                                     0503
A0101405070861197966001GRACITA RESTERIO LOPEZ GARDON                            0501
B0601400230000000029672BATTERY DEPOT OF CENTRAL LUZON INC.                      1610
A0601400230000000452782GOZUN, R-JAY RAMOS                                      10510
A0601400230000000452782OR GOZUN, MYRNA                                         20500
A0601400230000001687232CHRISTLE M.TUNGUL OR                                    10501
A0601400230000001687232LIONEL M. TUNGUL                                        20500
