F0101407300395370361001CHUA, MA. CRISTINA AGANON                                2505CKO
F0101408400394031095003LIVINGWATER SYSTEM, INC.                                 2620CKO
F0101408400394506185003PRADES, BELYNE BANGCOT                                   2505CKO
F3201400190000001493078*********                                                2503CKO
