F0101401120131367396002BARBARA ANNE C. MIGALLOS                                 2603CKO
F0101401090171201151001DR. MINERVA CALIMAG                                      2510CKO
F3201400190000001493045DR. ROMEO P. PIRA DBU PIRA CLINIC &                     12603CKO
F3201400190000001493045HOSPITAL                                                22600CKO
F0101408240711349444001ELENITA A. RAYMUNDO                                      2501CKO
F4101400390813030057001ACE-MED INC.                                             2610CKR
