A2801400100000000004720REYES, MYRA DBU MRC DENTAL CLIN                          0501
A0101411790000000039358RANGAS, ADILYN VILLARMIA                                 0501
A0301400530000000065832PERIAS, FE                                               0501
A3401400280000000156654ROEVELLO P CHU OR ZHEENA D CHU                           0502
A0301400660000000194643MANILA, MARIA ZENAIDA ARFAPO                             0501
A0101402060000000445481SAYAROT, BERNARD LOU ENDAYA                              0501
A0101401250000000460542PAPALID, JOEBIE LIBRE                                    0501
A0101408530000000594292MELANIE MARGARET P. MIGUEL                               0501
A0101403320000000735773ROSALIE FAUSTINO                                         0502
A0101412500000000739679FRANCISCO, JOSEPH BRYAN CRUZ                             0501
A3401400280000000784516MUYCO, MYLA B DBU MBM CONSTRUCT                          0502
A0101400150000000807061MEDIANA, MELDEA PADAONG                                  0501
A0101400310000000851376CALALAY, ADAM ROSALES                                    0501
A0101402930000000859781SY, ANDY                                                 0501
A4101400550000000900361BALBOA, MYLA SARIGUMBA                                   0502
A0701400260000001069723LIZARDO, CHRISTOPHER REYES                               0501
A1901400320000001107737JESSIE PAEZ CANTOS                                       0501
A1301400760000001295518REBECCA R. CENA                                          0502
A0101400600000001335579********                                                 0501
A0101411530000001393700CHOA, JOHNSON GAURINO                                    0501
A0101405940000001534349GENUINO, PAULI ANTOINETTE P.                             0501
A0101407270000001597180FELISILDA, CHARLIE LADRES                                0501
A0601400230000001687118**********                                               0502
A0601400520000001706861EA, TITA ESTABILLO                                       0501
A1701400230000001786638PASCUA, MINERVA SINANG                                   0501
A0701400260000001804600VILUFRA AGRI SOLUTIONS                                   0501
A0101400440000002034720RONALD T. DELOS SANTOS                                   0501
A1301400500000002064006***********                                              0503
A0101401250000002131817PERICO, JOSEPH MARIA AGUSTIN                             0501
A2801400100000002253458DATU, FERDINAND BULAONG                                  0501
A2601400270000002257110SHEENA MARIE MAMERTA V. CULHI                            0501
A0101401380000002297436LATEO, MAURITO BONG BONG ROSA                            0502
A4101400420000002345280ACOL, FELOMINA ADOAN                                     0501
A0101412340000003341277DANIEL A. BONILLA                                        0501
A0101400310000003541940COKIENG, KATHLEEN CHENG                                  0501
A0101400860011406314001*************                                            0502
A0101400860011685244001BANDIOLA, SIDNEY MORALES                                 0501
A0101401700041189061001RIZAL SMILEY TAN OR YA YUN TAN                           0503
A0101400150061055752062ELLEN D. FAJARDO                                         0501
A0101400150061055752082NESTOR R. TATEL                                          0501
A0101400150061226678001PAMELA A. CASIN                                          0501
A0101400150061688779002RUIZ, JENNIFER SIBUG                                     0501
A0601400100081684157001REGULACION, JEFFREY ALIM                                 0503
A0101410560110478374013CYNTHIA EVANGELISTA MENDOZA                              0501
A0101400730111375290001TOLENTINO, NERREN VIRAY                                  0506
A0101400440161039572034MARILOU F. TIRADO                                        0501
A0101400440161520766159CHONA Y. ELUMBRA                                         0502
A0101407270162478374001JOCELYN S. ESTRADA                                       0501
A0101401090171194904001DR. NERISSA SANTOS                                       0501
A0301400530193356168188MILA A. BRIONES                                          0501
A0301400660194734141001ALCEBAR, JONATHAN PANTINOPLE                             0502
A0101400310211017809002JAZMED ENTERPRISE                                        0503
A0101400310211077875001GONZALES, REYNALDO PEREZ                                 0501
A0101400310211408142001CHOACHUY, REYMONT UY                                     0503
A0101400310211478374020GANDIA, VHIRGIE                                          0503
A0101400310211478374087PAMBID, ALICIA                                           0501
A0101400310211552076001HERRERA, BOBBY LEONARDO                                  0501
A1001400190231379927001IRISH P LA VINA                                          0505
A1301400470252497161001LUCILA L. DELA CRUZ                                      0502
A1901400290261298552066DOLORES SARMIENTO MANGUIAT                               0501
A1901400290261380656001DAISY NOCOM CHAN                                         0501
A0101400570281361144001ERIC G. IDIESCA                                          0501
A6601400120314646693001LOPEZ, LUZ PADILLA                                       0504
A3401400280318478374002PIONELO, LENIDIE DEVELOS                                 0501
A0101402480331055933001***                                                      0501
A0101402480331520766023*********                                                0501
A0101402930381298552006MAGDALENA F. CALANO                                      0502
A0101402770391476396001DEANNE A. SARMIENTO                                      0503
A0101408950396398206001FRANCISCO VICENTE F. LOPEZ                               0502
A2401400180411288023001MANANGQUIL, MA. SOLEDAD BETITA                           0510
A2401400180411498553001***************                                          0505
A2401400180411508606168*********                                                0502
A2401400180411637974001MANANGQUIL, JOHN RAY BETITA  JT                          0510
A0101406330472215905001MARCELO OR ERLINDA DELAS ARMAS                           0503
A0101406330472296884001JAYLEE TRADING                                           0502
A0101407430503478374009HAIDEE F. LIM                                            0501
A0101406880513573270001TURALBA JR., ANTONIO VALERA                              0502
A0101408530516571877109GIAN CHRISTINE BILLOSO                                   0503
A0101411790518345722001**** ****** ***                                          0502
A0101407720602386725001COLOMA, FAY AGARPAO                                      0502
A0101407720602397743001NAZARETH, STEPHEN MAGSINO                                0502
A0101407720602549119001SANTOS, EDGAR JOLLY PEREZ                                0502
A0101407720602672591001LU, JOSEPHINE YAP                                        0502
A1301400340683537588001CRUZ, ABRAHAM YNCIONG                                    0504
A2801400100712401674002DEL ROSARIO, DANILO LARACAS                              0501
A4101400260812478374017PRISCILA R. CABAMALAN                                    0501
A4101400420814478374044BERATIO, MARITES M.                                      0501
A4101400420814520766036LEOPISITA A. AGUAS                                       0501
A0101404840851046725004NELIA MANINGULA                                          0501
A0101404840851046725009MONINA G SAN JUAN                                        0501
A0101404840851520766154CORAZON ONIA                                             0501
A0101406750852742816001BERZAMINA, EMMAN CIANO                                   0501
A0301400530000000065898BARTOLOME, MICHAEL, SOLIDGROUND                         10501
A0101413280000000312643CARLOS R. ATAYDE OR                                     10501
A1601400170000000421161GEORGIA SOFIA GIMENEZ-LUISTRO                           10505
A0101411820000000477214ENAMARIE LIZZETTE C.                                    10501
A0101408240000000522001OROBIA, JOSE RAMON INUMERABLE                           10501
A0101413440000000570303GUARINA, R. DBU GEOMATICA                               10501
A0101413440000000702178DIVINAGRACIA, GIL E. OR CARMELA                         10501
A2801400230000001734721BASUBAS, L DBU AMBRAND ENGINEER                         10501
A0301400790000002301308AQUINO, ALLAN ESPINA OR                                 10502
A1901400290000002337704EVARISTO TAN DY OR EVANGELINA                           10503
A0601400100081040294001MOIKAI INDUSTRIAL SUPPLIES AND                          10501
A0101400440161194113001MA. CYNTHIA S. CAJUCOM OR                               10501
A0101400440161443113001ARVIN JON A. FU OR                                      10501
A0101400440161568714001JOHN  CALIMLIM OR                                       10502
A0101400310211157817001INTERINO, LOLITA OR MARIA                               10502
A1301400470252617799001MARIFE P. SORIANO OR MANUEL                             10502
A0101401670271186230001LETICIA R. MALOLES OR                                   10502
A0101408790383694524001CHANYUNGCO, JOSE R. OR                                  10503
A0501400170481252358004ARACELI A. MATIAS OR                                    10502
A1401400110492023002001THESAURUS DRUGSTORE & GENERAL                           10505
A0101408240711046744001NAGTALON, B DBU SINCERAE                                10501
A2801400100712019694001LUNTIAN LANDSCAPING AND GENERAL                         10502
A0301400530000000065898SECURITY AGENCY                                         20500
A0101413280000000312643CARMEN M. ATAYDE                                        20500
A1601400170000000421161OR LUISITO B. LUISTRO                                   20500
A0101411820000000477214MEDENCELES- VILLALON                                    20500
A0101408240000000522001OR OROBIA, ANNA                                         20500
A0101413440000000570303ENGINEERING                                             20500
A0101413440000000702178G. OR TIMOTHY JOHN G.                                   20500
A2801400230000001734721SRVS & TRDNG JT                                         20500
A0301400790000002301308AQUINO, DENNIS ESPINA                                   20500
A1901400290000002337704MACALINAO DY                                            20500
A0601400100081040294001AUTOMATION SERVI                                        20500
A0101400440161194113001VIRGINIA CAJUCOM                                        20500
A0101400440161443113001DERYL BANGAYAN F                                        20500
A0101400440161568714001ABIGAIL CALIMLIM                                        20500
A0101400310211157817001CRISTINA INTERIN                                        20500
A1301400470252617799001S. SORIANO JR.                                          20500
A0101401670271186230001TERESITA M. OLIVEROS                                    20500
A0101408790383694524001CHANYUNGCO, CONCHITA T.                                 20500
A0501400170481252358004ROBERT CONRAD A.                                        20500
A1401400110492023002001MERCHANDISE                                             20500
A0101408240711046744001BAKESHOP                                                20500
A2801400100712019694001SERVICES                                                20500
B0101411400000000001689SOSAJB PROPERTY MANAGEMENT CORP.                         1610
B5501400120000000046900RENAISSANCE CHAPELS                                      1602
B3001400130000000067218LIGHT ME UP CORPORATION                                  1602
B2401400180000000073750OCEAN DELI PACKING CORP.                                 1610
B0101408790000000599839THE MEGACLINIC INC.                                      1605
B0101410560000000757251MERCADO GENERAL HOSPITAL, INC.                           1601
B0101413020000001175520TLM QUICK LENDING PHILIPPINES INC                        1601
B0601400520000001706970RECENO, R DBU RECENO MARKETING AND                       1601
B0101408790000002659090BON APPETEA FRANCHISING COMPANY INC                      1603
B0101400600071469137001**********                                               1601
B0601400100081034790001SHINMEI CREDIT AND LOANS CORP.                           1601
B0601400100081251751005TAN, MARIANO GO                                          1601
B0301400660194047064088CVM PETRON SERVICE STATION                               1605
B0301400660194469662088**********                                               1602
B0301400660194469662168*****                                                    1605
B0301400790195055985001PHILSUMMIT EQUITIES INC                                  1601
B0101400310211040892001MAN AUTOMOTIVE CONCESSIONAIRES CORP.                     1630
B0101400310211241258002BONAMY, ARTHUR CHUA                                      1601
B3101400160221031027001ALLIED DOCTORS FOOD RESOURCES, INC.                      1605
B0101408660274046031001INTERNATIONAL SPECIALTY RETAILERS, INC.                  1603
B0101408660274046032001INTERNATIONAL SPECIALTY WEAR, INC.                       1603
B0101408790383039290001AUTO SOURCES INC.                                        1605
B0101403320471008857001A.M. PACLEB ENTERPRISES, INC.                            1602
B0101403320471206926002LOLITA B COLINA                                          1601
B0101406330472040053001KUS OFFICE SYSTEM MFG. CORP.                             1603
B0501400170481018109002****                                                     1602
B0501400170481025398002****                                                     1601
B1901400160491012898001BNHS - TEMCO                                             1601
B0101403450521034408001**********                                               1602
B0101404260611406159001VIVO, RODRIGO OR RODRIGO PEDRO                           1601
B0101406750852023612001LAS PINAS CITY MEDICAL CENTER, INC.                      1610
B0601400520000000398647TELESIGHT COMPUTER AND SURVEILLANCE                     11602
B4101400550000000900003BINAKAYAN HOSPITAL AND MEDICAL                          11605
B0101406590662039421001PRINCE DAVID CONDOMINIUM ASSOCIATION,                   11602
B2801400100712014887001PRUDENTIAL GUARANTEE AND                                11603
B01014067508520371840011ST LINE OFFICE FURNITURES & INTERIORS/                 11605
B0601400520000000398647SYSTEM                                                  21600
B4101400550000000900003CENTER, INC.                                            21600
B0101406590662039421001INC.                                                    21600
B2801400100712014887001ASSURANCE INC.                                          21600
B0101406750852037184001ANA MAE B. YAPE                                         21600
