B0101404260611821100608**********                                               2002
A1101400120000003022402OMEGA, CRYSTAL GALE SMITH                                0502
A1101400120000001920634GUIRON, TERESA GALLARON                                  0501
A1101400120313478374116MASIN, NANCY KELISTE                                     0501
A4101400420814520766138SAN PEDRO, ANA LIZA                                      0501
A4101400420814572265006JOCELYN M. TWANO                                         0502
A1101400120000000992332EJERCITO, CARLA D. OR                                   10502
A1101400120000000992332EJERCITO, RONALD                                        20500
B2401400180000000073663CENTURY PACIFIC FOOD, INC.                               1610
A4101400420814520766136VALLEJO, ELVIE                                           0501
B0101400860011392490001**********                                               1605
A0101400860011435648001**********                                               0505
A0101400860011547280001**********                                               0501
A0101400860011568203001**********                                               0503
A0101401250000005313433DELOS REYES, CHRISTOPHER NICK                           10503
A0101401250000005313433OR DELOS REYES, SHIRLEY                                 20500
A0101400150000006004273TORRES, OLIVIA DELA CRUZ                                 0501
A0101400150000007572332PORQUIA, LEAN                                            0501
A0101400150061396548001ALIMURUNG, BENJAMIN N. OR                               10502
A0101400150061396548001ALIMURUNG, ALICE                                        20500
A0101400600000000007616ANGEL T. CONCEPCION JR. OR                              10503
A0101400600000000007616MAJA MARIE C. CO                                        20500
B0101400600000001335637**********                                               1602
A0101400600071373478001**********                                               0505
B0101405810072034176001**********                                               1605
A0101405810072235559002****************                                         0502
A0101405810072377351002VILLAS, MARILOU RAMOS                                    0501
B0601400100081034790001SHINMEI CREDIT AND LOANS CORP.                           1601
A0601400100081251939002ELIZARDO OR WILMA MARTINEZ                               0501
A0601400100081478374009JOWELL MIRANDA                                           0501
A0601400360083649312001KIM, KANG WOOK                                           0502
A0101414090000003314810CAMACHO, MIKHAIL DUNGO                                   0501
A0101410850000005161320JIMENEZ, ANNABELLE GONGE                                 0501
A0101407270000007525302SABERON, VANESSA GRACE ANIBADO                           0501
B0101407270162021675001TACTICAL PROMOTIONS, INC.                                1610
B0101407270162043415001MY HAPPY FARMER MACHINERY CORPORATION                    1601
A0101407270162062086001ALVARADO DBU AALVARADO-MARKET                           10501
A0101407270162062086001COMMUNICATORS MA                                        20500
A0101407270162333154002MANUEL U. AGUSTINES                                      0505
A0101407270000001596887HANILOU H. FONTANILLA                                    0501
A0101401090000001618811KRYZLER BEVERAGES STATION                                0502
A0101401090171198373001MARIVIC G. USITA                                         0501
B0301400530193035726168TAGUM PIONEER FOODS CORP. - 2                            1605
A3101400450223418716001GARCIA, JESUSA CORAZON PLAZA                             0502
A3101400740000006735802MANLUNAS, PAUL WILLIAM ANACAY                            0501
B1001400190231020614001LIM, CHARLES EDWARD W.                                   1601
A0101401670271405285001CHUNG, JAE WOO GOYMA                                     0503
A0101406460272381558001********                                                 0501
A0101412470000002295827KO, JANET                                                0501
A0101400570281410216001AGCAOILI, MA. REBECCA RAMIREZ                            0502
A0801400160311267104001SAN JOSE, BERMUNDO E.                                    0501
A1101400120000001920598SOLAJES, PRIMIER SIEGFRIED BATO                          0502
B1101400120000000653161PERPETUAL HELP MULTI-PURPOSE COOPERATIVE                 1605
A1101400120000006186343JABINES, DYANN JAIME DBU LA                             10501
A1101400120000006186343BOTICA DYANN                                            20500
B0101402350321035857001MOBICAR TRADING CORPORATION                              1602
B0101402350000000046051ALLSTUFF TRADERS INC.                                    1603
A0101402350321180119001SHERENA O. PARUCHA OR                                   10501
A0101402350321180119001VIRGILIO B. PARUCHA                                     20500
A0101402060351009359002JIANDANI, SURESH G. &/OR                                10501
A0101402060351009359002JIANDANI, KAVITA                                        20500
A0101402060351039707001GJD CARGO FREIGHT FORWARDING                            10502
A0101402060351039707001CO.                                                     20500
A0201400920000005168834VILLARIN, FELICIANA FERNANDEZ                            0501
B0201400920375042734001A. LIM DEVELOPMENT INC.                                  1601
B0201400920000000047863KOWEN LOGISTICS COMPANY                                  1602
A0201400890376046540001CHC MACHINE SHOP                                         0502
B0201400890376062988001SPRAYWELD PHIL. INC.                                     1602
B0201401020000003031181GRAND FIREFLY FIREWORKS, INC.                            1601
A0101402930000003710790TE, WILSON ARRIOLA OR                                   10501
A0101402930000003710790TE, IMMANUEL ARRIOLA                                    20500
A0101402930381478374015DIMARANAN, ARNOLD ABEJERO                                0501
A0101402930381546261001THERESE NARCISA Q. FAJARDO                               0502
A0101408790000002326121MANAHAN, CHRISTINE SHARON SIOSO                          0501
A0101408790000004983393OLIVIA D. FRANCISCO                                      0502
A0101402770000003488033AMBROSE, EDWIN KARL ABAT                                 0501
B0101405490000005196545ZC KINGS MANPOWER AND JANITORIAL                        11605
B0101405490000005196545SERVICES COOP.                                          21600
B0101405490392575171001ANIMED LABORATORIES, INC.                                1602
A0101408400394027889001TINA S. BERIN FLOWER SHOP                                0505
A0101409210000004736072TABIB, YEHIEL                                            0501
A0101409210000006599133MAGUSIB, ARVEY GABRIEL                                   0501
A0101409210000007762709AGRIPA, MYRA MANALO                                      0502
A0101412210399094817012BAYLON, JOSE BAYANI DICHOSA                              0502
B0301400820000005196750POWER ASSET SERVICES CREDIT CORP.                        1604
A2401400180000000073583BARBON DENTAL CLINIC                                     0501
A12014001504212536240016UANZON, ALICE D. OR                                    10506
A1201400150421253624001GUANZON, DELFINO                                        20500
B0101403290461821200608**********                                               2001
A0101412890000005913242BELVIS, GOODY LACSON                                     0505
B0101406330000000432922JEWELS STAINLESS FABRICATION CENTER                      1603
A0101406330472215905001MARCELO OR ERLINDA DELAS ARMAS                           0503
A0101406330472478374042VIRGINIA B. RANADA                                       0501
A0101406330000001235023SADDI, MALLORY MENDEZ                                    0501
B1901400320489062995002CLEVERGOLD CREDIT CORPORATION                            1605
B3801400170490821100608**********                                               2001
B0101407430000004491732PORT STAR SHIPPING & MARINE SERVICES INC                 1605
B0101405940512033561001PRECOS, INC.                                             1601
A0101406880000002291681BRIONES, KEVIN RUIZ                                      0501
A0101406880513565496013ABDON, ANTONELLA TURALBA                                 0502
A0101408110000005169371CACAL JR., VICTORIO ACUPAN OR                           10501
A0101408110000005169371SANTOS-CACAL, FRANCES C.                                20500
B0101408110515017722001STORES SPECIALISTS, INC.                                 1615
A0101408530516488690001**********                                               0502
A0101411400000002657798CLUTTON, CHARMAINE CORNELIA CHA                          0501
A0101403450000007072660DY TAN, ANNE TAN                                         0501
A0101403450521238140001**********                                               0502
A0101403610531304005001ANCHORIZ, NERRIZA OR                                    10505
A0101403610531304005001ANCHORIZ, FRANCISCO                                     20500
B0101407720602030155003DEPARTMENT OF DERMATOLOGY MAKATI MEDICAL                11601
B0101407720602030155003CENTER FOUNDATIO                                        21600
A0101407720602581738001DUCUSIN, MA. ANTONINA SUGUITAN                           0502
A0101404260611319174001MARK JOSEPH SISON PLAN                                   0501
A0101404260611460410001RUADO, ANALYN GERMEDIA                                   0503
A0101413570000005435070JAMAL SULTAN SALIC                                       0501
A0101413570000005435070JAMAL SULTAN SALIC                                       0501
A0101413570000005867321SANTIAGO, ALMIRA LUPISAN DBU SP                          0502
A0101413990000002273941CARAMANZANA, EDGAR MABORANG                              0502
A0101413990000001406502MAGRARE, FERDINAND PIOQUINTO                             0501
A0101413990000006768616ALA, ROY B. DBU RBA TRUCKING                            10504
A0101413990000006768616SERVICES                                                20500
A0101406590000005305106DE BORJA, ANNE MARIE GERALDINE                           0503
A0101406590662455518001ESTRADA, RAFAEL G.                                      10505
A0101406590662455518001OR REUBEN ENRIQUE                                       20500
A0101410300000000919568FAUSTO, DANTE FERNANDEZ                                  0502
A0101408240711379848001GINA MARIE R. MEDINA                                     0501
A2801400100712251595001VALDEZ, CORAZON REYES                                    0502
A2801400230713792777001LOPEZ, JEAN EBANCULLA                                    0502
B4101400260000006043909J.E.M. 88 CONSTRUCTION DEVELOPMENT CORP.                 1601
A4101400390813442190001ASMA, RODELYN MERIADO OR                                10505
A4101400390813442190001ASMA, ROLDAN PAR                                        20500
A4101400390813470914001AZIS, ARMELA MERIADO OR HADJI                           10510
A4101400390813470914001AZIS JR., SAILAN                                        20500
A4101400420000007305440CANSINO, CHERRYLYNN MIRANDA DBU                          0502
A4101400550815637014001AMANTE, ROGELIO DE LORETO                                0503
A4101400550815713341001MICHELLE R. PALILEO                                      0501
A0101412340000003340398SHAYNE T. ABIERA                                         0501
A0101412340000006047218CATHERINE ANNE REYES                                     0501
A0101412340000001017816MARANAN, JENNIFER GONZALES                               0501
A0101412340000002900370MARINEL O. OBIDO                                         0501
A0101412340000002900370MARINEL O. OBIDO                                         0502
A0101404840851520766092VIOLETA G BERMAS                                         0504
A0101405070861380698001REYES SR., RENATO SISCAR                                 0501
B0601400230891029282001L5 & SONS FINANCING CORP.                                1610
