A0101403580000000922689INTAC, JENNIFER INSEQUEL                                 0502
A0101403580000013226818ISHIHARA, TAKASHI .                                      0502
B0101403580000000214651MEC - ANGONO PC                                          1605
B0101403580511020337002SIX N ENTERPRISES CORPORATION                            1602
B0101403580511023517001HDG TALIPAPA, INC.                                       1601
B0101403580511024890001KANLAON DEVELOPMENT CORPORATION                          1601
B0101403580511027603003K.S.T. PROPERTIES, INC.                                  1605
B0101403580511029847001BAGONG BARRIO HYPERMART & PROPERTIES                    11610
B0101403580511029847001CORPORATION                                             21600
B0101403580511046343001POINTWEST INNOVATIONS CORPORATION                        1601
B0101403580511046344001POINTWEST TECHNOLOGIES CORPORATION                       1601
B0101403580000004540607GEOSTANDARDS SAFETY INTERNATIONAL C                      1601
B0101403580000007864364ST. ANN STRIP MALL OF CAMARIN SILAY                      1601
A0101403580000010177141CO, EDWARD RYAN  DBU MASTER MAR                          0501
A0101403580511150799002KAREN MACASAET                                           0510
A0101403580000000509368TIU, KARLENE THERESE SOLDIVILLO                          0503
A0101403580511242579001RITA M. ESTELLA                                          0504
A0101403580511380317001RHODORA G. LAGAMSON                                      0502
A0101403580511403658005PACIFICO CASTANEDA                                       0503
A0101403580511403658006EMMANUEL P. BONOAN                                       0501
A0101403580511434858001ADOR C. MEJIA                                            0501
