A0101403580000007265296CASTRO, FERNANDO CASTRO                                  0502
B0101403580511005445021MILLENNIUM BUSINESS SERVICE INC FAO NZMP                11601
B0101403580511005445021(SEA) PTE LTD                                           21600
B0101403580511017534001SAN LORENZO VILLAGE ASSOCIATION                          1605
B0101403580000000214713OFFICE ESSENTIALS SYSTEMS                               11605
B0101403580000000214713FURNITURE INC.                                          21600
