A0101403580000007265376GANIR, JESY GRACE BALANTAC                               0501
B0101403580511016689001ALASKA MILK CORPORATION                                  1602
A0101403580000000016082SWEET BELLA DESSERTS                                     0508
A0101403580511151537004RUFIA DOROTHY VERA OR                                   10501
A0101403580511151537004JOSE LUIS VERA                                          20500
