F0101406750000005608442W 9 GLOBAL MICROSOLUTIONS INC.                           2602CK1
F0101413600000002822722GPRS - UNIFIED PRODUCTS AND                             12601CK1
F0101413600000002822722SERVICES INC.                                           22600CK1
F0101408240711381753001ALCOBER, MELINDA OR ALCOBER,                            12502CKO
F0101408240711381753001RUBEN OR LEJANO, REGINA                                 22500CKO
