A0101406750000004641656PAMARAN, GINA GALANG                                     0501
B3101400870225821100608**********                                               2003
A0101406880513392342002RAMIREZ, MA. ELENA MANGAMPO                              0501
A3001400130000001271669OLACO, BELINDA LACORTE                                   0501
A0101402510000007714761TENDERO, MARIA PAMELA GATBONTON                          0501
B0101412890470821100608**********                                               2002
B0101406750000005608420METROWIDE HOMEBUILDERS, INC.                             1630
B3101400870225060281002TADA, C DBU NORTH VALLEY ENGINEERING                    11601
B3101400870225060281002SERVICES                                                21600
A3001400130000001261283LIM, EDGAR ALLAN DIAZ                                    0502
A0101400570000003891550ABELLA, JENEFE BIRAO                                     0503
A2001400290000000924670UYPITCHING, CECILIA JUSTO                                0501
B5501400120410041925008EASY PAY FINANCE CORPORATION                             1610
A0101412890000005944910FLORES, MARIA  AISSA ONG                                 0504
B0101400860011392490001**********                                               1605
A0101401250021178951001OCAMPO, FLORENCIO SANDEJAS                               0502
A0101400150000000525251TAGALAG, MICHAEL AGAPITO OR                             10502
A0101400150000000525251TAGALAG, ROCHELLE                                       20500
A0101400150000000760805FELIPE, JOY HERNANDEZ                                    0501
A0101400150000003164805JENNY ISABEL S. LABIANO                                  0501
A0101400150000003164827ERWIN L. LASTIMOSO                                       0501
B0101400150061042782001GALAHAD REALTY CORPORATION                               1602
A0101400150000004090362**********                                               0501
A0101400150061430140001**********                                               0501
A0101400600000001335591********                                                 0502
A0601400100081306882002DUGAY, EDGARDO GARCIA                                    0501
A0101410850000003101968MATANGUIHAN, EDWIN CUEVAS                                0501
A0101410560000005280655LEONIDA CLAVA ARCILLA                                    0506
B0101400730111021297002CRESLEIGH FOODS CORPORATION                              1603
A0101413310000005433352ANGCO, JULIE ANN MOJICA OR                              10501
A0101413310000005433352ANGCO, KELVIN ANG                                       20500
B7201400170000003773499BATBATAN, ARNOLD J. OR BATBATAN,                        11601
B7201400170000003773499NEMESIA M.                                              21600
A5001400170000002288275CUENCA, C DBU CUENC'S ENTERPRIS                          0501
B0101400440161528688001POWERPHASES CONSTRUCTION SERVICES INC.                   1604
A0101407270162029071001M+E SALVALOSA & ASSOCIATES                               0501
A0101407270162163292001ANICETO P. GO                                           10502
A0101407270162163292001OR MILDRED GO                                           20500
A0101401090171062304001TOMASIAN FASTFOOD CORP.                                  0501
A0301400530000003573380CALAWIGAN, AICY VILLAGONZA JT                            0502
A0301400530193047804088**********                                               0502
A0301400530000003573302*****                                                    0502
A0301400530193556546168ZHOU, LANZHU                                             0502
A0301400530000002318390YAO, MARY KRIS TAN OR                                   10504
A0301400530000002318390YAO, CAIQI                                              20500
A0301400660000000194643MANILA, MARIA ZENAIDA ARFAPO                             0501
A0301400790000003969553REMPERAS, JUVY YURAG                                     0501
A0101401380000001412593BATION, MARRY JOY ACAYEN                                 0501
A0101401380201171279001TSAI, ROBERT                                             0501
A0101401380201417927001ROSAROSO, ERNANI URBINA                                  0501
A0101401380201728152001DEL ROSARIO, ADONIS OR                                  10503
A0101401380201728152001DEL ROSARIO, GIZELLE ROSE                               20500
A0101410720000006239767DUPAYA, JACQUELINE ESPINOSA                              0503
A0101410720653046803001BCLOA BUSINESS DATA RESEARCH                            10502
A0101410720653046803001SERVICES                                                20500
A0101413600000005354974ALVIN B. SAHAGUN                                         0503
A3001400130000001271312SHAPE & WELL NUTRITIONAL                                10501
A3001400130000001271312PRODUCTS                                                20500
A1001400190000002170781RAMIREZ, RHESA CABAGO                                    0501
A1301400760000002346129JIMMY C. CENA                                            0503
A1301400760000005379411VON RYAN J. MARQUEZ                                      0504
B0101401670271028082002DDT KONSTRACT, INC.                                      1630
B0101406460272036367001GRACE GOSPEL CHURCH, INC.                                1602
B0101406620273045167001VENTURANZA, HOSTALERO AND COMPANY, CPA'S                 1601
A0101406620273306796019IRENE D, TAYLO                                           0501
A0101406620273306796021KARLO C. GONZALES                                        0502
A0101406620273306796034UNSON, RENAN D.                                          0502
B0101411110276046445088INFINITY DYNAMIC SYSTEMS AND SOLUTIONS                  11602
B0101411110276046445088INC.                                                    21600
B0101412470000002338923YANGCO TEXTILE CENTER INC.                               1601
A0101400570000000749673MICHAEL B. SANTOS                                        0501
A0101400570281332030002DR. SIMEON D. TANZO A.K.A                               10501
A0101400570281332030002DR. SAMMY TANZO                                         20500
A0101400570281507815001LAXAMANA, LINA CORTEZ                                    0503
A0501400200000001081065DELOS REYES JR., PEDRO BULOSAN                           0502
A0101402510000000049329UNICARE DENTAL, MEDICAL TRADING                         10501
A0101402510000000049329CORPORATION                                             20500
A0101402510341381018001DANICA FRANCIA SANCHEZ CAUDAL                            0501
B0101409050352009377001ESLA LAND DEVELOPERS, INC.                               1603
A0101409050352449617001STEPHEN PUNZALAN CUASAY                                  0501
A0201400920000002250146YEO, JOAN DANIEL                                         0503
A0201400890376062385001GOLDEN DIGITAL ADVERTISING                               0501
A0201401020000000056113LUCHAVEZ, R DBU YULIAN                                  10503
A0201401020000000056113MERCHANDISE                                             20500
A0101411660000002309382PONCE, IRWIN MARLAND LUZURIAGA                           0505
A0101402770391211323001RONQUILLO, ROLANDO D. OR                                10503
A0101402770391211323001RONQUILLO, AMELITA A.                                   20500
A0101402770391213549001VILLARETE, RAMON C. OR                                  10502
A0101402770391213549001VILLARETE, MARILOU P.                                   20500
A0101402770391476396001DEANNE A. SARMIENTO                                      0505
A0101402770391752292003JUANITA OR TOMAS OR BENJAMIN N.                         10501
A0101402770391752292003VICTORIA                                                20500
A0101402770391752292004JUANITA OR TOMAS OR BENJAMIN N.                         10501
A0101402770391752292004VICTORIA                                                20500
A0101402770391752292005JUANITA OR TOMAS OR BENJAMIN N.                         10501
A0101402770391752292005VICTORIA                                                20500
A0101402770391752292008JUANITA OR BENJAMIN OR TOMAS                            10501
A0101402770391752292008VICTORIA                                                20500
A0101408400000003844917RAMOS, DIANE MAE ALAMA                                   0501
A0101409210000002802677ZABALA, RONALDO HIPONA                                   0501
A1201400150421044182001VMN MARKETING & GENERAL MERCHAN                         10505
A1201400150421044182001DISING                                                  20500
A0101403030441239399001**********                                               0502
A0101403030441239686001**********                                               0502
B0101403030441239806001JETCO MOTOR SALES                                        1604
A0101403030441241050001**********                                               0503
B0101412890000000125380CHRIST'S COMMISSION FOUNDATION, INC                      1602
B0101412890000003727866SUMMIT CONSTRUCTION AND DEVELOPMENT                      1602
A0101403320000001803383REGINALDO S. SAN JUAN                                    0502
A0101403320000001803098VALENZONA, RAUL PAL                                      0501
A0101406330000004349684CRUZ, VIVIEN PAGALILAUAN                                 0503
A0101406330472217737001ARR MARKETING & GENERAL MDSE.                            0501
A0101406330472442952001EDGAR C. PERIABRAS                                       0502
A0101406330472635480001NUCUM, MA. CRISTINA DELA CRUZ                           10503
A0101406330472635480001OR NUCUM, JAY T.                                        20500
B3801400170000000018788MINDORO PPA EMPLOYEES MULTI-PURPOSE                     11603
B3801400170000000018788COOPERATIVE                                             21600
B1401400110492042503001LUCENA ROOFWARE TRADING & SERVICES                       1602
A0101406880513565496021AZAS, MARVIN VILLASENOR                                  0501
A0101411400517620328001ASCALON, EDMUNDO VILLAHERMOSA                            0501
A0101412050000000367908**************                                           0502
A0101412050000000367931ANDRES, RONELIA ECALNER                                  0501
B0101403450521011657001UPTOWN INDUSTRIAL SALES, INC.                            1610
B0101403450521011955001KINGSWOOD TRADING CO., INC.                              1603
B0101403450521012010001********                                                 1603
A0101403450521239777001**********                                               0501
A0101403610531042737001ASIA PACIFIC ENVIRONMENTAL MAIN                         10501
A0101403610531042737001SERVICES INC.                                           20500
A0101404000000002258471BADIOLA, MAURO BABILONIA OR                             10503
A0101404000000002258471BADIOLA, ROSA STA. CLARA                                20500
B0101404000551573003001NI CAPITAL CORPORATION                                   1603
A0101404000551780881001NAVASERO, HECTOR THOMAS ARNALDO                          0501
A2201400250561342534003ROWENA B. FERRER                                        10501
A2201400250561342534003OR JENNIFER L. FERRER                                   20500
A0101410690000000710621MALLARI JR., RO DBU ROMA PRINT                           0501
B0101404130000002121493ADVATECH EQUIPMENT, INC.                                 1602
A0101404130000000321440REYES, LEONILA CANTOS                                    0501
A0101404130601741836001HIRATA, AKIKO                                            0501
A0101407720602397470001DR. ELIZABETH IFURUNG-GONZALES                           0501
B0101409890000006812746ASEA INDUSTRIAL CORPORATION                              1605
A0101413990000002273963AVILA, ANNABELLE CARRERAS                                0503
A0101413990000001947128MARS STONE SUPPLY                                        0501
A0101406590662354457001DOMINGO M. DE GUZMAN JR.                                 0503
A1301400210000002909135BERNARDO JR., PASCUAL QUETUA                             0502
A1301400210682246447001LEA DELA CRUZ MANAYSAY                                   0505
A1301400340683542735002BIUNAS, REMEDIOS GREGORIO                                0502
A1301400340683708672001CANO, ERLINDA PEREZ                                      0502
A1301400500000005963368********                                                 0501
A1301400500000003070139SUGAR DADDY MARKETING                                    0502
B0101408240711025397005KINGSMEN CORPORATION                                     1605
A0101408240000003955340SIMPAO, MELISSA OCHANGCO                                 0501
A2801400230000000937548VITUG, QUIRINO DBU VI-JETT                              10502
A2801400230000000937548ACCOUNTING OFFICE                                       20500
A0101412340000003340514ROSELYN B. AGULTO                                        0501
A0101404840851046725012MEDILYN GUINGAB                                          0502
B0101406750852026504002NORTH EASTERN TRADING & SERVICE                          1603
A0101406750000000358070RUBIO, MARI DBU IDEC INTERIOR                           10501
A0101406750000000358070DESIGN                                                  20500
B0101405070861043407001EAST RICHWOOD SAFE COMPANY, INC.                         1605
A0101405070861478374004WINIEFRENDA O. PILANDE                                   0503
B0601400230891039268001GOLDIE PLUS LENDERS, INC.                                1605
A0601400230000002649961GARBES OLALIA TRADING CORPORATI                          0501
B0601400230891647141001PATERNO &/OR MA EVANGELINE LUCIANO OR                   11605
B0601400230891647141001JOANNE K PALO                                           21600
