B1101400120000006186985PERPETUAL HELP MULTI-PURPOSE COOPERATIVE                11606
B1101400120000006186985ABUYOG                                                  21600
A0101406750852695452001EVANGELISTA, JOSEFINA MALLARI                            0501
A1101400120000006186478BOLECHE, MERLINE BANDALA                                 0502
B0101406750000007097205PEECHEY & POSH NAIL SPA                                  1601
A0101406750852478374004IMELDA TAGUNA                                            0501
A3001400130000008915971JUBAC, CHARLES TATAD                                     0501
B1101400120000000652442GICABAO, KATHLEEN JOY NG OR                             11603
B1101400120000000652442GICABAO, BONGKOK                                        21600
A1101400120000001547337ALDIANO, FLORDELUNA LATO                                 0502
A1101400120000003197200SINGH, SAWINDER KAUR                                     0502
A1101400120313478374066FUNCION, LANIE E.                                        0502
B1101400120313543446001TY CHAN HAI,SANTIAGO OR TY,LISA OR TY,                  11603
B1101400120313543446001SHANE LAWRENCE                                          21600
A0201400890000006961897CAARE, JOSIAH BACARRO                                    0501
A0201400890376065692001MONTECARLO TRADING                                       0501
A0101414120000003190929FORDAN, MERIAM ELECSION                                  0501
A0101414120000000649116STEADFAST BUILDERS, THE                                  0502
A0101401250000000441052ONGSUECO, SYLVIA K.                                      0501
A0101401250000008460020HOSSAIN, ANWAR REPOSO                                    0502
B0101400150061010985001PHILIPPINE SUGAR RESEARCH INSTITUTE                     11605
B0101400150061010985001FOUNDATION, INC.                                        21600
A0101400150061228362001MA. SHIELAH S. ASONG                                     0503
A0101400150000002394830INTING, THERESA LEILA ALUNAN                             0501
A0101400150061390534002DY, ANDREW CHUA                                          0501
A0101400150061564610128VICENTE N. BORJAL JR.,                                   0501
B0101413280000009368410LIVINGWEALTH CO.                                         1601
A0101414090000001652433JANGSIK YUN                                              0502
A0101410850000009034571VELONZA, VICTORIO CAMBA                                  0501
B0101400730000008233436NORTHSTAR TRAINING & CONSULTANCY IN                      1601
A0101401960121239340001***********                                              0504
A5001400170000000213750RATUNIL, JULIETA OR RATUNIL,                            10502
A5001400170000000213750BYRON, OR RATUNIL, CARMEL                               20500
A5001400170000000214020ARNOCO, MARIETA DIAMANTE                                 0504
B5001400170000000169880WEE, VERNA L. AND PONCE, RECILMA N. AND                 11602
B5001400170000000169880RAMOS, CATHERINE                                        21600
B0101400440000003766956KS PRIME FINANCIAL CORP.                                 1603
A0101400440161525001049MYRA M. MANDO                                            0501
B0101407270000009520474CHUA, SHERYL MALICAD AND BELISARIO,                     11601
B0101407270000009520474CRISTOPHER                                              21600
A0101401090000001611347DELOS REYES, JOSEPHINE LORENZO                           0502
B0101401090000000772481RED IMAGES TIMELESS PHOTOGRAPHY INC.                     1605
A0101401090171195709001ANGELITA S. SARILE                                       0502
A0101401090171196067001JOSE YAMAMOTO OR                                        10510
A0101401090171196067001MILAGROS YAMAMOT                                        20500
B0101401090171390398002CORPUZ, MARY JHO-ANNE T. AND NG, MARIE                  11601
B0101401090171390398002CICELIE C.                                              21600
A0101401090171791856001CONCEPCION SHERYL DEE T.                                10502
A0101401090171791856001QUERIJERO                                               20500
B0301400530000001409438GENSAN LCL TRADING, INC.                                 1603
A0301400660000000194854TANIO, DANILO CALUNSAG                                   0505
A0301400660000005691881CHIU, PETER PAUL VINCENT CUE                             0501
A0101410720000007843323CUNANAN, JANE CATO                                       0502
A0101410720000000053238RONALDO C. MANUEL OR                                    10501
A0101410720000000053238IRENE A. MANUEL                                         20500
A0101412500000005300452BENTULAN, RICO FERNANDEZ                                 0502
B0101412500000000041749UNITED DOCTORS MEDICAL CENTER, INC.                      1620
A3101400160000004952632PUMA, MA REINA CRISTINA NUGUIT                           0502
A3101400450000005960472BADONG, LORETO LACRETE OR                               10503
A3101400450000005960472BADONG, PRESCILLA MAULEON                               20500
B3001400130000000006840RP MAQUILING AND COMPANY CPAS                            1601
A3001400130230478374026SONOT, RODERICK AMAHOY                                   0501
A1001400350000000017774VENADAS, MARC LOUIE L. OR                               10505
A1001400350000000017774VENADAS, ANGELIC                                        20500
A1001400350000000017876OMLAN, NILE FRANCIS II                                   0501
A1301400470252428148002DELIA P. GONZALES OR                                    10504
A1301400470252428148002BERNARDINO R. GONZALES                                  20500
B1301400760000000050871ENCORE LEASING & FINANCE CORP.                           1601
B0101401670000004588536******                                                   1602
B0101401670271477779001CONTEXT INNOVATORS & RESOURCES INTERNATI                11601
B0101401670271477779001ONAL, INC.                                              21600
A0101406460000002359931QUIZAN, RODA CANLAS                                      0502
A0101400570000000165688********                                                 0501
A2601400270000002257161RACHEL A. GALOLO                                         0501
A2601400270000002312196GERALD D. GANNOD OR                                     10502
A2601400270000002312196MARY JANE N. GANNOD                                     20500
B2601400270302045063001ISABELA UNITED DOCTORS MEDICAL                          11620
B2601400270302045063001CENTER, INC.                                            21600
B0801400160000001289943KEYMOTORS INCORPORATED                                   1601
A1101400120000003595988VILLA, ELVIE DACLIZON                                    0501
B1101400120000000652868TACLOBAN ACME HARDWARE CO., INC.                         1605
A6601400120000006154725PAILAGAO, MERCY BACONGUIS DBU                           10505
A6601400120000006154725MERJEL GENERAL MERCHANDIS                               20500
A2001400290000004444440PO, LESLEY UY                                            0510
A2001400290315041547001CARTRONIX LOGISTIC & TRANSPORT                          10510
A2001400290315041547001CORPORATION                                             20500
B0101402350321006710001DASMA CITYWIDE GEN MDSG INC.                             1604
A0101402350000003080399BALUTAN, ROSALIE TALISAYSAY                              0501
B0201400760374249471002COMMONWEALTH INSURANCE COMPANY                          11603
B0201400760374249471002-OPERATING FUND                                         21600
B0201400760000000222762UY, JOHN CHIU OR JOHN JEFFERSON                          1603
B0201400760000000222762UY, JOHN CHIU OR JOHN JEFFERSON                          1603
A0201400920375524523001MIEL, PRINCESITA OR MIEL, ALEX                           0502
A0101402930010120000051PUNZALAN, VIRGINIA P.                                    0501
B0101402930381021740001YOSHINOYA CENTURY PACIFIC INC.                           1605
B0101402930381040393001RESOURCE ONE CORPORATION                                 1601
B0101402930381047467001FLUID SOLUTIONS, INC.                                    1601
A0101408370382208100001DR. ARTHUR M. TORRES                                     0502
A0101408790000009593224KATTY FAYE F. REGASPI                                    0501
B0101408790383710805001NOVEL FINANCE COMPANY INCORPORATED                       1610
A0101402770391211531001**********                                               0504
A0101408950000003171268DONATO, CATHERINE CANONIZADO                             0502
A0101408950000007459001NUGUID, ROMEO SALUD OR                                  10510
A0101408950000007459001NUGUID, ARNEL SALUD                                     20500
B0101409210000002783384ELEVATE PHILIPPINES INC.                                 1602
A0101412210000003962312KRISTINE H. GUTIERREZ                                    0501
A0301400820000006542812MILAN, JANICE CALIP                                      0501
A5501400120410691845008INOCENCIO, ELLAIN MARGARET M.                            0503
B2401400180411035164001MOMMY GINA TUNA RESOURCES (MGTR), INC.                   1605
A2401400180411333023088BOHOLST, PERCY SISTOSO                                   0505
B1201400150000007556143GOLDRICH CONSTRUCTION AND TRADING                        1610
A1201400150421397888001GO, BRIAN SY OR                                         10501
A1201400150421397888001GO, CYNDY SY                                            20500
A1201400150421533137001RULLODA, ELMER BORROMEO                                  0508
A0901400220000000887987MUESCO, MAYBELLENE JOY ANDOG                             0502
A0101403030441380539001**********                                               0502
A0101403320000001646926CLIDORO, GERDIE BARCELON                                 0501
A0101403320000001646993RIOLITA E. FLORES                                        0501
B0101403320471065702001HYDROMEDICS, CO. LTD.                                    1601
A0101403320471523354001**********                                               0501
B1401400110492028287001MARYHILL COLLEGE, INCORPORATION                          1605
A1601400170000001837863RENE N. ESPLANA OR                                      10502
A1601400170000001837863GLORYDEL B. ALAPAD                                      20500
A0701400260000000041005KALAW, REYNALDO ORTEGA                                   0501
A0101407430000001028897JOVITO G. FERNANDEZ                                      0501
A0101403580000007265354AGAAB, REX ANTONINO PUSPUS                               0501
A0101405940512152920001***********                                              0501
A0101406880000009505573MENDIOLA, EVELINA CASTILLO                               0501
A0101406880513506613001GIMENA, ALELI CARISSA DE LEON                            0501
A0101408110000001823821LORENZO, DOMINADOR MELCHOR DBU                          10502
A0101408110000001823821DMLORENZO BUILDERS                                      20500
A0101411790000009724143BARRETE MORALES, MA. DINAH CERE                          0501
A0101411790000009724234BAYLON, CARLOS MIGUEL FADULLON                           0501
A0101411790000009724303BUENO, ANGIE ROSE ETCHON                                 0501
A0101411790000009724358VENUS, JONATHAN GRINO                                    0501
A0101411790000009724381UY, RUBY DOMETITA                                        0501
A0101411790000009724438RIVERA, WILLIAM SAPALASAN                                0501
A0101411790000009724472PANALIGAN, GLADY DIMAANDAL                               0501
A0101411790000009724518ONA, MARY EDLEEN AQUINO                                  0501
A0101411790000009724552MENDOZA, CARLO VICTORINO ALMARI                          0501
A0101411790000009724570MACATANGAY, MARRIANE CRUZ                                0501
A0101411790000009724609VILLARUEL, GLISELDA LIGSAY                               0501
A0101411790000009724632JIMENEZ, MAYFLOR VERIDIANO                               0501
A0101411790000009724661GARCES, DONABEL SAMSON                                   0501
A0101411790000009724694TRINIDAD, JONAHLYN ELEAZAR                               0501
A0101411790000009724723DE LEON, DENNIS SANTOS                                   0501
A0101411790000009724763CAPATI, ANTHONY ARUELO                                   0501
A0101411790000009724796CANIYAS, RHENA BETH MATEO                                0501
B0101411790000004808106SPECTRUMED INC.                                          1602
A0101411790518055815051MONGADO, RAMBO COMO                                      0501
A0101403610531478374002GRAPE, IMELDA HANDOG                                     0501
A0101403610531508580001ARZOLA, MATHEW MERVIN M. OR                             10501
A0101403610531508580001ARZOLA, MARIA LANLET C.                                 20500
A0101404000551735313001DE LUNA, PATRICK JOHN LUPISAN                            0501
A2201400250561585887001GINA P. CORPUZ                                           0501
A0101410690000000061834IQBAL, BERNADETTE G.                                     0502
A0101407720000000713080BURGOS, ANA MARIE MADAMBA                                0505
A0101407720602283353001ERWIN HERNANDEZ OR                                      10501
A0101407720602283353001AGNES HERNANDEZ                                         20500
A0101407720602332279002CAYCO, ANTONIO V. OR                                    10501
A0101407720602332279002CAYCO, MARGARITA                                        20500
A0101409920650416463001TANCIO, SALLY PANGA                                      0501
A0101407690000006242235MANALILI, PEARL JOY MAGLALANG                            0502
B0101407690000003767879MEGARITZ FINANCING CORPORATION                           1602
A0101407690652400173001LIM, MARIA CONCHITA GINETE                               0502
A0101411530654089400001**********                                               0501
B0101413440000002691592ZABAT, KHELVIN MIRANDA AND                              11602
B0101413440000002691592ZABAT, MICHELLE                                         21600
A0101414120000000649070EVANGELISTA, HAZEL ROQUE                                 0501
B1301400340683033124001NICO-LANCE BUILDERS SUPPLY                               1602
B1301400340683473678001******                                                   1605
A1301400340683766769001BASCARA, ARNEL GONZALES                                  0501
A0101408240000000521771CASTILLO, JUAN MIGUEL DOMINGO                           10502
A0101408240000000521771JT                                                      20500
A4101400390000006302483BAGUINDA, FARIDAH MUSTAPHA DBU                          10501
A4101400390000006302483FARD'S FASHION S                                        20500
B4101400420814038765001EG&G CONSTRUCTION SUPPLY                                 1603
A4101400420814249590001NORLITO P. DIMAPILIS OR                                 10501
A4101400420814249590001VERNA D. DIMAPILIS                                      20500
A4101400420000006643467CACA, MARIETA C                                          0501
A4101400420000002084540PELIMIANO, EDNA                                          0501
A0101404840851520766099EDLYN BRUNO                                              0501
A0101406750000004641656PAMARAN, GINA GALANG                                     0501
A0101406750852226042001CAMACHO, ROGELIO TAMBIS                                  0501
A0101405070861023470001ASIANA KITCHEN EQUIPMENT                                10502
A0101405070861023470001SPECIALIST                                              20500
A0601400230000003015550SAMIA, RETINA PANGILINAN                                 0501
A0601400230891454850001WILLIAM J. NACIONAL                                      0503
