F0101410850000000005621TURNSAT INTERNATIONAL LOGISTICS                         12610CKR
F0101410850000000005621CORP.                                                   22600CKR
F0101401830141372736001JUDY ISABEL S. JAVIER                                    2505CKO
F0301400110191059510002ZOOFARI GROUP INC.                                       2602CKR
F0101402770391030168001XYTRIX SYSTEMS CORPORATION                               2605CKR
F1201400150421017589003CJH HOTEL CORPORATION                                    2605CKR
F4101400260812389694001MELCHOR RODEROS OR                                      12501CKO
F4101400260812389694001OLIVIA RODEROS                                          22500CKO
F0101417710000003747706A.G.SANTILLAN & SONS, INC.                               2602CK1
