B0101407270162821100608**********                                               2005
B0801400160311821100608**********                                               2005
A0101403610000013964242SEDAYA, MARY ANNE PAMILAR                                0501
A0101403610000014051213PUYAWAN, FERNANDO V DBU                                 10501
A0101403610000014051213FVP PAINTING ENTERPRISES                                20500
B0101403610531059133001TRI-MOON GRAPHIC ARTS COMPANY                            1601
A0101410300000002375722REYES, INIGO RAFAEL ALCUAZ                               0501
A0101410300000004361608REYES, MA CARMEN ALCUAZ                                  0502
A0101401960121237943001**********                                               0501
A3001400130000002063532MAGATAO, FRETCHER DACERA                                 0501
A3001400130000010813500DUNAN, RONIELO NACAYTUNA                                 0503
B0101403450521030931001***********                                              1604
B0101403450000001638064************                                             1601
B0101403610000017330648MMG CORPORATION                                          1601
B0101403610000016482116EXPEDISE TRADING COMPANY, INC.                           1601
B0101403610000016534402ASIA WORLD TRANSPORT PHILS. CO., INC.                    1601
B0101403610000017201251ASIA WORLD TRANSPORT PHILS. CO., INC.                    1601
B0101403610000017196751MMG FORWARDING CORP.                                     1601
B0101403610000017198940MMG FORWARDING CORP.                                     1601
B0101403610000017330604MMG RESOURCES, INC.                                      1601
B0101403610000017445104MONGCOPA, JEREMIAH JUDE AMOR DBU SOLASTA                11601
B0101403610000017445104TRAVEL AND TOURS                                        21600
A0101403610531219472002NAVOA JR., FILOMENO CORPUZ OR                           10501
A0101403610531219472002NAVOA, NANETTE P                                        20500
A0101400860011496074002**********                                               0502
A0101400860000001005514**************                                           0505
A0101400860011706509001***************                                          0505
A0101411370000016176200CALABRO, LENY ORTEGA                                     0501
A0101400150000004090533SALCEDO JR., ALFONSO DE LEON OR                         10501
A0101400150000004090533SALCEDO, CLARABELLE L.                                  20500
A0101400150000009401143ORTIZ, LIZA LU                                           0501
A0101400150000013758791LEDESMA IV, JULIO ARENAS                                 0503
A0101400150000016800390BADONG, DEMETRIA CADACIO                                 0501
B0101400150061000544001CITIBANK - N.A.                                          1602
B0101400150061010838003INFORMATICS COMPUTER INSTITUTE, INC                      1605
B0101400150061015841002ENZIMA INTERNATIONAL, INC.                               1602
B0101400150061039643001J.M.PIZARRAS AND ASSOCIATES LAW OFFICE                   1601
B0101400150000000633390AVIZE INC.                                               1603
A0101400150061370228118ZENAIDA L. TAN                                           0501
A0101400150061396548001ALIMURUNG, BENJAMIN N. OR                               10501
A0101400150061396548001ALIMURUNG, ALICE                                        20500
A0101400150000000053067GARCIA, GARRIE LEO REY                                   0501
A0601400100081023131001ADYR TRADING                                             0510
B0601400100081047597001C.A.B. HARDWARE                                          1601
B0601400360000015474281FILHIGH BUILDERS TRADING AND GENERAL                    11602
B0601400360000015474281SERVICES CORP.                                          21600
A0101414090000003314843VILLANUEVA, KENNETH BAYLON OR                           10502
A0101414090000003314843VILLANUEVA, JO-AN                                       20500
B0101414090000007344512EL INTEGRADO HOLDINGS PHILIPPINES INC                    1610
A0101401960121238737001*********                                                0503
B0101401830000016450543SANTIAGO, JONATHAN DBU 386 ENTERPRISE OR                11601
B0101401830000016450543SUMABAT, JASPER                                         21600
B7201400170000007185671**********                                               1602
A7201400170000007185562CARUMBA, MARGIE SEPADA OR                               10502
A7201400170000007185562CARUMBA, DANIECITO PASCO                                20500
A0101400440161591337001JENESSEY A. RANCES OR                                   10502
A0101400440161591337001JESSIE O. RANCES                                        20500
A0101407270000009529502EQUIPAJE, ARON GINO ISIP                                 0502
A0101407270000014063964NAYNES, VICTOR GAYTANO DBU ADST                          0504
A0101407270162523576001YEKATERINA A. AGUILON                                    0502
B0101407270162821200608**********                                               2001
A0101401090171196101002GREGORIO OR MARISSA DIZON                                0501
A0101401090171322573001DR. PORSHIA COMES-NATIVIDAD                              0501
A0101401090171348052001MARY ANN VENTURINA BULANADI                              0501
A0301400950000010701092AGUILAR, MA. DELTA SAN ANTONIO                           0501
A0101401380000000792018********                                                 0501
A3101400450000017354913ESPINA, JOANNE ESCAMILLAS                                0501
A3101400450223491849001JAO, AUGUSTO RAZEL DOMINO                                0501
A3101400870000000074844ROA, ROSEMARIE JUNDOS OR ROA,                           10502
A3101400870000000074844JAMES ROQUE GARC                                        20500
A3001400130000009103662SERRANO, GENELIN                                         0501
A3001400130230478374026SONOT, RODERICK AMAHOY                                   0501
A1001400350000012928177FAJARDO, HERMINIA BUGTONG                                0501
A1001400350000000017165MEN DBU A&L MARKETING SOLUTIONS                          0501
A1001400350233478374001JUNIO, ROGELIA A.                                        0501
A1001400350233528399003KO, JOSE NELSON AND                                     10502
A1001400350233528399003KO, CHARMAINE                                           20500
A1001400480000011810238LAO, CHERRY ESTOQUE                                      0501
A1001400480000014023433RANIDO, LORNA ZAMBRANO                                   0501
B1001400480000017502853GLAINIER INDUSTRIAL CORPORATION                          1601
A1301400470000003270471MARIA CELINA DJ. SIMON                                   0502
A1301400470000013689859ZAIDA C. TORRES                                         10501
A1301400470000013689859DBU ZAIXEN PHARMA                                       20500
A1301400760000005990383WOODY JOHN G. ESPERA                                     0501
A1901400290261326348001GLENDA AGUILA MANGUIAT                                   0501
B0101401670271047774001LTC REAL ESTATE CORPORATION                              1601
B0101406620000009695389LINKWISE TECHNOLOGY PHILIPPINES INC                      1602
A0101411110000014003491ANQUILO, ANNABELLE SUMAYOP                               0501
A0101411820000016514880DE ASAS, REYNA CERILLO                                   0502
A0501400200000014231022MURILLO,LEONORA DBU JPG MARKETI                         10503
A0501400200000014231022NG OR PENDORO, JERRY G.                                 20500
A0501400200000017498805CARACAS,L DBU ST. GABRIELLE                             10501
A0501400200000017498805COLLEGE OF ARTS AND TECH                                20500
A2601400270000016748455DOMINIQUE M. SALAS DBU DM SALAS                         10503
A2601400270000016748455GENERAL MERCHANDISE                                     20500
B0801400160311268198001JOHNEL REALTY DEVELOPMENT CORP.                          1601
A1101400120313478374103ENVERZO, NARISSA LEONORA G.                              0501
B6601400120314045385001SANVIC SUPERMART INCORPORATED                            1610
A2001400290000015748431GUTIB, MARCIAL BASAY                                     0501
A0101405650000015273722REBANCOS, JENNIFER QUIPIT                                0502
B0101405650322006303001GIL'S TRADING                                            1603
A0101405650000006893323FAUSTINO, BUENAVEN OR FAUSTINO,                         10501
A0101405650000006893323MARIE CELINE                                            20500
A0101405650322551484001CHUNG, PIEN LUNG                                         0501
B0101402060351009368002RESINS INCORPORATED                                      1602
B0101402060000010846661NUTECH SOFTWARE DEVELOPMENT INC.                         1602
A0101409050000017492383CASTILLO, RUDOLPH REGINALDE                              0501
A0101409050000016101021SOTAYCO, MELODY FLORA                                    0501
B0201400760374033207001W.T. CONSTRUCTION, INC.                                  1606
A0101402930000014436085JUMDAIN, KHAIMAR ISMAEL                                  0501
A0101402930381283088002JOSEPH VINCENT A. ALBA OR                               10502
A0101402930381283088002AGNES A. ALARILL                                        20500
A0101408370000010833371*********                                                0501
A0101408790000000600024ALFORTE, LOLITA ORTEGA OR                               10501
A0101408790000000600024ALFORTE, RONEL D                                        20500
A0101408790000014453426FUJIWARA, TAKAO NA                                       0501
A0101411660000015085993ATIENZA, JOSE CARLO VELASQUEZ                            0501
A0101415350000006213069ALFONSO, PIA ZAIDA GUARING                               0501
A0101415350000009103764MERIALES, EVELYNDA LLAGAS OR                            10501
A0101415350000009103764MERIALES, TOMAS JR                                      20500
B0101402770391040524001JTC CRUZ CONSTRUCTION CO., INC.                          1604
A0101402770391404096002PANLILIO, MYLENE BAGON                                   0502
A0101402770391743730001UMALI, EDUARDO BASCONCILLO                               0501
A0101405490392170537002LORNA V. TUGADE                                          0502
A0101408400000014396513ZABAL, ROY                                               0501
A0101408400000017495560FLORES, DANDREB PABELONIA OR                            10501
A0101408400000017495560FLORES, HELGA HUETE                                     20500
A0301400820000001185780RUFEROS, ROY KENNETH OR                                 10501
A0301400820000001185780AREVALO, MICHELLE KAY                                   20500
A5501400120000012653366CASTRO, JANSKY MICHAEL                                  10502
A5501400120000012653366FITZERALD PEREZ                                         20500
A5501400120000006976949ATURDIDO, JEAN GENEVIEVE GABALE                          0501
A2401400180000010066398GACETA, DAVERICK CUARESMA DBU                           10503
A2401400180000010066398DAVICK FARMS                                            20500
A0901400220000013237742**********                                               0501
A5101400100000015856861INDA, CATHY GUILLERMO DBU MCI T                          0502
A0101412890000001765682MARIA ROSELLE M SANTOS                                   0501
A0101412890000014437180CARLOS, VERNETTE CARDINO                                 0501
A1401400110000017496901AYAG, RODSEN PALAD                                       0501
B1401400110000000167446SOUTHERN PROCESSING CORPORATION                          1606
B1401400110000004461972SUPER MAK FOOD CORPORATION                               1603
A1601400170000001837863RENE N. ESPLANA OR                                      10502
A1601400170000001837863GLORYDEL B. ALAP                                        20500
A0701400260000013603771IMPERIAL, A DAISY DIZON                                  0501
A0701400260000014877902SEGARRA, MA. JAYME LAURICE                              10501
A0701400260000014877902MACANDOG                                                20500
A0101407430503323538001MARITES U. ARBOLEDA                                      0502
A0101407430503416536001JOYLEN D. OTERO                                          0501
B0101403580511039410001POWER EDGE STAFFING AND GENERAL                         11603
B0101403580511039410001SERVICES, INC.                                          21600
A0101405940000001534269**********                                               0501
B0101408530000013741101CIRECORE MANAGEMENT INC                                  1603
A0101412050000003966763DE LEON, ARTURO PUZON OR                                10502
A0101412050000003966763DE LEON, WILFRED                                        20500
B0101412050000016141741EQUAL LENDING INVESTOR CORPORATION                       1603
A0101412050000011229308RAZON, TERESITA REYES DBU                               10502
A0101412050000011229308TERESITA R. RAZON                                       20500
A0101403450000011972242SUN, YULING                                              0502
A0101403610531762081001MIRANDA, SUSAN ESPINILI                                  0501
A2201400250000012982431ABELLERA, CHARINA RAMOS                                  0502
A0101407720602340512009GENOVEVA C. BALLADA                                      0501
A0101407720602394399001CRUEL, ALDABELLE LABANEN                                 0502
A0101407720602496503007CYNTHIA RAMILO                                           0501
B0101412180603046674001DELA CRUZ, MARIA DBU MON-EYED TRADING                    1604
A0101404260000005447150DELA CRUZ, MARICAR LACAP                                 0501
A0101407690000005198001ISIP, SARAH MAY ABLANG                                   0501
A0101407690000008045823BARCELONA, JONATHAN DBU                                 10510
A0101407690000008045823BDZ TRUCKING SER                                        20500
A0101413570000016935070MANIPOL, RONALDO TIAMZON                                 0501
A0101413570656057648181MUSLIM, ALIMODING                                        0501
A0101413990000016958233BUENVIAJE, MICAH ALTHEA C. OR                           10501
A0101413990000016958233BUENVIAJE, MICHELLE PILAR                               20500
A1301400210000003105051SANTOS, NOREEN PAGCALIWAGAN OR                          10502
A1301400210000003105051SANTOS, JOSEPH ANTHONY O                                20500
B1301400210000005041018MUNOZ, AILEEN ANDAN DBU JELLI'S GAS                      1603
A1301400500000011254350**********                                               0501
A1301400500000015562399********                                                 0503
B1701400230000008555022KOOKEE HOUSE, INC.                                       1610
A1701400230693711027001AGUSTIN, FERDINAND MENOR                                 0501
A0101408240000010148040SANTILLAN, IMMANUEL ANTONIO GAB                          0501
A2801400100000012289442VALDEZ, CORAZON REYES                                    0502
A4101400260000003679636CASTILLO, VIRGILIO MANABAT                               0501
A4101400390813478374005CHARON V. MAGBUO                                         0502
A4101400420814453380001TOLENTINO, JONETT MISA                                   0501
A4101400550000006044424MEDIAVILLO, MARK CHRISTIAN AGUI                          0501
A4101400550815478374001ONAYAN, CAROLINA BAUTISTA                                0502
A0101412340000003341642JIHAD E. CAPISTRANO                                      0502
B0101404840851013980002VIC IMPERIAL APPLIANCE CORP.                             1601
A0101404840851046725013MARY JANE A. DE GUIA                                     0502
A0101404840000001312703RUIZ, ELLEN ESPELETA                                     0501
A0101404840851527799001WOODS III, SAMUEL CARGULLO                               0502
A0101406750000005666908DULAY, MARK ALLAN L DBU HAE TRA                          0501
B0101405070861042966001ATTIC TOURS PHILS. INC.                                  1605
B0101413860000012289522GLI-GLOBAL IMPEX CONSOLIDATION INC                       1603
B0601400230000010299211RD PAWNSHOP, INCORPORATED                                1605
