B0801400160311821100608**********                                               2010
A0101401250021194572001BASCON, ED DANTE OR BASCON,                             10501
A0101401250021194572001BLANQUITA                                               20500
B0101400150000000633254MCV BULK WATER SUPPLY, INC.                              1603
B0101400150000000633265LCC BULK WATER SUPPLY, INC.                              1603
A1101400120000000065103BELLO, TERESITA CASTARITAS                               0504
B0101400860000011516071************                                             1601
B0101400860000010683322ZABARTE SERVICENTER INC.                                 1601
A0101400860011404134003**********                                               0503
A0101411370000005524312SUVA JR., RICARDO CABATIC                                0502
B0101400150000006432555ESTATEWINE INC.                                          1602
A0101400600000013979003********                                                 0501
B0101400600071234627001**********                                               1601
A0101400600000008914956********                                                 0505
B0101405810072040421001SK-T COMPANY                                             1602
A0601400100000007250542MEHEUST, ROWENA ANGELES  DBU MI                          0502
A0601400100000006092731LAGUISMA, ALEX CALMA                                     0501
A0601400100081257324001CUNANAN, MYLENE T.                                       0501
A0601400100081572327001PONCE, AILEEN OR ROBERTO JR.                             0503
A0101401960121239340001***********                                              0504
A7201400170000003774112AMPIL, FLOYD TABAYAG                                     0502
A0101400440000000029423ROBINA P. OTAZA                                          0502
A0101407270162331908060BERNARD JOSEPH VELASCO                                   0502
A0101407270162510447001MA. KHRISTINA E. GANA OR                                10502
A0101407270162510447001MA. TERESA E. GA                                        20500
A0101407270162694765001NELSON N. CRUZ                                           0501
B0101401090171008455001UNIVERSITY OF SANTO TOMAS FACULTY UNION                 11606
B0101401090171008455001(USTFU)                                                 21600
A0101401090171195915001MARILOU M. MARISTELA                                     0501
A0101401090000000772167NOE O. BRAGAIS OR                                       10501
A0101401090000000772167ROSALINDA V. BRA                                        20500
B0301400530000008307700APEX PREMIER PHARMACEUTICAL AND CON                      1603
B0301400660000000048235DAVAO MULTIBUILD CORPORATION                             1610
A0301400790000002301319**********                                               0501
A0301400790000009412511PABILONA, FELMAR P. OR                                  10504
A0301400790000009412511PABILONA, JEANNIE G.                                    20500
A0101401380000000026888YABUT, MA. NICOLE KRISTINE                              10501
A0101401380000000026888GARCIA                                                  20500
A0101412500000003289941DELOS SANTOS, ARLENE FERNANDEZ                           0501
A0101412500000014892169BAUTISTA, MARK MAGTIRA OR                               10501
A0101412500000014892169VILLANUEVA, MANSUETA                                    20500
B3101400160221029809001LAGUNA COLLEGE OF BUSINESS AND ARTS, INC                 1601
A1001400190231478374056AMANTIAD, MAY                                            0501
A1001400190231520766002ABE-ABE, MARYLYN B.                                      0501
A1001400190000002170758JUGAN, JUDITH MALOLOT                                    0501
B1001400480000014851346ACENAS, CAESAR IAN E DBU MES TRUCKING SE                11601
B1001400480000014851346RVICES ANG TRADI                                        21600
A1301400470000002299847FERDINAND DEL ROSARIO CLAMONTE                           0501
B1301400760000010656881PRIME YIELD SERVICES & LENDING CORP                      1603
B1901400290000007876791ARMOR MILLING CORPORATION                                1603
A1901400290000001975222DRA. AUREA TOPACIO HERNANDEZ                             0501
A0101401670000003675201GOLINGAY JR., INIGO OCERA                                0501
B0101401670271821200608**********                                               2001
B0101406460272040151001FIRST BARON RESIDENCES CONDOMINIUM                      11602
B0101406460272040151001CORPORATION                                             21600
A0101411110000013980533***********                                              0501
B0101411110000000604959**********                                               1601
A0101400570281388539001JOSEFINA S. SUMAYA                                       0503
A0501400200000005751782MISLANG, JANELY DELA CRUZ                                0502
A6601400120000010637584CO, ALEXANDER SOCORRO                                    0502
A6601400120000011286252CUANICO, MARY ANN CASINAS DBU                           10502
A6601400120000011286252GIAN GEN. MERCHA                                        20500
A0101402350321179400001NILDA Q. APISTAR                                         0505
A0101402350000005644748BUHAY, DOLORES DIONES                                    0501
B0101402510341026003001PHILSOFT TECHNOLOGIES GROUP, INC.                        1601
A0201400760000009466060THORVALDSEN, TROND                                       0501
B0201400760374030540001ST. FRANCIS MANPOWER SERVICES                            1601
A0201400920000013579201VILLAHERMOSA, RECEL MINGUITO                             0501
B0201400890376013530052RD PAWNSHOP, INCORPORATED                                1610
A0201401020000014144424KRAHENBILL, JANIS SERRANO                                0501
A0101415350000005356812LEGASPI, RACHEL ANN SABALLA                              0501
A0101402770000010605084RAMIREZ, ROMMEL DESTREZA                                 0502
A0101402770391215131002GISELO M. CALUMPANG OR                                  10501
A0101402770391215131002MA. GIRLIE A. CALUMPANG                                 20500
B0101408400394025635001KETMAR FASTFOOD CORPORATION                              1605
A0101408400394160353001JARDIOLIN, JAMES HILADO                                  0504
A0101408950000000472946**********************                                   0502
A0101408950396773717001AGUILAR, JOSEPHINE CABRERA                               0502
B0101409210000006598998LOYOLA MEMORIAL CHAPELS AND CREMATORIUM,                11601
B0101409210000006598998INC.                                                    21600
A2401400180411045435001HP FRANCISCO CONSTRUCTION                                0510
A2401400180411478374054LUENGO, IMELDA AMPO                                      0502
A0101412890000007095572CASTRO, EVELYN CRUZ                                      0501
A0101403320000014891257PASUDAG, LIGAYA C. DBU                                  10501
A0101403320000014891257PASUDAG MEDICAL SUPPLY                                  20500
B0101406330000012246872METRO-SOURCE CONSOLIDATORS CORP.                         1603
B0501400170481018109002CSI WAREHOUSE CLUB INC.                                  1603
B0501400170481025398002COSTSAVER'S SUPERMARKET, INC.                            1602
B3801400170000014738048CO, CINDY D OR TAN, PETER L DBU QJA                     11601
B3801400170000014738048HARDWARE                                                21600
A1901400160000014674890BACUD, LILY SALCEDO                                      0501
A1401400110492531512001SALVANERA, ZIEGFREDO AGUILAN                             0501
A0101407430000011167809SUAREZ, ENRICO APOSTOL                                   0501
B0101407430503027092001MULTIPLE GARMENTS AND APPAREL, INC.                      1601
A0101403580511026941001CECILIA NARVAEZ Y DISENOS                               10502
A0101403580511026941001INTERIOR                                                20500
A0101408530000014886356PENNTOFT, JOHN PATRICK .                                 0501
A0101411790000004807950MANGONON, JOSE FLORES                                    0501
A0101403450521240285002**********                                               0502
A0101403450521689055001DADO, ANICETO FERNANDO OR                               10501
A0101403450521689055001DADO, LYKA ELLAC                                        20500
A2201400250561254767001MONTA, LUZVIMINDA DAVID                                  0501
B2201400250561258273001*****                                                    1605
A0101404130601657831001LAURON, MARCOS ARCADIO GALANG                            0501
B0101412180000001293072NYNE BEAUTY INC.                                         1601
B0101404260611045033001GENSERVE SOLUTIONS INC.                                  1601
B0101409890649033780001WATCH TOWER BIBLE AND TRACT SOCIETY OF                  11605
B0101409890649033780001THE PHILS. INC                                          21600
A0101409920000000022088ASUNCION, MARILYN JUANEZA                                0501
A0101413990000014881862ORIOLA JR., JOSE JACA                                    0501
A1301400500000000212995LUDETTE FATIMA T. CASTRO                                 0502
A1301400500000000213265VINCENT P. JAVIER OR TERESITA                           10510
A1301400500000000213265F. JAVIER                                               20500
A1301400500000009723100DELA CRUZ, CECILIA ALMAZAR                               0502
A1701400230000008555380PATINO, DAISY PINKY TUMAMAO                              0501
A0101408240000006599902ALMANZA, RONALD MARASIGAN                                0501
A0101408240000003955340SIMPAO, MELISSA OCHANGCO                                 0501
A0101408240711721738001AURELIO, LEAH LUZURIAGA                                 10502
A0101408240711721738001OR AURELIO JR.,                                         20500
A2801400230000005752423MONTANO, GENEVIEVE CHRISTINE S.                          0502
B2801400230713045988001NGE TRADING                                              1602
A4101400260000012869542VILLAFRIA, MARJORIE                                      0501
A4101400260000010623428CASTILLO, ANNABELLE C. DBU SHIN                          0501
A4101400260812478374018SHIRLEY N. JULONGBAYAN                                   0501
A4101400390000003389515ALMERON, JACQUELINE MACALINTAL                           0501
B41014004200000073054008TH AVENUE FASHION HAUS, INC.                            1601
A4101400420814732937001ALINDOG, NORBERTO PASCUAL                                0501
A4101400550000004846904FERNANDEZ,HONIE VENUS ALMENDRAS                          0505
A4101400550000014848630VILLATA, M DBU LUCKILEE                                 10501
A4101400550000014848630CONSTRUCTION SUPPLY                                     20500
A4101400550000001332427HILAGA, R DBU RGM EXHIBIT AND                           10502
A4101400550000001332427EVENTS SERVICES                                         20500
A4101400550000007583813ARCARDO, M DBU DRJ HAULING                              10502
A4101400550000007583813SERVICES                                                20500
A0101404840000003069925VALENCIA, JUDY D.                                        0503
A0101404840851520766067JOSEPHINE V. GABAYERON                                   0501
A0101405070861478374086MARLYN C. GABEST                                         0502
A0601400230000010703043VIANZON, EDNA MORALES                                    0503
A0601400230000014299568DIZON JR., WENCESLAO OR                                 10502
A0601400230000014299568SENGSON, RYKA MIKAELA                                   20500
B0601400230000013259202OPTIPRIME DISTRIBUTION CORPORATION                       1610
B0601400230000006045289R3NM GEN. SERVICES & TRADING CORPORATION                 1602
A0601400230000000452851SAMBILE, NOEL REYES                                      0502
A0601400230000007402188CHUA, MARK ANTHONY GARCHITORENA                          0503
A0601400230000007954121CHUA, MARK ANTHONY GARCHITORENA                          0501
A0601400230891788658001LENON, DIOSDADO MANLUTAC                                 0501
