B0101402060351821100608**********                                               2005
A1001400480000000041454SIMON, GEORGIE ABECIA OR                                10502
A1001400480000000041454SIMON, JOEL CAGAPE                                      20500
B0101402060000000653827EUSTYLE OF LINES, SOLUTIONS AND ARTS                    11601
B0101402060000000653827(E.L.S.A), INC.                                         21600
A0101412890000003508063SAMSON, RENATO DE GUZMAN                                 0501
A4101400260812523104002DOLOROSA G. VICENCIO                                     0501
B4101400420814018935001IGLESIA EVANGELICA UNIDA DE CRISTO(ANABU                11602
B4101400420814018935001UNIDA CHURCH)                                           21600
A0101400860000002333411**********                                               0505
A0101400860011385744004**********                                               0505
A0101400860011473146002*********                                                0502
A0101400860011478374002RENDOQUE, WIRANDA SAUDI                                  0502
A0101400860011511921001**********                                               0502
A0101400150000006619543PINEDA, MARIA ELENA                                      0501
B0101400150061036959001PINNACLE ASIA, INC.                                      1602
B0101400150000004703360ACTION.ABLE INC.                                         1603
A0101400150061232229001**********                                               0501
A0101400150061603265001CAMATOG, ROMCYN DEL ROSARIO                              0501
A0101400150061746999001COLIANGCO, ELEANOR GO OR                                10502
A0101400150061746999001GONZALEZ, RICO MA ANTONIO                               20500
A0101400150061752745001ALONTE JR., JOSE ANTONIO P. OR                          10501
A0101400150061752745001ALONTE, MARGARIT                                        20500
A0101400600071490490001********                                                 0504
A0601400100081383884001ARCENAS, MA. SHEILA DEMETERIO                            0503
A0601400520000002271023GARCIA, PRISCILLA MIRANDA                                0509
B0101413730000001568447**********                                               1610
A0101413730000003715779**********************                                   0502
B0101410850000003503762POWERLANE LOGISTICS & BROKERAGE COR                      1605
A0101400730111328387002NIDEA, MAGDALENA RAPIRAP                                 0501
A0101406040000001391982********                                                 0501
A0101412630000004609643ARCEO, JESUSA ACULLADOR                                  0501
A7201400170000002791319**********                                               0503
A0101407270000007098646DE LA CRUZ, OFLYN JOY SANTOS                            10501
A0101407270000007098646OR CABUNTAS, JEFFRY                                     20500
B0101407270162019023001PHILIPPINE BATTERIES,                                   11610
B0101407270162019023001INCORPORATED                                            21600
A0101407270162331908011EDGARDO F. BAUTISTA                                      0501
A0101407270162465291003JEFFREY R. JETURIAN                                      0506
A0101407270162678350001MARY ANN C. ONGYIU                                       0503
A0101401090171199436001DARYL OR HELEN OR CARMELO                               10502
A0101401090171199436001DICHOSO                                                 20500
A0101401090171200272001CLARENCE M. BATAN                                        0501
A0101401090171558920001MILAGROSA, REGINA SALES                                  0501
A0301400530193736895001VALMONTE, ADRIAN DELA CRUZ                               0501
A0101401380201574072001SY, WYNNE MHAR GACAD                                     0502
A0101413600000002276462CRISTY E. REJUSO                                         0501
B3101400160221029011001PUGAD LAWIN SA CALAMBA                                   1601
B3101400160221060770001CHURCH OF GOD (SEVENTH DAY) LUZON                       11601
B3101400160221060770001CHAPTER                                                 21600
A1001400190000000016468NERI, JENNY RACAZA                                       0501
A1001400190000001057603EDA C. CAWALING                                          0501
A1001400190000002170781RAMIREZ, RHESA CABAGO                                    0501
A1301400470000002299870MANUEL BIEN S. PINE                                      0505
B1301400470000000009532PROSPERITY SUPERMART                                     1602
A0101406460272553661001**********                                               0501
A0101406620000003661283REQUILMAN, OLIVER CHAN                                   0502
A0101408660000005109842PAYUMO, LIEZEL AUMENTO                                   0501
A0101408660000002264893*********                                                0501
B0101411110000000604915CLATER, INC.                                             1601
B0101400570000002104147AB1 MEGA BUILDERS INC.                                   1601
A0501400200000000035685DELGADO, EVELYN VIDAL                                    0501
A2601400270000002312203FELICIANO B. SEMANA                                      0501
A0801400160311055600001DORILLO, FLORENCIA LOMILLO DBU                          10505
A0801400160311055600001GAYFLOR EDUCATIONAL DEV.                                20500
B0801400160311494221001JUCABAN, LEO LAGOS                                       1601
B1101400120000000652442GICABAO, KATHLEEN JOY NG OR                             11603
B1101400120000000652442GICABAO, BONGKOK                                        21600
A1101400120000001547326TOLENTINO, EMMANUEL S. OR                               10501
A1101400120000001547326BASTIAS, ROSANNA                                        20500
A1101400120000000652511BASTIAS, ROSANNA QUISUMBING                              0502
B1101400120313543446001TY CHAN HAI,SANTIAGO OR TY,LISA OR TY,                  11602
B1101400120313543446001SHANE LAWRENCE                                          21600
A1101400120313717829001UY, WILSON S. OR                                        10520
A1101400120313717829001UY, CHIQUI RUTH                                         20500
A6601400120000002249823NOCHETE, ELIZABETH NOVILLA                               0502
B6601400120314665528001**********                                               1601
A3401400280000003493798FORMILLEZA, JR BERNAL                                    0502
A0101402510341365778002JOYLYN L. MEJILLA                                        0501
B0101402060351009401001PHIL. IRON CONSTRUCTION & MARINE WORKS,                 11605
B0101402060351009401001INC.                                                    21600
B0101402060351021742001WORLD IMPACT COMMUNICATIONS, INC.                        1605
A0101402060351217440026CARLOS III, MENELEO G.                                   0501
A0101402060351553377001ALVAREZ, JACQUELINE BARRION                              0501
B0101409050352031160001CAPITAL INDUSTRIES, INC.                                 1605
B0201400760000000222762UY, JOHN CHIU OR JOHN JEFFERSON UY                       1605
A0201400920000000991788NADALA, MICHELLE CABA                                    0501
A0201400920375512966002LIM JR., MANUEL OR LIM, IMELDA                          10502
A0201400920375512966002OR LIM, SANTIAGO                                        20500
A0101402930381205378001LINCOLN CHEN OR JULIA CHEN                               0502
A0101408370382205337001DR. LOUIE C. RACELIS                                     0505
A0101408370382444817001DR. ROLANDO L. DE GUZMAN JR.                            10502
A0101408370382444817001OR DR. SARAH D. MORAL                                   20500
A0101408790000000579733MARCUS AURELIO PISON                                     0501
A0101408790000000931048PISON, MARCUS AURELIO ABELARDO                          10501
A0101408790000000931048OR PISON, MARIA TERESA                                  20500
A0101408790000002326154JACOBO, CECILIA DORIA                                    0501
B0101411660000000751495HYDRA PAINTING COMPANY, INC                              1603
A0101408400394478374075VIOLETA I MANUEL                                         0501
B0101409210398042656001FIELD OUTSOURCE ASIA, INC.                               1606
B0101409210000000031169CAISHEN MARKETING SERVICES, INC.                         1603
A0101409210398500494001MANALOTO, LAWRENCE IAN ATIENZA                           0501
A1201400150421253603001FLORES, ISABELITA MENDOZA OR                            10501
A1201400150421253603001DOLOROSA, ROMEO                                         20500
A1201400150000000473290BAGSINGIT, SARAH AGWIKING                                0503
B0101403030441012179001**********                                               1602
A0101403030441043810001CORE SOURCE TRADING                                      0504
A0101403030441397813002**********                                               0501
A0101410140000001940063ARCENAS, CRESENCIA (MEMBERS OF                          10503
A0101410140000001940063NATASHA (SHOECAT                                        20500
A0501400170481039591001MACA DEO REGALIA REALTY                                  0502
A0501400170481252352001DR ESTRELLA B ESPINO                                     0501
A1901400160000007038771DIMACULANGAN, ROSE MARIE OR                             10501
A1901400160000007038771DIMACULANGAN, MIGUEL                                    20500
A1901400160491247764001MARITES E RAMIREZ                                        0501
A1901400160491388469005LOURDES B DARIA                                          0501
B1401400110000003475712**********************                                   1602
A0101407430000004687425NIAH D. NERY                                             0501
A0101407430503436029001CACHO III, MARIANO NERA                                  0501
A0101405940000002268653BANIEL, BEN FABALE                                       0501
B0101406880513281235002LUCKY MONEY LENDING CO., INC.                            1603
A0101406880513281942004SUAREZ, HERNANDO CAMACHO                                 0503
A0101408110000000016753GIL B. BELEN                                             0501
A0101408530516571877129MAHEDY G. BRIZUELA                                       0501
A0101403610000000015818AGUJO, MARILUZ SANCHEZ OR                               10503
A0101403610000000015818AGUJO, JUANITO JR. M.                                   20500
A0101403610000007105819ABIERA, CARMINA JAVIER                                   0501
A0101403610000007105820ACUNA, MARIA JOSEFA CARMELITA E                          0501
A0101403610000007105831ACUYONG, RENATO DIESTRO                                  0501
A0101403610000007105842ALAMAG, NARCISO RAMIREZ                                  0501
A0101403610000007105853ALVAREZ, SHIELA MARI TEMPLADO                            0501
A0101403610000007105860AMBAYEC, GLENDA RAQUEDAN                                 0501
A0101403610000007105871APELO, JOSEPH ALLAN PAUL DURAN                           0501
A0101403610000007105882BARROGA, BERNADETTE REYES                                0501
A0101403610000007105893BAYAIS JR., VICTOR BORANTES                              0501
A0101403610000007105900BAYQUEN, MARK ANTHONY CASTILLEJ                          0501
A0101403610000007105922BOBADILLA, BABY EDEN  JAMILLA                            0501
A0101403610000007105933BON, LOURDES SANTILLAN                                   0501
A0101403610000007105940BUCO, EVELYN MALATE                                      0501
A0101403610000007105951CABABAT, LILIBETH CRUZ                                   0501
A0101403610000007105962CAFE, WARLITO LIONG                                      0501
A0101403610000007105973CALAYAG, EMERSON VILLANUEVA                              0501
A0101403610000007105995ALVAREZ, ARNOLD VALMONTE                                 0501
A0101403610000007106010AVISADO JR., BERNABE PALMA                               0501
A0101403610000007106032BUENAVISTA, JEAN BESANA                                  0501
A0101403610000007106061CASTRO, PETER FAJARDO                                    0501
A0101403610000007106094CORTEZ JR., CARLITO SANTOS                               0501
A0101403610000007106112EXTERNON, ARTEMIO OBIEN                                  0501
A0101403610000007106130LIZARDA, EDITHA MANABAT                                  0501
A0101403610000007106163MAURICIO, CECILIO GALLARDO                               0501
A0101403610000007106185TUAZON, JERICO MANALANG                                  0501
A0101403610000007106203TRINOS, LANNIE JUBELEA                                   0501
A0101403610000007106221TABUZO, FLORLITA GONZALES                                0501
A0101403610000007106243SARMING, MARIBEL DEANG                                   0501
A0101403610000007106265REYES JR., PEDRO SOLANO                                  0501
A0101403610000007106287REYES, GAYLE HAZEL ISIP                                  0501
A0101403610000007106301PASILONA, EMERITO GARCIA                                 0501
A0101403610000007106323MIRANDA, MARIA LOURDES ALABIN                            0501
A0101403610000007106345MAGTIBAY, RODOLFO YEMA                                   0501
A0101403610000007106378JUREIDINI, IRZAN DU                                      0501
A0101403610000007106390JERUSALEM, JONATHAN MARTINEZ                             0501
A0101403610000007106414HART, JOHN PAUL AYLLON                                   0501
A0101403610000007106436GARCIMO, CRISPIN SARAD                                   0501
A0101403610000007106447GARCIA, GEORGE TABISOLA                                  0501
A0101403610000007106469GARAY, JOSE MERLITO SALAMANES                            0501
A0101403610000007106481FROYALDE, RAMON RESPITO                                  0501
A0101403610000007106505FIGUEROA, REYNEE FISCO                                   0501
A0101403610000007106527ENRIQUEZ, EDNA DIAZ                                      0501
A0101403610000007106549DE GUZMAN, GASPAR ALCARAZ                                0501
A0101403610000007106561DE GUZMAN, ARMANDO ALCANTARA                             0501
A0101403610000007106583DAMOT, LEONILA KATIGBAK                                  0501
A0101403610000007106607CRUZ, MARIANNE REYNA LINA                                0501
A0101403610000007106629CASTOLO, LESTER JOSEPH DELA TOR                          0501
A0101403610000007106641CAPUNO, ELADIA VERGARA                                   0501
A0101403610000007106663MIJARES, EDNA ESPONJA                                    0501
A0101403610000007106681PATERNO, ANGELITO BACOL                                  0501
A0101403610000007106709ZALAMEDA, MARIA GLENDA ALCARAZ                           0501
A0101403610000007106721CABRERA, RUBI QUIBRAL                                    0501
A0101403610000007106743DELOS SANTOS, DENNIS MARIANO                             0501
A0101403610000007106772ROSARIO, FREDDIE PASCUA                                  0501
A0101403610000007106794SANTOS, ACE MARCELLANA                                   0501
A0101403610000007106812AMADO JR., ELISEO ANHCHORIZ                              0501
A0101403610000007106823CARINO, CHARLES BENEDICT AMBALA                          0501
A0101403610000007106852DIMALEN , MARIA LUISA CABALUNA                           0501
A0101403610531219568002OLIVAREZ, RAUL IMZON                                     0501
A0101404000000005867150LEOP, HIYASMIN BITONG                                    0501
A2201400250561028844002CHRISTIAN HOME FURNISHING                                0501
A2201400250561253929002BENJAMIN DAVID CUDAL                                     0501
A0101404130601535774001BATOCAEL-DOMINGO, FAYE TABANCUR                          0501
A0101407720000003099176PENARANDA JR., ELADIO MIGUEL                            10501
A0101407720000003099176MAGAHU                                                  20500
A0101407720602399337001MARIO BENITO F. BAUTISTA                                10502
A0101407720602399337001OR JOSEPHINE L. BAUTISTA                                20500
A0101407720602415232015JONNALYN FORONDA                                         0501
A0101407720000000713017TIN, ALVIN CONSTANTINE TENEDERO                          0502
A0101404260611774129001MARIA D LOCQUIAO                                         0502
A0101409890000002326810**********                                               0501
B0101409890000003098213AQUINO, VIL DBU JOVAROM COMMERCIAL                       1601
A0101407690000000587862JAVIER, SAMUEL C OR JAVIER,                             10502
A0101407690000000587862SEVERINA S.                                             20500
A0101407690000000587895MANLIMOS, AMALYN DELANI                                  0501
A0101407690652034834001PASSION8 AUDIO & LIGHTS SERVICE                          0502
B0101407690000000243832IDESCO CONSTRUCTION AND DEVELOPMENT CORP                 1602
A0101407690000006736412ESPEJO, ROLANDO DBU THREE R                             10504
A0101407690000006736412MKTG. AND CONST. SVCS.                                  20500
A0101407690652478374169MEDRAN, ESTELA RAVINA - DEALERS                         10501
A0101407690652478374169OF SHOECAT INC.                                         20500
A0101407690652525001051ANNABELLE BADAYOS - DEALERS OF                          10501
A0101407690652525001051SHOECAT INC.                                            20500
A0101407690652609264002DE JESUS, AUGUSTO OR MILA                                0504
A0101407690652763117001MARILYN BAGGAYAN AND CONSTANCE                           0502
A0101413570656057648080ZENDY P. ESPARAS                                         0501
A0101410300000002375904TRISTAN PAUL C. TAGLE OR                                10502
A0101410300000002375904KRISTINE N. TAGL                                        20500
B0101410300000000191644KINETICORE CO.                                           1601
B1301400210000000023510JELLI'S GAS STATION                                      1602
A0101408240000000005181POL CAMACHO SECURITY                                    10501
A0101408240000000005181CONSULTANCY                                             20500
A2801400100000000004775ESPIRITU, MARIA JENNIFER VICENT                          0502
B4101400260812024721001DORMBUILT, INC.                                          1603
A4101400260000000377355LOYOLA, ANNIE BAYAN                                      0501
A4101400420000000710103JARIN, MARIA FE SAPINOSO                                 0502
A4101400420000003715622LACANARIA, ANGELICA ENALES DBU                           0503
A4101400420000003715542DUCOT, ERNESTO MALLARI                                   0501
A0101404840851478374193JONALYN BACALANGCO                                       0501
B0101405070861020510001SILVERLINK INTL TRAVEL & TOURS CORP.                     1610
A0101405070861397365001UEDA, EDRALIN DUBLIN                                     0501
B0601400230891028013001OCAMPO'S MARKETING, INC.                                 1602
A0601400230000000186867SAPNU, D DBU D.L.S.J GLASS ALUM                          0502
B0601400230891338856001SZE KIT CHENG                                            1610
