A0101415350000014453831BARTOLATA, CHRISTINE BAUTISTA                            0501
A1901400290000005566054GARING, MARIA ELENA MANGUIAT                             0501
A1101400120313478374079MARIJOE NOVE CORANEZ                                     0504
B0201400760000014746360BACKSTATION INC.                                         1601
A0101408790383649678002YU, MARK OR LAWRENCE OR STEPHEN                         10510
A0101408790383649678002OR FRANCIS GLENN                                        20500
A0101408790383649678002YU, MARK OR LAWRENCE OR STEPHEN                         10510
A0101408790383649678002OR FRANCIS GLENN                                        20500
A0101403580511028909001E.M. MOLINA'S CONSULTANCY FIRM                           0502
A0101411790000015250450HUANG, QIULAN                                            0502
A0101414120000000875492L.A. CONTRACTOR AND EQUIPMENT                           10501
A0101414120000000875492RENTAL                                                  20500
A0101400860000005313126*******                                                  0510
A0101400860011606340001**********                                               0506
A0101401250000004374652CASTILLO, ROSELYN VILLAR DBU                            10502
A0101401250000004374652LOREANE ROSE FOOD CORNER                                20500
A0101401250000000907288CASTILLO, ROSELYN VILLAR                                 0502
A0101411370000005524421BATUIGAS, AURORA REBOQUIO                                0501
B0101411370000000018135FOKUSI FACADE INC.                                       1602
B0101400150000000633470RHEMAWAY INC.                                            1601
A0101400150061337099199ARLENE C. YU                                             0501
A0101400150061563463002VANZUELA, BEVER LIZA BRUCE                               0501
A0101406040000008915551**********                                               0503
A0101406040112653549001JEANETTE G. SY                                           0510
B0101401830000000059972CARITAS SALVE CREDIT COOPERATIVE (NOVA/                 11604
B0101401830000000059972ST.PETER) 010                                           21600
A0101401830000000201845CRUZ, ARLENE ROBERTO OR                                 10502
A0101401830000000201845CRUZ, VERNON CRUZ                                       20500
A7201400170000007185660DUHILAG, FELY SABADO                                     0503
A7201400170000003774141VELAYO JR., ROSALIO OSORES                               0501
A7201400170000009463761ALUYEN, RONDALE TAN                                      0501
A7201400170000011454390ANDIGON, GINA NANO OR                                   10501
A7201400170000011454390ANDIGON, JESSIE                                         20500
A0101400440000008201243GERARDO R. DURANTE                                       0502
A0101407270000008989177JENNY D. RIVERO                                          0501
A0101401090000009373931CO, EDNA ANTONIO                                         0501
A0301400530193696379001MALDO, MAE AMOR C.                                       0501
A0301400790000012273999PO, RENIE LYN CUEME                                      0502
A0301400790000008015121CADALZO, DENNIS SALOMERI DBU                            10501
A0301400790000008015121ULTRA-GOLD MOTOR                                        20500
A0301400950000008000740**********                                               0502
A0101412500000015354573RAMIREZ, FLORDELIZA LIM                                  0502
A0101412500000015356900SOL, NAZARIO SAGER                                       0501
A3101400160221220343001LAARNI A. CALAPATIA                                      0502
A3101400870000005410213EVANGELISTA, GISELA CASTILLO                             0501
A3001400130000001261169LIM, MICHELLE ZOSA                                       0502
A3001400130000008264740SUMAYO, ERADYL D                                         0502
B1001400190231015069001*******                                                  1605
A1001400190000002170805SIA, ALFREDO YAP                                         0502
A1001400190231274559001SY, MAN CHAK                                             0501
A1001400190231478374086LORNA A. OMANDAM                                         0501
A1001400190231520766006DELFIN, LORENA                                           0501
A1001400190231520766125YANA, MAYFLOR DAGOC                                      0501
A1001400350000000922014PEARSON, PILARCITA ROA                                   0502
A1001400350233478374001JUNIO, ROGELIA A.                                        0501
A1301400470000005394389*********                                                0501
A1301400470252634995001LOUISE L. ANG AND LOED L. ANG                            0510
A1901400290000005565820JUDITH ATE VIRTUDAZO                                     0501
A0101400570000006272084TENG, EUCLID SCHUYLER ONG                                0501
B0101400570281027866001MEDICAL EQUIPMENT HEALTH CARE GROUP                      1602
A0101400570281405675001SALLY ANN CLARK                                          0502
A0101411240000014048950DE DIOS, JHASMINE PASCUA                                 0501
A2601400270000007951177RAYMOND RUEL D. VALLE                                    0501
A0801400160311324459001ARNOLD OR LIZA GINGGING                                  0501
A1101400120000001920667CAMENFORTE, NEIL M. OR                                  10502
A1101400120000001920667CAMENFORTE, ELKE                                        20500
A1101400120000008001345OMANDAM, ELVIRA LANGAM                                   0503
B1101400120000000653161PERPETUAL HELP MULTI-PURPOSE COOPERATIVE                 1605
B1101400120000000653190BOSJAN MAIN MARKETING CORP.                              1605
A1101400120000006186650INGAO, RONA ABANAG                                       0501
A0101402350000001474324MARTINEZ, KENNETH BUHAT                                  0502
B0101402350321015321001BEST CHOICE MINIMART INC.                                1603
A0101405650322172164002AQUINO, CHRISTIAN CASTRO                                 0502
A0101402510000011695033ORTEGA, DECELYNDA CABARDO                                0503
A0101402510000011748908MA. RETCHEL S. MALIBIRAN                                 0503
A0101409050000014568193DY, ALDEN VINCENT SERVIDAD                               0501
B0101409050352044117001D VISAGE INTERNATIONAL CORPORATION                       1602
A0201400760000000222831RELATUS REALTY & DEVELOPMENT                            10501
A0201400760000000222831CORPORATION                                             20500
A02014007600000002227846M MANAGEMENT & CONSULTANCY                             10501
A0201400760000000222784COMPANY INC.                                            20500
A0201401020000014144480CO, HENRY SANTOS                                         0510
A0101411660000002309439MUEGA, RAMIL RET                                         0501
A0101415350000007878122LAGARTO, JOSEPHINE CUA                                   0501
B0101402770391025432001A.C. EQUITIES, INC.                                      1602
A0101402770000001570725DBU CHRISTINE MANALO VILLAMORA                          10501
A0101402770000001570725INTERIOR DESIGNS                                        20500
B0101402770000006812495RAMONLIM CONSTRUCTION & DEVELOPMENT                      1601
A0101402770391401379001DELOS REYES, MARINA MARCELO                              0501
A0101405490000004352987VOLANTE, NINO DEL MAR CONCHING                           0501
A0101405490000014635037TABIAN, CHRISTOPHER TORRECAMPO                           0501
B0101405490000001092411BARANGAY SUN VALLEY MULTI-PURPOSE                       11601
B0101405490000001092411COOPERATIVE                                             21600
B0101405490000001935691WESTCROP LENDING CORPORATION                             1605
A0101408400000009875030RICANA, I DBU IPR FASHION BOUTI                          0502
A0101408400000010506884MAGALLEN, MARY GRACE SOLAMO                              0503
A0101408400394478374098EDGAR D. NECESARIO                                       0501
A0101408950000005325622DIMALIBOT, MARIA MARTINA                                10502
A0101408950000005325622GERALDINE                                               20500
A0101409210000015344922BRAVO, IAN MARIE DOMINIQUE COMI                          0501
A0101409210000015345098JAVELLANA, IGNATIUS DONATO CATA                          0501
A0101409210000014368506HERNANDEZ, ODESSA PERALTA                                0502
A0101409210000015015493SOON, CHRISTOPHER TAN OR                                10501
A0101409210000015015493SOON, RAQUEL PADILLA                                    20500
A5501400120410633082001TAPALES, MARILOU OR TAPALES,                            10501
A5501400120410633082001AMADO                                                   20500
A2401400180000005536687YAP JR., ENRIQUE BARRERA                                 0506
A2401400180000012748517**********                                               0502
A2401400180411272640001VICKY M. BOJE                                            0502
A1201400150000001863152GOZE, ROEL LUMBERIO                                      0502
A1201400150421252661001JOHN KWAN OR JENNY KWAN                                  0504
A0101410140000014244801ROBIDILLO, MICHAEL GABRIEL AARO                          0501
A1401400110492620230001DELOS SANTOS, ENRICO PEREZ                               0502
A0701400260000006215641LANUZA, ROSE ANN TOLENTINO                               0502
B0101408530516033397001SPRINGER INTERNATIONAL, INC.                             1610
B0101408530000001275263JBMAX CORPORATION                                        1602
A0101408530000007719864CAMPITA, MARIA FATIMA LOURDES                            0501
A0101408530000008159917DEGIE GONZALES                                           0501
A0101411400000015351083CORONEL, JHANIEL SANTOS                                  0501
A0101411400000015351221MAGSUMBOL, STEPHANIE ELLAINE BR                          0501
A0101411400000015351330OBRA, ROXANNE PADILLO                                    0501
A0101411400000015351403SORETA, MARY JANE CARREON                                0501
A0101411400000015351443VARQUEZ, GAL BATILLER                                    0501
A0101411400000015351498VELEZ, DIVA RAMIREZ                                      0501
A0101412050000000890882********                                                 0502
B0101403450000002975622CROWN ASIA CHEMICALS CORPORATION                         1610
A0101403450521463261001MARILYN SY TEH                                           0501
A2201400250561258531001RUBEN CAYABYAB                                           0501
A2201400250000003072153BRUCE DANIEL S. RIVERA OR                               10501
A2201400250000003072153GLOTHELDA S. RIVERA                                     20500
A2201400250561585887001GINA P. CORPUZ                                           0501
A0101404130000010896656BUCETA, MARTIE BANDICO                                   0501
A0101407720000002727791QUIBAEL, MA. PATRICIA BIANCA                            10501
A0101407720000002727791DELAS ALAS                                              20500
A0101407720602498169001CABRAL-PRODIGALIDAD, PATRICIA A                          0503
A0101407720000002727773QUIBAEL, JOSE MARI VICENTE                              10501
A0101407720000002727773DELAS ALAS                                              20500
A0101411530000005493683CHOI, LOVELIA ALICIA DE GUZMAN                           0501
A0101413570000004353957RAMEL H. OROZCO OR                                      10503
A0101413570000004353957NORA B. OROZCO                                          20500
A1301400210682478374002MEMBERS OF NATASHA, SHOECAT INC                          0501
B1301400340683353482001MARLENE R. JOSE OR JOSE MARI R. JOSE                     1602
A1301400340683406123001TOBIAS, SUSANA FULGENCIO                                 0502
A1301400500000009723344ESTEVEZ, MATEA CENTENO OR                               10505
A1301400500000009723344ESTEVEZ, JOEY CENTENO                                   20500
A1701400230000005455632BERNARDINO, RUVELYN VILLANUEVA                           0503
A1701400230000011517376DEUS, LIZA BATACAN                                       0501
B0101408240000000832780WOWA'S FAST FOODS INC.                                   1610
B0101408240000000832791WOWA'S FAST FOODS INC.                                   1610
B0101408240000000832804WOWA'S FAST FOODS INC.                                   1610
A2801400100000000004753GRIVA, KRISTINE PULIDO                                   0501
A2801400100712562968001DAMIAN, DANTE LEANO OR DAMIAN,                          10501
A2801400100712562968001ROWENA LEANO                                            20500
B2801400230000000008404A CHILD'S TRUST IS OURS TO NURTURE                      11601
B2801400230000000008404(ACTION), INC.                                          21600
A4101400260000012870003EMPLOYEES OF, RMS COLLECT PHILS                         10501
A4101400260000012870003ESTENZO, QUEEZON DAVID                                  20500
B4101400260000001199117EG RANESES TRADING CORP.                                 1601
B4101400390000006103548IZU NOBLELINK INC.                                       1601
B4101400420000009392076**********                                               1603
A4101400420000003715564SARIA, LESTER DBU DESERT QUENCH                         10501
A4101400420000003715564WATER REFILLING STATION                                 20500
A4101400420814298552026JOSEFINA FERNANDEZ                                       0502
A4101400420000006643490LA AS, NORA P.                                           0501
A4101400550000002091021PIYEZA MOLINO AUTO PARTS                                 0501
A4101400550815058065003ALPAS, M DBU ALPAS DENTAL CARE                           0501
A0101412340000002900318KATHRINA MARINO                                          0502
A0101412340000003348678MARIA CELESTE D. SAN ANTONIO                             0501
A0101404840000003069889MIRANDA, JACK DBU BESTREAD                              10505
A0101404840000003069889TRADING                                                 20500
A0101404840851478374012SAPORNO, ANNABELLE G.                                    0501
A0101406750000009472211BACOLOD, SHEILAH MARALLAG                                0502
A0101406750852025893001R.U. CAPATI TRADING                                      0502
A0101406750000000173022VERONICA DE GUZMAN                                       0501
B0101413860000001767871JUMBO WORLDWIDE EXPRESS LOGISTICS INC                    1603
A0601400230000007252593SOTTO, CATHERINE SOTELO                                  0501
A0601400230000010703032MAGALONG, JAN MARVINS BIBAT                              0502
A0601400230000010703043VIANZON, EDNA MORALES                                    0501
A0601400230891071972001LAZATIN, MAE SISON  JT                                  10502
A0601400230891071972001LAZATIN, RENEO SUBA                                     20500
