B0101403610531821100608**********                                               2002
A1101400120000003022413DUCENTES, GLORIA TROCINO                                 0501
B1101400120000000653161PERPETUAL HELP MULTI-PURPOSE COOPERATIVE                 1605
B1101400120000000652868TACLOBAN ACME HARDWARE CO., INC.                         1605
A0101405810072387220001**********                                               0502
A0301400950000002115468LABANG, SAMUEL DEJITO                                    0501
A1401400110000017265453CERVANTES, MARY LEN CHING                                0502
B1401400110492011585002LUCENA GREENVIEW, INC.                                   1602
A1401400110492412423001LUNA, MA. TERESA MAGBOO OR                              10503
A1401400110492412423001LUNA, EDWIN                                             20500
A0101400860011542443001**********                                               0505
A0101401250021559401001SYLVIA M. GONZALES                                       0503
A0101400150000002394870RUEDAS JR., ARMANDO CARPO OR                            10501
A0101400150000002394870RUEDAS, EVANGELINE ENRILE                               20500
A0101400150000004090691ORDOVA, EBENEZER DELIMA DBU CO                           0502
B0101400600071234185001BALAY, FRANCISCO OR BALAY, MELLY                        11601
B0101400600071234185001BALAY, ANDREW                                           21600
B0101405810072030270001VITALIANO INC.                                           1603
A0101405810072234892001**********                                               0501
B0601400100081029282001L5 & SONS FINANCING CORP.                                1605
A0601400100081040294001MOIKAI INDUSTRIAL SUPPLIES AND                          10505
A0601400100081040294001AUTOMATION SERVI                                        20500
A0601400360000013780402KIM, SEUNGHWAN                                           0501
A0101414090000000399377***************************                              0501
A0101410850000018173361FUJITA, SHINSAKU .                                       0501
A0101410560000002316558LAGASCA, CHERIELYN                                       0501
A0101401960000004419761**********                                               0504
A0101401960000010787643LEE, LINDA CHUA                                          0502
B0101401830000018172988CALBANG, GEORGE LIM DBU MANILA WOOD                     11601
B0101401830000018172988SUPPLIES                                                21600
A5001400170000000044982URBAN PAINTS & MORE ENTERPRISES                          0502
A0101412920000005915631CASTRO, SONNY VALEN ROMERO                               0501
A0101412920000017644050HERRERA, MA. ELENITA DBU M.E.                           10502
A0101412920000017644050HERRERA'S HANDIC                                        20500
A0101400440161520766042MONINA H. DUKA                                           0501
A0101407270000015623022ADRIANO, LYDIA MAMARIL                                   0501
A0101401090171027703001INSTANT DRUGSTORE AND GENERAL                           10502
A0101401090171027703001MERCHANDISE                                             20500
A0101401090171196126001ROSE JEAN P. CRUZ                                        0501
A0101401090171387247001RAFAEL M. DE JESUS                                       0501
A0301400530000005300361TIMBOL, MARILOU SUBALDO                                  0502
B0301400660000013310991GFCGE CORPORATION                                        1601
B0301400660194046300088SAGREX CORPORATION                                       1610
A0101401380000000026888YABUT, MA. NICOLE KRISTINE                              10501
A0101401380000000026888GARCIA                                                  20500
A0101410720653505843001LIMONGCO, GRACE POLO                                     0502
B0101412500000000041670MOLDEX REALTY INC.                                       1605
A3101400160000014144071RODRIGUEZ, DONNA DIANE CORTEZ                            0502
A3101400160000015271122ESTENOR, JERWIN CLAVILLAS                                0501
A3101400450223357912001NAGA, JOSE V.                                            0501
A3001400130000017011602ADAD, NORILYN S                                          0501
B1001400190231022073001FARASIA EDUCATIONAL LIBRARY COR                          1601
B1001400190231032517001TINGTING, JO ANN DBU FRAN-FRAN TRADING O                11603
B1001400190231032517001R TINGTING, MARL                                        21600
A1001400190231520766024ALCOS, LIESIL SARIGUMBA                                  0501
B1001400350000007920876PEARSON, PILARCITA ROA AND  HEQUILAN,                   11601
B1001400350000007920876ELVIE CORTEZ                                            21600
A1001400480000011810392VARQUEZ, CHRISTA GRACE G OR                             10503
A1001400480000011810392GABRINO, FLORENCE F                                     20500
B1301400470000003270113OBRIGADO LENDING INVESTOR, INC.                          1601
A1901400290000014042472JOHN PAUL BOITIZON ALZOLA OR                            10501
A1901400290000014042472JONAINAH LAQUI ALZOLA                                   20500
A0101401670000006975520DELA CRUZ, LUIS TOLENTINO                                0501
A0101401670271193994001PATRICIO L. RAPADA                                       0502
A0101401670271603732001GREGORIO, REYNALDO CRUZ                                  0502
A0101406620000010591249NICANOR M. MONTESINES                                    0501
A0101406620273375724004LINDA FERNANDEZ DEL VALLE                                0501
A0501400200000016275902SORIANO, ROSE BEA TABAN                                  0501
A0501400200000002306150PACIS, WILMA RAMOS                                       0502
A2601400270000012492507PROSPER GRAINS CENTER                                    0502
A0801400160000016201226TIO, JENNY GO                                            0503
B6601400120000018176111JET-PHIL COMMODITIES VENTURES                           11601
B6601400120000018176111CORPORATION                                             21600
A6601400120314042058007CHEERS TRADING                                           0505
A3401400280000000784692VISTA, LECEL CERILO                                      0502
A0101402350000000019127ARDIENTE, MARIA CORAZON C. OR                           10501
A0101402350000000019127ARDIENTE, EDUARD                                        20500
A0101405650000016904473WANG, GUAN LIANG                                         0503
A0101405650322171826002ARELLANO, MARY ANN SIONOSA                               0502
B0101402510341020561001PHILIPPINE PHARMACISTS ASSOCIATION                       1602
B0101402510341025648001EXPRESSIONS STATIONERY SHOP, INC.                        1601
A0101409050000002971384RESULLAR, ALLEN CURAY                                    0501
A0201401020000016203091OMANIO, ROZEN ASUNCION                                   0501
A0101402930000012171550HERNANDEZ, REYNALDO ERWIN IMPER                          0502
A0101408370000013508942ESPLANADA, RHENA AQUINO DBU                             10502
A0101408370000013508942GEV238 ENTERPRISE                                       20500
B0101408370382027041005THE MEDICAL CITY EMPLOYEES ASSOCIATION                   1601
A0101408370000011287211RIVERA, JANETH DELOS REYES                               0501
A0101408790000009466282ISON, DENNIEL CRUZ                                       0501
B0101408790000016571701OUTFORCE INC.                                            1602
A0101408400000009875030IPR FASHION BOUTIQUE                                     0503
A0101408400394401209002YU, ANNA KATRINA MANIQUIS                                0505
A0101408950396498542002DR. RIZAL ALBERTO B. NOLIDO JR.                          0502
A2401400180000015436930GASCON, JOSIE FE PANIZARES DBU                          10502
A2401400180000015436930HM ACES MARKETIN                                        20500
B2401400180000007476853ECA RESOURCES, INC.                                      1602
B2401400180411056150001GENSAN TBB & SONS MARKETING, INC.                        1602
A2401400180411294282001MIGUEL D. ESCOBAR                                        0501
A1201400150000007556365QUILOP, CARLO CLYDE CO DBU LIKH                          0502
B0901400220432821200608**********                                               2001
B0101410140000010858183LAGERA, MA. CORA  NABONG DBU CNL BO                      1603
A0501400170000006300743ARENOS, EMMANUEL TAMINAYA                                0503
A1401400110492221180002SIA, ERWIN THOMAS C.                                     0505
A1401400110492222049001AMORSOLO S. NIEVA                                        0508
A1401400110492575977001HERRERA, MA. BULAKLAK ROSAS                              0501
A1601400170000015678514VELASCO, MELANIE BARRAMEDA                               0501
A0701400260000003259363DELA CRUZ, JULIUS ESPINOSA                               0502
A0701400260000014169172FLORIN, MA. TERESA MABAGOS                               0501
B0701400260000000041083MULTI-WARE ECON-SALES CORPORATION                        1605
B0101405940000003571748CELESTIAL OMNI RESOURCES ENTERPRISE                      1601
B0101408530000013741163A.P. ALZATI CORPORATION                                  1602
A0101408530516568727001MARKING, AMADO MATA                                      0504
A0101403450000007072728**********                                               0501
B0101403450000011473595ONG, JONMARK GO DBU JRJ ENGINEERING                      1601
B0101403450000010454218POWEL CHEMICAL CORPORATION                               1601
B0101403450000010454229POWEL CHEMICAL CORPORATION                               1601
B0101403450000010454230POWEL CHEMICAL CORPORATION                               1601
B0101403450000010454252POWEL CHEMICAL CORPORATION                               1601
A0101403610000013964297AMANDY, GERARD ALVAREZ                                   0503
B0101403610531038291001ALL IN ONE BUILDERS SUPPLY                               1601
B2201400250000002924832RANDERSON VENTURES CORP.                                 1601
B0101404130000012210487FAMINIAL, DIVINE S. DBU D.R. SALDIVAR                   11605
B0101404130000012210487MARKETING                                               21600
B0101412180000008320103VERTICAL SPACE INTERIORS, INC                            1610
A0101404260611150835004CHING, HENRY                                             0502
B0101409890000007373200IHEARTMNL INC.                                           1602
A0101407690000006736496SALLY B. LABIANA                                         0501
B0101413440000011893180EVOLANDER MOTOR CORPORATION                              1603
A0101413570000013901172BORRAS, FILOMENA PESTANO                                 0501
A0101413990000006278237DE CASTRO - AGBUYA, HAYDEE AMOR                          0502
A0101406590662361882001FLORENTINO OR DIVINA LUPE                               10503
A0101406590662361882001LAZARO                                                  20500
A0101410300000000191951ANGULUAN, PAUL ARIS A.                                   0510
A0101410300000000191655VIRGILIO P. LABRADOR JR. AND                            10501
A0101410300000000191655RONIE A. SALEY                                          20500
A0101410300000006278631BANTIGUE, MARIA LUISA OR                                10504
A0101410300000006278631BANTIGUE, JOHN P                                        20500
A1301400210000009982198PAULINO, ALEXANDER SARMIENTO                             0501
B1301400210682012962001STO. ROSARIO CREDIT & DEVELOPMENT                       11604
B1301400210682012962001  COOPERATIVE                                           21600
B1301400210682248659001ASIANLAND STRATEGIES CORPORATION                         1610
A1301400340000009813750CLEMENTE, MARIFEL ROXAS                                  0501
B1301400340683353482001**********                                               1602
B0101408240711025397001KINGSMEN CORPORATION                                     1605
A2801400100000005475390COS, DAISY TALA                                          0501
B2801400100000004560025MONTEONE CONSTRUCTION CORPORATION                        1605
A4101400260000018163841FLORES, HAZEL DENISE CRUZ                                0501
B4101400390813027260001PHILS-JEON GARMENTS, INC.                                1604
A4101400550000002091043RAMIREZ, CYNTHIA TAN                                     0502
A0101420680000016277577DELA CRUZ, ANNA LOURENZ VIRAY                            0501
A0101412340000009501439VILLON, RACHEL ANN COSTIBOLO                             0502
A0101406750000010509116BRAGSTEEL CONSTRUCTION &                                10501
A0101406750000010509116ENGINEERING SERVICES                                    20500
B0101406750852023612001LAS PINAS CITY MEDICAL CENTER, INC.                      1610
B0101405070000018173003TE & RJ CAPITAL HOLDINGS CORPORATION                     1601
A0101405070861380698001RENATO SISCAR REYES SR.                                  0501
A0601400230000003015823ALURA, JIMMY SUENO                                      10502
A0601400230000003015823OR ALURA, MERLE                                         20500
