A1001400190000000016424DE GUZMAN, MARIA ELENA CARPIO                            0501
A0101401250000000020424BALIAO, JOVITA LINGGON                                   0503
A0101405650000000080117*******                                                  0501
A1601400170000000099150HERMELINA E. ROSAL                                       0501
A0101413860000000145162SUMALINOG, TERESITA BALBOA                               0501
A5001400170000000214020ARNOCO, MARIETA DIAMANTE                                 0502
A0201400760000000223189VAN SPALL, MONIQUE ALEJANDRINO                           0501
A0101400150000000253370DEGUMBIS, GILA ROSE AMBRAD                               0501
A1301400470000000366574ROBERT DE BELEN CUNANAN                                  0501
A0901400220000000425136ROSOS, LORAINE WAYCO                                     0501
A0101409890000000437405REYES, MICHAEL CONCEPCION                                0501
A0101405490000000444313BENITO M. LOJO                                           0503
A1601400170000000497558NORMITA A. JACOB                                         0501
A0101414090000000648511NEMIS, CORA SARINO                                       0501
A0101403320000000735717BAUTO, GUADA LYNNE CASTILLO                              0501
A4101400260000000828860MA. GLENDA T. PERSIA                                     0501
A0301400790000001010631BAJO, MARICON ONGKINGCO                                  0501
A0101407430000001028875LANI C. TUQUIB                                           0501
A0101412890000001056193MONARCA, EXALTACION BORDA                                0503
A0101412890000001056553REYES, ARNOLD PAJE                                       0501
A0101410140000001074873VILLANUEVA, CHARITY CABAEL                               0503
A0501400200000001081032CERDINO, REGINA ALMAZAN                                  0501
A3001400130000001271705PARINAS, ESTER LUCILLE KABIGTIN                          0501
A3001400130000001271727GSP ENTERPRISES                                          0520
A0101413150000001288331******                                                   0501
A0101410560000001291076RELOJO, SAMUEL T.                                        0501
A0101412180000001293261VERSOZA, VITTORIO SANCHEZ                                0501
A0101405650000001377340GRANADOS II, RODOLFO FERNANDO                            0501
A0101413440000001472691ERIA, DOMINGA PICO                                       0501
A0101402350000001474302MAMADOD, JUDELIZ PANA                                    0501
A0101402350000001474357GONZALES, ALICE LAZARITO                                 0501
A0101405940000001534327UNAS, NIDA SUNDIAM                                       0501
A1401400110000001549333AYALA, ADOLFO GLORY                                      0502
A3101400160000001559286MICHELLE ROXANNE S MALLARI                               0502
A0101408400000001614762CEDENO, NOEMIE DEDICATORIA                               0501
A0101409050000001662471RAPISURA, JONALYN BLANCO                                 0501
A0101406620000001686622REYES, MARK LESTER LISING                                0501
A0101406620000001686688BALUMA, RICHELLE PANES                                   0501
A4101400390000001732634RULL, FLORDELUNA DAZA                                    0501
A4101400390000001732667ESTORES, JOSE MARIE TABLISO                              0501
A1701400230000001786729PALADO, LEICEL                                           0501
A1701400230000001786730LIGOT, CHARITY RANADA                                    0501
A2401400180000001935873RICABLANCA, MARY ANN GABRIEL                             0501
A0101408400000001952843BARTE, ANJELICA SORIA                                    0501
A0101408400000001952850LESABA, MARIBEL SEVA                                     0501
A0101400440000002034742SALTERIO, JEMUEL CAINGLET                                0501
A4101400420000002084380CAMIRING, JOSEPH MARK TAGARO                             0501
A0101401700041188766001ALFONSO A. PO                                            0503
A0101400150061227688001BALANGUE JR., ELPIDIO PATRICK                            0501
A0101400150061228073002CHONG, SANDRA S.                                         0501
A0601400100081358072002NOEL C. DAVID                                            0505
A0101400730111449484001RESUELLO, MARIVIC GARCIA                                 0501
A0101400730111458403002ABREGANA, CLEOFE TAMPOS                                  0501
A0101400440161520766012LILIA C. ECLEO                                           0501
A0101400440161525001070MARIBEL S. SOLEDAD                                       0501
A0101400440161667573001EVELYN P. DE ZUNIGA                                      0501
A0101407270162355432002JEROME C. POBOCAN                                        0506
A0101407270162377333002******                                                   0501
A0101407270162401795001MAHOR, NICOLAS C                                         0502
A0101407270162526657001VALERIE ANNE G. MALIG                                    0502
A0101407270162567717001JONALYN D. DOROJA                                        0501
A0101407270162682596001DELOS REYES, MYRNA MIRANDA                               0501
A0101401090171380619001VILLAMIN, CHARLES ABRAHAM C.                             0501
A0101400310211076854001PARAGAS, ANGEL LHOI CANEDO                               0501
A0101400310211165218001MELANIA JOCOY                                            0503
A0101400310211295755004******                                                   0501
A0101400310211340967001GANESAN, MARI GRACE PASION                               0503
A0101400310211478374065MARIVIC DELA PAZ                                         0501
A0101400310211565399002AVILA II, ROBERT ROMERO                                  0501
A1001400190231283324001GICABAO, BENY CHAN                                       0501
A1001400190231478374067DAGANATO, NICANORA BALOS                                 0501
A1001400190231478374179BACAN, JULIET                                            0501
A1001400190231520766125YANA, MAYFLOR DAGOC                                      0501
A1001400190231520766171WILDY G. OCHIGUE                                         0501
A1301400470252031178003TRIMED PHARMACEUTICALS                                   0501
A1301400470252482273001DRA. LEONOR J. DIZON                                     0501
A0101406620273577282001LUMIBAO, RICA RIVERA                                     0502
A0101400570281186617001DR. SALLY RACHEL T. MACAPAGAL                            0503
A0101400570281496378001CANLAS, MA. MICHAELA CARIASO                             0501
A2601400270302478374003GRACE C. BANCUD                                          0501
A2601400270302567227001ROSITA TAN VALLE                                         0501
A0101402350321045652001BOYET AUTOCARE SERVICES                                  0505
A0101402350321395056001MELANIE F. MUNK                                          0502
A0101402350321564527001YANQUILING, NATIVIDAD G.                                 0501
A0201400920375034984002CITY LIGHT ELECTRONICS SERVICE                           0505
A0201400890376038937002ECB TRADING                                              0502
A0201400890376458754001NOMBRADO, GILBERT DOMASIS                                0501
A5501400120410478374002EVELYN P. BOLIVAR                                        0501
A2401400180411045435001HP FRANCISCO CONSTRUCTION                                0505
A2401400180411478374035MERLINDA D. TAMUDTAMUD                                   0501
A2401400180411680952001ALCOVER, MA. SOCORRO TENAJA                              0504
A1201400150421619129002TUVERA, ROSA DACANAY                                     0501
A0101403030441240814002**********                                               0504
A0101403320471478374017TERESITA BAUTISTA                                        0501
A0501400170481043466001RUSKIN MARKETING                                         0503
A1401400110492478374032ARLENE P. PEDOC                                          0501
A0101408530516571877166LEOPOLDO MANGILINAN, JR.                                 0501
A0101403450521238148001**********                                               0501
A2201400250561254811001BABY GRACE G. PALMA                                      0502
A0101407720602415232015JONNALYN FORONDA                                         0501
A1301400210682369726001EMELITA S. CALAYAG                                       0501
A1301400210682371374001PRISCILA G GARCIA                                        0501
A1301400340683417734001VILLACERAN, LEONARDO FORROSUELO                          0501
A0101407560686290317003SARA JANE L. BELTRAN                                     0502
A0101408240711497975001PLOTTECK, SALUSTIANA BANGAYSISO                          0501
A2801400100712676952001ROSALINDA E. LICO                                        0501
A4101400260812765847001ACEDILLA, TERESITA DEVILA                                0501
A4101400420814520766108ESPANOLA, MERELY C.                                      0502
A4101400420814641056001LARROZA, ELOIDA LOJA                                     0501
A0101406750852478374070ANILIE SENOLOS                                           0501
A0101405490000000444693JEFF CRAIG T. ALCALA OR                                 10501
A1601400170000000497401ALEXANDER S. DELAS ALAS OR                              10502
A4101400420000000710483ESPANOLA, MA. ANGILY CASANDRA                           10501
A0501400170000001072877CIUDAD ELMINA FISHING VILLAGE                           10502
A0101405650000001377419GLOBAL SKYBOX BUSINESS AND                              10501
A2201400250000001932305PAMINTUAN, BENIGNO CUNANAN                              10501
A0101400730111195461002JOSE L. DIZON OR                                        10502
A0101401090171201876001SANDRA NAVARRA OR                                       10510
A0101400310211722479003MARTICIO, BONIFACIO AND ORIDO,                          10501
A1001400350233650597001DY, LOREEN LAO OR                                       10501
A1301400470252497499001DON G. BERNABE OR REINA                                 10501
A0101401670271186208001BENJAMIN C. RAMOS OR                                    10504
A0101402350321228243002GARCIA, CASIMIRO A. OR                                  10501
A0101405650322321476001DE GUZMAN, MYRNA SARMIENTO OR                           10501
A0101408370382434379001LOURDES JOSEPHINE ANGLIONGTO-                           10501
A2401400180411478374061JUNRES AGAD OR                                          10501
A2401400180411666777088DE MESA, FRANCISCA GUBUAT -                             10504
A1201400150421789029002CO, JOHN SALVADOR AND                                   10503
A1901400160491392399001DANTE V DIMAANDAL OR                                    10505
A0101407720602386585001SAN GABRIEL, LOURDES OR                                 10501
A0101407560686385698001REYNALDO O. CRUZ OR                                     10501
A4101400260812305797001BERNARDO B. TURINGAN OR                                 10501
A0101405490000000444693MICHAEL PATRICK P. SANQUI                               20500
A1601400170000000497401MA. VANESSA T. DELAS ALAS                               20500
A4101400420000000710483CARBA                                                   20500
A0501400170000001072877RESORT BY AVR D FERNANDEZ                               20500
A0101405650000001377419MANAGEMENT SERVICES                                     20500
A2201400250000001932305DBU GTP ENTERPRISE                                      20500
A0101400730111195461002JANICE D. DIZON                                         20500
A0101401090171201876001SALVADOR NAVARRA                                        20500
A0101400310211722479003TERESITA                                                20500
A1001400350233650597001DY, MARK ANTHONY                                        20500
A1301400470252497499001CONCEPCION M. BERNABE                                   20500
A0101401670271186208001VIRGINIA S. RAMOS                                       20500
A0101402350321228243002GARCIA, MARIA TERESA I.                                 20500
A0101405650322321476001DE GUZMAN, GAZEL                                        20500
A0101408370382434379001RAMOS                                                   20500
A2401400180411478374061NORMELITA BLANCO                                        20500
A2401400180411666777088NICESIAN STORE                                          20500
A1201400150421789029002CORREOS, GEROME                                         20500
A1901400160491392399001DIONISIA R DIMAANDAL                                    20500
A0101407720602386585001SAN GABRIEL, FRANCIS                                    20500
A0101407560686385698001MILAGROS U. CRUZ                                        20500
A4101400260812305797001MA. PAMELA G. TU                                        20500
B5501400120000000003232********                                                 1602
B0101401250000000020771KAAKBAY ENTRE-WORKER COOPERATIVE                         1601
B0101411820000000024142HARDCOM COMPUTER SYSTEM CO.                              1601
B0101402350000000046062OLIVAREZ GENERAL HOSPITAL INC.                           1601
B0101400150000000052731UNICAPITAL FINANCE AND INVESTMENTS                       1602
B0101409050000000258473AMALGAMATED INVESTMENT BANCORP.                          1603
B0101413440000001085661INOCENTES REALTY & SALES CORPORATION                     1602
B0101400310000001621567THE GOOD VIBES GLOBAL SERVICES CORP                      1601
B0101400730111008436001PACIFIC PLACE MULTI DEVELOPMENT CORP                     1603
B0101400440161187807001WILLIAM C. LAOÿÿ ÿÿÿ ÿÿÿ ÿÿ                              1601
B0101407270162019081001FOOD LAND INC.                                           1605
B1001400190231306643001*********                                                1601
B0101402350321006654001ABILITY ALUM. & GLASS SUPPLY                             1605
B0101402350321006752001LOPEZVILLE HARDWARE                                      1602
B0101402350321036032001S.M. PRINTING CORPORATION                                1601
B0101408400394042261001L & B CONSTRUCTION                                       1602
B2401400180411042576001PRIMERA CASA PROPRIEDAD, INC.                            1602
B1901400160491042042002MARINA FERRIES, INC.                                     1605
B1401400110492500431001STRONG BRIDGES POULTRY FARM INC.                         1601
B0101404000551029461001PCCI EMPLOYEES RETIREMENT PLAN                           1605
B0101407720602022821001BLITZ MARKETING AND EVENTS, INC.                         1602
B1701400230693041727001SHOP AND GO CONVENIENCE STORE                            1603
B0101408240711026183004**CATERING PROFESSIONALS, INC.**                         1610
B0101414120000000399031JESUS CHRIST THE MASTER BUILDER INTERNAT                11601
B0101411530000000581500EMILY MARIANO OR KRISTINE ABDON OR                      11601
B0101414120000000399031IONAL MINISTRIES                                        21600
B0101411530000000581500KATRINA TORRES                                          21600
B0901400220432821100608**********                                               2005
