A0101405650322028641001FROM THE KITCHEN OF LIZ                                  0504
B0101405650322067290001LUMITRON TECHNOLOGIES, INC.                              1601
B0101402930381040393001RESOURCE ONE CORPORATION                                 1601
B0101402930381047467001FLUID SOLUTIONS, INC.                                    1601
A0101400440000008201250VANGIE ZAFRA                                             0501
A0301400790000002301393BARCELONA, JANET TIZON                                   0501
A0301400790000005692048GENTILES JR., FILIPINIO CASCABE                          0503
B0101405650000004410039MIDNIGHTHOOCH INCORPORATED                               1610
B0101408400394028560002NEW LIFE CHRISTIAN CENTER (THE FORT) INC                 1602
B0101408400394028560004NEW LIFE CHRISTIAN CENTER (THE FORT)                     1602
B0101408400000008699916NEW LIFE CHRISTIAN CENTER (THE FORT                      1602
A0101408400394478374066CASTILLANO, VELLA G.                                     0501
A2401400180411478374004MESRIYA ABDULLAH                                         0501
A2401400180411478374020MORI, LYDIA                                              0502
A0101400860011298552007MA. TERESA N. MERCADER                                   0503
A0101400860011386392002**********                                               0503
A0101400860011490477001**********                                               0501
A0101401250000008460060RECIO, LUDGERO REGINALD C.                               0502
A0101400150000003164689ANA CAROLINA C. IGNACIO                                  0501
B0101400150061000544001CITIBANK - N.A.                                          1601
B0101400150061226857001ARL MARITIME SERVICES INC.                               1603
A0101400150061229009001MANGLAPUS III, RAUL JAY OR                              10501
A0101400150061229009001MANGLAPUS, JENNIFER JANE                                20500
B0101400150061534780001STRAITS WINE COMPANY WHOLESALERS, INC.                   1602
B0101400600071325133001**********                                               1602
B0101400600071328360002**********                                               1601
A0601400100081680454001POZAR, GREGORY JAMES                                     0502
B0601400360000003186827ANDROBOTICS CLARK INC.                                   1602
A0101414090000006211643HAN, JIYOUNG                                             0501
A0101413310000002317933MACALINTAL, CHRISTOPHER                                 10501
A0101413310000002317933DELA CRUZ                                               20500
A0101413310000003169300AYPA, MA. CARMEN TERESA G. OR                           10501
A0101413310000003169300AYPA, NOEL S.                                           20500
B0101401830141043438001R.A. ROSILIO ENGINE REBUILDER                            1603
A0101412920000000276373TANYAG, IMELDA BARJA                                     0502
A0101401090000008940887AMEL MATDA EDILTRADA B. FLORES                           0501
A0101401090171328970001RAYMOND C. TORRES                                        0501
A0101401090171583870002ROSARIO, MIKHAEL LIM                                     0502
B0301400530000000025378D' UNIBUENAS CORPORATION                                 1603
A0301400530193583614088VILLANUEVA, MELISSA MAY OR                              10502
A0301400530193583614088VILLANUEVA, PHIL                                        20500
A0301400530000007345475VILLANUEVA, PHILIP OR VILLANUEV                         10502
A0301400530000007345475A, MELISSA                                              20500
A0301400530193729179088VILLANUEVA, PHILIP OR                                   10502
A0301400530193729179088VILLANUEVA, MELI                                        20500
A0301400790000003969611BERSABAL, AGNES TUBANG OR                               10501
A0301400790000003969611BERSABAL, MARVIN ROMERO                                 20500
A0301400790000003969542******                                                   0501
A0101401380000000682622********                                                 0501
A0101413020000000880531***************                                          0505
A0101410720000007843323CUNANAN, JANE CATO                                       0502
A0101410720653478374010SOCORRO JIMENEZ                                          0503
B3101400160221016581001ONE WORLD REALTY CO.                                     1602
B3101400160221037479001TABLERIA LA CONFIANZA CO., INC.                          1601
A3001400130000008264740SUMAYO, ERADYL D                                         0502
A3001400130230478374236SALES, CHARRIE ANN SINGCO                                0502
B1001400190231300482001ORO SOLID HARDWARE, INCORPORATED                         1603
A1001400190231520766094SALAGUSTE, FELIPE B.                                     0501
B1001400480000003357817LINAAC JR., CECILIO GRANADA DBU LINAAC                  11602
B1001400480000003357817TRUCKING SERVICE                                        21600
B0101401670271007101001CONTINENTAL HOMES, INC.                                  1604
A0101406620000001686940TOBIAS, ADRIAN LUIS MA CHENG                             0501
B0101406620273025674001PHIL. GAME FISHING FOUNDATION INC.                       1602
A0501400200000001000131DE MESA, JOSEFINA PASCUA OR                             10502
A0501400200000001000131DE MESA III,SERGIO V.                                   20500
A2601400270000002677547MILA R. VALDEZ                                           0503
A0801400160311754232001CAROLINE B. ROLIDA OR                                   10505
A0801400160311754232001JOHN U. ROLIDA                                          20500
A0101405650322047677001THE J. BIJE'S WINDOW SHOP                                0505
A0101405650322093557001CUEVAS, MA. DONATA NADINE OR                            10502
A0101405650322093557001CUEVAS, RAFAEL                                          20500
A0101405650000009767884MERCADO, MARC GREGORY GATON                              0501
A0101402510000010755467BAUTISTA, BRYAN-JAY ADRIANO                              0501
B0101402510341026003001PHILSOFT TECHNOLOGIES GROUP, INC.                        1601
A0101402510341197697001GLORIA R. DEL MUNDO                                      0501
B0101402060351009391001MAJA DEVELOPMENT CORPORATION                             1605
A0101402060351211809001ALBERTO TAYENGCO                                         0501
A0201400760000005710890SUA, HELTON SY                                           0503
A0201400760374520766001CARULASAN, KRIZIA JANE BUGO                              0501
B0201400890000002027903GLOBAL REV GEN PTY LTD                                   1601
A0201400890376592720001********                                                 0502
A0201401020377094857001GO, ALEXANDER DBU WEGO                                  10501
A0201401020377094857001ENTERPRISES                                             20500
A0101402930381209054001BENJAMIN S. A. CAMPOMANES, JR.                          10501
A0101402930381209054001OR MA. MILAGROS YUCHICO                                 20500
A0101408790000000579773ASIDDAO, HEHERSON MIRANDA                                0506
A0101405490000004352954PAJARILLO, ROWJELYN MARAVER                              0501
A0101405490000006241943MINERVA V. VILLACORTA                                    0501
A0101408950396726811001GERARD M. MORALES OR REGINA                             10502
A0101408950396726811001ISABEL S. MORALES                                       20500
A0101409180000003780261MARK CYNEL P. CRUZ                                       0502
A0101409210000002802688JUNGAYA, MARIA REINA MARTIREZ                            0501
A0101409210000005252244DELA ROSA, CHARISSE CRUZ                                 0501
A0101409210000009966767RASONABE, ANABEL DELOS REYES                             0501
A0101412210000009036857MITCHELL, GENE KATES LAGMAN                              0502
A5501400120410633077001CLAVISILLAS, JOSIE OR                                   10501
A5501400120410633077001CLAVISILLAS, RON                                        20500
B5501400120410821200608**********                                               2002
B2401400180411020380001BOUNTY AGRO VENTURES, INC.                               1601
A0901400220432478374001LEONARD GO LOZADA                                        0501
A0901400220432518401001**********                                               0501
A0101403030000005944841**********                                               0502
B0101403320471035758001***                                                      1603
A0101403320000000067612SORREDA, IVY HUBILLA                                     0501
A0101410140000009390901SUNGA, LEE TANGLAO                                       0501
A3801400170000005288133RABINO, FE FORTU                                         0501
A1901400160000005794892ALCANTARA, JOEY LUSTRE OR                               10501
A1901400160000005794892ALCANTARA, MARICEL                                      20500
A0101408530516615903023MAY ANN P. OLIVEROS                                      0501
B0101411790518067369001EMERCHANT ASIA INC.                                      1601
B0101411790000005537071CITYLAND DEVELOPMENT CORPORATION                         1603
B0101403450521011662002SUNTRA INT'L TRADING CO., LTD.                           1605
B0101403450521011748001EUROTILES INDUSTRIAL CORP.                               1605
A2201400250000003558252MALONZO, VICTOR SANTOS                                   0502
B2201400250000000016920STAPLERS INC.                                            1601
A0101407720000004664882PARRA, OPHELIA DUCUSIN                                   0501
A0101407720602228071001ANGELITA V. TORRES                                       0501
A0101412180000010748133SAMSON IV, EMMANUEL RAMOS                                0501
A0101404260611526256001RUBEN, MARICAR SIOBAL                                    0501
A0101409920000000022099DELA VEGA, ANTONIO S. OR                                10501
A0101409920000000022099DELA VEGA, IMELDA                                       20500
A0101413440000002846320DIVINAGRACIA, CARMELA OR                                10501
A0101413440000002846320DIVINAGRACIA, MA                                        20500
A0101413570000000206351**********                                               0501
A0101413570000000206260AC SHOWEREN 2000                                         0501
A0101413990000002273941CARAMANZANA, EDGAR MABORANG                              0502
A1301400500684762106001VICEO III, JAIME S.                                      0501
B0101408240000000832973DSiGLOBAL, INC.                                          1605
A0101408240711292756001CRIS OR HERMINIA TAGAYUN                                 0502
A0101408240711427132001SORIANO, AVELINA                                         0502
A0101408240711593767001JOCSON, ARLENIE TELEBRICO                                0501
A2801400100000006279792VEDAJA, SANDY MIRAVALLES OR                             10502
A2801400100000006279792ONG, WILLIAM OCAMPO                                     20500
A4101400390813478374021JERESANO, ASUNCION L.                                    0501
A0101412340000003340930GERALD D. AUSTRIA                                        0501
A0101412340000010628823ANTONIO M. TORRE JR.                                     0501
A0101404840000000683443EVELYN FRIAS                                             0502
A0101405070861478374066ELMER LADRES APAS                                        0501
A0601400230000001062479**************                                           0501
