F1901400290261039254006DR ERMIN EDGARDO R ONA                                   2502CKO
F1901400290261040304001ALICE ESTOLANO DE CASTRO                                 2502CKO
F0101408400394030029001KEVIN'S KUT BARBERS, INC.                                2603CKO
F4101400260000001673394CANTIMBUHAN, MARIA PATRICIA AUS                          2502CKO
F4101400390813039856004PAMINTUAN, PHILBERT                                      2502CKO
