B0101401670271821100608**********                                               2010
B0101400440161821100608**********                                               2005
A0101402060351434359001USON, RODOLFO RODRIGUEZ                                  0501
A0101402060000009179495CARLOS, CORAZON ALIMARIO                                 0502
A0101402060000002258897***********                                              0503
A0101402060351036454001TRITECH TRADING                                          0501
A0101400860011426836001*********                                                0502
A0101401250021334915002BLANQUISCO, NICARDO PALCES OR                           10501
A0101401250021334915002BILON, ERWIN BLANQUISCO                                 20500
B0101401250021821100608**********                                               2002
A0101400150000006004386DELA CRUZ, JAY BALDERAMA                                 0502
A0101400150061337098171LINDA LIM HONG                                           0501
A0101400150061531842002**********                                               0501
A0101400150061688090001WHITWORTH, STEPHEN JOHN                                  0501
A0101400150000000052924UY, RICHARD SHEUNG TAT                                   0501
B0101405810072011448001C.P.P.C CONSUMER PACKAGING PRODUCT CORP.                 1603
B0101405810000005943320D.W. PLASTIC CORPORATION                                 1602
B0101405810072412798001**********                                               1603
B0101405810072412798002**********                                               1603
B0601400100081040295003ANGELES BEACH CLUB RESORTS CORP.                         1601
A0601400100081383884001ARCENAS, MA. SHEILA DEMETERIO                            0502
A0601400100000007599522EMBORONG, LAARNIE VILLACRUSIS                            0502
A0601400520000009516532MEDINA, JASMIN MITMUG                                    0501
B0101413730000001568436********************************                         1603
B0101413730000003715780**********                                               1601
A0101410560000003562116**********                                               0503
B0101410560000005280688ELIZA N. ADIAO OR                                       11601
B0101410560000005280688MARLON G. ADIAO                                         21600
A0101410560000001944174ROWENA PADILLA FRANCIA                                   0501
A0101400730111203514025EDITO C. VERBA                                           0502
A0101400730111203514058MARY ANNE CUARTERO                                       0501
A0101400730111472699002LARGA, ANGELITA ZOLETA                                   0503
A0101400730111651286001DE CASTRO, MARIA CECILIA BEJER                           0501
A0101401960121238703001**********                                               0502
A0101413310000005433147CONCEPCION, TERESITA GUINTO OR                          10501
A0101413310000005433147CONCEPCION, ANTO                                        20500
A0101413310000004735724DOMINGO, CHARMAINE SALVATIERRA                           0502
B7201400170000003773524JUSTINIANO, MARIO L. AND DELOS SANTOS                   11602
B7201400170000003773524MARIA THERESA M.                                        21600
A7201400170000003774323RESURRECCION, LORILIE TECSON                             0502
A5001400170000000044982URBAN PAINTS & MORE ENTERPRISES                          0502
A5001400170000000213761ISAW, NEIL JOHN ATAYAN                                   0501
B0101400440161022597001PHILMAN POWER CENTER INC.                                1612
A0101400440161027568001GARB CLOTHING COLLECTION                                 0501
A0101407270000010200667JAMLIG, CARLO RAMIRO BUENAVENTU                          0502
A0101407270162402587002MA. LOURDES L. SEVILLA                                   0503
A0101401090171608247001MARYANN O. ALEMANIA OR                                  10502
A0101401090171608247001JOHN ALDRIN P. EBIO                                     20500
A0301400530193751613001NAVARRO, CARIJON B.                                      0501
A0101401380201554626001BANGURAN, MYRNA BRINGAS                                  0501
B0101412500000000739737MIKEWELL WORLD OF HOUSEHOLD PRODUCTS                    11610
B0101412500000000739737CORPORATION                                             21600
A3101400160221533265001DR. ROMAN C. SY QUI  OR                                 10510
A3101400160221533265001MRS. EVELYN SY QUI                                      20500
A1001400190231520766049JOCELYN S. LLUBIT                                        0501
A1001400350233599284001ELEAZAR, NANCY CONCEMINO                                 0502
A1301400470252478374028NORMA S. BALLESTEROS                                     0506
A1301400760000002346016NIO A. LATINA                                            0501
B1901400290261013980001VIC IMPERIAL APPLIANCE CORP.                             1602
B1901400290261027293001LIPA MEDICS INC.                                         1620
A1901400290000001363042SIASON, JEMALYN P.                                      10505
A1901400290000001363042DBU VONHESSEN TRANSPORT                                 20500
A1901400290261405037001DENNIS LINATOC ATIENZA OR MARIA                         10502
A1901400290261405037001SOCORRO KATIGBAK ATIENZA                                20500
A1901400290261488341038DR ALICE L LACORTE                                       0502
A1901400290261488341070ALICE ESTOLANO DE CASTRO                                 0503
B0101401670000008000831JACKPHARMA INC.                                          1601
B0101406620000009695210WELLNXT CORPORATION                                      1605
A0101406620273213498001JORGE, LEILA EBORA OR                                   10502
A0101406620273213498001JORGE, ROBERT                                           20500
B0101410980000000171997FUNTOURS TRAVEL CORPORATION                              1601
A0101411820000003838197CLAUDINE RODRIGUEZ                                       0501
A0101400570000003891492REBIBIS JR., FELIPE GOJAR                                0502
A0101400570000003891492REBIBIS JR., FELIPE GOJAR                                0502
A0101400570281646076001SARAH MAE C. ONGJOCO OR RYAN                            10501
A0101400570281646076001GREGORY ONGJOCO                                         20500
A0101400570281706972001**********                                               0502
A0501400200000006272197AQUINO JR., RICARDO MUNOZ                                0502
A2001400290000008502196TEMBLOR SR., FLORIDO VILLAGONZA                          0501
B2001400290315636080001LIM, HERBERT VALDE OR                                   11601
B2001400290315636080001LIM, HENRISA                                            21600
B2001400290315746119001CAROLINE L. OR RONARD FIL L. OR CRISTY                  11602
B2001400290315746119001MARIE L. BUHISAN                                        21600
A3401400280318085116001GALINO, RODELIA VILLARUZ                                 0501
A3401400280318740628001MALAPAJO, RAYMOND DANGDANG                               0503
A0101402350321478374008VICTORIA ELLE                                            0501
B0101405650322022799004FUEGO LAND CORPORATION                                   1601
B0101405650322022799005FUEGO LAND CORPORATION                                   1601
A0101402060351378845001MARAMAG JR., CRESCENCIO BUCAD                            0503
A0101402060351380733002UY, ANNA LISSA GAW                                       0502
A0101409050000011130502ALEJANDRO, ARVIN CRUZ                                    0501
A0101402930000007013470SEDO, FATIMA IVY FERNANDO                                0501
A0101402930000010657822HONG, JEONG KI                                           0502
A0101402930381658198001MORENO, ABEGAIL VASQUEZ                                  0501
A0101408790000010423280REAL, JULIETA D.                                         0501
A0101411660000010561963YACAP, HAZEL ANN IRLANDEZ                                0510
A0101408400394506485001EBAJAN, ALEX BERGADO                                    10501
A0101408400394506485001OR EBAJAN, MERCE                                        20500
A0101408950396563004001ERIC VIDAD NAGTALON                                      0505
A0101409180000001694271LARRAZABAL, MARIA VICTORIA                              10503
A0101409180000001694271MORENO                                                  20500
A0101409180000008700167SUBA, LORDWIN GONZAL                                     0501
B0101409180397044045001CACHO CONSTRUCTIONS, INC.                                1603
A5501400120000002019090PENDON, NIXONLIE PASTRANA                                0503
A5501400120000002019103PENDON, VENISE NICHOLE VILLOREN                          0503
A5501400120000006976870DUQUE, EDUARDO MANGALINDAN DBU                           0505
A5501400120000009875609CHIU, JULIA EILEEN ROBLEZA                               0501
A0901400220000000012299GAYON, MARINA TACHADO                                    0502
B0101403030441039990001TOPTRUCK ENTERPRISES                                     1601
B0101403030441314128003**********                                               1601
A0101403030441390145001**********                                               0502
A0501400170481253841003VINLUAN JR., JOSE D.                                     0501
A0501400170481392485001REYNALDO AGAS OR ROSALIA AGAS                            0502
A1901400320000009104307DE CHAVEZ, JOSEPHINE BORBON                              0501
A3801400170000002302881GARCIA, ROMULO LOPEZ                                     0501
A1401400110492246101001DE VILLA, MADGELINA AURE                                 0501
A1401400110492386736001***************                                          0504
B0101407430000000035305SUREWELL EQUITIES, INC.                                  1603
A0101407430503403861001AIDA P. PANCHO                                           0502
A0101403580511026941001CECILIA NARVAEZ Y DISENOS                               10502
A0101403580511026941001INTERIOR                                                20500
A0101403580511160530001MIRIAM F. BERNARDINO                                     0501
A0101403580511344093001**************                                           0510
B0101405940000005359691NEXUS INDUSTRIAL PRIME SOLUTIONS CORP                    1603
A0101408530000001268435RODIL, CHARITO PALMA                                     0501
A0101408530000006599651EMPLOYEES OF VXI GLOBAL HOLDING                          0502
A0101411400517230918001*******                                                  0501
A0101411790518055815050MISLANG, MARGARET ANN                                   10501
A0101411790518055815050RESURRECCION                                            20500
A0101411790518055815089PUZON, JOY DULVA                                         0501
B0101403450521011658001**********                                               1605
B0101403450521011756001**********                                               1602
B0101403450521029023001**********                                               1602
A0101403450521238114002**********                                               0502
B0101403610531067920001GICA ENGINEERING TECHN                                   1601
A2201400250561028327002******                                                   0502
A0101410690000003027501**********                                               0501
B0101404130601031478001ERGOTRONICS AUTOMATION ENTERPRISE CORP                   1601
A0101407720000005100092ANGELITO C. CURIMO                                       0501
A0101407720602313374002GODOY, GODOFREDO CARINGAL                                0501
A0101407720602396506002DR. ESTELA Z. CABRERA                                    0501
A0101407720602396595001DR. MILAN P. TAMBUNTING                                  0505
A0101407720602397448001GUERRERO, CARMENCITA GISBERT                             0503
A0101407720602471605001UY, HELENE BERNICE GO                                    0501
B0101404260611033056001OVT-GRAPHIC LINE INC.                                    1602
A0101404260611150856002CHING, WILLIAM OR TRINIDAD                               0502
A0101409920000000857989ABUYUAN, NORA G. OR                                     10502
A0101409920000000857989ABUYUAN, JIMMY G                                        20500
A0101413990000006768638***                                                      0501
A0101410300000006278766RIMANDO, CHITO DOMINGO                                   0501
B0101410300000005331737VETS IN PRACTICE, INC.                                   1602
A0101410300663776849001******                                                   0503
B1301400210682030509001FIRSTGRANT INC.                                          1606
B1301400500684046266001NORTHGATE PROPERTY VENTURES, INC.                        1602
A1701400230000005694113ALBANO, BENJAMIN JOSEPH EUGENIO                          0502
A1701400230693478374056ROSQUITA, RUENA PILAR                                    0501
B0101408240711028488001INTAS DESTINATION MANAGEMENT INC.                        1605
A0101408240000008160041MALICDEM, E DBU NAIC TRADING                             0501
A4101400420814478374030LIGAYA ILANO                                             0501
A0101404840851334120001MARY ANN R. PANGAN OR                                   10502
A0101404840851334120001JOHN NOEL PANGAN                                        20500
A0101406750000003393140FUENTEBELLA, JOCELYN PANGILINAN                          0501
A0101406750852043541001GRAFIX VENUE ENTERPRISE                                  0501
B0101406750000007097272BONA, MECHIE ROMAN DBU ANING'S VULC                      1601
B0101405070861080434001URBAN-STYLE AND SPACE BUILDERS INC.                      1601
A0101405070000006006086CHAN, OLIMPIA CALUGAY                                    0502
A0601400230000001687090GUTIERREZ, JOSEPH MONTES                                10502
A0601400230000001687090OR GUTIERREZ, MA                                        20500
