B0101400150061821100608**********                                               2010
B2401400180411821100608**********                                               2010
A0101413600000002276348FERDINAND S. ELLEMA                                      0501
A0101403320471400801001MARILEN I. CRUZ                                         10503
A0101403320471400801001OR DENNIS MICHAEL CRUZ                                  20500
B0501400170481256316001IMMIGRATION NETWORK SERVICES                             1610
A6601400120314615455001ESTANISLAO, CHRISTINE LAYON                              0501
B0101405940512045799001ID FURNITURE DESIGN, INC.                                1601
A0101405940512634442001LA-O JR., TOMAS CARMEN OR                               10503
A0101405940512634442001LA-O, LILIBETH C                                        20500
B0101413990000003182556PRECISE SOLUTION SECURITY AGENCY,                       11602
B0101413990000003182556INCORPORATED                                            21600
A0101406590662654870001ARIATE, ABONAVIS RAMOS                                   0501
A0101400860011234904002EDWIN PENA OR EMILIANA G PENA                            0502
A0101400860011235553001**********                                               0502
B0101400860011394544002**********                                               1602
A0101400860011449960001**********                                               0501
A0101400860000001005434**********                                               0502
A0101400860000005312890**********                                               0502
A0101401250000000906861GATDULA JR., CESAR SAN JOSE                             10501
A0101401250000000906861OR GATDULA, CESAR FERRER                                20500
A0101401250000000441103GATDULA JR., CESAR SAN JOSE OR                          10501
A0101401250000000441103GATDULA, PAMELA SANTOS                                  20500
A0101401250000002763346**********                                               0505
A0101401250021183346001RAYMUNDO, EUGENE GARCIA                                  0502
A0101401250021388051001GABRIEL, ARMI P. OR                                     10502
A0101401250021388051001GABRIEL, CARLOS I.                                      20500
A0101401250021583769001HERNANDEZ, CELIA OR SY, ABIGAIL                          0501
A0101401250021709429001VIVI B. ANCKERMANN OR CARLOS                            10501
A0101401250021709429001MICHAEL ERIC F ANCKERMANN                               20500
A0101400150000001422439IBARRA, MARIA CHRISTINA P. OR                           10501
A0101400150000001422439ESTACIO, TERESITA D.                                    20500
A0101400150000003601021DIALA, JEFFREY MARIANO                                   0502
B0101400150061033314001PACIFIC METALS CO., LTD.                                 1605
A0101400150061039916089LOCSON, HERNANI                                          0502
A0101400150061039917027TRONCOSO, ANICETO                                        0501
B0101400150061041993001FILPROGRESS CREDIT CO., INC.                             1602
A0101400150061231008001FILIPINAS T. PINSON                                      0501
A0101400150061417195001MA. CAROLINA C. HECHANOVA                                0501
A0101400150061469189001FERNANDEZ JR., PEREGRINO                                10501
A0101400150061469189001OR FERNANDEZ, JONAH                                     20500
A0101400150061521013001FLORIDA JR., GERARD ATADERO                              0501
A0101400150061712783001DY, DANIEL                                               0501
B0101405810072236433002NG, SHUK YU                                              1607
A0101405810072318492001CHUA, MARVIN CUA                                         0501
A0601400100081018703001RIN TIRE SUPPLY                                          0501
A0601400100081251783001ANTONIO, ADELA L.                                        0501
B0601400360083037368003CLARK INVESTORS AND LOCATORS ASSOCIATION                 1601
B0601400360000000978798GOLDEN FROST, INC.                                       1603
B0101413280000000041921GREENHILLS HEIGHTS CONDO ASSOCIATION,                   11603
B0101413280000000041921INC.                                                    21600
A0101400730000001822839UBINA, EDITHA TAROY                                      0505
A0101400730111042129002JONATHAN P. ALVARADO                                     0501
A0101400730111379924001**********                                               0503
A0101406040000010081460HUANG, XIAOHONG                                          0502
B0101406040000003547591WONG, ARACELI BERNARDINO DBU OCEAN                       1601
A0101401960000004419863***************                                          0503
A0101413150000011778159WU, YINHE                                                0503
A0101413150000011778228LIN, SHANMEI                                             0502
B0101413150000000082733******                                                   1601
B0101401830141026133001PONDO NG PINOY COMMUNITY FOUNDATION,                    11601
B0101401830141026133001INC.                                                    21600
B0101401830141026133002PONDO NG PINOY COMMUNITY FOUNDATION,                    11601
B0101401830141026133002INC.-HAPAG-ASA                                          21600
A7201400170000003772930PAMARAN, DAISY ANN NADALA                                0503
A5001400170000002288253YU, LEONARD OLIVAR                                       0502
A5001400170000002288300SEE DIET, SUSANA OR CORA OR                             10502
A5001400170000002288300SANCHEZ, NARCISA OR VASQ                                20500
A0101412920000000276460OBTINALLA, RODELIA NELMIDA                               0502
B0101412920160059095001TORIBIO, EMELY DUAY DBU HIC PRINTING                    11602
B0101412920160059095001SERVICES                                                21600
A0101407270000004915908LORENZO, TRICIA MARIE SOLANOY                            0501
B0101407270162046726001VALUE CARE HEALTH SYSTEMS, INC.                          1650
B0101407270162046726001VALUE CARE HEALTH SYSTEMS, INC.                          1650
A0101407270162085940001FERRER, SARA YEO                                         0502
A0101407270162623864001STEPHANIE JOYCE C. JOSE                                  0501
A0101407270000000043529LIM, MARION WILLIAM ONG                                  0505
A0101401090000002358767ADVINCULA, EDMUND ROJAS                                  0501
B0101401090171031067001EDWIN S. SANTIAGO ENTERPRISE                            11610
B0101401090171031067001CORPORATION                                             21600
A0101401090000000210293DE JESUS, LILIA C.                                       0503
A0101401090171202255003NARCISA N. TABIRARA                                      0502
A0101401090171310678002MARIA ISABEL T. ANCHETA &/OR                            10502
A0101401090171310678002RONALD ANCHETA                                          20500
A0101401090171362096001ROSE ANN H. BULAN                                        0501
A0101401090171413170001CECILIA OR MARIA FLORIZA                                10502
A0101401090171413170001BUENAFLOR                                               20500
B0301400530193691303188********                                                 1605
A0301400530193713405001CONDE, ARTHUR BARRIENTOS                                 0504
A0301400530000002318532LI, DENNIS JOSEPH TAN                                    0501
B0301400530193792821088LI, DENNIS JOSEPH T.                                     1601
A0301400660000005691745RUALES, NOEL GO                                          0501
A0301400660000005691756RUALES, NOEL GO                                          0501
B0301400660000000022835DURABOARD PACKAGING CORP.                                1605
B0301400950000001379648**********                                               1603
B0301400950000002115202GUEVARRA, GEMMA D. OR                                   11601
B0301400950000002115202GUEVARRA, ARTURO                                        21600
B0101401380201040863001SHARP TRAVEL SERVICE (PHILIPPINES), INC.                 1603
A0101410720000007843527YAO, ALBERTO SY                                          0502
A0101410720000009157273YAO, MAYE ANTHONIETTE TANG                               0502
A0101412500000000041567ALEGRE, JOYCE S. OR ALEGRE,                             10502
A0101412500000000041567JAMES CEDRIC Y.                                         20500
B0101413600000000206926GPRS-UNIFIED PRODUCTS                                   11602
B0101413600000000206926AND SERVICES INC                                        21600
A3101400160000002355762LUCIDO, MARKLIN ALCANTARA                                0501
A3101400160000012033406RAMIREZ, DANILO AGUILAR OR                              10501
A3101400160000012033406RAMIREZ, JEAN PAUNLAGUI                                 20500
A3101400160000013114128GERCAYO, ARMAN DBU POWER HANDLE                         10501
A3101400160000013114128ELECTRICAL SERVICES                                     20500
A3101400450223352819001FARAON, RIZALINA OR                                     10502
A3101400450223352819001BELEN, RHODORA                                          20500
A3101400450223612365001ARAGO, ANDREW HIZON RODA                                 0504
A3101400450223688913001GO, CLAUDE DERICK ROMY OR                               10501
A3101400450223688913001CLAUDE DELWYN LE                                        20500
B3101400740224054663001IM HOLDINGS INC.                                         1601
A3101400870000013372793GONZALES, GERRY CASTILLO                                 0501
A3001400130230478374236SALES, CHARRIE ANN SINGCO                                0502
A1001400190231274963001CAPITAN, JOHN A.                                         0502
A1001400190231520766083ASUNCIONITA G. ALBULADORA                                0501
A1001400190231520766112ALIBIO, NELYBETH TACBOBO                                 0501
B1001400350233036049001RANTRADE INDUSTRIAL SALES CORPORATION                    1601
B1001400350233040744001GOLDCREST MARKETING CORPORATION                          1603
A1001400350233272028001MAANDIG, ERLINDA B. OR                                  10503
A1001400350233272028001MAANDIG, CARLSTO                                        20500
A1001400350233478374001JUNIO, ROGELIA A.                                        0501
A1001400350233782517001TAN, GEMMA GO OR TAN, KENNETH                           10501
A1001400350233782517001SZE                                                     20500
A1001400480000000133213GAVINE, MA. GEMMA TERESA LLAMAS                         10501
A1001400480000000133213OR GAVINE, GERARDO ARCE                                 20500
A1001400480000010131521MANINGO, CHRISTIAN TOBIAS                                0501
A1001400480000012612190JABAR, JOJO BORJA                                        0501
A1001400480000010131776ROSALES, WHITNEY SAQUIN                                  0501
A1001400480000012715725SALVANA, BERNARD LAO DBU MADELI                         10502
A1001400480000012715725NE PARK AND RESORT                                      20500
A1301400470252452159001NELLIE STA. ROMANA OR                                   10502
A1301400470252452159001CYNTHIA LEABRES                                         20500
A1301400760000011058370SOLIMAN, MARILYN FIGUEROA                                0501
A0101401670000000739082KO, ROY VELOSO OR NACAGUE,                              10501
A0101401670000000739082WATSON CHUA                                             20500
A0101401670000000739106RELUCIO, RENDL JAMES CHUA OR                            10501
A0101401670000000739106NACAGUE, WATSON CHUA                                    20500
A0101401670000009425583SOLEDAD, EMERITO JOSE SURRIGA                            0503
B0101401670000004588490H.S. POW CONSTRUCTION AND DEVELOPMENT                   11603
B0101401670000004588490CORPORATION                                             21600
A0101401670271383413002NACAGUE, MIDY CHUA                                       0501
B0101406460272022607001MEDBANC, INC.                                            1601
B0101406460272031330001BISHOP-HAIL KING JESUS SANCTUARY OF THE                 11602
B0101406460272031330001LIVING GOD, INC                                         21600
B0101406460272038032003WEE COMMUNITY DEVELOPERS, INC.                           1601
B0101406460272038141001LIMKETKAI HOTEL & RESORT CORPORATION                     1601
A0101406460000001231430**************                                           0505
A0101406620000004925975TAN, RYAN PATRICK CO OR                                 10501
A0101406620000004925975KRISTEL TAN                                             20500
A0101406620000010983021ROSANO, GENEVIEVE RUBIA                                  0502
B0101406620273031145002KOHL INDUSTRIES CORPORATION                              1601
B0101406620273046907001RS CONCEPTS, INC.                                        1605
B0101406620000000015050SOLAR SECURITIES, INC.                                   1601
B0101406620000000194110ICONIC ADVANTAGE INT'L., INC.                            1601
B0101406620273459504001SANOSIL PHILIPPINES INC.                                 1601
A0101406620273636752001RELANO SR., ROLANDO GALOPE                               0501
A0101408660274629073001SALAZAR, ABEGAIL BERNARDO                                0503
A0101408660274629076001SALAZAR, ARMIDA BERNARDO                                 0503
A0101408660274629080001SALAZAR, ANGELA BERNARDO                                 0503
A0101408660274642352001GAVIOLA, ROSEMARIE SEMANA                                0501
A0101408660274642352002**********                                               0501
A0101408660000002264859CONTRERAS, KARL TAN                                      0501
A0101410980000000171913**********                                               0501
B0101411110000003202080CROSSFOODS CORPORATION                                   1601
B0101412470000003847507SUGARLAND GLOBAL HOLDINGS INC                            1602
A0101400570281419209005SENERIZA C. ITULID                                       0501
A0801400160000001031423RICARDO P. PROVIDO, JR.                                  0501
A0801400160311360952001SARAZA, SEGUNDINA S. OR                                 10501
A0801400160311360952001SARAZA, JERRY                                           20500
A0801400160311478374057JUNIEH CHRISTINE S. HALABA                               0501
A6601400120000013346715ROSALES JR., FRANCISCO C.                                0501
B6601400120000002978085QUIDILLA, RICARDO MACROHON DBU                          11606
B6601400120000002978085SAMBO BAKESHOP                                          21600
A6601400120314668441002MASLOC, SHERRY AMOR GALONO                               0501
A3401400280000006791100FERNANADO D. BEGAS JR.,                                 10502
A3401400280000006791100DBU BEGAS MERCHANDISING                                 20500
A0101402350000005645121DANAO, LINO DBU L 2 AUTO SHOP                            0501
A0101402350321519289001ABUEG, JOVENCIO GALAURAN                                 0501
A0101402350321685475001WANG, JONG - TING                                        0501
B0101405650322043993001DANSART ANGELS ACADEMY, INC.                             1606
B0101405650000000772703BASE SECURITY AGENCY & INTER - INV. INC.                11605
B0101405650000000772703BSAI                                                    21600
A0101405650322488260001BARREDO, CARMENCITA CALIXIHAN                            0502
A0101402510000002221994CALMA, RONALD ALFONSO ROSALES                            0502
A0101402510341407138001**********                                               0501
A0101402510341541150001SUMILONG, ANNA CHRISTINA A. AND                         10502
A0101402510341541150001SUMILONG, ROMMEL                                        20500
A0101402060000000445492BATE, ALICIA CEDRO                                       0501
B0101402060351009394001CHEMSERVE INC.                                           1604
B0101402060351009459001CHATEAU VERDE CONDOMINIUM CORPORATION                    1603
B0101402060000000653907LAY BARE SUPPLIES DISTRIBUTION                           1605
A0101402060351217441047CLARIZA C. EMALADA                                       0501
A0101409050000003533617RANOLA, JAY TORRES                                       0501
A0101409050000002775535COLICO, LORELYN CORRE                                    0501
A0101409050000002333302ABAD, NICANOR CASTILLO                                   0501
A0101409050352647812001MARIA LUISA L. SAPORSANTOS OR                           10503
A0101409050352647812001JOHN PAUL P. BAN                                        20500
A0201400760000000222911SALIOT, IRENE ASTURIAS GUIDO                             0501
A0201400760000002047263MANGIO, APOLINARIO TAPNIO                                0501
B0201400760000007134341CLS PROPERTIES INC.                                      1601
B0201400890000013371687GLOBAL  AUTODISTRIBUTION INC.                            1601
B0101402930381006047001GTWJ FOOD CORPORATION                                    1601
B0101402930381008843001BASIC HOUSING SOLUTIONS, INC.                            1605
A0101408370000005220119ROGADOR, DAISY SANTOS                                    0501
A0101408790000002031390*****                                                    0503
A0101408790000002031430BARRAIRO, DANIELLE CARILLA                               0501
A0101408790000002031492AGUILAR JR., ERNESTO VERONA                              0502
A0101408790000002326143MUTIA, CYRUS VAN NADELA                                  0502
B0101408790383025471002JOBS DB PHILIPPINES INC.                                 1603
B0101408790000000599880HANSTON COMMERCIAL AND INDUSTRIAL                       11602
B0101408790000000599880CORPORATION                                             21600
B0101408790383046886001GUEVENT INVESTMENTS DEVELOPMENT                         11601
B0101408790383046886001CORPORATION                                             21600
A0101411660000000489345ACIERTO, MARY GRACE MOJICA                               0502
A0101411660000002309371RAJAN BHAGWANDAS GIDWANI OR                             10505
A0101411660000002309371MAYA BHAGWANDAS                                         20500
A0101411660000008590427MENDOZA II, VIGOR DE DIOS                                0503
B0101411660000005434782G-MAX ENVIRONMENTAL SOLUTIONS INC.                       1603
B0101402770391009441001ST. ANTHONY HOMEOWNERS' ASSOCIATION INC.                 1602
A0101402770391409631001MARIA CECILIA M. SOTELO                                 10501
A0101402770391409631001OR DELFIN ARTEMIO SOTELO                                20500
A0101402770391529757012CORPORAL, JOSEFA ARLEN MURILLO                           0501
B0101405490392006536003GEMINI INTEGRATED SERVICES, INC.                         1605
B0101405490392044852001NGE METALS & GENERAL SERVICES CO.                        1605
A0101405490392170191001MADONA S. GALUTERA OR                                   10502
A0101405490392170191001BENJAMIN GALUTER                                        20500
A0101405490392375066001LEE, CHUL WOO                                            0502
A0101405490000006241943MINERVA V. VILLACORTA                                    0501
B0101408400394022813001PHILIPPINE RESEARCH & MARKET INFORM                      1601
A0101408400000001035421ANGELICA BIRTHING HOME AND                              10501
A0101408400000001035421PEDIATRIC PRIMAR                                        20500
A0301400820000002272022ENCALLADO, LUZETTE C.                                    0505
A0301400820000010546562BULILAN, EMILIA MURCIA                                   0501
B2401400180411029556088RELL & RENN FISHING CORPORATION                          1601
B2401400180411032398088ECCO HARDWARE, INC                                       1610
B2401400180411037037001GENSAN FEEDMILL, INC                                     1605
B2401400180411042576001PRIMERA CASA PROPRIEDAD, INC.                            1601
B2401400180411276067001GAISANO DADIANGAS, INC.                                  1610
B2401400180411289413008CABALLERO, MARIVET SABANDO       JT                      1601
B5101400100000010833957GAW, AIRY LUNA JT                                        1603
A5101400100000010834078GABRINO, GENEVIEVE CHINGBEE TUL                          0501
B0101403030441658787002**********                                               1602
A0101412890000011812952CLUTARIO, MEMAR TOLENTINO                                0504
B0101403320000000037625PASTURE TO PLATE AGRIBUSINESS, INC.                      1602
A0101403320471670043001ANTHONY DI RAMOS OR                                     10501
A0101403320471670043001NANCYLINA DI RAMOS                                      20500
A0101406330000004349720DOLORSO, MELISSA BUENAFE                                 0501
B0101406330472041267001**********                                               1601
B0101406330000000162650QUEEN-S INTERNATIONAL TRADING COMPANY                   11604
B0101406330000000162650INC.                                                    21600
B0101406330000000162672MSA LORRY HAULING SERVICES CORP.                         1602
B0101406330000000162690SOLUTIONS CENTER INC.                                    1601
B0101406330000000162730BMS TAGORDA COMPANY INC. DBU GOLDENHILLS                11601
B0101406330000000162730MOTORISTS CENTER                                        21600
A0101406330472469822001MARY MELODY L. TANADA                                    0501
A0101406330472691386001EDILBERT HOMO GERONIMO                                   0501
A0101412760476090895001EUGENIO SAN BUENAVENTURA III                             0502
A0101412760476092442001TAYAG, RODRIGO PALISUC                                   0501
B0501400170481038907001JODERON AUTO SUPPLY                                      1605
A0501400170481039121001NORTHERN WATCH NEWSPAPER                                 0501
A0501400170481254124001FUERTES, YOLANDA SOTELO                                  0501
A0501400170481294192001ROMERO, REYNALDO VALDEZ                                  0501
A1901400160000013233317MAGADIA, MYRA                                           10501
A1901400160000013233317OR MAGADIA, EMETERIO                                    20500
A1901400160000013233471MAGADIA, EMETERIO                                       10501
A1901400160000013233471OR MAGADIA, MYRA                                        20500
B1901400160491064889001HATAW ENTERPRISE INC.                                    1603
A1901400160000009055027LOURDES CLEOFE OR TARA DENISSE                          10502
A1901400160000009055027CLEOFE OR AKIM CLEOFE                                   20500
A1901400160491378812001LERMA D CALINGASAN                                       0501
A1601400170000000497558NORMITA A. JACOB                                         0501
B0101407430503039663001ACES CHASSIS MANAGEMENT AND MARKETING                   11610
B0101407430503039663001CORP.                                                   21600
A0101403580000010176980GAMBOA, MARC PAUL NICOLLETTE EN                          0503
B0101403580511005202001151 CONDOMINIUM CORPORATION                              1601
B0101403580511015363024MILLENNIUM ERECTORS CORPORATION                          1610
A0101403580511350749001BENJAMIN D. TANEDO JR. OR                               10501
A0101403580511350749001BERNADETTE G. TANEDO                                    20500
A0101403580511369331001BETTINA YAPTINCHAY OR                                   10502
A0101403580511369331001PHILIP YAPTINCHAY                                       20500
A0101403580511369331002BETTINA DE JOYA YAPTINCHAY OR                           10502
A0101403580511369331002PHILIP Z. YAPTINCHAY                                    20500
A0101403580511488405002GAYA, MARLON CASTILLO                                    0501
A0101403580000005328683DELA CRUZ, BRAD NEIEL TOBIAS                             0502
B0101405940512038013001CORINTHIAN COMMERCIAL CORPORATION                        1601
A0101408530000013378184ALQUIROS, MARIA ANDREA ROXAS                             0501
A0101408530516548003001*************                                            0504
A0101408530516662907001OTEYZA, MARIA ISABEL VALLERO                             0501
A0101411790000000005881WONG, JUNEDITH LONTOC                                    0501
B0101411790000005537060CITY & LAND DEVELOPERS, INCORPORATED                     1601
B0101411790000005537059CITYLAND, INC.                                           1601
B0101411790000005537048CITYPLANS, INCORPORATED                                  1601
B0101411790000005537071CITYLAND DEVELOPMENT CORPORATION                         1601
A0101412050000011229251FRANCO, JASPER YAPE                                      0501
B0101403450521017017001*********                                                1604
A0101403450521239151001**********                                               0504
B0101403610531046502001SAN PEDRO APOSTOL PARISH                                 1603
B0101403610000000015921NEO SATELLITE TV DISTRIBUTION CORP.                      1601
B0101403610000000015932NEO-TECH ASIA DISTRIBUTION INC.                          1601
A0101403610531219572001DR. JAIME A. BARRON                                      0502
A0101403610531232548002MORANDO, TEOFILO ALMENDRALA                              0502
A0101403610531359244001ESQUIVEL, ROBERTO PUNZALAN                               0504
A2201400250561308260001*****                                                    0501
A2201400250561405717001EUGENE Y. GO                                             0501
A2201400250000004916092DE GUZMAN, FRANCES MANIALONG                             0501
A0101410690000000498404CABALLERO, ROSALIA TAPIA                                 0503
B0101404130601047436001SHEFA BASILEIA INC.                                      1601
B0101404130000005017710E.T. TOBIAS DEVELOPMENT CORPORATION                      1602
B0101404130601100127001TOYOTA TSUSHO CORPORATION                                1601
A0101404130601279015001RUWEL W. LOYOLA                                          0501
A0101407720000003886933PAREDES, DEANNA JEAN PEREZ                               0501
A0101407720000004664400LIM, LOVE LEE                                            0501
A0101407720000004664502IBON, MARIA ROSVEMIN VIERNES                             0501
B0101407720602005968001MEDICAL PLAZA MAKATI CONDOMINIUM                        11605
B0101407720602005968001CORPORATION                                             21600
B0101407720602005985001MONTEMAR MANAGEMENT &                                   11601
B0101407720602005985001DEVELOPMENT CORP                                        21600
B0101407720602018717001WORDTEXT SYSTEMS, INC.                                   1602
B0101407720602028264002NATIONWIDE DEVELOPMENT CORPORATION                       1603
A0101407720602161854002**********                                               0501
A0101407720000000245203*********                                                0501
A0101407720602166820002CUA, DIANA ONG                                           0501
A0101407720602355070002SHERYLL MAGALIT-CORNEJO OR                              10502
A0101407720602355070002CARLO CORNEJO                                           20500
A0101407720602396333002RAJAGUKGUK, BELEN PANTANGCO                              0502
A0101407720602397349002MARIN, MA. ROSARIO PASCUAL                               0502
A0101407720602427225001MADRID JR., MARIO GARCIA                                 0502
A0101412180000002340734ESPINA, FELIX CANILLO                                    0501
A0101412180000002340574DE DIOS, JENNIFER KRISTINE M                             0501
A0101404260611158866001BEROY, ARMANDO E.                                        0501
A0101404260611445556001MONSOD, BENELIZA SALA                                    0501
A0101409890000006277730QIU, LIAO OR DE JESUS, WILTON                            0501
A0101409890649047047001**********                                               0510
B0101409890649053745001AVESCO MARKETING CORPORATION                             1601
A0101409920000001539420PADUA, ANTHONY MILLAN                                    0501
A0101409920000007304685MONTILLA, JUSTIN JONAS ANDRADA                           0501
A0101407690652020765001STARIAN MARKETING                                        0505
B0101407690652039085001JUNBEL INDUSTRIAL SYSTEM CORP.                           1602
A0101407690652478374014MA. CECILIA TERESA PALOMA -                             10501
A0101407690652478374014DEALERS OF SHOEC                                        20500
A0101407690652517989001FLORANO, GUILBERTO COYOG                                 0502
A0101407690652520766005GILNNA M. MALIGAT - DEALERS OF                          10501
A0101407690652520766005SHOECAT INC.                                            20500
B0101413440000013118815HERRERA, KENNEDY LAPIRA AND BADILLO,                    11601
B0101413440000013118815NICOLE JUNE                                             21600
A0101413570000004353913VILLA, MA ASUNCION GOCO                                  0501
A0101413570000013194377KALINGKING, PATRICIA ISABELLE V                          0501
A0101413570656057648188MA. CHRISTINA ONG                                        0501
A0101413570656057648243GINA B. SANTOS                                           0502
A0101413990000013380422G2G ACCOUNTING SERVICES                                  0501
B0101406590000013379267SUGARLICIOUS CORPORATION                                 1601
B0101406590000013379507SHIKER CORPORATION                                       1601
B0101406590662022516001CYBERTECH BUILDERS, INC.                                 1601
B0101406590662033680001STA. MARIA DELLA STRADA PARISH                          11601
B0101406590662033680001FINANCE COUNCIL                                         21600
B0101406590000000905522FHREG SENTRI CORP.                                       1605
A0101406590662209694001MOZO JR., VIRGILIO DELA CRUZ                             0501
A0101406590662411701002YARA, MELISSA ANTONETTE ALONZO                           0502
A0101406590662542232001RUEL CHANCO OR MA. ROSARIO                              10502
A0101406590662542232001ARLENE CHANCO                                           20500
A1301400210000001206751SANTIAGO, MA REMEDIOS OR                                10501
A1301400210000001206751SANTIAGO, DOJOE                                         20500
A1301400340683385493002ORBE, SUSAN JUSON                                        0506
A1301400340683467501001ROBERTO P. BANIGUED                                      0503
A1301400340683476579001BORDADOR, CRISANTO DAZO                                  0504
A1301400340000000100374PRADO, ERLINDA SORIENTE                                  0501
B1701400230693027330004ALTHEA CONSTRUCTION                                      1601
A1701400230693047090001DUQUEZ, ROL DBU MACKRYSTAL                              10501
A1701400230693047090001CONSTRUCTION SUP                                        20500
A0101408240000009453038ROJAS, CARMENCITA SORIANO                                0502
B0101408240711027476003PARTY KITCHEN CATERING SERVICES                          1602
B0101408240711029799002PERRY'S FUEL DISTRIBUTION, INC.                          1605
A0101408240711384722001ESMERALDA B. PAJARON                                     0501
A2801400230713308421001BASTO, LORALIE DELA CRUZ                                 0501
A4101400260000001783946GUICO, LOURDES MALUTO                                    0501
B4101400260000005724181SERENITA INC.                                            1601
A4101400260812444997002MARY ANN SAN DIEGO OR                                   10503
A4101400260812444997002ANTONIO SAN DIEGO                                       20500
A4101400390000000500610RONALD U. DE ROXAS                                       0505
A4101400390000003346085MICHELLE A. CO                                           0501
A0101412340000003438715DELA CRUZ, CIELO NAVAL                                   0501
A0101404840000009615994ALCARAZ, MA CARMEN JIMENEZ                               0501
A0101404840000013382213JAVIER, SAM MEDALLA                                      0502
A0101404840000013382253PINEDA, CECILIA INFANTE                                  0502
A0101404840000013382297REGIDOR, JUDELYN TIRO                                    0502
A0101404840000013382355RIOJA, KIRBY AARON FLOYD PAREDE                          0501
A0101404840851410953065VICTORIA O. PAMPLONA                                     0502
A0101404840851520766105ALICAWAY, HELEN                                          0501
A0101406750000002950894RATCLIFFE, CELYNITA SIMEON                               0502
A0101405070000000028851SAMPAGA, AMADOR INOSANTO                                 0501
A0101405070861480682001KING CHUA, ARISTOTLE RAYMOND R.                          0502
A0601400230000001687163GOPEZ, PRINCESS MARIE DIAMZON                           10501
A0601400230000001687163OR GOPEZ, MARIVIC                                       20500
A0601400230000003015823ALURA, JIMMY SUENO                                      10502
A0601400230000003015823OR ALURA, MERLE                                         20500
B0601400230891012908002JRS BUSINESS CORPORATION                                 1603
B0601400230891035721001GTD PRIME FORTUNE CORPORATION                            1601
B0601400230891039268001GOLDIE PLUS LENDERS, INC.                                1610
