F0101401250021421264001S. BASCON HOLDINGS, INC.                                 2601CKO
F0201400180181031734001**********                                               2601CKO
F0201400180181444704001ROBLE, JOSE EMERY FULACHE                                2510CKO
F0101400570281506759001EDUARDO ROMMEL S. POBLETE                                2503CKO
F0101400570281509334001PASOL, ESTEBAN ANABO                                     2501CKO
F0101407720602430823001CRISTINA ALEXANDRA B. HENARES                            2503CKO
F0101414670000001340652COLOSSUS STEEL & CONSTRUCTION SUPPLY                     2601CKO
F4101400130811028357002978 ELECTRICAL SUPPLY & GENERAL                         12608CKO
F4101400130811028357002MERCHANDISE                                             22600CKO
