F3201400190000001493023CERIA, KATHRENE TADENA                                   2501CKO
F4101400260812503272001**********                                               2504CKO
F1301400210682306066002JUANITA D CABRERA OR                                    12501CKO
F1301400210682306066002JAYNIE D CABRERA                                        22500CKO
F0101409500000000217109ASPEN CONSTRUCTION & DEVELOPMEN                          2601CKR
F4101400420814016644004EMI EMPLOYEES DEVELOPMENT                               12605CKR
F4101400420814016644004COOPERATIVE                                             22600CKR
F0201400180181080425001MR INTERNATIONAL CONTAINER YARD INC                      2701CKC
