A1301400210000000023309JERRY R CALING                                           0502
A4101400390000000034113MALAJITO, ERLINDA SERRANO                                0501
A0101409180000000036746CRUZ, LEA ESTANISLAO                                     0501
A0301400660000000048315UY, OCTAVIO WEE                                          0501
A0101400150000000053192MILLANES, VIVENCIO BAUTISTA                              0501
A2801400230000000063170CHANLIONGCO, GERRY DAN CASTRO                            0501
A0301400530000000065865ARASA, NICOLAS                                           0501
A0301400530000000066000BORDIOS JR., HERMES SAGA                                 0502
A0101411530000000178905**********                                               0501
A0101407720000000245076SANSANO, OLIVER MONTENEGRO                               0502
A0101408240000000347493COLLANTES, MA. CORAZON TARNATE                           0501
A0101412340000000348236OGALESCO, JOLLY MAE MARQUEZ                              0502
A0101402350000000443252********                                                 0501
A0101401250000000460531ROSCO, EFREN FAJARDO                                     0502
A0101410140000000499054SANSON, N DBU V.A.N.C. GENERAL                           0501
A0101412470000000520209STA ROSA, PATRICIA MAE MARTINEZ                          0501
A0101405650000000525853IMELDA B. VILLALON                                       0501
A0101404260000000532261GARCIA, AUGEN MILLAN                                     0501
A0101406590000000568930JOSE, EMMANUEL NOEL MARAVILLA                            0501
A0101406590000000568941ANTONIO, RICHARD JASON MANRIQUE                          0501
A0101408530000000594230DE VERA, JENNIFER BARELLANO                              0501
A0101404840000000683552SEVILLA, MARIA CECILIA OLIVAS                            0502
A0101407720000000713171TOMAS, ANGELICA CECILIA VELASCO                          0501
A0101400150000000807209DE MESA, RAMON SANTOS                                    0501
A0101410560000000848733PANGILINAN, MARIO AMIEL CORTEZ                           0501
A0101401830000000865123ENSOMO, ENRICO MARQUIS PLARIZAN                          0501
A0101414120000000875823RMANTRADE ENTERPRISE                                     0501
A0101403450000000889318********                                                 0501
A0101409050000000939271JAMOLIN, MELISSA PARCO                                   0501
A3401400280000000972783DELA CRUZ, EMILIO BILLONES                               0501
A3401400280000000972794BELUSO, ALONA DELA CRUZ                                  0501
A4101400260000000974089BONGLO, JAIMIE LOUISE MIGUEL                             0501
A1301400210000000983779MALLARI, MARLENE MANANSALA                               0501
A0301400530000001009950RAZ, REX P.                                              0510
A0301400530000001010011GOLOCINO, CONCORDIA A.                                   0501
A0101412340000001017816MARANAN, JENNIFER GONZALES                               0501
A1001400190000001057589NORMALIS C. REYES                                        0501
A1401400110000001096191CORBES, MARILOU RUSTRIA                                  0501
A0101414120000001142841WENCESLAO, ANTONIO BOJA                                  0501
A3001400130000001271363PALUCA, LIZA MORAL                                       0501
A0101413150000001288320BARUMAN, VEBELYN MONTECIREN                              0501
A0101411820000001356656CRISTINITA A. HERMENEGILDO                               0501
A0101405650000001377306LUSTRE, MARILOU TANGHAL                                  0501
A0301400950000001379604LIM, BRYAN YAP                                           0501
A0301400530000001409621ARASA, ELEUTERIA A.                                      0502
A1301400500000001412424PAULA NEA M. DE VERA                                     0501
A0101400440000001440066ROMMEL V. OQUENDO                                        0501
A0101402350000001474197ATIENZA, ARLENE BETIONG                                  0501
A0101402350000001474255********                                                 0501
A2001400290000001557677TOLENTINO, MIRIAM ARBON                                  0501
A4101400550000001622731NAPUETA, CHRISTINE GARCIA                                0501
A0101414120000001642564LLARENAS JR., FAUSTO CARBONEL                            0501
A0101414120000001642699SUMANDE, JANE REINNA DEL ROSARI                          0501
A0101403320000001646879EIFFEL JARVIS H. DIAZ                                    0501
A0101413570000001682522EVITA R. SAYONG                                          0501
A0101412890000001765379LIM JR., LINO ESPINOSA                                   0505
A0101412890000001765380FORTIN, ALEJANDRO SORIANO                                0501
A0101403450000001769719CO, MANUEL CHAN                                          0501
A4101400260000001783560ROMAN, REGINA PAVIA                                      0501
A1701400230000001786650PEDRO, ALAN BAOIT                                        0501
A0101400730000001822082DULIN, MARNELLI FERANIL                                  0501
A0101408400000001835218CAHILIG, DORY ABELLANA                                   0501
A0101413860000001886877AGUSTIN, GINA TRINIDAD                                   0501
A2401400180000001935833SUERTE, ALEJANDRE CHIO                                   0501
A0101401700041565412001COMEDA, MARIO TADURAN                                    0505
A0101401700041571276001********                                                 0502
A0101400150061038536150DE LEON, AMBROCIO                                        0502
A0101400150061226911001FLORA CECILIA SANTOS                                     0501
A0101400730111412858010LOLITA MANALO                                            0503
A0101400730111478374120LUIS G. PUNO                                             0502
A0101400440161039572050MARIA TERESA A. LIM                                      0501
A0101400440161549556001TEODORO R. BAUTISTA                                      0501
A0101407270162331908018CATHERINE MADONNA C. CRUZ                                0501
A0101407270162331908120CHERRY T. PENA                                           0501
A0101401090171195802001EVELINA N. LAGAMAYO                                      0503
A0101401090171295293002ERNESTO R. GONZALES                                      0502
A0301400530193710800001TABANAO, JESICA G.                                       0501
A3101400160221478374027ERNESTINA S. VILLANUEVA                                  0501
A1001400190231364441001ALBANO, DENNIS GIAN CARLO DE GU                          0501
A0101400570281188125001LUISITO O. LLIDO, M.D.                                   0501
A6601400120314616978001SAURO, MICHEL CASTILLO                                   0501
A0101402350321478374059BERNARDITA D. LOPEZ                                      0501
A0101402350321478374060MARITES M. RAMIREZ                                       0501
A0101402350321526808001LUCITA R. TARRAY                                         0502
A0101405650322170933001VERGARA, MICHAELANGELO B.                                0501
A0101405650322764401001CASTILLO, RICHARD MICHAEL ORTEG                          0501
A0101408820333478374062SANDRA G. BUENO                                          0501
A0101402060351043801001EMICOR MARKETING                                         0501
A0101408400394478374034MERLA M TANO                                             0501
A0101408400394478374034MERLA M TANO                                             0501
A0101408400394572099001MANZANO, MARIA CORAZON LIM                               0501
A5501400120410283898006GARCIA, JOSIE JAVELLANA                                  0501
A5501400120410691763008DR. JANET P. CELIZ                                       0503
A2401400180411478374004MESRIYA ABDULLAH                                         0501
A1201400150421379218001AGWIKING, JONA MANGACCAM                                 0504
A0101403320471311190002*****                                                    0505
A0101403320471478374006NELIA MORALES                                            0501
A0101403320471567177001JOCELYN P. TIGLAO                                        0501
A1401400110492084849001ANG, JOSE EMPROSO                                        0503
A1401400110492221687001CABRIGA, BENILDA ESPEDIDO                                0502
A1401400110492566715001REFAZO, MARITESS CABANILLA                               0501
A0101407430503512816001ROBVI ROSE M. DAPLAS                                     0501
A0101408530516494431001******************                                       0501
A0101403450521238220001**********                                               0502
A0101404000551350089001METIN, ARISTOTLE MENDOZA                                 0502
A0101404000551515186001JOSE, FRANCIS PARONG                                     0501
A0101404260611157044001DEMIAR, ROSIE                                            0502
A0101404680651520766028LORNA E. BUTA                                            0501
A1301400340683478374062REY, MELANIE PENA                                        0501
A0101408240711449303001MORALES, PEARLIE ARCACHE                                 0502
A0101408240711478374008CRONILA C. COLO                                          0501
A4101400420814520766139VILLAMAYOR, MINA                                         0501
A4101400420814620451001TAN, BETTY TIU                                           0503
A0101404840851413610001GUIRIT, CLARITA E.                                       0501
A0101404840851421456001MARCELO, MERIAM ACAIN                                    0503
A0101404840851520766104PARAGAS, MARILOU                                         0501
A0101406750852241118001FLORES, JOY                                              0501
A0101406750852478374106LETICIA P ALCAIDE                                        0501
A0101406750852478374115CRISENCIA S BATACANDULO                                  0501
A3401400280000000784618UYGEN JR., FRANCISCO MOSQUETE                           10502
A0101412470000000853867PADILLA, GUILLERMINA M. OR                              10504
A5001400170000001003410DY JR., DIONESIO K. AND                                 10501
A5501400120000001121800LADARAN JR., JOSE BINOLA                                10501
A3101400870000001146463NUNEZ, RUDY OR NUNEZ BELINDA                            10501
A0101401830000001282002DIAZ, RHEA ABONADO OR ABONADO,                          10501
A0101410690000001284322CO, MARIANO L DBU ASAP COMPUTER                         10501
A0301400530000001409643TAHADLANGIT, ROEL P. OR                                 10501
A0301400530000001409650DING, SHUIBEI OR                                        10505
A0101401670000001598441AGUILA, FELICITAS SARMIENTO                             10503
A0101404680000001617261AMCJ METAL & ENGINEERING                                10502
A0101401250021178973001VICENTE S. BERNARDO OR                                  10510
A0101401700041192269001GO, SANDRA TAN OR                                       10501
A0101400150061227077001LUIS V. ASCALON OR                                      10502
A0101400730111195461002JOSE L. DIZON OR                                        10501
A0301400530193760685002AGUILAR, AGUINALDO V. OR                                10501
A0101400570281340990001JOSEFA A. PALANCA OR JOSEPHINE                          10504
A6601400120314612848008SY, ALEXANDER OR                                        10502
A2001400290315636761001VILLABERT, WINSTON TAN OR                               10506
A0101402350321179428001LYDIA C. TIU OR                                         10501
A0101402350321548644002MANZANO, MARIO OR                                       10502
A0101405650322369598001YANG, YI CHENG OR                                       10502
A0101402060351039707001GJD CARGO FREIGHT FORWARDING                            10502
A0201400760374584291001LAYAR, VICENTE CASIPONG AND                             10501
A0101409210398047601001LAMONTE, E DBU YOB AND ERIN                             10501
A0101411950680530849001RAMBLA, CRISTINA P. OR                                  10501
A1301400210682470535001JINKY C. GATCHALIAN OR                                  10501
A1301400500684589977001VIOLAGO, MA. LORENA M.OR                                10501
A0101408240711469368001CAGANDA, ANTERO JOSE MADARA                             10501
A4101400420814727886002FLORES, NESTORIO CAPATAR OR                             10501
A3401400280000000784618OR UYGEN, ANN RELANO                                    20500
A0101412470000000853867PADILLA, ANA MARGARITA G.                               20500
A5001400170000001003410JUAN JR., MARLOU D.                                     20500
A5501400120000001121800OR LADARAN, LANI                                        20500
A3101400870000001146463RAMOS                                                   20500
A0101401830000001282002HENIDINA PASAYON                                        20500
A0101410690000001284322SYSTEM                                                  20500
A0301400530000001409643TAHADLANGIT, DIVINA                                     20500
A0301400530000001409650CHEUNG, HENRY B.                                        20500
A0101401670000001598441OR AUDREY CRISOLOGO                                     20500
A0101404680000001617261SERVICES                                                20500
A0101401250021178973001ARACELI C. BERNARDO                                     20500
A0101401700041192269001SY, HELEN TAN                                           20500
A0101400150061227077001MARGARET A. VALDES                                      20500
A0101400730111195461002JANICE D. DIZON                                         20500
A0301400530193760685002AGUILAR, DINA C.                                        20500
A0101400570281340990001P. RAFER                                                20500
A6601400120314612848008CHY, RITA NILA                                          20500
A2001400290315636761001VILLABERT, MARITES HO                                   20500
A0101402350321179428001JAMERSON C. TIU                                         20500
A0101402350321548644002MANZANO, SHIRLEY                                        20500
A0101405650322369598001SHU, SALLY Y.                                           20500
A0101402060351039707001CO.                                                     20500
A0201400760374584291001LAYAR, GERMANA M                                        20500
A0101409210398047601001GLASS ENTERPRISE                                        20500
A0101411950680530849001RAMBLA JR., PABLO D.                                    20500
A1301400210682470535001GILBERT T. GATCH                                        20500
A1301400500684589977001VIOLAGO, GIDO C.                                        20500
A0101408240711469368001OR JEANZIE LEE                                          20500
A4101400420814727886002FLORES, MA. SOCO                                        20500
B0101411790000000005330ZIMI TECH, INC.                                          1605
B0101407430000000035372ROBTEK EQUIPMENT & CONSTRUCTION INC                      1603
B0101407430000000035383METCHEM BUSINESS SOLUTIONS, INC.                         1603
B1601400170000000036193EAST JAVA COMPANY                                        1605
B0301400530000000065945TAGUM SEAFOODS AND GRILL CORPORATION                     1604
B0101414120000000399184CANTILEVER CONSTRUCTION CORPORATION                      1602
B0101414090000000399435GRANBEL DEVELOPMENT CORPORATION                          1603
B0101404680000000697930JOBSFINDER PLACEMENT AGENCY, INC.                        1601
B0101407270000000830459EMPRESSO CREATIVE CO.                                    1601
B4101400550000000900069JEEMEE ENTERPRISE INC.                                   1602
B0101406590000000905497SIKAP LEARNING STUDIO, INC.                              1601
B0101411110000001037063UNI-ORIENT PROPERTIES, INC.                              1601
B3001400130000001271603RUELAN ENTERPRISES                                       1601
B0101411080042443031001******                                                   1601
B0101400150061010997001EASTWIND GARMENT MANUFACTURING CORP.                     1601
B0101400150061018219002SUGAR INDUSTRY FOUNDATION, INC.                          1605
B0101400150061019593001FLEUR ESSENCE, INC.                                      1603
B0601400100081039107001REPLICAS MARITIME & AVIATION MODELS INC.                 1602
B0101401830141019452001CARITAS MANILA, INC.                                     1610
B0101401830141259521001JIMMY N. YANG (SONLY PRINTING PRESS)                     1601
B0101407270162041938001TRANSPORT EQUIPMENT CORPORATION                          1603
B1001400190231015575001*****                                                    1602
B0101406620273017284001ACCENT MICRO TECHNOLOGIES, INC.                          1605
B0101406620273047215001UMIC INTERNATIONAL, INC.                                 1602
B0101402350321027310001NECELINE CORPORATION                                     1606
B0101405650322047833001SPRINT INTERNATIONAL, INC.                               1602
B0201400760374272956001YU, DESSUM LIM OR YU, EMMA LAU                           1601
B0101403030441030325001**********                                               1602
B0101407430503036696001SKY AVIATION LEARNING CENTER, INC.                       1603
B0101404420631042192001FERNANDO GOZON INC.                                      1610
B0101406590662744080002MARKETMIX TRADING INC.                                   1601
B0101404840851013980002VIC IMPERIAL APPLIANCE CORP.                             1601
B0101404840851671030001QUANTUMMEDIA MARKETING INC                               1602
B0101413310000000040013MICHAELJOSEPH/TERESITA/ANTONIO/ANTHONY                  11601
B0101402350000000046091ACHIEVE A CAREER TODAY TRAINING CENTER                  11601
B3101400870000000957622BALITE, G DBU BGT FOOD ESSENTIAL                        11602
B0101407430000001213023CENTER FOR KNOWLEDGE AND ADVANCE                        11602
B0301400530000001409661KE, BINGZHANG OR                                        11601
B0101406620273216139001ABANO PAMFILO PARAS PINEDA AGUSTIN                      11602
B0101413310000000040013CONCEPCION                                              21600
B0101402350000000046091& DEV'T. INC.                                           21600
B3101400870000000957622CATERING SRVS                                           21600
B0101407430000001213023TRAINING INC.                                           21600
B0301400530000001409661YE, XIUHUI                                              21600
B0101406620273216139001LAW OFFICE                                              21600
