A0101400600000000007707**********                                               0502
A0101400440000000029445ABRAZADO, APRIL BERNALDO                                 0501
A0101410140000000038833VITO, NOEMI ALELI GRAJO                                  0501
A0101401250000000057065VILLAS, ROGELIA L.                                       0502
A0101400440000000060335LYNDEE ANN D. SIA                                        0502
A0101403320000000067532YAGUEL, SALVE L.                                         0501
A2401400180000000073492NAINGUE. JANETH AVES                                     0501
A1701400230000000097858TAYLAN, ALEJANDRO BAPTISTA                               0501
A0101400860000000100863**********                                               0503
A0101413730000000144761****************                                         0505
A0301400660000000194581*****                                                    0502
A0101402510000000200153LPR GRAPHIC DESIGNS                                      0501
A0101400440000000337580ESPIRITU, HAZEL MANGENTE                                 0501
A0101405650000000348903ESPERANZA F. BAYLON                                      0501
A0101412890000000371453**********                                               0501
A0101403320000000452231RULL, SONNY ESCANO                                       0501
A0201400760000000476922RAZ, JOYCE BASCAR                                        0501
A0101410140000000499407EDORIA, MLE VALVE ENTERPRISE                             0502
A0101408240000000521920REVILLA, WILMA GUJELDE                                   0501
A0101405650000000525739RUFA MACABENTA                                           0501
A1301400210000000540914RAMOS, ALLAN BAUTISTA                                    0501
A1301400210000000540936JOCELYN S APOSTOL                                        0501
A0101400440000000596641LUZVIMINDA EVANGELISTA                                   0502
A0101406330000000683363EDUARDO LEGARIO                                          0501
A0101412760000000767897************                                             0502
A1301400340000000926869CUERDO, MARIA ANA SORNE                                  0502
A0101410720000000968021CAPARROS, MARY MARJORIE CHUA                             0501
A0101409050000000999562PUNZALAN, SALVE MARIE SOLIDUM                            0501
A0101400860000001005490**********                                               0502
A0101402480000001099801***********                                              0501
A0101410980000001154409TAN, NELLIE ANN JT                                       0501
A0101408400000001213574MARGO POTS AND FLOWERS                                   0501
A0101406330000001235272VHANZ HARDWARE                                           0501
A0101411400000001280313GARCIA JR., EXPEDITO GARCIA                              0501
A0101409210000001294617MONTENEGRO, ZOE BACONAWA                                 0501
A1401400110000001549340CAPIRAL, ROSALIE BELESARIO                               0501
A0101410720000001602288TANJUTCO, JOHN HALLEY OCAMPO                             0501
A0101408400000001614693ELICARL SALON                                            0501
A0101403450000001637987*********                                                0501
A0101406620000001686791YOON, SUNGKEUN                                           0501
A0601400230000001687232CHRISTLE M.TUNGUL                                        0502
A4101400390000001732736CLAVERIA III, DON VIVENCIO G                             0501
A0101411950000001771057EMELITA R. VERTUDAZO                                     0501
A0101402480000001927711**********                                               0502
A0101402480000001927802***********                                              0503
A0101412630000002040511SANTOS III, ANTONIO ESGUERRA                             0502
A3101400870000002328003PENA, SATURNINO VOLANTE                                  0503
A0101401700000002336990**********                                               0502
A4101400420000002345240CANDELARIA, MARIA ZORAIDA POTAZ                          0501
A0101402480000002975462**********                                               0501
A0101401090000003020651MARZO, LUDIVICO RAMOS                                    0501
A2001400290000003108181HASSARAM, MARISSA FAMAT                                  0501
A0101400860011379561003**********                                               0502
A0101400860011468776001**********                                               0502
A0101400860011487850002**********                                               0502
A0101400860011746708001**********                                               0503
A0101401700041565412001COMEDA, MARIO TADURAN                                    0505
A0101400150061226743001BERNARDO M. DACYON JR.                                   0501
A0101400150061236944107VICTOR S. TANKIANG                                       0501
A0101400730111386485162DINA F. ALIBIO                                           0502
A0101400730111435544001MARGARITA B. BINAYAS                                     0501
A0101401960121569490001************                                             0502
A0101401830141206435001EMMA G. CHUA                                             0502
A0101400440161478374008MARY FE I. REDONDO                                       0502
A0101400440161520766129LHYN T. MASADA                                           0502
A0101400440161520766189PRESCILA P. DOTONG                                       0502
A0101407270162331908032LIZA LEAH JUINIO                                         0504
A0101407270162449396006EDGAR P. FERNANDO                                        0503
A0101407270162696578002AIRLIA LIMPANGAN                                         0502
A0101401380201502664001LEY, RICHARD NOEL CO                                     0501
A0101407140213194541001**********                                               0501
A1001400190231520766129SANCHEZ, CATHLYN E.                                      0501
A1001400350233770191001PATRIANA, LINDY CASTILLO                                 0501
A0101401670271383413003*****                                                    0501
A0101401670271613655003LIM, TERESA KATIGBAK                                     0501
A2001400290315080029111ADANTE, SHANE ALABADO                                    0501
A0101405650322298552015EMELITA P. ERALINO                                       0501
A0101402480331055075001RMC BOLTS CENTER                                         0501
A0101402480331298927001**********                                               0502
A0101402480331463093001***************                                          0512
A0101402480331478374035MARINAY, JOSEPHINE                                       0501
A0101402480331478374061**************                                           0501
A0101402480331478374109CARABBACAN, SALLY                                        0502
A0101402480331520766101ROBERT, RICARDO                                          0502
A0101402510341331222002ERLINDA C. RECOCO                                        0501
A0201401020377776942001VILBAR, FRANCISCO SALVALEON                              0501
A0101408370382027935001MCBEAVKAT ENTERPRISES                                    0501
A0101408370382445179001********                                                 0502
A0101402770391360120001CEFERINO V. PRONTO JR.                                   0501
A0101408400394443611001MAGBANUA, JOSEFINA SANTIAGO                              0502
A0101408400394478374066CASTILLANO, VELLA G.                                     0502
A0101408400394478374090MARY DUMASLAN                                            0501
A0101408400394639219001ROMERO, FRANCISCO GABION                                 0501
A0101408950396654080001DR. DENNIS PESTANO SERRANO                               0502
A2401400180411362043001LIM, CYRIL CHRISTIAN YAP                                 0510
A2401400180411688592001DUCENA, RONNIE PIZON                                     0505
A0101406330472478374052SHIELA D. LAPUENTE                                       0501
A0101406330472573170001WILLARD SY GO                                            0502
A0101406330472767447001MARY SUSAN D. DEVELLERES                                 0503
A1401400110492300971001WILFREDO J. LAVAREZ                                      0503
A0101403900501456168001TUMAMAO, GEORGINA AQUINO                                 0501
A0101407720602676838001GALLO, JUPITER ESPANOLA                                  0502
A0101410720653362919001DE GUZMAN, CYNTHIA CABOBOS                               0501
A0101406590662562414001RUSTE, RUTH ALLEN ANTONIO                                0502
A0101406590662572714001CECILIA JR., JAIME ACCION                                0501
A1701400230693478374032ANDRES, GERONA TACANG                                    0501
A17014002306934783740611AUTISTA, CRESENCIO RISCAL                               0501
A1701400230693478374070CALUYA, LANIE PASCUA                                     0501
A4101400420814413936001DONCILLO, ROSITA YMATA                                   0501
A0101404840851046725003MENDOZA, MA. IRNA M.                                     0502
A0101404840851217637018EDNA M. FAGARA                                           0501
A0101404840851406561002MARYLYN V. ANGELES                                       0502
A0101406750852478374104RASHEL ROMANA                                            0501
A0101405070861087185001FORTUN, MARIA DOLORES REMULLA                            0501
A0101407560000000003425SANTOS, WILFREDO OR                                     10501
A0101406590000000035418YONG, JAMES LESTER C. AND                               10502
A0101410300000000191815CARBALLO, LUIS ANTONIO S. OR                            10502
A0101410300000000191939CARBALLO, LUIS ANTONIO S. OR                            10505
A1301400470000000366461EDSEL C. DOMINADO OR                                    10504
A6601400120000001370781BAQUERO, ADELINA DULA DBU                               10502
A0601400230000001687163GOPEZ, PRINCESS MARIE DIAMZON                           10501
A0101412890000001765733POLICARPIO, ALEXIS JOANNE DG OR                         10501
A0101409920000001951931MEMBERS OF NATASHA (SHOECAT INC                         10501
A0101406750000002251361POSEO, ANAFE CAJOCSON OR                                10501
A0101408950000002255409LIM, EDNA LAPUZ OR                                      10501
A0101413280092055092001VICTOR SALUD JR. DBU                                    10501
A0101410850109055036001VEDAJA, ELVIRA DBU                                      10501
A0101407140213300710001CAHAPAY, ANICIA L. OR                                   10501
A3001400130230757981001SACAY, RENE CANTOR OR SACAY,                            10505
A0101408660274539990001BELTRAN, EDGARDO MAR D. OR                              10501
A2001400290315087033002ROLIDA, JASON UY OR ROLIDA                              10502
A0101409050352600066001FAYE CARLIE TUAZON OR                                   10501
A0101408370382206275002DR. ELIZABETH P. PACHECO OR                             10502
A0101408400394412577001REYES, EMMANUEL JOHN JOCSON OR                          10502
A0101408400394454919001TAPULAO, MARIA MERCEDES OR                              10502
A0101408950396047389001MELROSHEAN CONSTRUCTION                                 10502
A2401400180411330256188LIM, CHARLES OR LIM, LETICIA                            10510
A2401400180411343170001RAMOS, EDUARDO UBONGIN OR                               10501
A2401400180411639793001SEVILLA, RITCHE LIM OR                                  10502
A0101403320471471093001IMELDA M. LIMSICO OR                                    10503
A1601400170494079466001MA. ANICETA R. LLAGUNO                                  10505
A0101404420631356823001ESTRELLITA P. DE GUZMAN-                                10505
A0101410300663726407001PANGAN, LAMBERTO L. OR PANGAN,                          10501
A0101405070861197518001RICARDO G. CHAN OR                                      10505
A0101407560000000003425SANTOS, BIENVENI                                        20500
A0101406590000000035418YONG, ROSABELLE                                         20500
A0101410300000000191815SALAZAR, EMMANUEL B.                                    20500
A0101410300000000191939SALAZAR, EMMANUEL B.                                    20500
A1301400470000000366461EPRENILDA JOY G. DOMINADO                               20500
A6601400120000001370781FLORIANA'S GEN. MDSE.                                   20500
A0601400230000001687163OR GOPEZ, MARIVIC DIAMZON                               20500
A0101412890000001765733POLICARPIO, WILMA DG                                    20500
A0101409920000001951931TRASPORTE, GINA                                         20500
A0101406750000002251361POSEO, LEO                                              20500
A0101408950000002255409LIM, ALVIN CHE                                          20500
A0101413280092055092001SALUD CONSTRUCTION                                      20500
A0101410850109055036001KEB BOTTLEWASHING                                       20500
A0101407140213300710001CAHAPAY, CELEDON                                        20500
A3001400130230757981001JOSEPHINE SIMBIT                                        20500
A0101408660274539990001BELTRAN, MARIA C                                        20500
A2001400290315087033002SANDRA, UYMATIAO                                        20500
A0101409050352600066001BENSON RYAN CRUZ                                        20500
A0101408370382206275002DR. BENITO M. PA                                        20500
A0101408400394412577001REYES, MARY GRACE                                       20500
A0101408400394454919001TAPULAO, ALBERT                                         20500
A0101408950396047389001CORPORATION                                             20500
A2401400180411330256188OR LIM, CYRIL CHRISTIAN                                 20500
A2401400180411343170001RAMOS, GINA SONATO                                      20500
A2401400180411639793001SEVILLA, EVA BARCELONA                                  20500
A0101403320471471093001CHARITY M. LIMSICO                                      20500
A1601400170494079466001OR HERIBERTO M. LLAGUNO                                 20500
A0101404420631356823001DEL ROSARIO   JT                                        20500
A0101410300663726407001MA. TERESA L.                                           20500
A0101405070861197518001OLIMPIA C. CHAN                                         20500
B0101410720000000030020BINGO PALACE CORPORATION                                 1605
B0101412470000000045361GALERIE JOAQUIN, INC                                     1602
B0101402480000000045667*************                                            1601
B0101402480000000045703QUALIGEN PHARMACY CORP.                                  1602
B0101406620000000194121UBER APPS INC.                                           1601
B0101402480000000310443QUALIGEN PHARMACY CORP.                                  1602
B1101400120000000653069MANCERA STORE & HARDWARE SUPPLY INC                      1605
B0101411080000000806057T & J PRIME DISTRIBUTION INC                             1601
B0101412470000000949566POSTMANILA, INC.                                         1610
B0101400860000001005354**********                                               1602
B0701400260000001069701MAGTUTO, RENATO VILLAFUERTE                              1602
B0101402480000001562118QUALIGEN PHARMACY CORP.                                  1602
B0101402480000001927540********                                                 1602
B0101400150061226857001ARL MARITIME SERVICES INC.                               1603
B0101400150061228665001MALAYAN TOWAGE AND SALVAGE CORPORATION                   1610
B0101400600071234514001**********                                               1602
B0601400100081022863001SKYLINE AEROTEL, INC.                                    1601
B0101400730111032627001R.C. TAN TRANSPORT                                       1606
B0101401090171046847001PRINCE JUN DEVELOPMENT CORP.                             1601
B0101401380201026436088L & G INN CORPORATION                                    1605
B0101407140213011896001SERVY REALTY CORPORATION                                 1601
B0101401670271389719001PHILREM SERVICE CORP.                                    1605
B0101406620273027549001E-BUSINESS SERVICES, INC.                                1601
B0101406620273041414001GANO I-TOUCH PHILIPPINES INCORPORATED                    1605
B0101406620273046416001FIRST SHELTER VENTURES & REALTY CORP.                    1610
B0101406620273046416002FIRST SHELTER VENTURES & REALTY COR                      1610
B0101402480331010240001BOUNTY FARMS INC.                                        1610
B0101402480331036222001***************                                          1603
B0101402480331038757001UNIFRAME ALUMINUM CORPORATION                            1603
B0101402480331224203001**********                                               1610
B0101402480331224641001PRECIOUS BELEN TRADING AND GEN. MDSE.                    1601
B0101402480331748556014QUALIGEN PHARMACY CORP.                                  1602
B0201400760374027555001HOYUGOH STEEL CORPORATION                                1608
B0201400760374038778001CPERC                                                    1602
B0201400890376504512001A.I. BUILDERS & SUPPLY                                   1601
B0101408790383040734001RADIOWEALTH FINANCE COMPANY, INC.                        1601
B0101408790383084533001CCGA REALTY CORPORATION                                  1603
B0101408400394025635001KETMAR FASTFOOD CORPORATION                              1601
B0101403320471035758001***                                                      1603
B0101406330472017863001INTEXT BUILDERS & CONSTRUCTION CORP                      1602
B0101406330472314132001*****                                                    1601
B0101408530516035673001FERROTECH STEEL CORPORATION                              1608
B0101403450521012010001********                                                 1603
B0101404130601015014001BC CONCEPTS INC.                                         1610
B0101404420631006047003GTWJ FOOD CORPORATION                                    1610
B0101409890649047997001SILICON FOREST PHILS., INC.                              1605
B0101406750852041203005AUTOCIRCULO CORP.                                        1610
B0101401670271022903001PHILIPPINE ASSOCIATION OF THE RECORD                    11602
B6601400120314612844001MARTINEZ, ANGELINE OR MANUEL OR ORTIZ,                  11605
B02014007603740550530028990 MINDANAO HOUSING DEVELOPMENT CORP.                 11610
B0101402770391009705002VICTORIA VALLEY CONDOMINIUM INTEGRATED                  11601
B1401400110492365609001JEORGE S MALIGAT - PILIPINO HARDWARE AND                11601
B0101401670271022903001INDUSTRY, INC.                                          21600
B6601400120314612844001LEOVIGILDO                                              21600
B0201400760374055053002(COLLECTING)                                            21600
B0101402770391009705002CORPORATION                                             21600
B1401400110492365609001CONST. SUPPLY                                           21600
