F0301400110191030988001********                                                 2610CKR
F0401400270000005410462BONIFACIO M. PENA OR SUKLIN C.                          12603CKR
F0401400270000005410462PENA                                                    22600CKR
F0401400270000004611647SEVEN - C INTEGRATED CORPORATIO                          2603CKR
F0101401670271613655001LIM, TERESA KATIGBAK                                     2505CKO
F0101408400394030136001ASP MANPOWER SERVICES                                    2610CKR
F0101408400394031095003LIVINGWATER SYSTEM, INC.                                 2603CKO
F1901400160491040836001DR JELYN M MANDIGMA                                      2502CKO
F0101411950000002691303BEYONDCONCEPTS INC.                                      2603CK1
F4101400260000000469330DEPANO, ABEL GONZALES                                    2503CKO
