B4101400420814015551002REGATTA CLASSICS HOMEOWNERS ASSOCIATION                  1601
A4101400420000000710392BRAZIL, EVELYN AGBAN                                     0501
B1101400120000000652442GICABAO, KATHLEEN JOY NG OR                             11603
B1101400120000000652442GICABAO, BONGKOK                                        21600
A1101400120000006186412PESARIO, JOSUE DBU ARGO                                 10503
A1101400120000006186412SECURITY AND INVESTIGATIO                               20500
A1101400120000005608237MORILLA, SABRINA CHUA                                    0501
A0101408370382234715003DR. ANTHONY RICHARD G. NUNEZ OR                         10502
A0101408370382234715003DR. IRMA G. TAN-NUNEZ                                   20500
A0101412890000002747971VERGARA, FERNANDO FERNANDO                               0501
B0101414120658821100608**********                                               2003
A0101400860011462049001**********                                               0503
A0101400860000000100863**********                                               0503
A0101400860011541134002**********                                               0502
A0101400860011742046001**********                                               0503
A0101400150000004915219MERCADO, ABRAHAM RAMON MANALOTO                          0503
B0101400150061015841002ENZIMA INTERNATIONAL, INC.                               1602
B0101400150061226857001ARL MARITIME SERVICES INC.                               1603
A0101400150061228273001KARLEEN ZITA P. CASINO                                   0501
B0101400150061228665001MALAYAN TOWAGE AND SALVAGE CORPORATION                   1610
A0101400150000002394625KATIGBAK, CARMENCITA D.                                  0506
A0101400150000002394636KATIGBAK, CARMENCITA D.                                  0503
A0101400150061315349050NENITA M. GANUELAS                                       0501
A0101400150061381319001MYRNA DE JESUS UY                                        0501
A0101400150061381319001MYRNA DE JESUS UY                                        0501
A0601400100081254005001TANGLAO, CARMELO OR                                     10501
A0601400100081254005001TANGLAO, MARILOU                                        20500
A0601400100081504737001KAW, GEMINI DEANG                                        0502
A0601400100081728665001DELA CRUZ, LAURENCE DATU                                 0502
A0101413730000000144625*******************                                      0501
A0101400730111478374153LUZLYN F. CUBELO                                         0501
A0101412630000004062002CENAR, LOIDA DBU LMH MEDICAL                            10510
A0101412630000004062002SUPPLY DISTRIBUTOR                                      20500
A0101412630000000045321**********                                               0502
A0101413310000005433290**********                                               0501
A0101401830000002274364ALEXANDER JULIAN C ONGCHUAN OR                          10502
A0101401830000002274364ONGCHUAN, MARK SEVERINO C                               20500
A5001400170000000044982URBAN PAINTS & MORE ENTERPRISES                          0502
A5001400170000000213954LOPEZ, ISOLDE OR TAMAYO, AILYN                          10504
A5001400170000000213954OR TAMAYO, SHEENA                                       20500
A0101412920000003464862DELA CRUZ, DAVE CEASAR FRANCISC                          0502
A0101412920000005354161TELAN, MARICRIS SALAYOG                                  0502
A0101400440161039572072MEDITA P. ALIMPUANGON                                    0501
A0101400440000000060266JOCELYN B. ANDAYA                                        0501
A0101400440000004901440NLR INSURANCE SERVICES                                   0505
B0101407270162019008001ORIENTAL & MOTOLITE MARKETING CORP.                      1610
B0101407270162019026001RAMCAR TECHNOLOGY, INCORPORATED                          1605
B0101407270162036585001STA. MARIA INDUSTRIAL PARK CORPORATION                   1610
B0101407270162038144001RAINCHEM INTERNATIONAL INC.                              1601
B0101407270162045816001SUNSHINE INTERLINKS PUBLISHING HOUS                      1602
A0101407270162355432002JEROME C. POBOCAN                                        0510
A0101407270162430046001ROMANO JR., RAFAEL T.                                    0504
A0101401090171196028001LEONARDA NARANJILLA OR                                  10501
A0101401090171196028001RAYMUND NARANJIL                                        20500
A0101401090171394706001ROSA D. SULLERA-LUMBRERA OR                             10501
A0101401090171394706001SERAPION SULLERA                                        20500
A0101401090171565714001ANGELA ROSE HERNANDEZ                                    0501
A0301400530000003087409GAVIOLA, MARCO RAY DELA CRUZ                             0501
A0301400530193738511001GAMENG, RUBEN ABAYA                                      0502
B0301400660194044417088JCDIS MARKETING                                          1605
A0301400660000000475616********                                                 0510
A0301400950000003249949JOROLAN, RONIE FLORENOSOS                                0501
B0301400950000002115873TRANSYLVANIA TRANZPORT, INC.                             1601
B0301400950000002115884TRANSYLVANIA TRANZPORT, INC.                             1601
A0101401380000005320887BATUIGAS, AURORA REBOQUIO                                0501
B0101401380201034271004LC BUILDERS AND DEVELOPERS, INC.                         1604
A0101401380000000682622********                                                 0501
A3101400160221503120003BACUD JR, JOSE ADDUA AND                                10502
A3101400160221503120003AMISTAD, DOMINGO ONG                                    20500
A3101400160221506317001RACHELLE B. ALVIAR                                       0503
B3101400450223709906001SPC HARDWARE & CONSTRUCTION SUPPLY                       1602
A3101400870000002328092AGUIRRE, LALAINE GASGA                                   0501
A3101400870000006443945ARANDELA, HEZRON DELA CRUZ                               0501
B1001400190231062184001PAQUINOL, GERRAMAE REVACA DBU JAFRENCE                  11601
B1001400190231062184001OR PAQUINOL, JEN                                        21600
A1001400190231520766110MAYOR, CARMELITA ANGCAY                                  0501
A1001400190000000016413LEDESMA, EDITHA LERA                                     0501
A1001400190000000124683ABCEDE, CARMENCITA A.                                    0501
A1001400480000003357500SALVACION JR., DIONISIO CAINGLE                          0501
A1301400760000005379520LUIS V. CHUA                                             0502
A0101406620000004926201REQUILMAN, OLIVER CHAN                                   0502
B0101406620273012462001COL FINANCIAL GROUP, INC.                                1615
B0101406620000000193942SOURCEFIT PHILIPPINES INC.                               1602
B0101406620000004595713BILIRAN GEOTHERMAL INCORPORATED                          1610
A0101406620273452838001CLEMENTE, DANTE DELA CRUZ                                0501
A0101406620273492017001SOLIVEN, REYNANTE BAVIERA                                0501
A0101410980000002987144TOLENTINO JR., ISAIAS BARSAGAS                           0502
A0101411820000001356474GENALYN ELE ASUNCION                                     0502
A0101412470000002295861MENDOZA, VICTOR DINGIL                                   0502
A0801400160311478374104RUBIE BAGAFORO                                           0501
A0801400160311533815001CASORLA, ELVIRA ALLI                                     0501
A1101400120000001547291REAS JR., ARISTON NARTIA                                 0502
A1101400120000003022413DUCENTES, GLORIA TROCINO                                 0501
B1101400120000000652904COASTALVIEW FOODS CORPORATION                            1603
A1101400120313478374067COSTIMIANO, LUCY D.                                      0501
A3401400280000000784709BEREBER, JOVER GARCIA                                    0501
A3401400280318736732001TERESA A. SANTOS OR MA. AILEEN                          10502
A3401400280318736732001A. SANTOS OR TINA S. ONG                                20500
B0101402350321028856001AEROBUS TRANSPORT CORPORATION                            1601
A0101402350321179338001TRINIDAD WONG                                            0501
A0101402350321638505001********                                                 0502
A0101402510341202843003**********                                               0501
A0201400760000000222733CU, ANTON ONG OR HONG, XIANG                             0501
A0201400890000007663821LANOJAN , LEAH  RAMAS                                    0501
B0201400890376045807001**********                                               1620
A0101402930000007030877KHO, MA CORAZON ARNALDO                                  0501
A0101402930381282101001GOGOLIN, RONA SHEILA REJUSO                              0501
A0101408370382416284001DR. BERNARDITA O. POLICARPIO OR                         10502
A0101408370382416284001DR. REUBEN D. POLICARPIO                                20500
A0101408370382663801001DRS. RICARDO G. ROCO OR                                 10504
A0101408370382663801001URSULA V. ROCO                                          20500
A0101408790000000579802QUIMQUE, MA PAULINE IRIS D. OR                          10501
A0101408790000000579802QUIMQUE, MA PRECILLA IVY                                20500
B0101402770000001571233LEADER GARMENTS CORPORATION                              1605
A0101402770391361138001PERFECT NINE MARKETING                                   0501
A0101405490000000232453ROMEL P. ALMEDA                                          0502
A0101405490000002880675NERLITA T. VILLENA                                       0502
B0101408400000003120532BRUNO BUILDERS                                           1601
B0101408400000004733773SINCERE FACADE PHILIPPINES, INC.                         1602
A0101408400394417530001BRANA, NELSON MASILANG                                   0502
A0101408400000005286331SALINIO, NARCISO MANTIQUILLA                             0502
A0101408950000003171202LIM, CHAUNCEY KESTER LAO                                 0501
A0101408950396501244001DR. RHESA MAY MANALOTO MARTINEZ                          0501
B0101409180397042276001SISON'S PUBLISHING HOUSE, INC.                           1601
A0101412210000000031410***********************                                  0504
B5501400120000005492388RLA MOTORWORLD, INC.                                     1601
A5501400120000006976596FIGUEROA, RONELLYN BILLONES DBU                          0502
B2401400180411020380001BOUNTY AGRO VENTURES, INC.                               1605
B2401400180411038988088AIMICAN CORPORATION                                      1602
A2401400180000000073492NAINGUE. JANETH AVES                                     0501
B1201400150421029919001MUNSAYAC HANDICRAFTS INC.                               11601
B1201400150421029919001(ABANAO CARPARK)                                        21600
A1201400150421257375001MARA ALOHA DIAZ                                          0501
A0101403030441240960001**********                                               0502
A0101403030441412000001**********                                               0502
A0101412760000001399880ABUDA, SANDRA MARLENE SANDOVAL                           0501
A1901400160491347259006ALEX A ABACAN                                            0501
A1401400110000005526967ARGOSINO, KARL MICHAEL ORIOLA                            0501
A1401400110492566715001REFAZO, MARITESS CABANILLA                               0502
A0101403900501570433001OCTAVO, MELODY COLISTENG                                 0501
B0101407430503028651001TMC TRUCKING SERVICES                                    1601
B0101407430503030799001EBERS MANPOWER & ALLIED SERVICES INC.                    1603
B0101408110515036613001DASECO-AIRE TECHNOLOGIES INCORPORATED                    1601
A0101408110515041358001MADE IN HEAVEN ENTERPRISE                                0501
B0101408530516485344001MAISON 68, INC.                                          1604
A0101408530000003519431SHERWIN C. SANGRADOR                                     0501
A0101408530516722111001PERMEJO, MARIA JOANNA AGUILAR                            0501
A0101411790518055764222HERNANDEZ, MAUREEN LUMBA                                 0501
A0101411790518055815001LIM, CHRISTOPHER ODIAMAR                                 0501
B0101403450521011736001COFTA MOULDINGS CORPORATION                              1603
B0101403450521033942001HYPERLAND HOLDINGS, INCORPORATED                         1605
A0101403450521238049002**********                                               0501
A0101404000000003284513CANAOAY, MARIELLE DELOS SANTOS                           0501
A0101404000551478727001HUANG, GEORGE EMIL SHAU OR                              10501
A0101404000551478727001HUANG, OLIVIA SH                                        20500
A2201400250561484428001WILSON LAO SIO OR                                       10502
A2201400250561484428001EDUARD LAO SIO                                          20500
B0101404130601035292001SILVER ROSE GENERAL MERCHANDISE                          1610
A0101407720602290947001ABADINES, MARIE DINIA A                                  0501
A0101407720602399405002CLAVER P. RAMOS, M.D. OR                                10503
A0101407720602399405002THELMA E. RAMOS                                         20500
A0101407720602757149001AROMIN, BENJAMIN FERRY                                   0501
A0101404260611484749002BAHALA, AURELIA MANINANG                                 0505
A0101409890649047047001**********                                               0508
A0101409890649620797001DE JESUS, ROBBIE NEIL ONG                                0501
A0101409920000000998605ECHEVARRIA, DBU JOHN CARL ENTER                          0501
A0101411530000002260322**********                                               0501
A0101411530000006217483**********                                               0501
A0101411530000006217574MOMMY & ME ENTERPRISES                                   0503
B0101411530000002641772THREETWOONE VENTURES INC                                 1601
A0101413440000003298173MACANAS, MA. LINDA ADVINCULA                             0502
A0101413570000000635596MEMBERS OF NATASHA                                      10501
A0101413570000000635596DOROTEA R. JACINTO                                      20500
A0101413990000002962890BACOLOR, ALFREDO SOTERIO                                 0501
A0101413990000006278055GREGORIO, OSCAR DELOS REYES                              0501
A0101413990000001947128MARS STONE SUPPLY                                        0501
A0101414120000002172527AMELIA DE JESUS OR EDGARDO                              10502
A0101414120000002172527DE JESUS                                                20500
A0101414120000006005403UBAS, REBECCA MENDADOR                                   0501
A0101414120000004603121FLYRYNE TRAVEL AND TOURS                                 0502
A0101414120000000875652PABLITO OR RONALD JOHN OR                               10504
A0101414120000000875652PRINCESS JOY OR                                         20500
A1301400340683367953001FELLO, ROSEMARIE RODIL OR                               10503
A1301400340683367953001FELLO, BISMARK C                                        20500
A1301400340683664578001HERMOSO, MARCOS STA. CRUZ                                0501
A0101408240711616667001AGUILLON, JUVY MATA OR                                  10502
A0101408240711616667001AGUILLON, LOUIE                                         20500
A4101400260812246078001EMILANIE J. ESTOCADO                                     0502
A4101400260812250213001KIM SANG TAE                                             0503
A4101400260000003679943TAN, ANGELINA                                            0501
A4101400420000002345331LUZVIMINDA T. ESPEJO                                     0502
A4101400420814520766061ESTILLERO, SUSANA O.                                     0501
B4101400420814573133003MAGNETICA ELECTRONICS, INC.                              1601
B4101400550815038465004SOUTH EAST ASIAN MEDICAL CENTER INC                      1620
A0101412340000003343433JHON JEFFERSON P. GAMILLA                                0501
B0101404840851062200001PEOPLESOURCE MULTI-PURPOSE COOPERATIVE                   1601
B0101405070861008149001TABAQUERIA DE FILIPINAS INC.                             1606
B0101405070861008460005STARS TRAVEL INCORPORATED                                1602
A0601400230000003015823ALURA, JIMMY SUENO                                      10502
A0601400230000003015823OR ALURA, MERLE                                         20500
A0601400230000003015885MABBAYAD, MILANIE LAZARO                                 0502
