B0101402930381821100608**********                                               2003
A0101413280000013424561SO, CHERLYN ANN P DBU CAROLYN N                          0501
B0101414090000007344654GLOCAL FOOD CONCEPTS, INC DBU HOLY GRILL                11602
B0101414090000007344654SMOKE HOUSE                                             21600
A0101406620273458914001**********                                               0502
B2401400180411021162001TBB & SONS MARKETING                                     1601
A2401400180411048131001ONTARIO PURIFIED DRINKING WATER                         10501
A2401400180411048131001DISTRIBUTOR                                             20500
A2401400180411555962001SILVA, VIOLETA P. OR                                    10502
A2401400180411555962001SILVA, MARCELINO                                        20500
A0101403320471076446001********                                                 0501
A0101403320471382902001NILO T. CHUA GOY OR                                     10502
A0101403320471382902001JULIE L. CHUA GOY                                       20500
A0101403320000000067598EDRIAL, JUNE FRANCES JOSUE                               0501
A0101410140000005945297REYES, JANETH CRUZ                                       0501
A0101405940512312583005VICTOR MORADA                                            0502
B0101400860011033269001A-LIST GLOBAL CORP.                                      1602
A0101400860000009496371**********                                               0510
A0101400860011508115001**********                                               0502
B0101401250021034955001GLOBAL WINDS CORPORATION                                 1605
B0101401250021045783001A-E PRIVATE RESORT                                       1601
B0101401250000002763380RAMESH TRADING CORPORATION                               1601
B0101401250000004851150MERVIN REALTY CORPORATION                                1601
A0101401250000000907062MARCOS, NONITA NEPOMUCENO                                0501
B0101411370000000017990PHILIPPINE WOMEN'S UNIVERSITY                            1605
A0101400150000003198178ZARA MAE A. RAMOS                                        0502
A0101400150000006551044NAKPIL, MARY GERALDINE ANN                              10501
A0101400150000006551044LOPEZ                                                   20500
A0101400150000011153465ABOGADO, KRIZELLE AINA WEEKEMAN                          0501
A0101400150000010773772COLLADO, BENJAMIN JOSEPH III DA                          0503
B0101400150061018829001EL PASO PHILIPPINES ENERGY COMPANY                       1602
A0101400150061038536099***********                                              0501
A0101400150061087284001RODA, JULIUS R. DBU SJA TRADING                          0502
A0101400150000004619632SISON JR., ANTERO OR SISON,                             10502
A0101400150000004619632MILAGROS OR QUINTOS, MICH                               20500
A0101400150000000052980HERNANDEZ, BRENDA SOLIDUM                                0502
A0101400150000000760703HERNANDEZ, BRENDA SOLIDUM                                0501
A0101400150061464371002RODA, MARY ANN FLORES                                   10501
A0101400150061464371002OR RODA, JULIUS                                         20500
A0101400600071233668001**********                                               0502
B0101405810000005943320D.W. PLASTIC CORPORATION                                 1601
A0101405810000005315019CABER, RODALYN SALCEDO                                   0503
A0101405810072235427001**********                                               0501
A0101405810072385132001***********                                              0503
B0101405810072573152001COMEBUY ENTERPRISES CORP.                                1603
A0601400100000012784339CUA, ZENAIDA TERESITA QUINAN                             0501
A0601400100000012782862VILLAPANA, HELEN                                         0501
A0601400100081251805002MUNOZ, ANTONIO J. OR                                    10501
A0601400100081251805002MUNOZ, JENNIFER                                         20500
A0601400100081251805003ANTONIO J. MUNOZ OR                                     10501
A0601400100081251805003JENNIFER LAURIE                                         20500
A0601400100081552852001SANTOS, MA. LUCILA DIZON OR                             10502
A0601400100081552852001EDWIN MARK                                              20500
A0101413280092062132001REIKEN AUTOMOTIVE SUPPLY                                 0501
A0101414090000008927073PANGCO, JASON CHUA                                       0501
B0101414090000007344563BACOLOD ACREDITAR LENDING CORPORATION                    1610
A0101406040000003332965********                                                 0501
B0101406040112529889001J8 REALTY CORP                                           1603
A0101401960000006004422***************                                          0501
A0101412630000001823343CABANELA, JUDITH GUIRNALDA                               0504
A0101401830000000033729ABEJAR, SUSAN GAUNA                                      0502
A0101412920000003465063ALMARIO, CORNELIO AQUINO                                 0501
A0101412920000011166624RODICA, JOHN MARTIN BINGIL                               0502
A0101407270000003264986MAMMUAD, ROGELIO REPANI                                  0502
B0101407270000000830471SPIRO L. CLEMENTE AND JEFFERSON T. SO                    1601
A0101407270162623864001STEPHANIE JOYCE C. JOSE                                  0501
A0101401090000002641283SATURNO, WALNER ALAMAN                                   0501
B0101401090171017434001LINGKOD E.R. FOUNDATION INC.                             1601
B0101401090171017434002LINGKOD E.R. FOUNDATION INC.                             1601
A0101401090171196059001VENANCIO BESAVILLA JR. OR                               10504
A0101401090171196059001MIMOSA BESAVILLA                                        20500
A0101401090000001618800ESCOBAR, MARIA LOURDES OR                               10502
A0101401090000001618800PROCESO OR LEONILA                                      20500
A0101401090171199427001MARILU R. MADRUNIO OR                                   10501
A0101401090171199427001RODERICK C. MADRUNIO                                    20500
B0101401090171201922001UST COLLEGE OF COMMERCE ALUMNI                          11602
B0101401090171201922001FOUNDATION, INC.                                        21600
B0101401090171201922002UST COLLEGE OF COMMERCE ALUMNI                           1602
A0101401090171235546001GEORGE W. TING                                           0501
A0101401090171311070002TIM S. TRINIDAD                                          0503
A0101401090171335888001MANEJA, WARREN SALANDANAN                                0502
A0101401090171398774001JOANNA C. RONQUILLO                                      0501
A0301400530000005691114PALMERO, MARY CRIS GUILLANO                              0501
A0301400660000002913271SARA, MARTIN OCHOA OR SARA,                             10501
A0301400660000002913271MARIO OCHOA                                             20500
B0301400950000011415186SYSTEMSANDSHELVES INC.                                   1602
B0101401380201006666001AR NICOLAS MACHINE SHOP                                  1601
B0101401380201034247001HOBBIES OF ASIA INC.                                     1604
A0101401380201367197001MERCEDITA B. PAREDES                                     0501
A0101401380201421770001DEL ROSARIO, LORETA COSTES                               0501
B0101401380000000026968SENUBI TRAVEL CORP.                                      1602
A0101410720653374377001NERI, ROCELIA ROMAN                                      0501
A0101410720653505147001****                                                     0501
B0101412500000000739737MIKEWELL WORLD OF HOUSEHOLD PRODUCTS                    11605
B0101412500000000739737CORPORATION                                             21600
A0101413600000005794596CORAZON G. SINGIAN OR                                   10502
A0101413600000005794596FRANCISCO B. SINGIAN                                    20500
A0101413600000005355073MANUEL KHELVIN G. TORRES OR                             10501
A0101413600000005355073MA. LUISA THERESE AYENTO                                20500
B0101413600000004661541DVF DAIRY FARM, INC.                                     1610
A3101400160221343018001MODESTO P. ANDRES OR                                    10502
A3101400160221343018001ZENAIDA P ANDRES                                        20500
A3101400450223489008001SIO, MINNIE REGINA OR JOSELITO                           0501
A3101400870000000957940FARCON, JENYLYN REYES OR                                10502
A3101400870000000957940DE MATA, NENETTE                                        20500
A3001400130000000931191RACHO, AGNES ARAGON                                      0503
B3001400130000008264886PIPRIME CORPORATION                                      1606
A3001400130000008264795SERONAY, PERLA B.                                        0502
A3001400130000000668606JAQUE, MARIE ANGELIE CRISOLOGO                          10506
A3001400130000000668606JAQUE, ROMEO POL                                        20500
A3001400130230767566002JUMAPAO, MARILYN CASTRO                                  0501
B1001400190000011057968SAVELINK PHARMA AND TRADING CO.                          1602
A1001400190231478374086LORNA A. OMANDAM                                         0501
A1001400190231520766036ONIPA, JANE ROSE P                                       0501
A1001400190000002170769JUGAN, NOUE MALOLOT                                      0501
A1001400350000002367319CHAN, ALFREDO CAGARA                                     0501
B1001400350233034600001UPTOWN GROUP OF COMPANIES INC.                           1601
B1301400470252461680001CECILIO DIEGO OR FELIX DIEGO                             1602
B1301400470252465637001RAFAEL DR. CLEMENTE                                      1602
A1901400290000006560158CHENG, XIAOZHEN OR                                      10502
A1901400290000006560158YANG, ZONGCHANG                                         20500
B0101401670271668276001QUORUM HOLDINGS (QHC) CORPORATION                        1602
A0101406460000002331088CRISOSTOMO, DAVID LORENZO FONTA                          0501
A0101406460000001231430**************                                           0505
B0101406620000000015209SUNPRIME FINANCE INC.                                    1610
A0101406620273284184001TIENG, DAISY T.                                          0501
A0101406620273444658001GINA L. JULIANO OR                                      10503
A0101406620273444658001NOLY P. JULIANO                                         20500
A0101410980000002303800SY, BRYLLE JANSTED YUCHONGTIAN                           0503
A0101411110000002319951***********                                              0501
B0101411110276047842088CLIXLOGIC INC.                                           1601
B0101411110000000009054LIGHTSPEED BUSINESS SOLUTIONS INC.                       1602
A0101411820000001356150MARGARITA M. LOPERA                                      0501
A0101412470000002136107**********                                               0501
B0101400570281007169001ST. LUKE'S TRINITY COLLEGE NURSES                       11602
B0101400570281007169001ALUMNI ASSN INC.                                        21600
B0101400570000002104103JESUS IS LORD CHURCH                                     1603
A0101400570281361144001ERIC G. IDIESCA                                          0501
A0101400570281388539066LORENA, JOHN MICHAEL OLEA                                0501
A0101400570281399721002JOFFREY OR JORDAN UY                                     0501
A0101400570281417780001JOYCELYN TAN TANZO, D.M.D.                               0501
B0101400570281523692001EMERITA A. BARRENECHEA OR                               11602
B0101400570281523692001RUBEN V. OGBAC                                          21600
A0101411240000013428387LAVADIA, MELVA UY                                        0501
A0501400200000001081032CERDINO, REGINA ALMAZAN                                  0501
B0801400160000001289932RD PAWNSHOP, INC. - ILOILO NORTH                         1603
A0801400160311267104001SAN JOSE, BERMUNDO E.                                    0501
A6601400120000003673136DOMINICE, IGMELITA PEDROLA                               0502
A6601400120000003642653SULTAN, ALEX GRUTAS DBU ANDREA                          10502
A6601400120000003642653CONSTRUCTION                                            20500
A6601400120314620347001LIM, EMMANUEL A. OR BETTY A.                             0502
A6601400120314627037001LIM, JOSELITO CHENG                                      0503
A6601400120000005710630DY, FREDERIC JAN TUBELLO                                 0502
A6601400120000005710543RUADAP, REDENTOR ADALLA                                  0501
B3401400280000004959173MENN LOGISTICS SERVICES INC.                             1601
B0101402350321027311001HH ASIA TRADING INC.                                     1601
B0101405650000005381955MAGAT, SALUD MALUNES                                     1601
A0101405650000006893721BAGATSING, GRACE ABIGAIL CUSTOD                          0501
A0101405650000006893709DACANAY, DELIA VILLANUEVA                                0503
B0101405650322040854002GRETZ FINANCING CORPORATION                              1602
B010140565032204653300121 PZ HOLDINGS INC.                                      1602
A0101405650000009768110LOPENA, MARITES BLANCO OR                               10503
A0101405650000009768110LOPENA, PATRICIO                                        20500
A0101402510000013406121ZAMORA, JOCELYN MACARAEG                                 0501
A0101402510000011748759TAGANAS, ERICK JORDAN LU                                 0501
A0101402510341283268001LEONORA S. VERZOSA                                       0501
A0101402510341565802002GLAISA A. CLAVERIA OR                                   10502
A0101402510341565802002JAMES RONALDO A.                                        20500
A0101402060351009359003JIANDANI, SURESH G. OR                                  10501
A0101402060351009359003JIANDANI KAVITA                                         20500
A0101402060351349405002YAP, JAMES YU                                            0502
B0101402060351742540001AGTRIZ CORPORATION                                       1601
A0101409050000009981173LIBRANDO, SOPHY ANQUI                                    0501
A0101409050000003533515TY, RICA ALABADO                                         0502
A0201400920000000048031FMC CATERING SERVICES                                    0502
A0201400890000011310982CONTAPAY, RHYS CYRELL TUAN                               0501
B0201400890376043888008PYEZA PARTS DEPOT INCORPORATED                           1601
A0201401020377046499001TEH, MARIA ELENA BLANCO DBU                             10503
A0201401020377046499001E.T. PRINTSHOPPE                                        20500
A0101402930000003710665CRUZ JR., GIL SIENES                                     0501
B0101402930000012171418CEBU AIR, INC.                                           1601
B0101402930381040001001TURQUOISE TRAVEL & EVENTS                               11602
B0101402930381040001001MANAGEMENT CORP.                                        21600
A0101402930381205134001EDMUNDO SANIEL OR                                       10501
A0101402930381205134001MEDIADORA SANIEL                                        20500
A0101402930381208460001DR BENSON MARTINEZ OR                                   10502
A0101402930381208460001ATTY JOY AMETHYS                                        20500
A0101408370382205119001DR. FLORANTE P. GONZAGA                                  0501
A0101408370382205155003DR. ERWIN B. ALCAZAREN                                   0502
A0101408370382399121001IB THOMSEN OR WALTER VILLANUEVA                         10502
A0101408370382399121001OR TITA VILLANUEVA                                      20500
A0101408370382492557001DR. PETER SIMON R. JARIN                                 0502
A0101408370382792540001MICHELLE T. SALVADOR                                     0501
B0101408790383046705001MOTHER GOOSE PLAYSKOOL, INC.                             1601
A0101408790383446835001OLAYRES, DUGH SISON                                      0501
A0101411660000004597184UMBAY, BONERICK VALERA                                   0501
A0101402770391214689001ERICSON S. FONTE                                         0501
A0101405490392173784001*****                                                    0502
A0101405490392405331001FELOMINA S. SEBALDA                                      0501
A0101408400000008699961AQUINO, DANCELIE RODRIGUEZ                               0502
A0101408400000001952770MERIAN B BUERE                                           0501
A0101409180000003780610ELAINE NAUMAI CHEE                                       0501
B0101409180397042774001CDC REALTY INC.                                          1602
A5501400120000001121720BELDAD JR., REMEGIO DEBELDOS                             0501
B2401400180411026974001RICHMOND LAND INNOVATIONS, INC.                          1601
A2401400180411044483001OUR LADY OF PERPETUAL HELP                              10501
A2401400180411044483001PARISH                                                  20500
B2401400180411056764001RD PAWNSHOP, INC. - GENSAN REGION                        1603
A2401400180411431120001GELLANG, JOVY ALBARANDO                                  0501
A2401400180000001676935GABRIEL, MARVIN RODRIGUEZ                                0502
A1201400150000000473523AGWIKING, APOLONIA MANGACCAM                             0501
A1201400150000000473530ZAMORA, JENNYLYN NAYAD                                   0501
B1201400150421031870001BLESSED ASSOCIATION OF RETIRED PERSONS                   1602
B1201400150421031870002BLESSED ASSOCIATION OF RETIRED PERSONS                   1602
B1201400150421031870003BLESSED ASSOCIATION OF RETIRED PERSONS                   1602
B1201400150000000034391BLESSED ASSOCIATION OF RETIRED PERSONS                   1602
B1201400150421040269001NORTHERN LUZON MARKET ASSOCIATES CORP.                   1601
B1201400150000000034380THE LORD IS MY SHEPHERD CHRISTIAN MINIST                11601
B1201400150000000034380RIES BAGUIO CITY                                        21600
A1201400150421464835001*****                                                    0502
A1201400150421685972001JUCUTAN, HEIDI BONDAD OR                                10502
A1201400150421685972001JUCUTAN, ROMMEL                                         20500
A0901400220432704115001**********                                               0501
A5101400100000010834067VILLAHERMOSA, LEO PHILIPS CAMOM                          0501
B5101400100000010370975MN3K ENTERPRISES CO.                                     1601
A5101400100000010833935KAAMINO, MIRALYN BUCAG DBU WELK                          0503
B5101400100000010370931NVM MARKETING INC.                                       1605
B0101403030441039937001**********                                               1601
A0101403030441239795001**********                                               0501
B0101403030441239806001JETCO MOTOR SALES                                        1604
B0101406330000000011707KHUMBU ENTERPRISES INC.                                  1601
A0101406330472478374055ESPERANZA L. MALABOTE                                    0501
A0101410140475724235002LARRACAS, LYDIA BOLINAO OR                              10501
A0101410140475724235002LARRACAS, ANGELO                                        20500
B0501400170481018109002CSI WAREHOUSE CLUB INC.                                  1604
A0501400170000006300629GAZMEN, ARNEL GERARD RAYOS                               0503
A0501400170481394105001SENDAYDIEGO, PRIMER SISON                                0501
B3801400170490068538001RIVER OF LIFE INTERNATIONAL MINISTRIES                  11605
B3801400170490068538001CALAPAN, INC.                                           21600
A1401400110000000628513PAZ, LUCIA PIMENTEL                                      0502
A1401400110000001096173MACATUGOB, FERDINAND PORTE OR                           10501
A1401400110000001096173MACATUGOB, CARME                                        20500
A1401400110000000132841*******                                                  0501
A1601400170000000497569MARISSA A. ARCANGEL                                      0501
A1601400170494473635001BUELA, EPIFANIO BONEO                                    0501
A0701400260000009912672AMPONGAN, ANDRES PALACIO                                 0501
A0101403580000000016082SWEET BELLA DESSERTS                                     0506
A0101403580511278434001MARIA JOSEPHINE P. AKEBOSHI                             10501
A0101403580511278434001OR KAZUHIRO AKEBOSHI                                    20500
A0101403580511455059001GICA, GILBERTO AGUILAR OR GICA,                         10501
A0101403580511455059001MERLY DAMPIOS                                           20500
A0101403580511570521001ELEONOR B. BAYANI OR                                    10501
A0101403580511570521001JOVITO BAYANI                                           20500
A0101405940000001210017**********                                               0501
B0101405940512389672001FOR GOD'S GLORY FUND FOUNDATION, INC.                    1605
A0101405940000000505775ROXAS, LINCOLN CHAN                                      0502
A0101408530000013457542BUHAT, EDWARD JAMES TORRES                               0501
A0101408530000013450954VALENCIA, CRISTINA MARIE BACARE                          0501
A0101408530516485362001MELVIN ALLAN D. VICERAL                                  0502
A0101411790518055764107DABU, EDDA RECATO                                        0501
A0101411790518055815127SANTIAGO, FRANCIS LEONARD                               10501
A0101411790518055815127SAMALA                                                  20500
A0101412050000002314541PAGGAO, MARIE PINK VASQUEZ                               0501
A0101412050000011949394HU, JINBO                                                0501
B0101403450521011884001**********                                               1601
B0101403450000000889530T W & G, INC.                                            1601
B0101403450521012065001********                                                 1602
B0101403450521012066001**********                                               1602
B0101403450521014921001**********                                               1601
B0101403450521033683001KIMBERLY IMPORT & EXPORT CORPORATIO                      1601
B0101403450521041049001*******************                                      1601
B0101403450000000009798********                                                 1601
B0101403450521238604001**********                                               1602
A0101403450521241184001**********                                               0501
A0101403450521478374010MARICEL L. MORTIZ                                        0502
A0101403450521532090001**********                                               0501
A0101403450000007072648SON, LEONIDES TAN                                        0502
A0101403610000013460338DIZON, MARIA DOLORES RIVERO OR                          10501
A0101403610000013460338RIVERO, FELICIDAD                                       20500
B0101403610531053617001ADI LAW OFFICES                                          1601
A2201400250000010425480ROMEO MABUTAS AGLIAM                                     0503
A2201400250561478374026MINDA S. BLAYA                                          10501
A2201400250561478374026MEMBERS OF NATASHA                                      20500
A0101404130000002329091OPERARIO, MARIA JESSA NAPA                               0501
A0101404130601450078001ROBERT B. OCANA OR                                      10502
A0101404130601450078001MARJORIE OCANA                                          20500
B0101407720000006945282GREEN LIFT ELECTRO SYSTEMS &                            11602
B0101407720000006945282SERVICES, INC.                                          21600
A0101407720602398203001CONRADO GABRIEL C. LORENZO                              10503
A0101407720602398203001OR PIA L. LORENZ                                        20500
A0101407720602402581001DENNIS DAMASO OR                                        10503
A0101407720602402581001MA. ROSARIO DAMASO                                      20500
A0101407720602496503011KANDY KANE F. BORJA                                      0501
A0101412180000013448610NODORA, NESTOR ESCANILLA                                 0501
A0101412180603046771001CHING, JONATHAN DBU SYSTEMS PAC                         10505
A0101412180603046771001VENTURES                                                20500
B0101412180000000333617STA. ANA IMPORT-EXPORT, INC.                             1603
A0101404260000006374478LOCQUIAO, MARIA DIMLA OR                                10503
A0101404260000006374478LOCQUIAO, SAMSON LAGMAY                                 20500
A0101409920000002260497QUELLA, JOSEPH YAPANA                                    0502
A0101407690000006736496SALLY B. LABIANA                                         0501
A0101407690000005198132BERMASE, ELIZABETH TAN                                   0501
A0101407690652207408002BUAN, SHIRLEY GULMATICO OR                              10501
A0101407690652207408002BUAN, ARNEL                                             20500
B01014134400000090067248MANOR 8BINGO8 CORP.                                     1601
B0101413570000003580772JAC LINER, INC.                                          1601
A0101413990000013449431BELLO, SHEILA MARIE DE LA PENA                           0501
A0101414120000001142852TERESITA M. PUYAT OR MARY ANN                           10505
A0101414120000001142852MAGNO                                                   20500
B0101414120000001427470A.B. CRUZ SHUTTLE & GENERAL SERVICE                      1605
B0101414120000001984176G-LAND PROPERTY & DEVELOPMENT CORP.                      1610
B0101414120000004603398WEBLEND INC.                                             1601
A0101414120000000649069MARTINEZ, PAMELA NINA APO                                0501
A0101406590662791852001MALAIT, CESAR MANDAWE                                    0501
A0101410300000000191815CARBALLO, LUIS ANTONIO S. OR                            10503
A0101410300000000191815SALAZAR, EMMANUE                                        20500
A0101410300000000191939CARBALLO, LUIS ANTONIO S. OR                            10510
A0101410300000000191939SALAZAR, EMMANUE                                        20500
A1301400210682246052001EVALINDA V. HAO                                          0501
A1301400340000003458144************                                             0501
A1301400340683028272001MARCO INDUSTIRAL SALES                                   0501
A1301400340683289542001ZAMORA, HIPOLITA MANAHAN                                 0502
A1301400340683501003001GO, LLOYD CHUA OR CHERYL B GO                            0502
B1301400500000005963448NICOLINE.FREIGHT, INC.                                   1605
A0101408240000001038788MAGAT, GRACE JOVEN OR                                   10501
A0101408240000001038788MAGAT, JAMES TOR                                        20500
B0101408240711044307001TREASURE TREATS CONVENIENCE STORE                        1601
B0101408240000003501442CDC RESOURCES, INC.                                      1601
A0101408240711388163001FRANCIS L. YAP                                           0501
A0101408240711396224001FRANCISCO OR ANNABELLE ADRIANO                           0502
A0101408240711405456001ROMERO, SHELLEY ARCIAGA                                  0502
A2801400100000002253629YAMADA, HIROYOSHI                                        0501
A2801400100000002253710PROVINDIDO, ALLAN JUAREZ                                 0501
B4101400260000001198905WELLCARE CLINICS AND LAB., INC.                          1601
A4101400260000001198603DELOS SANTOS MARICAR DBU MDS GR                          0510
A4101400260812075947001PARADERO, CHARISSE SITCHON                               0502
A4101400260812478374021CATHERINE C. RODA                                        0501
B4101400260000001199082ARTHUR B. ALVIAR AND JOANNE S. ESPIRITU                  1602
B4101400420814023931001CHRIST'S COMMISSION FOUNDATION, INC                      1610
B4101400420814038729001FUNERARIA SAMSON INC.                                    1604
B4101400420000009392032FRIAL, RICKY TITO DBU RQF CONSTRUCTION                  11602
B4101400420000009392032AND TRADING                                             21600
A4101400550000004846960PADILLA, ROSELY                                          0502
A0101406750000007879198DUMLAO JR., ROGELIO BASILIO                              0502
A0101406750000010509069BARRAMEDA, ALEXANDER ORFANEL                             0503
A0101406750000005666817CDB ACCOUNTING AND TAXATION SER                         10502
A0101406750000005666817VICES                                                   20500
B0101406750852474662001SECURITY MARKETING & PEST MANAGEMENT                    11603
B0101406750852474662001INC.                                                    21600
A0101406750852649565001AYSON, CRISTLE APELO                                     0501
B0101405070000000428911INTERNATIONAL FREIGHT FORWARDERS PHILS                  11603
B0101405070000000428911INC.                                                    21600
A0101405070861289926002ALEA, EDGARDO EBORA                                      0502
A0101405070861380698001REYES SR., RENATO SISCAR                                 0501
A0101405070861478374073ROSARIO V. PARRENO                                       0502
A0101405070861478374086MARLYN C. GABEST                                         0502
A0601400230000003015549BATALLONES, CARLOS PEREZ                                 0501
B0601400230000003015590ESCOBIDO, SHIELA MANATA                                  1601
A0601400230000003638824ABARQUEZ, EDWARD BACANI                                  0501
A0601400230000005185855PANCHO, JASMIN KRISTIA OCAMPO                           10501
A0601400230000005185855OR PANCHO, JOYCE KRISTLE                                20500
A0601400230000007402199YAP, MATTHEW HANZ                                        0501
B0601400230891023794002MEGA FROST ICE CREAM BAR                                 1601
A0601400230000000990012GO, JONATHAN TAN                                         0501
