F1801400130151048763001MSU-IIT NMPC BACOLOD BR.                                 2601CKR
F0201400180181409254001SING, SUSANA YU                                         12505CKO
F0201400180181409254001OR ARTURO SING                                          22500CKO
F1301400470252431877001***********                                              2501CKO
F0101414540000002859272GEAR HEAD INC.                                           2606CK1
F3101400580452455447001QUEZCA CORPORATION                                       2602CKO
F0101407560686401718002**********                                               2504CKO
