A0101402060351409718001SUBIJANO, SHERWIN BALTAZAR                               0503
A0101410300000007613950YU, ALICE PO                                             0501
A0101410300000002375777******                                                   0502
A0101410300000000191951ANGULUAN, PAUL ARIS A.                                   0501
B0101410300663065092001ROTARY CLUB OF STA. MESA QUEZON CITY                     1601
A0101410300000006278744REYES, MILDRED BELVIS                                    0502
A2001400290315771486001MIOLE, CARLITO TOLIBAS                                   0501
A0101412890000007095550*********                                                0502
A0101410300663726102001ACOSTA, AURA OLIVAR                                      0501
A0101400860011235553001**********                                               0502
A0101400860011376010001**********                                               0505
A0101401250021456301001PALILEO, ROSALIE PUNONGBAYAN                             0501
A0101400150000003164612NEMMA G. HABERLE                                         0501
A0101400150000004090322ENCOMIENDA, KATHLEEN MALABANAN                           0501
A0101400150000005794261PINEDA, MARIA CHERIZA LACERNA                            0502
A0101400150000009399659ABANTE, SEIS ANTHONY CECILIO                             0501
A0101400150000009399682ABEDANIA, CHERRIE PAMELA PADILL                          0501
A0101400150000009399706AFABLE, MELVIN CARVAJAL                                  0501
A0101400150000009399728ALMONTE, LUDIVINA TAN                                    0501
A0101400150000009399740ANCHETA, TERESITA MEDINA                                 0501
A0101400150000009399762ANDAYA, JOHANNA MARIE BALLO                              0501
A0101400150000009399780AQUINO, CATHERINE MACARO                                 0501
A0101400150000009399808ARACO, ROSELLE CLEMENTE                                  0501
A0101400150000009399819AVENTAJADO, GINGER ALLEN LIMSON                          0501
A0101400150000009399831BALTAZAR, VILMA MEDINA                                   0501
A0101400150000009399853BUENAFE, MA. NAOMI LITTAUA                               0501
A0101400150000009399871CAINGLET JR., CESAR MAGDALE                              0501
A0101400150000009399893CARAG, PIERRE CHUA                                       0501
A0101400150000009399911CARIAGA, GILIAN MAE GONZALES                             0501
A0101400150000009399933CARINO, JENNIFER PAPERA                                  0501
A0101400150000009399951CATALIG, CHRISTINE MARIE ESCARI                          0501
A0101400150000009399973CATINDIG, MICHAEL ANDREW PASCUA                          0501
A0101400150000009399984CHUA, MYLEEN TAN                                         0501
A0101400150000009400004COMETA, CHRISTINE CABUYAO                                0501
A0101400150000009400026CONCHA, MELINA CONCIO                                    0501
A0101400150000009400048CRISOSTOMO, NINETTE TODENIO                              0501
A0101400150000009400060CRUZ, MAY FRANCES ESTAVILLO                              0501
A0101400150000009400071DALUGDUG, JIENA DARGANTES                                0501
A0101400150000009400106DE JESUS, PILAR LORDAN                                   0501
A0101400150000009400128DE LARA, CARMINA JEAN SANTOS                             0501
A0101400150000009400140DE LEON, CHRISTINE CAMANIA                               0501
A0101400150000009400173DIMAANO, KERIMA ROSALIND NOLASC                          0501
A0101400150000009400219EIJANSANTOS, JULIET JOY RANIN                            0501
A0101400150000009400231ESTRELLA, MARIE ANGELIQUE LAGMA                          0501
A0101400150000009400271FERNANDO, RACHELLE CAMANIA                               0501
A0101400150000009400311FUJIMOTO, YOSHIHISA NMN                                  0501
A0101400150000009400340GALVEZ, JACQUELYN KIU                                    0501
A0101400150000009400373GANANAN, JEROME GUEVARA                                  0501
A0101400150000009400395GONZALES, JUAN RAMON ANTONIO NU                          0501
A0101400150000009400420GUTIERREZ, ALVIN TRANQUILINO                             0501
A0101400150000009400442HASHIDA, TAKESHI NMN                                     0501
A0101400150000009400486HOKIMOTO, NOBUYUKI NMN                                   0501
A0101400150000009400511IBON, RAYMOND JOSEPH RAPADA                              0501
A0101400150000009400555ILAO, FLAVIANA COLLADO                                   0501
A0101400150000009400588JAQUILMAC, CECILLE ENTICA                                0501
A0101400150000009400613JARDIN, ANALISSA LAMINERO                                0501
A0101400150000009400635JAYME, MARTIN MANALAC                                    0501
A0101400150000009400679KOBAYASHI, KUNIAKI NMN                                   0501
A0101400150000009400704LEE, BRYAN HANSON LIM                                    0501
A0101400150000009400726LEE, JEREMY ADAM ANG                                     0501
A0101400150000009400760LIM, JOHN PAUL OCAMPO                                    0501
A0101400150000009400793MALLARI, MA. REENA JOY APAN                              0501
A0101400150000009400817MARCELO, ROHONEY ESGUERRA                                0501
A0101400150000009400839MARTINEZ, ROWENA ANN ARBOLEDA                            0501
A0101400150000009400862MENDOZA, VALENTIN FALCON                                 0501
A0101400150000009400880MERCADO, ROSEMARIE CHING                                 0501
A0101400150000009400919MERCADO, ELMA CATINGUEL                                  0501
A0101400150000009400942MILAGROSO, RONALDO DOMINGO                               0501
A0101400150000009400971MIRASOL, CATHERINE CASAS                                 0501
A0101400150000009401007MIYAMOTO, TADAHIRO NMN                                   0501
A0101400150000009401030MORALES, DANTE ISABELO GANER                             0501
A0101400150000009401052NAGUIT, ALFONSO MIRANDA                                  0501
A0101400150000009401081NATIVIDAD, MARIA LOURDES RIVERA                          0501
A0101400150000009401110OKANO, SHINYA NMN                                        0501
A0101400150000009401143ORTIZ, LIZA LU                                           0501
A0101400150000009401150PASCUAL, NANNETTE ANIBAN                                 0501
A0101400150000009401172PERALTA, JOHN PAUL GADUANG                               0501
A0101400150000009401194PERUCHO, JERALPH GONZAGA                                 0501
A0101400150000009401212RABINO, NINA ILANO                                       0501
A0101400150000009401223RAMIRO, DAVE ROBLES                                      0501
A0101400150000009401241REFUERZO, JULIAN JOSE MIRANDA                            0501
A0101400150000009401263REYES, NICOLE STEPHANIE CALAYAN                          0501
A0101400150000009401285REYES, REYNALDO ANDACA                                   0501
A0101400150000009401303RIDAD, MARIA ISABEL VALENTINA P                          0501
A0101400150000009401321RIMANDO, TIFFANY MENDOZA                                 0501
A0101400150000009401343RODRIGUEZ, RONALD MENDOZA                                0501
A0101400150000009401365ROSALES, GLADYS MAXIMO                                   0501
A0101400150000009401387SAUZ JR., JOSE KALAW                                     0501
A0101400150000009401423SISON, SERGIO DELA CRUZ                                  0501
A0101400150000009401445SUGIOKA, SATOSHI NMN                                     0501
A0101400150000009401467TAKAHASHI, SHINYA NMN                                    0501
A0101400150000009401489TANADA, EVANGELINE ROSE HONRALE                          0501
A0101400150000009401490TAN MALANTIC, JEANNE SY                                  0501
A0101400150000009401525TAOPO, JULIETA DELA CRUZ                                 0501
A0101400150000009401547TOTOKAWA, TAKAYOSHI NMN                                  0501
A0101400150000009401569TSUMURA , KEISUKE NMN                                    0501
A0101400150000009401605VALDELLON, LEA MARIN                                     0501
A0101400150000009401638VILLAREAL, ROSE AGUEDA APELO                             0501
A0101400150000009401650YAMAGUCHI, SHINJI NMN                                    0501
B0101400150000006004062AMPLIFY.PH INC.                                          1601
A0101400150061229002001REGINA S. ALCANTARA                                      0501
A0101400150061387199001AGUILAR, LEAH MOLINYAWE                                  0501
A0101400150061401408001GARIN, MARLON VILLANUEVA                                 0501
A0101400150061746999001********                                                 0505
A0101400150061746999001********                                                 0505
B0101400600071233610002**********                                               1630
A0601400100081639196001DIMALANTA, ANALYN TEGIO                                  0502
A0101410850000005316887TAMAYO, RUBILYN DE VERA                                  0501
B0101410850000000005643LIKAS YAMAN SERVICE CORP.                                1610
B0101410850000007294262COASTWAY SHIPPING AGENCY CORP.                           1603
A0101412920000005354616PAUNIL, MARLYN GRACE BEA                                 0501
B0101412920160065119001GLOBALCONSTRUCT INCORPORATED                             1601
A0101400440161459294001MARY ANN T. REGINALDO                                    0502
A0101400440161525001097NORMINDA G. ROSARIO                                      0501
B0101407270162019008001ORIENTAL & MOTOLITE MARKETING CORP.                      1610
A0101407270162203204001OGIE P. DIAZ                                             0502
B0101401090171007908001PERPETUAL SUCCOR HOSPITAL &                             11606
B0101401090171007908001MATERNITY, INC.                                         21600
A0101401090171195155001MA. AUXILIADORA R. REBURIANO                             0501
A0101401090171232456001DRS. ALBERT OR DAISY ISMAEL                              0503
A0101401090171304080001ILUMINADA M. LERMA                                       0505
A0101401090171353569001ALETH THERESE L. DACANAY                                 0502
B0301400530000003573528RD PAWNSHOP, INC.                                        1605
A0301400530193710800001TABANAO, JESICA G.                                       0501
B0301400790000003969484CODINO, JUDITO LAMOSTE OR                               11601
B0301400790000003969484CODINO, MARY ANN                                        21600
A0301400950000006080360***********                                              0501
B0301400950000000566912SOUTHGATE MANAGEMENT AND CONSULTANCY                    11601
B0301400950000000566912GROUP, INC.                                             21600
A0101401380000006542361ANTONIA C. CUNETA                                        0502
B3101400160221013530024RD PAWNSHOP, INC.                                        1601
A3101400450000005960352AQUINO, BEVERLY PADUA                                    0502
B3101400450223709906001SPC HARDWARE & CONSTRUCTION SUPPLY                       1602
A3101400870000005565391FERNANDEZ, A DBU ALFRO FOOD                             10502
A3101400870000005565391SERVICES                                                20500
A3001400130230094974001BRAVO, ROSEPT EBARLE                                     0503
A1001400190231022073001FARASIA EDUCATIONAL LIBRARY COR                          0502
A1001400350000004095232VILLODRES, AVRIL GRACE BOKINGO                           0501
A1001400350000003867250PEARSON, LAARNIE PEARL ROA                               0502
B1001400350233039624001ORO LZT MARKETING ENTERPRISES, INC.                      1604
A1001400350233478374001JUNIO, ROGELIA A.                                        0501
A1001400350233478374006IBANEZ, ELSA                                             0501
A1001400350233478374026ANNABEL ESTOMO                                           0501
A1001400350233503410002APARICI, ARMANDO AKIAT                                   0502
A1301400470252045619001GOLEM ENTERPRISES                                        0505
A0101406620000000962221ABELLON, MARK IAN MARTINEZ                               0501
B0101406620273021869001MACROLITE CORPORATION                                    1605
A0101406620273065151001VALDERAMA, MA. MINA MAGTAAN DBU                          0501
A0101406620273458914001**********                                               0501
A0101406620273729526001ROQUE, MARIBEL DIMAPILIS                                 0503
A0101400570000004624139EQUIPAJE, HIGINO GARCELAZO                               0501
A0101400570281484005001ARANAS, JOSEPH ANTHONY MERCADO                           0502
A0101400570281500167001**********                                               0505
B6601400120000000060875RCBC-OUR MOTHER OF PERPETUAL HELP                       11601
B6601400120000000060875MISSION CENTER                                          21600
A6601400120314613008001QUILETORIO, RUEL OR ANALIZA                              0501
A2001400290315746119002BUHISAN, CAROLINE LU   JT                                0505
B0101402350000000655492RD PAWNSHOP, INCORPORATED                                1604
A0101402350321179428001LYDIA C. TIU OR                                         10501
A0101402350321179428001JAMERSON C. TIU                                         20500
B0101402510341021863002SAN BEDA COLLEGE UNION (SBCU)                            1601
A0101402060351212245001MARIA MUTYA T. FAIGAO OR                                10501
A0101402060351212245001EUGENIE F. FAIGA                                        20500
B0101409050000000258462THE NEW REEDLEY INTERNATIONAL SCHOOL                     1602
A0101409050352460292001LUCELI C. CUASAY                                         0501
A0201400760374030540001ST. FRANCIS MANPOWER SERVICES                            0501
B0201400920000000047943ECCON DEV'T. CORPORATION                                 1602
A0201400890000002270140**************                                           0502
B0201401020000000005067GEMMARY PAWNSHOP AND JEWELLERY, INC                      1602
A0101402930381205137001DR. ROMANITO C. CABALONA OR                             10506
A0101402930381205137001LORETA E. CABALO                                        20500
B0101408370382047182001CRITICAL CARE NURSES ASSOCIATION OF                     11601
B0101408370382047182001THE PHILIPPINES                                         21600
A0101408370382420020001DR. MARIA VICTORIA V. TANGCO                             0501
A0101408370382677453001TERESITA CELESTINO HOWARD                                0502
A0101408790000005169217DE VERA JR., DENNIS OLESCO                               0501
A0101408790000000600035FDR FOODS-NTC-NCR                                        0510
B0101402770391021795001EARL METAL & PLASTIC PARTS FABRICATORS                  11605
B0101402770391021795001INC.                                                    21600
B0101405490000008380632PAULO SCHOLASTIC CHASTITY DE MONTES                      1605
A0101408400000006054553REGALADO, VILMA VELUZ                                    0503
A0101408400394503387001TAMO, ELVIE RIGOR                                        0501
B0101409180397024348001APPLESEED MONTESSORI INCORPORATED                        1601
B0101409210000004818833GENERAL MILLING CORPORATION                              1601
B0101414830400821100608**********                                               2001
B2401400180411056764001RD PAWNSHOP, INC. - GENSAN REGION                        1603
A2401400180411061316001GUAZO, ROBERT DIZON DBU                                 10501
A2401400180411061316001MAGNITON ENG'G.                                         20500
A1201400150000001863123BAGSINGIT, RAUL PALSIW                                   0502
B0101403030441303324001**********                                               1602
A0101412890000001765562CRUZ, AMANDA OR FERDINAND OR                            10504
A0101412890000001765562BERNADETTE                                              20500
A0101412890000002748003CRUZ, BERNADETTE L. OR                                  10504
A0101412890000002748003CRUZ, JOVITO FERDINAND                                  20500
B0101403320471008859001NEW LITE LUMBER & CONSTRUCTION                          11602
B0101403320471008859001SUPPLY                                                  21600
A0101403320471478374055BENITO OR REYZEL ESLABA                                  0501
A0101406330472027958001A. ANOLIN ENTERPRISES                                    0502
A0101406330000000162616LAND OF THE PROMISE TRUCKING                            10505
A0101406330000000162616SERVICES                                                20500
B0101406330000000432671WHIFF EMISSION TESTING CENTER, INC.                      1602
A0101406330472478374044ARMES SMITH B. ALVARADO                                  0501
A0101412760000002067643PERLAS, CONRADO VERDADERO                                0502
A3801400170490775460001GREAT M DELOS REYES                                      0502
A1901400160000000243558JJEG TRADING                                             0502
A1901400160491488114001RON VINCENT G CAGUIMBAL                                  0505
A0101403580511150799002KAREN MACASAET                                           0510
B0101405940512036113001MFC BISTRO FOODS CORPORATION                             1603
A0101408110000009108652FERNANDO, MARIA ANGELICA ACAYAN                          0501
B0101408530000001275281THE COVENANT CAR COMPANY, INC.                           1601
B0101403450521011910001KITCHEN BEAUTY MARKETING                                 1605
A0101403610531219303001DR. ROMEO R. ANDAYA  OR                                 10504
A0101403610531219303001DR. ANGELITA Y. ANDAYA                                  20500
A0101403610531430756002GERTRUDES A. SALVADOR OR                                10504
A0101403610531430756002LEONOR A. HADUCA                                        20500
A0101404000000005039878BASACA, VIRGINIA PAJARILLO OR                           10501
A0101404000000005039878BASACA, DIANE IRIS P.                                   20500
B0101404000551017716001SPEEDNET, INC.                                           1610
B0101404000551034740001SYMPHONY AND COLORS FLOWER SHOP                          1604
B0101404130601100007004SMART COMMUNICATIONS, INC.                               1602
A0101412180000009386310SAYSON, IVAN CHRISTIAN CORPUZ                            0501
A0101404260000003498551**********                                               0503
B0101407690652032315001BENEHEIM VENTURES CORPORATION                            1601
A0101407690652042183001MARINA'S FURNITURE SHOP                                  0510
A0101407690652517989001FLORANO, GUILBERTO COYOG                                 0502
A0101407690652662274001LACASANDILE, AGUSTINA LASTIMOZA                          0501
A0101407690652678597001HERRERA, ALICIA ARCEO                                    0501
B0101413440000000038213ROMBE PHILIPPINES, INC.                                  1605
B0101413570000000206500GREG M. MAGPARANGALAN VENTURES MANPOWER                 11603
B0101413570000000206500SERVICES, INC.                                          21600
A0101413570000002906578DIVEREP GENERAL MERCHANDISE                              0502
A0101413990000003141168PASCUA, JERICKSON LOUIE TAN                              0503
B1301400210682249265002AGNES P ANDAN OR NOEL FREDERICK PENEYRA                  1601
B1701400230000000010544ILOCANDIA FOODS CORPORATION                              1603
A0101408240711392969002SAZON, MARGARET MARY GOLDEN                              0502
A2801400230713717967001VANTA, PAZ ROWENA LABACO                                 0501
A4101400260000006043283MENDOZA, MARIA JANICE MENGULLO                           0505
A4101400390813478374060CASTRO, AMELIA                                           0501
B4101400420000006643387LEAD WITH INTEGRITY AND GOOD GOVERNANCE                 11605
B4101400420000006643387IN HELPING COMMU                                        21600
A4101400420000008280535FRIAL, RICKY TITO QUITEVIS DBU                           0502
A4101400420814520766097ORIENDO, CECILIA B.                                      0501
A0101404840851542980001MASANGCAY, NORA VERCELES                                 0501
A0101406750000004641861SIMBUL III, FILEMON NICOLAS OR                          10502
A0101406750000004641861ADELFINA SIMBUL                                         20500
A0101406750852649757001MONTECILLO, MARIA LOLITA DIAZ                            0502
A0101405070861035394088AMITY SATELLITE SYSTEMS,                                10512
A0101405070861035394088INCORPORATED                                            20500
A0101413860862065169001SOLDEVILLA, R DBU ROWENA E.                             10501
A0101413860862065169001REYES CUSTOMS BROKER                                    20500
