F0101408660274508786001VIVIAN T. UY OR BRIAN B. TAN                             2504CKO
F1801400130151048758001MSU-IIT NMPC PALA-O ILIGAN BR.                           2602CKR
F3101400320222025043001MARUBUN/ARROW (PHILS.), INC.                             2605CKR
F1301400470252034131002PARPAD BUILDERS                                          2610CKR
F0101408370382046274001SMART DRIVING CORPORATION                                2605CKR
F0101408400394030029001KEVIN'S KUT BARBERS, INC.                                2603CKO
F0101406750000000091023PLUS CONSTRUCTION INDUSTRIES                            12602CK1
F0301400790000001211681GABUTERO, ROMMEL D OR                                   12601CKR
F0101406750000000091023CORP.                                                   22600CK1
F0301400790000001211681GABUTERO, MICHEL                                        22600CKR
