A0101408790000000039085SORIANO, KATHERINE ILAGAN                                0502
A1001400190000000124898CHERYL M. SAIM                                           0501
A0101409890000000209141BATACLAN, KATHLYN JOY YUMUL                              0501
A0101410720000000234933BACAY, MARIBETH                                          0502
A0901400220000000425045LOZADA, ELIZABETH GO                                     0501
A0101401250000000441121CASTILLO, LORENZO UMIPIG                                 0501
A0101411820000000589408ARLYNE B. BRANDA                                         0503
A0101410690000000711033TIMBALOPEZ, MONINA DABU                                  0501
A0101400150000000760781HERNANDEZ, SHERYL GAUTANE                                0502
A0101412760000000767762MERCADO, LORNA DIMAFELIX                                 0501
A0101400150000000806940CHRISTOPHER DANIEL TAN MERCADO                           0501
A0101408790000000931106MUNSAYAC, NICHELLE VELASCO                               0502
A0301400530000001009961IBOT, LETHLE P.                                          0501
A0101412340000001017816MARANAN, JENNIFER GONZALES                               0501
A0101414120000001142932PIALA, WILLIAM BENTING                                   0501
A0101411530000001393733**********                                               0501
A1101400120000001920554PELPINOSAS JR., SILVERIO PACOMI                          0501
A0101409920000002260402ATENTO, SHERRY CLAIRE SOLEDAD F                          0502
A0101407430000002298315EXCEL A. GRESOS                                          0501
A0101413310000002317875RUSSEL, STEVYE LINN ANDAL                                0501
A0101413310000002317933MACALINTAL, CHRISTOPHER DELA CR                          0501
A1001400480000002659783REFUGIO, SOFRONIO RETUTAS                                0501
A0101410850000003102045MANALO, SOFIA DE GUZMAN                                  0505
A1301400500000003190952SIMBULAN, GREGORIA GAMBOA                                0501
A0101407270000003264986MAMMUAD, ROGELIO REPANI                                  0501
A0101404260000003498482EDNA S PLAN JANITORIAL SERVICES                          0501
A0101400860011483241002**********                                               0510
A0101400150061231438001NADONZA, RANILO                                          0502
A0101400150061453761066ARNOLD T. LACHICA                                        0501
A0101401960121452871001VIENNA MARIE GUANLAO                                     0505
A0101407270162029071001M+E SALVALOSA & ASSOCIATES                               0501
A0101407270162057930001DARIO, J DBU JLAD FORWARDING SE                          0501
A0101407270162087457001******                                                   0501
A0101407270162331908140LORELA Z. ALIPIO                                         0502
A0101407270162351252001WILFREDO C. CUEVAS                                       0502
A0101407270162569405001ALBERTO M. ALVAREZ                                       0504
A0101401380201501412001MEDINA, RUEL LIM                                         0501
A1001400190231478374086LORNA A. OMANDAM                                         0503
A2601400270302574301001ALEX UY TY                                               0501
A0101408400394478374098EDGAR D. NECESARIO                                       0501
A2401400180411752561001OSORIO JR., EUGERLY JANOLINO                             0501
A0101405940512281336001BARRERA, ELEANOR THATER                                  0501
A0101405940512401022002JENNIFER P. FERNANDEZ                                    0502
A0101407720602483110001YU, MICHELLE ANABELLE MERCADO                            0503
A0101404260611155266001YU, SUSANA OR EDDIE                                      0501
A0101410720653176518001GASCO, AMERPHIL OR LAGURA, RUTH                          0501
A0101410720653565189001VICTO, BERNARD KING QUIJANO                              0504
A0101410720653579026001PROLOGO, JORDAN CAMINO                                   0502
A0101413570656057648203RICHARD B. PINEDA                                        0501
A1301400340683461867001MARIANO, LEA LOBATON                                     0501
A2801400100712478374012DELA CRUZ, VANESSA JOY                                   0501
A4101400550815658814001ROMUALDO, NICE MATILING                                  0502
A0101406750852241118001FLORES, JOY                                              0501
A2601400270000000561506LUCKY PHAN BUILDERS AND                                 10505
A0101414120000000649025GERNESON ESPENORIO OR                                   10502
A0101408790000000931037UYBOCO, EDELBERT CASTILLO OR                            10502
A0101407270000000997748VICTORIA MICHELLE TAMAYO OR                             10503
A0101401090000001619012ROMMEL P. ROMANO OR MARIA                               10501
A0101414120000001751446MARIA GRACE LACUESTA OR RICKY                           10503
A0301400790000001776138ESCAMIS, JOSE PACLAR DBU                                10502
A0101409920000001951919MEMBERS OF NATASHA (SHOECAT INC                         10501
A0101410850000002356885MEDRANO, R DBU RAM TRUCKING                             10501
A0101408790000003812100HUR, IMELDA ASPERIN OR                                  10502
A0601400100081040294001MOIKAI INDUSTRIAL SUPPLIES AND                          10502
A0101400730111561049002CUEVAS, EMMANUEL GUINTO OR                              10501
A1001400190231380503007DRA. CYNTHIA BACONGA                                    10503
A0101400570281332030002DR. SIMEON D. TANZO A.K.A                               10501
A6601400120314622580001SOSING, CAROL O. OR FELIPE A.                           10505
A0101406750852056460001LABON, HERMINIA C DBU LITTLE                            10501
A0101406750852084318001SIBUG, GENEATH P. OR                                    10501
A2601400270000000561506CONSTRUCTION SUPPLY                                     20500
A0101414120000000649025RHEA ESPENORIO                                          20500
A0101408790000000931037UYBOCO, SHEILAH E.                                      20500
A0101407270000000997748ALESSANDRO TAMAYO                                       20500
A0101401090000001619012MARGARITA M. ROMANO                                     20500
A0101414120000001751446LACUESTA OR MILEAH GUMELA                               20500
A0301400790000001776138ESCAMIS BUILDERS                                        20500
A0101409920000001951919ORTIZ, GINA H                                           20500
A0101410850000002356885SERVICES                                                20500
A0101408790000003812100HUR, IN MU MOON                                         20500
A0601400100081040294001AUTOMATION SERVI                                        20500
A0101400730111561049002CUEVAS, NADINE                                          20500
A1001400190231380503007PHILAMCARE DOCTO                                        20500
A0101400570281332030002DR. SAMMY TANZO                                         20500
A6601400120314622580001OR CAROLYN O.                                           20500
A0101406750852056460001MERMAID LEARNING CENTER                                 20500
A0101406750852084318001SIBUG, ERNESTO M                                        20500
B08014001600000000102710ON REALTY AND DEVELOPMENT CORPORAT                      1605
B0101400150000000052822SEAWOOD CAPITAL INVESTMENTS LIMITED                      1601
B0101414120000000399093*****                                                    1604
B0201400760000001612835GLOBAL STAR MOTORS CORPORATION                           1602
B0101408370000001991660FOURTH VALLE VERDE ASSOCIATION INC.                      1604
B2801400100000003400551CAR CAR AUTO MOTORS SUBIC INC.                           1601
B0101412210000003448753STARLING GOLD MARKETING, INC.                            1601
B010141221000000344877132ND STREET PRIME DINER INC.                             1610
B7201400170000003772981LADLAD, EMSA BANA                                        1601
B0101400150000004090220RIVER SIDE STUDIOS MANILA, INC.                          1602
B0101400150061010833001VELCA TRAVEL & TOURS, INC.                               1601
B0101400150061039778001MANILA HOME FURNITURE RENTALS                            1603
B0101407270162041489001******                                                   1604
B0101401380201641563001FUNTRAVEL & TOURS CORP.                                  1602
B0801400160311014079002C C C FINANCE CORPORATION                                1610
B1101400120313039184001SARC FOODS CORPORATION                                   1605
B0101402770391042395001TRADEQ MERCHANDISING                                     1602
B0101408400394047845001BIOSPHERE GROUP HOLDINGS, INC.                           1601
B0901400220432047388088**********                                               1604
B0101403030441303324001**********                                               1602
B0101403450521011736001COFTA MOULDINGS CORPORATION                              1603
B0101404000551700890001HEADLAND ROAD CAPITAL INC.                               1602
B0101410720653035012001GENERIC SAVES DRUGSTORE                                  1603
B1301400210682016750001JFL AGRI VENTURE SUPPLIES                                1606
B0301400530000001409741ROBLES, EDDIE DBU VICTORIA CONSTRUCTION                 11601
B0201400920375512966002LIM JR., MANUEL OR LIM, IMELDA                          11602
B0101408950396561784001GLOBAL ANESTHESIA SPECIALISTS AT THE                    11605
B2801400100712035549001AUTOTEC AUTOMOTIVE TESTING AND EMISSION                 11602
B0101406750852474662001SECURITY MARKETING & PEST MANAGEMENT                    11603
B0301400530000001409741CELEDONIA ROBLES                                        21600
B0201400920375512966002OR LIM, SANTIAGO                                        21600
B0101408950396561784001FORT, INC.                                              21600
B2801400100712035549001CENTER INC.                                             21600
B0101406750852474662001INC.                                                    21600
B0101415510010601010116**********                                               2105
