B0101407430503821100608**********                                               2010
A1201400150421257377001SANAUNA OR MANNY PUNDOGAR                                0508
A2201400250561325585001FELICIANO T. BALIGOD                                     0501
A0101408370382672041001ALLAN P. CELI                                            0501
A2401400180411514423001DEALA, BERNARDITA GATCHALIAN                             0502
A2401400180411683511001AGUINALDO, BARBETTE BALABA OR                           10501
A2401400180411683511001AGUINALDO, ARNOL                                        20500
A0101400860011382943003**********                                               0501
A0101400860011388049002**********                                               0502
A0101400860011415528001***********                                              0502
A0101400860011419840002**********                                               0502
A0101400860011449713001**********                                               0502
B0101400860011483267001**********                                               1605
A0101400860011494800001**********                                               0503
B0101400860011497375001**********                                               1601
A0101400860011533026001**********                                               0502
A0101400860011546416001**********                                               0502
A0101400860000011515990**********                                               0505
A0101400860011568203001**********                                               0505
A0101400860011743703001**********                                               0510
A0101401250000011296923BINAS, JULIE NUAL                                        0503
A0101401250000007121400********                                                 0502
A0101400150000000808133MARTINEZ JR., MARIANO DELFIN                             0501
A0101400150000003164703GLENN E. IGNACIO                                         0501
A0101400150000003218373GRISELDA B. TESORO                                       0502
A0101400150000007710507JULIA M. SEGUI                                           0501
A0101400150000010560351CORTEZ, ALEAHNA MAE PASCUAL                              0502
A0101400150000012627122TAKAYAMA NAOHIRO                                         0501
B0101400150061011165001KAYAK HOLDINGS, INC.                                     1601
B0101400150000000000113STILLWOOD ORGANIZATION, INC.                             1601
B0101400150000000633469RNB TRAVEL AND TOURS CORPORATION                         1603
A0101400150061337010177ELIZABETH DY                                             0501
A0101400150061338964134RAYMUND P VILLAVICENCIO                                  0502
A0101400150061497416001PADUA, MARIA CARLA LUNA                                  0501
A0101400150000000807921TAN, ZENAIDA LERIOS                                      0502
B0101400150061513240002SUGARLAND GLOBAL HOLDINGS INC                            1601
A0101400150000000807932YU JR., LUIS NG                                          0501
B0101400150061768672001WILLOW CAPITAL CORPORATION                               1601
B0101400150061768964001MUIR RESOURCES                                           1601
B0101400600071336165002*******                                                  1602
A0101400600071541981001******                                                   0501
A0601400100000009323991CAI, GLORIA CO                                           0502
B0601400100081013248001REPUBLIC COURIER SERVICE, INC.                           1605
B0601400100081013248001REPUBLIC COURIER SERVICE, INC.                           1605
B0601400100000000786803SIMON AND STANLEY INTERNATIONAL TRADING                 11602
B0601400100000000786803& DEVELOPMENT CO                                        21600
A0601400100081403474003TAYAG, DENISE OCAMPO                                     0502
B0601400360000000025750NT. LIVE INCORPORATED                                    1602
A0601400520000004423192CARPIO, SHEILA BORRERO                                   0502
A0601400520000009516463JAMON, AILEEN TORRES                                     0501
A0101414090000003314810CAMACHO, MIKHAIL DUNGO                                   0501
A0101414090000003315011MONTEALEGRE, PRECY DYAN FAJARDO                          0501
B0101410850109069574003FIRST ODL CONSTRUCTION AND DEVELOPMENT                  11601
B0101410850109069574003CORP                                                    21600
A0101410560000005280462ROSE MARY S. RAPADAS                                     0501
B0101410560000008979311THRILLON INC.                                            1602
A0101410560000010317818JONATHAN R. LUNA                                         0502
A0101400730000001016500CRISTINA A. DIAZ                                         0504
A0101400730111203514058MARY ANNE CUARTERO                                       0501
A0101400730111203514059REYNALDO N. SALAMANCA JR.                                0501
B0101406040000006014299**********                                               1602
A0101406040112209061001ARNOLD C. MENDOZA                                        0501
A0101401960000006004535SY, ESTER CHOA                                           0501
A0101401960121241244001**********                                               0501
A0101401830141209834001LUALHATI R. JAVIER OR                                   10501
A0101401830141209834001KRISTINE R. JAVIER                                      20500
A0101400440000000821538MARITES T. JIMENEZ                                       0501
B0101400440161787254001JAPSON, DESIREE MALONZO                                  1601
A0101407270000004915891PHILIPPINE BATTERIES I, EMPLOYE                          0502
A0101407270000006265329DASWANI, MEENA T.                                        0501
A0101407270000006939082DELA PENA, AIDA ROSAURO                                  0502
B0101407270162019034002FOOD FEST LAND, INCORPORATED                             1602
B0101407270162031640002RVG SPARROW HOLDINGS INC.                                1602
B0101407270162033826002UNI-FILES SAVER CORPORATION                              1601
B0101407270162044807001RAMCAR HOLDINGS INCORPORATED                             1601
A0101407270162327773001LIM, MICHAEL O. &/OR                                    10501
A0101407270162327773001WILLY F. LIM                                            20500
A0101407270162333006013CONCEPCION DELIGERO                                      0501
A0101401090000007343695GONZALES, JOSEPHINE BARREDO OR                          10501
A0101401090000007343695GONZALES, VERONICA DEANNE                               20500
A0101401090171421977001AIMIE M. MAGLANGIT                                       0501
A0101401090171427857001SALVACION, CLAUDITH CARILLO                              0501
A0301400660000005691938DIEZ, RIZA PEDRONIO                                      0502
B0301400660000003362018ORIENTAL & MOTOLITE MARKETING CORP.                      1602
B0301400660000000022868KEIZENNG TRUCKING CORP.                                  1605
B0301400660000006755184EARTHPHIL CONST. CORP.                                   1603
B0301400660000006755111**********                                               1601
A0301400660000002348483**********                                               0505
A0301400790000006269834JALALON, CONNIE GENTILES DBU                            10501
A0301400790000006269834D C G GASOLINE STATION                                  20500
B0301400790000001244531LAGARTO, SHECEL DBU SHEER DEW                           11602
B0301400790000001244531PURIFIED WATER                                          21600
A0301400950000002115560VILLACAOL, CELESTIAL LANOSA                              0502
A0301400950000006080257CADORNA, JUDITH DBU TOUGH18                             10502
A0301400950000006080257TIRE MARKETING                                          20500
A0301400950000010424881TWENTY-TWENTY INTERIORS AND                             10501
A0301400950000010424881FURNISHING                                              20500
A0101401380000005219949********                                                 0502
A0101401380000005960067SAMSON, EDISON MARCELO                                   0502
B0101413020000006316805SYNDTITE CONSTRUCTION CORPORATION                        1603
A0101410720000004626380**********                                               0501
B0101410720210048089001DELEX PHARMA INTERNATIONAL, INC.                         1601
A0101412500000005300521VILLASENOR, VINCI NICHOLAS RIVE                          0503
A0101412500000005300565VALDEZ, PERICLES UBERITA                                 0501
A0101412500000003289970ADEVA, MARIA LUISA ROSANNA                              10501
A0101412500000003289970TECSON                                                  20500
A0101412500000011051220SALONGA, LUISITO MANANSALA OR                           10502
A0101412500000011051220SALONGA, EVELYN                                         20500
A0101413600000005355022EDDY FRANCIS B. GABRIEL                                  0502
B0101413600000005524829PRO EMPIRE TRUCK BODY CORP.                              1601
B3101400160221031027001ALLIED DOCTORS FOOD RESOURCES, INC.                      1603
A3101400160221772429001MEDINA, VILMA ALVIAR                                     0501
A1001400190000008743911PO, JAMES CUA                                            0501
A1001400190231446795001SAARENAS, LOIDA TAN OR SAARENAS                         10501
A1001400190231446795001JR., JULIAN                                             20500
A1001400190231520766110MAYOR, CARMELITA ANGCAY                                  0501
A1001400190000002170769JUGAN, NOUE MALOLOT                                      0501
A1301400470000005394345FELIX B. CAMACHO                                         0502
A1301400760000003415596PATRICK C. MUNCAL OR                                    10501
A1301400760000003415596LEA IVY F. MUNCA                                        20500
A1301400760000009441987JOHN JEFFREY G. SANTIAGO OR                             10501
A1301400760000009441987MA. FILIPINA V.                                         20500
A1301400760000012984864QUALILAB MEDICAL INSTRUMENTS                             0501
A1301400760000000050499PAOLO'S TRUCKING                                         0505
B1301400760000000050762AMAZING GRACE CHRISTIAN SCHOOL OF                       11601
B1301400760000000050762CAB. CITY INC.                                          21600
A1901400290000001975288FLORINDA MASAS BARTE                                     0504
B1901400290000001363188RD PAWNSHOP, INCORPORATED                                1606
A1901400290261493025090DR. KATHERINE HAPPINESS MARIANO                          0503
A1901400290261659949001JONATHAN PLANAS DE ROXAS                                 0503
A1901400290261689596001MARY ERNESTINE C COLUMBRES                               0501
A0101401670000009425521FABUL, JERRY OBRERO                                      0502
A0101401670000009425550SANTOS, MARY ANGELLE PASTORES                            0501
B0101401670271042155002D C SANDIL CONSTRUCTION AND REALTY                      11610
B0101401670271042155002DEV'T INC.                                              21600
A0101401670271186215002BENJAMIN C. RAMOS                                        0505
A0101401670271187189001RACHEL G. ESPIRITU OR                                   10502
A0101401670271187189001RHONA LISA G. ESPIRITU                                  20500
A0101401670271188016001ALEJANDRO R. SABINO                                      0501
B0101406460272041280001CYCLE RICH SUMMIT INDUSTRIES INC.                        1602
A0101406460000001285627SARAH INGRID AU SIA'S PERSONAL                          10501
A0101406460000001285627PRINT SHOP                                              20500
A0101406460272377244001ALA, JESSIE ATENTA                                       0501
A0101406460272658165001**********                                               0501
B0101406620273038634001BELLE HAVEN REALTY, INC.                                 1601
A0101406620273213660001EMILIANA G. MAURICIO                                     0501
A0101406620273236978001CALLEJA, HOWARD MACEDA                                   0503
A0101408660000002264973LEE, LUCY LINDA DY                                       0501
B0101411820000010701183ADVISIBLE MARKETING CO.                                  1603
B0101411820000003085163TECHNOPIPE CONSTRUCTION CORP.                            1601
A0101412470000002295861MENDOZA, VICTOR DINGIL                                   0502
A0101412470000010561872ROMEY, MARIA GRACE CHING                                 0501
A0101412470000002295736TANSIONGKUN, LULU GONZALES                               0501
A0101400570000003891418BUAN, DENISE MARIE RODILL                                0501
B0101400570281007818001ACE-NBS MULTI PURPOSE COOPERATIVE                        1603
A0101400570281468058001FERNANDEZ, MA. ASUNCION A.                               0503
A0101400570281500897001CHEE, ABIGAIL HAO                                        0501
A0101400570000002104181CHEE, ABIGAIL HAO                                        0501
A0501400200000005751646JACINTO, JOCELYN ORPILLA                                 0502
A0501400200000006272164TOLETE, MELINDA OVALLES                                  0501
B0501400200292021985002FOREST LAKE DEVELOPMENT, INC.                            1610
A0801400160311371749001GANGE, ERMAN GALLETO                                     0502
B1101400120313539341001PORAQUE, VICENTE TAN    JT                               1602
A6601400120000006154805ANAVISO, MA. PAZ GEPOLLO                                 0502
A6601400120000006154703MEMBERS OF NATASHA, SHOECAT INC                         10502
A6601400120000006154703RENNYROSE L PUASO                                       20500
A6601400120314612877001DELA CRUZ, ELMER SANSON                                  0501
A6601400120314612973001CABILI,MANUEL MELFORD OR MANUEL                         10503
A6601400120314612973001OR TERESITA OR ZYBELLE                                  20500
A6601400120000000060573GERIANE, JOSE ARIEL OR MA. GINA                          0501
A6601400120314617688001CARANZO JR., EXUPERANCIO OR                             10501
A6601400120314617688001CARANZO, MARY                                           20500
B6601400120314617698001CATARMAN DOCTORS HOSPITAL, INC.                          1610
B6601400120314617698002CATARMAN DOCTORS HOSPITAL, INC.                          1610
A6601400120314627348001RUBILLOS, LADY ANN MIJARES                               0502
A2001400290000001974070BAYAWA, BONEVIE AYUNTING                                 0501
B2001400290000002406640RUPERTO, NILO LUZURIAGA                                  1601
A2001400290000006776716TARIAO, SUSAN ALVAR                                      0501
B2001400290315638201001HO, NELLA OR HO, EMMANUEL                                1603
A2001400290315641895001WENCESLAO, JUNE CLEO OR                                 10501
A2001400290315641895001WENCESLAO, ANTON                                        20500
A0101402350000001474324MARTINEZ, KENNETH BUHAT                                  0502
B0101402350321006654001ABILITY ALUM. & GLASS SUPPLY                             1602
A0101402350321478374008VICTORIA ELLE                                            0501
B0101405650000000772812ONE BFCEA INC.                                           1602
A0101405650000002960810LIMCAOCO, RAFAEL ACUNA                                   0502
B0101405650322045765001AVC PRINTING                                             1603
A0101405650000004822231AZARCON JR., DBU                                        10501
A0101405650000004822231NOVAMIND BUILDER                                        20500
A0101405650322093557001CUEVAS, MA. DONATA NADINE OR                            10502
A0101405650322093557001CUEVAS, RAFAEL                                          20500
A0101405650322233526001TEE, FLORDELIZA B.           JT                          0502
A0101405650322349164001PANGANIBAN, JOHRIEL S. OR                               10502
A0101405650322349164001PANGANIBAN, VERO                                        20500
A0101405650322350126001SABADO, MILAGROS SEBASTIAN                               0503
A0101405650322356435001ENRIQUE BIE OR EVELYN V. PAULI                          10502
A0101405650322356435001OR RICHARD M. PA                                        20500
A0101405650322764401001CASTILLO, RICHARD MICHAEL ORTEG                          0502
B0101402060351017870003HANIN CORPORATION                                        1603
B0101402060351041162001VENTAJA INTERNATIONAL CORP.                              1602
A0101409050000003535146EDRIC BARANDA OLIVEROS                                   0502
A0101409050352494647001LOIDA M. HONORAS                                         0503
A0201400760374033157001WISE OWL GENERAL MERCHANDISE                             0501
B0201400760000001612802CRUISERS PROPERTY MANAGEMENT CORP.                       1601
A0201400760000005156532***************                                          0501
A0201400760374681548001ESPINA, RIA LIDIA GELAGA                                 0502
A0201400920000001331793TAYLAN, BENEDICTO PE BENITO                              0502
A0201400920375316580001LIM, PERRY TAN                                           0502
A0201400920375524523001MIEL, PRINCESITA OR MIEL, ALEX                           0502
A0201400890376080642001GALANG, LORLIE PACURIBOT OR                             10505
A0201400890376080642001GALANG, GLENN AN                                        20500
A0201400890376535686001SO, RIZZA ANTOINETTE YAP OR                             10501
A0201400890376535686001SO, MAYLINDA YAP                                        20500
B0101402930381012316001BUILDWORTH DEV. CORP.                                    1602
A0101408370000009296751TANHUECO JR., SERGIO MENDOZA                             0502
A0101408370382316447001DR CESAR RAMON G ESPIRITU OR                            10501
A0101408370382316447001DR VICTOR JOSE L                                        20500
A0101415350000005028831DE CHAVEZ, MEDARDO DBU MERDEC                           10502
A0101415350000005028831ENTERPRISE                                              20500
A0101405490000000232453ROMEL P. ALMEDA                                          0502
A0101405490000002253010ROSEMAE J. SISON                                         0501
A0101405490000006214160LUCIANO, LIZELLE SAMSON                                  0501
B0101405490000011681593MEIHAO CORPORATION                                       1602
B0101405490000000019963NAJIA MOVERS & PROJECT SPECIALIST INC.                   1602
A0101405490000000126463LORNA V. TUGADE                                          0502
A0101408950000007983871SANTOS, VANESSA MENDOZA                                  0501
A0101408950000004512105LUIS JR., LOLITO RODRIGUEZ                               0503
B0101408950396046715001PRIMELINK INSURANCE AGENCY, INC.                         1605
A0101408950000001785566MARCIA, JOSE PROTACIO DIJAMCO                            0501
A0101408950396761506001DONALD C. CRISTOBAL OR MA.                              10501
A0101408950396761506001FLORDELIZA A. CRISTOBAL                                 20500
A0101409180000005326621PACARAT, MARICEL GONTINAS                                0501
B0101409180397062516001PHYSIXARE ADTEK SOLUTIONS, INC                           1602
A0101409210000004736130MAGAT, LESLIE ANNE ROM                                   0504
B0101409210000002783384ELEVATE PHILIPPINES INC.                                 1602
A0101412210000000238500ZAMBRANO, SUZANNE JUANEZA                                0501
A0101412210000012172126ROXAS, AURORA RHODORA VILLEGAS                           0502
A0301400820000001185780RUFEROS, ROY KENNETH OR                                 10501
A0301400820000001185780AREVALO, MICHELLE                                       20500
A0301400820000005991699DONNABELLE BAKESHOP AND TEA                             10504
A0301400820000005991699KINGDOM                                                 20500
B0301400820000010546368JB LAZAN CONSTRUCTION AND SUPPLY, INC.                   1601
A0301400820000005991779MANGUBAT, ROSE M.                                        0501
A0301400820000002271967NAVARRO, AVIS M. OR NAVARRO,                            10501
A0301400820000002271967RODRIGO P.                                              20500
A0301400820000000024893ALIVO, JOENALD C.                                        0501
B5501400120000001121913PINGOY, ALBERT YUSAY DBU PUREWATER                       1603
B5501400120000000046853LAUNDRYWORLD LAUNDRY SYSTEM CORP.                        1603
A5501400120000006976803ILDEFONSO, CHAROL JANE SIMPAO D                          0502
A5501400120000006976961ELISAN, JOHN CRIS DEDEL DBU JCE                          0502
B5501400120000007963468WINVEST SUMMIT VENTURES, INC.                            1605
B2401400180411025867001RD CORPORATION                                           1602
B2401400180411056764001RD PAWNSHOP, INC. - GENSAN REGION                        1603
A2401400180411423199001GO, GRACE CHIU                                           0502
A2401400180000010066303OLARTE, EDWIN DOWIE ABUEVA                               0501
A1201400150000011167143MADAY-A, MARIA DELIA SUYAT                               0501
A5101400100000010834023AYOBONG, FELIX MONTANO DBU FMA                           0501
B0101403030000005944669**********                                               1602
A0101403030441239686001**********                                               0502
A0101403030441368293001**********                                               0504
A0101403030441469355001**********                                               0501
A0101412890000009833861NERA, MAURA DE SAGUN                                     0501
A0101412890000009833872NERA, MAURA DE SAGUN                                     0501
A0101410140000001074851SIOCHI JR., ANTONIO DE LEON                              0501
A0501400170481320433004MELENDEZ, AURORA REYES OR                               10502
A0501400170481320433004COQUIA, MARIBETH                                        20500
A0501400170481365467003CALLANTA, JOHN SORIANO                                   0505
A1901400160491265200001ARMELO OR CHARITO OR ROWLAND                            10502
A1901400160491265200001ROSS DE CASTRO                                          20500
A1401400110492222234003MARTINEZ, FERNANDO PELIPADA OR                          10504
A1401400110492222234003MARTINEZ, MA. LU                                        20500
A1401400110492300971001WILFREDO J. LAVAREZ                                      0503
A0701400260000003259374**********                                               0501
A0701400260000003259432ZAMORA, JULIUS SOPENA                                    0504
A0701400260000006215641LANUZA, ROSE ANN TOLENTINO                               0502
A0101407430000011167781MARTIN, JONAS NOLASCO                                    0501
A0101407430000006027903JONAS MARTIN OR MARIAN MARTIN                           10501
A0101407430000006027903DBU SIM ONE TRAD                                        20500
A0101407430503378525001EMMA C. MANALO                                           0501
B0101405940512027234001VIKING CARS, INC.                                        1601
B0101408530516035673001FERROTECH STEEL CORPORATION                              1608
A0101408530516571877110EMILIE JUNE C. CALONGE                                   0503
A0101408530000002980783MARALIT JR., ARSENIO PLETA                               0502
A0101411790000000576056DOMINGUEZ, YOLANDA GOLINGAY                              0501
A0101411790000013032778ALDOVER, VICTOR RALP ALLEN                               0501
B0101411790000004808082PDB PROPERTIES, INC.                                     1605
B0101403450521022302001**********                                               1602
B0101403450521025342001FERNA CORPORATION                                        1601
A0101403450521042752001********                                                 0501
A0101403450521240841004********                                                 0501
A0101403450521360229001**********                                               0501
A0101403610000006637034**********                                               0501
A0101403610531220632001BLANDO, LETICIA SALEM OR                                10501
A0101403610531220632001BLANDO JR., LUIS                                        20500
A2201400250561297004034EMMANUEL DIAZ MARALIT                                    0501
A2201400250000001545422DAVID, FELIPE ANGELES                                    0503
A0101404130601450536001CRISENTE G. CAYABYAB                                     0501
B0101407720000000885510PALAFOX ARCHITECTURE GROUP INC.                          1601
A0101407720000003886886OSMENA, MICHAEL JUSTIN TIENGO                            0501
B0101407720602026114001**********                                               1602
B0101407720602043283002MAKATI PEDIATRIC PULMONOLOGISTS INC                      1601
B0101407720000000885576ACTIMED INC.                                             1601
B0101407720000006028177BIOCARE LIFESCIENCES, INC.                               1602
A0101407720602161863003ROBERTO K. MACASAET OR                                  10502
A0101407720602161863003VIRGINIA M. RAFAEL                                      20500
A0101407720602198350002MEDINA, CLEOFE B.                                        0506
A0101407720602241314001**********                                               0502
A0101407720602286255002**********                                               0502
A0101407720602294877001REBECCA B. SINGSON                                       0503
A0101407720602294877006REBECCA B. SINGSON                                       0502
A0101407720602311315002ALFRED M. APOSTOL OR                                    10510
A0101407720602311315002MA. LEAH J. APOSTOL                                     20500
A0101407720602326333001SATURNINO PEREZ JAVIER                                   0502
A0101407720602343284001MARY ANGELINE RECTO OR                                  10501
A0101407720602343284001RODRIGO RECTO JR                                        20500
A0101407720602349929002**********                                               0502
A0101407720602363809001DR. MICHAEL SABALZA OR                                  10502
A0101407720602363809001DR. MA. JO ANN SABALZA                                  20500
A0101407720602397128001RUBEN V. ORTEGA, MD                                      0502
A0101407720602397352001RIVERA, LUIS ROBERTO FOOSHEE                             0501
A0101407720602398317001SALCEDA, PACITA RAMOS OR                                10501
A0101407720602398317001DE LEON, BELLA R                                        20500
A0101407720602398798001AVANCENA, MARIA CORAZON MONZON                           0502
A0101407720602418565001RELOS, JESUS ALVAREZ                                     0502
A0101407720602423597001AMOR P. LAURO OR CLEO                                   10504
A0101407720602423597001ANGELIQUE L. LAURO                                      20500
A0101407720000006028199DE PADUA, DONNA GONZALEZ                                 0501
A0101409890000009468608MANUEL, MARILOU LUCELO                                   0501
B0101409890649006451001HBC, INC.                                                1603
A0101409890000000049089GEMSTAR CLEANING SUPPLIES                               10504
A0101409890000000049089INTERNATIONAL                                           20500
B0101409890000000049192PLARIDEL PRODUCTS & SERVICES INC.                        1605
A0101407690000000025174MADRIAGA, LUZMINDA CAMINA                                0501
B0101407690000003767926LANTAU INDUSTRIAL SUPPLY & SERVICES                      1601
A0101407690000006736463CENTENO, MICHELLE DBU ASRA                              10503
A0101407690000006736463DOCTORS MEDICAL                                         20500
A0101407690652525001051ANNABELLE BADAYOS - DEALERS OF                          10501
A0101407690652525001051SHOECAT INC.                                            20500
A0101413570000005867430*******************                                      0501
A0101413570656057648012JUANCHO M. BEJAR                                         0502
A0101413570000010111761CABANIG JR., EMILIO DIMAILIG                             0502
B0101413990000000206113DRCB SQUARE CONSTRUCTION AND DEVELOPMENT                11602
B0101413990000000206113CORPORATION                                             21600
A0101406590000005305071ALONZO, MARISOL GAVINO                                   0501
A0101406590000005305071ALONZO, MARISOL GAVINO                                   0501
A0101406590000000131739GARCIA, EMMANUEL DELA CRUZ                               0501
B0101406590662634974001CITY HILLS BUILDERS (CHBC) CORPORATION                   1601
A1301400210000005040577**********                                               0501
B1301400210000005040828MUNOZ, AILEEN ANDAN DBU RED OIL BAD                      1602
A1301400210682247780002AILEEN ANDAN MUNOZ OR                                   10502
A1301400210682247780002DENNIS DELOS SAN                                        20500
A1301400500000012913172FLORETTA ENTERPRISES                                     0501
A1301400500684004478001MANAGER'S ENTERPRISES                                    0501
B1301400500000000011194GREEN FORTUNE GAS STATION                                1605
A1701400230000001108412DURAN JR., ROBERT MANDAC                                 0502
B0101408240000000005552PACIFIC AOE LOGISTICS INC.                               1602
A0101408240000000347299BENDITA, MICHELLE DELOS SANTOS                          10501
A0101408240000000347299AND AQUINO, MARILEN                                     20500
B0101408240711015633001CASAS DEVELOPMENT CORPORATION   PCF                      1602
B0101408240711043357001FREIGHTWORKS GSA, INC.                                   1605
B0101408240000000832906ASIA FREIGHT GSA, INC.                                   1605
A0101408240000007478262GALINDEZ JR., GODOFREDO RAZON                            0501
A0101408240711378646001FELMA C. ONG                                             0502
A0101408240711384215003LOURDES GRACE MAPALAD                                    0501
A0101408240711403571001ELMER T. BONDOC                                          0502
A0101408240711536332002**********                                               0502
A0101408240000000347528RAFAEL,JOSE JAVIER/ROSEMARIE/                           10501
A0101408240000000347528REGINA KRISTINE/JOSELITO                                20500
A2801400100000000906110SAGUM, ERWIN CANDA                                       0501
A2801400100712478374006OLIVIA G. ARAO                                           0501
A2801400100712501278001ARMAMENTO, NELSON ALIWALAS                               0502
A4101400260812380537001DR. JAIME L. PACIFICO                                    0502
A4101400260000001673452VELUZ, RONALD VILLANUEVA                                 0502
A4101400260812478374055ARLENITA E. MORALITA                                     0501
A4101400420000009343153PANTERIORE, EDELYN MACATO                                0501
A4101400420814506413001IBIAS, JOSEPHINE OCAMPO OR                              10501
A4101400420814506413001IBIAS, SEGISMUND                                        20500
A4101400420814520766004SALVACION D. BITANCUR                                    0501
A4101400420814520766108ESPANOLA, MERELY C.                                      0502
A4101400420000000710483ESPANOLA, MA. ANGILY CASANDRA                           10502
A4101400420000000710483CARBA                                                   20500
A4101400420814761710001ASTRERA, DOLORES SARIGNAYA                               0501
A4101400550815047619001HIMOC, RUBY ESTOR                                        0501
A4101400550815181675001MONTARDE, MILDRED PALABRICA                              0502
A4101400550815181680001MONTARDE, NELSON V. OR                                  10504
A4101400550815181680001MONTARDE, MILDRE                                        20500
A0101404840000001312532CHICO, DIVINA DE GULA                                    0501
A0101404840851046725013MARY JANE A. DE GUIA                                     0501
A0101404840000005820479YOLANDA W. GAGAN                                         0501
B0101404840000006365295PI COOL GAGS, INC.                                       1601
A0101404840851213737001*****                                                    0502
A0101404840851217637061JOSE MIGUEL A. DEL ROSARIO                               0502
A0101404840851481664041WILLIAM VILLACENTINO                                     0501
A0101404840851518304001DOLENDO, AYMON CARL SORTIGOSA                            0502
A0101404840851520766099EDLYN BRUNO                                              0501
A0101404840851520766184PASCUAL, GLEN IVAN                                       0501
A0101406750000002040135MENESES JR., JOSE PEREZ AND                             10505
A0101406750000002040135VERA MARIE MENES                                        20500
A01014067508520359810014K MEDICAL & DENTAL SUPPLY                               0503
B0101405070861020451001SOUTHEAST TRAVEL CORPORATION                             1604
A0101413860000000858960BALASAN, JORGE HILVANO                                   0501
B0101413860000000145195KEDAR DEVELOPMENT CORPORATION                            1601
B0101413860000001767815CWI WAREHOUSING & LOGISTICS CORPORA                      1603
