F0601400100081028022001NEW VISUAL SECURITY SERVICES                             2510CKO
F0101404680651454676001GLORIA C. PANGAN OR                                     12501CKO
F0101404680651454676001JESUS M. PANGAN                                         22500CKO
F4101400260000001673430MALIHAN, JOSE RENITO FRANI                               2501CKO
