B0601400520000000398512PAGASA PHILIPPINES LENDING COMPANY, INC.                 1606
A0101412920000003465121MACAALAY, MALOU ANICETE                                  0502
B0101412920160067751001WYSPHIL INC.                                             1601
A3101400740000011013428INOCENCIO, EDGAR A. OR                                  10501
A3101400740000011013428INOCENCIO, EDITHA C.                                    20500
A1101400120000001920678PALMA, JHOWIEN ROYO                                      0501
B1101400120313036439002ACME BUILDERS CORPORATION                                1605
B1101400120000000652362YANG, ROSITA GO OR UY,TIA SHENG                         11602
B1101400120000000652362OR UY, JOSEPHINE                                        21600
A0101408370382207662001DR. CELSO F. BATE OR                                    10501
A0101408370382207662001MRS. SOPHIA S. BATE                                     20500
A0101401250000008460019TIBAJIA, JOSEFA S. OR                                   10501
A0101401250000008460019ZAFRA, MARIE JOSEPHINE T.                               20500
A0101400150000010875615NOEL FONTILLA                                            0501
B0101400150061022729001GRANEXPORT MANUFACTURING CORPORATION                     1601
B0101400150061048055001HOME DEVELOPMENT MUTUAL FUND                             1601
B0101400150000006432577H2O LIFE SOURCE (SEA) PRIVATE LIMIT                      1602
A0101400150061338964041JUDITH S. CANDAZA                                        0501
A0101400150000002749780DANOSO, SHIELLA VAFLOR                                   0501
A0101400150061707501001ANG, JEANILLE ALYANNA UY                                 0501
B0101400600071234627001**********                                               1601
A0101405810072235171001**********                                               0505
A0101405810072361243002PONSARAN, MARY JANE RAMOS                                0503
A0601400100000002099261QUIWA, JEREMIAH BADAGUAS                                 0502
B0601400100081013248001REPUBLIC COURIER SERVICE, INC.                           1605
B0601400100081015753001TAPANG REALTY COMPANY                                    1602
A0601400100081086512001CAPUTOL, MA. JENNIFER PECJO                              0502
A0601400100081251940001TAPANG, AURELIO OR                                      10502
A0601400100081251940001TAPANG, GERALD                                          20500
A0101414090000008927084SIA, RAMON SY OR SIA, SHARLENE                          10502
A0101414090000008927084CHUA                                                    20500
A0101400730000002882502ULOB, GUARDINO MARTINEZ                                  0502
B0101400730111008330001CUEVASVILLE REALTY & DEVELOPMENT CORP.                   1602
A7201400170000003773353GUINEA, HERMINIA BAYA DBU CTG                           10501
A7201400170000003773353CONSTRUCTION & ENT.                                     20500
A0101412920000005354296ABROGENA, SHARON LOPEZ                                   0501
A0101400440161525001139JEMARIE S. SALUDAR                                       0501
A0101400440161591337001JENESSEY A. RANCES OR                                   10502
A0101400440161591337001JESSIE O. RANCES                                        20500
A0101407270000000818224****************                                         0501
A0101401090171195867002MIGUEL L. NOCHE JR.                                      0506
A0101401090171197840001DRS. PHILOMENA GABRIEL-LOPEZ                            10502
A0101401090171197840001OR ROLANDO LOPEZ                                        20500
A0101401090000007525728LOLITA S. VILLARANTE                                     0501
A0101401090171385883001CENON R. ALFONSO OR                                     10505
A0101401090171385883001MARGARITA LUISA A ALFONSO                               20500
A0101401090171389017001GACULA, BENNYPAUL PANED                                  0501
B0301400530193037467168TAGUM SG MARKETING CO.                                   1603
A0301400530000003573437BALUIS JR, DANILO DBU BALOANSJU                          0501
A0301400530193478374013RUELO, BELINDA                                           0502
A0301400530193551320168SO, MARIA CARMEN F.                                      0501
A0301400530193736529088VASQUEZ, BERNIE M OR                                    10501
A0301400530193736529088VASQUEZ, JENI RO                                        20500
A0301400790000001776207CELI, MARIA ESTELA MARFORI                               0501
A0101401380000000792252NERVES, REX QUITA                                        0501
A0101412500000011051220SALONGA, LUISITO MANANSALA OR                           10501
A0101412500000011051220SALONGA, EVELYN CANTERA                                 20500
A3001400130000001271312SHAPE & WELL NUTRITIONAL                                10501
A3001400130000001271312PRODUCTS                                                20500
B1001400190231022229001CITY ALLIANCE CHURCH                                     1602
A1001400190231272349001CHAN, MICHAEL L.                                         0503
B1001400190231417579001CLAVERIA TREE NURSERY, INC.                              1602
A1001400350000000017774VENADAS, MARC LOUIE L. OR                               10506
A1001400350000000017774VENADAS, ANGELIC                                        20500
A1001400350000010526713UY, SICENIA ONDAY OR UY, TAMMY                          10502
A1001400350000010526713LU                                                      20500
B1001400480000000133593DELUXE RANCH TRANSPORT CORPORATION                       1602
A1301400470000005394345FELIX B. CAMACHO                                         0502
B1301400760253044451002CONSUMERREACH, INC.                                      1610
B1301400760000000007201CONSUMERREACH, INC.                                      1610
A1901400290000003252855ELSA VILLAPANDO KASILAG                                  0502
A1901400290261050401001DIOSDADO M CAPUCHINO                                    10502
A1901400290261050401001DBU DMC DIAGNOSTIC CENTER                               20500
A0101401670271186236003CLARITA S. TANG OR                                      10502
A0101401670271186236003GLORIA S. LIM                                           20500
A0101401670271186236006CLARITA S. TANG OR MARGRIET S.                          10503
A0101401670271186236006TANG OR HELEN TANG                                      20500
A0101401670271465111001PATRICK S TANG OR                                       10502
A0101401670271465111001CLARITA S TANG                                          20500
B0101406460272021223001ORION INDUSTRIES INC,                                    1602
B0101406460000001231714FUNPACK MARKETING                                        1601
A0101406620000000051083SATUITO, OLIMPIA PEREZ                                   0504
B0101406620273017991001SAN MIGUEL CORPORATION                                   1601
B0101406620000003497176EMERGING POWER INC.                                      1605
B0101406620000003497278JOBIN-SQM INC.                                           1605
A0101406620273358539001MARIA TERESA L. JAHRLING OR                             10501
A0101406620273358539001ANGELO JAHRLING                                         20500
B0101408660000001940610WESTMINN CONSTRUCTION AND DEVELOPME                      1602
A0101411820000001356401JINGLYN MARIE P. PEREZ                                   0501
B0101411820277048022001FORGEMS MARKETING COMPANY, INC.                          1605
B0101411820000000024142HARDCOM COMPUTER SYSTEM CO.                              1601
B0101411820000003085112HARDCOM COMPUTER SYSTEM CO.                              1601
B0101411820000003085094MEDINFINITY INC.                                         1602
A0101400570000001681858GO, ROBERTO ONG                                          0504
A0101411240000007844542NIALA, HERBERT MAPAYE                                    0501
A0801400160000000009492MARIA IA JOY ESPINOSA LORING                             0502
A0801400160311347053002MA ELENA DIVINAGRACIA OR LLANE                          10502
A0801400160311347053002GRACE DIVINAGRAC                                        20500
B1101400120000006080742MONDEJAR, JOSE RENE ECHAVEZ                              1602
A2001400290000000978167SALON, EUGENE ALLAN DOLENDO                              0501
B0101402350321037094001WELL SPRING COLOR LAUNDRY LTD. INC.                      1601
A0101402350321638505001********                                                 0502
A0101402510000009991797*******                                                  0502
B0101402510341038356001LOKAL INDUSTRIES                                         1601
A0201400760000005711206SARMIENTO, MARGARET HONG                                 0502
A0201400920000000048031FMC CATERING SERVICES                                    0502
B0201401020377249471001COMMONWEALTH INSURANCE COMPANY                           1602
B0201401020000000005078COMMONWEALTH INSURANCE COMPANY                           1602
B0101402930381038710001BENMAR REALTY DEVELOPMENT CORPORATION                    1602
A0101408370382387809001DR. LEAH ROSARIO Y. DYCOCO                               0501
B01014027700000068124627 SEA AIR & LAND LOGISTICS SERVICES                      1602
A0101405490000005566361RODENAS, RACHELLE RIEGO                                  0502
B0101405490392030959002DIAMOND ROAD INTERNATIONAL CORPORATION                   1602
B0101405490000008380661GOLDENCITY NATURALS PHILS. CORPORAT                      1602
B0101408400394025635001KETMAR FASTFOOD CORPORATION                              1606
B0101408400394032168001ALQUIROS FOOD CORPORATION                                1602
A0101408400394780020001ALAWIYA, MOOMINA DATUMANONG                              0501
A0101408950000003171326SUMI, NATIVIDAD SANTOS                                   0505
B0101409180397024348001APPLESEED MONTESSORI INCORPORATED                        1601
A0101412210000007721004OSUNA, ANTONIO NICKO ALAIN T.                            0501
A2401400180000005286911LIM, SUSAN LIM                                           0501
A0901400220000000425045LOZADA, ELIZABETH GO                                     0501
B0101403030441024627001**********                                               1603
A0101403320471208445001ARLENE W. DELA ROSA                                      0501
A0101406330472542494001TEODORA A. RAZON                                         0501
A0101406330472766049001VERONIDIA G. DELA CRUZ                                   0501
A0101412760000001399293PEREZ, GABRIEL REYNALDO P. OR                           10501
A0101412760000001399293PEREZ, REYNALDO                                         20500
B0501400170481018109002CSI WAREHOUSE CLUB INC.                                  1602
B0501400170481025398002COSTSAVER'S SUPERMARKET, INC.                            1603
A0501400170000002354510BERMUDEZ, ELSIE MALAPIRA OR                             10502
A0501400170000002354510LEIZA JR., JUANI                                        20500
B1901400160000000007478BAYAN ENTERPRISE DEVELOPERS, GROWERS AND                11610
B1901400160000000007478EVOLVERS, INC.                                          21600
A1901400160491546773001IRENEA M ERLANO                                          0501
A1401400110000003475832RADONES, ARIEL SACRISTIA                                 0503
A1401400110000007186601xxxxxxxxxxxxxxxxxx                                       0503
A1401400110492621336001MOISES, JESSIE LOSAURO                                   0501
B0101407430503039663001ACES CHASSIS MANAGEMENT AND MARKETING                   11610
B0101407430503039663001CORP.                                                   21600
A0101407430503182387001MARLON M. VILLANUEVA                                     0502
B0101403580511017534001SAN LORENZO VILLAGE ASSOCIATION                          1605
B0101403580511067541001CLONMEL HOUSE BUSINESS CORP.                             1601
A0101403580511156550004CESAR A. AVERIA                                          0505
A0101403580000007265401BANTILING, JOSE P. OR                                   10503
A0101403580000007265401BANTILING, ELENITA P.                                   20500
A0101403580511484313001JACQUELINE DELOS SANTOS                                  0501
A0101405940512522504001YU, JONATHAN MARC CHAM OR                               10502
A0101405940512522504001YU, HENRY LEE                                           20500
B0101411400000006561048HAMOY & ASSOCIATES                                       1601
A0101411790518055815114RODRIGUEZ, MARIA LOIDA LORESTO                           0501
B0101403450521028340001**********                                               1601
B0101403610531043009001DEMARCIA REALTY AND DEVELOPMENT COR                      1601
B2201400250000001545433CATALINA INES B. TAJANLANGIT OR                         11612
B2201400250000001545433RANDOLPH C. TAJA                                        21600
B2201400250561016484001BARON FARMS CORPORATION                                  1615
A0101404130000009533193PINEDA, ARLENE BERNARDINO                                0501
A0101407720602378666002FILOTEO CERENO FERRER                                    0502
A0101407720602381795001FORES, MIGUEL EDGARDO MANUEL                            10502
A0101407720602381795001OR FORES, LUCIA                                         20500
A0101407720602383118002FLORENTINO, ALVIN COSIO                                  0501
A0101404260611029542001BLOOMFIELD ACADEMY OF MAKATI,                           10504
A0101404260611029542001INC.                                                    20500
A0101404260000000550127SALAZAR, CARL P DBU ACN OFFICE                          10503
A0101404260000000550127MART                                                    20500
B0101409890000003098173V.T. LAGUYO CONSTRUCTION, INC.                           1603
A0101407690652028378002HIGHER GROUND FOOD STATION                               0501
A0101407690652544490002HEYDEE B. ROSAL OR ALMA B. KING                          0501
A0101413440000007953015**********                                               0502
A0101413570000002906567TORRES, LIZA CRUZ                                        0501
A0101413990000000206033MARITES R. CONANAN                                       0502
A0101406590000003007143GO, SAM KEVIN MICHAEL UY                                 0501
A1301400210000003104912ZEN TEN TRUCKING AND HAULING SE                          0502
B1301400210000005041029AIROCLAD INCORPORATED                                    1602
A1301400340683494901001***                                                      0501
A1301400500000009723151**********                                               0502
A1301400500000000213163NORVY G. MARCELINO OR GILLYN                            10505
A1301400500000000213163D. MARCELINO                                            20500
A1701400230693478374044CECILIA CORRALES                                         0501
B0101408240711038557001THE BRIDGE SCHOOL, INC.                                  1605
A0101408240711532094001LEEPRAWAT, MICHAEL L. OR                                10502
A0101408240711532094001LEEPRAWAT, JOCELYN                                      20500
A2801400100712582575001LLANTADA, JOANNA LEE BACALA                              0501
B2801400230000001580296DEL ROS AMUSEMENT ENTERPRISES, INC.                      1602
B4101400420814015551002REGATTA CLASSICS HOMEOWNERS ASSOCIATION                  1601
A4101400550000001622719MINA, MARY JANE VALDESCONA                               0501
A4101400550000006044377TANIMOTO, RODELIA UMALI                                  0501
A0101404840851532839001CAJEDA, ARLENE OROSA                                     0501
A0101405070861478374086MARLYN C. GABEST                                         0502
B0101413860862821100608**********                                               2002
A0601400230000007402315CURA, MARITESS PANGILINAN                                0502
A0601400230000002650200ST. THERESA DIALYSIS CENTER, IN                          0510
A0601400230000001062457RAMOS, MANILYN GOZUN OR                                 10502
A0601400230000001062457RAMOS, JOHN RAYMOND                                     20500
B0601400230891647141001PATERNO &/OR MA EVANGELINE LUCIANO OR                   11605
B0601400230891647141001MARY GRACE LAZAR                                        21600
