A0101407560000000003481***************                                          0502
A0301400820000000045554DENUNA, HAZEL F.                                         0501
A0101410720000000053227RIMANDO D. BELLEZA                                       0502
A0101413020000000056864ABELLA, CRISTINA CABICO                                  0501
A6601400120000000060540GARABEL, MARISSA DELORINO                                0501
A0101414120000000398972ULDERICO MERCED TRUCKING                                 0502
A1601400170000000497412EVANGELINE G. MARINAY                                    0501
A0101409210000000502350ORTIZ, DIANNE JOY WARREN                                 0501
A0101402350000000521195JHIEDRICK TRADING                                        0501
A0101402640000001150150BAUTISTA, NORMA LLANETA                                  0501
A3001400130000001271363PALUCA, LIZA MORAL                                       0502
A1301400470000001299009NIDA S. AQUINO                                           0501
A0101401090000001618884GLINOGA, DIANA ARBOLEDA                                  0501
A0101403450000001637885*****************                                        0502
A0601400230000001687152TANEDO, KENT ANTHONY ROQUE                               0501
A0101409180000001694260PENUS, LINA ROSE SARAVIA                                 0501
A0101400730000001697298ALAN J. CASTRO                                           0501
A3101400870000001712185LLAGAS, ROED VALLESTERO                                  0501
A3101400160000001791911MARY GRACE R ALCANTARA                                   0501
A0901400220000001805016**********                                               0501
A0901400220000001805027BLACK ARROW SECURITY AGENCY INC                          0501
A0901400220000001805038**********                                               0501
A1201400150000001863210LAO, IMELDA TAN                                          0504
A0101402350000002310612MEDEL, CARLOS FRANCO CAPUL                               0501
A0101400150061038536008AVELINE ALVAREZ                                          0501
A0101400730111412858025JOVITA R. GARCIA                                         0501
A0101400440161525001131RIA B. IBANEZ                                            0501
A0101401090171355235001EMMANUEL O. BRAGANZA                                     0502
A3001400130230478374011BULADACO, RUBY MADRIO                                    0502
A1101400120313478374074UNGAB, ROSALINDA B.                                      0501
A0101402350321330335001BEATRIZ G. WAKAI                                         0503
A0101405650322493557001ESTEBAN, RICARDO GARCIA                                  0501
A0101402060351422451001OLARTE, JOEL QUIAMCO                                     0501
A0101402060351426733001HILARIO, SIMONE-MARIE RIVERA                             0501
A0101402770391217498024ROLANDO V. CORTES                                        0502
A0101405490392174685001VICTORIA T. ANGULO                                       0501
A0101408400394559004001CAMPOTO, JONAH LYNN BRILLANTE                            0501
A2401400180411478374057ELLEN J. DIMACUTAC                                       0503
A2401400180411612792001SARDIDO, MARIA NAVALTA                                   0501
A1201400150421252693002ALEJANDRIA, ARCELY ALABADO                               0503
A0901400220432478374001LEONARD GO LOZADA                                        0502
A1901400160491034372001FIESTA HOME CENTER (FHC) CORP                            0505
A1401400110492357128002ESPARAS, TERESA BAUTISTA                                 0502
A0101407430503185437003MERLYN D. GALLARDO                                       0503
A0101404130601339889002HODREAL JR., JOSEPH MATIAS                               0505
A0101407720602390297001PREYSLER, MARIVIC G.                                     0501
A0101407720602397746003NOLIDO, ANNA MARIE SAGE                                  0502
A0101410720653478374050MYRA B. GERMANO                                          0501
A1301400340683478374040JARANILLA, VIOLETA                                       0503
A2801400100712674010001JULIAN SR., FERNANDO FELIPE                              0503
A4101400420814520766114BAYER, LOWELYN C.                                        0502
A0101404840851478374002VIOLETA Z. PANZO                                         0501
A0601400230891399716002DAVID, ALBERT OLALIA                                     0502
A0101408400000000029536EVERYTHING ESSENTIALS GENERAL                           10501
A0101408240000000039530MORADA, VICTOR GERARDO M. OR                            10501
A0101412500000000041614BERMEJO, MARIA JOSEFINA                                 10501
A0101400150000000808042GUILLANG, ARIEL LUCERO OR                               10501
A0101414120000000875903GRACE OR GEORGE DENNIS                                  10503
A0101411240000001563435ORGAS, ERICSON UY DBU ORGAS                             10501
A0101413280000002317660RIZALDY R. BERNABE OR                                   10502
A1301400760253087654001CATHERINE F SANVICENTE OR                               10505
A0101400570281739506001JOHN CLAUDE S. CABREROS OR                              10502
A1101400120313054778001CHUA, REYNALDO SINGZON DBU                              10501
A6601400120314042312001NORSAM BUILDERS & CONSTRUCTION                          10503
A2401400180411616323001FERNANDEZ, JOSEPH SEVILLA OR                            10502
A1401400110492412423001LUNA, MA. TERESA MAGBOO OR                              10503
A0101407720602396271001DR. MAY O. SISON                                        10505
A0101408400000000029536MERCHANDISE                                             20500
A0101408240000000039530MORADA, MARIA MAI MONICA                                20500
A0101412500000000041614JAVALUYAS                                               20500
A0101400150000000808042ANGELES, SAHARA                                         20500
A0101414120000000875903CABARRUS                                                20500
A0101411240000001563435TRUCKING SERVICES                                       20500
A0101413280000002317660JACQUELINE D. BERNABE                                   20500
A1301400760253087654001VINCENT PAUL P SANVICENTE                               20500
A0101400570281739506001HERBERT R. FERANDEZ                                     20500
A1101400120313054778001LEHCI FOOD VENTURE                                      20500
A6601400120314042312001SUPPLY                                                  20500
A2401400180411616323001HONG, LI QIN                                            20500
A1401400110492412423001LUNA, EDWIN                                             20500
A0101407720602396271001OR DR. JORGE A. SISON                                   20500
B0101411790000000005318REM BUILDERS CORPORATION                                 1602
B3101400740000000013936EXELPACK CORPORATION                                     1610
B0101406460000000182483WEE COMMUNITY DEVELOPERS, INC.                           1602
B0101414120000000399213JOBS ON THE GO SERVICE COOPERATIVE                       1602
B0101407270000000830540QUANTUS BUSINESS SERVICES, INC.                          1605
B0101408240000000832962CARMEL LAND SALES & DEVELOPMENT CORP.                    1610
B0101407270162040113001EVERGREEN ENVIRONMENTAL RESOURCES INC.                   1603
B0101407270162040537001TOTAL QUALITY BUSINESS SOLUTION INC                      1605
B0101407270162044738001BARTLE BEYL, INC.                                        1605
B3101400160221024274002STA. CECILIA BUSINESS CENTER                             1601
B0101406460272038032004WEE COMMUNITY DEVELOPERS, INC.                           1603
B2601400270302038314001GOLDEN SEASON GRAINS CENTER, INC.                        1605
B0201400760374032843001ALLMIX TRADING, INC.                                     1602
B0101402770391009342001ALIWOOD TRADING CORPORATION                              1603
B0101402770391009343003STEELITE CONST. CORP.                                    1602
B2401400180411014550001GSC PROGRESSIVE MULTI-PURPOSE COOP.                      1602
B2401400180411040906001JOLYROB FISHING                                          1605
B1401400110492541441001MANTALA, ROSEMARIE ARAOJO                                1601
B0101407720602018196003BELO MEDICAL GROUP, INC.                                 1610
B0101407720602697838001NCT SPA CORPORATION                                      1601
B0101408240711781355001SOLART SHIPPING AGENCIES CORP.                           1620
B0101402770000000080635PHILIPPINE SKYBIRD INDUSTRIAL                           11602
B1101400120000000652880YAO, ANTHONY ROBERTSON GO AND YAO, MARK                 11605
B0601400100000000786803SIMON AND STANLEY INTERNATIONAL TRADING                 11605
B4101400550000000900014CAVITE PEOPLE FOR SOCIAL CONCERNS MULTI                 11603
B0101405490000001092488NORTHSHORE HARDWARE & CONSTRUCTION                      11602
B0101407430503039663001ACES CHASSIS MANAGEMENT AND MARKETING                   11610
B0101402770000000080635CORPORATION                                             21600
B1101400120000000652880ALAIN GO                                                21600
B0601400100000000786803& DEVELOPMENT CO                                        21600
B4101400550000000900014PURPOSE COOP                                            21600
B0101405490000001092488SUPPLY                                                  21600
B0101407430503039663001CORP.                                                   21600
