B0101408950396821100608**********                                               2005
A4101400420814357382003REMULLA, GILDA VASQUEZ                                   0501
A4101400420814422280001DELGADO, ELVIRA CARIENENA                                0502
A0101412340000001017861DERECHO, VIRGINIA ALCONERA                               0501
A0101400860011486826001**********                                               0502
A0101400860011618820001**********                                               0505
A0101400600071739008001********                                                 0501
B0601400100081253610002NG, WILFREDO M. AND AQUINO, JANET B. AND                11601
B0601400100081253610002BUAN, ROLAND S.                                         21600
A0601400100081254005001TANGLAO, CARMELO OR                                     10501
A0601400100081254005001TANGLAO, MARILOU                                        20500
A0101410560000002316581**********                                               0501
B01014007301110195730012GO GROUP, INC.                                          1610
A0101400730111386485175IVANHOE O. MARASIGAN                                     0502
B0101406040000000096662CONCEPT SPECIALIST, INC.                                 1605
A0101401960121317797001**********                                               0503
A0101401960000002331744*************                                            0501
A0101401960121554539001TAN, ANNA BELLA                                          0502
A0101413310000001928936CABANSAG, ARMEL CABANATAN DBU                           10502
A0101413310000001928936AVIATOURS TRAVEL                                        20500
A0101400440000000596629ZENAIDA O. CALLEJO                                       0501
A0101400440000001439641BETTER CREDIT INSPECTION                                10501
A0101400440000001439641SERVICES CO.                                            20500
A0101400440161193275002GOLIMLIM, RUBY TENMATAY                                  0502
A0101400440000000029401ANGEL, HELEN VILLANUEVA                                  0501
A0101400440161525001104EVELYN G. GARCIA                                         0501
A0101401090000004983935ALUNAN, GRACE MARIE CAMMAYO                              0501
B0101401090171042218001RD CASH PADALA, INC. - AREA 02                           1605
A0101401090171196112001DARIO T. GARCIA                                         10501
A0101401090171196112001OR ELSINOR GARCIA                                       20500
A0101401090000001618800ESCOBAR, MARIA LOURDES OR                               10502
A0101401090000001618800PROCESO OR LEONILA                                      20500
A0101401090171198970001JOSELITO F. DAVID                                        0503
A0301400530000002318561VILLANUEVA, FEDERICO MAGPAYO OR                         10501
A0301400530000002318561VILLANUEVA, MARITESS                                    20500
B0301400530193037483168TAGUM AB MARKETING BUY & SELL                           11605
B0301400530193037483168AGRI PRODUCTS                                           21600
B0301400530000003088140PALMCITI RICE MILLING CORPORATION                        1605
A0301400530000000066011CABRERA, EDUARDO ABERILLA                                0501
B0301400660194046023088ROPE HANDLERS MINDANAO MOORING SERVICES                  1601
A0101413020000000880411GARALDE, GLENN DALE BANZUELO                             0501
A1001400190231520766094SALAGUSTE, FELIPE B.                                     0501
A1001400190231520766129SANCHEZ, CATHLYN E.                                      0501
A1001400350233668674001ENDAYA, JILL YVES LORRAINE LAO                           0501
A1901400290000002337782REYNALDO JOVES GARCIA                                    0501
B1901400290261033214001RD CASH PADALA, INC.                                     1602
A1901400290261337520001DRA NATALIA B CARDONA OR                                10505
A1901400290261337520001DR DANILO C CARDONA                                     20500
A1901400290261575043001VIOLETA VERGARA BANCORO                                  0501
B0101401670271038486001POWER FASHION INC.                                       1605
A0101401670271186267001ELOISA L. CAMPOS                                         0503
B0101406460000000712758HOMEMATCH CORPORATION                                    1603
A0101406460000002330887SON, HARRY GO                                            0501
A0101400570281482880001JEREMIAS R. IBARRETA II                                  0502
A0101411240000001563491SINGH, BALBIR KAUR                                       0503
B6601400120314083829001**********                                               1602
B0101402350000000655390TIA, CHARISSA REYES AND                                 11601
B0101402350000000655390ANG, MONICA CHOY                                        21600
A0101402350321478374048GLENDA D. ESTRELLA                                       0502
A0101402510341199160001EDWARD JOHN PECACHE CARRILLO                            10501
A0101402510341199160001AND MARY FRANCES                                        20500
A0101402510341733749002ALCALA, GINA CALA-OR                                     0505
B0201400920375526997001**********                                               1602
B0201400890376035150001EAL DEVELOPMENT GROUP, INC.                              1604
B0101408370382011532001PROFESSIONAL SERVICES, INC.                              1602
A0101402770391027121001ABBI PRINTHAUZ                                           0501
A0101402770391384756002ROGER  AKERS OR TAMRA AKERS                             10502
A0101402770391384756002OR LORELLIE TAMP                                        20500
A0101405490000001092739MAURO A. PASCUA JR.                                      0501
A0101405490000002880613CONTI, RENIE MAGADIA                                     0502
A0101408400000001213574MARGO POTS AND FLOWERS                                   0501
B0101409180397041823001THE INFINITY CONDOMINIUM CORPORATION                     1603
A2401400180000000073561JANROBS MARKETING                                        0503
A2401400180411561848001CANAS, ANICETA REJAS                                     0501
A2401400180000001935782ONAS, ROSITA PLANOS                                      0501
A0901400220432095446001CARLA CHUA DONAYRE                                       0501
B0901400220432307053088**********                                               1602
B0901400220000000888166**********                                               1602
A0101403030441239186001**********                                               0505
B0101403320471022141001KINGWANLY ELECTRICAL & EQUIPMENT                        11602
B0101403320471022141001SERVICES                                                21600
A0101403320471028478001FILJOY ELECTRICAL AND                                   10502
A0101403320471028478001ELECTRONICS                                             20500
A0101403320000000452402TEBELIN JR. DBU TRIP TREK                               10501
A0101403320000000452402TRAVEL AND TOUR                                         20500
A0101403320471478374051MYRA ATANGAN                                             0501
B0101410140000000038895NANOZ, DE LA CRUZ AND ASSOCIATES, C                      1601
A0101410140000001940052SANCHEZ, MYLENE CRUZ                                     0501
B1901400160491290764001CASTOR CEPILLO-GONZALES ALDAY LAW OFFICE                 1601
A1401400110000001806913DE CHAVEZ, LOLITA SANTE                                  0501
A0701400260000003259272GONZAGA, EVA DEL ROSARIO                                 0501
A0101407430503370162003MA. JESUSA SONZA                                         0501
A0101407430503423636002********                                                 0501
A0101405940000000061721ALAGAR, DENNIS LIMLINGAN                                 0501
A0101408530516571877162MA. CORAZON L. MAKASIAR                                  0501
A0101408530000001885750JULIE ANNE MARREY J. CUSI                                0501
A0101411400517394278008*******                                                  0501
B0101403450521012032001**********                                               1602
A0101403450521310248001**********                                               0501
A0101403450521478374007********                                                 0501
B0101404000551024348001APPLESEED MONTESSORI INCORPORATED                        1601
A0101407720000004664911ORDONIO, MARIA RUFINA VALDEZ                             0501
A0101407720000004664940MAGNO, JENNIFER YUVIENCO                                 0501
B0101407720602027414001GAN ADVANCED OSSEOINTEGRATION CENTER                     1605
B0101407720000000885645A.F. NAVARRETE CONSULTANTS & ASSOCIATES                  1601
A0101407720602381785001GUZMAN JR., PATRICIO BALA                                0502
A0101407720602397661001LAZARO-DIZON, GERGEN MARIE SERR                          0502
A0101404260611335308002ALIMBOYONG, JOSEPHINE MAHINAY                            0503
A0101404260611490335001TAN, MARIA JENALYN TULIAO                                0501
A0101404260000000532249**************                                           0506
A0101409920000001951993PANGILINAN, CAROLINE B. OR                              10502
A0101409920000001951993PANGILINAN, MARIA KARIZ B                               20500
A0101410300000000191815CARBALLO, LUIS ANTONIO S. OR                            10503
A0101410300000000191815SALAZAR, EMMANUEL B.                                    20500
B1301400210682040563001ACTISERVE CORP.                                          1605
A1301400210682246655001ROWENA S. JOSE                                           0501
B0101408240000000832962CARMEL LAND SALES & DEVELOPMENT CORP.                    1612
A2801400100000000004720REYES, MYRA DBU MRC DENTAL CLIN                          0501
A2801400230000002312334NAVARRO JR., ERNESTO SITJAR                              0502
A4101400420814249416002ROCILLO, MERCELITA PENDON                                0501
A4101400420814358988001GENIDO, ELMER SAUNAR                                     0502
A4101400420814418225001LOPEZ, ROSALINA OR                                      10501
A4101400420814418225001LOPEZ JR., RODRI                                        20500
A4101400420814506413001IBIAS, JOSEPHINE OCAMPO OR                              10501
A4101400420814506413001IBIAS, SEGISMUND                                        20500
A0101412340000003340490ARLEEN M. AGRIPA                                         0501
A0101406750000003393111BARANDA, ANA-ELISA MAICO                                 0501
B0101405070861018666001SAN ANDRES MARKET VENDORS & COMT'Y MULTI                11610
B0101405070861018666001PURPOSE COOP.                                           21600
A0101405070861478374066ELMER LADRES APAS                                        0501
B0601400230891252526001AGNES MAY P. DE JESUS                                    1601
