A0101409920000016652643DELOS SANTOS, LETICIA T. OR                             10501
A0101409920000016652643DELOS SANTOS, LLOYD T.                                  20500
A0101409920650582835001RIVERA, LAILA PASCUA                                     0501
B0101409920000018629242VILLAROSA, MARY JANE DBU ELYONG'S GRILL                 11601
B0101409920000018629242& RESTAURANT JT                                         21600
A0101409920000015499560URSAL, ALEX ROBERTO T.                                  10502
A0101409920000015499560DBU PRUDPERRY MARKETING                                 20500
A0101409920000015172591ALBERTO, KIM JEROME TORALBA                              0501
A0101409920000018666421MORA, VINCENT VISTA                                      0501
A0101409920650525001001MEMBERS OF NATASHA                                      10501
A0101409920650525001001QUINO, RUBY ANN A.                                      20500
A0101411110000005356787MACEDA, RAFAEL SANCHO G. OR                             10501
A0101411110000005356787MACEDA, ODESSA G                                        20500
A1301400760000011058409WENILDA C.OGURA OR SACHIKO                              10501
A1301400760000011058409KENDI I. MANANGGIT                                      20500
A0101410720000000882793FALCON, EJAY LASAP                                       0501
A0101410720653237008001TUMACAS, AVELINA AUSTRIA OR                             10503
A0101410720653237008001TUMACAS, JESUSIT                                        20500
B0101410720653481345002VERLIN KONSTRUKT INC.                                    1603
B0101410720653481345003VERLIN KONSTRUKT INC.                                    1603
A0101406460000016571078BALLASIO, FERNANDO LANGOYAN OR                          10501
A0101406460000016571078FLAVIANO, RICARDO TORRES                                20500
A2401400180000005287043BANTOTO, JUVENAL ABELLA                                  0505
A2401400180411666890088TIONGSON, RALIN SOLIVIO                                  0502
A0101409920000015499691SALVADOR, NICANOR DBU POWEREADY                         10503
A0101409920000015499691ENERGY ENTERPRISE                                       20500
A0101407690652520766012CLARITA BUENAVENTE - DEALERS OF                         10502
A0101407690652520766012SHOECAT INC.                                            20500
A0101413570000019087393DALIDA, LANDRICA ILAGAN                                  0501
A0101400860011399605001**********                                               0502
A0101401250000018397745OCCENA, MICHEL PANGANIBAN                                0501
A0101401250001120001147SEBALLA, CHERRY ANN TRIBACO                              0502
A0101401250021178953002TENSUAN, ERNESTO OR NECITAS OR                          10510
A0101401250021178953002EMMANUEL                                                20500
A0101400150000011714953HILARIO JR., ANTONIO VILLANUEVA                          0501
B0101400150061040665002SOUTH PACIFIC INTERNATIONAL MARBLE                       1601
A0101400150061226423001TUNGPALAN, ERLINDA                                       0501
A0101400150061684116001MAGRAMO, FREDESWINDA CERDA                               0501
A0601400100000006092548****************************                             0501
B0601400360000000978936THE MEDICAL CITY CLARK, INC.                             1620
B0101410850109063583001BRITISH ROLLMAKERS (CHINA) LTD.                          1601
A0101410560000013758962GABEST, MARLYN CABUGAWAN                                 0502
B0101400730000001242313SOLID EVTAC CORP.                                        1603
A0101400730111393421003MARILYN GARCIA                                           0501
A0101406040000012695080LAO, FRANCIS YU                                          0501
A0101406040112092810001********                                                 0505
A0101406040112561879002JOSEPHINE V. SORIA                                       0501
A0101412630000017372835SARMIENTO, JERICA MARAYA                                 0501
A0101413310000016902591PELAIA, PATRIA MARIE JOYCE                              10502
A0101413310000016902591GLORIA                                                  20500
A0101413310000019075039REBUSQUILLO, MARILU MORAL                                0501
A0101413310000019075222CADIZ, DIONALD VILA                                      0501
B0101401830141037520001DLPRO PHOTOGRAPHY                                        1601
A0101400440000000821538MARITES T. JIMENEZ                                       0501
A0101400440161520766113MARIFE MANZANO                                           0501
A0101400440161549463001SONIA D. CARAG                                           0501
A0101401090000018177490ISIDRO, REYNALDO H.                                      0501
A0101401090171365718002MA. ANNALEAH S. CRUZ                                     0501
A0101401090171704401002TRINIDAD, CELESTINE MARIE G                              0501
B0301400530000003573528RD PAWNSHOP, INC.                                        1604
B0301400530193551180168LIM, MARK EDUARD OR LIM, LIZA OR LIM,                   11605
B0301400530193551180168RALPH LOUIE                                             21600
B0301400530193768647001DEBILDOS, MILANIE L.                                     1601
A0301400660000016080476MERCADER, MARK JOSEPH AGUSTIN                            0501
A0301400790000002301393BARCELONA, JANET TIZON                                   0502
A0301400790000016320802LEE JR., WILLIAM AUSTRIA                                 0501
A0301400950000008868933SEVILLANO, LILIA CEPE                                    0502
B0301400950000009938276MANAGEMENT INNOVATORS AND SYSTEM DE                      1601
A0101401380000006542361CUNETA, MA. ANTONIA CARBALLO                             0505
B0101413020000006316981TOPSPOT HEAVY EQUIPMENT, INC.                            1603
B0101413020000006316992CIVIC MERCHANDISING INCORPORATED                         1603
A0101410720000014210747ISIP, NATHANIEL ENRIQUEZ                                 0502
A0101410720000016140020DY, DEXTER FRANCIS YANG                                  0502
A0101412500000019094694DE LOS REYES, CATHERINE LEE                              0501
A0101412500000017555103PADUHILAO, PHILIP GARY TEOPE                             0502
A0101413600000008636539CAROLINE F. CO                                           0502
A3101400740000006735824GARCIA, EMILY B. DBU MMA EVENTS                         10504
A3101400740000006735824SPECIALISTS AND                                         20500
A3101400740224087806001NECESARIO, EDUARDO PASTOR                                0510
A3101400870000017261193PIMENTEL, SUSANNA CHENG                                  0502
A1001400480000000133279DACUDAO, LILUISA OR DACUDAO,LEO                          0502
A1001400480000005356021TABAN, EARLY JEN ORTALIZ OR                             10505
A1001400480000005356021TABAN, NOEL OLIVEROS                                    20500
A1301400470000015271435KAYZELYN F. BASA OR                                     10501
A1301400470000015271435EVANGELINE S. SIBUGAN                                   20500
B1301400470000003270135EPS HAULING COMPANY INC.                                 1604
A1301400760000012980811WINY BARTOLOME ALAMANI                                   0501
A1901400290000011794611ALMOROS, JONALYN EGAR                                    0502
A0101406460000016571147LINTAO, CATHERINE ERMENILDA V.                           0501
B0101410980000006014551FATIMA DOMINIQUE C. VENTURA AND GEREMY                  11601
B0101410980000006014551VANDER F. KHO                                           21600
A0101411110000010082161MEJIAS, MARIA KATRINA DBU KATCH                         10503
A0101411110000010082161HAIR & MAKE UP ARTISTRY                                 20500
B0101411820000010701241ITECH COMPUTER SYSTEM CO.                                1601
B0101412470000000949544BEYOND METRO POINTE GREENHILLS INC.                      1606
A0801400160311317813001SUSAN M. APOSTOLERO                                      0501
A1101400120000006081103BACSAL, EMMYLEEN BATAWAN OR BAC                         10506
A1101400120000006081103SAL, DAVID DACUN                                        20500
A1101400120000008001009OCASLA, ALVIN JABONETE                                   0503
A1101400120000003022544PULMA, MARY ANN G. DBU GASPANG-                         10501
A1101400120000003022544AGUILLON BIRTHIN                                        20500
A1101400120000003022384ELCARTE, ERNA GONZAGA                                    0501
A6601400120314593270001DIAZ, REO DBU RUDMAR TRADING JT                          0505
A6601400120314770822001SY JR., LARRY OR SY, WILLIAM                             0501
A6601400120314770822001SY JR., LARRY OR SY, WILLIAM                             0501
A3401400280000015108562BAARDE, LOURDES BULAQUINA                                0505
A0101402350000005645109**********                                               0501
A0101402350000010384493GONZALES, IAN ANNALO COMON                               0501
A0101402350000015000334SARIP, SITTIE AISAH GONZALES                             0501
A0101402350321481833001CRUZ, EDWARD KEITH O. OR                                10501
A0101402350321481833001CRUZ, ROWENA JANEL L.                                   20500
A0101405650000015273915ZAIDE, FRANCHESKA RAPHAELA CRUZ                          0501
A0101402510341328134001MARCELINO, JOCELYN TIONGSON                              0501
A0101402510000011695197CACAYURAN, SCARLET GUESE                                 0501
A0201400760374478374015DACAYANA, ROSALIE SIBLA                                  0501
A0201400760000013874752ORTANEZ, PATRICK JOSEPH                                 10502
A0201400760000013874752PLACENCIA                                               20500
A0201400920000012764773BANLAYGAS, FRANCIS JOE V.                               10502
A0201400920000012764773OR BANLAYGAS, NIKKI JOY R                               20500
B0201400890000000027916STRONGHOLD GLASS AND ALUMINUM CORP.                      1601
B0201401020000007458195TITCO, MA. CHERIELENE S. DBU WE                         11601
B0201401020000007458195TRADERS                                                 21600
A0101402930000000859758CELFO, R DBU R.F. CELFO                                 10501
A0101402930000000859758FINANCIAL CONSULTANCY                                   20500
A0101402930000000053329FERRER, LUNINGNING DIAWATAN OR                          10501
A0101402930000000053329FERRER, RODOLFO SAYO                                    20500
A0101408790000019108951CRUZ, JONATHAN JUNSAY                                    0501
A0101408790000019109185LAGRIMAS, MARIA DIMPNA ALIX                              0501
A0101408790000019109323ZAMORA, EDWARD CERVANTES                                 0501
A0101408790000019109414SANTOS, BILLY MAR FAUSTINO                               0501
A0101408790000019109492AGOTO, MARK ANTHONY ISAAC                                0501
A0101408790000019109561ATANACIO, LEO ROQUE DIMACULANGA                          0501
A0101408790000014749978G26 TALENTS MANAGEMENT                                   0502
B0101408790000010384506BLUEFIN RENEWABLE ALTERNATIVE ENERGY INC                 1603
A0101411660000000751104RYAN ALVIN R ACOSTA                                      0501
B0101415350390821100608**********                                               2010
A0101402770000014190462MIGUEL, MARY ANN BARTOLOME                               0501
A0101402770000018914191SINDAY, MARY JOY CASIMO                                  0501
B0101402770391046279001LEGACY RENOVE INC.                                       1605
A0101405490000005692555VICTORINO, GINO CARLO ARRIETA                            0502
A0101408400000004959566**********                                               0503
A0101408400000004959566DIMAPANGCAT, SORAYA ALAWIYA                              0503
A0101408400000014500511RAC, LYLA GONZALES                                       0501
A0101408400000012652221NICOLAS, KRISTINE ANNE VALINO                            0502
A0101408400394478374088MARLENE NECESARIO                                        0501
A0101409210000005251923TRIAS, AGNES DE JESUS                                    0502
B0101412210000005051336DINAPIGUE MINING CORPORATION                             1602
A0301400820000010546562BULILAN, EMILIA M.                                       0501
A1201400150000011415853MENDOZA, EMMA BONG-OG                                    0502
A1201400150000000034460JOSE, GEMMALYN TANGALIN                                  0501
A5101400100000010371438DURAN, JIZZA BEN PEARL C. OR                            10502
A5101400100000010371438VISITACION, JAN                                         20500
A5101400100000010834450PINAT, MARESEL NOBONG DBU DON'S                          0501
A0101403030000000320492**********                                               0503
A0101403030441239031002**********                                               0501
A0101403030441412000001**********                                               0501
A0101412890000012154642MARIA CATHERINE C. ISABEDRA OR                          10502
A0101412890000012154642CARLO P. ISABEDRA                                       20500
A0101412890000012474378CONFESOR, JULIAN C DBU JC                               10502
A0101412890000012474378CONFESOR ARCHITECTURAL                                  20500
A0101403320000014818665NICEGANDA TRADING                                        0502
A0101406330472433082002PAULINA LONTOC OR PATRICIA                              10502
A0101406330472433082002LONTOC                                                  20500
A0101410140000000499065MORDIDO, LYN ROBELLES                                    0502
A0101410140475046983001OCAMPO, DBU MAAY POOL SUP &                             10508
A0101410140475046983001EQPT CTR                                                20500
A0101410140475046984001OCAMPO, DBU INDOOR & OUTDOOR                            10508
A0101410140475046984001LIVING CONST.                                           20500
B0101412760000013008252MACING, VAN JOHN S DBU TYCOON 369 ENTERP                11601
B0101412760000013008252RISE                                                    21600
B0501400170481023482001ARZADON LEISURE CORPORATION                              1605
A1901400320000019112397PADRILAN, SHERYL ALMAZAN                                 0501
A3801400170000012458969MARQUEZ, ROLANDO CELLONA                                 0503
A3801400170000008068877MARQUEZ, GLENDA UMALI                                    0503
B1401400110492028896002CARLOS DRUGS-LUCENA, INC                                 1601
A1401400110492493108001DEQUITO, BERNABE VILLANUEVA                              0502
A0101407430503185437002GILBERT TY                                               0503
A0101407430503736499001CECILIA R. NALAUNAN                                      0502
A0101403580000005329302MANOOS, SIEGFRIED MARQUEZ                                0501
A0101405940000000061663PELAYO, HUDSON PETER LAPUZ                               0501
A0101408530516471293001CALICDAN, ENRIQUE S. OR                                 10501
A0101408530516471293001CALICDAN, FLORIT                                        20500
A0101408530000017209735EDWARD R. VILLAMOR OR                                   10501
A0101408530000017209735EDMUND R. VILLAMOR                                      20500
A0101411400000012209868***                                                      0501
A0101412050000018205813KOH, JIE FENG                                            0502
A0101403450000013091691ROSARIO, ERIN LOU MONILLAS,                              0501
B0101403450521011936001**********                                               1603
B0101403450521029302001***********                                              1602
A0101403450521356203003**********                                               0502
A2201400250000015111490RUEL ANTONIO RIVERA TINIO                                0501
A2201400250000013859813DIAZ JR., NICOLAS ZAMORA DBU                            10501
A2201400250000013859813NZD CONSTRUCTION SUPPLY                                 20500
A2201400250561478374010ZENAIDA L. REYES                                        10501
A2201400250561478374010MEMBERS OF NATASHA                                      20500
A2201400250561628929001CAPONPON, JOEL BAGAIN                                    0501
B0601400940000017428838BEAUTEDERM CORPORATION                                   1610
A0101410690000000710990BUENAFLOR, ANNABELLE CALAGUAS                            0501
A0101410690000005383440BAUTISTA, ARIEL FLORES                                   0501
B0101410690000000305291MENOLD MARKETING CORP.                                   1605
A0101404130000018556302REYES, PERCY CASIROMAN                                   0501
B0101412180000001293090ADVANI, GHANSHYAM PARASRAM DBU SICHEL &                 11603
B0101412180000001293090SICHEL ENTERPRIS                                        21600
A0101404260000016934595PANGAN, RAYMOND HASKIN MAYOR                             0501
B0101404260611022505002SEAA CORPORATION                                         1603
A0101404260611157118001AQUINO, REGINA SUERO                                    10501
A0101404260611157118001OR ARMANDO AQUIN                                        20500
B0101409920650047984001INNOTREND BUILDERS                                       1603
B01014134400000090067248MANOR 8BINGO8 CORP.                                     1601
A0101413570000018287073NICODEMUS, ARCIE DE CASTRO                               0501
A0101413570000015962511CARBILLEDO, KIM JOSEPH UY                                0501
B0101413990000019112240AYNS VICEROY EAST REALTY INC.                            1601
B0101414120000000399093*****                                                    1604
A0101406590000014678272VILLAS, LORENZA CARMELOTES                               0503
A0101406590662363449001LA VINA, ANGELINA SAN JUAN                               0501
A1301400340000018641240MORAGA, JENNY STA  ROSA                                  0501
A1301400500000016985112ARMANDO T. YAMBAO                                        0502
A1701400230693710362001CUA, RONALD CU                                           0502
A0101408240000008854366BROWN-ARANETA, MICHELLE LANA                             0503
A0101408240000003501282GERVACIO HOME MANAGEMENT AIDE                           10502
A0101408240000003501282SERVICES                                                20500
B0101408240000010815120BEYOND YOGA ALABANG INC.                                 1605
A0101408240711199637001GIL JOSE E. PULUMBARIT JR.                              10502
A0101408240711199637001OR KATHLYN MAE PULUMBARIT                               20500
A0101408240000016574693SANTIAGO, ROBERTO STO DOMINGO                           10501
A0101408240000016574693OR SANTIAGO, DIANA                                      20500
A0101408240711429939004CARMELA CARAGUE OR BERNARD                              10501
A0101408240711429939004CARAGUE                                                 20500
A2801400100000012048941CAMBA, NAP JULIUS CARLO CASTILL                          0501
A2801400230000011730464MENDOZA, VERNIE EGALLA  DBU VEJ                         10501
A2801400230000011730464TRADING                                                 20500
A4101400390000007459198BERNARDO P. GUINOO OR                                   10503
A4101400390000007459198ANA B. GUINOO                                           20500
A4101400420000000710392BRAZIL, EVELYN AGBAN                                     0501
A4101400420814520766017ALAVA, JOSEPHINE D.                                      0501
A4101400420000004848051ROSALES, NOEMI A                                         0501
A4101400550000001332370RODRIGUEZ, NELIA GENER OR                               10501
A4101400550000001332370RODRIGUEZ, NELIA                                        20500
B4101400550000010508799PEDRON, S DBU REDJADE TRADING                            1603
A0101404840000010224516NAVARRO, SHARON ROSE D.                                  0502
A0101404840000000683574NELIA L. BABILA                                          0501
A0101406750852478374118RUBY FLAVIER                                             0501
A0101405070000014045302MARIA FAINA CHAN REYES                                   0502
A0101405070861197752001GABRIEL GIMENEZ RIPOLL JR. OR                           10505
A0101405070861197752001MARGARITA UBAGO RIPOLL                                  20500
