B0101402930381821100608**********                                               2002
A0101400440161478374010VIVIAN T. REGALARIO                                      0502
A1001400350233684752001CHIONG, FE YAP                                           0502
A0101402510341526386002LACSON, JOSE MARI VENTOSA AND                           10502
A0101402510341526386002RUBIO, MICHAEL J                                        20500
B0101402930381821200608**********                                               2002
B0101400860000000030279**********                                               1604
A0101400860000001005332***********                                              0504
A0101400860011496538001**********                                               0505
A0101400150000003141271SANTOS, ROSALINA GUY                                     0501
B0101400150061010736001SPCASTRO, INC.                                           1605
B0101400150061011184001CP-DC DEVELOPMENT CORP.                                  1602
B0101400150061057678001TWO PACSTAR REALTY CORPORATION                           1605
B0101400150061058232001ONE PACSTAR REALTY CORPORATION                           1610
B0101400150061226355001TAGANITO MINING CORP.                                    1610
A0101400150061396165001SANTIAGO, MA. SOCORRO SANCHEZ                            0502
B0101400150061494758001MACOLYTES INC.                                           1615
A0101405810000001021161***************                                          0501
B0101405810000000016811SK PLASTIC RELIANCE COMPANY                              1603
B0601400100081296256001CHRISTOPHER OR LOYA MALLARI FAO CHRISSAN                11603
B0601400100081296256001AUTO SUPPLY                                             21600
B0101413730000000469665**********                                               1601
A0101414090000003314883RAMOS, LYDIA ANTONIO                                     0501
A0101400730000001016500CRISTINA A. DIAZ                                         0504
B0101400730000001242682TOULOUSE FOOD SERVICES INC.                              1605
A0101400730111386485042ELENA B. PEREZ                                           0502
B0101401830141044349001D'COLD MAN AIR CON SERVICES                              1601
A0101401830141205594001CARLOS P. GLIFONEA JR. OR                               10502
A0101401830141205594001EMMA P. GLIFONEA                                        20500
A7201400170000003773120ASUGAS, GRACE MARIE NARCISO                              0505
B0101407270162016355001ONWARD COMMUNICATIONS & SERVICES                         1604
B0101407270162019079001CITY CHIX INC.                                           1603
B0101407270162050140003NORTHPOINT, INC.                                         1605
B0101407270162050373002AMARELA, INC.                                            1605
B0101407270162050380003DROPBOX, INC.                                            1605
B0101407270162054806002NUTRIDOUGH, INC.                                         1605
B0101407270000004558367SANTIAGO, DAREEN DEL MONTE DBU CNDS                      1602
A0101407270162542118001MARISSA DV. BAUTISTA OR                                 10502
A0101407270162542118001SANDY M. BAUTIST                                        20500
A0101401090000001618606AMADO VICTOR A. BELTRAN                                  0505
A0101401090171195867002MIGUEL L. NOCHE JR.                                      0503
A0101401090171376733001EMMANUEL R. DOMINGO                                      0501
A0301400530000002318561VILLANUEVA, FEDERICO MAGPAYO OR                         10501
A0301400530000002318561VILLANUEVA, MARI                                        20500
B0301400660000000022868KEIZENNG TRUCKING CORP.                                  1602
B0301400660194046073088WEST EMPIRE SEAFOODS AND CHINESE RESTAUR                11610
B0301400660194046073088ANT                                                     21600
A0101401380000005320887BATUIGAS, AURORA REBOQUIO                                0502
A0101413600000003134487******                                                   0502
B3101400740224045084001C & C AUTO SHOP                                          1601
A3001400130230687040108JAQUE, ROMEO /OR                                        10510
A3001400130230687040108JAQUE, CONCORDIA                                        20500
A3001400130230767566040SANTIAGO, JANET JALA                                     0503
A1001400190231272349001CHAN, MICHAEL L.                                         0502
A1001400190231520766002ABE-ABE, MARYLYN B.                                      0501
A1001400350233478374026ANNABEL ESTOMO                                           0501
A1001400480000000133280SABAL, MICHAEL CASINO                                    0501
A1001400480000005355955LIM, LUIS HUA TEE OR LIM, EDWAR                         10505
A1001400480000005355955D HUA YIH OR LIM, JOSELYN                               20500
A1301400470252509134001RHONA MELIQUITONES                                       0502
B0101406460000000182409MAN ASIA MANPOWER AND GENERAL SERVI                      1601
A0101406460272232218001MARIANO, NORMITA T.                                      0501
B0101411820000000024142HARDCOM COMPUTER SYSTEM CO.                              1601
A0501400200000004456968******                                                   0510
A2601400270000002677547MILA R. VALDEZ                                           0501
B0801400160000004893723BENITEZ, JANE YOUNG                                      1601
A0801400160311398506001PALMARES, REGIL CORDERO                                  0505
A1101400120000001547348LIGAN, MITYA COSTIBOLO                                   0501
B1101400120000006186901GOLDEN PEAK MARKETING CORPORATION                        1601
A1101400120313570675001TIU, SAMUEL PO                                           0505
A0101405650000003491401RESPETO, LILIBETH GALAURA                                0501
A0101402510000003482295CRUZ, MARIA ELIZA PULUMBARIT                             0501
A0101402060351588151001CASAPAO, ELIZABETH ESLIT                                10502
A0101402060351588151001CASAPAO, MANUEL                                         20500
B0201400760374046036004SAM SOWAH SHIPPING CORPORATION                           1602
B0201400760374047828001MTO TECHNOTRENDS INC.                                    1602
A0201400760000002047161RKONSTRUCT CONSTRUCTION                                 10502
A0201400760000002047161SERVICES                                                20500
B0101402930000005646084WOMAD UPTOWN FOOD INC                                    1620
A0101408370000000336161PADER, MICHAEL FERANIL                                   0502
A0101408370382452813001GAYAMAT, MA. VICTORIA DIMANLIG                           0503
A0101408370382455298001BERNICE ELAINE T. ONG M.D. OR                           10505
A0101408370382455298001MELVIN L. ONG                                           20500
A0101415350000007043752PARAJAS, ARSENIO P. DBU AAGP                            10503
A0101415350000007043752OR PARAJAS, GRACE                                       20500
A0101405490392170286001MARY JANE P. SABILI                                      0501
B0101405490392518855001ISABELLE ROYAL HOTEL & SUITES INC.                       1603
B0101409180397063543001IBARDELOZA, M DBU KATCAN CONSTRUCTION                    1601
A0101409210000000043683ACOYMO, JOSE MARIA GAMIR                                 0501
A0101409210000003297574RAYMON CAYABYAB                                          0502
A0301400820000005991859MARQUEZ, ALMA L.                                         0502
A2401400180000001935873RICABLANCA, MARY ANN GABRIEL                             0502
A2401400180000007031723LA MIRADA INN                                            0502
B2401400180411272643002KMG GAS & DRIVE                                          1601
A2401400180000000428051EGOS JR., JEMMERITO CASANA                               0502
A2401400180411555962001SILVA, VIOLETA P. OR                                    10502
A2401400180411555962001SILVA, MARCELINO                                        20500
A2401400180411572205001EBRAHIM, MA. AMOR ISHAD                                  0501
A1201400150000000473541DACANAY, E DBU ERLINDA I.                               10502
A1201400150000000473541DACANAY RICE COM                                        20500
A0101403030441337771001**********                                               0501
A0101403030441433845001**********                                               0501
A0101412890000001056575UDOG, MA GINA SAN PEDRO                                  0504
B0101403320471063545001JAC PLASTIC PRINTING ENTERPRISE INC.                     1601
A0101410140000007294735AMOS, RAMIL ENRIQUEZ DBU MATRIX                          0501
A0101412760000007822042BARRIGA, ROSEMARIE SANDOVAL DBU                         10502
A0101412760000007822042EVCOM FABRICATION                                       20500
B1901400160491249313001BEEPER LENDING CORPORATION                               1601
A0101405940000005068311JENNIE T. TONG                                           0501
A0101411400000001280375SALES, MARIA CHRISTINA MANEGO                            0501
B0101411400000006561071GALACTICA TRAVELS, INCORPORATED                          1605
A0101403450521239921088*********                                                0510
A0101403610531035023001KAXWAX, INC.                                             0506
A0101404000000001186841UY, WILFREDO CO/UY, DANILO/                             10502
A0101404000000001186841PAREDES, MAILA                                          20500
A0101404000551742464001VILLANUEVA, MIGUELA FRANCISCO                            0501
A2201400250561254382002LAGRIMAS CORPUZ AGUSTIN                                  0503
A2201400250561258530008MARY JANE A. LEE                                         0501
A0101404130601451711001CATINGAN, HAZEL A.                                       0501
A0101407720602241314001**********                                               0502
A0101407720602334203001RAFAEL G. GRANDE                                         0505
B0101404260611030938001BUON FORTUNO REALTY DEVELOPMENT                         11601
B0101404260611030938001COMPANY, INC.                                           21600
A0101404260611045966001FRONDOZO TRADING                                         0501
A0101407690000000154794PETER C. SANGUENZA - DEALERS OF                         10501
A0101407690000000154794SHOECAT INC.                                            20500
A0101411530000006094431RAVELO, NYMLA C                                          0501
A0101413990000000969337MAPA, MARLON TIDALGO                                     0501
A0101410300000005237667BORJA, OSCAR ANGELO TOMIMBANG                            0501
A0101410300000000191815CARBALLO, LUIS ANTONIO S. OR                            10505
A0101410300000000191815SALAZAR, EMMANUE                                        20500
A1301400210682478374027MARY ANN M. DE LEON                                      0502
A1301400500000002063992JOSHUA & JAMES CONSTRUCTION                              0502
A0101408240000006600266SISON, RONNIE CRUZ                                       0502
A0101408240711461431001PIDO, KARLA PEREZ                                        0505
A0101408240711743061001LAWS, TIMOTHY REYNOSO OR                                10504
A0101408240711743061001KATRINA OR JOSEPH                                       20500
B2801400100712036235001MS-JC INT'L. LOGISTICS INC.                              1603
B2801400230000001580296DEL ROS AMUSEMENT ENTERPRISES, INC.                      1601
B4101400420000007305331DE CASTRO, JEDDPER NERONA DBU                           11602
B4101400420000007305331SHINPOTEKINI ENT                                        21600
A4101400420814342049001MENDOZA, DIVINA LORY ANN E. OR                          10505
A4101400420814342049001MENDOZA, GILBERT                                        20500
A4101400550000002091010UNIFIL MANPOWER RESOURCES                                0503
A0101404840000001312690CABINTE MATERNITY AND CHILDRENS                         10503
A0101404840000001312690HOSPITAL                                                20500
A0101406750000000017490SESE, ALDEN ANTHONY DIZON                                0502
A0101406750852182475001ANALIZA B. HIZOLE                                        0501
A0101406750852478374004IMELDA TAGUNA                                            0501
A0101405070861027133001WORLDLINKS CABLE WORKS                                   0502
A0101405070000003439729LIM, LYNDON CO DBU JUBBY FOOD                           10501
A0101405070000003439729STALLS                                                  20500
A0101405070861393536001SANUCO, VICENTE DENNA OR                                10503
A0101405070861393536001SANTIAGO, GIGIBE                                        20500
