F4101400260000001673423POTESTADES, MARY GRACE LAJO                              2502CKO
F0101406750852479415001JOSE P. BANTILING OR ELENITA P.                         12502CKO
F0101406750852479415001BANTILING                                               22500CKO
F0101405940512048673001STUDIO 58 LAB 10, INC.                                   2605CKR
F0101408110515050646003**********                                               2605CK1
F4101400130811039741001RVAB GASOLINE STATION                                    2604CKO
F0101404260611034742001PRIME MOVER BUSINESS SOLUTIONS,                         12610CKR
F0101404260611034742001INC.                                                    22600CKR
