A0101404260000000003772CRESPO, FLORENCE SANGA                                   0502
A0101403580000000016100CHRISTOPHER JOSEPH R. MAULEON                            0501
A2601400270000000084360CRISTINA L. CENDANA                                      0501
A0101400150000000253103SAYON, ALLAN CASTRO                                      0501
A0101406750000000358230INCLAN, SANDRALIE SERRA                                  0502
A0101401250000000441052ONGSUECO, SYLVIA K.                                      0501
A0101401250000000441085LINGANAY, GYSSELLE LAURICE U.                            0502
A0101411790000000469461PANGILINAN, R DBU RLRM ENTERPRI                          0502
A0101413570000000635563MARY JANE FLORES BALUYUT                                 0501
A0101411080000000805834LAMBOLOTO, EVA ALCARAZ                                   0503
A0101402930000000859907SALAMAT, ADRIAN LEAL                                     0501
A0101404420000000866491****                                                     0501
A0301400820000001185633ACE C. DELA CRUZ                                         0501
A0101406460000001285627SARAH INGRID AU SIA'S PERSONAL                           0502
A0101401090000001618793BUZON, ROSALIA MUMPAR                                    0502
A0101401090000001618964*********                                                0501
A0101403450000001637874********                                                 0503
A0101404260000001725297KOREAN LANGUAGE CULTURE (KLC) T                          0501
A0101400730000001822715ARNOLD M. CARBONELL                                      0502
A0101407560000001835127MARIANO, REMIGIO MEDIANA                                 0501
A0101413860000001886855CRUZ, MALAYANG DIWA MEDIJA                               0502
A1101400120000002254877POTICANO, BERNARDO IGANA                                 0501
A0101411950000002266060********                                                 0501
A0101402930000002269149SAMBOA, ALLAN FRED ALIANZA                               0501
A0101413990000002274091PEREZ, CARLOS MANGUNDAYAO                                0501
A0101410720000002283985DIAZ, CELINA CRUZ                                        0501
A1901400160000002291498GLENDA CRISELDA L ATIENZA                                0501
A0101409890000002326752EVANGELINE GONZALES ALFONSO                              0501
A0101411080000002343977*****                                                    0502
A0101411080000002343999SORIANO, ROSARIO PLACIDO                                 0502
A3101400160000002355808DIANA N CARIAGA                                          0502
A0101400150000002394932FORTEA, ROMEO B.                                         0501
A1001400480000002659783REFUGIO, SOFRONIO RETUTAS                                0501
A0101400150000003595642CALUPITAN, CECELLE MELENCIO                              0501
A0201400760000003598790BARTOLATA, CHERREY MAE PANCHO                            0501
A0101400860011462049001**********                                               0503
A0101400860011478374008LEONORA MACARANAS                                        0501
A0101400860011604329001**********                                               0501
A0101401250021476357001CATHERINE GO UY                                          0501
A0101400150061226860001HSIEH, HO HSIANG                                         0501
A0101400150061227111001MOBIUS, MARK                                             0501
A0101400730111386485158ANITA B. ALDAY                                           0501
A0101401830141357303005ONGCHUAN, ALEXANDER JULIAN CO                            0501
A0101400440161525001070MARIBEL S. SOLEDAD                                       0501
A0101400440161565865001MARIA KATHRINA G. SALVADOR                               0501
A0101407270162333154023ROBERTO S. MENDOZA                                       0504
A0101401090171195709001ANGELITA S. SARILE                                       0501
A0301400530193478374013RUELO, BELINDA                                           0502
A0301400530193605922002MEDINA A. CAMPOREDONDO                                   0501
A0101401380201618189001CINCO, ROSA OR LAM, LAURENCE                             0504
A0101401380201686418001FELIX, MARCELA SANTOS                                    0503
A3101400160221478374033ELMER M. VALERIO                                         0503
A3101400160221784329001LEANDRO R BATALLONES                                     0502
A1001400190231034434001HNH BUILDERS AND ENTERPRISES                             0502
A1001400190231036837001RTD MARKETING                                            0505
A1001400190231520766117TAROY, MARIONNE ANGELOU SALEM                            0502
A0101406620273301500002CAESAR A. GUERZON                                        0502
A0101406620273306796004FE FORTUNATA R. RIO                                      0501
A0101406620273536982001FERNANDEZ, JUDITH RIANN T.                               0502
A0101406620273553457001MARVEL, RAMON JARDIN                                     0501
A0101400570281507815001LAXAMANA, LINA CORTEZ                                    0503
A2601400270302698462001ALBERT OR NELIA LIM                                      0501
A2001400290315798611111YGAY, GISELA ATILLO                                      0501
A0101402480331520766055*******************************                          0501
A0101402060351217440025ARLENE F. MANGURAY                                       0502
A0101402060351414987003NOBLE, FELICISIMA CASANOVA                               0502
A0101402060351626139001USMAN, ALIMAR GUROALIM                                   0502
A0101402640361332373003**********                                               0502
A0201400760374478374004MELINDA P. ABEAR                                         0501
A0201400890376192121001TORRES, GIL FERDINAND ABELLO                             0502
A0101408370382393039001DR. EUGENIO JOSE F. RAMOS                                0503
A0101408950396554908001JAMES CARLOS AGRAVANTE YAP                               0502
A0101408950396563723001CELLONA, CLARISSA VILLARAMA                              0501
A0101403030441239391001**********                                               0503
A1401400110492433218001MILLA, MAYNARD BUSTAMANTE                                0501
A0101403450521240998001**********                                               0505
A0101404000551403303001CEDENO, PAUL ROLAND RUFO                                 0501
A0101404130601014815141ESTELITA A. SARMIENTO                                    0501
A0101407720602161904001B.G. BENITEZ, JR.                                        0502
A0101407720602161904002BENJAMIN DE GUZMAN BENITEZ JR.                           0502
A0101407720602326333001SATURNINO PEREZ JAVIER                                   0502
A0101404260611037351001SMD JANITORIAL SERVICES                                  0501
A0101404260611150932002DELIA D. UY                                              0501
A0101404260611478374078SUPERAL, CORAZON                                         0502
A0101410720653332893001LIWAG, VINA VELEZ NUNEZ                                  0501
A0101410720653342496001NATIVIDAD, ANITA DONNA  ROBLES                           0501
A0101410720653461660001NOCHE, MARIA CORAZON ALARCON                             0502
A0101410300663752531001*****                                                    0501
A0101410300663776849001******                                                   0502
A0101407560686376681001***********                                              0501
A0101407560686434083001EDRICH MARKETING INC.                                    0510
A0101408240711547758001SALVADOR, DIOSDADO COSCOLLUELA                           0502
A2801400100712393694004CABRERA, ISAGANI CEZAR JT                                0502
A4101400260812035863001GREAT CAVITENO TRADING                                   0502
A0101404840851298552055MELBA C. ENGBINO                                         0502
A0101404840851478374071MARITESS C. CASARILLA                                    0501
A0101405070861476115001REYES, MA. MILAGROS ABRAJANO                             0504
A0101405070861709078001ASILUM, RICSON RENDELL VERGARA                           0502
A0101408240000000039683MIRCHANDANI, SHERYL OR LALA                             10501
A2601400270000000084320GERVACIO S. MARFIL OR                                   10501
A0201400920000002804491VELAYO, KRISTOPHER DBU CHOOSE                           10505
A0101406750000002950763RIVERA, MARIA CAROLINA D. OR                            10501
A0101401250021183876001DELA PENA, REYNALDO PENA                                10502
A0101401250021309334001NAIDA T. TALIMAN AND                                    10501
A0101401090171195630001MA.CORAZON T. UNAS OR                                   10503
A3101400450223019912001LAGUNA HEALTH SERVICES                                  10510
A3101400450223024178001PANATEK REFRIGERATION                                   10501
A3101400450223442002001GARCIA, ROSALINA OR                                     10502
A0101406620273575453002**********                                              10501
A0201400890376080642001GALANG, LORLIE PACURIBOT OR                             10501
A0101408110515365513003KARIMA HASSAN T. CASTRO OR                              10502
A0101407720602161863003ROBERTO K. MACASAET OR                                  10502
A0101404260611665137001TEOXON, ROWENA SILANG                                   10501
A0101410720653380605002DR. ANNE MARIE REALISTA PE                              10502
A4101400420814418225001LOPEZ, ROSALINA OR                                      10502
A0101404840851791747001BALMES, GERVACIO OR SARADAT,                            10501
A0101408240000000039683OR MICHAEL                                              20500
A2601400270000000084320REBECCA M. MARFIL                                       20500
A0201400920000002804491WELLNESS PHARMACY                                       20500
A0101406750000002950763RIVERA, RUFINO D.                                       20500
A0101401250021183876001OR DELA PENA, FLORENCIA                                 20500
A0101401250021309334001S.MA.APOLONIA S.DUMANDAN                                20500
A0101401090171195630001JOHN EDWARD T. UNAS                                     20500
A3101400450223019912001COOPERATIVE                                             20500
A3101400450223024178001AND AIRCONDITIONING                                     20500
A3101400450223442002001JESUSA CORAZON                                          20500
A0101406620273575453002**********                                              20500
A0201400890376080642001GALANG, GLENN AN                                        20500
A0101408110515365513003DANIEL OLIVER CASTRO                                    20500
A0101407720602161863003VIRGINIA M. RAFAEL                                      20500
A0101404260611665137001OR LEOPOLDO TEOX                                        20500
A0101410720653380605002AGUIRRE-ENECO                                           20500
A4101400420814418225001LOPEZ JR., RODRI                                        20500
A0101404840851791747001MONICA OR GALLAG                                        20500
B0301400660000000022835DURABOARD PACKAGING CORP.                                1601
B0101410720000000030042KAGAYAKI AGRO-COMM'L CORP                                1602
B0601400100000000032782BARANGAY CUTCUT MULTIPURPOSE COOPER                      1601
B0101413600000000206926GPRS-UNIFIED PRODUCTS AND SERVICES INC.                  1601
B0601400520000000398590SKILL-POWER INSTITUTE, INC.                              1602
B0101404000000000461038NEWINGTON BUILDERS, INC.                                 1603
B0101404260000000550372TPF EVENTS MANAGEMENT CORP.                              1602
B0101413020000000880513GEN ONE FIVE ONE CAR EXCHANGE                            1601
B0101407720000000885623LARRS SKIN SOLUTIONS, INC                                1603
B0101407720000000885634LARRS SKIN SOLUTIONS, INC                                1603
B0101407720000000885770LARRS SKIN SOLUTIONS, INC                                1603
B0101412470000000949577LIVAN TRADE CORPORATION                                  1602
B0101406620000000962432ORTIGAS TECHNOPOINT REALTY INC.                          1602
B0801400160000001289829PANAY MEDICAL VENTURES, INC.  PMVI                       1603
B0101406040000001392041********                                                 1602
B0101404130000002121562GOLD NUGGETS HAULING AND TRUCKING CORP.                  1602
B0601400100081791191001TOTAL HYGIENICARE INC.                                   1605
B0101400730111008593001TITAN TRAVEL & TOURS, INC.                               1603
B0101401960121456874001*****************                                        1603
B0101401830141041657001PQ HEALTHSHIELD INC.                                     1606
B0101400440161027962002CASAYRA CORPORATION                                      1601
B0101400440161043402001GRAND MONACO ESTATE DEVELOPERS, INC                      1606
B0301400530193480168001********                                                 1601
B3101400450223017929001PILI BATTERY SALES, INC.                                 1602
B3101400450223035781001CEC-CON REALTY AND DEVELOPMENT CORP                      1610
B0101400570281032093001ALPHA VICTORIA HOMEOWNERS ASSOCIATION                    1602
B0101402480331010358001**********                                               1605
B0101402480331010362001BOUNTY FRESH FOOD INC.                                   1610
B0101402480331025217001INOZA FEED MILLING CORPORATION                           1610
B0101408820333038051001GISMECON WATERTANKS & ALIKES                             1602
B0101402510341040435001LAMBSKIN FOOD CENTER                                     1602
B0201400760374036792001S.E.A. OLYMPUS MARKETING, INC.                           1602
B0201400890376040103002*********************                                    1601
B0101402930381032706001BAPTIST BIBLE COLLEGE OF ASIA PACIFIC                    1602
B0101403320471027450001*****                                                    1601
B1901400160491044074002IDEA INC.                                                1601
B0101403450521029991001**********                                               1601
B0101404130601100007002SMART COMMUNICATIONS, INC.                               1602
B0101404260611353663002CLAMAR, GLENDA SUAREZ                                    1601
B0101407560686044405001JMGA HUMAN RESOURCES                                     1602
B0101408240711027394002APT TRAVELS INCORPORATED                                 1620
B2801400100712035008001ASIA INTERNATIONAL AUCTIONEERS, INC.                     1620
B4101400420814036388001ANGELORUM SCHOOL INC.                                    1601
B0101402930381758467001PATRICIA GENEVIEVE V. TABIA AND CARLO                   11601
B0101404260611684918001ERAMIS, DIONESIO OR                                     11602
B0101402930381758467001GABRIEL O. TABIA                                        21600
B0101404260611684918001JOCELYN ERAMIS                                          21600
B0101405780212821100608**********                                               2003
B0201400210371821100608**********                                               2010
