B2601400270302821200608**********                                               2001
A0101400440000004889810MARILOU A. RAMISO                                        0501
A0101400440161525001105VIRGIE B. CRUZ                                           0501
A0101400440161525001139JEMARIE S. SALUDAR                                       0501
A4101400420000000710143GERONDA, RIZALDY DBU HRDG                               10501
A4101400420000000710143TIRE RECAPPING S                                        20500
A4101400420814335947001VILLAR, PERLA RODRIGUEZ                                  0501
A4101400420814357382003REMULLA, GILDA VASQUEZ                                   0501
A0101400860011419699001**********                                               0503
A0101400860011661386001**********                                               0504
A0101401250021179007001OLIVEROS, SYLVIA OR WARREN                              10502
A0101401250021179007001OR SHEILA                                               20500
A0101401250000000907211CORRALES, RITA M.                                        0501
A0101400150061230957005ZABALETA, JOSE MARIA TARAGABULL                          0505
A0101400150061230957006JOSE MARIA T. ZABALETA JT                                0505
A0101400600000001335626********                                                 0502
A0101400600071235573001**********                                               0501
A0601400360000000225221ALFONZO, MA. AILEEN CABALANG                             0502
B0601400520084821100608**********                                               2002
B0601400520084821200608**********                                               2001
A0101401960121096152001***************                                          0502
A0101412630000005319568MEERAN, HUSSAIN ANWAR                                    0501
A0101413310000003169293ART GEORGE B. TOBIAS OR                                 10501
A0101413310000003169293MA. CRISTINA C. TOBIAS                                  20500
A0101401830141206150003MARIA ROSALINDA M. GUAZON                                0503
A0101401830141209851001LEONOR V. MODINA                                         0501
A0101401830141473879002MALINAO, EVELYN DE GUZMAN                                0502
A5001400170000001003421LEYNO, KATHERINE MARAON                                  0505
A0101400440161187728001MIGUEL P. DE LEON                                        0505
A0101400440161187728002MIGUEL P. DE LEON                                        0505
A0101407270000007883483DIZON, MARCELO ABANILLA                                  0501
A0101407270162351252001WILFREDO C. CUEVAS                                       0502
A0101401090171293965003VIVECA JANE OR CHARLIE                                  10502
A0101401090171293965003DEOCADIZ                                                20500
B0101410720653043060001METRO DRY CLEAN VENTURES, INC.                           1603
A0101410720653173641001ISMAEL, LOLITA FABRE                                    10502
A0101410720653173641001OR ISMAEL, HUBERTO                                      20500
A0101410720653528817001VINCENT GONZALO SY OR TIMOTHY                           10502
A0101410720653528817001JON SY OR JULIE SY                                      20500
A0101410720210570600001DELA CRUZ, ASSHLEY UY DBU                               10502
A0101410720210570600001JAMINIC ENTERPRISES                                     20500
A0101410720000006239869******                                                   0503
A0101412500000001146805ARROJADO, JENNIFER DY                                    0501
A0101412500000007885412CHAN, DERRICK UY OR                                     10501
A0101412500000007885412CHAN, TIMOTHY UY                                        20500
B3101400160221017124001PANASONIC PRECISION DEVICES PHILIPPINES                 11601
B3101400160221017124001CORPORATION                                             21600
A3101400160221220693001GERONIMO B. SALES OR                                    10505
A3101400160221220693001DOREEN A. SALES                                         20500
B3101400450223821200608**********                                               2001
A3101400870000005565335ESTRAVO, EULALIA MAGPAYO                                 0501
A3101400870000005565335ESTRAVO, EULALIA MAGPAYO                                 0501
A1001400190231478374116ESTRELLITA E. BERMUDEZ                                   0502
A1001400350000002367240CAPAL, MAGLANGIT ALANG                                   0502
B1001400350233032957001PCCI FINANCE CORPORATION                                 1601
B1301400470000003270113OBRIGADO LENDING INVESTOR, INC.                          1601
A1301400470252486767001LUZVIMINDA T. PABLO                                      0501
A1301400470000000472622VERA ABRERA BORROMEO                                     0502
A1901400290000001189215NORIS BULANHAGUI                                         0501
B1901400290261034056001DIVINE LOVE GENERAL HOSPITAL INC.                        1620
A1901400290261244339001RUDY BARRETO MANGUIAT OR                                10503
A1901400290261244339001BENITO BARRETO MANGUIAT                                 20500
A1901400290261244456001LEO YAP ONG OR                                          10505
A1901400290261244456001MEI MEI YULO ONG                                        20500
A1901400290261244469002HENRY TEMPLO MERCADO OR                                 10501
A1901400290261244469002DELIA REYES MERCADO                                     20500
A1901400290000002337624MINA FAMINIALAGAO OR                                    10501
A1901400290000002337624WILLAN ABALOS                                           20500
B0101406620273024061001MOUNTAINGATE GOLF SERVICES, INC.                         1605
A0101400570281186601002DR. JOSE PEPITO AMORES                                   0502
A0501400200000005751599BALMEDIANO, MYRNA SOLIVEN OR                            10503
A0501400200000005751599BALMEDIANO, ISMAEL                                      20500
B2601400270302045063001ISABELA UNITED DOCTORS MEDICAL                          11620
B2601400270302045063001CENTER, INC.                                            21600
B0801400160311271206001WESTERN LAMP & ELECTRICAL SUPPLY                         1604
A1101400120313478374066FUNCION, LANIE E.                                        0502
A0101402350321708802001ALMAROSE C. VILLAPANDO                                   0501
B0101402350321738079001OLIVAREZ GENERAL HOSPITAL INC.                           1610
B0201400760374032173002MARIANO & SONS MARKETING, INC.                           1605
B0201400920375044764001GOLDEN ROAST CHICKEN INC.                                1601
B0201400920375047524001CUBAROL, VILMA SARMIENTO DBU                            11605
B0201400920375047524001NEW FRONTIER LOG                                        21600
B0201400920000000047954LIM SENG HUA FOOD PRODUCTS CORP.                         1601
B0201400920000006433592MCPI CORPORATION                                         1610
A0101402930000000859598ZABALA, IMEE DE LIMA                                     0501
A0101402930000007030980LEE, GWANGSHIN                                           0502
B0101402930381017213002UNIVERSAL ROBINA CORPORATION - UCP                       1602
B0101402930381017213007UNIVERSAL ROBINA CORPORATION                            11602
B0101402930381017213007URC - CMC                                               21600
B0101402930381021732001PENEL INTERNATIONAL, INC.                                1601
A0101408370000006446073ZARSUELA, EDWIN STA CRUZ                                 0502
A0101408790000002326198ANTIOJO, ROUGENE ESPELETA                                0501
A0101405490000005566327MORALES, ADELAINE MARIE ALMEDA                           0501
A0101405490000002880573WENCESLAO C. PIMENTEL DBU                               10503
A0101405490000002880573MGV COMMERCIAL                                          20500
A0101405490392638455001FE V. BERSALONA                                          0501
A0101408400394376439001SY, LUISITO SANTILLAN/                                  10510
A0101408400394376439001SUNLIGHT DRUGSTO                                        20500
A2401400180411060506188GONZALES, JERISSA HONG OR                               10501
A2401400180411060506188GONZALES, JERILLE GAY H.                                20500
A2401400180411623776001SAUBAN, MARIA LUISA BANDIOLA                             0502
A2401400180411666777088DE MESA, FRANCISCA GUBUAT -                             10504
A2401400180411666777088NICESIAN STORE                                          20500
A0101412890000000007536JOSEFINA J MENDOZA OR                                   10501
A0101412890000000007536AIREEN S ANGELES                                        20500
A0101403320000007886820RONNIE P SANCHEZ                                         0502
A0101403320000007890499RODRIGO B. NOLASCO AND                                  10501
A0101403320000007890499GERARDO B. MARCELO                                      20500
A1901400320000002296006INHUMANG, EVARISTA BUTIC                                 0503
B1901400160491050626001STCJ MULTIPLE INTELLIGENCE SCHOOL, INC.                  1602
A1901400160491347259015FE D FAYTAREN                                            0501
A1401400110492228930001ABUEDO, ESTELA S.                                        0502
A0101407430000003522574ARVIN D. DELIMA                                          0503
B0101407430503021143001PHIL-AMER IMMIGRATION SERVICES, INC.                     1603
B0101407430503039021001NOC GLOBAL MARKETING AND MANAGEMENT                     11602
B0101407430503039021001CORP.                                                   21600
A0101407430000003193946LOPEZ, JENNIFER N. DBU JLO HIGH                         10501
A0101407430000003193946PERFORMANCE MOTOR SHOP                                  20500
A0101407430000001028773ELAINE S. CANLAS                                         0501
A0101403580511156576001NIDAN E. ALBA                                            0502
B0101405940000003571748CELESTIAL OMNI RESOURCES ENTERPRISE                      1602
A0101408110515427749001HILARIO TAMONDONG JR. OR                                10502
A0101408110515427749001TRISHA MARIE TAMONDONG                                  20500
A0101408530000002260026AGNESE, PHILIPPE HENRI H. OR                            10503
A0101408530000002260026AGNESE, THERESA                                         20500
B0101408530000001275252MANAHAN, ENAGE-ARANGUREN AND ORTEGA                     11601
B0101408530000001275252LAW OFFICES                                             21600
A0101408530516524485001ZOBEL, BIANCA CRISTINA CARDENAS                          0510
A0101408530000000136223NATALIA DIANA C. ZOBEL OR                               10510
A0101408530000000136223INIGO U. ZOBEL                                          20500
A0101411400000005330012MANGONON, MA. LISETTE LARRACAS                           0502
B0801400290591821200608**********                                               2001
B0101404130601031677003CARRIEDO TOURIST DEVELOPMENT INC.                        1605
B0101404130601031677004CARRIEDO TOURIST DEVELOPMENT INC.                        1605
B0101404130601039722001HILAGANG EDSA TOURIST INC.                               1610
B0101404130601039722002HILAGANG EDSA TOURIST INC.                               1610
A0101404130601663268001ASPA, ELVIRA CANIMO                                      0502
A0101407720000000713028ANDREI RHONEIL M. RODRIGUEZ                              0503
B0101404260611005306001THE HOUSE OF RACOR ADS., INC.                            1605
B0101404260611037884001EJFA PROFESSIONAL DEVELOPMENT CORP.                      1605
A0101409920650478374005CRISOSTOMO, MA. EMELIA GASPAN                           10501
A0101409920650478374005MEMBERS OF NATAS                                        20500
B0101407690652821100608**********                                               2003
B0101407690652821200608**********                                               2001
A0101411530000001393642FERDINAND ONG OR NELLIE ONG OR                          10502
A0101411530000001393642EMIL RAYMUND ONG                                        20500
A0101413570656057648172ELAINE G. MATANDAC                                       0501
A0101414120000000875823RMANTRADE ENTERPRISE                                     0501
A0101414120000006005378ANA LIZA ONG OR RODRIGO                                 10501
A0101414120000006005378ANGELO ONG                                              20500
B0101411950680821100608**********                                               2002
B1301400340683023491001EMPRESS CHEMICAL INDUSTRIES, INC.                        1601
A1301400340000006402411SINDOL, RAQUEL LIM DBU REYVEN                           10510
A1301400340000006402411JOYCE TRUCKING                                          20500
A1701400230000002762809MUSNI JR., CARLITO  DBU FHAROYO                         10510
A1701400230000002762809TRADING                                                 20500
A0101408240711386973003ROBERTO SANTIAGO OR                                     10502
A0101408240711386973003DIANA SANTIAGO                                          20500
A0101408240711392969002SAZON, MARGARET MARY GOLDEN                              0501
B2801400100712821200608**********                                               2001
A4101400550000004846891PAROLE, GLORIA RAYO                                      0501
A4101400550000001332416DOCTOR CLEAN LAUNDRY SERVICES                            0502
A4101400550815478374008LORELYN C. PARCIA                                        0502
A0101404840000000085107JELLA M. GERONIMO                                        0503
A0101404840851217637044ALFREDO B. ALARCON                                       0502
