A0101406590000009500823TINAZA, AMELINA BAUTISTA                                 0503
B0101406590000000905657BRAINCHILD SIX INC.                                      1602
B0101400150061010855001MANTA EQUITIES, INC.                                     1601
A0101402350321455174001CARVAJAL, DOROTHY S. OR                                 10501
A0101402350321455174001CARVAJAL, KIM APPLE S.                                  20500
A0101412920000015383130OCAMPOS, DELVIN JOHNLUZ ARANAS                           0502
A0101407270162385235002RAFAEL M. MERCADO                                        0502
B0101403320471032147001MEDZ SHOES CORPORATION                                   1602
B0101403320471206926002LOLITA B COLINA                                          1601
A1301400500000015422045ANTHONY DEXTER B. CANUEL                                10501
A1301400500000015422045NENITA B. CANUEL                                        20500
B0101400860011023116001**********                                               1601
A0101400860011395673001**********                                               0506
A0101400860000000414122*************                                            0503
B0101400860011548332002**********                                               1603
B0101400150061010644001JESUS V. DEL ROSARIO FOUNDATION,INC                      1610
B0101400150061010981001RIVERWOOD ESTATE, INC.                                   1601
A0101400600000001335604PORRAS, MARIVIC DE GUZMAN                                0502
A0101405810072368935001**************                                           0503
A0101405810072684668001LI, ZONG WEI YUN                                         0503
A0601400100000016479017OCHOA, MARCELO CONSTANTINO BAUT                          0501
B0601400100081013321001BIO-TECH MARKETING CORPORATION                           1604
B0601400100081030352001LIVING STONE INTERNATIONAL SCHOOL INC.                   1605
A0601400100081251940001TAPANG, AURELIO OR                                      10502
A0601400100081251940001TAPANG, GERARD                                          20500
B0601400100081256780001MICRO-B, INC.                                            1604
A0601400100000010683953PALO, KRISHNA LUCAS                                      0501
A0601400360000016479006SUAREZ, WENCES TANGLAO                                   0501
A0101410850000003102012MIRAFLOR, JOMAR JOSE                                     0505
A0101400730000016469273AZUMA, CHRISTIAN CABUYADAO                               0501
A0101412630000007168803STA. CRUZ, CONCEPCION LAZARO                             0501
A0101413310000002317831PALACIO, EMMANUEL BANASIHAN                              0503
A7201400170000009463761ALUYEN, RONDALE TAN                                      0501
B5001400170000010100491ST. LAURENCE DPL LENDING CORP.                           1605
A0101400440000008201323ROELA D. WATTANG                                         0501
A0101400440161625470001KRISTINE A. CECILIA                                      0501
A0101407270000015584964DORONILA, CARL YVAN                                      0501
A0101407270162294969001STO.DOMINGO, JOSE EUSTAQUIO                              0502
B0101407270162558669001UNIPRIME BEAVER STEEL PRODUCT                           11610
B0101407270162558669001CORPORATION                                             21600
A0101401090171195633002ESTRELLITA RUIZ OR                                      10501
A0101401090171195633002FREDERICK RUIZ                                          20500
A0101401090171331630001MARIA ARCELI G. MAGSINO                                  0501
A0101401090171331804002CAROLYN R. DAYRIT                                        0501
A0301400530000014433791MALALIS, ROGER ELLORIMO                                  0502
B0301400530000001409570RHEAN MARKETING INCORPORATED                             1601
A0301400530000003087409GAVIOLA, MARCO RAY DELA CRUZ                             0501
B0301400950000012244847C-ONE STEEL CORPORATION                                  1602
A0101401380201313149001JAIME R. ALANO                                           0501
A0101401380201618189001CINCO, ROSA OR LAM, LAURENCE                             0505
A0101410720653693151001SAMBRANO, CARMELITA ASIS                                 0501
A0101410720000002283996RANOLA, RONN MARLOWE CABILLON                            0501
A0101413600000014854614JUANITO A. SIMON                                         0505
A3101400160000015975390EDEM, MARIE MEL MARAGAY                                  0501
A3101400160221478374061ANDREA E GOLVEO                                          0501
A3101400450223019912001LAGUNA HEALTH SERVICES                                  10510
A3101400450223019912001COOPERATIVE                                             20500
A3101400870000005409923BOCAR, G DBU BOCAR FINE ARTS                            10502
A3101400870000005409923AND SURFACE DECO                                        20500
A3101400870000016471102MALABUYOC, MELVIN MONTABLAN                              0501
A3101400870000016471255MELANIO JR., JOSE MONZONES                               0501
A3101400870000016471379MESINA III, MAURICIO PEREJA                              0501
A3101400870000016471460MINON, DELILAH DOMINGO                                   0501
A3101400870000016471551SANCHEZ, ADELMA CASTRUDEZ                                0501
B3101400870000005960756PUREMED INTERNATIONAL INC.                               1601
B1001400190000005708983GARAY, FLORENTINE TECSON DBU GARAY GENER                11602
B1001400190000005708983AL MERCHANDISE O                                        21600
A1001400190231509590001LAGUYAN, ENGRACIO SALONA OR                             10504
A1001400190231509590001LAGUYAN, HELEN B                                        20500
A1001400350000000922014PEARSON, PILARCITA ROA                                   0502
A1001400350000015675188BACULIO, PRINCESS KATRINA ELIZA                          0501
A1001400480000014023984GAMULO, ANNA JANINE BANCORO                              0501
B1001400480000003357891AYA VENTURES CORP DBU ASONHUAT AGRO INDU                11601
B1001400480000003357891STRIAL GROWER                                           21600
B1001400480000008501762LINAAC, FERDINAND GRANADA DBU FGL TRUCKI                11601
B1001400480000008501762NG SERVICES                                             21600
A1301400470000013690030JOAHNA MARIE T. SIMON                                    0501
B1301400470000013689928MONCHERRY HEALTH AND BEAUTY PRODUCTS                     1601
A1301400760000003415596PATRICK C. MUNCAL OR                                    10501
A1301400760000003415596LEA IVY F. MUNCAL                                       20500
A1901400290000001975222DRA. AUREA TOPACIO HERNANDEZ                             0501
A1901400290261567865001ALEX IAN SISON DE LA CRUZ                                0501
B0101401670271025682002* * * * * *                                              1610
B0101406460000000712805HEALTH CUBE GREENHILLS INC.                              1603
A0101406460000003422944***************                                          0502
A0101406620273280285001PELAGIO / ROSARIO / REBECCA /                           10501
A0101406620273280285001RAFAEL / ROWENA                                         20500
B0101406620273460196001CA NEWFOUNDLAND SOLUTIONS, INC.                          1603
B0101410980000006014700EMMANUEL MEDICAL AND DIAGNOSTIC CENTER I                11602
B0101410980000006014700NC.                                                     21600
B0101411110000003202119CROSSFOODS CORPORATION                                   1605
A0101412470000002086444NAKPIL, JOSE ANDRES OR DE                               10501
A0101412470000002086444CASTRO, MARIA GU                                        20500
B0101411240000000629265WONEFLOWE CORPORATION                                    1601
B0101411240283821100608**********                                               2002
A0501400200000002306150PACIS, WILMA RAMOS                                       0502
A0801400160311478374064MILAMAE G. GRANDE                                        0501
A6601400120000009613703MUNCADA, PAUL RICHARD SEVILLA                            0501
A6601400120000001065383ALEXANDER SY OR RITA NILA CHY                            0504
A6601400120000002249823NOCHETE, ELIZABETH NOVILLA                               0502
A6601400120314646431001DUBONGCO JR., ARTURO OR                                 10502
A6601400120314646431001DUBONGCO, ARLENE                                        20500
A0101402350000005645109**********                                               0501
B0101402350321006752001LOPEZVILLE HARDWARE                                      1602
A0101402350321179561001TERESITA R. ORIS OR                                     10501
A0101402350321179561001RODOLFO P. ORIS                                         20500
A0101402350321467757001ELAMPARO, SARAH TALANA                                   0501
A0101405650322173985001MEDINA, HERMINIA C.                                      0501
A0101402060351370605001*****                                                    0502
A0101409050000003536521GUTIERREZ, SHERYLL                                       0501
A0101409050000016473319ABLANG, ALLAN GABRIEL                                    0502
A0201400760000013669053SANIEL, ERWIN ROMMEL DELA  TORR                          0501
B0201400760000011325783PHILPACIFIC INSURANCE BROKERS & MAN                      1610
B0101402930000003269414ASA COLOR AND CHEMICAL INDUSTRIES INC                    1602
A0101408370382314711001DR. CRISTINA TERESA C. SAMONTE                           0501
A0101408370382434379001DR. LOURDES JOSEPHINE                                   10501
A0101408370382434379001ANGLIONGTO-RAMOS                                        20500
B0101405490000011681628*****                                                    1602
B0101405490392518855001ISABELLE ROYAL HOTEL & SUITES INC.                       1603
A0101408950000011764971GERVACIO-DOMINGO, GISELLE GASPA                          0501
A0101408950000014190633BINUYA JR., ROMEO NAVARETTE                              0501
A0101408950396565472001DEBBIE GUANI DY MEGUIZO OR                              10503
A0101408950396565472001DONALD JUDE UY MEGUIZO                                  20500
A0101408950396571165001DURAN, CECILE TRISHA BADELLES                            0506
A0101409210000001501502SALAZAR, GILBERT BYRON EBREO                             0502
B0101412210000003881221SMART & PLAN CONSTRUCTION AND                           11602
B0101412210000003881221CONSULTANTS INC.                                        21600
B0101412210000007251669PABAZA IMPORT & EXPORT INC.                              1603
A0301400820000000024893ALIVO, JOENALD C.                                        0501
A5501400120410638200001ALAJAR, CELESTINA OR ROLAN OR                           10505
A5501400120410638200001ANNABELLE                                               20500
A5501400120000011599263TIU, GIOVANNI MALABUYOC                                  0502
A2401400180000000826233OXALES, HANNAH LOUISE RAQUEDAN                           0501
A1201400150000007556401MENESES, RYAN DE GUZMAN                                  0501
A0101403030000005327588**********                                               0503
A0101403030441433845001**********                                               0501
A0101412890000007095389**********                                               0501
A0101403320000001646631SANTIAGO, LEILANI SANTIAGO                               0502
A0101403320471480971001GINA T. CALABIO                                          0502
A0101410140000001939973CASTILLO, R DBU VRMJ MANPOWER S                          0502
A0501400170000006300629GAZMEN, ARNEL GERARD RAYOS                               0503
B1901400160491064500001GOOD HEART MARKETING INC.                                1603
A1901400160491562857001JVICTOR MARKETING CORPORATION                            0505
A1401400110000013091504PELAGIO, MARDICELYN YULO                                 0501
A1401400110492508888008***********                                              0501
A1401400110492604392001ARROYO, RENANTE ONGJUNCO                                 0501
A1601400170000001360849JOSON, RICHARD FORTUNO                                   0501
B0101407430503030067002PRODATANET INCORPORATION                                 1603
B0101407430000000035316D' FRADA ALLIED SERVICES INC.                            1602
B0101407430503036696001SKY AVIATION LEARNING CENTER, INC.                       1603
A0101407430000006027932SUSAN A. ANDAYA DBU SUNRAIN                             10502
A0101407430000006027932WATER REFILLING                                         20500
A0101407430503348468001JOSEPHINE B. MATALOBOS OR                               10501
A0101407430503348468001DARWIN E. MATALO                                        20500
B0101403580000007864320KALAYAAN TALIPAPA CORPORATION                            1605
B0101403580511027603001K.S.T. PROPERTIES, INC.                                  1610
B0101403580511046747001HUDDLE ROOM MEDIA INC.                                   1610
A0101405940000012443651ALINDAYU, KLIFF JOHNVY NGILAY                            0502
A0101405940000000061601SISON, LILIAN GARCIA                                     0501
B0101403450521011675001TORQUE BUILDERS, INC.                                    1606
B0101403450521035140001**********                                               1601
A2201400250000000141186WILFREDO N. ONG                                          0501
B0101410690000000001838COLOR1DIGITAL, INC.                                      1601
B0101404130601150036001ANGELO KING FOUNDATION, INC.                             1602
A0101407720000000510836JOVEN, MYLAH ABELLA                                      0504
A0101407720602271723099CELINA D. CIFRA                                          0501
A0101412180000016339430PRAYCO, JEAN MICAH ONG                                   0501
B0101412180000008480115PROACTIVE CAR CARE CENTER                                1601
A0101404260000000532170GENUINO, ERWIN FLORES                                    0502
B0101404260611023318001EUNEE TRADERS AND CO. INC.                               1610
B0101404260611028921001KICEM TRADERS AND CO. INC.                               1610
A0101409890000016031462BONIFACIO, ANECITAS DINULOS                              0501
A0101409920000014279213VALENZUELA, LEA MALAFO                                   0501
A0101411530000003448311MELINDA ANN A. PEREZ                                     0501
B0101414120000004603398WEBLEND INC.                                             1601
A0101406590000016480438CRUZ JR., MARIO HALILI                                   0501
A0101406590000016480438MARIO H. CRUZ JR.                                        0501
A0101410300000006278813ZABALLERO, TEODORO Z. OR                                10502
A0101410300000006278813ZABALLERO, DORCA                                        20500
A1301400340000015886881SANGALANG, ERLINA CUCIO                                  0501
A1301400340683533736001BULAO JR., CHARLES GO                                    0502
A1301400500000012953987HERRERA, RONIE MANGULABNAN                               0502
A1301400500000016473206LINSANGAN, HAZEL HERNANDEZ                               0501
A1301400500000012913252********                                                 0503
A0101408240000007478126ALDANA, FELIPE FLORENCIO B. JT                           0502
A0101408240000008854479ORTIGAS, GERALDINE JAVIER                                0502
B0101408240711038557001THE BRIDGE SCHOOL, INC.                                  1605
B0101408240000000832962CARMEL LAND SALES & DEVELOPMENT CORP.                    1610
A4101400260000016480898CANDIE, SANCHEZ HERRERA                                  0501
B4101400420000006643387LEAD WITH INTEGRITY AND GOOD GOVERNANCE                 11605
B4101400420000006643387IN HELPING COMMU                                        21600
A4101400550000000315040BUMA-AT, THELMA                                          0501
B4101400550815821100608**********                                               2002
A0101404840000001312532CHICO, DIVINA DE GULA                                    0501
A0101406750000015823944****                                                     0504
B0101406750000010166440HIGH STACK FORWARD INC                                   1605
A0601400230000015248714DELA CRUZ, MICHAEL SARMIENTO                             0501
A0601400230000000990012GO, JONATHAN TAN                                         0501
