B0101402060351030802001PACIFIC RESINS INC.                                      1605
A0101400440000007121746BUSTAMANTE, ELLEN GULTIANO                               0501
A0101400440000007904858ASERON III, MELQUI DBU ASERON S                          0502
A0101400440161186930002LAURO M. AMANTE                                          0501
A0101400440161188352003ZALDY B. LAVARRO                                         0501
A0101400440161478374198EUFRONIA I. BERGONIA                                     0502
B0101406750000000091012AUGUSTINIAN ABBEY SCHOOL, INC.                           1603
A0101400440000004889912MARIA VICTORIA F. ORACION                                0503
A0101400440161525001139JEMARIE S. SALUDAR                                       0501
A0101400440161584376001MA. EDITHA G. BAUTISTA                                   0502
B0101408400394017929001PILI BATTERY SALES, INC.                                 1602
A0101408950000009451190ESPANA, JOSE FROILAN CRUZ                                0502
A0101408950396392501001BAMBALAN, JOCELYN CENIZAL                                0505
B0301400820000007135004AMASOL, PROCESA OR PONCARDAS, RAYNALDO O                11603
B0301400820000007135004R VELILA, VIVIAN                                        21600
A0301400820000006542703TAPANG, JULIUS ADRIAN M. OR                             10501
A0301400820000006542703TAPANG, SHER ANGELI N.                                  20500
A0101405940512312254001********                                                 0502
A0101406590662464079001PERALTA, PATRICIA BIANCA G.                              0501
A0101406590662523209001BENDANA, SARAH PO                                        0501
B0101400860000000100852**********                                               1603
A0101400860000001005536**********                                               0502
A0101400860011415596001**********                                               0503
A0101400860011520310001**********                                               0502
A0101400860011591125001**********                                               0503
A0101400150000003164714RENE ROLDAN G. IGTIBEN                                   0501
A0101400150000009832686PANESA, SHAMIELENE KATE ALMOZAR                          0501
B0101400150000010164513ALPHA FOXTROT MEDIA INC. DOING BUSINESS                 11603
B0101400150000010164513AS ARTILLERIE ME                                        21600
A0101400150061316369005NENITA C. LINAO                                          0501
A0101400150061337098062MARIA MYLIN CAYNILA                                      0503
A0101400150061711212013YU, MARK ANTHONY LU                                      0501
B0101400600071045155001*******                                                  1603
B0101400600071396916001II                                                       1605
A0101405810072367597002WANG, GUO YANG                                           0502
A0101405810072375139003OCAMPO, RAMON DE VERA                                    0503
B0601400100081251895001ONG, PACITA D. OR ONG, ABEL                              1602
A0601400100081478374009JOWELL MIRANDA                                           0502
A0101413280000000312643CARLOS R. ATAYDE OR                                     10550
A0101413280000000312643CARMEN M. ATAYDE                                        20500
A0101400730111386485162DINA F. ALIBIO                                           0503
A0101400730111412858010LOLITA MANALO                                            0502
A0101412630000004061943SCHOLARSHIP PLANS PHILIPPINES,                          10504
A0101412630000004061943INC.                                                    20500
A7201400170000003773017EDULSA, NELSON CALME OR                                 10502
A7201400170000003773017EDULSA, CRISANTA                                        20500
A5001400170000002288253YU, LEONARD OLIVAR                                       0502
A0101412920000008813690CHAVEZ, ANTONIO BERMEJO                                  0502
A0101400440000002035041MARIA GEVELA CARDINOZA                                   0501
A0101400440000004889887BALINGBING, LEONORA SINUTO                               0501
A0101407270000006939082DELA PENA, AIDA ROSAURO                                  0502
B0101407270162016355001ONWARD COMMUNICATIONS & SERVICES                         1604
B0101407270000007747104GAMAELITE CORPORATION                                    1602
B01014010901710435610013M PETROLEUM DEALER CORP.                                1602
A0101401090171196080003GIL Y. GAMILLA OR                                       10510
A0101401090171196080003CARLOS M. ALMEDA                                        20500
A0101401090171200824001PILAR I. ROMERO                                          0501
B0301400530193088888088TAGUM FIESTA APPLIANCE, INC.                             1615
A0101401380000001820031SERRANO, JAY JOSEPH C DBU SEVEN                         10505
A0101401380000001820031CONTINENTS TRAVEL & TOURS                               20500
A0101401380000006542361CUNETA, MA. ANTONIA CARBALLO                             0505
A0101401380201180056001HARG TIMOTHY ANG OR JERILYN ANG                          0502
A0101410720000007843323CUNANAN, JANE CATO                                       0502
A0101412500000005300532RAMIREZ, KIMMI SANTOS                                    0501
A3101400160000001276028CARIAS, FRANKLIN HERNAEZ                                 0501
A3101400160221221575002FARNENIO M. MAGTULIS, JR.                                0501
A3101400160221478374004SIERVO, MARY JANE RAMOS                                  0501
A3101400160000001169273ANNIE LIZA C PINTOR                                     10502
A3101400160000001169273OR GLENN M PINTOR                                       20500
A3101400450000002092899SIMBULAN, DENNIS DE LEON                                 0501
A3001400130000008264762RICHELLE SUMIPO DRESSED CHCKEN                           0501
A3001400130230762305154CABELA, TERESITA MATA                                    0502
A1001400190000005709140TAN, RENARIO TOYLO                                       0502
B1001400190231022073001FARASIA EDUCATIONAL LIBRARY COR                          1601
B1001400190000008744123NEOTRINITY CORPORATION                                   1610
A1001400190000002170656AMELINA E. FACTURA                                       0501
A1301400470000001299009NIDA S. AQUINO                                           0502
B1901400290261047995001SPOUSE OF THE BLESSED VIRGIN                            11605
B1901400290261047995001HOSPITAL INC.                                           21600
A0101401670271375347001HENEDINA L. VELASCO OR                                  10503
A0101401670271375347001EDGARDO T. VELASCO                                      20500
B0101408660000001940610WESTMINN CONSTRUCTION AND DEVELOPME                      1603
A0101412470000002295769CHENG, JEFF TAN OR CHENG,                               10501
A0101412470000002295769EVELYN UY                                               20500
A2601400270000011415211LARNA NEVADO DBU LUCKY A GRAINS                         10505
A2601400270000011415211CENTER OR JIMSON NEVADO                                 20500
A0801400160000000009463CHAN, JOSELYN GAN LEE                                    0501
B08014001603110372760011957 MARKETING CORPORATION                               1602
B0801400160311069118001ZUN LENDING CORPORATION                                  1601
A0801400160311553780001COSTA, HENRY CERDENIA                                    0505
A6601400120000011286310MARTIRES, ROMMEL GAMAY OR                               10502
A6601400120000011286310MARTIRES, MHEL JOSEPH                                   20500
B6601400120314043609005FUNDACION GRAMEEN PILIPINAS INC.                        11605
B6601400120314043609005HINA BRANCH                                             21600
A6601400120314622237001ADRIATICO, DON BASILIO C.                               10502
A6601400120314622237001OR MELIKA O.                                            20500
A6601400120314668441002MASLOC, SHERRY AMOR GALONO                               0501
A2001400290000004889978TEJADA, JAMES NYLROD GUEVARRA                            0501
A2001400290000004890002PAJES, JOHNREY CALDERON                                  0501
A3401400280000003493936LOSANDE, CARLO BEN LOPEZ                                 0501
A3401400280000006791100FERNANADO D. BEGAS JR.,                                 10501
A3401400280000006791100DBU BEGAS MERCHANDISING                                 20500
A3401400280000006791100FERNANADO D. BEGAS JR.,                                 10501
A3401400280000006791100DBU BEGAS MERCHANDISING                                 20500
A3401400280000002323513DISTOR, CHERRY ANN DELGADO                               0502
A0101402350321180459002TING, CHING LAN OR CHANG, CHIAO                         10501
A0101402350321180459002FEI OR CHANG, CHIAO-FENG                                20500
A0101405650000000348903ESPERANZA F. BAYLON                                      0502
A0101405650322412858003PATATAG, HERMINIA SALAMERO                               0501
A0101402060000002259878ANIMAS, MARC THEUS PADUA OR                             10501
A0101402060000002259878ANIMAS, MICHELLE                                        20500
B0101402060351009368001RESINS, INC.                                             1603
A0101402060351213405001LEOZALDY C. LINTAG &/OR                                 10501
A0101402060351213405001DEANA M. LINTAG                                         20500
A0101409050000006462951*****                                                    0505
A0201400760374507828002MANCAO, DAISY SUE KIMBERLY GO                           10501
A0201400760374507828002OR MANCAO, DEXTER RYAN                                  20500
B0201400760374716303001ETLC                                                     1601
A0201400920375504647001**********                                               0503
A0201401020000000055952DANO, JOSIE DANAS                                        0502
B0101402930381008880001AIRTIME MARKETING INC (PHILS.)                           1606
A0101402930381350846004ROWENA G. BACANI                                         0501
A0101408370000006446062SANA, FRANCES IRENE ORIG                                 0501
B0101408370000000335595ASIAN HAIR RESTORATION CENTER, INC.                      1601
A0101408790000004483125AGNES AILEEN E. LITTAUA                                  0501
B0101408790383039789002MINDANAO ENERGY SYSTEMS, INC.                            1602
A0101402770391404096001PANLILIO, MYLENE BAGON                                   0503
A0101405490000005692475BRINCES, CATHERINE CANALES                               0501
B0101405490000008380694SILVERMANE IMPEX AND GLOBAL TRADING                      1602
A0101405490392307722003JIEL C. SANTOS                                           0502
A0101408400000011077604MEDINA, GERARD LAXA                                      0501
B0101408400394025834001TRELLIS RESTAURANT, INC.                                 1605
A0101408400394465137001ZARDOMA, PEPE GALAS                                      0502
A0101408400394510820001SONGCO, CHARLOTTE ARIOLA                                 0501
A0101408400000005286331SALINIO, NARCISO MANTIQUILLA                             0504
A0101408950000005325600CAYOS, JUAYMA RUTH CAYABYAB                              0502
A0101408950000011434483CRUZ, RAOUL DE GUZMAN                                    0502
A0101408950000011598813ACEVEDA, ELENITA EVANGELISTA                             0502
B0101408950396564292001*****                                                    1602
B0101409210000000031238******                                                   1615
B0301400820000000024911DIGOS DOCTORS' HOSPITAL, INC.                            1620
A0301400820000005196727ALBERTO G. CARO                                          0501
A2401400180411472836003OMEGA, LEE ANN GENILO                                    0502
A2401400180411487779008LIM, CARLITO TAN                                         0502
A1201400150000001863301TAN, DARWIN ANG                                          0504
A0101403030441239075002**********                                               0502
A0101403030441241050001**********                                               0503
A0101403030441337771001**********                                               0501
A0101403030441795533001**********                                               0501
A0101412890000001765459PEREZ, SHEILA ANGELICA SORIANO                           0501
A0101412890000001056228**********                                               0501
B0101403320000001647149UNIGOLD EVENTS AND PROMOTION MANAGEMENT                 11601
B0101403320000001647149INC.                                                    21600
A0101403320000001803098VALENZONA, RAUL PAL                                      0501
B0501400170481025398002COSTSAVER'S SUPERMARKET, INC.                            1601
B0501400170000000018380MAGIC APPLIANCE CENTER, INC.                             1601
A0501400170000006300629GAZMEN, ARNEL GERARD RAYOS                               0502
A3801400170000005288133RABINO, FE FORTU                                         0501
A1401400110492541342001ABELAR, LOURDITO S. OR                                  10502
A1401400110492541342001ABELAR, ISABEL M                                        20500
A1601400170000001068662MARIA JULIETA I. SALVOSA                                 0501
A1601400170000000497489CROWN PARK RESTAURANT                                    0502
A0101407430000001028966TOHAMIE D. ANDAMUN                                       0504
B0101403580511005445001MILLENNIUM BUSINESS SERVICE INC.                         1610
A0101403580511691950001BALDE, CARMEL LYNNE MAGAT                                0501
A0101411400000005329762BRINAS, AIZZA FRANCESCA VELARDE                          0502
A0101411400000005157193BRINAS, AIZZA FRANCESCA VELARDE                          0502
A0101411790518055764135ESPADA, ADABELLE ANDAYA                                  0501
A0101403450521677296001ANDAYA JR., LEOPOLDO MAGAT                               0501
B0101403610531069135001XA 360 ENTERPRISES AND SERVICES LTD. CO.                 1601
B0101407720602034831001TAO PHOTOGRAPHY                                          1602
A0101407720602333243001MELODIE GRACE M. REMORCA                                 0502
B0101412180000008320125APPLE AIR TRADING INDUSTRIES INC                         1603
A0101404260611631387001LINCUNA, LOJIEROSE AVILA                                 0501
B0101409890000009468482**********                                               1601
A0101409920000010528662PENAFLORIDA, EMELITA L. DBU                             10503
A0101409920000010528662JEEMILES ENTERPR                                        20500
A0101407690652045951001JMK BUILDERS CONSTRUCTION                                0503
A0101407690652525001073ELVIRA D. BASA  DEALERS OF                              10503
A0101407690652525001073SHOECAT, INC.                                           20500
A0101407690652768531001CORAZON DE LEON OR JOSE DE LEON                         10503
A0101407690652768531001OR JOSEFA RICASA                                        20500
A0101413570000003379908CABANIG, MYRA MELAYA                                     0505
A0101413570656057648179NAVARRO, MARICEL                                         0501
A0101413990000007318687WILHELMINA C. REYES                                      0501
A1301400210000005040635***                                                      0502
B1301400210000000023543SAN PABLO LIAM FOODS CORPORATION                         1603
A1301400210682246147001MA. ANGELA O. CELERIDAD                                  0502
B1301400340683035112001******                                                   1602
B1301400340000000011872GRUPPO NORTE DISTRIBUTION CORPORATION                    1605
A1301400340683478374058RUBIO, YUME ADANTE                                       0501
A1701400230000003471732BARNESO, EDISON LAGAZO                                   0502
A0101408240000003955293BILLANO, EDNA YAMBAO OR HERNAN                           0501
A0101408240000008160183**********                                               0502
B2801400100712036374001I WILL COMMUNICATE, INC.                                 1603
B4101400260812039799001LAGAMAYO DENTAL CORPORATION                              1604
A4101400260000006042917MANALO, JEFFERSON S. DBU J.S.                           10502
A4101400260000006042917MANALO CONSTRUCTION                                     20500
B4101400390000003346198SUPERSTAR PACKAGING CORPORATION                          1601
A4101400420000007305502MAGHILUM, JERRY                                          0502
A4101400420814520766135MOTILLA, ROSELLE                                         0501
A4101400420814589735001BERAY, RENE REY PULIDO                                   0502
A0101412340000002900341EDUARD B. PINEDA                                         0501
A0101412340000003438533CATHERINE G. BALLESTEROS                                 0501
A0101404840000006364907FERNANDO, MARINO                                         0501
A0101404840851217637044ALFREDO B. ALARCON                                       0502
B0101406750852023612001LAS PINAS CITY MEDICAL CENTER, INC.                      1610
A0101406750000005666817CDB ACCOUNTING AND TAXATION SER                         10502
A0101406750000005666817VICES                                                   20500
A0101405070861288852002RAMOS, REMEDIOS REPATO                                   0502
A0101405070861356502001*****                                                    0501
A0601400230000003015998CABRERA, JANET DE LEON                                   0501
A0601400230000005185833DUMAN-AG, MERCEDES MANUEL                                0501
