A0101412630000001485252PANTALEON, REGGIE SADSAD                                 0501
B0101402930381016372001INTERLAB PROPERTIES, INC.                                1602
B0101402930381040531001R&C OUTDOOR BILLBOARD INC.                               1602
B0101402930000000623410R AND C OUTDOOR MEDIA INC.                               1607
A0101402930381205175001DR. MARILYN D. RUARO                                     0502
A0101402930381381181001BERNARD FAH OR                                          10504
A0101402930381381181001MARIA CAROLINA FAH                                      20500
A1001400480000010131509LADRADA, CARLITO MABAO                                   0501
B0101412500000012944322GOLDEN DRAGON METAL PRODUCTS INC                         1601
A0101402930000007031261TUMANDA, EMMANUEL ALADIN DAMPOG                          0502
A1601400170000001069125ALDEN O. SAMBAJON OR                                    10502
A1601400170000001069125MINDA O. SAMBAJO                                        20500
B0101410980000000012380PERSONNEL DEPOT MANPOWER RESOURCES INC.                  1602
A0101402930000010657884**********                                               0502
B1901400160000013088198MARSTAN LOGISTICS INC.                                   1601
B1901400160000000007467FIRST UNITED 23, INC.                                    1610
B0101400860011034668001**********                                               1601
B0101400860011236251001**********                                               1601
A0101400860011462040002MERCADO, EDITHA PATIAG                                   0501
A0101400860011465021001**************                                           0502
A0101400860011570367001**********                                               0503
A0101401250000000907142NEPOMUCENO, SALVE RAPI                                   0501
A0101400150000005794238JANICE I. ARIZOBAL OR                                   10501
A0101400150000005794238CHRISTIAN R. ARI                                        20500
A0101400150061236944093REBECCA P. MUYOT                                         0501
A0101400150061329718004ZABALETA JR., JOSE MARIA P OR                           10501
A0101400150061329718004ZABALETA, JOSE M                                        20500
A0101400150061434843001IGNACIO, MARIA CHRISTI-ANNA                             10501
A0101400150061434843001LAWIS                                                   20500
B0101405810072011448001C.P.P.C CONSUMER PACKAGING PRODUCT CORP.                 1603
A0101405810072234892001**********                                               0501
A0601400100081300983001MARILYN OR JONATHAN LACSON                               0502
A0601400360000013097888ARROYO, MARTIN ADRALES                                   0501
A0601400360000013098067BACNIS, MARDIN SABULAO                                   0501
A0601400360000013098170BENITO, DONNABELLE CABUBOS                               0501
A0601400360000013098290CARBUNGCO, MA LUISA NABONG                               0501
A0601400360000013098421DE LEON, GERALDINE TONGIO                                0501
A0601400360000013098541EUSEBIO, MARY ANN UYBUNGCO                               0501
A0601400360000013098654FABIAN, MA LOU PERPETUAL MERCAD                          0501
A0601400360000013098756GARCIA, QUEENIE BEDANIA                                  0501
A0601400360000013098847MANUEL, NESTLE BRINA BASA                                0501
A0601400360000013098972MOLINA, BRYAN NOLASCO                                    0501
A0601400360000013099082PANGILINAN, BRAYAN JIIMENEZ                              0501
A0601400360000013099180PINEDA, MARIA NECITAS CABELLO                            0501
A0601400360000013099271RADTKE, CLARENCE GRACE BARRION                           0501
A0601400360000013099373RONQUILLO, ROLDAN TURLA                                  0501
A0601400360000013099464TAYAG, ROISALYN MANABAT                                  0501
A0601400360000013099577TOMELDEN, VENICE AGUA                                    0501
A0601400360000013099680TORRES, SHELLIE LUCILLE PONCE                            0501
A0601400520000002086051FRANCISCO, MARRY ANN RAMIREZ                             0503
A0601400520000004423209INNO-WORX TRADING AND GENERAL                           10505
A0601400520000004423209SERVICES                                                20500
A0101414090000002282704ESTRELLA, MARIA JOY VERGARA JT                           0501
A0101410850000003101902HERNANDEZ, DBU R & D MOVERS                             10504
A0101410850000003101902TRUCKING SERVICE                                        20500
A0101410850000011276543ANARCON, ALFREDO DBU MCA                                10505
A0101410850000011276543BUILDERS                                                20500
A0101410850109068275001ADRIANO, ANTONIO SO DBU ANTONIO                         10501
A0101410850109068275001S. ADRIANO FURNITURE SHOP                               20500
A0101410560000001944072VALEN, ROSANA RETIG                                      0501
A0101400730111203514021BANTA, MYRALIN                                           0501
A0101400730111478374198DE VERA, NORLINDA                                        0502
A0101413150000000082653******                                                   0502
A0101412630000009425327BULAHAN, KENNETH JOSHUA                                 10501
A0101412630000009425327BERNARDO                                                20500
A0101401830141333975002RIVERA, TERESITA ILLO                                    0502
A0101401830141740190001LEBRON, LUIS FRANCISCO VILLACOR                          0501
A7201400170000003774276TOLENTINO, ELENA TUDTUD                                  0501
A7201400170000007185562CARUMBA, MARGIE SEPADA OR CARUM                         10501
A7201400170000007185562DANIECITO PASCO                                         20500
A7201400170000009673141TRAYA, MARY JOY SEPADA OR                               10505
A7201400170000009673141TRAYA, REX JULIU                                        20500
A7201400170000009463761ALUYEN, RONDALE TAN                                      0501
B7201400170000003773682PERLA COMPANIA DE SEGUROS, INC.                          1601
B5001400170000000169824VICTORY CHRISTIAN FELLOWSHIP OF                         11603
B5001400170000000169824ZAMBOANGA CITY                                          21600
B0101407270162038202001JABEE PLASTIC PRODUCTS                                   1601
A0101407270162202831002WILLY LIM OR ANNA MITCHELL LIM                          10501
A0101407270162202831002OR MICHAEL OR MA                                        20500
A0301400530000005001669CORTEZ, LEAH CASAS                                       0501
A0301400530193037521168NEN ELECTRICAL &                                        10505
A0301400530193037521168CONSTRUCTION SUP                                        20500
B0301400660000008941191SALVANA, SHERYLL ANN TABAY                               1602
B0301400660000003368358**********                                               1601
B0301400660000002348541ERVY LOGISTICS                                           1602
A0301400790000000478240TAMBAOAN, JOYCE MAE OR TAMBAOAN                         10501
A0301400790000000478240JOEL OR TAMBAOAN, MINDA                                 20500
B0301400950000002115931DAVAO MARBLED FOOD                                       1602
A0301400950000003249927MARY JULIE CRISTINA A. CHUA                              0501
A0101401380201179830001JOSELITO &/OR ELENA SAN JUAN                             0502
A0101401380201299840001KIM, JI YOUNG                                            0501
A0101413020209057241001***********                                              0503
A0101412500000003290019ANTAY, ROSSBENOR MACKAY                                  0501
A3101400160221557336001JOSELITO M GUEVARRA                                      0503
A3101400450000001149326LICUP, HUNTER DY OR                                     10501
A3101400450000001149326LICUP, MYRALYN TEE                                      20500
A3101400450000001104123BELEN, PERLA ORTIZ                                       0501
A1001400190000000016402LEGASPI, LUCILO BALATERO                                 0505
B1001400190231015575001GOLDEN CITY AUTO PARTS & HARDWARE,INC.                   1602
B1001400190231029291001JAMESON CONSTRUCTION SUPPLY                              1610
B1001400190231032559001COMMUNITIES CAGAYAN, INC.                                1605
A1001400350000011297813BALACE, MELGAZAR HINOLA                                  0507
A1001400350000003867232MIRABUENO, RAYMUND BUSTAMANTE                            0502
A1001400350000000017165MEN DBU A&L MARKETING SOLUTIONS                          0501
B1301400470252486362001DOMINIC C. TAN                                           1603
A1301400760000004522683BAGUISA, KRISTINE GRACE CAYMO                            0501
B1301400760253056374001EDNA'S CAKELAND                                          1610
A0101406460000000182596**************                                           0502
B0101406460272036660001***********                                              1603
B0101406460272047405001ACEBUCHE, E DBU EL ACEBUCHE BUI                          1605
B0101406460272223738001CATHAY METAL CORPORATION                                 1603
B0101406620000011433144NEW YORK BAY PHILS., INC.                                1602
A0101406620273528230001MATURAN, SHARON AYUSTE                                   0501
A0101408660274516321001SERRANO, FRYDAI L.                                       0501
A0101400570000003891452LEGASPI, MELANIE SONON       JT                          0501
A0101400570000003891463LEGASPI, MELANIE SONON       JT                          0501
A0501400200000005751635PERDIDO JR., LEONARDO DIWATA OR                         10501
A0501400200000005751635FLORES, JOAN MAY                                        20500
A0501400200000005751782MISLANG, JANELY DELA CRUZ                                0501
A0501400200292532777001ROSE S. ESPINOZA                                         0501
A0801400160311057494001URETA, MARIA LUCETTE ASSIN DBU                           0501
A3401400280000003309180CAPUNONG, ROMULO DELCANO                                 0502
A0101405650000000448395ALIDO, GENEVE CORDERO                                    0501
B0101402060351009544001RI CHEMICAL CORPORATION                                  1606
A0101402060351080726001AGANA, ERLINDA MASAQUEL                                  0501
A0101402060000009179848MARTINEZ, MARIA ELENA SANTOS                             0501
A0101409050000000601432GARCIA, CHARLES PHILIP ISTURIS                          10502
A0101409050000000601432OR MA. JESSA RIC                                        20500
A0101409050000002333364ARAW, BELINDA SARFATI                                    0503
A0101409050000013110615BRANDEL, TOBIAS CHRISTOPH                                0501
A0101409050000013110739BESA, IANNA DRIA ESTONIDO                                0501
A0101409050000013110860SHAMMAH, ZANSHEVAR RIVERA                                0501
A0201400890376520766004NABOARDA, JULIET M                                       0501
A0101402930381207769002TANCHI JR., PETER HOWARD                                 0501
A0101408370000000335493DRS.CARYCE EMMA G. JURIDICO OR                          10503
A0101408370000000335493JOHN FELMORE A.JURIDICO                                 20500
A0101408370382416284001DR. BERNARDITA O. POLICARPIO OR                         10502
A0101408370382416284001DR. REUBEN D. POLICARPIO                                20500
A0101408790000005169182ABENES, LEA DEL ROSARIO                                  0501
B0101408790383032143001GLOBAL DOMINION FINANCING, INC                           1602
A0101408790383086597001BELTRAN, DANILO P. OR BELTRAN,                          10502
A0101408790383086597001GLORIA S.                                               20500
B0101408790383695043001SEAOIL PROPERTY INVESTMENT CORPORATION                   1602
B0101411660000012458361STA. MARIA, JOMAR PINEDA DBU J.P. S                      1602
B0101402770391009429001VALLEY GOLF & COUNTRY CLUB INC.                          1605
A0101402770391212339002CORAZON DIZON MADERAZO                                   0503
A0101402770000004849345ABIERA, GAUDENCIO GARCIA                                 0502
B0101405490392015934001AMERICAN WIRE & CABLE CO.,INC. MONT                      1601
B0101405490392039333001CLOSE TIES CORP.                                         1601
A0101408400000000078000ABORDO, AMELIA RIMAS                                     0501
A0101408400000003515119DUMAICOS, TRISTAN MALUNES                                0501
B0101408400000001258599PASAY ULTRASOUND AND PERINATAL SVC.                      1602
B0101408400394027797001BY THE YARD FABRIC CENTER                                1602
B0101408400394028560001NEW LIFE CHRISTIAN CENTER (THE FORT) INC                 1602
B0101408400394028560004NEW LIFE CHRISTIAN CENTER (THE FORT)                     1602
B0101408400000008699916NEW LIFE CHRISTIAN CENTER (THE FORT                      1602
A0101408400000001855381ABSA BUILDERS                                            0503
B0101408400000003120612GLOBAL LEADERS INTERNATIONAL SCHOOL                      1605
B0101408400394066082001THE JESUS FESTIVAL INC.                                  1602
A0101408400394507696001WEE, NORMAN VINCENT LEE                                  0502
A0101409180000011749707PEREZ, RIZA SANTOS                                       0501
A0301400820000002271956COMAINGKING, JESUS B.                                    0501
A5501400120410093333001RENDON, MARY LOTIS LADERA                                0501
B0101403030441021825001**********                                               1603
B0101403030000005944705ORIENT LLAMA EXPORT TRADING,INC.                         1603
A0101403030441241050001**********                                               0503
A0101403030441594340001**********                                               0501
B0101406330472015855001BANNER PLASTICARD INCORPORATED                           1601
A0101410140000000499134LANORIAS, JOVENNES DAVID                                 0502
A0101410140000009390883AGUSTIN, BERNADETTE SELORIO                              0501
B0501400170481018109004CSI WAREHOUSE CLUB INC.                                  1601
A0501400170481018109005CSI WAREHOUSE CLUB INC.                                  0501
B0501400170481025398003COSTSAVER'S SUPERMARKET, INC.                            1601
A0501400170481026761002CITY SUPERMARKET, INC.                                   0501
A0501400170481033355001GOLDEN TIES AND FOOD                                    10501
A0501400170481033355001RESOURCES INC.                                          20500
A0501400170481043466001RUSKIN MARKETING                                         0505
A1901400160000008297769CLEOFE, LOURDES PEREZ                                    0501
A1901400160491546773001IRENEA M ERLANO                                          0501
B1401400110000012900231VILLAVERDE, A DBU SJTENZEL HARDWARE                      1604
A1601400170000012471011DE VERA, JEZZALEN DIZON                                  0501
A0701400260000005303786RAMIREZ, ANELLE FORTUNO                                  0502
B0101407430000004491765OROS PRIME HOLDINGS CORP.                                1601
A0101407430503153283005NGO, PATRICK S.                                          0501
A0101408530000007304492SIMBULAN, DEBBIE DILOY                                   0501
A0101408530000013095120ARCENO, JULIUS DAIZ                                      0501
A0101403450521290313001**********                                               0501
A0101403450521478374007********                                                 0501
A0101403450521582387001**********                                               0501
B0101403610000001450880**********                                               1605
A0101403610000007124854ALVAREZ, ROMARICO TERCERO                                0503
A0101403610000006497905MANUEL, CECILIA BERNADETTE                              10506
A0101403610000006497905BAZARIO                                                 20500
A0101403610000012945325PILI, RUEL S DBU GIMAYA FOOD                            10501
A0101403610000012945325STOP OR PILI, GISELLA                                   20500
B0101403610000013074987UYBONTU CORPORATION                                      1601
B0101403610000013084798TOLLPAK MFG. CORPORATION                                 1601
B0101403610000006637114RD PAWNSHOP, INC.                                        1603
A2201400250000006275863CID, MYLYN M. OR CID, FERDINAND                         10501
A2201400250000006275863FRANCIS MARIA DE LEON                                   20500
A2201400250000010425435******                                                   0505
A2201400250561299317001MIRASOL M. SAN SEBASTIAN OR                             10502
A2201400250561299317001ALLAN M. SAN SEB                                        20500
A0101404130000005962230GEGANZO, RAYMOND SELIRIO                                 0501
A0101407720000004664313CINCO, JOSEPH ELEAZAR ABINGOSA                           0501
A0101407720602341473001VILLASOR, MA. TERESA GUSTILO                             0501
A0101407720602394399001CRUEL, ALDABELLE LABANEN                                 0502
A0101407720602396607002TENCHAVEZ, PAULINO SINGSON OR                           10503
A0101407720602396607002TENCHAVEZ, LUZVIMINDA                                   20500
A0101407720000007936312PALAFOX, SUZANNE KATRINA                                10502
A0101407720000007936312VILLANUEVA                                              20500
B0101404260611005239001AMIS PRINT ENT.                                          1602
A0101404260000001725639************                                             0503
A0101404260611335308002ALIMBOYONG, JOSEPHINE MAHINAY                            0503
B0101409890000000004542TAN, MARY OR TAN, FEDERICO OR                           11601
B0101409890000000004542TAN, MELODY TE                                          21600
A0101409890000003097994**********                                               0501
A0101407690000002348796VALLO, GEORGE PANGANIBAN                                 0501
A0101407690000000913757FALLER, DOMINIC DBU D' MINOR                            10505
A0101407690000000913757ORGAN MKTG & SER                                        20500
A0101407690652442595001ALEJANDRO, LIRIO OR ARIEL                                0501
A0101413990000006278113VARONA, HENRY ALABADO                                    0501
A0101413990000013114219VALLADORES, JENNIFER DELA PENA                           0501
A0101410300000004361580DELAS ALAS, MARTINA EILEEN                              10510
A0101410300000004361580HERNANDEZ                                               20500
A0101410300663793028001LIM, MA. RITA SABRINA G. OR                             10501
A0101410300663793028001LIM, GEORGE W.                                          20500
A1301400340000010467422********                                                 0501
A1301400340000000926927DELA CRUZ, RONNEL SANTIAGO                               0501
A1301400340683542735002BIUNAS, REMEDIOS GREGORIO                                0502
A1301400340683708672001CANO, ERLINDA PEREZ                                      0502
A1301400500684058869001YOUNG BUILDER'S TRADING                                  0502
A0101408240711383461001SANG, PAUL OR IRIS                                       0502
B0101408240711668496001GOLDENCOAST VENTURES INC.                                1601
B2801400230000005253601PERLA COMPANIA DE SEGUROS, INC.                          1601
A4101400260812427113001GRACE M. AMANDY                                          0501
A4101400550000000315171**********                                               0502
B4101400550815040996002MARICHE APARTELLE, INC                                   1601
A4101400550000006044651AAT COMPUTER SUPPLY                                      0502
A0101412340000003343575CRISTIAN BERNARD D. GENEROSO                             0501
A0101404840000000683574NELIA L. BABILA                                          0501
A0101404840000000683574NELIA L. BABILA                                          0501
A0101405070000011289133MONTEROLA, ROCEL SALLY CAMACHO                           0501
A0101405070861401501001ROLDAN, JOSEPHINE MARAVILLA                              0502
A0601400230000000029901PANGILINAN, RALPH JORGE BUNDALI                          0503
A0601400230000005185833DUMAN-AG, MERCEDES MANUEL                                0501
