F1901400290261039565001UGNAYAN SECURITY AGENCY, INC.                            2601CKR
F0201400210000004959500PRINCE RETAIL MERCHANDISING INC                          2650CK1
F1201400150421013432003BAGUIO MAHARLIKA MULTI-PURPOSE                          12603CKR
F1201400150421013432003COOP.                                                   22600CKR
F1201400280671045522001CORDILLERA COMMUNITY AND FAMILY AS                       2601CKO
