A0101412630000004062013**********                                               0502
A0101412630000002040584**********                                               0501
B0101400440000014228116FAC PHILIPPINES - FOREIGN ASSISTANCE                    11601
B0101400440000014228116CENTER INC.                                             21600
A0101400440161625470001KRISTINE A. CECILIA                                      0501
A1101400120000000652420MACATO, JUANCHO CUA                                      0502
A0101412630000004062133GIL B. SAMONTE                                           0501
B0101412630000015057111NOVASCAN INC.                                            1601
A1101400120000009119693ADELINE DARUNDAY                                         0501
B0301400950000000566990**********                                               1601
A1101400120313478374005MONTANA, BERNADETTE R.                                   0501
A1101400120000006186730MERCADER, LEDY ABONG                                     0501
A0101403610000015089913AGBON, DEAN ARVIN ABENIS                                 0501
B0101400860011390602001**********                                               1605
A0101400860011397246002**********                                               0503
B0101401250021040371001ENHANCE CARGO MOVERS CORP.                               1605
A0101401250021185179001CABRERA, ZENAIDA SANTOS                                  0501
B0101400150000007599231ACCUBOOKS INC.                                           1602
A0101400150061531842002**********                                               0501
A0101400150061761931001HIGDON, JOSEPH RAYMOND                                   0501
A0101400600000008914945********                                                 0502
A0101400600071057858001BESTA SHIPPING LINES, INC.                               0503
B0101400600071233729001**********                                               1601
A0101405810072377351002VILLAS, MARILOU RAMOS                                    0501
A0101405810072531616001**********                                               0505
A0601400100000011854114AURELIO,STEPHEN REYES,QUALILIFE                         10503
A0601400100000011854114MEDICAL & LYING-                                        20500
A0601400100081013400001SUNSHINE TOURS & TRAVEL AGENCY                           0505
A0601400520000001707051LIMON, REMEDIOS Y. OR                                   10501
A0601400520000001707051POLICARPIO, JUDY                                        20500
A0601400520000005943702IMPACT BALIBAGO ARTS AND CRAFTS                          0502
A0601400520000003187364ZAPATA, ANACURITA DIZON                                  0504
B0601400520084821100608**********                                               2001
B0601400520084821100608**********                                               2004
A0101413280000011809244CANICON, MAYLYN MAGCAMIT                                 0502
A0101414090000012424850ESTABILLO, JOSHUA SOLOMON                                0503
A0101406040000010081431********                                                 0501
A0101406040112209765001**********                                               0502
B0101401960121238769001**********                                               1602
B0101412630000000024040MONDAVI CONDOMINIUM CORPORATION                          1605
A0101412630000000045321*********                                                0502
A0101401830000012287764CABALAN JR., CASIANO BESTES                              0504
B0101401830141043121002ASIA DIRECT CONSOLIDATORS INC.                           1610
A0101401830000013257648MAGTALAS, LEE MARVIN BACTAD OR                          10502
A0101401830000013257648MAGTALAS,MARIA VERONICA                                 20500
A0101400440000013845473ROJAS, JOSE ELTON TERGA                                  0501
A0101400440161030637001AREMCI BUILDERS                                          0505
A0101400440161628804001DAVE ALEXIS M. FRAN                                      0501
A0101401090000015119554FAJARDO, ZAQUEO GUTIERREZ                                0501
A0301400530000002318561VILLANUEVA, FEDERICO MAGPAYO OR                         10501
A0301400530000002318561VILLANUEVA, MARI                                        20500
A0301400530193037469001SONRISE COOPERATIVE                                      0501
A0301400660000005691789**********                                               0502
A0301400950000010701149REYES, RINA MANZANO                                      0502
A0301400950000013857242ST. JB ENTERPRISE                                        0501
B0101410720653022858002FOODKING CUISINE & SERVICES INC                          1602
B0101410720653043060001METRO DRY CLEAN VENTURES, INC.                           1603
A0101410720653402452001JONE P. LIU CHIANG OR                                   10501
A0101410720653402452001LEO VILLAVERT                                           20500
A0101410720653586480001IGNACIO, MARICEL DIWATA                                  0501
B0101410720210764716001J.C.T. EZ LOAN CORPORATION                               1602
A0101412500000015114433LIMBAGA, NOEL NECESARIO                                  0501
A0101412500000015130428PALANCA, JOHN DALE SANCHEZ                               0501
A0101412500000015133490CAYETANO, THELDA ASERON                                  0501
B0101413600000005524863HIMLAYANG PILIPINO PLANS, INC.                           1610
B3101400450223025343001CAPUA ENTERPRISES                                        1601
A3101400450223577252001REYES, PAUL RAMOS                                        0502
A1001400350233405531001SEVILLA, CARLOS S.OR                                    10502
A1001400350233405531001SEVILLA, ISABELI                                        20500
B1301400760000000050773GG&G DISTRIBUTORS INC.                                   1610
B1301400760000000050871ENCORE LEASING & FINANCE CORP.                           1601
A1901400290261245655001EDEN ROSALES GUEVARA                                     0502
A0101401670000011364719DEINLA, JADE DEOCAMPO                                    0501
A0101401670271192058001CARMEN V. SEGOVIA OR JACQUELINE                         10506
A0101401670271192058001ANNE CHUA                                               20500
A0101406460000008890428***********                                              0501
A0101408660274512698001ANG, JENNICA Y.                                          0501
A0101410980000010894978GONZALES, MARIE JOY ANCHETA                             10502
A0101410980000010894978GONZALES, RICO                                          20500
A0101410980275771013001**********                                               0502
B0101412470000002338912PRESCON PHILIPPINES, INC.                                1602
A0101411240000000629436LLONILLO, MARY GRACE OR LOPEZ,                          10502
A0101411240000000629436ELAINE OR TAN, M                                        20500
A2601400270302752181001MARICEL B. ACOBA                                         0501
A0801400160000002286035************                                             0501
A1101400120000008001287CHU, DELFIN ONG                                          0501
B2001400290000007832462THE TIRE SHOP, INC.                                      1610
A2001400290315688009001ALGOPERA, LLOYD GARCIA                                   0504
A2901400130000009071701KAREN A. TOMOL                                           0501
A0101405650000000773002BIJE, JOSHUA HILARIO                                     0505
A0101405650000000525717TAMBUNTING, JOY MYRA SALVADOR                            0505
A0101402510341199103002********                                                 0503
A0101402510341203109002MARIA THERESA C. GONZALES                                0501
A0101409050000011558811REGIS, MARIEL GARRA                                      0502
A0101409050000014598402DALIGDIG, JASON BOURNE ANNIBAN                           0501
B0101409050352041357001COZY NAIL LOUNGE INC.                                    1605
A0201400760000009996156YU, GINA TECSON                                          0501
A0201400760374093398001YNCLINO, CHERRY TERESA RACAZA                            0501
A0201400890000005196403MUELLER, BRIGITTE CARMEL LAPASA                          0501
A0201400890000008415703MOORTHY, GANAEISAN SO M                                 10501
A0201400890000008415703THATSHINA                                               20500
A0201400890000014086581BORJA, GRAY-BOY P. OR BORJA,                            10502
A0201400890000014086581RIZALYN JOY G.                                          20500
B0201400890376039788008XAVIERA HEIGHTS REALTY CORPORATION                       1601
A0101408790000004983508MARIA CONCEPCION A. LUNA                                 0501
A0101415350000006731433NGAN, MICHAEL                                            0502
B0101415350000005028933DE DIOS, MA. REGINA G. DBU GRABENGO OR                  11603
B0101415350000005028933DE DIOS, ARIEL F                                        21600
A0101415350000007878300CHEN, TENNYSON GO                                        0501
A0101402770000001571386ANTONIA O. MANGAMPO                                      0501
A0101408400000001035476ODOYA, CONCHITA ESTACA                                   0502
A0101409180000009769215***                                                      0501
A0101409210000005252186DALANGIN, RAMIL LAURENTE                                 0501
B0101409210000000031250******                                                   1601
A0101409210000005252153NERIA, EILEEN JOY SANCHEZ                                0502
B0101412210000000031512WALL STREET ACCOUNTING AND BUSINESS                     11602
B0101412210000000031512SOLUTIONS INC.                                          21600
A0101412210000010434932BURGOS, JONATHAN ENANO                                   0503
A0901400220000006214386D' RANGER SECURITY AGENCY, INC.                          0502
A5101400100000010834216CARISMA, REBECCA SUSTIGUER DBU                           0503
A5101400100000010371278PAGAS, NELIA TECSON DBU N. PAGA                          0502
B0101403030000015133558**********                                               1601
A0101403030000000008933**********                                               0502
B0101403030441241050001**********                                               1602
B0101403030441382008001ZHU, MING HUA                                            1602
B0101403030441677350001**********                                               1603
A0101412890000012474032**********                                               0501
A0101403320000015133230MICHELLE L. CANTIGA                                      0501
A0101406330000000451341BANTOG, GUADA LYNN OR                                   10501
A0101406330000000451341BANTOG, MARK LAURENCIO                                  20500
A0101410140000012209584DELA ROSA, FELICISIMA EMELINE Y                          0502
B0701400260000000041130TREVOR ETON REALTY CORPORATION                           1602
A0101407430000015129018MOLINA, DODEE MACAPANAS                                  0501
B0101407430000011167525POWER CLEAN BLDG. CARE & GEN. SERVI                      1605
B0101403580000007864211MEC - PINES T2                                           1605
A0101403580511036648001R2C TRADING                                              0501
B0101405940000000002739********                                                 1601
A0101403450521238140001**********                                               0502
A2201400250000000017212CAROLINE ANN MARIE PAZ ARCILLA                           0502
A0101410690000005383495TAN, DENNIS LI                                           0502
B0101410690000006663654LULU-PHILS. INT'L. EXCHANGE, INC.                        1605
A0101407720000004664693VILLANUEVA, JEFFREY AGBULOS                              0501
A0101407720602162192001ADELIA A. LOPEZ OR                                      10501
A0101407720602162192001ANNA LISA L. GABRIEL                                    20500
A0101407720602398542002DR. ROBERT DENNIS J. GARCIA                              0502
A0101407720602398997002DE LEON, JENNIFER ROSLYN SISON                           0502
A0101407720602399815001ALEJANDRO, RUTH MARGARET                                10501
A0101407720602399815001FRANCISCO                                               20500
B01014077206024892100011stMARK GLOBAL MEDICAL SERVICES, INC                     1602
B0101412180603044261001GENESIS 8 ENTERPRISES                                    1602
B0101412180000000075329UNITED VENEER WOODWORKS 168 INCORPORATED                 1602
A0101404260000012984164DAVID, SHERMAINE SHAYE HIJADA                           10501
A0101404260000012984164OR DAVID, ELIAS FALLARME                                20500
A0101409920000007304623NAVARRETE, PRINCESS ENCABO                               0501
A0101409920000013391469CABRERA, JOMAR CASTANEDA                                 0501
A0101407690000015134299ESTRADA, BRYLLE ESCRANDA                                 0501
A0101411530000002260395SINGSON, ALLEN GACULA                                    0501
A0101411530000011326075**********                                               0501
A0101413570000014856063AQUINO, JUAN FERNANDO VALEZA                             0501
B0101406590000000905511MAINEVENT AND MARKETING CORP.                            1604
A0101410300663726452001SANTIAGO, ROMMEL MIRANDA                                 0501
A1301400210000009982289DE GUIA, ANNE ROSE RAMIREZ                               0501
A1301400340683478374051MARABINI N. CANTOR                                       0501
A1301400500684594759001ROLANDO R. VELASQUEZ OR                                 10501
A1301400500684594759001MERCEDITA V. VELASQUEZ                                  20500
A0101408240000010148040SANTILLAN, IMMANUEL ANTONIO GAB                          0501
A0101408240711323526001SHIRLEY A. MANESE OR MARIA                              10501
A0101408240711323526001ELENA M. ISAAC                                          20500
A2801400230000011730333JADE PLANTS AND ACCESSORIES                              0501
A4101400260000012869833VIRTUCIO, MIRACLE                                        0501
A4101400260000010623662BAYONA, ALVIN T. DBU ELCOSS                             10501
A4101400260000010623662ENTERPRISES                                             20500
A4101400260812352058001MATEO, REMIGIO LEONARDO                                  0501
A4101400260812478374055ARLENITA E. MORALITA                                     0501
A4101400390813017514001PRESTIGE AUTO CARE                                       0501
A4101400550000002091032ABRAHAM, GINU                                            0502
A0101412340000009501100SONG, BYUNG EON                                          0501
B0101406750852456290001**********                                               1602
A0101406750000001491841PULIDO, MARIA LUISA T. OR                               10501
A0101406750000001491841PULIDO, ROMEO J.                                        20500
A0101405070861027133001WORLDLINKS CABLE WORKS                                   0502
A0101405070861629632001GONZALES, NOLINA Q. OR GONZALES                         10501
A0101405070861629632001LOUIE                                                   20500
A0601400230000003015583HERNANDEZ, VILMA VALENCIA                                0507
