F0101401670271029054002HEALTHWEALTH INTERNATIONAL CORP.                         2615CKO
F0101400570281506759001EDUARDO ROMMEL S. POBLETE                                2503CKO
F4101400260000000002182CARLOS, MARIA CONCEPCION PATINO                          2501CKO
F4101400260000000469330DEPANO, ABEL GONZALES                                    2503CKO
