A0101411790518055815084PIAMONTE, MA. LAILANE LESLY                             10501
A0101411790518055815084ALVARADO                                                20500
A0101412630000000909735SANTIAGO, JENNYVIE ERIKA GOMEZ                           0501
A1901400290000001195142ESTEBAN ALDRIN HERNANDEZ BISA                           10501
A1901400290000001195142OR DONNA MARIE G ORILLA                                 20500
A0101409210000011535367TOMAS, MARVIN JAKE LUNA                                  0501
A0101410300000004361631TANBONLIONG, PATRICK JUSTIN OR                          10501
A0101410300000004361631TANBONLIONG, TER                                        20500
B3001400130000008264966PIPRIME CORPORATION-OZAMIS                               1610
B1901400290261047995001SPOUSE OF THE BLESSED VIRGIN                            11605
B1901400290261047995001HOSPITAL INC.                                           21600
A1901400290261298552105AIDA NABOS REYES                                         0501
A1101400120313478374116MASIN, NANCY KELISTE                                     0501
A6601400120314618108001ABAGON, DENNIS PELO                                      0501
A0101408400394159237002CABAMUNGAN, JOSEPHINE C.                                 0501
A5501400120410283898004GARCIA, JOSIE JAVELLANA                                  0502
A0101403610000012041944ASIS, ALDINO UBANA                                       0501
A0101410300000000919579LIM, ADRIAN FARINAS                                      0501
B0101410300000000191564FITNESSCAPE CREATIVE STUDIO, INC.                        1603
A0101400860011284810001**********                                               0505
A0101400860011520766001NUNEZ, SUSAN SANTIAGO                                    0501
A0101401250021179040001NORMA LANORIA VALEROSO                                   0503
B0101400150061010964001QUAYWEST HOLDINGS, INC.                                  1601
B0101400150061016862001CAGAYAN ELECTRIC POWER & LIGHT CO., INC.                 1603
A0101400150061314942001CORPUS, SALVADOR BAYOT OR                               10501
A0101400150061314942001CORPUS, MIA THERESA Q.                                  20500
A0101400150061777201002SANTOS, ALEXANDER ARAGON                                 0502
A0101400600071092538001CHAN, GIDEON DY OR                                      10510
A0101400600071092538001CHAN, JEANNE P.                                         20500
A0101400600071235421001********                                                 0501
A0601400100000010024914BOK, JANE DUE DBU MOGORA ASIAN                           0503
A0601400360000008460173ABLAZO, MICHELLE CABEBE OR                              10502
A0601400360000008460173ABLAZO, RODOLFO ABELARDO                                20500
A0601400360000000025629WARREN D. RAMOS                                          0502
A0101400730111683043001GUMATAY, WILBERT ALLAN GULINAO                           0501
A0101401960121370725001**********                                               0501
A0101412630000004062020CASTRONUEVO, SHARON CORTEZ                               0502
A0101401830000006269732MONIS,JOSEPH ARGUELLES                                   0502
B7201400170152067937001PAGADIAN JUNIOR COLLEGE (PJC), INC.                      1602
B0101400440161029988001PEOPLES CREDIT NETWORK FINANCE CO INC                    1601
B0101400440161032916001S.D. CUBILLAN CONSTRUCTION                               1601
B0101400440161037627001HOPE PHILIPPINES CHURCH, INC.                            1601
A0101400440161525001119NORA S. TALENTO                                          0501
A0101400440161525001139JEMARIE S. SALUDAR                                       0501
A0101400440161525001159MARITES P. MONTALBAN                                     0501
A0101407270000006555100TIUSECO, MARK RUSTIA                                    10501
A0101407270000006555100OR TIUSECO, MARYFLOR                                    20500
B0101407270162024200001IGROS MARKETING CORPORATION                              1602
A0101401090171199188001JOSE G. GALURA                                           0501
A0101401090171353282001VHON RUDOLF C. VILLACARLOS                               0503
B0301400790000000435727OUR BRIGHT SEEDS, INC.                                   1601
B0301400950000011415095BRILLANTES, DIMPLES DIANNE AND BARUIS,                  11601
B0301400950000011415095MICHAEL TERENCE                                         21600
A0301400950000002115231**********                                               0501
B0301400950000002115742LKT REALTY DEVELOPMENT CORPORATION                       1601
A0101401380201564133001NABLO, RODOLFO ORANTE                                    0501
A0101413020000003055381MALONG, CHARISE LASMARIAS                                0503
A3101400160000002355808DIANA N CARIAGA                                          0502
B3001400130000006004739SERVIAM MULTI-PURPOSE COOPERATIVE                        1605
A1001400350233653580001EVELYN OH OR EDWARD OH OR                               10502
A1001400350233653580001EDMUND OH                                               20500
A1301400760000005379462HENRI R. CAJUCOM                                         0501
A1901400290000006560090VIRGINIA S MACASAET OR                                  10502
A1901400290000006560090RICKY C MACASAET                                        20500
A1901400290261488341052PERLA I OLAVE                                            0501
B0101406460272017045001INFORMATICS COLLEGE-MANILA, INC                          1605
A0101406460272697228066YU, BENITO CHIN BU                                       0502
B0101406620273017284001ACCENT MICRO TECHNOLOGIES, INC.                          1605
B0101406620273034224002JDS CONSTRUCTION PHILS., INC.                            1602
B0101406620273349902001**********                                               1602
A0101406620273575453001*********                                               10501
A0101406620273575453001*********                                               20500
B0101400570281027866001MEDICAL EQUIPMENT HEALTH CARE GROUP                      1602
A0101400570281388539002LEONORA N. YNGENTE                                       0501
B0101411240283067418001AGRICOMFLEX TRADING                                      1601
A2601400270000000561733ARCEL A. CAPUCHINO OR                                   10501
A2601400270000000561733MA BIATA A. CAPUCHINO                                   20500
A6601400120000001370490GALIT, VERNIE GAZO DBU RVG                              10501
A6601400120000001370490DIGITAL PRINTING                                        20500
A2001400290000011355172SY, PAUL DENVER DE LOS SANTOS                            0501
B0101402350000007062860PRIMERA BIOSOLUTIONS INCORPORATED                        1601
A0101402510000011695033ORTEGA, DECELYNDA CABARDO                                0503
B0201400920375035545001GSG ARCHITECTS CO.                                       1601
A0201400920000002804480MIRANDA, SAMMY                                           0501
A0201400920000000047976MEMBERS OF NATASHA SHOECAT INC                          10504
A0201400920000000047976TUBIN, ELVIRA BO                                        20500
B0201400890376045790002*************                                            1603
B0101408790383042893001UNIBAG POLYSACK CORPORATION                              1603
A0101408790383698570001*****                                                    0501
B0101411660000000032242ALERT GENERAL SERVICES CORPORATION                       1608
B0101402770391032924001HARRIS MEMORIAL COLLEGE, INC                             1605
B0101402770391035790001NEWBIG FOUR J CONSTRUCTION INC.                          1604
A0101408400000007540003HERNANDEZ, AMANDA BEATRICE VENE                          0501
A0101408400394478374008EDUALINO, LEONORA OR                                    10501
A0101408400394478374008EDUALINO, EDGAR                                         20500
A0101408400394784228001CEPE, ELENOR LEBIOS                                      0501
A0101409210000012064532NAPIZA, JOCELYN RIVERA                                   0501
A0101409210398047601001LAMONTE, E DBU YOB AND ERIN                             10501
A0101409210398047601001GLASS ENTERPRISE                                        20500
A0301400820000008105662NICKY GUBOC                                              0501
A5501400120410670077001DOMINGO, SOLOMON SAPONGAY                                0502
B2401400180000000073663CENTURY PACIFIC FOOD, INC.                               1605
A2401400180000007031950LOPEZ, ALVIN DBU ALTEK COMPUTER                         10502
A2401400180000007031950SOLUTIONS AND LO                                        20500
A1201400150421253551001GONZALO, JULIETA PALOR                                   0502
B0901400220000000012211**********                                               1601
A0101406330472443761001MICHAEL RUDOLPH E. SERVITO                               0504
B0101410140000000038895NANOZ, DE LA CRUZ AND ASSOCIATES, C                      1601
B0101412760000002068037DOROTHY ANNE C. TORRES AND GERALD M.                    11601
B0101412760000002068037TORRES                                                  21600
B0101412760000000031990PRIVE PROPERTIES DEVELOPMENT INC.                        1601
A0501400170000004982265LIM, CELIA CHUA                                          0505
B0501400170481015879001TDG VEHICLE SALES DEPARTMENT                             1615
A1401400110000010622670PIAD, MILDRED FLORES                                     0501
A1401400110000003063414PARIL, RICO SANTANDER                                    0501
A1401400110000003475832RADONES, ARIEL SACRISTIA                                 0503
A1401400110492433218001MILLA, MAYNARD BUSTAMANTE                                0502
A0101403580511196754001CARMELITA E. LA O' JT                                    0503
A0101403580000003311720LOPEZ, GERRY ECLARINAL OR                               10501
A0101403580000003311720LOPEZ, JOCELYN PILI                                     20500
A0101403580511592154001ERLINDA L. BUCUD                                         0501
A0101408530516777084001HIDALGO, CARMELITA ROSAL                                 0502
A0101411790518090917001DELA CRUZ, RODERICK SANTOS                               0501
B0101403610531017603001LINBERR CONSTRUCTION AND DEVT.CORP.                      1602
A0101404130601382644001SIANDA, WINNIE LYNNE QUIRAO                              0501
A0101407720602316120001LUCIA CASTRO-FORES OR                                   10501
A0101407720602316120001MIGUEL EDGARDO FORES                                    20500
A0101407720602397743001NAZARETH, STEPHEN MAGSINO                                0503
A0101409920000001283410CHAVEZ, SARAH DBU SMC FURNITURE                          0505
A0101409920000000998569MEMBERS OF NATASHA (SHOECAT INC                         10501
A0101409920000000998569PEDROSA, JULIE                                          20500
A0101407690652525001067MAILA M. NACIN - DEALERS OF                             10501
A0101407690652525001067SHOECAT INC.                                            20500
A0101413570000005867430*******************                                      0501
A0101413570000003380009**********                                               0502
A0101413990000004511180CAPILOS, JELSON E. OR                                   10501
A0101413990000004511180CAPILOS, HYACINTH B.                                    20500
A0101414120000000398921MC DAGGLE'S CONSTRUCTION &                              10501
A0101414120000000398921TRADING                                                 20500
A0101414120000000398921MC DAGGLE'S CONSTRUCTION &                              10501
A0101414120000000398921TRADING                                                 20500
A0101414120000006005458JOHN RUZZEL TRUCKING                                     0505
A0101406590000005305231CASTILLO, CHERYL LOU ACUNA                               0501
A0101410300663790131001VALDEZ, JENNIFER ANN Z OR VALDE                         10502
A0101410300663790131001Z, PABLO BASILIO                                        20500
A1301400210000011696098GAVILAN, ANGELLICA MIRANDA                               0501
A1301400210682722987001******                                                   0502
B1301400340000006402502********                                                 1602
A1301400500000009723264BIO ERIXX PHARMA DISTRIBUTION                            0502
A0101408240000010148000VELASCO, MA. ANGELICA VAZQUEZ                            0501
A0101408240711383150001AURELIO III OR AURELIO JR.                              10501
A0101408240711383150001OR AARON LITONJUA                                       20500
A0101408240711432303002PADILLA, BERNADINE BALUYUT                               0501
B4101400260812043808001UPLIFT CAVITE HEAD OFFICE                                1610
A4101400260812343658001DRA. ARDITH B. DOMINGUEZ - TAN                           0504
A4101400420000004848073GUEVARRA, BALTAZAR BARTOLOME                             0501
A4101400420814630690001GONZAL, VILMA HERMOSO                                    0502
A4101400550000002091043RAMIREZ, CYNTHIA TAN                                     0503
A0101412340000003719180MICHAEL JOHN A. LAPORGA                                  0501
A0101404840000005396938DIMAUNAHAN, MAY TENORIO                                  0502
A0101404840851217637024LAURO M. CABANTOG                                        0502
A0101404840851520766067JOSEPHINE V. GABAYERON                                   0501
B0101405070861008182001MANILA CIGARS INCORPORATED                               1604
A0101405070861366707001ARELLANO, MA. ELENA BALLESTEROS                          0502
A0101405070000003439741ALARO, JHON REY PADURA                                   0501
B0601400230000000029894DREAMMAKERS PHILS CONSTRUCTION COMP                      1602
B0601400230000002649927MJ EXPRESS CREDIT INC.                                   1605
