F0101400570000000165677ROSEMARIE S. AGUILA                                      2502CKO
F0101406620273031795001FIRST VITA PLUS MARKETING CORPO                          2602CKR
F4101400390813030057001ACE-MED INC.                                             2610CKR
