B0101408950396821100608**********                                               2010
A0101406590000010434954RACHO, NOEL CASTILLO                                     0502
B0101400600071538520001*********                                                1605
A0101413730000002289461*                                                        0502
A0101412760000011574673MEMBERS OF NATASHA SHOECAT  INC                          0503
B0101400860011394967002**********                                               1605
B0101401250021006627002STA. CLARA PARISH CREDIT                                11601
B0101401250021006627002COOPERATIVE                                             21600
A0101400150061226426001TAKANORI FUJIMURA                                        0503
A0101400150061226426002FUJIMURA, TAKANORI M. OR                                10503
A0101400150061226426002HIROKO FUJIMURA                                         20500
A0101400150061226860001HSIEH, HO HSIANG                                         0501
A0101400150061227437001LENSON EDWIN LALAS                                       0501
A0101400150061228038001MANUEL C. CHAN                                           0501
A0101400150061458326001YUPANGCO, MARTIN KATIGBAK                                0501
A0101400600071233696001MANUEL TAN                                               0501
A0601400100081255031002JOEL, PETER L.                                           0502
B0101413730000006042422HI-TOP MERCHANDISING, INC.                               1601
B0101413730000000144636**********                                               1602
A0101400730000013389392PESTANO, MARIA ANGELA LOPEZ                              0501
A0101400730111278185002ARANDELA, MARY GRACE                                     0501
B0101401960121239381001****************                                         1601
B0101401830000000060022CARITAS SALVE CREDIT COOPERATIVE                        11603
B0101401830000000060022(CUBAO 011)                                             21600
A0101401830141444325004ROUTSON, ELIZA ATIENZA                                   0503
A7201400170000011454287OBAOB, MARIE FE MARAASIN                                 0501
A7201400170000012533130SY, ALAN TABARANZA OR                                   10501
A7201400170000012533130SY, GENELENE GIO                                        20500
A0101400440161080463001EMMANUEL S. FLORENDO II OR                              10501
A0101400440161080463001EMMANUEL C. FLOR                                        20500
A0101400440161093935001DUPAYA, NELIA ARELLANO                                   0501
A0101400440161520766125FELY TUBELLO                                             0501
A0101400440161670356001MA. ESTELA CLEOFE                                        0501
A0101407270000013665120VELASCO JR., L DBU TAWONG-LIPOD                          0501
A0101401090171198347001PAYURAN, ANGELINA FANG                                   0501
A0101401090171500760001ERIC B. ZERRUDO                                          0502
A0301400530000001409752URSUA, PRINCESS F.                                       0501
B0301400660194046395088DAVSAM LINK CORPORATION                                  1601
B0301400660000003368347**********                                               1603
B0301400660000003368381NEXT BPO SOLUTIONS, INC.                                 1603
B0301400660000003368381NEXT BPO SOLUTIONS, INC.                                 1602
A3101400160221675534001PIUS WESLEY F. QUIAMBAO                                  0501
A3101400870000014037662RAMIREZ, MARIZA FRIVALDO                                 0501
A3101400870000014037833MANZANO, MYLEEN GUILLERMO                                0501
A1001400190000000016457ANTIGA, LUNITA                                           0501
A1001400190000002170678GENTILES, KEVIN                                          0501
A1001400350233528399003KO, JOSE NELSON AND                                     10502
A1001400350233528399003KO, CHARMAINE                                           20500
A1001400480000002300441PIA, JULIETA DEJERO                                      0501
B0101406460272040465001SPORTFIT, INC.                                           1605
A0101406460272443397001**********                                               0501
B0101406620000003497256OMNI CAPITOL PRIME PROPERTIES CO.                        1601
B0101406620273795579001ANOTHER LANE GATEWAY (PHILIPPINES)                       1601
A0101408660274648585001* * * * * * * *                                          0501
B0101411820277048022001FORGEMS MARKETING COMPANY, INC.                          1610
A0101400570281303497001JOYCE ANN K. ANG OR PAUL RYAN                           10501
A0101400570281303497001T. DAGDAG                                               20500
B0801400160000001289932RD PAWNSHOP, INC. - ILOILO NORTH                         1603
B0801400160311043928001DELIFRANZ BACKEREI, INC.                                 1602
A6601400120314040857002MEDLINE DRUG & MEDICAL SUPPLY                            0502
A6601400120000009613685**********                                               0510
A6601400120000005710630DY, FREDERIC JAN TUBELLO                                 0502
B0101405650000000772721PREMIERE COMMUNITY PARTNERS, INC.                        1610
B0101405650000000013003CARISSA PROPERTIES SPECIALIST, INC.                      1605
A0101405650000009768023NORA CABATINGAN                                          0502
A0101402510000000200153LPR GRAPHIC DESIGNS                                      0501
A0101402510341087790001RONALD CALMA,FERDINAND CID, ANA                         10501
A0101402510341087790001MORELOS AND FERNANDINO FO                               20500
A0101402510341196525001CHONA G. ESPOSO                                          0502
A0101402510341196525001CHONA G. ESPOSO                                          0502
A0101402510341202722001SEPARO, PERLA PARILLA                                    0501
A0101402510341599962001TUBERA, MARIBEL COLLANTES                                0501
A0101402060351773032001FERRER, ROSE ELLAINE FIDELINO                            0501
B0201400760000000223087THE QUEEN CITY FOOD CHAIN, INC.                          1601
B0201400920000006433650CEBU HOLY INSTITUTE OF MARY INC.                         1603
A0201400920375478374008OLELA, DONATILLA OMELGO                                  0501
A0101402930000000623363KING, C DBU EASTERN CIRCLE                              10502
A0101402930000000623363HUMAN RESOUCE SERVICES                                  20500
A0101408370382597245001DR. NIKKOH P. MUNOZ                                      0503
B0101402770391032924001HARRIS MEMORIAL COLLEGE, INC                             1605
A0101402770391187974003DEE PONA, DARWIN ANTIPOLO                                0501
B0101405490392006541001GLOBALTECH AUTOMATION, INC.                              1602
A0101405490392472386001ESTHER E. BERNABE OR                                    10501
A0101405490392472386001JOSEPH G. BERNABE                                       20500
B0101405490392728198001AUTOMOBILICO INC.                                        1602
A0101408400000001855450EVANGELINE I. ALIGATO                                    0503
A0101408950000000776552FAVIA, WALBERTO DE BELEN                                 0502
A0101408950000002255370CHIA, CATHERINE ANNE TEO                                 0503
A0101408950396562301001DR. LEOPOLDO JOEL M. ZAPANTA                             0503
A0101408950396566973001SY, ALEJANDRO GARCIA OR                                 10505
A0101408950396566973001SY, BESSIE ISIDR                                        20500
A0101409180000003780632OMER SOFTIC                                              0501
A0101409210000001294571ORTIZ, TEODORO RICO BALACUIT                             0501
A5501400120000009875632ALOCADA, EDNA MIGUEL                                     0501
B5501400120000000003210BUILDEX HOME TALK                                        1601
B2401400180411033387008BIBIANA FARMS AND MILLS, INC.                            1605
A1201400150000002325093BANTING, MARITZIE MACAPAGAL                              0501
A1201400150421252660001HELEN L. WONG                                            0505
A5101400100000010834103CATERIAL, MERNA CECILIA MERCADO                          0501
A5101400100000010834169ALFONSO, FE ASELA BRIONES JT                             0503
A0101403030441239049001**********                                               0501
A0101412890000000125391TOTEX PAPER ENTERPRISES                                  0503
B0101410140000000038895NANOZ, DE LA CRUZ AND ASSOCIATES, C                      1601
A1901400160491422212001OLIVER B BORILLO OR                                     10503
A1901400160491422212001MARIBEL C BORILLO                                       20500
A1401400110000011179474********                                                 0502
A1601400170000000497354YOLANDA Y. CHAN                                          0501
B1601400170000009954523ARTISAN'S SPECIALTY COFFEE                               1601
B0701400260000000041130TREVOR ETON REALTY CORPORATION                           1602
B0101403580000002185399VILLALUZ, A DBU ANVIL ENTERPRISES                        1603
A0101411790000002275932MARIANO-CRUZ, MARIA ANTONIETTE                           0501
A0101411790000006543440CUETO, MARIA TERESA CASTILLO                             0503
B0101403450521011748001EUROTILES INDUSTRIAL CORP.                               1606
B0101403450521011975001**********                                               1602
B0101403450000002975611ENVIROCARE MGT. PRECISION, INC.                          1601
A0101403610531478374002GRAPE, IMELDA HANDOG                                     0501
B2201400250561026458001SDE (PHILIPPINES) CORPORATION                            1605
A0101404130000001173615KING, ARTHUR CELESTINO                                   0501
A0101412180000002296831MAULEON, JILDA ANNA MARIE BANEZ                          0501
B0101412180000000075410ECOLOGY VILLAGE III CONDOMINIUM                         11602
B0101412180000000075410CORPORATION                                             21600
A0101404260000013859904DELA CALZADA, RYAN ANDOY                                 0501
A0101409890000000437347LEE, LEANORE LIM                                         0501
A0101409920000005460771MEMBERS OF NATASHA, SHOECAT INC                         10501
A0101409920000005460771ALCANTARA, CORAZON                                      20500
B0101407690652045731001PHILIPPINE FEDERATION OF PRIVATE MEDICAL                11601
B0101407690652045731001PRACTITIONERS, I                                        21600
B0101407690652422144001MELENCIO MEDEL OR CORAZON MEDEL                          1603
A0101407690000002348865MANESE, MA. CHERRY MALABED                               0501
A0101411530000002260260EVARISTO, ELENITA P                                     10501
A0101411530000002260260OR EVARISTO, PERCIVAL A                                 20500
A0101413440000000702178DIVINAGRACIA, GIL E. OR CARMELA                         10501
A0101413440000000702178G. OR TIMOTHY JO                                        20500
A0101413440000002125600RCCG BUILDERS AND TRADING                                0502
A0101413990000006278124ENCINARES, ROVILYN RODRIGUEZ                             0502
B0101414120000007655356RIX INTEGRATED CO., INC.                                 1601
A0101414120000011765025G.S. REYES CONSTRUCTION                                  0501
A0101406590000005305093LLAMAS, TOMAS CORDERO                                    0501
A1301400210000003105000IGNACIO, IMELDA BUENAFLOR                                0501
A1301400210000011696481ORDILLO, DAISY BULURAN                                   0501
A1301400210000009982176DNR MEDICAL SUPPLIES                                     0502
B1301400340000005509786***********                                              1605
A1701400230000001786850CHINO EARL V. AGUINALDO                                  0502
A0101408240000012882463******                                                   0502
A0101408240711536525001CALABAZARON, JOYCE PAJATIN                               0501
A0101408240000002821923ISAAC, MA. ELENA MANESE OR                              10501
A0101408240000002821923MANESE, SHIRLEY ARZADON                                 20500
B2801400100712041114001DML SUBIC FREEPORT CORPORATION                           1602
A4101400260000009533713BAUTISTA, KHRISTINE CRISOSTOMO                           0501
A4101400260000013797932APOLINARIO, FERNANDO                                     0501
B4101400420000009391977SWINELAND INC                                            1602
A4101400420814478374193CONDE, EMMA D.                                           0501
A4101400550000006044424MEDIAVILLO, MARK CHRISTIAN AGUI                          0502
B4101400550815040996002MARICHE APARTELLE, INC                                   1601
B4101400550000006043972KS PRIME FINANCIAL CORP.                                 1603
A0101412340000003344432RAMIL E. MAISO                                           0502
B0101406750000000481003TOPLIS SOLUTIONS, INC                                    1601
A0601400230000003638926TUMANG, TEDDY CANLAS OR                                 10502
A0601400230000003638926TUMANG, FEBRUARY VELASCO                                20500
A0601400230000005185935SANKEM TRADING                                           0510
