B0601400360083821100608**********                                               2010
A0101409210000005251923TRIAS, AGNES DE JESUS                                    0502
A0101409210000004736107CASTILLO, JOIE ANNE DELA ROSA                            0501
A0101412920000011166680NOLASCO, MA CRISTINA RIVERA                              0501
A0101411240000001563446CO, EVELINA SY CEZAR OR                                 10502
A0101411240000001563446CO, ALFREDO P.                                          20500
A0101411240000005136414CO, ALFRED CHARLES SY CEZAR DBU                          0501
A0101400150061226156002JAMES J.K. HUNG OR                                      10501
A0101400150061226156002TAI-SHENG WHAN                                          20500
A0101400150000002902434CHENG JR., RICHARD SUNG SENG                             0501
A0101400150000001708287ENTERINA, LESTER BELTRAN                                 0501
A0301400950000005707126ACURAM, DAVIN ABARCA OR                                 10502
A0301400950000005707126ACURAM, AIRENE ABANES                                   20500
A0101402350321526808001LUCITA R. TARRAY                                         0502
A0101402060351217441014BALBIN, WARLITO                                          0501
A0101402060351687812001SOLER, MA. ASUNCION RAMIREZ                             10501
A0101402060351687812001ARELLANO                                                20500
A0101407720602162070003DR. CLEMENTE C. GATMAITAN JR.                           10501
A0101407720602162070003OR SUSAN L. ABAD                                        20500
A0101413570000012738831VALDEZ, YOLANDA DBU LZV                                 10502
A0101413570000012738831FOODOPHILE FOOD SERVICES                                20500
A0101404840851520766066CYNTHIA A HERMEDILLA                                     0501
B0101400860011024567001SUNGLOW ASIA INTERNATIONAL CORPORATION                   1602
A0101400860011419313002**********                                               0502
A0101400860011473146002*********                                                0504
A0101400860011554183001*********                                                0501
A0101400860011559995001**********                                               0503
A0101400860011653651001**********                                               0503
A0101400860011690030001**********                                               0501
A0101400860011775947001**********                                               0502
A0101401250021057023001BERNARDO, VICENTE DBU CLARION                           10503
A0101401250021057023001GENERAL MERCHANDISE, D'                                 20500
A0101401250000004980543BERNARDO, INIGO CALINGAY                                 0502
A0101400150000000807170FRAGANTE, SOCORRO PROTACIO                               0501
B0101400150061027086001MULTINATIONAL INVESTMENT BANCORPORATION                  1602
B0101400150061040558001CORDILLERA EXPLORATION CO., INC                          1601
A0101400150061236944140MAE S. VILLANUEVA                                        0501
A0101400150061697360002VINAS, MARC DANIEL CLAUDIO                               0501
B0101405810072361051003**********                                               1602
A0101405810072498919001**********                                               0502
A0601400100000009324130KWONG, CRISTINE JOY ANTONIO                              0503
B0601400360083037368002CLARK INVESTORS AND LOCATORS ASSOCIATION                11601
B0601400360083037368002(CILA)                                                  21600
A0101413280000000312643CARLOS R. ATAYDE OR                                     10501
A0101413280000000312643CARMEN M. ATAYDE                                        20500
B0101414090000007344603BLUEMAX TRADELINK  INC.                                  1602
B0101400730111007943001PHILS. DAILY INQUIRER INC. YIC BLD                       1601
B0101400730111007943003PHILIPPINE DAILY INQUIRER                                1601
B0101400730111007975001PHIL. DAILY INQUIRER, INC.                               1601
B0101400730000008477761I.C.A INSURANCE AND SURETY SERVICES                      1602
A0101400730111412858029MAHLEN R. REYES                                          0502
A0101401960121327963001**************                                           0501
A0101413150000001688593*******                                                  0501
B0101401830000000033570CARITAS SALVE CREDIT COOPERATIVE                        11603
B0101401830000000033570(MALABON)002                                            21600
B0101401830141039167012CARITAS SALVE CREDIT COOPERATIVE                         1602
A0101401830141540968001MARY ANN R. ARCANO                                       0503
B7201400170000011454378KURT WAYNE RICE AND CORN BUYER & TRADER                  1602
A7201400170000011454403RONULO, MARIBEL TAGO                                     0501
A5001400170000003324121CAVAN, MILAGROS MARTINEZ                                 0502
A5001400170000000213812TABILIRAN, ROCHE TUBIO OR                               10502
A5001400170000000213812TUBIO, TEMEVIS J                                        20500
A0101412920000008813430ACABADO, CYRIL ALTARES                                   0501
A0101407270162372187001MARIA CECILIA P. ARRIETA                                 0501
A0101401090000008940901ABOY, GEMMA VENERACION                                   0501
B0101401090171008577001MARQUETTE REALTY & DEVELOPMENT CORP                      1601
B0101401090171008577001MARQUETTE REALTY & DEVELOPMENT CORP                      1601
B0101401090171030100001THOMASIAN MULTI-PURPOSE EMPLOYEES                       11601
B0101401090171030100001COOPERATIVE                                             21600
A0101401090171195414001RAFAEL T. BAUTISTA OR                                   10501
A0101401090171195414001CRISANTA P. BAUT                                        20500
A0101401090171198366001JOSEPHINE BERNADETTE BENJAMIN                            0501
B0101401090171317198002PURUGGANAN, CHRISTOPHER DIMAANDAL                        1601
A0101401090171399340001CARMEN S. QUESADA                                        0501
A0301400530000012273277PUA, TOM UY                                              0503
A0301400530193694916001MAGALLANES, RICHARD A.                                   0502
A0301400530193697653001PACE, MELYN T. AND                                      10506
A0301400530193697653001EUGENIO, EMILIA                                         20500
A0301400950000002115151**********                                               0505
A0101401380000010190513YOON, KEUN SOO                                           0501
B0101401380201034271004LC BUILDERS AND DEVELOPERS, INC.                         1604
A0101413020000000038264FELICIANO, JASPER SUCGANG                                0502
A0101410720000000882793FALCON, EJAY LASAP                                       0501
A0101410720653498583001QUIAZON, PERPETUAL JUDEA PARAN                           0501
A0101410720653694384001SAMBRANO II, SANTIAGO GARCIA                             0501
B0101412500000000041727INDUSTRIAL CONTROLS SYSTEMS, INC.                        1601
A0101413600000005794698PETE NOGALIZA DBU CRECIENTE                             10501
A0101413600000005794698INTERNATIONAL MARKETING                                 20500
B3101400160221044142001PERFECT RAYS OUTSOURCING CORPORATION                     1602
A3101400870000013183643ABERGOS, HAZEL BATUSIN DBU AR-B                         10501
A3101400870000013183643I ABERGOS ENTERPRISES                                   20500
B3101400870000013199710ISHEATECH CONSTRUCTION CORPORATION                       1601
B3101400870000013199710ISHEATECH CONSTRUCTION CORPORATION                       1601
B3101400870000013213028EIGHT MEDIA ONLINE SOLUTIONS INC.                        1601
B1001400190000002170601CHRISTIAN SCHOOL FOR LIFE, INC.                          1601
B1001400190000002266691JAKOSALEM, VIRGILIO TORRALBA                            11603
B1001400190000002266691DBU VIPER MARKET                                        21600
B1001400190231276633001SIA, TOMAS &/OR ANNIE &/OR GINA                         11605
B1001400190231276633001&/OR HENRY                                              21600
A1001400480000010131685GARCIA, NOLI TRAVINA OR                                 10501
A1001400480000010131685GARCIA, DAHLY                                           20500
A1901400290000001975380HERNANDEZ, ALILY SAMSON DBU                             10501
A1901400290000001975380BAKE IT UP BAKING NEED                                  20500
A0101406620000005394943CHIONG, CATHERINE SANTOS                                 0501
B0101406620273021176001MERCURY SYSTEMS CORPORATION                              1601
B0101406620273036393001REYES, REYES & RIVERA-LUMIBAO LAW                       11603
B0101406620273036393001OFFICES                                                 21600
A0101406620273453375001ESCOTO, JOSIE ESCUREL OR                                10502
A0101406620273453375001ESCUREL, MARIA J                                        20500
B0101412470000002338883FUNDACION SANSO, INC.                                    1605
A0101400570000001681790ELIZABETH U. BLACKA                                      0501
A0101400570281188687001LORGENE A. MATA OR                                      10503
A0101400570281188687001CLARISSA MATA                                           20500
A0101400570281366194002DR. DINA M. PERALTA OR                                  10502
A0101400570281366194002DR. FRANCISCO PE                                        20500
A0101411240000005136447MERCADO, JEAN VILLACORTA                                 0501
A0801400160311066091001EXPI'S BALLOON MAGIC, PARTY NEE                         10503
A0801400160311066091001CATERING SERVICE                                        20500
A0801400160311478374070GENALYN M. BOTANERO                                      0501
A2001400290000000724914QUINES, MARIA ALAY                                       0501
B2001400290000007832382VENDANO, LIBERTY TINAYPAN                                1601
B2001400290000000020537LINK RI LOGISTICS INC.                                   1602
B2001400290315635844001********                                                 1601
A3401400280000003309322MARIZEN V. NOLASCO                                      10501
A3401400280000003309322DBU ZEN PHARMACY                                        20500
B0101402350321006431003OLIVAREZ REALTY CORP. (ASSOCIATION DUES)                 1605
B0101402350321006894003VITALEZ COMPOUND HOMEOWNERS ASSOCIATION                 11602
B0101402350321006894003INC.                                                    21600
B0101402350321037565001AREVA LAND, INC.                                         1602
A0101402350000005645172GARCIA, ELFLEDA MENDOZA                                  0501
A0101402060351009359001JIANDANI, SURESH G. OR                                  10501
A0101402060351009359001JIANDANI, KAVITA                                        20500
B0101402060351009401001PHIL. IRON CONSTRUCTION & MARINE WORKS,                 11605
B0101402060351009401001INC.                                                    21600
A0101402060351349598001MORANO, CATHERINE GUINTO                                 0501
B0201400760374044646001FORTY DEGREES CELSIUS INC.                               1602
B0201400760374055989001GOLDEN GREAT PEAK ENGLISH INC.                           1601
A0201400890376763623001**********                                               0502
B0101402930381009073001INTERLINK BUSINESS SOLUTIONS INC                         1602
B0101402930381022675002CEBU AIR, INC.                                           1606
A0101402930381080348001FERNANDEZ, ESMERALDA CASTRO                              0502
A0101408370000002264137CO, ANTONIO LIM                                          0505
A0101408370382034783001TMC - DEPARTMENT OF                                     10502
A0101408370382034783001ANESTHESIOLOGY                                          20500
A0101408370382336346001DR. MA. FAIDA R. REYES                                   0502
A0101408370382490482001DR. KRISINDA C. DIM-JAMORA                               0501
A0101408790000008651918MALAYA D. DEL ROSARIO                                    0501
A0101411660000002309553PLAN, CHRISTINE MONINA CRUZ                              0501
A0101402770391211308001*********                                                0504
A0101402770391211950001PETER LOYOLA                                             0505
A0101402770000001571120TANG, SHU WING                                           0501
A0101402770391529757008EMMANUEL D. JANIYA                                       0503
A0101405490000003178432MIRIAM D. PANO OR MELANIO B.                            10502
A0101405490000003178432PANO JR.                                                20500
A0101408400000004733762CLAUDIO, MYLENE MAGALIT                                  0501
A0101408400000001952883GABRIEL TAILORING AND GENERAL                           10501
A0101408400000001952883MERCHANDISE                                             20500
A0101408400394508088001WEE, FRANCIS AUGUSTUS LEE                                0502
A0101408400394547873001MERCADO, SOLEDAD MENDOZA                                 0502
A0101409180000011749752CAPIZ, PATRICK JESTY DOMINGO                             0503
A0101409210000005251843CHUA, MARIE BENILDA SIOJO                                0501
A0101412210000001236340GERARDO IGNACIO B. ONGKINGCO                             0502
B0301400820000000024940TRUMPH MOTORCYCLE CORPORATION                            1603
A5501400120000005492504CHANCO, JASON BECIOS                                     0502
B5501400120410043029001TUBURAN MOUNTAIN VIEW RESORT, INC                        1601
A5501400120000002348392DARAUG JR., RICARDO DELOS REYES                          0501
A5501400120410636179148CHIU, VALENTIN & JULIA EILEEN                           10501
A5501400120410636179148& CHRISTIAN & CH                                        20500
A0901400220000007072433**********                                               0501
A0101406330000004349731LATORRE, MARCIA ELVIRA DARADAL                           0501
A0101406330472206357001ROBERT ANG/YVETTE MONICA ANG/                           10503
A0101406330472206357001SHIRLEY ANG/MARK                                        20500
A0101410140000001074704LABORTE, BELEN GARCIA                                    0501
A0101410140000005945231SUNGA, JERILY TANGLAO                                    0503
B0501400170000013184106STAR CANDY MERCHANDISING                                 1601
A3801400170000011559892MENDOZA, LUCY DHEL DE GUZMAN                             0501
B1901400160491026197002OMEGA MANPOWER MANAGEMENT CORP.                          1602
B1401400110492041536001VIBRANT COMMUNICATIONS, INC.                             1601
A1401400110492391436002ELISES, FELIPE VILLAFLOR                                 0501
A1401400110492620230001DELOS SANTOS, ENRICO PEREZ                               0502
B0101407430000004491776LIGHT RAIL MANILA CORPORATION                            1601
A0101405940000001047381MIRANI, DIANA NARESH  JT                                 0502
B0101405940512031768002VAS REALTY CORPORATION                                   1602
B0101411400000004555824***                                                      1601
B0101411400000006560892THOMPSON, CELINA DE PEDRO DBU DENTAGEM                  11603
B0101411400000006560892DENTAL CLINICS                                          21600
A0101403450000001638075ACUNA, TERESITA CABRERA                                  0503
B0101403450521011614001COBANKIAT HARDWARE CO., INC.                             1601
B0101403450521019391001**********                                               1604
B0101403450521020418001**********                                               1605
B0101403450521035257001AUTUMN HILLS REALTY CORP.                                1602
B0101403450521088223001*********                                                1601
A0101403450521238076002**********                                               0501
A0101403450521240619001**********                                               0501
A0101403450521681989001*******                                                  0501
A0101403450521703439001***************                                          0501
A0101403450000001637921********                                                 0501
B0101403610531046549001BIG APPLE PLASTIC PACKAGING INC.                         1602
A0101403610531789285002HSIEH, JENNIFER CO                                       0502
B2201400250000000016920STAPLERS INC.                                            1601
A2201400250561478374062JENNIFER M. RAMOS                                       10501
A2201400250561478374062MEMBERS OF NATASHA                                      20500
A0101410690000000061834IQBAL, BERNADETTE G.                                     0502
B0101404130601100117001PHILIPPINE DAILY INQUIRER, INC.                          1601
B0101404130601555406001TALIFUEGO PROPERTIES, INC.                               1601
B0101407720602015076001TRANS WORLD TRADING COMPANY,                            11605
B0101407720602015076001INCORPORATED                                            21600
A0101407720602392414001LEUS, AURELIA GONZALES                                   0501
A0101407720602396498002CAPISTRANO, MA. EVELYN TORRES                            0501
A0101407720602396506003CABRERA, ESTELA ZAGALA                                   0501
A0101407720602658355001GAMBOA, ARVIN JOSEPH REYES                               0502
A0101412180000000259501CABEBE JR., BER DBU B. CABEBE                           10510
A0101412180000000259501ENGINEERING AND CONSULTIN                               20500
B0101404260611016324001KALAYAAN TALIPAPA CORPORATION                            1610
A0101407690000005198041CASTRO, JOSELITO QUETUA                                  0501
B0101407690000003767891IDESCO CONSTRUCTION AND DEVELOPMENT CORP                 1602
B0101407690000003767948BROWNFLY COMMERCIAL AND INDUSTRIAL                      11601
B0101407690000003767948SERVICES, INC.                                          21600
B0101407690000003767993AKINITO TRADING AND INDUSTRIAL SERVICES,                11601
B0101407690000003767993INC.                                                    21600
B0101407690652457728001AUDIOTRON ELECTRICAL INDUSTRIES CORP.                    1602
A0101407690652609264001DE JESUS, AUGUSTO OR JOSE MARIA                         10504
A0101407690652609264001OR MILA                                                 20500
A0101413440000004883018MEONADA, JOSE MARI ECHEVARRIA                            0501
A0101413570000005743791MATT LESTER N. MATEL                                     0502
A0101413570000009020028PEREZ, GRACEILL JUDYCERY MOJICA                          0502
B0101406590662008976001ABACUS BOOK AND CARD CORP.                               1602
A0101406590662307518003REYES, SYLVIA SANDEJAS                                   0502
A1301400210000000540823VILLAMOR P CRUZ                                          0505
A1301400210000011696101ROXAS, AGAPITO MEMPIN,                                   0501
A1301400210682246212001JADE REANTASO OR JENNY SANTIAGO                         10502
A1301400210682246212001OR OMAR JOHN REA                                        20500
A1301400210000002908945MANAHAN, EDILBERTO DELA PAZ                              0501
A1301400210682405530003MARITA Y. ESPIRITU                                       0501
B1301400340000006402273***********                                              1601
B0101408240711032925001PARENTS ASSOCIATION OF DE LA SALLE ZOBEL                 1601
B0101408240711032925002PARENTS ASSOCIATION OF DE LA SALLE                       1601
B0101408240711032925002PARENTS ASSOCIATION OF DE LA SALLE                       1601
B0101408240711032925018DLSZ (DE LA SALLE SANTIAGO ZOBEL SCHOOL)                11601
B0101408240711032925018PARENTS ASSOCIAT                                        21600
B0101408240711032925019***************                                          1601
B0101408240711032925020DLSZ (DE LA SALLE SANTIAGO ZOBEL SC                      1601
B0101408240711032925021DLSZ (DE LA SALLE SANTIAGO ZOBEL SCHOOL)                 1601
B0101408240711032925023DLSZ (DE LA SALLE SANTIAGO ZOBEL SCHOOL)                 1601
B0101408240711032925024DLSZ (DE LA SALLE SANTIAGO ZOBEL SCHOOL)                 1601
B0101408240000006414411BAYAN MUNA REALTY CORPORATION                            1603
A0101408240000002331204DE LEON, MIGUEL ROBERTO CASUGA                          10501
A0101408240000002331204OR YLAGAN, MARIA TERESA                                 20500
B0101408240711426139002EVER3 INC.                                               1601
A0101408240711590128001JUAN, LUZVIMINDA DOMINGO                                 0501
B4101400420814032471007JARO DEVELOPMENT CORPORATION - PRINZA                   11601
B4101400420814032471007(LIVESTOCK)                                             21600
A4101400420000008280535FRIAL, RICKY TITO QUITEVIS DBU                           0502
A0101412340000007305757EVELYN D. ALVAREZ                                        0501
A0101404840851478374115ERLINDA O. PRADO                                         0501
A0101406750000003393140FUENTEBELLA, JOCELYN PANGILINAN                          0501
A0101406750852478374098JOCELYN ARBOSO                                           0501
B0101405070861021191001SUZHOU DIMSUM CORP.                                      1602
A0101405070000006006188MANGULABNAN, LUISA PETRAS DBU T                          0502
