F0101404680651448537001ALLAN BUTCH T. FRANCISCO                                 2503CKO
F0101401120131367396002BARBARA ANNE C. MIGALLOS                                 2603CKO
F4101400260812033409001NEW DASMA GOLD BAKE INC.                                 2601CKO
F4101400260000000002160CAGUIAT, LEONOR CRISOLOGO                                2501CKO
