B0101401960121821100608**********                                               2005
A0101409210000000043810CAPICOY, MARIA FELICIA PASTOR                            0503
A0101406460272443397001**********                                               0501
A2001400290000000724890RAYMOND, PRISTINE MARTINEZ OR                           10501
A2001400290000000724890RAYMOND JR., JOH                                        20500
B0101406880000000027238TRUE ACCESS DISTRIBUTORS, INC.                           1601
A4101400420814418225001LOPEZ, ROSALINA OR                                      10502
A4101400420814418225001LOPEZ JR., RODRI                                        20500
A0101401250021185870001CATHERINE B. RELAMIDA OR                                10502
A0101401250021185870001IBARO B. RELAMIDA, JR.                                  20500
A0101400730111334903011SUSANA M. CATIIS                                         0501
A2001400290315728619001OLIVAR, FLORDELIZ TEMBLOR                                0501
A0101408950000003171304CONSTANTINO II, DANILO VILLANUE                          0501
A0101412890000001765562CRUZ, AMANDA OR FERDINAND OR                            10503
A0101412890000001765562BERNADETTE                                              20500
A0101406880513417808001DEALINO, FARRAH OR  JOSE MARI                           10501
A0101406880513417808001DEALINO, AIDA                                           20500
B0101400860011305536001**********                                               1601
A0101400860011399972002*********                                                0503
A0101400860011412769001**********                                               0506
A0101400860011449713001**********                                               0503
A0101400860011464161001**********                                               0505
A0101401250000000522461LAI, JOHN V. DBU HETALIA                                10502
A0101401250000000522461CONSTRUCTION AND DEVELOPM                               20500
A0101411370022774052001MARISSA M. RAMIREZ                                       0503
B0101400150061010814001TONE GUIDE PRESS, INC.                                   1604
A0101400600071719765001********                                                 0501
A0601400100081251939002ELIZARDO OR WILMA MARTINEZ                               0502
A0601400100081257461001CRUZ, MAGDALENA ESTERO OR                               10501
A0601400100081257461001PINE, KRISTINE G                                        20500
A0101413280092047618001JENELYN C. GALEON                                        0501
A0101400730111203514015GONZALES, KARLEEN B.                                     0503
A0101400730111408329001CLARITA LIM MARIANO                                      0502
A0101400730111445036001NARCISO, ANNA LYN MESINA                                 0502
B0101406040000000096633*********                                                1601
B0101401960121821200608**********                                               2002
B0101401830141019859001NIPPON WARE MANUFACTURING CORPORATION                    1602
B7201400170000003773626**********                                               1605
A0101400440000002035121RUBY R. BUGAY                                            0501
B0101400440000002846575COMMANDER SECURITY SERVICES, INC.                        1620
A0101400440161478374189CORAZON C. BOLA                                          0501
A0101400440161483348001CLAUDINE ROSE R. ETCUBANAS                               0502
A0101401090000001618639MA. LOURDES C. MEDINA OR                                10502
A0101401090000001618639CESAR A. MEDINA                                         20500
A0101401090171491755001OLIVIA C. GO                                             0502
A0301400790000000435881CHU, ROMEL SANCHEZ OR                                   10502
A0301400790000000435881HU SU. CHING YI                                         20500
A0301400790000001010619CABASAG, JEY R LAGONOY                                   0501
B0301400790000002301342MONTEVERDE II, GEORGE MENDEZ DBU GV & HH                11601
B0301400790000002301342MARKETING                                               21600
A0301400950000004455561ONTELING, JANELYN DEMUNA                                 0501
A0101401380201564133001NABLO, RODOLFO ORANTE                                    0501
A1001400190231520766110MAYOR, CARMELITA ANGCAY                                  0501
A1001400190000000124876JENNY CALDERON                                           0501
B1001400480000003357817LINAAC JR., CECILIO GRANADA DBU LINAAC                  11602
B1001400480000003357817TRUCKING SERVICE                                        21600
A0101401670271392207002**********                                               0501
B0101406460272039853001GOLDLAND PROPERTIES AND DEVELOPMENT                      1605
A0101406620273072069001LEANO, DEVI PESSUMAL                                     0502
A0101406620273492790001RODRIGUEZ, PABLO MATEMATICO OR                          10502
A0101406620273492790001RODRIGUEZ, JENNI                                        20500
B0801400160000001290022ORANGE ISLAND INCORPORATED                               1601
B0801400160311271206001WESTERN LAMP & ELECTRICAL SUPPLY                         1604
A0801400160000002681729MA. FE M. FACTO                                          0503
A0801400160311478374103INAYAN, MERLINDA GUARDAMANO                              0501
A6601400120314415183002UY, CHRISTIAN EMMANUEL WAN                               0501
A6601400120314668441002MASLOC, SHERRY AMOR GALONO                               0501
A0101402350000003880524STA MARIA, EVELYN CRUZ                                   0501
A0101402510000006356910PASTRANA, RONALD MANAL                                   0501
B0201400890376060362001SOFTOUCH PROPERTY DEVELOPMENT CORP.                      1601
A0201400890376745254001BUYSER, IAN CHRISTOPHER COLETO                           0501
A0101408370000003357162STEPHANIE ARBOLEDA                                       0501
A0101408790383549402001*****                                                    0501
A0101402770391211308001*********                                                0506
A0101402770391353811001GARY P. HERNANDEZ OR                                    10502
A0101402770391353811001EZEL S. HERNANDEZ                                       20500
B0101405490392039342001COMBINED ELECTRO-MECHANICAL SUPPLY, INC.                 1610
A0101405490392514069001RAUL E. DE LEON OR                                      10501
A0101405490392514069001CAROLINA G. DE L                                        20500
A0101408400000000960452BERNARTE, RALPH ANTHONY ASTETE                           0501
A0101408400000003515108LESABA, MARIBEL SEVA                                     0501
A0101408400000002921002LAUREAN PLANTS & FLOWERS SHOP                            0501
A0101408400000002921002LAUREAN PLANTS & FLOWERS SHOP                            0501
A0101408400394397357001CLAUDIO, JOHN FITZ JERALD SANCH                          0501
A0101408400394554618001GAVINO, BENILDA TABORA                                   0501
A0101408400394743505001MARIA CAMILLE J ELIZALDE                                 0501
A0101408950396593362001DR. ROWENA EJERCITO DE JESUS                             0505
A0101409180000003310323PANGILINAN, CHARISSE CRUZ                                0501
B0101409210000005252222ONG,DOROTHY OR CHUA,DORIS OR SEN,DAHLIA                 11605
B0101409210000005252222OR LEDESMA,DIANE                                        21600
B2401400180411044274001******************                                       1601
B2401400180411085914001FILMIX CONCRETE INDUSTRIES, INC.                         1610
A2401400180411275790003MALCAMPO, DIOSIE AGUIRRE                                 0501
A2401400180411478374069JUBAN, MARIVIC BABA                                      0501
A2401400180411658464001FRUTO, RUTH GENAYAS                                      0501
A0901400220432478374001LEONARD GO LOZADA                                        0501
A0101410140475478374010PELAEZ, BEATRIZ GUEVARRA                                 0501
A0101412760000000208660GENALIN F. SASUMAN                                       0505
B1901400160491012917001ALPS THE BUS INC.                                        1610
A1901400160491362863002REX G HONRADE OR                                        10501
A1901400160491362863002LIWAYWAY D HONRADE                                      20500
A1601400170000001360689ALBERT S. ALEGRE                                         0501
A0101406880513573272001******                                                   0503
A0101408110000001165822SO, MARY GRACE BUENAVENTURA                              0502
A0101408530000002980534DELA PENA, JONATHAN MARCO LAZCA                          0501
B0101408530516033225001KONECT COMPANY                                           1601
A0101411790518055815135SINARIMBO, SITTIE RAHIEMA                               10501
A0101411790518055815135GUIAMLOD                                                20500
B0101403450000000135613AGILE GLOBAL FORWARDING, INC.                            1602
A0101403450521238268001**********                                               0502
A0101404000551166600005EVELYN SORONGON                                          0501
A0101404000551166600005EVELYN SORONGON                                          0501
A2201400250000004404960RJ MANALANG CAR CARE CENTER                              0501
A2201400250561433066001MIGNONETTE B. BAUTISTA                                   0501
A0101410690000001284333TANG, WEI                                                0505
B0101404130601019213002CORONA REALTY AND DEVELOPMENT CORP.                      1605
A0101407720602316120001LUCIA CASTRO-FORES OR                                   10502
A0101407720602316120001MIGUEL EDGARDO F                                        20500
B0101404260611035660001BETERAVIA CREDIT CORPORATION                             1603
A0101404260611457970001MORATO, MERCY PAQUERA                                    0501
A0101404260611478374136ZENAIDA P. SINGUEO                                       0501
A0101409920000001951993PANGILINAN, CAROLINE B. OR                              10503
A0101409920000001951993PANGILINAN, MARIA KARIZ B                               20500
A0101406590662035265001******                                                   0502
A0101410300000005237623VALDEZ, PABLO BASILIO BUSTAMANT                          0502
A1301400340000002158476ALIPIO, ALMA DELOS SANTOS DBU                           10501
A1301400340000002158476ALIPIO GARMENTS                                         20500
A1301400340683245916001GARCIA, CRISTINA GALLEGO                                 0501
A1301400340683387803001ESGUERRA, DANILO MEDRANO OR                             10504
A1301400340683387803001ESGUERRA, ANGELITA                                      20500
A1301400500000005963131DIMAANO, NENITA DE LAZO                                  0502
A0101408240000002397351CANIZARES, CHERISH ZAFRA OR                             10501
A0101408240000002397351TUPAZ, MARTIN ANTHONY                                   20500
A0101408240000002822062TY, ANNETTE SO                                           0502
A0101408240000000521771CASTILLO, JUAN MIGUEL DOMINGO                           10501
A0101408240000000521771JT                                                      20500
A2801400230000001734709CUSTODIO, JAMEEL DBU JACUDIBI                           10503
A2801400230000001734709BUSINESS SOLUTIO                                        20500
A4101400390000000975128MADLANGBAYAN, GELLIE PRESA AND                          10501
A4101400390000000975128CATAMISAN, RESTI                                        20500
A4101400390813248327001SARIEGO, DANILO BAGONA                                   0501
A4101400420000002084631MANICIO, MARIA ARMI ORTEGA                               0501
A4101400420000003715597DUMA, RAQUEL BIALA                                       0501
A4101400420814478374144JOCELYN TALANA                                           0501
A4101400420814559384001RIBOT, NORMA GAJE                                        0501
A0101412340000001017805JIMENEZ, ANGELICA KRISTINE V.                            0501
A0101404840000001312725GUERRERO, EDELMARIE BOBIS                                0501
A0101404840851520766162JANET H. ESTORES                                         0501
B0101406750852040242002MANUELA CORPORATION                                      1610
A0101406750852084318001SIBUG, GENEATH P. OR                                    10502
A0101406750852084318001SIBUG, ERNESTO M                                        20500
A0101406750852478374096MARILOU M TERANA                                         0502
A0101406750852520766001EHINA, PIEDAD VELASCO                                    0501
A0601400230000003638857DIZON, ELIZABETH OLARTE                                  0501
