B0101407430503821100608**********                                               2050
B0101412210399821100608**********                                               2003
A0101401250021478374001BAGTAS, JOSEPHINE P.                                     0501
B0101413730104821100608**********                                               2002
A1901400290000011794531LATINA, RAYAN II SUAREZ                                  0504
A0801400160311478374102MA. CECILIA A. AVANCENA                                  0501
A0101402350321654142001LUZMINDA C. BASAY                                        0501
A0101415350000007878008LASCANO, JOEL STA. ANA                                   0502
B2401400180411035164001MOMMY GINA TUNA RESOURCES (MGTR), INC.                   1605
A0101407720602398589001IMELDA CABRAL-VILLAR OR                                 10502
A0101407720602398589001ROLANDO VILLAR                                          20500
A0101400860000005312856**********                                               0501
A0101400860000007087110CHAN, RICKY BARBOSA OR SAMONTE,                         10501
A0101400860000007087110GINA PASARIN                                            20500
A0101400860011423672001*****                                                    0503
A0101400860011559995001**********                                               0505
A0101400150000008307099TIROL, ANNETTE YVETTE WASSMER                            0503
B0101400150061039626002MENZI & CO., INC.                                        1602
B0101400150061057491001REBELSTUDIOS INC                                         1601
A0101400150061231807001REGINA C. BUENAVENTURA                                   0501
A0101400150061280536001GRINO JR., ONOFRE T.                                     0503
B01014001500617415240011 ESPANA APARTMENT INC.                                  1608
B0101400600071684249001******                                                   1602
A0101405810072292366002ONG, DAVID CO                                            0501
A0601400100000012799909PAMINTUAN, LOVELY UGALDE                                 0501
A0601400100081752586001DINSAY, LOIDA GURNOTE                                    0501
A0101413730000008263930***                                                      0501
A0101414090000011597672GONZALES, MICHELLE ANNE BALUYUT                          0503
B0101410850000015815600ANGELOGISTICS COMPANY LIMITED                            1601
B0101410850000003503751ONE OPTI MARKETING, INC.                                 1610
B0101410560000000757240BEATRIZ BALTAZAR & LETICIA GARBILES                     11601
B0101410560000000757240& CORAZON FELIX                                         21600
A0101401960000004419830**********                                               0501
A0101413150000013434032*****                                                    0505
A0101413310000004626820CONCEPCION,ISABELLA OR TERESITA                         10501
A0101413310000004626820OR MICHAEL OR ANTHONY                                   20500
A0101400440000014296529BALAJADIA, ERLINDA MANIEGO                               0502
A0101400440000014296741EDGARDO F. DERECHO                                       0503
A0101407270000014296978CONANAN, TERESITA DE VERA                                0502
A0101407270162465291003JEFFREY R. JETURIAN                                      0505
A0101401090000015815582LIGON, JONA MINETTE ESTACIO                              0501
A0101401090000005320507JUSAY, JOSE SINFOROSO URBANO                             0501
A0101401090000015531321MANUEL, LEONILA MALUBAY                                  0501
B0101401380201018537001VELUZAR(PASAY) INC.                                      1601
A0101413600000000206711*******                                                  0501
A0101413600000010758882CHERYMAY L. LIM                                          0501
A0101413600000005794643EFREN A. BALINAS DBU FREDEME                            10502
A0101413600000005794643GENERAL MERCHANDISE                                     20500
B3101400160221010057002C AND H ENTERPRISES                                      1602
A3101400160000014696474VALDEZ, DARIEN NEPOMUCENO                                0501
A3101400450000015661631ALCANTARA, JOHN ALLEN ESPIRITU                           0501
A1001400190000002266628ABEJUELA, RAMON JAVIER                                   0501
A1001400190231520766036ONIPA, JANE ROSE P                                       0501
A1001400350000004095243FRANCISCO, TIFANNY DELA CRUZ                             0501
B1001400350000002048324GRAND CITY HOTELS, INC.                                  1603
B1301400470000013689917CAB-DEL PAINT CENTER                                     1601
B1301400470000003270157L5 & SONS FINANCING CORP.                                1610
A1901400290000003252622AEREEN CORTIGUERRA REYES                                 0501
B1901400290261033408001FEEDS EDITION DISTRIBUTION SYSTEMS INC.                  1610
A1901400290261478374031REALYN MARASIGAN CUENCA                                  0501
B0101401670271007088002A E & E'S DEVELOPMENT CORPORATION                        1603
B0101401670271034697001ROPER CONSTRUCTION CORPORATION                           1605
B0101401670000004588490H.S. POW CONSTRUCTION AND DEVELOPMENT                   11604
B0101401670000004588490CORPORATION                                             21600
B0101401670271706669001OOOZE INC.                                               1601
A0101406620000004926110GONZAGA, NELSON LIM                                      0501
A0101406620000014258410MARK JOAR V. VILLACENTINO                                0501
A0101410980000006014493YEUNG, MARIBETH PO                                       0502
A0101400570281043192001NEW YORK GEAR FOOTWEAR HAUS                              0501
B0101400570000005666402AUDIO AUTOMATION AUTHORITY INC.                          1602
B0801400160000001289909EMERALD'GREEN TRAVEL & TOURS CORP.                       1601
A6601400120314042058007CHEERS TRADING                                           0505
A2001400290000011355018DEQUITO, KOLEEN DISTRITO                                 0501
A2001400290000004889956MARIUS C.C. ONGCOG DBU RAMAR                            10503
A2001400290000004889956TICKETING SERVIC                                        20500
B0101405650322034381001FUDMAN CANTEEN                                           1602
A0101405650322170702003ADAN, ANTONIO D. OR                                     10501
A0101405650322170702003ADAN, GRACE CASTANEDA                                   20500
A0101405650322181690002HORLADOR, ADORA MANGAYA                                  0501
A0101405650322412858003PATATAG, HERMINIA SALAMERO                               0501
B0101402060351018216001RGC EMPLOYEES SAVINGS & LOAN ASSOCIATION                11601
B0101402060351018216001INC.                                                    21600
A0201400920375034984002CITY LIGHT ELECTRONICS SERVICE                           0505
A0201401020000010983549ABAD, NOEL GALVAN DBU WELL-WELL                          0505
A0101402930010120000379VILLANUEVA, ESTHER TUPARAN                               0502
B0101402930000003179582GERNALIN, E DBU UNIMAN CONSTRUC                          1605
A0101402930381094233001ROCHA, MANUELA GUARDIANO OR                             10501
A0101402930381094233001ROCHA, JOSE MARIA                                       20500
A0101408370382473958001DR. MARIANNA S. SIOSON OR                               10501
A0101408370382473958001PAOLO ENRIQUE S. SIOSON                                 20500
A0101408370000000586038QUINIO, IRENE BALLICAS                                   0501
A0101408790000000579740DEAN FRANCIS ALFAR                                       0502
A0101408790000013824523JANG, KICHUL                                             0502
B0101408790383047276001SYSCO DEVELOPMENT CORPORATION                            1601
B0101408790000002658991SOUTHWEST GAS TRADING INC.                               1602
A0101411660000005324323DUAVIT, MICHAEL JOHN ROY                                 0501
A0101411660000005324323DUAVIT, MICHAEL JOHN ROY                                 0501
A0101415350000005028831DE CHAVEZ, MEDARDO DBU MERDEC                           10502
A0101415350000005028831ENTERPRISE                                              20500
A0101408400394042747001CHARIS GLASSBLOWING PRODUCT                              0502
A0101408400000000607732CABRALES, EMMIE BELMONTE                                 0501
A0101408950000004512105LUIS JR., LOLITO RODRIGUEZ                               0502
A0101408950000014190713YUPINGKUN, LESTER CHINGTOCO                              0501
B0101412210000010833640IT'S TIME FOR TIMS COFFEE INC.                           1610
B0301400820409091735055LIMA, WINDELL BRISTOL DBU DAVAO HOME                    11601
B0301400820409091735055BUILDERS CENTER                                         21600
A2401400180411044483001OUR LADY OF PERPETUAL HELP                              10502
A2401400180411044483001PARISH                                                  20500
A2401400180000002146334OMAY, Z DBU CRIZA ENTERPRISES                            0502
A2401400180411478374050****************                                         0502
B0901400220000006214295**********                                               1602
B0901400220000000012175FLORIVEL M. DE JESUS ACCOUNTING OFFICE                   1602
A0901400220432731076001JAMANDRE, EMBE ARAGON                                    0501
B0101403030441527683001**********                                               1602
B0101403030441748420001**********                                               1602
B0101403320471008879002GOLDWIN MANUFACTURING                                   11610
B0101403320471008879002LABORATORIES                                            21600
A0101410140000012678645GONZALES, RELLIE SANTOS                                  0501
A0101410140000001074908MEMBERS OF NATASHA (SHOECAT INC                         10501
A0101410140000001074908PENA, DINA Y.                                           20500
A0101412760000011574651CORTEZ, MARLIN MARARAC DBU PF 1                          0501
B0501400170481018109002CSI WAREHOUSE CLUB INC.                                  1602
B0501400170481025398002COSTSAVER'S SUPERMARKET, INC.                            1602
A0501400170481033355001GOLDEN TIES AND FOOD                                    10502
A0501400170481033355001RESOURCES INC.                                          20500
A0501400170481297225002TACIANA M CAYABYAB                                       0502
B1401400110492042503001LUCENA ROOFWARE TRADING & SERVICES                       1601
B1401400110492044975001RAQUEL PAWNSHOP, INC                                     1603
A1401400110492403388002ENVASE, EDELYN RAMOS                                     0501
A0101407430503333427004AIDA G. FAUSTINO                                         0501
A0101407430503736499001CECILIA R. NALAUNAN                                      0502
A0101405940512403282001ROBERTO L AMARA JR OR                                   10501
A0101405940512403282001MA CHRISTINA P A                                        20500
B0101408530516032240001BEL-AIR VILLAGE ASSOCIATION, INC.                        1605
A0101408530000001268526DAVID, ENRIQUE                                           0501
B0101412050000007801621LOCTEK ERGONOMIC PHILIPPINES CORP.                       1601
A0101403450521389380001**********                                               0501
A0101403450521678458001*********                                                0502
A2201400250000010425300PAYUYAO, BOJINI SOLIMAN OR                              10502
A2201400250000010425300PAYUYAO, HERMINIA LOPEZ                                 20500
A0101404130601310589001ANCKERMANN, CARLOS OR                                   10502
A0101404130601310589001CARMEN ANCKERMAN                                        20500
A0101407720000006028360TANG, EDWIN CABUG                                        0501
A0101407720602397746003NOLIDO, ANNA MARIE SAGE                                  0503
A0101407720602397975001MARIA THERESA R. DE LEON M.D.                            0503
A0101407720602455271001SARROSA, DONNA MARIE LEELIN OR                          10501
A0101407720602455271001SARROSA, EDWARD                                         20500
B0101412180603046946001JBROQUEZA "JB" TOY BALLOONS & PARTY                     11603
B0101412180603046946001NEEDS                                                   21600
A0101412180603752998001ESPINOSA, CECILIA COSME                                  0501
B0101404260611005448001GUADALUPE CATHOLIC SCHOOL                                1605
A0101404260611045966001FRONDOZO TRADING                                         0501
A0101404260611150845002MASANGKAY, MARTIN OR MATILDE                             0503
A0101409890649044793001**********                                               0501
A0101409920650478374019ESCALONA, NELLY ODIAMAR                                  0502
A0101407690000010774720*********                                                0505
B0101407690652042938001SIGNWOOD HARDWARE & LUMBER SUPPLY                        1603
A0101407690652319667001TANTAMCO, RAMON NICOLAS                                  0510
A0101407690652520766005GILNNA M. MALIGAT - DEALERS OF                          10501
A0101407690652520766005SHOECAT INC.                                            20500
A0101407690652520766022ELVIE GALENDEZ - DEALERS OF                             10501
A0101407690652520766022SHOECAT INC.                                            20500
A0101413990000015811380REYES, AARON LEMUEL CRUZ                                 0501
A0101413990000015806154CHUA, MA. CECILIA ANG DBU                               10501
A0101413990000015806154CHE HAULING SERVICES                                    20500
B0101414120000000399184CANTILEVER CONSTRUCTION CORPORATION                      1602
B0101414120000004603398WEBLEND INC.                                             1601
A0101414120000012536173*****                                                    0502
A0101406590000002277552DE GUZMAN, AMELITA TANGLAO                               0501
B1301400210682040563001ACTISERVE CORP.                                          1605
A1701400230000004469672ALCID, GRACE LIM                                         0502
A1701400230000012227433CORPUZ, IMELDA                                           0502
A0101408240000002821832MENORCA, MA. CRISTINA MARTIN                             0501
B0101408240000002419996**********                                               1602
A2801400230000011504424BAYSA, GERALDINE URBANO                                  0501
B2801400230000005253561PRAGMATIC DEVELOPMENT & CONSTRUCTION                    11610
B2801400230000005253561CORP.                                                   21600
A4101400260000011417804ONDA, CHARLES CAIBIGAN                                   0503
A4101400260000015814663ALAFRIZ, IRENE CAMILLE GALICIA                           0501
A4101400260000015814943BITONG, SHERRYL BAYLE                                    0501
A4101400260000015815013SABIAN, JENIFER SIOSON                                   0501
B4101400260812681389001MARIVIC B AGUIBIADOR OR DAVID B CHARLTON                 1603
A4101400390813333041001MARIO C. GENUINO JR.                                     0501
A4101400390813442190001ASMA, RODELYN MERIADO OR                                10502
A4101400390813442190001ASMA, ROLDAN PAR                                        20500
A4101400420814422280001DELGADO, ELVIRA CARIENENA                                0502
A4101400420814758362001LACSA, ROSA SIMBALLA                                     0501
A4101400550000000981900UMENGAN JR., FELICISIMO BATOON                           0503
B4101400550000000900036BACOOR DOCTORS MEDICAL CENTER INC.                       1603
B0101404840000006365397TOPWAY HAULING SERVICES CO.                              1603
A0101404840000010224505Ricalde, Mary Ann A.                                     0501
A0101413860000011796311FERNANDEZ, MARY JANE NECESITO D                          0505
A0601400230000014299659MUNOZ, MYLIN SANTOS                                      0501
