B0101406620273821100608**********                                               2010
B0101414700353821100608**********                                               2002
A0101405650000000772947JAVILLONAR, MILAGROS CASTRO                              0501
A0101405650322172164002AQUINO, CHRISTIAN CASTRO                                 0502
A0601400520000002085850ALBROS CARGO                                             0501
A0101405650322028641001FROM THE KITCHEN OF LIZ                                  0501
B0101410690600046848001PEER MOTORTEK SALES CORPORATION                          1603
B0101410690000001284395ALDANA, MA. ELENA M. DBU PANSOL TRADING                  1603
A0101414120000001751333BALDAGO, MELECIO MAESTRE                                 0501
A0101414120000000875889PIC-VAI CONSTRUCTION                                     0502
A0101414120000000875834GCI TRANSPORT                                            0504
A0101414120000004603121FLYRYNE TRAVEL AND TOURS                                 0501
A4101400260000001673452VELUZ, RONALD VILLANUEVA                                 0501
A0101400860011387017002**********                                               0505
A0101400860000001005321**********                                               0502
A0101400860011675338001**********                                               0505
B0101400150061010600001SUAVIS INCORPORATED                                      1612
A0101400150061227290001EBALDE, MA. VICTORIA QUIAEM                              0501
A0101400150061489254001BENSON, JANE                                             0501
B0101400600000001335637**********                                               1602
A0101400600071637368001********                                                 0505
B0101405810072034021001ACCUFORM FABRICATION INC.                                1601
A0101405810000001021172PUA, C DBU MCK SCHOOL & OFFICE                          10503
A0101405810000001021172SUPPLIES                                                20500
B0601400100081044923001PERT REALTY CORPORATION                                  1605
B0601400360000000978936THE MEDICAL CITY CLARK, INC.                             1610
A0601400520000003187302ALMERIA, ALDWIN EVANGELISTA                              0502
B0101410560000000020355YUMANG, AMOR VERGARA OR DAGUIO, MELARITA                11602
B0101410560000000020355LA TORRE                                                21600
A0101400730000001822828CUEVAS, ERANO GUINTO                                     0502
B0101400730000001216324TRIPLE A SECURITY AGENCY, INC.                           1601
A0101400730111478374112STO DOMINGO, CONSTANCIA                                 10501
A0101400730111478374112CHARLENE                                                20500
B0101413150000000082773**********                                               1601
A0101412630000000801621LIBREA JR., ENRICO MAURICE S.                            0501
A0101401830000004835161VELORIA, MARK JOHN REFORMA                               0501
A0101401830141526215001DE LOS REYES, THELMA REMOS                               0501
A0101401830141685185001ALAMA, WILMA MANUBA                                      0502
A7201400170000002791273BULORON, MADILYN LAGAHUYA                                0501
A0101400440000002249652MACOLOR, LINA AGANAN                                     0501
A0101400440161520766098JUDITH D. BRISO                                          0501
B0101407270162038101001BIRDS INTERNATIONAL, INC.                                1603
A0101401090171309681002FRANCIS MARIE A. PURINO                                 10502
A0101401090171309681002OR STEPHANIE C. ANDRES                                  20500
A0301400530000000065832PERIAS, FE                                               0501
A0301400660000000194785REVILLA, CRISOLOGO ALPIS                                 0501
B0301400790000002301342MONTEVERDE II, GEORGE MENDEZ DBU GV & HH                11601
B0301400790000002301342MARKETING                                               21600
A0101401380000001412606CAIRME, GINA BAGSIK                                      0501
B3101400740224041181001SHIN HEUNG ELECTRO-DIGITAL INC.                          1603
A1001400190231379927001*****                                                    0505
A1001400350233272028001MAANDIG, ERLINDA B. OR                                  10503
A1001400350233272028001MAANDIG, CARLSTO                                        20500
A1301400760000001295483LRCAPON TRUCKING SERVICES                                0503
B0101401670000000178512MANA ASIAN SENSATIONAL SPA CO.                           1601
A0101406620273380720001LATI, RUFINO SANTIAGO OR                                10502
A0101406620273380720001LATI, EMELYN L.                                         20500
A0101411820000001356474GENALYN ELE ASUNCION                                     0502
B0101412470000000949577LIVAN TRADE CORPORATION                                  1602
A0101400570281340990001JOSEFA A. PALANCA OR JOSEPHINE                          10504
A0101400570281340990001P. RAFER                                                20500
A0101400570281501253001ROLAND DOMINIC G. JAMORA                                 0502
A0101400570000003891521YU, LESTER CO                                            0502
A0101411240000000629141PANTALEON, ANNA ROCIO DONATO                             0502
A6601400120000004440793CATARMAN SCHOOLWORKZ                                     0501
A6601400120314385521001PASAG, DR. CLIFF OR                                     10502
A6601400120314385521001PASAG, DRA. MARI                                        20500
A6601400120314612855001SUNDAY LAVIN JR OR IRIANA LAVIN                          0505
A0101405650000000448599SIMBULAN, DENNIS DE LEON                                10502
A0101405650000000448599OR SIMBULAN, KARLA                                      20500
A0101405650000000526032EVANGELISTA, JOSELITO Q.                                10501
A0101405650000000526032or EVANGELISTA, ROMELINDA                               20500
B0101402510341008564001SAN BEDA COLLEGE ALUMNI ASSOCIATION                      1602
B0101402060351015147001PAN EUROPE EXPORT                                        1601
B0101402060351023796001CREATIF FOIRE PRO, INC.                                  1610
A0101409050352645570003MYRNA P. CUASAY                                          0501
B0201400760374032843001ALLMIX TRADING, INC.                                     1601
A0201400920375478374015GAYO, LOURDES O.                                         0502
A0201400890000000973519EMERALD BUILDERS                                         0501
A0101402930000003710461RAQUIZA, DIORICO PACLA-ON DBU H                          0504
A0101402930381206550002MARIETTA A. PANALIGAN                                    0503
A0101402930381352790001ROGELIO G. SIQUIAN JR.                                   0505
A0101408370382237007001DR. NENITA C. CRUZ OR                                   10505
A0101408370382237007001RODOLFO A. CRUZ                                         20500
A0101408790000001486284RONDILLOS, JENNELYN CASTILLON                            0501
B0101411660384821100608**********                                               2005
B0101402770391032924001HARRIS MEMORIAL COLLEGE, INC                             1605
A0101408400394429737002MAMBUAY, NAIMAH MINANGA                                  0502
A0101408400394472279001BASTIDA, DAVID BALLON                                    0501
A0101408950396166135001ERIC P. HERNANDEZ OR                                    10505
A0101408950396166135001MARIANNE P. HERNANDEZ                                   20500
A0101408950396559428001HERNANDEZ, MARIANNE PEREZ OR                            10505
A0101408950396559428001PEREZ, MA. MARGARITA                                    20500
A0101409210000001294311MACABUHAY,CHIARA LOURDES BARRON                          0501
A0301400820000001554763DICO, ELSA OR GEMINA, VANESSA                            0501
A2401400180000002146287BAUTISTA, WEDELIZA DIOQUINO                              0501
A2401400180411501589001VALILA, NOL S. OR VALILA, MA.                           10501
A2401400180411501589001LOURDES D.                                              20500
A2401400180411555962001SILVA, VIOLETA P. OR                                    10502
A2401400180411555962001SILVA, MARCELINO                                        20500
A2401400180411625087001QUILLOPO, ANABELLE BREZO                                 0501
A1201400150421039385001JL'S CLEAN UP JANITORIAL &                              10502
A1201400150421039385001MANPOWER SERVICE                                        20500
A1201400150421257595001BADUA, ANGELITA U.                                       0501
A0101403030441303194001**********                                               0505
A0101403320471212175001CABALDE, EDNA SIMON OR                                  10501
A0101403320471212175001ERNESTO CABALDE                                         20500
A0101403320471478374016SONIA SALANIO                                            0501
A0101412760000001399584VILLANUEVA,DBU RNV'S EVENTUALLY                         10502
A0101412760000001399584YOURS EVENTS MANAGEMENT                                 20500
B0501400170481013098001MOTORPLAZA INCORPORATED                                  1603
A1901400160491494343001RAINIER C UNTALAN OR                                    10504
A1901400160491494343001RELYN M UNTALAN                                         20500
A1901400160491522606002AUREA C JAVIER                                           0502
B1401400110000003988912TAN, ROLLY                                               1601
A1601400170000000497592MARLYN A. RELINGADO                                      0501
A0101407430503736499001CECILIA P. REVAREZ                                       0501
A0101405940512368190002AMANDA BEATRICE V. HERNANDEZ OR                         10501
A0101405940512368190002BERNICE V. TANTIATSU                                    20500
A0101405940512481887001LEONILA P. ANDAL                                         0501
B0101403450521011604001CROWN ASIA COMPOUNDERS CORP.                             1602
B0101403450521011670001**********                                               1602
B0101403450000002975622CROWN ASIA CHEMICALS CORPORATION                         1610
B0101403450521628709001FU, AINSLEY JAMES AYROSO                                 1601
A0101404000000003707293PELAYO, HAROLD JOHN                                      0501
B2201400250000000016913ABRAHM CHASE CORPORATION                                 1601
A2201400250561359017003ALVIN D. LUGUE                                           0502
A0101407720602382023001VICENTE FRANCISCO R. HIZON OR                           10501
A0101407720602382023001MARIETTA CRISTINA HIZON                                 20500
A0101407720602396415001DR. SONIA E. BONGALA                                     0505
A0101412180000000501540GO, ANA BLANCA YAP                                       0501
B0101404260611016324001KALAYAAN TALIPAPA CORPORATION                            1620
A0101404260611778918001GARCIA, NATHANIEL CRUDA                                  0503
A0101409920000000523700CHOA, SORAYA ANG                                         0501
A0101407690000000914038******                                                   0502
A0101407690652034806001BROWNFLY COMMERCIAL                                      0504
A0101407690000000154783DIZON, JOLLY DBU STARLIGHT                              10504
A0101407690000000154783TRUCKING                                                20500
A0101407690652478374128LOIDA M. MAYOLA - DEALERS OF                            10502
A0101407690652478374128SHOECAT INC.                                            20500
A0101407690000000053881********                                                 0503
A0101406590662209401001ALMA OR JOSEPH OR                                       10501
A0101406590662209401001ANNE MARIE DE BORJA                                     20500
B1301400210682248659001ASIANLAND STRATEGIES CORPORATION                         1605
B1301400340000000981977HIGH FLAME GAS CORPORATION                               1601
A1301400500000002063963NICOLAS, JAY JOSEPH GARCIA                               0502
A1301400500684772140001ISABEL S. AZURIN                                         0501
A0101408240711399428001JOSELITO OR ROSEMARIE RAFAEL                             0501
A0101408240711744209001RAFAEL, JOSE JAVIER PAY OR                              10502
A0101408240711744209001RAFAEL, ROSEMARIE                                       20500
A2801400100712320516001CLEMENTS, ANTHONY ALLEN                                  0501
A4101400260812469791001CAROL E. COMIA                                           0501
A4101400260812469791001CAROL E. COMIA                                           0501
B4101400390813027260001PHILS-JEON GARMENTS, INC.                                1604
A4101400390813775566002TUAZON, MARIO CALDERON                                   0502
A4101400550000000900332FABIAN, APRIL JOY BORRES                                 0501
A4101400550815557725001VALDEZCO, EDWIN BACANI                                   0502
A0101404840851478374066ELSA A. ACLAN                                            0501
A0101405070861478374004WINIEFRENDA O. PILANDE                                   0503
