A2201400250000000016942AMELIA F. MANALO                                         0501
A0101407690000000025174MADRIAGA, LUZMINDA CAMINA                                0501
A0101408820000000027352********                                                 0502
A2401400180000000073538GABAYERON, RINADEL DELOS SANTOS                          0501
A0101411790000000134125********                                                 0501
A0101400310000000141084ROMERONA, EFREN DBU BRUMIN MARK                          0501
A0301400660000000194730DEL FIERRO, J DBU  BWD CONST. N                          0502
A4101400550000000199371PAMATMAT, MERLINDA BANAS                                 0501
A0101403580000000383755JIMENEZ, DENNISE SALVADOR                                0501
A0101414120000000398870JAY CRISTOPHER DELA CRUZ                                 0501
A0101408530000000489823MARIE ARVI T. ALIAS                                      0501
A0101410140000000499032V-COPY DUPLICATOR SERVICES AND                           0502
A4101400390000000500610DE ROXAS, RONALD UMANDAL                                 0502
A0101403580000000509415**********                                               0502
A0701400260000000670724RABANG, EDWARD FRANCIS ABILAY                            0501
A0101414120000000875441BYT TRADING                                              0502
A0101414120000000875685DELA CRUZ, LEO BANAREZ                                   0502
A0101414120000000875856AZERI INDUSTRIAL SALES                                   0502
A0101407690000000913837LUCITA T. PASCUA                                         0503
A0101407430000001028773ELAINE S. CANLAS                                         0501
A0501400170000001032222VALENCERINA, ROEL CANTO                                  0501
A0101402640000001054222BONA CRUZ, MARICEL FUENTES                               0501
A0101410140000001074657CRUZ, CHERILEEN REYES                                    0501
A0101401830000001139997VIOLAGO, MA. MERCEDES MENDOZA                            0501
A0101412500000001147039VALENCIA, MARK PAME AGAPITO                              0501
A0301400950000001379648**********                                               0501
A0101402640000001536603REYES, ROMEL RAMOS                                       0502
A0101414120000001642586TIBOR, FERNANDO EMBALADO                                 0501
A0101400570000001681858GO, ROBERTO ONG                                          0504
A0601400230000001687192MIRANDA, CHERYLL CELSO                                   0501
A0101413150000001688617******                                                   0510
A0601400520000001706850ALVARO, MYRA SANTOS                                      0501
A0101404260000001725344NOGALES, RAQUEL                                          0501
A0101412890000001765437MARTINEZ, NOEMI BORDA                                    0501
A0101412890000001765448QUILLANO, EDWARD MIRANDA                                 0501
A3101400160000001792190MIRAFLOR M CARINGAL                                      0501
A0101413860000001886924EQUIO, MARIVEL DUMAYAS                                   0502
A1101400120000001920496ADONIS, LILIAN TOLIBAS                                   0501
A0101408400000001952894CORTEZ, FAIRYSSA BIANCA VIAJE                            0501
A0101400150000002395111WEE, MILAREY MAQUILING                                   0501
A0101401700041020988001MIKE'S BIKES CENTER                                      0501
A0101401700041192370001******                                                   0506
A0101401700041193436002CORAZON C. LOBENDINO                                     0505
A0101400150061230071003MICHIO IWAI                                              0505
A0101400150061531871001MAANO, OLIVER ALVIAR                                     0501
A0601400100081374646001PAULE, BERNICE DELA CRUZ                                 0501
A0601400100081469857001KAHUNAKUNZ INC.                                          0502
A0601400360083550544001MERCADO, LUCITO BLAY                                     0503
A0101401960121396302001**********                                               0502
A0101401960121414572001**********                                               0502
A0101400440161039572094BALLADARES, GINA BOCATOT                                 0502
A0101401090171202255003NARCISA N. TABIRARA                                      0502
A0101401090171791624001MARIBEL B. GARCIA                                        0502
A0101400310211386982001********                                                 0503
A0101407140213191589002**********                                               0505
A6601400120314703798001UY, MICHAEL CHUA                                         0501
A6601400120314722170001MANANSALA, JUDELLA TORRES                                0502
A2001400290315688009001ALGOPERA, LLOYD GARCIA                                   0504
A0101408820333042004001********                                                 0502
A0101402510341196524001ORENSE, MARIA LIZA MARISTELA                             0501
A0101402640361345491003MANUGUID, MARCELINO ORTIZ                                0501
A0101408370382391723002FRITZIE C. CHUA                                          0501
A1201400150421027554001R.A.J. CE CONSTRUCTION                                   0510
A1201400150421329809001LAVARIAS, BENEDICT POLIG                                 0501
A0501400170481025944001A-1 JANITORIAL SERVICES                                  0505
A1901400160491562857001JVICTOR MARKETING CORPORATION                            0508
A0101407430503184785001PATRICIA Q. AUSTRIA                                      0502
A0101407430503278586004ANTOLIN M. SOSA JR.                                      0510
A0101403580511005219001ENRIQUE T. CALAYAG                                       0501
A0101408530516571877137AL SEVERO ONGSIAPCO                                      0501
A0101404260611478374017BERTULANO, LUZVIMINDA                                    0501
A0101404420631259468002LORELEI LATEO CAMACHO                                    0502
A0101407690652376195001DIDELES, JOSEFINA BALINGIT                               0501
A0101407690652564294003GALVEZ, NERISA RIVERA                                    0503
A0101406590662207517002CASINO, ROSITA M.                                        0501
A0101410300663743154001BULAHAN, MARGARITA MARQUEZ                               0502
A0101411950680478374004CARLETA, REBECCA CARPIO                                  0501
A1301400210682040042001EDUARD ALLAN TRADING                                     0501
A1301400500684686003001GULA, ELLEN EMELIA                                       0502
A0101407560686478374062ELISA L. PETILO                                          0501
A0101408240711226916002FONG, NOREEN CARRILLO                                    0501
A0101408240711488775001TAN-YU, ANITA SY                                         0501
A4101400260812460928001FELINA S. ANTANG                                         0501
A0601400230891083893001**********                                               0501
A0601400230891087243001**********                                               0502
A0101407690000000053870SABIO, JENNIFER DBU STARKEN                             10501
A0101411370000000903622JOSEPHINE R. BRACAMONTE OR                              10501
A0101409920000000998650MEMBERS OF NATASHA (SHOECAT INC                         10501
A0101414120000001142852TERESITA M. PUYAT OR MARY ANN                           10505
A0101409050000001662426PEFIANCO, FRA DBU DRAGON EMPIRE                         10501
A0301400790000001776138ESCAMIS, JOSE PACLAR DBU                                10502
A0101409920000001951880MEMBERS OF NATASHA (SHOECAT INC                         10501
A0601400100081424085002ALAPAG, JASMINDA BRIONES OR                             10502
A0101401830141762818001MORLA, CRESENCIO TOMINES OR                             10501
A0101401090171198594001ESTRELLA QUILENDRINO OR ROGELIO                         10503
A3101400160221533265001DR. ROMAN C. SY QUI  OR                                 10505
A3001400130230757981001SACAY, RENE CANTOR OR SACAY,                            10504
A1001400350233539784001ANITA U. ROLIDA OR                                      10502
A0101400570281443866001ANA MARIA S. POHANG OR                                  10502
A2001400290315644867001SY, BENSON GO                                           10501
A0101408370382503035001DR. MARIA ROSELLEE BAYONA OR                            10502
A0101405490392170122001LEONIDES A. SANTOS OR                                   10501
A0101403580511152926001MARIO T. MANANGHAYA OR                                  10503
A0101407720602700944001ABELA, NADINE GUYTINGCO OR                              10502
A0101407690652478374131TARROQUIN, NORA - DEALERS OF                            10501
A0101404840851419256001INTOD, DELFINA SAMONTE OR                               10502
A0101407690000000053870STEEL INDUSTRIES                                        20500
A0101411370000000903622CARLITO E. BRACAMONTE                                   20500
A0101409920000000998650PALEJO, JACQUELINE                                      20500
A0101414120000001142852MAGNO                                                   20500
A0101409050000001662426CONSTRUCTION                                            20500
A0301400790000001776138ESCAMIS BUILDERS                                        20500
A0101409920000001951880DEJUCOS, PURITA C.                                      20500
A0601400100081424085002SARMIENTO, FE SANTOS                                    20500
A0101401830141762818001MORLA, FRANCISCA CUARESMA                               20500
A0101401090171198594001MENDIOLA OR C. BERNAS                                   20500
A3101400160221533265001MRS. EVELYN SY QUI                                      20500
A3001400130230757981001JOSEPHINE SIMBIT                                        20500
A1001400350233539784001FRANCISCO L. ROLIDA                                     20500
A0101400570281443866001KATRINA S. MARTINEZ                                     20500
A2001400290315644867001SY, MARGIE TERES                                        20500
A0101408370382503035001ROBERTO BAYONA                                          20500
A0101405490392170122001CONCHITA R. SANT                                        20500
A0101403580511152926001REMEDIOS C. MANANGHAYA                                  20500
A0101407720602700944001ABELA JR., BENJAMIN                                     20500
A0101407690652478374131SHOECAT, INC.                                           20500
A0101404840851419256001INTOD, ALGREG MO                                        20500
B0201400920000000007952GDS SECURITY AND DETECTIVE AGENCY                        1601
B0101401830000000033570CARITAS SALVE CREDIT COOPERATIVE                         1602
B0101400150000000052662PEG SOUTH EAST ASIA, INC.                                1610
B0101406750000000090731MEMPHIS TRUCKING CORP.                                   1602
B0101412890000000125380CHRIST'S COMMISSION FOUNDATION, INC                      1601
B0101413860000000145275CON-PAC WAREHOUSING INCORPORATED                         1601
B0101414120000000399111LINMER PHARMA INCORPORATED                               1603
B0301400790000000435750AGSUR IMPEX CORPORATION                                  1605
B01014077200000008856011CONNECT INTERNATIONAL INC.                              1602
B0101414120000001984234CAT'S EYE KING INTERNATIONAL INC.                        1602
B0101400150061009628002EASTMAN INSURANCE AGENCY, INC.                           1601
B0101400150061047820001TOYAMA INC.                                              1602
B0601400100081044308001CRYSTAL LIQUID PHILS. INC - PORAC BRANCH                 1603
B0101407270162021675001TACTICAL PROMOTIONS, INC.                                1610
B0101407270162034693001INFINITE MEDICAL TRADING                                 1602
B3101400450223040460001CREATIVE AUDIO VISUAL SOLUTIONS,INC                      1601
B0101408820333021833001PTFC REDEVELOPMENT CORPORATION                           1605
B0101402640361018911001BULLS PAPER PRODUCTS INC.                                1601
B0101402640361044394001METRO NORTH MEDICAL CENTER AND HOSP                      1620
B0101409180397044045001CACHO CONSTRUCTIONS, INC.                                1602
B5501400120410042322003TRUMPH MOTORCYCLE CORPORATION                            1601
B1201400150421030320001NORTH LUZON TRUCKING FORWARDERS CORP.                    1605
B1201400150421038151001WATER CONSUMERS ASSOCIATION OF KIAS                      1601
B0501400170481023482001ARZADON LEISURE CORPORATION                              1605
B0101403450521238082001*********                                                1601
B0101404260611023159001KIM CARLO GARMENT INDUSTRIES                             1601
B0101404420631405133001*****                                                    1602
B0101407560686538102001*********                                                1605
B4101400390813019416002STI COLLEGE-ROSARIO, CAVITE, INC.                        1602
B4101400420814034973001JOVEN TIRE ENTERPRISE                                    1601
B2001400290000000020571PHILIPPINE REACHWELL DISTRIBUTION                       11601
B0101414120000000399071KONSTRUTEK BUILDERS AND TECHNICAL                       11601
B0301400790000000435761NG, BENJAMIN & CHAO, BENITO & CHAO, PEDR                11605
B1701400230000001108376ANG, ERIC FORMOSO OR ANG, JACQUELYN                     11601
B2401400180000001935895MAGBANUA, JOAN SANTOS DBU NJM ENG'G                     11601
B2001400290000000020571CORPORATION                                             21600
B0101414120000000399071SERVICES INC.                                           21600
B0301400790000000435761& CHIAM, WILSON                                         21600
B1701400230000001108376RAMOS                                                   21600
B2401400180000001935895WORKS                                                   21600
