B0101408530516821100608**********                                               2005
A0101405650322311534001CALUBAQUIB, RUBY ENRIQUEZ                                0501
A0101409210000014368506HERNANDEZ, ODESSA PERALTA                                0501
A0101405650000013858212GARCIA, SANDRA PANGILINAN                                0501
A0101408950000011077819FERNANDEZ, EMIL ADRIAN VIZCARRA                          0501
A0101410560000010318333ARIANE JOY M UBANE                                       0502
A0101406620000002009165LACA, MARCELO DESIPEDA                                   0501
A1601400170000001069125ALDEN O. SAMBAJON OR                                    10502
A1601400170000001069125MINDA O. SAMBAJO                                        20500
A0101400860000000100841**********                                               0505
A0101400860000009198310**********                                               0501
B0101400860011239489001**********                                               1603
A0101400860011385484001**********                                               0503
A0101400860011388186002TAN, MYRNA MENDOZA                                       0504
B0101400860011394544002**********                                               1601
A0101400860011442261001**********                                               0504
A0101400860011527043001**********                                               0505
A0101400150000003162945ANGELO D. CAMERINO                                       0501
A0101400150061454531001OCAMPO, JIMMY MARFA                                      0501
B0101400150061494758001MACOLYTES INC.                                           1610
A0101400600071457180001**********                                               0501
B0101405810072361051003**********                                               1603
A0601400100081501761001TAN, WINTHEL OR RALPH                                    0502
A0601400360000012822014SY, JOHN CU                                              0501
A0601400360000004915413SIOCO, MARY JANE SORIANO                                 0503
A0101410850000003102090HERNANDEZ, ROMEO MACATANGAY DBU                         10501
A0101410850000003102090RMH-MOVERS HAULING SERVIC                               20500
A0101410850000003102158BAUTISTA, O DBU LEOLEE TRADING                          10502
A0101410850000003102158& TRUCKING SERVICES                                     20500
A0101410850109063750002MITRA, LEO ARMILLO DBU DONDON                           10505
A0101410850109063750002JUNKSHOP                                                20500
A0101406040000000096979********                                                 0502
A0101401960000010787541**********                                               0503
A0101401830141333975001TERESITA I. RIVERA OR                                   10510
A0101401830141333975001IREEN R. BANGUG                                         20500
A0101401830141444502001MYRNA L. DACANAY                                         0501
A0101401830000001140010SANTOS, ROSIELYN LUCERO OR                              10501
A0101401830000001140010SANTOS, MICHAEL                                         20500
A0101412920000005915631CASTRO, SONNY VALEN ROMERO                               0501
A0101401090000016925316SABALVARO, DYAN KRISTEL PESIGAN                          0501
B0101401090171021620001UST HOSPITAL CREDIT COOPERATIVE                          1606
A0301400790000003969644VILLAVER, GENEROSE VILLAGONZALO                          0502
B010141250000000340814224 TIMES STAR REALTY CORPORATION                         1601
A3101400160000008968250PAHURIRAY, MISCHELLE DISEPEDA                            0502
A3101400160000011243706ALBUDIN, JAMIE KRIZEL ALGENIO                            0502
A3101400160000012033257PASCO, ANNA LIZA MEDRANO                                 0502
A3101400160000016569883JAVIER, APRIL ROSETTE QUERONA                            0501
B3101400160221224760001R. LAPID'S CHICHARON                                     1601
A3101400160221478374058MARIBEL S SIBOR                                          0501
A31014007400000108975352ERAS, CHRISTIAN LAURENO OR                             10502
A3101400740000010897535PERAS, GEMMA MARIE REYES                                20500
B3101400740224024279002SPORTS MIX MARKETING CORPORATION                         1605
A3101400870000011243933TING, JAN MICHAEL CASOLOCAN OR                          10501
A3101400870000011243933FARCON, JENYLYN REYES                                   20500
B1001400190231017573001TOUCH A LIFE FOUNDATION, INC.                            1601
A1301400470000013690263LUCIANO I. LLANILO IIIN                                  0503
A1301400470252434027002GERRY N. TAN                                             0501
A1301400470252541824001HERNANI F. BANTUG OR                                    10502
A1301400470252541824001ELAINE T. BANTUG                                        20500
A1901400290261298552118CONCEPCION GONZALES ESTIGOY                              0501
A1901400290261488341084DRA LILIA M BANAAG                                       0501
B0101401670271031093001NUOVO ART & POWER GROUP, INC.                            1602
B0101401670000000739219HYDRO-TECH ENVIRONMENTAL MGT. INC.                       1605
B0101406460272043457001TARSIER SECURITY AGENCY, INC.                            1602
B0101406620000011433122********                                                 1601
B0101406620000000962403GEOWORKS INTERNATIONAL CORPORATION                       1601
A0101406620273458914001**********                                               0502
A1101400120000003981180MENDOZA, SUSAN ORTEGA DBU FLAGS                         10502
A1101400120000003981180S SECURITY AGENCY                                       20500
A1101400120000000065121ALVARADO, LIEZEL CASINO                                  0501
B6601400120314066404002TAN TING BING MEMORIAL COLLEGES FOU                      1601
A6601400120314646593001CUI, ETHEL TAN                                           0502
A0101402350321182462003SALAZAR, ROSALINA R.                                     0502
A0101402350321526808001LUCITA R. TARRAY                                         0502
A0101402510000014897462BALAGTAS, KRISTILLE JOY IDAGDAG                          0502
A0101402060351036454001TRITECH TRADING                                          0502
A0101402060000009179917MANAHAN, RONA CALACDAY                                   0505
A0101409050000003533457REGINO, SARAH G.                                         0502
A0101409050352600066001FAYE CARLIE CRUZ OR                                     10502
A0101409050352600066001BENSON RYAN CRUZ                                        20500
A0201400920000012764962PO, WILFORD LLOYD TIU                                    0501
A0201400890000004869372MONTEROLA, CARLO PINEDA                                  0501
A0201401020000003031129DEL PRADO, JOSE VICE DBU DE LAR                          0502
A0101402930381380749001GENUINA C. RANOY                                         0502
A0101408370000005220039TUAZON, MA. CRISTINA SANTOS                              0501
B0101405490000008380621BMS JANITORIAL AND ALLIED SERVICES                       1605
A0101405490392332339001HUANG, WINFRED YU                                        0503
A0101408400000011986700CLEOFE, CAREEN SANDOVAL                                  0501
A0101408950000002255370CHIA, CATHERINE ANNE TEO                                 0503
A0101409180397681135001UICHICO, ERNESTO FLORO                                   0501
B0101409210000000031238******                                                   1610
A0301400820000006542710FEGI, JANNETTE G.                                        0502
B5501400120000000046911MATUTUM PAINT TRADE, INC.                                1605
A1201400150000016104071JALLORINA, NORA NALIBHAN                                 0501
A1201400150421685972001JUCUTAN, HEIDI BONDAD OR                                10502
A1201400150421685972001JUCUTAN, ROMMEL                                         20500
A0901400220000006214411**********                                               0505
B0101403030441044003001**********                                               1601
A0101403320000010851328CRUZ, NARCISO CRUZ OR                                   10501
A0101403320000010851328CRUZ, AURORA BENAMER                                    20500
A0101403320000014340682VILLAVICENCIO, EDUARDO C.                                0501
B0101403320471032188001GOLD INDUSTRIAL GAS SALES (GIGS)                         1604
B0101403320000000037567EESC CONSTRUCTION INC.                                   1601
A0101403320471193254001JOSEPHINE S. BAYSA                                       0502
A0101403320000001646777MYRNA M. CRISOSTOMO                                      0501
A0101406330000015172200CALDERON, AIDDEE MICHELLENE POB                          0501
A0101410140000014278112AMMALINGAN, JOCELYN BOSIS                                0501
B0501400170000013295980GUANZON MERCHANDISING CORPORATION                        1602
A0501400170481033355001GOLDEN TIES AND FOOD                                    10501
A0501400170481033355001RESOURCES INC.                                          20500
A0501400170481401776001RAMIREZ, ALMA ABELLERA                                   0501
B1901400320000016848552TOP GEAR TRADING AND SERVICES INC.                       1601
B3801400170000016923434RECTO, MARICEL KAIBIGAN DBU MKRJ                        11601
B3801400170000016923434MARKETING                                               21600
A1401400110000014109161VICEDO, MELLA MASANGKAY                                  0501
A1401400110000016926564FUENTEBELLA, MAYO DONAN                                  0501
A1601400170000015036552CUALES, LIEZEL LORIA                                     0501
A1601400170494047880001AIREEN I. SALAZAR DBU A.                                10502
A1601400170494047880001SALAZAR LEARNING                                        20500
B0101407430503034519001D.G.X. PHILS., INC.                                      1603
A0101405940000016913172BUENVIAJE, CHARINA JOY DE RAMOS                          0502
A0101405940000007298562CASEDO, LILIBETH MEDALLON                                0502
A0101405940512462757002TERESITA CUEVAS/ELEONOR VARIAS/                         10503
A0101405940512462757002MA. TERESA DAVID                                        20500
B0101405940512510160001SIMPLY GREAT DELI INC.                                   1604
A0101405940512572851001CANTILLO, ALDWIN CABIGAO                                 0501
A0101405940512597822001HERNANDEZ, ANTONIO PENGSON                               0503
B0101403610531022135001HI-VISION CHAUSSURES INC.                                1605
A2201400250561258530016MARVIN H. ESPINOSA                                      10501
A2201400250561258530016EMPLOYEES OF IEW                                        20500
A0101404130601237439001ANCHETA, MIRAFLOR PEREZ                                  0502
B0101407720602035792001SECTION OF CARDIOLOGY                                    1601
A0101407720602318369093DENNIS G. DAMASO                                         0502
B0101404260611005305001KING EPIPHANY HOLDINGS AND                              11601
B0101404260611005305001PROPERTY CORP                                           21600
B0101404260611005306001THE HOUSE OF RACOR ADS., INC.                            1605
A0101404260611042511001KEN TAXI                                                 0505
A0101404260611478374052ROSEMARY F. ROLDAN                                       0502
A0101409920000015499560URSAL, ALEX ROBERTO T.                                  10501
A0101409920000015499560DBU PRUDPERRY MARKETING                                 20500
A0101409920000000998569MEMBERS OF NATASHA (SHOECAT INC                         10501
A0101409920000000998569PEDROSA, JULIE J.                                       20500
A0101407690652455653001PEREZ, EDGARDO OR PERLA                                  0501
A0101411530000002260208ASISTIO, MICHELLE ANNE AQUINO                            0501
A0101413570000005867430*******************                                      0502
A0101414120000011288965DOROTHEO, POLEE CASINILLO                                0501
A1301400340683355642001KITSUKAI, MARY ANNE URIAN OR                            10501
A1301400340683355642001URIAN, MARIA BUELA                                      20500
A1301400500000016062598MAMMAD, JACQUELINE NAVARRO                               0501
A2801400230000009022199BUSTAMANTE, JOSEFINA MERLUZA                             0502
B4101400390000003346187PAGASA PHILIPPINES LENDING COMPANY                       1603
A4101400390813478374005CHARON V. MAGBUO                                         0501
B4101400420814017613001BOARDWALK BUSINESS VENTURES, INC.                        1602
A0101412340000003345355PERIDAS, ALEXIS MIRANDA                                  0501
A0101412340000011425099RIO C. OCAMPO                                            0501
A0101412340000007305542MOSQUITE, CANDECELINA O.                                 0501
A0101412340000001017930SONIA MEDINA SIBI                                        0501
B0101404840000006365142TRIMOTORS TECHNOLOGY CORP.                               1603
A0101404840851520766066CYNTHIA A HERMEDILLA                                     0501
B0101405070861008149001TABAQUERIA DE FILIPINAS INC.                             1606
A0101405070000015207980EMMA MELCHOR MANUEL                                      0501
A0101405070000001726096DIESTRA, AMALIA TENDENCIA                                0501
A0101405070861478374086MARLYN C. GABEST                                         0502
B0101405070861565051001BLAUGRANA CORPORATION                                    1606
A0601400230000001687232CHRISTLE M.TUNGUL OR                                    10502
A0601400230000001687232LIONEL M. TUNGUL                                        20500
