A0101400860011527043001**********                                               0502
A0101400150000004090613GONZALES, ROCHELLE DELA PENA                             0501
A0101400150061226097001BELEN LIM OR                                            10502
A0101400150061226097001LIM, TIN CHONG                                          20500
A0101400150061227144001BENJAMIN CHUA OR SIRENE CHUA                             0501
A0101400150061383637001DE GUZMAN, CATHERINE YANG                                0501
A0101400150061532387001NATIVIDAD, ANABELE REDONDO                               0502
A0101400150000000806702DOM ANTONOINE FORTIN OR                                 10502
A0101400150000000806702MARIA ZENAIDA AN                                        20500
B0101400600000001335637**********                                               1603
B0601400100000002099072YAO, JONATHAN SIU LEE                                    1602
A0601400100000000786789DEL ROSARIO, ARTHUR CHAN                                 0502
A0101413730000000144625SIA, GEORGE ORPILLA                                      0501
A0101406040000000014757ONG, J DBU JILZEN ENTERPRISE OR                         10501
A0101406040000000014757JONATHAN C. BANGAYAN                                    20500
B0101401960121456874001*****************                                        1605
A0101412630000000801461FUDALAN JR., OSCAR DBU BAY                              10501
A0101412630000000801461HEWITT LEARNING                                         20500
B0101401830000000033649CARITAS SALVE CREDIT COOPERATIVE-                       11605
B0101401830000000033649PASAY (009)                                             21600
A0101401830141206540001MEGA NURSERY ORCHIDS                                     0505
A5001400170000000044993ZAPATOS, SOFIA LACAYA                                    0502
A0101400440000002035001INTEGRITY DIAGNOSTIC CENTER                              0505
B01014010901710435610013M PETROLEUM DEALER CORP.                                1605
A0101401090171551007001MARY MILITANT RICAFRENTE OR                             10502
A0101401090171551007001MARIETTA C. ABELLA                                      20500
A0101401090000000210442RAYMOND SILVERIO S. BARBA                                0502
B0101401380201042910001SECURITRON SECURITY SERVICES, INC.                       1605
A3101400160221322026001ANDRES D. IGNACIO JR. AND                               10503
A3101400160221322026001RICKY A. CUETO                                          20500
A3001400130000001271312SHAPE & WELL NUTRITIONAL                                10501
A3001400130000001271312PRODUCTS                                                20500
A3001400130000001261045MAY-AS, LOUVENJUN CABUSAS                                0501
A1001400350000000922058ARENO, ANN JANE BUCO                                     0502
A1001400350000002367240CAPAL, MAGLANGIT ALANG                                   0501
A0101401670271367363001SUACO, JESUS ANGELO ABAYA                                0501
B0101406460272020749003EASTGATE COMPUTER CORPORATION                            1601
A0101406460272076575001CO, AILEEN HAZEL SY                                      0502
B0101406620273019017001PRIMEEAST PROPERTIES, INC.                               1610
A0101406620273214702001MARIA CONCEPCION                                        10501
A0101406620273214702001ASUNCION U. NOEL                                        20500
A0101411820000000477145SHERWIN REYMOND M. ICALINA                               0501
A0801400160000000009492LORING, MARIA IA JOY ESPINOSA                            0502
A0801400160311413609001LIM, JOSEPH PO                                           0505
A0801400160311785590001********                                                 0503
B0101402350321019914003DAVIDVILLE ACADEMY ELEMENTARY DEPARTMENT                 1605
B0101409050000001662911CODE NINJA IT SOLUTIONS, INC.                            1601
B0201400760000005016620AWC IMPORT AND ASSEMBLER REBUILDER                       1605
B0201400760000000040291KARGADOOR LOGISTICS CONSULTANCY                         11601
B0201400760000000040291SERVICES                                                21600
B0201400920000000047896GDS GENERAL SERVICES, INC.                               1601
B0101402930381014599001HEALTH SOLUTIONS CORPORATION                             1602
B0101402930381021740001YOSHINOYA CENTURY PACIFIC INC.                           1605
B0101402930000000057510PRANIC HEALING FOUNDATION OF THE                        11601
B0101402930000000057510PHILIPPINES, INC                                        21600
A0101402930381205241005DR ACHILLES OR FE DELILAH OR                            10503
A0101402930381205241005ACHILLES BARTOLO                                        20500
A0101402930381478374009MARIVIC R. DELA CRUZ                                     0501
A0101408790000005294059ZAMBRANO JR., HERMINIGILDO L.                            0501
B0101408790000003845761DESIERTO AMMUYUTAN PURISIMA AND DESIERTO                 1605
A0101402770391211321002ASIS, DANILO B.                                          0501
A0101402770391757431001CHAN, HAYDEE CHUA OR                                    10501
A0101402770391757431001CHAN, PAULINO CO                                        20500
A0101412210399094817016MARTIN G. ZAMORA                                         0505
A5501400120000002949575ESCLETO, RONNIE DIAZ                                     0501
A0101406330472027958001A. ANOLIN ENTERPRISES                                    0502
B0101406330472034490002RCBP STO. TOMAS DE VILLANUEVA PARISH                     1602
A0101406330000000162616LAND OF THE PROMISE TRUCKING                            10505
A0101406330000000162616SERVICES                                                20500
A0101406330472436213002SUSAN CAGUINGUIN OR DIOMEDES                            10503
A0101406330472436213002CAGUINGUIN                                              20500
A0101406330000000683363EDUARDO LEGARIO                                          0501
B0501400170481018109001*********                                                1601
B1901400160491347054001EMMA MACATANGAY AND MARIO MACATANGAY                     1602
B1401400110492365609001JEORGE S MALIGAT - PILIPINO HARDWARE AND                11601
B1401400110492365609001CONST. SUPPLY                                           21600
A1401400110492531512001SALVANERA, ZIEGFREDO AGUILAN                             0502
A1601400170000000036531ERNESTO REYNOSO OR ISABEL                               10505
A1601400170000000036531REYNOSO OR CARLO REYNOSO                                20500
A1601400170000001360601JANICE R. AN                                             0501
B0101407430000001212979FRUS CORP.                                               1603
A0101407430503332538001TERESITA F. AWAT                                         0501
B0101405940512020338001ANGEL LEIAIEL EXPRESS INT'L INC                          1605
A0101408530516543430012SHERWIN LOPEZ                                            0502
A0101408530000001886064MARIA THERESA L. FRANCISCO                               0501
A0101412050000000890882********                                                 0502
A0101404000551150196001BENEDICTO ORENSE                                         0501
A0101404130601366411001DE GUZMAN, JOSE SANTOS                                   0501
A0101407720000000245214LEORNA, IRENE CASUBUAN                                   0501
A0101407720602163476001PAGDANGANAN, ERNEST APACIBLE                             0501
A0101407720602241314001**********                                               0502
A0101407720602381795001FORES, MIGUEL EDGARDO MANUEL                            10501
A0101407720602381795001OR FORES, LUCIA                                         20500
A0101404260611044186001REINIGEN INDUSTRIAL TRADING                              0505
A0101404260611737349001JOMAR G CARABBACAN                                       0502
A0101409920000002260431CANTOR, RACHELLE LUNA                                    0502
B0101407690652043835001********                                                 1603
A0101407690000000913600MARQUI AUTO SUPPLY                                       0502
A0101407690652478374131TARROQUIN, NORA - DEALERS OF                            10501
A0101407690652478374131SHOECAT, INC.                                           20500
A0101407690652478374194ARQUILLANO, GLORIA - DEALERS OF                         10501
A0101407690652478374194SHOECAT, INC                                            20500
A0101407690652773797001BELGIRA, ROSARIO BALIBOL                                 0502
B0101407690652821100608**********                                               2003
B0101406590662058068001PNOY SERVE MANPOWER INC.                                 1610
A0101406590662207039001HORTENCIA A. BUENAVENTURA OR                            10501
A0101406590662207039001MA. THERESA TAN                                         20500
A1301400210682635116001DEVORAH M SOTO OR                                       10501
A1301400210682635116001MIGUEL CARLOS B                                         20500
A1301400500684094788001GERODIAS, ANALYN ALCANTARA                               0503
A4101400260000000002142TAJANLANGIT, JACKIE C.                                   0502
A4101400390813248327001SARIEGO, DANILO BAGONA                                   0501
A4101400420814520766135MOTILLA, ROSELLE                                         0501
A0101412340000003719180MICHAEL JOHN A. LAPORGA                                  0501
A0101404840851040206001RZB PROPERTY MANAGEMENT                                  0502
A0101406750000004641565CHAVEZ, LESTER DELA FUENTE                               0501
B0101406750000000090793AUTOCIRCULO CORP.                                        1610
B0101406750852058605002ARMATURE INC. DBU NAME AND STYLE OF                     11601
B0101406750852058605002ARMATURE; HYPER                                         21600
B0601400230891029282001L5 & SONS FINANCING CORP.                                1610
B0101416320000701010029**********                                               2102
