A0101405810000002900961********                                                 0501
A0101405810072265481001PLAZA, LEONORA LIM                                       0503
B0101405810072405241003**********                                               1601
A0101400440000004889912MARIA VICTORIA F. ORACION                                0502
A6601400120000003673012VASQUEZ, FERDINAND ENDONELA                              0505
B0101414120000001984290GREENERGY SOLUTIONS INC.                                 1602
B0101401250000000057167**********                                               1601
A0101401250021183876001DELA PENA, REYNALDO PENA                                10502
A0101401250021183876001OR DELA PENA, FLORENCIA                                 20500
B0101400150061028364002UNICAPITAL INC.                                          1605
A0101400150061236944069JUDY B. GONZALEZ                                         0502
A0101400150061338964010MARY ANN C. ROMERO                                       0501
A0101400600071478374003JALIQUE, GENARA                                          0502
B0101405810000010425800ALVARO, RUBEN LABORTE                                    1601
B0101405810072083905001HONG, HAN MING                                           1601
A0601400100081382138001MANGUERRA JR., WILFREDO TORRES                           0510
A0601400100081382138002MANGUERRA JR., WILFREDO TORRES                           0510
A0101401960121348042001YAP, HELEN SY                                            0501
A0101401960121385257001**********                                               0501
B0101413310000001928834MONTEROZZA RITZ FOOD CORP.                               1603
A0101400440000000060233ADRIATICO, CHERYL TAGUMASI                               0502
A0101400440000001440044ESTABILLO, ESTELITA CARPIO                               0501
A0101400440000006679670MAYOR, MEL ARNOLD QUIZON                                 0501
A0101400440161039572058ERLINDA S. AVERILLA                                      0501
A0101400440000004901586RAMIREZ, PAMELA SALOMA                                   0502
A0101400440161520766129LHYN T. MASADA                                           0502
A0101400440161525001103OFELIA B. OLERMO                                         0501
A0101401090000001618606AMADO VICTOR A. BELTRAN                                  0505
B0101401090171027703001INSTANT DRUGSTORE AND GENERAL                           11602
B0101401090171027703001MERCHANDISE                                             21600
A0101401090171410446001MARICEL R. TORMIS                                        0501
B0301400530193041601001GRANITE CREDIT CORPORATION                               1602
A0301400660000002913179**********                                               0502
B0301400660000003368381NEXT BPO SOLUTIONS, INC.                                 1603
A0301400950000008000660PE BENITO, HAZEL ANN NERI                                0503
A0301400950000005516941GAMIL, MICHAEL JAMES OR                                 10501
A0301400950000005516941GAMIL, CHERRY MA                                        20500
A0301400950000005707308NOGRALES, MARIA MARGARITA M. OR                         10505
A0301400950000005707308NOGRALES, KARLO ALEXIE B.                               20500
B0301400950000000566934YUMCHAY VENTURES CORPORATION                             1610
A0101401380000006542361ANTONIA C. CUNETA                                        0505
B3101400160221224862001JOYME ROCKSCAPES CORPORATION                             1602
A3101400160221534754001RODOLFO L. PUA                                           0501
A3001400130000001271312SHAPE & WELL NUTRITIONAL                                10501
A3001400130000001271312PRODUCTS                                                20500
B3001400130000003434648HAPPYALL3 BUILDERS CORPORATION                           1610
A3001400130000008264802AREZO, JOVIE L.                                          0501
A3001400130230691834001ANDAYA, JOSEPH OMAR O. OR                               10503
A3001400130230691834001ANDAYA, ASTRID M                                        20500
A1001400190231339933001MOORJANI, NOOR G                                         0501
A1001400190231520766007BENGAR, JOSPEH E.                                        0501
A1001400350233042653001BLUE ENERGY RESOURCES                                    0504
B1001400480000003357891AYA VENTURES CORP DBU ASONHUAT AGRO INDU                11601
B1001400480000003357891STRIAL GROWER                                           21600
B0101401670271017305001HONGKONG HARDWARE SUPPLIER, INC.                         1601
B0101401670271038514001DWIGHTSTEEL BUILDING SYSTEMS INC.                        1604
B0101406460000000712816DSCY COMERCIO INC.                                       1602
B0101406620273034224002JDS CONSTRUCTION PHILS., INC.                            1602
B0101406620273692749001EAS GROUP ASIA INC                                       1605
A0801400160311478374106SORILLA, HAYDEE                                          0501
A1101400120000001920667CAMENFORTE, NEIL MONASTERIO                              0501
A1101400120000002254946MEJICA, SORIEL BARDIAGO                                  0502
B6601400120314665528001**********                                               1601
A0101402350000005645109**********                                               0501
B0101402350000000046039ABSOLUTE INDUSTRIAL SOLUTIONS, INC.                      1601
A0101402350321542967001ABUNDIENTE, JONATHAN GUMBA                               0502
B0101405650322170719001BACOLOD SPECIALTY FOODS, INC.                            1610
A0101405650322219483001ELISES, LENORA OR NELSON OR                             10501
A0101405650322219483001JOSE MARI OR JOSE MIGUEL                                20500
A0101402510000008859470JARENCIO, WILFREDO GAMOS                                 0502
B0101402510341031237001VIACAREM RESTAURANTS                                     1602
A0101402060351009385001JORGE ALOMBRO JR. OR                                    10505
A0101402060351009385001NELIA ALOMBRO                                           20500
A0201400760000000222922PELUCHI ESSENTIALS SPA                                   0501
A0101408790000000579391ARNEDO, MARIA VERONICA CONSUELO                         10502
A0101408790000000579391SALVADOR                                                20500
B0101408790383043155001PHILPACKAGING CORPORATION                                1603
A0101411660000000109311**********                                               0501
A0101415350000007878082MUSNI, CARL LAWRENCE AQUINO                              0501
B0101405490392037130001CEMS INDUSTRIAL PRODUCTS & SYSTEMS                      11604
B0101405490392037130001INC.                                                    21600
B0101405490392039342001COMBINED ELECTRO-MECHANICAL SUPPLY, INC.                 1606
A0101408950396501244001DR. RHESA MAY MANALOTO MARTINEZ                          0501
A5501400120000002348325ANG, ANDY MAN CHUNG CHANG                                0505
A5501400120000009875541ARANDIA, SHEENA JANE VELASCO                             0503
A1201400150000001863276KLEMSON MEDICAL SUPPLY                                   0502
B0101403320471008859001NEW LITE LUMBER & CONSTRUCTION                          11602
B0101403320471008859001SUPPLY                                                  21600
B0101403320471027450001*****                                                    1601
A0101403320000006026762*****                                                    0501
B0101403320471063948001POBLACION BINAN REALTY, INC.                             1601
A0101403320000000522176ALCANTARA, RAEZA LUMBAG                                  0506
A0101410140000000482702LABASTIDA, ENGRACIO DOTOLLO                              0502
A0101410140475478374010PELAEZ, BEATRIZ GUEVARRA                                 0501
A0101410140000000499087CABANG, DEO MAR SALAS                                    0501
A3801400170000000497912HOSPICIO I LAYGO JR.                                     0501
A3801400170490066915001GASIC, DENISARDO DBU LIEBLING                           10501
A3801400170490066915001MARKETING                                               20500
A1401400110492357128002ESPARAS, TERESA BAUTISTA                                 0502
A0701400260000010423575**********                                               0501
A0701400260000001804600VILLAMOR, LUCIANO FRANCISCO DBU                         10502
A0701400260000001804600VILUFRA AGRI SOLUTIONS                                  20500
A0101405940512360728001ERWIN P. HERNANDEZ OR                                   10501
A0101405940512360728001AGNES T. HERNAND                                        20500
A0101411790000000576056DOMINGUEZ, YOLANDA GOLINGAY                              0501
A0101412050000001499705PADIERNOS, EUGENE C.DBU ORIGINS                         10501
A0101412050000001499705HOME FURNITURE                                          20500
A0101412050000000323602FERRER, VIOLETA MANALO                                   0502
B0101403450521011768002SYSU INT'L. INC                                          1606
B0101403450000000889574***********                                              1603
A0101403610000007106583DAMOT, LEONILA KATIGBAK                                  0501
A0101410690000000061834IQBAL, BERNADETTE G.                                     0502
B0101407720000004959931PERFECT SKIN AND BEAUTY SOLUTIONS INC.                   1605
A0101407720602390297001PREYSLER, MARIVIC G.                                     0501
B0101404260611005448001GUADALUPE CATHOLIC SCHOOL                                1605
A0101404260611022508001WORK AT PRINT, INC.                                      0501
B0101404260611031875001CIPRIANO C. GAGAN CONSTRUCTION                           1602
A0101404260611155126001ROSALES, ANITA TENORIO                                   0501
A0101409920000003959542MAGNO JR., GENEROSO URSO TADEO                           0501
A0101409920000001951908MEMBERS OF NATASHA (SHOECAT INC                         10501
A0101409920000001951908FALLARME, MA. CECILIA A.                                20500
A0101407690000001919913JAIRUS RAE ENTERPRISE/                                  10501
A0101407690000001919913BOBBY ALEJO                                             20500
A0101407690652173311001RS JARDIN & ASSOCIATES                                   0505
A0101407690652399727002QUIAMCO, CONSOLACION GIVA                                0501
A0101407690652478374169MEDRAN, ESTELA RAVINA - DEALERS                         10501
A0101407690652478374169OF SHOECAT INC.                                         20500
A0101407690000000053881********                                                 0504
B0101411530654046587001VANTAZTIC INCORPORATED                                   1603
A0101413990000002962883BUHAIN, VICTOR PEREZ                                     0501
A0101414120000001751446MARIA GRACE LACUESTA OR RICKY                           10503
A0101414120000001751446LACUESTA OR MILEAH                                      20500
B0101414120000001142818CAS PROPERTIES INC.                                      1601
A0101410300000004361580DELAS ALAS, MARTINA EILEEN                              10510
A0101410300000004361580HERNANDEZ                                               20500
A0101410300000006278697DELAS ALAS, MARTINA EILEEN HERN                          0510
A1301400210682248069001ALICIA P. ANDAN                                          0501
A1301400340683478374039ABAOAG, CELIA SALVADOR                                   0502
B1701400230000008555022KOOKEE HOUSE, INC.                                       1610
A0101408240711228456002MA. VICTORIA MANIQUIS                                   10502
A0101408240711228456002OR STEVE MANIQUIS                                       20500
A0101408240711410292003**********                                               0506
A0101408240711410292006JOSEFINA OR JUAN OR                                     10506
A0101408240711410292006ALLAN JOSEPH PENA                                       20500
A0101408240711465361003RAZON, CONCHITA OR                                      10503
A0101408240711465361003DEL ROSARIO, TERESA                                     20500
A0101408240711478374009MARIVIC C. FLORA                                         0501
B2801400100000006434988FLORES, MONALIZA DASIG                                   1602
A2801400100712020606001LAI'S DRUG AND GENERAL                                  10506
A2801400100712020606001MERCHANDISE                                             20500
A4101400260812246527001ISIDRO B. DELA CRUZ JR. OR                              10510
A4101400260812246527001LILIAN H. DELA CRUZ                                     20500
A4101400420814478374043ESPINO, GEMMA D.                                         0502
B0101404840000006365193CRUZ, GEORGE DBU H.A.G. TRADING                          1604
B0101406750852032718001PHILGREEN PLASTICS CORPORATION                           1602
A0101406750000006303242ABDULAZIS, EDORA CECILE ERESTAI                          0501
A0601400230000005510218CANLAS, NATHANIEL JURY                                   0510
A0601400230891252023001MA. TERESA V, EUGENIO OR                                10501
A0601400230891252023001MA. LUISA                                               20500
