B0101401670000000739162ARCHIMATERIALS SUPPLIES TRADING CORP.                    1602
A0101409180000010760033CAUTON, ANNA KATRINA H. OR                              10501
A0101409180000010760033CAUTON III, LUCAS NICCOLO                               20500
B0801400160000011219520BACECO FINANCE CORPORATION                               1608
A2401400180411037686001DADIANGAS HEAVEN STAR MARKETING                          0505
A2401400180411555962001SILVA, VIOLETA P. OR                                    10502
A2401400180411555962001SILVA, MARCELINO                                        20500
A2401400180000000019890TAN, JOSEPHINE TIONGSON                                  0502
A0101413860000002314181AGUB, ROMMEL CABAUATAN                                   0501
A0101413860000001887056PUERTO, ATHENA ANGELLIE                                  0502
A0101400860011390307002*********                                                0502
A0101400860011568821001**********                                               0505
A0101400860011606340001**********                                               0506
A0101400150000000052991CRUZ, RAMIL JOSEPH PADUA                                 0502
A0101400150000005015627MARQUEZ, DOMINIC AMBIL                                   0501
A0101400150000006551259SALCEDO, THEL CHRISTOFFER MARQU                          0502
A0101400150000012213686KOBAYASHI, FUMITO NIL                                    0501
A0101400150000012213799JAVIER, NIKKI CAYSIDO                                    0501
A0101400150000011715001KLAA, IRENE ISIP                                         0501
B0101400150061032615001HKR EQUIPMENT CORPORATION                                1615
B0101400150061033499002VICSAL INVESTMENT INC.                                   1601
A0101400150061039916081LEBIN, BLACITA                                           0501
A0101400150061039916084LESAVA, LEONILO                                          0501
A0101400150061456754001ANCHETA, ANGELINO TAGUIBAO                              10501
A0101400150061456754001OR ANCHETA, CANDELARIA                                  20500
A0101400150061473504001SAGUIL, EDUARDO FABELLA                                 10501
A0101400150061473504001OR SAGUIL, ANNE                                         20500
A0101405810072235171001**********                                               0505
A0101405810072329957001**********                                               0501
A0601400520000005943542ARCEO, TEEJAY ROMERO                                     0502
A0101406040000008915471********                                                 0504
A0101406040000000096811********                                                 0501
A0101401830000006269601SANTOS, JAIME ZAPICO                                     0501
B0101401830141008845001PANDACAN TRANSPORT SERVICE & MULTI-                     11603
B0101401830141008845001PURPOSE COOP.                                           21600
B0101401830141011349001EAST MANILA CAPITAL FINANCING CORP.                      1602
A0101400440161565234001MARY ANN R. ZARAGOZA                                     0501
A0101407270162421293007YOLANDA L. DE ALBA                                       0501
A0101407270162629824001GRACE T. YAP OR                                         10501
A0101407270162629824001LILY S. CHUA                                            20500
A0101407270162635378001BON TEK CHUA OR                                         10501
A0101407270162635378001LILY CHUA                                               20500
A0101401090171200033001MARIA ROSARIO R. ARANDA                                  0501
A0101401090171418942001JOSELITO B. DIAZ                                         0501
A0101401090171432520001VICENTE M. BELTRAN                                      10502
A0101401090171432520001OR EDEN I. BELTRAN                                      20500
A0301400530000005300190EDANO, ALVIC GANZON                                      0502
A0301400660000005691938DIEZ, RIZA PEDRONIO                                      0502
B0301400660000006755162KILOTRADE MARKETING CORPORATION                          1604
B0101401380201034271004LC BUILDERS AND DEVELOPERS, INC.                         1604
A0101413020000002292753TISMO, ERLINDA ROQUE                                     0501
A0101412500000001146805ARROJADO, JENNIFER DY                                    0501
A3101400160221220343001LAARNI A. CALAPATIA                                      0502
A3101400870225004153001ARADOR, ROMEO DBU ISHEATECH ELE                         10502
A3101400870225004153001CTRICAL TRADING AND SERVI                               20500
A1001400190231520766006DELFIN, LORENA                                           0501
B1001400350233047356001FASTRUCK HAULERS & GENERAL MERCHANDISE,                 11601
B1001400350233047356001INC.                                                    21600
B1001400350000000244357EMILIA REALTY CORPORATION                                1601
A1001400480000002300372GALUT, MYRNA MANGALLAB                                   0503
A1001400480234051824001DESCALLAR, DARWIN LEE CUNADO                            10501
A1001400480234051824001DBU CYNON AGRI CENTER                                   20500
A1301400470252500617001CLARAFE A. GONZALES OR                                  10502
A1301400470252500617001RUFINO W. GONZALES                                      20500
A1301400470000000366432**************                                           0502
B0101401670271038486001POWER FASHION INC.                                       1605
A0101406620000005394783MAYARI, BIERNADETTE MARCELO                              0502
B0101406620273022308001BALGOS GUMARU & JALANDONI                                1602
B0101406620273035245001GETZ BROS. PHILIPPINES, INC.                             1602
A0101406620273392302001RAMOS, MACARIO OR FLORES, RUTH                          10501
A0101406620273392302001OR RAMOS, ALICE                                         20500
A0801400160000001031376GEROCHI, ROMEO PASQUIN                                   0501
A6601400120314612961001SALAVARRIA, VICKY OR CRISALDO                            0501
B2001400290000000020537LINK RI LOGISTICS INC.                                   1601
A3401400280000006791075LEDESMA, KEN GLORIA                                      0501
B0101405650322022799001FUEGO LAND CORPORATION                                   1602
B0101405650322036086001VISTALAND INTERNATIONAL MARKETING, INC.                  1615
B0101405650322047833001SPRINT INTERNATIONAL, INC.                               1603
A0101405650322444318001FONTE, JENNIFER OCAMPO                                   0501
A0101405650000009768103MAGLANA, ROBELITA COMPANIA                               0502
A0101402510000010100702MATINING, KRISNA ENCOMIO                                 0501
A0101402510341511864003JACALAN JR., TIRSO WILLIAMS                              0501
A0101402510341565802002GLAISA A. CLAVERIA OR                                   10502
A0101402510341565802002JAMES RONALDO A. CLAVERIA                               20500
B0101402060351009431001RPP SAVINGS AND LOANS ASSOCIATION, INC.                  1603
A0101402060351217440011FLORDELIZA PANGANIBAN                                    0501
A0101409050000006986658**********                                               0502
A0201400760000005156587YU, TIONG KEE CHU                                        0501
A0201400920000002804504BARENG, NATHALYN C.                                      0503
A0101402930000000859827PACIO-MAYOR JR., J DBU CADUCEUS                         10502
A0101402930000000859827MEDICA MULTISPECIALTY CLI                               20500
A0101408790000000931037UYBOCO, EDELBERT CASTILLO OR                            10502
A0101408790000000931037UYBOCO, SHEILAH                                         20500
A0101411660000003580181PEARLY ANNE C CHENG                                      0501
B01014116600000075557711-TRANSPORT EQUIPMENT AGGREGATOR AN                      1606
A0101402770000003488131NERA, JULIUS PATRICK DOMANTAY                           10502
A0101402770000003488131OR NERA, CAROLYN MOSQUEDA                               20500
A0101402770000007413790CRUZ, DAISY ARRAZ                                        0501
B0101402770000000360876BETTER CHOICE CATERING SERVICES                          1601
A0101402770391213549001VILLARETE, RAMON C. OR                                  10501
A0101402770391213549001VILLARETE, MARILOU P.                                   20500
A0101402770391476396003MA. LOURDES O. MAGSINO                                   0503
A0101405490000001092579LOURENCE E. ESCANLAR                                     0501
A0101405490392787306001JOEL S. BERNARDO OR                                     10501
A0101405490392787306001JENETTE Y. BERNA                                        20500
A0101408400000007906018THOMSON-GUEVARA, GILLIAN AKIKO                           0501
A0101409180000005326596BASA, JEFFERSON SANTOS                                   0501
B0101409180000008122832REDSCOPE COMMUNICATIONS, INC.                            1602
A0101409180000008700123RECIO, AMCEL SILVA DBU STX ENTE                          0505
A0101409210000002802666CAI, XIAOCHUN                                            0501
B0101409210000004818840SO, GWENDOLYN NGO                                        1601
A2401400180000007031654MARTIN, RUTH MARCIANO DBU NIPPO                          0503
A0901400220432368117001**********                                               0501
A0101403030000001302087**********                                               0501
A0101403030000000531428BANZIL, TERESITA HERNANDEZ                               0501
A0101406330472027958001A. ANOLIN ENTERPRISES                                    0502
B0101406330000000432831OTO MARKETING, INC                                       1610
A1901400160491347003001DRA JOCELYN ATIENZA-MERCADO                              0501
A1401400110000010622561RIOLA, SIXTO DADIA OR                                   10502
A1401400110000010622561RIOLA, MARISSA                                          20500
B1401400110000005945388HOLANDA, W DBU COMPREMED TRADING                         1602
A0101408530000012214350CUYUGAN, JAYPEE CASTELO                                  0501
A0101408530516543430059LORENZO LEWIS                                            0501
B0101403450521011670001**********                                               1601
B0101403450521012166001TIGER RESOURCES, INC.                                    1601
A0101403450521238096001**********                                               0501
A0101403450000000889330BALAGUER, POL PARAS                                      0501
A2201400250561019818003KIS ENTERPRISES                                          0510
B2201400250000009019814REYES, ELIZARDO VILLANUEVA DBU ANGELES                  11605
B2201400250000009019814PET CARE CENTER                                         21600
A0101410690000005383400BANZIL, MARK VERGEL TANTICO                              0501
A0101410690000003027625BENJAMIN C PILOTIN JR OR                                10504
A0101410690000003027625MARIA HOSANNA A PILOTIN                                 20500
B0101404130601046809001DIWA LEARNING SYSTEMS, INC.                              1602
A0101404130601323800001CATINGAN, HAZEL ALDEGUER     JT                          0501
A0101404260611152257001MA. JENNIFER L. ROJALES                                  0502
A0101404260000001725242BENEFREDA RIGON                                          0502
A0101409890000006277552TIU, BEAUTILLISA ADIONG                                  0505
A0101407690000008045801DANNY'S NATIVE FOOD                                      0502
B0101407690000003767835EVARISTO TRADING                                         1601
B0101407690000003767948BROWNFLY COMMERCIAL AND INDUSTRIAL                      11601
B0101407690000003767948SERVICES, INC.                                          21600
B0101407690000003767993AKINITO TRADING AND INDUSTRIAL SERVICES,                11601
B0101407690000003767993 INC.                                                   21600
A0101407690652525001047NOEMI B. BUNDA - DEALERS OF                             10501
A0101407690652525001047SHOECAT INC.                                            20500
A0101414120000003190827MALONDA, BERNARDO CIRUELOS                               0501
B0101414120000001984187WELL FITT LIFESTYLE CORP                                 1601
B0101414120000004603398WEBLEND INC.                                             1601
A0101406590662500998001MAGRACIA, JUDY PALIZA                                    0501
B13014002100000081738601960 METAL INDUSTRIES INC.                               1603
A1301400210000009982256AYCO, GEORGE ELERA DBU AYCO TRA                          0504
A1701400230000000097701SILVANO, CRESCENCIA R. OR                               10501
A1701400230000000097701SILVANO, ERNESTO                                        20500
A1701400230000011255308TOLENTINO, JULIUS CAESAR CALABI                          0502
A0101408240711381185001JACQUELINE ALCANTARA OR                                 10502
A0101408240711381185001TERESITA SILVA                                          20500
A0101408240711385252001NISA B. CADIZ                                            0501
A2801400230000002312481IGNACIO, NORA DACAYO                                     0501
B2801400230000005253641COST OF MONEY LENDING CORPORATION                        1605
A4101400260000005333426ANDAYA, FRANKLIN PASAKDAL                                0502
A4101400260000000002120LUCIANO, MARIA PAZ GOMEZ                                 0502
A4101400260812546934001CRISTINA T. BASILIO                                      0501
A4101400420000002084540PELIMIANO, EDNA                                          0501
A4101400550000010508620OMIDO, DIVINA UMALI                                      0502
A0101412340000003342623MA. THERESA D. DIESTA                                    0501
A0101412340000009501133JOSEPH RAMON L. CAMPOS                                   0503
A0101412340000007305757EVELYN D. ALVAREZ                                        0501
A0101404840851520766075THELMA F. DURAN                                          0501
A0101413860000000145020DASIGAN, ANGELITA GONZALES                               0501
A0601400230000001062402SALAZAR, MARY DBU PRIMUS TAILOR                          0503
