B1201400150421821100608**********                                               2004
B4101400390813028210001GOLDEN DRAGON MOTOR SALES CORP.                          1602
A0101406590000000568872LECAROZ-ELIZALDE, CHRISTINA S.                           0501
A0101400860000000632637**********                                               0502
A0101400860011391589003**************                                           0502
A0101400860011399499001***********                                              0501
A0101400860011399972002*********                                                0502
A0101400860000015382648**********                                               0502
B0101400150061020750001NATIONWIDE DISTRIBUTORS, INC.                            1608
A0101405810072234892001**********                                               0501
A0601400520000005943513BUCO, DONALD DELA PENA                                   0501
A0601400520000004423192CARPIO, SHEILA BORRERO                                   0501
A0101400730000017601611PANGAN, ARNEST ANDREW MAGLALANG                         10501
A0101400730000017601611DBU PRACSA ENTERPRISE                                   20500
A0101400730111520766046MARIVIC GATDULA                                          0501
B0101413150000000038651WESLEY JORDACHE SANTOS AND ANN KATHRYN                  11601
B0101413150000000038651SANTOS OR JANICE                                        21600
A0101413150000005944129SY, JEFF DERRICK DBU SAFECAR                            10502
A0101413150000005944129TECHNOLOGIES                                            20500
A0101401830141433370001ARNALDO P. SERRANO                                       0502
A0101401830141582040001EDNA FABREGAS HERNANDEZ                                  0505
A5001400170000006294528KYAMKO, IRENE ICAMINA                                    0501
A0101412920000015383009ESPINOZA, MA THRILLY LEE                                 0502
B0101412920000015923512ESPINOZA, MA. THRILLY LEE DBU HONSHITSU                 11601
B0101412920000015923512MARKETING                                               21600
B0101400440000002035001INTEGRITY DIAGNOSTIC CENTER                              1605
B0101407270162629425001CO, LOLITA SY                                            1601
A0101401090000001618986ALVAREZ, MA. AILIL BORLONGAN                             0501
A0101401090000018301532BALAGTAS, KRISTEL DELTONI OR                            10501
A0101401090000018301532TUMACA, JAYMAR                                          20500
A0101401090171195764001FORTUNATO B. SEVILLA III                                 0501
A0101401090171195891002JIMMY DV PAYOT                                           0501
A0101401090171200124001CRISTETA L. SUMERA                                       0502
A0301400530000012273222TORRES, ELMER VILLASIS                                   0504
B0301400530000006477303BUENAS HOME CENTER CORP.                                 1605
A0301400660000014406710CAVAN, SHIRLEY BARUIS                                    0505
A0301400660000002913282**********                                               0503
A0301400660000006862942RCDC TISSUE SUPPLIES                                     0502
A0301400790000012274123BERSAMIN II, ROLANDO ABADILLA                            0501
B0301400790000000435738NEW GREAT LUMBER AND CONSTRUCTION                       11602
B0301400790000000435738SUPPLY, INC.                                            21600
A0101401380000001819963ILISCUPIDEZ, LIEZL JANITO                                0502
A0101401380000006542349LIM, STELLA JONES                                        0502
B0101410720000011276732PEOPLE'S GENERAL INSURANCE CORPORATION                   1650
A0101413600000014854705DELA CRUZ, ROCHELLE MARCELO                              0501
A0101413600000009611810ELNORA CAPACIO DBU SPICAE MTKG                          10501
A0101413600000009611810OR CHARMAINE CAPACIO                                    20500
B0101413600000002822740ENA POWER BUILDERS INC.                                  1605
A3101400160000004952632PUMA, MA REINA CRISTINA NUGUIT                           0501
A3101400450000013739603ILAGAN, EVA PUNZALAN                                     0501
A3101400450000014311723BASILIO, SHIRLEY CEREZO DBU                             10502
A3101400450000014311723ROOFLINE TRADING                                        20500
A3101400450223489008001SIO, MINNIE REGINA OR JOSELITO                           0501
A3101400870000017261440BUERE JR., ROMULO DE VERA                                0502
A3101400870000008989833DE CASTRO, RAINIER ELLOSO                                0501
B3001400130000008264933ROSE EXCELLENCE CORPORATION                              1605
A3001400130000001271341SURALTA, GEGINIA MONTICINO                               0501
A1001400190000012244961BANLOS, RHANDY LUMAYAG                                   0503
A1001400190000008743988OLAIVAR, FATIMA ORBISO                                   0503
A1001400190231478374086LORNA A. OMANDAM                                         0501
A1001400480000008502032GAMBE, CAROLYN ESPANUEVA                                 0501
A1001400480000011810238LAO, CHERRY ESTOQUE                                      0502
B1301400760000007820682ROYCE MOTORCYCLE TRADE CORPORATION                       1602
B1901400290261047995001SPOUSE OF THE BLESSED VIRGIN                            11605
B1901400290261047995001HOSPITAL INC.                                           21600
A0101401670000009425543NATCHOR, LITO GAMINO                                     0504
A0101406460272443397001YOUNG, CHRISTOPHER LAWRENCE TAN                          0501
A0101406620000018881704JENNIE ROSE Q. TUBIA                                     0501
A0101406620000014257315JOY A. DAFFON                                            0501
A0101406620273393333001FLORES JR., RICARDO RAMOS                               10501
A0101406620273393333001OR FLORES, ZARA                                         20500
A0101408660000000523802PARINAS, SHARA CALLOS                                    0501
B0101411240283004670001GRAND LARAIN PRODUCTIONS CORP.                           1605
B0101411240283069724001ORANGE PILL CREATIVE AGENCY INC.                         1603
B2601400270000006014784NEW AMITY HOTEL CORPORATION                              1603
A2601400270000014231339VIRAY, BRIGIDA AMIGO                                     0501
B1101400120000006186883ONG, VIRGINIA PO AND ONG, WAN LIAN PO                    1601
A1101400120000006081078ANDRADE JR., ROSARIO RUBIS                               0502
A1101400120000013536751CO, GENEVIEVE ANNE ANG DBU PLAN                         10501
A1101400120000013536751ET NINE TRADING                                         20500
A1101400120313478374067COSTIMIANO, LUCY DEJERO                                  0501
A3401400280000001723495JENNIFER G ONG OR JOHN OWEN ONG                         10501
A3401400280000001723495OR JOAQUIN C GOCHANGCO JR                               20500
A3401400280000003493936LOSANDE, CARLO BEN LOPEZ                                 0501
A2901400130000009071905MALIGALIG, MARIEL BELARMINO DBU                         10503
A2901400130000009071905MARISCO HARDWARE                                        20500
B0101402510341023155001**********                                               1620
A0101402510341433983002********                                                 0505
A0101402060351211701003MA. DOLORES C. DANNUG                                    0503
A0101402060351434332001CRISOSTOMO JR, REYNALDO                                 10502
A0101402060351434332001VILLAREAL                                               20500
A0101409050000019015120DIZON, NOLD MICHAEL ALLEIN CLAR                          0501
A0101409050000019015448TAYLOR, DALE THOMAS                                      0501
B0201400760374055989001GOLDEN GREAT PEAK ENGLISH INC.                           1601
A0201400760000013669111TAPIA, ADELIE M                                          0502
A0101408790000004983622RIVAS, RODERICK ECHON                                    0501
A0101408790000004697112FERRER, PENELOPE DE GUZMAN                               0501
B0101408790000014115970OKONOMIYUMMY INC.                                        1601
A0101408790383698989001CANDELARIA, MARY JANE DOMINGO                            0502
A0101405490000018028127BARREDO, RICHARD FLORES                                  0501
A0101408400394757729001RANGEL, MARILYN LLANZA                                   0502
A0101408950000006424820SUBIDO, HARLEY LICUDINE                                  0501
A0101408950000000776621VISTA, EMMERSON GALE SILVERIO                            0502
A0101409210000001294275PINEDA, FEDERICK JOHN RAMOS                              0501
A0101409210000005529762BENJAMIN NOEL A. ESPINA                                  0501
A0301400820000002272055DELA VICTORIA, MERLE D.                                 10502
A0301400820000002272055OR JEMINO, ELMAMER P.                                   20500
A2401400180000019023399ABDUL, DANTE UBANA                                       0501
B1201400150000011415802TIONG, FERNANDO SO DBU TG HOME BUIL                      1610
A0901400220000001805090**********                                               0502
B0101403030441011866003**********                                               1610
A0101403030441239049001**********                                               0501
A0101412890000003508223MOCON, ALFREDO MUTUC                                     0501
B0501400170481018109002CSI WAREHOUSE CLUB INC.                                  1604
B0501400170481025398002COSTSAVER'S SUPERMARKET, INC.                            1601
A1901400320000014027048GREGORIO, PATRICIO REYES                                 0501
B3801400170490067782001MINDORO GEOTHERMAL POWER CORPORATION                     1602
A3801400170000000018857JUAN PAOLO G LUNA                                        0501
A1901400160000018891424FAJILAN, JIMBO MERCADO OR                               10501
A1901400160000018891424FAJILAN, JANEL BAJARO                                   20500
A1901400160491488114001RON VINCENT G CAGUIMBAL                                  0505
A1601400170000009954323BRIOL, FELMOR BOLON                                      0501
B0701400260000007895810PRINCETON ENTERPRISES INCORPORATED                       1603
B0701400260000007895843NUEVA CACERES TECHNOLOGY SOLUTIONS, INC.                 1601
A0101405940000015247744BELARMA, JANETH AGUITONG                                 0501
A0101408530000014733565ZAPATA, JAPHILLEE                                        0501
A0101408530000002260173COSEIP, ROGER LIM                                        0501
A0101408530000000035936PARK, JEE WHAN                                           0501
A0101403450521282364001**********                                               0502
A0101403610531662330001BERROYA, MARK LESTER AMOR  OR                           10502
A0101403610531662330001BERROYA, CONNIE                                         20500
A2201400250000019022090MEDINA, CHRISTIAN ADRIAN CABRER                          0502
A2201400250561296301002MARIA ANTONETTE I. BELMONTE                              0501
B0101404130000005961993PHILIPPINE PASTRIES INC.                                 1601
A0101412180000016105923NUEVO, LOVELYN MESHI                                     0505
A0101407690000019023942ALCANTARA, ORIEL PAITAN                                  0503
A0101407690000015971114FERNANDEZ, NELIA SORIANO DBU                            10502
A0101407690000015971114ANNCOLEDREI TRAD                                        20500
B0101407690000000243843IDESCO CONSTRUCTION AND DEVELOPMENT CORP                 1602
A0101411530654652670001ROBERTO R. LEYBA                                         0501
A0101413440000002125348GUTIERREZ, MA. ARLENE MUNOZ                              0502
A1301400210000003104912ZEN TEN TRUCKING AND HAULING SE                          0501
A1701400230000012227575MARAPAO, JOSEPHINE EVANGELISTA                           0502
A1701400230000002762985RUBIO, J DBU JOE 10'S                                   10502
A1701400230000002762985RESIDENTIALS                                            20500
A0101408240000008854344ORDONEZ, NATHALIE OR NICOLE                             10501
A0101408240000008854344MICHELLE OR MARC                                        20500
B0101408240000016419751*************                                            1605
A0101408240711378646001FELMA C. ONG                                             0502
A2801400100000011911618GAYLAN, KACELYN FERNANDEZ                                0501
B2801400100712032123002ZAMBALES MEDICAL MISSION GROUP HOSPITALS                 1602
A2801400230000011922068CASER, RONALDO VENTO                                     0501
A4101400260000009533553BANGILAN, JAHMAE JIMENEZ                                 0502
A4101400390000007459661LIM, LEAH JIMENEZ                                        0501
A4101400390000018403533EDRIS, SAIDIE MAROHUM DBU KHAIL                         10501
A4101400390000018403533MOBILE PHONE & ACCESSORIE                               20500
B4101400390813766574001SCIENCE TECHNOLOGY INSTITUTE OF ROSARIO                  1602
B4101400420000009392076**********                                               1603
B4101400420000006643387LEAD WITH INTEGRITY AND GOOD GOVERNANCE                 11605
B4101400420000006643387IN HELPING COMMU                                        21600
A0101412340000010368179BLESSIE ROSE L. CARPENA                                  0501
B0101404840851021512001STI COLLEGE ALABANG, INC.                                1603
A0101404840851046725004NELIA MANINGULA                                          0501
B0101404840000006365320FAST TAT CREDIT SERVICES INC.                            1602
A0101406750000017983345MACINAS, JOHN PAUL SUNGKIP                               0501
B0101406750000005608431METROWIDE HOMEBUILDERS, INC.                             1620
A0101406750852478374002TERESITA LIWANAG                                         0501
A0101405070000011795778CHEN, YI                                                 0501
A0101405070000018007922CHIARA BERJA JAVA                                        0501
A0601400230000003016002HIZON, ANGELICA OLALIA OR                               10502
A0601400230000003016002MALLARI JR, SIXT                                        20500
A0601400230000013259519LORENZO-REDOBLADO, ZARINA GUEVA                         10502
A0601400230000013259519OR YAO, REGINA C                                        20500
A0601400230000015248792MENDOZA, LESLIE TORIO                                    0501
