A0301400530193047804088**********                                               0504
B0101401670271015326002GIFT GATE, INC. KITTY KIOSK                              1602
A0101412890000012474061PORTO, CHARMAINE RAMOS DBU                              10501
A0101412890000012474061GRIZZLY JUNGLE FOOD SERVI                               20500
A0101411370000002269423RAMOS, PRESCILLA CALAMBA                                 0501
A0101400150000000760667**********                                               0501
A0101400150000009400173DIMAANO, KERIMA ROSALIND                                 0501
A0101400150061468533001LO, NONIE YOUNG                                          0501
B0101400150061554238001ALL PURPOSE APPLIANCES & MULTI-PROD                      1602
A0101400150000000760645**********                                               0501
A0101400440000000596630MARY ANN A. OYARDO                                       0501
A0101400440161525001103OFELIA B. OLERMO                                         0501
A0101400440161591337001JENESSEY A. RANCES OR                                   10502
A0101400440161591337001JESSIE O. RANCES                                        20500
A0101401090171364415001JULIE ANN E. CRUZ OR                                    10501
A0101401090171364415001ROSEMARIE E. CRU                                        20500
A0301400790000000040804VILLAMOR, NELSON RONTAS                                  0501
A0101401380201410261001PASCUAL, RACQUEL VICENTE                                 0502
B3001400130000000931322ML_BUILDERS INC.                                         1605
B0101408660000001940609TAN BON DIONG, MARIANO DBU PLEASANT                     11601
B0101408660000001940609SPRING ENTERPRIS                                        21600
A0101400570281235501001CARLOS TIU OR ROSARIO TIU OR                            10501
A0101400570281235501001CHRISTOPHER TIU                                         20500
A0101400570281443866001ANA MARIA S. POHANG OR                                  10502
A0101400570281443866001KATRINA S. MARTI                                        20500
A0101400570000001681927ANA MARIA LORETTA S. POHANG                              0502
A0101411240000000011985SAN DIEGO JR., PEDRO PASCUAL OR                         10501
A0101411240000000011985SAN DIEGO - YAP,                                        20500
A0101411240000002332401BELTRAN, CHRISTOPHER YASON                               0501
B1101400120000000652937SALINAS, ANTONIO DELA CRUZ AND                          11605
B1101400120000000652937LLAGA, DAVID S.                                         21600
A1101400120313478374071ZACARIAS, MARIA FE LERIOS                                0501
A6601400120000001065383ALEXANDER SY OR RITA NILA CHY                            0502
A6601400120314627037001LIM, JOSELITO CHENG                                      0503
B2001400290000007832393WEE, VERNA LIZARDO                                       1601
A0101405650000001911962LANSANG, GIANCARLO VITAL                                 0501
A0101405650322325947001CATALINA FUNTILA OR                                     10501
A0101405650322325947001CAROL PAULINE FU                                        20500
A0101409050000002652902BALISONG, ANALENE V.                                     0501
A0101409050000007511806VALLE, ARLENE REBELLON                                   0501
A0101408400394432946002****                                                     0502
A0101409180000003780501MANALO, BJORN LLOYD                                      0501
A0101412890000005945093FRANCISCO, DOJIE DIZON                                   0502
B0101408530516033357001FIRST METALEX MANAGEMENT CORPORATION                     1603
A0101412050000005910932NERI, MARIA RITA MOSQUERRA                              10503
A0101412050000005910932AND NERI, NERISS                                        20500
A0101412050000000697229********                                                 0504
A0101404130601450200001LIE, LAI HOCK                                            0501
A0101407720000002693190ALMO, ANNA FLORA                                         0501
B0101409920650821100608**********                                               2003
A0101413570656057648251ROD MARK VILLADOS                                        0501
A1301400210000000023401*******                                                  0502
A1301400210682247595003EDILBERTO C CRISOSTOMO OR                               10502
A1301400210682247595003CAROLYN R CRISOS                                        20500
B1301400210682248659001ASIANLAND STRATEGIES CORPORATION                         1605
A1301400210682356262001MIGUELITA M. VINTA OR                                   10501
A1301400210682356262001SOLOMON T. VINTA                                        20500
A1301400210000002909180KABILING, ANNALIE SANTOS                                 0501
A4101400260000010623731QUIRAP, JERIZAL F. OR                                   10505
A4101400260000010623731BAGO, MARIA CRIS                                        20500
A4101400260812566504001GERRY W. ROJAS                                           0501
A0101406750000001491823VILLA-CUTAMORA, SHERRILYN DBU                           10502
A0101406750000001491823DENTAL HAVEN REH                                        20500
A0101400860000007087132*******                                                  0501
A0101400860011498803001**********                                               0501
A0101400860011683703001**********                                               0502
A0101411370000000470411CATANGUI, ANTONIO DY REYES                               0503
A0101400150000000807818OBLEPIAS, MILA BACANTO                                   0501
A0101400150000009400026MELINA CONCHA                                            0501
B0101400150061013531001EXPAT COMMUNICATIONS INC.                                1603
B0101400150061040150001OKEELANTA CORPORATION                                    1603
B0101400150061044840001AFS PHILIPPINES, INC.                                    1601
A0101400150061047454001METRO BAKERS PRIME REALTY, INC.                          0502
B0101400150000009694546LUCKY ONE REALTY VENTURES INC                            1601
A0101400150061091484001VELOSO, BENILDA ANCHETA OR                              10503
A0101400150061091484001ANCHETA, ALONZO                                         20500
A0101400150061231438001NADONZA, RANILO                                          0502
A0101400150061236944008GRACE R. DE ASIS                                         0501
A0101400150061490875001LLEDO, RUMAR JOSEPH AGLIAM                               0501
A0101400150061543260001GABRIEL, EVELYN AGUILAR                                  0501
B0101400600071233610005********                                                 1601
A0101400600071233620001********                                                 0505
B0101405810072020925003DW PLASTIC CORP.                                         1602
B0101405810072031175001WESTMINSTER INSURANCE AGENCY, INC.                       1603
A0101405810072063879001FRANCISCO, MARIETTA DILAG DBU P                          0501
B0601400100081013032002MT. VIEW BIBLE BAPTIST CHURCH                            1605
A0601400100081065284001FIGUEROA, ROXANNE SUFICIENCIA                           10502
A0601400100081065284001DBU SICHER ENTER                                        20500
A0601400100081382865003REYES, LIBERATO OR                                      10502
A0601400100081382865003REYES, ROUEL                                            20500
A0601400100081504737001KAW, GEMINI DEANG                                        0501
A0101414090000003314821QUIAMBAO, LIZA DIZON                                     0501
A0101410850000000005790OCHOA, MELONA ALBIS                                      0503
A0101410850000011219291YLAGAN, MARY JANE DIMAISIP                               0502
B0101410850000000005643LIKAS YAMAN SERVICE CORP.                                1606
B0101410850000000005687METRO MANDAUE SERVICE CORP.                              1604
A0101410850000000005712MACANAYA, AMELIA DBU NUMBERS                            10501
A0101410850000000005712AND LETTERS LEAR                                        20500
A0101410850000008264084GUILLERMO, I DBU MSG BOTTLE                             10503
A0101410850000008264084WASHING                                                 20500
B0101410850000003503700UNITED STATES EMBASSY FILIPINO                          11601
B0101410850000003503700EMPLOYEES                                               21600
B0101410850000003503722AKARI LIGHTING & TECHNOLOGY CORP.                        1601
A0101410850109554406001DELA CUESTA, ZHEENA CHOO                                 0502
A0101410560000000590589MARIA MINERVA D. DE LEON                                 0501
B0101400730111016953001EVA AIRWAYS CORPORATION                                  1601
A0101400730111419021002**********                                               0501
A0101400730111520766072NORMA VENTURA                                            0501
B0101400730000008233436NORTHSTAR TRAINING & CONSULTANCY INC.                    1601
B0101406040112036463001GOHOC BROTHERS INC.                                      1602
B0101406040000000096695FORMULA OIL CORPORATION                                  1601
A0101406040112278057001MA. TERESA B. CHAN                                       0501
B0101401960121751893001NGO, GRACE JIM                                           1601
A0101413150000003208255HAI HUAT, EKING KHO                                      0501
A0101412630000002040613SIOSON, IRINEO PICITO                                    0501
A0101412630000002040653ABES, MA CECILIA PADILLA                                 0501
A0101401830000000865083ZABALA III, ARMANDO CABUTAJE                             0501
A0101401830000003508632LIM,JOVEN AGUILAR                                        0502
B0101401830141012996001SUBWAYS MARKETING                                        1605
B0101401830000001282257CONSTANTINO GUADALQUIVER & CO.                           1601
A0101401830141205402002ZABALA JR., ARMANDO V. OR                               10502
A0101401830141205402002ZABALA, CRISTINA C.                                     20500
A0101401830141281212001IMELDA G. CABALUM                                        0502
A0101401830141422748001ELVIRA P. MEDINA                                         0501
A7201400170000011454414ISHIBASHI, ROWENA VIRTUDEZ                               0501
A0101412920000011166680NOLASCO, MA CRISTINA RIVERA                              0501
B0101400440161048165001UNITED PERLITE CORPORATION                               1601
A01014004401614783740062OSEPHINE R. VEGA                                        0501
A0101400440161478374126DELIA SERRANO                                            0501
B0101407270162037605001MAINE CITY PROPERTY HOLDING CORP.                        1610
B0101407270162062361001METRO STONERICH CORPORATION                              1601
A0101407270162242894001SIOSON, CHARLOTTE ESTUISTA                               0501
A0101401090171194904001DR. NERISSA SANTOS                                       0501
A0101401090171195733001JOEHANNA KHO NGO OR                                     10503
A0101401090171195733001WILLIAM NGO                                             20500
A0101401090171196099001MARY JEAN V. GUNO OR                                    10501
A0101401090171196099001ATTY. TOMAS GUNO                                        20500
A0101401090171199858001RODELIO DOMINGO LIM                                      0502
B0301400530000006239450FLORIDA, DELAILAH BALILI                                 1605
A0301400530000005001669CORTEZ, LEAH CASAS                                       0501
A0301400530000000025345OROSET PHARMA, INC.                                      0502
B0301400530000003088140PALMCITI RICE MILLING CORPORATION                        1605
A0301400660000005691767VILLALBA, ERIKA MAITA VILLAGRAC                          0501
B0301400950000002115873TRANSYLVANIA TRANZPORT, INC.                             1601
B0301400950000002115719**********                                               1601
A0101401380000001412673GARCIA, DOMINIQUE GUERRERO                               0501
A0101401380201554626001BANGURAN, MYRNA BRINGAS                                  0501
A0101401380201725122001****************************                             0504
B0101410720653048111001PERIDOT PARTS SALES & SUPPLY INC.                        1602
A0101410720000001602266TAN, LEONCIO HA OR                                      10502
A0101410720000001602266TAN, LILY HONG                                          20500
A0101410720653380605002DR. ANNE MARIE REALISTA PE                              10505
A0101410720653380605002AGUIRRE-ENECO                                           20500
A0101410720000000882862CASTRO, JASMIN PABLO                                     0501
A0101412500000013299664OLIVETE, JOSEPHINE CRUZ                                  0501
A0101413600000003851290DINA L. CHAVEZ                                           0502
A0101413600000002122281JOHNNY M. PRONACI JR.                                    0501
B0101413600000005524807TRUCKMASTER GOLDEN BODY MFG. CORP.                       1601
A3101400160000013301574JOSE DENNIS O SALARIA SR DBU                            10501
A3101400160000013301574BADBOO TRANSPORT SERVICES                               20500
A3101400450223529066001MORENO, MICHELLE CALALO                                  0503
A3101400870000005409901UY JR., JAIME CO                                         0504
A3001400130000008264864CACAFRANCA, KARL RUSSEL INOCENC                         10501
A3001400130000008264864IO                                                      20500
A1001400190000005709140TAN, RENARIO TOYLO                                       0504
B1001400190231028130001CALINGASAN TRANS                                         1602
B1001400190231029523001RIVER VALLEY GENERAL MERCHANDIS                          1602
A1001400350000012928053SY, AMY BO                                               0501
A1001400350233078715100TY, RENE TAN                                             0501
A1001400350233170180001KUO AN TAI OR LAWRENCE ILARDE                           10503
A1001400350233170180001OR RICARDO RAMIR                                        20500
A1301400470000001299101ROYLITO G. PAEZ                                          0501
A1301400470252431548001DR. JOSE RAVINAR AUSTRIA OR                             10502
A1301400470252431548001DRA. AURA LYNN AUSTRIA                                  20500
A1301400760000005379520LUIS V. CHUA                                             0503
A1901400290000003435663ANNALIZA PANGANIBAN GAMEZ                                0502
A1901400290261389616001ROBERITA C BUNQUIN                                       0501
A1901400290261619814001MARIBEL DAGPIN REYES                                     0501
A0101401670000001598452SARMIENTO, LOURDES GARCIA                                0502
B0101401670000000178596CECILIA BARCELONA & MARITESS GALLARDO                    1601
A0101401670000008015427MANUEL, CHARMAINE MARA ORPIANO                          10501
A0101401670000008015427OR JEHOSHAPHAT D. LAGUYO                                20500
B0101401670271022313001PASDA, INCORPORATED                                      1603
B0101401670271024753001LYRIC PIANO & ORGAN COPORATION                           1605
B0101401670000004588434LYNCOR, INC.                                             1601
B0101401670271047787001GLENWOOD TECHNOLOGIES INTERNATIONAL, INC                 1601
B0101401670000004588514BAYO MANILA INC.                                         1601
A0101401670271523549001AQUINO, EDWIN ANGELES                                    0501
A0101401670000003675241SALAZAR, ABEGAIL BERNARDO                                0503
A0101401670000003675223SALAZAR, ARMIDA BERNARDO                                 0503
A0101401670000003675212SALAZAR, ANGELA BERNARDO                                 0503
A0101401670000002341680PENAFLOR, MARIA CECILIA OR                              10501
A0101401670000002341680MARAVILLA JULIETA                                       20500
A0101406460000002330989********                                                 0501
A0101406620000000962192FELIX, REYNALDO BARCELO                                  0502
B0101406620000000015005CARPIO & BELLO LAW OFFICES                               1601
A0101406620273236978001CALLEJA, HOWARD MACEDA                                   0503
A0101406620273281364001BANTIGUE, WILLIAM ANISCO                                 0504
B0101406620273398177001****                                                     1601
A0101406620273536554001ONG, RAMON UY                                            0503
A0101406620000000051101LITMAN, JOEL AARON                                       0502
A0101406620273681482001GUTIERREZ, PAOLO LORENZO CASTAN                          0502
B0101408660274035619001YUTIVO CORPORATION                                       1610
B0101408660000000034335PROMARK INDUSTRIES, INC.                                 1601
A0101408660274298552001DELA SOLEDAD JR., JOSE E.                                0501
A0101408660274762463001ALBERT, MARY ROSE ORAYANI                                0501
A0101411110000000009189**********                                               0501
B0101411110000000009010**************                                           1603
B0101411110000007950841NICHE PLAY INTEGRATED MEDIA INC.                         1601
A0101411820000001356430FRANCIS S. LIM                                           0501
A0101411820277792428001YAP, JOHN MILTON EMBILE AND                             10502
A0101411820277792428001ESPOSO, JULIUS Y                                        20500
A0101412470000002295827KO, JANET                                                0501
A0101400570281022080002COSMOPOLITAN AD                                          0510
B0101400570281024066001168 SPA AND FITNESS CENTER                               1605
A0101400570000001681892LEAH ACOSTA OR                                          10502
A0101400570000001681892LEONILA PE ACOST                                        20500
A0101400570281191853002GREGORIO, JULIETA ORBISO                                 0501
A0101400570281376002002**********                                               0502
A0101400570281527862001CORNEJA, ANNA LYN CANONES                                0501
A0101400570281709222001DOMINGO, IRENE MISTA                                     0501
A0101411240000011705569MAGNO, ARRIANA JESSIE REYES                              0501
A2601400270000002312152SONILYN C. LACA                                          0502
A0801400160311638278001DE ARROZ, ELMA SAMPIANO                                  0502
A0801400160000000009418BALADAD, HELEN FRANGUE                                   0501
B1101400120000006186832THE REAL ALTERNATIVE INVESTMENT MULTIPUR                11602
B1101400120000006186832POSE COOPERATIVE                                        21600
A1101400120000001920634GUIRON, TERESA GALLARON                                  0501
A1101400120313478374068BIGOY, DONABEL CABIDOG                                   0501
A6601400120000000060682ALBAY, JOHN QUIJANO                                      0501
A6601400120000000022328MACABUHAY, MARIA LORENA PONELAS                          0503
A6601400120314612902001RAMIREZ, ETHEL O OR ROMEO C                              0501
B2001400290315028080001GLOBAL POWER EQUIPMENT MARKETING CORP.                   1602
B2001400290000002406628RAMAS UYPITCHING, NICOLAS S DBU NRU                      1608
B2001400290315055027001ROTARIAN MARTIN 'TING' MATIAO FOUND                      1601
B2001400290315058509002SILLIMAN ALUMNI ASSOCIATION, INC.                        1605
A2001400290000004890013F AND B BEAUTY AND WELLNESS                             10502
A2001400290000004890013CORNER                                                  20500
B0101405650322041937001TAYLORMADE HAULERS, INC.                                 1603
B0101405650000000772834MIFFI LOGISTICS CO. INC.                                 1605
B0101405650000005382054MBA MILES PADALA, INC.                                   1602
B0101405650000006273145SEVILLA, NESTIA PAULINE AGUDON DBU                       1603
A0101405650322526192001FUNTILA, CAROL PAULINE TAMAYO                            0501
A0101409050000003536401FONACIER, SUZETTE                                        0501
A0101409050000007216048JUAN MIGUEL ALEGRE                                      10501
A0101409050000007216048EMPLOYEES OF, DELL                                      20500
B0101409050352641048001FRANDREA CORPORATION                                     1601
B0201400760374027058001ABOITIZ LAND INCORPORATED                                1603
B0201400760000005016784GEMMARY PAWNSHOP AND JEWELLERY, INC                      1601
B0201400760374457845001PROPRIEDAD DEL NORTE, INC.                               1603
A0201400760000008869845SOLON, ENRICO MENDOZA OR                                10501
A0201400760000008869845MEDINA, ADELE ME                                        20500
B0201400920375042228001MOTOR ACE PHILIPPINES, INC.                              1601
A0201400890000005159957***************                                          0501
A0201400890376506755001SARMIENTO, ANDREW PHILIP OR                             10502
A0201400890376506755001SARMIENTO, JENNIFER                                     20500
B0201401020000005109893PILIPINAS LOGISTICS & TECHNOLOGIES                      11605
B0201401020000005109893SOLUTIONS INC.                                          21600
B0201401020000007458133GOMEZ BROTHERS SHIPPING LINES COMPA                      1601
B0201401020000002250642********                                                 1602
B0101402930381022956001HUMANITARIAN LEGAL ASST. FOUND. INC                      1605
A0101402930381208083001LEONARDO S. CUEVAS                                       0502
A0101408370382288390002DR. ALFONSO U. BENGZON                                   0502
A0101408370382393148001DR. VINCENT NOEL M. OCAMPO                               0503
A0101402770000003487996CARTA, REMEDIOS ENRIQUEZ                                 0501
A0101402770000000080544BALLAD, SHERELENE RAMOS                                  0502
A0101405490000003633156ALMEDA, ABIGAIL YAPCHING                                 0502
A0101405490392040671001JUPX CAR RENTAL                                          0505
A0101405490392173389001RICARDO R. GO OR                                        10505
A0101405490392173389001EVELYN  GO                                              20500
A0101408400394311423002GUEVARA, NORMA RAYOS DEL SOL                             0501
A0101408400000003421445ANONUEVO, JEANELYN MALANO                                0503
A0101408400394639219001ROMERO, FRANCISCO GABION                                 0501
B0101408950000002768381SLMC BONIFACIO GLOBAL CITY MAB CORP                      1603
B0101408950000004428671FWD LIFE INSURANCE CORPORATION                           1620
A0101408950396594011001MA. TERESA V. PEJI                                       0501
A0101409180000003813078BERMUNDO, MARIVIC B.                                     0501
B0101409180000002036799NEXT COFFEE FRONTIER, INC.                               1602
A0101412210000009674268VILLEGAS, KHRISTINA CAY BELAN                            0501
B0101412210399054995001LIVING INNOVATIONS CORP.                                 1601
B0301400820000000024911DIGOS DOCTORS' HOSPITAL, INC.                            1620
A0301400820000004745962NAKILA, ARMAGIDON M.                                    10502
A0301400820000004745962DBU ALDON PJ MARKETING                                  20500
B0301400820000008105571COMEDIDO, DANTE L. DBU DL COMEDIDO                      11606
B0301400820000008105571BAKESHOP                                                21600
A5501400120000000046940MARMONEJO, HERNANE AND MARMONEJ                          0501
B5501400120000006976927DEDASE, WILBERT VALENCIA                                 1605
A5501400120410636179018CHIU, VALENTIN & JULIA EILEEN                           10504
A5501400120410636179018& CHRISTIAN & CH                                        20500
A2401400180000003949151ONG, JANNETTE KO                                         0501
B2401400180411040788088KCC PROPERTY HOLDINGS, INC.                              1605
B2401400180411055615001SOUTHERN VENTURE POULTRY FARM INC.                       1601
B1201400150421037068001SAINT LOUIS UNIVERSITY, INC.                             1601
A0901400220432294143001**********                                               0502
B0901400220432821100608**********                                               2002
A01014030304410294890015*********                                               0506
B0101403030441631353002ANG CHING HUAN & SONS RESOURCE PHIL INC                  1603
B0101412890000001765255DIAMOND MOTOR CORPORATION                                1602
A0101403320000013284641RODRIGO Z ROLDA                                          0501
A0101403320000000522381DELA PAZ, CHAUNCEY RAJAL DBU                            10501
A0101403320000000522381GABTECH MEDICAL TRADING                                 20500
A0101403320471429191002CECILE CABALLA                                           0502
A0101403320471708761001TOLENTINO JR., ARCADIO DATUIN                            0501
A0101406330000001235329BALUARTE TRUCKING                                        0502
A0101406330472215990001DFB GLASS & ALUMINUM SUPPLY                              0502
A0101406330472477539001MA. VICTORIA G. DIEZ                                     0501
A0101410140000001939922ENCALLADO, CARLO CRUZ                                    0501
A0101410140000001939922ENCALLADO, CARLO CRUZ                                    0501
A3801400170000005702723DE LEON, ANTONIO ROXAS OR                               10502
A3801400170000005702723DE LEON, JESITA                                         20500
A1901400160491244512001MELVA A REMO OR MONINA A REMO                            0501
A1401400110000000628615SANTOS, JOEY ROSLIN                                      0501
B1401400110492010098003CASEI MARKETING CORP.                                    1601
A1401400110492584159001JAMES TEE OR                                            10506
A1401400110492584159001SALLY TEE                                               20500
B1601400170494051437001CHASE MEGA CORPORATION                                   1601
B1601400170494065819001DELA PENA, RAUL DUMDUM DBU CLARAHIL                      1601
B0101407430503006924001ALL TRANSPORT NETWORK INC.                               1603
A0101407430503558041001MARIA CRISTINA VASQUEZ MENDOZA                           0503
A0101407430503720018001ERNANI C. CAPISTRANO                                     0501
B0101407430503733173001AIRTROPOLIS GSA PHILS. CORP.                             1610
A0101403580000003311695ELIZABETH L. VY OR                                      10501
A0101403580000003311695ANABEL N. TAN                                           20500
B0101403580511026347001PC TECH,INCORPORATED                                     1601
B0101403580511026347002PC TECH, INCORPORATED                                    1601
B0101403580511155828001JOUBERT CONSTRUCTION INC.                                1610
A0101403580511160530001MIRIAM F. BERNARDINO                                     0501
A0101403580511327712001EMMA F. MARQUEZ                                          0502
A0101403580511376485001JUVENAL T. ONGLAO JR. OR                                10501
A0101403580511376485001MARY ARLENE S. ONGLAO                                   20500
B0101405940000005359593STAR MOTOR ARMORING TECHNOLOGIES, INC.                   1602
A0101405940000004476233MORQUEDA, ADORA BASTISTIANA                              0501
A0101408530516558878001HENSON, HERSHEY KATE A.                                  0501
A0101408530000001268640PELANTE, JENNIFER                                        0501
A0101408530000004648040ROSALES, AMEYRA VIRGINIA                                 0501
A0101411790000000469450TOGUENO, JONAH TROYO                                     0501
A0101411790518055764140FELIX, HERSHEY                                           0501
A0101411790518427760003TAN, ANTONIO TAN                                         0501
A0101412050000000043416********                                                 0501
A0101412050000003966763DE LEON, ARTURO PUZON OR                                10501
A0101412050000003966763DE LEON, WILFRED                                        20500
A0101412050519061409001O.S.A. CLEAN AND COMFY LAUNDRY                          10502
A0101412050519061409001CLEAN SERVICES                                          20500
B0101403450521011774002**********                                               1602
B0101403450521012122001**********                                               1605
A0101403450521238122001**********                                               0501
A0101403450521366584001**********                                               0501
A0101403450521513902001LIM, LE LING                                             0503
A0101403610000012945325PILI, RUEL S DBU GIMAYA FOOD                            10502
A0101403610000012945325STOP OR PILI, GISELLA                                   20500
A2201400250000002337873LEMUEL A. JUAN                                           0501
A2201400250561256082002JOSEPH P. CORTEZ                                         0504
A2201400250561258531005DENNIS F. BALIGNASAY                                     0501
B0101410690000000001816UNICOMM INGREDIENTS PHILS., INC.                         1601
B0101404130601026918001GOSHEN DEVELOPMENT CORPORATION                           1601
B0101404130000003105751GOLD NUGGETS HAULING AND TRUCKING CORP.                  1602
B0101404130601100096001COCA-COLA EXPORT EMPLOYEES COOPERATIVE                   1602
A0101404130601298918002PRIETO, MARIXI RUFINO                                    0502
A0101404130601378536001VALDES, MA. THERESA PRIETO JT                            0502
B0101404130000000696157JCASH, INC.                                              1601
A0101404130601506280001BAYSIC, EDEN AUSTRIA                                     0502
B0101407720602035342001MULTI-ACCESS COOPERATIVE                                 1602
A0101407720602296154001MA. BARBARA MARQUEZ DOMINGO                              0503
A0101407720602461436003JANICE STEPHANIE                                        10503
A0101407720602461436003GIMENEZ-MENDOZA                                         20500
B0101412180000000075381BARRELLS MONARCH HOLDINGS INC.                           1602
B0101412180000001292991RELL'S AGRI AND TRADING CORPORATION                      1603
A0101412180000000259541********                                                 0502
A0101412180000002296751CARLOS, LICHELLE DARA ESPADA OR                         10501
A0101412180000002296751CARLOS, ROMEL MANANSALA                                 20500
B0101404260000000003794ONE GLOBAL SUMMIT PROPERTY DEVELOPM                      1601
A0101404260611151571002******                                                   0505
A0101404260000001725468ROSARIO, GAINES MARIE GARCIA                             0501
B0101407690652042221001********                                                 1603
A0101407690000001919902OSTREA, MARILOU DBU M. ZOILO                            10501
A0101407690000001919902TRADING                                                 20500
A0101407690652207358001ARIEL OR GEMMA BALATBAT                                  0502
A0101413440000011383010CABOJAL, JORDAN ANGELES                                  0502
A0101413440000000570212PALILEO, ARTURO DOMINGO                                  0502
A0101413570000001682599LOLITA L. ALMAZAN                                        0501
A0101413990000006434897CASTILLON, DARIAN M. DBU                                10502
A0101413990000006434897D-MANGADA BAG REPAIR SHOP                               20500
A0101406590662505081001BULAONG, MANUEL JR. ROCHA                                0505
B0101406590662684617001MRBII CONSTRUCTION CORPORATION                           1605
A1301400210682245092001GLORIA S. DELA ROSA                                      0501
B1301400500000005963404PAGASA PHILIPPINES LENDING COMPANY INC.                  1605
A1301400500000002063941GIANT LUMBER & HARDWARE CO.                              0501
A1301400500000005963379EVANGELISTA, ROGELIO CONCEPCION                          0501
A1701400230000001786638PASCUA, MINERVA SINANG                                   0506
A0101408240000000005461SANCHEZ, MARIANO ALTOBAR                                 0501
A0101408240000009452991ROJAS, CARMENCITA SORIANO                                0502
A0101408240000012316022DAYRIT, CONNIE CRUZ                                      0501
B0101408240711023689002ENL COURIER EXPRESS, INC.                                1601
B0101408240711036897001EVER THEATRICAL, INC.                                    1601
A0101408240711383964002MA. ESPERANZA OR LAMBERTO MEER                           0502
A0101408240711383964003MA. ESPERANZA OR                                        10502
A0101408240711383964003LAMBERTO MEER JT                                        20500
A0101408240711479108001ENVERGA, WILFRIDO MARK M.                                0503
A2801400100712295699001HERMINIA L. DEL AGUA                                     0501
A4101400260812015061001AUTO AIRE CAR AIRCON SERVICES                            0502
A4101400390000000379373CHUA, MARIA MILAGROS LIM                                 0501
A4101400390813246359001NORLINDA R. LEGASPI                                      0501
A4101400390813246359002NORLINDA R. LEGASPI                                      0501
A4101400390813723742001**********                                               0503
B4101400420814036388001ANGELORUM SCHOOL INC.                                    1602
A0101412340000003340894MARCUS M. ASUNCION                                       0501
B0101412340000002879998ROMTECH CONSTRUCTION INC.                                1604
B0101404840851021512001STI COLLEGE ALABANG, INC.                                1603
A0101404840000009616020SANCHEZ, MARILYN NOFUENTE                                0502
A0101404840851530598001VILLAMIN, KRISTINE AGUIRRE                               0502
A0101405070861368305002***************                                          0505
B0101405070861667163001ANG SARILING ATIN CULINARY HERITAGE                      1601
A0601400230000002650120CAO, MARIA THERESA TUBIG                                 0502
B0601400230000000029661LI, JAYSON DBU BIOMEGA PETROLEUM OIL                    11602
B0601400230000000029661STATION                                                 21600
A0601400230000007402100ALBANO, GIENAH PACLA DBU HYDROE                          0501
