F0101406750852646434001LIE, HOCK LAI                                            2501CKO
F0101401670271392652002TONGCO, STEVEN GO                                        2503CKO
F4101400260000001673423POTESTADES, MARY GRACE LAJO                              2504CKO
F4101400260812362318002MAXIMO P. SARTE                                          2602CKO
F0101405070861519629001BESA, TRISTAN CAMARA                                     2502CKO
