A0101400150000003164014MAICYL S. BAETIONG                                       0502
B0101406460272036660001***********                                              1603
A0101412920000015712042FERNANDEZ, LEE ANGELO BALLESTER                          0502
B0101400600071236517002******                                                   1602
B0101400600071496801002******                                                   1601
A0101400860000009198321**********                                               0502
A0101401250000016824323OLISCO, MARY JOY OSITA                                   0501
B0101401250000008914621MENDOZA, CHARLAMAINE MAGAS DBU KHRY                      1601
A0101401250000016824312DIMAANO, ANTONIO HERNANDEZ                               0505
A0101401250021309334001NAIDA T. TALIMAN AND                                    10502
A0101401250021309334001S.MA.FLORLINDA V                                        20500
A0101400150000009399740ANCHETA, TERESITA MEDINA                                 0501
B0101400150061011113001PLUS PROPERTIES, INC.                                    1601
B0101400150061044906001G-GATEWAY MOBILE PHILIPPINES INC.                        1601
B0101400150000000052902228 ORTIGAS AVENUE CONDOMINIUM CORP                      1603
B0101400150000009694648KEYLAND SALCEDO LAND CORP.                               1602
B0101400600071325133001**********                                               1602
A0601400100081761267001PECSON, ELLER VILLANUEVA AND                            10501
A0601400100081761267001PECSON, ROMMEL V                                        20500
A0601400520000002086051FRANCISCO, MARRY ANN RAMIREZ                             0503
B0601400520000005943666EGG MASTER ASSOCIATION, INC.                             1603
B0101400730000001216379INSURANCE COMMISION FAO THE PREMIER INSU                11603
B0101400730000001216379RANCE & SURETY C                                        21600
A0101401960000001844511**********                                               0501
B0101401960121339004001**********                                               1601
A0101413150000000082740******                                                   0502
A0101412630000000801621LIBREA JR., ENRICO MAURICE S.                            0502
A0101413310000016902379CUYUGAN, TBRAM GONGORA                                   0501
B0101401830000005577984BILLONES, MARIE ANN DISONGLO DBU                        11602
B0101401830000005577984LEVONTECH ENT.                                          21600
A7201400170000011454345CHIO, JESIEL LACIERDA OR                                10501
A7201400170000011454345CHIO, DAVID ABAO                                        20500
B5001400170000000169824VICTORY CHRISTIAN FELLOWSHIP OF                         11602
B5001400170000000169824ZAMBOANGA CITY                                          21600
A0101412920000016981672RIOFLORIDO, SHEILA ADSUARA                               0501
A0101407270000016485337VILLANUEVA, SHARON SINQUE                                0502
B0101407270000013845571**********                                               1602
B0101407270162016355001ONWARD COMMUNICATIONS & SERVICES                         1604
B0101407270162032578001I.LEARN.CENTER INC.                                      1603
A0101407270162333154022JESUS R. MONTEMAYOR                                      0501
A0101407270162479362001ERYMAR D.C. REYES OR                                    10501
A0101407270162479362001AUBREY S. REYES                                         20500
A0101407270000013577814BUTAC, RUFINA DARIAGAN                                   0501
B0101401090000000772441B.A. ELECTRICAL SUPPLY                                   1610
A0101401090171196008001JESUS OR AMELIA POBLETE                                  0501
A0101401090171196008001JESUS OR AMELIA POBLETE                                  0501
A0301400530193455730088BANO, LILIAN CORPUZ                                      0502
B0301400530193792821088LI, DENNIS JOSEPH T.                                     1602
A0301400660000010222014SAJULGA, DONNA CHRISTY WEITH OR                         10501
A0301400660000010222014SAJULGA, FRANCIS PAJE                                   20500
B0301400660000003368381NEXT BPO SOLUTIONS, INC.                                 1603
B0301400950000005707080BALA, ROY DENNIS CRUZ OR                                11602
B0301400950000005707080BALA, JOANNA RAM                                        21600
A0301400950000001379477CCD AUTO HUB AUTO SERVICE                               10503
A0301400950000001379477CENTER                                                  20500
B0101401380201041802001D'GLACIERS' MGM INC. - MAC                               1602
B0101401380201041802003D'GLACIERS' MGM INC. - ALABANG                           1601
A0101410720653240354001ONG CHIONG, WILLIAM C. OR                               10501
A0101410720653240354001ONG CHIONG, JULI                                        20500
A3101400160000017216530PROTACIO, JONATHAN NADELA                                0501
B3101400450223415324001*****                                                    1601
A3101400870000017212123CRUZ, JESUSA YUPANGCO OR                                10501
A3101400870000017212123GALLARDO, IMELDA FRIAS                                  20500
B3001400130000000067218LIGHT ME UP CORPORATION                                  1601
B1001400350233512004001VILLALBA, CHARLIE L.                                     1602
A1001400480000000133280SABAL, MICHAEL CASINO                                    0501
A1001400480000017146162PALMA, BENJIE CASTRO DBU JPM                            10501
A1001400480000017146162HOME APPLIANCES                                         20500
A1001400480000017181243CASAS, GEMMA ECHAVEZ DBU ECHAVE                         10501
A1001400480000017181243Z KITCHENETTE                                           20500
A1001400480000017228223ABASTAS, LEONICO ACENAS DBU ABA                         10501
A1001400480000017228223STAS MARINE AND INDUSTRIA                               20500
A1001400480000008501940BALANA JR., RICHARD ZAMAYLA DBU                         10501
A1001400480000008501940RBJ ENTERPRISES                                         20500
A1001400480000014023331CHUA, OSCAR MALACAD OR CHUA,                            10510
A1001400480000014023331YIN NA KUO                                              20500
A1301400470000003270453CHRISTIAN VINCENT R. SALAZAR                             0502
A1301400760000017221011JEFFERSON N. LOREZCO OR SHIRLEY                         10501
A1301400760000017221011D. LOREZCO                                              20500
A1301400760000017229711MIRAFLOR GARCIA BURGOS                                   0501
B1301400760253056374001EDNA'S CAKELAND                                          1610
A1901400290000011244692MARIANO BENEDICTO GUTIERREZ JR.                          0501
A1901400290261048991001DRA EDELWISSA ILAGAN GUTIERREZ                           0501
A1901400290000001926285FR NOEL MAGTAAS OR BR LORENZO                           10501
A1901400290000001926285MONEVA OR FR REX ALDAY                                  20500
A0101406460272722876002DOROTHY ALINDOGAN                                        0502
A0101406620000003661454HEO, DAE HOI                                             0502
B0101406620273031145003KOHL INDUSTRIES CORPORATION                              1603
A0101406620273284854001JOCELYN LI                                               0501
B0101406620273459504001SANOSIL PHILIPPINES INC.                                 1601
A0101408660000006296780TOBILLO, PAUL JOSEPH NARVAEZ                             0505
B0101408660274035400001DAXIE RESTAURANT                                         1601
A0801400160311478374004MAELYN HACERMIDA                                         0502
A1101400120000000652642GERNALE, GERWIN CABAOBAO                                 0501
A1101400120000006186343JABINES, DYANN JAIME DBU LA BOT                         10501
A1101400120000006186343ICA DYANN                                               20500
A1101400120313478374067COSTIMIANO, LUCY DEJERO                                  0501
B6601400120314043068001NEW ECONOMY HARDWARE AND ELECTRICAL                     11602
B6601400120314043068001SUPPLY                                                  21600
B6601400120000000060864PALAPAG FINANCING COMPANY INC.                           1601
A6601400120000001370930OBAYAN, DINAH ABAGON DBU LLA                            10502
A6601400120000001370930SADA GENERAL MER                                        20500
A0101402350000014043915ATANACIO, EDITHA LOPEZ                                   0501
B0101402350321046815001CASA DE SEQUOIA-AVILA CONDOMINIUM CORP                   1605
A0101402350321179301001PABLO PEFANCO OR                                        10501
A0101402350321179301001ERLINDA PEFANCO                                         20500
A0101402350321485233001TUI, CHARLES ANGELO                                      0503
A0101402350000005644748BUHAY, DOLORES DIONES                                    0501
A0101405650000015273799ILI, JODEL ZAMBRONA                                      0501
A0101402060000005137291VILLARICO, JEFF VIBARES                                  0502
B0101409050352044117001D VISAGE INTERNATIONAL CORPORATION                       1602
A0101409050352623584001MARLYN A. VILLAPANDO                                     0501
A0101409050352645570003MYRNA P. CUASAY                                          0501
A0201400760374478374015DACAYANA, ROSALIE SIBLA                                  0501
A0201400920000012765072AGUILLON, FILAMIE SANAGUSTIN                             0510
A0201400920000016418223RAMIREZ, ROMEO SALMA                                     0501
A0201401020000015070146NOOL, CONNIE TOMAS DBU FGR INDU                          0501
A0101402930381205134001EDMUNDO SANIEL OR                                       10501
A0101402930381205134001MEDIADORA SANIEL                                        20500
A0101408370382449935001DR. ALBERT JEROME C. QUINTOS                            10504
A0101408370382449935001OR MA. FININA A. QUINTOS                                20500
A0101411660000004597220BONDOC, NARCISA NAVARRO or                              10502
A0101411660000004597220DELA CRUZ, MYRENE                                       20500
A0101405490000011288101ALMEDA, LAURENCE PEREZ                                   0502
A0101408400000008699972UERA, PAUL MICHAEL AGDIPA                                0501
A0101408400394478374056JENNIFER C. TIMOLA                                       0502
A0101408950000007983871SANTOS, VANESSA MENDOZA                                  0501
A0101408950000011077773CASTRO, ROD TAMONDONG                                    0502
A0101412210000015369301SORIANO, CEASAR CANAMA                                   0510
A5501400120000015561016DATO, PEDRO DELA RAMA DBU P.M.                           0501
A5501400120410690381001QUIMSING, SUSAN QUITO                                    0506
B2401400180411016835001GENERAL TUNA CORPORATION                                 1605
A1201400150000000034493YU, MARTINA BAGONA                                       0506
B0901400220432043565001CASA CANELAR PENSION                                     1601
A0901400220432294143001**********                                               0503
A0901400220432478374002EVELYN ALGA DEMECILLO                                    0501
B0101403030441303324001**********                                               1602
A0101403030441594340001**********                                               0501
A0101406330000016160600SANTOS, LUIS ROBERTO SOTELO                              0502
A0101406330472508335002RAMIR R. ALVAREZ                                         0503
B0101410140000007303653YU JR., DENNIS PENERA DBU PITCHERPL                      1601
A0101410140000001074646MEMBERS OF NATASHA (SHOECAT INC                          0501
A0501400170000012633460CANSINO, RAMON SOLIVEN DBU R. S                          0501
A0501400170481253600001NARDING C. CAMERO OR                                    10502
A0501400170481253600001JULIE C. CAMERO                                         20500
A3801400170000012459206CASTRO JR., LEVI MIRANDA                                 0501
A1901400160491086902001DANTE D CALINGASAN OR                                   10503
A1901400160491086902001LERMA D CALINGASAN                                      20500
B1901400160000015840921LIM, VIRGINIA V. OR LIM, RICHARD D.                      1601
A1901400160491476162001GINA A PELESMINA                                         0501
B1601400170000017137576CHAN, RALPH LAWRENCE YAO JT                              1601
B1601400170000017202367ONG, MA. ERLINDA TENG DBU JT                             1601
B1601400170000017203742UNITED EVANGELICAL CHURCH OF                            11601
B1601400170000017203742LEGASPI, INC.                                           21600
A0101407430000004687425NIAH D. NERY                                             0501
A0101407430503478374009HAIDEE F. LIM                                            0501
A0101405940000000061572SOLIMAN, TERESITA L. OR LUIG,                           10501
A0101405940000000061572ISABELA OR LUIG, CARL                                   20500
A0101408530000017219819LOPEZ, JOHN JENNESIS TARROZA                             0501
A0101408530000017216701JABARANI, ALSIMAR FRANCISCO                              0501
A0101408530000017216683LOPEZ, MARK POBLETE                                      0501
A0101403450521238140002**********                                               0502
B0101403610000013681580PH VECTOR ONE, INC.                                      1605
A2201400250000015111387BIENVENIDO P. CHY JR                                     0501
A2201400250000015111230INTAL, HERALDO DBU HERSHEL                              10502
A2201400250000015111230MARKETING OR INTAL SHEENA                               20500
A2201400250000001066073JCP AND 3 SONS TRADING CO.                               0502
A0101404130000006275909DEL ROSARIO, GIZELLE ROSE PADUA                          0502
A0101407720000004665021TONGCO, CRISTINA GARCIA                                  0501
B0101407720000011874721KEYLAND AGUIRRE DEVELOPMENT CORP.                        1603
A0101407720602280481002ARABE, EDUARDO OR                                       10501
A0101407720602280481002ARABE, EMELITA                                          20500
A0101412180000008320170CAPUNO, WILSON CAPIZ                                     0502
B0101412180000003275170TECHNICAL DIVING PHILIPPINES INC.                        1601
B0101412180000001293163********                                                 1602
B0101412180000007360483********                                                 1602
A0101409890000011486532CADAMPOG, MADONNA CARREON                                0502
A0101407690000000587800*****                                                    0501
A0101413440000012579170CAMARA, SONIA LIBUNAO                                    0501
B0101413440000011893180EVOLANDER MOTOR CORPORATION                              1603
A0101413440000014087664V AND C BUILDERS                                         0501
B0101413440000001085621R-II BUILDERS, INC.                                      1603
A0101413570000013901241ESCABAS, MARIA BARBARA CAROLINA                          0502
A0101413990000000726603HERRERA, DEBBIE CAJUCOM                                  0501
A0101413990000016958040CUNANAN, FERMIN L. OR                                   10501
A0101413990000016958040CUNANAN, IMELDA B.                                      20500
A0101413990000016958051REYES, CAROLINA R. OR REYES,                            10501
A0101413990000016958051ALEXANDRIA LOUISE R.                                    20500
A0101406590662297269001MARTINEZ, ARMAN M. OR MARTINEZ,                         10501
A0101406590662297269001MARIA THERESE G.                                        20500
A0101406590662455518001ESTRADA, RAFAEL G.                                      10505
A0101406590662455518001OR REUBEN ENRIQU                                        20500
A0101410300000007614060CO, MAYSIE LAYNE TRESICO                                 0501
B1301400340683012920001MEYCAUAYAN COLLEGE                                       1603
A0101408240000017230170HIGUE, ANDREW DAYO                                       0501
B0101408240000013787034GRILLED CHEESERY MOLITO INC.                             1605
A0101408240000003955431OROBIA, JOSE RAMON INUMERABLE                           10502
A0101408240000003955431JT                                                      20500
B2801400100000003400539SUBIC METRO LANKA INTERNATIONAL COR                      1602
A2801400230000000937548VITUG, QUIRINO DBU VI-JETT                              10502
A2801400230000000937548ACCOUNTING OFFIC                                        20500
A4101400260000012858772ARBOLEDA, MARIA CRISTINA R.                              0501
A4101400260000010623640MANALO, CARMENSITA R.                                   10501
A4101400260000010623640DBU KAY-WON APPAREL                                     20500
A4101400390000007459314SANTOS, RODELIO MARTINEZ                                 0501
A4101400390813248327001DANILO B. SARIEGO                                        0501
A4101400420000015173681LIZA, MICHAEL PALANAS DBU                               10501
A4101400420000015173681KLEENWAY MARKETING                                      20500
A4101400550000001622719MINA, MARY JANE VALDESCONA                               0501
A4101400550815693134001LLANES, TUDOR HERNANDEZ OR                              10501
A4101400550815693134001LLANES, PRESCILL                                        20500
A0101412340000003344323RONALDO G. LUCIANO                                       0501
A0101412340000003349006JEROME KRISTOFFER G. SOLO                                0501
A0601400230000014575814MOROJO, BASILIO JOSE SADANG                              0501
