A3401400280000000002693CRUZ, CONRADO CRUZ                                       0501
A0101412630000000045321**********                                               0502
A4101400420000000120696CARMELA G. ROMA                                          0501
A0601400230000000186867SAPNU, D DBU D.L.S.J GLASS ALUM                          0501
A0101401090000000210460CARDENAS, LILIBETH REYES                                 0501
A0101400860000000414122*************                                            0503
A0101408370000000476660MENDOZA, MONALISA SIMPAO                                 0501
A0101408790000000579733MARCUS AURELIO PISON                                     0501
A4101400420000000710223ROMERO, MARICRIS BAUTISTA                                0501
A0101400440000000821538MARITES T. JIMENEZ                                       0501
A0201400760000001107511OQUIAS, JOCELYN LIM                                      0501
A0301400820000001185575OCHAVEZ, VIRGINIA                                        0501
A0101413150000001288291******                                                   0502
A4101400390000001404233ALFARO, CHARISSE SAQUILAYAN                              0501
A0101401090000001618691TENORIO, MARICEL ENSIGNE                                 0502
A0101413570000001720143JOCELYN F. SALONGA                                       0501
A0301400950000002251952**********                                               0505
A0301400950000002252062SAUDIA D. ABDULGANI                                      0501
A0101411950000002266020LUCIA O. ESPARAS                                         0504
A0101402770000002267132GARCIA, JOANNE RUTH DUMLAO                               0501
A3401400280000002323371BUENSALIDO, RAYMUND DIAZ                                 0502
A0101402930000003179548LAPUS, MELINDA MAE SOLER                                 0502
A0101412340000003349568ELFRED JOHN R. VIDOLA                                    0501
A0101408370000003357173HENRY F. GEPTY                                           0501
A0101409050000003535044PADUA, BERNADETTE                                        0501
A0101409050000003535066PACIFICO, SIR CHRISTIAN                                  0501
A0101409050000003535124LIM, MARK                                                0501
A0101409050000003536149PESTANO, MARY                                            0501
A0101409050000003536183CASTILLO, ARNOLD                                         0501
A0101409050000003536230MALIWANAG, CHERRY                                        0501
A0101409050000003536252RODRIGUEZ, RYAN                                          0501
A0101409050000003536309CRUZ, JOEL DIMAANO                                       0501
A0101409050000003536343BANLAWE, MARK ANMAR                                      0501
A0101409050000003536361GUTIERREZ, MIRIAM                                        0501
A0101409050000003536372RAMOS, MARIA THERESA                                     0501
A0101409050000003536383GESMUNDO, CHARMAINE MARIE                                0501
A0101409050000003536474ARCE, ERIC                                               0501
A0101409050000003536496LUCBAN, PRODENTE                                         0501
A0101409050000003536532LOPEZ, SHIELA MAE                                        0501
A0501400170000003645021ABALOS, FERDINAND DECENA                                 0501
A0101400860011236212001**********                                               0501
A0101400860011354896001**********                                               0501
A0101400860011395102002**********                                               0501
A0101400860011425148001**********                                               0502
A0101400860011793672001**********                                               0505
A0101411080042584632001 *****                                                   0501
A0101400150061401662001DAYAO, ROSALYN ZAPANTA                                   0501
A0101400600071271611001**********                                               0502
A0101400730111718087001PASAGUE, LALAINE TRINANES                                0501
A0101400440161039572095WISHELLE C. RECLA                                        0501
A0101400440161478374164ELVIRA M. ABUD                                           0501
A0101400440161520766031EDITHA FELARCA                                           0501
A0101401090171504210001ALBINA R. GANDALLA                                       0501
A0301400530193778099001GARLEY, LEAH ROSETTE N.                                  0501
A0101401380201038274001CHI-JO RESTO BAR                                         0504
A3101400160221220343001LAARNI A. CALAPATIA                                      0502
A3101400160221386295002ROBERT J. BANATIN                                        0502
A1001400190231283324001GICABAO, BENY CHAN                                       0501
A0101400570281186867001DR. DIANA JEAN ROXAS                                     0501
A0101408820333041763001Y.A. HORIZON ENTERPRISES                                 0502
A0101408820333042004001********                                                 0502
A0101402510341202149003AMALIA L. ABUSTAN                                        0502
A0101409050352091080001DIGO, ARCELI NIEVES                                      0501
A0201400760374078269001REYES, LESLIE ANN ALMEDA                                 0501
A0101402770391684633001VERONICA AVERIA BAUTISTA                                 0503
A0101408400394424700001QUILAY, EVELINDA QUEBEC                                  0501
A0901400220432478374002EVELYN ALGA DEMECILLO                                    0501
A0101403030441239100002**********                                               0502
A0101403030441240960001**********                                               0502
A0101403030441707375001**********                                               0502
A0101406330472215990001DFB GLASS & ALUMINUM SUPPLY                              0502
A0101406330472495381001ERICK JASON LATORRE JOSE                                 0502
A1401400110492478374017JOSEPHINE ECLAVEA                                        0501
A0101405940512151484001TERESITA P. SAMONTE                                      0501
A0101406880513367856001MILITANTE, ELMA JOSUE                                    0502
A0101408530516433800001***************                                          0502
A0101407720602412659001DOROMAL, DENNIS VEGA                                     0501
A1301400340683247884001LEONARDO, MA. CONCEPCION P.                              0503
A1301400340683378168001RODIL, CONSUELO CREUS                                    0501
A0101408240711375102001PANICUCCI, MA. PILAR M. JT                               0501
A0101405070861579475001SY, MICHAEL TIU                                          0501
A0601400230891041621001GH MAGLAQUI INC.                                         0501
A0301400530000000025356RAZONABLE, MARILOU DBU VICTORY                          10502
A1001400480000000133542GUINTO, CHARLOTTE JANE MAGO AND                         10501
A2201400250000000141200NOEL M. ESPINOSA DBU N.M                                10501
A2601400270000000561551RODERICK E. MADRIDEO OR                                 10501
A2601400270000000561751JOEL MOLINA,MARICEL SANCHEZ,                            10501
A0101412050000000697190RIVERA, TEODO DBU BLAZE EFX                             10501
A0101413440000000702418GARCIA, GREGORIO REY DBU                                10501
A0101409920000000998683MEMBERS OF NATASHA (SHOECAT INC                         10501
A0101402770000001571302MALAGKIT, ROGELIO CABIGAS DBU                           10501
A0101401960121327478001AIDA MEDEL                                              10502
A3001400130230691834001ANDAYA, JOSEPH OMAR O. OR                               10502
A1901400290261246773003PUREZA AFRICA KATIGBAK OR                               10501
A1901400290261585775001LITA CUETO MENDOZA OR DORIS                             10502
A0101400570281360975001DR. NERISSA A. DE JESUS OR                              10503
A0101408370382319789001ROCHELA B. CUAYCONG OR                                  10501
A0101407720602296141001ROMULO AUZA TROCINO OR MARIA                            10505
A0101404260611151571001********                                                10504
A2801400100712378394001REYNOLD JOHN B. MADAMBA OR                              10501
A4101400260812246527001ISIDRO B. DELA CRUZ JR. OR                              10510
A0301400530000000025356JAM AGRI BUY AND SELL                                   20500
A1001400480000000133542GUINTO, NEMER SARDEA                                    20500
A2201400250000000141200ESPINOSA CONSTRUCTION                                   20500
A2601400270000000561551JUANITA S. MADRIDEO                                     20500
A2601400270000000561751MARVIN BALAIS&MICHAEL TAN                               20500
A0101412050000000697190EVENTS PRODUCTIO                                        20500
A0101413440000000702418SUPERMASTER'S INSURANCE                                 20500
A0101409920000000998683AJETO, MERCY L.                                         20500
A0101402770000001571302RCMALAGKIT CONSTRUCTION                                 20500
A0101401960121327478001OR ROD MEDEL                                            20500
A3001400130230691834001ANDAYA, ASTRID MARIE T.                                 20500
A1901400290261246773003EDEL KATIGBAK CASTRO                                    20500
A1901400290261585775001MARIE MENDOZA MEDINA                                    20500
A0101400570281360975001LEONCIO NILO P.                                         20500
A0101408370382319789001CESAR A. CUAYCONG                                       20500
A0101407720602296141001CORAZON V. TROCINO                                      20500
A0101404260611151571001********                                                20500
A2801400100712378394001ANNE RAQUEL S. M                                        20500
A4101400260812246527001LILIAN H. DELA CRUZ                                     20500
B0101402060000000022766SUMMA WATER RESOURCES INC.                               1603
B19014002900000000307753EN DISTRIBUTION SOLUTIONS INC.                          1603
B0201401020000000042355CEBU RINGO TRUCKING INC.                                 1602
B0101408660000000373175CREATIVE PRODUCTS CORPORATION                            1601
B0101414120000000399060ALGIRA CORPORATION                                       1603
B0101414120000000399100LPA AND PARTNERS CO.                                     1601
B0301400950000000566934YUMCHAY VENTURES CORPORATION                             1620
B0101412180000001293061CP OPTICS, INC.                                          1610
B0101412180000001293072NYNE BEAUTY INC.                                         1603
B0101412180000001293083CAPTIVEIGHT INC.                                         1603
B0101404840000001312474BESTREAD TRADING AND SERVICES INC                        1610
B0101412760000002068059LOCSIN POOLS CORP.                                       1601
B0601400230000002650200ST. THERESA DIALYSIS CENTER, INC.                        1610
B0101411080042190829001 *****                                                   1602
B0101400150061016151001RAMONA HOLDINGS CORPORATION                              1602
B0101400600071603898001*******                                                  1601
B0101401830141046773001BLUMEX EXPRESS CREDIT, INC.                              1605
B0301400790195053525001EMCELI PROPERTY HOLDINGS CORP                            1601
B0101407140213608204001**********                                               1601
B0101408660274038268001AVO AIRVENT INCORPORATED                                 1601
B0101400570281007188002KIMURA CHAVES ENTERPRISE, INC.                           1602
B0101402930381008843001BASIC HOUSING SOLUTIONS, INC.                            1610
B0101402770391630383002FIRST LOAD MASTER AND POWER SERVICE INC.                 1601
B0101406330472021511003ASSOCIATED WIRE CORP. OF THE PHILS.                      1602
B0501400170481015881003TDG- INSURANCE                                           1610
B0101406880513037148001MULTI PLUS KONSTRUCT                                     1602
B0101408530516481834001**************                                           1601
B0101404260611028921001KICEM TRADERS AND CO. INC.                               1610
B0101404420631039321001HE-MAX INDUSTRIAL CORPORATION                            1605
B0101410720653038296001CREATIVE DESIGNLABS INC.                                 1602
B1301400340683041966002TPG MANCOM SERVICE COOPERATIVE                           1602
B0101408240711023931001CHRIST'S COMMISSION FOUNDATION, INC.                     1618
B0101408240711023931003CHRIST'S COMMISSION FOUNDATION, INC                      1601
B01014082407110399320021975 BROTHERS IN ARMS INC. DOING BU                      1605
B0101404840851042014006FUNHOUSES CORPORATION                                    1602
B0101412180000001293090ADVANI, GHANSHYAM PARASRAM DBU SICHEL &                 11610
B0101413600000002122394REMEDIOS L. LABAYAN AND                                 11602
B0101401830141026671001BRIGGS CONSTRUCTION AND GENERAL SERVICES                11603
B3101400450223635512001TOTAL QUALITY MANAGEMENT BUSINESS                       11603
B1901400160491341189001VIRGINIA R VARGAS OR                                    11601
B2801400100712024577001PHILIPPINE COASTAL STORAGE AND                          11605
B0101412180000001293090SICHEL ENTERPRIS                                        21600
B0101413600000002122394EFREN BALINAS                                           21600
B0101401830141026671001COMPANY                                                 21600
B3101400450223635512001VENTURES                                                21600
B1901400160491341189001RICHARD D LIM                                           21600
B2801400100712024577001PIPELINE CORP.                                          21600
B0101411110276821100608**********                                               2005
B0101403290461821100608**********                                               2010
