B1901400160491035389001SAINT PATRICK'S HOSPITAL, INC.                           1610
A0601400520000001120396MANALANG, JAYMAR CAMAYA                                  0501
A0601400520000007553291WIJANGCO, ANGEL MANALILI DBU GO                          0501
A1901400160000018527030ABRAHAM, SABRINA RICA PAGUIO                             0501
B0101400730000009053430ADSATTACK INC.                                           1605
A0301400950000013129345COCJIN, CYNDI JARRETTE CALUYA                            0505
B0301400950000011415084C-ONE TRADING CORPORATION                                1605
B0301400950000012244778C-ONE TRADING CORPORATION                                1605
A1901400290000017290212MOOG, SARAH JANE LIMBO                                   0501
A1901400290000017582260VILLARBA, LORELIE AYAP                                   0501
A1901400290000017582282ROSALES, JOY SYBIL DE CHAVEZ                             0501
A1901400290261244409001ESPERANZA PAZ M LEYEZA OR                               10502
A1901400290261244409001JUAN GUALBERTO M LEYEZA                                 20500
A1101400120000003022413DUCENTES, GLORIA TROCINO                                 0501
A1101400120000003981135CABRERA, VILMA GUIRON DBU POSIN                         10501
A1101400120000003981135G AGRIVET                                               20500
A1101400120000000652380CAYUBIT JR., SERAFIN ASERON                              0501
A1101400120000005608260SANITA, ERIC SALIENTE                                    0502
A1101400120000000652351YAO, RONALD PHILIP GO                                    0502
A6601400120000016158873ECHALUCE, FRANCISCO CHIN                                 0505
B1901400160491347054001EMMA MACATANGAY AND MARIO MACATANGAY                     1602
A4101400260000016832127CENETA, MARIA ADORACION ELIZARE                          0501
A0101401250000016724260****************                                         0501
A0101401250001120001147SEBALLA, CHERRY ANN TRIBACO                              0502
A0101401250019120002280IKRAM, SHAIKH MD                                         0502
A0101411370000010060656GOPALAKRISHNAN, ARUN BABU                                0501
A0101400150000011138326KING, HENRY RIVERA DBU                                  10502
A0101400150000011138326HKCOM REALTY                                            20500
B0101400150061010658002GROLIER INTERNATIONAL, INC.                              1601
B0101405810072011448001C.P.P.C CONSUMER PACKAGING PRODUCT CORP.                 1603
B0101405810072018018001AIMWAY PLASTIC & PRINTING CORP.                          1601
A0101405810072385132001**********                                               0503
B0601400360000003186781GOLD TREE IMPORT AND EXPORT INC.                         1610
B0601400360000003186883GOLD TREE IMPORT AND EXPORT INC.                         1605
A0601400520000017539778CAYABYAB, ROLANDO JARILLO                                0505
A0101413730000006477201*******************                                      0502
A0101414090000000399344DY, KATHLEEN CONCEPCION OR                              10501
A0101414090000000399344DY, EDWIN CHUA                                          20500
B0101406040000013915772ERA1  PETROLEUM CORPORATION                              1602
B0101401960121240763001*************                                            1604
A0101413150000011778251GAO, WENZHAO                                             0505
B0101413150000008024417CO, JACKY VALE DBU AMEI MARKETING                        1601
B0101413150000017602078ASUKI DEVELOPMENT & CONSTRUCTION MA                      1605
B0101413150000008024508ASUKI WEIGHING SYSTEM, INC.                              1605
B0101412630000002186529ONESUNASIA INC.                                          1602
A0101401830000011228981*********                                                0502
B0101401830141026671001BRIGGS CONSTRUCTION AND GENERAL SERVICES                11601
B0101401830141026671001COMPANY                                                 21600
B0101407270162062163002MAREJBHEL TRANSPORTATION SERVICE CO                      1610
A0101401090000001619030PESO, MARIA CECILIA S. OR                               10501
A0101401090000001619030AQUINO, MARIA CR                                        20500
A0101401090171781354001CLAUDIA S. MENDOZA                                       0501
A0301400660000016080301BANGAYAN, EDWARD LAWRENCE UY                             0502
A0301400950000010701150DOMINGO, CATHERINE LIM                                   0501
A0101401380201084784001GABRIEL, MARIA CHRISTINA TAN                             0501
B3101400160221032914001AARON EAGLE SECURITY AND INVESTIGATION                  11602
B3101400160221032914001AGENCY                                                  21600
A3101400450000016704466BONDAD, KIRK VINCENT BUNDALIAN                           0501
A3101400740000018546917DE GUZMAN, OSCAR DE GUZMAN                               0501
A1001400480000018581047MAQUILING, BENIE C OR                                   10501
A1001400480000018581047MAQUILING, JULIUS S                                     20500
A1301400470000015271377MARY BLESSILDA J. ALFONSO                                0501
A1301400470252503090002ERBITO B. TIONGSON OR                                   10504
A1301400470252503090002CHRISTINE S. TI0NGSON                                   20500
B1301400760000018503396MESDE, LOURDES DAY STA. CRUZ DBU MED 8                  11601
B1301400760000018503396DRUGMART                                                21600
A0101401670000013222263MARIA ALICIA PAGADUAN                                    0501
B0101401670000008000831JACKPHARMA INC.                                          1603
B0101406460272036660001GCI INDUSTRIES, INC.                                     1603
B0101406620273026509001DG3 IDOCS, INC.                                          1602
A0101410980000015371361FUENTES, CRISTY BEBEDOR                                  0501
B0101400570000013647399BUKO NI FRUITAS INC.                                     1601
B0101411240283046060001GRAND STAR GENERAL CONTRACTOR                            1608
B0801400160311013980001VIC IMPERIAL APPLIANCE CORP.                             1605
A0801400160311033342001ILOILO PRIME REALTY MARKETING                            0503
A6601400120314617868088LUCERO, SINCLAIRE A. OR MIRA R.                          0505
A2001400290000011716755DUMALAG, ANTHONY TOLOMIA DBU                            10502
A2001400290000011716755ADS EDGE ADVERTI                                        20500
A0101405650000001912038SAYSON, JESUS DOMINGO OR                                10502
A0101405650000001912038SAYSON, MICHELLE                                        20500
B0101402510341048034001PHILDIZ PHOTO GALLERY, INC.                              1610
A0101402510000013485593SANCHEZ, MILPRESA OCAMPO                                 0501
A0101402510341199967001UNCAD, CECILIA C.                                        0501
A0101402060000011455280ESTRELLA, ROSA CARLOTA SAMPANG                           0502
B0201400760374032939002GATEWAY MOTORS (CEBU), INC.                              1605
B0201400890376047710001S & S INDUSTRIAL CORPORATION                             1603
A0201401020000016368377CASINILLO, ARAH MAE GARALDE                              0504
A0201401020000005250691PANGATUNGAN, ALEMODEN AYING                              0502
A0201401020000014500431LAURENTE, JASSENN PANGATUNGAN                            0501
B0201401020000007458133GOMEZ BROTHERS SHIPPING LINES COMPA                      1601
A0101402930381472659001MA ELIZABETH F. ESTANISLAO                               0501
A0101408370382409089001DR. ELIZZA S. SENSENG OR                                10503
A0101408370382409089001IMMANUEL DOMINIC SENSENG                                20500
A0101405490000014677100SASO, WILMA BAUTISTA OR                                 10501
A0101405490000014677100SASO JR., PRISCO YUNGCO                                 20500
A0101405490392341023001JAZMIN P. GONZALES                                       0501
A0101408400000008699972UERA, PAUL MICHAEL AGDIPA                                0501
A0101408950000010434550CADIZ, KRISTEL MARIE CAPUCHINO                           0503
A0101409180000014368011JACKSON, ANDREW DAVID                                    0502
A0101409180000015943885RAULT, JULIE SALAZAR                                     0501
B0101409210000016858698NETREV MARKETING GROUP INC.                              1602
A0301400820000006542685MIER, JUNALYN R.                                         0502
A0301400820000018550217ABADIA, ROLANDO B. DBU ROSELAND                         10501
A0301400820000018550217BRICKS MANUFACTURING                                    20500
A5501400120000016442961JACALAN II, MIGUEL ZOSIMO                                0501
A5501400120000014838607DELA PENA, MARIA HENRIETTA CHIU                          0502
B2401400180000014774366SECAJA DESIGN AND BUILD CONSTRUCTION                    11601
B2401400180000014774366CORPORATION                                             21600
B1201400150000011415773WYNN MV LENDING INVESTOR CORPORATIO                      1601
A5101400100000010371461ACTUB, JONELYN BERNASOL OR ACTU                         10505
A5101400100000010371461B, MICHAEL CLOMA                                        20500
A5101400100000010371267BARDON, ALLAN PALAHANG                                   0502
A0101403030441239686001**********                                               0502
A0101412890000007095481SANTOS, ANGELO BUENVIAJE                                 0502
A0101412890000011813033LIM, ESTELA ALEGRE                                       0502
B0101412890000009624535IBMS TECHNOLOGY PHILS. CORP.                             1610
A0101403320000017792522NORBERTO CORDERO JR., OR                                10502
A0101403320000017792522ANA LEONISA CORDERO                                     20500
A0101403320000017792533ANA LEONISA CORDERO OR                                  10502
A0101403320000017792533NORBERTO CODERO JR.                                     20500
A0101403320000016615100RAUL G. GIVERA                                           0501
B0101403320471019960002DIRECT ELECTRIX EQUIPMENT                               11605
B0101403320471019960002CORPORATION                                             21600
B0101403320471068309001GAPAN LAND, INC.                                         1603
B0101412760000000031990PRIVE PROPERTIES DEVELOPMENT INC.                        1601
A1901400160000012982242MERPOR LOGISTICS                                         0502
A1901400160491265200001ARMELO B. DE CASTRO OR                                  10501
A1901400160491265200001CHARITO P. DE CASTRO                                    20500
B1401400110000014232372BAYLEN, LARRY DBU WHITE & GOLD REST                      1602
A1601400170000000497514DANTE D. VALLADOLID                                      0501
A0701400260000003259432ZAMORA, JULIUS SOPENA                                    0504
A0101407430000014992039MA. CAMILLE CRISTOBAL                                    0501
A0101407430000017588004MATA, AILENE LOPEZ                                       0502
A0101407430503291798002LEA D. JOVER OR                                         10501
A0101407430503291798002JAIME EDUARDO K.                                        20500
A0101403580000005328387EMBUSCADO, PAULITA AGARAO                                0501
A0101408530000010924724CHAVEZ, RUDNAN SUAREZ                                    0501
A0101412050000009200202JOAQUIN, ROWENA KRISALYN TORRES                          0501
A0101412050000015664487ALCANTARA, SHERILOU REYES                                0501
B0101412050000000043370ALECTO GENERAL TECHNOLOGY CORPORATION                    1601
B0101403450521011671001TIMES TRADING CO., INC.                                  1603
B0101403450000010454138LHPP LABELS AND TAGS ENTERPRISES                         1602
A0101403450521239151001GODINO, WILLIAM                                          0503
A0101403610531355089002MACASAET, DOMINGA YAMBAO                                10501
A0101403610531355089002OR MACASAET, LOPE                                       20500
A0101404130601081357001GO, MERYL CANDICE OR                                    10501
A0101404130601081357001GO, JEANNE PAULI                                        20500
A0101404130601450195002CAYANES, GLORIA M.                                       0504
A0101407720000007936163**********                                               0504
A0101407720602389965001NORMAN OR PAULITA OR NORMA                              10501
A0101407720602389965001ABASTILLAS                                              20500
A0101412180000016105792MONTECILLO, MARIO DENNIS ESCARR                          0501
A0101404260611151435002LORNA VEJANO AND RAUL VEJANO                             0502
A0101404260000003498408AREVALO, MA. JORLYN                                      0501
A0101409890000006813163GAJUDO, JAY VALLEDO                                      0502
A0101409920000015499680CHOMAWAT, NERI DEANA AYOWAN                              0501
A0101409920000001951931MEMBERS OF NATASHA (SHOECAT INC                         10501
A0101409920000001951931TRASPORTE, GINA                                         20500
A0101409920000001951942MEMBERS OF NATASHA (SHOECAT INC                         10502
A0101409920000001951942TULAYBA, ARLENE                                         20500
A0101407690000000587895MANLIMOS, AMALYN DELANI                                  0501
A0101407690000018233462POLIQUIT, JAIME VIDAL                                    0505
A0101407690000018607162MATARO, DIRK MENDEZ                                      0501
B0101411530000002641790PETITE GRAINE PRE SCHOOL INC                             1603
A0101411530000005493712PAZ, IMELDA ROXAS                                        0501
A0101413990000001406331CERINEO, JESSICA VILLARANTE                              0501
A0101413990000018030176BERMEJO, JENNIFER DURANA                                 0501
B0101414120000004603398WEBLEND INC.                                             1601
A1301400210000005040577**********                                               0501
A1301400340000000011616RIVERO, DARLYN ALSON                                     0502
A1301400340000014501838ALVEZA, TRIGIDIA DE VERA                                 0502
A1301400340683246691001SARABOSING, MA. NELEOSA RIVAS                            0502
A1301400500000000213390********                                                 0501
A1301400500000012913434MJX PURIFIED DRINKING WATER                              0501
A1301400500000016721647AIOS ENTERPRISES                                         0502
A1301400500684058869001YOUNG BUILDER'S TRADING                                  0502
A1701400230000008555255SANTIAGO, DOLORES CENTENO OR                            10502
A1701400230000008555255SANTIAGO, KATHRE                                        20500
A0101408240000009452871SUAREZ JR., JOSE NARCISO OR                             10501
A0101408240000009452871SUAREZ, JANINA ANNA GO                                  20500
A0101408240000000005181POL CAMACHO SECURITY                                    10502
A0101408240000000005181CONSULTANCY                                             20500
B0101408240711492799003CENTER FOR INFECTIOUS DISEASE AND TRAVEL                11602
B0101408240711492799003MEDICINE                                                21600
A2801400230000014972020TOLENTINO, MARVIN MATOTE                                 0501
B4101400260000006043603MENDOZA, MARIA JANICE M. DBU JARIAVETTE                 11605
B4101400260000006043603SHAKE HAWS                                              21600
B4101400390000006103639FIRSTCARE MEDICAL SERVICES, INC.                         1602
A4101400420000017688112SULTAN, NAIMAH MACADINDANG DBU                          10502
A4101400420000017688112FN HOME OUTLET                                          20500
A0101412340000003348883SENADOR, JHOMAR B.                                       0501
A0101404840000008871252MUNDA, FLORDELINA LICUPA                                 0501
A0101404840000008871423LACHAONA, MA THERESA ABLANG                              0501
B0101404840000016807120BESTULZ INC.                                             1604
A0101404840000004565891BEATRIZ P. REALCO                                        0502
B0101404840000006365171KAWASAKI EMPLOYEES MULTI-PURPOSE                        11605
B0101404840000006365171COOPERATIVE                                             21600
A0101404840851520766155JOSEFINA VERGARA                                         0501
A0101404840851520766163JOCELYN ANONUEVO                                         0501
A0101404840851520766175RUTH CONDE                                               0502
A0101405070861027133001WORLDLINKS CABLE WORKS                                   0502
A0101413860000018587536PINEDA, BIEN ANGELO DELA CRUZ                            0501
A0101413860000018587763ABAYON, KAREN ARELLANO                                   0501
A0101413860000018587883PALERMO, SUSANITA BELDAD                                 0501
A0101413860000018587952DETERA, TRACY MARIE MANALO                               0501
A0101413860000018588000YAMZON, EVELYN BASCO                                     0501
A0101413860000018588033PRIETO, LARRY FRIAS                                      0501
B0101413860000007953891CON-PAC WAREHOUSING INCORPORATED                         1601
B0101413860000007953931BACKOFFICE SOLUTIONS, INC.                               1602
A0601400230000017863573VALERIO, CECILIA CALMA or                               10503
A0601400230000017863573VALERIO, VIZCONDE V                                     20500
A0601400230000014575938YAPYUCO, LYNN GARCIA DBU LGY TR                          0501
