A0101412920000015383009**********                                               0501
A0101412920000012288090CANSON, MARIA TERESITA CHANYANG                          0502
A0101412920000002358972LEE, ANGELES LU                                          0502
A0101408950396574308001DR. VERNILO E. LIBAGO                                    0504
B0901400220000000012175FLORIVEL M. DE JESUS ACCOUNTING OFFICE                   1602
B0101406590000011637477CBCOMM                                                   1602
A0101412920000011166599SALUDEZ JR., RICARDO DAR                                 0501
A1101400120000013536722MANCERA, RAINIER DY DBU D RIZ M                         10502
A1101400120000013536722OTORWORKS                                               20500
A0101402930000003710790**********                                               0501
A0901400220000000425169**********                                               0504
A0901400220000011299262THREE J BUILDERS AND DEVELOPER                           0504
B0101403610531022064001CLP INDUSTRIES CO.                                       1610
A0101400860000001348738************                                             0502
A0101400860000011515961**********                                               0504
A0101400860011516486001**********                                               0502
A0101400150000003197528Angela S. Manago                                         0501
A0101400150000010773772COLLADO, BENJAMIN JOSEPH III DA                          0503
B0101400150061032615001HKR EQUIPMENT CORPORATION                                1610
B0101400150000001708681IRC PROPERTIES INC.                                      1605
A0101400150061357581001ALBERTO S. VILLAROSA OR                                 10504
A0101400150061357581001MA. THERESA G. V                                        20500
B0101400600071045155001*******                                                  1603
A0101400600000010683413********                                                 0504
A0601400100000014942099MARCOS, DULCE FORTO                                      0503
A0601400100000013256918AREVALO JR., ORESTES CARSON                              0502
A0601400100000016377505EVANGELISTA, JEFFREY LAZARO                              0501
A0601400100081251941001MARCELINO ALAPAG OR                                     10504
A0601400100081251941001JASMINDA ALAPAG                                         20500
A0601400100081424085001ALAPAG, JASMINDA B. OR                                  10504
A0601400100081424085001ALAPAG, MARCELIN                                        20500
A0601400520000003187251ROMERO, ANGELO SISON                                     0501
A0601400520000001349662TIMBOL ROMAN MANALOTO                                   10501
A0601400520000001349662ACCTNG & TAX CON                                        20500
A0101414090000006211609VILLAFLOR, KRISTINE ALCONES                              0501
A0101414090000008927095UMALI, MAR ANDRIEL SANTOS                                0501
B0101414090000007344472MOCA, INC. DOING BUSINESS UNDER THE                      1601
A0101400730111432322015SHARON ALIBO                                             0501
A0101400730111520766064LITA L. LARIZA                                           0501
A0101406040000002272482SY, MELITON                                              0501
A0101401960000006004455**********                                               0501
A0101401830000013257568MAGTALAS, LEE MARVIN BACTAD  OR                         10502
A0101401830000013257568MAGTALAS, MARIA VERONICA                                20500
A0101401830000013257648MAGTALAS, LEE MARVIN BACTAD OR                          10505
A0101401830000013257648MAGTALAS,MARIA VERONICA                                 20500
A0101412920000017644050HERRERA, MA. ELENITA DBU M.E.                           10501
A0101412920000017644050HERRERA'S HANDICRAFTS                                   20500
A0101412920000014086063RONAN, CINDY CASTANEDA                                   0501
B0101400440000000337860SEACHON, JOSEPH CLEMENTE                                 1601
A0101407270162333154010ANTONIO C. CONTRERAS                                     0505
A0101401090171157026001ISIDORA A. LEE                                           0502
A0301400530000015818605LIM, RALPH LOUIE SO DBU DURIAN                          10502
A0301400530000015818605MARKETING JT                                            20500
B0301400530000000025378D' UNIBUENAS CORPORATION                                 1603
A0301400660000002348621**********                                               0503
B0301400660000012086623DVO ALUMINA INDUSTRIES, INC.                             1602
B0301400660000006755060**********                                               1603
A0301400790000001244600YBANEZ, RITCHIE AGUIO                                    0501
A0301400790000003969611BERSABAL, AGNES TUBANG OR                               10502
A0301400790000003969611BERSABAL, MARVIN                                        20500
A0301400790000016450550LACHICA, ARIANE TICAR DBU                               10501
A0301400790000016450550AMEDESONS DRUG HOUSE                                    20500
B0301400950000009938323SANABELLE MARKETING CORP.                                1601
B0101410720653035483001GERMALIN ENTERPRISES, INCORPORATED                       1601
A0101410720000000008642MC BUILT ENTERPRISES                                     0501
A0101410720653089510001GONZALES, GENEVIEVE FRIAS                                0501
A0101412500000000739657****                                                     0502
B0101412500000015579209MULTI-FORMS CORPORATION                                  1601
A0101413600000014854727GO, JASON ALBIA                                          0502
B3101400160221224862001JOYME ROCKSCAPES CORPORATION                             1602
A3101400160221478374055JOSEPHINE C DEMAFELIZ                                    0502
A3101400450000005960432LACANILAO, MARKUS DBU MAVLAC                            10502
A3101400450000005960432METAL TRADING                                           20500
A3101400450223389253002GO, ROBERTO TY                                           0501
A3101400870000001177082MABAET, EVELYN MERCADO OR                               10501
A3101400870000001177082MABAET, TRISHA DHENICE M                                20500
B3101400870000005960734CORPUZ, ROOSEVELT C. DBU TRUSSWELL                      11601
B3101400870000005960734ENTERPRISE JT                                           21600
A3101400870000005410020CONCEPCION, ROEL S. OR                                  10501
A3101400870000005410020DE LA ROSA, JOSE GLEN Y.                                20500
B1001400190000002170850RD PAWNSHOP, INC.                                        1605
B1001400190231027065001RI CHEMICAL EMPLOYEES MULTI-PURPOSE                      1601
A1001400190231520766006DELFIN, LORENA                                           0501
A1001400190231520766098ESTRELLA, MARK MURILLO                                   0501
A1001400190000002170532PADIZ, ROSA ALMA V.                                      0501
A1301400470000001299196PRECILLA DR. NADORA OR                                  10504
A1301400470000001299196REYNALDO E. NADORA                                      20500
A1301400470252486767001LUZVIMINDA T. PABLO                                      0501
A1301400760000016080749HEIDEE LAURELES ESER                                     0501
B1301400760253044451001CONSUMERREACH, INC.                                      1610
B1301400760000000007143CONSUMERREACH, INC.                                      1610
B1301400760000000007201CONSUMERREACH, INC.                                      1610
B1301400760000000050853CONSUMERREACH, INC.                                      1610
A1901400290261488341053DRA. HELEN PEREZ COMIA                                   0502
A1901400290261567865001ALEX IAN SISON DE LA CRUZ                                0501
A0101401670271518087001RONALD ONG                                               0502
A0101406620000010982995DIMACULANGAN, LORELIE MAGADIA                            0501
A0101408660000006296882BALASBAS, VERNON PAMINIANO                               0501
A0101410980000000012562JEODIMEL O. CORONADO                                     0502
A0101400570000003891429RAFAEL, NORMA DUQUE                                      0504
A0101400570000016544348SALIO, FREDERICK BUCANOG                                 0501
A0101400570281186867001DR. DIANA JEAN ROXAS                                     0501
A0101400570281344838001AUGUSTO GUTIERREZ REYES OR                              10502
A0101400570281344838001MARITA REYES                                            20500
A1101400120000013536733BETASONO, ARNEL PRESTILLO                                0502
A1101400120000005608191CELSO, GORGIE CAROLA                                     0502
A1101400120313535537001COLLERA, LEONOR M. OR                                   10504
A1101400120313535537001COLLERA JR., AGU                                        20500
A1101400120000006081001COLLERA, JEROME MACATO                                   0504
A2001400290000005926069TAN, EARL FRANCIS ROMANO                                 0503
A2001400290000015798233RIVAL, PEPITO CULI DBU RICHFIEL                          0502
A2001400290315746119002BUHISAN, CAROLINE LU   JT                                0505
A3401400280000000156621LOIDA C. GARCIA                                          0503
A3401400280000002323451PETE'S STOP TIRE                                        10502
A3401400280000002323451AND CAR CARE CENTER                                     20500
A3401400280318478374002PIONELO, LENIDIE DEVELOS                                 0501
B0101402350000008957042PRECEPTLINE CORPORATION                                  1604
A0101405650000006893607VILLANUEVA, MICHAEL DIZON                                0502
A0101405650000004822231AZARCON JR., DBU                                        10501
A0101405650000004822231NOVAMIND BUILDER                                        20500
A0101402510341196519002CABRERA, AMY PUERTOLLANO                                 0501
A0101402510341196657001AMELIA G. RUBIN DE CELIS                                 0501
B0101402060351085656001REBINTECH CONSTRUCTION, INC.                             1603
A0101409050000013167852CUERPO, DAN MARSEN LORENZO                               0503
B0201400920375526997001**********                                               1604
A0201400890376667775001BUYSER, MISAN CANAS OR BUYSER,                          10501
A0201400890376667775001RENZIE RAFAEL CA                                        20500
A0101402930381205175001DR. MARILYN D. RUARO                                     0502
A0101408370382420020001DR. MARIA VICTORIA V. TANGCO                             0501
A0101402770000010082601FALLARIA, BENJO MARCO N. OR                             10502
A0101402770000010082601FALLARIA, BENEDICT N.                                   20500
A0101402770000000360650AGUIRRE, LORY OR AGUIRRE, NOEL                          10502
A0101402770000000360650DBU FIRST LINE TRADING                                  20500
A0101402770000000360592LUY, RAMON TSAN                                          0501
A0101402770391553570001FERNANDEZ JR., ERNESTO ACOB OR                          10501
A0101402770391553570001FERNANDEZ, CAREN F.                                     20500
A0101405490392563453002ALLAN L. DE GUZMAN OR                                   10501
A0101405490392563453002MARIVEL R. DE GUZMAN                                    20500
A0101408400000003120634NEYRA, MARGARETTE FRANCIA                                0501
A0101408400000010506953CARRASCA, MERLIE LISCANO                                 0501
A0101408400000011986660ORDONEZ, LUIS ANGEL TAMBUNTING                           0501
B0101408400000002386263CORMANT TECHNOLOGIES INC.                                1603
A0101408400394478374062APOLIS, SALVACION G.                                     0501
A0101408950396294877002SINGSON, REBECCA BAUTISTA                                0502
A0101408950396420560001MICHAEL LIM VILLA OR PATRICIA                           10503
A0101408950396420560001YUKIJI JAVIER VILLA                                     20500
A0101409180000015943874LESLIE ANNE GAMAD                                        0502
A0101409210000016486892GORROMEO, CZERMAINE ANGELYN LIB                          0501
A0101412210000016640807DUMAGO, ALDWIN CHESTER YAP                               0501
A0301400820000002271956COMAINGKING, JESUS B.                                    0501
A0301400820000014657908GUADEZ, EARL LLOYD Q. OR                                10501
A0301400820000014657908GUADEZ, HERLINE M.                                      20500
B0301400820000012928520MAGIC STAR MONEY LENDING CORP.                           1602
A2401400180000002146265**********                                               0503
A2401400180000010066401MALANA, ZENIA CONGSON                                    0502
A2401400180000015654330ORCIA, LORINA VILLAVELEZ                                 0501
A2401400180411061316001GUAZO, ROBERT DIZON DBU                                 10501
A2401400180411061316001MAGNITON ENG'G.                                         20500
A2401400180000010066201TAN, ANDRESTINE TEMPLADO                                 0503
A2401400180411514423001DEALA, BERNARDITA GATCHALIAN                             0503
A1201400150421539011001ANG, WESLEY CUA OR ANG, ROSEANN                         10503
A1201400150421539011001E.                                                      20500
B0901400220000006214302DIPZA DEVELOPMENT & AMUSEMENT CORP                       1601
A5101400100000014191363DE ASIS, ADELAIDA BALOGO                                 0502
B5101400100000010833935KAAMINO, MIRALYN BUCAG DBU WELK                          1604
A0101412890000009833554ANNA LIZA GUEVARA AMIDO                                  0501
A0101406330472213329001EVANGELINE G. REAL                                       0503
B0501400170000013295980GUANZON MERCHANDISING CORPORATION                        1605
A0501400170481318580004ANA CRISTINA L SINLAO                                    0503
B1901400320000000041283SAN ISIDRO MULTI-PURPOSE COOPERATIVE                     1601
A1901400160491069610001M.C.C.D. ENGINEERING SERVICES                           10502
A1901400160491069610001& TRADING                                               20500
A1901400160491389128001ELSA CUETO LONTOC                                        0502
A1401400110000011337523REMOLONA, LORENA DANEZ                                   0501
A0101407430000014298827DELOS SANTOS, MARY ANN GAMARA                            0501
A0101407430000014298496LOPEZ, MELENNY NEPOMUCENO                                0501
A0101405940000002268653BANIEL, BEN FABALE                                       0502
B0101405940512025127001UNIVERSAL MOTORS CORPORATION                             1601
A0101408530000017630832CRISTOBAL, LOUELLA BITANGA                               0501
A0101408530000017209837PAREDES, MARIA ROSARIO EVANGELI                          0502
B0101408530000013741203BERTROBERT VENTURE CORPORATION                           1604
A0101408530000014027555MONTANO, FREDERIC A                                      0501
A0101408530516543430004EMILIE JANE RAVAGO                                       0502
A0101408530000001268377BRODIT, LEE FRANCIS NORCIO                               0501
A0101403450521067888001**********                                               0501
A0101403450521237475001**********                                               0501
A0101403450521478374010MARICEL L. MORTIZ                                        0502
A0101403610000012973138GERODIAS, MARIA LUISA MUYOT OR                          10503
A0101403610000012973138SLAGLE, JENILEE                                         20500
A0101403610531656727001HERNANDEZ, ANNA LIZA OMALIN                              0501
A2201400250000013859788C.G. DIZON ENTERPRISE                                    0501
A0101407720602161863003ROBERTO K. MACASAET AND                                 10502
A0101407720602161863003VIRGINIA M. RAFAEL                                      20500
A0101407720602332279002CAYCO, ANTONIO V. OR                                    10501
A0101407720602332279002CAYCO, MARGARITA                                        20500
B0101404260611028963001PARC HOUSE II CONDOMINIUM ASSOCIATION                   11603
B0101404260611028963001INC.                                                    21600
A0101404260611150918001REYNALITA P. CANO                                        0501
A0101404260611478374078SUPERAL, CORAZON                                         0502
A0101407690000000587851GARRY M. DUMAS                                           0501
A0101413570000011120371SUAREZ, NORA                                             0502
A0101413570656057648262LARICEL TABIEN                                           0501
A0101414120000002172527AMELIA DE JESUS OR EDGARDO                              10502
A0101414120000002172527DE JESUS                                                20500
A0101414120000002879885FCB TECHNOLOGIES                                         0504
A0101406590000000131682SISON, JOANNE TABORA                                     0501
A0101406590662365707001JOSEPHINE P. VELASCO OR                                 10508
A0101406590662365707001ERNESTO U. VELAS                                        20500
B1301400210000000915673EDCON CARGOTRANS, INC.                                   1602
A1301400340000013761003TOMAGAN, LORESA SACOPLA                                  0502
B1301400340683043242001INNOVA HOMES REALTY CORPORATION                          1602
A1301400340683399055001************                                             0501
A1301400500000012913274BIO ERIXX PHARMA DISTRIBUTION                            0504
A1701400230000016323705RONDAL, JAMES LESLIE ANDRES                              0501
A0101408240000008854366BROWN-ARANETA, MICHELLE LANA                             0501
B0101408240711008252001PETROLIFT INC.                                           1610
B0101408240711458793001RICHETEC INC.                                            1610
B2801400100712024577001PHILIPPINE COASTAL STORAGE AND                          11605
B2801400100712024577001PIPELINE CORP.                                          21600
A2801400230000001782021BITANGCOL, CHARITO DE JESUS                              0501
A4101400260000011417433GALANG, LILIBETH BANGALISAN                              0502
A4101400260000012886967TORRES, ARTHUR LINGAT                                    0501
A4101400260000010623560SABANDO, MELANIE T. DBU VAUGHN                          10510
A4101400260000010623560KYRIE ENTERPRISE                                        20500
B4101400260000006043829GNM MAHNLEN TRADING INC.                                 1602
A4101400390000000975162MARRIANNE T. DULCE DBU KLARENZ-                         10502
A4101400390000000975162KRIZELLE'S CATERING SRVCS                               20500
A4101400390813470914001AZIS, ARMELA MERIADO OR HADJI                           10515
A4101400390813470914001AZIS JR., SAILAN                                        20500
A4101400420000016908442ESCONDE, NERISSA GUNDAYA                                 0502
B4101400420000009392003SWINELAND INC                                           11602
B4101400420000009392003FARM 2                                                  21600
A4101400420000002084595TONIO, EDNALYN                                           0501
A4101400420000003715724FLAVIANO, PERLITA                                        0501
A4101400420000000710223ROMERO, MARICRIS BAUTISTA                                0501
A0101412340000003348587REXEL G. SAAVEDRA                                        0501
B0101412340000012536395MITSUBISHI HITACHI POWER SYSTEMS AS                      1605
A0101404840851317230020JEFFREY R. DIZON                                         0502
A0101404840851481664037CHRIS ALMOITE                                            0501
A0101404840851546349001AQUINO, JULIE ANN PINEDA                                 0502
A0101406750852181680002NELSON V. MONTARDE OR                                   10502
A0101406750852181680002MILDRED P. MONTA                                        20500
A0101405070861027133001WORLDLINKS CABLE WORKS                                   0502
A0601400230000013259508ESPINOSA, JIMI CELEBRE                                  10502
A0601400230000013259508OR ESPINOSA, CARLA                                      20500
