A0601400230000000045241CANINO, CRISTINA FERNANDEZ                               0501
A0101408110000000379982MATIENZO, JENNIFER INOCENCIO                             0501
A0101409890000000437449**********                                               0501
A0101400440000000596641LUZVIMINDA EVANGELISTA                                   0502
A0101401700000000890422ARENZA AUTO SUPPLY                                       0505
A1001400350000000922058ARENO, ANN JANE BUCO                                     0501
A0601400230000000989962ZHANG, SHAOPENG                                          0502
A3001400130000001271567LIBRES JR., PONCIANO NICOLASORA                          0501
A0101401830000001281943ISUGA, CORAZON JOY TEANO                                 0501
A0101404840000001312656DE VERA, JAYVEE DELA TORRE                               0502
A0301400790000001776207CELI, MARIA ESTELA MARFORI                               0501
A1701400230000001786718**                                                       0501
A0101400730000001822817*******                                                  0501
A0101401960000001844566PANESA, SALVACION VALEZA                                 0501
A1201400150000001863301TAN, DARWIN ANG                                          0501
A2401400180000001935833SUERTE, ALEJANDRE CHIO                                   0501
A0101410560000001944152RIVEZA, ANNIELYN CELINO                                  0501
A0101407560000002152563ESTEBAN, FELIZA DE SOTTO                                 0502
A1301400340000002283843********                                                 0501
A0101413020000002292720*********                                                0501
A0601400230000002310150VILLEGAS, FRITZIE CABUSAO                                0501
A0101409050000002333284NAVARRO, DON SHERWIN GENE VIM J                          0501
A0101412890000002748014DEE, ISRAEL RUFUS DE GUZMAN                              0505
A0101400150000002749762AREJOLA, MARK NATHANIEL LEDESMA                          0501
A0101400150000002902627DE JESUS, REYNALDO CARLOBOS                              0502
A0101408950000003439387EMPLOYEES OF, FWD LIFE INSURANC                          0501
A0101412500000004597673PEREGRIN, EDGAR AQUINO                                   0501
A0101412630000004598132BOLANOS, ELLEN JAVIER                                    0501
A0101412630000004599533NATIVIDAD, JENNIE LYNN YOUNG                             0501
A0101401700041320114002TAN, MARISSA WONG                                        0502
A0101400150061229554001MA. STELLA STEPHANIE CAMBA                               0501
A0101400730111203514012BERNARDO, FRANCIS ROBERT S.                              0502
A0101400730111382955001PRADO, EDWARDO BAARDE                                    0503
A0101400440161039572063EVELYN Y. BALLADARES                                     0501
A0101400440161520766083ROWENA B. DAVID                                          0501
A0101407140213709497001SZE, JACKSON NG                                          0501
A3001400130230767566032GERALDINE P. MALBAS                                      0501
A3001400130230796142001TANO, MERLINA RAGAS                                      0501
A1001400190231342333001BUSGANO, HIPOLITO S.                                     0503
A1001400190231520766103BALCUEVA, CESAR S.                                       0502
A0101402350321030449001R.L. OK AUTO SALES & SERVICES                            0501
A0101402480331224076001JAIME ORTEGA                                             0501
A0101408820333478374013IRENE FERRER                                             0502
A0201400760374030829001TOPSPIN CONSTRUCTION & SUPPLIES                          0501
A0201400890376595445001SUMALINOG, TRINIDAD ROMULO                               0501
A0101402930381464744001MICHAEL L. RIVERO                                        0502
A2401400180411402492001PETINES, MARIA LOURDES PESTANO                           0501
A0501400170481454752001GAGARIN, MELCHOR FRANCISCO                               0501
A0101411790518055764102CUDIAMAT, CEFERINO MABLE                                 0501
A0101403450521238091001**********                                               0503
A0101403450521239350001**********                                               0506
A0101403610531400970001BRILLANTE, ROSARIO AMIL                                  0502
A2201400250561040968001PADRE PIO ENTERPRISES                                    0504
A0101407720602397425001HENSON, MARIA THERESA GUEVARA                            0501
A0101404420631092728188*****                                                    0505
A1301400340683478374049DONATO, NENITA                                           0503
A1701400230693056769001PUNO, C DBU ENT TI ILI                                   0501
A0101403610000000015818AGUJO, MARILUZ SANCHEZ OR                               10503
A3001400130000001271312SHAPE & WELL NUTRITIONAL                                10501
A0101413440000003280220PULUMBARIT, ELEANOR A. OR                               10501
A0101400440000003671692DAISY D. JACOB OR BALLESTEROS,                          10502
A0101401960121327478001AIDA MEDEL                                              10502
A0101401090171196210002LOPEZ, MA. CRISTINA OR                                  10501
A0101401090171197472001HELEN HIDELITA OR                                       10501
A3001400130230741134001MALBAS JR., GABRIEL CABRERA OR                          10501
A0101408400394005972001FAUSTINO AND FAUSTINO                                   10506
A2201400250561478374062JENNIFER M. RAMOS                                       10501
A0101407720602162070001DR. CLEMENTE GATMAITAN OR                               10503
A0101407720602479774001JOSE MARIA L. ANSON OR                                  10501
A0101404260611416131001ORA, ROMEO FOLLOSCO OR                                  10501
A1301400210682532235001RONALD M. NATIVIDAD                                     10501
A1301400340683361153001LICAROS JR, ALEJANDRO LAGPAO OR                         10502
A0601400230891738531001CHUA, MARK ANTHONY GARCHITORENA                         10502
A0101403610000000015818AGUJO, JUANITO JR. M.                                   20500
A3001400130000001271312PRODUCTS                                                20500
A0101413440000003280220PULUMBARIT, ELMER A.                                    20500
A0101400440000003671692AGNES OR GUANZON, JESUS                                 20500
A0101401960121327478001OR ROD MEDEL                                            20500
A0101401090171196210002RAMOS, HUBERT                                           20500
A0101401090171197472001ROMEO JOSEPH IGNACIO                                    20500
A3001400130230741134001MALBAS, GERALDINE PARCON                                20500
A0101408400394005972001ENGINEERING                                             20500
A2201400250561478374062MEMBERS OF NATAS                                        20500
A0101407720602162070001CARLOS P. GATMAITAN                                     20500
A0101407720602479774001MA. CECILIA D. ANSON                                    20500
A0101404260611416131001JOSEFINA                                                20500
A1301400210682532235001YOLANDA D. NATIV                                        20500
A1301400340683361153001LICAROS, ELSA RE                                        20500
A0601400230891738531001TAYAO, GILBERT A                                        20500
B0101407430000000035270TURPS AND TUCKER INTERNATIONAL CORP.                     1601
B0101413020000000038435AVITEK ANIMAL HEALTH INC.                                1603
B2801400230000000372770DBA GLOBAL SHARED SERVICES INC.                          1603
B0101412180000001293083CAPTIVEIGHT INC.                                         1602
B0101400600071325133001**********                                               1602
B0101401960121014850002*****************                                        1601
B3101400160221010055002CALAMBA LUMBER ENTERPRISES                               1605
B0101406620273037461002FIRENZE CORPORATION                                      1602
B0101400570281040437001STANDOUT MOTORS, INC.                                    1601
B0101402350321046288001TMI FOOD PROCESSING & DEV. INC.                          1603
B0201400760374020279001*****                                                    1620
B0101402930381009648001CHRIST'S COMMISSION FOUNDATION, INC.                     1620
B0101402770391025432001A.C. EQUITIES, INC.                                      1604
B2401400180411020380001BOUNTY AGRO VENTURES, INC.                               1605
B2401400180411033064001P.G. ANG AND SONS, INCORPORATED                          1610
B2401400180411033403001DADIANGAS CORNERSTONE CENTER                             1605
B0501400170481018109002****                                                     1603
B0101404000551038493001TKKK RESTAURANT CORPORATION                              1605
B0101404420631542146001GERONIMO, SANTIAGO NICOLAS JT                            1602
B0101409920650044950001EINSTEIN SCHOOL FOR KIDS, INC.                           1601
B0101412760000001399846BOX, JANUARIO DBU BRAINCHILD MARKETING                  11602
B0101409180397046582001MENARCO PROPERTY MANAGEMENT AND DEV'T                   11603
B0101412760000001399846SERVICES                                                21600
B0101409180397046582001CORP.                                                   21600
B0101416450002002000829**********                                               2102
B0101416160011401050074**********                                               2102
B0301400950196821100608**********                                               2102
B1201400280671821100608**********                                               2102
B0101406750852821100608**********                                               2103
