F0101406750852479415001JOSE P. BANTILING OR ELENITA P.                         12502CKO
F0101406750852479415001BANTILING                                               22500CKO
F0101406590000000905613LA VISTA ASSOCIATION, INC.                               2603CKR
F4101400260812032457001ALGERARD MARKETING                                       2601CKR
F0101400570281042881001GLOBE COCO PRODUCTS                                     12602CKR
F0101403580511378857001ARM WAREHOUSE MANAGEMENT &                              12610CKR
F0101400570281042881001MANUFACTURING                                           22600CKR
F0101403580511378857001CONSULTANCY SERV                                        22600CKR
