B0101400440161821100608**********                                               2005
A0101406880513573270001TURALBA JR., ANTONIO VALERA                              0502
A0101406880000001286619TONOG, JO LEO G. OR TONOG,                              10502
A0101406880000001286619CLARE BIANCA V.                                         20500
B0101406880513015035001TNC CHEMICALS PHILS., INCORPORATED                       1605
B0101406880513020147001ALMER MANPOWER CORPORATION                               1603
B0101406880000001286368FARMVILLE MULTI VENTURES INC.                            1603
B0101411110000000604959**********                                               1601
A0101413860000002314283AMIL, NUR-AIN OMAR JT                                    0503
A0101400440000004901451*****                                                    0501
A0101400440161036868003JOB-ON-LINK STAFFING SERVICES                            0505
A0101400440161039572092JOSEFINA R. JONES                                        0501
A0101400440000001439863MARY JONEN T. GUILLERMO                                  0501
A0101400440161478374129HAZEL R. SALATAN                                         0502
A0601400520000001349651OLIVA, RONALD DAYOS                                      0502
A0101400440161039572063EVELYN Y. BALLADARES                                     0501
A0101400440000004901564DOVIE T. JERMIA                                          0502
A0101400440161525001105VIRGIE B. CRUZ                                           0501
A0101400440161582425001JENNIE C. ARGANOZA OR                                   10501
A0101400440161582425001JOMYR C. ARGONOZ                                        20500
A3001400130000001271363PALUCA, LIZA MORAL                                       0501
A1001400350233478374020ELMA O. GAWAT                                            0501
A0101400860011399497002**********                                               0504
B0101400150061000544001CITIBANK - N.A.                                          1601
A0101400150061412381001VILLARUZ, MA. CORAZON A. OR                             10501
A0101400150061412381001VILLARUZ, JOSEPH                                        20500
A0101400150061442787002CALLEJA, ROSELYN DOLINDO                                 0501
A0101400150000002902412NAVATO, MAEBELLE P.                                      0501
A0101400150061697165001SERVER, CATHERINE ANNE B. OR                            10502
A0101400150061697165001CHRISTINE MICHEL                                        20500
A0101400150061746999001COLIANGCO, ELEANOR GO                                   10501
A0101400150061746999001OR RICO GONZALEZ                                        20500
B0101400600071328360002**********                                               1601
B0101405810072011448001C.P.P.C CONSUMER PACKAGING PRODUCT CORP.                 1602
B0101405810072040696002PLASTIC TECHNOBAG CO. LTD.                               1601
A0101405810072234608001**********                                               0503
A0101405810072234892001**********                                               0501
A0101405810072242205002**********                                               0502
A0101405810072291768001**********                                               0501
A0101405810072385132001***********                                              0505
A0101405810072470925002***************                                          0505
A0101405810072574589002CHEN, BINGHUI WANG                                       0503
A0101413280092055822001CHERLYN ANN SO DBU C.A.S                                10501
A0101413280092055822001PROPERTY MANAGEMENT                                     20500
A0101400730000000645692ELEGIDO, FELIX ERIA OR                                  10501
A0101400730000000645692LEONA D. ELEGIDO                                        20500
A0101400730000001697298ALAN J. CASTRO                                           0501
A0101401830000005193448DE GUZMAN, SANDRA AMORA                                  0501
A7201400170000003774021CALALAGAN, MODASSIR DAGADAS                              0501
A0101400440000003705946ESTELITA MELEGRITO                                       0501
A0101400440161520766185FLORA S. CHUA                                            0501
A0101407270000001596821ANN RITZCHEL N. BURATA                                   0501
B0101407270162047861001PHIL. ECOLOGY SYSTEMS CORP.                              1603
A0101407270162387970001******                                                   0503
A0101401090171195399001EFLEDA M. SACDALAN                                       0502
A0101401090171195867002MIGUEL L. NOCHE JR.                                      0502
A0101401090171543197003MARY DIANE S. REYES                                      0501
A0101401090171659819001LAO, LEVINE ANDRO HERNANDEZ                              0501
A0301400660000002913306ALBANO, ALEXIS COSARE                                    0501
A0101410720000001602142******                                                   0502
B0101410720000000968163PROPERTY 101 INCORPORATED                                1602
A0101410720653362919001DE GUZMAN, CYNTHIA CABOBOS                               0501
B0101410720653615648001ASE I.T. HUBLINX INC.                                    1620
B0101410720653650376001MICRO QUADKEYS CORPORATION                               1620
B3101400160221037479001TABLERIA LA CONFIANZA CO., INC.                          1601
A3101400160221359165002JINN PAULINE C. PANTI OR                                10502
A3101400160221359165002KARLO L. PANTI                                          20500
A3101400160221478374042CONSOLACION D. YERE                                      0501
A3001400130000000668480URIARTE, JORIME JANE NGO                                 0501
B3001400130230042884001ADFIL CORPORATION                                        1605
B3001400130000001271374GLOBALCARS, INC.                                         1604
A3001400130000000007018SAAVEDRA, MARIA CONCEPCION GO                            0501
A1001400350233770191001PATRIANA, LINDY CASTILLO                                 0501
A1001400480000000474953FERNANDEZ, JOFFREY MAHINAY                               0502
A1001400480000002300390DAGUMO, ELIZABETH SY                                     0501
B0101401670271007305001METROPOLY PROPERTIES CORPORATION                         1604
A0101401670271186213001ALICE OR BENEDICT OR LAWRENCE                           10502
A0101401670271186213001SANDEJAS OR PATRICIA LOU                                20500
B0101401670271389719001PHILREM SERVICE CORP.                                    1605
B0101406620273009619001FILMAL REALTY CORPORATION                                1605
B0101406620273009744001NORCONSULT MANAGEMENT SERVICES PHILS.,                  11602
B0101406620273009744001INC.                                                    21600
B0101406620273039712001OMNIPRIME MARKETING, INC.                                1602
A0101410980000002987075GEORGE GO OR ELISA NGO                                   0502
A0101410980275076641001TAN, GLENN RYAN UY OR                                   10505
A0101410980275076641001TAN, JANET DE JO                                        20500
A0101411820000001356474GENALYN ELE ASUNCION                                     0502
B0101400570000000031712MATTERHORN MOTOR INC.                                    1603
A0501400200292707151001TIDALGO, CHERRY GRACE CARBONEL                           0501
A2601400270000002257274FRANCISCO B. ACORDA                                      0502
B2601400270000000020639IGNACIO DATU OR WILMA DATU                               1610
A2601400270302574301001ALEX UY TY                                               0501
B6601400120314617698001CATARMAN DOCTORS HOSPITAL, INC.                          1605
B6601400120314617698002CATARMAN DOCTORS HOSPITAL, INC.                          1605
B0101402350321006923002LOPEZ VILLAGE HOMEOWNERS ASSOCIATION                    11601
B0101402350321006923002INC. PHASE I-B                                          21600
A0101402350321242269001GO, ROSARIO                                              0501
B0101405650322172336001RCBP-OUR LADY OF GRACE PARISH                            1601
A0101402510341203386002LORETA A. RELLOTO                                        0501
A0101402510341325613001LILY R. GEROY                                            0501
A0201400760000000222922PELUCHI ESSENTIALS SPA                                   0501
A0201400890000003645112DE JESUS, WARLITO PIO SUPAN                              0503
A0201400890000006649592DE JESUS, CAROLINA V OR                                 10501
A0201400890000006649592DE JESUS, CHARISSA ANNE V                               20500
A0101402930000003710574SOLATORIO, LOLLY ANN RAMOS                               0501
B0101402930381008843001BASIC HOUSING SOLUTIONS, INC.                            1605
B0101402930381023938001SNOW MOUNTAIN DAIRY CORPORATION                          1605
A0101402930381325163001SUSAN D. CORNEJO                                         0501
A0101402930381478374015DIMARANAN, ARNOLD ABEJERO                                0501
A0101408790000002326063CASTILLO, VIRGILIO LACSAMANA                             0501
A0101408790383046687001ROB.L CONSULTANTS                                        0502
A0101402770391013439001JIREH'S CAR PAINT SHOP                                   0502
A0101402770000000360650AGUIRRE, LORY DBU FIRST LINE                            10504
A0101402770000000360650TRADING                                                 20500
B0101402770000000440008AGRM GENERAL CONSTRUCTION TRADING                        1601
A0101405490000003633156ALMEDA, ABIGAIL YAPCHING                                 0502
A0101408400000005286320AMEROL, ROSLINA MAROHOMSALIC                             0502
B0101408400394025635001KETMAR FASTFOOD CORPORATION                              1605
B0101408400000004733751FJN6 FOOD CORPORATION                                    1602
A0101408400394478374034MERLA M TANO                                             0502
A0101408400394695689001CAYABAN, VIVIAN LAMIEL                                   0502
B0101409210000004818833GENERAL MILLING CORPORATION                              1601
A2401400180000005536712CALERO, MARIA JOCELYN SUNIO OR                          10501
A2401400180000005536712CALERO, FERNANDO Z.                                     20500
B2401400180411017908001LWC CYCLE MART, INC.                                     1602
A0101403320471400801001MARILEN I. CRUZ                                         10503
A0101403320471400801001OR DENNIS MICHAEL                                       20500
A3801400170000000497912HOSPICIO I LAYGO JR.                                     0501
B3801400170490060785001CALAPAN GOLDEN EAGLE MART, INC.                          1601
B3801400170490060790001MINDORO GOLDEN EAGLE DISTRIBUTION CORP                   1601
A1901400160000000007310GONDALINA LIMENDOG JUSTO                                 0503
A1901400160491448897001DELIA P PORTUGAL                                         0501
A1401400110492433218001MILLA, MAYNARD BUSTAMANTE                                0501
A1601400170000001068684JOANNE MARIE L. BUBAN                                    0501
A0101407430503478374017RIC L. ABADIANO                                          0502
A0101411400000006660160LIM, HELEN KIM                                           0501
B0101403450521012093001GRAVUS INDUSTRIES INC.                                   1601
B0101404000551298202003WIDE-WIDE WORLD EXPRESS CORP.                            1603
B0101404000000000461083DIZON, CHRISTOPHER & GARCIA, GENEVIEVE                  11603
B0101404000000000461083& DIZON, RAQUEL                                         21600
A0101404000551426801001CASTILLO, EVERLY ALVAREZ                                 0501
A0101410690000003027578ALVAREZ JR., ARIEL VILLA                                 0503
B0101404130601021158001CALMAR LAND DEVELOPMENT CORPORATION                      1604
B0101404130601035484001CARE BEST INTERNATIONAL SECURITY                        11604
B0101404130601035484001SERVICES, INC.                                          21600
A0101407720000005100263CASTILLO, VICTOR REY GONZALES                            0501
A0101407720602161863003ROBERTO K. MACASAET OR                                  10502
A0101407720602161863003VIRGINIA M. RAFAEL                                      20500
A0101407720602294680001PEDREGOSA, GERARDO STA ANA                               0501
A0101404260000003498533JOUSELYN PONTILLAS                                       0501
A0101413440000004882971COLOMA, GABRIEL MIGUEL                                   0502
B0101413440000000038184THE ONE DYNAMIC THREE REALTY AND                        11610
B0101413440000000038184DEVELOPMENT CORP                                        21600
A0101406590662211749002ALONZO, LETICIA TUAZON                                   0501
A1301400210000000983768BULAONG, BERNARDITHA NOLASCO                             0505
B1301400210682041874001MBB ROYALE INTERNATIONAL INC.                            1603
B1301400210000000023543SAN PABLO LIAM FOODS CORPORATION                         1603
A0101408240711383150001AURELIO III OR AURELIO JR.                              10501
A0101408240711383150001OR AARON LITONJUA                                       20500
B2801400100712031823001REYES, DIANO, TUMANDA & CO.                              1602
A4101400550000001622753NALE, JOSELYN QUILATAN                                   0501
A4101400550000003267014MALLARI, MICHAEL JOSEPH B.                               0501
B4101400550815038465001SOUTHEAST ASIAN MEDICAL CENTER, INC.                     1603
A4101400550815181675001MONTARDE, MILDRED PALABRICA                              0502
A4101400550000003266982*****                                                    0501
A0101412340000002900290MARINA F. ASUGAS                                         0501
A0101404840851046725006MELA M. GEROLAO                                          0501
A0101413860000000859003RUNEZ JR, SAMUEL RUNES                                   0503
A0601400230000000045230VICENCIO, M DBU HCON BUILDERS &                          0502
