A4101400420000000018482MATURINGAN, WILHERMINA REMULLA                           0501
A1301400210000000023383WILMA S TOLENADA                                         0501
A0101406590000000035572**********                                               0501
A4101400260000000048899ELVIRA C. IGNI                                           0501
A0301400530000000065898SOLID GROUND SECURITY AGENCY                             0502
A0101403450000000135464********                                                 0505
A0101408370000000336161PADER, MICHAEL FERANIL                                   0502
A0101402060000000358634ESPINA, WILBERT BALUYOT                                  0501
A0101402060000000358645ESPINA, WILBERT BALUYOT                                  0501
A0101402060000000358816MARIANO, RONIE DE JESUS                                  0501
A0101408660000000372930FRANCISCO, JOEL IBARRA                                   0501
A0101407560000000477787CAI, SHENG                                               0510
A0101407720000000510621STA. ANA, ANA ROSARIO PONCE                              0501
A0101411110000000604868**********                                               0503
A1101400120000000652824NIPAL, MARIA TERESA RIVERA                               0501
A0101403580000000922689INTAC, JENNIFER INSEQUEL                                 0501
A1301400210000000983815FELICITAS S SUNGA                                        0504
A0101400730000001016471VIOLETA O. SANOY                                         0501
A0101405810000001021332UY, RAYMOND VELASCO                                      0501
A0301400820000001027963EVA DIMAANDAL                                            0501
A0101409210000001294526CODOG, MA. GERLYN CARLA MAE DEL                          0501
A0101406040000001391993********                                                 0502
A0301400530000001409752URSUA, PRINCESS F.                                       0501
A0301400530000001409785VILLANUEVA, MELISSA MAY MATA                             0502
A2801400100000001494533CABIARA, ANTONIO CABANAG                                 0501
A0101405940000001534349GENUINO, PAULI ANTOINETTE P.                             0501
A0101412890000001765693ABLAZO, REMEDIOS IRINCO                                  0501
A4101400260000001783866FLORES, PEDRO FROMENCIO FERNAND                          0503
A1701400230000001786763OANA, MELANIE REMIGIO                                    0501
A1001400190000002170554UCAB, MARIFE (SHOECAT INC                                0501
A0601400230000002310161ST. JOHN BOSCO DORMITORY                                 0501
A0101412210000002714536HERNANDO, JOEL VILLARENTE                                0502
A0101400860011456028001**********                                               0505
A0101400860011475361001**********                                               0505
A0101400860011477042002**********                                               0503
A0101400860011653651001**********                                               0502
A0101401250021184686001CHAN, JOHNNY TAN                                         0502
A0101401700041046244001R.D. AUTO PARTS & SERVICES                               0520
A0101401700041192071001**********                                               0505
A0101400150061506307001*********                                                0501
A0101400730111386485079GLYN G. HORTALEZA                                        0502
A0101400730111520766069DIOLA, MARITES                                           0505
A0101401090171196194001DR. JESUS EUSEBIO JR.                                    0510
A0101401090171478374008FERNANDO J. DELA CRUZ                                    0502
A0301400530193478374014BABAS, NERISSA R.                                        0502
A0301400530193589326001DE VEYRA, ALFREDO D.                                     0505
A0301400530193686503001CORPUZ, GLENN A.                                         0501
A0301400530193713405001CONDE, ARTHUR BARRIENTOS                                 0502
A1001400190231040271001ROADNET 2000 ENTERPRISES                                 0502
A1001400190231520766060BEVERLY W. MIGRINO                                       0501
A0101400570281186577001*****                                                    0502
A0101400570281186578001********                                                 0502
A0101402510341196591001MARIA CORAZON SAPUAY QUINABO                             0501
A0101402510341331222002ERLINDA C. RECOCO                                        0502
A0101408370382352315001LESLIE CARMINA S. CANONIZADO                             0503
A0301400820409760125002GEPITULAN, DANTE C.                                      0501
A5501400120410272697001MARIVELES, RENEE GABIOSA                                 0501
A5501400120410719328001ILAO, YOLANDA CASTILLO                                   0501
A0101403030441594340001**********                                               0501
A0101406330472027958001A. ANOLIN ENTERPRISES                                    0503
A0101406330472478374039JOSEFA B. QUIPIA                                         0501
A0101406330472542494001TEODORA A. RAZON                                         0501
A0501400170481254469002OSCAR ARCINUE OR LUCIA DE VERA                           0505
A0101403580511196754001CARMELITA E. LA O'                                       0502
A0101403450521238091001**********                                               0501
A0101403450521240099001**********                                               0501
A0101407720602318369093DENNIS G. DAMASO                                         0504
A0101407720602397271001OZAETA, MA. RAMONA PABLO                                 0501
A0101404420631478374031NIMFA A. CAPANANG                                        0502
A0101404420631478374128MELINDA A. DELOS SANTOS                                  0501
A0101407690652031549001GOLDEN POWER BATTERY CENTER                              0505
A0101407690652045951001JMK BUILDERS CONSTRUCTION                                0502
A0101407690652399727002QUIAMCO, CONSOLACION GIVA                                0501
A0101406590662209694001MOZO JR., VIRGILIO DELA CRUZ                             0501
A0101406590662711800002ROQUE, EVELYN VALDOMAR                                   0502
A0101407560686023124001MILEAGE METAL PRODUCT                                    0503
A1701400230693497012001BANGILAN, LOURDES JIMENEZ                                0502
A2801400100712494193001DIANO, BLESILDA MISTICA                                  0501
A4101400390813563012001ALMODOVAR, KAREN BAGAIN                                  0501
A4101400390813723742001*******************************                          0502
A4101400390813723742001SANTIAGO, EMILY SANTOS                                   0501
A4101400420814017785001MONZON GENERAL MERCHANDISING                             0510
A4101400420814520766004SALVACION D. BITANCUR                                    0501
A4101400550815047612001GATDULA, LARNIE MONTANO                                  0502
A0101404840851210982001TOLEDANO, MINDA BAGOOD                                   0501
A0101404130000000001361VILORIA, REMEDIOS ONDRA OR                              10502
A1301400470000000009970AIMEE C. VENTANILLA OR                                  10501
A5501400120000000046922CHIU, VALENTIN & JULIA EILEEN                           10502
A0101402510000000049329UNICARE DENTAL, MEDICAL TRADING                         10501
A0101407690000000154750BARANGAN, ROMEO DBU                                     10503
A4101400550000000506814DALAGAN, CATALINO B. OR                                 10504
A1301400760000002346038JOHN ARTHUR G. SANTOS OR                                10501
A0101400150061326594001REYNALD C. UY OR                                        10501
A0101400150061369552001ROMEO TONGOL OR                                         10504
A0301400530193567665001APRESA, CECILIA T. OR                                   10501
A1001400190231040264001WESTBOUND PETRON                                        10502
A0101406620273280285001PELAGIO / ROSARIO / REBECCA /                           10501
A0101402060351009359002JIANDANI, SURESH G. &/OR                                10502
A0201400920375534474003CHUA, JEFFREY O. OR                                     10502
A0101408370382390985001MRS. NENITA A. OLIVEROS OR                              10501
A0101403320471028478001FILJOY ELECTRICAL AND                                   10502
A0101403320471400801001MARILEN I. CRUZ                                         10503
A0101407430503423636002SOMERA, LUCILA C. OR                                    10501
A0101403580511026941001CECILIA NARVAEZ Y DISENOS                               10502
A0101405940512366890005CASTILLO, RAFAEL RICAFRANCA OR                          10501
A0101410690600085096001YEE, SONNY L. OR YEE, KARRIE                            10503
A0101407690652520766018NILDA BERASIS - DEALERS OF                              10501
A0101407690652525001036ROWENA P. MONSANTO - DEALERS                            10501
A0101407690652525001068NORBERTO L. CHO - DEALERS OF                            10502
A0101408240711396310001LESTER C. VICTORIA OR                                   10502
A0101404130000000001361VILORIA, EDUARDO C.                                     20500
A1301400470000000009970SOLITA P. CHUA                                          20500
A5501400120000000046922CHRISTIAN & CHRISTEL                                    20500
A0101402510000000049329CORPORATION                                             20500
A0101407690000000154750BARANGAN TRADING                                        20500
A4101400550000000506814DALAGAN, TERESIT                                        20500
A1301400760000002346038ROSELLE JOY A. DUCA                                     20500
A0101400150061326594001SHIRLEY G. UY                                           20500
A0101400150061369552001FLORDELIZA TONGO                                        20500
A0301400530193567665001APRESA, HAZEL MA                                        20500
A1001400190231040264001SERVICE STATION                                         20500
A0101406620273280285001RAFAEL / ROWENA                                         20500
A0101402060351009359002JIANDANI, KAVITA                                        20500
A0201400920375534474003CHUA, SHEILA FATIMA                                     20500
A0101408370382390985001MR. JESSIE N. OLIVEROS                                  20500
A0101403320471028478001ELECTRONICS                                             20500
A0101403320471400801001OR DENNIS MICHAEL CRUZ                                  20500
A0101407430503423636002SOMERA, EDWIN C.                                        20500
A0101403580511026941001INTERIOR                                                20500
A0101405940512366890005CASTILLO, REBECCA                                       20500
A0101410690600085096001ANNE CANDACE M.                                         20500
A0101407690652520766018SHOECAT INC.                                            20500
A0101407690652525001036OF SHOECAT INC.                                         20500
A0101407690652525001068SHOECAT INC.                                            20500
A0101408240711396310001GIL JOSE E. PULUMBARIT                                  20500
B1001400190000000016366CAREWELL BIO-MEDICAL SYSTEMS CO.                         1603
B0101400860000000030279**********                                               1602
B1601400170000000036206BAYAN INERNATIONAL, INC.                                 1601
B1301400760000000050728VICTOR R. DEL ROSARIO RICE MILL CORP.                    1602
B0101406750000000090742MR. ICE TUBE DISTRIBUTOR INC.                            1602
B0101406040000000096800*********                                                1605
B0101403580000000214673MEC - SHANATA                                            1610
B0101408660000000373164COMIDA CALLE, INC.                                       1601
B0101408240000000832586TREE TRUNK DEVELOPMENT CORPORATION                       1605
B0101404840000001312394FIRST KINGSTON LEISURE AND SERVICES                      1602
B0101400860011425949001**********                                               1601
B0101400860011794038001**********                                               1602
B0101400600071026675001**********                                               1601
B0601400100081013158001TRUST INTERNATIONAL PAPER CORPORATION                    1610
B0301400530193041076168BLACK FIGHTER SECURITY AGENCY, INC                       1606
B0301400530193042677177TAGUM FUNDAMENTAL BAPTIST ACADEMY                        1605
B0101407140213192099002**********                                               1602
B0101406460272012461001INFORMATICS HOLDINGS PHILS INC                           1605
B0101408660274048368001PAN GLOBAL REALTY DEVELOPMENT CORPO                      1601
B0101408820333042084001********                                                 1601
B5501400120410034944001STARBRIGHT OFFICE DEPOT, INC.                            1610
B0901400220432043554001GERRY'S GRILL                                            1602
B0101403320471043706001M-TRI-R CONSTRUCTION & TRADING CORP                      1605
B0101406330472040053001KUS OFFICE SYSTEM MFG. CORP.                             1603
B1901400160491029733001PAWNCARE SERVICES INC.                                   1605
B0101403580511015363001MILLENNIUM ERECTORS CORPORATION                          1610
B0101403580511667036001GOLDLINK RESOURCES AND SOLUTIONS INC.                    1601
B0101403450521012032001**********                                               1603
B0101407690652036815001TAGALINIS, INC.                                          1603
B0101407690652042938001SIGNWOOD HARDWARE & LUMBER SUPPLY                        1603
B1301400340683023491001EMPRESS CHEMICAL INDUSTRIES, INC.                        1601
B0101407560686006370003**********                                               1605
B0101407560686037968001KPS FEED CORPORATION                                     1602
B0101408240711033368001ST. ELOI PAWNSHOP OPERATORS, INC.                        1601
B0101410560000000020366YUMANG, AMOR V. OR CRUZ, MARILOU S. OR                  11602
B0101401250000000460575RACELIS, F DBU COLORADO                                 11602
B3101400870000001177106BALITE, G DBU BGT FOOD ESSENTIAL                        11601
B0101406330472037043002THE ROMAN CATHOLIC BISHOP OF PASIG-STO                  11602
B4101400420814012637001ANABU DEVELOPMENT COOPERATIVE                           11605
B0101410560000000020366DELA CRUZ, GINA                                         21600
B0101401250000000460575PRINTING PRESS                                          21600
B3101400870000001177106CATERING SRVS                                           21600
B0101406330472037043002NINO PARISH                                             21600
B4101400420814012637001(ANADECO)                                               21600
B0101413600215821100608**********                                               2002
B0101408660274821100608**********                                               2005
B5501400120410821100608**********                                               2010
B3801400170490821100608**********                                               2002
B1401400110492821100608**********                                               2003
