B1001400190231821100608**********                                               2005
B0201400920375821100608**********                                               2005
A0101406620000002009165LACA, MARCELO DESIPEDA                                   0501
A0101400150000005015605DURAN, DULCE JASMIN BAO                                  0501
A0101401670271205710002MONTEVERDE, LORENZO G. OR                               10501
A0101401670271205710002MONTEVERDE, CAROLINA S.                                 20500
B0101402510341036906001LJS GROUP OF COMPANIES INC                               1601
A0101402930000015274725**********                                               0502
A0101402770000001841185CALIXTRO JR., JOSEPH CASTILLO                            0501
A1901400160491282845001ARTHUR C MALALUAN OR                                    10501
A1901400160491282845001IRENE D MALALUAN                                        20500
A0101400860011420919001**********                                               0505
A0101400860011468776001**********                                               0502
A0101400860011533026001**********                                               0502
A0101400860011699695001**********                                               0501
A0101401250001120001139DELA CRUZ, DAISY SY                                      0501
B0101401250021006627002STA. CLARA PARISH CREDIT                                11602
B0101401250021006627002COOPERATIVE                                             21600
A0101401250021476357001CATHERINE GO UY                                          0501
A0101400150000003218124MEDWELLYN-VER A. SANTOS                                  0501
A0101400150000005015605DURAN, DULCE JASMIN BAO                                  0501
A0101400150000009071443MANGLAPUS, KANA DEL ROSARIO                              0501
B0101400150061010680001CONSORTIUM INDUSTRIES, INC.                              1603
A0101400150061229814002LEONCIO C. LIM                                           0501
A0101405810000016514362WU, QING BO                                              0501
B0101405810072367597002WANG, GUO YANG                                           1602
A0601400100081370388002REYES JR., LIBERATO DAYRIT                              10502
A0601400100081370388002OR MELINA                                               20500
A0601400520000009516781CUENCO, RACQUEL BACSAN DBU BCC                          10505
A0601400520000009516781CONCRETE BLOCKS                                         20500
B0601400520000013873322SIRON, RONALD MENDOZA DBU SIRRONA                       11603
B0601400520000013873322VENTURES                                                21600
A0101414090000012424861MENDOZA, RNIE G                                          0501
A0101410560000000268331ROSE MARIE S. BRAZIL                                     0501
A0101400730111477011001SAMSON, CECILIA DURAN                                    0501
A0101401960000004419830**********                                               0501
A0101401960000006004411***************                                          0501
A0101413150000013434247**********                                               0510
A0101412630000004062064BANZUELA, ELEANOR ADORNA                                 0502
A0101401830000001139997VIOLAGO, MA. MERCEDES MENDOZA                            0501
A0101401830000013257648MAGTALAS, LEE MARVIN BACTAD OR                          10502
A0101401830000013257648MAGTALAS,MARIA VERONICA                                 20500
B7201400170000014905985PALWA, SALMAN MAULANA                                    1602
A7201400170000006487472PRANZA, JONAS SUMALINOG                                  0501
A7201400170000011454287OBAOB, MARIE FE MARAASIN                                 0502
A7201400170000017024167PARADELA, MAREBETH CATAYAS                               0501
B7201400170000008603081BAJE-DACAL, HEROINE PANIS DBU CDTECH                    11601
B7201400170000008603081BUILDERS                                                21600
A5001400170000000214020ARNOCO, MARIETA DIAMANTE                                 0502
B0101400440161007542001PACE REALTY INVESTMENT INCORPORATED                      1601
B0101407270162019525001CASTFOOD CORPORATION                                     1601
A0101407270162407622004SANTOS, RONALDO SORIANO                                  0502
A0101407270000001596945CELESTE C. NAPIGKIT                                      0501
A0101407270162629158001JANET R. RAGOJOS                                         0501
A0101401090171199427001MARILU R. MADRUNIO OR                                   10502
A0101401090171199427001RODERICK C. MADR                                        20500
A0101401090171200444001FRANCIS ROASA OR ELIZABETH                              10505
A0101401090171200444001ANGELICA ROASA                                          20500
A0101401090171312734001DE LARA, AILEEN CYNTHIA F.                               0501
A0101401090171531698001MARIA ISABEL D. CORNEJO                                  0502
A0301400530000013275606EDQUILA, ARIEL ALIBANGBANG or                           10504
A0301400530000013275606EDQUILA, KHARNELIA LARIOS                               20500
A0301400660000005691767VILLALBA, ERIKA MAITA VILLAGRAC                          0502
B0301400950000002115202GUEVARRA, GEMMA D. OR                                   11602
B0301400950000002115202GUEVARRA, ARTURO                                        21600
B0101401380201034006001PHILIPPINE CLEANGIVER CORP.                              1601
A0101401380201299840001KIM, JI YOUNG                                            0501
A3101400450000012147647DELA CRUZ, ESTELA ESCUETA                                0503
A3001400130000000007063GOLDEN HARVEST CATERING SERVICE                         10502
A3001400130000000007063FASTFOOD                                                20500
A1001400190231520766006DELFIN, LORENA                                           0501
B1001400480000011809966XUPLY INCORPORATED                                       1610
A1301400470252482273001DRA. LEONOR J. DIZON                                     0501
A1901400290000001975346RASMIA MIMBALAWAG LUMACTOD                               0501
A1901400290261051565001OLIVIA BAYLON HIPOLITO                                   0501
A1901400290261432900001JULIUS PIO AFRICA RANA OR                               10501
A1901400290261432900001CHARMAINE DE GUZMAN RANA                                20500
B0101401670000011534386PMWAY TRADING AND DEVELOPMENT CORPO                      1601
A0101406620000001686893MALLILLIN, FRANCIS MEL GONZALEZ                          0502
A0101406620273038576002VENTURE 11 FOODS EXCHANGE                                0501
B0101406620000004595735E11 VENTURES INC.                                        1601
A0101406620273575453001*********                                               10501
A0101406620273575453001*********                                               20500
A0101406620000012373370*********                                                0501
B0101406620273788244001VERDE ENERGY PHILIPPINES INC.                            1605
A0101408660000008622071MEDINA, NONNA DECOLONGON                                 0501
A0101412470000014657657DE CASTRO, MARIA GUIA MATILDE N                          0502
A0101400570281075141001JOANNA T. ADALIM                                         0501
A2601400270000000561740EMILIA M. BAUTISTA                                       0503
B2601400270000012506233JERRY GALOPE                                             1602
A2601400270000016515150DELFINITO EMMANUEL L. ALBANO DB                         10503
A2601400270000016515150U I8 CONSTRUCTION SUPPLY                                20500
A1101400120000005608260SANITA, ERIC SALIENTE                                    0502
A6601400120000005710521CARPIO, WILBERT DIANO                                    0505
A6601400120314733489001REBADULLA, BERNARDA BALDOMARO                            0501
A2001400290000010684336CHUA, JEOREX POBLACION OR CHUA,                         10501
A2001400290000010684336MELANIE ROSE GAR                                        20500
A2001400290000011380486LETHAM, ROWENA SARTE                                     0501
A0101402350000015000287MENDOZA, MARY ANN MATEO                                  0501
A0101402350321179511001MOLINA, LEONILO C. OR MOLINA,                           10501
A0101402350321179511001ELISA B.                                                20500
A0101405650000000772970ESTACIO, EMER HAICO OR                                  10504
A0101405650000000772970ESTACIO, VIRGINIA DIZON                                 20500
B0101405650000005381999AIRSCAPE TRAVELS, INC.                                   1602
A0101402510000000049409**********                                               0501
A0101402510341381018001DANICA FRANCIA SANCHEZ CAUDAL                            0501
A0101402060351009359003JIANDANI, SURESH G. OR                                  10501
A0101402060351009359003JIANDANI KAVITA                                         20500
A0101409050000006986716PARAGAS, LEAH PATRICE BORJA                              0501
A0201400920375036567001VIRLO CONSTRUCTION                                       0501
A0201400920000011194022CEBU OKOUME INTERNATIONAL                               10504
A0201400920000011194022TRADING                                                 20500
A0201400890000017024087OCHOA, ARNULFO SANTANDER                                 0501
B0201400890000017022354JY FOOD INDUSTRIES, INC.                                 1601
A0201401020000007935433VILLARMIA, WILBERTO JAO                                  0505
A0101402930000016826030JAPZON, MARIFIN CEMANES                                  0501
B0101402930381022956001HUMANITARIAN LEGAL ASST. FOUND. INC                      1605
B0101402930000003269447DETOXICARE PHILS INC                                     1601
B0101408370000007031409CTMED CENTRAL CHAIN CORPORATION                          1601
A0101408370000005220160******                                                   0506
A0101408790000015937656CRISANTI B. ABROGENA                                     0501
A0101408790000016571778TECHBOOTH TRADING                                        0502
A0101411660000005323951DOMINGO, ILUMINADA VIVIEN RUIZ                           0502
B0101411660384046304001ELITE GLOBAL SOURCING PHIL. INC.                         1602
A0101402770000005324458MINOZA, JEROME PAUL P. OR                               10502
A0101402770000005324458SOTTO, LORDANA C                                        20500
A0101402770391638700001MC NELLIS, TREVOR R. OR                                 10501
A0101402770391638700001MC NELLIS, CHRISTI M.                                   20500
B0101409210000000031250******                                                   1602
A5501400120000014838663FARROFO, ROSE MARIE CRUZ                                 0501
B5501400120410685505008THAIRAPEUTIC, CORPORATION                                1603
A2401400180000015944684BLANCO, DEHIMA PADERES                                   0502
A1201400150000016782140VELO, MICHAEL ALBERT CALINGAYAN                          0501
A5101400100000014191294CABATAC, JULIETA PIEDAD                                  0502
B5101400100000010834290GALAN, JONATHAN HENRI PARIS DBU                         11601
B5101400100000010834290RED STAR & GALAN                                        21600
A0101403030441239821001TEDDY T. YAU                                             0501
A0101412890000014437642FRANCIS LILIAN A. REMOLACIO                              0502
B0101406330000000432795GSD SECURITY AGENCY, INC.                                1602
A0101412760000002262751MONTEAGUDO, MA THERESA RATON                             0501
A0501400170481253455001NORMELITO QUIMO OR IRENE QUIMO                           0502
A1901400160000016173803RAYMUNDO, MARGARITA ANN CANTOS                           0501
A1401400110492357128002ESPARAS, TERESA BAUTISTA                                 0501
A1401400110492531512001SALVANERA, ZIEGFREDO AGUILAN                             0502
A0101403580000013963670DE JESUS, LESTER JOHN RUFON                              0501
B0101405940512036113002MFC BISTRO FOODS CORPORATION                             1601
A0101408530516571877196SUICO, JOEY YUSON                                        0501
A0101411400000010984235LUMANUG, CHRYSEIS DANIELLE MANL                          0501
B0101403450521033942001HYPERLAND HOLDINGS, INCORPORATED                         1605
A0101403450521239350001**********                                               0506
A0101403610000015982822SOUZA, FERDINAND ALFONSO                                 0501
A0101403610000011343701SAN PEDRO, LOUELY CANULLAS OR                           10501
A0101403610000011343701SAN PEDRO, LOREMAR                                      20500
A2201400250000013859204VILLAMOR, MAY GACUTAN                                    0501
B2201400250000015110635BALON, MIRIAM GRANADOS DBU MIRIABEL                     11604
B2201400250000015110635FOODSERVICES                                            21600
B0101410690000001284395ALDANA, MA. ELENA M. DBU PANSOL TRADING                  1604
B0101404130000003105820SINONET TECHNOLOGY, INC.                                 1601
A0101407720000004664860PRESCOTT, MARTIN HAO                                     0501
A0101407720602241314001**********                                               0502
A0101407720602313458002QUIBAEL, ARMI DE LAS ALAS                                0501
A0101407720602341473001VILLASOR, MA. TERESA GUSTILO                             0504
A0101407720602396366001BRAVO, ARLENE RICARTE                                    0502
A0101412180000011559961CHU, ANGELO ROBERTO TORRES                               0502
A0101404260611150840002WILLY OR ELIZABETH CHING                                 0501
A0101409890649532489001CHUACUCO, NANCY SY                                       0501
A0101413570000011643031ELOISA PALMA                                             0501
A0101413990000006278077PANGA, MARIA SHEILA F. OR                               10502
A0101413990000006278077PANGA JR., SALVADOR S.                                  20500
B1301400340683024674002ST. JOSEPH SCHOOL OF LAWANG BATO INC.                    1601
A1301400340683502150002LLANILLO, OSCAR PINEDA                                   0502
A1301400500000016062463ALEX P. LAGATA JR. OR                                   10501
A1301400500000016062463PRINCES S. LAGATA                                       20500
A1301400500000012913263ELITE THEA ENTERPRISES                                   0503
A0101408240000011487251IMPAT, JONNAH MAE GARRINO                                0502
A0101408240711656808001RAMIREZ, ANNA CARMELA OR                                10502
A0101408240711656808001MICHAEL RICHARD                                         20500
B4101400260812039799001LAGAMAYO DENTAL CORPORATION                              1603
A4101400260000003679943TAN, ANGELINA                                            0501
A4101400390000007459198BERNARDO P. GUINOO OR                                   10503
A4101400390000007459198ANA B. GUINOO                                           20500
A4101400420814443810001DORIO, MELANIE AQUITANA                                  0501
A4101400550000016371647HALOODA FOOD HOUSE AND CATERING                         10501
A4101400550000016371647SERVICES                                                20500
A4101400550815066244003MERCADO, E DBU EDJOY                                    10501
A4101400550815066244003ENTERPRISES                                             20500
A0101412340000005139771STEVE WILFRED P. PELAEZ                                  0501
A0101412340000003343531VIA VANESSA LIM GARCIA                                   0501
A0101412340000003349119JOHN VINCENT V. TABUG                                    0501
B0101412340000005964065CM2 CONSTRUX, INC.                                       1603
A0101406750000003393140FUENTEBELLA, JOCELYN PANGILINAN                          0501
A0101406750000004642262THELMA LOBO                                              0502
A0101406750000007879370OSCAR C REYES JR.                                        0501
A0101406750000009472302CHAVEZ, EURISH VALENTINO                                 0501
A0101405070861315083001**********                                               0501
