B2401400180411821100608**********                                               2010
A0101409180000004375382TAN, MARK HANSLEY                                        0501
A0101409180000005326472DEL ROSARIO, CARINA SAMSON                               0502
B0101406590662004162001ROTARY DISTRICT 3800 HANDOVER                            1601
B0101410300000000191600NS COLABORACION INC.                                     1602
A0101406750852478374064LETICIA B MADRID                                         0501
A0101400860000010683322ZABARTE SERVICENTER INC.                                 0502
A0101400860011416222002**********                                               0503
A0101400860011632451001**********                                               0505
A0101401250000000057065VILLAS, ROGELIA L.                                       0501
B0101411370022046175001NEW FORM REALTY CORP.                                    1602
A0101400150000001422560MA. SONIA DE GUZMAN                                      0501
A0101400150000003162267AGONCILLO, APRIL ROSE POLINTAN                           0502
A0101400150000001422246BOGNADON, NELLY LABLABONG                                0501
A0101400150061315349055DENNIS JOY EJERCITO                                      0502
A0101400150061647793001MANESE JR., MICHAEL DAVID                                0502
B0101400150061733490001EXCEL CONCRETE LOGISTICS INC.                            1603
A0101405810072696577001CHAN, MERCELYN TAN                                       0502
B0601400100081039107001REPLICAS MARITIME & AVIATION MODELS INC.                 1604
B0601400100081296256001CHRISTOPHER OR LOYA MALLARI FAO CHRISSAN                11603
B0601400100081296256001AUTO SUPPLY                                             21600
B0601400100081675425001VIRTUAL LANDHOLDINGS DEVELOPMENT GROUP                  11601
B0601400100081675425001CORP.                                                   21600
B0601400360000003186930SOMANG GLOBAL CLARK  CORPORATION                         1601
A0101414090000010560937BERACIS, RODEL BACOLOD                                   0502
A0101410850000012195323AUREUS, FLORABEL ARROYO                                  0501
A0101410850000012195523DAVID, LAWRENCE CRUZ                                     0501
A0101410850000012239177FERRER, AILEEN JOY NANALIG                               0501
B0101410850000000005621TURNSAT INTERNATIONAL LOGISTICS                         11602
B0101410850000000005621CORP.                                                   21600
A0101410850109053560002HERNANDEZ, JUNE JT DBU JUNE AND                         10502
A0101410850109053560002YVETTE TRUCKING                                         20500
A0101410850000003503482CANILLAS, MARTIN LAPPAY DBU                             10502
A0101410850000003503482MARCCHARM INDUSTRIAL                                    20500
B0101410850109069831001TELLTRANS INC.                                           1603
A0101410560000001290955QUILANTANG, MA. IRENE NARIA                              0501
A0101410560000010318213MYRA S. MONTALBAN                                        0501
A0101410560000005280473KRISTOFFER GEORGE T JAVIER                               0501
A0101410560000005836262MORITA H. NACOR                                          0502
A0101400730000002882313YAP JR., ENRIQUE YNSON                                   0502
A0101400730111195461002JOSE L. DIZON OR                                        10501
A0101400730111195461002JANICE D. DIZON                                         20500
A0101400730111478374151MELANIE T. SIGUE                                         0501
A0101412630000009425098SERRANO, EFRAIM VELARDE                                  0501
A0101401830141338177001ETHYLENE TAN ONGCHAN                                     0501
A0101401090000005320278FERNANDO L. LOPEZ OR ESTRELLITA                         10503
A0101401090000005320278F. LOPEZ                                                20500
A0101401090000003835916NOVIO, RONA REGADO                                       0502
A0101401090171195810001LUIS M. FERRER                                           0501
A0101401090171199354002AGNES CECILLE OR                                        10505
A0101401090171199354002EUSEBIO ANTONIO                                         20500
A0101401090000001611427QUINTO, EDWARD ASTORAS                                   0501
A0101401090171331007001JONAS Y. SANTIAGO                                        0501
A0301400530000000065865ARASA, NICOLAS                                           0501
A0301400530000006239421NGO, JAIME YU                                            0503
A0301400950000008869032HUTALLE, RONILA JABONERO                                 0501
A0101410720000001602062PEDROSA, TEODORO CELESTE                                 0502
A0101410720000000211930NAPOCOR VILLAGE MULTI-PURPOSE                           10501
A0101410720000000211930COOPERATIVE                                             20500
A0101410720653402452001JONE P. LIU CHIANG OR                                   10502
A0101410720653402452001LEO VILLAVERT                                           20500
B3101400160221013530024RD PAWNSHOP, INC.                                        1603
A3101400160221220205002RODOLFO OR ROBERTO ELEPANO OR                           10501
A3101400160221220205002ALFREDO BAYLOSIS                                        20500
A3101400160221529074001DIONISIA R. MALIHAN                                      0501
A3101400450223525937001GUNIO, LERICE OR FEDERIZO,                              10501
A3101400450223525937001AMPARO                                                  20500
A3101400740224087806001NECESARIO, EDUARDO PASTOR                                0501
A3101400870000003515295ELIZAGA JR., FERNANDO PABATANG                          10501
A3101400870000003515295AND ELIZAGA, DAISY MAY M.                               20500
A3101400870000008979742ALTEZ, MARY ANN ORTAL                                    0501
B3001400130000003434648HAPPYALL3 BUILDERS CORPORATION                           1620
A1001400190231040264001CHABON, CLA DBU WESTBOUND PETRO                         10502
A1001400190231040264001STATION                                                 20500
B1001400190231040271001ROADNET 2000 ENTERPRISES                                 1602
A1001400350000000922014PEARSON, PILARCITA ROA                                   0502
B1001400350000007920876PEARSON, PILARCITA ROA AND  HEQUILAN,                   11602
B1001400350000007920876ELVIE CORTEZ                                            21600
A1001400350000003867250PEARSON, LAARNIE PEARL ROA                               0502
A1001400350233565423001TAN, LUCILA ADECER                                       0501
A1001400480000003357680BALDELAMAR, JACKY ROSE DALE SIM                          0505
A1301400760000008698968GILBERT TAYAO OR TIRSO FRANCO                           10502
A1301400760000008698968JR. OR DANTE HILARIO JR.                                20500
B1301400760000007820626VOLT HAROLD MARKETING CORPORATION                        1602
B1301400760000007820557DON PHILIP MARKETING CORPORATION                         1602
B1301400760000007820615ELITE MOTORBIKE SALES CORPORATION                        1602
B1301400760000007820591ROYCE CREDIT AND FINANCIAL SERVICES                      1602
B1301400760000007820580EXTREME MOTOR BIKE TRADING CORPORAT                      1601
B1301400760000007820637VOLT IVAN MARKETING CORPORATION                          1602
B1301400760000007820568KEVIN HENRY MARKETING CORPORATION                        1602
B1301400760000007820579ROYCE MOTORCYCLE TRADE CORPORATION                       1602
B1301400760000007820604JAN WILLIAM MARKETING CORPORATION                        1602
B0101406620273037236001SANTOS SANTOS & SANTOS LAW OFFICES                       1601
B0101406620273047822001ROCKHAUS REALTY AND DEVELOPMENT INC.                     1601
B0101408660274045729001SUNRAY TRADING                                           1602
A0101410980275076915001LUNA, RUFINO YAP                                        10501
A0101410980275076915001OR LUNA, MA.DOLO                                        20500
A0101400570000011532460FERNANDEZ, MA. CAMILLA ALHAMBRA                          0501
A0101400570000001681858GO, ROBERTO ONG                                          0506
A0101400570281797354001KOLLIN, DENNIS BRIAN WANGDALI                            0501
A6601400120314094719001SANTIAGO, CYRIL OR CHERIMIN                              0502
A6601400120314646693001LOPEZ, LUZ PADILLA                                       0502
A2001400290000006776716TARIAO, SUSAN ALVAR                                      0501
A2001400290315640426001**************                                           0501
B0101402350321024658002OLIVAREZ COLLEGE INC.                                    1608
A0101402350321250545001ANGELA GO                                                0502
A0101405650000000525717TAMBUNTING, JOY MYRA SALVADOR                            0505
B0101402510341025648001EXPRESSIONS STATIONERY SHOP, INC.                        1601
A0101402510341196523001MYRIAM B. BACUD                                          0501
A0201400890000007668537ANDEZA, EVANGELINE YBANEZ                                0502
B0201400890376069939001ESPRINT SYSTEMS, INC.                                    1602
B0201400890376069939001*******************                                      1601
B0101402930381008829002AXEIA DEVELOPMENT CORP.                                  1615
A0101408370000010833428DUALAN, IVO JOHN SALES                                   0502
B0101408370382033381002THE MEDICAL CITY, DEPARTMENT OF SURGERY                  1602
B0101408370000007031409CTMED CENTRAL CHAIN CORPORATION                          1601
A0101408370000003775097ESCASINAS, EMELIE PENA                                   0503
A0101408790383610468006SEVILLA, LIRIO A.                                        0502
A0101415350000012005995BORJA, REGIDOR BUSCAYNO                                  0501
A0101402770391022532001VIREX ENTERPRISES                                        0501
A0101408400394027889001TINA S. BERIN FLOWER SHOP                                0505
A0101408950396565613001AGCAOILI, MA. DULCE FLORENCE                             0501
A0101409180000001694271LARRAZABAL, MARIA VICTORIA                              10503
A0101409180000001694271MORENO                                                  20500
B0101409210000002783180ABALAJON, ELISA DBU ELISA ALGARRA S                      1602
B0101412210000005051336GEOGEN CORPORATION                                       1602
A0101412210399348879001GALANG, EDUARDO COMDOHR OR                              10503
A0101412210399348879001GALANG, CHRISTOPHER KYLE                                20500
A0301400820000002106285FONTANILLA, ARNOLD S. OR                                10510
A0301400820000002106285FONTANILLA, EVELYN D.                                   20500
A0301400820000002272077ALVARADO, REY T. OR ALVARADO,                           10501
A0301400820000002272077JULIE ANN O.                                            20500
A2401400180411442136088***************                                          0501
B0101403030441015408001BULLION INVESTMENT AND DEVELOPMENT CORP.                 1605
B01014030304410275580011187 SALES & MARKETING, INC.                             1602
B0101403030441038513001**********                                               1602
A0101403320000000736032CORREOS, ANN MAYVILLE V.                                 0501
B0101403320471039191001MAR-V-RITZ TRADING - BRANCH                              1603
A0101403320471069684001ROOFTECH TRADING                                         0501
A0101403320000001646813LAURENTE, ARNOLD SILVERIO                                0501
B0101410140000007303660BISHOP OF LIGHTHOUSE BIBLE BAPTIST                      11602
B0101410140000007303660CHURCH                                                  21600
A1901400320000002296028DE LEON, JENALYN TOLENTINO                               0501
A1901400160491327217001JENALYN T DE LEON                                        0501
A1901400160491494343001RAINIER C UNTALAN OR                                    10504
A1901400160491494343001RELYN M UNTALAN                                         20500
A1401400110492064455001PONTIOSO, A DBU ASTROPEX                                10501
A1401400110492064455001BUILDERS AND SUP                                        20500
A1401400110000003988996CARCIDO, JEFFERSON CU                                    0501
A1401400110000000132841*******                                                  0501
A1601400170000001360634ALDON, CONSUELO DAYTO                                    0501
A1601400170000001068622NOEL C. CELESTIAL                                        0501
A0101407430503181422001FOJAS JR., HONORIO                                       0502
A0101403580000000383562ASCALON, CARMELITA ABAD SANTOS                           0502
A0101403580000000383642CARMELITA A.S. ASCALON OR MA.                           10501
A0101403580000000383642MARGARITA FATIMA ASCALON                                20500
A0101403580000000383653CARMELITA A.S. ASCALON OR MA.                           10501
A0101403580000000383653MA. ROSARIO OLIVA A. CHOA                               20500
B0101405940000000886682SEWELLS GROUP PHILIPPINES, INC.                          1604
A0101405940000001534269**********                                               0501
A0101405940000000061601SISON, LILIAN GARCIA                                     0501
A0101408530000008159597FRITZIE JANE FUERTES GOMEZ                               0502
A0101403450521233244001**********                                               0501
B0101403610531064864001168 PLASTIC CORP.                                        1602
A2201400250000000970656TATSUYA YAMAMOTO                                        10501
A2201400250000000970656EMPLOYEES OF IEWPC                                      20500
A0101410690000000711066LIZARES, FELIX MAGALLANES                                0501
A0101410690000001284322CO, MARIANO L DBU ASAP COMPUTER                         10504
A0101410690000001284322SYSTEM                                                  20500
B0101404260611027402002ENTRUSTED CORP                                           1605
B0101404260611028963001PARC HOUSE II CONDOMINIUM ASSOCIATION                   11603
B0101404260611028963001INC.                                                    21600
A0101409920000001539522CEDENO, NOEMIE DEDICATORIA                               0501
A0101407690652517989001FLORANO, GUILBERTO COYOG                                 0501
A0101407690652545233001ENCINA, MA. COCA GARLET OBAOB                            0502
A0101407690000000154852ANGELES, LORENA ALMAZAN                                  0505
A0101411530000003238253**********                                               0502
A0101406590000000131615FERRER, MARK RENOSA                                      0502
A0101406590000003007052SANCHEZ, LUZVIMINDA OR MICHELLE                         10501
A0101406590000003007052OR TENG, MARIE SHARON                                   20500
A0101408240000001038675MONFORTE, RAQUEL SOTTO                                   0501
A0101408240711386762003TUGADE, PAUL LOUIE OR                                   10502
A0101408240711386762003TUGADE, KATHLEEN                                        20500
A0101408240711510985001DELA CRUZ, RODERICK CRUZ                                 0501
A0101408240711664151001CARINAN, LISI STA. ANA                                   0501
A4101400260000003680051APARICIO, KAREN TULIO                                    0501
A4101400260812039607019SANTOS, MARIA CARMELITA                                  0501
A4101400390000000975253TUAZON, ELIZABETH CALDERON                               0502
B4101400420000009391988SOUTH MEATS AGRI TRADING INC.                            1602
B4101400420000009392010SWINELAND INC                                            1602
A4101400420814478374146ZETA B. CLIDORO                                          0501
A0101406750852381214002METTA ABBY V. FORMIENTO                                  0502
A0101406750000001491783LUNA, CHERRY ANNE YERRO                                  0501
A0101405070861197507001SIY, LUISA SIA                                           0501
A0101413860000001887056DE LEON, ATHENA ANGELLIE                                 0502
