A3801400170000000154130ILAGAN, ROCKEY OR ILAGAN, MA.                           10501
A3801400170000000154130CECILIA DBU RDI                                         20500
A0301400530193047804168JULIE'S BAKESHOP                                         0502
A0301400530193584721168YANG, CHAOWEI                                            0505
A0101400570281421615001ANDREW S. ONG OR                                        10503
A0101400570281421615001CHERRIE ANN L. ONG                                      20500
A0101403320000009740401MACALPANG, SANAIRAH CAWASA                               0501
A0101403320471400801001MARILEN I. CRUZ                                         10503
A0101403320471400801001OR DENNIS MICHAEL CRUZ                                  20500
A0101407720602397509001VICTOR L. GISBERT OR                                    10502
A0101407720602397509001ARLENE MAY A. GISBERT                                   20500
A0101407720000000245145VICTOR L. GISBERT OR                                    10502
A0101407720000000245145ARLENE MAY A. GISBERT                                   20500
A4101400550000000005950SEGURITAN, JOCELYN DBU SFC                              10506
A4101400550000000005950OFFICE FURNITURE                                        20500
A0101400860011388186002TAN, MYRNA MENDOZA                                       0502
B0101400860011393751002**********                                               1610
B0101400860011397647001**********                                               1602
A0101400860011539633001**********                                               0505
A0101400150000003876922MARY LENORE PESTANO                                      0501
A0101400150000009764452REFUERZO, MARIA CRISTINA JAVIER                          0501
B0101400150000006432577H2O LIFE SOURCE (SEA) PRIVATE LIMIT                      1602
A0101400150061304182001AMIEL N. DE GUIA                                         0501
B0101400600071233748002**********                                               1601
A0601400100081028046001TANDEM INTERIOR DESIGN STUDIO                            0502
A0101413730000000469147PROLINE PLASTIC CO.                                      0503
A0101414090000002282782LIM, CHERYL TAN                                          0502
A0101410850109058582001CHRISTINE MAY BURLAZA'S CUSTOMS                         10501
A0101410850109058582001BROKERAGE                                               20500
A0101410560000005836193BANTUG, DEANNA LICHELLE BALCEDA                          0501
A0101401960000006004513**********                                               0501
A0101401960000005392503GO, KEVIN IAN CUA                                        0501
A0101401830141058130001ARCANO, MARY ANN  RIVERA                                10501
A0101401830141058130001DBU ICJR PHARMACY                                       20500
A7201400170000003774141VELAYO JR., ROSALIO OSORES                               0501
A0101400440000002034902ARUMPAC, MAHMOUD AMER                                    0502
A0101400440000002035201CRISANTA M. FREO                                         0501
A0101400440000004889803ALBIA, HELEN S.                                          0501
A0101400440000004901440NLR INSURANCE SERVICES                                   0503
A0101400440161525001139JEMARIE S. SALUDAR                                       0501
A0101401090171195915001MARILOU M. MARISTELA                                     0501
A0101401090171196008001JESUS OR AMELIA POBLETE                                  0502
A0101401090171504210001ALBINA R. GANDALLA                                       0501
A0101401090171558920001MILAGROSA, REGINA SALES                                  0501
A0301400530000002318561VILLANUEVA, FEDERICO MAGPAYO OR                         10501
A0301400530000002318561VILLANUEVA, MARI                                        20500
A0301400530193047804088**********                                               0502
A0301400660000000194592*****                                                    0501
A0301400660000002913113UY, JOHNY DOMINGUEZ                                      0502
A0301400660000002913282**********                                               0502
A0101401380201320598001CHUA, CHING KAI                                          0502
A0101401380201371534001JOSIE ASANON                                             0502
B0101413020000006295583PANCITERIA LIDO CHINESE CUISINE CO.                      1605
A0101412500000005300430PABILLANO, FRANKLIN ROOS CINCO                           0502
A0101412500214062488001SANKALPA YOGA STUDIO                                     0501
A3001400130000001271790HERMOSADA, JAME DORIA                                    0501
A3001400130000002063441JONGKO, JOSE MARI MARCO OR                              10501
A3001400130000002063441JONGKO, DEBORAH                                         20500
B1001400350233013980001VIC IMPERIAL APPLIANCE CORP.                             1603
A1001400350233644458001LAZO, MICHELLE ATINEN                                    0502
A1301400470000005394221ALICIA M. HOLGADO                                        0502
B0101401670271029786001AGUIRRE & AGUIRRE LAW FIRM                               1601
B0101406620000000015209SUNPRIME FINANCE INC.                                    1610
A0101406620000000193840TAN, APRIL LYNN LEE                                      0501
A0101400570281422071001DRA. ELSIE B. PASCUA                                     0503
A0501400200000005751635PERDIDO JR., LEONARDO DIWATA OR                         10501
A0501400200000005751635FLORES, JOAN MAY                                        20500
A2601400270000002312163ALEJANDRO Q. UY III                                      0501
B0801400160000001289932RD PAWNSHOP, INC. - ILOILO NORTH                         1605
A0801400160000000476299*********                                                0503
A1101400120000000652351YAO, RONALD PHILIP GO                                    0501
A6601400120314071890001MARTIRES, MYLA TURLA                                     0502
B2001400290000002406720DY, LOREEN LAO AND YAO, MARIANNE SY                      1601
A3401400280000004958603GARCIA, MARILOU CASTRO DBU BIG                           0502
A0101402350000001474324MARTINEZ, KENNETH BUHAT                                  0501
A0101402350321597544001ARSITIO, ROBERTO T. OR ARSITIO,                         10501
A0101402350321597544001LUVIZMINDA L.                                           20500
A0101405650000005284460RODRIGUEZ, ADELINA SUAREZ                                0502
B0101405650000000772754PALMRIDGE TRANSPORT SERVICES, INC.                       1601
A0101409050000003533457REGINO, SARAH                                            0502
A0101409050352717261001MARIA KATRINA JESSICA M.                                10506
A0101409050352717261001GALLEGOS                                                20500
A0201400890376522560001SU, SEYMOUR UY                                           0501
A0101408370382652736001VELORO, LYRA VALERA                                      0501
B0101408790000000599760CHILDFUND INTERNATIONAL, USA DBU CHILD                  11606
B0101408790000000599760FUND PHILS. INC.                                        21600
A0101405490000001092751MARIA TERESINA G. MESINA                                 0501
A0101408400394420934001SANTIBANEZ, EUGENIA SANTIAGO                             0505
A0101409180000003906956ALBERT C. PASICOLAN                                      0502
A0101409180000005326603IBARDELOZA, ANNALYN SIABOC                               0502
B2401400180411017908001LWC CYCLE MART, INC.                                     1602
B2401400180000000073710MABUHAYONE CORPORATION                                   1602
B0901400220432821100608**********                                               2001
A0101412890000001056462GO, FLORINDA DE GUZMAN OR                               10501
A0101412890000001056462MANALILI ZARAH JANE G                                   20500
A0101403320471042942001SUPREMEBIKE CENTER                                       0502
A0101403320471047588001RHINA JENEPER C. LIBIRAN DBU                            10502
A0101403320471047588001R-GENESIS DRUG S                                        20500
A0101410140000001939984DELANTAR, DARMEL URAGA                                   0501
A0101410140000002307773DAWAL, FLORENCE JACINTO                                  0501
B0101410140475045534001J-BREN STAR CORP. DOING BUSINESS UNDER                  11602
B0101410140475045534001THE NAME AND STY                                        21600
B0101410140475821100608**********                                               2002
B0101412760000001399846BOX, JANUARIO DBU BRAINCHILD MARKETING                  11602
B0101412760000001399846SERVICES                                                21600
A0501400170481046585004ANG, JUSSLYNN DBU AVS                                   10501
A0501400170481046585004DISTRIBUTION CEN                                        20500
A1901400320000000041181LUISA FAYTAREN MACARAIG                                  0504
B1401400110000000167468PETER PAUL PHILIPPINE CORPORATION                        1605
A1401400110492220705001ZETA, DULCE CORAZON LONTOC                               0501
B1601400170494047919001CLKM INTERSTATE BUILDERS                                11601
B1601400170494047919001CORPORATION                                             21600
A0101408110000002908052RAYNER ART DEMOCRITO M. RANIN                            0501
B0101408110000008308463TORCULAS, JAIMES JURDEN LAGARDE DBU                     11603
B0101408110000008308463MARIKO KTV BAR                                          21600
A0101408530516512405001***************                                          0501
A0101411400000001280251CASTRO, ROBERT LOUIS CALAYAG                             0501
A0101411790000000039303GAN, JOSEPHINE DELA CRUZ                                 0501
A0101403450000008159940SANTIAGO, AURORA MIRANDA                                 0501
A0101403610531220725001NAVARRO, WILFREDO G.                                     0502
A0101403610000002347122TORRES JR, FIDEL SALAYO OR                              10501
A0101403610000002347122TORRES, MILAGROS JAYME                                  20500
B0101404000551036631002TECHNICAL INSURANCE BROKERS, INC                         1601
A0101407720602396271001DR. MAY O. SISON                                        10505
A0101407720602396271001OR DR. JORGE A.                                         20500
A0101407720602404060001MARZO, MARIA ROWENA FERNANDEZ                            0502
B0101407720602531639007INTELLIGENT BEAUTY SKIN SOLUTIONS INC.                   1602
A0101404260611478374081ROSITA VIVIT                                             0502
A0101409920000000857989ABUYUAN, NORA G. OR                                     10501
A0101409920000000857989ABUYUAN, JIMMY G                                        20500
A0101407690652520766005GILNNA M. MALIGAT - DEALERS OF                          10501
A0101407690652520766005SHOECAT INC.                                            20500
A0101413990000006768581NEBRIA, ESTER P. DBU BUTTER-NUT                         10503
A0101413990000006768581BAKESHOP                                                20500
A1301400210000007669096VILLACARLOS, MA JILL PAMPAG                              0501
B1301400210000005040953EDEL'S PLANT NURSERY                                     1603
A1301400500000000212995LUDETTE FATIMA T. CASTRO                                 0502
A0101408240000007478126ALDANA, FELIPE FLORENCIO B.                              0502
A0101408240711375102001PANICUCCI, MA. PILAR M. JT                               0501
B0101408240711641226001ASIAN CENTER FOR DENTAL SPECIALTIES                     11610
B0101408240711641226001ALABANG INC.                                            21600
A2801400100712281930001VICTORIA R. VALDEZ, M.D.                                 0502
A2801400230000005752490BARROGA, ANALIZA ASUNCION                                0501
A4101400260000005333620MARANAN, GOVENCIO P. OR                                 10501
A4101400260000005333620MARANAN, MARIBEL A.                                     20500
B4101400390000003346187PAGASA PHILIPPINES LENDING COMPANY                       1603
B4101400550815038465004SOUTH EAST ASIAN MEDICAL CENTER INC                      1630
A4101400550000000315040BUMA-AT, THELMA                                          0501
A0101412340000004359906ZARRA F. ALEGRE                                          0501
A0101404840851478374094LETICIA FULLO                                            0501
A0101406750000000480784TAYAG JR., ABELARDO RODRIGUEZ M                          0503
A0101406750852084318001SIBUG, GENEATH P. OR                                    10501
A0101406750852084318001SIBUG, ERNESTO M                                        20500
A0601400230891314354001MALLARI, MARY GRACE MONTANO JT                           0502
A0601400230891398766001..........                                               0502
A0601400230891698269001DIMABUYU, LESLIE BALUYUT                                 0501
