A0101400440000001439794BAMBAO, LERMA CANAVERAL                                  0501
B0101400440161026381001KRISTINE JEWELLERY, INC.                                 1601
A0101400440161039572069IMELDA A. ESTRADA                                        0501
A0101400440161520766193LEILANIE P. LOCSIN                                       0501
A0101400440161525001112JELLIE ANN D. LOMAHAN                                    0501
A0101400440161525001139JEMARIE S. SALUDAR                                       0501
A0101400440161520766147EVANGELINE GARAY                                         0501
A1101400120000009119615LAZARRA, REGINE MORALLOS                                 0505
A1101400120313478374079MARIJOE NOVE CORANEZ                                     0503
A0101400440000002034920MARY GRACE S. UGAT                                       0502
A0101400440000008201243GERARDO R. DURANTE                                       0502
B0301400950000006054100**********                                               1605
A0101400150061229814001LEONCIO C. LIM                                           0501
A0101407270000011651653IMBAG, RHEA ANGOLUAN                                     0501
A0101406460000000182712YU, STEVEN DE GUZMAN                                     0501
A0101406460000002330701**************                                           0501
A0101406620000001686484TILANO, VICENTE TORRECHANTE                              0501
B0101403450521025948001VECO PAPER CORPORATION                                   1602
A0101403450521239411001**********                                               0504
A0101411370000003294922MEMBERS OF NATASHA, SHOECAT INC                         10503
A0101411370000003294922GARROTE, MARILYN C.                                     20500
A0101400150000004915180RIVERA JR., RODRIGO PABELLO                              0502
B0101400150061026954002PIONEER LIFE INC.                                        1601
A0101400150061039916189SANTIAGO, TERESITA E.                                    0501
B0101400150000006432511FRANKLIN BAKER, INCORPORATED                             1601
A0101400150061381319001MYRNA DE JESUS UY                                        0501
A0101400440000000337580ESPIRITU, HAZEL MANGENTE                                 0501
A0101401090171198388001FELICITAS E. PONCIANO                                    0501
A0101401090171198388001FELICITAS E. PONCIANO                                    0501
A0101401090000010238438TORRES, ALICIA CASIMIRO                                  0502
A0101401090171469542001ENRICO H. BICOL                                          0501
A0101401090000001618720KARL T. MORALES                                          0502
B3101400160221025078001FUKAI RUBBER PHILS. INC.                                 1601
A3101400450223491849001JAO, AUGUSTO RAZEL DOMINO                                0501
B1001400350000007920876PEARSON, PILARCITA ROA AND  HEQUILAN,                   11604
B1001400350000007920876ELVIE CORTEZ                                            21600
A1001400350000003867272BERNALES, CHRISTOPHER ERA OR                            10502
A1001400350000003867272BERNALES, JESSIC                                        20500
A1001400350000008698866BUNGAY, RODELIA CHU                                      0501
A1001400350233478374020ELMA O. GAWAT                                            0501
A1001400350000008698899EBUNA, RALF JOSEPH MADRONERO                             0502
A0101401670271383413001MIDY C. NACAGUE OR                                      10501
A0101401670271383413001WINDY C. NACAGUE                                        20500
A0101401670271383413003*****                                                    0501
A1101400120000001547520TAN, MELVIN NATHANIEL ANDRADE                            0503
A1101400120000003022566VICENTE, ELENITA ESCUADRA DBU                           10501
A1101400120000003022566ITINERARY THIRTY                                        20500
B1101400120000000653183HIYASHINSU INCORPORATED                                  1603
A1101400120000003022373BANTULA, EVELISA FALLE                                   0501
A1101400120313478374055OBILLO, EMMA P.                                          0502
A1101400120000006186423VEGA, JILIE UY                                           0502
A1101400120000000652351YAO, RONALD PHILIP GO                                    0502
A0101402510000010100742BANZUELA, MA. CECILIA ASENJO                             0501
B0101402510341038206002EVER PLUS SUPERSTORE INC                                 1603
B02014007603740286120018990 HOUSING DEVELOPMENT CORPORATION                     1601
B0201400760000000033201FOG HORN, INC.                                           1601
A0101408370000005220080NERY, EMILY ROSE CRUZ                                    0504
A0101408370000009296615SANIEL, MICHAEL VINCENT CLAUDIO                          0502
A0101408370382042666001TMC DEPARTMENT OF ORTHOPEDICS                            0501
A0101408370382413688001DR. CHRISTY S. YAO                                       0501
A0101408370382629554001*******                                                  0501
A0101409180000004959635FERRERAS, EDWIN L. DBU BICORE                           10501
A0101409180000004959635ONE NETWORK ENTE                                        20500
A0101409180000002252455DIZON, ROMULO ENRIQUE MANGA                              0501
A5501400120000009875803FERNANDEZ, JACQUILINE GETANO                             0502
A5501400120410631534001MIRAFUENTES, CARMAE ROSE ASONG                          10502
A5501400120410631534001OR MIRAFUENTES,                                         20500
A0101405940000000505662SANCHEZ, MAURO PIO CUNETA                                0503
A0101405940000005359333TIU, BARBARA APRIL CUE                                   0501
B0101405940512022289003MGNP, INC.                                               1606
A0101405940000003121893TAN, CHRISTOPHER JAMES LIM                               0501
A0101405940512423714001ELISA MAGTIBAY OR VINCENT                               10503
A0101405940512423714001MAGTIBAY                                                20500
B0101405940512490154001D' NORTHGATE COFFEE COMPANY INC.                         1601
B0101405940512510159001DELUXE COFFEE & DELI INC.                                1601
B0101409920650048079001TABUADA, RAFAEL LOUIS M. DBU ESSEMPACK                  11602
B0101409920650048079001PLASTIC TRADING                                         21600
A0101413570000009627158MA. LOURDES ARMADA                                       0501
A0101412340000003438544CHERMAINE PORTIA L. ALCALDE                              0502
A0101412340000009501133JOSEPH RAMON L. CAMPOS                                   0503
A0601400230000005185877SUBA, JOSE PANLILIO                                      0501
A0601400230891471229001LOLITA C. CRUZ                                           0501
