F0101410850000000005621TURNSAT INTERNATIONAL LOGISTICS                         12610CKR
F0101410850000000005621CORP.                                                   22600CKR
F0201400180181064247001TAKING YOU FORWARD, INC.                                 2603CK1
F0101405780212039885001CENTRAL DIESEL CLINIC                                    2605CKR
F1901400290261039255004DRA CARINA M BAQUIZAL                                    2502CKO
F0101402480000008518047TOPMARK STEEL CORP                                       2601CK1
F1401400110492475410001ABCEDE, JOSEPH MICHAEL PINEDA                            2502CKO
