A0101410300663790131001VALDEZ, JENNIFER ANN Z OR VALDE                         10502
A0101410300663790131001Z, PABLO BASILIO                                        20500
A0101400150000003601072BELISTA, VANESSA GLORY DELA CRU                          0501
B0101410300000000026428INTERIOR ASIA CONSTRUCTION SUPPLIES &                   11602
B0101410300000000026428SERVICES CORPORA                                        21600
A0101408530000007719733PAILDEN, MERVEN MONTEALTO                                0501
A0301400950000002251952**********                                               0506
B0101412890470047248001MONTALBAN MILLEX AGGREGATES CORPORATION                  1602
A0101406590662547145001SANCHEZ, ALFRED RIMANDO                                  0502
A0101410300000000026508TAGLE, E DBU E.S. TAGLE TRADING                          0503
A0101400860000005312845**********                                               0503
A0101400860011746708001**********                                               0506
A0101401250000000907211CORRALES, RITA M.                                        0502
B0101400150061042904001CONSOLIDATED BUILDING MAINTENANCE INC                    1601
A0101400150061226639003MA. CRISTINA A. TINGSON      JT                          0503
A0101400150061304927001SIY, PATRICIA MAY TAN                                    0504
A0101400150061329718004ZABALETA JR., JOSE MARIA P OR                           10501
A0101400150061329718004ZABALETA, JOSE MARIA T                                  20500
A0101400150061349858002GARCIA, JUAN RAMON CORTES                                0505
A0101400150061536013001ASUNCION, NENITA DESLATE                                 0501
A0101400600071351088001********                                                 0501
A0101405810072234892001**********                                               0501
B0101405810072412798001**********                                               1603
A0601400520000002270913MICLAT, IMELDA ANCHETA OR                               10505
A0601400520000002270913MICLAT, EDWIN GATUS                                     20500
B0601400520000000398614ENNEAD CORPORATION                                       1601
A0101410850000003119111RAMA, MARIE JOAN ESTOLOGA                                0501
A0101400730111350929001REVERENTE, ROSE MELINDA V.                               0501
A0101400730111386485175IVANHOE O. MARASIGAN                                     0502
A0101413150000003868300**********                                               0501
B0101412630000007157715BERNAL AND VILLAREAL AND REJAS AND                      11603
B0101412630000007157715CALINGACION                                             21600
A0101413310000002317900CHAVEZ, RAFAEL SAZON                                     0502
A0101401830141530136001RACELLE MARY B. ABANES OR                               10501
A0101401830141530136001LUIS FRANCISCO V. LEBRON                                20500
B7201400170000003773131**********                                               1602
A7201400170000003774436MAATA, JANIETH SARMIENTO OR                             10502
A7201400170000003774436MAATA, JEFFRY PA                                        20500
A0101407270000008824200MARIA CRISTINA MENDOZA                                   0502
A0101407270000003254026CLEMENTE, SPIRO LU                                       0502
A0101407270162331908032LIZA LEAH JUINIO                                         0502
A0101401090171196221001MARCELINO OR EDNA OSTREA                                 0505
B0301400530000000066000BORDIOS JR., HERMES S.                                   1601
A0301400530000006239443MATIONG, MESANI MEEKLOS ALAVA                            0501
B0301400530000006477321*****                                                    1602
A0101410720000006128850AGUILAR, ARAMIS BOLIVAR                                  0502
B0101412500000000041692MOLDEX PRODUCTS, INC                                     1602
B0101412500214062444004EUROKONZEPT MARKETING PHILIPPINES INC.                   1601
B0101413600000002822700POWERGEN INTEGRATED SOLUTIONS                           11605
B0101413600000002822700COMPANY LTD.                                            21600
A3101400160221064810001GUEVARRA ARKITEKTURA DESIGN AND                         10501
A3101400160221064810001CONSTRUCTION                                            20500
B3101400450223010142002FORTUNE CORPORATION                                      1605
A3101400450223357912001NAGA, JOSE V.                                            0503
A3101400870000000074731KARUNUNGAN, RUBY DBU SKY FOOD                           10501
A3101400870000000074731ALLEY                                                   20500
A1001400190231040264001WESTBOUND PETRON                                        10502
A1001400190231040264001SERVICE STATION                                         20500
B1301400760000000007161TARLAC MAC ENTERPRISES, INC. DBU SAVER'S                11603
B1301400760000000007161DIGITAL HUB                                             21600
B1301400760000000050860ENCORE LEASING & FINANCE CORP.                           1601
B1301400760000000050871ENCORE LEASING & FINANCE CORP.                           1601
A1901400290000001195142ESTEBAN ALDRIN HERNANDEZ BISA                           10502
A1901400290000001195142OR DONNA MARIE G ORILLA                                 20500
A1901400290000009117351STANLEY GONEZ SEVILLANO                                  0501
A1901400290000008937602MYLA VILELA GIRAO                                        0501
A1901400290000009000280ZENAIDA ABRENICA PANTAS                                  0501
A1901400290000000030713DR. VICENTE LORENZO                                     10502
A1901400290000000030713DIMAYUGA JR.                                            20500
A1901400290261244409001ESPERANZA PAZ M LEYEZA OR                               10502
A1901400290261244409001JUAN GUALBERTO M LEYEZA                                 20500
A1901400290261298552105AIDA NABOS REYES                                         0501
A1901400290261356002001MARICEL REJANO LUCERO                                    0501
A1901400290261432900001JULIUS PIO AFRICA RANA OR                               10502
A1901400290261432900001CHARMAINE DE GUZMAN RANA                                20500
A1901400290261488341030DRA ZENAIDA S PASION                                     0504
A1901400290261493025096DR CELESTE TOLENTINO                                     0501
A1901400290000005565864VIOLETA CUENCA VILELA                                    0502
A1901400290261780745001FLOR MENDOZA CRUZ                                        0501
B0101401670271555562003GREEN ASIA REAL ESTATE AND DEVELOPMENT                  11601
B0101401670271555562003INC.                                                    21600
B0101406460272047410001CHREY BUILDERS CORP.                                     1601
A0101406620273038576001VENTURE 11 FOODS EXCHANGE                                0501
A0101411820000002328543CHRISTINE U. ECHON                                       0501
A0101411820000001356350ADRIAN VIKTOR SANCHEZ PEREZ                              0501
B0101411820000003085094MEDINFINITY INC.                                         1602
A0101400570000004624139EQUIPAJE, HIGINO GARCELAZO                               0501
A0101400570281344851009CUANANG, JOVEN RACPAN                                    0501
A0101400570281552287002MALIMAS, RAQUEL CAROLINE D.                              0501
B0801400160000001289932RD PAWNSHOP, INC. - ILOILO NORTH                         1605
A6601400120000008490331APOSTOL, MELANIE CUYCO DBU SKIN                         10502
A6601400120000008490331CARE DERMA & SPA CENTER                                 20500
A0101402350321564527001YANQUILING, NATIVIDAD G.                                 0501
A0101402510000009178247ONG, ARNOLD VINCENT SABULARSE                            0501
B0201400920000000047863KOWEN LOGISTICS COMPANY                                  1602
A0201401020000000056380TREVENO, MA. NATIVIDAD DBU CAFE                          0501
A0101402930000003710494TECSON II, DELANO VINCENT DOROT                          0501
A0101408370382392325001DR. JOSEPHINE B. RAMOS                                   0504
A0101408370382485622001DELBERT S. ANG IT OR                                    10501
A0101408370382485622001CHERRY C. ANG IT                                        20500
A0101402770000007413950FALLARIA JR., BENJAMIN OBSUM                            10501
A0101402770000007413950DBU BF & MF ENTERPRISE                                  20500
B0101408400000003120554GILIGAN'S ISLAND BAGUIO, INC.                            1602
A0101408950000005325571TAN, JOHN ERIC NGO OR                                   10501
A0101408950000005325571QUIROZ,BERNICE V                                        20500
A0301400820000005991451CELIS, WILMA F.                                          0502
A0301400820000000316670TIONG, ARISTON D.                                        0501
A0301400820000004746101FAMACION, RAMSEY DBU JARED SUIT                         10502
A0301400820000004746101ES OR FAMACION, BEULAH                                  20500
A2401400180411274480001YAP, JOHNNY UY                                           0501
A2401400180411478374020MORI, LYDIA                                              0502
A0101412890000001765404ACUNA, SALVADOR A OR ACUNA,                             10506
A0101412890000001765404ALONA C                                                 20500
A0101403320000009160349PUTIAN, MADILYN SARALDE                                  0502
B0101406330472046636001ENERTECH SYSTEMS INDUSTRIES, INC.                        1610
B0101406330472314132001*****                                                    1601
A0101406330472315246002FRANCISCO JASON ANGELES OR                              10502
A0101406330472315246002EVA ANGELES                                             20500
B0501400170481029507002ARCINUE DEVELOPMENT CORPORATION                          1601
A0501400170481046585002ANG, JUSSLYNN DBU                                       10503
A0501400170481046585002AVS DISTRIBUTION                                        20500
A1901400160000008297781EBORA, EMMA EBORA                                        0506
B1401400110000000167457SUPER MAK FOOD CORPORATION                               1610
A1601400170000000421310LEONARDO B. GONZALES                                     0501
B0101407430503006854003CARGO DATA EXCHANGE CENTER, INC.                         1602
A0101407430503384171001ALIZAMAN M. DIMAPORO                                     0505
A0101405940512368799002LASALA, LANI SALVADOR                                    0502
A0101405940512746092001BELLO, JANET RANILE                                      0501
B0101408530516033358001FMCB, INC.                                               1603
B0101408530000003866046TAMBAI YAKITORI-MO SNACK-BAR CORPOR                      1601
A0101408530516433800001***************                                          0503
B0101403450000006055756FIRMUS MARKETING CORPORATION                             1601
A0101403450521238220001**********                                               0502
A0101403450521238596001**********                                               0503
B0101403610531044231001BLOOMING STAR                                            1603
B0101403610000003053170LORENZANA FOOD CORPORATION                               1605
B0101403610000006637114RD PAWNSHOP, INC.                                        1603
A0101403610531368306001DEFANTE, IMELDA LAYOLA                                   0501
A0101403610531397445001*********                                                0502
A0101403610531762081001MIRANDA, SUSAN ESPINILI                                  0501
A0101404000551352264001CARMEN R MAROMA OR MA. ELENA                            10501
A0101404000551352264001ALBERTO                                                 20500
B2201400250561035770001TARLAC MAC ENTERPRISES, INC.                             1603
A2201400250000003558138CALMA, ARLENE BULAON DBU CALMA                          10501
A2201400250000003558138LUMBER                                                  20500
A0101404130601451021008JESUS D. CHUAUNSU OR                                    10502
A0101404130601451021008JOVANNI V. CHUAUNSU                                     20500
A0101407720602396293001KANAPI, MANUEL LOPEZ OR                                 10510
A0101407720602396293001KANAPI, GLYNISH                                         20500
A0101407720602581738001DUCUSIN, MA. ANTONINA SUGUITAN                           0502
A0101409890000000437325UY, CECILLE VIARDO                                       0502
A0101409920000000022088ASUNCION, MARILYN JUANEZA                                0501
A0101409920000000998569MEMBERS OF NATASHA (SHOECAT INC                         10501
A0101409920000000998569PEDROSA, JULIE                                          20500
A0101409920000000998581LOPEZ, SUSANA OR                                        10501
A0101409920000000998581LOR, MICHAEL PAT                                        20500
B0101413570000007212962KASAGANA-KA DEVELOPMENT CENTER,  IN                      1606
A0101413990000000206033MARITES R. CONANAN                                       0502
B1301400210000008173740GOLDEAST CONSOLIDATED CORP.                              1602
A1301400340000005264853TAPAR, TYRONE KRISTOPHER JIMENE                          0501
A0101408240711373157002UICHANCO, LETICIA NARCISO OR                            10503
A0101408240711373157002ABOLA, CYNTHIA                                          20500
A4101400550000000506814DALAGAN, CATALINO B. OR                                 10504
A4101400550000000506814DALAGAN, TERESIT                                        20500
A0101412340000003761820KAREEN M. GANNAPAO                                       0501
A0101412340000004360296LIWAYWAY M. LANGIT                                       0501
A0101412340000004360718MAICA D. AUSTRIA                                         0501
A0101404840000000475996MANNAG, ANTONIO QUILANG                                  0502
B0101404840000006365171KAWASAKI EMPLOYEES MULTI-PURPOSE CO                      1605
A0101404840851217637065LUCY D. AMPO                                             0501
A0101404840851415107001SANTOS, ELSA ADRALES                                     0502
A0101406750000006303219SANTOS, FLORENCIO MISLANG                                0502
A0101406750852478374055ALBINA, ANALIZA                                          0502
A0101405070861197518001RICARDO G. CHAN OR                                      10505
A0101405070861197518001OLIMPIA C. CHAN                                         20500
B0601400230000002649927MJ EXPRESS CREDIT INC.                                   1605
