B0101401670271821100608**********                                               2005
B0101407270162821100608**********                                               2008
A0101405940000005068202POLICARPIO, NINONARD SALES                               0501
A0701400260000003259421SISON III, ANTHONY FRANCIS ABRE                          0501
B0301400530000005001603*******                                                  1602
B0301400530193088888088TAGUM FIESTA APPLIANCE, INC.                             1606
A0201400920375478374016CERBO, SHAMIR LOU CAGAIS                                 0501
B0101415350390821100608**********                                               2005
A0101400860000001005503**********                                               0503
A0101400860011478374007**********                                               0501
A0101400860011520168001********                                                 0505
A0101400860011693273001*************                                            0503
A0101401250021356941001HAMODIONG, MARY DIANE MAGLUNSOD                          0503
A0101401250021476357001CATHERINE GO UY                                          0502
A0101400150000007267305ROSALES, LOURDES MONICA VELASCO                          0501
B0101400150061043190001NORTHERN STAR ENERGY & FUEL DISTRIBUTION                11605
B0101400150061043190001CORPORATION                                             21600
B0101400150061733490001EXCEL CONCRETE LOGISTICS INC.                            1605
A0601400100000002698395PILI, JONATHAN CAPUNO DBU VIIVI                          0502
A0601400100081279553001PASAMONTE, VICTOR LAMPA                                  0502
A0601400100081355043001LAYUG, FLORANTE OR ANAMARIE                              0501
A0601400100081694142001DELA CRUZ, RESTY NUQUI                                   0501
A0101410560000000268331ROSE MARIE S. BRAZIL                                     0501
A0101400730000002376423MADLOS, YOHHEI PELIGRO                                   0502
A0101401960000006004422***************                                          0501
A0101401830141640786001BREVA, AZUCENA BERSABE                                   0501
A5001400170000001003381CALIMUTAN, OHARA DELA CERNA OR                          10502
A5001400170000001003381CALIMUTAN, REGINALDO G.                                 20500
B5001400170000000214013CHAN, PATRI B. OR                                       11602
B5001400170000000214013CHAN, JIMMY S.                                          21600
A0101412920000006688380OCTAVIANO, MARITES GOMEZ                                 0502
A0101407270000006675518LIM, GINALIE PREJOLES                                    0502
A0101407270000005417421JOSEPH CUIZON                                            0501
A0101407270162040940001AQUA LINK                                                0501
A0301400530000001409785VILLANUEVA, MELISSA MAY MATA                             0502
A0301400530193583614088VILLANUEVA, MELISSA MAY OR                              10502
A0301400530193583614088VILLANUEVA, PHIL                                        20500
A0301400530193729179088VILLANUEVA, PHILIP OR                                   10502
A0301400530193729179088VILLANUEVA, MELI                                        20500
A0301400660000002913248BAYLIN, JOJACK ABACAHIN                                  0503
A0301400660194731082088PEJI, JUNE ANN SOLER OR PEJI,                           10505
A0301400660194731082088JONATHAN CORTES                                         20500
A3101400160221478374002MA. LOURDES T. ELIZON                                    0501
A3101400160221478374002MA. LOURDES T. ELIZON                                    0504
A3101400160221533266001ANGELITO S. LAZARO JR.                                   0502
A3101400450000001149291BALDOVINO, ISABEL VALDOPENA                              0501
A3101400450223612365001ARAGO, ANDREW HIZON RODA                                 0503
B3101400740000000013878S & P MEDICAL AND DENTAL TRADING, INC.                   1605
A1001400480000003357555RUAMAR, JOSE RONIE MARFA                                 0503
B1301400470000003270113OBRIGADO LENDING INVESTOR, INC.                          1601
A0101401670271186215002BENJAMIN C. RAMOS                                        0510
A0101401670000003181666BAESA, CORAZON PINEDA                                    0502
A0101406620000000193800SILVA, CLARITA BUSALPA OR                               10501
A0101406620000000193800SILVA, ANGELO                                           20500
A0101406620273720692001******                                                   0502
A0101408660000006296688JIMENEZ, RHODORA MONTESINO                               0502
A0101411240000007271623GO ALCANTARA, ALLAN DY OR                               10501
A0101411240000007271623GO ALCANTARA,MARILYN CHUA                               20500
A0101411240283389614001REYES, MYLA BURCE                                        0502
A0101411240283403470004VILLAREAL JR, JOSE MARALLAG OR                          10502
A0101411240283403470004VILLAREAL, INOCENCIA A                                  20500
A0101411240283676374001DIONELA, ROWENA MOSTER                                   0501
B0801400160311046688002HI-GRADE LIQUID OXYGEN CORP.                             1604
B0801400160000001289829PANAY MEDICAL VENTURES, INC.  PMVI                       1610
B1101400120000000065132STARLITE GLASS AND ALUMINUM SUPPLY                       1605
A1101400120313478374074UNGAB, ROSALINDA B.                                      0501
A1101400120000000652362YANG, ROSITA GO OR UY,TIA SHENG                         10502
A1101400120000000652362OR UY, JOSEPHINE                                        20500
A6601400120314071890001MARTIRES, MYLA TURLA                                     0502
B2001400290315040975001COURONNE ALLIANCE CORPORATION                            1603
B2001400290315044204001ACEBANK CREDIT, INC.                                     1601
A0101402350321382603001GONZALEZ, MARIE JACINTO                                  0501
B0101402510341027854001*****                                                    1601
B0101402510341027854001*****                                                    1601
A0101402510341197540001EDILBERTO M. TAWAGON                                     0501
A0101402510341543493001VICTOR M. TOPACIO                                        0501
A0101402060000002259889ROXAS, MA. VERNADETTE HALILI                             0502
A0101402060351495895002ARCEO, FLORDELIZA CHAVEZ                                 0501
A0201400920000001331862***********                                              0501
A0201400920375524523001MIEL, PRINCESITA OR MIEL, ALEX                           0502
A0201400890000000028026*********                                                0501
A0201400890000000027972******************                                       0502
B0101408790383039290001AUTO SOURCES INC.                                        1605
B0101408790000000038964NORTHPINE LAND, INC.                                     1601
B0101408400394031157001KILO-WAYS FOOD CONCEPT INC.                              1605
B0101408400000004733751FJN6 FOOD CORPORATION                                    1602
A0101408400394508074001WEE, LEE HIONG TAN                                       0502
B0101412210399061616001WCP CORPORATION                                          1601
A2401400180411478374035MERLINDA D. TAMUDTAMUD                                   0501
A2401400180411555962001SILVA, VIOLETA P. OR                                    10502
A2401400180411555962001SILVA, MARCELINO                                        20500
A0101403030441688544001**********                                               0503
A1901400320000007216873MAGSAYSAY, CARLITO M                                    10501
A1901400320000007216873OR PANOPIO, MARILOU P                                   20500
B1901400160491347054001EMMA MACATANGAY AND MARIO MACATANGAY                     1602
A1401400110000005526912CASTILLO, ALFREDO MALTE                                  0501
A1401400110492023002001THESAURUS DRUGSTORE & GENERAL                           10505
A1401400110492023002001MERCHANDISE                                             20500
A1401400110492622560001MORATO, CHERRYL DECHAVEZ                                 0502
A0701400260000006599582WONG, ALEX D. DBU RICHWOOD                              10501
A0701400260000006599582CONSTRUCTION SUPPLY                                     20500
A0101407430000003193257RUSTUM C. LAZARTE                                        0503
A0101403580511390958001CECILE SALANDA OR                                       10502
A0101403580511390958001RICARDO V. SALANDA JR.                                  20500
A0101403580511558749001HENRY D. ANTONIO                                         0503
B0101405940000003571726CPG FLAT GLASS, INC.                                     1605
A0101408110000000202746GELITO, MARTIN DALE SOLANO OR                           10501
A0101408110000000202746MAGLUNOB, CELESTE MARICON                               20500
A0101408110000002908052RAYNER ART DEMOCRITO M. RANIN                            0501
B0101403450521011748001EUROTILES INDUSTRIAL CORP.                               1603
A2201400250561254364001EDWIN P. GONZALES                                        0501
A0101407720602381795001FORES, MIGUEL EDGARDO MANUEL                            10502
A0101407720602381795001OR FORES, LUCIA                                         20500
A0101407720602496503027JEMELL R. OCAMPO                                         0502
A0101412180000000501500ALMAZAR, ALLAN GEPIGA                                    0501
A0101409920650478374028RENDON, RENELYN GABATAN                                  0501
A0101413440000002339573CABRERA, LEOTHENY ALBANO                                 0502
A0101413570656057648280JOY NOELLE O. RANADA                                     0501
A0101414120000000398921MC DAGGLE'S CONSTRUCTION &                              10502
A0101414120000000398921TRADING                                                 20500
A0101414120000000649081MC EDRICK TRUCKING SERVICES                              0502
A0101406590662044702001PTS TUTORIAL AND REVIEW SYSTEMS                          0502
A1301400210682371374001PRISCILA G GARCIA                                        0501
A1301400210000000540914RAMOS, ALLAN BAUTISTA                                    0501
A1301400210682708653001CESAR N PAGSANGHAN                                       0501
A1301400500000003070139SUGAR DADDY MARKETING                                    0502
A0101408240000000005461SANCHEZ, MARIANO ALTOBAR                                 0503
B0101408240711028488001INTAS DESTINATION MANAGEMENT INC.                        1605
A0101408240711180164001TUPAZ, CORAZON RONQUILLO                                 0501
A0101408240711395808001HERMENEGILDO P. MANZANO JR. OR                          10502
A0101408240711395808001NORMA Y. MANZANO                                        20500
A0101408240000002331237AURELIO, LILIA PADERNA                                   0503
B2801400100712710286001JJJ ONE-STOP INC.                                        1606
A4101400420814478374156OLIVIA V. ALGARA                                         0501
A4101400420814520766061ESTILLERO, SUSANA O.                                     0501
A4101400420814520766110DELA CRUZ, ARMINDA E.                                    0501
A4101400420814520766138SAN PEDRO, ANA LIZA                                      0501
A4101400550000000900383FERNANDEZ, GILBERT LICUANAN                              0502
A4101400550000001622753NALE, JOSELYN QUILATAN                                   0503
B0101404840851214607001KAWASAKI EMPLOYEES MULTI-PURPOSE                        11605
B0101404840851214607001COOPERATIVE                                             21600
A0101406750000004642211BARREDO, ROSENE RAMOS                                    0501
A0101406750852478374002TERESITA LIWANAG                                         0501
A0101405070861280267001CHUA, SONNY HUI                                          0501
A0101405070861709078001ASILUM, RICSON RENDELL VERGARA                           0502
A0601400230000002650171SANTOS, K DBU ADRICH ENTERPRISE                          0501
B1001400510410502000011**********                                               2010
