F1001400350000000017074MSU-IIT NMPC BULUA-CDO BR.                               2602CKR
F0101406750852048643001STRATEGIC PLANNING APPLIED                              12601CKR
F0101406750852048643001MANAGEMENT KONSU                                        22600CKR
F0201401150378042514008SOUTHERNPHIL DEVELOPMENT AND                            12602CKR
F0201401150378042514008MARKETING CORP.                                         22600CKR
