B0101405650000000772685WISEMEDIA GROUP, INC.                                    1601
A1001400350000000922058ARENO, ANN JANE BUCO                                     0502
A0101412470000002136107PADILLA, MERCEDES ANGELES OR                            10502
A0101412470000002136107PADILLA, MARCIANO ANGELES                               20500
A0101405650322298552012ROSITA A. CARANDANG                                      0502
B0101405650322704732001COSTAMESA CORPORATION                                    1601
A0101405650000000525717TAMBUNTING, JOY MYRA SALVADOR                            0510
A0101412890000002747788OCHOADA, R DBU VILLAGE AUTO                             10502
A0101412890000002747788CLINIQUE                                                20500
B0101414410612821100608**********                                               2001
A4101400260812283791001AIDA L. MOJICA                                           0501
A0101406750852673534001TOLENTINO, DEBORAH SARAH D OR                           10502
A0101406750852673534001DE LEON, RUBEN L                                        20500
A0101401250000000441052ONGSUECO, SYLVIA K.                                      0501
A0101400150000003197539JERICHO S. MANALANG                                      0501
A0101400150000000525488REYES, SHEREL LOU BERMUDEZ                               0501
A0101400150061226656001EVYLENE C. SISON                                         0501
A0601400360000004915420SANTIAGO, J. DONATO TAPIC                                0502
A0101400730111370569001MANABAT, DANILO MORALES OR                              10501
A0101400730111370569001ARLENE MANABAT                                          20500
A0101400730111386485036MARCIALYN DANSALAN                                       0503
A0101413150000002062180BARUMAN, VEBELYN MONTECIREN                              0501
A0101412630000004062053MANUEL C. BALDEO JR. AS THE SEC                         10502
A0101412630000004062053APPOINTED LIQUIDATOR  OF                                20500
A0101413310000005433461YOON, YERANG                                             0503
A7201400170000002791433PULMANO, DIEROSEL LARIDE                                10505
A7201400170000002791433OR PULMANO, JULIUS MARZAN                               20500
B7201400170000003773626**********                                               1610
A0101400440000003705946ESTELITA MELEGRITO                                       0502
A0101400440000004901564DOVIE T. JERMIA                                          0502
A0101400440161549463001SONIA D. CARAG                                           0501
A0101400440161553436001TRISTAN JAY B. CORREA                                    0502
A0101400440000005393568DIMAANO, GUNDAWAY GRAVIDEZ                               0501
A0101401090171427857001SALVACION, CLAUDITH CARILLO                              0501
A0301400660000001113795VILLADAREZ, RICHARD RANIS                                0501
A0301400790000002301273DANGCALAN, MARITES DALOGDOG                              0501
A0101413600000003851132SHYELA MARIE BADLON                                      0502
A3101400160221730342001NILO V COSTIBOLO                                         0502
A3101400450223466114002NATIVIDAD, GINA DUNGO                                    0503
A3001400130230478374004BALABA, JANETH BORJA                                     0501
A3001400130230688885001FARON, JHONNA ALMONICAR                                  0502
A1001400190231520766117TAROY, MARIONNE ANGELOU SALEM                            0502
A1001400480000003357679SUMANDO, EXEQUIEL MANUEL                                 0503
B1001400480000004097154SABAL HOSPITAL, INC.                                     1610
B1001400480000006296240PISTOLEROS GRILL & BAR CORP.                             1601
B1301400760000000050740TILAH CORPORATION                                        1606
A1301400760253487995001EDNA C. SANTIAGO AND                                    10502
A1301400760253487995001JOSE A. MIGUEL JR.                                      20500
A1901400290000000030753CHRISTIAN GABRIEL ON LOJO                                0501
B1901400290000001363188RD PAWNSHOP, INCORPORATED                                1603
B1901400290261047372001EXCEL LOANS AND CREDIT CORPORATION                       1606
B1901400290261047995001SPOUSE OF THE BLESSED VIRGIN                            11608
B1901400290261047995001HOSPITAL INC.                                           21600
A1901400290261050401001DIOSDADO M CAPUCHINO                                    10502
A1901400290261050401001DBU DMC DIAGNOSTIC CENTER                               20500
A1901400290261298552105AIDA NABOS REYES                                         0501
A1901400290261298552118CONCEPCION GONZALES ESTIGOY                              0502
A1901400290261478374009LEILA LUMANGLAS OLAVE                                    0502
A1901400290000005565864VIOLETA CUENCA VILELA                                    0502
A0101401670271423175001ANDREW L. AGUIRRE                                        0502
A0101406620273519559001EDUARTE, LOLITA CADAPAN                                  0501
A0101406620273719676002************                                             0504
A0101410980000002987075GEORGE GO OR ELISA NGO                                   0504
B0101412470000000949566POSTMANILA, INC.                                         1610
A0101400570281580385001GUINGON, JESSICA FERNANDEZ                               0501
A2601400270000002257132RODERICK G. BARAYUGA                                     0501
A2601400270302752181001MARICEL B. ACOBA                                         0501
A3401400280000003309139TERESA A. SANTOS OR MARIA                               10501
A3401400280000003309139CONSUELO A. ALMONTE                                     20500
A0101402350321478374023ISUNZA, MARIA ELENA Y.                                   0501
A0101402350321536804001MANZANERO, LIGAYA I.                                     0501
B0101405650000000772787MACHINE-AID TECH PHILIPPINES, INC.                       1601
A0101405650000002325548GREGORIO, DALMACIO HILARIO                               0501
A0201400890000000973462***************                                          0501
A0201400890376522560001SU, SEYMOUR UY                                           0501
A0201401020000003882133ARMADA, JOHN MICHAEL CANETE                              0501
B0101408790383040734001RADIOWEALTH FINANCE COMPANY, INC.                        1602
A0101402770000000080511ESTRADA, RONALD TONSAY                                   0501
B0101405490392006536003GEMINI INTEGRATED SERVICES, INC.                         1605
A0101405490000005566236CONTI, MA. RIZA AMADA                                    0502
A0101405490392563453002ALLAN L. DE GUZMAN OR                                   10501
A0101405490392563453002MARIVEL R. DE GUZMAN                                    20500
A0101408400000001952883GABRIEL TAILORING AND GENERAL                           10501
A0101408400000001952883MERCHANDISE                                             20500
A2401400180411345642001DR. FRANCISCO OR DRA. LORNA                             10510
A2401400180411345642001LORENZO                                                 20500
A0101403030441378112003TY, CHRISTINE NG                                         0501
A0101412890000001056206GERONIMO, ANNABELLE ELEANOR LIM                         10502
A0101412890000001056206OR GERONIMO, MARLON                                     20500
A0101412890000002747868************                                             0501
A3801400170000005288053VILLARUEL, VINCENT RENNOEL OR                           10505
A3801400170000005288053VILLARUEL, ROWENA DIMAANO                               20500
B1901400160491014714002TALUMPOK SILANGAN MULTI-PURPOSE COOP.                    1602
A1401400110000000132896MORALES, RAIN DBU DIRL AND JANE                          0501
A1601400170000007764530REBANCOS, ARCADIO SANCHEZ                                0501
A0101407430000004687549SARAH C. MENDOZA                                         0501
B0101407430503010445001PHILIPPINE AIRPORT GROUND SUPPORT                       11620
B0101407430503010445001SOLUTIONS INC.                                          21600
B0101406880513037027001OBADIAH INCORPORATED                                     1602
B0101403610531014741001DOMFERRER DESIGNS, INC.                                  1604
A0101403610000001450806DEE, JOHN MINGO LISIA                                    0501
B0101403610000006637114RD PAWNSHOP, INC.                                        1603
A0101404000000003950732CATANE, RAYMOND LEANO                                    0501
B0101404000551038491001BLUE ANGEL KARAOKE BAR, INC                              1602
B0101404000551038492001UP STAGE RESTAURANT & BAR CAFE INC.                      1601
A0101410690000002290791BATOON, LYSAN BONGALON                                   0501
A0101404260611478374097MILA B. RIELO                                            0501
B0101407690652035133002********                                                 1620
B0101407690652045019001AXIS ROOF SERVICES                                       1602
A0101410300000004361631TANBONLIONG, PATRICK JUSTIN OR                          10501
A0101410300000004361631TANBONLIONG, TERESITA                                   20500
A1301400210682478374060ROBERTA CARLOS                                           0501
A1301400500684611748001CANOZA, MARY JANE C. OR                                 10502
A1301400500684611748001CANOZA, MARK WILLIAM                                    20500
A1301400500000000213163NORVY G. MARCELINO                                       0505
A0101408240711377201001CARMELITA OR DANILO POSADAS                              0502
A0101408240711417400001PAGUNSAN, ANSELMO JR. OR                                10501
A0101408240711417400001JULIANA                                                 20500
A0101408240711478374015EMILY MONTILLANO                                         0502
A0101408240711553747001RIVERA, JOSEPH REA                                       0501
A2801400100000006977362SERATO JR., FELICISIMO LAUDE                             0501
A2801400100000002253641KIM, GWANGHYUN                                           0501
A2801400100712278476001UYGONGCO JR., JOSE ROBERTO JT                            0502
A2801400230000005752401SERVANT ARTS & sign                                      0501
B4101400260812039799001LAGAMAYO DENTAL CORPORATION                              1602
A4101400260812478374005JENITA Z. PALLE                                          0501
A4101400420814453380001TOLENTINO, JONETT MISA                                   0502
A4101400420814478374122AGUILO, RODENA T.                                        0501
A0101412340000003340616JUSYL U. ALIPASA                                         0501
A0101412340000004988776ANGELO MIGUEL C. ALCALA                                  0501
A0101412340000003422784SONNY KAJ C. ALIBANGBANG                                 0501
A0101404840851046725009MONINA G SAN JUAN                                        0501
A0101404840851046725013MARY JANE A. DE GUIA                                     0501
A0101404840000003069981ATIENZA, SHIRLEY                                         0501
A0101404840000003409954AMIL, CATALINA RAMOS                                     0501
A0101404840000005820560BERBANO, MARY JEAN ARGENCITA A.                          0502
B0101404840000000122636MJM EVENTS MANAGEMENT SERVICES                           1602
A0101404840851424338001PAMITTAN, MYRNA M.                                       0503
A0101404840851452055002AREVALO, MARITES FAJARDO                                 0502
A0101404840851520766162JANET H. ESTORES                                         0501
A0101406750000004641883SALVADOR, LEONIDA GENOVE                                 0502
B0101406750000000091012AUGUSTINIAN ABBEY SCHOOL, INC.                           1604
B0101406750852474662001SECURITY MARKETING & PEST MANAGEMENT                    11603
B0101406750852474662001INC.                                                    21600
A0101405070000001124190RIZALDY MANIQUIZ OR                                     10501
A0101405070000001124190GENEFIR MANIQUIZ                                        20500
A0601400230000001062402SALAZAR, MARY DBU PRIMUS TAILOR                          0503
A0601400230000003638960DIZON, JOSE JUN G. DBU INTERTEC                          0502
