B3101400450223821100608**********                                               2003
B3101400450223821200608**********                                               2001
A0801400160000000476379************                                             0501
A0101402510341202209003********                                                 0501
B0101409920650821100608**********                                               2002
B0101409920650821200608**********                                               2001
A0101401670271278468001MICHELLE G. RIVERA OR                                   10502
A0101401670271278468001AUGUSTO D. RIVER                                        20500
A0101411110276396077088********                                                 0504
B2001400290000000020560VIMLE UNIVERSAL SOLUTIONS INC.                           1601
A2001400290000000924447CLAVEL, ALAN ZAMORA                                      0503
A2001400290315048040001SILVER RIVERS                                           10505
A2001400290315048040001CONSTRUCTION SUP                                        20500
A1201400150000001863301TAN, DARWIN ANG                                          0502
B0101412050519821100608**********                                               2001
B0101412050519821200608**********                                               2001
B0101417000920252000022**********                                               2001
A0101400860011453144001*********                                                0505
A0101401250021453364001TORREJOS, ALFREDO OR                                    10502
A0101401250021453364001RYAN ALVIN OR CARMEN                                    20500
B0101411370000000017945ST.THERESE OF THE CHILD JESUS INSTITUTE                 11601
B0101411370000000017945OF ARTS&SCIENCES                                        21600
B0101400150061014878001**********                                               1610
A0101400150000000253392CALIXTO, SHAYNE DBU PURPLE HAZE                         10502
A0101400150000000253392BLENDS, SHAKES A                                        20500
A0101400150061227649001BELINDA GUEVARRA                                         0502
A0101400150061341245014LIM, ROBERTO CECILIO                                     0501
A0101413280000000041761JENNIFER MICHELLE N. LUMBO                               0501
A0101410850000003503493***********                                              0501
A0101410560000001944043GOODNESS & MERCY MOVERS                                 10506
A0101410560000001944043SERVICES                                                20500
A0101410560000000590556GUTIERREZ, DOMINICA DALISAY                              0501
A0101400730000001822635JURILLA, LESLIE CATINOY                                  0501
A0101406040112684740001***********                                              0501
A0101401830000001281910DE GUZMAN, CONCEPCION FRANCISCO                          0501
B7201400170000003774043CASTIGON, KENNETH TOROBA OR CASTIGON,                   11605
B7201400170000003774043LOWELA BULACLAC                                         21600
A0101400440161478374008MARY FE I. REDONDO                                       0502
A0101407270000003254162LI, HOU WAN HOWARD HUNG                                  0502
B0101407270000004558403RAMCAR BATTERIES INTERNATIONAL LIMI                      1605
A0101401090000006009343LEIA G. MACALAM                                          0501
A0101401090171196120003MERCY LEE-JATICO OR                                     10502
A0101401090171196120003MATTHEW STEPHEN L. JATICO                               20500
A0101401090171323996001JANE A. MACARAEG                                         0502
B0301400530193041997001TAGUM LONGFORD COLLEGE, INC                              1602
A0301400530193551857001MORENO, ISAIAS L.                                        0503
A0301400530193593884001SADINO, RUCYLL S. OR                                    10501
A0301400530193593884001SADINO, RONALD B                                        20500
A0301400950000002115435LASALA, MIGUELITO WALAWALA                               0501
A0301400950000000566661******                                                   0501
B0101401380201043880001ZHONGFA DEVELOPMENT, INC.                                1602
B0101410720653029859001GK INTERNATIONAL VILLAGE HOMEOWNERS                      1603
A0101410720653478374050MYRA B. GERMANO                                          0501
A0101410720000000882840PO, ANITA DEL ROSARIO                                    0502
A0101410720000002283930LADIA, APRIL IRIS RUPIDO                                 0502
B3101400160221029999001STAR HONDA, INC.                                         1601
B3101400160221037489002CITIBIKE CREDIT CORPORATION                              1601
B3101400160221059839001MOTORCENTRAL SALES CORPORATION                           1601
A3101400450223223458004ALVERO, LEAH AURORA TOLENTINO                            0501
A3101400870000000074844ROA, ROSEMARIE JUNDOS OR ROA,                           10501
A3101400870000000074844JAMES ROQUE GARCIA                                      20500
B1001400190231015575001*****                                                    1602
A1001400350233528978001MONNETTE GUANGCO OR                                     10502
A1001400350233528978001HECTOR GUANGCO                                          20500
B1301400470000000009630FIRST KINGSTON LEISURE AND SERVICES                     11610
B1301400470000000009630CORPORATION                                             21600
B1301400470000000009696MAKOBOBI DISTRIBUTORS INC.                               1605
B0101401670271031093001NUOVO ART & POWER GROUP, INC.                            1602
A0101406620273213498001JORGE, LEILA EBORA OR                                   10502
A0101406620273213498001JORGE, ROBERT                                           20500
A0101406620273280285001PELAGIO / ROSARIO / REBECCA /                           10501
A0101406620273280285001RAFAEL / ROWENA                                         20500
B0101410980275821100608**********                                               2002
B0101410980275821200608**********                                               2002
B0101411110000003202017********                                                 1602
A0101411820000001356401JINGLYN MARIE P. PEREZ                                   0501
A0101411820277096254001RIZADA, RYAN JOSEPH RAMOS                                0502
A0101400570281020605001FIRST BORN SNACK CORNER                                  0502
A0101400570000000470546DR. JEANETTE TAACA-BITO OR                              10503
A0101400570000000470546IVANA VICTORIA T. BITO                                  20500
A0101400570281553109001ENRIQUE D. COJUANGCO JR. OR                             10501
A0101400570281553109001MA. AMAYA A. PAZ                                        20500
B0501400200000006001052RABANG, GASPAR AND OYAMAN, GERTRUDES AND                11601
B0501400200000006001052ESQUERO, DANILO                                         21600
B0801400160311043928001DELIFRANZ BACKEREI, INC.                                 1602
B0801400160000002676793TRI-LINE CAR CARE CENTER                                 1603
A0801400160311265752001DIVINAGRACIA, LLANE GRACE                                0502
A6601400120000003642846FLORESCA, MANOLITO ESTERNON DBU                         10505
A6601400120000003642846RMF SARI SARI STORE                                     20500
B6601400120000004440759ILANAN, JERONEL DBU JONDIL HARDWARE &                   11602
B6601400120000004440759ELECTRICAL SUPPL                                        21600
A2001400290000003134027BUHISAN, CAROLINE LU                                     0501
A2001400290000002319531SANOY, EZELBETHA ABLON OR                               10502
A2001400290000002319531SANOY, REY CECIL                                        20500
A0101402350000003880524STA MARIA, EVELYN CRUZ                                   0501
B0101402350321171332003MIKE KELLY REALTY INC.                                   1602
A0101402350321179501002JUAN PUAN TIU OR TIU SIO YONG                           10502
A0101402350321179501002OR RICHARD ALVIAR                                       20500
A0101402350321530494001CHRISTINE PEARL P. LIM                                   0501
A0101402510341197758001CARMINA P. CATAPANG                                      0501
B0101414700353821100608**********                                               2002
B0101414700353821200608**********                                               2001
B0201400760000001612813ABCACADEMY INC.                                          1601
A0201400920000000048031FMC CATERING SERVICES                                    0502
B0201401020000003031129DEL PRADO, JOSE VICE DBU DE LARRA FOODS                  1602
A0101402930000001445432************                                             0501
A0101402930381205175001DR. MARILYN D. RUARO                                     0502
A0101402930381208046001GILBERT C. YANG OR                                      10503
A0101402930381208046001CATHERINE Y. YAN                                        20500
B0101402930381667403001PRIVE PROPERTIES DEVELOPMENT INC.                        1601
A0101402770391029270001RCABAN-SAN ANTONIO DE PADUA                              0501
B0101402770391601391001SPORTSFOCUS, INC.                                        1605
A0101408400394550155001GATPAYAD, JHOANA VISTA                                   0501
B0101407300395821200608**********                                               2002
B2401400180411033588088FIESTA APPLIANCECENTER, INC.                             1605
A2401400180000003949184SANTOS, PATRICIA CRUZ DBU PATRI                          0502
A1201400150000001863254PRACTICAL ACADEMIC INTERVENTION                          0502
A1201400150000001863254PRACTICAL ACADEMIC INTERVENTION                          0501
B0901400190431821100608**********                                               2010
B0901400190431821100608**********                                               2005
B0901400220432821100608**********                                               2002
B0901400220432821200608**********                                               2001
A3801400170000002302761NANCY M VINAS                                            0502
A1401400110492455411001BELEN, ROSEMARIE SABATER                                 0504
B1601400170000000036126SUNWEST CONSTRUCTION AND DEVELOPMENT                    11605
B1601400170000000036126CORPORATION                                             21600
A0701400260000001069701MAGTUTO, RENATO VILLAFUERTE                              0501
A0101407430000000359513PAUL MICHAEL R. PALUERO                                  0501
B0101403580000000214662MEC - SUNTRUST PARKVIEW TOWER 1 & 2                      1610
B0101403580511037494001MAGENTE BPO CO. LTD.                                     1602
A0101411790518055764138FABRICANTE, APRIL JOY UBAG                               0501
A0101411790518055764193LAYNESA JR., HENRY I REGULADO                            0501
A0101411790518055764268ALARCON, SHERWIN ACE CAYANAN                             0501
A0101411790518055764269ALVIZO, KAREN RIVERA                                     0501
A0101403450521238157003**********                                               0503
A0101403450521387357001**********                                               0503
A0101403610000001450782HSIEH, JENNIFER CO OR                                   10502
A0101403610000001450782HSIEH, AARON                                            20500
B2201400250561088535001CHRISTOPHER JORDAN L. CHUA                               1601
A0101410690000000061856LAMUSAO, ARNOLD ADDUN                                    0502
B0101410690600046710001BEST ELECTRICAL AUTOMATION CONTROLS                     11605
B0101410690600046710001(BEAC), INC.                                            21600
A0101410690000000710741FAJARDO, MARIA RAMONA CANLAS                             0501
A0101404130601492243001DONGUINES, ROWENA DREQUITO                               0501
B0101407720000000885747QUARKS QUEST HOLDINGS, INC.                              1605
A0101407720602504234001STA. MARIA, ARLENE CEDILLA                               0502
B0101412180000001293141STA ELENA CONSTRUCTION & DEVELOPMENT                    11610
B0101412180000001293141CORPORATION                                             21600
B0101404260611035419002JK HUMANBOND CORPORATION                                 1602
A0101409920000001283410CHAVEZ, SARAH DBU SMC FURNITURE                          0503
A0101409920000000523573MEMBERS OF NATASHA (SHOECAT INC                         10501
A0101409920000000523573JOANNE L. MABULAY                                       20500
A0101409920000001951919MEMBERS OF NATASHA (SHOECAT INC                         10501
A0101409920000001951919ORTIZ, GINA H                                           20500
A0101413570000000206373MARY ANN C. REYES OR BENEDICT                           10502
A0101413570000000206373MARIANETTO A. REYES                                     20500
A0101406590000000035481EVELYN D. MASCARINAS                                     0502
A0101406590000000131728LIBUNAO, ALFREDO DE GUZMAN                               0503
A0101410300000000191655VIRGILIO P. LABRADOR JR. AND                            10501
A0101410300000000191655RONIE A. SALEY                                          20500
A0101408240000002821930MEIM, PAUL NINO LEYRAN                                   0503
B0101408240711025397001KINGSMEN CORPORATION                                     1605
A2801400100712281930001VICTORIA R. VALDEZ, M.D.                                 0502
A4101400260812409493001AMELIA RAZON OR EMILINO RAZON                            0501
A4101400260812478374030MA. CONCEPCION S. PARAGUISON                             0501
A0101412340000003343804JOHN GEORGE M. IKEDA                                     0501
A0101412340000003422831DAVIS D. MARIANO                                         0501
A0101404840000000085050NIKKI DE ISO                                             0501
A0101406750852615338001CHAVEZ, ANGELO D. OR                                    10501
A0101406750852615338001BARLAAN, CHRISTY                                        20500
B0101405070861654489001SY, DERICK TIU                                           1601
