B0201400760374821100608**********                                               2050
A0101400730111393421012RAQUEL A. STA CRUZ                                       0501
B1001400350000000244368PHILIPPINE GAMS GENERAL INSURANCE AND                   11610
B1001400350000000244368FINANCIAL SRVCS                                         21600
B1301400470252821100608**********                                               2003
B1301400470252821200608**********                                               2001
B0101408660274062699001CHEESE CAKE WORX CORP.                                   1601
A0101400730111043689001LTF TRAVEL & TOURS                                       0502
A0101406750000000358070RUBIO, MARI DBU IDEC INTERIOR                           10502
A0101406750000000358070DESIGN                                                  20500
A0601400520000005943564FELIPE, DONNA FIDES SOMERA                               0502
A0301400530000000066044**********                                               0503
A0301400530000001010051CUBILLO, DOMINGO D. OR                                  10505
A0301400530000001010051CUBILLO, CARMELITA                                      20500
B0301400790195062743001GREATSYSTEMS WORKX, INC.                                 1601
B0101401670271821200608**********                                               2005
B2401400180411033429088GS JODI FORWARDER INCORPORATED                           1601
A2401400180411514423001DEALA, BERNARDITA GATCHALIAN                             0502
A4101400420814456030002AGELLON, LILY RADY AGUINALDO                             0502
A4101400420000002084595TONIO, EDNALYN                                           0501
A4101400420814768923001VIRTUZ, SALVADOR ABAQUITA OR                            10502
A4101400420814768923001VIRTUZ, REBECCA                                         20500
A0101400860000005313046**********                                               0502
A0101401250021559401001SYLVIA M. GONZALES                                       0502
A0101400150000003162336VENICE ARIANNE P. ALEGARVIZ                              0502
A0101400150000002749717MEJIA, DANIEL EGIPTO                                     0502
A0101400150000004915219MERCADO, ABRAHAM RAMON MANALOTO                          0503
B0101400150000000633094KINETIC PHILS. ELECTRICAL CONSTRUCTION                  11602
B0101400150000000633094INC                                                     21600
B0101400150000005015581REDANDWHITE WINE INC.                                    1602
A0101400150061230071003MICHIO IWAI                                              0505
A0101400150061518841002PAMINTUAN, MARIA RAQUEL REYES                            0501
B0601400100000000032760RDF FEED, LIVESTOCK & FOODS, INC.                        1610
A0101413280000000312621ALVIN D. SABILE                                          0501
A0101413280092062132001COELY Y. GO DBU REIKEN                                  10501
A0101413280092062132001AUTOMOTIVE SUPPLY                                       20500
B0101413280092821200608**********                                               2002
A0101400730000005317180CAJUDAY, TERELYN ROJAS                                   0501
A0101400730000004948592MEMBERS OF NATASHA(SHOECAT,INC)                         10501
A0101400730000004948592GLORIA C. GLORIA                                        20500
A0101400730000000645410ASIS, REDENTOR CONSTANCIO                                0501
A0101401960121238667001MARCELO PASCUAL OR                                      10505
A0101401960121238667001MERCEDES PASCUAL                                        20500
B0101412630000002186570JEC REALTY CORPORATION                                   1603
B0101401830000000059972CARITAS SALVE CREDIT COOPERATIVE (NOVA/                 11604
B0101401830000000059972ST.PETER) 010                                           21600
B5001400170000000169891WYT CONSTRUCTION AND DEV'T. CORP.                        1603
A0101407270000007960098MARIA THERESA ALIPIO                                     0501
B0101407270162040127001SEVEN-SEGMENT BUSINESS SOLUTIONS INC.                    1602
A0101401090171242611001RICARDO OR EMERITA CARAIG                                0502
A0101401090171405617001RITA G. DETERALA                                         0501
B0301400530000000065945TAGUM SEAFOODS AND GRILL CORPORATION                     1604
B0301400530193406201168*** ****** ***                                           1602
B0301400660194046395088DAVSAM LINK CORPORATION                                  1601
B0101412500000000041749UNITED DOCTORS MEDICAL CENTER, INC.                      1620
A3101400450000005355528PAGKALIWANGAN, VENUS LEI BRIONE                          0501
A3101400870000000957666MARASIGAN, JAMES ILAGAN                                  0502
A3101400870000005410188BARLAN, HOLIDAY SILVESTRE                                0501
A3101400870000005410020CONCEPCION, ROEL SACRAMENTO OR                          10501
A3101400870000005410020DE LA ROSA, JOSE GLEN Y.                                20500
A1301400470252510993001WILSON DG. CHUA                                          0501
B1301400760253062765001MOTORHUB INC.                                            1601
A0101401670271375347001HENEDINA L. VELASCO OR                                  10503
A0101401670271375347001EDGARDO T. VELASCO                                      20500
A0101401670271613655003LIM, TERESA KATIGBAK                                     0501
B0101406460272038032004WEE COMMUNITY DEVELOPERS, INC.                           1601
B0101406460000000182370WEE COMMUNITY DEVELOPERS, INC.                           1601
B0101406460000000182483WEE COMMUNITY DEVELOPERS, INC.                           1601
A0101410980000002986987YEUNG, MARIBETH PO                                       0502
A0101412470000002135940KUNG, SUSAN GO                                           0502
B0101412470000003847416FUNDACION SANSO, INC.                                    1601
B0101400570281023961001ST. LUKE'S SAGIP BAYAN FOUNDATION, INC.                  1604
A0101400570281255738001SAWIT, JOSEFINA BARON                                    0501
A2601400270302574301001ALEX UY TY                                               0501
A0801400160000002287578************                                             0501
A2001400290000001999804CUAL, BASILISA LIMPAHAN                                  0501
A2001400290315043507001AMSTEL BEAUTY SALON                                      0501
A2001400290315788888002***************                                          0502
A0101405650000002325640ZIOUTOS, ALEXIOS S.                                     10503
A0101405650000002325640OR ZIOUTOS, JULIZELLE T.                                20500
A0101402060000000562065ARGANOSA, MAGDALENA LYN SARZUEL                          0501
A0101409050352734290001*********                                                0504
B0201400760374821200608**********                                               2005
A0201400890000002270140**************                                           0502
A0101408370382490482001DR. KRISINDA C. DIM-JAMORA                               0501
A0101408790000006623054JUSTINE JOAN G. TIRO                                     0501
B0101402770391601391001SPORTSFOCUS, INC.                                        1605
B0101402770391752292001JUANITA OR TOMAS OR BENJAMIN                            11601
B0101402770391752292001VICTORIA                                                21600
B0101405490392029745002MESINA BROTHERS, INCORPORATED                            1601
A0101405490000004353020MATUTE, HENRY ALEJANDRO                                  0501
A0101405490392625345001**********                                               0501
B0101408400394027797001BY THE YARD FABRIC CENTER                                1602
B0101409180397670520001CASAEUROPA INC.                                          1604
A2401400180411043200001DYNAMIC FORCE SECURITY AGENCY                            0510
A2401400180411389026001VILLANUEVA, REGINA DELFIN                                0505
A2401400180411478374039ABRENICA, COSMECIA L.                                    0502
A1201400150421685972001JUCUTAN, HEIDI BONDAD OR                                10502
A1201400150421685972001JUCUTAN, ROMMEL                                         20500
B1201400150421821200608**********                                               2001
A0101403030441239821001TEDDY T. YAU                                             0501
A0101403030441528030001**********                                               0504
A0101403320000008003836ROSANA L. RABUCO OR                                     10501
A0101403320000008003836ELMAR C. LAUREL                                         20500
A0101406330000000451370VILLARANTE, MARIA LUZ PELAYO                             0502
B0101406330472040053001KUS OFFICE SYSTEM MFG. CORP.                             1602
A0101406330000001235329BALUARTE TRUCKING                                        0502
A1901400160491343996001MARIA DOROTHY M HERNANDEZ                                0502
A1401400110492493108001DEQUITO, BERNABE VILLANUEVA                              0502
A1401400110492620230001DELOS SANTOS, ENRICO PEREZ                               0503
B1601400170000000036035SIX IN ONE CORPORATION                                   1603
A0101407430503182735005JEFFERSON G. CHENG                                       0505
B0101405940000000886728TORRE LORENZO PROPERTY MANAGEMENT                       11603
B0101405940000000886728CORPORATION                                             21600
A0101405940000005067750PABULAYAN, ROSANA D.                                     0501
B0101406880513038191001DOKTORS GENERICS PHARMACY, INC                           1610
A0101408110000001823821LORENZO, DOMINADOR MELCHOR DBU                          10502
A0101408110000001823821DMLORENZO BUILDERS                                      20500
A0101408530000002980603CASTILLO, WILBERTO PROSPERO                              0502
A0101411790000000134169CATALAN, SHEILA ESTRADA                                  0501
A0101411790518055764127DOMINGO, SHIELANER GUEVARRA                              0501
A0101403610531326830001CABONATALIA, MARIVIC BAUTISTA                            0505
A0101404000000000461141RONAN, ABELARDO REPUBLO                                  0501
A0101404000551478374002PENAMORA, GIRLIE E.                                      0501
A0101410690000000061834IQBAL, BERNADETTE G.                                     0502
A0101407720602396681001DR. HENRY U. LU OR                                      10503
A0101407720602396681001JOSEPHINE Y. LU                                         20500
A0101404260611005236001WILTRON ELECTRONICS                                      0502
A0101404260611478374131NIDA A. ALIDO                                            0501
A0101404260000000532056REGINA C ALTO                                            0501
A0101411530000008003512NERY, MARIE NERY                                         0501
A0101411530000008003552VILLANUEVA, ARLEEN TOLENTINO                             0501
B0101413570656062827001MCLA NUVO VENTURES CORP.                                 1601
A0101413990000000206033MARITES R. CONANAN                                       0502
B0101410300663082813001DELTA GRID POWER SYSTEM CORPORATION                      1605
B1701400230693035209003OUR SAVIOUR'S FOUNDATION, INC.                           1601
A2801400100712494193001DIANO, BLESILDA MISTICA                                  0501
A4101400390813780288001GAMAT JR., RODOLFO KAIKLIAN                              0501
A4101400420000007305433MANICIO, MARIA ARMI ORTEGA                               0501
A4101400420814480121001FABREAG, DELIA FLORES OR                                10502
A4101400420814480121001FABREAG, BOBBY F                                        20500
A4101400420000000120970REYAN S. LINCAY                                          0501
A4101400420000006643445MAGNETICA ELECTRONICS, INC.                              0501
A01014067508520359810014K MEDICAL & DENTAL SUPPLY                               0503
A0101406750852750077001DOMOGMA, ELMERINA TOLENTINO                              0501
B0101418810853821200608**********                                               2002
A0101405070861037846001GOODNESS & MERCY MOVERS                                 10503
A0101405070861037846001SERVICES                                                20500
A0101405070861202025001ROSALES, DOLORES G.                                      0502
B0101405070861279837001FULGENCIO, EDUARDO MARTINEZ      JT                      1601
A0101405070861478374067TIRSO M. ARROJO JR.                                      0502
B0101405070861654489001SY, DERICK TIU                                           1601
B0101416870920042000022**********                                               2001
