B0101400440161821100608**********                                               2003
B0101402350321046288001TMI FOOD PROCESSING & DEV. INC.                          1604
B0101402350321456451001ROADSTAR MARKETING & TRUCKING, INC.                      1605
A0901400220432339854001**********                                               0502
B0101402350321015321001BEST CHOICE MINIMART INC.                                1603
A0101407430000014993425EMPLOYEES OF, PANALPINA GLOBAL                           0501
B0101413570000014658150YULA TRADING CORPORATION                                 1605
B2001400290315528399001**********                                               1601
A0101404840000017175247EGAGAMAO JR., EDUARDO PUSTA                              0501
A0101400860011452222001**********                                               0505
A0101400860011610224001**********                                               0510
B0101400860011678167001**********                                               1604
B0101401250021006948001PANGARAP FOUNDATION, INC.                                1605
A0101401250021476357001CATHERINE GO UY                                          0501
A0101400150000000807118YOUNG, LAUREN ANNE TALDE                                 0502
A0101400150000003164805LABIANO, JENNY ISABEL SALANDANA                          0502
A0101400150000008044182SANTIA, ANDREA                                           0501
A0101400150000010843262MONJUSHIRO, YUTAKA NIL                                   0501
A0101400150000017419735BAS, ALBERTO PASAQUIN                                    0501
A0101400150000017419951MANIEGO, MA. KATRINA DELA PENA                           0501
A0101400150000017420041DELA CRUZ, MICHAEL TABBU                                 0501
A0101400150000017420132GONDA, KAREN KRISTEL ILAGAN                              0501
A0101400150000017420223ROQUE, TRINA VICTORIA ESTRADA                            0501
B0101400150061026597001HONDA MOTOR SPORTS INC.                                  1605
B0101400150061027294001HMS CREDIT & FINANCE CO., INC.                           1605
B0101400150061028210001GOLDEN DRAGON MOTOR SALES CORP.                          1605
A0101400150061193198001REYES, HAZEL D.                                          0501
A0101400150061227107001KIM H. APOLEGA                                           0502
A0101400150061229814001LEONCIO C. LIM                                           0501
A0101400150061430140001MIMI C. QUA                                              0501
A0101400150061571188001ANTONIO, ANGELYN DALDE                                   0502
A0601400100000010024914BOK, JANE DUE DBU MOGORA ASIAN                           0505
A0601400100081068713001CAYABYAB, GERALDINE JACINTO DBU                          0501
A0601400100081498065001VILLANUEVA, JERRY OR ORLITA                              0501
A0601400360000017413393SPIRES, RODNEY LYNN                                      0501
A0601400520000009516645SANCHEZ, RICHARD HOMILLANO                               0502
A0601400520000013872712DE MESA, ELMER DE LEON                                   0501
B0601400520000001349719MAGTOTO, KELVIN DBU CALULUT CONVENIENCE                 11605
B0601400520000001349719STORE                                                   21600
B0101400730111020534001BAYANIHAN MULTI-PURPOSE AND TRANSPORT                   11601
B0101400730111020534001SERVICE COOP                                            21600
A0101401830000000201878ENRIQUEZ JR., JESUS PARRILLA                             0501
A7201400170000013006665TRAYA, NELSIE NELMIDA                                    0502
A7201400170152067948001SY, JUSTINE ARNAEZ DBU                                  10501
A7201400170152067948001WM COMMERCIAL                                           20500
B0101400440161013681001P.J. LHUILLIER, INC.                                     1610
B0101400440161029744001PAWNSAFE SERVICES CORPORATION                            1606
A0101400440000004889810MARILOU A. RAMISO                                        0501
A0101400440000014296581DIMAAYO, JOSIE                                           0501
A0101400440161525001119NORA S. TALENTO                                          0501
A0101400440161625470001KRISTINE A. CECILIA                                      0501
B0101407270162031529001CENTER INDUSTRIAL SUPPLY CORPORATION                     1605
A0101401090171195958002CARILLO, CLARITA DE LEON OR                             10501
A0101401090171195958002CARILLO, EDWIN M                                        20500
A0301400530000012665139*****                                                    0510
B0301400660194044769038LUMINOUS DEVELOPMENT CORPORATION                         1605
A0301400950000010701003LORENZANA, RACHELLE CARREON                              0502
A0301400950000014676083TAGABUCBA, MA. VISMIN DBU BRING                         10503
A0301400950000014676083ME                                                      20500
B0301400950000014676083TAGABUCBA, MA. VISMIN DBU BRING                         11603
B0301400950000014676083ME                                                      21600
B0301400950000000566912SOUTHGATE MANAGEMENT AND CONSULTANCY                    11601
B0301400950000000566912GROUP, INC.                                             21600
B0101401380201038251001PRIME ROCK PHILIPPINES, INC.                             1601
A0101410720000013389541LAPARA, GILBERT ASUL DBU GLPR                           10501
A0101410720000013389541AUTO                                                    20500
B0101410720653038296001CREATIVE DESIGNLABS INC.                                 1602
B0101410720653044699001HALREY CONSTRUCTION, INC.                                1602
A0101410720653478374001MILAGROS F. TAN                                          0501
A0101412500000017413122BAJACAN, MICA ANJELICA ROSALES                          10501
A0101412500000017413122OR CONCEPCION, MARK LOUIS                               20500
A0101413600000005354872USOP, NORHUDA NILONG                                     0503
A3101400160000015271140CUPAS, ELLEN ITABLE                                      0501
A3101400160000017119125PELAEZ, REGIL KENT MASANGYA                              0501
A3101400870225738213003PANGAN, MONETTE FAUSTINO                                 0501
B1001400190231032559001COMMUNITIES CAGAYAN, INC.                                1605
A1001400190231520766039MONTANEZ, KATHERINE AKUT                                 0501
A1901400290000016639722MENOR, RONALAINE PAULINO                                 0501
B1901400290261034056001DIVINE LOVE GENERAL HOSPITAL INC.                        1620
A1901400290261321834001AIDA NINO PESIMO OR                                     10506
A1901400290261321834001NESTOR PALAYPAYON PESIMO                                20500
A1901400290261741509001ROMELIA DE LA CRUZ MACASAET                              0501
A0101401670271361002001JOSE ABRAHAM V. PLANA II OR                             10502
A0101401670271361002001RACQUEL Y. PLANA                                        20500
B0101406620273460371001PHIL. MANAGEMENT, INC.                                   1603
A0101411110000000009167CHUA, MARGARET GAW                                       0502
B0101411820000010701230PHILIA TRAVEL AND TOURS INC.                             1601
A0101400570281286356001KEVIN D. YU                                              0503
A0501400200000013602403GRAVIDES, RUSANNIE QUINTANA                              0501
A0501400200000005137188GANANCIAL,SHERLYN DBU MAX GEL E                         10501
A0501400200000005137188LECTRONICS SERVICE CENTER                               20500
A6601400120314042312003NORSAM BUILDERS & CONSTRUCTION                          10503
A6601400120314042312003SUPPLY                                                  20500
A6601400120000003642846FLORESCA, MANOLITO ESTERNON DBU                         10503
A6601400120000003642846RMF SARI SARI ST                                        20500
A2001400290000004444542RAMAS UYPITCHING, MARESA SOCORR                          0502
A2001400290315041547001CARTRONIX LOGISTIC & TRANSPORT                          10510
A2001400290315041547001CORPORATION                                             20500
B2001400290315043653001G & S SOLID CORPORATION                                  1605
A2001400290315688009001ALGOPERA, LLOYD GARCIA                                   0504
B0101402510000017283553NEW CITIZEN'S (MENDIOLA) SALES CORP                      1601
A0101402060000009179564SUPETRAN, ISABELO ERNESTO LUMAQ                          0501
B0101402060351009544001RI CHEMICAL CORPORATION                                  1605
B0201400760000006433401CHUA, JOSEPH DBU COMPOSTELA ICE PLANT                    1601
A0101402930000010657811VILLARUEL, IAN PHILLIP GO                                0501
A0101402930000014436143ESTIL, MARIA CRISTINA RESUELLO                           0501
A0101408790000017409235MICLAT, JOHN PAUL ADANIEL                                0501
A0101408790000017409360PRECILLA, NATHANIEL FRANCIS GAL                          0501
A0101411660000005324072MAMA, SALMA MACARIK                                      0502
A0101402770391476396003MA. LOURDES O. MAGSINO                                   0503
A0101405490000003178421REYNON, RANDY FARAON                                     0503
A0101408400000001981513CAGURANGAN, JOHNNY BOHOL                                 0501
B0101408400394027986001EDENG'S TOYS STORE                                       1601
A0101408950396565384001LABAO JR., ROMEO OCOL                                    0501
A0101409180000017410496ASUNCION, RON PATRICK BALWEG                             0501
A0101409180000017410689CARLOBOS, JAIME DURAN                                    0501
B0301400820409091735055LIMA, WINDELL BRISTOL DBU DAVAO HOME                    11601
B0301400820409091735055BUILDERS CENTER                                         21600
A5501400120000006977048FUNA JR., ERNESTO MONTEFRIO                              0501
A0901400220000000887954ALANANO, NATHANIEL P. OR                                10502
A0901400220000000887954ALANANO, MADELYN A.                                     20500
A0101406330472296884001JAYLEE TRADING                                           0502
A0501400170481400649001REYNA, CICEL MANAOIS                                     0501
B3801400170000017400441RUGA,JIMSON AND PANGANIBAN,BEVERLIE AND                 11601
B3801400170000017400441MENDOZA,MARJORIE                                        21600
A1901400160000017401013DEMETRIA, JESSIE DATIG OR                               10501
A1901400160000017401013DEMETRIA, YVETTE UNGRIANO                               20500
A1901400160000017425571DR. AL JOSEF D. MARASIGAN                                0501
B1901400160491012827001PORT CITY CREDIT AND LOANS CORP.                         1603
B1901400160491026197001OMEGA MANPOWER MANAGEMENT CORP.                          1605
A1401400110000016984386DE LEON, MENA PITOGO                                     0501
A1401400110000017414170CANTOS, JOSEFINA LLAGA                                   0501
A1401400110000017419228RAVELO, JOSEFINO CUYA                                    0501
A1401400110000017422225QUE, JAYMIE TANTIANPACT                                  0501
A1401400110000017422801MARTINEZ, JOVERE NERA                                    0501
B1401400110000012353274BPROPERTY MANAGEMENT AND HOLDINGS I                      1610
B0101407430000007512052BT-AMPS TECHNOLOGIES, INC.                               1601
B0101403580511005504001EXCHANGE PROPERTIES RESOURCES CORP.                      1602
A0101408530000011780073ENRIQUEZ ACUNA, MIGUEL RAUL                              0502
B0101408530000001275172PHILIPPINE BRITISH ASSURANCE CO., INC                    1615
A0101408530000005493472MYLA A. LAZARO                                           0501
A0101412050000014677924LAN, DONG                                                0501
A0101410690000003027625BENJAMIN C PILOTIN JR OR                                10505
A0101410690000003027625MARIA HOSANNA A                                         20500
A0101404130000016160980WENQING HOU                                              0501
A0101404130000016160991FU, JING                                                 0502
A0101404130000016161061JINFENG YANG                                             0501
A0101404130000016161016HUAJUN SHEN                                              0501
A0101404130000016161072ZHENLIANG BAI                                            0504
A0101407720000009414142SANTOS, DELILAH CAINGAT                                  0501
B0101407720602041221001MMC PEDIA ASSOCIATION, INC.                              1601
A0101407720602341731001************                                             0503
A0101407720602358468001TORRES, MA. TERESA ANCIANO                               0506
A0101407720602377406002LAURA SAN LUIS ETROIT OR                                10502
A0101407720602377406002MA. CARMELA VILLEGAS                                    20500
A0101407720602394399001CRUEL, ALDABELLE LABANEN                                 0502
A0101407720602397271001OZAETA, MA. RAMONA PABLO                                 0501
A0101407720602400974001BELTRAN, GERARDO LIOANAG                                 0504
B0101407720602531639007INTELLIGENT BEAUTY SKIN SOLUTIONS INC.                   1602
B0101407720602779384001YUSIN NINE MARKETING INC.                                1602
A0101409890649047047001**********                                               0510
A0101407690652474247001**********                                               0503
A0101407690652678597001HERRERA, ALICIA ARCEO                                    0502
A0101411530654081803001REYES, GAIL MARGARETTE                                   0501
A0101413440000016444412BALOY-PANGANIBAN, REGINA                                10501
A0101413440000016444412GERALDINE GUANLAO                                       20500
A0101413570000004353957RAMEL H. OROZCO OR                                      10505
A0101413570000004353957NORA B. OROZCO                                          20500
A0101413570000013487373NOVILLERO, ALBERT MANUEL                                 0501
A0101413990000006278248VICTO, MELVIN FERNAN QUIJANO                             0505
A0101413990000016958182DIZON, DALE CHRISTIAN BARCELONA                          0501
A1301400210000001206831RUTH S IRENEA                                            0515
A1301400210000016548222GIRON, LILIA FLORES                                      0501
A1301400340000017069586ROBES, NELSON DE VERA                                    0501
A1301400500000000213265VINCENT P. JAVIER OR                                    10505
A1301400500000000213265TERESITA F. JAVIER                                      20500
A1301400500000015562479OKADA, ARMINDA GREGORIO                                  0501
A1701400230000012227440CORPUZ, LUCKY DAVE DOCTOR                                0502
A0101408240000009453038ROJAS, CARMENCITA SORIANO                                0502
A0101408240000016574795SARDEA, ROGELIO ALMACEN                                 10501
A0101408240000016574795OR SARDEA, EDITA LAITAN                                 20500
A2801400100000000004720REYES, MYRA DBU MRC DENTAL                              10501
A2801400100000000004720CLINIC                                                  20500
A2801400230000001294008CUEVO, LLOYD VINCENT QUINTO                              0501
A4101400260000016685388HASSAN, JEANETTE MENDOZA                                 0502
A4101400260000016685399MENDOZA, JEANETTE REYES                                  0502
A4101400260812594262001ARLYN B. PARAGES                                         0502
A4101400390000001404266SAMARITAN C. SOLAS                                       0502
A4101400420000000710103JARIN, MARIA FE SAPINOSO                                 0502
A4101400420000015173903*********                                                0501
A4101400420000003715724FLAVIANO, PERLITA                                        0501
A0101412340000005964316SCOTT DOUGLAS FESLER OR                                 10502
A0101412340000005964316ANGELINE S. FESL                                        20500
A0101404840000014694176RODRIGUEZ, GENE ALVIOR                                   0501
A0101406750000007879256BANGALISAN JR, ROLANDO BARUNGAY                          0501
A0101405070000014045295ERWIN R. LAGAHIT DBU ROWN                               10502
A0101405070000014045295MARINE SERVICES                                         20500
A0101413860000001233732INTALAN, AMELITA MENDOZA                                 0501
A0101413860000016826832DIOKNO, GENER BARCELOS                                   0502
A0101413860000015679277SINEL III, ANTONIO R.                                    0501
A0601400230000000498619NEPOMUCENO, NOLI SICAT                                   0501
