F0601400490000000011092BALMATER, THOMAS CHRISTOPHER T.                          2501CKO
F4101400260000001198745VILLANUEVA, MARIA VILINDA ENDAY                          2501CKO
F4101400260000001673430MALIHAN, JOSE RENITO FRANI                               2501CKO
F0101400860011038338001ANGELS AT HEART FOODS SHOP                               2510CKO
F4101400390813039856002MARITES M. REYNERA                                       2502CKO
F4101400260812046756001*****                                                    2602CKO
F4101400390813030057001ACE-MED INC.                                             2610CKR
F0101406750000000091023PLUS CONSTRUCTION INDUSTRIES                            12601CK1
F0101406750000000091023CORP.                                                   22600CK1
F0101405070861020884003FORMTECH BUILDERS CORPORATION                            2705CKC
