A3001400130000000007041CHAQ GLASS & ALUMINUM SUPPLY                             0501
A1301400340000000011616RIVERO, DARLYN ALSON                                     0502
A0101409920000000022088ASUNCION, MARILYN JUANEZA                                0501
A0101412470000000026800ALAN T. CHU                                              0501
A0101407690000000154812AIKA RECORDS                                             0502
A0101413600000000206697******                                                   0505
A0101400150000000253278GELANO, ANGELO RECTO                                     0502
A0101402060000000445425LIMJUCO, DIANA GOROSPE                                   0501
A0101403320000000452173SUMULONG, MARIA BANATIN                                  0502
A0101408820000000469814BAUTISTA JR., MACARIO REYES                              0501
A0101404840000000475952GONZALES, ROWENA POLLICAR                                0502
A1601400170000000497423MENCHU R. BUADO                                          0501
A1601400170000000497569MARISSA A. ARCANGEL                                      0501
A0101400150000000525313**********                                               0501
A0101407690000000587800*****                                                    0501
A0101413570000000635501**********                                               0505
A0101414120000000648982LIGERALDE, SUSANA ODULIO                                 0501
A0101414120000000649081MC EDRICK TRUCKING SERVICES                              0502
A0101411370000000903611RAMIREZ, MARISSA MARTINEZ                                0502
A0101407690000000913600MARQUI AUTO SUPPLY                                       0502
A0101410300000000919422ROQUE, EUGENIE AMANDA V.                                 0502
A2201400250000001065952ALICE B. DE VERA                                         0502
A0101404840000001312656DE VERA, JAYVEE DELA TORRE                               0502
A0101404840000001312747CRUZ, ERIC DBU NODION BUILDERS                           0504
A0101400600000001335626********                                                 0502
A0101401380000001412526********                                                 0501
A0101401380000001412731MANAHAN, MARK LESTER MOHAMMAD                            0501
A0101403610000001450828ANDES, EDNA MASAYDA                                      0501
A0101408400000001614693ELICARL SALON                                            0501
A0101414120000001751388LVQ MERCHANDISING                                        0502
A0101403450000001769782**********                                               0501
A0101401380000001819923DUQUE, MIEKO CAMPOSANO                                   0502
A0301400950000002115242**********                                               0501
A2401400180000002146334OMAY, Z DBU CRIZA ENTERPRISES                            0502
A6601400120000002249761BERNABE, ARWIN CARANZO                                   0501
A0101411820000002328452GENISES C. SOLOMON                                       0504
A0101411240000002332441BARIT JR., WILLY CO                                      0501
A0101407690000002348876MANIO, MARITES BARRIBAL                                  0501
A0101411950000002788881PANLILIO, REBECCA LUCAS                                  0502
A0101414120000002879885FCB TECHNOLOGIES                                         0502
A0101404680000003000873PABLO, CARMELITA CHUA                                    0501
A0101406590000003007187VELASCO, WILLIAM UNSON                                   0502
A0101407690000003207201BENOSA, RANDY RIVERA                                     0501
A0101408950000003439387AGUSTIN C. LAZARO                                        0501
A0101409050000003536430OSENA, ANGELICA                                          0501
A0101402480000003691036***************                                          0501
A0101413600000003851223ROMEO A. VERON JR.                                       0501
A0101413730000003981391**************                                           0501
A2001400290000004634953BAENA, JOSE FERNANDO CANLAS                              0501
A0101412630000004640982PORCIUNCULA, JOSE CARMELO JAEN                           0501
A0101411370022774052001MARISSA M. RAMIREZ                                       0503
A0101400730111334903033KERWYN D. GARCIA                                         0501
A0101400730111430874002CASIDA, BELEN ROGANDO                                    0502
A1001400190231478374179BACAN, JULIET                                            0501
A0101406620273213924001NAZARIO C. SEGUNDO JR.                                   0502
A0101408660274547172001BELMES, MARIBEL DEPAUDHON                                0502
A0101400570281186576001DR. ROSEMARIE JEAN J. POBLETE                            0502
A0101400570281334588001ARACELI ESTEVES ONA                                      0501
A3401400280318478374001MARILYN B. BISMANOS                                      0501
A0101402480331022723001**********                                               0501
A0101402480331343580001**********                                               0502
A0101402480331520766125VIRAY, DARIA ZABALA                                      0502
A0101408820333335130001ANTONIA S. GORRE                                         0502
A0101402640361170266001ROLANDO BUHAT CABRAL                                     0502
A2401400180411513730001CUEVAS, ARWIN ROYCE LEYVA                                0502
A0101403450521239693001*********                                                0505
A0101403450521366584001**********                                               0501
A0101403610531220224004FERRER, NESTOR AMIL                                      0502
A2201400250561019818003KIS ENTERPRISES                                          0510
A0101404130601451226001HERCE, ANABELEN B.                                       0501
A0101407720602328663002********                                                 0502
A0101407720602378666002FILOTEO CERENO FERRER                                    0501
A0101407720602397660001LAZARO, GISELLE MARY SERRANO                             0503
A0101404260611150840002WILLY OR ELIZABETH CHING                                 0501
A0101404260611151882001NATIVIDAD B. TALUSAN                                     0501
A0101404680651532206001ZENAIDA E. BACERRA                                       0501
A0101407690652645809001COLLAMAR, SHANE JAYOMA                                   0502
A0101411950680478374004CARLETA, REBECCA CARPIO                                  0501
A1701400230693043742001CAFE JUAN                                                0503
A1701400230693662898002DUQUEZ, REYNALDO AQUINO                                  0501
A0101408240711478374015EMILY MONTILLANO                                         0502
A4101400260812478374067LAZARA A. SALAGUINTO                                     0501
A0101404840851213312001MARQUEZ, THELMA P.                                       0502
A0101404840851478374115ERLINDA O. PRADO                                         0501
A0101406750852182713001CATALYST MEDICAL SUPPLY                                  0503
A0101405070861198446004CALMA, VICTORIA                                          0502
A0101403320000000037727BERTULDO, AURIE DIA D.                                  10502
A5501400120000000046882CHIU, VALENTIN & JULIA EILEEN &                         10502
A0601400520000000398476LIM, JOAN MARIE CHENG DBU WAMPY                         10501
A0101403320000000452322JAVIER, E DBU CENDAUR                                   10504
A2601400270000001009152COSTES,ROLAND DBU NORTHPEARL                            10501
A0101401830000001139953ROSEMARIE S. NOJADERA OR                                10501
A0101414120000001142852TERESITA M. PUYAT OR MARY ANN                           10504
A0101414120000001751413SALVADOR J. LAGARE OR EMILIA                            10503
A0101401090171351928001KONRAD AGUILA OR                                        10503
A0101407140213376846001GAN, KATHY SY OR                                        10501
A0101401670271186319001OSCAR E. NIEVA OR                                       10501
A0101401670271186319003NIEVA, OSCAR E. OR                                      10501
A0201400760374625336002REYES, BAYANI CARLOS OR REYES,                          10501
A2401400180411343170001RAMOS, EDUARDO UBONGIN OR                               10503
A0101403450521238266001JERONIMO CO CHIN CHIENG OR                              10502
A0101407720602332279002CAYCO, ANTONIO V. OR                                    10501
A0101407690652478374179LENIE ANDO - DEALERS OF                                 10502
A1301400500684594780002CASTRO, RAYMUNDO OR                                     10502
A0101403320000000037727DBU DIAMAS ENTERPRISES                                  20500
A5501400120000000046882CHRISTIAN & CHRI                                        20500
A0601400520000000398476PRINTS AND DESIG                                        20500
A0101403320000000452322ENGINEERING                                             20500
A2601400270000001009152TRADING OR COSTES,VIRGINIA                              20500
A0101401830000001139953ISAGANI M. NOJADERA                                     20500
A0101414120000001142852MAGNO                                                   20500
A0101414120000001751413V. LAGARE                                               20500
A0101401090171351928001MA. ROSARIO G. AGUILA                                   20500
A0101407140213376846001GAN, RAYMOND KRISTOPHER                                 20500
A0101401670271186319001JOANNE LEE NIEVA                                        20500
A0101401670271186319003NIEVA, RENATO E.                                        20500
A0201400760374625336002VIRGINIA ALMEDA                                         20500
A2401400180411343170001RAMOS, GINA SONA                                        20500
A0101403450521238266001LAWRENCE COBANKI                                        20500
A0101407720602332279002CAYCO, MARGARITA                                        20500
A0101407690652478374179SHOECAT INC                                             20500
A1301400500684594780002CASTRO, ROSEMARI                                        20500
B0101408240000000005530PACIFIC EMPIRE GSA (PHILIPPINES) INC.                    1601
B0101407690000000025010EC STRUCTURAL COMPOSITES, INC.                           1601
B0101400860000000030326**********                                               1602
B0101413570000000206540KASECO HOMEOWNERS ASSOCIATION INC.                       1601
B0101407690000000243832IDESCO CONSTRUCTION AND DEVELOPMENT CORP                 1603
B0101410140000000499032V-COPY DUPLICATOR SERVICES AND                           1602
B0101414120000000649127WILCHAT MARKETING                                        1610
B0101410560000000757211**********                                               1601
B0101406040000001392041********                                                 1602
B0101414120000001984290GREENERGY SOLUTIONS INC.                                 1602
B1001400190000002170850RD PAWNSHOP, INC.                                        1603
B0101400150061010797002LA COSTA DEVELOPMENT CORP., INC.                         1610
B0101400600071538520001*********                                                1603
B0101407140213042472001***********                                              1603
B1001400190231009544004RI CHEMICAL CORPORATION                                  1607
B0101401670271007088002A E & E'S DEVELOPMENT CORPORATION                        1605
B0101406620273212676001**********                                               1601
B0101402640361024449001COLLEGE OF ST.CATHERINE, QUEZON CITY                     1602
B01014026403610367630015OLE GANDROS FOOD SVCS., INC.                            1605
B0101403320471009043001ABCOR INDUSTRIAL CORPORATION                             1605
B0101407430503006821002ADMIN - PEOPLE'S AIR CARGO                               1605
B0101403450521021821001********                                                 1605
B0101404130601100074001KING'S DEVELOPMENT, INC.                                 1605
B0101407690652017367001EAGLE BROADCASTING CORPORATION                           1605
B0101407690652537622001CREATIVE DISHES & RECIPES INC.                           1602
B0101405070861008460004STARS TRAVEL INCORPORATED                                1602
B3401400280000000002320MALLARE, B DBU B&E COMPUTER SALES &                     11601
B0101407430000001213147IBANEZ, JRF RUNEZ AND MONTANO, ROSAURO                  11603
B6601400120314612844001MARTINEZ, ANGELINE OR MANUEL OR ORTIZ,                  11605
B3401400280000000002320SERVICES                                                21600
B0101407430000001213147ROSANO                                                  21600
B6601400120314612844001LEOVIGILDO                                              21600
B0101417970001501050106**********                                               2101
