A0101413440000000702178DIVINAGRACIA, GIL E. OR CARMELA                         10501
A0101413440000000702178G. OR TIMOTHY JOHN G.                                   20500
A0101408110515035205001A.Z. CORONEL BUILDERS                                    0502
A3101400870000000074775DE CASTRO, OLIVER ROBLES                                 0501
A3001400130000000931373SANCHEZ, AURALYN LUMAMBA                                 0501
B3001400130000000067229YU, MARK PETER U. AND YU, SAMANTHA S.                    1602
A3001400130230767566036XXXXXXXXXX                                               0501
A0101400440161525001135MARIFEL S. BOOC                                          0501
A6601400120314630541002LIAD, ROSIE ORTIZ                                        0502
B0101402060351022399001GOLDEN POT N' PAN FOOD SERVICES                         11601
B0101402060351022399001COMPANY                                                 21600
B5501400120410041754001KENDRICK PETRON STATION                                  1603
A0101408110515349308003CLEOTILDE B. FRANCISCO                                   0501
A4101400420814478374044BERATIO, MARITES M.                                      0501
A4101400420814635620001CORPUZ, ELMER AGSALDA  OR                               10501
A4101400420814635620001CORPUZ, AMELITA                                         20500
A0101401250021179040001NORMA LANORIA VALEROSO                                   0503
A0101401250021219561002DELOS REYES, SHIRLEY G. OR                              10510
A0101401250021219561002DELOS REYES, NICASIO E.                                 20500
A0101401250021368766001ZAGUIRRE, ELIZA RUIZ OR                                 10501
A0101401250021368766001ZAGUIRRE, RENATO                                        20500
A0101401250021385004001CABRERA, ERNESTO BAUTISTA                                0502
A0101400150061226167001GASPAR R. ANDRES JR.                                     0501
A0101400150061334116001MICHAEL A.P. ADAMS                                       0505
A0101410850000003503517ADRIANO, ANTONIO SO                                      0501
A0101410850000000005803JOSE, SHARON KAYE LU                                     0501
A0101401960121238686001****************                                         0501
A0101400440000003705877INDANGAN, BABEY POLAYAGAN                                0501
B0101400440161037389001GREAT WAY HARDWARE                                       1602
A0101400440161039572023JIMMY S. PALISOC                                         0501
A0101400440161039572074MARITES S. DIAZ                                          0501
A0101400440161478374087LORNA V. GALLARDO                                        0501
A0101400440161478374144CELERINA M. MARASIGAN                                    0501
A0101407270000000010093JOVEN P. FRIGILLANO                                      0502
A0101401090171360052001DE VERA JR., PABLITO SOLOMON                             0501
A0301400530193551185168QIU, YIYI                                                0504
A0301400530193686503001CORPUZ, GLENN A.                                         0502
A0301400660000001020102RODRIGUEZ, DARREN ALAMPAYAN                              0502
A0101401380201618189001CINCO, ROSA OR LAM, LAURENCE                             0505
A3101400160221222870001ALFREDO D. LU OR MARITES A. LU                           0510
A3101400450000001104043CARANZO, MARI BAGACINA                                   0501
A3101400450000003072493ABANTE, NELDA LIMBO                                      0503
B31014004500000000141043J CORPORATION                                           1602
A3101400450223206930002NAPOLEON ENRIQUEZ II OR                                 10501
A3101400450223206930002FLOR ENRIQUEZ                                           20500
B3101400740224017345001PALMPHIL GARMENTS PHILIPPINE CORPORATION                 1610
A1001400350233478374026ANNABEL ESTOMO                                           0501
A1001400350233528399003KO, JOSE NELSON AND                                     10502
A1001400350233528399003KO, CHARMAINE                                           20500
A1001400350233539705001SIMBAJON, ELENA P.                                       0502
A1301400760253087654001CATHERINE F SANVICENTE OR                               10505
A1301400760253087654001VINCENT PAUL P SANVICENTE                               20500
A1901400290261298552013LEONILA QUESADA GUEVARRA                                 0501
A1901400290261298552056TERESITA EUGENIO PUNZALAN                                0501
A1901400290261298552118CONCEPCION GONZALES ESTIGOY                              0502
A1901400290261298552151JEFFER JOHN ESTEBAN MONTEALTO                            0501
A1901400290261432900001JULIUS PIO AFRICA RANA OR                               10501
A1901400290261432900001CHARMAINE DE GUZMAN RANA                                20500
A1901400290261478374009LEILA LUMANGLAS OLAVE                                    0502
A1901400290000000135093MARITES LIM SANCHEZ                                      0502
B0101406460272015262001*********                                                1603
A0101408660000000855910***************                                          0502
A0101408660274478374013HERRERA, CHRISANTINA DOMINGO                             0502
A0101411110000002320121FERNANDO, CARLOS TOLENTINO OR                           10501
A0101411110000002320121ENCARNACION JR, ROSENDO C                               20500
A0101400570000002329820AGONCILLO, SHERYLLE JANNE ANN R                          0501
A0101400570281422071001DRA. ELSIE B. PASCUA                                     0502
A0101411240000001026851MARQUEZ, YOLLY MONTESA                                   0501
A0501400200292735444001OYAMAN, GENEVIVE ABANDO                                  0502
A6601400120314631091001ABANTAO, MATILDA ESPINA                                  0501
A3401400280000001723440EDUQUE, JESSIE ECARAN OR EDUQUE                         10501
A3401400280000001723440RUELYN CAPUNONG                                         20500
B0101405650322026870002TALIBON TRADING & INDUSTRIAL CORP.                      11605
B0101405650322026870002(MHO)                                                   21600
B0101405650000000772787MACHINE-AID TECH PHILIPPINES, INC.                       1601
B0101402510341037808001FAIR ALL MARKETING                                       1602
A0101402060351009359001JIANDANI, SURESH G. OR                                  10501
A0101402060351009359001JIANDANI, KAVITA                                        20500
A0101402060351377158001CALIZON JR., MOISES VILLACORTE                           0501
B0201400760374033207001W.T. CONSTRUCTION, INC.                                  1605
A0201400920000002804480MIRANDA, SAMMY                                           0501
A0201400920000002804504BARENG, NATHALYN C.                                      0502
A0201400920375478374015GAYO, LOURDES O.                                         0502
B0201401020377249471001COMMONWEALTH INSURANCE COMPANY                           1603
B0101402930381038648001LARGEN MED INC.                                          1604
B0101402930381040459001ROJAN TRADERS UNLIMITED INC.                             1604
A0101408790000000579415SHEILAH E. UYBOCO                                        0502
A0101408790000005293858CORTEZ, IAN RICHARD B.                                   0501
B0101408790383046214001MIDAS COMPUTER AND CCTV CENTER CORP                      1602
A0101402770391211325002BARTOLOME SARANGAYA                                      0503
A0101405490000002140961NEMENO, RODRIGO DELA  VICTORIA                           0501
A0101405490000000355719CRISTOBAL, IMMANUEL C. OR                               10501
A0101405490000000355719CRISTINA C. OR LIBRADO I.                               20500
A0101408400394033625002IVAN COMPUTER SYSTEM                                     0506
A0101408400000001035421ANGELICA BIRTHING HOME AND                              10502
A0101408400000001035421PEDIATRIC PRIMAR                                        20500
A0101408400394162700001FLORES, CATHERINE DOMINGO                                0502
A0101408400394478374094NUNEZ, GENIE                                             0501
A0101408400000000077930MARILOU DE GUZMAN                                        0501
A0101408400000000607743VALLE, MIGUELA IZZAH LORIA                               0501
A0101408400394695689001CAYABAN, VIVIAN LAMIEL                                   0501
A0101409180000004796654NIEVES, ARTHUR                                           0501
A5501400120000001121800LADARAN JR., JOSE BINOLA                                10501
A5501400120000001121800OR LADARAN, LANI                                        20500
B2401400180411033733033ECA RESOURCES, INC.                                      1601
B2401400180411276067001GAISANO DADIANGAS, INC.                                  1610
A2401400180411478374027ELLEN PANTUJAN OR                                       10501
A2401400180411478374027ELMER PANTUJAN                                          20500
A2401400180411478374039ABRENICA, COSMECIA L.                                    0501
A1201400150421013350001CORDILLERA CARABALLO MISSION                             0501
A1201400150421685972001JUCUTAN, HEIDI BONDAD OR                                10502
A1201400150421685972001JUCUTAN, ROMMEL                                         20500
B0101403320471008879002GOLDWIN MANUFACTURING                                   11610
B0101403320471008879002LABORATORIES                                            21600
B0101403320000000037567EESC CONSTRUCTION INC.                                   1601
B0101403320000000522325L.B.T AND SONS CO., INC                                  1601
A0101410140475339949001SANTOS, ADORACION SANCHEZ OR                            10501
A0101410140475339949001SANTOS, MYRNA SA                                        20500
A0501400170000001072702RAFANAN, SALVADOR R. DBU                                10501
A0501400170000001072702RAFANAN TRUCKING                                        20500
A0501400170000001072935HERNANDEZ JR., ROMEO FERRER DBU                         10501
A0501400170000001072935ZAIRON TRADING                                          20500
B1901400160491018232002AMA COMPUTER COLLEGE -BATANGAS CITY                      1601
A1901400160491034372001FIESTA HOME CENTER (FHC) CORP                            0505
A1901400160491244484001IRENE H BERBA OR                                        10505
A1901400160491244484001CARLOS R BERBA                                          20500
A1401400110000003063458LLAMAS, RALPH DBU RFTL BUILDERS                          0502
A1401400110492220742001DR. JOHN BUNYAN D. CALAMIGAN                             0502
B0101407430000003193902M.N.V. TRADING                                           1605
A0101407430503379026002RENATO G. MACANDILI OR                                  10501
A0101407430503379026002ELENA C. MACANDILI                                      20500
A0101405940000005067909IVY C. SALES                                             0501
A0101408110000000379971CEPEDA, RODELLA DBU                                     10501
A0101408110000000379971ZRPC ENTERPRISE                                         20500
A0101408110515478374001CORAZON M. PRINCIPIO                                     0501
B0101411400000001280637PHILIPPINE SAILING ASSOCIATION, INC                      1601
A0101411790518055764249FERNANDEZ, JACQUELINE ROSE C.                            0501
A0101404000000003707208RACHEL ANNE E NAVARRO                                    0501
A0101404000000003707839ANNA MARIE M VICENTE                                     0501
A0101404000551457552001PEREZ, ZYRNIE PASCUAL OR                                10501
A0101404000551457552001QUIAMBAO, LYZETTE PASCUAL                               20500
B2201400250000003558190EDWIN S. ESPIRITU OR ANNA JESSICA                       11601
B2201400250000003558190S. ESPIRITU                                             21600
B0101404130601621189001PROPEL MANILA 360, INC.                                  1602
A0101407720602162133003SILVA, MA. DIVINA BORJA                                  0503
A0101407720602343467001HENSON, GERARD FORES                                     0501
A0101407720602458018001MALABANAN, MICHAEL MARTIN                               10503
A0101407720602458018001HUSMILLO                                                20500
A0101407720602527643001IGNACIO, ROBERTO GERARDO MASLOG                          0502
B0101407720602531639001*****************                                        1610
B0101412180000001293049AUTO MAGIC CORPORATION                                   1601
B0101404260611028963001PARC HOUSE II CONDOMINIUM ASSOCIATION                   11602
B0101404260611028963001INC.                                                    21600
A0101404260000001725300*******                                                  0503
A0101404260611485722001RIVERA, MARIE ANTONETTE RICARIO                          0501
A0101404260000001725628BITOON, JOYCE LEE                                        0501
A0101409890649047047001**********                                               0506
B0101409920000000857990QUIZAN, ROMANA C. OR                                    11601
B0101409920000000857990GORRE, RODELYN Q                                        21600
A0101409920650478374028RENDON, RENELYN GABATAN                                  0501
A0101413440000001472873BANARES, EMILIA CHUA                                     0501
A0101414120000000398961EMERSON VALDEZ OR                                       10501
A0101414120000000398961EDWINA INOCENCIO                                        20500
A0101414120000002172527AMELIA DE JESUS OR EDGARDO                              10501
A0101414120000002172527DE JESUS                                                20500
A0101414120000001751388LVQ MERCHANDISING                                        0502
A0101414120000000875601CELSO OR CONSOLACION                                    10501
A0101414120000000875601MARTINEZ                                                20500
A0101406590662684958001GUTIERREZ, EVANGELINE ALCANTARA                          0502
B1301400210682047989001CARLBUILT CONSTRUCTION AND TRADING                       1605
A1301400340000002283894DUNGCA, LOURDES RONIDEL                                  0502
A1701400230693478374031VILMA D. BAGAY                                           0501
B0101408240000000005530PACIFIC EMPIRE GSA (PHILIPPINES) INC.                    1602
A0101408240000000521822MANGLAPUS JR., RAUL LAO                                  0501
A0101408240711046744001NAGTALON, B DBU SINCERAE                                10501
A0101408240711046744001BAKESHOP                                                20500
A0101408240000000521720RICAFRENTE, MA. ANALYN DELFIN                            0503
B2801400100000000004844VMK SUBIC VENTURES INC.                                  1602
B2801400230000000008379LAVADIA, WILSON DBU BACON MARKETING OR                  11601
B2801400230000000008379LAVADIA, ERLINDA                                        21600
A4101400260000001783924GARCIA, GEWYN RAMOS                                      0501
A4101400390000000500541ASIS, ABEL QUIERRA                                       0501
A4101400390000003389560LIGAYA, MARIA LESLEY VILLANUEVA                          0501
A4101400390000001732736CLAVERIA III, DON VIVENCIO G                             0501
B4101400420814497546001**********                                               1601
A4101400420000000710483ESPANOLA, MA. ANGILY CASANDRA                           10502
A4101400420000000710483CARBA                                                   20500
A4101400420000003715702TORRES, CAROLIN                                          0501
A0101412340000000319497PINEDA, IMELDA PEREZ                                     0502
A0101412340000002900283MARIFE B. VIADO                                          0501
A0101404840851217253001GARCIA, JOSE PAU                                         0501
A0101406750000004641890DELA CRUZ, MA LOURDES                                   10502
A0101406750000004641890PAHIMNAYAN                                              20500
A0101406750852338027001JANE G. LACHICA                                          0501
A0101405070861380698001REYES SR., RENATO SISCAR                                 0501
A0101413860000000145133ALEJANDRE, EFREN MATIBAG                                 0501
B0601400490890821100608**********                                               2002
A0601400230000000990052DAYAO, MARIBEL MASIBAC                                   0501
B0601400230891028118001D.M. AUTO SUPPLY                                         1605
B0601400230891046531001RD CASH PADALA, INC. - AREA 03 SAN                       1603
