F0601400360083043789001UET INTERNATIONAL CORP.                                  2602CKR
F0201400180181058930001SASTRE DE CEBU, INC.                                     2601CK1
F3101400320222448311001YABUT, ERNESTO GONZALES                                  2503CKO
F1901400290261038949001DR PAULINO O POLINTAN JR                                 2502CKO
F0101407300000000027789METRO ANTIPOLO HOSPITAL AND                             12603CKR
F0101407300000000027789MEDICAL CENTER                                          22600CKR
F3101400580452032175001NEP LOGISTICS, INC.                                      2605CKR
F0101403290461026170002TRIPLE STAR STAFFING CENTER,INC                          2610CKR
F4101400260812543920001ARTHUR B. ALVIAR                                         2508CKO
