A1301400500000000011274*************                                            0503
A0901400220000000012299GAYON, MARINA TACHADO                                    0502
A2201400250000000016942AMELIA F. MANALO                                         0501
A0101412630000000180458MABAIT, NYMPHA SARMIENTO                                 0501
A1301400500000000213345**********                                               0501
A1301400470000000366450GABRIEL LEONARDO CALLING                                 0502
A2201400250000000433532REBECCA C. ALINGOD                                       0501
A0101402060000000445481SAYAROT, BERNARD LOU ENDAYA                              0501
A0101408530000000489681PITA, RODERICK MONTENEGRO                                0502
A4101400550000000506927ELLEMA, JEMELLE GARCIA                                   0502
A1301400210000000540834******                                                   0501
A0101408790000000579313CLIFFORD A. LEGASPI                                      0503
A1001400480000000606831VALDEHUEZA, KENT VAN OCERO                               0504
A0701400260000000670871**********                                               0501
A0101402930000000859850CRISTELLA MAR VALLES PASCUAL                             0501
A1001400350000000922218FGCC CONSTRUCTION AND SERVICES                           0501
A0501400170000001072833AQUINO, LETECIA CASTANARES                               0501
A0101404130000001173502CANDELARIO, THYNIE ARLHENE BAUT                          0501
A0101404130000001173535OPULENCIA, MARJURIE MAGPANTAY                            0501
A0101404000000001187031LUNA, ANNE CHERISSE SY                                   0501
A6601400120000001370690ARNINIO, ROUMEL CLUTARIO                                 0502
A0101400730000001697287ARBOLADORA, ALFREDO LACOP                                0501
A0101412890000001765540MONJARDIN, DOLORES ORTOJAN                               0501
A0101412890000001765591ORANGE JOY TRADING                                       0502
A0101412890000001765608LMR TRADING                                              0502
A0101400730000001822442BANARES, MA. LUISA CONCEPCION F                          0501
A3101400450000002092899SIMBULAN, DENNIS DE LEON                                 0502
A0301400950000002115151**********                                               0505
A1001400190000002659221RAUL C. LEONEN OR MA. ZENAIDA                            0501
A0101400150061229002001REGINA S. ALCANTARA                                      0501
A0101400150061230098001SALVADOR R. SERRANO                                      0502
A0101400730111412858033CENIZA, SHERALYN                                         0502
A0101401960121238731001**********                                               0504
A0101400440161039572074MARITES S. DIAZ                                          0501
A0101400440161444616001ELMA B. BADILLES                                         0502
A0101400440161520766159CHONA Y. ELUMBRA                                         0502
A0101400440161520766172LUCELLE A. CABUTIN                                       0501
A0101407270162587936002WILFRIDO G. TIRONA                                       0501
A0101401090171199884001CLOTILDE N. ARCANGEL                                     0501
A0101401090171479987001MA.FARRAH ARACELI B.PANGANIBAN                           0502
A3101400450223529066001MORENO, MICHELLE CALALO                                  0503
A0101400570281453706002SHIRLEY CHEONG TEEHANKEE, M.D.                           0502
A1101400120313478374124BADAR, GINA C.                                           0501
A0101402480331391165001*************************                                0501
A0101402510341197651001MERCADO, ROWENA EVALLE                                   0501
A0101402060351331171001MICHAEL SARINGAN                                         0502
A0101402930381205288001GRACE F. FAVILA                                          0501
A0101402930381338441001JOSE MA. B. DELA ROSA JR.                                0502
A0101402930381615796001LOTILLA, CATHERINA MANUELA REME                          0501
A0101402770391034936001LOGPRO EXPRESS, INC.                                     0502
A0101402770391217498022EUGENIO M. CORONADO                                      0501
A5501400120410729506001JOSOL, ARLIEN BACON                                      0501
A0101403030441239062001**********                                               0501
A0101406880513635484001MONTOYA, JENINA MANABAT                                  0501
A0101403450521238046001**********                                               0502
A0101403450521366584001**********                                               0501
A0101403610531219572003BARRON, DR. JAIME ALBERTO                                0502
A0101403610531220148001LUMBANG, RAQUEL VIAJE                                    0501
A0101403610531478374003ARANA, MA. CORAZON B.                                    0501
A0101404130601422572003MOJICA, NERCHILLE DE GUZMAN                              0505
A0101404130601451380002LIMBO, MA. RIZALINA CRUZ                                 0501
A0101404130601451711001CATINGAN, HAZEL A.                                       0501
A0101407720602326333001SATURNINO PEREZ JAVIER                                   0501
A0101407720602397503001DE JESUS, GERARD OSMENA                                  0505
A0101407720602554296001ANGON, JESSICA BANAGALE                                  0503
A1301400210682251077001CECILIA C. MIRANDA                                       0501
A1701400230693478374063CASTILLO, NORALIN TAJA                                   0501
A4101400390813547100001CABABA, JARRETT MALLILLIN                                0502
A4101400420814422280001DELGADO, ELVIRA CARIENENA                                0502
A4101400420814436140001AMIDO, RONILA ANCHETA                                    0501
A0101404840851520766180CARMELITA M. BARBACENA                                   0501
A0101404130000000001230STO DOMINGO, JOHN C. DBU ECSD                           10501
A0101404420000000026097SAJONIA, SHERWIN B. OR                                  10501
A0101410300000000191815CARBALLO, LUIS ANTONIO S. OR                            10502
A0601400360000000225312SUAREZ, GLORIA DE LEON OR                               10503
A0101411950000000490835EMPEROR'S KITCHEN EQUIPMENT                             10502
A0101402930000000580778ROMERO, A DBU ALEJANDRO F.                              10501
A4101400420000000710143GERONDA, RIZALDY DBU HRDG                               10501
A0101401250021536726001AURELIO D. RIVERA JR., OR                               10503
A0101401090171037662001APS EVENT SAFETY AND                                    10502
A0101401090171195871001BONIFACIO T. SIMBUL OR                                  10501
A0101401090171200998001LUCAS OR NADINEE ARCEO                                  10502
A1301400470252533871001ROBERTO M. NUNEZ OR                                     10501
A1301400470252547627001RODERICK V. GALANG OR                                   10503
A0101400570281186530001CARLOS AGUILA OR                                        10502
A0101405650322743994001DOMINGO, ANNE REJOYCE OR                                10502
A1901400160491244619001ALEJANDRO F UY OR                                       10502
A0101403610531219282001ALMENDRALA, FERNANDO GERODIAS                           10505
A0101403610531508580001ARZOLA, MATHEW MERVIN M. OR                             10501
A0101403610531662330001BERROYA, MARK LESTER AMOR  OR                           10502
A0101409920650478374004DADULA, IRENE INES FAVOR                                10502
A0101404130000000001230TRADING                                                 20500
A0101404420000000026097SAJONIA, MARICAR                                        20500
A0101410300000000191815SALAZAR, EMMANUEL  B.                                   20500
A0601400360000000225312PONCE, MARLYN DE                                        20500
A0101411950000000490835FABRICATION                                             20500
A0101402930000000580778ROMERO CONSTRUCTIONS                                    20500
A4101400420000000710143TIRE RECAPPING S                                        20500
A0101401250021536726001CRISTINA E. RIVERA                                      20500
A0101401090171037662001SECURITY SERVICE                                        20500
A0101401090171195871001MARYLOU J. SIMBUL                                       20500
A0101401090171200998001OR ABIGAIL ARCEO                                        20500
A1301400470252533871001MARLENE NUNEZ                                           20500
A1301400470252547627001RAQUEL J. GALANG                                        20500
A0101400570281186530001MERCEDES AGUILA                                         20500
A0101405650322743994001JOSEFINA                                                20500
A1901400160491244619001APOLONIA AGNES B UY                                     20500
A0101403610531219282001OR ALMENDRALA, PAULINA                                  20500
A0101403610531508580001ARZOLA, MARIA LANLET C.                                 20500
A0101403610531662330001BERROYA, CONNIE MORADA                                  20500
A0101409920650478374004MEMBERS OF NATASHA                                      20500
B0101411240000000012073ADVANTAGE-VEGA BUSINESS SERVICES INC.                    1601
B0101406620000000015192AUTOSWEEP POST CORP.                                     1610
B0101406880000000027238TRUE ACCESS DISTRIBUTORS, INC.                           1601
B0101400570000000031723EVEREST MOTORS INC.                                      1602
B0101412180000000038020HYUNDAI ASIA RESOURCES, INC.                             1605
B0101400150000000052720SOUTHKEY DEVELOPMENT CORPORATION                         1601
B0101402930000000057481CENTURY PACIFIC FOOD, INC.                               1605
B0101409050000000258531HENDERSON BLAKE BUSINESS SOLUTIONS,                      1602
B0101402930000000623410R AND C OUTDOOR MEDIA INC.                               1603
B0101400150061009719001WOODSON PROPERTY HOLDINGS                                1601
B0101400150061009769001KEYLAND CORPORATION                                      1605
B0101407140213022985001**********                                               1605
B0101406460272015262001*********                                                1602
B0101406620273460196001CA NEWFOUNDLAND SOLUTIONS, INC.                          1602
B0101402930381008829002AXEIA DEVELOPMENT CORP.                                  1615
B0101402930381008843001BASIC HOUSING SOLUTIONS, INC.                            1605
B0101402930381022284001INVESTORS ASSURANCE CORPORATION                          1601
B1201400150421030173001CHRIST EPISCOPAL CHURCH                                  1603
B0101403030441327386001**********                                               1603
B0101403320471015404001COVENANT CHILDREN ACADEMY INC.                           1606
B0101407430503034519001D.G.X. PHILS., INC.                                      1602
B0101406880513005366001SDS EXPRESS INTERNATIONAL INC.                           1601
B0101404130601017612001VJON CONSTRUCTION                                        1606
B1301400500684046266001NORTHGATE PROPERTY VENTURES, INC.                        1601
B4101400390813036443001JINHOEMB CORPORATION                                     1602
B0101404840851490100001ACTIVE-CONCISE TECH. INC.                                1601
B0101402060351009401001PHIL. IRON CONSTRUCTION & MARINE WORKS,                 11603
B1201400150421324279001AOYONG, NENITA OR ANTONIO                               11605
B0101405940512025675001THE MARKETING EXECUTIVES OF THE PHARMACE                11602
B0101402060351009401001INC.                                                    21600
B1201400150421324279001OR DOMINIC                                              21600
B0101405940512025675001(MEPI)                                                  21600
