B0101400150061821100608**********                                               2010
B0101405490392821100608**********                                               2002
A0101410690000005383451GARCIA, MARINEL CARLOS                                   0502
A0101410690000001284322CO, MARIANO L DBU ASAP COMPUTER                         10503
A0101410690000001284322SYSTEM                                                  20500
A0101410690000000061856LAMUSAO, ARNOLD ADDUN                                    0502
A0101405650000002325617SERRANO, IMMANUEL CARLO RIMORIN                          0501
A3001400130000008264802AREZO, JOVIE L.                                          0502
A0101410690600085096001YEE, SONNY L. OR YEE, KARRIE                            10504
A0101410690600085096001ANNE CANDACE M.                                         20500
B0601400100081045128001BRETTO'S INTERNATIONAL FOOD CORP.                        1610
A0101410720653046803001BCLOA BUSINESS DATA RESEARCH                            10502
A0101410720653046803001SERVICES                                                20500
B3001400130000013667484CAMBAYA, SAMMY MATURAN DBU OCEAN BO                      1601
A3001400130000009103600ESCRIBIR, SANDRECS L DBU ABOVE                          10502
A3001400130000009103600& BEYOND TRAVEL                                         20500
A1001400350000000922361SEVILLA, JAN CARLO SALVADOR OR                          10501
A1001400350000000922361SEVILLA, CARLOS                                         20500
A1001400350000014511930MARIE FE'S PASALUBONG                                    0501
A1001400350233770191001PATRIANA, LINDY CASTILLO                                 0501
A6601400120000010637493ADONGAY, MARIFE MACALDE                                  0501
A0101409050000016761143PRISS ANN DE GUZMAN AGPAWA                               0501
A0101409050000011559034LAUREL, CHARITY MAY SEROTE                               0501
A0101402930381658198001MORENO, ABEGAIL VASQUEZ                                  0501
A0101403610531393288002CHING, IRENE AVERIA OR CHING,NG                         10502
A0101403610531393288002OR CHING, JOWELL                                        20500
A0101403610531548246001IGONIA JR., SERGIO ORIONDO                               0501
B0101407720000011874823MEDI LINX LABORATORY INC.                                1602
A0101413570000008694391CONSOLACION, MARY ANN                                    0501
A0101413570000007373875GOZON, MA. ANNABELLE OLINARES                            0503
A1701400230000001108387MONTERDE, ARNEL MORA                                     0501
A0101400860011423569001**********                                               0501
A0101401250001120001198UY, ALAINEDWARD ONG                                      0501
A0101401250920010000152VILLANUEVA, MELITA DIZON                                 0501
B0101401250021040371001ENHANCE CARGO MOVERS CORP.                               1606
A0101411370000002269343**********                                               0501
A0101411370000015710615RAMIREZ, JUSTIN M. DBU MR. YJK                           0501
A0101411370022774052001MARISSA M. RAMIREZ OR                                   10501
A0101411370022774052001LEONARD M. RAMIR                                        20500
A01014113700000009036110AMIREZ, MARISSA MARTINEZ                                0502
A0101400150061038536104PEDRITO CADUNGOG                                         0501
A0101400600000005943079*******                                                  0503
A0601400100000011854001QUENANO, ELENO VENTINILLA                                0502
A0601400100000013256747VINUYA, ALVIN MIRANDA                                    0502
B0601400100000000786790ANGELES FORTUNE HONGKONG SEAFOOD REST                    1610
B0601400100081042835001FORTUNE HONGKONG SEAFOOD RESTAURANT                     11610
B0601400100081042835001(NEWSTREET)                                             21600
A0601400360000002282282DIMALANTA, ANNA CATALINA ANIAG                          10501
A0601400360000002282282OR DIMALANTA, GENARO LEVI                               20500
B0601400360000008477341PINGOL, MAILYN ROSETE                                    1601
A0601400360000013099522DAR, GLEN II ELIAS                                       0501
B0601400520000016098385TULIO, JOHN CENON DIZON DBU DIN EIGHTY                  11605
B0601400520000016098385EIGHT MARKETING                                         21600
A0601400520000001349662TIMBOL ROMAN MANALOTO                                   10501
A0601400520000001349662ACCTNG & TAX CON                                        20500
B0601400520000005943746DECORA ART CONSTRUCTION AND TRADING                     11601
B0601400520000005943746CORP.                                                   21600
A0101413280000012146371DE VERA, TRINA JOSE                                      0502
B0101414090000007344676JSL SECURITY AGENCY, INC.                                1602
A0101410560000010318333ARIANE JOY M UBANE                                       0502
B0101412630000002186570JEC REALTY CORPORATION                                   1602
A0101401830141653090001JOSELITO ALBERTO S. CASTRO OR                           10503
A0101401830141653090001KATRINA INEZ J.                                         20500
A0101400440000007904881FRANCISCO, EMILY PALARCA                                 0501
B0101400440000009450277COMMANDER K9 SERVICES, INC.                              1605
B0101400440161007221001ILA EXPRESS HAULER                                       1602
A0101400440000000821538MARITES T. JIMENEZ                                       0501
A0101400440161591337001JENESSEY A. RANCES OR                                   10502
A0101400440161591337001JESSIE O. RANCES                                        20500
A0101400440000009591780GARCIA, JASON JAMIN                                      0501
A0101407270000011651693SIMEON, WILMA JOYCE BRADY                                0501
A0101407270000016971810MANALO, RODERICK RAVANZO                                 0501
B0101407270162019035001FOOD FEST, INCORPORATED                                  1602
B0101407270000007747104GAMAELITE CORPORATION                                    1603
A0101401090000015531423OCAMPO, EDITHA B.                                        0501
A0101401090171196080003GIL Y. GAMILLA OR                                       10510
A0101401090171196080003CARLOS M. ALMEDA                                        20500
A0101401090171353988001CITADEL C. DE CASTRO                                     0502
B0301400660000003368490ARBICON, INC.                                            1605
A0301400790000005692117CUSILIT, AUDE CORTEZ OR                                 10502
A0301400790000005692117CUSILIT, ELAINE                                         20500
A0301400790000012273886PAMAONG, DENNIS ALOMARDE                                 0502
A0301400790000003969542******                                                   0501
A0101401380000010190320TURINGAN, EVELYN TONOG                                   0501
A0101401380000001820002********                                                 0504
B0101410720653022858002FOODKING CUISINE & SERVICES INC                          1601
A0101413600000005228002CATHY A. FRIAS                                           0501
A3101400160000000006500ANNIEFER P MERCADO                                       0501
A3101400450000003072506COSICO, DAVID ARNOLD GESMUNDO                            0502
A3101400450000016879811GALICIA, ENRICO BATARLO                                  0501
A3101400740000017000285GARIN, JACQUILOU ABRERA                                  0501
B3001400130000006004706RUELAN, NEIL DBU RUELAN ENTERPRISES                      1603
B1001400190231039064001*****                                                    1604
A1001400190231520766020LUBIDO, CAROLINE JARALES                                 0501
A1001400350233559184001KHO, PACITA T. OR CORDERO,                              10501
A1001400350233559184001KORINA K.                                               20500
B1001400350233611366001XXXXXXXX                                                 1604
A1001400480000011810125VALENCIA, GRACE BELISARIO DBU O                          0502
B1001400480000016955741CASTILLON, FIEL MONTECILLO DBU M AN                      1601
A1301400470000011839760PAULINA C. PASCUAL AND                                  10501
A1301400470000011839760RODRIGO F. GAOAT                                        20500
A1301400470252533437001**********                                               0501
A1301400470000013690194ELERIZZA L. METEORO                                      0502
A1301400760000016080681YVETTE YAYA DAVID                                        0502
A1901400290261250069001DRA. JABES BUCE CARRASCOSO                               0505
A1901400290261493025039MARELLA S. DE CASTRO                                     0501
A0101406460272388652001CHUA, ANGEL TAN                                          0501
A0101406620000006317860DELGADO, JUDY GRACE TIONGCO                              0502
A0101406620000014144311GOMEZ, NORBELYN PLENO                                    0501
A0101406620000013961823YUSAY, PAULINE ANNE AGBISIT                              0501
B0101406620273035997002SILVERSTAR HOMEBUILDERS INC.                             1601
B0101406620273035997004SILVERSTAR HOMEBUILDERS INC.                             1601
B0101406620273037461002FIRENZE CORPORATION                                      1601
B0101406620000000193942SOURCEFIT PHILIPPINES INC.                               1603
A0101406620273301500005MENDIOLA, GABRIEL JOSE E.                                0501
A0101406620273393333001FLORES JR., RICARDO RAMOS                               10501
A0101406620273393333001OR FLORES, ZARA ZAPANTA                                 20500
B0101411110276086971088STRADCOM CORPORATION                                     1605
A0501400200000011150302EGAR, DIWATA RAMIZARES                                   0501
B0501400200000006444824C SQUARED PRIME COMMODITIES CORPORATION                  1602
B2601400270000006014802CHIN CHIN PUA DBU SUPERSTAR FIVE GRAINS                 11605
B2601400270000006014802CTR OR JENNY LAI                                        21600
B0801400160311065867001ELM INDUSTRIAL SASLES                                    1602
A1101400120000000652620GO, COCAINE YOUNG OR GO, NICHOL                         10503
A1101400120000000652620AS JASON FUENTES                                        20500
A1101400120000001547520TAN, MELVIN NATHANIEL ANDRADE A                         10505
A1101400120000001547520ND TAN, MARY CLAIRE MACIO                               20500
A6601400120000011286361MARTIRES, MERVYN DE ASIS DBU MB                          0502
A6601400120314631490001CUSTORIO, PETER ALPHONSUS                               10502
A6601400120314631490001OR SELENA MARIE                                         20500
B2001400290000007832553NO. 1 SUPPLIER INC.                                      1602
A2001400290000000924492LABRADOR, FELICIANO JR. DESUSA                           0501
A2001400290315685595001TAGLE, FE MARIE DICEN                                    0502
A3401400280000005525366SALVADOR, RAFAEL TOBIAS                                  0502
B0201400760374457845001PROPRIEDAD DEL NORTE, INC.                               1602
A0101402930000010388833**********                                               0502
A0101408370382431146001DR. ETHEL L. MENDOZA                                     0501
A0101408370382437913002LAZARO, CATHERINE MERCADO                                0501
A0101408790000007026508MA. CARMELA F. ARIOLA                                    0501
A0101402770000006642793SUESS, FLORENCIA GERODIAS                               10502
A0101402770000006642793DBU FGS ENTERPRISES JT                                  20500
B0101405490392029745003MESINA BROTHERS INC.                                     1601
B0101405490000003905162CORDELION INC.                                           1601
A0101408950000007571482*************                                            0501
B0101409210000008642308TERROIR PHILIPPINES, INC.                                1605
A0101412210000012652590SY, RYAN CHRISTOPHER CHUA                                0501
A0101412210000016640841MOLINA, KATHERINE SIETEREALES                            0501
A0101412210000000031392EMMANUEL L. SAMSON                                       0503
B0301400820000005196750POWER ASSET SERVICES CREDIT CORP.                        1603
B0301400820409091735055LIMA, WINDELL BRISTOL DBU DAVAO HOME                    11601
B0301400820409091735055BUILDERS CENTER                                         21600
B5501400120000012653491VALEENLAND REALTY CORPORATION DBU R                      1602
A1201400150000016104071JALLORINA, NORA NALIBHAN                                 0501
A0101412890000014437482FRANCISCO, CRISTINA LETADA                               0502
B0101410140000007303660BISHOP OF LIGHTHOUSE BIBLE BAPTIST                      11602
B0101410140000007303660CHURCH                                                  21600
A0501400170481252349002LALAS, MAEVA DELA CRUZ                                   0502
A1401400110000008266137ORTE, ARMIDA RANIAG                                      0502
B1401400110492365609001JEORGE S MALIGAT - PILIPINO HARDWARE AND                11601
B1401400110492365609001CONST. SUPPLY                                           21600
A0101407430503380888001HARRY U. LIMTONG                                         0501
A0101405940000002268788TESORO, KRISTINE PAULINA PONCE                           0503
B0101405940000003571726CPG FLAT GLASS, INC.                                     1605
B0101408530516505337002********                                                 1604
A0101408530516548003001*************                                            0504
A0101411400000013085848YU, NOEMIE MON                                           0501
B0101403450521011744001CBK CONSTRUCTORA, INC.                                   1602
A0101403450521238060001*********                                                0502
B0101403450521240119001**********                                               1601
B0101407720000006028166MEDGATE PHILIPPINES, INC.                                1602
B0101407720000006945293MEDGATE (PHILIPPINES) HOLDINGS PTY                      11601
B0101407720000006945293LIMITED                                                 21600
A0101407720602283353001ERWIN HERNANDEZ OR                                      10501
A0101407720602283353001AGNES HERNANDEZ                                         20500
A0101407720602374401001DE GRANO, JOANNE DAVAC                                   0502
A0101407720000004561739ERNESTO OLYMPIA OR                                      10502
A0101407720000004561739CARLO CORNEJO                                           20500
B0101412180000014550108MICROGENESIS SOFTWARE, INC. DOING B                      1604
A0101413440655054477001LAND FIRST REALTY                                        0502
B0101413570656821100608**********                                               2001
A0101413990000000206066MARKVENT ENTERPRISES                                     0502
A0101414120000012536300******                                                   0502
B1301400210000000023463SAN PABLO MULTI-PURPOSE COOPERATIVE                      1603
A1301400340683478374025REYES, SHIELLA                                           0501
A1301400340683776169001BARAQUIEL, JOCELYN LIM                                   0502
A1301400500000012913285**********                                               0501
A0101408240711180164001TUPAZ, CORAZON RONQUILLO                                 0501
A0101408240000000039683MIRCHANDANI, SHERYL OR LALA                             10501
A0101408240000000039683OR MICHAEL                                              20500
B41014004200000073054008TH AVENUE FASHION HAUS, INC.                            1601
A4101400420814520766033DELA CRUZ, MARILOU M.                                    0501
A4101400550000000900350SANTOSIDAD AUTO SUPPLY                                   0504
A0101412340000004360456MINERVA C. BONSOL                                        0501
A0101412340000007305564ELNA O. GALAROZA                                         0501
A0101405070861478374004WINIEFRENDA O. PILANDE                                   0505
A0101405070861478374020SOL G. CONFLOR                                           0504
A0601400230000002310230YUTUC, CATHERINE PANGAN                                  0502
A0601400230000003015801DABU, CRISTINA CALAGUAS OR                              10501
A0601400230000003015801DABU, CHRISTOPHE                                        20500
