B0101410690600045550001BEST ELECTRICAL COMPONENTS (BEC), INC.                   1606
A4101400390000000034062DEL ROSARIO, N DBU CAMZI ENTERP                          0503
B0101400150061011113001PLUS PROPERTIES, INC.                                    1601
A0101400440161039572010MYRNA A. CANELAS                                         0501
A0101400440161478374010VIVIAN T. REGALARIO                                      0502
A0101400440161525001112JELLIE ANN D. LOMAHAN                                    0501
A0101400440161525001139JEMARIE S. SALUDAR                                       0502
A0101400440161591337001JENESSEY A. RANCES OR                                   10502
A0101400440161591337001JESSIE O. RANCES                                        20500
A0301400530000000066011CABRERA, EDUARDO ABERILLA                                0505
A0301400950000005516941GAMIL, MICHAEL JAMES OR                                 10501
A0301400950000005516941GAMIL, CHERRY MAY                                       20500
A0101412890000001056360AMIDO, NORMA GUEVARA                                     0501
A0101405940512478374010COMPANERO, MARILYN ESMABE                                0502
B0101400860011023114001**********                                               1606
B0101400860011023114002**********                                               1604
A0101400860011389612002**********                                               0504
A0101400860011413316001**********                                               0505
A0101400860011453178001**********                                               0502
A0101400860011512418001**********                                               0502
A0101400860011634071001**********                                               0505
A0101401250000004374710**********                                               0502
A0101401250021178953002TENSUAN, ERNESTO OR NECITAS OR                          10510
A0101401250021178953002EMMANUEL                                                20500
A0101400150000002394870RUEDAS JR., ARMANDO CARPO OR                            10501
A0101400150000002394870RUEDAS, EVANGELINE ENRILE                               20500
B0101400150061010613001SECURITY BANK EMPLOYEES UNION                            1601
B0101400150061033314001PACIFIC METALS CO., LTD.                                 1605
B0101400150000004703439IDEAMORPHOSIS INCORPORATED                               1603
A0101400150061337099130*****                                                    0501
A0101400150000004090497MONTINOLA, JOSE MA. HORACIO GO                           0501
A0101400150000000807049***********                                              0501
A0101405810072234892001**********                                               0501
A0601400100000007250600SARITA, V DBU JT VCREATIVE                              10505
A0601400100000007250600PRINTING                                                20500
B0601400360000000025761JADE GAMING AND AMUSEMENT TEC-CLARK                      1601
A0101410850000003504003**********                                               0502
B0101410850000001229794TRANSLOGISTICA INTERNATIONAL                            11605
B0101410850000001229794FREIGHT INC.                                            21600
A0101410850000006560034SEMANA, JUDE                                            10502
A0101410850000006560034DBU SEMANA TRUCKING                                     20500
B0101413150000000082773**********                                               1601
A0101413150000001688617******                                                   0505
A0101401830141546547001REATAZA, NELIA MORABE                                    0503
A0101412920000002358990ANDEN, MAY EVANGELINE REGASPI                            0501
B0101412920000000276711KALAKAL FOOD CONCEPT INC.                                1601
A0101400440000007121757SHIRLEY CARULLO                                          0502
A0101400440161623684001EDITHA H. VALENCIA                                       0501
B0101407270162044207001ELIXER MULTI-PURPOSE COOPERATIVE                         1610
A0101401090171196045001RAMON JAVIER &/OR STEPHANIE                             10508
A0101401090171196045001JAVIER                                                  20500
B0301400660000000048224*****                                                    1610
A0301400660000003362007PAMAT, JULIETO CANETE                                    0501
B0301400790195061879003FRANKLIN BAKER, INCORPORATED                             1602
A0101401380201171279001TSAI, ROBERT                                             0501
A0101401380201425266001SANTOS, PATRICIA ORTIZ                                   0502
A0101410720653046803001BCLOA BUSINESS DATA RESEARCH                            10502
A0101410720653046803001SERVICES                                                20500
A0101410720653694384001SAMBRANO II, SANTIAGO GARCIA                             0501
B3101400160221017124001PANASONIC PRECISION DEVICES PHILIPPINES                 11601
B3101400160221017124001CORPORATION                                             21600
A3001400130230767566033SANCHEZ, AFZELIA THERESA BUSA                            0501
B1001400190231032463001PROGRESS BICYCLE CORPORATION                             1603
A1001400190000002170612BAJUYO, MARJORI B                                        0501
A1001400480000003357793RICARDO, ESTHER LARANJO                                  0502
A1001400480000005356010SEVALLOS-PESQUERA, AILYN TECSON                          0501
A1301400470252478374030JERICA P. MATAMMU                                        0503
A1301400760000000007296CATHERINE F. SANVICENTE OR                              10501
A1301400760000000007296SANDY M. FERRER                                         20500
A1901400290000003252731REBECCA VELASQUEZ ARIOLA                                 0502
A1901400290000003252844PEDRO ELLAZAR RAMOS JR                                  10501
A1901400290000003252844OR LEAH GRACE LINAS RAMOS                               20500
A1901400290000000030800JMARK MICROCREDIT CORPORATION                            0505
A1901400290261244348001ROLANDO M REYES OR                                      10502
A1901400290261244348001DRA. ERLINDA V REYES                                    20500
A1901400290261244442005JOSE ADRIANO, JUAN MIGUEL,                              10503
A1901400290261244442005ZENAIDA P CUENCA                                        20500
A1901400290261538304001OFELIA HIPOLITO LANDICHO                                 0501
A0101401670271186217002ERNESTO L. PILARES OR                                   10502
A0101401670271186217002ALICIA L. PILARES                                       20500
A0101406460272289071002********                                                 0501
B0101406460272821200608**********                                               2002
A0101406620000005394841RONSAIRO, RAZZLE BORBON                                  0501
A0101406620273306796004FE FORTUNATA R. RIO                                      0501
A0101411820000006504689MARICAR GAMBOA                                           0501
A0101400570281200404001SAMUEL Y. LIM OR BETTY D. LIM                            0502
A0101400570281293586001*****                                                    0502
A0101400570281441951001DR. RENE REYES                                           0503
A0101411240000007844946CONCHITA S RAMOS                                         0501
A2601400270000000019565ARSENIO I. SUGUE JR.                                     0502
A2601400270000000561551RODERICK E. MADRIDEO OR                                 10501
A2601400270000000561551JUANITA S. MADRIDEO                                     20500
A1101400120000001547337ALDIANO, FLORDELUNA LATO                                 0503
A1101400120000001920678PALMA, JHOWIEN ROYO                                      0501
A6601400120000003642846FLORESCA, MANOLITO ESTERNON DBU                         10501
A6601400120000003642846RMF SARI SARI STORE                                     20500
B6601400120000004440759ILANAN, JERONEL DBU JONDIL HARDWARE &                   11602
B6601400120000004440759ELECTRICAL SUPPL                                        21600
A0101402510000008859470JARENCIO, WILFREDO GAMOS                                 0501
A0101402510341196483001OLIVIA MENDOZA LIMUACO                                   0502
A0101402510341196518003OBOZA, JOSEFINA SUMIRAN                                  0501
A0101402510341199632002ANA LIZA R. DELA CRUZ OR                                10503
A0101402510341199632002ANTONIO T. DELA                                         20500
A0101409050000006987731MICHAEL ANGELES                                          0501
B0201400760000006433401CHUA, JOSEPH DBU COMPOSTELA ICE PLANT                    1601
A0201400890376039667001PROTECH WATER SYSTEMS                                    0505
A0101402930381387448001DRA. MA. PAZ PAULA M. RAMA                               0501
A0101411660000002881150JOSE C PEPITO JR DBU JCAP                               10502
A0101411660000002881150SIMPLIFIED BUILD                                        20500
A0101408400394401872001******                                                   0502
A0101408400394478374075VIOLETA I MANUEL                                         0501
B0101408400394508074003WEE, LEE HIONG TAN                                       1601
A0101408950000001039412DRILON, CECILIA VICTORIA ORENA                           0502
A0101408950396084409001ALETA, LARA THERESA ALENTAJAN                            0502
A0101408950396431312001TANSENGCO, MARIA LORA GARCIA                             0501
A0301400820000007372809CAI, LILI                                                0502
A0901400220000001805090**********                                               0502
A0101403030000008863561**********                                               0501
A0101403030441239449002**********                                               0501
A0101403030441397813002**********                                               0501
A0101412890000000543042ARRIER0, MARIA CRISTINA LAUDE                            0501
A0101406330472428084001DARWIN JEBB YLO OR MARILEN YLO                           0502
A0101406330000000683363EDUARDO LEGARIO                                          0501
A0101406330472536028001ARLES MIRANDILLA OR KRISTINE                            10501
A0101406330472536028001MIRANDILLA                                              20500
A3801400170000000955095GREG H. REVANO                                           0502
B1401400110492365609001JEORGE S MALIGAT - PILIPINO HARDWARE AND                11601
B1401400110492365609001CONST. SUPPLY                                           21600
A1401400110492777638001DY, EDNA AYCARDO                                         0506
B1601400170000000036160LEGAZPI FOUR SEASONS                                    11603
B1601400170000000036160RESTAURANT, INC.                                        21600
A0101405940512327292001SILVERIO JR., EDMUNDO E.                                 0503
A0101405940512366890003CASTILLO, RAFAEL RICAFRANCA                              0501
A0101406880513573272001******                                                   0503
A0101408110000005169393VIRTUDAZO JR., SIMPLICIO MANIGO                          0502
B0101408530516036896001UNITED GRAPHIC EXPRESSION CORPORATION                    1606
A0101408530000005029083DANIELLE JUDE M. LUBAO                                   0502
B0101403450521012009001SYMPHONY TECHNOLOGIES, INC.                              1603
A0101403610000007125000PILI, GISELLA ALVAREZ                                    0502
A0101403610531064267001HEPOS, E DBU LCJ MOTORCYCLE                             10501
A0101403610531064267001SHOP AND PARTS                                          20500
B0101404000551005021001LPL PLAZA CONDOMINIUM                                    1603
B0101404000551033697001CREDIT CARD ASSOCIATION OF THE                          11602
B0101404000551033697001PHILIPPINES                                             21600
B0101404130601046104001BOOMERANG CORPORATE OUTSOURCING                         11602
B0101404130601046104001SOLUTIONS, INC.                                         21600
B0101407720602016459001NOVA BUSINESS SYSTEMS, INC.                              1601
A0101407720602398542002DR. ROBERT DENNIS J. GARCIA                              0502
A0101407720602401936001CORDOVA, MA. CECILIA HITOSIS                             0502
B0101404260611020600001MAKATI SAVINGS COOPERATIVE                               1610
B0101404260000000157015INTERPRO FOOD SPECIALIST INC.                            1610
B0101409920650047984001INNOTREND BUILDERS                                       1601
A0101409920000000523562MEMBERS OF NATASHA (SHOECAT INC                         10501
A0101409920000000523562PALERO, NENITA                                          20500
A0101407690000000154750BARANGAN, ROMEO DBU                                     10505
A0101407690000000154750BARANGAN TRADING                                        20500
A0101407690000000913600MARQUI AUTO SUPPLY                                       0502
A0101407690000003207274REYES, AL JUDE CLEMENTE                                  0502
A0101407690000002348843PABLITO G. BENEDICTO JR. OR                             10503
A0101407690000002348843JULIE V. BENEDICTO                                      20500
A0101410300000000026473REYES, ROUEL MARVIN A.                                   0502
B1301400210000000023543SAN PABLO LIAM FOODS CORPORATION                         1603
B0101408240000000832804WOWA'S FAST FOODS INC.                                   1601
A0101408240711374194001ELBA S. CRUZ                                             0503
A0101408240711396778001MA. FRANCESCA ROMANA OR                                 10501
A0101408240711396778001PHILIPPE SEYER                                          20500
A4101400420814478374164LENITA PARRILLA BALISA                                   0501
A0101412340000000044799ANDRADE, MARIA LOURDES GONZALES                          0504
A0101404840851046725009MONINA G SAN JUAN                                        0501
A0101404840000004565953RODULFO, CLARIVEL M.                                     0501
B0101404840851064151001ANAHAW PRIME RESOURCES PHIL. INC.                        1601
B0101404840851064155001BATULAO PROPERTY MANAGEMENT AND DEV                      1601
A0101404840851298552055SIXTA MELBA C. ENGBINO                                   0502
A0101404840851520766073ELIZABETH A. SUAZO                                       0501
A0101406750852522681001CORONEL, ELENA V. OR                                    10501
A0101406750852522681001CORONEL, CARLIN                                         20500
A0601400230891326099001MACASPAC, MARIANNE A. OR                                10501
A0601400230891326099001MACASPAC, ARLEN                                         20500
A0601400230000002310092PARAFINA, LORENZA ALIPIO                                 0501
