B0101404130601821100608**********                                               2020
A0101410850000000005789AUSTRIA, MA. DOLORES RODRIGUEZ                           0501
A0101410850109055102001MANGUNAY, ROLANDO JT DBU R.P.M.                         10505
A0101410850109055102001ENTERPRISES                                             20500
A0101410850000006560034SEMANA, JUDE                                            10502
A0101410850000006560034DBU SEMANA TRUCKING                                     20500
A0101402350000003880433DUMAYAG, ANGELO BACANI OR                               10505
A0101402350000003880433TAN JR., PATERNO                                        20500
A0101402350321179318001GIL M. TALAMPAS                                          0505
B5501400120410040779001NOTRE DAME OF NORALA, INC                                1605
A0101400860000003571680*************                                            0501
A0101400860011374955002**********                                               0501
A0101400860011636581001**********                                               0501
A0101400860011688925001**********                                               0501
A0101401250000000907277PATINIO, CHERRY ROJALES                                  0501
A0101401250000000907299CRUZ, JOSEFINA BARIAS                                    0501
B01014012500210069780034267 PASAY KNIGHTS FOUNDATION INC.                       1602
A0101411370000005524421BATUIGAS, AURORA REBOQUIO                                0501
A0101400150000000807636TESALONA, MARIA CLAUDETTE CRUZ                           0501
A0101400150000003164758MARIA BIANCA C. JAVIER                                   0501
A0101400150000007280339LAYUG, EMMANUEL-LYN DIETA                                0501
B0101400150061047239001REAL HEALTH MARKETING & TRAINING CO                      1601
B0101400150061047773001SAN JULIO REALTY, INC.                                   1601
B0101400150000000633345THE CHURNER GROUP INC.                                   1601
B0101400150000001708414AC ENERGY DEVCO INC.                                     1605
A0101400150061291843003RAFAEL MARTIN LARA                                       0501
A0101400150061392447001PENA, SHARON MELANIE                                    10501
A0101400150061392447001OR PENA, PERCIVAL                                       20500
A0101400150061746999001ELEANOR G. COLIANGCO OR RICO                            10505
A0101400150061746999001MA. ANTONIO GONZALEZ                                    20500
B0101400600071234158001**********                                               1605
A0101405810000013190802KHO, ALLAN JAMES TOMELDAN                                0501
A0601400100000014153061MALANG, SARAH MAE DIZON                                  0501
A0101400730111520766046MARIVIC GATDULA                                          0501
A0101413310000005433205DAMPIL, RONALD MENDOZA                                   0502
A0101412920000003465070TALEON-PARAZO, ANGELENE TAMAYO                           0501
B0101400440000005393842GOLDEN SQUARE TURNKEY SOLUTIONS, IN                      1602
A0101407270000011873284EQUIPAJE, ARON GINO ISIP                                 0505
A0101407270162333154004ROSARIO C. AGUSTINES                                     0505
A0101401090171448110001JOYCE G. LLANA                                           0501
A0101401090171491755001OLIVIA C. GO                                             0502
A0301400530000000025323GUMAPAC, CHERRYLOU S. OR                                10502
A0301400530000000025323GUMAPAC, NECITO                                         20500
A0301400530193584721168YANG, CHAOWEI                                            0505
B0301400660000012086623DVO ALUMINA INDUSTRIES, INC.                             1601
B0301400660000003368427GARDENSTATE ENTERPRISES, INC.                            1605
B0301400660000003368490ARBICON, INC.                                            1605
A0301400950000005707371NACION, JEEBEE BONGCAWEL                                 0502
A0301400950000002115300ILA ENTERPRISES                                          0502
A0101401380201182816002MAYORES, ENERIO A.                                       0503
A0101401380201628222001CALAGUAS, AILEEN CABUSO                                  0501
A3101400160221419880001ROWENA B. SUN                                            0502
A3101400160221478374027ERNESTINA S. VILLANUEVA                                  0501
A3101400160221478374058MARIBEL S SIBOR                                          0501
A3101400450000013739563BANAAG JR., ALEJANDRO REYES                              0501
A3101400450223352819001FARAON, RIZALINA OR                                     10502
A3101400450223352819001BELEN, RHODORA                                          20500
A3101400450000013739574BANAAG, RACHEL AGLUGUB                                   0501
A3101400450223418716001GARCIA, JESUSA CORAZON PLAZA                             0502
A3101400450000013739596BANAAG, CRISCHELLE AGLUGUB                               0501
A3101400870000014148364SAGADRACA, JORGE DAMIAS                                  0501
A3101400870000014159021QUIAMBAO, LILIBETH PERRERA                               0501
A3101400870000014162471CORBES, PLACIDA STO DOMINGO                              0501
A3001400130000008264700CATAPANG, ROGELIO DUYA                                   0501
A3001400130000010506606BESMANOS, CORNELIA BALAGA DBU M                         10502
A3001400130000010506606HIE-MHIE PHARMACY                                       20500
A3001400130230094974001BRAVO, ROSEPT EBARLE OR BRAVO,                          10504
A3001400130230094974001ALEXA ROSE EBARL                                        20500
A3001400130000009103662SERRANO, GENELIN                                         0501
A3001400130230757981001SACAY, RENE CANTOR OR SACAY,                            10502
A3001400130230757981001JOSEPHINE SIMBIT                                        20500
A1001400190231520766028AMPOYO, RONIE QUILAB                                     0501
A1001400190231520766128MAGLANGIT, JONIE QUIACAO                                 0501
B1001400350233039883018CENMIN FOOD CHAIN CORPORATION -                         11605
B1001400350233039883018JOLLIBEE XAVIER                                         21600
B1001400350233039884008SOUTHMIN FOOD CHAIN CORPORATION -                       11605
B1001400350233039884008JB SUPERCENTER                                          21600
A1301400470252482273001DRA. LEONOR J. DIZON                                     0501
A1901400290261067040002MITAL, PRIMO OCAVA DBU MAESTRO                          10502
A1901400290261067040002SYSTEMAS TECHNOLOGIES                                   20500
A1901400290261246142002EFREN REYES OR LUTGARDA REYES                           10502
A1901400290261246142002OR SAMUEL KIM RE                                        20500
A0101401670271491442001MARICHELLE TORRES                                        0503
B0101406620000009695414*****                                                    1602
A0101406620273281364001BANTIGUE, WILLIAM ANISCO                                 0503
A0101410980000002303800SY, BRYLLE JANSTED YUCHONGTIAN                           0503
A0101411820000002328612RIOJA, DAISY GO                                          0501
A0101411820000001356792LENNIE C. GUEVARRA                                       0501
B0101400570281027711001TRINITY UNIVERSITY OF ASIA, INC.                         1602
A0501400200292735444001OYAMAN, GENEVIVE ABANDO                                  0504
B0801400160000005656960F & E ENTERPRISES, INCORPORATED                          1605
A6601400120000000060711SIXTO C ESPINA III DBU LFCE                             10501
A6601400120000000060711PETRON JT                                               20500
A6601400120000005710327LIM, LERWIN GALIAS                                       0502
A6601400120000002978121NOGAL, GEMMA ONG                                         0502
A66014001203140421880015G GALVEZ CONSTRUCTION                                  10502
A6601400120314042188001AND SUPPLY                                              20500
A2001400290315636172001KHO, EVAN HO                                             0502
A3401400280000002323451PETE'S STOP TIRE                                        10502
A3401400280000002323451AND CAR CARE CENTER                                     20500
B0101402350321041623001ICLA CHRISTIAN ACADEMY INC.                              1603
A0101402350321179411001LARRY RAMOS OR                                          10501
A0101402350321179411001HERMINIA RAMOS                                          20500
A0101405650000006893458ZIOUTOS, ALEXIOS SANTUA                                  0502
A0101405650000008025330ROBENTA, RODERICK ACLADO                                 0501
B0101405650322016488003CALOOCAN BEARING AND PARTS CORP.                         1610
A0101405650322170744002DELA PENA, DINA REYES OR                                10501
A0101405650322170744002DELA PENA,LAUREN                                        20500
A0101405650322210293002VILLANUEVA, TERESITA ESPINOSA                            0501
A0101405650322554948001BOLANOS, MARITES ALELIGAY                                0501
A0101405650322561302001BALUYOT, ALLAN JAY R. OR                                10501
A0101405650322561302001DIAZ, MARMIE JOY                                        20500
A0101402510000011695186HAN, GUE SUNG                                            0505
B0101402510341069202001PUCHERO, M DBU NBON ENTERPRISE                           1602
A0101402510341420133001BONGCAWIL, GHADA ZACARIAS                                0503
B0201400760000011325630IRESPONSE BUSINESS SOLUTIONS INC.                        1601
B0201400760000007134756DE LOS SANTOS,ROGELIO DBU HOUSING SUPPLY                11602
B0201400760000007134756OR JANE DE LOS S                                        21600
B0201400760374249471002COMMONWEALTH INSURANCE COMPANY                          11603
B0201400760374249471002-OPERATING FUND                                         21600
A0201400890000006717053DACAY, RAMON UY OR DACAY,                               10501
A0201400890000006717053THELMA DY PICO                                          20500
A0101402930920130000089PLOPENO, NOEL DBU NOTEPEAL                              10505
A0101402930920130000089DEVELOPMENT                                             20500
A0101402930381472168001BELTRAN, NOEL AQUINO                                     0501
A0101402930381566712001JOYSA GARCIA OR DANIEL BONDAD                           10502
A0101402930381566712001OR ERICKSON RAMOS                                       20500
B0101402770391630383002FIRST LOAD MASTER AND POWER SERVICE INC.                 1601
A0101408950000005325902BOMBAY, CHRISTINE YANGO OR                              10502
A0101408950000005325902BOMBAY, ALEXANDER S.                                    20500
B0101408950000008364450DERMNATURE CORP.                                         1601
A0101409180000008700156CAUTON,ANNA KATRINA, HERNANDEZ,                         10501
A0101409180000008700156MIGUEL OR HERNANDEZ,CESAR                               20500
A0101412210000000977391NUNEZA, MARIA MERLY SANDOY                               0501
A0301400820000006542765LEAL, ARVIN JAY A.                                       0502
A2401400180000005286911LIM, SUSAN LIM                                           0501
B2401400180411272643002KMG GAS & DRIVE                                          1601
A2401400180411478374004MESRIYA ABDULLAH                                         0501
B0101412890000009624477MARTINA PAULA'S CATERING SERVICE CO.                     1601
B0101403320471009010001GEMARC ENTERPRISES INC.                                  1603
A0101412760000002067632VILORIA, REMEDIOS O. OR                                 10501
A0101412760000002067632VILORIA, EDUARDO                                        20500
A1901400160491034372001FIESTA HOME CENTER (FHC) CORP                            0510
A1901400160491247764001MARITES E RAMIREZ                                        0501
A1901400160491476162001GINA A PELESMINA                                         0501
A1401400110000001549293HAO, LILIBETH MANLUGON OR HAO,                          10501
A1401400110000001549293KATHERINE GAYLE                                         20500
B1401400110000000167446SOUTHERN PROCESSING CORPORATION                          1606
B0701400260000007895850BICOL RENAL CARE ASSOCIATES CORP.                        1602
B0101407430503022066001CARGO GSA INCORPORATED                                   1603
A0101403580511026941001CECILIA NARVAEZ Y DISENOS                               10502
A0101403580511026941001INTERIOR                                                20500
A0101403580000000016082SWEET BELLA DESSERTS                                     0508
A0101403580511150737004LUIS JUAN L. VIRATA JT                                   0505
A0101405940000003121842DOCTOR, HENRIELENE GRACE NULADA                          0501
A0101405940512285886001HUI HUN SO TAN                                           0502
B0101408530000010285008CCURE SYSTEM SOLUTIONS, INC.                             1605
A0101411790000004808071DE GUIA, JOSEPH MADRID                                   0502
A0101412050000012912413DING, YUXUAN                                             0501
A0101403450521240099001**********                                               0501
A0101403610000007124821ALVAREZ, PETER JUDE TERCERO                              0502
A0101403610000006643201MICAWAYAN, JAMALODIN LANTO                               0502
A0101403610531219488001REFORMA, MARILOU                                         0504
A0101403610531219680004RONWHEELS PARTS & ACCESORIES                             0502
A0101403610531344476001REYES, MA. CORAZON ALVAREZ                               0501
A0101403610531662330001BERROYA, MARK LESTER AMOR  OR                           10502
A0101403610531662330001BERROYA, CONNIE                                         20500
A2201400250000002337806CHARLIE A. ONG                                           0502
A2201400250000012982486SEVERINO, MARIA FELICITAS PEREZ                          0501
A2201400250561039037001TRIZ N' PAO TRADING                                      0501
A0101404130000009342605MALAPIT, MARIA MAGDALENA SORIA                           0501
A0101407720000002727808CARNERO, HENRY COMETA                                    0502
A0101412180000011559961CHU, ANGELO ROBERTO TORRES                               0501
A0101412180000005360065MISLANG, ROLAND REYNALDO                                 0504
A0101412180000008480104HERRERA, ERIC DBU HOTWHEELS TRA                          0502
A0101413440000000702156PASOS JR., ARSENIO WANIA                                 0501
A0101413990000013210774BUTTER AND CREAM BAKESHOP                                0501
A0101406590000000568758BAUCA, MYRA MEDRANO                                      0501
A1301400210000007669347CALUAG, CESAR JR BRAWNER                                 0502
A1301400210000002909055BUENAVENTURA, NINA DINO                                  0501
A1301400210682722987001******                                                   0502
A1301400340683361105001DELA CRUZ, ESTER SANTIAGO                                0501
A1301400500000009723122MARITES M. VICTORIA                                      0502
A1301400500000003070139SUGAR DADDY MARKETING                                    0503
A0101408240000000521742RUTAQUIO, P DBU H&CO VIDEO                              10501
A0101408240000000521742PRODUCTION                                              20500
B0101408240000006414393KWANTLEN DEVELOPMENT CORPORATION                         1603
A0101408240711226051002CHAN, ALFREDO OR CHAN, CEFERINA                          0503
A0101408240000003955306MORALES, ANTONIO J.                                     10501
A0101408240000003955306OR MORALES, TERESITA B.                                 20500
A0101408240711566885001MASUELA, JAYSON ESQUIBEL                                 0501
A0101408240711760967001TAYAG, CARMELA MACADINI                                 10501
A0101408240711760967001OR BENDITA, MICHELLE D                                  20500
A2801400230000005752387BALDEO, ROSA MARIA BUSTAMANTE                           10505
A2801400230000005752387OR MONTANO, GENEVIEVE                                   20500
A4101400260000012876901SINIGAYAN, CHRISTIAN JEMWEL T.                           0501
A4101400260000012856247ABELLA, KATHLEEN MARIE SULLA                             0501
A4101400260812212269001MA. GINA R. AMANCIO                                      0503
A4101400420000011952044BORROMEO, LUISA CECILIA C DBU                           10502
A4101400420000011952044METRODERM AESTHETIC AND                                 20500
A4101400420814357382003REMULLA, GILDA VASQUEZ                                   0501
A4101400420814520766077DOMINGUEZ, SYLLIE                                        0501
A4101400420814564032001ARADA, ALMA CORCIEGA                                     0501
A4101400550815478374008LORELYN C. PARCIA                                        0502
A0101412340000003438624BERNADETTE A. HODGES                                     0502
A0101404840851334120001MARY ANN R. PANGAN OR                                   10501
A0101404840851334120001JOHN NOEL PANGAN                                        20500
A0101406750000009471616LEONARDO, JOCELYN AVILES                                 0501
A0101413860000001886980LUMBAY, M DBU MARK LUMBAY PROJE                          0504
A0601400230000003015885MABBAYAD, MILANIE LAZARO                                 0502
B06014002300000036448207R FINANCE CORP.                                         1610
