F3201400190000001492855RECEL JR., ESTEBAN REYNON                                2503CKO
F2401400180411049051001MSU-IIT NMPC GEN. SANTOS-1 BR.                           2602CKR
F0201400180181054203001ALVAREZ AND BORROMEO DEV'T                              12615CK1
F0201400180181054203001CORPORATION (ABD                                        22600CK1
