A0101411110000000009134**********                                               0501
A0101402480000000045770*******                                                  0502
A5501400120000000047123LARIOSA, LLOYD CARMEN                                    0501
A0101413570000000206260AC SHOWEREN 2000                                         0502
A0101413570000000206391PAOLO P. PANGILINAN                                      0502
A0101412760000000208615JANET N. BUCAG                                           0502
A0101402060000000358656LITUANIA, FRESHNEL GABIONZA                              0502
A2401400180000000428062SAMANION, FLORIVIC ARINO                                 0501
A0301400790000000435830********                                                 0505
A0101408400000000471152VALLEJO, JAIME BENJAMIN MOULEON                          0501
A0101404420000000471965QUE, WIE BENG CIRO                                       0504
A0101410850000000778827MABOLO ENTERPRISES                                       0501
A0101413860000000859047ALEJANDRE, MARIA TERESA MAGNAYE                          0501
A0301400660000001113795VILLADAREZ, RICHARD RANIS                                0501
A1301400340000001415769********                                                 0501
A1301400340000001415769ACRC MARKETING                                           0501
A0101409050000001662357BARAO, JOYLENE CACACHO                                   0501
A0101400730000001697298ALAN J. CASTRO                                           0501
A0101403450000001769811*******                                                  0501
A0601400520000002085861R P QUIROZ TRADING                                       0503
A4101400550000002091123BALAGOT, MARICEL DELA CRUZ                               0501
A0101413150000002299421RIMBANG, ROHANIAH EMBOLO                                 0501
A0101411240000002332503*****                                                    0503
A1301400500000003070139SUGAR DADDY MARKETING                                    0502
A0101410850000003102103MSG BOTTLE WASHING                                       0503
A1101400120000003197186PANILAG, RICHARD MOJADO                                  0502
A0101410300000003290133PENA, ISAIAH MICHAEL G.                                  0501
A0101406750000003393311SAMSON, BERNADETTE BASCAR                                0501
A0101404260000003498453CASTILLO, CIPRIANO                                       0501
A0101404000000003853105ALBERTO, MA. PAZ ROSALES                                 0505
A0101412340000004360763CHONA C. LINDAYA                                         0501
A0101401830000004433061CUA, CHERRIE ROSE ALEGRE                                 0501
A1101400120000004617618CU, PHILLIP BENDICION                                    0501
A0101400860011393233002**********                                               0505
A0101400860011416442001**********                                               0505
A0101400860011605108001**********                                               0503
A0101401960121362714003************                                             0503
A0101400440161520766184MA. RENITTE D. ROMA                                      0502
A0101400440161525001040DOLORES A. DE GUZMAN                                     0501
A0101400440161525001095MARITES T. TAPIADOR                                      0501
A0101401090171315154001NADY S. NACARIO                                          0501
A0301400660194737684001ERMAC, ANTONIA SEBALDA                                   0501
A0101407140213235029001**********                                               0501
A1001400190231276493001MERCADAL, ERNIE FLORESCA                                 0505
A1001400350233526734002BORROMEO, MA CAROUSEL LUMAPAS                            0502
A0101401670271653710001*****************                                        0501
A6601400120314415183002UY, CHRISTIAN EMMANUEL WAN                               0501
A0101402930381478374004ANALIN ARTIOLA                                           0501
A0101402930381478374009MARIVIC R. DELA CRUZ                                     0501
A0101408400394432946002****                                                     0502
A5501400120410641408001GASCON, MERCEDITA TALAPIAN                               0505
A5501400120410787960001TANTERAS, EDWIN MONTEJO                                  0502
A2401400180411744426001ENGCONG, JAY CUEVAS                                      0501
A0101406330472031375001DAI-LIN MARKETING & SERVICE CO.                          0501
A1901400160491247764001MARITES E RAMIREZ                                        0501
A0101406880513281942004SUAREZ, HERNANDO CAMACHO                                 0503
A0101406880513565496013ABDON, ANTONELLA TURALBA                                 0502
A0101403450521240841003**********                                               0501
A0101404000551150198001CANUTO, SYLVIA PANDAY                                    0501
A0101404420631030166001*****                                                    0503
A0101407560686047224001RAMA SECURITY AGENCY                                     0502
A0101404840851520766180CARMELITA M. BARBACENA                                   0501
A0601400230891087910001SANCHEZ, POPS DUNGAO                                     0501
A0101408240000000039683MIRCHANDANI, SHERYL OR LALA                             10501
A0101403450000001769851RODRIGUEZ, MEE LEN CHAN OR                              10501
A0101410850000002356896INOMATA, EL DBU INOMATA                                 10503
A1101400120000003022522GABRINO, ROSARIO A. DBU                                 10501
A0101406620000003661352GUEVARRA, A. DBU VERROSA                                10501
A0101401090171432366001MICHAEL RONALD OR                                       10501
A0101412500214057604001PHILIP M. GARCIA DBU PHILTON                            10501
A0101400570281186566001REGINA VILLANUEVA OR                                    10501
A0501400200292794167001SARTHOU,RONALD LEARY OR                                 10502
A0101402060351503188001CANAYON, SHIRLEY AZARCON OR                             10501
A0101402930381419788001ALMARITA JIMENEZ OR                                     10501
A0101406330472494607001MARIA ELIZA E. SANCHEZ OR BRIAN                         10502
A0101408240000000039683OR MICHAEL                                              20500
A0101403450000001769851RODRIGUEZ JR., TOMAS JAVI                               20500
A0101410850000002356896ENTERPRISES                                             20500
A1101400120000003022522GABRINO CONVENIENT STORE                                20500
A0101406620000003661352ENTERPRISE                                              20500
A0101401090171432366001SHARIE MADARANG                                         20500
A0101412500214057604001ENTERPRISES                                             20500
A0101400570281186566001EUGENE VILLANUEV                                        20500
A0501400200292794167001SARTHOU,PROSPERI                                        20500
A0101402060351503188001CANAYON, IVAN PH                                        20500
A0101402930381419788001MA. REGINA COELI JIMENEZ                                20500
A0101406330472494607001JOSEPH SANCHEZ                                          20500
B5501400120000000003232********                                                 1602
B5501400120000000003298MARBEL FIT MART, INC.                                    1605
B0101404840000000004199JOY PLANET INC.                                          1601
B0101404680000000013543JCD METALFABRIK CORPORATION                              1603
B0101400440000000029310PERLA COMPANIA DE SEGUROS, INC.                          1601
B0101401250000000057214CONTEMPORAIN FOODS, INC.                                 1601
B0301400660000000194956MEL CONTAINER LINES CORPORATION                          1601
B0301400660000000195293DAVSAM LINK CORPORATION                                  1601
B0101413730000000469734L.Y.S. HARDWARE & INDUSTRIAL SALES INC.                  1606
B1301400210000000540890EL MOLINO CONSTRUCTION SUPPLY CO.                        1603
B0101408790000002659090BON APPETEA FRANCHISING COMPANY INC                      1601
B0101404000000002799855BODY NEEDS & BASICS INC.                                 1602
B0301400660000003361862SOUTHSHIP HANDLERS PHILIPPINES INC                       1602
B0301400660000003361920CPR GUN TECHNOLOGY, INC.                                 1601
B0101404130000004437172GAME CRAFT, INC.                                         1602
B0101404130000004437183GAME CRAFT, INC.                                         1602
B0101400150061027665001SYNERGY EXPERTISE INCORPORATED                           1602
B0101400150061226857001ARL MARITIME SERVICES INC.                               1603
B0101400730111015420002FELANER REALTY DEVELOPMENT CORPORATION                   1606
B0101400730111036857001FRC SULO RIVIERA HOTEL CORPORATION                       1606
B0101400440161765659001ANGLOBUIDERS CONSTRUCTION & DEVELOP                      1605
B1001400190231022229001CITY ALLIANCE CHURCH                                     1602
B1001400350233540058188**************                                           1602
B0101406620273215897003PATHLAND DEVELOPMENT CORP.                               1610
B0101402480331031150001UNIGOLDEN INDUSTRIAL COMMODITIES INC                     1602
B0101402480331431279001*************                                            1601
B2401400180411038988088AIMICAN CORPORATION                                      1601
B0101406330472040053001KUS OFFICE SYSTEM MFG. CORP.                             1603
B0101407430503024221001FINE ARTS INTERNATIONAL PHIL., INC.                      1603
B0101403450521011878001**********                                               1602
B0101404000551386046001PERCEPTION GAMING INC.                                   1605
B0101404130601016662001PAYROLL SERVICE PROVIDERS, INC                           1603
B0101404130601030838001ELEV 8 MEDIA, INC.                                       1605
B0101407720602018717001WORDTEXT SYSTEMS, INC.                                   1603
B0101404840851041585002TOM'S WORLD PHILIPPINES CORPORATION                      1602
B0101408110000001199282ASIA SOCIETY FOR SOCIAL IMPROVEMENT AND                 11601
B0101411400000001280579RDC INTERNATIONAL LTD. PHILIPPINES                      11601
B0101403450000001769902SACABEN, LOURDES IGNACIO DBU FOUR SQUARE                11603
B0101400150061021425001SYNERGY EXPERTISE INSURANCE                             11602
B1201400150421496291001LIQUETE, DOLORES SAGUID OR LIQUETE,                     11602
B0101406330472037043002THE ROMAN CATHOLIC BISHOP OF PASIG-STO                  11602
B0101406750852040331001INTUITIVE MEDICAL BUSINESS SOLUTION                     11603
B0101408110000001199282SUSTAINABLE                                             21600
B0101411400000001280579BRANCH                                                  21600
B0101403450000001769902CARGO HANDLERS                                          21600
B0101400150061021425001BROKERAGE INC.                                          21600
B1201400150421496291001LEONARDO                                                21600
B0101406330472037043002NINO PARISH                                             21600
B0101406750852040331001INC.                                                    21600
