B0101407300395821100608**********                                               2003
A3101400870000007622400NUGUID, JULIET LAGUMBAY OR                              10501
A3101400870000007622400NUGUID, RUPERTO JR. DIPON                               20500
B0301400530000007345402DAGAANG, DARYL JONES ESTOQUE                             1601
B010141179051805692200188 INFINITY LENDING POOL INC                             1603
A0101401250021478374015DONNA V. ABANTO                                          0503
B0101400150061027678002RAKUEN SEIKATSU MANAGEMENT SERVICES                      1602
B0101405810072301363001**********                                               1603
A0101405810072444240001*************                                            0505
A0101405810072518663002BAIT-IT, VICTORINO ORO                                   0501
A0601400360083040626001HARRIS DNA TESTING CENTER                                0503
B0101414090000000399457ANTARA VENTURES INC.                                     1603
B0101401830141037520001DLPRO PHOTOGRAPHY                                        1601
A7201400170000000040575ELCAMEL, BELEN PEDROZA                                   0501
A0101400440161039572003JUDELITA S. ECHUAL                                       0501
A0101400440161525001033MARY JANE V. MACALINAO                                   0501
A0101407270000004915908LORENZO, TRICIA MARIE SOLANOY                            0502
A0301400530000002318509********                                                 0503
A0301400530000002318561VILLANUEVA, FEDERICO MAGPAYO OR                         10501
A0301400530000002318561VILLANUEVA, MARI                                        20500
A3101400160000006497596MONTERO, EDNA SABILAO                                    0502
A3101400870000007744109GAREJO, ALVIR JOSEPH  LUNA                               0501
A3101400870000007758356AZANZA, MA ANGELICA DIMAGIBA                             0501
B3001400130000000067263INTERPACE- GAISANO BUTUAN CINEMA                         1605
A1001400190231043021002UNIPACE CORPORATION                                      0503
A1001400190231478374128BONIFACIO, LIZA                                          0501
A1301400470000001299196PRECILLA DR. NADORA OR                                  10502
A1301400470000001299196REYNALDO E. NADORA                                      20500
A1301400760000001295518REBECCA R. CENA                                          0502
A1301400760000002346152JIMMY C. CENA OR                                        10502
A1301400760000002346152REBECCA R. CENA                                         20500
A1301400760000005379462HENRI R. CAJUCOM                                         0501
A6601400120314612877001DELA CRUZ, ELMER SANSON                                  0501
A3401400280318478374006LOVERAS, EMCY DEL ROSARIO                                0505
A0101402350000000521202CONCHE, DAVID SAN MIGUEL                                 0501
B0101402350000000655492RD PAWNSHOP, INCORPORATED                                1603
A0101402350321542967001ABUNDIENTE, JONATHAN GUMBA                               0501
B0101402060351035807001SOLEREX WATER TECHNOLOGIES, INC.                         1610
A0101402060351212138001DOMINADOR P. SOLIS JR. &/OR                             10503
A0101402060351212138001NONI A. SOLIS                                           20500
B0201400890376045790002*************                                            1602
B0201400890376045790003****************                                         1601
A0201400890376062448001******                                                   0501
A0201400890376192121001TORRES, GIL FERDINAND ABELLO                             0502
A0201400890376658156001DUAZO, PAULITA LATOJA                                    0501
A0101408370382336346001DR. MA. FAIDA R. REYES                                   0501
A0101408370382652736001VELORO, LYRA VALERA                                      0501
A0101402770391498109001ONG, EDUARDO H.                                          0501
A0101408400000001035421ANGELICA BIRTHING HOME AND                              10502
A0101408400000001035421PEDIATRIC PRIMAR                                        20500
A0101408400000004959544LUCHAVEZ, AILYN ORDINARIO                                0505
B2401400180411033403001DADIANGAS CORNERSTONE CENTER                             1605
B2401400180411043965004BRIGADA HEALTHLINE CORP.                                 1601
A0901400220000003069087**********                                               0505
A0901400220432731076001JAMANDRE, EMBE ARAGON                                    0501
A0101410140000007294768PELICANO, EDUARDO S.                                     0503
A0101412760000002067621DEL ROSARIO, DBU MEGA MB GRAPHI                         10501
A0101412760000002067621C DESIGN & PRINTING SERVS                               20500
A0101412760000000528205SARAH JAYNE A. SANCHEZ                                   0501
A0501400170000000494640PADLAN, FRANK ABARRA                                     0502
B1401400110492028287001MARYHILL COLLEGE, INCORPORATION                          1605
B0101408530516044534001BEM INDUSTRIAL AND JANITORIAL SERVICES                   1602
A0101411400000003750521MOLINA, JOYCE LA PENA                                    0501
A0101403450521361573001**********                                               0502
A0101404000000000025492HONG, JUN PYO                                            0501
A0101404000000003706409BABY SHEENA M CHEEVER                                    0501
B0101404130000004437223CAPTIVATE SHOPPER MARKETING INC.                         1605
A0101404130000002121317IBUNA, MARY JEAN ABIERA                                  0501
A0101407720602396245001******                                                   0503
A0101404260611478374115FE S. BONDOC                                             0502
B0101409920650044950001EINSTEIN SCHOOL FOR KIDS, INC.                           1601
A0101407690000005198030BELGICA, JUDITH ORTEGA                                   0503
B0101407690000000243923EVER READY CREDIT AND FINANCE CORP.                      1603
A0101413440000000570256********                                                 0501
A0101406590662208118001CYNTHIA OR CHERYL MYLA ARCINUE                           0501
A0101410300000000191939CARBALLO, LUIS ANTONIO S. OR                            10505
A0101410300000000191939SALAZAR, EMMANUE                                        20500
A1301400210682478374062MA. ERLINDA C CHUA                                       0501
A1301400210000000023229FRANCISCO P CABOTEJA                                     0501
A1701400230000006421103QUIEL, ARLYNE VILLA                                      0501
A1701400230693478374040BAGAOISAN, DRIANITA CABANILLA                            0501
B0101408240711025397001KINGSMEN CORPORATION                                     1605
B0101408240711028488001INTAS DESTINATION MANAGEMENT INC.                        1605
A4101400390000001732736CLAVERIA III, DON VIVENCIO G                             0501
A4101400390813478374059CUEVAS, MERIAM                                           0501
A4101400420000000120856NAPILI, EMELY DACOYCOY                                   0502
A4101400420000000120798MILO, ROMELDA F.                                         0501
A4101400420000002345280ACOL, FELOMINA ADOAN                                     0502
A4101400550000004846835MARQUEZ JR., RAMON BALASOLLA                             0501
B4101400550000006044140TELKHA NETWORK INC.                                      1601
A0101412340000003345446CARISSA C. PRAGADOS                                      0501
B0101404840851013980002VIC IMPERIAL APPLIANCE CORP.                             1601
A0101404840851478374071MARITESS C. CASARILLA                                    0501
B0101404840851490100001ACTIVE-CONCISE TECH. INC.                                1603
