B0101410720000014921252VOSS RACING ENTERPRISE                                   1601
A3101400450000016321043DIONGLAY, JOHN CARLO YAP                                 0501
A6601400120314415183001UY, CHRISTIAN EMMANUEL OR                               10501
A6601400120314415183001UY, FLORIANE                                            20500
A6601400120000005710630DY, FREDERIC JAN TUBELLO                                 0504
A0101403580511152491001FERMIN ANTONIO S. FRANCISCO OR                          10504
A0101403580511152491001MA. CARMELA M. F                                        20500
A0101413440000002125651SENORON, G. DBU COMPUZEL                                10501
A0101413440000002125651COMPUTER SERVICE                                        20500
A0101413990000016083777SANTOS, NARCISO SAGUINSIN                                0501
A0101400860000001005478***************                                          0503
A0101400860011395459004**********                                               0505
A0101400150000003218328ALLAN ADRIAN M. TANALIGA                                 0503
A0101400150000003218613MARIA CRISTINA L. VIRAY                                  0501
A0101400150000012350053IGNACIO, JOCYLYN ALVARADO                                0501
A0101400150061315349055DENNIS JOY EJERCITO                                      0502
A0101400150061337010177DY, ELIZABETH, CHING                                     0501
A0101400150061396548001ALIMURUNG, BENJAMIN N. OR                               10501
A0101400150061396548001ALIMURUNG, ALICE                                        20500
A0101400150000002749615CAINAP, MAY NABO                                         0501
B0101405810072319968009***************                                          1610
A0601400100000016709109CABALLERO JR., ROLANDO FLORES                            0501
A0601400100000016709241PINEDA, ARBI AQUINO                                      0501
A0601400100081028046001TANDEM INTERIOR DESIGN STUDIO                            0503
A0601400100081033811001CIRENEJ ENTERPRISES CO.                                  0505
A0601400100081251729003JOSE PAOLO OR MELISSA FELICIANO                          0501
A0601400100081424085001ALAPAG, JASMINDA B. OR                                  10502
A0601400100081424085001ALAPAG, MARCELIN                                        20500
A0601400360000016709110ABACAN II, EUFEMIO SEGGARA                               0501
A0601400360000016709263MANABAT, RAINIER MACALINO                                0501
A0601400360000016709310MERCADO, ANTHONY MANGAO                                  0501
A0601400360000016709052ISAIS, HANNA KELLY LUGUE                                 0501
A0101410850000011276510EVANGELISTA, RAUL GLORIA DBU                            10502
A0101410850000011276510RGE TRUCKING SERVICES                                   20500
A0101400730111199538001GONZALES, MA. TERESA L.                                  0501
B0101406040000000096611ELECTRICAL & EQUIPMENT SALES CO., INC.                   1601
B0101401960121012201001ARCTUS ENTERPRISES, INC.                                 1612
A0101401830000016610650ENCINA, CHERRY LYN B. OR                                10501
A0101401830000016610650ENCINA, WILFREDO Q.                                     20500
B0101401830141008836001STO. NINO PARISH CHURCH                                  1620
B0101401830141021014001GINTONG ARAL PUBLICATIONS, INC.                          1606
A0101400440000002035041MARIA GEVELA CARDINOZA                                   0501
A0101400440000004901564DOVIE T. JERMIA                                          0502
A0101400440000002249641IBE, REBECCA LIZAN                                       0501
A0101407270000011651682REGANIT, MA. LOURDES DEL ROSARI                          0501
B0101401090171035731001UNIVERSITY OF SANTO TOMAS PEDIATRIC                      1602
A0101401090171292389001FABRICANTE, GRACE AVELLANEDA                             0501
A0301400660000002348570PALACOL, GILBERT PECHO                                   0501
A0101401380000010190353PAULINO, ENRIQUE DBU KAKA RESTO                         10503
A0101401380000010190353BAR OR PAULINO,DIONNE                                   20500
A0101401380201775843001TAN, LUZVIMINDA RANESES                                  0501
A0101413020000006295958CHONGCO, MARIA SONIA SANTOS                              0501
A0101413020000014433940LABAGALA, KARL MARK GUARDIANO                            0501
A0101410720653452116001VIRGILIO R. BACQUEL JR.                                  0502
A3101400160000008941373DELMORO, JONALYN DELORITO OR                            10501
A3101400160000008941373DELMORO JR, RICARDO M.                                  20500
A3101400450000015168240MAGHIRANG, HANNA MAE FELISILDA                           0501
B3101400450223017929001PILI BATTERY SALES, INC.                                 1602
A3101400870000002007727LUMBRIS, ZAHRA DAYO                                      0501
B3001400130230043018003CARAGA AGRICULTURAL BUSINESS CORP                        1610
A3001400130230757981001SACAY, RENE CANTOR OR SACAY,                            10502
A3001400130230757981001JOSEPHINE SIMBIT                                        20500
B1001400190000005944614RBS UNIVERSAL GRAINS TRADERS CORPOR                      1601
A1001400190231380503001JANA JOY TUSALEM                                        10502
A1001400190231380503001PHILAMCARE DOCTO                                        20500
B1001400190000013508726TAN, CONSTANTINE AND APALLA, EDUARDO III                11605
B1001400190000013508726DAAN, RAMEIR                                            21600
A1001400190231520766119CABANO, BERNADITH CATIWALAAN                             0501
A1001400480000004097103TIU, LEMUEL YAP DBU LERETTE TRU                         10501
A1001400480000004097103SERVICES                                                20500
A1301400760000014114619MARK GIL NACARIO                                         0501
A1301400760000000050557MARIA RODAVIC M. JAVATE OR                              10501
A1301400760000000050557JOVITO M. JAVATE                                        20500
B1301400760000000050773GG&G DISTRIBUTORS INC.                                   1610
A0101411820000002328612RIOJA, DAISY GO                                          0501
A0101400570000011364822RABANAL, EVELYN TINONG DBU                              10505
A0101400570000011364822RAKIS FOOD SERVICE                                      20500
A0101400570281360975001DR. NERISSA A. DE JESUS OR                              10503
A0101400570281360975001LEONCIO NILO P.                                         20500
B2601400270302047342001WOODSIDE PROPERTIES AND LAND CORPORATION                 1601
A1101400120000006186741LATORRE, NOEL TAN DBU MEAT D                            10505
A1101400120000006186741SHRIMP RESTAURAN                                        20500
A6601400120000001065270ECHALUCE, FRANCISCO CHIN                                 0506
A6601400120000002249772ADARAYAN, MA PAZ ORTEA                                   0503
A6601400120000011286252CUANICO, MARY ANN CASINAS DBU                           10503
A6601400120000011286252GIAN GEN. MERCHA                                        20500
B2001400290315636172001KHO, EVAN HO                                             1601
A3401400280000001723495JENNIFER G ONG OR JOHN OWEN ONG                         10501
A3401400280000001723495OR JOAQUIN C GOCHANGCO JR                               20500
A3401400280000013485424SALIGUMBA, REYNALDO TINDOG                               0502
A0101405650322211688001PEDRO C. DUMANA JR. OR                                  10502
A0101405650322211688001DELIA S. DUMANA                                         20500
B0101402060351009388002ASSOCIATION OF ROTARY ANNS OF PASIG                      1601
B0101402060351009401001PHIL. IRON CONSTRUCTION & MARINE WORKS,                 11605
B0101402060351009401001INC.                                                    21600
A0101402060351464138001SALAZAR, CHRISTINE ANN DELA CRU                          0501
B0201400760000001612948LMDC CORP.                                               1605
A0201400760000002309713ARRIOLA, LYLL KAREN BIGORNIA                             0501
A0201400890376677066001******                                                   0501
A0101402930000009325019ILAGAN, SALONICA ANDAYA DBU N.I                          0502
A0101402930381470004001ROGELIO T. QUINTERO, JR. OR                             10501
A0101402930381470004001ROWENA S. SANCHEZ                                       20500
A0101408370382194386001DR. MERLE F. DELA CRUZ-ODI OR                           10502
A0101408370382194386001ROMEO O. ODI                                            20500
A0101408370382392979001-----------                                              0501
A0101408370000002264080CHAVEZ, CHRISTINE LAOANG                                 0501
A0101408790000009466260LAGRIMAS, MARIA DIMPNA ALIX                              0501
B0101408790000000039012ARDENT COMMUNICATIONS, INC.                              1603
B0101408790000002659050ARDENT COMMUNICATIONS, INC.                              1603
A0101411660000002309560RIVERA, VENUS TUMPALAN                                  10501
A0101411660000002309560RIVERA, POCHOLO                                         20500
A0101402770391479320001ANG, WASHINGTON CHUA                                     0501
A0101408400000016720057FRAGO, RODERICK MALALUAN                                 0501
A0101408950000010434607RAMIREZ-ZOLETA, ESTHER SO                                0501
A0101408950000012458463DEPAMAYLO, AGNES LAROBIS OR                             10501
A0101408950000012458463GONZALES, PRINCE PINEDA                                 20500
A0301400820000014657919MORATALLA, GILLYNMAY P.                                  0501
A0301400820000014657839NONOL, FEB BAJENTING                                     0501
A5501400120000002019090PENDON, NIXONLIE PASTRANA                                0505
B2401400180000011299115FOUR M UNIVERSAL FUELS AND SERVICES                      1605
B2401400180411044545001H THE 3RD CONCRETE WORKS                                11610
B2401400180411044545001CORPORATION                                             21600
A2401400180411422803001CANZANA, RUTH SHEBA BARROS                               0501
A2401400180411535356001DOPLAYNA JR., HASDROBAL                                 10510
A2401400180411535356001DESAMERO                                                20500
A1201400150421295296002YAP, EDISON LEE                                          0501
A0101403030441029489001**********                                               0506
A0101403320471032385001CHRISTIAN OR EVANGELINE                                 10502
A0101403320471032385001VALENCERINA                                             20500
A0101403320471478374002GONZALES, ELIZABETH                                      0501
A0101406330472035160001QUICKFIRE METAL FABRICATION                              0502
A0101410140000000254391UNABIA, MARY JEAN VERANO                                 0501
A0101412760000002262897DOBLADA, NORVEN ARADA                                    0502
A0101412760000007822202JAYME JR., JESUS ANGELES                                 0502
A0501400170000001032113DAVID, ERMO ABULENCIA                                    0501
A0501400170481039591001MACA DEO REGALIA REALTY                                  0502
A1901400160000007556763FELIX E PEREZ OR                                        10503
A1901400160000007556763PACITA P CULATA                                         20500
A1401400110000015925752*********************                                    0505
A1401400110000013091559BUERA, ALICIA DBU VJ NARVAEZ GE                          0502
B1401400110000014232394ROMAN CATHOLIC BISHOP OF LUCENA, INC                     1605
B1401400110000003475672***************************                              1602
A1401400110492222234003MARTINEZ, FERNANDO PELIPADA OR                          10504
A1401400110492222234003MARTINEZ, MA. LU                                        20500
A0701400260000014169149VARGAS, ARVEE TABANGCORA                                 0501
A0701400260000015110300PLAZA, PAUL MESOGA                                       0501
B0101407430000004491787NEW FAR TRUCKING SERVICES, INC.                          1605
A0101403580511242579001RITA M. ESTELLA                                          0504
B0101405940000000002740TRANS-MILLENNIUM MERCANTILE CORPORATION                  1605
A0101408530000012953112GARCIA, CONSTANCIO DAYANGHIRANG                         10503
A0101408530000012953112DBU ROBERT KING                                         20500
B0101403450521240366001**********                                               1602
B0101404130000005961960SPIRALYTICS INC.                                         1605
A0101404130601487515001CRISTUTA, BOBBY C. OR CRISTUTA,                         10502
A0101404130601487515001AILENE P.                                               20500
B0101407720602018981001PHIL. COLLEGE OF EMERGENCY MEDICINE                      1603
A0101404260000003498419LACAP, LARINA LUSABIA                                    0502
B0101404260000004781266RD PAWNSHOP, INCORPORATED                                1605
A0101404260611478374076NEREZA P RULL                                            0502
A0101407690000000495530AMBA, GERALDINE PAGASPAS                                 0501
A0101407690000012227024BILLOSO, GIAN CHRISTINE ASIS                             0501
B0101407690652008210001AERO COOL SYSTEM                                         1602
A0101407690000000914027BUYAYO, ELIZABETH KIDAYAN                                0501
A0101414120000002879743DE GUZMAN, JENNY MERLIE APOLINA                          0502
A0101406590000013411448DY, MARK MATTHEWSON GO                                   0501
B0101406590662045778001KAUNLARAN GROUP OF COMPANIES INC.                        1602
B0101406590662473843001BRANWYN REALTY CORP.                                     1601
B1301400210682009968001PRIMA PLASTIC MFG. CORP.                                 1604
B1301400210000008173933***                                                      1604
A1301400340683560646001**********                                               0502
A1301400500000016062441CANAPI, MARVIN LU                                        0501
A1301400500000012913310E.D. SIOJO BUILDERS                                      0502
A1301400500000016721647AIOS ENTERPRISES                                         0502
A0101408240711323526001SHIRLEY A. MANESE OR MARIA                              10501
A0101408240711323526001ELENA M. ISAAC                                          20500
A2801400230000005752401SERVANT ARTS & SIGN                                      0505
A2801400230000002312425VEGA, SONIA DRILON                                       0501
B4101400420814015551002REGATTA CLASSICS HOMEOWNERS ASSOCIATION                  1601
B4101400420000009391922INFORMATICS COLLEGE CAVITE, INC.                         1605
A0101412340850093987001CINCO, JENNIFER VILLANUEVA                               0502
A0101404840000004565931PABLO, R DBU UBEE LOGISTICS                              0510
A0101406750000005666817CDB ACCOUNTING AND TAXATION                             10502
A0101406750000005666817SERVICES                                                20500
A0101406750852181208001LOLITA P. JIMENEZ OR ELIAS B.                           10501
A0101406750852181208001JIMENEZ                                                 20500
A0101406750852228373001VEGA, SONIA D.                                           0501
A0101406750000002040066GUIYAB, MA. ELENA ONCHER                                 0501
A0101405070000016445733CORAZON DIMAUNAHAN BALUCAN                               0501
B0101405070861008182001MANILA CIGARS INCORPORATED                               1604
B0101405070861080434001URBAN-STYLE AND SPACE BUILDERS INC.                      1601
A0101405070861202025001DOLORES ROSALES OR SARAH                                10502
A0101405070861202025001DOMINIC ROSALES                                         20500
A0101413860000011795881DELA CRUZ, EDUARDO GALAM                                 0502
