B1201400150000011415751VESTER CORPORATION                                       1604
A0901400220000000425045LOZADA, ELIZABETH GO                                     0501
A7201400170000011454469ARDIENTE, RICHARD AMACANIN                               0502
A7201400170152060879001RENDON, EDNALYN BACAY DBU                               10502
A7201400170152060879001FRIENDLY MOTORS REPUBLIC                                20500
B0101415350000003212448VESTICOM, INC.                                           1601
A1601400170000001360634ALDON, CONSUELO DAYTO                                    0501
B2001400290000007832400RITESTREET LENDING CORPORATION                           1602
A2201400250561253789001MELIZA TRACY G. FLORES                                   0501
A2201400250000006275705DE OCAMPO, CELINA MAGAT                                  0501
A0101400860011421221001*********                                                0505
A0101400860011477042001**********                                               0503
A0101400860011548447001**********                                               0504
A0101401250001120001066DY, SEGUNDINA RANIT                                      0502
A0101401250000003803103LLAMOSA, CRISELDA DELACRUZ                               0505
A0101401250021758900001******                                                   0502
B0101400150061010675001M & M CONSOLIDATED, INC.                                 1603
B0101400150061027678002RAKUEN SEIKATSU MANAGEMENT SERVICES                      1602
A0101400600071233715002********                                                 0503
B0101400600071233748002**********                                               1601
B0101400600071234158001**********                                               1605
A0101400600071235565001**********                                               0501
A0101400600071235573001**********                                               0501
B0101405810072236261001**********                                               1603
B0101405810072319968003TUNG, FELY CHUA                                          1601
A0601400100000013802078PINEDA, RICHARD CANLAS                                   0501
A0101414090000007236473CATALA, ANGELITA SAYSENG                                 0501
A0101414090000011597610TAGLE, RAQUEL FORDELON                                   0501
A0101410850000015839931MANUEL, RODNEY P OR                                     10502
A0101410850000015839931MANUEL, ROMAN RODRIGO C                                 20500
B0101410850000013190988CORNERSTONE 777 BUILDERS INC.                            1602
B0101400730111015420002FELANER REALTY DEVELOPMENT CORPORATION                   1606
B0101400730111036857001FRC SULO RIVIERA HOTEL CORPORATION                       1610
B0101400730000005593597NATASHA SALES & MARKETING CORP.                          1602
B0101401830000012733589UY JR., SANTOS SALEM DBU JOCAR                          11605
B0101401830000012733589DELIVERY SERVICE                                        21600
B0101401830141008916001PRIMARY ELECTRICAL & ELECTRONIC                         11604
B0101401830141008916001SUPPLY, INC.                                            21600
B0101401830141029955003SHELL EMPLOYEES MULTI-PURPOSE COOP. -                   11610
B0101401830141029955003CREDIT                                                  21600
B0101401830141032221001CARITAS ET LABORA HUMAN RESOURCE SERVICE                11650
B0101401830141032221001COOP.                                                   21600
B0101401830141037575002MATATAG PRINTING PRESS                                   1603
B0101401830141037764001MICHAELJONA TRUCKING SERVICES, CO.                       1602
A0101401830141040554001DREAMBOOKS PUBLICATION                                   0503
B0101401830000001282462JAVIER, RAMONCHITO D. DBU R.D.J. TRADING                11610
B0101401830000001282462ENTERPRISES                                             21600
B0101401830141066155001BUCE, ANTONIO C DBU BDMA MOTOR WORKS JT                  1602
B0101401830141206540001MEGA NURSERY ORCHIDS                                     1610
A0101401830000003169333MUNAR, JEREMIE V. OR                                    10501
A0101401830000003169333MUNAR, MARK M.                                          20500
A7201400170000009673152SAMSON, ADELFA ALIVIO                                    0502
A7201400170000007185660DUHILAG, FELY SABADO                                     0505
A7201400170000013006950TAN, JERRY BUQUE                                         0501
A0101401090000016654558MACARIOLA, GORGONIO DASAL                                0501
A0101401090171199558001NOEMI E. FRANCISCO                                       0502
A0301400530000001009943PANTUA, JERSON R.                                        0501
B0301400660000008941124LACABA, KATTY MAQUIRANG                                  1601
B0301400660000000195328TYRENE SHIPPING CORPORATION                              1603
B0301400660194737283088ZHI VENUS INDUSTRIAL SUPPLY                              1602
A0101401380000001820002********                                                 0503
A0101413020000006295958CHONGCO, MARIA SONIA SANTOS                              0501
A3101400160000016569792DE MESA, DANDIE ONG-IKO                                  0501
A3101400160221776808001DEBORAH B. LABRADOR                                      0501
B3101400450000005960585KABALIKAT PARA SA MAUNLAD NA BUHAY, INC.                11605
B3101400450000005960585(KMBI)                                                  21600
B3101400870000016387043AICHI FORGING FAMILY MULTI-PURPOSE                      11601
B3101400870000016387043COOPERATIVE                                             21600
A3001400130000001261283LIM, EDGAR ALLAN DIAZ                                    0502
B3001400130000010506515CUMBA, WENDY GO AND GO, ANTONIO TIMCANG                  1603
A3001400130230478374237LANQUINO, JOCELYN GIJAN                                  0502
B1001400190000000124810GOCHUICO, PETER LIM                                      1603
B0101401670271007111003CLUB FILIPINO                                            1601
A0101401670271228042001TINIO, JUAN ANGEL LIGON                                 10501
A0101401670271228042001OR TINIO, MARIA                                         20500
A0101401670271603732001GREGORIO, REYNALDO CRUZ                                  0501
B0101406620273016438001LAMCO INTERNATIONAL TRADING CO., INC.                    1602
B0101406620000000194012LAMCO INTERNATIONAL TRADING CO., INC                     1601
A0101406620273026212001JRICO TRADE INVESTMENT                                   0505
B0101406620273040722001ARDENT NETWORKS INC.                                     1602
A0101406620000001686600FIGUEROA, JULIETA S.                                     0501
A0101406620273215980002GLORIA CHOA CHUA                                         0502
B0101412470000007317902LUNARGLOW, INC.                                          1605
A0101400570000003891390PASAHOL, JANINE LAQUI                                    0502
B0101400570000013647322PHILIPPINE SOCIETY OF REPRODUCTIVE                      11602
B0101400570000013647322ENDOCRINOLOGY                                           21600
A0801400160000007444302WOO, JOHN KENNETH FINES OR                              10504
A0801400160000007444302WOO, PATRICIA SE                                        20500
A0801400160311413609001LIM, JOSEPH PO OR                                       10505
A0801400160311413609001LIM, MICHELANE P                                        20500
A1101400120000006081103BACSAL, EMMYLEEN BATAWAN OR BAC                         10504
A1101400120000006081103SAL, DAVID DACUNOS                                      20500
B1101400120313036685001MN MACATO BUILDERS                                       1601
A2001400290000008502152UY MATIAO, MELISSA ONG                                   0501
A2001400290315666711001MARIUS C. C. ONGCOG OR AGRIPINE                         10503
A2001400290315666711001T. L. ONGCOG                                            20500
B0101402350321171971001RADIAL ARCH CONSTRUCTION INC.                            1602
A0101405650000011810836LIGAN, JAIMEE RUTH DE GUIA                               0501
B0101405650000005382032OLYMPUS GLOBAL LOGISTICS INC.                            1602
A0101405650322356957004AQUINO, HILDA TIXERA                                     0501
B0101402060351702943001WINGI INC.                                               1603
A0101409050000003536565VENKATA RAMANA BOBBA                                     0501
A0101409050000012409831YU, BIANCA BEATRICE TY                                   0501
A0101409050000012409831YU, BIANCA BEATRICE TY                                   0501
A0101409050000012409853AMBROSIO, MARIA JERUSHA JAVIER                           0502
A0201400760000009466117PACARDO, GERALDINE MOLLENO                               0501
B0201400920000000047743HOWDY LEMON JAPAN INC.                                   1605
A0201400890000016761007ROBIN, LESLEY ANN S. OR ROBIN,                          10501
A0201400890000016761007KENNETH JOSEPH G.                                       20500
B0201400890376045807001**********                                               1630
B0101402930000000057481CENTURY PACIFIC FOOD, INC.                               1602
B0101411660000000751520PHARMASTAR INT'L TRADING CORP.                           1603
A0101415350000015170744LAZARTE, EMILY VINOYA                                    0501
B0101408400000001258599PASAY ULTRASOUND AND PERINATAL SVC.                      1602
A0101408400394378428001SEVILLA, RAINALDO MEJIA OR                              10501
A0101408400394378428001JOSEPHINE SEVILL                                        20500
A0101409180000004409790SARMIENTO, KRISTINE MADRIGAL                             0501
A0101409180397696150001***                                                      0501
A0101412210000001236340GERARDO IGNACIO B. ONGKINGCO                             0502
A0301400820000000814088OZOA, EUGENE B. OR OZOA, LYDIA                          10501
A0301400820000000814088P.                                                      20500
B5501400120000012653504JCE ENTERPRISE, INC.                                     1603
A2401400180000015914088MAGAYON, JEANILY TALAUGON                                0501
B2401400180411276067001GAISANO DADIANGAS, INC.                                  1610
B0901400220432043554001GERRY'S GRILL                                            1602
B0101412890000009624477MARTINA PAULA'S CATERING SERVICE CO.                     1601
A0101406330000004349611CORMACK, ROSS ANTHONY STEVENS                            0502
A0101406330000014145063VIRTUDAZO, JOEY FLERIDA CERILLO                          0501
B0101410140000007303682SINAG TALA (ST) MICROLENDING CORPOR                      1606
A0501400170000009954152MERCADO, MERCY ZAMBALE                                   0501
A1401400110000002286826BALDONADO, WILFREDO ALCANTARA                            0501
B1401400110492500431001STRONG BRIDGES POULTRY FARM INC.                         1603
B0701400260000000041130TREVOR ETON REALTY CORPORATION                           1602
A0101403580511035474001JADE INDUSTRIAL SUPPLIES                                10501
A0101403580511035474001AND SERVICES                                            20500
B0101405940000000886682SEWELLS GROUP PHILIPPINES, INC.                          1605
A0101405940000005359782************                                             0505
A0101405940512401022002JENNIFER P. FERNANDEZ                                    0502
A0101408530516471293001CALICDAN, ENRIQUE S. OR                                 10502
A0101408530516471293001CALICDAN, FLORIT                                        20500
A0101403450000011972344CO, EUGENE VALDEZ                                        0502
B0101403450521020418001**********                                               1605
A2201400250000006275863CID, MYLYN M. OR CID, FERDINAND                         10501
A2201400250000006275863FRANCIS MARIA DE                                        20500
A2201400250561484428001WILSON LAO SIO OR                                       10501
A2201400250561484428001EDUARD LAO SIO                                          20500
B2201400250561484428001WILSON LAO SIO OR                                       11602
B2201400250561484428001EDUARD LAO SIO                                          21600
A0101407720000003099154LUCHANGCO, DANIEL NOEL OR                               10501
A0101407720000003099154LUCHANGCO, KARLA                                        20500
A0101407720000016756300ANG, MARY ELEANOR LEAH YABUT                             0501
A0101404260000006374467DENSING, M DBU QSAFE INDUSTRIAL                         10503
A0101404260000006374467SAFETY SERVICES                                         20500
B0101407690652026544001DRCB BUILDERS                                            1601
A0101413440000007952961FERRER, JASPER VALIENTE                                  0501
A0101413570000002976221BARONA, MARY ANGELIE LEONOR                              0501
A0101413990000009073354JFF ELECTRICAL CONSTRUCTION                              0502
A0101413990000015379458FORMADERO III, CONRADO S. DBU                           10501
A0101413990000015379458LE'CONFORM BUILDER                                      20500
A0101410300000007614231**********                                               0501
A1301400210000009982541****                                                     0502
A1301400340000005264973MARCOS, MARVIN CUALA                                     0501
A1701400230000016746420OCAMPO, FEDERICO GALLEGO                                 0501
B0101408240711044425001PCKB REAL ESTATE LESSOR                                  1601
A0101408240711375763001TUGADE-HLATKY, PILAR                                     0501
A0101408240711383150001AURELIO III OR AURELIO JR.                              10501
A0101408240711383150001OR AARON LITONJUA                                       20500
A0101408240711420342001SONIA TERESITA HENDERSON                                 0502
A0101408240711618299001**************                                           0501
A2801400100000000004720REYES, MYRA DBU MRC DENTAL                              10501
A2801400100000000004720CLINIC                                                  20500
A4101400260000012864643DATING, ARBIE                                            0501
A4101400260000014088485DEPANO, ABEL DBU EXCELLENT                              10503
A4101400260000014088485DEPANO DENTAL CLINIC                                    20500
A4101400390813406195001LEONARD LAO OR SUSANA LAO                                0505
A0101412340000007305666MA. JOVITA R. MANGALAO                                   0501
A0101404840000012411253MEDIODIA, IAN LEBITA                                     0501
A0101405070861197518001RICARDO G. CHAN OR                                      10503
A0101405070861197518001OLIMPIA C. CHAN                                         20500
A0101405070861629632001NOLINA Q. GONZALES OR LOUIE                             10501
A0101405070861629632001GONZALES                                                20500
A0601400230000013259224GARCIA, PRISCILLA MIRANDA DBU P                          0510
A0601400230000005185924GAJE, AGNES DBU JCG AIRCONDITIO                          0502
