B0101403580511821100608**********                                               2010
B0101413860000001767871JUMBO WORLDWIDE EXPRESS LOGISTICS I                      1603
A0101410850000003503482CANILLAS, MARTIN LAPPAY DBU                             10502
A0101410850000003503482MARCCHARM INDUSTRIAL                                    20500
A3001400130230478374004BALABA, JANETH BORJA                                     0501
A3001400130000000931162VOCALES, MYRA SERENO                                     0501
A3001400130230767566073ROBLES, REY ANTHONY PARCON                               0502
B0101401670271672165001DATA LAND INC.                                           1610
A0501400200000002306116VALDEZ,ALVIN PATRICIO OR VALDEZ                         10502
A0501400200000002306116MAE FLORIZE BALMEDIANO                                  20500
A0101405490000000444313BENITO M. LOJO                                           0503
A0101408950396564775001MAGLINAO, NELSON MEDALLA                                 0502
B0101404260611043081001EUMAN ENTERPRISE                                         1602
A4101400420814520766027ARUTA, CORAZON G.                                        0501
A0101400860000002333444**********                                               0502
B0101400150061057491001REBELSTUDIOS INC                                         1603
A0101400150061226922001INES, PHILIPP DELFUN                                     0501
A0101400150061231268003TAN, CORAZON J.                                          0501
B0101400600071011304001**********                                               1602
B0101405810000000016822VANDA PAPER PRODUCT ENTERPRISES COR                      1602
A0101405810000000016559CHUA, HEMAN LAO                                          0501
A0601400100081254005001TANGLAO, CARMELO OR                                     10501
A0601400100081254005001TANGLAO, MARILOU                                        20500
B0101410850000001229794TRANSLOGISTICA INTERNATIONAL                            11602
B0101410850000001229794FREIGHT INC.                                            21600
A0101400730000002882222LAGRIMOSA, JOEMARLO BALONON                              0502
B0101406040000000096713********                                                 1601
B0101401960121011796001**********                                               1608
A5001400170000000045149LACAYA, ROSALIE LEGADOS                                  0502
A0101412920000002359059MENDOZA, ROSEMARIE QUINTANA                              0501
A0101400440000002035110EVA D. SAMILLANO                                         0502
A0101400440161525001040DOLORES A. DE GUZMAN                                     0501
A0101400440161525001069ROMYLYN D. REAL                                          0501
B0101400440161528688001POWERPHASES CONSTRUCTION SERVICES INC.                   1603
A0101400440000003671721ALCANTARA, MARLYN DACORO                                 0501
A0101401090171195137001DRA. ESTELA RIVERA OR                                   10502
A0101401090171195137001LEAH SOCORRO RIVERA                                     20500
A0301400530000001409621ARASA, ELEUTERIA A.                                      0501
A0301400950000002252051**********                                               0503
A0101410720653085934001TOBIAS, MERRILL JAVIER OR                               10502
A0101410720653085934001CONEJERO, NINIBETH R.                                   20500
A0101410720653435006001LETICIA NICOL OR CHARLES NICOL                          10501
A0101410720653435006001OR ANA LIZA NICOL                                       20500
A3101400160000001559213IAN GARY C DELA TORRE                                   10501
A3101400160000001559213JACQUELINE A DELA TORRE                                 20500
B3101400160221017124001PANASONIC PRECISION DEVICES PHILIPPINES                 11602
B3101400160221017124001CORPORATION                                             21600
A3101400160221220185001CLEOTILDE C. MALABANAN                                   0501
A3101400160221419024001BELINDA DELOS SANTOS AWAT                                0501
A3101400870000000957666MARASIGAN, JAMES ILAGAN                                  0502
A3101400870000000957655BITHAO, C DBU BP-1 CAR AUDIO                            10502
A3101400870000000957655AND ACCESSORIES                                         20500
A3101400870000002327982MAGTALAS, ENGELBERT ALINSOD                              0501
A1001400190231520766125YANA, MAYFLOR DAGOC                                      0501
A1301400470000000061372MARCHELLE TRADING                                        0505
A1301400760000003415610ROMAN P. CASTILLO                                        0502
A0101406620273400631001DINDO P. SANCHEZ OR                                     10502
A0101406620273400631001EMILY H. SANCHEZ                                        20500
A2601400270000002312210JANET GELACIO OR BARTOLOME                              10505
A2601400270000002312210GELACIO                                                 20500
A2601400270302596713001MARY GRACE L. LORENZO                                    0501
A1101400120313478374028NEGRIDO, JINKY G.                                        0501
A6601400120314041602001LEXTAN GENERAL MERCHANDISE                               0502
A0101402350321179301001PABLO PEFANCO OR                                        10501
A0101402350321179301001ERLINDA PEFANCO                                         20500
B0101405650322044669001ABIX CONSTRUCTION & DEVELOPMENT COR                      1601
B0101405650000000772652MARY MOUNT SCHOOL                                        1605
B0101405650322543721001OMNIBILT CONSTRUCTION AND MAINTENANCE                   11601
B0101405650322543721001INC.                                                    21600
A0101409050000001662426DRAGON EMPIRE CONSTRUCTION                               0501
A0101409050352460292001LUCELI C. CUASAY                                         0501
A0201400920375609447001RAMIRO, MARIA ARCELI AVANZADO                            0502
A0101408790383758852001GA, NORMAND MACALLOP                                     0502
A0101402770000001841094BLANQUISCO, JEFFREY TUAZON DBU                          10505
A0101402770000001841094JT BLANQUISCO TRADING                                   20500
A0101402770391377092001DAVID MONTALES DOCTOR                                    0502
A0101405490392405331001FELOMINA S. SEBALDA                                      0501
A0101405490392554799001ALLEN NEIL V. PAJARELLANO OR                            10502
A0101405490392554799001FLORANITA V. PAJARELLANO                                20500
A0101405490392693267001ADELA C. TABALE                                          0502
A0101408400394478374090MARY DUMASLAN                                            0502
A0301400820000001185655POLICARPIO E. FONTANILLA JR.                             0501
B5501400120000000003210BUILDEX HOME TALK                                        1601
B5501400120410683469001RDJ AGRIFARMS INC.                                       1605
A5501400120410729506001JOSOL, ARLIEN BACON                                      0501
B2401400180411037214001EMF BUY & SELL                                           1605
A2401400180411389026001VILLANUEVA, REGINA DELFIN                                0505
A2401400180411501589001VALILA, NOL S. OR VALILA, MA.                           10502
A2401400180411501589001LOURDES D.                                              20500
B0901400220432043554001GERRY'S GRILL                                            1604
A0101412890000002747971VERGARA, FERNANDO FERNANDO                               0501
A0101406330000001235329BALUARTE TRUCKING                                        0502
A1601400170000001069136ROMEO OR MARITESS OR                                    10503
A1601400170000001069136EDWARD ASTILLERO                                        20500
A1601400170494076550001MARTIN A. CALLEJA OR                                    10502
A1601400170494076550001CARMEN G. CALLEJA                                       20500
B0701400260000000670980TOYOTA CAMARINES SUR, INC.                               1605
B0101405940512702149001VANDEM MACHINERY TRADERS, INC.                           1606
A0101408530000002260048GO, ANNABELLE TAN                                        0501
A0101408530000001268413HELENA BAJADO                                            0501
B0101403450000000009765*******************                                      1605
A0101403450521563365001RODRIGUEZ, ERNESTO MUTUC                                 0501
A2201400250561529504002*****                                                    0502
B0101410690000000305273RIC POBLETE & SONS AGRICULTURAL                         11603
B0101410690000000305273ENTERPRISES,INC.                                        21600
B0101404130601031677004CARRIEDO TOURIST DEVELOPMENT INC.                        1605
A0101407720000003886999APOSTOL, ALFRED MADRID                                   0505
A0101407720602341807001DR. JOSE DANTE P. DATOR                                  0502
A0101407720602396498002CAPISTRANO, MA. EVELYN TORRES                            0501
A0101407720602581738001DUCUSIN, MA. ANTONINA SUGUITAN                           0502
A0101413570656057648059VERONIQUE CHAN                                           0501
A1301400340000002283752JUANITO C. IGNACIO OR                                   10502
A1301400340000002283752MARY GRACE V. IGNACIO                                   20500
A1301400500000002063758********                                                 0501
A1301400500684637125001SANTOS, LENYLYN INDON                                    0501
B0101408240711029537001ED LINK FOUNDATION, INC.                                 1602
A0101408240000000521833SSB CONSTRUCTION                                         0501
B4101400390000003346187PAGASA PHILIPPINES LENDING COMPANY                       1605
B4101400420000000711993REAL ESTATE BRANDED AFFORDABLE COMMUNITY                11601
B4101400420000000711993EXCLUSIVE COMPAN                                        21600
A4101400420814598473001YAMAT, MARISSA V. OR                                    10501
A4101400420814598473001YAMAT, ARISTOTLE                                        20500
A4101400550000004846824PANGAN, S DBU SDP REALTY                                 0501
A4101400550000004846824PANGAN, S DBU SDP REALTY                                 0501
A0101404840851520766067JOSEPHINE V. GABAYERON                                   0501
A0101404840851520766085GEMMA DELDIO                                             0501
A0101406750852081206001GALVE, NICK ANDREW TAHIL                                 0501
B0101413860000000145275CON-PAC WAREHOUSING INCORPORATED                         1605
