B0101400730111821100608**********                                               2005
B0101402930381821100608**********                                               2002
B0101401380201821100608**********                                               2002
B0301400790000002301342MONTEVERDE II, GEORGE MENDEZ DBU GV & HH                11601
B0301400790000002301342MARKETING                                               21600
B0101413310133821100608**********                                               2003
A0101400440161525001104EVELYN G. GARCIA                                         0501
A0101400440161027568001GARB CLOTHING COLLECTION                                 0502
A0101400440161027568001GARB CLOTHING COLLECTION                                 0501
A0101400440161525001002NERISSA N. RELAO                                         0501
A0101413440000001472920**********                                               0501
B0101400150061029139001ORIX AUTO LEASING PHILIPPINES                           11601
B0101400150061029139001CORPORATION                                             21600
A0101400150061379810002BUMAGAT, MOLITA                                          0501
A0101400150000002749791LOPEZ, EMMANUEL PEREZ                                    0501
A0601400100081023131001ADYR TRADING                                             0506
B0601400100000002099421**************************                               1603
A0601400520000007553753CELTRONIX DR.CELFONE                                    10505
A0601400520000007553753SALES & SERVICES                                        20500
A0101413730000000469125*******************                                      0501
A0101410850000000005789AUSTRIA, MA. DOLORES RODRIGUEZ                           0501
A0101410850000008263985DIZON, JOLLY DBU STARLIGLHT                             10504
A0101410850000008263985TRUCKING                                                20500
A0101410850109055934001ANDAL, MARK GREGORY JT DBU                              10520
A0101410850109055934001RUMKOR TRUCKING                                         20500
A0101410850109068198001UY, JOHN CEDRIC P DBU ANDRE-                            10501
A0101410850109068198001GABRIEL TRUCKING SERVICES                               20500
A0101410850000009034742FRANCISCO, DELIA MISAGAL                                 0502
A0101410850109420932001IGNACIO, NIDA ARMOGENIA                                  0501
A0101410560110478374011MARIQUIT A. PAREJA                                       0501
A0101412630000007168803STA. CRUZ, CONCEPCION LAZARO                             0501
A0101401830000011263293TAN, RODOLFO LIM                                         0501
A0101401830141068237001BERMUDO, SHARALYNN QUINDARA DBU                         10501
A0101401830141068237001AKEISHA TRAVEL AND TOURS                                20500
A5001400170000000045014GAWCHUA, EDDIE YONG OR                                  10501
A5001400170000000045014GAWCHUA, CESAR YONG                                     20500
B5001400170000008743813TIU, J DBU DIPOLOG FISHING SUPPLY                        1610
A0101412920000001313780ANGELES, THEODOSIA BUSUEGO                               0501
A0101407270162331908143GERALDINE L. GAMMAD                                      0501
A0101401090171331630001MARIA ARCELI G. MAGSINO                                  0501
A0101401090171379928003EVA OR ALFONSO ADALIA                                    0510
A0101401090171406527001DARWIN HENRY P. PESO OR                                 10502
A0101401090171406527001MARIA CECILIA S. PESO                                   20500
A0301400530000002318429RUFON, NELIA DIANITO                                     0501
B0301400530193041929001NEW CORELLA AGRICH MARKETING CORP.                       1601
A0301400660000008940978LABOR, JESSIE OR POSADAS, DAN                            0501
B0301400660000002348541ERVY LOGISTICS                                           1602
A0301400660000010221993**********                                               0505
A0301400790000008015096TILOS, MARCELINO DBU NOYNOY                             10501
A0301400790000008015096MOTORCYCLE PARTS                                        20500
A0101401380201511785001CHA, JUNG BYUNG                                          0501
B0101401380201821200608**********                                               2001
A1001400190000002266504MARABE, RIKKA AND LA VINA,                              10503
A1001400190000002266504IRISH OR MARABE,                                        20500
A1001400190000002170736MARABE, RIKKA LA VINA AND                               10505
A1001400190000002170736LA VINA, IRISH P                                        20500
A1001400190231478374067DAGANATO, NICANORA BALOS                                 0501
A1901400290261298552118CONCEPCION GONZALES ESTIGOY                              0502
A0101406460272336562001SEMILLA, JENELYN PAJINAG                                 0502
B0101406620273036393001REYES, REYES & RIVERA-LUMIBAO LAW                       11602
B0101406620273036393001OFFICES                                                 21600
A0101406620273280285001PELAGIO / ROSARIO / REBECCA /                           10501
A0101406620273280285001RAFAEL / ROWENA                                         20500
A0101406620000004925884SINON, VIRGINIA GENOVEVA J. OR                          10501
A0101406620000004925884SINON, JOHN VINCENT J.                                  20500
A0101400570281442779001DR. SANDEE G. GO                                         0501
A0101411240000007844991GAERLAN, GERALDINE RODRIGUEZ                             0502
A0501400200000001000120AQUINO, ARIEL MANANTAN OR                               10501
A0501400200000001000120AQUINO, ROWENA .                                        20500
B0501400200000004456935HIL-BROS TRADING CORP.                                   1610
A2601400270302574301001ALEX UY TY                                               0501
B0801400160311100161001PRUDENTIAL CUSTOMS BROKERAGE SERVICES,                  11603
B0801400160311100161001INC.                                                    21600
A2001400290000001301580BONIOR, MARIO CURATIVO                                   0502
B2001400290000000020537LINK RI LOGISTICS INC.                                   1601
A2001400290315673185001TAHIR, SAMSODIN TOMAWIS                                  0502
B3401400280000006790954808 PRIME HOLDINGS, INC.                                 1601
A0101402350321290525001JAIME VIRAY OR REGINA VIRAY                              0505
A0101402510341543493001VICTOR M. TOPACIO                                        0504
A0101402510000010100811ALCALA, GINA CALA - OR                                   0503
B0101402060000010846650AMANDA, SPENCER AND DOMINIQUE APPLIANCE                 11610
B0101402060000010846650CENTRE INC.                                             21600
A0101402060351653390001ACAYAN, MARY ANN OR                                     10502
A0101402060351653390001ACAYAN, JACINTO                                         20500
A0101409050000000601410MANZANO, MAUREEN INES                                    0501
B0101402930381008829001ASIATIC DEVELOPMENT CORPORATION                          1601
B0101402930381041518001PANPISCO TECHNOLOGIES, INC.                              1603
B0101402930000000057532PALINSAD JIMENEZ & ASSOCIATES                            1601
A0101408790000011259522ACUNA , DESIREE VINLUAN                                  0501
A0101408790000011259613BAUTISTA III, ROQUE WALFRY  URR                          0501
A0101408790000011259653MONTEFRIO, RIA MAY LOGRAMONTE                            0501
A0101408790000011259697JOVERO, VEEJAY  PENGSON                                  0501
A0101408790000011259744SAYMO, BELINDA SARAH PANGANIBAN                          0501
A0101408790383356341001YU, FRANCIS CHUA JT                                      0502
B0101408790383694411001SEAOIL FOUNDATION INC.                                   1602
A0101415350000005356889MARCELO, LEA D. OR GABINETE                             10501
A0101415350000005356889MARIE SUZZETTE Z.                                       20500
A0101415350000007878122LAGARTO, JOSEPHINE CUA                                   0501
A0101415350000007878202MAGLENTE, VOLTAIRE MICHAEL EGAM                          0501
A0101415350000007878202MAGLENTE, VOLTAIRE MICHAEL E.                            0501
A0101402770391022532001VIREX ENTERPRISES                                        0501
B0101408400394028375001LEARN AND PLAY BOOK STORE                                1601
A0101408400000010506884MAGALLEN, MARY GRACE SOLAMO                              0503
A0101408400394605254001*****                                                    0505
A0101408950396567425001DR. SHEILA LYN REMOT RANIN                               0503
A0101408950000011077751TAN, LIEZL CABERTE                                       0501
A0301400820000002271956COMAINGKING, JESUS B.                                    0501
A0301400820000002272055DELA VICTORIA, MERLE D.                                  0502
B0301400820000000814135DIGOS MARKET VENDORS MULTI-PURPOSE                      11602
B0301400820000000814135COOPERATIVE                                             21600
B0301400820000010546335MEDICAL CENTER OF DIGOS COOPERATIVE                      1620
A5501400120000002348325ANG, ANDY MAN CHUNG CHANG                                0505
A5501400120000005492220ROCKWELL, SHARON SILVA                                   0501
B5501400120000006976596FB HOTEL                                                 1610
B5501400120000006976972BENLYN CAFE                                              1605
A5501400120000009875609CHIU, JULIA EILEEN ROBLEZA                               0503
A2401400180000007031574HAO, YOLANDA GARCIA OR                                  10501
A2401400180000007031574HAO, HENRY GO                                           20500
B2401400180411014376006PENBANK, INC. (A PRIVATE DEV'T BANK) -                  11605
B2401400180411014376006FISHPORT BRANCH                                         21600
B2401400180411031958001***********                                              1605
A2401400180411043200001DYNAMIC FORCE SECURITY AGENCY                            0510
B2401400180000000019769WILL & JOE AGGREGATES, INC.                              1605
A2401400180000005536621BANTUG, IMELDA MARAVILLOSA DBU                           0506
A2401400180000010066274LORENZ MACHINE INDUSTRY                                  0505
A2401400180411442136088***************                                          0501
A2401400180411564736001CATULPOS, ELMER VILLEGAS OR                             10510
A2401400180411564736001CATULPOS, YELCY YASAY                                   20500
A0101403030441241050001**********                                               0503
B0101406330472021511003ASSOCIATED WIRE CORP. OF THE PHILS.                      1605
A0101406330472035160001QUICKFIRE METAL FABRICATION                              0501
A0101412760000002067603BAWAR, MARIA THERESA DIZON                               0501
A1901400160000009054991BERBERABE, DANILO MARCAIDA                               0502
B1401400110492027100002SACRED HEART COLLEGE                                     1601
A1401400110492041611001BLUECLICKER COMPUTER CENTER                              0505
A1601400170000000421092RUBEN C. UY OR                                          10505
A1601400170000000421092EVA A. UY                                               20500
A0101403580511683480001SANTIAGO, LEAH ABIGAIL PINEDA                            0502
A0101405940000001209892JIMMY M. ROSALES                                         0501
A0101408530000001885954CRUZ, MARIA LUISA RECTRA                                 0501
A0101411790518055815074PANIS, RONA VANESSA LACHICA                              0501
A0101403450521238268001**********                                               0502
A0101403450521239688001**********                                               0502
A0101403450521393983001**********                                               0501
A0101403610000011246756FURAGGANAN, GENE CALAGUI                                 0501
B2201400250561013172001INTERNATIONAL WIRING SYSTEMS                            11650
B2201400250561013172001PHILS. CORP                                             21600
B2201400250000001065963EXCITE AUTOMOBILES, INC.                                 1605
A2201400250000001545580MEMBERS OF NATASHA (SHOECAT INC                         10501
A2201400250000001545580GAUDIOSA A. WAGE                                        20500
A0101410690000000061834IQBAL, BERNADETTE G.                                     0502
A0101410690000000478962LIM, PAULINO CHU DBU COLTMASTER                          0505
A0101404130000002121157MIRANDA, FRANCIS GERALD SANTOS                           0501
B0101404130601100161001PRUDENTIAL CUSTOMS BROKERAGE SERVICES,                  11610
B0101404130601100161001INC.                                                    21600
A0101407720602396333001RAJAGUKGUK, BELEN PANTANGCO                              0501
B0101407720602463868001MAKATI HEALTH SPECIALIST CONNECTION,                    11601
B0101407720602463868001INC.                                                    21600
B0101407720602463868002MAKATI HEALTH SPECIALIST CONNECTION, INC                 1601
B0101412180000008320103VERTICAL SPACE INTERIORS, INC                            1610
A0101404260611451653004SUNGA, NERY OCAMPO                                       0510
A0101409890000003098213AQUINO, VIL DBU JOVAROM                                 10502
A0101409890000003098213COMMERCIAL                                              20500
A0101413440655055766001MIRANA, DOLLY D. DBU NINI AND                           10502
A0101413440655055766001STITCH GARMENTS                                         20500
A0101414120000006864442VALDEZ, EMERSON V. OR                                   10502
A0101414120000006864442INOCENCIO, EDWIN                                        20500
A0101414120000006005390EVANGELISTA, IMEE MALAGAYO                               0502
B1301400210682012661001BULACAN PUBLIC SCHOOL TEACHERS                          11605
B1301400210682012661001 ASSOCIATION                                            21600
A1301400500684594780002CASTRO, RAYMUNDO OR                                     10503
A1301400500684594780002CASTRO, ROSEMARIE                                       20500
A1701400230000005694142RACCA, SOCRATES CACAYURIN                                0503
A1701400230000008555302TUNAC, MARTIN VIERNES                                    0502
B0101408240000000832757RARE GLOBAL FOOD TRADING CORP.                           1605
A0101408240711375498001CONRADO OR JOSEFINA OR GRACE                            10502
A0101408240711375498001OR GILDA SANTIAGO                                       20500
A0101408240711395808001HERMENEGILDO P. MANZANO JR. OR                          10502
A0101408240711395808001NORMA Y. MANZANO                                        20500
A0101408240711561474001LAKANDULA, CHRISTINE LOLO                                0501
A4101400420000000710256TEODOSIO, CECILIA BILACAOL                               0501
A4101400420814520766012SUSAN B. MALBOG                                          0501
A4101400420814520766027ARUTA, CORAZON G.                                        0501
A4101400550000003839065PENA, GERRY SANTOSIDAD                                   0501
B0101412340000000030888WIT AUTO GROUP CORP.                                     1603
A0101406750000006303588CHUA, LEA THERESE LUCRECIA CANT                          0501
A0101406750000007879267MAALLO, ROWENA MAGANDA                                   0501
A0101406750852451505003ROY, ZENAIDA ABERIA                                      0501
A0101406750852582771001DIMAPILIS, CARMINA BLANCAFLOR                            0502
B0101405070000006005965LEBRIA TRANSPORT AND ALLIED SERVICES                    11610
B0101405070000006005965CORP                                                    21600
B0101413860000007953891CON-PAC WAREHOUSING INCORPORATED                         1601
B0601400230891008843001BASIC HOUSING SOLUTIONS, INC.                            1602
A0601400230000002650108TUAZON, REMIGIO ESCANO                                   0501
