A0101400310000000140809*************                                            0501
A0101410560000000268320BALTAZAR, BEATRIZ POLO                                   0501
A0101408370000000335511MONTEROZO, MERLYN RIVERA                                 0501
A1901400320000000679261JANE MARIE GONZALES PANGANIBAN                           0501
A0101406880000000745033NATIVIDAD, HELEN BAYONA                                  0502
A0101412760000000767897************                                             0502
A0101405650000000772914PAMINTUAN, MARIFER CABIGAS                               0502
A0101410850000000778805MENDOZA, MARIE MELODY ISLES                              0501
A0101402480000000794481***************                                          0501
A0101412050000000890882********                                                 0502
A0101401250000000907211CORRALES, RITA M.                                        0502
A1001400350000000922343VALLEDOR, MARY ANN JABINIAO                              0501
A6601400120000001065281ECHALUCE, RAFAEL OR MYRNA                                0503
A0101413310000001073585CHEN, CHARLENE JIM                                       0501
A0501400200000001081054RAMOS, TORIBIA RODRIGO                                   0501
A0101409920000001539664PALINES, NANCY ARMINIO                                   0501
A0101401090000001618997GADIANA, LENY GUTIERREZ                                  0501
A0101414120000001751435ROGELIO F CRUZ CONSTRUCTION                              0504
A1201400150000001863265TAULI, VON RYAN T. DBU T.R.V. E                          0504
A0101408530000001886086DENVER A. SISON                                          0501
A0101410140000001939871MARIANO, REBECCA ISAGON                                  0501
A4101400420000002084631MANICIO, MARIA ARMI ORTEGA                               0501
A0301400790000002301768QUILOS, MARICAR ONG                                      0501
A4101400550000002344156OCAMPO, MIGUEL SANTOS                                    0501
A0101408110000002364683VILLAS, NOEMI EDISON                                     0501
A0101400310000002659761MARCIANO, NOEL DBU BBMARCIANO C                          0505
A0101413570000002906578DIVEREP GENERAL MERCHANDISE                              0501
A0101400150000003197711ANN MAY C. MERCADO                                       0501
A0101407270000003253905ANA ISABEL B. DIAZ                                       0505
A0101412340000003349331ROCELL H. TUMBAGA                                        0501
A0101409050000003535077BUENAFLOR, MARIA BIANCA YAP                              0501
A0101411660000003580163MA. SOCORRO P ANGULO                                     0501
A0101411660000003580301MARIA INEZ G PACIA                                       0501
A0101411660000003580323JENNIFER C TALENS                                        0501
A0101411660000003580352CONRADO D VIDAD JR.                                      0501
A0101414120000003584150NICOLO-MARTIN MARKETING                                  0501
A0101404000000003707128MARIA CRISTINA M MARTIN                                  0501
A0101400860011495265001**********                                               0502
A0101400150061055752088MARIA CARMEN AGUIRRE                                     0502
A0101400150061080044001ALDABA, LOVE ANNE CARMEN ASTETE                          0501
A0101400150061229054001RAYMUNDO L. LOGAN                                        0502
A0101400150061434587001CENTENO, REYNALDO MAGTOTO                                0501
A0601400100081605598001AYSON, RINA CRISOSTOMO                                   0501
A0101400730111478374101MEILING L. CO                                            0502
A0101401960121285558001**********                                               0501
A0101401090171336393001REBECCA R. ABRILLA                                       0502
A01014003102114783740340BSIOMA, ARMANDO                                         0502
A0101400310211722479002MARTICIO, BONIFACIO CUACHIN                              0501
A0101411820277775683001**********                                               0503
A0101402480331478374098VILLAFRIA, JOCELYN A.                                    0502
A0101408820333625864001******                                                   0502
A0101402060351553377001ALVAREZ, JACQUELINE BARRION                              0501
A0101402640361340310003***********                                              0501
A0201400920375478374016CERBO, SHAMIR LOU CAGAIS                                 0501
A0201400920375635534001CANETE, JANET YOSORES                                    0502
A0101408370382211811001DR. SHARON CATING LIM                                    0501
A0101408370382288390002DR. ALFONSO U. BENGZON                                   0502
A0101408370382410095001DR. EDNA C. BANTA                                        0505
A0101408370382413688001DR. CHRISTY S. YAO                                       0501
A0101408370382550885001DR MARIA ROSEMARY N SAN MIGUEL                           0501
A0101405490392713110001PATRICIO D. SUNGA II                                     0502
A0101403320471466952001NESTOR RYAN M. AGUILA                                    0505
A0101405940512368799002LASALA, LANI SALVADOR                                    0502
A0101404130601339889002HODREAL JR., JOSEPH MATIAS                               0503
A0101407720602396826002REMEDIOS G. SUNTAY                                       0502
A0101407720602780335001ABAYA, MA. LUZ VIRGINIA SUNTAY                           0502
A0101404260611337876002CHING, ROSA MATIAS                                       0503
A0101404260611491692001EDGARDO M BALANI                                         0501
A0101404260611566317001LUZON, HEIDE JOSUE                                       0502
A0101411530654089400002**********                                               0501
A1301400340683678684001BAGOAN, MAOKI IBRAHIM                                    0501
A0101407560686047352001MBC CYCLE SOLUTIONS INC.                                 0502
A0101407560686347562001**********                                               0502
A4101400260812478374031ANGELINA P. TAN                                          0501
A4101400420814335947001VILLAR, PERLA RODRIGUEZ                                  0501
A0101404260000000156892RENDOQUE, CARMELITA                                     10501
A0601400360000000225261CAYANAN, REYNALDO MERCADO DBU                           10503
A0101400310211799830001ESPIRITU, EDGAR DBU CHRISTIAN                           10502
A3101400160221220150002ANGELITO LAZARO OR MARCIANO PUA                         10502
A1001400350233528399003KO, JOSE NELSON AND                                     10502
A1001400350233528978001MONNETTE GUANGCO OR                                     10501
A0101400570281043930002REALTY & ENTREPRENEURSHIP                               10501
A0101408370382212341001ENGR. LEORICO E. SAMONTE OR                             10501
A0101408370382527533001MARIVIC C AGULTO-MERCADAL OR                            10502
A2401400180411478374061JUNRES AGAD OR                                          10501
A1201400150421397888001GO, BRIAN SY OR                                         10501
A0101407430503181551001DICKSON R. ESCOLAR OR LOURDES                           10501
A0101407720602399815001ALEJANDRO, RUTH MARGARET                                10501
A4101400550815693134001LLANES, TUDOR HERNANDEZ OR                              10501
A0101404260000000156892DBU NATURES BOUN                                        20500
A0601400360000000225261RMCAYANAN ENTERP                                        20500
A0101400310211799830001PRINTING                                                20500
A3101400160221220150002OR LEONILO ERCIA                                        20500
A1001400350233528399003KO, CHARMAINE                                           20500
A1001400350233528978001HECTOR GUANGCO                                          20500
A0101400570281043930002ACADEMY OF THE PHILIPPINE                               20500
A0101408370382212341001DR. CRISTINA C. SAMONTE                                 20500
A0101408370382527533001GERARD RYAN T MERCADAL                                  20500
A2401400180411478374061NORMELITA BLANCO                                        20500
A1201400150421397888001GO, CYNDY SY                                            20500
A0101407430503181551001OR MARY ANN ESCOLAR                                     20500
A0101407720602399815001FRANCISCO                                               20500
A4101400550815693134001LLANES, PRESCILLA CARRIDO                               20500
B0101404000000000025583CASTLE PINES HOLDINGS, INC                               1601
B0101400150000000052731UNICAPITAL FINANCE AND INVESTMENTS                       1605
B0101412180000000075363CAPSTONE CREATIVES SOURCE CORP.                          1603
B0101400440000000337773VIENNA PORCELANA PHILS. INC.                             1610
B0101400440000000337791TOPCOM SECURITY AGENCY INC.                              1605
B0101414120000000399151POWER PULSE, INC.                                        1602
B0101405070000000428966ONEWORLD ALLIANCE LOGISTICS CORPORATION                  1610
B0601400360000000978936THE MEDICAL CITY CLARK, INC.                             1603
B4101400260000001199106H3 CONCRETE BUILDERS INC.                                1610
B0601400100000002099243ECOHYGIENE SALES INC.                                    1603
B0101400150061028364002UNICAPITAL INC.                                          1605
B0101400150061447303001TANY FOUNDATION, INC.                                    1603
B0101400730111008255001MASAGANA TELAMART, INC.                                  1605
B0101400440161044506001STAR COMMANDER SECURITY AGENCY, INC                      1605
B0101400310211027981001GLASSTEMP INDUSTRIES CORPORATION                         1602
B0101400310211029312004STO. NINO PARISH SHRINE                                  1610
B01014003102110421380011250 DEVELOPMENT CORPORATION                             1603
B0101400310211046817001LINKS & VISIONS, INC.                                    1601
B0101407140213047430001BIG RED DIGITAL IMAGING                                  1602
B1301400470252030548001CABANATUAN JAC MARKETING CORPORATION                     1605
B0101406460272015262001*********                                                1602
B0801400160311040546001RACSO'S WOODLAND INLAND RESORT                           1605
B1101400120313036429001PERPETUAL HELP MULTI-PURPOSE COOPERATIVE                 1601
B0101402480331016270001NATION PAPER PRODUCTS & PRINTING CO                      1610
B0101402480331035791003****                                                     1601
B0101402480331045393001WORLD CHAMPION MARKETING CORP.                           1625
B0101408950396046715001PRIMELINK INSURANCE AGENCY, INC.                         1605
B0901400220432014409001MARCIAN GARDEN HOTEL                                     1610
B0101408530516005188001SEARCHERS & STAFFERS CORP.                               1605
B0101408530516524823001SL TEMPS INC.                                            1605
B0101404420631030262001LICA GAS CENTER                                          1602
B1301400210682245013002JAIME K. CRISOSTOMO                                      1601
B4101400550815038465004SOUTH EAST ASIAN MEDICAL CENTER INC                      1630
B0101412340850047786001SAINT ANTHONY SCHOOL OF LOS BANOS INC                    1610
B0101400440000000337762SUPREME COMMANDER INVESTIGATION AND                     11605
B0101412500000000739737MIKEWELL WORLD OF HOUSEHOLD PRODUCTS                    11605
B1301400340000000981933DUNGO, DOLORES LOZADA DBU DOLLY                         11601
B0101400150061043190001NORTHERN STAR ENERGY & FUEL DISTRIBUTION                11605
B2401400180411014376006PENBANK, INC. (A PRIVATE DEV'T BANK) -                  11605
B0101407560686042538001SQUARE-D FABRICATOR & CONTROL SYSTEMS                   11603
B0101400440000000337762SECURITY AGENCY                                         21600
B0101412500000000739737CORPORATION                                             21600
B1301400340000000981933DIANNE GARMENTS                                         21600
B0101400150061043190001CORPORATION                                             21600
B2401400180411014376006FISHPORT BRANCH                                         21600
B0101407560686042538001ENTERPRISE                                              21600
B0301400790195821100608**********                                               2002
B1301400470252821100608**********                                               2003
