B0101402480331821100608**********                                               2010
A4101400390000003389491MALAJITO, ERLINDA SERRANO                                0501
B0601400100000005690553SUBIC FORTUNE HONGKONG SEAFOOD REST.                     1603
A0101401670271745163001ONG, CHRISTOPHER ALLAN L. OR                            10501
A0101401670271745163001ONG, ANNA LISA C                                        20500
A0101408400000001855449D'CUPBEARER ACCOUNTING FIRM                              0505
A0101403320000001803418MARIANITO CRUZ OR                                       10501
A0101403320000001803418JULIETA CRUZ                                            20500
A1701400230693510832001DUQUEZ, ROBERTO AQUINO                                   0503
A0101400860011298552007MA. TERESA N. MERCADER                                   0503
A0101400860011397165002**********                                               0503
A0101400860011468776001**********                                               0502
A0101400150000003162392CLAUDINE M. AMATA                                        0501
A0101400150000006759900GONZALES, KATHERINE                                      0501
B0101400150061044903001I-GATEWAY MOBILE PHILIPPINES, INC.                       1605
B0101400150000000052731UNICAPITAL FINANCE AND INVESTMENTS                       1605
A0101400150000005015690MARTINEZ, CARMEN FAIGAL OR                              10501
A0101400150000005015690MARTINEZ, GILBERT OLANO                                 20500
B0101400150061226498001CYCLOPHIL EDUCATIONAL PROMOTION                          1602
A0101400150061329718004ZABALETA JR., JOSE MARIA PONS                            0501
A0601400100081254005001TANGLAO, CARMELO OR                                     10501
A0601400100081254005001TANGLAO, MARILOU                                        20500
A0601400100081255031002JOEL, PETER L.                                           0502
A0101401960121285558001**********                                               0501
A0101413150000001688582****                                                     0501
B0101401120131821100608**********                                               2002
A0101413310000000863992VICEO, CARLOS ESTANISLAO OR                             10501
A0101413310000000863992VICEO, AIDA GUILLERMO                                   20500
A0101400440000002035176MYRA M. OBANA                                            0501
A0101400440161520766184MA. RENITTE D. ROMA                                      0501
B0101407270000004558367SANTIAGO, DAREEN DEL MONTE DBU CNDS                      1602
A0101407270162203614002ROBERTO LEYBA                                            0501
A0101407270162387970001******                                                   0503
B0101401090171007887001MEDICAL MISSIONS INC.                                    1602
A0101401090171203461002LEAH SOCORRO N. RIVERA OR                               10502
A0101401090171203461002ESTELA RIVERA                                           20500
A0101401090000001618913EMMANUEL M. BATULAN                                      0501
A0301400530000003573562VILLAMOR, CONNIE DELRIO                                  0502
B0301400530000000025356RAZONABLE, MARILOU DBU VICTORY                          11601
B0301400530000000025356JAM AGRI BUY AND                                        21600
A0101401380000005320989DELA CRUZ, ANNALYN ONOFRE OR                            10502
A0101401380000005320989DELA CRUZ,REYNOLD JIMENEZ                               20500
A0101413020000000038264FELICIANO, JASPER SUCGANG                                0502
A3101400160000000429156SOSMENA, JONATHAN A OR                                  10501
A3101400160000000429156SOSMENA, AILEEN                                         20500
A3101400160221386295002ROBERT J. BANATIN                                        0501
A1001400190231478374128BONIFACIO, LIZA                                          0501
A1001400350233653580001EVELYN OH OR EDWARD OH OR                               10503
A1001400350233653580001EDMUND OH                                               20500
A1301400470252634995001LOUISE L. ANG AND LOED L. ANG                            0510
A0101406620273315888001LAUREL, JOANNA OR LAUREL, CARLA                         10501
A0101406620273315888001LAUREL, CARLOS O                                        20500
A0101408660274478374013HERRERA, CHRISANTINA DOMINGO                             0502
A0101412470000002295770TIQUIA, MA. LOURDES NAVARRO                              0501
A0101412470000002295883ALMARIO, LILA REGINA OR ALMARIO                         10501
A0101412470000002295883MARIA REGINA                                            20500
A0101400570281186611001EMERITA R. DOMINGO                                       0502
A0101411240000001026851MARQUEZ, YOLLY MONTESA                                   0502
A0501400200000004456957COBARDO, LEVI DAGSAAN                                    0501
A0501400200000002306138FERNANDEZ, RENE PACIS                                    0501
A6601400120000001370592DESTURA, MARLO VILLARAZO                                 0503
A3401400280000003309220ACIELO, REGINA CAMACHO                                   0501
A0101402060351211820001ROMUALDEZ, RAFAEL OR ANTONIO OR                         10503
A0101402060351211820001CRISTINA OR MART                                        20500
A0201400760000000989693UY, VINCENT JOHN GOKIANGKEE                              0501
A0201400760000000989706SORIANO, ADRIAN IBAY                                     0502
A0201400760374041860001ONE URBAN CONSTRUCTION                                   0501
A0201400890000000973451SANCHEZ, EDGAR LIM                                       0501
B0201401020000005109900CEBU DULCINEA HOTEL AND SUITES INC.                      1601
A0101408370382205119001DR. FLORANTE P. GONZAGA                                  0502
A0101408400000006129222HUMPHRIES III, RICHARD WILLIAM                           0501
A0101408400394378428001SEVILLA, RAINALDO MEJIA OR                              10501
A0101408400394378428001JOSEPHINE SEVILL                                        20500
A0101408400000003120703DATUMANONG, JOHAIRAH CAMAMA                              0501
A0101409180000003310210SANTIAGO, REGINA SANTOS  OR                             10501
A0101409180000003310210SANTIAGO, JOEL GURBUXANI                                20500
A0101409210398047601001LAMONTE, E DBU YOB AND ERIN                             10501
A0101409210398047601001GLASS ENTERPRISE                                        20500
A5501400120000002019090PENDON, NIXONLIE PASTRANA                                0504
A5501400120000002949611GREENROCKS ENGINEERING SERVICES                          0502
A24014001800000055365121ROSERV AUTO AND ARCHITECTURAL                          10501
A2401400180000005536512GLASS SUPPLY                                            20500
A0101403320000001803189KHONG HUN, ARMANDO OR KHONG HUN                         10503
A0101403320000001803189MARY KATHLYN                                            20500
A0501400170000005002953ORFINADA, TERRY A. OR                                   10501
A0501400170000005002953ORFINADA, ALBERT                                        20500
A1601400170000000099183RUFINO D. AMANTE                                         0502
A0701400260000001804746DY, EMMA LIM OR DY, STANLEY ONG                          0505
B0701400260000000671016AKBAYAN BICOL DEVELOPMENT (ABD), INC.                    1605
A0101405940512401022002JENNIFER P. FERNANDEZ                                    0502
A0101405940000001534269**********                                               0501
A0101408110515041358001MADE IN HEAVEN ENTERPRISE                                0501
A0101411790518055764070BURON, LORIE MARGARITA FUERZAS                           0501
A0101403450000001769811*******                                                  0501
A0101404000000003950798VERCELES, LEILA BUENCONSEJO                              0501
A0101404000000003853138AQUINO, LAARNI MILAN                                     0501
A0101404130000001831692***********                                              0502
A0101404130601520766001MANEJA, ELIZA T.                                         0501
A0101404260611005236004WILTRON ELECTRONICS                                      0502
A0101409920000005460726TOLENTINO, ANGELICA G. DBU A.G.                         10502
A0101409920000005460726TOLENTINO TIRE RECAPING                                 20500
B0101406590662036200001SAMUEL T. AGUSTIN II CONSTRUCTION                        1603
A1301400500684593458001JOSE MARI D. ARCEGA OR                                  10505
A1301400500684593458001MUREECUNI C. ARCEGA                                     20500
A1701400230693478374056ROSQUITA, RUENA PILAR                                    0501
A0101408240711777391001VALERO, ROUMEL DELA ROSA JT                              0501
B2801400230000005253561PRAGMATIC DEVELOPMENT & CONSTRUCTION                    11605
B2801400230000005253561CORP.                                                   21600
A4101400260000003680073AYUSTE, PRINCESS PENALOSA                                0501
A4101400260812246408001NORBERTO VISBAL OR                                      10501
A4101400260812246408001BELLA VISBAL                                            20500
A4101400390813248327001SARIEGO, DANILO BAGONA                                   0501
A4101400390813333041001MARIO C. GENUINO,JR.                                     0501
A4101400420814506413001IBIAS, JOSEPHINE OCAMPO OR                              10501
A4101400420814506413001IBIAS, SEGISMUND                                        20500
A4101400420814520766061ESTILLERO, SUSANA O.                                     0501
A0101404840000003069823HERMOSO, JOYETTE CARDENO                                 0501
A0101406750852241118001FLORES, JOY                                              0501
B0101406750852474662001SECURITY MARKETING & PEST MANAGEMENT                    11603
B0101406750852474662001INC.                                                    21600
B0601400230000002649927MJ EXPRESS CREDIT INC.                                   1605
A0601400230000002650171SANTOS, K DBU ADRICH ENTERPRISE                          0501
