B0101411530654821100608**********                                               2001
A0101411530000005493610**********                                               0504
A2901400130000005961140REYES, ERNIE CEZAR                                       0502
A0101400600000005942463******                                                   0505
B0101403320471032147001MEDZ SHOES CORPORATION                                   1601
B0101403320471040565001HUMAN SHELTER REALTY CORPORATION                         1603
A0101403320471207895001AMBROSIO OR JOSEPHINE TOBIAS                            10501
A0101403320471207895001OR MARK ALVIN TOBIAS                                    20500
A0101403320471207895001AMBROSIO OR JOSEPHINE TOBIAS                            10501
A0101403320471207895001OR MARK ALVIN TOBIAS                                    20500
A0101414120000006864442VALDEZ, EMERSON V. OR                                   10502
A0101414120000006864442INOCENCIO, EDWIN                                        20500
A4101400420000003715495GREGORIO, JOMER BENSING DBU CJG                         10502
A4101400420000003715495DIGITAL MARKETIN                                        20500
B4101400420000009391933RITA SAMSON MEMORIAL GARDEN, INC.                        1605
A0101400860011435365001**********                                               0506
A0101400860011553516001**********                                               0505
A0101400860011685244001BANDIOLA, SIDNEY MORALES                                 0501
A0101400860011737873001**********                                               0502
B0101400150061038004001MENZI TRUST FUND, INC.                                   1606
A0101400150061055752087PATRICIA ANN V. CELIS                                    0503
B0101400150061228665001MALAYAN TOWAGE AND SALVAGE CORPORATION                   1610
A0101400150061231807001REGINA C. BUENAVENTURA                                   0501
B0101400150061505436001NICKEL ASIA CORPORATION                                  1603
A0101405810072319037001**********                                               0501
B0101405810072424277001***************                                          1601
A0601400100000006092639ARRIBE, BAZIL CHRISTIAN FORTUNA                          0501
B0101401960121240191002**********                                               1603
B0101412630000002186461********                                                 1610
B0101412630000002186530**********                                               1603
A0101413310000001794512EMBRADURA, MA. KRIJANES V.                              10501
A0101413310000001794512EMBRADURA, RYAN V.                                      20500
B0101413310000006144652FUTURISTIC AVIATION AND MARITIME                        11602
B0101413310000006144652ENTERPRISE INC.                                         21600
B0101401830141043121002ASIA DIRECT CONSOLIDATORS INC.                           1610
B7201400170000003773455LORENZO F. TAN OR VICTORIA C. TAN                        1601
A7201400170000010853091GILBERT R. LAGAS OR                                     10501
A7201400170000010853091BEVELYN C. PALER                                        20500
B7201400170000003773637MDSDOC CORPORATION                                       1601
A0101401090171196220003DR. IMELDA S. DAVID                                      0506
A0101401090171203087001MARICEL M. SALVA                                         0501
A0101401090171694830001LILY CHUA AFRICA OR                                     10502
A0101401090171694830001LANI D. TAN                                             20500
A0301400530000005691170AMING, MERIAM OCAMPO                                     0501
A0301400660194304371001*****                                                    0520
A0301400790000005691990EMBALSADO JR., ALBERTO GEMPESAW                          0502
B0101401380201018537001VELUZAR(PASAY) INC.                                      1601
A0101401380000000414286********                                                 0510
A0101413020000000057003********                                                 0501
B0101410720000000968163PROPERTY 101 INCORPORATED                                1602
A3101400870000000957757BALLESTER, RAQUEL DEL ROSARIO                            0502
A3001400130000000068211BATTAD, ARNULFO RICAFORTE                                0502
A3001400130000001271727GSP ENTERPRISES                                          0510
A1001400480000003357715OCERO, SHERLITA TUPAS OR OCERO                          10502
A1001400480000003357715MAUREEN ECHAVEZ                                         20500
A1301400760000002346129JIMMY C. CENA                                            0502
A0101401670271228042001TINIO, JUAN ANGEL LIGON                                 10501
A0101401670271228042001OR TINIO, MARIA CELESTE                                 20500
A0101401670271518087001* * * * * * *                                            0501
B0101401670271821200608**********                                               2003
A0101406620273577282001LUMIBAO, RICA RIVERA                                     0502
A0101406620273720692001******                                                   0502
A0101400570281318871002REYNALDO OR MERCEDES OR                                 10503
A0101400570281318871002HERMENEGILDO VEN                                        20500
A0101411240000010826769EVITE, SAMANTHA ESPANA                                   0501
A2601400270302555372001**********                                               0505
B34014002803187788881680318778888168                                            1605
A2901400130000005961395LIMA, ELAINE TRIESTE                                     0505
A0101402350000005644806LAVINA, CRISTINA ANDREA ORTIZ                           10501
A0101402350000005644806OR LAVINA, RONALD RAY S.                                20500
A0101402350321478374059BERNARDITA D. LOPEZ                                      0501
A0101405650000001377260ARCEO, LUCIA L. OR                                      10501
A0101405650000001377260ARCEO, NOEL REMIGIO L.                                  20500
A0101402510000010100753**********                                               0501
B0101402510341196738001BERNARDO MAINTENANCE SERVICES                            1601
B0101402060000006931822ASSURANT MANAGED SOLUTIONS INC.                          1603
A0101409050000002333211JOSEPH BRYAN ASUNCION                                    0501
B0201400920000000007974NEW YUTEK HARDWARE  & INDUSTRIAL SUPPLY                 11610
B0201400920000000007974CORP.                                                   21600
B0201400920375731987001*******                                                  1602
A0201401020000003031129DEL PRADO, JOSE VICE DBU DE LAR                          0502
A0101408370382407309003JOHANN MICHAEL G REYES DBU                              10501
A0101408370382407309003JMGREYES EYE CLINIC                                     20500
A0101408370382482271001DR. LARRY V. ACUNA                                       0502
B0101402770391033539001VICTORIA VALLEY ASSOCIATION, INC.                        1602
A0101405490392177005001DOMINGA P. BUENAOBRA                                     0501
A0101405490000001092751MARIA TERESINA G. MESINA                                 0501
A0101405490392481659001MARITES Q. FACTURA                                       0501
A0101409210000001024202DIMALIUAT JR., RENE EDUARDO ALD                          0504
B01014092100000000313186-24 PROPERTY HOLDINGS, INC.                             1605
B0301400820409091735055LIMA, WINDELL BRISTOL DBU DAVAO HOME                    11601
B0301400820409091735055BUILDERS CENTER                                         21600
A5501400120000009875570SUENO, JOCELYN BERNARDO                                  0503
A2401400180000003949140UY, RUBING SIOCO                                         0502
A2401400180411495221001MANUEL JR., ANTONIO VILLANUEVA                           0502
A1201400150421329098001NENITA D. TANGONAN                                       0502
A0101403320000010851328CRUZ, NARCISO CRUZ OR                                   10501
A0101403320000010851328CRUZ, AURORA BENAMER                                    20500
A0101410140000010760302MAGTOTO, ESPERANZA LAXAMANA                              0501
A0501400170481043466001RUSKIN MARKETING                                         0505
A1901400320000002296108MARILYN M BERBERABE                                      0503
B1401400110492028896002CARLOS DRUGS-LUCENA, INC                                 1601
B0101407430503027791001XIMEX DELIVERY EXPRESS INC                               1605
B0101403580511005406001SHINRYO (PHILIPPINES) COMPANY INC.                       1605
B0101403580000000922883UXMNL INC.                                               1603
A0101403580511153109001ARTHUR P. ISRAEL                                         0503
A0101403580511327851001MARIETA G. DEL ROSARIO                                   0501
A0101403580511406129001ROLANDO ORTIGOSA OR                                     10503
A0101403580511406129001SUZETTE ORTIGOSA                                        20500
A0101405940000005359771**********                                               0501
A0101405940000007540641FELIPE, DARMO SANTIAGO                                   0503
B0101405940512005329001TRIANON INTERNATIONAL, INC.                              1610
A0101411400000003750598DR. TWINKY D. BELINO                                     0504
A0101411790000000039303GAN, JOSEPHINE DELA CRUZ                                 0501
B0101412050000007801552NORTH ASIA CENTRAL MANPOWER SERVICE                      1605
A0101403610531182250001NERECENA, SYLVIA S.  OR                                 10502
A0101403610531182250001NERECENA, SHIRLEY S.                                    20500
A0101403610531430756002GERTRUDES A. SALVADOR OR                                10502
A0101403610531430756002LEONOR A. HADUCA                                        20500
A0101403610531762081001MIRANDA, SUSAN ESPINILI                                  0501
B2201400250561016108001TARLAC ELECTRIC INCORPORATED                             1602
B0101407720602005874001DOOR OF HOPE COUNSELING                                 11602
B0101407720602005874001RESOURCE CENTER                                         21600
A0101407720602340866001HONG, CRISTINA CHO                                       0501
A0101407720602398283001JOEL A. DE LA ROSA                                       0505
A0101407720602658355001GAMBOA, ARVIN JOSEPH REYES                               0504
B0101404260000008700721SYNERGOS PASSION ASIA, INC.                              1602
A0101409890649723947002**********                                               0501
A0101409920650478374011MELFLOR M. SILVINO                                      10501
A0101409920650478374011MEMBERS OF NATASHA                                      20500
A0101409920650478374012CATUBAY, GLORIA JIMENEZ                                 10501
A0101409920650478374012MEMBERS OF NATASHA                                      20500
A0101409920000007304787***********                                              0502
B0101407690652041404001AUBURN POWER TECHNOLOGIES INC.                           1601
A0101407690000000154750BARANGAN, ROMEO DBU                                     10505
A0101407690000000154750BARANGAN TRADING                                        20500
A0101407690000001919902OSTREA, MARILOU DBU M. ZOILO                            10502
A0101407690000001919902TRADING                                                 20500
A0101411530654081272001DE ALBA, YOLANDA LIMBO                                   0501
A0101411530654081803001REYES, GAIL MARGARETTE                                   0501
B0101413440000001085661INOCENTES REALTY & SALES CORPORATION                     1602
A0101413990000006278113VARONA, HENRY ALABADO                                    0501
B0101414120000004603398WEBLEND INC.                                             1601
B1301400210000005041007***                                                      1602
A2801400230000001782130GOLDEN STATE ALUMINUM GLASS &                           10504
A2801400230000001782130GENERAL MERCHANDISING                                   20500
A4101400420000004848051MEMBERS OF NATASHA (SHOECAT INC                         10501
A4101400420000004848051ROSALES, NOEMI A                                        20500
A0101412340000005165059JOANNA MARIE A. TORREDA                                  0501
A0101404840000008871423LACHAONA, MA THERESA ABLANG                              0502
A0101404840851520766122NENA REUTEREZ                                            0504
B0101404840851821200608**********                                               2001
A0101406750852673534001TOLENTINO, DEBORAH SARAH D OR                           10502
A0101406750852673534001DE LEON, RUBEN L                                        20500
A0101405070861579475001SY, MICHAEL TIU                                          0501
B0601400230891039268001GOLDIE PLUS LENDERS, INC.                                1605
A0601400230891615142001XERXES C. EVANGELISTA                                    0501
A0601400230000000452840GOZUN, R-JAY RAMOS OR                                   10505
A0601400230000000452840GOZUN, MYRNA RAM                                        20500
B0601400230891647141001PATERNO &/OR MA EVANGELINE LUCIANO OR                   11605
B0601400230891647141001JOANNE K PALO                                           21600
