A0101412890000002747824************                                             0501
B0101414120000003584281JD & P FOOD TRADING CORPORATION                          1602
A0101414120000001427623MONTERO, ISABEL EGUIA                                    0501
A4101400550815693134001LLANES, TUDOR HERNANDEZ OR                              10501
A4101400550815693134001LLANES, PRESCILLA CARRIDO                               20500
A0101400150000003322443RICHARD B. VILLANUEVA                                    0502
B0101400150061010736001SPCASTRO, INC.                                           1605
B0101400150061015841002ENZIMA INTERNATIONAL, INC.                               1602
B0101400150061021674001JR & R DISTRIBUTORS, INC.                                1603
A0101400150061039916166REYES, ROCKY OR REYES, SOLEDAD                           0501
B0101400150000001708403NEGROS ISLAND SOLAR POWER INC.                           1603
A0101400600000001335648********                                                 0502
B0601400100081029282001L5 & SONS FINANCING CORP.                                1605
B0601400360000003186907MEDINA FLORES PALARCA & OFRIN                            1601
A0101400730000002882313YAP JR., ENRIQUE YNSON                                   0501
A0101400730111520766060MONTILLA, BONIFACIO VIRAY                                0501
B0101406040112017780001ASSOCIATED WORKERS UNION                                 1610
A0101401960000002331813LADARAN, LANI VILLANUEVA                                 0501
A0101401960000001844475****************                                         0505
A0101401960121614040001SY, EDERICK MELITON TONG                                 0501
A0101413310000004735757ENANO, MARIEL PINKY SERWELAS                             0505
A0101413310000008659594VILLAMIN, ELOISA GONZALES                                0501
A0101401830141066761001GRACIAS,NELESA DBU KEVIN JAMES                          10501
A0101401830141066761001REF & AIRCON SERVICES                                   20500
A7201400170000003774276TOLENTINO, ELENA TUDTUD                                  0501
A7201400170000003773142CARBONEL, JOHN PICO                                      0502
A5001400170000002288253YU, LEONARD OLIVAR                                       0502
B5001400170000000169802ZORAYDA LENDING SERVICES CORPORATION                     1603
B0101400440000002846611LIBERTY SERVICE PROVIDER INC.                            1605
A0101400440161188224002MA. AGNES B. BINAG                                       0502
A0101407270000009673469BITARA, JULIET RECELESTINO                               0501
A0101401090171661846001ALEJANDRO S. BERNARDO                                    0502
A0301400530000002318509********                                                 0502
B0301400530000003573528RD PAWNSHOP, INC.                                        1605
B0301400790000008015001PILAY, ROMANITO B DBU ST JOHN OF THE                    11602
B0301400790000008015001CROSS HOSPITAL                                          21600
A0101401380000001412526********                                                 0501
B0101410720653561759001KNOX.COM CORP.                                           1602
A0101410720000000234808TONDO, NYCA DALAWAN                                      0502
A3101400160000002355893CHIPECO, ROLANDO MONTANANO                               0501
A3101400450000000014024TAN, ANALIZA SIO                                         0501
A3101400450223223458004ALVERO, LEAH AURORA TOLENTINO                            0501
B3001400130230045754001EASY SKYWAY TRAVELS                                      1605
A3001400130000008264784SANCHEZ, AGNES M.                                        0501
A1001400190231478374012FARINAS, EVA MAE CENTO                                   0501
A1001400190231520766117TAROY, MARIONNE ANGELOU SALEM                            0501
A0101406460272674209001**********                                               0501
A0101406620273518518001RICALDE, ROSARIO RODRIGUEZ                               0502
B0101408660274821200608**********                                               2002
A0101411820000002328452GENISES C. SOLOMON                                       0504
A0101411820000005380241JOHN LESTER SANTIAGO VASQUEZ                             0503
B0101411820000003085094MEDINFINITY INC.                                         1602
B0101400570000000031698SJC PTCA BED                                             1601
A2601400270000009497881DOMINIQUE M. SALAS                                       0502
B2601400270302821200608**********                                               2001
A6601400120000003673158REBADOMIA, RUBY IRINCO                                   0501
B0101402350321031470002JOINT AND ENHANCE EFFORT CORPORATION                     1602
A0101402350321185131001PAGTALUNAN, MARIA FE M.                                  0502
A0101405650000000525911TORRES, ROD JEFFREY GUMABAO                              0501
A0101402060000005137268DASCO, MARK ANTHONY RALLON                               0501
B0201400760000000989706SORIANO, ADRIAN IBAY                                     1602
A0201400890000000027892FORTRESS ELECTRICAL SUPPLY                               0503
B0201400890376042888008NEW CITY MARKETING                                       1602
B0201401020000005109900CEBU DULCINEA HOTEL AND SUITES INC.                      1601
B0101402930381010731001********                                                 1601
A0101408370382490712001DRS. ROMUALDO G. CACAS JR. OR                           10501
A0101408370382490712001THERESA MARIE REYES-CACAS                               20500
A0101405490000000232511MICHSJA MOPET MAY C. FELIX                               0502
A0101405490000005692497MARCIANO, MARILYN FERRER                                 0501
A0101408400394406083001ARENAL, JOCELYN SAUSA                                    0501
A0101408400394650593001PACALUNDO, ANSARY ALIPO                                  0501
A0101409210000008693212SERRANO, MONALIZA GOMEZ                                  0501
A0301400820000002272055DELA VICTORIA, MERLE D.                                  0502
A2401400180000003949140UY, RUBING SIOCO                                         0502
B2401400180411043569001PHOENIX UNIVERSAL MEGA GAS STATION                       1610
A2401400180000002146345PHOENIX UNIVERSAL MEGA GAS                              10503
A2401400180000002146345STATION                                                 20500
A2401400180411572624001TUTOR, LILIOSA REBOJO                                    0501
B1201400150421009374001ESLA MANAGEMENT AND CONSULTING                           1605
A1201400150421039385001JL'S CLEAN UP JANITORIAL &                              10503
A1201400150421039385001MANPOWER SERVICE                                        20500
A1201400150421313524001MOLLY C. ABIOG                                           0502
B0101403030441707375001**********                                               1602
A1901400320000010351172MONTALBO, DARRYN SULIT                                   0501
A1901400160491451956001ANDY C BINUYA OR                                        10502
A1901400160491451956001DYESEBEL D BINUYA                                       20500
B1401400110492022856001PARADISE MEMORIAL PARK, INC.                             1602
A1401400110492023002001THESAURUS DRUGSTORE & GENERAL                           10505
A1401400110492023002001MERCHANDISE                                             20500
A1401400110492029549002TRIPTORS DIAGNOSTIC CENTRE                               0504
A1401400110000001549311HAPITA, PAMELA ALVARICO                                  0501
B1601400170000001069136ROMEO OR MARITESS OR                                    11605
B1601400170000001069136EDWARD ASTILLERO                                        21600
A0101407430000005358636RHODA JANE T. CAORES                                     0501
B0101403580000000214695MEC - SONRIA                                             1602
A0101408530516629972001ESTACIO, DANIEL LLANTO                                   0502
A0101412050000000323613ZULUETA, CHARISSE DBU CEM TECH                           0501
B0101403450000006055734**********                                               1602
B2201400250000007719897GARCIA MOM & KIDS CO.                                    1602
A2201400250561254811001BABY GRACE G. PALMA                                      0501
A0101410690000000710672BADE, MINERVA V DBU E3V                                 10502
A0101410690000000710672ENTERPRISE                                              20500
A0101407720602355070002SHERYLL MAGALIT-CORNEJO OR                              10502
A0101407720602355070002CARLO CORNEJO                                           20500
A0101407720602381371001SHIELA H. PAGDANGANAN OR                                10501
A0101407720602381371001ERNEST PAGDANGANAN                                      20500
A0101407720602399815001ALEJANDRO, RUTH MARGARET                                10501
A0101407720602399815001FRANCISCO                                               20500
A0101404260611150901001CECILIO OR ROSALINDA ATIENZA                             0502
A0101404260611478374109ANGELITA SIQUIJOR                                        0501
A0101413570000002976209LUMABAN, FELICIANO PEDRALVEZ                             0504
A0101413570000003379908CABANIG, MYRA MELAYA                                     0503
A0101413570656057648266JOSINE TANDOC                                            0502
A0101413570656060828003EMPERADO, R DBU WISMORE ENTERPR                          0502
A0101406590662470961001VALMOCINA, ESTRELLA C. OR                               10510
A0101406590662470961001GUTIERREZ, MARY ANNE                                    20500
A1301400210000000540936JOCELYN S APOSTOL                                        0501
A1301400210000007669290AVENDANO, ANALIZA MANLIQUEZ                              0502
A1301400210000007669529TAYAG, MARIO FLORES                                      0505
B1301400340683398713001***********                                              1601
A1701400230000005694102SALAZAR, EDWIN ENRIQUEZ                                  0505
B0101408240711008252001PETROLIFT CLASSED CARRIERS, INC.                         1610
A0101408240711429939004CARMELA CARAGUE                                          0501
A4101400420814520766033DELA CRUZ, MARILOU M.                                    0502
A4101400420814520766061ESTILLERO, SUSANA O.                                     0501
A4101400420814520766110DELA CRUZ, ARMINDA E.                                    0501
A4101400420000002345280ACOL, FELOMINA ADOAN                                     0502
A4101400550000000315182MARGAJA, FELICITA BITOR                                  0501
A4101400550000006044424MEDIAVILLO, MARK CHRISTIAN AGUI                          0502
A0101412340000009207905MARK S. RASTRULLO                                        0501
A0101412340000004869816BERNADETTE S. HIDALGO                                    0502
A0101412340000007305702ROWENA P. GONZALES                                       0502
A0101406750852043541001GRAFIX VENUE ENTERPRISE                                  0501
A0101406750852617055001PUA, HERMINIA SALAS                                      0501
A0101405070000005619661MOHAMAD, MELHAM ARAMAIN                                  0501
A0101405070000006006177CELDRAN, JOHN CHARLES EDWARD P.                         10502
A0101405070000006006177DBU LA CRAZY NUN BOUTIQUE                               20500
B0101413860862066709001CONTINENTAL CARGO CARRIERS, INC.                         1601
B0601400230000007953982N. CANLAS REALTY MANAGEMENT CORPORA                      1605
