A0801400160000000009452JESTER FOOD PRODUCTS                                     0505
A3101400740000000013845REYES, ROBERT ZAMORA                                     0501
A0301400820000000024893ALIVO, JOENALD C.                                        0501
A0101412760000000031950ABELIDO, ALEX HECHANOVA                                  0505
A0101408240000000039381BERMUDEZ, MARICEL YAGO                                   0501
A0201401020000000056415SORELA, DBU M.P. SORELA CONSTRU                          0501
A1101400120000000065110BOLECHE, CLARA GACUTAN                                   0502
A0101404840000000085129ESTELA A. BOCO                                           0501
A0101413990000000206033MARITES R. CONANAN                                       0502
A5501400120000000265809BELANDRES, JESETTE FLOR LOSEO                            0501
A4101400550000000315182MARGAJA, FELICITA BITOR                                  0501
A0601400520000000398465MERCADO, ELIZABETH CAPATI                                0501
A0101405490000000444671******                                                   0502
A0101406330000000451329LANTO, PEDRO SILVA                                       0501
A0101403320000000452220************                                             0501
A4101400260000000469329FALCUTILA, MARISSA RAMOS                                 0502
A0101407560000000477663****************                                         0502
A1601400170000000497423MENCHU R. BUADO                                          0501
A0101408240000000521822MANGLAPUS JR., RAUL LAO                                  0501
A2601400270000000561693ROMARICK G. TABUCOL                                      0501
A0101406620000000577093RAMIREZ, ROSA EDADES                                     0501
A0101413440000000702429REYES, MERCEDITA BONCAY                                  0501
A0101405070000000741360FIEL, ALMA DE MESA                                       0501
A0101400570000000749651LIBERTY B. MALUBAY                                       0501
A0101401090000000772236CERTEZA, JOHN CENIDOZA                                   0501
A0101410300000000919455*****                                                    0501
A1301400210000000983804REUEL L DE LEON                                          0501
A0301400660000001113795VILLADAREZ, RICHARD RANIS                                0501
A5501400120000001121782BARRIENTOS, ALPHA JOY FLORES                             0502
A3001400130000001261125SANCHEZ, JOY PEREGRINO                                   0501
A4101400550000001332416DOCTOR CLEAN LAUNDRY SERVICES                            0501
A0101412760000001399788NAILES, NEILSON ANDRADE                                  0501
A0101400440000001439910JESSIERELL F. NACILLA                                    0501
A0101405940000001534269**********                                               0501
A0601400520000001707028AMBO MARKETING                                           0501
A0101403320000001803123CHAN, CHUN WAH JOHN                                      0501
A0101412630000001823274TURINGAN, MARIA ELENA LASAFIN                            0503
A2401400180000001935782ONAS, ROSITA PLANOS                                      0501
A0101408790000002031441LANLOGIC COMPUTER SALES                                  0502
A0101402640000002069605ABABAT, MELISA SALVADOR                                  0501
A0101413440000002125348**********                                               0501
A0101413020000002292742PASCUAL, JIMBE CABAUATAN                                 0502
A0101413860000002314205VALIENTE, MARILYN CAMPOSANO                              0501
A0101400570000002329717HERNANDEZ, JOHNNY TRINIDAD                               0502
A0101400150000002671532LORENZO SIXTO T. LICHAUCO                                0501
A0101404840000003069981ATIENZA, SHIRLE                                          0501
A0101410850000003102012MIRAFLOR, JOMAR JOSE                                     0502
A4101400550000003266982*****                                                    0501
A0101409050000003535011MOSCARDON, ROALD ANTHONY                                 0502
A0101404000000003706227ELEAZAR T CABANILLA                                      0501
A0101404000000003706972MICHAEL C LACANLALE                                      0501
A0101404000000003707015JACQUELINE DE LEON LIBAO                                 0501
A2401400180000003949042ESMOND ENGINEERING RESOURCES                             0502
A0101400150000004505446CARLOS, PATRICK BUENA                                    0501
A0101400150000004505457CU, DEXTER ALPEZ                                         0501
A0101400150000004505468ILAGAN, JACQUILINE QUINITA                               0501
A0101400150000004505479ZORRILLA, MARIE KRISTINE ANNE R                          0501
A0101400860011473146002*********                                                0502
A0101400860011520310001**********                                               0501
A0101401960121298123001LAILA BURABOD CAY                                        0501
A0101401960121561929001SAN JOSE, CORAZON SERRANO                                0509
A0101401960121561929001SAN JOSE, CORAZON SERRANO                                0501
A0101401830141546547001REATAZA, NELIA MORABE                                    0503
A0101401090171196057001ALITA R. CONDE                                           0501
A0101401090171200020001BEATRIZ B. RIBLEZA                                       0501
A0101401090171655835002ESTHER D. MASING                                         0502
A0101401380201041242001ILOCOS PAPAITAN EXPRESS                                  0501
A0101401380201643451001BARCELO, GODOFREDO PASCASIO                              0505
A0101407140213031109002MRS V'S MEAT SHOP                                        0504
A0101407140213190585001**********                                               0501
A0101406620273492017001SOLIVEN, REYNANTE BAVIERA                                0501
A0801400160311029906001************                                             0501
A0801400160311478374070GENALYN M. BOTANERO                                      0501
A1101400120313539151001GO, LOLITO LIM OR GO, MARILYN                            0501
A2001400290315079542111GADOR, JERRY MAE LUMENTIGAR                              0501
A0101402350321179338001TRINIDAD WONG                                            0502
A0101402350321395056001MELANIE F. MUNK                                          0503
A0101402350321478374013ROSALINA M. MARAVILLA                                    0501
A0101402350321618569001DAMASO, GLORIA SANCHEZ                                   0501
A0101402480331234152001*******                                                  0501
A0101402480331520766036RIVERA, MARICHELLE CALAMBRO                              0501
A0101402510341499107001GLORIA P RAYO                                            0501
A0101402060351036454001TRITECH TRADING                                          0501
A0101402060351043801001EMICOR MARKETING                                         0501
A0101402640361478374067GILDA A. ALCANO                                          0501
A0101402930381785558001CU, SHERY ANNE SIH                                       0501
A0101402770391211308001*********                                                0506
A0101408400394162700001FLORES, CATHERINE DOMINGO                                0502
A0101408400394417530001BRANA, NELSON MASILANG                                   0502
A0101408400394650593001PACALUNDO, ANSARY ALIPO                                  0501
A0101412210399094817010PATRICK S. GARCIA                                        0501
A5501400120410616229001ESCANO, CLAIRE BASAN                                     0503
A2401400180411514423001DEALA, BERNARDITA GATCHALIAN                             0501
A1201400150421253953001CRISTINA F. TEJADA                                       0502
A1201400150421658183001BANDA, LILLIAN PIT-OG                                    0502
A0101403030441241050001**********                                               0503
A0101406330472027958001A. ANOLIN ENTERPRISES                                    0502
A0101406330472478374046YVONNE M. LOMIBAO                                        0502
A1401400110492029549002TRIPTORS DIAGNOSTIC CENTRE                               0504
A1401400110492543613001AVELLANO, BEVERLY MARTINEZ                               0501
A0101407430503478374016ANALYN O. GARCIA                                         0501
A0101405940512716128001BARZAGA, CRISTINA MONZON                                 0501
A0101406880513456319001DIMANALATA, MIGUEL DAGANTA                               0501
A0101406880513568091001CALALO, ABEL JAN SAYAT                                   0501
A0101406880513573272001******                                                   0502
A0101406880513691690002ARISPE, AIMEE CUYA                                       0501
A0101411790518055764194LAYSON, RODYL JUTIC                                      0501
A0101404130601424666001GONZALES JR., ALFREDO DAQUIL                             0502
A0101407720602166267001BLAISE K. LIAO                                           0502
A0101407720602373276001MACAPAGAL, ANTONIO RAMIREZ                               0502
A0101407720602581738001DUCUSIN, MA. ANTONINA SUGUITAN                           0501
A0101407720602658355001GAMBOA, ARVIN JOSEPH REYES                               0502
A0101404260611524854001CLEMENTE, WILMA RUIZ                                     0501
A1301400340683249866001XXXXXXXXXXX                                              0502
A0101407560686219233001************                                             0502
A2801400100712551709001SANTOS, OSCAR CO                                         0510
A4101400420814520766027ARUTA, CORAZON G.                                        0501
A4101400420814520766061ESTILLERO, SUSANA O.                                     0501
A4101400420814520766110DELA CRUZ, ARMINDA E.                                    0501
A0101406750852478374065MARIVEL L. MANGUERRA                                     0502
A0601400230891257858002LUCIA G. MAGTOTO                                         0510
A0101410300000000026462SYCIP,JOHN CARLOS/BANTIGUE,JOHN                         10510
A0601400230000000452840GOZUN, R-JAY RAMOS OR                                   10510
A2601400270000000561551RODERICK E. MADRIDEO OR                                 10501
A0101413990000000631883NEBRIA, ESTER PUJOL OR                                  10503
A0101402930000000859770METT MOTIVATIONAL ENGLISH                               10502
A0101405490000001092717ROSLINA M. AMEROL DBU AMEMAR                            10502
A0601400100000002365551STO DOMINGO, JEFFRIE ALCOBENDAS                         10501
A0301400820000002692055SALAJOG, ALEXANDER DBU AJ                               10501
A0601400100081382865003REYES, LIBERATO OR                                      10505
A0101410850109053560002HERNANDEZ, JUNE JT DBU JUNE AND                         10502
A0101406620273400631001DINDO P. SANCHEZ OR                                     10502
A0101402350321319273002VALDEZ, MIGUELA DOLOR OR                                10501
A0101408400394417432001DALANGIN, CATHERINE OR                                  10501
A0101408950396373113001DR. VIRGILIO M. NOVERO, JR. OR                          10510
A0101406330472351343002MARIETA S. PERERAS OR RAYMOND                           10502
A0101408240711560372001DEL ROSARIO, KATRINA OR FRANCO                          10502
A0101406750852084318001SIBUG, GENEATH P. OR                                    10501
A0101405070861321046001MARK LAURENCE V. LEBRIA OR                              10502
A0101410300000000026462PAUL/ESQUIVIAS,JOAQUIN PA                               20500
A0601400230000000452840GOZUN, MYRNA RAM                                        20500
A2601400270000000561551JUANITA S. MADRIDEO                                     20500
A0101413990000000631883NEBRIA, NATHANIE                                        20500
A0101402930000000859770TRAINING                                                20500
A0101405490000001092717GENERAL MERCHAND                                        20500
A0601400100000002365551OR STO DOMINGO, SHARINA                                 20500
A0301400820000002692055SALAJOG METAL SCRAP                                     20500
A0601400100081382865003REYES, ROUEL                                            20500
A0101410850109053560002YVETTE TRUCKING SERVICES                                20500
A0101406620273400631001EMILY H. SANCHEZ                                        20500
A0101402350321319273002VALDEZ, REDENCIO                                        20500
A0101408400394417432001BAYADOG, ZYDA                                           20500
A0101408950396373113001MARIA LOWELA C. NOVERO                                  20500
A0101406330472351343002OR RHEA ELFLEDA TUAZON                                  20500
A0101408240711560372001OR TERESA                                               20500
A0101406750852084318001SIBUG, ERNESTO M                                        20500
A0101405070861321046001GERLY D.C. LEBRIA                                       20500
B0101406620000000015209SUNPRIME FINANCE INC.                                    1610
B2001400290000000020560VIMLE UNIVERSAL SOLUTIONS INC.                           1601
B0101410300000000026371UNIPRO PACKAGING CORPORATION                             1603
B0101412340000000030866DENSCOTH BUSINESS SOLUTIONS INC.                         1605
B0101413440000000038213ROMBE PHILIPPINES, INC.                                  1605
B0201401020000000042286PILIPINAS PRECIOUS METAL RESOURCES, INC.                 1601
B1001400190000000124741HI-GAUGE AUTO PARTS                                      1602
B0101407140000000266313LYNDON STRONG BUILDER, INC.                              1602
B0101406880000001286357KRIS FINSOFTWARE, INC.                                   1601
B0101408820000001766798*********                                                1602
B0101400440000002846644RK FRANCHISE CONSULTANCY INC.                            1605
B0101402480000003691092******                                                   1610
B0101400860011375881002*********                                                1601
B0101401700041007416001**********                                               1603
B0101401700041021915002CARITAS HEALTH SHIELD, INC.                              1602
B0101400150061494758001MACOLYTES INC.                                           1605
B0101405810072046264001TOPWELL PLASTIC PROCESSING CO.                           1601
B0601400100081458246001VANDERPAS DEVELOPMENT CORPORATION                        1603
B0601400100081557748001BELGOPHIL DEVELOPMENT CORP.                              1603
B0101401960121238699002SO, PONCIANO CHUA                JT                      1601
B0101401090171029222001QCMP INC.                                                1602
B0301400660194047809088MINDANAO MINERAL PROCESSING AND REF                      1601
B0101407140213279335001JOSE MANUEL D. UY                                        1601
B0101402480331010347001****                                                     1605
B0101409050352018120001ELECTRONIC COMMERCE PAYMENTS, INC.                       1605
B0201400760374038778001CPERC                                                    1602
B0101402930381022284001INVESTORS ASSURANCE CORPORATION                          1601
B0101402770391015995001CLAYTON INDUSTRIAL CORPORATION                           1604
B01014027703910254320017.C. EQUITIES, INC.                                      1604
B01014054903920389180021STSERVE LOGISTICS, INC.                                 1601
B2401400180411036177008VERTICAL BUILDERS                                        1605
B0101406330472017558002**********                                               1601
B0101406330472034895001PRIME MKTG. AND DIST., INC.                              1603
B1901400160491046052001BANAPRA DEVELOPMENT COOPERATIVE                          1603
B0101403580511015363001MILLENNIUM ERECTORS CORPORATION                          1610
B0101404000551038492001UP STAGE RESTAURANT & BAR CAFE INC.                      1601
B0101407720602035637001AIKONTECH CORPORATION                                    1603
B0101406590662661015001DESTINATIONS UNLIMITED TRAVEL AGENCY INC                 1602
B0101411950680046980001AQUA MEGA, INC.                                          1602
B1301400210682016750001JFL AGRI VENTURE SUPPLIES                                1605
B1301400340683353482001MARLENE R. JOSE OR JOSE MARI R. JOSE                     1602
B2801400100712035030002FREEPORT SKC INC.                                        1601
B0101402350000000046091ACHIEVE A CAREER TODAY TRAINING CENTER                  11601
B1001400350233275660001ORO TEACHERS & EMPLOYEES CREDIT                         11601
B0101402930381009079001THE AMERICAN EYE CORRECTION                             11620
B0101406330472206899001DANILO A. MARASIGAN OR RODINA B.                        11605
B0101402350000000046091& DEV'T. INC.                                           21600
B1001400350233275660001COOPERATIVE                                             21600
B0101402930381009079001CENTER INC.                                             21600
B0101406330472206899001MARASIGAN                                               21600
B0301400660194821100608**********                                               2010
