B0101408400394821100608**********                                               2003
A0101408400394471974002PESICO, GINA GERALDINO                                   0501
B0101405490000002841870PARANAQUE PREMIER HOSPITAL & MEDICA                      1603
A0101406750852478374039MERCY MOSLARES                                           0501
A0101400860011298552007MA. TERESA N. MERCADER                                   0503
B0101400860011305536001**********                                               1601
B0101400150061005123003ARK TRAVEL EXPRESS, INC.                                 1610
B0101400150061011053001HOYA LENS PHILIPPINES, INC.                              1610
B0101400150061030812002PHINMA CORPORATION                                       1603
B0101400150000001708670NSJS REALTY AND DEVELOPMENT CORPORA                      1601
A0101400150061039916160RAMIREZ, MA. ROSARIO OR                                 10501
A0101400150061039916160RAMIREZ, CASSIUS GABRIEL                                20500
B0101400150061043190001NORTHERN STAR ENERGY & FUEL DISTRIBUTION                11605
B0101400150061043190001CORPORATION                                             21600
B0101400150061047235001ROYAL METRO POINTE DEVELOPMENT INC.                      1602
B0101400600000001335853********                                                 1605
A0101400600071373478001**********                                               0505
B0101400600071469137001**********                                               1603
A0101400600071684249001******                                                   0503
A0601400360083649312001KIM, KANG WOOK                                           0501
B0101410850000001229841************                                             1601
A0101410560000000848722**********                                               0501
A0101410560000001291054QUIAMBAO, ALYSSA MARIE FRANCO                            0502
B0101400730111014312001NGC MEDICAL SPECIALIST CLINIC, INC.                      1610
A0101400730111203514067ELIZABETH MILES                                          0501
B0101400730111482881001CASA BOCOBO HOTEL, INC.                                  1605
A0101412630000000801552GOMEZ, MARY GRACE FUENTES                                0502
B0101401830141205618002ST. JOSEPH SCHOOL OF PANDACAN, INC.                      1605
A0101400440000001440033RAYMUNDO, LEILANI BUNUAN                                 0501
A0101401090000001618942PIATREL ECCLESIASTICAL                                  10501
A0101401090000001618942ART GALLERY                                             20500
A0101401090171392691001JOJO F. BLANZA OR                                       10501
A0101401090171392691001MAILA M. BLANZA                                         20500
A0301400530000002318543ANINON, CINDY VILLANUEVA                                 0501
A0301400660000002348472NANIE DORADO OR RICHARD DORADO                           0501
A0101410720653039987001BROTHERS3 GASOLINE STATION                               0501
B0101410720000000029850NORDHOFF ENTERPRISES INCORPORATED                        1601
A0101410720210084955001SEBASTIAN, JOSEPH NIKHOLO DE LE                          0501
A0101410720653092226001SECILLANO, LUIS SAYSON                                   0501
A0101410720653173054002SARMIENTO, FLOR DE LYS TOMINES                          10503
A0101410720653173054002OR SARMIENTO, ALEXANDER                                 20500
A0101410720653674611001TABIJE, JAY HANSEL INACAY                                0501
A3001400130000002063474ANTIPASADO, ROMELITO ALISOSO OR                         10505
A3001400130000002063474ANTIPASADO, ANGELA MINOZA                               20500
A1001400350233528399003KO, JOSE NELSON AND                                     10501
A1001400350233528399003KO, CHARMAINE                                           20500
A1001400480000003357599DACALOS, GENMAR MANLOSA                                  0502
A1301400470252466645001MA. LOURDES M. GOMEZ OR                                 10502
A1301400470252466645001CHRISTOPHER M. GOMEZ                                    20500
A1901400290000000135060ALELI GUTIERREZ PERCE OR                                10502
A1901400290000000135060FLORENCIO D PERCE                                       20500
B1901400290261038595002B & V TRADING                                            1605
A1901400290261411419001TERESITA DIMAILIG PERCE                                  0502
A1901400290261478374031REALYN MARASIGAN CUENCA                                  0503
A1901400290261538304001OFELIA HIPOLITO LANDICHO                                 0501
A1901400290261585775001LITA CUETO MENDOZA OR DORIS                             10502
A1901400290261585775001MARIE MENDOZA MEDINA                                    20500
A0101401670271352051004MILAGROS G. SUNTAY OR                                   10501
A0101401670271352051004APOLONIO G. SUNTAY                                      20500
B0101406620000000193953PROSALES MARKETING CORPORATION                           1602
A0101406620273511657001GAYOSO, ALONA GO                                         0501
B0101411820277048022001FORGEMS MARKETING COMPANY, INC.                          1605
A1101400120000000652471TANOLA, EVE MARGALLO                                     0501
B1101400120313039185001COASTALVIEW FOODS CORPORATION                            1601
A1101400120000003981146DIU, LORD SHEENA LO DBU MIA BEN                         10501
A1101400120000003981146ENTERPRISES                                             20500
A2001400290000002319520CADAMPOG, JOSE GLENN CENIZA                              0503
A2001400290315091766111GAPOL, CHIMUEL TUBAL                                     0501
A0101402350321478374013ROSALINA M. MARAVILLA                                    0501
A0101402510341196491001JOSE M. TIONGCO                                          0502
A0101402510341196536001JOSE TOMAS YAYEN                                         0502
A0101409050000001662506EBARVIA JR., TEODORO GUEVARRA                            0501
B0101409050352031160001CAPITAL INDUSTRIES, INC.                                 1605
A0101402930381413813001CORNELIO, FERNALYN J                                     0501
A0101402930381455329001ANNA THERESE M. CHAN                                     0501
A0101402930381478374015DIMARANAN, ARNOLD ABEJERO                                0501
A0101402930381581762002FAUSTINO, CHRISTOPHER BUSTILLO                           0501
A0101408790383649678002YU, MARK OR LAWRENCE OR STEPHEN                         10510
A0101408790383649678002OR FRANCIS GLENN                                        20500
A0101408790000000039096YU, MARK ANTHONY LU OR                                  10502
A0101408790000000039096YU, LAWRENCE KRISTOFFER                                 20500
A0101415350000004988492BRANDIS, SHIELA MAUREEN CONSIGN                          0501
A0101402770000000440019ELVIRA VILLAVERDE GABRIEL                                0501
B0101402770391009441001ST. ANTHONY HOMEOWNERS' ASSOCIATION INC.                 1602
B0101402770391031763001SIGMA PACKAGING CORPORATION                              1601
A0101408400000001952832LUZVIMINDA C AQUINO                                      0501
A0101408400394557338001PAULE, REYNALD BELTRAN                                   0502
A0101409180000004409778CASTILLO, DARIE ABAYON                                   0501
B5501400120410041534001NOTRE DAME OF NEW ILOILO, INC.                           1602
A5501400120410042696088CAMBARIJAN MOTOR DOK                                     0505
A5501400120410685210001GUINTIBANO, EDEN VILLARUEL                               0501
B0901400220000000888133ZC SECURITY CREDIT CORPORATION                           1602
A0101403320000001803372MARIA CHIELO T. SAN PEDRO                                0502
B0101403320000000037636ARMANDO U. KHONG HUN GENERAL                            11610
B0101403320000000037636CONTRACTOR, INC.                                        21600
A0101403320471205827001JOWIN TRINIDAD OR                                       10501
A0101403320471205827001MARISSA TRINIDAD                                        20500
A1901400160491244286001CARLITO GO OR FELIE GO OR                               10505
A1901400160491244286001CARLEEN OR CHERYL KING                                  20500
A1901400160491476162001GINA A PELESMINA                                         0501
A0101407430503184785001PATRICIA Q. AUSTRIA                                      0502
A0101408530516571877132ERIKA MAITA V. VILLALBA                                  0501
A0101412050000002314443DAYRIT, WILLIAM BRIOL                                    0501
A0101403450000001769771SANTOS, EMMA CASTILLO                                    0501
A0101403450521562439001***********                                              0501
A0101403450521608765001**********                                               0502
B0101404000551005464001JOHN CLEMENTS CONSULTANTS INC.                           1620
B0101404000551038492001UP STAGE RESTAURANT & BAR CAFE INC.                      1601
A0101404000551150186001DANIEL OR DEANNA SAMANIEGO                               0505
B0101410690000001284431CORONADO, DONNIE JT DBU DONCOR CAR PARTS                11602
B0101410690000001284431AND ACCESSORIES                                         21600
A0101407720602397568001CLOMA, ROSARIO MENDOZA                                   0502
A0101404260611459534001LAOLAO, MARDELYN CALLORA                                 0502
A0101404260611478374097MILA B. RIELO                                            0501
B0101404260611537674001KLINI-KAYA MEDICAL SPECIALISTS INC.                      1604
A0101409920000001539595CORNELIO, MARY JOY LERIOS                                0501
A0101413570000001069443POCDOL, EL SHADDAI                                      10501
A0101413570000001069443DBU MALACHI TRADING                                     20500
A0101413570656057648083RENAN M. DAVID                                           0501
A0101413570000000635596MEMBERS OF NATASHA                                      10501
A0101413570000000635596DOROTEA R. JACIN                                        20500
A0101414120000001142910DOMAOAN, GARRY NATIVIDAD                                 0501
A0101414120000003190907CHRISTIAN LEYGO OR MHARISTIANE                          10501
A0101414120000003190907LEYGO                                                   20500
A0101414120000000398892A.R.P. TRUCKING                                          0502
A0101410300000002375904TRISTAN PAUL C. TAGLE                                    0501
A1301400210000002285087AGUILUZ, AMARIE CRISTIE DELOS S                          0502
A1301400210000000540710ALFONSO, MA. LOURDES PASCO                               0501
A0101408240000003955293BILLANO, EDNA YAMBAO OR HERNAN                           0502
B0101408240711033368001ST. ELOI PAWNSHOP OPERATORS, INC.                        1601
A0101408240711383964003MA. ESPERANZA OR                                        10502
A0101408240711383964003LAMBERTO MEER JT                                        20500
A0101408240711430471002*******                                                  0501
A4101400260812249154001RIZALDY J. ESTOCADO                                      0501
A4101400260000000377479PETALCO, BABELITO V. OR                                 10501
A4101400260000000377479PETALCO, VIRGILI                                        20500
A4101400390813292154001ANGELO OR MARIE LYN MOLATO                               0502
B4101400550000000900081REEBARS CONSTRUCTION CORP.                               1602
A0101404840851520766104PARAGAS, MARILOU                                         0501
A0101404840851520766189DIAGO, MARY JANE                                         0501
A0101413860000001887078CUREG, REMEDIOS AUSTRIA                                  0502
