B0101402350321821100608**********                                               2005
A3001400130000002063474ANTIPASADO, ROMELITO ALISOSO OR                         10510
A3001400130000002063474ANTIPASADO, ANGE                                        20500
B0101406460272012461001INFORMATICS HOLDINGS PHILS INC                           1605
B0101406460272036660001***********                                              1603
A1101400120000003197095IBANEZ, JENNY LIND BUENO                                 0501
A2001400290315688009001ALGOPERA, LLOYD GARCIA                                   0504
A0101402510341236845001RUFINUS CORONEL OR                                      10501
A0101402510341236845001REMEDIOS CORONEL                                        20500
A1201400150421351199003DALANGIN, MIRIAM AQUINO                                  0501
B2201400250561016174001NAY'S HOUSE INCORPORATED                                 1601
A2201400250561558363001JOSEPH B. SAWIT OR                                      10501
A2201400250561558363001JOSEFINA B. SAWI                                        20500
B0101400860011031246001DARALLAD CONSTRUCTION AND TRADING                        1602
B0101401250000000057247MP MAGDALENA PAWNSHOP CORPORATION                        1610
A0101400150000005794261PINEDA, MARIA CHERIZA LACERNA                            0501
A0101400150061229814001LEONCIO C. LIM                                           0501
A0101400150061337099136ROWENA O. TAN                                            0502
A0101400150061780152001*******                                                  0502
A0101405810072234892001**********                                               0501
B0101405810072412798001**********                                               1603
A0101406040000000096844********                                                 0502
A0101401960121281386001**********                                               0502
A0101413150000003868264*****                                                    0501
A0101401830141037575002MATATAG PRINTING PRESS                                   0502
A0101401830141404408001CONRAD T. BALBIN                                         0502
A0101400440161039572043CERENO, GLECY GUTIERREZ                                  0502
A0101407270000006915217ANG, CHITO NOLASCO                                       0501
A0101407270000006939082DELA PENA, AIDA ROSAURO                                  0501
A0101401090171195784001DR. JUAN F. TORRES                                       0501
A3101400450000003072471REJUSO, MA. THERESA ALVAREZ                              0501
A3101400740000006935528PEREZ, MENCHIE DAPOGRACION                               0501
A3101400740224620447001COQUILLA, FELIMONA SAMUYA                                0501
A1001400190231478374067DAGANATO, NICANORA BALOS                                 0501
A1001400190231520766094SALAGUSTE, FELIPE B.                                     0501
A1301400470252599213002REYNALDO OR ROSARIO TERESITA OR                         10501
A1301400470252599213002RAYMOND JOSEPH ODULIO                                   20500
B0101406620273026509001DG3 IDOCS, INC.                                          1602
A0101406620273281364001BANTIGUE, WILLIAM ANISCO                                 0503
A0101410980275076628001TAN, GIAN CARLO UY                                       0502
A0101400570281343995002RAFAEL C. SOLIS                                          0505
A0101400570281359812001DR. HECTOR A. DELURIA                                    0505
A2601400270000000561448NICK MARKETING                                           0501
A1101400120000003981226HO, EVANGELINE CHU DBU TWINS                            10501
A1101400120000003981226HORIZON ENTERPRISES                                     20500
A1101400120000001920634GUIRON, TERESA GALLARON                                  0501
A3401400280000001723473AMELIA A. ZAMORA                                         0501
A0101402350321179559001SEVERO LOPEZ                                             0501
A0101402350321478374006MARINA T. CASTILLO                                       0502
A0101405650322022311001EMPOWERMENT TRADING                                      0502
A0101405650322556592002ORBES, ROSINA DELA CRUZ                                  0501
A0101405650000002325515FERNANDO MARTIN D. TAN                                   0502
A0101402060351217441024VINORNA V. LIM                                           0501
B0201400760374043348001EEIKAIWA INC.                                            1601
A0201400920000000048053YU, WILSON LIM                                           0502
B0201400920000000007843**********                                               1605
A0201400890000005508367***************                                          0501
A0101402930381311758001********                                                 0503
B0101405490392035300001TECHNO-ASIA CONSTRUCTION AND DEVT.INC.                   1603
A0101405490392170122001LEONIDES A. SANTOS OR                                   10501
A0101405490392170122001CONCHITA R. SANTOS                                      20500
A0101405490392170537002LORNA V. TUGADE                                          0501
A0101405490392591892001RIZZA L. ACOL                                            0501
A0101408400000001258588MJZION FURNITURE SHOP                                    0501
A0101412210000002714558ANIEVAS, JOSE BERMUDEZ                                   0501
B0101412210000003448753STARLING GOLD MARKETING, INC.                            1601
A0101412210000001236293JOVEN, RODEL PELONIA                                     0502
A2401400180000003949093DEVERA, EDGAR SURMILLON                                  0502
A2401400180000005536563GUINTO, ANNA CORINNA ASTURIAS                            0502
A0901400220000000888053**********                                               0503
A0101403030441239795001**********                                               0501
B3101400580452821100608**********                                               2005
B1401400110492046339002******                                                   1620
A1401400110492621336001MOISES, JESSIE LOSAURO                                   0501
A0101407430503400693001CHITO S. ANONUEVO                                        0501
B0101403580511029733001PAWNCARE SERVICES INC.                                   1601
B0101403580511029744001PAWNSAFE SERVICES CORPORATION                            1601
B0101408110515035109001UNIVERSAL LMS FINANCE AND LEASING CORP.                  1601
B0101408530516005188001SEARCHERS & STAFFERS CORP.                               1610
B0101408530516033397001SPRINGER INTERNATIONAL, INC.                             1605
B0101408530000001275350THE PURPLE OVEN CORPORATION                              1601
B0101408530000001275372THE PURPLE OVEN CORPORATION                              1601
B0101408530516524823001SL TEMPS INC.                                            1605
A0101408530516571877077OLIVERA, TAMIYA NICOLE DE VERA                           0504
A0101411400000005329813UY, EDUARDO NUEVA                                        0510
A0101411400517775177001DAVA, AYLA TUAZON                                        0501
B0101411790000003252571TAGCASH LTD. INC.                                        1602
A0101411790000000469483JARLOC, ELIJJAH JOJI E.                                  0501
B0101403450000000009765*******************                                      1603
B0101403450000000889574***********                                              1603
A0101403450521239514001**********                                               0502
A0101403450521478374007********                                                 0501
A0101403610531304005001ANCHORIZ, NERRIZA OR                                    10505
A0101403610531304005001ANCHORIZ, FRANCISCO                                     20500
A0101404000000005039958LEONG, CHRISTL ENELIZ DE LEON                            0502
A2201400250561256285001JESUS C. CHUA                                           10501
A2201400250561256285001OR JOSEFINA G. CHUA                                     20500
A2201400250561478374025LUZMINDA M. GACILAN                                     10501
A2201400250561478374025MEMBERS OF NATASHA                                      20500
B0101404130601045407001MULTISOFTWARE ASIA, INC.                                 1602
A0101404130000006275881REYNALDO O. CALAYAN JR. OR                              10505
A0101404130000006275881REBECCA A. CALAYAN                                      20500
A0101407720000003886875QUETUA, PAUL CONDES                                      0501
A0101407720602483110001YU, MICHELLE ANABELLE MERCADO                            0504
A0101404260611158307002GALICIA, CONSOLACION OR RAFAEL                          10501
A0101404260611158307002OR FELIZARDO OR RAMON                                   20500
A0101404260611432372001PERALTA, ELIZABETH GAMBOA                                0503
A0101413440000001472908BERMIDO, JAIME BUENAFLOR                                 0501
A1301400340000001415598TILA, REAGAN CRUZ OR TILA,                              10501
A1301400340000001415598JACQUELINE ONG                                          20500
A1301400500000003070059JUANITO S. UMALI OR                                     10501
A1301400500000003070059MIGUEL S. UMALI                                         20500
A0101408240711180164001TUPAZ, CORAZON RONQUILLO                                 0501
A0101408240711323526001SHIRLEY A. MANESE OR MARIA                              10501
A0101408240711323526001ELENA M. ISAAC                                          20500
A2801400100000003116656DIZON, JORDAN MANGALINO DBU                             10502
A2801400100000003116656OPTIMA MONEY EXCHANGE                                   20500
A4101400260000000469329FALCUTILA, MARISSA RAMOS                                 0502
A4101400260812478374052DAISY COSTILLAS                                          0501
A0101412340000003341357JEANNE APRIL MARIE BRUNEAU                               0501
A0101412340000005654760JAIREH FAITH L. NAVAREZ                                  0501
A0101412340000004360741JOANNE CRISCILLE G. PACANA                               0502
A0101404840851656725001JULE ROSALES FUNE                                        0502
A0101406750000000358161MUSA, MARICRIS LABAD                                     0501
A0101406750852022181001DATHAN ENTERPRISES                                       0505
A0101406750852478374115CRISENCIA S BATACANDULO                                  0502
A0101405070861197970002OKA, TOSHIKATSU                                          0503
A0601400230000005185877SUBA, JOSE PANLILIO                                      0501
