F0301400110191040022138BANANA TELECOMMUNICATIONS, INC.                          2603CKR
F0301400110191040022178BANANA TELECOMMUNICATIONS, INC.                          2602CKR
F0101406620273054351001EC STUDIO MANILA INC.                                    2603CK1
F1501400140291373336001MA. DULCE VENIDA B. GO SHIA                              2501CKO
F0101402350321179431002VICEO, OSCAR                                             2505CKO
F0101408400394032365001AC TECHNICAL SERVICES, INC.                              2603CKO
F0101403290461029163001PHIL.ASSO.OF SERVICE EXPORTERS,                         12605CKR
F0101403290461029163001INC.                                                    22600CKR
F0101404130601611811001ASUNCION, LEOPOLDO MUNAR                                 2502CKO
F3201400190000001493067PRUDENCIO R. REQUILMAN DBU                              12603CKO
F3201400190000001493067DENIKS MARKETING                                        22600CKO
F4101400260812039607028VIOLETA DULDULAO                                         2502CKO
F4101400390813039464012SAHILAN, JOSEFA                                          2502CKO
