B0101409500473821100608**********                                               2003
A0101413020000003055369BALOLOY JR., LEOPOLDO A DBU JCB                          0502
A0101400440161525001131RIA B. IBANEZ                                            0501
A3001400130230757981001SACAY, RENE CANTOR OR SACAY,                            10501
A3001400130230757981001JOSEPHINE SIMBIT                                        20500
A0101405650000000772981DUENAS, MARILYN CEPEDA                                   0501
B0101405650322036086001VISTALAND INTERNATIONAL MARKETING, INC.                  1610
A0101405650000000080117*******                                                  0501
A0101405650322356435001ENRIQUE BIE OR EVELYN V. PAULI                          10501
A0101405650322356435001OR RICHARD M. PAULI                                     20500
A0101402930000003179560DOCTOR, MA. LUALHATI PELAYO                              0501
A0101408370382413688001DR. CHRISTY S. YAO                                       0501
A0101405490000002141122ESPINEDA, JEREMY SY                                      0501
A0101405490392034138001MCMAR & MARY ELECTRICAL                                 10501
A0101405490392034138001& CONSTRUCTION S                                        20500
A0101405490392177005001DOMINGA P. BUENAOBRA                                     0501
A0101405490392552022001MARIA THERESA D SOLIS OR                                10501
A0101405490392552022001BENJAMIN D.SOLIS                                        20500
A0101405490392589729001SUSAN O. DU                                              0502
A2401400180000003949071PROVIDO, JULIET MAHINAY DBU PRO                          0503
A4101400550000000315051DECLARO, SALLY SALDITOS                                  0501
A4101400550815046007001DIGIBOX PRINTING SERVICES                                0501
A4101400550000000506927ELLEMA, JEMELLE GARCIA                                   0502
A4101400550000000005938EVANGELISTA, CHARISMA TOLENTINO                          0502
A4101400550000000199371PAMATMAT, MERLINDA BANAS                                 0501
A4101400550815693134001LLANES, TUDOR HERNANDEZ OR                              10501
A4101400550815693134001LLANES, PRESCILL                                        20500
A0101400860000002333422*                                                        0501
A0101400860011421983001*********                                                0504
A0101400860011426836001*********                                                0502
A0101400860011514595001********                                                 0502
B0101400860011532652001*********                                                1602
A0101400860011568821001**********                                               0505
B0101401250021006624001PINAGPALA MANPOWER SERVICES                              1604
A0101411370000000903611RAMIREZ, MARISSA MARTINEZ                                0502
B0101400150061016656001BLUE SPHERE PROPERTIES, INC.                             1602
B0101400150061021914001E- SCRIBIR INC.                                          1605
B0101400150061023739001MAGNO MAGNO & GINGOYON LAW OFFICES                       1601
A0101400150061681415001CALLEJA, HENRY GERARD MACEDA                             0501
A0101400600000001335604PORRAS, MARIVIC DE GUZMAN                                0502
B0101405810072083905001HONG, HAN MING                                           1601
A0101405810072235737001**********                                               0501
A0101405810072236258001**********                                               0501
A0101405810072312400003************                                             0501
A0101405810072316984001**********                                               0501
A0101406040000000096957HAZEL F. ALVIZ                                           0501
B0101401960000000008197****************                                         1601
B0101412630000000023872EASTGATE REALTY AND DEVELOPMENT CORP.                    1602
A0101413310000005433170MIDEL, JONNA ARAGON                                      0501
B0101401830000000059972CARITAS SALVE CREDIT COOPERATIVE (NOVA/                 11603
B0101401830000000059972ST.PETER) 010                                           21600
A0101401830141207213001LILIA C. GALINDO OR                                     10502
A0101401830141207213001FLORDELIZ C. GALINDO                                    20500
A0101400440000000596629ZENAIDA O. CALLEJO                                       0501
A0101400440161382309001DIMAL, PATRICK MANUEL                                    0501
A0101400440161478374087LORNA V. GALLARDO                                        0501
A0101400440161520766193LEILANIE P. LOCSIN                                       0501
A0101400440161525001125MAY M. RAMOS                                             0501
A0101407270000006862242BINGIL, AZIEL UPANO                                      0503
A0101407270162770709001MARTIN WILLISON U. REYES                                 0502
A0101401090171196067001JOSE YAMAMOTO OR                                        10510
A0101401090171196067001MILAGROS YAMAMOTO                                       20500
A0101401090171201345002MA. CECILIA OR RAMIL                                    10502
A0101401090171201345002TIO CUISON                                              20500
A0301400530000000065832PERIAS, FE                                               0501
A0301400660000003406168*****                                                    0505
A0101401380000005219814EM, NESTOR JACINTO                                       0501
A0101401380201397314002ONG, JERRY ANG                                           0506
A0101401380201554626001BANGURAN, MYRNA BRINGAS                                  0501
A0101412500000005184323DELOS SANTOS, LEOMAR GONZALES                            0502
B0101412500000000041750FAITH BAPTIST CHURCH INC.                                1605
B3101400160221024274002STA. CECILIA BUSINESS CENTER                             1601
A3101400160221419880001ROWENA B. SUN                                            0502
B3101400740224017345001PALMPHIL GARMENTS PHILIPPINE CORPORATION                 1610
A1001400190231478374086LORNA A. OMANDAM                                         0502
A1001400190231577958001GORDIEL, JAMES LESTER UY                                 0501
A1301400470252478374030JERICA P. MATAMMU                                        0503
A0101401670271204483001SABADO, ROMINA V.                                        0502
B0101406620273027549001E-BUSINESS SERVICES, INC.                                1603
B0101406620000000193942SOURCEFIT PHILIPPINES INC.                               1601
B0101410980275047209001PIONEER STATIONERS, INC.                                 1602
A0101410980275076628001TAN, GIAN CARLO UY                                       0502
A0101412470000000520243LEDESMA, DIANE CHUA OR LEDESMA,                         10502
A0101412470000000520243WILSON GO                                               20500
A0101400570281191056001OFELIA C. MARIANO                                        0501
A0501400200292567569001LARILYN D. GATCHALLAN                                    0501
B2601400270302045063001ISABELA UNITED DOCTORS MEDICAL                          11620
B2601400270302045063001CENTER, INC.                                            21600
B2601400270302047342001WOODSIDE PROPERTIES AND LAND CORPORATION                 1601
A3401400280000001723440EDUQUE, JESSIE ECARAN OR EDUQUE                         10502
A3401400280000001723440RUELYN CAPUNONG                                         20500
A0101402350000003080355TAPEL, BERTILLA TATEL                                    0502
A0101402350321597544001ARSITIO, ROBERTO T. OR ARSITIO,                         10501
A0101402350321597544001LUVIZMINDA L.                                           20500
A0101405650322016510001WIL-LYS CEREAL TRADING                                   0505
A0101405650322368071001CALANGI, JOSE MA. SALUMBIDES                             0501
A0101405650322412858006CABUNTOG, GINA B.                                        0503
A0101402510341433983001********                                                 0505
A0101402510341433983004********                                                 0505
A0101402510341484729001CIERVO, JOYLYN REYES                                     0501
A0101402060351022310001CONLINK MARKETING SERVICES                               0501
B0101402060351041341001SFX PRODUCTION, INC.                                     1601
A0201400760374473832001**********                                               0501
A0201400920375034669001**********                                               0502
B0201400920375046651001CFG QUICKSERVE                                           1605
A0201400920375316580001LIM, PERRY TAN                                           0501
B0201401150378821100608**********                                               2050
B0101402930381017213003UNIVERSAL ROBINA CORPORATION                            11605
B0101402930381017213003URC - GD                                                21600
A0101402770391361138001PERFECT NINE MARKETING                                   0501
A0101405490392032343001TWIN PEAK BRASSIERES                                    10504
A0101405490392032343001MANUFACTURING IN                                        20500
B0101405490392037215001CORNERSTONECONSTRUCTION CORPORATION                      1602
A0101405490392170122001LEONIDES A. SANTOS OR                                   10502
A0101405490392170122001CONCHITA R. SANTOS                                      20500
A0101405490392175568001MARILOU D. BALUYOT                                       0502
A0101405490392563453002ALLAN L. DE GUZMAN OR                                   10501
A0101405490392563453002MARIVEL R. DE GUZMAN                                    20500
A0101408400394033625002IVAN COMPUTER SYSTEM                                     0508
A0101409180000002252502TUIZA, RANDY ORUGA                                       0501
B0301400820409091735055DAVAO HOME BUILDERS CENTER OR LIMA,                     11601
B0301400820409091735055DIANA                                                   21600
A0301400820409091735055LIMA, WINDELL OR LIMA, DIANA                             0501
B55014001204100466470881111MABUHAY ENT., INC.                                   1605
A2401400180000005536563GUINTO, ANNA CORINNA ASTURIAS                            0505
A0501400170481319119001XXXXX                                                    0501
A1901400320000000679147DRJ TRADING AND GENERAL                                 10501
A1901400320000000679147SERVICES                                                20500
A1401400110000003063447ABADILLA, JEFFREY PIZARRA                                0502
B1401400110000004461972SUPER MAK FOOD CORPORATION                               1603
B0701400260000000041083MULTI-WARE ECON-SALES CORPORATION                        1603
A0101407430000003193304REGASPI, MERCEDITA SAN JOSE                              0501
A0101408530000002980589NAZARENO, MARI ANNE RITA                                 0501
B0101408530516035673001FERROTECH STEEL CORPORATION                              1608
A0101412050000001499705PADIERNOS, EUGENE C.DBU ORIGINS                         10501
A0101412050000001499705HOME FURNITURE                                          20500
B0101403450521037641001ERKU TRADING INTERNATIONAL                               1602
A0101403450521233244001**********                                               0502
A0101403450521383834001**********                                               0505
B0101403450521763475001***********                                              1602
A0101403610000007124752ALVAREZ, MA. DIVINA REMOLACIO                            0501
A0101403610000007124796ALVAREZ, MARIA LUISA ZABALA                              0501
A0101403610000007124821ALVAREZ, PETER JUDE TERCERO                              0501
A0101403610000007124854ALVAREZ, ROMARICO TERCERO                                0501
A0101403610000007124901LU, JONATHAN GO                                          0501
A0101403610000007124934NIONES, MARIA SOCORRO ALVAREZ                            0501
A0101403610000007125000PILI, GISELLA ALVAREZ                                    0501
A0101403610000007125055ALVAREZ, LOUIS TERCERO                                   0501
A0101403610000007125099ALVAREZ, LEONILA GONZALES                                0501
A0101403610000007125124ALVAREZ, FLORENTINO TERCERO                              0501
B0101403610531518484001A1 STEELFORMER CORP.                                     1602
A0101404000551150313004DE LEON, CARLOS/DE LEON, ROSIE/                         10503
A0101404000551150313004DIZON, RAQUEL                                           20500
A0101404130000002121157MIRANDA, FRANCIS GERALD SANTOS                           0501
A0101407720000004664375MACALINDONG, JHOANNA EUNICE                             10502
A0101407720000004664375PACIS                                                   20500
A0101407720602316120001LUCIA CASTRO-FORES OR                                   10501
A0101407720602316120001MIGUEL EDGARDO F                                        20500
B0101409890649033780001WATCH TOWER BIBLE AND TRACT SOCIETY OF                  11610
B0101409890649033780001THE PHILS. INC                                          21600
A0101409890000000049012BONDOC, ADORAIDA TAHIR OR                               10501
A0101409890000000049012BONDOC, ROBERTO                                         20500
A0101409920650478374005CRISOSTOMO, MA. EMELIA GASPAN                           10501
A0101409920650478374005MEMBERS OF NATASHA                                      20500
A0101409920650478374024DUMAWING, LUALHATI SANTIAGO                              0501
A0101413570000002906567TORRES, LIZA CRUZ                                        0501
A0101413570000001682486STEVENS, MARIA ME DBU BMJ INTL                           0501
A0101413570656057648184HONNIE ROSE NIEVA                                        0501
A0101413990000006768570CLETO, ANTHONY C. DBU                                   10501
A0101413990000006768570CARDEUN CONSTRUCTION                                    20500
A0101413990000006434911HENRY J. DUQUE                                           0502
B0101406590662027606001XANLAND PLACE CONDOMINIUM                               11610
B0101406590662027606001CORPORATION                                             21600
B1301400210000000915673EDCON CARGOTRANS, INC.                                   1602
A1301400500000000212951GUILLERMO, ALVIN MANLAPIG                                0502
A1301400500684635536001JOSELYN D SANTOS OR                                     10501
A1301400500684635536001EDGAR D VILLAR JR.                                      20500
A0101408240000003955533RUBIO, KARLA PERALTA JT                                  0501
A0101408240711373874001MARILYN P. ALTAREJOS JT                                  0502
A0101408240000000347528RAFAEL, JOSE JAVIER PAY JT                               0501
A4101400260812249068001FANNY J. SU                                              0501
A4101400390000006302483FARD'S FASHION STORE                                     0502
B4101400390000006103559LEAD WITH INTEGRITY AND GOOD GOVERNANCE                 11604
B4101400390000006103559IN HELPING COMMU                                        21600
A4101400390813517833001MERIADO, RANDY CAMO                                      0503
A0101412340000003719339LIZA LOUELLA T. MONTANO                                  0501
B0101412340000002879943ROSET CONCIERGE SERVICES INC.                            1610
A0101404840000004565806LEONARDO, CHARMAINE ANNE DE LEO                          0502
A0101404840851520766026MENALIZA MABINI                                          0501
A0101406750852799786001RIGUERA, JOSE MAURICIO AGUSTIN                          10503
A0101406750852799786001DBU MRIGUERA PROPERT DEV                                20500
