B1901400160491821100608**********                                               2005
B0301400950196821100608**********                                               2003
B0101402060000010846650AMANDA, SPENCER AND DOMINIQUE APPLIANCE                 11620
B0101402060000010846650CENTRE INC.                                             21600
A0101411110000011503072*******                                                  0501
A0101400600000005942441******                                                   0501
A0101400440161525001055MA. LUZ E. ABIERTA                                       0501
A0101400440000003705888ASERON III, MELQUIADES MARTINEZ                          0501
B0101400440161024825001UYB PRINTING CORPORATION                                 1601
A0101400440000004901564DOVIE T. JERMIA                                          0502
B0101400440161042928001RNW PACIFIC PIPES CORPORATION                            1602
A0101401250000011483793SY, ERNESTO CHUA OR SY, ELEANOR                          0501
A0101401250021178973001VICENTE S. BERNARDO OR                                  10510
A0101401250021178973001ARACELI C. BERNARDO                                     20500
B0101400150061011066002FOOD SOURCE, INC.                                        1605
B0101400150061025214001MAA CONSULTANTS, INC.                                    1601
A0101400600000001335604PORRAS, MARIVIC DE GUZMAN                                0502
A0101405810072312400003************                                             0501
A0601400100000000142021QUIAMBAO, MARIA LISETTE SANTOS                           0501
A0601400100000000142021QUIAMBAO, MARIA LISETTE SANTOS                           0501
B0101414090000002244760DELOSANS CONSTRUCTION AND DEVELOPMENT                   11602
B0101414090000002244760CORPORATION                                             21600
B0101406040000000096651*********                                                1602
A0101401960121379115002ESGUERRA, MA. NIMFA BERNADOS                             0502
A0101401960121606503001**********                                               0501
A0101401830141653090001JOSELITO ALBERTO S. CASTRO OR                           10502
A0101401830141653090001KATRINA INEZ J. CASTRO                                  20500
B0101400440161021777004DE NOVO PRESTIGE SECURITY &                             11603
B0101400440161021777004INVESTIGATION                                           21600
A0101407270000009673469BITARA, JULIET RECELESTINO                               0501
B0101407270162046726001VALUE CARE HEALTH SYSTEMS, INC.                          1650
B0101407270162046726001VALUE CARE HEALTH SYSTEMS, INC.                          1650
B0101407270000000010180COUNTRY CHATEAU HOTELIERS CORPORATION                    1602
A0101401090000003835938LLENA, LIEZEL  DOMINGO                                   0501
A0101401090000010238427TUBALLA I, EDGAR MALAUBANG                               0501
B0301400530193037483168LI, VINA DBU TAGUM AB MARKETING BUY &                   11605
B0301400530193037483168SELL AGRI PRODUC                                        21600
A0301400950000008000751ALUM, KLINT JAN SAGUING                                  0501
B0301400950000002115913GCW9 LAND, INC.                                          1603
A0101412500000011572837PUNZALAN, BERNADETTE REVILLA                             0501
B3101400160221224862001JOYME ROCKSCAPES CORPORATION                             1602
A3101400160221356270001RONALD J. PUA                                            0501
A3101400450223223458004ALVERO, LEAH AURORA TOLENTINO                            0501
B3101400740000000013914BETA NANOCOATING PHILIPPINES INC.                        1602
A3101400870000005410213EVANGELISTA, GISELA CASTILLO                             0501
B1001400190231017478002CHURCH IN CAGAYAN DE ORO, INCORPORATED                   1604
A1001400350000003867232MIRABUENO, RAYMUND BUSTAMANTE                            0501
A1001400350233554328001DE MARCAIDA, MARGARET MARY                              10501
A1001400350233554328001MENDOZA OR DE MARCAIDA, J                               20500
A1001400350233770191001PATRIANA, LINDY CASTILLO                                 0501
B1301400470000000009532PROSPERITY SUPERMART                                     1602
A1301400470000003270511JOSELITO P. CRUZ OR                                     10501
A1301400470000003270511ANNA T. CRUZ                                            20500
A1301400470252507995001VERA A. BORROMEO AND                                    10502
A1301400470252507995001MARY GRACE B. SANTOS                                    20500
B1301400760000000050860ENCORE LEASING & FINANCE CORP.                           1601
A0101401670271189252002LOURDES LIM LEE OR CARMEN C.                            10501
A0101401670271189252002LIM OR ROSARIO C. LIM                                   20500
B0101406460272040465001SPORTFIT, INC.                                           1606
A0101406620000009018684PODADOR, APRIL CLAIRE CHAGAS                             0501
B0101406620273033463001ARL BUSINESS CONSULTANCY, INC.                           1602
B0101406620273041414001GANO I-TOUCH PHILIPPINES INCORPORATED                    1605
B0101406620273045167001VENTURANZA, HOSTALERO AND COMPANY, CPA'S                 1601
A0101406620273294329001**********                                               0510
A0101411110276068072001DELA UMBRIA, E DBU CLEARSKIES                           10502
A0101411110276068072001TRAVEL AND TOURS                                        20500
B0101411820000003085163TECHNOPIPE CONSTRUCTION CORP.                            1601
A0101400570000006272011TEJONES, ROSA MARIE DECENA                               0501
A6601400120000001065332POQUIZ, LORNA VICTORIA RAMIS                             0501
A6601400120314613263008ORTIZ, JUAN M. OR ORTIZ, MYRNA                          10505
A6601400120314613263008ORTIZ JR., JUAN                                         20500
A2001400290000008502152UY MATIAO, MELISSA ONG                                   0502
A0101402350000000521275EDISON C. QUIAMBAO OR                                   10502
A0101402350000000521275GIA KARLA V. QUI                                        20500
B0101402350321045173001HELP U CLEAN SYSTEMS, INC.                               1603
B0101402510341432924001GO, ELEANOR ANG TAN OR GO, VIRGINIA TAN                  1602
A0101402060351211783001LUISITO &/OR EMILIA BERNARDO                             0505
A0101402060351319677002HAK JIN KIM                                              0502
A0201400760374033157001WISE OWL GENERAL MERCHANDISE                             0501
A0201400760000008869732LOQUIAS, STRAWBERRY TORRES  OR                          10502
A0201400760000008869732TUBIO, KENNETH YVES                                     20500
B0101402930381009073001INTERLINK BUSINESS SOLUTIONS INC                         1601
B0101408370000007031410VIRI CIBUS MEDICINAM, INC.                               1602
A0101411660000002309371RAJAN BHAGWANDAS GIDWANI OR                             10505
A0101411660000002309371MAYA BHAGWANDAS                                         20500
A0101405490000006214131OCAMPO, ARABELLE BRINCES                                 0502
B0101405490392032671001VEGA STAR GAS AND SERVICE STATION INC.                   1602
B0101408400394031125001ESPIRITU VITALES ESPIRITU LAW OFFICE                     1602
A0101408400394424269001PEREZ, NICOLO SARANDI                                    0502
A0101408950000003439241OCAMPO, MARGARET SUAREZ                                  0501
A0101409180000004375177DOMINOE BANEZ                                            0501
B0101409180397024348001APPLESEED MONTESSORI INCORPORATED                        1601
A0101412210000011592277SUNGA, MARIA ANGELA LLERA                                0501
A5501400120410362178001FEROLINO, KEN CABALLERO                                  0501
A5501400120000009875609CHIU, JULIA EILEEN ROBLEZA                               0503
A2401400180411442136088***************                                          0501
A1201400150421540699001LUMIWES, EASTER MAY-ENG                                  0501
A0901400220000000887987MUESCO, MAYBELLENE JOY ANDOG                             0502
A0101403030000008089334TAN, JESUSA POTIAN                                       0503
A0101406330472513354001MARIFE B. TAMIDLES                                       0501
A0501400170481400649001REYNA, CICEL MANAOIS                                     0501
A1401400110000000132841*******                                                  0501
A1601400170000002334050LANA, NOE ATULE                                          0502
B1601400170494052236004LEGASPI HOPE CHRISTIAN SCHOOL, INC.                      1601
A0101405940000007540685ESPANOLA, MARY ANN GEOCANIGA                             0501
B0101405940000000002740TRANS-MILLENNIUM MERCANTILE CORPORATION                  1603
B0101405940512037554001THE COVENANT CAR COMPANY, INC.                           1603
B0101408530516037477002VXI GLOBAL HOLDINGS B.V.                                 1610
A0101411400000000230151NOBLE, SYLVIA NIVERBA                                    0501
B0101411400000001280615MULTIMIND INTERNATIONAL AB                               1605
A0101411790000011564082ESTACIO, ANA LIZA DELADIA                                0501
B0101403450000008069216YNARES, JOHN ALLAN RUBIO DBU JARYNA                      1602
B0101403450521240074001**********                                               1604
A0101403450521333170001*****                                                    0510
A2201400250561655717001JAIME Y. MARIANO                                         0501
B0101404130601015346002GLOBAL GAS & OIL CARRIERS, INC.                          1603
B0101404260611020600001MAKATI SAVINGS COOPERATIVE                               1610
B0101404260000000157004INTERPRO FOOD SPECIALIST INC.                            1605
A0101413570000010111658PANGANIBAN, MARITA ANN MELEVO                            0502
A0101413570656057648204ANTONIO PINGOL                                           0501
A0101413570656057648232SYMMETRY S. SANCHEZ                                      0501
B0101414120000007655403INFINITE EDGE CONSTRUCTION, INC.                         1604
A0101410300000006278813ZABALLERO, TEODORO Z. OR                                10501
A0101410300000006278813ZABALLERO, DORCAS JT                                    20500
A0101410300000007614260SARMIENTO, IRENE PASABA                                  0501
A0101410300000000191939CARBALLO, LUIS ANTONIO S. OR                            10510
A0101410300000000191939SALAZAR, EMMANUE                                        20500
B1301400210682026707001GOLDEN DAME FOOD CENTER, INC.                            1603
B1301400210000000023463SAN PABLO MULTI-PURPOSE COOPERATIVE                      1603
A1301400340000005264780INSIGNE, MERNANDO VOLUNTAD                               0503
A1301400340683032453001ST. MARY'S RELIGIOUS SHOP                                0510
A1301400340683246691001SARABOSING, MA. NELEOSA RIVAS                            0502
A1301400500000001412366RUSTIA, GERARD CALUAG                                    0501
A1301400500000011254361KE, JINZENG                                              0504
B1301400500000000213414MATEA ESTEVEZ OR JOEY ESTEVEZ OR JOSEPH                 11605
B1301400500000000213414ANTHONY ESTEVEZ                                         21600
A0101408240000007478104SURATOS, ARNEIL TIO OR                                  10502
A0101408240000007478104SURATOS, LOVERNA                                        20500
B0101408240711026678001SAMBEL PACIFIC CORPORATION                               1602
A0101408240711383150001AURELIO III OR AURELIO JR.                              10501
A0101408240711383150001OR AARON LITONJUA                                       20500
A0101408240711396310001LESTER C. VICTORIA OR                                   10502
A0101408240711396310001GIL JOSE E. PULUMBARIT                                  20500
A0101408240711689610001RODRIGUEZ, MA. LUISA L. JT                               0504
A2801400100000004837641MARGALLO, MARY GRACE ASTORIAS                            0501
B4101400420814043163001VAYAO WAX MANUFACTURING INC.                             1602
A4101400550000003267014MALLARI, MICHAEL JOSEPH B.                               0501
A0101404840000009616019MENES, DJALMA MADELAR                                    0501
A0101404840851046725010MA LILIBETH ALMONGUERRA                                  0502
B0101404840000006365171KAWASAKI EMPLOYEES MULTI-PURPOSE CO                      1605
A0101405070000011289064CABRERA, MARIA CATRINA M. OR                            10501
A0101405070000011289064JONIGA, AIRIZ VIEN M.                                   20500
A0101405070000003439661TALLA, AARON JOSHUA ORTIZ DBU                           10502
A0101405070000003439661AERO ENTERPRISES                                        20500
A0601400230000007402188CHUA, MARK ANTHONY GARCHITORENA                          0503
