F0101401830141045983001FASTBUILT CONSTRUCTION, INC.                             2610CKO
F0201400180181051134002ELSALVADOR LENDING CORPORATION                           2606CKO
F0301400790000001211681GABUTERO, ROMMEL D OR                                   12601CKR
F0301400790000001211681GABUTERO, MICHEL                                        22600CKR
F0101406620000000962476TUBIG PILIPINAS GROUP INC.                               2602CK1
F0101408400394034371002W GROUP, INC.                                            2602CKR
F0101407720602430823001CRISTINA ALEXANDRA B. HENARES                            2502CKO
F0101404260611514786001CRUZ, GLENDA MAE PANGILINAN                              2503CKO
F4101400420814573133002MAGNETICA ELECTRONICS, INC.                              2602CKO
