B0101404710681821100608**********                                               2005
A1101400120000001920714TAMAYO, ALMA A. OR                                      10501
A1101400120000001920714TAMAYO, GERARDO                                         20500
B0301400660000003361908PHILIPPINE RADIANT PRODUCTS, INC.                        1602
A1101400120000002254877POTICANO, BERNARDO IGANA                                 0501
A1101400120000000065103BELLO, TERESITA CASTARITAS                               0502
B1101400120000000653150PERPETUAL HELP MULTI-PURPOSE COOPERATIVE                 1603
B0101400600071235113002******                                                   1601
A0101413730000000144750**********************                                   0510
A1101400120000000065121ALVARADO, LIEZEL CASINO                                  0501
B2001400290315044204001ACEBANK CREDIT, INC.                                     1601
A0101405940000005068008JERRY S. CANTEMPRATE                                     0502
B0101405940512023451001MILKPACT PHILS. INC.                                     1602
A0101405940512026524001DAVENNIEL PROMATS MARKETING                              0503
B0101405940512584781001MCSENERGY PHILIPPINES INC.                               1601
A1301400500000000213210RBN ENGINEERING & DEVELOPMENT                            0502
A4101400420000000120970REYAN S. LINCAY                                          0501
A4101400420814620451001TAN, BETTY TIU                                           0506
B0101406750000000017552SIEGRANZ CHEMWORKS CORPORATION                           1603
B0101400860011394544002**********                                               1602
A0101400860011483998001*******                                                  0502
A0101400860011493899001**********                                               0505
B0101400860011539482001**********                                               1602
A0101400860011581564001**********                                               0502
A0101400150000006759831PHILIP, AJAY VARGHESE                                    0501
A0101400150000006759842FLORENTINO, GIAN ARNOLD FELICIA                          0501
A0101400150000006759853LUBIS, KAREN ATENTO                                      0501
A0101400150000006759860SUMALINOG, ALCHEE VERT CAJIGAS                           0501
A0101400150000006759871TOPACIO, ROAN GENE LAMORENA                              0501
A0101400150000006759882DE FIESTA, JOHN LEANO                                    0501
A0101400150000006759893CRISTOBAL, VANESSA JOIE FAJARDO                          0501
A0101400150000006759900GONZALES, KATHERINE DUNGAO                               0501
B0101400150000000633505DIGISCRIPT PHILIPPINES INC.                              1603
A0101400150061189064001VENTURA, JOSEPHINE BANAAG                                0501
A0101400150061341283001DIAZ, CYNTHIA MARTINEZ                                   0501
A0101400150061707789001DIMAYUGA, ROBERTO BALASBAS                               0501
B0101400600071516450001********                                                 1601
B0101405810072019239002ROYAL PINNACLE ESTATES CORP.                             1602
B0101405810072029570001PLASTIC CONSUMER CORPORATION                             1603
A0101405810072373265003MANANSALA, JOYCEE CATARATA                               0502
B0601400100000002099330RDF FEED, LIVESTOCK & FOODS, INC.                        1610
B0601400100081295398001MALLARI JR., DIOSDADO OR MARY GRACE                     11604
B0601400100081295398001FAO O2 DESIGN                                           21600
A0601400100081329402003VALENCIA, WILFRIDO OR HELEN                              0505
A0601400360000002282180GRAVAMEN, MARIO CARGAR                                   0502
A0601400520000000398352OCAMPO, FRANCISCO DE JESUS                               0501
B0101413730000001568505************************                                 1601
B0101410850109821100608**********                                               2004
B0101410850109821200608**********                                               2001
A0101410560110478374010FUENTEBELLA, MA. SALLY FREO                              0501
A0101400730000004948427ANQUILO, ANNABELLE SUMAYOP                               0501
B0101401830000000033592CARITAS SALVE CREDIT COOPERATIVE                        11603
B0101401830000000033592TAYUMAN (004)                                           21600
B0101401830000000033616CARITAS SALVE CREDIT COOPERATIVE                        11604
B0101401830000000033616PACO (006)                                              21600
B0101401830141045610001INTERZONAL COURIER SERVICE                               1601
A0101412920000003464908BARRETTO, JOCELYN EXCONDE OR                            10502
A0101412920000003464908BARRETTO, KRISTE                                        20500
A0101412920000000041961ROXANNIE NAS                                             0501
B0101400440161043402001GRAND MONACO ESTATE DEVELOPERS, INC                      1610
A0101400440000000029412EDEN JOY V. TAN                                          0501
A0101400440000000821112MADRIDEJOS, LINALYN BACSID                               0501
A0101407270000003253523SALAZAR, GARY SAZON                                      0501
A0101407270000006761482ARGUELLES, LUIS LLANERA                                  0501
B0101407270162046726001VALUE CARE HEALTH SYSTEMS, INC.                          1650
B0101407270162046726001VALUE CARE HEALTH SYSTEMS, INC.                          1650
B0101407270162046726001VALUE CARE HEALTH SYSTEMS, INC.                          1650
A0101407270162333006030CAROLYN R. OFILANDA                                      0502
A0101401090171195628003PUNSALAN, PATRIA PEREZ OR                               10502
A0101401090171195628003KING, LARRY SIA                                         20500
A0101401090171198157001DRS. WILLIAM OR                                         10510
A0101401090171198157001MA. SALVE OLALIA                                        20500
A0101401090171335675001ANNIELYN I. CAAG                                         0501
A0301400530000003088082SAMAR, REMEGIO ESPANO                                    0502
A0301400530000002318561VILLANUEVA, FEDERICO MAGPAYO OR                         10501
A0301400530000002318561VILLANUEVA, MARI                                        20500
A0301400530000001409621ARASA, ELEUTERIA A.                                      0501
B0301400660000002913215MANALANG, JANUS CARLO DELA VICTORIA                      1601
A0101401380000000414300EUSEBIO, ROSALINDA MATREO                                0502
B0101401380201034155001TINOLEY DIGITAL PHOTOGRAPHY INC.                         1605
A0101401380000001412720BARRETTO, STEWART LIM                                    0501
A0101413020000002292673********                                                 0501
A0101413600000005354850CYNTHIA S. PERALTA                                       0502
B3101400450223040091001YAKAP AT HALIK MULTI-PURPOSE COOPERATIVE                 1602
A3101400450000005355471CIGARAL, PEDRITO EXCONDE                                 0502
A3001400130000001271312SHAPE & WELL NUTRITIONAL                                10501
A3001400130000001271312PRODUCTS                                                20500
A3001400130230478374007ABADILLA, JOCELYN MARIE RAVELO                           0501
A1001400190231478374006LIBRADO, HAZEL T.                                        0502
A1001400480000000474931PAGTALUNAN, HELEN EDPALINA                               0501
A1001400480000003357679SUMANDO, EXEQUIEL MANUEL                                 0502
B0101406620273028932001VALUE QUEST FINANCE CORPORATION                          1603
B0101406620000000962403GEOWORKS INTERNATIONAL CORPORATION                       1601
A0101406620000004925884SINON, VIRGINIA JARVINA ITF JOH                          0501
A0101411820000002328452GENISES C. SOLOMON                                       0505
A0101411820000002328463MARK EDISON M. NAVARRETE                                 0501
A01014118200000023285434CHRISTINE U. ECHON                                      0501
A0101412470000000520294CO, JEFFREY ALVIN YEE OR                                10502
A0101412470000000520294CO, CHERYL JANE TENG                                    20500
A0101400570000006240262RAMOS, ALFIE ALAGANO                                     0501
A0101400570281186603001DR. RESTITUTO C. BUENVIAJE                               0504
B0501400200292036584001SSS EXPRESS CREDIT, INC.                                 1605
A2601400270000002257241GLOVELYN J. RILLERA                                      0502
B1101400120000000652391ONG, VIRGINIA PO OR ONG, WEE CHI PO OR                  11602
B1101400120000000652391ONG, WAN LIAN PO                                        21600
A1101400120313478374066FUNCION, LANIE E.                                        0502
A1101400120313547700001NICOLASORA, ALMARIE EULOGIA P.                           0506
B6601400120314041984001SAMNEST FOOD CORPORATION                                 1602
A6601400120314737040001DURA, CARLITO OR DURA, RENY                              0503
B3401400280318044735001A & T SANTOS INCORPORATED                                1601
A2901400130000006742265SALAZAR, ANN CONCEPCION                                  0501
A2901400130000005961680JAYLO, MA JACINTA CERDON                                 0501
A0101402350000003880433DUMAYAG, ANGELO BACANI OR                               10504
A0101402350000003880433TAN JR., PATERNO GOMEZ                                  20500
A0101402510000006764021GANUELAS, MA. THERESA CORONEL                            0501
A0101402510341348615002CASTRO, AILEEN FAZONELA                                  0501
A0101409050000006520270DANGELO HIPOLITO                                         0501
B0201400920000000007974NEW YUTEK HARDWARE  & INDUSTRIAL SUPPLY                 11610
B0201400920000000007974CORP.                                                   21600
A0201400920375609447001RAMIRO, MARIA ARCELI AVANZADO                            0502
A0101402930000003179515UMALI, DANE-DANIEL ONA                                   0502
A0101402930000003710432ARRIESGADO, ALIZON GELIG                                 0504
A0101411660000000109311**********                                               0501
A0101402770391035543001MEGACITY MINISTRY CHURCH                                10506
A0101402770391035543001SUPPORT GROUP                                           20500
A0101402770391211961001ANTONIO V. PRADO                                         0501
A0101405490392034138001MCMAR & MARY ELECTRICAL                                 10502
A0101405490392034138001& CONSTRUCTION S                                        20500
A0101405490392638455001FE V. BERSALONA                                          0501
A0101408400394376439001SY, LUISITO SANTILLAN/                                  10510
A0101408400394376439001SUNLIGHT DRUGSTO                                        20500
A0101408400394478374056JENNIFER C. TIMOLA                                       0502
A0101408400394478374062APOLIS, SALVACION G.                                     0502
A0101408950396656895001DR. KHRISTINE GRACE CRUZ PULIDO                          0501
A0101409210000002279018AGONCILLO, CONSUELO FLORES                               0502
A0301400820000001185780RUFEROS, ROY KENNETH OR                                 10501
A0301400820000001185780AREVALO, MICHELLE KAY                                   20500
B0301400820000006749611REYES, FRANCISCO ALBUTRA AND COMIA,                     11601
B0301400820000006749611JULIETO MORTA                                           21600
A5501400120410675739001BAYLON, EDWIN ELLON                                      0501
A2401400180000005536621BANTUG, IMELDA MARAVILLOSA DBU                           0506
A2401400180411484327001NUIQUE, JOHN ANTIQUE                                     0501
B0101403030441011865001**********                                               1601
A0101403030441643112001**********                                               0501
A0101406330000004349491ESPIRITU, EMILIA BAUTISTA OR                            10502
A0101406330000004349491ESPIRITU, ELOISA BAUTISTA                               20500
A0101406330000000162616LAND OF THE PROMISE TRUCKING                            10505
A0101406330000000162616SERVICES                                                20500
B0101406330000000432751WALLS IN MOTION, INC.                                    1610
A0101406330472460738003MA. SUSAN P. MORA                                        0501
A0101406330472461992001CARMELITA G. MULDONG OR                                 10501
A0101406330472461992001JULIO G. MULDONG                                        20500
A0101406330472478374037LOLITA D. AMADOR                                         0501
A0101406330472594322002IGNACIO S. JOSE JR.                                      0501
A0101410140475339949001SANTOS, ADORACION SANCHEZ OR                            10505
A0101410140475339949001SANTOS, MYRNA SA                                        20500
B0501400170481018109001*********                                                1602
A1901400320000000679249RODERICK UMALI MAGBOO                                    0502
B1401400110000001096220MANILA TEACHERS' MUTUAL AID SYSTEM                       1605
A1401400110492329425003CUACHON III, NORBERTO AMILHAMJA                          0501
A1401400110492479749001LLONA, RACQUEL CABANADA                                  0502
A1401400110492541441001MANTALA, ROSEMARIE ARAOJO                                0501
A1401400110492620230001DELOS SANTOS, ENRICO PEREZ                               0502
A0101407430000000141773MARTINEZ, LANI MARIE BELEN                               0501
B0101405940512018500001LEBERMAN REALTY CORPORATION                              1601
B0101408530516026161118DIGITAL ISYS CORPORATION                                 1602
A0101411400000003311144KIM, JEONGHEE                                            0501
B0101403450521012137001**********                                               1610
B0101403450521029025001**********                                               1602
B0101403450000002975804***********                                              1603
A0101404000000003950787LORNA V SORILLA                                          0501
A0101404000000001186716BRAGADO, CATHERINE GONZALES OR                          10502
A0101404000000001186716BRAGADO, PETER L                                        20500
A2201400250561478374006ANGELINA P. QUIBALLO                                    10501
A2201400250561478374006MEMBERS OF NATASHA                                      20500
A2201400250000000017245JUROAN MARAYAG PASCO                                     0501
A2201400250561529504002*****                                                    0502
B0101407720602031840001LA CONSOLACION PARADISE BEACH RESORTS,                  11602
B0101407720602031840001INC.                                                    21600
A0101407720602161917001GOYLOS, LORENA CALVO                                     0501
A0101407720602302272001CABREZA, ROLANDO DE SILVA                                0501
A0101407720602398224001CUSTODIO, DEOGRACIAS BANABAN                            10501
A0101407720602398224001OR CUSTODIO, ELEANOR                                    20500
A0101407720602398462001GOMEZ, JOHN MANALO OR                                   10502
A0101407720602398462001GOMEZ, MA. PAZ C                                        20500
A0101407720000000112089RAMOS, JENNIFER GALAPIN                                  0501
A0101412180000004960254SAMPAYAN, JACOBEN PABLO TOGONON                          0501
A0101409920000005460737MEMBERS OF NATASHA (SHOECAT INC                         10501
A0101409920000005460737HERRERA, GINA G.                                        20500
B0101413570000000206613TAMBIO DESIGN & BUILDERS CO.                             1602
A0101413570656057648087MARIE GRACE B. DE LEON                                   0501
A0101413990000001406360AQUINO, ALMA MILAGROS V. DBU                            10501
A0101413990000001406360AQUIVEL PETRON                                          20500
A0101410300000000191939CARBALLO, LUIS ANTONIO S. OR                            10510
A0101410300000000191939SALAZAR, EMMANUEL B.                                    20500
A1301400210000003105051SANTOS, NOREEN PAGCALIWAGAN                              0502
B1301400210682039340001CDS MACHINE SHOP CORPORATION                             1605
A1301400340000000926881EMBUSCADO, MARIFLOR BLANCO                               0501
A1301400340683406123001TOBIAS, SUSANA FULGENCIO                                 0502
B0101408240711026678001SAMBEL PACIFIC CORPORATION                               1602
A4101400420000004848039ALAMO, REDENTOR PURIFICACION                             0502
A4101400420814357382003REMULLA, GILDA VASQUEZ                                   0502
A4101400420814520766134TERESITA A. CASTILLO                                     0502
A4101400420814520766136VALLEJO, ELVIE                                           0501
A4101400420000000710483ESPANOLA, MA. ANGILY CASANDRA                           10502
A4101400420000000710483CARBA                                                   20500
A4101400550000000506869**********                                               0510
A0101412340000003343633MIGUEL ROY M. GOTERA                                     0501
A0101412340000003564447JEROME M. MAMANGUN                                       0501
B0101404840851018774001FIL-LABOR COMM'L & INDUSTRIAL CORP.                      1601
A0101404840851478374115ERLINDA O. PRADO                                         0501
A0101406750852478374118RUBY FLAVIER                                             0501
