A1901400290000011837713CHAVEZ, REMEGIA LAT                                      0502
B1901400290261036122001LODLOD PARISH MULTI-PURPOSE COOPERATIVE                  1605
A1901400290000013720086PERLA VICENTA DE CASTRO                                  0501
A1901400290000012632610PANALIGAN, GIRLIDIA SANCHEZ                              0502
A1901400290000018027282NAVARRO, GEMMA LALUSIN                                   0501
B0301400660000006862640EMARCOS BUILDERS AND SUPPLY                              1602
A0301400660000003405967MARY ANN B. CUA OR EDWIN Y. CUA                          0503
B0301400950000002115913GCW9 LAND, INC.                                          1605
A0101412630000005107248MUSTERA, SEGUNDINA FLOR                                  0501
A0101412630132079436001MUSTERA, CONRADO TOLARBA                                 0501
A0101412920000018379032PEREZ, CHRISTIAN CAESAR OR                              10502
A0101412920000018379032PEREZ, MA KATHRINA LOU                                  20500
A0101404260611155266001YU, SUSANA OR EDDIE                                      0501
A0101407270000006817047LEONA PAULA MORALES OR                                  10501
A0101407270000006817047IRENE MAGLASANG                                         20500
A0101410720000016140253SANTOS, MELANIE SANTOS                                   0502
B0101410720653043060001METRO DRY CLEAN VENTURES, INC.                           1603
A1901400290000013436210OLA, MARIA CRISTINA MATIAS                               0502
A0101405490392177005001DOMINGA P. BUENAOBRA                                     0501
A2401400180411658464001FRUTO, RUTH GENAYAS                                      0501
B0101404260611030938001BUON FORTUNO REALTY DEVELOPMENT                         11602
B0101404260611030938001COMPANY, INC.                                           21600
B0101404260611035660001BETERAVIA CREDIT CORPORATION                             1604
A0101400150000012146206FRAGANTE, SOCORRO PROTACIO                               0501
A0101400150000009399740ANCHETA, TERESITA MEDINA                                 0501
B0101400150061010809001VENDOME INSURANCE AGENCY KONSULT, INC.                   1603
B0101400150000000000124WORLD AVIATION CORPORATION                               1601
A0101400150061226265001RAFAEL F. SIMPAO JR. OR                                 10503
A0101400150061226265001MELISSA O. SIMPAO                                       20500
A0101400150061739693001FRANCISCO D. VARUA OR MARIA                             10501
A0101400150061739693001MARLENE A. VARUA                                        20500
A0601400520000013872563MORALES, MARIVIC FERNANDO                                0501
B0601400520000009516241J TANGLAW GROUP OF PAWNSHOPS, INC.                       1603
B0101413280000009368487PLANET DRUG STORE CORP.                                  1604
A0101413730000005959751************                                             0505
A0101414090000001652422CARIAS, HONEYLENE CRUTA                                  0501
A0101410850000009034606DE LOS REYES, JESTONI DE LA                             10502
A0101410850000009034606CRUZ                                                    20500
A0101410850109420932001IGNACIO, NIDA ARMOGENIA                                  0501
A0101410560000013758860JOHN LISTER A. SOLOMON                                   0502
A0101400730000018149589GASTON, JASMIN DE JESUS                                  0501
B0101400730111008426002COUNTRY BANKERS INSURANCE CORP.                          1602
B0101400730000002102312DINICOLAN ISLAND DEVELOPMENT CORPORATION                 1601
A0101400730111403905001MONTERDE, ARNEL MORA OR                                 10505
A0101400730111403905001JARDIOLIN, MAJAR                                        20500
A0101412630000004062086BANZUELA, ELEANOR ADORNA                                 0502
B0101412630000007157840R. S. MONTOYA & ASSOCIATES INC.                          1601
A0101401830141703189001TRIA JR., EXEQUIEL A. OR                                10502
A0101401830141703189001TRIA, RITA VERON                                        20500
A5001400170000018683362UY, DON HENRICH DY                                       0501
A5001400170000005705197MAGBAGO, JUCEASAR MACALONG                               0501
A5001400170000006294539TAN, LOLITO HEYRANA                                      0504
A5001400170000018680749ALANO, RENO TEE DBU REAL MOTORS                          0501
A5001400170000018680852ALANO, RENO TEE DBU REAL MOTORS                          0501
B0101412920000015923523XTREME PLUS SYSTEMS AND TECHNOLOGIE                      1601
A0101412920000018753252CABRERA, KRISTIAN PAOLO DBU EBJ                         10501
A0101412920000018753252MARKETING JT                                            20500
A0101400440000004889785ELEANOR A. APO                                           0501
A0101407270162721922001REYNALDO J. DEL POSO                                     0501
A0301400530000006239421NGO, JAIME YU                                            0505
A0301400530000014433757CUNADO, ELLEN BACSARPA                                   0501
A0301400660000016080410ALAMILLO, EDUARD FUENTES DBU E.                          0503
A0301400660194739252001COMO, MYRA CASTRO                                        0502
A0301400790000001776092OBEREZ JR., GENARO OR OBEREZ,                           10502
A0301400790000001776092JAY VINCENT U.                                          20500
A0101413600000010758906NICOL, GILBERT FERNANDEZ                                 0501
A3101400740000006735879BALBOA, REYNALDO DBU GREAT HEAD                         10504
A3101400740000006735879BUILDING SYSTEM                                         20500
B1001400190000001057669HEXAGONTECH AUTOMATION, INC.                             1602
A1001400190000002170769JUGAN, NOUE MALOLOT                                      0501
A1001400190000008743886BARRON, LORNA ROA                                        0502
A1001400350000004095323SALVANA, MARIA ISABEL PIZARRO                           10502
A1001400350000004095323OR PIZARRO, ROBERTINO E.                                20500
A1001400480000001054740KWAN, RUBINA B OR KWAN, ROMEO G                          0501
A1001400480000014185947SUSAS, NOLI GUTIB                                        0501
A1001400480000014748822CARERAS, CARLO CIELO                                     0502
A1901400290000013436192JOHN MACASAET ROXAS                                      0503
B0101401670271034697003ROPER CONSTRUCTION CORPORATION                           1602
B0101401670000000739253A.L. SALAZAR CONSTRUCTION, INC.                          1605
A0101401670271188489001CARMEN C. LIM                                            0501
B0101406460272043457001TARSIER SECURITY AGENCY, INC.                            1602
A0101406620000000962250ALMARZA, JESSA MARIE RAMOS                               0502
A0101408660000016416676SY, NENG SHEN                                            0501
A0101408660000017810732ASCANO V, AARON ALEXANDER                               10501
A0101408660000017810732JOSELLO MARTINEZ                                        20500
B0101410980000013557894MANILA STELLAR FOOD TRADERS INC.                         1605
A0101400570000017834283LIM, STEPHANIE RISSA WE                                  0501
A0501400200000017208429SASIS, ALMA URBANO                                       0501
A0801400160000002287545UY, KIM OLIVER FEGARIDO                                  0501
A0801400160000002681661NOE'S UPHOLSTERY FURNITURE &                            10504
A0801400160000002681661ENTERPRISES                                             20500
B0801400160311389143001CHAN, MILAGROS OR                                       11602
B0801400160311389143001CHAN, NATHANIEL                                         21600
B2001400290315042342001LUZON RAM CYCLES, INC.                                   1601
B2001400290315047753001SILLIMAN UNIVERSITY COMMUNITY COOP.                      1610
A2901400130000011947752ABELLA, NEMIA MENDOZA                                    0501
A0101402060000010882836EMALADA, CLARIZA CRUZADO                                 0502
B0101402060351009544001RI CHEMICAL CORPORATION                                  1604
A0101409050000003536218CAPCO, MARIA GRACE                                       0501
A0101409050000012409944BONGABONG, SHERWIN PATRICK MAGA                          0501
A0101409050000011558979NORA C. VILLAMAYOR                                       0501
A0201401020000003882100********                                                 0502
A0101402930000010658110TORRES, JONATHAN ZAMBRANO                                0501
A0101402930381283088002JOSEPH VINCENT A. ALBA OR                               10504
A0101402930381283088002AGNES A. ALARILL                                        20500
A0101408370382493699002DRS. ROMMEL P. TOLENTINO OR                             10501
A0101408370382493699002LAARNI B. TOLENTINO                                     20500
A0101408370382618960001JOHN GEOFFREY G. PALISOC                                 0502
A0101408790000015275108ESGUERRA, JEANNE PAULETTE UMALI                          0503
A0101411660000002881150JOSE C PEPITO JR DBU JCAP                               10502
A0101411660000002881150SIMPLIFIED BUILD                                        20500
B0101411660000005434782G-MAX ENVIRONMENTAL SOLUTIONS INC.                       1602
A0101402770391217498032LEONARDO C. CASTANARES                                   0502
B0101405490000013942100AIRBRIDGE 3000 PHILS., INC                               1601
B0101405490000013942111REXIM PHILIPPINES UNIVERSAL SALES                       11602
B0101405490000013942111CORPORATION                                             21600
A0101408400394605254002KE, GINA DY                                              0504
A0101408950396586054001CALMA, LORENZO LICAD OR                                 10501
A0101408950396586054001CALMA, STELLA G.                                        20500
A0101409180000015943885RAULT, JULIE SALAZAR                                     0501
A0101412210000016641220GEROBIESE, TRISHIA PAGARAN                               0501
B0301400820409091735055LIMA, WINDELL BRISTOL DBU DAVAO HOME                    11601
B0301400820409091735055BUILDERS CENTER                                         21600
B5501400120410040779001NOTRE DAME OF NORALA, INC                                1610
B5501400120000005492457VALEENVISTA GLOBAL ESTATES CORPORAT                      1601
B2401400180411014383001RD EMPLOYEES CREDIT COOPERATIVE                          1620
B2401400180411061343002OBET AND BEA INDUSTRY CORPORATION                        1605
A2401400180411272543002RIVERA, RONNEL CHUA                                      0501
A2401400180411372265002LOPEZ, ALLAN GO                                          0501
B2401400180411783270088JSDR MARKETING - GEN. SANTOS BRANCH                      1604
A5101400100000011337090COLINARES, CRISTOPHER NAGUIO                            10502
A5101400100000011337090OR COLINARES, FLORDELIZA                                20500
A5101400100000010834290GALAN, JONATHAN HENRI PARIS DBU                         10501
A5101400100000010834290RED STAR & GALAN,MIRALUNA                               20500
A0101403030441239184001DARWIN NG                                                0501
A0101412890000018694741JULIA DUGAYEN SENGA                                      0501
B0101403320471027546002WINFAITH ENTERPRISES                                     1603
A0101406330000017067802POLON, MICHAEL ANGELO DIALOGO                            0502
A0101406330472311319001ALEJANDRO V. VICTORINO JR.                               0503
A01014127600000115746515ORTEZ, MARLIN MARARAC DBU PF 1                          0502
A0101412760000011574731TANALA, MARK LEO I DBU MLIT INT                          0501
B0101412760000018818223TANALA, MARK LEO CORBU MLIT INTERNA                      1601
A0101412760000015445599TANALA, MARK LEO INIGO                                   0501
B0501400170481018109001CSI WAREHOUSE CLUB INC.                                  1601
A0501400170481033355001GOLDEN TIES AND FOOD                                    10502
A0501400170481033355001RESOURCES INC.                                          20500
A1401400110492222234003MARTINEZ, FERNANDO PELIPADA OR                          10504
A1401400110492222234003MARTINEZ, MA. LU                                        20500
A1401400110492357128002ESPARAS, TERESA BAUTISTA                                 0502
A1401400110492478374017JOSEPHINE ECLAVEA                                        0501
A1601400170000015512980RELLETA, ANAMARIE VILLAVICENCIO                          0501
A1601400170000001068662MARIA JULIETA I. SALVOSA                                 0501
B1601400170000014303970BALMES, JACINTO RONQUILLO DBU JRB                       11605
B1601400170000014303970CALIBRATION JT                                          21600
B1601400170000009954692EQUIRISE CREDIT CORPORATION                              1602
A0101407430000014993481CELESTE SISON RIVERA                                     0501
A0101408530000018807806NG, KRISTINE MAY MANALANG                                0501
A0101412050000002314530MARQUEZ, JOSELITO GATMAITAN                              0501
A0101412050000002314552RODRIGUEZ, CECILIA GERONIMO                              0502
A0101412050000013259013MARY JANE A. CABANTAC                                    0502
A0101403450000013091742TAN, VON BISMARCK LEONARDO                              10502
A0101403450000013091742OR TAN, VENERAND                                        20500
B0101403450000000135635PHILIPPINE TRADE CENTER, INC.                            1601
B0101403450000006055814BONAVIDA HOLDINGS, INC.                                  1601
A0101403450521233116001**********                                               0501
A0101403450521238598001**********                                               0501
A0101403450521238948001**********                                               0505
B0101403450521239481001**********                                               1602
A0101403450000009517579**********                                               0501
A0101403450521361573001**********                                               0502
A0101403450521361573003**********                                               0501
A0101403450521570247001**********                                               0501
A2201400250000012982442CAROLYN VALENCIA MANALO                                  0501
B2201400250000015110635BALON, MIRIAM GRANADOS DBU MIRIABELLE                   11604
B2201400250000015110635FOODSERVICES                                            21600
B2201400250561043904001POWER MOVERS, INCORPORATED                               1601
B2201400250561088535001CHRISTOPHER JORDAN L. CHUA                               1602
A2201400250561299317001MIRASOL M. SAN SEBASTIAN OR                             10504
A2201400250561299317001ALLAN M. SAN SEBASTIAN                                  20500
B0101407720602044366001A. ILUSTRE & ASSOCIATES, ARCHITECTS                      1601
A0101407720602396744002ANG, JENNIFER CU                                         0502
A0101407720602521571001BARADI, MACRINA RACHEL DIWATA A                          0502
B0101404260000000157026INTERPRO FOOD SPECIALIST INC.                            1605
A0101404260611353663002CLAMAR, GLENDA SUAREZ                                    0501
B0101409890000006812757TECHPAQ MARKETING INCORPORATED                           1601
A0101409920000000998569MEMBERS OF NATASHA (SHOECAT INC                         10501
A0101409920000000998569PEDROSA, JULIE J                                        20500
A0101407690000012227068LORENZO, CLARABEL GOIS                                   0501
A0101411530000016783081RANQUE, MARIELLE COME                                    0501
A0101413990000018479657DEQUITO, MEREDIE ORBE                                    0501
A0101413990000006768581NEBRIA, ESTER P. DBU BUTTER-NUT                         10503
A0101413990000006768581BAKESHOP                                                20500
A0101413990000000206033MARITES R. CONANAN                                       0502
A0101414120000000648960AZUELA, CYNTHIA LARGADO                                  0503
A0101414120000011765014FIDELSON, MARY GRACE FRANCISCO                           0501
A0101414120000014118297BABILA, MARICEL BARCE DBU                               10501
A0101414120000014118297YCEL'S TRADING                                          20500
A0101406590000005305117PAGULAYAN, ALFREDO OR RODRIGUEZ                         10502
A0101406590000005305117FILOMENA                                                20500
B0101406590000017377261FARMWATCH SOLUTIONS INC.                                 1601
A0101410300000016302366NOGALES JR., NICANOR ERRASQUIN                           0501
A1301400210000009982198PAULINO, ALEXANDER SARMIENTO                             0501
A1301400210000011696509PAGUIA III, FLORENCIO FRANCISCO                          0501
A1301400210000016547985BERNARDO, JO CHRISON SAGADAL                             0502
A1301400210682247780002AILEEN ANDAN MUNOZ OR                                   10502
A1301400210682247780002DENNIS DELOS SAN                                        20500
A1301400500000017421153JOSE B. SANTOS JR. OR                                   10502
A1301400500000017421153MARIA PAMELA T. SANTOS                                  20500
B1301400500000005963740MARK GIL S. ARCENAL                                      1602
A1701400230000011517332ONG, ARLENE CAPILI OR ONG,                              10502
A1701400230000011517332ERIC ENRIQUE COR                                        20500
A1701400230000012227586LAGAN, JHONA MAY MIGUEL                                  0503
A0101408240711562386001BUTAYA, MAY ANN MANLAPIG                                 0502
A0101408240711743061001LAWS, TIMOTHY REYNOSO OR                                10505
A0101408240711743061001KATRINA OR JOSEP                                        20500
A2801400230000012228341CHAM, MARIA CELIA GUZMAN                                 0510
A4101400390000015067291CASTRO, RANDY LUNA                                       0501
A4101400390813478374045FIRMALINO, MELECIA ATIENZA                               0503
B4101400420000016909309LDK MILKTEA CORPORATION                                  1601
A4101400550815543270001PASCUA, MINCHIE UY                                       0501
A0101404840000010224732GONZALES, ROWENA P.                                      0501
A0101404840851334120001MARY ANN R. PANGAN OR                                   10501
A0101404840851334120001JOHN NOEL PANGAN                                        20500
B0101406750000000017552SIEGRANZ CHEMWORKS CORPORATION                           1601
A0101406750852787916002TAN, LUZBELLA FORTICH                                    0502
A0101413860000018802485DUMARAOG, JOSE RIO ORMIDO                                0501
A0101413860000018802690TOLEDO, CRISALES CRISTAL QUIROZ                          0501
B0101413860000001768005CARGO DOMINANT WORLDWIDE LOGISTICS, INC.                 1601
A0601400230000018807771MANALANG, HAZEL PAMINTUAN                                0501
A0601400230000018807862BIE, MARY ANN DANGCALAN                                  0501
A0601400230000018807931SANTOS, MARISSA ELAGIO                                   0501
A0601400230000018807993MANALANG, LIBERTY SUBA                                   0501
A0601400230000018808052BALAQUIAO, ALLAN CHAVEZ                                  0501
A0601400230000018808092FIGUEROA, ARLIE MANALO                                   0501
A0601400230000018808132JOCSON, JOVIE ALFARO                                     0501
A0601400230000018808161FABIAN, KARISSA MARIZ DE LEON                            0501
A0601400230000018808201REGALA, RIVERLY APRIL HERMIAS                            0501
A0601400230000018808230GUTIERREZ, CHONA RODRIGUEZ                               0501
A0601400230000018808263NUGUID, JOSEPH VLADIMIR BANZALI                          0501
A0601400230000018808303SAMSON, RONALD DANTES                                    0501
A0601400230000018808343NACPIL, CLARK ISRAEL SANTOS                              0501
A0601400230000018808376NAJERA, DARWIN MERCADO                                   0501
A0601400230000018808401MANGUNE JR., SOFRONIO GARCIA                             0501
A0601400230000018808434VALDENOR, VICTOR EMMANUEL BICCA                          0501
A0601400230000018808478FELICIANO, ROCHELLE BRIONES                              0501
A0601400230000018808514REYES, JAMES SUPAN                                       0501
A0601400230000018808547MATUTE, MILAN GASCON                                     0501
A0601400230000018808581VIRAY, DAPNEE ANN LINGAT                                 0501
A0601400230000018808616MARCELO, DIANA PUNZALAN                                  0501
A0601400230000018808650GARCIA, LORYLEE VITANGCUL                                0501
A0601400230000018808683DACAPIAS, MAISEL GARCIA                                  0501
A0601400230000018808718AGAPITO, ROSE ANN DIANNE DIZON                           0501
A0601400230000018808741REBUCAN, JANE ROSE GIPA                                  0501
A0601400230000018808781SANTIAGO, JOEL DIZON                                     0501
A0601400230000018808810JAVIER, JIMMY GARAO                                      0501
A0601400230000018808843NUQUI, EDWIN BINGCANG                                    0501
A0601400230000018808883BANIQUED, ROGEL MARIE MAALA                              0501
A0601400230000018808912LUPERA, JHAZMINE SEMSEM                                  0501
A0601400230000018808941RIVERA, EDCEL ECHON                                      0501
A0601400230000018808985GARCIA, EMELIE PINEDA                                    0501
A0601400230000018809022LUGTU, JOSELLE MALANG                                    0501
A0601400230000018809062GARCIA, ANALIZA CANDA                                    0501
A0601400230000018809095WAJE, RICKY SANTOS                                       0501
A0601400230000018809120DE VERA, ALEJANDRO RET                                   0501
A0601400230000018809153QUIAMBAO, IMELDA MESA                                    0501
A0601400230000018809186CAROLLO, CARMENCITA SUING                                0501
A0601400230000018809233DEL ROSARIO JR., RODOLFO GOPEZ                           0501
A0601400230000018809266ENTERESO, JOHN BRIAN ESPINEDA                            0501
A0601400230000018809299PATIO, ADORNADO MACAPAGAL                                0501
A0601400230000018809324DEL ROSARIO III, RODOLFO DATU                            0501
A0601400230000018809357HALLARE, RODEL PANGILINAN                                0501
A0601400230000018809404CACAO, MARIAN SANTOS                                     0501
A0601400230000018809437TUMANG, ROWENA TIBE                                      0501
A0601400230000018809460BITANGCOL JR., LUISITO ROMERO                            0501
A0601400230000018809493BACANI, ROMEO MANALANG                                   0501
A0601400230000018809528MENIANO, JENNALENE BELMONTE                              0501
A0601400230000018809551PASION, REYNALDO FABIAN                                  0501
A0601400230000018809608GESMUNDO, WELVIN ESCARTIN                                0501
A0601400230000018809631RITUAL, ANNALIZA LACDAO                                  0501
A0601400230000018809660SILVESTRE, JAYPEE ZAPATA                                 0501
A0601400230000018809693ABIERO, ARNEL CUERDA                                     0501
A0601400230000018809733VELOIRA, NOEL CRUZ                                       0501
A0601400230000018809762IGNACIO, BOBET TORRES                                    0501
A0601400230000018809802MENESES, ROMIE CAYANAN                                   0501
A0601400230000018809831ABELO, ULYSSES YU                                        0501
A0601400230000018809864ACOSTA, REDENTOR ASIS                                    0501
A0601400230000018809897SANTOS JR., ALVIN SANTOS                                 0501
A0601400230000018809933SANTOS, JALYN CASTRO                                     0501
A0601400230000018809966BALINANG, JOHN PAUL BULANADI                             0501
A0601400230000018809999CANCIO, KATHERINE GAYLE PAYUAN                           0501
A0601400230000018810034CAPPAL, OHEL AARON DE GUZMAN                             0501
A0601400230000018810067DE PERIO, VICENTE MONTEHERMOSE                           0501
A0601400230000018810090DE VERA, CELSO SATURNO                                   0501
A0601400230000018810125DEDICATORIA, RIC NAVARRO                                 0501
A0601400230000018810158DELA CRUZ, CHRISTOPHER BERNABE                           0501
A0601400230000018810192DIAZ, ALLAN JOHN PEREZ                                   0501
A0601400230000018810227SANTIAGO, FROYLAN CARDEL                                 0501
A0601400230000018810250PORCALLA, BENJON HOBAYAB                                 0501
A0601400230000018810290DIZON JR., ROMULO DE JESUS                               0501
A0601400230000018810329ERECE, RYAN JAKE VALENTINE                               0501
A0601400230000018810352EVANGELISTA, ISAGANI CARLOS                              0501
A0601400230000018810381FLAVIER JR., RUBEN INDONILLA                             0501
A0601400230000018810410FRANCISCO, RANDY DE JESUS                                0501
A0601400230000018810450FRANCISCO, RICHARD DE JESUS                              0501
A0601400230000018810494GALLARDO, JAMES CAGULA                                   0501
A0601400230000018810523GERALDO, RUEL LETRODO                                    0501
A0601400230000018810552GUIAO, ARNY CORDERO                                      0501
A0601400230000018810585JIMENEZ, ROSELLINI GUTIERREZ                             0501
A0601400230000018810621LOCQUIAO, JEREMY LOPEZ                                   0501
A0601400230000018810665LOPEZ, LUTHER TUNGCAB                                    0501
A0601400230000018810698LOSANO, PAUL ANDRO NOCETE                                0501
A0601400230000018810723MALLARI, KIM KARLO YAP                                   0501
A0601400230000018810778MATEO JR., RICARDO DOMINGO                               0501
A0601400230000018810803MENDOZA, ARIEL NEPOMUCENO                                0501
A0601400230000018810836MONTOYA, VEEJAY SUMANG                                   0501
A0601400230000018810869NICDAO, ERIC PALO                                        0501
A0601400230000018810905NILO, NOEL FUERTEZ                                       0501
A0601400230000018810938ORDANEZ, FROILAN CADIZ                                   0501
A0601400230000018810961PENA, JEFFREY TOLENTINO                                  0501
A0601400230000018811004QUIZON, JERSON MALLARI                                   0501
A0601400230000018811037VISTADA, LORETO LIBUNAO                                  0501
A0601400230000018811071CORDERO, MARVIC CUNANAN                                  0501
B0601400230891039268001GOLDIE PLUS LENDERS, INC.                                1610
A0601400230000014575950NAGUIT, MHELODIE OCAMPO                                  0503
