F4101400260812478302001CHITO Y. OLBIDO OR                                      12510CKO
F4101400260812478302001AGNES C. OLBIDO                                         22500CKO
F1901400290261400113002MA TERESA V VILLA OR                                    12503CKO
F1901400290261400113002TEODORO ANTONIO                                         22500CKO
F0101400570281522825001JOSE B. MORAN                                            2503CKO
F4101400260000000002171CAPACIO, MILAGROS RAFOL                                  2502CKO
