A0301400530193821100608**********                                               0503
A0301400530193821100608**********                                               0503
B0101406750852821100608**********                                               2003
A0101412630000009425407MANUEL C. BALDEO JR. AS SEC APP                          0510
A1101400120000002254946MEJICA, SORIEL BARDIAGO                                  0503
A1101400120313478374032CHAVERO, BERNARDITA V.                                   0501
A1101400120000006186398VILLEGAS, ALVIN BRIAN PACRES OR                         10502
A1101400120000006186398DONGHIL, ERNILO DINOY                                   20500
A0101412920000005915631CASTRO, SONNY VALEN ROMERO                               0501
A0101412920000005354605MECUA, CARLO RAFAEL                                      0501
A0101412920000008813656CANETE, OLIVER MANGLICMOT                                0503
A0101411240000011086821REGANIT, MERLINA REYES                                   0501
A1101400120000006186343JABINES, DYANN JAIME DBU LA                             10501
A1101400120000006186343BOTICA DYANN                                            20500
A0101409180000004409814PALLANAN, CRISTIAN MANZON                                0501
A0101412890000001765682MARIA ROSELLE M SANTOS                                   0503
A0101400860011482361001**********                                               0501
A0101400860011551733001MARIA TERESA S ESTANDARTE                                0502
A0101400860000005312947**********                                               0502
A0101401250021468980001GENELYN C. CARTON                                        0501
A0101400150000003162990LIEZEL BON N. CARTERA                                    0501
A0101400150000004422360REPIZO, TERESITA MANALO                                  0502
A0101400150000001422473CARABIDO, MARIFEL VILLAMAR                               0501
A0101400150061230398001GLORIA T. ALMAZAN                                        0501
A0101400150061236944126JOSE JOSAFAT TOLENTINO                                   0501
A0101400600071684249001******                                                   0503
A0101405810072470925002***************                                          0505
A0601400520000005943371MANIEGO, JULIUS LARGO                                    0501
A0101410560000002316456REYES, REDENTOR HERNANDEZ                                0501
B0101410560110821100608**********                                               2003
A0101400730111200799002UNGOCO, EMMA LAGUARDIA                                   0508
A0101400730111478374018JAYME, CORAZON                                           0502
A0101413150000000082642*****                                                    0501
A0101412630000009425407MANUEL C. BALDEO JR. AS SEC APP                          0510
A0101401830000011215835DE GUZMAN, JOSEFINA REGACHO                              0501
A5001400170000000214002REQUINA, ORWINO ATAY                                     0502
A0101412920000005354478CULASI, ANTONIO CENAS                                    0510
B0101400440161007542001PACE REALTY INVESTMENT INCORPORATED                      1601
A0101400440161459294001MARY ANN T. REGINALDO                                    0502
A0101400440000000821101ORENSE, JULIA A. OR                                     10502
A0101400440000000821101ORENSE, EDWIN J.                                        20500
A0101407270000011217808ARBIZO, MARIO GERALD ELAYDA                             10501
A0101407270000011217808OR RIVERA, MARIA CARINA D                               20500
B0101407270162037605002MAINE CITY PROPERTY HOLDING CORP.                        1607
A0101407270162508001002FREDDIE H. CASTOR                                        0501
A0101401090171775528001JULIETA A. PERALTA                                       0502
A0301400530000003088048MINER'S CHEMICAL INDUSTRIES COR                          0504
B0301400530000007345533VENEERING MASTER WOODPHIL CORP.                          1603
B0301400660000000195077VALOR SECURITY AGENCY, INC.                              1605
A0301400660194772365001*****                                                    0505
A0301400790000005692180DAHOYAG, JINGKIE ALEJADO                                 0502
A0301400790000002301273DANGCALAN, MARITES DALOGDOG                              0501
A0101413020000000056831****************                                         0502
B3101400160221013530024RD PAWNSHOP, INC.                                        1603
B3101400160221017124001PANASONIC PRECISION DEVICES PHILIPPINES                 11602
B3101400160221017124001CORPORATION                                             21600
B3101400160221043434001NY SAN FELIX LTD. CORP.                                  1610
A3101400160221478374033ELMER M. VALERIO                                         0503
A3101400160221506317001RACHELLE B. ALVIAR                                       0503
A3101400870000000074844ROA, ROSEMARIE JUNDOS OR ROA,                           10501
A3101400870000000074844JAMES ROQUE GARC                                        20500
A3101400870000005565233NAVEA, ROY FRANCIS RENTERO                               0501
A3101400870000000957655BITHAO, C DBU BP-1 CAR AUDIO                            10502
A3101400870000000957655AND ACCESSORIES                                         20500
B1001400190231014439001MINDANAO MOTORS CORPORATION                              1601
A1001400350000000017165MEN DBU A&L MARKETING SOLUTIONS                          0501
A1901400290261488341049DR. JOHN RODOLFO D. SUAN JR.                             0502
B0101401670271019574001DIGITAL TELECOMMUNICATIONS PHILS., INC.                  1601
A0101401670271175533001* * * * *                                                0502
A0101406460000002330990********                                                 0502
B0101406460272007492002FASTENERS INCORPORATED                                   1601
A0101408660000000372952ERIK KRISTOFER A. RIOLA OR                              10501
A0101408660000000372952MARGARET L. RIOLA                                       20500
A0101411110276068080001SANTOS, ERIC DBU ESANTOS FIRE                           10501
A0101411110276068080001SAFETY ENTERPRISES                                      20500
A0101411110276464851088BRIZUELA, BENITO JAVIERTO                                0505
A0101400570281189114001DANILO OR LORRAINE FELICIANO                             0510
A0101400570281704666001AMANCIO, EMILIE NOCHE                                    0501
A0501400200000001081065DELOS REYES JR., PEDRO BULOSAN                           0502
B1101400120000006186883ONG, VIRGINIA PO AND ONG, WAN LIAN PO                    1601
A1101400120313043824001LOLITA HEIGHTS REALTY                                   10501
A1101400120313043824001DEVELOPMENT CORP                                        20500
A1101400120000006186401DOROJA, LORIEFE  TAN                                     0501
B2001400290315688888001**********                                               1610
A3401400280318736058001NINFA U. EZPELETA OR CORRIE E.                          10503
A3401400280318736058001ADONAY                                                  20500
A3401400280000003309139TERESA A. SANTOS OR                                     10501
A3401400280000003309139MARIA CONSUELO A. ALMONTE                               20500
B0101402350321034292001JACINTHE MANUFACTURING CORPORATION                       1602
B0101402350000000655481IM MEDIA.PH INC.                                         1602
A0101402350000005645092BASCUGUIN, GLADYS B. DBU                                10501
A0101402350000005645092GBB RENT-A-CAR                                          20500
A0101405650000008159080YOON, YERANG                                             0501
A0101402510000007714761TENDERO, MARIA PAMELA GATBONTON                          0501
A0101402510000007714761TENDERO, MARIA PAMELA GATBONTON                          0501
A0201400760000008869765*********                                                0502
A0201400760374327890001HESS, ROLF P. OR                                        10503
A0201400760374327890001HESS, ALICE B.Y.                                        20500
B0201400890000005491330GREENWORLD LED SOLUTIONS, INC.                           1603
B0201400890376668181001ST. MARK'S RESIDENCIA, INC.                              1605
A0201400890376762070001JIMENEZ, MARIA THERESA ALMARIO                           0503
A0201401020000008693683RAYMOND ALIPATO                                          0501
A0201401020000003031129DEL PRADO, JOSE VICE DBU DE LAR                          0502
A0201401020000004409078PEPITO JR, RICARD DBU AQUA MAGI                          0503
A0101402930000010657851STO TOMAS JR., RAFAEL HIPOLITO                           0502
B0101402930381008885001ASIATIC LAND INC.                                        1601
B0101402930381790801001MEET A NEED FOUNDATION, INC.                             1601
A0101408370382035804001TMC DEPARTMENT OF OPHTHALMOLOGY                          0501
A0101408370382209078001DR. STELLA G. MANALO                                     0502
A0101408370382391359001DR. JULIUS C. CAJUCOM                                    0502
A0101408790000008159137SUNGA, LAEDA BENEDICTO                                   0501
A0101408790000009593224KATTY FAYE F. REGASPI                                    0501
B0101408790000006025849YMSL GOURMET FOOD TRADING CO.                            1601
A0101408790383511958001DELOS REYES, NADINE ANNE                                10501
A0101408790383511958001CZIARAH MERCADO                                         20500
B0101411660000002808091THE OUTLET PEOPLE (TOP) INC.                             1602
B0101402770391025883001DA LEONARDO INDUSTRIAL INC.                              1601
A0101408400000006813790CUAYCONG, RIZZI ANDRADA                                  0501
A0101408400000007905839VILLAR, CHRISTOPHER BUENO                                0501
A0101408950000011077717DAYAO, JOCELYN TOLENTINO                                 0502
A0101408950000011077728SAHAGUN, MYRELEN PANELO                                  0502
A0101408950396572239001PUYAT, MARIA LUISA TICZON                                0505
B0101409180000000874773R.R. ENCABO CONSTRUCTORS INC.                            1605
A0101412210000005303075CRUZ, MARIA PATRICIA CHELO                               0501
A0301400820000007372810GOLIMLIM, MARICHU M.                                     0503
A5501400120410275634001BAUTISTA, RYAN REYES                                     0503
B1201400150000005357906COST OF MONEY LENDING CORPORATION                        1605
A5101400100000010371461ACTUB, JONELYN BERNASOL                                  0503
A0101403030441660281001**********                                               0503
A0101412890000005944994ALINDOGAN, JAMES NELSON J. OR                           10501
A0101412890000005944994ALINDOGAN, CORAZON J.                                   20500
A0101412890000009833554AMIDO, ANNA LIZA GUEVARA                                 0501
A0101412890000005913260********                                                 0505
A0101403320000004830995GATTECH SUPPLY AND ENGINEERING                           0510
A0101403320471068088001MANZO, ALEXANDER P. DBU                                 10501
A0101403320471068088001LEXXEL TRADING                                          20500
A0501400170000002354623CARDOZO, JENNY MAE GARCIA                                0501
A3801400170000005288122ESTEVES, FLORINDO ECHANOVA                               0501
A1901400160000011218174DAPUYEN, JAZZEL LINGDAS                                  0501
B1901400160491014714002TALUMPOK SILANGAN MULTI-PURPOSE COOP.                    1602
A1901400160491298552008VILMA F FALCUNAYA                                        0502
B1901400160491347054001EMMA MACATANGAY AND MARIO MACATANGAY                     1603
A1901400160491659463001GLORIA JARO PENA                                         0502
A1401400110000010622709CRISOSTOMO, STEPHANIE ARAMBULO                           0501
B1401400110492042503001LUCENA ROOFWARE TRADING & SERVICES                       1601
B1401400110000003475661QUEEN MARGARETTE HOTEL, INC.                             1605
A1401400110492595818001ARQUIZA, JOSE RAMIL REGODON                              0501
A0701400260000006599520MORANO, JOEL STA. ROMANA DBU JO                          0505
A0101407430000003193957ISAAC JAMES D. JIMENEZ DBU                              10505
A0101407430000003193957JADO TRUCKING                                           20500
A0101403580511718894001JOAN SEMENA CARINO                                       0501
A0101408530516578215030DELLA, TERRY JEAN SANTIAGO                               0502
A0101411790518055764047BAQUE, CHRISTINE ANNE DELA CRUZ                          0501
A0101411790518055764211CASTRO, VIVIAN YU                                        0501
A0101403450521241204001**********                                               0502
A0101403610000007106265REYES JR., PEDRO SOLANO                                  0502
A2201400250000010425480ROMEO MABUTAS AGLIAM                                     0502
A2201400250561519949001DOLORES CURIOSO GAMBOA                                   0501
A0101404130000005962252CU, ANGELITO DEQUINA                                     0501
B0101404130601011225001CARESCO RESOURCES CORPORATION                            1603
A0101407720602200210001EDITHA C. DIZON                                          0501
B0101404260611028963001PARC HOUSE II CONDOMINIUM ASSOCIATION                   11602
B0101404260611028963001INC.                                                    21600
B0101404260000000003750TRESTON INTERNATIONAL COLLEGE, INC.                      1610
B0101404260000000003761TRESTON INTERNATIONAL COLLEGE, INC.                      1610
A0101404260611426131001FERNANDEZ, RONNIE DONATO                                10502
A0101404260611426131001OR BARBARA RUTH                                         20500
A0101409890000011106491OBIAS, RALPH RALDY REYES                                 0501
A0101413440000000570314ALVIOR, ROSAL PIOQUINTO                                  0501
A0101413440000010659248BARONA, LEILA SOCORRO HEDRIANA                           0502
A0101413440000010659259CALINAWAN JR., VICENTE LIWANAG                           0502
B0101414120000004603398WEBLEND INC.                                             1601
A0101406590000011218323AMPIL, ALVIN ANDREW RODRIGUEZ                            0501
A1301400210682037806001MANG PABLING MARKETING                                   0502
A1301400500000006218599PAGULAYAN, ANNA LOURDES SERRANO                          0501
A0101408240000010639422AMORANTO, ROBIN OR STEFFI OR                            10501
A0101408240000010639422OMARK OR MARLENE                                        20500
B0101408240000000832815WOWA'S FAST FOODS INC.                                   1610
A0101408240711561474001LAKANDULA, CHRISTINE LOLO                                0501
A2801400100000002253458DATU, FERDINAND BULAONG                                  0502
A4101400260000010623731QUIRAP, JERIZAL F. OR                                   10505
A4101400260000010623731BAGO, MARIA CRISTINA C.                                 20500
A4101400260000006043118KAHBLESS, AKA DBU KAHBLESS                              10502
A4101400260000006043118INTERNATIONAL ENTERPRISES                               20500
A4101400390813402791001RANTE, AMANTE CONTAOI                                    0502
A4101400550000001622479MOTUS, MA JAMILA RETITA                                  0501
A0101404840000001312634GARCIA, LEAH DEGUINON                                    0501
A0101406750852547351001SISO, JACKSON P. OR                                     10502
A0101406750852547351001SISO, CRISTINA E                                        20500
B0101405070861017328003SHEPHERD'S NOVELTY CORNER                                1603
B0101405070861028770001SHEPHERD HOUSE PUBLISHERS, INC.                          1603
A0101405070861380698001REYES SR., RENATO SISCAR                                 0501
A0101405070861395697002MINOZA, MARLYN SENDEN                                    0501
A0601400230000007402224********************                                     0501
