B0101411240000007844480WATERCARE INTERNATIONAL SALES INC.                       1601
B0101413440000002691609******************************                           1601
A0101413310000013385138ANGELA B SANCHEZ                                         0501
B0101411240283821100608**********                                               2002
A1101400120000003197011CHUA, THERESA ANG OR                                    10501
A1101400120000003197011CHUA, PETER JUSTIN ANG                                  20500
B0101403320471035758001***                                                      1603
B0101403450521011657001UP-TOWN INDUSTRIAL SALES, INC.                           1610
A1301400500000006218635CRUZ, MINERVA DELA CRUZ                                  0501
A0101400860000001005478***************                                          0503
A0101400860000002333604**********                                               0502
A0101400860011326747001**********                                               0501
A0101400860011379561003**********                                               0502
A0101400860011479505001**********                                               0506
A0101400860011548654001**********                                               0501
A0101400860011568203001**********                                               0505
A0101400860011720888001**********                                               0502
A0101400860011763516001**********                                               0501
B0101401250021023710003PASAYENA FOUNDATION, INC.                                1603
A0101401250021368766001ZAGUIRRE, ELIZA R. OR                                   10501
A0101401250021368766001ZAGUIRRE, RENATO                                        20500
A0101401250000000460586AZUCENA, MARIA PAMELA ENRIQUEZ                           0501
A0101401250021527654002MERCEDITA M. DUNGO                                       0502
A0101400150000001422508ALEJANDRO DE JESUS JR                                    0501
A0101400150000013586826COROLLO, NELBIE ANTON OFIANA                             0501
A0101400150000013587005LOGRONO, WYNNY NILLOS                                    0501
A0101400150061341245014LIM, ROBERTO CECILIO                                     0501
A0101400150061396548001ALIMURUNG, BENJAMIN N. OR                               10501
A0101400150061396548001ALIMURUNG, ALICE                                        20500
A0101400150061480584001OPERIANO, RICARDO FERRATER                               0502
A0101400150061584819001RELLOSA, HORACIO MIJARES                                10502
A0101400150061584819001OR RELLOSA, MA. LYNN                                    20500
A0101400600071351088001********                                                 0501
B0101405810072011448001C.P.P.C CONSUMER PACKAGING PRODUCT CORP.                 1603
B0101405810072034989001TRANSWELL ENGINEERING CO.                                1601
B0101405810072034989001TRANSWELL ENGINEERING CO.                                1601
B0101405810000005943331TRANSWELL ENGINEERING CO.                                1601
B0101405810000005943342PLASTIC TECHNOBAG CO. LTD.                               1601
B0101405810072557134001JSG PREMIER HOME INC.                                    1601
B0601400100000002099049QUANTA PAPER CORPORATION                                 1601
B0601400100081032338001SAINT EMILIANA ACADEMY OF EXCELLENCE,                   11601
B0601400100081032338001INC.                                                    21600
A0601400100081329402003VALENCIA, WILFRIDO OR HELEN                              0505
A0601400520000001349582MANALOTO, ISRAEL CUNANAN                                 0503
A0601400520000002085872RIEMAN MANPOWER SERVICES                                 0501
B0101410850000001229794TRANSLOGISTICA INTERNATIONAL                            11605
B0101410850000001229794FREIGHT INC.                                            21600
B0101410850000001229841BERNARDO, J DBU ORAYLE NATURALS PURIFIED                11601
B0101410850000001229841DRINKING WATER                                          21600
A0101400730111047618004RONALDO BAARDE PRADO                                     0502
A0101400730111386706001FRANCISCO, GUILLER ARINDAY                               0510
A0101400730111412858033CENIZA, SHERALYN                                         0502
A0101400730111468954001GOLECO, GENEVIEVE THERESE JT                             0501
A0101400730000000645410ASIS, REDENTOR CONSTANCIO                                0501
A0101406040112420530001IMELDA C. DEL ROSARIO                                    0501
B0101401960121456874001*****************                                        1605
A0101413150000000082631LAURENCE C. YAP                                          0501
A0101413150000003868322***                                                      0501
A0101413150000003868446UY, JUANITA LEE                                          0501
A0101412630000004062042RACHO, E DBU RAR ELJAY                                  10501
A0101412630000004062042AUTO SUPPLY                                             20500
A0101412920000005354201DELA FUENTE, MARIA JANNET THEIN                          0502
B0101400440000003766912MANSOTO TRUCKING SERVICE CORPORATIO                      1601
A0101407270000003254322NACUA, ROLANDO MANALILI                                  0502
A0101401090000006050620YOUNG JR., ROBERT TIA                                    0505
B0101401090171008022001UST GRADUATE SCHOOL ALUMNI ASSN. INC.                    1601
A0101401090171305034001MA. THERESA C. PINEDA                                    0501
A0101401090171317198001CHRISTOPHER D. PURUGGANAN                                0501
A0101401090171337852001MA. CORAZON IMELDA H. LINGAN                            10501
A0101401090171337852001OR AUDIE LINGAN                                         20500
B0301400530000001409592DUCAO, CRISTY BALILI OR                                 11620
B0301400530000001409592CEPEDA, SHERLY B                                        21600
B0301400530000008307700APEX PREMIER PHARMACEUTICAL AND CON                      1602
B0301400530000000025378D' UNIBUENAS CORPORATION                                 1603
A0301400530193556546168ZHOU, LANZHU                                             0503
A0301400530193702921168SELGAS, ROBERT U. OR                                    10501
A0301400530193702921168SELGAS, ELVIRA R                                        20500
B0301400660000003368518TAN, CLARENCE JAN KIAN AND BAROY,                       11602
B0301400660000003368518ANTHONY VIOS                                            21600
A0301400660194077968088*****                                                    0501
A0301400790000006269776SARONA JR., GILBERTO A.                                 10502
A0301400790000006269776DBU SDES ENTERPR                                        20500
B0101413020000001175360METRO NORTH MEDICAL CENTER AND HOSPITAL                  1601
A0101410720653036073001LSV ENTERPRISES                                          0501
A3101400160221383785001BIENVENIDO V. RIVERA JR. OR                             10501
A3101400160221383785001BELEN P. RIVERA                                         20500
A1001400190231520766010LOPEZ, MICHELLE ENCABO                                   0501
B1001400480000011809864RUAYA, JOASH ALBURO DBU JOASH AR EN                      1601
A1301400470000005394447FERRER, CYRUS J. OR FERRER,                             10501
A1301400470000005394447JOANNA THERESE T.                                       20500
A1301400470252541667001PUNO, MARCELINA E. OR                                   10502
A1301400470252541667001PUNO, REYNALDO ADOR D.                                  20500
A1301400760000002346005LUISA J. DIMAANO OR                                     10505
A1301400760000002346005DENER G. DIMAANO                                        20500
A1901400290000012351836MA ADONNA MACARAIG CASTILLO                              0501
A1901400290261082846001FE M TOBIAS OR                                          10501
A1901400290261082846001FRANCISCO C TOBIAS                                      20500
A1901400290000012352059SUSAN ARELLANO SILVA                                     0502
A0101401670000011364560BERNARDO, JOSEPH VINCENT BALTAZ                          0502
A0101401670000003752932PEREZ, GABRIEL REYNALDO PALMA                            0501
A0101401670271186216001VIRGINIA S. RAMOS                                        0505
A0101401670271762634001TALABUCON, VANESSA GRACE BUAT                            0502
A0101406460000002359891MARONILLA, KIMBERLY MAE LEE                              0501
A0101406460000002331102PASCUAL, MA. JETHRA BANAL                                0501
B0101406620273015149001JSG SECURITIES, INC.                                     1601
B0101406620000003497223EXQUADRA INC                                             1601
B0101406620000003497198OILINERS INC                                             1601
B0101406620273313299003**********                                               1605
A0101406620000000051061MANCILLA, MICHAEL LEE                                   10502
A0101406620000000051061OR MANCILLA, MIL                                        20500
A0101406620273521300001GARCIA, LEO MCGUIRE OR                                  10501
A0101406620273521300001GARCIA, CARMEN                                          20500
B0101411110000001037154SOUTH PACIFIC (Y.S.) HOLDINGS, INC.                      1602
A0101411820000012245544GACES, LEAH GERONIMO                                     0502
B0101411820000000024182TAB-CON & METAL INDUSTRIES CORP.                         1602
A0101412470000002136163*********                                                0501
B0101400570000003451501HERITAGELINK VENTURES, INC.                              1601
A0101400570281188318001ROSEMARIE V. JUMBAS                                      0501
B0101411240283046060001GRAND STAR GENERAL CONTRACTOR                            1605
A2601400270000000561875EDGAR A. DINIEGA                                         0501
A2601400270000007951177RAYMOND RUEL D. VALLE                                    0501
A0801400160000012928304MILLTECH ENGINEERING & CONSULTA                          0502
A08014001600000004763463SC SUPREME MOTOR SHOP                                   0503
A0801400160311311114002*********                                                0501
A6601400120000000060493ABELA, LEONITA MIJARES                                   0501
A2001400290315700888001***************                                          0502
A2001400290000010684449GOMEZ, JOANNE ASUNTO                                     0501
A2901400130000009072106PANIQUE, MYLENE BAUTISTA DBU JI                          0502
A2901400130000005961253YABUT, MARK ARBUES DELA CRUZ DB                          0502
A0101405650322400866001LEVISTE, PANCHO M. OR                                   10503
A0101405650322400866001LEVISTE, EDITHA                                         20500
A0101405650000006273703VILLAROMAN, ELMA, ARNEL OR                              10501
A0101405650000006273703VILLAROMAN, ERICA                                       20500
B0101402510341037808001FAIR ALL MARKETING                                       1602
A0101402510341196639001FELICIDAD M. BAGSIK                                      0501
B0101402060351009388003ASSOCIATION OF ROTARY ANNS OF PASIG                      1601
B0101402060351009762002NETERCO-PHILS., INC.                                     1605
B0101402060351046049001SENCOLINK TECHNOLOGIES INC.                              1601
A0101402060000000562101ALONSABE, ARLAN S.                                       0501
A0101402060351282067001CASTRO, EMMANUEL MANALAD                                 0501
A0101409050000013110984EMPLOYEES OF, MCN FREEDOM! TECH                         10501
A0101409050000013110984EMMANUEL RODRIGUEZ FRANCO                               20500
B0101409050352042217001POWER SYSTEMS, INC.                                      1601
A0201400760374281114001TIU, ELIZABETH VARGAS                                    0501
B0201400920000013598844HOME AND HOSPITALITY FURNITURE                           1601
A0201400920375044687001GTR TRADING                                              0501
A0201400890000007668491*********                                                0501
A0101408370000000586061ALCARAZ, BABY ROSE MANGUNDAYAO                           0502
A0101411660000003580352CONRADO D VIDAD JR.                                      0501
A0101402770000002267234**********                                               0501
A0101402770391217498021ARLAN ANTONIO JR. REYES                                  0501
A0101402770391217498022EUGENIO M. CORONADO                                      0502
A0101405490000000126463LORNA V. TUGADE                                          0502
A0101408950000007458913**************                                           0503
A0101408950000000472980CABALUNA, NELSON DY                                      0502
A0101408950000001760630SAMONTE, CLAUDIA YLAGAN                                  0502
B0101408950000002768347AESTHETIC CONCEPTS COSMETIC SURGERY                      1602
B0101408950000008364523C & S INTERACTIVE MANAGEMENT CORPOR                      1610
A0101408950000013129663SANTOS, REY MELCHOR FAJARDO                              0501
A0101408950000000473001SY, JOSEPHINE ABILAR                                     0501
A0101409180000004642739VILLARBA, JUNALYN CEDO                                   0501
A0101409180000003310323PANGILINAN, CHARISSE CRUZ                                0501
B0101409210000002783395UNIWAY IT SERVICES AND SOLUTIONS IN                      1601
A0101412210000002714638SILVA, EDWARD JOSEPH BORJA OR                           10502
A0101412210000002714638SILVA, MA. DIVINA BORJA                                 20500
A0101412210000010256641ALEXANDRATOS, JETT HARRIS                               10501
A0101412210000010256641MARCELO                                                 20500
A0301400820000007134972YAP, PHILIP UY                                           0510
B5501400120410014206001PANABO MULTI-PURPOSE COOPERATIVE                         1610
A5501400120410275634001BAUTISTA, RYAN REYES                                     0502
A5501400120410636391028CHIU, JULIA EILEEN & VALENTIN                           10505
A5501400120410636391028& CHRISTIAN & CH                                        20500
B2401400180411018625001HOLY TRINITY COLLEGE OF GENERAL SANTOS                   1601
B2401400180411054556001NTRPRISING MOTOR CORPORATION                             1601
B2401400180411054558001MINDANAO INTEGRATED COMMERCIAL ENT. INC.                 1601
A2401400180411275346001GILMOORE O. ALIAN                                        0501
A2401400180411478374044UGAT, ELVA T.                                            0502
A2401400180411693424001TUPAS, BEATRIZ PALACIOS OR                              10502
A2401400180411693424001TUPAS, MARVIN P.                                        20500
A1201400150000009997182MENDOZA, MERCY MANALASTAS                                0502
A1201400150000001863276KLEMSON MEDICAL SUPPLY                                   0502
A0901400220000006214386D' RANGER SECURITY AGENCY, INC.                          0502
A5101400100000010371461ACTUB, JONELYN BERNASOL OR ACTU                         10505
A5101400100000010371461B, MICHAEL CLOMA                                        20500
A0101403030441239184004NG, DARWIN TANG                                          0501
A0101403030441378112003TY, CHRISTINE NG                                         0501
A0101403320471032385001CHRISTIAN OR EVANGELINE                                 10502
A0101403320471032385001VALENCERINA                                             20500
B0101403320471206926002LOLITA B COLINA                                          1601
A0101403320471483816002FRESHNAIDA D. VERSOZA                                    0502
A0101403320471608694001PASCUA, NANCY NAKPIL                                     0501
A0101406330472085579001JOSEF, EUGENE ROY                                       10501
A0101406330472085579001JOSEF, AUREA                                            20500
A0101406330472281803001LIM, LYDIA TAN                                           0501
A0101406330472325942001LIM, CELESTE TAN                                         0501
B0101406330472367379002********                                                 1601
A0501400170000004982298FERRER, RECHELL GALIVO                                   0501
A0501400170481257809001DR CALIXTO ALANO                                         0502
A1901400160491055259001ABANADOR, JOAN BEZA                                      0501
A1601400170000009954330GUERRERO, JET GURIMBAO                                   0502
A0101407430000003193371ANG, JIMMY SANOPO                                        0501
A0101407430000004687492PETALVER, APOLONIO MARVIN MALLA                          0501
B0101403580000010847373BANTILING, KARL DBU KARL KARSON INTERIOR                11602
B0101403580000010847373DESIGN SERVICES                                         21600
A0101403580000002265669VERNIE M. BUNO                                           0501
A0101405940000005068333TIOSECO, DAISY MAE CHUA                                  0503
A0101405940000001534269**********                                               0501
B0101405940512535709001THE FILIPINO HUMAN HAIR PROCESSING                       1601
B0101408530516618100001ZEREXIST, INC.                                           1603
A0101411400000010984224LICO, MICHAEL FLORENCIO                                  0501
B0101411790518066332001OCAMPO AND SURALVO LAW OFFICES                           1601
B0101403450000006055790*******************                                      1606
A0101403450521343745001*******                                                  0501
A0101403450521443140001YU, DOMINIQUE LO                                         0501
B0101403610000013582048ALOLOR, JOSE RICHARD TAMAYO AND LUNA,                   11601
B0101403610000013582048CESAR SANTIAGO                                          21600
A0101403610000013301216ESCALANTE, ANABELLE DEL ROSARIO                         10501
A0101403610000013301216OR ESCALANTE, VICENTE III                               20500
A0101403610000006637078MORANDO, ALAN REYES                                      0510
A0101403610531348486001ANNA CORINA M. CARANDANG OR                             10501
A0101403610531348486001JOEL S. CARANDAN                                        20500
B2201400250561027175001MALIGAYA TRINITY                                        11605
B2201400250561027175001BAPTIST CHURCH                                          21600
A0101404130000000321406SUPANGAN, ARTURO C OR SUPANGAN,                         10501
A0101404130000000321406LAURA T                                                 20500
A0101407720000000245087VILLAREAL, EDWARD CEA                                    0501
A0101407720000004658631REYES, XAVIER IAN VILLASTIQUI                            0501
A0101407720000004658846PANLILIO, JAY MICHAEL BACANI                             0502
A0101407720000004664717VITOR, XANTHE VILLANUEVA                                 0501
A0101407720000004664951SANTOS, JUAN MIGUEL ABADA                                0501
B0101404260000004781266RD PAWNSHOP, INCORPORATED                                1605
B0101404260000008700721SYNERGOS PASSION ASIA, INC.                              1606
A0101404260611381117001JUSI, GRACELDA BUNGAY                                   10501
A0101404260611381117001OR EDGARDO R. JUSI                                      20500
A0101404260611636432001DEDEL, MARY ANNE MAKASIAR                               10505
A0101404260611636432001AND KENNETH DEDE                                        20500
A0101409890000006812780**********                                               0505
A0101409920000000998569MEMBERS OF NATASHA (SHOECAT INC                         10501
A0101409920000000998569PEDROSA, JULIE                                          20500
A0101407690652028378002HIGHER GROUND FOOD STATION                               0502
A0101411530000000013732CALILUNG, TARCISIO SURLA                                 0501
A0101411530000005198245**********                                               0501
A0101413440000000702481VENTURA, JESSICA JOYCE DUMENDEN                          0502
B0101413990000013598651LINAO, JOHN ALEXIS D. AND DE LEON,                      11601
B0101413990000013598651JOSELITO G.                                             21600
A0101414120000000875856AZERI INDUSTRIAL SALES                                   0505
B0101414120000007655378ABMARAC CORPORATION                                      1601
A0101410300000011355478*****                                                    0502
A1301400210000000983804REUEL L DE LEON                                          0501
A1301400210000003105040DE GUZMAN, EDUARDO GUTIERREZ                             0502
B1301400210682036160001RICH-WELL INTERBRAND CORPORATION                         1602
A1301400340683367953001FELLO, ROSEMARIE RODIL OR                               10502
A1301400340683367953001FELLO, BISMARK C                                        20500
A1301400500000009723060GERARDO GERRY C. STA. ANA                                0502
A1301400500000012913230MARILOU DE LEON GENERAL                                 10501
A1301400500000012913230MERCHANDISE                                             20500
A1701400230693478374044CECILIA CORRALES                                         0501
B0101408240711036515001AESTHETIC SCIENCE MEDICAL SPA, INC.                      1602
A2801400100712320631001ONG, ROY JACKSON DY                                      0501
A2801400100712431008001DE JESUS, ROGEL CORPUS                                   0501
A2801400230000001782083DE GUZMAN, LITO C. DBU D.G.L                            10502
A2801400230000001782083MOTOR WORKS & GE                                        20500
A4101400420000000121057ROMERO, JOCELYN FERRERA                                  0502
A4101400420814520766017ALAVA, JOSEPHINE D.                                      0501
A4101400550000001332358********                                                 0502
A0101404840851316655036GEMMA ESCALONA                                           0501
A0101406750000002251309DE LEON, MICHELLE TAGALAG                                0501
A0101406750000010508835RACHELLE PANGILINAN DBU LLRJ                            10501
A0101406750000010508835ENTERPRISES OR JEAN                                     20500
A0101406750852181680002NELSON V. MONTARDE OR                                   10502
A0101406750852181680002MILDRED P. MONTA                                        20500
B0101406750852483155001DEEPER LIFE COMMUNITY CHURCH                             1601
A0101406750852687321002NAVARRETE, JERRY MIRANDA &                              10503
A0101406750852687321002COLOMA, FRANCES                                         20500
A0101406750852687321003NAVARRETE, JERRY M AND COLOMA,                          10503
A0101406750852687321003FRANCES ROSALIE                                         20500
