B0101400570281821100608**********                                               2005
B0101401960121821100608**********                                               2005
A1101400120000003981102EVARDONE IV, REYNALIS ORGAS                              0501
A1101400120313478374074UNGAB, ROSALINDA B.                                      0501
A1101400120000006186605UY, WILSON SIA                                           0502
A0101408400000001855541CAMPOSANO, MARILYN F DBU MARSDE                         10502
A0101408400000001855541NISSE TRAVEL AND TOURS                                  20500
B4101400550000000900081REEBARS CONSTRUCTION CORP.                               1602
A0101400860011559769001**********                                               0503
A0101401250000008233265HABIB, MARIJILL AQUINO                                   0502
A0101400150000010313558PISCO, ROMMEL BILBAO                                     0501
A0101400150061405016001DOMINGO, SANTA MANOGUID                                  0501
A0101400150061453761077POLICARPIO, JEMUEL AFABLE                                0501
A0101400150061760519001CARO II, ANDRES GATBUNTON                                0503
A0101405810072234816001CORAZON L. MACATUNO OR                                  10503
A0101405810072234816001RODANTE L. MACAT                                        20500
A0101405810072234892001**********                                               0501
A0101405810072319968003TUNG, FELY CHUA                                          0501
B0601400100081022878001DM CRISSAN AUTO SUPPLY & CAR ACCESSORIES                11604
B0601400100081022878001SAN FERNANDO                                            21600
B0601400100081251606001ANTONIO J. MUNOZ OR MA. JESUSA E. MUNOZ                  1603
A0601400100081251606002MUNOZ, ANTONIO AND JENNIFER                             10504
A0601400100081251606002LAURIE AND ANTON                                        20500
A0601400100000000786778DIMABUYU, ERIC PANTIG                                    0502
A0601400520000001706792BUNGQUE, ALDRIN CAPILI                                   0501
A0101413280092062132001REIKEN AUTOMOTIVE SUPPLY                                 0501
B0101413280000000041881***                                                      1604
A0101410850000009034582UY, ROWENA RUBIDO                                        0501
A0101410850000000005778*****                                                    0501
B0101410850109045828001OLOVUS MULTIRESOURCES INC.                               1602
B0101400730111008379001SIMON ENTERPRISES, INC.                                  1601
B0101401960121011796001**********                                               1605
B0101413150000005944090*********                                                1602
A0101401090171197481002MA. NOEMI OR ELIEZER SALAZAR                             0502
A0101401090171201395001JOSE S. BLAS                                             0501
A0101401090171365718002MA. ANNALEAH S. CRUZ                                     0501
B0301400530000005300270NGO, JUSTIN CHIU                                         1602
A0301400660000006862873DEQUITO, CITZY VENTOR                                    0502
A0301400950000002115231**********                                               0501
A0101413020000000056988AGUSTIN, FL DBU FIX AND CARE                            10504
A0101413020000000056988REF & AIRCON REP                                        20500
A0101410720000007843367SISON, MAE ROSALES OR SISON,                            10503
A0101410720000007843367SAMUEL BENJAMIN                                         20500
A0101412500000010272932RABINO, ANNALYN MALE                                     0501
B3101400450223022719001GENCARS SAN PABLO, INC.                                  1610
B3101400450223635512001TOTAL QUALITY MANAGEMENT BUSINESS                       11602
B3101400450223635512001VENTURES                                                21600
A3001400130000000931191RACHO, AGNES ARAGON                                      0502
A3001400130000001271330PITOGO, VINICAR PASA                                     0505
B1301400470000003270135EPS HAULING COMPANY INC.                                 1601
A1301400470252478374018ELIZABETH P. BARNACHEA                                   0501
A0101406460272756985001***************                                          0501
B0101408660000005990452ARMSTRONG LOGISTICS COMPANY, INC.                        1605
A0101411820000005380183JIMMY PUYING CANUTO                                      0502
A0101412470000002136130DAVID, CECILIA SUMULONG                                  0502
A0101400570281366194002DR. DINA M. PERALTA OR                                  10502
A0101400570281366194002DR. FRANCISCO PE                                        20500
A0101400570281706972001**********                                               0501
A0501400200000005751599BALMEDIANO, MYRNA SOLIVEN OR                            10502
A0501400200000005751599BALMEDIANO, ISMAEL                                      20500
A0501400200292585029002BURAGAY, DECEMBER JOY PABAIRA                            0501
A0501400200000006445172LAGMAN, GIRLIE CZARINA M.                                0501
B0801400160000005656960F & E ENTERPRISES, INCORPORATED                          1603
B0801400160311267059001DULALIA'S INCORPORATED                                   1601
A2001400290315087033001ROLIDA, JASON UY OR ONG, WILMER                         10502
A2001400290315087033001RODNEY OR ROLIDA, SANDRA                                20500
A3401400280318751590001DELFIN, ALEX GALLAZA                                     0502
A0101402350000001474266MARY ROSE P. VIDALLON                                    0501
B0101402350321821200608**********                                               2001
B0201400760374048047001MHT REAL ESTATE DEVELOPMENT                             11601
B0201400760374048047001CORPORATION                                             21600
B0201400760000007134290*******                                                  1602
B0201400920375743969001*********                                                1602
A0201401020000003031129DEL PRADO, JOSE VICE DBU DE LAR                          0502
A0101411660000000489367AGPOON, IAN LESTER CARRIDO                               0502
A0101411660000000032117EDESSA R. MENDOZA                                        0501
A0101402770391404096001PANLILIO, MYLENE B.                                      0502
A0101402770391404096002PANLILIO, MYLENE BAGON                                   0503
B0101402770391630383002FIRST LOAD MASTER AND POWER SERVICE INC.                 1601
A0101408400000001213596HERNANDEZ, MERLITA GAYTA                                 0501
B0101408400394032168001ALQUIROS FOOD CORPORATION                                1602
B0101408400000003120521GILIGAN'S ISLAND BAGUIO, INC.                            1602
A0101408400394503387001TAMO, ELVIE RIGOR                                        0501
A0101409180000010178742ROSELA M. TIONGCO                                        0502
A0101409180000003813078BERMUNDO, MARIVIC B.                                     0501
A0301400820000004073352TAKBILANI, KIMSOY                                        0501
B5501400120000007963435AYP FIESTA MART, INC.                                    1604
A5501400120000006976790CHIU, VALENTIN SIRA                                      0501
A2401400180411478374020MORI, LYDIA                                              0502
A0101403320000001646879EIFFEL JARVIS H. DIAZ                                    0502
A0101406330472462179001ERLINDA C. SESE                                          0504
A0101410140000001939984DELANTAR, DARMEL URAGA                                   0501
A0101412760000002067632VILORIA, REMEDIOS O. OR                                 10501
A0101412760000002067632VILORIA, EDUARDO                                        20500
A1401400110000008266382ORTE, ARMIDA RANIAG                                      0501
B1401400110000004461938VOSSLER ENTERPRISES INC.                                 1601
B0101407430503028651001TMC TRUCKING SERVICES                                    1601
A0101407430503036416001JUPITER'S BUTCHER SHOP                                   0505
B0101403580511027603001K.S.T. PROPERTIES, INC.                                  1610
A0101405940512566824001RAMON ARTEFICIO OR MARILYN                              10502
A0101405940512566824001ARTEFICIO OR JUAN CARLOS                                20500
B0101408530516190991001MALLORCA REALTY, INC.                                    1604
A0101408530000001268559ARLENE Z. DIZON                                          0502
B0101411790000004808106SPECTRUMED INC.                                          1602
B0101403450000000889596CONCEPT STORE INC.                                       1601
A0101403450521239350001**********                                               0506
A0101403450521563365001RODRIGUEZ, ERNESTO MUTUC                                 0501
A0101403610531220255002MARY JOY A. DADIVAS OR                                  10501
A0101403610531220255002HUGO A. DADIVAS                                         20500
B2201400250561035096001SOUTH PEARL PROPERTIES, INC.                             1605
A2201400250561478374026MINDA S. BLAYA                                          10501
A2201400250561478374026MEMBERS OF NATASHA                                      20500
A0101410690600046558001RANDXELL'S DIGITAL PRINTING &                           10504
A0101410690600046558001PHOTOCOPY CENTER                                        20500
A0101410690000000710621MALLARI JR., RO DBU ROMA PRINT                           0502
A0101404130000000485661MORALES, ANNALYN MOTOL                                   0503
B0101404130601047731001RICH MEDIA MANILA INCORPORATED                           1601
B0101412180000001293049AUTO MAGIC CORPORATION                                   1602
A0101404260611045966001FRONDOZO TRADING                                         0501
A0101409920000007304903MAGNO, HERMINIA PAJARILLO                                0501
A0101413990000000726512CASTRO, GIZA A.                                          0501
A0101413990000001947128MARS STONE SUPPLY                                        0502
A0101406590662065552001ALINDUGAN, MARIVIC BANDELARIA                           10502
A0101406590662065552001DBU S21 TRADING                                         20500
A0101408240000006599924CABANBAN, DENNIS GONZALES                                0501
B0101408240711026678001SAMBEL PACIFIC CORPORATION                               1602
B2801400100712046914001IREC CORPORATION                                         1602
B2801400230000005253641COST OF MONEY LENDING CORPORATION                        1602
A4101400260000002888120CAHINHINAN, MARIA CONSUELO CHAN                          0501
B4101400260812012616001DASMA CITYWIDE GEN. MSDG. INC.                           1610
A4101400260812041334001M.B. JIMENEZ RICE DEALER T                               0505
A4101400260812409493001AMELIA RAZON OR EMILINO RAZON                            0501
A4101400390813378814001GIGI D. ABOGADO                                          0501
A0101412340000010277335LEONILA S. GARCIA                                        0501
A0101404840000003069834***********                                              0503
A0101404840851281071005MA. THERESA LAVINA                                       0501
A0101404840851419256001INTOD, DELFINA SAMONTE OR                               10501
A0101404840851419256001INTOD, ALGREG M.                                        20500
B0101405070861008460004STARS TRAVEL INCORPORATED                                1602
A0101405070000006006097ALDWIN CANTILLO LOGISTICS                               10502
A0101405070000006006097SERVICES                                                20500
A0101405070861197650002********                                                 0502
