F6601400120000005195962MARTINEZ, ANGELINE ORTIZ DBU                            12601CK1
F6601400120000005195962NEW CAMILLE GROC                                        22600CK1
F0101406620000000962476TUBIG PILIPINAS GROUP INC.                               2601CK1
F0101402480331020380002**********                                               2610CKR
F0101407430503029122001CUSTOMSTRADE ADVOCATES CO.                               2601CKR
F0101406880513029080001AVENT HOLDINGS CORP.                                     2605CKO
F0101411950000002691303BEYONDCONCEPTS INC.                                      2603CK1
F4101400260812444904002HERNANDEZ, ALLAN SANTOS OR                              12502CKO
F4101400260812444904002HERNANDEZ, JEAN                                         22500CKO
