B0101405940512821100608**********                                               2010
B0101404000551821100608**********                                               2020
B0101405940512821200608**********                                               2002
A3001400130000000931333K AND S ENTERPRISES                                      0501
A3001400130230478374004BALABA, JANETH BORJA                                     0501
B0101402930381041518001PANPISCO TECHNOLOGIES, INC.                              1603
A0101414120000005252784ROBERTO ASIS OR ZENAIDA MENDOZA                         10501
A0101414120000005252784OR CARMELITA SAMBRANO                                   20500
A0101414120000000398972ULDERICO MERCED TRUCKING                                 0502
B0101400150061039643001J.M.PIZARRAS AND ASSOCIATES LAW OFFICE                   1605
B0101400150061058411001KOLDSTOR CENTRE PHILIPPINES, INC.                        1603
B0101413730000001568447**********                                               1605
A0101410850000000005778*****                                                    0501
A0101410850109055102001MANGUNAY, ROLANDO JT DBU R.P.M.                         10502
A0101410850109055102001ENTERPRISES                                             20500
A0101412630000001485161DAYAPERA, DELILAH ROMULO                                 0501
A0101401830000001139997VIOLAGO, MA. MERCEDES MENDOZA                            0501
A0101400440161520766062ENGELINE N. MACAILING                                    0501
A0101407270000002334721MOPER ANGELICA P. PAPA                                   0501
A0101407270000006137993VELARDE, QUEENIE DEL CORRO                               0501
A0101401090171203677003MA. PERLA ESTEVEZ DURAN                                 10501
A0101401090171203677003OR EVELYN DURAN                                         20500
B0301400950000000566945BIG Z QUALITY FOODS CORPORATION                          1605
B0301400950000002115651ZILVERBAND, INC.                                         1602
B0101401380201006734001JAMMA PRINTING SERVICES                                  1602
A0101401380201183147001ERLINDA P. VILORIA                                       0502
B0101410720210821100608**********                                               2002
B0101410720210821200608**********                                               2001
B3101400160221060069001J. ALCASID REALTY AND DEVELOPMENT, INC.                  1601
A3101400160221387596001SHIRLEY S. MIGUEL                                        0501
A3001400130230760114088MARTINEZ, NOEL INCHOCO                                   0502
B1301400470000003270113OBRIGADO LENDING INVESTOR, INC.                          1601
A1301400470252482273001DRA. LEONOR J. DIZON                                     0501
A1301400760000000050422RAFAEL R. CLEMENTE                                       0501
A1901400290000001362954WILLIE AMBAL MERCADO                                     0501
B1901400290261023671001PONDONG BATANGAN COMMUNITY                              11603
B1901400290261023671001FOUNDATION, INC.                                        21600
A1901400290261244447002LETICIA BAYLON HIPOLITO OR                              10510
A1901400290261244447002ERNESTO B HIPOLITO JR.                                  20500
A1901400290261245089002SHIRLEY OR DIONISIO GUTIERREZ                           10502
A1901400290261245089002OR DIONISIO GUTIERREZ SR                                20500
A1901400290261356002001MARICEL REJANO LUCERO                                    0501
A1901400290261411419001TERESITA DIMAILIG PERCE                                  0502
A1901400290261432900001JULIUS PIO AFRICA RANA OR                               10501
A1901400290261432900001CHARMAINE DE GUZMAN RANA                                20500
A1901400290000000135173JUDE RECINTO SEMANA OR                                  10502
A1901400290000000135173EVELYN UMALI SEMANA                                     20500
A1901400290261488341038DR ALICE L LACORTE                                       0502
A1901400290261488341049DR. JOHN RODOLFO D. SUAN JR.                             0501
B0101406460272040465001SPORTFIT, INC.                                           1605
B0101406620273009497001CHEMWEALTH, INC.                                         1610
B0101406620000000962523TUNE BRADCO MART INC                                     1602
A0101406620273314677002***********                                              0501
A0101406620273376586001RAMAS, ARMANDO AND                                      10501
A0101406620273376586001RAMAS, MARCY                                            20500
A0101406620273719676002************                                             0502
B0101410980000000172052REAL VISION PROPERTY SOLUTIONS INC.                      1601
B0101411110000001037187ALPA EXPONENTIAL BUILDERS INC.                           1601
A0101411240000002332565LOPENA, AMIE MADEJA                                      0501
A2601400270000000561966NELIA A. CORTEZ OR MARVIN T.                            10501
A2601400270000000561966CORTEZ                                                  20500
B2601400270000000020673JPGLOBAL VENTURES CORPORATION                            1603
A2601400270000000561813MARQUEZ, LUVIM DBU NORTH                                10503
A2601400270000000561813SUPERSTEEL                                              20500
A1101400120000002254822NABAUNAG, LEONORA FUENTES                                0503
A1101400120000005608191MEMBERS OF NATASHA (SHOECAT INC                         10501
A1101400120000005608191CELSO, GORGIE C.                                        20500
B6601400120314665528001**********                                               1601
A3401400280000001723440EDUQUE, JESSIE ECARAN OR EDUQUE                         10501
A3401400280000001723440RUELYN CAPUNONG                                         20500
A3401400280318478374206ALAVAREN, WEL ASUMBRA                                    0502
A3401400280318736058001NINFA U. EZPELETA OR CORRIE E.                          10502
A3401400280318736058001ADONAY                                                  20500
A0101402510341541325002GO, JONATHAN TING                                        0501
A0101402060351009359001JIANDANI, SURESH G. OR                                  10501
A0101402060351009359001JIANDANI, KAVITA                                        20500
B0201400760374046036003SAM SOWAH SHIPPING CORPORATION                           1602
B0201400760374046036004SAM SOWAH SHIPPING CORPORATION                           1602
B0201400760000000033310SAM SOWAH SHIPPING CORPORATION                           1602
B0201400920000000047841CREATIVE IMAGE AND INSIGNIA                             11601
B0201400920000000047841CLOTHESLINE INC.                                        21600
B0201400920000000047732J810 CONSTRUCTION CORP.                                  1602
B0201400920375743969001*********                                                1602
B0101402930381031125001ESPIRITU VITALES ESPIRITU LAW OFFICE                    11602
B0101402930381031125001(EVELO)                                                 21600
A0101408370382408300001DR. RODRIGO C. SANTOS OR                                10502
A0101408370382408300001DR. ALWYN JOHANNA SANTOS                                20500
B0101408790000003845750MADE FOR YOU MARKETING GROUP CO.                         1602
B0101405490000003905184NORTHSHORE HARDWARE AND CONSTRUCTION                    11602
B0101405490000003905184SUPPLY                                                  21600
A0101408950000006142707CAPULE, SHARON ANGELES                                   0501
A0101408950000000776683DY-AGRA, GUINEVERE NGO                                   0504
A0301400820000001185848SELGAS, RAPHSEL R.                                       0502
A2401400180000001935931MC-MAX CABALLES ENGINEERING                             10501
A2401400180000001935931SERVICES                                                20500
B0901400220432750068001NOCOM, JOSELITO GABRIEL                                  1601
B0101403320471008879002GOLDWIN MANUFACTURING                                   11610
B0101403320471008879002LABORATORIES                                            21600
A0101406330000002277916MATELA, EMMANUEL AVELINO                                 0501
B0101406330000000432671WHIFF EMISSION TESTING CENTER, INC.                      1602
B0101406330000000432682MAGAYON EMISSION TESTING CENTER, INC.                    1602
A0101406330472477539001MA. VICTORIA G. DIEZ                                     0501
A0101406330000000683290FAJARDO, THELMA ESGUERRA                                 0501
A0101412760000000208660GENALIN F. SASUMAN                                       0501
A1901400320000003660804ALBA, PABLITA CABUGNASON                                 0501
B1901400160000000007467FIRST UNITED 23, INC.                                    1605
A1901400160491635678001MARIVIC ATIENZA CANTES                                   0501
A0701400260000003259352AMPONGAN, CHARLIE PALACIO                                0502
B0101407430503023639001LAMBERT WILLIAMS LOGISTICS, INC.                         1610
A0101405940000002268722DOMINGO, KAREN MUSNI                                     0502
A0101405940512547475001RUFINO, MACARIO SUNICO OR                               10502
A0101405940512547475001UICHICO, MARISUN                                        20500
B0101408110515017722001STORES SPECIALISTS, INC.                                 1620
B0101408530516030112118FUTURELOGIC CORPORATION                                  1610
A0101408530000001885823ABELLAR, GLORIDEL VILSES                                 0501
B0101411400000000001656SAS SMART ACCOUNT SOLUTION CO. LTD.                      1610
A0101412050519060053001BALITA, EVANGELINE BAYANIN DBU                          10501
A0101412050519060053001JEMIRA TRAVEL AND TOURS                                 20500
A0101403450521077932001ROSARIO, ERIN LOU MONILLAS                               0502
A0101404000551340823001JESUS CLINT O. ARANAS                                    0503
A0101407720000002727706********                                                 0501
A0101407720602500492001GUTIERREZ, JOSEPH DALE                                  10503
A0101407720602500492001DEL ROSARIO                                             20500
A0101404260000002302129IGNACIO, ADELAIDA SUNGA                                  0502
A0101404260000002302130IGNACIO, ADELAIDA SUNGA                                  0502
A0101404260611478374121FLORDELIZA B. HUVALLA                                    0501
A0101409890000003097943PACHEO, JOHN REY RAMOS                                   0502
A0101413570000001069443*************                                            0501
A0101410300000000191940TUASON, MORRIS LEO LEANO                                 0501
A0101410300000003290133PENA, ISAIAH MICHAEL G.                                  0502
A0101410300663792087001YBANEZ, ROSALIE VILLANUEVA                               0501
B1301400210000000023496JELLI'S GAS STATION                                      1602
B1301400210000000023510JELLI'S GAS STATION                                      1602
A1301400340683361105001DELA CRUZ, ESTER SANTIAGO                                0501
A1301400340683388555001DE GUZMAN, ADELAIDA VILUAN                               0505
A1301400500000003070139SUGAR DADDY MARKETING                                    0502
A1701400230000000097892ALBANO JR., PASTOR GERARDO                               0501
B17014002300000000105665 SISTERS REALTY & DEVELOPMENT CORP                      1601
A1701400230693763026001SANCHEZ, REX GUILLERMO  OR                              10501
A1701400230693763026001MARLENE                                                 20500
A0101408240000003955293BILLANO, EDNA YAMBAO OR HERNAN                           0504
B0101408240000000832837SPIRIT OF EDSA FOUNDATION, INC.                          1601
A0101408240711373874001MARILYN P. ALTAREJOS JT                                  0502
A0101408240711443671001CARMENCITA C. GUIAO                                      0501
A2801400100712393694004CABRERA, ISAGANI CEZAR JT                                0502
A2801400230000000937617GARCIA, JENNEN JULAO                                     0501
B2801400230000001580296DEL ROS AMUSEMENT ENTERPRISES, INC.                      1602
A2801400230000001782083DE GUZMAN, LITO C. DBU D.G.L                            10502
A2801400230000001782083MOTOR WORKS & GEN. SERVCS                               20500
A4101400390000000048651TIAMZON, ALTHEA MARIA SANTOS                             0501
A0101412340000005496808LORENZO JOSE C. LIBATIQUE                                0501
A0101404840851298552067EMERENCIANA P. BOMBAY &/OR                              10501
A0101404840851298552067JEREMY P. BOMBAY                                        20500
B0101413860000001768090FIRST DIGITAL FINANCE CORPORATION                        1603
A0601400230000000452782GOZUN, R-JAY RAMOS                                      10510
A0601400230000000452782OR GOZUN, MYRNA                                         20500
A0601400230891746394001**********                                               0501
