A0101407560000000003345ANGEL ZADKIEL TUTORIAL CENTER                            0502
A3001400130000000068313OBENITA, NELSON DAVID TORRALBA                           0503
A0101401380000000106538SANCHEZ JR., DELFIN BALAIS                               0502
A0101407720000000112136AQUINO, ENRICO RAMOS                                     0501
A1001400190000000124643PELINGGON JR., ROLANDO VILLANUE                          0501
A1001400190000000124730GORME, MARIANITA L.                                      0501
A1001400190000000124876JENNY CALDERON                                           0501
A0101406590000000131682SISON, JOANNE TABORA                                     0501
A0101404840000000232857MELANIA M TENDERO                                        0501
A0101401380000000414300EUSEBIO, ROSALINDA MATREO                                0502
A0101401380000000414402VERGARA, MANUEL DIONALDO                                 0501
A0101407560000000477754DELA CRUZ, CARLOS OR LORENZA                             0503
A0101407690000000914061MERJUDIO, EDNA PANGAN                                    0501
A4101400550000000981740REYES, RUBY ROSE VINUYA                                  0503
A0501400200000001081054RAMOS, TORIBIA RODRIGO                                   0501
A0101401830000001139975FLORES, VIRGINIETA JANDUGAN                              0503
A0101404000000001186783JANDAYAN, KIMBERLY SARAUS                                0501
A0101411400000001280386ANGELES, LEE ANGELO ELLA                                 0501
A0101405650000001377328ZAMORA, JOSEPH ENRICO IGNACIO                            0501
A0101412760000001399306BALMEO, DEXCESTER MARIE PARRO                            0501
A0101404680000001617330ZEPPAO FOOD CART                                         0502
A0101400570000001681905SHIRLY C. MALABANAN                                      0502
A0101413570000001682544**********                                               0502
A0101400150000001708009SISON, JOSEPH CECILIO NACHURA                            0501
A4101400260000001783573GARCIA, SHARIROSE NACASABUG                              0501
A0101408400000001855381ABSA BUILDERS                                            0501
A0101407690000001919742MACASERO, MARIA FE TANQUE                                0501
A0101402480000001927682CHUA, ORLANDO GALANG                                     0501
A0101402480000001927802***********                                              0502
A2401400180000001935782ONAS, ROSITA PLANOS                                      0501
A0101411400000002639701AMON, ELENA ESLLER                                       0503
A0101401380000002787057MACAPAGAL, ELIZABETH TAMONDONG                           0501
A1001400190000002820082VILLAMALA JR., VICENTE TY                                0501
A0101400860011235593001**********                                               0501
A0101400860011385744004**********                                               0505
A0101400860011397647001**********                                               0502
A0101400860011532652001**********                                               0502
A0101400860011618820001**********                                               0505
A0101401250021717825001RECILLA, LUZVIMINDA JIMENEZ                              0501
A0101401700041418806001BERENGUEL, NERISSA ALFABETO                              0501
A0101400150061230957006JOSE MARIA T. ZABALETA JT                                0505
A0101400600071457180001**********                                               0501
A0101400600071534842002****************                                         0505
A0601400100081251783001ANTONIO, ADELA L.                                        0501
A0101400730111203514017HELEN B. GAYOMA                                          0501
A0101400730111377984001LEGASPI, JULIETA CABRAL                                  0502
A0101400730111412858025JOVITA R. GARCIA                                         0502
A0101406040112095866001********                                                 0503
A0101401960121238703001**********                                               0502
A0101401830141526215001DE LOS REYES, THELMA REMOS                               0501
A0101400440161478374018MA. DELIA P. FERMANTE                                    0501
A0101400440161525001091CRISTINA A. PADILLA                                      0502
A0101401090171519520006IRENE OR YU-YUAN CHIANG                                  0502
A0101401380201574072001SY, WYNNE MHAR GACAD                                     0502
A3101400160221533266001ANGELITO S. LAZARO JR.                                   0502
A3001400130230478374007ABADILLA, JOCELYN MARIE RAVELO                           0501
A3001400130230478374028MAGLASANG, ELIZABETH DAHANG                              0502
A1001400350233445884002BESINGA, TITO ALEX C.                                    0501
A1001400350233478374006IBANEZ, ELSA                                             0501
A1001400350233644458001LAZO, MICHELLE ATINEN                                    0502
A1301400470252478374029ANGELO F. LINDAIN                                        0502
A0501400200292670008001*****                                                    0510
A0801400160311478374056CECILIA B. ASTROLOGO                                     0502
A0801400160311478374103INAYAN, MERLINDA GUARDAMANO                              0501
A1101400120313478374021OBEDIENCIA, ANNABELLE F.                                 0501
A0101402480331224076001JAIME ORTEGA                                             0501
A0101402480331308654001SAN LUIS, MARIA LUISA CASTILLO                           0502
A0101402480331478374098VILLAFRIA, JOCELYN A.                                    0502
A0101402480331544823001OSORIO, VIDA ARELLANO                                    0501
A0101402480331665824088*********                                                0501
A0101402060351751583001PULINTAN, ARSENIO CATAYLO                                0502
A0101408790383505986001BALANZA, ROMMEL FETALVERO                                0503
A0101408400394162678001MARINAY, ISIDRO T.                                       0504
A0101408400394425228001CRUZ, CONRADO JIMENO                                     0503
A0101408400394478374090MARY DUMASLAN                                            0501
A2401400180411272736001YU JR., LITO TAN                                         0501
A2401400180411537301001**********************                                   0501
A0101403030441337771001**********                                               0501
A0101403320471207226001RIZALINA PAGOROGON, M.D.                                 0503
A1401400110492444354001************                                             0502
A0101408110515349308003CLEOTILDE B. FRANCISCO                                   0502
A2201400250561339917001FELICIDAD MIRANDA SANTOS                                 0502
A0101407720602200210001EDITHA C. DIZON                                          0501
A0101407720602295336001AGUIRRE, ANGELITA MIGUEL                                 0501
A0101407720602341807001DR. JOSE DANTE P. DATOR                                  0502
A0101407720602378956001ROWELL, VERMEN V.                                        0501
A0101404420631478374115ENELITA Q. AREVALO                                       0501
A0101404680651079362001PHOEBELYN M. ALAESTANTE                                  0502
A0101404680651419151001LAGMAN, OFELIA GAPAS                                     0502
A0101404680651478374013MYLENE M. SUAN                                           0502
A0101404680651478374180PRISCILA B. RUBIO                                        0502
A0101404680651520766164ZENAIDA MANLAPAZ                                         0501
A0101404680651520766192ARNOLD M. CARBONELL                                      0505
A0101407690652173311001RS JARDIN & ASSOCIATES                                   0505
A0101411950680478374004CARLETA, REBECCA CARPIO                                  0501
A0101407560686310036002TERESITA J. MONTANO                                      0501
A0101407560686617579001**********                                               0501
A0101408240711373874001MARILYN P. ALTAREJOS JT                                  0502
A0101408240711375102001PANICUCCI, MA. PILAR M. JT                               0501
A2801400100712459476001TUMANDA, LEA MARCE                                       0502
A0101404840851298552055MELBA C. ENGBINO                                         0502
A0101404840851478374071MARITESS C. CASARILLA                                    0501
A0101404840851478374115ERLINDA O. PRADO                                         0501
A0101406750852413660001ALCALA, ANGELO LUSOC                                     0505
A0101401960000000008095ANG, PAUL GO OR                                         10502
A1001400480000000133542GUINTO, CHARLOTTE JANE MAGO AND                         10501
A0101412210000001236322STA.ROMANA, MITCHIE DBU NAMIE                           10501
A1101400120000001547371GRANADOS, JERIC DANE G. OR                              10503
A0101404680000001617261AMCJ METAL & ENGINEERING                                10502
A0101401090000001618731GUGOL LEARNING AND RESEARCH                             10501
A0101401960000001844420UY, EUGENE PAREDES OR                                   10501
A0101406040112428212001MARVIN WILLIAM TRINIDAD OR                              10501
A0101401830141666778001DIVINA P. MARQUEZ OR                                    10501
A3101400450223684124001ARTHUR L. MANALO OR                                     10501
A6601400120314593270001DIAZ, REO OR MARIEGIL OR                                10505
A0201400890376080642001GALANG, LORLIE PACURIBOT OR                             10501
A0101408400394532241001NEBRES, RODOLFO OR                                      10501
A5501400120410633077001CLAVISILLAS, JOSIE OR                                   10501
A1201400150421685972001JUCUTAN, HEIDI BONDAD OR                                10502
A0101403030441552227002CORDOVA, JOSEFA VALMONTE OR                             10502
A3801400170490046469001MARLYN LABAY REYES DBU                                  10503
A1901400160491244484001IRENE H BERBA OR                                        10505
A0101404420631160256001ANGIE N. LEE OR                                         10501
A0101407690652478374084EUFEMIA BALASE - DEALERS OF                             10501
A0101407690652478374142MARLENE C. ALVAREZ - DEALERS OF                         10501
A0101407690652525001057SONNY M. BAJIO - DEALERS OF                             10501
A0101407690652525001067MAILA M. NACIN - DEALERS OF                             10501
A0101407690652525001083TULABING, VIOLETA - DEALERS OF                          10501
A1301400210682635116001DEVORAH M SOTO OR                                       10501
A4101400260812339290001DR JOSE ARMAND GURANGO OR                               10503
A4101400550815693134001LLANES, TUDOR HERNANDEZ OR                              10501
A0101401960000000008095DAI, MIANMIAN                                           20500
A1001400480000000133542GUINTO, NEMER SARDEA                                    20500
A0101412210000001236322STAR CONNECT HUMAN                                      20500
A1101400120000001547371GRANADOS, BRIAN STEVE G.                                20500
A0101404680000001617261SERVICES                                                20500
A0101401090000001618731SERVICES                                                20500
A0101401960000001844420UY, JENNY DELA CRUZ                                     20500
A0101406040112428212001MARIA CERRIZA TRINIDAD                                  20500
A0101401830141666778001JOSELITO P. MARQUEZ                                     20500
A3101400450223684124001WINNIE VARLEY-MANECLANG                                 20500
A6601400120314593270001REMEDIOS                                                20500
A0201400890376080642001GALANG, GLENN ANTHONY A.                                20500
A0101408400394532241001NEBRES, ROWEL                                           20500
A5501400120410633077001CLAVISILLAS, RONIE                                      20500
A1201400150421685972001JUCUTAN, ROMMEL                                         20500
A0101403030441552227002CORDOVA, LEOPOLD                                        20500
A3801400170490046469001GENUINE MTHREE T                                        20500
A1901400160491244484001CARLOS R BERBA                                          20500
A0101404420631160256001JOCELYN N. SALEN                                        20500
A0101407690652478374084SHOECAT INC                                             20500
A0101407690652478374142SHOECAT, INC.                                           20500
A0101407690652525001057SHOECAT INC.                                            20500
A0101407690652525001067SHOECAT INC.                                            20500
A0101407690652525001083SHOECAT INC.                                            20500
A1301400210682635116001MIGUEL CARLOS B                                         20500
A4101400260812339290001DRA MARIA CORAZO                                        20500
A4101400550815693134001LLANES, PRESCILL                                        20500
B0101400600000000007730********                                                 1601
B0101404680000000013543JCD METALFABRIK CORPORATION                              1603
B1301400210000000023496JELLI'S GAS STATION                                      1602
B1301400210000000023510JELLI'S GAS STATION                                      1602
B0101412630000000024039VRGCCS CORP.                                             1602
B0101413440000000038195SIENA MOBILE WORLD CORP.                                 1601
B1901400320000000041272SIMCO VILLAGE LEARNING CENTER INC.                       1601
B0201401020000000042311TIERRA CIELITA PROPERTIES, INC.                          1601
B0101402480000000045565QUALIGEN PHARMACY CORP.                                  1602
B0101402480000000310523***********                                              1602
B01014088200000008406647107 EXPRESS CORP.                                       1601
B0101412470000000949577LIVAN TRADE CORPORATION                                  1601
B0101400860000001005398**********                                               1603
B0101402480000001100001QUALIGEN PHARMACY CORP.                                  1602
B1701400230000001159148AUTO - MEKANIKO MULTI TRADE CORPORATION                  1602
B0101404840000001312372JOY PLANET INC.                                          1602
B0101404840000001312383FUNHOUSES CORPORATION                                    1602
B0101401700041047421001GENSENS INC.                                             1603
B0101400600071232728001**********                                               1605
B0101400600071233610002**********                                               1630
B0101401090171042218001RD CASH PADALA, INC. - AREA 02                           1603
B0301400790195053525001EMCELI PROPERTY HOLDINGS CORP                            1601
B0101407140213608150001POWER KRIMP HYDRAULIC PNEUMATIC INC.                     1602
B1001400190231014376003PENBANK, INC.(A PRIVATE DEVELOPMENT                      1603
B1001400350233039624001ORO LZT MARKETING ENTERPRISES, INC.                      1604
B0101411110276047438088VANTAGEONE FINANCING CORPORATION                         1601
B1101400120313042009001MACHICA FIRM, INC.                                       1605
B0101402480331009988001**********                                               1605
B0101402480331010358001**********                                               1605
B0101402480331020380001BOUNTY AGRO VENTURES, INC.                               1630
B0101402480331221969001**********                                               1602
B0101402480331291905001**********                                               1601
B0101408820333040998008INTELE BUILDERS AND DEV'T CORP.                          1602
B2401400180411038345001PHILFRESH CORPORATION                                    1603
B0101408110515023779001RUSH HOUR ADVERTISING, INC.                              1601
B0601400230891035721001GTD PRIME FORTUNE CORPORATION                            1601
B0101411110000000009043ACADEMY OF ST. ELIZABETH, LAGUNA,                       11601
B0101407720000000017621PHILIPPINE CLINICAL CHEMISTRY &                         11601
B3801400170000000018788MINDORO PPA EMPLOYEES MULTI-PURPOSE                     11603
B0601400100081042835001FORTUNE HONGKONG SEAFOOD RESTAURANT                     11610
B0101401830141032221001CARITAS ET LABORA HUMAN RESOURCE SERVICE                11605
B0101401090171007896001CPA REVIEW SCHOOL OF THE                                11610
B0101408820333005948001BLUE ANGEL SECURITY  AND MANPOWER                       11602
B0101411110000000009043PHILIPPINES INC.                                        21600
B0101407720000000017621DIAGNOSTIC CORP.                                        21600
B3801400170000000018788COOPERATIVE                                             21600
B0601400100081042835001(NEWSTREET)                                             21600
B0101401830141032221001COOP.                                                   21600
B0101401090171007896001PHILIPPINES, INC                                        21600
B0101408820333005948001SERVICES, INC.                                          21600
