A0101407720602348243001NATALIA D. BANAGA                                        0501
B0101400860000011853924**********                                               1602
A0101401250021324591003TABINAS, GUILBERT INFANTE                                0502
A0101400150000000807636TESALONA, MARIA CLAUDETTE CRUZ                           0501
B0101400150061226498001CYCLOPHIL EDUCATIONAL PROMOTION                          1602
A0101405810072316984001HEMAN CHUA                                               0501
A0601400100000006333939LUMANLAN, PAOLO TAYAG                                    0502
A0601400100000018189194GALANG, AURORA SOTOMIL                                   0501
A0601400100000018189332ORDONEZ, HEIDY LYNN ARIEM                                0501
B0601400100000007185062PUREPOWER VENTURES CORP.                                 1601
B0101413730000001568492*********************                                    1602
A0101410850000000259869BUELA, NORA ANG                                          0503
B0101410850000003503751ONE OPTI MARKETING, INC.                                 1610
A0101410560000001737235SALES, MARIVIC BELDA                                     0501
A0101410560000018199774CIPRIANO, MARIA JOANNA MARION R                          0501
A0101400730000001822782lIM, C DBU LOEWE MARKETING                               0502
A0101400730111195439001TAN, ROWENA                                              0501
A0101406040000014388577DAVID, CASEY ANNE PASCO                                  0503
A0101401830141384286001MACOMB, MELVIN C. OR                                    10501
A0101401830141384286001SUAREZ, MA. ELEN                                        20500
A7201400170000003773160ALEGRADO, FLORENCE CORAGE OR                            10501
A7201400170000003773160ALEGRADO, RODERICK LUMAR                                20500
A7201400170000003774243PULMANO, DIEROSEL LARIDE                                 0503
A7201400170000015855248MONDARTE, REYNALDO SIJO                                  0502
A7201400170000013006983MARAMARA, ELVIE MAYONILA                                 0501
A7201400170000016139343RONDRIQUE, ROLINDA NEPOMUCENO                            0505
A7201400170000016139452LIZARDO, DANILO ORDONA OR                               10502
A7201400170000016139452LIZARDO, ROSALINA CATALAN                               20500
A5001400170000000169744ONG, ALBINA UY OR                                       10501
A5001400170000000169744RATUNIL, MAUREEN ONG                                    20500
A0101400440000000821196JETHRO JEWELRY SHOP                                      0502
A0101400440161193622001ROSALINA T DINO OR ROMMEL DINO                           0501
A0101400440161582425001JENNIE C. ARGANOZA OR                                   10503
A0101400440161582425001JOMYR C. ARGONOZA II                                    20500
B0101407270162050373002AMARELA, INC.                                            1605
B0101401090171016399002UST MEDICAL ALUMNI ASSOCIATION INC.                      1603
B0101401090171016399004UST MEDICAL ALUMNI ASSOCIATION INC                       1601
A0101401090171200588001BOBBY S. PARENO                                          0501
A0101401090000015531661PENA, GARDEE TOLEDO                                      0501
A0101401090171565714001ANGELA ROSE HERNANDEZ                                    0502
A0101401090171757692001HAZEL JOY A. QUINTO                                      0501
A0301400660000014406696NISHIMURA, MARIA ELIZABETH                               0502
B0301400790000013578071WANDERTIME TRAVEL AND TOURS CORPORATION                  1601
A0101401380000015062490DIVINA, JOCELYN DELIMA                                   0502
B0101401380201024290001KSP INTERTRADE CORPORATION                               1602
A0101412500000018195970CONTACTO, MARIA KATRINA NICOLE                           0501
A1001400190000012245059MONTANO, NEKA DAMIAO                                     0501
A1001400190231235649001DUGADUGA, METHOSALEM                                     0501
A1001400190231520766030DAGOPLO, LOLIBETH MACANA                                 0501
A1001400350233528399003KO, JOSE NELSON AND                                     10502
A1001400350233528399003KO, CHARMAINE                                           20500
A1001400480000003357691ANG, ANDY MAN CHUNG CHANG                                0503
A1001400480000014023911PENASO, JAYSON MENDOZA                                   0503
A1001400480000016857199LAGO, EDNALYN OLMILLO                                    0503
A1001400480000014023546BERJES, RINO OPOL DBU RESTO FRE                          0505
B0101401670271041021001MEGAWIDE CONSTRUCTION CORPORATION                        1601
A0101401670271333076001BENJAMIN C. VICENTE                                      0501
B0101406460272035154001STUDIO84 INC.                                            1602
B0101406460000001231689DY, TERENCE LAO DBU PROALMIGHTY                         11602
B0101406460000001231689ENTERPRISES                                             21600
B0101406620000009695356RAUDRA INC.                                              1602
B0101400570281007188002KIMURA CHAVES ENTERPRISE, INC.                           1602
A0501400200000005751782MISLANG, JANELY DELA CRUZ                                0502
A1101400120000016417782PACALA, LEONORA CABALQUINTO                              0501
A1101400120000006186569PUERTULLANO, YONELYN MECINA DBU                         10502
A1101400120000006186569VINCE GRAPHICS                                          20500
A1101400120000001547268JADOC, MA. ARIELYN PALOGAN                               0502
A6601400120314612973001CABILI,MANUEL MELFORD OR MANUEL                         10504
A6601400120314612973001OR TERESITA OR Z                                        20500
A2901400130000015903832NALANGAN JR., ARNALDO ZONIO                              0501
A0101409050000016101043CHING, JOSEPH RAGOS TY                                   0502
A0201400920000012764860VERIL JR., RODULFO LIBRIA                                0502
A0101402930000018189241DAHILIG, ANA T                                           0501
A0101402930000018189321DE LA CALZADA, ALEBETH LIBRA T                           0501
A0101402930000018189401DOMINGO, MARK C                                          0501
A0101402930000018189489DUYA, JOHN MARTI C                                       0501
A0101402930000018189547FLORES, CASIANO V                                        0501
A0101402930000018189605GAN, EMMA MALOU L                                        0501
A0101402930000018189650OBA, MASAMI YRVIN B                                      0501
B0101402930381008829002AXEIA DEVELOPMENT CORP.                                  1615
B0101402930381010731001ACP INC.                                                 1601
A0101408370382205119001DR. FLORANTE P. GONZAGA                                  0501
A0101408790000013824512SARDILLO, MARIA BERNADETTE                              10502
A0101408790000013824512VILLANUEVA                                              20500
B0101408790383047289001ACTUATE BUILDERS, INC.                                   1603
B0101408790000005594716SELSYN ELECTRIC PRODUCT INC.                             1603
A0101411660384610246004CURA, SARAH JANE JARDINAN                                0501
A0101411660000010562006VARGAS, RAUL ESPANOL                                     0502
A0101402770000006812575BERNARDO, TENNY ROSE                                     0502
A0101402770391326383002YANZON, MICHELLE BALAORO                                 0502
B0101408950000015963970MGM MOTOR TRADING INC.                                   1603
A0101409210000011535367TOMAS, MARVIN JAKE LUNA                                  0501
A0101412210000010256594PARAGAS, SUERTE CABEL                                    0501
A0101412210000016641133ANDAL, MARIA ELMA MEDINA                                 0501
A5501400120000017065748DOMINGO, JONATHAN CUEVAS                                 0501
B2401400180000000019827CHONA U. CARIAGA FOODSHOPPE                              1603
B2401400180000011298958GSC TSB AUTO SUPPLY CORP.                                1601
A1201400150421039385001JL'S CLEAN UP JANITORIAL &                              10503
A1201400150421039385001MANPOWER SERVICE                                        20500
B1201400150421253585001ANGELES DIAZ                                             1602
A0901400220000006214499OH, ROBERT SAAVEDRA                                      0503
B0101403030441241050001**********                                               1601
A0101403030441337771001**********                                               0501
A0101403030441534805001**********                                               0502
A0101403320000011835404JOSEPHINE P. ROBANCHO                                    0501
B0101403320000014340728SPRKINDUSTRIES INC.                                      1602
B0101406330000000432897MITC EMPLOYMENT AGENCY INC.                              1602
A0101406330472215990001DFB GLASS & ALUMINUM SUPPLY                              0502
A0101410140000012209584DELA ROSA, FELICISIMA EMELINE Y                          0502
A1901400160000017122291ILAGAN, ELLAINE MACARAIG                                 0501
A1601400170000013603504BORAGAY, HENRY REPOLLES                                  0502
A0101403580000013963716MONTESA, MA. TERESA BAYLON                               0501
B0101403580511031762001STERLING FLUID SYSTEMS ENTERPRISES INC.                  1610
A0101405940512403282001ROBERTO L AMARA JR OR                                   10502
A0101405940512403282001MA CHRISTINA P A                                        20500
A0101408530000002260048GO, ANNABELLE TAN                                        0501
A0101408530000000489481TRACY RYAN M GARCIA                                      0501
A0101403610531430756002GERTRUDES A. SALVADOR OR                                10502
A0101403610531430756002LEONOR A. HADUCA                                        20500
A2201400250000017069115BAUN JR., CESAR CARREON                                  0503
A2201400250561299317001MIRASOL M. SAN SEBASTIAN OR                             10502
A2201400250561299317001ALLAN M. SAN SEBASTIAN                                  20500
A0101410690000016641253HARESCO, TEODORICO TUMBOCON                              0503
B0101404130601016662001PAYROLL SERVICE PROVIDERS, INC                           1605
B0101404130601031961001THERMAC INSULATION INDUSTRIES, INC.                      1602
A0101404260611659908001LIM, EDNA MAGDANGAL                                     10503
A0101404260611659908001OR ORLANDO LIM                                          20500
A0101409920000010528931FERRE, AILEN VILLAFUERTE                                 0502
A0101409920000009981548ABDON, FEDILITA ROSARIO                                  0501
A0101409920000013391470REYES, JENNICA MAE G.JT                                  0501
A0101409920650478374024DUMAWING, LUALHATI SANTIAGO                              0501
A0101409920000000998569MEMBERS OF NATASHA (SHOECAT INC                         10502
A0101409920000000998569PEDROSA, JULIE J                                        20500
A0101409920000005460771MEMBERS OF NATASHA, SHOECAT INC                         10501
A0101409920000005460771ALCANTARA, CORAZON                                      20500
A0101407690000017376651CELIZ, EMMA RAMOS                                        0501
A0101413440000014087602HARUHI KITCHENETTE                                       0502
B0101413990000018195981IPROTECT CONSULTANCY AND INSURANCE                      11601
B0101413990000018195981AGENCY, INC.                                            21600
B0101413990000018196046IPROTECT CONSULTANCY AND INSURANCE                      11601
B0101413990000018196046AGENCY, INC                                             21600
B0101413990000018196104IPROTECT CONSULTANCY AND INSURANCE                      11601
B0101413990000018196104AGENCY, INC.                                            21600
A0101406590000013411448DY, MARK MATTHEWSON GO                                   0502
B1301400340000006402273***********                                              1601
A4101400260000005333693SEBIAL, MARK PAUL RIVADENIERA                            0501
A4101400260000016685333BALISA, ISRA AVILA                                       0502
B4101400260000005724181SERENITA INC.                                            1601
A4101400390813248327001DANILO B. SARIEGO                                        0501
B4101400390813560022001FAITH ACHIEVE PLASTICS CORP.                             1604
B4101400420000009392076**********                                               1603
A4101400420814506413001IBIAS, JOSEPHINE OCAMPO OR                              10501
A4101400420814506413001IBIAS, SEGISMUND                                        20500
A4101400550000011973289TAKADA, LETICIA LOPEZ                                    0501
B0101404840851009288001CHRIST BAPTIST CHURCH                                    1602
A0101404840000010224732GONZALES, ROWENA P.                                      0501
A0101406750000017168588MAYORES, MILA CORRE                                      0501
A0101406750852293235001FERDINAND H. PALAFOX OR                                 10502
A0101406750852293235001CRISHELLE F. PALAFOX                                    20500
A0101405070861395608001VIRGINIA NADELA BASA                                     0501
B0101413860000016826990ARGONAUT SHIP MANAGEMENT CORPORATIO                      1603
B0101413860000016827000TAG HOTELS & RESORTS, INC.                               1603
B0101413860000010275851EXPRESSLEAD LOGISTICS CORPORATION                        1605
A0601400230000010702995NAGUIT, MHELODIE OCAMPO                                  0503
