B0101408110515821100608**********                                               2005
B0101400570281821100608**********                                               2006
A1601400170000001068640JOSE NOEL R. RUBIO                                       0501
A0101407270000001597088NANA, RAY-ANTHONY FRONDA                                 0501
B0101407270162038058001MJM GLOBALKITS CORPORATION                               1620
B0101407270162046726001VALUE CARE HEALTH SYSTEMS, INC.                          1650
B0101407270162046726001VALUE CARE HEALTH SYSTEMS, INC.                          1650
A0101407270162479362001ERYMAR D.C. REYES OR                                    10501
A0101407270162479362001AUBREY S. REYES                                         20500
B0101406620273821200608**********                                               2001
A0101402060351217440026CARLOS III, MENELEO G.                                   0501
B0901400220432043681001EVERLAST CONSTRUCTION                                    1601
B0901400220432043681001EVERLAST CONSTRUCTION                                    1601
A0101413440655054550001SOMETHING DIFFERENT BAKESHOP                             0501
A4101400550000004846802LACAS, BABY OFE CATHERINE A.                             0501
A0101400860011236212001**********                                               0501
A0101400860011479505001**********                                               0505
A0101400860011519469001**********                                               0502
A0101400860011663274001**********                                               0502
A0101401250000000907211CORRALES, RITA M.                                        0501
A0101411370000000470455MEMBERS OF NATASHA (SHOECAT, IN                         10501
A0101411370000000470455ESPANOLA, MARY ANN G.                                   20500
A0101400150061771867001AVA MARIE OR DENNIS IGNACIO OR                          10501
A0101400150061771867001CONSOLACION TIONGSON                                    20500
A0101405810072381557003MATEO, ANALYN CASTILLO                                   0504
A0601400100000002365437DELA CRUZ, RAMIR DE JESUS                               10501
A0601400100000002365437OR DELA CRUZ, MARIBEL                                   20500
A0601400100081254011001PANLILIO, MARIE CARMEN OR                               10501
A0601400100081254011001PANLILIO, AUGUST                                        20500
A0601400100081604957001BARREDO, ELIZABETH OMBAO                                 0502
B0101413280000000041921GREENHILLS HEIGHTS CONDO ASSOCIATION,                   11602
B0101413280000000041921INC.                                                    21600
B0101413730000001568481EC SUMMIT MOVERS LOGISTICS INC.                          1603
A0101410560000003562149**********                                               0501
A0101410560110478374013CYNTHIA EVANGELISTA MENDOZA                              0501
A0101400730000002882222LAGRIMOSA, JOEMARLO BALONON                              0502
A0101406040000000096811********                                                 0501
A0101413150000003868297******                                                   0502
A0101413310000004735735TOMENES, JOSEPHINE BUENO                                 0501
B0101401830000000033569CARITAS SALVE CREDIT COOPERATIVE                        11605
B0101401830000000033569(CALOOCAN)-001                                          21600
B0101400440000000337780KNIGHT COMMANDER ARMORED & SECURITY                     11605
B0101400440000000337780SERVICES INC                                            21600
A0101400440161525001055MA. LUZ E. ABIERTA                                       0501
A0101400440161602321001ROLAND B. GALVAN                                         0501
A0301400530000000065832PERIAS, FE                                               0501
B3101400450223037708001RD CASH PADALA, INC.                                     1603
B1301400470000000009561FUND LINK CREDIT & LOANS, INC.                           1602
A0101406460272358045001VALERIO, RAMON TORRES                                   10502
A0101406460272358045001OR JANE VALERIO                                         20500
A0101406620273327382001GLORIA UNSON OR WAYNE UNSON                              0502
A0101406620273707369001GELLIDO, RAUL CHESTER LAGAYA                            10505
A0101406620273707369001OR GELLIDO, JOCE                                        20500
B0101406620273733659001ULTRAGAS CARRIERS CORP.                                  1602
A0101408660274540479001TAN, TERESITA B. OR TAN,                                10502
A0101408660274540479001VINCENT Y. OR UY                                        20500
A0101411820000002328598ALBERASTINE, RUBE OBEMIO                                 0502
B0101411820000000477452BOYD COFFEE COMPANY PHILS. INC.                          1604
A0101400570281188125001LUISITO O. LLIDO, M.D.                                   0502
A0101400570281343716001ROMEL M. ALMORO OR MARIA                                10504
A0101400570281343716001MARGARITA ALMORO                                        20500
A0101400570281534454001TAN, IRVING                                              0501
A0101402350321455602001ISAAC JAMES D. JIMENEZ                                   0502
A0101402350321542967001ABUNDIENTE, JONATHAN GUMBA                               0501
A0101405650322298552012ROSITA A. CARANDANG                                      0502
A0101402510000005803549TAMAYO, MA. CARMENCITA ALMA                             10501
A0101402510000005803549JOSE                                                    20500
A0101402060351021408001V.R. BENITO ARCHITECTURAL SERVI                          0502
A0101402060351211811002SHARON CATING LIM, M.D.                                  0503
A0101402060000002258831ANGELES, JOSE AMADO RAYMUNDO                             0501
B0201400760374041858001HELPMATE TRADING AND SERVICES                            1601
B0201400760374745313001EVO ENVIRO SOLUTIONS, INC.                               1603
A0201400890000000028015*****************                                        0501
A0201400890376545727001SY, VICENTE OR CHARITO OR VANCE                         10501
A0201400890376545727001CEDRIC OR CHUA,                                         20500
B0101402770000001571671JB WALL SYSTEMS, INC.                                    1602
A0101405490000002141020APOSTOL, MARIA  CELINA ALARCON                           0501
B0101405490392032671001VEGA STAR GAS AND SERVICE STATION INC.                   1603
A0101408400394412577001REYES, EMMANUEL JOHN JOCSON OR                          10501
A0101408400394412577001REYES, MARY GRAC                                        20500
B0101408950000002768427FWD LIFE INSURANCE CORPORATION                           1605
B0101408950396564292001*****                                                    1602
A0101409180000005788312RAYMUND JOSEPH CASTANEDA                                 0501
B0101409180000000874751MENARCO DEVELOPMENT CORPORATION                          1602
A0101409210398670961001DEL ROSARIO, CECIL GOMEZ                                 0501
A2401400180411478374044UGAT, ELVA T.                                            0502
A2401400180411680952001ALCOVER, MA. SOCORRO TENAJA                              0502
B1201400150421047385001ST. VINCENT DE FERRER LEARNING CENTER,                  11605
B1201400150421047385001INC.                                                    21600
A0101403320000004831061JOSEFINA P. MILLA                                        0501
A0101403320471032831001R.C. TAGALA CONSTRUCTION                                 0510
A0101403320471550810001JOSEPHINE O. CARUNGAY                                    0502
A0101403320471664135001JARAPLASAN, LEONARDO ELECHOSA                            0501
B0101403320000001647263MASTERCLASS MANUFACTURING CORPORATION                    1605
A0501400170481288021001CHUA, VICTORINO POSCABLO                                 0505
A0501400170000000018248MONTEMAYOR, AILENE JOY SAMOY                             0501
A1401400110000000132896MORALES, RAIN DBU DIRL AND JANE                          0501
A1601400170000001069090MARY NATHALIE P. MONTES                                  0502
A1601400170000001360645SHIGEO SAKURAI                                           0501
A1601400170000001360656HOMER O. REYES                                           0501
A0101407430503181551001DICKSON R. ESCOLAR OR LOURDES                           10501
A0101407430503181551001OR MARY ANN ESCOLAR                                     20500
B0101403580000000214731MILLENNIUM ERECTORS CORPORATION - NORTH                 11610
B0101403580000000214731RESIDENCES                                              21600
B0101403580511015363072MEC - EMD ANGONO                                         1610
B0101403580511015363073MEC - EMD ANTIPOLO                                       1610
B0101403580000000214662MEC - SUNTRUST PARKVIEW TOWER 1 & 2                      1605
B0101403580000000214673MEC - SHANATA                                            1610
A0101403580511327187011ANDREW JUDE D. DEYTO                                     0502
A0101408110000005716952SANTOS, RACHEL GANTAN                                    0501
B0101408530516477712001JEWELL GOMEZ AND ROBERTO GARCIA                          1602
A0101408530516571877135SHARON ROSE S. RITUAL                                    0501
A0101408530516615903022CHERYLL EILEEN B. NILLO                                  0501
B0101403450521011769001SAFEWAY CUSTOMS BROKERAGE, INC.                          1610
B0101403450521012075001**********                                               1605
B0101403450521238051001*********                                                1602
A0101403450521239777001**********                                               0501
B0101403610531224782001**********                                               1603
B0101404000551032987001PANOPIO ESCOBER AND ASSOCIATES LAW                       1601
B0101407720602028787001RTN HEAD OFFICE CREDIT ASSOCIATION                       1601
A0101407720602343284001MARY ANGELINE RECTO OR                                  10501
A0101407720602343284001RODRIGO RECTO JR                                        20500
A0101407720602379217001ALFONSO N. BLANCH OR                                    10501
A0101407720602379217001MARIA ELIZABETH BLANCH                                  20500
A0101407720602381963001KASILAG, EMMANUEL R.                                     0501
A0101409890649774914001ELEFANO, ROSITA CASTRO                                   0501
A0101413440000003298208BAYBAY, PAULO BEDRUZ                                     0501
B0101406590000003007314SINAG CONSULTANCY GROUP INC.                             1603
A0101406590662711800002ROQUE, EVELYN VALDOMAR                                   0501
A0101408240000000521720RICAFRENTE, MA. ANALYN DELFIN                            0503
B2801400100712035549002AUTOTEC AUTOMOTIVE TESTING AND EMIS                      1602
A0101412340000003341539CALAYAG, MIA ANN MARICE                                  0501
A0101412340000003761933RAYMUND BENIDICT SAMALA                                  0501
A0101412340000004360132MAMANGUN, MARHIELLE DE VERA                              0501
A0101412340000002900370MARINEL O. OBIDO                                         0502
A0101404840000000232824PACETE DBU CYCLE ONE TRADING                            10503
A0101404840000000232824AND SERVICES                                            20500
B0101405070000001726132MABUHAYKOREA CORP.                                       1602
B0101405070861200171001NATIONAL BOOKSTORE INC. -                               11601
B0101405070861200171001ERMITA BRANCH                                           21600
A0101405070861397365001UEDA, EDRALIN DUBLIN                                     0501
