B0101400150061821100608**********                                               2010
B2801400100712821200608**********                                               2001
A0101400440000006679663AIDA S. RIVERA                                           0502
A1101400120000003022373BANTULA, EVELISA                                         0501
A1101400120313478374071ZACARIAS, MARIA FE C.                                    0501
A1101400120000006186478BOLECHE, MERLINE BANDALA                                 0502
B0201400760374821200608**********                                               2003
A0101409210000007864119PELAEZ, CARLAMAE ALVEEN MAQUIRA                          0502
A0101400860000003571668***                                                      0502
A0101400860011389546003**********                                               0502
A0101400860011420919001**********                                               0505
A0101400860011496074002**********                                               0501
A0101400860011611356001**********                                               0506
B0101400150061039643001J.M.PIZARRAS AND ASSOCIATES LAW OFFICE                   1605
A0101400150061232035003NORBERTO REYES OR                                       10502
A0101400150061232035003SOLEDAD REYES                                           20500
A0101400150061338964134RAYMUND VILLAVICENCIO                                    0501
A0101400150061453761188MARIA NELLIZA E. BERMEJO                                 0501
A0101400150061697165001SERVER, CATHERINE ANNE B. OR                            10502
A0101400150061697165001CHRISTINE MICHEL                                        20500
A0601400100000007254044PALO, DENNIS GEGANTE DBU DENNIS                          0502
A0601400100081251917002TAN, JOSE PEPITO M.                                      0501
B0601400360000003186781GOLD TREE IMPORT AND EXPORT INC.                         1610
A0101410850000008264084GUILLERMO, I DBU MSG BOTTLE                             10503
A0101410850000008264084WASHING                                                 20500
B0101406040000003547642A.B.V. FIVE LOGISTICS ONE CORPORATION                    1603
A0101406040000000014724********                                                 0502
A0101401960121238342002************                                             0505
A0101401830000006269732MONIS, JOSEPH ARGUELLES                                  0501
A0101401830141066684001GOMEZ, JINKY DBU SHEKHINAH                              10501
A0101401830141066684001DENTAL CLINIC JT                                        20500
A0101401830141210065002EVA S. SUAREZ                                            0501
B7201400170000003773557ASUGAS, GRACE MARIE N. AND DECIPULO                     11601
B7201400170000003773557WILLEJARDO M.                                           21600
B7201400170000007185562CARUMBA, MARGIE SEPADA OR CARUMBA,                      11601
B7201400170000007185562DANIECITO PASCO                                         21600
A0101400440000008201243GERARDO R. DURANTE                                       0502
B0101400440161186956001NUMERIANO H. HERNANDEZ                                   1602
A0301400950000005707002**********                                               0501
A0301400950000005707273ABAS, AHMAD ALI OR                                      10502
A0301400950000005707273ABAS, ANALYN G.                                         20500
B0301400950000006080280**************                                           1603
A0101401380000002297561MAYO, RAMON BRIGIDO MATANGUIHAN                          0501
A0101410720000001602302******                                                   0501
A0101410720000007843425LADIA, APRIL IRIS RUPIDO                                 0504
A0101413600000003851052ANNARIA CORONADO                                         0502
A3101400740000006349482RONGAVILLA, ALVIN CRIS                                   0502
A3001400130000001271363PALUCA, LIZA MORAL                                       0502
A3001400130000002063412CARIAGA, GIRLY GORGONIO                                  0501
B3001400130000006004740SERVIAM MULTI-PURPOSE COOPERATIVE                        1602
A3001400130000009103593PINEDA, NOEL DBU NU KIN                                  0504
B3001400130000008264875UNITED CARAGA CORPORATION                                1604
B3001400130000008264886PIPRIME CORPORATION                                      1610
A1001400350000000922105FACTURA, JACKELOU CORONEL                                0502
A1001400350233335599001DELA CRUZ, THELMA MAANDIG                                0501
A1001400350233478374006IBANEZ, ELSA                                             0501
A0101406460000002359851GO, DICKIE CHUA                                          0502
B0101406620273037461002FIRENZE CORPORATION                                      1601
A0101406620273306796044MA REGINA Y. MILLARE                                     0501
A0101406620273565345001MACALINDONG, RICARDO BOBADILLA                           0501
A0101411820000001356770RAMONCHITO PANGANIBAN LECAROS                            0501
A0101400570000010295462CU, MARGAUX VENUS DASALLA                                0502
B0101400570000002104170PHYLUM PRODUCTS, INC.                                    1601
A0101400570000001681881PALANCA, MARIA LOURDES YOLANDA                           0501
B0101411240283066496001ASIAN TECH. COMPUTER SALES CORPORAT                      1605
A0501400200000002306127OYAMAN, GERTRUDES ABANDO                                 0502
A0501400200000002306150PACIS, WILMA RAMOS                                       0502
A0801400160311267968001MUYCO, REX MELCHOR D.                                    0502
A0801400160311413609001LIM, JOSEPH PO                                           0505
A0801400160311416713001CHUA, GEORGE GO                                          0502
A1101400120000000652697CASTILLOTE, GRACITA G.                                   0502
A3401400280000005525322DOLOROTA, JEANDY GINCO                                   0504
A0101402350321179570001EPHRAIM NEAL C. ORTEZA OR                               10501
A0101402350321179570001IMELDA L. OLIVAR                                        20500
A0101402510000010100742BANZUELA, MA. CECILIA ASENJO                             0501
B0101402510341034222001E.J. "G" FOODS CORPORATION                               1610
A0101402510341198071001ROSEMARIE I. SO                                          0501
A0101402510341328134001MARCELINO, JOCELYN TIONGSON                              0501
A0101402510341420133001BONGCAWIL, GHADA ZACARIAS                                0501
B0201400760374682272002OUANO, RUPERTO VILLAFLOR OR                             11602
B0201400760374682272002JAYME, STEPHEN R                                        21600
A0201400890000002270691BALDELOVAR, ALICIA VILAR                                 0502
A0201400890376080642001GALANG, LORLIE PACURIBOT OR                             10505
A0201400890376080642001GALANG, GLENN AN                                        20500
A0101402930381209223001********                                                 0501
A0101402930381478374015DIMARANAN, ARNOLD ABEJERO                                0501
A0101402930381488752001AGUADA JR., JOSE JOEL RACCA                              0502
A0101402930381505507001TRINOS, ROCHELLE VERANO OR                              10503
A0101402930381505507001AVILES JR., ISAG                                        20500
A0101408370382241442001DR. JOSE FRANCO J. BANZON OR                            10510
A0101408370382241442001DR. MA. EIDLLEN BANZON                                  20500
A0101402770391434474001ALBA III, DAVID LLOYD AQUINO                             0501
A0101402770000004849301SERRANO, EDGARDO BIANDA                                  0501
B0101402770391821200608**********                                               2001
A0101408400000000960430DITUCALAN, JAMILA FAISAL                                 0501
A0101408950000002255341MONROY III, HERMOGENES DE JESUS                         10501
A0101408950000002255341OR MONROY, JEANE                                        20500
A0101409180000003780056MARY CRIS G. GUNSAY                                      0501
A0101409180000009241418JOBY VARGHESE                                            0501
A0101409210000002279018AGONCILLO, CONSUELO FLORES                               0502
A0101409210000010290154GAN, PORTIA MANING                                       0501
A0101409210000010290165JAVIER, JONATHAN VALENZUELA                              0501
A0101409210000010290198IVY, SISON PUENTEBELLA                                   0501
A5501400120410636179018CHIU, VALENTIN & JULIA EILEEN                           10504
A5501400120410636179018& CHRISTIAN & CH                                        20500
B5501400120410702888008PE, MARIA LUCIA OR PE, ARTHUR JR. OR                    11602
B5501400120410702888008SABLON, NELLY                                           21600
A1201400150421478374014PERIDO, MARY JANE                                        0503
A1201400150421685972001JUCUTAN, HEIDI BONDAD OR                                10502
A1201400150421685972001JUCUTAN, ROMMEL                                         20500
A0101403030441241013001**********                                               0506
A0101406330472027958001A. ANOLIN ENTERPRISES                                    0503
A0101410140000001074919LEGASPI, ROWENA BIACO                                    0501
B0501400170481005408003REPUBLIC COURIER SERVICE INC.                            1603
B0501400170481018109002****                                                     1605
B0501400170481025398002****                                                     1602
B0501400170000009754492ARCINUE DEVELOPMENT CORPORATION                          1602
A0501400170000006300629GAZMEN, ARNEL GERARD RAYOS                               0502
A0501400170481357950002JASPER SPENCER L. ONG                                    0505
B3801400170000000018788MINDORO PPA EMPLOYEES MULTI-PURPOSE                     11605
B3801400170000000018788COOPERATIVE                                             21600
B3801400170490066603001FATHER N' SON LINES - RDI SHIPPING INC.                  1601
B1401400110492013980002IMPERIAL APPLIANCE PLAZA                                 1601
A1401400110492222049001AMORSOLO S. NIEVA                                        0508
A1401400110492300971001WILFREDO J. LAVAREZ                                      0503
B1601400170494047397001FEDERATION OF BACMAN HOST                               11602
B1601400170494047397001COMMUNITIES, INC                                        21600
A0101407430000000447089EMERLITA S. LLAMAS OR                                   10501
A0101407430000000447089EPIFANIO F. LLAMAS II                                   20500
B0101407430503047489001MANILA INTERNATIONAL FREIGHT                            11605
B0101407430503047489001FORWARDERS, INC.                                        21600
A0101407430000002298315EXCEL A. GRESOS                                          0501
A0101403580511028909001E.M. MOLINA'S CONSULTANCY FIRM                           0501
B0101403580511043731002ARC 5456 PROPERTIES, INC.                                1601
A0101411790518739962001SO, DOROTHY UY                                           0501
A0101403610000001450806DEE, JOHN MINGO LISIA                                    0502
A0101407720602286255002**********                                               0503
A0101407720602397352001RIVERA, LUIS ROBERTO FOOSHEE                             0501
B0101404260611057756001SYNERGOS PASSION ASIA, INC.                              1608
B0101404260611537674001KLINI-KAYA MEDICAL SPECIALISTS INC.                      1605
A0101413990000004838068BOTES, ESTRELLA BREDES                                   0501
A0101410300000002375755********                                                 0503
A1301400210682247175002RUBEN DE JESUS JR.                                       0501
A1301400340683542735002BIUNAS, REMEDIOS GREGORIO                                0502
B1301400340683821200608**********                                               2001
A0101408240000001038788MAGAT, GRACE JOVEN OR                                   10501
A0101408240000001038788MAGAT, JAMES TORRES                                     20500
A0101408240000008854355YNION, ROMMEL SALVA                                      0503
B4101400420000006643387LEAD WITH INTEGRITY AND GOOD GOVERNANCE                 11610
B4101400420000006643387IN HELPING COMMU                                        21600
A4101400420814357382003REMULLA, GILDA VASQUEZ                                   0501
A4101400420000000120856NAPILI, EMELY DACOYCOY                                   0502
A4101400420814478374171MICHAEL G. RIBOT                                         0501
A4101400420814559384001RIBOT, NORMA GAJE                                        0501
A4101400420814562876001*****                                                    0502
A4101400420814736230002SARMIENTO, RAFAEL CAMARCE                                0501
A0101406750000006303293NAVARRO, AILEEN SUNGA                                    0501
A0101405070861197518001RICARDO G. CHAN OR                                      10505
A0101405070861197518001OLIMPIA C. CHAN                                         20500
A0101405070000008250355KIM, DONGRYUL                                            0503
A0101405070861752687001RUGAS, JONATHAN RODAJE                                   0501
A0601400230000007252640FLORES, RANDIE TIGLAO                                    0501
B06014002300000060452907R FINANCE CORP.                                         1605
