F1901400160491043709016CYNTHIA C CRESENCIA                                      2501CKO
F6601400120000001370850NITA ENTERPRISES                                         2601CK1
F0601400360083040826001SG ECO INDUSTRIES INC.                                   2602CKR
F3101400450223014743001CANOSSA COLLEGE                                          2602CKR
F0101408370382009005003ASSOCIATED EYE SPECIALISTS CO.                           2605CKR
F0101406880513029228001PMPI CREATIVE SUITES                                     2603CKO
F0101408110515017722007STORES SPECIALISTS, INC.                                 2602CKO
F1201400280671768440001BATANES, BONNER S. OR BATANES, BENTER S.                12610CKO
F12014002806717684400016715500142                                              22600CKO
F0101403290461032477001GUILL-BERN CORPORATION                                   2720CKC
