F4101400260000000469330DEPANO, ABEL GONZALES                                    2502CKO
F0101411400517775295002YASHIMA, MARLEEN SEPULCHRE                               2501CKO
F3101400450223739176001*****                                                    2605CKO
F1901400290261023233002K & K CENTRAL MOLD INC.                                  2610CKR
F0101400570281040888002TACLOBAN OIL MILLS, INC.                                 2602CKR
F0101403450521012151002**********                                               2602CKR
F0101407690652029452004CA TELEMARKETING INC.                                    2610CKR
F4101400420814573133002MAGNETICA ELECTRONICS, INC.                              2602CKO
F0101406750852522761002OFFICE ESSENTIALS SYSTEMS                               12602CKR
F0101406750852522761002FURNITURES, INC.                                        22600CKR
