F0101400570281434586001DR.IRMINIA C. MONTECILLO                                 2502CKO
F0101405650322388205005TAN, GENEVIEVE LEDESMA                                   2512CKO
F3001400130000000931420MSU-IIT NMPC AMPAYON BRANCH                              2602CKR
F0301400110191030988001********                                                 2610CKR
F4101400260812037564001KAUNLARAN AT PAG ASA NG NAGKAKAISAN                      2602CKO
F4101400390813690332001KOOKING INNOVATIONS, INC.                                2602CKO
