A0301400530000000025345OROSET PHARMA, INC.                                      0502
A0101412210000000031381*********************                                    0503
A0101400730000000112881GUTIERREZ, DOMINICA DALISAY                              0501
A0101413570000000206260AC SHOWEREN 2000                                         0502
A0101411400000000230151NOBLE, SYLVIA NIVERBA                                    0501
A0101400150000000253278GELANO, ANGELO RECTO                                     0501
A1001400480000000474942DACALOS, GENMAR MANLOSA                                  0502
A0101407690000000495472******                                                   0501
A0101407690000000587800FLORIZZA G. SISON                                        0501
A0101408790000000599942LAT, JOEL REYES                                          0501
A4101400420000000710110**********                                               0501
A0101405650000000773068DUMIP IG, HELEN TIMARIO                                  0501
A0101413020000000880531***************                                          0502
A0901400220000000888002**********                                               0505
A0101407690000000913600MARQUI AUTO SUPPLY                                       0502
A2001400290000000978269UYMATIAO, CATHLEEN AMIL                                  0502
A0601400360000000978754SERRANO, JON MICHAEL EDOQUE                              0505
A5001400170000001003432DE LUNA JR., ROMAN TE                                    0501
A0501400170000001072731ABCEDE, JORRECA DE PERIO                                 0502
A0101413440000001472577SUCGANG, MA BETINA MERCENE                               0501
A2001400290000001557531CORTEZ, CHARIBEL GANGOSO                                 0502
A0101402480000001927802***********                                              0503
A0301400950000002251970**********                                               0502
A1101400120000002254822NABAUNAG, LEONORA FUENTES                                0503
A0101408400000002273241MAXIAN, JORDAN DELFIN                                    0502
A0101410720000002283930LADIA, APRIL IRIS RUPIDO                                 0501
A0101413020000002292731CALIXTO, HEIDI CAMMAYO                                   0501
A0101407270000002334812MARLON M. CRUZ                                           0505
A0101413440000002339573CABRERA, LEOTHENY ALBANO                                 0501
A0101413440000002339573CABRERA, LEOTHENY ALBANO                                 0501
A0101411820000002963693RODERICO DE GUZMAN                                       0501
A0101411820000002963717ORLANDO V. VERDE                                         0501
A0101400860011377555003**********                                               0501
A0101400860011478374008LEONORA MACARANAS                                        0501
A0101400860011505101001**********                                               0503
A0101400860011508115001**********                                               0502
A0101400860011578852001**********                                               0504
A0101400860011605108001**********                                               0503
A0101400150061430140001**********                                               0501
A0101400150061656681001PASCO, KAREN MIRIAM SORIANO                              0501
A0101400600071233711001**********                                               0501
A0101400600071426579001**************                                           0501
A0101400600071523473001*******                                                  0501
A0601400100081671563001LUMITAP, OLIVIA TOLENTINO                                0501
A0101400730111472699002LARGA, ANGELITA ZOLETA                                   0503
A0101401960121238895001**********                                               0505
A0101401830141311363001ACHACOSO, RAMON MANDOCDOC                                0501
A0101401830141532677001**********                                               0501
A0301400530193582949001CABIGAO, RICARDO P.                                      0501
A0301400530193686503001CORPUZ, GLENN A.                                         0501
A3101400160221533266001ANGELITO S. LAZARO JR.                                   0502
A3001400130230478374004BALABA, JANETH BORJA                                     0501
A3001400130230478374006SALAS, SEZIEL GENER                                      0501
A1001400190231520766085OBSIOMA, MADELYN A.                                      0501
A1001400350233478374026ANNABEL ESTOMO                                           0501
A0101401670271188489001CARMEN C. LIM                                            0501
A0101401670271680858001JUAN CARLOS V. BALLESTEROS                               0501
A0101401670271680858001JUAN CARLOS V. BALLESTEROS                               0501
A0101411820277773020001JOSEPH OLIVER V. GAN                                     0502
A2601400270302631323001MARIA ISABELL R. DULIG                                   0501
A0101405650322486049001ONGJUNCO, PATROCINIO GONZALES                            0501
A0101405650322508902001REGIS, MARILOU CRUZ                                      0502
A0101402480331020937001**********                                               0503
A0101402480331219212001*********                                                0501
A0101402480331224097001**********                                               0501
A0101402480331386055001DELOS SANTOS, MARIFE C.                                  0501
A0101402480331457919001**********                                               0502
A0101402480331478374003AQUINO, VIRGINIA                                         0502
A0101402480331478374160MIRAFUENTES, MARELYN                                     0503
A0101402480331520766126BODESTYNE, CECILIA                                       0502
A0101402480331550789001*****                                                    0501
A0101402480331559512001*********                                                0502
A0201400760374483079001STEINBERGER, OTTO WILHELM                                0501
A0101408790383549402001*****                                                    0502
A0101405490392038127001FEB 5 TRUCKING                                           0503
A0101408400394416106002BARRA, REINE NG                                          0501
A0101408400394478374034MERLA M TANO                                             0502
A5501400120410675739001BAYLON, EDWIN ELLON                                      0501
A0501400170481039551001SOMA HOLISTIC SPA                                        0501
A3801400170490757939003RENEL G MEDINA                                           0502
A0101411790518681263002TIMOG, ANALIZA MANAHAN                                   0502
A0101403450521240346001**********                                               0502
A2201400250561038458001PTT SOUTH RAMP GASOLINE STATION                          0501
A0101407720602328663002********                                                 0502
A0101410720653035059001E.L. PALAD CONSTRUCTION                                  0502
A0101410720653478374002ZENAIDA O. CARLOS                                        0501
A1301400340683676666001FALCON, MIGUEL NITO                                      0501
A4101400420814520766111COLETA, JEANNETTE C.                                     0501
A4101400420814520766138SAN PEDRO, ANA LIZA                                      0501
A0901400220000000012324SPECIALIST MOTORCYCLE PARTS &                           10503
A0101407690000000154750BARANGAN, ROMEO DBU                                     10503
A0101407690000000154885AUDIE R CORONADO JR. OR MARY                            10501
A0101407720000000245225RAUL CHRIZALDO MORENA OR                                10501
A1101400120000000652362YANG, ROSITA GO OR UY,TIA SHENG                         10503
A0101410720000000968094FIGUERAS, RAINIER C.                                    10501
A0101408240000001038642CABERO, EMILIE PAGULAYAN OR                             10501
A0101405490000001092717ROSLINA M. AMEROL DBU AMEMAR                            10502
A0101412890000001765562CRUZ, AMANDA OR FERDINAND OR                            10502
A0101407690000001919753DE GRACIA, NICANOR DBU NC DE                            10502
A2401400180000001935895MAGBANUA, JOAN SANTOS DBU NJM E                         10501
A0101401830141292912001EDUARDO P. AMBAS OR                                     10503
A0101401090171196077001EUSEBIO E. LLAMAS OR                                    10503
A0301400530193663433001COSMENO, JELLY J. OR                                    10501
A1001400350233272028001MAANDIG, ERLINDA B. OR                                  10503
A0101406620273587784001MENDIOLA, JOCELYN OR MENDIOLA,                          10501
A0101408370382661460001DEBBIE JOSEFINE G. FRANCISCO OR                         10502
A0101408400394506485001EBAJAN, ALEX BERGADO                                    10501
A2401400180411478374061JUNRES AGAD OR                                          10501
A0501400170481679606001CARINO, JOSEPHINE B. OR                                 10502
A1901400160491494343001RAINIER C UNTALAN OR                                    10503
A0101403580511150629008MIRIAM HIPOLITO OR RAMONA PENA                          10501
A2201400250561028596004ST. RAPHAEL THE ARCHANGEL                               10502
A0101407720602436863001ACEBUCHE, NILO BORJA OR                                 10501
A0101407690652324673001RAFAEL FELIX F. BORROMEO OR                             10503
A0101407690652525001047NOEMI B. BUNDA - DEALERS OF                             10501
A0101407690652525001081AGUSTINO, ROWENA - DEALERS OF                           10501
A0101410720653528817001VINCENT GONZALO SY OR TIMOTHY                           10503
A1301400340683367953001FELLO, ROSEMARIE RODIL OR                               10502
A0901400220000000012324ACCESSORIES, INC.                                       20500
A0101407690000000154750BARANGAN TRADING                                        20500
A0101407690000000154885ROSE CORONADO                                           20500
A0101407720000000245225SINCERELY MORENA                                        20500
A1101400120000000652362OR UY, JOSEPHINE                                        20500
A0101410720000000968094DBU FIGUERAS TRA                                        20500
A0101408240000001038642CABERO JR., CAMILO                                      20500
A0101405490000001092717GENERAL MERCHAND                                        20500
A0101412890000001765562BERNADETTE                                              20500
A0101407690000001919753GRACIA & ASSOCIATES                                     20500
A2401400180000001935895WORKS                                                   20500
A0101401830141292912001JOSEPHINE M. AMBAS                                      20500
A0101401090171196077001LOURDES LLAMAS                                          20500
A0301400530193663433001COSMENO, ROSENDO                                        20500
A1001400350233272028001MAANDIG, CARLSTO                                        20500
A0101406620273587784001GABRIEL OR TANCHULING, PA                               20500
A0101408370382661460001JAY FIDELI A. FRANCISCO                                 20500
A0101408400394506485001OR EBAJAN, MERCE                                        20500
A2401400180411478374061NORMELITA BLANCO                                        20500
A0501400170481679606001BANGSAL, CARMELITA                                      20500
A1901400160491494343001RELYN M UNTALAN                                         20500
A0101403580511150629008OR GERALDINE LIMOSNERO                                  20500
A2201400250561028596004PARISH                                                  20500
A0101407720602436863001ACEBUCHE, AMELITA                                       20500
A0101407690652324673001BERNADETTE CECIL                                        20500
A0101407690652525001047SHOECAT INC.                                            20500
A0101407690652525001081SHOECAT INC.                                            20500
A0101410720653528817001JON SY OR JULIE                                         20500
A1301400340683367953001FELLO, BISMARK C                                        20500
B1301400210000000023543SAN PABLO LIAM FOODS CORPORATION                         1603
B0101407690000000025032GOLDLINK NETWORK SOLUTIONS INC.                          1601
B0101402480000000028139POWERCORE ELECTRICAL SUPPLIES                            1604
B0101413440000000038162ACCENDO PROPERTIES CORPORATION                           1603
B0301400530000000065945TAGUM SEAFOODS AND GRILL CORPORATION                     1604
B0101407690000000243941JAMS BAKELAND FOODS INC.                                 1610
B0101408660000000373186THREE STEPS AHEAD PRODUCTS, INCORPO                      1602
B3801400170000000955153MEDINA, RENEL DBU REMAR GROCERY                          1601
B0101413860000001767906GLEN CEDAR INSURANCE AGENCY CORP.                        1603
B1301400500000002063827***************                                          1603
B0101400860011394967002**********                                               1605
B0101400860011403904004**********                                               1602
B0101400150061028993001PHILAGROW INCORPORATED                                   1603
B0101400600071787115001**********                                               1602
B0101401960121238699002SO, PONCIANO CHUA                JT                      1601
B0301400530193014206001PANABO MULTI-PURPOSE COOPERATIVE                         1604
B0301400530193038620001RD CASH PADALA, INC. - TAGUM                             1602
B0301400530193041997001TAGUM LONGFORD COLLEGE, INC                              1602
B0301400530193044706199ROYAL CROWNE BEVERAGES                                   1604
B0301400530193044706199ROYAL CROWNE BEVERAGES                                   1604
B0301400660194071888168SABIDO ENTERPRISES INC.                                  1601
B3101400160221025324001LAGUNA MRI CENTER INC.                                   1615
B0101406620273033463001ARL BUSINESS CONSULTANCY, INC.                           1603
B0101406620273733659001ULTRAGAS CARRIERS CORP.                                  1602
B2001400290315528399001**********                                               1601
B0101405650322033184002ASIA PLUS CORPORATION                                    1605
B0101405650322034969001ALPHINELAKE WATER REFILLING STATION                      1601
B0101402480331020380001BOUNTY AGRO VENTURES, INC.                               1630
B0101402480331038757005UNIFRAME ALUMINUM CORPORATION                            1603
B0101402480331044029001********                                                 1602
B0101402480331224100001PREMIUM BEE FOODS CORP.                                  1604
B0101402480331449958001***********                                              1603
B0101402510341031237001VIACAREM RESTAURANTS                                     1602
B0201400760374047828001MTO TECHNOTRENDS INC.                                    1601
B0101408790383047253001NUVOLAND PHILIPPINES, INC.                               1610
B1201400150421035585001HOTEL COSMOPOLITAN                                       1601
B0101407430503022062002PEOPLE'S AIRPORT SERVICES CORP.                          1605
B0101403450521011910001KITCHEN BEAUTY MARKETING                                 1605
B0101404130601024227001AQUATREAT ENVIRONMENTAL SYSTEMS INC                      1603
B0101404130601024227001AQUATREAT ENVIRONMENTAL SYSTEMS INC                      1602
B0101404130601039674001RESPACE INC.                                             1601
B0101407720602531639007INTELLIGENT BEAUTY SKIN SOLUTIONS INC.                   1610
B0101407690652041404001AUBURN POWER TECHNOLOGIES INC.                           1601
B0101407690652045218001MECSEARCH HUMAN RESOURCES                                1601
B0101410720653038296001CREATIVE DESIGNLABS INC.                                 1602
B0101410720653044699001HALREY CONSTRUCTION, INC.                                1602
B1301400210682248659001ASIANLAND STRATEGIES CORPORATION                         1605
B0601400230891028240001SUPER BIKES CENTER BRANCH FUND                           1601
B0201400920000000007974NEW YUTEK HARDWARE  & INDUSTRIAL SUPPLY                 11610
B0501400170000001072957ALEJO, ERVIN MARQUEZ AND ALEJO, NORMAN                  11601
B0301400660194350996088DEQUITO, GLEBA VENTOR / LANANG                          11601
B0101408790383047729001INFINITE GRAFIX & OUTDOOR ADVERTISING                   11601
B0201400920000000007974CORP.                                                   21600
B0501400170000001072957MARQUEZ                                                 21600
B0301400660194350996088CALTEX SERVICENT                                        21600
B0101408790383047729001INC.                                                    21600
B0101410430282821100608**********                                               2002
