A2201400250000000016942AMELIA F. MANALO                                         0501
A2401400180000000019850LORENZO, JOANNA GENOVIVA PALOSO                          0502
A0101401250000000020424BALIAO, JOVITA LINGGON                                   0503
A0101404420000000026053ARGUELLES, DAISY CRUZ                                    0501
A0101400570000000031858VICENTE V. JR OR MELINDA L. SEE                          0502
A5001400170000000044982ANTONIO, JORDANNE CHAN                                   0502
A2001400290000000046284MBT MARKETING                                            0502
A0201401020000000055952DANO, JOSIE DANAS                                        0502
A0101405650000000080117*******                                                  0501
A0101409920000000118625DILE, BEBERLYN MUNEZ                                     0501
A1001400190000000124803FANTONIAL, MERILY H.                                     0501
A0101400310000000140963LAJOM, AIMEE RUTH ABALOS                                 0501
A1301400500000000213389DAVID Y. DAVILA                                          0501
A0101404840000000232857MELANIA M TENDERO                                        0501
A5501400120000000265894SAMILLANO SR, APOLINARIO                                 0501
A0101411370000000350456SALAZAR, ROSARIO FERNANDO                                0501
A1301400470000000366432**************                                           0501
A0601400520000000398330TAYAG, VIVIAN FRASCO                                     0501
A0101404840000000475941RONNIE RABINO                                            0501
A0501400170000000495216DY, JOSELITO MARTINEZ                                    0502
A0101405490000000530921MA MARGARITA ABEGAILA S. KEE                             0502
A0101412050000000697252SERANA, MAY SERDAN                                       0501
A0101409180000000874693ALVARAN, MARITES STA CRUZ                                0501
A0101414120000000875663TADALAN, EVELYN DIAZ                                     0501
A0901400220000000888031**********                                               0501
A0901400220000000888042**********                                               0501
A1301400340000000926870CUERDO, AYA                                              0502
A1301400210000000983815FELICITAS S SUNGA                                        0503
A0301400530000001009983ALFORO, CRISTOPHER S.                                    0502
A0101409210000001024199JOSE, JACQUELOU TIONGSON                                 0501
A0101413570000001069443***********                                              0501
A0501400170000001072713ANG, JUSSLYNN MAISIE ONG                                 0501
A0101410140000001074726PADILLA, ALLAN ABABON                                    0501
A0101405490000001092659GINA S. STA ROSA                                         0501
A3101400450000001104152LAUREL, MARITESS LOPEZ                                   0501
A0201400760000001107599GO, JESS GREGORI DBU GO FIX DIG                          0501
A5501400120000001121782BARRIENTOS, ALPHA JOY FLORES                             0501
A5501400120000001121902ZAMORA, REZA DOLOMADING                                  0501
A5501400120000001121920JAVELLANA, JONEL MASA                                    0502
A3101400160000001169193RODOLFO H PRADO                                          0502
A3001400130000001271501DUBOUZET, ZENAIDA DAGASDAG                               0501
A3001400130000001271614LAODEN0, JORGELYN MAGADA                                 0501
A0101400440000001439954GUOTANA, SHEENA LYN SERDENA                              0501
A2001400290000001557553DE GUZMAN, IVY LAGOS                                     0501
A2001400290000001557564BADON, FRANCIS GLENN LEGASPI                             0501
A0101410720000001602186GAMIL, JOSEFINA ESTREMERA                                0501
A4101400550000001622606CATRE, MELANIE PINGOL                                    0501
A0101414120000001642633JOVENAL, ALMA GONZALES                                   0501
A2401400180000001677056UNTAL JR., AGUSTIN MENDOZA                               0501
A0101413570000001682555JESUS T. SEVILLENA                                       0501
A0101406620000001686495CO CHIEN JR., VICENTE TAN DBU                            0501
A0101406620000001686575LAMO, RYAN REYES                                         0501
A0101400150000001707962PENDRE, ROMMEL ALVAREZ                                   0501
A3101400870000001712185LLAGAS, ROED VALLESTERO                                  0501
A3401400280000001723371DULLA F. FERNANDO                                        0502
A3401400280000001723422DORDAS JR., WILLIAM LONGNO                               0501
A0101404260000001725231MARAAN, ELMER MEDINA                                     0501
A0101414120000001751355TUDIO, AILEEN ROSE ACPAL                                 0502
A0101408820000001880606MARQUEZ, ELVIRA OLIVEROS                                 0501
A0101401700041022765001SWITZ-AIR GENERAL MERCHANDISING                          0501
A0101401700041193436002CORAZON C. LOBENDINO                                     0505
A0101400150061226639003MA. CRISTINA A. TINGSON      JT                          0502
A0101400150061226702002**********                                               0501
A0101400150061229002001REGINA S. ALCANTARA                                      0501
A0101400150061531842002**********                                               0501
A0101400730111382955001PRADO, EDWARDO BAARDE                                    0501
A0101400730111386485036MARCIALYN DANSALAN                                       0502
A0101400730111520766045MYRNA M. BULAN                                           0501
A0101400440161039572069IMELDA A. ESTRADA                                        0501
A0101400440161478374144CELERINA M. MARASIGAN                                    0501
A0101400440161520766153VIRGILIA C. SIEGA                                        0501
A0101400440161525001115EVA D. SAMILLANO                                         0502
A0101400440161525001182MINDA M. MENDIOLA                                        0501
A0101401090171199188001JOSE G. GALURA                                           0501
A0101401090171330509001PABLITO A. BAYBADO JR.                                   0501
A0101400310211722479002MARTICIO, BONIFACIO CUACHIN                              0501
A3101400160221691459001MA. JENNY LYN A. VILLARAZA                               0501
A3101400450223038238001QCP ENTERPRISES                                          0501
A3101400450223222189002ARDINA, FELICIDAD OR EDWIN                               0501
A3001400130230749552001TING, MARIA THERESA GO                                   0505
A1001400190231478374027EUBRA, LIBERTY O.                                        0502
A0101406460272314180001********                                                 0502
A0101406620273093073001LOZANO, VIRGINIA ANDAYA                                  0502
A0101411240283085952001BRINGAS, ANN CATHERINE SOLIS                             0501
A1101400120313478374093GIMARANGAN, JINKY A.                                     0501
A6601400120314737040001DURA, CARLITO OR DURA, RENY                              0504
A2001400290315688009001ALGOPERA, LLOYD GARCIA                                   0504
A0101405650322638495001FERNANDEZ, ROMANA MINDANAO                               0503
A0101408820333372810001PIDO, MARICEL BANARES JT                                 0501
A0101402510341399626001CONSTANTINO, HONEY LIZA FATALLA                          0501
A0101402510341499107001GLORIA P RAYO                                            0501
A0201400760374559596001MISSION, SONNY QUINING                                   0501
A0201400920375478374008OLELA, DONATILLA OMELGO                                  0501
A0101408370382550885001DR MARIA ROSEMARY N SAN MIGUEL                           0501
A0101408950396596036001REYES, KARL MICHAEL GUTIERREZ                            0501
A5501400120410616229001ESCANO, CLAIRE BASAN                                     0502
A5501400120410622095001CORDER, JAIMELITA OR EDWIN                               0505
A5501400120410660853001DARAUG, JOHN MICHAEL DELMORO                             0502
A0901400220432478374001LEONARD GO LOZADA                                        0501
A0101407720602313458002QUIBAEL, ARMI DE LAS ALAS                                0510
A0101404420631386485013LILIBETH BAMBA                                           0501
A0101404420631478374040LINDSAY C. VEGA                                          0501
A0101409920650478374030DELA CALZADA, REGIL OMLANG                               0501
A1301400210682424320001PRISCILLA B. BAESA                                       0501
A1301400340683248790001FRANCIA JR., AMOS PEDRO                                  0502
A2801400100712763092001BELGA, ARIEL SARCILLA                                    0503
A4101400420814478374144JOCELYN TALANA                                           0501
A4101400550815042023002AUTOWELL TRADING                                         0505
A0101404840851520766002CYNTHIA S. GERODIAS                                      0502
A0101404840851520766071TERESITA SANTOS                                          0501
A0101414090000000648493MONTEMAYOR, IRENE BAUTISTA OR                           10501
A0101403320000001646777MEMBERS OF NATASHA                                      10501
A0101400150000001708163TEJANO, WILMER PIGAO OR                                 10501
A0101402510000002016773EDWARD JOSEPH M. CHUA AND                               10501
A0101400150061326957001JAVIER, MA. THERESA OR LOMIBAO                          10501
A0101400150061632464002ANGELES, TERESITO AND LADEZA,                           10502
A0101412210399092912001ABAD, ESTER OR ABAD, MA.CRISTIN                         10501
A0101412890470086848001IGMIDIO ROBLES AND                                      10502
A0101403580511150707001ERNST H. BEHRENS OR                                     10501
A1301400340683613009001GICHELLE R. IPAPO OR                                    10502
A4101400260812478374029MARIA FE E. TEJERERO                                    10501
A0101404840851398016002HERBERT A. CHITO OR ADORACION                           10503
A0101414090000000648493PRATTE, RAYMOND HERAS                                   20500
A0101403320000001646777MYRNA M. CRISOSTOMO                                     20500
A0101400150000001708163TEJANO, CHARITO ALDEZA                                  20500
A0101402510000002016773JUMERA MARIE J. UMALI                                   20500
A0101400150061326957001JR., ERNESTO                                            20500
A0101400150061632464002AMON AND DAGDAYA                                        20500
A0101412210399092912001A OR BARTOLOME, MARIA                                   20500
A0101412890470086848001ANNE JAMACA FIGU                                        20500
A0101403580511150707001BELLA BEHRENS                                           20500
A1301400340683613009001JAYSON S. IPAPO                                         20500
A4101400260812478374029Q                                                       20500
A0101404840851398016002M. CHITO                                                20500
B0101403030000000008831NEW LI BROTHERS TRADING CORP.                            1601
B0301400790000000040928QUINAL, CHARLIE JEROSALEM JT                             1601
B5001400170000000214042**********                                               1603
B0601400520000000398590SKILL-POWER INSTITUTE, INC.                              1602
B0101413730000000469745*********************                                    1601
B0101414120000000649127WILCHAT MARKETING                                        1605
B0101405650000000772652MARY MOUNT SCHOOL                                        1605
B0101407270162046726001VALUE CARE HEALTH SYSTEMS, INC.                          1650
B0101407270162046726001VALUE CARE HEALTH SYSTEMS, INC.                          1625
B0301400530193014206001PANABO MULTI-PURPOSE COOPERATIVE                         1604
B0101400310211031469001SWITCHTEK CONSTRUCTION CORPORATION                       1604
B0101401670271706669001OOOZE INC.                                               1602
B0101406460272047410001CHREY BUILDERS CORP.                                     1601
B0101410980275056888001********                                                 1604
B0101400570281030621001TEREGON, INC.                                            1601
B6601400120314040980003CATUBIG MULTI-PURPOSE COOPERATIVE                        1602
B6601400120314665528001**********                                               1601
B0101405650322018681013LANDCO PACIFIC CORPORATION                               1605
B0101405650322042919001BSU CARGO SYSTEM INC.                                    1601
B0101402510341008565001SAN BEDA COLLEGE                                         1620
B0201400920375034855001SHELLS TREASURES INTERNATIONAL CORP                      1602
B0201400890376036898001GOOD HARVEST FLAVORS AND SPICE CORP.                     1603
B0101405490392029745002MESINA BROTHERS, INCORPORATED                            1601
B0101405490392034314001RAEMANN CORPORATION                                      1602
B2401400180411031945001ABC DISTRIBUTORS INCORPORATED                            1605
B2401400180411031945044ABC DISTRIBUTORS INCORPORATED                            1602
B2401400180411040906001JOLYROB FISHING                                          1605
B0101403030441239090002**********                                               1601
B0101403030441677350001**********                                               1601
B0501400170481018109002****                                                     1602
B1901400160491012917002ALPS THE BUS INC.                                        1610
B0101403580511016358001CAVITEX INFRASTRUCTURE CORP.                             1605
B0101403450521011628001*********                                                1605
B0101404260611537674001KLINI-KAYA MEDICAL SPECIALISTS INC.                      1605
B0101409920650044950001EINSTEIN SCHOOL FOR KIDS, INC.                           1602
B0101411530654046587001VANTAZTIC INCORPORATED                                   1605
B5001400170000000169813LARGO, GERALDINE HASIL AND PONCE,                       11602
B0101400730111195497001REBOLLEDO, GEORGE AND/OR REBOLLEDO,                     11601
B6601400120314043068001NEW ECONOMY HARDWARE AND ELECTRICAL                     11602
B1901400160491341189001VIRGINIA R VARGAS OR                                    11601
B5001400170000000169813RECILMA NISNISAN                                        21600
B0101400730111195497001MARILYN                                                 21600
B6601400120314043068001SUPPLY                                                  21600
B1901400160491341189001RICHARD D LIM                                           21600
