A0101400440000000029445ABRAZADO, APRIL BERNALDO                                 0501
A0101412890000000125391TOTEX PAPER ENTERPRISES                                  0503
A0101412890000000125500EMYRITA R LLERENA                                        0501
A0101406750000000358183OLVIDO, LIZA AUDITOR                                     0501
A0101414120000000398892A.R.P. TRUCKING                                          0502
A0101402350000000443190JEFFERSON M. JUANE                                       0502
A0101402350000000443207JUMBOO MICHAEL A. JUANE                                  0502
A0101406750000000480573ACOSTA, GRACE TAMAYO                                     0501
A0101402350000000521195JHIEDRICK TRADING                                        0501
A0101402930000000859770METT MOTIVATIONAL ENGLISH TRAIN                          0502
A0101403450000000889330BALAGUER, POL PARAS                                      0501
A0101406460000001231601JOSE VIDAL LAVARRO JR.                                   0502
A3001400130000001271363PALUCA, LIZA MORAL                                       0502
A0101413150000001288262******                                                   0501
A0101407270000001597102CRUZ, MARIBELLE DIAZ                                     0501
A0101408400000001614693ELICARL SALON                                            0501
A0101414120000001751333BALDAGO, MELECIO MAESTRE                                 0501
A0101401380000001819872********                                                 0502
A1101400120000001920510LAGADAY, LEAH ALBERCA                                    0501
A0301400950000002252108******                                                   0502
A0101410720000002283974NEW VIC CONSTRUCTION CORP                                0501
A0101410720000002284040SILVERIO, JOSEFINA ONGYALE                               0502
A1001400480000002300418LA VICTORIA, ELAINE BASA                                 0501
A0101402350000002310678MONES, ELMIE LANTACA                                     0502
A0201400920000002804480MIRANDA, SAMMY                                           0501
A0101400150000002902741NG, JOSEPH ABADILLOS                                     0501
A0101410850000003102001SABATIN, EUMIE ROSE GONZALES                             0502
A0101414120000003190849SORIANO, MARIFE PIEDAD                                   0501
A0101400150000003676313TIONGSON, CATHERINE AGUILUCHO                            0501
A0101400150061226702002**********                                               0502
A0101400150061228522001**********                                               0501
A0101400150061547918001TAMAYO, KRIZALDY PEREZ                                   0505
A0101400150061576400001GO, ADRIENNE JOHANNA                                     0501
A0101400150061666194001GERARD H. BRIMO                                          0501
A0101405810072367294001**********                                               0503
A0101405810072377351002VILLAS, MARILOU RAMOS                                    0501
A0101405810072385132001***********                                              0503
A0601400100081478374011MARIA ESPERANZA T. ADAN                                  0502
A0101400440161039572023JIMMY S. PALISOC                                         0501
A0101400440161525001029MARILYN M. PERCIA                                        0502
A0101400440161525001116MARITESS Q. MIRANDA                                      0501
A0101401090171365357001JAMES B. RABAGO                                          0501
A0101401090171390510001CHRISTIAN ESGUERRA                                       0501
A0101401090171391665001PUSTA, GWENETHA YBANEZ                                   0502
A0301400660194079451001DEOCAREZA, ELENA CONSOLACION                             0501
A0101400310211055899001FERNANDEZ, MAURICIA DBU JRM CAR                          0501
A0101400310211166714002AMELIA PAGDANGANAN                                       0502
A0101400310211478374021MARIA S. ORSUA                                           0502
A0101400310211478374065MARIVIC DELA PAZ                                         0502
A0101407140213385506002**********                                               0501
A3101400450223491849001JAO, AUGUSTO RAZEL DOMINO                                0501
A3101400740224056156001FRENZEL TRADING                                          0501
A3001400130230767566049INDO, MARLOWE SOTTO                                      0502
A1001400190231695691001PONGASE, JOCELYN PACTURANAN                              0501
A1001400350233478374020ELMA O. GAWAT                                            0501
A1001400350233478374039HELEN B. FELIZARTA                                       0501
A0101406620273236978001CALLEJA, HOWARD MACEDA                                   0503
A0101400570281188125001LUISITO O. LLIDO, M.D.                                   0501
A0101400570281395985003DR. MARIA VICTORIA PANGILINAN                            0505
A1101400120313478374104EMADIN, LLANA L.                                         0501
A0101402350321478374059BERNARDITA D. LOPEZ                                      0501
A0101402350321542967001ABUNDIENTE, JONATHAN GUMBA                               0503
A0101408820333378700002**********                                               0501
A0101402640361046795001SPEED LIMIT CAR ACCESSORIES                              0504
A0101402640361306118001RETODO, ALEX CORDOVA                                     0501
A0101402640361431220001DARJUAN, MAYA FE NG                                      0502
A0101402930381478374009MARIVIC R. DELA CRUZ                                     0501
A0101402770391338470001EMELITA L. ALARCON                                       0501
A0101408400394028886002DEC ORIENTAL FOOD STREET CO. LT                          0502
A0101408400394327671001MANALO, MARLON SEXON                                     0501
A2401400180411034282001N. CONGSON CONSTRUCTION SUPPLY                           0510
A2401400180411458238001ANIMAS, JULIUS PETER CABATO                              0502
A2401400180411478374069JUBAN, MARIVIC BABA                                      0501
A2401400180411567472001CRUZ, GEORGE FONTANILLA                                  0502
A2401400180411587639001GILBERO, EVELYN BUT-AY                                   0502
A0101403320471478374051MYRA ATANGAN                                             0501
A0101406330472696737001RECHIE LOPEZ RAZON                                       0503
A0501400170481039591001MACA DEO REGALIA REALTY                                  0501
A1901400160491635678001MARIVIC ATIENZA CANTES                                   0501
A1401400110492455411001BELEN, ROSEMARIE SABATER                                 0504
A0101405940512556233001BITAS JR., ROBERT RODRIGUEZ                              0502
A0101404000551303308001***                                                      0503
A0101407720602196321001**********                                               0501
A0101407720602271723099CELINA D. CIFRA                                          0501
A0101407720602464099001GOMEZ, MARIE RHIAMAR SAULER                              0501
A0101404680651303311003BONILLA, MELINDA SANTOS                                  0501
A0101404680651360347001MORANO, LUCILA RAMOS                                     0501
A0101404680651520766141BENJAMIN BENICO                                          0501
A0101404680651521675001MARY ANN L. SUSANO                                       0508
A0101404680651548492001LUZVIMINDA L. VILLALOBOS                                 0501
A0101407560686173804001FR. EDGARDO C. DE JESUS                                  0502
A0101407560686581186001*********                                                0501
A2801400230713243636001PARAISO, JOCELYN A.                                      0501
A4101400390813478374035PLACIDES, MICHAEL                                        0502
A4101400420814478374154CABRERA, FELIZA                                          0501
A4101400420814520766130CALAUNAN, ANA LIZA O.                                    0501
A4101400550815047619001HIMOC, RUBY ESTOR                                        0501
A0101406750852478374115CRISENCIA S BATACANDULO                                  0502
A0101406750852519277001ANG, MARICEL FELIPE                                      0501
A0101405070861201336001MIRIAM CECILIA M. QUEVENCO                               0501
A2601400270000000561506LUCKY PHAN BUILDERS AND                                 10505
A0101411110000000604835GROSS, KARLA VILLARICA OR                               10501
A3401400280000000784618UYGEN JR., FRANCISCO MOSQUETE                           10502
A0901400220000000887954ALANANO, NATHANIEL P. OR                                10501
A0301400530000001010051CUBILLO, DOMINGO D. OR                                  10503
A0101405070000001124350DESCALZO, MARIA KHARIN H. OR                            10501
A0101406460000001231554WEE, AUDREY ANN SY OR                                   10504
A2801400230000001734761FERMIDA CONSTRUCTION SERVICES                           10501
A0601400520000003187233SANTOS, JOSEPH NEREUS PINEDA                            10502
A0601400100081025360002AMOR REFRIGERATION & AIR                                10501
A0101401960121362714001VILMA GUANLAO OR                                        10510
A0101401830141206536001PEDRO S. FLORES OR                                      10505
A0301400530193551646168ROTERSOS, LETICIA D. OR                                 10503
A0101401380201094398001CAJUMBAN, MILAGROS M.                                   10501
A0101400310211388725001TOMANIOG, MYLA OR TOMANIOG,                             10502
A3101400450223352819001FARAON, RIZALINA OR                                     10502
A0101406460272677065001YAPJUANGCO, DIVINA GRACIA T. OR                         10504
A0101406620273418262001NELLY CLETO OR ALFREDO MARIANO                          10501
A0101402350321038584002HEALTHY 8 WATER REFILLING                               10501
A0101402350321176404002GINA A. MATIAS OR                                       10501
A0101402350321179570001NEAL ORTEZA OR                                          10501
A0101402060351687812001SOLER, MA. ASUNCION RAMIREZ                             10501
A0201400760374038501001RENS MARINE SERVICES BY                                 10501
A0101402770391214496001FRANCISCO KUAN WONG OR                                  10505
A1201400150421543715001CAMADO, JUSCILLE P. OR                                  10503
A0101410690600085096001YEE, SONNY L. OR YEE, KARRIE                            10503
A0101409920650478374005CRISOSTOMO, MA. EMELIA GASPAN                           10501
A0101404680651169005001FERDINAND M. FERNANDO OR                                10503
A1301400500684589879001YULO III, ANTONIO P. OR                                 10505
A0101408240711400412005MIRCHANDANI, MICHAEL OR SHERYL                          10501
A2601400270000000561506CONSTRUCTION SUPPLY                                     20500
A0101411110000000604835VILLARICA, PILAR ASUNCION                               20500
A3401400280000000784618OR UYGEN, ANN RELANO                                    20500
A0901400220000000887954ALANANO, MADELYN                                        20500
A0301400530000001010051CUBILLO, CARMELI                                        20500
A0101405070000001124350DESCALZO, LUZVIM                                        20500
A0101406460000001231554WEE JR., CESAR L                                        20500
A2801400230000001734761AND SUPPLIES                                            20500
A0601400520000003187233OR GUECO, SELYN S.                                      20500
A0601400100081025360002CONDITION REPAIR                                        20500
A0101401960121362714001VALERIANO GUANLAO                                       20500
A0101401830141206536001IRMA G. FLORES                                          20500
A0301400530193551646168ROTERSOS, MANUEL                                        20500
A0101401380201094398001OR MAGAWAY, JENNIFER A.                                 20500
A0101400310211388725001LEONORO JR.                                             20500
A3101400450223352819001BELEN, RHODORA                                          20500
A0101406460272677065001YAPJUANGCO, SAMU                                        20500
A0101406620273418262001OR NAIDA MARIANO                                        20500
A0101402350321038584002STATION                                                 20500
A0101402350321176404002DANILO M. MATIAS                                        20500
A0101402350321179570001IMELDA OLIVAREZ                                         20500
A0101402060351687812001ARELLANO                                                20500
A0201400760374038501001PRIMO P. PAULIN                                         20500
A0101402770391214496001JOYAL KUAN WONG                                         20500
A1201400150421543715001CAMADO, MILLER                                          20500
A0101410690600085096001ANNE CANDACE M.                                         20500
A0101409920650478374005MEMBERS OF NATASHA                                      20500
A0101404680651169005001ANA MARIE E. FER                                        20500
A1301400500684589879001YULO , ANGELINA                                         20500
A0101408240711400412005OR SHAM OR LALA                                         20500
B0101407560000000003527LEY, VICTORIANO TING             JT                      1603
B0101407560000000003538****************                                         1602
B1301400340000000011883METAMORPHOSIS SCHOOL INC.                                1605
B0101410720000000030031CONGRESIONAL RESIDENCES DEVELOPMENT                      1602
B0201401020000000042344AIR YOU GO TRAVELS EXPERIENCE CO.                        1601
B0101402350000000046017SAN DIONISIO CREDIT COOPERATIVE                          1605
B0101406750000000090902MANUELA CORPORATION                                      1605
B0101404680000000095721METRO MANILA COLLEGE, INC.                               1603
B1401400110000000167468PETER PAUL PHILIPPINE CORPORATION                        1605
B0101409050000000258531HENDERSON BLAKE BUSINESS SOLUTIONS,                      1602
B0101407560000000477914SUING, H DBU H. SUING CONSTRUCTION                       1602
B0101411950000000490948KHO TRAVEL AND TOURS CO.                                 1601
B0101413020000001175428ALL HEALTHY HEALTH VENTURES, INC.                        1602
B0101407430000001213089ASSOCIATED FREIGHT CONSOLIDATORS, INC.                   1602
B3001400130000001271523BERRYL DRUG CORP.                                        1601
B0101412180000001293038WESTMONT INDUSTRIAL SALES INC.                           1602
B0101413600000002822682TAKLOBO BAYBAYIN INC.                                    1601
B0101401250021016688001ST. MARY'S ACADEMY-PASAY CITY, INC.                      1604
B0101405810072412798001**********                                               1603
B0101410560110045564001S.M. LAZO MEDICAL CLINIC, INC.                           1610
B0101401960121043211001MANILA HI-Q FOOTWEAR SUPPLY CO                           1601
B0101407270162019655001BATTERYWORLD INCORPORATED                                1605
B0101401380201034247001HOBBIES OF ASIA INC.                                     1604
B0101400310211023039001MULTIPLAST CORP.                                         1604
B3101400160221010177001SUNSTAR LAND RESOURCES MANAGEMENT                        1610
B0101406460272223738001CATHAY METAL CORPORATION                                 1605
B0101406620273029189001RG OFFSHORE FINANCIAL SERVICES LTD.                      1601
B0101402350321010590001MAG-IRIBA MULTI-PURPOSE COOPERATIVE                      1601
B0101402350321035671001YES PURE WATER                                           1601
B0101402350321037880001UNITRADERS ALUMINUM & GLASS CORP.                        1604
B0101402350321367886001LITE SIGNS & DESIGNS INC.                                1605
B0101402480331032783001***************                                          1610
B0101402480331040325001**********                                               1603
B0101402770391046279001LEGACY RENOVE INC.                                       1610
B01014063304720209890011 TO 1 MARKETING INC.                                    1605
B01014063304720209890011 TO 1 MARKETING INC.                                    1605
B0101404260611005306001THE HOUSE OF RACOR ADS., INC.                            1603
B1301400340683022873001MERFEL PLASTIC PRODUCTS                                  1602
B0101407560686040555001*************                                            1603
B0101401830000000033592CARITAS SALVE CREDIT COOPERATIVE                        11603
B0101401830000000033605CARITAS SALVE CREDIT COOPERATIVE                        11603
B0101414120000000399071KONSTRUTEK BUILDERS AND TECHNICAL                       11601
B0101401090000000772145KIDNEY AND UROLOGIC DISEASES FOUNDATION,                11602
B0101402350321500384001ONG, JOSEPHINE T. AND HERRERA,                          11602
B0101407430503047489001MANILA INTERNATIONAL FREIGHT                            11601
B0101410720653030880001NAPOCOR VILLAGE HOMEOWNERS ASSOCIATION                  11601
B0101401830000000033592(TAYUMAN)                                               21600
B0101401830000000033605QUIAPO                                                  21600
B0101414120000000399071SERVICES INC.                                           21600
B0101401090000000772145INC.                                                    21600
B0101402350321500384001VICTORIA                                                21600
B0101407430503047489001FORWARDERS, INC.                                        21600
B0101410720653030880001INC.                                                    21600
B0101400440161821100608**********                                               2003
