A6601400120000000060380ADRIATICO, ROMEO VILLASIN                                0502
A0101409920000000118590CARDENAS, CAROL SALUNA                                   0501
A1301400500000000212995LUDETTE FATIMA T. CASTRO                                 0502
A0301400820000000316561SHERWIN C. SATUROS                                       0501
A0101407140000000446097************                                             0501
A1901400320000000679249RODERICK UMALI MAGBOO                                    0502
A0101400150000000808151ALZONA, REXAL DOMINGO                                    0501
A0101410720000000967882LAZER SILKSCREEN PRINTING                                0501
A0101400860000001348614**********                                               0501
A0601400520000001349548VALENCIA, HOMER GALANG                                   0501
A0601400520000001349639CORTEZ III, CARLOS RIVERA                                0501
A0301400950000001379108**********                                               0505
A0101403320000001647036LORENZO RENAN E. TORRES                                  0504
A0101405650000001911940BARBERS, RAINIER LOUISE PENA                             0501
A5501400120000002018888INOCENCIO, STEVEN DELOS REYES                            0503
A0301400820000002106263ONG, ALBERT ANG                                          0501
A3401400280000002323440ONG, MARY DAPHNIE DIOSO                                  0501
A4101400420000002345273LEONICIA S. HERRERA                                      0501
A0101412920000002359015DAIT, FERDINAND BERIDO                                   0502
A0201400920000002804504BARENG, NATHALYN C.                                      0502
A1101400120000003022413DUCENTES, GLORIA TROCINO                                 0501
A0101400150000003164918ELAINE GRACE B. LIMOANCO                                 0502
A1101400120000003196996ANZALE, RAFELINA PARINA                                  0501
A0101400860011376010001**********                                               0505
A0101401250021185179001CABRERA, ZENAIDA SANTOS                                  0501
A0101400600071335835002*******                                                  0510
A0601400100081467712001JESUSA VARGAS DYCHIOCO                                   0502
A0101400440161272899001*****                                                    0502
A0101400440161478374018MA. DELIA P. FERMANTE                                    0501
A0101400440161478374183NORY S. OLIVERON                                         0501
A0301400530193047254189TAGUM TRIO LUMBER CORP.                                  0510
A1001400190231511493001GALAGNARA, JUVY DAIS                                     0501
A1001400350233478374006IBANEZ, ELSA                                             0501
A0801400160311478374102MA. CECILIA A. AVANCENA                                  0501
A0801400160311494221001JUCABAN, LEO LAGOS                                       0501
A6601400120314415183002UY, CHRISTIAN EMMANUEL WAN                               0501
A2401400180411344858001CHUA, MAGDALENA SALAZAR                                  0501
A0101403320471032831001R.C. TAGALA CONSTRUCTION                                 0510
A0501400170481055667001COQUIA JR., RODRIGO CARDOZO DBU                          0501
A0501400170481253455001NORMELITO QUIMO OR IRENE QUIMO                           0501
A1401400110492649286001IBARROLA, GIL MANCENIDO                                  0501
A0101408530516615903016**********                                               0501
A0101410720653470975001BELTRAN, ROBERT LUI                                      0502
A0101410720653575025001CRISTINA G. CUEVAS                                       0503
A4101400420814520766034LEONIDA M. OBELIDOR                                      0501
A4101400420814520766056MULIG, ESTER R.                                          0501
A4101400420814534123001MAGALLANES, ELADIO PACIA                                 0501
A0101410720000000234860AROMIN JR., BENJAMIN DOMO OR                            10502
A1101400120000000652602LIM, JOHNNY C. OR                                       10503
A2601400270000001009170ELIZABETH G. PUA OR                                     10505
A5501400120000001121800LADARAN JR., JOSE BINOLA                                10501
A0101412890000001765404ACUNA, SALVADOR A OR ACUNA,                             10506
A1301400470252507986001MARY JANE C. MARTE OR                                   10501
A0101408660274044348001EXL PARAGON CORPORATE SEMINARS                          10501
A0201400890376535273001TOLEDO,HAROLD XAVIER OR CLIMACO                         10501
A2201400250561478374069MARILYN G. TAGASA                                       10501
A2201400250561484428001WILSON LAO SIO OR                                       10502
A0101410720653362919003DE GUZMAN, CYNTHIA C.                                   10501
A0101410720653385187001SERVILLANO H. GALVEZ JR. OR                             10503
A4101400420814342049001MENDOZA, DIVINA LORY ANN E. OR                          10505
A0101410720000000234860AROMIN, MARISSA                                         20500
A1101400120000000652602LIM, RICHARD Y.                                         20500
A2601400270000001009170EDDIE C. PUA                                            20500
A5501400120000001121800OR LADARAN, LANI                                        20500
A0101412890000001765404ALONA C                                                 20500
A1301400470252507986001ANGELITO B. MARTE                                       20500
A0101408660274044348001TRAINING                                                20500
A0201400890376535273001BRYAN OR GUEVARR                                        20500
A2201400250561478374069MEMBERS OF NATASHA                                      20500
A2201400250561484428001EDUARD LAO SIO                                          20500
A0101410720653362919003OR DE GUZMAN, RO                                        20500
A0101410720653385187001KAREN F. GALVEZ                                         20500
A4101400420814342049001MENDOZA, GILBERT                                        20500
B0101401250000000057167**********                                               1601
B0101400600000001335773BACKJE PHILIPPINES INC.                                  1605
B0301400950000002115651ZILVERBAND, INC.                                         1601
B0301400950000002115662G.A. MERCADO LENDING INVESTOR, INC.                      1610
B0101400600071234158001**********                                               1605
B0601400100081022863001SKYLINE AEROTEL, INC.                                    1602
B0301400530193038459168PIONEER BEE CORPORATION 1                                1605
B3101400160221010057002C AND H ENTERPRISES                                      1602
B3101400160221224862001JOYME CONSTRUCTION SUPPLIES, INC.                        1602
B3101400450223365119003VICTOR HUGO ENERGY CORPORATION                           1601
B3401400280318045071001ASIA PACIFIC AQUA MARINE, INC.                           1606
B5501400120410042035001CYCLERS BYKE HUB                                         1601
B0101403320471020319001LORD OF THE NATIONS, INC.                                1605
B0501400170481038907001JODERON AUTO SUPPLY                                      1605
B0101403580511515198001ATMA INTERNATIONAL CORPORATION                           1601
B0101410720653022858002FOODKING CUISINE & SERVICES INC                          1602
B0101410720653035012001GENERIC SAVES DRUGSTORE                                  1604
B1301400340683353482001MARLENE R. JOSE OR JOSE MARI R. JOSE                     1602
B0101407560686173709001**********                                               1601
B4101400420814023931001CHRIST'S COMMISSION FOUNDATION, INC                      1610
B5501400120410778388188YAP, ALBINO & CHEN, CHIN & ANG, JOHN &                  11603
B0101403580511029847002BAGONG BARRIO HYPERMART & PROPERTIES                    11601
B0101404420631702579001ROSITA B. SAMONTE OR                                    11601
B5501400120410778388188YAP, LORENZO                                            21600
B0101403580511029847002CORPORATION                                             21600
B0101404420631702579001RENATO J. TAYAM                                         21600
B0601400520084821100608**********                                               2002
B3101400450223821100608**********                                               2001
B1101400120313821100608**********                                               2005
