F0101400570281409843001SEVERINA DE LARA CO                                      2503CKO
F0101406880513436872001ELICANO, FRANCISCO CEBRERO                               2501CKO
F4101400260812039607006JOSEPH M. ROSEL                                          2502CKO
F0101411820000000477481MORPH ANIMATION, INC.                                    2602CK1
F1201400150421028871001**********                                               2603CKO
F0101406880513026861001BONIFACIO WEST DEVELOPMENT CORPORATION                   2604CKO
F0101408110515053128002UNDERGROUND LOGIC INC.                                   2601CK1
F0101401670271667403002PRIVE PROPERTIES DEVELOPMENT                            12602CKR
F0101406620273023895002RG-FINANCIAL SERVICES LIMITED                           12602CKR
F0101401670271667403002INC.                                                    22600CKR
F0101406620273023895002(PHILIPPINES) IN                                        22600CKR
