F0601400490000000011092BALMATER, THOMAS CHRISTOPHER T.                          2501CKO
F0101401830141558285001*******                                                  2502CKO
F0201400180181444704001ROBLE, JOSE EMERY FULACHE                                2505CKO
F0201400180181444704001ROBLE, JOSE EMERY FULACHE                                2505CKO
F0201400180181444704001ROBLE, JOSE EMERY FULACHE                                2505CKO
F0201400180181444704001ROBLE, JOSE EMERY FULACHE                                2505CKO
F0101407720602430823001CRISTINA ALEXANDRA B. HENARES                            2502CKO
F0101408240711078794001ALCANTARA, LELANIE VERONICA                             12505CKO
F0101408240711078794001FACTOR JT                                               22500CKO
F0101401670271029054002HEALTHWEALTH INTERNATIONAL CORP.                         2610CKO
F0101404260611027114001ABS PROMOTIONS CORPORATION                               2610CKR
