F0101403320471319307003ERNESTO T. GALAMGAM                                      2501CKO
F4101400260812039607007LACSON, SHARON MARISSE                                   2502CKO
F0101400570000001681778ORTIZ, SHEILA DBU CAFE IANA                             12505CKO
F3101400320222355866001ELPIDIO A. SARMIENTO OR                                 12504CKO
F0101401670271356341001FRANCIS C. YU OR                                        12520CKO
F0101400570000001681778(NATIONAL)                                              22500CKO
F3101400320222355866001EUGENIA S. SARMI                                        22500CKO
F0101401670271356341001FRANCIS GLENN YU                                        22500CKO
F0101400570281042886001PRIMEX COCO PRODUCTS, INC.                               2603CKR
F0101403320471046476001ZHOEBLESS CORP.                                          2601CKR
F3101400740000000013903INDORAMA VENTURES PACKAGING                             12601CKR
F3101400740000000013903(PHILIPPINES) CO                                        22600CKR
