A1001400190000000016424DE GUZMAN, MARIA ELENA CARPIO                            0501
A0101410560000000020195LELIANE D. TORRES                                        0503
A1301400210000000023321MAGNOLIA P BERNARDINO                                    0503
A0101404420000000026086*****                                                    0502
A0101402640000000042435CABUHAT, DIVINIA REYES                                   0501
A5001400170000000044960VILLAFUERTE, CELESTINO AMPLAYO                           0503
A0101413020000000056944CALUCAG, MARILOU GALAURAN                                0502
A0101411950000000089861ESPECTACION, TERESITA GERVACIO                           0501
A0101411790000000134125********                                                 0501
A0301400660000000194552LU, MICHAEL YAP                                          0503
A0101412920000000276391**********                                               0501
A0101405650000000448431GELLA, WILLIAM BURRY FERNANDEZ                           0501
A1201400150000000473181TRINIDAD, ERWIN NINO QUEJADA                             0501
A0101407690000000495410GOLDEN JING TRADING                                      0502
A0101406750000000500234ADANO, GEMMA MUNDA                                       0501
A0101406750000000500245CAGUIA, MARITES DOLINDO                                  0501
A0101405940000000505764SALCEDO, RICHARD REODIQUE                                0501
A0101404000000000574607VILLEGAS, RONALD CRUZ                                    0501
A0101407690000000587851GARRY M. DUMAS                                           0501
A0101408820000000713233GRENGIA, MARY GRACE DIMASACA                             0501
A0101412500000000740010ROSARIO, VILMA CRISOSTOMO                                0501
A0101410850000000778781EBUSEO, NELSON CAPUYAN                                   0501
A0101400150000000807341NIVERBA, FELIPE RANIN                                    0501
A0101400150000000807476TAN, PATRICK ANG                                         0501
A0101400150000000807818OBLEPIAS, MILA BACANTO                                   0501
A0101400150000000807921TAN, ZENAIDA LERIOS                                      0502
A0101404420000000866491****                                                     0501
A0101409180000000874620SARMIENTO, KRISTINE MADRIGAL                             0502
A0101412050000000890853ANTONIO, MARIA CHRISTINA SUAN                            0501
A0101403580000000922656JOSEPH ABEGAIL ARNAIZ TORRES                             0501
A0101408400000000960430DITUCALAN, JAMILA FAISAL                                 0501
A4101400550000000981864CODILLA JR., ROSALIO LUGA                                0501
A0101408950000001039412DRILON, CECILIA VICTORIA ORENA                           0502
A0101402640000001054313ESTAY, DOLORES SINGUA                                    0502
A0101413150000001067130******                                                   0502
A0101413150000001067152******                                                   0501
A0301400660000001113751*****                                                    0501
A0301400660000001113795VILLADAREZ, RICHARD RANIS                                0501
A0101412210000001236173MENDOZA, RHODESSA CASTRO                                 0502
A0101401830000001281910DE GUZMAN, CONCEPCION FRANCISCO                          0501
A2001400290000001301186PERAL, CLAUDINE ANNE BAUTISTA                            0501
A0101412920000001313819ARELLANO, FLORENCE ACIDERA                               0501
A0201400920000001331771RVFIVE BUILDERS                                          0502
A1901400290000001362987VIVIAN BARCARSE ENDOZO                                   0502
A0101406750000001491794TOLENTINO, ROSALINA SABATER                              0501
A0101402640000001536498RAMIREZ, JUSTINO SANCHEZ                                 0501
A0101402640000001536501SUMANG, SHERYL ANN MARIANO                               0501
A0101402640000001536512MISAL, EDUARDO BALALA                                    0501
A0101402640000001536523UGABAN, JERNALYN GABRENTINA                              0501
A2401400180000001676888GRIJALDO, JULIET BAYRON                                  0501
A0601400230000001687330LAYCO, RODANTE AGUILAR                                   0501
A0601400230000001687341LAYCO, RALPH ENGELBERT CANAPI                            0501
A0101400150061229860001VELASQUEZ, JUAN G.                                       0505
A0101400150061292057001*******                                                  0503
A0101400150061337010175JOSEFINA GOOCO                                           0502
A0101400150061453761130********                                                 0501
A0601400360083591473001CANDA, EDLYN DIMACALI                                    0502
A0301400660194606143002ANGCOS, ROEL ONGCOY                                      0502
A0101407140213478374008GATA, VICKY VILLASENOR                                   0501
A1901400290261049185001LUNETA PIEZAS VILLARIN                                   0501
A1901400290261051565001OLIVIA BAYLON HIPOLITO                                   0501
A0101406460272375154001ONG, OLIVIA CANDICE YAP                                  0502
A0101400570281628531001BILLARDO H. DEL ROSARIO, M.D.                            0505
A1101400120313478374103ENVERZO, NARISSA LEONORA G.                              0501
A0101408820333046692001MENDOZA, ROEL JALOTJOT DBU GENM                          0501
A0101408820333478374062SANDRA G. BUENO                                          0501
A0101408820333639402001********                                                 0502
A0101402640361169551001**********                                               0502
A0201400920375036567003VIRLO CONSTRUCTION                                       0510
A0201400890376084820001RIVERA, RYAN CHUA                                        0505
A0201400890376084820001*****************                                        0505
A0101408370382392325001DR. JOSEPHINE B. RAMOS                                   0504
A0101408370382473958001DR. MARIANNA S. SIOSON                                   0501
A0101402770391043391001IMPRENTA ISABEL                                          0502
A0101408950396571165001DURAN, CECILE TRISHA BADELLES                            0506
A5501400120410073914008*******                                                  0501
A3801400170490088864001JOSEPHINE I FAUNILLO                                     0501
A1401400110492228930001ABUEDO, ESTELA S.                                        0503
A0101407430503557193001ENRICO P. ERIDIO                                         0501
A0101406880513197649001HARPER, ANNA MARIA LAMMOGLIA                             0501
A0101408530516571877097JESUS R. LICUANAN                                        0501
A0101403450521679548001**********                                               0502
A0101404000551780323001SELORIO JR., JACINTO CATARIG                             0501
A2201400250561028327002******                                                   0502
A0101404420631160279001*****                                                    0502
A0101407690652096071001BERNABE, YOLANDA JAVERINA                                0502
A0101407690652424848001DEMETRIO C. BAUTISTA JR.                                 0502
A0101407690652576372001SANTOS, RAMON DALANON                                    0501
A0101407690652599539002GIGANTOCA, IMELDA ANINAO                                 0501
A0101407690652776768001MANANGAT, LETECIA MORALES                                0501
A0101410720653037434001INTELIASIA CREDIT INVESTIGATION                          0502
A0101410720653037434001INTELIASIA CREDIT INVESTIGATION                          0502
A0101410720653046318001GOOD HEAVEN CATERING SERVICES                            0504
A0101410720653286682002MACAISA, MICHELLE ABADA                                  0503
A0101410720653286682002MACAISA, MICHELLE ABADA                                  0503
A0101410720653452116001VIRGILIO R. BACQUEL JR.                                  0501
A0101410720653461660001NOCHE, MARIA CORAZON ALARCON                             0501
A0101406590662385016002QUIAMBAO, RACHAB ANONAS                                  0501
A4101400260812245444001EVELINA P. SAPIDA                                        0501
A4101400260812478374052DAISY COSTILLAS                                          0501
A0101404840851478374121MARISSA L. ESPARAGOSA                                    0502
A0101404840851478374179SALVADOR R. MANUEL                                       0505
A0101404840851520766188JULIET R. BERNANTE                                       0501
A0101403580000000016053MARIA CARMINA S. MESIAS OR                              10508
A1001400350000000017865PATRICIO, RITZMO DBU RITZ CAR                           10503
A1301400760000000050706WILLIE ONG DBU FUEL ZONE                                10505
A0101413020000000056999SOMBILLO, A DBU THE K-CAMP                              10501
A0101407690000000154750BARANGAN, ROMEO DBU                                     10503
A0301400660000000194712DENMARK TRUCKING AND GENERAL SE                         10503
A0101402770000000361011JUCUTAN, DIONISIO CABLAS or                             10501
A0101405940000000506012DE JESUS, SUSANA LEONARDO OR                            10501
A0101404260000000550127SALAZAR, CARL P DBU ACN OFFICE                          10503
A0101400150000000807141PALABRICA, EDWIN OR                                     10501
A0101414090000001669634ACOL, MIGUEL D OR ACOL, MARTIN                          10501
A0101401700041417687001VILLAREAL, LITA JEAN C. OR                              10505
A0101400150061038536123CATANGHAL, WILFREDO OR                                  10501
A0101407270162479362001ERYMAR D.C. REYES OR                                    10501
A0101401090171432366001MICHAEL RONALD OR                                       10501
A0301400660194741763001TIRADO, MARY MISAL OR TIRADO, R                         10502
A1001400350233528399003KO, JOSE NELSON AND                                     10501
A1901400290261007151001OBLATES OF SAINT JOSEPH                                 10512
A1901400290261244348001ROLANDO M REYES OR                                      10502
A1901400290261244456001LEO YAP ONG OR                                          10505
A0101408660274087524001PUA, SOO SIANG OR                                       10502
A0101402640361536638002DR. ROLANDO A. IBUTNANDI OR                             10503
A0201400890376667775001BUYSER, MISAN CANAS OR BUYSER,                          10501
A5501400120410636179118CHIU, VALENTIN AND JULIA EILEEN                         10502
A2401400180411605033001SERRANO, DANIEL EMBAYARTE OR                            10502
A1201400150421039385001JL'S CLEAN UP JANITORIAL &                              10502
A1201400150421397888001GO, BRIAN SY OR                                         10501
A2201400250561256285001JESUS C. CHUA                                           10501
A0101407720602296819002MA. LOURDES G. GOZALI OR                                10502
A0101404420631161315001WONG KWOK HO OR                                         10502
A0101404420631437955001JORY FRANCISCO OR                                       10501
A0101407690652478374034EDNA D. PENALVER - DEALERS OF                           10501
A0101407690652478374128LOIDA M. MAYOLA - DEALERS OF                            10501
A0101407690652525001060SUSANA MORENO - DEALERS OF                              10501
A0101407690652525001072BETITA, ROSELYN  - DEALERS OF                           10501
A0101407690652563634001RUEL L. LECAROS  OR                                     10502
A1301400340683248074001CONCEPCION, EDUARDO LARDIZABAL                          10505
A0101403580000000016053MARIA CRISTINA S. RIVERA                                20500
A1001400350000000017865SALES                                                   20500
A1301400760000000050706GASOLINE STATION                                        20500
A0101413020000000056999TUTORIAL & REVIE                                        20500
A0101407690000000154750BARANGAN TRADING                                        20500
A0301400660000000194712RVICES                                                  20500
A0101402770000000361011JUCUTAN, VIENNA PELECIA                                 20500
A0101405940000000506012DE JESUS JR., ABDON C.                                  20500
A0101404260000000550127MART                                                    20500
A0101400150000000807141PALABRICA, ROSALINDA                                    20500
A0101414090000001669634OR ACOL, MARIA CARMELA D.                               20500
A0101401700041417687001VILLAREAL, CLAUD                                        20500
A0101400150061038536123CATANGHAL, MA. CHRISTINA                                20500
A0101407270162479362001AUBREY S. REYES                                         20500
A0101401090171432366001SHARIE MADARANG                                         20500
A0301400660194741763001UEL TAPUROC                                             20500
A1001400350233528399003KO, CHARMAINE                                           20500
A1901400290261007151001(PHILIPPINE PROVINCE)                                   20500
A1901400290261244348001DRA ERLINDA V REYES                                     20500
A1901400290261244456001MEI MEI YULO ONG                                        20500
A0101408660274087524001PUA, GUAN TING                                          20500
A0101402640361536638002DRA. BELLA L. IB                                        20500
A0201400890376667775001IAN CHRISTOPHER                                         20500
A5501400120410636179118AND CHRISTIAN VALEEN                                    20500
A2401400180411605033001SERRANO, SYLVIA                                         20500
A1201400150421039385001MANPOWER SERVICE                                        20500
A1201400150421397888001GO, CYNDY SY                                            20500
A2201400250561256285001OR JOSEFINA G. CHUA                                     20500
A0101407720602296819002VICTOR K. GOZALI                                        20500
A0101404420631161315001CARMENCITA WONG                                         20500
A0101404420631437955001EVELYN FRANCISCO                                        20500
A0101407690652478374034SHOECAT, INC.                                           20500
A0101407690652478374128SHOECAT INC.                                            20500
A0101407690652525001060SHOECAT INC.                                            20500
A0101407690652525001072SHOECAT INC.                                            20500
A0101407690652563634001JOVITA M. LECAROS                                       20500
A1301400340683248074001CONCEPCION, NANC                                        20500
B0101411790000000005318REM BUILDERS CORPORATION                                 1602
B0101410980000000012380PERSONNEL DEPOT MANPOWER RESOURCES INC.                  1601
B0301400820000000024940TRUMPH MOTORCYCLE CORPORATION                            1605
B0101410720000000029850NORDHOFF ENTERPRISES INCORPORATED                        1601
B0101412500000000041692MOLDEX PRODUCTS, INC                                     1601
B0601400100000000142225FUTURE GENERATION HOUSING HOLDING INC.                   1601
B0101406460000000182443FLATPANEL TVS FOR LESS INC.                              1601
B0101407690000000243850CREATIVE DISHES & RECIPES INC.                           1602
B0601400520000000398545BHELLE-SOLAR PHILIPPINES CORPORATION                     1601
B0101402770000000440008AGRM GENERAL CONSTRUCTION TRADING                        1601
B0101400150000000633287STRONGOAK INC.                                           1602
B0101408530000001275218*******************                                      1601
B0101407560000001276153UNITED WHEELERS SERVICE COOPERATIVE                      1603
B0101401700041021540001TITAN-MILDE MOTORS INC.                                  1601
B0101401700041042006001BESTCRAFT INDUSTRIES                                     1601
B0101400150061009769001KEYLAND CORPORATION                                      1605
B0101400150061028993001PHILAGROW INCORPORATED                                   1603
B0101400150061047074001TRAININGPHYSICIANS IN ER INCORPORATED                    1602
B0101400150061226498001CYCLOPHIL EDUCATIONAL PROMOTION                          1602
B0101400150061228498001SECURITY LAND CORPORATION                                1605
B0601400100081013322001LACTO B INCORPORATED                                     1604
B0101401960121238876001**********                                               1602
B0101407270162040127001SEVEN-SEGMENT BUSINESS SOLUTIONS INC.                    1603
B0301400660194014140088*****                                                    1603
B0101407140213014664001SALON MULTI PURPOSE COOPERATIVE                          1610
B1901400290261033214001RD CASH PADALA, INC.                                     1603
B0101406460272007487001FOODMACH, INC.                                           1603
B0101402640361006195001JORDAN REALTY INC.                                       1602
B0101402640361022940001ACRO FARM CORPORATION                                    1602
B0101402640361036763001FOLE GANDROS FOOD SVCS., INC.                            1605
B0101402770391025883001DA LEONARDO INDUSTRIAL INC.                              1601
B0101402770391752292001JUANITA OR TOMAS OR BENJAMIN VICTORIA                    1601
B5501400120410042322003TRUMPH MOTORCYCLE CORPORATION                            1601
B0101403030441314128003**********                                               1601
B0501400170481013098001MOTORPLAZA INCORPORATED                                  1601
B1401400110492046339002****                                                     1615
B0101403580511005143001INTERPACIFIC TRANSIT, INC.                               1610
B0101405940512018663001MIX MASTERS INC.                                         1609
B0101406880513037148001MULTI PLUS KONSTRUCT                                     1601
B0101403450521012075001**********                                               1605
B0101407690652026544001DRCB BUILDERS                                            1602
B0101407690652035567001NEW COMLOGIK BUSINESS SYSTEMS, INC                       1610
B0101407690652042381001AUGUSTO S. DE JESUS FARM & LIVESTOCK                     1602
B0101410720653022858002FOODKING CUISINE & SERVICES INC                          1602
B0101410720653031938001YIGGM CORPORATION                                        1605
B0601400230891046232001ST. THERESA DIALYSIS CENTER, INC.                        1620
B0301400660000000048246DAVAO MULTI MARITIME & MARKETING CORPORA                11603
B0301400950000000566912SOUTHGATE MANAGEMENT AND CONSULTANCY                    11601
B0601400100081253610002NG, WILFREDO M. AND AQUINO, JANET B. AND                11601
B3101400160221047376001JFA ELECTRICAL CONSTRUCTION AND GENERAL                 11602
B1901400290261047995001SPOUSE OF THE BLESSED VIRGIN                            11601
B6601400120314042361001AGRICULTURAL DEVELOPMENT WORKERS & EMPLO                11603
B1401400110492046339001SOUTHERN QUEZON PACIFIC OIL MILL                        11605
B0301400660000000048246TON                                                     21600
B0301400950000000566912GROUP, INC.                                             21600
B0601400100081253610002BUAN, ROLAND S.                                         21600
B3101400160221047376001SERVICES INC.                                           21600
B1901400290261047995001HOSPITAL INC.                                           21600
B6601400120314042361001YEES MULTI-PURPO                                        21600
B1401400110492046339001CORPORATION                                             21600
