A1301400500000000011274*************                                            0502
A0101405490000000019645RIZA A. TARGA                                            0501
A0101411660000000032117EDESSA R. MENDOZA                                        0501
A1201400150000000034460JOSE, GEMMALYN TANGALIN                                  0501
A1301400760000000050499PAOLO'S TRUCKING                                         0505
A0101410720000000211907DE JESUS, FRANCISCO DALUZ                                0501
A4101400550000000315142JMBR TRADING                                             0501
A1601400170000000421138ALITA ANNE H. GOINGO                                     0501
A0101406330000000451216MARIBEL P. ZAFE                                          0501
A0601400230000000498619NEPOMUCENO, NOLI SICAT                                   0501
A0101405940000000505775ROXAS, LINCOLN CHAN                                      0502
A0101408790000000579773ASIDDAO, HEHERSON MIRANDA                                0503
A0101407720000000713051SANTIAGO, CYMBELINE PEREZ                                0501
A0101408820000000800177*******                                                  0502
A0101405070000000868599DE JESUS, DESIREE DELA CRUZ                              0501
A0101412890000001056360AMIDO, NORMA GUEVARA                                     0502
A0301400820000001185724ALMA H. IPANAG                                           0501
A0101400600000001335626********                                                 0502
A1301400500000001412413MANOLITO C. ASILO                                        0502
A0101407270000001596967LORNA D. GARCIA                                          0501
A0101406750000002040168CENA, IMELDA NIMFA BAYBAY                                0501
A1101400120000002254877POTICANO, BERNARDO IGANA                                 0501
A1101400120000002254991REPOSO, LOURDES CAJEFE                                   0502
A0101411950000002266133SHIRLEY T. ASENJO                                        0502
A0101405940000002268733HERNANDEZ, ERLYN PAPA                                    0502
A0101410720000002283930LADIA, APRIL IRIS RUPIDO                                 0502
A0101411240000002332503*****                                                    0502
A0101408110000002364781MILITAR, MA. VICTORIA GARCIA                             0501
A0101410300000002375777******                                                   0501
A0101412340000003422795JERICHO M. PALMA                                         0501
A0101412340000003422802ANGELICO A. SALGADO                                      0501
A0101412340000003422813REYMER Y. VILLANUEVA                                     0501
A3101400870000003505553DUMAYAS, MARICEL AMIT                                    0501
A3101400870000003519679YU, REMEDIOS LOPEZ                                       0501
A0101407430000003522530BENILDA C. SALAMANCA                                     0501
A0101407430000003522541FERDINAND V. BUENO                                       0501
A0101407430000003522552LUCILA C. JAVINA                                         0501
A0101407430000003522563MERCILITA H. SERATO                                      0501
A0101407430000003522574ARVIN D. DELIMA                                          0501
A0101407430000003522585ISMAIL A. MALICLUM                                       0501
A0101402510000003533060QUE, ALFREDO CHING                                       0502
A0101400860011399605001**********                                               0502
A0101400860011482361001**********                                               0503
A0101400860011503590001**********                                               0503
A0601400100081507583001CANLAPAN, MARICAR TAPNIO                                 0501
A0101400730111301951008EVALE, BENIGNA D.                                        0502
A0101400440161039572043CERENO, GLECY GUTIERREZ                                  0503
A0101407270162421293007YOLANDA L. DE ALBA                                       0501
A0101407270162508001002FREDDIE H. CASTOR                                        0503
A0101407270162511958001DELOS REYES, NADINE ANNE CZIARA                          0501
A0101401380201374236002PENA, JULIETA MILLARE                                    0502
A0101400310211738119001QUEZANA, EXCELYN MANGUERRA                               0501
A3101400160221506317001RACHELLE B. ALVIAR                                       0502
A3101400450223223483001GALVEZ, RODOLFO OR ANGELINA                              0520
A3101400870225511016002GONZALES, FE REMEDIOS FIGUERAS                           0501
A0101401670271603732001GREGORIO, REYNALDO CRUZ                                  0501
A0101400570281385805001MARIA ELENA T. LAGNITON                                  0501
A0101400570281388539029MATILDE C. ASUNCION                                      0501
A0101400570281505620001LEI-JOAN V. MOLO                                         0501
A2601400270302591563001ROSITA R. CHE                                            0502
A6601400120314041602001LEXTAN GENERAL MERCHANDISE                               0502
A6601400120314612856001FRANZUELA, SARAH S.                                      0505
A2001400290315089708111SAPOTALO, RHEA MAE FACTURAN                              0501
A0101402480331017952001****                                                     0501
A0101408820333340756002ABLAZA, ALEJANDRO CRUZ                                   0501
A0101408820333476527002PAELMA, ROSALIE BIGCAS                                   0502
A0101408370382473958001DR. MARIANNA S. SIOSON                                   0501
A0101402770391211961001ANTONIO V. PRADO                                         0501
A0101405490392178021001MARIDEL R. MENDOZA                                       0501
A0101405490392178021001MARIDEL R. MENDOZA                                       0501
A0101405490392478374022ELEONOR C. BASAS                                         0502
A0101405490392510652001ENCARNACION M. GOLDING                                   0501
A0101408400394459747001VELASCO, GUIA SOL BERNAL                                 0503
A0101408400394539659001**********                                               0502
A1201400150421200676001MAULBECKER, HEINRICH                                     0501
A0101403030441239106001**********                                               0501
A0101403030441673721001**********                                               0503
A0101410140475401189001AGUIRRE, CECILIA DILAO                                   0501
A0501400170481318580004ANA CRISTINA L SINLAO                                    0505
A1901400160491343996001MARIA DOROTHY M HERNANDEZ                                0502
A1901400160491346311001NIDA M LACSAMANA                                         0502
A1401400110492228930001ABUEDO, ESTELA S.                                        0503
A0101407430503185437002GILBERT TY                                               0504
A0101403450521366584001**********                                               0501
A0101403450521478374007********                                                 0501
A0101403450521582387001**********                                               0501
A0101404130601354508001LOLITA M. HODREAL                                        0505
A0101407720602397128001RUBEN V. ORTEGA, MD                                      0510
A0101407720602581738001DUCUSIN, MA. ANTONINA SUGUITAN                           0501
A01014107206530270550013 J METAL INDUSTRIES                                     0503
A0101410720653172730002DE GUZMAN, ANGELINA GONZALES                             0502
A0101410720653175534001ARAMIS OR CARMENCITA AGUILAR                             0510
A0101410720653363505001TOMAS, AGNES CHUNG BALOTA                                0501
A0101410720653458986001ALVAREZ, ERLINDA TORNO                                   0501
A0101410720653579026001PROLOGO, JORDAN CAMINO                                   0502
A1301400340683478374039ABAOAG, CELIA SALVADOR                                   0502
A1301400340683708672001CANO, ERLINDA PEREZ                                      0501
A2801400100712744757001MORALES, FELISA JOY CLEMENTE                             0501
A0101405070861202025001ROSALES, DOLORES G.                                      0502
A0101405070861478374054LUZVIMINDA T. PONTANAR                                   0501
A1001400480000000041454SIMON, GEORGIE ABECIA AND                               10501
A5001400170000000045047ONG, LESTER UY OR                                       10503
A0101410720000000053238RONALDO C. MANUEL OR                                    10501
A0101406750000000173033TORRES, NOEL DBU FRANZBUILT                             10501
A0101408790000000579802QUIMQUE, MA PAULINE IRIS D. OR                          10501
A1101400120000000652584LARIDO, HERMENIO C. OR                                  10501
A0101411660000000751126ARNALDO F CAVITE JR. OR ARLENE                          10501
A4101400260000001198610RAPISTA, JOHNNY A. OR                                   10505
A1401400110000001549293HAO, LILIBETH MANLUGON OR HAO,                          10501
A0601400520000001707051LIMON, REMEDIOS Y. OR                                   10501
A1101400120000001920543CRUZ, JERELYN J. DBU AEJIN'S                            10501
A0601400520000002085883MA, JENNIFER TECSON DBU                                 10502
A0101413280000002648337MITCHELL ZARAH HORTALEZA OR                             10501
A0101401250021184677001WENCESLAO B. TRINIDAD OR                                10505
A0101410850109055934001ANDAL, MARK GREGORY JT DBU                              10501
A0101407270162539457001MARIA LACSINA A. DIAZ OR                                10501
A1301400760253087654001CATHERINE F SANVICENTE OR                               10505
A0101406620273489850001RODOLFO P. DE GUZMAN JR. OR                             10502
A0101402930381208046001GILBERT C. YANG OR                                      10502
A0101408370382206455003DR. RUBEN G. KASALA OR                                  10502
A0101402770391212327003MA. TERESA C. MAGTIBAY &/OR                             10501
A1201400150421521254001VILLANUEVA, DOLORES A. OR                               10501
A0101403580511570521001ELEONOR B. BAYANI OR                                    10502
A0101408110515427749001HILARIO TAMONDONG JR. OR                                10502
A0101407720602697692001SANTOS, GENEVERE SERNA OR                               10501
A1301400340683361153001LICAROS JR, ALEJANDRO LAGPAO OR                         10502
A1001400480000000041454SIMON, JOEL CAGA                                        20500
A5001400170000000045047ONG, HAIDEE GO                                          20500
A0101410720000000053238IRENE A. MANUEL                                         20500
A0101406750000000173033CONSTRUCTION                                            20500
A0101408790000000579802QUIMQUE, MA PRECILLA IVY                                20500
A1101400120000000652584LARIDO, HARVIET                                         20500
A0101411660000000751126F CAVITE                                                20500
A4101400260000001198610RAPISTA, PROCENT                                        20500
A1401400110000001549293KATHERINE GAYLE                                         20500
A0601400520000001707051POLICARPIO, JUDY SUE L.                                 20500
A1101400120000001920543COMPUTER SHOP                                           20500
A0601400520000002085883D'AFFAIR FURNITURE                                      20500
A0101413280000002648337MARY ROSE HORTALEZA                                     20500
A0101401250021184677001NELFA D. TRINIDAD                                       20500
A0101410850109055934001RUMKOR TRUCKING SERVICES                                20500
A0101407270162539457001JOHN PAOLO N. CA                                        20500
A1301400760253087654001VINCENT PAUL P SANVICENTE                               20500
A0101406620273489850001ROSARIO K. DE GUZMAN                                    20500
A0101402930381208046001CATHERINE Y. YANG                                       20500
A0101408370382206455003DR. MA. CARMELA KASALA                                  20500
A0101402770391212327003JERSON C. MAGTIB                                        20500
A1201400150421521254001VILLANUEVA, BEN                                         20500
A0101403580511570521001JOVITO BAYANI                                           20500
A0101408110515427749001TRISHA MARIE TAMONDONG                                  20500
A0101407720602697692001SANTOS, DANILO S                                        20500
A1301400340683361153001LICAROS, ELSA RE                                        20500
B0101410850000000000646MG8 TERMINAL INC.                                        1605
B0101400730000000002591ALPHA INSURANCE & SURETY CO., INC.                       1601
B0201400920000000007963THE PERSIMMON CONDOMINIUM CORPORATION                    1603
B0101412630000000023838LC STAR UNICA HIJA SALON INC.                            1603
B0101402640000000032737HUMABON DISTRIBUTORS INC.                                1601
B0101413860000000145344SUPREME COURT EMPLOYEES MULTI-PURPO                      1630
B0101408660000000373120STRATHMORE MANAGEMENT INC.                               1602
B0101411950000000490880********                                                 1601
B0101402480000000794383UNICON MANUFACTURING CO. INC.                            1602
B0201400760000001612880DELTA FIVE AGRI-VENTURES CORPORATION                     1605
B0101400150061018245001PERLA COMPANIA DE SEGUROS, INC.                          1601
B0101400600071282495001********                                                 1603
B0101400600071325133001**********                                               1602
B0101405810072040421001SK-T COMPANY                                             1602
B0101401830141036385001P.I. HARDWARE & MILL SUPPLY, INC.                        1601
B0101401830141259521001JIMMY N. YANG (SONLY PRINTING PRESS)                     1601
B0101407270162033826001UNI-FILES SAVER CORPORATION                              1610
B0101401090171040961001BATULAO PROPERTY HOLDINGS, INC.                          1601
B0101407140213038373001ALL STATE INT'L TRADING INC.                             1603
B1001400190231010692002PHILIPPINE IRON CONSTRUCTION & MARI                      1602
B0101401670271657140001NIC'S GOURMET DESSERTS, INC.                             1610
B0101406620273036155001CENTRA EVOLUTION MANAGEMENT, INC.                        1601
B0101402480331015893001PEOTRACO INDUSTRIES INC.                                 1610
B0101402480331055075001RMC BOLTS CENTER                                         1602
B0101402480331291873003*********                                                1601
B0201400920375743969001*********                                                1602
B0101402930381041518001PANPISCO TECHNOLOGIES, INC.                              1603
B0101405490392039459001MEGANESS PHARMA MARKETING                                1601
B0101408400394028560001NEW LIFE CHRISTIAN CENTER (THE FORT) INC                 1602
B0101406330472046636001ENERTECH SYSTEMS INDUSTRIES, INC.                        1610
B0101403580511005607002RAM FOOD PRODUCTS, INC.                                  1603
B0101403580511015363072MEC - EMD ANGONO                                         1601
B0101408110515035109001UNIVERSAL LMS FINANCE AND LEASING CORP.                  1601
B0101408530516036530001TEAM GLOBAL FACILITY SOLUTIONS INC.                      1603
B0101403450521012077001**********                                               1601
B0101404000551024348001APPLESEED MONTESSORI INCORPORATED                        1601
B0101410300663760652001PRIMABY ENTERPRISE CORPORATION                           1602
B1301400210682248659001ASIANLAND STRATEGIES CORPORATION                         1605
B0101405070861008182001MANILA CIGARS INCORPORATED                               1604
B0101405070861008408001CLINICOMED                                               1605
B5001400170000000169880WEE, VERNA L. AND PONCE, RECILMA N. AND                 11602
B0101400150061011079001QUASHA ANCHETA PENA & NOLASCO                           11602
B0601400100081348978002M. PANLILIO OR A. PANLILIO OR J. PARAS                  11603
B0101401090171007908001PERPETUAL SUCCOR HOSPITAL &                             11605
B1001400190231010692001PHILIPPINE IRON CONSTRUCTION & MARINE                   11605
B0101400570281015729002ST. LUKE'S MEDICAL CENTER EMPLOYEES                     11603
B0101402510341022935002CHATEAU ROYALE SPORTS & COUNTRY                         11620
B0101409890649033780001WATCH TOWER BIBLE AND TRACT SOCIETY OF                  11610
B5001400170000000169880RAMOS, CATHERINE                                        21600
B0101400150061011079001LAW OFFICE                                              21600
B0601400100081348978002OR E. TIMBOL                                            21600
B0101401090171007908001MATERNITY, INC.                                         21600
B1001400190231010692001WORKS INC.                                              21600
B0101400570281015729002ASSOCIATION                                             21600
B0101402510341022935002CLUB                                                    21600
B0101409890649033780001THE PHILS. INC                                          21600
B0101408790383821100608**********                                               2005
