A0101402510000000003101CAI, ALLISON                                             0503
A2201400250000000016942AMELIA F. MANALO                                         0501
A0101409050000000022420JERGEN B. MACUJA                                         0502
A0101402640000000042377EXCERPT ENTERPRISES                                      0503
A0101401250000000057065VILLAS, ROGELIA L.                                       0501
A0101400440000000060197DE JESUS, CRISTITA MEDINA                                0501
A0101402510000000200131PENAFIEL, CHRISTOPHER EMPLEO                             0501
A0101402640000000201947VILLANUEVA, DINA SHARA BALUTAN                           0501
A0101402640000000202068**********                                               0501
A0101413600000000206697********                                                 0503
A0601400360000000225301DE MESA, ANGELITA RAMOS                                  0501
A0101402770000000360901JIMMY MACARAEG VILLANUEVA                                0501
A1301400470000000366585PANGAN, JEMMA REYES                                      0501
A0101414120000000398943JLA RICE MILL                                            0501
A0301400790000000435983COLINA, MAE MANILYN CLENUAR                              0501
A0101405490000000444422REYNALDO B. TULAGAN                                      0501
A0501400170000000495261YAMBAO, GREGORIO QUIAMBAO                                0501
A0101406590000000568747ENDRIGA SR., VICTOR BERMEJO                              0501
A0101408950000000776592GENOVIA, MA. VICTORIA LIM                                0501
A2401400180000000826244DETOYATO, SUSANA SENAS                                   0501
A0101400730000000833421MA. JENNIFER R. MAGAT                                    0502
A0101400730000000834548DICHOSA, ELMER BAYOT                                     0501
A0101414120000000875623JZLB OFFICE SUPPLIES                                     0501
A1301400340000000926858SABATER, VICTOR JOSEPH SALIG                             0501
A0101404680000000940921TISOY, MARCOSA RAGANIT                                   0501
A0101404840000000943351DEL ROSARIO, JONATHAN CORONEL                            0501
A3801400170000000955113ROSA M FERNANDEZ                                         0501
A3101400870000000957791LEE, JOHN LESTER ONG                                     0502
A3101400870000000957804MASIBA JR., LEONARDO JUBAL                               0501
A0101413990000000969213MAHINAY, NORMA CONEL                                     0501
A0101402640000001054302MACALIPAY, ARLENE RADAN                                  0501
A1001400480000001054711VILIRAN, PRINCESS SYBIL BADAJOS                          0502
A0101412890000001056193MONARCA, EXALTACION BORDA                                0503
A0101413310000001073574VILLEGAS, LORNA LOTERENA                                 0501
A0101413310000001073585CHEN, CHARLENE JIM                                       0501
A1401400110000001096128POROL, EMMANUEL ALVAREZ                                  0501
A0101414120000001142818CAS PROPERTIES INC.                                      0502
A0101402640000001150105MESINA-MAMAUAG, LEILANI DE VERA                          0501
A4101400260000001198734ANGUE, ANSELMO PAITON                                    0503
A0101413860000001233670DE LEON, EVANGELINE PASIOLES                             0502
A4101400550000001332530VANDECASSERIE, CHERRY LYN BARRE                          0501
A4101400550000001332610DEL MUNDO, JONALYN DE LEON                               0501
A0101400150061228390001MELISSA O. NG                                            0501
A0601400100081251805006MUNOZ, ANTONIO OR MA. JESUSA                             0502
A0601400100081255379001MUNOZ, JENNIFER LAURIE E.                                0501
A0601400100081255379002MUNOZ, JENNIFER LAURIE E.                                0501
A0601400100081621919001DAVID, CRISANDA MERCADO                                  0501
A0101400730111301951008EVALE, BENIGNA D.                                        0501
A0101400440161039572029LORNA A. CERRO                                           0501
A0101400440161525001033MARY JANE V. MACALINAO                                   0501
A0101401090171039151001ECOWASTE MANAGEMENT COMPANY                              0502
A0101401090171195399001EFLEDA M. SACDALAN                                       0502
A0101401090171197481002MA. NOEMI OR ELIEZER SALAZAR                             0502
A0101401090171336393001REBECCA R. ABRILLA                                       0501
A0101400310211051584001CHEMRAM BROS COMPANY INC.                                0501
A3101400740224620447001COQUILLA, FELIMONA SAMUYA                                0501
A1001400190231478374116ESTRELLITA E. BERMUDEZ                                   0502
A1001400190231520766079JANDAYAN, SATURNINA                                      0501
A1901400290261574550001RUSTY BOBADILLA PEREZ                                    0501
A0101400570281468358001DORIS MARIEBEL C. CAMAGAY, M.D.                          0502
A6601400120314071890001MARTIRES, MYLA TURLA                                     0502
A0101405650322047677001THE J. BIJE'S WINDOW SHOP                                0504
A0101405650322755728001BARBERS, ROBERT NINO PENA                                0501
A0101405650322765940001LONGNO, RUDY LUBRICO                                     0501
A0101402640361468206001HEFTI, MARIVIC ONG                                       0510
A0101402640361478374042FABIA, MERCELITA                                         0501
A0101402640361563062001FRANCISCO, CATHERINE ANN CASAL                           0501
A0101402770391013439001JIREH'S CAR PAINT SHOP                                   0502
A2401400180411344858001CHUA, MAGDALENA SALAZAR                                  0501
A0101403030441594340001**********                                               0501
A0101403320471478374079FILEMON R. SANTOS                                        0503
A0101403580511322954003VIRATA, LEONIDES J M CUUNJIENG                           0502
A0101403580511326292001ORDONEZ, HELENE OBIAS                                    0501
A0101406880513456319001DIMANALATA, MIGUEL DAGANTA                               0501
A0101404000551639791001BAE, SANG WOOK                                           0501
A1301400210682246447001LEA DELA CRUZ MANAYSAY                                   0505
A1301400210682435699001NARCISO G. SAN PEDRO                                     0501
A0101408240711382222002EVELYN C. SALVADOR JT                                    0505
A4101400260812497551001EDERLAST R. DE GUZMAN                                    0501
A4101400420814478374009FELOMINA PERICO                                          0502
A4101400420814478374026FLORENCIA DELA CALZADA                                   0501
A4101400420814478374122AGUILO, RODENA T.                                        0501
A4101400420814520766088LOS BANEZ, DIONEROSE O.                                  0501
A0101404840851783990001BARAWID, CORAZON ROMANA                                  0502
A0301400790000000435863QUIAO JR., R DBU REJAM                                  10501
A3001400130000000931453SHAPE & WELL NUTRITIONAL                                10501
A0101401090000000993302FLORIAN R. NUEVO OR                                     10502
A0101412890000001056217MEDINA, REYNALDO BONIFACIO OR                           10501
A0101405490000001092557RUBY C. KIKUCHI OR                                      10502
A0101414120000001142852TERESITA M. PUYAT OR MARY ANN                           10505
A0101408400000001231116BOO, DENNIS DBU KAYZER                                  10502
A0101408530000001268399ASUNCION A. BALDOVINO OR                                10501
A0101400730111046434115CHRISTIAN G. BIONGAN OR                                 10501
A0101401090171608247001MARYANN O. ALEMANIA OR                                  10502
A1901400290261040973001ICT-ED INSTITUTE OF SCIENCE                             10502
A1901400290261051556001OUR LADY OF LORETO MEDICAL                              10501
A0101401670271745163001ONG, CHRISTOPHER ALLAN L. OR                            10501
A0101402510341554527001GO, LONG CHEN OR                                        10501
A0101409050352494647001LOIDA M. HONORAS OR                                     10503
A0101409050352527383001RICARDO R. HONORAS OR                                   10503
A0101408370382489193001DR. MICHAEL EDMOND S. DAZO                              10501
A0101402770391595237001LUZ B. FERRER OR                                        10501
A0101408950396047389001MELROSHEAN CONSTRUCTION                                 10502
A0101403320471212175001CABALDE, EDNA SIMON OR                                  10501
A0101403580511396376001RAFAEL A. MACALINAO OR                                  10502
A0101406590662453695001KATIGBAK, ANDREA OR ANA MARIA                           10502
A0101406590662470961001VALMOCINA, ESTRELLA C. OR                               10505
A1301400340683424357002LAO, ALMA RUBY OR                                       10503
A1301400340683613009001GICHELLE R. IPAPO OR                                    10502
A4101400420814304997002ABAD, EVELINA OR ALVIN VINCENT                          10502
A4101400420814635620001CORPUZ, ELMER AGSALDA  OR                               10501
A0301400790000000435863CONSTRUCTION SUPPLIES                                   20500
A3001400130000000931453PRODUCTS                                                20500
A0101401090000000993302MA. CRISELDA R. NUEVO                                   20500
A0101412890000001056217MEDINA, ELENITA                                         20500
A0101405490000001092557RUBEN G. CHUA                                           20500
A0101414120000001142852MAGNO                                                   20500
A0101408400000001231116CONSTRUCTION                                            20500
A0101408530000001268399MARY ANN PAMELA BALDOVINO                               20500
A0101400730111046434115AVEGAIL R. BIONGAN                                      20500
A0101401090171608247001JOHN ALDRIN P. EBIO                                     20500
A1901400290261040973001AND TECHNOLOGY, INC.                                    20500
A1901400290261051556001CLINIC                                                  20500
A0101401670271745163001ONG, ANNA LISA C                                        20500
A0101402510341554527001GO, CECILE ONG                                          20500
A0101409050352494647001KRISTINA HONORAS                                        20500
A0101409050352527383001LOIDA HONORAS                                           20500
A0101408370382489193001OR ARLENE S. DAZO                                       20500
A0101402770391595237001MARIO G. FERRER                                         20500
A0101408950396047389001CORPORATION                                             20500
A0101403320471212175001ERNESTO CABALDE                                         20500
A0101403580511396376001GLICELLE S. MACALINAO                                   20500
A0101406590662453695001OR COLAYCO, MAYA                                        20500
A0101406590662470961001GUTIERREZ, MARY ANNE                                    20500
A1301400340683424357002LAO, JOSELITO                                           20500
A1301400340683613009001JAYSON S. IPAPO                                         20500
A4101400420814304997002OR CHRISTINE MARIE                                      20500
A4101400420814635620001CORPUZ, AMELITA                                         20500
B0101400730000000002580DALCA CORPORATION                                        1602
B2801400230000000008380J&D OLONGAPO PHILS. CO.                                  1601
B0101401250000000020720CLEVELAND DIESEL PARTS AND SERVICES                      1601
B0101409920000000022022WDL ENTERPRISE                                           1610
B0101402640000000032624RELYABLE INSURANCE AGENCY INC.                           1602
B02014007600000000333545A FEEDMILL CORPORATION                                  1602
B2401400180000000073743HONDA CARS GENERAL SANTOS, INC.                          1601
B2401400180000000073750OCEAN DELI PACKING CORP.                                 1610
B3101400870000000074899BALITE, G DBU BTG BUILDERS & SUPPLIES                    1602
B0101405940000000886682SEWELLS GROUP PHILIPPINES, INC.                          1601
B1301400340000000926905JS DIAZ BUILDERS                                         1602
B0101405490000001092444L.A. TEKH SYSTEMS CORPORATION                            1601
B0101400150061025214001MAA CONSULTANTS, INC.                                    1601
B0101400150061033461001WOODCHILD HOLDINGS, INC                                  1601
B0601400360083787720001PISHON CLARK PHILIPPINES INC.                            1602
B0101400440161007542001PACE REALTY INVESTMENT INCORPORATE                       1601
B1001400190231022229001CITY ALLIANCE CHURCH                                     1601
B1301400760253044451002CONSUMERREACH, INC.                                      1610
B6601400120314040502003RCBC-OUR LADY OF THE ANNUNCIATION PARISH                 1601
B0101402640361720070001MEDCARE SPECIALTY CLINIC, INC.                           1601
B5501400120410042374001NEW MARBEL MULTI-PURPOSE COOPERATIVE                     1602
B5501400120410683469001RDJ AGRIFARMS INC.                                       1605
B0101412890470047248001MONTALBAN MILLEX AGGREGATES CORPORATION                  1602
B1401400110492041160001SAN DIEGO BUILDERS                                       1601
B0101403580511005607002RAM FOOD PRODUCTS, INC.                                  1603
B0101403580511015363078MEC (DOJ)                                                1602
B0101403580511038113001MACEDA VALENCIA & CO.                                    1605
B0101403450521012056001**********                                               1602
B0101408240711043934001MISOLA TRUCKING & HAULING SERVICES                       1601
B4101400260812026622001GREENWOODS HOMEOWNERS ASSOCIATION INC.                   1604
B0101410560000000757200MERCADO AMBULATORY AND SURGICAL                         11602
B0101405650322025100001GLOBAL PACKAGING SYSTEMS AND MATERIALS                  11601
B0101402770391038856001SUBURBAN HEIGHTS HOMEOWNERS ASSOCIATION,                11601
B0501400170481256716002ROBERT CONRAD MATIAS OR ARACELI MATIAS                  11601
B0101411530654046834001ALPHA HILLS DEVELOPMENT AND                             11605
B0101410560000000757200CENTERS, INC.                                           21600
B0101405650322025100001CORP.                                                   21600
B0101402770391038856001INC.                                                    21600
B0501400170481256716002OR MARGARITA MAT                                        21600
B0101411530654046834001MANAGEMENT INC.                                         21600
