A0101408660000000059841SANOY, MEDINA PLAZA                                      0501
A0101401380000000106583*********                                                0502
A4101400420000000120696CARMELA G. ROMA                                          0501
A0301400660000000194803CASTRO III, RODOLFO TOREVILLAS                           0503
A0101412050000000323646SCHUCK, MARIA DEODITA MARGARITA                          0501
A0101411950000000490824BIADO, JINNY CAGAMPANG                                   0501
A0501400170000000495261YAMBAO, GREGORIO QUIAMBAO                                0501
A0101407430000000521071LORENZO, TERESITA VIROCEL                                0501
A0101408240000000521833SSB CONSTRUCTION                                         0502
A0101404260000000532056REGINA C ALTO                                            0501
A0101408530000000594138BIBARES, ANDREA JANE BALLESTERO                          0501
A0101408790000000599891DE GUZMAN, MA GUIA SALINAS                               0501
A0101410690000000710661********                                                 0502
A0101412760000000767784YU, J DBU PRIME CUTS SOURCE GEN                          0503
A0101400150000000806677EMELITA PURISIMA                                         0501
A0101410560000000848711LAMBERTO, MARICEL OCILLADA                               0501
A0101403450000000889432CO, AN LING CHUA                                         0501
A0101401250000000907164ALVEZ, ANAFLOR GAMOLO                                    0501
A1301400210000000915793DOMINGO, LUCRECIO BENABESE                               0501
A3001400130000000931413GERONA, SUSAN GENITA                                     0505
A0101400860000001005343**********                                               0503
A0101400860000001005514**************                                           0501
A0301400790000001010620SIMON, DIOSEE GENTILES                                   0501
A0101412340000001017503ORDONEZ, MAMERTA ALVAREZ                                 0501
A0101410980000001154392SHANNAH MARIE S. ONG                                     0501
A0701400260000001232039BERANA, RIZA CALLADA                                     0501
A3001400130000001271363PALUCA, LIZA MORAL                                       0501
A3001400130000001271590TUSN HOME GALLERY                                        0502
A0101412760000001399595CIELO II, BERNARDO CANJA                                 0501
A0101401380000001412708FERRER SR., ALEXANDER CRUZ                               0501
A0101400440000001439921DUENAS, BERNADETH CASIPONG                               0501
A0101400440000001439932CRUZ, SHIRLEY SARI                                       0501
A0101408790000001486262SICAM, MICHELLE ANGELA TORRALBA                          0501
A0101408790000001486273SAGARIO, LEO ANGELO IMPERIAL                             0501
A0101408790000001486284RONDILLOS, JENNELYN CASTILLON                            0501
A1101400120000001547382MATIENZO, CHRISTIAN NAPUTO                               0501
A0101402480000001561951MANALO, ROMANO TUGAB                                     0501
A0101401090000001611370SPARKLE CORPORATION                                      0501
A0101404130000001614513TIONGSON, WILMA LOURDES CUEVAS                           0501
A4101400550000001622560CRUZ, LORNA SANGELES                                     0502
A4101400260000001673452VELUZ, RONALD VILLANUEVA                                 0502
A0101404260000001725213CRUZ, CAROL ANN VINLUAN                                  0501
A4101400390000001732543PINLAC, JENNIFER BALLA                                   0501
A0101404130000001831705LABACO, JOSEPHINE VILLAESTER                             0501
A0101408400000001835241ANGELES, MA CECILIA PAICAN                               0501
A0101400860011298552007MA. TERESA N. MERCADER                                   0503
A0101400860011435365001**********                                               0505
A0101400860011482361001**********                                               0503
A0101400860011495810001**********                                               0501
A0101400860011511921001**********                                               0502
A0101400860011773707001**********                                               0502
A0101400150061564610134LAO, ERIENE CHU                                          0501
A0101400600071233721001**********                                               0502
A0101400600071523473001*******                                                  0501
A0101400440161478374181GERALDINE N. CUTLER                                      0501
A0101400440161525001161GINA E. LAO                                              0501
A0101401090171199528001ATTY. NICOLAS B. MEDENILLA                               0503
A0101401380201045843001LUXE TRADING                                             0502
A0101401380201171279001TSAI, ROBERT                                             0501
A0101401380201631934001JUNG, HEESUN                                             0501
A3101400450223418716001GARCIA, JESUSA CORAZON PLAZA                             0501
A1001400190231520766119CABANO, BERNADITH CATIWALAAN                             0502
A1001400350233478374001JUNIO, ROGELIA A.                                        0501
A1001400350233478374006IBANEZ, ELSA                                             0501
A0801400160311478374056CECILIA B. ASTROLOGO                                     0502
A0801400160311478374079MANUEL F. RAGANAS JR.                                    0501
A1101400120313038055001ACCESS OFFICE SYSTEMS                                    0505
A0101402480331020937001**********                                               0503
A0101402480331093748001RURAL, MYRNA DIAZ                                        0505
A0101402480331218888001*******                                                  0502
A0101402480331454280002****                                                     0502
A0101402480331457746002****                                                     0501
A0101402480331478374050MASAGCA, JENNIFER                                        0501
A0101402480331478374066SAUL, ANDREA                                             0501
A0101402480331478374172**********                                               0502
A0101408820333047703001CAMATO, MA TERESA DBU ALGENDA                            0501
A0101408820333779734001******                                                   0501
A0101409050352636137001CLEOFE M. GERONIMO                                       0501
A0101408370382318824001NODADO, IRENE PANGANIBAN                                 0501
A0101408370382490482001DR. KRISINDA C. DIM-JAMORA                               0503
A0101408370382504235001CARBONEL, SAMUEL ABRIGO                                  0502
A0101408370382507231001DR. HELEN GRACE I. ORJALO                                0501
A0101405490392478374008MARGARITA R. CIELO                                       0501
A0101405490392478374012MARIVIC R. ALIPORO                                       0502
A0101408400394478374064MORANDARTE, ANGELITA B.                                  0501
A0101408400394478374089ELNAR, LOLITA EMELITA BUTED                              0502
A0101408400394572617001NARIZ, ELENA PILAR                                       0501
A0101408400394642089001MAQUILING, ELLEN TAMIO                                   0501
A0101408400394678028001BERNAL, MARISTEL CAMANGYAN                               0501
A1401400110492364401001RAFA, RAQUELITA RAQUEL                                   0501
A0101407430503036416001JUPITER'S BUTCHER SHOP                                   0505
A0101407430503044461001GMC CARGO SERVICES                                       0501
A0101405940512312583005VICTOR MORADA                                            0502
A0101408530516488690001**********                                               0502
A0101403450521589241001³*********                                               0502
A0101404130601027289151RUEL S. SANTOS                                           0501
A0101404130601150580001WERLE P. GALANG                                          0501
A0101404130601450162001ORLANDO U. GO                                            0502
A0101407720602496503014KAREN O. TORRES                                          0501
A0101404260611478374076NEREZA P RULL                                            0501
A0101409890649774914001ELEFANO, ROSITA CASTRO                                   0501
A0101409920650478374005CRISOSTOMO, MA. EMELIA GASPAN                            0501
A1301400210682366453003NOEL FREDERICK M PENEYRA                                 0501
A1301400340683478374039ABAOAG, CELIA SALVADOR                                   0502
A2801400100712394915001SMITH, DONALD LEWIS                                      0501
A4101400260812476645001ROLANDO S. BASILIO                                       0501
A4101400420814520766045BOCO, ADELA G.                                           0501
A4101400420814520766102EUFRACIA TINGEL                                          0501
A4101400420814562876001*****                                                    0502
A0101406750852478374027ELENA HINUNANGAN                                         0502
A0101406750852540982001HERRERA, VICTORIA CENIZA                                 0501
A0101406750000000017461RICASA, BRIGIDA DBU MAGNETIC                            10510
A0101405490000000019634RITA GRACE OR ANNA LYN OR JUAN                          10502
A0201401020000000056255KING, CHIONG MIN OR                                     10501
A0101401380000000106630DUYAGUIT, ANALIZA CINCO OR                              10501
A4101400260000000377479PETALCO, BABELITO V. OR                                 10501
A0101408790000000579266BARREIRO JR., ANTONIO CEFERINO                          10501
A0101409920000000998558MEMBERS OF NATASHA (SHOECAT INC                         10501
A1401400110000001549293HAO, LILIBETH MANLUGON OR HAO,                          10501
A0101400150000001708021SIMEON T. YAP OR                                        10501
A0101402510000001975062LIM, WILISON C. OR                                      10501
A0101400150061473504001SAGUIL, EDUARDO FABELLA                                 10501
A0101405490392032343001TWIN PEAK BRASSIERES                                    10504
A0101404000551720372001HO, MARIE CRISTINA TAN OR                               10503
A0101407720602283353001ERWIN HERNANDEZ OR                                      10501
A0101404260611047317001PSI PSYCHOLOGICAL TESTING AND                           10501
A0101406750000000017461CATERING ENTERPR                                        20500
A0101405490000000019634OR CARLOS JR. NARCISO OR                                20500
A0201401020000000056255KING, ELIZABETH                                         20500
A0101401380000000106630DUYAGUIT, URLAND                                        20500
A4101400260000000377479PETALCO, VIRGILIA M.                                    20500
A0101408790000000579266VILLAR                                                  20500
A0101409920000000998558ACPAL, GLORIA                                           20500
A1401400110000001549293KATHERINE GAYLE MANLUGON                                20500
A0101400150000001708021JENNIFER G. YAP                                         20500
A0101402510000001975062BUMANLAG, MARY SHEILLA A.                               20500
A0101400150061473504001OR ANNE MARIE SAGUIL                                    20500
A0101405490392032343001MANUFACTURING INC                                       20500
A0101404000551720372001HO, HENSON LIM                                          20500
A0101407720602283353001AGNES HERNANDEZ                                         20500
A0101404260611047317001RESEARCH SERVICE                                        20500
B0101405490000000019963NAJIA MOVERS & PROJECT SPECIALIST INC.                   1602
B02014007600000000333545A FEEDMILL CORPORATION                                  1602
B0101412180000000075421MGNP, INC.                                               1605
B0101412180000000075432MGNP, INC.                                               1605
B0301400660000000195000MY GAS PETROLEUM CORPORATION                             1601
B0101414090000000399504JUANASPA CORP.                                           1601
B0101405650000000772685WISEMEDIA GROUP, INC.                                    1601
B4101400260000001198949MONTALBAN CONCRETE AND ASPHALT INC.                      1605
B4101400260000001198950LILAI CONSTRUCTION & DEVELOPMENT CO                      1605
B0801400160000001289807BORACAY BEACHBOYS LEISURE, INC.                          1602
B0101402480000001561939PUREBLENDS CORPORATION                                   1605
B0101411080042443031001 *****                                                   1601
B0101400150061011052001TAMIYA, INC.                                             1601
B0101400150061228665001MALAYAN TOWAGE AND SALVAGE CORPORATION                   1610
B0101400600071328360002**********                                               1601
B0601400100081034116001FIESTA COMMUNITIES INCORPORATED                          1605
B0101400440161186956001NUMERIANO H. HERNANDEZ                                   1602
B0101401380201034271004LC BUILDERS AND DEVELOPERS, INC.                         1604
B3101400160221572901001ATTGIG INTERNATIONAL INC.                                1602
B3101400450223365119002VICTOR HUGO ENERGY CORPORATION                           1601
B3101400740224024279001SPORTS MIX MARKETING CORP.                               1610
B3001400130230043534001BERRY HAPPY MART INC.                                    1605
B0101408660274047925001CNT PROMO AND ADS SPECIALISTS, INC.                      1606
B0801400160311271206001WESTERN LAMP & ELECTRICAL SUPPLY                         1604
B0101402480331009877001GUE CON MFG. CORP.                                       1605
B0101402480331033229029TGP DRUGSTORE                                            1603
B0101402480331662926001ONG, JOSE F. OR ONG, CHRISTINE ABIGAIL                   1602
B0101408820333036227001HITACHI AIR CONDITIONING PRODUCTS                        1601
B0201400920375042734001A. LIM DEVELOPMENT INC.                                  1602
B0101408400394027524001SAINT JO FLORAL DESIGNS & DECORS                         1602
B0101408400394028489001KING'S HOLLY, INC.                                       1601
B0101408400394028560004NEW LIFE CHRISTIAN CENTER (THE FORT)                     1602
B0101408110515020436002JMD INTERNATIONAL CORPORATION                            1607
B0101403450521035366001***********                                              1603
B0101404000551005037005CONRAD & SONS REALTY INC.                                1605
B0101404130601039722002HILAGANG EDSA TOURIST INC.                               1605
B0101404130601491951001LUGANO ENGINEERING CONSULTANCY                           1603
B0101404260611044359158GREAT ARCHER SALES                                       1603
B2801400100712031823001REYES, DIANO, TUMANDA & CO.                              1602
B3801400170000000018777ANTONIO CATIBOG II OR ZENAIDA CATIBOG OR                11605
B0101412760000000032015SERMONIA, MARIA ROMINA U. AND SALIGUMBA,                11601
B0101407140213016813001GENERAL CHEMICALS & RESINS CONSORTIUM,                  11602
B0801400160311100161001PRUDENTIAL CUSTOMS BROKERAGE SERVICES,                  11603
B0101403580511015278001MTV INVESTMENT PROPERTIES HOLDINGS                      11603
B4101400420814018935001IGLESIA EVANGELICA UNIDA DE CRISTO(ANABU                11602
B3801400170000000018777HAZELYN ACEDERA                                         21600
B0101412760000000032015FABRIENNE JAKE                                          21600
B0101407140213016813001INC.                                                    21600
B0801400160311100161001INC.                                                    21600
B0101403580511015278001CORPORATION                                             21600
B4101400420814018935001UNIDA CHURCH)                                           21600
B0201401020377821100608**********                                               2005
B0101403450521821100608**********                                               2030
B1301400340683821100608**********                                               2003
