F4101400390813449197001CAFUIR, TIMOTHY JAMES SAYOC                              2502CKO
F1801400130151048749001MSU-IIT NMPC TUBOD BR.                                   2601CKR
F1001400190231274503002YU, JERRY OR YU, JULIE                                   2610CKR
F3301400120581020152004CRISTAL e-COLLEGE, INC.                                  2610CKR
F3301400120581263261002**********                                               2603CKR
F3301400120581552659002**********                                               2603CKR
F0101413600000002822671AUNICAJ INTERNATIONAL                                   12601CK1
F0101413600000002822671TRADING CORPORAT                                        22600CK1
