A3001400130000000007041CHAQ GLASS & ALUMINUM SUPPLY                             0501
A0101403580000000016082SWEET BELLA DESSERTS                                     0506
A0301400820000000024860HERNAN, PESARLITO T.                                     0503
A4101400420000000120798MILO, ROMELDA F.                                         0501
A0101403450000000135533VILLANUEVA, JOHANNS LEE                                  0501
A0101406750000000172854HASEGAWA, MARIA CORAZON C.                               0501
A0101411530000000178905**********                                               0501
A5501400120000000265810VALDEZ, BEVERLY JAVELLANA                                0501
A5501400120000000265861FABIE, ELENA TINDUGAN                                    0501
A0501400170000000495216DY, JOSELITO MARTINEZ                                    0502
A0101412180000000501511YU, VENGIE TUPAZ                                         0503
A0101403580000000509404CASTANERAS, ROBERTO RAPERA                               0501
A0101403320000000735717BAUTO, GUADA LYNNE CASTILLO                              0501
A0101400150000000807625TOMOL, WARLITO ABAD                                      0501
A0101400150000000807625TOMOL, WARLITO ABAD                                      0502
A0101407270000000818382MARION WILLIAM O. LIM                                    0502
A0201400890000000973473*****************                                        0501
A0501400170000001032153UNGOS, ROWENA ORFINADA                                   0505
A1601400170000001068640JOSE NOEL R. RUBIO                                       0501
A1601400170000001068662MARIA JULIETA I. SALVOSA                                 0501
A0101413860000001233710ENARIO, JOHNNY MAKABENTA                                 0501
A3001400130000001271790HERMOSADA, JAME DORIA                                    0501
A0101403030000001302112*********                                                0501
A0101408790000001486284RONDILLOS, JENNELYN CASTILLON                            0501
A0101401090000001618811KRYZLER BEVERAGES STATION                                0502
A0101403320000001647058TAN, MA LUISA LUZ                                        0501
A0601400520000001706792BUNGQUE, ALDRIN CAPILI                                   0501
A0101401960000001844544ABAD, RAYMOND CAMA                                       0501
A1101400120000001920634GUIRON, TERESA GALLARON                                  0501
A0101413310000001928969ABARRERA, SIGRID VILLARINO                               0502
A0101413990000001947128MARS STONE SUPPLY                                        0501
A0101414120000002172618*****                                                    0502
A0201400890000002270173CHAVEZ, WILLIAM LOTHO                                    0502
A0101411110000002319951COSETENG, ERICKSON CASIMIRO                              0501
A0101408790000002326198ANTIOJO, ROUGENE ESPELETA                                0501
A0701400260000002339095BERNARDO JR., JAIME MIRALLES                             0502
A0101404680000002846024MEMBERS OF NATASHA ( SHOECAT IN                          0501
A1301400210000002908956RAMIL A CRUZ                                             0505
A0101413570000002976130FLORINDA J. BUBAN                                        0501
A0101404680000003000533SEVILLA, MARY GRACE ARIOS DBU G                          0503
A0101410850000003102103MSG BOTTLE WASHING                                       0502
A0101412340000003343973ADNAN C. KAGAYUTAN                                       0501
A0101409050000003533548ROGACION, CHARLOTTE                                      0501
A0101402480000003784327**********                                               0501
A0101401700041193436002CORAZON C. LOBENDINO                                     0505
A0101401700041352880001*****                                                    0501
A0101400150061230586001**********                                               0502
A0101405810072461541002**********                                               0501
A0101401090171033023002EXCELINK INSURANCE AGENCY                                0502
A0101401090171200611001CATALINO OR TRINIDAD SOLIS                               0501
A0101401090171457732001MARCELA MILA D. DAYA                                     0501
A0101401090171491755001OLIVIA C. GO                                             0501
A0301400660194618862001*****                                                    0501
A0101401380201689783001CONCEPCION, MAREEN RUFFY                                 0502
A3001400130230767566042JEROME ANTHONY SENECO ASUNCION                           0501
A3001400130230767566052FLORES, VIRGINIA MALBAS                                  0502
A1001400350233539705001SIMBAJON, ELENA P.                                       0502
A1001400350233635947001GOMEZ, CHRISTOPHER IAN CARILLO                           0501
A1901400290261355605001PAZ CRISTIANA TIAMSIM LANDICHO                           0501
A1901400290261390520001JOEL PUNZALAN DIMAANO                                    0502
A1901400290261567865001ALEX IAN SISON DE LA CRUZ                                0501
A0101406460272076617001MILES, MILANIE GONZALES                                  0501
A0101400570281491482001TAN, EMMA ONG                                            0501
A0101402480331031206001**********                                               0503
A0101402480331512951001*******                                                  0501
A0101402060351349643002PANDINO, GRACE LORENZO                                   0501
A0101402640361478374060MAHINAY, MARY ROSE A.                                    0501
A0201400920375048147001COLONIE PEST CONTROL                                     0502
A0201400890376071522001YAP, MARIA TERESA DAGUMAN                                0502
A0101402930381757923001HAHN, DUCK WOO                                           0501
A0101408790383610468011CARLA R. GARCIA                                          0503
A0101405490392033011001VICELA MOTOR WORKS                                       0503
A0101405490392552022002MARIA THERESA D. SOLIS                                   0501
A0101408400394162577001REYES, ELSA UNGSOD                                       0501
A5501400120410613491001BERIN, ROLANDO MILLAN                                    0501
A1201400150421478593001*****                                                    0502
A1601400170494083045001YONZON, KATHERINE BRONDIAL                               0501
A0101403580511576080001ANNA LIZA R ABRENICA                                     0503
A0101408530516494431001******************                                       0502
A0101408530516571877077OLIVERA, TAMIYA NICOLE DE VERA                           0502
A0101408530516571877140SORILLA, ELTON JOHN SORONGON                             0502
A0101411400517775177001DAVA, AYLA TUAZON                                        0501
A0101411790518055764120VICTOR JOSEPH PAMOR DELA PENA                            0501
A0101404000551153238001KATIGBAK, VIRGILIO J.                                    0501
A0101407720602232072001LENNIE A. TERRE                                          0502
A0101407720602335924007NORBERTO B. AQUINO                                       0505
A0101407720602489773001MERCADER, MARY JOSEPH ABITRIA                            0501
A0101404260611478374091ROSITA LLANES                                            0501
A0101404260611788828001LUSTERIO, JOEL BONGOSIA                                  0503
A0101404680651040818001METROKARDS CO.                                           0501
A0101404680651298552046CONSUELO V. DE VERA                                      0502
A0101404680651478374109MARISSA BENAVIDES                                        0501
A0101404680651520766081ELIZABETH I. BELARDO                                     0501
A0101404680651525001022LEILA L. SARTE                                           0501
A1301400340683442280002DULU, VIRGINIA ATIENZA                                   0502
A1301400340683453552002NATIVIDAD, EDUARDO PACHECO                               0502
A1301400340683590977001NON, JOHN VIADO                                          0501
A4101400260812469791001CAROL E. COMIA                                           0502
A4101400260812478374076MAILYN L. EVASCO                                         0504
A4101400420814520766138SAN PEDRO, ANA LIZA                                      0501
A0101404840851478374115ERLINDA O. PRADO                                         0501
A0101404840851520766065TAYSON, FERNANDO                                         0502
A0101406750852388583001CALIVARA, MARITES LIABRES                                0501
A0101411530000000178870JANNAH ELAINE TORRES OR                                 10502
A1601400170000000421069CHARLES P. CLEMENTE III OR                              10505
A0101405810000001021172PUA, C DBU MCK SCHOOL & OFFICE                          10502
A0601400230000001062457RAMOS, MANILYN GOZUN OR                                 10501
A3001400130000001271312SHAPE & WELL NUTRITIONAL                                10501
A0101414120000001751446MARIA GRACE LACUESTA OR RICKY                           10501
A0101412340000002266884MARGELETTE B. BAUTISTA OR                               10503
A3401400280000003309139TERESA A. SANTOS OR MARIA                               10501
A0101401700041316267001REYNALDO B. BONGALOS OR                                 10515
A0601400100081251941001MARCELINO ALAPAG OR                                     10502
A0601400100081358739001CHUA, IRENE ANUNCIACION                                 10503
A1001400350233732232002CAUBE, MARIVIC JAMERO                                   10502
A0101406460272548275001SUNGA, PETER EDWIN JAO OR                               10504
A0101402480331585752001SISON, MARIA LOURDES OR                                 10501
A0101402060351211709001MARGARITA B. DINGLASA OR                                10502
A0101405490392493712001LUISITO OR JESUSA OR JAMES KIM                          10501
A0101409180397669394001HERNANDEZ, ADITHA OR                                    10501
A1201400150421253952001DELA PENA, BONIFACIO ILAO OR                            10503
A0101411790518055764119JOSEF ROMEO FRESNOZA DELA                               10501
A0101407720602399815001ALEJANDRO, RUTH MARGARET                                10501
A0101406590662070270001INOCIAN, MARIA TSARINA OR                               10504
A4101400390813442190001ASMA, RODELYN MERIADO OR                                10506
A4101400420814246792001GENEDINA A. FERRER, M.D. OR                             10502
A0101411530000000178870FREDERIC RAY TORRES                                     20500
A1601400170000000421069CHARLES L. CLEMENTE JR.                                 20500
A0101405810000001021172SUPPLIES                                                20500
A0601400230000001062457RAMOS, JOHN RAYM                                        20500
A3001400130000001271312PRODUCTS                                                20500
A0101414120000001751446LACUESTA OR MILEAH GUMELA                               20500
A0101412340000002266884MARICAR B. BAUTISTA                                     20500
A3401400280000003309139CONSUELO A. ALMONTE                                     20500
A0101401700041316267001MARICEL BONGALOS                                        20500
A0601400100081251941001JASMINDA ALAPAG                                         20500
A0601400100081358739001OR REYES, GLORIA                                        20500
A1001400350233732232002OR CAUBE, VICTOR                                        20500
A0101406460272548275001SY JR., MARCIANO                                        20500
A0101402480331585752001SISON, ROLANDO                                          20500
A0101402060351211709001ERNESTO D. DINGL                                        20500
A0101405490392493712001LOUIS HERCE                                             20500
A0101409180397669394001HERNANDEZ, CESAR                                        20500
A1201400150421253952001DELA PENA, KARIN                                        20500
A0101411790518055764119CUESTA                                                  20500
A0101407720602399815001FRANCISCO                                               20500
A0101406590662070270001PAJARO,VICENTE OR YOLANDA                               20500
A4101400390813442190001ASMA, ROLDAN PAR                                        20500
A4101400420814246792001LEO CRESENTE M.                                         20500
B0101403030000000008864**********                                               1603
B3101400740000000013889IM DIGITAL PHIL INC.                                     1606
B0101404260000000156949FIRST ISOMATIC INC.                                      1601
B0101400150061017496001**********                                               1602
B0101400150061027456001ELEC-TREATS ENTERPRISES INC.                             1601
B0101400600071476377003*********                                                1601
B1001400350233540058188**************                                           1602
B0101406460272047410001CHREY BUILDERS CORP.                                     1601
B0101400570281007818001ACE-NBS MULTI PURPOSE COOPERATIVE                        1603
B2601400270302039764001MOTORAM MOTOR PARTS                                      1601
B2001400290315044204001ACEBANK CREDIT, INC.                                     1601
B2001400290315055741001DIESEL POWER PARTS CENTER                                1601
B0101402060351034715001LAY BARE FRANCHISING CORPORATION                         1605
B0101402930381009648001CHRIST'S COMMISSION FOUNDATION, INC.                     1610
B0101402930381038648001LARGEN MED INC.                                          1604
B5501400120410042374001NEW MARBEL MULTI-PURPOSE COOPERATIVE                     1601
B5501400120410044488008**********                                               1605
B2401400180411016835001GENERAL TUNA CORPORATION                                 1605
B0101412890470047248001MONTALBAN MILLEX AGGREGATES CORPORATION                  1602
B0101403320471040565001HUMAN SHELTER REALTY CORPORATION                         1602
B0101407720602023438001DEPARTMENT OF ENT                                        1601
B0101404260611005561001WILSTRONG LUMBER & HARDWARE                              1602
B0101404260611034715001LAY BARE FRANCHISING CORPORATION                         1605
B0101404680651026938001RUSS MARKETING, INC.                                     1601
B1301400340683353482001MARLENE R. JOSE OR JOSE MARI R. JOSE                     1602
B1701400230693621490002***                                                      1605
B0101408240711036910001ASIAN CENTRE FOR INSULATION PHILS.,                      1603
B0101406750852032718001PHILGREEN PLASTICS CORPORATION                           1601
B0101406750852491986001SPRINGPHIL TRADING & MFG. INC.                           1601
B0101406750852740034001MORE-NING SUN PACKAGING CORP.                            1601
B0201401020000000005012CEBU PREMIER SALES ENTERPRISES,                         11601
B1001400480000000133508TURNSAT INTERNATIONAL LOGISTICS                         11606
B0101412210000003448742NOLASCO INTERNATIONAL MEDICAL AND                       11604
B0101405490392047246001JOCELYN C. DELA ROSA DBU JRD FREIGHT                    11601
B5501400120410044567001RASAY INSURANCE AGENCY AND GENERAL                      11601
B0101403320471008879002GOLDWIN MANUFACTURING                                   11610
B0101403580511046044001STARLITE MANAGEMENT AND ENTERTAINMENT DB                11601
B0201401020000000005012INCORPORATED                                            21600
B1001400480000000133508CORPORATION                                             21600
B0101412210000003448742DIAGNOSTIC                                              21600
B0101405490392047246001FORWARDING                                              21600
B5501400120410044567001SERVICES                                                21600
B0101403320471008879002LABORATORIES                                            21600
B0101403580511046044001U STARWOOD VIP                                          21600
