F0101402350321171832002CORTEZ, BELINDA SANTOS                                   2502CKO
F1301400470252522471001NELSON V. LARGO OR                                      12502CKO
F1301400470252522471001RUVELYN S. LARGO                                        22500CKO
F3301400120000000032982**********                                               2602CKO
F0101404130000000696180OPTIMA EQUIPMENT CORPORATION                             2601CKR
F0101408400394034371002W GROUP, INC.                                            2603CKR
F0301400820409049152001LLANOS, ALFONSO DBU LLANOS                              12602CKR
F0101406590662040860001BRAINCHILD CREATIVE SOLUTIONS                           12602CKR
F0301400820409049152001MEDICAL CLINIC &                                        22600CKR
F0101406590662040860001CORPORATION                                             22600CKR
F0201400180181041364008CENTRAL VISAYAS TRUCKING SVC. INC.                       2701CKC
