F0101400570281522825001JOSE B. MORAN                                            2503CKO
F0101408400394506185003PRADES, BELYNE BANGCOT                                   2502CKO
F4101400260812039607029DOMINGUEZ, ANNA LISSA R.                                 2502CKO
F0101406620273019596002TGV BUILDERS, INC.                                       2603CKR
F0101407560686028809001INTERNATIONAL JOURNEYS, INC.                             2602CKR
F0201400180000000086913AGUILON JR., ROMEO CANETE DBU                           12605CKO
F0101408400394163404003PILI, JUANITO/LAZARO, ARRHENIUS                         12605CKR
F0201400180000000086913A-BUILD CONSTRUC                                        22600CKO
F0101408400394163404003/LAZARO,JENNIFER                                        22600CKR
