F1801400130151048771001MSU-IIT NMPC POBLACION-ILIGAN B                          2601CKR
F0101408820333031898002PROMETHIUM TRUCKING SERVICES CO                          2610CKR
F4101400260812022293003JOMIJOH'S BAKESHOP INC.                                  2601CKO
F4101400260812022293004JOMIJOH'S BAKESHOP INC.                                  2601CKO
F4101400260812033409001NEW DASMA GOLD BAKE INC.                                 2601CKO
F4101400260812033409002NEW DASMA GOLD BAKE INC.                                 2601CKO
F4101400260812033409003NEW DASMA GOLD BAKE INC.                                 2601CKO
F4101400260812793776001FIRST PHIL-PACIFIC CASING INC.                           2602CKO
F3101400580000001540352MBANK PHILIPPINES ( A THRIFT BA                         12603CKR
F0101408400394163404003PILI, JUANITO/LAZARO, ARRHENIUS                         12605CKR
F3101400580000001540352NK ) INC.                                               22600CKR
F0101408400394163404003/LAZARO,JENNIFER                                        22600CKR
