A0101406750000000017427ANTONIO, ARNALDO QUILATAN                                0501
A2601400270000000084182DONALD C. DUMRIQUE                                       0501
A1301400340000000100330LAPENA, RAYMOND RANDALL CERTEZA                          0501
A0101412180000000560212BALUYUT, WILLIAM HERBERT RAMOS                           0501
A0101413440000000570223LABSAN, CARMEN DELA CRUZ                                 0502
A4101400420000000710530SERRANO, JAY JOSEPH CABANSAG                             0502
A2401400180000000826102SORIA, DONNA DONES                                       0501
A1001400190000001057556EMMA A. BARRETE                                          0501
A0501400170000001072731ABCEDE, JORRECA DE PERIO                                 0502
A0101403610000001174903LIZARDA, MICHELLE CASACOP                                0506
A0101412210000001236340GERARDO IGNACIO B. ONGKINGCO                             0501
A0101408530000001268560GUILBERT P. SAMPEDRO                                     0503
A0101400150000001707900CABIAS, ARIZTEO CASTRO                                   0501
A0101411950000001771057EMELITA R. VERTUDAZO                                     0501
A1401400110000001806986ALPHA CYCLE CENTER                                       0504
A0101408400000001981575DY, AIDA DIVINIA CONDE DBU ZHOO                          0501
A0101406750000002040260TOLENTINO, ROSALINA SABATER                              0502
A0301400820000002271990ORGE, ROWENA F.                                          0501
A0101408240000002331237AURELIO, LILIA PADERNA                                   0503
A0101400600000002335640DELFIN, LOVELLA SIASON                                   0507
A0101413440000002339528********                                                 0501
A0101412920000002358990ANDEN, MAY EVANGELINE REGASPI                            0501
A0101400440000002639176ALTAREJOS, JOSELITO ONTOG                                0502
A0101405490000002880602**********                                               0501
A1101400120000003022373BANTULA, EVELISA                                         0501
A0101407270000003264986MAMMUAD, ROGELIO REPANI                                  0501
A0101401250021478374017BATILDA G. ALOTA                                         0501
A0101401700041024130001AARON SAMUEL INC.                                        0505
A0101401700041298552002ARMANDO NAYVE                                            0503
A0601400100081251765001MANINANG, ERNESTO M.                                     0502
A0101407270162496878001AGNES TABARANGAO                                         0502
A0101401090171196126001ROSE JEAN P. CRUZ                                        0501
A0101401380201659854001AGUSTIN, ELMO OCAMPO                                     0501
A3001400130230478374004BALABA, JANETH BORJA                                     0501
A1001400190231332648001UBA, VINCENT CABALLERO                                   0502
A1001400190231379465001YBANEZ, CHRISTINA Q.                                     0501
A1001400190231478374057MARIA LOURDES LIMBAGA                                    0501
A1001400190231520766105ABUCAYON, MEBB BALA-ON                                   0501
A0101406460272232218001MARIANO, NORMITA T.                                      0501
A0101408820333224715001ELIAS GARCIA OR ENRIQUE GARCIA                           0503
A0101402060351030241001ALEXANDRIA GAME FARM                                     0505
A0101402640361039299001JANRELK TRADING                                          0501
A0101402640361491175001************                                             0510
A0101411660384076295001MICHAEL GERARD S. DOMINGUEZ                              0501
A0101402770391578561001ALLAN MICHAEL U. CAPIO                                   0502
A0101408400394513981001ANDALIS, ARMIE BREBONERIA                                0501
A0501400170481777043001QUINTO III, ALFREDO ARZADON                              0501
A0101406880513043932003MDMA TRADING                                             0501
A0101404000551735313001DE LUNA, PATRICK JOHN LUPISAN                            0501
A0101410720653039987001BROTHERS3 GASOLINE STATION                               0501
A0101410720653173243001ARLENE MAE LIM OR DOLORES LIM                            0501
A0101406590662202228001INIGO JR., CONRADO EUSTAQUIO                             0501
A0101407560686526155001101C TRADING CORP.                                       0505
A4101400260812460928001FELINA S. ANTANG                                         0501
A4101400420814478374196DINO, LUZVIMINDA                                         0501
A0101404840851368068003BALAGTAS, ROWELLDA CHIONG                                0502
A0101404840851523801001LUMAGUI, FERNANDO RAZO                                   0501
A2801400230000000937548VITUG, QUIRINO DBU VI-JETT                              10502
A0101400150000001422439IBARRA, MARIA CHRISTINA OR                              10501
A1701400230000001786718RAMBAUD, ALBERT LACRO OR                                10501
A0101409920000001951851MEMBERS OF NATASHA (SHOECAT INC                         10502
A0101400150061231935002EMILINA P. GARCIA OR                                    10502
A0601400100081485664001TAYAG, JOSE HUBERTO S. OR                               10502
A0101413280092055822001CHERLYN ANN SO DBU C.A.S                                10501
A0101401090171551007001MARY MILITANT RICAFRENTE OR                             10502
A0101402060351378851001ALBERTO, EMIL JOHN M. OR                                10502
A0101405940512360728001ERWIN P. HERNANDEZ OR AGNES                             10501
A0101404130601450094004PASCUAL, LORQUEL OR PASCUAL,                            10501
A0101407720602346136002DR. SIXTA NAVARRO-FORONDA OR                            10510
A2801400230000000937548ACCOUNTING OFFICE                                       20500
A0101400150000001422439ESTACIO, TERESITA                                       20500
A1701400230000001786718MARICAR CATHERIN                                        20500
A0101409920000001951851ANNALYN E. AMPELOQUIO                                   20500
A0101400150061231935002MA. CARMEN JAVIE                                        20500
A0601400100081485664001TAYAG, JENNIFER                                         20500
A0101413280092055822001PROPERTY MANAGEMENT                                     20500
A0101401090171551007001MARIETTA C. ABELLA                                      20500
A0101402060351378851001ALBERTO, ANN                                            20500
A0101405940512360728001T. HERNANDEZ                                            20500
A0101404130601450094004ANNIE S.                                                20500
A0101407720602346136002DR. J.D. FORONDA                                        20500
B0101409050000000258491INFORMATICS COLLEGE CALOOCAN, INC.                       1603
B0101412760000000767922GUADANA, CAROLINE DBU GEMPLACE PAWNSHOP                  1601
B0101412760000001399755SUPERIO, CHRISTINE DBU GEMSAFE PAWNSHOP                  1601
B0101400440000002846575COMMANDER SECURITY SERVICES, INC.                        1610
B0101401700041007687001PHIL. DENTISTS DEVELOPMENT COOPERATIVE                   1605
B0101400150061010677001MENZI AGRICULTURAL CORP.                                 1603
B0101400150061010833001VELCA TRAVEL & TOURS, INC.                               1601
B0101400150061030299001INFOSERVE INCORPORATED                                   1601
B0101400150061534780001STRAITS WINE COMPANY WHOLESALERS, INC.                   1602
B0101400600071233748002**********                                               1601
B0101400600071490078001********                                                 1601
B0101407270162036333001DONA ALEJANDRA, INC.                                     1620
B0301400530193557610168LAO, JEAN GO JT                                          1605
B0301400530193558888088GAISANO, VIRGINIA / BENITO                               1610
B0101406620273016438002LAMCO INTERNATIONAL TRADING CO., INC.                    1602
B0101406620273041414001GANO I-TOUCH PHILIPPINES INCORPORATED                    1605
B0101402480331010339001SIA'S AUTOMOTIVE & DIESEL PARTS                          1604
B0101408820333449627001BUNYI, RODANTE CRUZ                                      1603
B0101402060351009431001RPP SAVINGS AND LOANS ASSOCIATION, INC.                  1603
B5501400120410043181008HOME CARE MARKETING                                      1603
B0501400170481020083003COLEGIO DE DAGUPAN, INC.                                 1630
B1401400110492028287001MARYHILL COLLEGE, INCORPORATION                          1605
B0101407430503006854003CARGO DATA EXCHANGE CENTER, INC.                         1602
B0101406880513327813001KSY LAND DEVELOPMENT CORPORATION                         1602
B0101403450521011624001**********                                               1602
B0101403610531518484001A1 STEELFORMER CORP.                                     1603
B0101407720602023345001PROCONSTRUCT CORPORATION                                 1602
B0101406590662018451001ROTARY CLUB OF LOYOLA HEIGHTS                            1602
B4101400260812039799001LAGAMAYO DENTAL CORPORATION                              1602
B0101406750852474662001SECURITY MARKETING & PEST MANAGEMENT                    11603
B0101406750852474662001INC.                                                    21600
B0101412210399821100608**********                                               2003
