A3101400160000000006522DUENAS, JOAN CONSTANTINO                                 0501
A3801400170000000018891ALBERT UY NERIA                                          0501
A0101401830000000033707NICDAO, DIANA ALLEN DE JESUS                             0502
A0101408660000000034200MIRAMONTE, JOMMELEANA ORTIZ                              0501
A0101409210000000043741LAT, MARINELL ADA DUENAS                                 0501
A0101405940000000061630*******                                                  0501
A1001400190000000124785PELONGCO, ALPHA JOY B.                                   0501
A1001400480000000133279**********                                               0503
A3101400450000000163482LAMAR, ANTONIETA C.                                      0510
A0101413990000000205898**********                                               0502
A0101401090000000210351UY, CHIN                                                 0502
A0101412210000000238486JUMAWAN, FERDINAND TUBAYAN                               0501
A0101407690000000243810PAGUIO, ANA CARDENAS                                     0501
A0101402480000000310589SIBAL, LOURDES DE JESUS                                  0502
A0101404130000000321440REYES, LEONILA CANTOS                                    0501
A0101402060000000445436J. ANTONIO FORWARDING SERVICES                           0501
A0101404840000000475952GONZALES, ROWENA POLLICAR                                0501
A1301400210000000540914RAMOS, ALLAN BAUTISTA                                    0501
A0101402060000000562065ARGANOSA, MAGDALENA LYN SARZUEL                          0502
A0101400440000000596607GIRLIE B. SANCHEZ                                        0501
A0101408790000000599931INCIONG, ARNULFO LUPERA                                  0502
A0101408790000000600068CO, RHODERICK PADONAN                                    0501
A0101411110000000604835**********                                               0501
A0101411110000000604879RHODORA MONTESINO JIMENEZ                                0501
A0101412760000000767762MERCADO, LORNA DIMAFELIX                                 0501
A0101412760000000767820DE GUZMAN, IRENE JAVA                                    0501
A0101400150000000807830MOJANA JR., ABRAHAM AGUILAR                              0502
A0101409180000000874539DIMAANO, ROY VILLALOBOS                                  0501
A0901400220000000888053**********                                               0501
A0101401250000000907197GARING, MELANIE CASTILLO                                 0501
A0101407690000000913724OPERIO, IMELDA LAGUIO                                    0501
A0101407690000000913939BANDONG, VICENTE LEAL                                    0501
A0101407690000000913951CERDENA, OSWALD REYNANCIA                                0501
A0101407690000000913962SALAS, BILLY AGGABAO                                     0501
A1301400340000000926790LABOG, ANABEL TRIVINO                                    0501
A1301400340000000980201ROMASANTA, ABEGAIL LLORENTE                              0502
A0101400860000001005536**********                                               0502
A0101412890000001056513BOQUIREN, ALBERT OR DANICA                               0501
A1001400190000001057396LOLITA B. DULCA                                          0501
A2201400250000001066017CAROLYN GO KE                                            0501
A0101410140000001074771CAYABYAB, RAZEL ESCOBER                                  0501
A3101400450000001149291BALDOVINO, ISABEL VALDOPENA                              0501
A3101400160000001169262ANTILLON, HONEYLET SANTIAGO                              0501
A0101407140000001218308AVILA, ANNALYN DIZON                                     0501
A0701400260000001232006SABORDO, JUVY ORCIGA                                     0501
A0101401830000001281943ISUGA, CORAZON JOY TEANO                                 0501
A0101413150000001288342******                                                   0502
A0101409210000001294402ENRIQUEZ JR., RAMON GALICHA                              0501
A0101412920000001313728CHEF ALBERT FOOD SERVICES                                0501
A0101412920000001313808BATALLER, EDUARDO COSTO                                  0502
A0101411820000001356543JOSE MARIO L. ABAJA                                      0502
A0101411820000001356554JOSEFINA M. CALABIG                                      0502
A0101406040000001391960********                                                 0501
A0101406750000001491732SUPAN, YANEZA STA MARIA                                  0501
A0101401090000001611416GALANG, MARK QUAZEN TAPAZ                                0501
A0101404680000001617232AMELIA C. SIMBAJON                                       0501
A4101400550000001622617SANTOS, LANI DE JESUS                                    0501
A4101400550000001622628PANGAN, PAOLO DINGLASAN                                  0501
A3101400870000001712196ROA, R DBU SCHWYZ DELI AND CAFE                          0501
A4101400390000001732565BOSITO, JOSIE LANGRES                                    0501
A0301400790000001776081OLAGUER, MA LUZ PINEDA                                   0503
A0101404130000001831670CHUAUNSU, JESUS D.                                       0501
A0101404130000001831738ASEGURADO, ESTACY CARL FAJARDO                           0501
A0101404130000001831749REID, JOHN PAOLO PLATA                                   0501
A0101408400000001835161LAUD JR., RAYMUNDO CASTROMAYOR                           0501
A0101408400000001835183JABONETA, JANETH PESARIT                                 0501
A0101400860011403031002**********                                               0504
A0101400860011443455002**********                                               0505
A0101400860011473146002*********                                                0502
A0101400860011514595002**********                                               0502
A0101400860011656088001**********                                               0502
A0101400860011675338001**********                                               0505
A0101400860011717406001**********                                               0502
A0101401250021478374014IRENE P. FADULLO                                         0501
A0101401250021498847001*****                                                    0502
A0101400150061230098001SALVADOR R. SERRANO                                      0501
A0101400150061453761153NESTOR MANGROBANG                                        0501
A0101400150061615508001LUY, ERNESTO TAN                                         0504
A0601400100081253555002MENDIOLA, JOSEPHINE ADARVE                               0501
A0101401960121608530001**********                                               0501
A0101401830141582040001HERNANDEZ, EDNA FABREGAS                                 0505
A0101400440161039572038JOVELYN L. PE                                            0501
A0101400440161525001170REMEDIOS R. DONA                                         0502
A0101400440161549463001SONIA D. CARAG                                           0501
A0101401090171199188001JOSE G. GALURA                                           0501
A0101401090171380214001GEMMA VENERACION-ABOY                                    0501
A0101401380201517488001BENEDICTO, HERIBERTH MEDINA                              0501
A0101401380201648879001BELARMINO, MA. JOCELYN SIAN                              0501
A0101401380201658545001*******                                                  0501
A0101407140213190892003**********                                               0501
A0101407140213192506001**********                                               0502
A3101400450223455809001LANCION, AUREA OR JERIC                                  0502
A3101400450223767085001VENTURA, AUREA FORTUNA                                   0501
A1001400190231275093001CAUMBAN, CRISTY MARIE                                    0501
A1001400190231275093001CAUMBAN, CRISTY MARIE                                    0501
A1001400190231478374154EVELYN A. CABALLERO                                      0501
A2601400270302591563001ROSITA R. CHE                                            0501
A2601400270302596713001MARY GRACE L. LORENZO                                    0501
A0101405650322543641001ABELLA, FREDERICO EDUARDO MILLA                          0502
A0101402480331089359002*****                                                    0502
A0101402480331224927002BLASITO VISTO                                            0501
A0101402480331304122002***************                                          0502
A0101408820333478374063HENRY M. GENORGA                                         0501
A0101402510341197697001GLORIA R. DEL MUNDO                                      0501
A0101402510341198280001VIRGINIA S. ELEMENTO                                     0501
A0101402060351621385001BASCAR, CYD BUHIA                                        0501
A0101402060351666785001DETERA, BERNADETTE QUINES                                0501
A0101409050352513235001RYAN M. HONORAS                                          0503
A0201400760374478374004MELINDA P. ABEAR                                         0501
A0101402930381423656010UMALI, DANE DANIEL                                       0502
A0101408790383729602001ANTAZO, JOANA MARIE REYES                                0502
A0101408400394365559002LEDESMA, ROY CABAGAY                                     0501
A0101408400394572617001NARIZ, ELENA PILAR                                       0501
A2401400180411514423001DEALA, BERNARDITA GATCHALIAN                             0502
A2401400180411688592001DUCENA, RONNIE PIZON                                     0502
A0901400220432368117001**********                                               0502
A0101412760476092016001AMOR, ISRAEL CASTRO                                      0501
A1401400110492521817001ZARSADIAS, YBETT TINAMISAN                               0501
A1401400110492620230001DELOS SANTOS, ENRICO PEREZ                               0502
A0101405940512326499002CASTRILLO, CARLITO BARRIAS                               0501
A0101408110515041358001MADE IN HEAVEN ENTERPRISE                                0501
A0101408530516044264001DATA ART DESIGN & PRINT SERVICE                          0501
A0101404130601027289184FERMIN M. LIMBO II                                       0501
A0101404130601450195002CAYANES, GLORIA M.                                       0504
A0101404130601451188001**********                                               0502
A0101404130601478374010FERNANDO, MARINO A.                                      0501
A0101407720602313008001LEE, BERNADETTE D.                                       0505
A0101407720602480488001GERALDINE MAJELLA L. JURILLA MD                          0501
A0101404260611490335001TAN, MARIA JENALYN TULIAO                                0502
A0101404260611491692001EDGARDO M BALANI                                         0501
A0101407690652034806001BROWNFLY COMMERCIAL                                      0504
A0101407690652207359001AMELIA G. AREVALO                                        0504
A0101407690652542581001POLINTAN, MIRASOL TORIBIO                                0501
A0101407690652773797001BELGIRA, ROSARIO BALIBOL                                 0502
A0101407560686173804001FR. EDGARDO C. DE JESUS                                  0502
A0101407560686478374067SHERLITA T. FERNANDEZ                                    0501
A4101400260812044230001ACTIONPOINT MANPOWER SERVICES                            0505
A4101400390813427399001VILLANUEVA, ELIZABETH MAIGUE                             0502
A4101400420814281659001MORALES, LALAINE DIATO                                   0501
A4101400420814520766085ANNALIZA P. PRADO                                        0503
A4101400420814520766110DELA CRUZ, ARMINDA E.                                    0502
A0101404840851046725005IMELDA SUAREZ                                            0501
A0101404840851046725019LETICIA QUINANOLA                                        0502
A0101404840851424338001PAMITTAN, MYRNA M.                                       0503
A0101405650000000013178MA. ISOLINA DENISE D. BARBERS                           10502
A5001400170000000045003LIONG, JULIUS TAN OR LAMBATAN,                          10505
A0101407430000000446702ESTRELLA, DHALYN M. DBU                                 10502
A0101407690000000495421CUAZON, MARIBEL - DEALERS OF                            10501
A0101408240000000521942PULIDO, REGINA SALVE LUZURIAGA                          10501
A0101402930000000623363KING, C DBU EASTERN CIRCLE                              10501
A0101410850000000844753TOLENTINO, F DBU TOL CHARTERING                         10501
A0101407690000000913859CASTILLO, MANDRICK DBU THINKING                         10501
A4101400260000000974103MALACAD REN DBU RENANTE MALACAD                         10501
A4101400260000000974103MALACAD REN DBU RENANTE MALACAD                         10501
A2601400270000001009192RICHELLE ANN P. PIEDAD AND                              10501
A0101412500000001146769NUBLA, DENNIS GERARLD C. OR                             10502
A3101400870000001177082MABAET, EVELYN MERCADO OR                               10501
A0701400260000001232028BUENDIA SR., DBU HONEY BEL                              10501
A0101409180000001237310ABAN, MARY GRACE C. OR                                  10502
A0101412760000001399584VILLANUEVA,DBU RNV'S EVENTUALLY                         10502
A2401400180000001935742AYUBAN, MERIAM VILLARES OR                              10501
A0601400100081259090001OCAMPO, NELIA D. OR                                     10501
A0101410850109088909001CORPUZ, AUGUSTO V. OR CORPUZ,                           10501
A1001400350233528399003KO, JOSE NELSON AND                                     10501
A6601400120314714452001CONSEBIDO JR., NAPOLEON O. OR                           10501
A0101402480331224187001CHARLOTTE CHRISTY TAN OR                                10502
A0101402480331585752001SISON, MARIA LOURDES OR                                 10501
A0101402060351009385001JORGE ALOMBRO JR. OR                                    10505
A0101402060351503188001CANAYON, SHIRLEY AZARCON OR                             10501
A0101409050352647812001MARIA LUISA L. SAPORSANTOS OR                           10503
A0101405490392351448001MARIA GENALINE V. PANINGBATAN                           10501
A0101408400394427962002SALONGA, JEFFREY V. AND                                 10502
A0501400170481350375002CHUA, POMFIA LEE OR                                     10502
A1401400110492047646001ALCANTARA, MARIO DBU JOCALDAR                           10501
A2201400250561478374066MARY ROSE C. ALFONSO                                    10501
A0101404260611047317001PSI PSYCHOLOGICAL TESTING AND                           10501
A0101407690652160042001JOEL B. PASTRANA OR                                     10501
A0101407690652298552010ANGELINA CANETE - DEALERS OF                            10503
A0101407690652298552012ANALIRIO GENERALI - DEALERS OF                          10502
A0101407690652478374179LENIE ANDO - DEALERS OF                                 10502
A0101407690652520766005GILNNA M. MALIGAT - DEALERS OF                          10501
A0101407690652520766035EMILDA R. TAMAYO - DEALERS OF                           10502
A0101407690652525001012JOSEPHINE Y. DURAN - DEALERS                            10501
A0101407690652525001036ROWENA P. MONSANTO - DEALERS                            10501
A0101407690652525001047NOEMI B. BUNDA - DEALERS OF                             10501
A0101407690652525001053JOCELYN B. JONOTA - DEALERS OF                          10501
A0101407690652525001056ENRIQUE, EMY SANTOS - DEALERS                           10501
A0101407690652525001077EVELYN BUAN - DEALERS OF                                10503
A0101407690652609264004AUGUSTO DE JESUS OR                                     10502
A0101407690652768531001CORAZON DE LEON OR JOSE DE LEON                         10503
A2801400100712507515001PINEDA, JENIPHER VISDA       OR                         10501
A0601400230891738531001CHUA, MARK ANTHONY GARCHITORENA                         10503
A0101405650000000013178OR REMI ADRIAN P. BARBERS                               20500
A5001400170000000045003DANA CORAZON LUA                                        20500
A0101407430000000446702VALON MARKETING                                         20500
A0101407690000000495421SHOECAT INC.                                            20500
A0101408240000000521942OR PULIDO, EBNARD                                       20500
A0101402930000000623363HUMAN RESOUCE SERVICES                                  20500
A0101410850000000844753 & SHIPPING AGENCY                                      20500
A0101407690000000913859MASTER DUPLICATOR SRVCS &                               20500
A4101400260000000974103BUILDERS                                                20500
A4101400260000000974103BUILDERS                                                20500
A2601400270000001009192DIOSA MAY T. TACUSALME                                  20500
A0101412500000001146769NUBLA, MARIA THERESA C.                                 20500
A3101400870000001177082MABAET, TRISHA DHENICE ME                               20500
A0701400260000001232028VULCANIZING & TIRE SUPPLY                               20500
A0101409180000001237310ABAN JR., ALBERTO G.                                    20500
A0101412760000001399584YOURS EVENTS MANAGEMENT                                 20500
A2401400180000001935742AYUBAN, MAYLENE VILLARES                                20500
A0601400100081259090001OCAMPO, ALEJANDR                                        20500
A0101410850109088909001DANIEL B.                                               20500
A1001400350233528399003KO, CHARMAINE                                           20500
A6601400120314714452001CONSEBIDO, GILBERT                                      20500
A0101402480331224187001DANIEL TAN                                              20500
A0101402480331585752001SISON, ROLANDO                                          20500
A0101402060351009385001NELIA ALOMBRO                                           20500
A0101402060351503188001CANAYON, IVAN PH                                        20500
A0101409050352647812001JOHN PAUL P. BAN                                        20500
A0101405490392351448001OR EDUARDO D. PANINGBATAN                               20500
A0101408400394427962002SALONGA, MA. DAN                                        20500
A0501400170481350375002CUA, MARIA LUISA                                        20500
A1401400110492047646001ENTERPRISES                                             20500
A2201400250561478374066MEMBERS OF NATASHA                                      20500
A0101404260611047317001RESEARCH SERVICE                                        20500
A0101407690652160042001TERESA PASTRANA                                         20500
A0101407690652298552010SHOECAT INC.                                            20500
A0101407690652298552012SHOECAT , INC.                                          20500
A0101407690652478374179SHOECAT INC                                             20500
A0101407690652520766005SHOECAT INC.                                            20500
A0101407690652520766035SHOECAT, INC.                                           20500
A0101407690652525001012OF SHOECAT, INC.                                        20500
A0101407690652525001036OF SHOECAT INC.                                         20500
A0101407690652525001047SHOECAT INC.                                            20500
A0101407690652525001053SHOECAT INC.                                            20500
A0101407690652525001056OF SHOECAT INC.                                         20500
A0101407690652525001077SHOECAT INC                                             20500
A0101407690652609264004MILA DE JESUS                                           20500
A0101407690652768531001OR JOSEFA RICASA                                        20500
A2801400100712507515001PINEDA, RAUL PER                                        20500
A0601400230891738531001TAYAO, GILBERT A                                        20500
B0101404130000000001263DYNASTRUCT INC.                                          1605
B0101404260000000003710KIDDO ACADEMY & DEVELOPMENT CENTER                       1602
B3101400870000000074899BALITE, G DBU BTG BUILDERS & SUPPLIES                    1602
B0101407690000000243872PCT CONSTRUCTION & TRADING CORP.                         1601
B0101411110000000604959**********                                               1601
B0101411110000001037074NIECER TRADING COMPANY INC.                              1601
B0201400760000001612802CRUISERS PROPERTY MANAGEMENT CORP.                       1601
B0101400860011236251001**********                                               1601
B0101400860011389059003**********                                               1601
B0101401700041035489001LUSH ENTERPRISES CORPORATION                             1605
B0101400150061010688010SB CARDS CORPORATION                                     1610
B0601400100081042384001TAGUETE REALTY, INC.                                     1603
B0101400440161007542001PACE REALTY INVESTMENT INCORPORATE                       1601
B0101401090171008190002PSBA REGULAR                                             1630
B0101401380201025256001MESSE & HANDEL CORPORATION                               1601
B0101401380201041802001D'GLACIERS' MGM INC. - MAC                               1601
B0101407140213041784001RED DRAGON INDUSTRIES                                    1601
B0101407140213510054001FULL CIRCLE EVENTS ASIA, INC.                            1604
B0101411110276047842088CLIXLOGIC INC.                                           1602
B2601400270302038738001A.P.D. CONSTRUCTION                                      1602
B2601400270302043341001TOP SPEED MARKETING                                      1602
B6601400120314040691001NORTHERN SAMAR ELECTRIC COOPERATIVE,INC.                 1610
B0101402480331010044001SUPERCAST FOUNDRY & MACHINERY                            1610
B0101402480331020380001BOUNTY AGRO VENTURES, INC.                               1630
B0101402480331025385001****                                                     1604
B0101402480331033229013TGP DRUGSTORE                                            1603
B0101402480331033229026TGP DRUGSTORE                                            1603
B0101402480331033229029TGP DRUGSTORE                                            1603
B0101402480331038757003UNIFRAME ALUMINUM CORPORATION                            1603
B0101402480331449958001***********                                              1603
B0101402480331541505006PHARMAGENERICS, INC.                                     1603
B0101402480331748556006QUALIGEN PHARMACY CORP.                                  1603
B0101402480331748556013QUALIGEN PHARMACY CORP.                                  1603
B0101402060351029932002ROTARY CLUB OF PASIG EAST                                1602
B0201400890376052650001NEWSAN TRADING LTD. CO.                                  1605
B0201400890376052652001MANSON TRADING                                           1603
B0101402930381022284001INVESTORS ASSURANCE CORPORATION                          1601
B0101402930381724752001RBL TOOL & DIE CORP.                                     1610
B0101408790383039290001AUTO SOURCES INC.                                        1605
B0101402770391009441001ST. ANTHONY HOMEOWNERS' ASSOCIATION INC.                 1602
B0101408400394025635001KETMAR FASTFOOD CORPORATION                              1605
B0101408400394027797001BY THE YARD FABRIC CENTER                                1602
B0101408400394027823001COTTON TOUCH ENTERPRISE                                  1602
B0101412760476048068001BARBOZA JR., GAUDE DBU GAB MANP                          1601
B0101403450521441848001**********                                               1605
B0101404000551005040001VERNIDA REALTY DEV. CORPORATION                          1602
B0101404130601030412001EXODUS BROADCASTING COMPANY, INC.                        1605
B0101404130601506100005LINK RI LOGISTICS INC.                                   1603
B0101407720602035999001GALLANTRY SECURITY & INVESTIGATION                       1605
B0101404260611044359158GREAT ARCHER SALES                                       1603
B0101404420631701574001ARIOM TECH COMPUTER SYSTEM                               1606
B0101407690652042938001SIGNWOOD HARDWARE & LUMBER SUPPLY                        1603
B0101407560686032769001VALENZUELA PACKAGING CONTAINER CORP                      1602
B4101400420814039001001DOMINGUEZ TRANSMAN MACHINE WORKS CO.                     1601
B0101410300000000191586MEJIA, MELODY ANNE DBU MEE NOODLE BAR &                 11601
B0101404130000000696191PINAGPALANG SAMAHAN NG NAGKAKAISANG                     11601
B0101404840000001312270FIRST KINGSTON LEISURE AND SERVICES                     11601
B0101401090171031393001PIANO TEACHERS' GUILD OF THE PHILIPPINES                11602
B0101401090171031393002PIANO TEACHERS' GUILD OF THE PHILIPPINES                11601
B0101402060351009401001PHIL. IRON CONSTRUCTION & MARINE WORKS,                 11603
B0101407430503042216001HIGH COMMAND AVIATION SECURITY                          11605
B0101409890649033780001WATCH TOWER BIBLE AND TRACT SOCIETY OF                  11605
B0101410300000000191586RESTAURANT                                              21600
B0101404130000000696191MANGAGAWA MULTI                                         21600
B0101404840000001312270CORPORATION                                             21600
B0101401090171031393001FOUNDATION INC                                          21600
B0101401090171031393002FOUNDATION INC                                          21600
B0101402060351009401001INC.                                                    21600
B0101407430503042216001SERVICES CORP.                                          21600
B0101409890649033780001THE PHILS. INC                                          21600
B0101405230332821100608**********                                               2001
B0101408110515821100608**********                                               2005
B0101407690652821100608**********                                               2003
