A0101410720000000008642MC BUILT ENTERPRISES                                     0501
A0101411110000000009112**************                                           0502
A0801400160000000009492LORING, MARIA IA JOY ESPINOSA                            0502
A0101404680000000013509VILMA D. SAGAY                                           0501
A1101400120000000065103BELLO, TERESITA CASTARITAS                               0501
A1001400190000000124876JENNY CALDERON                                           0501
A0101412890000000125260ACADEMY OF CHRISTIAN EXCELLENCE                          0501
A0101406750000000172843GABAYNO, DELIA CHAN                                      0501
A0101406620000000193628ACEDILLO, MA. JULIET DASIG                               0502
A0101413990000000206033MARITES R. CONANAN                                       0502
A0101407720000000245214LEORNA, IRENE CASUBUAN                                   0501
A0101410560000000268371PERLITA C. IRIMAN                                        0501
A0101408370000000335631NANALE, MELYN PABUNA                                     0501
A0101402060000000358850CADIVIN, ELISEO BAJE                                     0501
A0101407560000000477845UY, LEONCIO SY                                           0501
A0101407690000000495410******                                                   0501
A2601400270000000561482WAYNE VINCENT U. CHUA                                    0501
A0101411660000000595331ANTON XANDRO S IBITA                                     0502
A1101400120000000652351YAO, RONALD PHILIP GO                                    0501
A0101401090000000772292ABRANTES, JOSE FRANCIS V.                                0501
A0201400890000000973519EMERALD BUILDERS                                         0501
A1001400480000001054700MEJARES, DARCY GARREN GAID                               0502
A1001400480000001054795ERENO, MARINA GALLANA                                    0501
A1001400190000001057454PANANDIGAN, MITCHELLE BACUNATA                           0501
A1001400190000001057556EMMA A. BARRETE                                          0501
A0101412210000001236162TIMBOL, JASON ALBERTO                                    0501
A0101400600000001335637**********                                               0502
A0101400860000001348692**********                                               0503
A0101401090000001618931ESCOBAR, MARIA LOURDES BARICAUA                          0501
A0101409050000001662357BARAO, JOYLENE CACACHO                                   0501
A0101413150000001688571******                                                   0502
A0101400730000001822657MARY JANE P. SHAKEEL                                     0501
A5501400120000002019023PINGOY, ALBERT YUSAY                                     0503
A0601400520000002085861R P QUIROZ TRADING                                       0501
A0101406750000002251281ALVAREZ, MA. PRECILLA MAURICIO                           0501
A0101411530000002260311**********                                               0501
A0101408820000002280133CHAN, JOHN NOEL UY                                       0502
A0101410720000002283930LADIA, APRIL IRIS RUPIDO                                 0502
A1301400470000002299847CLAMONTE, FERDINAND DEL ROSARIO                          0501
A0101407560000002307535BONDOC, MIGUEL LOPEZ                                     0502
A0201400920000002804480MIRANDA, SAMMY                                           0501
A0101404680000002846013MEMBERS OF NATASHA ( SHOECAT IN                          0501
A0101400730000002882222LAGRIMOSA, JOEMARLO BALONON                              0501
A0101410980000002987075GEORGE GO OR ELISA NGO                                   0502
A0101410980000002987086**************                                           0502
A0201400890000003410226*****************                                        0501
A0101400860011388241003**********                                               0502
A0101400860011421335001********                                                 0502
A0101400860011447798002**********                                               0502
A0101400860011479962001**********                                               0502
A0101400860011495265001**********                                               0502
A0101400860011496074002**********                                               0501
A0101400860011541134002**********                                               0502
A0101400860011770533001**********                                               0505
A0101400860011774698001**********                                               0505
A0101400150061337099199ARLENE C. YU                                             0501
A0101400150061374499002SYLIANTENG, BENEDICT EMANUEL PA                          0501
A0101400150061430140001**********                                               0501
A0101400150061501754001LOPEZ, MANUEL MORALES                                    0501
A0101400150061541767001INGENIERO, SIEGFRED CANDELARIO                           0501
A0101400730111334903027NELSON MANALILI                                          0501
A0101406040112094295001********                                                 0501
A0101407270162606606001ROSANNA S. MERCADO                                       0501
A0101401090171197427002LEVINA D. ZUNIGA                                         0504
A0101401090171198513001CORAZON DE CASTRO TAN                                    0501
A0101401380201436370001MONSALE, MENLY ABENOJA                                   0501
A0101401380201712683001MARCELO, EUGENE MANALANG                                 0501
A0101401380201776189001********                                                 0501
A0101407140213190792002**********                                               0502
A0101407140213427809001**********                                               0501
A3101400160221478374009GINA A. FACUN                                            0501
A3101400450223576401001GALLEGO, DHARIA CAJAYON                                  0502
A1001400190231282055002PIOUS SOCIETY OF THE DAUGHTERS                           0501
A1001400190231511493001GALAGNARA, JUVY DAIS                                     0501
A1001400190231520766051NANCY DAAYATA                                            0501
A1001400190231520766119CABANO, BERNADITH CATIWALAAN                             0502
A1001400190231577958001GORDIEL, JAMES LESTER UY                                 0501
A0101401670271621865001***************                                          0501
A0101401670271681826001PALMA, GLENN ARSUA                                       0501
A0101400570281360412001DR. LONABEL A. ENCARNACION                               0502
A0101400570281663653001OCAMPO, ELIZABETH JOAN ESGUERRA                          0503
A0101402480331219193002**********                                               0504
A0101402480331393187002**********                                               0501
A0101402480331400165001JENNIFER C. KAW                                          0502
A0101402480331407902001***************                                          0502
A0101402480331478374162*****************                                        0501
A0101402480331497664001*****                                                    0501
A0101402480331520766048KISMUNDO, ALICIA                                         0501
A0101402060351043801001EMICOR MARKETING                                         0501
A0101402640361478374071RANIEL B. CALIPES                                        0501
A0201400760374698691001CORONEL, ANALIZA ARELLANO                                0501
A0201400760374720031001******                                                   0503
A0101408400394037996001*******                                                  0501
A0101408400394089542001CRYSTAL FRIAS LAUNDRY SERVICES                           0501
A0101408400394089542001CRYSTAL FRIAS LAUNDRY SERVICES                           0502
A0101408400394160344001CALMA, ALFREDO MATAGA                                    0504
A0101408400394163404001PILI, JUANITO AROLFO                                     0501
A0101408400394478374021BALDEVARONA, SALLY                                       0502
A0101408400394550481001FELICIANO, LEONARDO LAPUZ                                0501
A0101408400394570764001SERGIO, ANNIE FRIAS                                      0502
A0101408400394717440001RICANA, IVONNE PEDRAGOZA                                 0502
A0101408950396695350001ARANDIA, EDSEL FERNANDEZ                                 0501
A2401400180411294544008KING, JACKIE TIU  JT                                     0505
A0101403030441241050001**********                                               0503
A0101403320471402087001CECILIA L. DIAMANTE                                      0502
A0101406330472657550001**********                                               0502
A0101410140475478374003ERLINDA P. MABINI                                        0501
A0101407430503488909001MARIANNE L. LEDESMA                                      0502
A0101406880513389429002PEREZ, WILMA GONZALES                                    0502
A0101403450521239777001**********                                               0501
A0101403450521241165001**********                                               0501
A0101407720602161917001GOYLOS, LORENA CALVO                                     0501
A0101407720602299636001GREGORIO GERRY F. FERNANDEZ                              0502
A0101404260611490335001TAN, MARIA JENALYN TULIAO                                0501
A0101404680651230380001ROMEO C. RUBI                                            0501
A0101404680651478374173MARIBEL L. VALDEPENAS                                    0501
A0101404680651478374180PRISCILA B. RUBIO                                        0501
A0101404680651520766085LORENA L. REDUTA                                         0501
A0101404680651525001030JULIET M. ANTONIO                                        0501
A0101404680651572326001NECITA Z. QUINTO                                         0501
A0101404680651775883001ELSA B. LUCRIDA                                          0501
A0101407690652034806001BROWNFLY COMMERCIAL                                      0504
A0101407690652038973001********                                                 0502
A0101407690652399727002QUIAMCO, CONSOLACION GIVA                                0501
A0101407690652691934001ALDAY, VANESSA MAE GIDA                                  0501
A0101410720653173641001ISMAEL, LOLITA FABRE                                     0502
A0101410720653478374046MONALIZA F. MALDONADO                                    0501
A0101410720653478374048VILLAFLOR E. OPELADA                                     0501
A0101410720653624279001FLORES, LEANDRO PAUL BELTRAN                             0501
A1301400210682478374062MA. ERLINDA C CHUA                                       0501
A1301400210682676826001ANDREW I GALINDON                                        0501
A0101407560686550325001GEORGE LEO C. GO JR.                                     0503
A0101408240711219571001MERCEDES M. OLIVER                                       0501
A0101408240711557981001PETALVO, CARINA MARTIRES                                 0501
A4101400260812047982001ROYAL RED ENTERPRISES                                    0501
A4101400260812343658001DRA. ARDITH B. DOMINGUEZ - TAN                           0505
A4101400260812423341001ESTEFANIA B. RANDOY                                      0505
A4101400260812640850001EMETERIO P. LOPIO JR.                                    0501
A4101400390813248327001SARIEGO, DANILO BAGONA                                   0501
A4101400390813517833001MERIADO, RANDY CAMO                                      0504
A4101400420814520766039SORIANO, JOAN MONTECILLO                                 0501
A4101400420814520766110DELA CRUZ, ARMINDA E.                                    0501
A0101406750852529156002DONGUINES, FLORDELIZA EULLARAN                           0501
A4101400260000000048713MANUEL SILVESTRE II OR                                  10501
A0101410720000000234819MONTOJO, MIGUEL GARIANDO OR                             10501
A1101400120000000652584LARIDO, HERMENIO C. OR                                  10501
A2201400250000000970656TATSUYA YAMAMOTO                                        10501
A0101401090000000993295VALMOJA, ESTELA OR GERARDO OR                           10501
A1301400470000001299032ARNOLD PASCUAL OR JAYSON CANDEL                         10505
A0101411240000001563468ENRIQUEZ, FRANCIS XAVIER GARCIA                         10501
A0101401090000001618800ESCOBAR, MARIA LOURDES OR                               10502
A1301400470000002299858ERICSON CHUA OR OLIVER CHUA OR                          10503
A0601400230000002650119WILFREDO'S GENERAL                                      10501
A0101410850109055102001MANGUNAY, ROLANDO JT DBU R.P.M.                         10501
A0101407270162163292001ANICETO P. GO                                           10502
A0101401090171198157001DRS. WILLIAM OR                                         10510
A0101401090171403802001SOLIS JR., FERNANDO REGALADO                            10501
A0101401090171787698001INGUSAN, CRISTINA TOLENTINO OR                          10502
A3101400450223019932004SAN PABLO CITY (HOST) LIONS                             10502
A3101400450223352819001FARAON, RIZALINA OR                                     10502
A0101406620273285955001SANTOS, ROMMEL G. OR                                    10501
A0801400160311267069001MA. JIZA BARREDO OR MANUEL                              10502
A2001400290315790366001KIRIT, GRACE UY                                         10501
A0101402510341236976001FR. JOHN ANTHONY KEENAN OR                              10502
A0101408400394420150001CARDENAS, RUBEN OR CARDENAS                             10501
A0101408400394462068001ABBAS, ANIAH MALOMALO OR                                10502
A0101403320471400801001MARILEN I. CRUZ                                         10503
A0101406880513375156001LIBUNAO, RHONEIL ISON OR                                10502
A2201400250561478374019ELOISA F. VIGILIA                                       10501
A2201400250561478374049LUCRECIA D. ALARILLA                                    10501
A0101407720602164307001GABRIEL G. GABRIEL M.D. OR                              10502
A0101404260611416131001ORA, ROMEO FOLLOSCO OR                                  10501
A0101404680651174541001CARLOS, RODRIGO OR                                      10501
A0101407690652478374145MA. ROUMELA LUISA MIJARES -                             10501
A0101407690652520766005GILNNA M. MALIGAT - DEALERS OF                          10501
A0101407690652520766009SHERILL S. LOPEZ - DEALERS OF                           10502
A0101407690652525001067MAILA M. NACIN - DEALERS OF                             10501
A0101407690652525001075DOCDOCIL, GELITA - DEALERS OF                           10501
A0101407690652544268001DUENAS, MARITESS AREVALO                                10501
A2801400100712564179001GALLARDO, ELLEN MANIAGO      JT                         10502
A4101400260812041696001LUCKY RED CONSTRUCTION AND                              10502
A0101406750852620298001EMILY COLINA OR DOMINGO                                 10501
A0101406750852687669001ALVAREZ, PRESENTACION M. OR                             10501
A4101400260000000048713KRISTINE SILVESTRE                                      20500
A0101410720000000234819MONTOJO, ELIZABE                                        20500
A1101400120000000652584LARIDO, HARVIET MAY 0.                                  20500
A2201400250000000970656EMPLOYEES OF IEWPC                                      20500
A0101401090000000993295VALMOJA, ROQUITO                                        20500
A1301400470000001299032ARIA OR ROCKY HIPOLITO                                  20500
A0101411240000001563468OR ENRIQUEZ, CARMELITA M.                               20500
A0101401090000001618800PROCESO OR LEONILA                                      20500
A1301400470000002299858GLAYNORRITZ CHUA                                        20500
A0601400230000002650119MERCHANDISE                                             20500
A0101410850109055102001ENTERPRISES                                             20500
A0101407270162163292001OR MILDRED GO                                           20500
A0101401090171198157001MA. SALVE OLALIA                                        20500
A0101401090171403802001OR JUVY SOLIS                                           20500
A0101401090171787698001INGUSAN, ARFINE                                         20500
A3101400450223019932004CLUB                                                    20500
A3101400450223352819001BELEN, RHODORA                                          20500
A0101406620273285955001SANTOS, VILMA T.                                        20500
A0801400160311267069001JOSEPH BARREDO                                          20500
A2001400290315790366001OR KIRIT, CAROLE                                        20500
A0101402510341236976001FLORENCIA F. CASTRO                                     20500
A0101408400394420150001MARIVEL                                                 20500
A0101408400394462068001ABBAS, JOHN-SACA                                        20500
A0101403320471400801001OR DENNIS MICHAEL CRUZ                                  20500
A0101406880513375156001LIBUNAO, DIANA C                                        20500
A2201400250561478374019MEMBERS OF NATASHA                                      20500
A2201400250561478374049MEMBERS OF NATASHA                                      20500
A0101407720602164307001CAROLINE C. GABRIEL                                     20500
A0101404260611416131001JOSEFINA                                                20500
A0101404680651174541001CARLOS, NORALYN                                         20500
A0101407690652478374145DEALERS OF SHOECAT INC.                                 20500
A0101407690652520766005SHOECAT INC.                                            20500
A0101407690652520766009SHOECAT INC                                             20500
A0101407690652525001067SHOECAT INC.                                            20500
A0101407690652525001075SHOECAT INC.                                            20500
A0101407690652544268001OR ZHIVAGO                                              20500
A2801400100712564179001OR MONCERA, JIM                                         20500
A4101400260812041696001TRADING                                                 20500
A0101406750852620298001COLINA JR                                               20500
A0101406750852687669001ALVAREZ, MA. PREcilla m                                 20500
B0801400160000000010231RD CASH PADALA, INC.                                     1603
B0101408110000000016691CASUAL CLOTHING RETAILERS, INC.                          1610
B1001400480000000133593DELUXE RANCH TRANSPORT CORPORATION                       1602
B0201400760000000223032SAM SOWAH SHIPPING CORPORATION                           1601
B0101404680000000697930JOBSFINDER PLACEMENT AGENCY, INC.                        1601
B0101406590000000905602HILLS & DREAMS EVENTS CONCEPTS CO.                       1601
B4101400260000001198892PHOENIX READY MIX CONCRETE DEV. & C                      1610
B0101400150000001708550LASCAS SOUTH HOLDINGS CORP.                              1601
B0101407560000002152585JM BONDOC AUTO BATTERY TRADING                           1602
B0101400860011398964001***********                                              1603
B0101400860011409046003**********                                               1601
B0101400150061011199001M.F.T. DEVELOPMENT CORPORATION                           1603
B0601400100081042604002CRK LUMBER AND HARDWARE                                  1605
B3101400450223022719001GENCARS SAN PABLO, INC.                                  1610
B1001400190231272348001LAO, SHERWIN                                             1602
B0101401670271007087001BELSON SECURITIES, INC.                                  1610
B0101406620273047215001UMIC INTERNATIONAL, INC.                                 1602
B0101406620273047215001UMIC INTERNATIONAL, INC.                                 1602
B2001400290315044204001ACEBANK CREDIT, INC.                                     1601
B0101402480331010347001****                                                     1605
B0101402480331031150001UNIGOLDEN INDUSTRIAL COMMODITIES INC                     1602
B0101402480331034503001*******                                                  1601
B0101402480331034755001EUROSEAL INDUSTRIAL PARTS SALES                          1601
B0101402480331045588001OROSEAL INDUSTRIAL PARTS SUPPLY                          1601
B0101402480331243281001**********                                               1620
B0101402480331300895002********                                                 1603
B2401400180411034414001DADIANGAS GLASS AND CONSTRUCTION                         1605
B2401400180411055615001SOUTHERN VENTURE POULTRY FARM INC.                       1601
B0101403320471040565001HUMAN SHELTER REALTY CORPORATION                         1602
B0101410140475046427001EQUAL LENDING INVESTOR CORPORATION                       1610
B0101407720602026114001**********                                               1603
B0101404680651009964001PINAKAMASARAP  CORPORATION                               1610
B0101407690652042381001AUGUSTO S. DE JESUS FARM & LIVESTOCK                     1602
B0201401020000000005034PINOY ENTREPRENEURS FOR SUSTAINABLE                     11602
B1001400190231282055001PIOUS SOCIETY OF THE DAUGHTERS OF                       11602
B0101404840851214607001KAWASAKI EMPLOYEES MULTI-PURPOSE                        11605
B0201401020000000005034OPPORTUNITIES                                           21600
B1001400190231282055001ST PAUL                                                 21600
B0101404840851214607001COOPERATIVE                                             21600
B0101400150061821100608**********                                               2050
B0401400270242821100608**********                                               2010
B0101402060351821100608**********                                               2005
