A5501400120000000003152MENOR, EDWIN DEMEGILLO                                   0501
A0101406750000000017427ANTONIO, ARNALDO QUILATAN                                0501
A1901400290000000030800JMARK MICROCREDIT CORPORATION                            0505
A0101401700000000040251**********                                               0503
A0101413020000000056897MALIKSI, CHRISTINE USITA                                 0501
A1301400470000000061372MARCHELLE TRADING                                        0503
A0101404840000000122590DIVINA CRYSTAL                                           0501
A0101400310000000140996DE VERA, MARITESS BAUTISTA                               0501
A0101402640000000201914OMPOD, RANAH JANE PADILLA                                0501
A0101401960000000211069TAN, ANTHONY DIAS                                        0505
A1301400500000000213436ROSALINDA P. CASTILLO                                    0501
A0101405490000000355593EMILY C. PALLON                                          0501
A2401400180000000428051EGOS JR., JEMMERITO CASANA                               0501
A0101411790000000469410RELLORA JR., WILFREDO ESCANILLA                          0501
A0501400170000000495290VELASCO, NORMAN MARTINEZ                                 0501
A0101410140000000499407EDORIA, MLE VALVE ENTERPRISE                             0502
A0101412180000000501482********                                                 0502
A0101404000000000574629RAGAZA, MARIA CRISTINA CALUAG                            0501
A0101412050000000578241SAHAY, LARISSA KALYAN                                    0502
A0101408530000000594150FABRIAG, MARILOU DACUTANAN                               0501
A0101408530000000594190CANZON, MARIA SALUD CHAN YUNGCO                          0501
A0101408530000000594207CASAS, MA LOURDES GOJAR                                  0501
A0101408530000000594218CARPIO, CARMEL JOAN RANCHEZ                              0501
A0101413440000000702156PASOS JR., ARSENIO WANIA                                 0501
A0101412630000000801552GOMEZ, MARY GRACE FUENTES                                0501
A0101412630000000801552GOMEZ, MARY GRACE FUENTES                                0501
A0101400310000000851354DOMINO, JUAN                                             0501
A0101400310000000851354DOMINO, JUAN                                             0501
A0101401250000000907244VILLANUEVA, MINERVA CATAPANG                             0504
A3001400130000000931333K AND S ENTERPRISES                                      0502
A0101409050000000939282RULONA, ELEAZAR MALIGRO                                  0501
A0101412340000001017827BALLELOS, KAREN RAMOS                                    0502
A0101412890000001056564VILLANUEVA, MICHAEL DIZON                                0502
A0601400230000001062413ALBANO, SONIA MIRANDA JT                                 0501
A0101413310000001073881MACATANGAY, ORLANDO ISIDORO MAS                          0501
A0101405490000001092682TOMAS C. FALCIS                                          0501
A0101405490000001092706LEVIE E. NAPIGKIT                                        0504
A5501400120000001121975SALCEDO, MARY GRACE NOTARTE                              0501
A3001400130000001271523BERRYL DRUG CORP.                                        0502
A0101409210000001294413MAMARIL, RASHIEL SOBREVILLA                              0501
A0101409210000001294424CAMA, CHRISTOPHER CATIG                                  0501
A0101409210000001294435ELUMBRE, VENUS LIM                                       0501
A0101412920000001313871PABALAN, PHILBERT DISONGLO                               0501
A0101412920000001313882ZULUETA, MAJA PATAGAN                                    0501
A1301400500000001412333MA LICCEL Q. DELA CRUZ                                   0501
A1301400340000001415634********                                                 0501
A0101406750000001491794TOLENTINO, ROSALINA SABATER                              0501
A0101402640000001536625SIA, VIVIAN VILLANUEVA                                   0501
A0101402640000001536636PELAEZ, GREGORIO REGALA                                  0501
A0301400820000001554930ABAYON, ROAN T.                                          0501
A2401400180000001676980BAUTISTA, LUELLEN MABITAD                                0502
A0101400150000001707984ABANILLA, JOSE ALBERTO LIGON                             0501
A2401400180000001935793PACULANAN, NORMA REPONTE                                 0501
A0101401960121370725001**********                                               0501
A0101401830141206540001MEGA NURSERY ORCHIDS                                     0505
A0101401830141336007001ELPIDIO Y. DELOS REYES                                   0501
A0101407270162458099001CHANDA F. ESPIRITU                                       0501
A0101407270162597281001RAYMUND T. TOLENTINO                                     0501
A0101401090171033023002EXCELINK INSURANCE AGENCY                                0502
A0101400310211478374087PAMBID, ALICIA                                           0501
A0101400310211753220001GERMABI CORPORATION                                      0502
A3001400130230478374021LOZADA, ROSITA R.                                        0502
A1001400190231520766117TAROY, MARIONNE ANGELOU SALEM                            0502
A1901400290261355605001PAZ CRISTIANA TIAMSIM LANDICHO                           0501
A1901400290261530754002DESSIRE MALALUAN ONG                                     0501
A1901400290261567865001ALEX IAN SISON DE LA CRUZ                                0501
A0101406620273311311001JERRY PEREZ &/OR ROLLY PEREZ                             0503
A0101400570281327832001REYES, JOSE MARI AGUILA                                  0505
A0101405650322498457001SAYAS, PONCIANO AGNO                                     0502
A0101402060351039467001LAY BARE WAXING SALON                                    0502
A0101402060351039467003LAY BARE WAXING SALON                                    0502
A0101402060351039467004LAY BARE WAXING SALON                                    0501
A0101402640361458981001PADILLA, ROSILITO FABRO                                  0505
A0101402640361478374057MELISA D. VALENCIA                                       0502
A0101402640361478374074MARIANO, LOLITA MIRANDA                                  0501
A0101402640361634911001**********                                               0502
A0101403030441303194001**********                                               0505
A0101403580511156706005JONATHAN MARQUEZ                                         0501
A0101403580511686241001TOLENTINO, FRANCIA SALAZAR                               0501
A0101404000551150316001JOCELYN A. CASTRO                                        0505
A2201400250561428755002*******                                                  0502
A0101404420631478374130SUSANA S. TIANGCO                                        0501
A0101410720653452116001VIRGILIO R. BACQUEL JR.                                  0501
A0101410720653478374010SOCORRO JIMENEZ                                          0502
A0101410720653478374034CONCHITA B. LOR                                          0502
A0101407560686223955001***********                                              0502
A0101407560686314663001***********                                              0503
A1701400230693478374047BENITO, ROVILLA GOODALE                                  0501
A2801400100712311102001CHARINA N. HIPOLITO                                      0501
A0101404840851478374012SAPORNO, ANNABELLE G.                                    0501
A0601400230891614688001OLALIA, LUZ FLORES                                       0501
A0101401099000001611450JOSEPHINE B. GONZALES                                    0501
A1901400290000000135242PEAKSUN MARKETING AND                                   10501
A5001400170000000170163LIM, WERNER W OR LIM, MA. ELENA                         10505
A0101407270000000997748VICTORIA MICHELLE TAMAYO OR                             10501
A0101410980000001154443JOSE MARI SANCHEZ OR                                    10501
A2201400250000001545579GINA MONTALBAN                                          10501
A0101413570000001682588MARY C. CHUA DBU:                                       10502
A0301400790000001776127TAN, CHARLIE SANCHEZ DBU                                10501
A0301400790000001776138ESCAMIS, JOSE PACLAR DBU                                10501
A0101410720210228523001VIGILIA, REYNALDO ROBLES OR                             10501
A0101400310211198969001ESGUERRA, FLORITA OR ESGUERRA,                          10502
A0101402060351009359003JIANDANI, SURESH G. OR                                  10501
A0101402060351211631001VILLONGCO, DOLORES G. OR                                10501
A0101405940512462757003TERESITA CUEVAS/HELEN JAVINAR/                          10502
A2201400250561478374062JENNIFER M. MARTINEZ                                    10501
A0101410720653528817001VINCENT GONZALO SY OR TIMOTHY                           10502
A0101408240711396310001LESTER C. VICTORIA OR                                   10502
A0101404840851212628001CARLOS JR., ALFREDO AREVALO OR                          10503
A1901400290000000135242MANPOWER SERVICES                                       20500
A5001400170000000170163 M DBU PRIMUS VE                                        20500
A0101407270000000997748ALESSANDRO TAMAYO                                       20500
A0101410980000001154443JENNY SANCHEZ                                           20500
A2201400250000001545579MEMBERS OF NATASHA                                      20500
A0101413570000001682588M.C. CHUA TRADING                                       20500
A0301400790000001776127CSTAN MERCHANDISING                                     20500
A0301400790000001776138ESCAMIS BUILDERS                                        20500
A0101410720210228523001VIGILIA, ELEANOR GAY CRUZ                               20500
A0101400310211198969001SOTERO                                                  20500
A0101402060351009359003JIANDANI KAVITA                                         20500
A0101402060351211631001AGIAS, CYNTHIA M                                        20500
A0101405940512462757003JOHN DEE FLORES                                         20500
A2201400250561478374062MEMBERS OF NATASHA                                      20500
A0101410720653528817001JON SY OR JULIE                                         20500
A0101408240711396310001GIL JOSE E. PULUMBARIT                                  20500
A0101404840851212628001FE G. CARLOS                                            20500
B0101412890000000007007CREATIVE FILES INC.                                      1603
B0101400310000000019321M&K MOTOR SALES NAGA INC.                                1605
B0101406880000000027227METROGUARD SECURITY SERVICES INC.                        1602
B0101410720000000029963*****                                                    1601
B0101402640000000032668GOLDEN 8 DISCOVERY LEASING CORPORATION                   1601
B0101412180000000038031CNG PRIME HOLDINGS INC.                                  1601
B0601400100000000142178WENSHA ANGELES CORP.                                     1602
B0101407140000000266313LYNDON STRONG BUILDER, INC.                              1602
B0101403580000000383777CSA BATCH 89 INC.                                        1601
B0101404000000000461016S.C. MEGA WORLD-PHILAB JOINT VENTUR                      1602
B0101401700041479540001MULTIPARTSBOY INCORPORATED                               1615
B0101400150061010834001CITY OFFICE EQUIPMENT, INC.                              1604
B0101400150061010838003INFORMATICS COMPUTER INSTITUTE, INC                      1605
B0101400150061015841002ENZIMA INTERNATIONAL, INC.                               1602
B0601400100081013030001SEVERINA REALTY CORPORATION                              1602
B0601400100081013041001SEVERINA REALTY CORPORATION                              1604
B0101400310211036601001*****                                                    1601
B01014003102110421380011250 DEVELOPMENT CORPORATION                             1603
B0101407140213007800001ABLAZA-ZAMORA ENTERPRISES                                1602
B0101407140213033531001ZKS TRADING PHILIPPINES                                  1601
B1901400290261013980001VIC IMPERIAL APPLIANCE CORP.                             1602
B1901400290261038035001LMI GROUP FOOD CO. LTD.                                  1602
B2001400290315688888001**********                                               1610
B0201400890376037020001BREEDERS AGRIVET SUPPLIES INC.                           1605
B0101405490392030564001NEW FS COOL AIRE INDUSTRIES, INC.                        1603
B5501400120410043181008HOME CARE MARKETING                                      1602
B0501400170481041189001KONSEPTO FOOD HOLDINGS CORPORATION                       1602
B0501400170481528391001KONSEPTO DAGUPENO INCORPORATED                           1602
B1901400160491030520001VETS IN THE CITY VETERINARY CLINIC                       1601
B0101403580511015363072MEC - EMD ANGONO                                         1610
B0101403580511016440001SUGI MANAGEMENT CORPORATION                              1604
B0101403580511155828001JOUBERT CONSTRUCTION INC.                                1610
B0101405940512038013001CORINTHIAN COMMERCIAL CORPORATION                        1601
B1301400210682016750001JFL AGRI VENTURE SUPPLIES                                1605
B2801400100712023513001SMA FUELS INC.                                           1601
B4101400390813036410001THE BOAT SHOP CORPORATION                                1602
B0101406750852033630001NEO-TES CONSTRUCTION SERVICES                            1601
B0101402640000000032646CORREOS, RONALD & CHUA, PH HERMELINA &                  11605
B0101405650000000772703BASE SECURITY AGENCY & INTER - INV. INC.                11602
B0101404420631702579001ROSITA B. SAMONTE OR                                    11601
B0601400230891030219001ALPHA SIERRA INDUSTRIAL SOLUTION CORP.                  11602
B0101402640000000032646CORREOS, JESSIE                                         21600
B0101405650000000772703BSAI                                                    21600
B0101404420631702579001RENATO J. TAYAM                                         21600
B0601400230891030219001(ASISCO)                                                21600
B0101400570281821100608**********                                               2005
B0101413440655821100608**********                                               2003
