A0101410560000000020195LELIANE D. TORRES                                        0501
A1301400760000000050568VICTOR DEL ROSARIO ENTERPRISES                           0502
A1001400190000000124683ABCEDE, CARMENCITA A.                                    0501
A0101408240000000347288MIRCHANDANI, SHERYL SHAM JT                              0501
A0101404840000000475952GONZALES, ROWENA POLLICAR                                0501
A0801400160000000476346TSC SUPREME MOTOR SHOP                                   0503
A0101406590000000568667MAYUGA, TERESITA ALVARAN                                 0501
A0101408820000000800199MARILOU B. LEUTERIO                                      0501
A0101412470000000853834**********                                               0501
A0101407690000000913600MARQUI AUTO SUPPLY                                       0502
A1001400350000000922321LIBRON, NANETTE RANISES                                  0501
A0301400530000001010033YABUT, ELVIS G.                                          0501
A0101412340000001017656SERAFIN DELA CRUZ MOLDEZ                                 0501
A0101405940000001047307PRIMA, MARIA PRESCILLA P.                                0501
A0101410140000001074726PADILLA, ALLAN ABABON                                    0501
A0101406330000001235329BALUARTE TRUCKING                                        0502
A0101404840000001312634GARCIA, LEAH DEGUINON                                    0501
A0101413440000001472908BERMIDO, JAIME BUENAFLOR                                 0503
A0101408790000001486251SARIGAN, YOANNA MAE ORIBELLO                             0501
A0901400220000001805090CHAN, OLIVER CHUA                                        0502
A0101410560000001944112AVELINO, JIRENE LANTORIA                                 0501
A4101400550000002091010UNIFIL MANPOWER RESOURCES                                0501
A6601400120000002249772ADARAYAN, MA PAZ ORTEA                                   0502
A0101411820000002328452GENISES C. SOLOMON                                       0502
A0101404420000002871281RENATO B. CALIXTO   JT                                   0501
A0101412340000003343002MIA GRACE V. ESPIRITU                                    0501
A0101412340000003349313BERNARDO C. TRINIDAD                                     0501
A0101412340000003349706MARIA GRACIA T. VIZCARRA                                 0501
A1401400110000003475741ZETA, JENNELYN LONTOC                                    0502
A0101409050000003536441BARICAUA, PRETZILL ROSE                                  0501
A0101409050000003641945KHAN, MOHAMMED                                           0501
A0801400160000003675850GULFO, GERRY MORATA                                      0501
A0101401090000003766683LUCIDO, NERLYN R.                                        0501
A0101400860011550744001**********                                               0502
A0101401250021184135001MITRA, LAARNI RIVERA                                     0502
A0101401250021653593001SOLANOY, JENNIFER BRIONES                                0501
A0101401250021688004001SENEN O. GOLI                                            0502
A0101401700041342964001GENEROSA ANG OR PETER ANG                                0510
A0101400150061227864001DENNIS IGNACIO                                           0503
A0101400150061707501001ANG, JEANILLE ALYANNA UY                                 0501
A0101400600071523030001*************                                            0501
A0101405810072385132001***********                                              0503
A0101405810072387220001**********                                               0502
A0101405810072580083001********                                                 0501
A0101400730111585447001VELASQUEZ, WENCY DALISAY                                 0501
A0101406040112647403001MICHAEL HICKS OR ROBBYLYN C. SO                          0503
A0101401960121239446001**********                                               0501
A0101400310211075532001RIGOR, CHAIRRA MAE ABAYA                                 0501
A0101407140213193100001**********                                               0501
A0101407140213403392001**********                                               0501
A1001400190231276909002**********                                               0501
A1001400190231478374090HOY, MINELLYN J.                                         0502
A1001400190231478374116ESTRELLITA E. BERMUDEZ                                   0502
A0101400570281704666001AMANCIO, EMILIE NOCHE                                    0502
A2601400270302561307001MEDEL C. RAMIREZ                                         0501
A0801400160311265752001DIVINAGRACIA, LLANE GRACE                                0502
A0801400160311494221001JUCABAN, LEO LAGOS                                       0501
A6601400120314612866001ALCERA, JUNELL PAUL OR JENNIFER                          0503
A2001400290315041683001MINDANAO SIBULAN MACHINE SHOP                            0502
A0101402480331478374109CARABBACAN, SALLY                                        0502
A0101402480331559512001*********                                                0504
A0101408820333294018001*****                                                    0502
A0101402510341045146001GOLDEN DIMSUM FOOD EXPRESS                               0502
A0101402510341433983005********                                                 0505
A0101402060351632932001MANCILLA, ABIGAIL SARDILLO                               0502
A0201400890376041968001KERSHUN'S GENERAL MERCHANDISE                            0502
A0101408370382035804001TMC DEPARTMENT OF OPHTHALMOLOGY                          0501
A0101408370382418195001MOISES T. CLAVERIA JR.                                   0501
A0101408950396084257001HIZON, MARIA POMPEIA ILAGAN                              0502
A0101408950396581982001MARIA ADELAIDA M. IBOLEON-DY                             0503
A0101406330472542494001TEODORA A. RAZON                                         0501
A3801400170490056258001VICAR ADVERTISING AND PROMOTION                          0501
A1401400110492444354001************                                             0502
A0101408530516578215030DELLA, TERRY JEAN SANTIAGO                               0502
A0101407720602241314001**********                                               0502
A0101404260611005236004WILTRON ELECTRONICS                                      0502
A0101404260611478374017BERTULANO, LUZVIMINDA                                    0502
A0101404260611478374081ROSITA VIVIT                                             0502
A0101404260611478374129RUBY VIRTUDAZO                                           0501
A0101407690652173311001RS JARDIN & ASSOCIATES                                   0505
A0101407690652455653001PEREZ, EDGARDO OR PERLA                                  0501
A0101406590662693253001BOCALA, JULIET TORRIFIEL                                 0501
A0101407560686172632001JAMES B. VERGARA                                         0501
A0101408240711384303001RUFINO P. MUTUC III                                      0501
A0101408240711397533001RONALD P. MERCADO                                        0501
A2801400100712639265001FARINAS, RICHARD FARINAS                                 0501
A0101404840851511006001RELLON, KATRINE DUNTUGAN                                 0501
A0101405070861032590001J-VEL-PIL TRANSPORT SERVICES                             0502
A0101405070861778105001CADEVIDA, SIMEON MEDRANO                                 0501
A0101413570000000206373MARY ANN C. REYES OR BENEDICT                           10501
A0101411370000000903571URBAN FONTS ADVERTISING                                 10503
A1101400120000000992332EJERCITO, CARLA D. OR                                   10502
A0101402770000001570725DBU CHRISTINE MANALO VILLAMORA                          10501
A4101400550000001622582RAMA,MARIA EVA M. OR                                    10501
A0101410560000001944050CARMELO, CHARY ISABEL JADE                              10501
A0101413990000001947140GOLDEN HANDS GLASS ALUMINUM                             10501
A0101406750000002950843CLEMENTE, VERLIE D. OR                                  10501
A0101401090171201876001SANDRA NAVARRA OR                                       10510
A0301400530193760685002AGUILAR, AGUINALDO V. OR                                10501
A3101400160221701165001MIRA GRACIOSA M SAMSON OR                               10501
A0101402060351211631001VILLONGCO, DOLORES G. OR                                10501
A0101409050352647812001MARIA LUISA L. SAPORSANTOS OR                           10502
A0201400920375502567001CELESTINO "DINO" DURANO SYBICO                          10502
A0101408370382205113001IMELDA V. DELA ROSA OR                                  10502
A0101408950396697080001DR. ROMULO L. MADRID OR                                 10503
A0101407690652478374131TARROQUIN, NORA - DEALERS OF                            10501
A0101407690652478374179LENIE ANDO - DEALERS OF                                 10502
A0101407690652525001083TULABING, VIOLETA - DEALERS OF                          10501
A0101407560686278289001GUSTIN PAGUIA OR                                        10501
A0101408240711396778001MA. FRANCESCA ROMANA OR                                 10501
A2801400100712507515001PINEDA, JENIPHER VISDA       OR                         10502
A0101413570000000206373MARIANETTO A. RE                                        20500
A0101411370000000903571SERVICES                                                20500
A1101400120000000992332EJERCITO, RONALD                                        20500
A0101402770000001570725INTERIOR DESIGNS                                        20500
A4101400550000001622582RAMA,VINCENT JEFFREY M.                                 20500
A0101410560000001944050CARATAO                                                 20500
A0101413990000001947140WORKS & SERVICES                                        20500
A0101406750000002950843ESGUERRA, LOUIE ABIGAIL N                               20500
A0101401090171201876001SALVADOR NAVARRA                                        20500
A0301400530193760685002AGUILAR, DINA C.                                        20500
A3101400160221701165001MIRA ANGELICA A MENESES                                 20500
A0101402060351211631001AGIAS, CYNTHIA M                                        20500
A0101409050352647812001JOHN PAUL P. BAN                                        20500
A0201400920375502567001III                                                     20500
A0101408370382205113001MA. LORRAINE V. DELA ROSA                               20500
A0101408950396697080001DR. EDNA M. MADRID                                      20500
A0101407690652478374131SHOECAT, INC.                                           20500
A0101407690652478374179SHOECAT INC                                             20500
A0101407690652525001083SHOECAT INC.                                            20500
A0101407560686278289001MARIA LEONILA PA                                        20500
A0101408240711396778001PHILIPPE SEYER                                          20500
A2801400100712507515001PINEDA, RAUL PER                                        20500
B0101409050000000022562ULTRAPAVE DEVELOPMENT CORPORATION                        1601
B0101410300000000026439GREENMANILA GARDENS AND LANDSCAPES, INC                  1605
B0101403320000000037567EESC CONSTRUCTION INC.                                   1601
B0101413310000000040002BIT SHIELD SECURITY CONSULTING INC.                      1601
B0201401020000000056324GRANZON JR., FILEMON CANETE                              1602
B0101413990000000206204R.R. ENCABO CONSTRUCTORS INCORPORATED                    1602
B1001400350000002048324GRAND CITY HOTELS, INC.                                  1610
B0101403580000002185388STA. MARTHA PROPERTY DEV. INC.                           1610
B0101412630000002186450**********                                               1602
B0101412630000002186461SUNLAND DEVELOPMENT CORP.                                1610
B0101401700041527619001Q.C. TOYOCARS MOTOR PARTS CORP.                          1606
B0101405810072018018001AIMWAY PLASTIC & PRINTING CORP.                          1602
B0301400530193641218168********                                                 1602
B0101406620273017284001ACCENT MICRO TECHNOLOGIES, INC.                          1605
B0801400160311268076001MACAVINTA, MA. THERESA L.        JT                      1610
B0101408820333034334001******                                                   1602
B0101408820333515192002BALTAZAR, MARIA ANDREA GIMAN                             1602
B0101402510341014966001CEUFAWU-SOP                                              1602
B0101402060351030802001PACIFIC RESINS INC.                                      1605
B2401400180411276067001GAISANO DADIANGAS, INC.                                  1610
B0101406330472020438001DAROMAR DEVELOPMENT CORP.                                1605
B1401400110492010154001RCBL-MARRIAGE TRIBUNAL OF LUCENA                         1602
B0101404130601542506001ELEV8 TRADING AND MARKETING CORPORATION                  1605
B0101404420631405133001*****                                                    1602
B0101407690652021052001OPTIC DESIGN, INC.                                       1603
B0101407690652029782001NATRACARE, INC.                                          1601
B0101407690652042938001SIGNWOOD HARDWARE & LUMBER SUPPLY                        1603
B4101400550815038465001SOUTHEAST ASIAN MEDICAL CENTER, INC.                     1601
B1301400340000000011963KATRINA CLARICE GARCIA AND JORDAN CONSTA                11601
B1301400500000000213414MATEA ESTEVEZ OR JOEY ESTEVEZ OR JOSEPH                 11603
B1101400120000000652391ONG, VIRGINIA PO OR ONG, WEE CHI PO OR                  11601
B0101413310000001928878FEDELICIO, PAUL NIKKI B. OR FEDELICIO,                  11601
B0601400100081253610002NG, WILFREDO M. AND AQUINO, JANET B. AND                11601
B0101402060351009401001PHIL. IRON CONSTRUCTION & MARINE WORKS,                 11605
B1301400340000000011963NTINE GARCIA                                            21600
B1301400500000000213414ANTHONY ESTEVEZ                                         21600
B1101400120000000652391ONG, WAN LIAN PO                                        21600
B0101413310000001928878MITZIE J.                                               21600
B0601400100081253610002BUAN, ROLAND S.                                         21600
B0101402060351009401001INC.                                                    21600
B0101401960121821100608**********                                               2003
B0301400370192821100608**********                                               2002
