A1901400290000000030800JMARK MICROCREDIT CORPORATION                            0505
A0101411950000000036320********                                                 0501
A0301400530000000066066MANGITNGIT, JESSA O.                                     0501
A0101400860000000100830**********                                               0502
A0101402510000000200062BERNALDEZ, LIGAYA MACALINTAL                             0501
A0101412920000000276373TANYAG, IMELDA BARJA                                     0501
A0301400790000000435892ANG, DANILO DEE                                          0501
A0501400170000000495290VELASCO, NORMAN MARTINEZ                                 0501
A0101405650000000525740SARTE, EVELYN CORTEZ                                     0503
A1301400210000000540834******                                                   0501
A0101414120000000649105NESTLEE TRUCKING SERVICES                                0505
A1901400320000000679238JOSELITO LUNA DE LUNA                                    0501
A0101410690000000710741FAJARDO, MARIA RAMONA CANLAS                             0501
A0301400820000000814099SUMUGAT, ROSITANIA S.                                    0502
A0101407270000000818359DARYL ANN J. PONCE                                       0502
A0101414120000000875509RESNA BUILDERS & SUPPLIES                                0502
A0101407690000000913837LUCITA T. PASCUA                                         0503
A0101407690000000914016******                                                   0501
A1301400340000000926836PADUA, NESTOR MEDIANA                                    0501
A0101407140000001201943******************                                       0501
A0101400860000001348647**********                                               0505
A0101413990000001406564CONSEJEROS, MYRA M.                                      0501
A0101404130000001614444LAGMAN, MICHELLE LORAINE DAYAO                           0501
A0601400230000001687170GULAPA, BERNARDO IGNACIO                                 0501
A0101405070000001726245********                                                 0503
A0301400790000001776218CELI, MARIA ESTELA MARFORI                               0502
A0101408400000001855450EVANGELINE I. ALIGATO                                    0505
A1201400150000001863221AMPALO, DEBRA TAWALI                                     0502
A1901400290000001975288FLORINDA MASAS BARTE                                     0502
A1001400190000002170554UCAB, MARIFE (SHOECAT INC                                0501
A0101413310000002317911TALUSAN, MARLON JOSE                                     0501
A0101409890000002326723CAI, QING CONG                                           0501
A0101412920000002358983BEARIS, JERRY FORNALEZA                                  0502
A0101407270000002804388*******                                                  0501
A0101414120000002879841GOLDBIZZ ENTERPRISE                                      0501
A0101400860011504202002**********                                               0501
A0101400860011562167001**********                                               0501
A0101400860011626861001**********                                               0501
A0101400860011696603001**********                                               0502
A0101400150061226656001EVYLENE C. SISON                                         0501
A0101400150061430140001**********                                               0501
A0101400730111520766046MARIVIC GATDULA                                          0501
A0101401960121238686001*********                                                0501
A0101407270162587936002WILFRIDO G. TIRONA                                       0501
A0101401090171314587003AURORA S. CRUZ                                           0504
A0301400530193037469001SONRISE COOPERATIVE                                      0501
A0301400530193504844111********                                                 0506
A1001400350233042653001BLUE ENERGY RESOURCES                                    0502
A1901400290261284559001ARACELI ORONA ESPINILI                                   0505
A1901400290261663904001EVELYN ROSALES PURINO                                    0501
A0101406460272722876001JOSE R LAVARRO                                           0502
A0101400570281388539038ELENA R. CATALO                                          0501
A0101402510341322353001DR. MARIVIC GUERIN TAN                                   0501
A0101402060351367584001JAVA, MARY ANN VILLEGAS                                  0501
A0101408370382327238001DR. MA. CORAZON A. CASTILLO                              0501
A0101408370382652736001VELORO, LYRA VALERA                                      0501
A5501400120410729506001JOSOL, ARLIEN BACON                                      0501
A2401400180411478374054LUENGO, IMELDA AMPO                                      0501
A0901400220432708709001MAHILUM, CATHERINE RIZALDE                               0502
A0101403030441241050001**********                                               0503
A0101403030441412000001**********                                               0501
A1901400160491043831001NASH DINER                                               0505
A0101403900501456168001TUMAMAO, GEORGINA AQUINO                                 0501
A0101405940512151522006**********                                               0501
A0101406880513573270001TURALBA JR., ANTONIO VALERA                              0502
A0101407720602371282002MAILA C. CHAN OR JACKSON U. DY                           0504
A0101404260611152257001MA. JENNIFER L. ROJALES                                  0504
A0101409920650478374014LIEZL SORETA                                             0501
A0101407690652020765001STARIAN MARKETING                                        0505
A0101407690652173311001RS JARDIN & ASSOCIATES                                   0505
A0101410720653656451001VILLAR, ANN MARGARET LANTING                             0501
A0101406590662206741001JOSEPH OR JOCELYN BALANAG                                0501
A1301400340683427695001********                                                 0502
A1301400340683603484001PARINAS, MA. LEA DIONISIO                                0502
A4101400260812513078001JOY MARIE J. VILLANUEVA                                  0501
A4101400260812545584001ZALDY T. CARDENO                                         0501
A4101400390813038383001EL MINA PAWNSHOP                                         0503
A4101400420814299258001JARO, JERRY RAMOS                                        0510
A4101400420814478374009FELOMINA PERICO                                          0501
A0101404840851410953073GERRY GRATUITO                                           0502
A0101404840851478374028DELA CRUZ, GERALDINE P.                                  0503
A0101406750852451505003ROY, ZENAIDA ABERIA                                      0501
A0101406750852478374002TERESITA LIWANAG                                         0501
A0101406750852617654001OSORIO, THELMA RAVELAS                                   0501
A2601400270000000019510GILBERT T. FAGEL OR                                     10502
A0101402060000000358918SAN JUAN, JONATHAN ALFARO  DBU                          10502
A0101408660000000373073ROBERTO MONROY OR                                       10501
A1601400170000000421190JOHN F. TORROCHA OR                                     10501
A0101414120000000875652PABLITO OR RONALD JOHN OR                               10502
A1301400210000001206751SANTIAGO, MA REMEDIOS OR                                10501
A1301400500000001412388GERONIMO G. QUIZA JR. OR                                10501
A0101405940000001534383SORIANO, JEFFREY V. DBU JVS                             10503
A1001400480000002670697SUICO, DON ANECITO SOMOSOT OR                           10502
A0601400100081254005001TANGLAO, CARMELO OR                                     10501
A0601400100081424085002ALAPAG, JASMINDA BRIONES OR                             10502
A0101401960121327478001AIDA MEDEL                                              10502
A0301400530193683920002CREAYLA, THELMA G. OR                                   10501
A0301400530193709171001MARIA THERESA R. TAG AT OR                              10501
A1301400470252428148002DELIA P. GONZALES OR                                    10504
A1301400470252500617001CLARAFE A. GONZALES OR                                  10502
A0101400570281332030002DR. SIMEON D. TANZO A.K.A                               10501
A0101405650322225574001HORNSHAW, ALICIA S. OR                                  10502
A0101402770391353811001GARY P. HERNANDEZ OR                                    10502
A0501400170481170180001TAI KOU AN OR LAWRENCE ILARDE                           10504
A1901400160491246294001CONSOLACION E PEREZ OR                                  10510
A0101404420631161315001WONG KWOK HO OR                                         10502
A0101404420631354676001SYJUCO, RAMON M. OR                                     10501
A0101407690652298552010ANGELINA CANETE - DEALERS OF                            10503
A0101407690652520766005GILNNA M. MALIGAT - DEALERS OF                          10501
A0101407690652525001073ELVIRA D. BASA  DEALERS OF                              10503
A0101407690652525001074COLLADO, ANGELYN A. - DEALERS                           10501
A0101406590662207039001HORTENCIA A. BUENAVENTURA OR                            10501
A1301400500684635536001JOSELYN D SANTOS OR                                     10501
A0101408240711402864001GUERRERO, EDITHA OR                                     10501
A4101400420814304997002ABAD, EVELINA OR ALVIN VINCENT                          10504
A0101406750852290414001BULAON, MARITES I. OR                                   10501
A2601400270000000019510AILEEN A. FAGEL                                         20500
A0101402060000000358918JONATHAN SAN JUAN INTERIO                               20500
A0101408660000000373073ANNELLE MONROY                                          20500
A1601400170000000421190ROCHELLE A. TORROCHA                                    20500
A0101414120000000875652PRINCESS JOY OR                                         20500
A1301400210000001206751SANTIAGO, DOJOE                                         20500
A1301400500000001412388MA ROSELLE P. QUIZA                                     20500
A0101405940000001534383AUTO DETAILING SERVICES                                 20500
A1001400480000002670697SUICO, ARDJEL BANEZ                                     20500
A0601400100081254005001TANGLAO, MARILOU                                        20500
A0601400100081424085002SARMIENTO, FE SA                                        20500
A0101401960121327478001OR ROD MEDEL                                            20500
A0301400530193683920002CREAYLA, ALBERTO R.                                     20500
A0301400530193709171001ZEUS CHRISTOPHER DE GORIO                               20500
A1301400470252428148002BERNARDINO R. GONZALES                                  20500
A1301400470252500617001RUFINO W. GONZALES                                      20500
A0101400570281332030002DR. SAMMY TANZO                                         20500
A0101405650322225574001HORNSHAW, RAYSON                                        20500
A0101402770391353811001EZEL S. HERNANDE                                        20500
A0501400170481170180001OR CARLITO LIM O                                        20500
A1901400160491246294001LOURDES P CLEOFE                                        20500
A0101404420631161315001CARMENCITA WONG                                         20500
A0101404420631354676001SYJUCO, TEODORA                                         20500
A0101407690652298552010SHOECAT INC.                                            20500
A0101407690652520766005SHOECAT INC.                                            20500
A0101407690652525001073SHOECAT, INC.                                           20500
A0101407690652525001074OF SHOECAT INC.                                         20500
A0101406590662207039001MA. THERESA TAN                                         20500
A1301400500684635536001EDGAR D VILLAR JR                                       20500
A0101408240711402864001NARCISO, LEONARDO                                       20500
A4101400420814304997002OR CHRISTINE MARIE                                      20500
A0101406750852290414001BULAON, SONNY T.                                        20500
B0901400220000000012255**********                                               1605
B0101406460000000182409MAN ASIA MANPOWER AND GENERAL SERVI                      1602
B2801400230000000372730JEM SECURITY AGENCY CORP.                                1601
B0101405070000000428966ONEWORLD ALLIANCE LOGISTICS CORPORATION                  1610
B0101404260000000550252ISOMATIC INC.                                            1602
B0101402060000000653770HANIN CORPORATION                                        1601
B0101409180000000874773R.R. ENCABO CONSTRUCTORS INC.                            1605
B0101412180000001293038WESTMONT INDUSTRIAL SALES INC.                           1602
B0301400950000002252006JROG MARKETING                                           1610
B0101400860011232941001**********                                               1601
B0101412630132047758001MAJOR HOMES, INC.                                        1605
B0301400530193037617168PIONEER BUENAS COMMODITIES CORP.                         1620
B0301400530193720243088********                                                 1605
B0101407140213046530001**********                                               1601
B0101407140213190856001**********                                               1602
B0101406460272007511001STERLING GIFTS INC.                                      1605
B0101402770391027408001INDANG VILLAGE COMMERCIAL CNTR. INC                      1601
B0101405490392518855001ISABELLE ROYAL HOTEL & SUITES INC.                       1601
B240140018041103580100321 CENTURY SMOKED FISH CORP.                             1620
B1201400150421023348006PINES CITY BAPTIST CHURCH, INC                           1602
B0501400170481258347003OUR LADY OF MANAOAG COLLEGE, INC.                        1601
B0101403450521011657001UPTOWN INDUSTRIAL SALES, INC.                            1610
B1301400340683055076001LUCKY 88 WATER STATION                                   1601
B0101404840851013980002VIC IMPERIAL APPLIANCE CORP.                             1601
B0101405070861025608001G-LINE TRADING                                           1602
B0101405070861030148001**********                                               1601
B0601400230891021614001QUIOC (D) QUIOC & ASSOCIATE                              1602
B0601400230891028118001D.M. AUTO SUPPLY                                         1605
B1001400350000000017085CHAN, ALFREDO DBU GOLDEN ENGINEERING SRS                11602
B0101401090000003079689SAY, ANTHONY & DE LOS SANTOS, EUGENE &                  11601
B0101400150061020654001STATION SQUARE EAST COMMERCIAL                          11610
B0101401090171007908003PERPETUAL SUCCOR HOSPITAL & MATERNITY                   11604
B2001400290315054835001DUMAGUETE CITY HABITAT FOR HUMANITY,                    11601
B0101402060351022399001GOLDEN POT N' PAN FOOD SERVICES                         11601
B02014007603740550530018990 MINDANAO HOUSING DEVELOPMENT CORP.                 11610
B1001400350000000017085OR CHAN, M. K.                                          21600
B0101401090000003079689NICOLAS, MARSHA                                         21600
B0101400150061020654001CORPORATION                                             21600
B0101401090171007908003INC.                                                    21600
B2001400290315054835001INC.                                                    21600
B0101402060351022399001COMPANY                                                 21600
B0201400760374055053001(DISBURSING)                                            21600
B2601400140691821100608**********                                               2001
B4101400420814821100608**********                                               2005
