A0801400160000000009470CHUA, TIFFANY ANG                                        0501
A0101409920000000022011CASUCO, LEONIDA S.                                       0502
A0101408240000000039821MORANO, DBU MALM ENTERPRISES                             0503
A2001400290000000046580FERROLINO, JOHN REY BUYCO                                0501
A0101404680000000120305RIBU DENTAL SUPPLY                                       0501
A4101400420000000120696CARMELA G. ROMA                                          0501
A0101413730000000144658**********                                               0501
A0101413990000000205989UBAS, CECILIA DIAPOLET                                   0501
A0101404130000000321428POLANCOS, MICHAEL JIM PEREZ                              0501
A0101405490000000355673PASCUA, VIOLETA ZACARIAS                                 0501
A0101404680000000384172JESSICA Y. PASAYLON                                      0501
A0101407430000000447078SARASPE, JULIUS BELOY                                    0501
A0101401250000000460622RICALDE, EDNA PATRICIO                                   0501
A0101401250000000460633MALAYGAY, MARIA FELY SALVINO                             0501
A4101400260000000469261ISLA, NOEL MORELLA                                       0501
A4101400260000000469283INCOGNITO, ANACLETA BINAUHAN                             0501
A0101404130000000485661MORALES, ANNALYN MOTOL                                   0502
A0101407690000000495461LACASA, ROLANDO ARAZO                                    0501
A0101409920000000523584MASACUPAN, PHILIP GONZALES                               0502
A0101413990000000631827ROBERT UY BRILLANTES                                     0501
A0101401090000000772156JOHNNA ROSE S. ZERRUDO                                   0501
A0101400860011385267002**********                                               0502
A0101400860011389659002**********                                               0505
A0101400860011405002004**********                                               0503
A0101400860011420919001**********                                               0505
A0101400860011444169001**********                                               0505
A0101400860011495810001**********                                               0501
A0101400860011500268001**********                                               0502
A0101400860011528155001**********                                               0503
A0101400860011596645001**********                                               0503
A0101400860011701831001**********                                               0502
A0101400860011774698001**********                                               0503
A0101405810072518663002BAIT-IT, VICTORINO ORO                                   0501
A0101400730111298552046DELA CRUZ, MARIA ROWENA R.                               0501
A0101406040112561879002JOSEPHINE V. SORIA                                       0502
A0101400310211086765001TARRAYO, CHRISTIAN STA. MARIA                            0501
A0101400310211370178001SIA, JENNIFER AYROSO                                     0502
A3101400450223320762001DRA. NATIVIDAD CARIAGA                                   0501
A3001400130230713434001GONZAGA, ALEJANDRA MUSICO                                0501
A1901400290261411419001TERESITA DIMAILIG PERCE                                  0502
A0101406620273035687001GOLDRICH MANAGEMENT SERVICES                             0502
A0101408660274534428001BADUA, CEFERINA M.          JT                           0502
A0801400160311478374055LURELA FERASOL                                           0502
A0801400160311478374070GENALYN M. BOTANERO                                      0501
A0801400160311478374092MALLORCA, ROSEMARIE A.                                   0501
A0801400160311478374093AMELIA H. TAYCO                                          0501
A0101405650322401342001VILLAREAL, EARL FIDEL MONTERO                            0501
A0101405650322488260001BARREDO, CARMENCITA CALIXIHAN                            0501
A0101405650322488260001BARREDO, CARMENCITA CALIXIHAN                            0502
A0101408820333478374057PERLITA DEL CASTILLO MERADOR                             0501
A0101402510341433983003********                                                 0505
A0101402060351211775001MARIO P. ARAULLO                                         0501
A5501400120410729506001JOSOL, ARLIEN BACON                                      0501
A0101406330472311319001ALEJANDRO V. VICTORINO JR.                               0502
A0101406330472443761001MICHAEL RUDOLPH E. SERVITO                               0501
A0101403580511196754001CARMELITA E. LA O'                                       0502
A0101405940512449606001*******                                                  0501
A0101406880513033856001LLAMAR BEACH RESORT                                      0502
A0101408530516571877007LEX REGIS L. CALUBAG                                     0501
A0101404000551150230001ROGELIO OR VERONICA L. CO                                0510
A2201400250561258530005ERWIN T. AQUINO                                          0501
A0101407720602348840002MACALINTAL, CLAVEL MARANAN                               0502
A0101404260611037351001SMD JANITORIAL SERVICES                                  0501
A0101404420631032465001JANEROSE PRINTING SERVICE                                0501
A0101404420631478374111MARY ANN P. SANTIAGO                                     0501
A0101404680651042778001EL-RAIN PRINTS AND LABELS                                0505
A0101404680651303311003BONILLA, MELINDA SANTOS                                  0501
A0101404680651354727001VENTURA, ARMANDO LOPEZ                                   0501
A0101404680651478374142**********                                               0502
A0101404680651478374182ROWENA NAVARRO                                           0502
A0101404680651520766112SUSANA B. FLORENDO                                       0501
A0101404680651520766126MARLITA L. CUSIPAG                                       0502
A0101404680651520766177PURISIMA L. CATCHUELA                                    0501
A0101404680651564550001AMELIA G. CONCEPCION                                     0501
A0101404680651772358001CECILE I. BARTE                                          0502
A0101404680651784382001SHARING CONSULTANCY SERVICES                             0501
A0101407690652031549001GOLDEN POWER BATTERY CENTER                              0502
A0101407690652319667001TANTAMCO, RAMON NICOLAS                                  0504
A0101406910653343214002OSCAR L. INOCENTES JR.                                   0502
A0101406910653478374054CRISTINA CALDERON                                        0501
A0101406590662209694001MOZO JR., VIRGILIO DELA CRUZ                             0501
A0101407560686173318001MIKE SY OR JACQUELINE SY                                 0501
A0101408240711382222002EVELYN C. SALVADOR JT                                    0504
A0101408240711557469001BORA JR., SALVADOR ORPIANA                               0502
A4101400390813467530002CAMANA, MARILYN BELOSTRINO                               0501
A4101400390813478374023LIZA C. REA¥O                                            0502
A4101400420814453380001TOLENTINO, JONETT MISA                                   0501
A0101404840851217637050RITA ANNE L. CAGAMPANG                                   0501
A0101405070861027133001WORLDLINKS CABLE WORKS                                   0502
A0101405070861380698001REYES SR., RENATO SISCAR                                 0501
A0101412500000000041603NG, MICHAEL FLORES OR NG, KAREN                         10502
A5001400170000000170130CALIMUTAN, OHARA D. OR                                  10501
A5001400170000000213812TABILIRAN, ROCHE TUBIO OR                               10501
A5001400170000000213823LAZAGA JR., LEONIDES LIZARDO OR                         10502
A0101404680000000384149JONAMIE R. COTEJAR OR                                   10501
A0301400790000000435863QUIAO JR., R DBU REJAM                                  10501
A0101407690000000495563CARINO, SHENA DBU KYLA & MAY                            10501
A0101400150061464371002RODA, MARY ANN FLORES                                   10501
A0101400440161541987001ROSALINDA D. LUMAGUI OR                                 10501
A0101401090171196095001ALBERTO WONCHAI OR                                      10502
A0101400310211276524001MARIANITO ALEMANIA OR                                   10501
A3101400450223558112001CRISTINA MADERAZO OR MARIANNE                           10502
A1301400470252428900001JUAN NEPOMUCENO OR                                      10501
A0101408660274448186001GAMO, WEISEN BAGAMANO OR                                10501
A0101408660274539990001BELTRAN, EDGARDO MAR D. OR                              10501
A0101405650322760686001BUHAIN, MARIA CONCEPCION                                10502
A0101403320471671927001CRUZ, NOLI ESTOY OR                                     10501
A1901400160491547151002GINA F TORIAGA OR                                       10501
A0101408110515427749001HILARIO TAMONDONG JR. OR                                10502
A0101407690652037480002U.L. SOMIDO BUILDERS &                                  10501
A0101407690652520766009SHERILL S. LOPEZ - DEALERS OF                           10501
A0101406910653575643001CARMELITA D. FARINAS OR                                 10501
A1301400500684589977001VIOLAGO, MA. LORENA M.OR                                10501
A0101408240711396778001MA. FRANCESCA ROMANA OR                                 10501
A0101412500000000041603MONIQUE DEL ROSARIO                                     20500
A5001400170000000170130CALIMUTAN, REGINALDO G.                                 20500
A5001400170000000213812TUBIO, TEMEVIS JARALVE                                  20500
A5001400170000000213823RAMOS, CATHERINE UY                                     20500
A0101404680000000384149MARJORIE C. ASILOM                                      20500
A0301400790000000435863CONSTRUCTION SUPPLIES                                   20500
A0101407690000000495563FASHION CREATION                                        20500
A0101400150061464371002OR JULIUS RODA                                          20500
A0101400440161541987001ROMEO LUMAGUI                                           20500
A0101401090171196095001MILAGROS W. LIM                                         20500
A0101400310211276524001ALEJANDRO CARTAG                                        20500
A3101400450223558112001DIMAYUGA OR ENIA                                        20500
A1301400470252428900001SILVIA NEPOMUCENO                                       20500
A0101408660274448186001GAMO, JOHN BRYAN                                        20500
A0101408660274539990001BELTRAN, MARIA C                                        20500
A0101405650322760686001BANDIBAS                                                20500
A0101403320471671927001LOWELLA M. CRUZ                                         20500
A1901400160491547151002BERNARDO I TORIA                                        20500
A0101408110515427749001TRISHA MARIE TAMONDONG                                  20500
A0101407690652037480002INDUSTRIAL SALES                                        20500
A0101407690652520766009SHOECAT INC                                             20500
A0101406910653575643001MELCHOR S. FARINAS                                      20500
A1301400500684589977001VIOLAGO, GIDO C.                                        20500
A0101408240711396778001PHILIPPE SEYER                                          20500
B0101411790000000005318REM BUILDERS CORPORATION                                 1601
B0801400160000000010220FAIRPOINT MARKETING CORPORATION                          1601
B0101406040000000014860GREATWIN VENTURE ASSETS CORPORATION                      1601
B0101406620000000015170AUTOSWEEP POST CORP.                                     1610
B0101401250000000020771KAAKBAY ENTRE-WORKER COOPERATIVE                         1602
B0101411080000000026315 *****                                                   1601
B0101406590000000035583*****                                                    1602
B0301400660000000048268SASAGLORY ENTERPRISES INC.                               1605
B1101400120000000065132LEE, CARLOS GONZALES OR LEE, LOLITA CHUA                 1601
B0101413570000000206471PARAGAS, ADLIN MAE AND PARAGAS, DANILO                   1601
B0101406330000000432573FULRUBELL CORPORATION                                    1601
B1101400120000000652948SARCOR INC.                                              1601
B0101404680000000697850ABC TRANSPORTATION SERVICES, INC.                        1603
B0101400860011389059003**********                                               1601
B0101401700041047421001GENSENS INC.                                             1603
B0101405810072361051001**********                                               1601
B0101405810072369274002***********                                              1605
B0101405810072412798001**********                                               1603
B0101405810072412798002**********                                               1603
B0101407140213007696002**********                                               1601
B3101400160221033214001RD CASH PADALA, INC. AREA 02                             1603
B1901400290261033214001RD CASH PADALA, INC.                                     1603
B0101402510341030620001JAFEL PROPERTIES INC.                                    1601
B0901400220432713243001432-001504-9                                             1601
B0101403030441075164001**********                                               1601
B0101403320471035191001ST. GABRIEL CREDIT COOPERATIVE                           1601
B0101403320471670610001MONTALBAN GREAT RIDGE CORPORATION                        1602
B0101403450521011832001SEABULK MARINE CORPORATION                               1602
B0101404130601033660002HOLIDAY ASIA DIVERS RESORT, INC.                         1601
B0101404130601100079001POWERDIESEL PHILIPPINES, INC.                            1610
B0101404130601100142001FOOD INDUSTRIES, INC.                                    1603
B0101404260611040309001RD CASH PADALA, INC.                                     1603
B0101404680651043475001SANTO GOLD FOOD CHOICES INC.                             1604
B5001400170000000169777ZAPANTA, FRANCIS ANTHONY C OR ZAPANTA,                  11605
B0101401090171007908001PERPETUAL SUCCOR HOSPITAL &                             11605
B0301400660194350996088DEQUITO, GLEBA VENTOR / LANANG                          11603
B1901400160491341189001VIRGINIA R VARGAS OR                                    11601
B0101404130601100161001PRUDENTIAL CUSTOMS BROKERAGE SERVICES,                  11610
B0101409890649033780001WATCH TOWER BIBLE AND TRACT SOCIETY OF                  11604
B5001400170000000169777TOMAS GERMINIANO                                        21600
B0101401090171007908001MATERNITY, INC.                                         21600
B0301400660194350996088CALTEX SERVICENT                                        21600
B1901400160491341189001RICHARD D LIM                                           21600
B0101404130601100161001INC.                                                    21600
B0101409890649033780001THE PHILS. INC                                          21600
B0301400110191821100608**********                                               2015
