A0101404260000000003772CRESPO, FLORENCE SANGA                                   0501
A0101404680000000013509VILMA D. SAGAY                                           0501
A0101405810000000016559CHUA, HEMAN LAO                                          0501
A0301400820000000024871JAO, EDMUNDO C.                                          0503
A1201400150000000034482CONG-O, AIDA LONOGAN                                     0502
A0101404260000000156734YOUNG, CINDY GUTLAY                                      0501
A0101400440000000337579MAYETTE V. PESAYCO                                       0501
A1301400470000000366512EVELYN SAQUILABON BORGONIA                               0502
A0101408110000000380083DE LEON, BABY MARILYN JAVIER                             0501
A0101408110000000380090SANTIAGO, EMMALYN BONIFACIO                              0501
A0101404680000000384105ERIC A. FERRER                                           0502
A0301400790000000435972ERLINDA O TELLANO                                        0501
A0101407720000000510870SALUD, VINCENT CERVANTES                                 0501
A2401400180000000554949BARONA, ANDYLYN TABACUAN                                 0501
A2601400270000000561988ROSALINDA S. ORDONEZ                                     0501
A0101406590000000568770ARLANTE, ELIJAH ESTEBAN                                  0501
A0101406590000000568781POLICARPIO, JENNIFER TAGUIAM                             0501
A1401400110000000628502MANALO. GLORIA GARCIA                                    0502
A0101413570000000635563MARY JANE FLORES BALUYUT                                 0501
A4101400420000000710290BAJENTING, GERALDINE ALBARRACIN                          0501
A4101400420000000710303VILLASIS, HOVER GAIL REYES                               0501
A4101400420000000710314MASANGCAY, JERICHO BOY LAPINIG                           0501
A0101404680000000767040TAMONDONG II, PONCIANO FERRER                            0501
A0101404680000000767084GIRLY S. ABANEL                                          0504
A0101404680000000862215IRENE JOY C. MARQUEZ                                     0501
A0101412050000000890860SANIEL, JAN MICHAEL PORRAS                               0501
A2801400100000000906121ALMIROL, ROBERTO SUYAT                                   0501
A0101407690000000913791MARCOS, FERDINAND SADSAD                                 0501
A0101407690000000913804SIMBULAN, ARVIEL WATIWAT                                 0501
A1301400340000000926869CUERDO, MARIA ANA SORNE                                  0502
A0101404680000000940870ESPIRITU, IMELDA RAMOS                                   0501
A0101404680000000940943PATRICK O. EUSEBIO                                       0501
A0101404840000000943271MARTINEZ, ARWIN CARRILLO                                 0501
A0101406620000000962363GARROVILLAS, ALLIEN PLAR                                 0501
A0101406620000000962396BALDOVINO, ANGELICA PORTEZA                              0501
A4101400390000000975015ONNAGAN, EMMARUTH FERRY                                  0501
A4101400550000000981751DOCOG, BRIAN JOEL DE JESUS                               0501
A4101400550000000981762RAMIREZ, ARMIN BAYANI                                    0503
A0101412340000001017689GENESE, GILBERT VALLEJOS                                 0501
A0101412890000001056320LICUP, MARIANITA ROQUE                                   0501
A1401400110000001096151MAANO, PHILIP SAPRA                                      0501
A0601400520000001120323BITUIN, KAREN SISON                                      0501
A4101400260000001134930LAID, DIACINTO QUINATAC- AN                              0501
A4101400260000001134963DELA CRUZ, CHRISTINE BITALAC                             0501
A0101401830000001140145SALAZAR, NIDA DELOS SANTOS                               0502
A0101400600000001335502BICHARA, EL REY MADRIGAL                                 0501
A1901400290000001362954WILLIE AMBAL MERCADO                                     0501
A0101407720000001393142MORADA, ROCHELLE ESPERANZA                               0501
A0101412760000001399180BONGCAWEL JR., JULITO LARGO                              0501
A0101413440000001472646CARLO POCHOLO C GONZALEZ                                 0501
A0101412630000001485183ZANORIA, MA IONA OFELIA BATCHAN                          0501
A2201400250000001545313MARK ANTHONY D. HABER "MACKY"                            0501
A2201400250000001545331ROYVIL C. PERAMIDE                                       0501
A3101400160000001559195ALANO, NORA MANALO                                       0501
A0101408400000001614659MILLARI, JOANNA EVA MARIE C.                             0501
A3101400160000001652940KIMURA, KOJI                                             0501
A0101402510000001685463SANTOS, MICHAEL JESUS SARCENO                            0501
A0101401250021456301001PALILEO, ROSALIE PUNONGBAYAN                             0501
A0101401700041508553001WILIAM, MA. CLARA DE AUSEN                               0502
A0101400150061226969001LUCY E. TIU                                              0501
A0101400150061228992001ROBERTO R, TIONG                                         0502
A0101400150061341283001DIAZ, CYNTHIA MARTINEZ                                   0501
A0101400150061364636001YOSHII, TSUNENORI                                        0501
A0101405810072236268001KENG, LOUELLA JOCELYN BARRETTO                           0501
A0101405810072478374006MARLYN M CAIMPON                                         0501
A0101406040112420545001MITCHIE F. MANATAD                                       0502
A0101400440161027568001GARB CLOTHING COLLECTION                                 0503
A0101400440161039572086JANETH C. CANILLO                                        0501
A0101400440161525001095MARITES T. TAPIADOR                                      0501
A0101400440161525001115EVA D. SAMILLANO                                         0502
A0101407270162385312001MAE CZARINA R. CRUZ                                      0502
A0101407270162453493004CESAR GERARDO S. RAVELA JR.                              0502
A0101401090171271520001CRISTINO A. CARBONELL                                    0501
A0101407140213240218001**********                                               0501
A3101400450223417819001DELA CRUZ, ARIOSTO OR LILIA                              0503
A1901400290261470375002NORA BUQUIR MIRAL                                        0501
A1901400290261493025063DRA. DAISY O. SANCHEZ-MOSTIERO                           0503
A1901400290261689596001MARY ERNESTINE C COLUMBRES                               0501
A0101400570281186576001DR. ROSEMARIE JEAN J. POBLETE                            0502
A0101400570281706972001**********                                               0501
A0101408820333158643001ROSITA L. TAN                                            0501
A0201400760374091750001******                                                   0510
A2401400180411442136088***************                                          0501
A2401400180411580807001BESANEZ, MARITES ARCENAL                                 0501
A1201400150421253953001CRISTINA F. TEJADA                                       0502
A1201400150421573604001BACARRO, SOLEDAD BONSATO                                 0501
A1401400110492543449001ACEITUNA, MYRNA CANZON                                   0501
A0101404130601450077001RODOLFO S. IBUNA                                         0505
A0101404130601549706001BARIUAN, DONNABEL CARIAGA                                0501
A0101407720602161917001GOYLOS, LORENA CALVO                                     0501
A0101407720602342044001DR. DARWIN ALBERT DASIG                                  0501
A0101407720602397126001PASTORES, JOHN VINCENT GOCO                              0505
A0101404680651518927001EVANGELINE K. TUMIBAY                                    0501
A0101404680651520766174MA. LOURDES G. ROMINEZ                                   0501
A0101407690652399727002QUIAMCO, CONSOLACION GIVA                                0501
A1301400500684074653001VENTURINA, HENRY GARCIA                                  0501
A1301400500684577228001UBONGEN, VERNA MANINGAS                                  0501
A1701400230693497012001BANGILAN, LOURDES JIMENEZ                                0502
A0101408240711375102001PANICUCCI, MA. PILAR M. JT                               0501
A0101408240711667452001LU, MYLEE BAS                                            0501
A2801400100712281930001VICTORIA R. VALDEZ, M.D.                                 0502
A4101400420814422280001DELGADO, ELVIRA CARIENENA                                0502
A4101400420814436140001AMIDO, RONILA ANCHETA                                    0501
A4101400420814477593003BAUTISTA, TERESA PONCEJA                                 0503
A4101400420814478374030LIGAYA ILANO                                             0501
A4101400420814520766004SALVACION D. BITANCUR                                    0501
A4101400420814520766097ORIENDO, CECILIA B.                                      0501
A0101406750852478374095LORENA N TANGPUZ                                         0501
A0101406750852478374105ROSECHEL T. MENDOZA                                      0501
A0101401700000000040217DEL MUNDO, E DBU JPA AUTO PARTS                         10502
A0201400920000000047976MEMBERS OF NATASHA SHOECAT INC                          10501
A0101404680000000767062TERESITA A. AGUILAR OR                                  10502
A0601400230000001062355CANLAS, OWEN FRANCIS SANTOS AND                         10502
A0101409180000001237274NONATO, SYRIL PAMA DBU J.S.J.                           10503
A0101405070000001455863ERNESTO GONZALES, JR. JT DBU EG                         10501
A2201400250000001545342GARCIA, DARRYLL JAMES TALON OR                          10502
A0101406040112197166003ZOSIMO FAJARDO JR. OR                                   10501
A0101406040112417213002MARIO LOUIE C. GUEVARRA OR                              10503
A3101400160221533265001DR. ROMAN C. SY QUI  OR                                 10505
A3101400450223352819001FARAON, RIZALINA OR                                     10502
A1901400290261087553001MARIA JEOFFRIZA SARMIENTO DIAZ                          10502
A2001400290315041547001CARTRONIX LOGISTIC & TRANSPORT                          10510
A2401400180411555962001SILVA, VIOLETA P. OR                                    10502
A1201400150421253624001GUANZON, ALICE D. OR                                    10506
A0101407690652047716001QUILATAN, GLORY DBU PHILIP                              10501
A0101407690652443413002JUN M. BARREDO OR                                       10501
A0101407690652520766005GILNNA M. MALIGAT - DEALERS OF                          10501
A0101407690652525001014ROSALINA GARING - DEALERS OF                            10501
A0101407690652525001051ANNABELLE BADAYOS - DEALERS OF                          10501
A0101401700000000040217CENTER                                                  20500
A0201400920000000047976TUBIN, ELVIRA BO                                        20500
A0101404680000000767062TARA BLANQUITA A                                        20500
A0601400230000001062355DEANG, JIM PATRIK BALINGI                               20500
A0101409180000001237274ENTERPRISES                                             20500
A0101405070000001455863THREE MANPOWER SERVICES                                 20500
A2201400250000001545342GARCIA, ELAINE JANE TALON                               20500
A0101406040112197166003VOLTAIRE IAN V. FAJARDO                                 20500
A0101406040112417213002ELVIRA S. CASTILLO                                      20500
A3101400160221533265001MRS. EVELYN SY QUI                                      20500
A3101400450223352819001BELEN, RHODORA                                          20500
A1901400290261087553001OR RUBYRONA D LLAVE                                     20500
A2001400290315041547001CORPORATION                                             20500
A2401400180411555962001SILVA, MARCELINO                                        20500
A1201400150421253624001GUANZON, DELFINO Y.                                     20500
A0101407690652047716001COMMUNICATIONS                                          20500
A0101407690652443413002MIRIAM V. BARREDo                                       20500
A0101407690652520766005SHOECAT INC.                                            20500
A0101407690652525001014SHOECAT INC.                                            20500
A0101407690652525001051SHOECAT INC.                                            20500
B0101404680000000013543JCD METALFABRIK CORPORATION                              1603
B0101405810000000016822VANDA PAPER PRODUCT ENTERPRISES COR                      1601
B0101410300000000191553*****                                                    1602
B0101411400000000230220LA SALANGANE, INC.                                       1601
B0101403030000000320516CU, MANUEL VINZONS                                       1605
B0101404130000000696135ETAXPOINT SOFTWARE SOLUTIONS CORP.                       1603
B0101412890000001056239MULBERRYSEAS, INC.                                       1601
B0101401700041189031003JONATHAN C. TUBLE                                        1610
B0101401700041193396001UY, WILSON TIO                                           1610
B0101400150061036320001IPM CONSTRUCTION & DEVELOPMENT CORP                      1610
B0101400150061039174001UNITED CHRISTIAN BAPTIST MINISTRIES                      1601
B0101400150061468081001MONTALBAN METHANE POWER CORP.                            1605
B0101405810072361051001**********                                               1602
B0101400440161025954001DEX INTERNATIONAL CO.                                    1605
B0101407270162031640002RVG SPARROW HOLDINGS INC.                                1602
B3101400160221224862001JOYME CONSTRUCTION SUPPLIES, INC.                        1602
B3101400450223365119002VICTOR HUGO ENERGY CORPORATION                           1601
B1001400350233036049001RANTRADE INDUSTRIAL SALES CORPORATION                    1601
B1901400290261027293002LIPA MEDICS INC.                                         1610
B5501400120410041087001GREENSTATE SUITES                                        1605
B2401400180411034757001RDEX FOOD INTERNATIONAL PHILS., INC                      1605
B1201400150421039171001PILIPINAS METDEV INC.                                    1603
B0101407430503006761001QUICKFLO FORWARDERS, INC.                                1605
B0101406880513038002001JEFCON INCORPORATED                                      1602
B0101406880513039126002BLUE MAGNET MARKETING SOLUTIONS INC                      1603
B0101406880513039406001PHILCOX (PHILIPPINES) INCORPORATED                       1603
B0101408530516005188001SEARCHERS & STAFFERS CORP.                               1605
B0101408530516005189001SL SEARCH CORPORATION                                    1603
B0101403450521011639001**********                                               1605
B0101404130601100034001ADVATECH INDUSTRIES, INC.                                1602
B4101400260812045529001CITISTORES INC.                                          1602
B0101404840851029553001INDANG TRI L FOODS CORPORATION                           1605
B1901400290000000030797ALPHA ANGELA A PAUNTE OR ANGEL DANIEL OR                11601
B1601400170000000036126SUNWEST CONSTRUCTION AND DEVELOPMENT                    11605
B2401400180411014376006PENBANK, INC. (A PRIVATE DEV'T BANK) -                  11605
B0101408110515014870001PARAMOUNT LIFE & GENERAL INSURANCE                      11610
B1901400290000000030797AGRIPINA AMPARO                                         21600
B1601400170000000036126CORPORATION                                             21600
B2401400180411014376006FISHPORT BRANCH                                         21600
B0101408110515014870001CORPORATION                                             21600
B0101410720210821100608**********                                               2002
B0101406620273821100608**********                                               2010
B0101406750852821100608**********                                               2005
