F0601400100081685142001POON, WAISILY LOZANO                                     2502CKO
F0101406750852762302001KAUNDS, WINSTON UDAYARAJ                                 2501CKO
F2401400180411029556002RELL & RENN FISHING CORPORATION                          2605CKR
F3201400190000001493089BIROG, PRUDENCIO VITORIO DBU                            12601CKO
F3201400190000001493089BIROG, PRUDENCIO VITORIO DBU                            12601CKO
F1301400340683027056001STI EDUCATION SERVICES                                  12605CKR
F3201400190000001493089ALEC MARKETING                                          22600CKO
F3201400190000001493089ALEC MARKETING                                          22600CKO
F1301400340683027056001GROUP, INC.                                             22600CKR
