A0101410850000000005789AUSTRIA, MA. DOLORES RODRIGUEZ                           0501
A0101405810000000016548***************                                          0501
A0101405810000000016559CHUA, HEMAN LAO                                          0501
A0101410560000000020184PERU JR., FLAVIANO CENIZA                                0501
A0301400820000000024893ALIVO, JOENALD C.                                        0501
A1201400150000000034460JOSE, GEMMALYN TANGALIN                                  0501
A0101412180000000037932*******                                                  0503
A0101413150000000038548******                                                   0501
A0101408660000000059950JOSE, FEDDIE MILE SANTOS                                 0501
A0101413440000000183680LORENA D. FADERANGA                                      0501
A0101413440000000183806SAGANA, JUAN PAULO TOLPO                                 0502
A0101407690000000243810PAGUIO, ANA CARDENAS                                     0502
A0101402060000000358827BALDOVINO, JENIFFER LABUAC                               0501
A0101407140000000446122RUTOR, DANILO BARGO                                      0502
A0101413440000000570427DANAO, SANTIAGO BALONDO                                  0501
A0101413440000000570450DE OCAMPO, JOSE NAZAL                                    0501
A1401400110000000628579****************                                         0503
A4101400420000000710132MA. NELLA M. CULANNAY                                    0502
A0101400440000000821298DIOBET ERDIE I. DIOQUINO                                 0502
A0101405070000000868657********                                                 0502
A0101412180000000908390LIM, LEA YAP                                             0502
A0101407690000000913600MARQUI AUTO SUPPLY                                       0502
A0101407690000000913724OPERIO, IMELDA LAGUIO                                    0501
A0101406620000000962341CORNITO, EVELYN DUMALE                                   0501
A0101400730000001016453HONEY JEAN R. DACLAG                                     0501
A0101405810000001021252ONG, LETICIA DE OMA                                      0501
A0101408950000001039441DELA CRUZ, JORDAN YAO                                    0501
A1001400190000001057403MULAT, MARICRIS OR GONGOB, ANGE                          0501
A0101412500000001146941LINDAYA, KRISNA DELA CRUZ                                0501
A0101412500000001146952BONA, JOHANNA TORRES                                     0502
A0101402640000001150149PAGADOR, ANGELITA AGULTO                                 0501
A0101405940000001210017**********                                               0501
A0101413730000001253241*************                                            0501
A0101411400000001280400PASCUA, GILBERT DE LEON                                  0501
A0101413990000001406520AMPO, PEDRO GALANO                                       0501
A1301400340000001415736LABOG, ANABEL TRIVINO                                    0501
A0101413440000001473030*******                                                  0501
A0101405070000001726278CHUA, ANGELICA DU                                        0502
A0101412890000001765391BALLACILLO, DARIO AYUP                                   0501
A0101408820000001766663MACALINAO, JACQUELINE SAMANIEGO                          0501
A0101400730000001822300PURACAN, GIEHRJEM PALANG                                 0502
A0101411660000001899187KANSIBIT ENGINEERING SERVICES                            0505
A0101411950000001925771***********                                              0501
A0101411950000001925782SANNY O. BALANSAG                                        0501
A2401400180000001935851RAMPING, JEAN CEPEDA                                     0501
A2401400180000001935862ABIERA, ROMMEL BIANGCO                                   0501
A0101402510000002221994CALMA, RONALD ALFONSO ROSALES                            0502
A1301400760000010004679ARMANDO G. MORALES                                       0502
A0101400150061338964106MELANIE B. RICASIO                                       0501
A0101400150061389261001AYSON, JOEL RAYMOND REDULA                               0502
A0101400150061610203001BALLESTEROS, RAMON EMMANUEL NIE                          0501
A0101400150061691268001KWONG, HAYDEE JANE CHU                                   0501
A0101405810072312400003************                                             0501
A0101405810072328069001VASQUEZ, SOCORRO                                         0502
A0101405810072385132001***********                                              0503
A0101400730111375290001TOLENTINO, NERREN VIRAY                                  0506
A0101401960121238747001**********                                               0501
A0101401090171200033001ROSARIO R. ARANDA                                        0501
A0101401090171337824001FE MARSHA V. NICOLAS                                     0501
A0101401090171337824001FE MARSHA V. NICOLAS                                     0501
A0101401090171474638001CARLOS C. BUENDIA                                        0502
A0101407140213380988001**********                                               0501
A0101407140213505600001**********                                               0501
A3101400160221386295002ROBERT J. BANATIN                                        0501
A1001400190231478374086LORNA A. OMANDAM                                         0502
A0101401670271186215002BENJAMIN C. RAMOS                                        0510
A0101402640361548882001MIRANDA, HIEDEE ARCEGA                                   0501
A0101402640361775971001LIWANAG, MARY JOY LUCERO                                 0501
A0201400760374033157001WISE OWL GENERAL MERCHANDISE                             0501
A0201400920375048147001COLONIE PEST CONTROL                                     0502
A0101408370382411639001DR. CONSTANTINO CASTILLO III                             0503
A0101408790383758852001GA, NORMAND MACALLOP                                     0501
A010140549039201910700220/20 ENTERPRISES                                        0502
A0101405490392591892001RIZZA L. ACOL                                            0501
A0501400170481334870001BRENDA U SALCEDO                                         0501
A1401400110492367614001DE MESA, CECILDA LAGAR JT                                0502
A0101407430503044525001REM CUSTOMS BROKER                                       0503
A0101405940512368799002LASALA, LANI SALVADOR                                    0502
A0101408110515349308004RENATO Y. CRUZ                                           0501
A0101403450521357926001**********                                               0501
A0101403610531220224004FERRER, NESTOR AMIL                                      0502
A0101403610531321898002ANGELES, ELIZABETH SARANGLAO                             0504
A2201400250561342534004ROWENA B. FERRER                                         0501
A0101407720602166869002CHAN, LUZ GARCIA                                         0502
A0101407720602318369104MA. LUZ E. SALVADORA                                     0502
A0101407690652020765001STARIAN MARKETING                                        0504
A0101407690652741995001ESTACIO JR., FELIPE ADONA                                0501
A1301400340683768623001SALAZAR, RHODA RAMIREZ                                   0502
A4101400420814456030002AGELLON, LILY RADY AGUINALDO                             0503
A0101406750852617654001OSORIO, THELMA RAVELAS                                   0501
A0101405070861240149002KHO, HENRY C.                                            0501
A0101405070861707742001ELMER G. CHAN                                            0501
A0101405070861776321001RANARA, MATILDE ALIVIO                                   0502
A0101405070861799068001GARRIDO, MARY ANN PEREZ                                  0501
A0601400230891257858002LUCIA G. MAGTOTO                                         0510
A0601400230891730709001EMBESAN, ARNOLD AQUINO                                   0503
A0101406750000000017507VARGAS, ELENNETT LUCAS DBU VIG                          10502
A0101401700000000040217DEL MUNDO, E DBU JPA AUTO PARTS                         10503
A0101401700000000040239ESTINOPO, DBU RJL CAR PARTS                             10505
A0101406590000000131740JOSEF, FRANCISCO ENRIQUEZ OR                            10502
A0601400360000000225261CAYANAN, REYNALDO MERCADO DBU                           10502
A3101400160000000429178M. GARCIA CONSTRUCTION                                  10501
A0101405490000000444580JUSTINIANO E. GORDONCILLO JR JT                         10502
A0101407140000000445987SANTIAGO, RAPHAEL VICTOR VERA                           10501
A0101413440000000570461PLAMIO, ANTHONY F. OR TAMAYO,                           10501
A0101413570000000635665MAIDY S. DOMINGO OR                                     10501
A0101407690000000913586BASTIDA, MARICAR - DEALERS OF                           10501
A0501400170000001072888CASTANARES, PETRONILO ZAMORA OR                         10501
A3101400160000001559300PRIUSS DIAGNOSTICS AND MEDICAL                          10501
A0101400730111196336001CHAN, ILDEFONSO M. OR                                   10502
A0101408370382206455001DR. RUBEN G. KASALA OR                                  10502
A0101408370382319789001ROCHELA B. CUAYCONG OR                                  10501
A0101403610531219303001DR. ROMEO R. ANDAYA  OR                                 10502
A0101403610531219335003MANGUNE, MACARIO C.  OR                                 10501
A0101404000551414870001LIMSON, ELIZABETH OR                                    10502
A2201400250561253789002MELIZA TRACY G. FLORES OR                               10503
A0101407720602296141001ROMULO AUZA TROCINO OR MARIA                            10505
A0101407690652298552010ANGELINA CANETE - DEALERS OF                            10503
A0101407690652478374140BEATRIZ MANIAGO - DEALERS OF                            10501
A0101405070861196343001EDGARDO DAVID OR ANGELINA DAVID                         10505
A0101406750000000017507ENTERPRISE                                              20500
A0101401700000000040217CENTER                                                  20500
A0101401700000000040239CENTER                                                  20500
A0101406590000000131740JOSEF, AIDA CRUZ                                        20500
A0601400360000000225261RMCAYANAN ENTERPRISES                                   20500
A3101400160000000429178MARLON G GARCIA                                         20500
A0101405490000000444580BELINDA G. GORDO                                        20500
A0101407140000000445987CRUZ                                                    20500
A0101413440000000570461JENNIVEV S.                                             20500
A0101413570000000635665ANGELA MARIE C. ONG                                     20500
A0101407690000000913586SHOECAT INC.                                            20500
A0501400170000001072888CASTANARES, VIRGINIA RIVO                               20500
A3101400160000001559300SUPPLY                                                  20500
A0101400730111196336001CHAN, VALORIE F.                                        20500
A0101408370382206455001DR. MA. CARMELA KASALA                                  20500
A0101408370382319789001CESAR A. CUAYCONG                                       20500
A0101403610531219303001DR. ANGELITA Y.                                         20500
A0101403610531219335003MANGUNE, RITA                                           20500
A0101404000551414870001CASTILLO, EVERLY                                        20500
A2201400250561253789002JOSE ANGELO D. FLORES                                   20500
A0101407720602296141001CORAZON V. TROCINO                                      20500
A0101407690652298552010SHOECAT INC.                                            20500
A0101407690652478374140SHOECAT INC                                             20500
A0101405070861196343001OR MARY ELAINE DAVID                                    20500
B0101406620000000015038PC LIVE, INC.                                            1603
B0101405810000000016822VANDA PAPER PRODUCT ENTERPRISES COR                      1602
B0101407720000000017610GFTG PROPERTY HOLDINGS CORPORATION                       1605
B0201401020000000042264DEJARESCO DBU PCD TRDNG & GEN MDSE                       1602
B0101413730000000469712*************************                                1603
B0101408240000000832484RTI SYSTEM AUTOMATION, INC.                              1620
B0301400820000001006722DSG SONS GROUP, INC.                                     1625
B0101407430000001212991YEUNG MARINE PRODUCTS, INC.                              1605
B0101401250021019457001BOAZ AND JACHIN FOOD COMPANY                             1603
B0101400150061044902001888 CREATIVE STUDIOS INC.                                1605
B0101405810072034021001ACCUFORM FABRICATION INC.                                1601
B0101405810072507268003DONG, QIANE                                              1601
B0601400360083594999001ICE INTERNATIONAL TECHNOLOGIES INC.                      1602
B0101401670271007115001RAMIREZ AND CUTTER, INC.                                 1603
B0101408790383047276001SYSCO DEVELOPMENT CORPORATION                            1601
B0101403030441017706002**********                                               1601
B0501400170481025398002****                                                     1601
B0101404420631046082001EAGLES WING METAL INDUSTRY CO.                           1601
B0101406590662037318001NETWORK TWENTYONE, INC.                                  1603
B0101408240711043751001MARTIN'S AUTO ACCESSORIES & SERVICE                      1601
B0101408240711458793001RICHETEC INC.                                            1620
B4101400420814586174001GOLDEN ANABU MANPOWER CORPORATION                        1601
B0101405070861042933001DENOVO EXPRESS ENDEAVOURS CORPORATION                    1602
B0601400230891012908002JRS BUSINESS CORPORATION                                 1606
B0101406040000000096673HARV LAND CONSTRUCTION AND TRADING                      11603
B0101405490392043682001MIRROR YOUR WORLD GLASS AND ALUMINUM                    11605
B1201400150421496291001LIQUETE, DOLORES SAGUID OR LIQUETE,                     11602
B0101406590662517153001BRAND CONCEPTS SUPPLIES AND                             11603
B0101406040000000096673CORPORATION                                             21600
B0101405490392043682001SUPPLY                                                  21600
B1201400150421496291001LEONARDO                                                21600
B0101406590662517153001MANUFACTURING                                           21600
B2601400140691821100608**********                                               2001
