F0101413570000001682635MARLON F. QUITO                                          2502CKO
F0301400110191545173008MANAGRA TRADING CORPORATION                              2610CKR
F0301400240401025953008ECE MARKETING                                            2602CKR
F0101404680651297826002LIM,YOLANDA OR CABIGON, MELISSA                         12605CKR
F0101404680651297826002OR LANGCAY, SHIE                                        22600CKR
