F0101405650322467364001PENALOZA, WILLIAM TAN                                    2502CKO
F1901400290261400113002MA TERESA V VILLA OR                                    12505CKO
F1901400290261400113002TEODORO ANTONIO R VILLA                                 22500CKO
F1801400130000000028679COOPERATIVE UNION OF ILIGAN CIT                          2601CKR
F0201400180181031734005****************                                         2620CKR
F0201400180181052926001CELLPOD SHOPPE, INC.                                     2601CKR
F0201400210371472965002EVER DYNAMIC DISTRIBUTION NETWO                          2610CKR
F0101408400394030029001KEVIN'S KUT BARBERS, INC.                                2602CKO
F0101403290461029738001EZRA GENERAL SERVICES INC.                               2605CKR
F0101408080514032440001DAVAO MOLASSES HAULER INC.                               2604CKR
F4101400260812022293003JOMIJOH'S BAKESHOP INC.                                  2601CKO
F4101400260812033409001NEW DASMA GOLD BAKE INC.                                 2601CKO
