F3201400190000001492935SY, MIMI ENA LUCIA PIRA OR                              12501CKO
F4101400260812433131001TERESITA DUNGCA OR                                      12504CKO
F3201400190000001492935FERNANDO L. SY JR.                                      22500CKO
F4101400260812433131001REBECCA DUNGCA                                          22500CKO
F0101402640000000032691TRES MARIAS HARDWARE                                     2601CK1
F4101400390008133500318MA-MA'S HOPE HAVEN OF NORWAY, I                          2601CKR
F0101402770391030168001XYTRIX SYSTEMS CORPORATION                               2605CKR
F0101403450521012151002**********                                               2602CKR
F0101404260611034502001RSC MARKETING SERVICES                                  12601CKR
F0101404260611034502001CORPORATION                                             22600CKR
