A0101405490000000019667MARVIN C. BILIWANG                                       0502
A0301400660000000023047SEAWHALE CUSTOMS BROKERAGE                               0503
A0101404420000000026086*****                                                    0503
A0101408660000000059932MARGAS, HELEN DUMAYAC                                    0501
A0101406040000000096946PHILIP COLE REYES                                        0505
A0101413440000000183680LORENA D. FADERANGA                                      0501
A0301400660000000194438*****                                                    0501
A0301400660000000194661*****                                                    0501
A0101404840000000475941RONNIE RABINO                                            0502
A0101404840000000475952GONZALES, ROWENA POLLICAR                                0501
A0101408790000000579740DEAN FRANCIS ALFAR                                       0501
A0101404420000000866440FELICIANO, MELVA PATALINGHUG                             0501
A1301400340000000926927DELA CRUZ, RONNEL SANTIAGO                               0501
A0101402480000001099594**************                                           0510
A0101401090000001618986ALVAREZ, MA. AILIL BORLONGAN                             0501
A0101414120000001642655REGINA LIM OR DANILO LIM                                 0502
A0101407430000001664024QUIRANTE, JESSIE MARINAY                                 0505
A0101403320000001803292BAUTISTA, HERBERT DAYON                                  0501
A0701400260000001804586MENDOZA, MARK JOSEPH VALDEZ                              0502
A0101401380000001819901OGAYON, ANNA LISSA ESTACIO                               0501
A0101401960000001844475****************                                         0503
A1901400290000001926365UMALI, RANDOLPH EDWARD SHEKER                            0502
A0101402480000001927693GALINDO, ARIEL DUCTO                                     0502
A0101410140000001939819MEMBERS OF NATASHA (SHOECAT INC                          0501
A1901400290000001975288FLORINDA MASAS BARTE                                     0502
A0301400820000002106274KJL ENTERPRISES                                          0510
A0301400950000002115111**********                                               0502
A0101407560000002152610RICABORDA, FEIL DBU FDR TRADING                          0501
A0101402510000002659943SANTOS, AVEGALE HADAP                                    0503
A0201400920000002804480MIRANDA, SAMMY                                           0502
A0101400730000002882342ELECCION, JENNIFER SENSAL                                0501
A0101412340000002900318******                                                   0501
A0101405650000002960901BALUBAR, TEODORA VILLEGAS                                0501
A0601400230000003015583HERNANDEZ, VILMA VALENCIA                                0502
A0101405490000003178410RAMOS, JOHN DARIUS NARCISO                               0502
A0101414120000003190883DE CASTRO, CEDRIC JOHN SARMIENT                          0502
A0101407270000003254117JINNO G. MAGBANUA                                        0501
A0101412340000003340810KAREN MARIE O. AQUINO                                    0501
A0101412340000003340832EDILBERTO V. ARBOLEDA JR.                                0501
A0101412340000003340963CHARMAINE KATHLEEN S. BABAS                              0502
A0101412340000003341200ZANFORD V. BERMUNDO                                      0501
A0101412340000003343768LEE MARVIN C. HORMILLOSA                                 0501
A0101412920000003464920ROSELYN B. ABILGOS                                       0501
A0101411660000003580181PEARLY ANNE C CHENG                                      0501
A0101412500000003853474****                                                     0501
A0101401700041332853001**********                                               0501
A0101400150061315349094CHERRY PANDONGAN UMEREZ                                  0501
A0101405810072354021002CHENG, MARIA ISABEL DIAZ                                 0502
A0101405810072367294002WANG, PIAK SONG SIA                                      0501
A0601400100081639196001DIMALANTA, ANALYN TEGIO                                  0501
A0601400360083791475001DOMINGO, JEFFREY ESTACIO                                 0501
A0101400730111412858002EVANGELINE DELA ROSA                                     0503
A0101400730111651286001DE CASTRO, MARIA CECILIA BEJER                           0501
A0101400730111741862001ATTY. H. JAMES WILMOT                                    0502
A0101400730111752242001DE GUZMAN, MARITESS VILLANUEVA                           0501
A0101401830141206540002MEGA NURSERY ORCHIDS                                     0501
A0101400440161520766185FLORA S. CHUA                                            0501
A0101400440161525001104EVELYN G. GARCIA                                         0501
A0101407270162331908060BERNARD JOSEPH VELASCO                                   0501
A0101407270162587936002WILFRIDO G. TIRONA                                       0501
A0101401090171353569001ALETH THERESE L. DACANAY                                 0501
A0101401090171374243001ANNABELLE G. LAURO                                       0501
A0101401090171627002001CARMELITA OR JOHN PAUL SEVILLA                           0502
A0301400660194304371001*****                                                    0510
A0101401380201559410001PADON, CLITA GADO                                        0503
A1001400190231478374066RABOR, LEILA FALCONITE                                   0501
A1301400470252478374018ELIZABETH P. BARNACHEA                                   0501
A1901400290261042311012LORETOSOL C. GALLARDO-CASTILLO                           0501
A1901400290261389616001ROBERITA C BUNQUIN                                       0505
A1901400290261663904001EVELYN ROSALES PURINO                                    0501
A1901400290261741509001ROMELIA DE LA CRUZ MACASAET                              0501
A0101400570281186617001DR. SALLY RACHEL T. MACAPAGAL                            0503
A0101400570281192945001MINDA D. BUENVIAJE                                       0502
A6601400120314728707001TIOSEN, EVA ONTOG                                        0501
A0101402480331027585001PIXEL ARTS                                               0502
A0101408820333478374062SANDRA G. BUENO                                          0501
A0101402060351483772001CAPUMPUE, ADOR PEREZ                                     0503
A0201400890376046540001**********                                               0502
A0101403320471566591001EDDIE C. BULANON                                         0501
A0501400170481597163001TAN, FRANCISCA ROSARIO ESPINO                            0503
A1401400110492029549002TRIPTORS DIAGNOSTIC CENTRE                               0502
A0101411790518055764067BUENO, JERWIN WILLIAM CANTOS                             0501
A0101411790518055764196LIANG, JEN RAY YU                                        0501
A0101411790518055815053MORALES, MA. JANINE MANUBA                               0501
A0101411790518055815138SONGCAYAWON, LEAH PAMIROYAN                              0501
A0101403450521238268001**********                                               0502
A0101403450521678458001*********                                                0502
A0101404130601669859001SABUCDALAO, GERALD DAPITAN                               0501
A1301400340683373499001DELOS REYES, MARILYN FRANCISCO                           0505
A1301400340683445514002DE JESUS, ROMARICO MACAPAGAL                             0501
A0101407560686339091002EVANGELINA C. LACAY                                      0502
A0101407560686478374048REMEDIOS B. MALIT                                        0502
A4101400260812548294001CARLITO A. ESTIMO                                        0501
A4101400420814575367002PIANSAY, SULPICIA ALIMANE                                0501
A0101404840851428321001GUTIERREZ, OLIVER OR ROGELIO                             0501
A0101402510000000003032SANCHEZ, RIA OCAMPO OR SANCHEZ,                         10505
A0101410300000000592154MILLAR, JOSEFINA C. OR                                  10503
A1101400120000000652602LIM, JOHNNY C. OR                                       10505
A0101414120000000875652PABLITO OR RONALD JOHN OR                               10504
A0601400230000001062399RODA, ZENAIDA GARCIA or                                 10502
A0601400230000001687090GUTIERREZ, JOSEPH MONTES                                10501
A0101403320000001803305LADORES, DON EIKEL N. OR                                10501
A0101401830141292667001GEMMA B. MAGTALAS OR                                    10501
A0101401090171199436001DARYL OR HELEN OR CARMELO                               10504
A0101401090171380553001HELEN J. DICHOSO OR                                     10503
A0101412500214056550001PABALAN, PONCIANO LOPEZ DBU P.L                         10501
A1901400290261513754001CLEA LAYCO PASTETEO OR                                  10501
A1901400290261525986001JOEL D PUA OR                                           10501
A0101408370382205328002LIGAYA P. SANGA OR                                      10501
A0101408370382502182001CHRISTOPHER OLIVER NAZAL OR                             10501
A0101408370382660357001DRS. THERESA MARIE R. CACAS OR                          10501
A0501400170481252361001LO, JOSEPH GUANZON OR                                   10505
A0101408110515552164001CELIS, BENEDICTIAN OR                                   10501
A0101408530516536000001GRIARTE, OLIVIA ROBLES OR                               10501
A0101407720602166527001ALIPIO ABAD JR. OR                                      10505
A0101407720602515940001TIGLAO, JENNIFER THERESA                                10501
A0101404260611478374127BENIGNO G. SURIO JR.                                    10502
A0101404260611659908001LIM, EDNA MAGDANGAL                                     10503
A1301400210682635116001DEVORAH M SOTO OR                                       10501
A0101408240711228456002MA. VICTORIA MANIQUIS                                   10502
A0101408240711323526001SHIRLEY A. MANESE OR MARIA                              10501
A0101402510000000003032MANUEL OCAMPO                                           20500
A0101410300000000592154MELCHOR, GISELA M.                                      20500
A1101400120000000652602LIM, RICHARD Y.                                         20500
A0101414120000000875652PRINCESS JOY OR                                         20500
A0601400230000001062399MANIO, CRISTINA                                         20500
A0601400230000001687090OR GUTIERREZ, MA                                        20500
A0101403320000001803305LADORES, KRISTINE Y.                                    20500
A0101401830141292667001HENRY A. MAGTALAS                                       20500
A0101401090171199436001DICHOSO                                                 20500
A0101401090171380553001DR. CARMELO DICHOSO                                     20500
A0101412500214056550001PABALAN CONSTRUCTION                                    20500
A1901400290261513754001ROMULO BUJAUE PASTETEO                                  20500
A1901400290261525986001MA KATRINA G POLICARPIO                                 20500
A0101408370382205328002ANNA LEAH P. SANGA                                      20500
A0101408370382502182001MARILES HERNANDEZ-NAZAL                                 20500
A0101408370382660357001JEANNE MARIE R. MARQUEZ                                 20500
A0501400170481252361001LO, RUBY                                                20500
A0101408110515552164001HABANA, MARIA THERESA                                   20500
A0101408530516536000001GRIARTE, KENNETH                                        20500
A0101407720602166527001ADORACION ABAD                                          20500
A0101407720602515940001GONZALES                                                20500
A0101404260611478374127OR CARMELITA M.                                         20500
A0101404260611659908001OR ORLANDO LIM                                          20500
A1301400210682635116001MIGUEL CARLOS B                                         20500
A0101408240711228456002OR STEVE MANIQUI                                        20500
A0101408240711323526001ELENA M. ISAAC                                          20500
B1001400350000000017052TIMBERLAND GENERAL MERCHANDISING                         1603
B4101400390000000034022GLOBAGILITY INC.                                         1601
B0101410300000000191633THE KIDS FOR KIDS INC.                                   1601
B1001400350000000244404GOLDEN MACHINE WORKS CORPORATION                         1601
B0101414120000000399093*****                                                    1604
B0301400950000000566945BIG Z QUALITY FOODS CORPORATION                          1605
B0101403580000000922930CAM32 INC.                                               1602
B0101407430000001028988********                                                 1612
B0301400660000001113740LAI, RHEA MAE POLO                                       1602
B0101407430000001213181NORVIC DRUGS CORPORATION                                 1602
B0101400730000001242682TOULOUSE FOOD SERVICES INC.                              1605
B0101406880000001286368FARMVILLE MULTI VENTURES INC.                            1603
B0301400660000003361862SOUTHSHIP HANDLERS PHILIPPINES INC                       1602
B0101400730111019776001TRAVELFAST INTERNATIONAL                                 1601
B0101406040112764714001********                                                 1602
B0101407270162019074001WHOLESOME FOODS INC.                                     1605
B0101407270162044107001KNOXPORT, INC.                                           1605
B0301400660194014152088*****                                                    1605
B0101407140213041983001CHEMFOUR INCORPORATED                                    1602
B0101407140213387771002**********                                               1610
B1301400470252030548001CABANATUAN JAC MARKETING CORPORATION                     1602
B0101401670271007101001CONTINENTAL HOMES, INC.                                  1604
B6601400120314617698002CATARMAN DOCTORS HOSPITAL, INC.                          1605
B0101402480331224186001**********                                               1602
B0101408820333037098001**********                                               1601
B0201400760374490906001******                                                   1602
B2401400180411014550001GSC PROGRESSIVE MULTI-PURPOSE COOP.                      1603
B0101403030441011894001REXSSEL AUTO PARTS CENTER                                1601
B0101403320471039191001MAR-V-RITZ TRADING - BRANCH                              1601
B0501400170481029507001ARCINUE DEVELOPMENT CORPORATION                          1602
B1401400110492011585002LUCENA GREENVIEW, INC.                                   1602
B0101403580511005607002RAM FOOD PRODUCTS, INC.                                  1603
B0101403580511034597001TECHNOPIPE CONST. CO., INC.                              1601
B0101403580511038270001EMECH FIRST BUILD COMPANY INC.                           1603
B0101403580511709173001RAM FOOD PRODUCTS EXPORT, INC.                           1601
B0101405940512035170001DAIRYGOLD FOODS INT'L, INC.                              1602
B0101408110515033918001**********                                               1603
B0101403450521011744001CBK CONSTRUCTORA, INC.                                   1602
B0101407720602022821001BLITZ MARKETING AND EVENTS, INC.                         1602
B0101404260611027402002ENTRUSTED CORP                                           1605
B4101400260812024102001CITAFEL TRADING & SERVICES                               1605
B0101404130000002121533IPRUDENTIAL STEVEDORING AND PORT                        11605
B0101401830141290260001HENRY MAGTALAS OR GEMMA MAGTALAS OR LEE                 11601
B0101401830141333975001TERESITA I. RIVERA OR                                   11610
B0101401090171024135001PHYSIOLOGY RESEARCH FOUNDATION OF THE                   11601
B0101402510341008473001CENTRO ESCOLAR UNIVERSITY EDUCATIONAL                   11602
B0101404130000002121533SERVICES INC                                            21600
B0101401830141290260001MARVIN MAGTALAS                                         21600
B0101401830141333975001IREEN R. BANGUG                                         21600
B0101401090171024135001PHILS., INC.                                            21600
B0101402510341008473001FOUNDATION, INC.                                        21600
B0101408110515821100608**********                                               2005
