A0101410850000000005778*****                                                    0501
A2401400180000000019890TAN, JOSEPHINE TIONGSON                                  0501
A0101406880000000027158ABELLO, JULIUS IVAN SAGMAKIN                             0502
A0101401380000000106481LUNA, ANTONIA CAMIT                                      0501
A0101408240000000347551TAN, JUAN MIGUEL PAEZ                                    0501
A3101400870000000957757BALLESTER, RAQUEL DEL ROSARIO                            0502
A4101400390000000975117BERATIO, RICARDO EROLES                                  0501
A0101408400000001035476ODOYA, CONCHITA ESTACA                                   0503
A0101408400000001213512GUEVARA, NORMA RAYOS DEL SOL                             0501
A0101412760000001399328MANALAYSAY, VIRGINIA PALARUAN D                          0501
A0101413440000001472635********                                                 0501
A0101402480000001562141GO, CORAZON SOPANG                                       0501
A0101401090000001618640ALMEDA, CARLOS MENDOZA                                   0505
A0101401380000001819832LEY, RICHARD NOEL CO                                     0501
A0101408400000001855449D'CUPBEARER ACCOUNTING FIRM                              0503
A3101400870000002007738RECTO, MARY ANN PACAIGUE                                 0501
A0601400520000002271041OIDA, KAROL JO LAYUG                                     0503
A1001400480000002300305TINGTING, JO ANN BENDICIO                                0505
A0101405490000002639518STEPHANY M. TOZAWA                                       0502
A2601400270000002677536MARIETA Q. RAMIRO                                        0502
A0101412340000003349455RAMIL DELA CRUZ VARGAS                                   0501
A0101400860011398810001**********                                               0502
A0101400860011399497002**********                                               0504
A0101400860011483037001CASTRO, ROWENA                                           0502
A0101400150061226860001HSIEH, HO HSIANG                                         0501
A0101400150061398095001PEREZ, ZENAIDA HERNANDEZ                                 0501
A0101400150061398232002TOH, GRACE SHANG YANG                                    0502
A0101405810072235427001**********                                               0501
A0101405810072265481001PLAZA, LEONORA LIM                                       0503
A0101405810072312400003************                                             0501
A0101405810072361243002PONSARAN, MARY JANE RAMOS                                0503
A0601400100081256573002LIM, JUDY C.                                             0501
A0601400100081710246001CHOI, JAE JUN                                            0501
A0101400440161520766193LEILANIE P. LOCSIN                                       0501
A0101400440161525001105VIRGIE B. CRUZ                                           0501
A0101401090171196285002SISON, LILIAN DE JESUS                                   0502
A0101401090171201254001NESTOR LINO A. BAGSIT                                    0503
A0101401090171343604001RAYMOND Y. NUNEZ                                         0501
A0101400310211380976001PINTADO, MANUEL GUERRERO                                 0502
A0101400310211691544001CARILLO, JANILYN LUCASAN                                 0503
A0101407140213239594002**********                                               0502
A0101410980275076628001TAN, GIAN CARLO UY                                       0501
A0801400160311055600001DORILLO, FLORENCIA LOMILLO DBU                           0501
A0101402350321236824001CARMEN T. GO                                             0502
A0101402350321287893001CHANG, PO HAN                                            0502
A0101402350321478374006MARINA T. CASTILLO                                       0502
A0101402350321485233001TUI, CHARLES ANGELO                                      0503
A0101402350321708802001ALMAROSE C. VILLAPANDO                                   0502
A0101405650322412858006CABUNTOG, GINA B.                                        0502
A0101402480331010038001**********                                               0502
A0101402480331027585001PIXEL ARTS                                               0502
A0101402480331093748001RURAL, MYRNA DIAZ                                        0504
A0101402480331224005002***************                                          0501
A0101402480331224009001*****                                                    0501
A0101402480331224076001JAIME ORTEGA                                             0501
A0101402480331224927001TENNYSON CHEN                                            0501
A0101402480331396734001*********                                                0501
A0101402480331454280002****                                                     0502
A0101402480331455196001****                                                     0501
A0101402480331457746002****                                                     0501
A0101408820333400026001**********                                               0503
A0201400920375524523001MIEL, PRINCESITA OR MIEL, ALEX                           0502
A0101408370382205224001NORMAN S. BUSTOS, M.D.                                   0502
A0101408370382387809001DR. LEAH ROSARIO Y. DYCOCO                               0501
A0101408370382592860001ANGELINE S. TINGA                                        0502
A0101402770391211308001*********                                                0505
A010140549039201910700220/20 ENTERPRISES                                        0502
A0101405490392170537002LORNA V. TUGADE                                          0501
A0101405490392177005001DOMINGA P. BUENAOBRA                                     0501
A0101405490392478374008MARGARITA R. CIELO                                       0501
A0101405490392481659001MARITES Q. FACTURA                                       0501
A0101405490392519821001MESINA, MARIA PAMELA GUECO                               0501
A0101408400394027889001TINA S. BERIN FLOWER SHOP                                0505
A0101408400394042747001CHARIS GLASSBLOWING PRODUCT                              0502
A0101408400394159750001ROMERO, FRANCISCA BAUTISTA                               0502
A0101408400394409317001BANDWAGON ENTERPRISE                                     0501
A0101408400394419461001MARIA AURORA AQUINO BARROS                               0501
A0101408400394478374080FIESTADA, PINKY                                          0501
A0101408400394507696001WEE, NORMAN VINCENT LEE                                  0502
A0101408400394550481001FELICIANO, LEONARDO LAPUZ                                0501
A0101408400394550481001FELICIANO, LEONARDO LAPUZ                                0501
A2401400180411045435001HP FRANCISCO CONSTRUCTION                                0505
A2401400180411288023001MANANGQUIL, MA. SOLEDAD BETITA                           0510
A1201400150421401064001KUMAR, SURINDER                                          0502
A0101403320471078260001JOSON III, TOMAS NORIEL                                  0502
A0101403320471550810001JOSEPHINE O. CARUNGAY                                    0501
A0101406880513197649001HARPER, ANNA MARIA LAMMOGLIA                             0501
A0101406880513548953001DATIN, ESMERALDA EVANGELISTA                             0502
A0101406880513565496013ABDON, ANTONELLA TURALBA                                 0502
A0101403450521238049002**********                                               0501
A0101407720602397660001LAZARO, GISELLE MARY SERRANO                             0502
A0101407720602565407001CASIHAN, CECILIO DECILOS                                 0501
A0101404260611152161001PABLO O. LABRADOR                                        0501
A0101404260611487906002REYES, MA. SHARON FLORES                                 0501
A0101404420631386485008HERMINIA E. BINIBINI                                     0501
A0101404420631478374130SUSANA S. TIANGCO                                        0501
A0101409920650478374021AGUJA, CAROLINA DIAZ                                     0501
A0101406590662464079001PERALTA, PATRICIA BIANCA G.                              0501
A0101406590662523209001BENDANA, SARAH PO                                        0501
A0101408240711417025001LUPOT, JULIUS CALACAT                                    0502
A4101400390813402791001RANTE, AMANTE CONTAOI                                    0502
A0601400230891462664001MARIANNE M. CARLOS                                       0502
A3101400870000000957655BITHAO, C DBU BP-1 CAR AUDIO                            10502
A3101400870000002007716ALMAZORA, RYAN ACE VIBAR AND                            10501
A0101410850000003101913DIA, ELVIRA ALEGRE OR DIA,                              10502
A0101400150061356288002FERNANDEZ, EDINA T OR                                   10502
A0101407270162163292001ANICETO P. GO                                           10502
A0801400160311389143001CHAN, MILAGROS OR                                       10502
A0101402350321180459002TING CHING LAN OR CHANG CHIAO                           10501
A0201400890376667775001BUYSER, MISAN CANAS OR BUYSER,                          10501
A0101405490392170122001LEONIDES A. SANTOS OR                                   10502
A0101408400394401872001ORDOVEZA, JOSE MA. LINO OR                              10502
A5501400120410636179018CHIU, VALENTIN & JULIA EILEEN                           10502
A2401400180411496346001OCIEL, MARIA MAGDALINA S. OR                            10505
A0101406590662542232001RUEL CHANCO OR MA. ROSARIO                              10502
A4101400420814329306001REYNALDO N. TUPAL OR                                    10501
A4101400420814457337002ORDONEZ, JANE M. OR                                     10501
A4101400420814727886002FLORES, NESTORIO CAPATAR OR                             10501
A0101406750852023552001DEN-DEN & DJ ANNE                                       10503
A3101400870000000957655AND ACCESSORIES                                         20500
A3101400870000002007716DAYAN, VAN JEFFREY SISON                                20500
A0101410850000003101913ABNER NATHANIEL ALEGRE                                  20500
A0101400150061356288002FERNANDEZ, VERNON                                       20500
A0101407270162163292001OR MILDRED GO                                           20500
A0801400160311389143001CHAN, NATHANIEL                                         20500
A0101402350321180459002FEI OR CHANG CHIAO FENG                                 20500
A0201400890376667775001IAN CHRISTOPHER                                         20500
A0101405490392170122001CONCHITA R. SANTOS                                      20500
A0101408400394401872001ORDOVEZA, ANA MARIA                                     20500
A5501400120410636179018& CHRISTIAN & CHRISTEL                                  20500
A2401400180411496346001OCIEL, RANDY L.                                         20500
A0101406590662542232001ARLENE CHANCO                                           20500
A4101400420814329306001MARIA VERONICA A                                        20500
A4101400420814457337002ORDONEZ, JOSE IB                                        20500
A4101400420814727886002FLORES, MA. SOCO                                        20500
A0101406750852023552001GENERAL MERCHAND                                        20500
B0101412210000000031552MANTRA RESOURCES CORP.                                   1602
B0101412760000000032026SERBIZ MULTI-PURPOSE COOPERATIVE                         1605
B0101410140000000038895NANOZ, DE LA CRUZ AND ASSOCIATES, C                      1601
B0601400100000000142225FUTURE GENERATION HOUSING HOLDING INC.                   1605
B0101402480000000310432PINNACLE PARTS CO. INC.                                  1606
B0101406330000000432802FLEXTONE CO.                                             1602
B1601400170000000497030GLOBALINK NETWORK INTERFACE INC.                         1601
B4101400550000000900138WILSTAR HARDWARE AND CONST. SUPPLY CORP.                 1601
B0101402480000001100143KOINONIA HAULING AND SALES INC.                          1602
B0101411400000001280546WARNER BARNES TRAVEL, INC.                               1601
B0101410690000001284395ALDANA, MA. ELENA M. DBU PANSOL TRADING                  1602
B0101405490000001935680HUGE MANUFACTURING CORPORATION                           1603
B0301400790195055344001GHRIMS REALTY AND MARKETING COMPANY                      1601
B0101412500214055614001A.D.P.P. TRUCKING SERVICES CORP.                         1601
B0801400160311037708001RD CASH PADALA, INC.- ILOILO                             1605
B0101402350321015321001BEST CHOICE MINIMART INC.                                1605
B0101402350321024919001DASHER MARKETING CORPORATION                             1601
B0101402350321035857001MOBICAR TRADING CORPORATION                              1602
B0101402350321037708001RD CASH PADALA, INC. - PARANAQUE CITY                    1603
B0101405650322006303001GIL'S TRADING                                            1605
B0101402480331030127001NITO SEIKI MANUFACTURING CORPORATION                     1601
B0101402480331036504001**************                                           1605
B0101402060351009577001AGC FLAT GLASS PHILIPPINES, INC.                         1602
B0201400920375526997001**********                                               1602
B0101405490392047473001DONA SOLEDAD DRUG TESTING LABORATOR                      1601
B0101408400394019978001BACOLOD WORD OF LIFE MINISTRIES, INC                     1601
B0101408400394032168001ALQUIROS FOOD CORPORATION                                1603
B0101408400394037910001HARBOURSQUARE FOOD INC.                                  1605
B5501400120410041754001KENDRICK PETRON STATION                                  1603
B0101403030441339063003**********                                               1602
B0101406330472028479001TRU-SERV MARKETING CORPORATION                           1602
B0501400170481029507001ARCINUE DEVELOPMENT CORPORATION                          1602
B0101406880513036413001VISAYA KNOWLEDGE PROCESS OUTSOURCING                     1602
B1701400230693035209002OUR SAVIOUR'S FOUNDATION, INC.                           1605
B0101402350000000046091ACHIEVE A CAREER TODAY TRAINING CENTER                  11601
B0101401090000000772390NUEVO, FLORIAN RIVERA AND CARLOS, DANILO                11602
B0101405490000001092488NORTHSHORE HARDWARE & CONSTRUCTION                      11602
B0201400760000001612868COSTA DE LETICIA BEACH RESORT AND                       11601
B0101402060351027951001STA. ROSA DE LIMA PARISH-VALLE VERDE 2                  11602
B0101402350000000046091& DEV'T. INC.                                           21600
B0101401090000000772390ELVAMBUENA                                              21600
B0101405490000001092488SUPPLY                                                  21600
B0201400760000001612868SPA, INC.                                               21600
B0101402060351027951001MINI PASTORAL                                           21600
