A0201400920000000048002UY,ANN MARCIA LOU MANSUETO                               0501
A1301400760000000050422RAFAEL R. CLEMENTE                                       0501
A2601400270000000084160EVELYN V. ALIVIA                                         0501
A1001400480000000133337TUDTUD, NELSON ATAMOSA                                   0501
A5001400170000000169879**********                                               0501
A0101406330000000451352DUMANIL, SARA STO DOMINGO                                0503
A0101407720000000510574BERAMENDE, ROWENA BORCILLO                               0501
A2601400270000000561988ROSALINDA S. ORDONEZ                                     0501
A0101406590000000568981BARBARA, GLENN BORLAGDAN                                 0501
A0101406620000000577071ANG, CHARLES WILLIAM ONG                                 0501
A1001400480000000606842MADERA, GEORGE ENCALLADO                                 0501
A0101400730000000645614GONZALES, SHEILLA ODYSSEY A.                             0502
A0101406330000000683318ALBANO JR., NELSON DALISAY                               0501
A0101404680000000767084GIRLY S. ABANEL                                          0502
A0101404680000000767153DENIA, TERESITA GELLANGARIN                              0502
A0101410720000000882833MIRANDA, LOURDES DAVID                                   0501
A0601400360000000978914LUDOVICE, LEANDRO JUNIO                                  0501
A1601400170000001069023MARIA TERESA Q. RANOLA                                   0505
A0101410560000001290842PAGGAO, HONEYLET OTEYZA                                  0501
A0101404840000001312725GUERRERO, EDELMARIE BOBIS                                0501
A6601400120000001370832PENARANDA, ZENAIDA CASINO                                0501
A1301400340000001415634********                                                 0501
A0101405940000001534269**********                                               0501
A0101404680000001617352FE R. LIM                                                0501
A0101404680000001617374TANIEGRA, MELANIE PANLILIO                               0502
A0101401090000001618895PAEZ, ANA RUBY MARBELLA                                  0501
A0101406620000001686939QUEZADA, JOSEPH CHRISTIAN PENAF                          0501
A0901400220000001805049**********                                               0501
A0101400440000002034986DENNIS F. FERNANDO                                       0501
A0101408370000002264024CAPIRAL, RAUL ELLARD SERRA                               0501
A0701400260000002338952GONZAGA, RENATO LAVAPIE                                  0502
A0501400170000002354510BERMUDEZ, ELSIE MALAPIRA                                 0502
A1001400480000002659783REFUGIO, SOFRONIO RETUTAS                                0501
A0101412500000002844335NUESTRO, JAN ANGELO VALERA                               0503
A0101401700041360888001ANNEE SAIDA T. ESCLETO                                   0503
A0101400150061039917042ARNFIN C. ARCE                                           0501
A0101400150061226997001*********                                                0502
A0101400440161039572045DOVIE T. JERMIA                                          0502
A0101400440161478374144CELERINA M. MARASIGAN                                    0501
A0101400440161525001174RIZALYN V. GUNTANG                                       0505
A3101400160221478374002MA. LOURDES T. ELIZON                                    0505
A0101406620273477709002LUCERO JR., JUANITO ARIEL RUFON                          0502
A0101400570281187271001SIA, STEPHEN TAN                                         0503
A0101400570281419209005SENERIZA C. ITULID                                       0502
A6601400120314041332001SOPHIES CATERING                                         0501
A0101405650322497703001BASCON, PHILLIP HOWARD                                   0502
A0201400920375718711001LIM, ROSARIO TAN                                         0501
A0101402930381478374015DIMARANAN, ARNOLD ABEJERO                                0501
A0101402930381569104001********                                                 0502
A0101402770391529757003WENYFREDA B. SY                                          0501
A0101408950396564775001MAGLINAO, NELSON MEDALLA                                 0501
A0101412210399094817008RYAN RENE C. JORNADA                                     0501
A2401400180411320270002SALARDE, GLORIA TIMKANG                                  0502
A2401400180411575330002QUINONES, REY SUICO                                      0502
A2401400180411623776001SAUBAN, MARIA LUISA BANDIOLA                             0502
A2401400180411795584001BROTARLO, ARRACELI VENERACION                            0501
A0901400220432478374002EVELYN ALGA DEMECILLO                                    0501
A0101403030441239063001**********                                               0502
A0101406330472478374020SHERLY MONDELO                                           0502
A0101406880513527242001ABIADA, MA. BIEN BORJA                                   0501
A0101403450521367887001**********                                               0501
A0101403450521567563001********                                                 0502
A0101407720602342044001DR. DARWIN ALBERT DASIG                                  0501
A0101407720602376178002CABRAL, ANGELICA AMPIL                                   0502
A0101407720602402575001CEDENO, JOSEPH RAY RICHARD RUFO                          0504
A0101409920650478374008DAVID M. ESPARTERO                                       0501
A0101404680651034098001NOVAVILLE PAINT CENTER                                   0502
A0101404680651038218001KLC TRADING                                              0501
A0101404680651168788001DAQUIGAN, MAURO CASTILLO                                 0501
A0101404680651170612002REA F. SORILLA                                           0501
A0101404680651171110001RUMAX ENTERPRISES                                        0505
A0101404680651458152001NO NAME                                                  0503
A0101404680651478374094MARY ROSE L. CONVOCAR                                    0502
A0101404680651478374106JULIEFE S. ARTAZO                                        0501
A0101410720653172475001MALABANAN, IRENEO PLAZA                                  0515
A0101410720653478374010SOCORRO JIMENEZ                                          0503
A0101406590662418327001LABIS, ERWIN MARPURI                                     0503
A0101407560686314209001**********                                               0501
A4101400260812478374082JESSIELYN D. LUGATIMAN                                   0501
A4101400420814520766006PLAZA, CORNELIA P.                                       0501
A0101404840851520766063LORELIE P. DALIGDIG                                      0501
A0101402770000000360923PERLITA CELOSA OR                                       10501
A0101403320000000452322JAVIER, E DBU CENDAUR                                   10502
A0101411660000001145788TUMPALAN, SOCRATES DBU FIRST                            10501
A0101409210000001294515CABAL, EDEN PERDIDO OR                                  10504
A0101402510000001358163ABAD, EDUARDO ARGOSINO OR                               10501
A0101406040000001392018BERNARDO JORGE B. MITRA OR                              10503
A3101400160221221673001ALMIRA A. DIMACULANGAN OR                               10501
A0101402930381205241005DR ACHILLES OR FE DELILAH OR                            10502
A0101402930381419788001ALMARITA JIMENEZ OR                                     10501
A0101402770391752292001JUANITA OR TOMAS OR BENJAMIN                            10501
A0101403320471560880001REYNALDO JAMERO SANTIAGO JR.                            10501
A0501400170481285059001CHUA, CRISTINA YU OR                                    10501
A1901400160491244615002FERDINAND C CHUA  OR                                    10501
A1601400170494076550001MARTIN A. CALLEJA OR                                    10501
A0101407720602398203001CONRADO GABRIEL C. LORENZO                              10503
A0101404680651742300001STEPHEN P. DE SILVA OR                                  10501
A0101404680651785728001IRAGEL M. ABING OR                                      10504
A0101408240711410292006JOSEFINA OR JUAN OR                                     10501
A0101402770000000360923FRANCISCO CELOSA                                        20500
A0101403320000000452322ENGINEERING                                             20500
A0101411660000001145788SUN MARKETING                                           20500
A0101409210000001294515CABAL, ROMUALDO V                                       20500
A0101402510000001358163TUICO, LEOPOLDO ARGOSINO                                20500
A0101406040000001392018SHARON LESLIE M. MITRA                                  20500
A3101400160221221673001RAMON M DIMACULANGAN                                    20500
A0101402930381205241005ACHILLES BARTOLO JR                                     20500
A0101402930381419788001MA. REGINA COELI JIMENEZ                                20500
A0101402770391752292001VICTORIA                                                20500
A0101403320471560880001OR JOCELYN V. SANTIAGO                                  20500
A0501400170481285059001CHUA, STEVEN                                            20500
A1901400160491244615002DANTE C CHUA                                            20500
A1601400170494076550001CARMEN G. CALLEJA                                       20500
A0101407720602398203001OR PIA L. LORENZO                                       20500
A0101404680651742300001NORMA P. DE SILVA                                       20500
A0101404680651785728001FELIX F. MONFORTE                                       20500
A0101408240711410292006ALLAN JOSEPH PENA                                       20500
B0101407560000000003538****************                                         1602
B0601400360000000025761JADE GAMING AND AMUSEMENT TEC-CLARK                      1601
B0101408820000000027392GOODMORNING INTERNATIONAL CORPORATION                    1602
B0101410720000000029850NORDHOFF ENTERPRISES INCORPORATED                        1601
B0101412500000000739759ITEXPRESS CO., INC.                                      1602
B0101403450000000889701**********                                               1603
B0101407430000001028988********                                                 1604
B1001400190000001057647TAN, RENARIO T0 DBU RENAR MARKETING                      1602
B0101404840000001312401JOY PLANET INC.                                          1602
B0101404840000001312412TOM'S WORLD PHILIPPINES CORPORATION                      1602
B0101400150061011172002CASE SERVICES INC.                                       1604
B0101400150061026597001HONDA MOTOR SPORTS INC.                                  1603
B0101400150061027294001HMS CREDIT & FINANCE CO., INC.                           1602
B0101407270162019080001OLYMPUS FOOD INC.                                        1605
B0101407270162040422001******                                                   1602
B0101407270162044106001HICKORYKING, INC.                                        1605
B0101407140213033784001HIGHLAND TRACTOR PARTS, INC.                             1605
B0101401670271028082002DDT KONSTRACT, INC.                                      1615
B0101401670271191081001EAGLECOR, INC.                                           1605
B0501400200292045909001*******                                                  1605
B0101402060351040213002SOUTH POLE URBAN FOODS CORP.                             1610
B0101409050352040866001R.R. ENCABO CONSTRUCTORS & TRADERS                       1602
B0101402930381016372001INTERLAB PROPERTIES, INC.                                1602
B0101402930381018948001INTERGEN PROPERTIES, INC.                                1602
B0101402930381667403001PRIVE PROPERTIES DEVELOPMENT INC.                        1601
B0101402770391009575001EASTERN RIZAL (JALAJALA) RURAL BANK, INC                 1603
B0101406330472046636001ENERTECH SYSTEMS INDUSTRIES, INC.                        1610
B1401400110492011585002LUCENA GREENVIEW, INC.                                   1602
B1401400110492022856001PARADISE MEMORIAL PARK, INC.                             1601
B0101405940512041188001PREMIUM WINE EXCHANGE INC.                               1601
B0101404680651027912001KB INDUSTRIAL INC.                                       1602
B0101401700041192799001ZFG REFRIGERATION & AIR CONDITIONING                    11601
B0101402930381040001001TURQUOISE TRAVEL & EVENTS                               11602
B4101400420814018935001IGLESIA EVANGELICA UNIDA DE CRISTO(ANABU                11602
B0101401700041192799001SERVICES                                                21600
B0101402930381040001001MANAGEMENT CORP.                                        21600
B4101400420814018935001UNIDA CHURCH)                                           21600
