A1901400320000000041221MARISSA MARCAIDA BERBERABE                               0505
A0101400440000000060266JOCELYN B. ANDAYA                                        0501
A1301400500000000213301CORTEZ, ZENAIDA MENOZA                                   0501
A0101413730000000469205******************                                       0502
A0101412180000000501511YU, VENGIE TUPAZ                                         0502
A0101413600000000651001NORAJANE B. COLOS                                        0501
A0101411080000000805601PHILIP CU CHUA                                           0503
A0101410560000000848711LAMBERTO, MARICEL OCILLADA                               0501
A0101414120000000875834GCI TRANSPORT                                            0502
A1301400210000000983815FELICITAS S SUNGA                                        0504
A0101413730000001029543*********                                                0503
A5501400120000001121840BALDOZA, JOY ILAO                                        0502
A1301400470000001299130ANDREW P. MANGIDUYOS                                     0502
A0101401090000001618628OCSON, VIRGILIO ESPIRITU                                 0502
A0101404260000001725446DALISTAN, J DBU JSD BAYAD CENTE                          0502
A0101400730000001822602CARREDO, RAMON MANLUNAS                                  0501
A2401400180000001935920DINOPOL JR., CRISTETO ESTRELLA                           0502
A0101410560000001944072VALEN, ROSANA RETIG                                      0501
A6601400120000002249910YRUMA, ALBERT PAJUELAS                                   0502
A2801400100000002253470SAUNDERS, MARIBETH AGUILLON                              0501
A0101408950000002255461GERON, MARIA ANNA VANESSA A.                             0501
A0101411950000002266031MERLYN A. CORTES                                         0502
A0101411950000002266082SANNY O. BALANSAG                                        0502
A0101412050000002314432BARTOLOME, CORAZON ROSAL                                 0502
A0101404420000002358147****                                                     0502
A0601400100081358072002NOEL C. DAVID                                            0505
A0101400730111412858010LOLITA MANALO                                            0503
A0101400730111469886001ALVENDIA, AMADOR PAHATI                                  0510
A0101400730111520766064LITA L. LARIZA                                           0501
A0101400730111590599001LIM, ARON LAURETA                                        0501
A0101401960121238747001**********                                               0501
A0101407270162333154012RAUL M. DEALINO                                          0501
A0101401090171195958001CLARITA OR EDWIN CARILLO                                 0502
A3101400740224643631001CATENZA, MARVIN JAPSON                                   0502
A1001400190231478374170ENIOLA, MELODIA                                          0501
A0101406620273281364001BANTIGUE, WILLIAM ANISCO                                 0503
A0101400570281192945001MINDA D. BUENVIAJE                                       0502
A0101402510341190850001PATRICIA E. CHILIP                                       0503
A0101402510341198142001MA. VICTORIA M. AC-AC                                    0501
A0101402510341331222002ERLINDA C. RECOCO                                        0501
A0101402640361169551001**********                                               0502
A0101408370382423964001EVANGELINE A. AGUINALDO                                  0501
A0101402770391034936001LOGPRO EXPRESS, INC.                                     0502
A0101408950396611654001YU, MARRIA CELINNA MANAPAT                               0501
A0101408950396659332001DR. ANGELICA ANNE ACEDILLO CHUA                          0501
A5501400120410616209008ANG, JOSEPH OR ANG, MA. LINDA                            0501
A5501400120410622095001CORDER, JAIMELITA OR EDWIN                               0505
A2401400180411478374067CORTAL, CYNTHIA DE LEON                                  0501
A0501400170481349742001ANTONIO PATUNGAN                                         0501
A1401400110492478374007RADONES, MARISSA                                         0501
A0101403580511771223001CHERILYN FADERAGAO                                       0501
A0101405940512028694001EDM BARGE AND EQUIPMENT RENTAL                           0503
A0101408530516615903013DEL ROSARIO, JULIETA                                     0501
A0101403450521238097001RAYMOND PUA                                              0503
A0101407720602343467001HENSON, GERARD FORES                                     0501
A0101407720602392414001LEUS, AURELIA GONZALES                                   0502
A0101407720602780335001ABAYA, MA. LUZ VIRGINIA SUNTAY                           0501
A0101404260611152369002BATASIN, ARLENE AGBAYANI                                 0502
A0101404260611455042001DIMAGUILA, MARIE ANN PEREZ                               0501
A0101404260611478374052ROSEMARY F. ROLDAN                                       0504
A0101404260611478374076NEREZA P RULL                                            0502
A0101404260611678125001RACPAN, ERMA LOPERA                                      0501
A1301400340683495036001MARCELO, ELENA RIVERA                                    0510
A0101408240711399428001JOSELITO OR ROSEMARIE RAFAEL                             0501
A0101408240711490981001MILLS, AMPARO OR VICENTE JR.                             0501
A2801400100712039498002VECTOR PEST CONTROL                                      0502
A4101400260812478374030MA. CONCEPCION S. PARAGUISON                             0501
A4101400390813071561001JANABAN, DAISY AZARCON                                   0503
A4101400420814557947001SAYAROT, GLENN MAGO                                      0501
A0101404840851046725013MARY JANE A. DE GUIA                                     0501
A0101404840851319427004ANNABELLE A. PERALTA                                     0501
A0101404840851692867001FERMIN, ALEX BALAIS                                      0502
A0101406750852184616001EUGENE T. MANGUBAT                                       0502
A0101406750852478374117IDA MACARO                                               0501
A0201400890000000027905MENDOZA, VAL VINCENT FABIAN OR                          10501
A0101412920000000276500SALUDEZ, RICARDO JR. DAR DBU                            10503
A0101414120000000398921MC DAGGLE'S CONSTRUCTION &                              10502
A3801400170000000955120DANTE A ALBUERA DBU                                     10501
A0101405940000001209938REGALA, JENNILYN DBU SIMI                               10501
A0101404840000001312690CABINTE MATERNITY AND CHILDRENS                         10502
A0101412920000001313739ADAZA, EVA VERA OR                                      10502
A0201400890000003179680ROSKA, RAMON CAUSING OR                                 10501
A3101400450223352819001FARAON, RIZALINA OR                                     10502
A1001400190231380503007DRA. CYNTHIA BACONGA                                    10503
A0101408370382408300001DR. RODRIGO C. SANTOS OR                                10501
A0101402770391217366002ESGUERRA, NESTOR UMALI                                  10501
A0101408950396420560001MICHAEL LIM VILLA OR PATRICIA                           10502
A0101408950396565472001DEBBIE GUANI DY MEGUIZO OR                              10503
A0501400170481090478001CAPIRAL, ALEJANDRO C. OR                                10501
A1401400110492320667002AVERIA, SOLOMON DY OR                                   10501
A0101403580511151398002ARIZA TERESA MANGALILE OR                               10501
A0101405940512360728001ERWIN P. HERNANDEZ OR AGNES                             10501
A2201400250561484428001WILSON LAO SIO OR                                       10502
A0101407720602381795001FORES, MIGUEL EDGARDO MANUEL                            10502
A0101406590662749087001LOPEZ JR., OSCAR B. OR                                  10501
A1301400500684592585001ROBERTO M CARLOS OR                                     10504
A0101406750852687321003NAVARRETE, JERRY M AND COLOMA,                          10510
A0201400890000000027905CASTILLO, NEIL BRYAN                                    20500
A0101412920000000276500LIBERTY STONE SU                                        20500
A0101414120000000398921TRADING                                                 20500
A3801400170000000955120D.A. ALBUERA ENTERPRISES                                20500
A0101405940000001209938VALLEY ENTERPRISE                                       20500
A0101404840000001312690HOSPITAL                                                20500
A0101412920000001313739ADAZA, ROQUITO S                                        20500
A0201400890000003179680ROSKA, ELSA PILAPIL                                     20500
A3101400450223352819001BELEN, RHODORA                                          20500
A1001400190231380503007PHILAMCARE DOCTO                                        20500
A0101408370382408300001DR. ALWYN JOHANNA SANTOS                                20500
A0101402770391217366002ESGUERRA, KRISTI                                        20500
A0101408950396420560001YUKIJI JAVIER VILLA                                     20500
A0101408950396565472001DONALD JUDE UY MEGUIZO                                  20500
A0501400170481090478001CAPIRAL, YOLANDA C                                      20500
A1401400110492320667002AVERIA, MA.SARAH                                        20500
A0101403580511151398002REYNALDO JOSE MANGALILE                                 20500
A0101405940512360728001T. HERNANDEZ                                            20500
A2201400250561484428001EDUARD LAO SIO                                          20500
A0101407720602381795001OR FORES, LUCIA                                         20500
A0101406590662749087001LOPEZ, GLADICE C                                        20500
A1301400500684592585001MILAGROS T. CARLOS                                      20500
A0101406750852687321003FRANCES ROSALIE T                                       20500
B1301400210000000023423COMMUNITIES BULACAN, INC.                                1605
B0101413990000000206191LFG MEGA ROYALE REALTY & DEVELOPMENT INC                 1601
B0101414120000000399093*****                                                    1604
B0101405940000000886682SEWELLS GROUP PHILIPPINES, INC.                          1602
B0101401250021018020001BETTY'S VERMILLION ACADEMY, INC.                         1605
B0601400100081013041001SEVERINA REALTY CORPORATION                              1603
B0101406620273026285001DBQUEST, INC.                                            1602
B0101402510341008565002SAN BEDA COLLEGE                                         1620
B0101402640361176159001FILCON READY MIXED, INC.                                 1610
B0101405490392037215001CORNERSTONECONSTRUCTION CORPORATION                      1602
B0101403030441031034002**********                                               1610
B0101403030441336479001**********                                               1603
B0101403320471009043001ABCOR INDUSTRIAL CORPORATION                             1605
B1401400110492027100002SACRED HEART COLLEGE                                     1601
B0101404260611029737001HALIFAXX TRADING CORPORATION                             1601
B0101404260611035660001BETERAVIA CREDIT CORPORATION                             1603
B0601400230891029282001L5 & SONS FINANCING CORP.                                1605
B0101412210000000031512WALL STREET ACCOUNTING AND BUSINESS                     11601
B0101401090171027703001INSTANT DRUGSTORE AND GENERAL                           11602
B1901400160491341189001VIRGINIA R VARGAS OR                                    11601
B0101412210000000031512SOLUTIONS INC.                                          21600
B0101401090171027703001MERCHANDISE                                             21600
B1901400160491341189001RICHARD D LIM                                           21600
B0101401960121821100608**********                                               2002
