E0101406590000000905624CHANBAR BUILDERS CORPORATION                             2301CKP
E0101408110515293024001ANASTACIO, ELLEN JOY M. OR                              12301CKP
E0101408110515293024001ANASTACIO, CHARLES S.                                   22300CKP
