A0101411790000000005381GOLANGCO, MARILYN UY                                     0503
A0901400220000000012313**********                                               0501
A1001400190000000016468NERI, JENNY RACAZA                                       0501
A0101406460000000020986YU, A DBU YAMANA POULTRY FARM                            0501
A0101412340000000031114MIRANDA, ERLINDA PAGTAMA                                 0502
A0101412630000000044675FLORES, BRENDA DACULIO                                   0501
A0101412630000000044755HUAB, PETER JAMES MACARAIG                               0501
A6601400120000000060580CELESPARA, DINA ESTOLATAN                                0501
A6601400120000000060608MARINO, REUBEN CANANUA                                   0501
A0101402510000000200197LETICIA G. JARENCIO                                      0501
A5501400120000000265741JALANDO-ON, NATHAN DEL MUNDO                             0502
A0101412050000000323679BLANQUISCO, AARON HARINA                                 0501
A0101408370000000336150REYES, SELENA TRICIA SANTOS                              0501
A0101405940000000505775ROXAS, LINCOLN CHAN                                      0501
A1301400210000000540981SHERLYN A. DE REGLA                                      0501
A0101412050000000578241SAHAY, LARISSA KALYAN                                    0502
A0101400440000000596618REYES, MARIA TERESA MARIN                                0502
A0101400440000000596629ZENAIDA O. CALLEJO                                       0501
A0101401670000000739128**********                                               0502
A0101411530000000741713**********                                               0501
A0101406880000000745033NATIVIDAD, HELEN BAYONA                                  0501
A0101400570000000749680RUEDA, JOSEPHINE REYES                                   0501
A0101408950000000776609DEL PRADO, BETTINA AQUINO                                0501
A0101408950000000776701LOYOLA, TWINKLE RAMIREZ                                  0501
A0101400440000000821492CHALY LYN O. BUCAD                                       0502
A0101412470000000853845CO, HONORIA AGNO                                         0501
A2001400290000000924572MARTY, CRESLYNN MARIE CERINO                             0501
A0101412340000001017781MENDOZA, MARITES CAPILI                                  0502
A0101407430000001028911CHRISTIAN S. DE LA CRUZ                                  0501
A0101408240000001038799CABALUNA, ROSALINDA RAYO                                 0501
A6601400120000001065292AOYANG, DONABEL CERBITO                                  0501
A0101413310000001073847BAGUBE, BILL ANTHONY BAYLOSIS                            0501
A3801400170000001091047EDGAR IBRAHIM C LLAMAR                                   0501
A0101412500000001146849*******                                                  0502
A0101412500000001146850*******                                                  0502
A0101408110000001165800GRUTA, VENIZA CAMPOSANO                                  0502
A0101413990000001202377*****                                                    0501
A0101407140000001218320POLANES, HEGINO AMEN                                     0501
A0101413860000001233652BUENAVENTURA, VICTOR ANTONIO                             0502
A0101413860000001233823UMLAS, JOSE ENABORE JT                                   0501
A0101411400000001280375SALES, MARIA CHRISTINA MANEGO                            0501
A0101402510000001292262SANTOS, LUZVIMINDA ESTEPAR                               0501
A0101404840000001312587FLORES, CHINGKY SOLIS                                    0501
A0201400920000001331822TAN, NESTOR GOU                                          0502
A0601400520000001349673FELICIANO, EPIFANIA MANLAPAZ                             0501
A0101414120000001427510ENRIQUEZ JR., ALBERTO DE JOYA                            0501
A0101400440000001439976ANALOU M. PANSACALA                                      0501
A0101407720000001447901SOLER, JULIE ANN DIWA                                    0501
A0101413440000001472851BALUYOT, JOCELLE MAE VALERA                              0501
A0301400820000001554894ESTREMOS, VERONICA T.                                    0501
A2001400290000001557586DIONISIO, MARY JAYNARD PAGLINAW                          0501
A0101401090000001611427QUINTO, EDWARD ASTORAS                                   0501
A0101409050000001662368ESTABAYA, MYRA MUDLONG                                   0501
A0101400730000001697590********                                                 0501
A0601400520000001706792BUNGQUE, ALDRIN CAPILI                                   0501
A0101403450000001769691CHIOA, KEENE DERWIN CHUA                                 0501
A4101400260000001783542FLORES, KAREN BALSOMO                                    0501
A1901400290000001926241GERALDINE LAS DUAT                                       0501
A0101402510000002029210AGUSTIN, EDGAR MAGAT                                     0501
A0101400150061073859003LANDIG, AGNES ONG                                        0501
A0101400600071233729001**********                                               0501
A0101400600071234351008*******                                                  0501
A0101405810072326780001**********                                               0510
A0601400100081389125001DE LEON, RICARDO LENNON                                  0501
A0101400730111472699002LARGA, ANGELITA ZOLETA                                   0503
A0101400440161039572036ANTONIO S. VILLANDA JR.                                  0501
A0101400440161039572043CERENO, GLECY GUTIERREZ                                  0502
A0101400440161452744001CRISTINA P. UMALI                                        0501
A0101400440161520766185FLORA S. CHUA                                            0501
A0101401090171196072003CARLOS M. ALMEDA                                         0510
A0101401090171196072004CARLOS M. ALMEDA                                         0510
A1001400190231342333001BUSGANO, HIPOLITO S.                                     0503
A1001400190231520766092TACBOBO, BEATRIZ WABE                                    0501
A1001400190231520766112ALIBIO, NELYBETH TACBOBO                                 0501
A0101401670271371481001CARLOS JOSE O. RIVERA                                    0501
A0101401670271616784002*************                                            0502
A0101406460272190124002UNSON, MA. LUISA D.                                      0502
A0101406620273380453001**********                                               0501
A0101406620273458914001**********                                               0503
A0101406620273720692001******                                                   0502
A0101408660274362607001SALAZAR, EMMANUEL B.                                     0501
A0101400570281188241001CUNANAN, MA. CORAZON Z.                                  0505
A0101400570281191853002GREGORIO, JULIETA ORBISO                                 0501
A0501400200292502440001ONTALAN III, FRANCISCO KUAN                              0502
A0501400200292670008001*****                                                    0510
A1101400120313478374099SALAS, ERIKA GALAROSA                                    0501
A0101402060351429720002ANGELES, ANNA LEAH LOPEZ                                 0504
A0101408370382208100001DR. ARTHUR M. TORRES                                     0502
A0101405490392499176001ANICIA B. MORALES                                        0501
A0101403030441545175001**********                                               0501
A0101403900501477610001HORTALEZA, MANUEL PUNZALAN                               0501
A0101407430503082483001MARIETTA D. ZAMORANOS                                    0501
A0101405940512449606125*******                                                  0501
A0101408110515395370002**********                                               0502
A0101411790518701706001GOLANGCO, MARILYN UY                                     0503
A0101403450521238061001**********                                               0505
A0101403450521753734001TAN, BENJAMIN MASA                                       0502
A2201400250561339917001FELICIDAD MIRANDA SANTOS                                 0503
A0101406590662086635001******                                                   0502
A0101408240711375102001PANICUCCI, MA. PILAR M. JT                               0501
A0101408240711692872001LOPEZ, PRICILLA MARFIL    JT                             0502
A4101400260812212269001MA. GINA R. AMANCIO                                      0502
A4101400260812377362001RABOT, VICENTA WILHELMINA VEGAM                          0501
A4101400260812478374076MAILYN L. EVASCO                                         0504
A4101400420814362781001ECOFILTERS ENTERPRISES                                   0502
A0101412340850084759001ESTHER N. HAM                                            0501
A0101404840851542980001MASANGCAY, NORA VERCELES                                 0501
A0101406040000000014757ONG, J DBU JILZEN ENTERPRISE OR                         10502
A1901400320000000041243FREDENHOWER AGUILA MANALO OR                            10501
A0101405490000000355753ABELARDO G. YABUT JR. OR                                10502
A1601400170000000421190JOHN F. TORROCHA OR                                     10501
A0101405490000000444477MARIA TERESINA G. MESINA OR                             10502
A4101400550000000506814DALAGAN, CATALINO B. OR                                 10501
A0101403030000000531440TAN, KENT ANTHONY LIM                                   10502
A0101400730000000645283ROCA, ARGON JACOB D. DBU                                10502
A0101412920000001313739ADAZA, EVA VERA OR                                      10502
A0101413440000001472602GP-GENESIS DIALYSIS CLINIC                              10501
A1901400290000001926263LORAMEN M MAGSINO OR                                    10501
A1901400290000001926274GIRLIDIA SANCHEZ PANALIGAN OR                           10501
A1901400290000001926285FR NOEL MAGTAAS OR BR LORENZO                           10501
A0101401090171153125001MARIA CRISTINA S. AQUINO OR                             10502
A0101401090171196097001HERNANDO OR LEONCIA OLONAN OR                           10502
A1001400350233272028001MAANDIG, ERLINDA B. OR                                  10503
A1301400470252458745001NARCISO OR MYRNA OR MICHELLE                            10503
A1901400290261244447002LETICIA BAYLON HIPOLITO OR                              10510
A1901400290261530724001ALICIA B VILLALOBOS OR                                  10510
A0101401670271186230001LETICIA R. MALOLES OR                                   10502
A0101401670271457284002CONCEPCION, ROEL S. OR                                  10502
A0101408660274540479001TAN, TERESITA B. OR TAN,                                10503
A0101400570281188818002REXIE F. BARRERA OR                                     10502
A2601400270302796616001MARIA ROSA ELVIRA M. ALVAREZ OR                         10501
A0201401020377796477001MERCADO, RICHARD OR MERCADO,                            10502
A0101407560686174374002BERNALES, RUFINA PE¥ARANDA AND                          10501
A0101406040000000014757JONATHAN C. BANGAYAN                                    20500
A1901400320000000041243VICTORIANO UMALI CANDOR                                 20500
A0101405490000000355753ROSALINA G. AQUINO                                      20500
A1601400170000000421190ROCHELLE A. TORROCHA                                    20500
A0101405490000000444477ALFONSO E. MESIN                                        20500
A4101400550000000506814DALAGAN, TERESITA S.                                    20500
A0101403030000000531440OR TAN, JENNILYN CLAIRE                                 20500
A0101400730000000645283RADIANT TRAVEL & TOURS                                  20500
A0101412920000001313739ADAZA, ROQUITO SALVACION                                20500
A0101413440000001472602DIAGNOSTIC CENTER                                       20500
A1901400290000001926263MICHAEL D MAGSINO                                       20500
A1901400290000001926274RODOLFO MARANAN PANALIGAN                               20500
A1901400290000001926285MONEVA OR FR REX ALDAY                                  20500
A0101401090171153125001ROMEL F. AQUINO                                         20500
A0101401090171196097001BIANCA NIKKOLA OLONAN                                   20500
A1001400350233272028001MAANDIG, CARLSTO                                        20500
A1301400470252458745001OLIVE OR RALPH BORJA                                    20500
A1901400290261244447002ERNESTO B HIPOLITO JR                                   20500
A1901400290261530724001MARK I VILLALOBOS                                       20500
A0101401670271186230001TERESITA M. OLIVEROS                                    20500
A0101401670271457284002CONCEPCION, REGINA L.                                   20500
A0101408660274540479001VINCENT Y. OR UY                                        20500
A0101400570281188818002JOLINE D. BARRERA                                       20500
A2601400270302796616001MYRNA M. ALVAREZ                                        20500
A0201401020377796477001ERLINDA ET AL                                           20500
A0101407560686174374002BERNALES, MARCIA                                        20500
B0101403450000000009812********                                                 1601
B1001400190000000016366CAREWELL BIO-MEDICAL SYSTEMS CO.                         1602
B0101406460000000182472HYT TRADING AND SERVICES INC                             1602
B0101400150000000633112VELDOS PHILIPPINES, INC                                  1602
B0101400150000000633232ECO OUTSOURCE INC                                        1601
B0101400150000000633276EMS ENCODING CORP                                        1601
B4101400420000000710245GRJ JARO ENTERPRISE INC.                                 1602
B0101408240000000832655GAONWORLD INC.                                           1602
B0101412470000000949544BEYOND METRO POINTE GREENHILLS INC.                      1605
B0101405490000001092499GENESIS HAIR SALON SYSTEM INC.                           1602
B0101400150061497958001MANA RESORTS, INC.                                       1601
B0101400600071045158001*******                                                  1602
B0101400600071232741002**********                                               1601
B0101400600071282495001********                                                 1602
B0101400600071396921001**********                                               1605
B0101405810072046264001TOPWELL PLASTIC PROCESSING CO.                           1602
B0101405810072301363001**********                                               1603
B0601400100081046420001REAL BLOCK CONCRETE PRODUCTS, INC.                       1601
B0101401090171021620001UST HOSPITAL CREDIT COOPERATIVE                          1606
B0101407140213015323001AUTOCITY INC.                                            1602
B1901400290261033408001FEEDS EDITION DISTRIBUTION SYSTEMS INC.                  1615
B0101408820333049826001*******                                                  1605
B0201400920375041285002VIRLO CONSTRUCTION DEV. CORP.                            1610
B1401400110492011585002LUCENA GREENVIEW, INC.                                   1602
B0101403450521007922001**********                                               1603
B0101403610531022135001HI-VISION CHAUSSURES INC.                                1605
B0101406590662634974001CITY HILLS BUILDERS (CHBC) CORPORATION                   1605
B2801400100712035008001ASIA INTERNATIONAL AUCTIONEERS, INC.                     1620
B4101400420814010838001INFORMATICS COMPUTER INSTITUTE, INC                      1605
B0601400100000000142214SIMON AND STANDLEY INTERNATIONAL TRADING                11602
B0101405490000001092488NORTHSHORE HARDWARE & CONSTRUCTION                      11603
B0601400100081253610002NG, WILFREDO M. AND AQUINO, JANET B. AND                11601
B0201401020377046951001CEBU RICH SWINE GENETIC FARMS                           11603
B0201401020377046953001CEBU SHERILIN AGRO-INDUSTRIAL                           11604
B0201401020377046954001CEBU SHERILIN TRADING                                   11604
B0201401020377046955001MARKET GLOBAL CEBU INDUSTRIES,                          11603
B0601400100000000142214& DEVT CO, INC.                                         21600
B0101405490000001092488SUPPLY                                                  21600
B0601400100081253610002BUAN, ROLAND S.                                         21600
B0201401020377046951001CORPORATION                                             21600
B0201401020377046953001CORPORATION                                             21600
B0201401020377046954001CORPORATION                                             21600
B0201401020377046955001INC.                                                    21600
B1401400110492821100608**********                                               2002
B1201400280671821100608**********                                               2002
