F0101407690652386436003TIA, KEN YEN                                             2510CKO
F0101407560686087377001NGIE, ARIC ALVIS NGO                                     2502CKO
F0101408240711469319001ESCOLAR, RICHARD TAN OR JACLYN                           2501CKO
F0101406330000000432580LIGHTSCAPE, INC.                                         2605CKR
F0301400240401025953008ECE MARKETING                                            2602CKR
F0101408240711029914001PADI FAMILIA CORPORATION                                 2602CKO
F4101400260812031790001SY ON INC.                                               2605CKO
