F0101400570281465756001DIZON, MARIA TERESA LIM                                  2502CKO
F0101408400000000077850PORTUGUESE REALTY INC.                                   2603CKR
F0101407140213026129001ECE PHARMACEUTICALS, INC.                                2602CKR
F1001400190231051275001MSU-IIT NMPC CDO CM-RECTO BR.                            2601CKR
F0101402480331020380002**********                                               2610CKR
F0101408400394031095003LIVINGWATER SYSTEM, INC.                                 2610CKO
F1201400150421031460002CJH SUITES CORPORATION                                   2602CKR
F0101408530516490529001VITUG II, FERNANDO MEDINA OR                            12601CKO
F0101408530516490529001VITUG, HERMINIA                                         22600CKO
F3201400190694052611002RECEL, ELNORA DBU STEFAN'S                              12701CKC
F3201400190694052611002PHARMACEUTICAL D                                        22700CKC
