A0101410690000000001736**********                                               0501
A0201400920000000048031FMC CATERING SERVICES                                    0501
A0101404840000000085061JANINE LAVADA                                            0501
A0101405490000000232540JENNET D. RECALDE                                        0501
A4101400260000000377355LOYOLA, ANNIE BAYAN                                      0501
A0101408820000000469825NATIVIDAD, ZENAIDA ENCINARES                             0501
A0101403320000000522063VIRGILIO S. VILLALUZ                                     0502
A0101403030000000531462HARROW, ALAN JAMES ANTHONY CASA                          0501
A0101402060000000562065ARGANOSA, MAGDALENA LYN SARZUEL                          0502
A0101408530000000594081MALASARTE, OC POMERC                                     0502
A0101401380000000682622********                                                 0501
A0101408950000000776741TABLANTE, EMILIANO BAULA                                 0502
A0101411080000000805732MALBAS, MIRAFLOR MANSUETO                                0503
A0101412500000001146941LINDAYA, KRISNA DELA CRUZ                                0501
A0101413860000001233830VELASQUEZ, MARIA JONALYN SALTOR                          0501
A0101412210000001236242AYQUE, FELIX RICARDUS LUCKY R.                           0501
A0101409210000001294639PINEDA, MYRNA BACANTO                                    0501
A0101402770000001347848REYNALDO ANTONIO DEL ROSARIO                             0501
A0101403320000001646631SANTIAGO, LEILANI SANTIAGO                               0502
A4101400390000001732736CLAVERIA III, DON VIVENCIO G                             0501
A0101412630000001823376SIMBRE, JOAN ILAGAN                                      0501
A4101400550000002091009PANGAN, SONIA DINGLASAN                                  0502
A0101407560000002307502GABRIEL, MA. LIZA CORDON                                 0502
A0101410560000002316558LAGASCA, CHERIELYN                                       0502
A0101408240000002821872SANTILLAN, ENYA GABOR                                    0503
A0101409050000002971402LEONARDO, JASPER RICO MENDOZA                            0501
A0101400150000003537211CEBRERO, NELSON DUCLARA                                  0510
A0101400150000003537222RAPOSAS, ALEXANDER CHRISTIAN ME                          0510
A0101400150000003537233ABARQUEZ, ALLAN LAWRENCE ZANORI                          0510
A0201400890000003537455*****************                                        0501
A0101402510000003538794CRUZ, JULIUS VERGEL VERGARA                              0501
A0101400860011391313002**********                                               0502
A0101400860011452750001**********                                               0501
A0101400860011467833001**********                                               0501
A0601400100081501761001TAN, WINTHEL OR RALPH                                    0501
A0101407270162495837001DANNY T. VIDAL                                           0503
A0101407270162668334003ALVIN CARLO D. MENDOZA                                   0501
A0101400310211157974001REYNALDO DE JESUS                                        0505
A0101400310211370178001SIA, JENNIFER AYROSO                                     0501
A3101400160221217497025ANTONIO, MAR CR                                          0501
A3101400160221565262001MARIANNE R. ESTRELLADO                                   0501
A3101400450223455809001LANCION, AUREA OR JERIC                                  0502
A1001400190231520766087MONTE, LEONORA BATERNA                                   0501
A1001400350233478374026ANNABEL ESTOMO                                           0501
A0101401670271188489002CARMEN C. LIM                                            0501
A0101400570281022080002COSMOPOLITAN AD                                          0510
A0101400570281388539045MARLON J. GOMEZ                                          0501
A0101400570281453706002SHIRLEY CHEONG TEEHANKEE, M.D.                           0502
A0101400570281453706002SHIRLEY CHEONG TEEHANKEE, M.D.                           0502
A0101400570281532404001ONG, EARLEEN SENO                                        0502
A0801400160311478374004MAELYN HACERMIDA                                         0501
A0101402510341204644001DE NULLY, CORAZON MORANTE                                0504
A0101402640361336863001TORIO, ALICE OREAL                                       0502
A0101402640361685216001DIONISIO, LONA ALON                                      0505
A0101402770391043391001IMPRENTA ISABEL                                          0503
A0101408400394409975001LUZON, MARY JANE DE TORRES                               0502
A0101412210399094817016MARTIN G. ZAMORA                                         0505
A2401400180411275790003MALCAMPO, DIOSIE AGUIRRE                                 0501
A2401400180411455559001VENDIX GEN. MERCHANDISE                                  0501
A0901400220432731076001JAMANDRE, EMBE ARAGON                                    0501
A0101403320471478374016SONIA SALANIO                                            0501
A0101403320471629175001ERLINDA P SANTOS                                         0503
A0101407430503043601001M.R. SUNGA TRADING                                       0501
A0101403450521077932001ROSARIO, ERIN LOU MONILLAS                               0501
A0101403450521240568001**********                                               0501
A0101403450521240619001**********                                               0501
A0101407720602384186003SARMIENTO, JOSIERINA YANEZA                              0503
A0101407720602405563001CAEDO, PAMELA CORTEZ                                     0501
A0101404420631033930001MIMARO ELECTRICAL SUPPLY                                 0501
A0101409920650478374016CIENCIA, JERAMIE ABALUNA                                 0501
A01014107206530412000014 DOUBLERS TRADING & CONTRACTOR                          0505
A0101410720653478374018RUPEREZ, MAREVIC B.                                      0503
A0101410720653693151001SAMBRANO, CARMELITA ASIS                                 0501
A0101407560686608784001DENY A. LOPEZ                                            0501
A1701400230693478374015FERNANDEZ, FEMA L.                                       0501
A0101408240711443671001CARMENCITA C. GUIAO                                      0501
A4101400260812299913002CAMPOS, FILOMENA FORTICH                                 0502
A4101400390813292154001ANGELO OR MARIE LYN MOLATO                               0502
A4101400390813378814001GIGI D. ABOGADO                                          0501
A4101400390813775566002TUAZON, MARIO CALDERON                                   0502
A0101404840851481664041WILLIAM VILLACENTINO                                     0502
A0101406750852298552032FLORDELIZA L. RETARDO                                    0502
A1001400480000000041523PO, MARILOU TRAJANO OR PO,                              10502
A5001400170000000170118FELIZARDO M. ELUMBARING OR                              10503
A0601400360000000225312SUAREZ, GLORIA DE LEON OR                               10502
A0101408240000000347506DE OCAMPO III, PACIFICO LAGDAME                         10502
A2601400270000000561955MICHAEL T. DE GUZMAN OR                                 10505
A0101410720000000968072MAGDANGAL JR, DANTE DBU ALISTER                         10502
A0101401090000000993302FLORIAN R. NUEVO OR                                     10501
A0101401380000001819883ROQUE, CATHERINE M. OR                                  10501
A0101401250021179004001TIBAJIA, JOSEFA OR TIBAJIA,GINA                         10501
A0101401700041365653002AESOPO G. CRUZ OR                                       10503
A0101400310211276524001MARIANITO ALEMANIA OR                                   10501
A0101407140213317389002LIM, EDSON LEE OR                                       10502
A3101400160221221032002ARMI ANTIA P MATANGUIHAN    OR                          10502
A0101401670271291676001FLORENCIA LIM ANGLIN OR                                 10501
A0101406620273214161001RUTH FLORES OR RICARDO FLORES                           10502
A0801400160311343651001SIMON A. ALLI OR ELVIRA A.                              10502
A0101402510341199632002ANA LIZA R. DELA CRUZ OR                                10503
A0201400760374515999001CU, PRINCE LAO OR CU, SIMEON RO                         10503
A0101403450521192368001NGO, TERESITA TAN OR                                    10504
A0101406590662470961001VALMOCINA, ESTRELLA C. OR                               10510
A1001400480000000041523MAUREEN TRAJANO                                         20500
A5001400170000000170118EUMENA B. ELUMBA                                        20500
A0601400360000000225312PONCE, MARLYN DE LEON                                   20500
A0101408240000000347506OR TAMONDONG, TRISHA                                    20500
A2601400270000000561955KAREN MAY B. DE GUZMAN                                  20500
A0101410720000000968072CONSTRUCTION AND                                        20500
A0101401090000000993302MA. CRISELDA R. NUEVO                                   20500
A0101401380000001819883ROQUE, AARON O.                                         20500
A0101401250021179004001OR TIBAJIA, MYRA                                        20500
A0101401700041365653002GRACE SANTOS CRU                                        20500
A0101400310211276524001ALEJANDRO CARTAG                                        20500
A0101407140213317389002ONG, CHARLIE                                            20500
A3101400160221221032002ARIEN C POLINTAN                                        20500
A0101401670271291676001DENNIS ANGLIN                                           20500
A0101406620273214161001OR RACHEL RUTH                                          20500
A0801400160311343651001CASORLA                                                 20500
A0101402510341199632002ANTONIO T. DELA CRUZ                                    20500
A0201400760374515999001XAS                                                     20500
A0101403450521192368001NGO, EDGAR KING                                         20500
A0101406590662470961001GUTIERREZ, MARY ANNE                                    20500
B0101410850000000005643LIKAS YAMAN SERVICE CORP.                                1605
B0101410850000000005676LIKAS SHIP AGENCY INC.                                   1605
B0101411110000000009098NET4SITE PHILIPPINES INC.                                1602
B0101411530000000013601ROACH INCORPORATED                                       1602
B0101411080000000026279SANLY RODCEL ELECTRICAL INC.                             1602
B0101401090000000034517DAGOHOY, HERMINIO OR BAUTISTA, FERDINAND                 1601
B2401400180000000073692BROTHERS D & D INC.                                      1610
B0301400530000001409438GENSAN LCL TRADING, INC.                                 1603
B0301400530000001409449SAN JUAN DJ PURITY RICEMILL, INC.                        1601
B0301400530000001409450SAN JUAN DJ PURITY TRADING, INC.                         1601
B0101404420000001959802BLUMEX EXPRESS CREDIT, INC.                              1605
B0101404420000001959813BLUMEX EXPRESS CREDIT, INC.                              1605
B0101401700041023617001WORLDPEPP INC.                                           1602
B0101400310211042537001***                                                      1603
B0101407140213038373001***********************                                  1603
B1001400190231014449002ACS MANUFACTURING CORP.                                  1602
B0101406620273045167001DCA AND PARTNERS, CPAS                                   1601
B0101402480331010220001MASS DYNAMIC REALTY DEV'T. CORP.                         1605
B0101402480331580623001*********                                                1602
B0101402770391017472002MEGACITY MINISTRIES INCORPORATED                         1604
B0101403320471020319002LORD OF THE NATIONS, INC.                                1603
B0101403320471043900001AC ROCKPORT CONS. & DEV. CORP                            1601
B0501400170481018109002****                                                     1603
B0101403450521011620002FAR EAST ALCOHOL CORPORATION                             1605
B0101403450521011891001EMPHASIS TRAVEL & TOURS, INC.                            1602
B0101403450521017837001**********                                               1601
B0101404000551005014003CONGLOMERATE PLANNERS REALTY CORPORATION                 1601
B0101410720653038296001CREATIVE DESIGNLABS INC.                                 1601
B0101406590662024757001GUPIT INDUSTRIYA INC.                                    1610
B4101400390813027260001PHILS-JEON GARMENTS, INC.                                1603
B0101410690000001284431CORONADO, DONNIE JT DBU DONCOR CAR PARTS                11604
B0101403320000001647149UNIGOLD EVENTS AND PROMOTION MANAGEMENT                 11602
B0101402480000001927580BRIONES, AR DBU BRIONES HEAVY EQUIPMENT                 11601
B0101412760000002068048J.H. PAJARA CONST. CORP./ CTC CONST. &                  11603
B0101402770391039149001ASIA PACIFIC ACCELERATED CHRISTIAN                      11602
B0101410690000001284431AND ACCESSORIES                                         21600
B0101403320000001647149INC.                                                    21600
B0101402480000001927580PARTS SUPPLY                                            21600
B0101412760000002068048SUPPLIES (JV)                                           21600
B0101402770391039149001SCHOOL                                                  21600
