A0101404680000000013509VILMA D. SAGAY                                           0501
A0301400530000000065865ARASA, NICOLAS                                           0501
A0101413150000000082620CAI HONGYU                                               0510
A0101411660000000109311**********                                               0501
A0101404680000000120156HERSIE ANN N. ORLIN                                      0501
A0101406460000000182530LICUDINE, CLARITA DELA CRUZ                              0503
A0101400150000000253314AUSTRIA, MICHAEL MAALIHAN                                0501
A3101400160000000428988ANGELES, CRISELLE MACASADIA                              0501
A0101407560000000477703**********                                               0503
A0101410140000000499190MEMBERS OF NATASHA (SHOECAT INC                          0501
A0101408790000000579784MANGADAP, ENRICO CONSOLACION                             0501
A0101404680000000766974DULLESCO, ESTER DIAZ                                     0502
A0901400220000000888064**********                                               0501
A2001400290000000924572MARTY, CRESLYNN MARIE CERINO                             0501
A0101409050000000999619TUMAGAY, ELAINE SUMULONG                                 0501
A0101406880000001286573KHATTISON, WILAIRAT                                      0501
A0101404680000001716503MA. LORNA P. PAJAC                                       0502
A0101413570000001720132ALLIE VALENZUELA AGUSTIN                                 0501
A0101407560000001770776TAN, KESTER HARRY DY                                     0501
A0101413990000001947128MARS STONE SUPPLY                                        0501
A0101411080000002243129****************                                         0502
A0101410560000002316649SAHAGUN, MELANIE IGUAL                                   0501
A0101412890000002747813CAYABA, TERESITA ARTIENDA                                0502
A0101404680000003000464LAZATIN, JEAN MILANTE                                    0501
A0101404680000003000522DY, RYAN FREDERICK CHENG                                 0502
A0101409180000003310210SANTIAGO, REGINA SANTOS                                  0502
A3101400870000003515386FONTANILLA, LIEZL RIVERO                                 0502
A0101400440000003671663DEL ROSARIO, MARIE MADELINE M.                           0501
A0101413600000003851085KENNETH M. MANIO                                         0502
A0101413600000003851103ANN LAURICE P. LEIDO                                     0501
A0101413600000003851110NOEL ANGELO B. BUENAFE                                   0501
A0101413600000003851143CHERRY L. SYTIAO                                         0501
A0101413600000003851154EMMYLOU S. LAURORA                                       0501
A0101413600000003851176ARNOLD R. MENDIORO                                       0501
A0101413600000003851187ARNEL L. ARENAS                                          0501
A0101413600000003851212ALMIRA C. CRISTOBAL                                      0501
A0101413600000003851267ERWIN T. CAPISAN                                         0501
A0101405650000003970894NAMIKAWA, KATSUHIRO -                                    0501
A0101400860011040030001**********                                               0501
A0101400860011686506001**********                                               0502
A0101400150061055752052ASERON, MEL ALLAN                                        0501
A0101400600071720668001*******                                                  0502
A0601400360083649312001KIM, KANG WOOK                                           0501
A0101400440161039572004MARIFE M. BUNALADE                                       0502
A0101400440161520766193LEILANIE P. LOCSIN                                       0501
A0101400440161525001183JUANITO P. LUSTERIO                                      0502
A0101407270162331908135REMIGIO C. CRUZ, JR.                                     0501
A0101407270162333003004MAURO C. AGUSTINES                                       0502
A0101407270162333154022JESUS R. MONTEMAYOR                                      0502
A0101407140213478374003TAPIC, ROSITA  G.                                        0505
A3001400130230767566088YU, ODILIO UY                                            0501
A1001400190231022073001FARASIA EDUCATIONAL LIBRARY COR                          0502
A1001400190231478374159TILLO, ROMEO B.                                          0501
A1301400470252478374030JERICA P. MATAMMU                                        0503
A1901400290261298552118CONCEPCION GONZALES ESTIGOY                              0502
A1901400290261478374024NANCY MOJARES PALO                                       0503
A1901400290261493025050MYLA M LALUNA                                            0502
A1901400290261607338001ZALDY BASACA SUHAYON                                     0502
A0101406460272768614001CHAM, KATRINA LORRAINE SON                               0501
A0101402480331056530001YU, A DBU VICAL LOGISTICS                                0501
A0101402480331056555001SZE, M DBU RICE MAN TRADING                              0501
A0101402640361556417001DOFILES, LUISITO JURILLA                                 0502
A0101402770391211885001MA. GEMMA CAMERINO                                       0501
A0101402770391211950001PETER LOYOLA                                             0505
A0101402770391216318001PLANA, NER ALFREDO BUNYI                                 0502
A0101402770391282719001GASPAR, LIBRADA PUNONGBAYAN                              0501
A0101408400394478374090MARY DUMASLAN                                            0501
A5501400120410719328001ILAO, YOLANDA CASTILLO                                   0501
A2401400180411525470001DE GUZMAN, ERNESTO MANGONI                               0501
A0101403320471550493001VILLAMIEL, MARIA ANTONIA ESCASA                          0501
A0101403450521238821001**********                                               0505
A0101403450521478374009MEGUITA Z.IGHARAS                                        0502
A0101403610531400970001BRILLANTE, ROSARIO AMIL                                  0501
A0101403610531478374002GRAPE, IMELDA HANDOG                                     0501
A0101407720602342044001DR. DARWIN ALBERT DASIG                                  0501
A0101407720602390297001PREYSLER, MARIVIC G.                                     0501
A0101407720602513148001DOLENDO, RITA JOSEPHINE ESPIRIT                          0502
A0101409920650478374010EVA B. MANDIIT                                           0501
A0101404680651460280001OFELYN T. YORO                                           0502
A0101404680651518927001EVANGELINE K. TUMIBAY                                    0501
A0101404680651520766139ESPERANZA T. BORJA                                       0501
A0101404680651619604001ERIC L. VARGAS                                           0502
A0101404680651686893001EMERSON D. CO                                            0501
A4101400390813248327001SARIEGO, DANILO BAGONA                                   0501
A4101400420000000018453MANSIT, EVELYN DBU MANSIT                               10503
A0301400530000000065923POWER-UP TIRES, BATTERY AND                             10524
A3001400130000000668606JAQUE, MARIE ANGELIE CRISOLOGO                          10510
A0101405070000000741393URSAIS, FELICITAS V. OR                                 10501
A0101409920000000998569MEMBERS OF NATASHA (SHOECAT INC                         10501
A0101404840000001312690CABINTE MATERNITY AND CHILDRENS                         10502
A0101411240000001563344LIMPIN, MA. LIOBA AYSON OR                              10501
A0101401700041316267001REYNALDO B. BONGALOS OR                                 10515
A0101400150061316616002NAPENAS, VICTOR TUAZON OR                               10502
A0101401380201043506002KOMMODITIES TODAY GENERAL                               10510
A0101407140213555310001YU, MARIA THERESA FUCANAN OR                            10501
A1901400290261040973001ICT-ED INSTITUTE OF SCIENCE AND                         10502
A1901400290261244456001LEO YAP ONG OR                                          10505
A0101402510341196735001AILEEN R. PATRON OR                                     10501
A0201400920375045050001BIG START REVIEW AND TRAINING                           10502
A0101402770391217366002ESGUERRA, NESTOR UMALI                                  10502
A2401400180411048131001ONTARIO PURIFIED DRINKING WATER                         10501
A0101403320471205827001JOWIN TRINIDAD OR                                       10501
A0101411790518055815170VALENZUELA, CARLA LORAINE                               10501
A0101403610531308186001ANDAL, REGINALD R. OR                                   10502
A0101407720602163314004JOAQUINO, SALLY KING OR                                 10502
A4101400420000000018453REALTY                                                  20500
A0301400530000000065923AUTO SUPPLY                                             20500
A3001400130000000668606JAQUE, ROMEO POLINAR                                    20500
A0101405070000000741393URSAIS JR., CIRI                                        20500
A0101409920000000998569PEDROSA, JULIE                                          20500
A0101404840000001312690HOSPITAL                                                20500
A0101411240000001563344CASTRO, LUDY RODRIGUEZ                                  20500
A0101401700041316267001MARICEL BONGALOS                                        20500
A0101400150061316616002NAPENAS, VICTOR                                         20500
A0101401380201043506002MERCHANDISE                                             20500
A0101407140213555310001YU, MICHAEL TAN                                         20500
A1901400290261040973001TECHNOLOGY, INC.                                        20500
A1901400290261244456001MEI MEI YULO ONG                                        20500
A0101402510341196735001CRESENCIO M. PAT                                        20500
A0201400920375045050001CENTER                                                  20500
A0101402770391217366002ESGUERRA, KRISTINE                                      20500
A2401400180411048131001DISTRIBUTOR                                             20500
A0101403320471205827001MARISSA TRINIDAD                                        20500
A0101411790518055815170LUCBAN                                                  20500
A0101403610531308186001ANDAL, MA. PENELOPE S.                                  20500
A0101407720602163314004JOAQUINO, JACQUELINE ANN                                20500
B0101404840000000004188JOY PLANET INC.                                          1602
B0101405650000000012933CASTLE MERCHANTS AND HAULAGES INC.                       1605
B0101403610000000015983SAN LORENZO RUIZ PARISH - SAN PEDRO                      1601
B0101411820000000024142HARDCOM COMPUTER SYSTEM CO.                              1601
B0101404840000000090184JOY PLANET INC.                                          1602
B0101404680000000095710MVG HARDWARE                                             1601
B5001400170000000169711LIM, EDDIE ONG OR LIM, GEORGE ONG                        1605
B0101402060000000653736POLYMER PRODUCTS PHILS., INC.                            1601
B0101404680000000697883GALAXY 1 INC.                                            1602
B0101401090000000772441B.A. ELECTRICAL SUPPLY                                   1605
B0101407270000000830459EMPRESSO CREATIVE CO.                                    1605
B1301400340000000981944APOVIL CONSTRUCTION                                      1601
B0101407430000001212980POLARIS EXPRESS LOGISTICS CORP.                          1601
B0101400730000001216379THE PREMIERE INSURANCE & SURETY CORP.                    1605
B0101404680000001296595JS UNION OILS & TRADING INC.                             1603
B0101403320000001647190GLOBAL PROJECT INC                                       1605
B0101404000000002799775LMA LAW OFFICES                                          1602
B0101402480000002975400*****                                                    1602
B0101400150061010612001INTERNATIONAL ELEVATOR & EQUIPMENT                       1605
B0601400100081040296001ANGELES BEACH CLUB TOWER, INC.                           1605
B0101401960121046474001DE LUXE HOME DESIGN CENTER, INC.                         1601
B0101407270162019034002FOOD FEST LAND, INCORPORATED                             1603
B0101407270162031133001LUCKY CENTRO VENTURES INC.                               1605
B0101407270162036459001ULTRATECH PRINTING CORP.                                 1605
B0101407270162038101001BIRDS INTERNATIONAL, INC.                                1603
B0301400530193589504188********                                                 1601
B0101401380201043880001ZHONGFA DEVELOPMENT, INC.                                1601
B0101401380201370046001**********                                               1602
B1901400290261023962003CAROUSEL ENTERTAINMENT CORPORATION                       1605
B0101401670271028082002DDT KONSTRACT, INC.                                      1630
B0101402640361038833001KASAGANA-KA DEVELOPMENT CENTER, INC                      1605
B0201400760374032939002GATEWAY MOTORS (CEBU), INC.                              1605
B0201400890376056534001GALICIA PHOENIX AQUACULTURE CORP.                        1601
B0201400890376056536001MULTIFARMS AGRO-INDUSTRIAL DEV. COR                      1601
B0101408950396738114001ST. LUKE'S MEDICAL CENTER FOUNDATION,INC                 1603
B2401400180411037264001CEVCEG MARKETING                                         1602
B0901400220432043565001CASA CANELAR PENSION                                     1603
B010140345052103269100105*************                                          1605
B0101403450521036992001********                                                 1601
B0101404260611023318001EUNEE TRADERS AND CO. INC.                               1610
B2801400100712024726001SWEET TOOTH CORPORATION                                  1605
B4101400260812024721001DORMBUILT, INC.                                          1603
B0101403320000000037636ARMANDO U. KHONG HUN GENERAL                            11620
B0101405070000000428911INTERNATIONAL FREIGHT FORWARDERS PHILS                  11602
B0101400150061036325001AIKO ENVIRONMENTAL & GENERAL MANPOWER                   11601
B0101400730111035655001FSL INT'L. MANPOWER & PROMOTION SERVICES                11601
B1901400290261646923001ZENAIDA PAZ OR MA JESSIE VILLANUEVA OR                  11602
B0101405650322432069001MANRESA SCHOOL PARENTS AUXILIARY                        11601
B0101408820333046926001ALAYAN SR., RODRIGO DBU VIVID COLOR                     11602
B0101403320000000037636CONTRACTOR, INC.                                        21600
B0101405070000000428911INC.                                                    21600
B0101400150061036325001SERVICES INC                                            21600
B0101400730111035655001INC.                                                    21600
B1901400290261646923001ISABELITA IGLE                                          21600
B0101405650322432069001(MSPA)                                                  21600
B0101408820333046926001DIGITAL IMAGING                                         21600
