A0101411790000000005881WONG, JUNEDITH LONTOC                                    0501
A0801400160000000009463CHAN, JOSELYN GAN LEE                                    0501
A0101404680000000013509VILMA D. SAGAY                                           0501
A0101413020000000056900LANDICHO, GLADYS MAE SUELTO                              0502
A0101413020000000056911CALDERON, KENNETH CASTRO                                 0502
A6601400120000000060380ADRIATICO, ROMEO VILLASIN                                0502
A2601400270000000084400MARILOU A. TOQUERO                                       0501
A0101406040000000096877ZARRA J. CORTEZ                                          0501
A1401400110000000132896MORALES, RAIN DBU DIRL AND JANE                          0501
A1901400290000000135106RHONA DRIZ HERNANDEZ                                     0501
A0601400100000000141988TIMELINE MANPOWER SERVICES                               0501
A2801400100000000188294MENDOZA, VERNIE E DBU VEJ TRADI                          0501
A5001400170000000213910PROCESO, KIM CAMPILAN                                    0501
A0601400360000000225209PINGOL, EDWI DBU SEAFOOD SHACK                           0501
A0601400360000000225210LAPID, MARISSA TADEO                                     0501
A0101405650000000348903ESPERANZA F. BAYLON                                      0501
A0901400220000000425250ORO ITALIA JEWELRY SHOP                                  0501
A0901400220000000425261JEWELS BY AUDREY                                         0501
A0901400220000000425272SURBANO, ELAINE BANLAYGAS                                0501
A0101405490000000444353MARK L. JENSEN                                           0501
A0801400160000000476299*********                                                0502
A0801400160000000476324DUJALE, CLARENCE SALARDA                                 0501
A0101408530000000489801SALES, JUSTINE MAE CALSINA                               0501
A0501400170000000495261YAMBAO, GREGORIO QUIAMBAO                                0501
A0101412470000000520170NG, MARJORIE JANE DY                                     0501
A1401400110000000628604LANDAYAN, CHRISTOPHER CRISTOBAL                          0501
A0101400860000000632604**********                                               0502
A1101400120000000652573COSTINIANO, ELVIRA AYO                                   0501
A0701400260000000670724RABANG, EDWARD FRANCIS ABILAY                            0501
A0101404840000000683585ROXANNE P. AGUILLON                                      0501
A0101410690000000710621MALLARI JR., RO DBU ROMA PRINT                           0501
A0101413990000000726501PAJO, MARIA ROWENA MIMURA                                0501
A0101405650000000772958TINSAY, RADHA MARTINA CUADRADO                           0501
A0101408950000000776518FRUELDA, R DBU RMF TRADING                               0501
A0101412630000000801483CABANES, JEANNE BETH LABASAN                             0501
A0101400730000000833210DEVESFRUTO III, MARIANO DE MESA                          0501
A0101406620000000962209ROMBLON, TYRONE JOHN SUMO                                0501
A0101413990000000969199ABIS, MARLENE OMICTIN                                    0501
A0501400170000001032120FERMIN, MARILOU BAYAUA                                   0501
A0101413310000001073461DE GUZMAN, FRANCIS LOU MANIGBAS                          0501
A3101400450000001103984ALMARIO, MANOLITA DE JUAN                                0501
A0101400860011235488001**********                                               0506
A0101400860011397772003**********                                               0503
A0101400150061230098001SALVADOR R. SERRANO                                      0502
A0101405810072385132001***********                                              0502
A0601400100081518167001BASA, GOMER PANLILIO                                     0501
A0101400730111044241107REMOLA, EMEL JT                                          0501
A0101401830141478374010JACQUILINE G. CARACAS                                    0501
A0101400440161186934001VICTORIA D. SISON                                        0505
A0101400440161525001139JEMARIE S. SALUDAR                                       0501
A0101400440161525001159MARITES P. MONTALBAN                                     0502
A0101400440161549901001EMMANUEL C. FLORENDO                                     0502
A0101407140213548802001LIM, BRYAN JHONSON CHUA                                  0501
A3101400160221478374002MA. LOURDES T. ELIZON                                    0506
A3001400130230478374008GAMO, HAYDEE EDEN CAFE                                   0501
A3001400130230767566034DUENAS, ROLANDO RESURRECCION                             0502
A1001400190231273296001GENTILES, URCESIO C.                                     0501
A1001400190231478374027EUBRA, LIBERTY O.                                        0501
A1901400290261298552013LEONILA QUESADA GUEVARRA                                 0501
A1901400290261298552066DOLORES SARMIENTO MANGUIAT                               0501
A1901400290261709396001GRACE AGUILA RAMIREZ                                     0501
A0101406460272742513001SANTOS, LORRAINE SILAO                                   0501
A0101406620273281234001ANNIE TAN YEE                                            0504
A0101406620273306796004FE FORTUNATA R. RIO                                      0501
A0101406620273719676002************                                             0502
A0101400570281663653001OCAMPO, ELIZABETH JOAN ESGUERRA                          0502
A2601400270302631323001MARIA ISABELL R. DULIG                                   0502
A0801400160311029906001MJ SORIANO TRADING INC.                                  0501
A1101400120313478374116MASIN, NANCY KELISTE                                     0501
A0101405650322705299001ANILA, MARILOU HERRERA                                   0501
A0101408820333040578001********                                                 0501
A0101402060351211787001MENELEO &/OR FILOMENA CARLOS                             0501
A0101402060351595339001CARLOS, CORAZON ALIMARIO                                 0501
A0101402060351632932002MANCILLA, ABIGAIL SARDILLO                               0502
A0101408370382434879001CHUA, ESTELITA MATEO                                     0502
A0101402770391217498008IMELDA A. BROWN                                          0502
A0101402770391460587001CECILIA POTOZA DIZON                                     0502
A0101408950396483245002LEDESMA, KATHLEEN ROSE VARANDMA                          0503
A2401400180411043222088ROD-MAR MARKETING                                        0502
A2401400180411523954001ANG, DANNY KO                                            0502
A2401400180411580807001BESANEZ, MARITES ARCENAL                                 0502
A0101403320471205840001*****                                                    0503
A0101407430503508540001ROBERTO PY JAO                                           0501
A0101403450521238097001RAYMOND PUA                                              0503
A2201400250561078548001BENIGNO M. ALMAYDA                                       0501
A2201400250561296301002MARIA ANTONETTE I. BELMONTE                              0501
A0101407720602391484001GLER, MA. TARCELA SABARRE                                0502
A0101404260611150901001CECILIO OR ROSALINDA ATIENZA                             0501
A0101404260611484749002BAHALA, AURELIA MANINANG                                 0505
A0101404680651088226001VILLANUEVA, AGNES NUNAG                                  0501
A0101404680651298552042SUSAN R. TANA                                            0501
A0101404680651478374025SOLEDAD A. GIRAY                                         0501
A0101404680651478374094MARY ROSE L. CONVOCAR                                    0502
A0101404680651520766171JONIS PRELYN MONTILLANO                                  0501
A0101404680651525001029ELISA O. CALVIN                                          0501
A0101404680651561390001NO NAME                                                  0501
A0101406590662032571002MOTHER BUTLER GUILD- OLPP                                0501
A1301400340683032453001ST. MARY'S RELIGIOUS SHOP                                0510
A1301400500684705921001ANTONIO, ALBERT SILVA                                    0501
A0101407560686328712001MARIANITO C. ARCEO                                       0504
A0101408240711478374009MARIVIC C. FLORA                                         0501
A4101400260812478374021CATHERINE C. RODA                                        0501
A4101400420814389376001ANGKICO, ALVIN ARBIS                                     0501
A4101400420814478374146ZETA B. CLIDORO                                          0501
A0101404840851478374193JONALYN BACALANGCO                                       0501
A0101404840851520766075THELMA F. DURAN                                          0501
A0101412340000000031136VILLACORTE, BIENVENIDO L. OR                            10501
A1001400480000000041523PO, MARILOU TRAJANO OR PO,                              10501
A0101412500000000041567ALEGRE, JOYCE S. OR ALEGRE,                             10502
A0101412050000000697190RIVERA, TEODO DBU BLAZE EFX                             10501
A0101410850000000778689CORTEZ, DOMENICO ALLESSANDRO                            10501
A3001400130000000931208BENDIJO, AMELITO MONDEJA OR                             10501
A1301400210000000983757RODOLFO C BONIFACIO OR                                  10502
A0101401250021179004001TIBAJIA, JOSEFA OR TIBAJIA,GINA                         10501
A0101401090171196128001DRS. ROLANDO CABATU OR                                  10502
A3101400740224045556001JPP ENGINEERING SERVICES AND                            10502
A1901400290261432900001JULIUS PIO AFRICA RANA OR                               10501
A0101402060351378851001ALBERTO, EMIL JOHN M. OR                                10503
A0101408370382437913001DR. CATHERINE M. LAZARO OR                              10503
A1901400160491244484001IRENE H BERBA OR                                        10505
A0101407430503181551001DICKSON R. ESCOLAR OR LOURDES                           10501
A0101404680651174541001CARLOS, RODRIGO OR                                      10501
A0101404680651457785001ARMANDO DORIA OR                                        10504
A0101412340000000031136VILLACORTE, ADELINA C.                                  20500
A1001400480000000041523MAUREEN TRAJANO                                         20500
A0101412500000000041567JAMES CEDRIC Y.                                         20500
A0101412050000000697190EVENTS PRODUCTIO                                        20500
A0101410850000000778689MAGTOTO                                                 20500
A3001400130000000931208BENDIJO, ERLEN ANGGONG                                  20500
A1301400210000000983757YOLANDA S BONIFACIO                                     20500
A0101401250021179004001OR TIBAJIA, MYRA                                        20500
A0101401090171196128001MARCELLA RUIZ-CABATU                                    20500
A3101400740224045556001SUPPLIES                                                20500
A1901400290261432900001CHARMAINE DE GUZMAN RANA                                20500
A0101402060351378851001ALBERTO, ANN                                            20500
A0101408370382437913001ISMAEL L. LAZARO                                        20500
A1901400160491244484001CARLOS R BERBA                                          20500
A0101407430503181551001OR MARY ANN ESCOLAR                                     20500
A0101404680651174541001CARLOS, NORALYN                                         20500
A0101404680651457785001JOSEPHINE DORIA                                         20500
B0101410850000000005698ALSTROEMERIA CORPORATION                                 1601
B1301400760000000007183EPS HAULING COMPANY INC.                                 1601
B3101400740000000013889IM DIGITAL PHIL INC.                                     1606
B0201400760000000033303SAM SOWAH SHIPPING CORPORATION                           1601
B0201400760000000033310SAM SOWAH SHIPPING CORPORATION                           1601
B0101408660000000034346LYFE MARKETING SYNERGY, INC.                             1605
B0101413440000000038242FOCUSMEDIA AUDIOVISUALS INC.                             1601
B5001400170000000045092BUCAD, VILMA RECAMARA                                    1602
B0101401830000000060000RUBEN ANDAL DBU LEAN INSURANCE SERVICES                  1601
B0101404840000000090173JOY PLANET INC.                                          1602
B0201400760000000222762UY, JOHN CHIU OR JOHN JEFFERSON UY                       1605
B0101400150061040558001CORDILLERA EXPLORATION CO., INC                          1602
B0101405810072012504001**********                                               1602
B0101405810072319968009***************                                          1605
B0601400100081046420001REAL BLOCK CONCRETE PRODUCTS, INC.                       1601
B0601400100081258815001BIAG, IVOR JOGAR JOSEPH OR IRENEO                        1602
B0101401960121238876001**********                                               1602
B3101400160221010168001K SERVICO TRADE, INC.                                    1602
B1901400290261015948001CANOSSA ACADEMY                                          1602
B1901400290261033214002RD CASH PADALA, INC.                                     1603
B0101406620273007454001GLOBE ASIATIQUE REALTY HOLDINGS CORP.                    1610
B0101406620273041414001GANO I-TOUCH PHILIPPINES INCORPORATED                    1605
B0101405650322043993001DANSART ANGELS ACADEMY, INC.                             1603
B0101405650322044157001BRUMBO SECURITY AGENCY, INC.                             1603
B0101402060351022206001ASSOCIATION OF NON-PROFIT CLUBS INC.                     1601
B0201400890376042888008NEW CITY MARKETING                                       1601
B0101403030441011894001REXSSEL AUTO PARTS CENTER                                1602
B1901400160491027004001MONTE VICTOIRE INN CORPORATION                           1602
B0101407430503030387003SAPPHIRE CARGO MOVERS INCORPORATED                       1602
B0101406880513042587002PHILIPPINE WOUND CARE SOCIETY INC.                       1602
B0101408110515018155001PHIL. ASSOCIATION OF PAINT MFRS.                         1610
B0101403450521011915001**********                                               1606
B0101403450521012019001TIMCO MANUFACTURING CORPORATION                          1605
B0101404000551654723001SIDELI INTERNATIONAL TRADING, INC.                       1601
B0101404680651036331001TWIRLEE FOODS CORP.                                      1604
B0101408240711032925019***************                                          1601
B2801400100712024870001SIGMA PACIFIC BPO SOLUTIONS CORP.                        1605
B0101412340850047786001SAINT ANTHONY SCHOOL OF LOS BANOS INC                    1605
B0601400230891039268001GOLDIE PLUS LENDERS, INC.                                1605
B0101400150000000633083PHILIPPINE SUGAR MILLERS ASSOCIATION,                   11602
B0101401830141032221001CARITAS ET LABORA HUMAN RESOURCE SERVICE                11603
B3001400130230704151001BAUTISTA III, ISIDRO TRANI OR BAUTISTA,                 11603
B1901400160491246031001CARLITO GO/FELIE GO/MYRNA MORALES/MONINA                11603
B1901400160491246031002CARLITO/FELIE/TIMOTHY GO / MONINA REMO                  11603
B1401400110492365609001JEORGE S MALIGAT - PILIPINO HARDWARE AND                11601
B0101407720602005874001DOOR OF HOPE COUNSELING                                 11602
B0101400150000000633083INC.                                                    21600
B0101401830141032221001COOP.                                                   21600
B3001400130230704151001CHYRL TAN                                               21600
B1901400160491246031001REMO/CARLEEN SIH                                        21600
B1901400160491246031002/MYRNA MORALES                                          21600
B1401400110492365609001CONST. SUPPLY                                           21600
B0101407720602005874001RESOURCE CENTER                                         21600
B0101400280051821100608**********                                               2005
B0101400600071821100608**********                                               2005
