A1001400190000000124683ABCEDE, CARMENCITA A.                                    0501
A0101400730000000168507VALDEZ, ELMA TANGONAN                                    0501
A0101412340000000319497PINEDA, IMELDA PEREZ                                     0502
A0901400220000000424991CASINILLO, APRIL JOY BAZAN                               0501
A0101405070000000447530JOCELYN M. VILLEGAS                                      0501
A0101404840000000475952GONZALES, ROWENA POLLICAR                                0501
A0101411950000000490802LABATA, REY SOLON                                        0501
A4101400390000000500381PALUGOD, HONRADO FLORINIO VALER                          0502
A1301400210000000540743JONEL MAR S TRINIDAD                                     0501
A0101408370000000586016SAMONTE, CRISTY EVANGELISTA                              0502
A0101413310000000863941SUMALINOG, KATHERINE MANZANO                             0501
A0801400160000001031376GEROCHI, ROMEO PASQUIN                                   0501
A0101412890000001056531MIAVE, MARIA CONCEPCION TABLICO                          0501
A0101412890000001056575UDOG, MA GINA SAN PEDRO                                  0503
A0601400520000001120385BANAG, ESMERALDO PINEDA                                  0501
A0101412500000001147080**********                                               0501
A3001400130000001271567LIBRES JR., PONCIANO NICOLASORA                          0501
A0101409210000001294559DE LEON, BERNARD MACALALAG                               0501
A0101411820000001356667**********                                               0501
A0101411820000001356667JOVAN DELA MERCED JIONGCO                                0501
A0101406040000001392029DEZHEL M. AQUINO                                         0501
A0101408400000001614660CAYTON, ANIANA O.                                        0501
A0101405070000001726074CANTAL, ELMIRA GARANZO                                   0501
A0101412890000001765711BUCCAT, KRISTINE ANNE VILLANUEV                          0501
A0701400260000001804495BUNAG, AMELIA ACHONDO                                    0502
A0101402480000001927802***********                                              0503
A0101408400000001981586BMFV BEAUTY SALON                                        0504
A3101400450000002092877ONTE, MICHELLE ENRIQUEZ                                  0501
A3101400450000002092957MANANSALA, RYAN JAMES YU                                 0502
A0101402480000002307160*******                                                  0501
A0101413440000002339620GUETA, ZENAIDA ADAN                                      0501
A0101400440000002639212LEONOR, RENANTE ELORZA                                   0505
A0201400920000002804480MIRANDA, SAMMY                                           0502
A0101401700041193400001EDGAR C. NGO                                             0503
A0101401700041409908001**********                                               0501
A0101411080042289624001************                                             0502
A0101400150061039916083***************                                          0501
A0101400150061541767001INGENIERO, SIEGFRED CANDELARIO                           0501
A0101400600071233729001**********                                               0501
A0101400600071457180001**********                                               0501
A0101401960121306015001***********                                              0501
A0101400440161478374008MARY FE I. REDONDO                                       0501
A0101400440161478374129HAZEL R. SALATAN                                         0502
A0101400440161525001040DOLORES A. DE GUZMAN                                     0501
A0101400440161525001164NERYLROSE B. VINLUAN                                     0501
A0101407270162036357001CIRCLES PLASTIC MANUFACTURING                            0510
A0101401090171196001001MATILDE GONZALEZ                                         0501
A0101401090171196066002MARY JOCELYN OR REDARIO LAYGO                            0503
A0101401090171417916003CARMEN R. ALVIAR                                         0501
A0301400660194044816001FOAMWORX CARWASH                                         0505
A0101401380201436370001MONSALE, MENLY ABENOJA                                   0501
A0101401380201554626001BANGURAN, MYRNA BRINGAS                                  0501
A0101401380201563615001ABAYA, JESUS NACINO                                      0502
A3101400160221220343001LAARNI A. CALAPATIA                                      0502
A1001400350233675969001INESIN, LYDIA TRINIDAD                                   0501
A0101406620273719676001***                                                      0502
A0101406620273719678001*****                                                    0504
A0101400570281028085001BAZAAR SA E-ROD                                          0501
A0101400570281375245001CHUNG, JANE LEE                                          0501
A0801400160311170180001TAI, KUO AN                                              0501
A0801400160311456671001DAMASCO, ROMMEL APISTAR                                  0502
A0801400160311478374008RODELYN LEBUNA                                           0501
A0801400160311478374037EDNA T. CARIAGA                                          0502
A0801400160311785590001********                                                 0503
A6601400120314612862001TAN, HERMONIO OR HUERDITA                                0505
A6601400120314627037001LIM, JOSELITO CHENG                                      0503
A2001400290315043507001AMSTEL BEAUTY SALON                                      0501
A0101402480331020937001**********                                               0503
A0101402480331520766035RICHARD DE REAL                                          0501
A0101402480331546994001******                                                   0501
A0101408820333478374059********                                                 0501
A0101402510341036645001MANG INASAL RESTAURANT                                   0503
A0101402510341196449002LOLITA M. BALBOA                                         0501
A0101402510341560609001CAREY, TERESITA OR CAREY, JOHN                           0501
A0101402060351773032001FERRER, ROSE ELLAINE FIDELINO                            0501
A0101408400394039740001KAINAN SA STAFFHOUSE                                     0506
A0101408400394162678001MARINAY, ISIDRO T.                                       0504
A0101408400394365559002LEDESMA, ROY CABAGAY                                     0501
A0101408400394409317001BANDWAGON ENTERPRISE                                     0502
A0101408400394468464001NUNEZ JR., GENEROSO NOTORIO JT                           0501
A0101408400394478374080FIESTADA, PINKY                                          0501
A0901400220432429653001**********                                               0502
A0101403030441545175001**********                                               0501
A0101405940512666891001ADAN, RONALDO PALENCIA                                   0501
A0101404000551303308001***                                                      0502
A0101404130601286913001SEVILLANO, PILAR CEAS                                    0501
A0101404130601451314001DINGLASAN, ESTELITA                                      0501
A0101407720602165986001ANGEL C. GOZUM                                           0502
A0101404260611549185001REYES JR., ROSENDO ALCAFARAS                             0501
A0101404420631478374076BERNADETH B. MIRANDA                                     0501
A0101410720653478374046MONALIZA F. MALDONADO                                    0501
A0101410720653478374054CRISTINA CALDERON                                        0501
A1301400210682247175002RUBEN DE JESUS JR.                                       0502
A0101407560686327211001EDUARDO F. EUGENIO                                       0501
A0101408240711443671001CARMENCITA C. GUIAO                                      0501
A0101408240711605603001SANTOS, MARK ANDREW FETISAN                              0501
A4101400420814520766056MULIG, ESTER R.                                          0502
A0101404840851421456001MARCELO, MERIAM ACAIN                                    0503
A0101404840851478374038EVANGELINE UMALI                                         0501
A0101404840851478374094LETICIA FULLO                                            0501
A0101404840851520766002CYNTHIA S. GERODIAS                                      0502
A0101404840851520766152ADELIA CEMINIANO                                         0501
A0101405070861339825001DINO JR., DOMINGO VARGAS                                 0501
A0101405070861478374020SOL G. CONFLOR                                           0503
A0101405070861478374086MARLYN C. GABEST                                         0502
A0101405070861780080001SALCEDO, RAYMOND GALLARDO                                0501
A0101412890000000007536JOSEFINA J MENDOZA OR                                   10501
A1001400480000000133542GUINTO, CHARLOTTE JANE MAGO AND                         10501
A0101405070000000239212MATEO F. MASANGYA JR. OR HELEN                          10502
A0101405070000000414548BALSAMO, VINCENT ALIOY                                  10501
A1101400120000000652500UY, TINONG Y. OR UY, BELINDA C.                         10501
A0101412050000000697190RIVERA, TEODO DBU BLAZE EFX                             10501
A0101405490000002253032CRISTIANZEN R. CHAVEZ OR                                10501
A0101413440000002339539HERNANDEZ JR., RICARDO B.                               10501
A0101401090171196099001MARY JEAN V. GUNO OR                                    10504
A0801400160311380582001CHUA, ANDREW UY OR                                      10501
A2001400290315758161001REPEROGA, ROLAND LIM                                    10505
A0101408370382408402001DR. RAUL V. DESTURA OR                                  10503
A0101408370382433161001DR. ANTHONY MARC B. ANCHETA OR                          10502
A0101408400394376439001SY, LUISITO SANTILLAN/                                  10520
A0101408400394427962002SALONGA, JEFFREY V. AND                                 10503
A1901400160491547151002GINA F TORIAGA OR                                       10501
A0101407720602396331001RAMON I. DIAZ JR. OR                                    10504
A1301400210682047656001DADSON ENTERPRISES PUMPS                                10505
A0101407560686317153002POLICARPIO, BARBARA OR                                  10501
A4101400420814304997002ABAD, EVELINA OR ALVIN VINCENT                          10502
A0101406750852084318001SIBUG, GENEATH P. OR                                    10501
A0101405070861037846001GOODNESS & MERCY MOVERS                                 10503
A0101412890000000007536AIREEN S ANGELES                                        20500
A1001400480000000133542GUINTO, NEMER SARDEA                                    20500
A0101405070000000239212OR MASANGYA, CHR                                        20500
A0101405070000000414548OR BALSAMO, MYLA                                        20500
A1101400120000000652500UY, STEPHANIE GRACE C.                                  20500
A0101412050000000697190EVENTS PRODUCTIO                                        20500
A0101405490000002253032SHEILLYN GRACE G. LIM                                   20500
A0101413440000002339539HERNANDEZ, CATHERINE                                    20500
A0101401090171196099001ATTY. TOMAS GUNO                                        20500
A0801400160311380582001CHUA, PAMELA G.                                         20500
A2001400290315758161001OR REPEROGA, ROSE CRUZ                                  20500
A0101408370382408402001BABY ASUNCION B.                                        20500
A0101408370382433161001DR. CELINA Z. AN                                        20500
A0101408400394376439001SUNLIGHT DRUGSTORE                                      20500
A0101408400394427962002SALONGA, MA. DANELI                                     20500
A1901400160491547151002BERNARDO I TORIA                                        20500
A0101407720602396331001CYNTHIA M. DIAZ                                         20500
A1301400210682047656001& WELL DRILLING                                         20500
A0101407560686317153002POLICARPIO, FERN                                        20500
A4101400420814304997002OR CHRISTINE MAR                                        20500
A0101406750852084318001SIBUG, ERNESTO M.                                       20500
A0101405070861037846001SERVICES                                                20500
B0101412890000000007007CREATIVE FILES INC.                                      1603
B0101405070000000028891TAKUMI RESTAURANT CORPORATION                            1601
B0101405070000000028908STAR LADY RESTAURANT AND CLUB INC.                       1601
B02014007600000000333545A FEEDMILL CORPORATION                                  1605
B0101412920000000042151PHILWORLD SURETY & INSURANCE AGENCY                      1601
B0301400660000000195259ORIENTAL & MOTOLITE MARKETING CORP.                      1605
B0101413570000000206540KASECO HOMEOWNERS ASSOCIATION INC.                       1601
B0601400520000000398625PADSA ENTERPRISES                                        1601
B0101411110000000604915CLATER, INC.                                             1601
B0101411110000000604926CROSSPROPERTY MANAGEMENT INC.                            1605
B0101411080000000806046******************                                       1601
B0101402480000001099812**********                                               1601
B0101402480000001100110*****                                                    1602
B0801400160000001289892WEST VISAYAN CONFERENCE                                  1601
B0101401700041023607001GBU AUTO SPARE PARTS SUPPLY                              1602
B0101400150061010833001VELCA TRAVEL & TOURS, INC.                               1601
B0101400150061047262001SUPER GT MOTOR SALES AND SERVICES INC.                   1604
B0101400600071325133001**********                                               1602
B0101401380201038394001INDENTRADE SYSTEMS, CORP.                                1603
B0101401380201042910001SECURITRON SECURITY SERVICES, INC.                       1605
B1001400350233036707001KASANAG DAUGHTERS FOUNDATION, INC.                       1602
B0101406620273022309001VISOR RESOURCES, INC.                                    1603
B0101402480331010039001**********                                               1615
B0101402480331031792001***************                                          1602
B0101402060351009762002NETERCO-PHILS., INC.                                     1603
B0101405490392019217001SHEMA RESOURCES, INC.                                    1602
B0101405490392081974001HALCHEM INDUSTRIAL SALES, INC.                           1605
B0101408400394020654001STATION SQUARE EAST COMMERCIAL CORP                      1608
B0101408400394025635001KETMAR FASTFOOD CORPORATION                              1604
B0101407720602019639001MMC DEPARTMENT OF OB-GYN                                 1601
B0101408240711023600003HERSAN REALTY CORPORATION                                1602
B0101408240711024553002PERRY'S HOLDINGS CORPORATION                             1605
B0101408240711024724001GLOWAVE COMMERCIAL CORPORATION                           1601
B4101400260812012607005FOUR STEPS CORPORATION                                   1605
B0101405070861020510001SILVERLINK INTL TRAVEL & TOURS CORP.                     1610
B0101405070861024779001SEAVIEW IMPORT EXPORT CORPORATION                        1602
B0101405070861044965001MEGA-PRO INTERNATIONAL RESOURCES, INC.                   1605
B0601400520000000398647TELESIGHT COMPUTER AND SURVEILLANCE                     11601
B0101402060000000653827EUSTYLE OF LINES, SOLUTIONS AND ARTS                    11601
B0101406040112021958001KNIGHTS OF COLUMBUS FRATERNAL ASSOC. OF                 11601
B0601400230891030219001ALPHA SIERRA INDUSTRIAL SOLUTION CORP.                  11602
B0601400520000000398647SYSTEM                                                  21600
B0101402060000000653827(E.L.S.A), INC.                                         21600
B0101406040112021958001THE PHILS. INC.                                         21600
B0601400230891030219001(ASISCO)                                                21600
B0301400660194821100608**********                                               2010
B0101408240711821100608**********                                               2020
