A0101408240000000039832PAGODA INDUSTRIAL ENTERPRISES                            0501
A0101412630000000044664FALCON, LUISITO MONTALVO                                 0502
A6601400120000000060682ALBAY, JOHN QUIJANO                                      0501
A0101403320000000067485OSORIO, CECILIA REYES                                    0501
A2601400270000000084360CRISTINA L. CENDANA                                      0501
A4101400420000000121035LLANES, HENRIETTA ISABELLE C.                            0501
A4101400420000000121046VANGUARDIA, SUSAN GERALLA                                0501
A0101406590000000131706CARRANZA, JANITH BOTALON                                 0501
A2801400100000000188221CO, HENRY GONZALES                                       0505
A0101402640000000201925ARACELI D. LOPEZ                                         0501
A0101412210000000238500ZAMBRANO, SUZANNE JUANEZA                                0501
A1901400160000000243536REBECCA REYES PAGCALIWAGAN                               0501
A1901400160000000243547ALFREDA REYES PAGSINOHIN                                 0501
A0101409050000000258304MARY JANE A. CRUZ                                        0501
A0301400820000000316663PANTIL, NIDA DELOS SANTOS                                0501
A1301400470000000366432**************                                           0501
A0101403580000000383664MA. LUISA SYLVIA A. ABELLO                               0503
A0101414120000000398863MHAY C. PINGUL                                           0501
A0101414090000000399220ECHEVARRIA III, LEOPOLDO P.                              0502
A2201400250000000433601VERNON LOPEZ VILLANUEVA                                  0501
A0101403320000000452220************                                             0501
A0101404000000000461118LEDESMA, CARMELO QUIMPO                                  0501
A3801400170000000497872MARIVIC R BALITA                                         0501
A0101412470000000520130FLORES, GINA CRUZ                                        0502
A0101412470000000520152PORTUGAL, ADORACION GONZALES                             0501
A1001400480000000606762PLATON, JULIUS CEASAR EROLES                             0502
A3001400130000000668515JAYOMA, JOBELLE MERNILO                                  0501
A2001400290000000724509VILLALON, CARYL ORIOLA                                   0501
A2001400290000000724521MORALES, EDNA JAPIN                                      0501
A0101405070000000741042VILLANUEVA, DANILO BALTAZAR                              0501
A0101405070000000741053ABESAMIS, JOSE GAUDENCIO                                 0501
A0101411660000000751104RYAN ALVIN R ACOSTA                                      0501
A0101405940000000874415MUECO, MA  VICTORIA PEREZ                                0501
A0101400860011376202002**********                                               0502
A0101400860011384021001**********                                               0502
A0101400860011392717002**********                                               0505
A0101400860011432973001**********                                               0505
A0101400860011498256002**********                                               0502
A0101400860011512418001**********                                               0502
A0101400860011532614001**********                                               0502
A0101400150061720595055BONIFACIO, MARIA CRISTINA M.                             0501
A0601400100081255031002JOEL, PETER L.                                           0502
A0601400100081356145001LACSON JR., RANEL CONRADO TUANO                          0503
A0601400100081566998001LAO, FREDERICK LI                                        0503
A0601400360083776778001MENDOZA, NOVERT DELA CRUZ                                0501
A0101400730111195390002@@@@@@@@@@                                               0501
A0101401960121238731001**********                                               0504
A0101401830141526215001DE LOS REYES, THELMA REMOS                               0501
A0101400310211478374047TABIOSAS, PRECY                                          0502
A0101400310211606202001CONTRERAS, GRACE MUSICO                                  0501
A0101407140213190787001NELIA S. TAN-LIU MD                                      0502
A0101407140213338106001**********                                               0502
A0101407140213429359002**********                                               0503
A3101400160221217497034MARY ANN A. DIAZ                                         0501
A1001400190231520766118AUSTRIA, MARY FILIPINA PINGGOY                           0502
A1901400290261193220001JOSEPHINE YU TAN                                         0501
A0101400570281333519001EDITHA M. SIMEON                                         0505
A0101400570281624893002MA. REGINA L. EDILLON                                    0501
A6601400120314614083001ALMENDO, MICAEL GODES                                    0502
A6601400120314711277002SALAZAR, ROMIL REGULACION                                0501
A0101402640361039299001JANRELK TRADING                                          0501
A0101402640361528944001REYES, MILAGROS DE LEON                                  0501
A0201400760374490906001******                                                   0501
A0101405490392033011001VICELA MOTOR WORKS                                       0503
A0101403030441279569001**********                                               0505
A0101403030441707375001**********                                               0502
A0101403320471478374061ROSEMARIE O. HONRADA                                     0501
A0101406330472542494001TEODORA A. RAZON                                         0501
A0101408530516571877055JIXY JOAN D. GATCHALIAN                                  0502
A0101403450521029691001**********                                               0501
A0101403450521238268001**********                                               0502
A0101404130601450095001JERRY D. PAULE                                           0502
A0101407720602396254001ROXANA M. SISON                                          0502
A0101404260611478374085ROSALINA SUMILE                                          0501
A0101406590662480379001OAFALLAS, REZ SIGUENZA                                   0502
A0101406590662622920002CANDO, LOURDES NER                                       0503
A0101407560686288699001***************                                          0501
A2801400100712309314001CAPUNO, GRACE EVA EDEJER                                 0501
A2801400100712377373001REYMAN, ARNOLD TABILE                                    0501
A2801400100712397112002OLALIA, HAROLD OLAIVAR                                   0501
A4101400260812644387001MERCIDITA C. HERNANDEZ                                   0504
A4101400390813017514001PRESTIGE AUTO CARE                                       0501
A4101400420814298552026JOSEFINA FERNANDEZ                                       0502
A4101400420814413936001DONCILLO, ROSITA YMATA                                   0501
A4101400420814436140001AMIDO, RONILA ANCHETA                                    0501
A4101400420814478374030LIGAYA ILANO                                             0501
A4101400420814478374122AGUILO, RODENA T.                                        0501
A4101400420814520766119OMNOS, NOVA DESCARTIN                                    0501
A0101404840851520766092VIOLETA G BERMAS                                         0506
A0101404840851546349001AQUINO, JULIE ANN PINEDA                                 0502
A0101406750852478374039MERCY MOSLARES                                           0501
A0101405070861553114001IDANMAL, SANJAY KUMAR                                    0501
A0101410300000000026520BANTIGUE, JOHN PAUL P. AND ESQU                         10501
A0101413020000000056842RONALDO C. MANUEL AND                                   10501
A0101410720000000234922GUETA, NINO CARL JAMES                                  10501
A0101405490000000355691JOSEFINA C. ALMEDA OR                                   10501
A0101405490000000355708MA FERLINDA P. PAEZ OR                                  10501
A1601400170000000421190JOHN F. TORROCHA OR                                     10501
A0101401250000000460644REBLANDO, MA. ELENA ALCANTARA                           10501
A0101411820000000477214ENAMARIE LIZZETTE C.                                    10501
A0101412470000000520141TANSIONGKUN JR., JOSE ONG OR                            10501
A0101401830000000535631FELICIANO, NORBERTO S. OR                               10501
A2601400270000000561562BONIFACIO T. UY OR                                      10502
A2001400290000000724510JUCOM, RODORA TUALE                                     10501
A0101401250021393356001ALVIAR, ANGELITO SANTOS OR                              10502
A0101400150061632464002ANGELES, TERESITO AND LADEZA,                           10502
A0101401830141513111001O, MARY JOY MONTENEGRO OR                               10501
A0101407270162390807001THOMAS P. MANOTOC JR. OR                                10510
A0101407270162390807002THOMAS P. MANOTOC JR. OR                                10510
A0101400310211163379002MARCOS, ZENAIDA CABEL OR                                10502
A1301400470252428703001FERDINAND S. PUNO OR                                    10502
A0101406460272190348003ANGELES, ROSARIO OR DALMACIO                            10502
A0101402640361343079002ANGELINO CHAN OR AMELIA CHAN OR                         10501
A0101406330472294535002DE VERA'S COMBINED SERVICES REF                         10505
A0101407720602535102001MARIANO DOMONDON OR                                     10501
A0101407690652398706001QUIRINO G. MANGLIGOT JR. OR                             10502
A0101407690652478374145MA. ROUMELA LUISA MIJARES -                             10501
A4101400420814304997002ABAD, EVELINA OR ALVIN VINCENT                          10503
A4101400420814436355001BAUTISTA, LOIDA U. OR                                   10502
A4101400420814506413001IBIAS, JOSEPHINE OCAMPO OR                              10501
A0601400230891682041001ERNESTO A. BALTAZAR OR                                  10502
A0101410300000000026520IVIAS, JOAQUIN PABLO A.                                 20500
A0101413020000000056842CONSUELO C. TAN                                         20500
A0101410720000000234922ESCARLOTE                                               20500
A0101405490000000355691MARIA CRISELDA C. ALMEDA                                20500
A0101405490000000355708RONNIE M. ESGUERRA                                      20500
A1601400170000000421190ROCHELLE A. TORROCHA                                    20500
A0101401250000000460644OR SAMONTE, JASMIN ADEL                                 20500
A0101411820000000477214MEDENCELES- VILLALON                                    20500
A0101412470000000520141TANSIONGKUN, LULU G.                                    20500
A0101401830000000535631FELICIANO, HAYDEE C.                                    20500
A2601400270000000561562CARL HEINRICH G. UY                                     20500
A2001400290000000724510OR JUCOM, JHUFEL BALATAYO                               20500
A0101401250021393356001ALVIAR JR., ANGELITO G.                                 20500
A0101400150061632464002AMON AND DAGDAYA                                        20500
A0101401830141513111001O, CHRISTIAN NAPA                                       20500
A0101407270162390807001MA. ROSARIO REME                                        20500
A0101407270162390807002MA. ROSARIO C. M                                        20500
A0101400310211163379002MARCOS, EDUARDO                                         20500
A1301400470252428703001BABELET E. PUNO                                         20500
A0101406460272190348003GREGORIO                                                20500
A0101402640361343079002CHRISTOPHER CHAN                                        20500
A0101406330472294535002& AIRCON SPECIALIST                                     20500
A0101407720602535102001REBECCA DOMONDON                                        20500
A0101407690652398706001MARICHU B. MANGLIGOT                                    20500
A0101407690652478374145DEALERS OF SHOEC                                        20500
A4101400420814304997002OR CHRISTINE MAR                                        20500
A4101400420814436355001BAUTISTA, EPITAC                                        20500
A4101400420814506413001IBIAS, SEGISMUND                                        20500
A0601400230891682041001ANGELITO M. LOPE                                        20500
B2201400250000000016931ASUCAL MULTIPURPOSE COOPERATIVE                          1640
B0301400820000000024911DIGOS DOCTORS' HOSPITAL, INC.                            1610
B0101401830000000033592CARITAS SALVE CREDIT COOPERATIVE                         1602
B0101412050000000043416VASANDANI, HARESH LALCHAND                               1601
B3001400130000000067207MOLLANIDA, RAQUEL GO JT PASCUAL, RENATO                  1601
B0101406330000000432591SPACEPRO CORPORATION                                     1601
B0101411240000000629356**********                                               1601
B1101400120000000652879TY, WILLIAM LOBRIO OR TIU, MARILOU CHU                   1605
B0101400150061021685001RFD FOOD SERVICES, INC.                                  1601
B0101400150061327667001LPM PEARL FOUNDATION, INC.                               1601
B0101400600071233702001FE ZAMORA                                                1601
B0601400100081013041001SEVERINA REALTY CORPORATION                              1604
B0601400100081028347001NP ANGELES SERVICES, INC.                                1610
B0101407140213007774003MIGHTY 8 MARKETING CORP                                  1601
B0101407140213022985001**********                                               1605
B3101400160221032495001POWERSERVER MULTI-SERVICES CORPORATION                   1604
B1001400190231272348001LAO, SHERWIN                                             1602
B0101406460272036660001***********                                              1603
B1101400120313036429001PERPETUAL HELP MULTI-PURPOSE COOPERATIVE                 1602
B1101400120313036491001AQUALINE CONSTRUCTION                                    1610
B0101408820333040664001LAT ARTWORKS                                             1601
B0101409050352040431001PACIFIC STARR ALLIANCE CORP.                             1603
B0101406330472020438001DAROMAR DEVELOPMENT CORP.                                1605
B0101407720602017611001AMALGAMATED INVESTMENT BANCORP.                          1603
B0101407720602026114001**********                                               1603
B0101404260611033056001OVT-GRAPHIC LINE INC.                                    1603
B0101407560686006342001METRO CONTAINER CORPORATION                              1605
B4101400260812039799001LAGAMAYO DENTAL CORPORATION                              1602
B0101404840851009292001GEMSTAR MARKETING                                        1605
B0101401700041536830001TAN, ROBERT JOHNSON RAGOS OR                            11606
B0101401830141029955002SHELL EMPLOYEES MULTI-PURPOSE COOP. -                   11605
B0101401830141744717001DUCUSIN, CHE DBU STUDIO 21 CD PRODN AND                 11601
B0101401700041536830001TAN, GUE LAO                                            21600
B0101401830141029955002CANTEEN                                                 21600
B0101401830141744717001CABRAL, CARMINA                                         21600
B0101402930381821100608**********                                               2010
B0301400240401821100608**********                                               2020
B0101410300663821100608**********                                               2010
