F4101400260000000002171CAPACIO, MILAGROS RAFOL                                  2502CKO
F0101408370382415751001MA. CECILIA CRUZ-REYES M.D.                              2505CKO
F4101400260812433131001TERESITA DUNGCA OR                                      12502CKO
F4101400260812433131001REBECCA DUNGCA                                          22500CKO
F0101408080514026336003THE FLIGHT SHOP, INC.                                    2603CKR
