A0101407560000000003447************                                             0505
A0101410850000000005803JOSE, SHARON KAYE LU                                     0501
A0101403450000000009890SANTOS, EMMA CASTILLO                                    0501
A0101400440000000029398SHARON KEITH P. CABRERA                                  0501
A0101408400000000029489EGBS ARCHBUILD ENTERPRISE                                0502
A0101412760000000031927BULACLAC, MARY GRACE AVELIS                              0502
A0101407430000000044904ESPIRITU, ROWENA LITUSQUEN                               0501
A1301400760000000050660HIZON, RODEL GARCIA                                      0502
A6601400120000000060573GERIANE, JOSE ARIEL OR MA. GINA                          0501
A1301400470000000061532JUDE JASON DUENAS ELEQUIN                                0502
A0101400440000000143959DEL ROSARIO, RAMON DAMASCO                               0501
A0101412760000000208626COMIA, M DBU CINCTURE BIO-ASSET                          0501
A1301400500000000213221MARTINEZ, MARY GRACE SANTOS                              0501
A0101412180000000259552TSOI, MICHAEL SHU KIN                                    0501
A0101400440000000337535ABELLA, RICHELLE CERILLA                                 0501
A0101406750000000358252DESTURA, MA JANE AMILETH BUEN                            0501
A0101402770000000440019ELVIRA VILLAVERDE GABRIEL                                0501
A0101405070000000447530JOCELYN M. VILLEGAS                                      0501
A0101406330000000451283LANTO, BELLO REYES                                       0504
A0101403320000000452311HYDROMEDICS                                              0502
A0101410140000000499390DELA CRUZ, JIMMY BONUS                                   0501
A0101406750000000500212CAPUZ, CLARO SANTOS                                      0501
A0101412760000000528205SARAH JAYNE A. SANCHEZ                                   0501
A0101406590000000568736LAO, ERIC MICHAEL GO                                     0501
A0101408400000000607783*******                                                  0501
A0101400570000000749639JEARIE MAR S. NAVAJAS                                    0501
A0101411660000000751193CLAUDIA M CALIXTO                                        0501
A0101412760000000767740CASTILLO, YOLLYVIE SELOSA                                0502
A0101401090000000772156JOHNNA ROSE S. ZERRUDO                                   0501
A0101408950000000776632DY, MILDRED ANNE MILITANTE                               0501
A0101410850000000778747***************                                          0501
A0101412630000000801432PALMA, RONALD PENALES                                    0502
A0101400150000000807027ABARINTOS, CESAR SOLIS                                   0501
A2401400180000000826211MAGTIBAY, ROSITA OLIGAN                                  0501
A0101413860000000858982SASAKI, VERONICA RANA                                    0501
A0101402930000000859612LIM, MARY ANN PILAPIL                                    0502
A0101402930000000859645FRIAS, LOUIE BONOTAN                                     0501
A2001400290000000924692BESARIO, SHEILA LYNN CATACUTAN                           0501
A2001400290000000924692BESARIO, SHEILA LYNN CATACUTAN                           0501
A0101404840000000943248ROMINA LOZANDE                                           0501
A0101406620000000962312CASSON, JENNIE LUANA                                     0501
A1301400210000000983804REUEL L DE LEON                                          0501
A1301400210000000983815FELICITAS S SUNGA                                        0503
A0101409050000000999528TRIA, JAYA PATRICIA MAREE DE GU                          0501
A0101413730000001029532DE LOS SANTOS, BENITO ONG                                0501
A0101408400000001035498JACOB, MICHELLE SARDEA                                   0503
A0101408240000001038595REVILLA, JEROME COCHANGCO                                0501
A1001400480000001054653ACLON, SUE ANN GORRE                                     0501
A2201400250000001066073JCP AND 3 SONS TRADING CO.                               0501
A2201400250000001066108LACANDULA, SYLVIA MACASAQUIT                             0501
A0101413310000001073552MIRO, FREDERICK JOHN DELA CERNA                          0501
A0101402480000001099685*********                                                0501
A3101400450000001104010RONGAVILLA, MARIA PRINCESS D.                            0501
A4101400260000001198712PASTORPIDE, YOLANDA SANTILLAN                            0501
A1301400760000001294822KM SUPERMARKET                                           0502
A4101400550000001332518DE LUNA, EMER VALLERAS                                   0501
A0101401380000001412480HERNANDEZ, KARA HIDALGO                                  0501
A0101401380000001412491TUANIO, TERESA ESGUERRA                                  0501
A0101400440000001439652RAMOS, QUEEN ANGELICA CESTINA                            0501
A0101400440000001439663MEDCON PHARMA                                            0501
A0101406750000001491670ANACAN, MARK ANTHONY ORDOYO                              0501
A0101402770000001548181MARIA LIGAYA MENDOZA RANDO                               0501
A0101402510000001554030ROQUE, JUDE ERICSON PEREA                                0501
A0101400860011089290001**********                                               0501
A0101400860011407777001**********                                               0505
A0101400860011495810001**********                                               0501
A0101400860011496074002**********                                               0501
A0101401700041386485001MA. SONIA DINO                                           0501
A0101400150061508836001ERIC LIM LEE OR CHRISTINE LEE                            0502
A0101400600071235573001**********                                               0501
A0101400600071426579001**************                                           0501
A0101400600071595525001DEVARA, ROSALIE MEJICA                                   0501
A0101400600071684249001******                                                   0503
A0601400360083751281001MALLARI, JAMES ROBERT SARMIENTO                          0503
A0101400730111347787002CHAVEZ, LYNN FLORENTINO                                  0501
A0101400730111386485175IVANHOE O. MARASIGAN                                     0502
A0101400440161039572004MARIFE M. BUNALADE                                       0502
A0101400440161039572079CRISANTA T. DELOS REYES                                  0501
A0101400440161238376001SOLEDAD A. LIM                                           0501
A0101400440161525001070MARIBEL S. SOLEDAD                                       0501
A0101401090171197581001AGRIPINA OR REMIGIO CORPUZ                               0502
A0101401090171330568001FELICIDAD G. PERENA                                      0501
A0101401380201478374011ELNA O. GALAROZA                                         0503
A0101401380201720392001SY, WYNNE-CHARLES GACAD                                  0501
A1001400190231087824001***********                                              0502
A1001400190231235649001DUGADUGA, METHOSALEM                                     0501
A1001400190231478374041DIMAKUTA, MARIVIC P.                                     0501
A1001400190231520766117TAROY, MARIONNE ANGELOU SALEM                            0502
A1301400470252478374027RICA D. SANTIAGO                                         0501
A0101406620273214432001RAYMOND PETER L. UNLAY                                   0505
A6601400120314737040001DURA, CARLITO OR DURA, RENY                              0502
A2001400290315764128001FLORES, MARILYN BOCATEJA                                 0501
A2001400290315793280001LLANES, ROILDA ERAMES                                    0501
A0101402480331024273001**********                                               0506
A0101402480331393187002**********                                               0501
A0101402480331520766071LIM, MERLY FEDERICO                                      0501
A0101402480331520766106*********                                                0501
A0101408820333563956001VARGAS, ARVIN LABIAO                                     0501
A0101402510341201428001RAMIREZ, TERESA DIONISIO                                 0501
A0101402510341733749002ALCALA, GINA CALA-OR                                     0505
A0101408370382206445001CHONA D. CAPILI                                          0502
A0101402770391355762050EDWIN R. LACSI                                           0501
A0101408400394165609001TAN, REX BARRAMEDA                                       0501
A0101408400394444684001**********                                               0502
A5501400120410676845001CARPE, ELAINE PRUDENTE                                   0501
A2401400180411410897002LAO, ZENAIDA QUINO                                       0502
A1201400150421793661001CARAMAT, NANCY MENESES                                   0501
A0101403320471478374074GENELINDA YENGYENGAN                                     0501
A0101406330472027958001A. ANOLIN ENTERPRISES                                    0502
A0101406330472784362001URSULA G. MILES                                          0501
A0101410140475090859001DELA CRUZ, MARY GRACE RAMOS                              0501
A0101406880513722770001PANGILINAN, SUNRISE SANTOS                               0501
A0101403450521238821001**********                                               0505
A0101403450521478374007********                                                 0501
A2201400250561587972001PAULITA CONSTANTINO ROMERO                               0501
A0101404130601027289106ESPERIDION, VILMOR                                       0501
A0101404130601451711001CATINGAN, HAZEL A.                                       0501
A0101404260611156772001ALINEA, LEONORA OR LENI A PIA                            0501
A0101409920650078985001REYES, ANGELINA BERSABE                                  0501
A0101404680651493660001RUTH D. RAMOS                                            0503
A4101400390813478374014ELIZABETH V. EVAL                                        0502
A4101400420814520766032KAMANTIGUE, ARLENE C.                                    0501
A4101400420814520766103BENITO, MARIO N.                                         0501
A0101404840851046725028GENERALES, RHODA ALTEZ                                   0502
A0101404840851428321001GUTIERREZ, OLIVER OR ROGELIO                             0501
A0101404840851478374190MARIE JEAN A. MOLDEZ                                     0501
A0101406750852478374061GUILLERMA FERRERAS                                       0501
A0101406750852478374098JOCELYN ARBOSO                                           0501
A0101405070861478374054LUZVIMINDA T. PONTANAR                                   0501
A0101405070861478374089FABIANTES, CHARITY CRES                                  0501
A0101405070861499418001OCAMPO, IRENE PENA                                       0501
A0101412760000000031916CORTEZ, MARIO DBU 19 HARDWARE &                         10501
A0101406590000000035509BORROMEO, MA. MAGDALENA L SISON                         10502
A1001400480000000041523PO, MARILOU TRAJANO OR PO,                              10501
A0101406330000000162616LAND OF THE PROMISE TRUCKING                            10502
A0101410980000000171931MICHELLE C. CO OR                                       10501
A2401400180000000427996TUPAS, MARVIN REY PALLARCO OR                           10505
A2601400270000000561682JANET A. GELACIO OR                                     10503
A0101411110000000604846ALAIN Z D. AMPONGAN DBU SIDERE                          10501
A4101400420000000710143GERONDA, RIZALDY DBU HRDG                               10502
A0101405070000000741224DOYDOY, JO ANN ABADECIO OR                              10501
A0101404420000000866439DE GUZMAN, ROBERTO M. OR                                10502
A0101409920000000998752PADILLA, AL DBU                                         10502
A1401400110000001096140TRINIDAD, JOSELITO DBU GRAND                            10501
A0101401380000001412479VILLANUEVA, RONAN D.                                    10502
A0101400730111040851153ELMER VILLACERAN OR                                     10501
A0101400730111370569001MANABAT, DANILO MORALES OR                              10501
A0101400440161591337001JENESSEY A. RANCES OR                                   10502
A0101401090171195768001CELIA DANGANAN-SAYO AND/OR                              10504
A0101406620273358539001MARIA TERESA L. JAHRLING OR                             10501
A0101406620273588625001VALDERAMA, ROBERT VALENCIA OR                           10501
A0101400570281188818002REXIE F. BARRERA OR                                     10501
A2001400290315733226002DAVID, FRANCISCO OR DANILO OR                           10502
A0101402480331220031002FEDERICO B. GARCIA OR                                   10501
A0101402930381384457001LORELLIE TAMPARONG OR                                   10501
A0101406330472536028001ARLES MIRANDILLA OR KRISTINE                            10501
A0101406330472635480001NUCUM, MA. CRISTINA DELA CRUZ                           10503
A2201400250561478374062JENNIFER M. MARTINEZ                                    10501
A0101411530654082396001HALILI, AMADEO OR                                       10501
A0101408240711616667001AGUILLON, JUVY MATA OR                                  10501
A0101412760000000031916ELECTRICAL SUPPL                                        20500
A0101406590000000035509OR BORROMEO, CARLOS M.                                  20500
A1001400480000000041523MAUREEN TRAJANO                                         20500
A0101406330000000162616SERVICES                                                20500
A0101410980000000171931CHESTER ALLAN T. CO                                     20500
A2401400180000000427996TUPAS, BEATRIZ P                                        20500
A2601400270000000561682BARTOLOME L. GELACIO                                    20500
A0101411110000000604846MANAGEMENT CONSULTANCY                                  20500
A4101400420000000710143TIRE RECAPPING SERVICE                                  20500
A0101405070000000741224DOYDOY, ALLAN LOGA                                      20500
A0101404420000000866439DE GUZMAN, RYAN G.                                      20500
A0101409920000000998752ABE PADILLA MACHINE SHOP                                20500
A1401400110000001096140CIRCLE AUTO SUPPLY                                      20500
A0101401380000001412479DBU FIL-ASIAN AIRWAYS                                   20500
A0101400730111040851153MARISOL VILLACERAN                                      20500
A0101400730111370569001ARLENE MANABAT                                          20500
A0101400440161591337001JESSIE O. RANCES                                        20500
A0101401090171195768001ERNESTO NICOLAS                                         20500
A0101406620273358539001ANGELO JAHRLING                                         20500
A0101406620273588625001VALDERAMA, MA. MINA M.                                  20500
A0101400570281188818002JOLINE D. BARRERA                                       20500
A2001400290315733226002LINABOG, ALLAN                                          20500
A0101402480331220031002EMELITA P GARCIA                                        20500
A0101402930381384457001SONNY FRANKIE TAMPARONG                                 20500
A0101406330472536028001MIRANDILLA                                              20500
A0101406330472635480001OR NUCUM, JAY T.                                        20500
A2201400250561478374062MEMBERS OF NATASHA                                      20500
A0101411530654082396001HALILI, CAROLINA                                        20500
A0101408240711616667001AGUILLON, LOUIE                                         20500
B1901400160000000007423SUPER GT MOTOR SALES AND SERVICES INC.                   1601
B0101413440000000038213ROMBE PHILIPPINES, INC.                                  1603
B0101401250000000057167**********                                               1601
B0101413730000000144749*********************                                    1601
B0101406330000000162729LADAKH INTERNATIONAL, INC.                               1601
B0101408660000000373120STRATHMORE MANAGEMENT INC.                               1602
B0101408660000000373131CHEEZCAKE COMPANY, INC.                                  1610
B0101403580000000383799GRANISH CORPORATION                                      1602
B0101411240000000629265WONEFLOWE CORPORATION                                    1601
B0101411110000001037096TECHNOVORE SYSTEMS INC.                                  1602
B0601400230000001062366BEARING CENTER & MACHINERY, INC.                         1601
B0101402480000001100074********                                                 1602
B0101400730000001216335LUNETA HOTELS AND RESORTS, INC.                          1610
B0101400860011018527001**********                                               1601
B0101400600071234158001**********                                               1605
B0101400600071787115001**********                                               1601
B0601400100081022507002FORTUNE FOOK YUEN TEA HOUSE, INC.                        1610
B0101401380201024290001KSP INTERTRADE CORPORATION                               1602
B1001400190231025664001WORK EXPERTS AND ALLIED SERVICES,IN                      1603
B1001400190231381174002EVANGELIO, JESSE TAJANLANGIT                             1603
B1001400350233512004001VILLALBA, CHARLIE L.                                     1601
B1301400470252047879001DON PHILIP MARKETING CORPORATION                         1601
B0101406620273045167001DCA AND PARTNERS, CPAS                                   1601
B0101411110276046578001KNS CHUA INC.                                            1603
B0101400570281007818001ACE-NBS MULTI PURPOSE COOPERATIVE                        1602
B1101400120313044876001J.H. PAJARA CONSTRUCTION CORPORATION                     1601
B0101402480331010348001**********                                               1610
B0101402480331021656001**********                                               1605
B0101402480331043435001UNIFIBER INDUSTRIES, INC.                                1602
B0101402480331300895002********                                                 1603
B0101402480331580623001*********                                                1601
B0201400920375036250188OCEAN TRANSPORT GROUP OF COMPANIES, INC.                 1605
B0101402930381008829002AXEIA DEVELOPMENT CORP.                                  1615
B0101402930381008843001BASIC HOUSING SOLUTIONS, INC.                            1605
B0101402930381015075001KEYSTONE SOLUTIONS, INC.                                 1601
B0101402930381040393001RESOURCE ONE CORPORATION                                 1601
B0101408400394028323001U-MYX TRADING-MARKET MARKET BRANCH                       1601
B2401400180411032357077SANTA CRUZ SEAFOODS, INC.                                1602
B2401400180411037264001CEVCEG MARKETING                                         1602
B0101403320471043308001DAMAYAN AT TIYAGA FOUNDATION, INC.                       1601
B0501400170481016901001CARRIED LUMBER COMPANY, INC.                             1605
B0101403580511036608001WELLTHY SOLUTIONS INC.                                   1605
B0101408240711038460001AYALA ALABANG HOSPICE CARE FOUNDATION                    1603
B4101400390813036410001THE BOAT SHOP CORPORATION                                1602
B0101405070861038512001**********                                               1601
B3101400450000000014115KABALIKAT PARA SA MAUNLAD NA BUHAY INC.                 11605
B0101412180000000075392BLTN JR. RESTAURANT MANAGEMENT                          11602
B1001400190000000124901AMPIT, MERILENE OR NILO OR RHEMA INDUSTR                11603
B0301400820000001185779DUGASAN, BENJAMIN E. OR DUGASAN, ERLINDA                11601
B0101401090171021639001UST HIGH SCHOOL PARENTS                                 11601
B0101408660274035623001PROPERTY COMPANY OF FRIENDS, INC.-                      11601
B0101402930381009079001THE AMERICAN EYE CORRECTION                             11610
B3101400450000000014115(KMBI)                                                  21600
B0101412180000000075392INCORPORATED                                            21600
B1001400190000000124901IAL SALES                                               21600
B0301400820000001185779D.                                                      21600
B0101401090171021639001ASSOCIATION, INC                                        21600
B0101408660274035623001FINANCING                                               21600
B0101402930381009079001CENTER INC.                                             21600
