A0101408400000000029490CAMID, NORHANIDA TOCALO                                  0502
A0301400530000000065898SOLID GROUND SECURITY AGENCY                             0503
A0301400530000000066044**********                                               0502
A2601400270000000084160EVELYN V. ALIVIA                                         0501
A0101409920000000118590CARDENAS, CAROL SALUNA                                   0501
A2801400100000000188301LACBAIN, JOEL GROESBECK                                  0501
A0101413570000000206259LEE CHEF'S SECRET ENTERPRISE                             0501
A0201400760000000222922PELUCHI ESSENTIALS SPA                                   0501
A0201400760000000223203MATUNOG, MARIA ROSARIO CODILLA                           0501
A0101408240000000347379GONZALEZ, GRACE ANN RIVERA                               0501
A0101405650000000348903ESPERANZA F. BAYLON                                      0501
A0101402770000000360552VILLANUEVA, MARY ANN RAMOS                               0501
A0101414090000000399413GONZALES, NOEMI PAJARILLO                                0501
A0101406330000000451290VILLA, JOHN DELAPENA                                     0501
A0101404420000000472246GARDOSE, JOSIE F.                                        0501
A0101411950000000490846BALOG, RACQUEL SEQUERRA                                  0501
A0101411950000000490857NICOLAS, ROWENA DANGANAN                                 0501
A0101410140000000499190MEMBERS OF NATASHA (SHOECAT INC                          0501
A0301400950000000566821**********                                               0501
A0101413570000000635621**********                                               0502
A1901400320000000679136MELANIE GUPIT HERNANDEZ                                  0502
A0101411660000000751251GONZALES, MARY ANGELENE BONIFAC                          0501
A0101410850000000778816***************                                          0501
A3401400280000000784572BRB2 CONSTRUCTION & SUPPLY, CO.                          0502
A3401400280000000784709BEREBER, JOVER GARCIA                                    0501
A0101401670000000843670OROZCO, LENIE ARAGON                                     0503
A0101413020000000880371DE GUZMAN, MA DONNA REMPIS                               0501
A0101401700000000979273**********                                               0501
A2601400270000001009090ARGEL P. ORDONO                                          0503
A2601400270000001009118JOSELITO G. VALENCIA                                     0501
A2601400270000001009129JASPER ALVIN A. GO                                       0501
A0301400530000001009830********                                                 0504
A0301400530000001009950RAZ, REX P. JT                                           0501
A0301400530000001009961IBOT, LETHLE P.                                          0501
A4101400260000001135022DIRAIN, ALBERTO BENDO                                    0501
A0101413860000001233801MABANING, SITTIE AISHA GUEVARRA                          0501
A2001400290000001301335POLANCOS, ALONA VENDIOLA                                 0501
A2001400290000001301346PIELLA, MARY JOY PARCON                                  0501
A2001400290000001301357BACANG, MA BERNADETTE DINOPOL                            0501
A0101404840000001312532CHICO, DIVINA DE GULA                                    0501
A0601400520000001349559PINEDA, JIM CARLO                                        0503
A0101405650000001377380SOLER, VIOLETA GAMUZA                                    0502
A0101400150000001422053VILORIA, NELSON SADANG                                   0502
A0601400100000001442860DIZON, AGOSTO GALANG                                     0502
A0101406750000001491863YAP, GLENDA ANDRADA                                      0501
A2201400250000001545397SAGUN, MARILOU NAVARRO                                   0501
A2201400250000001545557SALVADOR, CHERYL ANNE CODAMOS                            0501
A0101404130000001614422SANSALES, CARMELITA FREDELUCES                           0501
A0101404130000001614488ABELLA, SIXTO ANTONIO MARTINEZ                           0502
A0101404130000001614502TANO, JOEL LUTERO                                        0501
A4101400550000001622457BAUTISTA, MA DANICA ILANO                                0501
A4101400550000001622468PARCUTELA, LOLITA DE JESUS                               0501
A4101400550000001622479MOTUS, MA JAMILA RETITA                                  0501
A0101403320000001646653RAGSAC, RICHARD ADOLF PAYUAN                             0502
A2401400180000001676968GREG G. VERANO                                           0501
A0101413570000001682522EVITA R. SAYONG                                          0501
A0601400230000001687396MALLARI, NOEL SANTOS                                     0501
A3101400870000001712130******                                                   0502
A1701400230000001786638PASCUA, MINERVA SINANG                                   0501
A0101401250021183991001JUDITH M. TICZON                                         0501
A0101401250021498847001*****                                                    0502
A0101401250021704731001******                                                   0501
A0101400150061228273001KARLEEN ZITA P. CASINO                                   0501
A0101400150061231268003TAN, CORAZON J.                                          0501
A0101400600071233620001********                                                 0505
A0601400100081046868001**********                                               0502
A0601400100081478374009JOWELL MIRANDA                                           0502
A0101401960121238456001**********                                               0501
A0101400440161186930002LAURO M. AMANTE                                          0502
A0101401090171195421001CONRADO T. VALIX                                         0502
A0101401090171195860002JOVE JIM S. AGUAS                                        0502
A0101407140213505600001**********                                               0501
A0101407140213587892001**********                                               0502
A3101400160221220343001LAARNI A. CALAPATIA                                      0502
A0101401670271662674001OROZCO, ELIZABETH ARAGON                                 0503
A0501400200292532777001ROSE S. ESPINOZA                                         0502
A2601400270302591563001ROSITA R. CHE                                            0501
A1101400120313478374068BIGOY, DONABEL CABIDOG                                   0501
A3401400280318478374002PIONELO, LENIDIE DEVELOS                                 0501
A0101411660384659794001RICHARD P. USITA                                         0501
A0101402770391472751004JERVIE RACELIS DE GUZMAN                                 0503
A0101408400394708166001FERNANDEZ, DOLLY DISTOR                                  0501
A0101408950396398206001FRANCISCO VICENTE F. LOPEZ                               0502
A0101409180397747901001KALAW, ANGELO PAOLO TRINIDAD                             0501
A0101403030441319374002**********                                               0502
A0101403030441348353001**********                                               0501
A0101403030441368293002**********                                               0502
A0101406330472298552001EDWINA M. PADERNAL                                       0501
A0101406330472459699001NANCY G. HAMOR                                           0502
A0101406330472462179001ERLINDA C. SESE                                          0505
A1901400160491339841001MELINDA M ILAGAN                                         0502
A1401400110492029549002TRIPTORS DIAGNOSTIC CENTRE                               0502
A1401400110492047595001UY, GEORGE DBU GL UY BUILDERS &                          0505
A1401400110492493108001DEQUITO, BERNABE VILLANUEVA                              0501
A0101407430503366589002OBRERO JR., ALFREDO FAJARDO                              0503
A0101408530516777084001HIDALGO, CARMELITA ROSAL                                 0502
A0101403450521240618001**********                                               0501
A0101404130601323800001CATINGAN, HAZEL ALDEGUER     JT                          0501
A0101407720602384186003SARMIENTO, JOSIERINA YANEZA                              0502
A0101407720602396366001BRAVO, ARLENE RICARTE                                    0502
A0101407720602478558001JOSE, JENNIFER BERNARDO                                  0505
A0101404260611150840002WILLY OR ELIZABETH CHING                                 0501
A0101407690652039085001JUNBEL INDUSTRIAL SYSTEM CORP.                           0501
A1301400340683478374046ZORILLA, MARILOU MATIAS                                  0501
A2801400100712487899001NOCUM, LEANDRO CASTELO                                   0502
A4101400260812629092001ELLEN C. BUCAO                                           0502
A4101400420814357382003REMULLA, GILDA VASQUEZ                                   0502
A4101400420814478374191BALDOS, ROSALINA M.                                      0501
A4101400420814520766109MILAGROS E. BAWAG                                        0502
A1901400160000000007376RAQUEL ADORA MARTIN OR                                  10502
A0101401700000000040217DEL MUNDO, E DBU JPA AUTO PARTS                         10503
A0101413020000000056722CASTELL, CHRISTOPHER M. OR                              10501
A0101413570000000206373MARY ANN C. REYES OR BENEDICT                           10501
A0101405070000000260119DALISAY, NAZARENO SEGOVIA                               10501
A2601400270000000561562BONIFACIO T. UY OR                                      10503
A0101407690000000587862JAVIER, SAMUEL C OR JAVIER,                             10501
A0101405810000001021172PUA, C DBU MCK SCHOOL & OFFICE                          10503
A0101407140000001201910RICHARD JOSEPH JAYMALIN,J.D. OR                         10502
A0101413570000001682511JOHN ROSS DELA CRUZ OR KRISTINE                         10501
A0101401700041188748001WILLIAM C. TING TAN OR                                  10501
A0601400100081041818001MALIG, RONALDO PANGILINAN  DBU                          10501
A3101400160221221673001ALMIRA A. DIMACULANGAN OR                               10501
A0101401670271186319001OSCAR E. NIEVA OR                                       10501
A0101407430503631348001ROYCE C. GAW OR                                         10502
A0101405940512020272004EVENTS MANAGEMENT & TRAINING                            10502
A0101407690652298552010ANGELINA CANETE - DEALERS OF                            10502
A0101407690652478374014MA. CECILIA TERESA PALOMA -                             10501
A0101407690652478374123LEONORA CASTROVERDE - DEALERS                           10501
A0101407690652478374183OBONGEN, LEILANI - DEALERS OF                           10501
A0101407690652507990001DELA CRUZ, MA. LAUREN                                   10501
A0101406590662297269001MARTINEZ, ARMAN M. OR MARTINEZ,                         10501
A0101406590662470961001VALMOCINA, ESTRELLA C. OR                               10505
A1301400210682047656001DADSON ENTERPRISES PUMPS                                10503
A1901400160000000007376VICTOR DANGANAN                                         20500
A0101401700000000040217CENTER                                                  20500
A0101413020000000056722CASTELL, MARIA MAY M.                                   20500
A0101413570000000206373MARIANETTO A. RE                                        20500
A0101405070000000260119OR DALISAY, FLORDELIZA E                                20500
A2601400270000000561562CARL HEINRICH G. UY                                     20500
A0101407690000000587862SEVERINA S.                                             20500
A0101405810000001021172SUPPLIES                                                20500
A0101407140000001201910MARIE CRISTABEL JAYMALIN                                20500
A0101413570000001682511MARJORIE DELA CRUZ                                      20500
A0101401700041188748001HELEN O. TAN                                            20500
A0601400100081041818001EAGLENEST RENT A                                        20500
A3101400160221221673001RAMON M DIMACULANGAN                                    20500
A0101401670271186319001JOANNE LEE NIEVA                                        20500
A0101407430503631348001ZARABETH S. GAW                                         20500
A0101405940512020272004SERVICES                                                20500
A0101407690652298552010SHOECAT INC.                                            20500
A0101407690652478374014DEALERS OF SHOECAT INC.                                 20500
A0101407690652478374123OF SHOECAT INC.                                         20500
A0101407690652478374183SHOECAT, INC                                            20500
A0101407690652507990001FAMULARCANO                                             20500
A0101406590662297269001MARIA THERESE G.                                        20500
A0101406590662470961001GUTIERREZ, MARY ANNE                                    20500
A1301400210682047656001& WELL DRILLING                                         20500
B3401400280000000002353CHILDFUND INTERNATIONAL, USA DOING                       1601
B2801400230000000008346AESTHETICA ASIA MEDICAL SPA CORP.                        1604
B1301400470000000009561FUND LINK CREDIT & LOANS, INC.                           1601
B0101408820000000027392GOODMORNING INTERNATIONAL CORPORATION                    1603
B0101406590000000035561WINNVES CORPORATION                                      1603
B0101410980000000171975**********                                               1601
B0101411240000001026840SANTIAGO, LOLITA MALLARI                                 1603
B0101404840000001312252TOM'S WORLD PHILIPPINES CORPORATION                      1603
B0101400150061024063001HONDA CARS MAKATI, INC.                                  1601
B0301400530193038633008JHG TRADING, INC. - A                                    1610
B0101408820333042509001QUALITY CONTAINER CORPORATION                            1602
B0101409050352044362001COREWARE TECHNOLOGIES INCORPORATED                       1603
B0101406330472034852001CAGUINGUIN, DIWA & ASSOCIATES, CPA                       1603
B0101406330472040053001KUS OFFICE SYSTEM MFG. CORP.                             1603
B0101410140475046427001EQUAL LENDING INVESTOR CORPORATION                       1610
B0101407430503028318001LONGHORN TRANSPORT SERVICES INC.                         1605
B0101408530516005188001SEARCHERS & STAFFERS CORP.                               1610
B0101408530516524823001SL TEMPS INC.                                            1605
B0101404130601016662001PAYROLL SERVICE PROVIDERS, INC                           1603
B0101409890649047639001SCAFF SYSTEM MANUFACTURING, INC.                         1602
B0101407690652422144001MELENCIO MEDEL OR CORAZON MEDEL                          1603
B0101404840851042014007FUNHOUSES CORPORATION                                    1603
B0101406750852483155001DEEPER LIFE COMMUNITY CHURCH                             1601
B0101412180000000075392BLTN JR. RESTAURANT MANAGEMENT                          11602
B1001400480000000133582HI-TEK ELECTRO MECHANICAL SALES &                       11601
B0601400520000000398556AGMP ACCOUNTING AND MANAGEMENT SERVICES                 11602
B0101400150061011079001QUASHA ANCHETA PENA & NOLASCO                           11610
B5501400120410691157001FIGUEROA, RONELLYN OR FIGUEROA,                         11603
B0101406330472313424001MARIO OR TIFFANIE OR ERNESTO                            11603
B0101404130601042675001iPRUDENTIAL STEVEDORING AND PORT                        11605
B0101404130601042675002iPRUDENTIAL STEVEDORING AND PORT                        11605
B0101404130601100161005PRUDENTIAL CUSTOMS BROKERAGE SERVICE INC                11605
B0101412180000000075392INCORPORATED                                            21600
B1001400480000000133582SERVICES CORP.                                          21600
B0601400520000000398556COMPANY                                                 21600
B0101400150061011079001LAW OFFICE                                              21600
B5501400120410691157001BENJAMIN JR                                             21600
B0101406330472313424001GOBACO                                                  21600
B0101404130601042675001SERVICES INC                                            21600
B0101404130601042675002SERVICES INC                                            21600
B0101404130601100161005STEVEDORING DEPT                                        21600
