A0101409920000000022066DAVIS, JONALYN ARGUILLES                                 0502
A1901400290000000030684ARNOLD ADELIN EXTRA                                      0502
A0101402640000000042377EXCERPT ENTERPRISES                                      0502
A0201401020000000056197SANCHEZ, AMELIA C.                                       0502
A1601400170000000099029MYRA T. LAUSON                                           0501
A0101407720000000112089RAMOS, JENNIFER GALAPIN                                  0501
A0101406330000000162490TARP INK ENTERPRISES                                     0502
A0101406750000000172989VELEZ, PALMY REPRADO                                     0501
A0301400660000000194774*****                                                    0501
A0201400760000000222922PELUCHI ESSENTIALS SPA                                   0501
A0101410560000000268400MACAJELOS SR., GEORGE EPARWA                             0503
A4101400260000000377377DUNGOG, GLENN HERNANDEZ                                  0502
A0101404840000000475952GONZALES, ROWENA POLLICAR                                0501
A0101406880000000745000MENDOZA, MARIA THERESA VILLAREA                          0504
A0101400440000000821185CATACUTAN, PRESLYN SAGA                                  0502
A0301400820000001027930MARILOU C. ATANACIO                                      0501
A1601400170000001069001MICHELLE D. ARANDIA                                      0501
A1601400170000001069056CHRISTOPHER S. CO                                        0505
A0101408400000001231138CORTEZA, JOHANNA BELIZARIO                               0502
A0101406330000001235090MONTESSORI AT WORK PRE-SCHOOL                            0502
A0101406330000001235181SHERALYN B. ONTONG                                       0502
A0101406330000001235329BALUARTE TRUCKING                                        0501
A0101404680000001617421SALVADOR, ERLINDA SAGUIPED                               0501
A0101401090000001618691TENORIO, MARICEL ENSIGNE                                 0501
A0101403320000001646777MYRNA M. CRISOSTOMO                                      0501
A0101404680000001716605AGONCILLO, DBU AGONCILLO BOOK C                          0501
A0101403320000001803112TULAD, DAISY GALANG                                      0501
A0101400730000001822373AGUSTIN, JOSEPHINE DAYRIT                                0501
A0101410140000001939791SAJOL, ROSE ANN FABIAN                                   0501
A4101400550000002091010UNIFIL MANPOWER RESOURCES                                0501
A0101413600000002122218IRENEO O. ONZO                                           0502
A0101405490000002141042ALCOREZA, MA.SALOME SISCAR                               0503
A0101413600000002276371******                                                   0502
A3101400870000002328047DAM, DECEL FRANCISCO                                     0501
A3101400450000002330369ANG, ROMINA CALABIA                                      0502
A0101406460000002330730LINTAO, CATHERINE ERMENILDA VER                          0501
A0101400150000003162223SHERYLANE M. ABAPO                                       0501
A0101400150000003162234CLARENCE ANCENT N. ABION                                 0501
A0101400150000003162245RICHARD A. ACUNA                                         0501
A0101400150000003162256KRISTOFFER NELSON L. AGNOTE                              0501
A0101400150000003162267APRIL ROSE P. AGONCILLO                                  0501
A0101400150000003162278SHALUM B. AGUILA                                         0501
A0101400150000003162289AGOSTO V. AGUSTIN                                        0501
A0101400150000003162290MARLON A. AGUSTIN                                        0501
A0101400150000003162303JEMILY ANNE S. ALAPIDE                                   0501
A0101400150000003162314JENNIFFER ANNE A. ALCANTARA                              0501
A0101400150000003162336VENICE ARIANNE P. ALEGARVIZ                              0501
A0101400150000003162347HANNAH PATRICIA R. ALFARO                                0501
A0101400150000003162358BENEDICT C. ALIBASA                                      0501
A0101400150000003162369KATHERINE G. ALMARIO                                     0501
A0101400150000003162370OLIVER B. ALMAZAR                                        0501
A0101400150000003162381SYNDYK P. ALVARADO                                       0501
A0101400150000003162392CLAUDINE M. AMATA                                        0501
A0101400150000003162405VICENTE D. AMBUCAY                                       0501
A0101400150000003162416ANN TENETTE D. ANDAL                                     0501
A0101400150000003162427JEFFREY S. ANGELES                                       0501
A0101400150000003162438FERNANDO C. APOSTOL                                      0501
A0101400150000003162449DARRYL C. ARCENAS                                        0501
A0101400150000003162450SETH R. ARCILLA                                          0501
A0101400150000003162461APPLE D. ARCO                                            0501
A0101400150000003162472KATHRYN CHARMAINE R. ARQUIZA                             0501
A0101400150000003162483MARK ANTHONY L. ARRIOLA                                  0501
A0101400150000003162490DENNIS JONART T. ASUNCION                                0501
A0101400150000003162507ANA CARINA G. ATORDIDO                                   0501
A0101400150000003162518LEONARD MEL A. AVILA                                     0501
A0101400150000003162529LILIBETH D. AWAYAN                                       0501
A0101400150000003162530MARK EMERSON S. BACSAIN                                  0501
A0101400150000003162541ROSALYN M. BAGSIK                                        0501
A0101400150000003162563MARY LIA ANNE B. BALAGOT                                 0501
A0101400150000003162570MARK JASON F. BALBOA                                     0501
A0101400150000003162592CHRIS K. BALTAZAR                                        0501
A0101400150000003162609JARAH C. BANQUIRIG                                       0501
A0101400150000003162610DENISE JENNIFER D. BANZON                                0501
A0101400150000003162621WILSON RYAN JAY D. BARAL                                 0501
A0101400150000003162632JAMES ROY D. BARCELONA                                   0501
A0101400150000003162643NIKKI ANN E. BAUTISTA                                    0501
A0101400150000003162650VIDA GRACIA P. BAUTISTA                                  0501
A0101400150000003162661DOROTHY MAE O. BAYLE                                     0501
A0101400150000003162694ADELBERT A. BELEY                                        0501
A0101400150000003162701ROSELLER KENNETH R. BELTRAN                              0501
A0101400150000003162712ERWIN D. BENEDICTO                                       0501
A0101400150000003162723CHARITO S. BENLOTA                                       0501
A0101400150000003162730RICHELLE B. BERGONIA                                     0501
A0101400150000003162741LIEZEL GRACE A. BERNALDEZ                                0501
A0101400150000003162752MARVIN V. BERNARDEZ                                      0501
A0101400150000003162763DENNIS MARTIN B. BONDOC                                  0501
A0101400150000003162785LORD VINCENT B. BORDADOR                                 0501
A0101400150000003162796ANTHONY A. BORLADO                                       0501
A0101400150000003162803MARIA RELA J. BRASILENO                                  0501
A0101400150000003162810MARIA SALOME S. BUAN                                     0501
A0101400150000003162832ROYCE CHRISTIAN M. BUENCAMINO                            0501
A0101400150000003162843JOHN MARK A. BUTAC                                       0501
A0101400150000003162854ARVIN ZON R. CABADIN                                     0501
A0101400150000003162865MICHAEL R. CABALLERO                                     0501
A0101400150000003162876ANA LORRAINE D. CABIGAO                                  0501
A0101400150000003162887KARINA MARIE V. CACHO                                    0501
A0101400150000003162898DAISY L. CALLANTA                                        0501
A0101400150000003162901VICTOR JOSE A. CALMA                                     0501
A0101400150000003162912FERNANDO D. CAMACHO                                      0501
A0101400150000003162923BERNADETTE C. CAMARILLO                                  0501
A0101400150000003162934MARILYN M. CAMBA                                         0501
A0101400150000003162945ANGELO D. CAMERINO                                       0501
A0101400150000003162967PIA ESPERANZA M. CANDASA                                 0501
A0101400150000003162978JOSE CARLO A. CAPELLAN                                   0501
A0101400150000003162989ALEXIS B. CARABBACAN                                     0501
A0101400150000003162990LIEZEL BON N. CARTERA                                    0501
A0101400150000003163000KHRISTY CORINE M. CASTILLO                               0501
A0101400150000003163011MA. LOURDES E. CASTILLO                                  0501
A0101400150000003163022REGIN D. CASTILLO                                        0501
A0101400150000003163033REY ANTHONY B. CASTRO                                    0501
A0101400150000003163044STEWART M. CHENG                                         0501
A0101400150000003163055GISELLE MARIE B. CHRYSOKHOU                              0501
A0101400150000003163066RANDOLPH RYAN D. CIPRIANO                                0501
A0101400150000003163077MARYLAND BETHESDA D. CLEMENTE                            0501
A0101400150000003163880OLIVER Z. CO                                             0501
A0101400150000003163891RAMON CARLO M. CONTY III                                 0501
A0101400150000003163904MANILETTE R. CORPUZ                                      0501
A0101400150000003163915ANA KRISTINA F. CRISPO                                   0501
A0101400150000003163926JOYCE ANN T. CRUZ                                        0501
A0101400150000003163937DIANA A. CRUZ                                            0501
A0101400150000003163948CHRISTEN FAITH C. CRUZ                                   0501
A0101400150000003163971BERNIE C. CURACHO                                        0501
A0101400150000003163982MARIE ANNE D. CUTAB                                      0501
A0101400150000003163993ATHENA D. DAYAO                                          0501
A0101400150000003164003KRISTALYN F. DE GUZMAN                                   0501
A0101400150000003164014MAICYL B. DE GUZMAN                                      0501
A0101400150000003164036RONALD T. DE JESUS                                       0501
A0101400150000003164047JERRY P. DE LA ROSA                                      0501
A0101400150000003164058FATIMA S. DE MESA                                        0501
A0101400150000003164069JENIS G. DE VELA                                         0501
A0101400150000003164070FERNANDO F. DE VILLA III                                 0501
A0101400150000003164081DAVIS C. DEE                                             0501
A0101400150000003164092LORY ANN T. DEL MONTE                                    0501
A0101400150000003164116CANDICE AMOR M. DELA CRUZ                                0501
A0101400150000003164127ELVIE P. DELA CRUZ                                       0501
A0101400150000003164138DIANA D. DELA GRACIA                                     0501
A0101400150000003164149MA. ROXANNE Y. DELA ROSA                                 0501
A0101400150000003164150MA. RUDEZA R. DERDER                                     0501
A0101400150000003164161CHARISSE ANGELICA P. DEVEZA                              0501
A0101400150000003164172ALVIN T. DIZER                                           0501
A0101400150000003164183MARIE PAZ B. DIZON                                       0501
A0101400150000003164190PAMELA THEA B. DIZON                                     0501
A0101400150000003164207DIANA C. DOLEN                                           0501
A0101400150000003164229VICTOR E. DOMINCIL                                       0501
A0101400150000003164230EDMUND R. DOMINGO                                        0501
A0101400150000003164241JERALD P. DONCILLO                                       0501
A0101400150000003164252ANTONIO C. DOROTHEO                                      0501
A0101400150000003164263MA. RODALIE P. DRONA                                     0501
A0101400150000003164270DEXTER R. DUMARAOS                                       0501
A0101400150000003164281MA. KAREN M. EBONIA                                      0501
A0101400150000003164292LEE MAE ROSE L. EGIDO                                    0501
A0101400150000003164309CHRISTIAN C. ELOMINA                                     0501
A0101400150000003164310BRENDA LEE R. ELUMBRA                                    0501
A0101400150000003164321AMPARO LIZA C. ESCOLAR                                   0501
A0101400150000003164332RIGO REX D. ESCUDERO                                     0501
A0101400150000003164343MARGARITA ISABEL B. ESCUETA                              0501
A0101400150000003164350TEODORO E. ESTRADA III                                   0501
A0101400150000003164361JEFFREY L. FABELLA                                       0501
A0101400150000003164372ROWENA T. FAJARDO                                        0501
A0101400150000003164383DULCE AMOR A. FERNANDEZ                                  0501
A0101400150000003164394JOHN PAUL B. FERRARIS                                    0501
A0101400150000003164401SHERWIN A. FERRER                                        0501
A0101400150000003164412EMMANUEL M. FLORES                                       0501
A0101400150000003164423ROMMEL P. FLORES                                         0501
A0101400150000003164430RIEKO O. FRANCO                                          0501
A0101400150000003164441RHYAN C. GALLEGO                                         0501
A0101400150000003164452JEREMIAH E. GALURA                                       0501
A0101400150000003164463FRANCIS BENEDICT B. GAMBOA                               0501
A0101400150000003164474ROY ARGEL P. GAMIT                                       0501
A0101400150000003164485MICHAEL D. GARCIA                                        0501
A0101400150000003164496EDMAR K. GARSULA                                         0501
A0101400150000003164503BRIAN MARK ANTHONY B. GASPAR                             0501
A0101400150000003164510KATHERINE ANNE M. GATMAITAN                              0501
A0101400150000003164521CONSTANTINO FRANCO M. GOLAMCO                            0501
A0101400150000003164532BONIBECK R. GONZALEZ                                     0501
A0101400150000003164543MA. MARLON PAOLO R. GONZALEZ                             0501
A0101400150000003164554GRACE B. GRACILLA                                        0501
A0101400150000003164565RYAN C. GUARINO                                          0501
A0101400150000003164576ENRICO C. GUERZON                                        0501
A0101400150000003164587MARION D. GUEVARA                                        0501
A0101400150000003164598FREDERICK GERARD C. GUILAS                               0501
A0101400150000003164601MARIA CRISTINA G. GUINOO                                 0501
A0101400150000003164612NEMMA G. HABERLE                                         0501
A0101400150000003164623ISMAIL B. HAWARI                                         0501
A0101400150000003164634KATRINA PAULA T. HERRERA                                 0501
A0101400150000003164645CATHERINE ANNE T. HILARIO                                0501
A0101400150000003164656ALVIN S. HIZOLA                                          0501
A0101400150000003164667JOANNA A. IBASCO                                         0501
A0101400150000003164678JENNY GWEN J. IGNACIO                                    0501
A0101400150000003164689ANA CAROLINA C. IGNACIO                                  0501
A0101400150000003164703GLENN E. IGNACIO                                         0501
A0101400150000003164714RENE ROLDAN G. IGTIBEN                                   0501
A0101400150000003164725CATHERINE KATE G. JACINTO                                0501
A0101400150000003164736SIEGFREID ALAIN F. JAEL                                  0501
A0101400150000003164747JOHN DAVE S. JAVIER                                      0501
A0101400150000003164758MARIA BIANCA C. JAVIER                                   0501
A0101400150000003164770RJ PAOLO T. JIMENEZ                                      0501
A0101400150000003164781MARK ANTHONY S. JINON                                    0501
A0101400150000003164792POONAM G. KALER                                          0501
A0101400150000003164805JENNY ISABEL S. LABIANO                                  0501
A0101400150000003164816LAKHI B. LALA                                            0501
A0101400150000003164827ERWIN L. LASTIMOSO                                       0501
A0101400150000003164838RHIA S. LAUREA                                           0501
A0101400150000003164849MARY ANGELINE V. LEE                                     0501
A0101400150000003164850TANYA ALEXANDRA G. LEONOR                                0501
A0101400150000003164861LEMUEL S. LIBREA                                         0501
A0101400150000003164872SHIELA MARIE C. LICLICAN                                 0501
A0101400150000003164883MICHAEL EDWARD B. LIM                                    0501
A0101400150000003164890KATHERINE R. LIM                                         0501
A0101400150000003164907MARICHRIS A. LIM                                         0501
A0101400150000003164918ELAINE GRACE B. LIMOANCO                                 0501
A0101400150000003164929ALVIN S. LIMSON                                          0501
A0101400150000003164930SARAH JANE O. LIPNICA                                    0501
A0101400150000003164941JESUS F. LLANTO                                          0501
A0101400150000003165131Christian Lykhur D. Llanza                               0501
A0101400150000003165142Marica L. Llenado                                        0501
A0101400150000003165153Flerida S. Lo                                            0501
A0101400150000003165160Agnes L. Luna                                            0501
A0101400150000003165171Ernesto Paul F. Madamba Jr.                              0501
A0101400150000003165182Anna Maria Ramona M. Maderal                             0501
A0101400150000003165193Paul Anthony L. Magat                                    0501
A0101400150000003165200Maria Cecilia C. Maglonso                                0501
A0101400150000003165211Michaela N. Magtoto                                      0501
A0101400150000003165222Henry S. Malabanan                                       0501
A0101400150000003165233Christian Rey E. Malacat                                 0501
A0101400150000003165251Tennie R. Maligalig                                      0501
A0101400150000003197517Allan Paulo E. Malinana                                  0501
A0101400150000003197528Angela S. Manago                                         0501
A0101400150000003197539Jericho S. Manalang                                      0501
A0101400150000003197540Aimee V. Manansala                                       0501
A0101400150000003197551Aurora E. Mangalonzo                                     0501
A0101400150000003197562Vanessa M. Maningas                                      0501
A0101400150000003197573Miguel Emilio B. Marabut                                 0501
A0101400150000003197580Sherwin G. Marasigan                                     0501
A0101400150000003197591Hannibal George A. Marchan                               0501
A0101400150000003197608Raissa R. Mariano                                        0501
A0101400150000003197619Mitchelle Edwin R. Marquez                               0501
A0101400150000003197620Marie Carolyn D. Martinez                                0501
A0101400150000003197631Ernesto C. Matanguihan Jr.                               0501
A0101400150000003197642Abegail T. Matibag                                       0501
A0101400150000003197653Ramon Vicente C. Mayoralgo                               0501
A0101400150000003197660Melinda G. Mejia                                         0501
A0101400150000003197671Maria Yvette G. Mejia                                    0501
A0101400150000003197682Emmanuel L. Mendoza                                      0501
A0101400150000003197693Cristabelle M. Mendoza                                   0501
A0101400150000003197711Ann May C. Mercado                                       0501
A0101400150000003197722Ann Lorraine M. Mercado                                  0501
A0101400150000003197733Angelo Marco T. Mico                                     0501
A0101400150000003197740Donne Mitchelle S. Millar                                0501
A0101400150000003197751Charles C. Montano                                       0501
A0101400150000003197762Ruth Y. Monte De Ramos                                   0501
A0101400150000003197773Ron Jayson V. Morales                                    0501
A0101400150000003197784Jessica Jane B. Morales                                  0501
A0101400150000003197795Perlita V. Morasa                                        0501
A0101400150000003197802Michelle T. Mucas                                        0501
A0101400150000003197820Joi Kristen M. Napoles                                   0501
A0101400150000003197831Jose Ramon C. Navarro                                    0501
A0101400150000003197842Terence John A. Nonato                                   0501
A0101400150000003197853Alnni-Rose G. Obenza                                     0501
A0101400150000003197864Melvin C. Olfindo                                        0501
A0101400150000003197875Dennis Michael D. Orellana                               0501
A0101400150000003197886Emelito R. Orolfo                                        0501
A0101400150000003197897Joyce Catherine C. Ortega                                0501
A0101400150000003197900Carol M. Osorio                                          0501
A0101400150000003197911Karen Anne G. Pablo                                      0501
A0101400150000003197922Ronnualdo R. Padilla II                                  0501
A0101400150000003197933Charo B. Padilla                                         0501
A0101400150000003197944Edward T. Pagsuguiron                                    0501
A0101400150000003197955Prima Donna G. Palafox                                   0501
A0101400150000003197966Karen E. Palmiano                                        0501
A0101400150000003197977Karla M. Pamplona                                        0501
A0101400150000003197988Aron Christopher G. Panaligan                            0501
A0101400150000003197999James Angelo D. Panerio                                  0501
A0101400150000003198003Charminia C. Pangan                                      0501
A0101400150000003198010Nuelina L. Pang-Ot                                       0501
A0101400150000003198021Leovigildo A. Pelayo Jr.                                 0501
A0101400150000003198032James Reido M. Perico                                    0501
A0101400150000003198043Noren A. Perola                                          0501
A0101400150000003198054Kenneth Roger T. Policarpio                              0501
A0101400150000003198065Kristina Marie R. Porillo                                0501
A0101400150000003198076Melfranco N. Quevedo                                     0501
A0101400150000003198087Abigail Laurele D. Quintos                               0501
A0101400150000003198098Luther Paul A. Quitay                                    0501
A0101400150000003198101Brizette D. Rabaya                                       0501
A0101400150000003198112Jay Roderick O. Rabin                                    0501
A0101400150000003198123Ace L. Ramin                                             0501
A0101400150000003198134Hare Krisna M. Ramirez                                   0501
A0101400150000003198145Phoebe Ann S. Ramos                                      0501
A0101400150000003198156Jeffrey R. Ramos                                         0501
A0101400150000003198167Nemrose B. Ramos                                         0501
A0101400150000003198178Zara Mae A. Ramos                                        0501
A0101400150000003198189Teth J. Rayos Del Sol                                    0501
A0101400150000003198190Marigold M. Rejuso                                       0501
A0101400150000003198203Jo Anne P. Relucio                                       0501
A0101400150000003198214Juan Marco C. Reyes                                      0501
A0101400150000003198225Virgilio B. Reyes                                        0501
A0101400150000003198236Ryan Y. Reyes                                            0501
A0101400150000003198247Criselda Anne F. Rillo                                   0501
A0101400150000003198258Raquel D. Romasanta                                      0501
A0101400150000003198269Richard R. Ronimo Jr.                                    0501
A0101400150000003198270Paul Andrew D. Rosales                                   0501
A0101400150000003217978MARIA DENISE G. RUBIO                                    0501
A0101400150000003217989RAYMOND B. RUFINO                                        0501
A0101400150000003217990RICO MARIA C. SABINO                                     0501
A0101400150000003218000SHIELA R. SACARE                                         0501
A0101400150000003218011ANNA KARENINA P. SALDAJENO                               0501
A0101400150000003218022TRISTAN R. SALGADO                                       0501
A0101400150000003218033MIRIAM C. SALVA                                          0501
A0101400150000003218044MA. CRISTINA D. SAMIA                                    0501
A0101400150000003218055CHARLES KRISTIAN B. SAMSON                               0501
A0101400150000003218066MARTELLA MINETTE F. SAN JUAN                             0501
A0101400150000003218077NEIL ANTHONY B. SANCHEZ                                  0501
A0101400150000003218088CLAIRE ANN P. SANSOLIS                                   0501
A0101400150000003218099PAUL O. SANTIAGO                                         0501
A0101400150000003218102BONA RESSA C. SANTIAGO                                   0501
A0101400150000003218113MARI JINKY ISOBEL M. SANTOS                              0501
A0101400150000003218124MEDWELLYN-VER A. SANTOS                                  0501
A0101400150000003218135JIMMY B. SARSOZA                                         0501
A0101400150000003218146CHERRIZA P. SERRANO                                      0501
A0101400150000003218157ARVEE LORRAINE O. SESE                                   0501
A0101400150000003218168RICARDO JR. D. SIMBOL                                    0501
A0101400150000003218179ERWIN S. SISON                                           0501
A0101400150000003218180ARIEL C. SOLANO                                          0501
A0101400150000003218191IRIS LYNN A. SOLON                                       0501
A0101400150000003218204ABIGAIL R. SONGCO                                        0501
A0101400150000003218215ALMOND JOY M. SORIA                                      0501
A0101400150000003218226PIA VANESSA V. SORIANO                                   0501
A0101400150000003218237DELIGHT C. SORIANO                                       0501
A0101400150000003218248MARK JASON N. SOSA                                       0501
A0101400150000003218259MARIANETTE C. SUYAT                                      0501
A0101400150000003218260KAI ILYYANA F. SY                                        0501
A0101400150000003218271DADEL E. TADIFA                                          0501
A0101400150000003218282BETSY A. TAGURAN                                         0501
A0101400150000003218293ROSEMARIE A. TAN                                         0501
A0101400150000003218306ADAM PAUL G. TAN                                         0501
A0101400150000003218317ANGEL RIZZA D. TAN                                       0501
A0101400150000003218328ALLAN ADRIAN M. TANALIGA                                 0501
A0101400150000003218339MARY THERESE G. TANSECO                                  0501
A0101400150000003218340EDWARD E. TAVU                                           0501
A0101400150000003218351MAILYNN C. TEJADA                                        0501
A0101400150000003218362CRISTOPHER C. TERRADO                                    0501
A0101400150000003218373GRISELDA B. TESORO                                       0501
A0101400150000003218380JOHN GLENN U. TIBANG                                     0501
A0101400150000003218391MA. THERESA E. TIMOLA                                    0501
A0101400150000003218408JAN BRANE ABRAHAM T. TIZON                               0501
A0101400150000003218419MELVIN E. TOLENTINO                                      0501
A0101400150000003218420JOANNE G. TOPACIO                                        0501
A0101400150000003218431MARY GRACE G. TORRES                                     0501
A0101400150000003218442TERESA CARLA R. TORT                                     0501
A0101400150000003218453TRISTAN PAUL H. TRINIDAD                                 0501
A0101400150000003218460JENNIFER B. TRINIDAD                                     0501
A0101400150000003218471BERNADETTE N. TUAZON                                     0501
A0101400150000003218482MARITES C. TUDDAO                                        0501
A0101400150000003218493MARI-GHALE D. ULANDAY                                    0501
A0101400150000003218500DARREL M. UNABIA                                         0501
A0101400150000003218511SALLAHUDIN F. USMAN                                      0501
A0101400150000003218522MARIA TERESITA A. VALDEZ                                 0501
A0101400150000003218533IAN C. VALENZON                                          0501
A0101400150000003218540MARIA ELENA E. VELASQUEZ                                 0501
A0101400150000003218551ANNALYN JOY A. VERGARA                                   0501
A0101400150000003218562ACE H. VICTORIA                                          0501
A0101400150000003218573RAQUEL JOY T. VICTORIA                                   0501
A0101400150000003218584ANNA MARIE L. VILLANUEVA                                 0501
A0101400150000003218595CELICA JANE D. VILLAREAL                                 0501
A0101400150000003218602DOMITHI EULALIA M. VILLAS                                0501
A0101400150000003218613MARIA CRISTINA L. VIRAY                                  0501
A0101400150000003218620ANDREW P. YABUT                                          0501
A0101400150000003218631VANESSA D. YANGKE                                        0501
A0101400150000003218642ANTON DANIEL V. YAP                                      0501
A0101400150000003218653MICHELLE D. YAP                                          0501
A0101400150000003218664KATHLEEN JOIE T. YU                                      0501
A0101401700041036012001MORNING GLORY AUTO SUPPLY                                0510
A0101400440161039572023JIMMY S. PALISOC                                         0501
A0101400440161520766062ENGELINE N. MACAILING                                    0501
A0101400440161520766153VIRGILIA C. SIEGA                                        0501
A0101400440161520766184MA. RENITTE D. ROMA                                      0501
A0101400440161525001096ZENAIDA F. ISLETA                                        0501
A0101400440161525001117CATHY B. DELA PAZ                                        0501
A0101401090171195155001MA. AUXILIADORA R. REBURIANO                             0501
A0101401090171439619001JOCYLINE L. ALMEDA                                       0501
A0101407140213190585001**********                                               0501
A3101400450223455809001LANCION, AUREA OR JERIC                                  0502
A1001400190231520766042GEOTORO, INES MANGUILIMOTAN                              0501
A1001400190231520766121GALENDEZ, CILA PACUMA                                    0501
A1001400350233599284001ELEAZAR, NANCY CONCEMINO                                 0502
A0101401670271403156001MIRANDA, CARMENCITA DIZON                                0501
A0101408820333478374064GINA T. LUIS                                             0501
A0101402510341601152001SORIANO, ROSARIO PLACIDO                                 0510
A0101409050352676748001MICHAEL G. AGUILAR                                       0503
A0101402640361478374074MARIANO, LOLITA MIRANDA                                  0501
A0201400760374475574001KOIKE, MASAO                                             0503
A0201400760374478374004MELINDA P. ABEAR                                         0501
A0101402770391211961001ANTONIO V. PRADO                                         0501
A0101402770391478374032ELPEDIA C. ABRASALDO                                     0502
A0101405490392595522001DELA CRUZ, JEFFREY CORPUZ                                0501
A0101408950396387468001ABELLA, ANDREI CESAR SANARES                             0501
A5501400120410714634001ELISAN, ELVIE JUNTILA                                    0501
A5501400120410719328001ILAO, YOLANDA CASTILLO                                   0501
A2401400180411023998002ENE MARKETING                                            0502
A2401400180411625087001QUILLOPO, ANABELLE BREZO                                 0501
A0101403030441239075002**********                                               0503
A0101403320471442242001FAVIS, MA. LETICIA MASCARDO                              0501
A0501400170481255325008ARZADON, VOLTAIRE PORSOVIGAN                             0501
A0101403580511031783001ROYAL BARGE TRAVEL AND TOURS                             0510
A0101406880513433846003PAMA JR., ARTEMIO PATINO                                 0501
A2201400250561258530006MARIA LOURDES GOMEZ                                      0501
A0101407720602163482001RAYNATO R. KASILAG                                       0504
A0101404260611335308002ALIMBOYONG, JOSEPHINE MAHINAY                            0503
A0101404260611337876002CHING, ROSA MATIAS                                       0503
A0101404260611478374097MILA B. RIELO                                            0501
A0101404680651458151001DR. RIZALITO C. OCAMPO                                   0503
A0101404680651475422001MA. LOUELLA M. PADUA                                     0504
A0101404680651478374157EVANGELINE G. GARDOCE                                    0502
A0101404680651516424002TAYAMORA, LORENA TAPAR                                   0501
A0101404680651518927001EVANGELINE K. TUMIBAY                                    0501
A0101404680651520766038EVANGELINE F. RICARE                                     0503
A0101404680651525001023JULIET C. OBLIGAR                                        0501
A0101404680651634098001BACASTIQUE, LILYBETH TUMALIUAN                           0501
A0101404680651729218001CABANELA, EDGAR DE VERA                                  0502
A0101406590662208118001CYNTHIA OR CHERYL MYLA ARCINUE                           0501
A0101406590662562414001RUSTE, RUTH ALLEN ANTONIO                                0502
A1301400210682555728001MARINA M. ROQUE                                          0506
A1301400340683478374025REYES, SHIELLA                                           0501
A1301400340683478374030JENELYN M. VIOLANDA                                      0501
A0101408240711530089001JEON, WOONG RYE                                          0501
A0101408240711643338001ARCAYA, MICHELLE GRASPARIL                               0501
A2801400100712701754001DALIT, MADONNA VERSOZA                                   0501
A4101400260812035893001SGI TRADING                                              0504
A4101400550815478374001ONAYAN, CAROLINA BAUTISTA                                0501
A0101404840851421456001MARCELO, MERIAM ACAIN                                    0504
A0601400230891254779001MEDIADORA OR JIMMY ANTHONY                               0501
A1001400480000000041523PO, MARILOU TRAJANO OR PO,                              10502
A0101406330000000162467CARLOS, EDUARDO S. OR                                   10501
A0101406460000000712725PALANCA JR., BERNARD GERARD                             10501
A0101411530000000741640ESTRELLITA VENERACION OR VICTOR                         10502
A0301400820000001027809CERVANTES, ROY C. OR CERVANTES,                         10501
A0101410560000001290853CARRERAS, JOY STEPHANIE S. OR                           10502
A0601400520000001706918NAGUIT JR., JOSEFINO F. OR                              10505
A0101412890000001765773MANZANILLA, ROMMEL DBU NORMEL                           10501
A0101408240000002821792RAMIREZ, MARK ALAIN IBASCO OR                           10502
A0101400150000003197700Ma. Erickarose Vanessa L.                               10501
A0101400150000003197813Alistaire Glicerio L. Nacion                            10501
A0101406040112206284001DEMIE S. BULALAS                                        10503
A3101400450223206930002NAPOLEON ENRIQUEZ II OR                                 10501
A1001400350233506665002EMMANUEL C. LIMBO OR HELEN M.                           10505
A1301400470252497499001DON G. BERNABE OR REINA                                 10501
A1901400290261040973001ICT-ED INSTITUTE OF SCIENCE                             10503
A1901400290261246491002FELIPE LINDOG MANGUIAT OR                               10502
A1901400290261293874001LIEZL DINGLASAN LLAVE OR                                10503
A1901400290261500749001GERVASIO IGLE GARING OR                                 10502
A1901400290261585775001LITA CUETO MENDOZA OR DORIS                             10503
A6601400120314622237001ADRIATICO, DON BASILIO C.                               10502
A0101411530654082396001HALILI, AMADEO OR                                       10501
A0101408240711408868001ARTURO D. TANO OR ANA MAY WONG                          10502
A0101404840851791747001BALMES, GERVACIO OR SARADAT,                            10501
A1001400480000000041523MAUREEN TRAJANO                                         20500
A0101406330000000162467CARLOS, CECILIA A.                                      20500
A0101406460000000712725AND EJERCITO, MA. JERIKA                                20500
A0101411530000000741640EMMANUEL VENERACION                                     20500
A0301400820000001027809FLORA MAY C.                                            20500
A0101410560000001290853BORNILLA, LORELYN GRACE L                               20500
A0601400520000001706918NAGUIT, MHELODIE O.                                     20500
A0101412890000001765773GARMENTS                                                20500
A0101408240000002821792RAMIREZ, MIRA BLANCA                                    20500
A0101400150000003197700Meneses                                                 20500
A0101400150000003197813III                                                     20500
A0101406040112206284001OR CRISTINA A. BULALAS                                  20500
A3101400450223206930002FLOR ENRIQUEZ                                           20500
A1001400350233506665002LIMBO                                                   20500
A1301400470252497499001CONCEPCION M. BERNABE                                   20500
A1901400290261040973001AND TECHNOLOGY, INC.                                    20500
A1901400290261246491002ARSENIA PASAJOL MANGUIAT                                20500
A1901400290261293874001RONNIE CUBERO LLAVE                                     20500
A1901400290261500749001JULIETA LACORTE GARING                                  20500
A1901400290261585775001MARIE MENDOZA MEDINA                                    20500
A6601400120314622237001OR MELIKA O.                                            20500
A0101411530654082396001HALILI, CAROLINA                                        20500
A0101408240711408868001LEE                                                     20500
A0101404840851791747001MONICA OR GALLAG                                        20500
B01014046800000000135508LUDEREY FOOD SERVICE INC.                               1604
B0301400660000000022868KEIZENNG TRUCKING CORP.                                  1602
B0101412050000000043438RUSTEZE INC.                                             1601
B0301400660000000048235DAVAO MULTIBUILD CORPORATION                             1605
B0101413730000000144749*********************                                    1601
B0301400660000000195317PHILIPPINE RADIANT PRODUCTS, INC.                        1601
B0101406330000000432795GSD SECURITY AGENCY, INC.                                1602
B0101400150000000633516VALENZUELA CITICARE MEDICAL CENTER                       1608
B4101400550000000900081REEBARS CONSTRUCTION CORP.                               1601
B4101400260000001198916FIRST SOLID BUILDERS, INC.                               1610
B1901400290000001363111TEODORO-LANDICHO INCORPORATED                            1601
B0601400360083505804002BGC PHILBUILDER INC.                                     1604
B0101407270162019525001CASTFOOD CORPORATION                                     1602
B0301400660194454300088*****                                                    1606
B1001400190231276633001SIA, TOMAS &/OR ANNIE &/OR GINA                          1605
B0101406620273009530001MCRP CONSTRUCTION CORPORATION                            1603
B0701400260495037805002PRINCETON ENTERPRISES                                    1602
B0101403580511015363079MEC - BPO 3 & 4                                          1603
B0101403450521011605003********                                                 1601
B0101403450521019328001**********                                               1602
B0101403450521038124001**********                                               1602
B0101403450521078888003PUREGOLD PRICE CLUB, INC.                                1620
B0101408240711042252001MARINELINK TANKERS CORPORATION                           1610
B2801400100712776450001HAMZA RIAZ INTERNATIONAL TRADING CO                      1601
B0101401700041536830001TAN, ROBERT JOHNSON RAGOS OR                            11610
B0101401700041536830001TAN, GUE LAO                                            21600
B0101402480331821100608**********                                               2010
B0101407720602821100608**********                                               2005
B0601400490890821100608**********                                               2001
