 0101406330472478374044                                                           00
A0101409890000000004582CRUZ, GINA                                               0501
A1901400290000000030800JMARK MICROCREDIT CORPORATION                            0503
A0101411950000000036217LAZARO, RAYMOND FAUSTINO                                 0501
A0701400260000000041027ESCALONA, LYNDY ROSE YU                                  0501
A0101412340000000044799ANDRADE, MARIA LOURDES GONZALES                          0503
A0101409890000000049045**********                                               0501
A0101410720000000053227RIMANDO D. BELLEZA                                       0502
A0101413020000000057003**********                                               0501
A4101400420000000120890MARIA ELIZABETH G. PINEDA                                0501
A1001400190000000124701JUMARITO, LYNN S.                                        0501
A0601400360000000225323NABUS, BENJIE APOLONIO                                   0501
A0101410560000000268331ROSE MARIE S. BRAZIL                                     0501
A0101402770000000360843***************                                          0502
A0101402770000000360865ARNEL O. CRUZADO                                         0501
A0101407140000000446133**********                                               0510
A0101403320000000452253RAMOS, PETER ANGELO LUCERO                               0502
A0101408240000000521793ROMERO, GHIE MARIN                                       0502
A0101404260000000532216OBREGON, RODOLFO LATOJA                                  0501
A0101411820000000589380ROQUE R. SUEMITH                                         0502
A1101400120000000652824NIPAL, MARIA TERESA RIVERA                               0501
A0701400260000000670871DY, WINSTON SI DBU RDY TRADING                           0501
A4101400420000000710256TEODOSIO, CECILIA BILACAOL                               0501
A0101400570000000749760CARLITO A. PAGATPAT                                      0501
A0101405650000000773024KIMURA, JOCYLYNN CUYOS                                   0501
A0101411080000000805787OR, NENCIE ONG                                           0501
A0101400150000000807545GO, CLEMENT TAN                                          0501
A0101412470000000853798YARA, MARK PHILIP                                        0501
A0901400220000000887910**********                                               0501
A0901400220000000887921**********                                               0501
A0101401250000000906985BRIOSO, JHONATHAN G.                                     0501
A1301400340000000926870CUERDO, AYA                                              0501
A1301400340000000926938MOLINA, REALYN COSTO                                     0501
A0101404840000000943362SALES, MARIA LUISA ABALAHIN                              0501
A0601400230000000990052DAYAO, MARIBEL MASIBAC                                   0501
A0101409920000000998781SHIRLEY A. LABBAO                                        0501
A0101409050000000999551BORJA, ARIANNE MAE KRIS BERNAS                           0501
A0101412340000001017667GARA, ALEEN CHAN                                         0501
A0101413310000001073610LACRO, JUCING CASTOR                                     0501
A3101400450000001104032BOADO, FE FUNDAN                                         0501
A5501400120000001121691COLLADO, JOE DEE VIDAMO                                  0501
A0301400820000001185791JARED HOTEL AND CONDOTEL                                 0501
A4101400260000001198574BONGCAYAO, EDILITA APELLIDO                              0501
A4101400260000001198574BONGCAYAO, EDILITA APELLIDO                              0501
A0101413990000001202402NOFIES, JENNIFER BARBON                                  0501
A0101408400000001213443ANOG, LOVELIETA LAPPAY                                   0501
A0101406330000001235056NOTE LINE MUSIC PRODUCTIONS                              0501
A3001400130000001261023XXXXXXXXXX                                               0502
A0101411950000001272953********                                                 0501
A0101407560000001276040DAYRIT, DULCE AMOR GERTES                                0502
A0101413150000001288217******                                                   0501
A0101410560000001290900MANDITA, JHOAN SOL                                       0501
A0101410560000001290922BELARMA, REZA GUNTAN                                     0501
A4101400550000001332392CRUZ, JINKEE DINO                                        0501
A0101413440000001472599PERALTA, IMELDA URBANAN                                  0502
A0101400860011394300002**********                                               0503
A0101400860011400073001*********                                                0502
A0101400860011402718002**********                                               0503
A0101400860011478374007**********                                               0501
A0101400860011514595002**********                                               0502
A0101400860011526024001**********                                               0503
A0101400150061458294001AGUILAR, NORA VILLANUEVA                                 0501
A0101400730111478374017VEBELITA G. GALLETO                                      0501
A0101400730111478374196EUGJUN E. JAVIER                                         0501
A0101400730111624597001QUIMO, LINDA CUNANAN                                     0503
A0101401830141366498001GRACE I. RIVERA-JACINTO, MD                              0501
A0101401090171462288001PADILLA, ERIC JOHN FRUTO                                 0503
A0101410720210776069001FERNANDO, FELIX ESTUYA                                   0501
A0101400310211038952001MULTICHEM INDUSTRIAL SALES                               0502
A0101400310211453629001LENY O. MANALO                                           0501
A0101407140213026740001DSQ MARKETING                                            0503
A3101400160221220343001LAARNI A. CALAPATIA                                      0502
A3101400450223221977001TSOUROUS, STEVEN PATRICK                                 0501
A3101400450223478374005DE LEON, MA. FE G.                                       0502
A3101400450223612365001ARAGO, ANDREW HIZON RODA                                 0502
A1001400190231520766125YANA, MAYFLOR DAGOC                                      0501
A1901400290261298552151JEFFER JOHN ESTEBAN MONTEALTO                            0501
A1901400290261478374031REALYN MARASIGAN CUENCA                                  0503
A1901400290261493025096DR CELESTE TOLENTINO                                     0501
A0101400570281186601002DR. JOSE PEPITO AMORES                                   0502
A0101400570281186842001DR. BENITO H. RAMOS JR.                                  0503
A0101400570281395118001HONEYLIN C. ROXAS                                        0501
A0101400570281405675001SALLY ANN CLARK                                          0502
A0101400570281441951001DR. RENE REYES                                           0503
A0101408820333478374064GINA T. LUIS                                             0501
A0101402060351445050001HONTIVEROS, ANDREA ELAINE LIM                            0501
A0201400920375405086001ASAYAS, MARGARITA TUGAHAN                                0501
A0101408370382431175001EDITA Q. SALUDARES M.D.                                  0502
A0101402770391037621001ID & D GENERAL MERCHANDISE                               0501
A0101402770391319133001WENDA R. ALMIN                                           0502
A0101403320471033222001PHENOLIC TRADING                                         0505
A0101403320471480971001GINA T. CALABIO                                          0501
A0101406330472027958001A. ANOLIN ENTERPRISES                                    0502
A0101406330472215783002REYNALDO ONG CHIU                                        0503
A0101406330472311319003ALEJANDRO V. VICTORINO JR.                               0502
A0101406330472336102002MAY CATHERINE JOSEF DE VILLA                             0502
A0101406330472478374039JOSEFA B. QUIPIA                                         0501
A0101406330472542494001TEODORA A. RAZON                                         0501
A0101406330472657552002**********                                               0501
A1401400110492427326004******************                                       0502
A1401400110492777638001DY, EDNA AYCARDO                                         0505
A0101403580511036648001R2C TRADING                                              0501
A0101403580511196754001CARMELITA E. LA O'                                       0502
A0101403580511291930002JOSUE IGNACIO SENGCO                                     0501
A0101403580511387392001VASHI BALANI OR HARSHA BALANI                            0503
A0101406880513432321001TUMULAK, REMEDIOS DELA PENA                              0501
A0101404260611150835001HENRY OR LAI SHA CHING                                   0505
A0101404260611478374077LUCIA CAPILITAN                                          0501
A0101404260611583857002PAR, SIU PING CHING                                      0504
A0101410720653172730002DE GUZMAN, ANGELINA GONZALES                             0502
A0101410720653411174001MA. REMEDIOS OR EDGAR CABALLERO                          0510
A0101410720653478374054CRISTINA CALDERON                                        0501
A0101407560686478374067SHERLITA T. FERNANDEZ                                    0501
A0101407560686543949001KRISTINE A. FIGUERAS                                     0501
A0101408240711443671001CARMENCITA C. GUIAO                                      0501
A0101408240711557346001CORTINAS, MARITESS JACOB                                 0501
A0101408240711647541001SALVADOR, PAUL LLANAS                                    0502
A4101400260812245011001TERESITA M. GUILARAN                                     0505
A4101400260812575605001LUCITA M. TOLENTINO                                      0501
A4101400390813046852001**********                                               0501
A4101400420814470604001ABANES, MARILOU CANTORIA                                 0501
A4101400420814520766033DELA CRUZ, MARILOU M.                                    0502
A0101404840851046725013MARY JANE A. DE GUIA                                     0501
A0101404840851478374012SAPORNO, ANNABELLE G.                                    0501
A0101406750852741281003EMPLOYEES OF ESSEL PROPACK PHIL                          0501
A0101401099000001633741SORIANO, CHARLES SHERWIN M.                              0501
A1601400179000001634022CATHERINE A. CHAVEZ                                      0501
A0101410850000000005712MACANAYA, AMELIA DBU NUMBERS                            10501
A3101400160000000006464CANDELARIO, EVELYN DBU                                  10501
A0101403580000000016053MARIA CARMINA S. MESIAS OR                              10506
A0101404840000000085072SYREN JR., WESLEY CABRERA OR                            10501
A1001400480000000133542GUINTO, CHARLOTTE JANE MAGO AND                         10501
A0101409920000000523573MEMBERS OF NATASHA (SHOECAT INC                         10501
A4101400420000000710278DIOSANA, AZALEA DBU AZALEA'S                            10501
A0601400100081040294001MOIKAI INDUSTRIAL SUPPLIES AND                          10502
A0601400100081257461001CRUZ, MAGDALENA ESTERO OR                               10501
A0101400730111298870001ARAZA, MARIELA DELGADO AND                              10501
A0101401830141206536001PEDRO S. FLORES OR                                      10505
A0101401090171195414001RAFAEL T. BAUTISTA OR                                   10501
A0101401090171196067001JOSE YAMAMOTO OR                                        10510
A0101400570281186562001ENGR. JOSELITO MIRAFUENTES OR                           10501
A0101400570281186580001DR. ARSENIO C. CANTOS OR                                10502
A0101402770391353811001GARY P. HERNANDEZ OR                                    10503
A0101403320471471093001IMELDA M. LIMSICO OR                                    10504
A0101406330472635882001RIA LEAH O. BALDOS OR KRISTINE                          10502
A1901400160491403244001OFELIA T LANDICHO OR                                    10502
A0101403580511152534001RHEAVILYN A. DELA CRUZ OR                               10502
A0101407720602399405002CLAVER P. RAMOS, M.D. OR                                10503
A0101404260611636432001DEDEL, MARY ANNE MAKASIAR                               10504
A0101404420631719037001ALBERT C BARRERA OR                                     10501
A0101410720653528817001VINCENT GONZALO SY OR TIMOTHY                           10501
A1701400230693039050001PONARBUILT CONSTRUCTION &                               10502
A1701400230693553940001PALADO, MARITES SUMAOANG OR                             10502
A0101404840851051666001DE GUZMAN, MARVIN DBU REPLICA                           10501
A0101410850000000005712AND LETTERS LEARNING CTR                                20500
A3101400160000000006464RALC PROPERTY HOLDINGS                                  20500
A0101403580000000016053MARIA CRISTINA S. RIVERA                                20500
A0101404840000000085072SYREN, ANA VICENTITA                                    20500
A1001400480000000133542GUINTO, NEMER SARDENA                                   20500
A0101409920000000523573JOANNE L. MABULAY                                       20500
A4101400420000000710278FOOD EXPRESS                                            20500
A0601400100081040294001AUTOMATION SERVI                                        20500
A0601400100081257461001PINE, KRISTINE G                                        20500
A0101400730111298870001ARAZA, DANILO C.                                        20500
A0101401830141206536001IRMA G. FLORES                                          20500
A0101401090171195414001CRISANTA P. BAUTISTA                                    20500
A0101401090171196067001MILAGROS YAMAMOTO                                       20500
A0101400570281186562001DR. LANA GAN                                            20500
A0101400570281186580001DRA. CORAZON CANTOS                                     20500
A0101402770391353811001EZEL S. HERNANDEZ                                       20500
A0101403320471471093001CHARITY M. LIMSICO                                      20500
A0101406330472635882001CAMILLE S. SUBA                                         20500
A1901400160491403244001ROMMEL Y LANDICHO                                       20500
A0101403580511152534001MARITESS ALVAREZ                                        20500
A0101407720602399405002THELMA E. RAMOS                                         20500
A0101404260611636432001AND KENNETH DEDEL                                       20500
A0101404420631719037001ROLEN C BARRERA                                         20500
A0101410720653528817001JON SY OR JULIE MAY SY                                  20500
A1701400230693039050001GENERAL MERCHAND                                        20500
A1701400230693553940001MENOR, ALFREDO R                                        20500
A0101404840851051666001MUSIC LOUNGE                                            20500
B0101400310000000019401G ASIA CONSTRUCT REALTY CORP.                            1605
B0101404420000000025823GDL KWIK-WAY ENGINEERING WORKS                           1601
B1901400290000000030811TRANSPORTCARE HAULING AND SERVICES                       1601
B0101413730000000144727PCHS BATCH 84 (MAIN) ORGANIZATION, INC.                  1601
B2801400100000000188374GOLDSTAR SUBIC BAY TRADING CORPORAT                      1601
B0101403580000000383788JER CONSULT CORP.                                        1602
B0101408820000000713313************                                             1602
B0101403450000000889450************                                             1601
B0101400730000001216266AP LUCKY CHAIN MARKETING CORP.                           1602
B0101400730000001216379THE PREMIERE INSURANCE & SURETY CORP.                    1603
B0101401700041031465001CARITAS FINANCIAL PLANS INC.                             1601
B0101400150061513240002SUGARLAND GLOBAL HOLDINGS INC                            1602
B0601400100081046420001REAL BLOCK CONCRETE PRODUCTS, INC.                       1601
B0601400360083505804002BGC PHILBUILDER INC.                                     1604
B3101400160221010072001GROLIER INTERNATIONAL, INC.                              1602
B3101400160221016423002GROLIER INTERNATIONAL FINANCE, INC.                      1602
B3101400160221041096001HEALTHSERV LOS BANOS INC.                                1602
B1001400190231274341003JAVIER, WILFREDO G.                                      1602
B0201400760374030157001ABOITIZ CONSTRUCTION GROUP, INC.                         1601
B0201400760374033207001W.T. CONSTRUCTION, INC.                                  1605
B0201400920375038353001WEST OCEAN LINES & TRANSPORT, INC.                       1605
B0201400920375544825001LIM, DOMINGO ONG                                         1601
B0201400890376037020001BREEDERS AGRIVET SUPPLIES INC.                           1605
B0101402770391752292002JUANITA OR TOMAS OR BENJAMIN VICTORIA                    1601
B5501400120410685505008THAIRAPEUTIC, CORPORATION                                1603
B0101403320471022749001LES SACS MANUFACTURING                                   1602
B0101406330472032850002ASIAN COATINGS PHILS. INC.                               1601
B0101407430503027906001CHURCH STRENGTHENING MINISTRY INC.                       1610
B0101403580511515198001ATMA INTERNATIONAL CORPORATION                           1601
B0101403580511682308001AMARA HOLDINGS INC.                                      1602
B0101403450521028565001**********                                               1602
B0101404260611043949001JCLC TRADING                                             1603
B0101410720653172138001AUREA C. RUPIDO                                          1601
B2801400100712020330001HOYA MARINE CORPORATION                                  1602
B0101402060000000653725PRIMUS INTER PARES MULTI PURPOSE                        11602
B0601400100081251835004TORRES, ROBERT/MARY ANNE/ROBERT JR. AND                 11605
B0601400100081251835004TORRES, ROBERT/MARY ANNE/ROBERT JR. AND                 11605
B0101401830141290260001HENRY MAGTALAS OR GEMMA MAGTALAS OR LEE                 11601
B0101403320471019960002DIRECT ELECTRIX EQUIPMENT                               11605
B0101402060000000653725COOPERATIVE                                             21600
B0601400100081251835004ONG, JONATHAN                                           21600
B0601400100081251835004ONG, JONATHAN                                           21600
B0101401830141290260001MARVIN MAGTALAS                                         21600
B0101403320471019960002CORPORATION                                             21600
B0101406880513821100608**********                                               2030
B0101406880513821200608**********                                               2002
B2601400140691821100608**********                                               2001
