A0101404840000000004020TORRES, MARY ROSE S.                                     0501
A0101408240000000005461SANCHEZ, MARIANO ALTOBAR                                 0503
A0801400160000000009509GARCIA, YVONNE JELLIAN TUBILLA                           0501
A0101405810000000016606*****                                                    0501
A0201400890000000028026*********                                                0501
A0101408660000000059892SICAT, HONESTLYN TORRES                                  0501
A0101406040000000096866********                                                 0502
A0101406330000000162558REGUIERE, ALMA TUBAY                                     0501
A0601400360000000225192BAUTISTA, RODOLFO MARCELO                                0501
A1601400170000000421172PARES PRINCE FOOD HOUSE                                  0505
A0301400790000000436019VILLADEMOSA, JOSELITO BANIEL                             0501
A0801400160000000476379NO NAME                                                  0501
A0101407720000000510869ESTEBAN, JOCELYN CANDA                                   0501
A0101407720000000510950GARCIA JR., LEONARDO RIGONAN                             0501
A0101400150000000525397TARIFA, ERROL GLENN MANALO                               0501
A2601400270000000561900MA ELOISA V. COLLANTES                                   0501
A1901400320000000679216CHANDA PEREZ ATIENZA                                     0502
A0101413440000000702441ANTONIO, GINA ASIS                                       0501
A0101404420000000866440FELICIANO, MELVA PATALINGHUG                             0501
A0101406620000000962323MAYOR, RICABETH SOCORRO BAUTIST                          0501
A0101406620000000962330DIZON, MARIDEL TRINIDAD                                  0501
A4101400390000000975242LABIOS, CARMENCITA VALLADA                               0501
A0101409920000000998763TOLIBAS, JELOUSE TAGAYON                                 0501
A0101409050000000999539********                                                 0502
A0101407430000001028831AQUINO, LAMBERTO CONSOLACION                             0501
A0101407430000001028842ORTILLO, JOEL FUNCION                                    0501
A0101407430000001028853LEONARD REY S. LITAP                                     0501
A0101407430000001028864CECILIA SY CAMPOSANO                                     0501
A0101408950000001039394ATIENZA, MARIA ISABEL MANIEGO                            0501
A0101413310000001073563LOPEZ, MA CECILIA REYES                                  0501
A3101400740000001093885LIZARDO, CLEOFE SANCHEZ                                  0501
A3101400160000001169302GERTRUDES L ALIAZAS                                      0501
A0101408400000001213603SINDO, AMPARO CALINISAN                                  0501
A0101408400000001231081TEO, ROSALINDA CORPUZ                                    0501
A0101408400000001231092ELIZAGA, ANTONIO JACOB                                   0502
A0101408400000001231105MOLINA, JANELLE CORTES                                   0501
A0101401700041047040001*****                                                    0504
A0101400150061228038001MANUEL C. CHAN                                           0501
A0101400150061236944084SOCORRO R. YABUT                                         0501
A0101400150061748778001*****************                                        0501
A0101405810072385132001***********                                              0503
A0101405810072462871001LI, SHAO YA KE                                           0504
A0101405810072487575001***************                                          0505
A0601400100081682828001REGULACION, JACKQUILYN ALIM                              0502
A0601400360083664938001KIM, SANGYUL                                             0502
A0101410850109554406001DELA CUESTA, ZHEENA CHOO                                 0501
A0101406040112684740001***********                                              0501
A0101401960121239340001***********                                              0504
A0101401960121239576002**********                                               0501
A0101401830141205675002AMELIA I. CAPISTRANO                                     0501
A0101400440161039572010MYRNA A. CANELAS                                         0501
A0101400440161520766123MARIA MISLANG                                            0501
A0101401090171198410001IMELDA S. DORADO                                         0501
A0101401090171381768001MA. CAROLE LISA C. SIBULO                                0502
A1001400190231751984001GLARIANA, ALMIRA MASIBA                                  0503
A1301400470252031178003TRIMED PHARMACEUTICALS                                   0502
A1901400290261087553001MARIA JEOFFRIZA SARMIENTO DIAZ                           0503
A1901400290261244565002LYDIA M LIMBO                                            0501
A0101406620273072069001LEANO, DEVI PESSUMAL                                     0502
A0101406620273314677002GEORGE ANGEL OR GLENDA AGUILA                            0501
A0101406620273417682001BELDAD, DULCE ESPLANA                                    0501
A0101406620273720692001******                                                   0502
A0101400570281381491001HILDA B. PABIANIA                                        0501
A0801400160311265752001DIVINAGRACIA, LLANE GRACE                                0501
A0801400160311478374092MALLORCA, ROSEMARIE A.                                   0501
A6601400120314041602001LEXTAN GENERAL MERCHANDISE                               0502
A6601400120314044682001QUINNREEVE'S MOTORCYCLE PARTS                            0501
A0101402060351211770001LAZO, ANGELITA CASTRO                                    0501
A0101402060351217441030GEORGE T. BAUTISTA                                       0502
A0101402060351444611001BONDOC, NARCISA NAVARRO                                  0502
A2401400180411455559001VENDIX GEN. MERCHANDISE                                  0501
A2401400180411478374032ROSANNA M. CANTERO                                       0501
A0101406330472213734002ZENAIDA T. NUCUM                                         0501
A0101406330472356808002CHRISTIAN E. CANGCO                                      0506
A0101403610531521912002LEGACION, SHERRY-MAE BELENA                              0501
A0101403610531685998001LIZARDA, MICHELLE CASACOP                                0503
A0101407720602318369116JOSEPH M. SAQUIN                                         0501
A0101404260611427608001*********                                                0502
A0101404420631688655001URMA, MELIZA MIGUEL                                      0501
A0101406590662500998001MAGRACIA, JUDY PALIZA                                    0501
A0101407560686345599001ROFELIN B. SAMAR                                         0502
A0101407560686359592001MA. MAY JASMIN R. YASON                                  0502
A0101407560686378081001ANGEL M. ESTEBAN                                         0505
A0101408240711075894001RAMIREZ, RAOUL RICO CEREZO                               0501
A4101400260812245001001AILEEN S. CAMPOS                                         0501
A4101400420814520766075ARANAS, ROSEMARIE O.                                     0501
A4101400420814520766121LOBATON, JENNYLN                                         0501
A0101404840851520766009EPIFANIA DE GUZMAN                                       0502
A0601400230891386310001SZE, HOI CHING                                           0502
A0101413280000000041818MARC DANIEL L. DICHUPA OR                               10501
A0201401020000000056073GERIBISE, DBU SALON NI                                  10501
A2801400230000000063083CHAVEZ, MELANIO COSARES JT                              10502
A5001400170000000213954LOPEZ, ISOLDE OR TAMAYO, AILYN                          10504
A08014001600000004763800WEN F. FACTO OR MA. FE M.                              10505
A2601400270000000561551RODERICK E. MADRIDEO OR                                 10501
A0101409920000000998770MAGSUMBOL, EMILY U.                                     10501
A0101403610000001174761AMORES, JORENDA BRIGNAS                                 10501
A4101400550000001332529ATIENZA, MILDRED JIMENEZ OR                             10501
A1901400290000001362903NONATO RODELAS MONFERO OR                               10501
A0601400100081254011001PANLILIO, MARIE CARMEN OR                               10501
A0101401830141205410003BONDOC, AUGUSTO G. OR                                   10501
A0101401090171197840001DRS. PHILOMENA GABRIEL-LOPEZ                            10502
A0101401090171405469001DRS. DAVID OR MA. LOURDES                               10502
A1901400290261244344001AVELINA B DE GUZMAN OR                                  10502
A2401400180411549938001SALANIO, ISIDRO DIANGCO OR                              10501
A0101406330472022028001VALDEZ INVESTIGATION PROTECTIVE                         10502
A3801400170490045352001R&N GENERAL MERCHANDISE &                               10502
A0101403610531304005001ANCHORIZ, NERRIZA OR                                    10503
A0101404000551150199001DOMINGO MALLARI OR FRANCISCA                            10501
A0101407720602283353001ERWIN HERNANDEZ OR                                      10501
A4101400390813442190001ASMA, RODELYN MERIADO OR                                10505
A0101413280000000041818LORD SHARI D. DICHUPA                                   20500
A0201401020000000056073CHRISTIAN FOR MEN & WOMEN                               20500
A2801400230000000063083OR CHAVEZ, MA. GESSEL T.                                20500
A5001400170000000213954OR TAMAYO, SHEENA LYNN                                  20500
A0801400160000000476380FACTO                                                   20500
A2601400270000000561551JUANITA S. MADRI                                        20500
A0101409920000000998770URBE, PERLA E.                                          20500
A0101403610000001174761DBU JOHN AMOR ENTERPRISES                               20500
A4101400550000001332529ATIENZA, MARIO PAGSINOHIN                               20500
A1901400290000001362903ERVENILDA PATRON MONFERO                                20500
A0601400100081254011001PANLILIO, AUGUST                                        20500
A0101401830141205410003BONDOC, JERRY V.                                        20500
A0101401090171197840001OR ROLANDO LOPEZ                                        20500
A0101401090171405469001BOLONG                                                  20500
A1901400290261244344001BENJAMIN D DE GUZMAN                                    20500
A2401400180411549938001SALANIO, CATHERINE                                      20500
A0101406330472022028001SECURITY AGENCY                                         20500
A3801400170490045352001CONSTRUCTION SUP                                        20500
A0101403610531304005001ANCHORIZ, FRANCISCO                                     20500
A0101404000551150199001MALLARI                                                 20500
A0101407720602283353001AGNES HERNANDEZ                                         20500
A4101400390813442190001ASMA, ROLDAN PAR                                        20500
B0101404260000000003783ABELLA, ROLDAN AND FAINZA LAWYERS                        1605
B0101406460000000020942EUROASIA MARBLE & GRANITE INC                            1601
B0101401830000000033616CARITAS SALVE CREDIT COOPERATIVE                         1602
B0101413570000000206533DYD ESLA                                                 1602
B0201400760000000222762UY, JOHN CHIU OR JOHN JEFFERSON UY                       1605
B0101410690000000305262RENAISSANCE TRAINING CENTER, INC.                        1601
B0101400150000000633196DURAFLAME GAS CORP.                                      1601
B3101400160000001169211PALMSVILLE HOMEOWNERS ASSOCIATION INC                    1602
B3101400160000001169295GCDRIVE INDUSTRIAL  CORPORATION                          1603
B0101400150061010670001ASIASEC EQUITIES INC.                                    1610
B0101405810072030630001***************                                          1603
B0101405810072040696002PLASTIC TECHNOBAG CO. LTD.                               1602
B0101401960121456874001ICENIT LIGHTS & DECORS, INC                              1603
B0101407140213077888001UNION MOTOR CORPORATION                                  1601
B3101400160221010055002CALAMBA LUMBER ENTERPRISES                               1605
B3101400160221031027001ALLIED DOCTORS FOOD RESOURCES, INC.                      1605
B1301400760253048151001ELITE MOTORBIKE SALES CORPORATION                        1601
B1901400290261012591001LIPA SDA ELEMENTARY SCHOOL                               1601
B1901400290261027293004LIPA MEDICS INC.                                         1602
B1901400290261027293005LIPA MEDICS INC.                                         1602
B1901400290261490775003LYNAR REALTY & DEVELOPMENT CORP.                         1601
B0101406460272033798001WTA ARCHITECTURE AND DESIGN STUDIO                       1602
B0101406620273047215001UMIC INTERNATIONAL, INC.                                 1602
B0101406620273349902001*******************                                      1602
B0801400160311045100001GOLDEN WOOD TIGER LENDING CORPORATION                    1610
B0101402510341025648001EXPRESSIONS STATIONERY SHOP, INC.                        1601
B0101402510341037808001FAIR ALL MARKETING                                       1602
B0101402060351015284001GREEN VALLEY COUNTRY CLUB                                1601
B0201400760374033964001BLAZE MANUFACTURING CORP.                                1603
B0201400760374045286001C.K. BUILDERS CONST. & DEV'T. CORP.                      1603
B0101406330472046636001ENERTECH SYSTEMS INDUSTRIES, INC.                        1610
B0101405940512584781002MCSENERGY PHILIPPINES INC.                               1601
B0101403610531035657001A1 STEELFORMER CORP.                                     1602
B0101403610531518484001A1 STEELFORMER CORP.                                     1602
B2201400250561428755001*****                                                    1603
B0101404260611026121001RCAM - SCPFC LAYFORCE                                    1603
B0101408240711023689001ENL COURIER EXPRESS, INC.                                1602
B3801400170000000018777ANTONIO CATIBOG II OR ZENAIDA CATIBOG OR                11605
B0301400790000000435692R. CUBE DESIGN AND ESTIMATE SERVICES,                   11603
B2201400250000001066091UNICOTERRA REALTY & DEVELOPMENT                         11605
B0101402060351022399001GOLDEN POT N' PAN FOOD SERVICES                         11601
B3801400170000000018777HAZELYN ACEDERA                                         21600
B0301400790000000435692INC.                                                    21600
B2201400250000001066091CORPORATION                                             21600
B0101402060351022399001COMPANY                                                 21600
B0101405100571821100608**********                                               2005
