A0101410720000000008642MC BUILT ENTERPRISES                                     0501
A1001400350000000017876OMLAN, NILE FRANCIS II                                   0501
A0101410560000000020195LELIANE D. TORRES                                        0503
A0101402510000000049318********                                                 0502
A0101404840000000090213SAPLALA AND SANTILLAN SMILE SYM                          0501
A1601400170000000099029MYRA T. LAUSON                                           0501
A0101411790000000134147LUCHAVEZ, ESTHEFANY CAPACIO                              0502
A0601400100000000141988TIMELINE MANPOWER SERVICES                               0502
A0101410720000000211736GABRIEL, JOEL ORTIZ                                      0502
A0101402060000000445516SAMPANG, RICARDO MARCELO                                 0501
A4101400260000000469329FALCUTILA, MARISSA RAMOS                                 0502
A0101411820000000477258MA. SALLY A. OROCIO                                      0501
A0101410140000000499189CASULLA, MELANIE PITAO                                   0502
A1101400120000000652420MACATO, JUANCHO CUA                                      0503
A0101408950000000776592GENOVIA, MA. VICTORIA LIM                                0501
A0101412630000000801654GAOAT, ROBERTO GACOSCOS                                  0501
A0101413860000000859003RUNEZ JR, SAMUEL RUNES                                   0502
A0101410720000000882862CASTRO, JASMIN PABLO                                     0501
A1001400350000000922372BATINGA, NILO BASADA                                     0502
A0101400730000001016471VIOLETA O. SANOY                                         0502
A0501400200000001081032CERDINO, REGINA ALMAZAN                                  0501
A1101400120000001547337ALDIANO, FLORDELUNA LATO                                 0503
A4101400390000001732736CLAVERIA III, DON VIVENCIO G                             0501
A1701400230000001786683ULEP, FLORIEVEL                                          0501
A0101413860000001887045URU, JEFREY ZINAMPAN                                     0501
A0101405650000001911940BARBERS, RAINIER LOUISE PENA                             0501
A0101410140000001940023IKUTANIM, ALYNE ATUTUBO                                  0501
A0101400440000002249743DEL ROSARIO, MARIE MADELINE M.                           0502
A0101410140000002307740GARCIA, ALMIN DELA CRUZ                                  0501
A2001400290000002319520CADAMPOG, JOSE GLENN CENIZA                              0501
A0101412890000002324232PAREDES, RICHARD CHAM                                    0502
A3101400870000002328036YU, RICCI CASTILLO                                       0502
A0101401700000002337004**********                                               0505
A1301400760000002346129JIMMY C. CENA                                            0502
A0501400170000002357315VERSOZA, EDUARDO AMISTOSO                                0502
A1701400230000002762952LAO, HANDY TAGATAC                                       0505
A0101401380000002787057MACAPAGAL, ELIZABETH TAMONDONG                           0502
A0101407270000003253512JOHN BYRON JAKES LASAM                                   0501
A0101405070000003439638DE JESUS, DESIREE DBU JADE'S DI                          0501
A0101412920000003464873CADA, VERONICA NG                                        0501
A0101404000000003707891ARTEMIO MANOLETTE M YAMANE II                            0501
A0101400150000003876922MARY LENORE PESTANO                                      0501
A0101409180000004375360SANTIAGO, JONAS BARROS                                   0501
A0101408400000004490073DIAZ, WINSON DIPANGI                                     0502
A0101408950000004511993ACOSTA, LENYGRACE MAGNO                                  0502
A1601400170000004663532ALCAZAR, MIGUEL DAZAL                                    0501
A0101401700041386485001MA. SONIA DINO                                           0501
A0101400150061088084001ADZUARA, ELOISA TANECA                                   0501
A0101400150061389261001AYSON, JOEL RAYMOND REDULA                               0502
A0101400730111278185002ARANDELA, MARY GRACE                                     0501
A0101400730111478374020FERMANES, LILIA S                                        0502
A0101400440161478374008MARY FE I. REDONDO                                       0501
A0101400440161525001112JELLIE ANN D. LOMAHAN                                    0501
A0101407270162333154010ANTONIO C. CONTRERAS                                     0503
A0101407270162453493004CESAR GERARDO S. RAVELA JR.                              0501
A0101407270162680672001CRUZ, LEONARDO BALLION                                   0502
A0101401090171334282001**********                                               0501
A0101401090171541582001KATRINA ANNE C. VALDEZ                                   0501
A0301400530193708832001ALVIOR, SUZETTE JOCELYN E.                               0510
A0101407140213338106001**********                                               0502
A3101400160221626743001MARANAN, AMADO REDONDO                                   0503
A3101400870225478374002BODORAYA, RUZIEL RAMOS                                   0501
A3001400130230700871001MUNOZ, BALTAZARA ESCATRON                                0501
A1001400190231273213001TOGLE, ROBERTO OR GILDA                                  0502
A1001400190231478374041DIMAKUTA, MARIVIC P.                                     0501
A1001400190231478374083CHIONG, MARIVIC P.                                       0502
A1001400190231520766031CARANO-O, JANFIR JANE V                                  0501
A1001400190231520766104MAMBUAY, JOSEPHINE WABE                                  0501
A1001400190231520766119CABANO, BERNADITH CATIWALAAN                             0502
A1001400350233675969001INESIN, LYDIA TRINIDAD                                   0501
A0101401670271794897001SIAN, VENERANDA PEDRALVEZ                                0502
A0101406620273284184001TIENG, DAISY T.                                          0501
A0101406620273544120001SALES JR., VICTORINO PUBLICO                             0501
A0801400160311478374104RUBIE BAGAFORO                                           0501
A1101400120313478374116MASIN, NANCY KELISTE                                     0501
A0101402350321478374050JESUSA G. CAYLAN                                         0501
A0101402480331039950001*********                                                0505
A0101402480331520766048KISMUNDO, ALICIA                                         0501
A0101402060351086918001BENITO, EMMANUEL DETERA                                  0502
A0101402640361039299001JANRELK TRADING                                          0501
A0201400760374698691001CORONEL, ANALIZA ARELLANO                                0501
A0101402930381225861002PAJARA, JAIME HERNANDEZ                                  0503
A0101408400394478374090MARY DUMASLAN                                            0501
A0101408400394542845001PINEDA, DINDO DOMINGO                                    0501
A0101409210398612731001CINCO, RONOR FORTU                                       0501
A2401400180411478374035MERLINDA D. TAMUDTAMUD                                   0501
A0901400220432478374001LEONARD GO LOZADA                                        0501
A0501400170481350777002SISON, MARIA RESURRECCION                                0501
A0101407430503366589002OBRERO JR., ALFREDO FAJARDO                              0502
A0101403450521238153002**********                                               0501
A0101403610531035023001KAXWAX, INC.                                             0504
A0101403610531478374002GRAPE, IMELDA HANDOG                                     0501
A0101407720602349929002**********                                               0502
A0101404260611150856002CHING, WILLIAM OR TRINIDAD                               0502
A0101404680651478374119MELANIE P. RENES                                         0501
A0101404680651478374173MARIBEL L. VALDEPENAS                                    0502
A0101404680651520766097FLAVIANA T. PAJANUSTAN                                   0501
A0101404680651532685001EMMA RUTH C. MARTIN                                      0501
A0101410720653150930001BERNAL, GELYN SADIWA                                     0501
A0101410720653172332001JOEL OR MA. CARMENCITA VITENTE                           0502
A0101410720653530140001BERNAL, BARBARA JAY SADIWA                               0501
A0101406590662363449001LA VINA, ANGELINA SAN JUAN                               0501
A0101410300663776849001******                                                   0502
A0101407560686478374054MARICHU F. PILOTA                                        0501
A0101408240711372563002ZAMORA, RITA LOPEZ                                       0502
A0101408240711383964002MA. ESPERANZA OR LAMBERTO MEER                           0502
A0101408240711536525001CALABAZARON, JOYCE PAJATIN                               0502
A2801400100712033970001SAKS TRADING                                             0501
A4101400260812594262001ARLYN B. PARAGES                                         0502
A4101400420814077054001GAMIS, MARC DE GUZMAN                                    0503
A4101400420814478374102MALIBIRAN, MARLYN M.                                     0503
A4101400420814520766038POLINARIO, THERESA BELLEZA                               0501
A4101400420814520766119OMNOS, NOVA DESCARTIN                                    0502
A0101404840851478374173BUENAFE BUBAN                                            0501
A0101406750852478374015GABIN, GERTRUDES                                         0501
A0101405070861366707001ARELLANO, MA. ELENA BALLESTEROS                          0502
A0601400230891627261001RAMOS, ANGELITA BAUTISTA                                 0504
A0101408110000000379971CEPEDA, RODELLA DBU                                     10501
A4101400420000000710563RAPI, CANDY S OR RAPI SR.,                              10502
A0601400100000000786701BANAS, CESARLIE AMBASA DBU B &                          10503
A0101400150000000807943CARDENAS, ORLY A. OR                                    10501
A3101400870000000957917GATDULA, J DBU SIX PENCE                                10501
A0101410720000000968072MAGDANGAL JR, DANTE DBU ALISTER                         10501
A0301400820000001185780RUFEROS, ROY KENNETH OR                                 10501
A0101407140000001201909POLINTAN, OMAR CORDERO OR                               10501
A0101410720000001602073DE CASTRO, C DBU YSTRUKTURA                             10502
A2401400180000001935931MC-MAX CABALLES ENGINEERING                             10501
A0101409180000003310221HERNANDEZ, RAFAEL ANTONIO E. OR                         10501
A0601400100081025360002AMOR REFRIGERATION & AIR                                10501
A0301400530193760685002AGUILAR, AGUINALDO V. OR                                10501
A1301400760253087654001CATHERINE F SANVICENTE OR                               10505
A0101406620273358539001MARIA TERESA L. JAHRLING OR                             10501
A0101406620273392302001RAMOS, MACARIO OR FLORES, RUTH                          10501
A0101411110276057553001REYES, A DBU ARTREY EXPRESS                             10501
A0101400570281043930002REALTY & ENTREPRENEURSHIP                               10501
A2001400290315042654001GFR TIRE SUPPLY AND SERVICE                             10503
A0101402350321179428001LYDIA C. TIU OR                                         10501
A0101402350321184624001VICEO, JENNIFER R. OR ALELI OR                          10510
A0101408400394479058001PACALUNDO, JONAIDA OR PACALUNDO                         10501
A0101409210398436507001FERNANDO M. AMADOR OR                                   10501
A1201400150421252759002AVILA, BERNADETTE OR                                    10510
A1901400160491298907001SANTISIMA B HERNANDEZ OR                                10501
A0101411790518055815170VALENZUELA, CARLA LORAINE                               10501
A2201400250561478374038ZENAIDA B. DELA CRUZ                                    10501
A0101407720602287906001FLORENCIO GERARDO                                       10504
A0101406590662297269001MARTINEZ, ARMAN M. OR MARTINEZ,                         10501
A4101400420814635620001CORPUZ, ELMER AGSALDA  OR                               10501
A0101408110000000379971ZRPC ENTERPRISE                                         20500
A4101400420000000710563NESTOR M                                                20500
A0601400100000000786701Y LAUNDRY SHOP                                          20500
A0101400150000000807943CARDENAS, JACQUELINE R.                                 20500
A3101400870000000957917TRUCKING SERVICE                                        20500
A0101410720000000968072CONSTRUCTION AND                                        20500
A0301400820000001185780AREVALO, MICHELLE KAY                                   20500
A0101407140000001201909POLINTAN, MELITA                                        20500
A0101410720000001602073SKIN CLINIC                                             20500
A2401400180000001935931SERVICES                                                20500
A0101409180000003310221CONCEPCION, MARIA ELENA                                 20500
A0601400100081025360002CONDITION REPAIR                                        20500
A0301400530193760685002AGUILAR, DINA C.                                        20500
A1301400760253087654001VINCENT PAUL P SANVICENTE                               20500
A0101406620273358539001ANGELO JAHRLING                                         20500
A0101406620273392302001OR RAMOS, ALICE                                         20500
A0101411110276057553001CARGO SERVICES                                          20500
A0101400570281043930002ACADEMY OF THE P                                        20500
A2001400290315042654001CENTER                                                  20500
A0101402350321179428001JAMERSON C. TIU                                         20500
A0101402350321184624001OSCAR OR KATRINA MAE                                    20500
A0101408400394479058001OR PACALUNDO, MA                                        20500
A0101409210398436507001JANICE F. AMADOR                                        20500
A1201400150421252759002AVILA, EDGAR                                            20500
A1901400160491298907001MARIE JANE H VINAS                                      20500
A0101411790518055815170LUCBAN                                                  20500
A2201400250561478374038MEMBERS OF NATASHA                                      20500
A0101407720602287906001CAEDO JR. M.D.                                          20500
A0101406590662297269001MARIA THERESE G.                                        20500
A4101400420814635620001CORPUZ, AMELITA                                         20500
B0101402060000000022722INFOCUS RESEARCH SERVICES INC.                           1603
B0101404680000000095710MVG HARDWARE                                             1601
B0101411400000001280499ARMIJO & CO., CPAS                                       1605
B0101408820000001766776*************                                            1602
B0801400160000002676793TRI-LINE CAR CARE CENTER                                 1603
B0101400440000003766923RIVERMOUNT HOTEL & RESORT INC.                           1610
B0101411080042038455001 *****                                                   1601
B0101411080042443031001******                                                   1601
B0101400730111008426001COUNTRY BANKERS INSURANCE CORPORATION                    1603
B0101401830141034725001LINGKOD SIMBAHAN MULTI-PURPOSE COOP                      1603
B0101412920160057483001ADAZA, EVA VERA DBU KTOYZ MOTOR ENT                      1601
B0101407270162044105001HAMILLTON, INC.                                          1605
B0101401090171021620001UST HOSPITAL CREDIT COOPERATIVE                          1606
B0101407140213035784001CHEMISOL INC.                                            1602
B3101400160221028210002GOLDEN DRAGON MOTOR SALES CORP.                          1601
B1001400190231039789001MINDANAO ENERGY SYSTEMS, INC.                            1602
B0801400160311494221001JUCABAN, LEO LAGOS                                       1601
B0101402350321456451001ROADSTAR MARKETING & TRUCKING, INC.                      1610
B0101402480331552786001*****                                                    1603
B0101402060351033699001EXQUISITE INTERIOR SUPPLY CORPORATION                    1605
B0101409050352009377001ESLA LAND DEVELOPERS, INC.                               1604
B0201400920375035473001UNI KEANNE TRANSPORT SERVICES                            1605
B0101402770391040285001FRONTIER ELECTRONIC TRADING                              1602
B0101402770391040288001CYBER FRONTIER ELECTRONICS TRADING                       1602
B0101405490392518855001ISABELLE ROYAL HOTEL & SUITES INC.                       1602
B2401400180411454811001****************                                         1602
B0101403030441012179001**********                                               1602
B0501400170481018109002****                                                     1602
B0101407430503006761001QUICKFLO FORWARDERS, INC.                                1605
B0101403450521011936001**********                                               1605
B0101404000551038491001BLUE ANGEL KARAOKE BAR, INC                              1602
B0101406750852026021001GLOVISION CREDIT COOPERATIVE                             1602
B0101401250021006617001SPEARHEAD MACHINE SHOP                                  11603
B0101400570281022330001S.M. CASTRO MANAGEMENT & CONSTRUCTION                   11602
B0101405650322025100001GLOBAL PACKAGING SYSTEMS AND MATERIALS                  11601
B0101402930381017213007UNIVERSAL ROBINA CORPORATION                            11603
B1401400110492365609001JEORGE S MALIGAT - PILIPINO HARDWARE AND                11601
B0101405940512038848001JADE ENTERTAINMENT AND GAMING                           11603
B0101404130601042675001iPRUDENTIAL STEVEDORING AND PORT                        11605
B0101401250021006617001CORPORATION                                             21600
B0101400570281022330001SERVICES                                                21600
B0101405650322025100001CORP.                                                   21600
B0101402930381017213007URC - CMC                                               21600
B1401400110492365609001CONST. SUPPLY                                           21600
B0101405940512038848001TECHNOLOGIES,INC                                        21600
B0101404130601042675001SERVICES INC                                            21600
B0301400400413821100608**********                                               2010
B2801400100712821100608**********                                               2002
