F0101400570281424185001LUNA, PAOLO ANTONIO SILVA                                2502CKO
F1901400160491043709016CYNTHIA C CRESENCIA                                      2501CKO
F0201400180181442858001LUYM, JOHN LIM OR                                       12502CKO
F0201400180181442858001LUYM, EVELYN SHIH                                       22500CKO
F4101400260000000048924ECCLA WAY INC.                                           2601CKO
F4101400260000000048935EXTRA XCITING INC.                                       2601CKO
F0101404130000000696146EDCRISCH INTERNATIONAL, INC.                             2602CKR
F0101400150061011039002RIO TUBA NICKEL MINING CORP.                             2605CKR
F0101402930381017038002BATARASA CONSOLIDATED, INC.                              2608CKR
F0801400290591014054002MILAGROSA-J SHIPPING CORP.                               2610CKR
F0101403290461029163001PHIL.ASSO.OF SERVICE EXPORTERS,                         12603CKR
F0101403290461029163001INC.                                                    22600CKR
