F0601400490000000011092BALMATER, THOMAS CHRISTOPHER T.                          2501CKO
F4101400260812039607011ZALLY PESEBRE                                            2501CKO
F0601400100081040547001FILD PLAZA REALTY CONDOMINIUM INC.                       2602CKO
F31014004502230373600013 J DELIVERY SYSTEM CORPORATION                          2601CKR
F0401400140241032659002POWERHOUSE DISTRIBUTORS, INC.                            2601CKR
F19014002902610330920013MSTEAM LAUNDRY INCORPORATED                             2610CKO
F0101408370382011532004PROFESSIONAL SERVICES, INC.                              2602CKR
F1201400280671768440001BATANES, BONNER S. OR BATANES, BENTER S.                12610CKO
F12014002806717684400016715500142                                              22600CKO
