F0101414670000001340641CHUA, KHRISTIAN ALBERT UY                                2502CKO
F0101414670000001340652VALDERRAMA, LINDA FLOR DBU                              12502CKO
F0101414670000001340663CHUA, JOSEPH CHING OR                                   12502CKO
F0101414670000001340652COLOSSUS STEEL & CONSTRUC                               22500CKO
F0101414670000001340663CHUA, FELISA UY                                         22500CKO
