F3101400580452214698001UMALI, EMMA ANONUEVO                                     2502CKO
F0101400150000000052797CONTROTEK SOLUTIONS, INC.                                2601CKR
F0101404260611039132001ABS SERVICE COOPERATIVE                                  2615CKR
F4101400390813029130001MODELCOUP INTERNATIONAL INC.                             2601CKO
