F4101400260000001673423POTESTADES, MARY GRACE LAJO                              2501CKO
F3101400580452217787005**********                                               2502CKO
F0201400180000000086913AGUILON JR., ROMEO CANETE DBU                           12505CKO
F0101408370382209650001DRS. JULIETA P. ARAMBULO OR                             12510CKO
F0201400180000000086913A-BUILD CONSTRUCTION                                    22500CKO
F0101408370382209650001MIGUEL R. ARAMBULO                                      22500CKO
F0101409890000000049136ENROE MARKETING CORPORATION                              2601CKR
F0101408400000000077861W LANDMARK, INC.                                         2602CKR
F1901400290261035027001GREEN NATURE FEEDMILLING CORPORATION                     2603CKO
F0101408400394034371002W GROUP, INC.                                            2603CKR
F2401400180411049051001MSU-IIT NMPC GEN. SANTOS-1 BR.                           2601CKR
F3101400580452029890001SIMUNDAC CALTEX SERVICE STATION                          2601CKR
F3101400580452459908001POWERTECH MULTISERVICES CORP.                            2610CKR
F0101406880513030248002FIVE9 PHILIPPINES, INC.                                  2602CKR
F0101411530000000013612J.M. SANVICENTE TRUCKING                                12601CKR
F0101401120131007793002CENTRAL COLLEGES OF THE                                 12610CKR
F0101411790518021912001NORTH STAR INTERNATIONAL TRAVEL                         12605CKR
F0101411530000000013612SERVICES INC.                                           22600CKR
F0101401120131007793002PHILIPPINES                                             22600CKR
F0101411790518021912001INC.                                                    22600CKR
