A1301400210000000023229FRANCISCO P CABOTEJA                                     0501
A0201400890000000027892FORTRESS ELECTRICAL SUPPLY                               0501
A1401400110000000034784ZENG, JUNQIANG                                           0501
A0101408400000000077930MARILOU DE GUZMAN                                        0501
A2601400270000000084160EVELYN V. ALIVIA                                         0501
A2801400100000000188272ANDAYA, YOLANDA DONATO                                   0502
A0101413570000000206260AC SHOWEREN 2000                                         0501
A0101412760000000208659LEMONCITO, JEAN PANCHO                                   0501
A0201400760000000222886JAYME, STEPHEN RODRIGUEZ                                 0501
A0101407690000000243810PAGUIO, ANA CARDENAS                                     0502
A0301400820000000316670TIONG, ARISTON D.                                        0502
A0101408660000000372985NUQUI, MADELINE AMOR DECENA                              0501
A1201400150000000473283SUNGA, ANTHONY FERNAND MUNSAYAC                          0501
A4101400260000000541148SAN JUAN, ANNE PRICEL MANAGO                             0501
A0101413440000000570223LABSAN, CARMEN DELA CRUZ                                 0502
A0101408790000000579357MA. RINA S. VILLARIZA                                    0502
A0101407690000000587884ARBAN, NERIZA REFORMA                                    0502
A1001400350000000922092ARQUIZA, DAISY VICENTE                                   0501
A0601400230000000989962ZHANG, SHAOPENG                                          0502
A0101408240000001038584VBC CAPITAL MARKETS CONSULTANCY                          0501
A0101410140000001074931LEYSON, JEFFERSON DE LA CRUZ                             0501
A3101400870000001177093RIVERO, CHRISTOPHER ABRAGAN                              0501
A0101407140000001218320POLANES, HEGINO AMEN                                     0502
A0101406330000001235272VHANZ HARDWARE                                           0501
A0101412920000001313780ANGELES, THEODOSIA BUSUEGO                               0501
A0201400920000001331731*************                                            0502
A6601400120000001370810VISAYA JR., ROMULO CARIAS                                0501
A0101406040000001391953********                                                 0502
A0101412760000001399339DEL ROSARIO, MARCO ZALETA                                0501
A0101412760000001399340SOON, JOESAN YEE                                         0501
A0101408790000001486331BARREIRO, RAFAEL VILLAR                                  0501
A4101400550000001622593TEJANO, RODRIGO MALUNAS                                  0501
A0601400520000001706792BUNGQUE, ALDRIN CAPILI                                   0501
A0101400150000001708009SISON, JOSEPH CECILIO NACHURA                            0501
A0101407560000001835127MARIANO, REMIGIO MEDIANA                                 0502
A0101408400000001835190TOYOGON, ASUNCION DESTAJO                                0501
A1101400120000001920601MARTINEZ JR., RENATO BARRANTES                           0501
A0101408790000002031390*****                                                    0502
A0301400950000002251952**********                                               0503
A0301400950000002251963LABRADOR, DANTE OLAIVAR                                  0501
A0601400520000002270902GUILAS, ARCEL CASTRO                                     0501
A0101405940000002647670**********                                               0501
A1001400190000002698960RONTAL, KENNETH RALPH ACUNA                              0501
A0101401700041375041001*******                                                  0501
A0101401700041386485001MA. SONIA DINO                                           0501
A0101400150061039916145PANGAN, GALICANO MANALILI                                0501
A0101400150061226995001ANNA MARIA R. AGUILAR                                    0501
A0101400150061700441001SAYLAGO, CLYDE ABAD                                      0501
A0601400100081478374009JOWELL MIRANDA                                           0502
A0101400730111195439001TAN, ROWENA                                              0501
A0101400730111386485136FLAVIANA BAYOD                                           0501
A0101400730111624597001QUIMO, LINDA CUNANAN                                     0507
A0101400440161039572052VICTORIA GINA M. NAVARRO                                 0501
A0101401090171020726002********                                                 0503
A0101401090171200622001DIONISIO F. DEPENA JR.                                   0501
A0101401380201371534001JOSIE ASANON                                             0502
A0101401380201559410001PADON, CLITA GADO                                        0502
A0101401380201618189001CINCO, ROSA OR LAM, LAURENCE                             0502
A0101407140213190961002**********                                               0502
A0101407140213235187001**********                                               0505
A3101400160221027279001TORCHRESEARCH RESOURCES CORP.                            0501
A1001400190231277525001MILLANA, CARINA B.                                       0502
A0101400570281186867001DR. DIANA JEAN ROXAS                                     0502
A0101400570281375245001CHUNG, JANE LEE                                          0501
A0101400570281508394001ORTIZ, MARILYN HEBRON                                    0502
A0801400160311478374055LURELA FERASOL                                           0502
A0801400160311478374093AMELIA H. TAYCO                                          0501
A0801400160311478374104RUBIE BAGAFORO                                           0501
A1101400120313478374094AGAPITO, ROSA P.                                         0501
A1101400120313478374099SALAS, ERIKA GALAROSA                                    0501
A1101400120313478374103ENVERZO, NARISSA LEONORA G.                              0501
A6601400120314042181001ALLAN AGRIVET                                            0503
A0101405650322298552006RUFA MACABENTA                                           0501
A0101402480331281007001*******                                                  0501
A0101402480331407902001***************                                          0502
A0101402480331452834001TIU, WILSON O.                                           0501
A0101402480331454280002****                                                     0502
A0101402480331457746002****                                                     0501
A0101402480331478374003AQUINO, VIRGINIA                                         0501
A0101402480331520766035RICHARD DE REAL                                          0501
A0201401020377085340001MAGALSO, LESLY COMISO                                    0501
A0101402930381205136001NORA LACAP AVILA M.D.                                    0502
A0101402930381325163001SUSAN D. CORNEJO                                         0501
A0101408370382478374001MA. CORAZON L. IBO                                       0501
A0101408790383705873002CINDY CHUA GUTIERREZ                                     0501
A0101408400394030681001BANIG HANDICRAFT AND NOVELTIES                           0502
A0101408400394160344001CALMA, ALFREDO MATAGA                                    0504
A0101408400394424700001QUILAY, EVELINDA QUEBEC                                  0501
A0101408400394478374090MARY DUMASLAN                                            0501
A0101408400394478374094NUNEZ, GENIE                                             0501
A0101408400394497079001MANUEL, HONORIO SACATROPEZ                               0501
A0101408400394639219001ROMERO, FRANCISCO GABION                                 0501
A5501400120410478374001ESTACION, EDELYN                                         0502
A1201400150421039600001CIMAS VERDES CORPORATION                                 0505
A1201400150421076223001OCAMPO, FELY ORILLA                                      0501
A1201400150421455733001TUVERA-ORBITA, XENIA FERRER                              0501
A0101406330472044643001A.S.P. BASIC ENTERPRISES                                 0503
A0101406330472369996001DOLORES P. SUMADIC                                       0501
A0101406330472691386001EDILBERT HOMO GERONIMO                                   0501
A0101406330472793585001ROMMEL F. VIERNESTO                                      0501
A0101405940512397652001JULIETA B. JAVIER                                        0506
A0101408110515091732001ELAINE B. ALVIA                                          0501
A0101403450521238138001**********                                               0501
A0101403450521238811002**********                                               0501
A0101407720602271723042BERNARDO C. CUETO                                        0505
A0101404420631478374076BERNADETH B. MIRANDA                                     0501
A0101404420631478374128MELINDA A. DELOS SANTOS                                  0501
A0101404420631764043001MARVELUZ DELOS REYES CAPULI                              0501
A0101407690652028378002HIGHER GROUND FOOD STATION                               0501
A0101407690652096071001BERNABE, YOLANDA JAVERINA                                0502
A0101407690652700817001PITOGO, CECILIA JALEM                                    0501
A1301400210682478374047JOSIE P. CORONEL                                         0501
A1301400340683445514002DE JESUS, ROMARICO MACAPAGAL                             0502
A1301400340683776169001BARAQUIEL, JOCELYN LIM                                   0502
A0101408240711554763001CUCHON, IRMA BARCELON                                    0502
A2801400100712256682001DELFIN V SANTOS                                          0501
A2801400100712401674002DEL ROSARIO, DANILO LARACAS                              0501
A4101400260812478374055ARLENITA E. MORALITA                                     0501
A4101400260812478374067LAZARA A. SALAGUINTO                                     0501
A4101400390813478374003AUXTERO, ELANE                                           0501
A4101400390813478374062DE SILOS, RUBY MAE                                       0501
A4101400420814040145001DOPARO MARKETING                                         0501
A4101400420814478374040TAN, IMELDA F.                                           0501
A4101400420814478374154CABRERA, FELIZA                                          0501
A4101400420814520766110DELA CRUZ, ARMINDA E.                                    0502
A4101400420814520766130CALAUNAN, ANA LIZA O.                                    0501
A4101400550815478374001ONAYAN, CAROLINA BAUTISTA                                0501
A4101400550815478374010CRISTINO, DANA JAMAICA                                   0501
A0101404840851410953066MAYLEN V. NARDO                                          0501
A0101404840851478374094LETICIA FULLO                                            0501
A0101404840851520766092VIOLETA G BERMAS                                         0504
A4101400390000000034095DELA CRUZ, ALYSSA   OR                                  10510
A3101400870000000074731KARUNUNGAN, RUBY DBU SKY FOOD                           10501
A2601400270000000084273BATALLONES, TELESFORO DBU T.G.                          10505
A0101412890000000371533JOSELITO B. PRAJIO AND MELINDA                          10502
A4101400550000000506814DALAGAN, CATALINO B. OR                                 10504
A4101400550000000506892PURPLE GRAINS AND                                       10501
A1101400120000000652711CONTRERAS, GERMAINE A. OR                               10501
A4101400390000000975162DULCE, MARRIANNE DBU KLARENZ-                           10501
A0301400820000001027809CERVANTES, ROY C. OR CERVANTES,                         10502
A0101413310000001073745BATAC, MARY GRACE G. DBU MOTHER                         10501
A1301400210000001207009ANGULO, AGNES C DBU NKA DENTAL                          10501
A0101406330000001235249DELA CRUZ, PAULO RICO OR DELA                           10501
A3001400130000001271312SHAPE & WELL NUTRITIONAL                                10501
A0101405070000001726121CASAS, CRISTINA DBU CNC                                 10503
A0601400100081360442001DE JESUS, NODY BONIFACIO OR                             10502
A1001400350233272028001MAANDIG, ERLINDA B. OR                                  10503
A0201400890376763623001BELO, EDWARD JOHN DENNIS OR                             10503
A0101402930381505507001TRINOS, ROCHELLE VERANO OR                              10501
A0101403320471212175001CABALDE, EDNA SIMON OR                                  10501
A0101406330472078535001TOBI G. CORCIEGA OR                                     10501
A0101406330472464109002FLORANTE FALCON OR                                      10501
A1901400160491494343001RAINIER C UNTALAN OR                                    10503
A1401400110492222234003MARTINEZ, FERNANDO PELIPADA OR                          10504
A0101407690652025438001BETA BAKERY SUPPLIES & GENERAL                          10502
A0101407690652520766009SHERILL S. LOPEZ - DEALERS OF                           10502
A0101407690652525001075DOCDOCIL, GELITA - DEALERS OF                           10501
A0101407560686366970003CRUZ, RICHELLE OR BRIAN ULEP OR                         10502
A0101406750852306711002JOSELINO J. FERNANDO OR                                 10504
A4101400390000000034095DELA CRUZ, EVANGELINE                                   20500
A3101400870000000074731ALLEY                                                   20500
A2601400270000000084273BATALLONES TRADING                                      20500
A0101412890000000371533F. PRAJIO                                               20500
A4101400550000000506814DALAGAN, TERESITA S.                                    20500
A4101400550000000506892GEN. MERCHANDISE                                        20500
A1101400120000000652711CONTRERAS, GALVIN RAY B.                                20500
A4101400390000000975162KRIZELLE'S CATER                                        20500
A0301400820000001027809FLORA MAY C.                                            20500
A0101413310000001073745BEAR TUTORIAL & LEARNING                                20500
A1301400210000001207009SUPPLY                                                  20500
A0101406330000001235249CRUZ, KATHLEEN KRISTIN                                  20500
A3001400130000001271312PRODUCTS                                                20500
A0101405070000001726121SHIPPING AGENCY                                         20500
A0601400100081360442001DE JESUS, NANETT                                        20500
A1001400350233272028001MAANDIG, CARLSTO                                        20500
A0201400890376763623001BELO, TERESITA L                                        20500
A0101402930381505507001AVILES JR., ISAGAGANI                                   20500
A0101403320471212175001ERNESTO CABALDE                                         20500
A0101406330472078535001PABLO P. CORCIEGA                                       20500
A0101406330472464109002EVELINA FALCON                                          20500
A1901400160491494343001RELYN M UNTALAN                                         20500
A1401400110492222234003MARTINEZ, MA. LU                                        20500
A0101407690652025438001MERCHANDISE                                             20500
A0101407690652520766009SHOECAT INC                                             20500
A0101407690652525001075SHOECAT INC.                                            20500
A0101407560686366970003NEIL GARRET ULEP                                        20500
A0101406750852306711002GINA ROWENA C. FERNANDO                                 20500
B0201401020000000005249BOSTON HARDWARE INC.                                     1603
B3101400740000000013889IM DIGITAL PHIL INC.                                     1606
B0101407720000000017610GFTG PROPERTY HOLDINGS CORPORATION                       1603
B0101402480000000028191QUALIGEN PHARMACY CORP.                                  1602
B0101409210000000031290LSC CORPORATION                                          1602
B0101410140000000038895NANOZ, DE LA CRUZ AND ASSOCIATES, C                      1601
B5501400120000000046860REYES, WILFRED S. AND REYES, AGNES S.                    1601
B0601400100000000142236ANGELES FORTUNE (HONGKONG) SEAFOOD                       1605
B0601400100000000142247ANGELES FORTUNE (HONGKONG) SEAFOOD                       1605
B0101402480000000794292**********                                               1603
B4101400550000000900127D'CHUCKS FOOD CORPORATION                                1601
B0101400730000001242682TOULOUSE FOOD SERVICES INC.                              1605
B0101402480000001927795***********                                              1601
B0101400150061033314001PACIFIC METALS CO., LTD.                                 1605
B0101400150061047569001JACKBILT INDUSTRIES, INCORPORATED                        1602
B0101400730111008426001COUNTRY BANKERS INSURANCE CORPORATION                    1603
B0101401380201041802001D'GLACIERS' MGM INC. - MAC                               1602
B3101400740224017345001PALMPHIL GARMENTS PHILIPPINE CORPORATION                 1610
B0101401670271020835002SLTEAS PHOENIX SOLUTIONS, INC.                           1602
B0101401670271038514001DWIGHTSTEEL BUILDING SYSTEMS INC.                        1603
B0801400160311014079002C C C FINANCE CORPORATION                                1610
B0101402480331019391002**********                                               1602
B0101402480331033229012TGP DRUGSTORE                                            1602
B0101402480331033229024TGP DRUGSTORE                                            1602
B0101402480331036207010MYGENERICS PHARMACY INC.                                 1602
B0101402480331038017001************************************                     1606
B0101402480331039628007TOTALGENERICS PHARMACY INC.                              1602
B0201400760374033207001W.T. CONSTRUCTION, INC.                                  1604
B0101402930381205334001IMPERIAL CREDIT CORPORATION                              1604
B0101409210398703674001J.LEGACY BUILDERS CORPORATION                            1605
B0101403320471027450002********                                                 1601
B0101406330472037717001K.O.M. FOODS SERVICES                                    1602
B0101406330472038572001PASIG STAINLESS CENTER                                   1602
B0101406330472667877001FOREVERSPORTS, INC.                                      1605
B0501400170481013099001JORESSA DEVELOPMENT CORP.                                1603
B0501400170481016209001DAGUPAN FILCO MERCHANDISING                              1602
B0501400170481025398002****                                                     1602
B1401400110492046762001BVFREN AVELLANO BUILDERS INC.                            1601
B0101405940512020791002ACRYDENTAL LABORATORIES, INC.                            1601
B0101408530516190991001MALLORCA REALTY, INC.                                    1604
B0101403450521024807001********                                                 1601
B0101407690652041404001AUBURN POWER TECHNOLOGIES INC.                           1601
B1301400210682036160001RICH-WELL INTERBRAND CORPORATION                         1602
B2801400100712034844002MURAMI SUBIC TRADING CORPORATION                         1601
B0101404840851671030001QUANTUMMEDIA MARKETING INC                               1602
B1401400110000000034619TEE, JAMES ANG OR                                       11602
B0101406330000000162478JOSE JR.,IGNACIO/REGIO,ELISA/SAYOS,MA.CE                11605
B0101401380000000414771BUAN, NENY TOLENTINO AND YU, KLEMENS                    11602
B0101401380000000414811CO, CHRISTOPHER GUEVARRA AND GUEVARRA,                  11602
B0101402480000001927580BRIONES, AR DBU BRIONES HEAVY EQUIPMENT                 11601
B0101402480331039322001LIBRO AT PAPEL INC (MERRIAM AND WEBSTER                 11605
B2801400230713046357001THE PROFESSIONAL GROUP MULTIPURPOSE                     11602
B1401400110000000034619TEE, SALLY ONG                                          21600
B0101406330000000162478CILIA/MATRE,DANI                                        21600
B0101401380000000414771DERWIN SY                                               21600
B0101401380000000414811ELOISA LAXAMANA                                         21600
B0101402480000001927580PARTS SUPPLY                                            21600
B0101402480331039322001BOOKSTORE INC.)                                         21600
B2801400230713046357001COOPERATIVE                                             21600
B4101400130811821100608**********                                               2010
