F0101400570281506759001EDUARDO ROMMEL S. POBLETE                                2502CKO
F0101406590000000905613LA VISTA ASSOCIATION, INC.                               2603CKR
F0101407300395028774001SOLARA MANUFACTURING INC                                 2610CKO
F0901400190431038091001PEASE CORPORATION                                        2601CKR
F0101405940512030823008AVID SALES CORPORATION                                   2610CKR
F0101406880513026861001BONIFACIO WEST DEVELOPMENT CORPORATION                   2604CKO
F0101409890649045548001MAX-TEL INDUSTRIES CORP.                                 2601CKR
F0101404840851023906002LITBEN BROKERAGE, INC.                                   2602CKO
