A0301400790000000040859PILAY, ROMANITO BELACHO                                  0501
A0101400730000000112881GUTIERREZ, DOMINICA DALISAY                              0501
A0101404840000000122681SARAH M. GABILAN                                         0501
A0601400360000000225272ONG, NOEL ESPANTA                                        0501
A0101404680000000384230MA. THERESA V. PANGILINAN                                0501
A0101402350000000443241TUBAL, ABELARDO MATEO                                    0501
A0101413730000000469147PROLINE PLASTIC CO.                                      0502
A0101410300000000592132DE CASTRO, PAUL JAMES R.                                 0503
A0101404840000000683494JOEBERT CORNEJO                                          0501
A4101400420000000710541RIOFLORIDO, MARK ANTHONY A.                              0501
A0101411530000000741684TEODORO, CARMELA KARLA V                                 0501
A0101401700000000890375**********                                               0502
A0101404680000000940910COMEDOY, ROSABEL STA CRUZ                                0501
A4101400260000000974045ANTONIO, WILFREDO GALANG                                 0501
A0601400520000000986581WON, SANG-YONG                                           0501
A0101409050000000999711ARIAS, PINKY OCTOBRE                                     0501
A0101412890000001056484HOMILLANO, ABELARDO MAGDATU                              0501
A5501400120000001121833ASPARIN, ANGELO ASION                                    0501
A0101412180000001293221LOPEZ, NERISSA CABARLES                                  0501
A0101412180000001293232BALINGIT, MAR ALVIN ALVAREZ                              0501
A2001400290000001301142ROMANCE TOURS & SERVICES                                 0501
A0101406040000001391953********                                                 0502
A0101413990000001406462CABALTERA, JONALYN PRECIOSO                              0501
A0101414120000001427612GABORNE, FRUCTUOSO ACOT ACOT                             0501
A0101414120000001427630TUGAY, RAMIL TURA                                        0501
A0101413440000001472806ONGTIOCO, ELSIE BAUTISTA                                 0502
A0101402350000001474186ALBA, FRANKLIN LADERO                                    0501
A0101402350000001474266MARY ROSE P. VIDALLON                                    0502
A0101402350000001474277KWARTENG, RICA DENISE NICOLAS                            0501
A0101409920000001539533DELA CRUZ, GRACE MARY RAMOS                              0501
A1101400120000001547348LIGAN, MITYA COSTIBOLO                                   0501
A1101400120000001547359QUTE TRIP GASOLINE STATION                               0501
A2001400290000001557513MAXINO, JOEY AMARANTE                                    0501
A0101402770000001570623BONIFACIO V. CHAVEZ JR.                                  0501
A0101407270000001596810CHARL LESTER E. QUIJANO                                  0501
A4101400550000001622504ABUDA, ANDRIAN FILBE                                     0501
A4101400550000001622515RIVERA, ROSE MARIE SOLOSA                                0502
A2401400180000001676946SASIL, MARILYN YEE                                       0501
A0101406620000001686553GUATLO, GABRIEL LAMO                                     0501
A0101400150000001708009SISON, JOSEPH CECILIO NACHURA                            0501
A3101400870000001712152LANCETA, CLAUDIA LATAYAN                                 0501
A0101414120000001751402MONTERO, JOHN ABEL EGUIA                                 0501
A0101414120000001751435ROGELIO F CRUZ CONSTRUCTION                              0503
A0101414120000001751468MONTERO, JOHN ABEL EGUIA                                 0501
A4101400260000001783480COLICO, DBU JT 568 GLASS, ALUMI                          0501
A0101408400000001835172CANAVERAL, FLORAMAE CADAVIS                              0501
A0101408400000001835190TOYOGON, ASUNCION DESTAJO                                0501
A0101408400000001835190TOYOGON, ASUNCION DESTAJO                                0501
A0101408400000001835207******                                                   0501
A0101401700041330733010ROLANDO TANTE                                            0501
A0101400150061338964112ROSENDA BERTULDO                                         0502
A0101400150061391947002MONTINOLA, JOSE MA. GO                                   0501
A0101405810072286152001SIY, BAILEY OR JUDY ANN TEUNG                            0503
A0101405810072385132001***********                                              0502
A0101400730111203514026ELEONOR LACUROM                                          0501
A0101400730111347787002CHAVEZ, LYNN FLORENTINO                                  0501
A0101400730111386485175IVANHOE O. MARASIGAN                                     0502
A0101400730111520766002MA. LIZA C MALAQUE                                       0502
A0101400730111520766071PRECIOUS B. RAYMUNDO                                     0501
A0101400440161478374018MA. DELIA P. FERMANTE                                    0501
A0101400440161478374021DOROTHY D. SANICO                                        0501
A0101407270162454469004MATHILDA C. SEE                                          0501
A0101407270162485062001NORLY B. VILLANUEVA                                      0502
A0101407270162561394001******                                                   0502
A0101407270162692465001REYNANTE G. CORTEZ                                       0501
A0101401090171196091001BUENA FE APEPE M.D.                                      0501
A0101401090171198347002ANGELINA &/OR JOSELITO PAYURAN                           0501
A0101401090171353988001CITADEL C. DE CASTRO                                     0502
A0101407140213026790001**********                                               0502
A3101400450223028468001NEW ARMSTRONG SECURITY AGENCY                            0502
A1001400190231520766032BAGARES, JENYFER SATE                                    0501
A1001400190231520766049JOCELYN S. LLUBIT                                        0501
A0101406460272381558001********                                                 0502
A0101406620273519003001CASIMSIMAN, CHRISTIE VILLAMIN                            0501
A0101402350321036762001TRADE SPECS BUILDERS                                     0503
A0101402350321358067002GEALON, GILDA PALOMARIA·                                 0501
A0101402350321478374013ROSALINA M. MARAVILLA                                    0501
A0101402350321708802001ALMAROSE C. VILLAPANDO                                   0501
A0101402350321740344001PALACIO, SONNY ARCA                                      0502
A0101405650322171725001LANTAN, NORIZA ENRIQUEZ                                  0501
A0101408820333478374062SANDRA G. BUENO                                          0501
A0201400920375478374009FABRIGAR, ARCELI CALIB-OG                                0502
A0101408950396331268001AREVALO, ALEJANDRO ESQUIERES                             0501
A2401400180411580807001BESANEZ, MARITES ARCENAL                                 0501
A2401400180411783793001RIMJIM TOYS AND BALLOONS                                 0501
A1401400110492669090001ACYATAN, ANTONIO PACALDA                                 0501
A1401400110492735105001DESEMBRANA, AMELITA SALAZAR                              0501
A0101406880513392233001******                                                   0501
A0101411400517775177001DAVA, AYLA TUAZON                                        0501
A0101407720602397425001HENSON, MARIA THERESA GUEVARA                            0501
A0101404260611574674001SONZA, ANTHONY NALUS                                     0501
A0101409920650478374010EVA B. MANDIIT                                           0501
A0101404680651520766056JOANA G. URBANO                                          0505
A0101404680651687990001EVANGELINE C. ABELLON                                    0501
A1301400210682555728001MARINA M. ROQUE                                          0506
A1301400340683406123001TOBIAS, SUSANA FULGENCIO                                 0503
A4101400420814629727001FACTOR, ELGIN FABRA                                      0501
A4101400550815046007001DIGIBOX PRINTING SERVICES                                0501
A0101404840851520766092VIOLETA G BERMAS                                         0503
A0101405070861478374067TIRSO M. ARROJO JR.                                      0502
A0101405070861478374073ROSARIO V. PARRENO                                       0502
A0101405070861496909001ALEJANDRO, ARNOLD NOEL                                   0501
A1301400760000000050513MICHAEL P. BULANDOS OR                                  10501
A0101414120000000398921MC DAGGLE'S CONSTRUCTION &                              10502
A0101406590000000568861CASTILLO, RODEL ROSALES DBU                             10501
A0101404680000000862226AL-HAMRA TIRE SUPPLY &                                  10502
A0101405810000001021172PUA, C DBU MCK SCHOOL & OFFICE                          10502
A0101405070000001124350DESCALZO, MARIA KHARIN H. OR                            10501
A4101400390000001732521SORINO, RINA DBU RINA SORINO                            10501
A0101414120000001751446MARIA GRACE LACUESTA OR RICKY                           10501
A0101401700041189556001ARNULFO B. TAMAYO JR. OR                                10515
A0601400100081254005001TANGLAO, CARMELO OR                                     10501
A0101400730111392127002MILES, ELIZABETH G.                                     10505
A0101400730111404908001CU, DOROTHY MILDRED SIA                                 10503
A1001400350233539784001ANITA U. ROLIDA OR                                      10501
A0101406620273352977001MADLANGSAKAY, EFREN ASUNCION OR                         10501
A0101402350321176404002GINA A. MATIAS OR                                       10501
A0101411660384047607001QUEEN'S LAIR HAIR CARE AND                              10502
A2401400180411539646003ONCADA, VANESSA CALUBIA OR                              10502
A3801400170490784760001EDYLOU B TEJIDO OR                                      10501
A1901400160491048459001KLENSTAR MANPOWER SERVICE                               10502
A1901400160491244619001ALEJANDRO F UY OR                                       10502
A4101400550815647258001JOAN Q. TEMBLIQUE AND                                   10501
A0101405070861405634001KIKUCHIBARA, ROSALIE OR                                 10503
A1301400760000000050513AMOR P. BULANDOS                                        20500
A0101414120000000398921TRADING                                                 20500
A0101406590000000568861R-19 CONSTRUCTION                                       20500
A0101404680000000862226UNDERCHASIS SERVICE                                     20500
A0101405810000001021172SUPPLIES                                                20500
A0101405070000001124350DESCALZO, LUZVIMINDA H.                                 20500
A4101400390000001732521MEAT AND CHICKEN                                        20500
A0101414120000001751446LACUESTA OR MILEAH GUMELA                               20500
A0101401700041189556001MIRIAM TAMAYO                                           20500
A0601400100081254005001TANGLAO, MARILOU                                        20500
A0101400730111392127002OR JARDIOLIN, MA                                        20500
A0101400730111404908001OR CU, EUGENIO                                          20500
A1001400350233539784001FRANCISCO L. ROLIDA                                     20500
A0101406620273352977001MADLANGSAKAY, MA                                        20500
A0101402350321176404002DANILO M. MATIAS                                        20500
A0101411660384047607001BEAUTY SALON                                            20500
A2401400180411539646003ONCADA, JOSEPH Q                                        20500
A3801400170490784760001JANE C TEJIDO                                           20500
A1901400160491048459001SPECIALIST                                              20500
A1901400160491244619001APOLONIA AGNES B                                        20500
A4101400550815647258001CONRADO B. TEMBL                                        20500
A0101405070861405634001KIKUCHIBARA, TAMIO                                      20500
B0101411400000000001703WU XING FOODS CORPORATION                                1602
B1301400760000000007121GLOBAL CARS PHILS., INC.                                 1605
B31014004500000000141043J CORPORATION                                           1602
B0101405810000000016811***************                                          1603
B0101405070000000028880CLUB YOKO BAR AND RESTAURANT INC.                        1601
B0101407430000000035305SUREWELL EQUITIES, INC.                                  1602
B0601400520000000398589TAZZA DE ORO CAFE                                        1601
B0101414120000000399151POWER PULSE, INC.                                        1602
B0101407270000000830682MULTI-CORPORATE SUPPORT AND RESOURC                      1602
B4101400260000001198881NAGA CRUSHING ROCK AND DEVELOPMENT                       1605
B0101406880000001227430PRINCETON LIFE SCIENCES AND RESEARC                      1601
B0101405810072030630001***************                                          1603
B0101405810072040696002PLASTIC TECHNOBAG CO. LTD.                               1602
B0101405810072405241003**********                                               1603
B0101400730111021297001CRESLEIGH FOODS CORPORATION                              1601
B0101400730111023404001NHMC TRUCKING CORPORATION                                1602
B0101400730111032582001MEDTALENTS INC.                                          1605
B0301400660194794155077*****                                                    1603
B0101406460272047405001ACEBUCHE, E DBU EL ACEBUCHE BUI                          1604
B0101406620273015217001LANDPATCH CORP.                                          1602
B0101406620273020543001GOLDEN DRAGON INDUSTRIAL CORPORATION                     1602
B2001400290315041270001DUMAGUETE PROMPT ENTERPRISES                             1601
B0101402350321039906001SHAWN MARTI ENTEPRISES                                   1602
B0101402350321367886001LITE SIGNS & DESIGNS INC.                                1603
B0101402350321659572001**********                                               1602
B0101409050352672599001NEW YORK HOTEL INC.                                      1605
B0101402770391031763001SIGMA PACKAGING CORPORATION                              1601
B0101407430503040314001MONDE LEI IMPORT                                         1602
B0101407430503044847001BANJAP PHILTRADE INC.                                    1602
B0101406880513676412001NEEDLESTITCH EXPRESS INC.                                1602
B0101408110515027863001INTERNATIONAL SPECIALTY CONCEPTS, INC.                   1603
B0101408530516036530001TEAM GLOBAL FACILITY SOLUTIONS INC.                      1603
B0101403610531021346001ST. PETERS BAKESHOP INC.                                 1603
B0101404000551005021001LPL PLAZA CONDOMINIUM                                    1603
B0101404000551005040002VERNIDA REALTY DEV. CORPORATION                          1602
B1301400210682042117001JELLI'S GAS STATION                                      1602
B2801400100712298202002WIDE-WIDE WORLD EXPRESS CORP.                            1603
B0101405070861008149004TABAQUERIA DE FILIPINAS INC.                             1602
B3801400170000000018788MINDORO PPA EMPLOYEES MULTI-PURPOSE                     11603
B0101402350321434411001JOMANIQ COMMERCIAL AND DEVELOPMENT                      11604
B0101409050352043845001COLLEGE OF ARTS & SCIENCES OF ASIA & THE                11605
B0101407430503047489001MANILA INTERNATIONAL FREIGHT                            11602
B3801400170000000018788COOPERATIVE                                             21600
B0101402350321434411001INCORPORATED                                            21600
B0101409050352043845001PACIFIC (PASIG)                                         21600
B0101407430503047489001FORWARDERS, INC.                                        21600
B0101409050352821100608**********                                               2010
