A0101406750000000017472GATUS, ROSALYN RUFO                                      0501
A2401400180000000019872PABLO, SHARMINE IRISH MORALES                            0502
A0101412210000000031410***********************                                  0502
A2401400180000000073527LAFARDZ MARKETING                                        0501
A2601400270000000084280DIMAS V. AGUILA                                          0501
A0301400660000000194592DIABORDO, FRANCIS JAMES GASTILL                          0501
A0301400660000000194752BACAY JR., ROLANDO ASDALI                                0501
A0301400660000000194752BACAY JR., ROLANDO ASDALI                                0501
A1301400500000000213265JAVIER, VINCENT PASCUAL                                  0505
A5001400170000000213976SUPIL, MICHAEL PACULANANG                                0501
A5501400120000000265850SUENO, ISMAEL JADE BERNARDO                              0501
A0101410560000000268400MACAJELOS SR., GEORGE EPARWA                             0502
A0101408110000000380118BALASON, ROMEO LAYNO                                     0501
A0101406330000000451329LANTO, PEDRO SILVA                                       0501
A0101413730000000469227****************                                         0502
A1601400170000000497412EVANGELINE G. MARINAY                                    0501
A1601400170000000497423MENCHU R. BUADO                                          0501
A0101409920000000523602LUNGSOD, OSCAR ANDRADE                                   0505
A0101412920000000585757ACUNA III, EMILIANO S.                                   0501
A0101400440000000596550BRANDON, ROSITA ERO                                      0501
A4101400420000000710052JUMAWAN, HARRY FAUSTORILLA                               0502
A4101400420000000710223ROMERO, MARICRIS BAUTISTA                                0501
A4101400420000000710369SAULOG, ROLDAN NAVARETTE                                 0501
A0101403320000000732021CORREOS, ANN MAYVILLE V.                                 0501
A0101403320000000736043ADDENBROOKE, TERESITA ABELLA                             0501
A0101403320000000736152DEL ROSARIO, ROMMEL ELISEO                               0501
A0101403320000000736163DEL ROSARIO, RONNIE ELISEO                               0501
A0101400150000000807589RODRIGUEZ, RUBEN DACUMOS                                 0501
A0101401700000000890375CHUA, HAIDEE CAPILI                                      0501
A4101400550000000900270CASTILLO, ARLENE SANTIAGO                                0501
A4101400550000000900281DOCOG, CRISTETA DE JESUS                                 0501
A2801400100000000906132DE GUZMAN, JOSEPHINE BAUTISTA                            0501
A0101410300000000919466VALDEZ, MARICEL REMOTO                                   0501
A2801400230000000937548VI-JETT ACCOUNTING OFFICE                                0501
A0101404840000000943293ROSE MARICEL TAYABAN                                     0501
A4101400390000000975093MEDINA, RIZALINA NAVARRO                                 0501
A4101400390000000975106ANGELES, MARCELA PAREJA                                  0501
A4101400390000000975117BERATIO, RICARDO EROLES                                  0501
A0301400820000001006693ALERTA, PRINCESS J F.                                    0501
A3801400170000001091025MANUEL LUNA III OR RINA LUNA                             0501
A3101400740000001093932TAN, KRISTEL MAURINE CLOSA                               0501
A1401400110000001096139DEMIN, ALLAN SOFRONIO GAYTANO                            0506
A0301400660000001113802CHIU, CLAUDETTE CUE                                      0501
A0101400570000001134241RUTH A. PELINGEN                                         0501
A0101413990000001202446RICAFRENTE, CHRISTOPHER REYES                            0501
A0101407140000001218193SAMPEDRO, JOSEPH ARTHUR AGUINAL                          0501
A3001400130000001271421ALTERADO, LODINA GRANADA                                 0501
A0101406880000001286700EMATA, SHEREE BONDOC                                     0501
A4101400550000001332405RIVERA, ROSALINDA LOVERIA                                0501
A0101411820000001356401JINGLYN MARIE P. PEREZ                                   0501
A0101407720000001393164********                                                 0501
A0101400440000001439772HAYAHAY, ALMA ECRAELA                                    0501
A0101413440000001472679LACAMBACAL, MA  AURA DE LEON                             0501
A0101412630000001485190CASTRO, AILEEN TORRES                                    0502
A0101406750000001491772ARANAS, FRANCIS SOLIS                                    0501
A0301400820000001554649HAGUIMIT, AILEEN C.                                      0501
A4101400260000001673350TAPAYAN, ZAIRA MARIE MEDINA                              0501
A0101401250021179040001NORMA LANORIA VALEROSO                                   0503
A0101401700041188743001CAROLINE T. ONG OR WILSON ONG                            0502
A0101400150061226728001ZENAIDA S. HERNANDEZ                                     0503
A0101400150061236944060VICTORIN0 T. RUBICA                                      0502
A0101400150061532387001NATIVIDAD, ANABELE REDONDO                               0501
A0101400730111520766060MONTILLA, BONIFACIO VIRAY                                0501
A0101406040112207941001DOMINGUEZ, APOLONIO II VILORIA                           0501
A0101406040112553569001ANNALIZA C. MANDAGUIT                                    0501
A0101401090171295293002ERNESTO R. GONZALES                                      0501
A0101407140213351602001**********                                               0501
A3101400160221036052001NUTRILAY TECHNO-AGRIVET                                  0502
A3001400130230478374008GAMO, HAYDEE EDEN CAFE                                   0501
A3001400130230687050088**********                                               0503
A1001400190231038123001TECHNIQUE PAINT CENTER                                   0505
A1001400190231504572001PANGADIR, MUSLIMA MAGIGIRED                              0502
A1301400470252634995001LOUISE L. ANG AND LOED L. ANG                            0510
A0101406620273236978001CALLEJA, HOWARD MACEDA                                   0503
A0101410980275081510188********                                                 0502
A6601400120314637806001ESTIGOY, DIEGO ACERO                                     0502
A0101408820333642429001MERCADO, JOSE MANABAT                                    0504
A0201400890376458157001SEVILLENO, JESSETTE CHUA                                 0501
A0101405490392301424001ENCARNACION O. SANTIANO                                  0503
A0101403030441590302001**********                                               0505
A0101403320471325110002EDUARDO BORLAGDAN                                        0502
A0101406330472081531001MARIA SHIERILA I. YANG                                   0504
A0101406330472296884001JAYLEE TRADING                                           0502
A0101406330472369996001DOLORES P. SUMADIC                                       0501
A0101406330472478374015MARIA R. JURINARIO                                       0501
A0101406330472528023001RONALDO L. GERON                                         0503
A0101406330472566475001MICHELLE A. MACALINAO                                    0501
A0101405940512020021002F. LEANO AND COMPANY                                     0501
A0101403610531219680004RONWHEELS PARTS & ACCESORIES                             0501
A0101403610531279193002MORANO, ELISA QUEJANO                                    0501
A0101403610531762081001MIRANDA, SUSAN ESPINILI                                  0501
A0101407720602164095001BIGLAEN, ANGELES LIGARTE                                 0503
A0101407720602401503001MARIA LIZA G. FRANCISCO                                  0506
A0101404260611041714001ALEJANDRO DRUG STORE                                     0502
A0101404260611406547001OSONGCO, MARICEL OR ERLITO                               0501
A0101404260611478374081ROSITA VIVIT                                             0502
A0101404260611478374098CECILIA ORIAS                                            0501
A0101404420631456216001******                                                   0501
A1301400210682478374043JOANA N MARTIN                                           0501
A1301400340683378168001RODIL, CONSUELO CREUS                                    0501
A1701400230693478374047BENITO, ROVILLA GOODALE                                  0501
A0101408240711478374009MARIVIC C. FLORA                                         0501
A0101408240711630742001SAYO, MARK ANTHONY PAMINAR                               0501
A2801400100712483710001******                                                   0502
A4101400260812423341001ESTEFANIA B. RANDOY                                      0505
A4101400420814520766077DOMINGUEZ, SYLLIE                                        0501
A0101404840851298552055MELBA C. ENGBINO                                         0502
A0101404840851478374094LETICIA FULLO                                            0502
A0101404840851520766196MARGARET CABANERO                                        0501
A0101406750852617055001PUA, HERMINIA SALAS                                      0501
A0101412500000000041647CHAN, EDITHA GO DBU TOP EDGE                            10503
A0101412920000000276362PENIALBER, MARK ANTHONY OR                              10501
A1601400170000000421190JOHN F. TORROCHA OR                                     10501
A0101403320000000452340ONGTENGCO, C DBU CAJO INTL                              10503
A4101400390000000975060DIONEDA, MERLE DBU MERLE                                10501
A4101400390000000975071ORTEGA, NATHALIE DBU NATH'S DRY                         10501
A4101400390000000975082ARMAS, ALDEN DBU ALDEN A ARMAS                          10501
A1301400470000001299032ARNOLD PASCUAL OR JAYSON CANDEL                         10502
A2201400250000001545433CATALINA INES B. TAJANLANGIT OR                         10501
A4101400260000001673343VENTURA JR., PRIMITIVO                                  10501
A0101401700041188995001MURPHY CHU OR BETTY CHU OR                              10502
A0101400150061584819001RELLOSA, HORACIO MIJARES                                10505
A0101407270162085922002SPIRO LU CLEMENTE AND                                   10501
A0101401090171031503001MINT MUNCH CANTEEN & GENERAL                            10501
A3001400130230757981001SACAY, RENE CANTOR OR SACAY,                            10506
A1301400470252542724001EMMANUEL S. PAYNOR OR                                   10502
A0101408660274521676001MABASA, CARISSA MOONYEEN S. OR                          10503
A0101403320471549019001CRUZ, ALTHER EVANGELISTA                                10501
A0101406330472214311001JULITA BALCUEVA OR ERMELO                               10506
A0101406330472481679001MA. CRISTINA LOPEZ OR                                   10501
A0501400170481253553001DRA. LIBERTY P. SUMILANG OR                             10503
A1901400160491244484001IRENE H BERBA OR                                        10505
A0101406880513560905001DEMETRIO Q. QUADRA III OR                               10502
A0101403610531744335001OCAMPO, JHUN BANGIT OR                                  10502
A2201400250561315662002LAARNI M. TARRONAS OR                                   10501
A4101400420814034138001MCMAR & MARY ELECTRICAL &                               10503
A0101412500000000041647GARMENTS                                                20500
A0101412920000000276362PENIALBER, NHELLEAH                                     20500
A1601400170000000421190ROCHELLE A. TORROCHA                                    20500
A0101403320000000452340TRADING                                                 20500
A4101400390000000975060DIONEDA STORE                                           20500
A4101400390000000975071GOODS                                                   20500
A4101400390000000975082MINI STORE                                              20500
A1301400470000001299032ARIA OR ROCKY HIPOLITO                                  20500
A2201400250000001545433RANDOLPH C. TAJANLANGIT                                 20500
A4101400260000001673343VALENZUELA                                              20500
A0101401700041188995001JAIMIE LYNN GUE                                         20500
A0101400150061584819001OR RELLOSA, MA. LYNN                                    20500
A0101407270162085922002JOSEF CHUA LU                                           20500
A0101401090171031503001MERCHANDISE                                             20500
A3001400130230757981001JOSEPHINE SIMBIT                                        20500
A1301400470252542724001MA. CRISTINA SALAS-PAYNOR                               20500
A0101408660274521676001MABASA, GERARD Q                                        20500
A0101403320471549019001OR AMELIA E. CRUz                                       20500
A0101406330472214311001BALCUEVA                                                20500
A0101406330472481679001ROGELIO LOPEZ                                           20500
A0501400170481253553001DR. ROMANOFF J.                                         20500
A1901400160491244484001CARLOS R BERBA                                          20500
A0101406880513560905001MARIA LEZYLDA V                                         20500
A0101403610531744335001OCAMPO, RHEA LIMJUICO                                   20500
A2201400250561315662002RICHARD S. TARRONAS                                     20500
A4101400420814034138001CONSTRUCTION SUPPLY                                     20500
B0101400150000000000124WORLD AVIATION CORPORATION                               1603
B0201401020000000005078COMMONWEALTH INSURANCE COMPANY                           1601
B0101411240000000012040CHUA, MICHAEL LI                                         1601
B0101411240000000012073ADVANTAGE-VEGA BUSINESS SERVICES INC.                    1601
B0101406880000000027238TRUE ACCESS DISTRIBUTORS, INC.                           1601
B0101412500000000041750FAITH BAPTIST CHURCH INC.                                1605
B0101413990000000206124BENZ-CY ENTERPRISES INC.                                 1601
B0101400150000000633243MICROSEED TECHNOLOGIES INC.                              1601
B0101411080000000805969*****                                                    1602
B0101408240000000832495MARINELIFT SHIPYARD AND REPAIR INC.                      1605
B0101401250021039454001PREMIUM PLASTIC GROUP MFG. CORP.                         1601
B0101401700041036641001OMNILEX TRADING                                          1601
B0101401090171008012025UNIVERSITY OF SANTO TOMAS                                1602
B0101401090171051858001NAZROS CORP.                                             1601
B0101401670271045353001DETECTNET SECURITY CREDIT COOPERATIVE                    1601
B0101406620273046907001RS CONCEPTS, INC.                                        1610
B0101408820333042436001TM TOPS MERCHANDISING                                    1605
B0101402060351009577001AGC FLAT GLASS PHILIPPINES, INC.                         1602
B0101409050352042202002DAN VIL COMMERCIAL CORPORATION                           1602
B0101405490392332339001**********                                               1603
B2401400180411036779001********                                                 1602
B0101403320471030933001JCIP MARIKINA MARIKIT INC.                               1601
B0501400170481018109001*********                                                1601
B0101403450521011644001PACIFIC PAINT (BOYSEN) PHILIPPINES                       1601
B0101403450521011872001**********                                               1601
B0101403450521012137002**********                                               1604
B0101403450521021842005WALL VISION CORPORATION                                  1605
B0101404260611035660001BETERAVIA CREDIT CORPORATION                             1602
B0101407560686027053001TECHWOOD MANUFACTURING CORPORATION                       1602
B2801400100712027300001PORTLAND MARINE SERVICES INC.                            1603
B4101400420814016269002DAMAYAN SA ANABU II B CREDIT COOPERATIVE                 1602
B0101401960000000008120GADINGAN, TEODORA D. AND                                11601
B0101412210000000031512WALL STREET ACCOUNTING AND BUSINESS                     11602
B2601400270000000084382ONG JR,PEDRO DBU CELCIUS MDSING AND AUTO                11605
B0101402060351032794001ROYAL VILLAS MENDEZ HOMEOWNERS                          11602
B0101401960000000008120VILLA, ANTONIO L                                        21600
B0101412210000000031512SOLUTIONS INC.                                          21600
B2601400270000000084382PARTS SUPPLY                                            21600
B0101402060351032794001ASSOCIATION,INC.                                        21600
B0101411530654821100608**********                                               2001
