A0101410850000000005778*****                                                    0501
A0101400440000000029445ABRAZADO, APRIL BERNALDO                                 0501
A1601400170000000036502SEADOG DINER                                             0501
A0101412920000000042019**********                                               0501
A0101412340000000044802MANDAP, JOAN MARIE ISAIS                                 0501
A0101400440000000337637DOMINIQUE FAYE C. CERBAS                                 0501
A0901400220000000425045LOZADA, ELIZABETH GO                                     0501
A2401400180000000428033BANISIL, BEATRIZ FUSTER                                  0501
A1601400170000000497467ADOLFO J. RUBILLOS JR.                                   0502
A0101408240000000521822MANGLAPUS JR., RAUL LAO                                  0501
A0101400150000000525455BUNDA, RYAN CULAS                                        0501
A0101404000000000574583JOSE, VAN SIMON CARMONA                                  0501
A2401400180000000826233OXALES, HANNAH LOUISE RAQUEDAN                           0501
A2801400230000000937606NTN TRADING                                              0501
A4101400550000000981831BESANA, ARDITH GALVAN                                    0501
A1301400210000000983815FELICITAS S SUNGA                                        0501
A0101409050000000999528TRIA, JAYA PATRICIA MAREE DE GU                          0501
A0101409050000000999562PUNZALAN, SALVE MARIE SOLIDUM                            0501
A0101409050000000999642CASTILLO, ASHRICK REIGN BELLO                            0501
A0101409050000000999682ANDAL, LOUIE ROBLES                                      0501
A0101412890000001056360AMIDO, NORMA GUEVARA                                     0501
A0101413570000001069483JOSEFINA E. GAMIL                                        0501
A3101400870000001146430YU SENG, ONG CHI BENG                                    0501
A0101408400000001213654MARQUEZ, MAYLENE                                         0501
A0101412210000001236231ITO, SHIRLEY MORENO                                      0501
A3001400130000001271534PULIDO, PEARL ANN DAY                                    0501
A3001400130000001271545SAKURAI, CRISEL NUNEZ                                    0501
A0101407560000001276233EUSTAQUIO, DYESEBEL BONANZA                              0501
A0101411400000001280331ROMAN, CHRISTIAN HIZON                                   0501
A0101410560000001291054QUIAMBAO, ALYSSA MARIE FRANCO                            0502
A0101412920000001313717*******                                                  0501
A1901400290000001363053RUDY B MANGUIAT                                          0510
A1901400290000001363064MARIANO BENEDICTO GUTIERREZ JR.                          0501
A1301400340000001415612********                                                 0501
A1301400340000001415634********                                                 0501
A0601400100000001442791MANDAP, LARRY CORTEZ DBU LC MAN                          0501
A0601400100000001442808BERNARDO, LILIAN VILLAPANA                               0502
A0101412630000001485332BERNADAS, GRACIELA COMODA                                0501
A0101406750000001491896AGUILOS, MARY AMBROSE MACALINO                           0501
A0101406750000001491903LIBAY, SANDY FRANCISCO                                   0501
A1101400120000001547291REAS JR., ARISTON NARTIA                                 0501
A2401400180000001676980BAUTISTA, LUELLEN MABITAD                                0501
A2401400180000001677001WONG, RUDILYN ARSA                                       0501
A0101406620000001686462DURAN, ROBERT CHING DBU RCD GEN                          0502
A4101400390000001732485DELA CRUZ, LUISITO VILLEGAS                              0501
A0101414120000001751377KITMA, SILVAN VIRGILIO ENRIQUEZ                          0502
A0101414120000001751388LVQ MERCHANDISING                                        0501
A3101400160000001792101MARK Y BARRIOS                                           0501
A0101413860000001911382BANACIA, JERRALD BOMBEE DE VERA                          0501
A0101411370022790042001HELEN L. CO OR MICHEL S. CO                              0501
A0101400150061232035003NORBERTO REYES OR SOLEDAD REYES                          0501
A0101405810072504630001LIM, BEE SUAN                                            0501
A0601400100081318637001CABRERA, CYNTHIA NARCISO                                 0501
A0101410560110478374013CYNTHIA EVANGELISTA MENDOZA                              0501
A0101401960121238845001**********                                               0501
A0101400440161030637001AREMCI BUILDERS                                          0505
A0101400440161478374089ROSEMARIE C. CERBAS                                      0501
A0101400440161525001139JEMARIE S. SALUDAR                                       0501
A0101401090171197706002LINA M. PAGUILA                                          0502
A0101401090171661846001ALEJANDRO S. BERNARDO                                    0501
A3101400160221220177001ROGER T. PEREZ                                           0502
A3001400130230687368088XXXXXXXXXX                                               0510
A3001400130230767566021MONTALBAN JR., ANTONIO S.                                0502
A1901400290261692693001SUZELLE MARIZ JAVIER LUMBERA                             0501
A0101401670271518087001* * * * * * *                                            0501
A2601400270302698462001ALBERT OR NELIA LIM                                      0501
A0101402350321336040001CHERRY O. OGAYON                                         0502
A0101405650322539535001******                                                   0502
A0101402060351367584001JAVA, MARY ANN VILLEGAS                                  0501
A0201400920375036567001VIRLO CONSTRUCTION                                       0510
A5501400120410094343001PINEDA, VICTORINA GOLENG                                 0501
A2401400180411023998002ENE MARKETING                                            0503
A2401400180411042912088QUISHA FOODS                                             0502
A2401400180411478374039ABRENICA, COSMECIA L.                                    0501
A2401400180411478374054LUENGO, IMELDA AMPO                                      0501
A2401400180411561848001CANAS, ANICETA REJAS                                     0501
A2401400180411623548001ASIS, CITA DELIA CABADING                                0503
A2401400180411688592001DUCENA, RONNIE PIZON                                     0502
A1201400150421257377001SANAUNA OR MANNY PUNDOGAR                                0506
A0101403030441464115001**********                                               0501
A0501400170481043466001RUSKIN MARKETING                                         0503
A0101403450521238265001**********                                               0502
A0101403450521238302001**********                                               0502
A0101407720602396506002DR. ESTELA Z. CABRERA                                    0501
A0101407720602415232037MA. TERESA CALAUD                                        0501
A0101410300663752531001*****                                                    0501
A0101407560686035938001JERDAN AUTO SUPPLY                                       0503
A4101400420814478374174CUEVAS, AILENE V.                                        0501
A4101400420814520766094LODILYN P. VILLAMOR                                      0501
A0101412890000000007514RICO T RIVERA DBU WISEMIX                               10502
A1601400170000000421047JUVY G. VILLANUEVA DBU                                  10501
A0101411950000000490813KARRYLYN F. LECTURA OR                                  10501
A2601400270000000561551RODERICK E. MADRIDEO OR                                 10501
A0101414120000000649025GERNESON ESPENORIO OR                                   10501
A0101414120000000875594ARNOLD ARROYO AND SILVESTRA                             10501
A0101412340000001017769LUZARAN, FERNANDO DELA TORRE OR                         10501
A1901400290000001363031OBLATES OF SAINT JOSEPH                                 10501
A1901400290000001363042SIASON, JEMALYN P.                                      10501
A0101413440000001472782MONSAY, MARY ROSE P.                                    10505
A2401400180000001676991CASABUENA, RICHARD JOHN JOHN                            10501
A0101400440161471044001SHERWIN T GERBUYOS OR                                   10505
A0101407140213161554001ANALYN M. SAMBALE OR                                    10501
A0101401670271192707006FEDERICO C. LIM OR TORRES,                              10501
A1101400120313542847001LAO, WILSON JOSE S. OR LAO,                             10510
A0101402350321597544001ROBERTO T. ARSITIO OR                                   10501
A0101408820333315935001DONATO M. PAMILOZA OR                                   10510
A0101403320471400801001MARILEN I. CRUZ                                         10503
A0501400170481717828001TAN JR., ANDREW KUA OR                                  10501
A0101407720602332279002CAYCO, ANTONIO V. OR                                    10501
A0101407720602396293001KANAPI, MANUEL LOPEZ OR                                 10510
A4101400420814480121001FABREAG, DELIA FLORES OR                                10502
A0101412890000000007514CONSTRUCTION SUP                                        20500
A1601400170000000421047THE BICOL GREENLEAF FRILL                               20500
A0101411950000000490813ARVIN MARI N. LECTURA                                   20500
A2601400270000000561551JUANITA S. MADRIDEO                                     20500
A0101414120000000649025RHEA ESPENORIO                                          20500
A0101414120000000875594SORONDO                                                 20500
A0101412340000001017769LUZARAN, CERIZA DELA CRUZ                               20500
A1901400290000001363031(PHIL. PROVINCE) INC.                                   20500
A1901400290000001363042DBU VONHESSEN TRANSPORT                                 20500
A0101413440000001472782AND EVALE, ANALIE S.                                    20500
A2401400180000001676991FRANCISCO                                               20500
A0101400440161471044001CRISTINA I GERBU                                        20500
A0101407140213161554001ALBERTO V. SAMBALE                                      20500
A0101401670271192707006VIRGINIA CHRISTINE L.                                   20500
A1101400120313542847001JOVITA T. OR LAO, WILBERT                               20500
A0101402350321597544001LUVIZMINDA L. ARSITIO                                   20500
A0101408820333315935001LUCITA P. PAMILO                                        20500
A0101403320471400801001OR DENNIS MICHAEL CRUZ                                  20500
A0501400170481717828001TAN, NATHALIE I.                                        20500
A0101407720602332279002CAYCO, MARGARITA                                        20500
A0101407720602396293001KANAPI, GLYNISH                                         20500
A4101400420814480121001FABREAG, BOBBY F                                        20500
B1001400350000000017154STRONGHOLD INSURANCE CO., INC                            1603
B0101412920000000042071SW TRAVELTIME INC.                                       1602
B1001400480000000133593DELUXE RANCH TRANSPORT CORPORATION                       1601
B0601400100000000142145MULTI PLY PAPER VENTURES, INC.                           1603
B0101400440000000335453SAGUDO, ELLEN SANCHEZ                                    1601
B0101414120000000399093*****                                                    1604
B0101404000000000460991DAVID'S SALON INC.                                       1602
B0101403320000001647116SMILE CONCEPT DENTAL CENTER                              1601
B0101405810072012504001**********                                               1602
B0101405810072083905001HONG, HAN MING                                           1601
B0101405810072412798001**********                                               1603
B0101405810072412798002**********                                               1603
B0601400100081044499001CLARK ELECTRIC DISTRIBUTION CORPORATION                  1601
B0101400440161787260001MUSNI, MARIAN BAUTISTA                                   1602
B0101401090171201379001PROGRAPHICS ENTERPRISES, INC.                            1601
B0101407140213387771002**********                                               1605
B0101401670271026619001N S J ENTERPRISES, INC.                                  1610
B0101406460272075548001IVAPRO LAND CORPORATION                                  1602
B0101406620273018522001VALYERMO TRADING CORPORATION                             1601
B0101405650322033184002ASIA PLUS CORPORATION                                    1605
B0101408820333041843001SERVICTORY CO. LTD.                                      1601
B0201400760374035335001MECHAIRE, INC.                                           1610
B0101407430503036950001PASSAGES MANPOWER, INC.                                  1601
B0101403450521476625001PIMENTEL, ROSSETTEE CO                                   1601
B0101404420631021798001POLYMAN MANUFACTURING CORPORATION                        1604
B0101408240711025397001KINGSMEN CORPORATION                                     1605
B4101400420814042599001ASIA MEDIC DIAGNOSTIC AND SPECIALTY                      1610
B0101406750852047743001EUROBRANDS DISTRIBUTOR, INC.                             1610
B0101405490000001092488NORTHSHORE HARDWARE & CONSTRUCTION                      11605
B0101407270162019023001PHILIPPINE BATTERIES,                                   11610
B2401400180411338845003ROBERTO OR JANET PERALES JT ANTONIO OR                  11605
B0101405490000001092488SUPPLY                                                  21600
B0101407270162019023001INCORPORATED                                            21600
B2401400180411338845003ADELENE PERALES                                         21600
