F0101407300395411498001TUAZON, REMIGIO M.                                       2506CKO
F4101400550815696811001TAN, JENNIFER ROSAS                                      2501CKO
F0301400110000003762685LU, WILSON LU JT WORSLEY,ANDREW                          2601CKR
F0101404000551022435002ARANAS LAW OFFICES                                       2602CKR
F0101404000551022435003ARANAS LAW OFFICES                                       2602CKR
F0101407690652020031002OXFORD MINES INCORPORATED                                2601CKR
F0101402510341008068002CEU FACULTY & ALLIED WORKERS                            12605CKR
F0101404260611034502001RSC MARKETING SERVICES                                  12601CKR
F0101402510341008068002UNION                                                   22600CKR
F0101404260611034502001CORPORATION                                             22600CKR
