F3201400190000001492935SY, MIMI ENA LUCIA PIRA OR                              12501CKO
F3201400190000001493078CORAZON SHIRLY TAN DBU FELICOR                          12501CKO
F3201400190000001492935FERNANDO L. SY J                                        22500CKO
F3201400190000001493078MERCHANDISING                                           22500CKO
F0101401120131030124003MIGALLOS & LUNA LAW OFFICES                              2602CKR
F0201400180181029800001YOUNGMAN HAULERS SAND & GRAVEL                           2602CKO
F0301400110191038997168DAVAO HELEN'S PAWNSHOP CORP.                             2603CKR
F0401400140241032659002POWERHOUSE DISTRIBUTORS, INC.                            2601CKR
F1901400290261039017001FARM TECH ANIMAL HEALTH CO.                              2601CKR
F1901400290261039623001B & V LAYER FARM                                         2602CKR
F0101402770391030168001XYTRIX SYSTEMS CORPORATION                               2605CKR
F0101407430503029122001CUSTOMSTRADE ADVOCATES CO.                               2601CKR
F0101400730111040071002RALPH ANTHONY REALTY                                    12602CKR
F0101400730111040071002CORPORATION                                             22600CKR
