F1701400230000001269438ASIS, BABY RAQUEL GARCIA                                 2502CKO
F0101408530516476384001FRITZ KENNETH L. CHUA                                    2503CKO
F0201400180181037108002SAN REMIGIO TRUCKING SERVICES                            2601CKR
F0101406620273041169001FIBERCOM TELECOM PHILS., INC.                            2605CKR
F0101410850000001229641PILKO MARINE TRANSPORT                                  12603CKR
F0101403580511023910001P.J. LHUILLIER DEVELOPMENT                              12602CKR
F0101410850000001229641CORPORATION                                             22600CKR
F0101403580511023910001CORPORATION                                             22600CKR
F0201400180181041625001CEBU HYBRID FARMS CORPORATION                            2702CKC
