F0101400570281426767001GERALDINE SIENA L. MARIANO, M.D                          2503CKO
F0101400570281506759001EDUARDO ROMMEL S. POBLETE                                2502CKO
F0101407720602404950001ADAPON, MARY ANN ARKONCEL                                2504CKO
F0101408240711442487001REGINA J. LOPEZ                                          2504CKO
F0101408530516484429001DIAZ, DOMINGO IGNATIUS F. OR                            12502CKO
F0101408530516484429001DIAZ, NATALIA F.                                        22500CKO
F0101406750000000017563MULTI MERCHANTRADE INC                                   2650CKR
F1801400130151048749001MSU-IIT NMPC TUBOD BR.                                   2601CKR
F0101405780212039655001CMC DIAGNOSTICS, INC.                                    2602CKR
F3101400450223739176001*****                                                    2603CKO
F3301400120581014889002B & J COMPUTER & ELECTRONIC SERVICE                      2601CKO
F0201400180181053267001NEW GOODLY MERCANTILE, INC.                              2702CKC
