A0101411400000000001510DE LOS SANTOS, MELANIE DAIZ                              0501
A0101402480000000028060*********                                                0501
A0101408400000000077941LAUREAN PLANTS & FLOWERS SHOP                            0503
A0101406750000000090913OCE METAL PRODUCTS                                       0502
A1301400500000000213021DARCEN, SOLEDAD MERCADO                                  0501
A1901400160000000243592CARLITO RAMOS BAGON JR.                                  0501
A0101402480000000310681********                                                 0502
A0101412760000000530607ROJO, GILBERT BELARMINO                                  0502
A0101400440000000596629ZENAIDA O. CALLEJO                                       0501
A0101401380000000792121GOMEZ, DAISY ALLADA                                      0503
A0101413020000000880520CHONG, SIOK SOAN SY                                      0502
A0101411370000000903560PAZ, JULIET SINGABOL                                     0501
A1301400340000000980212OLIVETE, FELOMENA MONTANIEL                              0502
A0301400790000001010619CABASAG, JEY R LAGONOY                                   0502
A0101408400000001035498JACOB, MICHELLE SARDEA                                   0504
A0101405490000001092751MARIA TERESINA G. MESINA                                 0502
A0101410980000001154450EUSTAQUIO, PIA ANN PATRICE                               0501
A0101406330000001235330MERYLEX SHOES                                            0501
A0101400600000001335579********                                                 0501
A0101401380000001412640AQUINO, CHARITO MENDOZA                                  0501
A0101400440000001440077PAJARO, CATHERINE PANAUNGON                              0501
A0101402770000001571119TANG, SHU WING                                           0501
A4101400550000001622593TEJANO, RODRIGO MALUNAS                                  0502
A0101401380000001819809TOLENTINO, MAUREEN CENTENO                               0501
A0101400730000001822522NG, JAMES LUK                                            0502
A0101402480000001927802***********                                              0503
A0101408400000001952770MERIAN B BUERE                                           0501
A0101408400000001981542CUANO, MARITA GUEVARA                                    0502
A0101400440000002249618SERVEWELL TRADING                                        0502
A0101408950000002255307BERTOSO, SHEILA ESPINA                                   0501
A2601400270000002257110SHEENA MARIE MAMERTA V. CULHI                            0501
A0101410690000002290746JENSEN, ANA MAUREEN ENRIQUEZ                             0501
A1001400350000002367273CHAN JR., BENJAMIN PO                                    0506
A1001400350000002367308CASINO, TORIBIO LAO                                      0502
A0101401380000002787057MACAPAGAL, ELIZABETH TAMONDONG                           0501
A0101411400000003342981CRUZ, NORMITA ALIBUDBUD                                  0501
A0101400860011086656001**********                                               0503
A0101400860011386392002**********                                               0505
A0101400860011404358002**********                                               0503
A0101400860011432973001**********                                               0505
A0101400860011486826001**********                                               0502
A0101400860011532652001**********                                               0502
A0101400860011613579002**********                                               0502
A0101401700041565412001COMEDA, MARIO TADURAN                                    0505
A0101400150061315349006JOEY MENDOZA                                             0501
A0101400150061530970002PANGHULAN, REX ANGELO QUILAO                             0501
A0101400600071234714001**********                                               0505
A0601400100081039671001TOLENTINO INSURANCE AGENCY                               0505
A0601400100081345068001GUIAO, JOEL MANABAT                                      0501
A0601400100081478374009JOWELL MIRANDA                                           0502
A0601400100081498065001VILLANUEVA, JERRY OR ORLITA                              0501
A0101400730111198377001STARADUB, ROBERT PATRICK                                 0501
A0101406040112055495001********                                                 0501
A0101400440161520766060CRESENCIA CLEOFE                                         0501
A0101400440161525001033MARY JANE V. MACALINAO                                   0501
A0101407270162047643001PORTS UNIFIED CARGO SOLUTIONS                            0503
A0101407270162333003004MAURO C. AGUSTINES                                       0502
A0101407270162333006028BENEDICT M. CALINA                                       0501
A0101407270162673794001IMEE P. LIM                                              0503
A0101401380201565925001MERCADO, NOYMINDA ALVAREZ                                0502
A0101401380201672244001******************************                           0501
A0101407140213388620001**********                                               0502
A3101400160221220343001LAARNI A. CALAPATIA                                      0502
A1001400190231520766089CODILLA, ORLAND ORIAS                                    0502
A1001400190231629873001BOMEDIANO, ANASTACIA SEMAFRANCA                          0502
A1901400290261078910001THOR VICTOR DIZON KORIONOFF                              0501
A0101406620273375598004VIRGINIA SAPINA                                          0501
A0101400570281255738001SAWIT, JOSEFINA BARON                                    0501
A0101400570281507259001DIMAANO, MA. ELSIE MACALINDONG                           0501
A0801400160311413609001LIM, JOSEPH PO                                           0505
A1101400120313478374079CORANEZ, MARIJOE N.                                      0503
A0101402480331412018001*******                                                  0502
A0101402480331478374052FELOMINA, SHIRLEY                                        0501
A0101402480331532602001***************                                          0502
A0101408820333476354001SUCGANG, JOHNY PALOMA                                    0502
A0101408370382392325001DR. JOSEPHINE B. RAMOS                                   0505
A0101408400394033625002IVAN COMPUTER SYSTEM                                     0506
A0101408400394033958001RCBP-STA MARTHA PARISH                                   0502
A0101408400394159750001ROMERO, FRANCISCA BAUTISTA                               0502
A0101408400394478374062APOLIS, SALVACION G.                                     0502
A0101408400394478374090MARY DUMASLAN                                            0501
A0101408400394508550001BUSTOS, SHARONE ROSE HIJADA                              0502
A0101408400394606034001PANDA, DIANALAN MACABANDING                              0501
A5501400120410787960001TANTERAS, EDWIN MONTEJO                                  0502
A2401400180411478374042JOYCE R. GALLEON                                         0501
A1201400150421732515001DULNOAN, DWIGHT SERRANO                                  0501
A0101403030441658787001**********                                               0503
A0101406330472460738001********                                                 0501
A0101406330472508335002RAMIR R. ALVAREZ                                         0503
A0501400170481318580009SINLAO, ANA CRISTINA LEGASPI                             0510
A1401400110492364401001RAFA, RAQUELITA RAQUEL                                   0501
A0101403450521370358001**********                                               0501
A0101404130601345507001ADRIATICO, ULYSSES CORPUS                                0501
A0101404260611155266001YU, SUSANA OR EDDIE                                      0501
A0101404260611478374065MARIA CHRISTINE ELIZARIO                                 0502
A0101404260611478374104JUDITH R LUMBO                                           0501
A0101409920650089841001SIA, REYNALDO CABRERA                                    0503
A0101407690652207772001ROBIN OR TERESITA SY SUAN                                0502
A0101407690652342069001BENIGNO C. CAISIP                                        0502
A0101407690652528874001PEREZ, EMERITA TUAZON                                    0501
A0101407560686588648001*********                                                0501
A0101408240711441984001SANTOS, MARIA VIRGINIA QUESADA                           0501
A0101408240711478374009MARIVIC C. FLORA                                         0501
A2801400100712401674002DEL ROSARIO, DANILO LARACAS                              0501
A4101400260812494463001EMILY V. CARPIO                                          0502
A4101400390813735161001ALMAZAN, MA. ROSELLE BARBOSA                             0501
A0101404840851520766195JEANNIE RACUYA                                           0502
A0101404840851530917002CASINO, RONNIE ANTONIO                                   0502
A0601400230891363362001MARITESS P. FLORES                                       0501
A0101407690000000025141MEJIA III, MARIANO DBU                                  10502
A0101409890000000049089GEMSTAR CLEANING SUPPLIES                               10505
A0101406330000000162616LAND OF THE PROMISE TRUCKING                            10505
A0101405490000000444477MARIA TERESINA G. MESINA OR                             10504
A0101404130000000485712BALBOA, REYNALDO DBU MULTI-                             10502
A0101401830000001139953NOJADERA, ROSEMARIE S. OR                               10501
A0101409180000001694271LARRAZABAL, MARIA VICTORIA                              10502
A0101407690000001919822REBANGCOS, ESTELA - DEALERS OF                          10501
A0101408530000002260151GEROCHI, AXEL TRECHO OR                                 10501
A0701400260000002339011BUENAFLOR, EXPEDITA ARLINE                              10501
A0101400150061326594001REYNALD C. UY OR                                        10501
A0101400150061357581001ALBERTO S. VILLAROSA OR                                 10504
A0101401380201080440001DE LEON, CLARISSE ANGELICA                              10501
A0101401380201492546001DOLLOSO, GWEN FERLYN P. OR                              10501
A0101400570281043930002REALTY & ENTREPRENEURSHIP                               10501
A0101402480331224187001CHARLOTTE CHRISTY TAN OR                                10502
A0101402770391522092001CABANGON, EVELYN CAPCO OR                               10501
A0101408950396047389001MELROSHEAN CONSTRUCTION                                 10502
A2401400180411478374027ELLEN PANTUJAN OR                                       10501
A0101412760476048071001DEPANO, BERNADETTE GATCHALIAN                           10502
A2201400250561258530022JOEL T. PATUBO                                          10501
A0101407720602163314001SALLY KING JOAQUINO OR                                  10504
A0101407690652298552010ANGELINA CANETE - DEALERS OF                            10502
A0101407690652478374140BEATRIZ MANIAGO - DEALERS OF                            10501
A0101407690652478374179LENIE ANDO - DEALERS OF                                 10502
A0101407690652525001051ANNABELLE BADAYOS - DEALERS OF                          10501
A0101407690652525001059JENNIFER L GREGORIO - DEALERS                           10501
A0101407690652544268001DUENAS, MARITESS AREVALO                                10502
A0101407690652563634001RUEL L. LECAROS  OR                                     10502
A0101407690652643259001JOSE MARIA AUGUSTO DE JESUS OR                          10505
A0101407690652723779002DE JESUS, AUGUSTO THEODORE OR                           10505
A2801400100712255396001VITT O GUTIERREZ OR                                     10503
A4101400420814635620001CORPUZ, ELMER AGSALDA  OR                               10501
A0101406750852181208001LOLITA P. JIMENEZ OR ELIAS B.                           10501
A0101407690000000025141MGVM CONSTRUCTIO                                        20500
A0101409890000000049089INTERNATIONAL                                           20500
A0101406330000000162616SERVICES                                                20500
A0101405490000000444477ALFONSO E. MESINA                                       20500
A0101404130000000485712SKILL TRADING REF/AIRCON                                20500
A0101401830000001139953NOJADERA, ISAGAN M.                                     20500
A0101409180000001694271MORENO                                                  20500
A0101407690000001919822SHOECAT INC.                                            20500
A0101408530000002260151GEROCHI, RICO MARTIN                                    20500
A0701400260000002339011GONZALEZ                                                20500
A0101400150061326594001SHIRLEY G. UY                                           20500
A0101400150061357581001MA. THERESA G. VILLAROSA                                20500
A0101401380201080440001SANTOS                                                  20500
A0101401380201492546001DOLLOSO, JUNYROSS M.                                    20500
A0101400570281043930002ACADEMY OF THE PHILIPPINE                               20500
A0101402480331224187001DANIEL TAN                                              20500
A0101402770391522092001CABANGON, ROLAND CURIA                                  20500
A0101408950396047389001CORPORATION                                             20500
A2401400180411478374027ELMER PANTUJAN                                          20500
A0101412760476048071001DBU BERICH TRADING                                      20500
A2201400250561258530022EMPLOYEES OF IEW                                        20500
A0101407720602163314001JACQUELINE JOAQUINO                                     20500
A0101407690652298552010SHOECAT INC.                                            20500
A0101407690652478374140SHOECAT INC                                             20500
A0101407690652478374179SHOECAT INC                                             20500
A0101407690652525001051SHOECAT INC.                                            20500
A0101407690652525001059OF SHOECAT INC.                                         20500
A0101407690652544268001OR ZHIVAGO                                              20500
A0101407690652563634001JOVITA M. LECARO                                        20500
A0101407690652643259001AUGUSTO THEODORE                                        20500
A0101407690652723779002AUGUSTO OR JOSE                                         20500
A2801400100712255396001MARY ANN GUTIERR                                        20500
A4101400420814635620001CORPUZ, AMELITA                                         20500
A0101406750852181208001JIMENEZ                                                 20500
B2001400290000000020560VIMLE UNIVERSAL SOLUTIONS INC.                           1601
B0601400230000000029672BATTERY DEPOT OF CENTRAL LUZON INC.                      1605
B0101410720000000029850NORDHOFF ENTERPRISES INCORPORATED                        1601
B2401400180000000073670BRIGADA HEALTHLINE CORP.                                 1620
B0101412180000000075409EMPEROR'S 168 PALACE INC.                                1605
B0101402480000000310545QUALIGEN PHARMACY CORP.                                  1602
B0101402480000000310556QUALIGEN PHARMACY CORP.                                  1602
B0101403450000000889530T W & G, INC.                                            1601
B0101406590000000905522FHREG SENTRI CORP.                                       1602
B0101402480000001099936GAB METAL WORKS                                          1603
B0801400160000001289829PANAY MEDICAL VENTURES, INC.  PMVI                       1602
B0101402480000001562027************                                             1610
B0101401250000002763368KIN BIZPLAN LENDING COMPANY, INC.                        1602
B0101400600071234351001**********                                               1603
B0101407270162019008001ORIENTAL & MOTOLITE MARKETING CORP.                      1610
B0101407270162023333001MEDIA TOUCHSTONE VENTURES, INC.                          1604
B0101406460272020749001EASTGATE COMPUTER CORPORATION                            1601
B0801400160311271206001WESTERN LAMP & ELECTRICAL SUPPLY                         1604
B0101402480331016564001**********                                               1605
B0101402480331035336001******                                                   1603
B0101402480331038234001***************                                          1602
B0101402480331039628006TOTALGENERICS PHARMACY INC.                              1602
B0101402480331045776001NOSTRANO FORMA CO.                                       1602
B0101402480331552786001*****                                                    1603
B0101402060351023796001CREATIF FOIRE PRO, INC.                                  1610
B0101402640361035752001PRICE CUTS MULTI PURPOSE COOPERATIVE                     1601
B0101409180397670520001CASAEUROPA INC.                                          1604
B0101407430503015295001PC SUPPLIES, INC.                                        1603
B0101404130601011225001CARESCO RESOURCES CORPORATION                            1602
B0101409890649044639001BISKWIT CO.                                              1605
B0101407690652032192001RCBN - ST. PETER SHRINE                                  1612
B0101407690652042938001SIGNWOOD HARDWARE & LUMBER SUPPLY                        1603
B0101407690652422144001MELENCIO MEDEL OR CORAZON MEDEL                          1603
B2801400100712041114001DML SUBIC FREEPORT CORPORATION                           1605
B1301400470000000009630FIRST KINGSTON LEISURE AND SERVICES                     11610
B0101407690000000243952VITORIA REGIO VENCEDOR (VRV) BUILDERS                   11601
B0101401830000001282202AKAP SA BATA NG MGA GURO-KALINGA,                       11601
B1401400110492365609001JEORGE S MALIGAT - PILIPINO HARDWARE AND                11601
B0101410690600046710001BEST ELECTRICAL AUTOMATION CONTROLS                     11605
B1301400470000000009630CORPORATION                                             21600
B0101407690000000243952CORP.                                                   21600
B0101401830000001282202PHILIPPINES INC                                         21600
B1401400110492365609001CONST. SUPPLY                                           21600
B0101410690600046710001(BEAC), INC.                                            21600
B0101403030441821100608**********                                               2005
