F0101401830141350743002CORAZON E. TEODORO                                       2504CKO
F3201400190000001493803CECILE Y. YAGO OR                                       12502CKO
F0301400110191513463008DESPABILADERAS, JAMES LIM                               12505CKO
F3201400190000001493803ISAGANI Y. YAGO                                         22500CKO
F0301400110191513463008OR ONG, RADCLIFF                                        22500CKO
F0201400210371472965002EVER DYNAMIC DISTRIBUTION NETWO                          2610CKR
F0101406590662480015001GBC RETAIL INC.                                          2603CKO
F4101400420814573133002MAGNETICA ELECTRONICS, INC.                              2602CKO
