F0201401150378294913001RODRIGUEZ, ANGEL SANTIAGO                                2502CKO
F0101407690652386436003TIA, KEN YEN                                             2515CKO
F4101400260812390217003ESTOCADO, EDITHA JARDINIANO                              2510CKO
F0201400180181029800001YOUNGMAN HAULERS SAND & GRAVEL                           2608CKO
F0301400110191040022118BANANA TELECOMMUNICATIONS, INC.                          2601CKR
F0101402480331020380002**********                                               2610CKR
F1401400110492031372001A VILLAVERDE MERCHANDISE                                 2605CKO
F0101408110515024895001CREATION STATION, INC.                                   2605CKR
F4101400260812031790001SY ON INC.                                               2606CKO
F3201400190000001493045DR. ROMEO P. PIRA DBU PIRA CLINIC &                     12602CKO
F3201400190000001493067PRUDENCIO R. REQUILMAN DBU                              12601CKO
F3201400190000001493078CORAZON SHIRLY TAN DBU FELICOR GENERAL                  12601CKO
F0101402060351018863002FIRST PHIL. SKILLS & EQUIPMENT                          12603CKR
F3201400190000001493045HOSPITAL                                                22600CKO
F3201400190000001493067DENIKS MARKETING                                        22600CKO
F3201400190000001493078MERCHANDISING                                           22600CKO
F0101402060351018863002TESTING CORP.                                           22600CKR
