A0101400150000000053114*******                                                  0501
A0101402770000000080413TABORNAL, FELISA GORNAL                                  0502
A0101413150000000082682******                                                   0503
A1901400290000000135162MAXIMA HARINA ANDAL                                      0501
A3801400170000000154163ALLAN A GARONG                                           0501
A0301400660000000194785REVILLA, CRISOLOGO ALPIS                                 0501
A0301400660000000194796ACEJO, MAXIMO DAQUILA                                    0502
A5001400170000000213987MARTINEZ, MARITES BARANGGOT                              0501
A0101407720000000245178BAUTISTA, GIAN CARLO BANGCO                              0502
A0101405650000000448442ISIDORO T. ARIAS JR.                                     0501
A0101413730000000469701********************                                     0501
A0101400150000000525295AYTONA, MARIE GRACE DALIGDIG                             0502
A0101404260000000532250SOLDIVILLO, JIMEEZEN WENCESLAO                           0501
A0101404260000000532261GARCIA, AUGEN MILLAN                                     0501
A0101410300000000592143PONCE, JOSE MARIE SAMSON                                 0501
A4101400420000000710461TIAMZON JR., ADELARDO REPUYAN                            0501
A4101400420000000710472FLORES, MAXIMO ESPIRITU                                  0501
A0101412500000000740043GANTONG, MARIA HARRIETA P.                               0501
A0101408820000000800360PEREDA, NEPTUNE TOLETE                                   0501
A0101400150000000807943CARDENAS, ORLY ALEGRE                                    0501
A0101404680000000862282REYES, ROSARITO BUSCAINO                                 0502
A0101409180000000874642VILLENA IV, GODOFREDO GACAD                              0501
A0101414120000000875743AMANSEC, REGINALD REX ORROS                              0502
A4101400550000000981900UMENGAN JR., FELICISIMO BATOON                           0501
A0601400230000000990063**********                                               0503
A0501400200000001000131DE MESA, JOSEFINA PASCUA                                 0501
A2601400270000001009083MERNELLY R. RAFAEL                                       0501
A0101408240000001038711PIMENTEL, MAE ANNE LIM                                   0501
A0101412890000001056440CRUZ, PAULITA BERNARDO                                   0501
A0101412890000001056451**********                                               0501
A0601400230000001062344MUNOZ, MYLIN SANTOS                                      0502
A0501400170000001072742XXXXXXXXXXXXXXXX                                         0501
A5501400120000001121771JANGIT, NOVAH JANE CABINO                                0501
A0101414120000001142932PIALA, WILLIAM BENTING                                   0502
A3001400130000001271487MOJADO, MARIFE FORMILLES                                 0501
A2001400290000001301244TEMBLOR SR., FLORIDO VILLAGONZA                          0501
A0601400520000001349751ARCEO, RACHEL ROMERO                                     0501
A1901400290000001363002MARKUS VISITACION LACANILAO                              0501
A0101413600000001430591IMPERIAL, RHOEL FAURILLO FAURIL                          0501
A0101400440000001439852IRENE DUKA SANTOS                                        0501
A0101402350000001474200SOLIS, MARIA AIRA ANNE ONG                               0501
A0101402350000001474211DOMINGO, SHERYL HIPOLITO                                 0501
A0101406750000001491801TUMALE, DIANNA CORPUZ                                    0501
A0101406750000001491812GEOCALLO, ELIZABETH DACERA                               0501
A2201400250000001545364ONITA, EDUARDO LIBOT                                     0501
A1101400120000001547268JADOC, MA. ARIELYN PALOGAN                               0501
A0101401090000001611314ELIZABETH J. ABANDO                                      0501
A0101401090000001611325KATRINA AIMEE S. LOPEZ                                   0501
A4101400260000001673521GOMEZ, JOCELYN CATALAN                                   0501
A0601400230000001687352DEVERA, JANICE ANDICO                                    0501
A0101414120000001751515BALIGOD, EMERISSA LORENZO                                0503
A0101414120000001751526AMANSEC, REGINALD REX ORROS                              0502
A0101401700041189061001RIZAL SMILEY TAN OR YA YUN TAN                           0503
A0101401700041193436002CORAZON C. LOBENDINO                                     0505
A0101401700041572483001AYENDE, VICTORIA PEREZ                                   0501
A0101400150061039916017GALZOTE, EDWIN                                           0503
A0101400150061229554001MA. STELLA STEPHANIE CAMBA                               0501
A0101400150061445878001ANNA CRISTINA D. CALINGIN                                0501
A0101400150061564610064BUENAFLOR, MARIA GERALDINE ROSE                          0501
A0101400440161039572082ESTRELLENA S. LUCERNAS                                   0501
A0101400440161478374198EUFRONIA I. BERGONIA                                     0502
A0101400440161525001100CATHERINE J. NARAGA                                      0501
A0301400660194304371001*****                                                    0505
A0301400660194737283088THE TIRE REPUBLIC ENTERPRISES                            0502
A0101407140213385759001**********                                               0502
A0101407140213638372001**********                                               0503
A3101400160221506317001RACHELLE B. ALVIAR                                       0503
A3101400160221724137001ALICIA P MANAIG                                          0501
A3101400160221767573001VICTORIA M DEL ROSARIO                                   0501
A1001400190231478374078MARILES C. GENOBATEN                                     0501
A1301400470252482273001DRA. LEONOR J. DIZON                                     0501
A1901400290261193220001JOSEPHINE YU TAN                                         0501
A1901400290261298552013LEONILA QUESADA GUEVARRA                                 0501
A0101400570281423865002RIBAYA, VICTORIA CABRERA                                 0501
A0101400570281519977001KATHERINE V. HERNANDEZ                                   0502
A0101402350321182462003SALAZAR, ROSALINA R.                                     0501
A0101405650322173449001AGUIRRE, MYRNA B.                                        0504
A0101405650322337867002LARIOSA, BENECER SANTIAGO                                0501
A0101402510341199103002********                                                 0502
A0101402510341487199001NESTOR B. ESTABILLO                                      0502
A0201400920375513629001CHUA, JENNIFER OR CHUA, EUGENE                           0501
A0101402770391366438007RUBY D REYES                                             0501
A1201400150421252661001JOHN KWAN OR JENNY KWAN                                  0504
A0101403030441337771001**********                                               0501
A0101410140475090859001DELA CRUZ, MARY GRACE RAMOS                              0501
A0501400170481478374004RAMOS, GINA M.                                           0501
A0101407430503043601001M.R. SUNGA TRADING                                       0501
A0101406880513565496018HERNANDEZ, RODELIO FARAON                                0501
A0101407720602392725001DAVID HAROLD C.GOSIENGFIAO,M.D.                          0520
A0101404260611037351001SMD JANITORIAL SERVICES                                  0501
A0101404260611044670001POWER AGRO-PEST TRADING                                  0501
A0101404260611150932002DELIA D. UY                                              0501
A0101404260611478374109ANGELITA SIQUIJOR                                        0501
A0101404260611491692001EDGARDO M BALANI                                         0501
A0101404680651599907001JOCELYN T. RANTE                                         0501
A0101408240711573652001PASILIAO, CAROLINE MAGAT                                 0501
A4101400260812246128002HIPOL, CYNTHIA LAZARO                                    0501
A4101400390813248327001SARIEGO, DANILO BAGONA                                   0501
A4101400390813735161001ALMAZAN, MA. ROSELLE BARBOSA                             0501
A4101400420814436040001MALACAS, VERONICA CRUZ                                   0501
A0101404840851530598001VILLAMIN, KRISTINE AGUIRRE                               0501
A0101406750852629078001VICENCIO JR., MACARIO TAN                                0501
A0101405070861027133001WORLDLINKS CABLE WORKS                                   0502
A0101412890000000371533JOSELITO B. PRAJIO AND MELINDA                          10501
A0101412500000000740032DEL ROSARIO,CARMEN ANITA OR DEL                         10501
A0101403580000000922678FERMIN FRANCISCO OR                                     10502
A0101405810000001021172PUA, C DBU MCK SCHOOL & OFFICE                          10503
A0101401250021179125001MA. TERESA LOPA OR ISABEL LOPA                          10502
A0101400150061289689001ROBERTO S. REYES OR                                     10501
A1301400470252507868001EDGAR P. CASTILLO, JR. OR                               10502
A1301400470252547627001RODERICK V. GALANG OR                                   10502
A1901400290261244345001FERNANDO C GO OR LUCY S GO                              10502
A1901400290261407573001ABELARDO F RELLORA OR                                   10502
A1901400290261465984002ALANN N LAS OR                                          10501
A0101400570281188818002REXIE F. BARRERA OR                                     10502
A0101402350321249450001TERESITA OR ROGELIO PEREZ OR                            10501
A0101405650322172757001POLICARPIO, SHEILA M. OR                                10502
A0101403320471205827001JOWIN TRINIDAD OR                                       10501
A1401400110492023002001THESAURUS DRUGSTORE & GENERAL                           10505
A0101407430503291798002LEA D. JOVER OR                                         10501
A0101403610531533594001ARGANA, AGNES USANA OR                                  10502
A0101407720602455271001SARROSA, DONNA MARIE LEELIN OR                          10502
A0101404260611152420001AGAPITO A. AQUINO OR                                    10502
A0101410300663737328001YEE,EDMUND/TAN-YEE,ANNIE/YEE,MA                         10501
A1301400210682245727001FALLORINA T. MANAHAN OR                                 10503
A2801400230713045955001LITTLE SCISSORS UNISEX SALON                            10501
A0101412890000000371533F. PRAJIO                                               20500
A0101412500000000740032ROSARIO,CAMILLE ANDREA                                  20500
A0101403580000000922678MA. CARMELA FRANCISCO                                   20500
A0101405810000001021172SUPPLIES                                                20500
A0101401250021179125001OR MANUEL LOPA III                                      20500
A0101400150061289689001PIA MARIE I. REY                                        20500
A1301400470252507868001EVANGELINE N. CASTILLO                                  20500
A1301400470252547627001RAQUEL J. GALANG                                        20500
A1901400290261244345001OR ALDWIN S GO                                          20500
A1901400290261407573001AMELIA R RELLORA                                        20500
A1901400290261465984002GLENDA B LAS                                            20500
A0101400570281188818002JOLINE D. BARRERA                                       20500
A0101402350321249450001MA. VICTORIA P. MARTIN                                  20500
A0101405650322172757001POLICARPIO, JOSE                                        20500
A0101403320471205827001MARISSA TRINIDAD                                        20500
A1401400110492023002001MERCHANDISE                                             20500
A0101407430503291798002JAIME EDUARDO JOVER                                     20500
A0101403610531533594001ARGANA, ALVIN ABENOJA                                   20500
A0101407720602455271001SARROSA, EDWARD                                         20500
A0101404260611152420001REMEDIOS T. HERNANDEZ                                   20500
A0101410300663737328001RIA JULIENNE/ YE                                        20500
A1301400210682245727001 MANUEL P. MANAH                                        20500
A2801400230713045955001RONNIE B. RUIZ                                          20500
B0101400150000000000191TRANS-ASIA WIND POWER CORPORATION                        1601
B0101400150000000000191TRANS-ASIA WIND POWER CORPORATION                        1601
B1301400340000000011894RADIANTPOWER CORPORATION                                 1601
B0101408820000000027443RBR BUILDERS AND READY MIX CONCRETE                      1601
B0101408820000000027443RBR BUILDERS AND READY MIX CONCRETE                      1601
B0101412340000000030979GENNEX SOLUTIONS PHILS. INC.                             1603
B0101412340000000030980ACTON TECHNOPHILS INC.                                   1603
B0101412340000000030991GENNEX SINGAPORE PTE. LTD.                               1603
B0101406750000000090593ALEXANDRIA MARINE AND GENERAL SHIPP                      1602
B0101406040000000096633*********                                                1601
B0101404260000000157004INTERPRO FOOD SPECIALIST INC.                            1601
B0101404260000000157015INTERPRO FOOD SPECIALIST INC.                            1605
B0101404260000000157015INTERPRO FOOD SPECIALIST INC.                            1605
B0101404260000000157026INTERPRO FOOD SPECIALIST INC.                            1605
B0101404260000000157026INTERPRO FOOD SPECIALIST INC.                            1605
B0101404260000000157037INTERPRO FOOD SPECIALIST INC.                            1605
B0101413570000000206551LALIN GLORIA AND MARIBEL JARDINERO                       1601
B0101400440000000337751COMMANDER RANGE & SPORTS CLUB, INC.                      1605
B0101400440000000337773VIENNA PORCELANA PHILS. INC.                             1605
B0101404260000000550230INTERPRO FOOD SPECIALIST INC.                            1605
B0101402060000000653769SOFTWOOD REALTY CORPORATION                              1601
B0101405650000000772834MIFFI LOGISTICS CO. INC.                                 1605
B0101414120000001427463AZUELA'S TRADING & SERVICES CO.                          1602
B0101400150061010900001ROTARY CLUB OF MAKATI SOUTH                              1602
B0101400150061011199001M.F.T. DEVELOPMENT CORPORATION                           1602
B0101400150061027665001SYNERGY EXPERTISE INCORPORATED                           1602
B0101400150061047239001REAL HEALTH MARKETING & TRAINING CO                      1602
B0101400440161037708002RD CASH PADALA, INC.-AREA 1                              1603
B0101400440161044506001STAR COMMANDER SECURITY AGENCY, INC                      1605
B0101407140213042315001OILTANKERS CORPORATION                                   1610
B1001400190231052094001AGILA SHRINERS, INC.                                     1601
B0101402350321006431001OLIVAREZ REALTY CORP.                                    1608
B0101402350321024658002OLIVAREZ COLLEGE INC.                                    1608
B0101402350321045454001DIMENSIONAL SERVICE CORPORATION                          1603
B0101402350321046815001CASA DE SEQUOIA-AVILA CONDOMINIUM CORP                   1602
B0101408820333515192002BALTAZAR, MARIA ANDREA GIMAN                             1602
B0201400760374032173002MARIANO & SONS MARKETING, INC.                           1605
B0201400760374452730001C & L INTERNATIONAL PACKAGING CORP.                      1603
B0101402770391009575001EASTERN RIZAL (JALAJALA) RURAL BANK, INC                 1603
B1401400110492042503001LUCENA ROOFWARE TRADING & SERVICES                       1601
B0101407430503006843001PACIFIC SHIPPING AND DISTRIBUTION INC.                   1605
B0101405940512041188001PREMIUM WINE EXCHANGE INC.                               1601
B0101406880513036413001VISAYA KNOWLEDGE PROCESS OUTSOURCING                     1602
B0101403450521011895001MANRESA GARDENS TOWNHOMES                                1602
B0101403450521011955001KINGSWOOD TRADING CO., INC.                              1603
B0101403450521012137001**********                                               1610
B0101407720602428613001DERMA 360 CORP.                                          1601
B0101404260611005561001WILSTRONG LUMBER & HARDWARE                              1602
B0101404260611028530003**********                                               1602
B0101404260611045033001GENSERVE SOLUTIONS INC.                                  1610
B4101400550815041950001GARDENIA KAPIT-BISIG MULTI-PURPOSE                       1603
B0101406750852023612001LAS PINAS CITY MEDICAL CENTER, INC.                      1610
B0101406750852044723001AMGEN INSURANCE CENTRE                                   1601
B0601400230891028240001SUPER BIKES CENTER BRANCH FUND                           1601
B0601400230891046531001RD CASH PADALA, INC. - AREA 03 SAN                       1603
B0101413600000000206904GHAWAR CONSTRUCTION & TRADING                           11601
B0101402350000000655345MICHAEL ANGELO B. VERGARA AND                           11602
B0301400660194350996088DEQUITO, GLEBA VENTOR / LANANG                          11602
B0101413600000000206904CORPORATION                                             21600
B0101402350000000655345SHIRWELL M ISADA                                        21600
B0301400660194350996088CALTEX SERVICENT                                        21600
