A0101404260000000003830MACACADO, NENITA NAZARIO                                 0501
A0101404260000000003841PESCADERA, BABY LYN ENARSAO                              0501
A0101407690000000025196CASTILLO, MANDRICK EDRA                                  0501
A0201401020000000056131KHOSRAVIBABADI, MASOUD                                   0501
A0101406040000000096968********                                                 0502
A0101406040000000096979********                                                 0503
A1701400230000000097767GALANO, PHOEBE MANGOSING                                 0501
A1701400230000000097767GALANO, PHOEBE MANGOSING                                 0501
A0101407720000000112181ARNOLD C. OCAMPO                                         0503
A1001400190000000124832LIGTAS, ELSA D.                                          0501
A0101413990000000205898**********                                               0502
A5501400120000000265930PONCE DE LEON, JINKY LAGUARDIA                           0501
A0101408110000000380050GUILLERMO, RAFAEL ENRIQUEZ                               0501
A0101406750000000500201RAYMUNDO, AMABELLE ESPIRITU                              0501
A4101400390000000500507DOMINGO, ANGELIE MARIANO                                 0501
A0101407720000000510836JOVEN, MYLAH ABELLA                                      0502
A2601400270000000561820ROGELIO V JUAN OR DELIA D JUAN                           0503
A2601400270000000561875EDGAR A. DINIEGA                                         0501
A0101408370000000586016SAMONTE, CRISTY EVANGELISTA                              0502
A0701400260000000670837DELA CRUZ, JOHN LUIS CESAR                               0501
A0101403320000000735893DEAN, DULCENIA VALENCIA                                  0501
A0101403320000000735984************                                             0501
A0101403320000000735995MORENO, RICO SALINAS                                     0501
A0101403320000000736009EUSTAQUIO, EDWIN SANTOS                                  0501
A0101403320000000736010DELA CRUZ JR., ARCADIO BAYLEN                            0502
A0101401090000000772292ABRANTES, JOSE FRANCIS V.                                0501
A0101410850000000778736GAPUZ, JAMES RAMOS                                       0501
A0101412630000000801621LIBREA JR., ENRICO MAURICE S.                            0501
A0101400150000000807512DELOSO, JAMES IAN BONITA                                 0501
A0101407270000000818406**********                                               0501
A0101400440000000821276MANAOIS, VICTORIA PENALBER                               0501
A0101409920000000857923TUAZON, DENNIS ANGCOG                                    0501
A0101412050000000890820VILORIA, MARILYN CORPUZ                                  0501
A3001400130000000931413GERONA, SUSAN GENITA                                     0501
A3001400130000000931413GERONA, SUSAN GENITA                                     0504
A0101404680000000940892ANDULAN, IGNACIO POBLETE                                 0501
A0101410720000000967962MANZANO, JACQUELINE GENOVE                               0501
A0101410720000000967973BALAYO, JULIET FLORENCONDIA                              0501
A3101400160000001169240HANNA V DIVINAGRACIA                                     0501
A0301400820000001185597VELASCO, GEMA S.                                         0501
A0101404000000001186738VELEZ, ANTONIO JOSE FRANCISCO                            0501
A0101412920000001313671HEROIM V. GUIRIBA                                        0501
A0101412920000001313780ANGELES, THEODOSIA BUSUEGO                               0501
A0101402770000001521857ANTONIO, JHOMARIE RIVERA                                 0501
A0101401700041043644001NOXIOUS AUTO PARTS SUPPLY                                0510
A0101400440161520766116GLENDA M. CAMPILLANOS                                    0501
A0101400440161525001060LANI P. LOPEZ                                            0501
A0101401090171196066002MARY JOCELYN OR REDARIO LAYGO                            0502
A0101401090171622298001IDA MARIE T. LIM                                         0501
A0101407140213190585001**********                                               0502
A1001400350233783808001MABAYLAN, MARIPAZ ECHEVERIA                              0501
A1101400120313478374105MARNEL BULAWAN                                           0501
A1101400120313549737001YU, RONNIE LIM                                           0505
A6601400120314668441002MASLOC, SHERRY AMOR GALONO                               0501
A0101402350321179516001BENITEZ ROQUE JR.                                        0501
A0101402350321478374043FE C. MATABA                                             0501
A0101402350321478374058DELA CRUZ, MERLITA GABON                                 0501
A0101405650322170825001MENOR, FELISA L.                                         0502
A0101402510341202722001SEPARO, PERLA PARILLA                                    0501
A0101402510341294719001********                                                 0502
A0101408370382205236001DR. CYNTHIA A. AGUIRRE                                   0502
A0101402770391013439001JIREH'S CAR PAINT SHOP                                   0502
A2401400180411537912001DE VEGA, IMELDA DEMAYO                                   0502
A1901400160491549024001MYRNA ARCE CORTEZ                                        0503
A0101407430503427391001JOEL F. GRESOLA                                          0501
A0101407430503478374017RIC L. ABADIANO                                          0502
A0101403450521238095001**********                                               0502
A0101404000551743159001SANTOS, ALBERTO LAUZON                                   0501
A0101407720602397271001OZAETA, MA. RAMONA PABLO                                 0501
A0101409890649721710001MAPILI, ERICK RYAN RIVERA                                0501
A0101410720653445865001FRANCISCO OR IMELDA OCAMPO                               0501
A0101410720653452116001VIRGILIO R. BACQUEL JR.                                  0501
A0101410720653478374046MONALIZA F. MALDONADO                                    0501
A0101410720653485748001CUSTODIO OR FELISA NORICO                                0502
A0101406590662544315001PIORNATO, ANDY ALEJANDRO                                 0501
A1301400340683400365001MEDINA, EUGENIO DE SAGUN                                 0502
A2801400100712094982001DIAZ, EDWIN BACANI                                       0501
A2801400100712494193001DIANO, BLESILDA MISTICA                                  0501
A4101400260812478374055ARLENITA E. MORALITA                                     0501
A4101400420814478374043ESPINO, GEMMA D.                                         0501
A4101400420814520766123TAGALOG, CENONA B.                                       0501
A0101404840851046725010MA LILIBETH ALMONGUERRA                                  0502
A0101404840851478374115ERLINDA O. PRADO                                         0501
A1001400480000000041498TAN, MELECIA GONZAGA OR TAN,                            10503
A0101400150000000253392CALIXTO, SHAYNE DBU PURPLE HAZE                         10503
A0601400520000000398476LIM, JOAN MARIE CHENG DBU WAMPY                         10501
A1201400150000000473483BANEZ, EUGENIO LEONIN OR BANEZ,                         10501
A3801400170000000497832RAQUEL D. SALAS OR                                      10503
A1901400320000000679205JOSE M AQUINO JR OR                                     10501
A0101401250000000906952ALAVAREN, LUDIVICO CIRIACO OR                           10501
A0101407690000000913757FALLER, DOMINIC DBU D' MINOR                            10503
A0601400100000001442717CABRERA, JOAN LUGTU OR                                  10503
A0101402350321025863001PROGRESSIVE MASON CLUB                                  10501
A0101402350321180459002TING CHING LAN OR CHANG CHIAO                           10501
A0101402350321597544001ROBERTO T. ARSITIO OR                                   10501
A0101407430503631348001ROYCE C. GAW OR                                         10501
A0101404000551352264001CARMEN R MAROMA OR MA. ELENA                            10502
A0101404000551693211001CARMONA, CARLOS PONCE DE LEON                           10501
A2201400250561342534003ROWENA B. FERRER                                        10502
A0101407690652443947001NOLIBETH L. RUELOS OR                                   10501
A0101407690652525001057SONNY M. BAJIO - DEALERS OF                             10501
A0101410720653479613001PABLITO OR FE OR RONALD JOHN OR                         10501
A1301400340683387803001ESGUERRA, DANILO MEDRANO   OR                           10504
A0101406750852774013001MARK JEROME SAQUING OR MARY ANN                         10502
A1001400480000000041498ARIEL GO OR TAN, CHARLES                                20500
A0101400150000000253392BLENDS, SHAKES A                                        20500
A0601400520000000398476PRINTS AND DESIGNS                                      20500
A1201400150000000473483LEONIDES FLOR LEONIN                                    20500
A3801400170000000497832ENRIQUE R. SALAS                                        20500
A1901400320000000679205MARIA KATHLEEN G AQUINO                                 20500
A0101401250000000906952ALAVAREN, LUCITA LAPUZ                                  20500
A0101407690000000913757ORGAN MKTG & SERVICES                                   20500
A0601400100000001442717CHU, NATHANIEL GONZALES                                 20500
A0101402350321025863001(SOUTH MANILA CHAPTER)                                  20500
A0101402350321180459002FEI OR CHANG CHIAO FENG                                 20500
A0101402350321597544001LUVIZMINDA L. ARSITIO                                   20500
A0101407430503631348001ZARABETH S. GAW                                         20500
A0101404000551352264001ALBERTO                                                 20500
A0101404000551693211001CARMONA, LEANA F                                        20500
A2201400250561342534003OR JENNIFER L. FERRER                                   20500
A0101407690652443947001VINCENT A. RUELOS                                       20500
A0101407690652525001057SHOECAT INC.                                            20500
A0101410720653479613001PRINCESS JOY FLORES                                     20500
A1301400340683387803001ESGUERRA, ANGELI                                        20500
A0101406750852774013001SAQUING                                                 20500
B0101411790000000005318REM BUILDERS CORPORATION                                 1602
B4101400420000000018602MAKEYOURICH INC.                                         1601
B2401400180000000019769WILL & JOE AGGREGATES, INC.                              1603
B0101407430000000035270TURPS AND TUCKER INTERNATIONAL CORP.                     1602
B0101412500000000041670MOLDEX REALTY INC.                                       1602
B0101412500000000041692MOLDEX PRODUCTS, INC                                     1601
B3001400130000000067207MOLLANIDA, RAQUEL GO JT PASCUAL, RENATO                  1601
B0101402770000000080613SPRAYED POLYURETHANE FOAM SYSTEM CO                      1602
B0101406040000000096651*********                                                1602
B0101401700041023617001WORLDPEPP INC.                                           1601
B0101400440161026216001TELEGA, INC.                                             1603
B1001400190231015575001*****                                                    1602
B0101411820277048022001FORGEMS MARKETING COMPANY, INC.                          1602
B6601400120314617698002CATARMAN DOCTORS HOSPITAL, INC.                          1605
B0101402350321738079001OLIVAREZ GENERAL HOSPITAL INC.                           1610
B0101403030441012152001BELTON MANSION RES. CONDO. CORP.                         1603
B0101405940512584781002MCSENERGY PHILIPPINES INC.                               1601
B0101403450521305942001**********                                               1601
B2801400100712005154001MANABAT SANAGUSTIN & CO., CPAS.                          1605
B4101400390813560022001FAITH ACHIEVE PLASTICS CORP.                             1604
B0101406750852033894088AVELICON MARKETING CORPORATION                           1602
B0101409920000000021223QUANTUM LABORATORY & DIAGNOSTIC CENTER,                 11603
B6601400120000000060875RCBC-OUR MOTHER OF PERPETUAL HELP                       11601
B1001400190000000124912SAMBAAN, ALDEN V.DBU TRESHING FLOOR                     11601
B0101407140000000266175DIESTA, FAYE FLORES DBU BETTER OPTIONS                  11601
B1101400120000000652937SALINAS, ANTONIO DELA CRUZ AND                          11605
B0101410720653030880001NAPOCOR VILLAGE HOMEOWNERS ASSOCIATION                  11601
B0101409920000000021223INC.                                                    21600
B6601400120000000060875MISSION CENTER                                          21600
B1001400190000000124912TRADING                                                 21600
B0101407140000000266175FOOD PRODUCTS                                           21600
B1101400120000000652937LLAGA, DAVID S.                                         21600
B0101410720653030880001INC.                                                    21600
B0101401120131821100608**********                                               2010
