F0701400130493285867001LITAM, CHARLES OR LITAM, ESTER                           2502CKO
F0101401830141399018001LEO S. AMACIO OR REYNALDO I.                            12501CKO
F0101408240711199358003MARCOSA  DAYAO OR                                       12502CKO
F0101401830141399018001MAURICIO JR.                                            22500CKO
F0101408240711199358003LEONARDO DAYAO                                          22500CKO
F0301400110000003762685LU, WILSON LU JT WORSLEY,ANDREW                          2601CKR
F0101400150061043015001RCHITECTS INC.                                           2603CKR
F1801400130151048759001MSU-IIT NMPC MANTICAO BR.                                2601CKR
F0101400440161037389002GREAT WAY HARDWARE                                       2602CKR
F0301400110191040022138BANANA TELECOMMUNICATIONS, INC.                          2602CKR
F0101408530516035432001ROGUE MEDIA, INC.                                        2610CKO
F0101411400517052551001BCMS INTERNATIONAL SPECIALTY CO                          2605CKR
F1201400280671045522001CORDILLERA COMMUNITY AND FAMILY AS                       2602CKO
