A0101408240000000039507MARIANO, JOHN CARLOS GONZALES                            0501
A0301400820000000045554DENUNA, HAZEL F.                                         0501
A0101408660000000059761TOBILLO, CECILIO NARVAEZ                                 0503
A0101406750000000090673DIMAIYACAN, MARCELINA MANALO                             0501
A0101400310000000141040CASILANG, JOSEFINO MERCADO                               0501
A0101406620000000193840TAN, APRIL LYNN LEE                                      0501
A0301400660000000194449GABISAN, ALMAR VILLAESTER                                0502
A0101401960000000211047***************                                          0501
A0101404840000000254620JOSEPHINE M DOMINGO                                      0501
A0101408240000000347482LITONJUA, AARON RIEGO DE DIOS                            0502
A0101412340000000348203NAVARRO, MARINA ELA MENDOZA                              0501
A0101406590000000568952DORINGO, MARLYN TOBIAS                                   0501
A0101413440000000702123SARET, LIGAYA MEDINA                                     0505
A0101413440000000702429REYES, MERCEDITA BONCAY                                  0501
A0101400150000000807852ASUDANI, DIPAK RAMCHANDRA                                0502
A0101400150000000808019VISTA, MARY ANN CARLOS                                   0501
A0101401830000000865112JOVEN, JOHN PAUL DIZON                                   0502
A0101413020000000880371DE GUZMAN, MA DONNA REMPIS                               0502
A0101407690000000914038******                                                   0501
A1001400350000000922161CHAN, AILEEN FLORENDO                                    0503
A0601400360000000978652DIMALANTA, ANNA CATALINA ANIAG                           0501
A2601400270000001009250NOEL V. QUIATCHON                                        0501
A0101405810000001021150ANG JR., VALENTIN LOSTE                                  0501
A0301400820000001027821VILLANUEVA, RADO C.                                      0501
A1001400190000001057545JAIME C. BEDRO                                           0501
A0101410140000001074691MEMBERS OF NATASHA (SHOECAT INC                          0501
A0601400520000001120385BANAG, ESMERALDO PINEDA                                  0501
A0101408110000001165782MURAYAMA, LAURA QUIZON                                   0502
A0101408110000001165833ONGPIN, DIANA FRANCES OBISPO                             0501
A0701400260000001232062GOMEZ, TEOFILO CABANTOG                                  0501
A0101406880000001286700EMATA, SHEREE BONDOC                                     0502
A1301400470000001299123MALYN G. CHUA                                            0501
A0101404840000001312634GARCIA, LEAH DEGUINON                                    0501
A0101400600000001335579********                                                 0501
A6601400120000001370514NACARIO, JOSELITO GALAROZA                               0501
A0101400440000001439943SARANGLAO, TERESITA CUETO                                0501
A0101400440000001440055MARAVILLAS, FRANCES MAY IGNACIO                          0501
A0101413440000001473018DULNOAN, MARY JANE DL                                    0501
A0101402640000001536487ASUNCION, DAMASO CORTEZ                                  0501
A0101402640000001536647NUEVAS, MICHELLE URGEL                                   0503
A0101402640000001536658NUEVAS, M DBU MM AND MJ GENERAL                          0503
A0301400820000001554752TIONG, ERALD C.                                          0501
A2001400290000001557699RIVERA, JOHN SOLANA                                      0501
A0101412890000001765368PANES, JONATHAN P                                        0501
A1701400230000001786718RAMBAUD, ALBERT LACRO JT                                 0501
A1201400150000001863123BAGSINGIT, RAUL PALSIW                                   0501
A0101400310000002191260DELA CRUZ, NORALAINE BOBIER                              0501
A0101400600071234544002CHOW, ALICIA CHUA                                        0502
A0101405810072234900005***************                                          0503
A0101405810072265481001PLAZA, LEONORA LIM                                       0505
A0101405810072487575001***************                                          0505
A0101400440161039572095WISHELLE C. RECLA                                        0501
A0101400440161186934001VICTORIA D. SISON                                        0505
A0301400660194077968088*****                                                    0502
A0301400660194507916001*****                                                    0501
A0101400310211043625001R2J TIRES CENTER                                         0525
A0101400310211552076001HERRERA, BOBBY LEONARDO                                  0501
A3101400160221220205001RODOLFO ELEPANO OR GILDA PICO                            0504
A1001400350233770191001PATRIANA, LINDY CASTILLO                                 0501
A0101401670271192058001CARMEN V. SEGOVIA                                        0503
A0101406620273035687001GOLDRICH MANAGEMENT SERVICES                             0502
A0101406620273072069001LEANO, DEVI PESSUMAL                                     0502
A0101406620273281364001BANTIGUE, WILLIAM ANISCO                                 0503
A0101402510341232460006LU, HANS TE                                              0501
A0101409050352781360001TERESITA C. UY                                           0501
A0101402640361168263001CAROLINA OR RAMON MENDOZA                                0502
A0101402640361478374054MARIANO BALANCIO                                         0502
A0101408370382420447001PAPA, RICARDO TOBIAS MARCELO                             0505
A2401400180411044274001******************                                       0501
A2401400180411478374068DELIGERO, JOCELYN JALA                                   0501
A0101403030441017766001**********                                               0502
A0101403030441239088001**********                                               0502
A0101403320471209343001SHERLITO OR PRISCILA BERNAL                              0501
A1401400110492478374017JOSEPHINE ECLAVEA                                        0501
A0101403580511403658009SHARON DAYOAN                                            0510
A0101405940512357111001LEONITA M. LABAYO                                        0502
A0101408110515336397001JUDITH S. SANTOS                                         0502
A0101408110515559589001JOYCE MARIE C. DIMAANDAL                                 0501
A0101408530516571877046PORCIUNCULA, ANA MARIE ALMERIA                           0501
A0101411400517046810001BERTULFO III, REGINO G. DBU DET                          0503
A0101404260611151435002LORNA VEJANO AND RAUL VEJANO                             0501
A0101404260611405033003GASCON, JENNIFER DEDEL                                   0503
A0101404260611478374115FE S. BONDOC                                             0501
A0101404260611662255001INFANTE, JERRY PONTILLAS                                 0502
A0101407690652032315001BENEHEIM VENTURES CORPORATION                            0501
A0101407690652657776001FULLIDO, NOEL MICULOB                                    0501
A0101407690652774968001NATAVIO, ROY REMUS CAYETANO                              0501
A0101406590662289338001KIM C. DINO                                              0503
A1301400210682478374027MARY ANN M. DE LEON                                      0501
A1301400340683361124002BUENAVENTURA, MYLINE SORIANO                             0502
A0101408240711386762004TUGADE, PAUL LOUIE MADDELA                               0502
A2801400100712478374001BERNARD R. CORPUS                                        0502
A0101404840851478374115ERLINDA O. PRADO                                         0501
A0101404840851520766067JOSEPHINE V. GABAYERON                                   0501
A0101404840851520766073ELIZABETH A. SUAZO                                       0501
A0101409920000000022099DELA VEGA, ANTONIO S. OR                                10501
A4101400260000000048713MANUEL SILVESTRE II OR                                  10501
A0101400310000000140730ALMERA, ROEL OR DE LEON, BILLIE                         10502
A0101400310000000851365SUSPER, PRINCESS HAZEL REFUGIA                          10501
A0101412890000001056622SY, ROXANNE CABRERA OR                                  10501
A1401400110000001806800BRAVO, EVALOR CABUYA OR                                 10501
A0101400310211157817001INTERINO, LOLITA OR MARIA                               10502
A0101400310211388725001TOMANIOG, MYLA OR TOMANIOG,                             10502
A1001400350233298395001THERESE B. LUMICAO OR                                   10502
A1001400350233526764001LUMICAO, NESTOR OR LUMICAO,                             10502
A0101406620273489850001RODOLFO P. DE GUZMAN JR. OR                             10501
A2401400180411338845001ROBERTO T. PERALES OR                                   10505
A0101403320471576786001CATHERINE ROSE M SANTOS                                 10501
A1901400160491282845001ARTHUR C MALALUAN OR                                    10501
A0101403580511151398002ARIZA TERESA MANGALILE OR                               10501
A0101406880513417808001DEALINO, FARRAH OR  JOSE MARI                           10501
A0101408110515575820001EVELYN A. PADEL OR                                      10501
A0101407690652478374131TARROQUIN, NORA - DEALERS OF                            10501
A0101407690652520766007LOLITA SONZA - DEALERS OF                               10501
A0101407690652520766022ELVIE GALENDEZ - DEALERS OF                             10501
A0101407690652525001064JOAQUIN JUANCE - DEALERS OF                             10501
A0101407690652525001066BERNARDITA BUDLAO - DEALERS OF                          10501
A0101407690652525001067MAILA M. NACIN - DEALERS OF                             10501
A1301400340683476372004WU YONG, JIAN JAMES GO OR                               10502
A0101408240711396778001MA. FRANCESCA ROMANA OR                                 10501
A0101409920000000022099DELA VEGA, IMELD                                        20500
A4101400260000000048713KRISTINE SILVEST                                        20500
A0101400310000000140730OR CROBALDE, MARY GRACE                                 20500
A0101400310000000851365OR VILLARAMA, MARK DAVID                                20500
A0101412890000001056622DAITE JR, MANOLO                                        20500
A1401400110000001806800BRAVO, RUEL BALDOVINO                                   20500
A0101400310211157817001CRISTINA INTERIN                                        20500
A0101400310211388725001LEONORO JR.                                             20500
A1001400350233298395001CARMENCITA O. BORROMEO                                  20500
A1001400350233526764001THERESE                                                 20500
A0101406620273489850001ROSARIO K. DE GU                                        20500
A2401400180411338845001JANET C. PERALES                                        20500
A0101403320471576786001OR JONAS PARALLAG                                       20500
A1901400160491282845001IRENE D MALALUAN                                        20500
A0101403580511151398002REYNALDO JOSE MANGALILE                                 20500
A0101406880513417808001DEALINO, AIDA                                           20500
A0101408110515575820001MARITES A. PADEL                                        20500
A0101407690652478374131SHOECAT, INC.                                           20500
A0101407690652520766007SHOECAT INC.                                            20500
A0101407690652520766022SHOECAT INC.                                            20500
A0101407690652525001064SHOECAT INC.                                            20500
A0101407690652525001066SHOECAT INC.                                            20500
A0101407690652525001067SHOECAT INC.                                            20500
A1301400340683476372004BATILO, RUBY OR                                         20500
A0101408240711396778001PHILIPPE SEYER                                          20500
B1301400760000000007143CONSUMERREACH, INC.                                      1610
B0101412500000000041692MOLDEX PRODUCTS, INC                                     1601
B0301400660000000048235DAVAO MULTIBUILD CORPORATION                             1603
B0101406750000000090708GLOBAL ACCESS FINANCIAL SERVICES, I                      1602
B0101406460000000182494**********                                               1601
B0101403580000000214702MEC - CAMBRIDGE                                          1610
B0101411110000000604891NICHE PLAY INTEGRATED MEDIA INC.                         1601
B0101402060000000653781CHEF ROSEBUD FOOD GROUP CORPORATION                      1603
B0101405650000000772812ONE BFCEA INC.                                           1602
B0101406590000000905511MAINEVENT AND MARKETING CORP.                            1602
B1001400190000001057647TAN, RENARIO T0 DBU RENAR MARKETING                      1602
B0301400820000001185757SUNGA HOSPITAL                                           1605
B0101408400000001258635******                                                   1601
B0101400600071232728001**********                                               1605
B0101405810072019239002ROYAL PINNACLE ESTATES CORP.                             1601
B0101405810072031175001WESTMINSTER INSURANCE AGENCY, INC.                       1605
B0601400100081021931001PHILKO SILICATE CORPORATION                              1610
B0101400440161187807001WILLIAM C. LAOÿÿ ÿÿÿ ÿÿÿ ÿÿ                              1601
B0301400660194046002088GARDEN BY THE BAY CORPORATION                            1605
B0101400310211025724001CIPHER SOLUTIONS CO., INC.                               1601
B0101400310211027981001GLASSTEMP INDUSTRIES CORPORATION                         1602
B0101400310211032374001GLOSSMASTERS PHILIPPINES, INC.                           1603
B0101407140213007800001ABLAZA-ZAMORA ENTERPRISES                                1602
B0101407140213043970001***************                                          1603
B1301400760253044451001CONSUMERREACH, INC.                                      1610
B0101406620273018522001VALYERMO TRADING CORPORATION                             1601
B0101406620273642590001TERRAPRIME, INC                                          1620
B0101402510341026003001PHILSOFT TECHNOLOGIES GROUP, INC.                        1601
B01014026403616040690017MG HAULING SERVICES PHIL. CORPORATION                   1605
B0201400920375041285001VIRLO CONSTRUCTION DEV. CORP.                            1610
B0101408400394046961001LAWIN LYING IN MATERNITY CLINIC CO.                      1601
B2401400180411033588088FIESTA APPLIANCECENTER, INC.                             1605
B0101403030441037132001MASTER BRAKE AUTO SUPPLY                                 1601
B0101403320471032222001KHEELOH SHOES MANUFACTURING                              1601
B0101403320471518351001LEGACY UNLIMITED, INC.                                   1605
B1901400160491046052001BANAPRA DEVELOPMENT COOPERATIVE                          1603
B1401400110492013980002IMPERIAL APPLIANCE PLAZA                                 1601
B0701400260495019990001ROTARY CLUB OF NAGA                                      1601
B0101403580511005607002RAM FOOD PRODUCTS, INC.                                  1603
B0101403580511015363083MILLENNIUM ERECTORS CORPORATION                          1610
B0101404000551038491001BLUE ANGEL KARAOKE BAR, INC                              1602
B0101407720602016457001NEWGEN INFORMATION TECHNOLOGY CORP                       1602
B0101404260611005306001THE HOUSE OF RACOR ADS., INC.                            1605
B0101404420631030262001LICA GAS CENTER                                          1602
B0101406590662034552001CHANBAR BUILDERS CORPORATION                             1604
B0101408240711015633001CASAS DEVELOPMENT CORPORATION   PCF                      1603
B0101408240711044039001RMR 888 ENTERPRISE CO.                                   1601
B4101400390813766574001SCIENCE TECHNOLOGY INSTITUTE OF ROSARIO                  1602
B4101400420814015551002REGATTA CLASSICS HOMEOWNERS ASSOCIATION                  1601
B2801400230000000008379LAVADIA, WILSON DBU BACON MARKETING OR                  11601
B1001400350233039881018EASTMIN FOOD CHAIN CORPORATION -                        11610
B1001400350233039883008CENMIN FOOD CHAIN CORPORATION - JOLLIBEE                11610
B0101404000551033697001CREDIT CARD ASSOCIATION OF THE                          11602
B1301400210682012661001BULACAN PUBLIC SCHOOL TEACHERS                          11603
B2801400230000000008379LAVADIA, ERLINDA                                        21600
B1001400350233039881018JOLLIBEE GATEWAY                                        21600
B1001400350233039883008DIVISORIA                                               21600
B0101404000551033697001PHILIPPINES                                             21600
B1301400210682012661001 ASSOCIATION                                            21600
