A1001400350000000017165MEN DBU A&L MARKETING SOLUTIONS                          0501
A0101401250000000020424BALIAO, JOVITA LINGGON                                   0505
A0101410300000000026542********                                                 0501
A0101407430000000044948SHARON B. OCLARINO                                       0501
A1101400120000000065110BOLECHE, CLARA GACUTAN                                   0501
A0601400100000000141864DEL ROSARIO, ROCELLE PENA                                0504
A0101412760000000208626COMIA, M DBU CINCTURE BIO-ASSET                          0501
A0101409050000000258304MARY JANE A. CRUZ                                        0501
A0101402480000000310670********                                                 0501
A0101402480000000310681********                                                 0502
A1301400210000000540765LHARA DG MERCADO                                         0501
A1101400120000000652431SASI, ANA ELEJEDO                                        0501
A0101400150000000807005LEAL ADRIAN S. BORDON                                    0501
A0101414120000000875878TAMAYO, CAMILO PACIBE                                    0502
A1001400350000000922190RIVERA, JACKIE LOU VILLAROYA                             0501
A0101413990000000969359LOPEZ, REYLAN MOLINO                                     0501
A0101409050000000999682ANDAL, LOUIE ROBLES                                      0501
A3101400740000001093903DELA CRUZ, BENITA RICABLANCA                             0502
A0101404000000001186983FERNANDEZ, RINA THERES DELOS RE                          0501
A0601400520000001349639CORTEZ III, CARLOS RIVERA                                0501
A0101402480000001562141GO, CORAZON SOPANG                                       0501
A0101402770000001571313ONGSITCO, FRANKLIN CHOI                                  0501
A0101403320000001647047MUNOZ, JENNEL EVANGELISTA                                0502
A0601400230000001687232CHRISTLE M.TUNGUL                                        0501
A1401400110000001806953VIDAL, ALLAN ROEL PILAPIL                                0501
A1101400120000001920598SOLAJES, PRIMIER SIEGFRIED BATO                          0501
A0101402480000001927671**********                                               0502
A5501400120000002018980BJ'S LECHON HOUSE                                        0505
A0301400950000002115111**********                                               0501
A0301400950000002252006JROG MARKETING                                           0505
A0101408530000002260071ADAN, MARIA THERESA BICO                                 0502
A0101409050000002333240SILCOTT, MARIA THERESA DE JOYA                           0501
A0101409050000002652902BALISONG, ANALENE V.                                     0501
A0101409050000002652946DUMALAG, RANULFO C.                                      0501
A0101409050000002653056SOTELO, RONALD P.                                        0501
A0101409050000002653067VEGA, PATRICIA R.                                        0501
A0101409050000002653090BELGA, ROBERTO                                           0501
A0101409050000002653147NACARIO, INAN G.                                         0501
A0101409050000002653169RAMOS, REYNALDO G.                                       0501
A0101400150061226430002************                                             0501
A0101400730111203514051JANETTE HONRADO                                          0502
A0101400440161039070001LGRM ENGINEERING & CONSTRUCTION                          0505
A0101407270162029071001M+E SALVALOSA & ASSOCIATES                               0501
A0101407270162379916001MA. LOURDES A. DE GUZMAN                                 0501
A0101407270162387970001******                                                   0503
A0101407270162422120001LENNEL L. DIAZ                                           0502
A0101401090171202809001KASHMER T. CRUZ                                          0501
A0101401090171379638001AURORA CRISTINA P. BERMUDEZ                              0502
A0101401380201561182001ACOTANZA, EDITHA SINCHONGCO                              0502
A0101401380201599894001CHUA, WILLIAM SOL CRUZ                                   0502
A0101407140213191736001**********                                               0501
A0101407140213233732001**********                                               0501
A0101407140213364296001***************                                          0503
A1301400470252507213001LEA P. WONG                                              0505
A0801400160311391813002*******                                                  0501
A0801400160311563526001HERNANDEZ, JASMINE LINN CELIZ                            0501
A1101400120313478374066FUNCION, LANIE E.                                        0502
A0101405650322412858003PATATAG, HERMINIA SALAMERO                               0501
A0101405650322424552001AGUIRRE, MARISSA LIM                                     0501
A0101402480331020937001**********                                               0503
A0101402480331219247002**********                                               0502
A0101402480331478374002SALOMON, VILMA                                           0502
A0101402480331520766007MA. NILDA DE JESUS                                       0502
A0101402480331520766045TEOPE, ANA MARIE                                         0501
A0101402480331703515002********                                                 0501
A0101402480331748838001*********                                                0501
A0101402060351632257001***************                                          0501
A0101402770391217498023EDWIN DELLOSA                                            0501
A0101405490392033011001VICELA MOTOR WORKS                                       0503
A0101408400394037811001D. BORLAZA TRADING                                       0503
A0101408400394287692001CASTILLO, GLORIA RAYOS DEL SOL                           0501
A0101408400394311423002GUEVARA, NORMA RAYOS DEL SOL                             0501
A0101408400394471974002PESICO, GINA GERALDINO                                   0501
A0101408400394478374062APOLIS, SALVACION G.                                     0502
A0101408950396501244001DR. RHESA MAY MANALOTO MARTINEZ                          0501
A0101408950396645140001TATCO, VINCENT REYES                                     0502
A0101408950396705700002MARIANO, BUENJIM LARDIZABAL                              0504
A0101403320471478374006NELIA MORALES                                            0501
A1401400110492710433001MACABUAG, PIER PAOLO DE LOS ANG                          0501
A0101407720602397745001DE JESUS, CELESTINA MARCOJOS                             0501
A0101407720602450511001CARCASONA, ALEJANDRA M.                                  0501
A0101407720602504234001STA. MARIA, ARLENE CEDILLA                               0502
A1301400340683564481001REMO, NILO AVENDANO                                      0501
A0101407560686478374054MARICHU F. PILOTA                                        0501
A0101407560686478374067SHERLITA T. FERNANDEZ                                    0501
A4101400390813478374035PLACIDES, MICHAEL                                        0502
A0101401380000000106505SY, WILFREDO O. DBU TITO ROM                            10503
A3801400170000000154185EVANGELISTA, BABY DAISY DBU                             10501
A0101413280000000312643CARLOS R. ATAYDE OR                                     10501
A2601400270000000561551RODERICK E. MADRIDEO OR                                 10501
A0101405490000001092557RUBY C. KIKUCHI OR                                      10501
A1301400470000001299032ARNOLD PASCUAL OR JAYSON CANDEL                         10505
A0101403030000001302076TUNGOL, MARJORIE CAJIMAT OR                             10502
A0101412760000001399179CAPILI, JOEL FRANCISCO OR                               10502
A0301400790000001776150SAAVEDRA, EARL JOSEPH B                                 10501
A0101413280000002648337MITCHELLE ZARAH HORTALEZA OR                            10501
A0101400150061356288002FERNANDEZ, MA. EDINA T OR                               10502
A1001400190231436392001UYGUANGCO, JENNIFER PABILLORE                           10501
A1301400470252620065011ALFREDO L. AGUNOY OR                                    10501
A2001400290315048040001SILVER RIVERS                                           10503
A0101405650322093557001CUEVAS, MA. DONATA NADINE OR                            10502
A0201400760374716616001PERALTA, ANGELA BAGUISI OR                              10501
A0101402770391384756002ROGER  AKERS OR TAMRA AKERS                             10502
A0101405490392524866001SANTIAGO, DOJOE ROBLES OR                               10501
A0101408950396047389001MELROSHEAN CONSTRUCTION                                 10502
A0101408950396565472001DEBBIE GUANI DY MEGUIZO OR                              10503
A0101403580511150629008MIRIAM HIPOLITO OR RAMONA PENA                          10501
A0101408110515365513003KARIMA HASSAN T. CASTRO OR                              10502
A0601400230891738531001CHUA, MARK ANTHONY GARCHITORENA                         10502
A0101401380000000106505SA CAPITOL RESTA                                        20500
A3801400170000000154185R.D.E. BEAUTY CENTER                                    20500
A0101413280000000312643CARMEN M. ATAYDE                                        20500
A2601400270000000561551JUANITA S. MADRIDEO                                     20500
A0101405490000001092557RUBEN G. CHUA                                           20500
A1301400470000001299032ARIA OR ROCKY HIPOLITO                                  20500
A0101403030000001302076TUNGOL SR., RONALDO M                                   20500
A0101412760000001399179NAKAMURA, JOCELYN CAPILI                                20500
A0301400790000001776150OR SAAVEDRA, MARIE CHONA                                20500
A0101413280000002648337MARY ROSE HORTALEZA                                     20500
A0101400150061356288002FERNANDEZ, VERNON KEITH J                               20500
A1001400190231436392001OR KEN NINO TIRO                                        20500
A1301400470252620065011LUALHATI B. AGUNOY                                      20500
A2001400290315048040001CONSTRUCTION SUPPLIES                                   20500
A0101405650322093557001CUEVAS, RAFAEL                                          20500
A0201400760374716616001PERALTA, ARTHUR JOHN                                    20500
A0101402770391384756002OR LORELLIE TAMP                                        20500
A0101405490392524866001SANTIAGO, MA. REMEDIOS                                  20500
A0101408950396047389001CORPORATION                                             20500
A0101408950396565472001DONALD JUDE UY MEGUIZO                                  20500
A0101403580511150629008OR GERALDINE LIMOSNERO                                  20500
A0101408110515365513003DANIEL OLIVER CASTRO                                    20500
A0601400230891738531001TAYAO, GILBERT A                                        20500
B0101407270000000010139BATTERYWORLD, INC.                                       1602
B0101407270000000010180COUNTRY CHATEAU HOTELIERS CORPORATION                    1602
B0101403580000000922872PJ LHUILLIER, INC.                                       1601
B0101403580000000922883UXMNL INC.                                               1602
B0101402480000001927517*********                                                1601
B2001400290000001973782***************                                          1605
B0101414120000001984201KAYAK CONSTRUCTION CORP.                                 1610
B0101407140000002670915**********                                               1602
B0101411950000002691289RMJ-M TRADING INDUSTRIES, INC.                           1605
B0601400100081024197001DTW DESIGN STUDIOS                                       1602
B0101407270162028688001KAISA CONSULTING COMPANY, INC.                           1608
B0101407270162041489001******                                                   1604
B0301400790195054069088BF RETAIL & DISTRIBUTION CORP.                           1601
B0101401380201025256001MESSE & HANDEL CORPORATION                               1601
B0101401380201034155001TINOLEY DIGITAL PHOTOGRAPHY INC.                         1610
B0101401380201370046001**********                                               1602
B3101400160221031027001ALLIED DOCTORS FOOD RESOURCES, INC.                      1605
B0101402480331010038001**********                                               1603
B0101402480331010347001****                                                     1605
B0101402480331018366001******                                                   1602
B0101402480331031132001LOTTE ALUMINUM CORPORATION                               1602
B0101402480331031144001DELSON'S OIL SEAL AND PACKINGS MARKETING                 1602
B0101402480331031507088**********                                               1612
B0101402480331033229030TGP DRUGSTORE                                            1602
B0101402480331033229031TGP DRUGSTORE                                            1602
B0101402480331036207004MYGENERICS PHARMACY INC                                  1602
B0101402480331036207009MYGENERICS PHARMACY INC.                                 1602
B0101402480331038017001************************************                     1606
B0101402480331045776001NOSTRANO FORMA CO.                                       1603
B0101402480331541505015PHARMAGENERICS, INC.                                     1602
B0101402480331748556012QUALIGEN PHARMACY CORP.                                  1602
B0101402480331748556016QUALIGEN PHARMACY CORP.                                  1602
B0201400760374026695001HJR INTERNATIONAL CORPORATION                            1603
B0201400890376054145001REL TRADING                                              1601
B0101408790383041264001LIFEDATA SYSTEMS INC.                                    1601
B0101402770391015995001CLAYTON INDUSTRIAL CORPORATION                           1604
B0101408400394041333001W TOWER CONDOMINIUM CORPORATION                          1601
B0101403030441303324001**********                                               1602
B0701400260495037805002PRINCETON ENTERPRISES                                    1601
B0101403580511005170001JOLOU REALTY AND DEVELOPMENT CORP.                       1603
B0101403580511005607002RAM FOOD PRODUCTS, INC.                                  1603
B0101407720602026114001**********                                               1603
B0101406590662022845001CAJ INFORMATION SOLUTIONS CORP.                          1602
B0101408400000000077872TECH-ASIA INDUSTRIAL ENTERPRISES                        11601
B0201400760374249471002COMMONWEALTH INSURANCE COMPANY                          11602
B0101408400000000077872CORP.                                                   21600
B0201400760374249471002-OPERATING FUND                                         21600
B0201400210371821100608**********                                               2010
B0201400210371821200608**********                                               2010
