F4101400260000001673401ALESTANTE, ALYER MENDOZA                                 2501CKO
F0301400820409051644001DIWACO                                                   2601CKR
F4101400550815044429001CAMELLA HARDWARE & CONSTRUCTION SUPPLY                   2601CKO
