A0301400820000000024860HERNAN, PESARLITO T.                                     0503
A0201400920000000048031FMC CATERING SERVICES                                    0501
A4101400390000000048491MARCOSO, NENA MINGO                                      0501
A0201401020000000056277REGINO, YANNIS JOIE SAGUBAN                              0501
A0101406750000000090628ENDAYA, ELEN ROSS CALONG                                 0501
A0101406750000000090673DIMAIYACAN, MARCELINA MANALO                             0501
A1301400500000000213390********                                                 0501
A1301400500000000213425ERIKA AUBREY H. DIMAPILIS                                0501
A0201400760000000222933WALL STREET BUSINESS CONSULTANC                          0501
A0101409050000000258304MARY JANE A. CRUZ                                        0501
A0101410560000000268353NICODEMUS, MELBA ESCANO                                  0501
A0101407430000000446713EVALYN A. PADRE                                          0501
A2601400270000000561700MILA R. VALDEZ                                           0503
A2601400270000000561722JAQUELINE D. GALIZA                                      0501
A4101400420000000710212MARIA CECILIA OSERA BROQUEZA                             0501
A0101408950000000776723VARANDMAL, MICHELLE GRACE FERNA                          0501
A3401400280000000784681LUSANTA, EDEN OTON                                       0501
A0101411080000000805732MALBAS, MIRAFLOR MANSUETO                                0502
A0101410850000000844673**********                                               0501
A0101413310000000864017DE QUIROS III, URSUS HEBRON                              0501
A0101404420000000866520PANGANIBAN, MHERFIE STA MARIA                            0501
A0901400220000000888002**********                                               0501
A0101410300000000919524JAVIER, CHRISTOPHER JOYCE F.                             0501
A0301400530000001009994PADAYHAG, WINNIE L.                                      0502
A0101412340000001017792TENORIO, ANDROMEDA ROPIA                                 0501
A0101400600000001025114CARMELITA V. NATIVIDAD JR.                               0501
A0101408240000001038755DEMETRIA, ALBINA PAGCANLUNGAN                            0501
A0101412890000001056531MIAVE, MARIA CONCEPCION TABLICO                          0501
A1001400190000001057567SIMPSON, REYNALDA PANGONILO                              0501
A3101400450000001104163VELASCO, ANASTACIA ROXANNE DELA                          0501
A0201400760000001107511OQUIAS, JOCELYN LIM                                      0501
A1701400230000001108398BATOON, ROMUALDE DAIT                                    0501
A5501400120000001121931RIVERA, GENIGRACE BELTEJAR                               0501
A5501400120000001121942DELA CRUZ, ELSIE DORDAS                                  0501
A0101401830000001140010SANTOS, ROSIELYN LUCERO                                  0501
A3101400450000001149304ARAMBULO, ARTRIE NAPIZA                                  0501
A0101413150000001288353******                                                   0502
A0101402510000001292273TAMAYO, MELCHOR VILLARIN                                 0501
A0101407720000001447941**********                                               0501
A1101400120000001547291REAS JR., ARISTON NARTIA                                 0503
A0101402770000001570690PERALTA, JUVY REYES                                      0501
A0101402770000001570747BARBERAN, ALDRIN HEQUIBAL                                0501
A4101400550000001622662VERANO, GRACE BAYONA                                     0501
A4101400550000001622673CHEN, PATRICK DBU BOLLYWOOD CON                          0501
A0101413570000001682577ARNAUD JOEL S. POMPA                                     0501
A0101406620000001686600FIGUEROA, JULIETA S.                                     0501
A0101400150000001708112PANGILINAN, JACQUELOU MENDOZA                            0501
A3401400280000001723411BASAN, DIANE JANE PLACIDO                                0501
A4101400390000001732598MABIA, HERTRODES DESEPEDA                                0501
A4101400260000001783553VILLAFLOR, ALMA AGUILAR                                  0501
A2201400250000001932203ITO, RUBY YUMUL                                          0501
A2201400250000001932225MICHAEL E. MALABANAN                                     0501
A0101400310000002050602LOPEZ, ROGELIO FLORES                                    0501
A0101400150061341245014LIM, ROBERTO CECILIO                                     0501
A0101400150061341283001DIAZ, CYNTHIA MARTINEZ                                   0502
A0101401090171032179001AJMLARA & ASSOCIATES                                     0503
A0101401090171197714001LUCILA O. BANCE                                          0502
A0301400530193047804168JULIE'S BAKESHOP                                         0501
A0301400530193637870168LU, KUO HSIEN LEE                                        0503
A0301400530193686503001CORPUZ, GLENN A.                                         0501
A0301400530193763902001VANTA, ENRICO MENDAROS                                   0502
A0301400530193776408001AQUINO, MARICEL B.                                       0501
A0301400660194725413001ALTAMIRANO JR., RAFAEL CLEMENTE                          0501
A0101407140213190314001**********                                               0502
A0101407140213699694001**********                                               0501
A3101400450223466114002NATIVIDAD, GINA DUNGO                                    0502
A1001400190231040271001ROADNET 2000 ENTERPRISES                                 0502
A1301400470252442532001DRA. MELISSA C. DE GUZMAN                                0502
A1301400470252444744002PAMELA FAYE P. CRUZ                                      0501
A0101400570281338114001CARLOS E. DE LAS LLAGAS                                  0501
A0101400570281519630001CARLOS, MARIA ARLENE DUMANDAN                            0501
A0101405650322298552006RUFA MACABENTA                                           0501
A0101402510341478374008MARY GRACE B. ANDRES                                     0501
A0101402060351378845001MARAMAG JR., CRESCENCIO BUCAD                            0502
A0201400920375609447001RAMIRO, MARIA ARCELI AVANZADO                            0502
A0201400920375733530001LIM, WILKY TAN                                           0501
A0201400890376745254001BUYSER, IAN CHRISTOPHER COLETO                           0501
A0101402770391529757034FRANCO, FRANCISCO                                        0501
A0501400170481350777002SISON, MARIA RESURRECCION                                0501
A3801400170490793031001RUEL D QUINZON                                           0502
A1401400110492625689001YAGO, MARIO ALTURA                                       0502
A0101406880513555602001REYES, ROMEL BAYSA                                       0501
A0101408530516571877110EMILIE JUNE C. CALONGE                                   0502
A0101403450521478374007********                                                 0501
A0101404420631478374077******                                                   0501
A0101411530654168711001**********                                               0501
A1301400340683361105001DELA CRUZ, ESTER SANTIAGO                                0501
A0101408240711563132001MACABUNLOG, JERALYN STA ANA                              0501
A4101400260812403511001BOSITA, CHRISTIAN DUA                                    0501
A4101400260812478374005JENITA Z. PALLE                                          0501
A4101400260812478374031ANGELINA P. TAN                                          0501
A4101400420814520766061ESTILLERO, SUSANA O.                                     0502
A0101404840851478374071MARITESS C. CASARILLA                                    0501
A0301400530000000066033XU, CHARLES EDUARD BARCELA OR                           10505
A2601400270000000084320GERVACIO S. MARFIL OR                                   10501
A0101400150000000807283ZABALA, ROMMEL DAIRO OR                                 10501
A0101411370000000903571URBAN FONTS ADVERTISING                                 10503
A2801400100000000968863MORADOS, MAYUMI ESPORLAS OR                             10502
A2601400270000001009107JOHN 3:16 MUSIC CENTER AND                              10501
A2601400270000001009152COSTES,ROLAND DBU NORTHPEARL                            10501
A0101409920000001539500TAMAYO NARISSA                                          10502
A0601400520000001706827TANGLAO, MARIA CECILIA T.                               10502
A4101400390000001732543PINLAC, JENNIFER BALLA OR                               10502
A0101408400000001952730MARY ANN D VALISNO OR                                   10501
A0601400100081485664001TAYAG, JOSE HUBERTO S. OR                               10502
A0101401830141292667001GEMMA B. MAGTALAS OR                                    10502
A0101407270162202571001ROGELIO R. MAMMUAD OR                                   10502
A0101401090171196128001DRS. ROLANDO CABATU OR                                  10502
A0301400530193583614088VILLANUEVA, MELISSA MAY OR                              10505
A0301400530193697653001PACE, MELYN T. AND                                      10506
A0301400530193729179088VILLANUEVA, PHILIP OR                                   10503
A0101400310211163379002MARCOS, ZENAIDA CABEL OR                                10502
A0101400570281188735003ATTY. PAUL SAGAYO, JR. OR                               10501
A0201400890376633154001JIMENEZ, PETER OR JIMENEZ,MARIA                         10503
A0201400890376667775001BUYSER, MISAN CANAS OR BUYSER,                          10501
A2401400180411577534001LASOLA, EDITHA RIVERAL OR                               10502
A0901400220432746180001ARCILLAS, ESTER G. OR                                   10503
A1401400110492621336001MOISES, JESSIE LOSAURO                                  10501
A2201400250561478374025LUZMINDA M. GACILAN                                     10501
A1301400340683249082002RICARDO HERMOSO II OR                                   10501
A1701400230693478374062AGNES, EVAMARIE KRISTINE                                10501
A2801400100712498104001NORA M. DELOS REYES                                     10501
A0301400530000000066033XU, ZHIPEI                                              20500
A2601400270000000084320REBECCA M. MARFIL                                       20500
A0101400150000000807283ZABALA, RIZA                                            20500
A0101411370000000903571SERVICES                                                20500
A2801400100000000968863ESPORLAS, PONCIANO RODOLF                               20500
A2601400270000001009107SERVICES                                                20500
A2601400270000001009152TRADING JT                                              20500
A0101409920000001539500DBU SZAMANTA ENTERPRISES                                20500
A0601400520000001706827OR TANGLAO, VICTOR M.                                   20500
A4101400390000001732543BALLA, ANTONIO LLANES                                   20500
A0101408400000001952730MARITES S DOMONDON                                      20500
A0601400100081485664001TAYAG, JENNIFER                                         20500
A0101401830141292667001HENRY A. MAGTALAS                                       20500
A0101407270162202571001MARIBEL D. MAMMU                                        20500
A0101401090171196128001MARCELLA RUIZ-CABATU                                    20500
A0301400530193583614088VILLANUEVA, PHILIP                                      20500
A0301400530193697653001EUGENIO, EMILIA                                         20500
A0301400530193729179088VILLANUEVA, MELISSA MAY                                 20500
A0101400310211163379002MARCOS, EDUARDO                                         20500
A0101400570281188735003SNOOKY MARIA ANA SAGAYO                                 20500
A0201400890376633154001THEREZA OR ALAZA                                        20500
A0201400890376667775001IAN CHRISTOPHER                                         20500
A2401400180411577534001LASOLA, ROGELIO                                         20500
A0901400220432746180001ARCILLAS JR., OSCAR C.                                  20500
A1401400110492621336001HUI KEUNG DAR                                           20500
A2201400250561478374025MEMBERS OF NATASHA                                      20500
A1301400340683249082002AGRIPINA HERMOSO                                        20500
A1701400230693478374062DULDULAO                                                20500
A2801400100712498104001OR PAMELA C. BIN                                        20500
B0301400530000000025287TAGUM PIONEER FOODS CORP. - ADMIN                        1601
B0101400570000000031712MATTERHORN MOTOR INC.                                    1603
B0101401830000000033592CARITAS SALVE CREDIT COOPERATIVE                         1603
B0101401830000000033627CARITAS SALVE CREDIT COOPERATIVE                         1603
B0101412050000000043416********                                                 1601
B1001400480000000133593DELUXE RANCH TRANSPORT CORPORATION                       1602
B0101413730000000144681*******************                                      1601
B1101400120000000652891COASTALVIEW FOODS CORPORATION                            1602
B0301400530000001409392PHILFRUITS PREMIUM CORPORATION                           1603
B0101401700041619204001MELBER AUTO PARTS CENTER, INC.                           1605
B0101400150061010736001SPCASTRO, INC.                                           1605
B0101407270162038101001BIRDS INTERNATIONAL, INC.                                1602
B0301400530193035726167TAGUM PIONEER FOODS CORP. - 1                            1605
B0301400660194044769038LUMINOUS DEVELOPMENT CORPORATION                         1610
B1001400190231276633001SIA, TOMAS &/OR ANNIE &/OR GINA                          1610
B0101401670271007087001BELSON SECURITIES, INC.                                  1610
B0501400200292036584001SSS EXPRESS CREDIT, INC.                                 1602
B0501400200292036584002SSS EXPRESS CREDIT, INC.                                 1602
B0101405650322043676001KEWALRAM PHILIPPINES, INC.                               1601
B0201400920375036273001PROFOOD INTERNATIONAL CORP.                              1605
B0201400890376047100001MANDAUE PRINT SHOP CORPORATION                           1602
B0901400220432044564001MARCIAN CONVENTION CENTER                                1610
B0501400170481018109002****                                                     1604
B0101411950680046980001AQUA MEGA, INC.                                          1601
B4101400420814038729001FUNERARIA SAMSON INC.                                    1601
B4101400420814047160001NODI INCORPORATED                                        1601
B0101412340000000030935CHICHIRITA, DBU MPROB INDUSTRIAL PARTS                  11601
B0101409920000000437012ANNANG, DES DBU MOMMY TAMMY PARTY NEEDS                 11601
B0201400760374507828001MANCAO, DAISY SUE KIMBERLY GO                           11601
B0101410690600046710001BEST ELECTRICAL AUTOMATION CONTROLS                     11605
B0101412340000000030935AND SERVICES                                            21600
B0101409920000000437012AND CATERING SER                                        21600
B0201400760374507828001OR DEXTER RYAN M                                        21600
B0101410690600046710001(BEAC), INC.                                            21600
B0101406040112821100608**********                                               2005
B0101407430503821100608**********                                               2020
