A0101400600000000007707**********                                               0502
A0101408820000000027352********                                                 0502
A1601400170000000036502SEADOG DINER                                             0502
A1601400170000000421207HAZEL S. SIARON                                          0501
A0901400220000000425045LOZADA, ELIZABETH GO                                     0501
A0101406330000000451370VILLARANTE, MARIA LUZ PELAYO                             0501
A0101412180000000501482********                                                 0502
A0101400440000000596516ESGUERRA, RAMON HIPOLITO                                 0501
A1101400120000000652351YAO, RONALD PHILIP GO                                    0501
A0101401700000000890397JOSE BRAGAIS BORITO                                      0503
A0301400530000001009830********                                                 0504
A0301400530000001009852PUNDOGAR, ABDULGAFFAR P.                                 0501
A1001400190000001057454PANANDIGAN, MITCHELLE BACUNATA                           0501
A6601400120000001065372CABILI, JULIUS MICHAEL MACAMAY                           0501
A1601400170000001068622NOEL C. CELESTIAL                                        0501
A0101402480000001099674******                                                   0506
A0101400150000001422560MA. SONIA DE GUZMAN                                      0501
A0101413440000001473007TAPNIO, MARIA LUISA JOSE                                 0501
A1101400120000001547520TAN, MELVIN NATHANIEL ANDRADE                            0502
A1101400120000001547520TAN, MELVIN NATHANIEL ANDRADE                            0502
A0101402480000001561991KAW, NICOLE LORAINE CHEN                                 0501
A0101411240000001563333BUKAS, DENIS CONFERIDO                                   0501
A1401400110000001806833EMETERIO C MINDANAO                                      0502
A4101400420000002084551MACAPAGAL, ARVIN JUSTIN TAMONDO                          0501
A3101400450000002093023MIRABALLES, EDWARD UMALI                                 0505
A1001400190000002170565CHABON, CLAI DBU SOUTHERNFIELDS                          0502
A1301400340000002283741CECILIA R. PRODON                                        0505
A0101402510000002346692*****                                                    0501
A0601400230000002650160DEL ROSARIO, JHOENEL MONTANO                             0503
A0101412340000003341999PATRICK JOSEPH B. COMPETENTE                             0502
A0101412340000003344909MARIBETH G. NOLEAL                                       0501
A6601400120000003353751BALLETA, ERILYN NORCIO                                   0501
A0101412340000003422864HENRY M. TORRES II                                       0501
A0101400860011379561003**********                                               0502
A0101400860011426836001*********                                                0502
A0101400860011619428001**********                                               0502
A0101400150061389261001AYSON, JOEL RAYMOND REDULA                               0502
A0101400150061564610064BUENAFLOR, MARIA GERALDINE ROSE                          0501
A0101400600071233729001**********                                               0501
A0101400730111195439001TAN, ROWENA                                              0501
A0101400730111520766051RABAGO, LENY FE                                          0501
A0101400440161039572036ANTONIO S. VILLANDA JR.                                  0501
A0101400440161039572045DOVIE T. JERMIA                                          0502
A0101400440161649340001EZRA AQUI N. DIAZ                                        0501
A0101401090171196039001MANUEL C. MEJIA JR.                                      0503
A0101401090171448110001JOYCE G. LLANA                                           0501
A0101401090171705836001MENDOZA, RE-ANN-MAE FELICIANO                            0501
A0301400530193585849001COSMENO, MARINEO C.                                      0502
A0301400530193652753001LOGRONIO JR., SABINO P.                                  0502
A0301400530193686503001CORPUZ, GLENN A.                                         0501
A0101407140213041784001RED DRAGON INDUSTRIES                                    0502
A0101407140213289248001LORENZANA, MA. LUISA M.                                  0501
A1001400190231478374041DIMAKUTA, MARIVIC P.                                     0501
A1001400190231520766110MAYOR, CARMELITA ANGCAY                                  0501
A1001400190231520766126ORTIZANO, MERLYN B.                                      0501
A0101406460272722876002DOROTHY ALINDOGAN                                        0502
A1101400120313478374099SALAS, ERIKA GALAROSA                                    0501
A6601400120314668441002MASLOC, SHERRY AMOR GALONO                               0501
A0101402480331224927001TENNYSON CHEN                                            0502
A0101402480331520766110MONDIA, LINDA P.                                         0501
A0101408820333158628001TAN, ROMEO LAO                                           0501
A0101408820333478374054FE B. CARANYAGAN                                         0502
A0101408370382205131001DR. ELENA C. AZARRAGA                                    0505
A0101408370382498940001DR. MARIA VANESSA H. DE VILLA                            0501
A0101408370382590137002LUISA LOURDES A BENGZON                                  0501
A0101402770391022532001VIREX ENTERPRISES                                        0501
A0101402770391028626002RED ELEPHANT TRADING                                     0502
A0101402770391214110001ROLANDO N. FRANCISCO                                     0501
A0101408400394478374024DIONISIO, CRISTITA P.                                    0501
A5501400120410042696088CAMBARIJAN MOTOR DOK                                     0505
A5501400120410665205001ULANGKAYA, ASSAM OR JUVY                                 0502
A5501400120410729506001JOSOL, ARLIEN BACON                                      0501
A2401400180411478374044UGAT, ELVA T.                                            0502
A0101406330472296884001JAYLEE TRADING                                           0502
A0101406330472459699001NANCY G. HAMOR                                           0501
A0101406330472766049001VERONIDIA G. DELA CRUZ                                   0501
A0101408110515041358001MADE IN HEAVEN ENTERPRISE                                0501
A0101403450521239411001**********                                               0504
A0101403450521239834002**********                                               0503
A0101403450521357926001**********                                               0501
A0101403450521578491001********                                                 0501
A0101407720602381963001KASILAG, EMMANUEL R.                                     0501
A0101404420631478374134DENNIS F. GULA                                           0501
A0101404420631570581001GEPILANO JR., MELITON BAJOS                              0501
A1301400340683552624001ENRACA, MA. THERESA GREGORIO                             0502
A0101408240711630742001SAYO, MARK ANTHONY PAMINAR                               0501
A4101400260812478374055ARLENITA E. MORALITA                                     0501
A4101400420814366489001DE VILLA, FELISA DE MESA                                 0502
A4101400420814520766111COLETA, JEANNETTE C.                                     0502
A4101400420814520766121LOBATON, JENNYLN                                         0501
A0101404840851478374035MYRNA A. LAGRAN                                          0501
A0101404840851478374038EVANGELINE UMALI                                         0501
A0101404840851520766071TERESITA SANTOS                                          0501
A0101404840851520766105ALICAWAY, HELEN                                          0501
A4101400550000000005950SEGURITAN, JOCELYN DBU SFC                              10506
A0301400530000000065876VILLANUEVA, MARITESS A. or                              10501
A0101402770000000360923PERLITA CELOSA OR                                       10501
A1301400210000000540798EDMAR DL SAN VICENTE OR                                 10501
A0301400820000000814088OZOA, EUGENE B. OR OZOA, LYDIA                          10503
A0101409920000000998661MEMBERS OF NATASHA (SHOECAT INC                         10501
A0101408400000001035421ANGELICA BIRTHING HOME AND                              10501
A0101402770000001570725VILLAMORA, DBU CHRISTINE MANALO                         10501
A0101401090000001618731GUGOL LEARNING AND RESEARCH                             10502
A3101400870000001712163TUAZON, ALLAN SANTOS OR TUAZON                          10502
A2801400230000001734732TAN, S DBU CITY REJUVENATING                            10502
A3101400870000002662331LUALHATI, MICHAEL ANTHONY                               10501
A2201400250000003072153BRUCE DANIEL S. RIVERA OR                               10501
A0101410850109055892001CABANTING, MARISSA B. DBU                               10501
A0101401090171376119006MARC LADISLA OR JOHN REYES                              10503
A0101408370382205163001DR. ERMELO P. BALCUEVA OR                               10503
A0101408370382502527001DR. NARCISA Q. FAJARDO OR                               10502
A0101408370382663801001DRS. RICARDO G. ROCO OR                                 10502
A0101402770391212085001EUGENIA CATAPIA OR                                      10502
A12014001504212536240016UANZON, ALICE D. OR                                    10505
A1401400110492541342001ABELAR, LOURDITO S. OR                                  10503
A0101408530516095683001WELSAM L DENOLAN OR MARIVIC Z                           10501
A0101407720602283353001ERWIN HERNANDEZ OR                                      10501
A1301400500684611370001STA. JUANA, ELENA L. OR                                 10502
A0101408240711383150001AURELIO III OR AURELIO JR.                              10501
A4101400550000000005950OFFICE FURNITURE                                        20500
A0301400530000000065876VILLANUEVA, FEDERICO M.                                 20500
A0101402770000000360923FRANCISCO CELOSA                                        20500
A1301400210000000540798TONI PAULO A VAL                                        20500
A0301400820000000814088P.                                                      20500
A0101409920000000998661CALORA, DOMINGA                                         20500
A0101408400000001035421PEDIATRIC PRIMAR                                        20500
A0101402770000001570725VILLAMORA INTERIRIOR                                    20500
A0101401090000001618731SERVICES                                                20500
A3101400870000001712163EDNA BLANCA ALDIANO                                     20500
A2801400230000001734732SPA JT                                                  20500
A3101400870000002662331ORTENCIO                                                20500
A2201400250000003072153GLOTHELDA S. RIVERA                                     20500
A0101410850109055892001ERLISH HAULING SERVICES                                 20500
A0101401090171376119006OR ALFONSE ADALIA                                       20500
A0101408370382205163001JULITA C. BALCUEVA                                      20500
A0101408370382502527001DR. MA. FLORENTINA GOMEZ                                20500
A0101408370382663801001URSULA V. ROCO                                          20500
A0101402770391212085001REDEL CATAPIA                                           20500
A1201400150421253624001GUANZON, DELFINO                                        20500
A1401400110492541342001ABELAR, ISABEL M                                        20500
A0101408530516095683001LOZANO OR DALISAY SAFLOR                                20500
A0101407720602283353001AGNES HERNANDEZ                                         20500
A1301400500684611370001STA. JUANA, FATIMA                                      20500
A0101408240711383150001OR AARON LITONJU                                        20500
B1301400470000000009532PROSPERITY SUPERMART                                     1603
B0101401250000000057225CONTEMPORAIN FOODS, INC.                                 1601
B1601400170000000497570FUN DIVE ASIA INC.                                       1601
B0101400570000000749537NEGRIL TRADING, INC.                                     1602
B0101407720000000885598EDUPRO, INC.                                             1601
B0101407720000000885645A.F. NAVARRETE CONSULTANTS & ASSOCIATES                  1601
B0101410850000001229772DAHLZHEN INTERNATIONAL SERVICES, INC.                    1602
B0101404130000002121551BOOMERANG CORPORATE OUTSOURCING SOL                      1602
B0101400860011678167001**********                                               1604
B0101400150061025214001MAA CONSULTANTS, INC.                                    1601
B0101400600071313239001MERCEDITA J. BERNARDO                                    1602
B0101400730111042662001CENCAR CORP.                                             1603
B0101400440161787254001JAPSON, DESIREE MALONZO                                  1601
B0301400530193037796168WANSE COMPANY, INC.                                      1604
B0101407140213016054001**********                                               1601
B0101406460272020749001EASTGATE COMPUTER CORPORATION                            1601
B0101402480331025986001SKY INDUSTRIAL BAGS, INC.                                1604
B0101402480331032460002NCK PLASTIC MANUFACTURING                                1603
B0101402480331221969001**********                                               1602
B0101402480331296876001**********                                               1604
B0101402480331366487001******                                                   1601
B0201400920375037026001**********                                               1601
B0101409180397040384001PAYNAMICS TECHNOLOGIES INC.                              1603
B1201400150421252673001GALANG, ARMANDO DUNGCA                                   1603
B0101408530516032240001BEL-AIR VILLAGE ASSOCIATION, INC.                        1605
B0101408530516036896001UNITED GRAPHIC EXPRESSION CORPORATION                    1612
B0101403450521504300001TAN, GREGORIO CHUA                                       1602
B0101407720602520058001BUEN CHRONOS, INC.                                       1601
B0101404420631051259168*****                                                    1605
B0101408240711029537001ED LINK FOUNDATION, INC.                                 1602
B0101413280000000041921GREENHILLS HEIGHTS CONDO ASSOCIATION,                   11602
B1101400120000000652442GICABAO, KATHLEEN JOY NG OR                             11603
B0101400150061027783001CRESCENT MINING AND DEVELOPMENT                         11601
B0101406040112021958001KNIGHTS OF COLUMBUS FRATERNAL ASSOC. OF                 11601
B0101404000551033697001CREDIT CARD ASSOCIATION OF THE                          11602
B0101413280000000041921INC.                                                    21600
B1101400120000000652442GICABAO, BONGKOK                                        21600
B0101400150061027783001CORP.                                                   21600
B0101406040112021958001THE PHILS. INC.                                         21600
B0101404000551033697001PHILIPPINES                                             21600
B3101400870225821100608**********                                               2002
B2401400180411821100608**********                                               2010
