A1901400160000000007310GONDALINA LIMENDOG JUSTO                                 0503
A0101409920000000022066DAVIS, JONALYN ARGUILLES                                 0501
A0101409920000000022088ASUNCION, MARILYN JUANEZA                                0501
A0101400150000000052980HERNANDEZ, BRENDA SOLIDUM                                0502
A0101401250000000057101RENDON, JOSEPHINE REYES                                  0501
A2601400270000000084360CRISTINA L. CENDANA                                      0501
A0101413860000000145020DASIGAN, ANGELITA GONZALES                               0501
A0101404260000000156778LIM, MILAGROSA EDNA MAGDANGAL                            0502
A1301400500000000213243RITA BULANADI RIVERA                                     0501
A0101401670000000237687GINETE, MARITES CRUZ                                     0502
A0101400440000000337659DE VERA, LORIBETH BAMBO                                  0501
A0101408820000000408655*******                                                  0502
A4101400260000000469272TINGZON, PRIMO YSON                                      0501
A0101404840000000475930DE GUZMAN, MARVIN CAJUCOM                                0502
A0101408240000000521771CASTILLO, JUAN MIGUEL DOMINGO                            0501
A0101404260000000550172PIA, KENNETH VINSON FERNANDEZ                            0501
A0101408370000000586061ALCARAZ, BABY ROSE MANGUNDAYAO                           0501
A0101410300000000592176DE GUZMAN, ELISA YUSINGCO                                0501
A0101406880000000745000MENDOZA, MARIA THERESA VILLAREA                          0504
A0101405650000000772936BLOSSOM GENERAL MERCHANDISE                              0502
A0101401380000000792121GOMEZ, DAISY ALLADA                                      0501
A0101412630000000801450NOGALO, SUNNY RYE MONTELEJA                              0502
A0101402930000000859678TAN, MICHAEL JITRI TABANGIN                              0501
A0101402930000000859929GALICIA, LOLITA RICARTE                                  0501
A0101401700000000890535SAN DIEGO JR, VICENTE ESPINO                             0501
A0101412180000000908481SILAGAN, CHERRYL LEAH CUBILLAN                           0501
A0201400890000000973440COLINA, TERESITA LLANTO                                  0501
A0101401700000000979280**********                                               0501
A0101401090000000993400BASAYSAY, LYDIA ANGUSTIA                                 0501
A0101409920000000998741CAPINO, MARK DEXTER CALAGUI                              0501
A2601400270000001009243ANSON R. LUY                                             0501
A0301400790000001010642PAMONGCALES, ELIAS REPAMONTE                             0503
A0101412340000001017838MARSHA L. LAUS                                           0501
A0101405810000001021241JENITA S. OLIMBA                                         0501
A0101407430000001028897FERNANDEZ, JOVITO GERON                                  0501
A0101413730000001029543*********                                                0503
A0101408400000001035578PINEDA, BLESILDA BERMUDO                                 0501
A0101411110000001036833MARIA ERICA JAN E. VALERIO                               0501
A0101412890000001056171RLC WATER ESSENTIALS                                     0501
A1001400190000001057498LIGTAS, JOSE CALALIN                                     0503
A0101413310000001073916TORRES, CONSUELO FE CIELO D.                             0501
A0101402480000001099732********                                                 0501
A0101412500000001146970MA MARTHINA GENERAL MERCHANDIZE                          0501
A0101412500000001146981LUMBO, ALCHER DELA CERNA                                 0501
A0701400260000001232051SARICAL, JOE ANDREW MERCADO                              0501
A0101404840000001312623LANSIOLA, MA SHARON EBORA                                0501
A0101412920000001313740LINGAN, ROSALINDA PALATAN                                0502
A0201400920000001331771RVFIVE BUILDERS                                          0502
A0101412760000001399271MA. ELENA C. CHING                                       0501
A0101413990000001406513BJZ ENTERPRISES                                          0501
A0101401380000001412708FERRER SR., ALEXANDER CRUZ                               0501
A0101401380000001412731MANAHAN, MARK LESTER MOHAMMAD                            0501
A0101400440000001440033RAYMUNDO, LEILANI BUNUAN                                 0502
A0101412050000001499658PADILLA, DULCE AMOR GARCIA                               0501
A0101409920000001539653PASTRANA, MARY ANN CERCADO                               0501
A2001400290000001557666LIBETARIO, KATHERINE AMORES                              0501
A0101402770000001570781AVEGAIL LAGMAY DONALDO                                   0501
A4101400550000001622719MINA, MARY JANE VALDESCONA                               0501
A0101403320000001646631SANTIAGO, LEILANI SANTIAGO                               0502
A0101409050000001662404O'DONNELL, NICHOLAS MICHAEL RIC                          0501
A0101404260000001725297KOREAN LANGUAGE CULTURE (KLC) T                          0501
A0101401960000001844577CRUZ, JENNIFER MALLARI                                   0501
A1901400290000001926321ARLENE BAQUILLAS GUNAY                                   0501
A0101406750000002040135CORDERO, MARIE JEANETTE PARAISO                          0501
A0101402510000002163840VIZCAYNO, MERIAM BALATINSAYO                             0501
A0101400860011487539001**********                                               0503
A0101400860011496074002**********                                               0501
A0101400860011529457001**********                                               0505
A0101400860011686506001**********                                               0502
A0101400860011718088001**********                                               0501
A0101401700041024130001AARON SAMUEL INC.                                        0505
A0101400150061229072001CARMENCITA D. KATIGBAK                                   0506
A0101400730111386485182DOLORES SALANG                                           0501
A0101400730111412858042ALMA PATRIARCA                                           0502
A0101400730111692067001RABAGO, JACQUELINE ATANACIO                              0502
A0101400440161478374076JAYNE D. BARBIN                                          0501
A0101400440161478374162SIANITA MONJE                                            0501
A0101400440161525001046MELINDA M. USARAGA                                       0501
A0101400440161525001115EVA D. SAMILLANO                                         0502
A0101401380201502664001LEY, RICHARD NOEL CO                                     0502
A3101400160221529439001ESTELLA MARIE M RAMIREZ                                  0502
A3001400130230478374008GAMO, HAYDEE EDEN CAFE                                   0501
A1001400190231520766094SALAGUSTE, FELIPE B.                                     0501
A1001400190231520766103BALCUEVA, CESAR S.                                       0502
A1001400190231520766109MEJIA, FLORDELIZA CAJANDAB                               0502
A1301400470252478374027RICA D. SANTIAGO                                         0501
A1901400290261493025043VICENTE D SANTIAGO JR.                                   0502
A0101401670271192170001GERARDO R. MENDOZA                                       0510
A0101406620273729526001ROQUE, MARIBEL DIMAPILIS                                 0502
A0101400570281405220002AGNES FELIZA L. EDILLON                                  0501
A0801400160311478374004MAELYN HACERMIDA                                         0502
A0801400160311478374088CHERYL C. CONDINO                                        0501
A0801400160311553780001COSTA, HENRY CERDENIA                                    0503
A0101402480331016848002**********                                               0501
A0101402480331020937001**********                                               0503
A0101402480331291927001**********                                               0505
A0101402480331367035001**********                                               0501
A0101402480331478374189*******                                                  0502
A0101402480331520766027CABRELA, SUSAN PANOTES                                   0501
A0101402480331520766033GAJES, ALLYN PANAGDATO                                   0501
A0101402480331546994001******                                                   0501
A0101402480331571192001*********                                                0504
A0101402480331750722001PERALTA, GLORIA BORBE                                    0501
A0101402060351473341001DELA CRUZ, MARIE JOY BARCELONA                           0501
A0201400760374751653001KING, CHRISTOPHER LOPEZ                                  0502
A0101408400394027889001TINA S. BERIN FLOWER SHOP                                0505
A0101408400394160344001CALMA, ALFREDO MATAGA                                    0504
A0101403030441241050001**********                                               0503
A0101403320471365878001*******                                                  0502
A0101403320471478374055BENITO OR REYZEL ESLABA                                  0501
A0101405940512457925001LEDALYN S. CATULAY                                       0501
A0101408530516571877040LEGASPI, EDMER CRUZ                                      0501
A0101403450521329789002*********                                                0502
A2201400250561078548001BENIGNO M. ALMAYDA                                       0505
A0101404260611005270001VP SERVICES & SUPPLY                                     0505
A0101404260611096282001LUCERO, LEILANI DIGO                                     0501
A0101404260611150837001EMILIANO OR MARIETTA REYES                               0502
A0101404260611478374052ROSEMARY F. ROLDAN                                       0504
A0101404260611478374118CONCEPCION R. LOGATOC                                    0501
A0101404420631092728188*****                                                    0505
A0101404420631478374128MELINDA A. DELOS SANTOS                                  0501
A0101404420631478374138MARICEL GILIOAGAN                                        0501
A1301400340683560646001BUGARIN, ONOFRE BRILLANTE                                0502
A0101408240711478374013REGINE C. MEDINA                                         0501
A0101409920000000022044LAZARO, AMOR LITA                                       10501
A0101401380000000106505SY, WILFREDO O. DBU TITO ROM                            10502
A0101413860000000145008GALICIA, MARY ANN GONZALES JT                           10501
A0101412760000000208637BERNARDO, RE  DBU VIREX ENTERPR                         10502
A0201400760000000222944MEMBERS OF NATASHA (SHOECAT INC                         10501
A0101402770000000360956NAZARIO PLATON OR                                       10501
A3101400450000001149348DY, PHILIP C. OR DY, CHARITO V.                         10501
A3101400450000001149359DY, PHILIP C. OR DY, CHARITO V.                         10501
A0101406460000001231554WEE, AUDREY ANN SY OR                                   10503
A0101403320000001646868ADSACA, CRIST DBU MANONG CHRIS                          10501
A0101409050000001662426PEFIANCO, FRA DBU DRAGON EMPIRE                         10501
A0101413570000001682657KATRINA A. ARELLANO OR VICTOR                           10501
A0101412630000002040642CAYETANO, DAVID GUEVARRA OR                             10502
A0201400890000002161779CHARLES P. SIA OR CHRISTY ANNE                          10501
A0101400150061567341002CORDOVA JR., EBENEZER ADOLFO OR                         10501
A3101400160221402966001JUAN A. LAGUNZAD  OR                                    10501
A1001400190231040264001WESTBOUND PETRON                                        10502
A0101401670271007151001ST. JOSEPH THE PATRIARCH PARISH                         10525
A0101401670271186213001ALICE OR BENEDICT OR LAWRENCE                           10502
A0101401670271338381001MA. ANNALIZA A. BARTOLOME OR                            10501
A0101405650322175234001EDWARD J. SANTOS OR                                     10501
A0101402060351009385001JORGE ALOMBRO JR. OR                                    10505
A0101402060351328741002CARLOS, JOSE IGNACIO OR CARMEN                          10505
A0201400890376272044001LEE, JOSEPH KENNETH GUEVARRA OR                         10504
A2401400180411496346001OCIEL, MARIA MAGDALINA S. OR                            10505
A0101407720602389965001NORMAN OR PAULITA OR NORMA                              10501
A0101407720602398260001JURILLA, JON EDWARD OR                                  10504
A0101408240711383150001AURELIO III OR AURELIO JR.                              10501
A0101409920000000022044MEMBERS OF NATASHA                                      20500
A0101401380000000106505SA CAPITOL RESTAURANT                                   20500
A0101413860000000145008DAVID, ERLINDA                                          20500
A0101412760000000208637ISES                                                    20500
A0201400760000000222944GOMEZ, CARMELA                                          20500
A0101402770000000360956LEONITA PLATON                                          20500
A3101400450000001149348OR DY, PATRICK ALEXIS V.                                20500
A3101400450000001149359OR DY, SHERWIN V.                                       20500
A0101406460000001231554WEE JR., CESAR LEE                                      20500
A0101403320000001646868TAPSILOGAN                                              20500
A0101409050000001662426CONSTRUCTION                                            20500
A0101413570000001682657JOSE ANGELO C. ARELLANO                                 20500
A0101412630000002040642LIM, RICHARD                                            20500
A0201400890000002161779E. SIA                                                  20500
A0101400150061567341002CORDOVA, MARIAME                                        20500
A3101400160221402966001THELMA D. LAGUNZAD                                      20500
A1001400190231040264001SERVICE STATION                                         20500
A0101401670271007151001CHURCH                                                  20500
A0101401670271186213001OR PATRICIA A.I.                                        20500
A0101401670271338381001DINO ANTONIO B. BARTOLOME                               20500
A0101405650322175234001CARMELA YUTUC-SANTOS                                    20500
A0101402060351009385001NELIA ALOMBRO                                           20500
A0101402060351328741002CARLOS OR REGINA                                        20500
A0201400890376272044001LEE, MA. CARMEN                                         20500
A2401400180411496346001OCIEL, RANDY L.                                         20500
A0101407720602389965001ABASTILLAS                                              20500
A0101407720602398260001CAMILLE L. JURILLA                                      20500
A0101408240711383150001OR AARON LITONJUA                                       20500
B4101400260000000002284STEPUP DISTRIBUTORS INC.                                 1604
B2001400290000000020560VIMLE UNIVERSAL SOLUTIONS INC.                           1601
B0101406880000000027169MARINE BENEFITS ASSISTANCE SERVICES, INC                 1602
B0101406460000000182483WEE COMMUNITY DEVELOPERS, INC.                           1602
B0201400760000000222762UY, JOHN CHIU OR JOHN JEFFERSON UY                       1605
B0101402480000000310363INOZA INDUSTRIES INC.                                    1610
B0101402480000000794338**********                                               1606
B0101402480000001562283*******                                                  1604
B0101400730111035655002FSL INT'L. MANPOWER & PROMOTION SER                      1601
B0101400730111482881001CASA BOCOBO HOTEL, INC.                                  1605
B0101407140213032060001PACIFIC CALIBRATION CENTER                               1602
B0101407140213038373001ALL STATE INT'L TRADING INC.                             1603
B0101407140213523585001VAN MOVERS, INC.                                         1601
B3101400160221030751001BONNIE'S DINING SERVICES                                 1603
B3101400160221033214001RD CASH PADALA, INC. AREA 02                             1603
B1001400190231017478002CHURCH IN CAGAYAN DE ORO, INCORPORATED                   1604
B0101406460272038032002WEE COMMUNITY DEVELOPERS, INC.                           1603
B2001400290315047753001SILLIMAN UNIVERSITY COMMUNITY COOP.                      1610
B0101402480331010038001**********                                               1602
B0101402480331010297002HOLLY FARMS INC.                                         1610
B0101402480331018366001******                                                   1603
B0101402480331026799001HYPIG GENETICS, INC.                                     1610
B0101402480331026799002**********                                               1610
B0101402480331034497001*******                                                  1601
B0101402480331035791003****                                                     1601
B0101402480331243281001**********                                               1610
B0101402480331296876001**********                                               1604
B0101402480331552786001*****                                                    1602
B0101402480331559373001INOZA AGRO DEVELOPMENT, CORP.                            1610
B0101402930381007647001EDELSTAHL DRAINAGE SYSTEMS ASIA INC.                     1603
B0101402930381008829002AXEIA DEVELOPMENT CORP.                                  1615
B0101402930381008843001BASIC HOUSING SOLUTIONS, INC.                            1605
B0101402930381021732001PENEL INTERNATIONAL, INC.                                1601
B1201400150421253585001ANGELES DIAZ                                             1602
B0101407430503024218001T.O.L. REALTY & DEVELOPMENT CORPORATION                  1603
B0101408530516032963001387 AUTO CENTER, INC.                                    1602
B0101403450521012032001**********                                               1602
B0101403450521037888001STA. ANA MANUFACTURING & DEV'T. INC                      1603
B0101407720602018717001WORDTEXT SYSTEMS, INC.                                   1603
B0101407720602026114001**********                                               1603
B0101404260611037884001EJFA PROFESSIONAL DEVELOPMENT CORP.                      1605
B1701400230693041165001LPG HOUSEHOLD & INDUSTRIAL GASES CORP.                   1605
B1901400160000000007478BAYAN ENTERPRISE DEVELOPERS, GROWERS AND                11605
B0101413310000000040046RYAN G. GABRIEL AND ANNA JAYNE S.                       11601
B0101413990000000206113DRCB SQUARE CONSTRUCTION AND DEVELOPMENT                11602
B0101413600000002122372INTERNATIONAL ACADEMY OF AESTHETIC                      11601
B0601400100081256915005KWONG, WILLIAM G. OR                                    11605
B0101402930381020092002ASIAN BAPTIST CLEARING HOUSE INC.                       11602
B0101402930381040001001TURQUOISE TRAVEL & EVENTS                               11602
B1901400160000000007478EVOLVERS, INC.                                          21600
B0101413310000000040046GIGANTONE                                               21600
B0101413990000000206113CORPORATION                                             21600
B0101413600000002122372SCIENCES INC.                                           21600
B0601400100081256915005ANTONIO, ADELA                                          21600
B0101402930381020092002OPERATIONAL ACCT                                        21600
B0101402930381040001001MANAGEMENT CORP.                                        21600
B0101411110276821100608**********                                               2005
B0101412760476821100608**********                                               2002
