A5001400170000000044982URBAN PAINTS & MORE ENTERPRISES                          0502
A0101412210000000238566OCLOS, ARCHIE LUIGI ALCAZAR                              0501
A0101410140000000499054SANSON, N DBU V.A.N.C. GENERAL                           0506
A0101405940000000505968*****                                                    0502
A0101405490000000530863CORTES, RONA ROMEROSO                                    0501
A0101400440000000821141ROSALIE L. DIVINA                                        0501
A0101402930000000859792PULMONES, NOE BANAWA                                     0501
A0101403450000000889483*********                                                0503
A0101405810000001021207CHEN, TINGYU                                             0510
A0101411660000001145799ANIANO D ALCANTARA                                       0503
A0101412210000001236293JOVEN, RODEL PELONIA                                     0502
A4101400550000001332392CRUZ, JINKEE DINO                                        0503
A0101404680000001617301GABION, MARISSA FORMANES                                 0501
A0101404680000001617396SOLIS, MARILOU CLAMOR                                    0501
A0101403450000001637976CAPILITAN, ELSA PEDRAZA                                  0501
A0101403320000001646722VERGARA, ANALYN ALABAN                                   0501
A0601400230000001687323**********                                               0501
A0601400520000001706890CASTRO, KASMICHELF MIRANDA                               0501
A4101400390000001732805FLORITA DE JESUS                                         0502
A0101412890000001765722************                                             0501
A0101400730000001822402MAHINAY, LUBY TRINIDAD                                   0502
A0101400730000001822613VALENZUELA, ARLEN GUEVARA                                0501
A0101413990000001947128MARS STONE SUPPLY                                        0501
A5501400120000002019023PINGOY, ALBERT YUSAY                                     0501
A0101400440000002035041MARIA GEVELA CARDINOZA                                   0501
A4101400550000002091061PIERRE KARL BUILDER                                      0501
A0101404840000002327777PASION, VICTORIA NERISSA KAGAOA                          0502
A0301400660000002348472NANIE DORADO OR RICHARD DORADO                           0501
A0101401250021535073002BILON, ERWIN BLANQUISCO                                  0501
A0101401700041028243001YACK'S AUTO SUPPLY & ELECTRICAL                          0504
A0101400600071466614001CO, BRUCE ONG OR CO, BYRON ONG                           0501
A0101405810072518663002BAIT-IT, VICTORINO ORO                                   0501
A0101410560110478374013CYNTHIA EVANGELISTA MENDOZA                              0501
A0101400730111195449002SAJOR, ADELIA C                                          0501
A0101400730111382944001FLORENTINO, MARI-ROSE CRISOLOGO                          0501
A0101400730111458403002ABREGANA, CLEOFE TAMPOS                                  0502
A0101401830141546547001REATAZA, NELIA MORABE                                    0503
A0101400440161525001091CRISTINA A. PADILLA                                      0502
A0101401090171337824001FE MARSHA V. NICOLAS                                     0502
A0301400660194558691002AGUILAR, BERNIE BUENAVISTA                               0502
A3101400160221386295002ROBERT J. BANATIN                                        0502
A1001400190231039064001SUSAN LO OR DENNIS LO                                    0506
A1001400190231478374162TORAYNO, DELILAH B.                                      0501
A0101406620273038576001VENTURE 11 FOODS EXCHANGE                                0501
A0101400570281519630001CARLOS, MARIA ARLENE DUMANDAN                            0501
A0501400200292694336002PACIS, WILMA RAMOS                                       0502
A0101405650322334988002HIRANO, SHIELA MARIE YUJUICO                             0501
A0101405650322368071001CALANGI, JOSE MA. SALUMBIDES                             0501
A0101402510341202209003********                                                 0502
A0101402510341202209004********                                                 0501
A0101402510341487199001NESTOR B. ESTABILLO                                      0501
A0101402930381352790001ROGELIO G. SIQUIAN JR.                                   0503
A0101408370382407313001DR. JOHN P. QUEROL                                       0504
A0101405490392558162001RONIE MARIE P. REYES                                     0501
A0101406330472027958001A. ANOLIN ENTERPRISES                                    0502
A0101406330472477539001MA. VICTORIA G. DIEZ                                     0501
A0101406330472542494001TEODORA A. RAZON                                         0501
A0501400170481252352001DR ESTRELLA B ESPINO                                     0501
A1901400160491402248001RONNEL M REYES                                           0501
A1401400110492029549002TRIPTORS DIAGNOSTIC CENTRE                               0502
A1601400170494076289001MARIA JOVI B. RAYCO                                      0501
A0101406880513563294001VILLANUEVA, MERLE ARUGAY                                 0501
A0101403450521239682001**********                                               0502
A0101403450521241170001**********                                               0502
A0101407720602387946001EDUARDO S. RONDAIN M.D.                                  0510
A0101404680651520766192ARNOLD M. CARBONELL                                      0503
A0101404680651525001015BERLINDA C. RUBIO                                        0501
A0101404680651525001029ELISA O. CALVIN                                          0501
A4101400260812344336001DR. GAVINO T. TAN JR.                                    0501
A4101400550815478374012LOPENA, FEDELINDO GELI                                   0501
A0101404840851213444001SALVATERA JR., MACARIO A.                                0502
A0101404840851520766085GEMMA DELDIO                                             0501
A0101406750852535545002RABUTIN, ROLANDO TORRES                                  0501
A0101409890000000049012BONDOC, ADORAIDA TAHIR OR                               10501
A0101413860000000145060VICENCIO, RENATO G. DBU                                 10502
A2601400270000000561573RUFINO M. BUTAC JR. OR                                  10502
A2801400230000000937548VITUG, QUIRINO DBU VI-JETT                              10502
A0101409920000000998558MEMBERS OF NATASHA (SHOECAT INC                         10501
A0101409920000000998683MEMBERS OF NATASHA (SHOECAT INC                         10501
A0101413990000001202388LEANO, RODOLFO M. OR                                    10501
A0101405940000001534292HERNANDEZ, JESUS JAUCIAN OR                             10503
A0101404680000001617261AMCJ METAL & ENGINEERING                                10502
A0101400570000001681825TEODUCIO SENA DBU                                       10502
A2801400230000001734732TAN, S DBU CITY REJUVENATING                            10502
A0101405490000002141100JEANETTE V. ABLANIDA DBU                                10502
A0101405490000002880551MARIE GRACE BUITRE DBU CEDAR                            10501
A0101401090171543197004MARY DIANE S. REYES OR                                  10502
A0101406620273400631001DINDO P. SANCHEZ OR                                     10502
A0101408370382319789001ROCHELA B. CUAYCONG OR                                  10501
A0101405490392613731001CORAZON OR RICARDO OR MICHAEL                           10502
A5501400120410797578008CHIU, CHRISTEL & VALENTIN &                             10502
A0101403610531304005001ANCHORIZ, NERRIZA OR                                    10503
A0101404680651047600001AMCJ METAL & ENGINEERING                                10502
A1301400500684039485001CRUZ, BIENVENIDO A. OR                                  10505
A0101406750852615338001CHAVEZ, ANGELO D. OR                                    10501
A0101409890000000049012BONDOC, ROBERTO                                         20500
A0101413860000000145060RENATO G VICENCIO INS AGY                               20500
A2601400270000000561573MELISSA B. BUTAC                                        20500
A2801400230000000937548ACCOUNTING OFFICE                                       20500
A0101409920000000998558ACPAL, GLORIA                                           20500
A0101409920000000998683AJETO, MERCY L.                                         20500
A0101413990000001202388LEANO, TERESITA E.                                      20500
A0101405940000001534292HERNANDEZ, ANTONIO                                      20500
A0101404680000001617261SERVICES                                                20500
A0101400570000001681825GAARA ENTERPRISE                                        20500
A2801400230000001734732SPA JT                                                  20500
A0101405490000002141100ACJ LOGISTICS                                           20500
A0101405490000002880551TREE CONS. SUPPLY JT                                    20500
A0101401090171543197004GREGORIO D. REYES III                                   20500
A0101406620273400631001EMILY H. SANCHEZ                                        20500
A0101408370382319789001CESAR A. CUAYCONG                                       20500
A0101405490392613731001CHRISTIAN PICHEL                                        20500
A5501400120410797578008JULIA & CHRISTIAN                                       20500
A0101403610531304005001ANCHORIZ, FRANCISCO                                     20500
A0101404680651047600001SERVICES                                                20500
A1301400500684039485001CRUZ, GUILLERMA C.                                      20500
A0101406750852615338001BARLAAN, CHRISTY                                        20500
B1601400170000000036035SIX IN ONE CORPORATION                                   1603
B0101412890000000125293SHOEMIXX INTERNATIONAL, INC.                             1605
B0101401670000000178512MANA ASIAN SENSATIONAL SPA CO.                           1601
B0301400660000000195011C-ONE TRADING CORPORATION                                1610
B0101412920000000276522ENERTHRUST, INCORPORATED                                 1605
B1301400470000002299778FERDINAND DYSICO OR FARAH DINAH DYSICO                   1605
B0101400150061505436001NICKEL ASIA CORPORATION                                  1603
B0101400600071328360002**********                                               1602
B0101406040112009142001ASIAN TERMINALS, INC.                                    1610
B0101401830141043121002ASIA DIRECT CONSOLIDATORS INC.                           1605
B0101401670271007482001VISEVERSA, INC.                                          1605
B0101401670271477779001CONTEXT INNOVATORS & RESOURCES INTE                      1601
B0101402510341026003001PHILSOFT TECHNOLOGIES GROUP, INC.                        1601
B0101402060351030919001UNITED TERMINALS SERVICES INC.                           1605
B0101409050352018120001ELECTRONIC COMMERCE PAYMENTS, INC.                       1601
B0101409050352031160001CAPITAL INDUSTRIES, INC.                                 1605
B0101402640361032109001UNITED CHRISTIAN MULTI-PURPOSE COOP                      1602
B0101402640361038833001KASAGANA-KA DEVELOPMENT CENTER, INC                      1605
B0101402640361624734001***********                                              1602
B0101402930381008829002AXEIA DEVELOPMENT CORP.                                  1615
B0101402930381008843001BASIC HOUSING SOLUTIONS, INC.                            1605
B0101402930381045839001EQUILAND PROPERTY MANAGEMENT (EPMC)                      1602
B0101402930381046095001DAVIES TECHNICAL SOLUTIONS, INC.                         1605
B0101409180397041823001THE INFINITY CONDOMINIUM CORPORATION                     1603
B5501400120410042322003TRUMPH MOTORCYCLE CORPORATION                            1601
B5501400120410043181008HOME CARE MARKETING                                      1602
B2401400180411046160001GSC AIR CARE SYSTEMS INC.                                1610
B2401400180411054556001NTRPRISING MOTOR CORPORATION                             1601
B2401400180411054558001MINDANAO INTEGRATED COMMERCIAL ENT. INC.                 1601
B0501400170481013100002DAGUPAN IMAGING CENTER                                   1603
B1401400110492046339002****                                                     1615
B0101406880513036413001VISAYA KNOWLEDGE PROCESS OUTSOURCING                     1602
B0101403450521011968001**********                                               1602
B0101403450521021842005WALL VISION CORPORATION                                  1605
B0101403610531009930001ALVAREZ BAKESHOP                                         1610
B0101403610531659842002DELAMO LENDING INVESTOR CORPORATION                      1603
B0101401830000000033616CARITAS SALVE CREDIT COOPERATIVE                        11602
B0101412500000000739760OMEGA ONE ON ONE FITNESS AND WELLNESS                   11602
B0101400600071046603001JOESAFAT ANDRES DBU JOESAFAT GENERAL                    11603
B0101409050352043844001COLLEGE OF ARTS & SCIENCES OF ASIA & THE                11603
B0301400820409091735055LIMA, WINDELL BRISTOL OR                                11601
B1301400500684682032001GONZALES JR., BIENVENIDO S. OR GONZALES,                11601
B0101401830000000033616PACO                                                    21600
B0101412500000000739760CENTER INC.                                             21600
B0101400600071046603001MERCHANDISE                                             21600
B0101409050352043844001PACIFIC - TAYTAY                                        21600
B0301400820409091735055LIMA, DIANA GO                                          21600
B1301400500684682032001JACQUILINE                                              21600
B3901400100316821100608**********                                               2005
