A0101403580000000016082SWEET BELLA DESSERTS                                     0505
A0301400530000000065832PERIAS, FE                                               0501
A0601400100000000141944GARCIA, CATHERINE ANTIPUESTO                             0501
A0601400100000000142065CALDERON, RAYMUND QUAN                                   0501
A0101404260000000156881YCOY, ARTHUR GEMPERLE                                    0501
A1301400500000000213163MARCELINO, NORVY GARCIA                                  0504
A5001400170000000214002REQUINA, ORWINO ATAY                                     0504
A5001400170000000214020ARNOCO, MARIETA DIAMANTE                                 0502
A0101403580000000383620JEROME ANDREW H. GARCIA                                  0502
A0101411790000000469596**********                                               0501
A0101404840000000475952GONZALES, ROWENA POLLICAR                                0501
A0101411080000000805812TAN, BERNADETTE PELONIA                                  0501
A0101414120000000875441BYT TRADING                                              0502
A0101414120000000875452RODGE JULIENNE ENTERPRISES                               0502
A0101400860000001005321**********                                               0502
A0101400860000001005434**********                                               0505
A0101414120000001142807CASA LUMINARIA PARTY VENUE                               0502
A0101413730000001253332*******************                                      0501
A2001400290000001301302AMOR, AVELEX SALINAS                                     0503
A0101400600000001335604PORRAS, MARIVIC DE GUZMAN                                0501
A0101406040000001391953********                                                 0501
A0101412050000001499761ALAWIYA, JOHAINAH PANANDIGAN                             0501
A0101403450000001769708**************                                           0501
A4101400550000002091010UNIFIL MANPOWER RESOURCES                                0502
A0301400530000002318430******                                                   0501
A0101405650000002325639CO, ELOISA GUEVARRA                                      0503
A0101407690000002348741JORBAN, SHIELA MAE DUCASI                                0501
A0101406750000002950810REYES, ROMEO ROXAS                                       0501
A0101400860011377986002**********                                               0505
A0101400860011422394002**********                                               0504
A0101400860011500268001**********                                               0502
A0101400860011512418001**********                                               0502
A0101400860011546416001**********                                               0501
A0101400860011554183001*********                                                0502
A0101400600071684249001******                                                   0503
A0101400440161409585001GREGORIA T. COLOBONG                                     0501
A0101407270162497036001HERMAN C. SALVADOR                                       0502
A0101401090171157026001ISIDORA A. LEE                                           0502
A0301400530193047866001MALBAS, MAHINAY & CO., CPA'S                             0502
A0301400530193774589001CREDO, ARIEL S.                                          0501
A0101407140213026790001**********                                               0502
A0101407140213190566001**********                                               0501
A0101407140213587892003**********                                               0502
A1001400190231295205002ANG, SIOK BIN                                            0501
A0101405650322173449001AGUIRRE, MYRNA B.                                        0504
A0101408370382205161001DR. WILLY G. LOPEZ                                       0505
A0101408370382436793001DR. ESTHER FREDELYN M. TOMAS                             0502
A0101402770391216279001WILFRIDO G. BERNARDO                                     0501
A0101402770391478374049EDITHA DELA TORRE                                        0501
A0101403030441239047001**********                                               0501
A0101406330472478374037LOLITA D. AMADOR                                         0502
A0101406330472478374041ROSEMARIE A. NAPIGKIT                                    0502
A0501400170481318580005ANA CRISTINA L. SINLAO                                   0510
A0501400170481365467003CALLANTA, JOHN SORIANO                                   0505
A0101403580511341306001JUAN N. OROLA JR.                                        0505
A0101403580511388681001BIBIANO N. GARCIA                                        0502
A0101403580511403658007ROBERTO G. MANABAT                                       0504
A0101403450521067888001**********                                               0501
A0101403450521237475001**********                                               0501
A0101403450521238227001**********                                               0501
A2201400250561037321001PTT NORTH RAMP GASOLINE STATION                          0501
A0101407720602340512006SHANGRI-LA U. JUAN I                                     0502
A0101404260611478374096ADALIA D. ABCEDE                                         0501
A0101404420631383651001*****                                                    0503
A0101407690652553826001JOSE MA. ANGELO P. VILLAROMAN                            0501
A0101407690652608206001RAQUEL M. GONZALES                                       0501
A0101407690652647252001VALDEZ, RAFAEL MEJIA                                     0501
A0101407690652656697001FERNANDEZ, EVA RIVERAL                                   0501
A0101407690652698616001VELARDE, ARLENE PAROCHA                                  0501
A0101406590662398949001REYES, MARIA VICTORIA R.                                 0502
A0101408240711391840001HISTORIA, ROBIN COSME                                    0501
A4101400260812476645001ROLANDO S. BASILIO                                       0501
A4101400260812616605001MARIA THERESA M. DE RAMOS                                0501
A0101404840851213312001MARQUEZ, THELMA P.                                       0502
A0101404840851478374175CHONA S. SOTES                                           0501
A0101404840851520766148JEANETTE A. QUIROS                                       0501
A0101413310000000039901EVANGELISTA, JANICE MARIE                               10501
A0301400530000000066124LICAYAN, PRINCE LLOYD M. OR                             10502
A0101414120000000398961EMERSON VALDEZ OR                                       10502
A2601400270000000561784CAUAYAN UNITED ENTERPRISE &                             10502
A2001400290000000724890RAYMOND, PRISTINE MARTINEZ OR                           10501
A0101414120000000875652PABLITO OR RONALD JOHN OR                               10503
A0101408240000001038613TAGAYUN, CRIS BAUTISTA OR                               10501
A0101408240000002381386MILLARES, MIRACLE TAZEL                                 10502
A0101402510000003373777MARZAN, RAMON MARTIAL FERDINAND                         10501
A0101400150061697165001SERVER, CATHERINE ANNE B. OR                            10502
A0101401090171199427001MARILU R. MADRUNIO OR                                   10501
A0101401090171543197002MARY DIANE S. REYES OR                                  10502
A0301400530193704187088MERCED, TERESITA S. OR                                  10501
A0301400530193760685002AGUILAR, AGUINALDO V. OR                                10501
A0201400760374718187001LMT BUSINESS ENTERPRISES &                              10502
A1201400150421685972001JUCUTAN, HEIDI BONDAD OR                                10503
A0501400170481259032001DR. OSCAR RAMIREZ OR                                    10503
A0101403580511150751001VIOLA V. CRUZ OR                                        10505
A0101403580511388107001ANTONIO G. PEDRO OR                                     10502
A2201400250561478374062JENNIFER M. MARTINEZ                                    10501
A0101407720602316120001LUCIA CASTRO-FORES OR                                   10501
A0101407690652478374194ARQUILLANO, GLORIA - DEALERS OF                         10501
A0101413440655055236001ARZANAN, D DBU D. ARZANAN                               10501
A0101410300663792106001MONDONEDO, MILAGROS P. OR MONDO                         10501
A0101408240711530967001RUSTE, CHRISTOPHER PATRICK OR                           10501
A0101413310000000039901MASILANG                                                20500
A0301400530000000066124LICAYAN, ZANAIDA M                                      20500
A0101414120000000398961EDWINA INOCENCIO                                        20500
A2601400270000000561784CONSTRUCTION BUILDERS                                   20500
A2001400290000000724890RAYMOND JR., JOH                                        20500
A0101414120000000875652PRINCESS JOY OR                                         20500
A0101408240000001038613TAGAYUN, HERMINIA                                       20500
A0101408240000002381386RODRIGUEZ                                               20500
A0101402510000003373777PUNSALAN                                                20500
A0101400150061697165001CHRISTINE MICHEL                                        20500
A0101401090171199427001RODERICK C. MADRUNIO                                    20500
A0101401090171543197002CRISTINA R. ADAL                                        20500
A0301400530193704187088MERCED, PETER V.                                        20500
A0301400530193760685002AGUILAR, DINA C.                                        20500
A0201400760374718187001MANAGEMENT                                              20500
A1201400150421685972001JUCUTAN, ROMMEL                                         20500
A0501400170481259032001DR. NENITA RAMIREZ                                      20500
A0101403580511150751001RUFIA DOROTHY C. VERA                                   20500
A0101403580511388107001FELISA C. PEDRO                                         20500
A2201400250561478374062MEMBERS OF NATAS                                        20500
A0101407720602316120001MIGUEL EDGARDO FORES                                    20500
A0101407690652478374194SHOECAT, INC                                            20500
A0101413440655055236001ENTERPRISE                                              20500
A0101410300663792106001NEDO, ABELARDO A.                                       20500
A0101408240711530967001RUSTE, JOANNE KATHLYN                                   20500
B2001400290000000020537LINK RI LOGISTICS INC.                                   1601
B2001400290000000020537LINK RI LOGISTICS INC.                                   1601
B0101401090000000210482BLUMEX PLUS CREDIT INVESTOR INC.                         1605
B0101402060000000653838COMERCO INDUSTRIES CORPORATION                           1601
B0101400570000000749548ALLIANCEJADE GARMENTS CORP.                              1603
B0101405650000000772721PREMIERE COMMUNITY PARTNERS, INC.                        1610
B0101408240000000832939TRUE NORTH GSA, INC.                                     1603
B0101400600000001335808GIHON FASHION APPAREL INC.                               1601
B0301400820000001554792VIC IMPERIAL APPLIANCE CORP.                             1601
B0301400530000002318430******                                                   1602
B0301400530000002318470DEBILDOS, PEARL MI LAINE LAO                             1601
B0301400530000002318470DEBILDOS, PEARL MI LAINE LAO                             1601
B0101400860011305536001**********                                               1601
B0101411080042278907001******                                                   1602
B0101400150061041993001FILPROGRESS CREDIT CO., INC.                             1604
B0301400530193035726167TAGUM PIONEER FOODS CORP. - 1                            1605
B0301400530193041338001CALIAN AGRI-VENTURES, INC.                               1605
B0101407140213034002001LABEL LINE ENTERPRISE                                    1603
B0101407140213034168001**********                                               1603
B0101401670271025034001M.P.S. FOOD CORP.                                        1603
B0101401670271028082002DDT KONSTRACT, INC.                                      1615
B1101400120313036429001PERPETUAL HELP MULTI-PURPOSE COOPERATIVE                 1602
B0101405650322414700002AGENCIA DE EMPENOS DE MYRNA B. AGUIRRE                   1602
B0201400760374033207001W.T. CONSTRUCTION, INC.                                  1606
B0101409180397041137001****                                                     1603
B0101403580511155836001ALCOSER REALTY CORPORATION                               1601
B0101404260611150848001**********                                               1605
B0101408240711038283002LAGUNA PARKS DEVELOPMENT CORP.                           1603
B2801400100712015318001SEAWAY FILIPINAS LOGISTICS INC.                          1602
B0101404840851013980002VIC IMPERIAL APPLIANCE CORP.                             1601
B0101404840851021512001STI COLLEGE ALABANG, INC.                                1603
B0301400530000000025276KONRAD FERNANDO - ROYAL CROWNE TRUCKING                 11603
B0301400530000001409741ROBLES, EDDIE DBU VICTORIA CONSTRUCTION                 11601
B1101400120313543970001VILLEGAS,VICENTE OR VILLEGAS,ROBERTA OR                 11602
B0301400530000000025276CATHERINE FERNAN                                        21600
B0301400530000001409741CELEDONIA ROBLES                                        21600
B1101400120313543970001VILLEGAS,MALCOLM                                        21600
