A4101400390000000034153CINCO, JOSEFINA                                          0501
A0701400260000000040980ALBEUS, JESSIE ROQUE                                     0501
A4101400390000000048651TIAMZON, ALTHEA MARIA SANTOS                             0501
A0101401250000000057065VILLAS, ROGELIA L.                                       0501
A0101407720000000112045CUISON LAW OFFICE                                        0501
A0101400730000000112870MARIANO, LUZVIMINDA PINEDA                               0501
A0101409920000000118567VILLAR, RENZ MARION SENTENTA                             0501
A0101406330000000162547FORTUNE PRINT                                            0502
A0101405650000000348903ESPERANZA F. BAYLON                                      0502
A0101405490000000444682QUICOY, DUNCAN MONTEALTO                                 0501
A0101406330000000451330UY, JONATHAN DOUGLAS COPENGCO                            0501
A0101406330000000451381TACUBAN, THERESA JOY MONTIERRO                           0501
A0101408530000000489783ABO JR., WILFRED JULIUS                                  0502
A0101406590000000568929INOLA, VICENTE ROSAL                                     0501
A0101406620000000577117SEIDEL, EDWARD PUNSALAN                                  0501
A0101413570000000635574KRISTINE MARJORIE U. DELA CRUZ                           0505
A0101406330000000683307**********                                               0501
A0101410690000000710672BADE, MINERVA V DBU E3V ENTERPR                          0502
A0101410690000000711055LUO, TONG                                                0501
A0101407720000000713193ZAMORA, ARTURO CANARE                                    0501
A0101403320000000736032CORREOS, ANN MAYVILLE V.                                 0501
A0101404680000000766974DULLESCO, ESTER DIAZ                                     0501
A0101410850000000778781EBUSEO, NELSON CAPUYAN                                   0501
A0101410850000000844702DIAZ, RHEA FARREN                                        0501
A0101408660000000855910***************                                          0501
A0101401830000000865101YABUT, NINA CHRIS GARCIA                                 0501
A0101404420000000866393JENEVEB E. SALAYSAY                                      0501
A0101404420000000866560DE LEON, AILEEN AGUSTIN                                  0501
A0901400220000000888031**********                                               0502
A0201400890000000973428*************                                            0501
A0601400360000000978754SERRANO, JON MICHAEL EDOQUE                              0503
A0601400360000000978765LAPID, MARISSA TADEO                                     0502
A0101412890000001056611NEPOMUCENO, LUZ GERONIMO                                 0501
A1001400190000001057636VIRTUDAZO, JENEFER S.                                    0501
A0601400230000001062479SY, MANUEL YAP                                           0501
A0701400260000001069712IMPERIAL, ERLINDA MALENIZA                               0501
A0101412500000001146805ARROJADO, JENNIFER DY                                    0501
A3101400450000001149382BALANIAL, YOLYNIA ROMERO                                 0501
A3101400160000001169222MACRINA M. AUREADA                                       0501
A0101406330000001235181SHERALYN B. ONTONG                                       0501
A0101410560000001291010SUMAGAYSAY, JENNIFER MERCHADO                            0501
A0101412920000001313911RUBI, FLORINDA LAGONSIN                                  0501
A0101411820000001356601MARITES P. CORDURA                                       0501
A1301400500000001412402LORNA E. HIPOLITO                                        0501
A0101407270000001596934VLMR-M TRADING                                           0501
A0101413570000001682544**********                                               0501
A4101400260000001783695CHAN, JOSEPHINE VILLAREN                                 0501
A4101400260000001783702PARK, JAE SOON                                           0501
A4101400260000001783713CARO, JOEBERT LOPEZ                                      0501
A0101401250021178951001OCAMPO, FLORENCIO SANDEJAS                               0502
A0101401700041386463001**********                                               0502
A0101401700041548437001PIZARRO, ROSARITO FULLOSO                                0502
A0101400150061337098169MA. GISELLE A. LICERALDE                                 0502
A0601400100081367112001REYES, AMIEL OR RACHELLE                                 0504
A0101400440161520766081EVA C. VILLANUEVA                                        0501
A0101407270162333006028BENEDICT M. CALINA                                       0501
A0101407270162333006030CAROLYN R. OFILANDA                                      0501
A3101400160221478374002MA. LOURDES T. ELIZON                                    0506
A3101400160221533266001ANGELITO S. LAZARO JR.                                   0502
A1001400190231477816001ZAYAS, MACRINA ZAMAYLA                                   0501
A1901400290261298552013LEONILA QUESADA GUEVARRA                                 0501
A1901400290261390520001JOEL PUNZALAN DIMAANO                                    0502
A0101408660274478374013HERRERA, CHRISANTINA DOMINGO                             0501
A6601400120314042058007CHEERS TRADING                                           0505
A6601400120314668441002MASLOC, SHERRY AMOR GALONO                               0501
A6601400120314696683088ORTIZ JR., JUAN OR MARGARITA                             0503
A0101408820333476354001SUCGANG, JOHNY PALOMA                                    0502
A0101408820333476527002PAELMA, ROSALIE BIGCAS                                   0502
A0101402060351040443001Q-TECH TESTING LABORATORY                                0502
A0101408370382550455001SIA, AMELITO ESGUERRA                                    0502
A0101405490392017577001AIDA M. GARCIA                                           0501
A2401400180411580807001BESANEZ, MARITES ARCENAL                                 0501
A0901400220432368117001**********                                               0502
A0101403320471265388001SOLIDON, MA. GRACIA APELADO                              0501
A0101403320471316949002VIRGINIA GALAMGAM                                        0501
A0101403320471478374053*************                                            0501
A0101406330472021239001DJ ANNE ENTERPRISES                                      0501
A0101406330472215905001MARCELO OR ERLINDA DELAS ARMAS                           0503
A0101407720602660482001CATALAN, MARIE JOYCE FERNANDO                            0501
A0101404680651040818001METROKARDS CO.                                           0501
A0101404680651298552046CONSUELO V. DE VERA                                      0502
A0101404680651478374180PRISCILA B. RUBIO                                        0501
A0101404680651520766029EVANGELINE TOLENTINO                                     0501
A0101404680651520766134EDITHA B. ROQUE                                          0502
A0101404680651563984001ELMER C. LENTIJA                                         0502
A1301400340683478374006******                                                   0501
A1301400340683566199002GO , LESTER CHUA                                         0502
A1301400500684047455001ALLTRADE MKTNG & MFG                                     0501
A1301400500684705921001ANTONIO, ALBERT SILVA                                    0501
A0101407560686292227001JULIA S. DUMIGPI                                         0501
A2801400100712251595001VALDEZ, CORAZON REYES                                    0502
A2801400230713243636001PARAISO, JOCELYN A.                                      0501
A4101400260812306604001LAILANI L. CENTENO                                       0501
A4101400420814478374156OLIVIA V. ALGARA                                         0501
A2601400270000000019510GILBERT T. FAGEL OR                                     10502
A1901400290000000135060ALELI G PERCE OR                                        10501
A2201400250000000141200NOEL M. ESPINOSA DBU N.M                                10501
A0101406330000000162616LAND OF THE PROMISE TRUCKING                            10505
A1301400500000000213010EMELITA M. OXIMA OR JOHN EMILE                          10502
A2601400270000000561682JANET A. GELACIO OR                                     10503
A0101406330000001235205ASIGNACION, ANDRAE MONIC                                10501
A1901400290000001926332ARMANDO G MORALES                                       10502
A0101401250021390827001VENTURA, MARIE ELIZABETH A. OR                          10501
A0101408370382209111001DR. JOSEFINA C. PONCIANO OR                             10503
A5501400120410638410001CLAUDIO, JOSE D. OR                                     10501
A1901400160491246285001LOURDES P CLEOFE OR                                     10510
A0101407720602343284001MARY ANGELINE RECTO OR                                  10501
A0101404680651169005001FERDINAND M. FERNANDO OR                                10502
A0101404680651419570001LILIBETH L. IGUICO OR                                   10501
A0101404840851334120001MARY ANN R. PANGAN OR                                   10501
A2601400270000000019510AILEEN A. FAGEL                                         20500
A1901400290000000135060FLORENCIO D PERCE                                       20500
A2201400250000000141200ESPINOSA CONSTRUCTION                                   20500
A0101406330000000162616SERVICES                                                20500
A1301400500000000213010M. OXIMA                                                20500
A2601400270000000561682BARTOLOME L. GELACIO                                    20500
A0101406330000001235205DOMINGO                                                 20500
A1901400290000001926332DBU AGM CONSTRUCTION                                    20500
A0101401250021390827001VENTURA, TERESITA A.                                    20500
A0101408370382209111001RANDOLF C. PONCIANO                                     20500
A5501400120410638410001CLAUDIO, EDEN G.                                        20500
A1901400160491246285001CONSOLACION E PEREZ                                     20500
A0101407720602343284001RODRIGO RECTO JR                                        20500
A0101404680651169005001ANA MARIE E. FERNANDO                                   20500
A0101404680651419570001ALLAN G. IGUICO                                         20500
A0101404840851334120001JOHN NOEL PANGAN                                        20500
B0101407140000000266335**********                                               1601
B0601400520000000398512PAGASA PHILIPPINES LENDING COMPANY, INC.                 1606
B0901400220000000888111**********                                               1601
B0101400150061037399001SECURITY BANK FOUNDATION, INC.                           1602
B0101401830141037764001MICHAELJONA TRUCKING SERVICES, CO.                       1602
B0101412920160053075001INNOVATECH ENTERPRISES                                   1601
B0101407270162036459001ULTRATECH PRINTING CORP.                                 1605
B1001400190231027039001CORPUS CHRISTI SCHOOL, INCORPORATED                      1610
B0101401670271028082002DDT KONSTRACT, INC.                                      1610
B0101408660274038268001AVO AIRVENT INCORPORATED                                 1601
B0201400760374478322001BK LEGACY RESOURCES AND DEVELOPMENT                      1601
B0101405490392037215001CORNERSTONECONSTRUCTION CORPORATION                      1603
B0101403320471040565001HUMAN SHELTER REALTY CORPORATION                         1601
B0101406330472020438001DAROMAR DEVELOPMENT CORP.                                1605
B0101406330472314132001*****                                                    1601
B0101406330472490418001KENSETSU METRO CORP.                                     1605
B0101403450521011657001UPTOWN INDUSTRIAL SALES, INC.                            1610
B0101404420631036995001FRABELLE FISHING CORPORATION                             1601
B0101409890649044639001BISKWIT CO.                                              1603
B0101407560686040883001AMARI INDUSTRIAL CORP.                                   1602
B0101408110515044192001ASIA SOCIETY FOR SOCIAL IMPROVEMENT AND                 11605
B2201400250561741708001ARNOLD PAYONGAYONG / EDUARDO DE JESUS                   11610
B0101408110515044192001SUSTAINABLE                                             21600
B2201400250561741708001DANTE PUANGCO                                           21600
