A3101400160000000006500ANNIEFER P MERCADO                                       0501
A0101407430000000044891NIAH D. NERY                                             0501
A0201401020000000056346RAPISTA, RODEL RESTOR                                    0501
A1101400120000000065085ALBURO, CHRISTOPHER PAUL M.                              0501
A2401400180000000073527LAFARDZ MARKETING                                        0501
A3101400870000000074811ARAPAN, VIVENCIO AGUPITAN                                0501
A3101400870000000074844ROA, ROSEMARIE JUNDOS                                    0501
A1701400230000000097836NUVAL, RICHARD DBU KRB CONSTRUC                          0502
A0101409920000000118603SAVELLANO, ELPIDIO BACLIG                                0501
A1001400480000000133279**********                                               0501
A0101400440000000337706ELENA A. DEL ROSARIO                                     0501
A0101406330000000451370VILLARANTE, MARIA LUZ PELAYO                             0502
A0101404420000000471896JANETTE S. TRISTAN                                       0501
A1601400170000000497536WASSER TRADING                                           0502
A0101407270000000511657MIKKA FRANCESCA HIPOL                                    0501
A1101400120000000652380CAYUBIT JR., SERAFIN ASERON                              0502
A0101412500000000739679FRANCISCO, JOSEPH BRYAN CRUZ                             0501
A1601400170000001069012ANTONIO E. ERLANO                                        0501
A0101401830000001140112SINGAYAN, MAVIS TAGUIBAO                                 0501
A0101403030000001302087**********                                               0501
A0301400790000001776207CELI, MARIA ESTELA MARFORI                               0501
A0101411950000001925782SANNY O. BALANSAG                                        0502
A0101410140000001939762MEMBERS OF NATASHA (SHOECAT INC                          0501
A0101410560000001944061NICASIO, GRACE DEGALA                                    0501
A1901400160000002291498ATIENZA, GLENDA CRISELDA LANDIC                          0501
A0601400230000002310172CHING, NIKKY VILLANUEVA                                  0502
A0101400150000002374541CRUZ, APHRODITE SAMONTE                                  0501
A0101401250021468980001GENELYN C. CARTON                                        0501
A0101401700041188743001CAROLINE T. ONG OR WILSON ONG                            0502
A0101401700041194155002**********                                               0502
A0101400150061039916170REYES, MARJORIE R.                                       0501
A0101400150061375275001CHAN, SHINY SY SUAN                                      0501
A0601400100081504737001KAW, GEMINI DEANG                                        0502
A0101401960121338867001************                                             0501
A0101400440161520766147EVANGELINE GARAY                                         0501
A0101400440161525001115EVA D. SAMILLANO                                         0502
A0101400440161525001115EVA D. SAMILLANO                                         0501
A0101401090171196038001REBECCA A. CASTRO, M.D.                                  0506
A0101401090171353988001CITADEL C. DE CASTRO                                     0502
A0301400660194618862001*****                                                    0501
A0101410720210479517001MEDINA, ADELE MERCEDES SOLON                             0501
A3101400450223576401001GALLEGO, DHARIA CAJAYON                                  0501
A1001400190231464454001EMATA, EDGAR CHIANG                                      0501
A1001400190231520766092TACBOBO, BEATRIZ WABE                                    0501
A1001400190231520766112ALIBIO, NELYBETH TACBOBO                                 0501
A1001400190231731854001APDIAN, BETCHEROS OTOC                                   0501
A1301400470252446871001DANILO G. SARMENTA                                       0503
A1301400470252478374027RICA D. SANTIAGO                                         0501
A0101400570281054795001JIROVEL ENTERPRISE                                       0502
A0101400570281355863001JOSEPH C. GUIANG                                         0505
A0501400200292500200002BALLESTA, IMELDA QUIMO                                   0501
A2601400270302567227001ROSITA TAN VALLE                                         0501
A3401400280318768832001BUENSALIDO, RAMWELL DIAZ                                 0502
A0101405650322553264001PADILLA, EVELYN PALABRICA                                0501
A0101408820333161805001MARIO C. TAMONDONG                                       0503
A0101402510341733749002ALCALA, GINA CALA-OR                                     0506
A0101402640361170246001GALLARDO, EDILBERTO CLETO                                0501
A0101402640361173689001ASISTIN, ROMEO CIELO                                     0501
A0201400760374260158002PINEDA, ALFREDO B.                                       0501
A0101408790383610468011CARLA R. GARCIA                                          0503
A0101408790383705873003GUILLERMO C. CHOA                                        0501
A0101402770391217498031CESAR S. RAMIREZ JR.                                     0501
A1201400150421303927002ABUBO, FLORECITA CORTEZ                                  0501
A0101403030441239072002**********                                               0502
A0101406330472478374042VIRGINIA B. RANADA                                       0501
A0101406330472573158001CHRIS WILSON Y. GO                                       0501
A1401400110492773514001ABETRIA, MARLENE SALIENDRA                               0501
A1401400110492788204001***************                                          0502
A0101407430503338970017PAUL SCHOENENBERGER                                      0501
A0101405940512368799002LASALA, LANI SALVADOR                                    0502
A0101403450521238571003**********                                               0501
A0101403450521240285002**********                                               0502
A0101407720602385918001BERNARDO, CARMINA                                        0503
A0101407720602694030001CUCUECO, RACHELLE CLAUDIO                                0501
A0101404260611478374082BEATRIZ BELMONTE                                         0501
A0101404260611491692001EDGARDO M BALANI                                         0502
A0101404260611504048001ZAMORA, FRANCES ROA                                      0501
A0101406590662478374006CATIMBANG, MARILOU E.                                    0501
A0101406590662590885001BARRIENTOS, MARITES ABRAHAM                              0501
A1301400210682247780001AILEEN A. MUNOZ                                          0502
A1301400210682405530003MARITA Y. ESPIRITU                                       0501
A1301400340683247884001LEONARDO, MA. CONCEPCION P.                              0503
A1301400340683361124002BUENAVENTURA, MYLINE SORIANO                             0502
A4101400260812478374031ANGELINA P. TAN                                          0501
A4101400550815478374008LORELYN C. PARCIA                                        0502
A0101404840851478374190MARIE JEAN A. MOLDEZ                                     0502
A0201401020000000470262MAMAC, JASPER MIRANDA DBU MAMAC                         10502
A0101405650000000525820CHAM, DBU AQUAFAIRY PURIFIED                            10502
A0101410300000000919615ROBLES, ENRICO S. OR ROBLES,                            10501
A1901400160000001718065BOSS HOBS SHOES AND                                     10501
A1701400230000001786894JUAN, ANTONIO GANIRON OR                                10501
A0101413310000001928936CABANSAG, ARMEL CABANATAN DBU                           10501
A1001400190000003031761AGBUYA, ILDEFONSO GOPEZ OR                              10501
A0101400150061746999001COLIANGCO, ELEANOR GO                                   10503
A0601400100081380435001MARQUEZ JR., RAYMUNDO PARAS OR                          10502
A0101401830141206536001PEDRO S. FLORES OR                                      10505
A3101400160221220455001JACINTA J. TORRES OR                                    10502
A0101401670271291657001ROMULO M. SANTOS, JR. OR                                10502
A0101402510341331222001ERLINDA RECOCO OR JOHN PAUL                             10501
A0101402060351539290001RAYMUNDO, RANILO OR                                     10501
A0101408790383186504001SEGOVIA, FERNANDO SIXTO V. OR                           10501
A2401400180411555962001SILVA, VIOLETA P. OR                                    10502
A0101406330472206499001LUZVIMINDA H. GERONIMO OR                               10502
A0501400170481359894002CARRANZA, EDITHA RETORIO OR                             10501
A0101410690600046558001RANDXELL'S DIGITAL PRINTING &                           10502
A0101407720602316120001LUCIA CASTRO-FORES OR                                   10501
A0101404420631485376001NAVAL, HEIDI GADIL OR                                   10502
A1301400340683388226002JOSELITO A. DULU OR                                     10502
A4101400260812246527001ISIDRO B. DELA CRUZ JR. OR                              10510
A0201401020000000470262-MENDOZA & ASSOCIATES                                   20500
A0101405650000000525820WATER STATION                                           20500
A0101410300000000919615ANNA THERESE S.                                         20500
A1901400160000001718065BAG REPAIR SHOP                                         20500
A1701400230000001786894JUAN, REMEDIOS TAROMA                                   20500
A0101413310000001928936AVIATOURS TRAVEL SERVICES                               20500
A1001400190000003031761AGBUYA, GUILE CATLI                                     20500
A0101400150061746999001OR RICO GONZALEZ                                        20500
A0601400100081380435001MARQUEZ, DEBBIE                                         20500
A0101401830141206536001IRMA G. FLORES                                          20500
A3101400160221220455001RENATO I. TORRES                                        20500
A0101401670271291657001KATHERINE LOURDES SANTOS                                20500
A0101402510341331222001ROQUE OR ROLLY BOY ROQUE                                20500
A0101402060351539290001RAYMUNDO, NILDA                                         20500
A0101408790383186504001SEGOVIA, MARIA FELICITAS                                20500
A2401400180411555962001SILVA, MARCELINO                                        20500
A0101406330472206499001LUZDIVINA H. GERONIMO                                   20500
A0501400170481359894002BARLAAN, BESSIE                                         20500
A0101410690600046558001PHOTOCOPY CENTER                                        20500
A0101407720602316120001MIGUEL EDGARDO FORES                                    20500
A0101404420631485376001NAVAL, ANTONIO J                                        20500
A1301400340683388226002ORTENCIA C. DULU                                        20500
A4101400260812246527001LILIAN H. DELA C                                        20500
B0101411080000000026235*************                                            1602
B1401400110000000167468PETER PAUL PHILIPPINE CORPORATION                        1604
B0101401670000000178501FILIPINAS CONSOLIDATED SALES, INC.                       1602
B0101413990000000206168ASPEN COLDSTORAGE INC.                                   1602
B0301400950000000566923DAVAO TOPCHING AUTO PARTS                                1603
B0101402770000001571615LANDISCO CORP.                                           1601
B0101400150000001708298UY, CONRAD LAWRENCE TAN DBU C.U. NE                      1620
B0101401090000003007530RICHARD G. ANG AND MANUEL CARLITO F ROUX                 1602
B0101400150061040150001OKEELANTA CORPORATION                                    1603
B0101400150061047235001ROYAL METRO POINTE DEVELOPMENT INC.                      1602
B0101407270162031133001LUCKY CENTRO VENTURES INC.                               1605
B0101407140213035786001DVJ TELECOMMUNICATION INC.                               1602
B0101406460272018517001ESTEEM CYBER VENTURES, INC.                              1602
B0101406460272020749001EASTGATE COMPUTER CORPORATION                            1601
B0101411820277048022001FORGEMS MARKETING COMPANY, INC.                          1605
B0101400570281007188002KIMURA CHAVES ENTERPRISE, INC.                           1602
B0101408820333416922001ALEX PINA COMMODITIES INC.                               1603
B0101402060351039870001CHYNNA SALES & DISTRIBUTION INC.                         1612
B0101402770391009532001RIDGEMONT HOMEOWNERS ASSN., INC.                         1602
B0101402770391031763001SIGMA PACKAGING CORPORATION                              1601
B0101403030441030325001**********                                               1601
B0101408530516037477002VXI GLOBAL HOLDINGS B.V.                                 1610
B0101404130601045788001BIOMEDICA HEALTH CARE INC                                1605
B0101404260611028921001KICEM TRADERS AND CO. INC.                               1610
B1301400760000000007110LFCI-KPP KASANIB SA PAGABOT NG                          11610
B2801400230000000008313STRICKLAND, LAILANI DBU L&L TROPICAL BAY                11601
B0201400760000001612846REYES, ERIK JASON BORJA AND REYES, LUIS                 11601
B0101406040112021958001KNIGHTS OF COLUMBUS FRATERNAL ASSOC. OF                 11602
B1201400150421496291001LIQUETE, DOLORES SAGUID OR LIQUETE,                     11602
B1301400760000000007110PANGARAP, INC.                                          21600
B2801400230000000008313RESTAURANT JT                                           21600
B0201400760000001612846EDWIN CALLEJA                                           21600
B0101406040112021958001THE PHILS. INC.                                         21600
B1201400150421496291001LEONARDO                                                21600
B0101402640361821100608**********                                               2010
B0101404130601821100608**********                                               2005
