F3101400320222448311001YABUT, ERNESTO GONZALES                                  2503CKO
F0101407300395370361001CHUA, MA. CRISTINA AGANON                                2505CKO
F0801400290000000011490THE SUITES AT CALLE NUEVA, INC.                          2601CKR
F0201400180181056753001CEBU IRON FOUNDRY CORPORATION                            2601CK1
F0101407430503006790003PAIRCARGO - ECCF                                         2605CKO
F0101408110515050645002**********                                               2605CK1
F0101404130601033659001EL GALLEON BEACH RESORT AND DIVE CAMP                   12603CKO
F0101404130601033659001INC.                                                    22600CKO
