A0101410850000000005790OCHOA, MELONA ALBIS                                      0501
A0101407270000000010048SHERYL S. CRUZ                                           0501
A0101408820000000027352********                                                 0502
A0101410690000000061856LAMUSAO, ARNOLD ADDUN                                    0502
A4101400420000000120703ROSANO, ROXANNE                                          0502
A0101413990000000206033MARITES R. CONANAN                                       0502
A0101413570000000206259LEE CHEF'S SECRET ENTERPRISE                             0502
A0101413570000000206620MCDM TRADING                                             0501
A0101400150000000253358TOLENTINO, PATRICIA BEATRIZ SOR                          0501
A0101406750000000358401TAN, LILY SY                                             0502
A4101400260000000377504DINO, MA. JOSEFINA CONCEPCION                            0501
A0101405650000000525717TAMBUNTING, JOY MYRA SALVADOR                            0505
A0101408370000000586050CATIBOG, JOLLY JASON SANTOS                              0501
A0101408530000000594332PETER NEIL P. SIAROT                                     0501
A1401400110000000628579****************                                         0503
A0101412050000000697218MERCADO, ROLANDO DELA CRUZ                               0502
A0101401250000000907131PERICO, AURORA ATIENZA                                   0501
A1301400210000000915840DIMAGIBA, GLORIA GUERRERO                                0501
A1001400350000000922092ARQUIZA, DAISY VICENTE                                   0501
A0101409050000000939226CRESCINI, JEFFREY CLARK LARIN                            0501
A4101400550000000981795SORIANO, ALMA BELTRAN                                    0502
A0101409920000000998605ECHEVARRIA, DBU JOHN CARL ENTER                          0501
A0101405810000001021350SY, ELSA YAP                                             0501
A0101405810000001021361HUANG, JIALING                                           0501
A0101407430000001028864CECILIA SY CAMPOSANO                                     0503
A0601400520000001120363OCAMPO, JOAN KRISTEL SERRANO                             0501
A0101404840000001312714RAFAEL COLOMA                                            0501
A0101400600000001335579********                                                 0501
A0101405940000001534361VILLEGAS, CRISELDA HORFILLA                              0501
A0301400820000001554821ACLAO, MARILOU G.                                        0501
A0101402770000001571320DAMIAN, MA. LUISA SOLIVEN                                0502
A0101408530000002260060GREGONIA, GREGG CARPIO                                   0505
A0101411370000002269321PALACIOS, JENNELLE PAREDES                               0502
A0601400230000002310138MIRANDA, RAYNES CALILUNG                                 0501
A0101400150000002374381CABIGTING, MARIA CARINA SENA                             0501
A0101400150061226702002**********                                               0501
A0101400150061376495001*************                                            0501
A0101405810072385132001***********                                              0503
A0601400100081460436003CRUZ, ALETH SANTOS                                       0501
A0101400730111478374198DE VERA, NORLINDA                                        0501
A0101400440161525001119NORA S. TALENTO                                          0501
A0101407270162242894001SIOSON, CHARLOTTE ESTUISTA                               0502
A0101407270162775985001EDNEL V. PASCUAL                                         0501
A0101401090171197930001ROWENA OR EMMANUEL BATOON                                0501
A0101407140213190969001**********                                               0501
A1001400190231478374086LORNA A. OMANDAM                                         0502
A1301400470252478374028NORMA S. BALLESTEROS                                     0506
A0101401670271192058002SEGOVIA, CARMEN V.                                       0503
A0101401670271356341002*****                                                    0505
A0101406620273544147001OROGO, THERESA ROSE MACANDOG                             0501
A0101411820277775683001**********                                               0502
A2601400270302093172001ADRIAN LEANDRO P. TIO                                    0502
A2601400270302596713001MARY GRACE L. LORENZO                                    0501
A1101400120313478374112VILLASOTES, JEAN L.                                      0501
A0101402060351211701004MA. DOLORES DANNUG                                       0502
A0101402770391211531001**********                                               0504
A0101402770391712538001RAMOS, MA. CRISTINA JOYCEE                               0501
A0101405490392170537002LORNA V. TUGADE                                          0501
A5501400120410085274008VILLARUEL, MARIA VIRGINIA H.                             0505
A5501400120410551770002AGUILAR, JEANNY CARDINAL                                 0503
A0101403030441289498002**********                                               0501
A0101403320471205800001FLORITA F. HO                                            0502
A1401400110492777638001DY, EDNA AYCARDO                                         0506
A0101408110515692008001MIGUEL MARKOS G. NALUS                                   0501
A0101407720602382406001SAMANIEGO, RENE MENDOZA                                  0502
A0101404420631590850001VALENZUELA, JERLENE D.   JT                              0502
A0101409920650478374022ECHEVARRIA, MELANIE ESCOTO                               0501
A0101410720653157590002LIM, DOLORES LEGASPI                                     0501
A0101410720653478687001ABANALO, ADORA AMANTILLO                                 0501
A0101410720653570185001ROMERO, PHILIPPE JERVIE CASABAR                          0503
A0101408240711378646001FELMA C. ONG                                             0502
A4101400260812650485002GACELAN, NENITA BELIALBA                                 0501
A4101400420814520766061ESTILLERO, SUSANA O.                                     0502
A4101400420814522913002GUELOS, PERSEUS PANES                                    0501
A0101404840851478374096MARIA JESUSA G. BATARIO                                  0501
A0601400230891712728001GUTIERREZ, LUDIVINA MERIDOL                              0501
A0101405490000001092717ROSLINA M. AMEROL DBU AMEMAR                            10502
A4101400550000001622582RAMA,MARIA EVA M. OR                                    10501
A0101400730000001822577REMO JR., JOSE HARI                                     10502
A0101408820333157271001PILARES, LOURDES LABORERO OR                            10501
A0101402770391366493001LYONS, JOSEPH CORBETT ROLLER                            10502
A0101405490392024649001T.G. MONTEJO WELL DRILLING &                            10502
A1201400150421294034001ESPIRITU, ANTONIO ARAOS OR                              10502
A0101403320471189593001LEVISTE, DIONISIA JAYECTIN OR                           10501
A0101407430503445064001MA TERESA C. MOHAMMAD OR                                10502
A2201400250561478374052MA. CECILIA S. SORIANO                                  10501
A2201400250561681705001ELEANITA RIVERA &/OR GLOTHELDA                          10504
A0601400230891054402001CODE 24 MECHANICAL                                      10501
A0101405490000001092717GENERAL MERCHAND                                        20500
A4101400550000001622582RAMA,VINCENT JEFFREY M.                                 20500
A0101400730000001822577OR REMO, EVELINA MUNOZ                                  20500
A0101408820333157271001PILARES, NILA                                           20500
A0101402770391366493001LYONS, JESSIE MARIE                                     20500
A0101405490392024649001FABRICATION                                             20500
A1201400150421294034001ESPIRITU, RACHEL                                        20500
A0101403320471189593001SANTIAGO T. LEVISTE                                     20500
A0101407430503445064001ALVIN F. COLLANTES                                      20500
A2201400250561478374052MEMBERS OF NATASHA                                      20500
A2201400250561681705001RIVERA &/OR CONSOLACION A                               20500
A0601400230891054402001CONTRACTOR INC.                                         20500
B5501400120000000046911MATUTUM PAINT TRADE, INC.                                1610
B0101406750000000090800SUPER PLUS CORPORATION                                   1601
B0101406620000000193942SOURCEFIT PHILIPPINES INC.                               1601
B0101413570000000206613TAMBIO DESIGN & BUILDERS CO.                             1604
B0101404000000000461038NEWINGTON BUILDERS, INC.                                 1602
B1101400120000000652926BUSINESS FRONTIER CORPORATION                            1603
B0201400890000000973508CLASSIC COLORS ENTERPRISES                               1603
B0101413020000001175360METRO NORTH MEDICAL CENTER AND HOSPITAL                  1601
B0101406880000001227423LUNETA HOTELS AND RESORTS, INC.                          1605
B0101412470000002338843WEBLEND INC.                                             1601
B0101408790000002659038HENGSHENG INTL. TECHNOLOGIES INC.                        1601
B0101408790000002659049INTELUCK GLOBAL SOLUTIONS CORP.                          1601
B0101400150061005123003ARK TRAVEL EXPRESS, INC.                                 1610
B0101400150061436247001SEAWOOD RESOURCES INC.                                   1605
B0101407270162019056001QUICKSERVE EQUIPMENT & SERVICES INC                      1605
B0101400310211005650002THE SALVATION ARMY BETHANY CHILDREN                      1601
B0101401670271047796001TYLERMARK CORPORATION                                    1601
B0101406620273022260001CROWN SYNERGY TRADING CORP.                              1605
B1101400120313036429001PERPETUAL HELP MULTI-PURPOSE COOPERATIVE                 1602
B0101408790383047956001NOVARAD ASIA PACIFIC CORPORATION                         1602
B0101403030441038216001LAZARO FURNITURE                                         1606
B1901400160491027966001SALESFORCE ONE MARKETING, INC.                           1605
B0101405940512005312002SHASTA CONCRETE SYSTEM                                   1605
B0101403450521011905001**********                                               1604
B0101404000551024348001APPLESEED MONTESSORI INCORPORATED                        1601
B0101404000551046316001PHILAB INDUSTRIES, INC.                                  1605
B1301400210682016750001JFL AGRI VENTURE SUPPLIES                                1604
B4101400550815038465004SOUTH EAST ASIAN MEDICAL CENTER INC                      1610
B0101410300000000026428INTERIOR ASIA CONSTRUCTION SUPPLIES &                   11601
B3101400870000001177128BALITE, G DBU BGT FOOD ESSENTIAL                        11602
B0101400730000001822599CRUZ, AMY BANIQUED OR CRUZ, WESTON WADE                 11602
B0101402510341022935002CHATEAU ROYALE SPORTS & COUNTRY                         11610
B0101406880513046802001ELECTROCOM MANAGEMENT & MANPOWER                        11602
B0101404000551047775001BISQUERA, A DBU TOPMINDS GLOBAL                         11601
B0101410300000000026428SERVICES CORPORA                                        21600
B3101400870000001177128CATERING SRVS                                           21600
B0101400730000001822599BANIQUED                                                21600
B0101402510341022935002CLUB                                                    21600
B0101406880513046802001SERVICES, INC.                                          21600
B0101404000551047775001MARKETING                                               21600
B0101400730111821100608**********                                               2005
