F4101400260000000002171CAPACIO, MILAGROS RAFOL                                  2502CKO
F0101408530516226243001PABLO P. PAULINO                                         2502CKO
F4101400260812244954003ESTOCADO, REYNANTE JARDINIANO                            2502CKO
F0101410850109047682001SL HARBOR BULK TERMINAL CORP.                            2605CKR
F3101400450223024477001CARE LINE ENTERPRISES                                    2601CKR
F0401400270242449588008SUKLIN PENA OR BONIFACIO PENA                            2605CKR
F0101404680651297826002LIM,YOLANDA OR CABIGON, MELISSA                         12605CKR
F1301400340683027056001STI EDUCATION SERVICES                                  12607CKR
F0101404680651297826002OR LANGCAY, SHIE                                        22600CKR
F1301400340683027056001GROUP, INC.                                             22600CKR
