F3201400190000001493023CERIA, KATHRENE TADENA                                   2501CKO
F0101401830141305180001FRANCISCA R. VASQUEZ OR                                 12501CKO
F1301400470252544037001ELEAZER SERRANO OR                                      12510CKO
F0101401830141305180001FREDERICK R. VASQUEZ                                    22500CKO
F1301400470252544037001MARIETTA SERRANO                                        22500CKO
F0101403290461029738001EZRA GENERAL SERVICES INC.                               2605CKR
F0101403290461044268001A.E. JIMENEZ & COMPANY                                   2602CKR
