A0101411820000000023992MELANIE M. MINORAS                                       0501
A0301400530000000025345OROSET PHARMA, INC.                                      0502
A0101408400000000029503BAUNTO, TONGCO RAKI IN                                   0501
A0101401090000000034562IMELDA E. MAROLLANO                                      0501
A0101408400000000077930MARILOU DE GUZMAN                                        0501
A0101402350000000145571GOSGOLAN, JOSELINA SARIO                                 0501
A1301400340000000293594LUNARIA, MARY GRACE MANZANO                              0501
A0101414120000000398910REYNOSO, ALMA VILLANUEVA                                 0501
A0101409890000000437405REYES, MICHAEL CONCEPCION                                0501
A0101402350000000443252********                                                 0501
A0101410140000000499407EDORIA, MLE VALVE ENTERPRISE                             0503
A0101406880000000511059ORBETA, MARIFE URI                                       0501
A0101414120000000648960AZUELA, CYNTHIA LARGADO                                  0502
A0101413440000000702441ANTONIO, GINA ASIS                                       0501
A0101401380000000792132********                                                 0502
A0101413020000000880531***************                                          0503
A3001400130000000931282BALANGA, MARIO FERNANDEZ                                 0501
A0301400660000001113795VILLADAREZ, RICHARD RANIS                                0501
A0101407140000001218262**********                                               0501
A1101400120000001547417REDULA, REMEDIOS                                         0501
A0101405070000001726245********                                                 0503
A4101400390000001732838IGNACIO, REBIELYN DE LEON                                0501
A0101412890000001765831SALVADOR JR, FELICISIMO DIAZ                             0502
A1701400230000001786763OANA, MELANIE REMIGIO                                    0501
A1701400230000001786912CURAMENG III, MANUEL LAGASCA                             0501
A0101408790000002031463CASTANEDA, CAMILLA ANN LASALA                            0501
A0101409890000002161411LLORICO RODERICK CAMACHO DBU JO                          0501
A0101410720000002283930LADIA, APRIL IRIS RUPIDO                                 0502
A0501400170000002354510BERMUDEZ, ELSIE MALAPIRA                                 0501
A0101400310000002659705TURLA JR., AMADO ENRIQUEZ DBU W                          0501
A0101409210000002803005PINGOL, RUTH ONG                                         0501
A4101400550000003267081BASTARECHE, ESTELA DETROS                                0503
A0101409050000003534989YAMSUAN, KAREN                                           0501
A0101412890000003587800REYES, CARMELITA JUAREZ                                  0501
A1701400230000003698120RUIZ, EDGAR MIGUEL                                       0501
A0101400150000003776734PONTI, VON DELO GLENN DEBECAIZ                           0501
A0101400150000003777180KIDDER, GARY PHILLIP                                     0501
A0101400860011035923001**********                                               0502
A0101401700041775530001**********                                               0502
A0601400100081393967002MANDE, JOEL OR JACQUELINE                                0501
A0101400730111347787002CHAVEZ, LYNN FLORENTINO                                  0501
A0101400440161039572010MYRNA A. CANELAS                                         0501
A0101400440161186930002LAURO M. AMANTE                                          0502
A0101400440161385731001ROSANNA L.JUSTADO                                        0501
A0101400440161478374076JAYNE D. BARBIN                                          0501
A0101400440161478374144CELERINA M. MARASIGAN                                    0501
A0101400440161520766098JUDITH D. BRISO                                          0501
A0101400440161525001119NORA S. TALENTO                                          0501
A0101401090171035426001BIG MARTHA ENTERPRISES                                   0510
A0301400660194558691002AGUILAR, BERNIE BUENAVISTA                               0501
A0101400310211478374011YEPES, BASILISA                                          0501
A0101400310211478374086GLORIA S. DOBRA                                          0501
A0101407140213040451001**********                                               0502
A0101407140213190969001**********                                               0501
A0101407140213190969001**********                                               0502
A0101407140213388620001**********                                               0502
A3001400130230711844001BLACANO JR., ADOLFO LACORTE                              0501
A0101401670271301223001DUJUNCO, ELIGIO UYCOFE                                   0503
A0101401670271483977001LUSPO, JERRY CARLOS                                      0504
A0101401670271508917001FAVILA, KARL BENEDICT REYES                              0501
A0101406460272381558001********                                                 0501
A0101400570281071603001LEGARDA, ROBERTO MORTERA                                 0502
A0101400570281399721002JOFFREY OR JORDAN UY                                     0501
A2601400270302567227001ROSITA TAN VALLE                                         0501
A6601400120314670645001AGONIAS, PAULINA CASINAS                                 0501
A0101402350321478374017RIZA G. SANTOS                                           0501
A0101402350321478374058DELA CRUZ, MERLITA GABON                                 0501
A0101405650322369942002POLICARPIO III, JOSE JAIME M.                            0501
A0101402480331223605001**********                                               0502
A0101402510341202843003**********                                               0501
A0101402510341478374008MARY GRACE B. ANDRES                                     0502
A0101402060351211701004MA. DOLORES DANNUG                                       0503
A0101402060351211701005DANNUG, MARIA DOLORES CARLOS                             0503
A0101402060351743186001GALPA, NONITO BIAGO                                      0502
A0101402640361478374061CRISTINA T. JOROLAN                                      0501
A0201400920375478374008OLELA, DONATILLA OMELGO                                  0501
A0101402770391217498029DE GUZMAN, LALAINE                                       0502
A0901400220432095446001CARLA CHUA DONAYRE                                       0501
A0101403030441239072002**********                                               0501
A0101403030441660281001**********                                               0504
A0501400170481255549001*****                                                    0503
A0101403580511150595001MAXIMO P. MARIANO                                        0501
A0101403580511151887001MYRGON MARKETING                                         0501
A0101403580511420184003MARIA CAROLINA S. MACASAET                               0512
A0101406880513573272001FUENTEBELLA, ANJEANETTE TURALBA                          0501
A0101403610531232548001**********                                               0505
A2201400250561339917001FELICIDAD MIRANDA SANTOS                                 0502
A0101404260611478374085ROSALINA SUMILE                                          0501
A0101410720653478374051MARIO MONTOJO                                            0504
A0101410720653478374054CRISTINA CALDERON                                        0501
A0101411950680478374004CARLETA, REBECCA CARPIO                                  0501
A1301400210682782329001IMELDA R LANUZA                                          0501
A0101407560686310036002TERESITA J. MONTANO                                      0501
A1701400230693038725001DISHNET ELECTRONICS SUPPLY                               0502
A1701400230693497012001BANGILAN, LOURDES JIMENEZ                                0502
A4101400260812482906002BARZAGA, MILAGROS TRINIDAD                               0501
A4101400390813079906001ESPIRITU, GEMILLON PILONES                               0502
A3401400280000000156643MELOURD L. BONILLA AND MA.                              10502
A0101405490000000355731MILA Y. MERIALES OR REYNALDO A.                         10501
A2601400270000000561966NELIA A. CORTEZ OR MARVIN T.                            10501
A0101400730000000645692ELEGIDO, FELIX ERIA OR                                  10501
A2601400270000001009050BATTAD, AURELIO DBU AUB CONSULT                         10501
A0301400820000001185622DOMINGO, MARIA ROSELA P. OR                             10503
A0101410560000001944043GOODNESS & MERCY MOVERS                                 10503
A0101401090171196097001HERNANDO OR LEONCIA OLONAN OR                           10502
A0101400310211161649001DE LARA, ROLAND JOEY OR                                 10505
A0101400310211163379002MARCOS, ZENAIDA CABEL OR                                10502
A0101402350321035519001ANTONIO'S GARMENTS                                      10502
A0101402510341232460002HANS T. LU OR JUNE PAOLO Q.                             10501
A0101402060351009359003JIANDANI, SURESH G. OR                                  10501
A1901400160491422212001OLIVER B BORILLO OR                                     10502
A0101408530516162636001ODIVER, DENNIS S. OR ODIVER,                            10501
A0101407720602332279002CAYCO, ANTONIO V. OR                                    10501
A0101410720653471448001PAJARILLAGA, JANE ANN P.                                10502
A0101404840851334120001MARY ANN R. PANGAN OR                                   10501
A0101405070861037846001GOODNESS & MERCY MOVERS                                 10503
A3401400280000000156643RODERICA B. GARGANERA                                   20500
A0101405490000000355731MERIALES                                                20500
A2601400270000000561966CORTEZ                                                  20500
A0101400730000000645692LEONA D. ELEGIDO                                        20500
A2601400270000001009050MGT&ENGINEERING SERVICES                                20500
A0301400820000001185622DOMINGO, RITA P.                                        20500
A0101410560000001944043SERVICES                                                20500
A0101401090171196097001BIANCA NIKKOLA OLONAN                                   20500
A0101400310211161649001DE LARA, REBECCA                                        20500
A0101400310211163379002MARCOS, EDUARDO                                         20500
A0101402350321035519001SUB-CONTRACTING                                         20500
A0101402510341232460002CAPISPISAN                                              20500
A0101402060351009359003JIANDANI KAVITA                                         20500
A1901400160491422212001MARIBEL C BORILLO                                       20500
A0101408530516162636001DIVINAGRACIA S.                                         20500
A0101407720602332279002CAYCO, MARGARITA                                        20500
A0101410720653471448001OR PAJARILLAGA,                                         20500
A0101404840851334120001JOHN NOEL PANGAN                                        20500
A0101405070861037846001SERVICES                                                20500
B0101411110000000009054LIGHTSPEED BUSINESS SOLUTIONS INC.                       1605
B0101409890000000049169WQ CONSTRUCTION &TRADING CORP.                           1602
B0101400150000000052720SOUTHKEY DEVELOPMENT CORPORATION                         1602
B0101401380000000106721CFS BAREBOAT CORP.                                       1610
B0101409050000000258560DIVINE VALUES CORPORATION                                1602
B0101402770000000360876BETTER CHOICE CATERING SERVICES                          1601
B0101414120000000399140AL3 HOLDINGS CORPORATION                                 1602
B0101400150000000633221E.M. ZALAMEA ACTUARIAL SERVICES, IN                      1601
B0101406460000000712758HOMEMATCH CORPORATION                                    1603
B0101406620000000962410THE ASSOCIATION OF MINDORENOS (TAM)                      1601
B0101402480000001100052PRA MANPOWER AGENCY                                      1603
B0101408530000001275292TRIUMPH INTERNATIONAL (PHILIPPINES), INC                 1601
B0101404840000001312485VABGREC SECURITY SERVICES, INC.                          1601
B0101402480000001562090QUALIGEN PHARMACY CORP.                                  1603
B0101405940000001800322CREATIVE HOTHOUSE MANILA INC.                            1603
B0101405490000001935719KIDSVILLE CREATIVE SYSTEMS, INC.                         1601
B0101400860011236251001**********                                               1601
B0601400100081039107001REPLICAS MARITIME & AVIATION MODELS INC.                 1604
B0601400360083036712001NEWONE INCORPORATED                                      1602
B0601400360083037368003CLARK INVESTORS AND LOCATORS ASSOCIATION                 1602
B0101406040112033244001PATIO VICTORIA CORPORATION                               1605
B0101401830141490206001FUTUREBUILDER PUBLICATIONS INC.                          1605
B0301400530193041601001GRANITE CREDIT CORPORATION                               1602
B0301400660194046300088SAGREX CORPORATION                                       1603
B0301400660194056261001POLYAIR FOAM INTERNATIONAL CORP.                         1602
B0301400660194056262001CBI DAVAO INC.                                           1601
B0101400310211005645002PHARMATECHNICA LABORATORY INC,                           1603
B0101400310211032374001GLOSSMASTERS PHILIPPINES, INC.                           1603
B0101400310211750497001MONAREL LOANS INC.                                       1601
B0101406620273037461002FIRENZE CORPORATION                                      1601
B0101402350321046511001SIDAMO DISTRIBUTION INC.                                 1605
B0101405650322006460001SOUTHGATE SERVICE CENTER, INC.                           1603
B0101405650322033563001C&P PRIME PROPERTIES INTERNATIONAL, INC.                 1603
B0101405650322036086001VISTALAND INTERNATIONAL MARKETING, INC.                  1608
B0101402480331033229034TGP DRUGSTORE                                            1603
B0101402480331541505001PHARMAGENERICS, INC.                                     1603
B0101402480331678665001ONEPARAGON CORPORATION                                   1601
B0101402480331748556008QUALIGEN PHARMACY CORP.                                  1603
B0101402640361632094001**********                                               1604
B0101405490392332339001**********                                               1603
B0101408400394025635001KETMAR FASTFOOD CORPORATION                              1605
B0101409210398042656001FIELD OUTSOURCE ASIA, INC.                               1606
B0101409210398047357001KINDRIA SOFTWARE PRODUCTS INC.                           1601
B0101403580511005406001SHINRYO (PHILIPPINES) COMPANY, INC.                      1605
B0101403580511155828001JOUBERT CONSTRUCTION INC.                                1610
B0101403450521011975001**********                                               1602
B0101403610531013980001VIC IMPERIAL APPLIANCE CORP.                             1603
B0101404130601070394001DIGITALMOZ SOURCING INC.                                 1602
B0101407720602006018001HEALTH LAB AND MEDICAL SERVICES, INC.                    1605
B0101407720602531639007INTELLIGENT BEAUTY SKIN SOLUTIONS INC.                   1602
B0101404420631368212001*******                                                  1610
B0101410720653031938001YIGGM CORPORATION                                        1606
B1301400500684690065001TILA, ALMA VIRGINIZA                                     1602
B0101408240711028488001INTAS DESTINATION MANAGEMENT INC.                        1605
B0101408240711032925016DLSZ (DE LA SALLE SANTIAGO ZOBEL SC                      1601
B0101411370000000017945ST.THERESE OF THE CHILD JESUS INSTITUTE                 11601
B0101401830000000060022CARITAS SALVE CREDIT COOPERATIVE                        11602
B0101410300000000191586MEJIA, MELODY ANNE DBU MEE NOODLE BAR &                 11601
B0101411370000000017945OF ARTS&SCIENCES                                        21600
B0101401830000000060022(CUBAO)                                                 21600
B0101410300000000191586RESTAURANT                                              21600
B0101407140213821100608**********                                               2005
