F01014026403610241660041021 DEVELOPMENT CORP.                                   2510CKO
F0101408240711430048001ISABELO I. TIBAYAN JR. OR                               12505CKO
F0101408240711430048001CORAZON A. TIBAYAN                                      22500CKO
F1001400350000000017063MSU-IIT NMPC CARMEN-CDO BR.                              2601CKR
F0201400180181038397001YANDY TOYS ALLEY                                         2601CKR
F0101400570281042880001CATARMAN OIL MILLS, INC.                                 2601CKR
F0101408400394031095003LIVINGWATER SYSTEM, INC.                                 2610CKO
F0601400520000001349606BANGSIL, ROSARIO SAGUN                                  12601CKR
F0601400520000001349606OR SAGUN, MALVAR                                        22600CKR
