A0101406460000000021785YAP, KENNETH CHRISTIAN TENG                              0501
A0101411950000000036273DARK HORSE MEDIA PRODUCTION                              0502
A4101400420000000120696CARMELA G. ROMA                                          0501
A1001400480000000133360ALL TRIO TRADING                                         0503
A0101404000000000136536NAVASERO, SYLVIA ARNALDO                                 0501
A0201400760000000223167DICDICAN, ETHEL HISOLA                                   0502
A0101404130000000321371ALIENTO, JASPER PAJARES                                  0501
A4101400390000000379373CHUA, MARIA MILAGROS LIM                                 0501
A0101408110000000380129ESCONDO, LEVI LEGASPI                                    0501
A1601400170000000421229*********                                                0502
A0101405490000000444488JOHN MATHEW S. TAN                                       0501
A0101410140000000482702LABASTIDA, ENGRACIO DOTOLLO                              0501
A0501400170000000495261YAMBAO, GREGORIO QUIAMBAO                                0501
A1301400210000000540834******                                                   0501
A0101410300000000592132DE CASTRO, PAUL JAMES R.                                 0503
A0101413990000000631872MONREAL, ESTELITA GUINTO                                 0501
A4101400420000000710370LOPEZ, AVELINA BAJAO                                     0501
A4101400420000000710381HERRERA, JOSEPHINE GUMTANG                               0501
A0101410690000000710730DABLIO, PANFILA BARANDA                                  0501
A0101406880000000745040SALEGUMBA, JOCELYN ANDRADE                               0501
A0101400150000000806906DE LEON, CAROLINE TUAZON                                 0501
A0101400150000000807603MARANAN, JOSE EMMANUEL ANDA                              0501
A0101400730000000833396CARBONELL, LEVINA IBALE                                  0505
A0101400730000000834617CESAR, HENY DELOS REYES                                  0501
A0101404680000000862191AGUILAR, ALDO MARCO ARCENAS                              0501
A0101413020000000880331LIM-ESTOROSOS, VICKYLYN CHUA                             0501
A0101410720000000968032MAURE, ROSITA LUNA                                       0501
A4101400550000000981813LOLA, DEANNA CERNA                                       0501
A4101400550000000981820BELLOSILLO, JOSE ANGELO SANCHEZ                          0501
A0201400920000000991700LUZADA, JELSON ROMAS                                     0501
A0301400820000001006671FERNANDEZ JR., IRENEO T.                                 0501
A0101400730000001016500CRISTINA A. DIAZ                                         0501
A0501400170000001072742VILLAMIL, PETER TAN                                      0501
A0101413310000001073701PENAFLORIDA, ALEX TASIN                                  0501
A0101413310000001073712LUGA, MICHAEL FAELNAR                                    0501
A0101405490000001092579LOURENCE E. ESCANLAR                                     0501
A5501400120000001121731SUSTIGUER, ROSE CARMEN ACOJIDO                           0501
A0101407140000001218240IDANAN, PENAFLOR EUGENIO                                 0501
A0301400790000001244611TAGANAS, VENERANDO MALINGIN                              0501
A0101407560000001276119JUMIG, BASILIO ARMAMENTO                                 0501
A0101413150000001288240******                                                   0501
A0101405650000001377317HUH, SARAH ARLENE AMORES                                 0501
A0101400440000001439783MUNOZ, LOLITA AGBUYA                                     0501
A0101402350000001474197ATIENZA, ARLENE BETIONG                                  0501
A0101406750000001491783LUNA, CHERRY ANNE YERRO                                  0501
A0101402640000001536465ROSAL JR., RUFINO DICIEMBRE                              0502
A0101408400000001614682BULAN, PONCIANA CAJES                                    0501
A0101408400000001614693ANG, ELLEN M DBU ELICARL SALON                           0501
A0101411370022774052001MARISSA M. RAMIREZ                                       0503
A0101400150061191530001AMELIA DULCE D. SUPETRAN                                 0502
A0101400150061203513001SEVERO L. SANTILLANA JR.                                 0501
A0101405810072544534001PORNELOS, RAUL REYES                                     0502
A0601400360083037597001VHS GLASS AND ALUMINUM SUPPLY                            0505
A0101400730111478374101MEILING L. CO                                            0502
A0101400730111585447001VELASQUEZ, WENCY DALISAY                                 0501
A0101401960121238672001**********                                               0502
A0101401960121238686001**********                                               0501
A0101401960121311963002**********                                               0502
A0101401960121358563001SIOCO, MARY JANE SORIANO                                 0502
A0101401830141425104001JENNIFER T. ABUSMAN                                      0501
A0101401830141433370001ARNALDO P. SERRANO                                       0502
A0101401830141444502001MYRNA L. DACANAY                                         0501
A0101400440161186947001ROBERTO L. SENA                                          0502
A0101400440161525001105VIRGIE B. CRUZ                                           0501
A0101401090171202961001TERESITA N. SANTOS                                       0502
A0101401090171788085001LOPEZ, ADRIAN CESAR SANCHEZ                              0501
A0101407140213388620001**********                                               0501
A3101400160221220998001DANILO C. CUEVAS                                         0502
A1001400350233478374001JUNIO, ROGELIA A.                                        0501
A1901400290261567865001ALEX IAN SISON DE LA CRUZ                                0501
A0101408660274547172001BELMES, MARIBEL DEPAUDHON                                0502
A0101400570281491697001LAXAMANA, EFREN CORTEZ                                   0505
A2001400290315041547004CARTRONIX LOGISTIC & TRANSPORT                           0501
A2001400290315081010001TAN, JAMES ERWIN VILLABERT                               0501
A0101402350321683053001NOVA N. NICOLAS                                          0501
A0101408820333649443001LOPEZ, JERREL GONZALES                                   0501
A0101402640361168362001DE GUIA, ROSALINDA R.                                    0501
A0101402640361303882001GUARIN, MANNY NAJERA                                     0506
A0101402640361303882002**********                                               0506
A0101402640361478374071RANIEL B. CALIPES                                        0501
A0101408370382387809001DR. LEAH ROSARIO Y. DYCOCO                               0501
A0101408370382492557001DR. PETER SIMON R. JARIN                                 0502
A0101405490392362560001SALOMIA A. ENRIQUEZ                                      0501
A0501400170481409728002ANG, JUSSLYNN MAISIE ONG                                 0501
A1401400110492391345002R'S WINE CENTER                                          0503
A0101405940512035308001UP-TECH BUILDERS                                         0504
A0101408530516571877192JONATHAN F. SARABIA                                      0501
A0101404130601787432001DESTURA, REYNALDO BERNALDEZ                              0503
A0101407720602358836001FAMADOR, JAY ARNOLD FLORES                               0501
A0101407720602397742001FERNANDEZ, RICARDO OCAMPO                                0506
A0101407720602399810001DE LA CRUZ-ODI, MERLE FONTILLAS                          0502
A0101404420631570581001GEPILANO JR., MELITON BAJOS                              0501
A0101404680651520766168MIRASOL T. FIRMALINO                                     0501
A0101410720653478374002ZENAIDA O. CARLOS                                        0501
A0101410720653478374051MARIO MONTOJO                                            0501
A1301400340683409838001MARCELINO, RODERICK LAYA                                 0501
A0101407560686166546002RAYMUND B. ESGUERRA                                      0503
A0101407560686172632001JAMES B. VERGARA                                         0501
A4101400390813780288001GAMAT JR., RODOLFO KAIKLIAN                              0501
A4101400420814520766128HERNANDEZ, LEONARDO II A.                                0501
A4101400420814520766130CALAUNAN, ANA LIZA O.                                    0501
A4101400550815711802001PAHAYAHAY, MA. ROSANNA CISNEROS                          0501
A0101406750852025893001R.U. CAPATI TRADING                                      0502
A0101406750852182713001CATALYST MEDICAL SUPPLY                                  0503
A0101404130000000001361VILORIA, REMEDIOS ONDRA OR                              10502
A0101408530000000136310MIRABUENO, PIERRE PAULINE                               10501
A3801400170000000154185EVANGELISTA, BABY DAISY DBU                             10501
A0101408240000000347299BENDITA, MICHELLE DELOS SANTOS                          10502
A0101405490000000444477MARIA TERESINA G. MESINA OR                             10502
A0101400570000000470546DR. JEANETTE TAACA-BITO OR                              10502
A1601400170000000497434FRANCISCO J. MIRABEL OR                                 10501
A0101405940000000505980MARTINEZ, M DBU MARIA THERESE                           10503
A0301400950000000566650GO, EDWARD ANTHONY OR                                   10502
A0101413570000000635596MEMBERS OF NATASHA                                      10501
A4101400420000000710143GERONDA, RIZALDY DBU HRDG                               10501
A4101400390000000975128MADLANGBAYAN, GELLIE PRESA AND                          10501
A0101409920000000998661MEMBERS OF NATASHA (SHOECAT INC                         10501
A0101411660000001145733ALBERTO, MARY JEAN B. OR                                10501
A0301400790000001244575ARMIAN, RAUL DBU HOMELAND                               10501
A0101402350000001474175CONDEZ, MARY JANE E. OR                                 10501
A0101401250021290630001WINNIE D. VALERIO AND                                   10503
A0101401090171406527001DARWIN HENRY P. PESO OR                                 10501
A1901400290261432900001JULIUS PIO AFRICA RANA OR                               10501
A1901400290261585775001LITA CUETO MENDOZA OR DORIS                             10502
A0101402350321179570001NEAL ORTEZA OR                                          10501
A0101402350321557382002PARBA, NANCY MUNEZ OR                                   10501
A2401400180411478374017PERPECTUO BULAQUINA, JR.  OR                            10501
A2401400180411478374061JUNRES AGAD OR                                          10501
A0501400170481046585002ANG, JUSSLYNN DBU                                       10502
A2201400250561478374062JENNIFER M. MARTINEZ                                    10501
A0101404130601081357001GO, MERYL CANDICE LIM OR                                10501
A0101407720602381371001SHIELA H. PAGDANGANAN OR                                10502
A0101410720653580485001VALERA, STEPHANIE BEATRIZ OLIVA                         10502
A1301400340683367953001FELLO, ROSEMARIE RODIL OR                               10502
A4101400420814304997002ABAD, EVELINA OR ALVIN VINCENT                          10502
A0101404130000000001361VILORIA, EDUARDO C.                                     20500
A0101408530000000136310RIVERA                                                  20500
A3801400170000000154185R.D.E. BEAUTY CENTER                                    20500
A0101408240000000347299AND AQUINO, MARILEN                                     20500
A0101405490000000444477ALFONSO E. MESINA                                       20500
A0101400570000000470546TEODORO BITO                                            20500
A1601400170000000497434JUDITH J. MIRABEL                                       20500
A0101405940000000505980FLOWER SHOP                                             20500
A0301400950000000566650GO, MARY CHRISTINE                                      20500
A0101413570000000635596DOROTEA R. JACINTO                                      20500
A4101400420000000710143TIRE RECAPPING SERVICES                                 20500
A4101400390000000975128CATAMISAN, RESTIE CATUMBE                               20500
A0101409920000000998661CALORA, DOMINGA                                         20500
A0101411660000001145733ALBERTO, ROHJEAN B.                                     20500
A0301400790000001244575BIKE SHOP                                               20500
A0101402350000001474175CONDEZ, CELINA E.                                       20500
A0101401250021290630001RONALD SUPERALES                                        20500
A0101401090171406527001MARIA CECILIA S. PESO                                   20500
A1901400290261432900001CHARMAINE DE GUZMAN RANA                                20500
A1901400290261585775001MARIE MENDOZA MEDINA                                    20500
A0101402350321179570001IMELDA OLIVAREZ                                         20500
A0101402350321557382002PARBA, JOEL QUILISADIO                                  20500
A2401400180411478374017EMMA C. BULAQUINA                                       20500
A2401400180411478374061NORMELITA BLANCO                                        20500
A0501400170481046585002AVS DISTRIBUTION                                        20500
A2201400250561478374062MEMBERS OF NATASHA                                      20500
A0101404130601081357001GO, JEANNE PAULINE                                      20500
A0101407720602381371001ERNEST PAGDANGANAN                                      20500
A0101410720653580485001OR VALERA, MA. FLABETH                                  20500
A1301400340683367953001FELLO, BISMARK C                                        20500
A4101400420814304997002OR CHRISTINE MAR                                        20500
B0201401020000000005249BOSTON HARDWARE INC.                                     1602
B0101407140000000015118**********                                               1602
B22014002500000000169863 KIS FOOD STORE CORPORATION                             1601
B22014002500000000170013 KIS FOOD STORE CORPORATION                             1602
B0601400360000000025750NT. LIVE INCORPORATED                                    1602
B0301400950000000566898**********                                               1601
B0101408820000000840595******                                                   1602
B0101403450000000889574***********                                              1603
B0101401700041188960001PABLO KO OR IRENE KO                                     1620
B0101401700041191111001**********                                               1603
B0601400100081045128001BRETTO'S INTERNATIONAL FOOD CORP.                        1610
B0101406040112017780001ASSOCIATED WORKERS UNION                                 1610
B0101407270162036585002STA. MARIA INDUSTRIAL PARK CORPORATION                   1610
B0101407140213016574001LONDON INDUSTRIAL PRODUCTS, INC.                         1602
B0101402350321006710001DASMA CITYWIDE GEN MDSG INC.                             1604
B0101402350321037708002RD CASH PADALA, INC.-AREA 1                              1603
B0101402640361043708001DSS EMPLOYEES' MULTI-PURPOSE COOPER                      1603
B2401400180411033833088JOLISA AGRIBUSINESS CORPORATION                          1610
B1201400150421024631001RICHGATE SQUARE HOMEOWNER'S ASSOCIATION                  1604
B0101403030441327386001**********                                               1603
B0101407430503006760001INTERNATIONAL CONSOLIDATOR PHILS., INC.                  1602
B0101403580511015278001MTV REALTY CORPORATION                                   1601
B0101403580511598100001ASIAN INSTITUTE OF IMMUNOLOGY INC.                       1601
B0101403450521011662002SUNTRA INT'L TRADING CO., LTD.                           1605
B0101404000551026854001MACKIM PRINTS, INC.                                      1602
B0101404130601047731001RICH MEDIA MANILA INCORPORATED                           1602
B0101404130601563008001I. PRUDENTIAL SHIPPING AGENCY SERVICES                   1605
B0101404130601669890001HODREAL HOLDINGS INC.                                    1605
B0101404420631164902002SAN BARTOLOME PARISH CHURCH-MASS FUND                    1601
B1301400210682245013002JAIME K. CRISOSTOMO                                      1601
B2801400100712582034001DONGHYUP PHIL. INC.                                      1602
B0101404840851013980002VIC IMPERIAL APPLIANCE CORP.                             1601
B0101403580000000383824PRIVILEGED, EMPOWERED AND RESPONSIVE                    11601
B0101401250021178956001PHILIPPINE NATIONAL GUARD SECURITY                      11602
B1901400290261170180001KUO AN TAI OR LAWRENCE BRIAN C ILARDE OR                11601
B2601400270302045063001ISABELA UNITED DOCTORS MEDICAL                          11610
B0101403580511027824001LEROSE REALTY MANAGEMENT &                              11602
B0101404420631005722001MANILA TEACHERS' SAVINGS AND LOAN                       11601
B0101403580000000383824CONSUMER SOCIETY                                        21600
B0101401250021178956001AGENCY, INC.                                            21600
B1901400290261170180001SUMINISTRADO, B.                                        21600
B2601400270302045063001CENTER, INC.                                            21600
B0101403580511027824001DEVELOPMENT, INC                                        21600
B0101404420631005722001ASSOCIATION                                             21600
B0301400530193821100608**********                                               2010
B0101410140475821100608**********                                               2003
