A0101402930000000053381DELA CRUZ, LOMER HOPE BEBOSO                             0502
A0201401020000000056102ESLER, HERBERT POSADAS                                   0502
A6601400120000000060426PUJANTE, CLEMENTE TALBANOS                               0501
A1701400230000000097778TABALBAG, ROD STEVENSON AMBIDA                           0502
A0101403450000000135464********                                                 0503
A0101400310000000140912**********                                               0501
A0601400360000000225210LAPID, MARISSA TADEO                                     0502
A0101405070000000336816CABALLERO, MA JONETTE DIONISIO                           0502
A0101411370000000350445ORIMO, GERALDINE MELOR                                   0501
A0101413600000000650986NAZARIO B. ALMAZORA                                      0501
A1901400320000000679283ANABELLA PABLO BEREDO                                    0501
A0101402930000000859890ARBOLEDA, BENEDICT JOHN ABADILL                          0501
A0101410980000000861672********                                                 0501
A0101401250000000907073CUERDO, MARIA STELLA DE LEON                             0501
A0101401250000000907186DESPI, FREDA FATIMA QUINTANO                             0501
A0101412630000000909780LOLONG, AIDA SIARON                                      0501
A0101412210000000977391NUNEZA, MARIA MERLY SANDOY                               0501
A1301400210000000983746VELASCO JR., FELINO CRUZ                                 0502
A0101401090000000993353VELASCO, ZENAIDA FAINSAN                                 0501
A0501400170000001072742XXXXXXXXXXXXXXXX                                         0501
A0501400170000001072742XXXXXXXXXXXXXXXX                                         0501
A0501400170000001072811ALLAS, ALMENDRAS DELENA                                  0501
A0101413310000001073836DE LEON, PAOLO MIGUEL NICOLAS                            0501
A0101408110000001165782MURAYAMA, LAURA QUIZON                                   0501
A0101408530000001268526DAVID, ENRIQUE                                           0501
A0101407560000001276222PLUVIAL ENTERPRISES                                      0503
A0101410560000001291043MELVIN G. BESINGA                                        0501
A1301400470000001299101ROYLITO G. PAEZ                                          0501
A1101400120000001547360CAUSING, MORPHEUS SALARDA                                0502
A2001400290000001557542ZF GENERAL MERCHANDISE                                   0505
A0101407270000001596832SWEET MARI RAULETTE A. GUIRITAN                          0501
A0101403320000001646700BENEDICTOS, BENEDICK MORENO                              0501
A2401400180000001677045SALVACION, ROSEMARIE DOCTOLERO                           0501
A0601400230000001687050CATACUTAN, CHERILLEE GOPEZ                               0501
A0601400230000001687061LINGAT, PAOLA ANGELICA MERCADO                           0501
A0101400150000001708032GUTIERREZ, CRISTINA MAGAT                                0501
A3101400870000001712174PASCUA, LUZVIMINDA BATARA                                0501
A4101400390000001732532CAFUIR, MA. JESUSA FUERTE                                0501
A0101412630000001823241AGUSTIN JR., WILFREDO MUECA                              0501
A0101408400000001835230DILIDILI, JAYDIELOU BACANI                               0501
A0101408820000001880593SISON, ROSA EVASCO                                       0501
A0101400310000001981815ERASGA, SOCORRO MADARICO                                 0501
A0201400760000001992470GO, ROMEO TANEDA                                         0501
A0101401700041339444001******                                                   0501
A0101401700041386463001**********                                               0502
A0101401700041478374001CESARIA TIEMPO                                           0501
A0101400150061173544001ONG, ATHENA POA                                          0501
A0101400150061363491001PENA, NILO BITANGA                                       0501
A0101405810072235171001**********                                               0505
A0101405810072282399003**********                                               0502
A0101405810072291768001**********                                               0501
A0101405810072327817001**********                                               0503
A0101405810072480111002CHEN, DAIYONG TAN                                        0503
A0101401960121238669001**********                                               0503
A0101412630132084883001CARINO, SEGUNDO MARBELLA                                 0501
A0101401830141208706001EVELYN C. GREGORY                                        0502
A0101400440161045289001RAPTURE CAFE' BAR                                        0501
A0101400440161525001135MARIFEL S. BOOC                                          0501
A0101407270162076011001VICENTE O. DURAN                                         0501
A0101407270162293484001MA. TERESA E. GANA                                       0502
A0101407270162331908049RIVERA, SHEILA                                           0502
A0101407270162331908088MARLON L. ANTOLIN                                        0501
A0101407270162523576001YEKATERINA A. AGUILON                                    0501
A0101401090171198531002JOHN DONNIE A. RAMOS                                     0501
A0101400310211295755006******                                                   0501
A0101400310211706131001NOVILLOS, BERNADETTE ORDAS                               0501
A3101400160221044050001MARGIMEL CORPORATION                                     0501
A3101400160221478374033ELMER M. VALERIO                                         0502
A3101400450223078443001CAYAO, CARLOS MANUEL SAMANIEGO                           0501
A3101400450223356672002PANGHULAN, JORGE GARCIA                                  0501
A1001400190231291989001NORCHEM PROMOTIONS & SERVICES,                           0501
A1901400290261298552151JEFFER JOHN ESTEBAN MONTEALTO                            0501
A1901400290261356002001MARICEL REJANO LUCERO                                    0501
A0101401670271197188001STO. DOMINGO, CESAR                                      0504
A2601400270302557854001ANGELITO OR AGNES MELEGRITO                              0501
A2601400270302567227001ROSITA TAN VALLE                                         0501
A2001400290315636070001DY, DANILO BANCHIREN                                     0501
A0101408820333047432001***************                                          0501
A0101408820333375363001MADRILEJO, ERNESTO SAMSON                                0502
A0201400760374033148001MONARES ENTERPRISES                                      0502
A0101402930381206550002MARIETTA A. PANALIGAN                                    0503
A0101402930381384938001ATTY. RAYMUNDO T. FRANCISCO                              0502
A0101402930381423656008EMMA MALOU U. LIM                                        0501
A0101408370382194449001**********                                               0510
A0101408370382390973001DR. GEOFFREY J. CORPUZ                                   0502
A0101405490392452462002MARIA TERESINA G. MESINA                                 0501
A1201400150421459509001TEE, CHITO LAYUGAN                                       0503
A1901400160491043831001NASH DINER                                               0505
A0101406880513527242001ABIADA, MA. BIEN BORJA                                   0501
A0101408530516615903048CHAVEZ, REMEDIOS QUIMAN                                  0501
A0101404000551748664001**********                                               0502
A0101407560686174527001ARACELI GARBI                                            0501
A0101408240711777513001PRATS, MARIA MARGARITA BARRIOS                           0501
A0101404840851478374035MYRNA A. LAGRAN                                          0501
A0101405070861516330002JOY C. CAPILASTIQUE                                      0501
A0601400230891255071002ATTY. MARIA ELISSA VELEZ                                 0503
A0101407560000000003550DISH NETWORK INSTALLATION                               10501
A1201400150000000473563MOLLY C. ABIOG OR MARY GRACE M.                         10502
A3801400170000000497901ACEDERA, RYAN REY OR                                    10501
A4101400420000000710563RAPI, CANDY S OR RAPI SR.,                              10501
A0101409180000000874608FELIX, CHRISTIAN ANTHONY                                10501
A2601400270000001009163SONNY G. ALEJANDRO OR                                   10501
A0101406750000001491921ARCE, MARIA RUBIROSA A. OR                              10502
A1101400120000001547257BITAS, EDNA Y. OR CLAROS JR,                            10501
A0101400150000001708043PESCADERO, SHERWIN ALICARTE                             10501
A3101400870000001712163TUAZON, ALLAN SANTOS OR TUAZON                          10501
A0101405070000001726085RADAM, BENJAMIN PINEDA OR                               10501
A0101401700041365653002AESOPO G. CRUZ OR                                       10505
A0101412630132094898001VENTURA, ELIZABETH CERVANTES OR                         10501
A0101401090171286859002MARIA VICTORINA LADISLA OR                              10501
A0101401090171376119001MARC ROBERT LADISLA &/OR                                10503
A1901400290261585775001LITA CUETO MENDOZA OR DORIS                             10503
A0101403320471488976001LIM JR., EMILIO OR EMMA LIM                             10502
A0101405940512452748001GALAMGAM, GARETTE LOVELL T.                             10505
A0101403610531662330001BERROYA, MARK LESTER AMOR  OR                           10501
A2201400250561484428001WILSON LAO SIO OR                                       10502
A0101407720602398203001CONRADO GABRIEL C. LORENZO                              10502
A0101406590662078882001TINAZA, AMELINA B. OR                                   10505
A4101400420814635620001CORPUZ, ELMER AGSALDA  OR                               10501
A0101405070861197518001RICARDO G. CHAN OR                                      10505
A0101407560000000003550SERVICES                                                20500
A1201400150000000473563NGO OR MAYCHELLE S. ABLOG                               20500
A3801400170000000497901ACEDERA, HAZELYN                                        20500
A4101400420000000710563NESTOR M                                                20500
A0101409180000000874608FLAVIER                                                 20500
A2601400270000001009163LEILA C. ALEJANDRO                                      20500
A0101406750000001491921AFANTE, PURITA M.                                       20500
A1101400120000001547257VICTOR HANZEIL G.                                       20500
A0101400150000001708043OR APELADO, LUNINGNING                                  20500
A3101400870000001712163EDNA BLANCA ALDIANO                                     20500
A0101405070000001726085RADAM, MARIMY JIMENEZ                                   20500
A0101401700041365653002GRACE SANTOS CRU                                        20500
A0101412630132094898001VENTURA, ALEX NGO                                       20500
A0101401090171286859002EVA ADALIA                                              20500
A0101401090171376119001MARIA VICTORINA                                         20500
A1901400290261585775001MARIE MENDOZA MEDINA                                    20500
A0101403320471488976001OR PRISCILLA SY                                         20500
A0101405940512452748001OR JANE GALAMGAM                                        20500
A0101403610531662330001BERROYA, CONNIE MORADA                                  20500
A2201400250561484428001EDUARD LAO SIO                                          20500
A0101407720602398203001OR PIA L. LORENZO                                       20500
A0101406590662078882001TINAZA, JOMAR S.                                        20500
A4101400420814635620001CORPUZ, AMELITA                                         20500
A0101405070861197518001OLIMPIA C. CHAN                                         20500
B1301400210000000023576LA CONSOLACION UNIVERSITY PHILIPPIN                      1605
B1301400210000000023587LA CONSOLACION UNIVERSITY PHILIPPIN                      1605
B0101405070000000028891TAKUMI RESTAURANT CORPORATION                            1601
B0101405070000000028908STAR LADY RESTAURANT AND CLUB INC.                       1601
B0101401830000000033605CARITAS SALVE CREDIT COOPERATIVE                         1602
B1601400170000000036159LION COMMERCIAL CORPORATION                              1605
B0301400790000000040837********                                                 1603
B0101406620000000194052**********                                               1601
B0101407140000000446053AB MONTERO MERCHANDISING                                 1601
B0101412050000000890940********                                                 1602
B0101412050000000890962ECFS INT'L. FORWARDING INC.                              1601
B0101401250021044358001PASAY CITY ALLIANCE CHURCH                               1603
B0101401250021044358002PASAY CITY ALLIANCE CHURCH                               1601
B0101400150061010600001SUAVIS INCORPORATED                                      1606
B0101400150061033759001D.M. CONSUNJI, INC.                                      1603
B0101400150061226355001TAGANITO MINING CORP.                                    1620
B0101405810072035930001************                                             1602
B0101401960121046474001DE LUXE HOME DESIGN CENTER, INC.                         1601
B0101407270162019026001RAMCAR TECHNOLOGY, INCORPORATED                          1605
B0101407270162019655001BATTERYWORLD INCORPORATED                                1605
B0101407270162044164001SOLUTIONS EXPERTS AND ENABLERS, INC.                     1605
B3101400450223365119003VICTOR HUGO ENERGY CORPORATION                           1601
B1001400190231032463001PROGRESS BICYCLE CORPORATION                             1605
B0101406620273031207001TANVIC REALTY CORP.                                      1601
B0101406620273045167001DCA AND PARTNERS, CPAS                                   1601
B2601400270302039764001MOTORAM MOTOR PARTS                                      1601
B1101400120313039184001SARC FOODS CORPORATION                                   1605
B6601400120314045385001SANVIC SUPERMART INCORPORATED                            1610
B6601400120314613071001LAYON, JUANITA OR LAYON JR., CELEDONIO                   1601
B0101405650322036086001VISTALAND INTERNATIONAL MARKETING, INC.                  1605
B0101408820333042510001UNITED CONTAINER CORPORATION                             1602
B0201400760374033207001W.T. CONSTRUCTION, INC.                                  1606
B0201400920375035473001UNI KEANNE TRANSPORT SERVICES                            1605
B0101402930381014599001HEALTH SOLUTIONS CORPORATION                             1602
B0101402930381046095001DAVIES TECHNICAL SOLUTIONS, INC.                         1605
B1401400110492041536001VIBRANT COMMUNICATIONS, INC.                             1602
B0101403450521011878001**********                                               1602
B0101403610531046549001BIG APPLE PLASTIC PACKAGING INC                          1602
B0101407720602031597001A.F. NAVARRETE AND PARTNERS CO.                          1601
B1301400210682248659001ASIANLAND STRATEGIES CORPORATION                         1605
B4101400260812043808001UPLIFT CAVITE HEAD OFFICE                                1605
B4101400260812043809001UPLIFT DASMARINAS                                        1605
B0101404840851018774001FIL-LABOR COMM'L & INDUSTRIAL CORP.                      1601
B0101405070861008149001TABAQUERIA DE FILIPINAS INC.                             1602
B0101405070861046894001BUDGET TRAVEL & TOURS, INC.                              1605
B0101405070000000028919GRAND YOKO BAR AND RESTAURANT                           11601
B0101405650000000772663MANAGING COMMITTEE OF THE CONSTITUENT                   11601
B3101400450223041015001ASOSASYONG SUMUSUPORTA SA ADHIKAING                     11602
B1301400470252045811001E.CAKELAND FOOD AND PASTRIES,                           11605
B2601400270302045063001ISABELA UNITED DOCTORS MEDICAL                          11610
B2001400290315746119001CAROLINE L. OR RONARD FIL L. OR CRISTY                  11601
B0101402930381758467001PATRICIA GENEVIEVE V. TABIA AND                         11601
B0101403610531024690001ACADEMY FOR CREATIVE LEARNERS OF                        11602
B2801400100712024577001PHILIPPINE COASTAL STORAGE AND                          11605
B0101405070000000028919INCORPORATED                                            21600
B0101405650000000772663MEMBER-BF HOMES                                         21600
B3101400450223041015001PANGKABUHAYAN                                           21600
B1301400470252045811001INC.                                                    21600
B2601400270302045063001CENTER, INC.                                            21600
B2001400290315746119001MARIE L. BUHISAN                                        21600
B0101402930381758467001CARLO GABRIEL O.                                        21600
B0101403610531024690001SAN PEDRO LAGUNA                                        21600
B2801400100712024577001PIPELINE CORP.                                          21600
