F0601400490000000011092BALMATER, THOMAS CHRISTOPHER T.                          2502CKO
F1201400150421031460002CJH SUITES CORPORATION                                   2602CKR
F0101403290461029738001EZRA GENERAL SERVICES INC.                               2605CKR
F0101404000551018247002SOLUTIONS EXCHANGE, INC.                                 2603CKR
F0201400180181053267001NEW GOODLY MERCANTILE, INC.                              2701CKC
