A0101400600000000007649*********                                                0503
A0101405490000000019703MARISSA P. GAMO                                          0501
A6601400120000000060591BERSAMIN, MARILYN BOCBOC                                 0501
A1701400230000000097927OASAN, LEONORA VALENTE                                   0501
A0101406590000000131604PALMA, TADEO MUNOZ                                       0502
A0101402510000000200197LETICIA G. JARENCIO                                      0501
A0101413600000000206824CHESING GENERAL MERCHANDISE                              0501
A1301400500000000213312RAMOS, LORINO IBERIO ARZADON                             0503
A0101410690000000305319SORIANO, JAMES CAYANAN                                   0502
A0101402770000000360876BETTER CHOICE CATERING SERVICES                          0501
A0101405490000000444499JOY P. ANG                                               0501
A0101407430000000446695SAYAROT, KRISTOFFER RAVELO                               0501
A0101411790000000469461PANGILINAN, R DBU RLRM ENTERPRI                          0502
A0101411790000000469472PANGILINAN, RENATO MUNSOD                                0501
A0801400160000000476299*********                                                0502
A0101407560000000477685MANALAYSAY, ROSALIE OLALIA                               0501
A0101407560000000477856MALONZO, CAR LYTT SANTOS                                 0502
A0101410140000000482713OPENA, RUBEN HINGPIS                                     0503
A0601400230000000498608MALONZO, VIOLETA BONDOC                                  0501
A0101408790000000579277ATILLO, JONATHAN BLACANO                                 0501
A0101408790000000599919DELA LUNA, PILAR TARANGTAN                               0501
A0101413570000000635610CHRISTEL MICAH B. LUBRIDO                                0501
A4101400420000000710392BRAZIL, EVELYN AGBAN                                     0501
A4101400420000000710416DIDULO, RICARDO DBU R2D ENTERPR                          0501
A0101408820000000800348BONENG, MARY ABIGAIL TAGALANG                            0502
A0101401250000000907051MIRABUENO, JESTONI ISIDERIO                              0501
A0101412180000000908452OBINETA, JEIZLE REGIS                                    0501
A0101404840000000943306MONTES, GINA BAGAS                                       0502
A3101400870000000957962SARTIEL, MARY GRACE DIONES                               0501
A0101413990000000969202DE RAMOS, REBECCA MOZO                                   0501
A0101400860000001005467**********                                               0505
A0101400730000001016540DEL ROSARIO, ANGELICA RAMIREZ                            0501
A0801400160000001031365ELARDO, NORMA BALMES                                     0501
A0101408240000001038686MANZANO, ENRIQUE YUMUL                                   0501
A0501400170000001072753LEYVA, DONNA MAE MALLARI                                 0501
A0101413310000001073701PENAFLORIDA, ALEX TASIN                                  0501
A3801400170000001091036BHELJUN L. LEGASPI                                       0550
A0101402480000001099601CAMPOSAGRADO, MILA MORALES                               0501
A0101402480000001099696*****                                                    0501
A5501400120000001121753CORPUZ, NENETH EMMANUEL                                  0501
A0101408110000001165760RALLOS, GILDA PREMIAN                                    0501
A0101408400000001213512GUEVARA, NORMA RAYOS DEL SOL                             0501
A0101407140000001218251GOMEZ, BERNIE PRIMO                                      0501
A0101413860000001233663DE DIOS, AMAL ESCORA                                     0501
A0101407560000001276040DAYRIT, DULCE AMOR GERTES                                0502
A0101407560000001276120LOVE AND FOREVER FUNERAL                                 0501
A0101412920000001313820ARBOLLENTE, RAINEER VIEN ROSALE                          0501
A0101412920000001313831TARUN, GEROLD BELTRAN                                    0501
A6601400120000001370456LOBERIANO, MARIA SAGORIO                                 0501
A0101407720000001393197AUSTRIACO JR., FERNANDO ROMEO Z                          0501
A0101412760000001399204MARIA ROSILIA F. LUANSING                                0501
A0101401380000001412593BATION, MARRY JOY ACAYEN                                 0501
A0101412630000001485218DESIDERIO, JOHNSER LAWAS                                 0501
A1101400120000001547246OLINO, SALLY HERMOSURA                                   0501
A0101408400000001614706DATUMANONG, ABDULLAH DATUMANONG                          0501
A0101410720000001761753ESPERANZATE JR., JOSE PAULO                              0501
A0101400860011449807001**********                                               0503
A0101400860011493899001**********                                               0505
A0101400860011496074002**********                                               0501
A0101400860011547639001**********                                               0503
A0101401250021417583001LUNA, MARY ANN SESE                                      0501
A0101401700041079722001********                                                 0501
A0101401700041512805001**********                                               0501
A0101400150061232035003NORBERTO REYES OR SOLEDAD REYES                          0501
A0101400600071351088001LIM, IT BENG NG                                          0502
A0601400100081401956001AQUINO, ANA MARIE DIMATULAC                              0501
A0601400100081465696002TANHUECO, DENNIS CRUZ                                    0501
A0601400360083558825001PINEDA, MA. VICTORIA BAUTISTA                            0501
A0101400730111203514043JULIE P. VILLANUEVA                                      0501
A0101406040112094295001********                                                 0501
A0101401830141546547001REATAZA, NELIA MORABE                                    0502
A0101400440161409585001GREGORIA T. COLOBONG                                     0501
A0101400440161525001033MARY JANE V. MACALINAO                                   0501
A0101401090171196220003DR. IMELDA S. DAVID                                      0505
A0101401380201561182001ACOTANZA, EDITHA SINCHONGCO                              0502
A0101407140213190792002**********                                               0502
A1001400190231478374027EUBRA, LIBERTY O.                                        0501
A0101406620273306796019IRENE D, TAYLO                                           0501
A0101410980275788808008********                                                 0501
A0801400160311265752001DIVINAGRACIA, LLANE GRACE                                0501
A0801400160311267104001SAN JOSE, BERMUNDO E.                                    0501
A1101400120313478374117APOSTOL JR., SERGIO ARTEMIO M.                           0502
A0101402480331016848002**********                                               0501
A0101402480331020937001**********                                               0502
A0101402480331246356001**********                                               0503
A0101402480331308653001*******                                                  0503
A0101402480331315462001*****************                                        0503
A0101402480331407902001***************                                          0502
A0101402480331512951001*******                                                  0501
A0101402480331520766110MONDIA, LINDA P.                                         0501
A0101402510341478374008MARY GRACE B. ANDRES                                     0501
A0101402060351434359001USON, RODOLFO RODRIGUEZ                                  0501
A0101408370382393302002DR. CORAZON C. CONDE                                     0505
A0101402770391217498028XENIA Z. PETATE                                          0501
A0101405490392415518001CATHERINE B. LUCIANO                                     0504
A0101408400394160344001CALMA, ALFREDO MATAGA                                    0504
A0101408400394420934001SANTIBANEZ, EUGENIA SANTIAGO                             0503
A0101408400394468280001VALLE, ALICIA SANTIAGO                                   0502
A0101408400394542845001PINEDA, DINDO DOMINGO                                    0501
A2401400180411478374035MERLINDA D. TAMUDTAMUD                                   0501
A2401400180411537301001**********************                                   0503
A2401400180411623776001SAUBAN, MARIA LUISA BANDIOLA                             0502
A0101403030441239075002**********                                               0503
A0101406330472217737001ARR MARKETING & GENERAL MDSE.                            0501
A0101406330472478374037LOLITA D. AMADOR                                         0501
A0101406330472478374046YVONNE M. LOMIBAO                                        0502
A0501400170481777043001QUINTO III, ALFREDO ARZADON                              0502
A0101407430503370409003ROSEMARIE MORADILLA                                      0501
A0101406880513084681001LUNA, LESLIE ANNE HIRANG                                 0501
A0101406880513444595001GABRIEL, MARIA TERESA BERGONIO                           0501
A0101404000551779954001DE MESA, MARC ARICAYA                                    0501
A0101404260611150863001CIPRIANO SAN MIGUEL                                      0501
A0101404260611392885001BANTA, EUGENIA TAMAYO                                    0501
A0101404260611478374085ROSALINA SUMILE                                          0501
A0101404260611525197002REYES, YOLANDA DELA VEGA                                 0501
A0101404420631478374001SOTERANIA VILLAMOR                                       0502
A0101404680651170273001MANGILA BUSINESS AGENCY                                  0501
A0101404680651478374078CARMELITA C. PABLO                                       0502
A0101404680651478374187CRISTINA C. DUCUSIN                                      0502
A0101404680651520766130MARILEN A. AVILES                                        0501
A0101404680651520766135JULIET S. MANZOLIM                                       0502
A0101404680651525001015BERLINDA C. RUBIO                                        0502
A0101404680651525001023JULIET C. OBLIGAR                                        0501
A0101404680651539065001ROSALINDA C. GARCIA                                      0502
A0101404680651545666001MERCELITA P. MANCILE                                     0501
A0101404680651697738001IVY H. ANTONIO                                           0501
A0101404680651715182001VICTORIA S. PONCE                                        0502
A0101410720653624279001FLORES, LEANDRO PAUL BELTRAN                             0501
A1301400340683353482001JOSE, MARLENE RODIL                                      0502
A1301400340683501399001ESPINOSA, JOSELYN DULU                                   0502
A1301400340683564481001REMO, NILO AVENDANO                                      0501
A0101407560686478374024LORNA SIBAYAN                                            0501
A0101407560686478374069ROLANDO PATAC                                            0502
A1701400230693478374061BAUTISTA, CRESENCIO RISCAL                               0501
A0101408240711316584001ARCHES, JIMMY BOY SANTOS                                 0502
A0101408240711534497001LACUESTA, ANTHONY GERVASIO                               0501
A0101408240711571958001PAJO, MARY JANE RAPOY                                    0501
A2801400100712387797001ROCHELLE C. PEREZ                                        0502
A1301400760000000050513MICHAEL P. BULANDOS OR                                  10502
A1301400760000000050682ANA ELIZABETH O. PALILIO OR                             10505
A0101401830000000201845CRUZ, ARLENE ROBERTO OR                                 10502
A0101408240000000347357GAMUT, RUDY DAIROCAS OR                                 10502
A0301400950000000566796ILAGAN, LEO AMADO OR                                    10501
A0101410850000000778714BELDA JR., VIVENCIO OR BELDA,                           10505
A4101400390000000975162DULCE, MARRIANNE DBU KLARENZ-                           10501
A0101400730000001016260BISHOP ALFREDO FLORENTIN VERZOS                         10502
A0101408790000001486200ABAD, XYLENE TRINIDAD OR                                10501
A0101406040112428212001MARVIN WILLIAM TRINIDAD OR                              10501
A0101401830141530136001RACELLE MARY B. ABANES OR                               10501
A0101400570281186530001CARLOS AGUILA OR                                        10502
A0101402510341094099001GUIA, KIM SABILLO OR LEAL,                              10501
A0201400890376535273002TOLEDO,HAROLD XAVIER/GUEVARRA,                          10502
A0101402770391211935001RUBEN OR HELEN OR JAY NINO                              10501
A0101402770391409631001MARIA CECILIA M. SOTELO OR                              10501
A0101408400394403584001FELIZARDO M. ROMERO OR                                  10501
A0901400220432746180001ARCILLAS, ESTER G. OR                                   10505
A0101407720602396331001RAMON I. DIAZ JR. OR                                    10503
A0101407720602396596001DR. REGINA MACALINTAL-CANLAS                            10503
A0101404260611659908001LIM, EDNA MAGDANGAL                                     10503
A0101404680651043288001FIRM FOUNDATION BUILDERS &                              10502
A0101410720653528817001VINCENT GONZALO SY OR TIMOTHY                           10503
A1301400760000000050513AMOR P. BULANDOS                                        20500
A1301400760000000050682VIRGILIO E. PALILIO                                     20500
A0101401830000000201845CRUZ, VERNON CRUZ                                       20500
A0101408240000000347357GAMUT, ERLINDA                                          20500
A0301400950000000566796ILAGAN, CECILLE ANNE                                    20500
A0101410850000000778714WILMA DBU VENZWIL TRADING                               20500
A4101400390000000975162KRIZELLE'S CATERING SERVI                               20500
A0101400730000001016260FOUNDATION, INC.                                        20500
A0101408790000001486200CALMA, ARACELI LEONCIO                                  20500
A0101406040112428212001MARIA CERRIZA TRINIDAD                                  20500
A0101401830141530136001LUIS FRANCISCO V. LEBRON                                20500
A0101400570281186530001MERCEDES AGUILA                                         20500
A0101402510341094099001MELANIO LAZAGA                                          20500
A0201400890376535273002KENNETH/CLIMACO,                                        20500
A0101402770391211935001SANVICTORES                                             20500
A0101402770391409631001DELFIN ARTEMIO S                                        20500
A0101408400394403584001FLORDESETS V. RO                                        20500
A0901400220432746180001ARCILLAS JR., OSCAR C.                                  20500
A0101407720602396331001CYNTHIA M. DIAZ                                         20500
A0101407720602396596001OR DR. MANUEL CANLAS                                    20500
A0101404260611659908001OR ORLANDO LIM                                          20500
A0101404680651043288001TRADING SERVICES                                        20500
A0101410720653528817001JON SY OR JULIE                                         20500
B0101407560000000003538****************                                         1601
B01014046800000000135508LUDEREY FOOD SERVICE INC.                               1604
B0101410720000000029996J.C.T. EZ LOAN CORPORATION                               1602
B0101400860000000030268**********                                               1610
B0101413020000000038457ZIG3 INDUSTRIAL GAS TRADING CO LTD                       1602
B0101404680000000095681INTRAMUROS TRAVEL AND TOURS INC.                         1602
B0101400440000000337860SEACHON, JOSEPH CLEMENTE                                 1601
B0101406330000000432653ISJOSE REALTY AND DEV. CORP.                             1602
B0101408240000000832553YUSUNG CHARITY FOUNDATION INC.                           1601
B0101401830000001282199ABAYA, MIG DBU MULTI-OPTION TRADING                      1601
B0101400860011352814001**********                                               1601
B0101400860011398964001***********                                              1602
B0101400860011573208001**********                                               1602
B0101400150061021925001EASTERN PETROLEUM CORPORATION                            1602
B0101400150061023257001**********                                               1601
B0101400600071040008001*******                                                  1602
B0601400100081030352001LIVING STONE INTERNATIONAL SCHOOL INC.                   1605
B0101400730111019171002RHINE FOODS CORPORATION                                  1605
B0101400730111038801001JSK GLOBAL ACCESS LENDING CORPORATION                    1605
B3101400160221038352001AKAGI GOMU PHILS. CORP.                                  1603
B0101400570281033370001IVORY CUPS FARM                                          1602
B0101402480331025986001SKY INDUSTRIAL BAGS, INC.                                1604
B0101402480331234185001**********                                               1602
B0101402480331561080001*********                                                1601
B0101409180397041137001****                                                     1603
B5501400120410041561001MANG GORIO BAHAY KAINAN                                  1604
B2401400180411017908001LWC CYCLE MART, INC.                                     1602
B0101403030441303324001**********                                               1602
B0101410140475047153001DEVINECARE, INC.                                         1601
B1401400110492013980002IMPERIAL APPLIANCE PLAZA                                 1601
B1401400110492046762001BVFREN AVELLANO BUILDERS INC.                            1601
B0101406880513028753002AVT PROPERTIES INC.                                      1603
B0101407720602026114001**********                                               1603
B0101404420631005847001MANILA TEACHERS MUTUAL AID SYSTEM                        1601
B0101410300663044402001******                                                   1603
B0101407560686009918001ACQUISITIONS INDUSTRIAL CORP.                            1602
B0101408240711008262001TRANSOIL CORPORATION                                     1610
B0101408240711028643001MPM CORPORATION                                          1601
B4101400390813041394001REY-G HARDWARE AND CONSTRUCTION SUPPLY                   1603
B4101400420814047949001SOUTHWOODS SCHOOL OF CAVITE, INC.                        1602
B0101404840851021512001STI COLLEGE ALABANG, INC.                                1603
B0101406750852041698001MELIX MANPOWER & JANITORIAL SERVICES                     1603
B0101408400000000077872TECH-ASIA INDUSTRIAL ENTERPRISES                        11601
B0101402770000000080635PHILIPPINE SKYBIRD INDUSTRIAL                           11601
B0101413990000000206135SERENDIPITY SALON AND WELLNESS CENTER                   11601
B0101414090000000399491MODERN FILIPINO GROUP INT'L FREIGHT                     11605
B0101400730000000659650FRC SULO RIVIERA RESIDENCES                             11602
B0101400730000001016248BON, ARLENE DBU BROBIO TRAVEL AND TOURS                 11602
B0101400730000001016248BON, ARLENE DBU BROBIO TRAVEL AND TOURS                 11602
B0101401830000001282188R. E. LEGASPI BUILDER AND DEVELOPMENT                   11601
B0101400150061027012001PRECEPT MINISTRIES INTERNATIONAL OF                     11601
B0101406750852474662001SECURITY MARKETING & PEST MANAGEMENT                    11603
B0101408400000000077872CORP.                                                   21600
B0101402770000000080635CORPORATION                                             21600
B0101413990000000206135CORP.                                                   21600
B0101414090000000399491FORWARDING INC.                                         21600
B0101400730000000659650CORP                                                    21600
B0101400730000001016248SERVICES                                                21600
B0101400730000001016248SERVICES                                                21600
B0101401830000001282188CORPORATION                                             21600
B0101400150061027012001THE PHILIPPINE                                          21600
B0101406750852474662001INC.                                                    21600
B1301400470252821100608**********                                               2002
