A0801400160000000009492LORING, MARIA IA JOY ESPINOSA                            0502
A0101400310000000019343UCOL, JAN MAIKO DAKANAY                                  0501
A0101401250000000020424BALIAO, JOVITA LINGGON                                   0503
A0101401700000000040171*****                                                    0502
A0101412630000000044664FALCON, LUISITO MONTALVO                                 0501
A0101412630000000044664FALCON, LUISITO MONTALVO                                 0501
A5501400120000000046831PANG-UMA AGRI MKTG                                       0502
A0101406750000000090617SMILES R' US DENTAL CENTRE                               0505
A0101410300000000191906SILVA, MARIA JOSEFINA OBIETA                             0501
A1901400160000000243672KERVIN FRANCIS DE LA CRUZ LIM                            0501
A0101402060000000358736DELA CRUZ, ELISA ROBLES                                  0501
A0101400150000000525444SOLA, LALAINE SAMSON                                     0502
A0101405650000000525940VIRAY, GENEVIE CRUZ                                      0502
A0101408530000000594183SADANG, MARK ROYCE REAMON                                0501
A4101400390000000745335MARIANO, JENNIFER CARPIO                                 0501
A0101400150000000760805FELIPE, JOY HERNANDEZ                                    0501
A0101414250000000765691*                                                        0501
A0101411080000000805834LAMBOLOTO, EVA ALCARAZ                                   0503
A0101408660000000855892WONG, WILLIARD SIA                                       0501
A0101407430000001028875LANI C. TUQUIB                                           0501
A0101408240000001038697APARICIO, RENATO FRANCIA                                 0502
A4101400420000001063796AMORANTO, LOURDES GUICO                                  0501
A6601400120000001065270ECHALUCE, FRANCISCO CHIN                                 0502
A6601400120000001065372CABILI, JULIUS MICHAEL MACAMAY                           0501
A0101413310000001073858PICART, ROSEMARIE LIM                                    0501
A0101410140000001074782ROSETE, KAREN MAR CHAVEZ                                 0501
A3101400740000001093863MADRID, JEANETH SAMPAYAN                                 0501
A0101411660000001145799ANIANO D ALCANTARA                                       0501
A0101404000000001186910LAPUZ, MYRNA SOMERA                                      0501
A0101405940000001209961******                                                   0501
A0101408400000001213523RACHEL VICTORIA G ESTANDARTE                             0501
A3001400130000001271636TANGGA AN, PRESCILLO MAQUILING                           0501
A0101411950000001272986********                                                 0501
A0101413150000001288251JOEL TAN                                                 0502
A1301400470000001299094MILAGROS R. LAGASCA                                      0501
A0101412920000001313740LINGAN, ROSALINDA PALATAN                                0501
A0601400520000001349651OLIVA, RONALD DAYOS                                      0501
A0101411820000001356565GRACE S. TOLEDO                                          0501
A0301400950000001379488JAMBO, GLENDA PENDANG                                    0501
A0101400440000001439583CECILLE DEMILLO GALENO                                   0501
A0101400440000001439721PACIS, VILMA VIGGAYAN                                    0501
A0101402640000001536590PALMERO, MARIETA MONTERO                                 0501
A0101402640000001536614CABASAL, MARICEL FLORES                                  0501
A3101400160000001559275MATIRA, VICENTE DE GUZMAN                                0501
A4101400550000001622640VISAYA, ROGELIO AMPONG                                   0501
A4101400550000001622651TEOPE, ANALENE GUIRITAN                                  0501
A0101403320000001646755LUMABI, MARIA REGINA FATIMA P.                           0501
A0101403320000001646766EROSA TRADING                                            0501
A0101403320000001646777MYRNA M. CRISOSTOMO                                      0501
A0101409050000001662380***************                                          0501
A4101400390000001732587RAMOS, ROSALIA ILAGAN                                    0501
A0101412630000001823263PASION, LIZEL PEREZ                                      0501
A0101412630000001823274TURINGAN, MARIA ELENA LASAFIN                            0501
A2201400250000001932190GABRIEL, ELMER MARTIN                                    0501
A2401400180000001935760SAYSON, MAYLEN FACIOL                                    0501
A0201400890000002037172****************                                         0501
A0101400310000002046431GUERRERO, ROSALINDA HILARIO                              0501
A0201400760000002047649CALINAWAN, FRANZ ANGELA DUCAO                            0501
A0101400860011391313002**********                                               0502
A0101400860011426836001*********                                                0502
A0101400860011541134002**********                                               0502
A0101400860011568203001**********                                               0503
A0101400150061087284001RODA, JULIUS R. DBU SJA TRADING                          0501
A0601400100081013400001SUNSHINE TOURS & TRAVEL AGENCY                           0505
A0601400100081297133001DIZON, CRISANTA GALANG                                   0506
A0101400440161478374095BEVERLYN L. CARABALLE                                    0501
A0101400440161525001174RIZALYN V. GUNTANG                                       0505
A0101400310211414144002YUZON, RICARDO CAPILIT                                   0501
A0101400310211478374080LELAIDA C. GRAGASIN                                      0501
A0101400310211478374085RESERVA, ANITA                                           0501
A3001400130230713434001GONZAGA, ALEJANDRA MUSICO                                0501
A1001400190231520766050ROSARIO S. DIAZ                                          0501
A1301400470252525105001FILIPINA G. MERCADO                                      0505
A0101400570281536538001DRA. MARJORIE A. RAMOS                                   0502
A0101400570281709222001DOMINGO, IRENE MISTA                                     0501
A0801400160311478374092MALLORCA, ROSEMARIE A.                                   0501
A0801400160311478374102MA. CECILIA A. AVANCENA                                  0501
A2001400290315746119002BUHISAN, CAROLINE LU   JT                                0505
A0101408820333083600001********                                                 0503
A0101408820333157273001ANITA VARSOVIA                                           0501
A0101408820333478374067MARICEL D. VALSOTE                                       0501
A0101402510341197758001CARMINA P. CATAPANG                                      0501
A0101402060351039359001TITANIUM II ENTERPRISES                                  0502
A0101402060351217441009RONILO MATAS                                             0503
A0101402640361170266001ROLANDO BUHAT CABRAL                                     0502
A0101402640361465848001DIAZ, MA. MILDRED PALERO                                 0501
A0101402640361685216001DIONISIO, LONA ALON                                      0505
A0101402640361703191001TAKANO, YONIKKO GWEN DIEZ                                0501
A0201400760374478374005ABATAYO, JENNIFER A.                                     0501
A0101408370382518011001MARIE ANTOINETTE DIZON, MD                               0502
A0101408950396501244001DR. RHESA MAY MANALOTO MARTINEZ                          0501
A2401400180411075579001JALALAGTOY, MARVIN SUAREZ                                0501
A1901400160491307939001EDWIN P CHUA OR EDDIE P CHUA                             0504
A0101407430503736499001CECILIA P. REVAREZ                                       0501
A0101408530516571877100UY, FLORIDA Q.                                           0501
A0101403450521233116001**********                                               0501
A0101403450521238185001********                                                 0502
A0101403450521238290001****                                                     0503
A0101403450521628608001EFANN, TADOR LEE                                         0501
A0101404130601014815025GARY CLINT S. BORJA                                      0502
A0101404130601297269002ARMAN M. MARTINEZ                                        0502
A0101407720602483110001YU, MICHELLE ANABELLE MERCADO                            0503
A0101404260611155266001YU, SUSANA OR EDDIE                                      0501
A0101404260611387904001BRETANA, ANALENNE PALOMER                                0501
A0101404420631478374026JOCELYN BORRES                                           0502
A2801400230713074852001DOMINGUEZ, MARIVIC MANDADERO                             0503
A4101400390813478374059CUEVAS, MERIAM                                           0501
A4101400420814478374030LIGAYA ILANO                                             0501
A4101400420814520766012SUSAN B. MALBOG                                          0501
A4101400420814520766016PUNO, EMELINDA M.                                        0501
A0101406750852633773001MARASIGAN, RICARDO JOYAS                                 0504
A0201401020000000056266PINOY ENTREPRENEURS CONSUMERS                           10501
A1701400230000000097916GARVIDA, DENTON DBU DTN GRAVEL,                         10502
A0101400310000000140985AQUINO, JONATHAN NIONAL OR                              10502
A0101409050000000258280CODERA, ROWENA SIASAT DBU WECO                          10501
A0101408240000000521964SARAZA, SHERWIN GLENN GARCIA                            10501
A0101411530000000741702ROQUE, JOSEFINA GONZALES OR                             10501
A0601400100000000786701BANAS, CESARLIE AMBASA DBU B &                          10502
A1301400470000001004082MARIFE M. APOSTOL OR                                    10501
A0801400160000001031398GENZO MEDICAL & LABORATORY                              10501
A0101402640000001150138TAN, JENNIFER TAN OR                                    10501
A0101406750000001491823VILLA-CUTAMORA, SHERRILYN DBU                           10502
A1401400110000001549300SUNAND, MABEL DBU SUNAND                                10501
A0101403320000001646799ANGEL RAYMUND M. WONG OR                                10501
A0101400150061738224001NUBLA, MELVIN SIXTO C                                   10501
A1301400470252620065011ALFREDO L. AGUNOY OR                                    10501
A0101401670271292571001CHRIS RYAN R. CRUZ OR JANICE                            10504
A0801400160311389143001CHAN, MILAGROS OR                                       10502
A0101405650322225574001HORNSHAW, ALICIA S. OR                                  10502
A0201400760374538643001COSINERO JR., PACIFICO                                  10501
A0101403450521304368002LIBREA, FARITA S. OR MA. LUISA                          10503
A2201400250561527491001ALEXANDER P. QUITO OR                                   10502
A1301400210682302295001WILFREDO M. CLAUDIO OR                                  10506
A1301400210682505284003DON JEROME SP MENDIOLA                                  10501
A1301400340683361153001LICAROS JR, ALEJANDRO LAGPAO OR                         10502
A0201401020000000056266COOP.                                                   20500
A1701400230000000097916SAND CONSTRUCTION SUPPLY                                20500
A0101400310000000140985PAGGAO, KATHERINE DE LEON                               20500
A0101409050000000258280PRINT AND GRAPHI                                        20500
A0101408240000000521964AND BETONIO, EVELYN                                     20500
A0101411530000000741702ROQUE, MARY ANN GONZALES                                20500
A0601400100000000786701Y LAUNDRY SHOP                                          20500
A1301400470000001004082FERNANDO M. NICANDRO                                    20500
A0801400160000001031398SUPPLIES & EQUIPMENT                                    20500
A0101402640000001150138TAN, ROBERT L.                                          20500
A0101406750000001491823DENTAL HAVEN REHAB AND DE                               20500
A1401400110000001549300CONSTRUCTION AND SUPPLY                                 20500
A0101403320000001646799MARIA GRACIELA M. WONG                                  20500
A0101400150061738224001OR NUBLA, KAREN P                                       20500
A1301400470252620065011LUALHATI B. AGUNOY                                      20500
A0101401670271292571001CLAIRE C. CUASO-CRUZ                                    20500
A0801400160311389143001CHAN, NATHANIEL                                         20500
A0101405650322225574001HORNSHAW, RAYSON                                        20500
A0201400760374538643001DOMANILLO                                               20500
A0101403450521304368002ANGELICA LIBREA                                         20500
A2201400250561527491001SHIELA C. QUITO                                         20500
A1301400210682302295001  LUCIA CLAUDIO                                         20500
A1301400210682505284003MA KLAIRE Y MEND                                        20500
A1301400340683361153001LICAROS, ELSA REMIGIO                                   20500
B0101412890000000006919VAMECA FOODS INCORPORATED                                1602
B0101411530000000013612J.M. SANVICENTE TRUCKING SERVICES,                       1602
B0101400310000000019310MACHI & KARTHE MGT. CORP.                                1603
B0101400310000000019394AP MUNOZ PROPERTY HOLDINGS CORP.                         1605
B1301400210000000023598LA CONSOLACION UNIVERSITY PHILIPPIN                      1605
B5001400170000000169711LIM, EDDIE ONG OR LIM, GEORGE ONG                        1604
B0301400950000000566945BIG Z QUALITY FOODS CORPORATION                          1605
B0101408240000000832611BU-DA SNAX CORP.                                         1601
B4101400550000000900069JEEMEE ENTERPRISE INC.                                   1601
B0101412470000000949511MUNOODLE BAR CORPORATION                                 1601
B0101400860011425868001**********                                               1601
B0101407270162031640002RVG SPARROW HOLDINGS INC.                                1601
B0101407140213020285001WE MANUFACTURING & TRADING CO. INC.                      1603
B0101407140213721993001**********                                               1601
B0101406460272007511001STERLING GIFTS INC.                                      1605
B0101402640361027755002CARE 1ST CORPORATION                                     1605
B0101402640361176159001FILCON READY MIXED, INC.                                 1610
B0101403320471041480001ITP CONSTRUCTION INC                                     1610
B0101403580511005202001151 CONDOMINIUM CORPORATION                              1603
B0101408530516036896001UNITED GRAPHIC EXPRESSION CORPORATION                    1606
B0101404000551044718001EBRL INTERNET CAFE                                       1601
B1301400500684029282001L5 & SONS FINANCING CORP.                                1606
B0601400230891029282001L5 & SONS FINANCING CORP.                                1605
B0201401020000000005034PINOY ENTREPRENEURS FOR SUSTAINABLE                     11602
B5001400170000000169824VICTORY CHRISTIAN FELLOWSHIP OF                         11601
B1401400110000001095905BOMEL CONSTRUCTION, SUPPLY AND                          11602
B3101400160221029066001PANASONIC COMMUNICATIONS PHILS. CORP.                   11602
B0101402510341008511002FOUNDATION FOR ADOLESCENT                               11603
B5501400120410636179088CHIU, VALENTIN & CHIU, JULIA EILEEN &                   11602
B0101403320471019960002DIRECT ELECTRIX EQUIPMENT                               11605
B2201400250561013172001INTERNATIONAL WIRING SYSTEMS                            11630
B0201401020000000005034OPPORTUNITIES                                           21600
B5001400170000000169824ZAMBOANGA CITY                                          21600
B1401400110000001095905DEVELOPMENT CORP                                        21600
B3101400160221029066001EMPLOYEES' RETIR                                        21600
B0101402510341008511002DEVELOPMENT, INC                                        21600
B5501400120410636179088CHIU, CHRISTIAN                                         21600
B0101403320471019960002CORPORATION                                             21600
B2201400250561013172001PHILS. CORP                                             21600
B0101407430503821100608**********                                               2020
B0101407430503821100608**********                                               2020
B0101409470632821100608**********                                               2001
