A1301400210000000023229FRANCISCO P CABOTEJA                                     0501
A0101408660000000059932MARGAS, HELEN DUMAYAC                                    0501
A0101411950000000089883********                                                 0501
A4101400420000000120703ROSANO, ROXANNE                                          0502
A1001400190000000124730GORME, MARIANITA L.                                      0501
A0101412890000000125442ARMANDO DE VERA VENTINILLA                               0501
A0101400310000000140894MENDOZA, PRISCILLA LEDESMA                               0501
A0101400310000000140901FELIPE, FEDELIZA BRAVO                                   0501
A0101400570000000165757BOLIMA, MELCHOR YABUT                                    0501
A1301400500000000213163MARCELINO, NORVY GARCIA                                  0504
A5001400170000000214020ARNOCO, MARIETA DIAMANTE                                 0501
A0101410560000000268360DE LEON, TERESITA BOTE                                   0502
A0101410560000000268400MACAJELOS SR., GEORGE EPARWA                             0502
A0101410140000000482746CHUA, JOANNA LAU                                         0501
A0101400150000000525433GARCIA, ALFRED BENJAMIN RIVERA                           0501
A1301400210000000540743JONEL MAR S TRINIDAD                                     0502
A1001400480000000606831VALDEHUEZA, KENT VAN OCERO                               0504
A1101400120000000652697CASTILLOTE, GRACITA G.                                   0501
A4101400420000000710438QUIMBO, JANICE CARRANZA                                  0501
A4101400420000000710530SERRANO, JAY JOSEPH CABANSAG                             0501
A0101406880000000745073AGUSTIN, LEODEGARIO CORTEZ                               0501
A0101411080000000805641****                                                     0503
A0101400440000000821447MERISSA O. VERUEN                                        0501
A0101400440000000821538MARITES T. JIMENEZ                                       0501
A0101410300000000919499VITUG, MARGARITA CARMINE GARCIA                          0501
A0101403580000000922612JENNIFER B. SANTOS                                       0501
A2801400230000000937617GARCIA, JENNEN JULAO                                     0501
A0101404680000000940983SBMN ENTEPRISES                                          0501
A1301400340000000980194COLASITO, MA SHIELA OCO                                  0502
A2601400270000001009130ROY ALLAN W. MOLINA                                      0501
A0301400790000001010619CABASAG, JEY R LAGONOY                                   0502
A0101402510000001025990MELGAR, MARIA CECILIA ALEJO                              0501
A0101412890000001056171RLC WATER ESSENTIALS                                     0501
A0101413310000001073790TOLENTINO, AUDREY VAUGHN MEDALL                          0501
A5501400120000001121811VILLARUEL, MARIA VIRGINIA HERNA                          0501
A5501400120000001121840BALDOZA, JOY ILAO                                        0501
A0101410560000001290988CHING, ARNULFO DALIPE                                    0501
A0101407720000001393299DR. ESTHER C. LEYNES                                     0501
A1301400340000001415656RIVERA, CESAR DOMINGO                                    0501
A0101406750000001491910CATADOR, JONALYN ESTRELLA                                0501
A0101409920000001539511DIENLA, EVANGELINE DEMURA                                0501
A3101400160000001559242CHARLES C BELEN                                          0501
A0101402770000001570634VALIENTE, RHUEL RYAN BAYLON                              0501
A0101403320000001646697ASIS, MARIA JONAH LOJO                                   0501
A0101406620000001686531MANUEL, MAURICE VICTORIA EUGENI                          0501
A0601400230000001687049MAGAT JR., ISMAEL MAPPIE                                 0501
A0101400150000001707791GARME, EMMANUEL S, DBU 5RMJ TRA                          0501
A0101400150000001707900CABIAS, ARIZTEO CASTRO                                   0501
A3401400280000001723382BENLIRO, ALFIE TIANCHON                                  0501
A0101404260000001725195CUYOS, APRIL JOY SORSO                                   0501
A0101401250021478374017BATILDA G. ALOTA                                         0501
A0101401250021695381001******                                                   0501
A0101401700041386485001MA. SONIA DINO                                           0501
A0101400150061329718004ZABALETA JR., JOSE MARIA PONS                            0501
A0101400150061337099136ROWENA O. TAN                                            0501
A0101400730111386485162DINA F. ALIBIO                                           0502
A0101400730111718087001PASAGUE, LALAINE TRINANES                                0501
A0101401960121436064001TAGLE, IMELDA CHUA                                       0501
A0101400440161520766189PRESCILA P. DOTONG                                       0502
A0101400440161623684001EDITHA H. VALENCIA                                       0501
A0101401090171196001001MATILDE GONZALEZ                                         0501
A0101401090171391665001PUSTA, GWENETHA YBANEZ                                   0502
A0101401090171752549001MA. CECILIA L. BALAJADIA                                 0501
A0101400310211157426001LOPEZ, ELISA                                             0501
A0101400310211577232001JOYLE SYGO CED                                           0503
A0101407140213306163001MARK D. MENDOZA                                          0503
A0101407140213429359002**********                                               0504
A0101407140213556883001**********                                               0503
A3101400160221386295002ROBERT J. BANATIN                                        0501
A3101400160221478374039MARILOU A. JAMILA                                        0501
A1001400190231520766104MAMBUAY, JOSEPHINE WABE                                  0501
A1001400350233478374009CAJANDAB, FLORABEL M.                                    0501
A1001400350233505176001AGAWIN, ERLINDA GALENZOGA                                0502
A1001400350233506103001LIMPIADO, JOVITA CAHIPE                                  0501
A1001400350233783808001MABAYLAN, MARIPAZ ECHEVERIA                              0501
A0101400570281375245001CHUNG, JANE LEE                                          0501
A1101400120313478374064DELMO, MARIAN P.                                         0501
A0101402510341722819001PAGUINTO, MELANI BULACAN                                 0501
A0201400890376080642001GALANG, LORLIE PACURIBOT                                 0501
A0101408370382393039001DR. EUGENIO JOSE F. RAMOS                                0503
A0101408400394478374099CAPARAS, ROSALIS                                         0501
A0101412210399094817005JALANDOON, MARNELLE ALVAREZ                              0501
A5501400120410085274008VILLARUEL, MARIA VIRGINIA H.                             0503
A5501400120410551770002AGUILAR, JEANNY CARDINAL                                 0501
A2401400180411478374065CELIA D. NAVAREZ                                         0501
A2401400180411612792001SARDIDO, MARIA NAVALTA                                   0501
A0101403030441239031002**********                                               0501
A0101403320471543955001RAMIREZ, CESAR LANDICHO                                  0501
A0101403320471550493001VILLAMIEL, MARIA ANTONIA ESCASA                          0501
A3801400170490757939003RENEL G MEDINA                                           0502
A0101408110515708875001DR. JAMIE ISIP CUMPAS                                    0501
A0101408530516433800001***************                                          0501
A0101408530516478374001ARMI G. CELIZ                                            0501
A0101403450521238094001**********                                               0502
A0101403450521239693001*********                                                0505
A0101403450521241165001**********                                               0501
A0101407720602163314003JOAQUINO, SALLY KING                                     0502
A0101407720602232072001LENNIE A. TERRE                                          0501
A0101407720602232072003EMMANUEL SILVA                                           0502
A0101404260611662255001INFANTE, JERRY PONTILLAS                                 0502
A0101409920650478374009PABILONIA JR. SALVADOR B.                                0501
A0101409920650478374016CIENCIA, JERAMIE ABALUNA                                 0501
A0101404680651525001022LEILA L. SARTE                                           0501
A1301400210682037806001MANG PABLING MARKETING                                   0502
A1301400210682245528001DANILO V. MANALAYSAY                                     0501
A1301400210682478374027MARY ANN M. DE LEON                                      0501
A1301400210682478374053RUBIROSA C CABUGWASON                                    0502
A1301400340683247884001LEONARDO, MA. CONCEPCION P.                              0503
A1301400340683410031001LLANILLO, ROSEMARIE RAMOS                                0505
A1301400340683433734001DELA RAMA, CARMELITA LOZADA                              0503
A1301400500684178201001DELLOSA, CAROLINA LACSON                                 0505
A0101408240711219571001MERCEDES M. OLIVER                                       0502
A0101408240711460883001GAMITIN, RAMEL ESCASA                                    0501
A0101408240711525040002FLORO, MICHAEL CHAVES                                    0501
A0101408240711547008001FERNANDEZ, IONE ROXAN F.                                 0502
A2801400100712401674002DEL ROSARIO, DANILO LARACAS                              0501
A4101400390813017514001PRESTIGE AUTO CARE                                       0501
A4101400420814520766027ARUTA, CORAZON G.                                        0501
A0101404840851478374096MARIA JESUSA G. BATARIO                                  0501
A0101404840851478374115ERLINDA O. PRADO                                         0502
A0101404840851520766180CARMELITA M. BARBACENA                                   0501
A0101406750852298552032FLORDELIZA L. RETARDO                                    0501
A0101406750852654631001VEGA, JERRY OGENA                                        0502
A4101400550000000005950SEGURITAN, JOCELYN DBU SFC                              10506
A0101401250000000057189GECOSA, M DBU PRAETORIUM                                10501
A6601400120000000060711ESPINA III, SIXTO OR                                    10501
A0101412920000000276339HOLAZO, RAFAEL ALEXANDER V. OR                          10501
A0101401250000000460575RACELIS, F DBU COLORADO                                 10502
A0101413440000000702418GARCIA, GREGORIO REY DBU                                10501
A0101400150000000806702DOM ANTONOINE FORTIN OR                                 10501
A0101413310000000863992VICEO, CARLOS ESTANISLAO OR                             10501
A0101409920000000998672MEMBERS OF NATASHA (SHOECAT INC                         10502
A2601400270000001009072MONTEMAYOR, REYNALDO DBU RSM                            10501
A0101400730000001242357FLORES, ERWIN LAGDAAN AND                               10501
A0101408400000001614780ALCID, GRACE ANN B. DBU                                 10503
A2401400180000001677034SINA, SAMUEL DBU HOMEWORLD CURT                         10502
A0101400310211276524001MARIANITO ALEMANIA OR                                   10501
A0101407140213193100002MELITANTE, ROGELIO TAN OR                               10510
A0101406620273475403001DEE, ALVIN YANG OR                                      10502
A3401400280318736732001TERESA A. SANTOS OR MA. AILEEN                          10502
A0201400760374625336001REYES, BAYANI CARLOS                                    10501
A0101408370382205140001DR. PAULA  A. ALONZO OR                                 10502
A0101409210398070116001LUNA, RACHEL ANGELA GONZALES                            10501
A1401400110492046728001TRINIDAD, DBU ANN FLORENCE C.                           10501
A0101411530654736331001LAGUNZAD, JOHN KENNETH OR                               10502
A0101408240711399798006REYMUNDO II, JULIUS CAESAR OR                           10503
A2801400100712019694001LUNTIAN LANDSCAPING AND GENERAL                         10502
A0101406750852296707001SAMSON D. HECITA OR                                     10502
A0101406750852687669001ALVAREZ, PRESENTACION M. OR                             10501
A4101400550000000005950OFFICE FURNITURE                                        20500
A0101401250000000057189ENTERPRISE                                              20500
A6601400120000000060711ESPINA, LYRA FAY                                        20500
A0101412920000000276339HOLAZO, MARIA LIZA B.                                   20500
A0101401250000000460575PRINTING PRESS                                          20500
A0101413440000000702418SUPERMASTER'S INSURANCE                                 20500
A0101400150000000806702MARIA ZENAIDA ANCOG                                     20500
A0101413310000000863992VICEO, AIDA GUILLERMO                                   20500
A0101409920000000998672ALON, CHERRY ANN                                        20500
A2601400270000001009072TRUCKING                                                20500
A0101400730000001242357MA. BELINDA H. FLORES                                   20500
A0101408400000001614780THE DAILY BUBBLE LAUNDRY                                20500
A2401400180000001677034AINS AND INTERIOR DESIGN                                20500
A0101400310211276524001ALEJANDRO CARTAG                                        20500
A0101407140213193100002MELITANTE, MARILYN                                      20500
A0101406620273475403001LAUREL, JOANNA DEE                                      20500
A3401400280318736732001A. SANTOS OR TINA S. ONG                                20500
A0201400760374625336001OR REYES, VIRGIN                                        20500
A0101408370382205140001DR. DANIEL M. ALONZO                                    20500
A0101409210398070116001DBU LUNA MOON PR                                        20500
A1401400110492046728001TRINIDAD-LESSOR                                         20500
A0101411530654736331001LAGUNZAD, NOVETTE REGINA                                20500
A0101408240711399798006REYMUNDO, PIA MYLAH                                     20500
A2801400100712019694001SERVICES                                                20500
A0101406750852296707001JOSEPHINE R. HECITA                                     20500
A0101406750852687669001ALVAREZ, MA. PRECILLA M.                                20500
B3401400280000000002353CHILDFUND INTERNATIONAL, USA DOING                       1603
B0101405940000000002773BT AUTO SPORT CORP.                                      1610
B0101412210000000031461PINTXOS & TAPAS INC.                                     1610
B0101413310000000040024LIBERTAD TRADING CORPORATION                             1601
B0101406620000000193942SOURCEFIT PHILIPPINES INC.                               1601
B0101413990000000206146CHEN KHARECE TRADING CORP.                               1602
B01014071400000002662998FORM CORP.                                              1601
B0301400790000000435727OUR BRIGHT SEEDS, INC.                                   1601
B0101404260000000550252ISOMATIC INC.                                            1601
B0101403580000000922890POSITIVE-SUM BUSINESS SOLUTIONS, INC.                    1601
B0101401700041024357001*****                                                    1603
B0101400150061010838002INFORMATICS COMPUTER INSTITUTE, INC                      1605
B0101400150061028210001GOLDEN DRAGON MOTOR SALES CORP.                          1606
B0101400730111008255001MASAGANA TELAMART, INC.                                  1605
B0101400730111036857001FRC SULO RIVIERA HOTEL CORPORATION                       1606
B0101400730111039230001EASYCASH LENDING COMPANY INC.                            1605
B0101400730111039230002EASYCASH LENDING COMPANY INC.                            1603
B0101406460272020749001EASTGATE COMPUTER CORPORATION                            1601
B0101408820333005955003***************                                          1604
B0101402510341047174001OWEN DREXLER FASHION COLLECTIONS                         1601
B0201400760374032173002MARIANO & SONS MARKETING, INC.                           1605
B0101403320471009043001ABCOR INDUSTRIAL CORPORATION                             1605
B0101403320471047674001MJ COMMODITY FLAVOR & SPICES INC.                        1602
B0101406880513327783001ALPHA SALCEDO CONDOMINIUM CORP.                          1602
B4101400390813019528001MIKUNI ELECTRONICS CORP.                                 1605
B1301400760253047877001TARLAC MAC ENTERPRISES, INC. DBU SAVER'S                11602
B1301400760253047877001DIGITAL HUB                                             21600
B0301400790195821100608**********                                               2001
B1301400210682821100608**********                                               2005
