A0101411790000000005836ILAGAN, ANA LYN PRUNA                                    0501
A1001400190000000016424DE GUZMAN, MARIA ELENA CARPIO                            0501
A0101411080000000026257ONG, CHARLES PRESENTACION                                0501
A0101413020000000038286RAY C. CASTRO, M.D.                                      0501
A0101413020000000038297RICA C. CASTRO, M.D.                                     0501
A0101401700000000040240**********                                               0502
A5501400120000000047203VERE, BONIFACIO OLAGUER                                  0501
A4101400390000000048611JARANILLA - DE JESUS, RIZALIE A                          0501
A0201401020000000055930BELL, ESTELA PAGOBO                                      0501
A0101400440000000060335LYNDEE ANN D. SIA                                        0502
A3001400130000000068240EMPISTO, GENAH JUMAWAN                                   0501
A0601400230000000106234MUNOZ, MYLIN SANTOS                                      0502
A0101409920000000118625DILE, BEBERLYN MUNEZ                                     0501
A1001400190000000124683ABCEDE, CARMENCITA A.                                    0501
A0101404000000000136434LUNDANG, LYNNETH TIGLAO                                  0501
A0101404260000000156814EDMUND OR FILOMENA VILLAMOR                              0501
A0101406330000000162490TARP INK ENTERPRISES                                     0501
A3101400450000000163551ARANGUREN, JUPOLD JAMES                                  0501
A0301400660000000194570DEQUITO, CITZY VENTOR                                    0502
A0301400660000000194581*****                                                    0501
A0101413600000000206755********                                                 0501
A0101404840000000254500SULACITO, ARNEL M.                                       0501
A1301400340000000293674OPENA, SALVE DELOS SANTOS                                0501
A0101403030000000320458**********                                               0501
A0101412890000000371566REY MARK R JIMENEZ                                       0501
A0101414120000000398910REYNOSO, ALMA VILLANUEVA                                 0501
A0101414120000000398972ULDERICO MERCED TRUCKING                                 0502
A0901400220000000425170**********                                               0504
A0301400790000000435932ABARSOLO, THELMA ROSAS                                   0501
A0101401250000000460531ROSCO, EFREN FAJARDO                                     0502
A4101400260000000469329FALCUTILA, MARISSA RAMOS                                 0501
A0101411820000000477258MA. SALLY A. OROCIO                                      0501
A0101411820000000477269ARIEL LLANES AGANON                                      0501
A0101404130000000507431DULAY, ROMERICO HERNAEZ                                  0501
A0101407720000000510723DIMACALI, ROBERTO QUIAMBAO                               0501
A0101408240000000521833SSB CONSTRUCTION                                         0502
A1001400480000000606871RICHFIELD AGRICULTURAL SUPPLY                            0502
A0101414120000000649036VALENTIN, ADELAIDA FLORES                                0501
A1101400120000000652482COMPAYAN, MERCY UGSIMAR                                  0501
A1101400120000000652493BELETA, REBECCA OBAOB                                    0503
A3001400130000000668628CUENCA, EDGAR ESPULGAR                                   0501
A0101406330000000683307**********                                               0501
A0101412050000000697229********                                                 0504
A0101413990000000726603HERRERA, DEBBIE CAJUCOM                                  0501
A0101403320000000735717BAUTO, GUADA LYNNE CASTILLO                              0501
A0101403320000000735739DOMINGO, VELMA RAULE                                     0501
A0101403320000000735860RAMISES S. RACHO                                         0501
A0101401090000000772190DIAMANTE, OSCAR RAGAS                                    0501
A0101405650000000772914PAMINTUAN, MARIFER CABIGAS                               0501
A0101411080000000805652****************                                         0501
A0101400150000000806951JAUCO, CELIA ALCANTARA                                   0501
A0101400150000000806962ESTIAMBA, CORAZON BUENAFE                                0501
A0101400440000000821298DIOBET ERDIE I. DIOQUINO                                 0501
A2401400180000000826113JAMERLAN, CHERRY ROSE PO                                 0501
A4101400260000000828791HAYAG, IMELDA CAPILI                                     0501
A4101400260000000828804SY, JERRY MANOSA                                         0501
A0101414120000000875823RMANTRADE ENTERPRISE                                     0501
A0101414120000000875834GCI TRANSPORT                                            0504
A0101414120000000875845LAGURA II, REGENT ASTERIO G.                             0501
A0101414120000000875890FLB RICE MILL                                            0502
A0101414120000000875914NHOEL JR. CONSTRUCTION                                   0501
A4101400550000000900263DE CASTRO, IMELDA MALABON                                0501
A2001400290000000924298CAYETANO, ISABELITA DERDER                               0501
A2001400290000000924301ESTELLA, MISTY CHELO CAVADA                              0501
A3101400870000000957633LUALHATI, JEFFREY VELASCO                                0501
A3101400870000000957644ALEXANDER, MELODY LICYAYO                                0501
A0101408400000000960407PANCHO, NEMIE VI BEARE                                   0501
A0601400230000000990023BOGNOT, ANSELMO CADIANG                                  0501
A0101411240000001026817LAGURIN, AIRA ONA                                        0501
A0301400820000001027810MANIMOG, JOSEPHINE M.                                    0501
A0301400820000001027821VILLANUEVA, RADO C.                                      0501
A0101407430000001028740RYAN B. SANTOS                                           0501
A0101402640000001054164GONZAGA, SUSANA GALGUERRA                                0501
A0101413310000001073443CORDERO, JONATHAN CAUTON                                 0501
A0101400860011376202002**********                                               0502
A0101400860011415528001***********                                              0502
A0101400860011479962001**********                                               0502
A0101400860011572208001**********                                               0501
A0101400860011634071001**********                                               0505
A0101401700041031841001**********                                               0510
A0101401700041189061001RIZAL SMILEY TAN OR YA YUN TAN                           0502
A0101411080042190272001BRIAN DIAZ                                               0501
A0101400150061226134001ANECTO C. TORREFRANCA                                    0501
A0101400150061227144001BENJAMIN CHUA OR SIRENE CHUA                             0501
A0601400100081028046001TANDEM INTERIOR DESIGN STUDIO                            0505
A0101406040112278057001MA. TERESA B. CHAN                                       0501
A0101401960121348042001YAP, HELEN SY                                            0501
A0101400440161478374198EUFRONIA I. BERGONIA                                     0502
A0101400440161525001115EVA D. SAMILLANO                                         0501
A0101407270162333006037JANNET OROSCO LOCSIN                                     0501
A0101407270162629922001EVELYN B. DEMURA                                         0503
A0101407270162770709001MARTIN WILLISON U. REYES                                 0501
A0101401090171196083001FR. FREDERIK FERMIN O.P.                                 0501
A0301400660194759587001*****                                                    0501
A0101400310211472618001ORTEZA, MELISA DUCABO                                    0501
A0101400310211478374065MARIVIC DELA PAZ                                         0501
A0101400310211478374093ANITA F. CANON                                           0501
A3101400160221478374030ANALYN A. RICO                                           0501
A1001400190231520766049JOCELYN S. LLUBIT                                        0501
A1901400290261360285001CEFERINA MENDOZA MARQUEZ                                 0501
A1901400290261493025097DR. HEDDA M PARRENAS                                     0501
A1901400290261538304001OFELIA HIPOLITO LANDICHO                                 0501
A0101400570281189114001DANILO OR LORRAINE FELICIANO                             0510
A6601400120314041602001LEXTAN GENERAL MERCHANDISE                               0502
A2001400290315771486001MIOLE, CARLITO TOLIBAS                                   0501
A0101408820333571471001CANETE, MIRAFLOR MILITAR                                 0501
A0101402640361478374004MARYLANE P. PABELICO                                     0501
A0101402640361478374042FABIA, MERCELITA                                         0501
A0101402640361478374054MARIANO BALANCIO                                         0502
A0101402640361478374074MARIANO, LOLITA MIRANDA                                  0501
A0101411660384659794001RICHARD P. USITA                                         0501
A0101408950396501550002ANDREW POBLETE                                           0501
A0101403320471235198001*****                                                    0501
A0101403320471442993001RUBY-MAE R. BOSTRE                                       0501
A0101406330472566475001MICHELLE A. MACALINAO                                    0501
A1901400160491546773001IRENEA M ERLANO                                          0501
A0101404130601450094003LORQUEL OR ANNIE PASCUAL                                 0503
A0101407720602295336001AGUIRRE, ANGELITA MIGUEL                                 0501
A0101407720602396498002CAPISTRANO, MA. EVELYN TORRES                            0501
A0101407720602396506002DR. ESTELA Z. CABRERA                                    0501
A0101407720602401936001CORDOVA, MA. CECILIA HITOSIS                             0502
A0101404260611150835001HENRY OR LAI SHA CHING                                   0504
A0101404260611338813001CASTILLO, ALREZEL ROBLES                                 0504
A0101404260611478374115FE S. BONDOC                                             0501
A2801400100712039498002VECTOR PEST CONTROL                                      0502
A2801400230713243636001PARAISO, JOCELYN A.                                      0501
A4101400260812047982001ROYAL RED ENTERPRISES                                    0502
A0101404840851424338001PAMITTAN, MYRNA M.                                       0503
A0101404840851478374041JAVIER, LOVENIA B.                                       0502
A0101404840851520766065TAYSON, FERNANDO                                         0502
A0101404130000000001361VILORIA, REMEDIOS ONDRA OR                              10502
A6601400120000000060795ALCAZAR JR., CESAR GIBA DBU                             10501
A1901400160000000243605ADRIAN  DANIEL GUTIERREZ ABU OR                         10501
A0301400790000000435994TE, FREDE KUI OR                                        10502
A0101407430000000447089EMERLITA S. LLAMAS OR                                   10501
A0101404000000000461152DELOS SANTOS JR., MART DE VERA                          10501
A4101400550000000506949MARQUEZ, CEZAR BAUTISTA OR                              10501
A1001400480000000606882JADAP, M DBU EMC PLANTING                               10501
A1101400120000000652500UY, TINONG Y. OR UY, BELINDA C.                         10501
A4101400550000000900372ALFORTE BUSINESS CONSULTANCY                            10501
A3101400870000000957622BALITE, G DBU BGT FOOD                                  10501
A0101402640000001054153MAGAT, FRANCISCO GARCIA OR                              10501
A0101407270162163292001ANICETO P. GO                                           10502
A1001400190231273298001NORTH CENTRAL MINDANAO DISTRICT                         10505
A1901400290261300731001ESMERALDA MEDINA VISTAN OR                              10505
A0101409050352600066001FAYE CARLIE TUAZON OR                                   10501
A0101402640361168560001RICARDO OR CARMELITA                                    10504
A0101402640361538595001ALCABEDOS, IVY SOLIVEN   OR                             10501
A0201401020377046499001TEH, MARIA ELENA BLANCO DBU                             10505
A2401400180411042264001CHUCK CONSTRUCTION &                                    10501
A2401400180411478374061JUNRES AGAD OR                                          10501
A0901400220432746180001ARCILLAS, ESTER G. OR                                   10503
A0101403320471205738001REBECCA MENDOZA OR                                      10501
A0101404130601473160001VASQUEZ, CATHERINE JOY AGUIRRE                          10503
A1301400210682356262001MIGUELITA M. VINTA OR                                   10501
A0101408240711170768001MELISSA O. SIMPAO OR                                    10501
A0101404130000000001361VILORIA, EDUARDO C                                      20500
A6601400120000000060795INK FOR CARE & SERVICES                                 20500
A1901400160000000243605WILYNN MATULIN BALUTE                                   20500
A0301400790000000435994TE, KAREN ESTRELLA                                      20500
A0101407430000000447089EPIFANIO F. LLAMAS II                                   20500
A0101404000000000461152OR DELOS SANTOS, ROWENA                                 20500
A4101400550000000506949MARQUEZ, ZENAIDA MOLO                                   20500
A1001400480000000606882MATERIALS AND GEN MERCHAN                               20500
A1101400120000000652500UY, STEPHANIE GRACE C.                                  20500
A4101400550000000900372SERVICES                                                20500
A3101400870000000957622ESSENTIAL CATERING SERVIC                               20500
A0101402640000001054153MAGAT, CONCHITA M.                                      20500
A0101407270162163292001OR MILDRED GO                                           20500
A1001400190231273298001COUNCIL                                                 20500
A1901400290261300731001RICARDO LIM VISTAN                                      20500
A0101409050352600066001BENSON RYAN CRUZ                                        20500
A0101402640361168560001DELOS SANTOS                                            20500
A0101402640361538595001ALCABEDOS JR., PRUDENCIO                                20500
A0201401020377046499001E.T. PRINTSHOPPE                                        20500
A2401400180411042264001ENG'G. WORKS                                            20500
A2401400180411478374061NORMELITA BLANCO                                        20500
A0901400220432746180001ARCILLAS JR., OSCAR C.                                  20500
A0101403320471205738001FLORANTE MENDOZA                                        20500
A0101404130601473160001OR VASQUEZ, AGNES AGUIRRE                               20500
A1301400210682356262001SOLOMON T. VINTA                                        20500
A0101408240711170768001RAFAEL F. SIMPAO                                        20500
B0301400660000000022904POROCO INDUSTRIES CORPORATION                            1603
B0101406620000000193942SOURCEFIT PHILIPPINES INC.                               1601
B0101414120000000399133Q CLEAN LIVING PHILS. CORP.                              1601
B0101414120000000399140AL3 HOLDINGS CORPORATION                                 1601
B0101414120000000399151POWER PULSE, INC.                                        1602
B0101414120000000399162DEVERDE INTERNATIONAL COMPANY                            1605
B0101414120000000399173VERLIN KONSTRUKT INC.                                    1605
B0101414120000000399184CANTILEVER CONSTRUCTION CORPORATION                      1604
B0101414120000000399202GREEN ARKKA CHOICE SERVICES INC.                         1601
B0101406330000000432608FULRUBELL CORPORATION                                    1601
B0101404680000000697872GABRIEL D. BAQUIRAN                                      1601
B0101401250021006948003PANGARAP FOUNDATION, INC.                                1602
B0101400150061010845001LUCY PROPERTIES, INC.                                    1602
B0601400100081025784001QUANTA PAPER CORPORATION                                 1610
B0101400440161015324003RADIANCE OF CHRIST MINISTRIES INTER                      1601
B0101401090171031978001STUDIO 234 GRAPHICS & DESIGN                             1601
B0101400310211031083001XXX                                                      1602
B0101400310211031469001SWITCHTEK CONSTRUCTION CORPORATION                       1604
B0101400310211537622001CREATIVE DISHES & RECIPES INC.                           1601
B0101407140213038539001GJKIDS SALES AND DEVELOPMENT INC.                        1606
B1001400190231336026001ESLIT, RODILLO BAYRON                                    1604
B1001400350233041261018CENTRO SUPERSALES INC.                                   1610
B0101406460272024042002THE ASCENDURE CO. INC.                                   1601
B0101411240283792335001**********                                               1602
B0101408820333036150001MIATSU TRADING                                           1603
B0101402640361675696001STPPC INC.                                               1603
B2401400180411033214001RD CASH PADALA, INC.                                     1602
B0101403320471035758001***                                                      1603
B0101403320471206926002LOLITA B COLINA                                          1601
B0501400170481016209001DAGUPAN FILCO MERCHANDISING                              1602
B0501400170481018109002****                                                     1603
B1901400160491012917001ALPS THE BUS INC.                                        1610
B1401400110492031376001LUCENA WHEELER ENTERPRISE INC.                           1601
B0101407430503006854003CARGO DATA EXCHANGE CENTER, INC.                         1602
B0101407430503024221001FINE ARTS INTERNATIONAL PHIL., INC.                      1603
B0101405940512030961001STARWORLD CORPORATION                                    1610
B0101405940512031122001SOLIDGROUP TECHNOLOGIES, CORP.                           1610
B0101406880513281235002LUCKY MONEY LENDING CO., INC.                            1603
B0101404000551700890001HEADLAND ROAD CAPITAL INC.                               1602
B0101404130601030838001ELEV 8 MEDIA, INC.                                       1605
B0101404130601037502001JS PHILIPPINES GLOBAL CORPORATION                        1602
B0101404260611018794002HAVEN MONTESSORI, INC.                                   1601
B0101409890649012116001ISE (PTE) ENTERPRISE, INC.                               1605
B1301400340683042060001CHESTERSHIRE REALTY CORPORATION                          1602
B0101408240711025397005KINGSMEN CORPORATION                                     1605
B0101408240711637150001*****************                                        1601
B2801400100712015318001SEAWAY FILIPINAS LOGISTICS INC.                          1602
B2801400100712046914001IREC CORPORATION                                         1602
B0101411240000000012095SKILLS FOR KID'S INDEPENDENCE, LEARNING                 11601
B0601400360083037368002CLARK INVESTORS AND LOCATORS ASSOCIATION                11603
B0101406330472027929001STO. TOMAS DE VILLANUEVA PAROCHIAL                      11602
B0101404130601100133003SCORPIO TRANSPORT & MANNING SERVICES,                   11602
B0101411240000000012095& LIVING SCHOOL,                                        21600
B0601400360083037368002(CILA)                                                  21600
B0101406330472027929001SCHOOL                                                  21600
B0101404130601100133003INC. - VESSEL                                           21600
B0101401700041821100608**********                                               2005
B0101400440161821100608**********                                               2003
