A0101411240000000012040CHUA, MICHAEL LI                                         0504
A0101411950000000036342ARESGADO, JEANIDA CABILLAN                               0501
A0101407270000000043518ANTZ ADVERTISING                                         0502
A1301400760000000050466GIL P. MENDOZA II                                        0504
A0101406750000000090628ENDAYA, ELEN ROSS CALONG                                 0501
A0101407720000000112158CHUA, JEFFREY LIM                                        0502
A4101400420000000120856NAPILI, EMELY DACOYCOY                                   0502
A0101408110000000202804GARCIA, GRETCHEN ARAGON                                  0501
A0101408790000000599960BARRAIRO, ERINILLO CARILLA                               0501
A4101400420000000710552GEOCADA, ANTONIA                                         0501
A0101410690000000710621MALLARI JR., RO DBU ROMA PRINT                           0501
A0101405070000000868599DE JESUS, DESIREE DELA CRUZ                              0501
A1001400350000000922058ARENO, ANN JANE BUCO                                     0501
A1001400350000000922190RIVERA, JACKIE LOU VILLAROYA                             0502
A0101408240000001038722AGUIRRE, MATHILDA ELAINE                                 0501
A0101408110000001165873LAY BARE WAXING SALON                                    0501
A0101411820000001356161GEORGE V. CANSECO III                                    0501
A0101413440000001472993RAYOS, DIVINA PERET                                      0501
A0101401090000001618997GADIANA, LENY GUTIERREZ                                  0501
A3401400280000001723422DORDAS JR., WILLIAM LONGNO                               0501
A0601400520000002085850ALBROS CARGO                                             0501
A0101408400000002273241MAXIAN, JORDAN DELFIN                                    0504
A0601400360000002282180GRAVAMEN, MARIO CARGAR                                   0501
A0101407430000002298202JENNYLYN A. CAPUL                                        0502
A0101411400000002301171ANG, JANET DELA CRUZ                                     0501
A3401400280000002323411ALOVERA, REY DECAIN                                      0502
A3101400160000002355773OFELIA M BANAAG                                          0502
A0101406750000002788972ALBA, KRISTINE JOY ROQUE                                 0501
A0301400530000003088037PADILLA, SORAHYA PRIETO                                  0501
A0101400860011581564001**********                                               0502
A0101400860011615415001**********                                               0502
A0101401700041079722001********                                                 0502
A0601400100081256596001CALAGUAS, CORAZON OR FRANCISCO                           0501
A0101406040112684740001***********                                              0501
A0101407270162333006014CARLOS R. VILLEGAS JR.                                   0501
A0101407270162428027002EMERSON M. VIUDEZ                                        0501
A0101407270162607219001KAREN K. LI OR EUGENE Y. LI                              0502
A0101401090171197551001EMELITA P. SAMALA                                        0501
A0301400530193551320168SO, MARIA CARMEN F.                                      0503
A0301400660194498945088*******                                                  0501
A0101407140213408994002**********                                               0502
A0101407140213485140001**********                                               0501
A3001400130230767566024SHEREE O. LIM                                            0501
A1001400350233095700001REBUSORA, RUE ALEJANDRA                                  0501
A0101406620273038576001VENTURE 11 FOODS EXCHANGE                                0502
A0101406620273311311001JERRY PEREZ &/OR ROLLY PEREZ                             0505
A0101400570281527773001CARANDANG, RICHARD DANTE LOPEZ                           0501
A0801400160311478374093AMELIA H. TAYCO                                          0501
A0801400160311638278001DE ARROZ, ELMA SAMPIANO                                  0502
A6601400120314667092001ARGENIO, NORA SAYDE                                      0501
A0101405650322016510001WIL-LYS CEREAL TRADING                                   0505
A0101402510341199103002********                                                 0502
A0101402510341417224001NEILIA A. BALANON                                        0501
A0101402510341432796001SARET, BERNARDETTE LEVISTE                               0501
A0101402640361033158001CITIHOMES REALTY, INC.                                   0502
A0201400760374705541001FELICEN, CARLITO                                         0501
A0201400920375504647001**********                                               0502
A0101402930381381233001LEAH LIZETTE M. ESGUERRA                                 0501
A0101402930381535952001JUSTO M. ORROS                                           0502
A0101408370382527801002PHILIP LANCE ANTHONY A. LIU                              0501
A0101408790383760301001BATARA, EDIMER CALAPUTOC                                 0501
A0101408400394478374090MARY DUMASLAN                                            0501
A2401400180411075579001JALALAGTOY, MARVIN SUAREZ                                0501
A1901400160491034372001FIESTA HOME CENTER (FHC) CORP                            0505
A1401400110492222049001AMORSOLO S. NIEVA                                        0508
A0101407430503044461001GMC CARGO SERVICES                                       0501
A0101403450521238185001********                                                 0502
A0101403450521513902001LIM, LE LING                                             0503
A0101404000551402437001PROSPERO, THEA CHRISTINE SARINA                          0502
A0101404000551665522001VILLANUEVA, CYRUS ABELLA JT                              0502
A0101407720602200210001EDITHA C. DIZON                                          0501
A0101404420631040228001DGPRINT ADVERTISING CO.                                  0501
A0101406590662478374008CARMILITA C. LEYSA                                       0501
A0101406590662679888002*****                                                    0501
A4101400260812075947001PARADERO, CHARISSE SITCHON                               0501
A4101400420814298552026JOSEFINA FERNANDEZ                                       0502
A4101400420814520766012SUSAN B. MALBOG                                          0501
A4101400420814520766056MULIG, ESTER R.                                          0501
A0101404840851520766155JOSEFINA VERGARA                                         0501
A0101406750852478374027ELENA HINUNANGAN                                         0501
A6601400120000000060795ALCAZAR JR., CESAR GIBA DBU                             10501
A0101411660000000109271JOSE GLEN Y. DE LA ROSA OR                              10501
A1001400480000000606791WILCARE TRANSFORMER AND                                 10501
A1301400760000001295552DIAMOND GRAIN                                           10502
A0101406040000001392018BERNARDO JORGE B. MITRA OR                              10503
A0101401090171196028001LEONARDA NARANJILLA OR                                  10501
A0101406620273505530001MANDANAS, NOEL MOTTIL OR                                10501
A0101406620273510020001DELA CRUZ, VINCENT APOSAGA OR                           10501
A0101405650322172123001CHAM, HECTOR V. OR                                      10501
A0101409050352717261001MARIA KATRINA JESSICA M.                                10502
A0201400890376056207001MARDZ AIRCONDITIONING SUPPLY &                          10501
A0101408370382493699002DRS. ROMMEL P. TOLENTINO OR                             10501
A0101412760476047778001GAKO, CRISTINA LLANERA DBU                              10503
A1901400160491641033001ULYSSES M CHAVEZ OR                                     10501
A4101400260812552047001SALAZAR, DARRYL OPEDA OR                                10501
A6601400120000000060795INK FOR CARE & SERVICES                                 20500
A0101411660000000109271ROEL S. CONCEPCI                                        20500
A1001400480000000606791ELECTRICAL SERVICES                                     20500
A1301400760000001295552AGRICULTURAL TRADE                                      20500
A0101406040000001392018SHARON LESLIE M. MITRA                                  20500
A0101401090171196028001RAYMUND NARANJILLA                                      20500
A0101406620273505530001CO, NANCY M.                                            20500
A0101406620273510020001SAGUENZA, EMERLIZA P.                                   20500
A0101405650322172123001CHAM, MA. MAGDALena                                     20500
A0101409050352717261001GALLEGOS                                                20500
A0201400890376056207001SERVICES                                                20500
A0101408370382493699002LAARNI B. TOLENTINO                                     20500
A0101412760476047778001KRANECOM ENTERPRISE                                     20500
A1901400160491641033001LETICIA M CHAVEZ                                        20500
A4101400260812552047001SALAZAR, EVANGEL                                        20500
B1301400760000000007121GLOBAL CARS PHILS., INC.                                 1605
B2801400230000000008346AESTHETICA ASIA MEDICAL SPA CORP.                        1605
B0101400860000000030268**********                                               1605
B0101408660000000034302EDGECOMM INC.                                            1602
B0301400660000000194934WEST JBT RESTAURANT GROUP CORPORATION                    1610
B2801400230000000372729KRJ TRADING                                              1601
B0101410560000000757233PHARMACOPOEIA CORP.                                      1605
B0101401700041017100001ECL INTERGROUP, INC.                                     1602
B0601400100081037698001REPROCRAFTERS, INC.                                      1602
B0101401090171008456001UST-USTFU FACULTY HOSPITALIZATION FUND                   1605
B3101400160221033214001RD CASH PADALA, INC. AREA 02                             1601
B0101401670271026611001MERGE MARKETING STRATEGISTS INC.                         1602
B2601400270302039811001JOWELLES AUTO PARTS, INC.                                1605
B0801400160311043928001DELIFRANZ BACKEREI, INC.                                 1602
B0101409050352031160001CAPITAL INDUSTRIES, INC.                                 1605
B0101403450521011964001THE CHURCH IN QUEZON CITY                                1603
B0101404130601030412001EXODUS BROADCASTING COMPANY, INC.                        1605
B0101404130601030838001ELEV 8 MEDIA, INC.                                       1605
B0101413570656056048001SATRE TECHNOLOGY RESOURCE DEVELOPME                      1601
B0101406590662043490001CARMEL MKTG & TECHNOLOGY CORP.                           1602
B0101406750852041203001AUTOCIRCULO CORP.                                        1610
B0201400920000000047852SAN REMIGIO LOGISTICS & EQUIPMENTS                      11601
B1101400120000000652937SALINAS, ANTONIO DELA CRUZ AND                          11605
B0101407270162019023001PHILIPPINE BATTERIES,                                   11610
B0201400920000000047852CORPORATION                                             21600
B1101400120000000652937LLAGA, DAVID S.                                         21600
B0101407270162019023001INCORPORATED                                            21600
