A0101411110000000009134**********                                               0502
A0101407270000000010106DENIS RICARDO LUCINDO                                    0501
A0101400570000000031847MERCEDES L. LAUREOLA                                     0502
A0601400100000000032500LACSINA, MARVIN OR CHERYLLAD                             0501
A0101406590000000035441DIZON, ROMULO ENRIQUE MANGA                              0503
A0701400260000000041038SOBRINO, MARIBETH BALUCA                                 0502
A0101400150000000053012ABRAM C. GIDUCOS                                         0501
A0201401020000000056233BIG ATIN TRADING                                         0504
A0101413730000000144761****************                                         0502
A0101412760000000208659LEMONCITO, JEAN PANCHO                                   0501
A0101402480000000310669**********                                               0501
A0101402060000000358769DIEGO, CRESENCIA VITALISTA                               0501
A0101409890000000437472GATBONTON, LANA MARIE CO                                 0501
A0101411950000000490868ABRAJANO, JONALYN CORNELIO                               0501
A1601400170000000497489CROWN PARK RESTAURANT                                    0505
A4101400390000000500563LAPUEBLA, MARIMIN ABAD                                   0502
A0101412470000000520250**********                                               0501
A0101408240000000521793ROMERO, GHIE MARIN                                       0501
A1901400320000000679250RUEL FLORES ILAO                                         0501
A0101404840000000683494JOEBERT CORNEJO                                          0501
A4101400420000000710154LACERNA, ADELFA                                          0501
A0101410850000000778849FONTELERA, NIZZAN ALIH                                   0501
A0601400100000000786530DEL MANDO, FLOR MAURA MICLAT                             0501
A0101401380000000792132********                                                 0501
A0101402060000000793886CRUZ, CRIS HERBERT MARTIN                                0501
A0101400150000000806906DE LEON, CAROLINE TUAZON                                 0501
A0101407270000000818359DARYL ANN J. PONCE                                       0502
A0101412470000000853834**********                                               0502
A0101404420000000866519ELPEDES, ROBERTO NOLASCO                                 0501
A0101413020000000880319BUNALES, RODELITO RAMOS                                  0502
A0101401250000000907131PERICO, AURORA ATIENZA                                   0501
A2801400230000000937639RAYMUNDO, VILMA JARIEL                                   0501
A0101400860000001005478***************                                          0502
A0801400160000001031376GEROCHI, ROMEO PASQUIN                                   0501
A1001400190000001057545JAIME C. BEDRO                                           0501
A0501400170000001072786PALAGANAS JR., DIONICIO MANINGD                          0501
A0501400170000001072797REYES, CARLITO MANUEL                                    0501
A0101402480000001099623*******                                                  0510
A4101400260000001135051MEDINA, JONA JADE ELE                                    0501
A0101408400000001213494ALIM, MOHAMMAD DOMAGAY                                   0501
A0101406460000001231521**********                                               0501
A0101411950000001272964JUDEL F. MINON OR ALVI H. MINON                          0501
A0101411400000001280342MENDEZ JR., OSCAR EDWARD CATOLI                          0501
A0101411400000001280353SALAMAT, CLOYD DAIRO                                     0501
A0101406880000001286733BENGUA, MARICEL ECHANOVA                                 0501
A0101413150000001288319******                                                   0501
A0101412180000001293210GANOTICE, OLIVIA MORENO                                  0501
A0101411820000001356485GLICELL B. PALMARIA                                      0501
A0101405650000001377226KRISTOFFER JOHN A AVELINO                                0502
A0101412760000001399259ROSALES, ROBIN CORPUZ                                    0501
A0101401380000001412491TUANIO, TERESA ESGUERRA                                  0501
A0101401380000001412680TORRES, RONNIE CABRERA                                   0501
A0101408790000001486233***                                                      0501
A0101408790000001486240MANAHAN, MARK DEXTER V.                                  0501
A0101406750000001491932CASTILLO, ALEXIS VILLANUEVA                              0501
A0101409920000001539522CEDENO, NOEMIE DEDICATORIA                               0501
A2201400250000001545568JOHN RYAN P. DIZON                                       0501
A0101402480000001562061CHAINGAN, MARILEN FERNANDO                               0501
A0101408400000001614762CEDENO, NOEMIE DEDICATORIA                               0501
A0101408400000001614819EVAN KYLE'S BOUTIQUE                                     0501
A0101414090000001669645********************                                     0501
A0101400150000001707819FERRER, JANE CREENCIA                                    0501
A3101400870000001712141WAYWAY JR., JAMES OSDONG                                 0501
A1701400230000001786683ULEP, FLORIEVEL                                          0501
A0101412630000001823230CUNANAN, AILEEN SANTIAGO                                 0502
A0101408400000001835150YU, CHUNHUA                                              0502
A0101400860011086656001**********                                               0503
A0101400860011388186002TAN, MYRNA MENDOZA                                       0502
A0101400860011391589003**************                                           0502
A0101400860011393568001***********                                              0502
A0101400860011400861002**********                                               0505
A0101400860011463630001**********                                               0505
A0101400860011467674001**********                                               0501
A0101400860011483241002**********                                               0506
A0101400860011520766001NUNEZ, SUSAN SANTIAGO                                    0502
A0101400860011523266001**********                                               0501
A0101400860011551733001MARIA TERESA S ESTANDARTE                                0502
A0101400860011596360001**********                                               0503
A0101400860011643795001**********                                               0501
A0101400860011685244001BANDIOLA, SIDNEY MORALES                                 0501
A0101401700041046244001R.D. AUTO PARTS & SERVICES                               0520
A0101411080042289624001******                                                   0501
A0101400150061231578001GEMMA L. AGANAD                                          0501
A0101400150061337010175JOSEFINA GOOCO                                           0501
A0101400600071457180001**********                                               0501
A0101400600071672958001*********                                                0501
A0101400600071684249001******                                                   0503
A0101401960121240673001*************                                            0501
A0101407270162333006034RUFINA M. CALDERON                                       0502
A0101401090171196101002GREGORIO OR MARISSA DIZON                                0501
A0101401090171197481002MA. NOEMI OR ELIEZER SALAZAR                             0502
A0101401090171331630001MARIA ARCELI G. MAGSINO                                  0501
A010140138020103504200183EM ENTERPRISES                                         0506
A0101401380201508360001SAN JOSE, ROSIE DATO                                     0502
A0101401380201606146002ANGELES, SONNY BOMBITA                                   0502
A1001400190231478374086LORNA A. OMANDAM                                         0502
A1001400190231520766051NANCY DAAYATA                                            0501
A0101401670271423175001ANDREW L. AGUIRRE                                        0501
A0101401670271508917001FAVILA, KARL BENEDICT REYES                              0501
A0101400570281501253001ROLAND DOMINIC G. JAMORA                                 0501
A2601400270302567275001CESARIO OR GEMMA OH                                      0503
A0801400160311478374034ROSEMARIE R. TUBIANO                                     0502
A0801400160311494221001JUCABAN, LEO LAGOS                                       0501
A0101402480331426674001ONG, JOCELYN CHAN                                        0501
A0101402480331520766027CABRELA, SUSAN PANOTES                                   0501
A0101402480331520766035RICHARD DE REAL                                          0501
A0101402060351768348001CUSTODIO, MARIA CARMELA CALLOS                           0501
A0201400760374507932002******                                                   0501
A0101408790383633624001JIM STENIEL TAN GAWSON                                   0502
A0101408400394031949001ROBIMIKO ENTERPRISES                                     0503
A0101408400394037996001*******                                                  0501
A0101408400394540527001REMO, MARIA LAYA                                         0501
A0101408400394550155001GATPAYAD, JHOANA VISTA                                   0501
A2401400180411320270002SALARDE, GLORIA TIMKANG                                  0502
A2401400180411620777001DUMALAG, MARIA TUYOC                                     0501
A0101403030441239092001**********                                               0502
A0101403030441401301002**********                                               0501
A0501400170481478374004RAMOS, GINA M.                                           0501
A1401400110492458408001ZAPATA, EULALIA GARAY                                    0501
A0101407430503084195001SHERWIN A. TACHADO                                       0501
A0101403450521392545001NANETTE CHRISTY Y. ONG                                   0501
A0101404000551377329001MONTENEGRO, ROSALIE ROTH                                 0502
A0101404260611150902001MARITESS OR BERNARD PAMA                                 0501
A0101404420631478374128MELINDA A. DELOS SANTOS                                  0501
A0101409890649748239001**********                                               0506
A1301400210682722987001******                                                   0505
A0101408240711427132001SORIANO, AVELINA OR REYNALDO                             0501
A4101400260812681817001VICEDO, ERMINDA VILLAFLORES                              0501
A4101400390813378814001GIGI D. ABOGADO                                          0501
A4101400390813569960001CHACON, MARIA CYNTHIA SALILICAN                          0501
A4101400420814520766013CORTEZ, MARJORIE P.                                      0502
A4101400550815478374009TERESA COMEDIA                                           0501
A0101404840851213312001MARQUEZ, THELMA P.                                       0502
A0101412340000000031136VILLACORTE, BIENVENIDO L. OR                            10502
A1001400190000000124650MINDANAO GOLDEN GRAINS                                  10501
A0101409920000000857990QUIZAN, ROMANA C. OR                                    10501
A0101404420000000866508ROSEMARIE CATHERINE S. OCAMPO                           10501
A0101413020000000880393CUARESMA, PEDRO DORIA DBU:839                           10501
A0101411110000001036811PEARL JOY U. BANGAYAN OR                                10501
A1601400170000001068611JASON F. ARCANGEL OR                                    10501
A1301400470000001299032ARNOLD PASCUAL OR JAYSON CANDEL                         10501
A0101405070000001456184GUTIERREZ, RIA MARIE LUPISAN OR                         10501
A0101408400000001614808PANDAYAN FURNITURE AND                                  10502
A0101403320000001646711REODICA, TRINIDAD PRIMITIVA                             10501
A2401400180000001677023METRO GENSAN HARVEST CHRISTIAN                          10502
A0101407270162524638001BENJAMIN G. ALCARAZ OR                                  10502
A0101401090171543197002MARY DIANE S. REYES OR                                  10502
A1001400190231380503001JANA JOY TUSALEM                                        10502
A0101400570281366194002DR. DINA M. PERALTA OR                                  10502
A0101405490392514069001RAUL E. DE LEON OR                                      10501
A0101408400394159787001MANGIBIN, DELFIN OR ALTHEA                              10501
A0101408400394422951001PINEDA, HILARIO P OR PINEDA,                            10501
A5501400120410633082001TAPALES, MARILOU OR TAPALES,                            10502
A0101407430503230734001ROLANDO T. REYES OR                                     10501
A0101407720602165250005CAROLINA ABESAMIS-DRILON OR                             10501
A0101404420631659319002NARUSHIMA, JASMIN CAPULE OR                             10501
A0101406590662036406001RODRIGUEZ, RACHEL DBU RED                               10503
A0101412340000000031136VILLACORTE, ADELINA C.                                  20500
A1001400190000000124650CORPORATION                                             20500
A0101409920000000857990GORRE, RODELYN Q.                                       20500
A0101404420000000866508OR DR. RAUL C. OCAMPO                                   20500
A0101413020000000880393MACHINE WORKS                                           20500
A0101411110000001036811JULIET U. BANGAYAN                                      20500
A1601400170000001068611PORTIA JOHANNA G. DURAN                                 20500
A1301400470000001299032ARIA OR ROCKY HIPOLITO                                  20500
A0101405070000001456184NAZARENO, DOMINIC E.                                    20500
A0101408400000001614808SASH FACTORY                                            20500
A0101403320000001646711JOSE                                                    20500
A2401400180000001677023ACADEMY, INC.                                           20500
A0101407270162524638001MARIA LERISSA AL                                        20500
A0101401090171543197002CRISTINA R. ADAL                                        20500
A1001400190231380503001PHILAMCARE DOCTO                                        20500
A0101400570281366194002DR. FRANCISCO PERALTA                                   20500
A0101405490392514069001CAROLINA G. DE LEON                                     20500
A0101408400394159787001MANGIBIN                                                20500
A0101408400394422951001CARMELITA P                                             20500
A5501400120410633082001AMADO                                                   20500
A0101407430503230734001ALETA F. REYES                                          20500
A0101407720602165250005CHRISTIAN DRILON                                        20500
A0101404420631659319002CAPULI, TERESA I                                        20500
A0101406590662036406001ROASTER GOURMET FOOD                                    20500
B0101411110000000009098NET4SITE PHILIPPINES INC.                                1602
B0101405650000000012933CASTLE MERCHANTS AND HAULAGES INC.                       1602
B0101412760000000032004TIGER EYES SECURITY SOLUTION INC.                        1603
B0101413280000000041881ANDY C. YU DBU TOP HILLS METAL TRADING                   1602
B0101402480000000045667*************                                            1601
B0101406460000000182410OFFICE DEPOT CORPORATION                                 1601
B0101413600000000206915LEGEND OF ICE RECRUITMENT & SERVICE                      1601
B0101411400000000230264EVERVOLT ENTERPRISES CO., LTD                            1602
B0101407140000000266288AUDIO-VIDEO SOLUTIONS CORPORATION                        1601
B0101402480000000310385QUALIGEN PHARMACY CORP.                                  1603
B0101403580000000383846MANDAUE SPEED LOGISTICS INC.                             1602
B0101413730000000469734L.Y.S. HARDWARE & INDUSTRIAL SALES                       1605
B0101404260000000550270SAMACO, VIRGINIA FAVIS                                   1601
B0301400950000000566934YUMCHAY VENTURES CORPORATION                             1620
B0101402480000000794361QUALIGEN PHARMACY CORP.                                  1603
B0101402480000001100052PRA MANPOWER AGENCY                                      1602
B0101402480000001562090QUALIGEN PHARMACY CORP.                                  1603
B0101402480000001562107QUALIGEN PHARMACY CORP.                                  1603
B0101402480000001562118QUALIGEN PHARMACY CORP.                                  1603
B0101400860011023116001**********                                               1601
B0101400860011242516001*********                                                1603
B0101400860011374845003**********                                               1601
B0101401250021185567001STA. CLARA PARISH SCHOOL                                 1605
B0101400150061010612001INTERNATIONAL ELEVATOR & EQUIPMENT                       1605
B0101400150061044750001ASIA PACIFIC CHARTERING PHIL., INC                       1602
B0601400100081393742001DECLARADOR, GENOVEVA OR KRISTIAN                         1604
B0101400440161043713001COMMANDER SECURITY SERVICES, INC.                        1602
B0101401380201006666001AR NICOLAS MACHINE SHOP                                  1601
B0101401380201034247001HOBBIES OF ASIA INC.                                     1604
B0101400310211021165001FIL CONCEPT INC.                                         1605
B0101400310211027988001*****                                                    1602
B3101400160221025078001FUKAI RUBBER PHILS. INC.                                 1601
B0101401670271657140001NIC'S GOURMET DESSERTS, INC.                             1610
B0101406460272041570001ERMITA GAS CORPORATION                                   1602
B0101406620273033463001ARL BUSINESS CONSULTANCY, INC.                           1603
B0101408660274035236001ROMAGO INCORPORATED                                      1610
B0101400570281007593001KINGSFORD ENVIRONMENTAL PHILS INC.                       1602
B0801400160311014846001CITI APPLIANCE CORPORATION                               1612
B0801400160311267111001CHRIST THE KING MEMORIAL PARK, INC.                      1608
B0101405650322043924001THE PALMRIDGE SCHOOL INC.                                1602
B0101402480331010347001****                                                     1605
B0101402480331031292001GREEN PADDLE EQUIPMENT INC.                              1602
B0101402480331033229002TGP DRUGSTORE                                            1603
B0101402480331033229005TGP DRUGSTORE                                            1603
B0101402480331033229014TGP DRUGSTORE                                            1603
B0101402480331033229016TGP DRUGSTORE                                            1603
B0101402480331033229027TGP DRUGSTORE                                            1603
B0101402480331034340088**********                                               1601
B0101402480331042057001************************                                 1605
B0101402480331045776001NOSTRANO FORMA CO.                                       1602
B0101402480331223944001GO, VICTORIANO OR GO, JEAN                               1602
B0101402480331541505016PHARMAGENERICS, INC.                                     1603
B0101402480331663504002******************                                       1601
B0101402480331753712001********                                                 1602
B0101405490392032671001VEGA STAR GAS AND SERVICE STATION INC.                   1602
B2401400180411014383001RD EMPLOYEES CREDIT COOPERATIVE                          1605
B2401400180411014550001GSC PROGRESSIVE MULTI-PURPOSE COOP.                      1602
B2401400180411034431001ALLIED PACIFIC PACKAGING SOLUTIONS                       1604
B0101406880513022676001LOYOLA PLANS CONSOLIDATED INC.,                          1601
B2201400250561258273001*****                                                    1605
B0101406590662043617001PERSIAPOLIS COCKTAIL LOUNGE                              1601
B0101411950680046277001********                                                 1604
B4101400390813043887001R2J HARDWARE AND CONSTRUCTION SUPPLY                     1601
B0101401700041041527001SERVICE SOLUTIONS MULTI-PURPOSE                         11610
B2401400180411033163001EDWIN-IAN MACHINE SHOP AND ENGINEERING                  11602
B0101408240711492799001CENTER FOR INFECTIOUS DISEASE AND TRAVEL                11602
B0101401700041041527001COOPERATIVE                                             21600
B2401400180411033163001SERVICES                                                21600
B0101408240711492799001MEDICINE-CIDTRAM                                        21600
B0701400260495821100608**********                                               2003
B0101407430503821100608**********                                               2010
B0601400490890821100608**********                                               2001
