F0101414670000001340652****                                                     2503CKO
F1001400350000000017074MSU-IIT NMPC BULUA-CDO BR.                               2601CKR
F0601400360083043610001AMERICAN PLAQUE FACTORY INC.                             2604CKR
F0101404000551005120002QUEST BROADCASTING, INC.                                 2620CKO
F0201401150378042514008SOUTHERNPHIL DEVELOPMENT AND                            12602CKR
F0201401150378042514008MARKETING CORP.                                         22600CKR
