F0601400100081319911002CALAGUAS, ADORACION OR NOEL                              2502CKO
F0101406620273019596002TGV BUILDERS, INC.                                       2603CKR
F2301400150301261445001********                                                 2620CKO
F0101402060351009773002GRB ENTERPRISES                                          2604CKR
F0101405940512030823008AVID SALES CORPORATION                                   2610CKR
F0101408110515021706002XORAND ZOLUTIONS CORPORATION                             2606CKR
F0101407720602294877009DR. REBECCA B. SINGSON                                   2601CKR
F4101400260812044826001SEVEN-L AGRIFOOD SYSTEMS, INC.                           2601CKO
F4101400420814573133002MAGNETICA ELECTRONICS, INC.                              2602CKO
F01014130200000000567844TH WALL PRODUCTION DESIGN                              12602CKR
F1201400280671768440001BATANES, BONNER S. OR BATANES, BENTER S.                12610CKO
F0101413020000000056784STATION                                                 22600CKR
F12014002806717684400016715500142                                              22600CKO
