A0101406040000000014859********                                                 0501
A1301400210000000023383WILMA S TOLENADA                                         0501
A0101409890000000049067VIRGINIA SY JAO                                          0501
A0101407720000000051174CAOILI, JANICE CAMPOS                                    0502
A1901400290000000135093MARITES LIM SANCHEZ                                      0502
A0101407430000000141795ALLAS, MARISSA BELLEZA                                   0501
A0101408110000000202791MILITAR, MA. VICTORIA GARCIA                             0501
A0201400760000000476933ABUTAZIL, JERIC REI TEMPLO                               0502
A0101411820000000477316GDEX MASTERSTICKERS ENTERPRISE                           0501
A0101410140000000482702LABASTIDA, ENGRACIO DOTOLLO                              0502
A0101403030000000531462HARROW, ALAN JAMES ANTHONY CASA                          0501
A0101404260000000532283UNI STOP DRUG & GENERAL MERCHAN                          0501
A0101402930000000580381MANGABAT, JOSE MACLANG                                   0501
A0101409050000000601410MANZANO, MAUREEN INES                                    0501
A1001400480000000606853**********                                               0501
A0101413570000000635530CARLOS ANGELO O. GOZON                                   0501
A0101408660000000855921JUMIG, BENEDICT DUYA                                     0501
A1301400210000000915811FAUNDO, TERESITA MATURINGAN                              0501
A0201400890000000973451SANCHEZ, EDGAR LIM                                       0501
A0201400920000000991777ACSIBAR, DARIO ALIMA                                     0501
A1001400480000001054711VILIRAN, PRINCESS SYBIL BADAJOS                          0501
A0101410140000001074862CECILLIA, M DBU DCPM LIGHTS AND                          0501
A3001400130000001271716YAP, MARLON PINGGOL                                      0502
A0101407560000001276251***********                                              0502
A0101411820000001356667**********                                               0501
A6601400120000001370627NIKKI C DELA CRUZ                                        0501
A0101401090000001611256VIRGENES, MERLA AVELLANO                                 0501
A0101404680000001617283QUIAMCO, MILDRED CUDIAMAT                                0501
A0101404680000001617294RAMOS, LEONILA GOPOLE                                    0501
A0101401090000001618617MADDATU, LILIA NELLIE ALINO                              0501
A0101414120000001642702NARANJO, RAFAEL ALIMBOYAO                                0501
A3801400170000001698100JOCELYN O NANTES                                         0501
A0301400790000001776183SAMSON, PETER JOHN PIELAGO                               0501
A2401400180000001935782ONAS, ROSITA PLANOS                                      0501
A1901400290000002170116RUBEN LEYESA UMALI                                       0502
A0101411370022774052001MARISSA M. RAMIREZ                                       0503
A0101400150061532217001NABOS, NENETTE DE ROXAS                                  0501
A0601400100081382795001ACIBIZ, GERARDO ARAWIRAN                                 0502
A0101406040112206421001EDWIN C. MATANGUIHAN                                     0501
A0101401830141283129001YOLANDA M. LIM                                           0503
A0101401830141546547001REATAZA, NELIA MORABE                                    0502
A0101401830141551597001MARIA VEOSELYN B. ESTRELLA                               0501
A0101400440161039572089ERLINDA ANTONIO SOMERA                                   0501
A0101400440161520766151AMELIA TANGUIN                                           0501
A0101400440161520766193LEILANIE P. LOCSIN                                       0501
A0101407270162333006009CARLITO P. TORRE                                         0502
A0101407270162420515001ELENA C. LU OR JEAN C. LU                                0501
A3101400740224640265002YQUIN, EVELYN BESA                                       0505
A1001400190231034434001HNH BUILDERS AND ENTERPRISES                             0501
A1001400350233752933001SIOS-E, ANNA LYN FLORES                                  0502
A1901400290261395813001PAZ LAYGO JOSE                                           0501
A0101401670271479173002RESURRECCION, MARIA VERONICA G                           0501
A0101401670271479173002RESURRECCION, MARIA VERONICA G                           0501
A0101406620273535100001LEGASPI, KAREN GARCIA                                    0501
A0101410980275091760168MICHELLE CO OR CHESTER ALLAN CO                          0501
A0101402510341320632003ABELLANOSA, WILMA BELENA                                 0501
A0201400920375039398001QCS PHILS. - CONSULTANCY & TRAI                          0502
A0101402930381209106001ROSITA A. PEDRAGORDA                                     0502
A0101402930381319656001ROBERTO C. NERIA                                         0501
A0101402930381453357001DR. CARLO GIOVANNI B. LOZADA                             0501
A0101402930381468505001JERRY RUTH H. ABINUMAN                                   0501
A0101402930381786332002UY, LORRAINE SHEUNG-WING                                 0501
A0101408370382618960001JOHN GEOFFREY G. PALISOC                                 0501
A0101408370382631595001DR. DOMINADOR A. ACOSTA JR.                              0501
A0101407430503370162006MELIZA PADUA                                             0501
A0101406880513197649001HARPER, ANNA MARIA LAMMOGLIA                             0501
A0101404260611150902001MARITESS OR BERNARD PAMA                                 0501
A0101404260611151278002OFELIA F. RAMOS                                          0501
A0101404260611416854003LLARENAS, MELANIO PARAGATOS                              0502
A0101404260611478374053VIOLETA P. ORADA                                         0501
A0101404260611478374126MA. GLENDA C. TUPAS                                      0501
A0101404680651478374142**********                                               0502
A0101404680651515333001BOCO, HORTENSIA LACAYANGA                                0501
A1701400230693478374070CALUYA, LANIE PASCUA                                     0501
A0101408240711554188001KIM, JIHUN JT                                            0502
A4101400420814520766114BAYER, LOWELYN C.                                        0503
A0101404840851478374071MARITESS C. CASARILLA                                    0501
A0101404840851520766090ERLINDA FADUHILAO                                        0502
A0601400230891398766001..........                                               0502
A1301400470000000009914SIMPLICIO, REYNALDO TALINIO OR                          10501
A2601400270000000019532ENRICO ARTURO A. GUINTO OR                              10505
A0101408370000000336149SAWIT, SIMONETTE KRISTINE                               10510
A0101402930000000580778ROMERO, A DBU ALEJANDRO F.                              10501
A1101400120000000652620GO, COCAINE Y. OR                                       10501
A0101413020000000880495JUMAWAN, SHEILA MATEO OR                                10501
A0101410980000001154410JANETTE VERONICA SERGIO OR                              10501
A4101400390000001732645ESTEBAN, EDMUND AGULTO  OR                              10501
A0301400790000001776161TAN, CHARLIE SANCHEZ DBU                                10502
A1901400290000002126512JEFFERY CHUA SY OR HANNAH                               10501
A0101400150061329718005ZABALETA JR., JOSE MARIA PONS                           10501
A0101401670271186385002ANDRES DEE OR MARCELA DEE                               10504
A0101406620273215629001PATRICK G. SANTOS OR                                    10502
A0101406620273226944001CASTRO JR., SALVADOR P. OR                              10503
A0101400570281296123001BANARES, MYRNA N. OR                                    10502
A2001400290315774671002PALOMARES, RONIE OR LOWELA OR                           10501
A0101402930381426314001MARIA CRISTINA G. RAMIREZ OR                            10501
A0101408370382209736001DRS. PAUL JESUS S MONTEMAYOR OR                         10502
A2401400180411459008001SALES, LYNETH SALVAN OR                                 10501
A3801400170490047867001HULAR, GRACE DBU AQUA MIRAGE                            10502
A2201400250561484428001WILSON LAO SIO OR                                       10502
A1301400500684594780002CASTRO, RAYMUNDO OR                                     10502
A0101407560686321128001MAILEEN DELA CRUZ OR                                    10501
A0101408240711386973003ROBERTO SANTIAGO OR                                     10503
A1301400470000000009914SIMPLICIO, EVELYN                                       20500
A2601400270000000019532CARLO ESTEBAN A. GUINTO                                 20500
A0101408370000000336149TIANGCO                                                 20500
A0101402930000000580778ROMERO CONSTRUCTIONS                                    20500
A1101400120000000652620GO, NICHOLAS JASON F.                                   20500
A0101413020000000880495JUMAWAN, JODELL CHUA                                    20500
A0101410980000001154410CRISLIN RENEA SERGIO                                    20500
A4101400390000001732645ESTEBAN, ARMANDO RAPDAS                                 20500
A0301400790000001776161CSTAN AQUAMARINE VENTURES                               20500
A1901400290000002126512ERICKA AFRICA SY                                        20500
A0101400150061329718005ZABALETA, ALISON                                        20500
A0101401670271186385002OR ANDREW DEE                                           20500
A0101406620273215629001MONICA S. SANTOS                                        20500
A0101406620273226944001MA. NORA ZENAIDA                                        20500
A0101400570281296123001BANARES, LEOPOLDO II J.                                 20500
A2001400290315774671002KHO, LILIBETH AN                                        20500
A0101402930381426314001FRANCIS ERWIN C. RAMIREZ                                20500
A0101408370382209736001MA. NATHALIA N MONTEMAYOR                               20500
A2401400180411459008001SALES JR., POTEN                                        20500
A3801400170490047867001PURIFIED WATER REFILLING                                20500
A2201400250561484428001EDUARD LAO SIO                                          20500
A1301400500684594780002CASTRO, ROSEMARIE                                       20500
A0101407560686321128001ROMEO DELA CRUZ                                         20500
A0101408240711386973003DIANA SANTIAGO                                          20500
B0101408370000000014597MANILA HEALTHTEK INC.                                    1603
B0101412500000000041670MOLDEX REALTY INC.                                       1603
B0101402930000000057481CENTURY PACIFIC FOOD, INC.                               1603
B0101410980000000171975**********                                               1601
B0101414120000000399060ALGIRA CORPORATION                                       1603
B0101402930000000623385BMC WELTRADE CORP.                                       1620
B1101400120000000652993RIVER VALLEY DISTRIBUTION, INC.                          1601
B0101400600000001335568EUNHYE APPAREL, INC.                                     1601
B0101413860000001767859ALTAIR AVIATION CORPORATION                              1601
B0101413860000001767860FTD LAND CORPORATION                                     1601
B0101414120000001984154RAMY CONSTRUCTION INC.                                   1601
B0101400150061016423001GROLIER INTERNATIONAL FINANCE, INC.                      1603
B0101400150061035943001DALLE AGRO SOLUTIONS CORPORATION                         1603
B0101400150061040558001CORDILLERA EXPLORATION CO., INC                          1602
B0101401830141035193001ARAL KID'S ACADEMY                                       1601
B0101401830141045610001INTERZONAL COURIER SERVICE                               1601
B1001400190231022229001CITY ALLIANCE CHURCH                                     1601
B0101402930381033256001BENMARK GROUP HOLDINGS, INC.                             1602
B0101402930381041771001AII SYSTEMS, INC.                                        1601
B0101402930381046346001CONNECTICOM GLOBAL NETWORK INC.                          1602
B0101409210398042656001FIELD OUTSOURCE ASIA, INC.                               1606
B0101407430503023081003INTERNATIONAL JOB RECRUITMENT AGENCY                     1602
B0101407430503027621001PMEI LEASING CORPORATION                                 1602
B0101404260611022505002SEAA CORPORATION                                         1603
B0101404260611043949001JCLC TRADING                                             1601
B1301400500684047515001WEST GRAINS TRADING                                      1601
B0601400230891338856001SZE KIT CHENG                                            1610
B0601400520000000986741SANCHEZ MANUCUM & CO. CERTIFIED PUBLIC                  11601
B0101401830141290260001HENRY MAGTALAS OR GEMMA MAGTALAS OR LEE                 11602
B1001400350233036774001RER DRIVE PHASE II NEIGHBORHOOD                         11601
B6601400120314043609012FUNDACION GRAMEEN PILIPINAS INC.                        11605
B0601400520000000986741ACCOUNTANTS                                             21600
B0101401830141290260001MARVIN MAGTALAS                                         21600
B1001400350233036774001ASSOCIATION INC.                                        21600
B6601400120314043609012CATUBIG BRANCH                                          21600
