A0101401960000000008102**************                                           0501
A1101400120000000065103BELLO, TERESITA CASTARITAS                               0501
A0101401380000000106492FABIC, REY NOE FAZ                                       0502
A5501400120000000265850SUENO, ISMAEL JADE BERNARDO                              0503
A0101407690000000495410******                                                   0502
A0101410140000000499338RUIZ, CRISTINA BALAYAN                                   0501
A0101405650000000525853IMELDA B. VILLALON                                       0501
A0101411240000000629367PO, CARMENCITA SUN                                       0505
A1101400120000000652511BASTIAS, ROSANNA QUISUMBING                              0502
A0101411080000000806079*****                                                    0502
A0101413860000000859003RUNEZ JR, SAMUEL RUNES                                   0502
A4101400550000000981831BESANA, ARDITH GALVAN                                    0501
A1601400170000001069114ALDEN O. SAMBAJON                                        0501
A0101404000000001186881APORTADERA JR., RIZAL GIOVANNI                           0501
A0101411820000001356838GALUPINO, MYRA AMARRA                                    0501
A0101413990000001406564CONSEJEROS, MYRA M.                                      0501
A0101400570000001681767MARIA CHRISTINA C. ESTRERA                               0501
A0101400570000001681869GARCIA, DOMINIC BOLOS                                    0501
A0701400260000001804513MIRABUENO JR., JAIME TERBIO                              0501
A2401400180000001935782ONAS, ROSITA PLANOS                                      0501
A2401400180000001935793PACULANAN, NORMA REPONTE                                 0502
A1101400120000002254822NABAUNAG, LEONORA FUENTES                                0503
A0101411370000002269343**********                                               0501
A0101410560000002316456REYES, REDENTOR HERNANDEZ                                0501
A0101412890000002324192*************                                            0502
A0101405650000002325515TAN, FERNANDO MARTIN DE GUZMAN                           0501
A0101411240000002332503*****                                                    0503
A0101407690000002348712BALUYOT, AILEEN DOLLENTE                                 0502
A0101413990000002962838SANTOS, JOSEPHINE TECSON                                 0501
A0101400860000003533413************                                             0501
A3101400870000003656360BENITEZ, MA ETHELWOLDA NAPIZA                            0501
A0201400890000003657705ALCAZAR, GERALDINE CABANES                               0501
A0201400890000003657716GACRAMA, ERMIE AGUILAR                                   0501
A0201400890000003657738GARRIDO, HANNA KARLA CASTILLO                            0501
A0201400890000003657749NAIDAS, KYLE NICOLASIN                                   0501
A0201400890000003657750ORDONEZ, NIMROD SABARRE                                  0501
A0201400890000003657761REPDOS, ARNEL JAMES SABAN                                0501
A0201400890000003657772SARSONAS, FLORIZA LIMURAN                                0501
A0201400890000003657783VILLAMOR, MICHELLE DUCAY                                 0501
A0201400890000003657790YU, ALLEN LLOYD ALQUIZALAS                               0501
A2001400290000003663392FADRIQUELA, RICHARD DOLOT                                0501
A2001400290000003663405SOMOZA, VIC ANTON MENDOZA                                0501
A0101400860011429714003**********                                               0502
A0101400860011509252001**********                                               0503
A0101400860011516751001**********                                               0505
A0101400860011675338001**********                                               0505
A0101401700041478374018ROSITA LIMBO BASSIG                                      0502
A0101400150061430140001**********                                               0501
A0101400150061442787002CALLEJA, ROSELYN DOLINDO                                 0501
A0601400100081604957001BARREDO, ELIZABETH OMBAO                                 0502
A0101407270162739083002MICHAEL M. MAYO                                          0501
A0101401090171196038001REBECCA A. CASTRO, M.D.                                  0503
A0101401090171197481002MA. NOEMI OR ELIEZER SALAZAR                             0503
A0101401090171346372001MARIA LUALHATI C. CLUTARIO                               0503
A1001400190231272341001MABILEN, ERNESTO                                         0503
A1001400190231520766007GABAC, AILEEN O.                                         0501
A0101401670271459828001AYSON, JENETH LANSANGAN                                  0501
A0501400200292567569001LARILYN D. GATCHALLAN                                    0501
A0801400160311317813001SUSAN M. APOSTOLERO                                      0501
A6601400120314071890001MARTIRES, MYLA TURLA                                     0502
A0101405650322298552012ROSITA A. CARANDANG                                      0502
A0101402480331315462001*****************                                        0503
A0101402510341197697001GLORIA R. DEL MUNDO                                      0501
A0101409050352671829001BRIAN R. PINEDA                                          0510
A0101402640361170246001GALLARDO, EDILBERTO CLETO                                0501
A0101402640361177077001ANICETO, NARCISO DELA ROSA                               0501
A0101402640361478374074MARIANO, LOLITA MIRANDA                                  0501
A0101402640361784002001AGUSTIN, CATALINA LEANDADO                               0501
A0101405490392307722003JIEL C. SANTOS                                           0502
A0101405490392755439001CHRISTOPHER GEORGE M. TOLENTINO                          0502
A0101408950396594011001MA. TERESA V. PEJI                                       0501
A0101408950396645140001TATCO, VINCENT REYES                                     0501
A2401400180411495221001MANUEL JR., ANTONIO VILLANUEVA                           0502
A0101403030441240653001**********                                               0501
A1401400110492427326004******************                                       0501
A1401400110492620230001DELOS SANTOS, ENRICO PEREZ                               0503
A0101403580511156706005JONATHAN MARQUEZ                                         0501
A0101407720602161917001GOYLOS, LORENA CALVO                                     0501
A0101407720602341263001RIVERA, LUIS MARCELO                                     0501
A0101407720602341866003SONGCO, JAIME STO. DOMINGO                               0502
A0101407720602396506002DR. ESTELA Z. CABRERA                                    0501
A0101404260611155266001YU, SUSANA OR EDDIE                                      0501
A0101404420631478374130SUSANA S. TIANGCO                                        0501
A0101409920650478374009PABILONIA JR. SALVADOR B.                                0501
A0101406590662363449001LA VINA, ANGELINA SAN JUAN                               0501
A0101406590662562414001RUSTE, RUTH ALLEN ANTONIO                                0502
A4101400260812478374005JENITA Z. PALLE                                          0501
A4101400260812711747001BEATO, JUANITO DELA CRUZ                                 0501
A4101400390813041094001BUNGCASAN FOODS SERVICES                                 0502
A0101404840851711784001DE GUZMAN, JERMAINE ROSE DE LOS                          0501
A0101406750852182683001IRENE C. DE VERA                                         0502
A0101405070861539496001MAGNO, ERMA SENDINO                                      0501
A0601400230891255354001JAMEL OR JEANETTE SAMONTE                                0502
A3101400160000000006464CANDELARIO, EVELYN DBU                                  10501
A0101408660000000373084YANG, MARIE GEM RACHELE R. OR                           10502
A1601400170000000421190JOHN F. TORROCHA OR                                     10501
A0101404000000001186841UY, WILFREDO CO/UY, DANILO/                             10502
A0101409920000001951891MEMBERS OF NATASHA (SHOECAT INC                         10501
A0601400100000002365380VALERIO, NARDITO GONZALES DBU                           10502
A0101412340000003438413VINCENT S. PALACAY OR                                   10501
A1001400190000003660906HELLO, MARK ANTHONY LAGRADA                             10501
A0101400150061226461002SHEILA GOMEZ OR                                         10501
A0101400150061412381001VILLARUZ, MA. CORAZON A. OR                             10501
A0101410850109051774001PANDE, ELEAZER JT DBU DENMARK                           10501
A0101400730111045900001JACOB'S LADDER DRUG & MEDICAL                           10505
A0101401090171031503001MINT MUNCH CANTEEN & GENERAL                            10502
A1101400120313717829001UY, WILSON S. OR                                        10510
A3401400280318736732001TERESA A. SANTOS OR MA. AILEEN                          10501
A0101408950396576467001DR. JOANNA TERESA MARGARITA                             10501
A0501400170481253600001NARDING C. CAMERO OR                                    10502
A1901400160491641033001ULYSSES M CHAVEZ OR                                     10501
A0101404000551150313004DE LEON, CARLOS/DE LEON, ROSIE/                         10503
A0101407720602210403001JOSEPHINE QUINTOS-APOSTOL OR                            10502
A0101407690652298552012ANALIRIO GENERALI - DEALERS OF                          10502
A0101407690652478374034EDNA D. PENALVER - DEALERS OF                           10501
A0101407690652478374034EDNA D. PENALVER - DEALERS OF                           10501
A0101407690652525001064JOAQUIN JUANCE - DEALERS OF                             10501
A3101400160000000006464RALC REALTY                                             20500
A0101408660000000373084YANG, QUINCY LE                                         20500
A1601400170000000421190ROCHELLE A. TORROCHA                                    20500
A0101404000000001186841PAREDES, MAILA                                          20500
A0101409920000001951891BARTE, CECILE                                           20500
A0601400100000002365380JUNAR                                                   20500
A0101412340000003438413MARIA ELOISA G. PALACAY                                 20500
A1001400190000003660906or RUBEN VICTOR R.ACUESTA                               20500
A0101400150061226461002BEDE LOVELL GOMEZ                                       20500
A0101400150061412381001VILLARUZ, JOSEPH                                        20500
A0101410850109051774001TRUCKING & GEN. SERVICES                                20500
A0101400730111045900001SUPPLIES                                                20500
A0101401090171031503001MERCHANDISE                                             20500
A1101400120313717829001UY, CHIQUI RUTH                                         20500
A3401400280318736732001A. SANTOS OR TINA S. ONG                                20500
A0101408950396576467001L. MANALO                                               20500
A0501400170481253600001JULIE C. CAMERO                                         20500
A1901400160491641033001LETICIA M CHAVEZ                                        20500
A0101404000551150313004DIZON, RAQUEL                                           20500
A0101407720602210403001CARLOS FAUSTINO APOSTOL                                 20500
A0101407690652298552012SHOECAT , INC.                                          20500
A0101407690652478374034SHOECAT, INC.                                           20500
A0101407690652478374034SHOECAT, INC.                                           20500
A0101407690652525001064SHOECAT INC.                                            20500
B0101409890000000004673**********                                               1610
B1301400210000000023474RICH-WELL INTERBRAND CORPORATION                         1602
B0101401700000000030122RICHFIELD GARMENT MFG., CORP.                            1601
B0101406040000000096662CONCEPT SPECIALIST, INC.                                 1605
B0101403580000000214651MEC - ANGONO PC                                          1605
B0101405650000000772685WISEMEDIA GROUP, INC.                                    1601
B0101407720000000885805INTELLIGENT BEAUTY SKIN SOLUTIONS INC                    1603
B0101403030000001302145**********                                               1602
B0101403030000001302156**********                                               1602
B0101400150000001708390SAN CARLOS SUN POWER INC.                                1601
B0101400150000001708403LUZON ISLAND SOLAR POWER INC.                            1601
B0101400150000001708414SAN CARLOS CLEAN ENERGY INC.                             1601
B0101400150000001708561MONTE SOLAR ENERGY INC.                                  1601
B0101404000000002799855BODY NEEDS & BASICS INC.                                 1601
B0101400860011389546003**********                                               1602
B0101400150061010779001DIAMOND STAR AGRO PRODUCTS, INC.                         1610
B0101400730111007943003PHILIPPINE DAILY INQUIRER                                1601
B0101401830141037764001MICHAELJONA TRUCKING SERVICES, CO.                       1602
B0101407270162040422001******                                                   1601
B0101405650322043032001LEAN MANAGEMENT AND PEOPLE SOLUTION                      1601
B0101402480331023298001ORIENTAL TIN CAN & METAL SHEET MFG.                      1602
B0101402480331047395001**********                                               1601
B0101402480331304122002***************                                          1601
B0101402480331665824001***************                                          1601
B0101409050352046541001CTU SECURITY AND INVESTIGATION AGEN                      1601
B0101402640361017425005SOLID MIX CORPORATION                                    1602
B0201400890376042888008NEW CITY MARKETING                                       1601
B0501400170481015881001TOYOTA DAGUPAN INC.-2                                    1610
B0101403580511005154001R.G. MANABAT & CO.                                       1620
B0101403580511022801001PHIL'S IMPORT-EXPORT CO., INC.                           1602
B0101403580511575114002TIGER 22 MEDIA CORPORATION                               1610
B0101403450521011974001**********                                               1603
B0101404000551005119001LAW FIRM OF R.V. DOMINGO & ASSOCIATES                    1610
B0101404130601037502001JS PHILIPPINES GLOBAL CORPORATION                        1602
B0101404130601047094001AGG-CT HOLDINGS & MANAGEMENT CORPOR                      1601
B0101407720602027024001PHILIPPINE ORTHOPEDIC INSTITUTE INC                      1603
B0101404260611005246001KENDREX INC.                                             1601
B0101406750852456290001**********                                               1602
B0101405070861008149001TABAQUERIA DE FILIPINAS INC.                             1604
B0601400230891252317001MANILA TEACHER'S MUTUAL AID SYSTEM INC                   1605
B0301400790000000435692R. CUBE DESIGN AND ESTIMATE SERVICES,                   11603
B1601400170000000497070LENI ROSE GIANAN AND EVELYN CANALE AND                  11601
B1001400190000002170816WILLIAM CHAI CHUA OR MARIE KHRISTINE                    11608
B0101401250021005516001THE PROVINCIAL SUPERIOR OF THE PIOUS                    11602
B0101401830141290260001HENRY MAGTALAS OR GEMMA MAGTALAS OR LEE                 11601
B0101405650322543721001OMNIBILT CONSTRUCTION AND MAINTENANCE                   11601
B0101403450521012212001JERRONE CORPORATION(RADO-CITIZEN SERVICE                11602
B0301400790000000435692INC.                                                    21600
B1601400170000000497070MARIA JOVI RAYCO                                        21600
B1001400190000002170816CHAN CHUA                                               21600
B0101401250021005516001SOCIETY OF THE                                          21600
B0101401830141290260001MARVIN MAGTALAS                                         21600
B0101405650322543721001INC.                                                    21600
B0101403450521012212001CENTER-MAKATI)                                          21600
B0801400160311821100608**********                                               2003
B0101407690652821100608**********                                               2002
