A4101400260000000002142TAJANLANGIT, JACKIE C.                                   0502
A0101409210000000043821GUTIERREZ, ROSEMARIE MALABRIGO                           0501
A0101413020000000057003**********                                               0501
A0101406040000000096979********                                                 0503
A0101413730000000144578**********                                               0501
A0301400660000000194570DEQUITO, CITZY VENTOR                                    0504
A0301400660000000194592*****                                                    0501
A0301400660000000194610MANLEGRO, TERESITA YABUT                                 0501
A0101412210000000238522QUERODA, MARICRIS ILAGAN                                 0501
A0101403320000000452220************                                             0501
A1201400150000000473290BAGSINGIT, SARAH AGWIKING                                0502
A0101410140000000499032V-COPY DUPLICATOR SERVICES AND                           0502
A0101408530000000594263JAMIE S. SALAZAR                                         0502
A0101404680000000767022EMBILE, JESUSA MAGTIBAY                                  0501
A0101404680000000767033CLARITY EYE OPTICS CENTRE                                0501
A0101400150000000807170FRAGANTE, SOCORRO PROTACIO                               0502
A0101404680000000940950ELCID IVANHOE F. VIERNES                                 0501
A0101412500000001147080**********                                               0503
A0101413730000001253281****************                                         0501
A0101409210000001294662SEMILLANO, MARICON GALICIA                               0501
A0101409210000001294662SEMILLANO, MARICON GALICIA                               0501
A0101409920000001539453PAULINO, RODRIGO SALAZAR                                 0502
A0101401090000001618862REBURIANO, ROSSANO DEL CARMEN                            0501
A0101404260000001725151********                                                 0501
A0101404260000001725571CORTEZ, ERIC GUEVARA                                     0501
A4101400390000001732872COLMENAR, LOWIE JEINE DELOS REY                          0501
A0101400730000001822351DALDE, L DBU WESTERN INSTITUTE                           0502
A0101401250000002131982ERIC M. ENRIQUEZ                                         0501
A0601400520000002271001SALITA, CEZAR GONZALES                                   0501
A0101412920000002359059MENDOZA, ROSEMARIE QUINTANA                              0501
A0101414120000002879743DE GUZMAN, JENNY MERLIE APOLINA                          0501
A0101404680000003000420ESPANILLO, JAMIE DERICK ESTRADA                          0502
A0101414120000003190930MEDRANO, JENINA-MARIQUIT URTOLA                          0502
A0101400150061230908001MAPE, JOSELITO E.                                        0502
A0101400440161039572087ALBERT C. VEGA                                           0503
A0101400440161478374010*****                                                    0503
A0101400440161549556001TEODORO R. BAUTISTA                                      0501
A0301400660194618862001*****                                                    0501
A0301400660194774595001CIMAGALA JR., OSCAR TINGA                                0502
A0101407140213485140001**********                                               0501
A3101400450223478374004MORENO, JONALYN                                          0501
A1001400190231283324001GICABAO, BENY CHAN                                       0501
A1001400190231342333001BUSGANO, HIPOLITO S.                                     0503
A1001400190231478374027EUBRA, LIBERTY O.                                        0502
A1001400190231478374128BONIFACIO, LIZA                                          0501
A1001400190231568191001CANON, CARLOS MASCARINAS                                 0501
A0101406620273313236003YU, HARRY LIM                                            0510
A0101408660274682739001CRISTOBAL, NERLITA ESPELETA                              0501
A0101400570281186867001DR. DIANA JEAN ROXAS                                     0501
A0101408820333042004001********                                                 0502
A0101402510341278752001HIPOLITO JR., LORENZO SANTOS                             0501
A0101402060351217441008RENATO R. ERMITA                                         0506
A0101402640361042033001EFSEM HAULING SERVICES                                   0501
A0201400760374537038001HO, RICHELIEU MARIANO SIA                                0501
A0101408370382398259001DR. MARIA LIZA ASUNCION M. CRUZ                          0503
A0101402770391211617001ANGELES C. TRINIDAD                                      0501
A0101402770391319133001WENDA R. ALMIN                                           0502
A0101408400394669904001LAUD, GIZELLE VILLANUEVA                                 0501
A5501400120410789217001LIM, RITZEL DELA CRUZ                                    0501
A2401400180411387375001AMADEO, ANNIE MILES JT                                   0503
A0101403030441594340001**********                                               0501
A0101403320471720456001OCAMPO, ERLINDA MENDOZA                                  0501
A0501400170481257443001JUANITO L ONG JR                                         0502
A0101408530516741704001FILIO, MARIA LEONORA FLORENDO                            0501
A0101403450521238075001**********                                               0505
A0101403450521238268001**********                                               0502
A0101403450521240509001**********                                               0502
A0101403450521390447001**********                                               0502
A0101403450521481849001**********                                               0502
A0101407720602392725001DAVID HAROLD C.GOSIENGFIAO,M.D.                          0520
A0101407720602591314001DR. MA. CECILIA G. GONZALES                              0501
A0101404260611398690001IGNACIO, ADELAIDA SUNGA                                  0505
A0101404260611478374136ZENAIDA P. SINGUEO                                       0501
A0101404420631764043001MARVELUZ DELOS REYES CAPULI                              0501
A0101404680651542096001DEL ROSARIO, ELEONOR DAGOHOY                             0502
A0101408240711336084001EVA M. LUMBAN                                            0503
A0101408240711712646001BAUYON, TORIBIA FABELLO                                  0502
A4101400260812519502001APOSTOL, JESSIE BOY MARTINEZ                             0502
A4101400420814520766072JOLAMPONG, JUDITH L.                                     0501
A4101400420814520766112NAJE, ROSITA                                             0501
A4101400550815047926001PANDANAN, JOAQUIN CRUZ                                   0502
A0101404840851046725010MA LILIBETH ALMONGUERRA                                  0502
A0101404840851520766046EMELYN P. RAMOS                                          0501
A0101404840851520766104PARAGAS, MARILOU                                         0501
A0101404680000000013463TUBELLO COAT CENTER                                     10501
A0101402510000000049329UNICARE DENTAL, MEDICAL TRADING                         10501
A1001400190000000124650MINDANAO GOLDEN GRAINS                                  10501
A1601400170000000421069CHARLES P. CLEMENTE III OR                              10505
A4101400550000000506814DALAGAN, CATALINO B. OR                                 10504
A3101400870000000957702GATCHALIAN, GIANCARLO ENRIQUE                           10503
A0101409180000001694306CABRERA, ESPERANZA DBU E.E.C.                           10502
A0101401700041352928001JESUSITO O. TUMACAS OR                                  10505
A0101401090171196114001LEILANI M. ASIS OR                                      10504
A3101400450223558112001CRISTINA MADERAZO OR MARIANNE                           10502
A0101401670271186264001ANITA M. ATENDIDO OR                                    10503
A0101401670271186285002FERDINAND M. ATENDIDO OR                                10503
A0101402770391211948001GIL A. TANQUILUT JR OR                                  10501
A0501400170481046585002ANG, JUSSLYNN DBU                                       10502
A3801400170490784760001EDYLOU B TEJIDO OR                                      10503
A0101407720602334161001MA. TERESA CONCEPCION C. PEREZ                          10501
A0101406750852774013001MARK JEROME SAQUING OR MARY ANN                         10502
A0101404680000000013463ENTERPRISE CO.                                          20500
A0101402510000000049329CORPORATION                                             20500
A1001400190000000124650CORPORATION                                             20500
A1601400170000000421069CHARLES L. CLEMENTE JR.                                 20500
A4101400550000000506814DALAGAN, TERESITA S.                                    20500
A3101400870000000957702GOMEZ                                                   20500
A0101409180000001694306SOURCE PRODUCTS                                         20500
A0101401700041352928001AVELINA A. TUMAC                                        20500
A0101401090171196114001ROMULO Z. ASIS                                          20500
A3101400450223558112001DIMAYUGA OR ENIA                                        20500
A0101401670271186264001FERDINAND M. ATE                                        20500
A0101401670271186285002CELIA ATENDIDO                                          20500
A0101402770391211948001EDITH B. TANQUILUT                                      20500
A0501400170481046585002AVS DISTRIBUTION CENTER                                 20500
A3801400170490784760001JANE C TEJIDO                                           20500
A0101407720602334161001OR JUANITO T. PEREZ JR.                                 20500
A0101406750852774013001SAQUING                                                 20500
B0201400920000000007912TURNSAT INTERNATIONAL LOGISTICS CORP.                    1601
B0101404680000000013543JCD METALFABRIK CORPORATION                              1603
B01014046800000000135618LUDEREY FOOD SERVICE INC.                               1604
B0101407430000000035269PNC GARBROS. HOLDINGS INC.                               1601
B0301400660000000195328TYRENE SHIPPING CORPORATION                              1602
B0101412920000000276711KALAKAL FOOD CONCEPT INC.                                1601
B0101408660000000373197KINGS ENVI-TECH CORPORATION                              1601
B0101401090171018890001B.A. ELECTRICAL SUPPLY                                   1620
B1901400290261033214001RD CASH PADALA, INC.                                     1603
B0101401670271017449001HK HARDWARE SUPPLIER CO., INC.                           1601
B0101411110276014917088YUNG SUNG IND. PHILS., INC                               1602
B0101408820333005948001BLUE ANGEL 179 SECURITY AGENCY INC.                      1602
B0101409050352009377001ESLA LAND DEVELOPERS, INC.                               1604
B0101402770391009441001ST. ANTHONY HOMEOWNERS' ASSOCIATION INC.                 1602
B0101403320471206926002LOLITA B COLINA                                          1601
B3801400170490443632001STEVEN S. ANG AND KATHLEEN G. REGALA                     1601
B0101403450521011882004PAN PACIFIC TRAVEL CORPORATION                           1603
B0101403450521011989001**********                                               1610
B0101404260611034987001JS TRAVEL & TOURS                                        1606
B0101404260611044359158GREAT ARCHER SALES                                       1603
B0101404680651027819001EXCELLENT PLASTIC PRODUCTS MFG. CO.                      1602
B4101400260812021911001VIANKA REALTY CORPORATION                                1610
B0101401700041192799001ZFG REFRIGERATION & AIR CONDITIONING                    11601
B0601400100081253610002NG, WILFREDO M. AND AQUINO, JANET B. AND                11601
B0101401830141290260001HENRY MAGTALAS OR GEMMA MAGTALAS OR LEE                 11602
B0101401090171007899001MARY CHILES GENERAL HOSPITAL PHYSICIANS'                11602
B0101402060351009365002GREEN VALLEY TOWNHOUSE OWNERS                           11601
B0101405940512038848001JADE ENTERTAINMENT AND GAMING                           11603
B0101401700041192799001SERVICES                                                21600
B0601400100081253610002BUAN, ROLAND S.                                         21600
B0101401830141290260001MARVIN MAGTALAS                                         21600
B0101401090171007899001ASSOCIATION                                             21600
B0101402060351009365002ASSOCIATION INC.                                        21600
B0101405940512038848001TECHNOLOGIES,INC                                        21600
