A0101410850000000005789AUSTRIA, MA. DOLORES RODRIGUEZ                           0501
A3101400160000000006420PROCESO CABATO PCC MIX TRADING                           0503
A0101411950000000036239SANILAR TRADING                                          0502
A0101413440000000038071VIRGINIA D. FLORES                                       0501
A2001400290000000094728PURACAN, ANECITA BESARIO                                 0501
A1601400170000000099172DELAN JOHN M. LLARENA                                    0501
A0301400660000000194683*****                                                    0501
A0101401960000000211058LIM, JACQUELINE KING                                     0503
A5001400170000000213903ALISTADO, REYNOLD GUERRERO                               0501
A0101408370000000335642DELIGERO, MARK DEPARDAS                                  0501
A1301400470000000366450GABRIEL LEONARDO CALLING                                 0502
A0901400220000000425170**********                                               0504
A2401400180000000427985CULLO, KRISTIANNIE LOVE ROSARIO                          0501
A0101405490000000444411WEA S. BABINA                                            0501
A0601400230000000452782GOZUN, R-JAY RAMOS                                       0520
A0101411950000000490788SAN DIEGO, GLAIZA DELA CRUZ                              0501
A0101411950000000490802LABATA, REY SOLON                                        0501
A4101400390000000500518SANCHEZ, MA KATHERINE CREUS                              0501
A0101408240000000521793ROMERO, GHIE MARIN                                       0501
A0101400150000000525579PORNETE, MA LUZ LABANDAN                                 0501
A2601400270000000561842SHIRLEY T. ONG                                           0501
A2601400270000000561853BRENDAMIN JOE G. DUMRIQUE                                0501
A1101400120000000652419CARILLA, MARISSA DUMAGAT                                 0505
A1101400120000000652686ANTIDO, JUDITHA PEDROSA                                  0501
A0101413440000000702481VENTURA, JESSICA JOYCE DUMENDEN                          0501
A0101413990000000726512CASTRO, GIZA ATENDIDO                                    0501
A0101406880000000745033NATIVIDAD, HELEN BAYONA                                  0501
A0101406880000000745062VILLEGAS, OHLY KCRIS CABALLES                            0501
A0101400150000000807363RONQUILLO, BELINDA GAMUEDA                               0501
A0101400730000000834388JEAN MARIE BULLECER                                      0501
A0101400730000000834399LUCHINE F. CAMPOSANO                                     0501
A0101400730000000834413JEANGEN S. MOGAR                                         0501
A0101400730000000834435LENY D. ANTE                                             0501
A0101413310000000863941SUMALINOG, KATHERINE MANZANO                             0501
A0101413310000000863952KAO, RACHEL TIEN                                         0501
A0101412050000000890791SONZA, HANNAH GRACE ROJO                                 0501
A2801400100000000906110SAGUM, ERWIN CANDA                                       0501
A0101412180000000908390LIM, LEA YAP                                             0501
A0101410300000000919422ROQUE, EUGENIE AMANDA VALDOMAR                           0501
A0101409050000000939408RANCAPAN, ARLYN BALTISOTO                                0501
A0101413990000000969337MAPA, MARLON TIDALGO                                     0501
A0101412340000001017634LIMJOCO, CHRISTINE LHUILLIER                             0501
A0101407430000001028813AGUILA, SUNNY DONGON                                     0505
A6601400120000001065270ECHALUCE, FRANCISCO CHIN                                 0501
A2201400250000001066040ZENAIDA A. GACOTE                                        0501
A0101413570000001069530**********                                               0501
A0101405490000001092546MA. EDITH B. HIDALGO                                     0501
A6601400120000001105822VILLANUEVA, CLARISSA STA. MARIA                          0502
A0301400660000001113773LASCUNA, PABLITA DUMDUM                                  0501
A0101413150000001288171******                                                   0501
A2001400290000001301415DOMALAON, LELANI LASMARIAS                               0501
A4101400550000001332358********                                                 0503
A4101400550000001332369POTENCIO, MARILYN DE LOS SANTOS                          0501
A4101400550000001332472********                                                 0501
A4101400550000001332541*********                                                0501
A0101400440000001439607MARYLANE P. PABELICO                                     0501
A0101400440000001439618ANNIE GRACE Q. POLIRAN                                   0501
A0201400760000001457723CUTOR, MICHAEL OGAYON                                    0501
A0101402770000001481950JONI MARCIA WEBSTER                                      0501
A0201400760000001486819LUMAPAS, CHERYL JOY ESTRADA                              0501
A0101401700041193436002CORAZON C. LOBENDINO                                     0504
A0101401700041342964001GENEROSA ANG OR PETER ANG                                0510
A0101400730111195439001TAN, ROWENA                                              0501
A0101400730111452111001PEREZ IV, MAURICIO GUTIERREZ                             0505
A0101401960121452871001VIENNA MARIE GUANLAO                                     0505
A0101401830141281212001IMELDA G. CABALUM                                        0501
A0101400440161549901001EMMANUEL C. FLORENDO                                     0502
A0101400440161628804001DAVE ALEXIS M. FRAN                                      0501
A0101400440161772627001MARVIN S. MUYCO                                          0501
A0101407270162421293011HERNANDO D. HERNANDEZ                                    0502
A0101401090171336336002IRENE P. EVANGELISTA                                     0501
A0301400660194044816001FOAMWORX CARWASH                                         0502
A0301400660194734141001ALCEBAR, JONATHAN PANTINOPLE                             0501
A3101400450223042107001SOLIDCHEM MARKETING ENTERPRISES                          0505
A3101400450223357912001NAGA, JOSE V.                                            0505
A3101400450223418716001GARCIA, JESUSA CORAZON PLAZA                             0501
A3101400450223486843001CAPINO, MARIA ESTELITA PALMES                            0501
A3101400450223489008001SIO, MINNIE REGINA OR JOSELITO                           0501
A1001400190231520766036ONIPA, JANE ROSE P                                       0502
A1001400350233478374001JUNIO, ROGELIA A.                                        0501
A1301400470252444744002PAMELA FAYE P. CRUZ                                      0501
A0101406460272081063001ALANO, URSULA ALBULARIO                                  0502
A0101406460272517619001SAMILEY, CAROLINA OLIVEROS                               0501
A0101408660274217223001SERRANO, JINKY ESPERA                                    0501
A0101400570281518037001TAN, WINDFIELD LIM                                       0501
A2601400270302560511002RONALD PAUL B. BENITO                                    0502
A2601400270302567227001ROSITA TAN VALLE                                         0501
A1101400120313478374074UNGAB, ROSALINDA B.                                      0501
A1101400120313478374074UNGAB, ROSALINDA B.                                      0501
A1101400120313547700001NICOLASORA, ALMARIE EULOGIA P.                           0506
A6601400120314095628001TANSECO, MARIAM REBADULLA                                0501
A6601400120314612866001ALCERA, JUNELL PAUL OR JENNIFER                          0503
A6601400120314613008001QUILETORIO, RUEL OR ANALIZA                              0501
A0101408820333478374062SANDRA G. BUENO                                          0501
A0101402510341322353001DR. MARIVIC GUERIN TAN                                   0501
A0101408370382027935001MCBEAVKAT ENTERPRISES                                    0501
A0101408370382403308001DR. MARIA CECILIA I. JOCSON                              0501
A2401400180411275297001DIONISIO, CARMELITA BOYLES                               0501
A2401400180411514423001DEALA, BERNARDITA GATCHALIAN                             0502
A2401400180411612792001SARDIDO, MARIA NAVALTA                                   0501
A0101403030441044527001**********                                               0503
A0101403030441313818001**********                                               0502
A0501400170481257306003DE VERA, LUCIA M.                                        0502
A0501400170481712963001SALAZAR, MA. JOSEPHINE FERNANDE                          0502
A1901400160491546773001IRENEA M ERLANO                                          0501
A0101405940512474569001MANAOIS, CYNTHIA HISTORILLO                              0501
A0101403450521608765001**********                                               0501
A0101407720602330685002VALLE JR., DEMETRIO LIM                                  0501
A1301400340683361124002BUENAVENTURA, MYLINE SORIANO                             0502
A0101408240711608249001SANTUYO, MARY JANE DULAY                                 0501
A0101404840851520766067JOSEPHINE V. GABAYERON                                   0502
A0101406750852184397001OLEA, ROWENA SUNGA                                       0502
A0101406750852380584002TUMBOKON, LEAH RABE                                      0501
A0501400170000000018260MATIAS, REYNALDO DBU RAEMAT                             10501
A4101400390000000034095DELA CRUZ, ALYSSA   OR                                  10510
A0301400530000000065741RAGADE, DIVINA S. OR                                    10502
A0101413280000000312643CARLOS R. ATAYDE OR                                     10501
A0101406590000000568714REVIL, VICENTE HOMER B. OR                              10501
A0101406590000000568725SANTILICES, MA. CHACHA DBU                              10501
A0601400520000000786472SANCHEZ JR., JAVIER T. OR                               10501
A0101400730000000834402MARIAN B. TUAZON AND                                    10501
A0101400730000000834424CARLO GRIELLE B. PALMARIA                               10501
A4101400390000000975300ALBELDA, RONNEL DBU PRETORIAN                           10501
A4101400550000000981653FONTEJON, DAVY I. OR                                    10503
A0101408240000001038562FERNANDEZ, CHARLES HESED OR                             10501
A1001400480000001054671SOLIMA, ELEUTE DBU EBSO ENTERPR                         10505
A0101413570000001069501MEMBERS OF NATASHA                                      10501
A4101400550000001332370RODRIGUEZ, NELIA GENER OR                               10501
A0101400730111083701001MARC C. DOCALLOS AND                                    10501
A0101401830141711776001MARQUESES, AUGUSTO UMALI OR                             10501
A1301400470252583063001MAGTANGGOL M. ALVAREZ OR                                10501
A3401400280318267620001DARREN S. SAN ANTONIO OR                                10501
A0101402510341331222001ERLINDA RECOCO OR JOHN PAUL                             10501
A0101408370382207662001DR. CELSO F. BATE OR                                    10501
A0101402770391473263001LEONARDO, DANILO OR                                     10501
A2401400180411478374061JUNRES AGAD OR                                          10501
A0501400170481253055002VELASCO, MELANDREW T. OR                                10504
A3801400170490784760001EDYLOU B TEJIDO OR                                      10501
A0101407720602316120001LUCIA CASTRO-FORES OR                                   10501
A0101407720602396146002FRANCISCO L. ERANA OR NIEVA PAZ                         10506
A0101406750852079211001BALANLAYOS, ELISA M. OR                                 10502
A0501400170000000018260BUILDERS & CONST. SUPPLY                                20500
A4101400390000000034095DELA CRUZ, EVANGELINE OR                                20500
A0301400530000000065741RAGADE NESTOR A.                                        20500
A0101413280000000312643CARMEN M. ATAYDE                                        20500
A0101406590000000568714REVIL, JO KRISTINE C.                                   20500
A0101406590000000568725SANTILICES TRADING                                      20500
A0601400520000000786472SANCHEZ, JOAN TERESA S.                                 20500
A0101400730000000834402ALVIN S. TUAZON                                         20500
A0101400730000000834424CESAR D.PALMARIA                                        20500
A4101400390000000975300TRANSPORT SERVICES                                      20500
A4101400550000000981653FONTEJON, MA. LUISA A.                                  20500
A0101408240000001038562FERNANDEZ, STEPHANIE ANNE                               20500
A1001400480000001054671ISES OR SIO, ELEUTERIO DY                               20500
A0101413570000001069501SUSANA B. SANTOS                                        20500
A4101400550000001332370RODRIGUEZ, NELIA THERESA                                20500
A0101400730111083701001JOAN MICHELLE FULTON                                    20500
A0101401830141711776001GARCIA, CARMELO AQUINO                                  20500
A1301400470252583063001CELERINA M. ALVAREZ                                     20500
A3401400280318267620001CATHERINE A. SAN ANTONIO                                20500
A0101402510341331222001ROQUE OR ROLLY BOY ROQUE                                20500
A0101408370382207662001MRS. SOPHIA S. BATE                                     20500
A0101402770391473263001LEONARDO, MA. CONCHITA                                  20500
A2401400180411478374061NORMELITA BLANCO                                        20500
A0501400170481253055002VELASCO, MA. TERESA V                                   20500
A3801400170490784760001JANE C TEJIDO                                           20500
A0101407720602316120001MIGUEL EDGARDO FORES                                    20500
A0101407720602396146002ERANA OR ROWENA ERANA                                   20500
A0101406750852079211001EMBESTRO, MYRNAL                                        20500
B0101406880000000027181IZ INVESTMENT HOLDINGS, INC.                             1602
B0101401830000000033570CARITAS SALVE CREDIT COOPERATIVE                         1602
B1601400170000000036046BICOL AUTOCARE CORPORATION                               1602
B1001400480000000133553DYNO FINANCE CORPORATION                                 1610
B0301400790000000435681ROTARY CLUB OF WEST DAVAO                                1603
B0101413730000000469687************************                                 1605
B0101400150000000633101NORTH NEGROS BIOPOWER INC.                               1602
B0301400530000001009841GUO, YUANSHEN                                            1602
B0101411110000001037110ROLL YOUR OWN (RYO) INTERNATIONAL M                      1620
B0101413440000001085621R-II BUILDERS, INC.                                      1602
B0101401700041189031003JONATHAN C. TUBLE                                        1610
B0301400660194469662088**********                                               1602
B0301400660194469662168*****                                                    1604
B1001400190231033214002RD CASH PADALA, INC.- CAGAYAN                            1603
B0101405650322034238001APLAYA LAIYA CORPORATION                                 1603
B0101409050352044426001DELTA CONCRETE CORPORATION                               1615
B0101405490392030409001RRS ELECTRIC CORPORATION                                 1603
B0301400820409094648001LADAGA, SHERRYL E.                                       1602
B0101403450521035140001********                                                 1601
B2201400250561047892002PAGASA PHILIPPINES LENDING COMPANY, INC.                 1605
B0101409920650044950001EINSTEIN SCHOOL FOR KIDS, INC.                           1601
B0101411950680046980001AQUA MEGA, INC.                                          1601
B1301400500684029282001L5 & SONS FINANCING CORP.                                1606
B01014075606860063480015 R  AGRO INDUSTRIAL CORPORATION                         1601
B0101413990000000206113DRCB SQUARE CONSTRUCTION AND DEVELOPMENT                11601
B1101400120000000652442GICABAO, KATHLEEN JOY NG OR                             11603
B0601400230891647141001PATERNO &/OR MA EVANGELINE LUCIANO OR                   11605
B0101413990000000206113CORPORATION                                             21600
B1101400120000000652442GICABAO, BONGKOK                                        21600
B0601400230891647141001JOANNE K PALO                                           21600
B0201401280379821100608**********                                               2002
B0201401280379821200608**********                                               2002
B0101403450521821100608**********                                               2030
B0101414960522821100608**********                                               2002
B0101414960522821200608**********                                               2002
B0101407720602821100608**********                                               2002
B3201400190694821100608**********                                               2002
B3201400190694821200608**********                                               2002
