F0101400570281499091001DR. EDGARDO R. CORTEZ                                    2504CKO
F0201400760374050546001MANASTEEL CONSTRUCTION                                  12502CKO
F4101400260812478302001CHITO Y. OLBIDO OR                                      12505CKO
F4101400260812523760002RHEA NIERE OR                                           12501CKO
F0201400760374050546001MANAGEMENT & CONSULTANTS                                22500CKO
F4101400260812478302001AGNES C. OLBIDO                                         22500CKO
F4101400260812523760002ARIS NIERE                                              22500CKO
F0101408400000000029616SYNERGY SYSTEMS, SALES & SERVIC                          2601CKR
F0101406620273031795001FIRST VITA PLUS MARKETING CORPO                          2602CKR
F0201400180181041625001CEBU HYBRID FARMS CORPORATION                            2702CKC
F0201400180181047201198HINGSING COMMERCIAL CORPORATION                          2702CKC
