A2401400180000000073469TAPUZ, JOSEFINO TORCUATOR                                0501
A0101404680000000120145MARILYN PANDUNGAN                                        0501
A0101404680000000120292MICOLOB, CARMELINA DAPITAN                               0501
A4101400420000000120890MARIA ELIZABETH G. PINEDA                                0501
A0301400660000000194843MADJUS, ROLITO NANTIN                                    0501
A1301400500000000213390********                                                 0502
A0101401670000000237676MAGTOTO, CHRISTIAN ALLAN L.                              0501
A0301400820000000316681CELIS, WILMA F.                                          0501
A0101405490000000355593EMILY C. PALLON                                          0501
A0101404680000000384252ZARAGOZA JR., ISIDRO NOVERO                              0501
A0101409890000000437416DE JESUS, NAZARINA ONG                                   0502
A4101400260000000469329FALCUTILA, MARISSA RAMOS                                 0502
A0101411530000000741695KIERULF, VICTOR DE LARA                                  0502
A0101406460000000847752ROQUE, CHRISTOPHER JOHN LUCERO                           0502
A0101412050000000890740********                                                 0501
A1001400350000000922138PARDINAN, JULIET GALINADA                                0501
A3001400130000000931351VILLAMOR, DIOSCORO AMANG                                 0503
A0601400360000000978856CAPAN, LITO ROSE SANTIAGO                                0502
A0601400230000001062344MUNOZ, MYLIN SANTOS                                      0502
A0101410140000001074993RAMOS, MA. THERESA FUENTES                               0502
A3101400450000001104043CARANZO, MARI BAGACINA                                   0501
A0201400760000001139884LANIT, RACHEL CONTEMPLACION                              0506
A3001400130000001271501DUBOUZET, ZENAIDA DAGASDAG                               0501
A3101400160000001276028CARIAS, FRANKLIN HERNAEZ                                 0501
A0101411400000001280302DIEGO, LYNDEN DE DIOS                                    0501
A0101410690000001284373NINO, GLORIA RAMOS                                       0501
A1301400760000001295358JONALYN F. ALVAREZ                                       0501
A0101400150000001422053VILORIA, NELSON SADANG                                   0502
A0101406620000001686702SINCONEGUE, FELIX                                        0501
A4101400420000002084373ALER III, DIOSDADO MARTINEZ                              0501
A4101400420000002084533VALDISIMO, JENNIFER GEREZ                                0502
A0101404130000002121102LEDESMA, STEPHANIE BEATRICE JAN                          0501
A0101405490000002141042ALCOREZA, MA.SALOME SISCAR                               0503
A0101404000000002258437MADLANGBAYAN, MARA MALLARI                               0501
A0101411240000002332412SAQUIN, JHOANNA CRUZ                                     0501
A1901400290000002926685MARIA DIVINA AMADOR DUQUE                                0501
A1901400290000002926696ARLENE REYES MINDANAO                                    0501
A0101401250021185179001CABRERA, ZENAIDA SANTOS                                  0501
A0101401830141409771001ALRIC P. BOBO                                            0501
A0101401830141752259001CARANDANG, FREDERICK ANGELES                             0503
A0101400440161266594001EMMANUEL A. BILLONES                                     0501
A0101400440161520766003HELEN S. ALBIA                                           0501
A0101400440161525001088MARIA ELENA B. BONCALO                                   0501
A0101400440161525001153JENNY P. CRUZ                                            0502
A0101407270162333154022JESUS R. MONTEMAYOR                                      0502
A0301400660194507916001*****                                                    0501
A0101407140213193257001**********                                               0501
A0101407140213223605003**********                                               0502
A0101407140213509989001**********                                               0503
A3101400450223033954001LHSC DIAGNOSTIC LABORATORY                               0505
A1001400190231520766110MAYOR, CARMELITA ANGCAY                                  0501
A1001400350233777505001CESAR, NEMAS ACERA                                       0501
A1301400470252508219001ARACELI S. ANG                                           0503
A1301400470252532242001CONSTANCIA C. DACUMOS                                    0501
A1301400470252638757001**********                                               0503
A0101406460272377244001ALA, JESSIE ATENTA                                       0501
A0101408660274298552001DELA SOLEDAD JR., JOSE E.                                0501
A0101400570281360412001DR. LONABEL A. ENCARNACION                               0502
A0101400570281388539058GISELLE A. MINA                                          0501
A1101400120313478374116MASIN, NANCY KELISTE                                     0501
A1101400120313478374123EBUENGA, JULIE C.                                        0501
A6601400120314478374006THELMA BALATAY                                           0502
A6601400120314614489001ARANDIA JR., GERMAN OR SHIRLEY                           0501
A3401400280318763645001DESAMPARADO, NOVA NAVARRO                                0503
A0101405490392016165001FRANTER TRADING & CONTRACTOR                             0504
A0101405490392478374008MARGARITA R. CIELO                                       0501
A0101403030441239449002**********                                               0501
A0101403030441528979002**********                                               0505
A0501400170481252349002LALAS, MAEVA DELA CRUZ                                   0502
A1401400110492372983002FLORES, MYRNA ABAYLE                                     0501
A0101406880513571738001JOSIE J. LARA                                            0502
A0101403450521238152001**********                                               0502
A0101403450521238152002**********                                               0505
A0101403450521238152003**********                                               0502
A0101403450521563148001**********                                               0501
A0101404000551564985001TORCULAS, LYNNIE ANN LAGARDE                             0502
A0101404130601478374010FERNANDO, MARINO A.                                      0501
A0101407720602485188001BASBAS, CRISTIE APURADO                                  0501
A0101404260611033707001RISE COLOR ENTERPRISES                                   0501
A0101404260611150837001EMILIANO OR MARIETTA REYES                               0501
A0101404260611155266001YU, SUSANA OR EDDIE                                      0501
A0101404260611478374091ROSITA LLANES                                            0501
A0101409890649790108001LI, KAREN JANE FRANCISCO                                 0501
A0101404680651230380001ROMEO C. RUBI                                            0501
A0101404680651478374157EVANGELINE G. GARDOCE                                    0501
A0101404680651520766029EVANGELINE TOLENTINO                                     0502
A0101404680651520766071EMILY P. PONGPONG                                        0501
A0101404680651520766085LORENA L. REDUTA                                         0501
A0101404680651520766094MARIBEL P. CINCO                                         0501
A0101404680651520766097FLAVIANA T. PAJANUSTAN                                   0501
A0101404680651520766126MARLITA L. CUSIPAG                                       0502
A0101404680651525001023JULIET C. OBLIGAR                                        0501
A0101404680651525056001ROWENA F. OLIVA                                          0503
A1301400210682037806001MANG PABLING MARKETING                                   0502
A1301400210682045774001POP WASH LAUNDRY SHOP                                    0502
A0101407560686174180001MANUEL S. QUEROL                                         0503
A4101400260812478374005JENITA Z. PALLE                                          0501
A4101400390813248327001SARIEGO, DANILO BAGONA                                   0501
A4101400420814362781001ECOFILTERS ENTERPRISES                                   0501
A0101404840851217637095MELINDA VILLAGOMESA                                      0501
A0101404840851478374066ELSA A. ACLAN                                            0501
A0101404840851520766058JOLARIE ANN DECENA                                       0501
A0101404840851708689001OCAMPO, CELESTE LEAH PACURSA                             0501
A0601400230891606250001DAVID, JERICHO FABIAN                                    0501
A3101400160000000006464CANDELARIO, EVELYN DBU                                  10501
A0101409920000000022044LAZARO, AMOR LITA                                       10501
A5001400170000000045047ONG, LESTER UY OR                                       10505
A0101401670000000739140PESSUMAL, LOKESH KUMAR HASSARAM                         10503
A1901400290000001363042SIASON, JEMALYN P.                                      10512
A0301400950000001379591BARICUATRO, THOMAS JASON DBU                            10502
A0101407270000001597022ERNESTO C. DELA DINGCO OR                               10501
A1301400340000002283752JUANITO C. IGNACIO OR                                   10502
A0101400730111198710001FERNANDEZ, HENRY F. OR                                  10502
A0101400730111334462002MARIETTA L. ADORABLE OR                                 10501
A0101401090171543197002MARY DIANE S. REYES OR                                  10502
A1901400290261087553001MARIA JEOFFRIZA SARMIENTO DIAZ                          10503
A1901400290261244348001ROLANDO M REYES OR                                      10502
A0101401670271186217002ERNESTO L. PILARES OR                                   10502
A0101401670271362575001WILLIAM OR LUZVIMINDA/MICHELLE                          10501
A2001400290315042654001GFR TIRE SUPPLY AND SERVICE                             10501
A0101405650322553972001CALUGAY, PAULO M. OR                                    10502
A0201400920375047524001CUBAROL, VILMA SARMIENTO DBU                            10503
A2401400180411478374027ELLEN PANTUJAN OR                                       10501
A2401400180411605033001SERRANO, DANIEL EMBAYARTE OR                            10505
A0101410140475339949001SANTOS, ADORACION SANCHEZ OR                            10505
A0101404260611042970001PRIMELAB-PRIMEPOWER LABORATORY                          10505
A0101404260611152420001AGAPITO A. AQUINO OR                                    10502
A3101400160000000006464RALC REALTY                                             20500
A0101409920000000022044MEMBERS OF NATAS                                        20500
A5001400170000000045047ONG, HAIDEE GO                                          20500
A0101401670000000739140OR JYOTI HASSARAM                                       20500
A1901400290000001363042DBU VONHESSEN TRANSPORT                                 20500
A0301400950000001379591GALACTIC HOME FURNISHING                                20500
A0101407270000001597022JANELITA G. DELA                                        20500
A1301400340000002283752MARY GRACE V. IGNACIO                                   20500
A0101400730111198710001FERNANDEZ, AMELI                                        20500
A0101400730111334462002DOMINADOR S. ADO                                        20500
A0101401090171543197002CRISTINA R. ADALIA                                      20500
A1901400290261087553001OR RUBYRONA D LLAVE                                     20500
A1901400290261244348001DRA. ERLINDA V REYES                                    20500
A0101401670271186217002ALICIA L. PILARES                                       20500
A0101401670271362575001OR MARIE SHARON                                         20500
A2001400290315042654001CENTER                                                  20500
A0101405650322553972001CALUGAY, KATRINA                                        20500
A0201400920375047524001NEW FRONTIER LOG                                        20500
A2401400180411478374027ELMER PANTUJAN                                          20500
A2401400180411605033001SERRANO, SYLVIA                                         20500
A0101410140475339949001SANTOS, MYRNA SA                                        20500
A0101404260611042970001MEDICAL CLINIC                                          20500
A0101404260611152420001REMEDIOS T. HERN                                        20500
B0101405940000000002951ALEXANDER COMMERCIAL, INC.                               1602
B1301400760000000007121GLOBAL CARS PHILS., INC.                                 1605
B0101413440000000038213ROMBE PHILIPPINES, INC.                                  1605
B0101412500000000041669ACETECH, INC.                                            1602
B0101412920000000042100LJS TRUC, INC.                                           1601
B6601400120000000060944COBEE CNS RETAIL, INC.                                   1602
B0301400660000000195066SAMMITO PACKAGING CORP.                                  1603
B0101407140000000266302R8 CONSTRUCTION CORP.                                    1601
B0101412920000000276700HAPI-DAY COPY KIOSK, INC.                                1601
B0101411820000000477452BOYD COFFEE COMPANY PHILS. INC.                          1603
B0101405650000000772743BF FEDERATION OF HOMEOWNER ASSOCIATION                   1601
B0101401700041619204001MELBER AUTO PARTS CENTER, INC.                           1605
B0101407270162046726001VALUE CARE HEALTH SYSTEMS, INC.                          1625
B0101407140213034002001LABEL LINE ENTERPRISE                                    1602
B0101407140213648415001STEWART GOURMET'S CHOICE, INC.                           1605
B3001400130230043534001BERRY HAPPY MART INC.                                    1606
B1001400190231010692002PHILIPPINE IRON CONSTRUCTION & MARI                      1602
B1901400290261049824001BONLOU, INC.                                             1610
B0101401670271017449001HK HARDWARE SUPPLIER CO., INC.                           1601
B0101406460272021222001ORION WIRE & CABLE INC.                                  1602
B0101406620273018522001VALYERMO TRADING CORPORATION                             1601
B0101400570281007176001ASIAN INSTITUTE OF LITURGY & MUSIC                       1602
B6601400120314665528001**********                                               1601
B2001400290315688888001**********                                               1610
B0101405650322024533001TUGADE ASSOCIATES, INC.                                  1601
B0101402640361017425005SOLID MIX CORPORATION                                    1605
B2401400180411036768001MJ CARGO EXPRESS LOGISTICS, INC.                         1610
B2401400180411040250088HOME SOLUTIONS DEPOT PLUS                                1610
B0501400170481029507001ARCINUE DEVELOPMENT CORPORATION                          1602
B0101404260611005274001ETR DEVELOPMENT CORPORATION                              1601
B0101404260611023318001EUNEE TRADERS AND CO. INC.                               1610
B0101404420631030262001LICA GAS CENTER                                          1602
B0101408240711007466001VJ PROPERTIES, INC.                                      1602
B4101400260812043809001UPLIFT DASMARINAS                                        1605
B0101401830000000033570CARITAS SALVE CREDIT COOPERATIVE                        11602
B0101401830000000059972CARITAS SALVE CREDIT COOPERATIVE                        11602
B0301400660000000195146ATING LUPA BAGONG SIMULA (ALBASI) CORPOR                11603
B1001400350000000244368PHILIPPINE GAMS GENERAL INSURANCE AND                   11605
B0101411820000000477463ALBERT WANG AND JENNIFER BORROMEO AND                   11601
B3801400170490756054001ELENIDA SIH OR MARK MARVIN SIH OR                       11603
B0101404260611005305001KING EPIPHANY HOLDINGS AND                              11601
B0101407560686686952001SKILLS INTERNATIONAL PHILS. CENTER FOR                  11601
B0101401830000000033570(MALABON)                                               21600
B0101401830000000059972(NOVA/ST. PETER)                                        21600
B0301400660000000195146ATION                                                   21600
B1001400350000000244368FINANCIAL SRVCS                                         21600
B0101411820000000477463ROBERT FABELLA                                          21600
B3801400170490756054001VIRGINIA SIH                                            21600
B0101404260611005305001PROPERTY CORP                                           21600
B0101407560686686952001TRAINING CORP.                                          21600
B0101409470632821100608**********                                               2001
