A0101406330000000011809SOLEA SHOES MANUFACTURING                                0510
A0101406620000000044000BARTOLOME, JOEMER CUYA                                   0502
A0101406590000000131728LIBUNAO, ALFREDO DE GUZMAN                               0502
A0101402510000000200164EVELYN M. TOLENTINO                                      0501
A0101406750000000358003OGAHAYON, ELVIRA AMARANTE                                0501
A0901400220000000425045LOZADA, ELIZABETH GO                                     0501
A0301400790000000436019VILLADEMOSA, JOSELITO BANIEL                             0502
A0101406330000000451392CABRERA, MARITA VICTORINO                                0501
A3801400170000000497821ELPEDIO R MORTELLA                                       0501
A0101405650000000525717TAMBUNTING, JOY MYRA SALVADOR                            0505
A0101412500000000739679FRANCISCO, JOSEPH BRYAN CRUZ                             0501
A0101408950000000776763LUQUE, MA. PAZ MILDRED                                   0501
A2401400180000000826102SORIA, DONNA DONES                                       0501
A4101400550000000900281DOCOG, CRISTETA DE JESUS                                 0501
A0101405810000001021309MERCADO, TERESITA ARSITIO                                0505
A1401400110000001096151MAANO, PHILIP SAPRA                                      0501
A1301400210000001206820MERLITA R SALAVERIA                                      0505
A1301400210000001206831RUTH S IRENEA                                            0510
A0101409180000001237321VILLAMOR, ROWENA ODTUHAN                                 0501
A0101401830000001281943ISUGA, CORAZON JOY TEANO                                 0501
A0101402510000001292400RAHMAN, NADIA GIANAN                                     0502
A0101405650000001377442MARY ANGELAINE J. LIBANAN                                0501
A0101407430000001664035KARIMMA CRISTINA B. SULTAN                               0501
A0101406620000001686713*******************                                      0501
A0101412890000001765460JANDA, ERLINDA SIGUE                                     0501
A1701400230000001786638PASCUA, MINERVA SINANG                                   0501
A0901400220000001804962**********                                               0501
A1101400120000001920503MANITO, ADELINA LUMPAS                                   0501
A2201400250000001932338EDWIN D. CHAN OR SUSANA S. CHAN                          0501
A2201400250000001932383*****                                                    0501
A0601400100000002072680MARCOS, DULCE FORTO                                      0502
A0101410850000002421205FARQUHARSON, ANNE MARIE GUIEB                            0501
A0101401830000002424346LAO, KIM MARGARETT LATAG                                 0501
A0101401250021359256001CLARA M. ASUNCION                                        0501
A0101401250021704731001******                                                   0501
A0101405810072236261001**********                                               0505
A0101405810072334553004**********                                               0502
A0101405810072343571002HUANG, LI HUI                                            0505
A0101405810072373265003MANANSALA, JOYCEE CATARATA                               0502
A0101405810072504630001LIM, BEE SUAN                                            0502
A0101400730111334903038DAX P. MALIWAT                                           0501
A0101406040112206284001DEMIE S. BULALAS                                         0502
A0101401960121362714003************                                             0503
A0101401830141037575002MATATAG PRINTING PRESS                                   0502
A0101400440161478374062MARIA E. ERLANO                                          0501
A0101400440161525001124THELMA F. ESCURZON                                       0501
A0101400440161525001183JUANITO P. LUSTERIO                                      0502
A0101407270162333006030CAROLYN R. OFILANDA                                      0502
A0101407270162770709001MARTIN WILLISON U. REYES                                 0501
A0101401090171196102001CUEVAS, DR. BERNARDO                                     0505
A0101401090171271520001CRISTINO A. CARBONELL                                    0501
A3101400450223455809001LANCION, AUREA OR JERIC                                  0502
A3101400450223466114002NATIVIDAD, GINA DUNGO                                    0503
A3001400130230767566066PONCE, ROSE MARY EBARLE                                  0501
A1001400190231464454001EMATA, EDGAR CHIANG                                      0501
A1001400190231520766121GALENDEZ, CILA PACUMA                                    0501
A1001400350233042653001BLUE ENERGY RESOURCES                                    0502
A0101401670271475286001ALBERNINA PASCUAL-LOPEZ                                  0502
A0101406460272505947001WEE JR., CESAR LEE                                       0503
A0101406620273565345001MACALINDONG, RICARDO BOBADILLA                           0501
A1101400120313478374115ROBEDISO, ERLINDA MENGOTE                                0502
A6601400120314692578001DELORINO, ELENA PLUMA                                    0501
A2001400290315053515001MASIKAP INDUSTRIAL SALES                                 0501
A0101402510341478374008MARY GRACE B. ANDRES                                     0501
A0101408790383610468011CARLA R. GARCIA                                          0502
A0101402770391217498032LEONARDO C. CASTANARES                                   0501
A0101402770391476396001DEANNE A. SARMIENTO                                      0503
A0101405490392032715001ALDEA ENTERPRISES                                        0502
A0101408950396405202001MONTECASTRO, NATHALIE TEE TEN                            0502
A1201400150421309847001SUN, MICHAEL PAJENAGO                                    0501
A1201400150421478374035DALAN, LINDA G.                                          0505
A0101403030441378112003TY, CHRISTINE NG                                         0501
A0101406330472027958001A. ANOLIN ENTERPRISES                                    0502
A0101406330472356808002CHRISTIAN E. CANGCO                                      0506
A0101406330472433642001RENATO O. CHIU                                           0505
A0101406330472766049001VERONIDIA G. DELA CRUZ                                   0501
A0101405940512530528001TIBO, KAREN CHRISSIE LEABRES                             0501
A0101403450521238269001**********                                               0505
A0101404000551229789001GUTIERREZ, ALEXANDRA KATRINA L.                          0501
A0101407720602313187002SANTOS, CHRISTINE THERESE AMURA                          0505
A0101407720602341866003SONGCO, JAIME STO. DOMINGO                               0502
A0101407720602386725001COLOMA, FAY AGARPAO                                      0504
A0101406590662283470003RAMNANI, CARMEN OR PRIYA                                 0502
A0101406590662562414001RUSTE, RUTH ALLEN ANTONIO                                0503
A0101406590662718974001BARBARA, GLENN BORLAGDAN                                 0501
A1301400210682435928001EMMANUEL DC RAMOS                                        0501
A0101407560686173318001MIKE SY OR JACQUELINE SY                                 0501
A0101407560686356563001SONNY A CHUA                                             0503
A0101407560686478374069ROLANDO PATAC                                            0502
A1701400230693478374061BAUTISTA, CRESENCIO RISCAL                               0501
A4101400260812478374017PRISCILA R. CABAMALAN                                    0501
A4101400390813526621001CARREON, WINDA LONTOC                                    0501
A0101412340850091247001ROSTRATA, DANILO DELA CRUZ                               0502
A0101404840851478374098MARITES DERAYAL                                          0502
A0101406750852478374098JOCELYN ARBOSO                                           0501
A0101406750852478374118RUBY FLAVIER                                             0501
A0101405070861081835001********                                                 0501
A0101405070861199614001CRISTITA C. PANGILINAN                                   0502
A0101405070861380698001REYES SR., RENATO SISCAR                                 0501
A0101405070861462736001***********                                              0505
A0101405070861478374066ELMER LADRES APAS                                        0501
A0101405070861780080001SALCEDO, RAYMOND GALLARDO                                0501
A0101406330000000011729GILBERT MILANA DBU GLOBE                                10502
A1001400350000000017810RITCHE G. ROSAL OR                                      10501
A1001400480000000041523PO, MARILOU TRAJANO OR PO,                              10502
A1301400470000000061463DEUS, MARIA ELNORA DE GUZMAN                            10505
A0101407560000000477721SABADO, MARISSA OR                                      10502
A0101406590000000568725SANTILICES, MA. CHACHA DBU                              10502
A0101408790000000579391ARNEDO, MARIA VERONICA CONSUELO                         10503
A1101400120000000652500UY, TINONG Y. OR UY, BELINDA C.                         10502
A0101405070000001124190RIZALDY MANIQUIZ OR                                     10501
A0101413990000002422873BUENVIAJE, MICHELLE PILAR C. OR                         10501
A0101400150061504368001CELEBRE, EDGAR T. OR                                    10502
A0101401960121362714001VILMA GUANLAO OR                                        10505
A0101407270162479362001ERYMAR D.C. REYES OR                                    10501
A3101400160221220150002ANGELITO LAZARO OR MARCIANO PUA                         10502
A0101405650322294619002VESES, LILIA HERNANDEZ OR                               10502
A0101408370382394648002DRS. IRMA GERONIMO TAN NUNEZ OR                         10503
A0101405490392563453002ALLAN L. DE GUZMAN OR                                   10501
A0101408950396047389001MELROSHEAN CONSTRUCTION                                 10502
A1201400150421041545001J33 INTERNATIONAL TRADING &                             10501
A0101406330472513785001KENT HUBERT LEE OR                                      10502
A0101406590662519616001MATEO, ARLYN OR LORENZO JR. OR                          10502
A0101406590662650417001RAISSA LACSON OR SHERYLL ANN                            10502
A0101406330000000011729MARITIME TRAINING CENTER                                20500
A1001400350000000017810RUTHEL G. ROSAL                                         20500
A1001400480000000041523MAUREEN TRAJANO                                         20500
A1301400470000000061463OR TAGO, ANA LIZA VELARDE                               20500
A0101407560000000477721SABADO, RIZALDY                                         20500
A0101406590000000568725SANTILICES TRADING                                      20500
A0101408790000000579391SALVADOR                                                20500
A1101400120000000652500UY, STEPHANIE GR                                        20500
A0101405070000001124190GENEFIR MANIQUIZ                                        20500
A0101413990000002422873BUENVIAJE, JOHN JERICHO D                               20500
A0101400150061504368001CELEBRE, CECILIA                                        20500
A0101401960121362714001VALERIANO GUANLA                                        20500
A0101407270162479362001AUBREY S. REYES                                         20500
A3101400160221220150002OR LEONILO ERCIA                                        20500
A0101405650322294619002VESES, ANTONIO M                                        20500
A0101408370382394648002ANTHONY RICHAR G. NUNEZ                                 20500
A0101405490392563453002MARIVEL R. DE GUZMAN                                    20500
A0101408950396047389001CORPORATION                                             20500
A1201400150421041545001DEVELOPMENT CORP                                        20500
A0101406330472513785001MELISSA JOY TAN                                         20500
A0101406590662519616001LORLYNN OR GERRA                                        20500
A0101406590662650417001SOBREMONTE OR RACHEL YU                                 20500
B0101411530000000013572ELIXER MULTI-PURPOSE COOPERATIVE                         1610
B0101405810000000016833JDS MINDORO ENTERPRISES CORP.                            1601
B0101401830000000033649CARITAS SALVE CREDIT COOPERATIVE                         1602
B1901400320000000041294YANA MARKETING & DISTRIBUTION SERVICES                   1601
B6601400120000000060900NORTHERN SAMAR ELECTRIC COOPERATIVE, INC                 1601
B0101405070000000428966ONEWORLD ALLIANCE LOGISTICS CORPORATION                  1605
B0301400790000000435783CAPCOR MOTORS CORPORATION                                1603
B0101400150000000633436HUBB STORES AND SERVICES, INC.                           1603
B0101400150061010814001TONE GUIDE PRESS, INC.                                   1604
B0101405810072029570001PLASTIC CONSUMERS CORPORATION                            1603
B0101405810072034989001TRANSWELL ENGINEERING CO.                                1602
B0101405810072416918001**********                                               1601
B0101401830141205618002ST. JOSEPH SCHOOL OF PANDACAN, INC.                      1610
B0101407270162008343001SPECIALIZED TRADE & MARKETING, INC                       1601
B0101407270162019008001ORIENTAL & MOTOLITE MARKETING CORP.                      1610
B0101407270162046726001VALUE CARE HEALTH SYSTEMS, INC.                          1650
B0101407270162046726001VALUE CARE HEALTH SYSTEMS, INC.                          1650
B0101407140213047430001BIG RED DIGITAL IMAGING                                  1602
B0101406620273009530001MCRP CONSTRUCTION CORPORATION                            1603
B0101405650322018681003LANDCO PACIFIC CORPORATION                               1605
B0101405650322018681007LANDCO PACIFIC CORPORATION                               1605
B0101405650322018681012LANDCO PACIFIC CORPORATION                               1605
B0101405650322036086001VISTALAND INTERNATIONAL MARKETING, INC.                  1605
B0101402770391029703001MITSUBISHI MOTORS PHILIPPINES SUPERVISOR                 1601
B0101402770391042395001TRADEQ MERCHANDISING                                     1601
B0101403320471035758001***                                                      1603
B0101405940512510160001SIMPLY GREAT DELI INC.                                   1604
B0101408530516034772001INFOSTORAGE CORPORATION                                  1603
B4101400260812039799001LAGAMAYO DENTAL CORPORATION                              1602
B0101405070861008321001FAIR SHIPPING CORPORATION                                1605
B0101405070861028566001AVESTA REALTY, INC.                                      1601
B0101402770000000080704YOUNG HAN KWON OR YOUNGOK KWON OR                       11601
B0101413570000000206453DIAMONDS STARS PACKAGING RESOURCES                      11602
B1101400120313543446001TY CHAN HAI,SANTIAGO OR TY,LISA OR TY,                  11602
B0101402770000000080704MARIZEL CLARIDAD                                        21600
B0101413570000000206453CO., INC.                                               21600
B1101400120313543446001SHANE LAWRENCE                                          21600
