F0101414670000001340652****                                                     2503CKO
F0101407720602404950001ADAPON, MARY ANN ARKONCEL                                2502CKO
F1301400210682496862001ROSARIO C PEREZ   OR                                    12502CKO
F1301400210682496862001EDGARDO J PEREZ                                         22500CKO
F0101402640000000032680NOVISTELLE INTERNATIONAL CORP.                           2602CK1
F0101403580511024261003A.R.M. RESOURCES, INC.                                   2610CKR
F0101403580511378857001ARM WAREHOUSE MANAGEMENT &                              12605CKR
F0101403580511378857001CONSULTANCY SERV                                        22600CKR
