F0201400180181029800001YOUNGMAN HAULERS SAND & GRAVEL                           2602CKO
F0301400110191047580144MEGA DURIAN MOBILE GROUP, INC.                           2601CKR
F0101408110515017722007STORES SPECIALISTS, INC.                                 2602CKO
F1301400500684054788005ARRAYSTECH DIGITAL SYSTEMS INC.                          2605CK1
F1301400500684054887002KINGLIFTER EXPRESS INC.                                  2605CK1
F4101400260812031790001SY ON INC.                                               2610CKO
F0201400920000000047841CREATIVE IMAGE AND INSIGNIA                             12602CK1
F0201400920000000047841CLOTHESLINE INC.                                        22600CK1
