A0101405810000000016548***************                                          0501
A2401400180000000019872PABLO, SHARMINE IRISH MORALES                            0501
A1301400210000000023309JERRY R CALING                                           0502
A0301400660000000048360DOMINGO, LAARNI GARCIA                                   0501
A0201401020000000055952DANO, JOSIE DANAS                                        0501
A1601400170000000099150HERMELINA E. ROSAL                                       0501
A1901400290000000135220MARGGIE LUMBERA SALES                                    0501
A0101413860000000145020DASIGAN, ANGELITA GONZALES                               0501
A0101411530000000178916BELLAFLORES, JOY DE CASTRO                               0501
A0301400660000000194701MIJARES, JEFFRAY CASTIGON                                0501
A0101413600000000206799GUTIERREZ, DANIEL CABOTE                                 0501
A0101401670000000237665CORA LIZA CLAUDIO                                        0502
A0101402770000000360887AILEEN DAVID RIOS                                        0501
A0101408820000000408837JAVIER, FRITZIE PAGALUNAN                                0501
A1301400210000000540958SYDNEY ENTERPRISES                                       0503
A2601400270000000561864KELLY C. TSANG                                           0501
A0101413440000000570314ALVIOR, ROSAL PIOQUINTO                                  0501
A0101411660000000595284MEILANI R WONG                                           0501
A0101413440000000702065CABRERA, LEOTHENY ALBANO                                 0501
A0101413440000000702492*********                                                0501
A0101413440000000702509INFANTE, JHON EDISON RAMOS                               0501
A0601400520000000786483GALANG, JENNY DUENAS                                     0501
A0101402060000000793886CRUZ, CRIS HERBERT MARTIN                                0501
A0101408820000000800268DOMINGO, SALVACION MATA                                  0501
A2401400180000000826102SORIA, DONNA DONES                                       0501
A0101400730000000849236LUMAGA, JOANALYN PONTERAS                                0501
A0101404420000000866393JENEVEB E. SALAYSAY                                      0502
A0101401700000000890444**********                                               0501
A0101401250000000906941ACUESTA, ANGELITO TAN                                    0501
A0101404680000000940829VIRGIE C. CAIS                                           0501
A0101404680000000940881HENRY JAMES L. ABILA                                     0501
A3101400870000000957746FELIX, MALINDA DAGUIO                                    0501
A0101407560000000990405HEBRES, YOGI PIA BANAL                                   0501
A0101407560000000990438****************                                         0501
A0101400860000001005401**********                                               0502
A0101412340000001017645DACUNO, JUVELYN FERNARDEZ                                0501
A0101411240000001026840SANTIAGO, LOLITA MALLARI                                 0501
A0501400170000001072695XXXX                                                     0501
A0101403610000001174583BELTRAN, BERNARD AUSTRIA                                 0501
A0101406330000001235001VERTEX SECURITY AGENCY                                   0501
A0101406330000001235034OPIANA, JOEL CAYETA                                      0501
A0101406330000001235045ERFE, EMMANUEL SERRAON                                   0502
A0101402770000001284511MARINA RAFLORES SAGUN                                    0502
A0101409210000001294231MAGCALE, MERLY DELA TORRE                                0501
A0101400440000001439629VISITACION N. ORDANEZA                                   0501
A0101400860011412773001**********                                               0505
A0101400860011443455002**********                                               0505
A0101401700041024130001AARON SAMUEL INC.                                        0505
A0101401700041192071001**********                                               0505
A0101401700041565412001COMEDA, MARIO TADURAN                                    0505
A0101400150061039917027TRONCOSO, ANICETO                                        0501
A0101400150061039917027TRONCOSO, ANICETO                                        0501
A0101405810072234635002DY, SUSANA                                               0501
A0101405810072367320001**********                                               0506
A0101400730111382955001PRADO, EDWARDO BAARDE                                    0503
A0101400730111412858025JOVITA R. GARCIA                                         0501
A0101400730111478374137ALAN J. CASTRO                                           0501
A0101400440161039572045DOVIE T. JERMIA                                          0502
A0101400440161478374107MARITES R. CRUZ                                          0503
A0101407270162370131001CHERRY PIE S. PICACHE                                    0503
A0301400660194725413001ALTAMIRANO JR., RAFAEL CLEMENTE                          0501
A0101407140213190303001**********                                               0502
A0101407140213483164001TAN, WILLIAM LAO                                         0502
A0101407140213709497001SZE, JACKSON NG                                          0501
A3101400450223223556001*****                                                    0505
A1901400290261567865001ALEX IAN SISON DE LA CRUZ                                0501
A0101408660274346120001SHI, FENG LIAN CHEN                                      0501
A0101400570281022080002COSMOPOLITAN AD                                          0505
A1101400120313478374014ANDALES, IMELDA A                                        0503
A0101405650322172009001EUGENIO, EUGENIA BUSTAMANTE                              0501
A0101408820333756885001CO, RONALD ALLAN MAQUIRAYA                               0501
A5501400120410047720008********                                                 0506
A5501400120410283898001GARCIA, JOSIE OR GERARDO                                 0510
A2401400180411272614002BALAYO, JOEL BASCO                                       0510
A2401400180411387375001AMADEO, ANNIE MILES JT                                   0502
A2401400180411557817001CABOTE, LIDIE CRIS YUMIE C.                              0501
A2401400180411584752001AMADEO, MARY MAGDALENE MILES                             0502
A0101403030441239449002**********                                               0501
A0501400170481502737001GILLERA, NECITAS RAMOS                                   0501
A1401400110492606092001INGENTE, MARY GRACE MERILLO                              0501
A1401400110492620230001DELOS SANTOS, ENRICO PEREZ                               0503
A0101403450521240285002**********                                               0502
A0101403610531221063001BATAC, ROBERTO P.                                        0501
A0101407720602163514002LAGOS, MARIA THERESA                                     0502
A0101407720602499900001***************                                          0501
A0101407560686478374069ROLANDO PATAC                                            0502
A0101404840851478374171LORENA A. ARES                                           0501
A0101404840851478374183ISABELITA P. MAMUYAC                                     0503
A0101404840851540221001ROBLES, RENE TUGANO                                      0501
A0201401020000000056120AY AD, ARMANDO PABUHOT OR                               10501
A1901400290000000135242PEAKSUN MARKETING AND                                   10501
A2201400250000000141200NOEL M. ESPINOSA DBU N.M                                10501
A0101413860000000145008GALICIA, MARY ANN GONZALES JT                           10501
A0101410300000000191917CABARRUS, GRACE K. OR CABARRUS,                         10501
A0101412180000000259501CABEBE JR., BER DBU B. CABEBE                           10502
A0101410980000001154283EVELYN C. CHOA OR                                       10502
A0101403610000001174590LUNA, CESAR SANTIAGO OR                                 10502
A0101401250021463862002LEDESMA, SUZETTE SALINAS OR                             10502
A0101401090171195137001DRA. ESTELA RIVERA OR                                   10502
A3101400160221220514001ROLANDO TURICA OR                                       10510
A1901400290261552901001JOEY CRISOSTOMO MOISES OR                               10503
A0101406620273489416001TANCHULING, PATRICIA IRIS OR                            10502
A0101408370382489193001DR. MICHAEL EDMOND S. DAZO                              10501
A0101403610531430756002GERTRUDES A. SALVADOR OR                                10503
A0101404260611018041001JP LONEZA CONSTRUCTION                                  10502
A0101408240711396778001MA. FRANCESCA ROMANA OR                                 10501
A0201401020000000056120AY AD, MARY JOVIE PASTOR                                20500
A1901400290000000135242MANPOWER SERVICES                                       20500
A2201400250000000141200ESPINOSA CONSTRUCTION                                   20500
A0101413860000000145008DAVID, ERLINDA                                          20500
A0101410300000000191917GEORGE DENNIS K.                                        20500
A0101412180000000259501ENGINEERING AND CONSULTIN                               20500
A0101410980000001154283MAUREEN GIZELLE C. CHOA                                 20500
A0101403610000001174590LUNA, MA. TERESA PEGA                                   20500
A0101401250021463862002LEDESMA, SANDRA                                         20500
A0101401090171195137001LEAH SOCORRO RIVERA                                     20500
A3101400160221220514001ROSARIO TURICA                                          20500
A1901400290261552901001ANALIZA GUTIERREZ MOISES                                20500
A0101406620273489416001TANCHULING, VINC                                        20500
A0101408370382489193001OR ARLENE S. DAZO                                       20500
A0101403610531430756002LEONOR A. HADUCA                                        20500
A0101404260611018041001& TRADING                                               20500
A0101408240711396778001PHILIPPE SEYER                                          20500
B0101412890000000006919VAMECA FOODS INCORPORATED                                1602
B0101406330000000162707RIGHT GOODS PHILIPPINES INC.                             1602
B0101409050000000258491INFORMATICS COLLEGE CALOOCAN, INC.                       1603
B0101400440000000335453SAGUDO, ELLEN SANCHEZ                                    1601
B0101400440000000337820JOSE J. INGARAN                                          1601
B0601400520000000398512PAGASA PHILIPPINES LENDING COMPANY, INC.                 1603
B0101400150000000633174MEGA TREND FOREX CORPORATION                             1601
B0101407270000000830653LA RIE FINE JEWELRY CORPORATION                          1601
B0101407720000000885510PALAFOX ARCHITECTURE GROUP INC.                          1601
B0101400860011484634001**********                                               1603
B0101401700041509837001MIT-TOYO PARTS CENTER INC.                               1612
B0101400150061011058001CHATHAM HOUSE CONDOMINIUM CORP.                          1605
B0101400730111008593001TITAN TRAVEL & TOURS, INC.                               1602
B0101407270162027502001LUCKYWIDE ENTERPRISES, INC.                              1605
B0101407270162038101001BIRDS INTERNATIONAL, INC.                                1603
B0101407270162040422001******                                                   1602
B0301400660194469662088**********                                               1603
B0101407140213034002001LABEL LINE ENTERPRISE                                    1602
B0101407140213035235001**********                                               1602
B1001400350233013980001VIC IMPERIAL APPLIANCE CORP.                             1603
B1901400290261023962003CAROUSEL ENTERTAINMENT CORPORATION                       1605
B1901400290261028075001VERGARA'S ENTERPRISES, INC.                              1601
B1901400290261034107001FIESTA WORLD MALL CORPORATION                            1610
B0101406620273009741001EAST WEST CENTER ALUMNI ASSOCIATIO                       1601
B0101406620273027272003PEARL OF BORACAY LAND HOLDINGS CORP                      1604
B0101406620273034224002JDS CONSTRUCTION PHILS., INC.                            1601
B6601400120314415183002UY, CHRISTIAN EMMANUEL WAN                               1601
B0101403030441336479001**********                                               1603
B0101406330472020438001DAROMAR DEVELOPMENT CORP.                                1605
B0101408530516035673001FERROTECH STEEL CORPORATION                              1608
B0101403450521031323001******                                                   1601
B0101403610531659842002DELAMO LENDING INVESTOR CORPORATION                      1602
B0101408240711033368001ST. ELOI PAWNSHOP OPERATORS, INC.                        1601
B0101413020000000038366ENRIQUEZ, ENRIQUE LINA AND VILLALVA,                    11602
B0101412500000000041738ABBU,SANTAMARIA,ESTONIDO & ASSOCIATES                   11602
B0101407270162034627001GREAT SMILE INTERNATIONAL DENTAL                        11603
B0101403030441631353001ANG CHING HUAN & SONS RESOURCE                          11605
B0101413020000000038366CORAZON C.                                              21600
B0101412500000000041738DESIGN GROUP                                            21600
B0101407270162034627001LABORATORY INC.                                         21600
B0101403030441631353001PHIL                                                    21600
B0101400150061821100608**********                                               2020
B0101409890649821100608**********                                               2003
