F0101401090171195635002ELVIRA OR MARIO OR ABIGAIL MILO                          2505CKO
F4101400260812478302001CHITO Y. OLBIDO OR                                      12505CKO
F4101400420814483739001PARAS, RONALDO MANELA OR                                12503CKO
F4101400260812478302001AGNES C. OLBIDO                                         22500CKO
F4101400420814483739001VIDALLO, ALBA PA                                        22500CKO
F3201400190000001493078*********                                                2602CKO
F0901400220432036201088MINDPRO INCORPORATED                                     2612CKR
F4101400260812038727001METRO CAVITE HEALTH SYSTEM INC.                          2610CKR
F3101400870225054366001NEW ROCKFORD MANUFACTURING                              12604CK1
F0101403610531041592001EVANGELISTA MEDICAL SPECIALTY                           12605CKR
F3101400870225054366001CORPORATION                                             22600CK1
F0101403610531041592001HOSPITAL                                                22600CKR
