A2801400100000000004720REYES, MYRA DBU MRC DENTAL CLIN                          0501
A0101400600000000007707**********                                               0503
A0101411110000000009145DAVID, ACE MENDOZA                                       0502
A0101403580000000016082SWEET BELLA DESSERTS                                     0508
A0101408110000000016800999 FOOD AND BEVERAGE                                    0509
A0101401700000000040137CENIZA, ARLENE ZUNIGA                                    0501
A0701400260000000040980ALBEUS, JESSIE ROQUE                                     0501
A1001400480000000041487ERFE, ERLINDA GALA                                       0501
A0101401380000000106641CANOTAL, ANGELA JELIANG                                  0501
A0101404260000000156756JARDIN, MILDELITA VILLENO                                0501
A0101410300000000191655******                                                   0501
A0301400660000000194843MADJUS, ROLITO NANTIN                                    0502
A1301400500000000213436ROSALINDA P. CASTILLO                                    0501
A0301400820000000316572LOURDES N. DAYRIT                                        0501
A0101414090000000399402GRIPAL, MA CRISTINA VALLE                                0501
A0601400230000000452793CAYANAN, REYNALDO MERCADO                                0504
A0601400230000000498551TOLENTINO, BRYAN ABALOS                                  0501
A0101400150000000525411ORDONEZ, GINA MARINA PANGILINAN                          0501
A0101405650000000525893BANTIGUE, AMPARO ANISCO                                  0502
A0101404260000000532283UNI STOP DRUG & GENERAL MERCHAN                          0501
A0301400950000000566694HEINTJIE M. CARMONA                                      0502
A0101407690000000587800FLORIZZA G. SISON                                        0501
A0101408820000000800188********                                                 0502
A0101413020000000880371DE GUZMAN, MA DONNA REMPIS                               0502
A1001400350000000922014PEARSON, PILARCITA ROA                                   0501
A0101404680000000940932ROSEMARIE T. CARIAGA                                     0502
A0101406620000000962243ROXAS, MANUEL ROQUE                                      0501
A0101409050000000999528TRIA, JAYA PATRICIA MAREE DE GU                          0502
A0101412890000001056400NEPOMUCENO, LUZ GERONIMO                                 0502
A6601400120000001065292AOYANG, DONABEL CERBITO                                  0501
A0101412500000001146792BELLEZA, JOY DELA CRUZ                                   0502
A6601400120000001370467FLORALDE, DOLORES ESTAVILLO                              0501
A6601400120000001370525DE LEON, LEONILA CARDENAS                                0501
A0301400530000001409621ARASA, ELEUTERIA A.                                      0501
A0601400100000001442808BERNARDO, LILIAN VILLAPANA                               0502
A0101401090000001619001BRIONES, ESTRELLA ALMEDILLA                              0501
A0101404260000001725344NOGALES, RAQUEL                                          0501
A0101407560000001770798JCN PLASTIC PACKAGING                                    0501
A0101403320000001803065BIGORNIA, GISELLE MORA                                   0501
A0101410140000001939940REGODO, EDITA SANOZA                                     0501
A0101410140000001939951AZIS, NORANIA MACMOD                                     0503
A0301400950000002115253**********                                               0502
A0101407560000002152596HERNANDEZ, ROLANDO RIVERA                                0503
A0101413150000002299261******                                                   0501
A0101407560000002307637DY, TANNY CHAI                                           0501
A0101407690000002348832ALUNDAY, TERESITA AREVALO                                0501
A0501400170000002354565VIDAL, EMILY DALIOAN                                     0501
A0101408240000002821741ORDANZA, BERNARD MANUEL                                  0501
A0301400950000002975068**********                                               0501
A0301400530000003088048MINER'S CHEMICAL INDUSTRIES COR                          0504
A0101408950000003171291MAGNAYE, MARIA GRACIA SAPIN                              0501
A0101414090000003314752LEE, JONGKEUN                                            0501
A3101400870000003505553DUMAYAS, MARICEL AMIT                                    0501
A3101400870000003515153YU, ALMEDA TAN                                           0501
A0101411660000003580283ROWENA R MIRANDA                                         0501
A4101400420000003715600DELOS SANTOS, VICTOR AQUINO                              0502
A0101400310000004075212BUNGUBUNG JR., LEODIVICO ALUNAN                          0501
A0101400310000004075234DE LEON, RUDYARD VON                                     0501
A0101400310000004075370UBAY, MARY MECHIE ASOMBRADO                              0501
A0101405940000004369682KARLA CRISAIDA JOAQUIN                                   0501
A0101400860000004497510************                                             0502
A1901400160000004521311EVELYN APOSTOL LAVISTO                                   0501
A0101400860011035923001**********                                               0502
A0101400860011387131002**********                                               0502
A0101400860011410778002**********                                               0510
A0101400860011495810001**********                                               0501
A0101400860011495810003**********                                               0501
A0101400860011570367001**********                                               0503
A0101400860011783032001**********                                               0510
A0101401250021708864001HAROLD T. TARRAS                                         0501
A0101401700041041039001SALVA AUTO PARTS SUPPLY                                  0505
A0101400150061315349055DENNIS JOY EJERCITO                                      0501
A0101400600071233684001LIM, RONALD N.                                           0505
A0101400600071351088001LIM, IT BENG NG                                          0502
A0101400600071719765001********                                                 0501
A0601400100081023131001ADYR TRADING                                             0506
A0601400100081251939002ELIZARDO OR WILMA MARTINEZ                               0501
A0601400100081355043001LAYUG, FLORANTE OR ANAMARIE                              0501
A0101410560110478374013CYNTHIA EVANGELISTA MENDOZA                              0501
A0101401960121709778001GO, JOHN GARRET CHING                                    0501
A0101401830141366498001GRACE I. RIVERA-JACINTO, MD                              0501
A0101400440161039572003JUDELITA S. ECHUAL                                       0501
A0101407270162526196001CATHERINE H. BAUTISTA                                    0502
A0301400660194737283088ZHI VENUS INDUSTRIAL SUPPLY                              0502
A0301400660194772365001*****                                                    0503
A0101401380201182816002MAYORES, ENERIO A.                                       0505
A0101401380201776189001********                                                 0502
A3001400130230767566070AALA, MARIA CLARA ONATE                                  0501
A1001400350233335599001DELA CRUZ, THELMA MAANDIG                                0501
A1001400350233478374001JUNIO, ROGELIA A.                                        0501
A0101408660274568066001LIM, LUISA O.                JT                          0502
A0101400570281509995001RELUCIO, IMELDA DYAUCO                                   0502
A0101400570281670563001JANET M. MARTINEZ                                        0502
A3401400280318267619001SAN ANTONIO, DANILO LORENZO                              0501
A0101405650322412858003PATATAG, HERMINIA SALAMERO                               0501
A0101408820333041763001Y.A. HORIZON ENTERPRISES                                 0502
A0101408820333478374050VICIA BAQUIRAN                                           0503
A0101402640361478374074MARIANO, LOLITA MIRANDA                                  0501
A0101402930381786332002UY, LORRAINE SHEUNG-WING                                 0502
A0101402770391217498018RICHARD GUILING                                          0501
A0101402770391493694001LARA, MARIA VICTORIA ESTRADA                             0502
A0101408950396567591001DR. DANILO V. CONSTANTINO II                             0501
A2401400180411275790003MALCAMPO, DIOSIE AGUIRRE                                 0501
A2401400180411478374004MESRIYA ABDULLAH                                         0501
A1201400150421252678001CONSTANCIA E. DE CASTRO                                  0502
A0101403030441239031002**********                                               0501
A0101403030441393652001**********                                               0502
A1401400110492041611001BLUECLICKER COMPUTER CENTER                              0505
A0101405940512597822001HERNANDEZ, ANTONIO PENGSON                               0503
A0101411790518055764227FLORES, ALLEN PAUL GONZALES                              0501
A0101403450521240618001**********                                               0502
A0101404000551229789001GUTIERREZ, ALEXANDRA KATRINA L.                          0501
A2201400250561339917001FELICIDAD MIRANDA SANTOS                                 0502
A0101407720602336315002BERNARDO V, SERAFIN LABAO                                0501
A0101407720602377521001CLAUDINE RAE L. JAVIER                                   0501
A0101404260611029604001620 ENTERPRISES                                          0503
A0101404680651316893003LIDWINA B. NAZARENO                                      0503
A0101404680651478374074NELIA A. DELLA                                           0501
A0101404680651520766075TERESITA J. SANADO                                       0501
A0101404680651527652001YOLANDA C. ANG                                           0501
A0101404680651548492001LUZVIMINDA L. VILLALOBOS                                 0502
A0101407690652399727002QUIAMCO, CONSOLACION GIVA                                0501
A0101407690652556483001TERMINEZ, ALEJANDRO ABRIO                                0502
A0101407690652586008001CABANGCALA, SANIE SUMALBAG                               0501
A1301400340683776169001BARAQUIEL, JOCELYN LIM                                   0502
A1701400230693478374050FAILANO, LYDIA G.                                        0501
A0101408240711375064001DR. MARILYN P. CALILUNG JT                               0502
A0101408240711681184001PAMISAL, TESSIE UNATING                                  0501
A0101404840851298552056ROSARIO GABAYERON                                        0501
A0101404840851478374094LETICIA FULLO                                            0501
A0101405070861478374066ELMER LADRES APAS                                        0501
A2601400270000000019510GILBERT T. FAGEL OR                                     10502
A3101400870000000074844ROA, ROSEMARIE JUNDOS OR ROA,                           10501
A0101407690000000154750BARANGAN, ROMEO DBU                                     10503
A0101412180000001293330ADVANI, GHANSHYAM PRASRAM OR                            10502
A0301400790000001776105ANG, DANILO DEE OR PANTINOPLE,                          10501
A0701400260000001804633OLIVAN, PHILIP MARK UY OR                               10504
A4101400550000002091101MENDIZABEL, ROMEL GAERLAN OR                            10501
A0101412890000002324272SANTIAGO, SARAH KATRENE D. OR                           10503
A4101400550000003267105MCMAR & MARY ELECTRICAL                                 10501
A0101400150000003601141FANDINO, NATHANIEL ROSS OR                              10502
A0101408950000004517908CONCEPCION, FRED ALLISON UY AND                         10501
A0601400100081251899001YALUNG, ROBERT OR MA. CRISTINA                          10502
A0101413020209057107001SANTOS, JESSALY JAPSON DBU RJ S                         10505
A3101400450223442002001GARCIA, ROSALINA OR                                     10502
A3101400870225053612002CONSTANTINO, N DBU NINO                                 10501
A0101405650322703967001VIVO, ELEANOR A. OR                                     10501
A0101402770391406405002MAGTIBAY, FROILAN S.  OR                                10501
A2401400180411478374061JUNRES AGAD OR                                          10501
A0101403320471400801001MARILEN I. CRUZ                                         10503
A0101404130601618991001TAN, MAY YEE CHAN OR                                    10501
A0101404260611018041001JP LONEZA CONSTRUCTION                                  10502
A0101407690652047335001GUNDRAN, ROBERT  DBU JORSALEN                           10510
A0101407690652520766035EMILDA R. TAMAYO - DEALERS OF                           10501
A0101407690652525001047NOEMI B. BUNDA - DEALERS OF                             10501
A4101400420814304997002ABAD, EVELINA OR ALVIN VINCENT                          10501
A2601400270000000019510AILEEN A. FAGEL                                         20500
A3101400870000000074844JAMES ROQUE GARCIA                                      20500
A0101407690000000154750BARANGAN TRADING                                        20500
A0101412180000001293330ADVANI, BEENA GHANSHYAM                                 20500
A0301400790000001776105ANTHONY GOZO                                            20500
A0701400260000001804633UY, NIELSEN EARL CRESCINI                               20500
A4101400550000002091101MENDIZABEL, VINA ABIGAIL                                20500
A0101412890000002324272AGCAOILI II, ROMEO S                                    20500
A4101400550000003267105& CONSTRUCTION SUPPLY                                   20500
A0101400150000003601141FANDINO, MARGARITA ANNA                                 20500
A0101408950000004517908MALALUAN, NAMPHRIL GARCIA                               20500
A0601400100081251899001OR SANTOS, MA. L                                        20500
A0101413020209057107001AN PRINTING SERVICES                                    20500
A3101400450223442002001JESUSA CORAZON                                          20500
A3101400870225053612002CONSTANTINO CONSTRUCTION                                20500
A0101405650322703967001VIVO, ROMEL B.                                          20500
A0101402770391406405002MAGTIBAY, CATHER                                        20500
A2401400180411478374061NORMELITA BLANCO                                        20500
A0101403320471400801001OR DENNIS MICHAEL                                       20500
A0101404130601618991001TAN, IVAN C.                                            20500
A0101404260611018041001& TRADING                                               20500
A0101407690652047335001CONSTRUCTION SUPPLY                                     20500
A0101407690652520766035SHOECAT, INC.                                           20500
A0101407690652525001047SHOECAT INC.                                            20500
A4101400420814304997002OR CHRISTINE MARIE ABAD                                 20500
B01014046800000000135618LUDEREY FOOD SERVICE INC.                               1604
B2601400270000000020673JPGLOBAL VENTURES CORPORATION                            1603
B0101412180000000038042PRIME EA24 INCORPORATED                                  1601
B0101402770000000080613SPRAYED POLYURETHANE FOAM SYSTEM CO                      1604
B0101413860000000145275CON-PAC WAREHOUSING INCORPORATED                         1605
B0101413990000000206168ASPEN COLDSTORAGE INC.                                   1605
B2801400230000000372752ACRERED BUILDERS & SUPPLY CORP.                          1602
B0101407270000000830551POULTRYMAX OMNIS, INC.                                   1605
B0101411110000001037074NIECER TRADING COMPANY INC.                              1601
B0101412890000001765266I-SHARE CLUB, INC.                                       1601
B0101413860000001767815CWI WAREHOUSING & LOGISTICS CORPORA                      1603
B0601400100000002099118ANGELES CORE ENTERPRISES, INC.                           1604
B0101401700041475686001MULTIMOTORS AUTO PARTS INC.                              1605
B0101401700041509837001MIT-TOYO PARTS CENTER INC.                               1612
B0101400150061044750001ASIA PACIFIC CHARTERING PHIL., INC                       1605
B0101401960121023340001**********                                               1601
B0101407270162041339001PRIMERA PHARMA CORP.                                     1605
B0101407140213035952001**********                                               1601
B3101400740224024279002SPORTS MIX MARKETING CORP.                               1601
B3101400870225054035001WAKABA PHILIPPINES, INC                                  1603
B0101406460272007487001FOODMACH, INC.                                           1604
B0101400570281007176001ASIAN INSTITUTE OF LITURGY & MUSIC                       1601
B3401400280318044735001A & T SANTOS INCORPORATED                                1603
B0101402480331033378001***************                                          1601
B0101408820333042383001********                                                 1605
B0101408820333042383003********                                                 1604
B0101408820333045377001***************                                          1602
B0101402640361038833001KASAGANA-KA DEVELOPMENT CENTER, INC                      1605
B0101402640361044394001METRO NORTH MEDICAL CENTER AND HOSP                      1620
B0201400760374036911001CEBU ATG REALTY DEVELOPMENT CORP.                        1601
B0101402930381008881003CENTURY CANNING CORPORATION                              1602
B0101402930381022956001HUMANITARIAN LEGAL ASST. FOUND. INC                      1610
B0101402930381035410001IDEYA FOTO IMAGERY                                       1602
B0101402930381667403001PRIVE PROPERTIES DEVELOPMENT INC.                        1601
B0101403320471043308001DAMAYAN AT TIYAGA FOUNDATION, INC.                       1601
B0101403450521020358001**********                                               1603
B0101403450521025342001FERNA CORPORATION                                        1602
B0101403450521663999001ROYAL APEX INDUSTRIAL CO. INC.                           1603
B1301400500684046266001NORTHGATE PROPERTY VENTURES, INC.                        1601
B0101407560686019374001MEGATECH MULTI RESOURCES CORP.                           1603
B0101408240711691416001FIVESOME INC.                                            1602
B4101400420814010838001INFORMATICS COMPUTER INSTITUTE, INC                      1604
B0101402480331821100608**********                                               2010
B0101405520442821100608**********                                               2005
B0101403450521821100608**********                                               2030
B0101414960522821100608**********                                               2001
