A0101410560000000020162EDNA S. CAMBARIJAN                                       0501
A0601400360000000025618DE JESUS, MA DBU MARJES ENTERPR                          0502
A0101408400000000029514SULIT, MARIA ADELMA ALVARADO                             0501
A4101400420000000120696CARMELA G. ROMA                                          0501
A0101410300000000191951ANGULUAN, PAUL ARIS ALIGADA                              0502
A0101413990000000206033MARITES R. CONANAN                                       0502
A0101407560000000477834**********                                               0501
A0101410300000000592187*********                                                0501
A0101413990000000631872MONREAL, ESTELITA GUINTO                                 0502
A4101400420000000710223ROMERO, MARICRIS BAUTISTA                                0501
A0101411660000000751160FELICIDAD I TIA                                          0502
A0101400150000000760838ZAPANTA, VIC FORTUNATO ILUSTRE                           0501
A0101405650000000772992BALUBAR, TEODORA VILLEGAS                                0501
A0101408660000000855909MENDEZ, GREGORIO ONA                                     0502
A0101404420000000866553ROJAS, LEA DELA CRUZ                                     0501
A0101410720000000882800SULIT, ROSEMARIE MARASIGAN                               0502
A0101410720000000882811GAMEZ, GUILLERMO PASNO                                   0503
A0101401250000000907299CRUZ, JOSEFINA BARIAS                                    0501
A1001400350000000922014PEARSON, PILARCITA ROA                                   0501
A1001400350000000922105FACTURA, JACKELOU CORONEL                                0501
A0101410720000000968061FRANCISCO, SALVACION QUINTIA                             0501
A0601400360000000978743LAPID, MARISSA TADEO                                     0502
A0501400170000001032200RICAFORT, JESSICA TINTE                                  0502
A0101412890000001056600GUTIERREZ, ALEXANDER VOLPANE                             0501
A0701400260000001069701MAGTUTO, RENATO VILLAFUERTE                              0501
A0501400170000001072855DOMAGAS, MITOS SISON                                     0501
A1401400110000001096219DEQUITO, RAJETA TINANA                                   0501
A0101408110000001165822SO, MARY GRACE BUENAVENTURA                              0501
A0101412210000001236173MENDOZA, RHODESSA CASTRO                                 0502
A0101410560000001248971FABE, MA. CLAUDETTE ANGELINE L.                          0501
A0101405650000001377293GARCIA, DANIEL SANTIAGO                                  0501
A0301400950000001379513PUEBLA, CRISELDA BAJENTING                               0501
A1301400500000001412399Y.P. HIZON ACCOUNTING SERVICES                           0501
A1401400110000001549351LAGMAN, CHRISTOPHER ANTHONY FLO                          0505
A2001400290000001557688ALCANTARA, KARA  KATRINA ROMEO                           0501
A0101402770000001570838MA. RUTCHEL LOMA                                         0501
A0101410720000001602211ABENOJAR, LARIZA ARDEZ                                   0501
A0101410720000001602222RAMAS, MINNIE ZARAH MENGUITO                             0501
A0101401090000001618593MARISA M. DELOS SANTOS                                   0501
A3801400170000001698097ILAO SR., ANTONIO REYES                                  0501
A0101400150000001708265BAYABAN, MARIDEL MARBELLA                                0501
A0301400790000001776116GLORIA, JONALY GARCIA                                    0501
A1701400230000001786707CALAUSTRO, ANA MARIE GUILLERMO                           0501
A3101400160000001791944HIGUIT, MARIA ELINOR KRISTINE M                          0501
A0101404130000001831807TAN, ELISEO ANG                                          0502
A0101408820000001880640INIGO, JOSEPH MILITANTE                                  0501
A0101400150061231008001FILIPINAS T. PINSON                                      0501
A0101401960121239340001***********                                              0504
A0101400440161525001033MARY JANE V. MACALINAO                                   0501
A0101400440161525001117CATHY B. DELA PAZ                                        0501
A0101401090171196057001ALITA R. CONDE                                           0501
A0101401090171201395001JOSE S. BLAS, M.D.                                       0501
A3101400160221220343001LAARNI A. CALAPATIA                                      0502
A3101400450223221366002*****                                                    0501
A1001400190231520766036ONIPA, JANE ROSE P                                       0502
A1001400190231520766093DACUTANAN, REYNOZA RADOC                                 0501
A1001400350233478374020ELMA O. GAWAT                                            0501
A6601400120314041602001LEXTAN GENERAL MERCHANDISE                               0502
A6601400120314621349001JAGONOY, EMELIE GARROTE                                  0502
A0101405650322034381001FUDMAN CANTEEN                                           0505
A0101408820333478374064GINA T. LUIS                                             0501
A0101402060351549135002SOLER, JOSE ANTONIO ANDAYA                               0505
A0101402930381323854001*******                                                  0502
A0101408790383610468006SEVILLA, LIRIO A.                                        0502
A0101408400394033958001RCBP-STA MARTHA PARISH                                   0502
A2401400180411272640001VICKY M. BOJE                                            0502
A0101410140475478374005ORENSE, EVELYN                                           0501
A0101411400517381317168*******                                                  0502
A0101403450521547532001***********                                              0502
A0101403610531232548001**********                                               0505
A0101403610531792048001MORDIDO, IRMA GAMBA                                      0501
A0101404000551150494002CYNTHIA DE VERA                                          0501
A0101404130601027289174RODRIGO D ABREA                                          0501
A0101404130601595494088GO, ANTHONY LIM                                          0503
A0101404260611478374099TERESITA DOLLOPAC                                        0501
A0101404420631158414003*****                                                    0501
A0101404420631478374194REBECCA P MALUBAY                                        0501
A0101410720653089998001ABANA, IDERLINA TAGUIAM                                  0501
A0101410720653407205003MATIAS, ROBERT VINCENT C.                                0501
A0101410720653456505001GUMIN, JOYCILYN DAVID                                    0501
A0101410720653478374002ZENAIDA O. CARLOS                                        0501
A0101410720653478374048VILLAFLOR E. OPELADA                                     0502
A0101410720653768067001DELOS REYES, MA. ERIKA WONG                              0501
A0101406590662594700001SISON, GERARD ANTHONY DE LEON                            0501
A1301400340683353482001JOSE, MARLENE RODIL                                      0502
A0101407560686415825001CHARITO A. GUMAPAC                                       0506
A0101408240711417025001LUPOT, JULIUS CALACAT                                    0502
A4101400260812707795001APARTE, CARMELA CARMELLE DATOR                           0501
A4101400420814442730001SAGALES, MA. CECILIA SAGALES                             0501
A4101400420814478374044BERATIO, MARITES M.                                      0501
A4101400420814478374170OSO, MARY GRACE                                          0501
A4101400420814520766055MANCHO, LILIBETH ARCEBUCHE                               0501
A4101400420814520766136VALLEJO, ELVIE                                           0501
A0101404840851478374171LORENA A. ARES                                           0501
A0101406750852530398001REYES, LOLITA LARGADO                                    0501
A0601400230000000029872DEL ROSARIO, JUAN PAOLO ALMARIO                         10501
A0101409890000000049089GEMSTAR CLEANING SUPPLIES                               10506
A1601400170000000421190JOHN F. TORROCHA OR                                     10501
A0101410300000000592198BARBASA, J DBU TIGER WATER                              10501
A1101400120000000992372DONGHIL, ERNILO D. OR                                   10503
A0101413310000001073938ESCANO, JOHN ANGELO DIZON DBU                           10501
A0101407140000001218353BORROMEO, CHARISSE KRISTEL CHUA                         10501
A0101406460000001231485LAO, BONNIBEL OR LAO, ROBERT OR                         10502
A0101411240000001563366DELA CRUZ, MARIA THERESA                                10501
A0101402770000001570827ILUSTRE, M DBU NHYX GENERAL                             10501
A0101404130000001831670CHUAUNSU, JESUS D. OR CHUAUNSU                          10501
A0101400150061231935002EMILINA P. GARCIA OR                                    10502
A3101400450223545635002ALINA, EMERISSA OR                                      10501
A0101408790383511958001DELOS REYES, NADINE ANNE                                10501
A0101403610531304005001ANCHORIZ, NERRIZA OR                                    10503
A0101403610531581656001RECASATA, MARIA CATHLEA T. OR                           10501
A0101403610531707487001GARCIA, FRANCES CERDENA OR                              10501
A0101410720653085934001TOBIAS, MERRILL JAVIER OR                               10502
A0101410720653240354001ONG CHIONG, WILLIAM C. OR                               10501
A4101400550815797554002DELA CRUZ, GRACE AND SAMAR JR                           10502
A0601400230000000029872AND MANANQUIL, JOHN IVAN                                20500
A0101409890000000049089INTERNATIONAL                                           20500
A1601400170000000421190ROCHELLE A. TORROCHA                                    20500
A0101410300000000592198STATION & GEN MERCHANDISE                               20500
A1101400120000000992372DONGHIL, MAJARANIE C.                                   20500
A0101413310000001073938J.A.D.E TOWING SERVICE                                  20500
A0101407140000001218353OR CHUA, MIMI KHO                                       20500
A0101406460000001231485LAO, KYLE ANTHONY                                       20500
A0101411240000001563366GUITANG                                                 20500
A0101402770000001570827MERCHANDISE                                             20500
A0101404130000001831670JANE INVA                                               20500
A0101400150061231935002MA. CARMEN JAVIE                                        20500
A3101400450223545635002GATDULA, ENRICO                                         20500
A0101408790383511958001CZIARAH MERCADO                                         20500
A0101403610531304005001ANCHORIZ, FRANCISCO                                     20500
A0101403610531581656001TROZADO, FELICIDAD CARINO                               20500
A0101403610531707487001CARRASCO, EUNICE JANE                                   20500
A0101410720653085934001CONEJERO, MINIBETH R.                                   20500
A0101410720653240354001ONG CHIONG, JULIE                                       20500
A4101400550815797554002NUMERIANO AND NABLO, J.                                 20500
B0101410720000000008733SMARTSERVE MANPOWER RESOURCES, CO.                       1602
B1301400470000000009521FTC LEASING AND FINANCE CORPORATION                      1602
B0101410720000000029792**********                                               1601
B0601400230000000029861**************                                           1602
B5501400120000000046853LAUNDRYWORLD LAUNDRY SYSTEM CORP.                        1603
B0101407140000000266324AUDIO-VIDEO SOLUTIONS CORPORATION                        1601
B0101404130000000321519CARENETT_PHILIPPINES INC.                                1605
B01014140900000003994462 TORRE LORENZO CONDOMINIUM CORP.                        1605
B0101407720000000713160GREEN BEAN ORGANIC COFFEE CORP.                          1602
B0101408240000000832893WOWA'S FAST FOODS INC.                                   1610
B0101405940000000886717CAR AWARDS GROUP INC.                                    1601
B0101413440000001085632SEABAR TERMINAL, INCORPORATED                            1603
B5501400120000001121913PINGOY, ALBERT YUSAY DBU PUREWATER                       1603
B0101413730000001253218************                                             1602
B0101408820000001766856DABARKADS, INC. DOING BUSINESS UNDE                      1601
B0101400150061010658002GROLIER INTERNATIONAL, INC.                              1605
B0101400150061047402001SAN CARLOS SOLAR ENERGY INC.                             1603
B0101401090171017434002LINGKOD E.R. FOUNDATION INC.                             1601
B1001400190231033210001NEW CON CONSTRUCTION SUPPLY                              1601
B1301400470252030548001CABANATUAN JAC MARKETING CORPORATION                     1602
B0101405650322040191001GREENROAD VENTURES INC.                                  1602
B0101408400394005768001LJ HARDWARE & CONST SUPPLY                               1601
B1201400150421005516004PIOUS SOCIETY (DAUGTERS OF ST. PAUL)                     1601
B1901400160491022987004BATS HEALTH CARE MULTI-PURPOSE COOP                      1605
B1401400110492027896004LUCENA UNITED DOCTORS HOSPITAL, INC                      1603
B0101403450521024779002**********                                               1601
B0101403610531047353001ROSS SYSTEMS INTL INC.                                   1605
B0101404000551005037005CONRAD & SONS REALTY INC.                                1605
B0101404000551024399001KAYAMANAN DEVELOPMENT CORP.                              1605
B0101404130601045483001NORTHSTAR TECHNOLOGIES INDUSTRIAL CORP                   1605
B0101404130601100079001POWERDIESEL PHILIPPINES, INC.                            1610
B0101407720602531007002BAJA MEXICAN CANTINA CORPORATION                         1603
B0101410720653022858002FOODKING CUISINE & SERVICES INC                          1602
B0101410720653048111001PERIDOT PARTS SALES & SUPPLY INC.                        1601
B1301400340683043942001LMS DEVELOPMENT CORPORATION                              1602
B4101400420814034500001PRODLINE ENTERPRISES COMPANY                             1603
B4101400420814047949001SOUTHWOODS SCHOOL OF CAVITE, INC.                        1602
B0601400100081296256001CHRISTOPHER OR LOYA MALLARI FAO CHRISSAN                11603
B0101410560110045481001JESUS REIGNS MINISTRIES (JRM)                           11602
B3101400740224041741001CASA DEL NINO MONTESSORI SCHOOL CIUDAD                  11602
B1301400470252034288003GLOBAL KIDS MONTESSORI OF NUEVA ECIJA                   11610
B6601400120314043609005FUNDACION GRAMEEN PILIPINAS INC.                        11605
B2401400180411014376005PENBANK, INC. (A PRIVATE DEV'T BANK) -                  11602
B0601400100081296256001AUTO SUPPLY                                             21600
B0101410560110045481001FOUNDATION, INC.                                        21600
B3101400740224041741001DE CALAMBA, INC.                                        21600
B1301400470252034288003INC.                                                    21600
B6601400120314043609005CATARMAN HINA BR                                        21600
B2401400180411014376005CALUMPANG BRANCH                                        21600
B0101407140213821100608**********                                               2005
