 1401400110492735105001                                                           00
A0101407690000000053881********                                                 0502
A0101413730000000144589**********                                               0503
A0101402350000000145571GOSGOLAN, JOSELINA SARIO                                 0501
A0101402060000000358576TIO II, PHILIP JAN MICHAEL GOME                          0501
A0101402060000000358612PACIFICO ERIC E. CALDERON MD                             0501
A0101402060000000358623IMMACULATA, ROWENA MARTINEZ                              0501
A0101402060000000358634ESPINA, WILBERT BALUYOT                                  0502
A0301400790000000436019VILLADEMOSA, JOSELITO BANIEL                             0502
A0101402350000000443190JEFFERSON M. JUANE                                       0501
A0101402350000000443207JUMBOO MICHAEL A. JUANE                                  0501
A0101405940000000506045MIGUEL, CHERRY MONTERO ENRILE                            0502
A1101400120000000652755GALLARON, YOLANDA SALENTES                               0501
A0101400570000000749480MDCARE AT FISHER CO. DBU THE NA                          0504
A0101411080000000805685TORRES, SUSAN GUINTO                                     0501
A0101407270000000818417LICUP, ROSEMARY MATANZA                                  0502
A0101409180000000874591OLE, MARIVIC STA CRUZ                                    0501
A0101407690000000913724OPERIO, IMELDA LAGUIO                                    0501
A0101407690000000913735CAHUCOM, RIZA CANEDO                                     0501
A0101407690000000913768BLANQUISCO, GIANCARLO LITONJUA                           0501
A0101404840000000943317PAGSISIHAN, AMELIA VIRAY                                 0501
A0101404840000000943328MENCHAVEZ, NANETTE DAYDAY                                0501
A1001400190000001057385LOTH M. UBAY-UBAY                                        0501
A5501400120000001121082AMOLORIA, OFELIA BUNDA                                   0501
A0101401830000001140087ESPIRITU, MARIA CARMEN CELUCIA                           0501
A3101400160000001169284JOYCEE B PABORA                                          0501
A0101405940000001209905MUECO, JAIME PEREZ                                       0501
A0101413860000001233710ENARIO, JOHNNY MAKABENTA                                 0501
A4101400550000001332507ROLLENAS, ZIMA BALDISCO                                  0501
A0101413600000001430539GONZALES, MARIA JASMINE TINAWIN                          0501
A0101400440000001439670GENEROSO R. DEL CASTILLO JR                              0501
A0101406750000001491692DIONISIO, ESPERANZA IMPAS                                0501
A0101406750000001491721HIRATA, ZENAIDA ILANG ILANG                              0501
A0101411080042762766001 *****                                                   0502
A0101400150061039917002TALICOL, AUGUSTO                                         0501
A0101400150061337098176ISABEL U. LIM                                            0502
A0101410560110478374013CYNTHIA EVANGELISTA MENDOZA                              0501
A0101401960121490958001TAN, JOSEFINA ONG                                        0501
A0101400440161039572087ALBERT C. VEGA                                           0503
A0101400440161075643001APO, BASILISA GURAY                                      0501
A0101400440161378409001WILFREDO NAVIDA VILLAR                                   0501
A0101407270162377333003******                                                   0502
A0101401090171198825001JOSE V. NABOR                                            0501
A0101400310211051549001MASIGLAT, ARLENE DBU JHEVI TRAD                          0501
A0101400310211157803002TECSON, EDITA OR TECSON, VICTOR                          0502
A0101400310211380943002TE, TIFFANY AYROSO                                       0503
A0101400310211381810001DALISAY, AMELIA PAGDANGANAN                              0502
A0101400310211720376002PATAYON, THELMA SIMO                                     0502
A0101400310211753220001GERMABI CORPORATION                                      0502
A0101407140213485140001**********                                               0501
A3101400450223491849001JAO, AUGUSTO RAZEL DOMINO                                0501
A1001400190231379927001IRISH P LA VINA                                          0505
A1001400190231520766096MAGBUNAG, CONSORCIA TORRES                               0502
A1001400350233668674001ENDAYA, JILL YVES LORRAINE LAO                           0501
A1301400470252667113002**********                                               0503
A0101401670271186216001VIRGINIA S. RAMOS                                        0505
A0101400570281020605001FIRST BORN SNACK CORNER                                  0502
A0101400570281225647001YEUNG, YUEN CHING TONG                                   0501
A0101400570281334588001ARACELI ESTEVES ONA                                      0501
A0101400570281343717001MARIA MARGARITA REGUDO ALMORO                            0506
A0101402350321526808001LUCITA R. TARRAY                                         0502
A0101402350321671189001DELOS SANTOS, EDUARDO DORIA                              0502
A0201400760374260158002PINEDA, ALFREDO B.                                       0501
A0101408370382205161001DR. WILLY G. LOPEZ                                       0505
A0101402770391291394001FRANCISCO OR RUTH TOLENTINO                              0503
A0101402770391529757012JOSEFA ARLEN CORPORAL                                    0502
A0101403030441522823001**********                                               0501
A1901400160491635678001MARIVIC ATIENZA CANTES                                   0501
A1401400110492395854001MERCEDES C. BARCELONA                                    0501
A0101405940512475462001AMBROCIO, PURITA AQUINO                                  0501
A0101404260611478374121FLORDELIZA B. HUVALLA                                    0501
A0101404260611490335001TAN, MARIA JENALYN TULIAO                                0501
A0101404260611632190001*******                                                  0502
A1701400230693478374044CECILIA CORRALES                                         0501
A2801400100712478374006OLIVIA G. ARAO                                           0501
A4101400260812039607027PAULINE PUGAY                                            0502
A4101400260812642492001RUBY A. GONZALES                                         0501
A0101404840851424338001PAMITTAN, MYRNA M.                                       0503
A0101404840851478374182MARIA CRISTINA C. JIMENO                                 0501
A0101405070861478374004WINIEFRENDA O. PILANDE                                   0503
A1001400350000000245350DONATO, HERMIE & DONATO, ERVIN                          10502
A0101401250000000460575RACELIS, F DBU COLORADO                                 10502
A0101402350000000521480RAMON M. GALLINERA OR                                   10501
A1101400120000000652766KHIATANI, HARESH R. OR.                                 10502
A0101405070000000741337MABAD LICARDO OR                                        10501
A0101405490000001092568RAUL C. RIMARIM OR                                      10501
A0101410980000001154483TAN, AILEEN GAN OR                                      10502
A0101400310000001545120SY, WILSON DBU SUNNY DAY COMMER                         10505
A0101400150061456754001ANCHETA, ANGELINO TAGUIBAO                              10502
A0101400310211157817001INTERINO, LOLITA OR MARIA                               10502
A0101400310211388725001TOMANIOG, MYLA OR TOMANIOG,                             10502
A3101400450223693052001FERRER, PAMELA PIA OR MELVIN                            10506
A1301400470252527415001MA. CRISTINA SALAZAR OR                                 10505
A0101405650322356435001ENRIQUE BIE OR EVELYN V. PAULI                          10501
A0101408370382319789001ROCHELA B. CUAYCONG OR                                  10501
A0101407430503385656003JANE R. LIMTONG OR                                      10501
A0101404260611377592001TUAZON, WAYNE SAHAGUN AND                               10501
A0101409890649723947002TONGOS, ROMARICO MACARANAS OR                           10501
A0101407690652478374140BEATRIZ MANIAGO - DEALERS OF                            10501
A0101407690652478374179LENIE ANDO - DEALERS OF                                 10502
A0101407690652520766018NILDA BERASIS - DEALERS OF                              10501
A0101407690652520766022ELVIE GALENDEZ - DEALERS OF                             10501
A0101407690652525001067MAILA M. NACIN - DEALERS OF                             10501
A0101407690652525001079AILYN C DIZON - DEALERS OF                              10501
A0101407690652563634001RUEL L. LECAROS  OR                                     10501
A1001400350000000245350& DESCALLAR, FRANCISCO                                  20500
A0101401250000000460575PRINTING PRESS                                          20500
A0101402350000000521480ROSALIE T. BALUTAN                                      20500
A1101400120000000652766KHIATANI, GOPI H.                                       20500
A0101405070000000741337JEAN LICARDO                                            20500
A0101405490000001092568NICANORA D. RIMARIM                                     20500
A0101410980000001154483LAM, MARIE ANNE GAN                                     20500
A0101400310000001545120OR SY, ZERLINDA                                         20500
A0101400150061456754001OR ANCHETA, CAND                                        20500
A0101400310211157817001CRISTINA INTERIN                                        20500
A0101400310211388725001LEONORO JR.                                             20500
A3101400450223693052001JOHN OR AUSTRIA, APRYL                                  20500
A1301400470252527415001MARIA PRISCILA GUTIERREZ                                20500
A0101405650322356435001OR RICHARD M. PAULI                                     20500
A0101408370382319789001CESAR A. CUAYCONG                                       20500
A0101407430503385656003DOUGLAS ARTHUR U. LIMTONG                               20500
A0101404260611377592001LALAINE TUAZON                                          20500
A0101409890649723947002TONGOS, RALPH JU                                        20500
A0101407690652478374140SHOECAT INC                                             20500
A0101407690652478374179SHOECAT INC                                             20500
A0101407690652520766018SHOECAT INC.                                            20500
A0101407690652520766022SHOECAT INC.                                            20500
A0101407690652525001067SHOECAT INC.                                            20500
A0101407690652525001079SHOECAT INC.                                            20500
A0101407690652563634001JOVITA M. LECAROS                                       20500
B0101413730000000144636**********                                               1602
B0101409050000000258508INFORMATICS COLLEGE CEBU, INC.                           1604
B0101414090000000399424GANJOU INC.                                              1605
B0101405070000000428900BLUESHIFT INC.                                           1601
B0101405070000000428933***********                                              1601
B0101404000000000460939888 HUMAN RESOURCES SPECIALISTS INC                      1602
B0101413730000000469698**********************                                   1601
B0101408240000000832586TREE TRUNK DEVELOPMENT CORPORATION                       1605
B0101409050000000999540COVEN MARKETING SERVICES                                 1601
B0101410850000001229652AMITY TRAVEL CORPORATION                                 1605
B0101411080042046594001 *****                                                   1610
B0101400150061542521001SAN CARLOS BIOPOWER INC.                                 1603
B0601400100081046818001J.G. FLORES BUILDERS                                     1601
B0101407270162023333001MEDIA TOUCHSTONE VENTURES, INC.                          1604
B0101407270162039491001UMALAG FARMS, INC.                                       1602
B0101401090171027712001AIRBORNE SECURITY SERVICE, INC.                          1601
B0101401090171034513001HAWK SECURITY SERVICE INC.                               1603
B0101401670271025682002* * * * * *                                              1620
B0101400570281025350001FREQUENCY RESPONSE, INC.                                 1602
B0101400570281628149001ORETA MEDICAL CLINIC, INC.                               1604
B1101400120313036429001PERPETUAL HELP MULTI-PURPOSE COOPERATIVE                 1602
B20014002903150415660018G GAS STATION                                           1601
B01014023503210067510010SM SHIPPING PHILS., INC.                                1610
B0101405650322027007001PINOY EXPRESS HATID PADALA SERVICES INC.                 1605
B0101409050352672599002NEW YORK HOTEL INC. (QUEZON CITY)                        1605
B0101405490392043958001LIPA TRADING CENTER                                      1602
B0101409180397041823001THE INFINITY CONDOMINIUM CORPORATION                     1603
B0101409210398042656001FIELD OUTSOURCE ASIA, INC.                               1606
B5501400120410622300001BAUTISTA, LAURO OR BAUTISTA, SONNY                       1601
B0101406880513281235001LUCKY MONEY LENDING CO., INC.                            1603
B0101408530516037477002VXI GLOBAL HOLDINGS B.V.                                 1605
B0101403450521036992001********                                                 1601
B0101404000551005023001MECHANICAL HANDLING EQUIPMENT CO., INC.                  1620
B0101407690652041404001AUBURN POWER TECHNOLOGIES INC.                           1601
B0101407690652046975001MARBAS, DBU SPHINX ENG'G SOLUTIONS                       1601
B0101405070861017328003SHEPHERD'S NOVELTY CORNER                                1601
B2801400230000000008391BERTES, VALIENTE VOLANTE DBU                            11601
B0101414090000000399491MODERN FILIPINO GROUP INT'L FREIGHT                     11603
B0101405070000000428897ASIAN ARCTIC MANAGEMENT AND CONSULTANCY                 11601
B0101401090171036158001AIRBORNE MAINTENANCE AND ALLIED                         11602
B0101402350321031714001CROWN CRIS INDUSTRIAL SALES AND                         11602
B0101402350321628463001SEABASE TRAINING CENTER FOR                             11610
B2401400180411338845003ROBERTO OR JANET PERALES JT ANTONIO OR                  11605
B0101407430503039513001CIC INTERNATIONAL DOCUMENT SOLUTIONS,                   11603
B0101405070861018666001SAN ANDRES MARKET VENDORS & COMT'Y MULTI                11610
B2801400230000000008391V2B BUILDERS                                            21600
B0101414090000000399491FORWARDING INC.                                         21600
B0101405070000000428897CORPORATION                                             21600
B0101401090171036158001SERVICES INC.                                           21600
B0101402350321031714001MACHINE SHOP                                            21600
B0101402350321628463001WATCHKEEPING INC                                        21600
B2401400180411338845003ADELENE PERALES                                         21600
B0101407430503039513001INC.                                                    21600
B0101405070861018666001PURPOSE COOP.                                           21600
B0101408370382821100608**********                                               2010
