F3201400190000001492855RECEL JR., ESTEBAN REYNON                                2501CKO
F0101406620273027395002BRANDGATEWAY, INC.                                       2605CKR
F1301400210682042878001HABITAT TRADING                                          2601CKR
F1301400210682042878002HABITAT TRADING                                          2601CKR
F4101400420814012768007UNIDA CHRISTIAN COLLEGES, INC.                           2602CKR
F0301400820409098501001MARY VIC PUENTESPINA OR MARCELO                         12601CKR
F0301400820409098501001PUENTESPINA                                             22600CKR
