F0601400490000000011092BALMATER, THOMAS CHRISTOPHER T.                          2501CKO
F3101400320222039194001CONTEMPLACION, PEARL ELIZABETH                           2501CKO
F0101402350321179431002VICEO, OSCAR                                             2505CKO
F0201400180000000087187EAST WEST FUSION CENTRIS INC.                            2601CKR
F0101406590000000905613LA VISTA ASSOCIATION, INC.                               2601CKR
F0101400150061043015001RCHITECTS INC.                                           2601CKR
F0301400790195453828101CHIN, EDWARD LAM                                         2601CKR
F0401400270242449588006SUKLIN PENA OR BONIFACIO PENA                            2605CKR
F0101405650322044089001UNITED GLOBAL LOGISTICS, INC.                            2602CKO
F0101402060351038809001ENERGITECH INDUSTRIAL CORP.                              2603CKR
F1301400210682030278001DOVE TRADING                                             2605CKO
F3101400320222038515001LAGUNA INDUSTRIAL HEALTH CLINIC                          2702CKC
