F0101413990000000206011HGD SALON                                                2502CKO
F0101408240711442487001REGINA J. LOPEZ                                          2502CKO
F0101401830141038081001HELITREND CORPORATION                                    2602CKO
F1801400130151048758001MSU-IIT NMPC PALA-O ILIGAN BR.                           2601CKR
F3101400740224664564002SE YOUNG PRECISION CORP.                                 2603CKR
F1501400140291027914001FL MEMORIAL PARKS, INC.                                  2610CKR
F0101402060351038809001ENERGITECH INDUSTRIAL CORP.                              2605CKR
F0101408370382046274001SMART DRIVING CORPORATION                                2605CKR
F1201400150421017589003CJH HOTEL CORPORATION                                    2610CKR
F0101405940512015937004BATAAN 2020, INC.                                        2604CKR
F0101402640361024232001DR. CARLOS S. LANTING                                   12605CKR
F2601400140691261622005JOSEPH ALLAN A. BARON                                   12610CKR
F0101402640361024232001COLLEGE INC.                                            22600CKR
F2601400140691261622005OR MARILEN B. BA                                        22600CKR
