A2201400250000000016942AMELIA F. MANALO                                         0501
A0501400170000000018215VILLANUEVA, ENRIQUE MEJIA                                0502
A0101401250000000020424BALIAO, JOVITA LINGGON                                   0505
A0101407690000000053881********                                                 0502
A6601400120000000060802PAMBUENA, LINA AMARO                                     0503
A4101400420000000121057ROMERO, JOCELYN FERRERA                                  0502
A0101407690000000243810PAGUIO, ANA CARDENAS                                     0502
A0501400170000000494640PADLAN, FRANK ABARRA                                     0502
A1101400120000000652511BASTIAS, ROSANNA QUISUMBING                              0502
A0101404840000000683574NELIA L. BABILA                                          0502
A0101410850000000778861MARTE, ANTONIA MAGAT                                     0502
A0301400660000001113795VILLADAREZ, RICHARD RANIS                                0501
A0101404000000001187053GARCIA, MARISTELA GARCIA                                 0501
A6601400120000001370525DE LEON, LEONILA CARDENAS                                0501
A0101406040000001392041RICHARD V. UY                                            0501
A1301400340000001415667SAMANIEGO, ROSSANA BONGAT                                0501
A0101401090000001618913EMMANUEL M. BATULAN                                      0501
A0101412890000001765740SY, A DBU  ALEXANDRA APPAREL                             0501
A0101403320000001803010LORENZO, DANIEL JUN ABULENCIA                            0501
A0901400220000001805050**********                                               0501
A0101407690000001919833COOL CLASS GARMENTS ENTERPRISE                           0502
A3101400870000002007761BARRINUEVO, TOMAS DICTADO                                0501
A0301400790000002301779ALVEZ, RUVELYN ESCUADRO                                  0501
A3401400280000002323371BUENSALIDO, RAYMUND DIAZ                                 0502
A0101400730000002882251PUERTO JR., EDUARDO TECSON                               0501
A0101413570000002976118EDUARDO O. SO                                            0503
A0101401250021179040001NORMA LANORIA VALEROSO                                   0503
A0101401700041043644001NOXIOUS AUTO PARTS SUPPLY                                0510
A0101400150061229814001LEONCIO C. LIM                                           0501
A0101410850109046512001*****                                                    0501
A0101400440161478374175MARYLEN R. MORADA                                        0502
A0101400440161525001103OFELIA B. OLERMO                                         0501
A0101401090171331007001JONAS Y. SANTIAGO                                        0501
A0101407140213385506002**********                                               0501
A3101400160221220163001AZUCENA R. BEREDO                                        0501
A3101400160221478374058MARIBEL S SIBOR                                          0501
A0101406460272381558001********                                                 0501
A0101408660274478374013HERRERA, CHRISANTINA DOMINGO                             0501
A0101408660274516321001SERRANO, FRYDAI L.                                       0501
A1101400120313478374016NAVAL, DOLLY Q.                                          0502
A1101400120313478374071ZACARIAS, MARIA FE C.                                    0502
A1101400120313478374103ENVERZO, NARISSA LEONORA G.                              0501
A6601400120314668441002MASLOC, SHERRY AMOR GALONO                               0501
A0101402060351282067001CASTRO, EMMANUEL MANALAD                                 0501
A0101402640361523338002DE JESUS, ORMINA MAGAT                                   0505
A0101408370382408785001ANVA KIRSTEN D.L. BRAVO                                  0504
A0101402770391013439001JIREH'S CAR PAINT SHOP                                   0502
A0101408400394492830001MENDOZA IV, JUANITO PALARCA                              0501
A2401400180411478374047YOLANDA L. NINGAL                                        0501
A0101403320471478374057EMMA G. FELIPE                                           0501
A0101410140475478374010PELAEZ, BEATRIZ GUEVARRA                                 0501
A0501400170481255549001*****                                                    0502
A1901400320489522246001REMEDIOS BAHALA GONZALES                                 0501
A3801400170490707231001SHERWIN REYMOND M ICALINA                                0501
A1401400110492313436002CRIZALDO D VALBUENA                                      0502
A1401400110492493108001DEQUITO, BERNABE VILLANUEVA                              0502
A0101404130601547411001CO, ROYCE NASIS                                          0508
A0101409920650478374024DUMAWING, LUALHATI SANTIAGO                              0501
A0101407690652319667001TANTAMCO, RAMON NICOLAS                                  0510
A0101407690652474247001**********                                               0503
A0101407690652700817001PITOGO, CECILIA JALEM                                    0501
A0101406590662478374008CARMILITA C. LEYSA                                       0501
A1301400210682478374027MARY ANN M. DE LEON                                      0501
A1301400340683614499001ESPINO, MARIE CARTERO                                    0503
A0101407560686310036002TERESITA J. MONTANO                                      0501
A0101407560686618975001ABORDO, APRYL BUNCAYO                                    0501
A0101408240711226916002FONG, NOREEN CARRILLO                                    0502
A0101408240711558994001REAL, RENALYN GASCA                                      0501
A0101408240711688007002ALBARRACIN, MARIO M. JT                                  0501
A4101400390813040522001ARAO MACHINE AND WELDING SHOP                            0501
A4101400390813511060001CAMERINO, MARJORIE MILITAR                               0501
A4101400420814520766034LEONIDA M. OBELIDOR                                      0501
A4101400420814520766136VALLEJO, ELVIE                                           0501
A4101400550815709950001MARIE GHOLD M. ABANONO                                   0501
A0101406750852478374118RUBY FLAVIER                                             0502
A0101406750852620479001VICENCIO, GRACE SINDIONG                                 0501
A0201400920000000047976MEMBERS OF NATASHA SHOECAT INC                          10501
A0101412890000000371533JOSELITO B. PRAJIO AND MELINDA                          10502
A0101409920000000998581LOPEZ, SUSANA OR                                        10501
A2601400270000001009209ELPIDIO UY DBU EDISON DEVT &                            10501
A0501400170000001032102ONG, JASPER SPENCER L. OR                               10501
A0101412890000001765404ACUNA, SALVADOR A OR ACUNA,                             10506
A0101407690000001919786GINA C URIAN - DEALERS OF                               10503
A0101401250021185870001CATHERINE B. RELAMIDA OR                                10502
A0101410850109055036001VEDAJA, ELVIRA DBU                                      10501
A0101401670271704101001AGUILA, NESTOR SARMIENTO    AND                         10503
A0101406620273489850001RODOLFO P. DE GUZMAN JR. OR                             10502
A0101402060351500981001KATHRYN S. MOJICA OR JEROME A.                          10502
A5501400120410283898001GARCIA, JOSIE OR                                        10510
A2401400180411487765001KING, JACKSON OR KING, IRENE OR                         10506
A0501400170481329536001PERLA C. ROMERO OR                                      10501
A0101405940512368190002AMANDA BEATRICE V. HERNANDEZ OR                         10501
A2201400250561478374026MINDA S. BLAYA                                          10501
A0101407690652478374044MA. THERESA BACINILLO - DEALERS                         10502
A0101407690652478374133WILHELMINA REYES - DEALERS OF                           10501
A0101406590662045751001S.P.A. SCHOOL OF PERFORMING                             10502
A0101404840851415656001LEAL, MARIETTA I. OR                                    10501
A0201400920000000047976TUBIN, ELVIRA BO                                        20500
A0101412890000000371533F. PRAJIO                                               20500
A0101409920000000998581LOR, MICHAEL PATRICK                                    20500
A2601400270000001009209CONS OR JERRY GALOPE                                    20500
A0501400170000001032102ONG, FRENZY CLAI                                        20500
A0101412890000001765404ALONA C                                                 20500
A0101407690000001919786SHOECAT INC.                                            20500
A0101401250021185870001IBARO B. RELAMIDA JR.                                   20500
A0101410850109055036001KEB BOTTLEWASHING                                       20500
A0101401670271704101001CRISOLOGO, AUDREY AGUILA                                20500
A0101406620273489850001ROSARIO K. DE GUZMAN                                    20500
A0101402060351500981001RODIL                                                   20500
A5501400120410283898001GARCIA, GERARDO                                         20500
A2401400180411487765001KING, JOHANNA                                           20500
A0501400170481329536001BIENVENIDO S ROM                                        20500
A0101405940512368190002BERNICE V. TANTIATSU                                    20500
A2201400250561478374026MEMBERS OF NATASHA                                      20500
A0101407690652478374044OF SHOECAT INC                                          20500
A0101407690652478374133SHOECAT INC.                                            20500
A0101406590662045751001ARTS                                                    20500
A0101404840851415656001LEAL, LEONARDO L                                        20500
B3401400280000000002375**********                                               1601
B1301400500000000011183ANJTON TRADING                                           1602
B0601400230000000029883ORO OXYGEN CORPORATION                                   1610
B5501400120000000046842TACURONG FIT MART, INC.                                  1630
B0101403450000000135624************                                             1602
B1401400110000000167479CHRIST'S COMMISSION FOUNDATION, INC                      1601
B0101400440000000337773VIENNA PORCELANA PHILS. INC.                             1620
B0101414090000000399264BALINGGAO, JOSEPH NG                                     1603
B0901400220000000888133ZC SECURITY CREDIT CORPORATION                           1601
B0101408240000002419941ALFONSO GAS & FUEL STATION, INC.                         1610
B0101401700041479540001MULTIPARTSBOY INCORPORATED                               1615
B0101411080042443031001******                                                   1601
B0101400150061010644001JESUS V. DEL ROSARIO FOUNDATION,INC                      1610
B0101400150061010662001HINATUAN MINING CORP.                                    1605
B0101400150061016942007ASIA PACIFIC EXPRESS CORPORATION                         1605
B0301400660194044769038LUMINOUS DEVELOPMENT CORPORATION                         1605
B0301400660194469662168*****                                                    1602
B2001400290315055027001ROTARIAN MARTIN 'TING' MATIAO FOUND                      1601
B0101402060351009394001CHEMSERVE INC.                                           1604
B0101402060351085656001REBINTECH CONSTRUCTION, INC.                             1604
B2401400180411038345001PHILFRESH CORPORATION                                    1610
B0501400170481025398002****                                                     1601
B1401400110492031376001LUCENA WHEELER ENTERPRISE INC.                           1601
B0101403450521011662002SUNTRA INT'L TRADING CO., LTD.                           1605
B2201400250561428755001*****                                                    1603
B0101407270162037305001MICROGOLD INFORMATION SOLUTION AND                      11610
B0101407140213033862002MIDLAND ENGINE AND HYDRAULIC COMPONENTS                 11603
B0101407270162037305001PRODUCTS, INC.                                          21600
B0101407140213033862002CORPORATION                                             21600
