A0901400220000000012299GAYON, MARINA TACHADO                                    0502
A0301400530000000025345OROSET PHARMA, INC.                                      0502
A0101400570000000031836MARIJANE L. LAUREOLA                                     0501
A0101412630000000045321**********                                               0501
A0101412630000000045321**********                                               0501
A0201400920000000048042SHAN, ANELITO BERESO                                     0501
A0301400530000000065832PERIAS, FE                                               0501
A0301400530000000066055LI, WEN PING                                             0503
A3101400870000000074833SALANIO, LYNETTE VALDEZ                                  0501
A0101410720000000095254MIRANDA, ROWENA CRUZ                                     0501
A1901400290000000135220MARGGIE LUMBERA SALES                                    0501
A0101400310000000140923NARCISO, ARCHIE MUROS                                    0501
A0101406330000000162627RAPSING, RAZEL CANAWAY                                   0501
A0101412630000000180403GARCIA, MARY CHRIS FLORENDO                              0501
A0101412630000000180403GARCIA, MARY CHRIS FLORENDO                              0501
A0101408370000000336172PASAMONTE, SOCORRO VILLABLANCA                           0501
A0101400440000000337706ELENA A. DEL ROSARIO                                     0501
A0101408820000000408826ALCARAZ, NINA CAMPILLOS                                  0501
A0101405490000000444648MA TERESA VENZUELA DE GUZMAN                             0502
A0101401250000000460611MANDAP, RAENARD MIRANDA                                  0501
A1001400480000000474942DACALOS, GENMAR MANLOSA                                  0502
A0101406590000000568872LECAROZ, CHRISTINA SALUD                                 0501
A0101406590000000568883SOYANGCO, VERNICE ANTONETTE A.                           0501
A0101413570000000635654JOSEPHINE E. NIPALES                                     0501
A0101413600000000650975ROMEL PALARUAN BALLESTEROS                               0501
A3001400130000000668526DIONG, EVANGELINE BALANSAG                               0501
A0701400260000000670871**********                                               0501
A0101406330000000683363EDUARDO LEGARIO                                          0501
A0101410850000000778850PANAGAN, ELENITA REYES                                   0501
A0101410850000000778861MARTE, ANTONIA MAGAT                                     0501
A0101400150000000807749FERNANDEZ JR., PEREGRINO PUNAN                           0505
A0101408820000000840584RAMBONGGA, ROSALIE FARRALES                              0501
A0101409180000000874682VILLANUEVA, CHERYL ATIENZA                               0501
A0901400220000000887998**********                                               0510
A2801400100000000906161ONG, JANICE DEANO                                        0501
A3101400870000000957633LUALHATI, JEFFREY VELASCO                                0501
A0101400860000001005503**********                                               0502
A0301400530000001009870CABANA, MARIA TERESITA P.                                0501
A0101411110000001036833MARIA ERICA JAN E. VALERIO                               0501
A1001400190000001057465GABUTAN, ALOHA                                           0501
A0101401960000001064573****************                                         0501
A0501400170000001072753LEYVA, DONNA MAE MALLARI                                 0502
A0501400170000001072775******                                                   0501
A0101405490000001092626LOUIEDALE S. STA MARIA                                   0501
A4101400260000001134996SALAZAR, ZYRA ARGUILLES                                  0501
A3001400130000001271578JUICY SWEET PRESERVES MKTG.                              0501
A0101402510000001292440SACRAMENTO, GERARDO COVACHA                              0501
A0101411820000001356496ANICIA SOUZA DE MESA                                     0501
A0101405650000001377215SULIT, HILDA CASAPAO                                     0501
A0301400950000001379108**********                                               0502
A0301400950000001379119FRD PRINT WORKX                                          0502
A0301400530000001409610NAMOC, FE BIADO                                          0503
A0101413440000001472817MEJIA, REYNALDO MANUEL                                   0502
A0101413440000001472828CORONADO, RHODORA BARRAMEDA                              0501
A0101409920000001539540KITAGAWA, ELIZABETH PILAPIL                              0501
A0301400820000001554832MALLORCA, ABEGAIL S.                                     0501
A2001400290000001557520DOMALAON, LELANI LASMARIAS                               0502
A2001400290000001557531CORTEZ, CHARIBEL GANGOSO                                 0501
A0101410720000001602164NORICO, CUSTODIO NALAGON                                 0501
A4101400550000001622526LEDESMA, RAFAEL ANGELO SERGIO                            0501
A4101400260000001783491TAEZA, HERO TUGADI                                       0501
A4101400260000001783508ANTONIO, EMERITO GALANG                                  0501
A1901400290000001950249MARIETTA CAFE DEL RIO                                    0501
A0101400860011397246002**********                                               0502
A0101400860011405002004**********                                               0503
A0101400860011405035001QUINITIO, VERNON GARCIA                                  0502
A0101400860011441876001**********                                               0503
A0101400860011524796001**********                                               0502
A0101400860011606340001**********                                               0505
A0101401700041036012001MORNING GLORY AUTO SUPPLY                                0510
A0101400150061189064001VENTURA, JOSEPHINE BANAAG                                0501
A0101400150061236944140MAE S. VILLANUEVA                                        0501
A0101400150061697360002VINAS, MARC DANIEL CLAUDIO                               0501
A0101410560110652683001BUSTAMANTE, PATERNO CABUNAG                              0501
A0101401830141546547001REATAZA, NELIA MORABE                                    0502
A0301400530193047254189TAGUM TRIO LUMBER CORP.                                  0510
A0301400530193455730088BANO, LILIAN CORPUZ                                      0505
A0301400530193478374012FUEREN, JANETH C.                                        0501
A0301400530193551857001MORENO, ISAIAS L.                                        0504
A0301400530193749518088ROBLES, CELEDONIA F.                                     0501
A0101400310211478374049ANITA S. MARTIREZ                                        0501
A1001400190231520766017RABANES, ELECTA CAMPION                                  0501
A1001400190231568191001CANON, CARLOS MASCARINAS                                 0501
A1901400290261390520001JOEL PUNZALAN DIMAANO                                    0502
A0101406620273520627001TIBAY, CARMELITA PENAMORA                                0501
A0101400570281186598002DR. BIENVENIDO SUBA GADDI                                0505
A0101400570281388539001JOSEFINA S. SUMAYA                                       0504
A0501400200292694336002PACIS, WILMA RAMOS                                       0502
A1101400120313546456001YAO, MARILYNE GO                                         0501
A2001400290315041683001MINDANAO SIBULAN MACHINE SHOP                            0502
A0101408820333478374042MARILYN LETRAN                                           0502
A0101402510341036645001MANG INASAL RESTAURANT                                   0502
A0101402510341045146001GOLDEN DIMSUM FOOD EXPRESS                               0501
A0101402060351295053001VINCENT ADRIAN H. ERMITA                                 0501
A0101402060351483772001CAPUMPUE, ADOR PEREZ                                     0502
A0101409050352648933001ROSEMARIE D. ANTONIO                                     0501
A0101402640361039299001JANRELK TRADING                                          0501
A0101402640361169160004PEREZ, REYNALDO SAN LUIS                                 0510
A0101402640361170246001GALLARDO, EDILBERTO CLETO                                0501
A0101402640361478374042FABIA, MERCELITA                                         0501
A0201400760374485660001SI, MARGARET ANG                                         0501
A0101405490392033011001VICELA MOTOR WORKS                                       0503
A0301400820409760125002GEPITULAN, DANTE C.                                      0501
A5501400120410729506001JOSOL, ARLIEN BACON                                      0501
A1201400150421294360001MACASAET, MELISSA BAUTISTA                               0503
A0101406330472297068001FLORANTE S. GAJASAN                                      0503
A0101406330472298552011CARINA F. FALQUERABAO                                    0501
A0101406330472311319001ALEJANDRO V. VICTORINO JR.                               0502
A0101403580511323054001FEDERICO C. LAFUENTE JR.                                 0501
A0101404260611151278002OFELIA F. RAMOS                                          0501
A0101404260611155266001YU, SUSANA OR EDDIE                                      0501
A0101404260611451653004SUNGA, NERY OCAMPO                                       0505
A0101404260611478374065MARIA CHRISTINE ELIZARIO                                 0502
A0101404260611478374091ROSITA LLANES                                            0501
A0101404420631478374124SONIA T. LUBRICO                                         0501
A0101410720653092226001SECILLANO, LUIS SAYSON                                   0501
A0101410720653378318001NAJOS, ELVIRA ABAO                                       0501
A1301400210682245308001ERNESTO REYES JR.                                        0505
A1301400340683542735002BIUNAS, REMEDIOS GREGORIO                                0501
A0101408240711490981001MILLS, AMPARO OR VICENTE JR.                             0501
A0301400530000000065763THE MUSIKAHAN SA TAGUM                                  10501
A0101405490000000355719CRISTOBAL, IMMANUEL C. OR                               10501
A0101412050000000697190RIVERA, TEODO DBU BLAZE EFX                             10501
A0101413020000000880320TIONGSON, MELCHOR DBU: M-CEE                            10501
A0101406330000001235169MONPONBANUA, ANGELO ANTONIO                             10501
A0101401830000001281998RIVERA, RAMIL DBU ICON RBR                              10501
A1301400340000001415678PEREZ, LUCIA P DBU RFJ GENERAL                          10501
A0101410720000001602175JAVIER, SERGIO L. OR                                    10501
A0601400100081251801002PANLILIO, AUGUSTO OR                                    10501
A0101401090171195606003REYNALDO/MA. LOURDES/KENNETH                            10510
A0301400530193571748168UY, EMERALD L. OR                                       10510
A3101400160221220693001GERONIMO B. SALES OR                                    10505
A0101406620273213498001JORGE, LEILA EBORA OR                                   10502
A0101406620273587784001MENDIOLA, JOCELYN OR MENDIOLA,                          10501
A0101400570281186248002MABINI CASTELO OR                                       10504
A0101400570281344838001AUGUSTO GUTIERREZ REYES OR                              10502
A0201400890376545727001SY, VICENTE OR CHARITO OR VANCE                         10501
A1901400160491046567001ARTHUR G. BLANCO DBU                                    10501
A0101407430503279466001CARINA S. TALEON OR                                     10501
A0101407720602166527001ALIPIO ABAD JR. OR                                      10505
A0101407720602166527002ALIPIO ABAD JR. OR ADORACION                            10505
A0101410720653385187001SERVILLANO H. GALVEZ JR. OR                             10503
A0101410720653435006001LETICIA NICOL OR CHARLES NICOL                          10501
A1301400500684611748001CANOZA, MARY JANE C. OR                                 10502
A0101408240711386973003ROBERTO SANTIAGO OR                                     10502
A4101400550815181680001MONTARDE, NELSON V. OR                                  10504
A0101404840851210994001LIGAYA P. GASCON OR                                     10505
A0301400530000000065763FOUNDATION INC.                                         20500
A0101405490000000355719CRISTINA C. OR LIBRADO                                  20500
A0101412050000000697190EVENTS PRODUCTIO                                        20500
A0101413020000000880320PHARMACY                                                20500
A0101406330000001235169BOLINAS                                                 20500
A0101401830000001281998GLASS AND ALUMINUM SUPPLY                               20500
A1301400340000001415678MERCHANDISE                                             20500
A0101410720000001602175JAVIER, ELENITA O.                                      20500
A0601400100081251801002PANLILIO, MARIE                                         20500
A0101401090171195606003ROSS/KRIZIA JAVATE                                      20500
A0301400530193571748168UY, CIARA ISABEL                                        20500
A3101400160221220693001DOREEN A. SALES                                         20500
A0101406620273213498001JORGE, ROBERT                                           20500
A0101406620273587784001GABRIEL OR TANCH                                        20500
A0101400570281186248002MARIBINI SIOSON                                         20500
A0101400570281344838001MARITA REYES                                            20500
A0201400890376545727001CEDRIC OR CHUA,                                         20500
A1901400160491046567001A. BLANCO MARKETING                                     20500
A0101407430503279466001CESAR L. TALEON                                         20500
A0101407720602166527001ADORACION ABAD                                          20500
A0101407720602166527002OR ANABELLE ABAD                                        20500
A0101410720653385187001KAREN F. GALVEZ                                         20500
A0101410720653435006001OR ANA LIZA NICOL                                       20500
A1301400500684611748001CANOZA, MARK WILLIAM                                    20500
A0101408240711386973003DIANA SANTIAGO                                          20500
A4101400550815181680001MONTARDE, MILDRED                                       20500
A0101404840851210994001MARIA LOVELY DEL                                        20500
B0201400920000000007941HIGH POINT CARGO MOVERS INC.                             1601
B1301400500000000011183ANJTON TRADING                                           1602
B1301400500000000011194GREEN FORTUNE GAS STATION                                1605
B0601400360000000025801NEXT GAMES OUTSOURCING, INC.                             1610
B0101401830000000033616CARITAS SALVE CREDIT COOPERATIVE                         1602
B0101408950000000036815ROTARY CLUB OF MAKATI DASMARINAS                         1602
B0101413310000000039978LIBERTAD TRADING CORPORATION                             1601
B0601400100000000142101VITAL LIFE SPRING NATURAL HEALING                        1602
B0601400100000000142112SANTOS HEALTH & WELLNESS ENTERPRISE                      1602
B0101404260000000550270SAMACO, VIRGINIA FAVIS                                   1601
B4101400260000001198927MABUHAY CONGLOMERATE ASPHALT INC.                        1610
B0301400820000001554843MC SELMA AGRI WASTE SUPPLY                               1601
B0101400150061021914001E- SCRIBIR INC.                                          1605
B0101400150061226857001ARL MARITIME SERVICES INC.                               1603
B0101400150061447303001TANY FOUNDATION, INC.                                    1603
B0101401960121011807001APCO MARK INDUSTRIAL SALES                               1601
B0101401960121456874001ICENIT LIGHTS & DECORS, INC                              1601
B0101407270162019079001CITY CHIX INC.                                           1605
B0101407270162037605002MAINE CITY PROPERTY HOLDING CORP.                        1605
B0101407270162044145001VICKSBURG, INC.                                          1605
B0301400530193044706199ROYAL CROWNE BEVERAGES                                   1603
B0101410720210046325001BUENA RICH COMMISSARY CORPORATION                        1601
B0101400310211005815001STI COLLEGE - MUNOZ EDSA, INC.                           1605
B0101407140213037632001**********                                               1605
B0101407140213190957001**********                                               1601
B1901400290261048088001B & V FEEDMILL                                           1603
B0101401670271007081001BELSON DEVELOPMENT CORPORATION                           1604
B0101401670271038514001DWIGHTSTEEL BUILDING SYSTEMS INC.                        1602
B0101406460272033798001WTA ARCHITECTURE AND DESIGN STUDIO                       1605
B0101406620273040510001DIAMOND CONCEPT, INC.                                    1602
B0101411110276118888008JJIPP INCORPORATED                                       1603
B0101405650322027007001PINOY EXPRESS HATID PADALA SERVICES INC.                 1610
B0101402060351027380001RAGC MULTI-PURPOSE COOPERATIVE, INC                      1601
B0101402640361015892001CAPITOL STEEL CORPORATION                                1602
B1401400110492027100002SACRED HEART COLLEGE                                     1601
B1401400110492036857001FRC SULO RIVIERA HOTEL CORPORATION                       1603
B1401400110492044975001RAQUEL PAWNSHOP, INC                                     1601
B0101408530516758816001ZAB INSURANCE AGENCY, INC.                               1602
B0101404260611005448001GUADALUPE CATHOLIC SCHOOL                                1610
B0101404420631368212001*******                                                  1610
B0601400230891039268001GOLDIE PLUS LENDERS, INC.                                1605
B1301400760000000007161TARLAC MAC ENTERPRISES, INC. DBU SAVER'S                11602
B0101400150061484920001ST. CLAIR SECURITY AND INVESTIGATION                    11602
B3101400160221284706001INSTITUTE FOR FOUNDATIONAL                              11605
B0101402510341018003001COLEGIO MEDICO-FARMACEUTICO                             11606
B0101402640361030613002LCTSI-LEAD CORE TECHNOLOGY SYSTEM                       11605
B0101405490392043122002CHEMPACK INTERNATIONAL AND BUILDERS                     11602
B1201400150421496291001LIQUETE, DOLORES SAGUID OR LIQUETE,                     11601
B0101406330472027929001STO. TOMAS DE VILLANUEVA PAROCHIAL                      11602
B1301400760000000007161DIGITAL HUB                                             21600
B0101400150061484920001AGENCY, INC                                             21600
B3101400160221284706001LEARNING, INC.                                          21600
B0101402510341018003001DE FILIPINAS INC                                        21600
B0101402640361030613002INCORPORATED                                            21600
B0101405490392043122002CORPORATION                                             21600
B1201400150421496291001LEONARDO                                                21600
B0101406330472027929001SCHOOL                                                  21600
