F4101400260000000002222INVESTRENEUR MULTI-PURPOSE COOPERAT                      2605CKO
F0601400520000000398578GARDEN DINE RESTAURANT INC.                              2602CKR
F0601400520000000398578GARDEN DINE RESTAURANT INC.                              2601CKR
F0201400180181025728003MDR MICROWARE SALES, INC.                                2601CKR
F0101402510341196747002CENTRO ESCOLAR UNIVERSITY                                2650CKR
F0101402510341196747002CENTRO ESCOLAR UNIVERSITY                                2650CKR
F0101403580511005485009P.J. LHUILLIER, INC.                                     2610CKR
F1301400210682038791001ULY'S GREEN STRUCTURE                                    2605CKO
F1201400280671768440001BATANES, BONNER S. OR BATANES, BENTER S.                12610CKO
F12014002806717684400016715500142                                              22600CKO
