F0101408240711389438001ELENITA LEE OR                                          12501CKO
F0101408240711389438001ANGELEN LEE                                             22500CKO
F0101410690000000001850COLOR1DIGITAL, INC.                                      2602CKR
F3101400580452015475002INDEPENDENT TELEPHONE COMPANY                            2603CKR
F4101400550815044429001CAMELLA HARDWARE & CONSTRUCTION SUPPLY                   2602CKO
F4101400420814035011001GRJ JARO ENTERPRISE INC.                                 2705CKC
