F1201400280671434775001LANA, WILLIE KIM DELOS SANTOS                            2504CKO
F1301400630000000010322DIVINE'S GRILL ASIAN CUISINE                            12505CKO
F3301400120000002030573FIDELA M. DEGUINO OR                                    12501CKO
F1301400630000000010322CORP.                                                   22500CKO
F3301400120000002030573ARSENIO C. DEGUINO                                      22500CKO
F1401400110000000034620VIEWERSS MOBILE INC.                                     2602CKR
F0101408400394031095003LIVINGWATER SYSTEM, INC.                                 2620CKO
F0101406880513030873001RT LAWRENCE CORPORATION - PHILIPPINES                    2610CKO
F1201400280671045522001CORDILLERA COMMUNITY AND FAMILY AS                       2602CKO
F0101403610531041592001EVANGELISTA MEDICAL SPECIALTY                           12605CKR
F0101403610531041592001HOSPITAL                                                22600CKR
