A4101400260000000002142TAJANLANGIT, JACKIE C.                                   0502
A0101411790000000005881WONG, JUNEDITH LONTOC                                    0502
A0101405810000000016606*****                                                    0501
A0101402510000000200164EVELYN M. TOLENTINO                                      0502
A0101402510000000200164EVELYN M. TOLENTINO                                      0502
A0101402770000000360592************                                             0501
A1201400150000000473169DE VERA, JEANNIE ANN DELA CRUZ                           0501
A0101404260000000550207VEGA, ALLAN COSTALES                                     0501
A0101411080000000805743*****                                                    0501
A0101400150000000808140MADRID, ROCHELLE ANNE SADICON                            0501
A0101401250000000907288CASTILLO, ROSELYN VILLAR                                 0502
A0101412180000000908463SORIANO, JOIE PARAGAS                                    0506
A0101401830000001139997VIOLAGO, MA. MERCEDES MENDOZA                            0501
A3101400160000001169131YACON, MARGARETTE EVANGELISTA                            0501
A0101407140000001218319***************                                          0501
A0101406330000001235307DULLAN, JESSILYN OSTAGA                                  0501
A3001400130000001261261ME3 CONSTRUCTION                                         0501
A1301400760000001295358JONALYN F. ALVAREZ                                       0501
A0101402350000001474197ATIENZA, ARLENE BETIONG                                  0501
A0101412050000001499669NOVEDA, RODRIGO GAPASIN                                  0501
A0101408820000001766801KING, HELEN YAN                                          0501
A0101413310000001794545SANTIAGO JR., GILBERT INOCENCIO                          0501
A5501400120000002019078AGUERO, RONNIE SUMBLINGO                                 0501
A0201400760000002047223LOPERAS, JULIET                                          0502
A0101413150000002062179*******                                                  0505
A0101406750000002251412ADOLFO, MARIA CORAZON OLA                                0501
A0101401380000002297425KIM, WON KAB                                             0502
A0101407430000002298188MIGUEL MANUEL S. DAVID                                   0505
A0101413440000002339528********                                                 0501
A0101401670000002342018ADINA, LILIA TOMAS                                       0502
A0101411080000002344076*****                                                    0502
A0101400150000002902718TOLENTINO, ROMEL TUCAY                                   0501
A3101400450000003072471REJUSO, MA. THERESA ALVAREZ                              0502
A0101402350000003080297MARCELO, JE DBU SECURE COSMETIC                          0502
A0101400150000003164452JEREMIAH E. GALURA                                       0501
A0101412340000003340650RODOLFO V. AMBITA JR.                                    0501
A0101412340000003343804JOHN GEORGE M. IKEDA                                     0501
A0101409050000003536463RABUY, ELEANOR                                           0501
A1701400230000003698120RUIZ, EDGAR MIGUEL                                       0503
A4101400420000003715713LAPENA, MICHELLE CABALFIN DBU L                          0501
A0101412630000003897401REVIBES, SHERIFF FOLLANTE                                0501
A0101409210000003898433CRUZ, ANNA LYN CALOLOT                                   0501
A0101409210000003898444CRUZ, MA CLARA DUNGCA                                    0501
A0101400860011674983001**********                                               0508
A0101411080042759582001 *****                                                   0502
A0101400150061038536185HONESTO EVANGELISTA                                      0501
A0101405810072234609002TAN, JOSEFINA MANOSCA                                    0505
A0101405810072234892001**********                                               0502
A0101405810072334553001**********                                               0501
A0101405810072490012001***************                                          0505
A0101401090171195667001MARY JOCYLYN OR NOEL BAUTISTA                            0503
A0101401090171374175001ADENA M. GARCIA                                          0502
A0301400530193043858168******                                                   0510
A0101407140213375186001LIM, MARILOU DY                                          0501
A3101400450223356672002PANGHULAN, JORGE OR DERLY                                0501
A1001400190231039064001SUSAN LO OR DENNIS LO                                    0502
A1001400190231040827001FOUR N ONE PARTS SUPPLY                                  0502
A1001400190231520766083ASUNCIONITA G. ALBULADORA                                0501
A0101411240283363452001ONG, JOSEPHINE SY                                        0501
A0101402350321045652001BOYET AUTOCARE SERVICES                                  0505
A0101402350321179498001ROSARIO ARCEO                                            0501
A0101402350321455602001ISAAC JAMES D. JIMENEZ                                   0502
A0101402350321478374013ROSALINA M. MARAVILLA                                    0501
A0101402350321478374017RIZA G. SANTOS                                           0501
A0101402350321699706001DE LARA, JAY GALLARDO                                    0501
A0101405650322298552015EMELITA P. ERALINO                                       0501
A0101402480331407902001***************                                          0502
A0101408820333640135001******                                                   0502
A0101402510341346704001DIZON, AMELIA TIOSEJO                                    0501
A0101402510341527509001ROWEL E. ANTONIO                                         0501
A0201400760374562572001MATA, ARSENIO FORROSUELO                                 0501
A0201400920375764651001**********                                               0503
A0101402770391340396001ERLINDA D. VILLANUEVA                                    0503
A0101405490392034892001JABEZTECH TRADING                                        0501
A0101408400394554618001GAVINO, BENILDA TABORA                                   0501
A2401400180411410897002LAO, ZENAIDA QUINO                                       0502
A2401400180411478374002ROSALINA VILLASAN SANTUA                                 0501
A0101403030441522823001**********                                               0501
A0101403320471365878001*******                                                  0502
A0101403320471470037001JULIETA D. MALLARE                                       0502
A0101410140475478374010PELAEZ, BEATRIZ GUEVARRA                                 0501
A1901400160491283249001NELINDA N MENDOZA                                        0501
A0101407430503736499001CECILIA P. REVAREZ                                       0501
A0101411790518055764105CUSI, VANESSA LORRAINE GAVAN                             0501
A0101411790518055815141SOTO, CYNDIE DE ASIS                                     0501
A0101403450521238571002*********                                                0501
A0101404260611022508001WORK AT PRINT, INC.                                      0501
A0101410720653565189001VICTO, BERNARD KING QUIJANO                              0503
A1301400500684478374006CABRAL, MARITES FLORES                                   0501
A0101408240711478374009MARIVIC C. FLORA                                         0501
A4101400420814520766108ESPANOLA, MERELY C.                                      0502
A0601400230891253085002MARIVIC T. YAP                                           0502
A0601400230891510098001NACPIL, MA. LUISA MERCADO                                0502
A0101412890000000007569JOSEFINE JOCSON MENDOZA OR                              10501
A1001400350000000017774VENADAS, MARC LOUIE L. OR                               10503
A1301400500000000213083JUANITO F. GREGORIO OR AURELIA                          10501
A1601400170000000421047JUVY G. VILLANUEVA DBU                                  10502
A0101410300000000919615ROBLES, ENRICO S. OR ROBLES,                            10501
A6601400120000001370781BAQUERO, ADELINA DULA DBU                               10502
A0101413310000001928936CABANSAG, ARMEL CABANATAN DBU                           10502
A5501400120000002019158SUPERIO, MERLYN G. DBU DIAMOND                          10502
A0101405490000002880540MABALE, FRESVIE DBU JCB IND'L                           10502
A0101405490000003178432MIRIAM D. PANO OR MELANIO B.                            10502
A0101400150061231736002PUNO, CARMELITA DE MESA OR                              10501
A0101401090171195858001ESTELA D. MENDOZA OR                                    10502
A0301400530193729179088VILLANUEVA, PHILIP OR                                   10503
A3101400160221377318001JOVAN A. CHUA OR                                        10501
A0101401670271186385002ANDRES DEE OR MARCELA DEE                               10504
A0101402350321179303002WONG, FAI CHUN OR                                       10501
A0101402350321597544001ROBERTO T. ARSITIO OR                                   10501
A0101405650322533922001SABADO, FERDIE B. OR                                    10502
A0101405650322543641001ABELLA, FREDERICO EDUARDO M. OR                         10501
A2401400180411501589001VALILA, NOL S. OR VALILA, MA.                           10502
A0101410720653240354001ONG CHIONG, WILLIAM C. OR                               10501
A0601400230891738531001CHUA, MARK ANTHONY GARCHITORENA                         10502
A0101412890000000007569AIREEN SAMSON ANGELES                                   20500
A1001400350000000017774VENADAS, ANGELICA BASA                                  20500
A1301400500000000213083S. GREGORIO                                             20500
A1601400170000000421047THE BICOL GREENLEAF GRILL                               20500
A0101410300000000919615ANNA THERESE S.                                         20500
A6601400120000001370781FLORIANA'S GEN. MDSE.                                   20500
A0101413310000001928936AVIATOURS TRAVEL SERVICES                               20500
A5501400120000002019158MEMORIAL CARE SALES & MKT                               20500
A0101405490000002880540SALES                                                   20500
A0101405490000003178432PANO JR.                                                20500
A0101400150061231736002SANTIAGO, MA. SO                                        20500
A0101401090171195858001AMADO G. MENDOZA                                        20500
A0301400530193729179088VILLANUEVA, MELI                                        20500
A3101400160221377318001AILEEN ANG-CHUA                                         20500
A0101401670271186385002OR ANDREW DEE                                           20500
A0101402350321179303002WONG, TRINIDAD A.                                       20500
A0101402350321597544001LUVIZMINDA L. AR                                        20500
A0101405650322533922001SABADO, EMERITA                                         20500
A0101405650322543641001ABELLA, MA.RAZEL RECHILDA                               20500
A2401400180411501589001LOURDES D.                                              20500
A0101410720653240354001ONG CHIONG, JULI                                        20500
A0601400230891738531001TAYAO, GILBERT A                                        20500
B1301400470000000009561FUND LINK CREDIT & LOANS, INC.                           1602
B0101413150000000038606TRADETON CORPORATION                                     1601
B0101404840000000090242SOUTHHILL MEDICAL SPECIALISTS, INC.                      1630
B0101406750000000090931GERODA PRESTIGE SOLUTIONS INC.                           1602
B0101413860000000145275CON-PAC WAREHOUSING INCORPORATED                         1603
B0601400520000000398692SIBUL NING AETA FOUNDATION, INC.                         1601
B0101406330000000432671WHIFF EMISSION TESTING CENTER, INC.                      1602
B0101406330000000432820SIVI INTERNATIONAL TRADING INCORPOR                      1602
B0101405650000000772743BF FEDERATION OF HOMEOWNER ASSOCIATION                   1601
B0101410720000000968112TAN, R DBU BAGONG PAG-ASA BAKERY &                       1601
B0101400150061011066002FOOD SOURCE, INC.                                        1605
B0101400150061047402001SAN CARLOS SOLAR ENERGY INC.                             1603
B0101400150061542521001SAN CARLOS BIOPOWER INC.                                 1603
B0101401830141019859001NIPPON WARE MANUFACTURING CORPORATION                    1602
B0101407270162041938001TRANSPORT EQUIPMENT CORPORATION                          1602
B0301400530193038633008JHG TRADING, INC. - A                                    1610
B0301400530193038633088JHG TRADING, INC. - B                                    1610
B1001400350233611366002**********                                               1602
B0101401670271191081001EAGLECOR, INC.                                           1605
B0101406460272021222001ORION WIRE & CABLE INC.                                  1602
B0101406620273018580001DIAMOND OFFICE FURNITURE INC.                            1602
B0101406620273022309001VISOR RESOURCES, INC.                                    1604
B0101406620273034421001UNIOIL PETROLEUM PHIL., INC.                             1601
B0101406620273040510001DIAMOND CONCEPT, INC.                                    1602
B2001400290315047753001SILLIMAN UNIVERSITY COMMUNITY COOP.                      1610
B0101402350321040284002THERMOCOOL TECHNOLOGY INC.                               1605
B0101405650322024533001TUGADE ASSOCIATES, INC.                                  1602
B0201400920375036250188OCEAN TRANSPORT GROUP OF COMPANIES, INC.                 1605
B0101405490392037042001GETZ ADVANCED MATERIALS, INC.                            1610
B2401400180411036779001********                                                 1602
B0501400170481398688001**********                                               1601
B0101405940512021383001FRIENDLY ALLIANCES & MEDIA EXPRESSIONS                   1610
B0101403450521021821001********                                                 1605
B0101404260611485954001KIMSTON PLAZA REALTY & DEVT. CORP.                       1605
B0101402480000000045598SOLIVEN AGNES DBU VBA HYDRAULIC SERVICE                 11602
B0101402770000000080635PHILIPPINE SKYBIRD INDUSTRIAL                           11603
B0101401830141046312001TIMA-AN, RICHILLE DBU TMR CARGO SERVICES                11601
B0101401830141056446001GADDI DBU GREENTEK ENVIRONMENTAL ENG.                   11601
B3101400160221019509001DYNASTY ALUMINUM, GLASS &                               11601
B0101400570281038754001ZENSHO JAPANESE RESTAURANT AND SUSHI                    11603
B0101405490392458789001KENZSETH CONSTRUCTION SERVICES & SUPPLY                 11601
B0101402480000000045598CENTER                                                  21600
B0101402770000000080635CORPORATION                                             21600
B0101401830141046312001OR JAVIER, ALLAN                                        21600
B0101401830141056446001SERVICES JT                                             21600
B3101400160221019509001GEN. MDSG CORP.                                         21600
B0101400570281038754001BAR                                                     21600
B0101405490392458789001CORP.                                                   21600
B0101412050519821100608**********                                               2002
B1301400630685821100608**********                                               2005
