A0101405490000000019612MA. RIZA A. CONTI                                        0501
A0101410300000000026531VELHAGEN, MELISA BANTIGUE                                0501
A0101404680000000120145MARILYN PANDUNGAN                                        0501
A1901400160000000243558JJEG TRADING                                             0502
A0101401380000000414399BANABAN, AGNES JOY MANDALAZA                             0501
A4101400260000000469329FALCUTILA, MARISSA RAMOS                                 0501
A0101412760000000528216EMBRADO JR., JHON ROMEO RAGUSTA                          0501
A0301400950000000566723FERNANDEZ, NESTY VON CHI                                 0501
A0101408530000000594172VIERNES, MECHELLE MENDOZA                                0501
A0101408790000000599908POSADA, MARIA PAZ BAUTISTA                               0501
A0101408790000000599931INCIONG, ARNULFO LUPERA                                  0502
A0101413570000000635512LEILIN A. SORIANO                                        0501
A0101413440000000702470PISCASIO, LIZA MARIE ORTIZ                               0501
A0101403320000000735717BAUTO, GUADA LYNNE CASTILLO                              0501
A0101412760000000767897************                                             0502
A0101408950000000776730BEDUYA, EMMA IMANIL                                      0501
A0101401380000000791993********                                                 0505
A0101413020000000880451ALCANTARA, ALDEA DEALA                                   0501
A0101408790000000931060CUESTAS, NEIL BARAIRO                                    0501
A0101404680000000940772DAEZ, MARIA LUISA HERRERA                                0501
A4101400550000000981700CHAVEZ, RUBY ANNE ADA                                    0501
A0201400920000000991755SHARPE, JOY LACANIENTA                                   0501
A0101400860000001005376**********                                               0503
A0801400160000001031387DIMATULAC, NENITA MENDERICO                              0501
A0101408240000001038824VERGARA, VIRGINIA EWICAN JT                              0501
A0101412890000001056575UDOG, MA GINA SAN PEDRO                                  0501
A1601400170000001068651JOEL A. PANGANIBAN                                       0501
A1601400170000001068662MARIA JULIETA I. SALVOSA                                 0501
A0101413570000001069596JOHN ROSS R. DELA CRUZ                                   0501
A0501400200000001081054RAMOS, TORIBIA RODRIGO                                   0501
A0101408530000001268479FLORENTINO JR., BENJAMIN LAGAZO                          0501
A1301400760000001295416ROSEBEL R. DISTAJO                                       0501
A1301400470000001299112ERNESTO S. MERCADO                                       0501
A0101404840000001312598JUNALYN E. BALARDO                                       0501
A0301400950000001379546SARABIA, MAY JOY DUCO                                    0501
A0301400950000001379557SHIN, HA IM                                              0501
A0101413990000001406502MAGRARE, FERDINAND PIOQUINTO                             0501
A0601400100000001442751CACHO, EDGAR ESPIRITU                                    0501
A0101413440000001472920FERIDO, SALVADOR P.                                      0501
A0101405940000001534281SABAYTON, LOVELLA PILAPIL                                0501
A0101402480000001562181PINOL, LORRAINE JOY CAMILOTE                             0501
A0101407270000001596854CHARISZEL Y. CASTILLO                                    0501
A0101407270000001597066ARNEL A. COLUMBRILLO                                     0501
A0101403320000001646664MANONG CHRIS TAPSILOGAN                                  0501
A0101403320000001646835VIRGILIO S. LATOY                                        0501
A0101403320000001646846DAISY MAE B. DOMINGO                                     0501
A0101413570000001682599LOLITA L. ALMAZAN                                        0501
A0101413570000001682602MARIA T. LEONOR                                          0501
A0101413570000001682613**********                                               0502
A0601400230000001687129HIZON, MYRA DOMINADORA ORDILLAN                          0501
A0101400730000001697334******                                                   0501
A0101404260000001725264DE LEON, CORNELIA ALCANTARA                              0501
A4101400260000001783593PARAS, MARIA LOREINE MONTARIAL                           0501
A4101400260000001783600PAGE, MYLA BUARON                                        0501
A0101400730000001822191GALICIA, NINA CASTRO                                     0502
A0101404130000001831750NATANAWAN, LUZ MONSALUD                                  0501
A0101400860011350677001**********                                               0501
A0101400860011451981001**********                                               0502
A0101400860011452750001**********                                               0501
A0101400860011469369001**********                                               0501
A0101400860011485313002**********                                               0502
A0101400860011514409001**********                                               0502
A0101400860011520168001**********                                               0505
A0101400860011743392001**********                                               0502
A0101401700041042636001******                                                   0502
A0101400150061337099130*****                                                    0501
A0601400100081253896001GALURA, RESTITUTO Y.                                     0502
A0601400100081382138001MANGUERRA JR., WILFREDO TORRES                           0510
A0601400100081604340001JOSEFINA P. MAGANA                                       0503
A0101400730111195439001TAN, ROWENA                                              0501
A0101400730111477184001MARCOS, BEVERLY MEYAS                                    0501
A0101400440161039572086JANETH C. CANILLO                                        0501
A0101400440161520766023PACITA R. ENRIQUEZ                                       0501
A0101400440161525001104EVELYN G. GARCIA                                         0501
A0101401380201038274001CHI-JO RESTO BAR                                         0505
A0101401380201500598001CARREON, DAISY FONG                                      0501
A0101400570281422071001DRA. ELSIE B. PASCUA                                     0502
A0801400160311265752001DIVINAGRACIA, LLANE GRACE                                0501
A0801400160311267104001SAN JOSE, BERMUNDO E.                                    0501
A0801400160311478374070GENALYN M. BOTANERO                                      0501
A0801400160311478374093AMELIA H. TAYCO                                          0501
A6601400120314644173001ALLADO, MERLY POLICARPIO                                 0501
A0101402480331022723001**********                                               0501
A0101402480331218899001**********                                               0501
A0101402480331224478001**********                                               0501
A0101402480331304122008***********                                              0501
A0101402480331311155001**********                                               0505
A0101402480331429524001**********                                               0501
A0101402480331520766046NUNEZ, EVANGELINE                                        0501
A0101402480331520766054MELIZA D. DIZON                                          0501
A0101402480331520766125VIRAY, DARIA ZABALA                                      0502
A0201400920375524523001MIEL, PRINCESITA OR MIEL, ALEX                           0502
A0201400890376039667001PROTECH WATER SYSTEMS                                    0502
A0101408790383671821001ELLEN BALING MENDOZA                                     0501
A0101408400394478374090MARY DUMASLAN                                            0501
A0101408400394606029001ARIMAO, JUNAIRA PACALUNDO                                0501
A0101403320471193254001JOSEPHINE S. BAYSA                                       0503
A0101403320471478374051MYRA ATANGAN                                             0501
A3801400170490707231001SHERWIN REYMOND M ICALINA                                0501
A0101403580511737804001JOSEPHINE I. LACSON                                      0501
A0101408530516578215014MALINGCO, JOHN FARIZ                                     0501
A0101403450521559329001***********                                              0501
A2201400250561253789001MELIZA TRACY G. FLORES                                   0501
A2201400250561297004048DENNIS B. DIZON                                          0501
A0101404130601027289119CRUZADO, AIMEE                                           0501
A0101404130601354508001LOLITA M. HODREAL                                        0505
A0101404130601452661001KING, ARCHIMEDES OR KING, WYDEN                          0502
A0101404130601492243001DONGUINES, ROWENA DREQUITO                               0501
A0101404130601591767001SISTER, MICHAEL ASTORGA                                  0501
A0101407720602334203001RAFAEL G. GRANDE                                         0502
A0101404680651525001022LEILA L. SARTE                                           0501
A0101411530654083914001**********                                               0501
A1301400340683353482001JOSE, MARLENE RODIL                                      0502
A0101407560686173563003CORAZON P. QUEROL                                        0502
A0101407560686478374027SHIRLEY MIRANDA                                          0501
A0101407560686478374070MAURA G. CAGAS                                           0501
A0101407560686662041001RACHIEL R. CORDOVA                                       0501
A4101400260812036909001MLB ENGINEERING WORKS                                    0501
A4101400260812036909001MLB ENGINEERING WORKS                                    0501
A4101400390813691497001LIM, MARILOU ROQUID                                      0501
A0101406750852478374002TERESITA LIWANAG                                         0501
A0601400230891253188001TERESITA OR EDUARDO PINEDA                               0505
A0101413280000000041852OLA, EDAM CRUZ DBU HIJK SHIRT                           10501
A0101403320000000067565DE CASTRO, RENIEL DBU                                   10502
A0101413860000000144994SORONGON, PRECIOSA VALENZUELA                           10501
A0101411530000000178870JANNAH ELAINE TORRES OR                                 10501
A0101405940000000506067GACHO JR., ARNEL BANARES OR                             10502
A4101400550000000506814DALAGAN, CATALINO B. OR                                 10503
A0101412760000000530629PANGILINAN JR., DBU EDZ AIRCON                          10501
A0101411240000000629390MEDALLADA, ANNALIZA DBU M3A                             10501
A0101405490000001092717ROSLINA M. AMEROL DBU AMEMAR                            10502
A0101405650000001377282DUMALE, DBU TOPS MODULAR                                10501
A0101413440000001472931PERALTA JR., NEMESIO S.                                 10501
A0101409050000001662426FEPIANCO, FRA DBU DRAGON EMPIRE                         10501
A0101407140213193202001GO, GLORIA PEREZ OR GO, SHERWIN                         10504
A6601400120314415183001UY, CHRISTIAN EMMANUEL OR                               10501
A0101405940512566824001RAMON ARTEFECIO OR MARILYN                              10502
A0101404420631485376001NAVAL, HEIDI GADIL OR                                   10502
A4101400390813473680001SULARTE, VENICE BANAYNAL OR                             10501
A0101404840851710251001MALAIKA, ABDULAZIZ OR GONZALES,                         10501
A0101413280000000041852PRINTING & DESIGNS                                      20500
A0101403320000000067565E+DC ARQUITECTOS                                        20500
A0101413860000000144994JT FLORENTINO, CECILIA                                  20500
A0101411530000000178870FREDERIC RAY TORRES                                     20500
A0101405940000000506067GACHO, CARLOTA CANON                                    20500
A4101400550000000506814DALAGAN, TERESITA S.                                    20500
A0101412760000000530629& ELECTRONIC SERVICES                                   20500
A0101411240000000629390GASOLINE STATION                                        20500
A0101405490000001092717GENERAL MERCHANDISE                                     20500
A0101405650000001377282BUILDERS                                                20500
A0101413440000001472931OR PERALTA, MARISSA D.                                  20500
A0101409050000001662426CONSTRUCTION                                            20500
A0101407140213193202001CLARENCE OR GO, ABIGAIL                                 20500
A6601400120314415183001UY, FLORIANE                                            20500
A0101405940512566824001ARTEFICIO OR JUAN CARLOS                                20500
A0101404420631485376001NAVAL, ANTONIO J                                        20500
A4101400390813473680001SULARTE, RIZALDY                                        20500
A0101404840851710251001KARIMA                                                  20500
B0201401020000000005249BOSTON HARDWARE INC.                                     1602
B3101400740000000013958STARWORLD CORPORATION                                    1605
B0101401670000000016286PSE-CST JV CORP.                                         1602
B0101405490000000019981H.E. & G. ENTERPRISES                                    1602
B0101409180000000036586KOOKAI MODULAR SYSTEMS, INC.                             1601
B0101401670000000178596MA CECILIA BARCELONA & MARITESS GALLARDO                 1601
B0101409050000000258582BITUMEN GLOBAL ALLIANZ INC.                              1601
B0301400950000000566978J&S INDUSTRY CORPORATION                                 1610
B0101400150000000633389ZIONTEQ, INC.                                            1601
B0101404130000000696204VIRAY, ELLIZARH PABALAN                                  1601
B0101405940000000886682SEWELLS GROUP PHILIPPINES, INC.                          1601
B3801400170000000955131VIC IMPERIAL APPLIANCE CORPORATION                       1602
B0101408400000001258599PASAY ULTRASOUND AND PERINATAL SVC.                      1604
B0801400160000001289818TAWHAY RESORT ESTATE, INC.                               1602
B0101402480000001562005********                                                 1601
B0101402480000001562027************                                             1610
B0101400860011305536001**********                                               1601
B0101400860011792731001**********                                               1603
B0101400150061029759002A.M. SISON, JR. & PARTNERS LAW OFFICE                    1610
B0101407270162027500001CASTLEMAINE CORP.                                        1605
B0101407140213035967001MAYLAND CONSTRUCTION & ELECTRICAL SUPPLY                 1601
B0101401670271041791001A PI SQUARE KINDER SCHOOL INC.                           1602
B08014001603110189040013 TOPS TRADING                                           1610
B2001400290315052317001NRU TRADING                                              1610
B0101402480331010415002***************                                          1601
B0101402480331019981001***************                                          1602
B0101402480331033229011TGP DRUGSTORE                                            1603
B0101402480331033229021TGP DRUGSTORE                                            1603
B0101402480331039628004TOTALGENERICS PHARMACY INC.                              1603
B0101402480331043435001UNIFIBER INDUSTRIES, INC.                                1604
B0101402480331043724001***************                                          1602
B0101402480331047395001**********                                               1601
B0101402480331224100001PREMIUM BEE FOODS CORP.                                  1603
B0101402480331238839001WIL-NAN MERCHANDISING & TRADING                          1604
B0101402480331557484001*******                                                  1601
B0101402480331665824001***************                                          1601
B0101402510341014966001CEUFAWU-SOP                                              1602
B0101409050352043882001NONITO SHOES AND BAGS SUBCONTRACTOR                      1602
B0101405490392006541001GLOBALTECH AUTOMATION, INC.                              1602
B0101405490392019217001SHEMA RESOURCES, INC.                                    1602
B0101408400394028560002NEW LIFE CHRISTIAN CENTER (THE FORT) INC                 1601
B2401400180411272643002KMG GAS & DRIVE                                          1601
B0101403320471022389001PRIME PIZZA INCORPORATED                                 1603
B0101403320471206926002LOLITA B COLINA                                          1601
B1901400160491012898001BNHS - TEMCO                                             1601
B0101408530516033356001**********                                               1602
B0101403450521017837001**********                                               1601
B0101404000551024348001APPLESEED MONTESSORI INCORPORATED                        1601
B0101404130601022494001CARE BEST INTERNATIONAL, INC.                            1604
B0101407720602463868002MAKATI HEALTH SPECIALIST CONNECTION, INC                 1601
B0101404420631093069168******                                                   1605
B0101406750852040242002MANUELA CORPORATION                                      1605
B0101405490000000019992DOMIE E. SINDAY DBU SHEMAPHIL ENT. OR                   11601
B0601400100081022878001DM CRISSAN AUTO SUPPLY & CAR ACCESSORIES                11604
B0101401670271555562003GREEN ASIA REAL ESTATE AND DEVELOPMENT                  11601
B0101405490000000019992EMILY C. PALLON                                         21600
B0601400100081022878001SAN FERNANDO                                            21600
B0101401670271555562003INC.                                                    21600
