A0601400230000000029923VARGAS, ELVIN OLIVEROS                                   0501
A4101400390000000048542MISA, DARWIN ONSIANGCO                                   0501
A2401400180000000073583BARBON DENTAL CLINIC                                     0501
A2601400270000000084206CATHERINE D. TAGUIAM                                     0502
A0101406040000000097001********                                                 0501
A3401400280000000156698ARDIVILLA, MA. EMILE MENDEZ                              0501
A0101409890000000209123NADONGA, ADRIANA LALU                                    0502
A0101400150000000253278GELANO, ANGELO RECTO                                     0501
A0101405650000000348787REGONAY, RENEVE ALIDO                                    0501
A0101412890000000371431GINA B BARBUENA                                          0501
A0101411530000000741713**********                                               0501
A0101411080000000805776********                                                 0501
A0101403450000000889483*********                                                0502
A1301400210000000915833BOLINA, ROVIE JOHN ANGELES                               0501
A0101410720000000968083VALDEZANSO, EVA MARIE RUBIA                              0501
A0101410720000000968083VALDEZANSO, EVA MARIE RUBIA                              0501
A0601400520000000986592MALONZO, ANNABELLE DELA CRUZ                             0501
A0101404000000001186932PABLO, CONCEPCION FLORENTINO                             0501
A0101412210000001236271FLORES, JAKE RICO                                        0501
A0101413730000001253252**************                                           0502
A0101409210000001294402ENRIQUEZ JR., RAMON GALICHA                              0501
A0101404840000001312576DOMINGUIANO, GLORIA D.                                   0501
A1301400340000001415634********                                                 0501
A1301400340000001415747VICTORIANO, ANA MARIE ATAD                               0501
A0101402770000001571160ABEL B. MADRID                                           0501
A0101410720000001602255RADER, MIRASOL BARNES                                    0501
A0101401090000001618719TAN DE GUZMAN, WILSON LIM                                0501
A0101413570000001720241N. SARMIENTO TRADING                                     0501
A0101400730000001822384DABALOS, PATRICIA ANNE ESMADE                            0502
A2401400180000001935920DINOPOL JR., CRISTETO ESTRELLA                           0501
A0101400150000002394625KATIGBAK, CARMENCITA D.                                  0501
A0101400150000002394636KATIGBAK, CARMENCITA D.                                  0501
A0101413440000002425521BAUTISTA, VON HENRY BUGAYONG                             0501
A0101413440000002629241APILADO, MARYFLOR ILAGAN                                 0501
A0101413440000002631170LICUAN, ANDREA LOISE GORGOLON                            0501
A0101411400000002637961SUPAN JR., DOMINGO RICARTE                               0501
A0101411400000002639701AMON, ELENA ESLLER                                       0501
A0101411400000002639876ZABALA, WILFREDO QUINTO                                  0501
A0101400150000002640906ABELLO, FREDERIC SUMPSI                                  0501
A0101401700041311242002**********                                               0510
A0101401700041330733013FINA M. LOPEZ                                            0501
A0101401700041494742001**********                                               0501
A0101401700041541249001*****                                                    0501
A0101400150061564610128VICENTE N. BORJAL JR.,                                   0501
A0101400150061707501001ANG, JEANILLE ALYANNA UY                                 0501
A0601400100081742493001SANTIAGO, FELICISIMO VALENCIA                            0502
A0101400730111297877001MOJARES, JENNIFER DELA CRUZ                              0502
A0101406040112798101001CIGRES, EDWIN TAN                                        0501
A0101401960121096152001***************                                          0501
A0101401960121500679001**********                                               0503
A0101400440161093935001DUPAYA, NELIA ARELLANO                                   0501
A0101400440161525001049MYRA M. MANDO                                            0501
A0101400440161525001067JENIFFER T. JAVIER                                       0501
A0101407270162427325001KIM PARK, YOUNG HEE                                      0505
A0101401090171031166001GEA CABLING SERVICES                                     0502
A0101401090171198491001DR. LARRY S. KING                                        0505
A3101400160221220150001PUA, MARCIANO                                            0502
A3101400160221533272001NICOLAS S. MOLON                                         0503
A3001400130230767566072ROBLES, ADAH JUNE CATEDRAL                               0501
A1001400190231520766079JANDAYAN, SATURNINA                                      0501
A1001400190231520766113MALMIS, MARILOU FERNANDEZ                                0502
A1001400190231731854001APDIAN, BETCHEROS OTOC                                   0501
A2601400270302591563001ROSITA R. CHE                                            0501
A6601400120314612866001ALCERA, JUNELL PAUL OR JENNIFER                          0501
A6601400120314668441002MASLOC, SHERRY AMOR GALONO                               0501
A0101402060351444611001BONDOC, NARCISA NAVARRO                                  0502
A0201400760374720031001******                                                   0502
A0101408370382482271001DR. LARRY V. ACUNA                                       0502
A0101408370382706108001ALFREDO P. DAVID                                         0501
A0101402770391211531001**********                                               0502
A0101412210399094817014JOSE RODERICK F. FERNANDO                                0501
A5501400120410691763008DR. JANET P. CELIZ                                       0503
A2401400180411422439001ISMAEL, KHALID ABDULLAH                                  0510
A2401400180411478374042JOYCE R. GALLEON                                         0501
A2401400180411621739001JACOB, NOEL RULLON                                       0501
A0101403030441239078001**********                                               0501
A1901400160491247764001MARITES E RAMIREZ                                        0501
A1401400110492478374010BACULI, TERESA D.                                        0504
A0101408110515041358001MADE IN HEAVEN ENTERPRISE                                0501
A0101408530516487118001ADVINCULA, LEONARDO CASTILLO                             0501
A0101403450521641972001********                                                 0501
A0101407720602161904001B.G. BENITEZ, JR.                                        0502
A0101407720602342044001DR. DARWIN ALBERT DASIG                                  0501
A0101407720602353609002ANTONIO V. SANTIAGO                                      0502
A0101407720602496503003GINA MARINA P. ORDONEZ                                   0501
A0101404420631459427001GLORIA, GLORIA CRUZ                                      0501
A01014107206530270550013 J METAL INDUSTRIES                                     0505
A0101410720653032310001RBA TRUCKING SERVICES                                    0505
A0101410720653043410001SQUARE SPOT ADVERTISING                                  0502
A0101410720653405344001ROGADO, EVA DELGADO                                      0502
A0101410720653478374025SYLVIA AGBUYA                                            0501
A0101410720653505147001*****                                                    0501
A0101410720653693151001SAMBRANO, CARMELITA ASIS                                 0501
A0101413990657053590001JODELCOM SECURITY AGENCY                                 0501
A1301400340683361105001DELA CRUZ, ESTER SANTIAGO                                0501
A1701400230693095574001GUZON, BENJAMIN ALEJO                                    0503
A4101400260812708779001CAGARA, ANTHONY GARRIDO                                  0501
A4101400420814478374009FELOMINA PERICO                                          0501
A4101400420814520766119OMNOS, NOVA DESCARTIN                                    0501
A4101400420814563726001TWANO, ANGELITO DIZON                                    0501
A4101400420814572265006JOCELYN M. TWANO                                         0501
A4101400550815478374008LORELYN C. PARCIA                                        0502
A0101404840851046725006MELA M. GEROLAO                                          0502
A0101411240000000011996TERESA O AYENDE - MEMBERS OF                            10501
A0101403580000000016053MARIA CARMINA S. MESIAS OR                              10506
A1001400480000000041501SALVANA, RODOLFO L OR SALVANA,                          10503
A0101407430000000044868CABATAY, CONSTANCIO V. OR                               10501
A0101402510000000049329UNICARE DENTAL, MEDICAL TRADING                         10501
A0101410720000000211930NAPOCOR VILLAGE MULTI-PURPOSE                           10501
A0101410720000000234819MONTOJO, MIGUEL GARIANDO OR                             10501
A0101408370000000335584DR. MARIA KAISERIN J.                                   10501
A2801400230000001734710CEJALVO, FEDERICO ITOSIS OR                             10501
A0101408530000001885852EDUARDO F. DE LEON DBU AMITY                            10505
A0101401700041365653002AESOPO G. CRUZ OR                                       10505
A0101400150061396548001ALIMURUNG, BENJAMIN N. OR                               10501
A0101400150061738224002NUBLA, MELVIN SIXTO OR                                  10501
A0601400100081251941001MARCELINO ALAPAG OR                                     10502
A0101412630132094898001VENTURA, ELIZABETH CERVANTES OR                         10501
A0101401090171031503001MINT MUNCH CANTEEN & GENERAL                            10502
A0101400570281186594001MA LUISA YU OR YU PEK KIAN OR                           10501
A0301400820409093916001RACILLO, FRANK OR                                       10502
A0101403580511156582001JOSE ABELARDO AGREGADO OR                               10502
A0101406880513081555001UI, LELIE S. OR LINDSAY OR                              10501
A2201400250561478374062JENNIFER M. MARTINEZ                                    10501
A0101407720602283353001ERWIN HERNANDEZ OR                                      10501
A0101407720602381371001SHIELA H. PAGDANGANAN OR                                10502
A0101410720653528817001VINCENT GONZALO SY OR TIMOTHY                           10502
A0101407560686173817003ROBERT BUNALES OR                                       10502
A0101411240000000011996NATASHA                                                 20500
A0101403580000000016053MARIA CRISTINA S. RIVERA                                20500
A1001400480000000041501ELIZABETH C                                             20500
A0101407430000000044868UY, FREDERICK T.                                        20500
A0101402510000000049329CORPORATION                                             20500
A0101410720000000211930COOPERATIVE                                             20500
A0101410720000000234819MONTOJO, ELIZABETH N.                                   20500
A0101408370000000335584SANTOS-LIPANA                                           20500
A2801400230000001734710DOBLE, HARRY BALUYOT                                    20500
A0101408530000001885852CUSTOMS BROKERAGE                                       20500
A0101401700041365653002GRACE SANTOS CRU                                        20500
A0101400150061396548001ALIMURUNG, ALICE                                        20500
A0101400150061738224002NUBLA, KAREN                                            20500
A0601400100081251941001JASMINDA ALAPAG                                         20500
A0101412630132094898001VENTURA, ALEX NGO                                       20500
A0101401090171031503001MERCHANDISE                                             20500
A0101400570281186594001DAWN ISOBEL OR MILES YU                                 20500
A0301400820409093916001RACILLO, MACLARA                                        20500
A0101403580511156582001ELIZABETH AGREGADO                                      20500
A0101406880513081555001LEILANI OR LIANN                                        20500
A2201400250561478374062MEMBERS OF NATASHA                                      20500
A0101407720602283353001AGNES HERNANDEZ                                         20500
A0101407720602381371001ERNEST PAGDANGANAN                                      20500
A0101410720653528817001JON SY OR JULIE                                         20500
A0101407560686173817003ARLENE BUNALES                                          20500
B0101403030000000008955**********                                               1601
B0101413310000000040057REBAC CONST. AND DEV. CORP.                              1602
B5501400120000000046820RST LABOR SERVICE COOPERATIVE                            1601
B0101404260000000550310M & K LA RIVA INC                                        1601
B0101410560000000757211**********                                               1601
B0101401090000000772383THE OTHER WHOLE CHICKEN INC.                             1603
B0101411240000001563424TAN, DOMINGO L. OR TAN, DAYANOR V.                       1601
B0101409890000002636217CELIZ JR., NORETO MEDALLE                                1601
B0101401700041023617001WORLDPEPP INC.                                           1601
B0101400150061027839001ROSCOR                                                   1602
B0101400150061053524001GATEWAY LOGISTICS, INC                                   1601
B0101407140213043861001FASTITCH EMBROIDERY CORPORATION                          1601
B0101407140213190670001**********                                               1603
B0101406620273460663001PREMIUMSOLE INTERNATIONAL CORPORATION                    1604
B0101410980275047231188*********                                                1602
B0101402060351009762002NETERCO-PHILS., INC.                                     1602
B0201400920375743969001*********                                                1602
B0101402770391009312001CAPITAL GARMENT CORPORATION                              1602
B0101402770391026089001NORTH STAR AGGREGATES, INC.                              1603
B1901400160491012586001BSU CONSUMERS COOPERATIVE                                1602
B1901400160491012587001BSU CREDIT COOPERATIVE                                   1602
B1901400160491027966001SALESFORCE ONE MARKETING, INC.                           1605
B0101403450521021842005WALL VISION CORPORATION                                  1605
B0101403450521240030001**********                                               1610
B0101407720602531639001*****************                                        1610
B0101404260611028921001KICEM TRADERS AND CO. INC.                               1610
B0101404260611035690002GCJ & Y WATER REFILLING STATION - B                      1601
B0101410720653035012001GENERIC SAVES DRUGSTORE                                  1604
B0101410720653045409001JD&P FOOD TRADING CORPORATION                            1601
B0101407560686019374001MEGATECH MULTI RESOURCES CORP.                           1603
B3801400170000000018777ANTONIO CATIBOG II OR ZENAIDA CATIBOG OR                11605
B0101412630000000023849CENAR, LOIDA DBU LMH MEDICAL SUPPLY                     11610
B5001400170000000214042ONG, HAIDEE GO AND UY, ROBINETTE MONIQUE                11602
B0101401090171007908001PERPETUAL SUCCOR HOSPITAL &                             11605
B1901400160491341189001VIRGINIA R VARGAS OR                                    11601
B3801400170000000018777HAZELYN ACEDERA                                         21600
B0101412630000000023849DISTRIBUTOR JT                                          21600
B5001400170000000214042ROBINS                                                  21600
B0101401090171007908001MATERNITY, INC.                                         21600
B1901400160491341189001RICHARD D LIM                                           21600
B2101400190229821100608**********                                               2002
