A1001400190000000016457ANTIGA, LUNITA                                           0501
A2401400180000000019849DELA CRUZ, JOYCE SAGAYDORO                               0501
A0201400890000000027972******************                                       0501
A0101413440000000038060VAL O. CUSTODIO                                          0505
A0101413020000000056733AZADA, EDMUNDO HABANA                                    0505
A0101400310000000140941DIALIMAS, MA GRACIA GARCERA                              0501
A0101400310000000140952CONCEPCION, BERNADETTE ALBANO                            0501
A0101406620000000193760DIAZ, FRANCIS PATRICK TAYENGCO                           0501
A0101402640000000202068**********                                               0501
A0101413990000000205934MGN GARMENT LINE SERVICES                                0503
A0101410720000000211736GABRIEL, JOEL ORTIZ                                      0502
A4101400550000000315040BUMA-AT, THELMA                                          0501
A0301400820000000316670TIONG, ARISTON D.                                        0502
A0101402770000000360978CANEZO, LI DBU PARTNERS OPTION                           0503
A0101403580000000383711**********                                               0502
A1201400150000000473574CIANO, NATIVIDAD QUITOYAN                                0501
A0101412470000000520261**********                                               0501
A2601400270000000561988ROSALINDA S. ORDONEZ                                     0502
A0101411820000000589408ARLYNE B. BRANDA                                         0501
A0101413600000000650997JENNIFER D. JAVIER                                       0501
A0101400310000000747091CADIZ, MARK LECAY                                        0501
A0101408950000000776694ALVAREZ, YSMAEL BUAN                                     0501
A0101412630000000801596RINONOS, ANALYN TUICO                                    0501
A4101400260000000828860MA. GLENDA T. PERSIA                                     0501
A0101413860000000859025OCAMPO, RENE CASTILLO                                    0501
A0101413860000000859047ALEJANDRE, MARIA TERESA MAGNAYE                          0501
A0101402930000000859872ROSEMARIE ALEMANIA                                       0501
A0901400220000000888013**********                                               0501
A0101410300000000919513ENERTEK ENTERPRISES                                      0501
A0601400230000000989951SALENGA, MIRASOL BOGNOT                                  0502
A2601400270000001009181JENIPHER U. BAUTISTA                                     0501
A0501400170000001032120FERMIN, MARILOU BAYAUA                                   0501
A0101408240000001038799CABALUNA, ROSALINDA RAYO                                 0501
A0101412890000001056502BRUNO, MA LOURDES SORIANO                                0501
A4101400420000001063785RAMIREZ, JEREME                                          0501
A0501400170000001072702RAFANAN, SAL DBU RAFANAN TRKNG                           0501
A0101413310000001073603MANGAO, DAIANA ROSE MASALUNGA                            0503
A0101410140000001074704LABORTE, BELEN GARCIA                                    0502
A0201400760000001107500LUCERO, CLAVEL AGACITA                                   0501
A0101407560000001276211ASPA, KIMBERLY GONZALES                                  0501
A0101411400000001280364ESTUARIA, MARIA LUISA CEDRO                              0501
A0101410690000001284300BELCHEZ, JUANA BONCOLMO                                  0501
A0101413150000001288291******                                                   0501
A2801400230000001293950DELA LLANA, EILEEN DELA CRUZ                             0501
A0201400920000001331811MEDINA, VICTOR ARISTOTLE YU                              0502
A4101400550000001332392CRUZ, JINKEE DINO                                        0504
A0601400520000001349640QUITO, ROCHELLE AGUILAR                                  0501
A0101411820000001356521ANN CLARIZ T. DE LEON                                    0501
A0101411820000001356532BLISS BEAUTY SPOT SALON AND SPA                          0501
A0301400950000001379091ANGALA, ASTRID ADA SARENAS                               0501
A0101407720000001447872PADILLA, PALOMA PANAY                                    0501
A0101402350000001474288ABUNDO, CINDY DIRAIN                                     0501
A0101402350000001474299DELOS SANTOS, ERWIN CABADDU                              0501
A0101402640000001536589KIMSAN AUTOWORK                                          0510
A0101409920000001539551SOMERA, QUINTIN LIBAO                                    0501
A0101409920000001539562MABLE, BERNARD PAUL UGALI                                0501
A0101407270000001596821ANN RITZCHEL N. BURATA                                   0501
A0101401670000001598452SARMIENTO, LOURDES GARCIA                                0502
A0101401090000001611405VARGAS, ANDREA GERCAYO                                   0501
A4101400550000001622571RIVERA, GENEVA NOELLE VARONA                             0503
A4101400550000001622582MONTE, MARIA EVA BOLANOS                                 0501
A4101400550000001622593TEJANO, RODRIGO MALUNAS                                  0501
A0101400570000001681767MARIA CHRISTINA C. ESTRERA                               0501
A0101406620000001686564DANGANAN, FERRZOBEL LORESCO                              0501
A0101400730000001697287ARBOLADORA, ALFREDO LACOP                                0501
A0101400150000001708152AVILA, GEMMA GATDULA                                     0501
A0101404260000001725220JAVINES, MA LILIBETH FILOSOFO                            0501
A0101405070000001726096DIESTRA, AMALIA TENDENCIA                                0501
A4101400390000001732554PAYOPELIN, ALMAROSE BAYLON                               0501
A0101403450000001769680*********                                                0501
A4101400260000001783520CANDADO, GERLIE ROGAS                                    0501
A3101400160000001792112LUISITO M FRAYRE                                         0501
A0101412630000001823252GALBASA, MA DOLORES ABALLE                               0501
A0101401960000001844566PANESA, SALVACION VALEZA                                 0501
A0101413860000001886855CRUZ, MALAYANG DIWA MEDIJA                               0501
A2401400180000001935720BALNEG, JAIME TANGOG                                     0501
A2401400180000001935731GUIALUDIN, HAZEL GUYOS                                   0501
A2001400290000001999804CUAL, BASILISA LIMPAHAN                                  0501
A0101400860011399487002**********                                               0505
A0101400860011461291003**********                                               0502
A0101400860011512418001**********                                               0502
A0101400860011568362001**********                                               0505
A0101400860011707584001**********                                               0502
A0101401250021045783001A-E PRIVATE RESORT                                       0502
A0101401700041241467001FIRME, NESAURO HERNANDEZ                                 0501
A0101400150061564610134LAO, ERIENE C                                            0501
A0101401960121240744002MAGNAYE, JESSIE M.                                       0501
A0101401960121327963001**************                                           0501
A0101401090171195858001ESTELA D. MENDOZA                                        0502
A0101401090171656459001EMELINDA E. BILOG                                        0502
A0101400310211024891001PENIEL PHARMACEUTICAL                                    0502
A0101407140213417838001**********                                               0510
A3101400160221220163001AZUCENA R. BEREDO                                        0501
A3101400160221478374043MICHELLE M. CARPIO                                       0501
A1001400190231032656001NAVYSAIL BUILDERS CORPORATION                            0502
A1001400190231478374067DAGANATO, NICANORA BALOS                                 0501
A1001400190231520766118AUSTRIA, MARY FILIPINA PINGGOY                           0502
A1901400290261298552056TERESITA EUGENIO PUNZALAN                                0501
A0101401670271193994001PATRICIO L. RAPADA                                       0502
A0101400570281378117001SHERYL LYNN PE ACOSTA                                    0505
A2601400270302782510001JENNY C. QUESADA                                         0501
A0101402350321179400001NILDA Q. APISTAR                                         0503
A0101402350321180119001SHERENA O. PARUCHA                                       0501
A0101402350321542967001ABUNDIENTE, JONATHAN GUMBA                               0503
A0101402060351043633001TRIKAYA ENTERPRISES                                      0502
A0101402640361026237001E.B.R. VACIADOR                                          0503
A0101402640361284245001LIN, YING YEN OR LEE, CHI-YU                             0502
A0101402640361478374043REMA A. LUZURIAGA                                        0501
A0101402640361478374060MAHINAY, MARY ROSE A.                                    0501
A0101402930381232212001MA. ESTELLA ABAD SANTOS                                  0501
A0101408370382381086001TULOD, LUZVIMINDA MUNCAL                                 0501
A0101408370382527801002PHILIP LANCE ANTHONY A. LIU                              0501
A0101408370382652736001VELORO, LYRA VALERA                                      0501
A0101402770391041864001LANDMARK BUILDERS                                        0505
A0101408400394478374075VIOLETA I MANUEL                                         0501
A0101408950396389054001LUZ, XERES DIMALALUAN                                    0501
A0101409210398344507001ROXAS, NARCISA NARRA                                     0501
A2401400180411478374035MERLINDA D. TAMUDTAMUD                                   0501
A2401400180411478374056GALINDEZ, IRENE AGCAOILE                                 0501
A2401400180411516002001GAVINO, RHEA MEA LAUREA                                  0501
A2401400180411575330002QUINONES, REY SUICO                                      0501
A1201400150421013348001ARGEM FINANCE INC.                                       0510
A1401400110492540898008CHUA, JANICE PACT                                        0501
A0101403580511151887001MYRGON MARKETING                                         0501
A0101403580511242579001RITA M. ESTELLA                                          0504
A0101405940512680968001OPLIMO, ALEJANDRO JUNGAYA                                0501
A0101408110515415187001SORIANO, SHERRYL MENDOZA                                 0502
A0101403450521237475001**********                                               0501
A0101403450521563365001RODRIGUEZ, ERNESTO MUTUC                                 0501
A0101404000551166600005EVELYN SORONGON                                          0501
A2201400250561088535001CHRISTOPHER JORDAN L. CHUA                               0501
A0101407720602161917001GOYLOS, LORENA CALVO                                     0501
A0101407720602390297001PREYSLER, MARIVIC G.                                     0501
A0101407720602664929001VITAL, ARIES ZOILON                                      0501
A0101404260611478374012RUBEN P. SANTOS                                          0501
A0101404260611478374075VIVENCIA HATOL                                           0501
A0101404260611478374084JEAN GONGOB                                              0501
A0101404420631158444001ALBERT RAMOS   JT                                        0502
A0101404420631392740001PRISCILA P. BAUTISTA                                     0501
A0101404420631478374072FELY UGDORACION                                          0501
A0101410720653045798001MZA SECURITY SERVICES                                    0501
A0101410720653478374050MYRA B. GERMANO                                          0501
A0101411950680478374004CARLETA, REBECCA CARPIO                                  0501
A1301400340683574319001ELLI, RAFAEL ABASTILLAS                                  0501
A1301400340683708672001CANO, ERLINDA PEREZ                                      0502
A1301400500684762106001VICEO III, JAIME S.                                      0501
A0101407560686339108002EVELYN F. PANDY                                          0501
A1701400230693478374061BAUTISTA, CRESENCIO RISCAL                               0501
A0101408240711372726002ANNETTE S. TY                                            0501
A4101400420814520766134TERESITA A. CASTILLO                                     0502
A4101400420814559300001FANER, FRANCIS MERCADO                                   0501
A4101400550815721603001JOHN JOSEPH Q. MACABINGUIL                               0501
A0101404840851046725015RODA GRACE DUNGAO                                        0502
A0101404840851317230015ROMEL Y. DIMAANO                                         0501
A0101404840851329120001XXXXXXXXXXXXXX                                           0502
A0101404840851520766060MARICO R. RAMOS                                          0502
A0101406040000000014688LIM, ARNOLD BERLIN LIM                                  10501
A2201400250000000016964RALPH STANLY B. ESCALONA AND                            10501
A1301400500000000213083JUANITO F. GREGORIO OR AURELIA                          10501
A1301400500000000213367ELMER S. CRUZ OR                                        10502
A1601400170000000421292HENRY S. CHUA OR                                        10501
A1001400190000001057487FRANCIA, JEANELYN NOVENO DBU                            10501
A0101405490000001092524MA ANASTACIA S. DELA MERCED OR                          10502
A0101405490000001092648CHARMANE OLICIA DU-SITLANI OR                           10501
A0301400950000001379477CCD AUTO HUB AUTO SERVICE                               10503
A3801400170000001698086NEW CARINGAL MACHINESHOP                                10501
A0101405070000001725986EDVILLE C. BELTRAN OR                                   10501
A0101401250021183904001EDNA G. QUINSAY OR                                      10502
A0101401250021793819001CARASIG, CLARITA ALFONSO OR                             10501
A0101400150061379943001NORBERTO R. REYES OR                                    10502
A1301400470252599213002REYNALDO OR ROSARIO TERESITA OR                         10501
A1901400290261337520001DRA NATALIA B CARDONA OR                                10505
A0101401670271192707006FEDERICO C. LIM OR TORRES,                              10502
A0101402350321038584002HEALTHY 8 WATER REFILLING                               10501
A0101402350321179431001OSCAR VICEO OR ALELI VICEO OR                           10502
A0101402350321179570001NEAL ORTEZA OR                                          10501
A0101402510341199632002ANA LIZA R. DELA CRUZ OR                                10503
A0101402060351211701001DANNUG, MARIA DOLORES CARLOS OR                         10502
A0101408370382206455003DR. RUBEN G. KASALA OR                                  10502
A0101402770391211890001RES S. CORTEZ &/OR                                      10502
A0101408110515366914001JOSE PAULO P. LORENZO OR                                10503
A0101410300663790131001VALDEZ, JENNIFER ANN Z OR VALDE                         10503
A1301400500684589879001YULO III, ANTONIO P. OR                                 10505
A4101400550815693134001LLANES, TUDOR HERNANDEZ OR                              10502
A0101406040000000014688OR PIAK HUN LIM                                         20500
A2201400250000000016964ERLINDA B. ESCALONA                                     20500
A1301400500000000213083S. GREGORIO                                             20500
A1301400500000000213367CRISTINA C. CRUZ                                        20500
A1601400170000000421292NIDA C. CHUA                                            20500
A1001400190000001057487JEANELYN N. FRAN                                        20500
A0101405490000001092524RAYMOND ANTHONY                                         20500
A0101405490000001092648LANCE KEVIN SITLANI                                     20500
A0301400950000001379477CENTER                                                  20500
A3801400170000001698086& TRADING                                               20500
A0101405070000001725986ETHYL H. EBAL                                           20500
A0101401250021183904001ANTONIO E. QUINSAY                                      20500
A0101401250021793819001CARASIG, GIL ALCORIZA                                   20500
A0101400150061379943001SOLEDAD REYES                                           20500
A1301400470252599213002RAYMOND JOSEPH ODULIO                                   20500
A1901400290261337520001DR DANILO C CARDONA                                     20500
A0101401670271192707006VIRGINIA CHRISTINE                                      20500
A0101402350321038584002STATION                                                 20500
A0101402350321179431001JEFFREY VICEO                                           20500
A0101402350321179570001IMELDA OLIVAREZ                                         20500
A0101402510341199632002ANTONIO T. DELA                                         20500
A0101402060351211701001EDGARDO D. OR AN                                        20500
A0101408370382206455003DR. MA. CARMELA KASALA                                  20500
A0101402770391211890001CANDY A. CORTEZ                                         20500
A0101408110515366914001MA. PILAR P. LOR                                        20500
A0101410300663790131001Z, PABLO BASILIO                                        20500
A1301400500684589879001YULO , ANGELINA T.                                      20500
A4101400550815693134001LLANES, PRESCILLA                                       20500
B0101401670000000016300NEWLINE INDUSTRIES, INC.                                 1602
B0101410140000000038884PROFESSIONAL GAMER'S THRONE CO. LTD                      1601
B0101412050000000043438RUSTEZE INC.                                             1601
B0101401670000000178501FILIPINAS CONSOLIDATED SALES, INC.                       1602
B0101406620000000194012LAMCO INTERNATIONAL TRADING CO., IN                      1601
B0101406620000000194041ZIOSOFT INC.                                             1601
B0101408660000000373142SULTASAN COMPANY, INC.                                   1601
B1101400120000000652926BUSINESS FRONTIER CORPORATION                            1603
B0101408400000001258599PASAY ULTRASOUND AND PERINATAL SVC.                      1604
B0301400820000001554861MALLORCA, ABEGAIL DBU ROCKWELL MINI STOP                 1601
B0101400860011678167001**********                                               1604
B0101410560110045401001JESUS REIGNS MINISTRIES, INC.                            1601
B0101401830141043438001R.A. ROSILIO ENGINE REBUILDER                            1602
B0301400660194014152088*****                                                    1602
B0101410720210045577001ASIAQUEST VENTURES CORPORATION                           1610
B3101400450223040091001YAKAP AT HALIK MULTI-PURPOSE COOPERATIVE                 1603
B0101400570281047291001FARMACIA NI DOK INCORPORATED                             1604
B2601400270302047342001WOODSIDE PROPERTIES AND LAND CORPORATION                 1602
B2001400290315045753001HOTEL PALWA                                              1610
B0101402350321037708001RD CASH PADALA, INC. - PARANAQUE CITY                    1603
B0101402350321046288001TMI FOOD PROCESSING & DEV. INC.                          1601
B0101402350321738079001OLIVAREZ GENERAL HOSPITAL INC.                           1610
B01014026403616040690017MG HAULING SERVICES PHIL. CORPORATION                   1601
B0201400760374041914001OUROKU CORPORATION                                       1605
B02014007603740526030018990 DAVAO HOUSING DEVELOPMENT CORP                      1650
B02014007603740526030018990 DAVAO HOUSING DEVELOPMENT CORP                      1650
B02014007603740526030028990 DAVAO HOUSING DEVELOPMENT CORP                      1605
B0101402770391601391001SPORTSFOCUS, INC.                                        1605
B1201400150421287283001*****                                                    1602
B0501400170481020083003COLEGIO DE DAGUPAN, INC.                                 1630
B0101403580511005607002RAM FOOD PRODUCTS, INC.                                  1603
B0101403580511037494001MAGENTE BPO CO. LTD.                                     1602
B0101403580511042786001MTM PARTNERS & CO.                                       1603
B0101403450521021842005WALL VISION CORPORATION                                  1605
B0101403450521028565001**********                                               1602
B0101407720602029151001R.H. CULLEN MEDICAL CLINIC                               1602
B0101410720653172138001AUREA C. RUPIDO                                          1601
B0101410300663044402001******                                                   1602
B1701400230693621490002***                                                      1602
B0101408240711023931001CHRIST'S COMMISSION FOUNDATION, INC.                     1620
B1301400760000000050762AMAZING GRACE CHRISTIAN SCHOOL OF                       11601
B0101404840000001312281ANDALES, NARCISO DBU ANDALES CONCRETE                   11605
B0101402350321031871001ADVOCATES FOR CHILDREN AND ELDERS                       11605
B0201400760374249471002COMMONWEALTH INSURANCE COMPANY                          11602
B2401400180411037478001LHE CONSTRUCTION & ENG'G SERV - REYNALDO                11603
B1301400760000000050762CAB. CITY INC.                                          21600
B0101404840000001312281PRODUCT                                                 21600
B0101402350321031871001INTERNATIONAL PH                                        21600
B0201400760374249471002-OPERATING FUND                                         21600
B2401400180411037478001ESPIRITU                                                21600
B0301400950196821100608**********                                               2002
B0301400950196821200608**********                                               2002
