A0101408240000000005501LUMBAD, MARIE DENISE TABUENA                             0501
A0101411790000000005836ILAGAN, ANA LYN PRUNA                                    0502
A0101404680000000013509VILMA D. SAGAY                                           0501
A0101401250000000020424BALIAO, JOVITA LINGGON                                   0503
A0101406880000000027103MDMA TRADING                                             0501
A0201400920000000048100IGMEN, EMELYN PETILLA                                    0501
A1301400760000000050693MARLON P. MALLARI                                        0501
A0101400310000000140872ARANA, EVANGELYN                                         0501
A0601400230000000186845SAMSON, MARY ANNE BERNADETTE MA                          0501
A0101410560000000268320BALTAZAR, BEATRIZ POLO                                   0501
A0901400220000000425045LOZADA, ELIZABETH GO                                     0501
A0101401250000000460586AZUCENA, MARIA PAMELA ENRIQUEZ                           0501
A1601400170000000497569MARISSA A. ARCANGEL                                      0501
A0101406590000000568930JOSE, EMMANUEL NOEL MARAVILLA                            0501
A0101413440000000570223LABSAN, CARMEN DELA CRUZ                                 0501
A0101410690000000711033TIMBALOPEZ, MONINA DABU                                  0501
A0101410690000000711044MENDOZA, RAPHAEL REUBEN MAGBOO                           0501
A0101403320000000735773ROSALIE FAUSTINO                                         0501
A0101404420000000866473CRISOSTOMO, ARMANDO AQUINO                               0501
A0101404420000000866519ELPEDES, ROBERTO NOLASCO                                 0502
A0101413020000000880462***************                                          0501
A0901400220000000888064**********                                               0501
A0901400220000000888075**********                                               0502
A0901400220000000888086**********                                               0501
A0101401700000000890466**********                                               0501
A0101412050000000890739TORRES, SHERWIN RAMOS                                    0501
A0101412050000000890842ESTRELLA, ERLINDA ABEGONIA                               0502
A0101411370000000903611RAMIREZ, MARISSA MARTINEZ                                0501
A0101406590000000905475SY, KATHERINE MARIE YBANEZ                               0502
A1101400120000000992383RAMIN, EVA BEATO                                         0501
A0101408240000001038777MOHAMMAD, JORRY VIDAL                                    0501
A0101413310000001073870SISON, RUTH FLOR LEVERIZA                                0501
A3101400450000001103433VALDEZ JR, ERNESTO JAMIAS                                0501
A1301400760000001295427CHRISTOPHER C. NAKAMURA                                  0501
A4101400550000001332461GONZALES, CARLOS CATALLA                                 0501
A4101400550000001332490GARCIA, SANTIAGO MONTEMOR                                0501
A0101413440000001472839********                                                 0501
A0101413440000001472942ANAS, MONINA DELA CRUZ                                   0501
A0101413440000001472982CABRERA, HENRY PARAS                                     0501
A0101413440000001472993RAYOS, DIVINA PERET                                      0501
A1401400110000001549340CAPIRAL, ROSALIE BELESARIO                               0501
A0101404680000001617250MARIA EVELYN M. MILLAN                                   0501
A0101403320000001646813LAURENTE, ARNOLD SILVERIO                                0501
A0601400230000001687130SAMIA, MARJORIE DELA CRUZ                                0501
A0101400730000001697389LOPEZ, ERIC G.                                           0501
A0101413570000001720194JAY RON M. MORA                                          0501
A0101411950000001771024ESPITAL, MYRNA TRIA                                      0501
A4101400260000001783640POLICARPIO, LOUIE LAO                                    0501
A3101400160000001792189ROSALINDA S MACARIO                                      0501
A0101413860000001886888ALVAREZ, KAREN ELIZABETH PINEDA                          0501
A0101402510000002150761DAUIGOY, PRINCESS COR GALAMAY                            0501
A0101400860011388049002**********                                               0502
A0101400860011483037001CASTRO, ROWENA                                           0501
A0101400860011494800002**********                                               0505
A0101400860011518992001**********                                               0505
A0101400860011608055001**********                                               0503
A0101400860011663274001**********                                               0502
A0101400860011687970001**********                                               0502
A0101400860011783032001**********                                               0502
A0101401700041046241001POM-POM'S                                                0503
A0101401700041192415001TIU, RAMON CASTRO                                        0501
A0101400150061226387002**********                                               0502
A0101400150061236944048JENNIFER TRINITY S. MAYNIGO                              0501
A0101400150061365731001BASILISA R. ROBEA                                        0505
A0601400360083629338001RUBIO JR., EMMANUEL MUNOZ                                0502
A0101401960121554539001TAN, ANNA BELLA                                          0501
A0101400440161027568001GARB CLOTHING COLLECTION                                 0503
A0101400440161402508001MARIA MARGARITA A. ASUNCION                              0502
A0101401090171627002001CARMELITA OR JOHN PAUL SEVILLA                           0502
A0101400310211037394001J.M.P. PEREZ CONSTRUCTION                                0501
A0101400310211478374047TABIOSAS, PRECY                                          0501
A1301400470252478374018ELIZABETH P. BARNACHEA                                   0501
A0101406460272570208001MENDOZA, ANGELO DEL MUNDO                                0503
A0101400570281397860001CASTIGADOR, GUISEPPE FAJARDO                             0501
A6601400120314612853001INTAL, FERNANDO OR MARLENE                               0502
A6601400120314612877001DELA CRUZ, ELMER SANSON                                  0502
A0101402510341380534001RUBEN D. GAMBOA                                          0501
A0101402640361784002001AGUSTIN, CATALINA LEANDADO                               0501
A0201400760374044646001FORTY DEGREES CELSIUS INC.                               0502
A0101408370382455223001DR. ROMMEL D. BAUTISTA                                   0503
A0101408400394033625002IVAN COMPUTER SYSTEM                                     0506
A5501400120410643353001SOMOROSTRO, GINA ABELLA                                  0502
A2401400180411495221001MANUEL JR., ANTONIO VILLANUEVA                           0502
A0101403030441397813002**********                                               0501
A0101403320471205840001*****                                                    0504
A0101403320471338096001RACHO, JUSTILITO GOROSPE                                 0501
A0101410140475478374003ERLINDA P. MABINI                                        0501
A3801400170490783617001ARNULFO S SALVIO                                         0501
A0101406880513212176004LIM, EMILE                                               0501
A0101408110515682037001RONA D. SOGUECO                                          0501
A0101407720602404060001MARZO, MARIA ROWENA FERNANDEZ                            0502
A0101404680651079362001PHOEBELYN M. ALAESTANTE                                  0502
A0101404680651303311003BONILLA, MELINDA SANTOS                                  0501
A0101404680651340948001CARAAN, SANDRA MAGALLONES                                0503
A0101404680651386005001FABRIGAR, MANUELA LUCIANO                                0510
A0101404680651478374026JULIETA S. FACAL                                         0501
A0101404680651478374094MARY ROSE L. CONVOCAR                                    0503
A0101404680651478374198IMELDA C. FIECAS                                         0501
A0101404680651520766198MARY JOY M. SINDAO                                       0502
A0101404680651543189001MARIVEL G. QUIGAO                                        0503
A0101407690652041716001******                                                   0501
A0101407690652045019001AXIS ROOF SERVICES                                       0501
A0101407690652386943001******                                                   0501
A0101407690652741995001ESTACIO JR., FELIPE ADONA                                0501
A1301400210682539899001JOYCE B PALENO                                           0501
A1301400340683494901001***                                                      0501
A1301400340683795151001ASIATICO, VIOLETA ZUNIEGA                                0501
A1301400500684654056001BEQUIZO, MA. ANTONETTE M.                                0503
A4101400390813478374064SUMILONG, MIRASOL BIAGON                                 0501
A0101406750852228373001VEGA, SONIA D.                                           0502
A0601400230891627261001RAMOS, ANGELITA BAUTISTA                                 0504
A3101400160000000006599RISSEL GENERAL MERCHANDISE                              10501
A1101400120000000652602LIM, JOHNNY C. OR                                       10502
A0101413020000000880473LAGUNDA, JOAN DBU:                                      10501
A1101400120000000992332EJERCITO, CARLA D. OR                                   10502
A0101411820000001356598AMAZING TIME'S PHOTO AND VIDEO                          10501
A4101400260000001783633IBANEZ, DBU FIFTH AND FOUTH                             10501
A0101408820000001880628TIU, CHERRY SALAZAR DBU                                 10505
A0101400730111304745001AUSTRIA, ERNESTO CRUZ OR                                10505
A0101400310211161649001DE LARA, ROLAND JOEY OR                                 10505
A0101400310211364718001NORMITA SANTIAGO OR                                     10502
A0101401670271291657001ROMULO M. SANTOS, JR. OR                                10502
A0101406460272548275001SUNGA, PETER EDWIN JAO OR                               10502
A1101400120313578811001YAP, NYDIA TY OR YAP, ANNA                              10502
A6601400120314690963001UY, ELENA WAN OR UY, CHRISTIAN                          10501
A0101408820333788691001VALMADRID, ROSA M. OR                                   10502
A0101402060351588151001CASAPAO, ELIZABETH ESLIT                                10502
A0101408370382399401001DR. EMILY ROSE C. BELEN OR                              10501
A0101407720602162363001JOHNNY B. SINON, M.D. OR                                10505
A0101404680651168736001RUBI, LORNALIE OR                                       10501
A0101408240711323526001SHIRLEY A. MANESE OR MARIA                              10501
A3101400160000000006599MARISSA G ESTENOR                                       20500
A1101400120000000652602LIM, RICHARD Y.                                         20500
A0101413020000000880473JJ CONSTRUCTION & TRADING                               20500
A1101400120000000992332EJERCITO, RONALD B.                                     20500
A0101411820000001356598PRODUCTIONS                                             20500
A4101400260000001783633AUTO SHOP                                               20500
A0101408820000001880628LEGEN-DAIRY ICE CREAM PAR                               20500
A0101400730111304745001EVELYN AUSTRIA                                          20500
A0101400310211161649001DE LARA, REBECCA                                        20500
A0101400310211364718001ARNOLD SANTIAGO                                         20500
A0101401670271291657001KATHERINE LOURDES SANTOS                                20500
A0101406460272548275001SY JR., MARCIANO                                        20500
A1101400120313578811001MARIE TY                                                20500
A6601400120314690963001EMMANUEL WAN                                            20500
A0101408820333788691001VALMADRID, MARIO                                        20500
A0101402060351588151001CASAPAO, MANUEL                                         20500
A0101408370382399401001DR. POCHOLO P. BELEN                                    20500
A0101407720602162363001VIRGINIA J. SINON                                       20500
A0101404680651168736001RUBI, ROMEO                                             20500
A0101408240711323526001ELENA M. ISAAC                                          20500
B01014026400000000326577MG HAULING SERVICES PHIL. CORPORAT                      1601
B0101406620000000194074PROLIFIC HEALTH OPTIONS AND TRADING                      1602
B0101409050000000258571CITY MARQUE LIMITED                                      1601
B0101400150000000633185SB RENTAL CORPORATION                                    1605
B0101402060000000653736POLYMER PRODUCTS PHILS., INC.                            1601
B0101406590000000905497SIKAP LEARNING STUDIO, INC.                              1601
B0101401700041190338003**********                                               1601
B0101400150061016942006ASIA PACIFIC EXPRESS CORPORATION                         1605
B0101400150061016942007ASIA PACIFIC EXPRESS CORPORATION                         1605
B0101407270162031133001LUCKY CENTRO VENTURES INC.                               1605
B0101407270162031640001RVG SPARROW HOLDINGS INC.                                1605
B0101400310211023039001MULTIPLAST CORP.                                         1604
B0101400310211046817001LINKS & VISIONS, INC.                                    1601
B3101400450223037708001RD CASH PADALA, INC.                                     1603
B1001400350233540058188**************                                           1602
B0101401670271038641001DIGITEL MOBILE PHILS., INC.                              1602
B0101406620273022309001VISOR RESOURCES, INC.                                    1603
B2001400290315028080001GLOBAL POWER EQUIPMENT MARKETING CORP.                   1603
B0101402060351030919001UNITED TERMINALS SERVICES INC.                           1605
B0101402640361028210001GOLDEN DRAGON MOTOR SALES CORP.                          1601
B0101402640361035752001PRICE CUTS MULTI PURPOSE COOPERATIVE                     1601
B0201400920375526997001**********                                               1602
B0101405490392518855001ISABELLE ROYAL HOTEL & SUITES INC.                       1602
B0101403320471022749001LES SACS MANUFACTURING                                   1602
B0101403320471046464001LEONARDO RINALDI INC.                                    1602
B1401400110492028287001MARYHILL COLLEGE, INCORPORATION                          1605
B0101404680651006224002NOVALICHES DEVELOPMENT COOPERATIVE, INC.                 1610
B0101404680651036331001TWIRLEE FOODS CORP.                                      1604
B4101400390813019416002STI COLLEGE-ROSARIO, CAVITE, INC.                        1602
B0101406750852023612001LAS PINAS CITY MEDICAL CENTER, INC.                      1610
B1601400170000000036182FIRST INNER TRADE CREDIT                                11601
B0301400790000000435738NEW GREAT LUMBER AND CONSTRUCTION                       11601
B0101407270162668334001ALVIN MENDOZA AND AARON DEL POSO AND                    11602
B0101407270162668334002ALVIN MENDOZA AND AARON DEL POSO AND                    11601
B0101401090171027703001INSTANT DRUGSTORE AND GENERAL                           11602
B1601400170000000036182CORPORATION                                             21600
B0301400790000000435738SUPPLY, INC.                                            21600
B0101407270162668334001MA AILEEN FLORES                                        21600
B0101407270162668334002MA AILEEN FLORES                                        21600
B0101401090171027703001MERCHANDISE                                             21600
B2401400180411821100608**********                                               2010
