A0301400820000000024860HERNAN, PESARLITO T.                                     0502
A0101413020000000056733AZADA, EDMUNDO HABANA                                    0505
A3001400130000000068273JOSE, KRISTINE CASSION                                   0502
A0101400730000000112881GUTIERREZ, DOMINICA DALISAY                              0501
A0101406460000000182712YU, STEVEN DE GUZMAN                                     0501
A0101402510000000200244DANTE S. SALAZAR                                         0501
A5001400170000000213841GAMALINDA, ELENA TUBAON                                  0501
A0101400440000000337637DOMINIQUE FAYE C. CERBAS                                 0501
A0101403580000000383664MA. LUISA SYLVIA A. ABELLO                               0503
A0101413570000000635585DELA CRUZ, KRISTINE MARJORIE UY                          0505
A0101414250000000765691*                                                        0501
A0101412630000000801585PAR, MICHAEL RAMOS                                       0501
A0101400150000000807250CHING, CHARLES MALVIN TAN                                0501
A0101412470000000853798YARA, MARK PHILIP                                        0502
A0901400220000000887987MUESCO, MAYBELLENE JOY ANDOG                             0501
A1601400170000001069090MARY NATHALIE P. MONTES                                  0501
A1301400470000001299141ELIZABETH S. LOPEZ                                       0501
A0101404840000001312554MARIA FE V. MALIG-ON                                     0501
A0101407720000001393324FORES, LEO BIENVENIDO MANUEL                             0503
A0101400440000001440000LAPASARAN, MARY GRACE FRANCISCO                          0501
A0101403610000001450806DEE, JOHN MINGO LISIA                                    0501
A0101403450000001638042ONG, EDWARD LAUREL                                       0502
A4101400390000001732838IGNACIO, REBIELYN DE LEON                                0501
A0101400440000002034720*****                                                    0502
A4101400420000002084631MANICIO, MARIA ARMI ORTEGA                               0501
A0101411080000002243129****************                                         0502
A0101406750000002251270**************************                               0501
A0101408660000002264826NATHANIEL C. ZULUETA                                     0502
A0101403580000002265578POSA, CYNTHIA CERVANTES                                  0501
A1301400760000002346118KING MILES S. VIOLA                                      0501
A1101400120000002789833PORMIDA, JAYPEE GO                                       0502
A0101405650000003561179DELOS REYES, ROBERTO NARVAEZ                             0501
A0101405650000003561191DIMARUCUT, LORENA GANO                                   0501
A0101405650000003561204RAZON, ARMINIUS MALABANAN                                0501
A0101405650000003561215TORRENTE, LORNA MAKALINTAL                               0501
A0101401250021406782001ALCANTARA, MYLA VILLANUEVA                               0505
A0101401700041046244001R.D. AUTO PARTS & SERVICES                               0520
A0101400150061189064001VENTURA, JOSEPHINE BANAAG                                0501
A0101400150061520152001ENGRACIO U. ANG JR.                                      0501
A0101405810072234892001**********                                               0501
A0101405810072462871001LI, SHAO YA KE                                           0505
A0601400100081384996003GEROY, ZENAIDA ABULOG                                    0520
A0101400730111046434031LEAH BORBON OR JEFFREY BORBON                            0501
A0101400730111419021002**********                                               0501
A0101400440161525001033MARY JANE V. MACALINAO                                   0501
A0101407140213387594002**********                                               0501
A3101400160221724137001ALICIA P MANAIG                                          0501
A1001400190231478374067DAGANATO, NICANORA BALOS                                 0501
A1001400350233532085001CASTRENCE, CERINO SERINA                                 0502
A0101406460272377244001ALA, JESSIE ATENTA                                       0501
A0101406620273477411002ESPINA, NORMA RODRIGUEZ                                  0501
A0101411820277775683001**********                                               0502
A6601400120314748889001TALEON, ANDRES OR AGNES                                  0505
A2001400290315055993001K. ELMAN CONSTRUCTION                                    0501
A0101402480331024273001**********                                               0505
A0101402640361484568002URANZA, CARMELO JIMSON BROSOTO                           0501
A0101402930381205152001VICENTE QUIMPO                                           0503
A0101402930381296976002JONATHAN RICHIE L. YAP                                   0501
A0101402930381323854001*******                                                  0504
A0101407430503366284002ELWOOD VINCENT WHITE                                     0501
A0101403450521321417001GO, CRISCELY LANZUELA                                    0502
A0101403610531400970001BRILLANTE, ROSARIO AMIL                                  0502
A0101403610531478374002GRAPE, IMELDA HANDOG                                     0501
A2201400250561028844002CHRISTIAN HOME FURNISHING                                0504
A2201400250561039037001TRIZ N' PAO TRADING                                      0501
A2201400250561393627003FARRAH-ARSENIA C. AGUSTIN                                0503
A0101407720602271723146DR. DANILO ANASTACIO                                     0503
A0101407720602397349002MARIN, MA. ROSARIO PASCUAL                               0502
A0101404260611150837001EMILIANO OR MARIETTA REYES                               0502
A0101406590662711800002ROQUE, EVELYN VALDOMAR                                   0501
A0101408240711453117001MICHAEL RICHARD RAMIREZ                                  0502
A4101400390813406195001LAO, LEONARD OR LAO, SUSANA                              0505
A4101400390813478374021JERESANO, ASUNCION L.                                    0501
A4101400420814017785001MONZON GENERAL MERCHANDISING                             0510
A4101400420814520766095SHERYL NICOLAS MENDOZA                                   0501
A4101400420814520766107CADAVEDO, ELENITA P.                                     0501
A4101400420814520766110DELA CRUZ, ARMINDA E.                                    0501
A0101405070861478374004WINIEFRENDA O. PILANDE                                   0503
A0101410980000000012528IFORE L. YU OR                                          10503
A0101409920000000022055LILI, HELEN RAYNA                                       10501
A0101412340000000031136VILLACORTE, BIENVENIDO L. OR                            10501
A0101402060000000042253COLLARGA, ERIC DBU TECHYPE I.T.                         10501
A0101413020000000056988AGUSTIN, FL DBU FIX AND CARE                            10502
A0101410980000000171931MICHELLE C. CO OR                                       10501
A1101400120000000652835GO, SHERRY ALETTA UY OR                                 10501
A0101413310000001073869BARRETTO, DARWIN MANDAC OR                              10501
A3101400450000001149315NERONA, MANUEL DBU NERONA                               10502
A0101412470000002086400NISHIZAWA, EMILY MANALO                                 10502
A0201400890000002270111DONGHIL, ERNILO OR CATURAN,                             10501
A0101401250021179007001OLIVEROS, SYLVIA OR SHEILA OR                           10502
A0101406620273213498001JORGE, LEILA EBORA OR                                   10502
A6601400120314690963001UY, ELENA WAN OR UY, CHRISTIAN                          10501
A0101408370382335988001DR. CORNELIO G. BANAAG JR. OR                           10505
A0101408400394160797001MARIANNE OR JORGE OR ANIANA                             10502
A0101408400394473872001ARCA, ROWENA LUGTU  OR                                  10501
A0101403610531221338001REFORMA, MA. SHEREELLE A.    OR                         10501
A2201400250561087470001ANA MARIA B. AGAPITO OR ANTONIO                         10501
A0101404130601708628001PABALATE, PACITA BATAC OR                               10501
A0101404260611018041001JP LONEZA CONSTRUCTION                                  10502
A1301400210682340751001WILLY & WILFRED GO & JANETTE                            10504
A0101405070861037846001GOODNESS & MERCY MOVERS                                 10503
A0101410980000000012528JISELLE COLLEEN C. YU                                   20500
A0101409920000000022055MEMBERS OF NATASHA                                      20500
A0101412340000000031136VILLACORTE, ADELINA C.                                  20500
A0101402060000000042253SERVICES OR AVEL                                        20500
A0101413020000000056988REF & AIRCON REP                                        20500
A0101410980000000171931CHESTER ALLAN T.                                        20500
A1101400120000000652835GO, MARILYN UY                                          20500
A0101413310000001073869PIMENTEL, AIZELLE MERCADO                               20500
A3101400450000001149315TRADING OR NERONA, MINDA                                20500
A0101412470000002086400OR TUSI, WILLIAM BAUTISTA                               20500
A0201400890000002270111GAUDENCIO                                               20500
A0101401250021179007001WARREN                                                  20500
A0101406620273213498001JORGE, ROBERT                                           20500
A6601400120314690963001EMMANUEL WAN                                            20500
A0101408370382335988001DR. JOSEPHINE V. BANAAG                                 20500
A0101408400394160797001CAYTON                                                  20500
A0101408400394473872001ARCA, EMMANUEL D                                        20500
A0101403610531221338001REFORMA, BENISON                                        20500
A2201400250561087470001T. AGAPITO                                              20500
A0101404130601708628001PABALATE, HELEN                                         20500
A0101404260611018041001& TRADING                                               20500
A1301400210682340751001ATENDIDO & WILLI                                        20500
A0101405070861037846001SERVICES                                                20500
B0101406330000000432608FULRUBELL CORPORATION                                    1603
B1101400120000000652879TY, WILLIAM LOBRIO OR TY, MARILOU CHU                    1605
B0101402770000001571591E.M. FELIX ENTS., INC.                                   1601
B0101412630000002186370MAJOR-U CORPORATION                                      1605
B0101401700041007416001**********                                               1603
B0101401700041475686001MULTIMOTORS AUTO PARTS INC.                              1605
B0101400600071037334001******                                                   1601
B0101401380201024290001KSP INTERTRADE CORPORATION                               1602
B0101407140213035952001**********                                               1601
B0101406460272036660001***********                                              1602
B0101402480331020380001BOUNTY AGRO VENTURES, INC.                               1630
B0101402480331033648001MIA BOLTS AND NUTS TRADING                               1602
B0101402480331224670001*****                                                    1602
B0101408820333041843001SERVICTORY CO. LTD.                                      1602
B0101402060351009544001RI CHEMICAL CORPORATION                                  1610
B0101402640361168604001**********                                               1602
B0101402930381022284001INVESTORS ASSURANCE CORPORATION                          1601
B2401400180411040003005BRIGADA MASS MEDIA CORPORATION                           1601
B0101403030441239806001JETCO MOTOR SALES                                        1601
B0101403580511005143001INTERPACIFIC TRANSIT, INC.                               1610
B0101403450521012010001********                                                 1603
B0101403450521022302001**********                                               1602
B0101403450521028565001**********                                               1602
B0101403450521029025001**********                                               1602
B0101403450521035140001********                                                 1601
B0101403610531009928002LAMP METALS INDUSTRIES                                   1602
B0101403610531035657001A1 STEELFORMER CORP.                                     1602
B0101404000551005120001QUEST BROADCASTING, INC.                                 1620
B0101404130601016662001PAYROLL SERVICE PROVIDERS, INC                           1603
B0101404130601035484001CARE BEST INTERNATIONAL SECURITY                         1604
B0101407720602047905001H2H PROPERTY SOLUTIONS CO. LTD.                          1602
B0101404420631036995001FRABELLE FISHING CORPORATION                             1601
B0101408240711032925002PARENTS ASSOCIATION OF DE LA SALLE                       1601
B0101408240711788024001RB & SONS PACIFIC TRADING CORPORATION                    1602
B2801400230713045988001NGE TRADING                                              1602
B4101400260812045529001CITISTORES INC.                                          1603
B0101405070861017328003SHEPHERD'S NOVELTY CORNER                                1603
B0101405070861025608001G-LINE TRADING                                           1602
B0101405070861028770001SHEPHERD HOUSE PUBLISHERS, INC.                          1603
B0101405070861047281001AVISTELE CORPORATION                                     1601
B0101406460000000020931GREATWALL MANPOWER & GENERAL                            11602
B0201400760374711977001GLOBAL VILLAGE CONSULTING ASIA PACIFIC                  11602
B0101406460000000020931SERVICES INC.                                           21600
B0201400760374711977001INC.                                                    21600
B0101402060351821100608**********                                               2005
B0101411660384821100608**********                                               2002
B0101414410612821100608**********                                               2002
B2601400140691821100608**********                                               2002
B3201400190694821100608**********                                               2005
