A0101406590000000035481EVELYN D. MASCARINAS                                     0501
A1301400760000000050626VICTORIO A. DE VERA                                      0501
A0101413020000000056813JMB BUILDERS                                             0502
A0301400820000000132590LOPEZ, LEAH V.                                           0501
A0101413730000000144669**************                                           0502
A0101402640000000201981FRANCISCO, ELIZABETH CASAL                               0502
A1301400500000000213276ABRAHAM E. MANALOTO                                      0501
A0201400760000000223112CABARON, ELMA MONTALLA                                   0501
A0201400760000000223123ANDOG, JOAN VERDIDA                                      0501
A0101408110000000379959TABBU, PEARLY ROSE CANDIDATO                             0502
A0101414090000000399377***************************                              0501
A0901400220000000425283TAN, ABRAHAM SOLIS                                       0502
A2401400180000000428051EGOS JR., JEMMERITO CASANA                               0501
A0101405490000000444466VANESSA M. SANGCAP                                       0501
A0101407430000000446684DANIEL CHUA CU                                           0501
A0101401250000000460564EVANGELISTA, ELAINE DEL ROSARIO                          0502
A0101411820000000477390MA TERESITA S. DE LEON                                   0501
A1601400170000000497387SHIRLEY M. ARTETA                                        0501
A0101400150000000525211NGUYEN, HUYEN THI THANH                                  0501
A0101404260000000532249**************                                           0503
A0301400950000000566683CARISSA ANNE C. DELOS SANTOS                             0501
A0301400950000000566741**********                                               0501
A0301400950000000566752VICENTE T. FELICIANO JR.                                 0501
A0101411110000000604802MORENO, NILDA NUNEZ                                      0501
A2801400230000000937526CALING, JOVELYN ABERAS                                   0501
A0101404680000000940830FELICITAS D. GARING                                      0501
A4101400390000000975048HERNANDEZ, MARICEL VOLUNTAD                              0501
A4101400550000000981795SORIANO, ALMA BELTRAN                                    0501
A0101400860000001005445************                                             0502
A0101412340000001017645DACUNO, JUVELYN FERNARDEZ                                0501
A0801400160000001031354DUREMDES, DANIEL JOB                                     0501
A1001400480000001054773OCAY, MARY JOCELYN ABELLANOSA                            0501
A0101413310000001073665PANGILINAN, DBU E. PANGILINAN M                          0501
A0101413310000001073676PANGILINAN, EMMANUELA ORDONEZ                            0501
A0101413310000001073687ABESAMIS, LUZVIMENDA ORDONEZ                             0501
A6601400120000001105822VILLANUEVA, CLARISSA STA. MARIA                          0501
A4101400260000001134952FAJARDO, EDEN PARTORIZA                                  0501
A0301400820000001185837RANGGAN, EDNA J.                                         0501
A0101413990000001202424PATDU, MARISSA CRUZ                                      0501
A3001400130000001271385PADUGANAN, SHEILA MARIE TIPAY                            0501
A0101407720000001393153SEGUENZA, JOANNE GERARDINE SARI                          0501
A0101400440000001439750AMORA, HARRY PUTESTAS                                    0501
A0101400440000001439761EDQUILANE, JOHN MARLON RIVERA                            0501
A0101402350000001474186ALBA, FRANKLIN LADERO                                    0501
A0101406750000001491743ROMAN, EFREN MAOMAY                                      0501
A0101406750000001491750GUEVARRA, VERMON CORPUZ                                  0501
A0101400860011035923001**********                                               0502
A0101400860011399497002**********                                               0504
A0101400860011403904004**********                                               0505
A0101400860011429717001**********                                               0502
A0101400860011708347001**********                                               0502
A0101401250021688004001SENEN O. GOLI                                            0502
A0101401700041193436002CORAZON C. LOBENDINO                                     0504
A0101400150061340658001GAZO, GERALDINE SO                                       0501
A0101400150061453761048NANCY M. BARANDA                                         0501
A0101400150061513971001CRISTINA B. SANCHEZ                                      0502
A0101401960121569490001************                                             0502
A0301400530193659725008********                                                 0502
A3101400450223466114002NATIVIDAD, GINA DUNGO                                    0503
A1901400290261298552118CONCEPCION GONZALES ESTIGOY                              0502
A1901400290261303609001TERESITA KATIGBAK LUNA                                   0501
A1901400290261390520001JOEL PUNZALAN DIMAANO                                    0502
A1901400290261567865001ALEX IAN SISON DE LA CRUZ                                0501
A0101406460272674209001**********                                               0502
A0101406620273511601001RODELAS, MERVIN ROYO                                     0501
A0101406620273650685001QUIMINALES, ARLENE MARANAN                               0501
A0101400570281361144001ERIC G. IDIESCA                                          0501
A0101400570281503551001JAREN R. CABUDOL                                         0501
A2601400270302557854001ANGELITO OR AGNES MELEGRITO                              0501
A2001400290315688009001ALGOPERA, LLOYD GARCIA                                   0504
A0101402350321179353001MA. ELNORA ESPIRITU                                      0501
A0101402350321180985001CHIEN CHUNG P. HO                                        0501
A0101402350321455602001ISAAC JAMES D. JIMENEZ                                   0502
A0101402350321478374059BERNARDITA D. LOPEZ                                      0501
A0101402640361345504001MATABANG, ALBERTO MANANZAN                               0501
A0101402640361548882001MIRANDA, HIEDEE ARCEGA                                   0501
A0101405490392552022002MARIA THERESA D. SOLIS                                   0501
A2401400180411458238001ANIMAS, JULIUS PETER CABATO                              0502
A1201400150421344076001ULAT, MAREBEL RUEDA                                      0504
A0901400220432478374002EVELYN ALGA DEMECILLO                                    0501
A0101403030441043810001CORE SOURCE TRADING                                      0504
A0101403030441239795001**********                                               0501
A0101403580511029748001SWEET BELLA DESSERTS                                     0515
A0101403580511153476002THERESITA S. TIU                                         0510
A0101403580511156550004CESAR A. AVERIA                                          0506
A0101406880513565496015NIPALES, DONNA S.                                        0501
A0101406880513566209003MARCELO, JOVITA                                          0501
A0101406880513573270001TURALBA JR., ANTONIO VALERA                              0502
A0101403450521239535001******                                                   0501
A0101403450521715225001**************                                           0501
A0101407720602349929002**********                                               0504
A0101407720602485188001BASBAS, CRISTIE APURADO                                  0501
A0101404260611478374078SUPERAL, CORAZON                                         0501
A0101404260611548757001RAMIREZ, CORINA TORCUATOR                                0502
A0101404680651171110001RUMAX ENTERPRISES                                        0505
A0101404680651520766083ETHEL D. RODRIGO                                         0501
A0101404680651520766177PURISIMA L. CATCHUELA                                    0501
A0101404680651525001008ARLENE G. GUANCO                                         0502
A1301400340683608747001TALUSIG, MARILYN ESGUERRA                                0502
A1701400230693710362001CUA, RONALD CU                                           0502
A4101400550815181675001MONTARDE, MILDRED PALABRICA                              0502
A4101400550815557725001VALDEZCO, EDWIN BACANI                                   0502
A0101404840851041506001RVL MOVERS CORPORATION                                   0501
A0101406040000000014757ONG, J DBU JILZEN ENTERPRISE OR                         10501
A0101409920000000022044LAZARO, AMOR LITA                                       10501
A0101410300000000026462SYCIP,JOHN CARLOS/BANTIGUE,JOHN                         10510
A0101410300000000026520BANTIGUE, JOHN PAUL P. AND ESQU                         10501
A1301400500000000213287MARIO R. CRUZ OR                                        10501
A0101408370000000335653VICENCIO, MA  JESUSA RACHELLE                           10501
A0101402350000000443229DAYANGHIRANG, MARIA ASUNCION OR                         10502
A1601400170000000497398JESUS B CALISIN OR BETTY N                              10501
A0701400260000000670826PINTO, JEREMY DBU                                       10501
A0101412630000000801461FUDALAN JR., OSCAR DBU BAY                              10501
A0101412630000000801461FUDALAN JR., OSCAR DBU BAY                              10501
A0101410560000000848722SY, ROLANDO G. DBU MCCLEAN                              10501
A0101409180000000874608FELIX, CHRISTIAN ANTHONY                                10501
A4101400390000000975059MENDOZA, CRISANTA DBU ERSAN                             10501
A0101409920000000998570MEMBERS OF NATASHA (SHOECAT INC                         10501
A0301400530000001009972CUNA, RENE ANFONE DBU RENZ                              10501
A1401400110000001096173MACATUGOB, FERDINAND PORTE OR                           10501
A1301400470000001298995CHRISTOPHER P. LEGASPI OR                               10505
A3101400450223442002001GARCIA, ROSALINA OR                                     10502
A1001400480234051824001DESCALLAR, DARWIN LEE CUNADO                            10501
A2001400290315675724001ENANO, RAYMUND FERRERAS OR                              10501
A0101402350321597544001ROBERTO T. ARSITIO OR                                   10501
A0101405650322694358001MELECIO, MERLY M.                                       10503
A0101402510341382954001VICTOR A. CABRERA OR                                    10501
A5501400120410656023001BELTRAN, MANUEL OR                                      10501
A0101407430503423636002SOMERA, LUCILA C. OR                                    10501
A0101403580511406129001ROLANDO ORTIGOSA OR                                     10502
A0101408110515348323001MARTIN L. DELA ROSA OR MARIA                            10502
A0101407720602283353001ERWIN HERNANDEZ OR                                      10501
A0101408240711400412005MIRCHANDANI, MICHAEL OR SHERYL                          10501
A4101400260812752512001HIPONIA, CATALINA PEDIDA OR                             10502
A4101400550815693134001LLANES, TUDOR HERNANDEZ OR                              10501
A0101406040000000014757JONATHAN C. BANGAYAN                                    20500
A0101409920000000022044MEMBERS OF NATAS                                        20500
A0101410300000000026462PAUL/ESQUIVIAS,J                                        20500
A0101410300000000026520IVIAS, JOAQUIN P                                        20500
A1301400500000000213287CRISTINA E. CRUZ                                        20500
A0101408370000000335653GOMEZ                                                   20500
A0101402350000000443229DAYANGHIRANG, ARMAND                                    20500
A1601400170000000497398CAPILI OR NANCY P PLOPINO                               20500
A0701400260000000670826NASAKIAH TRADING                                        20500
A0101412630000000801461HEWITT LEARNING                                         20500
A0101412630000000801461HEWITT LEARNING                                         20500
A0101410560000000848722WASHING SOLUTION CO.                                    20500
A0101409180000000874608FLAVIER                                                 20500
A4101400390000000975059PHARMACY AND GEN MDSE                                   20500
A0101409920000000998570FLORIDA T. SANTOS                                       20500
A0301400530000001009972EXPRESS SERVICE CENTER                                  20500
A1401400110000001096173MACATUGOB, CARMEN HERVERA                               20500
A1301400470000001298995JET V. LEGASPI                                          20500
A3101400450223442002001JESUSA CORAZON                                          20500
A1001400480234051824001DBU CYNON AGRI CENTER                                   20500
A2001400290315675724001MAE CIELO O. ENA                                        20500
A0101402350321597544001LUVIZMINDA L. ARSITIO                                   20500
A0101405650322694358001OR MELECIO, ELMER                                       20500
A0101402510341382954001AMY P. CABRERA                                          20500
A5501400120410656023001BELTRAN, ALEGRIA                                        20500
A0101407430503423636002SOMERA, EDWIN C.                                        20500
A0101403580511406129001SUZETTE ORTIGOSA                                        20500
A0101408110515348323001TERESA M. DELA R                                        20500
A0101407720602283353001AGNES HERNANDEZ                                         20500
A0101408240711400412005OR SHAM OR LALA                                         20500
A4101400260812752512001JUAN, EMMANUEL B                                        20500
A4101400550815693134001LLANES, PRESCILLA                                       20500
B0101408240000000005552PACIFIC AOE LOGISTICS INC.                               1602
B17014002300000000105665 SISTERS REALTY & DEVELOPMENT CORP                      1602
B01014046800000000135618LUDEREY FOOD SERVICE INC.                               1604
B0101406590000000035561WINNVES CORPORATION                                      1603
B0101410140000000038873MINDPOINT MANAGEMENT AND CONSULTANC                      1601
B0101412500000000041669ACETECH, INC.                                            1601
B0101413860000000145311GIZMO.WIDGETS CORPORATION                                1601
B0101403320000000522325L.B.T AND SONS CO., INC                                  1601
B0101405650000000772798PDBTECH ENTERPRISE INC.                                  1601
B0101401700041017100001ECL INTERGROUP, INC.                                     1602
B0101400150061010833001VELCA TRAVEL & TOURS, INC.                               1601
B0101401830141259521001JIMMY N. YANG (SONLY PRINTING PRESS)                     1601
B3101400160221045923001SUNRICH MANUFACTURING CORPORATION                        1610
B0101401670271025034001M.P.S. FOOD CORP.                                        1603
B0101401670271191081001EAGLECOR, INC.                                           1605
B0801400160311014376002PENBANK, INC.(A PRIVATE DEVELOPMENT BANK                 1601
B0801400160311035991001HAPI ILOILO CORPORATION                                  1601
B0801400160311414617001ANOCHE ASSOCIATES INTERNATIONAL, INC.                    1605
B0101405650322024675001MARGUERITE REALTY, INC.                                  1602
B0101402060351009368002RESINS INCORPORATED                                      1603
B0101402640361174526001KAINOS DEVELOPMENT CORP.                                 1602
B0201400760374032843001ALLMIX TRADING, INC.                                     1605
B2401400180411014383001RD EMPLOYEES CREDIT COOPERATIVE                          1605
B1201400150421009374001ESLA MANAGEMENT AND CONSULTING                           1606
B0501400170481015879001TDG VEHICLE SALES DEPARTMENT                             1610
B0101403580511005189001SL SEARCH CORPORATION                                    1603
B0101403580511524823001SL TEMPS INC.                                            1603
B0101403580511703493001SINGAZILIAN UNLIMITED SKILLS CORPORATION                 1602
B0101408530516694070001MAJOR MOM NOVELTY GOODS COMPANY, INC                     1602
B0101407720602006018001HEALTH LAB AND MEDICAL SERVICES, INC.                    1610
B0101411370000000017967HYPER-AIRE INDUSTRIAL & DEVELOPMENT                     11601
B0101403580000000383802GRAMONO PROPERTIES AND DEVELOPMENT                      11602
B1101400120000000652391ONG, VIRGINIA PO AND                                    11605
B0101407430503039663001ACES CHASSIS MANAGEMENT AND MARKETING                   11610
B0101407720602030155003DEPARTMENT OF DERMATOLOGY MAKATI MEDICAL                11601
B0101411370000000017967CORPORATION                                             21600
B0101403580000000383802CORPORATION                                             21600
B1101400120000000652391ONG, WEE CHI PO                                         21600
B0101407430503039663001CORP.                                                   21600
B0101407720602030155003CENTER FOUNDATIO                                        21600
