F3201400190000001493034LEE, ALEX TAPELITE                                       2501CKO
F1801400130151048759001MSU-IIT NMPC MANTICAO BR.                                2602CKR
F0101400570281040888002TACLOBAN OIL MILLS, INC.                                 2602CKR
F0101400570281042880001CATARMAN OIL MILLS, INC.                                 2602CKR
F0101403320471046476001ZHOEBLESS CORP.                                          2601CKR
F3301400120581014889002B & J COMPUTER & ELECTRONIC SERVICE                      2601CKO
F0101408240711029699001POWER AD & PROMO VENTURE, INC.                           2601CKO
F4101400260812026423003DO1 GMA INTERNATIONAL CORP.                              2601CKO
F1301400470252476908001MANUEL U. TINIO OR ELIZABETH ANNE M.                    12605CKO
F1301400470252476908001TINIO                                                   22600CKO
