A0101400310000000019430AYROSO, EDMUND MALATE                                    0501
A0301400660000000023036*****                                                    0501
A0101411080000000026202******                                                   0501
A0101408660000000059921VYAS, ANJANA MANOHAR                                     0501
A0101410690000000061823CRUZ, JEANNETTE MEJIA                                    0503
A0101413730000000144625SIA, GEORGE ORPILLA                                      0501
A0301400660000000194810HEIN, STEPHANIE VILLAVER                                 0501
A0101410140000000482735CRUZ, MA CARINA MULDONG                                  0501
A0101407690000000495409MOLAO JR., EDWIN PLANG                                   0502
A0101408370000000586038QUINIO, IRENE BALLICAS                                   0501
A0101408370000000586049RAMOS-ATIENZA, MICHELLE E.                               0501
A0101413570000000635632MARY GRACE P. MONTESA                                    0501
A0701400260000000670893CAMACHO, ANGEL ABAD                                      0501
A0101410690000000711011BARROT, NELLY TERANTE                                    0501
A3401400280000000784670ZEN PHARMACY                                             0501
A0101410850000000844651GARON JR., AGAPITO MARIANO                               0501
A0101403580000000922587EVANGELINE O. MARTIN                                     0501
A0101403580000000922598VIRSIL O. FLAMINIANO                                     0501
A1301400340000000926927DELA CRUZ, RONNEL SANTIAGO                               0501
A4101400550000000981631MAQUE, PEDRO OBEDOZA                                     0501
A0201400760000000989660INOC, HARVEY VILLACORTA                                  0501
A0101412340000001017758SALES, ALEXANDER BASAS                                   0501
A1001400480000001054795ERENO, MARINA GALLANA                                    0501
A0101412890000001056193MONARCA, EXALTACION BORDA                                0503
A1001400190000001057512CENIZA, KAIREEN FAITH VACALARES                          0501
A0101410140000001074613MEMBERS OF NATASHA (SHOECAT INC                          0502
A0301400660000001113820*****                                                    0501
A0101410980000001154341LYRA D. LACUNA                                           0501
A0101412210000001236208MATA, MARK JHON LOSITO                                   0501
A0101407560000001276193JEWN METALS TRADING                                      0501
A0101401830000001281885SANTOS JR., LAURO DOCENA                                 0501
A0101410560000001291003SOLIS, DIVINA GRACIA MOLO                                0501
A0101402510000001292411GATDULA, KRISTINE ROMERO                                 0501
A1301400470000001299009NIDA S. AQUINO                                           0501
A1301400470000001299061SHERWIN ORDONEZ CONSTANTINO                              0501
A4101400550000001332405RIVERA, ROSALINDA LOVERIA                                0501
A6601400120000001370489LOVINO, LYUBIM FALCOTELO                                 0501
A0101413600000001430608PULONG, ABDELNAMRIN ARSAD                                0501
A0101400440000001439863MARY JONEN T. GUILLERMO                                  0501
A2201400250000001545499ZENAIDA C. VILLANUEVA                                    0501
A0101401090000001611347DELOS REYES, JOSEPHINE LORENZO                           0501
A4101400550000001622435MARCELO, LENY ASINAS                                     0501
A4101400260000001673496SUNIEGA, FREDERICK FLORES                                0501
A0101400310000001837874ABCEDE, IRIS ROLDAN                                      0501
A0101400150061453761080ANABELLE ELEMOS                                          0501
A0101405810072490012001***************                                          0503
A0601400100081621919001DAVID, CRISANDA MERCADO                                  0503
A0101401960121238765002************                                             0501
A0101401960121239548001MELANIE YAO                                              0501
A0101400440161378409001WILFREDO NAVIDA VILLAR                                   0501
A0101401090171493594001CELINA S. TADY                                           0501
A0301400530193044968008ASIAMOTOR, INC.                                          0505
A0101400310211075532001RIGOR, CHAIRRA MAE ABAYA                                 0501
A0101400310211157380001LAQUIAN, LYDIA M.                                        0501
A0101400310211478374086GLORIA S. DOBRA                                          0501
A0101400310211478374088SUNTAY, CRISTY                                           0501
A0101407140213239085001**********                                               0501
A0101407140213427809001**********                                               0501
A3101400160221784329001LEANDRO R BATALLONES                                     0501
A0101401670271039999001INFINITY INSURANCE SERVICES                              0502
A0501400200292669422001SALAGUBANG, LILIBETH ANONAS                              0501
A6601400120314648197001PAJOTA, RUNETO OLMEDA                                    0502
A6601400120314668441002MASLOC, SHERRY AMOR GALONO                               0501
A0101405650322096153001DOLOR, FLOILAN MATULOY                                   0501
A0101405650322677759002BESA, ODESSA MACATIVO                                    0501
A0101408370382186593001DR. RENE V. REYES                                        0503
A0101408370382391433002DR. FREDERICK P. VICENTE                                 0502
A0101402770391042395001TRADEQ MERCHANDISING                                     0501
A0101403580511558749001HENRY D. ANTONIO                                         0504
A0101408530516719095001JARDIN, AMELOU CASTILLO                                  0501
A0101403450521238140001**********                                               0502
A0101403450521554894002SON, LEONIDES TAN                                        0502
A0101407720602326333001SATURNINO PEREZ JAVIER                                   0502
A0101407720602402575001CEDENO, JOSEPH RAY RICHARD RUFO                          0502
A0101404420631030166001*****                                                    0503
A0101404420631478374067DELIA M. ABENOJA                                         0502
A0101409920650078985001REYES, ANGELINA BERSABE                                  0501
A0101407690652020765001STARIAN MARKETING                                        0502
A0101407690652045019001AXIS ROOF SERVICES                                       0501
A0101407690652678597001HERRERA, ALICIA ARCEO                                    0502
A0101407690652741995001ESTACIO JR., FELIPE ADONA                                0501
A0101411950680090285001MORALES, RITA MENDOZA                                    0501
A1301400210682478374062MA. ERLINDA C CHUA                                       0501
A1301400340683552624001ENRACA, MA. THERESA GREGORIO                             0502
A0101407560686310036002TERESITA J. MONTANO                                      0501
A0101407560686548280001********                                                 0504
A2801400100712090543001DELGADO, JUNIVER DELOS SANTOS                            0501
A2801400100712551709001SANTOS, OSCAR CO                                         0505
A2801400100712582575001LLANTADA, JOANNA LEE BACALA                              0501
A4101400260812566504001GERRY W. ROJAS                                           0501
A4101400390813298552034THELMA S. DE JESUS                                       0501
A4101400550815478374001ONAYAN, CAROLINA BAUTISTA                                0501
A0101404840851520766163JOCELYN ANONUEVO                                         0502
A0101404840851572213001VENTURA, JAYDEE MANICSIC                                 0502
A0601400230891035178001LEORLYN IRON WORKS                                       0502
A0601400230891627261001RAMOS, ANGELITA BAUTISTA                                 0501
A0101412890000000007525JEFFERSON S CHONG OR MARYJANE S                         10502
A0301400790000000040848TILOS, MARCELINO DBU NOYNOY                             10501
A0701400260000000041050DELOS SANTOS JR. III, LEOPOLDO                          10502
A0101408530000000136310MIRABUENO, PIERRE PAULINE                               10503
A0101411950000000490835EMPEROR'S KITCHEN EQUIPMENT                             10502
A4101400550000000506949MARQUEZ, CEZAR BAUTISTA OR                              10502
A1001400480000001054813FLORES, RICARDO R DBU ESSENCE                           10505
A0101413310000001073745BATAC, MARY GRACE G. DBU MOTHER                         10501
A1601400170000001837863RENE N. ESPLANA OR                                      10501
A0601400100081251899001YALUNG, ROBERT OR MA. CRISTINA                          10502
A0101401090171196054001DRS. EMILIANO &/OR BEATRICE                             10503
A0101401090171196097001HERNANDO A. OLONAN OR                                   10502
A0301400530193574863001DAGAANG, DAISYDARIO OR JENNE                            10502
A0301400530193718494008LU, HARRY POLINA OR                                     10503
A0101401670271186264002ATENDIDO, ANITA              OR                         10501
A0101402510341196453002ROSITA OR MARIO OR MARIE                                10501
A0101402510341331222001ERLINDA RECOCO OR JOHN PAUL                             10501
A0101408400394230018001JOSE H. GAOAT JR. OR                                    10503
A2401400180411478374027ELLEN PANTUJAN OR                                       10501
A2201400250561299317001MIRASOL M. SAN SEBASTIAN OR                             10502
A2201400250561478374006ANGELINA P. QUIBALLO                                    10501
A0101407690652478374093MIRIAM STO. DOMINGO - DEALERS                           10501
A0101407690652478374145MA. ROUMELA LUISA MIJARES -                             10501
A0101407690652525001057SONNY M. BAJIO - DEALERS OF                             10501
A0101412890000000007525CHONG                                                   20500
A0301400790000000040848MOTORCYCLE PARTS                                        20500
A0701400260000000041050PEORO                                                   20500
A0101408530000000136310RIVERA                                                  20500
A0101411950000000490835FABRICATION                                             20500
A4101400550000000506949MARQUEZ, ZENAIDA MOLO                                   20500
A1001400480000001054813FARM                                                    20500
A0101413310000001073745BEAR TUTORIAL & LEARNING                                20500
A1601400170000001837863GLORYDEL B. ALAPAD                                      20500
A0601400100081251899001OR SANTOS, MA. L                                        20500
A0101401090171196054001CANONIGO                                                20500
A0101401090171196097001LEONCIA N. OLONA                                        20500
A0301400530193574863001OR DAISYJENNE OR DARYL                                  20500
A0301400530193718494008KE, BING ZHANG                                          20500
A0101401670271186264002ATENDIDO, RAYMUND                                       20500
A0101402510341196453002STELLA NAVARRO                                          20500
A0101402510341331222001ROQUE OR ROLLY BOY ROQUE                                20500
A0101408400394230018001JANEFER F. GAOAT                                        20500
A2401400180411478374027ELMER PANTUJAN                                          20500
A2201400250561299317001ALLAN M. SAN SEBASTIAN                                  20500
A2201400250561478374006MEMBERS OF NATASHA                                      20500
A0101407690652478374093OF SHOECAT INC.                                         20500
A0101407690652478374145DEALERS OF SHOECAT INC.                                 20500
A0101407690652525001057SHOECAT INC.                                            20500
B0101405940000000002984SHINCREATIVE GLOBAL DESIGN INC.                          1602
B2001400290000000020559RD CASH PADALA, INC.- DUMAGUETE                          1603
B0101402770000000023725KOYOGAWA MOTORS CORPORATION                              1603
B0101407560000000477867MULTITECH PRODUCT MOULDING CORPORATION                   1601
B0101411240000000629276FILIPINO ENTREPRENEURS & RESOURCES                       1601
B0101405650000000772641FLEXI-LITE PHIL. ENTERPRISES                             1601
B0101400600000001335535CAFELO SKY CORPORATION                                   1605
B0101405810072011448001**********                                               1602
B0101405810072029570001PLASTIC CONSUMERS CORPORATION                            1605
B0101401960121023340001**********                                               1601
B0301400530193041076168BLACK FIGHTER SECURITY AGENCY, INC                       1605
B0101407140213362968001SIPAG PROVIDER, INC.                                     1603
B3101400160221028210002GOLDEN DRAGON MOTOR SALES CORP.                          1601
B0101401670271041791001A PI SQUARE KINDER SCHOOL INC.                           1602
B6601400120314612876001DERAMPATUN, ASIS DORADO                                  1602
B2001400290315528399001**********                                               1601
B0101408820333449627001BUNYI, RODANTE CRUZ                                      1603
B0201400760374043494001GM & SONS, INC.                                          1602
B0101410140475047994001PASIG PARISH CREDIT COOPERATIVE                          1603
B1901400160491012762001ATI-BATANGAS, INC.                                       1610
B0101403580511027603003K.S.T. PROPERTIES, INC.                                  1605
B0101408110515017881001GROUP MANAGEMENT CORPORATION                             1603
B0101403450521238590001**********                                               1601
B0101407690652025536001ST. MARK'S CHILD DEVT. CENTER, INC.                      1603
B0101406590662038794001PRISMODIAL CONSTRUCTION CORPORATION                      1606
B1301400210682026707001GOLDEN DAME FOOD CENTER, INC.                            1602
B0101412180000000075443VAN CONSTRUCTION AND MANAGEMENT                         11602
B0301400950000000566901UNITED WIL MANPOWER AND ALLIED SERVICES,                11605
B0601400100081038307001JOSEPH DENNIS C. SANGALANG                              11603
B0301400530193034066168TAGUM COMMERCIAL & REALTY                               11603
B1401400110492365609001JEORGE S MALIGAT - PILIPINO HARDWARE AND                11601
B0101412180000000075443INCORPORATED                                            21600
B0301400950000000566901INC.                                                    21600
B0601400100081038307001ACCOUNTING FIRM                                         21600
B0301400530193034066168CORPORATION                                             21600
B1401400110492365609001CONST. SUPPLY                                           21600
