A0101412760000000031950ABELIDO, ALEX HECHANOVA                                  0504
A0101401700000000040137CENIZA, ARLENE ZUNIGA                                    0501
A0101400440000000060200LANIE C. BALISONG                                        0501
A0101404840000000085141NICOLASA R. GUIAS                                        0501
A0101410300000000191837VISAYA, LILIBETH ORDONIO                                 0503
A0101412180000000259541********                                                 0502
A0101408370000000336190DONATO, CRISANTA ESPIRITU                                0501
A0101408370000000336207DY, PILAR LAGMAN                                         0501
A0101400440000000337682CHARITO T. IBANEZ                                        0502
A0101411370000000350423CHIONG, JEFFREY BERMOY                                   0502
A4101400390000000379204ARIAS, RIZA BULACLAC                                     0501
A0101408820000000408688VILLANUEVA, JOHN VINCENT CABILO                          0501
A0101409890000000437449**********                                               0501
A0101409890000000437450BOONGALING, MARK ALVIN PEREZ                             0501
A0101409890000000437483************                                             0501
A0101404840000000475963BERIA JR., MOISES BEJERANO                               0502
A0101407720000000510745MORONDOZ, ANA LIZA DIMACALI                              0502
A0101403320000000522176ALCANTARA, RAEZA LUMBAG                                  0502
A0101400440000000596630MARY ANN A. OYARDO                                       0501
A0101400150000000760805FELIPE, JOY HERNANDEZ                                    0501
A0101411080000000805845CO, AIDA MONTEALEGRE                                     0501
A0101404420000000866531VBM TRADING                                              0502
A0101401250000000907142NEPOMUCENO, SALVE RAPI                                   0501
A0101407690000000913973******                                                   0502
A0101410300000000919422ROQUE, EUGENIE AMANDA VALDOMAR                           0501
A0101410300000000919535VICENCIO, IVY BORJA                                      0503
A0101403580000000922736JIMMY NACIONALES CHUA                                    0501
A0101412340000001017805JIMENEZ, ANGELICA KRISTINE V.                            0501
A1001400190000001057589NORMALIS C. REYES                                        0501
A3101400450000001104174ANGSICO, VOUGHN IVAN ALCANTARA                           0501
A5501400120000001121953HO, ISADDI BANGOC                                        0501
A0101412500000001146872**********                                               0501
A0101408400000001213698SANO, VIRGIE BAOYABAN                                    0503
A0101408400000001231127ROSS, JENNIFER DOROMAL                                   0502
A3001400130000001271578JUICY SWEET PRESERVES MKTG.                              0501
A0101411820000001356503GIL B. CONCEPCION JR.                                    0501
A0101412760000001399260SAN BUENAVENTURA, LILIA DE SILV                          0502
A0101412760000001399868BLAZA, SHERYL MALUNTAD                                   0501
A0101413990000001406484QUEBAL, ARTICER OCAMPO                                   0501
A0101401380000001412639DELA ROSA, CORA GONZAGA                                  0503
A0101401380000001412719********                                                 0501
A0101401380000001412720BARRETTO, STEWART LIM                                    0501
A0601400100000001442819CELIANTO ENTERPRISES                                     0502
A0101412630000001485263ALLEJE, DENISE FRANCES MARCO                             0501
A0101408790000001486302PAUL-LAINE ADVERTISING                                   0502
A2001400290000001557597RAGAY, JAMES BANONG                                      0501
A0101408400000001614791DECORMATES INTERIORS SALES AND                           0504
A0101409050000001662335ENRIQUEZ, REGINO BICAR                                   0501
A0101409050000001662357BARAO, JOYLENE CACACHO                                   0501
A0101409050000001662391GONZALO JR., EUGENE TALOZA                               0501
A0601400230000001687118NAVARRO, NERISSA LUIS                                    0501
A0301400790000001776069ALERIA, QUILLY SAJULGA                                   0501
A0301400790000001776092OBEREZ JR., GENARO MANAGBANAG                            0501
A4101400260000001783560ROMAN, REGINA PAVIA                                      0501
A0101404130000001831716BLAY, VICTOR PUNZALAN                                    0503
A0101404130000001831727DIMAPILIS, TERESITA GUNIO                                0501
A0101404130000001831761DESTURA JR., PEDRO VILLARAZO                             0501
A0101404130000001831783ESPINOSA, JULIUS OSCAR REDONDO                           0502
A1201400150000001863072ENDE, CECILIA PADILLA                                    0501
A1901400290000001926303PAULER PANGANIBAN ANI                                    0501
A2401400180000001935782ONAS, ROSITA PLANOS                                      0501
A0101401250021385004001CABRERA, ERNESTO BAUTISTA                                0501
A0101401700041386485001MA. SONIA DINO                                           0501
A0101400150061368675001JESSE O. ANG                                             0502
A0101400440161459294001MARY ANN T. REGINALDO                                    0502
A0101400440161478374062MARIA E. ERLANO                                          0501
A0101400440161670356001MA. ESTELA . CLEOFE                                      0501
A0101407270162482122001ANTONIA L LANCIN                                         0503
A0101401380201183147001ERLINDA P. VILORIA                                       0501
A0101401380201315884002VELUZ, MONTGOMERY CUNETA                                 0501
A0101401380201436370001MONSALE, MENLY ABENOJA                                   0501
A0101401380201552682001ALCANTARA, REMMYCEL GARCIA                               0502
A0101400310211418194001MARTINEZ, ANABEL                                         0503
A0101400310211704963001TABUZO, JORGE MILLETE                                    0501
A0101407140213031109002MRS V'S MEAT SHOP                                        0505
A0101407140213041784001RED DRAGON INDUSTRIES                                    0501
A3101400450223693053001AUSTRIA, APRYL LYNN EVANGELISTA                          0505
A3001400130230478374011BULADACO, RUBY MADRIO                                    0501
A1901400290261244374006ELIZABETH KATIGBAK LOZANO                                0503
A1901400290261493025072DRA. IRENE SALDEVAR BANDONG                              0501
A2601400270302556418001RONNIE P. BALOLONG                                       0501
A0101405650322210293002VILLANUEVA, TERESITA ESPINOSA                            0501
A0101402480331041553001GEM PLASTIC MFG. INC.                                    0505
A0101402480331478374035MARINAY, JOSEPHINE                                       0501
A0101402480331520766048KISMUNDO, ALICIA                                         0502
A0101402060351030004001ZANVEL MANPOWER SERVICES                                 0503
A0201400760374465762003QUE, BENEDICT YAP                                        0505
A0201400890376071522001YAP, MARIA TERESA DAGUMAN                                0502
A0101408370382391120001DR. SALVADOR M. EUSTAQUIO                                0502
A0101408370382445729001DR. JASON D. ROSCA                                       0501
A0101408370382627901001DR CARLOS PONCIANO R ESGUERRA                            0501
A0101405490392298552043BETTY R. ARENA                                           0502
A0101405490392478374008MARGARITA R. CIELO                                       0501
A0101408400394301063001CANTILLON REV. FR., ORLANDO BAR                          0501
A0101408400394521893001EMBESTRO, RUBY SABAS                                     0501
A0101408950396565384001LABAO JR., ROMEO OCOL                                    0501
A2401400180411344858001CHUA, MAGDALENA SALAZAR                                  0501
A2401400180411542448001GUATLO, ANNA MARIE VILLASENCIO                           0501
A1201400150421306120001CHOI, LAI CHING                                          0501
A0101403320471442993001RUBY-MAE R. BOSTRE                                       0501
A0101406330472215960003ARTHUR N. LINDO                                          0502
A0101406330472215990001DFB GLASS & ALUMINUM SUPPLY                              0502
A0101406330472356808002CHRISTIAN E. CANGCO                                      0506
A0101406330472428084001DARWIN JEBB YLO OR MARILEN YLO                           0502
A0101406330472478374052SHIELA D. LAPUENTE                                       0501
A0101406330472478374056REVELINA E. ECLARINAL                                    0501
A0101406330472593335001ROMUALDO C. RAZON                                        0501
A0101406880513033856001LLAMAR BEACH RESORT                                      0503
A0101406880513444595001GABRIEL, MARIA TERESA BERGONIO                           0501
A2201400250561019818003KIS ENTERPRISES                                          0510
A2201400250561040968001PADRE PIO ENTERPRISES                                    0506
A0101404130601154183001RAMOS, JENNIFER FELICIANO                                0503
A0101404260611478374077LUCIA CAPILITAN                                          0501
A0101404260611692915001POE III, JOSE BENGZON                                    0501
A0101404420631160279001*****                                                    0502
A0101409890649748239001**********                                               0506
A0101404680651471496001RONAN C. CUARESMA                                        0501
A0101404680651512459001MARIAN B. SILVA                                          0501
A0101404680651518069001CATHERINE M. RIVAS                                       0502
A0101404680651520766081ELIZABETH I. BELARDO                                     0501
A0101404680651532685001EMMA RUTH C. MARTIN                                      0501
A0101407690652208976001NOVAL, TERESITA CABATINGAN                               0501
A0101407560686499860001FERNALYN C. OANDASAN                                     0501
A0101408240711336084001EVA M. LUMBAN                                            0502
A0101408240711748102001GASTON, SANDRA MONTECILLO                                0501
A4101400260812519502001APOSTOL, JESSIE BOY MARTINEZ                             0502
A4101400260812565457001DEMANDANTE, CELSO VILLAREAL                              0501
A4101400420814478374009FELOMINA PERICO                                          0501
A0101412340850082898001******                                                   0502
A0101404840851298552055MELBA C. ENGBINO                                         0502
A0101404840851415474001SARONA, MERIAM P.                                        0502
A0101404840851420697001LAYAO, FRANCIA CUETO                                     0502
A0101404840851478374104ROWENA C. RUIZ                                           0502
A0101406750000000090680FUENTEBELLA, DBU JCRE EIGHT                             10501
A0101407690000000154750BARANGAN, ROMEO DBU                                     10503
A0101406330000000451341BANTOG, GUADA LYNN G. OR                                10501
A0101407690000000495512MARIA BELEN FEDERIZON OR                                10503
A0101413020000000880433LIMBAG, LOUIE BOY PRANILLOS OR                          10501
A5001400170000001003381CALIMUTAN, OHARA DELA CERNA OR                          10501
A0301400790000001010573ANG, DANILO DEE OR LOPEZ,                               10503
A0101402480000001561940SAMBOA, ROSALIE DBU                                     10501
A0301400790000001776105ANG, DANILO DEE OR PANTINOPLE,                          10502
A4101400260000001783571MANUEL, MA. CORAZON LILIBETH                            10501
A1901400290000001926296DINDO PATRON BARTE OR FLORINDA                          10502
A1901400290000001926310ELMER LUBIGAN ABU OR JOEJYLYN                           10501
A0101400150061231736002PUNO, CARMELITA DE MESA OR                              10501
A0101400440161591337001JENESSEY A. RANCES OR                                   10502
A3101400450223541507001BISCOCHO, MA. CRISTINA LOPEZ OR                         10502
A1001400350233506665002EMMANUEL C. LIMBO OR HELEN M.                           10505
A1901400290261244374001ELIZABETH K LOZANO OR                                   10503
A0101402480331089098001FLORESCA, MARICEL VALEZA OR                             10502
A0101408370382397942001DR. JULIETA S. MAHUSAY OR                               10505
A0101402770391225339001VICTOR V Y. CASTRILLO OR VICTOR                         10501
A0101405490392552022001MARIA THERESA D SOLIS OR                                10501
A0101408400394005972001FAUSTINO AND FAUSTINO                                   10505
A0101407690652478374142MARLENE C. ALVAREZ - DEALERS OF                         10501
A0101407690652525001074COLLADO, ANGELYN A. - DEALERS                           10501
A4101400260812245420001EDUARDO B. SIMON OR                                     10501
A4101400420814436355001BAUTISTA, LOIDA U. OR                                   10502
A01014048408510283300013RD ROCKSAND GENERAL                                    10502
A0101404840851791747001BALMES, GERVACIO OR VALENZUELA,                         10501
A0101406750000000090680GRAPHICS PRINTING AND                                   20500
A0101407690000000154750BARANGAN TRADING                                        20500
A0101406330000000451341BANTOG, MARK LAURENCIO T.                               20500
A0101407690000000495512JOSE RENEIRIO FEDERIZON                                 20500
A0101413020000000880433LIMBAG, MILAGROS OYAD                                   20500
A5001400170000001003381CALIMUTAN, REGINALDO  G.                                20500
A0301400790000001010573SUSANA ONG                                              20500
A0101402480000001561940ARTH KARLIE ENT.                                        20500
A0301400790000001776105ANTHONY GOZO                                            20500
A4101400260000001783571TANEDO                                                  20500
A1901400290000001926296MASAS BARTE                                             20500
A1901400290000001926310MENDOZA ABU                                             20500
A0101400150061231736002SANTIAGO, MA. SOCORRO                                   20500
A0101400440161591337001JESSIE O. RANCES                                        20500
A3101400450223541507001LOPEZ, MARCO ALFONSO                                    20500
A1001400350233506665002LIMBO                                                   20500
A1901400290261244374001MARIE MILAGROS K LOZANO                                 20500
A0101402480331089098001RAMOS, RONALDO C                                        20500
A0101408370382397942001DR. TEODORO S. MAHUSAY                                  20500
A0101402770391225339001A J. CASTRILLO J                                        20500
A0101405490392552022001BENJAMIN D. SOLIS                                       20500
A0101408400394005972001ENGINEERING                                             20500
A0101407690652478374142SHOECAT, INC.                                           20500
A0101407690652525001074OF SHOECAT INC.                                         20500
A4101400260812245420001CATALINA I. SIMON                                       20500
A4101400420814436355001BAUTISTA, EPITACIO                                      20500
A0101404840851028330001MERCHANDISE                                             20500
A0101404840851791747001CATHERINE                                               20500
B5501400120000000003298MARBEL FIT MART, INC.                                    1605
B0101408370000000014655SHULEY MINE INCORPORATED                                 1603
B0101411370000000017978JNE MANILA TECHNICAL SERVICES CORP.                      1601
B0101412340000000030924MUNTINLUPA DEVELOPMENT FOUNDATION INC                    1601
B2401400180000000073692BROTHERS D & D INC.                                      1605
B0101404260000000156972PRIME POWER MANPOWER SERVICES                            1650
B0101406330000000162690SOLUTIONS CENTER INC.                                    1602
B5001400170000000169857LINK RI LOGISTICS INC.                                   1602
B0101406330000000432608FULRUBELL CORPORATION                                    1601
B0101406330000000432642ZEKE VENTURES PHILS. INC.                                1602
B0101406330000000432660LIGHTHOUSE MVETC, INC.                                   1602
B0101406330000000432671WHIFF EMISSION TESTING CENTER, INC.                      1602
B0101406330000000432740TENSCORE ENTERPRISES TRADING COMPANY                     1601
B0101401380201041068088SOUTHERN HELEVICLE TRADING                               1601
B1901400290261033214001RD CASH PADALA, INC.                                     1603
B1901400290261034056001DIVINE LOVE GENERAL HOSPITAL INC.                        1620
B0101406620273028521001I-REMIT INC.                                             1602
B1101400120313039185001COASTALVIEW FOODS CORPORATION                            1601
B0101402480331220021001**********                                               1601
B0101402480331224203001**********                                               1610
B0101402480331291905001**********                                               1602
B0201400920375036250188OCEAN TRANSPORT GROUP OF COMPANIES, INC.                 1605
B0101408790383084533001CCGA REALTY CORPORATION                                  1602
B0101405490392039459001MEGANESS PHARMA MARKETING                                1601
B0101408400394048123001REDWOOD BEAUTY SALON CO.                                 1601
B0101406330472010916001COLLINS INTERNATIONAL TRADING CORP.                      1601
B0101406330472045827001PRIMARK TOOLING INDUSTRIES CORPORATION                   1605
B0101406330472046636001ENERTECH SYSTEMS INDUSTRIES, INC.                        1610
B0101405940512005556001THE FLOWER FARM CORPORATION                              1604
B0101404130601035292001SILVER ROSE GENERAL MERCHANDISE                          1610
B0101404130601035861001METRO MOTORBIKES CORPORATION                             1602
B0101404130601621189001PROPEL MANILA 360, INC.                                  1602
B0101407690652537622001CREATIVE DISHES & RECIPES INC.                           1602
B0601400230891038771001GLOBAL CARS PHILS., INC.                                 1603
B1001400480000000041476SAVINGS MUTUAL INTER-COMPANY CREDIT                     11603
B0101401250000000057189GECOSA, M DBU PRAETORIUM                                11602
B0101402770000000080679PANGAN, AVELINO OR PANGAN, ADRIAN BRENT                 11601
B1301400500000000213414MATEA C. ESTEVEZ OR JOEY C.                             11602
B0101400570000000749560BUSINESS BUILDERS, EXPERTS, ADVISERS,                   11601
B0501400170000001072957ALEJO, ERVIN MARQUEZ AND ALEJO, NORMAN                  11601
B0101400150061011041001PHILIPPINE INTERNATIONAL AIR TERMINALS                  11603
B0101408400394042570001HAP CHAN TRADING AND                                    11605
B0101403320471009027001BROWN ELECTROMECH SERVICE TECH.,                        11602
B0101408110515046683001OROSA KAHAYON LAGDAMEO LAW OFFICES                      11601
B0101404260611038904001REYESHEN PRINT AND OFFICE                               11601
B1001400480000000041476COOPERATIVE                                             21600
B0101401250000000057189ENTERPRISE                                              21600
B0101402770000000080679DBU TUFFLINE MAR                                        21600
B1301400500000000213414ESTEVEZ                                                 21600
B0101400570000000749560MANAGERS, INC.                                          21600
B0501400170000001072957MARQUEZ                                                 21600
B0101400150061011041001COMPANY, INC.                                           21600
B0101408400394042570001MANAGEMENT CORP                                         21600
B0101403320471009027001INC.                                                    21600
B0101408110515046683001OKL LAW OFFICES                                         21600
B0101404260611038904001SUPPLIES                                                21600
