F0101401830141372736005JAVIER, JUDY ISABEL SERRANO OR                          12503CKO
F0101401830141372736005JAVIER, RAMONCHITO DIZON                                22500CKO
F0101406620000000962421ARMCO HEALTHCARE  SERVICES INC.                          2602CK1
F0301400240004013500235MSU-IIT NMPC DAVAO-MATINA BR.                            2601CKR
F0301400110191047580155MEGA DURIAN MOBILE GROUP, INC.                           2601CKR
F0401400270242449588006SUKLIN PENA OR BONIFACIO PENA                            2605CKR
F0101400570281042885001COCO DAVAO, INC.                                         2602CKR
F2401400180411029556002RELL & RENN FISHING CORPORATION                          2610CKR
F0101406880513030105001HEINDRICH TRADING CORPORATION                            2610CKO
F0101407720602021008002WAYFAIR TOURS, INC.                                      2602CKR
F0101408240711029699001POWER AD & PROMO VENTURE, INC.                           2601CKO
F01014130200000000567844TH WALL PRODUCTION DESIGN                              12602CKR
F0101400730111040071002RALPH ANTHONY REALTY                                    12602CKR
F3101400740224055999001COMMUNICATIONS WIRELESS GROUP                           12601CK1
F0101413020000000056784STATION                                                 22600CKR
F0101400730111040071002CORPORATION                                             22600CKR
F3101400740224055999001(PHILIPPINES) IN                                        22600CK1
