A0101411530000000013710**********                                               0504
A0101401250000000020424BALIAO, JOVITA LINGGON                                   0505
A0301400820000000024853ASMA, JUVYLITA F.                                        0501
A0101411790000000134169CATALAN, SHEILA ESTRADA                                  0501
A0101404840000000232835MONZON, EMELITA TUAZON                                   0501
A0101408370000000335664DECLINES, NOEL TUAZON                                    0501
A0101403580000000383562ASCALON, CARMELITA ABAD SANTOS                           0501
A0101405490000000444313BENITO M. LOJO                                           0503
A2601400270000000562003MARIA CRISTINE D. ORDONEZ                                0501
A2601400270000000562010ARNEL VIC S. BATTAD                                      0501
A0101400440000000596550BRANDON, ROSITA ERO                                      0501
A0101405650000000773068DUMIP IG, HELEN TIMARIO                                  0501
A0101400150000000806677ROBERTO MANGLIGOT                                        0501
A0101400150000000807807ALAMIL, RODEL MIANO                                      0502
A0101400150000000807910BALTAZAR, SAVITRI GANDHA FACUN                           0501
A0101400150000000808060DEE, GERARD TIONG                                        0501
A0301400820000000814099SUMUGAT, ROSITANIA S.                                    0502
A4101400260000000828860MA. GLENDA T. PERSIA                                     0501
A0101402930000000859634PEREZ, MARY GRACE LONTOC                                 0501
A0101403450000000889501********                                                 0501
A0101401700000000890488CAGARA, RONIEL CAIMOY                                    0501
A0101404840000000943215WEALTHY ENTERPRISES                                      0501
A4101400390000000975173NOAH'S ARK MANPOWER SERVICES                             0502
A0601400360000000978703KIM, MYEONGHO                                            0502
A4101400550000000981842MILANTE, DAHLIA PICARDAL                                 0501
A0101409920000000998821LANIP, JOCELYN BOLINA                                    0501
A0101409050000000999591ESTEBAN, YVONNIE BINAY AN                                0501
A0101407430000001028897FERNANDEZ, JOVITO GERON                                  0501
A1401400110000001096191CORBES, MARILOU RUSTRIA                                  0502
A0101407140000001218262**********                                               0501
A3001400130000001271465LUCERO, MARIA CHELO RESMA                                0501
A0101401830000001281921SANTOS, GINA PERALTA                                     0501
A0101409210000001294333PRADO, JUSTIN JAY FAJARDO                                0501
A2001400290000001301175PALADAR, MARICAR QUIHOM                                  0501
A0101413990000001406422AARON G. CONSTANTINO                                     0501
A0101413440000001472613FLORES, MAUREEN LAMBINO                                  0501
A0101413440000001472715VIOLA, MERCEDES DELOS REYES                              0502
A1101400120000001547235DUGANG, JESSA EBIT                                       0501
A0301400820000001554683MANAPAT, DAN ANTHONY B.                                  0501
A4101400260000001673474MIGALBIO, CATHERINE TORRES                               0501
A2401400180000001676866ARTES, MARY JEAN CASTRUDES                               0501
A0101400570000001681676GRACE M. CAMUA                                           0501
A0101413570000001682500PAULINE T. CARDONA                                       0501
A0101400860011395090002**********                                               0502
A0101400860011422686002**********                                               0505
A0101400860011475514002**********                                               0503
A0101400860011554278001LAMPAWOG, NONIE AGUILAR                                  0501
A0101400860011705520001**********                                               0503
A0101401700041311242002**********                                               0510
A0101401700041565412001COMEDA, MARIO TADURAN                                    0505
A0101401700041738223001LAURETA, CRISTINA MILLAN                                 0502
A0101400150061227091001LOURDES G. SANCHEZ                                       0501
A0101400150061453761084ROGELIO ABUD JR.                                         0501
A0601400100081504737001KAW, GEMINI DEANG                                        0502
A0601400100081586342001AGUILAR, REMEDIOS SALAS                                  0501
A0101400440161369132001NELIA D. SANCHO                                          0501
A0101400440161520766112DOLORES V. ARCEGA                                        0501
A0101401090171197481002MA. NOEMI OR ELIEZER SALAZAR                             0502
A0101401090171560600001DANIEL D. VICARIO                                        0501
A0101407140213587892002**********                                               0502
A3101400160221220999001**********                                               0502
A1001400190231478374159TILLO, ROMEO B.                                          0501
A1001400190231520766035CABANES, MARDY E.                                        0501
A1301400470252638757001**********                                               0503
A0101401670271534014001CHUA, CHARLENE DY                                        0501
A0101400570281360412001DR. LONABEL A. ENCARNACION                               0502
A0101402350321485233001TUI, CHARLES ANGELO                                      0503
A0101402350321655062001EDGARDO B. COQUILLA                                      0501
A01014056503220410060013805 PHARMACY                                            0501
A0201400760374573867001CELERINOS, MARIA FE ALMOCERA                             0501
A0101402930381384938001ATTY. RAYMUNDO T. FRANCISCO                              0502
A0101402930381478374004ANALIN ARTIOLA                                           0501
A0101408370382313183001DR. SIDNEY Y. CHENG                                      0504
A0101408370382392588002DR. CECILE S. CASIMIRO                                   0505
A0101408370382592860001ANGELINE S. TINGA                                        0502
A2401400180411478374002ROSALINA VILLASAN SANTUA                                 0501
A2401400180411513730001CUEVAS, ARWIN ROYCE LEYVA                                0502
A0101403580511039114001MILES ADVERTISING                                        0501
A0101403580511156578021LALAINE B. MANALO                                        0501
A0101403580511420184003MARIA CAROLINA S. MACASAET                               0510
A0101403580511513845001LETICIA C. DELOS SANTOS                                  0503
A0101405940512478374010COMPANERO, MARILYN ESMABE                                0501
A0101403450521238076005**********                                               0505
A0101403450521240458001**********                                               0502
A0101403450521240509001**********                                               0502
A0101404000551600376001LANDAS, ERNEST JOSEPH BAUTISTA                           0501
A2201400250561254365002FROILAN S. SANCHEZ                                       0501
A2201400250561325585001FELICIANO T. BALIGOD                                     0501
A2201400250561698707001KATSUHIRO SAKAGUCHI                                      0501
A0101407720602466238001EDUSMA-DY, REGINA TAN                                    0502
A0101404260611478374129RUBY VIRTUDAZO                                           0501
A0101404420631478374113SUSANA O. MARTINEZ                                       0501
A0101406590662044702001PTS TUTORIAL AND REVIEW SYSTEMS                          0501
A1301400340683529077002RIVERO, CELESTINA MADRIAGA                               0501
A1301400340683537487001PILIIN, VICTORIANA ARCILLO                               0501
A0101407560686041381001***********                                              0502
A0101407560686375197001***********                                              0501
A0101407560686662041001RACHIEL R. CORDOVA                                       0501
A4101400420814478374109ESTER CARBELLIDO                                         0501
A0101404840851317230019FURAGGANAN, GENE C.                                      0502
A0101404840851478374096MARIA JESUSA G. BATARIO                                  0501
A0101404840851520766002CYNTHIA S. GERODIAS                                      0502
A0101404840851520766155JOSEFINA VERGARA                                         0501
A0101404840851520766193VIVIAN P SILAGPO                                         0502
A0201400920000000007861TONACAO, MILAGROS PUGASAN OR                            10502
A0101401250000000441074BUNYE, EMILINA DELA CRUZ OR                             10501
A0101400150000000525591MEDINA, LOLITO DEL MUNDO OR                             10501
A0101410850000000778714BELDA JR., VIVENCIO OR BELDA,                           10505
A0101408240000001038700YU, RANDOLPH NATHANIEL MALVEDA                          10501
A0101412890000001056206GERONIMO, ANNABELLE ELEANOR LIM                         10501
A0101412890000001056393GERONIMO, M DBU A.M.-M.A'S                              10502
A1001400190000001057487FRANCIA, JEANELYN NOVENO DBU                            10501
A0101404000000001186716BRAGADO, CATHERINE GONZALES OR                          10501
A4101400260000001673372BUENDIA DANTE DBU PATIO BUENDIA                         10503
A2401400180000001676877VILLARICO, LOTIS EMNACE DBU L.E                         10505
A0601400360083079732001TORRES, KRISTINE MARIE                                  10501
A0101400570281740687001ANA LIZA L. ONG OR                                      10501
A0101402350321179521001FELLIZAR, CESAR OR EMILIA OR                            10504
A0101405650322321476001DE GUZMAN, MYRNA SARMIENTO OR                           10501
A0101402930381019975001UNICOM OFFICE DESIGNS BY                                10501
A0101402930381566712001JOYSA ATIVO &/OR DANIEL BONDAD                          10501
A0101408370382391439001EDREN S. MONTERDE OR                                    10502
A2401400180411478374061JUNRES AGAD OR                                          10501
A2401400180411683511001AGUINALDO, BARBETTE BALABA OR                           10501
A1901400160491547151002GINA F TORIAGA OR                                       10501
A0101407430503672116001LUKE EMMANUEL Z. QUIAMBAO OR                            10502
A2201400250561478374069MARILYN G. TAGASA                                       10501
A0101407720602537066001ENJL D. PUNSALAN OR                                     10501
A0101406590662641633001ALAZAS, MIMI TOMASA OR ALFONZE                          10501
A0201400920000000007861TONACAO, JIMMY C                                        20500
A0101401250000000441074DELA CRUZ, LUISITO                                      20500
A0101400150000000525591MEDINA, EVELYN                                          20500
A0101410850000000778714WILMA DBU VENZWIL TRADING                               20500
A0101408240000001038700OR YU, LEONAIDA                                         20500
A0101412890000001056206OR GERONIMO, MARLON                                     20500
A0101412890000001056393BAKERY                                                  20500
A1001400190000001057487JEANELYN N. FRANCIA                                     20500
A0101404000000001186716BRAGADO, PETER L                                        20500
A4101400260000001673372FARM RESORT AND EVENTS PL                               20500
A2401400180000001676877VILLARICO TRADING                                       20500
A0601400360083079732001DE GUZMAN                                               20500
A0101400570281740687001IGNACIO B. ONG                                          20500
A0101402350321179521001ABUDA, MICHELLE                                         20500
A0101405650322321476001DE GUZMAN, GAZEL                                        20500
A0101402930381019975001JEAN C. CHUA                                            20500
A0101402930381566712001&/OR AARON ESQUI                                        20500
A0101408370382391439001LORNA O. MONTERDE                                       20500
A2401400180411478374061NORMELITA BLANCO                                        20500
A2401400180411683511001AGUINALDO, ARNOLD                                       20500
A1901400160491547151002BERNARDO I TORIA                                        20500
A0101407430503672116001KATRINA T. QUIAMBAO                                     20500
A2201400250561478374069MEMBERS OF NATASHA                                      20500
A0101407720602537066001EMIR D. PUNSALAN                                        20500
A0101406590662641633001MIKEL OR ANDRE MIKO                                     20500
B0101409210000000031192LSC CORPORATION                                          1601
B0101409210000000031238******                                                   1610
B0101402350000000046108ABSOLUTE INDUSTRIAL SOLUTIONS, INC.                      1601
B0101402930000000057532PALINSAD JIMENEZ & ASSOCIATES                            1601
B0101402930000000057543CCF LIFE ACADEMY FOUNDATION INC.                         1605
B0101413730000000469676MADRIGAL TRADING CO., INC.                               1601
B0101408240000000832600YU, ROLANDO UY OR YU, LEONAIDA                           1601
B0201400920000001331753JERE LUMBER AND CONSTRUCTION SUPPLY                      1601
B0101400310000001771542PAUL L. MUNOZ OR ELIZABETH M. GONZALES                   1601
B0101400310000001771564PAUL L. MUNOZ OR ELIZABETH M. GONZALES                   1601
B0101400310000001771575PAUL L. MUNOZ OR ELIZABETH M. GONZALES                   1601
B0101400860011383946001LUA, MAN WA SIA                                          1602
B0101400860011389059003**********                                               1601
B0601400100081016360001T. CAPATI ESTATE & DEVELOPMENT CORP                      1601
B0601400100081487023001CAPGUN LONG MILES CORP.                                  1601
B0101400440161027962002CASAYRA CORPORATION                                      1602
B0101406620273038508001AMTI COMPUTERS SUBIC INC.                                1605
B0101405650322024533001TUGADE ASSOCIATES, INC.                                  1601
B0101405650322172336001RCBP-OUR LADY OF GRACE PARISH                            1601
B0101402060351030919001UNITED TERMINALS SERVICES INC.                           1603
B0101402930381010731001********                                                 1601
B0101402930381016251001THE PACIFIC MEAT COMPANY, INC.                           1602
B0101402930381017213002UNIVERSAL ROBINA CORPORATION - UCP                       1602
B0101402930381022284001INVESTORS ASSURANCE CORPORATION                          1601
B0101402930381667403001PRIVE PROPERTIES DEVELOPMENT INC.                        1601
B0101409180397044045001CACHO CONSTRUCTIONS, INC.                                1602
B2401400180411010616002ORIENTAL TIN CAN & METAL SHEET MFG.                      1602
B0101403030441012179001**********                                               1602
B1901400160491046052001BANAPRA DEVELOPMENT COOPERATIVE                          1603
B0101411790518046887001SCOTT PARK GROUP PHILIPPINES INC.                        1602
B2201400250561016484001BARON FARMS CORPORATION                                  1601
B0101406590662043490001CARMEL MKTG & TECHNOLOGY CORP.                           1602
B1301400210682248659001ASIANLAND STRATEGIES CORPORATION                         1605
B1301400340683025603001LINCOPHIL ALUMINUM MFG. CORPORATION                      1601
B0101408240711007466001VJ PROPERTIES, INC.                                      1602
B0101408240711023642001SAM SUNG PHILIPPINES CO., INC.                           1601
B2801400100712042633001SUBIC DRYDOCK CORPORATION                                1610
B4101400420814036388001ANGELORUM SCHOOL INC.                                    1601
B0101401670000000178574DELA ROSA DBU EMET TECH REFRIGERATION &                 11601
B2001400290315071661001R.UYPITCHING, IRWIN, KATRINA, ADAM, KEN                 11601
B0101409050352212676001LIAMZON, MA. ANTONIA/FRANCISCO/FRANCIS                  11601
B0101402930381017213003UNIVERSAL ROBINA CORPORATION                            11602
B0101402930381017213007UNIVERSAL ROBINA CORPORATION                            11602
B0101402930381017213018UNIVERSAL ROBINA CORPORATION                            11602
B0101402930381040001001TURQUOISE TRAVEL & EVENTS                               11602
B2401400180411037478001LHE CONSTRUCTION & ENG'G SERV - REYNALDO                11604
B1401400110492033323001STA. BARBARA HOMES HOMEOWNERS                           11601
B0101408110515018239001INSURANCE OF THE PHILIPPINE ISLANDS CO.,                11605
B0101401670000000178574AIR-CONDITIONING                                        21600
B2001400290315071661001& LU,CIPRIANO II                                        21600
B0101409050352212676001KEVIN/CATHERINE                                         21600
B0101402930381017213003URC - GD                                                21600
B0101402930381017213007URC - CMC                                               21600
B0101402930381017213018URC - PASSI                                             21600
B0101402930381040001001MANAGEMENT CORP.                                        21600
B2401400180411037478001ESPIRITU                                                21600
B1401400110492033323001ASSOCIATION                                             21600
B0101408110515018239001INC.                                                    21600
