A1301400340000000011605JAVIER, ROLANDO DELA CRUZ                                0501
A0301400530000000065832PERIAS, FE                                               0501
A0101404840000000085107JELLA M. GERONIMO                                        0502
A0101411660000000109260MERELY Z. CANESO                                         0501
A0101400730000000112881GUTIERREZ, DOMINICA DALISAY                              0501
A1301400500000000213221MARTINEZ, MARY GRACE SANTOS                              0501
A1301400500000000213390********                                                 0502
A0101400150000000253416EUGENIO, ALMARIO ACUNA                                   0501
A0101402060000000358565DECENDARIO, MARICHU TADLAN                               0501
A0101401250000000441052ONGSUECO, SYLVIA K.                                      0502
A0101405490000000444313BENITO M. LOJO                                           0503
A0101411820000000477156RICA FERNANDEZ PRADO                                     0502
A0101411400000000484457MANAOG, RONNA ANNE NAVARRO                               0501
A0501400170000000495290VELASCO, NORMAN MARTINEZ                                 0501
A1601400170000000497423MENCHU R. BUADO                                          0501
A0101412470000000520283PAGUIA, MYRA ANTONETTE DIONISIO                          0501
A1301400210000000540914RAMOS, ALLAN BAUTISTA                                    0501
A2601400270000000561988ROSALINDA S. ORDONEZ                                     0502
A0101408530000000594332PETER NEIL P. SIAROT                                     0501
A1401400110000000628579****************                                         0503
A0101407720000000713171TOMAS, ANGELICA CECILIA VELASCO                          0501
A0101400730000000833421MA. JENNIFER R. MAGAT                                    0502
A0101404420000000866393JENEVEB E. SALAYSAY                                      0502
A0101413020000000880520CHONG, SIOK SOAN SY                                      0502
A0101412340000001017816MARANAN, JENNIFER GONZALES                               0501
A1001400190000001057396LOLITA B. DULCA                                          0501
A3001400130000001271761xxxxxx                                                   0501
A6601400120000001370770BROTO, MINDANILLA BOGTONG                                0502
A4101400390000001732736CLAVERIA III, DON VIVENCIO G                             0501
A0101407560000001770823DATU, MEDERICO RODRIGUEZ                                 0501
A0101405490000002140950CASTRO, CITA BRUNA                                       0501
A1101400120000002254899OBENA, ROSEMARIE GIL OPRIASA                             0501
A0301400820000002272011ALDE, FLORENCE MARIE T.                                  0501
A0101407430000002298315EXCEL A. GRESOS                                          0501
A2801400230000002312356VILLAROSA, RODOLFO NAVALES                               0501
A0501400170000002354612CARAS, ALFREDO CARBONILLA                                0502
A0101408110000002364781MILITAR, MA. VICTORIA GARCIA                             0501
A0101410300000002375824HERNANDEZ, EVA P.                                        0501
A0101405490000002880584NARCISO, ANNA LYN MESINA                                 0502
A0101404680000003000486ALCOBER, DBU ALPHASIGNS ADVERTI                          0502
A1101400120000003022384ELCARTE, ERNA GONZAGA                                    0501
A1301400500000003070139SUGAR DADDY MARKETING                                    0502
A0101412340000003340985JOHN PAOLO B. BADONG                                     0501
A0101412340000003342101JAIME P. CRUZ                                            0501
A0101402770000003488022MYRA ULANDAY OR ARRIEL ULANDAY                           0502
A0101409050000003533424PAPA, CHRISTOPHER                                        0501
A0101409050000003533446ONGKIKO, MA. CONCEPCION                                  0501
A0101409050000003533468DIVINAGRACIA, ALLAN                                      0501
A0101409050000003533480SY, MARK RAYMOND C.                                      0501
A0101409050000003533491PAYAWAL, JOANNE                                          0501
A0101409050000003533537CASTILLO, PAOLO CESAR S.                                 0501
A0101409050000003533560CALDITO, MIRASOL                                         0501
A0101409050000003533582CLEMENTE, JANICE R.                                      0501
A0101409050000003533628TORRES, DONDON GABAY                                     0501
A0101409050000003533628TORRES, DONDON GABAY                                     0501
A0101409050000003536218CAPCO, MARIA GRACE                                       0501
A0101409050000003536401FONACIER, SUZETTE                                        0501
A0101409050000003536543RODRIGUEZ, JOSEPH CHRISTIAN                              0501
A0101409050000003536565VENKATA RAMANA BOBBA                                     0501
A0101411660000003580250MA. CELESTE S. MANDAL                                    0501
A0101411660000003580294RICA JOANNA C. NICOMEDES                                 0501
A0101409050000003642077CALIBUT, MARY DEANNE JR.                                 0501
A0101409050000003642088JULIANO, MICHELLE                                        0501
A0501400170000003855403BUGAYONG, JESUS CORNEL                                   0501
A0101400860011599297001**********                                               0502
A0101401250021468980001GENELYN C. CARTON                                        0501
A0101400150061370228181MARIA THERESA DALUMPINES                                 0501
A0101405810072234900005***************                                          0503
A0601400100081478374009JOWELL MIRANDA                                           0502
A0101413280092056420001**********                                               0501
A0101401830141546547001REATAZA, NELIA MORABE                                    0503
A0101401090171280240004FLORES, MERRIAN RAMOS                                    0501
A0101407140213278254001*************                                            0506
A1001400190231478374164SARAUS, BAMBET SOGOC                                     0501
A1001400190231520766125YANA, MAYFLOR DAGOC                                      0501
A0101406620273636752001RELANO SR., ROLANDO GALOPE                               0501
A0101400570281191853002GREGORIO, JULIETA ORBISO                                 0501
A6601400120314686638001ROALLOS, ALICE CUEVAS                                    0501
A2001400290315746119002BUHISAN, CAROLINE LU   JT                                0503
A0101402480331027585001PIXEL ARTS                                               0502
A0101402480331367035001**********                                               0501
A0101402060351217440018MARY EVELYN C. CHEN                                      0501
A0101409050352734290001*********                                                0505
A0101402770391242648002LEILA V. YABUT                                           0501
A0101402770391355762044JOCELYN JAVINEZ                                          0501
A0101405490392029745001MESINA BROTHERS, INCORPORATED                            0503
A0101405490392408832001ROSEMARIE S. OLIVEROS                                    0501
A0101406330472313284001ATTY. MAMERTO Z. MONDRAGON                               0505
A0101406330472368782001ELEANOR RALA OR JOSELITO RALA                            0501
A0101406330472478374020SHERLY M. CONDING                                        0501
A3801400170490761000001NENITA R BERNARDO                                        0501
A1901400160491476162001GINA A PELESMINA                                         0501
A1401400110492246101001DE VILLA, MADGELINA AURE                                 0501
A0101403580511036648001R2C TRADING                                              0501
A0101403580511196754001CARMELITA E. LA O'                                       0502
A0101403580511420184003MARIA CAROLINA S. MACASAET                               0512
A0101406880513016429002CHADA ENTERPRISES                                        0501
A0101411790518055815043MELODIAS, KRISTOFFER JOHN ALBA                           0501
A0101411790518055815063OCAMPO, JENNALYN HAVERIA                                 0501
A0101411790518055815064OLINDAN, ZARAH KATHRYN FRUTO                             0501
A0101411790518055815065ONG, JENNY ROSE MACASO                                   0501
A0101403450521238302001**********                                               0502
A2201400250561529504002*****                                                    0502
A0101404260611044670001POWER AGRO-PEST TRADING                                  0501
A0101404260611335308002ALIMBOYONG, JOSEPHINE MAHINAY                            0503
A0101409890649774914001ELEFANO, ROSITA CASTRO                                   0501
A0101404680651038218001KLC TRADING                                              0501
A0101404680651041629001JDC ADVERTISING                                          0505
A0101404680651088226001VILLANUEVA, AGNES NUNAG                                  0501
A0101404680651518069001CATHERINE M. RIVAS                                       0502
A0101404680651520766138FLORENTINA B. ALLINAS                                    0502
A0101404680651520766157LUZVIMINDA P. ALAGADMO                                   0501
A0101404680651684595001RIC A. COQUILLA                                          0502
A0101404680651754155001LEAH JOY A. SERRAN                                       0501
A0101410720653478374002ZENAIDA O. CARLOS                                        0501
A0101410720653586676001LEGASPI, JASON TEVES                                     0501
A0101406590662323104002MADAMBA, EVANGELINE YAP                                  0501
A0101407560686497543001**********                                               0502
A0101408240711379193001MARIA LEAH OR MARTIN LORENZO                             0502
A2801400230713243636001PARAISO, JOCELYN A.                                      0501
A0101404840851358441001DOCTOR, MARIA TERESA RAFOL                               0502
A0101406750852739022001REMITAR, NATHANIEL VASQUEZ                               0501
A0901400220000000012324SPECIALIST MOTORCYCLE PARTS &                           10506
A0601400360000000225250GUIAO, JEFFREY BONUS DBU J3A                            10510
A0101404680000000384149JONAMIE R. COTEJAR OR                                   10501
A4101400550000000506938DEMDAM, MA. MIRIAM DY                                   10501
A0101409920000000998616PONCIANO, DBU TMP COMPUTER SOLU                         10501
A0101413990000001406360AQUINO, ALMA MILAGROS V. DBU                            10502
A0101409920000001951919MEMBERS OF NATASHA (SHOECAT INC                         10501
A0101405650000002325559UYLOAN, SALVACION HOBAYAN OR                            10502
A0101412500000003853474NGAN, WILSON OR NGAN, SUSAN OR                          10501
A0101401700041189241002GEOFFREY LAO &/OR                                       10502
A0101401830141056352001PULIDO JR., JUAN DEL ROSARIO                            10501
A3101400160221557336002JOSELITO M GUEVARRA OR                                  10502
A0101406620273510020001DELA CRUZ, VINCENT APOSAGA OR                           10501
A1901400160491312227001RENATO A NAPA OR                                        10501
A0101403580511211249002CARLOS F. BENEDICTO                                     10501
A0101404000551414870001LIMSON, ELIZABETH OR                                    10502
A2201400250561478374062JENNIFER M. MARTINEZ                                    10501
A0101404680651047222001SKRUE FASTENER BOLTS AND NUTS                           10505
A0101404680651419570001LILIBETH L. IGUICO OR                                   10501
A0101404680651543781001ROGELIO R. MANALANG OR                                  10501
A0101410720653528817001VINCENT GONZALO SY OR TIMOTHY                           10503
A1301400210682248843001ROWENA A MAGNO  OR                                      10501
A0901400220000000012324ACCESSORIES, INC                                        20500
A0601400360000000225250FOODLINE JT GUIA                                        20500
A0101404680000000384149MARJORIE C. ASIL                                        20500
A4101400550000000506938OR DEMDAM, CHARMAINE DY                                 20500
A0101409920000000998616PONCIANO, TITA M                                        20500
A0101413990000001406360AQUIVEL PETRON                                          20500
A0101409920000001951919ORTIZ, GINA H                                           20500
A0101405650000002325559UYLOAN, ROMEO FORTALEZA                                 20500
A0101412500000003853474NGAN, SAMUEL IVAN                                       20500
A0101401700041189241002ELEANOR M. LAO                                          20500
A0101401830141056352001DBU PULIDO SERVICE CENTER                               20500
A3101400160221557336002JOVEN M GUEVARRA                                        20500
A0101406620273510020001SAGUENZA, EMERLIZA                                      20500
A1901400160491312227001EUFROSINA L NAPA                                        20500
A0101403580511211249002EDNA G. BENEDICTO                                       20500
A0101404000551414870001CASTILLO, EVERLY                                        20500
A2201400250561478374062MEMBERS OF NATASHA                                      20500
A0101404680651047222001CENTER                                                  20500
A0101404680651419570001ALLAN G. IGUICO                                         20500
A0101404680651543781001YOLANDA L. MANAL                                        20500
A0101410720653528817001JON SY OR JULIE                                         20500
A1301400210682248843001FLORENCIO M MAGN                                        20500
B1301400500000000011194GREEN FORTUNE GAS STATION                                1605
B0301400530000000025254CAMELLA TAGUM HOMEOWNERS ASSOCIATION                     1603
B0101406880000000027238TRUE ACCESS DISTRIBUTORS, INC.                           1601
B0101410720000000029850NORDHOFF ENTERPRISES INCORPORATED                        1601
B01014026400000000327591AVC PRINTING INC.                                       1603
B0101413020000000038377CRYSTAL RAIN INTERNATIONAL CORPORATION                   1601
B1601400170000000497063DAVID CODY AND FELIX BERMILLO                            1601
B0101412630000002186427EASTGATE MARITIME TRAINING CENTER I                      1605
B0101400440000002846655P.D. & SONS DEVELOPMENT CORPORATION                      1603
B0101401700041007412001NEW BANAWE AUTO SUPPLY                                   1605
B0101401700041024357001*****                                                    1603
B0101400150061016942006ASIA PACIFIC EXPRESS CORPORATION                         1605
B0101400150061030497001NAF GLOBAL INC.                                          1610
B0101400150061227678001GOP ADVERTISING                                          1602
B0101405810072018018001AIMWAY PLASTIC & PRINTING CORP.                          1603
B0101400440161037708002RD CASH PADALA, INC.-AREA 1                              1603
B0101401380201018537001VELUZAR(PASAY) INC.                                      1601
B0101407140213186154001INDUSTRIAL INTERLINK CORPORATION                         1610
B3101400160221013980001VIC IMPERIAL APPLIANCE CORPORATION                       1606
B3101400160221033214001RD CASH PADALA, INC. AREA 02                             1603
B3101400160221224862001JOYME CONSTRUCTION SUPPLIES, INC.                        1602
B0101408400394028489001KING'S HOLLY, INC.                                       1601
B0101409180397024348001APPLESEED MONTESSORI INCORPORATED                        1601
B0101406330472367379002********                                                 1601
B1401400110492046339002****                                                     1620
B0101403580511015363072MEC - EMD ANGONO                                         1610
B0101403580511015363079MEC - BPO 3 & 4                                          1603
B0101403580511025180001THE LINDEN TREE INSTITUTE INC.                           1601
B0101403450521011872001**********                                               1601
B0101403450521241159001**********                                               1601
B0101404000551032807001MQL BARBERSHOP                                           1602
B0101404000551034740001SYMPHONY AND COLORS FLOWER SHOP                          1604
B0101404130601100036002SCIENCE OF IDENTITY FOUNDATION, INC.                     1601
B0101404680651029206002SUPERSTAR GAS & APPLIANCE CENTER, INC.                   1606
B0101404680651029207002FORTUNE GAS CORPORATION                                  1605
B0101406590662043947001NUEVO GRUPO REALTY & DEVELOPMENT CORP.                   1601
B1301400210682025065001CASCADE COMMERCIAL CORPORATION                           1601
B1301400210682046352001BLUE STAR INTERIORS, INC.                                1601
B4101400390813028793001KRATOS TECHNITES CORPORATION                             1602
B3801400170000000018777ANTONIO CATIBOG II OR ZENAIDA CATIBOG OR                11605
B0101401830000000059972CARITAS SALVE CREDIT COOPERATIVE                        11603
B0301400820000003429941FAMACION, KRISTAL OR ESTANISLAO, JESS OR                11601
B2001400290315746119001CAROLINE L. OR RONARD FIL L. OR CRISTY                  11603
B0101406880513046802001ELECTROCOM MANAGEMENT & MANPOWER                        11604
B4101400550815040997003MAHARLIKA CONCRETE PRODUCTS AND CONST.                  11601
B3801400170000000018777HAZELYN ACEDERA                                         21600
B0101401830000000059972(NOVA/ST. PETER)                                        21600
B0301400820000003429941FAMACION, RAMSEY                                        21600
B2001400290315746119001MARIE L. BUHISAN                                        21600
B0101406880513046802001SERVICES, INC.                                          21600
B4101400550815040997003SUPPLY                                                  21600
B0101411820277821100608**********                                               2003
