A0101400600000000007707**********                                               0502
A0201400920000000047998FAELNAR, IRE CLAUDETTE MANSUETO                          0501
A4101400390000000048519ROSALDA, ANNABELLE MECATE                                0503
A4101400260000000048877***                                                      0502
A0101400310000000141062ESCOVILLA, ROSANNA ORTIZ                                 0502
A0101406620000000193760DIAZ, FRANCIS PATRICK TAYENGCO                           0501
A0101405490000000232511MICHSJA MOPET MAY C. FELIX                               0502
A0101410720000000234951*****                                                    0501
A0101401670000000237698MATA, CLARISSA SOCORRO URBANES                           0502
A0101403320000000452293STO DOMINGO, LUISITO FERNANDO                            0501
A1301400470000000472640SHERRY ANN SEVILLA RODRIGUEZ                             0501
A0101406750000000500201RAYMUNDO, AMABELLE ESPIRITU                              0501
A1001400350000000922105FACTURA, JACKELOU CORONEL                                0501
A1301400340000000926869CUERDO, MARIA ANA SORNE                                  0502
A0101410720000000967900EFFINGER, JON ERIC                                       0502
A0201400920000000991711MAGDUA, MAY ANN DARUNDAY                                 0503
A0501400200000001000153MARTINEZ, A DBU URDA GARDEN RES                          0502
A0501400170000001072775******                                                   0501
A0101410560000001290966BORDO, PETER ELMAR C.                                    0501
A0101409210000001294651DELA CRUZ III, FRANCISCO PEREZ                           0501
A1101400120000001547491ALBAO, ARRIANE RUIZ                                      0501
A0101401090000001618782KRYZLER FOOD STATION                                     0501
A4101400550000001622782BALLEZA, MA SOLEDAD TAMBA                                0501
A0101409050000001662506EBARVIA JR., TEODORO GUEVARRA                            0501
A0601400520000001707006PRESAS, MARILOU KINAADMAN                                0501
A0101404260000001725424ONG, J DBU ASCONA ENTERPRISE                             0501
A0101404260000001725457NELIA A REDELICIA                                        0501
A3101400160000001792054DIAMON C DUMAGAY                                         0501
A1101400120000001920634GUIRON, TERESA GALLARON                                  0501
A0101410560000001944010MAMING, EDWIN MADUROG                                    0501
A0101410560000001944021REGENCIA, FLORIE MALCO                                   0501
A0601400230000002310092PARAFINA, LORENZA ALIPIO                                 0501
A0101400860011086656001**********                                               0503
A0101400860011453178001**********                                               0502
A0101400860011465021001**************                                           0502
A0101400860011474911001**********                                               0502
A0101400860011498803002**********                                               0503
A0101400860011554656001SY, CINDY SANTOS                                         0501
A0101400860011685244001BANDIOLA, SIDNEY MORALES                                 0501
A0101400860011742046001**********                                               0502
A0101401250021179154001OBUYES, ELSA CUALES                                      0501
A0101401250021180271001ERLINDA V. EQUIBAL                                       0501
A0101401700041512300001HEHAR, PARAMJIT SINGH                                    0503
A0101400150061430140001**********                                               0501
A0101400150061739693001*******                                                  0501
A0101400600071478374004JULIET E. SY                                             0505
A0101401960121070250001****************                                         0502
A0101400440161094900001EDWIN A. HERNANDEZ                                       0501
A0101400310211722479002MARTICIO, BONIFACIO CUACHIN                              0501
A0101400310211790597001IMANARI, KEIKO GAMBOA                                    0501
A0101407140213193258001**********                                               0501
A3101400450223512390001SAMIANO, JAIME OR MARIA CECILIA                          0502
A1001400190231478374041DIMAKUTA, MARIVIC P.                                     0501
A1001400350233783808001MABAYLAN, MARIPAZ ECHEVERIA                              0501
A1901400290261360285001CEFERINA MENDOZA MARQUEZ                                 0502
A1901400290261419007001FE LEJANO TONGOL                                         0502
A0101401670271175533001* * * * *                                                0502
A0101406620273306796021KARLO C. GONZALES                                        0502
A0101400570281344782001LYDE ALDAY-MAGPANTAY, M.D.                               0502
A0101400570281442308001ABAYA, CAMILLE ANN CASTANEDA                             0505
A6601400120314612987002ONG, JOCELYN C.                                          0501
A0101405650322298552012ROSITA A. CARANDANG                                      0502
A0101408820333042004001********                                                 0503
A0101402640361720797001IBANEZ, MARGIE UY                                        0502
A0201400760374720031001******                                                   0503
A0201400920375036567003VIRLO CONSTRUCTION                                       0510
A0201400920375478374006APAS, SHIENA LEE MELGAR                                  0501
A0101405490392029745001MESINA BROTHERS, INCORPORATED                            0503
A5501400120410635886001ARANDIA, LINA CONCEPCION                                 0502
A0501400170481252349002LALAS, MAEVA DELA CRUZ                                   0502
A2201400250561337407001CONRADO T. BAUTISTA JR.                                  0501
A2201400250561623446001*****                                                    0501
A0101404260611150932002DELIA D. UY                                              0501
A0101404260611427608001*********                                                0503
A0101404260611478374121FLORDELIZA B. HUVALLA                                    0501
A0101410720653478374002ZENAIDA O. CARLOS                                        0501
A1301400340683075365001DELA CRUZ, JUANITA AMAD                                  0501
A0101408240711499027001BONTIGAO, ZENAIDA SAMPANG                                0502
A4101400260812478374062SUNNY G. CAPORADO                                        0501
A4101400420814436140001AMIDO, RONILA ANCHETA                                    0501
A4101400420814520766094LODILYN P. VILLAMOR                                      0501
A0101404840851520766067JOSEPHINE V. GABAYERON                                   0501
A0101406750852338027001JANE G. LACHICA                                          0501
A0101406750852478374004IMELDA TAGUNA                                            0501
A0601400230891047523001GUINTO, A DBU ADELIZA G. GUINTO                          0501
A0601400230891321941002GENER OR EVANGELINE MAGLAQUI                             0501
A0101402510000000003032SANCHEZ, RIA OCAMPO OR SANCHEZ,                         10506
A0101410300000000026462SYCIP,JOHN CARLOS/BANTIGUE,JOHN                         10510
A0101413020000000056988AGUSTIN, FL DBU FIX AND CARE                            10502
A1901400290000000135173JUDE RECINTO SEMANA OR                                  10502
A0101405490000000444477MARIA TERESINA G. MESINA OR                             10503
A0101404260000000550127SALAZAR, CARL P DBU ACN OFFICE                          10505
A0301400790000001244597LUNA, BILL ALLAN GUERRA DBU                             10502
A0101410720210570600001DELA CRUZ, ASSHLEY UY DBU                               10501
A0101400310211461822003GALVEZ, JINKIE SEMING OR                                10501
A3101400160221533265001DR. ROMAN C. SY QUI  OR                                 10510
A3101400160221557336002JOSELITO M GUEVARRA OR                                  10501
A1001400350233528399003KO, JOSE NELSON AND                                     10501
A1301400470252494744001SHYLYN S. TULOD OR ANGELO                               10502
A1901400290261244456001LEO YAP ONG OR                                          10505
A0201400760374711838008CUA, MIRIAM MASING OR                                   10505
A0101410720653528817001VINCENT GONZALO SY OR TIMOTHY                           10502
A0101406590662775373001ARCEO, DESIREE ARROYO OR                                10501
A0101406750852181175001ANTONIO S. DOMANTAY OR CONCHITA                         10502
A0101402510000000003032MANUEL OCAMPO                                           20500
A0101410300000000026462PAUL/ESQUIVIAS,JOAQUIN PA                               20500
A0101413020000000056988REF & AIRCON REPAIR SERVI                               20500
A1901400290000000135173EVELYN UMALI SEMANA                                     20500
A0101405490000000444477ALFONSO E. MESINA                                       20500
A0101404260000000550127MART                                                    20500
A0301400790000001244597PRISCILLA FRAMES                                        20500
A0101410720210570600001JAMINIC ENTERPRISES                                     20500
A0101400310211461822003GALVEZ, EDGARDO                                         20500
A3101400160221533265001MRS. EVELYN SY QUI                                      20500
A3101400160221557336002JOVEN M GUEVARRA                                        20500
A1001400350233528399003KO, CHARMAINE                                           20500
A1301400470252494744001REYZER C. TULOD                                         20500
A1901400290261244456001MEI MEI YULO ONG                                        20500
A0201400760374711838008CUA, DAVIDSON MA                                        20500
A0101410720653528817001JON SY OR JULIE                                         20500
A0101406590662775373001ARCEO, RICHARD CASTRO                                   20500
A0101406750852181175001DOMANTAY                                                20500
B0101412500000000041749UNITED DOCTORS MEDICAL CENTER, INC.                      1620
B0101406620000000193942SOURCEFIT PHILIPPINES INC.                               1601
B0101403580000000214684K.S.T. PROPERTIES, INC.                                  1603
B1001400350000000244346PASUNDAYAG COMMUNITY AND PRODUCTION                      1601
B0101404130000000696215ASIATECH WIN INTERNATIONAL SERVICES                      1602
B0101400570000000749526KNIGHTS OF COLUMBUS CAPITOL COUNCIL 3695                 1601
B0101410720000000968101VIC-VEL REALTY CORPORATION                               1601
B0201400920000001331800BARON, ROBINSON KYAMKO                                   1602
B0101400150061478588001RED PEAK CAPITAL HOLDINGS INC.                           1601
B0101400600071328360002**********                                               1601
B0101400600071603898001*******                                                  1601
B0101401830141008941001PHILIPPINE POWER & DEVELOPMENT CO.                       1606
B0101401830141028708001RONAR GENERAL CONTRACTOR                                 1604
B0101401830141033573001MAHARLIKA GENERAL MERCHANDISING                          1605
B0101401830141034725001LINGKOD SIMBAHAN MULTI-PURPOSE COOP                      1605
B0101400440161007221001ILA EXPRESS HAULER                                       1602
B0301400660194794155077*****                                                    1603
B0101400310211026511001R.R. VALENCIA ENGINEERING WORK                           1602
B0101400310211031469001SWITCHTEK CONSTRUCTION CORPORATION                       1604
B0101400310211036097001LSY OFFICE & COMPUTER SUPPLIES                           1604
B1001400190231272348001LAO, SHERWIN                                             1602
B1901400290261027293002LIPA MEDICS INC.                                         1610
B1901400290261049824001BONLOU, INC.                                             1605
B0101406460272007487001FOODMACH, INC.                                           1603
B0101406620273045521001DELRICO ANIMAL HEALTH INC.                               1602
B0101406620273047157001USA BPO INC.                                             1602
B0101406620273313299003**********                                               1603
B0101408820333042436001TM TOPS MERCHANDISING                                    1605
B0101408820333364185002DE GUZMAN, ELSA ANASCO                                   1602
B0101402640361024449001COLLEGE OF ST.CATHERINE, QUEZON CITY                     1602
B0101402640361666146001RLCT MULTI-SPECIALTY MEDICAL CLINIC                      1601
B0101412890470077699001SKY HIGH FITNESS GYM                                     1601
B0101405940512041188001PREMIUM WINE EXCHANGE INC.                               1601
B0101403450521011628001*********                                                1605
B0101403450521011672001**********                                               1605
B0101403450521014870004PARAMOUNT LIFE & GENERAL INS. CORP.                      1603
B0101404260611031875001CIPRIANO C. GAGAN CONSTRUCTION                           1601
B0101404260611035419002JK HUMANBOND CORPORATION                                 1602
B0101410720653172138001AUREA C. RUPIDO                                          1601
B0101410720653561759001KNOX.COM CORP.                                           1602
B1301400210682248659001ASIANLAND STRATEGIES CORPORATION                         1605
B1301400340683041966002TPG MANCOM SERVICE COOPERATIVE                           1602
B2801400100712018855002PTT PHILIPPINES TRADING CORP.                            1605
B0101406750852023612001LAS PINAS CITY MEDICAL CENTER, INC.                      1606
B0601400230891023794002MEGA FROST ICE CREAM BAR                                 1601
B0101401830141008916001PRIMARY ELECTRICAL & ELECTRONIC                         11603
B0101401090171007908001PERPETUAL SUCCOR HOSPITAL &                             11605
B0101401090171036158001AIRBORNE MAINTENANCE AND ALLIED                         11602
B1001400350233047356001FASTRUCK HAULERS & GENERAL MERCHANDISE,                 11602
B0101408820333046926001ALAYAN SR., RODRIGO DBU VIVID COLOR                     11603
B0101403320471019960002DIRECT ELECTRIX EQUIPMENT                               11605
B1601400170494047397001FEDERATION OF BACMAN HOST                               11602
B2201400250561291930001JOSUE SENGCO &/OR DIGNA REMOLANA &/OR                   11602
B0101401830141008916001SUPPLY, INC.                                            21600
B0101401090171007908001MATERNITY, INC.                                         21600
B0101401090171036158001SERVICES INC.                                           21600
B1001400350233047356001INC.                                                    21600
B0101408820333046926001DIGITAL IMAGING                                         21600
B0101403320471019960002CORPORATION                                             21600
B1601400170494047397001COMMUNITIES, INC                                        21600
B2201400250561291930001DILIDAN PASION                                          21600
B0101401830141821100608**********                                               2002
B0101401670271821100608**********                                               2005
