F4101400260000000469330DEPANO, ABEL GONZALES                                    2502CKO
F4101400260812443499001JESUS JUAN D. VERSOZA JR.                                2502CKO
F3201400190000001493814CHAN, ALAIN TAN OR CHAN,                                12501CKO
F3201400190000001493814IMELDA BAGAY                                            22500CKO
F3201400190000001493158EMERENCIA JANET XU OR WENJIANG XU DBU                   12602CKO
F0101400730111040071002RALPH ANTHONY REALTY                                    12602CKR
F3201400190000001493158SUYHING MKTG.                                           22600CKO
F0101400730111040071002CORPORATION                                             22600CKR
