A0101411790000000005814MELGAR, CARISSA ANN PANLAQUE                             0501
A0801400160000000009452JESTER FOOD PRODUCTS                                     0505
A0601400360000000025629RAMOS, WARREN DE GUZMAN                                  0501
A0101413020000000056773*************                                            0501
A2601400270000000084171JENNY A. BALAYAN                                         0501
A1301400500000000213323VENTURINA, BLANQUITA VENTURA                             0501
A1001400350000000245372SORIA, ERNESTO DAVIS                                     0501
A0101404840000000352021MOSLARES, MARY GRACE VICTORIA B                          0502
A0101414090000000399399MACTAL, ROSARIO RAYO                                     0501
A0101403320000000452220************                                             0501
A0101404420000000471885ONA, DONATO JAY MENDOZA                                  0501
A0101408790000000579288TAN, HARRIS AEROL YU                                     0502
A0101409050000000601421GO, JOSELITO CAPARA                                      0501
A0101413990000000631850SIASAT, EDITHA SANTOS                                    0502
A1101400120000000652675YU, ANTONIO ALMENARIO                                    0502
A0101403320000000735762LORENZO RENAN E. TORRES                                  0505
A0101401090000000772361CRUZADA, KATHLEEN NGITNGIT                               0501
A0101408820000000840613*******                                                  0501
A0101401670000000843652CHUA, PIERRY PAUL MAGALSO                                0505
A0101412470000000853812VILLENA, MIGUEL ENRICO SORIANO                           0501
A0101409180000000874631COLARTE, ADRIAN MAMING                                   0501
A0901400220000000887943**********                                               0501
A0101401250000000907084REESE, MAJERIE I.                                        0501
A0101407690000000913848CUYA, ROMAN ABELLA                                       0501
A0101403580000000922667RUBY JEANNE BUERE SAYOC                                  0501
A4101400550000000981886SAJOL, ALEJANDRO LAMOSTE                                 0501
A4101400550000000981897SANTIAGO, ETHELBERT HIMONGALA                            0502
A0301400530000001009910PAJO, ARLYN YROY                                         0501
A0301400530000001009910PAJO, ARLYN YROY                                         0505
A0301400530000001009921BERIOSO SR., BERNARD D.                                  0501
A0301400530000001009943PANTUA, JERSON R.                                        0501
A0301400790000001010608LANCIAN, ALICIA LUCASIA                                  0501
A0101400730000001016453HONEY JEAN R. DACLAG                                     0501
A0101405810000001021190REMELINA URSONAL                                         0501
A0101412890000001056400NEPOMUCENO, LUZ GERONIMO                                 0501
A0101412890000001056433VENTAYEN, MILVIE FRANCISCO                               0501
A0101410140000001074533MEMBERS OF NATASHA (SHOECAT INC                          0501
A1401400110000001096208VELUYA, MARICRIS BILEY                                   0502
A0101402480000001099743**********                                               0501
A3101400450000001104101BALDOVINO, LUZVIMINDA OR ROMEO                           0501
A3101400450000001104123BELEN, PERLA ORTIZ                                       0501
A0701400260000001231970ANTONIO, MARITA ANGELES                                  0501
A0101413860000001233761VHEL FRIENDLY TOURS & TRAVEL CO                          0502
A0301400790000001244622ARTIGAS, LARRY TUBALADO                                  0501
A3001400130000001271476JUNASA, BERNADETTE DALAYAN                               0501
A0101407560000001276160SAMSON, RACQUEL DIZON                                    0501
A2001400290000001301211CATUBIG, AIRISH MIRA                                     0501
A0601400520000001349548VALENCIA, HOMER GALANG                                   0501
A0101411820000001356441BUENO, MAIDA DONCIRAS                                    0501
A0101405650000001377351ABAD, NOEL TOLENTINO                                     0501
A0101412760000001399215IGNACIO, LUZVIMINDA DELA CRUZ                            0501
A0101401380000001412628CORNEJA, EMILIO CAMINIO                                  0502
A0101401380000001412639DELA ROSA, CORA GONZAGA                                  0501
A0101401380000001412640AQUINO, CHARITO MENDOZA                                  0501
A0101409920000001539420PADUA, ANTHONY MILLAN                                    0501
A0101409920000001539431ALCANZARIN, EDITHA NEDRUDA                               0501
A0101411240000001563344LIMPIN, MA. LIOBA AYSON                                  0501
A0101402770000001570565GONZAGA, CATHER DBU CSG TILE CE                          0501
A0101404130000001614466POPANES, DOMMYNICA DE CHAVEZ                             0501
A0101404130000001614477APLACADOR, APRIL ANN BONIFACIO                           0501
A2401400180000001676902PANGOLIMA, JAKARIA PANGOLIMA                             0501
A4101400390000001732412PEREA, PAUL JOSEPH VILLAS                                0501
A0201400890000001796201************                                             0501
A0101400860011379561003**********                                               0502
A0101400860011395231001***********                                              0504
A0101400860011398141002**********                                               0505
A0101400860011409220002**********                                               0505
A0101400860011452130001**********                                               0503
A0101400860011479962001**********                                               0502
A0101400860011618820001**********                                               0505
A0101401250021238627001********                                                 0501
A0101401700041047188001**********                                               0502
A0101400150061315349045BETTINA JOY L. SANGA                                     0502
A0101400600071031379001MFT! ENTERPRISES                                         0503
A0101405810072296440002************                                             0503
A0101405810072338552003******                                                   0501
A0101405810072379285001ZHANG, WEN YI                                            0502
A0601400360083777458001PARK, SUNG HYUN                                          0505
A0101400730111278185002ARANDELA, MARY GRACE                                     0501
A0101400730111325179001HILARIO, EDIVINIA SUNGA                                  0501
A0101400730111334903012EMELITA E. BATO                                          0501
A0101400730111377984001LEGASPI, JULIETA CABRAL                                  0502
A0101400730111412858010LOLITA MANALO                                            0503
A0101400730111590599001LIM, ARON LAURETA                                        0501
A0101401960121424117001************                                             0501
A0101401830141416060002BIENVENIDO ALBANIEL MADRID JR.                           0503
A0101401830141752259001CARANDANG, FREDERICK ANGELES                             0503
A0101400440161524842001GILBERT S. ESPINOSA                                      0505
A0301400530193605922002MEDINA A. CAMPOREDONDO                                   0501
A0301400530193686503001CORPUZ, GLENN A.                                         0501
A0301400530193751613001NAVARRO, CARIJON B.                                      0501
A0101401380201184748002GLORIA CHICO OR DANILO CHICO                             0501
A0101401380201493851001ALFECHE, GREGORIA REDOLLA                                0501
A0101401380201554325001MENDOZA, DYAN SUZETTE DE JESUS                           0502
A0101401380201554626001BANGURAN, MYRNA BRINGAS                                  0501
A3101400450223478374004MORENO, JONALYN                                          0501
A1001400190231478374179BACAN, JULIET                                            0501
A1001400350233478374026ANNABEL ESTOMO                                           0501
A0101406620273609466001LANEDA, RICHARD GOLANGCO                                 0502
A2601400270302073683001VICTOR G. DY                                             0502
A0801400160311363414002***********                                              0501
A0801400160311478374008RODELYN LEBUNA                                           0501
A0101405650322086023001CHUA, DEBONNA UY                                         0505
A0101402480331298552011VIOLETA CUARTE                                           0502
A0101402480331478374052FELOMINA, SHIRLEY                                        0501
A0101402480331520766038*********                                                0501
A0101402480331520766042ESTRELLA, JACQUELYN CASTILLO                             0501
A0101402480331520766118SANTIAGO, GLENDA ANNE MAY E.                             0501
A0101402060351217441024VINORNA V. LIM                                           0501
A0101402060351386924002SY, PRISCILLA PINILI                                     0502
A0201400920375503351001**********                                               0502
A0201400890376080642001GALANG, LORLIE PACURIBOT                                 0501
A0101408370382431185001ARNOLD T. SALUD M.D.                                     0503
A0101402770391478374032ELPEDIA C. ABRASALDO                                     0502
A0101408400394605254001*****                                                    0504
A0101408400394662341001MENDOZA III, MARIUS EXEQUIEL                             0502
A2401400180411043222088ROD-MAR MARKETING                                        0502
A2401400180411478374070SANCHEZ, JEANY MARARAC                                   0501
A0901400220432339854001**********                                               0503
A0901400220432429653001**********                                               0502
A0901400220432582218001**********                                               0501
A0101403320471402087001CECILIA L. DIAMANTE                                      0503
A0101403320471478374016SONIA SALANIO                                            0501
A1901400160491034372001FIESTA HOME CENTER (FHC) CORP                            0505
A1901400160491496589001JANELA ANGELI GONZALES PANOPIO                           0501
A1401400110492045844001ST. JOSEPH CHAPEL                                        0502
A1401400110492300971001WILFREDO J. LAVAREZ                                      0503
A0101405940512285942001LEUS, ROMAN OR LEUS, MICHELLE                            0501
A0101403450521238139001**********                                               0503
A0101403450521238278001**********                                               0503
A0101403450521387357001**********                                               0501
A0101404000551408537001PERPETUA, ERICSON MAQUIRANG                              0501
A0101404000551408537001PERPETUA, ERICSON MAQUIRANG                              0501
A0101407720602377521001CLAUDINE RAE L. JAVIER                                   0501
A0101407720602496503007CYNTHIA RAMILO                                           0501
A0101404260611005266001SHAMM PHOTO SUPPLY                                       0504
A0101404260611029604001620 ENTERPRISES                                          0503
A0101404260611151095003SELORIO, ANNA RUTH C.                                    0502
A0101404260611478374115FE S. BONDOC                                             0501
A0101404260611478374136ZENAIDA P. SINGUEO                                       0501
A0101407690652034151001D' ABET JUNK SHOP                                        0502
A0101407690652041716001LEFARIV TRADING                                          0501
A0101406590662211749002ALONZO, LETICIA TUAZON                                   0501
A0101411950680497211001******                                                   0501
A1301400210682247780001AILEEN A. MUNOZ                                          0502
A0101407560686174180001MANUEL S. QUEROL                                         0503
A0101407560686581186001*********                                                0501
A0101404840851046725002MA GERALDINE F. BOCADO                                   0502
A0101404840851520766073ELIZABETH A. SUAZO                                       0501
A0101405650000000013156MUNOZ, ANGELITO B.                                      10501
A0101405650000000448497PACHECO, REMEDIOS VALENZUELA OR                         10501
A0101400440000000596492ESTATE OF MARIA VICTORIA P. DE                          10503
A0101413020000000880353DACPANO, MICHELLE LIM DBU:                              10501
A2601400270000001009050BATTAD, AURELIO DBU AUB CONSULT                         10501
A0101407140000001201909POLINTAN, OMAR CORDERO OR                               10501
A0101410560000001290999MEGHRAJANI, JESUS KRISHNA                               10502
A0101402770000001570667BOLANOS, A DBU A.E BOLANOS                              10501
A0101401700041316267001REYNALDO B. BONGALOS OR                                 10515
A0101400600071330397001PELITO, JACQUELINE OR                                   10503
A0601400100081251941001MARCELINO ALAPAG OR                                     10502
A0101401090171201345002MA. CECILIA OR RAMIL                                    10502
A0101401090171618288001ANDREA MARIE OR JONNIFER                                10501
A0301400530193044799001AJB AUTO GLASS AND                                      10501
A0301400530193597051001BAGA, BEATRIZ B. OR                                     10510
A1001400190231275077001TAN, EDUARDO                                            10502
A0101402060351211701003MA. DOLORES C. DANNUG OR                                10503
A0201400890376633154002JIMENEZ, PETER UTLANG OR                                10503
A0101403320471028478001FILJOY ELECTRICAL AND                                   10501
A0101407690652525001073ELVIRA D. BASA  DEALERS OF                              10503
A0101406590662361882001FLORENTINO &/OR DIVINA LUPE                             10503
A4101400420814480121001FABREAG, DELIA FLORES OR                                10501
A0101405650000000013156OR MUNOZ, AILEEN                                        20500
A0101405650000000448497PACHECO, HERMOGENES                                     20500
A0101400440000000596492LEON                                                    20500
A0101413020000000880353BLOOMRICH ENTERPRISES                                   20500
A2601400270000001009050MGT&ENGINEERING SERVICES                                20500
A0101407140000001201909POLINTAN, MELITA CORDERO                                20500
A0101410560000001290999BULALAQUE                                               20500
A0101402770000001570667ENTERPRISE                                              20500
A0101401700041316267001MARICEL BONGALOS                                        20500
A0101400600071330397001SONGCUAN, EVELYN                                        20500
A0601400100081251941001JASMINDA ALAPAG                                         20500
A0101401090171201345002TIO CUISON                                              20500
A0101401090171618288001MENDOZA                                                 20500
A0301400530193044799001ALLIED SERVICES                                         20500
A0301400530193597051001BAGA, EDWARD T.                                         20500
A1001400190231275077001TAN, LUCIA                                              20500
A0101402060351211701003EDNA S. CABALDE                                         20500
A0201400890376633154002JIMENEZ, MARIA T                                        20500
A0101403320471028478001ELECTRONICS                                             20500
A0101407690652525001073SHOECAT, INC.                                           20500
A0101406590662361882001LAZARO                                                  20500
A4101400420814480121001FABREAG, BOBBY F                                        20500
B0101400730000000002591********                                                 1601
B0201401020000000005045REMITBOX CORPORATION                                     1602
B3101400740000000013889IM DIGITAL PHIL INC.                                     1606
B0101406620000000015005CARPIO & BELLO LAW OFFICES                               1601
B0101406620000000015209SUNPRIME FINANCE INC.                                    1605
B1301400210000000023496JELLI'S GAS STATION                                      1602
B0101408530000000035903INTERNATIONAL SPECIALTY FASHIONS, I                      1601
B0101412500000000041749UNITED DOCTORS MEDICAL CENTER, INC.                      1620
B0101406040000000096662CONCEPT SPECIALIST, INC.                                 1602
B0101406620000000193997TAPSERVICES, INC.                                        1610
B0301400950000000566887CHRISMA TRAVEL AND TOURS, INC.                           1601
B0101408790000000599771TELESYNC TECHNOLOGIES AND SOLUTIONS INC.                 1601
B0101400570000000749515MATTERHORN MOTOR INC.                                    1602
B0501400170000001032186NGO, CHIAO LIN ONG OR NGO, JUANITA COKEE                 1610
B0301400820000001554672TRUMPH MOTORCYCLE CORPORATION                            1601
B0101401700041190338003**********                                               1601
B0101400150061024429001BRONZEOAK PHILIPPINES INC.                               1603
B0101400150061047355001MARSMAN DRYSDALE MEDICAL PRODUCTS,                       1602
B0101400600071045155001*******                                                  1603
B0101400600071516450001TAN, EDNA ANDRES                                         1601
B0101405810072412798001**********                                               1603
B0101405810072412798002**********                                               1603
B0601400100081024665001CLARK PIPELINE & DEPOT COMPANY, INC                      1602
B0601400100081029282001L5 & SONS FINANCING CORP.                                1610
B0101400730111015420002FELANER REALTY DEVELOPMENT CORPORATION                   1605
B0101401830141528703001ALBERTO GABRIEL LORENZO FOUNDATION INC.                  1603
B0301400530193035122088FOUR SEASONS FRUITS CORPORATION                          1612
B3101400450223365119003VICTOR HUGO ENERGY CORPORATION                           1601
B1001400190231274999001CHRIST'S COMMISSION FOUNDATION,                          1610
B0101401670271477778001VIRTUSIO PR INTERNATIONAL, INC.                          1601
B0101406620273021176001MERCURY SYSTEMS CORPORATION                              1601
B0801400160311039833001JMB TRADERS INCORPORATED                                 1601
B0801400160311043928001DELIFRANZ BACKEREI, INC.                                 1602
B0801400160311077458001FUTURETRUST FINANCE CORPORATION                          1605
B0801400160311267059001DULALIA'S INCORPORATED                                   1602
B0101405650322006460001SOUTHGATE SERVICE CENTER, INC.                           1602
B0101405650322043032001LEAN MANAGEMENT AND PEOPLE SOLUTION                      1601
B0101402480331010039001**********                                               1610
B0101402480331010335001PUREFEEDS CORPORATION                                    1610
B0101402480331014595001NAGA HOPE CHRISTIAN SCHOOL, INC.                         1605
B0101402480331014816001**********                                               1601
B0101402480331014827001**********                                               1601
B0101402480331043724001***************                                          1601
B0101402480331047918001***************                                          1605
B0101402480331219739001ROGELIO TAN OR NENITA TAN OR JOCELYN TAN                 1602
B0101402480331224186001**********                                               1602
B0101402480331224252001VELFOX MANUFACTURING CORP.                               1605
B0101402480331433595001**********                                               1603
B0101402060351030802001PACIFIC RESINS INC.                                      1605
B0101402060351035807001SOLEREX WATER TECHNOLOGIES, INC.                         1605
B0101402930381033256001BENMARK GROUP HOLDINGS, INC.                             1603
B0101402930381041450001FOURTH WAVE GLOBAL CONSTRUCTION INC.                     1601
B0101402930381045839001EQUILAND PROPERTY MANAGEMENT (EPMC)                      1603
B0101408790383048137001FLEXCOMM INNOVATIONS INC.                                1602
B0101402770391009317001FIBERTEX CORPORATION                                     1605
B5501400120410042897008MARBEL UNIVERSAL TRADING, INC.                           1603
B0101403320471035758001***                                                      1603
B1901400160491013980001VIC IMPERIAL APPLIANCE CORP.                             1605
B0101404130601018669002QUALITY SHOE CARE PLUS, INC.                             1601
B0101407720602025263001COMPUTERIZED IMAGING INSTITUTE, INC                      1601
B0101412180000000075410ECOLOGY VILLAGE III CONDOMINIUM                         11602
B0101408790000000599760CHILDFUND INTERNATIONAL, USA DBU CHILD                  11606
B0101401830141032221001CARITAS ET LABORA HUMAN RESOURCE SERVICE                11605
B5501400120410044567001RASAY INSURANCE AGENCY AND GENERAL                      11601
B0101412180000000075410CORPORATION                                             21600
B0101408790000000599760FUND PHILS. INC.                                        21600
B0101401830141032221001COOP.                                                   21600
B5501400120410044567001SERVICES                                                21600
