F1901400290261039254003DRA RESTITA M VILLADELGADO                               2502CKO
F0101406590000000905613LA VISTA ASSOCIATION, INC.                               2603CKR
F1901400290261035027001GREEN NATURE FEEDMILLING CORPORATION                     2603CKO
F1901400290261041998001QUALIMEAL FEEDMILLS INC.                                 2602CKR
F0101409890649054788002ARRAYSTECH DIGITAL SYSTEMS INC.                          2605CK1
F01014098906490547890028 SEASONS DEV'T CORP.                                    2605CK1
F0201400180181080425001MR INTERNATIONAL CONTAINER YARD INC                      2701CKC
