F0101401090171195635002ELVIRA OR MARIO MILO                                     2505CKO
F0101408240711382933001TERESA OR FRANCO DEL ROSARIO                             2510CKO
F1301400210682306066002JUANITA D CABRERA OR                                    12501CKO
F1301400210682306066002JAYNIE D CABRERA                                        22500CKO
F0201400180181031734005****************                                         2604CKR
F0301400110191423860118CO, JAMES LUI                                            2602CKR
F0401400140241032659002POWERHOUSE DISTRIBUTORS, INC.                            2602CKR
F0101408400394551947004W OFFICES, INC.                                          2603CKR
F0901400190431038091001PEASE CORPORATION                                        2601CKR
F1301400210682042878002HABITAT TRADING                                          2601CKR
F0301400110191029587008DAVAO EVERFLEX ELECTRICALS &                            12605CKR
F0101404840851027809001INFORMATICS COLLEGE NORTHGATE,                          12605CKR
F0301400110191029587008GLASSWARE                                               22600CKR
F0101404840851027809001INC.                                                    22600CKR
F3101400580000000015658GREENPHILS INC.                                          2702CKC
