A4101400260000000002142TAJANLANGIT, JACKIE C.                                   0501
A4101400260000000002142TAJANLANGIT, JACKIE C.                                   0501
A0901400220000000012299GAYON, MARINA TACHADO                                    0502
A5001400170000000044982URBAN PAINTS & MORE ENTERPRISES                          0502
A1301400760000000050466GIL P. MENDOZA II                                        0503
A0101407690000000053881********                                                 0502
A1301400340000000100363ADINA, ANGELO RAY AURELIO                                0501
A4101400420000000120878TAGLE, ARTURO APITA                                      0501
A0101407690000000154783DIZON, JOLLY DBU STARLIGLHT TRU                          0504
A4101400550000000199348CATEDRILLA, ROLAND CELINO                                0505
A0101407720000000245189ESPENIDA, MARIA CELESTE SANTIAG                          0501
A0101410560000000268353NICODEMUS, MELBA ESCANO                                  0501
A0101403580000000383711**********                                               0502
A0301400790000000435830********                                                 0505
A0301400790000000435994********                                                 0502
A0101407270000000511599DAFFON, VE DBU BOLD WIT PRODUCT                          0501
A0101411820000000589408ARLYNE B. BRANDA                                         0502
A0101409050000000601465BEARSLEY, GRANT ANTHONY                                  0501
A0101406880000000745033NATIVIDAD, HELEN BAYONA                                  0501
A0101410300000000919444MEJIA, MELODY ANNE G.                                    0501
A0501400170000001016755CHUA, JOHN VINCENT ONG                                   0501
A1601400170000001068673CHRISTOPHER DOUGLAS G. GIMENEZ                           0503
A0101410140000001074960GUINTU, ROBERTO BALINGIT                                 0501
A0101405940000001210073AGUSTIN, LAWRENCE FRISCO                                 0501
A0101408530000001268537CRISTOPHER DAMIAN                                        0501
A3001400130000001271790HERMOSADA, JAME DORIA                                    0501
A0101412180000001293283CEDILLA, MIA LYNN REGALADO                               0501
A0201400920000001331851MANSUETO, NEIL ANTHONY DBU BROD                          0501
A0101408110000001364858SALUDO, DESIREE RUALES                                   0501
A0101405650000001377453JOANNE P. FRONDA                                         0502
A1301400340000001415770********                                                 0501
A0601400100000001442808BERNARDO, LILIAN VILLAPANA                               0502
A2401400180000001676913***********                                              0501
A0101400570000001681881PALANCA, MARIA LOURDES YOLANDA                           0501
A0101413570000001682679ARNOLD HAIRDRESSING SYSTEM CO.                           0502
A0101403450000001769673************                                             0501
A4101400260000001783775SHAYNE M. PURIFICACION                                   0501
A0901400220000001804973PEREZ, JINKY MACION                                      0501
A0101407690000001919713CRUZ, JOSEPH CYRIL APILADO                               0501
A0101413310000001928925BUID, GINA GERONIMO                                      0501
A0101408240000002634379BIGORNIA, ALBERT NIELSEN MEDINA                          0501
A0101406590000002634619SORIANO, JERRY SAMSON                                    0501
A0101400860011088429001TALAMISAN, REY AGUIRRE                                   0501
A0101400860011395102002**********                                               0502
A0101400860011649044001FLORENTINO, ROWENA DE LEON                               0501
A0101400860011685244001BANDIOLA, SIDNEY MORALES                                 0501
A0101400860011779757001**********                                               0505
A0101400150061236944046JOHANNA S. HERNANDEZ                                     0502
A0601400100081092671001IFURUNG, NATIVIDAD GO                                    0501
A0601400100081251729003JOSE PAOLO OR MELISSA FELICIANO                          0502
A0601400100081501761001TAN, WINTHEL OR RALPH                                    0501
A0101400730111046434132BORROWERS OF EASYCASH LENDING C                          0501
A0101401830141729443001KAUR, RAMANDEEP                                          0501
A0101400440161029925001VESPER INSURANCE ADJUSTERS                               0502
A0101400440161039572029LORNA A. CERRO                                           0501
A0101400440161190481002HELEN L. LEONG                                           0502
A0101401090171391935001JULIE CHRISTIE G. VISPERAS                               0501
A1001400190231274559001SY, MAN CHAK                                             0501
A1001400190231520766119CABANO, BERNADITH CATIWALAAN                             0501
A1001400350233675969001INESIN, LYDIA TRINIDAD                                   0502
A0101401670271333076001BENJAMIN C. VICENTE                                      0501
A0101400570281706972001**********                                               0501
A0101400570281795709001GREGORIO DE JESUS DARCA                                  0501
A2001400290315673185001TAHIR, SAMSODIN TOMAWIS                                  0501
A0101405650322412858006CABUNTOG, GINA B.                                        0501
A0101408820333478374048DENNY C. GAVIOLA                                         0502
A0101409050352784110001ANA MELODIE F. MANACOP                                   0501
A0101402640361168540001REYNALDO OR AMANDA AQUINO                                0501
A0101402640361443741001**********                                               0502
A0201400920375609447001RAMIRO, MARIA ARCELI AVANZADO                            0502
A0101408370382436793001DR. ESTHER FREDELYN M. TOMAS                             0501
A5501400120410670077001DOMINGO, SOLOMON SAPONGAY                                0502
A5501400120410675739001BAYLON, EDWIN ELLON                                      0501
A2401400180411290049001EDGAR C. FAUNI                                           0501
A2401400180411338845004PERALES, ROBERTO TAN         JT                          0505
A2401400180411587639001GILBERO, EVELYN BUT-AY                                   0501
A2401400180411625023001PROVIDO, JULIET MAHINAY                                  0501
A0901400220432708709001MAHILUM, CATHERINE RIZALDE                               0501
A0101403030441029489001**********                                               0506
A0101403030441239184001DARWIN NG                                                0501
A0101403320471478374054MERLITA CRUZ                                             0502
A0101410140475738965001GERERO, MARITES LANGUITA                                 0505
A3801400170490761000001NENITA R BERNARDO                                        0501
A0101403580511291930002JOSUE IGNACIO SENGCO                                     0501
A0101403580511420184003MARIA CAROLINA S. MACASAET                               0520
A0101406880513043932003MDMA TRADING                                             0502
A0101407720602396823001DR. RAQUEL M. ALVAREZ                                    0502
A0101407720602397567001EGAY, LYDIA MORALES                                      0501
A0101407720602399462001ESTRADA, RAMON SANTOS                                    0501
A0101404260611478374085ROSALINA SUMILE                                          0501
A0101404260611478374114LUDIVINA DE PAZ                                          0502
A0101404260611607631001RECANA, MA. CARMELA SANTOS                               0501
A0101404420631478374114CORAZON R. ALMOSURA                                      0501
A0101407690652607526001JAVINES, JUDITH NASAYAO                                  0501
A0101408240711785513001STRACHAN, JAMES JIMENEZ                                  0501
A2801400100712375669002SEVA, MA. JESUSA SANTOS                                  0510
A2801400100712430047001LEE, JAMES TAN                                           0502
A4101400260812478374031ANGELINA P. TAN                                          0501
A4101400550815636970001RAMIREZ, CYNTHIA TAN                                     0502
A0101404840851217637001MARCELITO A. CONCEPCION                                  0501
A0101404840851542980001MASANGCAY, NORA VERCELES                                 0501
A0101404840851744044001CREUS, TERESITA CUETO                                    0501
A0101406750852006838002***************                                          0501
A0201400920000000048188ALTIN TRADING & CONVENIENCE                             10501
A1301400340000000293601LUGTU, ARNULFO SOBANGEE DBU                             10501
A0101407690000000913826LEA MARIE MORALES OR MILA DE                            10501
A0101405070000001124350DESCALZO, MARIA KHARIN H. OR                            10501
A4101400390000001732714GIGANTO, NENITA DBU NDG DRY                             10501
A0101413310000001928936CABANSAG, ARMEL CABANATAN DBU                           10501
A0101401830141205769001JOSEFINA V. VALMOCENA OR                                10506
A0101407270162086863001HALPERN, HIPOLITA OR HALPERN,                           10501
A5501400120410672807001SABLON, NELLY D. OR FRANCIS                             10505
A1201400150421039385001JL'S CLEAN UP JANITORIAL &                              10502
A0101407720602298846008LAMBERTO U. OCAMPO OR                                   10501
A0101407690652207573001GORRA, MARILYN NOVAL OR                                 10503
A0101406590662045751001S.P.A. SCHOOL OF PERFORMING                             10502
A0101407560686289843001EMETERIA HIJOSA OR RONALDO                              10501
A0101407560686495878001HSIEH, YAO YI OR                                        10501
A0201400920000000048188STORE                                                   20500
A1301400340000000293601ARDO BUILDERS                                           20500
A0101407690000000913826JESUS OR JOSE MA AUGUSTO                                20500
A0101405070000001124350DESCALZO, LUZVIMINDA H.                                 20500
A4101400390000001732714GOODS STOR                                              20500
A0101413310000001928936AVIATOURS TRAVEL SERVICES                               20500
A0101401830141205769001NANCY S. VALMOCENA                                      20500
A0101407270162086863001DARYL JEFFERY                                           20500
A5501400120410672807001NEIL                                                    20500
A1201400150421039385001MANPOWER SERVICE                                        20500
A0101407720602298846008ANNABELLE SARMIENTO                                     20500
A0101407690652207573001KRISTINA GORRA D                                        20500
A0101406590662045751001ARTS                                                    20500
A0101407560686289843001HIJOSA OR CELIA                                         20500
A0101407560686495878001HSIEH, TE YUAN L                                        20500
B0201400920000000007930SERMINCA FURNITURE INDUSTRIES, INC.                      1603
B0101411530000000013630THE BODY SPA AND WAXING LOUNGE CORP                      1601
B1001400350000000017103M. MONTESCLAROS ENTERPRISES, INC.                        1602
B0101411080000000026348DOXO INGREDIENTS INC.                                    1604
B0101405070000000028891TAKUMI RESTAURANT CORPORATION                            1601
B0101405070000000028908STAR LADY RESTAURANT AND CLUB INC.                       1602
B0101405070000000028920KANIL RESTAURANT AND BAR INC.                            1601
B1001400190000000124810GOCHUICO, PETER LIM                                      1602
B0101413990000000206099DELUNA BROTHERS CONSTRUCTION CORPORATION                 1602
B0101407690000000243832IDESCO CONSTRUCTION AND DEVELOPMENT CORP                 1602
B0101404000000000461016S.C. MEGA WORLD-PHILAB JOINT VENTUR                      1610
B0101411660000000751520PHARMASTAR INT'L TRADING CORP.                           1603
B0101405650000000772721PREMIERE COMMUNITY PARTNERS, INC.                        1605
B0101406590000000905522FHREG SENTRI CORP.                                       1602
B1001400190000001057669HEXAGONTECH AUTOMATION, INC.                             1602
B0101413440000001085650GLORIOUS SUN AGRICULTURAL & DEVELOPMENT                  1601
B0101413310000001928823GEO MEDICAL CONTACT LENS INC.                            1602
B0101400860011023116001**********                                               1601
B0101401250021016688001ST. MARY'S ACADEMY-PASAY CITY, INC.                      1604
B0101407270162019083001FOOD SERIES INC.                                         1605
B0101401670271389719001PHILREM SERVICE CORP.                                    1605
B6601400120314617698001CATARMAN DOCTORS HOSPITAL, INC.                          1603
B0101405650322024999001SUPERIOR MAINTENANCE SERVICES, INC.                      1630
B0101408820333041843001SERVICTORY CO. LTD.                                      1601
B0101402640361006178001STANDARD PLASTICS CORP.                                  1602
B2401400180411033012001RUGELA FISHING INDUSTRIES INC                            1605
B2401400180411038345001PHILFRESH CORPORATION                                    1603
B1201400150421030320001NORTH LUZON TRUCKING FORWARDERS CORP.                    1605
B0101403320471024815001GOLDRICH FOODS CORPORATION                               1603
B0501400170481256535001NORTHERN LUZON MARITIME TRAINING                         1601
B0501400170481398688001**********                                               1601
B1901400160491020630001BATANGAS MEDICAL SOCIETY                                 1601
B0101403580511005400001IA CAMPBELL & ASSOCIATES INC                             1606
B0101408530516035451001DAVE-LOUIE ENTERPRISES                                   1601
B0101403450521011655001**********                                               1605
B0101403450521011748001**********                                               1605
B0101403450521239197001**********                                               1605
B0101407690652096491001JAMES A. CABANERO OR NIDA P. CABANERO                    1601
B0101406590662037667001XANFIRST REALTY CORPORATION                              1601
B0101407560686009918001ACQUISITIONS INDUSTRIAL CORP.                            1602
B0101408240711028981002HAIR RECONSTRUCTION DEVICES, INC.                        1601
B4101400390813036410001THE BOAT SHOP CORPORATION                                1603
B0101405070861019855004BLUE MAGIC, INC.- MALL OF ASIA                           1601
B0101405070861031615001MD EXPRESS MANILA, INC.                                  1610
B0101405070000000028919GRAND YOKO BAR AND RESTAURANT                           11601
B0101410300000000191586MEJIA, MELODY ANNE DBU MEE NOODLE BAR &                 11602
B0101401830141026671001BRIGGS CONSTRUCTION AND GENERAL SERVICES                11603
B0101409050352009648001CHRIST'S COMMISSION FOUNDATION, INC.                    11601
B0101405070000000028919INCORPORATED                                            21600
B0101410300000000191586RESTAURANT                                              21600
B0101401830141026671001COMPANY                                                 21600
B0101409050352009648001(EASTWOOD)                                              21600
B0101405780212821100608**********                                               2003
