A6601400120000000060493ABELA, LEONITA MIJARES                                   0501
A0101404130000000165104SANTOS, MARJORIE GAY DIAMANTE                            0501
A0101413440000000183771AMBAS, ARVEE CALLOS                                      0501
A0101406620000000193760DIAZ, FRANCIS PATRICK TAYENGCO                           0501
A0101405650000000448522ZAMORA, ENRICO RAMIREZ                                   0501
A0101400150000000525422ORDIZ, ARLENE CASTILLO                                   0501
A0101413990000000631872MONREAL, ESTELITA GUINTO                                 0501
A4101400390000000745302TEROME P. NABLO                                          0501
A0101410850000000778827MABOLO ENTERPRISES                                       0502
A0101408820000000840631MADANGUIT, GERARDO BAS                                   0501
A0101411370000000903553CASEL, LILIBETH DE BELEN                                 0502
A0101401250000000907277PATINIO, CHERRY ROJALES                                  0501
A0101408400000000960390SHARIEF, NORHANNAH PALAO                                 0501
A6601400120000001065281ECHALUCE, RAFAEL OR MYRNA                                0503
A16014001700000010689460000-001068-946                                          0501
A6601400120000001370503SAYDE, JENNY ANN CAPARIC                                 0501
A0101405650000001377442MARY ANGELAINE J. LIBANAN                                0510
A0101409210000001501546FLORIDO III, MARCELO CADUNGOG                            0501
A4101400390000001732849DELA CRUZ, HAYDEE LLAMADO                                0501
A0101413310000001928969ABARRERA, SIGRID VILLARINO                               0501
A0101400440000002034771GALICIA, JEFFERSON RAPIZ                                 0501
A0101406750000002040260TOLENTINO, ROSALINA SABATER                              0501
A0101405490000002253072JOSE MARI Y. BERNARDO                                    0501
A0101400150000002902412PEDRO, MAEBELLE ESTRADA                                  0501
A0101401700041571276001********                                                 0502
A0101411080042289624001************                                             0510
A0101400150061230657001TITOLAIDO E. PAYONGAYONG                                 0501
A0101400150061720595186MERCY G. GAMBOA                                          0503
A0101400600071233721001**********                                               0502
A0101400600071233725001**********                                               0505
A0101400600071478374003JALIQUE, GENARA                                          0502
A0101405810072234816001CORAZON L. MACATUNO                                      0503
A0101405810072234892001**********                                               0502
A0101405810072383395001**********                                               0501
A0101405810072449066001WANG, WENLI                                              0505
A0101400440161039572092JOSEFINA R. JONES                                        0501
A0101407270162081565001EDUARD P. VELASCO                                        0502
A0101407270162333006027EXCELLA Y. DAGGAO                                        0502
A0101407270162543936001MAREBELLA D. MEDINA                                      0501
A0101401090171322573001DR. PORSHIA COMES-NATIVIDAD                              0501
A0101407140213190904005TENEDERO, ALBERTO C.                                     0505
A0101407140213429359002**********                                               0505
A3001400130230478374004BALABA, JANETH BORJA                                     0501
A3001400130230478374023CHAVIT, SHEKINAH MAE CANETE                              0501
A3001400130230767566014GAMBE, ERIK C.                                           0502
A1001400190231276493001MERCADAL, ERNIE FLORESCA                                 0505
A1001400190231520766123JACOBE, IRENE DAPIROC                                    0501
A1301400470252518432001**********                                               0510
A1901400290261298552105AIDA NABOS REYES                                         0501
A1901400290261298552151JEFFER JOHN ESTEBAN MONTEALTO                            0501
A1901400290261390520001JOEL PUNZALAN DIMAANO                                    0502
A1901400290261488341186DR. ANSBERT SALINDONG CO                                 0501
A1901400290261717650001MYLENE SUBIA SILVA                                       0501
A0101406460272517619001SAMILEY, CAROLINA OLIVEROS                               0501
A0101406620273380453001**********                                               0501
A0101411820277792428002YAP, JOHN MILTON EMBILE                                  0501
A0101400570281187717001CELIA A. ZAMORA                                          0501
A0101405650322047677001THE J. BIJE'S WINDOW SHOP                                0504
A0101405650322170748001ADLAWAN, JOSEFINA U.                                     0501
A0101405650322677389001FERRER, DANILO LIQUETE                                   0501
A0101402510341196700001GO, MILDRED BAYOTAS                                      0501
A0201400890376513355001REYNES JR., AUGUSTO DAHAB                                0501
A2401400180411514423001DEALA, BERNARDITA GATCHALIAN                             0502
A1201400150421606494001CALDERON, LORRAINE CHUIDIAN                              0503
A1201400150421776673001CORREOS, GEROME DUA                                      0503
A0101403030441239409001**********                                               0502
A0101403320471478374061ROSEMARIE O. HONRADA                                     0501
A0101406330472031375001DAI-LIN MARKETING & SERVICE CO.                          0502
A0101406330472213329001EVANGELINE G. REAL                                       0503
A0101407430503338970001LEOPOLDO M. LACBO                                        0502
A0101406880513746030001ZAPANTA, VICTOR QUIAMBAO                                 0501
A0101408110515333228001BAGASIN, ABRAHAM BLANCAFLOR                              0503
A0101403450521241204001**********                                               0502
A0101403610531044036001REVLINE ELITE AUTOWORKS                                  0502
A0101403610531792048001MORDIDO, IRMA GAMBA                                      0502
A2201400250561309166001LENILIZA TANAMAL BUEN                                    0502
A0101407720602342044001DR. DARWIN ALBERT DASIG                                  0501
A0101407560686035938001JERDAN AUTO SUPPLY                                       0504
A0101407560686380632001ENRICO M. DE GUCENA                                      0502
A0101408240711226051002CHAN, ALFREDO OR CHAN, CEFERINA                          0502
A0101408240711478374019ESTUYE, GILDA PLACIDES                                   0505
A4101400260812332370002SIN, SUNG CHUL                                           0510
A4101400420814478374044BERATIO, MARITES M.                                      0501
A4101400420814520766012SUSAN B. MALBOG                                          0501
A4101400420814520766140LUCANAS, BLENDA BILAOS                                   0502
A0101404840851520766179CORAZON GUPIT                                            0502
A0101406750852710112001TAN, ELIZABETH BORROMEO                                  0501
A0101410690000000001758IGNACIO, JONATHAN DBU JCJ                               10502
A0101406330000000011729GILBERT MILANA DBU GLOBE                                10505
A0601400230000000045161PANGANIBAN, ARLENE ALBERTO                              10504
A0101402510000001025983ROSITA/MARIE STELLA NAVARRO/                            10501
A4101400260000001198610RAPISTA, JOHNNY A. OR                                   10503
A0101406330000001235318NAVARRO, LEAH TAGACA OR                                 10501
A3001400130000001271312SHAPE & WELL NUTRITIONAL                                10501
A0101405650000001912038SAYSON, JESUS DOMINGO ROSAL  OR                         10502
A0301400820000002271989DE LUNA, RAMELITO A.                                    10503
A0101401250021183904001EDNA G. QUINSAY OR                                      10502
A0101401960121238667001MARCELO PASCUAL OR                                      10506
A0101401090171196128001DRS. ROLANDO CABATU OR                                  10502
A3001400130230767566087EMPLOYEES OF SANTOS CLINIC, INC                         10502
A0101401670271186233001ASTEYA OR DOMINGO                                       10502
A0101402770391391513001CORTEZ, MANIYA MENDOZA OR                               10502
A0101406330472481679001MA. CRISTINA LOPEZ OR                                   10501
A1901400160491244619001ALEJANDRO F UY OR                                       10502
A0101407430503370564001DAVILENE A. BARELLANO OR                                10501
A0101406880513560905001DEMETRIO Q. QUADRA III OR                               10502
A0101408530516774975001RELOZA, VICENTE ANTONIO A. OR                           10501
A0101403610531355089001MACASAET, DOMINGA YAMBAO                                10501
A0101410690000000001758MANAGEMENT SERVICES                                     20500
A0101406330000000011729MARITIME TRAINING CENTER                                20500
A0601400230000000045161OR PANGANIBAN JE                                        20500
A0101402510000001025983MARIO POTENCIANO                                        20500
A4101400260000001198610RAPISTA, PROCENTIZA                                     20500
A0101406330000001235318SALANDRON, GEMMA DEMOL                                  20500
A3001400130000001271312PRODUCTS                                                20500
A0101405650000001912038SAYSON, MICHELLE D.                                     20500
A0301400820000002271989OR DE LUNA, JANILEE P.                                  20500
A0101401250021183904001ANTONIO E. QUINSAY                                      20500
A0101401960121238667001MERCEDES PASCUAL                                        20500
A0101401090171196128001MARCELLA RUIZ-CABATU                                    20500
A3001400130230767566087ORLAN CHAN JR.                                          20500
A0101401670271186233001OR ABIGAIL SANTIAGO                                     20500
A0101402770391391513001CORTEZ, ULYSSES CHUA                                    20500
A0101406330472481679001ROGELIO LOPEZ                                           20500
A1901400160491244619001APOLONIA AGNES B UY                                     20500
A0101407430503370564001MA. SOTERA P. HERNANDEZ                                 20500
A0101406880513560905001MARIA LEZYLDA V                                         20500
A0101408530516774975001RELOZA, MA. VERO                                        20500
A0101403610531355089001MACASAET, LOPE M                                        20500
B0201401020000000005045REMITBOX CORPORATION                                     1602
B1301400470000000009561FUND LINK CREDIT & LOANS, INC.                           1602
B0101400150000000052855SOLID MILLS CONDOMINIUM CORP.                            1602
B0101400150000000052902228 ORTIGAS AVENUE CONDOMINIUM CORP                      1602
B0101408660000000373164COMIDA CALLE, INC.                                       1603
B0101411110000001037085TW KONSTRUCTION INC.                                     1602
B0101400150061010613001SECURITY BANK EMPLOYEES UNION                            1601
B0101405810072030630001***************                                          1603
B0601400100081038110001QUANTA PAPER MARKETING INC.                              1605
B0601400100081791191001TOTAL HYGIENICARE INC.                                   1605
B0101401960121238876001**********                                               1602
B0101407140213024243001ACT ELECTRONIC CENTER                                    1610
B1901400290261027293002LIPA MEDICS INC.                                         1610
B1901400290261038035001LMI GROUP FOOD CO. LTD.                                  1602
B0101401670271029786001AGUIRRE & AGUIRRE LAW FIRM                               1602
B0101406460272021381001CAMFEL HOLDINGS PHILIPPINES,INC.                         1601
B0101406620273034224002JDS CONSTRUCTION PHILS., INC.                            1601
B0101411110276088895088TW KONSTRUCTION INC.                                     1602
B0501400200292036584002SSS EXPRESS CREDIT, INC.                                 1603
B2001400290315044204001ACEBANK CREDIT, INC.                                     1601
B0101405650322172336001RCBP-OUR LADY OF GRACE PARISH                            1601
B0101402510341008565001SAN BEDA COLLEGE                                         1620
B2401400180411017908001LWC CYCLE MART, INC.                                     1602
B0101403030441314128003**********                                               1601
B0101403320471009122001ELDRICH FOODS CORPORATION                                1603
B01014063304720209890011 TO 1 MARKETING INC.                                    1605
B0501400170481398688001**********                                               1601
B1901400160491030520001VETS IN THE CITY VETERINARY CLINIC                       1601
B1301400340683398713001***********                                              1601
B2801400100712036235001MS-JC INT'L. LOGISTICS INC.                              1602
B3001400130000001261250BAUTISTA III, ISIDORO TRANI OR BAUTISTA                 11601
B0101406750852687321002NAVARRETE, JERRY MIRANDA &                              11603
B3001400130000001261250CHYRL TAN                                               21600
B0101406750852687321002COLOMA, FRANCES                                         21600
