F0101400150061361421001J. C. ALABANZA                                           2502CKO
F1901400160491043709013EDRALIN M VIDAL                                          2504CKO
F1501400140291027914002FL MEMORIAL PARKS, INC.                                  2604CKO
F4101400260812033409003NEW DASMA GOLD BAKE INC.                                 2601CKO
F0101400570000000749491SILANGAN FOUNDATION FOR ART, CULTURE                    12610CKO
F0101407690652034386001THE COLUMBIA GARDEN RESIDENTS                           12601CKR
F0101400570000000749491AND ECOLOGY INC                                         22600CKO
F0101407690652034386001ASSOCIATION, INC                                        22600CKR
F0201400180181055168168*************                                            2701CKC
