A3101400740000000013867ROBLES, ROSALINDA BASE                                   0501
A1001400190000000016333LUCAS, MERIAM                                            0501
A0201400890000000028048ENGRACIAL, JEFFREY GLORIA                                0501
A0101406620000000044022LIM HEYA, SARY SHUET                                     0501
A0101406620000000044044GO, BE BE                                                0502
A1301400760000000050693MARLON P. MALLARI                                        0501
A0201401020000000056175HAOSEN, RICHARD LABITA                                   0501
A0201401020000000056211FORTUNE GLOBAL WORK SOLUTIONS                            0503
A0101413990000000206033MARITES R. CONANAN                                       0501
A0101413990000000206033MARITES R. CONANAN                                       0501
A0101408370000000336138SOLOMON, ANA LIZA SOTELO                                 0501
A0101402350000000443230MANAHAN, FELICITAS BULAMBOT                              0501
A0101405490000000444524MARY ANN REYES CASTRO                                    0501
A0101405490000000444535MERLINDA ARCENO BERIA                                    0501
A0101405490000000444546CAROLINA DERECHO RAMIREZ                                 0501
A0101405490000000444557LEO ERAYA PIANGCO                                        0501
A4101400260000000469329FALCUTILA, MARISSA RAMOS                                 0501
A0101402350000000521311RAVEN W. VILLANUEVA                                      0502
A0101407720000000713080BURGOS, ANA MARIE MADAMBA                                0503
A0101402930000000859714LAGURA, MAIRA MARIANO                                    0501
A0901400220000000887976**********                                               0501
A0101411370000000903531NOPAL, MARINETTE SANCHEZ                                 0501
A0101409050000000999653PARUNGAO, RAFAEL ADVINCULA                               0501
A0301400790000001010591BARCELO, JENNIFER LANUTAN                                0501
A0101412340000001017521JIMENEZ, JANICE BANGUILAN                                0501
A0101411240000001026851MARQUEZ, YOLLY MONTESA                                   0501
A0101413310000001073756KU, FERNANDO YU                                          0501
A0101405940000001209949LIM IT, BILLY SEE                                        0501
A0101412210000001236220ABARICO, MAYLEEN CIRIACO                                 0501
A0101411400000001280320RBSS PROJECT MANAGMENT SERVICES                          0503
A0101412180000001293192DICHE, ANNA LORELA PIZARRO                               0501
A0101409210000001294366MACAPAGAL, DONNA MARZAN                                  0501
A1301400760000001295358JONALYN F. ALVAREZ                                       0501
A2001400290000001301277PAPASIN, JURRY MANGUILIMUTAN                             0501
A2001400290000001301288TRINIDAD, IMEE JAIBE BATAYO                              0501
A1901400290000001362896JAMES HEINRICH TIO TIU                                   0501
A1901400290000001362943HELEN SUSTITUIDO CONSTAN                                 0501
A1901400290000001363020ANSELMO LOPEZ MACALINDONG                                0505
A0101400440000001439874ABAL, JASON REY ALEJAGA                                  0501
A0101402350000001474222MARIO DOMINGO Q. LOSA                                    0501
A0101402350000001474233FAST LINE ENTERPRISES                                    0501
A0101402350000001474244CABIAO, JASON PANAL                                      0501
A0101409920000001539471DANAO, MARIA MILA ALVARADO                               0501
A0101407270000001596796CESAR MORENO                                             0501
A0101408400000001614740SAAVEDRA, ALICIA AGUSTIN                                 0501
A0101408400000001614751ANGLON, JIMMY LANGURAYAN                                 0501
A0101403320000001646642TAGANNA, RHONALYN MORALES                                0501
A0101403320000001646675LORENZO, MARY ANNE RONDA                                 0501
A0101400150061227440001ERIC L. MONTANDON                                        0502
A0101400150061315349055DENNIS JOY EJERCITO                                      0501
A0601400360083082854001*********                                                0502
A0101407270162086660001******                                                   0503
A0101407270162478374001JOCELYN S. ESTRADA                                       0501
A3101400740224043543001HAPPY FABRIC LAUNDRY SERVICES                            0502
A1001400190231478374146DIGANG, ADELFA                                           0501
A1301400470252430515002**********                                               0501
A1901400290261250069001DRA JABES B CARRASCOSO                                   0505
A1901400290261411419001TERESITA DIMAILIG PERCE                                  0502
A1901400290261488341075HELEN B DY                                               0502
A6601400120314041602001LEXTAN GENERAL MERCHANDISE                               0502
A6601400120314625677001ORSOLINO, JOY SURIO                                      0501
A6601400120314630541002LIAD, ROSIE ORTIZ                                        0502
A0101402350321406149003********                                                 0502
A0101402350321416175001MORILLO, ZENAIDA MACASAYA                                0502
A0101402350321478374050JESUSA G. CAYLAN                                         0501
A0101402350321478374054ALEGERE S. TAPAO                                         0502
A0101402350321498650001********                                                 0501
A0101402350321699706001DE LARA, JAY GALLARDO                                    0501
A0101402770391034936001LOGPRO EXPRESS, INC.                                     0502
A0101405490392334377001ARMIN J. SY                                              0506
A2401400180411592060001BABASA, STEPHEN JOY RIVERA                               0503
A0101403030441029489001**********                                               0503
A0501400170481714241001CRUZ III, ALFREDO VINCE CRUZ                             0501
A0101403450521567563001********                                                 0502
A0101404000551150500002SAMIA, RYAN                                              0502
A0101404000551489983001DE LEON, JOCELYN FOO                                     0502
A2201400250561747251001*****                                                    0501
A0101404680651520766157LUZVIMINDA P. ALAGADMO                                   0501
A0101406590662419004001CASAS, CATALINO ASIS                                     0505
A1301400340683766769001BASCARA, ARNEL GONZALES                                  0502
A1301400500684603981001MENDOZA, FRANCIS SEBASTIAN                               0501
A0101407560686478374004CRISELDA GROSPE                                          0502
A1701400230693635864001SORIANO, JOSE JOEY QUINTO                                0502
A0101408240711580663001ASTILLO, ISABEL FULLANTE                                 0501
A0101408240711643338001ARCAYA, MICHELLE GRASPARIL                               0501
A0101406750852478374096MARILOU M TERANA                                         0501
A0101410690000000001758IGNACIO, JONATHAN DBU JCJ                               10502
A3801400170000000955120DANTE A ALBUERA DBU                                     10501
A0101412340000001017565TABUCO, JOHN ROGER N. OR                                10501
A0101400570000001681701ABNER C. HERNANDEZ OR                                   10501
A3101400870000001712123ADRALES, NOEMI ACEBEDO OR                               10501
A0101400150061360113002MA. CRISTINA LIMJUCO OR                                 10501
A1901400290261244409001ESPERANZA PAZ M LEYEZA OR                               10502
A0101406620273280285001PELAGIO / ROSARIO / REBECCA /                           10501
A0101400570281021967001CHANGING DIGITAL IMAGING                                10501
A0101402350321319273002VALDEZ, MIGUELA DOLOR OR                                10501
A0101408400394420990001CRISTOBAL, ROMEO PILLAS OR                              10501
A2401400180411038015001GENSAN ULTIMATE AUTO SUPPLY                             10510
A2401400180411577534001LASOLA, EDITHA RIVERAL OR                               10502
A3801400170490756116001ALEXANDER E ROJAS OR                                    10501
A0101404000551150313004DE LEON, CARLOS OR DE LEON,                             10503
A0101410690600046558001RANDXELL'S DIGITAL PRINTING &                           10502
A0101406590662296475001RAMOS, MA. JESUSA FERNANDEZ OR                          10502
A0101406590662434303001CLEMENTE, RUIZA M. OR JOSE E.                           10503
A1301400500684635536001JOSELYN D SANTOS OR                                     10501
A4101400420814418225001LOPEZ, ROSALINA OR                                      10502
A0101406750852774013001MARK JEROME SAQUING OR MARY ANN                         10501
A0101410690000000001758MANAGEMENT SERVICES                                     20500
A3801400170000000955120D.A. ALBUERA ENTERPRISES                                20500
A0101412340000001017565TABUCO, JANE FRANCES M.                                 20500
A0101400570000001681701LETICIA N. HERNANDEZ                                    20500
A3101400870000001712123VILLANUEVA, JUVER B                                     20500
A0101400150061360113002ROBERTO LIMJUCO                                         20500
A1901400290261244409001JUAN GUALBERTO M LEYEZA                                 20500
A0101406620273280285001RAFAEL / ROWENA                                         20500
A0101400570281021967001GRAPHIC                                                 20500
A0101402350321319273002VALDEZ, REDENCIO                                        20500
A0101408400394420990001CRISTOBAL, NELLI                                        20500
A2401400180411038015001& HARDWARE, INC.                                        20500
A2401400180411577534001LASOLA, ROGELIO                                         20500
A3801400170490756116001JULIET A ROJAS                                          20500
A0101404000551150313004ROSIE OR DIZON, RAQUEL                                  20500
A0101410690600046558001PHOTOCOPY CENTER                                        20500
A0101406590662296475001RAMOS, JOSE FRANCISCO                                   20500
A0101406590662434303001OR RAYMUNDO, MA. RACHEL                                 20500
A1301400500684635536001EDGAR D VILLAR JR.                                      20500
A4101400420814418225001LOPEZ JR., RODRIGO                                      20500
A0101406750852774013001SAQUING                                                 20500
B0201400920000000007923AVANT TEACH INTERNATIONAL CORP.                          1602
B3101400740000000013936EXELPACK CORPORATION                                     1610
B3101400740000000013947KU, KUO JEN AND KARUNUNGAN, AURORA T.                    1601
B0101406620000000015243SAMPO UNLIMITED SOLUTION INC.                            1601
B1601400170000000036171LEGASPI HOPE CHRISTIAN SCHOOL, INC.                      1605
B0101413310000000040035DIAMOND PACKAGING INDUSTRIAL CORPOR                      1603
B0201401020000000042300CLS PROPERTIES INC.                                      1601
B0101400150000000633130HOLCIM PHILIPPINES BUSINESS SERVICE                      1603
B0101408240000000832633A & V MALITLIT DEVELOPMENT CORPORATION                   1601
B0101413860000001767815CWI WAREHOUSING & LOGISTICS CORPORA                      1601
B0101401250021013681001P.J. LHUILLIER, INC.                                     1605
B0101400150061047005001BUREAUSERV GLOBAL INC.                                   1602
B0601400100081043401001ANDREI AUTO GLASS AND ALUMINUM                           1602
B0101401960121238699002SO, PONCIANO CHUA                JT                      1601
B3101400160221033214001RD CASH PADALA, INC. AREA 02                             1603
B3101400450223037708001RD CASH PADALA, INC.                                     1603
B1901400290261033214002RD CASH PADALA, INC.                                     1603
B1901400290261033408001FEEDS EDITION DISTRIBUTION SYSTEMS INC.                  1610
B0101406620273047044001CAYLUM TRADING INSTITUTE INC.                            1605
B1101400120313036495001MANCERA STORE & HARDWARE SUPPLY INC                      1620
B1101400120313038526001LEYTE LUMBER YARD & HARDWARE CO.INC                      1604
B0101408820333034334001PINTAKASI TRANSPORT INC.                                 1602
B0201400920375792681001TOTAL SHIELD SECURITY SPECIALISTS                        1601
B0101402770391046279001LEGACY RENOVE INC.                                       1610
B0101409180397024348001APPLESEED MONTESSORI INCORPORATED                        1601
B0101409180397670520001CASAEUROPA INC.                                          1603
B1401400110492036888008CHRIS MARR MARKETING, INC                                1606
B0101407720602026691001CAJ GENERAL MERCHANDISE                                  1602
B0101406590662023341005PAMAHAY DEVELOPMENT CORPORATION                          1603
B0101408240711038557001THE BRIDGE SCHOOL, INC.                                  1605
B4101400550000000900003BINAKAYAN HOSPITAL AND MEDICAL                          11601
B1001400350233275660001ORO TEACHERS & EMPLOYEES CREDIT                         11601
B1101400120313038332001JUNIOR CHAMBER INTERNATIONAL-CANDAHUG                   11601
B0101402350321006984001INTEGRATED HYDRO-PNEUMATIC                              11610
B0101402510341008473001CENTRO ESCOLAR UNIVERSITY EDUCATIONAL                   11602
B0201400920375038756001ROYAL PARATROOPERS INVESTIGATION AND                    11601
B0101404420631702579001ROSITA B. SAMONTE OR                                    11601
B4101400550000000900003CENTER, INC.                                            21600
B1001400350233275660001COOPERATIVE                                             21600
B1101400120313038332001LIBERATION, INC.                                        21600
B0101402350321006984001SYSTEMS INC.                                            21600
B0101402510341008473001FOUNDATION, INC.                                        21600
B0201400920375038756001SECURITY AGENCY                                         21600
B0101404420631702579001RENATO J. TAYAM                                         21600
