A0101404840000000004097GHIE M. ROMERO                                           0501
A2801400100000000004731ESCOTO, JESUSA DALIT                                     0502
A1101400120000000010646TAN, ENRIQUITA SERVANDO                                  0502
A0101410980000000012493EMERSON T SO                                             0504
A0101410560000000020195LELIANE D. TORRES                                        0503
A0101409920000000022066DAVIS, JONALYN ARGUILLES                                 0501
A0101410720000000029843PILONGO JR., DOMINADOR ALFONSO                           0501
A0101413310000000039956GERARDINE P. VILLAPANO                                   0502
A0101407720000000051203SOMERA, LEOMER AQUINO                                    0501
A0101408660000000059841SANOY, MEDINA PLAZA                                      0501
A0101405650000000080139FERNANDEZ, OFELIA PANGAN                                 0502
A0101413150000000082619******                                                   0502
A0101406040000000096855MARVIN U. LIM                                            0502
A0101413730000000144589**********                                               0502
A0101402640000000202068**********                                               0501
A0101413570000000206431YUSOPH J. MANDO                                          0501
A1301400500000000213032DOMINGO, RODERICK MIRANDA                                0501
A0101400150000000253427ARNEL C. CUARESMA                                        0501
A0101412890000000371500RICHARD JAMES R ESTANISLAO                               0501
A0101408820000000408815MARLON TAUNAN TRADING                                    0501
A0101400860000000414122*************                                            0501
A0101407560000000477710GASPANG, FLORDELIZA REVELLO                              0501
A0501400170000000495216DY, JOSELITO MARTINEZ                                    0501
A0101410140000000499203OCAMPO, ABIGAIL CAGAYAN                                  0501
A0101402350000000521366HILVANO II, MARION MAMITAG                               0501
A0101400150000000525222ELLE, SARAH OJERA                                        0502
A0101400150000000525273DEL MONTE, TERESITA MANLUTAC                             0501
A0101405650000000525951MEDINA, MARIA CORAZON BAASIS                             0501
A3001400130000000668571RANARIO, MARIA GILDA TELEN                               0501
A0101404840000000683461BALMES, GERVACIO FRAGO                                   0501
A0101404840000000683472GAMBOA, REGINALD YUMUL                                   0501
A0101413440000000702156PASOS JR., ARSENIO WANIA                                 0501
A2001400290000000724812PATAY, CAROLINA SUGABO                                   0501
A2001400290000000724823PAMA, ROBERT JOHN ALANUNAY                               0501
A0101413990000000726512CASTRO, GIZA ATENDIDO                                    0501
A0101413990000000726534MOLENO, ELVIRA GUZMAN                                    0501
A0101412500000000739522CHUA, VINCE VILLARAMA                                    0501
A0101406880000000745011HOWARD, GINALYN BODE                                     0501
A0301400820000000814099SUMUGAT, ROSITANIA S.                                    0502
A0101400860011388049002**********                                               0502
A0101400150061327950002TORRIJOS, ABDULIA ESPIRITU                               0501
A0101400730111478374026ANABELLE TOMAS                                           0502
A0101400730111683043001GUMATAY, WILBERT ALLAN GULINAO                           0501
A0101401960121239446001**********                                               0501
A0101400440161040977001JKRFG UPGRADE ENTERPRISE                                 0505
A0101400440161478374062MARIA E. ERLANO                                          0501
A0101400440161525001115EVA D. SAMILLANO                                         0501
A0101400440161525001174RIZALYN V. GUNTANG                                       0505
A0101400440161563348001GERALDINE C. LUMAGDA                                     0501
A0101407270162333154022JESUS R. MONTEMAYOR                                      0503
A0101401090171195863002********                                                 0505
A0101401090171196050001DR. MENNEN OR ANNA ALSOL                                 0501
A0101401090171322573001DR. PORSHIA COMES-NATIVIDAD                              0501
A0101400310211446221002ALMERA, ROEL ROSALES                                     0501
A0101407140213190322001**********                                               0505
A3101400160221036824002ROCKVIEW TRADING                                         0501
A3101400160221533266001ANGELITO S. LAZARO JR.                                   0503
A3001400130230478374010SALES, EMMA SINGCO                                       0501
A3001400130230767566021MONTALBAN JR., ANTONIO S.                                0501
A3001400130230796275001DELA VICTORIA, PROSPERO PLAZA                            0501
A1001400190231277525001MILLANA, CARINA B.                                       0502
A1001400350233521940001SIA, RAMIL UAYAN                                         0501
A1901400290261499267001ALBERTO GUEVARRA MENDOZA JR.                             0501
A0101400570281419209005SENERIZA C. ITULID                                       0502
A0101400570281595882001LEDESMA, JOSE FORTUNATO GAMBOA                           0505
A1101400120313478374079CORANEZ, MARIJOE N.                                      0502
A6601400120314624040001BATULA, MARICIL OR RICARDO                               0503
A0101402350321043504001JOLEMARA GARMENTS                                        0501
A0101408820333478374014LINCONES, LUCELYN E.                                     0501
A0101408820333620470001********                                                 0501
A0101402640361169160004PEREZ, REYNALDO SAN LUIS                                 0505
A0101402640361402608001CHI, JOHN CHAN                                           0501
A0201400760374483197001ASTROLOGO, EDGAR ALLAN CALANG                            0501
A0101408370382461772001MACARR_PARKING CORP.                                     0502
A0101402770391357148001JOSE HAWKINS CHUA                                        0501
A0101402770391404096001******************                                       0503
A0101402770391527848001DIVINA GOZUM MANUEL                                      0501
A0101405490392174802001ARLENE T. ANADING                                        0501
A0101408950396565099001DR. BENJAMIN DANIEL S. VALERA                            0502
A0101408950396607322001**********                                               0501
A0101408950396607322001CARIAGA, NATHANAEL CATANGAY                              0501
A0101409180397402256001***                                                      0501
A0101403030441029489001**********                                               0503
A0101403030441319374002**********                                               0502
A0101403320471478374016SONIA SALANIO                                            0501
A1901400160491244534001MA PERPETUA J TENG                                       0503
A0101407430503700751001MA. ELIZABETH CALAYAN                                    0502
A0101408110515682037001RONA D. SOGUECO                                          0501
A0101408530516571877074RUTH P. LERIO                                            0502
A0101408530516578215021MARIA GERALDINE L. DELA VEGA                             0501
A0101403450521240361001**********                                               0501
A2201400250561297004007ROMEO U. BALDOVINO                                       0501
A0101407720602401438001JUANCHO ALFREDO DAEL LAS                                 0501
A0101404680651478374042ROSEL V. JAVIER                                          0501
A1301400340683363297001APOLONIO, MA. CONCEPCION AMURAO                          0501
A1301400340683467501001ROBERTO P. BANIGUED                                      0503
A1301400500684090817001MAGTIRA, JIMMY M.                                        0501
A0101407560686478374070MAURA G. CAGAS                                           0501
A0101407560686506885001**************                                           0504
A0101407560686526155001101C TRADING CORP.                                       0505
A2801400100712362318001SARTE, MAXIMO PAREDES                                    0502
A4101400420814478374193CONDE, EMMA D.                                           0501
A4101400420814667894001BLAKE, ANGELIQUE CARGANILLA                              0501
A0101404840851478374086EDITHA ALOJADO                                           0501
A0101405070861413368001WILFREDO B. LAYNES, JR.                                  0502
A0101407560000000477721SABADO, MARISSA OR                                      10501
A0101409920000000523722BASACA JR., QUINTIN SARREAL OR                          10501
A0101405070000000741393URSAIS, FELICITAS V. OR                                 10501
A0101404680000000767062TERESITA A. AGUILAR OR                                  10502
A0101400730000000833027WERDENBERG, CHRISTIAN OR                                10501
A0101407140213517498001QUINTIN L. PAREDES III OR                               10501
A3001400130230687040108JAQUE, ROMEO /OR                                        10510
A1001400190231520766045BALBERAN, FLORA ABOY OR                                 10501
A0101405650322533922001SABADO, FERDIE B. OR                                    10502
A0101402640361580365001LIWANAG, CECILIO ARCEDO OR                              10503
A0201400890376667775001BUYSER, MISAN CANAS OR BUYSER,                          10501
A0101402770391764626001TORRES JR., FIDEL                                       10503
A0101412890470083434001FELIX VOLTAIRE P LERIO II OR                            10501
A0101412890470083434001FELIX VOLTAIRE P LERIO II OR                            10501
A0101403320471086804001CUA, EDWARD SALVADOR AND                                10501
A1401400110492221623001CONSTAN R. ZABALLERO OR                                 10501
A2201400250561478374062JENNIFER M. MARTINEZ                                    10501
A0101410300663790131001VALDEZ, JENNIFER ANN Z OR VALDE                         10502
A0101407560000000477721SABADO, RIZALDY                                         20500
A0101409920000000523722BASACA, ETHEL LORICO                                    20500
A0101405070000000741393URSAIS JR., CIRIACO V.                                  20500
A0101404680000000767062TARA BLANQUITA A. AGUILAR                               20500
A0101400730000000833027WERDENBERG, ARMINDA                                     20500
A0101407140213517498001MA. ASUNCION G. PAREDES                                 20500
A3001400130230687040108JAQUE, CONCORDIA                                        20500
A1001400190231520766045BALBERAN, BERNAR                                        20500
A0101405650322533922001SABADO, EMERITA                                         20500
A0101402640361580365001LIWANAG, EDNA DE                                        20500
A0201400890376667775001IAN CHRISTOPHER                                         20500
A0101402770391764626001TORRES, MARIA CECELIA                                   20500
A0101412890470083434001NONA D LERIO                                            20500
A0101412890470083434001NONA D LERIO                                            20500
A0101403320471086804001CUA, EMERSON SALVADOR                                   20500
A1401400110492221623001MILAGROS D. ZABA                                        20500
A2201400250561478374062MEMBERS OF NATAS                                        20500
A0101410300663790131001Z, PABLO BASILIO B                                      20500
B0101410690000000001872JOLLY MANAGEMENT SOLUTIONS, INC.                         1610
B0101405940000000002773BT AUTO SPORT CORP.                                      1610
B0101405490000000019970ELGAESON CORPORATION                                     1601
B0101408820000000027370********                                                 1605
B0101405070000000028880CLUB YOKO BAR AND RESTAURANT INC.                        1601
B0101405070000000028891TAKUMI RESTAURANT CORPORATION                            1601
B0101405070000000028920KANIL RESTAURANT AND BAR INC.                            1601
B0101403320000000037614MAROZA MARKETING, INC.                                   1605
B0101403320000000037625PASTURE TO PLATE AGRIBUSINESS, INC.                      1605
B2401400180000000073670BRIGADA HEALTHLINE CORP.                                 1610
B0101405070000000428820CEN GLOBAL TRACK SOLUTIONS INC.                          1604
B0101408820000000713240TING, JIMMY SY                                           1601
B0101400150061021566001SUGAR MASTER PLAN FOUNDATION, INC.                       1602
B0101400150061028210001GOLDEN DRAGON MOTOR SALES CORP.                          1603
B0101400150061041993001FILPROGRESS CREDIT CO., INC.                             1606
B0101400150061227269001BLUE SPHERE PROPERTIES INC.                              1602
B0101400600071396916001II                                                       1605
B0101400600071536828001CLAXTER GENERAL MERCHANDISE INC.                         1620
B0101410560110045564001S.M. LAZO MEDICAL CLINIC, INC.                           1610
B0101400310211157789002DANILO OR LYDIA VILLEGAS                                 1602
B0101407140213028328001SYTENGCO PHILIPPINES CORPORATION                         1605
B3101400160221041096001HEALTHSERV LOS BANOS INC.                                1601
B2601400270302039764001MOTORAM MOTOR PARTS                                      1601
B2001400290315028080001GLOBAL POWER EQUIPMENT MARKETING CORP.                   1602
B0101402640361038833001KASAGANA-KA DEVELOPMENT CENTER, INC                      1605
B0201400760374035388001PREMAN MARKETING & DISTRIBUTION NET                      1610
B0101402770391630383002FIRST LOAD MASTER AND POWER SERVICE INC.                 1601
B0101408950396026318001GLOBAL CITY AUTO SALES, INC.                             1603
B2401400180411031958001***********                                              1602
B0101406880513038577001ACTIVE LAND ESTATE SALES INC.                            1605
B0101408110515035536001E & V ELECTRICAL INC.                                    1605
B0101404000551005062001FIRST LPL LAND SYNDICATION                               1603
B1301400210682030329002ANDAN ENTERPRISES, INC.                                  1602
B1301400340683027908001BBC EMPLOYEES ASSOCIATION                                1605
B0101407560686006342001METRO CONTAINER CORPORATION                              1605
B0101407560686040555001*************                                            1603
B0101408240711028488001INTAS DESTINATION MANAGEMENT INC.                        1605
B2801400230713045817001ROWENA MINOO SAMURAI, INC.                               1605
B0101405070861020451001SOUTHEAST TRAVEL CORPORATION                             1604
B0101405070861044555001AKIT MARKETING                                           1603
B0601400230891028240001SUPER BIKES CENTER BRANCH FUND                           1601
B0101404000000000025607SOLIVEN, M DBU COCO ARTISTS MANAGEMENT &                11601
B0101401090171027703001INSTANT DRUGSTORE AND GENERAL                           11602
B3101400160221048153001INDIGO BAY HOME/LOT OWNERS ASSOCIATION                  11602
B0101402510341197412001PHILIPPINE SOCIETY FOR EDUCATIONAL                      11601
B2201400250561499339001JOEY Y. UY OR NORMA D. OBIENA AND                       11610
B0101407720602005968001MEDICAL PLAZA MAKATI CONDOMINIUM                        11605
B0101407720602005985001MONTEMAR MANAGEMENT &                                   11601
B0101404000000000025607ENTERTAINMENT PR                                        21600
B0101401090171027703001MERCHANDISE                                             21600
B3101400160221048153001INC.                                                    21600
B0101402510341197412001RESEARCH                                                21600
B2201400250561499339001GAUDENCIA B. UY                                         21600
B0101407720602005968001CORPORATION                                             21600
B0101407720602005985001DEVELOPMENT CORP                                        21600
B0501400170481821100608**********                                               2003
B0101411950680821100608**********                                               2003
