A0101400150000000000033IBARRA, PEACE EUSTAQUIO                                  0501
A0101403030000000008933**********                                               0501
A0101401250000000020424BALIAO, JOVITA LINGGON                                   0505
A2001400290000000094820DIAZ, ALISTAIR BLANCAS                                   0502
A1001400190000000124632ARLIGUE, RACSIEL C                                       0501
A0101411790000000469596**********                                               0502
A0101410140000000499430SANTOS, MARY GRACE SANDOVAL                              0501
A1101400120000000652675YU, ANTONIO ALMENARIO                                    0503
A0101401380000000682651PILI, RC JENNIE MAE ASISTIO                              0501
A0901400220000000888002**********                                               0505
A0101412210000001236351AUGUSTO C. VILLALUNA                                     0505
A3001400130000001261238DAGASDAS, GLORIA AVILA                                   0502
A3001400130000001271501DUBOUZET, ZENAIDA DAGASDAG                               0501
A3001400130000001271750CABRERA, FERDINAND GLORIA                                0504
A0101409920000001539420PADUA, ANTHONY MILLAN                                    0501
A1401400110000001549311HAPITA, PAMELA ALVARICO                                  0501
A0101401090000001618822AVGENT COPY CENTER                                       0502
A0101404260000001725639************                                             0503
A3101400160000001792003MARLON G GARCIA                                          0501
A0101403320000001803167ACOMPANADO, ERIC GALANG                                  0501
A0101408400000001855381ABSA BUILDERS                                            0502
A0101408530000001886086DENVER A. SISON                                          0502
A0101410560000001944123VIZCARRA, LYDIA DIAZ                                     0501
A0101408400000001981542CUANO, MARITA GUEVARA                                    0502
A0101402640000002069514WATERLAB WATER TESTING LABORATO                          0502
A0601400520000002085781RAMIREZ, MICHAEL GABAT                                   0501
A0601400520000002085861R P QUIROZ TRADING                                       0502
A0201401020000002250482LIM, TANYA LOU RIVERA                                    0501
A0101413020000002292731CALIXTO, HEIDI CAMMAYO                                   0501
A1001400480000002300390DAGUMO, ELIZABETH SY                                     0501
A0101412500000002304694VALENCIA, GABRIEL PIETRO CACHA                           0502
A3401400280000002323433AZARRAGA, KATHERINE VILLAR                               0501
A0101400860000002333411**********                                               0503
A0701400260000002338952GONZAGA, RENATO LAVAPIE                                  0502
A0101408240000002413281CHOI, SEUNG HYUK                                         0501
A0101405650000002960876TAJON, PETER HENRY BORJA                                 0501
A0101409050000003535000BONCAY JR., FLORIAN                                      0501
A2001400290000003591100ALTIZA, MAYJORIE NAPITAN                                 0501
A0101406620000003661421ROBLEZA, RICHARD DALE                                    0501
A0101412630000003959508YGAN, RUTH ADVENTO                                       0501
A0101401700041502022001**********                                               0504
A0101400150061401178001CASTRO, ROBERTO DUNGAN                                   0501
A0101400600071233751001MERLA ANDRES OR JOSELITO ANDRES                          0503
A0601400360083038054001WILTECH COMPUTER SERVICES                                0510
A0101410560110478374013CYNTHIA EVANGELISTA MENDOZA                              0501
A0101401960121380499001**********                                               0501
A0101400440161520766177MATILDE P. TESORO                                        0501
A0101401090171353988001CITADEL C. DE CASTRO                                     0502
A0101400310211472618001ORTEZA, MELISA DUCABO                                    0501
A0101407140213348378001JASON M. CHUA                                            0501
A3101400160221419880001ROWENA B. SUN                                            0502
A0101411110276396077088LEE, CHUN SHEN CHIEN                                     0501
A0101400570281395118001HONEYLIN C. ROXAS                                        0501
A0801400160311413609001LIM, JOSEPH PO                                           0505
A1101400120313547700001NICOLASORA, ALMARIE EULOGIA P.                           0506
A2001400290315043507001AMSTEL BEAUTY SALON                                      0501
A2001400290315640426001**************                                           0503
A2001400290315688009001ALGOPERA, LLOYD GARCIA                                   0504
A0101408820333041843003SERVICTORY CO. LTD.                                      0501
A0101402060351295053001VINCENT ADRIAN H. ERMITA                                 0501
A0101402640361168435001***************                                          0502
A0201400760374260158002PINEDA, ALFREDO B.                                       0501
A0201400920375609447001RAMIRO, MARIA ARCELI AVANZADO                            0502
A0101402930381205175001DR. MARILYN D. RUARO                                     0502
A0101402930381205288001GRACE F. FAVILA                                          0501
A0101402930381546261001THERESE NARCISA Q. FAJARDO                               0502
A0101402930381607882001MARAMO, ROLANDO HONRADE                                  0501
A0101408400394508074001WEE, LEE HIONG TAN                                       0503
A0101408400394743505001MARIA CAMILLE J ELIZALDE                                 0501
A2401400180411609791001*********                                                0505
A0901400220432079352001ONG, LIONEL ROY ZAPANTA                                  0502
A1401400110492329425003CUACHON III, NORBERTO AMILHAMJA                          0501
A0101403580511156706005JONATHAN MARQUEZ                                         0501
A0101408530516493676001********                                                 0503
A0101411790518055815045MENDOZA, JUBELLE JUAREN PATRON                           0501
A0101411790518055815054MORELOS, RACHELLE ANN ABEGONIA                           0501
A0101404000551340823001JESUS CLINT O. ARANAS                                    0503
A2201400250561409939001DRA. LYRA GRACE S. TORIO                                 0501
A2201400250561409939001DRA. LYRA GRACE S. TORIO                                 0501
A0101404260611631625001REYES, ERLINDA URRIZA                                    0501
A0101404420631478374067DELIA M. ABENOJA                                         0502
A0101407560686478374034CHENDRINA A. DUHAYLUNGSOD                                0501
A1701400230693478374061BAUTISTA, CRESENCIO RISCAL                               0501
A0101408240711390504002ROXAS, CHITO OR SHEILA                                   0510
A0101408240711402155001EMMANUEL OR LEE THERESE LLIGE                            0501
A4101400420814357382003REMULLA, GILDA VASQUEZ                                   0502
A4101400420814520766064ANDAYA, AURORA A.                                        0502
A4101400420814562876001*****                                                    0502
A4101400420814710353001GRANADA, MILDRED SISON                                   0502
A0101406750852478374002TERESITA LIWANAG                                         0502
A0101403580000000016053MARIA CARMINA S. MESIAS OR                              10508
A0201400890000000027905MENDOZA, VAL VINCENT FABIAN OR                          10502
A1001400480000000041501SALVANA, RODOLFO L OR SALVANA,                          10505
A0101406750000000090833RIVERA, WENDY E. DBU PROSPERITY                         10501
A2601400270000000561802DULCE T. SIQUIAN OR EGDONA M.                           10502
A3101400870000000957940FARCON, JENYLYN REYES OR                                10501
A0101409920000000998558MEMBERS OF NATASHA (SHOECAT INC                         10501
A0101406460000001231554WEE, AUDREY ANN SY OR                                   10503
A1401400110000003869898UY, DOMINGO OR UY, SOLEDAD A.                           10501
A0101406620273393333001FLORES JR., RICARDO RAMOS                               10501
A1401400110492222234003MARTINEZ, FERNANDO PELIPADA OR                          10504
A0101408110515023542001FLASSIQUE FINE FURNITURE                                10503
A0101408530516629159001VILLANUEVA, JOSE DIAZ OR                                10502
A0101404000551494746001JIMENEZ, ARNOLD ROY BELGIRA OR                          10501
A0101410720653046803001BCLOA BUSINESS DATA RESEARCH                            10502
A0101410300663076796001VILLALON, MARIA TERESA N. OR                            10501
A0101407560686548916001JEROME G. TO OR                                         10502
A0101403580000000016053MARIA CRISTINA S. RIVERA                                20500
A0201400890000000027905CASTILLO, NEIL B                                        20500
A1001400480000000041501ELIZABETH C                                             20500
A0101406750000000090833168 FOOD CONCEPTS                                       20500
A2601400270000000561802MANANQUIL                                               20500
A3101400870000000957940DE MATA, NENETTE MARCIANA                               20500
A0101409920000000998558ACPAL, GLORIA                                           20500
A0101406460000001231554WEE JR., CESAR L                                        20500
A1401400110000003869898OR UY, DORIS A.                                         20500
A0101406620273393333001OR FLORES, ZARA ZAPANTA                                 20500
A1401400110492222234003MARTINEZ, MA. LUISA                                     20500
A0101408110515023542001& INTERIOR DESIGN                                       20500
A0101408530516629159001MA. LETICIA V. ROY                                      20500
A0101404000551494746001JIMENEZ, TANYA NATASHA                                  20500
A0101410720653046803001SERVICES                                                20500
A0101410300663076796001VILLALON, GREGORY C.                                    20500
A0101407560686548916001MARIA CECILIA L.                                        20500
B0701400260000000041083MULTI-WARE ECON-SALES CORPORATION                        1605
B0101412920000000276711KALAKAL FOOD CONCEPT INC.                                1601
B0101411110000000604982LUCKY STARGAZER CORP.                                    1601
B0101402930000000623410R AND C OUTDOOR MEDIA INC.                               1606
B1101400120000000652631UYVICO, FELINA BORROMEO                                  1602
B1101400120000000652959ONG, WEE SIT PO AND ONG, WAN LIAN PO                     1601
B0101407720000000885667VIRTUPAK, INC.                                           1601
B0101410720000000968123DPE ASIA CONTAINER SERVICES AND OUT                      1601
B1301400500000001412242SHIMIZU-FF CRUZ JV                                       1603
B0101412760000002068071WOODEN KEGS BAR & KITCHEN INC.                           1602
B0101404130000002121562GOLD NUGGETS HAULING AND TRUCKING CORP.                  1602
B0101411950000002691278********                                                 1605
B0101405490000002841870PARANAQUE PREMIER HOSPITAL & MEDICA                      1603
B0101400150061042091001CREAMLINE DAIRY CORPORATION                              1601
B0101412920160056572001ESCOBAR TRAVEL AND TOURS CORPORATION                     1601
B0101400440161007221001ILA EXPRESS HAULER                                       1602
B0101401090171027712001AIRBORNE SECURITY SERVICE, INC.                          1604
B0301400660194044769038LUMINOUS DEVELOPMENT CORPORATION                         1605
B0101401380201026760001PAG & D BAR & ENTERTAINMENT CORP.                        1602
B0101400310211165352001LIFE RESOURCES CORP                                      1602
B3101400160221045923001SUNRICH MANUFACTURING CORPORATION                        1610
B1001400190231276633001SIA, TOMAS &/OR ANNIE &/OR GINA                          1605
B0201400890376034720001CEBU AGRI CHEM TRADE INC.                                1604
B0101402930381014599001HEALTH SOLUTIONS CORPORATION                             1602
B0101402930381033256001BENMARK GROUP HOLDINGS, INC.                             1610
B0101402930381039036001CULINARY EVENTS, INC.                                    1603
B0101402930381040393001RESOURCE ONE CORPORATION                                 1601
B0101402930381047467001FLUID SOLUTIONS, INC.                                    1601
B0101402930381321280001S.D. FLORES CONSTRUCTION CO., INC.                       1601
B0101402930381321280003S.D. FLORES CORPORATION                                  1601
B0101402930381794289001ACCURACY INTERNAL BUSINESS SOLUTIONS INC                 1602
B0101409210398042284001D FORT EXPRESS LOANS & CREDIT, INC.                      1603
B2401400180411044838088DAVAO MULTIBUILD CORPORATION                             1605
B1201400150421253585001ANGELES DIAZ                                             1602
B0101403030441314128003**********                                               1601
B0101408110515030941001COPIES UNLIMITED INC.                                    1601
B0101403450521012010001********                                                 1603
B2201400250561258273001*****                                                    1605
B0101404130601045482001NORTHSTAR TECHNOLOGIES PHILIPPINES                       1605
B0101404130601506100002LINK RI LOGISTICS INC.                                   1603
B0101407720602022973001MMC SECTION OF PSYCHIATRY                                1602
B0101410300663761785001MRMJ EARTH MOVERS CORPORATION                            1610
B4101400420814033668001PETRO VENTURE CORPORATION                                1602
B0601400230891017871001ALPHA INSURANCE & SURETY CO., INC.                       1602
B0201401020000000005034PINOY ENTREPRENEURS FOR SUSTAINABLE                     11602
B5001400170000000169846DIPOLOG TOP CONSTRUCTION AND DEVELOPMENT                11602
B1101400120000000652391ONG, VIRGINIA PO OR ONG, WEE CHI PO OR                  11602
B0101400150061036083001ANNEXUS INTERNATIONAL RELOCATION                        11602
B0101400310211056189002ARKAD AND DABASIR CO. DBU GYM ALL                       11601
B2001400290315071661001R.UYPITCHING, IRWIN, KATRINA, ADAM, KEN                 11601
B1201400150421013432001BAGUIO MAHARLIKA MULTI PURPOSE                          11603
B1401400110492046339001SOUTHERN QUEZON PACIFIC OIL MILL                        11605
B0101407430503042216001HIGH COMMAND AVIATION SECURITY                          11605
B0201401020000000005034OPPORTUNITIES                                           21600
B5001400170000000169846CORPORATION                                             21600
B1101400120000000652391ONG, WAN LIAN PO                                        21600
B0101400150061036083001SERVICE, INC.                                           21600
B0101400310211056189002YOU CAN                                                 21600
B2001400290315071661001& LU,CIPRIANO II                                        21600
B1201400150421013432001COOP.                                                   21600
B1401400110492046339001CORPORATION                                             21600
B0101407430503042216001SERVICES CORP.                                          21600
B0101400280051821100608**********                                               2005
