A0101411530000000013710**********                                               0506
A0101413020000000056944CALUCAG, MARILOU GALAURAN                                0503
A0101404680000000120269NIDA A. ROXAS                                            0502
A4101400420000000120674MARILYN BOSTRILLO                                        0501
A0101402350000000145593RIVERA, KRIZELDAN TUBERA                                 0501
A0801400160000000476299*********                                                0503
A0101412470000000520221CANCIO, NOEL SANTOS                                      0501
A0101402350000000521413REMELYN F. PIA                                           0502
A0101405650000000525831*********                                                0502
A0101406590000000568747ENDRIGA SR., VICTOR BERMEJO                              0502
A0101409180000000874682VILLANUEVA, CHERYL ATIENZA                               0501
A0901400220000000888002**********                                               0502
A0101410300000000919579LIM, ADRIAN FARINAS                                      0501
A0801400160000001031332AMIL, WAHAB AHMAD                                        0501
A1001400190000001057658RONEL LAGROSA (SHOECAT INC                               0503
A0101403610000001174943MIR & RYVI HOME OF ORGANICS COM                          0502
A0801400160000001289863GOLD STAR PHILS. TRADERS                                 0501
A0101409210000001294457ARCEGA, SHEILA MARIE L.                                  0501
A0101409210000001294468RAMOS, MARICAR P.                                        0501
A0101400150000001422144VALERIO, IMEE ROBERT                                     0502
A0101400150000001422155MAMPO, JENELYN DIOLATA                                   0502
A0101400440000001439590DEL ROSARIO, RAMON DAMASCO                               0501
A0101400440000001440044ESTABILLO, ESTELITA CARPIO                               0501
A0101402350000001474299DELOS SANTOS, ERWIN CABADDU                              0501
A0101402350000001474380CHANG, CHIAO FENG                                        0501
A0101407270000001597000MA. CHEYEN GLEEN V. DIEGO                                0502
A0101400570000001681869GARCIA, DOMINIC BOLOS                                    0501
A0101406620000001686735PEREZ, RENE ANDOG                                        0501
A0601400230000001687232CHRISTLE M.TUNGUL                                        0501
A0101413150000001688639SUSIE O. CO                                              0501
A1101400120000001920510LAGADAY, LEAH ALBERCA                                    0501
A0101408400000001981553VALENZONA, CRISTINE CAMILLE MOS                          0501
A1301400500000002063770VENZON, MYLIN SANGCAP                                    0502
A0201400760000002374923AVILA, VALERIANO SEGURA                                  0501
A0101401700041478374017VILMA ZOLETA MAGYAYA                                     0501
A0101411080042772372001 *****                                                   0501
A0101400150061227107001KIM H. APOLEGA                                           0501
A0101400730111386485063lYNETTE E. BENDANILLO                                    0501
A0101400730111520766069DIOLA, MARITES                                           0503
A0101400440161039572081EMELITA G. BARTOLAY                                      0501
A0101400440161186940001MARILOU I. DIVINA                                        0505
A0101400440161520766083ROWENA B. DAVID                                          0501
A0101401090171196121001PILAR AGNES G. ANDAYA, M.D.                              0501
A0101401090171280240004FLORES, MERRIAN RAMOS                                    0501
A0101407140213408994002**********                                               0502
A3101400450223026834001*****                                                    0504
A1001400190231520766086ABANG, ELVIE EGDAMIN                                     0501
A1901400290261411419001TERESITA DIMAILIG PERCE                                  0503
A1901400290261488341023DR. JOSE L LACORTE                                       0502
A0101406460272590425001SALVADOR, WINEBELLE DELFINO                              0502
A0101400570281362607001EMMANUEL B. SALAZAR                                      0501
A0101400570281417780001JOYCELYN TAN TANZO, D.M.D.                               0502
A0101400570281484005001ARANAS, JOSEPH ANTHONY MERCADO                           0502
A0101400570281527773001CARANDANG, RICHARD DANTE LOPEZ                           0501
A0101400570281555619001MACROHON, MA. CRISTINA ZAFRA                             0502
A2601400270302567227001ROSITA TAN VALLE                                         0502
A2601400270302574301001ALEX UY TY                                               0501
A0801400160311413609001LIM, JOSEPH PO                                           0505
A0801400160311478374102MA. CECILIA A. AVANCENA                                  0501
A0801400160311478374103INAYAN, MERLINDA GUARDAMANO                              0501
A0801400160311494221001JUCABAN, LEO LAGOS                                       0501
A1101400120313478374028NEGRIDO, JINKY G.                                        0501
A0101402350321179561001ORIS, TERESITA                                           0501
A0101402350321236824002********                                                 0501
A0101405650322083988001ARTICULO, AUREA BUMONGCAG                                0501
A0101405650322345025001GASGONIA, DONNA ZAPA                                     0501
A0101408820333041843003SERVICTORY CO. LTD.                                      0501
A0101402060351211751001RELOVA, MA. ROSA NIEVES                                  0501
A0101409210398500494001MANALOTO, LAWRENCE IAN ATIENZA                           0501
A0101403320471205844001ESTELA OR VICENTE MACARAEG                               0501
A0101403320471633972001CRISTINA LOYOLA YSMAEL                                   0501
A0101410140475045282001JBL RENTALS                                              0503
A1401400110492575977001HERRERA, MA. BULAKLAK ROSAS                              0501
A0101408110515406714001MA. EDITHA WONG JACINTO                                  0501
A0101403450521238070001**********                                               0505
A0101404000551188147001LIBORO, FRANCISCO MIRAFLORES                             0503
A0101407720602396601001MORALES, DANTE                                           0501
A0101404260611478374078SUPERAL, CORAZON                                         0501
A1301400500684690469001MARCELINO, GILLYN DE GUZMAN                              0502
A0101408240711606837001MAYS, CHERYL ANN                                         0501
A4101400260812468473002BIANAN, RODNER AYUKIL                                    0501
A4101400260812478374030MA. CONCEPCION S. PARAGUISON                             0501
A4101400260812707795001APARTE, CARMELA CARMELLE DATOR                           0501
A4101400420814520766028BASILOY, VILMA                                           0501
A4101400420814520766111COLETA, JEANNETTE C.                                     0502
A2801400230000001734709CUSTODIO, JAMEEL DBU JACUDIBI                           10502
A3101400450223352819001FARAON, RIZALINA OR                                     10502
A3101400450223693052001FERRER, PAMELA PIA OR MELVIN                            10506
A1001400190231032628001ELIZABETH AMADO NOBLE AND SONS                          10505
A1901400290261432900001JULIUS PIO AFRICA RANA OR                               10501
A0101400570281551802001SHERYL LYNN A. YU                                       10505
A0101402350321179411001LARRY RAMOS OR                                          10501
A0101402350321597544001ROBERTO T. ARSITIO OR                                   10501
A0101402350321622797001ALDWIN V. CEDO OR                                       10501
A0101402060351211820001ROMUALDEZ, RAFAEL OR ANTONIO OR                         10503
A0101408370382207662001DR. CELSO F. BATE OR                                    10501
A2801400230000001734709BUSINESS SOLUTIONS                                      20500
A3101400450223352819001BELEN, RHODORA                                          20500
A3101400450223693052001JOHN OR AUSTRIA,                                        20500
A1001400190231032628001CORPORATION                                             20500
A1901400290261432900001CHARMAINE DE GUZMAN RANA                                20500
A0101400570281551802001OR STEVEN L. YU                                         20500
A0101402350321179411001HERMINIA RAMOS                                          20500
A0101402350321597544001LUVIZMINDA L. ARSITIO                                   20500
A0101402350321622797001ELENA C. MANANSALA                                      20500
A0101402060351211820001CRISTINA OR MART                                        20500
A0101408370382207662001MRS. SOPHIA S. BATE                                     20500
B0101409210000000031250********                                                 1601
B0101405650000000772845NORTHSTAR TRAINING & CONSULTANCY INC                     1603
B0801400160000001289852EON PHILIPPINES INDUSTRIES CORPORATION                   1601
B4101400260000001783731STRONG ROCK CONCRETE AGGREGATE CORP                      1601
B0101401960121657830001**********                                               1604
B0301400790195053525001EMCELI PROPERTY HOLDINGS CORP                            1601
B0301400790195053525002EMCELI PROPERTY HOLDINGS CORP                            1601
B3101400160221224862001JOYME CONSTRUCTION SUPPLIES, INC.                        1602
B1001400190231029291001JAMESON CONSTRUCTION SUPPLY                              1610
B0101406620273016438002LAMCO INTERNATIONAL TRADING CO., INC.                    1601
B0101406620273038634001BELLE HAVEN REALTY, INC.                                 1601
B0101402350321006710001DASMA CITYWIDE GEN MDSG INC.                             1604
B0101402350321012513001CONNER HARDWARE CORP                                     1601
B0101402350321015321001BEST CHOICE MINIMART INC.                                1605
B0101402350321713326001IDESCON, INC.                                            1602
B0201400920375035929002UPLAND STOCK FEEDS, INC.                                 1602
B0201400920375042734001A. LIM DEVELOPMENT INC.                                  1602
B0101410140475047994001PASIG PARISH CREDIT COOPERATIVE                          1603
B0101407430503006854003CARGO DATA EXCHANGE CENTER, INC.                         1602
B0101403610531014741001DOMFERRER DESIGNS, INC.                                  1604
B0101410300663082813001DELTA GRID POWER SYSTEM CORPORATION                      1602
B0101408240711045782001DSI - MANILA, INC.                                       1603
B4101400420814016269002DAMAYAN SA ANABU II B CREDIT COOPERATIVE                 1603
B0101409920000000021223QUANTUM LABORATORY & DIAGNOSTIC CENTER,                 11604
B0101413600000002122372INTERNATIONAL ACADEMY OF AESTHETIC                      11601
B0101402350321500384001ONG, JOSEPHINE T. AND HERRERA,                          11602
B0101405650322172207001BF TRADERS MULTI-PURPOSE                                11603
B0101402510341025666001SAN BEDA LAW ALUMNI ASSOCIATION                         11601
B0101403320471008859001NEW LITE LUMBER & CONSTRUCTION                          11602
B0101409890649033780001WATCH TOWER BIBLE AND TRACT SOCIETY OF                  11605
B0101409920000000021223INC.                                                    21600
B0101413600000002122372SCIENCES INC.                                           21600
B0101402350321500384001VICTORIA                                                21600
B0101405650322172207001COOPERATIVE                                             21600
B0101402510341025666001INC.                                                    21600
B0101403320471008859001SUPPLY                                                  21600
B0101409890649033780001THE PHILS. INC                                          21600
B0101414090108821100608**********                                               2002
B0101405650322821100608**********                                               2025
B0201401150378821100608**********                                               2005
B0301400820409821100608**********                                               2001
