F3201400190000001493089BIROG, PRUDENCIO VITORIO DBU                            12502CKO
F1301400210682306066002JUANITA D CABRERA OR                                    12501CKO
F3201400190000001493089ALEC MARKETING                                          22500CKO
F1301400210682306066002JAYNIE D CABRERA                                        22500CKO
F0301400400000001854862FAITH INTERNATIONAL ACADEMY OF                           2601CK1
F0201400180181038397001YANDY TOYS ALLEY                                         2601CKR
F0101405940512030823008AVID SALES CORPORATION                                   2610CKR
F0101405100571036688001ALL COUNTS TRANSPORT SERVICES                           12602CKR
F0101404840851027809001INFORMATICS COLLEGE NORTHGATE,                          12605CKR
F0101405100571036688001CORPORATION                                             22600CKR
F0101404840851027809001INC.                                                    22600CKR
