A4101400260000000002120LUCIANO, MARIA PAZ GOMEZ                                 0501
A0101404840000000004013RACHELLE PEARL C. PADLAN                                 0501
A0101408240000000005461SANCHEZ, MARIANO ALTOBAR                                 0503
A1301400210000000023230ARMINDA S CRUZ                                           0502
A1001400190000000124632ARLIGUE, RACSIEL C                                       0501
A0101412630000000180414BONIFACIO, JOCELYN MADRID                                0501
A1901400160000000243638GUNZEN RESOURCES ENTERPRISE                              0502
A0101408240000000347471CLERIGO, KATHRINE LEDESMA                                0501
A0101402060000000358792DETERA, CATHERINE QUINES                                 0501
A2201400250000000433550******                                                   0501
A0101405650000000448475CABINTE, RONALD CASTILLO                                 0501
A0601400230000000452839ARCINUE, S DBU SLA ENTERPRISES                           0502
A0101404420000000471896JANETTE S. TRISTAN                                       0501
A0101410140000000482702LABASTIDA, ENGRACIO DOTOLLO                              0501
A1301400210000000540958SYDNEY ENTERPRISES                                       0503
A0101400440000000596652ARIAS, JAIMIE KIM BAYANI                                 0501
A0101412630000000852346PERALTA, MARILYN CASTANEDA                               0501
A0101405810000001021230***************                                          0506
A0101412890000001056320LICUP, MARIANITA ROQUE                                   0501
A5501400120000001122023IGOT, SISA MEDEEN ESTILLOSO                              0501
A5501400120000001122030TAKAHASHI, EDGAR FLORES                                  0501
A5501400120000001122041FAJARDO, REGINALD LEAL                                   0501
A4101400260000001135000EGASAN, MARY GRACE ADOLFO                                0501
A0101413730000001253230***********                                              0501
A3001400130000001271669OLACO, BELINDA LACORTE                                   0502
A0301400950000001379524PAMINTUAN, MARK CHRISTOPHER DWY                          0501
A1301400500000001412377CYNTHIA O. FRANCISCO                                     0501
A0101402350000001474335GARCIA, ROSALIE NEPTUNO                                  0501
A0101409920000001539595CORNELIO, MARY JOY LERIOS                                0501
A2001400290000001557633LABISORES, LUZ MARIE SAGRADO                             0501
A2001400290000001557644CIANO, JACQUELINE COBALLES                               0501
A0101401090000001611392MONICA ALISSANDRA C AGNES                                0501
A4101400550000001622708VIAJE, ARNEL SANTILICES                                  0501
A0101406620000001686633JIMENEZ, ELMA TABUADA DBU EJIME                          0502
A0101406620000001686644DOMETITA, JOHN QUILIT                                    0501
A0101406620000001686655JATAP, JESUS JOHN UY                                     0501
A0601400520000001706861EA, TITA ESTABILLO                                       0501
A0101400150000001708254MADAMBA, ADONIS JUAN DOMINADOR                           0501
A4101400260000001783622KATOH, AMYVEROSE CABRERA                                 0501
A1901400290000001926230MARYCRIS PASION MEDINA                                   0503
A0101401090000002139835PEREZ, MA ELOISA SEVILLA                                 0501
A0201400890000002141873DR. CHARLES P. SIA                                       0501
A0101401700041193672001CHAN, AIDA LIM                                           0502
A0101400150061489254001BENSON, JANE                                             0501
A0101400600071496801001********                                                 0501
A0101401830141409771001ALRIC P. BOBO                                            0501
A0101401830141593294001ROMAN, FERNANDO GRANADOS                                 0501
A0101401830141774509001CALARA, MARY JANE RAMIREZ                                0501
A0101400440161478374008MARY FE I. REDONDO                                       0501
A0101401090171195984002PURA RODRIGUEZ-CAISIP M.D.                               0505
A0101407140213223605003**********                                               0502
A0101407140213485140001**********                                               0501
A1301400470252478374028NORMA S. BALLESTEROS                                     0506
A1901400290261093134001JOY PANALIGAN KATIGBAK                                   0502
A1901400290261298552118CONCEPCION GONZALES ESTIGOY                              0502
A1901400290261488341049DR. JOHN RODOLFO D. SUAN JR.                             0501
A0101406620273038576002VENTURE 11 FOODS EXCHANGE                                0501
A0101406620273517001001ASUNCION, JOHN DEXTER LIZARDO                            0503
A0101406620273519559001EDUARTE, LOLITA CADAPAN                                  0502
A0101400570281380314001SOBREVINAS, CYNTHIA PALMARIO                             0501
A0101400570281398446001MA. LUISA D. TUANDA                                      0505
A0101402350321478374006MARINA T. CASTILLO                                       0502
A0101402510341196446001YOLANDA N. VALENCIA                                      0501
A0101402510341318724004SEGUNDINA Y. CASTRO                                      0502
A0101402060351020683001NMTK GLASS & ALUMINUM SUPPLY                             0501
A0201400760374093398001********                                                 0501
A0101402770391211580001JESSIE ROBERT MALLONGA                                   0501
A0101402770391524808002ISAAC BASILIO OR EUNICE BASILIO                          0501
A0101402770391636749001ARMANDO RESURRECCION CRUZ                                0502
A0101408400394478374080FIESTADA, PINKY                                          0501
A0101403030441368293001**********                                               0505
A0501400170481255549001*****                                                    0503
A3801400170490092411001DELFIN Q. VALOIS JR.                                     0502
A0101407430503043601001M.R. SUNGA TRADING                                       0501
A0101407430503338970012ROWENA CORNEJO                                           0501
A0101403580511770331001MARISTELLA B. CLAUDIO                                    0501
A0101408110515708875001DR. JAMIE ISIP CUMPAS                                    0501
A0101403450521383834001**********                                               0505
A0101404000551720372001***                                                      0503
A0101407720602241314001**********                                               0502
A0101407720602477601001GONZALES, AYLIN EMPAYNADO                                0501
A0101407720602554296001ANGON, JESSICA BANAGALE                                  0503
A0101407720602581738001DUCUSIN, MA. ANTONINA SUGUITAN                           0502
A0101404260611526256001RUBEN, MARICAR SIOBAL                                    0501
A0101407560686174589001JOHNSON UY OR DELIA UY                                   0505
A0101408240711478374011LYDIA A. INVENTOR                                        0501
A0101404840851046725008MARYCHRIS GINATILAN                                      0502
A0101404840851368068003BALAGTAS, ROWELLDA CHIONG                                0501
A0101404840851410953062RUIZ, MARIEVIC                                           0501
A0101404840851512685001MASANGCAY, LOU CHRISTIANNE VERC                          0501
A0101404840851530917002CASINO, RONNIE ANTONIO                                   0502
A0101404840851742817001QUICO, RICA ANNE MANUEL                                  0501
A0601400230891701278001SICAT, ANDRES DE MESA                                    0502
A1601400170000000036531ERNESTO V REYNOSO OR ISABEL L                           10510
A3801400170000000154185EVANGELISTA, BABY DAISY DBU                             10501
A0101413310000001073927RIZZA MAE OBLIFIAS DBU BRIGHT                           10501
A0301400950000001379535SO, GIOK SU OR                                          10505
A0301400790000001776150SAAVEDRA, EARL JOSEPH B                                 10501
A2201400250000001932292TONGOL, EDWIN NUNANG DBU                                10501
A0101401700041316267001REYNALDO B. BONGALOS OR                                 10515
A0101400730111392034001SENA, GLENDA A. OR MAHAR B.                             10505
A0101401090171286859002MARIA VICTORINA LADISLA OR                              10503
A0101406620273400631001DINDO P. SANCHEZ OR                                     10502
A0101406620273575453002**********                                              10501
A0101400570281187211001WILFREDO VILLAMIN OR                                    10502
A0101402510341278435001MARIE ELIZABETH Y. SOLIDUM, MD                          10501
A0101402510341331222001ERLINDA RECOCO OR JOHN PAUL                             10501
A0201400890376458050001LUIS LIM NGO OR JENNIFER NGO                            10502
A0101402770391524808001BASILIO, ISAAC ALONZO                                   10501
A0101402770391757431001CHAN, HAYDEE CHUA OR                                    10501
A0101405490392703499001SIMON M. SANDOVAL OR                                    10502
A0101404260611018041001JP LONEZA CONSTRUCTION                                  10502
A0101407560686416426001EUGENIA E. DIPON OR                                     10501
A1601400170000000036531REYNOSO OR CARLOS REYNOSO                               20500
A3801400170000000154185R.D.E. BEAUTY CE                                        20500
A0101413310000001073927BUDDIES TUTORIAL SERVICES                               20500
A0301400950000001379535SO, FELISA CHENG                                        20500
A0301400790000001776150OR SAAVEDRA, MARIE CHONA                                20500
A2201400250000001932292WILMTECH ENTERPRISES                                    20500
A0101401700041316267001MARICEL BONGALOS                                        20500
A0101400730111392034001JARDIOLIN                                               20500
A0101401090171286859002ROBERTO LADISLA                                         20500
A0101406620273400631001EMILY H. SANCHEZ                                        20500
A0101406620273575453002**********                                              20500
A0101400570281187211001PRISCILLA VILLAMIN                                      20500
A0101402510341278435001OR GIL M. SOLIDU                                        20500
A0101402510341331222001ROQUE OR ROLLY B                                        20500
A0201400890376458050001CABIGAS OR VILLA                                        20500
A0101402770391524808001OR BASILIO, EUNICE                                      20500
A0101402770391757431001CHAN, PAULINO COYIT                                     20500
A0101405490392703499001ARCELI A. SANDOVAL                                      20500
A0101404260611018041001& TRADING                                               20500
A0101407560686416426001FLORENTINA DIPON                                        20500
B1301400470000000009561FUND LINK CREDIT & LOANS, INC.                           1601
B0101412210000000031523JINMANDE MARKETING INC.                                  1601
B0101411950000000036371MASTER COLOR WORKERS COOPERATIVE                         1601
B0101406620000000193964EDUCITY CORPORATION                                      1601
B0601400520000000398603KAJUANVIII FARM AND CUISINE                              1601
B0101408240000000832677THE BRIDGE SCHOOL, INC.                                  1601
B0101401700041189031003JONATHAN C. TUBLE                                        1610
B0101400150061036320001IPM CONSTRUCTION & DEVELOPMENT CORP                      1610
B0101400600071396916001II                                                       1605
B0101400730111042662001CENCAR CORP.                                             1603
B0101400440161022597001PHILMAN POWER CENTER INC.                                1612
B0101400440161187807001WILLIAM C. LAOÿÿ ÿÿÿ ÿÿÿ ÿÿ                              1601
B3101400160221024274002STA. CECILIA BUSINESS CENTER                             1601
B3101400450223016839002LANDCO PACIFIC CORPORATION                               1605
B1901400290261041112001G&G MANPOWER & PROFESSIONAL SERVICES                     1602
B1901400290261049824001BONLOU, INC.                                             1603
B0101406620273012462001COL FINANCIAL GROUP, INC.                                1610
B0101406620273024855068TANGENT SOLUTIONS, INC.                                  1610
B0101402350321034292001JACINTHE MANUFACTURING CORPORATION                       1602
B0101402350321035857001MOBICAR TRADING CORPORATION                              1602
B0101402350321037708002RD CASH PADALA, INC.-AREA 1                              1603
B0101402350321040284002THERMOCOOL TECHNOLOGY INC.                               1605
B0101408820333047799001********                                                 1603
B0501400170481013098001MOTORPLAZA INCORPORATED                                  1603
B0101403450521020418001**********                                               1605
B0101407720602531639007INTELLIGENT BEAUTY SKIN SOLUTIONS INC.                   1610
B0101408240711008252001PETROLIFT CLASSED CARRIERS, INC.                         1610
B0101406750852041203001AUTOCIRCULO CORP.                                        1610
B0101400440161037561001FLUXLINE INDUSTRIAL & ELECTRICAL                        11602
B3101400160221017124001PANASONIC PRECISION DEVICES PHILIPPINES                 11602
B1901400290261026966002BONTOG SANG-BIRHEN MULTI-PURPOSE                        11602
B0101400570281015729002ST. LUKE'S MEDICAL CENTER EMPLOYEES                     11602
B0101409180397777777008DHOLWANI, GEETA OR DHOLWANI, MADHU OR                   11601
B0101400440161037561001DISTRIBUTION SYS                                        21600
B3101400160221017124001CORPORATION                                             21600
B1901400290261026966002COOPERATIVE                                             21600
B0101400570281015729002ASSOCIATION                                             21600
B0101409180397777777008WANI, VICTOR OR                                         21600
