F1901400290261039254004DR PEDRO J CASTILLO                                      2502CKO
F0301400110191033341008MILL CENTER TRADING CORPORATION                          2603CKR
F3101400580452015475002INDEPENDENT TELEPHONE COMPANY                            2603CKR
F0101410690600047128001PIG IMPROVEMENT COMPANY, INC.                            2602CKR
F0301400790000001211681GABUTERO, ROMMEL D OR                                   12601CKR
F0101406620273023895002RG-FINANCIAL SERVICES LIMITED                           12602CKR
F0301400790000001211681GABUTERO, MICHEL                                        22600CKR
F0101406620273023895002(PHILIPPINES) IN                                        22600CKR
