A1001400190000000016333LUCAS, MERIAM                                            0501
A0201400920000000048031FMC CATERING SERVICES                                    0501
A4101400260000000048957RENTA PE CAUSING & SABARRE LAW                           0501
A0101413150000000082551******                                                   0501
A0101411950000000089872OQUENDO, CANDIDA VILLAMOR                                0501
A0101410690000000305382ALVAREZ JR., ARIEL VILLA                                 0502
A0101405490000000444488JOHN MATHEW S. TAN                                       0502
A0101413730000000469158***************                                          0501
A0101405650000000525717TAMBUNTING, JOY MYRA SALVADOR                            0505
A0101411790000000575991FORMILLEZA, JR BERNAL                                    0501
A2201400250000001066006BERLYN T. COSTALES                                       0503
A0501400170000001072684VELASCO, MARIA CRISTINA ARIZALA                          0501
A0101413310000001073610LACRO, JUCING CASTOR                                     0501
A4101400260000001198687DELOS SANTOS, ANNIE ROSE GARCIA                          0501
A0101409210000001294639PINEDA, MYRNA BACANTO                                    0502
A0101400150000001422473CARABIDO, MARIFEL VILLAMAR                               0501
A0101401090000001618771NOVIO, RONA REGADO                                       0501
A0101409050000001662528SABADO, ROLANDO RODA                                     0501
A0101404680000001716650LONTOC JR., ERNESTO KING                                 0501
A0101404680000001716650LONTOC JR., ERNESTO KING                                 0502
A0101412890000001765460JANDA, ERLINDA SIGUE                                     0502
A0101400730000001822453RENS BRYAN R. SAYAROT                                    0501
A0101408530000001885794EDITHA M. MOJAR                                          0502
A0101405490000002141042ALCOREZA, MA.SALOME SISCAR                               0503
A1301400470000002299756FRANCISCO CARASCO MARANAN III                            0501
A0101400150000002394670************                                             0501
A0101400150000002394670************                                             0501
A0101400150000002394681*************                                            0501
A0101400150000002394681*************                                            0501
A0101400150000002395031PANGHULAN, DARRELL QUILAO                                0502
A0101400150061315349084DAPHNIE YU KIM TENG                                      0501
A0101400150061337010177ELIZABETH DY                                             0501
A0101405810072354724003FUENTES, LILIA S.                                        0501
A0101405810072444240001*************                                            0503
A0101400730111016957003NASSER, MA. THERESA                                      0501
A0101401090171336336002IRENE P. EVANGELISTA                                     0501
A0101401090171556891001CHARLES ISAAC N. DEITA                                   0501
A3101400450223046748001PLAN ELECTROTECH CENTER                                  0502
A1001400190231520766042GEOTORO, INES MANGUILIMOTAN                              0501
A0101406620273477411002ESPINA, NORMA RODRIGUEZ                                  0501
A0101406620273523123001RESURECION P. VILLAR                                     0501
A2601400270302782510001JENNY C. QUESADA                                         0501
A1101400120313478374043OBIENA, PROVIST                                          0502
A1101400120313478374055OBILLO, EMMA P.                                          0503
A0101405650322028641001FROM THE KITCHEN OF LIZ                                  0501
A0101408820333043035001********                                                 0503
A0101402510341196519002CABRERA, AMY PUERTOLLANO                                 0501
A0101408370382205155003DR. ERWIN B. ALCAZAREN                                   0502
A0101408370382457717001O.Q. MALANYAON, M.D.                                     0502
A0101405490392301424001ENCARNACION O. SANTIANO                                  0503
A0101405490392478374008MARGARITA R. CIELO                                       0501
A0101409180397633993001MANALO, JESULITO ANIT                                    0505
A2401400180411478374035MERLINDA D. TAMUDTAMUD                                   0501
A2401400180411621781001CABAHUG, ERWIN JACOY                                     0501
A0101403030441241050001**********                                               0501
A0101403320471523354001**********                                               0501
A0101408110515356890001BERNARD H. VARGAS                                        0503
A0101408110515692008001MIGUEL MARKOS G. NALUS                                   0501
A0101407720602516544001CAPULE, RODEL VENTURA                                    0502
A0101404260611150856002CHING, WILLIAM OR TRINIDAD                               0502
A0101404260611478374078SUPERAL, CORAZON                                         0501
A0101404680651378834001JO-ANNE S. TONGCO                                        0501
A0101404680651518927001EVANGELINE K. TUMIBAY                                    0501
A0101404680651520766174MA. LOURDES G. ROMINEZ                                   0501
A0101404680651525001014IMELDA B. ASAYAS                                         0501
A0101404680651705647001MARITES A. ABON                                          0502
A1301400340683353482001JOSE, MARLENE RODIL                                      0502
A0101407560686243355001**********                                               0505
A0101407560686328712001MARIANITO C. ARCEO                                       0504
A4101400260812478374058DHIESEL M. SAULOG                                        0501
A0101404840851520766194FELIPA O. VILLANUEVA                                     0502
A0201400920000000048177K4M HOLLOW BLOCK/SAND &                                 10501
A0101412630000000801501CHUA,SUSAN MARIE                                        10502
A1701400230000001786718RAMBAUD, ALBERT LACRO OR                                10501
A1701400230000001786792MARTIN, EUPRECITA B.                                    10501
A1101400120000001920623VELARDE, EDUARDO GO OR                                  10505
A1301400470252456240001MUTUC, LUIS OR ROSARIO OR                               10510
A0101400570281043930002REALTY & ENTREPRENEURSHIP                               10501
A1101400120313535537001COLLERA, LEONOR M. OR                                   10504
A0201400920375045050001BIG START REVIEW AND TRAINING                           10502
A0101408370382513907001EFREN T. DAVID OR                                       10501
A2401400180411038015001GENSAN ULTIMATE AUTO SUPPLY                             10510
A0101403320471442721001CANDIDO M. MANEJA OR                                    10503
A0101404130601450094003LORQUEL PASCUAL OR ANNIE                                10502
A0101404680651457785001ARMANDO DORIA OR                                        10503
A0101406590662209733001PANGILINAN, ANTHONY N. OR                               10502
A0201400920000000048177GRAVEL ENTERPRISES                                      20500
A0101412630000000801501DBU J-ERYN TRADING                                      20500
A1701400230000001786718MARICAR CATHERIN                                        20500
A1701400230000001786792OR MARTIN, HONOR                                        20500
A1101400120000001920623VELARDE, ELIZABETH YU                                   20500
A1301400470252456240001MELVINH MARIO                                           20500
A0101400570281043930002ACADEMY OF THE PHILIPPINE                               20500
A1101400120313535537001COLLERA JR., AGUSTIN R.                                 20500
A0201400920375045050001CENTER                                                  20500
A0101408370382513907001AMALIA L. DAVID                                         20500
A2401400180411038015001& HARDWARE, INC.                                        20500
A0101403320471442721001GLADYS MANEJA                                           20500
A0101404130601450094003PASCUAL                                                 20500
A0101404680651457785001JOSEPHINE DORIA                                         20500
A0101406590662209733001PANGILINAN, MA. CECILIA                                 20500
B0101404840000000004144JOY PLANET INC.                                          1602
B01014046800000000135508LUDEREY FOOD SERVICE INC.                               1604
B0101405490000000019981H.E. & G. ENTERPRISES                                    1601
B0101411820000000024142HARDCOM COMPUTER SYSTEM CO.                              1601
B0101400150000000052753GLOBAL ENERGY SUPPLY CORPORATION                         1602
B1401400110000000167446SOUTHERN PROCESSING CORPORATION                          1610
B1401400110000000167457SUPER MAK FOOD CORPORATION                               1610
B0101405650000000772685WISEMEDIA GROUP, INC.                                    1601
B0101412050000000890940********                                                 1602
B0301400820000001554672TRUMPH MOTORCYCLE CORPORATION                            1601
B0101405490000002141053GAZA, RAYMOND PINOLIO                                    1605
B0101405810072012504001**********                                               1602
B0101405810072030270001VITALIANO INC.                                           1603
B0101405810072040696002PLASTIC TECHNOBAG CO. LTD.                               1602
B0101405810072372184001**********                                               1602
B0601400100081027127001NARCISO BROS., INC.                                      1602
B0601400100081040295002ANGELES BEACH CLUB RESORTS CORP.                         1605
B3101400450223365119003VICTOR HUGO ENERGY CORPORATION                           1601
B0101406460272036660001***********                                              1602
B0101406620273017284001ACCENT MICRO TECHNOLOGIES, INC.                          1605
B0101411110276045887001GARDEN BARN INC.                                         1602
B2001400290315080808001RAMAS-UYPITCHING SONS, INC. (RUSI)                       1601
B2001400290315638201001HO, NELLA OR HO, EMMANUEL                                1603
B0101402510341035683001CEU - PHARMACY STUDENT COUNCIL                           1601
B0101409050352031646001DELTA EARTHMOVING, INC.                                  1610
B0101409050352031646002DELTA EARTHMOVING, INC.                                  1610
B0101409050352043882001NONITO SHOES AND BAGS SUBCONTRACTOR                      1605
B0201400890376036898001GOOD HARVEST FLAVORS AND SPICE CORP.                     1603
B2401400180411043569001PHOENIX UNIVERSAL MEGA GAS STATION                       1605
B0501400170481005408003REPUBLIC COURIER SERVICE INC.                            1603
B0501400170481015881001TOYOTA DAGUPAN INC.-2                                    1610
B0101407430503015295001PC SUPPLIES, INC.                                        1603
B0101405940512522097001BISTRO LEGASPI & COFFEE INC.                             1604
B0101404000551038493001TKKK RESTAURANT CORPORATION                              1605
B2201400250561016174001NAY'S HOUSE INCORPORATED                                 1601
B0101404680651029207002FORTUNE GAS CORPORATION                                  1604
B0101407560686040555001*************                                            1605
B0101408240711028488001INTAS DESTINATION MANAGEMENT INC.                        1605
B1601400170000000036013MULTI-TECH INDUSTRIAL AND ENGINEERING                   11601
B1101400120000000652391ONG, VIRGINIA PO OR ONG, WEE CHI PO OR                  11603
B0101411660000000751531MICHAEL DOMINGUEZ AND XERZEST MANALO AND                11601
B0101405490000001092466MARIBEL C. ESPINA DBU ABRN TRUCKING                     11602
B0601400100081032338001SAINT EMILIANA ACADEMY OF EXCELLENCE,                   11601
B2601400270302045063001ISABELA UNITED DOCTORS MEDICAL                          11620
B5501400120410636179088CHIU, VALENTIN & JULIA & CHRISTIAN &                    11602
B0101406590662042414001R.U. AQUINOP, PRISMODIAL, RCDG                          11601
B1601400170000000036013SUPPLY COMPANY                                          21600
B1101400120000000652391ONG, WAN LIAN PO                                        21600
B0101411660000000751531SANDY DELA PENA                                         21600
B0101405490000001092466SERVICES                                                21600
B0601400100081032338001INC.                                                    21600
B2601400270302045063001CENTER, INC.                                            21600
B5501400120410636179088CHRISTEL                                                21600
B0101406590662042414001CONST CORP JV                                           21600
B0101405230332821100608**********                                               2002
B0501400170481821100608**********                                               2005
