A3001400130000000068284VELEZ, CHIQUI JACELA                                     0501
A0101406590000000131717MONDRAGON, GLORIA FERNANDEZ                              0501
A1401400110000000132841*******                                                  0501
A0601400360000000225352TULABOT, BENEZA CENIZAL                                  0501
A0101404680000000384263BALUGA, GEMMA JANIER                                     0501
A0101409890000000437325UY, CECILLE VIARDO                                       0502
A0101407560000000477787CAI, SHENG                                               0502
A0101410140000000482735CRUZ, MA CARINA MULDONG                                  0501
A0101413600000000651001NORAJANE B. COLOS                                        0501
A0101408820000000713222MARILYN PANCEPANE                                        0502
A0101400150000000806677EMELITA PURISIMA                                         0501
A0101409180000000874700ANGELES, YDELAN UNLAGADA                                 0501
A0101414120000000875696GALINDON, ROLANDO DARAUAY                                0501
A0101414120000000875914NHOEL JR. CONSTRUCTION                                   0501
A0101413020000000880400NOCUM, HERMIE ERICK LLESES                               0501
A0101413020000000880422LIM-ESTOROSOS, VICKYLYN CHUA                             0501
A0101403450000000889341PATENIO, MARI JANE ESQUERRA                              0501
A0101412050000000890853ANTONIO, MARIA CHRISTINA SUAN                            0502
A0101401250000000907211CORRALES, RITA M.                                        0501
A0101401250000000907222ANCHETA, ARNOLD ACHANZAR                                 0501
A1001400350000000922138PARDINAN, JULIET GALINADA                                0501
A1001400350000000922149ROA, ALLAN BAGGAY                                        0501
A3001400130000000931351VILLAMOR, DIOSCORO AMANG                                 0502
A1301400340000000980212OLIVETE, FELOMENA MONTANIEL                              0501
A1301400470000001004071FERDINAND U. CRUZ                                        0501
A0101407430000001028922KAREN C. CAMPOS                                          0501
A0101407430000001028933MA. TERESA E. ENRACA                                     0501
A0101412890000001056148**********                                               0501
A0101412890000001056320LICUP, MARIANITA ROQUE                                   0501
A0101401960000001064613**********                                               0501
A0101401830000001140123MASIBAG, FLORICEN CLEMENTE                               0501
A3001400130000001271625SANTIAGO, RICO REYNALDO AMOROSO                          0501
A0101414120000001427630TUGAY, RAMIL TURA                                        0501
A0101413440000001472862ROMERO JR., ERNESTO MANUEL CHEN                          0501
A0101402350000001474302MAMADOD, JUDELIZ PANA                                    0501
A0101402350000001474313MOLINA, JESSA SUMMER PALOMO                              0501
A0101409920000001539431ALCANZARIN, EDITHA NEDRUDA                               0501
A0101407270000001596854CHARISZEL Y. CASTILLO                                    0501
A0101409050000001662379ARGANOSA, SUZETH SARZUELO                                0501
A0101413570000001682566APRIL D. MADRID                                          0501
A0101406620000001686597CUNANAN, JOANNA PAULINE DIMAL                            0501
A0601400520000001706805RANAY, ACENER TARAY                                      0501
A0101404680000001716592MABANGLO, VIRGINIA JUNIO                                 0501
A0101413860000001886866AMIRIL, AMILBAHAL HASSAN                                 0501
A2401400180000001935753CATOLICO, GEMMA COMBATIR                                 0501
A2401400180000001935771GUEVARRA, MARIA RIO BONIFACIO                            0501
A0101401250021349772001********                                                 0503
A0601400100081346053001MACASPAC, ORLANDO ALFONSO                                0502
A0101401960121096152001***************                                          0502
A0101401960121238670001**********                                               0503
A0101401960121348042001YAP, HELEN SY                                            0501
A0101401830141281212001IMELDA G. CABALUM                                        0501
A0101401830141444325004ROUTSON, ELIZA ATIENZA                                   0503
A0101400440161039572046MELVIN D. VILLACO                                        0501
A0101400440161188224002MA. AGNES B. BINAG                                       0502
A0101407270162526932001NATIVIDAD JR., FEDERICO SERVAND                          0503
A0101407270162587936002WILFRIDO G. TIRONA                                       0501
A0101407270162694765001NELSON N. CRUZ                                           0501
A0101401090171197856001JOLINDA VILLANO ALMAZAN, M.D.                            0503
A0101401090171519520002IRENE K. CHIANG                                          0502
A0101401090171642362001BRIAN ANTONY B. GUTIERREZ                                0501
A0101407140213389660001**********                                               0503
A1001400190231478374170ENIOLA, MELODIA                                          0501
A0101406460272393022001GAW, ELIZABETH CHENG                                     0501
A1101400120313478374116MASIN, NANCY KELISTE                                     0501
A1101400120313478374123EBUENGA, JULIE C.                                        0501
A0101402350321478374017RIZA G. SANTOS                                           0502
A0101402350321478374048GLENDA D. ESTRELLA                                       0501
A0101402350321478374058DELA CRUZ, MERLITA GABON                                 0501
A0101408820333340756002ABLAZA, ALEJANDRO CRUZ                                   0501
A0201400760374720031001******                                                   0503
A0101408370382391637001DR. REGINA Y. SANTIAGO-AQUIAS                            0502
A0101402770391029270001RCABAN-SAN ANTONIO DE PADUA                              0501
A2401400180411038544001PALM, INC.                                               0503
A2401400180411410897002LAO, ZENAIDA QUINO                                       0502
A2401400180411478374059ANALITA R. SUICO                                         0501
A0501400170481357950002JASPER SPENCER L. ONG                                    0505
A0101403580511420184003MARIA CAROLINA S. MACASAET                               0510
A0101403450521679548001**********                                               0502
A0101404000551150196001BENEDICTO ORENSE                                         0501
A0101407720602397129001SADILI, MA. ADELINA TOLENTINO                            0503
A0101404260611005236001WILTRON ELECTRONICS                                      0502
A0101404260611337823001MACARIA OR MANUEL TAN                                    0502
A0101404260611478374104JUDITH R LUMBO                                           0501
A0101404420631478374066GLORIA A. CACHERO                                        0501
A0101404680651301458001FRANCISCO, ANTONIO CLEMENTE                              0510
A0101404680651412017001ANA MARIE R. TANARE                                      0501
A0101404680651478374173MARIBEL L. VALDEPENAS                                    0502
A0101404680651520766085LORENA L. REDUTA                                         0501
A0101404680651520766097FLAVIANA T. PAJANUSTAN                                   0501
A0101404680651520766194SUZETTE T. BLANCAVER                                     0501
A0101404680651525001034PABLITO LEGASPI JR.                                      0502
A0101404680651555387001CRISTINA T. JUBILADO                                     0502
A0101404680651639903001BAUTISTA, ANNIGAILE KRIS BAUTIS                          0506
A0101404840851298552056ROSARIO GABAYERON                                        0502
A0101404840851520766148JEANETTE A. QUIROS                                       0501
A0101406750852043541001GRAFIX VENUE ENTERPRISE                                  0502
A0101406750852478374062ZAIDA A JIMENEZ                                          0503
A0901400220000000012324SPECIALIST MOTORCYCLE PARTS &                           10502
A0101401700000000040217DEL MUNDO, E DBU JPA AUTO PARTS                         10503
A1301400760000000050671JEFFREY D. ABESAMIS OR                                  10501
A0101404680000000120167MONIQUE S. ORBETA OR                                    10501
A1601400170000000421069CHARLES P. CLEMENTE III OR                              10504
A0601400230000000452782GOZUN, R-JAY RAMOS                                      10520
A0101414120000000875652PABLITO OR RONALD JOHN OR                               10502
A0101405650000001377260ARCEO, LUCIA L. OR                                      10501
A0301400820000001554912SAGARINO, MARIA CECILIA OR                              10501
A0601400230000001687090GUTIERREZ, JOSEPH MONTES                                10501
A0101414120000001751413SALVADOR J. LAGARE OR EMILIA                            10501
A0101401250021178998001SARILE, FLORIDA PIGAO OR                                10504
A0101400150061420116001ANTERO M. SISON JR. OR MILAGROS                         10510
A0601400100081251801002PANLILIO, AUGUSTO OR                                    10501
A0101408370382408402001DR. RAUL V. DESTURA OR                                  10503
A2401400180411478374027ELLEN PANTUJAN OR                                       10501
A0101407430503385656002JANE R. LIMTONG OR                                      10501
A0101404000551403800001ORTIZ, MARIA ESTELLE EPIFANIA                           10502
A0101407720602363809001DR. MICHAEL SABALZA OR                                  10502
A0101404680651525001027GERRY M. PEPITO OR                                      10501
A0101404680651544006001MYRLA B. ALFARO OR                                      10502
A0901400220000000012324ACCESSORIES, INC.                                       20500
A0101401700000000040217CENTER                                                  20500
A1301400760000000050671CINDY F. ABESAMIS                                       20500
A0101404680000000120167SOZON KOKKINARAS                                        20500
A1601400170000000421069CHARLES L. CLEMENTE JR.                                 20500
A0601400230000000452782OR GOZUN, MYRNA RAMOS                                   20500
A0101414120000000875652PRINCESS JOY OR FE OR LEA                               20500
A0101405650000001377260ARCEO, NOEL REMIGIO L.                                  20500
A0301400820000001554912SAGARINO, JOSE JIMMY                                    20500
A0601400230000001687090OR GUTIERREZ, MARLENE E.                                20500
A0101414120000001751413V. LAGARE                                               20500
A0101401250021178998001SARILE JR., ALBERTO V.                                  20500
A0101400150061420116001SISON OR ARLENE                                         20500
A0601400100081251801002PANLILIO, MARIE                                         20500
A0101408370382408402001BABY ASUNCION B. DESTURA                                20500
A2401400180411478374027ELMER PANTUJAN                                          20500
A0101407430503385656002TONY U. LIMTONG                                         20500
A0101404000551403800001GARCIA                                                  20500
A0101407720602363809001DR. MA. JO ANN SABALZA                                  20500
A0101404680651525001027MYRNA C. PEPITO                                         20500
A0101404680651544006001ALEXANDER E. ALFARO                                     20500
B2801400100000000004877ADVANCE MICROSYSTEMS SUBIC INC.                          1602
B2801400230000000008324J-A-N-B-Y MARKETING CORPORATION                          1601
B0601400360000000025794CAMBODIAN PEPPER COMPANY INC.                            1602
B0101411080000000026235 *****                                                   1601
B0101402350000000046108ABSOLUTE INDUSTRIAL SOLUTIONS, INC.                      1601
B0101404680000000095710MVG HARDWARE                                             1601
B0101410980000000171986********                                                 1601
B0101410980000000172052REAL VISION PROPERTY SOLUTIONS INC.                      1601
B0101413600000000206926GPRS-UNIFIED PRODUCTS AND SERVICES INC.                  1601
B0101406590000000905657BRAINCHILD SIX INC.                                      1601
B4101400260000001198892PHOENIX READY MIX CONCRETE DEV. & C                      1605
B4101400260000001198916FIRST SOLID BUILDERS, INC.                               1605
B0101401250021036577001PINEAPPLE BOOKSTORE                                      1605
B0101401700041007416001**********                                               1603
B0101401700041475686001MULTIMOTORS AUTO PARTS INC.                              1605
B0101400150061044903001I-GATEWAY MOBILE PHILIPPINES, INC.                       1603
B0601400100081013321001BIO-TECH MARKETING CORPORATION                           1605
B0101407270162032578001I.LEARN.CENTER INC.                                      1602
B0101407270162033286001DESIGN.STUDIO INC.                                       1602
B0101407140213279335001JOSE MANUEL D. UY                                        1601
B0101406620273031145001KOHL INDUSTRIES CORPORATION                              1603
B0101406620273031145001KOHL INDUSTRIES CORPORATION                              1603
B0101400570281035080001LEGEND OF ICE RECRUITMENT & SERVICES INC                 1603
B0101409180397044045001CACHO CONSTRUCTIONS, INC.                                1602
B1201400150421035585001HOTEL COSMOPOLITAN                                       1601
B1401400110492038082001MT. BANAHAW HEALTH PRODUCTS CORPORATION                  1602
B0101403580511046747001HUDDLE ROOM MEDIA INC.                                   1602
B0101404000551005037001CONRAD & SONS REALTY INC.                                1605
B1301400210682040563001ACTISERVE CORP.                                          1606
B0101404840851042694001YILIN FASTFOOD VENTURE INCORPORATED                      1605
B0601400230891043090001HAIMA CARS CORPORATION                                   1603
B0101404000000000461027CALVELO, FELIPE DBU CALVELO ENGINEERED                  11602
B0101401830000001282213TORRES, DENICE FLORES AND                               11601
B0601400100081035852001LIBERATO T. REYES & ASSOCIATES,                         11602
B0101407270162008543001INTERNATIONAL HEAVY EQUIPMENT                           11610
B0101404000000000461027SYSTEMS                                                 21600
B0101401830000001282213ROBLES, JENNIFER                                        21600
B0601400100081035852001CPA                                                     21600
B0101407270162008543001CORPORATION                                             21600
B0101401830141821100608**********                                               2002
B0101400310211821100608**********                                               2002
B0101404000551821100608**********                                               2005
