A0101409920000000022088ASUNCION, MARILYN JUANEZA                                0501
A0101402480000000028082BARRIOS, NELIA                                           0502
A0101408240000000039741LIM, VENUS LOURDES ARANAS                                0501
A1301400760000000050499PAOLO'S TRUCKING                                         0505
A2601400270000000084342MARILOU C. MALLAVO                                       0501
A2601400270000000084400MARILOU A. TOQUERO                                       0501
A1001400190000000124643PELINGGON JR., ROLANDO VILLANUE                          0502
A1001400190000000124683ABCEDE, CARMENCITA A.                                    0501
A0301400660000000194570DEQUITO, CITZY VENTOR                                    0502
A0101408790000000210937YAP, MARK GRANT TERRIBLE                                 0501
A0101407560000000477754DELA CRUZ, CARLOS OR LORENZA                             0502
A0101405070000000541677BRAGANZA, NORA BALLARES                                  0501
A4101400420000000710347MADALI, WENSIE MOLINA                                    0501
A4101400420000000710358MADALI, WENSIE MOLINA                                    0501
A0101403320000000735933MA. FLORES O. RIVERA                                     0501
A0101401090000000772372EVELYN MANGUBAT SERADOR                                  0501
A0101408950000000776621VISTA, EMMERSON GALE SILVERIO                            0501
A0101410850000000778758PEREZ, ANNA NERISSA BAUTISTA                             0501
A0601400520000000786432ESPINO, AILENE BULANADI                                  0502
A0101402930000000859667RIOVEROS, MAY ROMERO                                     0501
A0101404680000000862204LAGRIMOSA, LOIDA TONGPO                                  0501
A0101413310000000863981GUEVARA, DOMINGO JUAN SEBASTIAN                          0501
A0101405070000000868599DE JESUS, DESIREE DELA CRUZ                              0501
A0101414120000000875696GALINDON, ROLANDO DARAUAY                                0501
A0101403450000000889443********                                                 0501
A0101403450000000889472**************                                           0501
A0101412050000000890762TORRE, PATRIA ARIVE                                      0501
A0101412050000000890831CANDA, JOAN CASTRO                                       0501
A0101412180000000908441EBIO, NELLEN DIAZ                                        0501
A0101408790000000931060CUESTAS, NEIL BARAIRO                                    0501
A0101404840000000943260AGOSTO, ANALYN HAYAHAY                                   0501
A0101404840000000943391MARIA CRISTINA MANGOSING                                 0501
A3801400170000000955102LEO CALDERON FERNANDEZ                                   0501
A4101400260000000974089BONGLO, JAIMIE LOUISE MIGUEL                             0501
A4101400260000000974090SANTOS, EDWIN PALAD                                      0501
A4101400390000000975231RIETA, BENEDICTA IBIAZ                                   0501
A4101400390000000975260BAUTISTA, RUSSEL DBU RUSSELL'S                           0501
A4101400390000000975271GERNALE, MARICON DBU BHIM'S EAT                          0501
A4101400550000000981740REYES, RUBY ROSE VINUYA                                  0503
A0101409920000000998792ALCANTARA JR., WILSON DIMANARIG                          0501
A0301400820000001006682TONGCOS JR., BERNARDO D.                                 0501
A0301400820000001027985MOON, JOYCELINE D.                                       0502
A0101408240000001038653CASING, IRENE TOMENIO                                    0501
A2401400180000001049781BABAN, JENNELYN BASOLGAN                                 0501
A0101413310000001073643SANTOS, JAYPEE MAG ATAS                                  0501
A0101413310000001073654********                                                 0501
A0101410140000001074555MANALO, TERESITA BAUTISTA                                0501
A0101402480000001099703********                                                 0501
A0101408400000001213596HERNANDEZ, MERLITA GAYTA                                 0501
A0101408400000001213610DAPITO, ZORAIDA VALDERAMA                                0501
A0101405070000001256491SANCHEZ, JUNE REYES                                      0502
A0101405070000001256519CASAPAO, RICCA REYNOSO                                   0501
A3001400130000001271363PALUCA, LIZA MORAL                                       0501
A0101407560000001276080FULLER, BRIAN GUACA                                      0501
A0101407560000001276091ULEP, JOEL JOHN MASIGLA                                  0501
A0101410560000001290911CATUBAY, NICOLAS OCAMPO                                  0501
A0101414120000001427543DALIDA, MANUELA GASCO                                    0501
A0101400440000001439732ANALY M. VILLARMA                                        0501
A0101412630000001485172ARCILLA, FE INFANTE                                      0501
A0101408790000001486171CHAO, CARL FALLER                                        0502
A0101408790000001486182MINA, AILEEN BEO                                         0501
A0101408790000001486193DIMALANTA, ANDREA FERNANDO                               0501
A0101401090000001611245ESTORCO, EVELYN SIA                                      0501
A0101401090000001611256VIRGENES, MERLA AVELLANO                                 0501
A0101408400000001614626CANCE, HERMENEGILDO D.G.                                 0501
A0101408400000001614648VILLANUEVA, MERLIN ACANA                                 0501
A0101401250021698692001ROCELIE M. PALMOS                                        0501
A0101400150061039916159RAGO, ENGRACIA                                           0502
A0101400150061039917062AUREA MARIN                                              0501
A0101400150061228148001NENITA A. PENIANO                                        0501
A0101400150061430140001**********                                               0501
A0101400150061442787002CALLEJA, ROSELYN DOLINDO                                 0501
A0101400600071457180001**********                                               0501
A0101400600071496801001********                                                 0501
A0601400100081028046001TANDEM INTERIOR DESIGN STUDIO                            0505
A0101400730111026563001ACE INSURANCE & SURETY SERVICES                          0504
A0101401960121378813001**********                                               0501
A0101400440161459294001MARY ANN T. REGINALDO                                    0502
A0101407270162587936002WILFRIDO G. TIRONA                                       0501
A0101401090171035426001BIG MARTHA ENTERPRISES                                   0510
A0101401090171349823001LEAH ANN S. SARMIENTO                                    0501
A0101401380201500598001CARREON, DAISY FONG                                      0501
A0101401380201667031001TRINIDAD, HENRY GOLIMLIM                                 0501
A0101400310211507859001GAYLON, IRES DOCULAN                                     0503
A0101407140213395404001CHUA, EMMELINE JOYCE ONG                                 0501
A3001400130230478374004BALABA, JANETH BORJA                                     0501
A3001400130230767566049INDO, MARLOWE SOTTO                                      0501
A1001400190231478374086LORNA A. OMANDAM                                         0502
A0101400570281742045002**********                                               0502
A2601400270302567227001ROSITA TAN VALLE                                         0502
A1101400120313478374110GADORES, BARBARA S.                                      0502
A0101402480331291927001**********                                               0505
A0101402480331354947001*****                                                    0502
A0101402480331478374098VILLAFRIA, JOCELYN A.                                    0502
A0101408820333478374047MARILOU T. GO                                            0501
A0101408820333478374059********                                                 0501
A0201400760374625964001SOLON, ENRICO MENDOZA                                    0501
A0101408400394478374063LACSON, MARITES                                          0502
A0101408400394478374090MARY DUMASLAN                                            0501
A0101403030441241050001**********                                               0503
A0101412890470674791001SYLVIA P. OPINION                                        0501
A0101403320471478374071SALENCIA OPIANA                                          0501
A0501400170481409728004ANG, JUSSLYNN MAISIE ONG                                 0501
A1401400110492735105001DESEMBRANA, AMELITA SALAZAR                              0501
A0101408530516693667001GABRIEL JR., DOMINGO SARREAL                             0501
A0101403450521238628001**********                                               0501
A0101403450521791474001********                                                 0501
A0101410690600090990001PASTOR, MARK STEVEN CO                                   0501
A0101404680651493101001JEFFREY JOHN C. GUTIERREZ                                0502
A1301400210682782329001IMELDA R LANUZA                                          0501
A0101407560686347562001**********                                               0501
A4101400260812032880001WE'LL CARE BUILDER & CONSULTANC                          0503
A4101400260812035893001SGI TRADING                                              0501
A4101400260812478374031ANGELINA P. TAN                                          0501
A4101400420814520766012SUSAN B. MALBOG                                          0501
A4101400420814520766114BAYER, LOWELYN C.                                        0502
A0101406750852204456001TERESITA DIALOLA                                         0501
A0101406750852388877001LAMBUSON, MARIA AGNES PENAMANTE                          0501
A0101406750852478374118RUBY FLAVIER                                             0501
A0101405070861008886002AD INT'L. SS & MS                                        0510
A0101405070861478374067TIRSO M. ARROJO JR.                                      0501
A0101405070861478374086MARLYN C. GABEST                                         0501
A0101405070861778105001CADEVIDA, SIMEON MEDRANO                                 0501
A0601400230891539871001MALONZO, EDUARDO PATAWARAN                               0505
A0101410300000000191939CARBALLO, LUIS ANTONIO S. OR                            10505
A1601400170000000421161GEORGIA SOFIA GIMENEZ-LUISTRO                           10505
A0101405940000000506001GARCIA, ANTONIO JOSE KAHN                               10501
A0301400950000000566730CASTRO,MARY ANNE A. DBU SMART                           10503
A0101408240000001038642CABERO, EMILIE PAGULAYAN OR                             10501
A0101400570000001134212GERRY C. ABANILLA                                       10501
A0101410980000001154483TAN, AILEEN GAN OR                                      10502
A0101414120000001427532SABINIANO, MARIVIC G. OR                                10501
A0101401250021094393001ALCORIZA, ROSANIE V.                                    10505
A0101400150061227644001JOSEFINA T. GUTIERREZ OR                                10502
A0601400100081424085001ALAPAG, JASMINDA B. OR                                  10502
A0101401960121327478001AIDA MEDEL                                              10502
A0301400660194044267088CVD CALTEX STATION / CITZY V.                           10502
A1001400190231520766045BALBERAN, FLORA ABOY OR                                 10501
A1301400760253087654001CATHERINE F SANVICENTE OR                               10505
A0101408820333168060001MORDENO, AGUSMAR OR                                     10501
A0101402060351009359003JIANDANI, SURESH G. OR                                  10501
A0101409050352734686001LYNDON J. TABLANTE OR                                   10502
A0101402930381209054001BENJAMIN S. A. CAMPOMANES, JR.                          10501
A0101402930381364974001GEOFFREY TSE WEI CHEN OR                                10501
A0101402930381575372001ROGEN B. REYES OR                                       10504
A0101408370382042090001COLORECTAL CARE CLINIC AND                              10501
A0101408370382399866001EDWARD L. TAN OR                                        10505
A0101408370382433152001DR. ARSENIA V. CRUZ OR                                  10503
A0101412890470091580001EUFRACIO M GUTIERREZ JR OR                              10501
A0101407430503181551001DICKSON R. ESCOLAR OR LOURDES                           10501
A2201400250561792526001BENNER L. CUBACUB OR MARY ROSE                          10501
A0101407720602397820001SIBAYAN, SANTIAGO ANTONIO B.                            10501
A0101407720602421097002JOSEPH A. CORDERO, M.D.,                                10502
A1301400210682465152001MA. GLORIA T. DE JESUS OR                               10502
A0101408240711469368001CAGANDA, ANTERO JOSE MADARA                             10501
A4101400260812246527001ISIDRO B. DELA CRUZ JR. OR                              10510
A4101400420814436355001BAUTISTA, LOIDA U. OR                                   10502
A0101404840851298552067EMERENCIANA P. BOMBAY &/OR                              10501
A0101404840851298552067EMERENCIANA P. BOMBAY &/OR                              10501
A0101406750852181208001LOLITA P. JIMENEZ OR ELIAS B.                           10501
A0101406750852620298001EMILY COLINA OR DOMINGO                                 10501
A0101405070861596150001JACKIE LOU D. GAITE AND                                 10503
A0101410300000000191939SALAZAR, EMMANUEL B.                                    20500
A1601400170000000421161OR LUISITO B. LUISTRO                                   20500
A0101405940000000506001OR CORDERO, NINALYN S.                                  20500
A0301400950000000566730PIXEL ADS                                               20500
A0101408240000001038642CABERO JR., CAMILO                                      20500
A0101400570000001134212DBU LAIYA GRILL                                         20500
A0101410980000001154483LAM, MARIE ANNE GAN                                     20500
A0101414120000001427532DE JESUS, VINA TERESITA V                               20500
A0101401250021094393001AND PANOL, CATHERINE A.                                 20500
A0101400150061227644001MA. REGINA PAZ G                                        20500
A0601400100081424085001ALAPAG, MARCELINO                                       20500
A0101401960121327478001OR ROD MEDEL                                            20500
A0301400660194044267088DEQUITO                                                 20500
A1001400190231520766045BALBERAN, BERNAR                                        20500
A1301400760253087654001VINCENT PAUL P SANVICENTE                               20500
A0101408820333168060001MORDENO, ALICIA                                         20500
A0101402060351009359003JIANDANI KAVITA                                         20500
A0101409050352734686001KIMBERLY TABLANTE                                       20500
A0101402930381209054001OR MA. MILAGROS YUCHICO                                 20500
A0101402930381364974001GAYNARDIA K. LAO                                        20500
A0101402930381575372001JO ANN P. REYES                                         20500
A0101408370382042090001SURGICAL SPECIALIST GROUP                               20500
A0101408370382399866001MA. MONICA CARDINEZ-TAN                                 20500
A0101408370382433152001MR. ARMANDO E. CRUZ                                     20500
A0101412890470091580001JONA R GUTIERREZ                                        20500
A0101407430503181551001OR MARY ANN ESCOLAR                                     20500
A2201400250561792526001B. CUBACUB                                              20500
A0101407720602397820001OR SIBAYAN, SUSAN                                       20500
A0101407720602421097002F.P.C.S.                                                20500
A1301400210682465152001  JOSE C. DE JES                                        20500
A0101408240711469368001OR JEANZIE LEE                                          20500
A4101400260812246527001LILIAN H. DELA CRUZ                                     20500
A4101400420814436355001BAUTISTA, EPITACIO                                      20500
A0101404840851298552067JEREMY P. BOMBAY                                        20500
A0101404840851298552067JEREMY P. BOMBAY                                        20500
A0101406750852181208001JIMENEZ                                                 20500
A0101406750852620298001COLINA JR                                               20500
A0101405070861596150001TERENCE OLIVER A. AGUILOS                               20500
B0101405940000000002739********                                                 1601
B0101411790000000005370RE'DIS GLOBAL CORP.                                      1601
B0101401830000000033627CARITAS SALVE CREDIT COOPERATIVE                         1602
B0101401830000000033649CARITAS SALVE CREDIT COOPERATIVE                         1602
B0101408950000000036768AT 55 PAYMENT SOLUTION CORPORATION                       1601
B1701400230000000097949NORTHPOINT ALLIANCE MOTORS CORPORAT                      1601
B0101402480000000310363INOZA INDUSTRIES INC.                                    1610
B0101402480000000794463****************                                         1602
B0101405940000000886739GLOBAL ACADEMIC CENTRE                                   1601
B0101400150061043646001ARRAKIS HOLDINGS, INC.                                   1602
B0101400600071234351001**********                                               1603
B0101400600071325133001**********                                               1602
B0601400100081254239001CABRERA, CHRISTIAN OR CYNTHIA                            1601
B0301400660194044769038LUMINOUS DEVELOPMENT CORPORATION                         1605
B0101401380201018537001VELUZAR(PASAY) INC.                                      1601
B0101401380201039122001BROMA CORPORATION                                        1602
B1001400350233037895001CEBU SOUTHERN MOTORS, INC.                               1610
B0101401670271041791002A PI SQUARE KINDER SCHOOL INC.                           1602
B2001400290315047753001SILLIMAN UNIVERSITY COMMUNITY COOP.                      1610
B0101402480331010240002*****************                                        1610
B0101402480331044325001SAV COMPANY LTD. ( SAVORY CUISINE )                      1605
B0201400760374036911001CEBU ATG REALTY DEVELOPMENT CORP.                        1601
B0201400920375042734001A. LIM DEVELOPMENT INC.                                  1602
B0101402930381008880001AIRTIME MARKETING INC (PHILS.)                           1610
B0101402930381321280003S.D. FLORES CORPORATION                                  1601
B0101402930381794289001ACCURACY INTERNAL BUSINESS SOLUTIONS INC                 1602
B0101405490392033129001N.S.B. ENGINEERING DESIGN & FABRICATION                  1615
B0101408400394027943001BEST DEAL FOOD CORPORATION                               1605
B0101408400394028560002NEW LIFE CHRISTIAN CENTER (THE FORT) INC                 1602
B0101408400394032168001ALQUIROS FOOD CORPORATION                                1603
B0101408950396043161001ST. LUKE'S GLOBAL CITY -TRAUMA TEAM                      1602
B0101409210398043396001PIN HIGH GOLF SHOP                                       1603
B0101403450521046801001*******                                                  1601
B0101407720602035342001MULTI-ACCESS COOPERATIVE                                 1605
B0101404840851047695001UNI 1 GLOBAL MKTG. CORP.                                 1610
B0101401380201041467001D' GREAT ROVERS EVENTS                                  11602
B0101402480331041656001PHILIPPINE PLASTICS INDUSTRY ASSOCIATION                11601
B0101408400394047325001VICLOR MICROLENDING INVESTOR                            11603
B0101407720602005906001ASSOCIATED MEDICAL & CLINICAL                           11610
B4101400420814029033001ANADECO PROVINCIAL PHARMACEUTICAL                       11601
B0101401380201041467001MANAGEMENT                                              21600
B0101402480331041656001INC.                                                    21600
B0101408400394047325001CORPORATION                                             21600
B0101407720602005906001SERVICES, INC.                                          21600
B4101400420814029033001FOUNDATION INC                                          21600
