F0101408370382026159001BREWCREW, INC.                                           2502CKO
F0101404130601580160001CABRERA, TERESA CAMPANA OR                              12501CKO
F0101404130601580160001SYREN JR., WESLEY                                       22500CKO
F0101410690000000001850COLOR1DIGITAL, INC.                                      2603CKR
F0101407140213026129001ECE PHARMACEUTICALS, INC.                                2602CKR
F1201400150421017589003CJH HOTEL CORPORATION                                    2605CKR
F0101404260611024484001FULBRIGHT SCIENCE SCHOOL CORP.                           2601CKR
F3101400320222029970001SANTAROSA ESTATES 2 HOMEOWNER'S                         12601CKR
F3101400320222029970001ASSOCIATION, INC                                        22600CKR
