A0101403450000000009801**************                                           0502
A3801400170000000018891ALBERT UY NERIA                                          0501
A0101400310000000019463CORRALES, SHARLA CARLA PUNTILAR                          0501
A0301400530000000025356VICTORY JAM AGRI BUY & SELL                              0502
A0101404420000000026053ARGUELLES, DAISY CRUZ                                    0501
A0601400100000000032497VALENCIA, MISAEL TORNO                                   0501
A0101408660000000059829JALANDONI, JOSELITO PURIFICACIO                          0501
A6601400120000000060671BAER, CECILIA VILLAMONTE                                 0501
A0101405940000000061696QUINTOS, ROSELLA ORIVIDA                                 0501
A2801400230000000063129TUBLE, MA. TERESA CABRERA                                0501
A0301400530000000065785PARRO, MARICEL F.                                        0501
A3101400870000000074731KARUNUNGAN, RUBY DBU SKY FOOD A                          0501
A3101400870000000074811ARAPAN, VIVENCIO AGUPITAN                                0501
A0101403450000000135522***********                                              0501
A0101406620000000193771CASERO, PHILIP SALVADOR                                  0501
A0101402640000000201970CUADRA, EUGENE CRISDEO RAMOS                             0501
A0101402640000000202035DIVINA, SAMELA LEELIN                                    0501
A0101402640000000202046VILLEGAS, DENNIS SANTOS                                  0501
A0101413570000000206419**********                                               0501
A0101413600000000206766ALIZA, GILDA DADIVAS                                     0502
A0101413600000000206777BALINAS, EFREN ALIBADBARIN                               0501
A1301400500000000212973R AND B HEALTH CARE TRADING                              0501
A0101412210000000238522QUERODA, MARICRIS ILAGAN                                 0501
A0101407720000000245225MORENA, RAUL CHRIZALDO ELISES                            0501
A0101404840000000254511EVA PLATERO                                              0502
A5501400120000000265850SUENO, ISMAEL JADE BERNARDO                              0501
A0101410560000000268400MACAJELOS SR., GEORGE EPARWA                             0502
A0101412920000000276362PENIALBER, MARK ANTHONY ORTALIZ                          0501
A1301400340000000293652DELA CRUZ, JOSEPHINA FORTEZA                             0501
A0301400820000000316681CELIS, WILMA F.                                          0501
A0101400440000000337659DE VERA, LORIBETH BAMBO                                  0501
A0101405490000000355582MA. TERESA V. DE GUZMAN                                  0501
A0101402770000000360785BETANIA, PO DBU LBAJ ENTERPRISE                          0501
A1601400170000000421230MERLY F. BANIA                                           0501
A0101401250000000460495PETALIO, CYNTHIA HERNANDEZ                               0502
A0101411400000000484559ANICO, IAN DIPACULA                                      0501
A0101405650000000525933PALOMARES, ROBERTO CONCEPCION                            0501
A1301400210000000540834******                                                   0501
A2601400270000000561642ROMINA FRANCESCA C. MOLINA                               0501
A0101410560000000590567SABAR, MARY GRACE BACONGAN                               0501
A1001400480000000606820VARQUEZ, GLADYS LUSTRE                                   0501
A1001400480000000606831VALDEHUEZA, KENT VAN OCERO                               0504
A0101413440000000702123SARET, LIGAYA MEDINA                                     0505
A0101413440000000702225PAPA, EDWARD GACOSTA                                     0501
A2001400290000000724721TRASMONTE, JEANETTE BANGALANDO                           0501
A2001400290000000724732BALDADO, GIOVANNIE CADIENTE                              0501
A0101412630000000801409YBANEZ, JOEL GERABAS                                     0501
A0101400150000000806724CALICDAN, JAYSON M.                                      0501
A0101400860011035923001**********                                               0502
A0101400860011393233002**********                                               0505
A0101400860011396464001**********                                               0503
A0101400860011479505001**********                                               0505
A0101400860011488357001*************                                            0502
A0101400860011504377002**********                                               0503
A0101400860011514595002**********                                               0502
A0101400860011529339001**********                                               0502
A0101401250021468980001GENELYN C. CARTON                                        0501
A0101401250021478374017BATILDA G. ALOTA                                         0501
A0101401700041386485001MA. SONIA DINO                                           0501
A0101400150061077965057RENATO DEL ROSARIO JR.                                   0501
A0101400150061227037001ELMA CASTILLO                                            0503
A0601400100081251829001FELICIANO, EREDITO OR ROSA ANA                           0502
A0601400100081572327001PONCE, AILEEN OR ROBERTO JR.                             0502
A0101400730111347787002CHAVEZ, LYNN FLORENTINO                                  0501
A0101400730111478374179MARIA LUISA S. TRUJILLO                                  0501
A0101400730111505403001GUEVARRA, FE DELA ROSA                                   0501
A0101400730111589333001LINACERO, MARJORIE MILITAR                               0501
A0101406040112456681001ARNOLD M. MALTU                                          0501
A0101401830141206962001MARIA D. VALIENTE                                        0501
A0101400440161525001115EVA D. SAMILLANO                                         0501
A0101407270162351252001WILFREDO C. CUEVAS                                       0501
A0301400530193047804088**********                                               0502
A0301400530193585849001COSMENO, MARINEO C.                                      0502
A0301400530193778099001GARLEY, LEAH ROSETTE N.                                  0501
A0301400530193789822001ABASOLO, ANAFE A.                                        0510
A0101400310211722479002MARTICIO, BONIFACIO CUACHIN                              0501
A0101400310211753220001GERMABI CORPORATION                                      0502
A3101400160221533264001RONALD E KEMPIS                                          0502
A3101400740224085078001BALILO, SHERNAN VELASCO                                  0501
A1001400190231520766042GEOTORO, INES MANGUILIMOTAN                              0501
A1301400470252508219001ARACELI S. ANG                                           0504
A1301400470252574644001JERRICO QUIPSE VALINO                                    0501
A1301400470252634995001LOUISE L. ANG AND LOED L. ANG                            0510
A0101401670271794897001SIAN, VENERANDA PEDRALVEZ                                0501
A0101406460272392629001MALVAR, MA. ELIZABETH GUANZON                            0502
A0101406620273306796008OSCAR B. BIASON                                          0501
A0101400570281491697001LAXAMANA, EFREN CORTEZ                                   0505
A2601400270302557854001ANGELITO OR AGNES MELEGRITO                              0501
A2601400270302567227001ROSITA TAN VALLE                                         0501
A0101402350321478374059BERNARDITA D. LOPEZ                                      0501
A0101402350321638505001******                                                   0502
A0101405650322412858004GANDOL, ARSENIA BALANE                                   0502
A0101408820333478374047MARILOU T. GO                                            0502
A0101402510341441640001TAN, WILLIE LO                                           0501
A0101402640361478374067GILDA A. ALCANO                                          0501
A0101402640361478374071RANIEL B. CALIPES                                        0501
A0101402640361685216001DIONISIO, LONA ALON                                      0501
A0201400760374478374011ALMENE, MA. LOPER RUIZ                                   0501
A0101402770391357148001JOSE HAWKINS CHUA                                        0501
A0101402770391383276019JOSE H. CHUA                                             0501
A0101412210399094817016MARTIN G. ZAMORA                                         0503
A2401400180411478374059ANALITA R. SUICO                                         0501
A2401400180411537301001**********************                                   0503
A0101410140475478374011MEMBERS OF NATASHA (SHOECAT INC                          0501
A0501400170481468771001CHU TAN, WINSTON LALATA                                  0502
A0101405940512666891001ADAN, RONALDO PALENCIA                                   0501
A0101408530516578215026SABAL, CRISTOPHER VENTURA                                0501
A0101403450521017769001**********                                               0502
A0101403450521237287001*********                                                0502
A0101403450521402316001************                                             0501
A0101407720602277703001GUIA AVECILLA                                            0502
A0101407720602453904001ROSAS, NOEL LANETE                                       0502
A0101404260611478374099TERESITA DOLLOPAC                                        0502
A1301400340683776169001BARAQUIEL, JOCELYN LIM                                   0502
A0101408240711316584001ARCHES, JIMMY BOY SANTOS                                 0501
A4101400260812389433001SHIRLEY H. VIRATA M.D.                                   0501
A4101400390813041094001BUNGCASAN FOODS SERVICES                                 0502
A4101400420814298552017LISA A. CLORES                                           0501
A4101400420814478374025RICHEL T. PALGAN                                         0501
A4101400550815643498001TATTAO, GRACE ARELLANO                                   0501
A0101405070861199614001CRISTITA C. PANGILINAN                                   0501
A0301400530000000066113RUDELA, JIVIR S. OR                                     10510
A0301400530000000066124LICAYAN, PRINCE LLOYD M. OR                             10505
A0101408240000000522001OROBIA, JOSE RAMON INUMERABLE                           10501
A0101409920000000523562MEMBERS OF NATASHA (SHOECAT INC                         10501
A1001400480000000606791WILCARE TRANSFORMER AND                                 10501
A0101412630000000801392MENDOZA, EMMANUEL JASON                                 10502
A0101400150061584819001RELLOSA, HORACIO MIJARES                                10503
A0101401830141280850002ANUNCIACION, EVELYN HERNANDEZ                           10501
A3101400160221220150002ANGELITO LAZARO OR MARCIANO PUA                         10502
A1901400290261244345001FERNANDO C GO OR LUCY S GO                              10502
A0101405650322779204001GINETE, PATRICIA JOYCE B.                               10501
A0101408370382432851001DR. FELITA C. LUCENA OR                                 10510
A0101404680651419570001LILIBETH L. IGUICO OR                                   10501
A0101404680651527290001MARIO E. SORIANO OR                                     10510
A0101404680651543781001ROGELIO R. MANALANG OR                                  10501
A1301400210682345728001DR. SEVERINO DE GUZMAN JR. OR                           10501
A2801400230713045955001LITTLE SCISSORS UNISEX SALON                            10501
A0301400530000000066113RUDELA, ANALYN C.                                       20500
A0301400530000000066124LICAYAN, ZANAIDA M.                                     20500
A0101408240000000522001OR OROBIA, ANNA KRISTINE                                20500
A0101409920000000523562PALERO, NENITA                                          20500
A1001400480000000606791ELECTRICAL SERVICES                                     20500
A0101412630000000801392TAJONERA                                                20500
A0101400150061584819001OR RELLOSA, MA. LYNN                                    20500
A0101401830141280850002OR ANUNCIACION, RICO H.                                 20500
A3101400160221220150002OR LEONILO ERCIA                                        20500
A1901400290261244345001OR ALDWIN S GO                                          20500
A0101405650322779204001GINETE, FERDINAND L.                                    20500
A0101408370382432851001LEMUEL V. LUCENA                                        20500
A0101404680651419570001ALLAN G. IGUICO                                         20500
A0101404680651527290001MARLON P. SORIAN                                        20500
A0101404680651543781001YOLANDA L. MANAL                                        20500
A1301400210682345728001  DRA. VIOLETA DE GUZMAN                                20500
A2801400230713045955001RONNIE B. RUIZ                                          20500
B3101400160000000006577INSTITUTE FOR FOUNDATIONAL LEARNING INC                  1602
B0101411080000000026337MEYCAUAYAN WAREHOUSE LESSOR INC.                         1602
B0101411080000000026348DOXO INGREDIENTS INC.                                    1602
B0101411080000000026359TECHNOBLEND, INC.                                        1602
B0101405070000000028908STAR LADY RESTAURANT AND CLUB INC.                       1601
B0101409210000000031238******                                                   1602
B0101412210000000031461PINTXOS & TAPAS INC.                                     1604
B0101400440000000335453SAGUDO, ELLEN SANCHEZ                                    1601
B0101400860011374845003**********                                               1601
B0101400860011389059003**********                                               1601
B0101401700041017100001ECL INTERGROUP, INC.                                     1602
B0101401700041537647001C NMZSBI INC.                                            1603
B0101400150061009719001WOODSON PROPERTY HOLDINGS                                1601
B0101400150061044911001MOBILECASH INC.                                          1601
B0601400100081034790001SHINMEI CREDIT AND LOANS CORP.                           1601
B0101400730111787360001SOURCEMAX INC.                                           1603
B0301400530193041076168BLACK FIGHTER SECURITY AGENCY, INC                       1606
B0301400530193042539001NELSHENE MARKETING                                       1610
B0301400530193678381001PABROQUIZ, ASER C. OR JONELYN V.                         1605
B0301400530193731049088********                                                 1603
B0101407140213194126001**********                                               1601
B0101401670271389719001PHILREM SERVICE CORP.                                    1605
B2601400270302039764001MOTORAM MOTOR PARTS                                      1601
B6601400120314045385001SANVIC SUPERMART INCORPORATED                            1605
B0101405650322043032001LEAN MANAGEMENT AND PEOPLE SOLUTION                      1601
B0101402640361032684001GREENSTONE PACKAGING CORP.                               1603
B5501400120410611610001************                                             1602
B0101403030441303324001**********                                               1602
B1901400160491013681001PJ LHUILLIER, INC.                                       1605
B1901400160491029733001PAWNCARE SERVICES INC.                                   1605
B0101408110515022478001GLOBERT REALTY & DEVELOPMENT CORPORATION                 1602
B0101403450521029991001**********                                               1601
B0101404260611047899001PRG INDUSTRIAL SOLUTIONS, INC.                           1602
B0101406590662024757001GUPIT INDUSTRIYA INC.                                    1610
B0101406590662661015001DESTINATIONS UNLIMITED TRAVEL AGENCY INC                 1602
B0101412630000000023861LAGON, ANNA MARIE DBU AMR-L BEAUTY                      11603
B0101400150061028194001PIZARRAS AND ASSOCIATES LAW                             11602
B0601400100081253610002NG, WILFREDO M. AND AQUINO, JANET B. AND                11601
B3101400160221019509001DYNASTY ALUMINUM, GLASS &                               11601
B0101408110515000736004PHILIPPINE VETERANS BANK - TRUST &                      11601
B0101407720602033271001DR. ANTHONY KING & PARTNERS CARDIAC                     11605
B0101412630000000023861VENTURES                                                21600
B0101400150061028194001OFFICE                                                  21600
B0601400100081253610002BUAN, ROLAND S.                                         21600
B3101400160221019509001GEN. MDSG CORP.                                         21600
B0101408110515000736004MANAGEMENT GROUP                                        21600
B0101407720602033271001RHYTHM SPEC CO.                                         21600
B0101401670271821100608**********                                               2005
B0101400570281821100608**********                                               2005
B0101410430282821100608**********                                               2002
B0101402480331821100608**********                                               2010
