A1001400190000000016480ANGELITUD, LYDIA LECIAS                                  0501
A0201400920000000048031FMC CATERING SERVICES                                    0501
A0101413730000000144738**********                                               0501
A3401400280000000156621DELA CRUZ, LOIDA GARCIA                                  0502
A0101413990000000206033MARITES R. CONANAN                                       0502
A0101410720000000211861TRINIDAD, JEFFREY FRIAS                                  0501
A0101405490000000232442SUSAN C. GALADARI                                        0502
A5501400120000000265661PADERNAL, ALMA DAJAY                                     0501
A5501400120000000265872MORALES, ROMEO BAMA                                      0501
A0901400220000000425045LOZADA, ELIZABETH GO                                     0501
A2201400250000000433510GENDRALA, R DBU GROW STRONG GEN                          0501
A0101407560000000477856MALONZO, CAR LYTT SANTOS                                 0501
A0101405650000000525893BANTIGUE, AMPARO ANISCO                                  0502
A0101404260000000532205DUKA, CEZAR COQUILLA                                     0502
A0101406590000000568758BAUCA, MYRA MEDRANO                                      0501
A0101410300000000592110********                                                 0501
A0101413990000000631850SIASAT, EDITHA SANTOS                                    0502
A1101400120000000652777BIDUA, FERDINAND ALMADEN                                 0510
A4101400420000000710267ROQUE, NERIZZA MERCADO                                   0501
A2001400290000000724878QUIAMCO, RHEA VILLANUEVA                                 0501
A0101413990000000726589ESTERAS, CRISTINA ESCALANTE                              0501
A0101413990000000726590DE JUAN, MARGIE BALLESTEROS                              0501
A0101408820000000800279ABIAD, RAY NIEL CARIASO                                  0501
A0101408820000000800280MELANDRA SENA                                            0501
A0101400150000000807534KADDA, AGUS SALIM                                        0501
A0101400150000000807636TESALONA, MARIA CLAUDETTE CRUZ                           0501
A0101400440000000821505TOMABIENE, DANILO YABO                                   0501
A2401400180000000826164LAUTENGCO JR., PAULINO VENERACI                          0501
A0101412470000000853787**********                                               0502
A0101410720000000882800SULIT, ROSEMARIE MARASIGAN                               0502
A0101412180000000908418SEKIAI, PRECIOSA STA CRUZ                                0501
A0101404680000000940932ROSEMARIE T. CARIAGA                                     0501
A0101410720000000967984MANUEL, RONALDO CRISTOBAL                                0501
A0101401090000000993320GIGI NAZAL CORDERO                                       0501
A0101405810000001021150ANG JR., VALENTIN LOSTE                                  0501
A1001400480000001054733KILCOYNE, CLARIE VYTT GONZALES                           0501
A0101413570000001069563MILAGROS S. BARAQUIO                                     0502
A0501400170000001072702RAFANAN, SAL DBU RAFANAN TRKNG                           0501
A0601400100000001123408GARAIS, MICHAEL EDWARD PANGAN                            0501
A0101401830000001139975FLORES, VIRGINIETA JANDUGAN                              0502
A0101401830000001140098CAMERINO, MARIA AMY LIMBOC                               0501
A0301400820000001185780RUFEROS, ROY KENNETH D.                                  0501
A4101400260000001198756CIELO, JOVY MORALES                                      0501
A4101400260000001198767ESPIRITU, KAREN SAMSON                                   0501
A0101405070000001256480NATIVIDAD, JOCELYN MARINDA                               0501
A0101406880000001286693MART1031 GENERAL MERCHANDISE                             0501
A0101409210000001294300CARLO L PAMINTUAN                                        0501
A4101400550000001332621MANACAP, JUNALYN BIBAT                                   0501
A0601400100000001442739JOHNSON, EMILY RAMIREZ                                   0501
A0601400100000001442740SANTOS, LORENA REGACHO                                   0501
A0101413440000001472588DE LA FUENTE, WINONAH TATEL                              0501
A0101400860011391313002**********                                               0502
A0101400860011405061003**********                                               0505
A0101400860011498803001**********                                               0501
A0101400860011559979002**********                                               0502
A0101400150061230586001**********                                               0502
A0101405810072478374022***************                                          0501
A0101405810072486205001***************                                          0501
A0601400100081604957001BARREDO, ELIZABETH OMBAO                                 0502
A0101401830141546656001JENNY V. CATRIZ                                          0502
A0101400440161186940001MARILOU I. DIVINA                                        0506
A0101401090171196001001MATILDE GONZALEZ                                         0501
A0101401090171196072003CARLOS M. ALMEDA                                         0501
A1001400190231040271001ROADNET 2000 ENTERPRISES                                 0502
A1001400190231277525001MILLANA, CARINA B.                                       0502
A1001400190231339933001MOORJANI, NOOR G                                         0502
A1001400190231520766118AUSTRIA, MARY FILIPINA PINGGOY                           0502
A0101400570281186881002SANTAMARIA, MA. ZENEIDA SERRANO                          0504
A0101400570281375245001CHUNG, JANE LEE                                          0501
A1101400120313478374090CARISMA, CHRISTINE DE PAZ                                0501
A6601400120314615650001BUBAN JR., GREGORIO GODOYO                               0501
A2001400290315044705002REMAN GLASS & ALUMINUM                                   0502
A2001400290315641654001LOZANO, PALMA JANE LIMPIADO                              0501
A3401400280318478374002PIONELO, LENIDIE DEVELOS                                 0501
A3401400280318739458001LAO, JOEL CATALAN                                        0501
A0101405650322016510001WIL-LYS CEREAL TRADING                                   0505
A0101405650322298552015EMELITA P. ERALINO                                       0501
A0101405650322509710002CAILIPAN, MELINDA M.                                     0503
A0101408820333041763001Y.A. HORIZON ENTERPRISES                                 0502
A0101408820333378700002**********                                               0501
A0101402510341165340001DACUDAO, JESUSA ROGADOR                                  0504
A0101402510341520603001TAN, JEAN TORRION                                        0501
A0101405490392690355001MARK GREGORY M. ANDAL                                    0501
A0101408950396411684001GANI, SUKARNO KANAY                                      0501
A0101412210399094817019VILLAMOR, MA. ANGELA G.                                  0501
A2401400180411580355001MAGLINTE, MA. FLOYDA MONDIGO                             0502
A1901400160491247039001ZALDY G RODRIGUEZ                                        0505
A1401400110492378227001VEJERANO, ROBERTO MAMORE                                 0501
A1601400170494076289001MARIA JOVI B. RAYCO                                      0502
A0101407430503403861001AIDA P. PANCHO                                           0502
A0101403450521238268001**********                                               0502
A0101403450521357127001**********                                               0501
A0101407720602390297001PREYSLER, MARIVIC G.                                     0501
A0101404420631158444001ALBERT RAMOS   JT                                        0502
A0101404420631478374095EMILY S. MIRANDA                                         0501
A0101409920650478374030DELA CALZADA, REGIL OMLANG                               0501
A0101410720653288723001BARANGAN, JOSEPHINE TUNGPALAN                            0504
A0101410720653336595001RCBN - THE OUR FATHER PARISH                             0505
A0101410720653505147001*****                                                    0501
A0101410720653586480001IGNACIO, MARICEL DIWATA                                  0501
A0101410720653708070001RUELOS, MARIA CARMEN BAYOT                               0501
A1301400340683559768002YU, ARIELLE CRISTINA CLEMENTE                            0510
A0101407560686174237002PROCESA DERONA                                           0501
A4101400420814520766084PADILLA, ROSEMARIE E.                                    0502
A4101400420814520766119OMNOS, NOVA DESCARTIN                                    0502
A4101400550815478374008LORELYN C. PARCIA                                        0501
A0101404840851520766032MILA SALAZAR                                             0502
A0101404840851520766142ANITA DOGILIO                                            0502
A1901400160000000007401LUCAS NOEL M. ORTEGA OR                                 10501
A1301400470000000009981CRUZ, JOCELYN NAVARRO OR                                10501
A0101410300000000191939CARBALLO, LUIS ANTONIO S. OR SA                         10501
A0101410720000000234819MONTOJO, MIGUEL GARIANDO OR                             10501
A0101412920000000276511CRUZ JR., DICOROZO TEANO OR                             10501
A1601400170000000421069CHARLES P. CLEMENTE III OR                              10504
A0101408530000001268399ASUNCION A. BALDOVINO OR                                10501
A0601400520000001349480BUNGQUE, CANETTE LAXA DBU ALCAN                         10501
A1001400350233653751008CHABON JR., JUDE OR                                     10502
A1301400470252503090002ERBITO B. TIONGSON OR                                   10503
A0101400570281332030002DR. SIMEON D. TANZO A.K.A                               10501
A0201400920375045050001BIG START REVIEW AND TRAINING                           10502
A2401400180411048131001ONTARIO PURIFIED DRINKING WATER                         10501
A2401400180411501589001VALILA, NOL S. OR VALILA, MA.                           10501
A2401400180411639793001SEVILLA, RITCHE LIM OR                                  10501
A1901400160491088892001MAMERTO ALEGRADO LAWAS AND                              10501
A0101407720602436863001ACEBUCHE, NILO BORJA OR                                 10501
A4101400390813506856001CALDEJON, NESMON DAVE        OR                         10501
A1901400160000000007401EDNA M. ORTEGA                                          20500
A1301400470000000009981NAVARRO, HAZEL PUNZAL                                   20500
A0101410300000000191939LAZAR, EMMANUEL B.                                      20500
A0101410720000000234819MONTOJO, ELIZABETH N.                                   20500
A0101412920000000276511CRUZ, RIZZA MAGBANUA                                    20500
A1601400170000000421069CHARLES L. CLEMENTE JR.                                 20500
A0101408530000001268399MARY ANN PAMELA BALDOVINO                               20500
A0601400520000001349480CONCRETE PRODUCTS                                       20500
A1001400350233653751008CHABON, CLAIRE                                          20500
A1301400470252503090002CHRISTINE S. TIONGSON                                   20500
A0101400570281332030002DR. SAMMY TANZO                                         20500
A0201400920375045050001CENTER                                                  20500
A2401400180411048131001DISTRIBUTOR                                             20500
A2401400180411501589001LOURDES D.                                              20500
A2401400180411639793001SEVILLA, EVA BARCELONA                                  20500
A1901400160491088892001ALBINO ALEGRADO LAWAS                                   20500
A0101407720602436863001ACEBUCHE, AMELITA                                       20500
A4101400390813506856001CALDEJON, CHRISTOPHER NED                               20500
B0101400600000000007752******                                                   1601
B0101400600000000007770******                                                   1601
B2401400180000000019747DYNAMIC TEAM, INC.                                       1610
B0101409050000000022540ASPHAMUL PAVECOAT, INC.                                  1602
B1301400210000000023543SAN PABLO LIAM FOODS CORPORATION                         1603
B0101410720000000029974FRIENDLINK TRADING CORP.                                 1601
B4101400260000000048991*****                                                    1605
B0101400860011305536001**********                                               1601
B0101411080042046594001 *****                                                   1610
B0601400100081015753001TAPANG REALTY COMPANY                                    1603
B0101401830141018560001DEG GEN. CONTRACTOR                                      1606
B0101401830141046773001BLUMEX EXPRESS CREDIT, INC.                              1605
B0101407140213043970001***************                                          1603
B1001400350233032957001PCCI FINANCE CORPORATION                                 1601
B0101410980275047231188*********                                                1602
B3401400280318047186001CONTRERAS, MICHAEL DBU MILCON BLDRS                      1601
B0101405490392029037001KOI-MO, KOI-KO INC.                                      1605
B2401400180411037975001ELZANO WORLD VENTURES                                    1601
B0101403030441024113001FITNESS SUPPLEMENTS PHILS. INC.                          1602
B0101403030441238999001**********                                               1602
B0101408530516034772001INFOSTORAGE CORPORATION                                  1603
B0101403450521015337001**********                                               1605
B4101400390813019416002STI COLLEGE-ROSARIO, CAVITE, INC.                        1602
B0101405070861008408001CLINICOMED                                               1610
B0101405070861020510001SILVERLINK INTL TRAVEL & TOURS CORP.                     1610
B0101405070861045120001PHILIPPINE CROSS-STRAIT CHINESE SRR                      1602
B0101412500000000739691PHILIPPINE GREENGOLD BUILDERS AND                       11601
B0601400100081552299001ANDREW ONG OR ONG ING LEE OR ANSON ONG                  11604
B1901400160491459129002MELVIN CASEDA/SHIELA COMIA/HENRY CABRERA                11601
B0101412500000000739691DEVELOPMENT CORP                                        21600
B0601400100081552299001OR EMILIA HAO                                           21600
B1901400160491459129002OR ARNEL HIBO                                           21600
B0201400920375821100608**********                                               2010
