A0101407560000000003390MAPLE LEAF MOVERS, INC.                                  0510
A4101400550000000005938EVANGELISTA, CHARISMA TOLENTINO                          0502
A4101400550000000006004FABROS, DANIEL MACUNAN                                   0502
A0101408240000000039694MARILAG, VIOLETA VELASQUEZ                               0501
A0101405940000000061721ALAGAR, DENNIS LIMLINGAN                                 0501
A0101408400000000077923LUNASIN, FRENZY CORONADO                                 0501
A0101404840000000122658MARIFE DE CASTRO                                         0501
A1401400110000000132896MORALES, RAIN DBU DIRL AND JANE                          0501
A0101411790000000134147LUCHAVEZ, ESTHEFANY CAPACIO                              0501
A0101412760000000208648*************                                            0501
A1301400500000000213232MAHILUM, SIONY MENDOZA                                   0501
A5001400170000000213965MORTE, ROGEN VILLACORA                                   0501
A0101409050000000258393ARANAS, NOEL SEBASTIAN BAUTISTA                          0501
A0101402770000000360592************                                             0501
A0101402770000000360989LAMBOT, FREDERICK PANTOJA                                0501
A0901400220000000425181**********                                               0503
A0601400230000000452806ESGUERRA, ANTHONY QUIAMBAO                               0501
A0101412470000000520130**********                                               0502
A2401400180000000554938DOLERA, CANDELYN FILIPINAS                               0501
A0101413440000000570198EMELITA P. DAGUIT                                        0501
A0101408790000000579255GARCIA, RENATO BALOTRO                                   0501
A0101414120000000649058VILLARUEL JR., DIONITO BUAYA                             0501
A0101414120000000649127WILCHAT MARKETING                                        0505
A1101400120000000652846CABIGAYAN, ROBERTO NABLO                                 0501
A0101410690000000710752DELA CRUZ, OSWALD ANGELES                                0501
A0101411660000000751273MARY GRACE P CATABAY                                     0501
A0101404680000000767051NENITA O. SORIANO                                        0501
A0101412760000000767795TUDARA, CAMILLE ISIP                                     0503
A0101408820000000800235APELADO, LIBERTY DE ASIS                                 0501
A2401400180000000826266RAMOS, VANIZA NIPALES                                    0501
A0101414120000000875612LACANO JR., EDGARDO BUNSO                                0501
A0101401250000000907011EMPERADO, MA CONCEPCION RECTO                            0501
A0101410300000000919444MEJIA, MELODY ANNE G.                                    0501
A0101403580000000922805ALBERT P. DAGNALAN                                       0501
A0101404680000000940909MACARIO EVANO                                            0504
A0101404680000000940950ELCID IVANHOE F. VIERNES                                 0501
A0101404680000000940961DUCUT, ANNALYN REA                                       0501
A0101404680000000941008SERDON, DJHOANNA KRISKA ALEDO                            0501
A4101400390000000975219ARICAYOS, ADRIAN LOPEZ                                   0502
A0601400230000000990074SESE, ALEJANDRO SAMBILE                                  0501
A0101400860000001005434**********                                               0504
A0301400530000001009892GOLEZ, REDEL SATOC                                       0502
A0301400530000001009909CAHIYANG, EVANGELINE REVILLA                             0501
A0101408240000001038631LIMIN, SHEREE JOYCE BALUYUT                              0501
A6601400120000001065292AOYANG, DONABEL CERBITO                                  0501
A3101400740000001093903DELA CRUZ, BENITA RICABLANCA                             0501
A0101402480000001099663FONTARON, MARITES CERILLO                                0501
A0101408400000001213687PABLO, FROILAN FRANCO                                    0501
A0301400790000001244586GALON, MARREON ANASCO                                    0501
A0101402510000001292371PERRERAS, ROSEMARIE MIRALLES                             0501
A0101401380000001412537PALERMO, MELANDRO DAEL                                   0501
A0101401380000001412548CHAE, OLIVIA ATUTUBO                                     0501
A0101414120000001427481FRANCISCO, PERLA MANUEL                                  0501
A0101414120000001427509TRILLANES VIII, CALIXTO JACOBO                           0501
A0101414120000001427550SOCIA, FEDERICO REYES                                    0501
A0101414120000001427561TAN, MARY CATHERINE FLORES                               0501
A0101413600000001430551TANAEL, ARNEL TRABALLO                                   0501
A0101400440000001439692OMG ARTS & FRAME SHOP                                    0501
A0601400100000001442762BALTAZAR, RODRIGO CAPATI                                 0501
A0101408790000001486160***                                                      0501
A0101411240000001563311BALQUIN, ROSEMARIE DE ARABIA                             0501
A0101400860011384021001**********                                               0503
A0101400860011464161001**********                                               0505
A0101400860011464419001**********                                               0502
A0101400860011533026001**********                                               0502
A0101400860011569183001**********                                               0502
A0101400860011610276001**********                                               0504
A0101400860011653651001**********                                               0501
A0101400860011656351001**********                                               0502
A0101401700041189400002**********                                               0501
A0101401700041193175001**********                                               0501
A0101400150061556932002DIA, DON MARIO YAP DIANGCO                               0502
A0101400440161478374062MARIA E. ERLANO                                          0501
A0101400440161503597001JOEL F. TUBOG                                            0502
A0101400440161520766098JUDITH D. BRISO                                          0501
A0101400440161525001053LANIE D. LUMABAS                                         0501
A0101407270162331908091EDUARDO G. DE GUZMAN                                     0502
A0101407270162528842001MIGUEL ROBERTO M. GARCIA                                 0502
A0301400530193478374012FUEREN, JANETH C.                                        0501
A0301400530193551188168GONG, SHUJIAN                                            0502
A0301400530193585849001COSMENO, MARINEO C.                                      0502
A0301400530193749518088ROBLES, CELEDONIA F.                                     0501
A0301400530193763850002BAYAWA, ESTER JOY O.                                     0503
A0101401380201284406002TAN, SUAT NGO                                            0505
A1001400190231520766049JOCELYN S. LLUBIT                                        0501
A1001400190231520766129SANCHEZ, CATHLYN E.                                      0501
A1001400190231556864001KHU, JOY LACDOO                                          0501
A1001400350233478374006IBANEZ, ELSA                                             0501
A1901400290261298552056TERESITA EUGENIO PUNZALAN                                0501
A1901400290261298552105AIDA NABOS REYES                                         0501
A1901400290261654437002EVER-JOYCE BOLOR BURAC                                   0501
A0101401670271186267001ELOISA L. CAMPOS                                         0503
A0101406460272377244001ALA, JESSIE ATENTA                                       0501
A0101410980275076656001WU, YA YIN OR LIN, QING NAN                              0503
A0101400570281186536001DR. MERCY ANTOINETTE GAPPI                               0502
A0101400570281360693001DR. CRISTOPHER F. PEREZ                                  0503
A0101400570281388539025ROSALIE B. CABRERA                                       0501
A0101400570281491040001TAN, JOAN HUN                                            0501
A2601400270302478374003GRACE C. BANCUD                                          0501
A0101405650322172570002********                                                 0503
A0101402480331017952001BIG MASTERS TRADING CO,                                  0502
A0101402480331022723001**********                                               0501
A0101402480331354532001*****                                                    0502
A0101402480331507089001**********                                               0501
A0101402480331520766041RENEJIN, MARYLYN                                         0501
A0101402480331520766058BESINGA, MARLINDA G.                                     0503
A0101402480331546994001******                                                   0501
A0101402480331672664001***************                                          0501
A0101402510341202149003AMALIA L. ABUSTAN                                        0501
A0101402510341415300001********                                                 0501
A0101402060351562812001DE LOS SANTOS, VICENTE REYES                             0502
A0101402930381377766001ERIC D. DAVID                                            0501
A0101408370382400439001DR.CORAZON JESUSA SERAFICA-DIAZ                          0501
A0101408370382418195001MOISES T. CLAVERIA JR.                                   0501
A0101408400394027889001TINA S. BERIN FLOWER SHOP                                0505
A0101408400394159750001ROMERO, FRANCISCA BAUTISTA                               0501
A0101408400394478374061SONAJO, LOLITA C.                                        0502
A0101408400394494749001MAGPANTAY, LOTA CADAG                                    0502
A0101408400394508074001WEE, LEE HIONG TAN                                       0503
A5501400120410719328001ILAO, YOLANDA CASTILLO                                   0503
A2401400180411272640001VICKY M. BOJE                                            0502
A2401400180411625087001QUILLOPO, ANABELLE BREZO                                 0501
A0101403030441707375001**********                                               0502
A0501400170481318580004ANA CRISTINA L SINLAO                                    0505
A1901400160491366464001ANA MARIA H BALMES                                       0501
A0101408530516042413001DENTAPRIME DENTAL SERVICES                               0504
A2201400250561258531013MARLYN SEBASTIAN                                         0501
A2201400250561779860001ROBERTO P. VENTURA                                       0501
A0101404130601027289096SERILO, ROGELIO                                          0501
A0101404130601748754001AREOLA, MARY JOYCE AVENA                                 0501
A0101407720602271723067CHERRYL M. GARCIA                                        0503
A0101404420631459427001GLORIA, GLORIA CRUZ                                      0501
A0101404420631478374128MELINDA A. DELOS SANTOS                                  0501
A0101404420631590850001*****                                                    0501
A0101409920650478374010EVA B. MANDIIT                                           0501
A0101409920650478374023RENTIGRADO, ELENA ESTOESTA                               0502
A0101404680651412017001ANA MARIE R. TANARE                                      0501
A0101404680651478374109MARISSA BENAVIDES                                        0501
A0101404680651525001021JULIETA G. LIAD                                          0501
A0101404680651603144001ARNOLD B. EDOSMA                                         0501
A0101404680651636848001ELEONOR L. AGUILAR                                       0501
A0101404680651750326001PERLA P. DOLOR                                           0502
A0101404680651772358001CECILE I. BARTE                                          0502
A1301400340683353482001JOSE, MARLENE RODIL                                      0502
A0101407560686478374048REMEDIOS B. MALIT                                        0502
A1701400230693478374049PATINO, DAISY PINKY TUMAMAO                              0501
A0101408240711390329001AGUILAR, ALDEN OR CECILIA                                0501
A4101400390813775566002TUAZON, MARIO CALDERON                                   0501
A4101400420814017785001MONZON GENERAL MERCHANDISING                             0506
A4101400420814478374040TAN, IMELDA F.                                           0501
A4101400420814520766038POLINARIO, THERESA BELLEZA                               0501
A4101400420814520766056MULIG, ESTER R.                                          0501
A4101400420814520766095SHERYL NICOLAS MENDOZA                                   0501
A0101406750852084318001SIBUG, GENEATH PRUDENCIANO                               0501
A0301400530000000025312CADARO, GINA S. OR                                      10506
A0301400530000000065923POWER-UP TIRES, BATTERY AND                             10524
A0101406750000000173033TORRES, NOEL DBU FRANZBUILT                             10502
A0101411820000000477190ZIMAR ABALLE BARCELONA JR. OR                           10501
A2601400270000000561733ARCEL A. CAPUCHINO OR                                   10501
A0101413570000000635541KRISTINE MARJORIE U. DELA CRUZ                          10505
A0101413570000000635552JOHN ROSS DELA CRUZ OR KRISTINE                         10505
A0101404680000000766996MELISSA S. SIMEON OR JULES                              10501
A1001400480000001054751LUARDO, DANILO C OR LUARDO,                             10502
A0101412210000001236151YOUNG, GREGORY ALAN OR YOUNG,                           10501
A0301400790000001244597LUNA, BILL ALLAN GUERRA DBU                             10501
A4101400550000001332609FENIS, DANILO LAGPAS OR                                 10501
A0101414120000001427601ISABEL MONTERO OR CARLOSA                               10501
A0301400530193760685002AGUILAR, AGUINALDO V. OR                                10502
A1301400470252541824001HERNANI F. BANTUG OR                                    10502
A0101406460272190348003ANGELES, ROSARIO OR DALMACIO                            10501
A0101400570281043930002REALTY & ENTREPRENEURSHIP                               10501
A0101402060351212379001SILVESTRE, LUME L. OR                                   10503
A0101402060351213405001LEOZALDY C. LINTAG &/OR                                 10501
A0201400760374047906001SAPAYAN LIM ALVAREZ & LIGUTAN                           10502
A0101402930381337834001CHESHIRE J. QUE OR                                      10501
A0101408370382399401001DR. EMILY ROSE C. BELEN OR                              10501
A0101409210398047601001LAMONTE, E DBU YOB AND ERIN                             10501
A5501400120410624314001MORALES, RAUL B. OR MORALES,                            10503
A0101412760476047778001GAKO, CRISTINA LLANERA DBU                              10502
A0501400170481170180001TAI KOU AN OR LAWRENCE ILARDE                           10502
A0101407430503369731001LILIBETH M. ARCEGA OR                                   10501
A0101407430503526926001JAY J. GARCIA OR                                        10502
A0101407720602364331001MARIVEL R. PAGLINAWAN OR                                10501
A0101404680651169005001FERDINAND M. FERNANDO OR                                10502
A1301400500684594780002CASTRO, RAYMUNDO OR                                     10502
A0301400530000000025312CADARO, EDGAR A.                                        20500
A0301400530000000065923AUTO SUPPLY                                             20500
A0101406750000000173033CONSTRUCTION                                            20500
A0101411820000000477190SARRA BUSTARDE BARCELONA                                20500
A2601400270000000561733MA BIATA A. CAPUCHINO                                   20500
A0101413570000000635541OR JOHN ROSS R. DELA CRUZ                               20500
A0101413570000000635552MARJORIE U. DELA CRUZ                                   20500
A0101404680000000766996GERALD GUILLERMO SIMEON                                 20500
A1001400480000001054751JINKY C                                                 20500
A0101412210000001236151MARIA IMMACULADA                                        20500
A0301400790000001244597PRISCILLA FRAMES                                        20500
A4101400550000001332609FENIS, LOU DIANE LARIOZA                                20500
A0101414120000001427601TUGADO                                                  20500
A0301400530193760685002AGUILAR, DINA C.                                        20500
A1301400470252541824001ELAINE T. BANTUG                                        20500
A0101406460272190348003GREGORIO                                                20500
A0101400570281043930002ACADEMY OF THE P                                        20500
A0101402060351212379001SILVESTRE, AIREE                                        20500
A0101402060351213405001DEANA M. LINTAG                                         20500
A0201400760374047906001LAW OFFICES                                             20500
A0101402930381337834001ROSEMARIE J. QUE                                        20500
A0101408370382399401001DR. POCHOLO P. BELEN                                    20500
A0101409210398047601001GLASS ENTERPRISE                                        20500
A5501400120410624314001BELINDA                                                 20500
A0101412760476047778001KRANECOM ENTERPRISE                                     20500
A0501400170481170180001OR CARLITO LIM O                                        20500
A0101407430503369731001PATRICIO M. ARCEGA                                      20500
A0101407430503526926001RHODORA M. GARCIA                                       20500
A0101407720602364331001RANDY R. PAGLINAWAN                                     20500
A0101404680651169005001ANA MARIE E. FERNANDO                                   20500
A1301400500684594780002CASTRO, ROSEMARIE                                       20500
B0101404130000000001218EXEMPLAR 168 MANPOWER CORP.                              1602
B0101407560000000003516***************                                          1603
B0101407560000000003590*************                                            1601
B0301400530000000025298RAMAJO, GIA MAY MAHUSAY                                  1605
B0101408400000000029627UNLIMITED HOBBY CONSUMER COOPERATIVE                     1601
B0101411950000000036400EJIST VALENZUELA INC.                                    1602
B0101412180000000075409EMPEROR'S 168 PALACE INC.                                1605
B0101404680000000095709BTG BUILDERS AND SUPPLIES                                1601
B0101404680000000095710MVG HARDWARE                                             1601
B0101404680000000095750TRAVELITE TOURS & TRAVEL INC.                            1601
B0101413860000000145300**********                                               1610
B0101407140000000266266LIWAFI ENTERPRISES                                       1601
B0101414120000000398830CATHERINE E. PANGAN                                      1601
B0101404130000000696157JCASH, INC.                                              1602
B0101402480000001100103**********                                               1601
B0101402480000001100103**********                                               1601
B0101402480000001100110*****                                                    1601
B0101406880000001227412ONE GREENBELT SUITES HOTEL INC.                          1601
B0101414120000001427463AZUELA'S TRADING & SERVCIES CO.                          1601
B0101414120000001427470A.B. CRUZ SHUTTLE & GENERAL SERVICE                      1602
B0101414120000001427641ST. PASCUAL INTEGRATED SCHOOL INC.                       1601
B0101400150061227726001UNION ADVERTISING                                        1602
B0601400100081018566001BLUE QUEST PURIFIED WATER STATION                        1601
B0301400530193038459168PIONEER BEE CORPORATION                                  1605
B0301400530193041601001GRANITE CREDIT CORPORATION                               1602
B0301400530193041929001NEW CORELLA AGRICH MARKETING CORP.                       1601
B0101407140213016054001**********                                               1601
B1001400350233040223001HANTO CAR, INC.                                          1603
B2001400290315044204001ACEBANK CREDIT, INC.                                     1601
B0101402480331018366001******                                                   1603
B0101402480331032292001KWIK-WAY ENGINEERING WORKS                               1605
B0101402480331034497001*******                                                  1601
B0101402480331042096001ROSCO MACHINE SHOP & MFG., CORP.                         1601
B0101402480331042097001********                                                 1601
B0101402480331046192001****                                                     1603
B0101402480331046192001RENRY DAUGHTSON INC.                                     1602
B0101402480331296876001**********                                               1604
B0101402480331578582001*****                                                    1601
B0101402480331633610001**********                                               1602
B0101409050352031160001CAPITAL INDUSTRIES, INC.                                 1605
B0101402770391035106002**********                                               1601
B0101408400394032168001ALQUIROS FOOD CORPORATION                                1603
B0901400220432043554001GERRY'S GRILL                                            1603
B0901400220432043565001CASA CANELAR PENSION                                     1602
B0501400170481018109004*****                                                    1601
B0501400170481398688001**********                                               1601
B1901400160491012827001PORT CITY CREDIT AND LOANS CORP.                         1604
B0101404000551706229001PHILKO-CHEM LOGISTICS, INC.                              1610
B0101404130601100036002SCIENCE OF IDENTITY FOUNDATION, INC.                     1601
B0101404680651043475001SANTO GOLD FOOD CHOICES INC.                             1604
B0101404680651472293001NORTRAK LO-PAN ENTERPRISE CORP.                          1603
B0101404680651629917001ALLUSTEEL DISPLAY CONCEPT INC.                           1603
B0101401380000000026979ANIMAL FIRST PET PRODUCTS CORPORATION                   11605
B0101402770391009705002VICTORIA VALLEY CONDOMINIUM INTEGRATED                  11601
B1401400110492365609001JEORGE S MALIGAT - PILIPINO HARDWARE AND                11601
B1301400210682012854002BULACAN PUBLIC SCHOOL TEACHERS MULTI-                   11605
B0101401380000000026979DOING BUSINESS                                          21600
B0101402770391009705002CORPORATION                                             21600
B1401400110492365609001CONST. SUPPLY                                           21600
B1301400210682012854002PURPOSE COOP INC                                        21600
B3101400740224821100608**********                                               2005
B1001400480234821100608**********                                               2005
