F0401400270242392964001MAY A. SISON                                             2505CKO
F1901400290261596843001YAFFE CHEN SALON INC.                                    2502CKO
F1401400110492031397001MGDJ CONSTRUCTION                                        2505CKO
F0101406750852646434001LIE, HOCK LAI                                            2501CKO
F0101403290000000542501VERAFEDE INC.                                            2601CKR
F0101401670271057633001MAIDSOURCE INC.                                          2605CKR
F0101401670271057633002MAIDSOURCE INC.                                          2602CKR
F0401400270242638208002JONATHAN D. SY OR                                       12602CKR
F0401400270242638208006JONATHAN D. SY OR                                       12602CKR
F0101405650322023572003SAN JUAN DE DIOS EDUCATIONAL                            12610CKR
F0101405100571036688001ALL COUNTS TRANSPORT SERVICES                           12602CKR
F0101407690652034386001THE COLUMBIA GARDEN RESIDENTS                           12601CKR
F0401400270242638208002JOSE VICTOR L. G                                        22600CKR
F0401400270242638208006JOSE VICTOR L. G                                        22600CKR
F0101405650322023572003FOUNDATION INC.                                         22600CKR
F0101405100571036688001CORPORATION                                             22600CKR
F0101407690652034386001ASSOCIATION, INC                                        22600CKR
