 3101400870000000957871                                                           00
A1301400500000000011274*************                                            0501
A0101407720000000017405ASTETE, ELSIE BAUTISTA                                   0501
A0301400660000000023092GO, ROMEO YU                                             0501
A1301400210000000023310ALSC SECURITY SERVICES                                   0502
A0101413150000000038468**********                                               0502
A0301400660000000048337*****                                                    0502
A0201401020000000056142**********                                               0503
A3101400870000000074753LIU, BELLARMINE LAI                                      0501
A0101405650000000080117*******                                                  0501
A1001400190000000124694RETSIL T. GABON                                          0501
A0101413860000000144972**********                                               0501
A0101406750000000172912ROBERTO, FRANCES MUCIO                                   0502
A0301400660000000194530JATTRO MARKETING                                         0502
A0301400660000000194672DUMALE, CANDIDO NAVARRO                                  0501
A1301400500000000213203QUIAMBAO, VICTOR FABIAN                                  0501
A0101403030000000320492**********                                               0502
A0101406750000000358310TRIAS, AGNES DE JESUS                                    0501
A0101402770000000360978CANEZO, LI DBU PARTNERS OPTION                           0502
A0901400220000000425136ROSOS, LORAINE WAYCO                                     0501
A0101405490000000444444ROMULO DE VERA BUERE JR.                                 0501
A0101411400000000484691CASTOR, GIRLIE CASTOR                                    0501
A0101407270000000511588MARIA VIRGINIA M. DE LEON                                0502
A2601400270000000561722JAQUELINE D. GALIZA                                      0501
A2601400270000000561944KAREN B. CARBONEL                                        0501
A0101407690000000587811BANAAG, ARVIN PECSON                                     0501
A0101400730000000645410ASIS, REDENTOR CONSTANCIO                                0501
A1101400120000000652697CASTILLOTE, GRACITA G.                                   0501
A0101405650000000773046KIMOTO, YOSHIHIKO CORTEZ                                 0501
A3401400280000000784629ARCENO, HAZEL LUNA                                       0501
A3401400280000000784630VILLASOTO, LEXIE ARTATES                                 0501
A0101412630000000801654GAOAT, ROBERTO GACOSCOS                                  0501
A0101400150000000807050J AND C ROYAL HARVEST TRADING                            0503
A0101407270000000818428ARBOLEDA, SANITA AREVALO                                 0501
A0101407270000000818439JONEL M. DE MESA                                         0501
A0101407270000000818440EPIFANIO B. alvarez                                      0501
A2401400180000000826255FORONES, KENNETH JEFFERSON CANE                          0501
A0101409920000000857934MARINOG, ROGELIO ANDALES                                 0502
A0101412180000000908430BONGON, MARJORIE CRUZ                                    0501
A0101407690000000913600MARQUI AUTO SUPPLY                                       0502
A0101407690000000913779VARONA, EVELYN PADRONCILLO                               0501
A0101407690000000913780MATIGA, RUSSELL DACALOS                                  0501
A0101404840000000943373MARC REY P LUCAS                                         0501
A0101404840000000943380HERMINIA L. ENGOC                                        0501
A4101400390000000975293PANTIG, GENE RHODE FUENSALIDA                            0501
A0101412340000001017678SANCHEZ, EM EM VELASCO                                   0501
A2401400180000001049763GARCERA, MARK ZEANREH HERNAEZ                            0501
A0101402640000001054324COLASITO, ROGER MABANA                                   0501
A0101402640000001054335LOSITO, REGINA MELECIO                                   0501
A0101412890000001056291AGUILA, NOEL BALDESCO                                    0501
A0101412890000001056308PAZ, ROLANDO PABALAN                                     0501
A0101413570000001069574MA. CRISTINA D. MORALES                                  0501
A0101413570000001069585AMPARO L. HERNANDEZ                                      0501
A6601400120000001105902LUMAPAK, REYNALDA DADULA                                 0501
A0101401830000001140112SINGAYAN, MAVIS TAGUIBAO                                 0501
A0301400820000001185804BEJARIN JR., AJERICO VINCENT F.                          0502
A4101400260000001198814REYES, RULA SOPILARIO                                    0501
A3001400130000001271341SURALTA, GEGINIA MONTICINO                               0501
A0101413150000001288228******                                                   0501
A0101402510000001292360ANNANG, PANCITA ALLAUIGAN                                0501
A0101402510000001292360ANNANG, PANCITA ALLAUIGAN                                0501
A1301400470000001298962ANA LISA V. MUNIZ                                        0501
A0101413600000001430540LACUARIN, ARNULFO TUYOR                                  0503
A0101401700041036012001MORNING GLORY AUTO SUPPLY                                0510
A0101401700041047694001CREATIVE LANE ADVERTISING                                0501
A0101400150061338964038VILMA V. BUGIA                                           0501
A0101400150061392447001PENA, SHARON MELANIE SINGSON                             0501
A0101400730111386485076MERLITA P. CARANGUIAN                                    0501
A0101400730111386485079GLYN G. HORTALEZA                                        0502
A0101400730111432322015SHARON ALIBO                                             0501
A0101400730111452111001PEREZ IV, MAURICIO GUTIERREZ                             0505
A0101400730111561049001EMMANUEL G CUEVAS                                        0501
A0101400440161478374018MA. DELIA P. FERMANTE                                    0501
A0101400440161520766194LINO M. VILLANUEVA                                       0503
A0101400440161525001139JEMARIE S. SALUDAR                                       0501
A0101400440161539330003MARINEL B. SUBA                                          0501
A0101400440161574323001MARISSA P. MAGPAYO                                       0501
A0101407270162331908088MARLON L. ANTOLIN                                        0501
A0101407270162353067001JULIUS CAESAR C. BABAO                                   0503
A0101407270162387970001******                                                   0503
A0301400660194618862001*****                                                    0501
A0101407140213319312002INGEL, ROLANDO                                           0501
A3001400130230478374028MAGLASANG, ELIZABETH DAHANG                              0501
A0101401670271188489001CARMEN C. LIM                                            0501
A0101408660274630330001*****                                                    0501
A2601400270302572619001TONY C. CHUA                                             0505
A2601400270302657810001********                                                 0503
A0801400160311025468001***************                                          0501
A0801400160311478374092MALLORCA, ROSEMARIE A.                                   0501
A0801400160311478374093AMELIA H. TAYCO                                          0501
A0801400160311478374102MA. CECILIA A. AVANCENA                                  0501
A0801400160311478374103INAYAN, MERLINDA GUARDAMANO                              0501
A6601400120314711829001LIPATA, ROWENA CELESTINO                                 0501
A2001400290315688009001ALGOPERA, LLOYD GARCIA                                   0504
A34014002803187394580010318-739458-001                                          0501
A0101408820333335130001ANTONIA S. GORRE                                         0502
A0101402640361670084001ARQUERO, PETRONILA CUEVA                                 0501
A0101402640361759153001ASAGRA JR. III, MICHAEL M.                               0501
A0201400760374478374015DACAYANA, ROSALIE SIBLA                                  0501
A0201400760374537038001HO, RICHELIEU MARIANO SIA                                0501
A010140549039201910700220/20 ENTERPRISES                                        0502
A2401400180411637974001MANANGQUIL, JOHN RAY BETITA  JT                          0510
A0501400170481039551001SOMA HOLISTIC SPA                                        0502
A0501400170481255325008ARZADON, VOLTAIRE PORSOVIGAN                             0501
A0501400170481318580007*****                                                    0505
A1401400110492222049001AMORSOLO S. NIEVA                                        0508
A0101407430503478374012ANALIE YPANTO                                            0501
A0101405940512326499002CASTRILLO, CARLITO BARRIAS                               0502
A0101408110515041358001MADE IN HEAVEN ENTERPRISE                                0501
A0101411400517046810001BERTULFO III, REGINO G. DBU DET                          0503
A0101403450521238133001**********                                               0501
A0101403450521239151001**********                                               0503
A0101403450521313120002**********                                               0501
A0101404000551323616002BAYONA, REX ALBOS                                        0501
A2201400250561797956001JENNIFER A. MANUEL                                       0501
A0101407720602394399001CRUEL, ALDABELLE LABANEN                                 0502
A0101404260611005298001VARIAS, FLORDELIZA OR EMMANUEL                           0505
A0101404260611150837001EMILIANO OR MARIETTA REYES                               0502
A0101404420631478374124SONIA T. LUBRICO                                         0501
A0101404420631478374195ANA A. EMPERIO                                           0501
A0101404420631637769001BERNARDO, EDITHA ROBLES                                  0501
A0101404680651687990001ABELLON, EVANGELINE CABRERA                              0501
A0101407690652093160001SABIANO, JOLLY PENAFLORIDA                               0503
A0101407690652334529002JAVALUYAS, ROMEO OR GLORIA                               0502
A0101407690652342069001BENIGNO C. CAISIP                                        0502
A0101407690652698616001VELARDE, ARLENE PAROCHA                                  0501
A0101406590662478374008CARMILITA C. LEYSA                                       0502
A0101406590662711909001NANIONG, JASON MARTIN APOSTOL                            0501
A0101411950680478374004CARLETA, REBECCA CARPIO                                  0501
A1301400500684705921001ANTONIO, ALBERT SILVA                                    0501
A4101400390813705897001ANONAS, ROSIE JERUSALEM                                  0501
A0101404840851520766126ADELAIDA VILLANUEVA                                      0501
A0101404840851520766156LILIBETH TONGO                                           0501
A0101411240000000011996TERESA O AYENDE - MEMBERS OF                            10501
A0201401020000000056153LANORIAS JR., EDUARDO C OR                              10501
A3401400280000000156643MELOURD L. BONILLA AND MA                               10502
A1601400170000000421190JOHN F. TORROCHA OR                                     10501
A0101400730000000659650FRC SULO RIVIERA RESIDENCES                             10502
A0101405650000000772878MICHAEL, DBU R.S.MICHAEL                                10502
A0101409920000000998672MEMBERS OF NATASHA (SHOECAT INC                         10502
A0101400730000001016362GANOTISI, LUDWIG MORALES                                10501
A0801400160000001031343BARRIOS, ARWEN A. OR                                    10501
A4101400260000001198610RAPISTA, JOHNNY A. OR                                   10502
A0101401700041190625001ADELIA A. GELLEGANI OR                                  10505
A0101400150061229009001MANGLAPUS III, RAUL JAY OR                              10501
A0101400730111198710001FERNANDEZ, HENRY F. OR                                  10502
A1001400190231370298001CALIMPONG, LILIFE TONGOL &                              10502
A2001400290315641895001WENCESLAO, JUNE CLEO OR                                 10501
A0101405650322703967001VIVO, ELEANOR A. OR                                     10501
A0101402060351211788002ROMUALDEZ, FRANCISCO C. OR                              10501
A5501400120410797578008CHIU, CHRISTEL & VALENTIN &                             10502
A2201400250561485193001CHRISTINE C. SANTOS OR                                  10501
A0101407690652478374027MARILOU S. BAGON - DEALERS OF                           10501
A0101407690652478374084EUFEMIA BALASE - DEALERS OF                             10501
A0101407690652520766004OLIVE R. DACLIZON - DEALERS OF                          10503
A0101407690652520766009SHERILL S. LOPEZ - DEALERS OF                           10502
A0101407690652609264005AUGUSTO S. DE JESUS OR                                  10505
A1301400340683356131001LEGASPI, ESTRELLITA DEL ROSARIO                         10503
A0601400230891738531001CHUA, MARK ANTHONY GARCHITORENA                         10503
A0101411240000000011996NATASHA                                                 20500
A0201401020000000056153LANORIAS, GRACE M.                                      20500
A3401400280000000156643RODERICA B. GARGANERA                                   20500
A1601400170000000421190ROCHELLE A. TORROCHA                                    20500
A0101400730000000659650CORP                                                    20500
A0101405650000000772878ARCHITECTURAL SERVICES                                  20500
A0101409920000000998672ALON, CHERRY ANN                                        20500
A0101400730000001016362OR GANOTISI, MARIA FE                                   20500
A0801400160000001031343TOLENTINO, HAZEL JOYCE A.                               20500
A4101400260000001198610RAPISTA, PROCENTIZA                                     20500
A0101401700041190625001FRANCISCO M. GEL                                        20500
A0101400150061229009001MANGLAPUS, JENNIFER JANE                                20500
A0101400730111198710001FERNANDEZ, AMELI                                        20500
A1001400190231370298001DUMANDAN, RICARD                                        20500
A2001400290315641895001WENCESLAO, ANTON                                        20500
A0101405650322703967001VIVO, ROMEL B.                                          20500
A0101402060351211788002ROMUALDEZ, ANNA                                         20500
A5501400120410797578008JULIA & CHRISTIAN                                       20500
A2201400250561485193001FREDESWINDA D. SANTOS                                   20500
A0101407690652478374027SHOECAT INC.                                            20500
A0101407690652478374084SHOECAT INC                                             20500
A0101407690652520766004SHOECAT INC.                                            20500
A0101407690652520766009SHOECAT INC                                             20500
A0101407690652609264005MILA S. DE JESUS                                        20500
A1301400340683356131001OR RIVERA, PHILI                                        20500
A0601400230891738531001TAYAO, GILBERT A                                        20500
B0801400160000000010282GARIN FOUNDATION, INC.                                   1601
B0101407690000000025032GOLDLINK NETWORK SOLUTIONS INC.                          1601
B0101402640000000032635UNIFIED POWER EXPERT INTERNATIONAL INC.                  1605
B0101401670000000178512MANA ASIAN SENSATIONAL SPA CO.                           1601
B0301400660000000195011C-ONE TRADING CORPORATION                                1605
B0301400660000000195066SAMMITO PACKAGING CORP.                                  1602
B0101413600000000206891TRES MUJERES AGRI VENTURES INC.                          1605
B0101400730111033923001QUICKLEND PHILIPPINES INC.                               1606
B0101407270162016355001ONWARD COMMUNICATIONS & SERVICES                         1605
B0101407270162019008001ORIENTAL & MOTOLITE MARKETING CORP.                      1610
B0101407140213033855001**********                                               1604
B0101407140213038373001**********                                               1603
B3001400130230043534001BERRY HAPPY MART INC.                                    1605
B1301400470252031506001LAWNDALE FINANCE COMPANY INC.                            1610
B0101401670271389719001PHILREM SERVICE CORP.                                    1605
B0101402640361024449001COLLEGE OF ST.CATHERINE, QUEZON CITY                     1602
B0101402640361666146001RLCT MULTI-SPECIALTY MEDICAL CLINIC                      1601
B5501400120410040763001JAO TAY MARKETING INCORPORATED                           1603
B2401400180411040788088KCC PROPERTY HOLDINGS, INC.                              1620
B0101403030441238962002**********                                               1601
B0101405940512023235001LIKAS YAMAN SERVICE CORP.                                1603
B0101405940512571470001MEIVEN MARKETING AND CONSULTING INC                      1602
B0101407690652042938001SIGNWOOD HARDWARE & LUMBER SUPPLY                        1603
B0101407690652505889001VANCOUVER HILL PRESCHOOL, INC.                           1601
B0101411950680046326001PARISH OF THE HOLY FAMILY                                1601
B3401400280000000784641CAPUNONG, ROMULO DELCANO OR EDUQUE,                     11601
B3401400280000000784652CAPUNONG, ROMULO DELCANO OR EDUQUE,                     11601
B0101407270162037305001MICROGOLD INFORMATION SOLUTION AND                      11610
B0301400660194769334088GALBO, MILOJAY RYAN OR GALBO, SITTI SAKI                11601
B0101405490392047246001JOCELYN C. DELA ROSA DBU JRD FREIGHT                    11601
B0101407690652017367002EAGLE BROADCASTING CORPORATION                          11605
B0101407690652030137001ROLLING GREEN REALTY & DEVELOPMENT                      11610
B2801400100712035549001AUTOTEC AUTOMOTIVE TESTING AND EMISSION                 11602
B3401400280000000784641RUELYN CAPUNONG                                         21600
B3401400280000000784652RUELYN CAPUNONG                                         21600
B0101407270162037305001PRODUCTS, INC.                                          21600
B0301400660194769334088NA                                                      21600
B0101405490392047246001FORWARDING                                              21600
B0101407690652017367002(NET 25)                                                21600
B0101407690652030137001CORPORATION                                             21600
B2801400100712035549001CENTER INC.                                             21600
B0301400370192821100608**********                                               2001
