A0101404420000000026042MARILYN L. PINEDA                                        0501
A5501400120000000047323BARONIA, FIDENCIO MILAN                                  0501
A0101401250000000057101*****                                                    0501
A4101400420000000121080DONSOL, HENRY CALCITA                                    0501
A0201400760000000223190WU, EDWINA GACAYAN                                       0502
A1901400160000000243514CONRADO AUGUST AMBIDA BONDAD JR                          0502
A0101411790000000469585BUTCHAYO, JANE ENTERO                                    0501
A0101411820000000477076SHERYL P. TAYROS                                         0501
A0101410140000000499134LANORIAS, JOVENNES DAVID                                 0502
A0101400440000000596583ELIZABETH G. TALPLACIDO                                  0501
A0101413440000000702470PISCASIO, LIZA MARIE ORTIZ                               0501
A0101413990000000726454CUBILLAS, REMELYN M.                                     0501
A0101413020000000880484***************                                          0501
A0101401700000000890400HEALTHWAYS TRADING                                       0502
A0601400360000000978801PONCE, MARLYN DE LEON                                    0502
A4101400420000001063832MADRID, CHERYL CALMA                                     0501
A1601400170000001068935RANDY T. POOT                                            0502
A0101410140000001074982MEJIA, MICHAEL GERONA                                    0501
A0301400820000001185780RUFEROS, ROY KENNETH D.                                  0501
A3001400130000001271501DUBOUZET, ZENAIDA DAGASDAG                               0501
A0101410560000001291087PALCE, EUFRACIA G.                                       0501
A0101404840000001312612BERIA, MICHAEL JOHN ALARCON                              0501
A0101411820000001356769NATHANIEL L. LOPEZ                                       0501
A0101408110000001364825YUHENGCO, JEFFERSON JOHN CHUA                            0501
A1301400340000001415634********                                                 0501
A0101400440000001439750AMORA, HARRY PUTESTAS                                    0501
A0101413570000001720252JOSE S. FUSTER JR.                                       0505
A0101408950000001760630SAMONTE, CLAUDIA YLAGAN                                  0502
A1701400230000001786821JUN & CAROL BEACH COTTAGES                               0501
A3101400160000001792032PAZ JAN O ACIBO                                          0501
A0101408400000001981564ECO-OPTION DESIGN AND BUILD                              0501
A0101406750000002040260TOLENTINO, ROSALINA SABATER                              0501
A0101411080000002243107CALDOSA, JOEL LAMPASA                                    0501
A0101414090000002248302SELORIO, KIM TIU                                         0502
A0101401250021688004001SENEN O. GOLI                                            0502
A0101401700041189061001RIZAL SMILEY TAN OR YA YUN TAN                           0503
A0101400150061626610001********                                                 0501
A0101405810072234900005***************                                          0503
A0101405810072329957001**********                                               0502
A0101405810072385132001***********                                              0503
A0601400100081023131001ADYR TRADING                                             0505
A0101400440161187728002MIGUEL P. DE LEON                                        0503
A0101400440161478374126DELIA SERRANO                                            0501
A0101400440161520766184MA. RENITTE D. ROMA                                      0501
A0101400440161525001092EDNA D. DOLORES                                          0502
A0101400440161525001105VIRGIE B. CRUZ                                           0501
A3101400160221041281001GOHLONG TIRE AND SERVICE CENTER                          0502
A0101406460272293536001DATOR, CHARLY DE GUZMAN                                  0502
A0101406620273306796024MA. LIWAYWAY TAN                                         0501
A0101400570281423865002RIBAYA, VICTORIA CABRERA                                 0501
A0101408820333402698001DE CASTRO, RAYMUNDO MACALINAO                            0501
A0101402510341045146001GOLDEN DIMSUM FOOD EXPRESS                               0502
A0101402510341325613001LILY R. GEROY                                            0501
A0101402060351211706001GEORGE FERRER                                            0504
A0101408950396574308001DR. VERNILO E. LIBAGO                                    0503
A0101403030441359631001**********                                               0501
A0501400170481252349002LALAS, MAEVA DELA CRUZ                                   0502
A1901400160491448897001DELIA P PORTUGAL                                         0501
A0101408530516571877181BENJAMIN E. ROXAS JR.                                    0501
A0101403610531219510001AMANTE, DIOSCORA CASTASUS                                0502
A0101403610531712013001LUMPAS, MARILYN DEL ROSARIO                              0502
A0101404130601401353002GONZALES, ALAN DALE CARDONES                             0501
A0101407720602163161002DY, PRUDENCIO DOLORES                                    0501
A0101404680651034098001NOVAVILLE PAINT CENTER                                   0502
A1301400500684798557001ONG, WILLIE                                              0505
A1301400500684798557002ONG, WILLIE                                              0505
A0101408240711453117001MICHAEL RICHARD RAMIREZ                                  0502
A0101408240711478374022PAGLICAWAN JR., RODOLFO                                  0502
A0101408240711574662001ABDON, SOLEDAD ROMANO                                    0501
A2801400100712478374006OLIVIA G. ARAO                                           0501
A4101400390813478374065ESGUERRA, SUSANA                                         0501
A4101400420814509594001PEREZ, FRANCISCO YATCO                                   0501
A4101400420814520766038POLINARIO, THERESA BELLEZA                               0501
A0101404840851478374071MARITESS C. CASARILLA                                    0501
A0101404840851481664028ERNIE DELLOSA                                            0501
A0101404840851549756001BELO, CRISTINE CARREON                                   0502
A1301400470000000061521SUSANA P. RIVERA OR                                     10501
A0101406750000000173033TORRES, NOEL DBU FRANZBUILT                             10501
A1601400170000000421069CHARLES P. CLEMENTE III OR                              10504
A0101404130000000485723YEE, SONNY L DBU SLY POULTRY                            10503
A0101412340000001017532CORPUZ, GERRY DEL MONTE OR                              10501
A0101402510000001025983ROSITA/MARIE STELLA NAVARRO/                            10501
A1301400470000001299072VAL PALILIO OR MAYUMI PALILIO                           10505
A1101400120000001547473LIM, DOROTHY DELL S. OR                                 10501
A4101400390000001732503RICAFRENTE, GINALYN DBU GELYN                           10501
A0301400790000001776229ADRIASOLA, JENNIFER DBU                                 10503
A1701400230000001786792MARTIN, EUPRECITA B.                                    10501
A3101400160000002711775MA ANGELA L GARCIA OR                                   10501
A0101400150061242841001MA. AURORA R. ORTIZ  OR                                 10501
A0601400100081251899001YALUNG, ROBERT OR MA. CRISTINA                          10502
A1301400760253087654001CATHERINE F SANVICENTE OR                               10505
A0101406620273337587001SIMPLICIO C. BELISARIO JR. OR                           10502
A0101408950396563050001CHIO, NANCY BORJA OR                                    10502
A1901400160491405481001CARMELA P LLANA OR                                      10504
A1601400170494047880001AIREEN I. SALAZAR DBU A.                                10501
A0101408110515023542001FLASSIQUE FINE FURNITURE                                10502
A0101403610531219534002DUNGLAO, FELICIDAD ANCHORIZ                             10503
A1301400210682582829001ELENA G DEL ROSARIO OR                                  10503
A0101408240711170768001MELISSA O. SIMPAO OR                                    10501
A0101406750852078501001TAKEDA, RACQUEL G. OR                                   10501
A0101406750852774013001MARK JEROME SAQUING OR MARY ANN                         10502
A1301400470000000061521GERONIMO G. RIVERA                                      20500
A0101406750000000173033CONSTRUCTION                                            20500
A1601400170000000421069CHARLES L. CLEMENTE JR.                                 20500
A0101404130000000485723FARM                                                    20500
A0101412340000001017532CORPUZ, IMELDA DELA CRUZ                                20500
A0101402510000001025983MARIO POTENCIANO NAVARRO                                20500
A1301400470000001299072OR ARVIN OR GLEN PALILIO                                20500
A1101400120000001547473LIM, RICHARD Y.                                         20500
A4101400390000001732503SMOKED AND DRIED                                        20500
A0301400790000001776229JOAD GENERAL MERCHANDISE                                20500
A1701400230000001786792OR MARTIN, HONORATO                                     20500
A3101400160000002711775LEONILO E ERCIA                                         20500
A0101400150061242841001MA. AURORA CARLA                                        20500
A0601400100081251899001OR SANTOS, MA. L                                        20500
A1301400760253087654001VINCENT PAUL P SANVICENTE                               20500
A0101406620273337587001J0CELYN G. BELIS                                        20500
A0101408950396563050001CHIO, MARTIN CLARENCE ONG                               20500
A1901400160491405481001VINCENT WIGBERT P LLANA                                 20500
A1601400170494047880001SALAZAR LEARNING                                        20500
A0101408110515023542001& INTERIOR DESIGN                                       20500
A0101403610531219534002OR DUNGLAO, JOSE                                        20500
A1301400210682582829001VICTORIA G DEL ROSARIO                                  20500
A0101408240711170768001RAFAEL F. SIMPAO                                        20500
A0101406750852078501001JULAO, FLORENCE                                         20500
A0101406750852774013001SAQUING                                                 20500
B2801400100000000004899SUPREME TABAC INCORPORATED                               1601
B1301400760000000007201CONSUMERREACH, INC.                                      1610
B0101408820000000713251********                                                 1605
B0101407270000000830653LA RIE FINE JEWELRY CORPORATION                          1601
B0101405940000000886682SEWELLS GROUP PHILIPPINES, INC.                          1602
B0101403450000000889574***********                                              1603
B4101400260000001199060BOSITA, EMILIANO LAQUI           JT                      1601
B1301400500000002063827***************                                          1603
B0101401700041007609001BLAZER CAR MARKETING INC.                                1603
B0101405810072011448001**********                                               1602
B0101405810072017037001TANSIONGKUN, LULU GONZALES                               1601
B0101400730111042662001CENCAR CORP.                                             1603
B0101406460272532562001OMNICEUTICAL CORP.                                       1601
B0101408820333042383001********                                                 1605
B0101402060351009431001RPP SAVINGS AND LOANS ASSOCIATION, INC.                  1603
B0201400760374032939002GATEWAY MOTORS (CEBU), INC.                              1605
B0201400890376045807001**********                                               1620
B0101409180397670520001CASAEUROPA INC.                                          1604
B5501400120410654342008SAY, CLETO OR FELING OR HELEN OR DANNY                   1601
B1201400150421252673001GALANG, ARMANDO DUNGCA                                   1603
B0501400170481018109001*********                                                1601
B1901400160491012917004ALPS THE BUS INC.                                        1605
B1901400160491012917005ALPS THE BUS INC.                                        1605
B0101403450521029023001**********                                               1602
B0101403450521029235001*******                                                  1605
B0101404000551042547001OCI-UNID PHILS., INC.                                    1602
B0101404130601025459001ERICMAN PRINTING SERVICES                                1601
B0101404130601542506001ELEV8 TRADING AND MARKETING CORPORATION                  1603
B1301400500684029282001L5 & SONS FINANCING CORP.                                1610
B0101408240711026678001SAMBEL PACIFIC CORPORATION                               1602
B4101400550815041950001GARDENIA KAPIT-BISIG MULTI-PURPOSE                       1603
B0101408530516579627002RED PLANET HOTELS PHILIPPINES                           11605
B0101404000551100005001PHILIPPINE LONG DISTANCE TELEPHONE                      11605
B0101408530516579627002CORPORATION                                             21600
B0101404000551100005001COMPANY                                                 21600
B0301400950196821100608**********                                               2002
