F3101400320222448311001YABUT, ERNESTO GONZALES                                  2502CKO
F4101400130811359323001ERLYN U PENANO                                           2501CKO
F4101400390813039464009ADDATU JR., DOMINGO                                      2502CKO
F4101400390813039856005ADDATU JR., DOMINGO                                      2502CKO
F1001400350000000017063MSU-IIT NMPC CARMEN-CDO BR.                              2601CKR
