A0101404260000000156803ORDONA, JEREMIAH RAMILO                                  0502
A0101414120000000398892A.R.P. TRUCKING                                          0501
A0101402350000000443263JUANE, MARLENE AZADA                                     0501
A4101400550000000506825MARTUS JR., BENJAMIN BAWAGAN                             0501
A0101414120000000875801NUNEZ JR., RICARDO CANALES                               0501
A0101412050000000890728HABOC, EDITH POLIDARIO                                   0501
A0101412180000000908470ANG, KENNETH                                             0501
A1001400350000000922058ARENO, ANN JANE BUCO                                     0501
A1001400350000000922150OH, EDMUND YU                                            0501
A0201400920000000991766**********                                               0501
A5001400170000001003421LEYNO, KATHERINE MARAON                                  0505
A0101408240000001038813RONA, ANGELITO ARGENTE                                   0501
A0101412890000001056542FLORES, MYRAFLOR PABLO                                   0501
A0101412890000001056553REYES, ARNOLD PAJE                                       0501
A0301400660000001113795VILLADAREZ, RICHARD RANIS                                0501
A0101414120000001142921URBANO, SANITO DALAG                                     0501
A0101412180000001293243PUNZAL, DODGE KEVIN BONIFACIO                            0501
A0201400920000001331840ACT LOGISTICS (PHILS)                                    0502
A0101406040000001391971ALEX C. DYPUA                                            0501
A0601400100000001442871CLARETE, MYLA BUNGQUE                                    0502
A0101402350000001474186ALBA, FRANKLIN LADERO                                    0501
A0101402350000001474324MARTINEZ, KENNETH BUHAT                                  0501
A1401400110000001549311ALVARICO, PAMELA ESCAREZ                                 0501
A1401400110000001549322RAVANERA, EDGAR ALLAN EROLES                             0502
A0301400820000001554901SALAO, JOY S.                                            0501
A2001400290000001557600CAPILLA, JULIET VILLAFUERTE                              0501
A0101414120000001642586TIBOR, FERNANDO EMBALADO                                 0501
A0101414120000001642644PAUIG, JUAN JAMES CASAUAY                                0501
A0101400570000001681790ELIZABETH U. BLACKA                                      0501
A4101400390000001732601CASTRO, MARIETTA MILLEZA                                 0501
A0101414120000001751491TALERO, REY TANO                                         0501
A0101401960000001844431****************                                         0501
A0101408400000001952763BAGAPORO, MERLIZA OFRACIO                                0501
A0201400890000002093881*************                                            0501
A0101401250021298552002CLARITA ARCEGA                                           0502
A0101401700041458452001YAMSUAN, EVA HABANA                                      0501
A0101401700041497664001TAN, SHARNER TIU                                         0501
A0101401700041502022001**********                                               0504
A0101411080042759582001 *****                                                   0502
A0101400150061226678001PAMELA A. CASIN                                          0501
A0101400150061514736001SORIANO, NILO CASTOR                                     0502
A0101401090171197427002LEVINA D. ZUNIGA                                         0503
A0101401090171322573001DR. PORSHIA COMES-NATIVIDAD                              0501
A0101401090171350451001SANTIAGO, REYNALDO G.                                    0502
A0101407140213523140001**********                                               0502
A3101400160221419880001ROWENA B. SUN                                            0502
A3101400450223045871001GIO & JAYVIN ENTERPRISES                                 0502
A1001400190231520766049JOCELYN S. LLUBIT                                        0501
A1301400470252455030001RODANTE I. GARCIA                                        0501
A0101401670271484664001NOEL C PINEDA                                            0502
A1101400120313478374049BANTULA, EVELISA F.                                      0501
A0101402350321280599001DE LEON, CARLA JOCELYN LIBUNAO                           0501
A0101402350321381653001EVANGELINE O. ILAS                                       0502
A0101408820333454062001ROQUE, ANTONETTE SIASOL                                  0502
A0201400920375540460001CATANE, MARY CHRISTINE GARCIA                            0501
A0201400890376724888088***************                                          0501
A0201400890376733226002DAVID, FRANCISCO PARUNGAO                                0501
A0101402930381478374009MARIVIC R. DELA CRUZ                                     0501
A0101402930381478374015DIMARANAN, ARNOLD ABEJERO                                0501
A0101402930381757923001HAHN, DUCK WOO                                           0502
A1201400150421732515001DULNOAN, DWIGHT SERRANO                                  0502
A1901400160491346311001NIDA M LACSAMANA                                         0502
A1401400110492455411001BELEN, ROSEMARIE SABATER                                 0504
A1401400110492735105001DESEMBRANA, AMELITA SALAZAR                              0501
A0101403450521239350001**********                                               0507
A2201400250561417945001MARIEL ANGELA I. PRINCIPE                                0501
A0101407720602472259001CALILONG, LORELEI IRA                                    0501
A0101404260611151074002BALASA, OFELIA ROSALDO                                   0501
A0101404420631040228001DGPRINT ADVERTISING CO.                                  0502
A0101409890649532489001CHUACUCO, NANCY SY                                       0501
A0101407560686172632001JAMES B. VERGARA                                         0501
A2801400230713792777001LOPEZ, JEAN EBANCULLA                                    0501
A4101400260812044230001ACTIONPOINT MANPOWER SERVICES                            0505
A4101400260812386293001DR. LORETA B. ZOLETA                                     0501
A4101400260812712319001MENDOZA, ROWENA GARCIA                                   0501
A4101400390813358866001DE LUNA, MELANIE RIVERA                                  0502
A4101400420814478374102MALIBIRAN, MARLYN M.                                     0502
A4101400420814478374163MA. CORAZON C. REATAZAN                                  0501
A4101400420814520766064ANDAYA, AURORA A.                                        0501
A4101400420814520766082TIHUME, NOEMI C.                                         0501
A0101405940000000061641GOMEZ, ENRIQUE EDUARDO MONTES                           10501
A0101410300000000191939CARBALLO, LUIS ANTONIO S. OR                            10510
A0101413280000000312643CARLOS R. ATAYDE OR                                     10501
A0201400760000000989682SISON, ULYSSES E. OR                                    10501
A0501400170000001032131ARCINUE, OSCAR LLAMAS OR                                10502
A3101400450000001149315NERONA, MANUEL DBU NERONA                               10501
A0101407140000001218331MIRANDA, MARY JANE NAIG OR                              10501
A0301400950000001379502MUNEZ, FELIPE VALLINAS OR                               10501
A0101400150000001422257ANDREWS, PAUL WILLIAM AVECILLA                          10501
A2201400250000001545591ROSSINI B. GALICIA DBU JRM                              10505
A0601400100081040294001MOIKAI INDUSTRIAL SUPPLIES AND                          10502
A0101401090171293965003VIVECA JANE OR CHARLIE                                  10502
A1001400350233653580001EVELYN OH OR EDWARD OH OR                               10503
A0101406460272190348003ANGELES, ROSARIO OR DALMACIO                            10501
A0101400570281043930002REALTY & ENTREPRENEURSHIP                               10501
A0101402350321180459002TING CHING LAN OR CHANG CHIAO                           10501
A1301400210682532235001RONALD M. NATIVIDAD                                     10501
A0101408240711228456002MA. VICTORIA MANIQUIS                                   10504
A0101408240711228456002MA. VICTORIA MANIQUIS                                   10502
A0101405940000000061641OR GOMEZ, LUZVILLA RAZON                                20500
A0101410300000000191939SALAZAR, EMMANUEl B.                                    20500
A0101413280000000312643CARMEN M. ATAYDE                                        20500
A0201400760000000989682SAYSON, NINA BIANCA S.                                  20500
A0501400170000001032131DE VERA, LUCIA M                                        20500
A3101400450000001149315TRADING OR NERONA, MINDA                                20500
A0101407140000001218331LAGUNDAY, NORIE HANG                                    20500
A0301400950000001379502MUNEZ, LEAH N.                                          20500
A0101400150000001422257ANDREWS, SUZETTE ROMERO                                 20500
A2201400250000001545591EXPRESS                                                 20500
A0601400100081040294001AUTOMATION SERVICES                                     20500
A0101401090171293965003DEOCADIZ                                                20500
A1001400350233653580001EDMUND OH                                               20500
A0101406460272190348003GREGORIO                                                20500
A0101400570281043930002ACADEMY OF THE PHILIPPINE                               20500
A0101402350321180459002FEI OR CHANG CHIAO FENG                                 20500
A1301400210682532235001YOLANDA D. NATIVIDAD                                    20500
A0101408240711228456002OR STEVE MANIQUIS                                       20500
A0101408240711228456002OR STEVE MANIQUIS                                       20500
B0101412630000000023850REA INSURANCE AGENCY INC.                                1602
B1901400320000000041283SAN ISIDRO MULTI-PURPOSE COOPERATIVE                     1601
B5501400120000000046842TACURONG FIT MART, INC.                                  1620
B0301400950000000566967AGRO-K PHILIPPINES CORPORATION                           1603
B0101412470000000949486**********                                               1603
B0101412470000000949533ASPEN MULTI SYSTEM CORP.                                 1605
B0101414120000001142818CAS PROPERTIES INC.                                      1602
B0101401700041007412001NEW BANAWE AUTO SUPPLY                                   1605
B0101400150061039643001J.M.PIZARRAS AND ASSOCIATES LAW OFFICE                   1605
B0101407140213007696002**********                                               1601
B0101401670271007091002JUSON REALTY DEVELOPMENT CORPORATION                     1601
B0101411240283044843001GEMINI BUSINESS & REALTY CORPORATION                     1603
B0101402350321006431002OLIVAREZ REALTY CORP. (CONDOMINIUM)                      1608
B0101402350321019914003DAVIDVILLE ACADEMY ELEMENTARY DEPARTMENT                 1605
B0101402350321020540001UMEREZ PROPERTIES                                        1603
B0101402930381009648001CHRIST'S COMMISSION FOUNDATION, INC.                     1610
B0101402930381040455001R & S LAW OFFICES                                        1604
B2401400180411044855001GOLDEN ATLANTIC MERCHANDISING                            1605
B0701400260495037805002PRINCETON ENTERPRISES                                    1601
B0101407430503023639001LAMBERT WILLIAMS LOGISTICS, INC.                         1610
B0101405940512020338001ANGEL LEIAIEL EXPRESS INT'L INC                          1605
B0101403450521011882004PAN PACIFIC TRAVEL CORPORATION                           1603
B0101404260611010597001FMW HUMAN RESOURCES INTERNATIONAL                        1602
B0101404260611028585001ARC WATER REFILLING STATION                              1606
B0101407560686040555001*************                                            1605
B0601400100081348978002M. PANLILIO OR A. PANLILIO OR J. PARAS                  11602
B0101402930381017213003UNIVERSAL ROBINA CORPORATION                            11602
B0101402930381031125001ESPIRITU VITALES ESPIRITU LAW OFFICE                    11601
B0601400230891647141001PATERNO &/OR MA EVANGELINE LUCIANO OR                   11605
B0601400100081348978002OR E. TIMBOL                                            21600
B0101402930381017213003URC - GD                                                21600
B0101402930381031125001(EVELO)                                                 21600
B0601400230891647141001JOANNE K PALO                                           21600
