A2801400100000000004720REYES, MYRA DBU MRC DENTAL CLIN                          0501
A0101411790000000005814MELGAR, CARISSA ANN PANLAQUE                             0501
A0101400600000000007649*********                                                0505
A3101400870000000074742******                                                   0503
A0101413730000000144669**************                                           0502
A0101413990000000206033MARITES R. CONANAN                                       0502
A0101406750000000358310TRIAS, AGNES DE JESUS                                    0501
A0101407720000000510712HENSON, KRISTINE JOY SANTOS                              0501
A0101405070000000541677BRAGANZA, NORA BALLARES                                  0502
A0101400150000000760805FELIPE, JOY HERNANDEZ                                    0501
A0101407270000000818359DARYL ANN J. PONCE                                       0501
A0101402930000000859565ARLEEN A. CRUZ                                           0501
A0101402930000000859714LAGURA, MAIRA MARIANO                                    0501
A0101405070000000868599DE JESUS, DESIREE DELA CRUZ                              0501
A0101401700000000890397JOSE BRAGAIS BORITO                                      0503
A0101401700000000890422ARENZA AUTO SUPPLY                                       0505
A0601400230000000989911**********                                               0502
A1001400480000001054875MAGARET, GREG PABIA                                      0501
A5501400120000001121986TAN, CRESILDA BELGA                                      0501
A1301400760000001295461MYRA JAZEL C. AUSTRIA                                    0502
A0101412920000001313717ALMOETE, JEMELEE ALMINE                                  0501
A1301400340000001415769********                                                 0501
A0101400440000001439663MEDCON PHARMA                                            0502
A0101400440000001439692OMG ARTS & FRAME SHOP                                    0502
A2801400100000001494500BELGA JR., AVELINO SARCILLA                              0501
A2801400100000001494522**********                                               0502
A0101412050000001499790JAVIER, RAUL SORIANO                                     0501
A2201400250000001545513RIVERA, RONNIE FERNANDEZ                                 0501
A0101406620000001686804ASPRA, DAPHNE PADILLA                                    0501
A0601400230000001687061LINGAT, PAOLA ANGELICA MERCADO                           0501
A0101400150000001708243LAMATA, MANUEL RODRIGUEZ                                 0501
A3101400870000001712152LANCETA, CLAUDIA LATAYAN                                 0501
A0101411950000001771068RONILO S. DE LEON                                        0501
A0901400220000001804980**********                                               0501
A1201400150000001863174CABALBAL JR., RODEL MARQUEZ                              0501
A1101400120000001920576EDER, CONCORDIA ECO                                      0502
A1101400120000001920587GLORIA, JACINTA DADULA                                   0501
A1001400190000002170510ERIC Y. ACHAS                                            0501
A0201400890000002270617*************                                            0501
A3101400870000002650591SALIPONG, ABEGAIL BUMANLAG                               0501
A1001400480000002659783REFUGIO, SOFRONIO RETUTAS                                0501
A0101401250021772304001CAUTIVO, LAWRENCE PAUL ACAG                              0502
A0101400150061401662001DAYAO, ROSALYN ZAPANTA                                   0501
A0101400600071335835002*******                                                  0510
A0101400600071519944001********                                                 0501
A0101405810072234861001**********                                               0502
A0101405810072234892001**********                                               0502
A0101405810072383141002WANG, CIHAI                                              0501
A0101400730111412858006ERLINDA GALANZA                                          0502
A0101406040112653549001JEANETTE G. SY                                           0505
A0101400440161478374144CELERINA M. MARASIGAN                                    0501
A0101400440161525001033MARY JANE V. MACALINAO                                   0501
A0101400440161525001115EVA D. SAMILLANO                                         0502
A0101407270162333006016MA. CIELO VILLEGAS                                       0501
A0101407270162721922001REYNALDO J. DEL POSO                                     0501
A0101407140213376844001**********                                               0501
A3101400450223028468001NEW ARMSTRONG SECURITY AGENCY                            0502
A3101400450223494342001BELEN, RHODORA OR TOM OLIVER                             0501
A1001400350233668674001ENDAYA, JILL YVES LORRAINE LAO                           0501
A1301400470252763998001BEVERLY C. EVANGELISTA                                   0501
A1901400290261298552066DOLORES SARMIENTO MANGUIAT                               0501
A1901400290261606931001VICENTE KEH AFRICA JR.                                   0505
A1901400290261689596001MARY ERNESTINE C COLUMBRES                               0502
A0101406620273452838001CLEMENTE, DANTE DELA CRUZ                                0501
A0101406620273720692001******                                                   0502
A0101400570281624893002MA. REGINA L. EDILLON                                    0501
A2001400290315688009001ALGOPERA, LLOYD GARCIA                                   0504
A0101408820333777498001VIRAY, JOSE OR VIRAY, TESSIE                             0501
A0101402060351217444026RAMOS, MARIA VICTORIA E.                                 0501
A0101402930381478374015DIMARANAN, ARNOLD ABEJERO                                0501
A0101402930381533633001******                                                   0502
A0101402770391037621001ID & D GENERAL MERCHANDISE                               0501
A0101402770391190325001JOSIE G. PACENCIA                                        0501
A0101402770391478374049EDITHA DELA TORRE                                        0501
A0101405490392416867001ERLINDA B. GARCIA                                        0502
A2401400180411478374047YOLANDA L. NINGAL                                        0502
A0101403320471478374005JOANN L. ANDAY                                           0502
A0101410140475478374011MEMBERS OF NATASHA (SHOECAT INC                          0501
A0101403450521478374007********                                                 0501
A0101403610531232548002MORANDO, TEOFILO ALMENDRALA                              0503
A0101403610531368279001PITERO, MARLENE NEPOMUCENO                               0501
A0101403610531400970001BRILLANTE, ROSARIO AMIL                                  0502
A0101404000551390720001BRIONES, ANGELITA MANAIG                                 0503
A0101404130601150580001WERLE P. GALANG                                          0501
A0101407720602397568001CLOMA, ROSARIO MENDOZA                                   0502
A0101404260611155266001YU, SUSANA OR EDDIE                                      0501
A0101404260611335308002ALIMBOYONG, JOSEPHINE MAHINAY                            0503
A0101404260611581422001FILIO, MARIEL PEREZ                                      0501
A0101404260611635256001ABELLA, EDUARDO JUAN FAUSTINO                            0501
A0101404260611635256001ABELLA, EDUARDO JUAN FAUSTINO                            0502
A4101400260812246078003ESTOCADO, EMILANIE JARDINIANO                            0501
A4101400420814478374043ESPINO, GEMMA D.                                         0501
A0101404840851217637103SERAPIO R. MABILANGAN JR.                                0502
A0101404840851368068003BALAGTAS, ROWELLDA CHIONG                                0502
A0101406750852787916003TAN, LUZBELLA FORTICH                                    0505
A0101405070861197650002********                                                 0502
A0101405070861366707001ARELLANO, MA. ELENA BALLESTEROS                          0502
A0101405070861478374067TIRSO M. ARROJO JR.                                      0502
A0101405070861496910001EDNA L. SARSUELO                                         0501
A0101405070861527090001RYU, KYOUNG HWA                                          0503
A0101402930000000038662CAPULONG, ENRICO STEVE ENRIQUEZ                         10502
A2201400250000000433572GEELEAN A. LEE DBU DIAMOND STAR                         10501
A0101409920000001539631MEMBERS OF NATASHA (SHOECAT INC                         10502
A1101400120000001547371GRANADOS, JERIC DANE G. OR                              10502
A3101400160000001559264DEZERTECH ENGINEERING & GENERAL                         10502
A0101402770000001571193CERVANTES, DIVINAGRACIA                                 10501
A3101400870000002650546BUMANLAG, ARTURO CALATA OR                              10501
A1001400480000002670697SUICO, DON ANECITO SOMOSOT OR                           10501
A0101400150061329718001ZABALETA JR., JOSE MARIA PONS                           10501
A0101400730111478374112STO DOMINGO, CONSTANCIA                                 10501
A0101400440161471044001SHERWIN T GERBUYOS OR                                   10505
A0101401090171376119006MARC LADISLA OR JOHN REYES                              10502
A3101400870225053612001CONSTANTINO, N DBU NINO                                 10501
A1001400350233732232002CAUBE, MARIVIC JAMERO                                   10502
A0101406460272677065001YAPJUANGCO, DIVINA GRACIA T. OR                         10502
A0101410980275076641001TAN, GLENN RYAN UY OR                                   10502
A6601400120314690205001MAMACOS, CRESILDA OR MAMACOS,                           10503
A2401400180411338845001ROBERTO T. PERALES OR                                   10505
A1201400150421253624001GUANZON, ALICE D. OR                                    10506
A0101403610531762297001HO, HELEN TAN OR                                        10502
A2201400250561254819001ADONIS V. GARCIA OR                                     10501
A2201400250561258530025CATHERINA T. DOMINGO                                    10501
A0101402930000000038662OR CAPULONG, MA.                                        20500
A2201400250000000433572COMMERCIAL AND JESS S.CHU                               20500
A0101409920000001539631SARILE, MICHELLE                                        20500
A1101400120000001547371GRANADOS, BRIAN STEVE G.                                20500
A3101400160000001559264MERCHANDISE                                             20500
A0101402770000001571193DELOS REYES                                             20500
A3101400870000002650546BUMANLAG, FLEUR DE LIS                                  20500
A1001400480000002670697SUICO, ARDJEL BANEZ                                     20500
A0101400150061329718001OR ZABALETA, JOSE MARIA T                               20500
A0101400730111478374112CHARLENE                                                20500
A0101400440161471044001CRISTINA I GERBU                                        20500
A0101401090171376119006OR ALFONSE ADALIA                                       20500
A3101400870225053612001CONSTANTINO CONSTRUCTION                                20500
A1001400350233732232002OR CAUBE, VICTOR                                        20500
A0101406460272677065001YAPJUANGCO, SAMU                                        20500
A0101410980275076641001TAN, JANET DE JOYA                                      20500
A6601400120314690205001SINFORIANO                                              20500
A2401400180411338845001JANET C. PERALES                                        20500
A1201400150421253624001GUANZON, DELFINO                                        20500
A0101403610531762297001TAN, DOLORES LIM                                        20500
A2201400250561254819001MARY T. GARCIA                                          20500
A2201400250561258530025EMPLOYEES OF IEWPC                                      20500
B1601400170000000036057MULTI-WARE ECON-SALES CORPORATION                        1603
B0701400260000000041083MULTI-WARE ECON-SALES CORPORATION                        1605
B0101400440000000337773VIENNA PORCELANA PHILS. INC.                             1602
B0101408240000000832962CARMEL LAND SALES & DEVELOPMENT CORP.                    1605
B0101408240000000832973DSiGLOBAL, INC.                                          1605
B0101403450000000889621FERRIS SOBELL PROPERTIES INC.                            1603
B0101405810072040421001SK-T COMPANY                                             1603
B0101401960121012201001ARCTUS ENTERPRISES, INC.                                 1606
B0101401960121238876001**********                                               1602
B0101407270162043137001BLUE HEAVEN'S BEST PRODUCTIONS INC.                      1605
B3101400450223027177001SOUTH ALLIANCE DISTRIBUTION NETWORK                      1601
B1001400190231043368001SML VENTURES                                             1601
B1901400290261036122001LODLOD PARISH MULTI-PURPOSE COOPERATIVE                  1605
B1901400290261038430001LIPA CITY DENTAL CHAPTER                                 1602
B0101401670271028082002DDT KONSTRACT, INC.                                      1615
B0101406620273007454001GLOBE ASIATIQUE REALTY HOLDINGS CORP.                    1605
B2001400290315044204001ACEBANK CREDIT, INC.                                     1601
B0101402060351034715001LAY BARE FRANCHISING CORPORATION                         1603
B0201400760374435205001**********                                               1601
B0101402930381040393001RESOURCE ONE CORPORATION                                 1601
B0101402930381041594001POWER ONE CORPORATION                                    1601
B0101402930381047467001FLUID SOLUTIONS, INC.                                    1601
B0101407430503006836002UPS DELBROS INT'L EXPRESS                                1605
B0101407430503028651001TMC TRUCKING SERVICES                                    1601
B0101406880513021335002ACTIVE REALTY AND DEVELOPMENT CORP                       1610
B0101403610531044823001WELLSPRING OF GRACE SCHOOL, INC.                         1601
B0101403610531046549001BIG APPLE PLASTIC PACKAGING INC                          1603
B0101404000551032987001PANOPIO ESCOBER AND ASSOCIATES LAW                       1601
B0101404130601046670001ARKHI INTERIOR DESIGN AND BUILDERS                       1602
B0101404130601563008001I. PRUDENTIAL SHIPPING AGENCY SERVICES                   1605
B0101407720602027123001GOLDRICH VENTURES TRADELINKS, INC.                       1601
B0101404260611034715001LAY BARE FRANCHISING CORPORATION                         1605
B1301400340683036384001PLAN ADMINISTRATOR INSTRUCTION'S                         1602
B1301400340683045643001JOURNEY ELITE MOVER'S CORPORATION                        1602
B1701400230693035209003OUR SAVIOUR'S FOUNDATION, INC.                           1602
B0101408240711024878001INFO-ED MARKETING CORP.                                  1602
B0101405070861565051001BLAUGRANA CORPORATION                                    1602
B0601400230891028013001OCAMPO'S MARKETING, INC.                                 1602
B0101404710681821100608**********                                               2003
