 0101410720653407205003                                                           00
A0101406750000000017490SESE, ALDEN ANTHONY DIZON                                0501
A0101400150000000052980HERNANDEZ, BRENDA SOLIDUM                                0502
A0101403320000000067532YAGUEL, SALVE L.                                         0502
A0101407720000000112023GALEON, VANESSA AMOR ARENDAYING                          0501
A0101413860000000145133ALEJANDRE, EFREN MATIBAG                                 0502
A0101406750000000173000SUMANG, WILFREDO SALONGA                                 0501
A0101410720000000234831TIMONERA, OLIVER FABIAN                                  0502
A0101410140000000254460RACELA, A DBU BMPS GLASS ALUMIN                          0502
A0101406750000000358412ROMERO, MARIA CECILIA BONIAO                             0502
A1601400170000000421149EVELYN B. DELVO                                          0502
A0101413440000000570198EMELITA P. DAGUIT                                        0501
A0101413440000000570369CUEVAS, MELANIE ELAINE JAVIER                            0502
A0101400440000000596641LUZVIMINDA EVANGELISTA                                   0501
A4101400420000000710552GEOCADA, ANTONIA                                         0501
A0101410850000000778725TURLA, EDWIN SUPAN                                       0501
A0101407270000000818224****************                                         0502
A0101409180000000874682VILLANUEVA, CHERYL ATIENZA                               0501
A0101410720000000882862CASTRO, JASMIN PABLO                                     0501
A0101412050000000890900SOLANO, RODELIO JUNTO                                    0501
A3001400130000000931242ATALO, ABELLA GENARO                                     0501
A2601400270000001009210RODOLFO C YAP OR MARIBEL D YAP                           0501
A0101400730000001016419MIRANDA, VIRGILIO PARRENO                                0501
A0601400230000001062424ANGELES, ROSAS SANTOS                                    0502
A0101410140000001074760MANALO, JOCELYN DANSICO                                  0501
A0501400200000001081043ROSARIO II, FLORENTE ROJOLLY P.                          0501
A5501400120000001121964ESTEMBER, JOERY CALERA                                   0501
A0101411660000001145802ELMER M DOGUNA                                           0501
A0101412500000001146890TAN, ANNALYN COCO                                        0501
A0101412500000001146907PUCAN, MARY MARIAN ASUNCION                              0501
A0101410980000001154432********                                                 0501
A0101403610000001174823HERNANDEZ, CORAZON SULAYAO                               0502
A0101403610000001174903LIZARDA, MICHELLE CASACOP                                0503
A0101403610000001174910DAVID, MARK ROSCOE VELASCO                               0501
A3101400870000001177093RIVERO, CHRISTOPHER ABRAGAN                              0501
A0701400260000001232040JUDILLA, ELENA STA. ROSA                                 0501
A0101413730000001253229************                                             0502
A0201400920000001331833CEBRERO, JAPHETH VILLANUEVA                              0501
A0601400100000001442882REYES, MARION AQUINO                                     0501
A0101413440000001472880LOPEZ, SHERYL SY                                         0501
A0101412050000001499669NOVEDA, RODRIGO GAPASIN                                  0501
A0101405940000001534225MANALO, MA PATRICIA HERNANDEZ                            0501
A1101400120000001547428TIU JR., ROMEO CABUG-OS                                  0501
A0101410720000001602197PALTEP, FLORENCE CLAVERO                                 0501
A0101410720000001602200ENRIQUEZ, MATILDE ESGUERRA                               0501
A4101400550000001622680APOLINAR, HAZEL VILLARENTE                               0501
A0101409050000001662415BAUTISTA, SWEET FAYE VIDAL                               0501
A0101413570000001720132ALLIE VALENZUELA AGUSTIN                                 0501
A0101408820000001766652FERNANDO, ELDANI SESCON                                  0501
A0101412630000001823285VERGARA, MARY ANN S.                                     0501
A1201400150000001863101PALSIW, SHEILA BALABAG                                   0501
A0101400860011420919001**********                                               0505
A0101400860011447468001**********                                               0502
A0101400860011478374008**********                                               0501
A0101400860011562670001**********                                               0501
A0101400860011568821001**********                                               0505
A0101400150061430140001**********                                               0501
A0101400600071637368001********                                                 0505
A0101405810072265481001PLAZA, LEONORA LIM                                       0505
A0101405810072316984001**********                                               0501
A0101400730111520766061BERNADETT BALUTOC                                        0502
A0101400730111587293001AGAD, JENNILYN VALEZA                                    0501
A0101400440161039572023JIMMY S. PALISOC                                         0501
A0101400440161039572032IAN PAUL A. PADILLA                                      0502
A0101400440161525001091CRISTINA A. PADILLA                                      0502
A0101407270162385235002RAFAEL M. MERCADO                                        0502
A0101401090171196088001ROSALES, LIBERTAD NAZARENO                               0503
A0101401090171312734001DE LARA, AILEEN CYNTHIA F.                               0502
A0101401090171358473001VAL G. BRILLO                                            0501
A0101401090171368642001ARLENE Z. AGUILAR                                        0501
A0101401090171589368001IRENE Q. REA OR GOLDWIN G. REA                           0501
A0101407140213348378001JASON M. CHUA                                            0502
A3101400160221611111001AILEEN A. SOSMENA                                        0501
A1001400190231520766110MAYOR, CARMELITA ANGCAY                                  0501
A1001400350233478374033CARAOS, PATROSENIA T.                                    0501
A0101401670271188147003FRANCISCO M. LIBORO                                      0505
A0101401670271356514001* * * * * *                                              0501
A0101400570281361144001ERIC G. IDIESCA                                          0501
A0101405650322369942002POLICARPIO III, JOSE JAIME M.                            0501
A0101408820333698480001PENAFLOR, MARIAN ASTORGA                                 0501
A0101402770391355762066JENNIFER ALFORQUE                                        0501
A0101405490392044249001SAMAIREE CLOTHING SHOPPE                                 0502
A5501400120410685210001GUINTIBANO, EDEN VILLARUEL                               0501
A1201400150421252878001ABELLA, RAFAEL MANZANILLO                                0504
A0101403450521238268001**********                                               0502
A0101403450521241170001**********                                               0502
A2201400250561038458001PTT SOUTH RAMP GASOLINE STATION                          0501
A0101407720602163494001SHERMAN O. VALERO                                        0504
A0101407720602403958001GALANG, ROEL LEONARDO ROBLES                             0502
A0101410720653733525001SUING, LEONOR PEREZ                                      0501
A1301400340683478374040JARANILLA, VIOLETA                                       0501
A1301400340683495036001MARCELO, ELENA RIVERA                                    0510
A0101407560686175875001RAYMUND B. KHO                                           0501
A0101407560686478374065MARGELINA R. GUILLERMO                                   0501
A0101407560686478374069ROLANDO PATAC                                            0502
A0101407560686498899001**********                                               0502
A0101407560686728447001********                                                 0502
A1701400230693478374050FAILANO, LYDIA G.                                        0501
A2801400100712039498002VECTOR PEST CONTROL                                      0502
A4101400420814520766034LEONIDA M. OBELIDOR                                      0501
A4101400550815081410001DELOS SANTOS, JULITA DUMAPIAS                            0501
A0101412340850084786001MIRACLE GRACE S. DUMIP-IG                                0501
A0101405070861478374088MANUELA O. TY                                            0501
A2401400180000000427996TUPAS, MARVIN REY PALLARCO OR                           10505
A0101403030000000531440TAN, KENT ANTHONY LIM OR                                10502
A0101410300000000592165LACUESTA, ARACELI OR KUO,                               10502
A0101401090000000993295VALMOJA, ESTELA OR GERARDO OR                           10501
A0101412890000001056520RAMOS, NICASIO DELA CRUZ OR                             10501
A0101411660000001145788TUMPALAN, SOCRATES DBU FIRST                            10501
A1301400470000001299032ARNOLD PASCUAL OR JAYSON CANDEL                         10502
A0101405070000001455892ROY A. MIRANDA OR JULIE ANNE                            10501
A0101409050000001662426FEPIANCO, FRA DBU DRAGON EMPIRE                         10501
A3101400870000001712130DELA CRUZ, A DBU JAMINIC                                10502
A0101405070000001726143ROGELIO AZARRAGA OR                                     10501
A2201400250000001932247CLDH EMPLOYEES CREDIT                                   10502
A0101400150061226941001ROBERTO L. CO OR                                        10501
A0101400150061464185003DE SAGUN, SIGFRID ALEXIS ARCE                           10502
A0601400100081251801001PANLILIO, AUGUSTO G. OR                                 10503
A0101400730111478374112STO DOMINGO, CONSTANCIA                                 10501
A0101406620273315888001LAUREL, JOANNA OR LAUREL, CARLA                         10501
A0101406620273388793001ASUNCION, MARIANO GOMES OR                              10503
A0101405650322670876001INACAY, VICTORIA T. OR                                  10501
A0101402770391213520001MA. LUISA C. ISIDRO &/OR                                10501
A2401400180411275775001GARCIA JR., VICENTE BORNEO OR                           10504
A1401400110492652676001DEZA, VIVIAN P. OR                                      10505
A0101405940512692439001ROXAS, CHARLENE TAN OR                                  10501
A0101403610531662330001BERROYA, MARK LESTER AMOR  OR                           10501
A0101407560686317153002POLICARPIO, BARBARA OR                                  10501
A2401400180000000427996TUPAS, BEATRIZ P                                        20500
A0101403030000000531440TAN, JENNILYN CLAIRE YU                                 20500
A0101410300000000592165CRISELDA                                                20500
A0101401090000000993295VALMOJA, ROQUITO                                        20500
A0101412890000001056520ALMA ROGADO RAMOS                                       20500
A0101411660000001145788SUN MARKETING                                           20500
A1301400470000001299032ARIA OR ROCKY HIPOLITO                                  20500
A0101405070000001455892MIRANDA                                                 20500
A0101409050000001662426CONSTRUCTION                                            20500
A3101400870000001712130ENTERPRISES                                             20500
A0101405070000001726143ALICIA AZARRAGA                                         20500
A2201400250000001932247COOPERATIVE                                             20500
A0101400150061226941001DOLORES I. CO                                           20500
A0101400150061464185003DE SAGUN, ANNE MARIE PERE                               20500
A0601400100081251801001PANLILIO, MARIE                                         20500
A0101400730111478374112CHARLENE                                                20500
A0101406620273315888001LAUREL, CARLOS OR LAUREL,                               20500
A0101406620273388793001GUPIT, JEANNETTE ASUNCION                               20500
A0101405650322670876001INACAY, ORLANDO                                         20500
A0101402770391213520001ROBERT ISIDRO                                           20500
A2401400180411275775001GARCIA, NELISSA                                         20500
A1401400110492652676001DEZA JR., ARSENIO A.                                    20500
A0101405940512692439001ROXAS, JEFFERSON CHAN                                   20500
A0101403610531662330001BERROYA, CONNIE MORADA                                  20500
A0101407560686317153002POLICARPIO, FERNANDO                                    20500
B1001400350000000017041LIMKETKAI HOTEL & RESORT CORPORATION                     1610
B0101409050000000022540ASPHAMUL PAVECOAT, INC.                                  1601
B0301400660000000022868KEIZENNG TRUCKING CORP.                                  1602
B0101410300000000026371UNIPRO PACKAGING CORPORATION                             1602
B1201400150000000034391BLESSED ASSOCIATION OF RETIRED PERSON                    1602
B1401400110000000034631THOCH MARKETING CORPORATION                              1601
B1401400110000000034642CHRIS JANN CORPORATION                                   1601
B3101400870000000074902RAPIDTRANS LOGISTICS INC.                                1601
B0101410980000000171997FUNTOURS TRAVEL CORPORATION                              1601
B0101403030000000320425**********                                               1601
B0101400440000000337871GERAND BUSINESS CONSULTING CORP.                         1602
B0101403320000000522245MAGPIKIT RESOURCES INC.                                  1603
B1301400210000000540890EL MOLINO CONSTRUCTION SUPPLY CO.                        1603
B0301400950000000567011CS3 LENDING AND REALTY, INC.                             1602
B0101400730000000659690MAGIC STEP FASHION INTERNATIONAL, INC.                   1601
B0101400730000000659707CITY DELIGHT GENERAL MERCHANTILE, INC                    1601
B0101400570000000749548ALLIANCEJADE GARMENTS CORP.                              1603
B0101411080000000806002RANC DISTRIBUTORS INC                                    1601
B0101407270000000830773FUTURE FULLY ADVANCED REALITIES IN                       1601
B1301400210000000915639AVS DISTRIBUTION CENTER                                  1601
B4101400260000001198869GREENLEX  SYSTEM SERVICES INC.                           1603
B0101408820000001880617LION LAMINATION SERVICES CORPORATIO                      1601
B0101401700041192600001128 DREAM FOUNTAIN CORP.                                 1605
B0101400600071516450001********                                                 1601
B0601400100081034790001SHINMEI CREDIT AND LOANS CORP.                           1601
B0101400730111014312001NGC MEDICAL SPECIALIST CLINIC, INC.                      1605
B0101406040112038776001ELIJAH HOUSE MINISTRY, PHILIPPINES                       1602
B0101401960121044032001EASTERN INTEGRATED SYSTEM & AUTOMATION                   1602
B0101400440161026216001TELEGA, INC.                                             1602
B0101400570281043563001DR. JESUS C. DELGADO MEMORIAL HOSPITAL                   1602
B2001400290315041308001BOTICA DE SAN FRANCISCO                                  1602
B2401400180411017908001LWC CYCLE MART, INC.                                     1602
B2401400180411033733088ECA RESOURCES, INC.                                      1601
B0501400170481018109001*********                                                1601
B0101408110515037833001CWS PHILIPPINES INC.                                     1602
B0101403450521239028002**********                                               1601
B0101403450521628709001FU, AINSLEY JAMES AYROSO                                 1601
B0101403610531046502001SAN PEDRO APOSTOL PARISH                                 1603
B0101403610531659842002DELAMO LENDING INVESTOR CORPORATION                      1603
B0101404000551042547001OCI-UNID PHILS., INC.                                    1602
B2801400100712736615001NOUA SUBIC CORPORATION DOING BUSINE                      1605
B0101406750852034933001HYUNDAI ALABANG INC.                                     1605
B0101405070861008182001MANILA CIGARS INCORPORATED                               1604
B0101405070861017328003SHEPHERD'S NOVELTY CORNER                                1602
B0101405070861017545001MC TRAVEL AVIATION SERVICES CORP.                        1606
B0101405070861021288003JOPAUEN REALTY CORPORATION                               1610
B0101405070861043213001TEKTON CONSTRUCTION CORP.                                1605
B0101405070861047281001AVISTELE CORPORATION                                     1601
B0101405070861565051001BLAUGRANA CORPORATION                                    1602
B2601400270000000083947HIMA CARE INTERNATIONAL HEALTH SERVICES                 11601
B0101400150061043190001NORTHERN STAR ENERGY & FUEL DISTRIBUTION                11605
B0601400100081044824001SENTINE DEVELOPMENT CORPORATION- ALABANG                11605
B0601400100081295398001MALLARI JR., DIOSDADO OR MARY GRACE                     11604
B0101401090171007908001PERPETUAL SUCCOR HOSPITAL &                             11604
B0101403320471033185001VILLA RONAR GARDEN & RESORT,                            11605
B2601400270000000083947INC.                                                    21600
B0101400150061043190001CORPORATION                                             21600
B0601400100081044824001ZAPOTE BRANCH                                           21600
B0601400100081295398001FAO O2 DESIGN                                           21600
B0101401090171007908001MATERNITY, INC.                                         21600
B0101403320471033185001INC.                                                    21600
