A0101400860000000031563***********                                              0501
A0101402640000000042457AVENGER TRUCK BODY BUILDER                               0503
A0101405650000000080026OPRECIO, ERWINA ZABALA                                   0501
A0101400310000000140781ICARANOM, GINA SABENIANO                                 0501
A3101400450000000163506PEREZ, RAFAEL SALAMAT                                    0501
A0101413440000000183806SAGANA, JUAN PAULO TOLPO                                 0501
A0101413600000000206744KENNY SIY CHEE                                           0501
A1301400500000000213094AGANA, MARDY DARADAR                                     0501
A1901400160000000243569HELEN ROSIMA TENORIO                                     0501
A0101402060000000358656LITUANIA, FRESHNEL GABIONZA                              0501
A0101402060000000358678DAX VENTURA S. VELANDO                                   0502
A0101408110000000379937RAYMUNDO, MA. CECILIA N.                                 0501
A1201400150000000473290BAGSINGIT, SARAH AGWIKING                                0502
A0101400150000000525477MACALE, LORENA MENDOZA                                   0501
A0101400150000000525604SALAYA, LENITH JULABAR                                   0501
A0301400950000000566810**********                                               0501
A0101406590000000568849CORRIDOR, CARIDAD RIVERA                                 0501
A0101406620000000577173BALDEVARONA, ROWENA HUNDANA                              0503
A0101413440000000702065CABRERA, LEOTHENY ALBANO                                 0501
A4101400420000000710450CONEJO, DONNA MAE VIESCA                                 0501
A4101400420000000710490DELA CRUZ, ELIZABETH GENIDO                              0501
A0101403320000000735717BAUTO, GUADA LYNNE CASTILLO                              0501
A0101406880000000745033NATIVIDAD, HELEN BAYONA                                  0501
A0101410850000000778792BORJA, JOY MERCADO                                       0501
A0101404420000000866462BLANCO, NELITA PONES                                     0501
A0101410720000000882800SULIT, ROSEMARIE MARASIGAN                               0502
A0101410720000000882811GAMEZ, GUILLERMO PASNO                                   0501
A0101410720000000882822ENANO, RAY SANTOS                                        0502
A0901400220000000887965STA TERESA, JULIE ANN SOLANO                             0501
A0101403580000000922645AUREA AGENA BUENSALIDA                                   0502
A1301400210000000983791****                                                     0501
A0101409920000000998809JEREOS, LYDIA LUMAJEN                                    0510
A0101409050000000999631CALLUENG III, EDUARDO DISCAYA                            0501
A0101400860000001005478***************                                          0501
A0101400860000001005489*************                                            0501
A0101400860000001005490**********                                               0501
A0301400820000001006700DE VERA, LEIGH T.                                        0501
A0101412340000001017645DACUNO, JUVELYN FERNARDEZ                                0501
A0101412340000001017747KALALO, GLENDA MAGBILANG                                 0502
A1001400190000001057501JAENA PHOEBE R. AGUHOB                                   0501
A0101412210000001236191YAP, JAN ANGELMAN CHAN                                   0501
A0101405070000001256462ORQUILLANO, JOCELYN BAILEN                               0501
A0101407560000001276171ONG, ARLINE AZAJAR                                       0501
A0101407560000001276182BFF MANPOWER SERVICES                                    0501
A1301400470000001299050FREDERIC ABESAMIS WYCOCO                                 0501
A0101400600000001335557********                                                 0503
A0101413440000001472726ROSIMO, ERIC VILLANUEVA                                  0501
A0101413440000001472737MANAOIS, MAMERTO CRUZ                                    0501
A0101413440000001472759HOMO, RONALD GUTIERREZ                                   0501
A0101412630000001485270DU, MARK HENRY CORTEZ                                    0501
A0101402640000001536534RESIDE, LIZABELLA ABRENICA                               0501
A0101402640000001536545BENTULAN, MA  TERESA CATAYAS                             0501
A0101402640000001536556FLNS TRADING                                             0503
A2201400250000001545477*****                                                    0501
A1101400120000001547279VILLAFLOR, LEAH ROSARIO PEDROSA                          0501
A0301400820000001554649HAGUIMIT, AILEEN C.                                      0501
A0301400820000001554729VALENZUELA, GEMMA A.                                     0501
A0301400820000001554741SAYSON, SHEILA M.                                        0501
A3101400160000001559231MARY JANE G BAUTISTA                                     0501
A0101403320000001646602PERALTA, MARITES FARINAS                                 0501
A0101403320000001646613ROSIMO, AMELIA KAHULUGAN                                 0501
A2401400180000001676899ORBE, VENERANDO JUBAS                                    0501
A2401400180000001676913***********                                              0501
A2401400180000001676924DEGRACIA, AGNES MESA                                     0501
A4101400390000001732423MOSTAJO, LEILANI ALMARIO                                 0501
A0101400860011376202002**********                                               0502
A0101400860011475361001**********                                               0505
A0101400860011534620001**********                                               0501
A0101400860011536358001**********                                               0503
A0101400860011539810001**********                                               0505
A0101400860011559995001**********                                               0503
A0101401700041771087001VENTURANZA, ELAINE HERMOSO                               0501
A0101400150061349858002GARCIA, JUAN RAMON CORTES                                0505
A0601400100081033811001CIRENEJ ENTERPRISES CO.                                  0503
A0601400100081329402003VALENCIA, WILFRIDO OR HELEN                              0505
A0101401960121444286002**********                                               0501
A0101401830141355794001MA. ELIZABETH W. PERNIA                                  0501
A0101401830141621041001MONTEZA, RETHELGE BOOC                                   0501
A0101400440161525001040DOLORES A. DE GUZMAN                                     0501
A0101400440161525001070MARIBEL S. SOLEDAD                                       0501
A0101400440161525001115EVA D. SAMILLANO                                         0502
A0101407270162331908059DHINNO FRANCIS TIU                                       0503
A0101407270162455615001MARIO LARRY G. ALBA                                      0501
A0101401090171481442001STA. ANA, ALVIN MACARAIG                                 0501
A0101407140213190968001**********                                               0501
A0101407140213385506002**********                                               0501
A3101400160221478374062LANI R PEREZ                                             0501
A1001400190231520766107DELIA ENRIQUEZ                                           0501
A0101406620273306796004FE FORTUNATA R. RIO                                      0501
A0101400570281200404001SAMUEL Y. LIM OR BETTY D. LIM                            0501
A0101400570281405383001JEZIEL P. MISSION                                        0503
A2601400270302533859001BLENDA E. VISAYAN                                        0501
A0101402510341782804001********                                                 0501
A0101402640361028575001**********                                               0504
A0101402640361042603001ZONE ILLUSION ENTERPRISES                                0503
A0101402640361168435001LOLITA LOTERO                                            0502
A0201400760374041502001FANTAZTIC MARINE SERVICES CORP.                          0501
A0201400920375478374016CERBO, SHAMIR LOU CAGAIS                                 0501
A0101402770391338470001EMELITA L. ALARCON                                       0501
A0101402770391426559001APOLINAR LOZADA NARIO                                    0501
A2401400180411455559001VENDIX GEN. MERCHANDISE                                  0501
A0101403580511196754001CARMELITA E. LA O'                                       0502
A0101403580511434858001ADOR C. MEJIA                                            0501
A0101403580511701766001AGUILAR, JERRY VEGAS                                     0501
A0101406880513351519001PACENCIA C. SIERDA                                       0501
A0101408110515708717001JOAN IRIS T. CACHO                                       0501
A0101404000551566532002DIANCIN, ALAIN MALLARI                                   0503
A0101404130601027289031KRESTA MARIE MAGLALANG                                   0501
A0101407720602543599001PIZARRO, MARILOU DE GUZMAN                               0501
A0101404260611045966001FRONDOZO TRADING                                         0501
A01014107206530270550013 J METAL INDUSTRIES                                     0504
A0101410720653407205003MATIAS, ROBERT VINCENT CAMENFOR                          0501
A0101410720653703455001TORRES, JACINTO FELICIANO                                0503
A1301400210682526607001MARIA ELENA DESIREE C ADALID                             0503
A0101408240711648101001YI, KYUSUNG                                              0502
A4101400420814520766110DELA CRUZ, ARMINDA E.                                    0502
A4101400420814630690001GONZAL, VILMA HERMOSO                                    0501
A0101404840851046725012MEDILYN GUINGAB                                          0503
A0101405070861197522001NOLIE HANS OR BENJAMIN M. LIM                            0505
A0101405070861567893001MABANDOS, ELMA ENRIQUEZ                                  0501
A0101405070861579475001SY, MICHAEL TIU                                          0501
A0101411660000000032060LORY ANN L OLIVA OR JEFF CARLO                          10502
A0101403320000000067543ATENDIDO, MANUEL T. JT                                  10501
A0101411400000000230122SOTO, ELEANOR DBU                                       10512
A2601400270000000561897EDWIN S. SANTOS OR                                      10505
A0101406590000000568725SANTILICES, MA. CHACHA DBU                              10502
A1101400120000000652540VILLEGAS, MALCOLM JAMES P. OR                           10502
A4101400420000000710483ESPANOLA, MA. ANGILY CASANDRA                           10501
A0101410720000000968072MAGDANGAL JR, DANTE DBU ALISTER                         10501
A0101410720000000968094FIGUERAS, RAINIER C.                                    10501
A0101408530000001268399BALDOVINO, ASUNCION OR                                  10501
A0101413440000001472748DE OCAMPO, ARACELI C. DBU                               10501
A2201400250000001545433CATALINA INES B. TAJANLANGIT OR                         10510
A0301400820000001554730BATIANCILA JR., NARCISO D.                              10502
A0101401090000001611336ICHI COOLING & OFFICE                                   10502
A0101400150061323526001SHIRLEY MANESE OR MARIA ELENA                           10501
A6601400120314622580001SOSING, CAROL O. OR FELIPE A.                           10505
A0101402640361580365001LIWANAG, CECILIO ARCEDO OR                              10503
A0101405490392034138001MCMAR & MARY ELECTRICAL                                 10501
A2401400180411478374061JUNRES AGAD OR                                          10501
A0101407720602436863001ACEBUCHE, NILO BORJA OR                                 10501
A0101408240711386762003TUGADE, PAUL LOUIE OR                                   10502
A0101411660000000032060T OLIVA                                                 20500
A0101403320000000067543DBU ATENDIDO REALTY                                     20500
A0101411400000000230122DELSO CLEANERS L                                        20500
A2601400270000000561897JACQUELINE Q. SANTOS                                    20500
A0101406590000000568725SANTILICES TRADING                                      20500
A1101400120000000652540VILLEGAS, ALVIN BRIAN P.                                20500
A4101400420000000710483CARBA                                                   20500
A0101410720000000968072CONSTRUCTION AND TRADING                                20500
A0101410720000000968094DBU FIGUERAS TRANSPORT                                  20500
A0101408530000001268399BALDOVINO, MAP                                          20500
A0101413440000001472748MUSCLE ZONE DOCUMENTATION                               20500
A2201400250000001545433RANDOLPH C. TAJANLANGIT                                 20500
A0301400820000001554730OR BATIANCILA, JUDITH S.                                20500
A0101401090000001611336AUTOMATION SERVICE CENTER                               20500
A0101400150061323526001MANESE                                                  20500
A6601400120314622580001OR CAROLYN O.                                           20500
A0101402640361580365001LIWANAG, EDNA DE                                        20500
A0101405490392034138001& CONSTRUCTION SUPPLY                                   20500
A2401400180411478374061NORMELITA BLANCO                                        20500
A0101407720602436863001ACEBUCHE, AMELITA                                       20500
A0101408240711386762003TUGADE, KATHLEEN                                        20500
B0101400150000000000204TRANS ASIA RENEWABLE ENERGY CORP.                        1602
B0101406620000000015170AUTOSWEEP POST CORP.                                     1610
B0101406620000000015192AUTOSWEEP POST CORP.                                     1603
B0101405070000000028920KANIL RESTAURANT AND BAR INC.                            1601
B0101400440000000029310PERLA COMPANIA DE SEGUROS, INC.                          1602
B4101400390000000034022GLOBAGILITY INC.                                         1602
B0101402770000000080657FILIPINAS ASIA SHUTTER DOOR CORPORAtion                  1605
B1601400170000000497007R. PALANCA GENERAL MERCHANDISE, INC                      1605
B01014125000000007397263RL CONSTRUCTION CORPORATION                             1601
B0101405650000000772630PTP MOROLLING MARKETING                                  1601
B0101408240000000832622ENSPIRE GLOBAL INC.                                      1601
B0101412050000000890911KALIMERA, INC.                                           1602
B0101406880000001227401CLASSIC TRAVELHAUS, INC.                                 1601
B0101400730000001242313SOLID EVTAC CORP.                                        1602
B0101400600000001335535COFELO SKY CORPORATION                                   1605
B0101400860011023114002**********                                               1603
B0101400860011389653001**********                                               1602
B0101400150061010962002PHILIPPINE WELDING SOCIETY INC.                          1603
B0101400150061227678001GOP ADVERTISING                                          1602
B0101406040112016172002LABORATORY EQUIPMENT AND SERVICES,INC.                   1604
B0101401830141021045001TCTS TRUCKING SERVICES                                   1610
B0101400440161026806001SUYEN CORPORATION                                        1601
B0101401090171042218001RD CASH PADALA, INC. - AREA 02                           1603
B0101407140213035784001CHEMISOL INC.                                            1602
B0101407140213041983001CHEMFOUR INCORPORATED                                    1602
B0101408660274035619001YUTIVO CORPORATION                                       1605
B0101408660274036437001RACKIE'S LAVANDERO LAUNDRY SERVICES                      1602
B0101402510341037808001FAIR ALL MARKETING                                       1602
B0101402640361006179001RENEL ENTERPRISES                                        1601
B0101402640361044394001METRO NORTH MEDICAL CENTER AND HOSP                      1620
B0101402640361169215002LAWRIAN PRESS CORPORATION                                1605
B1201400150421013242002NORTH QUAD CREDIT CORPORATION                            1601
B0901400220432043554001GERRY'S GRILL                                            1603
B0901400220432043565001CASA CANELAR PENSION                                     1602
B0501400170481015881001TOYOTA DAGUPAN INC.-2                                    1610
B1401400110492044811001T.A.O. GEN. MERCHANDISE AND TRADING                      1601
B0101403580511015363084MEC - PINES PEAK                                         1610
B0101403580511020857001ROBROS INCORPORATED                                      1603
B0101403580511155836001ALCOSER REALTY CORPORATION                               1601
B0101406590662023706001TOPBEST PEST SERVICES, INC.                              1603
B0101406590662639224001CURRENTCONCEPTS INC.                                     1603
B4101400390813036410001THE BOAT SHOP CORPORATION                                1602
B0101405070861025608001G-LINE TRADING                                           1602
B1301400470252033145001CABANATUAN CATHOLIC EDUCATIONAL                         11601
B1301400470252033145001SYSTEM                                                  21600
B0101410690600821100608**********                                               2005
