A0101401960000000008040**********                                               0505
A0101410300000000026480TANSINGCO, EDWIN SANTOS                                  0501
A6601400120000000060540GARABEL, MARISSA DELORINO                                0502
A0101408110000000202791MILITAR, MA. VICTORIA GARCIA                             0501
A0101405490000000232522RODELYN T. SUGUITAN                                      0501
A0101402770000000360923CELOSA, PERLITA DIMAPILIS                                0501
A0901400220000000425249RL TRADING                                               0502
A0101405490000000444579MARCOS L. IBANG                                          0501
A0101405490000000444604ROSALIE SAN PEDRO MANUEL                                 0501
A0101408530000000489732RODEJO, CYRIL SANCHEZ                                    0501
A0101407690000000495472NAGERA, MARY CATHERINE PUREZA                            0501
A0101405940000000505662SANCHEZ, MAURO PIO CUNETA                                0501
A0101408240000000521902COMBALECER, LETICIA TORRES                               0501
A0101406590000000568816LEDESMA, JOHN MICHAEL ORBE                               0501
A0101406590000000568850ATIZADO, PHILIP LAWRENCE S.                              0501
A0101408790000000579762AGUILAR, MICHAEL CALAMAYAN                               0501
A0101407690000000587884ARBAN, NERIZA REFORMA                                    0501
A0101413570000000635643JOANALINE Z. EVANGELISTA                                 0502
A0101410690000000710763HIRAYAMA, MARLYN LAGUA                                   0501
A0101410850000000778838MISA, MIGUEL ENRIQUE ZABLAN                              0501
A0101412630000000801512CRUZ, MARY CLAIRE S.                                     0501
A4101400260000000828860MA. GLENDA T. PERSIA                                     0501
A0101402930000000859725YLALIM, JENALYN ALZULA                                   0501
A0101410720000000882840*****                                                    0501
A2801400230000000937593DIAMANTE, LORENA MANALASTAS                              0501
A0201400920000000991744GAVIOLA, GLENDA JUNE SERDAN                              0501
A0101402510000001025972BAUTISTA, ALLAN ODRUNIA                                  0501
A1001400190000001057556EMMA A. BARRETE                                          0501
A0501400170000001072775KHATRI, RAJESH LAL                                       0501
A0501400200000001081010CAOILE, ALONA EUGENIO                                    0501
A4101400260000001135040GUTIERREZ, S DBU FEYTENHOWP TRA                          0502
A0101411660000001145766***                                                      0501
A0101403610000001174783PANGANIBAN, JAY BERNARDINO                               0501
A0101403610000001174841SERRANO, ROSSETTE REYES                                  0501
A0101404000000001186852CAALIM JR., ROMEO BADDAS                                 0501
A4101400260000001198676DELOS SANTOS, MAE ANN BALSOMO                            0501
A0101413860000001233830VELASQUEZ, MARIA JONALYN SALTOR                          0501
A0101406880000001286722FRANCISCO, ROWENA REYES                                  0501
A0101410560000001291032SAPE, DAHLIA QUILANG                                     0501
A2001400290000001301380JABIDO, HELEN TUBILLA                                    0501
A0101411820000001356463CHARLOT DELA CRUZ DALIDA                                 0501
A6601400120000001370581GARIN, MARICEL CASAS                                     0501
A0101400150000001422326HERMELITA H. AMBROCIO                                    0501
A0601400100000001442831TIOTUICO, RONALDO PECJO                                  0505
A0101406750000001491721HIRATA, ZENAIDA ILANG ILANG                              0501
A0101411240000001563333BUKAS, DENIS CONFERIDO                                   0501
A0101402770000001570689CERVANTES, MAY GRESPOR                                   0501
A0101402770000001570690PERALTA, JUVY REYES                                      0501
A4101400550000001622446MARAVILLA, NIMFA MARCO                                   0501
A2401400180000001676979TUPAS, MARVIN REY DBU BBMT TRAD                          0505
A0101401250021468980001GENELYN C. CARTON                                        0501
A0101400150061010949002BELLO, RONALDO Y.                                        0502
A0101400600071478374007LABRADOR, JOVIE R.                                       0501
A0101401830141410817001AMBUYO, AMANDA DIMAPILIS                                 0501
A0101410720210658417001CANTALEJO, EUGENIANO BORJA                               0501
A0101400310211488039002KU, JOHNSON KING                                         0504
A3101400160221691459001MA. JENNY LYN A. VILLARAZA                               0501
A1001400190231295205002ANG, SIOK BIN                                            0501
A1001400350233539705001SIMBAJON, ELENA P.                                       0502
A0101401670271189252001LOURDES LIM LEE                                          0506
A0101401670271475286001ALBERNINA PASCUAL-LOPEZ                                  0502
A0101406620273301500002CAESAR A. GUERZON                                        0502
A0101408660274738415001GOSINGCO, MARY JANE TONG                                 0501
A0101400570281075141001JOANNA T. ADALIM                                         0501
A2601400270302478374003GRACE C. BANCUD                                          0501
A0101405650322478374002MAVIS W. PAREJA                                          0505
A0101408820333035060001FRAERJN TRADING                                          0501
A0101408820333335130001ANTONIA S. GORRE                                         0502
A0101408370382457017001DR. RONEIL M. NOGOY                                      0502
A0101405490392026933002SIGAYAN BAY BEACH RESORT                                 0505
A2401400180411523954001ANG, DANNY KO                                            0503
A0101403030441528979002**********                                               0503
A1401400110492329425003CUACHON III, NORBERTO AMILHAMJA                          0501
A0101407430503041466001AFCSI-ASIA FREIGHT FORWARDERS                            0502
A0101407430503400472001MILAGROS B. TOMAS                                        0501
A0101408530516578215026SABAL, CRISTOPHER VENTURA                                0501
A0101411790518681263001TIMOG, ANALIZA MANAHAN                                   0502
A0101403450521239512001**********                                               0501
A0101403610531219568002OLIVAREZ, RAUL IMZON                                     0501
A0101403610531279193002MORANO, ELISA QUEJANO                                    0502
A0101403610531444284001DUENAS, RENDER MACASPAC                                  0501
A0101404130601339889002HODREAL JR., JOSEPH MATIAS                               0505
A0101407690652686837001MIRANDA, LARRY MANITO                                    0503
A0101407690652786467001MADRONO, BENJAMIN PLAZA                                  0502
A0101410720653306781001OLIVEROS, NENA TULAUAN                                   0501
A0101410720653478374046MONALIZA F. MALDONADO                                    0501
A0101410720653735559001MACALINDONG, ANSELMO LOPEZ                               0502
A0101407560686243355001**********                                               0510
A0101407560686484003001EMMYLOU S. DE JESUS                                      0501
A1701400230693478374040BAGAOISAN, DRIANITA CABANILLA                            0501
A0101408240711036000001DON MACHINE SHOP                                         0502
A0101408240711461431001PIDO, KARLA PEREZ                                        0505
A0101408240711562388001DE TORRES, AMOR MEA                                      0501
A0101408240711604196001SALALILA, JOANN REYES                                    0501
A4101400260812427113001GRACE M. AMANDY                                          0501
A4101400260812545584001ZALDY T. CARDENO                                         0501
A0101404840851520766122NENA REUTEREZ                                            0503
A0101406750852478374070ANILIE SENOLOS                                           0501
A0101405070861197650002********                                                 0502
A0101405070861240149002KHO, HENRY C.                                            0501
A0101405070861380698001REYES SR., RENATO SISCAR                                 0501
A0101405070861478374089FABIANTES, CHARITY CRES                                  0501
A0101405070861676933001LEE, CHOONG HO                                           0502
A0101411530000000013765ROXAS, EDWARD ROY CELERIDAD OR                          10501
A1001400350000000017774VENADAS, MARC LOUIE L. OR                               10502
A1001400480000000133542GUINTO, CHARLOTTE JANE MAGO AND                         10501
A4101400550000000506938DEMDAM, MA. MIRIAM DY                                   10501
A0101410300000000592154MILLAR, JOSEFINA C. OR                                  10502
A0701400260000000670768DE LOS SANTOS JR., LEOPOLDO                             10501
A4101400260000001198610RAPISTA, JOHNNY A. OR                                   10502
A1301400760000001295370RAQUEL J. GALANG OR                                     10501
A2001400290000001557433TE, FERN ANN GADOR OR TE, MARK                          10501
A3101400160000001792134NULUD, EDILBERTO OR GUILLERMO,                          10501
A0101401960121327478001AIDA MEDEL                                              10502
A0101407140213460323001TAN, JOSE SYCHUANCO OR                                  10502
A0101406460272466369001COSTALES, FE MYBELLENE AGUILAR                          10501
A0101402510341331222001ERLINDA RECOCO OR JOHN PAUL                             10501
A0101405490392554799001ALLEN NEIL V. PAJARELLANO OR                            10501
A0101405940512366890005CASTILLO, RAFAEL RICAFRANCA OR                          10501
A0101403610531047978001TIMONES, ALPHA PINTACASI                                10502
A0101403610531603089001ALIPIO, MARILYNE ALMENDRALA OR                          10503
A0101404680651519462001REMIGIA T. AGUILAR OR                                   10502
A0101407690652478374131TARROQUIN, NORA - DEALERS OF                            10501
A0101407690652525001075DOCDOCIL, GELITA - DEALERS OF                           10501
A0101410720653402452001JONE P. LIU CHIANG OR                                   10501
A1301400340683356131001LEGASPI, ESTRELLITA DEL ROSARIO                         10502
A0101405070861197834002DELIM, ROGELIO S. OR                                    10505
A0101411530000000013765ROXAS, MARITONI PACIS                                   20500
A1001400350000000017774FUENTES, ANGELICA BASA                                  20500
A1001400480000000133542GUINTO, NEMER SARDEA                                    20500
A4101400550000000506938OR DEMDAM, CHARM                                        20500
A0101410300000000592154MELCHOR, GISELLE M.                                     20500
A0701400260000000670768PEORO                                                   20500
A4101400260000001198610RAPISTA, PROCENTIZA                                     20500
A1301400760000001295370RODERICK V. GALANG                                      20500
A2001400290000001557433SAMUEL GUANZON                                          20500
A3101400160000001792134IVAN DBU MSG JUNKSHOP                                   20500
A0101401960121327478001OR ROD MEDEL                                            20500
A0101407140213460323001TAN, TITA ROSE                                          20500
A0101406460272466369001OR COSTALES, ART                                        20500
A0101402510341331222001ROQUE OR ROLLY BOY ROQUE                                20500
A0101405490392554799001FLORANITA V. PAJARELLANO                                20500
A0101405940512366890005CASTILLO, REBECCA                                       20500
A0101403610531047978001DBU JAZKY BUILDERS                                      20500
A0101403610531603089001ALIPIO, ERNESTO ANZANO                                  20500
A0101404680651519462001ARIEL C. AGUILAR                                        20500
A0101407690652478374131SHOECAT, INC.                                           20500
A0101407690652525001075SHOECAT INC.                                            20500
A0101410720653402452001LEO VILLAVERT                                           20500
A1301400340683356131001OR RIVERA, PHILI                                        20500
A0101405070861197834002DELIM, MILAGROS                                         20500
B0101410720000000029781MARCOS, MYLAJOY TAMAYO                                   1601
B0101401830000000033638CARITAS SALVE CREDIT COOPERATIVE                         1603
B0101408660000000034357RBP INDUSTRIAL SALES, INC.                               1605
B1901400320000000041294YANA MARKETING & DISTRIBUTION SERVICES                   1601
B0101413020000000056711CRUZ, TOMASITO DBU TTC CONSTRUCTION                      1602
B0101401830000000060051TRIPLE B-BAWAS BASURA SA BARANGAY I                      1601
B1101400120000000065132STARLITE GLASS AND ALUMINUM SUPPLY                       1605
B0101404680000000095710MVG HARDWARE                                             1601
B0101407140000000266302R8 CONSTRUCTION CORP.                                    1601
B0101405490000001092477ARKIMETRICS INC.                                         1601
B0101401700041021915002CARITAS HEALTH SHIELD, INC.                              1601
B0101401700041023607001GBU AUTO SPARE PARTS SUPPLY                              1602
B0101401700041190338003**********                                               1601
B0101401830141043121002ASIA DIRECT CONSOLIDATORS INC.                           1605
B3101400160221044153001JMBE CORPORATION                                         1601
B1001400190231417579001CLAVERIA TREE NURSERY, INC.                              1602
B2001400290315044204001ACEBANK CREDIT, INC.                                     1601
B0101402510341023155001**********                                               1610
B0101409210398047292001OUTCOMES HEALTH PHILIPPINES, INC.                        1606
B0101403030441237338001**********                                               1601
B0101408240711039556001TIP-TOP MARKETING                                        1605
B0101408240711044092001WOWA'S KITCHENETTE                                       1605
B0101406750852041203005AUTOCIRCULO CORP.                                        1610
B0101408660274035623001PROPERTY COMPANY OF FRIENDS, INC.-                      11601
B6601400120314612851001ROBIS, MARIA RUBY OR  RICKY ALVIN OR                    11601
B0101402510341022935002CHATEAU ROYALE SPORTS & COUNTRY                         11610
B0101410720653030880001NAPOCOR VILLAGE HOMEOWNERS ASSOCIATION                  11601
B0101408660274035623001FINANCING                                               21600
B6601400120314612851001PRECIOUS ALYNA                                          21600
B0101402510341022935002CLUB                                                    21600
B0101410720653030880001INC.                                                    21600
