A0101404420000000026086*****                                                    0503
A0601400230000000045241CANINO, CRISTINA FERNANDEZ                               0501
A2401400180000000073538GABAYERON, RINADEL DELOS SANTOS                          0501
A0601400100000000141988TIMELINE MANPOWER SERVICES                               0501
A0101410720000000211736GABRIEL, JOEL ORTIZ                                      0502
A0101401380000000414446ARAGON, VICENTE ESLLER                                   0501
A0101403320000000522176ALCANTARA, RAEZA LUMBAG                                  0503
A0101408530000000594229BOGAYONG, KARINA PAMELA PATERNO                          0501
A0101400440000000596607GIRLIE B. SANCHEZ                                        0501
A0101408400000000607710****                                                     0501
A0101410300000000919580ONG, WILLIAM DY                                          0501
A2801400230000000937571VERENDIA, HAIDEE ONG                                     0501
A0101414120000001142818CAS PROPERTIES INC.                                      0502
A0101408110000001364858SALUDO, DESIREE RUALES                                   0501
A0101412760000001399573MARY ANN RIZO                                            0502
A0301400820000001554649HAGUIMIT, AILEEN C.                                      0501
A1701400230000001786650PEDRO, ALAN BAOIT                                        0501
A1701400230000001786763OANA, MELANIE REMIGIO                                    0501
A0101408400000001835190TOYOGON, ASUNCION DESTAJO                                0501
A0101410140000001939773CONCEPCION, BEVVY DEL CAMPO                              0501
A0301400950000002115151**********                                               0505
A0101405490000002141071******                                                   0501
A0101406750000002251321SUBANG, ERLINDA RAMIREZ                                  0501
A5501400120000002348245ARCENAS, MARIO VILLACERAN                                0503
A1701400230000002762770LLANES, IMELDA BENEMERITO DBU J                          0502
A1701400230000002762810ONG, J DBU FARMLAND HARDWARE &                           0501
A0101410980000002987031DELA TRINIDAD, DANTE CASTILLO                            0501
A1101400120000003022333ENFECTANA, EMIL ROY DY                                   0501
A0101400860011399972002*********                                                0502
A0101400860011435365001**********                                               0505
A0101400860011784104001**********                                               0505
A0101401250021509883001JIMENEZ, MA. THERESA HILARIO                             0501
A0101401700041036812001REYZEL AUTO PARTS                                        0510
A0101400150061720595056SHERENE P. LLAVE                                         0501
A0601400100081253555002MENDIOLA, JOSEPHINE ADARVE                               0501
A0601400100081501761001TAN, WINTHEL OR RALPH                                    0501
A0101400440161039572061DOMINGO A. ORDIZ JR.                                     0501
A0101401090171200878001LESTER A. DENIEGA                                        0502
A0301400660194304371001*****                                                    0505
A0101401380201171279001TSAI, ROBERT                                             0501
A0101400310211433666001LAMUG, JECELYN CRISTOBAL                                 0501
A0101400310211478374068LETECIA VETORICO                                         0501
A0101400310211549489003CATRIZ, DIGNA GATUMBATO                                  0502
A0101400310211777541001CALLEJA, NORMAN ROSERO                                   0501
A1001400190231478374083CHIONG, MARIVIC P.                                       0502
A1001400350233478374006IBANEZ, ELSA                                             0501
A1001400350233478374020ELMA O. GAWAT                                            0501
A0501400200292581563001TABIN, RUDY DE GUZMAN                                    0503
A6601400120314612855001SUNDAY LAVIN JR OR IRIANA LAVIN                          0505
A0101402480331036586001GOD'S ANGELS LOGISTICS SERVICES                          0502
A0101402480331224661001EDWIN CHEN OR SYLVIA CHEN                                0504
A0101402480331298552011VIOLETA CUARTE                                           0502
A0101402480331315462001*****************                                        0503
A0101402480331440858001CRUZ, GINA DE GUZMAN                                     0501
A0101402480331520766057UY, SALLY FERMIN                                         0502
A0101402640361033158001CITIHOMES REALTY, INC.                                   0502
A0201400920375036567001VIRLO CONSTRUCTION                                       0510
A0101411660384085144001ANGELYN T. NEPOMUCENO                                    0501
A0101405490392036563001*********                                                0502
A0101408400394036671001CAIT FURNITURE SHOP                                      0501
A0101408400394162577001REYES, ELSA UNGSOD                                       0501
A0101408400394162700001FLORES, CATHERINE DOMINGO                                0502
A0101408400394508088001WEE, FRANCIS AUGUSTUS LEE                                0502
A0101408400394618148001RINGOR, ELMER GULTIENO                                   0502
A0101408400394620016001****                                                     0501
A0101403030441240945001LYDIA T. CHENG                                           0504
A0101403030441561516001**********                                               0501
A1401400110492429565004SANTOS, WILFREDO GASPAR                                  0502
A0101405940512204623002EDUARDO B. MANZANO                                       0503
A0101405940512312254001********                                                 0505
A0101411790518701706001********                                                 0503
A2201400250561417945001MARIEL ANGELA I. PRINCIPE                                0501
A0101407720602358468001TORRES, MA. TERESA ANCIANO                               0506
A0101407720602397901001JAMORA, EDUARDO MAGNO                                    0506
A0101410720653509852001SOMOSIERRA, NERIO GELLANGARIN                            0501
A0101406590662761059001BALDEO, MONICA REXANNE BAUTISTA                          0501
A0101407560686478374069ROLANDO PATAC                                            0502
A1701400230693043742001CAFE JUAN                                                0503
A0101404840851298552055MELBA C. ENGBINO                                         0502
A0101404840851420697001LAYAO, FRANCIA CUETO                                     0502
A0101404840851478374171LORENA A. ARES                                           0501
A0101406750852478374039MERCY MOSLARES                                           0501
A0901400220000000012324SPECIALIST MOTORCYCLE PARTS &                           10503
A0101413280000000041852OLA, EDAM CRUZ DBU HIJK SHIRT                           10501
A0101407720000000245225RAUL CHRIZALDO MORENO OR                                10501
A0601400230000000452782GOZUN, R-JAY RAMOS                                      10510
A0101410720000000882895VILLA, CHONA BA DBU CHINLEI                             10501
A1301400500000002063872DELA CRUZ, RODOLFO LAJOM OR                             10501
A0101405490000002141082MCMAR & MARY ELECTRICAL &                               10502
A0101410850000003101902HERNANDEZ, DBU R & D MOVERS                             10502
A0101401700041617362001YAP, ZENAIDA CHUATOCO OR                                10503
A0101400150061231736002PUNO, CARMELITA DE MESA OR                              10501
A0101400310211157817001INTERINO, LOLITA OR MARIA                               10502
A1001400350233528978001MONNETTE GUANGCO OR                                     10501
A1301400470252444292001ROSARIO TERESITA O.L. ODULIO                            10505
A0101406620273575453001*********                                               10501
A0101400570281186530001CARLOS AGUILA OR                                        10502
A0101402480331089098001FLORESCA, MARICEL VALEZA OR                             10502
A0101402510341353926001ROLANDO G. GALAO OR                                     10506
A0101402930381094233001ROCHA, MANUELA GUARDIANO OR                             10501
A0101402930381364974001GEOFFREY TSE WEI CHEN OR                                10501
A0101402930381381181001BERNARD FAH OR                                          10503
A0101408370382399401001DR. EMILY ROSE C. BELEN OR                              10501
A0101408790383649678002YU, MARK OR LAWRENCE OR STEPHEN                         10510
A0101405490392034138001MCMAR & MARY ELECTRICAL                                 10501
A0101405940512634442001LA-O JR., TOMAS CARMEN OR                               10502
A0101410720653046803001BCLOA BUSINESS DATA RESEARCH                            10501
A1301400500684611370001STA. JUANA, ELENA L. OR                                 10501
A0101404840851281035001NELLIE M. LAW &/OR                                      10503
A0101404840851704865001GERARD ABRENICA OR JENELYN                              10502
A0901400220000000012324ACCESSORIES, INC                                        20500
A0101413280000000041852PRINTING & DESIGNS                                      20500
A0101407720000000245225SINCERELY MORENO                                        20500
A0601400230000000452782OR GOZUN, MYRNA                                         20500
A0101410720000000882895TRADING                                                 20500
A1301400500000002063872DELA CRUZ, ALICIA SANTOS                                20500
A0101405490000002141082CONSTRUCTION SUP                                        20500
A0101410850000003101902TRUCKING SERVICES                                       20500
A0101401700041617362001DY, NICOLE T.                                           20500
A0101400150061231736002SANTIAGO, MA. SOCORRO                                   20500
A0101400310211157817001CRISTINA INTERIN                                        20500
A1001400350233528978001HECTOR GUANGCO                                          20500
A1301400470252444292001OR REYNALDO B. ODULIO                                   20500
A0101406620273575453001*********                                               20500
A0101400570281186530001MERCEDES AGUILA                                         20500
A0101402480331089098001RAMOS, RONALDO C                                        20500
A0101402510341353926001RUE B. GALAO                                            20500
A0101402930381094233001ROCHA, JOSE MARIA                                       20500
A0101402930381364974001GAYNARDIA K. LAO                                        20500
A0101402930381381181001MARIA CAROLINA FAH                                      20500
A0101408370382399401001DR. POCHOLO P. BELEN                                    20500
A0101408790383649678002OR FRANCIS GLENN                                        20500
A0101405490392034138001& CONSTRUCTION S                                        20500
A0101405940512634442001LA-O, LILIBETH C                                        20500
A0101410720653046803001SERVICES                                                20500
A1301400500684611370001STA. JUANA, FATIMA                                      20500
A0101404840851281035001HERMINIO T. LAW                                         20500
A0101404840851704865001CADIENTE                                                20500
B3101400740000000013889IM DIGITAL PHIL INC.                                     1606
B0101406620000000015005CARPIO & BELLO LAW OFFICES                               1601
B0101406620000000015038PC LIVE, INC.                                            1605
B0101402480000000028208QUALIGEN PHARMACY CORP.                                  1602
B0601400230000000029861**************                                           1602
B0101408790000000039012ARDENT COMMUNICATIONS, INC.                              1602
B0101409050000000258440JEFRA MARKETING CORPORATION                              1603
B0101402480000000794316QUALIGEN PHARMACY CORP.                                  1602
B0101408240000000832906ASIA FREIGHT GSA, INC.                                   1603
B0101402480000001100165MMG METAL RECYCLING, INC.                                1606
B0101408110000001199333PHIL. ASSOCIATION OF PAINT MFRS.                         1601
B0101402480000001562107QUALIGEN PHARMACY CORP.                                  1602
B0101400860011374845003**********                                               1602
B0101400860011490631002**********                                               1602
B0101401700041007416001**********                                               1603
B0601400100081043401001ANDREI AUTO GLASS AND ALUMINUM                           1602
B0101400730111036857001FRC SULO RIVIERA HOTEL CORPORATION                       1605
B0101400310211027640001EQUIMEDIAN ENTERPRISES, INC.                             1602
B0101407140213631792001ORIGINAL 7 LIME CORPORATION                              1605
B0101406460272015262001*********                                                1603
B0101406460272035154001STUDIO84 INC.                                            1605
B0101406620273009650001CROWN SMART LTD.                                         1605
B0101402480331017763001**********                                               1601
B0101402480331025386001***                                                      1601
B0101402480331031499001***************                                          1602
B0101402480331040325001**********                                               1602
B0101402480331485459001***************                                          1601
B0201400890376041861001TERRE D'OR REALTY CORP.                                  1603
B0201400890376668181001ST. MARK'S RESIDENCIA, INC.                              1603
B0101402930381010731001********                                                 1601
B0101402930381016251001THE PACIFIC MEAT COMPANY, INC.                           1605
B0101402930381022554001BANCO DE ORO UNIVERSAL BANK                              1601
B0101402930381040531001R&C OUTDOOR BILLBOARD INC.                               1606
B0101402930381042916001PACIFIC-RIM HARVESTER, INC.                              1602
B0101408790383025471002JOBS DB PHILIPPINES INC.                                 1605
B0101405490392006541001GLOBALTECH AUTOMATION, INC.                              1603
B0101408400394028560004NEW LIFE CHRISTIAN CENTER (THE FORT)                     1602
B2401400180411033307078MINCORN MILLING, INC.                                    1602
B0101405940512022394001TENTRA, INC.                                             1603
B0101404000551005062001FIRST LPL LAND SYNDICATION                               1603
B0101404000551700883001PETRUS INVESTORS INC.                                    1601
B0101404130601010620001AMERICAN WIRE & CABLE CO., INC.                          1603
B0101409890649044096001FULLTOP MARKETING                                        1602
B0101410720653035483001GERMALIN ENTERPRISES, INCORPORATED                       1603
B0101410720653035483001GERMALIN ENTERPRISES, INCORPORATED                       1603
B1301400210682030509001FIRSTGRANT INC.                                          1603
B0101408240711038557001THE BRIDGE SCHOOL, INC.                                  1605
B4101400260812022123001JESUS FAITH CHRISTIAN FELLOWSHIP CHURCH                  1607
B0101406460000000020931GREATWALL MANPOWER & GENERAL                            11602
B1601400170000000036160LEGAZPI FOUR SEASONS                                    11603
B0301400820000002106285FONTANILLA, ARNOLD S. OR FONTANILLA,                    11610
B0101402060351009401001PHIL. IRON CONSTRUCTION & MARINE WORKS,                 11603
B0101402930381009079001THE AMERICAN EYE CORRECTION                             11610
B2401400180411014376006PENBANK, INC. (A PRIVATE DEV'T BANK) -                  11605
B1901400160491459129002MELVIN CASEDA/SHIELA COMIA/HENRY CABRERA                11601
B0101404130601100161011PRUDENTIAL CUSTOMS BROKERAGE                            11602
B0101406460000000020931SERVICES INC.                                           21600
B1601400170000000036160RESTAURANT, INC.                                        21600
B0301400820000002106285EVELYN D.                                               21600
B0101402060351009401001INC.                                                    21600
B0101402930381009079001CENTER INC.                                             21600
B2401400180411014376006FISHPORT BRANCH                                         21600
B1901400160491459129002OR ARNEL HIBO                                           21600
B0101404130601100161011SERVICES, INC.                                          21600
B0101408790383821100608**********                                               2002
