A0101411790000000005892ILUSORIO, DIMPLE SANTOS                                  0501
A1901400160000000007310GONDALINA LIMENDOG JUSTO                                 0503
A4101400390000000034153CINCO, JOSEFINA                                          0501
A0101412630000000044675FLORES, BRENDA DACULIO                                   0502
A0101406750000000090873DELFINO, ANALILI OR GUZON,GERTR                          0502
A4101400420000000120696CARMELA G. ROMA                                          0501
A0101402640000000202013CAMPOMANES, EDITHA ELEVADO                               0503
A0101409890000000209123NADONGA, ADRIANA LALU                                    0501
A0101410690000000305382ALVAREZ JR., ARIEL VILLA                                 0502
A0101411820000000477316GDEX MASTERSTICKERS ENTERPRISE                           0501
A0101400150000000525422ORDIZ, ARLENE CASTILLO                                   0501
A0601400100000000786563OTSURU GROUP OF COMPANIES INC.                           0510
A0101411080000000805732MALBAS, MIRAFLOR MANSUETO                                0501
A0101408660000000855863GONZALES, DENNIS MANGUBAT                                0502
A0101408240000001038755DEMETRIA, ALBINA PAGCANLUNGAN                            0501
A5501400120000001122063NAVARRO JR., ROMERICO BALUYOT                            0501
A0101413990000001202457**********                                               0501
A0101411400000001280331ROMAN, CHRISTIAN HIZON                                   0501
A0101409210000001294491KOCH, ROBERT BRYAN                                       0501
A0101400860000001348727**********                                               0502
A0101400440000001439663MEDCON PHARMA                                            0502
A0101412050000001499761********                                                 0501
A0101405940000001534269**********                                               0501
A1101400120000001547235DUGANG, JESSA EBIT                                       0501
A0301400820000001554690FLORES, VILMA                                            0501
A0101401090000001618851SANTIAGO, SHERRY MAE ARIENZA                             0501
A4101400260000001673412NARCISO, CHARLENE FABELLA                                0501
A0101410140000001939780SANTIAGO, MARY JANE AURELIO                              0501
A0101400150000002374530ACOSTA, HARRY WILLIAM                                    0503
A0101400310000002659625BALMORES, MARIE LYDE VILDE                               0501
A0101406590000003007121RIVAL, JUVY PACIA DBU IMEDS TRA                          0501
A0101404840000003069925VALENCIA, JUDY D.                                        0503
A0101412340000003340456MARK LUTHER M. ADRIANO                                   0501
A0101412340000003340974DENNIS G. BACENA                                         0501
A0101400860011416222002**********                                               0502
A0101400860011578978001**********                                               0503
A0101400150061038536127MARLON S. COSUE                                          0501
A0101400150061315349166MARICAR R. LOPEZ                                         0503
A0101400150061337099127CARMENCITA L. TAN                                        0501
A0101400150061393697001ROSA MARIA A. MANLAPIT                                   0502
A0101400440161478374141GENILA J. TORCENDE                                       0501
A0101401380201628222001CALAGUAS, AILEEN CABUSO                                  0501
A0101400310211157404001MYRNA MACAPAGAL                                          0502
A0101400310211478374049ANITA S. MARTIREZ                                        0501
A0101400310211510956001VASQUEZ, ROSEMARIE MIRANDA                               0503
A3101400160221356270002RONALD J. PUA                                            0501
A3101400450223466114002NATIVIDAD, GINA DUNGO                                    0503
A1001400190231478374086LORNA A. OMANDAM                                         0502
A1001400350233668674001ENDAYA, JILL YVES LORRAINE LAO                           0501
A1301400470252482273001DRA. LEONOR J. DIZON                                     0501
A0101406460272314180001********                                                 0503
A0101406460272388652001CHUA, ANGEL TAN                                          0501
A0101400570281076947001JOSE C. GLORIA                                           0502
A6601400120314612859001CHAN, ARTURO C.                                          0501
A0101402350321477731003******                                                   0501
A0101402350321671189001DELOS SANTOS, EDUARDO DORIA                              0502
A0101402480331478374070LIEZEL QUESTORIO                                         0501
A0101408820333040578001********                                                 0501
A0101408820333441702001MOLATO, HELEN GALULA                                     0501
A0101402640361168601001DALAFU, ROMULO                                           0502
A0201400760374030540001ST. FRANCIS MANPOWER SERVICES                            0501
A0101402770391472751004JERVIE RACELIS DE GUZMAN                                 0503
A0101408400394478374090MARY DUMASLAN                                            0501
A2401400180411478374070SANCHEZ, JEANY MARARAC                                   0501
A1201400150421494784001MALHI, HARPREET SINGH                                    0503
A0101403030441326059001**********                                               0502
A0101403320471041268002CAPCONSTRUCT CO. LTD                                     0502
A0101403320471205840001*****                                                    0506
A1401400110492029549002TRIPTORS DIAGNOSTIC CENTRE                               0502
A0101408530516571877076GIOVANNI C. BROCOY                                       0501
A0101408530516571877097JESUS R. LICUANAN                                        0501
A0101403450521027228001**********                                               0501
A0101403450521238265001**********                                               0502
A0101403450521239514001**********                                               0502
A0101403450521389380001**********                                               0501
A0101407720602348243001NATALIA D. BANAGA                                        0501
A0101407720602454953001BERNARDO, JASMIN MELISSA BALLEN                          0502
A0101404260611150901001CECILIO OR ROSALINDA ATIENZA                             0501
A0101404260611349222001GAGARIN, MA CHRISTINA GLEAN                              0501
A0101404260611478374075VIVENCIA HATOL                                           0501
A0101404260611478374077LUCIA CAPILITAN                                          0501
A0101404260611525197002REYES, YOLANDA DELA VEGA                                 0501
A1301400340683433734001DELA RAMA, CARMELITA LOZADA                              0503
A1301400340683467501001ROBERTO P. BANIGUED                                      0503
A0101408240711436371001YAP, MILAGROSA ROSLINDA                                  0501
A2801400100712551709001SANTOS, OSCAR CO                                         0505
A4101400260812583937001RAQUEL I. SIERRA                                         0501
A4101400420814331543002CHU, LAWRENCE MONERA                                     0501
A4101400420814362781001ECOFILTERS ENTERPRISES                                   0502
A4101400420814478374163MA. CORAZON C. REATAZAN                                  0502
A0101404840851424429002MAQUINANA, JOEL MACABUHAY                                0502
A0101404840851520766070ELSA NAVARRO                                             0502
A0101406750852710112001TAN, ELIZABETH BORROMEO                                  0506
A0101402350000001474379SINGZON, ANA LIZA CASES DBU                             10502
A0101413600000002122207CONSIMINO, KERWIN BENEDICK AND                          10501
A0101413440000003436393SARMIENTO, ROSARIO T. or                                10501
A0101410850109055839001ALVAREZ, ROBERTO DALANON DBU                            10501
A0101401830141029000001E C ENRIQUEZ TRUCKING SERVICES                          10505
A1001400350233576675002LEGASPI, ECILIETO AMARGA OR                             10503
A0101401670271352051004MILAGROS G. SUNTAY OR                                   10501
A6601400120314699400001EPACTA, JELYN G. OR                                     10503
A0101402770391757431001CHAN, HAYDEE CHUA OR                                    10501
A2201400250561074416001JANNET D. FRANCO OR                                     10501
A0101407720602363809001DR. MICHAEL SABALZA OR                                  10502
A0601400230891738531001CHUA, MARK ANTHONY GARCHITORENA                         10502
A0101402350000001474379HYDROSYSTEM TRADING                                     20500
A0101413600000002122207CONSIMINO, ANA LIZA G.                                  20500
A0101413440000003436393SARMIENTO, LEXANDER M.                                  20500
A0101410850109055839001RTA TRUCKING                                            20500
A0101401830141029000001BY ERICK C. ENRIQUEZ                                    20500
A1001400350233576675002LEGASPI, VIRGINI                                        20500
A0101401670271352051004APOLONIO G. SUNTAY                                      20500
A6601400120314699400001LOBOS, BASILISA                                         20500
A0101402770391757431001CHAN, PAULINO CO                                        20500
A2201400250561074416001ARNEL G. FRANCO                                         20500
A0101407720602363809001DR. MA. JO ANN SABALZA                                  20500
A0601400230891738531001TAYAO, GILBERT A                                        20500
B1301400210000000023463SAN PABLO MULTI-PURPOSE COOPERATIVE                      1602
B0101412630000000024091FALCON, LUISITO MONTALVO                                 1602
B0101412760000000031990PRIVE PROPERTIES DEVELOPMENT INC.                        1601
B0101402480000000045725QUALIGEN PHARMACY CORP.                                  1603
B0101403450000000135635PHILIPPINE TRADE CENTER, INC.                            1605
B0601400100000000142076DEL ROSARIO JR., BENITO JULIAN                           1601
B0101414090000000399424GANJOU INC.                                              1605
B0101402770000000440008AGRM GENERAL CONSTRUCTION TRADING                        1602
B0301400530000001409392PHILFRUITS PREMIUM CORPORATION                           1603
B0101402770000001571579LEADER GARMENTS CORPORATION                              1605
B0101400150000001708425INTELUCK CORPORATION                                     1602
B0101402480000001927631*********                                                1605
B0101400150061009628001EASTMAN INSURANCE AGENCY, INC.                           1601
B0101400150061010658002GROLIER INTERNATIONAL, INC.                              1603
B0101400150061228665001MALAYAN TOWAGE AND SALVAGE CORPORATION                   1610
B0101405810072361051001**********                                               1602
B0101407270162019026001RAMCAR TECHNOLOGY, INCORPORATED                          1605
B0101400310211157372002CARLOS YAP OR SIU SUIG                                   1601
B0101400310211537622001CREATIVE DISHES & RECIPES INC.                           1601
B0101407140213035784001CHEMISOL INC.                                            1602
B0101406620273046998001OAK DRIVE VENTURES, INC.                                 1603
B0801400160311414617001ANOCHE ASSOCIATES INTERNATIONAL, INC.                    1605
B6601400120314043609001FUNDACION GRAMEEN PILIPINAS INC.                         1605
B6601400120314083829001**********                                               1602
B0101402350321006431001OLIVAREZ REALTY CORP.                                    1608
B0101402350321024658002OLIVAREZ COLLEGE INC.                                    1608
B0101402350321037708002RD CASH PADALA, INC.-AREA 1                              1603
B0101402480331036207011MYGENERICS PHARMACY INC.                                 1603
B0101402510341025648001EXPRESSIONS STATIONERY SHOP, INC.                        1601
B0101402640361028210001GOLDEN DRAGON MOTOR SALES CORP.                          1601
B0201400920375035545001GSG ARCHITECTS CO.                                       1602
B0101409210398055893001PHILMOVERS HAULING AND LOGISTICS INC.                    1601
B0101403580511005207001ECO TRADERS INCORPORATED                                 1610
B0101403580511024916001JAYJAY REALTY CORPORATION                                1603
B0101403450521030931001***********                                              1602
B0101404420631034750001DELTA FORCE SECURITY AGENCY                              1602
B0101406040112021958001KNIGHTS OF COLUMBUS FRATERNAL ASSOC. OF                 11602
B1001400350233041564001INFORMATICS COMPUTER INSTITUTE CAG. DE                  11605
B1101400120313544308001YU, ROBERT LIM OR YU, PAMELA LIM OR                     11610
B6601400120314040502002THE ROMAN CATHOLIC BISHOP OF CATARMAN -                 11602
B0201400760374249471002COMMONWEALTH INSURANCE COMPANY                          11602
B0101402770391752292001JUANITA OR TOMAS OR BENJAMIN                            11601
B1201400150421496291001LIQUETE, DOLORES SAGUID OR LIQUETE,                     11602
B0101407430503010445001PHILIPPINE AIRPORT GROUND SUPPORT                       11620
B0101404260611038904001REYESHEN PRINT AND OFFICE                               11601
B0101406040112021958001THE PHILS. INC.                                         21600
B1001400350233041564001ORO CENTER, INC.                                        21600
B1101400120313544308001YU, RONNIE LIM                                          21600
B6601400120314040502002SOCIAL ACTION                                           21600
B0201400760374249471002-OPERATING FUND                                         21600
B0101402770391752292001VICTORIA                                                21600
B1201400150421496291001LEONARDO                                                21600
B0101407430503010445001SOLUTIONS INC.                                          21600
B0101404260611038904001SUPPLIES                                                21600
B0101400860011821100608**********                                               2002
B0101408820333821100608**********                                               2002
