F0101406330472033928003NUTRISENSE INT'L., INC.                                  2601CKR
F0101406880513030105001HEINDRICH TRADING CORPORATION                            2610CKO
F0101412180000000037863RAVELAS, MARIA CECILIA DBU RED                          12602CKR
F0101412180000000037863INTERIOR DESIGN                                         22600CKR
