A0101410140000000038840SUAREZ, PILAR ELEANOR MAKALINAW                          0502
A0101402640000000042424BEST POWER TRADING                                       0501
A0201400920000000048100IGMEN, EMELYN PETILLA                                    0501
A0201400920000000048133MONSANTO, CIRILO ARBIOL                                  0502
A0101400150000000052935MADRIDEJOS, ESTELA CABRAL                                0501
A0101413020000000056944CALUCAG, MARILOU GALAURAN                                0501
A6601400120000000060831YONGCO, MARIE UY                                         0501
A1901400290000000135128JEFFERSON RECIO LAS                                      0501
A0101402640000000201992FRANCISCO, ELIZABETH CASAL                               0503
A0101413600000000206835GONZALES, ENCARNACION ECLEO                              0502
A0601400360000000225221ALFONZO, MA. AILEEN CABALANG                             0501
A0101405490000000232511MICHSJA MOPET MAY C. FELIX                               0502
A0101401670000000237687GINETE, MARITES CRUZ                                     0501
A0101401670000000237701TAYAG, FREDY LINGAD                                      0502
A1901400160000000243525SHIRLEY M PAGCALIWANGAN                                  0501
A0101406750000000358309FRANCO, ANGELITA GUEVARRA                                0502
A0101402770000000360832LUCY DELA CRUZ CUSTODIO                                  0501
A0601400520000000398487MEJIA, MARVIN PALMA                                      0501
A0101407720000000510585ACMAD, FAISAL ARIMAO                                     0504
A0101408240000000521800CALUBAQUIB, LUCILLE GUANGKO                              0501
A2601400270000000561722JAQUELINE D. GALIZA                                      0501
A0101407690000000587771BATACLAN, JOEY LUCAS                                     0501
A0101410690000000710683ABLAO, EUGENE SIVILA                                     0501
A0101413990000000726614BALORAN, EVANGELINE AGPOON                               0501
A0101411080000000805732MALBAS, MIRAFLOR MANSUETO                                0501
A0101400440000000821301TOPCOM CONVENIECE STORE                                  0501
A0101414120000000875572REDESIL CONSTRUCTION                                     0502
A0101407690000000913644ALWAG, RICHARD LICUDAN                                   0503
A0101407690000000913655FLORENOSOS, CENIA BALICUDCUD                             0501
A2001400290000000924549CALUMBA, MARY CHRISTINE BROMO                            0501
A2001400290000000924550TABOADA, ARNULFO VELOS                                   0501
A2001400290000000924561RICONALLA, ANA VEE ALAMILLO                              0501
A2001400290000000924583DEGUIT, SWANIE RESOLUTE                                  0501
A2001400290000000924590ARDOSA, BRENDA QUISEL                                    0501
A2001400290000000924607CANCIO, IRENE FRONDA                                     0501
A2001400290000000924618AGUILAR, FRANCIELO RIVAL                                 0501
A1301400340000000926767CUERDO, AYA                                              0501
A1301400340000000926778**********                                               0502
A0501400170000001032142LOMBOY, SIDNEY CAMORONGAN                                0501
A0101402640000001054197SNOWTECH ENTERPRISES                                     0502
A0101402510000001216722DACAYO, RAMON SEDILLA                                    0501
A0101400860011385076002**********                                               0502
A0101400860011410778003*********                                                0505
A0101400860011533026001**********                                               0502
A0101401250021478374015DONNA V. ABANTO                                          0502
A0101401250021796270001ASTILLERO, AZUCENA B.                                    0501
A0101411080042289624001 *****                                                   0501
A0101401960121031303001FJ'S LUCKY HARDWARE                                      0502
A0101400440161525001055MA. LUZ E. ABIERTA                                       0501
A0101400310211044313001EXICON CONSTRUCTION SUPPLY                               0501
A3101400450223612365001ARAGO, ANDREW HIZON RODA                                 0502
A3001400130230045294001TABASA, RICKY CARPIANO                                   0501
A3001400130230760114088MARTINEZ, NOEL INCHOCO                                   0501
A1001400190231520766085OBSIOMA, MADELYN A.                                      0501
A6601400120314674720001OSITO SOMORAY JR.                                        0502
A2001400290315673185001TAHIR, SAMSODIN TOMAWIS                                  0501
A0101402510341036645001MANG INASAL RESTAURANT                                   0502
A0101402640361039299001JANRELK TRADING                                          0501
A0101402640361170246001GALLARDO, EDILBERTO CLETO                                0501
A0101402640361553105001DELA ROSA, JAYLORD VENTURA                               0502
A0101402640361685216001DIONISIO, LONA ALON                                      0502
A0101408370382391637001DR. REGINA Y. SANTIAGO-AQUIAS                            0501
A0101408400394639219001ROMERO, FRANCISCO GABION                                 0501
A0101410140475045282001JBL RENTALS                                              0501
A0501400170481253455001NORMELITO QUIMO OR IRENE QUIMO                           0502
A1401400110492220854002DIHIANSAN, SAMUEL OR DIHIANSAN,                          0501
A1401400110492651305001BRAVO, RUEL BALDOVINO                                    0501
A0101403580511737804001JOSEPHINE I. LACSON                                      0501
A0101408110515419390002ISIP, JASON EMMANUEL PANTUA                              0501
A0101403450521238265001**********                                               0502
A2201400250561710087001HIROFUMI SHIMIZU                                         0501
A0101407720602332798001ARNEL DIAZ OR LOURDES DIAZ                               0502
A0101407720602398798001AVANCENA, MARIA CORAZON MONZON                           0501
A0101404680651520766125ROSALINDA A. CRISTOBAL                                   0501
A0101407690652474247001**********                                               0503
A0101407690652572809001TURQUEZA, MARIA ROSARIO DIZON                            0501
A0101407690652708763001*****                                                    0501
A0101406590662554898001CHUA, HOWARD SY                                          0505
A0101410300663776849001******                                                   0502
A1301400210682478374043JOANA N MARTIN                                           0501
A1301400340683453552002NATIVIDAD, EDUARDO PACHECO                               0502
A0101408240711383484001CZARINA M. SANCHEZ                                       0502
A2801400100712337434001CHO, SUNG-IL                                             0502
A4101400260812478374081RACHAEL M. EVASCO                                        0501
A0101412340850093035001KALALO, GLENDA MAGBILANG                                 0502
A0101404840851046725011ANALENE MONTECASTRO                                      0501
A0101404840851520766097CURAY, TEODORA                                           0503
A0101407690000000025152MONCEDA, MARINA - DEALERS OF                            10501
A1901400290000000135060ALELI G PERCE OR                                        10501
A1901400290000000135117HERMOSA TERRENAL ROSALES OR                             10501
A0101408240000000521811MARQUEZ, MERVIN JOSEPH OR                               10501
A0101400150000000525535PICAR, GEORGE BACUNGAN OR                               10501
A0101410560000000590658JADOC JR., EFREN AVILA OR                               10501
A0101413440000000702349DALAG, JASMINE E. OR                                    10501
A0101408950000000776529PULIDO, RICHARD NAVARRO OR                              10501
A0101414120000000875521GERARDO A. BALA OR MARIA                                10501
A0101412340000001017532CORPUZ, GERRY DEL MONTE OR                              10501
A0501400170000001032102ONG, JASPER SPENCER L. OR                               10501
A0101413570000001069472JOSE C. ALVANO OR                                       10502
A0601400100000001141291TIMBOL, CYNTHIA CELECIO OR                              10502
A0101410560000001248971FABE, MA CLAUDETTE ANGELINE                             10501
A0101400310211157369006MUNOZ, ASUNCION OR GONZALEZ                             10503
A1301400760253087654001CATHERINE F SANVICENTE OR                               10505
A1101400120313546216001ONG, WAN LIAN PO OR                                     10501
A0101405490392034138001MCMAR & MARY ELECTRICAL                                 10501
A0101407690652025438001BETA BAKERY SUPPLIES & GENERAL                          10502
A0101407690652324673001RAFAEL FELIX F. BORROMEO OR                             10503
A0101407690652525001015FERRER, EVELYN - DEALERS OF                             10502
A0101407690652525001036MONSANTO, ROWENA P. - DEALERS                           10501
A0101407690652525001061NORA G. AVILA - DEALERS OF                              10502
A0101407690652563634001RUEL L. LECAROS  OR                                     10501
A1301400340683356131001LEGASPI, ESTRELLITA DEL ROSARIO                         10503
A0101407690000000025152SHOECAT INC.                                            20500
A1901400290000000135060FLORENCIO D PERCE                                       20500
A1901400290000000135117MARLON REY D ROSALES                                    20500
A0101408240000000521811MARIE ROSAMILLE JOY                                     20500
A0101400150000000525535PICAR, RHODORA IGNACIO                                  20500
A0101410560000000590658CERVANTES, MARICEL GALVAN                               20500
A0101413440000000702349DALAG, GLENDA E.                                        20500
A0101408950000000776529CHIO, MARTIN CLARENCE ONG                               20500
A0101414120000000875521CONSUELO BALA                                           20500
A0101412340000001017532CORPUZ, IMELDA DELA CRUZ                                20500
A0501400170000001032102ONG, FRENZY CLAIRE F.                                   20500
A0101413570000001069472RAFAEL FELIX F. BORROMEO                                20500
A0601400100000001141291CELECIO, ROSITA ROSETTE                                 20500
A0101410560000001248971LOPEZ                                                   20500
A0101400310211157369006ELIZABETH                                               20500
A1301400760253087654001VINCENT PAUL P SANVICENTE                               20500
A1101400120313546216001ONG, WEE SIT PO                                         20500
A0101405490392034138001& CONSTRUCTION SUPPLY                                   20500
A0101407690652025438001MERCHANDISE                                             20500
A0101407690652324673001BERNADETTE CECILLE                                      20500
A0101407690652525001015SHOECAT INC.                                            20500
A0101407690652525001036OF SHOECAT INC                                          20500
A0101407690652525001061SHOECAT INC.                                            20500
A0101407690652563634001JOVITA M. LECARO                                        20500
A1301400340683356131001OR RIVERA, PHILI                                        20500
B0101409890000000004662BLUEBERRY SKY TRAVEL & TOURS SERVIC                      1601
B0101408370000000014600EMILY T. AVENTURA AND LUIS MARTIN HABANA                 1601
B0101405490000000019930HBSM MANPOWER CONSULTANCY SERVICES CO.                   1604
B0101401250000000020800CADANO CARGO TRANSPORT SERVICES INC.                     1601
B1301400210000000023565COLEGIO DE CALUMPIT INC.                                 1605
B0101400860000000030280************                                             1601
B0101412050000000043449FRAMIC INCORPORATED                                      1604
B0101413990000000206077M. GALUPO MARKETING                                      1601
B0101409050000000258462THE NEW REEDLEY INTERNATIONAL SCHOO                      1603
B0101400440000000337751COMMANDER RANGE & SPORTS CLUB, INC.                      1601
B0101400440000000337773VIENNA PORCELANA PHILS. INC.                             1601
B0101400440000000337791TOPCOM SECURITY AGENCY INC.                              1601
B1101400120000000652891COASTALVIEW FOODS CORPORATION                            1602
B0101400310211039537001MEGASERV MANPOWER & GENERAL SERVICE                      1605
B0101400310211241258002BONAMY, ARTHUR CHUA                                      1601
B0101407140213038373001ALL STATE INT'L TRADING INC.                             1603
B1901400290261000718001BANGKO KABAYAN (A RURAL BANK) INC.                       1603
B0101406620273017460002ACCENT MICRO PRODUCTS, INC.                              1605
B0101411110276014917088YUNG SUNG IND. PHILS., INC                               1601
B1101400120313036495001MANCERA STORE & HARDWARE SUPPLY INC                      1610
B1101400120313042083001DTI-8 EMPLOYEES CREDIT COOPERATIVE                       1601
B2001400290315044204001ACEBANK CREDIT, INC.                                     1601
B0101402060351027380001RAGC MULTI-PURPOSE COOPERATIVE, INC                      1601
B0101402060351030919001UNITED TERMINALS SERVICES INC.                           1603
B0201400920375041285002VIRLO CONSTRUCTION DEV. CORP.                            1605
B0101402770391025883001DA LEONARDO INDUSTRIAL INC.                              1601
B0101402770391029160001ST. ANTHONY HOMEOWNERS ASSOCIATION                       1601
B1901400160491347054001EMMA MACATANGAY AND MARIO MACATANGAY                     1602
B0701400260495037805002PRINCETON ENTERPRISES                                    1601
B0101403450521237153001**********                                               1602
B0101400440000000337762SUPREME COMMANDER INVESTIGATION AND                     11601
B0101400440000000337780KNIGHT COMMANDER ARMORED & SECURITY                     11601
B0101400440000000337808COMMANDER AUTOMATION & ELECTRONIC                       11601
B0101405490000001092411BARANGAY SUN VALLEY MULTI-PURPOSE                       11602
B0101402350321179301003PABLO & ERLINDA & MA FLORINDA                           11601
B0101405490392036953001CHRIST'S COMMISSION FOUNDATION                          11602
B0101400440000000337762SECURITY AGENCY                                         21600
B0101400440000000337780SERVICES INC                                            21600
B0101400440000000337808SECURITY SYS INC                                        21600
B0101405490000001092411COOPERATIVE                                             21600
B0101402350321179301003PEFANCO                                                 21600
B0101405490392036953001MINISTRIES INC.                                         21600
