A0101400860000000031621**********                                               0510
A0101408530000000035925CASTRILLO, MILISA CAOIBES                                0501
A0101402510000000049318********                                                 0502
A0101413730000000144716*********************                                    0501
A0101400150000000253369DELA CRUZ, ANGELA BALASBAS                               0501
A0101408240000000347517LAO, APRILYN VIVES                                       0501
A0101409890000000437449**********                                               0501
A0501400200000000473790AFANTE, PRECILA REYES                                    0501
A0101412760000000588278FORBILE, BEATRIZE GUONG                                  0501
A0101413440000000702065CABRERA, LEOTHENY ALBANO                                 0502
A0101400150000000807658LAO, GLENN BENEDICK CHENG                                0501
A0101404420000000866480BANTIGUE, GINA DE JESUS                                  0501
A0101412050000000890893CABALHIN, RENE BRIONES                                   0501
A0101401090000000993411UY, ROBERTO NICOLAS                                      0501
A0101400730000001016500CRISTINA A. DIAZ                                         0502
A0801400160000001031445PALMARES, JONIL FERRER                                   0501
A0101410140000001074919LEGASPI, ROWENA BIACO                                    0501
A0101410140000001074920SAMPANG, RICHARD DAYRIT                                  0501
A0101405490000001092739MAURO A. PASCUA JR.                                      0501
A0101412500000001146930SCRUGGS, SAMUEL AMADAR                                   0501
A0101402510000001292280LLAMADO, TERESA CABANEROS                                0501
A0101402510000001292308MENDOZA, MELISSA ONG                                     0501
A1301400760000001295483LRCAPON TRUCKING SERVICES                                0501
A0101411820000001356689CLARISSE F. BUSEL                                        0501
A0101411820000001356690JOMERLYN S. HUGO                                         0501
A0101400150000001422406DURUSAN, MA EVELYN ANONUEVO                              0501
A1101400120000001547315GABORNES, CARMELITA C.                                   0502
A1101400120000001547508DESUASIDO, IMELDA FAJARDO                                0501
A0101402480000001562130IGNACIO, JOHN PHILIP AGUILA                              0501
A0101402480000001562141GO, CORAZON SOPANG                                       0501
A0101411240000001563413XXXXXXXXXXXXXXX                                          0501
A0101407270000001596901RESTY A. TICA                                            0501
A0601400230000001687181ESTACIO, TERESA LIGUID                                   0501
A0101400150000001707882LAGUERDER, JHON JAKE DELA CRUZ                           0501
A0101404260000001725311OCAN, RHONELL AVILADO                                    0501
A0101404260000001725322GAPUSAN, EDGAR MOLINA                                    0501
A0101408820000001766674FUENTES, JOAN REBANA                                     0501
A1401400110000001806833EMETERIO C MINDANAO                                      0502
A0101408820000001880680SAN JUAN, LYDIA CRISCEL LADERA                           0501
A1901400290000001926343MARRY FE NAVERGAS PAMILAR                                0501
A2401400180000001935884GULLE, MELISSA ALVARO                                    0501
A0101400860011391441003**********                                               0503
A0101400860011412407003**********                                               0505
A0101400860011412598001**********                                               0502
A0101400860011449713001**********                                               0501
A0101400860011479962001**********                                               0502
A0101400860011525583001**********                                               0501
A0101400860011546416001**********                                               0501
A0101400860011685746001**********                                               0505
A0101400150061780152001*******                                                  0501
A0601400100081028046001TANDEM INTERIOR DESIGN STUDIO                            0505
A0101401960121075261001DELA ROSA, MAYUMI ORAA                                   0501
A0101400440161187024002ADORABLE B. JACINTO                                      0501
A0101400440161193275002GOLIMLIM, RUBY TENMATAY                                  0501
A0101400440161483348001CLAUDINE ROSE R. ETCUBANAS                               0501
A0101401090171196113001ROMULO ASIS OR LEILANI ASIS                              0503
A0101401090171196114003LEILANI M. ASIS                                          0503
A0101401090171200092001AGNES Z. CRUZ                                            0501
A0101401380201560895001BALBERONA, JOHNSON VILLAMOR                              0501
A0101401380201619697002CIPCON, FERDINAND INABANGAN                              0501
A0101401380201655132001SATORRE, MILDRED BASILIO                                 0503
A1001400190231478374083CHIONG, MARIVIC P.                                       0502
A1001400190231520766099JAMITO, MARICEL C.                                       0501
A1001400350233478374026ANNABEL ESTOMO                                           0501
A1901400290261298552105AIDA NABOS REYES                                         0501
A0101406620273493931001MARAGGUN, JEROME FORTALEZA                               0502
A0101406620273511558001LUCERO JR., JUAN CRUZ                                    0501
A0101408660274478374012ELSA R. ETCUBANAS                                        0501
A0101400570281200404001SAMUEL Y. LIM OR BETTY D. LIM                            0502
A0801400160311095246001PATAJO, ARCELLE ORSOLINO                                 0502
A0101402480331478374160MIRAFUENTES, MARELYN                                     0502
A0101402510341196639001FELICIDAD M. BAGSIK                                      0501
A0101402510341199103002********                                                 0502
A0101402060351217349001JAVIER, CECILIA                                          0502
A0101402060351566849001YABUT, FELINO CANJA                                      0501
A0101408370382211448001DR. JOSE PAOLO A. PRADO                                  0501
A0101408370382211811001DR. SHARON CATING LIM                                    0501
A0101408400394478374021BALDEVARONA, SALLY                                       0502
A0101408400394478374058CHARINA BENIGNOS                                         0502
A0101408400394478374087JANET L BASSIG                                           0502
A0101408400394478374090MARY DUMASLAN                                            0501
A0101408400394478374091ANALOU SASUMAN MONTALES                                  0501
A0101408950396562558001DR. LEIZL TUMANDA CANONIGO                               0502
A0101408950396563004001ERIC VIDAD NAGTALON                                      0505
A0101408950396622136001MICHELLE VERGARA DELA CRUZ, M.D                          0503
A0101409180397664528001ORTIZ-LUIS, ERNESTO RAMON GAMUS                          0501
A0901400220432478374002EVELYN ALGA DEMECILLO                                    0501
A0101403030441239184002**********                                               0501
A0101405940512338558002CECILIA B. CLAVECILLA                                    0501
A0101411790518086259001BANDAY, CELESTE EDULLANTES                               0502
A2201400250561405717001EUGENE Y. GO                                             0502
A0101404260611415475001GARCIA, RITA ALEGRE                                      0501
A0101404260611480122001DAVID, ELIAS FALLARME                                    0501
A0101404260611484749002BAHALA, AURELIA MANINANG                                 0505
A0101406590662206896001EDSEL &/OR JENNIFER RAMIREZ                              0502
A0101406590662541726001BUROG, MARITA DE GUZMAN                                  0501
A1301400340683678684001BAGOAN, MAOKI IBRAHIM                                    0501
A0101408240711591742001LIMOS, DOMINADOR CASIM                                   0501
A4101400420814357382003REMULLA, GILDA VASQUEZ                                   0502
A4101400550815048121001IGNACIO, ELLEN JOY TRINIDAD                              0501
A4101400550815478374012LOPENA, FEDELINDO GELI                                   0501
A0101404840851428321001GUTIERREZ, OLIVER OR ROGELIO                             0502
A0101404840851481664016AMIHAN G. LIQUIGAN                                       0502
A0101405070861395697002MINOZA, MARLYN SENDEN                                    0501
A0101405070861496910001EDNA L. SARSUELO                                         0501
A0601400230891320333001WILFREDO OR ROILA DUNGAO                                 0501
A2401400180000000427996TUPAS, MARVIN REY PALLARCO OR                           10505
A0101408790000000599982VELASQUEZ, SHARON BERNADETTE OR                         10501
A0101411080000000805856SORIANO, MARGARETTE ANNE P OR                           10503
A2801400230000000937548VITUG, QUIRINO DBU VI-JETT                              10502
A0201400760000000989682SISON, ULYSSES E. OR                                    10501
A0101407270000000997760GEMMA R. LASTRELLA OR DOMINGO                           10503
A0801400160000001031434LERRA MARIE SOLIVIO OR                                  10501
A0101404000000001186863DELFIN, ANNA TAN OR MANUEL OR                           10506
A0101408790000001486353AQUINO, MERVIN P. OR AQUINO,                            10502
A0101407270000001597168CHRISTINA SEDANO DBU: KHAMESH                           10501
A0101400150000001708083SERVER, ERNEST FRITZ DULA OR                            10501
A0101400730111436816001AMBROSIO, JOB ADRIAN MESINA                             10501
A0101401090171196024002ASUNCION PILAR GUTIERREZ OR                             10501
A0101401090171196114001LEILANI M. ASIS OR                                      10503
A1001400350233559184001KHO, PACITA T. OR CORDERO,                              10501
A0101406620273489850001RODOLFO P. DE GUZMAN JR. OR                             10501
A0101406620273519243001PRESCILDA B. CUSTARD OR TIMOTHY                         10502
A0101400570281186248002MABINI CASTELO OR                                       10504
A0101400570281366194002DR. DINA M. PERALTA OR                                  10502
A0501400200292628141001BERMUDEZ, ELSIE M. OR                                   10501
A0101402510341278435001MARIE ELIZABETH Y. SOLIDUM, MD                          10501
A0101408370382593318001DRS. MICHAEL JOSEPH B. REYES OR                         10501
A0101408950396564292002REYNALDO REYES REY-MATIAS OR                            10501
A5501400120410691845008INOCENCIO, ELLAIN MARGARET                              10504
A0501400170481717828001TAN JR., ANDREW KUA OR                                  10501
A0101408240711408868001ARTURO D. TANO OR ANA MAY WONG                          10502
A2401400180000000427996TUPAS, BEATRIZ P                                        20500
A0101408790000000599982VELASQUEZ JR., GERUNDIO                                 20500
A0101411080000000805856SORIANO, MARJORIE ANNE P                                20500
A2801400230000000937548ACCOUNTING OFFICE                                       20500
A0201400760000000989682SAYSON, NINA BIANCA                                     20500
A0101407270000000997760B. LASTRELLA                                            20500
A0801400160000001031434DANILO SOLIVIO                                          20500
A0101404000000001186863ALEJANDRO OR FRANCISCO                                  20500
A0101408790000001486353MARICAR E.                                              20500
A0101407270000001597168TRADING                                                 20500
A0101400150000001708083SERVER, CHRISTOPHER MARK                                20500
A0101400730111436816001OR AMBROSIO, BAR                                        20500
A0101401090171196024002RUTH V. GUTIERREZ                                       20500
A0101401090171196114001ROMULO Z. ASIS                                          20500
A1001400350233559184001KORINA K.                                               20500
A0101406620273489850001ROSARIO K. DE GU                                        20500
A0101406620273519243001ALAN CUSTARD                                            20500
A0101400570281186248002MARIBINI SIOSON                                         20500
A0101400570281366194002DR. FRANCISCO PERALTA                                   20500
A0501400200292628141001LEIZA JR., JUANITO Q.                                   20500
A0101402510341278435001OR GIL M. SOLIDUM                                       20500
A0101408370382593318001SEIZAN MARIE E. REYES                                   20500
A0101408950396564292002JANIS PASTORAL                                          20500
A5501400120410691845008OR INOCENCIO, STEVEN                                    20500
A0501400170481717828001TAN, NATHALIE I.                                        20500
A0101408240711408868001LEE                                                     20500
B0101411790000000005318REM BUILDERS CORPORATION                                 1602
B0101411790000000005341**** ****** ***                                          1601
B1301400470000000009561FUND LINK CREDIT & LOANS, INC.                           1601
B0301400820000000024911DIGOS DOCTORS' HOSPITAL, INC.                            1620
B0101412760000000032026SERBIZ MULTI-PURPOSE COOPERATIVE                         1601
B0101411950000000490880********                                                 1601
B0101406460000000712703WEE COMMUNITY DEVELOPERS, INC.                           1602
B0101409180000001237343CAMPA, CARLOS NIETO                                      1601
B0101413860000001767848FRANSHELL MEDICAL SERVICES INCORPORATED                  1605
B0101400860011409861001**********                                               1605
B0601400100081044381001BWSI-CLPI BRANCHES, INC.                                 1603
B0101400730111579627001RED PLANET HOTELS PHILIPPINES CORP.                      1605
B0101400440161187807001WILLIAM C. LAO                                           1601
B0101401380201034110001PHIL. TRANSPORT XPRESS CORP.                             1604
B0101407140213034002001LABEL LINE ENTERPRISE                                    1603
B0101407140213042472001***********                                              1603
B1901400290261038595002B & V TRADING                                            1603
B1901400290261040667001PRIMERA AGRO DEVELOPMENT CORPORATION                     1603
B0101406460272020749001EASTGATE COMPUTER CORPORATION                            1601
B0101406460272043457001TARSIER SECURITY AGENCY, INC.                            1602
B0101406620273012462006COL FINANCIAL GROUP, INC.                                1610
B0101400570281007176001ASIAN INSTITUTE OF LITURGY & MUSIC                       1601
B1101400120313036430002LEYTE HOME DEPOT INC.                                    1610
B2001400290315088088001GUD MOTO TRADING INCORPORATED                            1601
B0101402480331010039001**********                                               1610
B0101402480331025386001***                                                      1601
B0101402480331027489001*****                                                    1602
B0101402480331031150001UNIGOLDEN INDUSTRIAL COMMODITIES INC                     1603
B0101402480331040756001MAGNATE FOOD & DRINKS INC.                               1603
B0101402060351009459001CHATEAU VERDE CONDOMINIUM CORPORATION                    1603
B0201400920375035929001UPLAND STOCK FEEDS, INC.                                 1602
B0101405940512015044001CASA REGENT PROPERTIES CORPORATION                       1605
B0101403450521011888001**********                                               1605
B0101404000551032497001INTERNATIONAL CAPITAL CORPORATION                        1603
B0101404260611033056001OVT-GRAPHIC LINE INC.                                    1603
B0101404260611035419002JK HUMANBOND CORPORATION                                 1602
B0101404260611035660001BETERAVIA CREDIT CORPORATION                             1603
B0101404420631039013001METRO SECURITY AND ALLIED SERVICES, INC.                 1603
B0101406590662661015001DESTINATIONS UNLIMITED TRAVEL AGENCY INC                 1602
B0101402480000001562209YAP, ELIZABETH DBU GOLDCOLTS SCOOTERS                   11601
B0601400100081253610002NG, WILFREDO M. AND AQUINO, JANET B. AND                11601
B1101400120313544308001YU, ROBERT LIM OR YU, PAMELA LIM OR                     11610
B0101402060351442278001ASAHI GLASS PHILIPPINES HOSPITALIZATION                 11602
B0101409050352212676001LIAMZON, MA. ANTONIA/FRANCISCO/FRANCIS                  11601
B0201400760374249471002COMMONWEALTH INSURANCE COMPANY                          11602
B5501400120410778388188YAP, ALBINO & CHEN, CHIN & ANG, JOHN &                  11603
B0101407430503047489001MANILA INTERNATIONAL FREIGHT                            11601
B0101404840851214607001KAWASAKI EMPLOYEES MULTI-PURPOSE                        11605
B0101402480000001562209PARTS TRADING                                           21600
B0601400100081253610002BUAN, ROLAND S.                                         21600
B1101400120313544308001YU, RONNIE LIM                                          21600
B0101402060351442278001FUND, INC.                                              21600
B0101409050352212676001KEVIN/CATHERINE                                         21600
B0201400760374249471002-OPERATING FUND                                         21600
B5501400120410778388188YAP, LORENZO                                            21600
B0101407430503047489001FORWARDERS, INC.                                        21600
B0101404840851214607001COOPERATIVE                                             21600
