A3101400740000000013856DESACOLA, EMILIA VELAYO                                  0501
A0101412470000000026811**********                                               0502
A4101400390000000048673PINAZO, EVELYN PEREGRINO                                 0502
A6601400120000000060368LAGRIMAS, MARIA ISABEL VERANO                            0501
A0101400310000000140832CATACUTAN, NAANNIEL LOBO                                 0501
A0101400310000000140843ENCARNADO, GILBERTO RAMOS                                0501
A1301400500000000213254MUNAR, WARREN PANA                                       0501
A0101408370000000335631NANALE, MELYN PABUNA                                     0501
A0101402770000000360990SARTE JR., HONORATO VILLADARES                           0501
A0101408110000000380027BONGALBAL, CAROLA MAYO                                   0501
A0101408110000000380072FLORES, RUBY ROSE SIERVO                                 0501
A1201400150000000473501BARRIENTOS, CHRYSHAINNA BALINAG                          0501
A0101403580000000509368TIU, KARLENE THERESE SOLDIVILLO                          0502
A0101404260000000532227TUZAN, EMMANUEL RYAN FERRERAS                            0501
A0101412180000000560194PARAMIO, HESCHELLE MANCERA                               0501
A2601400270000000561740EMILIA M. BAUTISTA                                       0502
A0101400440000000596561GALURA JR., HECTOR PINEDA                                0501
A0101409050000000601374**********                                               0501
A4101400420000000710154LACERNA, ADELFA                                          0501
A4101400420000000710289DULDULAO, EDWIN RELADO                                   0501
A0101408950000000776541MARCIAL ADANIEL C. EUGENIO                               0501
A0101400150000000807567RESURRECCION, MILDRED PAGSUYUIN                          0501
A0301400820000000814088OZOA, EUGENE B.                                          0503
A0101407270000000818451WINNIE R. BALTAZAR                                       0501
A0101403580000000922816GRACE M. MABUTE                                          0501
A0101406620000000962210CARLOS, LOURDES STA ANA                                  0501
A0101406620000000962243ROXAS, MANUEL ROQUE                                      0501
A4101400550000000981711SANCHEZ, CARMELA BEBSIE C.                               0501
A4101400550000000981722MANGA III, CARLOS REYES                                  0502
A6601400120000001065281ECHALUCE, RAFAEL CHIN                                    0502
A1401400110000001095916SY, DENNIS LOO                                           0501
A0101401830000001140134DELA PENA, REA JUSI                                      0501
A0301400820000001185815GREGORIO, NORMAN P.                                      0501
A4101400260000001198825SANTOS, LUZVIMINDA GASTARDO                              0501
A4101400260000001198858HAW, MARIA IMELDA CRISTOBAL                              0501
A0101407140000001218228**********                                               0501
A3001400130000001271352MONTECLARO, JOSEPHINE VILLAROSA                          0501
A0101407560000001276051ABU, MISCHELLE BACULI                                    0501
A0101407560000001276062*****************                                        0501
A0101407560000001276073****************                                         0501
A0101410560000001290933ODCHIGUE, CORDIALAE ORJALESA                             0501
A0101409210000001294311MACABUHAY,CHIARA LOURDES BARRON                          0501
A0101400600000001335499********                                                 0502
A0101413600000001430562LOPEZ, ROSE ANN FERNANDO                                 0501
A0101400440000001439709BORLONGAN, ROWENA VITAS                                  0501
A0101400440000001439710ROQUE, SOPHIA ANNA SALAS                                 0501
A0101401700041007692001**********                                               0502
A0101401700041028243001YACK'S AUTO SUPPLY & ELECTRICAL                          0504
A0101400150061357584001BONTOGON, REMELIZA FONOLLERA                             0501
A0101400150061569177001YOUNG, ROLAND SAMUEL                                     0501
A0101405810072235427001**********                                               0501
A0101405810072311804001YU, GEORGE TIU                                           0501
A0101405810072521040001***************                                          0502
A0601400100081251823001QUINLAN, JOHN OR PAM                                     0506
A0601400100081294390002YUNUN, JOSEFINA CUNANAN                                  0501
A0101400440161039572092JOSEFINA R. JONES                                        0501
A0101400440161525001069ROMYLYN D. REAL                                          0501
A0101400440161525001103OFELIA B. OLERMO                                         0501
A0101407270162331908142ROSELYN S. SUANTE                                        0501
A0101400310211042292001AEM ELECTROMECH SUPPLY                                   0503
A0101400310211051705001NUNEZ, GARRY DBU GVN'S CUISINE                           0501
A0101400310211786511001FELIPE, KAREN MANES                                      0501
A3101400450223519356001AQUINO, SHERWIN AND BEVERLY                              0502
A3101400450223529066001MORENO, MICHELLE CALALO                                  0503
A3101400450223576401001GALLEGO, DHARIA CAJAYON                                  0501
A3101400450223594898001FEDERIZO, MAYRISSA SANCHEZ                               0501
A1001400190231478374162TORAYNO, DELILAH B.                                      0501
A1001400350233526603001BELTRAN, FRANCISCO LOPEZ                                 0502
A0101401670271654112001LOPIDO, JENNY ANNE BALUYOT                               0501
A0101406620273026212001JRICO TRADE INVESTMENT                                   0503
A0101406620273038576001VENTURE 11 FOODS EXCHANGE                                0501
A0101406620273217518001MELINDA MAGPANTAY                                        0502
A0101406620273301500005MENDIOLA, GABRIEL JOSE E.                                0501
A0101406620273514932001ELEGADO, MELANIE ISIDRO                                  0501
A0101406620273528771002***************                                          0501
A0101411820277070956001**********                                               0501
A0101402350321478374017RIZA G. SANTOS                                           0502
A0101402350321618569001DAMASO, GLORIA SANCHEZ                                   0501
A0201400920375524523001MIEL, PRINCESITA OR MIEL, ALEX                           0502
A0201400920375718711001LIM, ROSARIO TAN                                         0501
A0101402930381311758001********                                                 0502
A0101405490392177005001DOMINGA P. BUENAOBRA                                     0501
A0101408400394508446002BILIGAN, CHARLENE LASCO                                  0503
A0101408950396229648001YUHICO, EMMA A.                                          0502
A0101408950396392501001BAMBALAN, JOCELYN CENIZAL                                0503
A0101412210399094817017JOSE S. SARET                                            0501
A2401400180411045435001HP FRANCISCO CONSTRUCTION                                0505
A2401400180411508606168*********                                                0502
A2401400180411614556001ALZONA, MA. TERESA MIRABUENO                             0501
A0101403030441469355001**********                                               0501
A0501400170481485605001MACARAEG, MERIAM REASONDA                                0503
A0501400170481597163001TAN, FRANCISCA ROSARIO ESPINO                            0502
A1401400110492512365001PORTES, MERLE SALAMILLAS                                 0501
A0101403450521239777001**********                                               0501
A0101403450521344500001**********                                               0503
A0101403610531287259001HIDALGO, ALFREDO MONTEALEGRE                             0501
A0101407720602162403001MARY CAROLINE LAGMAN                                     0502
A0101404260611478374078SUPERAL, CORAZON                                         0501
A0101404260611478374096ADALIA D. ABCEDE                                         0501
A0101406590662207847001MARY ANN P. FLORENDO                                     0501
A0101406590662448164001DE LEON, JUNAME CRUZ                                     0501
A1301400210682478374033ALICIA M. CARREON                                        0501
A1301400210682539468001RAYMOND H CHUA                                           0501
A2801400100712478374012DELA CRUZ, VANESSA JOY                                   0501
A4101400390813427399001VILLANUEVA, ELIZABETH MAIGUE                             0501
A4101400420814478374074LINGAT, MARDE M.                                         0501
A0101408370000000014513DR. CHRISTOPHER NAPOLEON                                10502
A0101406750000000358252DESTURA, MA JANE AMILETH B. OR                          10501
A2601400270000000561955MICHAEL T. DE GUZMAN OR                                 10501
A0101406620000000577060ALEGARBEZ, ROBERTO ESPERAS OR                           10501
A0601400100000000786701BANAS, CESARLIE AMBASA DBU B &                          10501
A0601400230000000990085CATOY, MARIETA C. OR                                    10502
A0101408400000001614637ESGUERRA, EDISON OR VILLARUEL,                          10501
A0101400150061227038001LULU VELASCO OR                                         10501
A0101401830141653090001JOSELITO ALBERTO S. CASTRO OR                           10503
A3101400160221220455001JACINTA J. TORRES OR                                    10502
A1001400350233512624001BARLAAN, DORIS BEDE OR                                  10501
A1301400470252599213001REYNALDO OR ROSARIO TERESITA OR                         10503
A0101406620273575453001*********                                               10501
A0101402350321533961001GAMBOA, ERIC S. OR                                      10502
A0201400760374046327001PELAYO, R. DBU TOTO ENTERPRISES                         10506
A1201400150421044182001VMN MARKETING & GENERAL MERCHAN                         10504
A1201400150421253603001FLORES, ISABELITA MENDOZA OR                            10501
A0101403580511150751001VIOLA V. CRUZ OR                                        10505
A0101407720602379811001NOEL S. AYPA OR MA. CARMEN                              10502
A0101407720602507664001AUGUSTO D. LITONJUA OR                                  10502
A1301400210682635116001DEVORAH M SOTO OR                                       10501
A4101400420814727886002FLORES, NESTORIO CAPATAR OR                             10501
A4101400420814768923001VIRTUZ, SALVADOR ABAQUITA OR                            10502
A0101406750852046899001VARGAS, ELENNETT DBU AVIS DE                            10502
A0101406750852078501001TAKEDA, RACQUEL G. OR                                   10501
A0601400230891402549001BENEDICT O. DUNGAO OR                                   10502
A0101408370000000014513DELOS REYES                                             20500
A0101406750000000358252PASCUAL, JEFFREY B.                                     20500
A2601400270000000561955KAREN MAY B. DE GUZMAN                                  20500
A0101406620000000577060ALEGARBEZ, JENNELYN                                     20500
A0601400100000000786701Y LAUNDRY SHOP                                          20500
A0601400230000000990085QUIROZ, ROSEL                                           20500
A0101408400000001614637SUMALABE                                                20500
A0101400150061227038001CESAR VELASCO                                           20500
A0101401830141653090001KATRINA INEZ S. JAVIER                                  20500
A3101400160221220455001RENATO I. TORRES                                        20500
A1001400350233512624001BARLAAN, ALEX E.                                        20500
A1301400470252599213001RAYMOND JOSEPH ODULIO                                   20500
A0101406620273575453001*********                                               20500
A0101402350321533961001GAMBOA, SHIELA P                                        20500
A0201400760374046327001COMMODITIES                                             20500
A1201400150421044182001DISING                                                  20500
A1201400150421253603001DOLOROSA, ROMEO                                         20500
A0101403580511150751001RUFIA DOROTHY C. VERA                                   20500
A0101407720602379811001TERESA G. AYPA                                          20500
A0101407720602507664001MARY A. LITONJUA                                        20500
A1301400210682635116001MIGUEL CARLOS B SOTO                                    20500
A4101400420814727886002FLORES, MA. SOCORRO                                     20500
A4101400420814768923001VIRTUZ, REBECCA ANO OS                                  20500
A0101406750852046899001PASSAGE EVENTS M                                        20500
A0101406750852078501001JULAO, FLORENCE                                         20500
A0601400230891402549001ANGELICA A. DUNG                                        20500
B0101411400000000001656SAS SMART ACCOUNT SOLUTION CO. LTD.                      1610
B0101406620000000015016ARDENT NETWORKS INC.                                     1601
B0701400260000000041083MULTI-WARE ECON-SALES CORPORATION                        1603
B28014001000000001883631 AIMHIGH SECURITY AGENCY INC.                           1603
B0101410850000001229663ALSTROEMERIA CORPORATION                                 1601
B0101407270162043721001ABS-CBN HOLDINGS CORPORATION                             1603
B0101407270162046726001VALUE CARE HEALTH SYSTEMS, INC.                          1625
B0101400310211021164001AYROSO WIRE MASTER INCORPORATED                          1601
B0101400310211034158001ALMINCO-AGRO DEV'T CORP.                                 1601
B0101400310211046817002LINKS & VISIONS, INC.                                    1601
B0101407140213023524001CDC ADVERTISING TOOLS, INC.                              1602
B0101407140213186154001INDUSTRIAL INTERLINK CORPORATION                         1610
B3101400450223037708001RD CASH PADALA, INC.                                     1603
B0101406620273313299003**********                                               1602
B0101406620273545544001SUMMIT TEAM WELLNESS CORP.                               1601
B0101402350321016640001ST LAWRENCE ACADEMY                                      1601
B0101409180397040702001REGENT FOODS CORPORATION                                 1602
B0101409210398043396001PIN HIGH GOLF SHOP                                       1603
B2401400180411046647001YAP MABUHAY ENTERPRISES, INCORPORATED                    1605
B0101403030441030325001**********                                               1601
B0101403320471008854002JESUS LOVES YOU MINISTRIES, INC.                         1605
B1401400110492028896002CARLOS DRUGS-LUCENA, INC                                 1602
B0101403580511031959001AVENTEK CO. LTD.                                         1601
B0101408530516037477001VXI GLOBAL HOLDINGS B.V.                                 1605
B0101403450521312243001*********                                                1603
B0101403610531041038001ANM CHEMICAL RESOURCES INC.                              1603
B0101404000551024348001APPLESEED MONTESSORI INCORPORATED                        1601
B0101404420631042149001FIL-CHIN ENGINEERING                                     1605
B1301400210682249265002AGNES P ANDAN OR NOEL FREDERICK PENEYRA                  1601
B0101407560686019374001MEGATECH MULTI RESOURCES CORP.                           1603
B0101407560686173092001**********                                               1605
B1201400150421025695001PRINTING AND PUBLISHING MULTI-PURPOSE                   11602
B1201400150421496291001LIQUETE, DOLORES SAGUID OR LIQUETE,                     11601
B4101400390813016813001GENERAL CHEMICALS & RESINS                              11601
B1201400150421025695001COOPERATIVE                                             21600
B1201400150421496291001LEONARDO                                                21600
B4101400390813016813001CONSORTIUM                                              21600
