A0301400820000000024871JAO, EDMUNDO C.                                          0502
A0101400570000000031847MERCEDES L. LAUREOLA                                     0502
A2001400290000000046284MBT MARKETING                                            0501
A0201401020000000056222SANTOS, R DBU INTEGRATED LASER                           0501
A0101400150000000253518LOPEZ, ANNABELLE BALOIS                                  0501
A4101400390000000379124PATAWARAN, AILEEN AGAHAN                                 0501
A0101405940000000506078MUECO, JAIME PEREZ                                       0501
A0101408240000000521822MANGLAPUS JR., RAUL LAO                                  0501
A1001400480000000606819TAN, LYDIA OR TAN, OLIVER                                0505
A0101400730000000833301LORENO, MA EDNA DELICANA                                 0501
A0101402930000000859747LIM, EDWARD PANTILO                                      0501
A3001400130000000931162VOCALES, MYRA SERENO                                     0501
A0201400760000000989671BOSCHI, GIOVIE LYNN ARABE                                0501
A5001400170000001003421LEYNO, KATHERINE MARAON                                  0505
A0301400790000001010642PAMONGCALES, ELIAS REPAMONTE                             0501
A0101406460000001231587LEE, MARGARET CHAM                                       0502
A3001400130000001271363PALUCA, LIZA MORAL                                       0503
A0101404840000001312576DOMINGUIANO, GLORIA D.                                   0502
A0101406040000001392041********                                                 0502
A0101401090000001618662EDIFIIEZ SUN BUILDERS                                    0501
A0101400570000001681858GO, ROBERTO ONG                                          0502
A4101400260000001783764GAMBA, ANNIE                                             0501
A4101400260000001783946GUICO, LOURDES MALUTO                                    0502
A0901400220000001805061**********                                               0501
A2401400180000001935782ONAS, ROSITA PLANOS                                      0501
A0101411080000002243129****************                                         0502
A0301400790000002301251VILLADEMOSA, JOSELITO BANIEL                             0501
A2001400290000003067792CORNELIO, VENUS BULAGAO                                  0501
A0101400600071233731001**********                                               0505
A0101400440161298552121MILMA M. QUIAMBAO                                        0501
A0101400440161525001079HERMA M. DELOS SANTOS                                    0501
A0101400440161525001115EVA D. SAMILLANO                                         0503
A0101401090171196001001MATILDE GONZALEZ                                         0501
A0101407140213282219001**********                                               0505
A3101400160221478374056ALLAN P. TINAMBACAN                                      0501
A3101400160221533266001ANGELITO S. LAZARO JR.                                   0502
A3001400130230687086188********                                                 0510
A0101406460272298552014ELMA BERNARDINO                                          0501
A0101402350321638427001RONALYN O. MUGAR                                         0502
A0101408820333478374061JULIANA F. FAMENTERA                                     0503
A0101408820333752329001***************                                          0503
A0101402770391214689001ERICSON S. FONTE                                         0501
A0101402770391383276018MICHAEL ADRIAN BORJA                                     0501
A1201400150421029242008DRIZZLES PURIFIED WATER                                  0502
A0101403030441545175001**********                                               0501
A0101406330472478374046YVONNE M. LOMIBAO                                        0502
A1901400160491244540002GLORIA G ILAGAN                                          0501
A1401400110492221994001IGNACIO, JEROMIE LOPEZ                                   0501
A0101403450521238228002**********                                               0501
A0101404130601339897001DR. LESLIE V. TIU                                        0501
A0101407720602378666002FILOTEO CERENO FERRER                                    0502
A0101407720602398798001AVANCENA, MARIA CORAZON MONZON                           0501
A0101407720602496503007CYNTHIA RAMILO                                           0502
A0101404260611445556001MONSOD, BENELIZA SALA                                    0501
A0101404420631030166001*****                                                    0503
A0101410720653478374054CRISTINA CALDERON                                        0501
A0101410720653505147001*****                                                    0501
A1301400340683664578001HERMOSO, MARCOS STA. CRUZ                                0501
A0101407560686174144001APOLONIA D. DEMITION                                     0502
A0101407560686313158002********                                                 0502
A0101408240711375102001PANICUCCI, MA. PILAR M. JT                               0501
A4101400260812039607027PAULINE PUGAY                                            0502
A4101400260812310546003KHO, KWANG TAE                                           0501
A4101400420814386709001MERCADO, ELVIRA BAUTISTA                                 0501
A4101400420814520766139VILLAMAYOR, MINA                                         0501
A0101404840851520766002CYNTHIA S. GERODIAS                                      0502
A0101404840851520766067JOSEPHINE V. GABAYERON                                   0501
A0101401099000001611461RAYMOND P. CLARIN                                        0501
A0101406620000000051061MANCILLA, MICHAEL LEE                                   10502
A0101400150000000253392CALIXTO, SHAYNE DBU PURPLE HAZE                         10502
A0101402930000000859827PACIO-MAYOR JR., J DBU CADUCEUS                         10505
A0101401700041290571001BEVERLY L. CHUA &/OR                                    10501
A0101402510341196445001ROSITA G. SANTOS OR                                     10503
A0101402510341202997001VIVIAN VELASCO SUTO OR                                  10501
A0101402930381354198001WILFRIDO OR MA ELENA SANCHEZ OR                         10502
A5501400120410624314001MORALES, RAUL OR                                        10502
A2401400180411666777088DE MESA, FRANCISCA GUBUAT -                             10504
A0101407560686277688001TERESITA E. JUAN OR                                     10501
A0101407560686366970003CRUZ, RICHELLE OR BRIAN ULEP OR                         10502
A2801400230713045955001LITTLE SCISSORS UNISEX SALON                            10501
A0101406620000000051061OR MANCILLA, MIL                                        20500
A0101400150000000253392BLENDS, SHAKES A                                        20500
A0101402930000000859827MEDICA MULTISPECIALTY CLI                               20500
A0101401700041290571001BRENNEN CHUA                                            20500
A0101402510341196445001HEPTY D. SANTOS                                         20500
A0101402510341202997001WILSON MABALOT S                                        20500
A0101402930381354198001MA THERESA MURGA                                        20500
A5501400120410624314001MORALES, BELINDA                                        20500
A2401400180411666777088NICESIAN STORE                                          20500
A0101407560686277688001ARMANDO JUAN                                            20500
A0101407560686366970003NEIL GARRET ULEP                                        20500
A2801400230713045955001RONNIE B. RUIZ                                          20500
B0101404840000000004111TOM'S WORLD PHILIPPINES CORPORATION                      1602
B2801400100000000004844VMK SUBIC VENTURES INC.                                  1602
B0101406460000000020920PRIME CREATIVE DIMENSIONE INC.                           1620
B6601400120000000022306NORTHERN SAMAR COLLEGES, INCORPORATED                    1602
B0101402770000000023769DE ASIS, C DBU KARANGALAN JOB CONTR                      1603
B3001400130000000067241BUTUAN BRAKE CENTER SALES CORPORATION                    1603
B0101409050000000258531HENDERSON BLAKE BUSINESS SOLUTIONS,                      1602
B0101411080000000806068MARILAO ALERCO INDUSTRIAL CORPORATI                      1602
B0101403450000000889621FERRIS SOBELL PROPERTIES INC.                            1603
B0101400150061018835001STRONGHOLD INSURANCE CO., INC                            1610
B0601400100081013322001LACTO B INCORPORATED                                     1605
B0101400730111042662001CENCAR CORP.                                             1603
B0101401670271042474001PHILIPPINE-FINLAND SOCIETY                               1601
B0101406620273012462006COL FINANCIAL GROUP, INC.                                1610
B0101406620273788244001VERDE ENERGY PHILIPPINES INC.                            1601
B1101400120313549737001YU, RONNIE LIM                                           1603
B0101402350321012513001CONNER HARDWARE CORP                                     1601
B0101402350321034292001JACINTHE MANUFACTURING CORPORATION                       1602
B0101405650322018011001MONTESSORI DE MANILA, INC.                               1602
B0101402930381009648001CHRIST'S COMMISSION FOUNDATION, INC.                     1610
B0101402930381022284001INVESTORS ASSURANCE CORPORATION                          1601
B0101402930381042025001CANIPAAN EARTH RESOURCES, INC.                           1603
B0101405490392034314001RAEMANN CORPORATION                                      1602
B5501400120410046889088GRV FAMILY COMMERCIAL                                    1605
B0501400170481015876001TDG-PARTS DEPARTMENT                                     1603
B0501400170481015877001TDG-SERVICE DEPARTMENT                                   1605
B0501400170481015879001TDG VEHICLE SALES DEPARTMENT                             1605
B0501400170481015881001TOYOTA DAGUPAN INC.-2                                    1603
B0501400170481015881001TOYOTA DAGUPAN INC.-2                                    1610
B1401400110492046339002****                                                     1615
B0101408110515045832001CASTO TRAVEL PHILIPPINES INC.                            1601
B0101408530516034772001INFOSTORAGE CORPORATION                                  1603
B0101407560686027053001TECHWOOD MANUFACTURING CORPORATION                       1601
B0101407560686037968001KPS FEED CORPORATION                                     1601
B0101406750852023612001LAS PINAS CITY MEDICAL CENTER, INC.                      1610
B3801400170000000154221HALCON C CHUA AND                                       11601
B0101413570000000206522HOLY SPIRIT COMMUNITY MULTIPURPOSE                      11601
B0301400790000000435738NEW GREAT LUMBER AND CONSTRUCTION                       11601
B0101402350000000655345MICHAEL ANGELO B. VERGARA AND                           11602
B0601400100081296256001CHRISTOPHER OR LOYA MALLARI FAO CHRISSAN                11603
B3101400160221284706001INSTITUTE FOR FOUNDATIONAL                              11605
B0101407560686006370005VICTORIANO T. LEY OR                                    11603
B3801400170000000154221RENE M LEOCADIO                                         21600
B0101413570000000206522COOPERATIVE                                             21600
B0301400790000000435738SUPPLY, INC.                                            21600
B0101402350000000655345SHIRWELL M ISADA                                        21600
B0601400100081296256001AUTO SUPPLY                                             21600
B3101400160221284706001LEARNING, INC.                                          21600
B0101407560686006370005CLYDE CHUA                                              21600
