 0101400570000000031803                                                           00
A0101411400000000001532AL SHOMALI, MOHAMAD MOSTAFA S.                           0501
A0501400170000000018259GUTIERREZ, LERMA MONTES                                  0503
A2401400180000000019758ABUHAN, IRENE MERCADO                                    0501
A0101411080000000026257ONG, CHARLES PRESENTACION                                0501
A0101409920000000118625DILE, BEBERLYN MUNEZ                                     0501
A0101401090000000210293DE JESUS, LILIA C.                                       0505
A0101411400000000230111NEPOMUCENO, ARIEL FRANCISCO                              0503
A4101400550000000315182MARGAJA, FELICITA BITOR                                  0501
A0301400820000000316607JEAN W. HERNAN                                           0501
A0101404000000000461141RONAN, ABELARDO REPUBLO                                  0501
A4101400260000000469329FALCUTILA, MARISSA RAMOS                                 0502
A0101404840000000475952GONZALES, ROWENA POLLICAR                                0501
A1101400120000000652380CAYUBIT JR., SERAFIN ASERON                              0502
A0101408950000000776694ALVAREZ, YSMAEL BUAN                                     0502
A0101410850000000778678AHING, SHIELA MARY ANG                                   0505
A0101412630000000801552GOMEZ, MARY GRACE FUENTES                                0501
A1301400340000000926870CUERDO, AYA                                              0502
A1301400210000000983768BULAONG, BERNARDITHA NOLASCO                             0501
A2601400270000001009118JOSELITO G. VALENCIA                                     0501
A2201400250000001066062******                                                   0502
A0101408400000001213621DIVINA, ARNELA CERALDE                                   0501
A0101411950000001272997BERNARDO, DIGNA CAPOTULAN                                0501
A0101404840000001312758SOGUECO, TERESITA DALISAY                                0501
A0101412920000001313728CHEF ALBERT FOOD SERVICES                                0501
A0101407270000001597215CASANE, R DBU CASANE LIGHTS TRA                          0501
A0101409050000001662380***************                                          0501
A2401400180000001676913***********                                              0501
A2401400180000001676980BAUTISTA, LUELLEN MABITAD                                0502
A0101413150000001688617******                                                   0505
A3401400280000001723382BENLIRO, ALFIE TIANCHON                                  0501
A0101410140000001939820MARCELO, RICARDO ROSARIO                                 0501
A3101400870000002007727LUMBRIS, ZAHRA DAYO                                      0501
A5001400170000002023596**********                                               0503
A1301400500000002063781**********                                               0502
A1301400500000002063907CASTRO, EDWIN MAMARIL                                    0502
A3101400450000002092979SAMONTE, MAXIMA ELEANOR BIENVEN                          0501
A0101411950000002266082SANNY O. BALANSAG                                        0502
A0101413150000002299330******                                                   0503
A0101411240000002332503*****                                                    0502
A0101407270000003253905ANA ISABEL B. DIAZ                                       0501
A0101412340000003340963CHARMAINE KATHLEEN S. BABAS                              0501
A0101412340000003341733CANDICE RACHELLE V. CARUBIO                              0501
A0101412340000003345548JOSEPH BENJAMIN B. QUINTAL                               0501
A0101400150000003352383VELASQUEZ, CATHERINE                                     0501
A3101400870000003396941MASIBA JR., LEONARDO JUBAL                               0501
A0101401250021483705002SISON, ROSIVINI ISIDRO                                   0502
A0101401700041386463001**********                                               0503
A0101401700041386485001MA. SONIA DINO                                           0501
A0101401700041458452001YAMSUAN, EVA HABANA                                      0501
A0101400150061469895001MENDOZA, JULLIENE MARY ABELIDA                           0501
A0101400730111386485175IVANHOE O. MARASIGAN                                     0502
A0101400440161525001135MARIFEL S. BOOC                                          0501
A0101400440161563348001GERALDINE C. LUMAGDA                                     0501
A0101407270162087457001******                                                   0501
A0101407270162543936001MAREBELLA D. MEDINA                                      0501
A0101407270162673794001IMEE P. LIM                                              0501
A0101401090171417697001TAUSA, FERNANDO ESTIOCO                                  0501
A0101407140213385506002**********                                               0501
A3101400160221478374062LANI R PEREZ                                             0501
A3101400450223223458004ALVERO, LEAH AURORA TOLENTINO                            0501
A3101400450223767085001VENTURA, AUREA FORTUNA                                   0501
A1001400190231036927001YONG SURPLUS PARTS                                       0502
A1001400190231040271001ROADNET 2000 ENTERPRISES                                 0502
A1001400190231520766086ABANG, ELVIE EGDAMIN                                     0501
A1001400350233573734077LEE, ROBERT UY                                           0501
A0101400570281186617001DR. SALLY RACHEL T. MACAPAGAL                            0503
A0101400570281405675001SALLY ANN CLARK                                          0502
A0801400160311478374106SORILLA, HAYDEE                                          0501
A0801400160311645060001LIM, MA. GINA CAJANDIG                                   0501
A1101400120313478374116MASIN, NANCY KELISTE                                     0501
A1101400120313537396002VILLEZA, ROMEO NIEVES                                    0502
A6601400120314400833001BRIONES, FERDINAND ABUDA                                 0502
A6601400120314613974002UY, CESAR LIM                                            0503
A2001400290315043996001STOP N' SHOP ENTERPRISE                                  0505
A0101408820333047432001***************                                          0502
A0101402510341196664001EDNA R. DELA CRUZ                                        0501
A0101402060351349405002YAP, JAMES YU                                            0502
A0101402060351409718001SUBIJANO, SHERWIN BALTAZAR                               0503
A0201400760374636953001GRACIANO, PILARDO SANTOS                                 0501
A0101402770391217498021ARLAN ANTONIO JR. REYES                                  0501
A0101408950396294877002SINGSON, REBECCA BAUTISTA                                0503
A2401400180411042912088QUISHA FOODS                                             0501
A2401400180411478374047YOLANDA L. NINGAL                                        0501
A2401400180411580807001BESANEZ, MARITES ARCENAL                                 0501
A1201400150421253022001GARCIA, LEONILA LANSANG                                  0501
A1201400150421478374014PERIDO, MARY JANE                                        0504
A0901400220432582218001**********                                               0501
A0101403030441545175001**********                                               0501
A1901400160491244613001FELIPE G REYES                                           0510
A1901400160491476162001GINA A PELESMINA                                         0501
A1901400160491659463001GLORIA JARO PENA                                         0502
A1401400110492543449001ACEITUNA, MYRNA CANZON                                   0502
A0101407430503736499001CECILIA P. REVAREZ                                       0501
A0101406880513368011001SAMULDE, JULIO PENTASON                                  0501
A0101408530516571877078EPPIE C. TITONG III                                      0501
A0101403450521240285002**********                                               0502
A0101404000551485713002LABONETE, ARLENE RODRIGUEZ                               0502
A0101404000551632826001NARVASA, EVALOR DEL ROSARIO                              0502
A2201400250561344975002ALMA G. TAGUDANDO                                        0501
A0101407720602163481002BANICO, MARIA PIA REGINA T.                              0502
A0101407720602339048001CABRERA, ALFREDO DE JESUS                                0501
A0101409890649047047001**********                                               0506
A0101411950680478374004CARLETA, REBECCA CARPIO                                  0501
A0101408240711377201001CARMELITA OR DANILO POSADAS                              0502
A0101408240711384215003LOURDES GRACE MAPALAD                                    0502
A4101400260812610415001MERWIN R. PELLOS                                         0502
A4101400420814477593003BAUTISTA, TERESA PONCEJA                                 0503
A4101400420814478374122AGUILO, RODENA T.                                        0501
A4101400420814520766134TERESITA A. CASTILLO                                     0502
A0101404840851478374062VIOLITA V. GIDUCOS                                       0503
A0101404840851478374182MARIA CRISTINA C. JIMENO                                 0501
A0101404840851529987001PASACAY, LEA BERONIO                                     0502
A0101405070861198446004CALMA, VICTORIA                                          0502
A0101405070861202773002HUI, CHING CHUEN                                         0501
A0101405070861553114001IDANMAL, RAJESH KUMAR                                    0501
A1301400470000000061463DEUS, MARIA ELNORA DE GUZMAN                            10505
A0101410300000000592198BARBASA, J DBU TIGER WATER                              10501
A0101412050000000697190RIVERA, TEODO DBU BLAZE EFX                             10501
A0101412890000002747766BELVIS, G DBU BELVIS MEAT                               10502
A0101401250021463862002LEDESMA, SUZETTE SALINAS OR                             10503
A0101401700041316267001REYNALDO B. BONGALOS OR                                 10515
A0101401090171196095001ALBERTO WONCHAI OR                                      10502
A0101401090171201345002MA. CECILIA OR RAMIL                                    10501
A0301400660194731082088PEJI, JUNE ANN SOLER OR PEJI,                           10505
A3101400740224714475002BISCOCHO, GEMMA SANTOS OR                               10501
A0801400160311380582001CHUA, ANDREW UY OR                                      10501
A0801400160311419412001UY, CARMELA WENDY OR                                    10502
A2001400290315041547001CARTRONIX LOGISTIC & TRANSPORT                          10506
A0101402510341325995002ALEX T LIM OR ELISA N LIM                               10501
A0101402510341331222001ERLINDA RECOCO OR JOHN PAUL                             10501
A0101402060351009359001JIANDANI, SURESH G. OR                                  10502
A0201400890376535273002TOLEDO,HAROLD XAVIER/GUEVARRA,                          10502
A0101402770391638700001TREVOR ROSS MCNELLIS OR                                 10502
A2401400180411610828001PACHECO JR., SIMPLICIO OR                               10502
A1201400150421039385001JL'S CLEAN UP JANITORIAL &                              10503
A0101408530516622804001HENRY P. CUREG AND                                      10505
A2201400250561342534003ROWENA B. FERRER                                        10501
A2201400250561478374010ZENAIDA L. REYES                                        10501
A0101407720602332279002CAYCO, ANTONIO V. OR                                    10501
A1301400500684594780002CASTRO, RAYMUNDO OR                                     10502
A4101400260812027359001RECKON AUDIT AND ACCOUNTING                             10503
A0101405070861197518001RICARDO G. CHAN OR                                      10505
A0101405070861357456002CARLOS RIVERA OR ARISTOTLE                              10503
A1301400470000000061463OR TAGO, ANA LIZA VELARDE                               20500
A0101410300000000592198STATION & GEN MERCHANDISE                               20500
A0101412050000000697190EVENTS PRODUCTIO                                        20500
A0101412890000002747766PRODUCTS                                                20500
A0101401250021463862002LEDESMA, SANDRA                                         20500
A0101401700041316267001MARICEL BONGALOS                                        20500
A0101401090171196095001MILAGROS W. LIM                                         20500
A0101401090171201345002TIO CUISON                                              20500
A0301400660194731082088JONATHAN CORTES                                         20500
A3101400740224714475002BISCOCHO, BENEDICT PAMESA                               20500
A0801400160311380582001CHUA, PAMELA G.                                         20500
A0801400160311419412001UY, JOHN ROLAND                                         20500
A2001400290315041547001CORPORATION                                             20500
A0101402510341325995002A.E.L. MARKETING                                        20500
A0101402510341331222001ROQUE OR ROLLY BOY ROQUE                                20500
A0101402060351009359001JIANDANI, KAVITA                                        20500
A0201400890376535273002KENNETH/CLIMACO,                                        20500
A0101402770391638700001CHRISTI MICHELLE MCNELLIS                               20500
A2401400180411610828001PACHECO, MARIA T                                        20500
A1201400150421039385001MANPOWER SERVICE                                        20500
A0101408530516622804001EDNA Y. CUREG                                           20500
A2201400250561342534003OR JENNIFER L. FERRER                                   20500
A2201400250561478374010MEMBERS OF NATASHA                                      20500
A0101407720602332279002CAYCO, MARGARITA                                        20500
A1301400500684594780002CASTRO, ROSEMARIE                                       20500
A4101400260812027359001SERVICES                                                20500
A0101405070861197518001OLIMPIA C. CHAN                                         20500
A0101405070861357456002NAGUIT OR SHIELA                                        20500
B0101400150000000000204TRANS ASIA RENEWABLE ENERGY CORP.                        1605
B0101400440000000029310PERLA COMPANIA DE SEGUROS, INC.                          1602
B0101413020000000038388ASISI SYSTEM CORP.                                       1603
B0701400260000000041083MULTI-WARE ECON-SALES CORPORATION                        1602
B0301400660000000048224*****                                                    1602
B0101407270000000830460SAINT YVES FUNERAL SERVICES CO.                          1601
B0301400530000001409438GENSAN LCL TRADING, INC.                                 1602
B0101401090000003007530RICHARD G. ANG AND MANUEL CARLITO F ROUX                 1603
B0101400440161528688001POWERPHASES CONSTRUCTION SERVICES INC.                   1605
B0301400530193720243088********                                                 1605
B0101407140213033855001**********                                               1604
B0101407140213035235001**********                                               1601
B0101407140213043970001INNO BEV INC.                                            1603
B3101400160221000717001MARITIME SAVINGS BANK CORPORATION                        1601
B1001400190231300482001ORO SOLID HARDWARE, INCORPORATED                         1605
B1001400350233036049001RANTRADE INDUSTRIAL SALES CORPORATION                    1601
B0101400570281024044001CREDITNET PHILIPPINES, INC.                              1603
B6601400120314045385001SANVIC SUPERMART INCORPORATED                            1610
B0101408820333045412001LTOS EXPRESS, INC.                                       1602
B0101408790383047289001ACTUATE BUILDERS, INC.                                   1605
B0101402770391042395001TRADEQ MERCHANDISING                                     1601
B0301400820409094648001LADAGA, SHERRYL E.                                       1602
B2401400180411035164001MOMMY GINA TUNA RESOURCES (MGTR), INC.                   1610
B2401400180411040906001JOLYROB FISHING                                          1605
B2401400180411044274001******************                                       1601
B0501400170481018109002****                                                     1602
B0501400170481025398002****                                                     1601
B1901400160491027966001SALESFORCE ONE MARKETING, INC.                           1605
B0101403580511032801001NORTHCREST HIGHLAND VENTURES CORP.                       1601
B0101403450521020418001**********                                               1605
B0101407720602018981001PHIL. COLLEGE OF EMERGENCY MEDICINE                      1602
B0101404420631042671001D & G FITNESS GYM                                        1602
B0101405070861036521001VICTORIA MANSIONS INC.                                   1602
B0101405070861043213001TEKTON CONSTRUCTION CORP.                                1605
B0101405070861565051001BLAUGRANA CORPORATION                                    1602
B0101409920000000021223QUANTUM LABORATORY & DIAGNOSTIC CENTER,                 11605
B0101410690000001284431CORONADO, DONNIE JT DBU DONCOR CAR PARTS                11601
B0101400440001613500154POWERPHASES CONSTRUCTION                                11601
B0101400570281022091003ST. JOSEPH'S COLLEGE OF QUEZON CITY                     11605
B6601400120314043068001NEW ECONOMY HARDWARE AND ELECTRICAL                     11602
B0101409920000000021223INC.                                                    21600
B0101410690000001284431AND ACCESSORIES                                         21600
B0101400440001613500154SERVICES INC.                                           21600
B0101400570281022091003DEPOSIT PAYABLE                                         21600
B6601400120314043068001SUPPLY                                                  21600
B0101412890470821100608**********                                               2005
