A2801400100000000004720REYES, MYRA DBU MRC DENTAL CLIN                          0501
A0101410850000000005790OCHOA, MELONA ALBIS                                      0502
A0101407270000000043507BERZOLA, MARIA NYLIN PABILANDO                           0501
A4101400420000000120685NANCY C. ACIDO                                           0501
A0301400820000000132447BRANA, PACOMIA D.                                        0501
A0101413860000000145151**********                                               0501
A3101400450000000163540BON, JAYSON VILLENA                                      0502
A0101406750000000172989VELEZ, PALMY REPRADO                                     0501
A0101402640000000201969HELEN MILLEZA                                            0501
A0101413600000000206777BALINAS, EFREN ALIBADBARIN                               0502
A1301400340000000293685ESCOL, ROSALITA MORTEJO                                  0501
A0301400820000000316583CABALLERO, ANGELITA L.                                   0501
A0101406750000000357971LIWAG, CARINA REYES                                      0501
A0101402770000000360530MARIA ESPERANZA E. GUTIERREZ                             0501
A1301400470000000366563PEPE MENDOZA PINEDA                                      0501
A0101408110000000380016********                                                 0501
A0101405490000000444375PAULO FLORENCIO V. PE                                    0501
A0101402350000000521435SHERWIN UY CUASON                                        0501
A0101408240000000521793ROMERO, GHIE MARIN                                       0501
A0101408240000000521931TANTINGCO, JOSEPHINE QUIRAY                              0501
A0101400150000000525386BABOTT, MELITA FETALVERO                                 0501
A2601400270000000561795RHEA GLENDA S. LAYUGAN                                   0501
A0101406590000000568678MENDOZA, ARMANDO VILLAMAYOR                              0502
A0101411790000000576001DOMINGO, MARIA MIA RIVERA                                0501
A1101400120000000652631UYVICO, FELINA BORROMEO                                  0501
A0101413440000000702383RUIZ, RIZZI MAE ORTEZA                                   0501
A0101413440000000702390MACAPAGAL, VIRGILIO MANDAP                               0501
A4101400420000000710121SORIANO, DIVINA LLACER                                   0501
A0101403320000000735940MARIFE N. PALMA                                          0501
A0101401090000000772236CERTEZA, JOHN CENIDOZA                                   0501
A0101401090000000772247ALA, ELLEROSE MORCEN                                     0501
A0601400520000000786443AMISOLA, MARINA QUIAZON                                  0501
A0601400100000000786698LIM, RICKY NABLO                                         0501
A0101412630000000801432PALMA, RONALD PENALES                                    0501
A0101411080000000805754VALENTE, JOVITO SAPUNGAN                                 0501
A0101407270000000818360EMMANUEL E. CABALTIERRA                                  0501
A0101400440000000821414MARY ANTONETTE B. APIT                                   0501
A3101400870000000957724LIBRADILLA, RICHARD PATRIARCA                            0501
A0101413990000000969268LITERAL, AIKO BELTRAN                                    0501
A0101413990000000969279ALVARAN, MARGIETA SODOY                                  0501
A2001400290000000978123DEVERO, JINKY AMAGO                                      0501
A2001400290000000978134TORRES, MARIA LUZ BRAZA                                  0501
A4101400550000000981682REMULLA, DOLORES SANTIAGO                                0501
A4101400550000000981693TAN, MINALYN TENG                                        0504
A0301400820000001027810MANIMOG, JOSEPHINE M.                                    0501
A0501400170000001032153UNGOS, ROWENA ORFINADA                                   0503
A0101412890000001056182GATPANDAN, EVANGELINE CRUZ                               0501
A0501400200000001080977DOMINGUEZ, DARLENE DANDO                                 0501
A6601400120000001105844VALENCIANO, ALBERT GAJUTOS                               0501
A6601400120000001105855RUFIN, ROGELIO FORTUNO                                   0501
A0101404000000001186705DIZON, DALYN JT                                          0502
A4101400260000001198603DELOS SANTOS MARICAR DBU MDS GR                          0505
A0101405940000001209881PALCES, SUSAN CORRAL                                     0501
A0101405940000001209983BALTAR, ALEXANDER PEREZ                                  0501
A0101401700041605890001CASAPAO, RHOMMEL CASAPAO                                 0503
A0101400600071234714001**********                                               0505
A0101400440161520766084GODELINA C. AQUINO                                       0501
A0101400440161520766185FLORA S. CHUA                                            0501
A0101400440161525001082VILMA B. SOLIVEN                                         0501
A0101401090171197427002LEVINA D. ZUNIGA                                         0503
A0101400310211414144002YUZON, RICARDO CAPILIT                                   0501
A0101400310211478374049ANITA S. MARTIREZ                                        0501
A0101400310211478374091JASARENO, CARMEN EDUARTE                                 0501
A0101400310211520681001PINE, MYLYNE SINGIAN                                     0502
A0101407140213385506002**********                                               0501
A3101400450223221977001TSOUROUS, STEVEN PATRICK                                 0501
A3101400450223455809001LANCION, AUREA OR JERIC                                  0502
A3001400130230767566050OLIB-MARCHAN, ETHEL JOANNE R.                            0502
A1901400290261035674002JAR VETERINARY SERVICES                                  0503
A0101406460272079157001RUELO, ARSENIO BERGONIO                                  0502
A0101400570281419685001BIENES, CELEDONIA MATEO                                  0501
A0101400570281712287001ALMAZAN, ELIZABETH HAVANA                                0501
A1101400120313572041001YAO, MARK ALAIN GO                                       0501
A6601400120314670609002BACSAL, FELANI DY                                        0501
A2001400290315043996001STOP N' SHOP ENTERPRISE                                  0505
A0101402350321236824002********                                                 0501
A0101402350321478374038BAJARO, MELANIE                                          0502
A0101402350321671189001DELOS SANTOS, EDUARDO DORIA                              0501
A0101408820333640135001******                                                   0501
A0101402060351479109001ALMADEN, ROSALINDA CLACIO                                0502
A0201400920375609447001RAMIRO, MARIA ARCELI AVANZADO                            0501
A0201400890376511506001VENIEGAS, MARGARET ROSE CENIZA                           0501
A0101405490392459760001ANGELANNE C. VILLAFUERTE                                 0501
A5501400120410636391008CHIU, JULIA EILEEN R.                                    0501
A0101403030441241050001**********                                               0503
A0101403320471470037001JULIETA D. MALLARE                                       0501
A0101403320471633972001CRISTINA LOYOLA YSMAEL                                   0501
A0101403320471638012002CRUZ JR., NARCISO AARON BENAMER                          0503
A0101403320471787308001CRUZ JR., VIVENCIO RAMOS                                 0501
A0501400170481043466001RUSKIN MARKETING                                         0503
A0101403580511156550002SARITA S. GARRATON                                       0502
A0101403580511196754001CARMELITA E. LA O'                                       0502
A0101403580511308112001WILFREDO Z. PALAD                                        0505
A0101403580511327851001MARIETA G. DEL ROSARIO                                   0501
A0101403580511403658005PACIFICO CASTANEDA                                       0506
A0101408530516571877077OLIVERA, TAMIYA NICOLE DE VERA                           0502
A0101407720602399169001MARIA RONELLA FRANCISCO-MALLARI                          0503
A0101404260611236168001BELTRAN, CONSOLACION C.                                  0501
A0101410300663082423001LICUP, DINAH DALUSONG                                    0501
A1301400340683736423001********                                                 0502
A0101408240711398207001BARBARA ANNE A. ABROGAR                                  0502
A2801400100712701754001DALIT, MADONNA VERSOZA                                   0501
A4101400260812478374031ANGELINA P. TAN                                          0501
A4101400420814520766108ESPANOLA, MERELY C.                                      0502
A4101400420814520766110DELA CRUZ, ARMINDA E.                                    0502
A4101400420814620451001TAN, BETTY TIU                                           0502
A4101400550815043110001AAD GASOLINE STATION                                     0505
A0101404840851298552056ROSARIO GABAYERON                                        0501
A0101404840851552739001GALAPON, PATRICK ERWIN BUYAO                             0501
A0101406750852181065001MARICAR V. PANGILINAN                                    0502
A0101406750852182653002WILSON, ERLINDA JOSON                                    0502
A0101412890000000007547ROBBY S ROBLES AND IGMIDIO D                            10510
A1201400150000000034426GARINGARAO, RYAN DUMALAGAN OR                           10502
A0101412050000000043347DAVID, RANILITO DBU R. DAVID                            10502
A0601400360000000225250GUIAO, JEFFREY BONUS DBU J3A                            10501
A0601400360000000225261CAYANAN, REYNALDO MERCADO DBU                           10502
A0101405490000000355691JOSEFINA C. ALMEDA OR                                   10502
A0101414090000000399344DY, KATHLEEN CONCEPCION OR                              10501
A0101408240000000521942PULIDO, REGINA SALVE LUZURIAGA                          10502
A1001400480000000606951MANATAD, SULPICIA LARUGA OR                             10505
A0101411530000000741640ESTRELLITA VENERACION OR VICTOR                         10501
A0101412210000000977404MEIMBAN, NAPOLEON BRIAN V OR                            10501
A2001400290000000978112MARIUS WEARING APPAREL AND DRY                          10501
A4101400260000001198610RAPISTA, JOHNNY A. OR                                   10501
A0101400150061356288002FERNANDEZ, MA. EDINA T OR                               10502
A0101407270162754404001JOSEPHINE SISCAR OR                                     10502
A0101401090171787698001INGUSAN, CRISTINA TOLENTINO OR                          10501
A0101400310211051063001NEDA BALADAD OR ARCELIE AGBALOG                         10503
A1901400290261244354001QUINTIN AGUILERA LEYNES OR                              10502
A1901400290261244442007ZENAIDA CUENCA OR PRISCO CUENCA                         10502
A1901400290261321834001AIDA NINO PESIMO OR                                     10503
A0101402350321176404002GINA A. MATIAS OR                                       10502
A0101402350321179301002PABLO PEFANCO & ERLINDA PEFANCO                         10505
A0101402060351211648001REMIGIO D. MERCADO &/OR                                 10502
A0101405490392170122001LEONIDES A. SANTOS OR                                   10501
A0101407430503225389002BRIAN A. PINEDA OR                                      10501
A0101403580511026941001CECILIA NARVAEZ Y DISENOS                               10502
A0101403580511369144001ANDREW C. THAY OR                                       10502
A0101404260611151571001********                                                10504
A0101408240711292762001HERMINA H. TAGAYUN OR                                   10502
A0101412890000000007547ROBLES                                                  20500
A1201400150000000034426GARINGARAO, CARMI LYN P.                                20500
A0101412050000000043347TAILORING                                               20500
A0601400360000000225250FOODLINE JT GUIAO, JOAN                                 20500
A0601400360000000225261RMCAYANAN ENTERPRISES                                   20500
A0101405490000000355691MARIA CRISELDA C. ALMEDA                                20500
A0101414090000000399344DY, EDWIN CHUA                                          20500
A0101408240000000521942OR PULIDO, EBNARD                                       20500
A1001400480000000606951MANATAD, CHERYL L                                       20500
A0101411530000000741640EMMANUEL VENERACION                                     20500
A0101412210000000977404MEIMBAN, CAMILLE E                                      20500
A2001400290000000978112GOODS                                                   20500
A4101400260000001198610RAPISTA, PROCENTIZA V.                                  20500
A0101400150061356288002FERNANDEZ, VERNON KEITH J                               20500
A0101407270162754404001ALGIN SISCAR                                            20500
A0101401090171787698001INGUSAN, ARFINE                                         20500
A0101400310211051063001DBU VON MIGUEL SECURITY                                 20500
A1901400290261244354001BIBIANA CONCEPCION LEYNES                               20500
A1901400290261244442007OR JUAN MIGUEL CUENCA                                   20500
A1901400290261321834001NESTOR PALAYPAYON PESIMO                                20500
A0101402350321176404002DANILO M. MATIAS                                        20500
A0101402350321179301002& MA FLORINDA PEFANCO                                   20500
A0101402060351211648001JOSEFINA M. MERC                                        20500
A0101405490392170122001CONCHITA R. SANTOS                                      20500
A0101407430503225389002MA. ELENA G. ARAGON                                     20500
A0101403580511026941001INTERIOR                                                20500
A0101403580511369144001MOIRA O. THAY                                           20500
A0101404260611151571001********                                                20500
A0101408240711292762001CRIS B. TAGAYUN                                         20500
B0601400360000000025783ALSON ASIA INC.                                          1602
B0101410300000000026440GL LIGHTING ACCESS PHILS. INC.                           1601
B19014002900000000307753EN DISTRIBUTION SOLUTIONS INC.                          1605
B0101402640000000032613LORNA P. GABRIEL AND ANELYN B. RABADON                   1601
B0101401830000000033592CARITAS SALVE CREDIT COOPERATIVE                         1602
B1001400480000000133531C-ONE TRADING CORPORATION-CDO                            1605
B0101403580000000214673MEC - SHANATA                                            1610
B0101408820000000713251********                                                 1605
B0101412210000001236093MEIMBAN, CAMILLE DBU HANNAH LEA'S SALON                  1601
B0101400150061010779001DIAMOND STAR AGRO PRODUCTS, INC.                         1610
B0101400150061012993001CEU HOLDINGS CORPORATION                                 1601
B0101400600071233610002**********                                               1620
B0101400600071516450001TAN, EDNA ANDRES                                         1601
B0101401830141032826002SMPSIEU-MPP-PTGWO                                        1601
B0101400440161007221001ILA EXPRESS HAULER                                       1602
B0101407270162008343001SPECIALIZED TRADE & MARKETING, INC                       1601
B0101400310211023039001MULTIPLAST CORP.                                         1604
B0101400310211032374001GLOSSMASTERS PHILIPPINES, INC.                           1603
B0101400310211165352001LIFE RESOURCES CORP                                      1602
B3101400160221010055002CALAMBA LUMBER ENTERPRISES                               1605
B3101400450223365119002VICTOR HUGO ENERGY CORPORATION                           1601
B1901400290261027293002LIPA MEDICS INC.                                         1610
B1901400290261488594003SOUTH LUZON UROLOGY SPECIALIST, INC.                     1605
B0101402350321035671001YES PURE WATER                                           1601
B0101402350321456451001ROADSTAR MARKETING & TRUCKING, INC.                      1610
B0101408820333041843001SERVICTORY CO. LTD.                                      1602
B0101402510341051139001ULTIMATE EXPO MULTIMEDIA CO.                             1601
B0101402640361028210001GOLDEN DRAGON MOTOR SALES CORP.                          1601
B0101402640361039590001EVER BILENA COSMETICS, INC.                              1602
B0101402770391027350001STRATEGIC DISTRIBUTORS, INC.                             1610
B0101402770391035790001NEWBIG FOUR J CONSTRUCTION INC.                          1603
B0101405490392019217001SHEMA RESOURCES, INC.                                    1603
B0101403320471210231002JOSIAH'S CATERING, INC.                                  1610
B0101403580511015278001MTV REALTY CORPORATION                                   1601
B0101403580511015363001MILLENNIUM ERECTORS CORPORATION                          1610
B0101403580511515198001ATMA INTERNATIONAL CORPORATION                           1601
B0101403450521778076001**********                                               1601
B2201400250561047892001PAGASA PHILIPPINES LENDING COMPANY INC.                  1605
B0101404420631405133001*****                                                    1602
B2801400100712021648002BIG IRON TRADING AND DEVELOPMENT INC.                    1605
B0601400230891019728001FORTUNE HONGKONG SEAFOOD  RESTAURANT                     1605
B0101412890000000006971D'CREATIVE CONCEPT MARKETING AND EVENTS                 11601
B3801400170000000018788MINDORO PPA EMPLOYEES MULTI-PURPOSE                     11601
B5001400170000000169813LARGO, GERALDINE HASIL AND PONCE,                       11601
B3101400450223034070001VILLA ESCUDERO PLANTATIONS AND                          11601
B0101402350321006894003VITALEZ COMPOUND HOMEOWNERS ASSOCIATION                 11602
B0101403320471041443001CUISSENTIALS FOOD & BEVERAGE SERVICES                   11610
B0101404000551047775001BISQUERA, A DBU TOPMINDS GLOBAL                         11601
B0101412890000000006971CO. INC.                                                21600
B3801400170000000018788COOPERATIVE                                             21600
B5001400170000000169813RECILMA NISNISAN                                        21600
B3101400450223034070001RESORTS INC.                                            21600
B0101402350321006894003INC.                                                    21600
B0101403320471041443001CORPORATION                                             21600
B0101404000551047775001MARKETING                                               21600
