F0101408240711078794001ALCANTARA, LELANIE VERONICA                             12506CKO
F0101408240711078794001FACTOR JT                                               22500CKO
F0101409890000000049136ENROE MARKETING CORPORATION                              2601CKR
F3101400450223024477001CARE LINE ENTERPRISES                                    2601CKR
F0101403290461029738001EZRA GENERAL SERVICES INC.                               2605CKR
F0101409500000000217109ASPEN CONSTRUCTION &                                    12602CKR
F0101403580511042256001HEALTHPLUS DIAGNOSTIC CLINIC                            12605CKR
F0101409500000000217109DEVELOPMENT CORP                                        22600CKR
F0101403580511042256001INC.                                                    22600CKR
