F0801400160311368868001CAROLINE Y. TIU OR EDGAR C. TIU                          2504CKO
F0101404000551420036001LEUENBERGER, MA. PILAR LAGDAMEO                          2512CKO
F0201400180000000086913AGUILON JR., ROMEO CANETE DBU                           12505CKO
F0101408240711199358003MARCOSA  DAYAO OR                                       12502CKO
F4101400420814483470001PARAS, MANUEL MANELA OR                                 12503CKO
F0201400180000000086913A-BUILD CONSTRUCTION                                    22500CKO
F0101408240711199358003LEONARDO DAYAO                                          22500CKO
F4101400420814483470001PARAS, MA. LOURDES                                      22500CKO
F0101403290000000542501VERAFEDE INC.                                            2601CKR
F0201400180181037108002SAN REMIGIO TRUCKING SERVICES                            2603CKR
F0101408400394034368007W HYDROCOLLOIDS, INC.                                    2604CKR
F0101405940512048673001STUDIO 58 LAB 10, INC.                                   2605CKR
F3301400120581014889002B & J COMPUTER & ELECTRONIC SERVICE                      2601CKO
