A3101400160000000006486SONIA D SY                                               0501
A0101410720000000008642MC BUILT ENTERPRISES                                     0501
A0101410720000000008671ARANAS, PAUL ANTHONY VALENTON                            0501
A0301400820000000024860HERNAN, PESARLITO T.                                     0502
A0101413310000000039945REYTAS, RONELLA WAGE                                     0501
A0301400820000000045543HONORICO, LYNETH I.                                      0501
A1301400760000000050660RODEL G. HIZON                                           0502
A0101413020000000057003**********                                               0501
A0101401250000000057134AMISOLA, CHARISSA LAGMAN                                 0501
A0301400530000000065832PERIAS, FE                                               0501
A0301400530000000066000BORDIOS JR., HERMES S.                                   0502
A0201400760000000222955LABANG, MARIA NORMA PALARION                             0502
A0101410720000000234791VALENTON, BEATRIZ ORBIGOSO                               0501
A0101408240000000347551TAN, JUAN MIGUEL PAEZ                                    0501
A0101405490000000355571MA ANASTACIA S. DELA MERCED                              0501
A0101405650000000448322NESTOR A. CABASAL                                        0501
A0101406330000000451370VILLARANTE, MARIA LUZ PELAYO                             0502
A0101405650000000525893BANTIGUE, AMPARO ANISCO                                  0502
A0101406590000000568963LAZARO, FRANCES GRACE MENDOZA                            0501
A1901400320000000679290CRISTINA FE GARCIA TAJONERA                              0501
A0101413440000000702112JAMINIC ENTERPRISES                                      0502
A0101410690000000711077PERLAS, JOVIE LARIOSA                                    0501
A0101403320000000736061PANOGA, LYNN NOCUM                                       0501
A0101411080000000805878******                                                   0501
A0101400150000000808060DEE, GERARD TIONG                                        0501
A0301400820000000814099SUMUGAT, ROSITANIA S.                                    0502
A0101411110000000842557**********                                               0501
A0101413310000000864039CERDA, CELIA BOLADO                                      0501
A0101401830000000865152IGNACIO, ZEUS DULAY                                      0501
A0101413020000000880484***************                                          0501
A0101401700000000890568**********                                               0501
A0101401700000000890579D4B AUTO PARTS SUPPLY                                    0505
A1001400350000000922190RIVERA, JACKIE LOU VILLAROYA                             0501
A0101401700000000979273**********                                               0501
A0301400530000001009830********                                                 0504
A0301400530000001010022PALMERO, ELMAR C.                                        0501
A0301400530000001010033YABUT, ELVIS GONZALES                                    0501
A0101412340000001017849MASUBAY, MA. CHRISTINA B.                                0501
A0101405810000001021281**********                                               0503
A0101410140000001074806MATURGO, THERESA RUIZ                                    0501
A0101404000000001186892HALAGAO, ROLY RANGPAS                                    0501
A0101406330000001235136ROBELO, IRMA MOYA                                        0501
A1301400470000001299141ELIZABETH S. LOPEZ                                       0501
A0101404840000001312543CERBITO, SALVACION                                       0501
A0101412920000001313660DUCOT, JAMES AVILA                                       0501
A0101411820000001356452PERECLEO D. MARTINEZ                                     0501
A6601400120000001370718CABAEL, ALFIE TANO                                       0501
A0101412630000001485218DESIDERIO, JOHNSER LAWAS                                 0501
A1101400120000001547304LOBRIGO, SONIA QUINO                                     0501
A0301400820000001554894ESTREMOS, VERONICA T.                                    0502
A0101402480000001562152********                                                 0501
A0101411240000001563322CHUA, MARIVIC CHING                                      0501
A0101411240000001563402xxxxxxxxxxxxx                                            0501
A0101410720000001602233GARCIA, MARY ANN CRUZ                                    0501
A0101410720000001602244CANON, TEODORO MARASIGAN                                 0501
A0101403320000001646880*********                                                0501
A0601400230000001687210ESTACIO, CONRADO REYES                                   0501
A0301400790000001776190JULAILY, ROMEO AROBO                                     0501
A1401400110000001806862TANEDO, AMELITA MANZANILLO                               0501
A1401400110000001806873BUERA, ALICIA NARVAEZ                                    0501
A1401400110000001806884ABEJA, HIYAS ROXAS                                       0501
A0101413860000001886913WU, XIAO QIU                                             0501
A0101402480000001927820CRUZ, JOCELYN ASUFRA                                     0501
A0101402480000001927842*********                                                0501
A2001400290000002371104ONDANGAN, CONRAD GUMACAY                                 0501
A0101401700041043644001NOXIOUS AUTO PARTS SUPPLY                                0510
A0101405810072319037001**********                                               0501
A0101405810072400768001MONTIEL, MARILYN ESQUERRA                                0501
A0101405810072478374014**********                                               0501
A0601400100081251829001FELICIANO, EREDITO OR ROSA ANA                           0502
A0601400360083528303002SUAREZ, RAMON JOSE FLORES                                0504
A0101407270162333006012ROSEMARY B. CALINA                                       0501
A0101401090171196120003*************                                            0502
A0101401090171362096001ROSE ANN H. BULAN                                        0503
A0101401090171430122001EVANGELINE D. PANIZAL                                    0501
A0301400530193504844111********                                                 0503
A0301400660194683611168EVANGELISTA, KRISOSTOMO RYAN LI                          0501
A0101407140213377247001**********                                               0503
A0101407140213385506002**********                                               0501
A3101400160221478374057SABRINA N JORDA                                          0501
A1001400350233478374006IBANEZ, ELSA                                             0501
A1301400760253483852001LUCHIE G. GONZALES                                       0502
A0101401670271475286001ALBERNINA PASCUAL-LOPEZ                                  0501
A0101400570281186611001EMERITA R. DOMINGO                                       0501
A0501400200292500200002BALLESTA, IMELDA QUIMO                                   0501
A0501400200292622096001BAUTISTA, SIMEON LAGASCA                                 0501
A1101400120313478374101ROBINO, ESTRELLA O.                                      0501
A3401400280318742468001BELTRAN, NAPOLEON LOPEZ                                  0502
A0101402480331218929001**********                                               0510
A0101402480331520766109DOLOSA, GWEN DE LOU Y.                                   0501
A0101402480331532602001***************                                          0502
A0101408820333478374059********                                                 0501
A0101402060351211723001MELINDA V. MEMBREBE                                      0501
A0101402060351217440014FORTUNATO &/OR ESTRELLA ILAYA                            0501
A0101402060351765145001JURADO, RICARDO CAASI                                    0501
A0101409050352645570003MYRNA P. CUASAY                                          0501
A0201400760374260158002PINEDA, ALFREDO B.                                       0501
A0201400920375478374018BUNADO, MARIE ANN BELLO                                  0501
A0201400920375715166001ELOPRE, HERMINIGILDO BALNIG                              0503
A0101408370382391120001DR. SALVADOR M. EUSTAQUIO                                0502
A0101408370382391673001DR. JOCELYN V. BONDOC                                    0510
A5501400120410283898001GARCIA, JOSIE OR GERARDO                                 0510
A2401400180411478374032ROSANNA M. CANTERO                                       0501
A2401400180411637974001MANANGQUIL, JOHN RAY BETITA  JT                          0510
A0101403030441281777001**********                                               0502
A0101403030441380539001**********                                               0503
A0101403320471478374016SONIA SALANIO                                            0501
A0101406330472478374020SHERLY MONDELO                                           0502
A0101407430503478374012ANALIE YPANTO                                            0501
A0101407720602347807001ARADA, MARIE EUGENIE ALTAR                               0501
A0101407720602390297001PREYSLER, MARIVIC G.                                     0501
A0101404420631567317001*****                                                    0502
A0101410720653039987001BROTHERS3 GASOLINE STATION                               0501
A0101410720653199035002*****                                                    0501
A0101410720653409732001ATIENZA, OLIVA MAILA ANYAYAHAN                           0501
A0101410720653478374051MARIO MONTOJO                                            0501
A0101410720653478374054CRISTINA CALDERON                                        0501
A0101410720653505843001LIMONGCO, GRACE POLO                                     0501
A0101410720653575025001CRISTINA G. CUEVAS                                       0503
A0101410720653694384001SAMBRANO II, SANTIAGO GARCIA                             0501
A0101411950680478374001PICCIO, JAOFER IBANEZ                                    0501
A0101407560686434083001EDRICH MARKETING INC.                                    0510
A1701400230693478374013ZENAIDA M. FERRERAS                                      0502
A1701400230693478374044CECILIA CORRALES                                         0501
A4101400390813478374014ELIZABETH V. EVAL                                        0501
A4101400390813478374021JERESANO, ASUNCION L.                                    0501
A4101400420814520766110DELA CRUZ, ARMINDA E.                                    0502
A0101404840851520766070ELSA NAVARRO                                             0502
A0101404840851520766154CORAZON ONIA                                             0501
A0101404840851699389001LOYOLA, LUCILE TEJANO                                    0501
A0101406750852084318001SIBUG, GENEATH PRUDENCIANO                               0501
A2201400250000000141197MEMBERS OF NATASHA (SHOECAT INC                         10501
A3101400160000000429156SOSMENA, JONATHAN A OR                                  10501
A0101403320000000452475LIZ HAZEL C. GALAPON OR                                 10503
A0101413440000000570472GALIT, MARIA ROSARIO U. DBU                             10501
A4101400420000000709984CLORINA, LIBERTY DBU                                    10501
A0101404420000000866451MANAPAT SR., JOICE EDISON                               10501
A1001400350000000922207MAXIMO A. UY OR                                         10502
A0101409920000000998569MEMBERS OF NATASHA (SHOECAT INC                         10501
A0101409920000000998661MEMBERS OF NATASHA (SHOECAT INC                         10501
A0101405810000001021172PUA, C DBU MCK SCHOOL & OFFICE                          10502
A0101405490000001092524MA ANASTACIA S. DELA MERCED OR                          10502
A1301400470000001299032ARNOLD PASCUAL OR JAYSON CANDEL                         10502
A2001400290000001301244TEMBLOR SR., FLORIDO                                    10505
A6601400120000001370729DURITAN, NOLI OR                                        10501
A0301400530000001409609PABROQUIZ, ASER DBU ASHLEE                              10503
A2201400250000001932361MEMBERS OF NATASHA                                      10501
A0101408400000001952883GABRIEL TAILORING AND GENERAL                           10501
A0101401090171195906001DR. IRWIN V. RIVERA OR                                  10506
A0301400530193704187088MERCED, TERESITA S. OR                                  10501
A0101410720210570600001DELA CRUZ, ASSHLEY UY DBU                               10502
A0101406620273444658001GINA L. JULIANO OR                                      10502
A0201400760374594316001DY II, MAXIMINO OUANO OR                                10502
A2201400250561400019001GLOTHELDA S. RIVERA                                     10502
A2201400250561478374038ZENAIDA B. DELA CRUZ                                    10501
A0101407720602166527002ALIPIO ABAD JR. OR ADORACION                            10505
A0101407720602298846006OCAMPO, LAMBERTO U OR                                   10503
A0101407720602298846010OCAMPO, LAMBERTO UN OR                                  10502
A0101410720653362919003DE GUZMAN, CYNTHIA C.                                   10501
A4101400420814635620001CORPUZ, ELMER AGSALDA  OR                               10501
A4101400550815693134001LLANES, TUDOR HERNANDEZ OR                              10501
A2201400250000000141197MICHELLE C. VILLAMER                                    20500
A3101400160000000429156SOSMENA, AILEEN A                                       20500
A0101403320000000452475ROMMERSON G. GALAPON                                    20500
A0101413440000000570472GOODLAND REALTY                                         20500
A4101400420000000709984YABIL PRINT & SE                                        20500
A0101404420000000866451DBU JHONNE-DALE EATERY                                  20500
A1001400350000000922207JEORGE HERNANITO TEE JR.                                20500
A0101409920000000998569PEDROSA, JULIE                                          20500
A0101409920000000998661CALORA, DOMINGA                                         20500
A0101405810000001021172SUPPLIES                                                20500
A0101405490000001092524RAYMOND ANTHONY DAYLEG                                  20500
A1301400470000001299032ARIA OR ROCKY HIPOLITO                                  20500
A2001400290000001301244VILLAGONZALO                                            20500
A6601400120000001370729ALCOBER, JEANETTE                                       20500
A0301400530000001409609CONSTRUCTION AND ALLIED                                 20500
A2201400250000001932361EVANGELINE T. SAPTANG                                   20500
A0101408400000001952883MERCHANDISE                                             20500
A0101401090171195906001DR. CLARA R. RIVERA                                     20500
A0301400530193704187088MERCED, PETER V.                                        20500
A0101410720210570600001JAMINIC ENTERPRISES                                     20500
A0101406620273444658001NOLY P. JULIANO                                         20500
A0201400760374594316001MINOZA, JEFFREY                                         20500
A2201400250561400019001OR RONNIE F. RIVERA                                     20500
A2201400250561478374038MEMBERS OF NATASHA                                      20500
A0101407720602166527002OR ANABELLE ABAD                                        20500
A0101407720602298846006SARMIENTO, ANNABELLE                                    20500
A0101407720602298846010SARMIENTO, ANNABELLE                                    20500
A0101410720653362919003OR DE GUZMAN, ROBERTO J.                                20500
A4101400420814635620001CORPUZ, AMELITA                                         20500
A4101400550815693134001LLANES, PRESCILL                                        20500
B0101407270000000010180COUNTRY CHATEAU HOTELIERS CORPORATION                    1602
B0101405810000000016840CHESTERTON INDUSTRIAL CORPORATION                        1601
B0101404420000000025852SPEEDWEALTH COMMERCIAL CO.                               1610
B0101410720000000029850NORDHOFF ENTERPRISES INCORPORATED                        1601
B0301400660000000195135DAVAO CORNER PLAS CORPORATION                            1603
B0101411820000000477429PROGRESSIVE IDEAS, INC.                                  1603
B0101407430000001213012F2 LOGISTICS PHILIPPINES, INC.                           1601
B0101407430000001213034BORDERTRADE MANAGEMENT INC.                              1603
B0301400530000001409405NEO EMPIRE HOLDINGS CORPORATION                          1606
B0101402480000001562027************                                             1610
B0101401250021040371001ENHANCE CARGO MOVERS CORP.                               1610
B0101400150061044907001XYBERSOLUTIONS INC.                                      1605
B0101405810072030630001***************                                          1603
B0101405810072361051001**********                                               1602
B0601400100081025333001TRUE NORTH MANUFACTURING SERVICES CORP.                  1610
B0101407270162019525001CASTFOOD CORPORATION                                     1602
B0301400530193043821088UNI-WIDE METALCRAFT & SERVICES                           1602
B0301400530193046479001MERLIAH CORPORATION                                      1601
B0301400530193088888088TAGUM FIESTA APPLIANCE, INC.                             1606
B0101410720210764716001J.C.T. EZ LOAN CORPORATION                               1602
B0101407140213007555001CORNERSTONE INTERNATIONAL PHILS.                         1606
B0101407140213035235001**********                                               1602
B3101400160221020497001AGUA CALIENTE HOT SPRING RESORT                          1603
B0101401670271684108001UP ABOVE THE SKYE, INC.                                  1605
B0101406620273034224002JDS CONSTRUCTION PHILS., INC.                            1601
B0101406620273046907001RS CONCEPTS, INC.                                        1610
B1101400120313044876001J.H. PAJARA CONSTRUCTION CORPORATION                     1601
B2001400290315528399001**********                                               1601
B0101402480331009994001GREAT WOOD CORPORATION                                   1605
B0101402480331010240001BOUNTY FARMS INC.                                        1610
B0101402480331030127001NITO SEIKI MANUFACTURING CORPORATION                     1601
B0101402480331033229019TGP DRUGSTORE                                            1603
B0101402480331036207002MYGENERICS PHARMACY INC.                                 1603
B0101402480331036207003MYGENERICS PHARMACY INC                                  1603
B0101402480331541505009PHARMAGENERICS, INC.                                     1603
B0101402480331541505014PHARMAGENERICS, INC.                                     1603
B0101402480331748556002QUALIGEN PHARMACY CORP.                                  1603
B0101402510341031237001VIACAREM RESTAURANTS                                     1602
B0101409050352031160001CAPITAL INDUSTRIES, INC.                                 1605
B0101406330472021511001ASSOCIATED WIRE CORP. OF THE PHILS.                      1610
B0101406330472028479001TRU-SERV MARKETING CORPORATION                           1602
B0501400170481018109002****                                                     1602
B0101407430503040319001BAYVIEW MANAGEMENT CONSULTANTS INC.                      1603
B0101408530516005188001SEARCHERS & STAFFERS CORP.                               1605
B0101403450521022132002AIRTIGHT TECHNICAL COMPONENTS MKTG.                      1601
B0101404000551019197001MAA GENERAL ASSURANCE PHILS., INC                        1610
B2201400250561014327001CAT LABOR UNION-NATL. LABOR UNION                        1606
B0101410720653038296001CREATIVE DESIGNLABS INC.                                 1602
B0101410720653615648001ASE I.T. HUBLINX INC.                                    1610
B0101408240711419112001POSITION 1 INC.                                          1601
B4101400260812024721001DORMBUILT, INC.                                          1603
B1001400350000000244233CELLONA, JOSETTE MERCEDES AND                           11601
B3101400870000000957622BALITE, G DBU BGT FOOD ESSENTIAL                        11601
B0301400530193037483168TAGUM AB MARKETING BUY & SELL                           11605
B1001400350233041564001INFORMATICS COMPUTER INSTITUTE CAG. DE                  11603
B1001400350000000244233GIMENES, GARETH                                         21600
B3101400870000000957622CATERING SRVS                                           21600
B0301400530193037483168AGRI PRODUCTS                                           21600
B1001400350233041564001ORO CENTER, INC.                                        21600
B0101403320471821100608**********                                               2003
