 2201400250000001545513                                                           00
A0101410560000000020151JERLYN B. SAMSON                                         0502
A0101412340000000031103MARIE R. DELA VEGA                                       0501
A5001400170000000044982ANTONIO, JORDANNE CHAN                                   0502
A0101405940000000061583CASAS, JOHN VICTOR ABEJURO                               0501
A1001400190000000124876JENNY CALDERON                                           0501
A0301400660000000194854TANIO, DANILO CALUNSAG                                   0501
A1301400500000000213185ESCOPETE JR., ORLANDO SANTOS                             0501
A1301400500000000213378GONZALES, JEAN NICOLAS                                   0501
A1901400160000000243661FRANCIS VISAYA VILLAPANDO                                0501
A0601400520000000398363YBANEZ, MA. ROMA MERCADO                                 0501
A0101413730000000469114*****************                                        0501
A1201400150000000473552QUINTO, D. DBU TRIPLE EIGHT HOM                          0501
A0101405650000000525940VIRAY, GENEVIE CRUZ                                      0501
A0101408530000000594149SILVESTRE, AGNES CERVANTES                               0501
A1901400320000000679272MARIA KATHLEEN GARCIA AQUINO                             0501
A0101404840000000683541ELSA G. TAN                                              0501
A0101404840000000683574NELIA L. BABILA                                          0502
A0101413440000000702292GUTIERREZ, AGNES DIMAANDAL                               0501
A0101413990000000726590DE JUAN, MARGIE BALLESTEROS                              0501
A0101411530000000741695KIERULF, VICTOR DE LARA                                  0501
A0101400150000000807323ESCALANTE, WILSON RAZ                                    0501
A0101408820000000840620******                                                   0501
A0101409920000000858000ANG, SHERWIN TAGORDA                                     0501
A0101413860000000859036VERGARA, EDUARDO FRANCISCO                               0501
A0101411370000000903542DORENDEZ, HELEN TALAMPAS                                 0501
A0101411370000000903553CASEL, LILIBETH DE BELEN                                 0501
A0101411370000000903560PAZ, JULIET SINGABOL                                     0501
A2801400100000000906172DANAN, PETER DALE AMEMITA                                0501
A1301400210000000915822VIVIAN N DE JESUS                                        0501
A0101410300000000919502SISON, JOSE VICENTE GALSIM                               0501
A3001400130000000931173URIARTE, MICHAEL IAN REDELOSA                            0502
A4101400550000000981802ATIENZA'S COPY CENTER                                    0501
A0101408400000001035556TRINIDAD, ZORINA GRACIA MERCADO                          0501
A1001400480000001054842BARIL, JULIE MADRONERO                                   0501
A1001400480000001054853SUMUGAT, JENNIFER DALIS                                  0501
A6601400120000001065281ECHALUCE, RAFAEL OR MYRNA                                0502
A0101413310000001073814BULTRON, JOSIE JORES                                     0501
A0101413310000001073825ABAD, ROBERTO MARIANO D.                                 0501
A0101410140000001074748GUTIERREZ, LEILANIE AUTENCIO                             0501
A1401400110000001095892**************                                           0501
A3101400450000001104112SY, MARVIN DAANTOS                                       0501
A5501400120000001121680REYES, REYCEL AGREGADO                                   0501
A5501400120000001121884AUSTRIA, AILEEN FRANCISCO                                0501
A5501400120000001121895CAHILIG, ANN JUNE COLUMNA                                0501
A0101412500000001146747DELA CRUZ, RITA RAVELO                                   0504
A0101412500000001146792BELLEZA, JOY DELA CRUZ                                   0501
A0301400820000001185780RUFEROS, ROY KENNETH D.                                  0501
A0101413990000001202424PATDU, MARISSA CRUZ                                      0501
A0101408530000001268560GUILBERT P. SAMPEDRO                                     0502
A3001400130000001271589BAGASBAS, GINA CATUBURAN                                 0501
A1301400470000001299083NESTOR S. CAIMOY JR.                                     0501
A0601400520000001349639CORTEZ III, CARLOS RIVERA                                0501
A0101405650000001377259DAVID, EVITA CAMBE                                       0501
A0101413600000001430620JULIO CESAR REYES AGUILUZ                                0501
A0101400440000001439896LIBATIQUE, LOURJEAN MANLOGON                             0501
A0101400440000001439910JESSIERELL F. NACILLA                                    0501
A0601400100000001442853JOVEN, SAM FRANCIS PINEDA                                0501
A0101401670000001598452SARMIENTO, LOURDES GARCIA                                0503
A4101400550000001622537VILLALVA, ROSEL PERIN                                    0501
A4101400550000001622548MARUAL, ROIE VINCENT ESPIRITU                            0501
A0101400570000001681734QUILIT, ABIGAIL BONIFACIO                                0501
A3401400280000001723360RICHELLE V. ALMOMGUERA                                   0501
A3401400280000001723400DEGALA, IVY LIN BARROMA                                  0501
A0101404260000001725162CALO, ENRIQUITA                                          0502
A4101400390000001732510DANSECO, JEMARIE DIAMANTE                                0501
A4101400390000001732532CAFUIR, MA. JESUSA FUERTE                                0501
A0101403450000001769673************                                             0501
A4101400260000001783519RETONI, LUZ AGRAVANTE                                    0501
A0101408400000001835229APUYAN, MARY JANE AQUINO                                 0501
A0101401250021185179001CABRERA, ZENAIDA SANTOS                                  0501
A0101401700041360888001ANNEE SAIDA T. ESCLETO                                   0504
A0101401700041478374018ROSITA LIMBO BASSIG                                      0502
A0101400150061666405001POBLETE, JOYCE LERONA                                    0501
A0101400150061777201002SANTOS, ALEXANDER ARAGON                                 0501
A0101400600071720668001*******                                                  0502
A0101400730111478374017VEBELITA G. GALLETO                                      0502
A0101400730111478374179MARIA LUISA S. TRUJILLO                                  0501
A0101400730111561049001EMMANUEL G CUEVAS                                        0501
A0101400440161039572045DOVIE T. JERMIA                                          0502
A0101400440161525001103OFELIA B. OLERMO                                         0501
A0101401090171200588001BOBBY S. PARENO                                          0501
A0101407140213035054001**********                                               0502
A0101407140213380988001**********                                               0501
A3001400130230478374001MARY JEAN B. CASAS                                       0504
A1001400190231478374041DIMAKUTA, MARIVIC P.                                     0501
A1001400190231520766122EPOC, LUZMIN LOU CAGUIL                                  0502
A1301400470252430515002**********                                               0501
A6601400120314646693001LOPEZ, LUZ PADILLA                                       0501
A6601400120314770822001SY JR., LARRY OR SY, WILLIAM                             0504
A3401400280318751983001PATRICIO, JOYCELYN LACRETE                               0503
A0101405650322041571001EUGENE D. MANIQUIZ                                       0501
A0101408820333042004001********                                                 0502
A0101408820333343011001REYNALDO F. CLEMENTE                                     0502
A0101402510341397178001RUTH JAVIER REYES                                        0501
A0101402770391478374023MA. LUISA L. FELIPE                                      0501
A0101408950396754657001ALTONAGA, TIMOTHY JIM SANTOS                             0501
A2401400180411044689001DIANRO ENTERPRISES                                       0502
A2401400180411272650001LUCIA T. SEVALLA                                         0501
A2401400180411442038001BUENAFE, ANALYN BRINOSA                                  0501
A2401400180411458238001ANIMAS, JULIUS PETER CABATO                              0502
A2401400180411478374042JOYCE R. GALLEON                                         0501
A2401400180411744426001ENGCONG, JAY CUEVAS                                      0501
A1201400150421299356004LARANANG, BENITA CRISELDA MANON                          0505
A0101403320471405121001ROSIE SABADO MADULID                                     0501
A0101410140475478374010PELAEZ, BEATRIZ GUEVARRA                                 0501
A0501400170481318529001AMELITA C. LIMJUICO                                      0501
A1901400160491247764001MARITES E RAMIREZ                                        0501
A1901400160491476162001GINA A PELESMINA                                         0501
A1401400110492395854001MERCEDES C. BARCELONA                                    0501
A1401400110492519846001ABASTILLAS, ROMMEL HILL                                  0501
A0101406880513193367003GAW, BENITO CO                                           0501
A0101408530516486562001DR. REZA M. ARABPOUR                                     0504
A0101403450521319825001**********                                               0501
A0101404000551371853001AVILA, MERCEDITA CUNNANAN                                0501
A0101407720602330685002VALLE JR., DEMETRIO LIM                                  0501
A0101407720602339048001CABRERA, ALFREDO DE JESUS                                0501
A0101407720602396498002CAPISTRANO, MA. EVELYN TORRES                            0501
A0101404260611773410001**********                                               0501
A0101404420631478374076BERNADETH B. MIRANDA                                     0501
A0101404420631478374136LAILABETH T. ROSIN                                       0502
A0101404420631478374195ANA A. EMPERIO                                           0501
A0101404420631764043001MARVELUZ DELOS REYES CAPULI                              0501
A1301400340683736920001ATANACIO, GEMMALYN SORIANO                               0502
A1301400500684690469001MARCELINO, GILLYN DE GUZMAN                              0501
A0101407560686281007002********                                                 0502
A0101407560686339091002EVANGELINA C. LACAY                                      0502
A0101407560686478374061WILMA SABALBORO                                          0501
A0101407560686615696002GUTIERREZ JR., VENERANDO GALPO                           0504
A0101408240711417025001LUPOT, JULIUS CALACAT                                    0502
A4101400260812035863001GREAT CAVITENO TRADING                                   0502
A4101400260812212269001MA. GINA R. AMANCIO                                      0501
A4101400260812574500001LEONCIO P. LIWANAG                                       0502
A4101400420814298552007NOEMI S. GARCIA                                          0502
A4101400420814478374122AGUILO, RODENA T.                                        0501
A4101400420814478374171MICHAEL G. RIBOT                                         0501
A4101400420814520766098COLLADO, JONNALENE H.                                    0501
A4101400420814520766119OMNOS, NOVA DESCARTIN                                    0501
A0101404840851046725013MARY JANE A. DE GUIA                                     0501
A0101404840851298552056ROSARIO GABAYERON                                        0501
A0101404840851520766008ERLINDA G. MATOCINOS                                     0507
A0101406750852381214002METTA ABBY V. FORMIENTO                                  0501
A0601400230891479259001AMELIA M. ARCE                                           0502
A0101409210000000043763ENDOZO, ANICIA Q. OR                                    10502
A0101413990000000631883NEBRIA, ESTER PUJOL OR                                  10503
A0101403320000000736101ANGELITO S. FERNANDO OR                                 10501
A0101408240000001038788MAGAT, GRACE JOVEN OR                                   10501
A0301400820000001185622DOMINGO, MARIA ROSELA P. OR                             10503
A1301400470000001299072VAL PALILIO OR MAYUMI PALILIO                           10501
A0101400440000001439903LITTLE GIANT CREATIVE DESIGNS                           10501
A2201400250000001545502GERALDINE T. CACHERO                                    10501
A4101400550000001622559PRINCE FERDINAND SHUTTLE                                10501
A0101401700041469045001CHUA, JENNIFER GO OR                                    10501
A0101401090171037662001APS EVENT SAFETY AND                                    10502
A3101400450223019912001LAGUNA HEALTH SERVICES                                  10510
A3101400740224714475002BISCOCHO, GEMMA SAYSON OR                               10501
A1301400470252507995001VERA A. BORROMEO AND                                    10502
A0101400570281370913001MARY ANN P. DE LOS REYES OR                             10501
A6601400120314593270001DIAZ, REO OR MARIEGIL OR                                10505
A3401400280318353803001JOCELYN S. MOSQUETE OR ROMMEL                           10501
A0101408400394506485001EBAJAN, ALEX BERGADO                                    10501
A2401400180411478374061JUNRES AGAD OR                                          10501
A0501400170481253600001NARDING C. CAMERO OR                                    10502
A1901400160491494343001RAINIER C UNTALAN OR                                    10503
A2201400250561391262001REMOLANA, REYNALDO HINGCO                               10501
A2201400250561478374059NELY B. TAN                                             10501
A0101407720602210403001JOSEPHINE QUINTOS-APOSTOL OR                            10502
A0101404260611005749001ROCKLAND PROTECTION &                                   10503
A4101400260812509912001AMOROTO, ROSELYN MACABENTA JT                           10501
A4101400420814727886002FLORES, NESTORIO CAPATAR OR                             10501
A0101406750852093574001CUMARA, CHRISTO RENE MASUCASI                           10501
A0101406750852774013001MARK JEROME SAQUING OR MARY ANN                         10501
A0601400230891032012001AQUA SPARKLETTS BY CARLYN                               10506
A0101409210000000043763ENDOZO, MELECIO                                         20500
A0101413990000000631883NEBRIA, NATHANIE CIRUNAY                                20500
A0101403320000000736101MELDY M. FERNANDO                                       20500
A0101408240000001038788MAGAT, JAMES TORRES                                     20500
A0301400820000001185622DOMINGO, RITA P.                                        20500
A1301400470000001299072OR ARVIN OR GLENN PALILIO                               20500
A0101400440000001439903& SERVICES                                              20500
A2201400250000001545502IWSPC EMPLOYEE                                          20500
A4101400550000001622559SERVICE                                                 20500
A0101401700041469045001GO, JANICE YU                                           20500
A0101401090171037662001SECURITY SERVICE                                        20500
A3101400450223019912001COOPERATIVE                                             20500
A3101400740224714475002BISCOCHO, BENEDICT PAMESA                               20500
A1301400470252507995001MARY GRACE B. SANTOS                                    20500
A0101400570281370913001LUVIE A. DE LOS REYES                                   20500
A6601400120314593270001REMEDIOS                                                20500
A3401400280318353803001C. MOSQUETE                                             20500
A0101408400394506485001OR EBAJAN, MERCE                                        20500
A2401400180411478374061NORMELITA BLANCO                                        20500
A0501400170481253600001JULIE C. CAMERO                                         20500
A1901400160491494343001RELYN M UNTALAN                                         20500
A2201400250561391262001OR DIGNA S. REMO                                        20500
A2201400250561478374059MEMBERS OF NATASHA                                      20500
A0101407720602210403001CARLOS FAUSTINO APOSTOL                                 20500
A0101404260611005749001INVESTIGATION AG                                        20500
A4101400260812509912001AMOROTO, WINIFREDO M                                    20500
A4101400420814727886002FLORES, MA. SOCORRO                                     20500
A0101406750852093574001OR ANNIE T. CUMARA                                      20500
A0101406750852774013001SAQUING                                                 20500
A0601400230891032012001NICOLE ALKALINE                                         20500
B0101400730000000002580DALCA CORPORATION                                        1601
B1901400160000000007423SUPER GT MOTOR SALES AND SERVICES INC.                   1602
B0101410300000000026428INTERIOR ASIA CONSTRUCTION SUPPLIES                      1601
B0101412500000000041670MOLDEX REALTY INC.                                       1603
B0101412500000000041692MOLDEX PRODUCTS, INC                                     1601
B0101407140000000266186EBU PROPERTY HOLDINGS, INC.                              1602
B0101409920000000437001BELTRAN, RA DBU MJR2 PRINTING SERVICES                   1601
B0101404000000000461005FLORES, JOEL M DBU JOF TRADING                           1601
B0101404260000000550270SAMACO, VIRGINIA FAVIS                                   1601
B0101405650000000772674GF AND PARTNERS, ARCHITECTS, CO.                         1601
B0301400820000001554792VIC IMPERIAL APPLIANCE CORP.                             1601
B0101401700041007687001PHIL. DENTISTS DEVELOPMENT COOPERATIVE                   1605
B0101401700041189031003JONATHAN C. TUBLE                                        1610
B0101411080042041218001******                                                   1601
B0101411080042041928001******                                                   1601
B0101400150061017496001**********                                               1601
B0601400100081671926001BIOTECH SYSTEMS TRADING CORPORATION                      1602
B0101400730111015420002FELANER REALTY DEVELOPMENT CORPORATION                   1605
B0101401090171035527001KELRED TRAVEL & TOURS, INC.                              1602
B3101400160221224862001JOYME CONSTRUCTION SUPPLIES, INC.                        1602
B0101401670271017449001HK HARDWARE SUPPLIER CO., INC.                           1601
B0101401670271027397001KELEYNA ENTERPRISES                                      1601
B0101408660274046031001INTERNATIONAL SPECIALTY RETAILERS, INC.                  1603
B0101408660274046032001INTERNATIONAL SPECIALTY WEAR, INC.                       1603
B0101402770391030634001CITY GREEN - AS STYLE                                    1605
B0101402770391032924001HARRIS MEMORIAL COLLEGE, INC                             1605
B0101409180397041229001****                                                     1603
B2401400180411043716088QUIKMIX CONCRETE, INC.                                   1605
B01014077206024892100011stMARK GLOBAL MEDICAL SERVICES, INC                     1601
B0101407560686035978001L. CO BUILDERS                                           1603
B0101408240711028488001INTAS DESTINATION MANAGEMENT INC.                        1605
B4101400260812012643001KUM KANG CERAMIC PHILS. CO., INC.                        1606
B1101400120000000652442GICABAO, KATHLEEN JOY NG OR                             11603
B4101400550815040997005MAHARLIKA CONCRETE PRODUCTS AND                         11601
B1101400120000000652442GICABAO, BONGKOK                                        21600
B4101400550815040997005CONST. SUPPLY                                           21600
