F1801400130151322646001BUSICO, MARY ANN KOPPIN                                  2502CKO
F0201400760374440844001KOIKE, ROSANA BONES                                      2503CKO
F0101410850109047682001SL HARBOR BULK TERMINAL CORP.                            2602CKR
F1801400130151048759001MSU-IIT NMPC MANTICAO BR.                                2603CKR
F31014004502230373600013 J DELIVERY SYSTEM CORPORATION                          2601CKR
F0101406620273031795001FIRST VITA PLUS MARKETING CORPO                          2602CKR
F0101408400394034368007W HYDROCOLLOIDS, INC.                                    2606CKR
F4101400390813444608002CAVITE DIAGNOSTIC STROKE CARE CENTER                     2605CKO
F0101412180000000037863RAVELAS, MARIA CECILIA DBU RED                          12602CKR
F3101400580452041030001ALL IN ONE PROGRESSIVE                                  12602CKR
F0101412180000000037863INTERIOR DESIGN                                         22600CKR
F3101400580452041030001MULTI PURPOSE CO                                        22600CKR
F1201400150421031460002CJH SUITES CORPORATION                                   2702CKC
