A0101400600000000007649*********                                                0510
A0101406460000000021785YAP, KENNETH CHRISTIAN TENG                              0501
A1601400170000000036473BENITA A. CALLEJA                                        0501
A0101412630000000044733GARCIA, GILBERTO MARTIN                                  0505
A0101405940000000061583CASAS, JOHN VICTOR ABEJURO                               0501
A0101405940000000061663PELAYO, HUDSON PETER LAPUZ                               0501
A0101401250000000460542PAPALID, JOEBIE LIBRE                                    0501
A0101405650000000525739RUFA MACABENTA                                           0501
A0101408820000000840620******                                                   0501
A0601400230000000990052DAYAO, MARIBEL MASIBAC                                   0501
A0201400920000000991766**********                                               0501
A1601400170000001069089MARY GRACE A. POLLOSO                                    0501
A0101400440000001440000LAPASARAN, MARY GRACE FRANCISCO                          0501
A0101412630000001485161DAYAPERA, DELILAH ROMULO                                 0501
A2401400180000001935760SAYSON, MAYLEN FACIOL                                    0502
A0101408400000001952861DIAZ, JAY ANN BORBE                                      0501
A2001400290000001999804CUAL, BASILISA LIMPAHAN                                  0501
A2401400180000002146196SOLIS, MARILOU ARENSULAT                                 0501
A0101404840000002327777PASION, VICTORIA NERISSA KAGAOA                          0502
A0101400600000002335640DELFIN, LOVELLA SIASON                                   0501
A1701400230000002347322RAQUINIO, NANELA MAULIT                                  0501
A0101401090000002358665SAMBUANG JR., RODRIGO INGENIERO                          0501
A0101401960000002958150QUIBOYEN, JULIO ANGELES                                  0501
A0101400150000003292602RI NINA CARMEN PEREZ                                     0501
A0101400150000003292613SHERWIN A. FERRER                                        0501
A0101400150000003292620DENNIS A. CAPUL                                          0501
A0101400150000003292631DARWIN R. CARMONA                                        0501
A0101400150061226983001AGNES ADELA V. ALCID                                     0501
A0101400600071233715002********                                                 0508
A0101400600071457180001**********                                               0501
A0101400600071478374009******                                                   0501
A0101400440161511479003SUTICO C. MENDOZA                                        0501
A0101400440161525001152NENA J. SABADO                                           0501
A0101407270162775985001EDNEL V. PASCUAL                                         0501
A0301400660194737283088ZHI VENUS INDUSTRIAL SUPPLY                              0502
A1001400350233478374001JUNIO, ROGELIA A.                                        0501
A1001400350233525388001JILL YVES LORRAINE A. LAO                                0501
A0101401670271518087001* * * * * * *                                            0501
A0101406460272295161001********                                                 0501
A0101402060351211731001SANTOS JR., RODOLFO S.                                   0501
A0201400760374033157001WISE OWL GENERAL MERCHANDISE                             0501
A0201400760374720031001******                                                   0502
A0101408370382205236001DR. CYNTHIA A. AGUIRRE                                   0502
A0101405490392171062001CARMELITA S. FERNANDEZ                                   0501
A2401400180411472836003OMEGA, LEE ANN GENILO                                    0501
A1201400150421255544001CO, NANCY ONG                                            0501
A0501400170481043466001RUSKIN MARKETING                                         0503
A0101405940512474569001MANAOIS, CYNTHIA HISTORILLO                              0501
A0101408110515524136001BRIAN STEPHEN T. YAP                                     0501
A0101404260611005236001WILTRON ELECTRONICS                                      0502
A1301400500684094788001GERODIAS, ANALYN ALCANTARA                               0503
A0101405650000000013054NATCORP CAREER GROWTH AND                               10503
A1001400350000000017796SIOS-E, ANNA LYN F. AND                                 10502
A0101413020000001175417GONZALES, CYNTHIA P DBU KEMCON                          10502
A1001400350000002367291CHAN, ALFREDO CAGARA AND                                10501
A0101400570281443866001ANA MARIA S. POHANG OR                                  10502
A1201400150421542693001KVAALEN, SVEIN OLAV OR                                  10501
A2201400250561478374065EMILY V. ANTONIO                                        10501
A0101405650000000013054MANPOWER SERVICES                                       20500
A1001400350000000017796ONDIANO, CHASTIN                                        20500
A0101413020000001175417INDUSTRIAL SALES                                        20500
A1001400350000002367291CHAN, MICHAEL KING GAN                                  20500
A0101400570281443866001KATRINA S. MARTINEZ                                     20500
A1201400150421542693001MACARANAS, ARLENE                                       20500
A2201400250561478374065MEMBERS OF NATAS                                        20500
B0201401020000000470211DULCINEA SUITES AND HOTEL                                1601
B0101408240000000832644COLLYER SHIPPING PHILIPPINES, INC.                       1603
B0101400600071396916001II                                                       1605
B1001400350233040872001MARIA CRISTINA AGRO TRADING, INC.                        1603
B0101406620273007454001GLOBE ASIATIQUE REALTY HOLDINGS CORP.                    1605
B0101406620273009619001FILMAL REALTY CORPORATION                                1605
B0101405650322077417001ELEGANT INFOVENTURES, INC.                               1602
B0101408370382026420001OPTIC CHIAZM, INC                                        1601
B0101408400394022813001PHILIPPINE RESEARCH & MARKET INFORM                      1602
B2401400180411783270088JSDR MARKETING - GEN. SANTOS BRANCH                      1602
B0101403450521011967001ERNES REALTY CORPORATION                                 1601
B0501400170000000018340RAMOS, JOSE MANAOIS DBU FURACON BUILDERS                11601
B0301400660000000195191GENERAL PACKAGING SOLUTIONS SPECIALISTS                 11603
B2001400290315746119001CAROLINE L. OR RONARD FIL L. OR CRISTY                  11601
B0501400170000000018340AND GEN.SERVICES                                        21600
B0301400660000000195191INC.                                                    21600
B2001400290315746119001MARIE L. BUHISAN                                        21600
