F0101407720602410202001CABILLOS, MARIVIC RECOTER                                2505CKO
F1301400210682432849002JOSE ANTONIO R SY-ALVARADO                               2520CKO
F2601400140691013731002GURDWARA JAGAT SUDHAR                                    2505CKO
F0101406750000000090964COMERCIO DE VARGAS CORP                                  2602CK1
F0301400790195030258001M.M. U-CHEM INDUSTRIES, INC.                             2601CK1
F0401400140241014225002MF COMPUTER SOLUTION                                     2610CKR
F0301400240401025953008ECE MARKETING                                            2602CKR
F0101402350321179567001ST. FRANCIS ACADEMY OF                                  12605CKR
F0101402350321179567001PARANAQUE, INC.                                         22600CKR
