F0101408240711430471001**********                                               2501CKO
F0101403290000002667656R.C. CAUGMA & COMPANY                                    2601CK1
F1001400190231048773001MSU-IIT NMPC COGON-CDO BR.                               2601CKR
F0401400270242031190002ISLAND MERCHANTS CORPORATION                             2605CKR
F3101400580452029890001SIMUNDAC CALTEX SERVICE STATION                          2601CKR
