A0101401960000000008102**************                                           0502
A2601400270000000019587CHERADY G. ALBANO                                        0501
A0101411820000000023930WILFREDA V. VILLASENOR                                   0501
A0101413310000000039865CONCEPCION, MICHAEL JOSEPH G.                            0501
A4101400260000000048899ELVIRA C. IGNI                                           0501
A0101400440000000060266JOCELYN B. ANDAYA                                        0501
A1701400230000000097687BLAS, SAMUEL SIMEON                                      0505
A0101401960000000211069TAN, ANTHONY DIAS                                        0501
A1301400500000000213021DARCEN, SOLEDAD MERCADO                                  0501
A0101400150000000253278GELANO, ANGELO RECTO                                     0501
A0101406750000000358047GUNGON, ARTHUR REYES                                     0501
A0101402350000000443218GAURANO, REMELIE PLACIDO                                 0501
A1001400480000000474942DACALOS, GENMAR MANLOSA                                  0503
A1601400170000000497376MICHAEL M. TUSCANO                                       0501
A0101410140000000499407EDORIA, MLE VALVE ENTERPRISE                             0501
A0101410140000000499430SANTOS, MARY GRACE SANDOVAL                              0501
A0101402350000000521491PLACER, SAHLEE HAPA                                      0502
A2601400270000000561933JEFFREY J. MENDIETA                                      0501
A0301400950000000566672LIM, BENJAMIN OLANO                                      0502
A0101413440000000570201GLORIA IDA HIERRO                                        0501
A0101413440000000570325NOCUM, JOHN PETER CASTELO                                0503
A0101413440000000570336CORDOVA, TERESITA DE LEON                                0503
A0101400440000000596549BIMBO FERNANDEZ TUCAY                                    0502
A0101409050000000601385NOVILLOS, REYNALDO DISU                                  0501
A0101413570000000635501**********                                               0503
A1101400120000000652733CARDOSO, MARIA LORENA S.                                 0503
A1101400120000000652744CANEDA, MARLON JOSEPH ESCARAN                            0501
A1101400120000000652799MONTEJO, SHERELL CANEDA                                  0501
A1101400120000000652802ANDRADE, PURITA TABUCAO                                  0502
A1101400120000000652813BONGOT, BEVERLY DURAN                                    0501
A0101411660000000751262BONIFACIO G ONG                                          0501
A0101400150000000807556MENDOZA, MAGDALENA CRUZ                                  0501
A0101400150000000807647SERRANO, RAZELLA DANIKA PALO                             0501
A0301400820000000814146****                                                     0501
A0101401670000000843641**********                                               0502
A0101401700000000890386GAVIOLA, ROWENA SAN LUIS                                 0501
A0101412050000000890853ANTONIO, MARIA CHRISTINA SUAN                            0501
A0101401250000000906974TOGA, JOHN MICHAEL M.                                    0501
A0101404680000000940972PROFOGO JR., FELIX BODINO                                0501
A0101404840000000943339MALLANES, GEORGE SIGUENZA                                0501
A1001400480000001054722GOMEZ, NUMERIANO LABUNTOG                                0502
A0101412890000001056262BERNARDO, DONITA ROSE ARRIOLA                            0501
A0501400200000001080966*******                                                  0501
A1401400110000001095892**************                                           0501
A6601400120000001105899GALLEGO, MARY JANE PADIDA                                0501
A4101400260000001198632TORIBIO, DBU HOME RUN FURNITURE                          0501
A4101400260000001198790PAZ, IRNA BAS OR REAL, JOEL L.                           0501
A4101400260000001198803NOEL BELINA OR ARLENE BELINA                             0501
A0101408400000001213585DUCTA, ANALIZA ABULENCIA                                 0501
A0101408400000001213643REGALADO, ANGELA AMOR BALDOS                             0501
A0101408400000001213676VILLAMIN, SOLIMAN JAVIER                                 0501
A0101408400000001231127ROSS, JENNIFER DOROMAL                                   0501
A0101408400000001231138CORTEZA, JOHANNA BELIZARIO                               0502
A0101413860000001233743OBIN, ARLENE VELASCO                                     0501
A0101413860000001233750REYES, JOSIE MAE APINARDO                                0501
A0101405070000001256462ORQUILLANO, JOCELYN BAILEN                               0501
A0101410560000001290897DAVID, GRECILDA ALBERO                                   0501
A0101401700041512300001HEHAR, PARAMJIT SINGH                                    0502
A0601400100081588822001EMBORONG, LAARNIE VILLACRUSIS                            0504
A0601400100081615537001BAIS, LEONOR RIVERA                                      0502
A0601400100081684157001REGULACION, JEFFREY ALIM                                 0503
A0101401960121075261001DELA ROSA, MAYUMI ORAA                                   0501
A0101401960121285558002**********                                               0501
A0101400440161039572081EMELITA G. BARTOLAY                                      0501
A0101400440161039572094BALLADARES, GINA BOCATOT                                 0502
A0101400440161520766131ENRIQUETA PATRIARCA                                      0501
A0101400440161520766184MA. RENITTE D. ROMA                                      0501
A0101400440161525001067JENIFFER T. JAVIER                                       0501
A0101401090171309046001CESAR M. VELASCO JR.                                     0501
A0101401090171365357001JAMES B. RABAGO                                          0501
A0101407140213289248001LORENZANA, MA. LUISA M.                                  0501
A1001400190231520766032BAGARES, JENYFER SATE                                    0501
A0101411820277743052001RUBY M. PAMINDANAN                                       0501
A0101402350321478374013ROSALINA M. MARAVILLA                                    0501
A0101405650322412858003PATATAG, HERMINIA SALAMERO                               0501
A0101408820333478374035QUINIA, SUSANA M.                                        0501
A0101402060351414987003NOBLE, FELICISIMA CASANOVA                               0502
A0101402060351799390001MONTECILLO, LORENZO LUIS PAYTE                           0502
A0101408370382186321001ODI, TYGRAN ROMEO DE LA CRUZ                             0502
A0101408370382205119001DR. FLORANTE P. GONZAGA                                  0502
A0101408370382211448001DR. JOSE PAOLO A. PRADO                                  0501
A0101409180397486750002TARROZA, MICHELLE CANAUAY                                0503
A2401400180411478374020MORI, LYDIA                                              0501
A0101410140475478374010PELAEZ, BEATRIZ GUEVARRA                                 0501
A3801400170490767277001GERALDINE PACO VIVERO                                    0502
A1401400110492029549002TRIPTORS DIAGNOSTIC CENTRE                               0502
A0101405940512368799002LASALA, LANI SALVADOR                                    0502
A0101408530516044264001DATA ART DESIGN & PRINT SERVICE                          0501
A0101403450521239750002EDDIE L. CHUA                                            0502
A0101403610531220921002MEALA, BELEN PARACALE                                    0503
A0101403610531446799001RAMIREZ, MARY JOHNA ANTONIO                              0503
A2201400250561695614001JUANITA VILLANUEVA RIVERA                                0501
A0101407720602341263001RIVERA, LUIS MARCELO                                     0501
A0101407720602371282001CHAN, MAILA CRUZ                                         0502
A0101407720602398542002DR. ROBERT DENNIS J. GARCIA                              0502
A0101407720602405364001YATCO, MARIA LOURDES GARCIA                              0505
A0101404420631478374057EMELDA CANETE                                            0502
A1301400340683584414001CRUZ, ARISTEO RUBIO                                      0502
A1301400500684620339001DAVID, FELIPE ANGELES                                    0501
A1701400230693043742001CAFE JUAN                                                0502
A4101400260812383492002MARIA OLIVIA V. MARAAN                                   0502
A4101400390813333041001MARIO C. GENUINO,JR.                                     0501
A4101400390813597490001PARK, EUN TARK                                           0501
A4101400420814520766061ESTILLERO, SUSANA O.                                     0502
A0101404840851175235001CEPRES, LOURDES BALAGUER                                 0502
A0101404840851478374071MARITESS C. CASARILLA                                    0501
A0101404840851478374115ERLINDA O. PRADO                                         0501
A0101404840851520766178ROWENA C. PUNZALAN                                       0501
A0101402510000000200142HASHIM, SURAIDA N. OR                                   10501
A0601400360000000225312SUAREZ, GLORIA DE LEON OR                               10501
A0101409180000000874551ESPABILLA, CHARMAINE JOY DE                             10501
A0101412340000001017656MOLDEZ, SERAFIN DBU S.C. MOLDEZ                         10501
A0101412890000001056240VILLANUEVA, MICHAEL D OR HALIM                          10501
A0101403610000001174772BERROYA, EDRALIN OLIVAREZ OR                            10505
A3001400130000001271312SHAPE & WELL NUTRITIONAL                                10501
A0101401090171309681002FRANCIS MARIE A. PURINO                                 10501
A0301400820409093916001RACILLO, FRANK OR                                       10502
A5501400120410645218001BAUTISTA, ESTHER BASCON                                 10503
A1901400160491494343001RAINIER C UNTALAN OR                                    10503
A0101403580511026941001CECILIA NARVAEZ Y DISENOS                               10502
A0101403610531308186001ANDAL, REGINALD R. OR                                   10502
A0101407720602399815001ALEJANDRO, RUTH MARGARET                                10501
A0101402510000000200142HASHIM, ABDURAKIB A.                                    20500
A0601400360000000225312PONCE, MARLYN DE LEON                                   20500
A0101409180000000874551GUZMAN                                                  20500
A0101412340000001017656ENGINEERING & CONSTRUCTIO                               20500
A0101412890000001056240ARLENE A                                                20500
A0101403610000001174772BERROYA, MA. ANA ESGUERRA                               20500
A3001400130000001271312PRODUCTS                                                20500
A0101401090171309681002OR STEPHANIE C. ANDRES                                  20500
A0301400820409093916001RACILLO, MACLARA                                        20500
A5501400120410645218001OR BAUTISTA, ESCHANNS                                   20500
A1901400160491494343001RELYN M UNTALAN                                         20500
A0101403580511026941001INTERIOR                                                20500
A0101403610531308186001ANDAL, MA. PENELOPE                                     20500
A0101407720602399815001FRANCISCO                                               20500
B0101403610000000016008LEE TOP BUILD INDUSTRIES CORP.                           1602
B1001400190000000016355ZAMORANOS, CEASAR DANTE                                  1601
B0101410140000000038862FIRST OPTION ELECTRONIC SYSTEM PHIL                      1602
B0101401700041007416001**********                                               1603
B0101400150061534780001STRAITS WINE COMPANY WHOLESALERS, INC.                   1602
B0101405810072040421001SK-T COMPANY                                             1602
B0101401090171035731001UNIVERSITY OF SANTO TOMAS PEDIATRIC                      1602
B0101407140213028328001*****                                                    1610
B0101407140213028527001BALER INDUSTRIAL CORP.                                   1605
B0101407140213047947001*****                                                    1603
B1001400350233036184001MINDANAO CHRIST'S GOSPEL ACADEMY, INC.                   1602
B0101401670271017449001HK HARDWARE SUPPLIER CO., INC.                           1601
B0101402350321034292001JACINTHE MANUFACTURING CORPORATION                       1602
B0101402350321035857001MOBICAR TRADING CORPORATION                              1603
B0101402060351023796001CREATIF FOIRE PRO, INC.                                  1610
B0101402060351033699001EXQUISITE INTERIOR SUPPLY CORPORATION                    1603
B01014020603514784560019R MANPOWER AND SERVICES INC.                            1601
B0101409050352039586001MICROSOURCING PHILIPPINES INC.                           1610
B0201400920375034855001SHELLS TREASURES INTERNATIONAL CORP                      1602
B0201400890376051634001BONA TERRA PLURA FRUCTUS CORP.                           1601
B0101405490392031428008KIDSVILLE CREATIVE SYSTEMS, INC.                         1603
B2401400180411033214001RD CASH PADALA, INC.                                     1602
B2401400180411041355088***********                                              1603
B0101403450521012171001**********                                               1602
B0101403450521028158001**********                                               1602
B0101403450521033882001**********                                               1610
B0101403450521033882002*********                                                1610
B0101403610531010019001SEPP MARKETING, INC.                                     1601
B0101406590662661015001DESTINATIONS UNLIMITED TRAVEL AGENCY INC                 1601
B4101400390813047907001ST. JOHN BOSCO FAITH TRAINING CENTER                     1601
B1601400170000000036160LEGAZPI FOUR SEASONS                                    11603
B1001400350233039880008NORMIN FOOD CHAIN CORPORATION - JOLLIBEE                11610
B1301400500684682032001GONZALES JR., BIENVENIDO S. OR GONZALES,                11601
B1301400500684760979001ESTEVEZ, MATEA CENTENO OR ESTEVEZ, JOEY                 11602
B1601400170000000036160RESTAURANT, INC.                                        21600
B1001400350233039880008LIMKETKAI                                               21600
B1301400500684682032001JACQUILINE                                              21600
B1301400500684760979001CENTENO                                                 21600
B0101401670271821100608**********                                               2005
