F0801400290591395533002TEE, MILA YU OR TEE, BENNY UY                            2503CKO
F1201400280671013086003JES                                                      2520CKO
F0101408400000000077850PORTUGUESE REALTY INC.                                   2602CKR
F1201400150421031460002CJH SUITES CORPORATION                                   2602CKR
F0101404130601031677001CARRIEDO TOURIST DEVELOPMENT INC.                        2605CKO
F0101404130601033491001TOURIST ACCOMMODATION DEVELOPMENT INC                    2605CKO
F0101404130601033491002TOURIST ACCOMMODATION DEVELOPMENT INC.                   2605CKO
F0101404130601465803001ARTHUR C. KING JT                                        2605CKO
F4101400260812422578001RACQUETTAZ BADMINTON CENTER INC.                         2602CKO
F0101405100571036688001ALL COUNTS TRANSPORT SERVICES                           12602CKR
F0101404130601025271001LIBERTAD TOURIST DEVELOPMENT                            12605CKO
F0101404130601465827001KING, ARTHUR OR MARIA MARTA APOLONIA                    12605CKO
F0101405100571036688001CORPORATION                                             22600CKR
F0101404130601025271001INCORPORATED                                            22600CKO
F0101404130601465827001KING OR ESTRELLA                                        22600CKO
