F4101400260000000469330DEPANO, ABEL GONZALES                                    2503CKO
F3101400320222039409001CORTEZ, LORELA LAMBINO·                                  2503CKO
F0101401120131367396002BARBARA ANNE C. MIGALLOS                                 2602CKO
F4101400260812028697001WELLCARE CLINICS AND LAB., INC.                          2610CKR
F4101400260812028669001LIVELIHOOD AND ENTERPRISE                               12602CKR
F4101400260812028669001DEVELOPMENT CENT                                        22600CKR
