A2201400250000000017212CAROLINE ANN MARIE PAZ ARCILLA                           0501
A2201400250000000017212CAROLINE ANN MARIE PAZ ARCILLA                           0501
A2601400270000000019576ANDRES P. TATTAO                                         0501
A0101400440000000060200LANIE C. BALISONG                                        0501
A0301400660000000194854TANIO, DANILO CALUNSAG                                   0502
A0201400760000000223190WU, EDWINA GACAYAN                                       0503
A0101410560000000268342LESLIE ANN F. MERCADO                                    0502
A0801400160000000476299*********                                                0503
A0101410140000000499305GENDRANO, MA MERCED GUSTILO                              0501
A0101408240000000521822MANGLAPUS JR., RAUL LAO                                  0501
A1901400320000000679290CRISTINA FE GARCIA TAJONERA                              0501
A0101412630000000801563LABIS, MARIA ROSE ABABA                                  0501
A0101403580000000922827ROMERO, JONATHAN SABAREZA                                0501
A4101400390000000975180BISDA, JANETTE ENRIQUEZ                                  0501
A0101412890000001056360AMIDO, NORMA GUEVARA                                     0501
A0101405490000001092557******                                                   0502
A0101413860000001233710ENARIO, JOHNNY MAKABENTA                                 0501
A0101411400000001280400PASCUA, GILBERT DE LEON                                  0502
A1301400760000001295518REBECCA R. CENA                                          0501
A0601400520000001349582MANALOTO, ISRAEL CUNANAN                                 0501
A0601400520000001349582MANALOTO, ISRAEL CUNANAN                                 0501
A0301400820000001554707MANAUG, ANICETA R.                                       0501
A0101401960000001844500**********                                               0501
A0101408530000001885903PAULINE MAE C. DAVID                                     0501
A0101400440000002034800ARMAN BESTUDIO                                           0501
A6601400120000002249761BERNABE, ARWIN CARANZO                                   0501
A2601400270000002257143ELIEZER T. CABADDU                                       0502
A1301400210000002284999ANGULO, OSCAR CASTRO                                     0501
A0101409210000003084791MATEO, NOEME PAZ                                         0501
A0101410850000003119111RAMA, MARIE JOAN ESTOLOGA                                0501
A0101400150061337010158MA. ROSARIO LOURDES GARCIA                               0501
A0101400600071233615002********                                                 0502
A0101400600071373478001**********                                               0505
A0101405810072316984001**********                                               0501
A0101405810072353703003GUO, ZHI SHEN                                            0505
A0101405810072373265003MANANSALA, JOYCEE CATARATA                               0502
A0101400440161478374120MYRNA Q. NEPOMUCENO                                      0501
A0101400440161525001069ROMYLYN D. REAL                                          0501
A0101401090171323996001JANE A. MACARAEG                                         0501
A3101400450223223458004ALVERO, LEAH AURORA TOLENTINO                            0501
A1001400190231040263001J & A APPLIANCE CARE CLINIC                              0501
A0101400570281361144001ERIC G. IDIESCA                                          0501
A0801400160311478374093AMELIA H. TAYCO                                          0501
A2001400290315673185001TAHIR, SAMSODIN TOMAWIS                                  0501
A0101405650322647248001SEBASTIAN, GENEROSE ALIDO                                0501
A0101402510341478374008MARY GRACE B. ANDRES                                     0502
A0101409050352699046001MARIA PATRICIA P. CUASAY                                 0501
A0201400760374054009001ALLIED HOMES MARKETING                                   0501
A0101402930381205175001DR. MARILYN D. RUARO                                     0502
A0101408370382400439001DR.CORAZON JESUSA SERAFICA-DIAZ                          0501
A0101408400394478374057EVELYN M. BONGAT                                         0502
A5501400120410705630001DIZON, LEANDRO ADOR ANDRES                               0505
A2401400180411478374059ANALITA R. SUICO                                         0501
A0101403030441243441001**********                                               0502
A1401400110492531512001SALVANERA, ZIEGFREDO AGUILAN                             0501
A0101408530516662907001OTEYZA, MARIA ISABEL VALLERO                             0502
A0101411400517381317168*******                                                  0501
A0101403450521037347002********                                                 0501
A0101403450521238657001**********                                               0502
A0101403610531232548001**********                                               0505
A0101403610531362783002PARAISO, MARIVIC CUARESMA                                0501
A2201400250561639490001AUDREY LIM TAN                                           0501
A0101404260611478374095NORMA MIGRINO                                            0501
A0101404420631478374128MELINDA A. DELOS SANTOS                                  0501
A0101404420631556837001*****                                                    0502
A0101404680651553885001RAYMUNDO, KRISTINA KARLA GIRON                           0501
A4101400260812478374017PRISCILA R. CABAMALAN                                    0501
A4101400390813245064003MERCADO, ISMAEL MERANA       JT                          0502
A4101400550815042023002AUTOWELL TRADING                                         0505
A4101400550815478374010CRISTINO, DANA JAMAICA                                   0501
A4101400550815655696001MARITES D. SALMON                                        0501
A0101404840851046725011ANALENE MONTECASTRO                                      0501
A0101404840851520766062LUZ C. BACTOL                                            0501
A0101406750852043541001GRAFIX VENUE ENTERPRISE                                  0502
A0101406750852478374100GLENDA DALOGDOG                                          0501
A2801400230000000063210SALINAS JR., BENJAMIN F DBU FDS                         10501
A2601400270000000084217PAUL ALFRED RIVERA OR                                   10510
A2601400270000000561682JANET A. GELACIO OR                                     10505
A0601400230000001687232CHRISTLE M.TUNGUL OR                                    10501
A0101405490000002880573WENCESLAO C. PIMENTEL DBU                               10502
A0101401250021757622001SINGH, MANJIT KAUR OR                                   10501
A0601400100081543029001LUCAS, CARMEN OR                                        10502
A0101407140213312810001YU, TERESITA DY OR                                      10501
A6601400120314593270001DIAZ, REO OR MARIEGIL OR                                10505
A0101402510341565802002GLAISA A. CLAVERIA OR                                   10502
A0201400890376545727001SY, VICENTE OR CHARITO OR VANCE                         10501
A0101402930381205376002ROGELIO LUSONG OR                                       10502
A0101402930381430185001GINA M. DOERR OR ANTON A. DOERR                         10501
A2401400180411564736001CATULPOS, ELMER VILLEGAS                                10510
A12014001504212536240016UANZON, ALICE D. OR                                    10506
A0101403610531308186001ANDAL, REGINALD R. OR                                   10502
A0101403610531444284001DUENAS, RENDER MACASPAC                                 10501
A2201400250561478374006ANGELINA P. QUIBALLO                                    10501
A0101407720602311315002ALFRED M. APOSTOL OR                                    10510
A0101407720602332279002CAYCO, ANTONIO V. OR                                    10501
A1301400340683354466002LEGASPI, CRISTINA D OR ZAMORA                           10504
A4101400550815693134001LLANES, TUDOR HERNANDEZ OR                              10501
A2801400230000000063210FAMILY CLINIC GE                                        20500
A2601400270000000084217ALMA RIVERA                                             20500
A2601400270000000561682BARTOLOME L. GELACIO                                    20500
A0601400230000001687232LIONEL M. TUNGUL                                        20500
A0101405490000002880573MGV COMMERCIAL                                          20500
A0101401250021757622001KAUR, SURINDER                                          20500
A0601400100081543029001SANTOS, MA. LUCI                                        20500
A0101407140213312810001YU, WILSON                                              20500
A6601400120314593270001REMEDIOS                                                20500
A0101402510341565802002JAMES RONALDO A. CLAVERIA                               20500
A0201400890376545727001CEDRIC OR CHUA,                                         20500
A0101402930381205376002EVELYN LUSONG                                           20500
A0101402930381430185001OR GELIA M. MARTINEZ                                    20500
A2401400180411564736001OR CATULPOS, YELCY YASAY                                20500
A1201400150421253624001GUANZON, DELFINO                                        20500
A0101403610531308186001ANDAL, MA. PENELOPE                                     20500
A0101403610531444284001OR DUENAS, RYAN                                         20500
A2201400250561478374006MEMBERS OF NATASHA                                      20500
A0101407720602311315002MA. LEAH J. APOSTOL                                     20500
A0101407720602332279002CAYCO, MARGARITA                                        20500
A1301400340683354466002MARY CATHERINE O                                        20500
A4101400550815693134001LLANES, PRESCILLA CARRIDO                               20500
B0101405810000000016811SK PLASTIC RELIANCE COMPANY                              1603
B1301400210000000023503JELLI'S GAS STATION                                      1602
B0101409180000000036644THE COFFEE BEAN & TEA LEAF PHILIPPI                      1605
B0101409180000000036655WINGSTOP PHILIPPINES INC                                 1605
B0101406750000000090851SUPER PLUS CORPORATION                                   1601
B0101413730000000469687************************                                 1606
B0101400150000000633345THE CHURNER GROUP INC.                                   1601
B4101400550000000900058HARRELL HORNE INTEGRATED SCHOOL,INC                      1602
B0101400150061010736001SPCASTRO, INC.                                           1605
B0101400600071516450001********                                                 1601
B0101405810072012504001NEW CENTENNIAL PLASTIC & PRINTING CORP                   1601
B0101405810072029570001PLASTIC CONSUMER CORPORATION                             1603
B0101405810072034989001TRANSWELL ENGINEERING CO.                                1601
B0101405810072040696002PLASTIC TECHNOBAG CO. LTD.                               1601
B3101400160221017929001PILI BATTERY SALES, INC.                                 1602
B3101400160221224862001JOYME CONSTRUCTION SUPPLIES, INC.                        1602
B1001400190231022229001CITY ALLIANCE CHURCH                                     1601
B1001400190231272340001SIA, TOMAS C. OR GINA B.                                 1601
B0101406620273545544001SUMMIT TEAM WELLNESS CORP.                               1601
B0801400160311043928001DELIFRANZ BACKEREI, INC.                                 1602
B0801400160311269417001C.G. TAN GENERAL SERVICES                                1606
B01014020603514784560019R MANPOWER AND SERVICES INC.                            1601
B0101402930381014599001HEALTH SOLUTIONS CORPORATION                             1602
B0101402930381017086002HEALTH GALLERY INC.                                      1605
B0101402930381030377002COMMUNITY BAPTIST CHURCH                                 1605
B0101402930381038648001LARGEN MED INC.                                          1604
B0101402930381040393001RESOURCE ONE CORPORATION                                 1601
B0101402930381047467001FLUID SOLUTIONS, INC.                                    1601
B1201400150421035585001HOTEL COSMOPOLITAN                                       1601
B0101403610531224782002********                                                 1601
B0101404000551038491001BLUE ANGEL KARAOKE BAR, INC                              1602
B0101404130601100148003UNIESSENCE CHEMICALS PHILIPPINES INC                     1605
B0101404130601621189001PROPEL MANILA 360, INC.                                  1602
B0101404260611028530003**********                                               1601
B1301400210682042117001JELLI'S GAS STATION                                      1602
B4101400420814043163001VAYAO WAX MANUFACTURING INC.                             1602
B0101411240000000012120DIVINE PROVIDENCE COMMUNITY WELFARE                     11601
B0101407430000000035281MOVE IT MULTIMODAL TRANSPORT AND                        11605
B0201400760374046327001PELAYO, R. DBU TOTO ENTERPRISES                         11606
B0101402930381017213003UNIVERSAL ROBINA CORPORATION                            11602
B0101411240000000012120INCORPORATED                                            21600
B0101407430000000035281LOGISTICS INC.                                          21600
B0201400760374046327001COMMODITIES                                             21600
B0101402930381017213003URC - GD                                                21600
B0101407300395821100608**********                                               2003
B0101406590662821100608**********                                               2005
B0101413860862821100608**********                                               2003
