A0301400820000000024860HERNAN, PESARLITO T.                                     0502
A0101404420000000026053ARGUELLES, DAISY CRUZ                                    0501
A0101413150000000038559******                                                   0501
A0101413310000000039945REYTAS, RONELLA WAGE                                     0501
A0301400820000000045532ROLLON, LELIBETH S.                                      0501
A0101401250000000057112DELAN, ANNA LIZA D.                                      0501
A0101400440000000060255LOUELLIN L. LIM                                          0501
A0101413150000000082693PAUL HENRY P. DUQUE                                      0501
A1301400500000000212984RAMOS, MA. TERESA FLORES                                 0501
A0101412340000000224057OCAMPO, KATHLEEN SANTOS                                  0501
A0601400360000000225294MANLAPAZ, JENALYN SORIANO                                0501
A1901400160000000243638GUNZEN RESOURCES ENTERPRISE                              0501
A4101400550000000315182MARGAJA, FELICITA BITOR                                  0501
A0101412050000000323657CLEMENTE, KENNETH                                        0501
A0101400440000000337682CHARITO T. IBANEZ                                        0502
A2201400250000000433550******                                                   0501
A0101403320000000452173SUMULONG, MARIA BANATIN                                  0502
A0101410140000000499407EDORIA, MLE VALVE ENTERPRISE                             0502
A0101405650000000525853**********                                               0501
A0101401830000000535653DONATO, AARON ACOBA                                      0501
A1301400210000000540936JOCELYN S APOSTOL                                        0501
A2601400270000000561977GINA T GUYONG OR ARNEL V GUYONG                          0501
A0101403320000000735717BAUTO, GUADA LYNNE CASTILLO                              0501
A0101405650000000772914PAMINTUAN, MARIFER CABIGAS                               0502
A0101409920000000998741CAPINO, MARK DEXTER CALAGUI                              0501
A0101405940000001047381MIRANI, DIANA NARESH                                     0502
A0101412890000001056273****************                                         0501
A1001400190000001057403MULAT, MARICRIS OR GONGOB, ANGE                          0501
A0101413570000001069603DR. JOEY A. MACATANGAY                                   0501
A0501400170000001072713ANG, JUSSLYNN MAISIE ONG                                 0501
A0101413310000001073603MANGAO, DAIANA ROSE MASALUNGA                            0501
A0101413310000001073632MAGNO, ABIGAIL JUDE BALANAY                              0501
A0101410140000001074544DALIDA, RUPERT JAN CALA                                  0501
A0101402510000001292393AMBION, LARRY JAVIER                                     0501
A4101400550000001332381FONTEJON, DAVY IGUIDEZ                                   0501
A0101407720000001393131*********                                                0501
A0101414120000001427561TAN, MARY CATHERINE FLORES                               0501
A0101412630000001485161DAYAPERA, DELILAH ROMULO                                 0501
A0101402640000001536465ROSAL JR., RUFINO DICIEMBRE                              0501
A2201400250000001545302RODOLFO D. MIRANDA JR.                                   0510
A2201400250000001545320PAUL NORMAN U. DE GUZMAN                                 0501
A0101400860011385267002**********                                               0502
A0101400860011478374003**********                                               0502
A0101400860011532652001**********                                               0502
A0101400860011532652002**********                                               0502
A0101400860011542443001**********                                               0505
A0101400150061084042001RETARDO, ALEXANDER ROBLES                                0501
A0101400150061373685003ALAMPAYAN, LUCENA PENARANDA                              0501
A0601400100081090200001VALDEZ, SHIELA MARIE UMBINA                              0501
A0101400730111478374020FERMANES, LILIA S                                        0502
A0101401960121757986001**********                                               0502
A0101400440161039572109MARILOU S. SAMSON                                        0502
A0101400440161044130001KNUFFNA MARKETING                                        0502
A0101407270162515784002WINSTON Y. MABASA                                        0501
A0101401090171196126001ROSE JEAN P. CRUZ                                        0501
A0101401090171200033001ROSARIO R. ARANDA                                        0501
A0101401090171200124001CRISTETA L. SUMERA                                       0502
A0101401090171201254001NESTOR LINO A. BAGSIT                                    0502
A0101401090171201465001MICHAEL JORGE OR CHERYL PERALTA                          0501
A0101401090171383349001JULIE ANN A. HALLAZGO                                    0502
A0101401090171544657001FRANELYNE P. CASUGA                                      0501
A0101401090171793244001ALBERTO MA V. MOLANO                                     0501
A0101407140213478374003TAPIC, ROSITA  G.                                        0505
A3001400130230767566031MALBAS JR., GABRIEL CABRERA                              0501
A1001400190231478374075BARRON, LORNA                                            0502
A0101406620273477709002LUCERO JR., JUANITO ARIEL RUFON                          0501
A0101400570281399721002JOFFREY OR JORDAN UY                                     0501
A2001400290315766551111CIPRES, MICHELLE MARIE REAL                              0501
A3401400280318478374001MARILYN B. BISMANOS                                      0502
A0101405650322083988001ARTICULO, AUREA BUMONGCAG                                0502
A0101408820333161806001DUCUT, TEODORA M.                                        0502
A0101408820333478374061JULIANA F. FAMENTERA                                     0503
A0101402640361401416001TY, GEORGE PO                                            0501
A0101402640361401416003TY, GEORGE PO                                            0501
A0101402640361478374074MARIANO, LOLITA MIRANDA                                  0501
A0101405490392478374008MARGARITA R. CIELO                                       0501
A0101408400394478374091ANALOU SASUMAN MONTALES                                  0501
A01014030304412402270021*********                                               0502
A0101407430503036416001JUPITER'S BUTCHER SHOP                                   0505
A0101408110515705650001************                                             0502
A0101408530516488690001**********                                               0502
A0101408530516494431001******************                                       0501
A0101408530516765284001BRAVO JR., CARLOS LAGMAN                                 0501
A2201400250561401949001ROSANNA TIGLAO MANALO                                    0502
A2201400250561782345001GELACIO ROMAN MANALANG                                   0501
A0101407720602396333001RAJAGUKGUK, BELEN PANTANGCO                              0502
A0101407720602396333002RAJAGUKGUK, BELEN PANTANGCO                              0502
A0101404420631259468002LORELEI LATEO CAMACHO                                    0501
A0101409920650478374011MELFLOR M. SILVINO                                       0501
A0101404680651520766139ESPERANZA T. BORJA                                       0501
A0101406590662289338001KIM C. DINO                                              0503
A1301400210682410144001ALEJANDRINO, JOEL HABLA                                  0501
A0101408240711226051002CHAN, ALFREDO OR CHAN, CEFERINA                          0502
A4101400260812478374061ELVIRA C. AME                                            0501
A4101400390813298552034THELMA S. DE JESUS                                       0501
A4101400390813478374062DE SILOS, RUBY MAE                                       0501
A4101400420814520766110DELA CRUZ, ARMINDA E.                                    0502
A4101400550815045531001JR-RK'S PIZZERIA                                         0501
A0101404840851520766037MAGDALENE DE GUZMAN                                      0502
A0101404840851520766144PANA, ZENAIDA C.                                         0501
A0101406750852086494001ILAGAN, RAFAEL ALELIS                                    0501
A0101406750852182683001IRENE C. DE VERA                                         0502
A0101406750852478374113EMILY E. ARGUELLES                                       0501
A0101406750852478374115CRISENCIA S BATACANDULO                                  0501
A0101406750852649565001AYSON, CRISTLE APELO                                     0501
A0101406750852741281003MACAWILE, PHILIP M.                                      0501
A0601400230891556545001ENRIQUE P. GRANDA JR.                                    0501
A0201400920000000007872JLJ INDUSTRIAL SUPPLY                                   10502
A0101403580000000383722MICHAEL GERARD PELAYO OR                                10502
A2201400250000000433492KENNETH F. TIAMZON DBU K.F                              10502
A2601400270000000561966NELIA A. CORTEZ OR MARVIN T.                            10502
A0101406880000000744996MEMBERS OF NATASHA (SHOECAT INC                         10501
A0101400570000000749771RUTH ANN B. SENA OR                                     10501
A0101410560000001290944BERANA, MYTHEL IDA HANNAH                               10501
A1301400470000001298984HELENE INOS ALBERTO OR                                  10501
A0101402640000001536476MEPS PUMPS AND ELECTRICAL                               10501
A0101401250021179233001SAGUID, ANTHONY DINO OR                                 10501
A0101401250021183904001EDNA G. QUINSAY OR                                      10502
A0101400310211051549001MASIGLAT, ARLENE                                        10504
A0101407140213190785001EVELYN C. TAN OR MARK ERWIN C.                          10501
A0101402510341331222001ERLINDA RECOCO OR JOHN PAUL                             10501
A0101408370382433161001DR. ANTHONY MARC B. ANCHETA OR                          10502
A0101402770391470722001GOTCHER, JAMES LANCE OR                                 10501
A0101403320471417333001GAVINO S. CRUZ OR                                       10503
A0101407720602397494001GENARA M. LIMSON M.D. OR                                10501
A1301400500684092779001DAVID, DONNA LIZA A. OR                                 10501
A4101400390813387835001LUNA, CHRISTOPHER OR                                    10510
A0201400920000000007872& SERVICES                                              20500
A0101403580000000383722KARLENE THERESE PELAYO                                  20500
A2201400250000000433492TIAMZON PAINT CENTER &                                  20500
A2601400270000000561966CORTEZ                                                  20500
A0101406880000000744996CRUZ, MAY SUSANA                                        20500
A0101400570000000749771REMELITO L. SENA                                        20500
A0101410560000001290944QUENNIE GINA ABOY                                       20500
A1301400470000001298984CECILIA DIAZ VILLANUEVA                                 20500
A0101402640000001536476SUPPLIES                                                20500
A0101401250021179233001SAGUID, ALICIA D                                        20500
A0101401250021183904001ANTONIO E. QUINSAY                                      20500
A0101400310211051549001DBU JHEVI TRADING                                       20500
A0101407140213190785001TAN                                                     20500
A0101402510341331222001ROQUE OR ROLLY BOY ROQUE                                20500
A0101408370382433161001DR. CELINA Z. ANCHETA                                   20500
A0101402770391470722001GOTCHER, MELANIE                                        20500
A0101403320471417333001BERNADETTE T. CRUZ                                      20500
A0101407720602397494001ANTONIO LIMSON                                          20500
A1301400500684092779001DAVID, FELISA A.                                        20500
A4101400390813387835001LUNA, CHRISTEL                                          20500
B0101412890000000006982SHOEMIXX INTERNATIONAL INC.                              1601
B0601400100000000142178WENSHA ANGELES CORP.                                     1602
B0601400100000000142190TRIA, GINA GALANG AND CO, POBBY SY                       1602
B0101411400000000230231**********                                               1601
B0101403320000000522290FIREBIRD HOME DEVELOPMENT CORPORATION                    1604
B0101405650000000772787MACHINE-AID TECH PHILIPPINES, INC.                       1601
B0101400860011394967002**********                                               1605
B0101406040112036463001GOHOC BROTHERS INC.                                      1602
B0101406620273212676001**********                                               1601
B0101409050352040866001R.R. ENCABO CONSTRUCTORS & TRADERS                       1605
B0201400760374047828001MTO TECHNOTRENDS INC.                                    1601
B01014054903920389180021STSERVE LOGISTICS, INC.                                 1601
B0501400170481018109002****                                                     1604
B0101407720602047777001MEGAJOY POWER SOLUTION INC.                              1602
B1301400210682039698001SEVENTY SEVEN TRAVELLERS INN CORP.                       1601
B1701400230693041727001SHOP AND GO CONVENIENCE STORE                            1603
B4101400420814033668001PETRO VENTURE CORPORATION                                1602
B0101406750852026504002NORTH EASTERN TRADING & SERVICE                          1603
B0601400100081296256001CHRISTOPHER OR LOYA MALLARI FAO CHRISSAN                11603
B0601400100081296256001AUTO SUPPLY                                             21600
B0101401960121821100608**********                                               2005
B0101407430503821100608**********                                               2010
B2201400250561821100608**********                                               2010
