A0101401250000000020424BALIAO, JOVITA LINGGON                                   0503
A0601400360000000025652SAUNDERS, MICHELLE AGUILLON                              0502
A2401400180000000073572COLLINS, MARY JEAN RABAC                                 0501
A0101407720000000112170VILLENA JR., CONRADO MENDOZA                             0501
A4101400420000000120970REYAN S. LINCAY                                          0501
A0101406330000000162490TARP INK ENTERPRISES                                     0502
A0301400660000000194530JATTRO MARKETING                                         0502
A0301400660000000194821*****                                                    0501
A0301400660000000194832ESTANO, BEWEL JOY LEYSON                                 0501
A0101413600000000206711ESTER YARIN GORDON                                       0503
A1301400500000000213356DR. OSCAR C. RAMOS                                       0501
A5001400170000000213761ISAW, NEIL JOHN ATAYAN                                   0501
A0201400760000000223190WU, EDWINA GACAYAN                                       0503
A0101408370000000336161PADER, MICHAEL FERANIL                                   0501
A0101405650000000348867STA. MARIA, EVELYN CRUZ                                  0502
A0101412890000000371588CONSEBIDO, GILBERT OLIPAS                                0501
A0101408660000000372923MELENDEZ, AIKO SHIMOJI                                   0503
A0101408820000000408791OFIANGA, MARY GRACE SANTILLAN                            0501
A0101401250000000460513CORDORA, JOSEFINA REYES                                  0501
A0101411790000000469483JARLOC, ELIJJAH JOJI E.                                  0501
A0101404840000000475952GONZALES, ROWENA POLLICAR                                0501
A0101407690000000495432DAGUIO, ROSEFINA ENTOMA                                  0501
A0101407720000000510512SALUD, CARMENCITA ESGUERRA                               0501
A0101405650000000525911TORRES, ROD JEFFREY GUMABAO                              0501
A1301400210000000540958SYDNEY ENTERPRISES                                       0503
A2601400270000000561671EDGAR D. ZARA                                            0501
A4101400420000000710529NUEVA ESPANA, VIRGIE GERESOLA                            0501
A0101405650000000773035LAGARDE, SHEILA MORALES                                  0501
A0101408820000000840493GAMBOA, MARIVIC BAGUIO                                   0501
A0101409920000000857978ANNANG, DESIREE NAVARRO                                  0503
A0101409180000000874653CALABIG, APRIL CUSE                                      0501
A0901400220000000887987MUESCO, MAYBELLENE JOY ANDOG                             0501
A0101401700000000890411FREENOR AUTO SUPPLY                                      0506
A0101407690000000913600MARQUI AUTO SUPPLY                                       0502
A0101407690000000913882RELADO, DIANA ALBARINA                                   0501
A0101407690000000913917MANALAD, ARNOLD SEBASTIAN                                0501
A1001400350000000922092ARQUIZA, DAISY VICENTE                                   0501
A2001400290000000978269UYMATIAO, CATHLEEN AMIL                                  0501
A1301400210000000983815FELICITAS S SUNGA                                        0503
A0101405810000001021161***************                                          0501
A0101408240000001038733BANASIJAN, BARBARA CARMELLE CAB                          0501
A1001400190000001057523MEDA B. REYES                                            0501
A0101413310000001073789MARCELINO JR., MILTON ESTACIO                            0501
A5501400120000001121822DOMINGO II, DENNIS GOROSPE                               0501
A0101404000000001186841UY, WILFREDO CO                                          0502
A0101405940000001209950MENDOZA, LOVIEJEN PAGALUNAN                              0501
A0101401830000001281965DE GUIA, CATHERINE NAVA                                  0501
A0101401830000001281976TUNGCUL, MA. ANTONINA REYES                              0501
A0101413150000001288308******                                                   0501
A0101409210000001294297GO, JACQUELIN TIMPUG                                     0501
A0101412210000001347622DEDEL, STEPHANIE CORPUZ                                  0501
A0101412210000001347622DEDEL, STEPHANIE CORPUZ                                  0501
A0101405650000001377391GARCIA, ROSSANA GARCIA                                   0501
A0101402640000001536578BELAJE JR., BALBINO LAGADO                               0501
A0301400820000001554821ACLAO, MARILOU G.                                        0501
A2001400290000001557440PIELAGO, CAROLINA ENERO                                  0501
A2001400290000001557451ABELLA, ED ANTHONY AMISTOSO                              0501
A0101408400000001614773SANTOS, RENELYN CALDOZO                                  0501
A4101400550000001622480GATDULA, ISSER JOSEF VILLALUNA                           0501
A4101400550000001622491DICEN, SALVADOR DIVINA                                   0501
A0101403320000001646620LEE, LILY PENA                                           0502
A0101403320000001646664MANONG CHRIS TAPSILOGAN                                  0501
A2401400180000001677012EBITA, ALFREDO OPAO                                      0501
A0101413570000001682533JOHN C. BANDIOLA                                         0501
A0101406620000001686520SABORDO, FRETS VILLA                                     0501
A0101406620000001686542ENERO, SHERYLL TOLENTINO                                 0501
A0101404260000001725184DE PIO, MARIBEL PEREZ                                    0501
A0101403450000001769662CAMARA, MARY JHOANNE LAFINA                              0501
A1701400230000001786672JUAN, WALTER DEFIESTA                                    0501
A0101401700041189531001**********                                               0501
A0101401700041346070001MANUEL G. GABRIEL                                        0510
A0101401700041522660001HILARIO, MA. LOURDES MEDINA                              0502
A0101401700041583996001BORITO, ROGER BRAGAIS                                    0505
A0101401700041681145001GOLEZ, NAPOLEON PAUL KWONG                               0501
A0101400150061229814002LEONCIO C. LIM                                           0501
A0101400150061372223001RAFAEL ANTONIO R. MONTILLA                               0502
A0101400150061663651001********                                                 0502
A0101405810072365030001**********                                               0505
A0101400440161039070001LGRM ENGINEERING & CONSTRUCTION                          0510
A0101400440161314631001*****                                                    0501
A0101400440161478374062MARIA E. ERLANO                                          0501
A0101407270162331908031LINDA JALANDONI                                          0501
A0101401090171195770001ZENAIDA ELORDE RUBIO                                     0501
A0101400310211166714002AMELIA PAGDANGANAN                                       0502
A0101400310211487815001SALVADOR, ARCHIEVAL SARMIENTO                            0501
A1001400350233619429001DIONSON, JOEL PADOR                                      0501
A0101402640361041349001RBQ METAL STAMPING ENTERPRISES                           0505
A0101402640361340310003***********                                              0501
A0101408370382336346001DR. MA. FAIDA R. REYES                                   0502
A0101408950396645140001TATCO, VINCENT REYES                                     0501
A2401400180411478374050****************                                         0501
A1201400150421584791002JIMENEA, HERMENEGILDA CASTRO                             0501
A0101403030441241050001**********                                               0503
A0101403030441243441001**********                                               0502
A0101406330472296884001JAYLEE TRADING                                           0502
A0101406330472640430001JOHN MICHAEL S. PLAZA                                    0501
A0101406330472767447001MARY SUSAN D. DEVELLERES                                 0502
A1901400160491351582001CESARIO A ILAGAN JR                                      0501
A1901400160491416981001JOEL C ATIENZA                                           0501
A0101403580511499582001CELZO, MARILOU CAYETANO                                  0502
A0101403580511576080001ANNA LIZA R ABRENICA                                     0502
A0101403580511674338001ERLIZA M. GARCIA                                         0501
A0101403580511690056001GONZALES, SHARWINA WADJA                                 0501
A0101408530516558878001HENSON, HERSHEY KATE A.                                  0501
A2201400250561074416001JANNET D. FRANCO                                         0501
A0101407720602279984001AVELINA QUIENG                                           0501
A0101404260611153241002TAN, ESTEFANIA QUITALIG                                  0501
A0101404260611335308002ALIMBOYONG, JOSEPHINE MAHINAY                            0503
A0101404260611478374088MARIFE BARACENA                                          0501
A0101404260611478374114LUDIVINA DE PAZ                                          0501
A0101409890649047047001**********                                               0506
A1301400500684632780001REYES, MARK ANTHONY DIZON                                0501
A0101407560686047224001RAMA SECURITY A                                          0502
A0101408240711405456001ROMERO, SHELLEY ARCIAGA                                  0501
A2801400100712614019001PANGILINAN, ROMEL MALONZO                                0502
A4101400420814405680001TIBAYAN, CYNTHIA SAPUTIL                                 0501
A4101400420814478374152ANIAG, RUBYLYN                                           0501
A4101400550815478374008LORELYN C. PARCIA                                        0502
A0101404840851217637095MELINDA VILLAGOMESA                                      0501
A0101404840851368068003BALAGTAS, ROWELLDA CHIONG                                0501
A0101404840851520766105ALICAWAY, HELEN                                          0502
A0101406330000000011729GILBERT MILANA DBU GLOBE                                10502
A0101404000000000025436NOYNAY, MARVIN CAGASAN OR                               10501
A0101406330000000162467CARLOS, EDUARDO S. OR                                   10501
A1301400500000000213367ELMER S. CRUZ OR                                        10501
A5001400170000000213954LOPEZ, ISOLDE OR TAMAYO, AILYN                          10504
A5001400170000000213998DY JR., DIONESIO KIANG                                  10501
A0101411820000000477372FRANCESCA BIANCA MACAHILIG OR                           10501
A1601400170000000497478BIG BEN'S CARWASH &                                     10501
A0101409920000000857989ABUYUAN, NORA G. OR                                     10501
A0101407690000000913815PORTUGALETE, GLORIA DBU GOYANG                          10501
A0301400820000001006711BACAYANA, ROXANNA D. OR                                 10501
A0101412340000001017770MEMBERS OF NATASHA SHOECAT INC                          10501
A0101402510000001025983ROSITA/MARIE STELLA NAVARRO/                            10501
A0101402640000001054211ARCIETE, AGAPITO M. OR                                  10501
A0101410980000001154363MARIA LOUELLA M. HENSON OR                              10501
A0101412180000001293209SORIANO, JOIE PARAGAS DBU JPS                           10505
A1301400760000001295381NATALIE JANE C. BELEY OR                                10501
A1101400120000001547326TOLENTINO, EMMANUEL S. OR                               10501
A0101411240000001563366DELA CRUZ, MARIA THERESA                                10501
A4101400390000001732503RICAFRENTE, GINALYN DBU GELYN                           10501
A0101400310000001887938ELMER L. LAROSA OR                                      10501
A0301400660194731082088PEJI, JUNE ANN SOLER OR PEJI,                           10505
A0501400200292628141001BERMUDEZ, ELSIE M. OR                                   10501
A2001400290315356640001WEE, ENRIQUE HO OR WEE, VERNA                           10503
A0101408820333168060001MORDENO, AGUSMAR OR                                     10501
A0201400920375534474003CHUA, JEFFREY O. OR                                     10502
A0101408370382403238001DR. EUGENIO EMMANUEL V. REGALA                          10503
A0101403580511026941001CECILIA NARVAEZ Y DISENOS                               10502
A0101403580511289190002SERAFICO PLACER OR VERNIE BUNO                          10510
A0101406880513503655001SALAZAR, EDGARDO L. OR                                  10501
A0101407690652478374169MEDRAN, ESTELA RAVINA - DEALERS                         10501
A0101407690652525001059JENNIFER L GREGORIO - DEALERS                           10501
A0101408240711226201001GODOFREDO JR. OR VIRGINIA                               10501
A0101406330000000011729MARITIME TRAINING CENTER                                20500
A0101404000000000025436NOYNAY,JOCELYN                                          20500
A0101406330000000162467CARLOS, CECILIA A.                                      20500
A1301400500000000213367CRISTINA C. CRUZ                                        20500
A5001400170000000213954OR TAMAYO, SHEEN                                        20500
A5001400170000000213998OR DY, TESA TAN                                         20500
A0101411820000000477372RALPH ANTHONY MACAHILIG                                 20500
A1601400170000000497478REPAIR SHOP                                             20500
A0101409920000000857989ABUYUAN, JIMMY G.                                       20500
A0101407690000000913815MANPOWER SERVICES                                       20500
A0301400820000001006711BACAYANA, DANILO A.                                     20500
A0101412340000001017770SILAGPO, VIVIAN                                         20500
A0101402510000001025983MARIO POTENCIANO NAVARRO                                20500
A0101402640000001054211ARCIETE, CATALIN                                        20500
A0101410980000001154363ROMULUS A. HENSON                                       20500
A0101412180000001293209INTERNATIONAL TRADING                                   20500
A1301400760000001295381ALVIN M. BELEY                                          20500
A1101400120000001547326BASTIAS, ROSANNA Q.                                     20500
A0101411240000001563366GUITANG                                                 20500
A4101400390000001732503SMOKED AND DRIED FISH                                   20500
A0101400310000001887938MA. MERCEDITA T. LAROSA                                 20500
A0301400660194731082088JONATHAN CORTES                                         20500
A0501400200292628141001LEIZA JR., JUANITO Q.                                   20500
A2001400290315356640001LIZARDO                                                 20500
A0101408820333168060001MORDENO, ALICIA                                         20500
A0201400920375534474003CHUA, SHEILA FAT                                        20500
A0101408370382403238001OR MARY JANE M. REGALA                                  20500
A0101403580511026941001INTERIOR                                                20500
A0101403580511289190002OR GREZILDA DENSING                                     20500
A0101406880513503655001SALAZAR, CELESTE                                        20500
A0101407690652478374169OF SHOECAT INC.                                         20500
A0101407690652525001059OF SHOECAT INC.                                         20500
A0101408240711226201001GALINDEZ                                                20500
B0101407690000000025032GOLDLINK NETWORK SOLUTIONS INC.                          1601
B0101409210000000031272FIELD OUTSOURCE ASIA, INC.                               1602
B5501400120000000046842TACURONG FIT MART, INC.                                  1610
B2401400180000000073663CENTURY PACIFIC FOOD, INC.                               1610
B0201400760000000222762UY, JOHN CHIU OR JOHN JEFFERSON UY                       1605
B0101409050000000258520RIVERSTAR FOOD CORPORATION                               1601
B0101404260000000550150J4SC MANPOWER SERVICES                                   1602
B0301400950000000566923DAVAO TOPCHING AUTO PARTS                                1601
B0101411110000000604960STRADCOM INTERNATIONAL HOLDINGS, INC.                    1605
B0101408110000001199208INTERNATIONAL SPECIALTY APPAREL INC                      1602
B0101403320000001647138VASTCON ASIA CONSTRUCTION INC.                           1601
B0101401700041021915002CARITAS HEALTH SHIELD, INC.                              1601
B0101400150061033499002VICSAL INVESTMENT INC.                                   1601
B0101400150061735109001RIGA PROPERTIES CORPORATION                              1602
B0601400100081200942001CHENG, SZE KIT                                           1610
B0101401960121011794001KKK HEAVY EQUIPMENT & SUPPLY                             1601
B0101400310211027982001SAN FRANCISCO MIRROR CORPORATION                         1602
B0101400310211043559001FOODDALE ENTERPRISES, INC.                               1601
B0101406620273037461002FIRENZE CORPORATION                                      1602
B2601400270302555526001GALOPE, FERDINAND PUA JT                                 1602
B0101402510341031237001VIACAREM RESTAURANTS                                     1601
B0101402640361006208001VILLAGERS MONTESSORI SCHOOL OF Q.C.                      1602
B0101402640361720070001MEDCARE SPECIALTY CLINIC, INC.                           1602
B2401400180411016835001GENERAL TUNA CORPORATION                                 1605
B2401400180411330256033****************                                         1602
B0101403320471027450001*****                                                    1601
B0101406330472021511003ASSOCIATED WIRE CORP. OF THE PHILS.                      1602
B1901400160491290764001CASTOR CEPILLO-GONZALES ALDAY LAW OFFICE                 1601
B0101403580511005607002RAM FOOD PRODUCTS, INC.                                  1602
B0101403580511015363073MEC - EMD ANTIPOLO                                       1610
B0101403580511015363083MILLENNIUM ERECTORS CORPORATION                          1605
B0101403580511515198001ATMA INTERNATIONAL CORPORATION                           1601
B0101403450521022302001**********                                               1602
B0101404260611018794002HAVEN MONTESSORI, INC.                                   1601
B0101407690652041404001AUBURN POWER TECHNOLOGIES INC.                           1601
B0101407560686328631001**********                                               1603
B2801400100712024726001SWEET TOOTH CORPORATION                                  1610
B4101400260812681389001MARIVIC B AGUIBIADOR OR DAVID B CHARLTON                 1603
B3101400160000000429134MA ANGELA GARCIA AND LEONILO ERCIA                      11605
B1101400120000000652971FIL PRODUCTS SERVICE TELEVISION OF                      11620
B3101400160000000429134AND JULIETA PUA                                         21600
B1101400120000000652971TACLOBAN CITY                                           21600
