A6601400120000000060404NEBRIDA, AILEEN CORONG                                   0501
A1301400470000000061361M. S. JUNK SHOP                                          0503
A1701400230000000097789MACARAEG, MARY ANN CUA                                   0501
A1601400170000000099030JOREM L. ARCANGEL                                        0501
A0101404680000000120258FABELLAR CONSTRUCTION SUPPLY                             0502
A4101400420000000120663ROSALES, DARLENE PASCUA                                  0501
A0301400820000000316583CABALLERO, ANGELITA L.                                   0501
A0101405490000000355673PASCUA, VIOLETA ZACARIAS                                 0501
A0101409890000000437416DE JESUS, NAZARINA ONG                                   0501
A0101405490000000444513RYAN MARCK WONG JIMENEA                                  0501
A0101410140000000499429REYES, EVELYN VEGA                                       0501
A1301400210000000540970LIM, JO ANNE DALISAY                                     0501
A0101411660000000595331ANTON XANDRO S IBITA                                     0501
A0101413440000000702269PERALTA, BUENAVENTURA MARASIGAN                          0502
A4101400420000000710438QUIMBO, JANICE CARRANZA                                  0501
A4101400420000000710449BURAGAY, JENNIFER MALABANAN                              0501
A0101404680000000767033CLARITY EYE OPTICS CENTRE                                0502
A0101404680000000767153DENIA, TERESITA GELLANGARIN                              0502
A0601400520000000786461FELICIANO, ABIGAIL SANTOS                                0501
A0101401700000000890397JOSE BRAGAIS BORITO                                      0503
A0101401250000000907095SY, JANETH M.                                            0501
A1001400350000000922014PEARSON, PILARCITA ROA                                   0502
A0101404680000000940841K.V.K GENERAL MERCHANDISE                                0501
A0201400920000000991722MORILES, GRACIANO MELGAR                                 0502
A0101409050000000999620DIMZON, CARMINA AMOR GARCELLANO                          0502
A0101413310000001073734PLANILLA, SONIA PLANILLA                                 0501
A1401400110000001096219DEQUITO, RAJETA TINANA                                   0501
A0101403610000001174812ONG, WILSON SO                                           0501
A4101400260000001198621ALCAUSIN, EUGENE FREDERICK BAND                          0501
A0101406330000001235090MONTESSORI AT WORK PRE-SCHOOL                            0501
A0101406330000001235103DOLIENTE, DONDON TALINGDAN                               0501
A0101406330000001235114VILLANUEVA, JAN KEVIN MALLARI                            0501
A0101406330000001235125VIZARRA, EDDIEBEL GONZALES                               0501
A0101409210000001294220ESPINA, RUDINA CABALES                                   0501
A2001400290000001301233TUMALA, LYNDON DANDOY                                    0501
A0101407720000001393222DELA CRUZ, CHERADE LORAINE P.                            0501
A0101413600000001430580FETALVERO, CHAROBELLE TAN                                0501
A0101400440000001439841CINDY AGUSTIN BERNARDO                                   0501
A3101400160000001559202LIEZL A BOONGALING                                       0501
A0101402770000001570656BACLI, AVAH GIRON                                        0502
A0101402770000001570678DE GUIA, ADELINA MOGOTE                                  0501
A0101404680000001716467RIA V. VITO                                              0501
A0101404680000001716478JAUDINES, JOEBEL GONZAGA                                 0501
A0101401090000001808380********                                                 0501
A0101401700041191008001EDWIN NGO &/OR MARY CAROLYN NGO                          0503
A0101401090171532332001CHRISTIAN ARIS M. VALIX                                  0501
A0101401090171572611001PRADO, CHRISTIE RUBY DE JESUS                            0501
A1301400470252444744002PAMELA FAYE P. CRUZ                                      0501
A0101406620273215569001VIRGINIA M. RAFAEL                                       0501
A1101400120313478374106SALUBON, JEANILEN T.                                     0501
A6601400120314767084001VERANO, BARTOLOME ANONUEVO                               0502
A0101402510341198339002SOLINA M. ALER                                           0501
A0101409050352677949001KENNETH LAURENCE S. TIU                                  0505
A0101402770391536807001MANUEL, REYNALDO JR. RASIMO                              0504
A0101408950396381963001DR. EMMANUEL RAMOS KASILAG                               0501
A0101412210399094817013ROLANDO R. CRUZ                                          0502
A0101406330472027958001A. ANOLIN ENTERPRISES                                    0502
A0101406330472313284001ATTY. MAMERTO Z. MONDRAGON                               0505
A0101406330472402739001GINA C. VALLECER                                         0502
A0101406330472478374044ARMES SMITH B. ALVARADO                                  0501
A0101408530516578215024CRISTIAN F. HALAL                                        0501
A0101411400517381317168*******                                                  0501
A0101403610531302317002NORVIC D. SOLIDUM                                        0501
A0101403610531478374002GRAPE, IMELDA HANDOG                                     0501
A0101403610531682827001LU, ZISHAO                                               0505
A0101407720602318369117ORLANDO A. RUIZ                                          0501
A0101407720602348840002MACALINTAL, CLAVEL MARANAN                               0502
A0101407720602381639001LANDICHO, MARIA PRINCESS M.                              0501
A0101407720602404060001MARZO, MARIA ROWENA FERNANDEZ                            0502
A0101404420631478374130SUSANA S. TIANGCO                                        0501
A0101404680651041629001JDC ADVERTISING                                          0501
A0101404680651520766175NIMFA C. RANARA                                          0501
A0101404680651570260001ALMA A. UMAYAM                                           0501
A0101404680651677190001DINA F. CANTA                                            0503
A0101410300663743154001BULAHAN, MARGARITA MARQUEZ                               0501
A1301400210682073330001MICHAEL M AQUINO                                         0501
A1301400210682478374051IRMA S CRUZ                                              0501
A0101407560686177520001WILFREDO A. MENOR                                        0503
A0101407560686471853001MELITON D. PONGOS                                        0501
A0101407560686506885001**************                                           0505
A4101400420814520766106TORINO, MELIZA                                           0501
A4101400420814520766131LACSON, MELIZA FRANI                                     0501
A0101404840851520766062LUZ C. BACTOL                                            0501
A0101404840851520766066CYNTHIA A HERMEDILLA                                     0503
A0101406750852081045001RAGAT, GERALDINE DELA CRUZ                               0501
A0101406750852643816002TOYONAGA, JENETTE BARTOLOME                              0501
A0101402770000000080624WALLY W XU OR BERNADETTE S YUE                          10503
A0601400360000000225312SUAREZ, GLORIA DE LEON OR                               10502
A0101408370000000335675SKYWAY KITCHENETTE AND                                  10501
A1601400170000000497456GERARDO DG. GARCIA OR                                   10501
A2601400270000000561619RAUL T. SAWIT OR CARMELITA A.                           10502
A0101401670000000739140PESSUMAL, LOKESH KUMAR HASSARAM                         10501
A0901400220000000887954ALANANO, NATHANIEL P. OR                                10501
A2001400290000001301222JUCOY, APRIL MARIE VINCHELLI                            10501
A0601400520000001349560MAGAT, ALLAN MANLAPIG DBU MAGAT                         10501
A3101400160000001559213IAN GARY C DELA TORRE                                   10501
A0101401250021528042001UBALDE, JUMAR TALENTO OR                                10501
A0101400150061356288002FERNANDEZ, MA. EDINA T OR                               10502
A0601400360083047383001SURE HIRE EMPLOYMENT                                    10502
A0101407270162642564001BEATRICE E. DE SANTOS OR MARIA                          10501
A0101402770391214496001FRANCISCO KUAN WONG OR                                  10505
A0101402770391380845001ANGEL ALLA P. JUAREZ JR. &/OR                           10502
A0101402770391638700001TREVOR ROSS MCNELLIS OR                                 10502
A0101406330472433082002PAULINA LONTOC OR PATRICIA                              10502
A0101403610531182250001NERECENA, SYLVIA S.  OR                                 10503
A2201400250561255737002WILFREDO Y. SAWIT                                       10501
A0101407720602161863003ROBERTO K. MACASAET OR                                  10502
A0101404680651520766108SANDY V. SANTOS OR                                      10502
A0101406590662043442001GODS BLESSINGS COPY CENTER &                            10504
A0101407560686369745001LORENA B. BURIEL OR                                     10502
A0101408240711046744001NAGTALON, B DBU SINCERAE                                10501
A0101402770000000080624OR HAI L MA                                             20500
A0601400360000000225312PONCE, MARLYN DE                                        20500
A0101408370000000335675CATERING SERVICES                                       20500
A1601400170000000497456CHRISTINE MARIE C. GARCIA                               20500
A2601400270000000561619SAWIT                                                   20500
A0101401670000000739140OR JYOTI HASSARAM                                       20500
A0901400220000000887954ALANANO, MADELYN A.                                     20500
A2001400290000001301222APUHIN                                                  20500
A0601400520000001349560ACCOUNTING FIRM                                         20500
A3101400160000001559213JACQUELINE A DELA TORRE                                 20500
A0101401250021528042001UBALDE, ALONA POTESDA                                   20500
A0101400150061356288002FERNANDEZ, VERNO                                        20500
A0601400360083047383001SERVICES, INC.                                          20500
A0101407270162642564001VICTORIA E. JALU                                        20500
A0101402770391214496001JOYAL KUAN WONG                                         20500
A0101402770391380845001LAURA P. JUAREZ                                         20500
A0101402770391638700001CHRISTI MICHELLE                                        20500
A0101406330472433082002LONTOC                                                  20500
A0101403610531182250001NERECENA, SHIRLEY ANNE                                  20500
A2201400250561255737002OR JOSEFINA B. SAWIT                                    20500
A0101407720602161863003VIRGINIA M. RAFAEL                                      20500
A0101404680651520766108HELEN G. SANTOS                                         20500
A0101406590662043442001BOOKBINDING SERVICES                                    20500
A0101407560686369745001JIMMY D. BURIEL                                         20500
A0101408240711046744001BAKESHOP                                                20500
B4101400260000000002295KARETEXT CO., INC.                                       1601
B1901400160000000007467FIRST UNITED 23, INC.                                    1604
B0101405650000000013087ELECTROBIO 1 COMPANY                                     1601
B1001400350000000017143VEPCO GROUP DISTRIBUTION CORP.                           1601
B0101401700000000030064**********                                               1602
B0101413440000000038213ROMBE PHILIPPINES, INC.                                  1603
B0101413020000000038435AVITEK ANIMAL HEALTH INC.                                1603
B1001400480000000133571************                                             1603
B0101410980000000171975AMMC - AVERY MANILA MARKETING CORP.                      1602
B0101406620000000193953PROSALES MARKETING CORPORATION                           1601
B0101406330000000432619INNOVATI INTERNATIONAL INCORPORATED                      1602
B0301400820000001185757SUNGA HOSPITAL                                           1603
B0101403610000001450919P.A. METRO RESIDENCE BUILDERS, INC.                      1604
B0101401700041035489001LUSH ENTERPRISES CORPORATION                             1604
B0101401700041189031003JONATHAN C. TUBLE                                        1610
B0101400150061687247001**********                                               1602
B0101407270162043415001MY HAPPY FARMER MACHINERY CORPORATION                    1601
B0101408820333037098001**********                                               1601
B0101402060351009544002RI CHEMICAL CORPORATION                                  1602
B0101408370382567953001MANTRA RESOURCES CORP.                                   1602
B0501400170481023482001ARZADON LEISURE CORPORATION                              1605
B0501400170481038907001JODERON AUTO SUPPLY                                      1605
B0101407430503029217001JUBILEE LOGISTICS CORPORATION                            1602
B0101405940512022289003MGNP, INC.                                               1605
B0101405940512023235001LIKAS YAMAN SERVICE CORP.                                1603
B0101405940512026227001LIKAS SHIP AGENCY INC.                                   1601
B0101405940512030805001METRO MANDAUE SERVICE CORP.                              1601
B0101408530516037477003VXI GLOBAL HOLDINGS B.V.                                 1605
B0101403450521011838001**********                                               1602
B0101403610531044399001AURORA QUINTO ESPINO TRUCKING                            1603
B0101404260611028921001KICEM TRADERS AND CO. INC.                               1610
B0101404680651027210001FIRST MULTI AREA PROPERTIES COMPANY                      1603
B0101406590662659846001THE KIMBERLEY PLACE INC.                                 1601
B4101400550815000593001IMUS RURAL BANK, INCORPORATED                            1601
B0101400730000001016584SAFETY UTILITIES FOR MARITIME AND                       11605
B0601400100081256915011KWONG, WILLIAM GONZALES OR ANTONIO                      11602
B0101405940512038848001JADE ENTERTAINMENT AND GAMING                           11603
B4101400550815040997003MAHARLIKA CONCRETE PRODUCTS AND CONST.                  11601
B4101400550815040997004MAHARLIKA CONCRETE PRODUCTS AND CONST.                  11601
B0101400730000001016584COMPUTER SYSTEMS                                        21600
B0601400100081256915011ADELA LUBO                                              21600
B0101405940512038848001TECHNOLOGIES,INC                                        21600
B4101400550815040997003SUPPLY                                                  21600
B4101400550815040997004SUPPLY                                                  21600
B0101407300395821100608**********                                               2003
B0101407720602821100608**********                                               2005
B0101404710681821100608**********                                               2004
