A0201400890000000027990MULLEY, AIRIZA ACIDO                                     0501
A4101400390000000034113MALAJITO, ERLINDA SERRANO                                0501
A3001400130000000931333K AND S ENTERPRISES                                      0502
A0101412890000001765573******                                                   0501
A0901400220000001805083**********                                               0502
A1201400150000001863276KLEMSON MEDICAL SUPPLY                                   0502
A0601400100000002099396MIRANDA, VINCENT CARLO SANTIAGO                          0502
A1301400470000002299870PINE, MANUEL BIEN SALVADOR                               0505
A0101400440161537092001EVANGELINE R. BAUTISTA                                   0501
A1001400190231275093001CAUMBAN, CRISTY MARIE                                    0502
A1001400190231520766034BONITE, ABUNDIA                                          0502
A1001400190231520766085OBSIOMA, MADELYN A.                                      0501
A1001400190231520766104MAMBUAY, JOSEPHINE WABE                                  0501
A0201400760374042274001MPC TRADING                                              0508
A0101402770391037093001TVNK ENTERPRISES                                         0501
A5501400120410616229001ESCANO, CLAIRE BASAN                                     0502
A1201400150421252791002JIMENEZ, LORENZA M.                                      0501
A1201400150421584791002JIMENEA, HERMENEGILDA CASTRO                             0501
A0101406330472217737001ARR MARKETING & GENERAL MDSE.                            0501
A2801400100712553031001PROHHOROV, GINA OCOL                                     0501
A4101400260812491679001JUN JUN E. COMIA                                         0504
A0601400230891698269001DIMABUYU, LESLIE BALUYUT                                 0501
A0301400790000001244575ARMIAN, RAUL DBU HOMELAND                               10501
A0601400520000001349662TIMBOL ROMAN MANALOTO                                   10501
A3401400280000001723440EDUQUE, JESSIE ECARAN OR EDUQUE                         10501
A3001400130230757981001SACAY, RENE CANTOR OR SACAY,                            10505
A0101402770391748160001MANUEL T. MABALOT OR                                    10501
A0101403580511152926001MARIO T. MANANGHAYA OR                                  10503
A0301400790000001244575BIKE SHOP                                               20500
A0601400520000001349662ACCTNG & TAX CONSULTANCY                                20500
A3401400280000001723440RUELYN CAPUNONG                                         20500
A3001400130230757981001JOSEPHINE SIMBIT                                        20500
A0101402770391748160001TEOFISTA V. MABALOT                                     20500
A0101403580511152926001REMEDIOS C. MANANGHAYA                                  20500
B0101403580000000015790MEC - SFHS                                               1610
B5501400120000000046940MARMONEJO, HERNANE AND MARMONEJO, RENE                   1601
B0101400440161037708002RD CASH PADALA, INC.-AREA 1                              1603
B3101400160221028210002GOLDEN DRAGON MOTOR SALES CORP.                          1601
B0201400760374745313001EVO ENVIRO SOLUTIONS, INC.                               1603
B0101402770391009429001VALLEY GOLF & COUNTRY CLUB INC.                          1604
B0901400220432047388088432-001509-3                                             1602
B1401400110492031376001LUCENA WHEELER ENTERPRISE INC.                           1601
B0101403580511046747001HUDDLE ROOM MEDIA INC.                                   1602
B4101400390813021892003FAREMO INTERNATIONAL, INC.                               1610
B0201400760000000040291KARGADOOR LOGISTICS CONSULTANCY                         11601
B0601400100081552299001ANDREW ONG OR ONG ING LEE OR ANSON ONG                  11605
B0201400920375047524001CUBAROL, VILMA SARMIENTO DBU                            11604
B0101403580511027824001LEROSE REALTY MANAGEMENT &                              11602
B0201400760000000040291SERVICES                                                21600
B0601400100081552299001OR EMILIA HAO                                           21600
B0201400920375047524001NEW FRONTIER LOG                                        21600
B0101403580511027824001DEVELOPMENT, INC                                        21600
B1401400110492821100608**********                                               2003
