A3101400160000000006420PROCESO CABATO PCC MIX TRADING                           0503
A0101407270000000010106DENIS RICARDO LUCINDO                                    0503
A0601400360000000025641JEE, SEUNG JIN                                           0502
A1101400120000000065103BELLO, TERESITA CASTARITAS                               0501
A0101403320000000067510HESLET, MARY GRACE LERO                                  0502
A0101402480000000310669**********                                               0502
A0101413280000000312661**********                                               0501
A0101403320000000452333RIVERA, EFREN ESTACIO                                    0501
A1601400170000000497423MENCHU R. BUADO                                          0501
A0101405650000000525739RUFA MACABENTA                                           0501
A2601400270000000561671EDGAR D. ZARA                                            0501
A0301400950000000566661******                                                   0501
A0101408790000000579324MARTINEZ, RAUL SANTOS                                    0504
A0101408530000000594310FORSYTH N. CORDERO                                       0502
A1401400110000000628502MANALO. GLORIA GARCIA                                    0501
A0101412760000000767784YU, J DBU PRIME CUTS SOURCE GEN                          0503
A0101408950000000776552FAVIA, WALBERTO DE BELEN                                 0501
A0101408950000000776694ALVAREZ, YSMAEL BUAN                                     0501
A0101402480000000794407CHUA, ENRIQUE OR CHUA, AIDA                              0503
A0101402930000000859758CELFO, R DBU R.F. CELFO FINANCI                          0502
A0101413020000000880531***************                                          0501
A0101410300000000919604JARO, ANNA LIZZA A.                                      0503
A0101408790000000931059***                                                      0501
A3001400130000000931333K AND S ENTERPRISES                                      0502
A1301400340000000980201ROMASANTA, ABEGAIL LLORENTE                              0502
A5001400170000001003421LEYNO, KATHERINE MARAON                                  0505
A0101413730000001029543*********                                                0503
A16014001700000010689460000-001068-946                                          0502
A0101412210000001236282CLIMACOSA, ARACELI MAYORES                               0501
A0601400520000001349617TIATCO, LIRNA PINEDA                                     0502
A0101413440000001472806ONGTIOCO, ELSIE BAUTISTA                                 0504
A0101404680000001617363MUTUC, RENATO LOPEZ                                      0501
A4101400390000001732634RULL, FLORDELUNA DAZA                                    0501
A0101412890000001765620HEADS UP RECRUITMENT SPECIALIST                          0501
A0101412890000001765631CATALIG, LYDIA LANDAYAN                                  0501
A4101400260000001783720GACIAS, NIZAN DOMANAIS                                   0501
A1101400120000001920667CAMENFORTE, NEIL MONASTERIO                              0501
A0101402480000001927711**********                                               0502
A2201400250000002337880ITO, RUBY YUMUL                                          0501
A0101410850000002356732GALE, WILPHA ANGEL                                       0501
A0101400860011397165002**********                                               0503
A01014008600114120030015*********                                               0505
A0101400860011495810003**********                                               0501
A0101400860011496074002**********                                               0501
A0101401700041189400002**********                                               0501
A0101400150061226356001ALELI R. SANTOS                                          0501
A0101400150061434843001IGNACIO, MARIA CHRISTI-ANNA LAW                          0501
A0101400600071233718001YOLANDA VILLAR                                           0501
A0601400360083649312001KIM, KANG WOOK                                           0502
A0101400440161520766193LEILANIE P. LOCSIN                                       0502
A0101400440161525001094MARIFE M. ENDE                                           0502
A0101407270162496878002ABIGAIL SULVITA                                          0502
A0101407270162560664001LOURDES HYACINTH P. MARTINEZ                             0501
A0101401090171195873003IRENEO, JOSE MARQUEZ                                     0503
A0101407140213483164001TAN, WILLIAM LAO                                         0502
A1001400190231235649001DUGADUGA, METHOSALEM                                     0502
A1301400470252478374027RICA D. SANTIAGO                                         0501
A6601400120314615650001BUBAN JR., GREGORIO GODOYO                               0501
A6601400120314621360001DADIA, PHILIPP JOHN OR IVY                               0501
A2001400290315685595001TAGLE, FE MARIE DICEN                                    0501
A2001400290315685595001TAGLE, FE MARIE DICEN                                    0501
A0101402480331022723001**********                                               0501
A0101402480331223926001ANGELITA C. GAW                                          0502
A0101402480331329844001*******                                                  0502
A0101402480331373359001**********                                               0503
A0101402480331424449001****************                                         0501
A0101402480331478374052FELOMINA, SHIRLEY                                        0501
A0101402480331478374160MIRAFUENTES, MARELYN                                     0504
A0101402480331520766126BODESTYNE, CECILIA                                       0502
A0101408820333478374064GINA T. LUIS                                             0501
A0101402510341204644001DE NULLY, CORAZON MORANTE                                0504
A0101402510341511864003JACALAN JR., TIRSO WILLIAMS                              0501
A0101402060351377158001CALIZON JR., MOISES VILLACORTE                           0501
A0101402930381206349001LEILAND P. BRUNO                                         0501
A0101402930381381233001LEAH LIZETTE M. ESGUERRA                                 0501
A0101408400394037996001*******                                                  0501
A0101408400394542845001PINEDA, DINDO DOMINGO                                    0501
A0101408400394563581001ISON, AMERIZZA GOMEZ                                     0501
A0101408400394780020001ALAWIYA, MOOMINA DATUMANONG                              0501
A0101408950396564553001NEIL STEPHEN ANGELO A. TORRES                            0501
A0101408950396583694001VILLAGOMEZA, ELSA GUERZO                                 0502
A2401400180411516002001GAVINO, RHEA MEA LAUREA                                  0501
A0101403320471209242001AGUEDA D. LOPEZ                                          0501
A1401400110492543449001ACEITUNA, MYRNA CANZON                                   0501
A1401400110492620230001DELOS SANTOS, ENRICO PEREZ                               0503
A0101407430503478374009HAIDEE F. LIM                                            0501
A0101405940512618356001CHAN, CHRISTIANE SHERWIN D.                              0501
A0101403450521239921088*********                                                0510
A0101407720602398795001*************                                            0503
A0101404260611150902001MARITESS OR BERNARD PAMA                                 0501
A0101404260611478374023OLIVIA M. PAMITTAN                                       0501
A0101406590662711800002ROQUE, EVELYN VALDOMAR                                   0502
A1301400210682539468001RAYMOND H CHUA OR NOEMI G CHUA                           0501
A1301400340683542735002BIUNAS, REMEDIOS GREGORIO                                0501
A1301400340683639556001DOMINGO, EDNA LARRACAS                                   0502
A0101404840851320776034MA. CRISTINA DOVAL SANTOS                                0505
A0101407720000000713040REVILLA, VICENTE G. OR                                  10502
A0101410300000000919433LEJANO, EDUARDO B. OR LEJANO,                           10501
A0101412760000001399846BOX, JANUARIO DBU BRAINCHILD                            10501
A1101400120000001920612MANUTA, HAIDE LIZ S. OR                                 10501
A0601400100081358739001CHUA, IRENE ANUNCIACION                                 10503
A0101400730111478374112STO DOMINGO, CONSTANCIA                                 10501
A0101407270162642564001BEATRICE E. DE SANTOS OR MARIA                          10501
A0501400200292628141001BERMUDEZ, ELSIE M. OR                                   10501
A2001400290315666711001MARIUS CRESENCIO C ONGCOG OR                            10503
A0101402060351697463001DANNUG, RAPHAEL ANTONIO CARLOS                          10502
A0101402930381206638001PETER F. TANCHI OR                                      10502
A0101408370382205133001DR. ROWENA P. RIVERA OR                                 10503
A0101407720602398224001CUSTODIO, DEOGRACIAS BANABAN                            10501
A0101408240711383150001AURELIO III OR AURELIO JR.                              10501
A0101407720000000713040REVILLA, ALEJANDRO L.                                   20500
A0101410300000000919433MARIA LUZ J.                                            20500
A0101412760000001399846MARKETING SERVICES                                      20500
A1101400120000001920612MANUTA, MICHAEL ARMAN B.                                20500
A0601400100081358739001OR REYES, GLORIA                                        20500
A0101400730111478374112CHARLENE                                                20500
A0101407270162642564001VICTORIA E. JALU                                        20500
A0501400200292628141001LEIZA JR., JUANITO Q.                                   20500
A2001400290315666711001AGRIPINE THERESE L ONGCOG                               20500
A0101402060351697463001OR DANNUG, MA. D                                        20500
A0101402930381206638001DEONNA H. TANCHI                                        20500
A0101408370382205133001REBECCA P. RIVER                                        20500
A0101407720602398224001OR CUSTODIO, ELEANOR                                    20500
A0101408240711383150001OR AARON LITONJUA                                       20500
B6601400120000000022306NORTHERN SAMAR COLLEGES, INCORPORATED                    1602
B0101402480000000045656******                                                   1602
B0101409050000000258560DIVINE VALUES CORPORATION                                1601
B0101408790000000599873AUGUST ALLIANCE BUSINESS CORPORATION                     1602
B0101411240000000629287**********                                               1601
B0101400150000000633469RNB TRAVEL AND TOURS CORPORATION                         1602
B1101400120000000652879TY, WILLIAM LOBRIO OR TY, MARILOU CHU                    1605
B0101402480000001100143KOINONIA HAULING AND SALES INC.                          1602
B1701400230000001159148AUTO - MEKANIKO MULTI TRADE CORPORATION                  1601
B0101408110000001199242ABLEGLOBAL LOGISTICS PHILS. INC.                         1605
B0101402480000001562323APARTMENT R US CORP.                                     1602
B0101402480000001927506**************                                           1604
B0101405490000001935651SIRIS PEOPLE MANAGEMENT SOLUTIONS INC.                   1601
B0601400230000002649927MJ EXPRESS CREDIT INC.                                   1605
B0101400860011044742001IRONTRADE ENTERPRISES, INCORPORATED                      1605
B0101400600071233745001**********                                               1604
B0101407270162039491001UMALAG FARMS, INC.                                       1602
B0101401090171007903001TIME REALTY, INC.                                        1602
B0101401090171016138001BETTER HEARING PHILIPPINES, INC.                         1601
B0101407140213387771002**********                                               1605
B3101400450223365119002VICTOR HUGO ENERGY CORPORATION                           1601
B0101401670271026611001MERGE MARKETING STRATEGISTS INC.                         1601
B0101401670271668276001QUORUM HOLDINGS (QHC) CORPORATION                        1602
B0101402480331010039001**********                                               1610
B0101402480331030127001NITO SEIKI MANUFACTURING CORPORATION                     1601
B0101402480331046192001**********                                               1610
B0101402480331223805002**********                                               1601
B0101402480331433595001**********                                               1603
B0101402480331540978001***************                                          1601
B0101402510341020561003PHILIPPINE PHARMACISTS ASSOCIATION                       1601
B0101402510341027854001*****                                                    1601
B0101402060351041410001MSI-ECS PHILS., INC.                                     1610
B0101402060351073248001CIANEZ CORPORATION                                       1602
B0101402060351742540001AGTRIZ CORPORATION                                       1602
B0101402930381009648001CHRIST'S COMMISSION FOUNDATION, INC.                     1610
B1201400150421252652002SAFARI LODGE, INC.                                       1601
B0101407430503036006002COGENT FREIGHT FORWARDING                                1602
B0101403450521017837001**********                                               1601
B0101403450521042526001HOPE CHRISTIAN HIGH SCHOOL, INC.                         1602
B0101403450521088223001*********                                                1601
B0101404130601016662001PAYROLL SERVICE PROVIDERS, INC                           1603
B0101408240711691416001FIVESOME INC.                                            1601
B0601400100081022878001DM CRISSAN AUTO SUPPLY & CAR ACCESSORIES                11602
B0101401090171008455001UNIVERSITY OF SANTO TOMAS FACULTY UNION                 11615
B0101408400394047325001VICLOR MICROLENDING INVESTOR                            11602
B2401400180411026932003NOTRE DAME BUSINESS RESOURCE CENTER                     11602
B1401400110492046364001GROUP AFFILIATES INTERACTIVE NETWORK                    11605
B0601400100081022878001SAN FERNANDO                                            21600
B0101401090171008455001(USTFU)                                                 21600
B0101408400394047325001CORPORATION                                             21600
B2401400180411026932003MTTP                                                    21600
B1401400110492046364001MANPOWER SERVICE                                        21600
B0101402480331821100608**********                                               2010
