A0101400860000000031603**********                                               0502
A0101401090000000037841XERILLE MARJO V. CRISTOBAL                               0501
A0101413150000000038480**********                                               0501
A0101409210000000043803GONZALEZ, ANA PATRICIA WARREN                            0501
A5501400120000000047276LEGARIO JR., SONNY AJERO                                 0501
A0201401020000000056357SALA, JUBELEN MANSING                                    0501
A0101410300000000191951ANGULUAN, PAUL ARIS A.                                   0505
A0101402640000000201969HELEN MILLEZA                                            0502
A1301400500000000212951GUILLERMO, ALVIN MANLAPIG                                0505
A0101410140000000482688ZHANG, JIN YUAN                                          0505
A0101410140000000499372MARVIDA, FRANCIS BORROMEO                                0501
A4101400420000000710198ROLITA R. GOMEZ                                          0502
A0101411080000000805798*****                                                    0501
A0101402930000000859770METT MOTIVATIONAL ENGLISH TRAIN                          0502
A1001400350000000922309CASINO, RAYMUND LAO                                      0501
A2001400290000000924492LABRADOR, FELICIANO JR. DESUSA                           0501
A1001400190000001057545JAIME C. BEDRO                                           0501
A0101413570000001069450**********                                               0501
A0501400200000001081123OYAMAN, GINALYN ABANDO DBU G.O.                          0502
A0101412500000001146758MARIANO, RICHEL PELIGRO                                  0501
A0101411820000001356805MICHAEL CRUZ DRIS                                        0501
A3101400160000001559122BASA, GABRIELA MARIFOSQUE                                0501
A0101403450000001637885*****************                                        0502
A0101404260000001725504BVN INFORMATION TECHNOLOGY SOLU                          0501
A0101405070000001726103DE LEON, ERANIO DBU ERANIO T. D                          0505
A0101410560000001944083GABAS, EVANGELINE ESPONILLA                              0501
A0101408950000002255307BERTOSO, SHEILA ESPINA                                   0501
A0101408370000002264079CHRISTOPHER A. SANTOS M.D                                0501
A0101413990000002273941CARAMANZANA, EDGAR MABORANG                              0501
A0101407560000002307591YAO, VICENTE TY                                          0501
A2201400250000002337931GERTRUDES L. MERCADO                                     0503
A1301400210000002908934MARIN, EDWIN BRADBURY                                    0502
A0101400860011395625002**********                                               0502
A0101400860011402778002**********                                               0501
A0101400860011539633001**********                                               0505
A0101400860011540778001**********                                               0503
A0101400860011548447001**********                                               0505
A0101400860011549648001**********                                               0505
A0101400860011565007001**********                                               0501
A0101401700041522660001HILARIO, MA. LOURDES MEDINA                              0502
A0101400600071235573001**********                                               0501
A0101400600071384165001********                                                 0501
A0101400730111386485063lYNETTE E. BENDANILLO                                    0501
A0101401830141288964001ATTY. JOCELYN C. ZABALA                                  0501
A0101401830141404416002MAYLA L. UNGOS                                           0501
A0101401830141541569001LUSPO, MARIA CARMINA AVANEZ                              0503
A0101400440161478374198EUFRONIA I. BERGONIA                                     0502
A0101400440161525001025JUANITA D. LADI                                          0501
A0101400440161525001139JEMARIE S. SALUDAR                                       0501
A0101400440161532798001MARILYN A. MONIS                                         0502
A0101401090171196091001BUENA FE APEPE M.D.                                      0501
A0101401090171491755001OLIVIA C. GO                                             0501
A0101401090171640963001JOSEPH OR MARITES CRISTOBAL                              0501
A3101400160221386295002ROBERT J. BANATIN                                        0501
A3101400450223038238001QCP ENTERPRISES                                          0502
A3101400450223222189002ARDINA, FELICIDAD OR EDWIN                               0502
A1001400190231478374075BARRON, LORNA                                            0503
A1001400350233539705001SIMBAJON, ELENA P.                                       0502
A0101406620273289804001MARY ARLENE P. SATUITO                                   0503
A2001400290315688009001ALGOPERA, LLOYD GARCIA                                   0504
A0101402510341196451001EDMUNDO R. BADOLATO                                      0504
A0101402510341433983007********                                                 0505
A0101402060351217440026CARLOS III, MENELEO G.                                   0501
A0101402060351445404001ACOSTA, REYNALDO DELA TORRE                              0503
A0101409050352645570003MYRNA P. CUASAY                                          0501
A0101409050352716164001ANYAYAHAN, EDWARD GONZALES                               0502
A0101402930381080348001FERNANDEZ, ESMERALDA CASTRO                              0502
A0101402930381478374009MARIVIC R. DELA CRUZ                                     0501
A0101402930381478374015DIMARANAN, ARNOLD ABEJERO                                0501
A0101408370382391637001DR. REGINA Y. SANTIAGO-AQUIAS                            0502
A0101412210399094817012BAYLON, JOSE BAYANI DICHOSA                              0502
A5501400120410616229001ESCANO, CLAIRE BASAN                                     0501
A0101403030441795533001**********                                               0503
A1901400160491546773001IRENEA M ERLANO                                          0501
A0101408530516044264001DATA ART DESIGN & PRINT SERVICE                          0501
A2201400250561339917001FELICIDAD MIRANDA SANTOS                                 0502
A0101407720602165575005DR. MA. VICTORIA G. BELO                                 0505
A0101404260611005266001SHAMM PHOTO SUPPLY                                       0503
A0101404260611478374130CECILIA G. ALOQUINA                                      0502
A0101404260611493062001NACINO, BERNADETH VILLAR                                 0501
A0101404420631478374074LALAINE L. TUPAZ                                         0502
A0101404420631478374124SONIA T. LUBRICO                                         0501
A0101413440655055236001D. ARZANAN ENTERPRISE                                    0501
A1301400340683326418001BERBOSO, MARIO TRINIDAD                                  0502
A1301400340683406123001TOBIAS, SUSANA FULGENCIO                                 0502
A0101407560686566423001***********                                              0505
A1701400230693478374013ZENAIDA M. FERRERAS                                      0501
A2801400100712492404001PINTO, LORENA CABALIDA                                   0501
A4101400390813246359002LEGASPI, NORLINDA RODRIGUEZ                              0503
A4101400390813478374062DE SILOS, RUBY MAE                                       0501
A4101400420814520766119OMNOS, NOVA DESCARTIN                                    0502
A0101404840851368068003BALAGTAS, ROWELLDA CHIONG                                0502
A0101404840851478374115ERLINDA O. PRADO                                         0501
A0101404840851520766037MAGDALENE DE GUZMAN                                      0502
A0101404840851520766092VIOLETA G BERMAS                                         0506
A0101404840851520766165MERLIE S. ELIAS                                          0501
A0101405070861085405001AVENIDO, GLEN ISIP                                       0501
A0101405070861194798002MARISSA S. DIONES                                        0504
A0101405070861197611001TIU, DANNY TY                                            0501
A0101405070861397365001UEDA, EDRALIN DUBLIN                                     0501
A0101405070861478374066ELMER LADRES APAS                                        0501
A5501400120000000046922CHIU, VALENTIN & JULIA EILEEN                           10502
A0101409050000000999642CASTILLO, ASHRICK REIGN BELLO                           10501
A0101405070000001124350DESCALZO, MARIA KHARIN H. OR                            10501
A0101400570000001134212GERRY C. ABANILLA                                       10503
A2201400250000001545580MEMBERS OF NATASHA (SHOECAT INC                         10501
A3401400280000001723495JENNIFER G ONG OR JOHN OWEN ONG                         10501
A0101400150061233523001BANGAYAN, TEOFILO OR                                    10506
A1301400470252428900001JUAN NEPOMUCENO OR                                      10501
A0101400570281551802001SHERYL LYNN A. YU                                       10505
A2001400290315636761001VILLABERT, WINSTON TAN OR                               10505
A0101402930381283088002JOSEPH VINCENT A. ALBA OR                               10503
A0101402930381305156001REDEMTOR S. DIAZ OR                                     10503
A0101402930381505507001TRINOS, ROCHELLE VERANO OR                              10502
A0101402930381566712001JOYSA GARCIA OR DANIEL BONDAD                           10501
A0101408370382397942001DR. JULIETA S. MAHUSAY OR                               10505
A0101411660384047607001QUEEN'S LAIR HAIR CARE AND                              10505
A3801400170490756116001ALEXANDER E ROJAS OR                                    10501
A0101403580511156550001TERESITA DUNGO OR                                       10502
A2201400250561258530017ROBIN P. ROMERO                                         10501
A2201400250561299317001MIRASOL M. SAN SEBASTIAN OR                             10502
A0101405070861200162001NOEL H. GARCIA OR                                       10501
A5501400120000000046922CHRISTIAN & CHRISTEL                                    20500
A0101409050000000999642OR AQUINO, MA. F                                        20500
A0101405070000001124350DESCALZO, LUZVIM                                        20500
A0101400570000001134212DBU LAIYA GRILL                                         20500
A2201400250000001545580GAUDIOSA A. WAGE                                        20500
A3401400280000001723495OR JOAQUIN C GOCHANGCO JR                               20500
A0101400150061233523001BANGAYAN, SHIRLE                                        20500
A1301400470252428900001SILVIA NEPOMUCENO                                       20500
A0101400570281551802001OR STEVEN L. YU                                         20500
A2001400290315636761001VILLABERT, MARIT                                        20500
A0101402930381283088002AGNES A. ALARILLA                                       20500
A0101402930381305156001MARIA LUISA B. DIAZ                                     20500
A0101402930381505507001AVILES JR., ISAGANI                                     20500
A0101402930381566712001OR ERICKSON RAMOS                                       20500
A0101408370382397942001DR. TEODORO S. MAHUSAY                                  20500
A0101411660384047607001BEAUTY SALON                                            20500
A3801400170490756116001JULIET A ROJAS                                          20500
A0101403580511156550001ELPIDIO DUNGO                                           20500
A2201400250561258530017EMPLOYEES OF IEWPC                                      20500
A2201400250561299317001ALLAN M. SAN SEBASTIAN                                  20500
A0101405070861200162001FLOCERFIDA R. GA                                        20500
B0101412890000000007007CREATIVE FILES INC.                                      1606
B1301400210000000023532SKYMAT FIBERGLASS ENTERPRISES                            1602
B0101408790000000039001TRACKMEPHIL INC.                                         1601
B1901400320000000041301FIRST INNER TRADE CREDIT CORPORATION                     1610
B1001400350000000244380ECO WORKERS UNLIMITED CORP.                              1601
B0101400860000001005423***********                                              1602
B0101405070000001161368ROSARIA APARTMENT CORPORATION                            1601
B0101402770000001571626BEARING CENTER & MACHINERY, INC.                         1601
B0101400150000001708301MARSMAN DRYSDALE CORPORATION                             1603
B0101400150061010838003INFORMATICS COMPUTER INSTITUTE, INC                      1605
B0101400600071233681002**********                                               1606
B0101401830141029678001RINA TRANSPORT SERVICES                                  1602
B0101401830141043438001R.A. ROSILIO ENGINE REBUILDER                            1603
B0101400440161007542001PACE REALTY INVESTMENT INCORPORATE                       1601
B0301400790195053525001EMCELI PROPERTY HOLDINGS CORP                            1601
B0101400570281036729002LAIYA GOURMET                                            1603
B0101402930381008829002AXEIA DEVELOPMENT CORP.                                  1615
B0101402930381019173001MANILA LUXURY CONDOMINIUM CORP.                          1602
B1201400150421013432002BAMACO - CR OPERATIONS                                   1603
B0101404260611035419002JK HUMANBOND CORPORATION                                 1602
B2801400100712043886001SB CONSTRUCTION & WATER TREATMENT CORP.                  1603
B0101404840851018774001FIL-LABOR COMM'L & INDUSTRIAL CORP.                      1601
B0101405070861042966001ATTIC TOURS PHILS. INC.                                  1610
B2801400230000000372741PRIME COSMOPOLITAN SERENITY INC. DOING                  11601
B0101406620273036393001REYES, REYES & RIVERA-LUMIBAO LAW                       11602
B1201400150421013432001BAGUIO MAHARLIKA MULTI PURPOSE                          11603
B2801400230000000372741BUSINESS UNDER                                          21600
B0101406620273036393001OFFICES                                                 21600
B1201400150421013432001COOP.                                                   21600
B0501400200292821100608**********                                               2002
