A0101410140000000038760ANG, ISMAEL DACIA                                        0501
A0101404260000000156789NICOLAS, EVELYN C.                                       0504
A0301400660000000194810HEIN, STEPHANIE VILLAVER                                 0501
A0101404130000000321371ALIENTO, JASPER PAJARES                                  0501
A0101404130000000321462VITTALI, WYLMA REYES                                     0501
A0101408110000000379960**********                                               0501
A0101414120000000398818*********                                                0501
A0101414120000000398870JAY CRISTOPHER DELA CRUZ                                 0502
A0101402060000000445436J. ANTONIO FORWARDING SERVICES                           0501
A0101405650000000525739RUFA MACABENTA                                           0501
A0101404260000000550070FERMA, GERMILINA GONZALES                                0501
A0101413440000000702481VENTURA, JESSICA JOYCE DUMENDEN                          0501
A0101414120000000875856AZERI INDUSTRIAL SALES                                   0505
A0101413020000000880531***************                                          0503
A0101410300000000919626********                                                 0501
A2001400290000000978269UYMATIAO, CATHLEEN AMIL                                  0502
A5001400170000001003432DE LUNA JR., ROMAN TE                                    0501
A1101400120000001547235DUGANG, JESSA EBIT                                       0502
A1101400120000001547520TAN, MELVIN NATHANIEL ANDRADE                            0502
A0101401380000001819974REVILLA, PETER LACSON                                    0501
A0101404130000001831727DIMAPILIS, TERESITA GUNIO                                0501
A0101413310000001928970PADOLINA, JOSEPHINE MASILUNGAN                           0501
A0101410560000001944174ROWENA PADILLA FRANCIA                                   0501
A5501400120000002019023PINGOY, ALBERT YUSAY                                     0503
A1001400190000002170656AMELINA E. FACTURA                                       0501
A0101414120000002172583DELOS SANTOS, AUREA LOPEZ                                0501
A0101413600000002276406GERRY C. ABANILLA                                        0501
A0301400790000002301779ALVEZ, RUVELYN ESCUADRO                                  0503
A0101411820000002328532FAIDA BURGOS DAWAY                                       0501
A0101400570000002329773CHUNG, JANE LEE                                          0502
A0301400530000003088106LIM, FEBIE MIRAFUENTES                                   0501
A0101413990000003141157**                                                       0502
A2001400290000003160790REPEROGA, ROLAND LIM                                     0505
A4101400260000003680011CHAVEZ, SHERYL PENA                                      0501
A4101400260000003680040DEL ROSARIO, MARIE MADELINE MAG                          0501
A0101409180000004375359ARCHIE SANCHEZ                                           0502
A0101413990000004511088GUMABAY, JAQUELINE GUZMAN                                0501
A0101409180000004796654NIEVES, ARTHUR                                           0501
A0101400860011419699001**********                                               0503
A0101400860011421986001**********                                               0510
A0101400860011435648001**********                                               0505
A0101400860011546416001**********                                               0502
A0101400150061236944093REBECCA P. MUYOT                                         0501
A0101400150061368675001JESSE O. ANG                                             0502
A0101401960121238705001**********                                               0503
A0101401830141208540001JASVIR SINGH OR PARDEEP KAUR                             0503
A0101401090171341240002RAUL M. SUNICO                                           0502
A0301400530193709207001ALEX T. BISARO                                           0501
A0301400530193774589001CREDO, ARIEL S.                                          0501
A3101400160221220343001LAARNI A. CALAPATIA                                      0502
A3101400160221478374053CHRISTOPHER D LISING                                     0501
A1001400190231520766092TACBOBO, BEATRIZ WABE                                    0501
A0101401670271333076001BENJAMIN C. VICENTE                                      0502
A0101400570281186881002SANTAMARIA, MA. ZENEIDA SERRANO                          0502
A0101400570281405455001EMERSON OR ARLENE MAGALLANES                             0501
A0101400570281795709001GREGORIO DE JESUS DARCA                                  0501
A0801400160311478374034ROSEMARIE R. TUBIANO                                     0501
A6601400120314071890001MARTIRES, MYLA TURLA                                     0502
A0101402510341283815001RODRIGUEZ, LIEZEL DAMIAN                                 0501
A0101402930381686667001MACALALAD, JACKIE LOU BOAC                               0501
A0101408370382460759001FUENTES, MARILOU BLANCO                                  0501
A0101402770391355762035NOEMI GERLIE G. RIO                                      0501
A0101402770391510038001FLORDELIZA SORIANO IGNACIO                               0501
A0101408400394478374091ANALOU SASUMAN MONTALES                                  0501
A5501400120410622095001CORDER, JAIMELITA OR EDWIN                               0505
A2401400180411478374056GALINDEZ, IRENE AGCAOILE                                 0501
A2401400180411688592001DUCENA, RONNIE PIZON                                     0510
A0901400220432708709001MAHILUM, CATHERINE RIZALDE                               0502
A0101406330472428084001DARWIN JEBB YLO OR MARILEN YLO                           0502
A0101406330472542494001TEODORA A. RAZON                                         0501
A1901400160491496589001JANELA ANGELI GONZALES PANOPIO                           0502
A1901400160491720655001ERLINDA DE LEON ASI                                      0501
A0101403450521238140001**********                                               0502
A0101403450521239572002ONG, SIN CHIOK                                           0501
A0101403450521423441002**********                                               0501
A0101407720602341731001************                                             0502
A0101404260611478374012RUBEN P. SANTOS                                          0501
A0101404260611478374077LUCIA CAPILITAN                                          0501
A0101409920650478374030DELA CALZADA, REGIL OMLANG                               0501
A4101400260812478374021CATHERINE C. RODA                                        0501
A0101406750852182475001ANALIZA B. HIZOLE                                        0501
A0101401830000000033741LANUZA, CHRISTINE MARY ANN M.                           10501
A5001400170000000213812TABILIRAN, ROCHE TUBIO OR                               10501
A08014001600000004763800WEN F. FACTO OR MA. FE M.                              10505
A0101406750000000480660VARGAS, RAYMOND JOSEPH B. OR                            10502
A0101410560000000848722SY, ROLANDO G. DBU MCCLEAN                              10501
A0101409920000001951982MEMBERS OF NATASHA (SHOECAT INC                         10501
A0101411820000002328554JOSEPH J. ALBA JR OR                                    10501
A0101401830141292667002GEMMA OR LEE MARVIN OR                                  10502
A0101401830141292667003MAGTALAS, GEMMA OR LEE MARVIN                           10502
A0101400440161591337001JENESSEY A. RANCES OR                                   10502
A0301400530193671710001TULEN, JAN MICHAEL AAMES L. OR                          10501
A1001400190231277021002BONGABONG, DANIE MINTALAR                               10502
A0101400570281186598003DR. BIENVENIDO S. GADDI OR                              10505
A0101400570281186881001MA. ZENEIDA S. SANTAMARIA AND                           10502
A1101400120313678888001TIU,EDGAR A. OR TIU,MARILYN Y.                          10510
A0101402930381283088002JOSEPH VINCENT A. ALBA OR                               10504
A0101408370382206455001DR. RUBEN G. KASALA OR                                  10502
A0101408370382393186001LILY DB. JACINTO OR                                     10502
A0101406750852620298001EMILY COLINA OR DOMINGO                                 10501
A0101401830000000033741OR LANUZA, LEE IVAN M.                                  20500
A5001400170000000213812TUBIO, TEMEVIS JARALVE                                  20500
A0801400160000000476380FACTO                                                   20500
A0101406750000000480660VARGAS, ELENNETT L.                                     20500
A0101410560000000848722WASHING SOLUTION CO.                                    20500
A0101409920000001951982TORRELIZA, GINA G.                                      20500
A0101411820000002328554MARILOU C. ALBA                                         20500
A0101401830141292667002JOHN GEMMO MAGTALAS                                     20500
A0101401830141292667003OR JOHN GEMMO                                           20500
A0101400440161591337001JESSIE O. RANCES                                        20500
A0301400530193671710001TULEN, LUCILLE M                                        20500
A1001400190231277021002BONGABONG, ARACE                                        20500
A0101400570281186598003NORA B. GADDI                                           20500
A0101400570281186881001MA. VERONICA S. BOUHASHI                                20500
A1101400120313678888001OR TIU,MARC ELDRICH                                     20500
A0101402930381283088002AGNES A. ALARILLA-ALBA                                  20500
A0101408370382206455001DR. MA. CARMELA KASALA                                  20500
A0101408370382393186001CHRISTINA J. DEL CARMEN                                 20500
A0101406750852620298001COLINA JR                                               20500
B0101403320000000037567EESC CONSTRUCTION INC.                                   1601
B5501400120000000046860REYES, WILFRED S. AND REYES, AGNES S.                    1601
B0301400660000000048224*****                                                    1603
B0101413730000000469745*********************                                    1601
B1101400120000000652879TY, WILLIAM LOBRIO OR TY, MARILOU CHU                    1605
B0101407720000000885689THE CATHAY DRUG COMPANY, INC.                            1604
B0101407720000000885690THE CATHAY YSS DISTRIBUTORS COMPANY                      1604
B0101412180000001293038WESTMONT INDUSTRIAL SALES INC.                           1603
B0201400760000001612937UNITED HOSIM PRIME CORPORATION                           1601
B0101403450000001638002WYNNIE S. FABABIER CUSTOMS BROK                          1601
B0101414120000001984201KAYAK CONSTRUCTION CORP.                                 1612
B0301400660000003361908PHILIPPINE RADIANT PRODUCTS, INC.                        1601
B0101400150061039030001AVANZA, INC                                              1601
B0101400150061230482001CASE PROPERTY MANAGEMENT, INC.                           1602
B0101400600071234158001**********                                               1605
B0101400730111042662001CENCAR CORP.                                             1606
B0101401960121011797001**********                                               1601
B3101400160221010168001K SERVICO TRADE, INC.                                    1602
B1001400190231043368001SML VENTURES                                             1601
B0101401670271007375003MULTI-FOLD LINKS, INC.                                   1605
B0801400160311414617001ANOCHE ASSOCIATES INTERNATIONAL, INC.                    1605
B2001400290315635844001********                                                 1605
B0101402060351009369004POLYMER PRODUCTS PHILS., INC.                            1601
B0101402060351009369005POLYMER PRODUCTS PHILS., INC.                            1601
B0101402060351009369006POLYMER PRODUCTS PHILS., INC.                            1601
B0201400760374043348001EEIKAIWA INC.                                            1601
B0201400890376037020001BREEDERS AGRIVET SUPPLIES INC.                           1610
B0101406330472314132001*****                                                    1601
B0101403450521011637002LIM YEE WAN CO., INC.                                    1605
B0101403450521017837001**********                                               1601
B0101403450521022302001**********                                               1602
B0101403450521024807001********                                                 1601
B1301400500684007395001K SERVICO TRADE, INC.                                    1603
B1301400500684037591001UPLIFT PHILIPPINES, INC.,                                1605
B0101406750852709702001DAFARM CORPORATION                                       1602
B0101405070861197658001****************                                         1602
B0101412920160057439001VILLAMOR, ROA NATURAL DBU HOLY ROCK                     11601
B0201400920375034692001HERMAG VILLAGE HOMEOWNERS                               11602
B0101402930381017213003UNIVERSAL ROBINA CORPORATION                            11603
B0101403320471009016001ABBA EQUIPMENTS TRADING AND                             11605
B0601400230891647141001PATERNO &/OR MA EVANGELINE LUCIANO OR                   11605
B0101412920160057439001BUILDERS                                                21600
B0201400920375034692001ASSOCIATION                                             21600
B0101402930381017213003URC - GD                                                21600
B0101403320471009016001SERVICES INC.                                           21600
B0601400230891647141001JOANNE K PALO                                           21600
