A0101401250000000020424BALIAO, JOVITA LINGGON                                   0503
A0101413020000000056733AZADA, EDMUNDO HABANA                                    0505
A0101402770000000080544SHERELENE RAMOS BALLAD                                   0501
A0101402770000000080602MA. LOURDES R. DE LOS ANGELES                            0501
A4101400550000000081605MAXILOM, SWEETHEART FILNIL PERA                          0501
A2601400270000000084206CATHERINE D. TAGUIAM                                     0502
A1001400480000000133382*********                                                0501
A1901400290000000135093MARITES LIM SANCHEZ                                      0502
A0101412920000000276340PALAD, AVERY JOHN CANTO                                  0501
A1301400470000000366530EMATA, JOBBY PETINES                                     0501
A0101412890000000371453**********                                               0501
A0101403580000000383711**********                                               0502
A0101407720000000510938MENDOZA, KRISTINE MARAVILLA                              0501
A0101407720000000510949DIANA, NEMIA SADAYA                                      0501
A0101403320000000522041LEE, LILY PENA                                           0501
A2601400270000000561886EDNA G. ALFARO                                           0501
A0101406620000000577140ATALIN III, ELISEO DOMINGO                               0502
A0101401670000000739071VILLA, IRENE ROBLES                                      0501
A0101412500000000739533CARPIO, RITCHIE MANSILUNGAN                              0501
A0101406880000000745073AGUSTIN, LEODEGARIO CORTEZ                               0501
A0101400570000000749708PEREZ, MYLENE GRACE SANTOS                               0501
A0101400150000000807432LABARDA, JACINTO PAULO MORALES                           0501
A0101400440000000821334REYNALDO G. BRIONES                                      0503
A0101403450000000889409********                                                 0501
A0101401700000000890455JW AUTO LPG CORP.                                        0501
A0101412050000000890831CANDA, JOAN CASTRO                                       0501
A0101403580000000922792ZENON ISAAC A. DIMARANAN                                 0501
A3101400870000000957757BALLESTER, RAQUEL DEL ROSARIO                            0501
A3101400870000000957768CATLI, EMMYLOU REVECHO                                   0501
A0101400860000001005412**********                                               0501
A2601400270000001009049ALEX G. NICOMEDEZ                                        0501
A0101407430000001028773ELAINE S. CANLAS                                         0501
A0101408950000001039383ORIOLA, MARIA CONNIE UNDAG                               0501
A0101402640000001054299DUMAPIAS, ANGELITA ALVAREZ                               0501
A0101413570000001069552GILBERT T. BUNO                                          0501
A6601400120000001105888MONDIGO, LIBERTY DATO                                    0501
A3101400160000001169251VICTOR V BELCHEZ                                         0501
A0101410560000001290875ESPANOLA, MARY ANN G.                                    0501
A0101409210000001294275PINEDA, FEDERICK JOHN RAMOS                              0501
A1901400290000001362910JANNSEN DEAN BRIONES TORRES                              0501
A0101413440000001472566REVILLA, MARIAN FALCUNIT                                 0501
A0101400860011539633001**********                                               0505
A0101400860011663274001**********                                               0502
A0101400150061236944155GINGER FERRER TULIO                                      0501
A0101400150061574640001DE PAZ, ROBIE C                                          0501
A0601400100081251783001ANTONIO, ADELA L.                                        0501
A0101410560110478374007LENNIE C. MOQUETE                                        0501
A0101406040112235065001ERNESTO P. LEONES                                        0502
A0101401830141338177001ETHYLENE TAN ONGCHAN                                     0502
A0101400440161040977001JKRFG UPGRADE ENTERPRISE                                 0505
A0101400440161525001005MERLITA L. ALICANTE                                      0501
A0101407270162567717001JONALYN D. DOROJA                                        0501
A0101401090171195893001DR. RICARDO AGBAYANI                                     0501
A0101401090171196803001ROSELLA L. MONTANO, M.D                                  0502
A0101401090171491755001DR. OLIVIA C. GO                                         0502
A1001400350233532089001MARIO T. JUNI OR RUTH S. JUNI                            0505
A0101406460272663804001LAVARRO, JOSE SALAO                                      0502
A0101400570281186603001DR. RESTITUTO C. BUENVIAJE                               0503
A0101400570281359728001LIMJOCO, DIOSDADO DE LA CRUZ                             0502
A6601400120314081806001AMOR, ZALDY FRANCISCO                                    0502
A0101408820333224715001ELIAS GARCIA OR ENRIQUE GARCIA                           0502
A0101408820333335130001ANTONIA S. GORRE                                         0502
A0101402510341204113001INOCENCIO, ADELAIDA RIPALDA                              0501
A0101402640361044022001JIMBES PRINTING                                          0501
A0101402640361332373003**********                                               0501
A0101402640361725639001TORRES, MARIVIC KUDARAT                                  0501
A0101409210398733233001NARON, IRIS JUSTINE BUAYA                                0501
A2401400180411458238001ANIMAS, JULIUS PETER CABATO                              0502
A0101403030441029489001**********                                               0503
A0101403030441240297001**********                                               0501
A1901400160491247707002GLORIA R BOOL                                            0510
A1401400110492531512001SALVANERA, ZIEGFREDO AGUILAN                             0501
A1401400110492584720001ARQUIZA, ALLAN REGODON                                   0501
A0101403580511156580005MANUEL R. GUILLERMO                                      0502
A0101403580511420184003MARIA CAROLINA S. MACASAET                               0515
A0101403580511718894001JOAN SEMENA CARINO                                       0501
A0101408530516578215010MARK G. SANTOS                                           0501
A0101403450521237287001*********                                                0502
A2201400250561327334001ESPINOSA, CONCEPCION QUANICO                             0502
A0101407720602294548001RONDAIN, ELIZABETH ESPINOSA                              0501
A0101407720602396505001ABAD SANTOS, SALVADOR MICLAT                             0501
A0101409920650478374004DADULA, IRENE INES FAVOR                                 0502
A1301400340683501399001ESPINOSA, JOSELYN DULU                                   0502
A0101408240711410292003**********                                               0505
A0101404840851413610001GUIRIT, CLARITA E.                                       0501
A0101406750852236873002SISORA OLGAH ELUMIR                                      0501
A0101407270000000010060SPIRO CLEMENTE OR                                       10502
A1101400120000000652722MANAS, EDWIN CHU OR                                     10501
A3101400870000000957779CATLI, I DBU MI PROVEEDOR                               10501
A0501400200000001000120AQUINO, ARIEL MANANTAN OR                               10501
A0101407430000001028762NOLASCO, CHRISTOPHER DBU                                10501
A0101410560000001290853CARRERAS, JOY STEPHANIE S. OR                           10501
A0101401090171195610002WILFREDO/CYNTHIA/MARIFEL MITZI/                         10502
A0101401670271187647001NELINDA B. MANALAC OR EVALINDA                          10501
A0101406620273587784001MENDIOLA, JOCELYN OR MENDIOLA,                          10501
A6601400120314612848008SY, ALEXANDER OR                                        10503
A0101402510341565802002GLAISA A. CLAVERIA OR                                   10503
A0101408400394454919001TAPULAO, MARIA MERCEDES OR                              10502
A0501400170481320433004MELENDEZ, AURORA REYES OR                               10502
A1601400170494076550001MARTIN A. CALLEJA OR                                    10501
A2201400250561478374025LUZMINDA M. GACILAN                                     10501
A0101407720602403595001CARMENCHU MARIE ECHIVERRI OR                            10502
A0101406750852181680002NELSON V. MONTARDE OR                                   10501
A0101407270000000010060JENNIFER CLEMENT                                        20500
A1101400120000000652722MANAS, HENNIE OLIMBA                                    20500
A3101400870000000957779ENTERPRISES                                             20500
A0501400200000001000120AQUINO, ROWENA FLORES                                   20500
A0101407430000001028762NGML TRADING                                            20500
A0101410560000001290853BORNILLA, LORELYN GRACE L                               20500
A0101401090171195610002CYNTHIA MARIE FERNANDEZ                                 20500
A0101401670271187647001OR RIZALIANA N.                                         20500
A0101406620273587784001GABRIEL OR TANCH                                        20500
A6601400120314612848008CHY, RITA NILA                                          20500
A0101402510341565802002JAMES RONALDO A. CLAVERIA                               20500
A0101408400394454919001TAPULAO, ALBERT                                         20500
A0501400170481320433004COQUIA, MARIBETH                                        20500
A1601400170494076550001CARMEN G. CALLEJA                                       20500
A2201400250561478374025MEMBERS OF NATASHA                                      20500
A0101407720602403595001JAY VILLAVICENCIO                                       20500
A0101406750852181680002MILDRED P. MONTA                                        20500
B0101404000000000025538BILF FOOD CORP.                                          1602
B0101401830000000033569CARITAS SALVE CREDIT COOPERATIVE                         1602
B0101401830000000033592CARITAS SALVE CREDIT COOPERATIVE                         1602
B0101407430000000035338SEAHAWK TRANSPORT, INC.                                  1605
B0201401020000000042286PILIPINAS PRECIOUS METAL RESOURCES, INC.                 1601
B0101402510000000049290PARTYLIFE CORPORATION                                    1601
B0601400100000000142123FP SMART HOUSING PHILIPPINES INC.                        1603
B0101406620000000193942SOURCEFIT PHILIPPINES INC.                               1601
B0101406620000000194001VICTORIAS MILLING CO., INC.                              1601
B0101400860011464418002**********                                               1610
B0101400150061032076002NEXTRANS INCORPORATED                                    1605
B0101400150061735126001SOUTH NEGROS BIOPOWER, INC.                              1603
B0101401830141008836001STO. NINO PARISH CHURCH                                  1610
B0101407270162041489001******                                                   1604
B0101406620273031852001EDGE INTERLINKS CORPORATION                              1601
B0101402640361675696001STPPC INC.                                               1603
B0101402770391009346001R.D SAMANIEGO ROOFING CORP                               1603
B0101403030441631353002ANG CHING HUAN & SONS RESOURCE PHIL INC                  1602
B0101403320471034459001LORDCHEM INTL. CORP.                                     1605
B0101403580511027603001K.S.T. PROPERTIES, INC.                                  1610
B0101404000551663790001CAMPDEN HILL GROUP INC.                                  1601
B0101408240711026183004**CATERING PROFESSIONALS, INC.**                         1610
B0101408240711027637001LLL HOLDINGS, INC.                                       1605
B4101400260812047082001SERENITA INC.                                            1601
B0601400230891027774001MINERVA TRADING HOUSE OF MOTORCYCLE                      1601
B0601400230891029282001L5 & SONS FINANCING CORP.                                1605
B0101401830000001140076CZERENAH C. YUSE DBU TOPONE GRAPHICS                    11601
B0601400100081253610002NG, WILFREDO M. AND AQUINO, JANET B. AND                11601
B0601400100081256915011KWONG, WILLIAM GONZALES OR ANTONIO                      11602
B0101407270162051888001SAMAR COCO PRODUCTS MANUFACTURING                       11601
B0101401830000001140076DESIGN SERVICES                                         21600
B0601400100081253610002BUAN, ROLAND S.                                         21600
B0601400100081256915011ADELA LUBO                                              21600
B0101407270162051888001CORPORATION                                             21600
B0101400860011821100608**********                                               2002
