F0101408370382408518001DR. ENRICO D. TANGCO                                     2502CKO
F3001400130000000006891MSU-IIT NMPC LANGIHAN - BUTUAN                           2602CKR
F0201400180181028947001SHIRMMA LAND CORPORATION                                 2602CKO
F0101402480331020380002**********                                               2610CKR
F0101408400394030136001ASP MANPOWER SERVICES                                    2610CKR
F0301400240401025953008ECE MARKETING                                            2602CKR
F0101408110515029643001101 BEAT RECORDING STUDIO CO.                            2602CKO
F0101409180397047594001PACIFIC SUMMIT CONSTRUCTION                             12603CKR
F2201400250561029074001MAGANDANG KAPALARAN PRIMARY                             12610CKR
F0101404130601033659001EL GALLEON BEACH RESORT AND DIVE CAMP                   12603CKO
F0101404260611034502001RSC MARKETING SERVICES                                  12601CKR
F0101409180397047594001GROUP INC.                                              22600CKR
F2201400250561029074001MULTI PURPOSE CO                                        22600CKR
F0101404130601033659001INC.                                                    22600CKO
F0101404260611034502001CORPORATION                                             22600CKR
