A0901400220000000012313**********                                               0503
A0101405810000000016559CHUA, HEMAN LAO                                          0501
A0101400310000000019423QUIBIN, BERNADETTE AGBALO                                0501
A0101400440000000029401ANGEL, HELEN VILLANUEVA                                  0501
A0101411950000000036331SARAH S. DELA CRUZ                                       0503
A0101412890000000125471NIDA SAN PEDRO TUANO                                     0501
A0101406750000000172923DESUMALA, JAONYL FEGI                                    0501
A0601400230000000186867SAPNU, D DBU D.L.S.J GLASS ALUM                          0501
A2801400100000000188301LACBAIN, JOEL GROESBECK                                  0501
A0101413990000000205898**********                                               0502
A0101402060000000358770LAY BARE WAXING SALON                                    0502
A0101408660000000372952RIOLA, ERIK KRISTOFER ANGSICO                            0501
A0101408660000000373062*********                                                0501
A0601400520000000398330TAYAG, VIVIAN FRASCO                                     0501
A0101407430000000447067MICHELLE C. MOTOL                                        0501
A0101412470000000520130**********                                               0502
A1901400320000000679272MARIA KATHLEEN GARCIA AQUINO                             0501
A0101412630000000801621LIBREA JR., ENRICO MAURICE S.                            0501
A0101400860000001005445************                                             0502
A0101404000000001186749GALANG, FEDERICO COMDOHR                                 0502
A0101410560000001290911CATUBAY, NICOLAS OCAMPO                                  0501
A0101410560000001291032VILLACIETE, DAHLIA SAPE                                  0501
A0101412760000001399351SACDALAN, JULIET HALILI                                  0501
A1101400120000001547406CORDOVA, MA KRISTINE AGUILON                             0501
A1101400120000001547520TAN, MELVIN NATHANIEL ANDRADE                            0502
A1201400150000001863083AGCOLICOL JR., EMILIO SALUDARES                          0501
A3101400450000002092877ONTE, MICHELLE ENRIQUEZ                                  0501
A0101401250000002131908LAWRENCE SENO                                            0501
A0101400730000002376423MADLOS, YOHHEI PELIGRO                                   0501
A0101400860011035923001**********                                               0502
A0101400860011375339001**********                                               0501
A0101400860011380653002**********                                               0505
A0101400860011559271001**********                                               0505
A0101400860011611356001**********                                               0503
A0101400150061228995001LORETO L. MERCADO                                        0501
A0101405810072545732002DONG, LIANXU GONG                                        0505
A0101406040112092241001********                                                 0501
A0101401960121237943001**********                                               0502
A0101401090171197664001ELIZABETH D. CORTEZ                                      0501
A0101401090171504210001ALBINA R. GANDALLA                                       0501
A0101400310211376429002*****                                                    0501
A0101400310211380943002TE, TIFFANY AYROSO                                       0503
A3101400160221478374053CHRISTOPHER D LISING                                     0501
A1001400350233478374001JUNIO, ROGELIA A.                                        0501
A1901400290261298552066DOLORES SARMIENTO MANGUIAT                               0501
A0101408660274741830001**********                                               0501
A0101402060351039467001LAY BARE WAXING SALON                                    0502
A0101402060351039467002LAY BARE WAXING SALON                                    0502
A0101402060351039467003LAY BARE WAXING SALON                                    0502
A0101402060351039467004LAY BARE WAXING SALON                                    0502
A0101402060351621385001BASCAR, CYD BUHIA                                        0501
A0201400760374720031001******                                                   0503
A0101408370382070779001DR. ANDRES R. LIPANA,JR.                                 0503
A1201400150421152351001JISON, THERESE                                           0501
A1201400150421386553001SAINGAN, MARILOU MASEDMAN                                0503
A1201400150421635554001JOTIC, ROSALIA TULIO                                     0503
A0101403320471033222001PHENOLIC TRADING                                         0505
A1901400160491249550007PATRICK HENRY A. PEREZ                                   0501
A1401400110492395854001MERCEDES C. BARCELONA                                    0501
A1401400110492433218001MILLA, MAYNARD BUSTAMANTE                                0501
A0101407430503036416001JUPITER'S BUTCHER SHOP                                   0505
A0101407430503036416001JUPITER'S BUTCHER SHOP                                   0504
A0101403610531219308001ABANILLA, FRANCISCO APLASCA                              0501
A2201400250561078548001BENIGNO M. ALMAYDA                                       0510
A0101407720602358982001LEBUMFACIL, FLUER DE LIZA H.                             0501
A0101407720602367885001SY ORTIN, TERESA TAN                                     0505
A0101404260611392885001BANTA, EUGENIA TAMAYO                                    0501
A0101404420631040228001DGPRINT ADVERTISING CO.                                  0502
A0101409920650478374030DELA CALZADA, REGIL OMLANG                               0501
A0101408240711539221001SABALBERINO, ROSANNA ALMANZA                             0501
A4101400420814478374167SAN AGUSTIN, EDITHA L.                                   0501
A0101404840851217637074HENRY RAQUEDAN                                           0501
A0101404840851478374012SAPORNO, ANNABELLE G.                                    0501
A1901400290000000135060ALELI G PERCE OR                                        10501
A1901400320000000679205JOSE M AQUINO JR OR                                     10501
A0101412470000000853867PADILLA, GUILLERMINA M. OR                              10502
A3001400130000001261103FERRER,ODELIO Y. OR FERRER, IVY                         10502
A0101412470000002086433ESTHER ARCA DBU WASABE SPICE OF                         10503
A0601400100081251941001MARCELINO ALAPAG OR                                     10502
A3101400450223679687001MONZONES, MARIA DOLORES OR                              10503
A3001400130230757981001SACAY, RENE CANTOR OR SACAY,                            10502
A1901400290261244447002LETICIA BAYLON HIPOLITO OR                              10510
A1901400290261321834001AIDA NINO PESIMO OR                                     10508
A1901400290261393168002JUAN MIGUEL PLATON CUENCA                               10510
A1901400290261668899001CHENG, XIAOZHEN OR                                      10505
A0101401670271188447001PAVES, ANITA OR VELASCO,EDGARDO                         10502
A0101401670271404994001LYDIA GOMEZ SALAROSAN or                                10502
A0101402510341199632002ANA LIZA R. DELA CRUZ OR                                10502
A0101402060351211701003MA. DOLORES C. DANNUG OR                                10502
A0201400890376667775001BUYSER, MISAN CANAS OR BUYSER,                          10501
A0101403320471208453001NANETTE DURANTE OR                                      10501
A0101403320471659935001LORALYN G. DEL PRADO OR                                 10501
A0101412760476047778001GAKO, CRISTINA LLANERA DBU                              10502
A2201400250561315662002LAARNI M. TARRONAS OR                                   10502
A1901400290000000135060FLORENCIO D PERCE                                       20500
A1901400320000000679205MARIA KATHLEEN G AQUINO                                 20500
A0101412470000000853867PADILLA, ANA MARGARITA G.                               20500
A3001400130000001261103M. OR VALEROSO, MERCEDITA                               20500
A0101412470000002086433 THE ORIENT                                             20500
A0601400100081251941001JASMINDA ALAPAG                                         20500
A3101400450223679687001HENRY                                                   20500
A3001400130230757981001JOSEPHINE SIMBIT                                        20500
A1901400290261244447002ERNESTO B HIPOLITO JR.                                  20500
A1901400290261321834001NESTOR PALAYPAYON PESIMO                                20500
A1901400290261393168002OR ZENAIDA PLATON CUENCA                                20500
A1901400290261668899001YANG, ZONG CHANG                                        20500
A0101401670271188447001OR VELASCO, EMMA                                        20500
A0101401670271404994001RONALD SALAROSAN                                        20500
A0101402510341199632002ANTONIO T. DELA CRUZ                                    20500
A0101402060351211701003EDNA S. CABALDE                                         20500
A0201400890376667775001IAN CHRISTOPHER                                         20500
A0101403320471208453001AUGUSTUS DURANTE                                        20500
A0101403320471659935001ISIDRO DEL PRADO                                        20500
A0101412760476047778001KRANECOM ENTERPRISE                                     20500
A2201400250561315662002RICHARD S. TARRONAS                                     20500
B1301400470000000009594CHRISTIAN IAN CONSTRUCTION CORPORATION                   1601
B0101405810000000016822VANDA PAPER PRODUCT ENTERPRISES COR                      1602
B0101406040000000096633*********                                                1601
B0101411820000000477509WESTLINE CARAVAN MASTER INC.                             1601
B0101405650000000772721PREMIERE COMMUNITY PARTNERS, INC.                        1610
B0101400570000002104147AB1 MEGA BUILDERS INC.                                   1601
B0101414090000002244639YULAGA OIL EXPLORATION CORPORATION                       1601
B0101400860011722012001**********                                               1602
B0101401700041039450001******                                                   1605
B0101401700041190338003**********                                               1601
B0101411080042047723001**********                                               1601
B0101400150061011076001GENERAL METAL CONTAINER CORPORATION                      1605
B0101405810072361051001**********                                               1601
B0101400310211005815001STI COLLEGE - MUNOZ EDSA, INC.                           1605
B0101400310211023184001Q.C. STYROPACKAGING CORPORATION                          1604
B0101400310211032374001GLOSSMASTERS PHILIPPINES, INC.                           1603
B3101400450223037708001RD CASH PADALA, INC.                                     1603
B3101400450223365119002VICTOR HUGO ENERGY CORPORATION                           1601
B0101406620273733659001ULTRAGAS CARRIERS CORP.                                  1602
B0101405650322036086001VISTALAND INTERNATIONAL MARKETING, INC.                  1608
B0101402480331015893001PEOTRACO INDUSTRIES INC.                                 1604
B0101402640361044394001METRO NORTH MEDICAL CENTER AND HOSP                      1620
B0201400760374041914001OUROKU CORPORATION                                       1605
B2401400180411031945001ABC DISTRIBUTORS INCORPORATED                            1605
B2401400180411031945044ABC DISTRIBUTORS INCORPORATED                            1602
B0101405940512022806001JY & SONS REALTY CO., INC.                               1603
B0101403450521021003002GRANVILLE INDUSTRIAL CHEMICAL CORP.                      1606
B0101403450521038981001***********                                              1602
B0101403450521353210002**********                                               1601
B0101404130601030838001ELEV 8 MEDIA, INC.                                       1605
B4101400550815040991001DRAGON LORCAM TRADING CORPORATION                        1603
B0101414090000000399468DELA CRUZ, INZA VITA YSABEL S AND ACOL,                 11601
B0101414090000000399468MARTIN GABRIEL D                                        21600
