A0101410300000000026531VELHAGEN, MELISA B.                                      0501
A5501400120000000047389GRANIL, HAZEL CARBON                                     0501
A1301400760000000050524BRIAN HANSEL C. CHONG                                    0501
A0101410720000000095130DAGOC, KATHARINE ERLINDA ORENSE                          0503
A0101407690000000154852ANGELES, LORENA ALMAZAN                                  0503
A1001400480000000474942DACALOS, GENMAR MANLOSA                                  0502
A0101407690000000495523MEDINA, NENETTE ALFARO                                   0501
A0101408790000000579751JACQUELINE CALIXTO                                       0501
A0101408530000000594116LEE MICHAEL STA. ANA                                     0501
A0101400440000000596607GIRLIE B. SANCHEZ                                        0501
A0101410720000000967900EFFINGER, JON ERIC                                       0502
A1001400190000001057614ENDERES, EMMANUEL                                        0501
A0101403610000001450817TULAY, RACHEL ABOGADO                                    0501
A0101404680000001617410AUSTRIACO, EMIL ESTRELLA                                 0501
A0101408820000001766754ALCORIZA, ROSANIE VILLARUEL                              0503
A0101402480000001927802***********                                              0503
A0101410720000002283974NEW VIC CONSTRUCTION CORP                                0501
A0101410720000002284011MARTIN, TERENCE FERNANDO USIGAN                          0501
A0101410720000002284022ALVIS, NENETTE LUBI                                      0501
A0101407560000002307502GABRIEL, MA. LIZA CORDON                                 0502
A0101405810000002314603WANG, BAOLIANG                                           0505
A0101413570000002976181MANALILI, EMILY GARCIA                                   0501
A0101412340000003348576SHIENEL M. RONCAL                                        0501
A0101412340000003348816PATRIZ DIANE F. SANTOS                                   0501
A0101412340000003349488JAYSON R. VELASCO                                        0501
A0101400860011298552007MA. TERESA N. MERCADER                                   0503
A0101400860011663274001**********                                               0502
A0101401250021456301001PALILEO, ROSALIE PUNONGBAYAN                             0501
A0101401700041311242002**********                                               0510
A0101401700041502022001**********                                               0504
A0101400150061229814002LEONCIO C. LIM                                           0501
A0101400150061231268003TAN, CORAZON J.                                          0501
A0101400150061368675001JESSE O. ANG                                             0501
A0101405810072235171001**********                                               0505
A0101405810072359000003MATEO, JOYLEEN CASTILLO                                  0506
A0101405810072364945005***************                                          0501
A0101400730111379924001**********                                               0503
A0101400730111520766057PROCLEY C. CRISTOBAL                                     0501
A0101400440161039572058ERLINDA S. AVERILLA                                      0501
A0101407270162526657001VALERIE ANNE G. MALIG                                    0503
A3101400450223394475001*****                                                    0501
A1901400290261035674002JAR VETERINARY SERVICES                                  0503
A1901400290261412190001DRA RESTITUTA D RIVERA                                   0502
A1901400290261541758001EDWIN C MENDOZA                                          0502
A1901400290261588877001HONG, ZUMIAO OR HONG, ZUCEN                              0505
A1901400290261692693001SUZELLE MARIZ JAVIER LUMBERA                             0501
A0101406620273528771002***************                                          0501
A0101408370382208100001DR. ARTHUR M. TORRES                                     0502
A0101405490392716223001MARYVIL C. ANDAYA                                        0501
A0101409180397681135001UICHICO, ERNESTO FLORO                                   0501
A2401400180411572205001EBRAHIM, MA. AMOR ISHAD                                  0501
A0101403030441239047001**********                                               0501
A0101406330472311319003ALEJANDRO V. VICTORINO JR.                               0502
A0101410140475045705001ZEN MANPOWER PROVIDER                                    0502
A1401400110492395854001MERCEDES C. BARCELONA                                    0501
A1401400110492528036001RAGOS, ROWENA ALANDY-DY                                  0501
A0101408530516041758001CLAR-US PRINTING ENTERPRISE                              0501
A0101403450521238141001**********                                               0502
A0101403450521238178001**********                                               0503
A0101403450521360229001**********                                               0501
A0101403450521360229003**********                                               0501
A0101403610531462190001CAPUNO, PAULINE BERROYA                                  0501
A2201400250561587972001PAULITA CONSTANTINO ROMERO                               0501
A0101407720602161855001*********                                                0505
A0101407720602397352001RIVERA, LUIS ROBERTO FOOSHEE                             0502
A0101404420631478374124SONIA T. LUBRICO                                         0501
A0101407690652028378002HIGHER GROUND FOOD STATION                               0501
A0101407690652032315001BENEHEIM VENTURES CORPORATION                            0501
A0101407690652678597001HERRERA, ALICIA ARCEO                                    0501
A0101410720653505843001LIMONGCO, GRACE POLO                                     0501
A0101406590662206756001LEAH D. SANTIAGO                                         0501
A1301400340683400365001MEDINA, EUGENIO DE SAGUN                                 0502
A0101408240711518229001CHUNG, HYUK JIN                                          0501
A0101408240711574916001CABILANGAN, JENNIFER VISCO                               0501
A0101408240711593997001VAFLOR, ELENA RECALDE                                    0501
A4101400260812478374058DHIESEL M. SAULOG                                        0501
A4101400260812631418001MICHAEL LIM TAN                                          0505
A4101400260812765529001RIETA, MARIBETH CABAYA                                   0502
A4101400420814478374119ESTRELLA, MARIFE P.                                      0501
A4101400420814478374156OLIVIA V. ALGARA                                         0501
A4101400420814572265012NAVIDA NORA G.                                           0501
A4101400420814736230002SARMIENTO, RAFAEL CAMARCE                                0501
A0101405070861197650002********                                                 0502
A5501400120000000046871CHIU, VALENTIN & JULIA &                                10503
A0101413020000000056999SOMBILLO, A DBU THE K-CAMP                              10503
A0101407560000000477721SABADO, MARISSA OR                                      10501
A0101407690000000913586BASTIDA, MARICAR - DEALERS OF                           10501
A0101412890000001056393GERONIMO, M DBU A.M.-M.A'S                              10502
A0101406750000001491841PULIDO, MARIA LUISA T. OR                               10502
A0101407690000001919855JOSE MARIA AUGUSTO DE JESUS OR                          10501
A0101407690000001919899DE LEON, LIADENETH - DEALERS OF                         10501
A1901400160000002291512EVELYN A. LAVISTO OR                                    10502
A0101401700041188748001WILLIAM C. TING TAN OR                                  10501
A0101401960121327478001AIDA MEDEL                                              10502
A1901400290261244409001ESPERANZA PAZ M LEYEZA OR                               10502
A1901400290261357951001RICO C MACALINTAL OR                                    10502
A0101406620273371455002BAUTISTA, NIKOS JIMENEZ OR                              10502
A0101400570281421615001ANDREW S. ONG OR                                        10503
A6601400120314688938001TAN, CHRISTOPHER PHILIP L.                              10502
A2401400180411454257001PIDO, HELEN L. OR                                       10501
A1201400150421485874001FLORES, CHIARA MAE FAROL OR                             10502
A1201400150421685972001JUCUTAN, HEIDI BONDAD OR                                10503
A0101406330472206499001LUZVIMINDA H. GERONIMO OR                               10502
A0101403610531662330001BERROYA, MARK LESTER AMOR  OR                           10502
A0101407720602162890001ARMANDO NAVARRETE OR                                    10501
A0101407690652025438001BETA BAKERY SUPPLIES & GENERAL                          10501
A0101407690652525001080DEL SOCORRO, ROSALIE - DEALERS                          10503
A0101410300663790131001VALDEZ, JENNIFER ANN Z OR VALDE                         10502
A0101408240711469124001MORADA, AGUSTIN F. OR                                   10501
A2801400100712296090001JAIME JESUS D ROJO, M.D. OR                             10510
A4101400420814481492001MADERA, EILEEN SOLANO OR                                10501
A5501400120000000046871CHRISTIAN & CHRISTEL                                    20500
A0101413020000000056999TUTORIAL & REVIE                                        20500
A0101407560000000477721SABADO, RIZALDY                                         20500
A0101407690000000913586SHOECAT INC.                                            20500
A0101412890000001056393BAKERY                                                  20500
A0101406750000001491841PULIDO, ROMEO J.                                        20500
A0101407690000001919855LEA MARIE MORALES                                       20500
A0101407690000001919899SHOECAT INC.                                            20500
A1901400160000002291512NOEL P. LAVISTO                                         20500
A0101401700041188748001HELEN O. TAN                                            20500
A0101401960121327478001OR ROD MEDEL                                            20500
A1901400290261244409001JUAN GUALBERTO M LEYEZA                                 20500
A1901400290261357951001LOURDES C MACALINTAL                                    20500
A0101406620273371455002DAYAG, SEGUNDO B                                        20500
A0101400570281421615001CHERRIE ANN L. ONG                                      20500
A6601400120314688938001OR ELSA L.                                              20500
A2401400180411454257001PIDO, NOEL C.                                           20500
A1201400150421485874001FLORES, GLENLIEL                                        20500
A1201400150421685972001JUCUTAN, ROMMEL                                         20500
A0101406330472206499001LUZDIVINA H. GERONIMO                                   20500
A0101403610531662330001BERROYA, CONNIE MORADA                                  20500
A0101407720602162890001CARLOTA NAVARRETE                                       20500
A0101407690652025438001MERCHANDISE                                             20500
A0101407690652525001080OF SHOECAT, INC.                                        20500
A0101410300663790131001Z, PABLO BASILIO B.                                     20500
A0101408240711469124001MORADA, ROWENA N.                                       20500
A2801400100712296090001MARGARET MANUEL-                                        20500
A4101400420814481492001MADERA, ABEGAIL                                         20500
B0201401020000000005056PRECISION POINT, INCORPORATED                            1601
B0101410850000000005687METRO MANDAUE SERVICE CORP.                              1605
B0101405490000000019981H.E. & G. ENTERPRISES                                    1602
B0101410720000000029996J.C.T. EZ LOAN CORPORATION                               1602
B0101411660000000032162OMNICONTENT MANAGEMENT, INC.                             1602
B0101413280000000041910INTERNET OF THINGS PHILIPPINES INC.                      1601
B0201401020000000470240GOLDEN TONIQ CORPORATION                                 1603
B0101408790000000599726KESTREL IMC CORP.                                        1605
B0101408240000000832553YUSUNG CHARITY FOUNDATION INC.                           1605
B0101403450000000889574***********                                              1603
B0101413860000001767939JUDICIARY SAVINGS & LOAN ASSN., INC                      1620
B0101405490000002841916SENTIR  INTERNATIONAL TRADING COMPANY                    1601
B0101400440000002846622BRAVO TRADING                                            1601
B0101406590000003007289ARSENAL CINEMATOGRAPHY COMPANY INC                       1601
B0101400860011024567001SUNGLOW ASIA INTERNATIONAL CORPORATION                   1602
B0101400150061010962002PHILIPPINE WELDING SOCIETY INC.                          1603
B0101400730111039580001SIXDEGREES INC.                                          1601
B0101401960121339004001**********                                               1601
B0101407270162036585002STA. MARIA INDUSTRIAL PARK CORPORATION                   1620
B0101407270162041489001******                                                   1604
B0101401090171042218001RD CASH PADALA, INC. - AREA 02                           1603
B0101407140213020285001WE MANUFACTURING & TRADING CO. INC.                      1603
B1901400290261027293002LIPA MEDICS INC.                                         1610
B0101406460272007511001STERLING GIFTS INC.                                      1605
B0101406460272075548001IVAPRO LAND CORPORATION                                  1601
B0101406620273216386001CITIMEX, INC.                                            1602
B0101400570281007298002SAMBA-LIKHAAN FOUNDATION                                 1601
B0101405650322034381001FUDMAN CANTEEN                                           1605
B0101402640361027755001CARE 1ST CORPORATION                                     1605
B0101402640361027755002CARE 1ST CORPORATION                                     1605
B0101402640361044394001METRO NORTH MEDICAL CENTER AND HOSP                      1620
B0101406880513036413001VISAYA KNOWLEDGE PROCESS OUTSOURCING                     1604
B0101404130601025459001ERICMAN PRINTING SERVICES                                1602
B0101407690652047936001WATER DRAGON CONST. & DEVELOPMENT INC.                   1601
B0101410720653561759001KNOX.COM CORP.                                           1602
B1301400210682034537002MACH 3 AUTOMOBILES CORP.                                 1603
B1301400500684046266001NORTHGATE PROPERTY VENTURES, INC.                        1601
B1701400230693027330004ALTHEA CONSTRUCTION                                      1602
B4101400260812043809001UPLIFT DASMARINAS                                        1605
B0601400230891029282001L5 & SONS FINANCING CORP.                                1605
B0201401020000000056266PINOY ENTREPRENEURS CONSUMERS                           11602
B0101412500214056030001CBL FOODLINE TRAINING & CONSULTANCY                     11601
B0101405650322172207001BF TRADERS MULTI-PURPOSE                                11603
B0201401020000000056266COOP.                                                   21600
B0101412500214056030001SERVICES                                                21600
B0101405650322172207001COOPERATIVE                                             21600
B1901400290261821100608**********                                               2010
B1201400150421821100608**********                                               2004
