F0101401830141350743002CORAZON E. TEODORO                                       2504CKO
F0101407300395370361001CHUA, MA. CRISTINA AGANON                                2505CKO
F4101400260812244954003ESTOCADO, REYNANTE JARDINIANO                            2502CKO
F0101406750000000017563MULTI MERCHANTRADE INC                                   2650CKR
F0601400100081040547001FILD PLAZA REALTY CONDOMINIUM INC.                       2603CKO
F0101402930381020092004ASIAN BAPTIST CLEARING HOUSE                             2606CKR
F0301400240401025953008ECE MARKETING                                            2602CKR
