A0101405650000000013134GRANADOS, APRIL ROSE ZAFRA                               0501
A0101406460000000021730PADILLA, HELEN GRACE TORTOLES                            0501
A0301400660000000023092GO, ROMEO YU                                             0501
A0201401020000000056302KJELLKVIST, HANS TONNY MIKAEL                            0501
A4101400420000000120743VILLANUEVA, ROWENA ALARCON                               0501
A0301400820000000132572BACALTOS, ENVY LOU                                       0501
A4101400550000000315182MARGAJA, FELICITA BITOR                                  0501
A0101400440000000337579MAYETTE V. PESAYCO                                       0501
A4101400260000000377355LOYOLA, ANNIE BAYAN                                      0501
A0101409890000000437405REYES, MICHAEL CONCEPCION                                0502
A0101401250000000441121CASTILLO, LORENZO UMIPIG                                 0501
A0101405490000000444557LEO ERAYA PIANGCO                                        0502
A0101410140000000499269BULAORO, ANALIE MAGTISA                                  0502
A0101409920000000523540SABIDA, BENDIALYN LAMONTE                                0501
A1901400320000000679261JANE MARIE GONZALES PANGANIBAN                           0501
A0101400150000000806746GINA D PINZA                                             0501
A0101410850000000844720VILLASIN, JASMIN OPINIANO                                0501
A0101410850000000844731NAIDU, ASHOK PAGADALA                                    0501
A0101410300000000919557SAN JOSE, MARY YVONNE ORLINA                             0502
A0601400230000000990063**********                                               0505
A0101412340000001017725EVANGELISTA, DENNIS REPOMANTA                            0501
A0101411240000001026851MARQUEZ, YOLLY MONTESA                                   0501
A0301400820000001027883LANTAYONA, GERIELYN                                      0501
A0101412890000001056422PAWIL, GERALD VICENCIO                                   0501
A0101408110000001165771SUAREZ, MAE VELASCO                                      0501
A1301400210000001206791UY, EDWARD HAO                                           0501
A0101405940000001209949LIM IT, BILLY SEE                                        0501
A3001400130000001271556WABINA, JOEL BASADRE                                     0501
A3001400130000001271567LIBRES JR., PONCIANO NICOLASORA                          0501
A0601400520000001349582MANALOTO, ISRAEL CUNANAN                                 0502
A0101411820000001356703IBAY DIGINET INTERNET CAFE                               0501
A0101407720000001393113CONSTANTINO, ELSA MAGBANUA                               0501
A0101413990000001406495RENOLAYAN, LEA DELOS SANTOS                              0501
A0101401670000001598496TOMANONG, ABDUL FATTAH SARIP                             0501
A0101407430000001664024QUIRANTE, JESSIE MARINAY                                 0503
A0101406620000001686724VIVO, RODRIGO PABLO MUNOZ                                0501
A0101413150000001688571******                                                   0501
A0101413150000001688628******                                                   0501
A2801400230000001734681SUSI, EMILY SIBUG                                        0502
A1701400230000001786763OANA, MELANIE REMIGIO                                    0501
A1101400120000001920474GALVAN, YVETTE PENALOSA                                  0501
A0101400310000002021123ALVAREZ, HAZEL BORAGAY                                   0501
A0101400440000002034811LUZANDE JR., BIBIANO ALINDOGAN                           0501
A0101408240000002381386MILLARES, MIRACLE TAZEL RODRIGU                          0501
A0101408240000002393091NAVARRO, JOAN LLAMAS                                     0501
A0101400860011376202002**********                                               0502
A0101400860011379561003**********                                               0502
A0101400860011570367001**********                                               0502
A0101400860011674983001**********                                               0506
A0101401700041752697001********                                                 0502
A0101400150061038536076BAUTISTA, THELMA S.                                      0501
A0101400150061227649001BELINDA GUEVARRA                                         0502
A0101400150061675628002CECILIA L. PAGUINTO                                      0501
A0101410560110478374013CYNTHIA EVANGELISTA MENDOZA                              0501
A0101406040112373801001MONTEVIRGEN, EMELINDA CANAS                              0501
A0101400440161525001040DOLORES A. DE GUZMAN                                     0501
A0101400440161525001139JEMARIE S. SALUDAR                                       0501
A0101401090171173915002DEXTER OR MA. ARLENE LEDESMA                             0502
A0101400310211795642001ESPIRITU, RIZI JANE HERNANDEZ                            0501
A3001400130230478374026SONOT, RODERICK AMAHOY                                   0504
A1001400350233525388001JILL YVES LORRAINE A. LAO                                0502
A0101406460272298552014ELMA BERNARDINO                                          0501
A6601400120314647786001CHRIS & JAMES CONSTRUCTION                               0501
A0201400760374673464001ALESNA, WINDOLYN MOSTOLES                                0501
A0201400890376762070001JIMENEZ, MARIA THERESA ALMARIO                           0503
A0201401020377550888001PONGASE II, VIRGILIO CALIJAN                             0502
A0101405490392072162001NARDO C. CHINGCUANGCO                                    0501
A0101405490392568879002ALAN P. ALMEDA                                           0503
A0101408950396695350001ARANDIA, EDSEL FERNANDEZ                                 0501
A5501400120410783004001RENDAJE, RELLY NEBRIL                                    0501
A0101403030441279569001**********                                               0506
A0101403320471466952001NESTOR RYAN M. AGUILA                                    0503
A0101403320471478374003LERMA BELICANO                                           0501
A0101403320471478374057EMMA G. FELIPE                                           0501
A1401400110492429565004SANTOS, WILFREDO GASPAR                                  0501
A0101403450521443140001YU, DOMINIQUE LO                                         0502
A0101407720602397743001NAZARETH, STEPHEN MAGSINO                                0503
A0101407720602398798001AVANCENA, MARIA CORAZON MONZON                           0501
A0101407720602398856001CALLEJA, HOMOBONO BELEN                                  0502
A0101407720602454953001BERNARDO, JASMIN MELISSA BALLEN                          0503
A0101408240711295749001REMELITA ROBINSON                                        0502
A0101408240711516971001ADOLPHO M. GUERZON                                       0503
A0101408240711612460001DE GUZMAN, MA. LOURISA LOREN C.                          0501
A0101408240711613544001MANISAN, FREDEVER MARIBAO                                0502
A4101400390813248327001SARIEGO, DANILO BAGONA                                   0501
A4101400390813775617001HERNANDEZ, JESUSA BULUSAN                                0501
A4101400420814477593003BAUTISTA, TERESA PONCEJA                                 0503
A4101400420814520766004SALVACION D. BITANCUR                                    0501
A0101404840851478374096MARIA JESUSA G. BATARIO                                  0501
A0101406750852376030001VILMA REGLOS MAALA                                       0501
A0601400230891363362001MARITESS P. FLORES                                       0501
A0101408240000000347299BENDITA, MICHELLE DELOS SANTOS                          10501
A4101400550000000506892PURPLE GRAINS AND                                       10501
A0101404260000000532169ROMAN, JOCELYN LAXAMANA                                 10502
A0101409920000000857990QUIZAN, ROMANA C. OR                                    10502
A2801400100000000906194LEE, ROBERT NG AND                                      10501
A0101412340000001017827BALLELOS, KAREN R. OR                                   10502
A6601400120000001065394SAN PABLO, MELBA DAYMON OR                              10501
A0101403450000001637841LIM, MINNIE ROSARIAL OR LIM,                            10501
A1701400230000001786718RAMBAUD, ALBERT LACRO OR                                10501
A0101401250021401825001CHUA, REYNALDO MAGNO OR                                 10504
A0101406040112733226001FRANCISCO DAVID OR                                      10502
A0101401960121327478001AIDA MEDEL                                              10502
A0101401090171195723001LETICIA DEL ROSARIO OR                                  10502
A0201400760374046327001PELAYO, R. DBU TOTO ENTERPRISES                         10506
A0201400760374682272002OUANO, RUPERTO VILLAFLOR OR                             10501
A0101403320471047588001RHINA JENEPER C. LIBIRAN DBU                            10502
A0101407720602283353001ERWIN HERNANDEZ OR                                      10501
A1301400210682245509001DR. DANILO SACDALAN OR                                  10502
A4101400260812246527001ISIDRO B. DELA CRUZ JR. OR                              10510
A4101400420814304997002ABAD, EVELINA OR ALVIN VINCENT                          10502
A0101408240000000347299AND AQUINO, MARILEN                                     20500
A4101400550000000506892GEN. MERCHANDISE                                        20500
A0101404260000000532169OR SORIANO, NOEL BERNABE                                20500
A0101409920000000857990GORRE, RODELYN Q                                        20500
A2801400100000000906194GUY, CESAR TAN                                          20500
A0101412340000001017827MERCADO, DEXTER M.                                      20500
A6601400120000001065394UY, IMELDA SAN PABLO                                    20500
A0101403450000001637841JOHN CHRISTOPHER BURAC                                  20500
A1701400230000001786718MARICAR CATHERINA                                       20500
A0101401250021401825001CHUA, EMMA GESLANI                                      20500
A0101406040112733226001DELIA ADOLFO                                            20500
A0101401960121327478001OR ROD MEDEL                                            20500
A0101401090171195723001DELFIN DEL ROSARIO                                      20500
A0201400760374046327001COMMODITIES                                             20500
A0201400760374682272002JAYME, STEPHEN R                                        20500
A0101403320471047588001R-GENESIS DRUG STORE                                    20500
A0101407720602283353001AGNES HERNANDEZ                                         20500
A1301400210682245509001  DRA. CECILIA S                                        20500
A4101400260812246527001LILIAN H. DELA C                                        20500
A4101400420814304997002OR CHRISTINE MAR                                        20500
B0101410850000000005687METRO MANDAUE SERVICE CORP.                              1604
B0101405650000000012933CASTLE MERCHANTS AND HAULAGES INC.                       1605
B0101406040000000014815TWINCOM TRADING CORPORATION                              1605
B0101407140000000015083**********                                               1602
B0301400660000000022835DURABOARD PACKAGING CORP.                                1601
B0101410140000000038873MINDPOINT MANAGEMENT AND CONSULTANC                      1602
B0101413600000000206879COOL TECHNICAL SYSTEMS MAINTENANCE                       1605
B0101409890000000209203METROSUMMIT REALTY & CONST. CORP.                        1602
B0101409920000000437001BELTRAN, RA DBU MJR2 PRINTING SERVICES                   1601
B0301400950000000566854**********                                               1605
B0101402060000000653805TOYOTA TAYTAY, RIZAL, INC.                               1602
B0101405940000000886740IMMERSIVE MEDIA, INC.                                    1601
B0101407430000001212979FRUS CORP.                                               1602
B3001400130000001271772xxxxxxxxxx                                               1603
B0101400860011402223001**********                                               1603
B0101406040112025273001BARBARA'S FOOD & CATERING SERVICES INC.                  1602
B0101406040112033244001PATIO VICTORIA CORPORATION                               1605
B0101400310211005640001KUBOTA PHILIPPINES, INC.                                 1605
B0101407140213035952001**********                                               1601
B3001400130230043534001BERRY HAPPY MART INC.                                    1605
B0101401670271029786001AGUIRRE & AGUIRRE LAW FIRM                               1601
B0101406460272678428001ARTESAN PRIME PROPERTIES INC.                            1601
B0101411820277047977001CHICHARAP EXPRESS FOOD CORPORATION                       1602
B0101400570281007188002KIMURA CHAVES ENTERPRISE, INC.                           1602
B0101400570281007818001ACE-NBS MULTI PURPOSE COOPERATIVE                        1601
B0101402060351023796001CREATIF FOIRE PRO, INC.                                  1610
B0101403320471028831001COVENANT CHILDREN, INC.                                  1601
B0101403320471035191001ST. GABRIEL CREDIT COOPERATIVE                           1601
B0101406880513044487001CODE RED BRAND COMMUNICATIONS INC.                       1603
B0101403450521011744001CBK CONSTRUCTORA, INC.                                   1603
B0101403450521015297001PACIFIC HORIZON PROPERTY VENTURE INC.                    1601
B0101403450521238087001**********                                               1610
B1301400210682248659001ASIANLAND STRATEGIES CORPORATION                         1605
B1301400340683023491001EMPRESS CHEMICAL INDUSTRIES, INC.                        1601
B0101406750852456290001**********                                               1602
B0601400230891046531001RD CASH PADALA, INC. - AREA 03 SAN                       1603
B0101410560000000020355YUMANG, AMOR VERGARA OR DAGUIO, MELARITA                11602
B0101403320000001647149UNIGOLD EVENTS AND PROMOTION MANAGEMENT                 11601
B0101401090171196088004DRS. LIBERTAD N. ROSALES OR                             11601
B0101400310211036828001CHRISTIAN INVESTIGATION & SECURITY                      11602
B0101402060351009370001CHEM INSURANCE BROKERS AND SERVICES                     11602
B0101405940512038848001JADE ENTERTAINMENT AND GAMING                           11603
B0101410560000000020355LA TORRE                                                21600
B0101403320000001647149INC.                                                    21600
B0101401090171196088004TYRONE REYES                                            21600
B0101400310211036828001AGENCY                                                  21600
B0101402060351009370001CORPORATION                                             21600
B0101405940512038848001TECHNOLOGIES,INC                                        21600
B0101413150124821100608**********                                               2003
B0101413150124821200608**********                                               2002
