F0101401090171195635002ELVIRA OR MARIO MILO                                     2505CKO
F0101407560686028809001INTERNATIONAL JOURNEYS, INC.                             2602CKR
F4101400260812033409002NEW DASMA GOLD BAKE INC.                                 2601CKO
F4101400260812033409003NEW DASMA GOLD BAKE INC.                                 2601CKO
F4101400390813030057001ACE-MED INC.                                             2610CKR
F0101410850000000005621TURNSAT INTERNATIONAL LOGISTICS                         12604CKR
F0101410850000000005621CORP.                                                   22600CKR
