F0101400570281441951009HERNANDO L. CRUZ JR.                                     2505CKO
F0101402930381416726001YU JIN WON OR HYUN JEONG WON NO                          2501CKO
F0101408240711469319001ESCOLAR, RICHARD TAN OR JACLYN                           2501CKO
F0101400570281535953001FRANCISCO P. DALANGIN OR                                12502CKO
F0101400570281535953001MELODY G. DALANGIN                                      22500CKO
F1001400350000000017074MSU-IIT NMPC BULUA-CDO BR.                               2601CKR
F0301400110191047580133MEGA DURIAN MOBILE GROUP, INC.                           2601CKR
F0301400110191047580155MEGA DURIAN MOBILE GROUP, INC.                           2601CKR
F0101406620273582820001QUADSTRUCT, INC.                                         2605CKR
F0101401830141024770001METROPOLITAN ACADEMY OF MANILA                          12602CKR
F0101406620273037433001QUADCORE CONSTRUCTION &                                 12610CKR
F0301400820409049152001LLANOS, ALFONSO DBU LLANOS                              12602CKR
F0101404130601614586002UNICHAMP MINERAL PHILIPPINES                            12604CKR
F0101401830141024770001INC.                                                    22600CKR
F0101406620273037433001DEVELOPMENT CORP                                        22600CKR
F0301400820409049152001MEDICAL CLINIC &                                        22600CKR
F0101404130601614586002INC.                                                    22600CKR
F0101405070861020884003FORMTECH BUILDERS CORPORATION                            2703CKC
