A1601400170000000036473BENITA A. CALLEJA                                        0501
A0201401020000000056062GERIBISE, NENA ENOT                                      0503
A4101400420000000120663ROSALES, DARLENE PASCUA                                  0501
A4101400420000000120992IMPERIAL, SALVADOR ADVINCULA                             0501
A1901400160000000243683RENILO BALMES PANGANIBAN                                 0501
A0101410560000000268400MACAJELOS SR., GEORGE EPARWA                             0503
A0101408370000000336150REYES, SELENA TRICIA SANTOS                              0501
A0101408370000000336183CUAJUNCO, EILEEN ALIKPALA                                0502
A0101407690000000587920BRAVO, PHILIP ALIPORO                                    0501
A0101408530000000594281GUEVARRA, KATHLYN RIVERA                                 0501
A4101400390000000745335MARIANO, JENNIFER CARPIO                                 0501
A0101408820000000800315*************                                            0501
A0101407270000000818480CLEMENTE, SPIRO LU                                       0502
A0101413860000000859081ALVIA, ROWENA MOSQUERA                                   0502
A0101406880000000860060MIRALLES, JONIFER FAJARDO                                0501
A0101404420000000866519ELPEDES, ROBERTO NOLASCO                                 0501
A0101409180000000874619DOMINGO, CARMENCITA ALIMARIO                             0502
A0101414120000000875452RODGE JULIENNE ENTERPRISES                               0502
A0101414120000000875550STORM CONSTRUCTION                                       0502
A0101407690000000914050ADORNADO, MARY GRACE MARTY                               0501
A0101403580000000922747CATTLEYA PINKY B. OTEYZA                                 0501
A3801400170000000955062BABY ROSE B GONZALES                                     0502
A0101412340000001017521JIMENEZ, JANICE BANGUILAN                                0505
A1601400170000001068695MARIA CECILIA V. NEPTUNO                                 0501
A0501400170000001072713ANG, JUSSLYNN MAISIE ONG                                 0501
A0101412500000001147017MOLDEZ, AZIEL JIREH                                      0501
A0101402640000001150150BAUTISTA, NORMA LLANETA                                  0501
A1301400210000001206819*******                                                  0501
A3001400130000001271501DUBOUZET, ZENAIDA DAGASDAG                               0501
A0101410690000001284333TANG, WEI                                                0501
A6601400120000001370690ARNINIO, ROUMEL CLUTARIO                                 0501
A0101401090000001618673MALICDEM, ANNA MAUREEN FLOJO                             0501
A0101403320000001646926CLIDORO, GERDIE BARCELON                                 0501
A0101413150000001688606******                                                   0501
A0101405070000001726132MABUHAYKOREA CORP.                                       0502
A0101414120000001751479ORDINARIO, TIRSO ESTEBAN                                 0501
A4101400260000001783651CESAR, ELENA ESPABELLA                                   0501
A1701400230000001786741BACLIG, CHARISMA LOPEZ                                   0501
A0701400260000001804495BUNAG, AMELIA ACHONDO                                    0501
A0901400220000001804951**********                                               0501
A2201400250000001932350GO, NANCY CHAN                                           0501
A0101400440000002034782CHARITO IBANEZ                                           0502
A0101400860011554656001SY, CINDY SANTOS                                         0501
A0101400860011556558001**********                                               0502
A0101400860011608631001**********                                               0502
A0101400860011656351001**********                                               0502
A0101400860011669392001**********                                               0504
A0101401700041409445001CHAN, MAN CHUAN SZE                                      0501
A0101400600071234355001*********                                                0502
A0601400360083528303002SUAREZ, RAMON JOSE FLORES                                0501
A0601400360083649312001KIM, KANG WOOK                                           0501
A0101400730111520766002MA. LIZA C MALAQUE                                       0501
A0101400440161039572045DOVIE T. JERMIA                                          0502
A0101407270162033562001BIG DAWG HOSTING INTERNET CAFE                           0501
A0101401090171195873001JOSE OR SHIRLEY IRENEO                                   0505
A0101401090171198478001MAFEL C. YSRAEL                                          0501
A0101401090171339798001GRANADO, GEZZEZ GIEZI GARALDE                            0501
A0101400310211446221002ALMERA, ROEL ROSALES                                     0501
A3101400160221220999001**********                                               0501
A3001400130230687086188********                                                 0505
A1001400190231509590001LAGUYAN, ENGRACIO SALONA                                 0502
A0101406460272742513001SANTOS, LORRAINE SILAO                                   0501
A0101400570281399721001JOFFREY U. UY                                            0501
A0101400570281399721002JOFFREY OR JORDAN UY                                     0501
A0101400570281508723001RAMOS, ROBERTO VILLARAMA                                 0502
A0101402350321478374013ROSALINA M. MARAVILLA                                    0501
A0101402350321528563001SABANDO, JULIETA A.                                      0502
A0101402350321682448001RAMBOYONG, REVIE ANN OJEDA                               0502
A0101408820333164559002PILARES, LEONORA R.                                      0501
A0101408820333624409001********                                                 0503
A0101402510341196639001FELICIDAD M. BAGSIK                                      0501
A0101402060351211701004MA. DOLORES DANNUG                                       0502
A0101402640361043850001BIENTER-CON ENGINEERING SERVICE                          0502
A0101402640361044022001JIMBES PRINTING                                          0501
A0101402640361168323002MESINA, MILAGROS DE VERA                                 0502
A0101402640361340310003***********                                              0501
A0101402640361478374071RANIEL B. CALIPES                                        0501
A0101408370382205236001DR. CYNTHIA A. AGUIRRE                                   0502
A0101408370382445179001**********                                               0502
A0101405490392036563001*********                                                0502
A0101405490392443758002LIM, VILLAMOR QUEJARRO                                   0502
A0101405490392481659001MARITES Q. FACTURA                                       0501
A0101405490392693267001ADELA C. TABALE                                          0502
A0101408400394650469001SALAMANCA, JOSEPHINE MOJICA                              0501
A0101403030441043810001CORE SOURCE TRADING                                      0504
A0501400170481253841003VINLUAN JR., JOSE D.                                     0501
A1901400160491546773001IRENEA M ERLANO                                          0501
A0101403580511156579014IMELDA FUNDALES                                          0501
A0101406880513573272001FUENTEBELLA, ANJEANETTE TURALBA                          0502
A0101403450521238538002**********                                               0502
A2201400250561088535001CHRISTOPHER JORDAN L. CHUA                               0501
A2201400250561371209001ANTONIO S. TANJUAKIO                                     0501
A0101407720602488057001LAMBAN, ARLENE BAYLA                                     0501
A0101407690652175841002EVELYN A. ANDRADE                                        0505
A0101407690652319667001TANTAMCO, RAMON NICOLAS                                  0506
A0101406590662465371001PORRAS, ARLENE DELA CRUZ                                 0501
A1301400340683453552002NATIVIDAD, EDUARDO PACHECO                               0502
A0101407560686238354003**********                                               0502
A0101407560686367461001GLICERIA E. YADAO                                        0501
A1701400230693478374071QUILIT, RIZALINA ANCHETA                                 0501
A0101408240711478374015EMILY MONTILLANO                                         0502
A4101400420814478374026FLORENCIA DELA CALZADA                                   0501
A0101404840851478374193JONALYN BACALANGCO                                       0501
A0101405070861372200001ERLINDA M. DE JESUS                                      0501
A0101405070861401501001ROLDAN, JOSEPHINE MARAVILLA                              0502
A0101406750000000090639REY, MARK DARRELL DBU ARISE                             10501
A0101405070000000447523CASTRILLO, CATHERINE DBU                                10502
A0201400760000000476966RODRIGUEZ, PETER OR NIKKIE OR                           10501
A0101407270000000818304RICARDO FERNANDEZ DBU                                   10501
A5501400120000001121997TOGONON, JOSEDO OR                                      10502
A0101414120000001427601ISABEL MONTERO OR CARLOSA                               10501
A0101402350000001474379SINGZON, ANA LIZA CASES DBU                             10501
A0701400260000001804484TATEL, SALVADOR DBU                                     10501
A0701400260000001804502DEL BARRIO, DBU JR-JANNA                                10501
A0201400890000002359511CHIU, JEANNETTE OR                                      10501
A0101401700041417687001VILLAREAL, LITA JEAN C. OR                              10510
A0101407270162041797001BEATALENT DEVELOPMENT AND                               10506
A3101400740224380395001KU, KUO JEN AND                                         10503
A0101402350321530036001MA. CRISTINA T. TORRES OR                               10503
A1401400110492044408001MIRADETH I. SEVILLA CATERING                            10501
A0101403580511388107001ANTONIO G. PEDRO OR                                     10502
A0101407720602280481002ARABE, EDUARDO OR                                       10501
A0101407690652520766012CLARITA BUENAVENTE - DEALERS OF                         10502
A0101407690652525001015FERRER, EVELYN - DEALERS OF                             10502
A0101407690652525001051ANNABELLE BADAYOS - DEALERS OF                          10501
A0101407690652525001057SONNY M. BAJIO - DEALERS OF                             10501
A0101407690652525001081AGUSTINO, ROWENA - DEALERS OF                           10501
A0101406590662470961001VALMOCINA, ESTRELLA C. OR                               10510
A0101406750000000090639TRADING                                                 20500
A0101405070000000447523TAPSIBOG FOOD SERVICES                                  20500
A0201400760000000476966WINSTON                                                 20500
A0101407270000000818304RG TRUCKING SERVICES                                    20500
A5501400120000001121997TOGONON, JOAN                                           20500
A0101414120000001427601TUGADO                                                  20500
A0101402350000001474379HYDROSYSTEM TRADING                                     20500
A0701400260000001804484ORAGON BROKERAGE                                        20500
A0701400260000001804502KAKANON BIKOL RESTO & CAT                               20500
A0201400890000002359511CHIU, EDWARDSON                                         20500
A0101401700041417687001VILLAREAL, CLAUD                                        20500
A0101407270162041797001MARKETING                                               20500
A3101400740224380395001KARUNUNGAN, AURORA                                      20500
A0101402350321530036001JOSE S. TORRES J                                        20500
A1401400110492044408001SERVICES                                                20500
A0101403580511388107001FELISA C. PEDRO                                         20500
A0101407720602280481002ARABE, EMELITA                                          20500
A0101407690652520766012SHOECAT INC.                                            20500
A0101407690652525001015SHOECAT INC.                                            20500
A0101407690652525001051SHOECAT INC.                                            20500
A0101407690652525001057SHOECAT INC.                                            20500
A0101407690652525001081SHOECAT INC.                                            20500
A0101406590662470961001GUTIERREZ, MARY ANNE                                    20500
B0901400220000000012175FLORIVEL M. DE JESUS ACCOUNTING OFFICE                   1602
B0101403580000000015738MEC - SPV 5 & 6                                          1610
B0101407690000000025032GOLDLINK NETWORK SOLUTIONS INC.                          1601
B0101405070000000028880CLUB YOKO BAR AND RESTAURANT INC.                        1601
B0601400230000000029894DREAMMAKERS PHILS CONSTRUCTION COMP                      1601
B1401400110000000034700QUEEN MARGARETTE HOTEL, INC.                             1603
B0101412180000000075461CLOVERLINK CORP.                                         1601
B0101406040000000096622LIMBEE UY INC.                                           1602
B4101400550000000900025ACADEMY FOR CHRISTIAN EDUCATION, IN                      1602
B0501400170000001072979VIRAY, HILARIO SISON OR VIRAY, LETICIA                   1601
B4101400260000001198990ENSAIMADA MAMON INC.                                     1601
B4101400260000001199004EXPLODING YUMMIES INC.                                   1601
B0101400600071011309001PEDERNAL MARKETING                                       1605
B0101400600071232741002**********                                               1602
B0101400600071325133001**********                                               1602
B3101400450223365119003VICTOR HUGO ENERGY CORPORATION                           1601
B0101402060351009376001AVC CHEMICAL CORPORATION                                 1605
B0101402640361038833001KASAGANA-KA DEVELOPMENT CENTER, INC                      1603
B5501400120410041534001NOTRE DAME OF NEW ILOILO, INC.                           1602
B2401400180411029556088RELL & RENN FISHING CORPORATION                          1602
B0101403580511015363071MEC - SL - T5                                            1602
B0101403580511015363081MEC - SUNTRUST PARKVIEW                                  1605
B0101403580511515198001ATMA INTERNATIONAL CORPORATION                           1601
B0101406880513155494001G & O  REALTY AND DEVELOPMENT CORP.                      1601
B0101403450521011910001KITCHEN BEAUTY MARKETING                                 1605
B0101407690652763117001MARILYN BAGGAYAN AND CONSTANCE REYES                     1601
B4101400550815041950001GARDENIA KAPIT-BISIG MULTI-PURPOSE                       1601
B0101405070861008154001KUMAR PLASTICS                                           1603
B0101405070861038512001**********                                               1602
B0101406460000000020931GREATWALL MANPOWER & GENERAL                            11603
B0101412340000000031034SAINT FRANCIS OF ASSISI COLLEGE OF                      11605
B0101401830000001282188R. E. LEGASPI BUILDER AND DEVELOPMENT                   11601
B0101410690000001284340CIOCON JR.,DBU RLCJR LIGHTING ESSENTIALS                11601
B0101401090171008005001FOUNDATION FOR THE TRAINING OF SURGEONS                 11601
B0101409050352212676001LIAMZON, MA. ANTONIA/FRANCISCO/FRANCIS                  11603
B0101408370382045343001THE MEDICAL CITY PSYCHIATRY AND WE CARE                 11602
B0101403580511697760002SUNNYBING INTERNATIONAL TRADING                         11603
B0101406460000000020931SERVICES INC.                                           21600
B0101412340000000031034TAGUIG, INC.                                            21600
B0101401830000001282188CORPORATION                                             21600
B0101410690000001284340ENTERPRISE                                              21600
B0101401090171008005001AND RESEARCH                                            21600
B0101409050352212676001KEVIN/CATHERINE                                         21600
B0101408370382045343001ASSOCIATION INC                                         21600
B0101403580511697760002CORPORATION                                             21600
B0101402350321821100608**********                                               2005
