F1901400290000000030731DRA. EVELYN UY ORTIZ-QUINTO                              2501CKO
F1901400290000000030713DR. VICENTE LORENZO                                     12501CKO
F0101406750852479415001JOSE P. BANTILING OR ELENITA P.                         12502CKO
F1901400290000000030713DIMAYUGA JR.                                            22500CKO
F0101406750852479415001BANTILING                                               22500CKO
F0101403580511005485009P.J. LHUILLIER, INC.                                     2610CKR
F0101407720602018196004BELO MEDICAL GROUP, INC.                                 2604CKR
F1301400210682712312001ALVAREY CORPORATION                                      2602CKO
F1301400340683012920002MEYCAUAYAN COLLEGE INC.                                  2605CKR
F4101400260812038727001METRO CAVITE HEALTH SYSTEM INC.                          2610CKR
F0101405650322033184001ASIA PLUS CORPORATION                                    2705CKC
