A1901400160000000243707ROLYNDA T SOSA                                           0501
A0101400440000000337604BERGONIA, AMELIA PANOL                                   0502
A0101408820000000408655*******                                                  0501
A0101401250000000460586AZUCENA, MARIA PAMELA ENRIQUEZ                           0501
A0101404840000000475952GONZALES, ROWENA POLLICAR                                0501
A0101404260000000532089HASSAN HAGHIGHI FARD, AHMAD ANC                          0501
A0101408370000000586049RAMOS-ATIENZA, MICHELLE E.                               0502
A0101400860000001005343**********                                               0505
A1601400170000001068673CHRISTOPHER DOUGLAS G. GIMENEZ                           0503
A0101406330000001235272VHANZ HARDWARE                                           0501
A0101401380000001412526********                                                 0501
A1901400160000001718087GUNZEN RESOURCES ENTERPRISE                              0502
A0101403320000001803247AREVALO, LORREN KRISTINE VERGEL                          0501
A0101412630000001823274TURINGAN, MARIA ELENA LASAFIN                            0502
A0101408790000002031492AGUILAR JR., ERNESTO VERONA                              0501
A0101409180000002252648***                                                      0501
A0101400150000002749671LUSPO, RENELYN IGNACIO                                   0502
A1301400210000002908967DAVID JR, CLODUALDO SEVILLA                              0501
A0101404680000003000413D.A. CASTILLO TRUCKING                                   0505
A0101409180000003310163MAGLEO, ESTHER PAMPOLINA                                 0501
A0101412500000003564101AVEDILLO, JOSE OCHOA                                     0501
A0101400860011412603002**********                                               0502
A0101400860011799843001**********                                               0501
A0101401250021478374001BAGTAS, JOSEPHINE                                        0501
A0101401700041320114002TAN, MARISSA WONG                                        0502
A0101401700041752697001********                                                 0502
A0101400150061626610001********                                                 0502
A0101400730111520766008ALOMA M MADUROG                                          0502
A0101401830141375229001SORIANO II, LORETO VISPERAS                              0501
A0101400440161525001125MAY M. RAMOS                                             0501
A0101400440161673269001GREGORIO G. BALLENA JR                                   0501
A0101401090171331804002CAROLYN R. DAYRIT                                        0501
A0101401090171776742001ARNOLD C. JOSUE                                          0501
A0301400660194407464001BOLOSITO, ARLENE REGIS                                   0502
A0101401380201631934001JUNG, HEESUN                                             0502
A1001400190231509590001LAGUYAN, ENGRACIO SALONA                                 0502
A1001400190231520766107DELIA ENRIQUEZ                                           0501
A0101408660274217223001SERRANO, JINKY ESPERA                                    0501
A0101400570281553109002ENRIQUE DELGADO COJUANGCO JR.                            0501
A6601400120314040857002MEDLINE DRUG & MEDICAL SUPPLY                            0501
A6601400120314612868001FE ADRIATICO OR MIGUEL ARIATICO                          0502
A0101402350321463175001CRISANTO P. MALONZO                                      0501
A0101402350321478374008VICTORIA ELLE                                            0501
A0101402350321530494001CHRISTINE PEARL P. LIM                                   0501
A0101405650322294619001VESES, LILIA HERNANDEZ                                   0502
A0101402060351408020001***************                                          0501
A0101408370382445179001********                                                 0502
A0101408400394485507001QUITORIANO, GEORGE OMER DENIS S                          0505
A5501400120410685210001GUINTIBANO, EDEN VILLARUEL                               0501
A2401400180411272614002BALAYO, JOEL BASCO                                       0510
A2401400180411592060001BABASA, STEPHEN JOY RIVERA                               0503
A0101403030441239184001DARWIN NG                                                0501
A0101406330472478374043ROLLY A. MALLARI                                         0501
A3801400170490088864001JOSEPHINE I FAUNILLO                                     0502
A0101406880513535428001CARLOS, HENRY MARINAS                                    0502
A0101403450521239535001******                                                   0501
A0101403610531499193001DADIVAS, PRECIOUS RITZ ANES                              0501
A0101407720602318369134MARIA PATRICIA A. CHAVEZ                                 0502
A0101407720602397739001LOPA, RAMON ANTONIO BAUTISTA                             0502
A0101404260611478374084JEAN GONGOB                                              0501
A0101404680651034098001NOVAVILLE PAINT CENTER                                   0502
A0101404680651520766071EMILY P. PONGPONG                                        0501
A0101404680651520766094MARIBEL P. CINCO                                         0501
A0101404680651520766097FLAVIANA T. PAJANUSTAN                                   0501
A0101404680651520766168MIRASOL T. FIRMALINO                                     0501
A0101404680651520766171JONIS PRELYN MONTILLANO                                  0501
A0101404680651520766177PURISIMA L. CATCHUELA                                    0501
A0101404680651531395001ANTONINO A. NISPEROS                                     0501
A0101404680651537465002MIABELLE B. BRINGAS                                      0502
A0101404680651545666001MERCELITA P. MANCILE                                     0501
A1301400340683530561001******                                                   0505
A1301400500684793753001HERRERA, ALWIN DALISAY                                   0501
A0101407560686287781001LITO KING                                                0502
A0101408240711381561003MARY TERESITA M. DE JOYA                                 0502
A0101408240711568686001RAFER, JENNIFER PACAO                                    0502
A4101400420814520766065ANGUE, HONEYLYN D.                                       0501
A0101404840851217637020JULIUS G. ARGANA                                         0501
A0101404840851217637065LUCY D. AMPO                                             0501
A0101404840851520766073ELIZABETH A. SUAZO                                       0501
A0101405070861380698001REYES SR., RENATO SISCAR                                 0501
A4101400420000000018442RONDILLA, ROVILIN DBU                                   10503
A0101410300000000026462SYCIP,JOHN CARLOS/BANTIGUE,JOHN                         10505
A0101403320000000522381DELA PAZ, CHAUNCEY RAJAL DBU                            10502
A0101409920000000523697VILLANUEVA, DBU DB VILLANUEVA                           10501
A0101411530000000581442MILLIGAN, MARIA CONCEPCION OR                           10501
A0101404840000001312263ABAT, MARIA ROCHELLE VIVO AND                           10502
A0101406750000001491830FORTIFAES, CHARISSE ANNE                                10501
A0101403320000001803156LIME LIGHT CONSTRUCTION AND                             10501
A0101409920000001951942MEMBERS OF NATASHA (SHOECAT INC                         10502
A0101409920000001951953MEMBERS OF NATASHA (SHOECAT INC                         10502
A0101401250000002131760PALLORAN, LO DBU JAP                                    10501
A0101413990000002274039CARDENO, ELMER C. OR                                    10502
A0101401250021180940001DOMINGO, LAURA S. OR                                    10505
A0601400100081666543001SINGH, PRABHJOT OR                                      10502
A0101407140213587892001DE GUZMAN, ROMEO CAMPOS OR CARL                         10503
A1301400470252428022001DRA. MA. CLARISSA ELIZABETH                             10502
A1301400470252599213001REYNALDO OR ROSARIO TERESITA OR                         10503
A0101400570281344838001AUGUSTO GUTIERREZ REYES OR                              10502
A0101402350321185453001LIM, PONCIANA OR LIM, SEVERIANA                         10501
A0101408370382789590001FRANCIS ODELON B. ESTIVA OR                             10505
A0101405490392170122001LEONIDES A. SANTOS OR                                   10502
A0101403320471549019001CRUZ, ALTHER EVANGELISTA                                10501
A0101403320471661005001MARIQUIT R FERMIN OR POCHOLO S                          10501
A1901400160491244286001CARLITO GO OR FELIE GO OR                               10505
A1901400160491282845001ARTHUR C MALALUAN OR                                    10501
A0101403610531304005001ANCHORIZ, NERRIZA OR                                    10503
A0101404680651168938001ALAMARES, NICOLAS OR                                    10501
A0101406590662297269001MARTINEZ, ARMAN M. OR MARTINEZ,                         10501
A0101408240711488872002JOSEPH BRYAN P. DAVIDE OR                               10502
A4101400420000000018442ASIAN STAR REALTY                                       20500
A0101410300000000026462PAUL/ESQUIVIAS,JOAQUIN PA                               20500
A0101403320000000522381GABTECH MEDICAL TRADING                                 20500
A0101409920000000523697CONSTRUCTION & SUPPLY                                   20500
A0101411530000000581442PABALAN, FERDINAND P                                    20500
A0101404840000001312263TERESA A. MALABANAN                                     20500
A0101406750000001491830CORITOS                                                 20500
A0101403320000001803156DEVELOPMENT                                             20500
A0101409920000001951942TULAYBA, ARLENE                                         20500
A0101409920000001951953IGPIT, IRENE                                            20500
A0101401250000002131760GENERAL MERCHANDISE                                     20500
A0101413990000002274039CARDENO, MA. RIZZA GRACE                                20500
A0101401250021180940001DOMINGO, EDWIN V                                        20500
A0601400100081666543001DESAMITO, GEMMA                                         20500
A0101407140213587892001OS, SOLIDAD SILVA                                       20500
A1301400470252428022001VILLAROMAN                                              20500
A1301400470252599213001RAYMOND JOSEPH ODULIO                                   20500
A0101400570281344838001MARITA REYES                                            20500
A0101402350321185453001OR SANTIBANEZ, BELINDA                                  20500
A0101408370382789590001ELIZABETH WYNONA ESTIVA                                 20500
A0101405490392170122001CONCHITA R. SANTOS                                      20500
A0101403320471549019001OR AMELIA E. CRUZ                                       20500
A0101403320471661005001FERMIN OR PEDRO ROSALES                                 20500
A1901400160491244286001CARLEEN OR CHERYL KING                                  20500
A1901400160491282845001IRENE D MALALUAN                                        20500
A0101403610531304005001ANCHORIZ, FRANCISCO                                     20500
A0101404680651168938001ALAMARES, AMELIA                                        20500
A0101406590662297269001MARIA THERESE G.                                        20500
A0101408240711488872002FLORA MAY F. DAVIDE                                     20500
B4101400260000000002240PHILIPPINE PIZZA, INC.                                   1602
B3401400280000000002364MARK Q. GRANFLOR AND DIGNO V. JORE JR.                   1601
B3401400280000000002386MARK Q. GRANFLOR AND DIGNO V. JORE JR.                   1601
B3001400130000000006862ML_BUILDERS INC.                                         1603
B0301400660000000023014*****                                                    1602
B0601400100000000032839TANCUNGCO BENSING LIVESTOCK CORPORA                      1603
B0101412500000000041749UNITED DOCTORS MEDICAL CENTER, INC.                      1630
B0101412180000000075272R.J. CALPO & COMPANY, INC.                               1602
B0101404680000000095710MVG HARDWARE                                             1601
B0301400950000000566923DAVAO TOPCHING AUTO PARTS                                1604
B0101408790000000599862GOFAST LOGISTICS INC.                                    1601
B0101406880000001227485PHILREALM DEVELOPMENT CORPORATION                        1601
B0101404680000001296584CIMECH SYSTEMS INDUSTRIES, INC.                          1601
B0201400760000001612891TOLEDO DEVELOPMENT SERVICES                              1601
B0101403320000001647183TRIX-ZION VENTURES CORPORATION                           1602
B0101400150000001708378NOVA ART GALLERY, INC.                                   1601
B0101401700041190338003**********                                               1601
B0601400100081025333001TRUE NORTH MANUFACTURING SERVICES CORP.                  1610
B0301400530193014284008COLOURLAND INC. - TAGUM                                  1602
B0301400660194046002088GARDEN BY THE BAY CORPORATION                            1605
B0101401670271389719001PHILREM SERVICE CORP.                                    1605
B0101406460272040465001SPORTFIT, INC.                                           1605
B0101406620273009530001MCRP CONSTRUCTION CORPORATION                            1603
B0101410980275046025001SPRINT ASIA LOGISTICS INC.                               1601
B2001400290315528399001**********                                               1601
B0101402480331036207001MYGENERICS PHARMACY INC                                  1603
B0201400760374055989001GOLDEN GREAT PEAK ENGLISH INC.                           1601
B0101409180397044045001CACHO CONSTRUCTIONS, INC.                                1602
B2401400180411017908001LWC CYCLE MART, INC.                                     1602
B2401400180411030534001GENSAN-PRIMAL AUTO PARTS                                 1605
B0101403030441239806001JETCO MOTOR SALES                                        1603
B0101407430503006760001INTERNATIONAL CONSOLIDATOR PHILS., INC.                  1602
B0101405940512028942001AIRPOL EMISSION TESTING CENTER                           1601
B0101406880513005366001SDS EXPRESS INTERNATIONAL INC.                           1601
B0101404000551017749001PHILKO PEROXIDE CORPORATION                              1620
B0101407720602428613001DERMA 360 CORP.                                          1601
B0101404260611035419002JK HUMANBOND CORPORATION                                 1602
B0101408240711028914004C & F TRADING CO.                                        1602
B0101406750852039684001PHILJOB MANPOWER SERVICES, INC.                          1602
B3801400170000000018722ANTONIO OR ZENAIDA OR WESLEY CATIBOG OR                 11601
B0101406590662517153001BRAND CONCEPTS SUPPLIES AND                             11603
B3801400170000000018722HAZELYN ACEDERA                                         21600
B0101406590662517153001MANUFACTURING                                           21600
B0101402480331821100608**********                                               2010
B0101402060351821100608**********                                               2005
B0101408790383821100608**********                                               2005
B0101408790383821100608**********                                               2005
B0101405070861821100608**********                                               2003
