F0301400110191452532008*******                                                  2502CKO
F1401400110492475410001ABCEDE, JOSEPH MICHAEL PINEDA                            2501CKO
F3201400190000001492935SY, MIMI ENA LUCIA PIRA OR                              12501CKO
F3201400190000001492935FERNANDO L. SY J                                        22500CKO
F0101411950000002691303BEYONDCONCEPTS INC.                                      2603CK1
F3201400190000001493045DR. ROMEO P. PIRA DBU PIRA CLINIC &                     12603CKO
F3201400190000001493045HOSPITAL                                                22600CKO
F0201400180181053267001NEW GOODLY MERCANTILE, INC.                              2702CKC
