A0101407560000000003345ANGEL ZADKIEL TUTORIAL CENTER                            0501
A0101409920000000022077VINLUAN, ELMER DE VERA                                   0502
A2801400230000000063181REMPILLO, MARICRIS BEGOTA                                0503
A1701400230000000097778TABALBAG, ROD STEVENSON AMBIDA                           0501
A0101411530000000178938EMILY V BASCO TRADING                                    0503
A0101406750000000358036QUINAWAYAN, JHOGIE NAZARETH                              0505
A0101410690000000498415VALENCIA, MARIA ELIZA MENDIOLA                           0501
A0101407720000000510643CUALING, GERALDINE GABATINO                              0501
A0101403030000000531428BANZIL, TERESITA HERNANDEZ                               0501
A1901400320000000679227AGNES BISCOCHO AGOJO                                     0501
A1901400320000000679249RODERICK UMALI MAGBOO                                    0501
A0101413990000000726589ESTERAS, CRISTINA ESCALANTE                              0501
A0101403320000000736043ADDENBROOKE, TERESITA ABELLA                             0501
A0101403320000000736141EUSEBIO, MARY MELIZA RAMIREZ                             0501
A0101410850000000778805MENDOZA, MARIE MELODY ISLES                              0501
A0101400150000000808140MADRID, ROCHELLE ANNE SADICON                            0501
A0101400440000000821185CATACUTAN, PRESLYN SAGA                                  0502
A0101400440000000821298DIOBET ERDIE I. DIOQUINO                                 0501
A0101409920000000857967MASACUPAN, MYKELLE MENDAROZ                              0501
A0101409920000000857978ANNANG, DESIREE NAVARRO                                  0501
A0101413310000000864006TOLEDANA, RODEL MASAYA                                   0501
A0101401250000000907102DE JESUS, JONNA DEE GALLARDO                             0501
A2801400100000000968841CUREG, RAFFY CUREG                                       0501
A0201400920000000991733TAYLOR, JOZYL CANUMAY                                    0501
A0101405810000001021207CHEN, TINGYU                                             0505
A0301400820000001027821VILLANUEVA, RADO C.                                      0501
A0101407430000001028864CECILIA SY CAMPOSANO                                     0503
A2201400250000001066120GARMA, JOSEPHINE CHUA                                    0501
A1601400170000001068593JINKY M. NIEVA                                           0501
A0701400260000001069698LLORIN, OLIVER ADUVISO                                   0501
A0101410140000001074635LAMIGAS, LORIDEL ANTANG                                  0501
A0501400200000001080999******                                                   0501
A0101414120000001142910DOMAOAN, GARRY NATIVIDAD                                 0501
A0101403610000001174830BAXA, MARIA CORAZON MARIANO                              0501
A0101404000000001186818BERGADO, KELVI ANN LICO                                  0501
A0101404000000001186829FERRER, MA JUANA SANDRA SABILE                           0501
A0101407140000001218239**********                                               0501
A0701400260000001231981SABIDO, CECILE ANG                                       0501
A0101412210000001236219RECONALLA, RACHEL GARCIA                                 0501
A3001400130000001271501DUBOUZET, ZENAIDA DAGASDAG                               0501
A3001400130000001271512AGUILAR, ELEN PACOT                                      0501
A0101407560000001276040DAYRIT, DULCE AMOR GERTES                                0501
A0101410560000001291021ELEQUIN, IAN RUVEN ARELLANO                              0501
A1301400760000001295369LEIF KRISTOFFER M. CORPUS                                0501
A2001400290000001301266VILANDO, HAPPY VANISSA DRANTO                            0501
A6601400120000001370525DE LEON, LEONILA CARDENAS                                0501
A0101405650000001377362SALCEDA, MARIA THERESA B.                                0501
A0101413600000001430620JULIO CESAR REYES AGUILUZ                                0501
A0101408790000001486222CASERES, PRINCESS ROS                                    0501
A0301400820000001554763DICO, ELSA P.                                            0501
A0101402770000001570714*********                                                0501
A0101403320000001646631SANTIAGO, LEILANI SANTIAGO                               0502
A2401400180000001676935GABRIEL, MARVIN RODRIGUEZ                                0501
A0601400230000001687374DAVID, NOEL CALIWAG                                      0501
A0101414120000001751413LAGARE, SALVADOR JAPOS                                   0501
A0101401250021183346001RAYMUNDO, EUGENE GARCIA                                  0504
A0101400150061401408001GARIN, MARLON VILLANUEVA                                 0501
A0101405810072234608001**********                                               0503
A0101405810072234816001CORAZON L. MACATUNO                                      0503
A0101401830141350743001CORAZON E. TEODORO                                       0504
A0101400440161525001110ARMINDA T. TORRES                                        0501
A0101401090171196098001DR. ALEX A. ERASMO                                       0510
A0101401090171241458001REVENENDO R. VARGAS                                      0501
A0101401090171347113001LINO N. BARON                                            0501
A0101401090171417083001ABIGAIL T. PAGALILAUAN                                   0501
A0101401090171432987001FLAVIANA G. DELGACO                                      0501
A0101407140213190363001**********                                               0503
A0101407140213562710001********                                                 0505
A3101400160221533266001ANGELITO S. LAZARO JR.                                   0502
A3101400450223310377002PENALOZA, RAINIER OR ROMA                                0501
A3001400130230700871001MUNOZ, BALTAZARA ESCATRON                                0501
A1001400190231036837001RTD MARKETING                                            0505
A1001400190231478374128BONIFACIO, LIZA                                          0501
A1301400470252478374021RIZANETTE F. SANTOS                                      0501
A0101401670271592554001CENIR, ELOISA DISIMULACION                               0503
A0101411110276784112001CASTRO, JUSTIN ALBERTO GARCIA                            0501
A0101408820333415979001ROSARIO, GINA PALAD                                      0501
A0201400760374030540001ST. FRANCIS MANPOWER SERVICES                            0501
A0201400920375478374015GAYO, LOURDES O.                                         0501
A0101402930381423656004MADELINE ZIALCITA-VILLAPANDO                             0501
A0101402930381478374010LEONILA Y. DAIZ                                          0502
A0101402930381538014001MA. JANICE R. TIONKO                                     0502
A0101408950396431312001TANSENGCO, MARIA LORA GARCIA                             0501
A0501400170481252349002LALAS, MAEVA DELA CRUZ                                   0502
A3801400170490793031001RUEL D QUINZON                                           0501
A1901400160491347259015FE D FAYTAREN                                            0501
A1401400110492433218001MILLA, MAYNARD BUSTAMANTE                                0501
A0101405940512368428001*****                                                    0502
A0101405940512534017001MARCELO, RONIE DEMAPANAG                                 0501
A0101403610531283052001PASTRANA, MA. CRISTINA GOGORZA                           0502
A2201400250561086449001JOEL SERRANO GONZALES                                    0501
A0101407720602288390002ALFONSO U. BENGZON                                       0501
A0101407720602376178002CABRAL, ANGELICA AMPIL                                   0502
A0101407720602396960001GANZON, DOMINGO ESTEBAN                                  0503
A0101404680651034098001NOVAVILLE PAINT CENTER                                   0502
A0101404680651087886001PLAZA, ELEANOR ESTONILO                                  0501
A0101404680651168764002TAN LIONG BE JULIO                                       0502
A0101404680651230380001ROMEO C. RUBI                                            0501
A0101404680651520766071EMILY P. PONGPONG                                        0501
A0101404680651524655001LUTGARDA C. AMADOR                                       0501
A0101404680651564550001AMELIA G. CONCEPCION                                     0501
A0101404680651750326001PERLA P. DOLOR                                           0502
A0101410300663737649001SANTOS, ERLINDA GUTIERREZ                                0501
A1301400210682478374060ROBERTA CARLOS                                           0501
A0101407560686478374017JOY CARMELO                                              0501
A1701400230693478374027FRIALDE, GRACE AGUSTIN                                   0501
A0101408240711180164001TUPAZ, CORAZON RONQUILLO                                 0501
A0101404840851421456001MARCELO, MERIAM ACAIN                                    0503
A0301400790000000435716SANCHEZ, EDGAR A DBU MYTHICAL                           10502
A0101409890000000437427MIRANDA, RENUEL CRISOSTOMO OR                           10501
A0601400100000001442819TOLENTINO JR., CESAR LAPIRA DBU                         10502
A0101406750000001491841PULIDO, MARIA LUISA T. OR                               10501
A1101400120000001547280YAP, DEDY TAN OR                                        10510
A4101400390000001732441RICAFRENTE, MARILYN DBU                                 10501
A0101400310211157817001INTERINO, LOLITA OR MARIA                               10502
A3101400450223024178001PANATEK REFRIGERATION                                   10501
A1301400470252620065011ALFREDO L. AGUNOY OR                                    10501
A0101401670271228042001TINIO, JUAN ANGEL LIGON                                 10501
A0101402060351009385001JORGE ALOMBRO JR. OR                                    10505
A0101402060351734699002RAMNANI, MICHAEL CHRISTOPHER OR                         10504
A0101402930381041949001METT MOTIVATIONAL ENGLISH                               10502
A0101402930381205667001SALVADOR B. FRANCO OR                                   10504
A0101402930381208046001GILBERT C. YANG OR                                      10502
A5501400120410645073001GARCIA, LILIBETH L. OR GARCIA                           10502
A2401400180411272631001MIGUEL, RAUL JOSEFINO FUENTES                           10503
A1401400110492220879001ANGLO, ROMEO F. OR                                      10502
A0101403610531219303001DR. ROMEO R. ANDAYA  OR                                 10502
A0101404000551358321001TALASTAS, WILFREDO SOLIS OR                             10502
A2201400250561026927001FILTERED SURE                                           10502
A2201400250561478374049LUCRECIA D. ALARILLA                                    10501
A0101404680651047441001ARLENE HARDWARE & CONSTRUCTION                          10502
A0101404680651543781001ROGELIO R. MANALANG OR                                  10501
A0301400790000000435716AGRO PARTS SUPPLY                                       20500
A0101409890000000437427MIRANDA, MARY ANN SALCEDA                               20500
A0601400100000001442819CELIANO ENTERPRISES JT                                  20500
A0101406750000001491841PULIDO, ROMEO J.                                        20500
A1101400120000001547280TAN, SANTOS LEE                                         20500
A4101400390000001732441RICAFRENTE SMOKED AND DRI                               20500
A0101400310211157817001CRISTINA INTERIN                                        20500
A3101400450223024178001AND AIRCONDITIONING                                     20500
A1301400470252620065011LUALHATI B. AGUNOY                                      20500
A0101401670271228042001OR TINIO, MARIA CELESTE                                 20500
A0101402060351009385001NELIA ALOMBRO                                           20500
A0101402060351734699002RAMNANI, ASHOK                                          20500
A0101402930381041949001TRAINING & TUTOR                                        20500
A0101402930381205667001JOCELYN J. YAMBA                                        20500
A0101402930381208046001CATHERINE Y. YANG                                       20500
A5501400120410645073001JOHN M.                                                 20500
A2401400180411272631001OR MIGUEL, ALONA                                        20500
A1401400110492220879001ANGLO, CECILIA N                                        20500
A0101403610531219303001DR. ANGELITA Y. ANDAYA                                  20500
A0101404000551358321001ESPERANZA OR JOS                                        20500
A2201400250561026927001PURIFIED DRINKING WATER                                 20500
A2201400250561478374049MEMBERS OF NATASHA                                      20500
A0101404680651047441001SUPPLY                                                  20500
A0101404680651543781001YOLANDA L. MANALANG                                     20500
B0101411820000000024182TAB-CON & METAL INDUSTRIES CORP.                         1603
B0101412340000000030957FARGO STUDIOS INC.                                       1605
B0101412180000000038053HOT SALAD CORPORATION                                    1604
B1701400230000000097972DURAN, ROBERT CHING                                      1603
B2801400100000000188410KAIBIGAN SUBIC CREDIT COOPERATIVE                        1602
B0201400760000000222886JAYME, STEPHEN RODRIGUEZ                                 1601
B0101411080000000805970TSAI, JOSIE ONG                                          1602
B0101412050000000890933ACI PHARMA INC.                                          1601
B4101400550000000900058HARRELL HORNE INTEGRATED SCHOOL,INC                      1601
B3001400130000001271374GLOBALCARS, INC.                                         1602
B0101414120000001751480MANVILL RESOURCES CORP.                                  1610
B0101400150061011066001FOOD SOURCE, INC.                                        1605
B0101400150061023844001ANG BENG UH FOUNDATION, INC.                             1601
B0101400150061042516001GENUISYS INTERNATIONAL SYSTEMS CORP                      1602
B0101405810072234719002***************                                          1605
B0101405810072409064001**********                                               1605
B0601400100081040295002ANGELES BEACH CLUB RESORTS CORP.                         1603
B0601400100081040814001PANLILIO AND PANLILIO LAW OFFICE                         1603
B0101412630132047975001ELR REALTY CORPORATION                                   1603
B0101401830141019452001CARITAS MANILA, INC.                                     1605
B0101400310211750497001MONAREL LOANS INC.                                       1601
B0101407140213035952001**********                                               1601
B0101406460272040465001SPORTFIT, INC.                                           1603
B0101411110276045663001AJISEN RAMEN PHILS., INC.                                1605
B0101402930381008843001BASIC HOUSING SOLUTIONS, INC.                            1605
B0101402930381044452001PIEMONTE PAWNSHOP INC.                                   1603
B0101402930381047467001FLUID SOLUTIONS, INC.                                    1601
B0101403580511598100001ASIAN INSTITUTE OF IMMUNOLOGY INC.                       1605
B0101408110515024455001BENTHEL DEVELOPMENT CORPORATION                          1601
B0101404680651029741001KASKADE FOODS CORPORATION                                1605
B0101410300663761785001MRMJ EARTH MOVERS CORPORATION                            1605
B0101408240711036910001ASIAN CENTRE FOR INSULATION PHILS.,                      1603
B0101404680000000697918FELSON TECHNOLOGY AND SOLUTIONS                         11603
B5501400120410044008008FRANCISKOZ MOTORCYCLE PARTS,SERVICES &                  11603
B0101404680000000697918CORPORATION                                             21600
B5501400120410044008008ELECTRICAL SUPPL                                        21600
