A0301400660000000194672DUMALE, CANDIDO NAVARRO                                  0503
A1301400470000000366450GABRIEL LEONARDO CALLING                                 0502
A2401400180000000428102SAGABAEN, AMALIA COSTALES                                0501
A0101405490000000444513RYAN MARCK WONG JIMENEA                                  0501
A1601400170000000497581MARK ERWIN C. CHAN                                       0501
A1401400110000000628502MANALO, GLORIA GARCIA                                    0502
A0101411660000000751160FELICIDAD I TIA                                          0503
A0101400150000000807790CRUZ, JOHN JOHN REVILLAME                                0501
A0101410300000000919637******                                                   0501
A0101410720000000968050BARLAAN, JENNY SESE                                      0501
A4101400550000000981831BESANA, ARDITH GALVAN                                    0501
A0301400660000001020102RODRIGUEZ, DARREN ALAMPAYAN                              0502
A0501400170000001072713ANG, JUSSLYNN MAISIE ONG                                 0501
A0501400200000001081054RAMOS, TORIBIA RODRIGO                                   0501
A0301400660000001113795VILLADAREZ, RICHARD RANIS                                0501
A0101402350000001474244CABIAO, JASON PANAL                                      0501
A0101412050000001499790JAVIER, RAUL SORIANO                                     0502
A0101407270000001597260PEREZ, JO MICHELLE GONZALES                              0501
A0101404260000001725582MASINAHON, MARIAN HUMANGIT                               0501
A0101412890000001765853*****************                                        0501
A2401400180000002146447SAGULILI, GERLIE ONCADA                                  0501
A1101400120000002254946MEJICA, SORIEL BARDIAGO                                  0502
A0101410690000002290735ALEX D. CUYOCA JR.                                       0501
A0601400230000002650131DOLYEN FOREIGN EXCHANGE INC.                             0503
A0101412340000003340398SHAYNE T. ABIERA                                         0501
A0101412340000003340412ALVIN E. ACAR                                            0501
A0101412340000003340894MARCUS M. ASUNCION                                       0501
A0101412340000003340912RODOLFO B. ATUN JR.                                      0501
A0101412340000003341033BALLE, MARLYNI GISON                                     0501
A0101412340000003341404MARY GRACE B. BULASO                                     0501
A0101412340000003341733CANDICE RACHELLE V. CARUBIO                              0501
A0101412340000003342765MARIA RAQUEL A. EDORA                                    0501
A0101412340000003343575CRISTIAN BERNARD D. GENEROSO                             0501
A0101412340000003343611DELA CRUZ, GLENNDA ODONO                                 0501
A0101412340000003344283MICHAEL YOUSEF E. LORENZO                                0501
A0101402930000003346672EMERITA H. ARANA                                         0501
A0101402930000003346683MA. PAZ FRANCISCA V. ARCELLANA                           0501
A0101402930000003346701MEDEA R. CHAN                                            0501
A0101402930000003346712MIRIAM L. ESPINA                                         0501
A0101412340000003348747DENNIS OLIVER O. SANTOS                                  0501
A0101412340000003348849SARENAS, MARIAN CASTILLO                                 0501
A0101412340000003348981SHIELA S. SION                                           0501
A0101401250021527654002MERCEDITA M. DUNGO                                       0501
A0101400150061236944046JOHANNA S. HERNANDEZ                                     0502
A0101400150061338964140BENITO LAMBERTE                                          0501
A0601400360083664938001KIM, SANGYUL                                             0501
A0101401960121238342002************                                             0505
A0101401830141546547001REATAZA, NELIA MORABE                                    0503
A0101401830141558701001JAMIAS, ARSENIA DELA CRUZ                                0501
A0101400440161029925001VESPER INSURANCE ADJUSTERS                               0502
A0101400440161039572023JIMMY S. PALISOC                                         0501
A0101400440161039572069IMELDA A. ESTRADA                                        0501
A0101400440161525001115EVA D. SAMILLANO                                         0502
A1001400190231478374117ASINO, ANNABEL M.                                        0501
A1001400190231520766117TAROY, MARIONNE ANGELOU SALEM                            0501
A0101411110276792560088MESINA, SHERYLL ANN CARPIO                               0502
A0101400570281186576001DR. ROSEMARIE JEAN J. POBLETE                            0502
A0501400200292670008001*****                                                    0510
A2601400270302555372001**********                                               0505
A2601400270302785476001DORELYN N. LLANERAS                                      0501
A3401400280318478374010NUFABLE, DELIA VALLO                                     0502
A3401400280318742721001ROGER T. LIM OR RUBY A. LIM                              0501
A0101402350321184585001AGUIPO, ADELA PADILLO                                    0501
A0101402350321287566002LETICIA M. FERNANDEZ                                     0502
A0101402350321327731001JOHNNY S. CO                                             0502
A0101402350321406560001DELA CRUZ, AMYLYNE B.                                    0502
A0101402350321584873001********                                                 0501
A0101405650322587026001MALICSE, CORNELIO ANTONIO                                0502
A0101408820333545370001*********                                                0501
A0101408820333638235001******                                                   0501
A0101402510341328134001MARCELINO, JOCELYN TIONGSON                              0501
A0101402640361170289001MANINGDING, KATHERINE JOYCE  JT                          0504
A0201400920375609447001RAMIRO, MARIA ARCELI AVANZADO                            0502
A0101408950396331268001AREVALO, ALEJANDRO ESQUIERES                             0501
A0101405940512597822001HERNANDEZ, ANTONIO PENGSON                               0503
A0101408530516485540001PEREZ, MARY MILLICENT NACION                             0502
A0101411400517381317168*******                                                  0501
A0101403450521238114002**********                                               0502
A0101407720602241314001**********                                               0502
A0101404260611150845002MASANGKAY, MARTIN OR MATILDE                             0503
A0101404420631478374072FELY UGDORACION                                          0501
A0101410720653199035002*****                                                    0501
A0101410720653332893001LIWAG, VINA VELEZ NUNEZ                                  0501
A0101407560686478374069ROLANDO PATAC                                            0502
A4101400550815181675001MONTARDE, MILDRED PALABRICA                              0503
A0601400230891077308001NUCUP, ELSA GUTIERREZ                                    0502
A0101412890000000007514RICO T RIVERA DBU WISEMIX                               10502
A0101412210000000031421VALENZUELA, VIRGILIO R. OR                              10502
A1301400500000000213265VINCENT P. JAVIER OR                                    10505
A0101402350000000521220FELIPE, DARMO DBU DSF HAUSWORK                          10502
A0101400150000000760816MA ELVA C. GERONIMO OR                                  10503
A5001400170000001003381CALIMUTAN, OHARA DELA CERNA OR                          10501
A0101412340000001017532CORPUZ, GERRY DEL MONTE OR                              10501
A0101401830000001281998RIVERA, RAMIL DBU ICON RBR                              10501
A0101406040000001392018BERNARDO JORGE B. MITRA OR                              10503
A1101400120000001547326TOLENTINO, EMMANUEL S. OR                               10502
A0101407140213507671001CUA, SIMON TING OR                                      10501
A0101402350321179521001FELLIZAR, CESAR OR EMILIA OR                            10503
A0101402060351214812002BANTIGUE, ANGELITA OR WILLIAM                           10501
A0101402930381205168001DR. JOSE BAYANI OR JOSE ANTONIO                         10540
A0101405940512020272004EVENTS MANAGEMENT & TRAINING                            10502
A0101407720602162192001ADELIA A. LOPEZ OR                                      10501
A0101407720602343284001MARY ANGELINE RECTO OR                                  10501
A0101409920650478374004DADULA, IRENE INES FAVOR                                10502
A0101406750852084318001SIBUG, GENEATH P. OR                                    10501
A0101412890000000007514CONSTRUCTION SUPPLY                                     20500
A0101412210000000031421VALENZUELA, JENNIFER J.                                 20500
A1301400500000000213265TERESITA F. JAVIER                                      20500
A0101402350000000521220EMPLOYMENT SERVICES                                     20500
A0101400150000000760816DANIEL B. GERONIMO                                      20500
A5001400170000001003381CALIMUTAN, REGINALDO G.                                 20500
A0101412340000001017532CORPUZ, IMELDA DELA CRUZ                                20500
A0101401830000001281998GLASS AND ALUMINUM SUPPLY                               20500
A0101406040000001392018SHARON LESLIE M. MITRA                                  20500
A1101400120000001547326BASTIAS, ROSANNA                                        20500
A0101407140213507671001CUA, JENNIFER TAN                                       20500
A0101402350321179521001ABUDA, MICHELLE                                         20500
A0101402060351214812002OR REGINA MAR                                           20500
A0101402930381205168001OR JOSE KARLO ALILING                                   20500
A0101405940512020272004SERVICES                                                20500
A0101407720602162192001ANNA LISA L. GABRIEL                                    20500
A0101407720602343284001RODRIGO RECTO JR                                        20500
A0101409920650478374004MEMBERS OF NATASHA                                      20500
A0101406750852084318001SIBUG, ERNESTO M                                        20500
B1901400160000000007467FIRST UNITED 23, INC.                                    1603
B0501400170000000018351KAINAN NI MANG PEPING INC.                               1601
B0101401830000000033649CARITAS SALVE CREDIT COOPERATIVE                         1603
B1401400110000000034693LUCENA CITY PHARMA CORPORATION                           1601
B0101407430000000035327TRI-STAR CARGO EXPRESS INTL. PHILS.                      1602
B0101413440000000038213ROMBE PHILIPPINES, INC.                                  1605
B3001400130000000067252INTERPACE CORP.                                          1610
B3001400130000000067263INTERPACE- GAISANO BUTUAN CINEMA                         1605
B0101410980000000171975AMMC - AVERY MANILA MARKETING CORP.                      1602
B0101407270000000830580TOKYO TOKYO, INC.                                        1605
B0101408790000002659072LEAD HOPE DIGITAL INC.                                   1601
B0101401700041190252001**********                                               1605
B0101400150061016942006ASIA PACIFIC EXPRESS CORPORATION                         1605
B0101400150061047577001A. CHAN RESORTS & ENTERTAINMENT COR                      1602
B0601400100081029282001L5 & SONS FINANCING CORP.                                1610
B0101401830141008844001BM POWER SUPPLY & ELECTRIC SERVICES                      1605
B0101407270162008343001SPECIALIZED TRADE & MARKETING, INC                       1601
B0101407270162038101001BIRDS INTERNATIONAL, INC.                                1603
B0101407140213033531001ZKS TRADING PHILIPPINES                                  1602
B3101400450223037708001RD CASH PADALA, INC.                                     1603
B1001400190231020614001LIM, CHARLES EDWARD W.                                   1601
B0101411110276046529001BOOK MEDIA PRESS INC.                                    1601
B0101411110276046529088BOOK MEDIA PRESS INC.                                    1605
B0101400570281007593001KINGSFORD ENVIRONMENTAL PHILS INC.                       1602
B1101400120313036429001PERPETUAL HELP MULTI-PURPOSE COOPERATIVE                 1602
B0101402350321738079001OLIVAREZ GENERAL HOSPITAL INC.                           1610
B0101402510341034222001E.J. "G" FOODS CORPORATION                               1620
B0101402640361169215002LAWRIAN PRESS CORPORATION                                1605
B2401400180411035164002MOMMY GINA TUNA RESOURCES (MGTR), INC.                   1601
B0101410720653006444002OUR LADY OF MOUNT CARMEL PARISH                          1602
B0101407560686035978001L. CO BUILDERS                                           1603
B0101404840851046041001IFE ELEVATORS PHILIPPINES INC.                           1610
B0101407430000001213147IBANEZ, JRF RUNEZ AND MONTANO, ROSAURO                  11601
B0201400920000002804526RAMIREZ, BOB ANTHONY DBU UNO PRINTING                   11601
B0301400820000003429941FAMACION, KRISTAL MAE OR ESTANISLAO,                    11601
B0101407270162008543001INTERNATIONAL HEAVY EQUIPMENT                           11602
B0101407270162008543001INTERNATIONAL HEAVY EQUIPMENT                           11608
B0101402350321006984001INTEGRATED HYDRO-PNEUMATIC                              11610
B0101402510341018003001COLEGIO MEDICO-FARMACEUTICO                             11606
B1901400160491341189001VIRGINIA R VARGAS OR                                    11601
B0101407430000001213147ROSANO                                                  21600
B0201400920000002804526SERVICES                                                21600
B0301400820000003429941JESS                                                    21600
B0101407270162008543001CORPORATION                                             21600
B0101407270162008543001CORPORATION                                             21600
B0101402350321006984001SYSTEMS INC.                                            21600
B0101402510341018003001DE FILIPINAS INC                                        21600
B1901400160491341189001RICHARD D LIM                                           21600
B0101401830141821100608**********                                               2002
B0101408790383821100608**********                                               2002
B0301400240401821100608**********                                               2020
B0101408110515821100608**********                                               2005
