A0101408660000000059807MARCELO, ROMAN B.                                        0501
A2401400180000000428051EGOS JR., JEMMERITO CASANA                               0502
A0101407430000000521111ROBERTO L. NERI II                                       0501
A0101412890000000543031ANOZO, JESUSA FLORES                                     0501
A0701400260000000670871**********                                               0501
A0301400820000001185780RUFEROS, ROY KENNETH D.                                  0501
A0101409210000001294504SY, JANICE JANE CHUA                                     0501
A1301400340000001415769********                                                 0501
A0101408820000001766787************                                             0501
A0101403320000001803270**************                                           0502
A0101409180000002036602CHUA, STEPHANIE TAN                                      0505
A0101408370000002264137CO, ANTONIO LIM                                          0510
A0301400820000002271912BARAN, DERICK S.                                         0501
A1001400480000002300383GUINTO, JEAN MAGO                                        0502
A0501400170000002357651SIMON, NIEL ANGELO TAN                                   0501
A1101400120000003022362QUIMBO JR., DOMINGO PALANCA                              0501
A0101407430000003193315PABLITO G. DOBLUIS                                       0502
A0101407430000003193822NORTHWEST TRADING                                        0503
A1901400290000003252633AZUCENA, JAY ERIC LIBRADO                                0501
A0101412340000003341693ALLAN CHRISTOPHER C. CARLOS                              0502
A0101411660000003580170ROBERT D BUENAVENTURA                                    0501
A0101411660000003580209MARIA FE V DUMANDAN                                      0501
A0101411660000003580232ABISHAI FAYE D LIMPIN                                    0501
A0101411660000003580330CHRISTOPHER GARRET D UMALI                               0501
A0101404000000003706001ANONUEVO, VILMA CASTILLO                                 0501
A0101404000000003707555SERAFICA, ANNA ODESSA N                                  0501
A0101408950000003842142GUILLEN, VITA MARIE VIAJAR                               0501
A1601400170000003845250DON M. PENAFLOR                                          0501
A0101412630000003846975OCTAVIANO, KRISTINE CALABIG                              0501
A0101400860011419840002**********                                               0505
A0101401700041047694001**********                                               0501
A0101400150061055752019CARLOS BENEDICT C. JAVIER                                0501
A0101400150061315349138KAREN H. TAN                                             0501
A0101400730111590599001LIM, ARON LAURETA                                        0501
A0101407140213392968001**********                                               0502
A3001400130230718343001MORDENO, GEMMA BANDA                                     0502
A1901400290261298552105AIDA NABOS REYES                                         0501
A1901400290261488341075DR. HELEN BAUTISTA DY                                    0502
A0101406620273326898003RAQUEL R. CAPORAL                                        0501
A0101406620273417637001LAPUZ, ANNE SHARLYNE GOBOY                               0502
A2601400270302782510001JENNY C. QUESADA                                         0501
A0101402350321185131001PAGTALUNAN, MARIA FE M.                                  0501
A0101402350321280548002********                                                 0501
A0101402350321478374048GLENDA D. ESTRELLA                                       0502
A0101402350321526808001LUCITA R. TARRAY                                         0502
A0101405650322346354003DAYRIT, ARMANDO RODRIGUEZ JT                             0505
A0101405650322385545001FLORITA, AMELIA BATALLA                                  0501
A0101402480331520766017CABALLES, ELIZABETH MERCADO                              0501
A0101408820333047432001***************                                          0501
A0101402640361371609001**********                                               0503
A0201400760374030540001ST. FRANCIS MANPOWER SERVICES                            0501
A0101408370382326344001DR. RAOUL S. FELICIANO                                   0505
A0101408370382470581001EIZMENDI, JOSE RAMON EUBINAG                             0502
A0101402770391034936001LOGPRO EXPRESS, INC.                                     0502
A0101402770391308035001DELA CRUZ, CARMELITA SUELO                               0501
A0501400170481712963001SALAZAR, MA. JOSEPHINE FERNANDE                          0501
A0101407430503036416001JUPITER'S BUTCHER SHOP                                   0505
A0101407430503036726001MINOU EXPRESS CUSTOMS BROKERAGE                          0501
A0101407430503036726001MINOU EXPRESS CUSTOMS BROKERAGE                          0501
A0101407430503403861001AIDA P. PANCHO                                           0502
A0101408110515550581001ENDAYA, ROBERT DUMO                                      0503
A0101408530516571877053CHRISTIAN DURANTE                                        0501
A0101408530516571877059JEFFREY CALDERON                                         0501
A0101411790518055764122DIAZ, MA. EDNA ROSARIO ACOSTA                            0501
A0101403450521080109001TAN, ROQUE TECK HSIN                                     0501
A0101404000551455007001CANSINO, ANNA LIEZL GATCHALIAN                           0501
A0101407720602425427001VILLARUBIN, AUGUSTO ORDONEZ                              0502
A0101407720602534681001DE MATA, CHRISTINE DENISSE A.                            0501
A0101409890649748239001**********                                               0508
A0101410300663731245001IMPERIO, CORAZON V.                                      0501
A1701400230693478374070CALUYA, LANIE PASCUA                                     0501
A0101408240711490981001MILLS, AMPARO OR VICENTE JR.                             0501
A0101408240711674080001NARTEA, MARILYN VILLASIN                                 0502
A0101404840851520766002CYNTHIA S. GERODIAS                                      0502
A0101404840851520766032MILA SALAZAR                                             0501
A0101406750852629078001VICENCIO JR., MACARIO TAN                                0501
A0601400230891788658001LENON, DIOSDADO MANLUTAC                                 0501
A0101410690000000001758IGNACIO, JONATHAN DBU JCJ                               10501
A0501400170000001072935HERNANDEZ JR., ROMEO FERRER DBU                         10501
A0101413310000001073745BATAC, MARY GRACE G. DBU MOTHER                         10501
A1101400120000001547359SIERRAS, JASMINE DBU QUTE TRIP                          10502
A4101400550000002090962JESSIE CASTILLO OR PETER SIMON                          10501
A0101407270000003786750SERVANEZ, IRIS JUNE MINANO or S                         10501
A0101400730111370569001MANABAT, DANILO MORALES OR                              10501
A0101400440161591337001JENESSEY A. RANCES OR                                   10502
A0101401090171199354002AGNES CECILLE OR                                        10505
A0101402350321179561001TERESITA R. ORIS OR                                     10501
A0101402350321249450001TERESITA OR ROGELIO PEREZ OR                            10501
A0101408370382391291001DR. ADRIAN E. MANAPAT OR                                10503
A0101412050519056257001BIHASA, GEORGE MARCO T. DBU                             10501
A1301400210682245727001FALLORINA T. MANAHAN OR                                 10503
A0101405070861385924001GRICO, EDWIN A. OR                                      10502
A0101410690000000001758MANAGEMENT SERVICES                                     20500
A0501400170000001072935ZAIRON TRADING                                          20500
A0101413310000001073745BEAR TUTORIAL & LEARNING                                20500
A1101400120000001547359GASOLINE STATION                                        20500
A4101400550000002090962LARA OR EVANGELI                                        20500
A0101407270000003786750ERVANEZ JR., VICENTE                                    20500
A0101400730111370569001ARLENE MANABAT                                          20500
A0101400440161591337001JESSIE O. RANCES                                        20500
A0101401090171199354002EUSEBIO ANTONIO LLAMAS                                  20500
A0101402350321179561001RODOLFO P. ORIS                                         20500
A0101402350321249450001MA. VICTORIA P.                                         20500
A0101408370382391291001KARINA M. MANAPAT                                       20500
A0101412050519056257001JAZZ INNOVATIVE OFFICE                                  20500
A1301400210682245727001 MANUEL P. MANAH                                        20500
A0101405070861385924001GRICO, MARY LEE                                         20500
B1301400340000000011941EXCEL WOOD INDUSTRIES, INC.                              1602
B0101408370000000014597MANILA HEALTHTEK INC.                                    1605
B1301400210000000023270CHENG ENGINEERING                                        1601
B0101402770000000023725KOYOGAWA MOTORS CORPORATION                              1605
B0101400860000000030279**********                                               1602
B0101406750000000090691THE PLAZA HOTEL BALANGA CITY INC.                        1605
B0201400760000000222762UY, JOHN CHIU OR JOHN JEFFERSON UY                       1605
B0101407720000000885510PALAFOX ARCHITECTURE GROUP INC.                          1602
B0101406620000000962465TOP TIER INNOVATION ENTERPRISES                          1601
B0101407430000001212979FRUS CORP.                                               1603
B0301400530000003088060ALDANGELI CORPORATION                                    1603
B2801400100000003400506COLLEGE OF SUBIC MONTESSORI SUBIC B                      1601
B0101400860011390602001**********                                               1605
B0101400150061037313001LMG LAND DEVELOPMENT CORPORATION                         1602
B0101400730111036857001FRC SULO RIVIERA HOTEL CORPORATION                       1606
B0101407270162041212001RIGHTMIX DOUGH, INC.                                     1605
B0101407140213007571002MONIC & COMPANY INC                                      1603
B1901400290261033214001RD CASH PADALA, INC.                                     1603
B0101406620273788244001VERDE ENERGY PHILIPPINES INC.                            1605
B0101411110276051155001NIECER TRADING COMPANY INC.                              1601
B01014023503210067510010SM SHIPPING PHILS., INC.                                1610
B0101402350321011516001PSP MANUFACTURING CO., INC                               1605
B0101402640361018911001BULLS PAPER PRODUCTS INC.                                1601
B0201400760374033207001W.T. CONSTRUCTION, INC.                                  1606
B0101408400394032168001ALQUIROS FOOD CORPORATION                                1605
B2401400180411040250001HOME SOLUTIONS DEPOT PLUS                                1602
B0101403450521014870004PARAMOUNT LIFE & GENERAL INS. CORP.                      1603
B0101404000551017716001SPEEDNET, INC.                                           1610
B2201400250561033264001HILCRES BUILDERS CENTER                                  1601
B0101406750852023612001LAS PINAS CITY MEDICAL CENTER, INC.                      1610
B0101405070861028566001AVESTA REALTY, INC.                                      1601
B0101405070861043213001TEKTON CONSTRUCTION CORP.                                1605
B0101405070861080434001URBAN-STYLE AND SPACE BUILDERS INC.                      1601
B0601400230891252317001**********                                               1605
B0101403580511005521001MANABAT SANAGUSTIN & CO., CPAS                          11602
B0101405070861026394008TRAVELLERS INSURANCE & SURETY                           11605
B0101403580511005521001(CONFI-ACCT.)                                           21600
B0101405070861026394008CORPORATION                                             21600
B0101405100571821100608**********                                               2005
