A5501400120000000003174ERASGA, ANGELITA PADO                                    0501
A1001400190000000016435NAMBATAC, JULIE ANN LOREJO                               0501
A0101406750000000017427ANTONIO, ARNALDO QUILATAN                                0501
A0101410560000000020122COLETA, ANALIZA BARCELONA                                0501
A0101406880000000027067ESQUIVEL, GARY NOBLE                                     0501
A2001400290000000046591TORREJAS, CHITA MAE LAGUNAY                              0501
A2001400290000000046604OJASTRO, NERI CRUZ                                       0501
A0101408530000000136354GARRATON, SARITA SALGADO                                 0502
A0101410560000000268393MARIA FE TERESA T. EDRALIN                               0505
A0101408370000000335551AMADOR, ROSANNA JOY SANTIAGO                             0501
A0601400230000000452851SAMBILE, NOEL REYES                                      0501
A4101400260000000469329FALCUTILA, MARISSA RAMOS                                 0501
A0101411400000000484491NOMBRE, ROMMEL BROSAS                                    0501
A0101410140000000499054SANSON, N DBU V.A.N.C. GENERAL                           0502
A0101407270000000511635DAVID STEPHEN STA. MARIA                                 0501
A0101405650000000525860RODRIGUEZ, LERMA AYAPANA                                 0501
A0101404260000000532078BANDONG, TERESITA LINDA ZAMORA                           0501
A0101404260000000532114ZAMORA, DEXTER DUQUIATAN                                 0501
A0101404260000000532125RIVERA, VINCENT BANIEL                                   0501
A0101408400000000607709SANTOS, GLENDA SENEN                                     0501
A0101401380000000682582********                                                 0502
A0101401380000000682662ACOSTA, GENE LOVES DABUET                                0501
A0101401380000000682702MERCADO, LELANIE DE ASIS                                 0501
A0101413440000000702112*********                                                0502
A2001400290000000724452PALANG, OWEN BERNAL                                      0501
A2001400290000000724463MARTINEZ, CEGINA BALSAMO                                 0501
A2001400290000000724470LAGRIMAS, MARGINA BALSAMO                                0501
A2001400290000000724481CABALLES, JOMAR REBADA                                   0501
A2001400290000000724492AGUILAR, ALONA TOLENTINO                                 0501
A4101400390000000745335MARIANO, JENNIFER CARPIO                                 0501
A4101400390000000745380MINDANAO, JERRY FERANIL                                  0501
A0101411660000000751115ARNIE M SALAGANTIN                                       0501
A0101400150061039916105CARMELA RAE R MANALO                                     0501
A0101400150061337099016AMADO ANDRADA JR.                                        0501
A0101400150061403824001GO, HAZEL DY                                             0501
A0101400150061496726001CALMA, JOYSEN SOPHIA TAGUBA                              0501
A0101410560110478374013CYNTHIA EVANGELISTA MENDOZA                              0501
A0101400730111386485175IVANHOE O. MARASIGAN                                     0502
A0101400730111520766008ALOMA M MADUROG                                          0503
A0101400730111520766051RABAGO, LENY FE                                          0501
A0101401960121434461001***********                                              0501
A0101400440161520766172LUCELLE A. CABUTIN                                       0501
A0101400440161525001125MAY M. RAMOS                                             0501
A0101400440161614242001VICTORIA ELENA S. PAREJA                                 0501
A0101401090171280036001NARCIDA, MARIFE VILLAMAYOR                               0502
A0301400660194779841088*****                                                    0501
A0101401380201016338001ELECTRO-R023 ENTERPRISES                                 0502
A0101401380201561182001ACOTANZA, EDITHA SINCHONGCO                              0502
A0101401380201603092001PAULINO, RAYMOND CLAMARES                                0502
A0101401380201619697002CIPCON, FERDINAND INABANGAN                              0501
A0101407140213290148003**********                                               0501
A3001400130230478374028MAGLASANG, ELIZABETH DAHANG                              0501
A3001400130230689827002LIBRES JR., PONCIANO NICOLASORA                          0501
A1001400190231028130001CALINGASAN TRANS                                         0505
A1001400350233478374020ELMA O. GAWAT                                            0501
A0101401670271367363001SUACO, JESUS ANGELO ABAYA                                0501
A0101408660274642352002**********                                               0501
A0101408660274732414001DELOS SANTOS, VIDA GOLAMCO                               0501
A0101400570281235501001*****                                                    0502
A0101400570281359777001LILY LIM LEY                                             0503
A0101400570281383821001LUISA L. ANG LEY OR LILY L. LEY                          0501
A6601400120314737040001DURA, CARLITO OR DURA, RENY                              0502
A3401400280318087995001ALAYON, AMELIA FRANCISCO                                 0501
A0101402350321179561001ORIS, TERESITA                                           0501
A0101402350321180138001CALALES, MARILOU S.                                      0501
A0101402350321185131001PAGTALUNAN, MA. FE M.                                    0501
A0101402350321478374006MARINA T. CASTILLO                                       0501
A0101402350321478374013ROSALINA M. MARAVILLA                                    0501
A0101402350321654355001PARK, HUN NAM                                            0503
A0101408820333478374030FERMINA LEGASPI                                          0501
A0101402510341478374008MARY GRACE B. ANDRES                                     0501
A0101402640361784002001AGUSTIN, CATALINA LEANDADO                               0501
A0101408370382405909001GUMABON, MA. TERESA CRUZ                                 0501
A0101402770391043391001IMPRENTA ISABEL                                          0502
A0101402770391187974003DARWIN DEE PONA                                          0501
A0101402770391211308001*********                                                0505
A0101402770391355762071RUEL ALBINO E. VILLANUEVA                                0501
A0101402770391495752001VILLANUEVA, JOSE ARCANGEL L.                             0502
A0101405490392171925001MARCELO M. DE LA ROSA                                    0502
A0101408400394468516002ORATE, MARIA ELISA VALDEVIESO                            0501
A0101408400394478374091ANALOU SASUMAN MONTALES                                  0501
A0101408400394478374098EDGAR D. NECESARIO                                       0501
A0101408400394587038001OBILLO, SARA ANGELES                                     0501
A2401400180411343170001RAMOS, EDUARDO UBONGIN                                   0501
A2401400180411577135001***************                                          0502
A0101403320471466952001NESTOR RYAN M. AGUILA                                    0502
A0101410140475478374010PELAEZ, BEATRIZ GUEVARRA                                 0501
A0501400170481254469002OSCAR ARCINUE OR LUCIA DE VERA                           0505
A0501400170481334870001BRENDA U SALCEDO                                         0501
A0501400170481367892001XXXX                                                     0506
A0501400170481777043001QUINTO III, ALFREDO ARZADON                              0501
A1901400160491298552008VILMA F FALCUNAYA                                        0502
A0101411790518047183001ABORDO, M DBU BELLEIESHUA GENER                          0501
A0101411790518093214001SANCIANGCO, MELFLORES LESABA                             0501
A0101403450521238228002**********                                               0501
A0101403450521271999001**********                                               0501
A0101403450521449047001**********                                               0503
A2201400250561587972001PAULITA CONSTANTINO ROMERO                               0501
A1301400340683593046001CUERDO, MARIA ANA SORNE                                  0502
A1701400230693478374057FERNANDEZ, BEVERLY                                       0501
A1701400230693478374070CALUYA, LANIE PASCUA                                     0501
A0101408240711568736001CORDERO, ERIC GO                                         0501
A4101400390813402791001RANTE, AMANTE CONTAOI                                    0501
A4101400390813478374059CUEVAS, MERIAM                                           0501
A4101400550815045531001JR-RK'S PIZZERIA                                         0501
A4101400550815081410001DELOS SANTOS, JULITA DUMAPIAS                            0501
A4101400550815792711001GUERRERO, JOANNA BALBEJA                                 0501
A0101404840851478374096MARIA JESUSA G. BATARIO                                  0501
A0101404840851520766002CYNTHIA S. GERODIAS                                      0502
A0101404840851557822001CONDES, DANELES PEREZ                                    0504
A0601400230891257217001RICARDO M. CALILUNG                                      0501
A0101401700000000040239ESTINOPO, DBU RJL CAR PARTS                             10503
A0101412050000000043290RIVERA, TEODORO DBU T.A. RIVERA                         10501
A0101402770000000360581MICHAEL SHAWN NAPPER OR                                 10501
A1301400470000000366421CELSO C. FERRER OR                                      10501
A0101412050000000367908NG, MARISOL DY                                          10502
A0101412050000000367960TSOI, M DBU A.K.T. WOOD & CONST                         10504
A0101412890000000371464SUZETTE S BARBARA OR                                    10501
A1601400170000000421183MICHAEL M. CRUZ AND                                     10501
A2601400270000000561551RODERICK E. MADRIDEO OR                                 10501
A0101401090000000772167NOE O. BRAGAIS OR                                       10501
A0101400150061444073003BORJA SR., BASILIO EVANGELISTA                          10501
A0101400730111046434049FLORES, SAMUEL OR                                       10501
A0101400440161186961001AGNES DEE OR GREGORIO DEE OR                            10502
A0101401090171196112001DARIO T. GARCIA                                         10501
A0101401380201776021088SY, IRENE OLANO OR                                      10502
A0101401670271228042001TINIO, JUAN ANGEL LIGON                                 10501
A6601400120314047424001BALAJADIA JR., ANDRES DBU                               10502
A0101402350321180985003HO, CHIEN CHUNG OR                                      10501
A0101402350321427762001CHOY, ENG FAN OR                                        10502
A5501400120410635128001PEREYRA, ALFREDO OR                                     10502
A1901400160491422212001OLIVER B BORILLO OR                                     10502
A1601400170494076550001MARTIN A. CALLEJA OR                                    10501
A0101405940512152920001NELSON T. LAO OR STELLA MARIE                           10502
A0101405940512547475001RUFINO, MACARIO SUNICO OR                               10501
A0101406880513241403001JANINE A. AUDRAIN OR                                    10501
A0101407720602443695001SANTIAGO, TRISTRAM STANLEY                              10501
A0101404260611018041001JP LONEZA CONSTRUCTION                                  10502
A1301400500684611370001STA. JUANA, ELENA L. OR                                 10502
A4101400390813046750001MARQUEZ, MELANIE DBU LEIYHZ                             10501
A4101400390813329031002DELA CRUZ, EVANGELINE        OR                         10503
A0101401700000000040239CENTER                                                  20500
A0101412050000000043290MANAGEMENT SERVI                                        20500
A0101402770000000360581CHRISTY LYNN NAPPER                                     20500
A1301400470000000366421CHERRIE LOU J. FERRER                                   20500
A0101412050000000367908********                                                20500
A0101412050000000367960********                                                20500
A0101412890000000371464SARAH S BARBARA                                         20500
A1601400170000000421183FRENESI D. CRUZ                                         20500
A2601400270000000561551JUANITA S. MADRIDEO                                     20500
A0101401090000000772167ROSALINDA V. BRAGAIS                                    20500
A0101400150061444073003OR BORJA, ERLINDA                                       20500
A0101400730111046434049FLORES, DEMETRIA                                        20500
A0101400440161186961001THOMAS GREGORY DEE                                      20500
A0101401090171196112001OR ELSINOR GARCIA                                       20500
A0101401380201776021088HINES, DINA SY                                          20500
A0101401670271228042001OR TINIO, MARIA CELESTE                                 20500
A6601400120314047424001DYNAMIC BUILDERS & SUPPLY                               20500
A0101402350321180985003CHUANG, SHIH-SEN                                        20500
A0101402350321427762001MILA B. AQUINO                                          20500
A5501400120410635128001PEREYRA, ERLINDA                                        20500
A1901400160491422212001MARIBEL C BORILL                                        20500
A1601400170494076550001CARMEN G. CALLEJA                                       20500
A0101405940512152920001CASTILLO LAO                                            20500
A0101405940512547475001UICHICO, MARISUN                                        20500
A0101406880513241403001NATHALIE LE SAUX                                        20500
A0101407720602443695001ARTHURS                                                 20500
A0101404260611018041001& TRADING                                               20500
A1301400500684611370001STA. JUANA, FATIMA L.                                   20500
A4101400390813046750001TRADING                                                 20500
A4101400390813329031002DELA CRUZ, ULYSIS                                       20500
B2401400180000000019805CARL'S BROTHERS REALTY CORPORATION                       1601
B0301400660000000022868KEIZENNG TRUCKING CORP.                                  1603
B1301400210000000023463SAN PABLO MULTI-PURPOSE COOPERATIVE                      1602
B0101402350000000046028IGOLD COMMUNICATIONS INC.                                1603
B0101401250021029733001PAWNCARE SERVICES INC.                                   1605
B0101400150061009768001ACTIVE COMPONENTS HOLDINGS, INC.                         1602
B0101400150061036320001IPM CONSTRUCTION & DEVELOPMENT CORP                      1610
B0101400440161007542001PACE REALTY INVESTMENT INCORPORATE                       1601
B0101400440161027962002CASAYRA CORPORATION                                      1602
B0101401380201018537001VELUZAR(PASAY) INC.                                      1601
B0101401380201023821001DAIRO AIRE CORPORATION                                   1603
B0101401380201497403001HACIENDA ISABELLA GROUP INC.                             1602
B0501400200292036584001SSS EXPRESS CREDIT, INC.                                 1603
B0501400200292036584002SSS EXPRESS CREDIT, INC.                                 1603
B0101402060351035807001SOLEREX WATER TECHNOLOGIES, INC.                         1605
B0101402640361733414001ZUNIEGA, BERNADETH AND VERZOSA, CZHARINA                 1602
B0101402770391357751002LEONGSON, ROBERTO OR LEONGSON, DOLORES                   1601
B01014027703917522920010UANITA OR TOMAS OR BENJAMIN VICTORIA                    1601
B0101405490392039459001MEGANESS PHARMA MARKETING                                1601
B0501400170481013099001JORESSA DEVELOPMENT CORP.                                1601
B0501400170481023333001MEDIA TOUCHSTONE VENTURES, INC.                          1603
B0101404130601030838001ELEV 8 MEDIA, INC.                                       1603
B0601400100081022878001DM CRISSAN AUTO SUPPLY & CAR ACCESSORIES                11604
B0101402640361173316001FRANCISCO C. SALVADOR CHRISTIAN                         11602
B0101402770391039387002VERTICAL GROUP INTERNATIONAL CO                         11602
B0601400100081022878001SAN FERNANDO                                            21600
B0101402640361173316001FOUNDATION, INC.                                        21600
B0101402770391039387002MARKETING                                               21600
B0301400110191821100608**********                                               2015
B3401400280318821100608**********                                               2002
B0101411790518821100608**********                                               2005
B0101404130601821100608**********                                               2010
