A4101400260000000002120LUCIANO, MARIA PAZ GOMEZ                                 0501
A4101400420000000018471ESTORES, REYLEN                                          0502
A0101408790000000039154ROMEO R. LIM JR.                                         0501
A1701400230000000097881BORJA, DANIEL BOTE                                       0501
A0101407430000000141813JOSEF C. MAGANDUGA                                       0501
A0101412630000000180389MARQUEZ, MA. ELIZA LIMCOLIOC                             0501
A0101402510000000200164EVELYN M. TOLENTINO                                      0501
A0101412760000000208604NOVICIO, CARMELITO DE CASTRO                             0503
A1301400500000000213163MARCELINO, NORVY GARCIA                                  0502
A0201400760000000223065MARTIZANO, KESHEEN MARIE C.                              0501
A0101400150000000253369DELA CRUZ, ANGELA BALASBAS                               0501
A0101400860000000414122*************                                            0502
A3101400160000000429123LAIDA P DE GRACIA                                        0501
A2201400250000000433612ROMEO MABUTAS AGLIAM                                     0502
A0101410140000000499065MORDIDO, LYN ROBELLES                                    0501
A0101406750000000500187TIMBOL, MARIA CRISTINE GERARD R                          0501
A0101406750000000500198CRUZ, MARIE JENNIFER ORENDAIN                            0501
A0101409920000000523620YONGCO, JEMELITO BATES                                   0501
A0101404260000000532170GENUINO, ERWIN FLORES                                    0510
A0101401830000000535642SANTOS, JOHN PAUL ABUYO                                  0501
A0101408790000000579795BMS LAMPS DECORS & SUPPLIES                              0503
A0101408790000000579802QUIMQUE, MA PAULINE IRIS D.                              0501
A0101402930000000580767GUMALOS, DANNY ESTORPE                                   0501
A0101408790000000600002SHAN MARBLE & GRANITE SUPPLY                             0503
A1101400120000000652351YAO, RONALD PHILIP GO                                    0501
A4101400420000000710212MARIA CECILIA OSERA BROQUEZA                             0501
A4101400420000000710223ROMERO, MARICRIS BAUTISTA                                0501
A0101401670000000739060ELFANTE, REVERENDO RAMOS                                 0501
A0101412760000000767784YU, J DBU PRIME CUTS SOURCE GEN                          0502
A0101401380000000792263**********                                               0501
A0101401380000000792274SANTOS, SHARON FELIX                                     0501
A0101412630000000801610CORDERO, ARIANNE CERVANTES                               0501
A2401400180000000826142UMOL, IAN JOHN FAJA                                      0501
A0101400730000000849236LUMAGA, JOANALYN PONTERAS                                0501
A0101409180000000874551ESPABILLA, CHARMAINE JOY DE GUZ                          0501
A0101409180000000874573NOLLEN, RICHARD PASAMBA                                  0501
A0101405940000000886973**********                                               0501
A0101401250000000906894ANGELES, LEMUEL CERIOLA                                  0501
A0601400230000000990030TALAVERA, FRANCIS GADDI                                  0501
A0101403030000000993984YAP, AMY DELA CRUZ                                       0501
A0101409920000000998605ECHEVARRIA, DBU JOHN CARL ENTER                          0501
A0101413310000001073541DASCO, EVA YAGO                                          0501
A0101402480000001099601CAMPOSAGRADO, MILA MORALES                               0501
A0101402480000001099623*******                                                  0503
A0101402480000001099801***********                                              0501
A0601400520000001120312LAYUG, KRISTINE DUNGO                                    0501
A0101410980000001154318REA M. VALENZUELA                                        0501
A0101404130000001173626DANTE A. TOLEDO                                          0502
A0101410560000001290864SEPTIMO, DOROTHY SALVA                                   0501
A0101401380000001412468NECERIO, RAYMOND ABOCADO                                 0501
A0101400860011389659002**********                                               0505
A0101400860011400073001*********                                                0502
A0101400860011431807001**********                                               0501
A0101400860011540778001**********                                               0503
A0101400860011570367001**********                                               0502
A0101400860011610774001**********                                               0502
A0101400150061088084001ADZUARA, ELOISA TANECA                                   0501
A0101400600071373478001**********                                               0505
A0101401960121238766001**********                                               0501
A0101401960121241244001**********                                               0501
A0101400440161525001125MAY M. RAMOS                                             0501
A0101400440161525001164NERYLROSE B. VINLUAN                                     0501
A0101400440161525001182MINDA M. MENDIOLA                                        0501
A0101401090171232456001DRS. ALBERT OR DAISY ISMAEL                              0503
A0101401090171565714001ANGELA ROSE HERNANDEZ                                    0501
A0101400310211158783001LIN, JIN YEE                                             0501
A0101400310211165218001MELANIA JOCOY                                            0503
A0101400310211295755003*****                                                    0505
A0101400310211295755005******                                                   0501
A0101400310211295755009******                                                   0501
A0101400310211295755010******                                                   0501
A0101400310211295755011******                                                   0501
A0101400310211295755013******                                                   0501
A0101400310211443509003*****                                                    0502
A0101400310211793731001SILVA, CATHERINE ABELLA                                  0501
A0101407140213392958001HUIT, HERBERT MONJARDIN                                  0501
A3101400160221386295002ROBERT J. BANATIN                                        0501
A3101400160221478374053CHRISTOPHER D LISING                                     0501
A1001400190231039064001SUSAN LO OR DENNIS LO                                    0505
A1001400190231520766051NANCY DAAYATA                                            0501
A0101406460272232218001MARIANO, NORMITA T.                                      0501
A0101406460272670689001NICDAO, ROYCE MAR HERNANDEZ                              0502
A0801400160311265769002COLADA, JANETTE GARIN                                    0503
A0801400160311281230001ELMER OR LIZA FIGURACION                                 0501
A0801400160311413609001LIM, JOSEPH PO                                           0505
A0801400160311478374070GENALYN M. BOTANERO                                      0501
A0801400160311494221001JUCABAN, LEO LAGOS                                       0501
A0101402480331036586001GOD'S ANGELS LOGISTICS SERVICES                          0502
A0101402480331483880001**********                                               0501
A0101402480331507089001**********                                               0503
A0101402480331520766046NUNEZ, EVANGELINE                                        0501
A0101408820333478374048DENNY C. GAVIOLA                                         0501
A0101408820333651888001********                                                 0502
A0101402930381226463001*********                                                0503
A0101408370382205209002LUZVIMINDA M. OCCENA                                     0501
A0101408790383610468008SHERYLL F. TIBURCIO                                      0501
A0101408400394028638001A. SANCHEZ CARGO SERVICES                                0503
A0101408400394472279001BASTIDA, DAVID BALLON                                    0501
A0101408400394478374038MARY ANN F MISTICA                                       0501
A0101408400394478374069BLANCAFLOR, JOCELYN R.                                   0501
A0101408400394539659001**********                                               0501
A5501400120410656138002OBINA, ANGELITA URETA                                    0501
A0101403030441339238001**********                                               0505
A0101405940512449606001*******                                                  0501
A0101404000551226414001*****                                                    0506
A0101404130601451810001SALVACION C. MAGLANTAY                                   0501
A0101404130601614601001LLASOS, IMEE RUBY CLAVERIA                               0502
A0101407720602226048002ACLIPEN JR., FRANCIS                                     0502
A0101404260611046855001PRIMEPOWER TRANSPORT SERVICES                            0505
A0101404260611150896001RAMOS, NELIDA C                                          0501
A0101404420631598674001RACHELLE R. CASTUERA                                     0502
A0101404680651520766176GLORIA D. ASPIRAS                                        0501
A1301400340683764616001DAZO, CHASTITY AILEEN CALONZO                            0501
A0101408240711081328001STEIGER-XIONG, HUILI                                     0501
A4101400390813775566002TUAZON, MARIO CALDERON                                   0502
A4101400420814520766074VESTUIR, ROSALINDA                                       0501
A4101400420814520766093DELA CRUZ, MA. NIDA F.                                   0502
A4101400420814553183001LEONARDO, NANCY BATINGA                                  0501
A0101404840851478374096MARIA JESUSA G. BATARIO                                  0501
A0101406750852695452001EVANGELISTA, JOSEFINA MALLARI                            0501
A0101405070861086395001OCTAVIO JR., ANTONIO MARTINEZ                            0501
A0101405070861372200001ERLINDA M. DE JESUS                                      0501
A0101405070861401501001ROLDAN, JOSEPHINE MARAVILLA                              0502
A0101405070861478374066ELMER LADRES APAS                                        0501
A0101405070861780080001SALCEDO, RAYMOND GALLARDO                                0501
A1901400160000000007376RAQUEL ADORA MARTIN OR                                  10501
A1601400170000000421190JOHN F. TORROCHA OR                                     10501
A1101400120000000652700JAVIER, FRANCIS ALBERT SAN AGUS                         10501
A0101407720000000713040REVILLA, VICENTE G. OR                                  10502
A0101414120000000875652PABLITO OR RONALD JOHN OR                               10502
A0101412050000000890819NICDAO, CANDIDA ISIP OR                                 10501
A1001400480000001054682GOMEZ, JAMES B OR GOMEZ, JEROME                         10502
A0101413570000001069523CHARMAINE P. CORPUZ DBU:                                10502
A0101401380000001412457RUBIANO, NICOLE C. DBU                                  10501
A0101400150061226989001EDUARDO E. CAEG OR                                      10501
A0101400150061738224001NUBLA, MELVIN SIXTO CONSUNJI                            10501
A0601400100081041749001SERVICE TO ALL IN UNITY AND                             10502
A0101400730111703359001JAVIER, MAGDALENA DIONISIO                              10503
A1001400350233533309001MARIO JOSE A. SIA / CAGAYAN DE                          10505
A0801400160311267069001MA. JIZA BARREDO OR MANUEL                              10502
A0801400160311389143001CHAN, MILAGROS OR                                       10502
A0101402930381041949001METT MOTIVATIONAL ENGLISH                               10502
A0101402930381283088002JOSEPH VINCENT A. ALBA OR                               10503
A0101402930381359035001FREDDIE BOLOR OR                                        10501
A0101402930381470004001ROGELIO T. QUINTERO, JR. OR                             10503
A0101408790383791915001ARELLANO, DANIELLE FRANCIS B OR                         10501
A0101408950396420560001MICHAEL LIM VILLA OR PATRICIA                           10501
A0101408950396563005001DR. ANDREW GABRIEL JACINTO                              10502
A0101408950396576467001DR. JOANNA TERESA MARGARITA                             10501
A0101409180397696150001MARINO, SALVY OR MARINO, HECTOR                         10501
A2401400180411478374027ELLEN PANTUJAN OR                                       10501
A0101404130601708628001PABALATE, PACITA BATAC OR                               10501
A1901400160000000007376VICTOR DANGANAN                                         20500
A1601400170000000421190ROCHELLE A. TORROCHA                                    20500
A1101400120000000652700OR MANUEL, BLESSING FAITH                               20500
A0101407720000000713040REVILLA, ALEJANDRO L.                                   20500
A0101414120000000875652PRINCESS JOY OR FE OR LEA                               20500
A0101412050000000890819NICDAO, ED PAUL ISIP                                    20500
A1001400480000001054682OR BAJAS, LYDIA                                         20500
A0101413570000001069523CELADON NAILS & BODY SPA                                20500
A0101401380000001412457NCR DENTAL CLINIC                                       20500
A0101400150061226989001BESSIE C. CAEG                                          20500
A0101400150061738224001OR NUBLA, KAREN                                         20500
A0601400100081041749001PROGRESS MULTI-P                                        20500
A0101400730111703359001OR MAJAR B. JARDIOLIN                                   20500
A1001400350233533309001ORO HARDWARE AND ELECTRIC                               20500
A0801400160311267069001JOSEPH BARREDO                                          20500
A0801400160311389143001CHAN, NATHANIEL                                         20500
A0101402930381041949001TRAINING & TUTOR                                        20500
A0101402930381283088002AGNES A. ALARILLA-ALBA                                  20500
A0101402930381359035001HERSHEY BOLOR                                           20500
A0101402930381470004001ROWENA S. SANCHEZ                                       20500
A0101408790383791915001ARELLANO, VINCENT A.                                    20500
A0101408950396420560001YUKIJI JAVIER VILLA                                     20500
A0101408950396563005001TABBERRAH                                               20500
A0101408950396576467001L. MANALO                                               20500
A0101409180397696150001OR NAVOA, NANETTE                                       20500
A2401400180411478374027ELMER PANTUJAN                                          20500
A0101404130601708628001PABALATE, HELEN                                         20500
B0101404840000000004122JOY PLANET INC.                                          1604
B0801400160000000010219**********                                               1602
B0101410300000000026439GREENMANILA GARDENS AND LANDSCAPES, INC                  1603
B0101400860000000030291**********                                               1601
B0101411660000000032191QUANTUM AMUSEMENT CORPORATION                            1605
B0101408790000000038997TIPPING POINT TRADING AND CONST. INC.                    1601
B0101412470000000045430**********                                               1602
B0101410980000000172023JOSEPH C. CHUA AND PETER C. CHUA                         1601
B0101402480000000794349*******                                                  1604
B0101413990000000969348E.C.L. TRADING                                           1602
B0101407430000001028988********                                                 1603
B0101414120000001142909ARAKK VENTURES CORP.                                     1602
B0101400860011390602001**********                                               1605
B0601400100081046818001J.G. FLORES BUILDERS                                     1601
B0601400100081251751012TAN, WILFREDO MANARANG OR TAN, MARIANO                   1605
B0101401380201034271004LC BUILDERS AND DEVELOPERS, INC.                         1604
B0101401380201037945001LUCKY HORSES CONSTRUCTION SUPPLY                         1610
B0801400160311013984002HOPE LENDING CORPORATION                                 1602
B0801400160311043928001DELIFRANZ BACKEREI, INC.                                 1602
B2001400290315528399001**********                                               1601
B0101402480331010240001BOUNTY FARMS INC.                                        1610
B0101402480331010292001**********                                               1601
B0101402480331017763001**********                                               1601
B0101402480331022633002***********                                              1601
B0101402480331027489001*****                                                    1602
B0101402480331031219001**************                                           1604
B0101402480331047395001**********                                               1601
B0101402480331089091001TENGSON, RAFAELITO VALENCIA                              1601
B0101402480331663504002******************                                       1601
B0101408820333043034001********                                                 1601
B0201400760374745313001EVO ENVIRO SOLUTIONS, INC.                               1601
B0101402930381009648001CHRIST'S COMMISSION FOUNDATION, INC.                     1610
B0101402930381022284001INVESTORS ASSURANCE CORPORATION                          1601
B0101402930381032706001BAPTIST BIBLE COLLEGE OF ASIA PACIFIC                    1601
B0101408790383021087001OCEAN TANKERS CORPORATION                                1605
B0101408400394028375001LEARN AND PLAY BOOK STORE                                1601
B1201400150421023348006PINES CITY BAPTIST CHURCH, INC                           1602
B1401400110492046339002****                                                     1610
B0101406880513504675002Y-FI CORPORATION                                         1602
B0101403450521011882004PAN PACIFIC TRAVEL CORPORATION                           1603
B0101404000551038492001UP STAGE RESTAURANT & BAR CAFE INC.                      1601
B0101404130601513612001JMATERIALS CORPORATION                                   1601
B0101407720602602411001LOVE MY BODY, INC.                                       1610
B1301400210682248659001ASIANLAND STRATEGIES CORPORATION                         1605
B4101400550815041950001GARDENIA KAPIT-BISIG MULTI-PURPOSE                       1602
B0101405070861008149001TABAQUERIA DE FILIPINAS INC.                             1604
B0101405070861565051001BLAUGRANA CORPORATION                                    1602
B0101405070861635019001SY, DANILO BARAOIDAN OR SY, BETTY TIU                    1602
B0101402770000000080624WALLY W XU OR BERNADETTE S YUE                          11605
B1001400480000000133520INSTITUTE OF INTEGRATED ELECTRICAL                      11601
B0101405070000000428911INTERNATIONAL FREIGHT FORWARDERS PHILS                  11602
B0101411240000001026839JINGCO, EDUARDO URQUICO DBU E.U.JINGCO                  11601
B0101401090171031067001EDWIN S. SANTIAGO ENTERPRISE                            11620
B0101408400394406707002TUASON, MICHELLE MARIE RIVERA                           11601
B0101406880513034765001DEVELOPED LOGICAL TECHNIQUES FOR AIR-                   11610
B0101407720602007039001TRINITY WOMAN & CHILD CENTER                            11610
B0101405070861385408001UY, ROBERT/TAN, EDWIN/MENDOZA, MANUEL/                  11605
B0101402770000000080624OR HAI L MA                                             21600
B1001400480000000133520ENGINEERS-NMRC                                          21600
B0101405070000000428911INC.                                                    21600
B0101411240000001026839CONSTRUCTION                                            21600
B0101401090171031067001CORPORATION                                             21600
B0101408400394406707002ITF                                                     21600
B0101406880513034765001CONDITIONING TEC                                        21600
B0101407720602007039001THE BIRTH PLACE                                         21600
B0101405070861385408001LIM, CHARLIE                                            21600
