A4101400260000000002142TAJANLANGIT, JACKIE C.                                   0501
A3101400450000000014002VENTURA, EMMA WELGAS                                     0501
A0101405490000000019667MARVIN C. BILIWANG                                       0501
A0301400660000000023081VASQUEZ, JOSEPH LIBOON                                   0501
A0101408820000000027272********                                                 0501
A1701400230000000097790ASIS, MARY JEANE PAGUSAN                                 0501
A0301400820000000132527DAGADAS, CONCORDIA A.                                    0501
A0101402060000000147613AGUIRRE, KITCHIE REBANCOS                                0501
A0101412630000000180425**************                                           0501
A0301400660000000194843*****                                                    0501
A0101404130000000321371ALIENTO, JASPER PAJARES                                  0502
A0101402060000000358770LAY BARE WAXING SALON                                    0502
A0101409890000000437461RAMPAS, AMELIA CHUA                                      0501
A0101405490000000444313BENITO M. LOJO                                           0503
A0101405490000000444637MONALISA RAGAY ENOT                                      0501
A0101404130000000485741MAYOR, ALONA MAE BALUBAR                                 0501
A0101405940000000505811*******                                                  0502
A0101408370000000586050CATIBOG, JOLLY JASON SANTOS                              0501
A1101400120000000652351YAO, RONALD PHILIP GO                                    0501
A3001400130000000668480URIARTE, JORIME JANE NGO                                 0502
A0101404680000000767011JANICE A. CERBITO                                        0501
A0101408950000000776683DY-AGRA, GUINEVERE NGO                                   0501
A0101404680000000862260MERLY F. BANGUILAN                                       0501
A0101412180000000908463SORIANO, JOIE PARAGAS                                    0505
A1001400350000000922116MANGUBAT JR., PEDRO TEVES                                0501
A3001400130000000931333K AND S ENTERPRISES                                      0501
A3001400130000000931340YU, PHILIP JOHN ARIENZA                                  0503
A2801400100000000968852MORADOS, MAYUMI ESPORLAS                                 0501
A0601400360000000978696ONG, JEFFREY NAVARRO                                     0502
A0101409050000000999700LIM, ERLENE PECSON                                       0501
A0101408240000001038802AUSTRIA, JOHN NOEL ESCOBIDO                              0501
A1001400480000001054802CHUA, JOSE DY OR LERA, EMILY C                           0502
A0101412890000001056473ANGEL, RUCEL CHUA                                        0501
A1001400190000001057443LORNA DAGASDAS                                           0501
A1001400190000001057476MARY AN MENDOZA                                          0501
A1001400190000001057498LIGTAS, JOSE CALALIN                                     0501
A0501400170000001072800PERALTA,JOSEPH VI DBU KENJO TRA                          0501
A3101400450000001104141ALIM, JOCELYN QUISING                                    0501
A5501400120000001121851BECIOS, DELIA SOLIVIO                                    0501
A0101400570000001134274EXEQUIEL L. ALLAM                                        0501
A4101400260000001135084SANILLA JR., ANTONIO DOCENA                              0501
A0101410980000001154370CONCHITA C. TAN                                          0501
A0701400260000001232017ALCABA, CHERRY DE VERA                                   0501
A0101412210000001236180LASTIERRE, JACKLYN BARTOCILLO                            0501
A3001400130000001271567LIBRES JR., PONCIANO NICOLASORA                          0501
A0101401830000001281987PANTALLA, MARICEL MAGUIRANG                              0501
A0101404840000001312554MARIA FE V. MALIG-ON                                     0501
A0201400920000001331720NAPISA, JHOAN MARIE ARCILLA                              0501
A0601400520000001349617TIATCO, LIRNA PINEDA                                     0501
A6601400120000001370592DESTURA, MARLO VILLARAZO                                 0502
A0101400440000001439663MEDCON PHARMA                                            0502
A0101400440000001439885OBEDOZA, RODRIGO AGNES                                   0501
A0101405940000001534190PANGANIBAN, RANGIE MIANO                                 0501
A1101400120000001547304LOBRIGO, SONIA QUINO                                     0501
A1101400120000001547337ALDIANO, FLORDELUNA LATO                                 0501
A2001400290000001557462RAPALES, RIA VILLA VARGAS                                0501
A2001400290000001557473HILARIO, MARK LOUIE SISON                                0501
A2001400290000001557484TANGENTE, MERACULYN ANFONE                               0501
A2001400290000001557495ABIERA, FELTHON ZAMORA                                   0501
A2001400290000001557502WENCESLAO, GEA YVONNE OTERO                              0501
A0101401090000001611369SULQUIANO, REX HERRERA                                   0501
A0101404680000001716490VILMA H. CAPRICHO                                        0502
A0101404680000001716525JERRY E. MANUCAN                                         0501
A0101404130000001831681LANDISCHAN, ERIKA HAZEL SANTOS                           0501
A0101404130000001831692BAUTO, RONALDO ORTIZ                                     0501
A0101413860000001886822JAMIRUDDIN, MOHAMMAD HASAN                               0501
A1901400290000001917313NEONEVA PIAD MAGTAAS                                     0501
A0601400100081045690001MERCEDITA ANDRES TRUCKING                                0501
A0101410560110478374006RENE B. ANGELES                                          0501
A0101401830141281212001IMELDA G. CABALUM                                        0501
A0101400440161478374189CORAZON C. BOLA                                          0501
A0301400660194618862001*****                                                    0501
A0101407140213191178001**********                                               0501
A3101400160221398049001REMEDIOS L. LUNA                                         0501
A3101400450223489008001SIO, MINNIE REGINA OR JOSELITO                           0502
A3001400130230478374004BALABA, JANETH BORJA                                     0501
A3001400130230767566052FLORES, VIRGINIA MALBAS                                  0502
A3001400130230767566073ROBLES, REY ANTHONY PARCON                               0502
A1001400190231039064001SUSAN LO OR DENNIS LO                                    0505
A1901400290261298552066DOLORES SARMIENTO MANGUIAT                               0501
A1901400290261298552105AIDA NABOS REYES                                         0501
A1901400290261360285001CEFERINA MENDOZA MARQUEZ                                 0501
A1901400290261493025078DR CRISTINA T COMIA                                      0501
A1901400290261622942001MA. CONCEPCION PEREZ NAVIDAD                             0501
A1901400290261663904001EVELYN ROSALES PURINO                                    0501
A0101400570281383821001LUISA L. ANG LEY OR LILY L. LEY                          0501
A2601400270302591563001ROSITA R. CHE                                            0501
A6601400120314040857002MEDLINE DRUG & MEDICAL SUPPLY                            0501
A2001400290315052317001NRU TRADING                                              0501
A2001400290315673185001TAHIR, SAMSODIN TOMAWIS                                  0501
A0101405650322526192001FUNTILA, CAROL PAULINE TAMAYO                            0501
A0101409050352645570003MYRNA P. CUASAY                                          0501
A0101402770391340396001ERLINDA D. VILLANUEVA                                    0503
A0101405490392170363002SONIA T. OLIVEROS                                        0502
A0101408950396594011001MA. TERESA V. PEJI                                       0501
A1201400150421776673001CORREOS, GEROME DUA                                      0503
A0101403320471478374054MERLITA CRUZ                                             0502
A0101405940512718511001VITANCOL, RAMIRO BAUTISTA                                0502
A0101403450521240285002**********                                               0502
A0101403610531532327001CAJIPE, VIOLETA UY                                       0501
A0101407720602299636001GREGORIO GERRY F. FERNANDEZ                              0502
A0101407720602397349002MARIN, MA. ROSARIO PASCUAL                               0502
A0101404260611150902001MARITESS OR BERNARD PAMA                                 0501
A0101404260611524854001CLEMENTE, WILMA RUIZ                                     0502
A0101404680651394768001EVERLYN N. ASTOVEZA                                      0503
A0101404680651478374157EVANGELINE G. GARDOCE                                    0502
A0101404680651517847001LUCILA C. BERNAL                                         0505
A0101404680651520766094MARIBEL P. CINCO                                         0501
A0101404680651520766174MA. LOURDES G. ROMINEZ                                   0501
A0101404680651525001002DIVINA GRACIA BAYANI                                     0502
A0101404680651538112001NILDA C. AVENTURA                                        0502
A1301400340683478374006******                                                   0501
A1301400340683501003001GO, LLOYD CHUA OR CHERYL B GO                            0502
A0101407560686331247001AMALIA C. DELFIN                                         0502
A0101407560686550325001GEORGE LEO C. GO JR.                                     0503
A1701400230693662898002DUQUEZ, REYNALDO AQUINO                                  0501
A2801400100712507001001*****                                                    0502
A4101400260812469791001CAROL E. COMIA                                           0501
A4101400420814520766006PLAZA, CORNELIA P.                                       0501
A01014067508520359810014K MEDICAL & DENTAL SUPPLY                               0503
A1901400160000000007354RAYMARCIA'S CATERING AND                                10501
A0101404680000000013463TUBELLO COAT CENTER                                     10501
A3101400450000000014057AGUILAR, ELNORA URSULA RAMOS                            10501
A0501400200000000035630BUENO, RAYMUND M. OR BUENO,                             10501
A0101413860000000145122WONG, SALUSTIANO CHEONG OR                              10501
A5001400170000000214013CHAN, PATRI B. OR                                       10501
A1901400160000000243581ROMAN CATHOLIC ARCHBISHOP OF                            10501
A0101412890000000371497EDGARDO B NEPOMUCENO OR                                 10501
A1201400150000000473541DACANAY, E DBU ERLINDA I.                               10505
A2601400270000000561966NELIA A. CORTEZ OR MARVIN T.                            10501
A1101400120000000652620GO, COCAINE Y. OR                                       10501
A0101404680000000767062TERESITA A. AGUILAR OR                                  10503
A3001400130000000931231CHUBB'S AGRIVET SUPPLY AND                              10502
A0101409920000000998569MEMBERS OF NATASHA (SHOECAT INC                         10501
A0101400570000001134252AMBATALI, JOSEPHINI PESCADOR                            10501
A0101401830000001139953NOJADERA, ROSEMARIE S. OR                               10502
A0101401250021178978001BAUTISTA, LOLITA DATO OR                                10501
A0301400660194733226088DAVID, FRANCISCO OR ZAMORA JR.,                         10503
A3101400450223352819001FARAON, RIZALINA OR                                     10502
A1001400350233528399003KO, JOSE NELSON AND                                     10501
A1301400470252603370001CARLOTA T. HIPOLITO OR                                  10502
A1901400290261040973001ICT-ED INSTITUTE OF SCIENCE                             10502
A1901400290261082846001FE M TOBIAS OR                                          10501
A1901400290261244344001AVELINA B DE GUZMAN OR                                  10502
A1901400290261432900001JULIUS PIO AFRICA RANA OR                               10501
A0101405490392496622002JOCELYN L. FLORETO OR                                   10501
A0101405490392787306001JOEL S. BERNARDO OR                                     10502
A0101408950396047389001MELROSHEAN CONSTRUCTION                                 10502
A1201400150421039385001JL'S CLEAN UP JANITORIAL &                              10503
A0101407430503379026002RENATO G. MACANDILI OR                                  10501
A0101403610531219472002NAVOA JR., FILOMENO CORPUZ OR                           10502
A0101403610531220255002MARY JOY A. DADIVAS OR                                  10501
A0101403610531221338001REFORMA, MA. SHEREELLE A.    OR                         10504
A0101404130601450094004PASCUAL, LORQUEL OR PASCUAL,                            10501
A0101404130601450390001VALDES, PAUL DENNIS OR                                  10506
A0101404130601708628001PABALATE, PACITA BATAC OR                               10501
A0101407720602162070001DR. CLEMENTE GATMAITAN OR                               10503
A0101407720602316120001LUCIA CASTRO-FORES OR                                   10501
A0101407720602515940001TIGLAO, JENNIFER THERESA                                10501
A0101404680651420772001EMELITA S. CALLOS OR                                    10501
A0101404680651457785001ARMANDO DORIA OR                                        10503
A0101407560686277688001TERESITA E. JUAN OR                                     10502
A0101407560686278289001GUSTIN PAGUIA OR                                        10501
A2801400100712378394001REYNOLD JOHN B. MADAMBA OR                              10502
A1901400160000000007354FOOD SERVICES                                           20500
A0101404680000000013463ENTERPRISE CO.                                          20500
A3101400450000000014057OR AGUILAR, ANTONIO                                     20500
A0501400200000000035630ANGELICA MODESTA V.                                     20500
A0101413860000000145122WONG, MYRNA                                             20500
A5001400170000000214013CHAN, JIMMY S.                                          20500
A1901400160000000243581LIPA (RCAL)                                             20500
A0101412890000000371497IVY B BENDAL                                            20500
A1201400150000000473541DACANAY RICE COMMERCIAL                                 20500
A2601400270000000561966CORTEZ                                                  20500
A1101400120000000652620GO, NICHOLAS JASON F.                                   20500
A0101404680000000767062TARA BLANQUITA AGUILAR                                  20500
A3001400130000000931231GENERAL MERCHANDISE                                     20500
A0101409920000000998569PEDROSA, JULIE                                          20500
A0101400570000001134252OR JACINTO, ROSARIO                                     20500
A0101401830000001139953NOJADERA, ISAGANI M.                                    20500
A0101401250021178978001BERTOL, LIEZL B.                                        20500
A0301400660194733226088 CERIACO                                                20500
A3101400450223352819001BELEN, RHODORA                                          20500
A1001400350233528399003KO, CHARMAINE                                           20500
A1301400470252603370001ROCKY M. HIPOLITO                                       20500
A1901400290261040973001AND TECHNOLOGY,                                         20500
A1901400290261082846001FRANCISCO C TOBIAS                                      20500
A1901400290261244344001BENJAMIN D DE GUZMAN                                    20500
A1901400290261432900001CHARMAINE DE GUZMAN RANA                                20500
A0101405490392496622002RUDY P. FLORETO                                         20500
A0101405490392787306001JENETTE Y. BERNA                                        20500
A0101408950396047389001CORPORATION                                             20500
A1201400150421039385001MANPOWER SERVICE                                        20500
A0101407430503379026002ELENA C. MACANDILI                                      20500
A0101403610531219472002NAVOA, NANETTE PANO                                     20500
A0101403610531220255002HUGO A. DADIVAS                                         20500
A0101403610531221338001REFORMA, BENISON                                        20500
A0101404130601450094004ANNIE S.                                                20500
A0101404130601450390001VALDES, MA. THERESA                                     20500
A0101404130601708628001PABALATE, HELEN                                         20500
A0101407720602162070001CARLOS P. GATMAITAN                                     20500
A0101407720602316120001MIGUEL EDGARDO FORES                                    20500
A0101407720602515940001GONZALES                                                20500
A0101404680651420772001CATHERINE S. CALLOS                                     20500
A0101404680651457785001JOSEPHINE DORIA                                         20500
A0101407560686277688001ARMANDO JUAN                                            20500
A0101407560686278289001MARIA LEONILA PA                                        20500
A2801400100712378394001ANNE RAQUEL S. M                                        20500
B0101406620000000015061UBER APPS INC.                                           1601
B0101401830000000033570CARITAS SALVE CREDIT COOPERATIVE                         1602
B0101402770000000080668SUPERSONIC MULTI PRODUCTS SALES,INC                      1605
B1001400350000000244211CENTRO SUPERSALES INC.                                   1605
B1001400350000000244222MADONNA AND CHILD HOSPITAL                               1605
B0101400150000000633323*********                                                1603
B0201400920000001331800BARON, ROBINSON KYAMKO                                   1601
B0101400150061000544001CITIBANK - N.A.                                          1601
B0101400150061018245001PERLA COMPANIA DE SEGUROS, INC.                          1601
B0601400100081026547002ANGELES FRIED CHICKEN, INC.                              1601
B0101401830141008844001BM POWER SUPPLY & ELECTRIC SERVICES                      1605
B0101401830141034725001LINGKOD SIMBAHAN MULTI-PURPOSE COOP                      1602
B0301400660194454300088*****                                                    1606
B0101407140213045192001KML CONSTRUCTION SUPPLY                                  1602
B0101407140213046530001**********                                               1601
B3001400130230043293001L.M. TING FOODILICIOUS CORPORATION                       1620
B1901400290261027293002LIPA MEDICS INC.                                         1610
B0101405650322046297001HERRERA, ERIC DBU HOTWHEELS TRADING                      1601
B0101408820333041260001********                                                 1603
B0201400760374038778001CPERC                                                    1602
B0201400890376047100001MANDAUE PRINT SHOP CORPORATION                           1602
B0901400220432047388088432-001509-3                                             1602
B0101403030441042624001**********                                               1610
B0101404130601015346002GLOBAL GAS & OIL CARRIERS, INC.                          1603
B0101404130601018049001GRAINS PER POUND ENTERPRISES, INC.                       1601
B0101404130601037502001JS PHILIPPINES GLOBAL CORPORATION                        1602
B0101404130601100121002OMRON ASIA PACIFIC PTE. LTD.                             1602
B0101404260611040672001JL QUALITY CLINICAL LABORATORY CO.                       1601
B0101407560686045288001***********                                              1610
B2801400100712041114001DML SUBIC FREEPORT CORPORATION                           1605
B4101400390813027260001PHILS-JEON GARMENTS, INC.                                1604
B0101403610000000015943P.A. ALVAREZ PROPERTIES AND DEVELOPMENT                 11601
B0101405940000000886728TORRE LORENZO PROPERTY MANAGEMENT                       11605
B0301400660194046073088WEST EMPIRE SEAFOODS AND CHINESE RESTAUR                11610
B1001400350233076793001BINHI MICROENTERPRISE DEVELOPMENT                       11605
B0101407560686042538001SQUARE-D FABRICATOR & CONTROL SYSTEMS                   11602
B0101403610000000015943CORPORATION                                             21600
B0101405940000000886728CORPORATION                                             21600
B0301400660194046073088ANT                                                     21600
B1001400350233076793001FOUNDATION INC.                                         21600
B0101407560686042538001ENTERPRISE                                              21600
B0101410560110821100608**********                                               2001
B1001400350233821100608**********                                               2005
B0101411660384821100608**********                                               2003
