F0101408240711460168001SANTILLAN, JOSE ENRICO GABOR                             2501CKO
F0101405070861519629001BESA, TRISTAN CAMARA                                     2501CKO
F0201400180000000450417ARCENAS, MARILYN OR                                     12502CKO
F1301400210682496862001ROSARIO C PEREZ   OR                                    12502CKO
F4101400260812478302001CHITO Y. OLBIDO OR                                      12505CKO
F0201400180000000450417ARCENAS, VICTOR                                         22500CKO
F1301400210682496862001EDGARDO J PEREZ                                         22500CKO
F4101400260812478302001AGNES C. OLBIDO                                         22500CKO
F0101402060351009369002POLYMER PRODUCTS PHILS., INC.                            2610CKR
F0301400790000001211681GABUTERO, ROMMEL D OR                                   12601CKR
F3201400190000001493056RECEL ELNORA DBU STEFAN'S PHARMACEUTICAL                12602CKO
F0101408530516490529001VITUG II, FERNANDO MEDINA OR                            12601CKO
F0301400790000001211681GABUTERO, MICHEL                                        22600CKR
F3201400190000001493056DRUGSTORE                                               22600CKO
F0101408530516490529001VITUG, HERMINIA                                         22600CKO
