A0101409920000000022077VINLUAN, ELMER DE VERA                                   0502
A0101407690000000025123LINCUNA, JULIUS BANZON                                   0502
A0201401020000000056040SUMAGANG, JAIME ESCABAS                                  0502
A6601400120000000060853ULTRA, CHERRY IBANEZ                                     0501
A2801400230000000063107TUBLE, MARIA ELIZABETH CABRERA                           0501
A1001400190000000124843RUBIO, JESTER S.                                         0501
A0101407690000000154801BOITIZON, OLIVER PARDO                                   0501
A0101413600000000206868TGE OUTDOOR ADVERTISING                                  0502
A1901400160000000243616GRACE GUNIO CAHINTA                                      0501
A5501400120000000265923BANTAD, DAVE CELDA                                       0501
A0101403030000000320481**********                                               0501
A0101401250000000441052ONGSUECO, SYLVIA K.                                      0503
A0101406330000000451249SITYAR, MA. DOLORES SORIANO                              0502
A0101407560000000477834**********                                               0501
A0101407690000000495410GOLDEN JING TRADING                                      0502
A0101410140000000499361NUNEZ, PAMELA RANESES                                    0501
A0101406750000000500176TOLENTINO, SUSANA GEMPIS                                 0501
A0101400150000000525313**********                                               0501
A2601400270000000561831WILLIAM A. QUE JR.                                       0502
A0101411790000000576034LEMON II, CARL MARK                                      0501
A0101406620000000577106CALANTUAN III, BENIGNO TOGONON                           0501
A1401400110000000628671DUENAS, NORVEN CORONADO                                  0501
A0101413990000000631861TEJIDO, PAUL TRUJILLO                                    0501
A0101406330000000683272TALHA, ARNEL ALKALDE                                     0501
A4101400420000000710198ROLITA R. GOMEZ                                          0501
A4101400420000000710201NALDOZA, IMELDA FALIP                                    0501
A0101400570000000749628LANIE V. GARCIA                                          0501
A0101400570000000749662JOSEFA A. SABADO                                         0501
A0101408950000000776610LIRIO, JANICE LEGASPI                                    0501
A0101412630000000801432PALMA, RONALD PENALES                                    0501
A0101412630000000801585PAR, MICHAEL RAMOS                                       0501
A0101412630000000801596RINONOS, ANALYN TUICO                                    0501
A0101407270000000818326CATHERINE B. LOPEZ                                       0501
A0101405940000000886871MANALO, EFRAIM GUITERREZ                                 0501
A0901400220000000887903**********                                               0501
A0101401250000000906923VILLAMIA, GERRY MALLARI                                  0501
A0101407690000000913713DOLLESIN, NORA INOVIRO                                   0501
A1301400340000000926847PINCA, ALFER DAVAN                                       0501
A0101413990000000969304DIMACULANGAN, ESTELA GARCIA                              0501
A0101409920000000998729ARIZANGA, REGGIE MENDOZA                                 0501
A0101400860000001005310**********                                               0502
A0101412340000001017623SANTOS, MYRA JOAN MAYOR                                  0501
A0101408400000001035589LAGROSA, MARY CARL GRACE AGREDA                          0501
A0101402640000001054277RIVERA, CORAZON DAEZ                                     0501
A0101402640000001054288SDT MANPOWER SERVICES                                    0501
A0601400230000001062388MEMBERS OF NATASHA (SHOECAT INC                          0502
A0101413310000001073523BACERRA, HECTOR BRIONES                                  0501
A0101413310000001073530PACAMARRA, GILMARIE FE SALVA                             0501
A0101405490000001092535APPLE A. SANTIANO                                        0501
A3101400740000001093874NAMBAYAN, ROWENA OBANDO                                  0501
A0101413860000001233710ENARIO, JOHNNY MAKABENTA                                 0501
A0101406330000001235012MATIENZO, MONETH STA. ANA                                0501
A0101406330000001235023SADDI, MALLORY MENDEZ                                    0501
A0101412210000001236128BASCOS, CATHERINE DELA CRUZ                              0501
A0101413150000001288193BASCO, DONNA CARLA SANCHEZ                               0501
A0101400440000001439583CECILLE DEMILLO GALENO                                   0501
A0101400860011233192002**********                                               0501
A0101400860011435648001**********                                               0505
A0101400860011453178001**********                                               0502
A0101400860011473146002*********                                                0502
A0101400150061229818001JOFFREY G. MANAID                                        0501
A0601400100081013046001CASTANEDA, MARITA T.                                     0502
A0601400100081560024001VERGARA, ELSIE MAGLAMBAYAN                               0501
A0101400440161272899001*****                                                    0502
A0101400440161525001006EUFELYN J. DOYDORA                                       0501
A0101400440161525001091CRISTINA A. PADILLA                                      0502
A0101407270162560664001LOURDES HYACINTH P. MARTINEZ                             0501
A0101401090171029816001RB TECHNO-POWER ENTERPRISES                              0503
A0101401090171457732001MARCELA MILA D. DAYA                                     0501
A0101400310211076854001PARAGAS, ANGEL LHOI CANEDO                               0501
A0101400310211157369004ASUNCION OR PAUL MUNOZ                                   0505
A0101400310211478374057CLAUDIA S. VIRAY                                         0502
A3101400160221506317001RACHELLE B. ALVIAR                                       0503
A1301400470252697686001AUGUSTUS CEACZAR P. RUIZ                                 0501
A0101400570281186867001DR. DIANA JEAN ROXAS                                     0501
A0101405650322172164002AQUINO, CHRISTIAN CASTRO                                 0502
A0101405650322593883002DOLOR, FLORIDA MATULOY                                   0502
A0101408820333637693001******                                                   0501
A0101402510341196566001LUZVIMINDA G. CRUZ                                       0501
A0101402510341727351001FERNANDEZ, BERNARD JOEL ROBLEZA                          0501
A0101402060351445404001ACOSTA, REYNALDO DELA TORRE                              0503
A0101402060351496056001LANDRITO, JUANITO CARLOS                                 0501
A0101402640361033158001CITIHOMES REALTY, INC.                                   0502
A0101402640361168304001LIONEL Q. JAVIER M.D.                                    0503
A0101402640361491175001CHAN, JAMES                                              0510
A0201400920375622087001SIANGCO, FELIPA YUSON                                    0501
A0101411660384076295001MICHAEL GERARD S. DOMINGUEZ                              0501
A0101405490392033011001VICELA MOTOR WORKS                                       0503
A2401400180411478374017PERPECTUO BULAQUINA, JR.                                 0501
A0101406330472213329001EVANGELINE G. REAL                                       0503
A0101406330472296884001JAYLEE TRADING                                           0502
A0101406330472478374031GINALYN ESTABAYA                                         0502
A0101406330472479414003GEORGE B. CASQUEJO JR.                                   0501
A1401400110492409739002NERI, MA. CARMELA DE LEON                                0501
A0101403580511150595001MAXIMO P. MARIANO                                        0501
A0101405940512152345001OFELIA D. DE GUZMAN                                      0501
A0101405940512458148001DACLES, MARICAR LAGRIMAS                                 0501
A0101406880513454169001PE, CAROLINE UY                                          0506
A0101406880513527242001ABIADA, MA. BIEN BORJA                                   0501
A2201400250561573412001GILBERT V. MANGUERRA                                     0501
A0101404420631606208001FRANCISCO JR., ALFREDO SANTOS                            0501
A0101407690652173311001RS JARDIN & ASSOCIATES                                   0505
A0101407690652376195001DIDELES, JOSEFINA BALINGIT                               0501
A0101407690652554052005ALCANTARA, MICHAEL QUIGLEY                               0502
A0101410300663082110001********                                                 0503
A1301400210682478374027MARY ANN M. DE LEON                                      0501
A0101408240711378853001EPIFANIO R. REYES                                        0502
A0101408240711491594001MORALES, ANTONIO JT                                      0501
A4101400260812478374029MARIA FE E. TEJERERO                                     0501
A4101400390813478374004CABER, JOAN                                              0501
A4101400420814478374164LENITA PARRILLA BALISA                                   0501
A4101400420814500009001BERDIN, ANNA BEL JARINA                                  0501
A4101400420814520766009PATISUCAN, EUSTIQUIA P.                                  0501
A4101400550815478374013AVILA, ROSELLE BUGAWAN                                   0501
A0101404840851046725023MARCELINO AUDENCIAL                                      0501
A0101404840851478374028DELA CRUZ, GERALDINE P.                                  0502
A0101404840851520766194FELIPA O. VILLANUEVA                                     0502
A0101404840851656725001JULE ROSALES FUNE                                        0502
A0101405650000000013054NATCORP CAREER GROWTH AND                               10502
A0601400100000000141966BANAS, CESARLIE AMBASA OR                               10502
A0101407690000000154750BARANGAN, ROMEO DBU                                     10503
A0201400760000000222853GO, ELIZABETH GAN                                       10503
A0101412210000000238533GUTIERREZ, JOSE ANTONIO OR                              10501
A0101412050000000367891JAYME, MARY GRACE BATOL AND                             10502
A0601400100000000786585TIMBOL, CYNTHIA CELECIO OR                              10502
A2401400180000000826288TAN, ROSCEL SUOBIRON DBU                                10501
A0101407690000000913746DELA CRUZ, JOEL DBU N97 DESIGN                          10501
A0101407690000000913746DELA CRUZ, JOEL DBU N97 DESIGN                          10501
A0101401700041151383001MANUEL LIPANA &/OR CORAZON                              10510
A0101407270162542118001MARISSA DV. BAUTISTA OR                                 10501
A0101400310211157412001EDUARDO MORENO OR                                       10503
A0101400310211276524001MARIANITO ALEMANIA OR                                   10501
A1001400190231277021002BONGABONG, DANIE MINTALAR                               10502
A0101406620273280285001PELAGIO / ROSARIO / REBECCA /                           10501
A0101402060351604435001BUIQUIL, EDDIE D. OR BUIQUIL,                           10502
A5501400120410650364008SAY, GILDA OR DANNY OR HENRY OR                         10502
A1201400150421539011001ANG, WESLEY CUA OR ANG, ROSEANN                         10503
A1201400150421685972001JUCUTAN, HEIDI BONDAD OR                                10504
A0101403320471400801001MARILEN I. CRUZ                                         10503
A0101406330472206499001LUZVIMINDA H. GERONIMO OR                               10502
A0501400170481717828001TAN JR., ANDREW KUA OR                                  10502
A2201400250561315662002LAARNI M. TARRONAS OR                                   10501
A2201400250561484428001WILSON LAO SIO OR                                       10502
A0101407690652046778001SANTIAGO, DBU LEONIDA SANTIAGO                          10501
A0101407690652478374142MARLENE C. ALVAREZ - DEALERS OF                         10501
A0101407690652525001081AGUSTINO, ROWENA - DEALERS OF                           10501
A4101400420814342398001JIMENEZ, JOSELYN SARTE                                  10502
A0101405650000000013054MANPOWER SERVICES                                       20500
A0601400100000000141966REGULACION, JACK                                        20500
A0101407690000000154750BARANGAN TRADING                                        20500
A0201400760000000222853OR GO, IVAN GAN                                         20500
A0101412210000000238533AVRAMENKO, IRYNA                                        20500
A0101412050000000367891JAYME, ALEX ESPULGAR                                    20500
A0601400100000000786585CELECIO, ROSITA                                         20500
A2401400180000000826288DAD. DAKSON'S TRADING                                   20500
A0101407690000000913746& CONSTRUCTION SERVICES                                 20500
A0101407690000000913746& CONSTRUCTION SERVICES                                 20500
A0101401700041151383001LIPANA                                                  20500
A0101407270162542118001SANDY M. BAUTISTA                                       20500
A0101400310211157412001LOURDES MORENO                                          20500
A0101400310211276524001ALEJANDRO CARTAG                                        20500
A1001400190231277021002BONGABONG, ARACE                                        20500
A0101406620273280285001RAFAEL / ROWENA                                         20500
A0101402060351604435001MARITES B.                                              20500
A5501400120410650364008HELEN                                                   20500
A1201400150421539011001E.                                                      20500
A1201400150421685972001JUCUTAN, ROMMEL                                         20500
A0101403320471400801001OR DENNIS MICHAE                                        20500
A0101406330472206499001LUZDIVINA H. GERONIMO                                   20500
A0501400170481717828001TAN, NATHALIE I.                                        20500
A2201400250561315662002RICHARD S. TARRONAS                                     20500
A2201400250561484428001EDUARD LAO SIO                                          20500
A0101407690652046778001TRADING AND HAULING SVCS                                20500
A0101407690652478374142SHOECAT, INC.                                           20500
A0101407690652525001081SHOECAT INC.                                            20500
A4101400420814342398001OR JIMENEZ, RONALDO C.                                  20500
B0201400920000000007930SERMINCA FURNITURE INDUSTRIES, INC.                      1603
B0101407270000000010180COUNTRY CHATEAU HOTELIERS CORPORATION                    1602
B1001400350000000017132FLR INDUSTRIAL MARKETING                                 1601
B0101409050000000022562ULTRAPAVE DEVELOPMENT CORPORATION                        1605
B0101409050000000022595EM CUERPO INC DANILO IBAY AND ASSOC                      1602
B0601400360000000025772CLERMONT PHARMACY AND GEN. MDSE. CO                      1602
B0101401670000000178563TOTAL LINK PROMO SERVICES, INC.                          1601
B0101410300000000191542*********                                                1601
B0201400760000000222762UY, JOHN CHIU OR JOHN JEFFERSON UY                       1605
B0101402640000000567168CINCO ESTRELLAS MEMORIAL CHAPEL, INC.                    1602
B1301400340000000926892ROTARY CLUB OF MEYCAUAYAN JEWELS                         1601
B0101400860000001005398**********                                               1603
B0601400100081039107001REPLICAS MARITIME & AVIATION MODELS INC.                 1602
B0101407270162024558001HIGHWORTH ENTERPRISES, INC.                              1605
B0101407270162027451001STRATEGYWISE BUSINESS CORP.                              1605
B0101400310211005640001KUBOTA PHILIPPINES, INC.                                 1605
B0101400310211047354001AMBERTECH CORP.                                          1610
B3101400740224017345001PALMPHIL GARMENTS PHILIPPINE CORPORATION                 1610
B0101406620273216386001CITIMEX, INC.                                            1602
B0101408820333039218001FUNERARIA OCAMPO, INC.                                   1603
B0101402060351009431001RPP SAVINGS AND LOANS ASSOCIATION, INC.                  1603
B0101402060351427156001METRODORM RESIDENCES CORPORATION                         1603
B2401400180411035164001MOMMY GINA TUNA RESOURCES (MGTR), INC.                   1610
B2401400180411042157088ERSONS BUY & SELL AGRI-PRODUCTS                          1610
B2401400180411044838088DAVAO MULTIBUILD CORPORATION                             1605
B0101406330472037043001STO. NINO PARISH                                         1603
B0501400170481018109001*********                                                1601
B0101403580511005154001MANABAT SANAGUSTIN & CO., CPAS                           1620
B0101403580511005607002RAM FOOD PRODUCTS, INC.                                  1602
B0101403580511027603003K.S.T. PROPERTIES, INC.                                  1601
B0101403580511575114002TIGER 22 MEDIA CORPORATION                               1610
B0101408110515036613001DASECO-AIRE TECHNOLOGIES INCORPORATED                    1601
B0101403610531044823001WELLSPRING OF GRACE SCHOOL, INC.                         1602
B0101403610531706312001MEDCARE HEALTHLINE INC.                                  1601
B1301400210682012687001DJ PARADISE RESORT, INC.                                 1610
B0101408240711026617001TOKYO HEALTHLINK, INC.                                   1602
B4101400390813036443001JINHOEMB CORPORATION                                     1602
B0101404840851013980002VIC IMPERIAL APPLIANCE CORP.                             1601
B0101410690000000710723ZULUETA, CHARISSE CASTILLO DBU CACHA                    11601
B0101401700041192799001ZFG REFRIGERATION & AIR CONDITIONING                    11601
B5501400120410275634002BAUTISTA, RYAN REYES OR PIODOS                          11603
B0101403580511697760002SUNNYBING INTERNATIONAL TRADING                         11602
B0101410690000000710723HEALTH SPA SVCS                                         21600
B0101401700041192799001SERVICES                                                21600
B5501400120410275634002EMARIE LEE                                              21600
B0101403580511697760002CORPORATION                                             21600
