A0101400730000000112881GUTIERREZ, DOMINICA DALISAY                              0501
A0101408530000000136303CUENCA JR., RODOLFO SANTOS                               0503
A0101411400000000230195CRUZ, VICTORIA GARCIA                                    0502
A0101402060000000358612PACIFICO ERIC E. CALDERON MD                             0501
A0101408110000000380016********                                                 0502
A0101404420000000471965QUE, WIE BENG CIRO                                       0503
A0101408820000000713222MARILYN PANCEPANE                                        0502
A0101412470000000853834**********                                               0501
A3401400280000000972830BAYHON JR., REYNALDO BALLE                               0501
A0101410140000001074680FELLORES, GIANFRANCO JARUDA                              0501
A4101400260000001198836JAPZON, GINA ASAYTUNO DBU GREEN                          0501
A0101413600000001430620JULIO CESAR R. AGUILUZ                                   0501
A0101402350000001474197ATIENZA, ARLENE BETIONG                                  0501
A0101405940000001534316RIVERA, ROWELL CRUZ                                      0501
A0101411240000001563402ORTIZ, CARLO A.                                          0501
A0101407270000001596810CHARL LESTER E. QUIJANO                                  0501
A0101407270000001596967LORNA D. GARCIA                                          0501
A1101400120000002254822NABAUNAG, LEONORA FUENTES                                0503
A0101413020000002292782TAN, JOSELINDA CASTILLO                                  0501
A0101411400000002420246ISIP, ANNA MARIA MENDOZA                                 0503
A0201400890000003064833***************                                          0501
A0101400860011495810001**********                                               0501
A0101400860011504377002**********                                               0503
A0101400860011511921001**********                                               0501
A0101400860011515790001**********                                               0501
A0101400860011548430001**********                                               0502
A0101400860011663274001**********                                               0502
A0101400860011774650001**********                                               0502
A0101401250021476357001CATHERINE GO UY                                          0501
A0101411370022774052001MARISSA M. RAMIREZ                                       0503
A0101400150061227393001MERCADO, NERISSA C                                       0502
A0101400150061511407001GONZALES, PAUL WILLIAM MOJICA                            0501
A0601400100081682828001REGULACION, JACKQUILYN ALIM                              0503
A0101406040112032156001JUNEMIES CARGO SERVICES                                  0502
A0101400440161459294001MARY ANN T. REGINALDO                                    0502
A0101407270162525378001JOSEPH HENRY MIKO JECONG                                 0501
A3101400160221478374019MIRIAM M. MIRABUENO                                      0501
A3101400450223320762001DRA. NATIVIDAD CARIAGA                                   0502
A1001400190231520766125YANA, MAYFLOR DAGOC                                      0501
A0101402350321086855001SUSAN M. SANTOS                                          0502
A0101402350321180119001SHERENA O. PARUCHA                                       0501
A0101402350321478374017RIZA G. SANTOS                                           0503
A0101402350321478374050JESUSA G. CAYLAN                                         0501
A0101402350321478374058DELA CRUZ, MERLITA GABON                                 0501
A0201400890376038937002ECB TRADING                                              0505
A0101402770391364535001ESPE, EDITHA ENRIQUEZ                                    0503
A3801400170490088864001JOSEPHINE I FAUNILLO                                     0501
A0101403450521791474001********                                                 0501
A0101407720602282918001ODULIO, ORSON VASQUEZ                                    0501
A0101407720602401438001JUANCHO ALFREDO DAEL LAS                                 0501
A0101407720602470788001ISIDRO, MARIA JOCELYN CAPULI                             0502
A0101407720602780335001ABAYA, MA. LUZ VIRGINIA SUNTAY                           0501
A0101404260611491692001EDGARDO M BALANI                                         0502
A0101404420631478374101ROGIE M. LORDAN                                          0502
A0101407690652554052005ALCANTARA, MICHAEL QUIGLEY                               0502
A0101407560686047224001RAMA SECURITY AGENCY                                     0501
A4101400260812041334001M.B. JIMENEZ RICE DEALER T                               0505
A4101400260812469791001CAROL E. COMIA                                           0502
A0101404840851520766189DIAGO, MARY JANE                                         0501
A2201400250000000141200NOEL M. ESPINOSA DBU N.M                                10501
A0101412340000000224046VERDERA, TERESITA R. OR                                 10501
A0101412340000001017532CORPUZ, GERRY DEL MONTE OR                              10501
A0101402350000001474379SINGZON, ANA LIZA CASES DBU                             10501
A0601400520000001706929VELASQUEZ, JERRY B. DBU                                 10501
A1901400160000001718054MA. NEMENCIA L. TAN OR                                  10501
A0101407690000001919899DE LEON, LIADENETH - DEALERS OF                         10501
A1101400120000002254800CU, WILSON CHAN OR                                      10505
A3101400870000002327993MONDEZ, MARIA ESTEFANY AYRA                             10501
A1301400470252428900001JUAN NEPOMUCENO OR                                      10501
A0101400570281740687001ANA LIZA L. ONG OR                                      10501
A0101402350321179301001PABLO PEFANCO OR                                        10501
A0101402350321228243002GARCIA, CASIMIRO A. OR                                  10501
A0101402350321597544001ROBERTO T. ARSITIO OR                                   10501
A0101402770391211586002DOMINADOR DEVEZA OR                                     10501
A1901400160491422212001OLIVER B BORILLO OR                                     10502
A1401400110492442437001JOHNY R. RALA OR                                        10501
A0101407690652037480002U.L. SOMIDO BUILDERS &                                  10501
A0101407690652443413002JUN M. BARREDO OR                                       10501
A0101407690652478374120ELENITA BOQUE- DEALERS OF                               10501
A0101407690652520766022ELVIE GALENDEZ - DEALERS OF                             10501
A0101407690652609264001DE JESUS, AUGUSTO OR JOSE MARIA                         10504
A0101408240711396778001MA. FRANCESCA ROMANA OR                                 10501
A4101400420814768923001VIRTUZ, SALVADOR ABAQUITA OR                            10502
A0101406750852184574001DELA ROSA, DANILO V. OR                                 10501
A2201400250000000141200ESPINOSA CONSTRUCTION                                   20500
A0101412340000000224046VERDERA, ALBINO S.                                      20500
A0101412340000001017532CORPUZ, IMELDA DELA CRUZ                                20500
A0101402350000001474379HYDROSYSTEM TRADING                                     20500
A0601400520000001706929OGGOMOTION AUTO SERVICES                                20500
A1901400160000001718054RONABELLE L. TAN                                        20500
A0101407690000001919899SHOECAT INC.                                            20500
A1101400120000002254800CU, ALBERT CHAN                                         20500
A3101400870000002327993ROMERO                                                  20500
A1301400470252428900001SILVIA NEPOMUCEN                                        20500
A0101400570281740687001IGNACIO B. ONG                                          20500
A0101402350321179301001ERLINDA PEFANCO                                         20500
A0101402350321228243002GARCIA, MARIA TERESA I.                                 20500
A0101402350321597544001LUVIZMINDA L. ARSITIO                                   20500
A0101402770391211586002FAUSTA DEVEZA                                           20500
A1901400160491422212001MARIBEL C BORILLO                                       20500
A1401400110492442437001MARIBETH D. RALA                                        20500
A0101407690652037480002INDUSTRIAL SALES                                        20500
A0101407690652443413002MIRIAM V. BARRED                                        20500
A0101407690652478374120SHOECAT INC                                             20500
A0101407690652520766022SHOECAT INC.                                            20500
A0101407690652609264001OR MILA                                                 20500
A0101408240711396778001PHILIPPE SEYER                                          20500
A4101400420814768923001VIRTUZ, REBECCA                                         20500
A0101406750852184574001DELA ROSA, VILMA                                        20500
B1601400170000000036080HML FOODS CORPORATION                                    1605
B0101413310000000040024LIBERTAD TRADING CORPORATION                             1601
B3101400870000000074899BALITE, G DBU BTG BUILDERS & SUPPLIES                    1602
B0301400790000000435705REFCON SYSTEM NETWORK SOLUTION, INC                      1610
B0101409920000000437001BELTRAN, RA DBU MJR2 PRINTING SERVICES                   1603
B0101407560000001276284GCM PHARMACEUTICAL DEALER                                1602
B0801400160000001289829PANAY MEDICAL VENTURES, INC.  PMVI                       1601
B0101411530000001393653**********                                               1601
B0101400150000001708345SKIN SCIENCES LABORATORY, INC.                           1605
B0101400150061009769001KEYLAND CORPORATION                                      1605
B0101401830141028161001EXTERMICON GENERAL SERVICES, INC.                        1603
B0301400530193041929001NEW CORELLA AGRICH MARKETING CORP.                       1601
B0101407140213018857001FEDCHEM MARKETING CO., INC.                              1605
B3401400280318044735001A & T SANTOS INCORPORATED                                1603
B0101402350321035857001MOBICAR TRADING CORPORATION                              1602
B0101402350321738079001OLIVAREZ GENERAL HOSPITAL INC.                           1610
B0101405650322023520001ACES CHASSIS LEASING INC.                                1602
B0201400920375045372001LIGHT UP ELECTRICAL SERVICES, INC.                       1602
B0101406880513039126001BLUE MAGNET MARKETING SOLUTIONS INC                      1602
B0101403450521239481001**********                                               1602
B0101404000551005023001MECHANICAL HANDLING EQUIPMENT CO., INC.                  1620
B0101404420631542146001GERONIMO, SANTIAGO NICOLAS JT                            1601
B0101407690652043835001********                                                 1602
B0101406750852524031001MARY IMMACULATE PARISH MEDICAL SERV                      1601
B0601400230891039268001GOLDIE PLUS LENDERS, INC.                                1605
B0101401830141029955001SHELL EMPLOYEES MULTI-PURPOSE COOP. -                   11605
B0101401830141029955001STORE                                                   21600
