A4101400260000000002142TAJANLANGIT, JACKIE C.                                   0501
A3101400740000000013845REYES, ROBERT ZAMORA                                     0501
A0101400440000000029434VITRIOLO, JERVIE DELA CRUZ                               0501
A5001400170000000045138UY JR., ROBERTO TAN                                      0501
A3101400870000000074844ROA, ROSEMARIE JUNDOS                                    0501
A0101413150000000082700******                                                   0501
A1701400230000000097778TABALBAG, ROD STEVENSON AMBIDA                           0501
A0101411660000000109300WILFREDO M. PADILLA                                      0501
A0101400150000000253461CAYABYAB, EDNA ESCOBER                                   0502
A0101414090000000399366LEYSON, EMILY JANE LABUSON                               0501
A0101406330000000451307REYES, JOSEPH LEYVA                                      0501
A0101406330000000451318ZAPANTA, TIM ALEXIS B.                                   0501
A0101410140000000499032V-COPY DUPLICATOR SERVICES AND                           0502
A0101400150000000525422ORDIZ, ARLENE CASTILLO                                   0501
A0101404260000000532238BONGCAYAO, SUSANA GARINO                                 0501
A1301400210000000540743JONEL MAR S TRINIDAD                                     0501
A0101410300000000592121*****                                                    0501
A0101411660000000751159RAZZEL U KAMEI                                           0501
A0101410850000000778769FABREGAS, VIRGINIA ALEJANDRO                             0501
A0101400150000000807658LAO, GLENN BENEDICK CHENG                                0501
A0101400150000000807692GATTOC, GULLIVER CORPUZ                                  0501
A0101401830000000865050URGINO, MARIA CARMENCITA GATCHA                          0501
A0101413280000000878479MARIONE KHAYIM YAWFE T. DETITA                           0501
A0101409050000000939226CRESCINI, JEFFREY CLARK LARIN                            0501
A3101400870000000957882ANGELES, DONNA CIELO MALEON                              0501
A3101400870000000957906VENTANILLA, Y DBU VONS BARBERSH                          0502
A0101410720000000968009MADAMBA, MA IMELDA LUCILA SARAN                          0501
A0101410720000000968021CAPARROS, MARY MARJORIE CHUA                             0501
A4101400390000000975026SOSA, ARLENE VERSOZA                                     0501
A4101400550000000981773LOZADA, GINA BARRUN                                      0501
A4101400550000000981784PRUDENCIO, EILEEN LOURDES ELIZA                          0501
A0601400230000000990023BOGNOT, ANSELMO CADIANG                                  0502
A0101407430000001028813AGUILA, SUNNY DONGON                                     0505
A0101408240000001038664ACEPCION, VAN LESTER DOLOR                               0501
A0101408240000001038675MONFORTE, RAQUEL SOTTO                                   0501
A1001400190000001057374PERPETUA, MARK BOLOTANO                                  0501
A0601400230000001062377EUSEBIO, ARVIN VIRAY                                     0501
A0101413150000001067141******                                                   0510
A0501400170000001072731ABCEDE, JORRECA DE PERIO                                 0502
A0101410140000001074566EDORIA, LEONEL TRINIDAD                                  0502
A0101410140000001074577AURELLANO, SAMUEL BUEZA                                  0501
A0601400520000001120341ANGELES, LAARNIE DIZON                                   0501
A5501400120000001121708CABANG, CLAVEN JOY PACACO                                0501
A4101400260000001134941TABOGON, CLEOFE LLAMERA                                  0501
A0101401830000001140101BLANCO, ROSALIE NAVARRETE                                0501
A0101406330000001235078HENARES, RONALD CHAVEZ                                   0501
A0101409210000001294322MONTARDE, JESSIBELL BORJA                                0501
A0101413600000001430539GONZALES, MARIA JASMINE TINAWIN                          0501
A0101401090000001611267RESTITUTO D. LLAMAS                                      0501
A2001400290000001694168GAMALINDA, MAGNOLIA ESPINA                               0501
A0101401700041429657001RARALIO, GAY AGATEP                                      0502
A0101401700041536306001TAGO, JASPER LUCERO                                      0502
A0101400730111393421009MARGARITA P. ESTEBAR                                     0504
A0101400730111643287002GUETA, LORETA ORSAL                                      0502
A0101407270162086660001******                                                   0503
A0101401090171198388001FELICITAS E. PONCIANO                                    0501
A0101407140213194144001**********                                               0501
A3101400740224640265002YQUIN, EVELYN BESA                                       0502
A1001400190231478374109BONGCALES, JOYCE G.                                      0501
A1001400190231520766042GEOTORO, INES MANGUILIMOTAN                              0501
A0101405650322290433003VILLANUEVA, MYLENE MERZA                                 0503
A0101408820333478374062SANDRA G. BUENO                                          0501
A0101408820333478374066HAZIDEN P. CAGUIA                                        0501
A0101402510341373015001MALAPITAN, MARRIANE CAPARROSO                            0501
A0101402510341601152001SORIANO, ROSARIO PLACIDO                                 0510
A0101402060351217440018MARY EVELYN C. CHEN                                      0501
A0101402060351217440026CARLOS III, MENELEO G.                                   0501
A0101409050352621170001**********                                               0503
A0201400760374327615001MANIQUIS, MA. CELESTE MARTINEZ                           0502
A0101408370382392588002DR. CECILE S. CASIMIRO                                   0505
A0101408370382683747001MARIA THERESA M. NATIVIDAD                               0502
A0101402770391187974003DARWIN DEE PONA                                          0501
A0101402770391211308001*********                                                0505
A0101402770391476396003MA. LOURDES O. MAGSINO                                   0503
A0101405490392405331001FELOMINA S. SEBALDA                                      0502
A0101405490392478374012MARIVIC R. ALIPORO                                       0502
A5501400120410787960001TANTERAS, EDWIN MONTEJO                                  0502
A0101403320471570181001EMMA R. LIM                                              0502
A0101406330472212402001ARTEMIO V. DEL ROSARIO                                   0505
A0101406330472478374020SHERLY MONDELO                                           0502
A0101406330472492145001LEILANI B. ZAPATA                                        0502
A1901400160491247764001MARITES E RAMIREZ                                        0501
A1401400110492429565004SANTOS, WILFREDO GASPAR                                  0501
A1401400110492435888008*********                                                0501
A0101404000551325019001***                                                      0502
A0101407720602241314001**********                                               0502
A0101407720602398588001GARCIA, JOSEFITA AZCONA                                  0502
A0101404260611151882001NATIVIDAD B. TALUSAN                                     0501
A0101409890649747582001ASIS, NELSON LAZADA                                      0510
A0101409920650478374008DAVID M. ESPARTERO                                       0501
A0101410720653175534001ARAMIS OR CARMENCITA AGUILAR                             0505
A0101406590662034547001F.C. DINO CONSTRUCTION                                   0501
A0101410300663776849001******                                                   0502
A1301400340683484839001CAPULE, JANICE ARRADAZA                                  0501
A1701400230693478374013ZENAIDA M. FERRERAS                                      0502
A2801400230713096226001SUSI, EMILY SIBUG                                        0502
A0101406750852022181001DATHAN ENTERPRISES                                       0501
A0101406330000000683216MASCENON, ALEXANDER BENEDICT                            10501
A3101400870000000957655BITHAO, C DBU BP-1 CAR AUDIO                            10502
A4101400390000000975037FIGUEROA, MARY ANNE DBU CIUDAD                          10501
A0101405490000001092524MA ANASTACIA S. DELA MERCED OR                          10502
A2201400250000001545400EBARDO, JO BERT SARMIENTO  OR                           10501
A0101400150061227953001MA. DYMPHNA U. RAYMUNDO OR                              10501
A0101400730111403905001MONTERDE, ARNEL MORA OR                                 10505
A0101401090171197472001HELEN HIDELITA OR                                       10501
A0101407140213384408001ROSEMARIE S. TOM WONG OR                                10508
A0101402930381384457001LORELLIE TAMPARONG OR                                   10501
A0101408370382685982001MICHAEL JOHN FRANCIS GASTON OR                          10502
A0101406330472540919001MARY CHARLENE VIRAY OR                                  10501
A0101410720653035268002H.S. PASCUAL CONSTRUCTION &                             10502
A0101410720653173054002SARMIENTO, FLOR DE LYS TOMINES                          10502
A0101406590662365707001JOSEPHINE P. VELASCO OR                                 10508
A1301400340683458901001TORRES, RAMONCITO BAISA   OR                            10501
A0101407560686303904002MARIA PIZARRO OR                                        10502
A0101406750852006782001MANSUETO DELA CRUZ OR                                   10502
A0601400230891581499002ANGEL M WIJANGCO OR                                     10502
A0101406330000000683216DE GUZMAN                                               20500
A3101400870000000957655AND ACCESSORIES                                         20500
A4101400390000000975037UPHOLSTERY SUPPLY                                       20500
A0101405490000001092524RAYMOND ANTHONY V. DAYLEG                               20500
A2201400250000001545400EBARDO, CHRISTINE JOY B.                                20500
A0101400150061227953001JOSE S. RAYMUNDO                                        20500
A0101400730111403905001JARDIOLIN, MAJAR                                        20500
A0101401090171197472001ROMEO JOSEPH IGNACIO                                    20500
A0101407140213384408001JULIE S. TOM WONG                                       20500
A0101402930381384457001SONNY FRANKIE TAMPARONG                                 20500
A0101408370382685982001RETSIEL LORRENZ LAZARO                                  20500
A0101406330472540919001ENRICO MERCADO                                          20500
A0101410720653035268002HAULING SERVICES                                        20500
A0101410720653173054002OR SARMIENTO, ALEXANDER                                 20500
A0101406590662365707001ERNESTO U. VELASco                                      20500
A1301400340683458901001TORRES, AILLEEN                                         20500
A0101407560686303904002ANTONIO PIZARRO                                         20500
A0101406750852006782001MARY GRACE DELA CRUZ                                    20500
A0601400230891581499002 MARK M WIJANGCO                                        20500
B0201400920000000048020DONG JUAN CENTRAL CORPORATION                            1602
B0601400520000000398512PAGASA PHILIPPINES LENDING COMPANY, INC.                 1605
B1101400120000000652879TY, WILLIAM LOBRIO OR TY, MARILOU CHU                    1605
B0601400100081253610001WILFREDO M. NG                                           1601
B0101401830141037764001MICHAELJONA TRUCKING SERVICES, CO.                       1602
B0101407270162019056001QUICKSERVE EQUIPMENT & SERVICES INC                      1605
B0101401090171019015001THOMASIAN ENDOCRINE PROGRESS INC.                        1602
B0101401090171019015003THOMASIAN ENDOCRINE PROGRESS INC.                        1602
B0101407140213020890001MELACO ENTERPRISES CORP.                                 1610
B0101407140213034002001LABEL LINE ENTERPRISE                                    1603
B0101406620273031145001KOHL INDUSTRIES CORPORATION                              1603
B0101411240283046060001GRAND STAR GENERAL CONTRACTOR                            1603
B0101405650322041937001TAYLORMADE HAULERS, INC.                                 1605
B0101408820333034334001PINTAKASI TRANSPORT INC.                                 1602
B0101402060351038390001MC SHIPPING CORPORATION                                  1602
B0101402930381516506001I-ASIATIC INNOVATIONS PHILS., INC.                       1602
B0101403320471046464001LEONARDO RINALDI INC.                                    1603
B0101406330472017558002**********                                               1601
B0101406330472367379002********                                                 1601
B0101407430503015295001PC SUPPLIES, INC.                                        1603
B0101405940512030146001CHINO ROCES ESTATES ASSOCIATION INC.                     1601
B0101403450521011657001UPTOWN INDUSTRIAL SALES, INC.                            1610
B0101404000551032957001PCCI FINANCE CORPORATION                                 1605
B0101404000551386046001PERCEPTION GAMING INC.                                   1605
B0101407720602005885001MAXICARE HEALTHCARE CORPORATION                          1601
B0101404260611034715001LAY BARE FRANCHISING CORPORATION                         1602
B0101408240711607502001SANTA CRUZ MINERAL PORT CORPORATION                      1605
B0101402510000000049261GOLDEN AXLE CARGO INTERNATIONAL                         11602
B0101401830141008845001PANDACAN TRANSPORT SERVICE & MULTI-                     11603
B0201400760374249471002COMMONWEALTH INSURANCE COMPANY                          11602
B0101402510000000049261FORWARDING, INC.                                        21600
B0101401830141008845001PURPOSE COOP.                                           21600
B0201400760374249471002-OPERATING FUND                                         21600
