F0101400570281233577001GARCIA, HELEN ONG M.D.                                   2503CKO
F0101401670271356341001FRANCIS C. YU OR                                        12520CKO
F0101401670271356341001FRANCIS GLENN YU                                        22500CKO
F0301400110191047580122MEGA DURIAN MOBILE GROUP, INC.                           2603CKR
F0101401670271047018001BUSINESSCOACH INC.                                       2603CKR
F0101410850000001229710PRODUCERS CONNECTION LOGISTICS                          12605CK1
F0101410850000001229710INC.                                                    22600CK1
