A0101409050000000022420JERGEN B. MACUJA                                         0501
A0101410300000000026531VELHAGEN, MELISA B.                                      0502
A0101402640000000042377EXCERPT ENTERPRISES                                      0502
A0101409210000000043843CHING, CAROLYN QUE PE                                    0501
A0101400310000000140872ARANA, EVANGELYN                                         0502
A0101413860000000145020DASIGAN, ANGELITA GONZALES                               0501
A1301400500000000213185ESCOPETE JR., ORLANDO SANTOS                             0501
A0201400760000000222922PELUCHI ESSENTIALS SPA                                   0501
A0101407690000000243810PAGUIO, ANA CARDENAS                                     0502
A0101408370000000335664DECLINES, NOEL TUAZON                                    0503
A0601400520000000398352OCAMPO, FRANCISCO DE JESUS                               0501
A0101411820000000477076SHERYL P. TAYROS                                         0502
A0101400150000000525488REYES, SHEREL LOU BERMUDEZ                               0501
A0101413990000000631872MONREAL, ESTELITA GUINTO                                 0501
A4101400420000000710392BRAZIL, EVELYN AGBAN                                     0501
A0101412470000000853834**********                                               0501
A0101405070000000868599DE JESUS, DESIREE DELA CRUZ                              0501
A0101408400000000960316ROH, HAEGWANG                                            0501
A0101413990000000969257SAPITAN, RUBY TIONGSON                                   0501
A0801400160000001031387DIMATULAC, NENITA MENDERICO                              0501
A0101404000000001186961BRANDARES, BRIAN OROPEZA                                 0501
A0101404840000001312725GUERRERO, EDELMARIE BOBIS                                0501
A0701400260000001804542***********                                              0505
A0101413860000001886991DELA TORRE, CRISANTO CARDONA                             0502
A0101407690000001919742MACASERO, MARIA FE TANQUE                                0501
A1301400500000002063992JOSHUA & JAMES CONSTRUCTION                              0502
A2401400180000002146367ONG, FE LEAH PACAYRA                                     0502
A6601400120000002249910YRUMA, ALBERT PAJUELAS                                   0505
A0201401020000002250533LIRASAN, LILIBETH ANTIFORTA                              0502
A0101408400000002273172GAMUTIN, AMY DIONORA MUEGA                               0502
A0101412890000002324341TILBE, TARA CAMILLE ARANETA                              0501
A0101400310000002659636AYUYANG, RHODERICK RAMIREZ                               0501
A6601400120000002978041OBAYAN, SAMUEL DATO                                      0503
A0101412340000003345093ROGELIO A. PANGANIBAN JR.                                0501
A0101409050000003533515TY, RICA ALABADO                                         0501
A0101409050000003533593BERONILLA, BRYAN                                         0501
A0101409050000003533639INFANTADO, MA. ANTONETTE                                 0501
A0101405490000003633101CARLO ANGELO P. BUGIA                                    0502
A0101405490000003633112KRIZELLE MARIE B. TOSE                                   0501
A0101400310000003823921BORJA, DAISY JABLA                                       0501
A0101409180000003866677WITTIG, LARS BENDSON                                     0501
A0101409210000003898444CRUZ, MA CLARA                                           0501
A0101400860011056078001LAI, PAUL RICKY DBU L.B.C.I.                             0501
A0101400860011388186002TAN, MYRNA MENDOZA                                       0504
A0101400860011431807001**********                                               0501
A0101400860011465021001**************                                           0502
A0101400860011514409001**********                                               0503
A0101400860011541134002**********                                               0502
A0101400860011559995001**********                                               0503
A0101400860011634071001**********                                               0505
A0101411080042759548001 *****                                                   0502
A0101400150061226656001EVYLENE C. SISON                                         0501
A0101400150061396165001SANTIAGO, MA. SOCORRO SANCHEZ                            0502
A0101400600071233721001**********                                               0502
A0101400600071234544002CHOW, ALICIA CHUA                                        0502
A0101400730111325179001HILARIO, EDIVINIA SUNGA                                  0501
A0101400730111412858010LOLITA MANALO                                            0503
A0101400440161039572092JOSEFINA R. JONES                                        0501
A0101400440161459294001MARY ANN T. REGINALDO                                    0502
A0101400440161525001033MARY JANE V. MACALINAO                                   0501
A0101400440161525001159MARITES P. MONTALBAN                                     0502
A0101401090171198150001FR. ERMITO G. DE SAGON, O.P.                             0502
A0101401090171653434001SANDAGON, MARISSA DIFUNTORUM                             0501
A0101401380201500598001CARREON, DAISY FONG                                      0501
A0101400310211017809002JAZMED ENTERPRISE                                        0503
A0101400310211044313001EXICON CONSTRUCTION SUPPLY                               0501
A0101400310211295755005******                                                   0501
A1001400190231478374067DAGANATO, NICANORA BALOS                                 0501
A1001400190231520766112ALIBIO, NELYBETH TACBOBO                                 0501
A0101406620273403501001BASA, CATHERINE VIRAY                                    0501
A0101400570281337026001FILIPINAS F. NATIVIDAD                                   0501
A0101400570281442475001AQUINO-AQUINO, PRUDENCE VALERA                           0501
A2601400270302510455001MARIBEL L. DELA CRUZ                                     0501
A2601400270302591563001ROSITA R. CHE                                            0501
A0801400160311478374079MANUEL F. RAGANAS JR.                                    0502
A0801400160311518786001TIU, EUGENE CHUA                                         0503
A6601400120314700866001VILLACORTES, MYLENE SOMBRERO                             0506
A0101402480331345833003****************                                         0502
A0101408820333042004001********                                                 0502
A0101402060351495895002ARCEO, FLORDELIZA CHAVEZ                                 0501
A0201400920375039398001QCS PHILS. - CONSULTANCY & TRAI                          0505
A0201400890376522560001SU, SEYMOUR UY                                           0501
A0101408370382492557001DR. PETER SIMON R. JARIN                                 0502
A0101408950396567208001MA. CONCEPCION L. CRUZ                                   0504
A0101408950396622136001MICHELLE VERGARA DELA CRUZ, M.D                          0503
A0101409180397621225001GAQUIT, ANNA LIZA BELTRAN                                0501
A2401400180411042912088QUISHA FOODS                                             0501
A2401400180411478374059ANALITA R. SUICO                                         0501
A1201400150421351199003DALANGIN, MIRIAM AQUINO                                  0501
A0101406330472763761001MONTALLA, MARGARET ROSE TAYAG                            0501
A0101406330472780167001AGNES D. CHUA                                            0502
A0101407430503478374017RIC L. ABADIANO                                          0502
A0101403450521649009001*************                                            0501
A0101407720602396823001DR. RAQUEL M. ALVAREZ                                    0504
A0101404260611150915001ANGELINA L. MANABAT                                      0501
A0101404420631386485013LILIBETH BAMBA                                           0501
A0101407690652207358001ARIEL OR GEMMA BALATBAT                                  0503
A0101407690652474247001**********                                               0503
A0101407690652513136001GUINTO, ROSARIO OR WINSTON                               0502
A1701400230693478374040BAGAOISAN, DRIANITA CABANILLA                            0501
A0101408240711180164001TUPAZ, CORAZON RONQUILLO                                 0501
A0101408240711528457001CUERVA, ISABEL BECK                                      0501
A4101400260812566629001JESSICA G. ROSARIO                                       0501
A4101400260812659408001CHRISTIAN CARL S. ULAN                                   0501
A4101400260812761967001PANGILINAN, MANUEL ESPIRITU                              0503
A0101406750852043541001GRAFIX VENUE ENTERPRISE                                  0502
A0101406750852478374117IDA MACARO                                               0501
A7201400170000000040564TUMANDA, EDUARDO BULATETE OR                            10501
A0101406590000000131648LUNA, ROY ANTHONY CAPISONDRA OR                         10501
A0101413860000000145008GALICIA, MARY ANN GONZALES JT                           10501
A0101406330000000162616LAND OF THE PROMISE TRUCKING                            10505
A4101400550000000506814DALAGAN, CATALINO B. OR                                 10503
A0101412340000001017532CORPUZ, GERRY DEL MONTE OR                              10501
A5501400120000001121800LADARAN JR., JOSE BINOLA                                10501
A0101411240000001563468ENRIQUEZ, FRANCIS XAVIER GARCIA                         10501
A0601400520000001706827TANGLAO, MARIA CECILIA T.                               10501
A0701400260000001804502DEL BARRIO, DBU JR-JANNA                                10510
A0101407690000001919822REBANGCOS, ESTELA - DEALERS OF                          10501
A0101407690000001919902OSTREA, MARILOU DBU M. ZOILO                            10501
A0101401090171520604001CARMELITA OR JULIUS DALUPANG                            10502
A1001400190231040264001WESTBOUND PETRON                                        10502
A0101400570281186594001MA LUISA YU OR YU PEK KIAN OR                           10501
A6601400120314622580001SOSING, CAROL O. OR FELIPE A.                           10505
A0101409210398047601001LAMONTE, E DBU YOB AND ERIN                             10501
A2401400180411478374061JUNRES AGAD OR                                          10501
A4101400390813046750001MARQUEZ, MELANIE DBU LEIYHZ                             10501
A4101400420814506413001IBIAS, JOSEPHINE OCAMPO OR                              10501
A7201400170000000040564TUMANDA, NANETTE AMISCUA                                20500
A0101406590000000131648LUNA, WENDY CASIDSID                                    20500
A0101413860000000145008DAVID, ERLINDA                                          20500
A0101406330000000162616SERVICES                                                20500
A4101400550000000506814DALAGAN, TERESITA S.                                    20500
A0101412340000001017532CORPUZ, IMELDA DELA CRUZ                                20500
A5501400120000001121800OR LADARAN, LANI                                        20500
A0101411240000001563468OR ENRIQUEZ, CARMELITA M.                               20500
A0601400520000001706827OR TANGLAO, VICT                                        20500
A0701400260000001804502KAKANON BIKOL RE                                        20500
A0101407690000001919822SHOECAT INC.                                            20500
A0101407690000001919902TRADING                                                 20500
A0101401090171520604001OR ZENAIDA MALANTIC                                     20500
A1001400190231040264001SERVICE STATION                                         20500
A0101400570281186594001DAWN ISOBEL OR M                                        20500
A6601400120314622580001OR CAROLYN O.                                           20500
A0101409210398047601001GLASS ENTERPRISE                                        20500
A2401400180411478374061NORMELITA BLANCO                                        20500
A4101400390813046750001TRADING                                                 20500
A4101400420814506413001IBIAS, SEGISMUND                                        20500
B0101413860000000145286SEA BREEZE LAUNDRY CO. INC.                              1604
B0101404260000000156972PRIME POWER MANPOWER SERVICES                            1650
B0101411400000000230220LA SALANGANE, INC.                                       1601
B0101407690000000243832IDESCO CONSTRUCTION AND DEVELOPMENT CORP                 1601
B0101407690000000243843IDESCO CONSTRUCTION AND DEVELOPMENT CORP                 1601
B0101407690000000243963TUBAO MINI-HYDRO ELECTRIC CORPORATION                    1601
B1201400150000000473392ETCC REALTY & DEVELOPMENT CORPORATI                      1602
B0101405940000000886740IMMERSIVE MEDIA, INC.                                    1605
B0101411400000001280591GIONYX TOTAL BEAUTY INC.                                 1602
B0101411400000001280604PHILIP & TINE LIFESTYLE CO.                              1601
B0801400160000001289921ULTRADE PHIL. SERVICE CORPORATION                        1602
B0101400310000001621669GOLDWARE ESSENTIAL PRODUCTS CORP.                        1601
B0101413860000001767962COURT OF APPEALS CREDIT COOPERATIVE                      1610
B0201400890000002027903GLOBAL REV GEN PTY LTD                                   1601
B1001400190000003672695SY, STEPHEN                                              1601
B0101400860011305536001**********                                               1601
B0101400150061027839001ROSCOR                                                   1602
B0101400150061046332001M-POWER SERVICE SOLUTIONS INC.                           1601
B0101400600071396921001**********                                               1605
B0101400600071516450001********                                                 1601
B0101400310211027982001SAN FRANCISCO MIRROR CORPORATION                         1602
B0101400310211034256001KAPIANS VENTURES INC.                                    1602
B0101400310211038408001SALAROSO METRO SUITE                                     1602
B0101400310211612679001CLASS ASIA CORPORATION                                   1604
B3101400450223365119003VICTOR HUGO ENERGY CORPORATION                           1601
B2601400270302000819001COMMON WEALTH RURAL BANK, INC.                           1602
B0201400760374037583002..........                                               1605
B0101405490392052350002NORTHSHORE HARDWARE                                      1605
B2401400180411038622002RAK & ACO GENERAL & ALLIED SERVICES                      1602
B2401400180411276067001GAISANO DADIANGAS, INC.                                  1610
B0101403450521011647001**********                                               1603
B0101403450521011738001INDUSTRIAL WELDING CORPORATION                           1610
B0101403450521240030001**********                                               1610
B0101403610531659842002DELAMO LENDING INVESTOR CORPORATION                      1603
B0101404130601513612001JMATERIALS CORPORATION                                   1602
B0101404260611035660001BETERAVIA CREDIT CORPORATION                             1603
B1301400210682030329002ANDAN ENTERPRISES, INC.                                  1602
B4101400260812012643001KUM KANG CERAMIC PHILS. CO., INC.                        1606
B1601400170000000036013MULTI-TECH INDUSTRIAL AND ENGINEERING                   11602
B0101407690000000243974NAGUILIAN MINI-HYDRO ELECTRIC                           11601
B0101402060000000653827EUSTYLE OF LINES, SOLUTIONS AND ARTS                    11601
B1201400150421017756001KEYSTER PARTS AND GENERAL                               11601
B1601400170000000036013SUPPLY COMPANY                                          21600
B0101407690000000243974CORPORATION                                             21600
B0101402060000000653827(E.L.S.A), INC.                                         21600
B1201400150421017756001MERCHANDISE                                             21600
B0101418520003002000029**********                                               2005
