F3101400320222040700001RODRIGUEZ, RAFAEL ESCOBAR                                2501CKO
F0801400160311368868001CAROLINE Y. TIU OR EDGAR C. TIU                          2504CKO
F3201400190000001493803CECILE Y. YAGO OR                                       12501CKO
F4101400260812478302001CHITO Y. OLBIDO OR                                      12505CKO
F3201400190000001493803ISAGANI Y. YAGO                                         22500CKO
F4101400260812478302001AGNES C. OLBIDO                                         22500CKO
F0101403580000000214713OFFICE ESSENTIALS SYSTEM FURNIT                          2605CK1
F0101403580000000214720TRENDS AND CONCEPTS TOTAL INTER                          2605CK1
F0101406620000000962465TOP TIER INNOVATION ENTERPRISES                          2601CK1
F0101402480331020380002**********                                               2610CKR
F0201400210371037287002CORBOX CORPORATION                                       2601CK1
F0101406590662040860001BRAINCHILD CREATIVE SOLUTIONS                           12602CKR
F0101406590662040860001CORPORATION                                             22600CKR
