A0101408400000000077930MARILOU DE GUZMAN                                        0501
A1701400230000000097790ASIS, MARY JEANE PAGUSAN                                 0501
A0101406590000000131706CARRANZA, JANITH BOTALON                                 0501
A1301400500000000213436ROSALINDA P. CASTILLO                                    0501
A0201400760000000222751APOSTOL, ANLIE GO                                        0510
A2401400180000000427985CULLO, KRISTIANNIE LOVE ROSARIO                          0502
A0101405490000000444313BENITO M. LOJO                                           0503
A0101408950000000473001SY, JOSEPHINE ABILAR                                     0503
A0101403580000000509379KENNETH LAURENCE S. TIU                                  0501
A0101407720000000510938MENDOZA, KRISTINE MARAVILLA                              0501
A0101404260000000550069DADIVAS, EVELYN BARREGON                                 0501
A2601400270000000561700MILA R. VALDEZ                                           0503
A0101402640000000567157DIMALANTA, SUSAN ERMINO                                  0501
A3401400280000000784681LUSANTA, EDEN OTON                                       0501
A3401400280000000784692VISTA, LECEL CERILO                                      0502
A0101412630000000801483CABANES, JEANNE BETH LABASAN                             0501
A3101400870000000957780DOMINGO, HEIDI JEAN RECIO                                0501
A1601400170000001068980HERBIE B. AGUAS                                          0501
A0101413310000001073916TORRES, CONSUELO FE CIELO D.                             0501
A5501400120000001121822DOMINGO II, DENNIS GOROSPE                               0501
A0101404000000001187082DECEPIDA, IRENE UMALI                                    0501
A0701400260000001231981SABIDO, CECILE ANG                                       0501
A0101401830000001281885SANTOS JR., LAURO DOCENA                                 0502
A0101400440000001439863MARY JONEN T. GUILLERMO                                  0501
A1101400120000001547268JADOC, MA. ARIELYN PALOGAN                               0501
A0101404680000001617301GABION, MARISSA FORMANES                                 0501
A0101403450000001637885*****************                                        0503
A0101408950000001760607PANDAN, MARIA JANET MAPA                                 0502
A0101402510000002029210AGUSTIN, EDGAR MAGAT                                     0502
A0101412470000002086375NAKPIL, JOSE ANDRES LUCAS                                0501
A0301400950000002252051**********                                               0503
A0101408950000002255370CHIA, CATHERINE ANNE TEO                                 0502
A0101408950000002255472JUNATAS, ANTONINA GAMBOA                                 0501
A0101400150000002671532LORENZO SIXTO T. LICHAUCO                                0501
A0101401700041189475001MARIA LOURDES TAN                                        0505
A0101401700041320114002TAN, MARISSA WONG                                        0502
A0101401700041583996001BORITO, ROGER BRAGAIS                                    0505
A0101400150061564610102VENTURA, CYRENE GYRIL P.                                 0501
A0101400730111334903011SUSANA M. CATIIS                                         0501
A0101401830141209187002PEEJAY JENNIFER G. LAO                                   0501
A0101401830141239325001CRUZ, VERNON CRUZ                                        0502
A0101400440161186934001VICTORIA D. SISON                                        0505
A0101400440161190481001HELEN LEONG OR ROSALINDA LI                              0505
A0101401090171195968001AMELITA C. DEL ROSARIO                                   0502
A0101401090171389017001GACULA, BENNYPAUL PANED                                  0501
A0101401090171534705001ANGELES, ROGELIO FAJARDO                                 0501
A0101407140213235029001**********                                               0501
A0101407140213391129001YU, MICHAEL TAN                                          0501
A0101407140213572701001**********                                               0501
A1001400190231478374179BACAN, JULIET                                            0501
A1001400190231520766128MAGLANGIT, JONIE QUIACAO                                 0501
A0101400570281019045001INTRA TIRE RETREADING                                    0505
A0101400570281186627001GRACE R. BATTAD                                          0501
A2601400270302567227001ROSITA TAN VALLE                                         0501
A2601400270302591563001ROSITA R. CHE                                            0501
A1101400120313549737001YU, RONNIE LIM                                           0503
A2001400290315688009001ALGOPERA, LLOYD GARCIA                                   0504
A0101402350321406149003********                                                 0502
A0101402350321478374023ISUNZA, MARIA ELENA Y.                                   0501
A0101402350321478374059BERNARDITA D. LOPEZ                                      0501
A0101402350321638505001******                                                   0502
A0101405650322174596002VIRAY, MELINDA A.                                        0505
A0201400760374718948001CABALUNA, MARK ANTHONY LACIA                             0501
A0101408370382773323001DR.ERIC GEORGE V. CRUZ                                   0501
A0101405490392499176001ANICIA B. MORALES                                        0501
A0101408950396389054001LUZ, XERES DIMALALUAN                                    0501
A0101408950396664059001REYES, ABIGAIL NOCON                                     0501
A2401400180411564347001LIM, KENNELYN FELISILDA                                  0501
A0101406330472415838001EMALYN P. RANOSA                                         0501
A1401400110492620230001DELOS SANTOS, ENRICO PEREZ                               0504
A0101403580511775206001NILA P. DACANAY                                          0501
A0101403450521237819001**********                                               0502
A0101404000551166600005EVELYN SORONGON                                          0501
A0101404000551605491001BALTAZAR, RAFAEL PAHATI                                  0501
A2201400250561074416001JANNET D. FRANCO                                         0501
A0101407720602384186003SARMIENTO, JOSIERINA YANEZA                              0505
A0101407720602401936001CORDOVA, MA. CECILIA HITOSIS                             0504
A0101404260611478374077LUCIA CAPILITAN                                          0501
A0101404260611478374109ANGELITA SIQUIJOR                                        0501
A0101404260611778918001GARCIA, NATHANIEL CRUDA                                  0502
A0101404420631158414003*****                                                    0501
A0101404420631380458001ELOISA V. DEL MUNDO                                      0501
A0101404420631478374024ROWENA PEPANO                                            0501
A0101404420631478374194REBECCA P MALUBAY                                        0501
A0101409890649087161001DELOS REYES, DANNE LOVELL SAN B                          0501
A0101409920650078985001REYES, ANGELINA BERSABE                                  0501
A0101413440655054550001SOMETHING DIFFERENT BAKESHOP                             0502
A1301400340683361105001DELA CRUZ, ESTER SANTIAGO                                0501
A1301400340683501003001GO, LLOYD CHUA OR CHERYL B GO                            0502
A0101407560686662041001RACHIEL R. CORDOVA                                       0501
A0101406750852046659001LASALA, LOURDES DBU THUNDER SEC                          0501
A0101406460000000021803CO, CEFERINA GO OR                                      10502
A0101409920000000022099DELA VEGA, ANTONIO S. OR                                10501
A0101408240000000521964SARAZA, SHERWIN GLENN GARCIA                            10502
A0101406040000001392018BERNARDO JORGE B. MITRA OR                              10502
A0101411530000001393671SALVATIERRA, RENE ANTONIO OR                            10502
A0101400730000001822646LUMAUIG, C DBU C.D. LUMAUIG                             10503
A0101400440161189640001PEDRO C. PALTING JR OR                                  10501
A0101401090171037662001APS EVENT SAFETY AND                                    10502
A3101400160221322026001ANDRES D. IGNACIO JR. AND                               10503
A1001400190231275288001TAN, ERWIN C.                                           10501
A1001400350233528399003KO, JOSE NELSON AND                                     10502
A0101408370382207011001DRS. GERARD C. AGCAOILI OR                              10502
A0101407430503225389002BRIAN A. PINEDA OR                                      10501
A0101403580511369331001BETTINA YAPTINCHAY OR                                   10502
A0101403450521304368002LIBREA, FARITA S. OR MA. LUISA                          10502
A0101407720602396410001PEREZ, MARTESIO C. OR                                   10501
A0101407720602396607002TENCHAVEZ, PAULINO SINGSON OR                           10503
A0101406590662408363001BUENAVENTURA, ROBERTO OR                                10501
A0101406460000000021803CO, FERDINAND GO                                        20500
A0101409920000000022099DELA VEGA, IMELDA                                       20500
A0101408240000000521964AND BETONIO, EVELYN                                     20500
A0101406040000001392018SHARON LESLIE M. MITRA                                  20500
A0101411530000001393671SALVATIERRA, RINNA                                      20500
A0101400730000001822646AGRI VENTURES AND DEVELOP                               20500
A0101400440161189640001ELIZABETH A. PAL                                        20500
A0101401090171037662001SECURITY SERVICE                                        20500
A3101400160221322026001RICKY A. CUETO                                          20500
A1001400190231275288001TAN, SHEILA C.                                          20500
A1001400350233528399003KO, CHARMAINE                                           20500
A0101408370382207011001MA. THERESA C. AGCAOILI                                 20500
A0101407430503225389002MA. ELENA G. ARAGON                                     20500
A0101403580511369331001PHILIP YAPTINCHAY                                       20500
A0101403450521304368002ANGELICA LIBREA                                         20500
A0101407720602396410001PEREZ, AGNES ESSEM B.                                   20500
A0101407720602396607002TENCHAVEZ, LUZVIMINDA                                   20500
A0101406590662408363001BUENAVENTURA, VANESSAJANE                               20500
B0101406620000000015170AUTOSWEEP POST CORP.                                     1605
B0101412340000000030968TANECA, MERLITA G. AND TANECA, EDDIE S.                  1601
B0101406750000000090708GLOBAL ACCESS FINANCIAL SERVICES, I                      1603
B0101406620000000193964EDUCITY CORPORATION                                      1603
B1001400350000000244357EMILIA REALTY CORPORATION                                1601
B0301400950000000566945BIG Z QUALITY FOODS CORPORATION                          1605
B0101404130000000696259IHUB; CREATIVE RECRUITMENT INC.                          1601
B0101407720000000713160GREEN BEAN ORGANIC COFFEE CORP.                          1602
B0101405650000000772743BF FEDERATION OF HOMEOWNER ASSOCIATION                   1601
B0101400150000001708356TARRIELA MANAGEMENT COMPANY, INC.                        1602
B1401400110000001806986ALPHA CYCLE CENTER                                       1602
B3101400870000003151253DRAKE XYRGICAL INC.                                      1601
B0101401250021185567001STA. CLARA PARISH SCHOOL                                 1605
B0101400150061226498001CYCLOPHIL EDUCATIONAL PROMOTION                          1602
B0601400100081030352001LIVING STONE INTERNATIONAL SCHOOL INC.                   1605
B0101401830141021045001TCTS TRUCKING SERVICES                                   1610
B0101400440161025954001DEX INTERNATIONAL CO.                                    1604
B0101406460272024042002THE ASCENDURE CO. INC.                                   1601
B0101406620273012462001COL FINANCIAL GROUP, INC.                                1610
B0101400570281032931001AMMIRAGLIO INC.                                          1610
B0101400570281041722001DALLAS AUTO SERVICE CENTER, INC.                         1610
B0101402350321006752001LOPEZVILLE HARDWARE                                      1602
B0101402350321046815001CASA DE SEQUOIA-AVILA CONDOMINIUM CORP                   1602
B0101408820333005955003***************                                          1602
B0101402640361006195002JORDAN REALTY INC.                                       1602
B0101405490392039333001CLOSE TIES CORP.                                         1601
B2401400180411032920001GENSAN AURORA AUTO SUPPLY INC.                           1605
B1401400110492500431001STRONG BRIDGES POULTRY FARM INC.                         1604
B0101407430503033837001SKYLOAD INC.                                             1602
B0101403580511024835001SUBASCO OUTFITTERS INC.                                  1601
B0101405940512005329001TRIANON INTERNATIONAL, INC.                              1610
B0101405940512041188001PREMIUM WINE EXCHANGE INC.                               1601
B0101404000551021415001UNITED ROYALE CORPORATION                                1601
B0101404420631405133001*****                                                    1602
B1701400230693035209003OUR SAVIOUR'S FOUNDATION, INC.                           1602
B0101408240711023642001SAM SUNG PHILIPPINES CO., INC.                           1602
B4101400390813045716001LEGEND JANITORIAL & MANPOWER SERVICE                     1605
B0101407720000000885792MG LANTING SECURITY SPECIALIST                          11602
B0101408820000001766732FRANCIS B. LAZARO DBU DKK CALIBRATION                   11602
B3101400870225054761001DE JESUS, T DBU JDT TRANSPORT AND                       11601
B0101407720000000885792AGENCY INC.                                             21600
B0101408820000001766732CENTER                                                  21600
B3101400870225054761001GENERAL SERVICES                                        21600
