A1701400230000000010533SABADO, APRIL MAURICE SILVANO                            0501
A1301400760000000050615SULFELIX, ERIC JASON DE CELIS                            0502
A6601400120000000060493ABELA, LEONITA MIJARES                                   0501
A0101413150000000082620CAI HONGYU                                               0505
A0101406040000000096980********                                                 0501
A1001400190000000124796DAGUDAG, ALFONSO PATRON                                  0501
A0101400310000000140850WENIFREDA N. PALARCA                                     0501
A0201400760000000223134YONSON, EMILIANA OBOD                                    0501
A0101400440000000337524DELA CRUZ, MARY GIN RODILLAS                             0501
A0101408660000000372923MELENDEZ, AIKO SHIMOJI                                   0502
A1201400150000000473512VICTORIA, DON JEFFREY ABIJUELA                           0501
A1201400150000000473523AGWIKING, APOLONIA MANGACCAM                             0504
A0101406750000000480573ACOSTA, GRACE TAMAYO                                     0501
A0101407690000000587833BALLA, DOMINGO BALANA                                    0501
A1001400480000000606819TAN, LYDIA OR TAN, OLIVER                                0505
A0101413440000000702452CORPUZ, CALIXTO VERSOLA                                  0501
A4101400420000000710325MONTALBAN, MARITES SUAREZ                                0501
A0101403320000000735762LORENZO RENAN E. TORRES                                  0504
A0101403320000000736123CASAMAYOR, MARIE ROSS PILAR                              0501
A0101412500000000739646SAGUCIO, BENJIE BUCAO                                    0501
A0101409180000000874619DOMINGO, CARMENCITA ALIMARIO                             0501
A0101403450000000889483*********                                                0503
A0101401700000000890477**********                                               0501
A0101407690000000913699QUIJANO, ERLINDA ANANO                                   0501
A0101403580000000922781GALAURAN, DOMINICK ADOLFO                                0501
A2801400230000000937537THOMAS, JHOANNA BELINGAN                                 0501
A0101404840000000943340ROCILLO, MARIE STELLA ESTRELLA                           0501
A3101400870000000957939ARROYO, ALMA CIELO DE RAMOS                              0501
A0101406620000000962374RED, MARY KENNETH JANE MOYA                              0501
A0101406620000000962385AQUINO, RENJOCHEL ARIGUIN                                0501
A0101413990000000969257SAPITAN, RUBY TIONGSON                                   0501
A0101413990000000969257SAPITAN, RUBY TIONGSON                                   0501
A4101400390000000975048HERNANDEZ, MARICEL VOLUNTAD                              0501
A0101400730000001016471VIOLETA O. SANOY                                         0501
A0101412340000001017690CANDELARIO, ARVIN CUIZON                                 0501
A0101405810000001021183***************                                          0501
A0101407430000001028802GUZMAN, LITA TABUG                                       0501
A0101408950000001039401MINA, CARMELITA ISAAC                                    0501
A6601400120000001065281ECHALUCE, RAFAEL OR MYRNA                                0501
A4101400260000001134985FERRER, MARITES NARAGA                                   0501
A0301400820000001185848SELGAS, RAPHSEL R.                                       0501
A0101405940000001209927RAMIREZ, RACHELL DIOKNO                                  0501
A0101406460000001231423OCARIZ, ROSARIO LAGAK                                    0501
A3001400130000001271403xxxxxxxxxx                                               0501
A1301400470000001299009NIDA S. AQUINO                                           0501
A0601400520000001349515GOINGCO, RYAN PAUL LINGAD                                0501
A0101413440000001472613FLORES, MAUREEN LAMBINO                                  0501
A0101406750000001491681HORMILLOSA, MARISSA SARACHO                              0501
A2201400250000001545422DAVID, FELIPE ANGELES                                    0501
A0101401700041681821001******                                                   0502
A0101400150061226167001GASPAR R. ANDRES JR.                                     0501
A0101400150061396165001SANTIAGO, MA. SOCORRO SANCHEZ                            0501
A0101405810072353703003GUO, ZHI SHEN                                            0505
A0101405810072461541002**********                                               0501
A0601400360083777458001PARK, SUNG HYUN                                          0505
A0101400730111323005001LAGUNILLA, VIRGILIO JOSE                                 0501
A0101400730111393421012RAQUEL A. STA CRUZ                                       0501
A0101400730111478374120LUIS G. PUNO                                             0502
A0101400730111653912001BALTAZAR, EDWARD RECTIN                                  0501
A0101400440161478374008MARY FE I. REDONDO                                       0501
A0101400440161520766172LUCELLE A. CABUTIN                                       0501
A0101400440161525001005MERLITA L. ALICANTE                                      0501
A0101400440161531101001JOVYLYN D. PASCO                                         0502
A0101407270162333006022REYNALDO E. OCAMPO                                       0501
A0101407270162569405001ALBERTO M. ALVAREZ                                       0503
A0101401090171199148001MA. RHODA C. RECTO                                       0501
A0101401090171297883001CRISTINA C. SAGUM                                        0502
A0101400310211160401001ROBERTO OR MILAGROS MENDOZA                              0508
A0101400310211206649001OCHOCO, DANILO C.                                        0501
A0101400310211339890001INTING, THERESA LEILA ALUNAN                             0501
A0101400310211478374065MARIVIC DELA PAZ                                         0501
A0101407140213408994002**********                                               0502
A3001400130230478374026SONOT, RODERICK AMAHOY                                   0502
A1001400190231478374067DAGANATO, NICANORA BALOS                                 0501
A0101406620273306796008OSCAR B. BIASON                                          0501
A0101406620273360841003ASUNCION, ALEXANDER GOMEZ                                0505
A0101406620273417682001BELDAD, DULCE ESPLANA                                    0501
A0101400570281385805001MARIA ELENA T. LAGNITON                                  0502
A0101400570281417780001JOYCELYN TAN TANZO, D.M.D.                               0501
A1101400120313547700001NICOLASORA, ALMARIE EULOGIA P.                           0506
A6601400120314617951001AGUILANA, ALEX OR LILIAN                                 0506
A6601400120314646593001CUI, ETHEL TAN                                           0502
A6601400120314755333001NAVAROZA, BRYAN VERANO                                   0502
A2001400290315636172001KHO, EVAN HO                                             0502
A2001400290315788888002***************                                          0501
A0101402510341601152001SORIANO, ROSARIO PLACIDO                                 0510
A0201400760374030540001ST. FRANCIS MANPOWER SERVICES                            0501
A0201400760374033157001WISE OWL GENERAL MERCHANDISE                             0501
A0201400760374720031001******                                                   0502
A0201400890376762070001JIMENEZ, MARIA THERESA ALMARIO                           0502
A0101408370382488821001DR. ROSALYN C. SARMIENTO                                 0501
A0101408400394033625002IVAN COMPUTER SYSTEM                                     0505
A0101408400394039740001KAINAN SA STAFFHOUSE                                     0506
A1901400160491659463001GLORIA JARO PENA                                         0502
A1401400110492041611001BLUECLICKER COMPUTER CENTER                              0505
A1401400110492221706002SY, GRACE T.                                             0501
A1401400110492367614001DE MESA, CECILDA LAGAR JT                                0501
A1401400110492549990001**************                                           0501
A0101405940512026524001DAVENNIEL PROMATS MARKETING                              0503
A0101403450521238178001**********                                               0503
A0101407720602196327001NORMANDO C. GONZAGA M.D.                                 0503
A0101407720602343467001HENSON, GERARD FORES                                     0501
A0101407720602581738001DUCUSIN, MA. ANTONINA SUGUITAN                           0502
A0101404420631308161002ROMAN, LEONORA SEVILLA                                   0504
A0101411950680081347001FERRER, ROLANDO ADONA                                    0501
A1301400210682539899001JOYCE B PALENO                                           0501
A1301400340683032453001ST. MARY'S RELIGIOUS SHOP                                0510
A1301400340683478374006******                                                   0501
A0101408240711405662001ARTURO B. DUMAUP                                         0501
A0101408240711512871001MORANO, RENATO OR TERESITA                               0503
A0101408240711718210001DEL ROSARIO, MA. LOURDES PENA                            0502
A2801400230713771317001NACIONAL, NATHANIEL ARZAGA                               0501
A4101400260812035893001SGI TRADING                                              0508
A4101400260812246078001EMILANIE J. ESTOCADO                                     0502
A4101400550815073804002DIAZ, WILFREDO DIPASUPIL                                 0502
A0101404840851478374190MARIE JEAN A. MOLDEZ                                     0502
A0101407690000000025141MEJIA III, MARIANO DBU                                  10503
A0101407140000000446086SY, ALAN MAGNUS NG OR SY, HANS                          10501
A0101400730000000645692ELEGIDO, FELIX ERIA OR                                  10501
A0101412050000000697190RIVERA, TEODO DBU BLAZE EFX                             10501
A0101407690000000913622GUTIERREZ SECURITY &                                    10502
A3101400870000000957917GATDULA, J DBU SIX PENCE                                10501
A3101400870000000957940FARCON, JENYLYN REYES OR                                10501
A0101409920000000998581LOPEZ, SUSANA OR                                        10501
A0601400230000001062399RODA, ZENAIDA GARCIA or                                 10501
A1301400470000001299010GLADYS JEWELRY AND GENERAL                              10501
A1001400350233512624001BARLAAN, DORIS BEDE OR                                  10502
A0101406460272686557001TANWANGCO, ALEX FERNANDEZ OR                            10510
A0101406620273214161001RUTH FLORES OR RICARDO FLORES                           10502
A1101400120313578811001YAP, NYDIA TY OR YAP, ANNA                              10501
A6601400120314714452001CONSEBIDO JR., NAPOLEON O. OR                           10501
A0201400890376633154001JIMENEZ, PETER OR JIMENEZ,MARIA                         10504
A0101408370382206455001DR. RUBEN G. KASALA OR                                  10502
A0101405490392297852001SALVACION C. AREVALO OR                                 10501
A0301400820409093966001CERVANTES, JOSE S.                                      10501
A0101410140475339949001SANTOS, ADORACION SANCHEZ OR                            10505
A0101407720602398166001TAN, HERMAN TAN OR TAN, PIA                             10501
A0101404420631418653001BERATIO, LORENA DAYAO OR                                10503
A0101407690652520766032CRISTINA BAUTISTA - DEALERS OF                          10501
A0101407690652520766032CRISTINA BAUTISTA - DEALERS OF                          10501
A0101407690652525001083TULABING, VIOLETA - DEALERS OF                          10501
A0101407690652643259002DE JESUS, JOSE MARIA AUGUSTO OR                         10502
A4101400390813046750001MARQUEZ, MELANIE DBU LEIYHZ                             10501
A0101407690000000025141MGVM CONSTRUCTION                                       20500
A0101407140000000446086PHILIP NG                                               20500
A0101400730000000645692LEONA D. ELEGIDO                                        20500
A0101412050000000697190EVENTS PRODUCTIO                                        20500
A0101407690000000913622INVESTIGATION SERVICES CO                               20500
A3101400870000000957917TRUCKING SERVICES                                       20500
A3101400870000000957940DE MATA, NENETTE MARCIANA                               20500
A0101409920000000998581LOR, MICHAEL PATRICK                                    20500
A0601400230000001062399MANIO, CRISTINA                                         20500
A1301400470000001299010MERCHANDISE                                             20500
A1001400350233512624001BARLAAN, ALEX E.                                        20500
A0101406460272686557001TANWANGCO, ANDREI M.                                    20500
A0101406620273214161001OR RACHEL RUTH                                          20500
A1101400120313578811001MARIE TY                                                20500
A6601400120314714452001CONSEBIDO, GILBERT                                      20500
A0201400890376633154001THEREZA OR ALAZA                                        20500
A0101408370382206455001DR. MA. CARMELA KASALA                                  20500
A0101405490392297852001EDGAR S. AREVALO                                        20500
A0301400820409093966001OR CERVANTES, CECILE C.                                 20500
A0101410140475339949001SANTOS, MYRNA SA                                        20500
A0101407720602398166001CAROLYN                                                 20500
A0101404420631418653001BERATIO II, LAKA                                        20500
A0101407690652520766032SHOECAT INC.                                            20500
A0101407690652520766032SHOECAT INC.                                            20500
A0101407690652525001083SHOECAT INC.                                            20500
A0101407690652643259002AUGUSTO THEODORE OR MILA                                20500
A4101400390813046750001TRADING                                                 20500
B0101412630000000023872EASTGATE REALTY AND DEVELOPMENT CORP.                    1602
B0101403320000000037567EESC CONSTRUCTION INC.                                   1601
B0101400150000000052662PEG SOUTH EAST ASIA, INC.                                1610
B0101407140000000266211MHA PRINTING                                             1601
B1101400120000000652868TACLOBAN ACME HARDWARE CO., INC.                         1605
B0101402060000000653758RPP SAVINGS AND LOANS ASSOCIATION                        1601
B0101412500000000739704STARSPRINGS INC.                                         1601
B0101412470000000949497**********                                               1602
B0101412470000000949511**********                                               1602
B0101413440000001085610SEASTEMAS INTERNATIONAL, INC.                            1603
B0101400730000001216380ALPHA INSURANCE & SURETY CO., INC.                       1601
B0101401700041527619001Q.C. TOYOCARS MOTOR PARTS CORP.                          1606
B0101400150061000633001PHILIPPINE BANK OF COMMUNICATIONS                        1603
B0101400150061016942006ASIA PACIFIC EXPRESS CORPORATION                         1605
B0101400730111008426001COUNTRY BANKERS INSURANCE CORPORATION                    1603
B0101406040112039150001********                                                 1602
B0101407140213024243001ACT ELECTRONIC CENTER                                    1610
B1001400190231044960001F4J VENTURES, INC.                                       1601
B0101400570281018010001EARLY STEPS SCHOOL CORPORATION                           1604
B2601400270302771764001JOSE T. UY OR AARON CHRISTIAN A. UY                      1602
B0101402060351048004001UNITED DEFENSE MANUFACTURING CORP.                       1602
B0201400760374041858001HELPMATE TRADING AND SERVICES                            1601
B0201400890376051772001GRAN TORO ORO TRADING CORPORATION                        1601
B0201400890376668181001ST. MARK'S RESIDENCIA, INC.                              1603
B0101405490392030959002DIAMOND ROAD INTERNATIONAL CORPORATION                   1601
B2401400180411038345001PHILFRESH CORPORATION                                    1603
B0501400170481025398002****                                                     1601
B0101405940512034259001CENTRAL BOOK STORE, INC.                                 1602
B0101406880513034309001CELLPRIME DISTRIBUTION CORPORATION                       1601
B0101406880513327813001KSY LAND DEVELOPMENT CORPORATION                         1601
B0101408240711023600003HERSAN REALTY CORPORATION                                1602
B0101408240711024238001GEBO CERMEX PHILIPPINES INC.                             1601
B4101400260812039799001LAGAMAYO DENTAL CORPORATION                              1602
B4101400420814043163001VAYAO WAX MANUFACTURING INC.                             1602
B0101404840851009288001CHRIST BAPTIST CHURCH                                    1602
B0101404840851009292001GEMSTAR MARKETING                                        1605
B0101406750852456290001**********                                               1602
B3801400170000000018722ANTONIO OR ZENAIDA OR WESLEY CATIBOG OR                 11602
B1101400120000000652880YAO, ANTHONY ROBERTSON GO AND YAO, MARK                 11603
B0101405490000001092466MARIBEL C. ESPINA DBU ABRN TRUCKING                     11601
B0101403320471008879002GOLDWIN MANUFACTURING                                   11615
B3801400170000000018722HAZELYN ACEDERA                                         21600
B1101400120000000652880ALAIN GO                                                21600
B0101405490000001092466SERVICES                                                21600
B0101403320471008879002LABORATORIES                                            21600
B3101400870225821100608**********                                               2002
B4101400390813821100608**********                                               2004
