A3401400280000000002660DISTURA, CRECEL MENDOZA                                  0501
A0101409050000000022482PINEDA, ROMEO SANTIAGO                                   0501
A0301400820000000024853ASMA, JUVYLITA F.                                        0501
A0301400820000000024871JAO, EDMUNDO C.                                          0501
A0101408400000000077923LUNASIN, FRENZY CORONADO                                 0501
A1901400160000000243672KERVIN FRANCIS DE LA CRUZ LIM                            0501
A0101400150000000253290**************                                           0501
A0101413280000000312683**********                                               0502
A0101402060000000358623IMMACULATA, ROWENA MARTINEZ                              0501
A0101405490000000444546******                                                   0501
A0101405490000000444591******                                                   0501
A0101412890000000543031ANOZO, JESUSA FLORES                                     0501
A0301400950000000566723FERNANDEZ, NESTY VON CHI                                 0502
A0101400440000000596630MARY ANN A. OYARDO                                       0501
A0101401380000000792172********                                                 0501
A0101408660000000855910***************                                          0501
A0101404420000000866520PANGANIBAN, MHERFIE STA MARIA                            0502
A0101401700000000890615**********                                               0502
A0101401700000000890648**********                                               0502
A0101406590000000905500AJMEC TRADING                                            0501
A0101404840000000943380HERMINIA L. ENGOC                                        0501
A3401400280000000972823FLORES, ARREES CEPRIANO                                  0501
A0301400790000001010660ORCULLO, NESTOR MEJORADA                                 0501
A0101408400000001035385LAURON, ZAFIRO TIRADOR                                   0501
A0301400820000001185644MIAG-AO, MAE A.                                          0501
A0101406330000001235283SKYLINE LAUNDRY STATION                                  0501
A0101412920000001313831TARUN, GEROLD BELTRAN                                    0502
A0301400950000001379604BRYAN YAP LIM                                            0501
A4101400550000001622782BALLEZA, MA SOLEDAD TAMBA                                0501
A0701400260000001804542***********                                              0503
A0101400440000002034840MAGBAG JR., JESUS ROY TRINIDAD                           0501
A0101405490000002253021BANZIL, VENESSA TANTICO                                  0501
A0101408400000002273241MAXIAN, JORDAN DELFIN                                    0502
A0101412500000002305088RAGOS, MARICOR SAN PEDRO                                 0501
A0501400200000002306014MAXIMO JR., ALFREDO PATRIARCA                            0502
A0101412500000002844335NUESTRO, JAN ANGELO VALERA                               0501
A0101400860011409985002**********                                               0505
A0101400860011423569001**********                                               0502
A0101400860011453144001*********                                                0505
A0101400860011478374003**********                                               0502
A0101400860011479505001**********                                               0505
A0101400860011496074002**********                                               0501
A0101400860011514595001**********                                               0502
A0101400860011529339001**********                                               0502
A0101400860011636581001**********                                               0501
A0101400860011656351001**********                                               0502
A0101401700041193436002CORAZON C. LOBENDINO                                     0505
A0101400150061039916065JOSE, KATHRYN OR JOSE, ADELA                             0501
A0101400600071236517002******                                                   0502
A0101400600071295528002*********                                                0502
A0101400600071461128001**********                                               0502
A0101400600071508998001*********                                                0503
A0101401830141367511001VELASCO, MA. TERESA ABUYO                                0501
A0101400440161039572023JIMMY S. PALISOC                                         0501
A0101400440161678764001JOSE FELIPE S. ARREZA                                    0501
A0101401380201563615001ABAYA, JESUS NACINO                                      0502
A0101400310211478374087PAMBID, ALICIA                                           0501
A0101400310211722479002MARTICIO, BONIFACIO CUACHIN                              0501
A3101400450223391044003GUNTER, FORTUNATA AZORES                                 0502
A3101400740224046678001INSON WATER MARKET                                       0502
A1001400190231427280002GAYAPA, JESSICA GADIAN                                   0502
A1001400190231520766109MEJIA, FLORDELIZA CAJANDAB                               0502
A1001400350233539705001SIMBAJON, ELENA P.                                       0502
A0101401670271189366002RUBI A. NGO                                              0502
A0101406460272287912001********                                                 0501
A0101408660274519407002ZIALCITA, MA. CRISTINA B.    JT                          0504
A0101400570281186842001DR. BENITO H. RAMOS JR.                                  0503
A0101402480331027585001PIXEL ARTS                                               0502
A0101402480331478374141CORTEZ, SYLVIA                                           0502
A0101402480331520766041RENEJIN, MARYLYN                                         0501
A0101408820333478374071MARY JANE Z. BORCELIS                                    0501
A0101405490392177005001DOMINGA P. BUENAOBRA                                     0501
A0101405490392298552043BETTY R. ARENA                                           0502
A0101408400394310823004QUIZON, VIRGINIA RAYMUNDO                                0502
A0101408400394417530001BRANA, NELSON MASILANG                                   0502
A0101408400394434896002MEDESTOMAS, GILDA PANGANIBAN                             0503
A0101408400394515663001PAUNTE, SARAMINA PAUDAC                                  0502
A0101403320471478374016SONIA SALANIO                                            0501
A0101406330472298552001EDWINA M. PADERNAL                                       0501
A0101406330472370108002MA. VICTORIA L. ESTRELLA                                 0502
A0101406330472478374037LOLITA D. AMADOR                                         0501
A1401400110492391345002R'S WINE CENTER                                          0503
A0101407430503583508001TANATE, RAMONET PALMA                                    0501
A0101408530516044264001DATA ART DESIGN & PRINT SERVICE                          0501
A0101408530516629972001ESTACIO, DANIEL LLANTO                                   0501
A0101403450521238598001**********                                               0501
A0101403450521240366001**********                                               0502
A0101403450521281581001**********                                               0501
A0101403450521389380001**********                                               0501
A0101407720602396682001FOJAS, MYRNA SOLIS                                       0503
A0101404260611366377001MAGSUMBOL, RISSA REYES                                   0501
A0101404260611478374075VIVENCIA HATOL                                           0501
A0101409920650478374005CRISOSTOMO, MA. EMELIA GASPAN                            0501
A0101409920650478374010EVA B. MANDIIT                                           0501
A0101404680651524655001LUTGARDA C. AMADOR                                       0501
A1301400500684591458001MANUEL, ANTONIO QUEROZ                                   0501
A0101407560686172632001JAMES B. VERGARA                                         0501
A0101408240711547758001SALVADOR, DIOSDADO COSCOLLUELA                           0501
A4101400420814520766033DELA CRUZ, MARILOU M.                                    0502
A4101400550815655696001MARITES D. SALMON                                        0501
A4101400550815721603001JOHN JOSEPH Q. MACABINGUIL                               0501
A0101404840851481664038ANGELITA C. HULAR                                        0502
A0101404840851520766122NENA REUTEREZ                                            0503
A0101404840851520766175RUTH CONDE                                               0501
A0101408240000000039683MIRCHANDANI, SHERYL OR LALA                             10501
A5501400120000000046871CHIU, VALENTIN & JULIA &                                10501
A2601400270000000561619RAUL T. SAWIT OR CARMELITA A.                           10502
A0101408400000001035421ANGELICA BIRTHING HOME AND                              10501
A0101401700041382678003KO,JAMES VINCENT OR KO,VICENTE                          10501
A0101400150061569034001JOHN R. JACKSON OR TANCHI, JOSE                         10502
A0101400310211161649001DE LARA, ROLAND JOEY OR                                 10505
A0101400310211388725001TOMANIOG, MYLA OR TOMANIOG,                             10502
A1001400350233528399003KO, JOSE NELSON AND                                     10501
A0101401670271290800002ERIC SHERWIN T. BASUIL OR                               10501
A0101400570281529282001HERNINA V. CALALANG OR DAVE                             10501
A0101402480331486341001SAN DIEGO, TESSIE OR SAN DIEGO,                         10501
A0101402510341630057001TAN, BENSON TEE TEN OR GUEMO,                           10502
A0201400760374625336001REYES, BAYANI CARLOS                                    10502
A0101405490392032343001TWIN PEAK BRASSIERES                                    10504
A0101405490392225879001DE LUNA, SOTERO B. OR                                   10504
A0101408400394047545001JOHNMAYSUZANNE FASHION                                  10501
A1901400160491451956001ANDY C BINUYA OR                                        10502
A0101404260611018041001JP LONEZA CONSTRUCTION                                  10502
A0101407560686369745001LORENA B. BURIEL OR                                     10501
A2801400100712495268002LEE, JOSEPHINE GLECINDA TULAO                           10502
A4101400260812444997002MARY ANN SAN DIEGO OR                                   10502
A0101408240000000039683OR MICHAEL                                              20500
A5501400120000000046871CHRISTIAN & CHRISTEL                                    20500
A2601400270000000561619SAWIT                                                   20500
A0101408400000001035421PEDIATRIC PRIMAR                                        20500
A0101401700041382678003OR KO,VIRGINIA O                                        20500
A0101400150061569034001PH CHRISTOPHER CHEN OR YO                               20500
A0101400310211161649001DE LARA, REBECCA                                        20500
A0101400310211388725001LEONORO JR.                                             20500
A1001400350233528399003KO, CHARMAINE                                           20500
A0101401670271290800002JASMIN H. BASUIL                                        20500
A0101400570281529282001CLARKE C. ESTRERA                                       20500
A0101402480331486341001JOSEPH OR SAN DIEGO, CARL                               20500
A0101402510341630057001MARICEL BALBALOS                                        20500
A0201400760374625336001OR REYES, VIRGINIA                                      20500
A0101405490392032343001MANUFACTURING INC                                       20500
A0101405490392225879001DE LUNA, AIDA S.                                        20500
A0101408400394047545001COLLECTION                                              20500
A1901400160491451956001DYESEBEL D BINUY                                        20500
A0101404260611018041001& TRADING                                               20500
A0101407560686369745001JIMMY D. BURIEL                                         20500
A2801400100712495268002LEE, JAMES TAN                                          20500
A4101400260812444997002ANTONIO SAN DIEGO                                       20500
B3401400280000000002331SUPER K DRUG CORPORATION                                 1601
B1901400160000000007467FIRST UNITED 23, INC.                                    1605
B0101404000000000025549QUIAMBAO, L DBU LPQUIAMBAO ENTERPRISE                    1601
B0101411080000000026348DOXO INGREDIENTS INC.                                    1604
B5501400120000000046893GRV FAMILY COMMERCIAL, INC.                              1620
B5501400120000000046900RENAISSANCE CHAPELS                                      1601
B0101404260000000156972PRIME POWER MANPOWER SERVICES                            1650
B0101404260000000156972PRIME POWER MANPOWER SERVICES                            1650
B0101406330000000162729LADAKH INTERNATIONAL, INC.                               1601
B5001400170000000169857LINK RI LOGISTICS INC.                                   1606
B0101402480000000310476GLOBETECH PRECISION PLASTIC CORP.                        1602
B0101404260000000550332S-GERA PAINTING INC.                                     1605
B0101408240000000832531SCORPIO TRANSPORT & MANNING                              1605
B0101409180000000874762JP&M FOOD ENTERPRISE CO. LTD.                            1601
B0101403450000000889632LATTDS DEVELOPMENT CORPORATION                           1601
B0101413440000001085694M.S. QUEZON CITY TOURISM COUNCIL INC.                    1601
B0101402480000001100096QUALIGEN PHARMACY CORP.                                  1602
B0101408530000001275263JBMAX CORPORATION                                        1603
B0101402480000001562027************                                             1620
B0101413860000001767860FTD LAND CORPORATION                                     1601
B0101402480000001927471**********                                               1601
B0101402480000001927631*********                                                1603
B0101400860011485580001**********                                               1603
B0101400150061015841002ENZIMA INTERNATIONAL, INC.                               1602
B0101400150061036320001IPM CONSTRUCTION & DEVELOPMENT CORP                      1610
B0101400150061534780001STRAITS WINE COMPANY WHOLESALERS, INC.                   1602
B0601400100081034116001FIESTA COMMUNITIES INCORPORATED                          1605
B0101400730111019171001RHINE FOODS CORPORATION                                  1601
B0101400730111021297002CRESLEIGH FOODS CORPORATION                              1603
B0101401830141019859001NIPPON WARE MANUFACTURING CORPORATION                    1602
B0101401090171035026002ASIAN CONFERENCE ON RELIGION AND PEACE                   1601
B0101401380201038117001GIFT4U COMPANY                                           1601
B0101407140213047029001TOYOTA QUEZON AVENUE, INC.                               1602
B1001400190231015069001*******                                                  1603
B1001400190231092020001RNT COLD BUILDER, INC.                                   1603
B1301400470252486362001DOMINIC C. TAN                                           1603
B0101408660274038268001AVO AIRVENT INCORPORATED                                 1601
B0101402480331015893001PEOTRACO INDUSTRIES UNC.                                 1606
B0101402480331033229009TGP DRUGSTORE                                            1602
B0101402480331033229015TGP DRUGSTORE                                            1602
B0101402480331036207001MYGENERICS PHARMACY INC                                  1602
B0101402480331036207008MYGENERICS PHARMACY INC.                                 1602
B0101402480331243281001**********                                               1610
B0101402480331541505001PHARMAGENERICS, INC.                                     1602
B0101402480331541505010PHARMAGENERICS, INC.                                     1602
B0101408820333021529001ATT-AQUALAB CENTER INC.                                  1601
B0101409050352042202002DAN VIL COMMERCIAL CORPORATION                           1602
B0201400760374026266001VISAYAN ELECTRIC COMPANY, INC.                           1602
B0101408400394027524001SAINT JO FLORAL DESIGNS & DECORS                         1602
B0101408400394028375001LEARN AND PLAY BOOK STORE                                1601
B0101408400394028560002NEW LIFE CHRISTIAN CENTER (THE FORT) INC                 1602
B0101408400394028560004NEW LIFE CHRISTIAN CENTER (THE FORT)                     1602
B0101408400394032168001ALQUIROS FOOD CORPORATION                                1606
B0101408400394035589001MARINE RESOURCES DEVELOPMENT CORPOR                      1605
B1901400160491046052001BANAPRA DEVELOPMENT COOPERATIVE                          1603
B1401400110492028287001MARYHILL COLLEGE, INCORPORATION                          1605
B0101405940512023092001CONSUNJI & BONIFACIO LAW OFFICES                         1603
B0101403450521011768002SYSU INT'L. INC                                          1606
B0101403450521036992001********                                                 1601
B0101404680651047793001ONLY@PC GILMORE COMPUTER CENTER INC                      1601
B1301400210682200942001SZE KIT CHENG                                            1610
B1301400210682248659001ASIANLAND STRATEGIES CORPORATION                         1605
B2801400100712046914001IREC CORPORATION                                         1602
B4101400390813036410001THE BOAT SHOP CORPORATION                                1602
B0101408240000000832542SCORPIO TRANSPORT & MANNING SERVICES,                   11605
B0101401380201029493001ST. HANNIBAL MARY DI FRANCIA EMPOWERMENT                11602
B3101400740224041317001CALAMBA PREMIERE INTERNATIONAL PARK                     11610
B0101408240000000832542INC.                                                    21600
B0101401380201029493001CENTER INC                                              21600
B3101400740224041317001ASSOCIATION, INC                                        21600
B1901400160491821100608**********                                               2005
