A1001400350000000017165MEN DBU A&L MARKETING SOLUTIONS                          0502
A0501400200000000035703ZUNIGA, MARIA ELOISA VILLARINA                           0501
A0701400260000000041038SOBRINO, MARIBETH BALUCA                                 0501
A1301400760000000050502SALIENTES, ZOILO HIDALGO                                 0501
A0101404840000000085050NIKKI DE ISO                                             0501
A1301400340000000100374PRADO, ERLINDA SORIENTE                                  0501
A0101402510000000200120RAMOS, PILIPINO ANGELES                                  0501
A0101401960000000211081TAN, LUISA LAO                                           0501
A0101401960000000211092TJL METALLIC CRAFT                                       0501
A0201400760000000223178LIANG, YANHU                                             0505
A0201400760000000223189VAN SPALL, MONIQUE ALEJANDRINO                           0501
A0101409890000000437405REYES, MICHAEL CONCEPCION                                0501
A0101405490000000444488JOHN MATHEW S. TAN                                       0502
A0101407140000000445976**********                                               0501
A0101407430000000447114ECOGOLD TRADING                                          0501
A0101408950000000472946**********************                                   0502
A0101403320000000522369FRANCISCO, KATHREN CASTILLO                              0501
A0101403320000000522370CRUZ, ANA BASCO                                          0501
A0101411820000000589391LOIS MAE P. MENDOZA                                      0501
A0701400260000000670906BALUCA, MARIZEL FORNOLES                                 0501
A4101400420000000710427BONIFACIO, RENCY MENOR                                   0501
A0101407720000000713120VIZCARRA, MELINDA JAVIER                                 0502
A0101403320000000736185JUMAQUIO, FARIDA YTABLE                                  0501
A0101403320000000736196SINFOROSA P. LEGASPI                                     0501
A0101412500000000739657GADITANO, MILESTONE ESPIN                                0501
A0101406880000000745011HOWARD, GINALYN BODE                                     0501
A0101408950000000776672SERIOSO, GILBERT BASCON                                  0501
A3401400280000000784549BERNALES, CLARITA ALBA                                   0501
A0101410300000000919477GRAYDA, SHERMAN POJARDA                                  0501
A2801400230000000937480ROLDAN, RUTH MARIE ALBANO                                0501
A4101400390000000975208AQUINO, JULIA HAROCHOC                                   0501
A0601400360000000978710LEGG, BRIGIDA DELFIN                                     0501
A4101400550000000981853OLMILLO, LUZVIMINDA TALAVERA                             0501
A4101400550000000981875LEECHIU, MARIVIC SARAZA                                  0501
A0201400920000000991711MAGDUA, MAY ANN DARUNDAY                                 0502
A0101409920000000998832GARNA, JOANA ELIZA MARIE ACEBED                          0501
A0101409050000000999608ASUELO, PLARICEL NAVARRO                                 0501
A0101409050000000999619TUMAGAY, ELAINE SUMULONG                                 0501
A0101408950000001039423DIAZ, RAMAYANA SARMIENTO                                 0501
A1001400480000001054762MAMHOT, MICHAEL SERINA                                   0501
A6601400120000001065310GETALADO, NORIEL LUCERO                                  0501
A1601400170000001068582ROBERT U. PALANCA                                        0502
A0101410140000001074602MUSTAPHA, CARIM LAO                                      0501
A1001400350000001101179BALBERONA, PERCIVAL LEONIDES PA                          0501
A0101404000000001186783JANDAYAN, KIMBERLY SARAUS                                0501
A0101413730000001253150***********                                              0501
A0101413150000001288273******                                                   0501
A0101409210000001294344BORGONIA, MARK JOSEPH BANDA                              0501
A2001400290000001301197CAPILLA, CARMELO VERA                                    0501
A2001400290000001301200GONZALES, NOAH LANDESA                                   0501
A0601400520000001349537LACSON, IVY MANALAC                                      0501
A0101411820000001356430FRANCIS S. LIM                                           0501
A0101405650000001377340GRANADOS II, RODOLFO FERNANDO                            0501
A0101413990000001406433LILIBETH C. OMAR                                         0501
A0101400440000001439823IGLESIAS, ELIZABETH PEREZ                                0501
A0101400440000001439830BOLANO, JAYSON BLANZA                                    0501
A0101405070000001456053VIDAD, RODITA NADELA                                     0501
A0101412630000001485252PANTALEON, REGGIE SADSAD                                 0501
A0101406750000001491670ANACAN, MARK ANTHONY ORDOYO                              0501
A2201400250000001545455PACHECO, RAQUEL ARSENA                                   0501
A0101408400000001614728MAGNO, MARVIN MENDOZA                                    0501
A0101401700041190452002******                                                   0510
A0101400150061445187001AMILHUSIN, SITTI DIWATA ACIERTO                          0501
A0101400440161186934001VICTORIA D. SISON                                        0505
A0101400440161478374175MARYLEN R. MORADA                                        0502
A0101400440161525001119NORA S. TALENTO                                          0501
A0101407270162333301001AILEEN T. TEMPLONUEVO                                    0501
A0101407270162351252001WILFREDO C. CUEVAS                                       0502
A0101401090171197582002ALBERTO P. PAULINO JR.                                   0501
A0101401090171199858001RODELIO DOMINGO LIM, M.D.                                0501
A0101407140213023148001**********                                               0502
A0101407140213485140001**********                                               0501
A3101400160221519790001MALAYA JR., ELI RODRIGUEZ                                0502
A1001400190231520766016CUARESMA, CYRIL BENITO                                   0501
A1001400190231520766100CHRISTINE MAE R. LITAO                                   0501
A1001400190231520766110MAYOR, CARMELITA ANGCAY                                  0501
A1001400190231520766126ORTIZANO, MERLYN B.                                      0501
A1001400350233635947001GOMEZ, CHRISTOPHER IAN CARILLO                           0501
A1301400470252478374030JERICA P. MATAMMU                                        0503
A0101406460272442863001********                                                 0501
A0101410980275771013001**********                                               0502
A0101400570281505620001LEI-JOAN V. MOLO                                         0501
A0501400200292567569001LARILYN D. GATCHALLAN                                    0501
A6601400120314621360001DADIA, PHILIPP JOHN OR IVY                               0501
A6601400120314624040001BATULA, MARICIL OR RICARDO                               0503
A6601400120314707193001SABONG, ARTURO JAZMINES                                  0502
A0101408820333047432001***************                                          0501
A0101408820333464598001**********                                               0504
A0101402510341277724001PRUDENTE, JOSEPHINE ESGRINA                              0502
A0201400760374700415001GONZALES, ANTHONY GERARD YBANEZ                          0503
A0101405490392029745001MESINA BROTHERS, INCORPORATED                            0503
A0101405490392034892001JABEZTECH TRADING                                        0505
A0101405490392170537002LORNA V. TUGADE                                          0501
A2401400180411042917001CENTURY MARKETING                                        0501
A2401400180411478374069JUBAN, MARIVIC BABA                                      0501
A0101403030441643112001**********                                               0501
A0101403030441673721001**********                                               0502
A0101405940512399500001MYRA A. BULAN                                            0501
A0101408530516578215002KHALIL BERNARD RELLINA                                   0501
A0101408530516615903022CHERYLL EILEEN B. NILLO                                  0502
A0101406590662035265001******                                                   0502
A1301400340683608747001TALUSIG, MARILYN ESGUERRA                                0502
A1301400500684577228001UBONGEN, VERNA MANINGAS                                  0502
A1701400230693478374044CECILIA CORRALES                                         0501
A0101408240711199637001GIL JOSE E. PULUMBARIT JR.                               0502
A4101400420814478374154CABRERA, FELIZA                                          0501
A4101400420814478374167SAN AGUSTIN, EDITHA L.                                   0501
A4101400420814520766027ARUTA, CORAZON G.                                        0501
A4101400420814520766056MULIG, ESTER R.                                          0501
A4101400550815711802001PAHAYAHAY, MA. ROSANNA CISNEROS                          0501
A0101404840851520766055MARY JOANNE P. BAUTISTA                                  0501
A0101406750852022181001DATHAN ENTERPRISES                                       0504
A0101405070861081835001********                                                 0501
A0101405070861087185001FORTUN, MARIA DOLORES REMULLA                            0501
A0101405070861478374086MARLYN C. GABEST                                         0502
A0601400230891030079001DE FINA BAKESHOP                                         0505
A0101409890000000049089GEMSTAR CLEANING SUPPLIES                               10505
A1001400480000000133246UY, FRANCES YAP OR UY, GWEN OR                          10501
A5001400170000000170118FELIZARDO M. ELUMBARING OR                              10503
A0101412500000000740021LIM, AMOS CHIN SE OR LIM,                               10501
A4101400550000000900372ALFORTE BUSINESS CONSULTANCY                            10501
A0101405490000001092580MARIA THERESA P. OTSUKA OR                              10501
A5501400120000001121719ONG, DANIEL STEVEN OR                                   10505
A0101405070000001124350DESCALZO, MARIA KHARIN H. OR                            10501
A0101412210000001236117FERNANDO, GERALDINE OR                                  10501
A0101405070000001456082MENDOZA, PAMFILO L. OR                                  10505
A1101400120000001547257BITAS, EDNA YMAS OR CLAROS JR,                          10501
A0101401700041396845001EDWIN GUE VISMANOS OR SHARON                            10501
A1301400470252495255001IMELDA IRENE V. ULIP OR                                 10501
A0101406460272618405001DELA CRUZ, ELIGIO S. OR                                 10501
A0101400570281188687001LORGENE A. MATA OR                                      10504
A0101404000551400605001DUNGO, ELPIDIO SILVESTRE OR                             10501
A0101409890000000049089INTERNATIONAL                                           20500
A1001400480000000133246CONTRERAS, KARMEL                                       20500
A5001400170000000170118EUMENA B. ELUMBARING                                    20500
A0101412500000000740021JENNIFER LEE                                            20500
A4101400550000000900372SERVICES                                                20500
A0101405490000001092580SUSAN C. VILLAFUERTE                                    20500
A5501400120000001121719YU, MARICA ARMINA                                       20500
A0101405070000001124350DESCALZO, LUZVIMINDA H.                                 20500
A0101412210000001236117FERNANDO, JOSE RODERICK                                 20500
A0101405070000001456082MENDOZA, CORAZON D.                                     20500
A1101400120000001547257VICTOR HANZEIL GAD                                      20500
A0101401700041396845001SANGUYO VISMANOS                                        20500
A1301400470252495255001JUANITO I. ULIP                                         20500
A0101406460272618405001UBARRA, MA. THERESA V.                                  20500
A0101400570281188687001CLARISSA MATA                                           20500
A0101404000551400605001DUNGO, TERESITA                                         20500
B3001400130000000006862ML_BUILDERS INC.                                         1603
B0101405070000000028880CLUB YOKO BAR AND RESTAURANT INC.                        1601
B0101412340000000030866DENSCOTH BUSINESS SOLUTIONS INC.                         1602
B0201400760000000033321SAM SOWAH SHIPPING CORPORATION                           1602
B0201400760000000033332SAM SOWAH SHIPPING CORPORATION                           1602
B0101413150000000038628******                                                   1601
B0101413860000000145344SUPREME COURT EMPLOYEES MULTI-PURPO                      1620
B0101413570000000206540KASECO HOMEOWNERS ASSOCIATION INC.                       1601
B0101405070000000428955INK AND TONER WORLWIDE INC.                              1601
B0101407430000001212979FRUS CORP.                                               1601
B0101400150061038163001QUANTUM FOODS, INC.                                      1610
B0101400150061038212001COCOPALM AGRI GROUP, INC.                                1603
B1001400190231045801001SUMMIT WORLD PHILIPPINES INC.                            1602
B1001400190231272348001LAO, SHERWIN                                             1602
B34014002803187788880880318778888088                                            1605
B34014002803187788881680318778888168                                            1605
B0101402060351042328001EDURESOURCES PUBLISHING INC.                             1602
B0201400890376045807001**********                                               1620
B2401400180411020380001BOUNTY AGRO VENTURES, INC.                               1605
B1201400150421020156001SMALL WORLD TRAVEL & TOURS AGENCY                        1610
B0101403030441038216001LAZARO FURNITURE                                         1605
B0101403450521011967001ERNES REALTY CORPORATION                                 1601
B1701400230693621490002***                                                      1604
B0101405070861008460006STARS TRAVEL INCORPORATED                                1603
B0101405070861010960001FBIC REEFER CORPORATION                                  1602
B0101405070861028566001AVESTA REALTY, INC.                                      1601
B0101405070861197658001****************                                         1602
B0101401090171041259001THOMASIAN HEART SPECIALIST ALUMNI                       11602
B2201400250561291930001JOSUE SENGCO &/OR DIGNA REMOLANA &/OR                   11601
B0101401090171041259001ASSOCIATION,INC.                                        21600
B2201400250561291930001DILIDAN PASION                                          21600
