 1301400500000000213163                                                           00
A0101400570000000031803ROXANNE ABIGAIL P. ROQUE                                 0501
A0601400100000000032500LACSINA, MARVIN OR CHERYLLAD                             0501
A0101411790000000039267GO, NILDA FRANCHESCA VILLAMIL                            0505
A0101403320000000067532YAGUEL, SALVE L.                                         0501
A0301400820000000132607DINAH N. BACAYO                                          0501
A0101408790000000210904PIO DE RODA, ATHENA RAMBLA                               0501
A0101400150000000253427ARNEL C. CUARESMA                                        0501
A0101413280000000312694MAUREEN NEPOMUCENO SARET                                 0501
A0101408370000000336183CUAJUNCO, EILEEN ALIKPALA                                0503
A0101408660000000373011LAM, E DBU BAN HOK TRADING                               0503
A0101408530000000489670SANTOS, MAY FORTES                                       0501
A0101405650000000525717TAMBUNTING, JOY MYRA SALVADOR                            0510
A0101403320000000735940MARIFE N. PALMA                                          0501
A0101404680000000767033EVANGELINE S. ANTOY                                      0502
A0101410300000000919488ALEJANDRIA, ANGELITO S.                                  0501
A1301400340000000926789********                                                 0501
A0201400760000000989706SORIANO, ADRIAN IBAY                                     0501
A0601400230000000990052DAYAO, MARIBEL MASIBAC                                   0501
A0101411240000001563402ORTIZ, CARLO A.                                          0501
A0101410720000001602153*****                                                    0501
A0101403450000001637976*********                                                0502
A0101403450000001638064************                                             0501
A1101400120000001920521NG, RACHEL CHU OR NG, ANDREW PO                          0501
A0301400950000002115300*******                                                  0502
A0301400950000002251970**********                                               0502
A1101400120000002254844AREVALO, COLEEN CARASO                                   0503
A0101410720000002283930LADIA, APRIL IRIS RUPIDO                                 0502
A0101400600000002335720LI, MAOHUA                                               0502
A4101400420000002345280ACOL, FELOMINA ADOAN                                     0501
A0101413600000003134487MIRRIAM A. DELA CRUZ                                     0501
A0101400150000003141602VILLARAMA, MICHELLE MANANSALA                            0501
A0101405490000003178410RAMOS, JOHN DARIUS NARCISO                               0503
A0101412920000003464920ROSELYN B. ABILGOS                                       0502
A0101409050000003536127YULO, SHEROICK NOEL                                      0501
A0101404000000003706329ALIZA ABIGAIL S CATO                                     0501
A0101404000000003706512AARON C DAVID                                            0501
A0101404000000003707173KATHERINE A MIRANDA                                      0501
A0101404000000003707840JOANNE G VILLANUEVA                                      0501
A0101404000000003707880CHARMAINE JEAN C YAM                                     0501
A4101400420000003715735DELOS SANTOS, VICTOR AQUINO                              0502
A0101408240000003955237BAES, MARCUS ANTHONY MARCO                               0501
A0101401250021180271001ERLINDA V. EQUIBAL                                       0502
A0101401250021411710001JAMBALOS, MARISSA LANELUZ                                0503
A0101401700041311242002**********                                               0510
A0101400150061337099104MA. SOCORRO SANTOS                                       0501
A0101400150061434625001CARPIO, FERNANDO VIZON                                   0502
A0101400150061556932002DIA, DON MARIO YAP DIANGCO                               0502
A0601400100081450924002VASAY, JUN OR ARLENE                                     0501
A0601400100081588822001EMBORONG, LAARNIE VILLACRUSIS                            0502
A0101400730111692067001RABAGO, JACQUELINE ATANACIO                              0502
A0101406040112092810001********                                                 0503
A0101400440161525001073TERESITA G. PARRO                                        0501
A0101401090171335789001JONATHAN C. VASQUEZ                                      0502
A0301400530193710800001TABANAO, JESICA G.                                       0502
A0101400310211038952001MULTICHEM INDUSTRIAL SALES                               0502
A0101400310211171121001CASTRO, ISABEL TALAUE                                    0501
A0101400310211295755006******                                                   0501
A0101400310211434627001TANLIMCO, JANET LEE                                      0501
A3101400160221056818001GONZALES JR., RUBEN GABAO DBU S                          0501
A3101400160221533266001ANGELITO S. LAZARO JR.                                   0503
A3101400160221784329001LEANDRO R BATALLONES                                     0501
A1001400190231520766124OGSIMER, MIRASOL CARBAJAL                                0502
A1001400350233478374020ELMA O. GAWAT                                            0502
A1001400350233704243001QUEJA, QUERITESS QUILALA                                 0501
A0101406620273468797001ABAS, MA. DOLORES CASTILLO                               0501
A0101406620273483517001BUENAVENTURA, ROWENA PULGA                               0502
A0101408660274478374013HERRERA, CHRISANTINA DOMINGO                             0502
A0101400570281307585001INES ESPINOSA-HUNGRIANO                                  0502
A0101400570281378117001SHERYL LYNN PE ACOSTA                                    0505
A6601400120314614806001DURA, RENY OR NOEMI                                      0502
A0101405650322210293002VILLANUEVA, TERESITA ESPINOSA                            0501
A0101405650322647521001ALCANTARA, ANNA LORRAINE B.                              0501
A0101402480331428179002CHENG, JOUBERT OR ROWENA                                 0501
A0101402480331520766101ROBERT, RICARDO                                          0502
A0101408820333158643001ROSITA L. TAN                                            0501
A0101408370382445729001DR. JASON D. ROSCA                                       0501
A0101402770391297141001ALFONSO S. CHUA                                          0502
A0101402770391383276018MICHAEL ADRIAN BORJA                                     0502
A0101405490392017577001AIDA M. GARCIA                                           0501
A0101408400394478374094NUNEZ, GENIE                                             0501
A0101408950396498542002DR. RIZAL ALBERTO B. NOLIDO, JR                          0502
A0101408950396565613001AGCAOILI, MA. DULCE FLORENCE                             0501
A2401400180411032438001DADIANGAS AUTOWORLD PARTS                                0510
A0101403030441239873002**********                                               0502
A0101403320471478374057EMMA G. FELIPE                                           0501
A0101406330472298552011CARINA F. FALQUERABAO                                    0501
A0101405940512497234001MA. CERESA DE TORRES REYES                               0501
A0101406880513197649001HARPER, ANNA MARIA LAMMOGLIA                             0501
A0101406880513432890001LACSAMANA, DYLAN SOLIMAN                                 0501
A0101406880513444595001GABRIEL, MARIA TERESA BERGONIO                           0502
A0101408530516543430004EMILIE JANE RAVAGO                                       0501
A0101403450521567563001********                                                 0502
A0101404260611366377001MAGSUMBOL, RISSA REYES                                   0501
A0101404680651478374025SOLEDAD A. GIRAY                                         0501
A0101404680651478374094MARY ROSE L. CONVOCAR                                    0502
A0101404680651520766038EVANGELINE F. RICARE                                     0504
A0101410720653045798001MZA SECURITY SERVICES                                    0501
A0101410720653421581001RONILO OR KATHLEEN VILLANUEVA                            0502
A0101407560686478374024LORNA SIBAYAN                                            0501
A0101404840851413054001EDO, NENE GURO                                           0501
A0101406750852786134001MONTON, ROMEL MARIVELES                                  0501
A1301400500000000213083JUANITO F. GREGORIO OR AURELIA                          10501
A0101404680000000862226AL-HAMRA TIRE SUPPLY &                                  10502
A0101413020000000880473LAGUNDA, JOAN DBU:                                      10503
A0101412920000001313739ADAZA, EVA VERA OR                                      10504
A0301400950000001379477CCD AUTO HUB AUTO SERVICE                               10503
A0101403610000001450840TAN, ELESON BAUTISTA OR                                 10502
A0101406750000002040135MENESES JR., JOSE PEREZ AND                             10505
A1701400230000002347366CURAMENG, CHARLES A. OR                                 10502
A0101405940000003121808CUESTA, MARIA LORE DBU D ORANGE                         10504
A0601400100081424085001ALAPAG, JASMINDA B. OR                                  10502
A0101400440161482033001CZARENO A. GONGORA OR                                   10501
A0101400570281186562001ENGR. JOSELITO MIRAFUENTES OR                           10501
A0201400760374711838008CUA, MIRIAM MASING OR                                   10505
A0101408370382205133001DR. ROWENA P. RIVERA OR                                 10503
A0101403320471205809002UMALI, FLORENTINO ILAGAN OR                             10503
A1301400500000000213083S. GREGORIO                                             20500
A0101404680000000862226UNDERCHASIS SERV                                        20500
A0101413020000000880473JJ CONSTRUCTION                                         20500
A0101412920000001313739ADAZA, ROQUITO S                                        20500
A0301400950000001379477CENTER                                                  20500
A0101403610000001450840CO, IVY MARIE CHAVEZ                                    20500
A0101406750000002040135VERA MARIE MENESES                                      20500
A1701400230000002347366CURAMENG, MARQUESA C.                                   20500
A0101405940000003121808AUTOMOTIVE AND SERVICES                                 20500
A0601400100081424085001ALAPAG, MARCELIN                                        20500
A0101400440161482033001MARY HAZEL D. GO                                        20500
A0101400570281186562001DR. LANA GAN                                            20500
A0201400760374711838008CUA, DAVIDSON MA                                        20500
A0101408370382205133001REBECCA P. RIVER                                        20500
A0101403320471205809002MARIA LILIBETH DE GUZMAN                                20500
B0101404130000000001270GAME CRAFT, INC.                                         1602
B0101408240000000005158DEARBORN MOTORS CO., INC.                                1602
B0101410720000000008722ACELIS SAL OFFSHORE PHILS. INC.                          1602
B0101403450000000009812********                                                 1602
B0101406620000000015170AUTOSWEEP POST CORP.                                     1610
B22014002500000000169863 KIS FOOD STORE CORPORATION                             1601
B0101412470000000045372KIDMASTER INC.                                           1601
B0101409890000000049192PLARIDEL PRODUCTS & SERVICES INC.                        1610
B2401400180000000073743HONDA CARS GENERAL SANTOS, INC.                          1601
B0101404680000000095709BTG BUILDERS AND SUPPLIES                                1603
B0101406620000000194110ICONIC ADVANTAGE INT'L., INC.                            1602
B2801400230000000372707BALOOGA GRILLERIA CORP.                                  1602
B0101403580000000383788JER CONSULT CORP.                                        1602
B0101406330000000432831OTO MARKETING, INC                                       1610
B0101407270000000830551POULTRYMAX OMNIS, INC.                                   1605
B0101408240000000832962CARMEL LAND SALES & DEVELOPMENT CORP.                    1610
B0101411110000000842557**********                                               1601
B4101400260000001198972NORRIS HILTON ACADEMY INC.                               1601
B0101407430000001213227ROMINE LASERJET TONER CORPORATION                        1601
B0101407270000003254497SAPECON FIRST PHILS. CORP.                               1601
B0101400150061009769001KEYLAND CORPORATION                                      1610
B0101400150061010780001REXOR & COMPANY, INC.                                    1606
B0101407270162021675001TACTICAL PROMOTIONS, INC.                                1610
B0101401380201034271004LC BUILDERS AND DEVELOPERS, INC.                         1604
B0101400310211026511001R.R. VALENCIA ENGINEERING WORK                           1602
B0101400310211027640001EQUIMEDIAN ENTERPRISES, INC.                             1602
B0101400310211031469001SWITCHTEK CONSTRUCTION CORPORATION                       1604
B0101400310211038408001SALAROSO METRO SUITE                                     1601
B1101400120313022546001POWER ALLIANCE CORP.                                     1625
B0101402350321035857001MOBICAR TRADING CORPORATION                              1602
B0101405650322020427003EMPLOYMENT OPPORTUNITIES, INC.                           1601
B0101405650322022799002FUEGO LAND CORPORATION                                   1602
B0101408820333040664001LAT ARTWORKS                                             1601
B0101411660384046301001JJACCIS DEVELOPMENT CORPORATION                          1602
B0101408400394027524001SAINT JO FLORAL DESIGNS & DECORS                         1602
B0501400170481018109001*********                                                1601
B0501400170481023482001ARZADON LEISURE CORPORATION                              1605
B0101403580511045732001AMVI DEVELOPMENT CORPORATION                             1602
B0101403580511561842001DAWAAT INTERNATIONAL CORP.                               1603
B0101405940512025099001COMTHEX, INC.                                            1605
B0101406880513021335001ACTIVE REALTY AND DEVELOPMENT CORP.                      1615
B0101403450521033777001**********                                               1610
B0101403610531046549001BIG APPLE PLASTIC PACKAGING INC.                         1602
B0101404130601100142001FOOD INDUSTRIES, INC.                                    1603
B0101410720653027645001AZERI INDUSTRIAL SALES                                   1605
B0101410720653042569001TUGSON CONSTRUCTION & DEV. CORP.                         1602
B0101408240711030848001*****                                                    1601
B0101406750852033080001SENOR NINO-MIGUEL CATHOLIC MISSION                       1603
B0101403580000000214731MILLENNIUM ERECTORS CORPORATION - NORTH                 11610
B1101400120000000652880YAO, ANTHONY ROBERTSON GO AND YAO, MARK                 11601
B0101412920160056576001TIGER INVESTIGATION DETECTIVE SECURITY                  11601
B0101401090171041259001THOMASIAN HEART SPECIALIST ALUMNI                       11602
B0101403580000000214731RESIDENCES                                              21600
B1101400120000000652880ALAIN GO                                                21600
B0101412920160056576001AGENCY & GEN. SE                                        21600
B0101401090171041259001ASSOCIATION,INC.                                        21600
B7201400170152821100608**********                                               2002
B0101400310211821100608**********                                               2003
