A0101401960000000008095ANG, PAUL GO                                             0501
A1101400120000000010599BODANIO, MARIETA PALCE                                   0501
A0101408820000000027283JUDITH LACANDULA                                         0501
A0101400440000000029401ANGEL, HELEN VILLANUEVA                                  0501
A2401400180000000073527LAFARDZ MARKETING                                        0501
A0601400100000000141864DEL ROSARIO, ROCELLE PENA                                0502
A3401400280000000156712APARRI, REYNALDO VALDEE                                  0502
A0601400230000000186856CASTRO, RAFAEL ROSARIO                                   0501
A1301400500000000212951GUILLERMO, ALVIN MANLAPIG                                0502
A0101413280000000312694MAUREEN NEPOMUCENO SARET                                 0501
A0301400820000000316583CABALLERO, ANGELITA L.                                   0501
A0101408370000000336229BAUTISTA, JONATHAN IAN POLIARCO                          0501
A1601400170000000421229*********                                                0502
A0101405490000000444660VALENTIN R. PADILLA                                      0501
A0101405490000000444671MARIA P. SUMILE                                          0503
A0101413440000000570449BACO, KING MARK PAGSIAT                                  0501
A1001400480000000606819TAN, LYDIA OR TAN, OLIVER                                0505
A1101400120000000652373MORALES, CHRISTIAN LAGARDE                               0501
A0101413990000000726589ESTERAS, CRISTINA ESCALANTE                              0501
A0101400150000000760781HERNANDEZ, SHERYL GAUTANE                                0501
A0101400150000000760781HERNANDEZ, SHERYL GAUTANE                                0501
A0101414120000000875703SORIANO, MARICRIS REYES                                  0501
A0101414120000000875889PIC-VAI CONSTRUCTION                                     0502
A0101401250000000907288CASTILLO, ROSELYN VILLAR                                 0501
A3101400870000000957746FELIX, MALINDA DAGUIO                                    0501
A1301400210000000983815FELICITAS S SUNGA                                        0504
A0201400920000000991788NADALA, MICHELLE CABA                                    0501
A0201400920000000991799CORTES, GENEVIVE BUENDIA                                 0501
A0201400920000000991802GUMAYAN, JESSA MAE CATALUNA                              0501
A0101401090000000993397ARCENAL, SHENA RICCA TORILLAS                            0501
A1001400480000001054864VALDEHUESA, CAROL GORRES                                 0501
A0501400170000001072833AQUINO, LETECIA CASTANARES                               0501
A0501400200000001081065DELOS REYES JR., PEDRO BULOSAN                           0502
A3101400870000001146441YU, JOHNNY GAW                                           0501
A3101400450000001149360TORRES, MINERVA ZANTUA                                   0501
A3101400450000001149371BERNARDO, GAY NESOS                                      0501
A3001400130000001271670EMPISTO, GENAH JUMAWAN                                   0501
A0101412920000001313893VILLASENOR, HAZEL VIC C.                                 0501
A0101412920000001313900CRUZ, MARIA IVY MARANAN                                  0501
A0301400950000001379568TAOJO, MUTYA SANTIAGO                                    0502
A0301400530000001409650DING, SHUIBEI                                            0505
A1301400340000001415703SOCOR, ALBANDAR PUKUNUM                                  0501
A0101414120000001427452JUDILLA, MICHAEL ARMAN                                   0501
A0101414120000001427583GILBUENA, AILEEN DUMADIEGO                               0501
A0101406750000001491885BUNDA, RHETT AURELIO                                     0501
A0101412050000001499692SALUTE, CHINICA COTMAYA                                  0501
A2001400290000001557655VALENCIA, JOANA MAY RETES                                0501
A0101402770000001570758AGUINALDO, MA NEREN CONCEPCION                           0501
A0101402770000001570769EDDYLYN MAGALAD ILAGAN                                   0501
A0101407270000001596923KATHERINE SUZANNE B. ROBLES                              0501
A4101400550000001622720MONTEMAYOR, NENITA PENAFLORIDA                           0501
A4101400550000001622742PATUBO, MARY JANE CARINO                                 0501
A4101400550000001622753NALE, JOSELYN QUILATAN                                   0501
A0101414120000001642520GARCIA, LEILANE SALES                                    0501
A0101414120000001642542CLAR, RUELAN LUSTIVA                                     0501
A0101414120000001642553DELA CRUZ, MARILOU AUTHOR                                0501
A0101414120000001642677FALLER, CYNTHIA MADALEIN CARREO                          0501
A0601400230000001687083GUEVARRA, ASTERIA BONIFACIO                              0502
A0101400150000001707871DELOS SANTOS, VIC DAVID                                  0501
A0101414120000001751333BALDAGO, MELECIO MAESTRE                                 0501
A0101412630000001823310SALVADOR, ARLENE IGNACIO                                 0501
A1201400150000001863112MEDRANO, ALEJANDRA MATANGCAS                             0501
A2401400180000001935811PATAYAN, JULIET CAGANI                                   0501
A2401400180000001935822ANOS, LINDALEE LAROZA                                    0501
A0101402510000002159184REYES, MONALIZA ASIS                                     0501
A0101400150061038536144ROMEO S. DAVID                                           0501
A0101400150061230432001RAMON M. PANER                                           0501
A0101400150061354288001CORAZON G. TAGLE                                         0502
A0101400150061628287001TESORERO, MARY JANE ARTANA                               0502
A0101400150061647793001MANESE JR., MICHAEL DAVID                                0502
A0601400100081590627001BASILIO, ADAMSON CUNANAN                                 0501
A0601400100081671563001LUMITAP, OLIVIA TOLENTINO                                0501
A0101400730111412858025JOVITA R. GARCIA                                         0502
A0101400730111688987001GRUBA, ERIC GUTLAY                                       0501
A0101401960121295973001**********                                               0503
A0101401960121464343001**********                                               0502
A0101400440161525001112JELLIE ANN D. LOMAHAN                                    0501
A0101400440161525001139JEMARIE S. SALUDAR                                       0501
A0101401090171196072001CARLOS M. ALMEDA                                         0510
A0101401090171781384001********                                                 0502
A0301400530193710800001TABANAO, JESICA G.                                       0501
A0101407140213023148001**********                                               0502
A0101407140213240516001**********                                               0504
A3001400130230767566012RAFIL, SHARON PEROCHO                                    0501
A1001400190231520766032BAGARES, JENYFER SATE                                    0501
A1001400350233478374001JUNIO, ROGELIA A.                                        0501
A1001400350233478374039HELEN B. FELIZARTA                                       0502
A0101406460272232218001MARIANO, NORMITA T.                                      0501
A0101406620273236978001CALLEJA, HOWARD MACEDA                                   0503
A0101406620273417637001LAPUZ, ANNE SHARLYNE GOBOY                               0501
A0101400570281442475001AQUINO-AQUINO, PRUDENCE VALERA                           0501
A2001400290315640426001GO, ALICIA DEE                                           0502
A3401400280318478374006LOVERAS, EMCY DEL ROSARIO                                0505
A0101405650322647248001SEBASTIAN, GENEROSE ALIDO                                0501
A0101408820333335130001ANTONIA S. GORRE                                         0502
A0101402510341218093001ERLINDA I. BERNARDO                                      0502
A0101402510341331222002ERLINDA C. RECOCO                                        0501
A0101402510341553493001LORENZO, JOSEPHINE DELA PENA                             0502
A0101402060351414987003NOBLE, FELICISIMA CASANOVA                               0502
A0101402770391211308001*********                                                0505
A0101402770391361138001PERFECT NINE MARKETING                                   0501
A0101402770391472751004JERVIE RACELIS DE GUZMAN                                 0503
A0101402770391478374040LEONIZA V. SORIANO                                       0501
A0101408950396773717001AGUILAR, JOSEPHINE CABRERA                               0502
A2401400180411472836003OMEGA, LEE ANN GENILO                                    0501
A2401400180411729988001TAN, JOEL RECTO                                          0505
A0101403030441527683001**********                                               0501
A1901400160491635678001MARIVIC ATIENZA CANTES                                   0501
A1401400110492378227001VEJERANO, ROBERTO MAMORE                                 0501
A1401400110492427326004******************                                       0502
A1401400110492444354001************                                             0501
A0101407430503378525001EMMA C. MANALO                                           0501
A0101403580511150799002KAREN MACASAET                                           0505
A0101403580511151532002CYNTHIA R. MAMON                                         0506
A0101403580511152575001REX REDENTOR C. BERDOS                                   0503
A0101403580511196754001CARMELITA E. LA O'                                       0502
A0101403580511642950001RUJOHN B. BARRIENTOS                                     0501
A0101405940512285886001HUI HUN SO TAN                                           0502
A0101408110515524136001BRIAN STEPHEN T. YAP                                     0501
A0101403450521238066001**********                                               0505
A0101403450521238174001**********                                               0502
A0101403450521441986001**************                                           0520
A0101403450521493005001**********                                               0501
A0101407720602517817001TABLIZO, OFELIA ESPORNA                                  0501
A0101407720602660482001CATALAN, MARIE JOYCE FERNANDO                            0501
A0101408240711443671001CARMENCITA C. GUIAO                                      0501
A4101400390813478374014ELIZABETH V. EVAL                                        0501
A4101400420814017785001MONZON GENERAL MERCHANDISING                             0502
A4101400420814520766027ARUTA, CORAZON G.                                        0501
A4101400420814520766027ARUTA, CORAZON G.                                        0501
A4101400420814520766056MULIG, ESTER R.                                          0501
A4101400550815047552003DR. GASPAR MONTENEGRO                                    0501
A0101404840851478374115ERLINDA O. PRADO                                         0501
A0101404840851520766175RUTH CONDE                                               0501
A0101406750852478374117IDA MACARO                                               0501
A0101405070861027133001WORLDLINKS CABLE WORKS                                   0502
A0101405070861032590001J-VEL-PIL TRANSPORT SERVICES                             0502
A0101405070861198446004CALMA, VICTORIA                                          0502
A0101405070861202773002HUI, CHING CHUEN                                         0501
A0101405070861397365001UEDA, EDRALIN DUBLIN                                     0501
A0101405070861478374066ELMER LADRES APAS                                        0501
A0101405070861478374081ROANNE Q. MATENCIO                                       0501
A0101405070861478374086MARLYN C. GABEST                                         0502
A0101412050000000697190RIVERA, TEODO DBU BLAZE EFX                             10501
A4101400420000000710563RAPI, CANDY S OR RAPI SR.,                              10501
A0101407720000000713040REVILLA, VICENTE G. OR                                  10502
A0101405070000000741508RAGAS, REDEEM MONGADO OR                                10501
A0601400360000000978732MAGTIRA, J DBU SAINT HOMOBONUS                          10501
A0601400230000001062457RAMOS, MANILYN GOZUN OR                                 10501
A3101400870000001146521TAYONG, JEFFERSON ARGETE OR                             10501
A0101412500000001146963SANTOS, GERALD J. OR BALILO,                            10502
A0101410690000001284311TANCHIP, NATALIE LIMSIN OR                              10501
A0301400950000001379579BUENAFLOR, ALEXIS C. DBU                                10501
A1301400500000001412388GERONIMO G. QUIZA JR. OR                                10501
A4101400260000001783662FLORESCA, RUTH DBU MENSPOWER                            10501
A4101400260000001783673IBANEZ, DBU FIFTH AND FOURTH                            10503
A5001400170000002023585RIVERA, ELMER YABUT OR                                  10502
A0601400100081025360002AMOR REFRIGERATION & AIR                                10501
A0101407270162041797001BEATALENT DEVELOPMENT AND                               10505
A0101401090171196045001RAMON JAVIER &/OR STEPHANIE                             10508
A3101400450223352819001FARAON, RIZALINA OR                                     10502
A1001400190231380503007DRA. CYNTHIA BACONGA                                    10503
A0101406620273358539001MARIA TERESA L. JAHRLING OR                             10501
A2601400270302733483001JENNIFER OR EMILIA TALAVERA                             10505
A0101402060351009359001JIANDANI, SURESH G. OR                                  10501
A2401400180411454257001PIDO, HELEN L. OR                                       10501
A2401400180411555962001SILVA, VIOLETA P. OR                                    10502
A0501400170481252358004ARACELI A. MATIAS OR                                    10502
A0101403580511035474001JADE INDUSTRIAL SUPPLIES                                10503
A0101403580511150629008MIRIAM HIPOLITO OR RAMONA PENA                          10501
A1301400340683367953001FELLO, ROSEMARIE RODIL OR                               10502
A0101405070861321046002GERLY LEBRIA OR                                         10501
A0101412050000000697190EVENTS PRODUCTIO                                        20500
A4101400420000000710563NESTOR M                                                20500
A0101407720000000713040REVILLA, ALEJANDRO L.                                   20500
A0101405070000000741508RAGAS, NILA S.                                          20500
A0601400360000000978732PHARMA HEALTH ENTERPRISES                               20500
A0601400230000001062457RAMOS, JOHN RAYMOND DUCOT                               20500
A3101400870000001146521TAYONG, AIREEN ESGUERRA                                 20500
A0101412500000001146963VICTOR M.                                               20500
A0101410690000001284311VILLASENOR, FLORIAN M.                                  20500
A0301400950000001379579AB & UD ENTERPRISE                                      20500
A1301400500000001412388MA ROSELLE P. QUIZA                                     20500
A4101400260000001783662TRADING                                                 20500
A4101400260000001783673AUTO SHOP                                               20500
A5001400170000002023585RIVERA, CHINITA GO                                      20500
A0601400100081025360002CONDITION REPAIR                                        20500
A0101407270162041797001MARKETING                                               20500
A0101401090171196045001JAVIER                                                  20500
A3101400450223352819001BELEN, RHODORA                                          20500
A1001400190231380503007PHILAMCARE DOCTO                                        20500
A0101406620273358539001ANGELO JAHRLING                                         20500
A2601400270302733483001OR GAUDIOSO TALAVERA JR.                                20500
A0101402060351009359001JIANDANI, KAVITA                                        20500
A2401400180411454257001PIDO, NOEL C.                                           20500
A2401400180411555962001SILVA, MARCELINO                                        20500
A0501400170481252358004ROBERT CONRAD A.                                        20500
A0101403580511035474001AND SERVICES                                            20500
A0101403580511150629008OR GERALDINE LIMOSNERO                                  20500
A1301400340683367953001FELLO, BISMARK C                                        20500
A0101405070861321046002MARK LAURENCE LEBRIA                                    20500
B0101402060000000022766SUMMA WATER RESOURCES INC.                               1603
B1301400210000000023474RICH-WELL INTERBRAND CORPORATION                         1602
B0101412630000000024080E3F LENDING INVESTOR INC.                                1602
B0601400360000000025732TECNET ASIA, INC.                                        1603
B0101409210000000031290LSC CORPORATION                                          1602
B0101407430000000035316D' FRADA ALLIED SERVICES INC.                            1602
B0501400200000000035710GOLDEN DRAGON MOTOR SALES CORP.                          1601
B1901400320000000041301FIRST INNER TRADE CREDIT CORPORATION                     1601
B0101407430000000044926JOSEPH BINGE B. MACASERO                                 1602
B0101403450000000135555LE FRANK INGREDIENTS PHILS. INC.                         1605
B0101406620000000194085MERCHANT EXPRESS E-CARD SERVICES IN                      1605
B0101403580000000214695MEC - SONRIA                                             1610
B0101407140000000266266LIWAFI ENTERPRISES                                       1602
B0101405070000000428966ONEWORLD ALLIANCE LOGISTICS CORPORATION                  1605
B0101401090000000772383THE OTHER WHOLE CHICKEN INC.                             1601
B0101411080000000806013******                                                   1608
B0101403580000000922861INNOVATHINK CORPORATION                                  1602
B0101404840000001312292LIFTER SYSTEMS INC.                                      1605
B0101408820000001880639CHUA, WILLY DBU BEAJETT MARKETING                        1603
B0101400150061021925001EASTERN PETROLEUM CORPORATION                            1605
B0101400150061039626002MENZI & CO., INC.                                        1602
B0101400150061043646001ARRAKIS HOLDINGS, INC.                                   1602
B0101410560110047207001WELLKNIT MANUFACTURING CORP.                             1605
B0101401090171029222001QCMP INC.                                                1601
B0101407140213626061001SOUTHERN LUZON FEEDMILL INC.                             1610
B3101400160221016581001ONE WORLD REALTY CO.                                     1602
B1001400350233535822001CHAN JR., BENJAMIN PO                                    1605
B0101406460272045485001DREAMVENTURES PROPERTY MANAGEMENT C                      1603
B0101400570281027866001MEDICAL EQUIPMENT HEALTH CARE GROUP                      1605
B2001400290315044204001ACEBANK CREDIT, INC.                                     1601
B0101402510341196738001BERNARDO MAINTENANCE SERVICES                            1603
B0201400760374037583001...........                                              1605
B0101402770391035790001NEWBIG FOUR J CONSTRUCTION INC.                          1604
B5501400120410041925008EASY PAY FINANCE CORPORATION                             1602
B0101403580511043261001*****                                                    1602
B0101405940512037554001THE COVENANT CAR COMPANY, INC.                           1601
B0101408110515021706001XORAND ZOLUTIONS CORPORATION                             1603
B0101403450521011736001COFTA MOULDINGS CORPORATION                              1603
B0101403450521021821001********                                                 1605
B0101407560686009918001ACQUISITIONS INDUSTRIAL CORP.                            1602
B4101400420814044710001RDJ CAR PARTS CENTER                                     1601
B0101405070861024123001TRAVEL SCENE, INC.                                       1602
B0101405070861025608001G-LINE TRADING                                           1602
B0101405070861029453001UNGSON AND UNGSON & CO.                                  1601
B3101400450000000014115KABALIKAT PARA SA MAUNLAD NA BUHAY INC.                 11606
B0101414120000000399031JESUS CHRIST THE MASTER BUILDER INTERNAT                11601
B0301400790000000435749ZHEN FENG FISHERY LIMITED LIABILITY                     11601
B0101412500000000739737MIKEWELL WORLD OF HOUSEHOLD PRODUCTS                    11603
B0101407270162037305001MICROGOLD INFORMATION SOLUTION AND                      11610
B6601400120314043609006FUNDACION GRAMEEN PILIPINAS INC.                        11610
B0101408950396044935001GORDON & ASSOCIATES PHILIPPINE OFFICE                   11605
B1201400150421496291001LIQUETE, DOLORES SAGUID OR LIQUETE,                     11601
B0101406750852020394002EQUITABLE BANK VILLAGE HOMEOWNERS                       11601
B0101405070861601168002ERMITA SEAFOOD & NIGHT MARKET COMPLEX                   11610
B3101400450000000014115(KMBI)                                                  21600
B0101414120000000399031IONAL MINISTRIES                                        21600
B0301400790000000435749COMPANY, INC.                                           21600
B0101412500000000739737CORPORATION                                             21600
B0101407270162037305001PRODUCTS, INC.                                          21600
B6601400120314043609006LAVEZARES BRANCH                                        21600
B0101408950396044935001CORP.                                                   21600
B1201400150421496291001LEONARDO                                                21600
B0101406750852020394002ASSOCIATION                                             21600
B0101405070861601168002INC.                                                    21600
B2801400100712821100608**********                                               2005
