F1301400470252441893001BALANCIO, ELIZABETH N.                                   2502CKO
F0101408370382026159001BREWCREW, INC.                                           2502CKO
F0101413280000000041892INTERNET OF THINGS PHILIPPINES                           2601CKR
F0301400110191047580122MEGA DURIAN MOBILE GROUP, INC.                           2603CKR
F0301400110191047580133MEGA DURIAN MOBILE GROUP, INC.                           2601CKR
F0301400110191047580144MEGA DURIAN MOBILE GROUP, INC.                           2601CKR
F0301400110191047580168MEGA DURIAN MOBILE GROUP, INC.                           2603CKR
F3101400450223018554002COCOLAND ESTATE COMPANY                                  2601CKR
F1901400290261041998001QUALIMEAL FEEDMILLS INC.                                 2602CKR
F0101409050352040155001E.M. CUERPO, INC.                                        2610CKR
