A0101411530000000013732CALILUNG, TARCISIO SURLA                                 0501
A0101411530000000013732CALILUNG, TARCISIO SURLA                                 0501
A0201400890000000027990MULLEY, AIRIZA ACIDO                                     0501
A2401400180000000073561JANROBS MARKETING                                        0503
A3101400870000000074673MILAN, JANELYN REOYAN                                    0501
A0101402350000000145640PATRICK E. YAP                                           0502
A3101400450000000163506PEREZ, RAFAEL SALAMAT                                    0501
A0101402640000000202068**********                                               0502
A5501400120000000265850SUENO, ISMAEL JADE BERNARDO                              0503
A0601400520000000398410SUAREZ, GLORIA DE LEON                                   0501
A0901400220000000425045LOZADA, ELIZABETH GO                                     0501
A0101405490000000444411WEA S. BABINA                                            0502
A0101404420000000471885ONA, DONATO JAY MENDOZA                                  0501
A0101407690000000495410******                                                   0502
A0101408790000000579773ASIDDAO, HEHERSON MIRANDA                                0502
A4101400420000000710347MADALI, WENSIE MOLINA                                    0501
A4101400420000000710358MADALI, WENSIE MOLINA                                    0501
A0101412630000000801621LIBREA JR., ENRICO MAURICE S.                            0501
A0101410850000000844695CASTILLO, DBU KING ABAK B CASTI                          0501
A4101400260000000974089BONGLO, JAIMIE LOUISE MIGUEL                             0501
A0101402640000001054346CASTRO, JENNIFER LIM                                     0502
A0101405490000001092637GRACE L. SALAZAR                                         0501
A0101404000000001187008SUNSUI PURIFIED DRINKING WATER                           0503
A0101402350000001474324MARTINEZ, KENNETH BUHAT                                  0501
A1101400120000001920656GULA, ROGELIO PAGPAGUITAN                                0502
A0201400890000002270617*************                                            0501
A0101400730111382944001FLORENTINO, MARI-ROSE CRISOLOGO                          0501
A0101400440161525001112JELLIE ANN D. LOMAHAN                                    0501
A0101400440161670356001MA. ESTELA . CLEOFE                                      0502
A0101407270162093047001MA. ROWENA P. MARAVILLA                                  0501
A0101401090171196037001EMILIO A. HERNANDEZ JR.                                  0505
A0101401090171197924001OSCAR D. NG                                              0505
A0101407140213300351001**********                                               0501
A0101407140213387771001**********                                               0501
A0101407140213399303001**********                                               0501
A3101400160221386295002ROBERT J. BANATIN                                        0501
A1001400190231024431001FMN AGRICULTURAL SUPPLY, INC.                            0502
A1001400190231339933001MOORJANI, NOOR G                                         0502
A2601400270302794359001VENILDA S. ZARA                                          0501
A1101400120313478374005MONTANA, BERNADETTE R.                                   0501
A1101400120313478374049BANTULA, EVELISA F.                                      0501
A0101402350321280548001NASSER, MA. THERESA BUSTOS                               0501
A0101402350321280548003NASSER, MARIA THERESA BUSTOS                             0501
A0101402350321478374013ROSALINA M. MARAVILLA                                    0501
A0101402350321671189001DELOS SANTOS, EDUARDO DORIA                              0502
A0101408820333158643001ROSITA L. TAN                                            0501
A0101402770391752292002JUANITA OR TOMAS OR BENJAMIN VI                          0501
A0101405490392478374021MARIETTA S. CAIBIGAN                                     0501
A0101405490392547709001FLORA AVILA SARMIENTO                                    0501
A0101412210399094817019VILLAMOR, MA. ANGELA G.                                  0501
A2401400180411275790003MALCAMPO, DIOSIE AGUIRRE                                 0501
A2401400180411478374020MORI, LYDIA                                              0502
A2401400180411580807001BESANEZ, MARITES ARCENAL                                 0501
A2401400180411744426001ENGCONG, JAY CUEVAS                                      0501
A0101408110515345484001JOVITA S. TINGZON                                        0501
A0101404000551150500002SAMIA, RYAN                                              0501
A2201400250561074416001JANNET D. FRANCO                                         0501
A0101407720602415232023ARLYN L. SONGCO                                          0502
A0101407720602537364001SANTIANO, JOHN ALMODOVAR                                 0501
A0101404260611037351001SMD JANITORIAL SERVICES                                  0501
A0101404260611152369002BATASIN, ARLENE AGBAYANI                                 0501
A0101409920650478374016CIENCIA, JERAMIE ABALUNA                                 0501
A0101407690652455653001PEREZ, EDGARDO OR PERLA                                  0501
A0101407560686243172001ALEJANDRA E. DRUECO                                      0501
A0101407560686478374012LEONILA SORIANO                                          0501
A0101407560686624543001ROANNE E. DRUECO                                         0501
A0101408240711336084001EVA M. LUMBAN                                            0502
A0101408240711392969002SAZON, MARGARET MARY GOLDEN                              0502
A0101408240711512358001TUPAZ, MARTIN ANTHONY RONQUILLO                          0502
A4101400550815047619001HIMOC, RUBY ESTOR                                        0501
A0101404840851478374096MARIA JESUSA G. BATARIO                                  0501
A0101402770000000360763FELIX, ELE DBU JELLY ICE                                10502
A2401400180000000555015ONG, AIRA MAE JAVIER DBU SMARTA                         10503
A5001400170000001003381CALIMUTAN, OHARA DELA CERNA OR                          10502
A0101413570000001069501MEMBERS OF NATASHA                                      10501
A0101405940000001210073AGUSTIN, LAWRENCE FRISCO OR                             10501
A0601400520000001349662TIMBOL ROMAN MANALOTO                                   10501
A0101411530000001393642FERDINAND ONG OR NELLIE ONG OR                          10502
A0101400150000001422133SAMBALE, ANALYN M. OR                                   10501
A0101412890000001765404ACUNA, SALVADOR A OR ACUNA,                             10503
A0101413440000002339551TAMAYO, GERARD CHRISTOPHER B.                           10503
A0101400150061226725001DALMACIO H. GREGORIO OR                                 10501
A0101400150061412381001VILLARUZ, MA. CORAZON A. OR                             10501
A0101401090171196330001TAN, EMILY BEYAOJU                                      10502
A0101401090171197918001DRS. MELVIN R. MARCIAL OR                               10501
A0101406620273505530001MANDANAS, NOEL MOTTIL OR                                10501
A0101402350321180985003HO, CHIEN CHUNG OR                                      10501
A0101402510341323156001ROMINA R. BARCARSE OR                                   10501
A2401400180411343170001RAMOS, EDUARDO UBONGIN OR                               10501
A2401400180411501589001VALILA, NOL S. OR VALILA, MA.                           10501
A2201400250561302797001RANDOLPH C. TAJANLANGIT OR                              10510
A2201400250561484428001WILSON LAO SIO OR                                       10502
A0101407720602165627001DR. ALVIN M. SANTOS OR                                  10503
A0101407720602165627004ALVIN SANTOS OR                                         10502
A0101407720602397494001GENARA M. LIMSON M.D. OR                                10501
A0101409890649797980001DE JESUS, TERESITA NEPOMUCENO                           10501
A0101409890649797980004DE JESUS, TERESITA NEPOMUCENO                           10503
A4101400390813046750001MARQUEZ, MELANIE DBU LEIYHZ                             10501
A0101402770000000360763DELIVERY                                                20500
A2401400180000000555015IRE AIRCON SPECIALIST                                   20500
A5001400170000001003381CALIMUTAN, REGINALDO G.                                 20500
A0101413570000001069501SUSANA B. SANTOS                                        20500
A0101405940000001210073JAVIER, LUVIE                                           20500
A0601400520000001349662ACCTNG & TAX CONSULTANCY                                20500
A0101411530000001393642EMIL RAYMUND ONG                                        20500
A0101400150000001422133SAMBALE, ALBERTO V.                                     20500
A0101412890000001765404ALONA C                                                 20500
A0101413440000002339551OR DELA CRUZ, MICAH                                     20500
A0101400150061226725001JULIETA A. GREGORIO                                     20500
A0101400150061412381001VILLARUZ, JOSEPH                                        20500
A0101401090171196330001OR MARY B. TAN                                          20500
A0101401090171197918001MARIA PAULETTE MARCIAL                                  20500
A0101406620273505530001CO, NANCY M.                                            20500
A0101402350321180985003CHUANG, SHIH-SEN                                        20500
A0101402510341323156001DOMINGO R. BARCA                                        20500
A2401400180411343170001RAMOS, GINA SONATO                                      20500
A2401400180411501589001LOURDES D.                                              20500
A2201400250561302797001CATALINA B. TAJANLANGIT                                 20500
A2201400250561484428001EDUARD LAO SIO                                          20500
A0101407720602165627001DR. NORA FIGUEROA-SANTOS                                20500
A0101407720602165627004NORA FIGUEROA-SANTOS                                    20500
A0101407720602397494001ANTONIO LIMSON                                          20500
A0101409890649797980001DELA TORRE, JUST                                        20500
A0101409890649797980004OR DELA TORRE, JUSTINE JO                               20500
A4101400390813046750001TRADING                                                 20500
B0101408660000000034302EDGECOMM INC.                                            1601
B2401400180000000073750OCEAN DELI PACKING CORP.                                 1610
B0101403450000000135588ALOHA PLASTIC PRODUCTS, INC.                             1603
B0101403450000000135599TCB ROYAL INDUSTRIES INC.                                1603
B0101411080000000806035PLASTIKBAGS INC                                          1605
B0101411080042041218001******                                                   1601
B0101400150061047235001ROYAL METRO POINTE DEVELOPMENT INC.                      1602
B0101400730111015420002FELANER REALTY DEVELOPMENT CORPORATION                   1605
B0101407270162035909001REYSONS EXIM INTERNATIONAL, INC.                         1605
B0101407270162040113001EVERGREEN ENVIRONMENTAL RESOURCES I                      1603
B0101401670271672165001DATA LAND INC.                                           1620
B0101406620273017460002ACCENT MICRO PRODUCTS, INC.                              1605
B0501400200292037748001FIRST EMA WEST CREDIT CORPORATION                        1605
B0101402350321046511001SIDAMO DISTRIBUTION INC.                                 1603
B0101402640361027755001CARE 1ST CORPORATION                                     1605
B5501400120410044488008**********                                               1605
B0501400170481018109002****                                                     1605
B0101403450521032691001***************                                          1605
B0101407720602428613001DERMA 360 CORP.                                          1601
B0101404260611010597001FMW HUMAN RESOURCES INTERNATIONAL                        1606
B01014042606110209570013G CABLENET AND CONSULTANCY INC.                         1602
B0101404840851009284001UNIVERSAL GLASS CO., INC.                                1601
B0201401020000000005034PINOY ENTREPRENEURS FOR SUSTAINABLE                     11602
B1001400480000000133508TURNSAT INTERNATIONAL LOGISTICS                         11606
B1001400350000000244368PHILIPPINE GAMS GENERAL INSURANCE AND                   11601
B0601400520000000398567MADAPDAP EDUCATORS MULTIPURPOSE                         11601
B0301400790195054051001VILLA JOSEFINA RESORT VILLAGE HOMEOWNERS                11601
B1001400350233039884008SOUTHMIN FOOD CHAIN CORPORATION -                       11610
B2401400180411023294001RD TUNA VENTURES, INC.                                  11620
B3801400170490053997001ORIENTAL MINDORO ELECTRIC COOPERATIVE,                  11601
B0201401020000000005034OPPORTUNITIES                                           21600
B1001400480000000133508CORPORATION                                             21600
B1001400350000000244368FINANCIAL SRVCS                                         21600
B0601400520000000398567COOPERATIVE                                             21600
B0301400790195054051001ASSOCIATION INC.                                        21600
B1001400350233039884008JB SUPERCENTER                                          21600
B2401400180411023294001TIN:001-947-522                                         21600
B3801400170490053997001INC.                                                    21600
B0101415220613821100608**********                                               2002
B0101415220613821200608**********                                               2002
