F3201400190000001493803CECILE Y. YAGO OR                                       12502CKO
F1901400290261282086001DRA. CECILIA MARIE                                      12502CKO
F4101400260812389694001MELCHOR RODEROS OR                                      12501CKO
F3201400190000001493803ISAGANI Y. YAGO                                         22500CKO
F1901400290261282086001ATIENZA RAMOS                                           22500CKO
F4101400260812389694001OLIVIA RODEROS                                          22500CKO
F0201400180181051629001PRIFOOD CORPORATION                                      2602CKR
F0101406620273019596002TGV BUILDERS, INC.                                       2603CKR
F0101402480331010181004******                                                   2605CKR
F1301400210682012930002ST MATTHEW FUNERAL                                       2605CKO
F0301400790195054735001BROTHER BRYAN'S FOOD                                    12601CK1
F0301400790195054735002BROTHER BRYAN'S FOOD                                    12601CK1
F0301400790195054735001CORPORATION                                             22600CK1
F0301400790195054735002CORPORATION                                             22600CK1
F0201400180181047201198HINGSING COMMERCIAL CORPORATION                          2702CKC
