A0101406460000000021785YAP, KENNETH CHRISTIAN TENG                              0501
A0301400660000000023047SEAWHALE CUSTOMS BROKERAGE                               0505
A0201400890000000028015*****************                                        0501
A0101400860000000031596**********                                               0501
A0101407690000000053881********                                                 0503
A0101401250000000057032COLLANTES, ANALIZA CORACHIA                              0501
A6601400120000000060471CUPIDO, BABY LYN MALINAO                                 0501
A4101400420000000120787PENASO, MARIA CONCEPCION LUNA                            0502
A0101400310000000140810***                                                      0501
A2801400100000000188312REYNALDO C NADAR                                         0501
A0301400660000000194483LABOR, CHRISTOPHER HERRERO                               0501
A0301400660000000194643MANILA, MARIA ZENAIDA ARFAPO                             0501
A0101402640000000202079PALAD, RAYMUND PERALTA                                   0502
A0101409890000000209163CAMBRONERO, ELENITA APO                                  0502
A1301400500000000213141FERNANDEZ, JENNIFER ELORZA                               0501
A0201400760000000222977HERNANDEZ, JAN RYAN CANDOLESAS                           0501
A0201400760000000222988*****                                                    0502
A0601400360000000225243SY, JAIME BARRAMEDA                                      0501
A5501400120000000265718JAVELOSA, TERESITA SEROFIA                               0501
A5501400120000000265729FUNGAN, ANTONIO BONA                                     0501
A4101400550000000315182MARGAJA, FELICITA BITOR                                  0501
A0101406750000000358332CIELO, EVELYN CAPULOS                                    0501
A0101414120000000398932R. ACOSTA ENTERPRISES                                    0501
A0101414090000000399311ESTEBAN, CHRISTINNE JOY ANDRADE                          0501
A0301400790000000436008MANALILI, ANNABELLE LEONOR                               0501
A0101412180000000501511YU, VENGIE TUPAZ                                         0502
A0101407720000000510847TARIPE, ROXIE JOHN BACALLA                               0501
A0101403320000000522103SALALIMA, ROMMEL CUARESMA                                0503
A1301400210000000540914RAMOS, ALLAN BAUTISTA                                    0501
A0101404260000000550138CRUZ, JESSICA NUNEZ                                      0501
A2601400270000000561740EMILIA M. BAUTISTA                                       0501
A0101413440000000570187LUCES, ALMA CHICO                                        0501
A0101411790000000575991FORMILLEZA, JR BERNAL                                    0501
A0101414120000000649014PENGSON, ALEXANDER BERNARDO                              0501
A0101414120000000649116STEADFAST BUILDERS, THE                                  0504
A1901400320000000679170LEA KRISTINE JOY A SEGUNIAL                              0502
A0101407720000000713028ANDREI RHONEIL M. RODRIGUEZ                              0502
A0101403320000000735911CRUZ, CATHERINE TIMON                                    0501
A0101408820000000800202*******                                                  0502
A0101408820000000800213BAYBAYAN, RIZA TEJADA                                    0501
A0101411080000000805696*************                                            0501
A0101400150000000806804FOJAS, GOGI GARBANZOS                                    0501
A0101410560000000848711LAMBERTO, MARICEL OCILLADA                               0501
A0101414120000000875550STORM CONSTRUCTION                                       0502
A0101414120000000875867ESPOLONG, JAN CASSIE GARCIA                              0501
A0101407690000000913677QUIROD, MICHELLE SHYLOCK PICIO                           0501
A2001400290000000924670UYPITCHING, CECILIA JUSTO                                0501
A2001400290000000924721FERNANDEZ, JOEBERT ABEJARON                              0501
A3001400130000000931282BALANGA, MARIO FERNANDEZ                                 0501
A3001400130000000931293BALTAZAR, EDDIE UBA                                      0501
A3001400130000000931300SANCHEZ, REY CARY MANLIGUEZ                              0501
A0101404840000000943215WEALTHY ENTERPRISES                                      0501
A0101406620000000962232MANIMTIM, NELL MORALES                                   0501
A0101413990000000969188SORIANO, FELY STA ROMANA                                 0501
A2001400290000000977999BITOON, JOSELITO CABIGUIN                                0501
A2001400290000000978003BESARIO, FRANCIS SAGURAN                                 0501
A0601400230000000989922CALING, CHERRY ROSE SERRANO                              0505
A0101407430000001028784JENNIFER B. TAN-AWON                                     0501
A2201400250000001065992RONALDO S. CEREZO                                        0502
A0101413570000001069483JOSEFINA E. GAMIL                                        0501
A3101400450000001104061BEARNEZA JR., GERARD JUDE STONE                          0501
A4101400260000001198563BACOLOD, SADAM SARIP                                     0501
A4101400260000001198574BONGCAYAO, EDILITA APELLIDO                              0501
A0101402510000001297252VARGAS, JONATHAN FRANCISCO                               0501
A0101400860011388376002**********                                               0503
A0101400150061228609001CYNTHIA C. JUATON                                        0501
A0101400150061229957001KU, VICENTE S.                                           0501
A0101405810072296440002************                                             0503
A0101405810072300425001**********                                               0501
A0101405810072444240001*************                                            0505
A0101405810072710181001**********                                               0501
A01014108501090870520010109-087052-001                                          0501
A0101400730111386485042ELENA B. PEREZ                                           0502
A0101401830141378455001MANUEL E. TEODORO                                        0501
A0101401830141752259001CARANDANG, FREDERICK ANGELES                             0503
A0101407270162038034001MARGIE & GIGI CATERING SERVICE                           0501
A0101401090171504210001ALBINA R. GANDALLA                                       0501
A0301400660194772365001*****                                                    0503
A0101400310211039046001DRAGON FORCE SECURITY AGENCY                             0502
A0101400310211738119001QUEZANA, EXCELYN MANGUERRA                               0501
A0101407140213021357001168 CORPORATION                                          0501
A0101407140213403392001**********                                               0501
A0101407140213517215001**********                                               0503
A1301400470252510537001ALBERT C. TOLENTINO                                      0505
A0101406620273216083002*******                                                  0501
A0501400200292567569001LARILYN D. GATCHALLAN                                    0501
A6601400120314648495001ADORA, GENARO TUBALLAS                                   0501
A0101405650322412858006CABUNTOG, GINA B.                                        0501
A0101408820333478374062SANDRA G. BUENO                                          0501
A0101402510341196638002MARIA RENITA F FABIC                                     0502
A0101409050352042103002PACIFIC SMILES DENTAL CARE                               0502
A0101402640361044022001JIMBES PRINTING                                          0501
A0101402640361307841001SILVANO, ROMULO MADERA                                   0502
A0201400760374030540001ST. FRANCIS MANPOWER SERVICES                            0501
A0201400890376192121001TORRES, GIL FERDINAND ABELLO                             0502
A0101408370382508055001**********                                               0502
A0901400220432095446001CARLA CHUA DONAYRE                                       0501
A0501400170481044150001LIVING FAITH GENERAL MERCHANDIS                          0505
A0501400170481257285001ELVIRA G. VIRAY                                          0501
A0101403580511396632002JIMMY FRANCISCO P PEREZ                                  0504
A0101403450521061888001***********                                              0501
A0101403450521238596001**********                                               0503
A0101407720602166765001MONTEVERDE, ROGELEN ARMADA                               0501
A0101407720602396682001FOJAS, MYRNA SOLIS                                       0502
A0101407720602415232017ARNEL A. JAVIER                                          0501
A0101404680651520766128MELITA C. VELARO                                         0501
A0101407690652455653001PEREZ, EDGARDO OR PERLA                                  0501
A0101411950680046399001ISLANDGRAFICS ENTERPRISES                                0501
A1301400340683361105001DELA CRUZ, ESTER SANTIAGO                                0502
A0101408240711378646001FELMA C. ONG                                             0502
A2801400100712311102001CHARINA N. HIPOLITO                                      0501
A2801400230713771317001NACIONAL, NATHANIEL ARZAGA                               0501
A4101400390813246359002LEGASPI, NORLINDA RODRIGUEZ                              0503
A4101400390813378814001GIGI D. ABOGADO                                          0501
A4101400420814520766065ANGUE, HONEYLYN D.                                       0501
A4101400420814520766135MOTILLA, ROSELLE                                         0501
A0101404840851217637031JOSELITO DANCEL                                          0502
A0101406750852478374117IDA MACARO                                               0501
A0101408240000000005450BAILON, CAROLINA PATRICIA                               10501
A0101407690000000154794PETER C. SANGUENZA - DEALERS OF                         10501
A0101410300000000191928MANGUERRA, RYAN OR CAROLINE OR                          10501
A0101414090000000399297SANTOS, JOSE ANGELO B. AND                              10501
A0101408240000000521975SALAR, DBU MARGENEL TRADING AND                         10501
A0101407690000000587782RAUL N. MEDINA OR REMEDIOS M.                           10501
A0101404420000000866360SAMONTE, LEONORA DOMINGO OR                             10501
A0101402640000001054211ARCIETE, AGAPITO M. OR                                  10501
A1901400290000001195142ESTEBAN ALDRIN HERNANDEZ BISA                           10501
A0101401250021793819001CARASIG, CLARITA ALFONSO OR                             10502
A0101401090171197850001TERESITA G. ALMADIN                                     10501
A0301400660194731082088PEJI, JUNE ANN SOLER OR PEJI,                           10505
A0101400310211157320001ESPERANZA BAGUINO OR                                    10502
A0101401670271192707006FEDERICO C. LIM OR TORRES,                              10502
A0101406620273400631001DINDO P. SANCHEZ OR                                     10502
A0101402060351652524001SYTANGCO, ROY IMPERIAL OR                               10502
A0101402640361423715001DE LEON, JILL SOLOMON  OR                               10501
A0101408370382234715003DR. ANTHONY RICHARD G. NUNEZ OR                         10502
A5501400120410645073001GARCIA, LILIBETH L. OR GARCIA                           10503
A0101403320471207895001AMBROSIO OR JOSEPHINE TOBIAS                            10502
A0101403580511152491001FERMIN ANTONIO S. FRANCISCO OR                          10504
A0101407720602396413002DR. RAMON FRANCISCO OR                                  10504
A1301400500684589977001VIOLAGO, MA. LORENA M.OR                                10501
A4101400260812030742002GODGIVEN PHARMACY & GENERAL                             10505
A0101408240000000005450GARCIA                                                  20500
A0101407690000000154794SHOECAT INC.                                            20500
A0101410300000000191928NICKER SON                                              20500
A0101414090000000399297MARIANO, MONICA BIANCA B.                               20500
A0101408240000000521975CONSTRUCTION                                            20500
A0101407690000000587782MEDINA                                                  20500
A0101404420000000866360SAMONTE III, SOL                                        20500
A0101402640000001054211ARCIETE, CATALINA I.                                    20500
A1901400290000001195142OR DONNA MARIE G ORILLA                                 20500
A0101401250021793819001CARASIG, GIL ALCORIZA                                   20500
A0101401090171197850001OR ROMEO G. ALMADIN                                     20500
A0301400660194731082088JONATHAN CORTES                                         20500
A0101400310211157320001EMMANUEL BAGUINO                                        20500
A0101401670271192707006VIRGINIA CHRISTINE L.                                   20500
A0101406620273400631001EMILY H. SANCHEZ                                        20500
A0101402060351652524001TAGALA, GINA ADA                                        20500
A0101402640361423715001SOLOMON, LUISA M                                        20500
A0101408370382234715003DR. IRMA G. TAN-NUNEZ                                   20500
A5501400120410645073001JOHN M.                                                 20500
A0101403320471207895001OR MARK ALVIN TOBIAS                                    20500
A0101403580511152491001MA. CARMELA M. FRANCISCO                                20500
A0101407720602396413002IRENE FRANCISCO                                         20500
A1301400500684589977001VIOLAGO, GIDO C.                                        20500
A4101400260812030742002MERCHANDISE                                             20500
B17014002300000000105665 SISTERS REALTY & DEVELOPMENT CORP                      1601
B0101407140000000015083**********                                               1602
B0101407690000000025032GOLDLINK NETWORK SOLUTIONS INC.                          1601
B0101413280000000041870ST. JOHN THE BAPTIST PARISH                              1601
B0101404840000000090322TOM'S WORLD PHILIPPINES CORPORATION                      1602
B0101404840000000090333JOY PLANET INC.                                          1602
B1001400190000000124865JATICO, JOSEPH GALDO                                     1601
B0301400660000000194990CMGCOR CORPORATION                                       1605
B0101414120000000649138GREEN CONCEPT SYSTEMS PHILS. INC.                        1605
B0101401090000000772349*********                                                1601
B0301400660000001113733*****                                                    1603
B0101400860011242516001*********                                                1603
B0101400150061047585001888 ETHNIC HOME FURNISHING CORP.                         1606
B0101400730111030043001SANTORINI FOOD SERVICES INC.                             1605
B0101401830141019452001CARITAS MANILA, INC.                                     1605
B0101401830141028708001RONAR GENERAL CONTRACTOR                                 1603
B0101407270162031133001LUCKY CENTRO VENTURES INC.                               1605
B0101407270162040037001LUCKY 5 KOI INC.                                         1605
B0101400310211037423001VEND VENTURES, INC.                                      1605
B0101407140213012467001**********                                               1601
B0101407140213035967001MAYLAND CONSTRUCTION & ELECTRICAL SUPPLY                 1601
B3001400130230042943088VENTURA PLYWOOD PHILIPPINES INC.                         1610
B0101401670271672666001NTC IMPORT EXPORT INC                                    1605
B0101405650322045513001INTERCHEMEX LABORATORIES INC.                            1601
B0101402060351022206001ASSOCIATION OF NON-PROFIT CLUBS INC.                     1601
B0101402640361016142001STO. NINO KAPITBAHAYAN ASS. INC.                         1601
B0201400760374272956001YU, DESSUM LIM OR YU, EMMA LAU                           1601
B0101403030441314128003**********                                               1601
B0101403320471039191001MAR-V-RITZ TRADING - BRANCH                              1602
B0101407430503006821002ADMIN - PEOPLE'S AIR CARGO                               1605
B0101407430503045993001VIREO LOADWORKS INC.                                     1602
B0101407720602531007002BAJA MEXICAN CANTINA CORPORATION                         1603
B0101404420631041921002IMPERIAL ZONES MARKETING AND CONSUL                      1601
B0101407690652041723001WICKET TRADING                                           1602
B0101407690652042938001SIGNWOOD HARDWARE & LUMBER SUPPLY                        1603
B2801400100712028150001SUBIC NEXUS TECHNOLOGIES INC.                            1603
B0601400230891021614001QUIOC (D) QUIOC & ASSOCIATE                              1602
B0301400820000000024933CHONG, ANNE VALLERIE OR CHONG, ARNOLD                   11601
B0101408240000000832542SCORPIO TRANSPORT & MANNING SERVICES,                   11603
B0101401830141290260001HENRY MAGTALAS OR GEMMA MAGTALAS OR LEE                 11601
B6601400120314043609004FUNDACION GRAMEEN PILIPINAS INC.                        11603
B0301400820000000024933ANTHONY                                                 21600
B0101408240000000832542INC.                                                    21600
B0101401830141290260001MARVIN MAGTALAS                                         21600
B6601400120314043609004CATARMAN 2 BR.                                          21600
B0101401250021821100608**********                                               2010
