F0101409890649047073001SOLID-ONE MILLS PHILIPPINES,INC                          2602CKR
F3101400740000000013903INDORAMA VENTURES PACKAGING                             12603CKR
F3201400190000001493045DR. ROMEO P. PIRA DBU PIRA CLINIC &                     12601CKO
F3101400740000000013903(PHILIPPINES) CO                                        22600CKR
F3201400190000001493045HOSPITAL                                                22600CKO
