A6601400120000000022328MACABUHAY, MARIA LORENA PONELAS                          0502
A0101401700000000030064**********                                               0502
A4101400420000000120765BORLAS, GINA MANSIT                                      0502
A1001400190000000124821GONZALES, ROSELYN TUMOPAS                                0501
A0101406750000000358310TRIAS, AGNES DE JESUS                                    0502
A0101409890000000437405REYES, MICHAEL CONCEPCION                                0502
A0101404420000000472246GARDOSE, JOSIE F.                                        0501
A0101408240000000521822MANGLAPUS JR., RAUL LAO                                  0501
A0101409920000000523711CHOA, JOSE K. JT.                                        0501
A1101400120000000652697CASTILLOTE, GRACITA G.                                   0501
A0101404840000000683443EVELYN FRIAS                                             0502
A0101400150000000807421MIGUEL ENCARNACION                                       0501
A0101401830000000865130ANGELES, ALTON GLENN NEPOMUCENO                          0502
A0101401700000000890397JOSE BRAGAIS BORITO                                      0503
A0101403580000000922690CATHERINE LANORIO FLORES                                 0501
A0601400360000000978947PALISUC, MARIA AYANA PURI                                0501
A1001400480000001054875MAGARET, GREG PABIA                                      0502
A1001400190000001057545JAIME C. BEDRO                                           0501
A5501400120000001122063NAVARRO JR., ROMERICO BALUYOT                            0501
A0301400820000001185848SELGAS, RAPHSEL R.                                       0501
A0101413150000001288342******                                                   0502
A0101407270000001597191ETHEL D. ASCUETA                                         0501
A0101404680000001617363MUTUC, RENATO LOPEZ                                      0502
A3401400280000001723502KUAN, NELSON BAYOGOS                                     0501
A0101404260000001725491JOHN & DANE BUILDERS                                     0502
A0101404260000001725526********                                                 0502
A0101401960000001844497SUING, H DBU H. SUING CONSTRUCT                          0501
A0101401960000001844566PANESA, SALVACION VALEZA                                 0501
A0101406750000002040271EVANGELISTA, JOSEFINA MALLARI                            0502
A0101400440000002249572GALVEZ, LORENZO GALLEGO                                  0502
A0101403580000002265534JOY GUEVARRA PIZARRO                                     0501
A0101410690000002290655ALEGRE, LYNADA GARCIA                                    0501
A0101401250021698692001ROCELIE M. PALMOS                                        0502
A0101400150061341283001DIAZ, CYNTHIA MARTINEZ                                   0501
A0601400100081297133001DIZON, CRISANTA GALANG                                   0510
A0101401960121239341001**********                                               0501
A0101401960121239548001MELANIE YAO                                              0501
A0101401830141205710001*****                                                    0503
A0101401830141306069001CORTES, GENARA MOLINA                                    0502
A0101400440161520766080ROLANDO E. IGMEN                                         0503
A0101400440161525001055MA. LUZ E. ABIERTA                                       0501
A0101400440161525001070MARIBEL S. SOLEDAD                                       0501
A0101400440161525001105VIRGIE B. CRUZ                                           0501
A0101407270162333465004ARLENE A. BILTZ                                          0502
A3101400160221220999001**********                                               0502
A3101400160221478374027ERNESTINA S. VILLANUEVA                                  0501
A1301400470252592183001FERDINAND S. BERNARDO                                    0501
A0101406620273301500004CONRADO F. BATE                                          0502
A0101406620273720692001******                                                   0502
A3401400280318478374002PIONELO, LENIDIE DEVELOS                                 0501
A3401400280318478374007BASINANG, DIA GUADARAMA                                  0501
A0101402510341381018001DANICA FRANCIA SANCHEZ CAUDAL                            0501
A0101402510341527509001ROWEL E. ANTONIO                                         0501
A0201400890376513914001*********                                                0501
A5501400120410652031001CABUCAY, EFREN VASQUEZ                                   0501
A1201400150421256143001MILAGROS CHAN                                            0501
A0101403030441707375001**********                                               0502
A1401400110492378227001VEJERANO, ROBERTO MAMORE                                 0501
A0101403580511420184003MARIA CAROLINA S. MACASAET                               0512
A0101408110515041358001MADE IN HEAVEN ENTERPRISE                                0501
A0101403450521356203003**********                                               0502
A0101404130601433647002MENDOZA, MARRA LLAMADO                                   0501
A0101407720602166697001MARY MILAGROS D. UY                                      0510
A0101407720602332798001ARNEL DIAZ OR LOURDES DIAZ                               0502
A0101407720602382305001PARDINAN, ROSSANA O.                                     0501
A0101404260611312084001CHING KIN NAM OR ROSA CHING                              0502
A0101404260611478374121FLORDELIZA B. HUVALLA                                    0501
A0101404680651325371001NANCY O. TAN                                             0502
A1301400340683478374060YUMOL, EVANGELINE HEMENTERA                              0501
A4101400420814443810001DORIO, MELANIE AQUITANA                                  0501
A4101400420814478374144JOCELYN TALANA                                           0501
A0101404840851436137001BAGANO, ROLANDO PAGADUAN                                 0501
A0101404840851520766002CYNTHIA S. GERODIAS                                      0501
A0101401700000000040239ESTINOPO, DBU RJL CAR PARTS                             10510
A2401400180000000826186OMOSO, J ZA KO OR OMOSO, JAN                            10501
A0101409920000001951891MEMBERS OF NATASHA (SHOECAT INC                         10501
A0101401830000002274400TIRAO, ANDREA DE VERA OR                                10501
A1301400340000002283781RODELIO D. RUBIO OR                                     10501
A2801400230000002312301GAMBOA, LOVELY KAHAEL DOMINGUEZ                         10505
A0101408240000002821672OCAMPO-CHUATICO, MARIA REGINA                           10501
A0101401700041316267001REYNALDO B. BONGALOS OR                                 10515
A0101401830141579042001CATHERINE P. ABULENCIA OR                               10501
A1001400350233506665002EMMANUEL C. LIMBO OR HELEN M.                           10505
A6601400120314622580001SOSING, CAROL O. OR FELIPE A.                           10505
A0101402060351367081001CLAVECILLAS, ELIZABETH C. &/OR                          10502
A0101403580511362753001ANNIE P. MENDOZA OR                                     10503
A2201400250561478374059NELY B. TAN                                             10501
A0101404130601450094004PASCUAL, LORQUEL OR PASCUAL,                            10501
A0101407720602399815001ALEJANDRO, RUTH MARGARET                                10501
A0101404260611150840001WILLY CHING OR ISIDORA CHING/                           10505
A0101410300663238188001SHARE, JACK TAKYAM S. OR SHARE,                         10501
A0101406750852615338001CHAVEZ, ANGELO D. OR                                    10501
A0101406750852673534001TOLENTINO, DEBORAH SARAH D OR                           10502
A0101401700000000040239CENTER                                                  20500
A2401400180000000826186TRISTAN V.                                              20500
A0101409920000001951891BARTE, CECILE                                           20500
A0101401830000002274400TIRAO, FRANCISCA FERRER                                 20500
A1301400340000002283781ALONA D. ALIPIO                                         20500
A2801400230000002312301OR PURUGGANAN, AJ P.                                    20500
A0101408240000002821672DIZON                                                   20500
A0101401700041316267001MARICEL BONGALOS                                        20500
A0101401830141579042001NAMIE P. ABULENCIA                                      20500
A1001400350233506665002LIMBO                                                   20500
A6601400120314622580001OR CAROLYN O.                                           20500
A0101402060351367081001CLAVECILLAS, REY                                        20500
A0101403580511362753001JULIAN J. MENDOZA                                       20500
A2201400250561478374059MEMBERS OF NATASHA                                      20500
A0101404130601450094004ANNIE S.                                                20500
A0101407720602399815001FRANCISCO                                               20500
A0101404260611150840001GOLDSUN LUMBER                                          20500
A0101410300663238188001JACQUELINE S.                                           20500
A0101406750852615338001BARLAAN, CHRISTY                                        20500
A0101406750852673534001DE LEON, RUBEN L                                        20500
B3401400280000000002375DY, CARLOS CHENG DBU C & L TRAVEL &                      1601
B0101409210000000031290LSC CORPORATION                                          1602
B1201400150000000034379GOSHEN LAND CAPITAL INC.                                 1605
B0101406040000000096684OTEX INCORPORATED                                        1601
B0201400760000000222762UY, JOHN CHIU OR JOHN JEFFERSON UY                       1605
B0101400440000002846564L. GALVEZ CONSTRUCTION                                   1602
B0101400150061584014001PNEUMATIC AND MECHANICAL SERVICES INC.                   1602
B0101400730111008255001MASAGANA TELAMART, INC.                                  1605
B0101400730111023283001INTRALAND RESOURCES & DEV'T. CORP.                       1605
B0101401960121011796001**********                                               1610
B0101400440161007221001ILA EXPRESS HAULER                                       1602
B0101402060351023992001TRAINING FOR EXCELLENCE CORPORATION                      1603
B0101409210398055066001PHILIPPINES URBAN LIVING SOLUTIONS                       1601
B5501400120410654342008SAY, CLETO OR FELING OR HELEN OR DANNY                   1605
B0101407430503028318001LONGHORN TRANSPORT SERVICES INC.                         1605
B0101407430503702144001TOP MINDS MANPOWER SOLUTIONS INC.                        1602
B0101403580511038113001MACEDA VALENCIA & CO.                                    1605
B0101403580511515198001ATMA INTERNATIONAL CORPORATION                           1601
B0101403580511682308001AMARA HOLDINGS INC.                                      1602
B0101408530516042275001MEGA MINT LENDING CORP.                                  1602
B0101404260611044359158GREAT ARCHER SALES                                       1603
B1301400210682012959002COLEGIO DE CALUMPIT INC.                                 1610
B4101400260812039799001LAGAMAYO DENTAL CORPORATION                              1602
B0101406750852006838002***************                                          1601
B0101401830000000033592CARITAS SALVE CREDIT COOPERATIVE                        11603
B0101401830000000033605CARITAS SALVE CREDIT COOPERATIVE                        11603
B0101410300000000191586MEJIA, MELODY ANNE DBU MEE NOODLE BAR &                 11602
B1601400170000000497029RAVALO MACHINE SHOP & AUTO                              11605
B1101400120000000652960CHILDFUND INTERNATIONAL,USA DBU THE NAME                11610
B0101405490000001092411BARANGAY SUN VALLEY MULTI-PURPOSE                       11602
B0201400760374249471002COMMONWEALTH INSURANCE COMPANY                          11602
B0101401830000000033592TAYUMAN                                                 21600
B0101401830000000033605QUIAPO                                                  21600
B0101410300000000191586RESTAURANT                                              21600
B1601400170000000497029SUPPLY, INC.                                            21600
B1101400120000000652960CHILDFUND PHILS.                                        21600
B0101405490000001092411COOPERATIVE                                             21600
B0201400760374249471002-OPERATING FUND                                         21600
B0101412500214821100608**********                                               2001
