A0101410690000000001792*********                                                0504
A2201400250000000016942AMELIA F. MANALO                                         0501
A0101412470000000026822O, HERBERT LAO DBU EASYBUYS CAR                          0505
A0101412630000000045292***************                                          0501
A0101400440000000060313VALDOZ, GERALYN FERNANDEZ                                0501
A0101400440000000060335LYNDEE ANN D. SIA                                        0502
A1401400110000000132841*******                                                  0501
A0101400310000000140883QUERIMIT, PRISCILLA TORRES                               0501
A5001400170000000213841GAMALINDA, ELENA TUBAON                                  0502
A1901400160000000243650**********                                               0501
A0101404420000000471910******                                                   0501
A0101412470000000520163QUIZON, TRINA or QUIZON, MARC                            0501
A0101411660000000595313GASPAR YU OR ASHOK RAMNANI                               0501
A0101401250000000907113DE UNGRIA, CHRISTIAN EDWARD G.                           0501
A0101403580000000922601BERNADETH AMEDAO LOPEZ                                   0501
A0101410720000000967900EFFINGER, JON ERIC                                       0502
A0101409050000000999660GUERRERO, MARVIC TUD                                     0501
A0101412890000001056171RLC WATER ESSENTIALS                                     0501
A6601400120000001065332POQUIZ, LORNA VICTORIA RAMIS                             0501
A0501400200000001081003VERDEFLOR, SHERYL MANIO                                  0501
A5501400120000001121760SALOMA JR., RODELYN CASANAYAN                            0501
A5501400120000001121793SOTELO, MAYRANDIE PANO                                   0501
A0101411660000001145744JOHNNY HYUK PAEK                                         0501
A0101412500000001146758MARIANO, RICHEL PELIGRO                                  0501
A0101402640000001150116RODRIGUEZ, JENNIFER MAPALAD                              0501
A0101402640000001150127TIDOY, LORENZA REALIN                                    0501
A0101404000000001186790PANINGBATAN, LOVELY DELA CRUZ                            0502
A0101407560000001276200SHIONEL OR ROSINE GESITE                                 0501
A0101402510000001292433********                                                 0501
A0101409210000001294377TEMBREVILLA, JEFFREY ALDABA                              0501
A2001400290000001301299LUMAYA, PONCIANA PADAYHAG                                0501
A2001400290000001301302AMOR, AVELEX SALINAS                                     0502
A2001400290000001301313TUMULAK, NEMIA PALAHANG                                  0501
A2001400290000001301324MACASUKIT, ALI PERSLEY JACINTO                           0501
A0601400520000001349593ARCEO, RACHEL ROMERO                                     0501
A6601400120000001370536CORNILLEZ, LIDANY FUENTEBLANCA                           0502
A0601400100000001442820DE LEON, EMILYN MALLARI                                  0501
A0101412630000001485309CANLAS, JOSEPH SPYROUS PAJEL                             0501
A0101402640000001536567BANDONG, REYNALDO BANIQUED                               0501
A0101409920000001539482RIVAS, MARY ANN JANE                                     0501
A0101410720000001602153*****                                                    0501
A4101400260000001673510ODON, IBRAHIM SIMON                                      0501
A2401400180000001676957MERCADO, MABEL POVADORA                                  0501
A0101404680000001716536IBANEZ, LEO LESTER FEJER                                 0502
A0101400310000001842800REGUNAN, ROGELIO TORIBIO                                 0501
A0101400860011392490001**********                                               0505
A0101400860011394597001**********                                               0501
A0101400860011397182002**********                                               0503
A0101400860011688547001**********                                               0504
A0101400860011707584001**********                                               0502
A0101400150061277658001ESTRELLITA V. ONG                                        0501
A0101400600071308774001**********                                               0501
A0601400100081023131001ADYR TRADING                                             0506
A0101400440161513931001FAUSTO, DANTE FERNANDEZ                                  0502
A0101401090171202049001BELINDA V. DE CASTRO                                     0502
A0101400310211549489003CATRIZ, DIGNA GATUMBATO                                  0501
A0101407140213312567001**********                                               0503
A3101400450223223458004ALVERO, LEAH AURORA TOLENTINO                            0501
A3101400450223576401001GALLEGO, DHARIA CAJAYON                                  0502
A3001400130230094974001BRAVO, ROSEPT EBARLE                                     0501
A3001400130230094974001BRAVO, ROSEPT EBARLE                                     0501
A1001400190231283324001GICABAO, BENY CHAN                                       0501
A1001400190231478374178SANCHEZ, MELORY                                          0501
A1301400470252478374027RICA D. SANTIAGO                                         0501
A1901400290261298552022ALVIN DEL ROSARIO MAGNAYE                                0502
A0101401670271189252001LOURDES LIM LEE                                          0506
A0101400570281188304001DR. EDUARDO C. FIRMALO                                   0502
A0101400570281636271001ROMELITO M. SABINO                                       0501
A1101400120313478374079CORANEZ, MARIJOE N.                                      0502
A0101402510341204644001DE NULLY, CORAZON MORANTE                                0502
A0101402060351282067001CASTRO, EMMANUEL MANALAD                                 0501
A0101402640361044586001KYSHHI KENZO GEN. MERCHANDISE                            0502
A0101402640361170240002**********                                               0502
A5501400120410675739001BAYLON, EDWIN ELLON                                      0501
A2401400180411478374067CORTAL, CYNTHIA DE LEON                                  0501
A2401400180411609791001*********                                                0505
A0101403030441648140001**********                                               0510
A0501400170481257443001JUANITO L ONG JR                                         0501
A1901400160491633278001FERNANDO EDRALIN TRINIDAD                                0501
A1401400110492090259001JIMENEZ, ROSEMARIE FLORES                                0501
A0101407430503185438005LETICIA D. JIMENEZ                                       0501
A0101403580511005206001MAURINO P. BOLANTE                                       0504
A0101403580511716577001LEONIDA A. CONCEPCION                                    0502
A2201400250561529504002*****                                                    0502
A0101407720602378666002FILOTEO CERENO FERRER                                    0502
A0101404680651520766138FLORENTINA B. ALLINAS                                    0502
A0101410720653006457001UNCLE BEN'S BAKESHOP                                     0501
A0101410720653173243001ARLENE MAE LIM OR DOLORES LIM                            0501
A0101410720653478374012MYRA E. ISIP                                             0502
A0101410720653478374054CRISTINA CALDERON                                        0501
A4101400260812541863001RACQUEL MARICAR G. MALLARI                               0501
A4101400260812631418001MICHAEL LIM TAN                                          0505
A4101400420814478374162RODORA A. CAUSAREN                                       0501
A4101400420814520766138SAN PEDRO, ANA LIZA                                      0501
A4101400550815303157001OMANDAM, JOSEFINA FULGENCIO                              0501
A0101404840851217637044ALFREDO B. ALARCON                                       0502
A0101404840851403905002MONTERDE, ARNEL MORA                                     0501
A0101404840851413054001EDO, NENE GURO                                           0501
A0601400230891041621001GH MAGLAQUI INC.                                         0501
A0101407560000000003425SANTOS, WILFREDO OR                                     10501
A4101400420000000018453MANSIT, EVELYN DBU MANSIT                               10502
A0101412470000000026786MARIA OR ALBERTO OR ANA                                 10502
A0301400790000000040826CHUA, ALEX DBU DAVAO GALAXY                             10501
A0101410720000000234860AROMIN JR., BENJAMIN DOMO OR                            10501
A0101412920000000276362PENIALBER, MARK ANTHONY OR                              10501
A0101400570000000470546DR. JEANETTE TAACA-BITO OR                              10502
A0101412890000001056462GO, FLORINDA DE GUZMAN OR MANAL                         10501
A4101400260000001135011OMELGO, RAMIL MERSADO OR OMELGO                         10501
A0101409920000001539493ROSS, ELLY FAJARDO OR                                   10501
A0601400230000001687385CASTRO, JAN IRIS DBU IRIS INSUR                         10501
A4101400390000001732452BLANCAFLOR, GENALYN DBU G.B.B                           10501
A0601400100081358739001CHUA, IRENE ANUNCIACION                                 10503
A0101400310211799830001ESPIRITU, EDGAR DBU CHRISTIAN                           10503
A1301400470252471884001EDWARD P. VILLALON OR                                   10501
A1901400290261552901001JOEY CRISOSTOMO MOISES OR                               10503
A0101402350321185166001GARCIA, DANILO M. OR JULIE M.OR                         10502
A0201400920375520997001JUMUAD, LAARNIE CARREON AND                             10501
A1901400160491298907001SANTISIMA B HERNANDEZ OR                                10501
A0101410720653380605002DR. ANNE MARIE REALISTA PE                              10502
A1301400210682628277001ADELIA MARIA B SOTO OR                                  10501
A0101407560686366970003CRUZ, RICHELLE OR BRIAN ULEP OR                         10501
A0101408240711228456002MA. VICTORIA MANIQUIS                                   10502
A0101408240711383150001AURELIO III OR AURELIO JR.                              10501
A0101407560000000003425SANTOS, BIENVENIDA                                      20500
A4101400420000000018453REALTY                                                  20500
A0101412470000000026786MARGARITA PADILLA                                       20500
A0301400790000000040826MARKETING                                               20500
A0101410720000000234860AROMIN, MARISSA                                         20500
A0101412920000000276362PENIALBER, NHELLEAH                                     20500
A0101400570000000470546IVANA VICTORIA T. BITO                                  20500
A0101412890000001056462ILI ZARAH JANE GO                                       20500
A4101400260000001135011MARIVIC PARAN                                           20500
A0101409920000001539493CABAGTONG, CRESTINA M.                                  20500
A0601400230000001687385ANCE AGENCY & GEN. SERVIC                               20500
A4101400390000001732452DRY GOODS SHOP                                          20500
A0601400100081358739001OR REYES, GLORIA                                        20500
A0101400310211799830001PRINTING                                                20500
A1301400470252471884001MARY ANN L. VILLALON                                    20500
A1901400290261552901001ANALIZA GUTIERREZ MOISES                                20500
A0101402350321185166001MARY CHERRIE PIE                                        20500
A0201400920375520997001DIEZ, LEOMEL DIE                                        20500
A1901400160491298907001MARIE JANE H VINAS                                      20500
A0101410720653380605002AGUIRRE-ENECO                                           20500
A1301400210682628277001MANOLET C SOTO                                          20500
A0101407560686366970003NEIL GARRET ULEP                                        20500
A0101408240711228456002OR STEVE MANIQUIS                                       20500
A0101408240711383150001OR AARON LITONJUA                                       20500
B0101412890000000007007CREATIVE FILES INC.                                      1602
B0101407140000000266244**********                                               1601
B0101412920000000276711KALAKAL FOOD CONCEPT INC.                                1601
B0101409920000000436997ABAIN, ANNALYN S. DBU VINALYN'S TRADING                  1601
B0101404000000000460940MTQCORP INC.                                             1605
B0101411660000000751495HYDRA PAINTING COMPANY, INC                              1601
B0101408400000001258588MJZION FURNITURE SHOP                                    1601
B0101400860011305536001**********                                               1601
B0101401830141019859001NIPPON WARE MANUFACTURING CORPORATION                    1602
B0101407270162509140001UNITED HAULERS SERVICES COOPERATIVE                      1605
B3101400450223022719001GENCARS SAN PABLO, INC.                                  1610
B3101400450223647264001BIO-AGRITECHNOLOGY INC.                                  1603
B0101401670271034948001REALTY INVESTMENTS INC.                                  1605
B0101401670271038486001POWER FASHION INC.                                       1605
B0101406620273041414001GANO I-TOUCH PHILIPPINES INCORPORATED                    1605
B0101400570281046883001SURE CURE PHARMA INC.                                    1604
B1101400120313036429001PERPETUAL HELP MULTI-PURPOSE COOPERATIVE                 1602
B0101402350321028856001AEROBUS TRANSPORT CORPORATION                            1602
B0101402350321037880001UNITRADERS ALUMINUM & GLASS CORP.                        1602
B0101402640361027755001CARE 1ST CORPORATION                                     1605
B0101402640361032684001GREENSTONE PACKAGING CORP.                               1605
B0101402640361038833001KASAGANA-KA DEVELOPMENT CENTER, INC                      1605
B0101403030441239743001**********                                               1605
B0501400170481018109002****                                                     1604
B0501400170481025398002****                                                     1601
B0101403580511015278001MTV REALTY CORPORATION                                   1603
B0101406880513005366001SDS EXPRESS INTERNATIONAL INC.                           1601
B0101406880513281235002LUCKY MONEY LENDING CO., INC.                            1603
B0101407720602043283002MAKATI PEDIATRIC PULMONOLOGISTS INC                      1601
B0101410720653561759001KNOX.COM CORP.                                           1602
B0101410300663044473001******                                                   1603
B0101402350000000145639FERANIL, GINA BACAY AND OLIVAREZ-ORTEZA,                11601
B0101401700041192799001ZFG REFRIGERATION & AIR CONDITIONING                    11601
B5501400120410275634002BAUTISTA, RYAN REYES OR PIODOS                          11602
B2401400180411014575003SOCSKSARGEN FEDERATION OF FISHING &                     11603
B0101403450521012087001PACIFIC PLACE MULTI DEVELOPMENT                         11603
B0101407720602027833001PHILIPPINE CENTER FOR DIABETES EDUCATION                11602
B1301400210682038666001EMERALD MANAGEMENT SERVICES &                           11601
B0101402350000000145639IMELDA DE LEON                                          21600
B0101401700041192799001SERVICES                                                21600
B5501400120410275634002EMARIE LEE                                              21600
B2401400180411014575003ALLIED IND.                                             21600
B0101403450521012087001CORPORATION                                             21600
B0101407720602027833001FOUNDATION INC.                                         21600
B1301400210682038666001CONSULTANCY                                             21600
B0101402510341821100608**********                                               2010
