F0101403290000000749822CARISSA JAN O TABIA                                      2501CKO
F0101400150061372876001SUMULONG, JUAN CARLOS BENARES                            2502CKO
F4101400260812039607020TRINIDAD GERALDINE PURUGGANAN                            2502CKO
F0301400110191028746001SKS INTERIORS INC.                                       2601CKR
F0301400110191047580144MEGA DURIAN MOBILE GROUP, INC.                           2601CKR
F0101406880513030248002FIVE9 PHILIPPINES, INC.                                  2602CKR
F0101404130601031677001CARRIEDO TOURIST DEVELOPMENT INC.                        2605CKO
F0101404130601033491002TOURIST ACCOMMODATION DEVELOPMENT INC.                   2605CKO
F0101404130601465803001ARTHUR C. KING JT                                        2605CKO
F0101404130601025271001LIBERTAD TOURIST DEVELOPMENT                            12610CKO
F0101404130601465827001KING, ARTHUR OR MARIA MARTA APOLONIA                    12605CKO
F0101404130601025271001INCORPORATED                                            22600CKO
F0101404130601465827001KING OR ESTRELLA                                        22600CKO
