 0601400360083591896001                                                           00
A1301400210000000023343LENY ROSE DC ACOSTA                                      0501
A0101406880000000027158ABELLO, JULIUS IVAN SAGMAKIN                             0502
A0101408240000000039854KIM, BYOUNGCHOL                                          0501
A0101412500000000041636EMPEMANO, FARLA CAROLYN GARCIA                           0503
A0101412920000000042042*****                                                    0501
A0201400920000000048031FMC CATERING SERVICES                                    0501
A4101400260000000048946BALESA JR., FRANCISCO AVILA                              0501
A0101408660000000059761TOBILLO, CECILIO NARVAEZ                                 0502
A0101405940000000061663PELAYO, HUDSON PETER LAPUZ                               0501
A2801400230000000063090PASCUAL, XENIA CUTIONGCO                                 0501
A0101403450000000135497********                                                 0501
A0101406750000000172956ARCAYA, ELDRID FELIXBERTO SUMO                           0501
A0101406620000000193719ASUNCION JR., ALEXANDER LIZARDO                          0502
A0101413570000000206260AC SHOWEREN 2000                                         0502
A0101413600000000206700********                                                 0502
A0101410720000000234951*****                                                    0502
A0101410560000000268400MACAJELOS SR., GEORGE EPARWA                             0501
A0601400520000000398396ROSETE, EMERALDO SALENGA                                 0501
A1601400170000000421229*********                                                0501
A0101407690000000495472NAGERA, MARY CATHERINE PUREZA                            0501
A0101407690000000495574YLEN, CRISTINA REQUEJO                                   0501
A0101404260000000532089HASSAN HAGHIGHI FARD, AHMAD ANC                          0501
A0101401830000000535660BAUTISTA, WILMA ABELLA                                   0501
A0101401830000000535671DEL VALLE, PEPITO SANUELE                                0501
A0101413440000000570223LABSAN, CARMEN DELA CRUZ                                 0501
A2001400290000000724572RAMAS UYPITCHING, NICOLAS SEE                            0501
A2001400290000000724641LARONA, STEVE VINCENT DUPIO                              0501
A0101412630000000801381ROMARAOG, ALENE GARING                                   0501
A0101400440000000821101ORENSE, JULIA AQUINO                                     0501
A0101400860011233237001ANGELA JULIAN                                            0501
A0101400860011399605001**********                                               0502
A0101400860011486826001**********                                               0502
A0101400860011516358001**********                                               0502
A0101401700041036012001MORNING GLORY AUTO SUPPLY                                0505
A0101400600071457180001**********                                               0501
A0101400730111199062001ESPIRITU JR., DOMINADOR I.                               0501
A0101400730111382944001FLORENTINO, MARI-ROSE CRISOLOGO                          0501
A0101400440161032066001MTS TUTORIAL CENTER                                      0502
A0101400440161039070001LGRM ENGINEERING & CONSTRUCTION                          0510
A0101400440161520766031EDITHA FELARCA                                           0501
A0101400440161525001183JUANITO P. LUSTERIO                                      0501
A0101407140213687102001**********                                               0502
A3101400450223028468001NEW ARMSTRONG SECURITY AGENCY                            0502
A1001400190231274963001CAPITAN, JOHN A.                                         0502
A0101406620273375724001JULIETA LAGMAY                                           0503
A2001400290315662264001MOHAMMAD JAVDANI SEPEHRI                                 0501
A0101408820333158716002**********                                               0501
A0101402510341202843003**********                                               0501
A0201400920375718608001DIZON, JONATHAN LLANTO                                   0501
A0101405490392177005001DOMINGA P. BUENAOBRA                                     0501
A2401400180411478374058MARY ROSE D. LIBRE                                       0501
A1201400150421384737002PERALTA, CARMELITA LALAS                                 0501
A1201400150421517542001SONGABEN, NORA PILIS                                     0502
A0101403030441303194001**********                                               0505
A0501400170481252349002LALAS, MAEVA DELA CRUZ                                   0502
A0501400170481322299001DR ALFREDO OR DR MADELYN DECENA                          0504
A1401400110492553574001ALCALA, MARY GRACE BENITEZ                               0501
A0101408110515392865001FRANCIS CONRAD L. MEDALLA                                0501
A0101408110515720923001KAREN JANE C. SARMIENTO                                  0501
A0101403450521238138001**********                                               0501
A0101403450521357926001**********                                               0501
A2201400250561433066001MIGNONETTE B. BAUTISTA                                   0501
A0101407720602397745001DE JESUS, CELESTINA MARCOJOS                             0501
A0101404260611491692001EDGARDO M BALANI                                         0501
A0101404260611621399001LANDERO, LORESA SANTOS                                   0501
A0101407690652034151001D' ABET JUNK SHOP                                        0502
A0101407690652699962001ABO, CONSTANCIA VERGARA                                  0501
A1301400340683476579001BORDADOR, CRISANTO DAZO                                  0504
A1301400340683502150002LLANILLO, OSCAR PINEDA                                   0502
A1701400230693478374040BAGAOISAN, DRIANITA CABANILLA                            0501
A0101408240711383461001SANG, PAUL OR IRIS                                       0501
A0101408240711566478001BHAUNANI, JENIEFER DIONISIO                              0501
A0101408240711799424001MADARA, JOSE MARIA NINO PARAS                            0501
A4101400260812611400001ARMANDO T. ATIS                                          0501
A4101400420814477593003BAUTISTA, TERESA PONCEJA                                 0502
A4101400420814520766056MULIG, ESTER R.                                          0501
A4101400420814520766134TERESITA A. CASTILLO                                     0502
A4101400420814667894001BLAKE, ANGELIQUE CARGANILLA                              0501
A0101404840851418760001DIMALIWAT, VILMA SANTOS                                  0501
A0101406750852478374118RUBY FLAVIER                                             0501
A0101412500000000041647CHAN, EDITHA GO DBU TOP EDGE                            10501
A0101413280000000041829FRANCISCO, JENNIFER R. OR                               10501
A2801400230000000063083CHAVEZ, MELANIO COSARES JT                              10501
A0101407690000000154750BARANGAN, ROMEO DBU                                     10501
A0101401960000000211003GO, JOHNSON CHUA OR                                     10501
A0101405490000000355719CRISTOBAL, IMMANUEL C. OR                               10501
A0101405070000000414548BALSAMO, VINCENT ALIOY                                  10501
A0101401250000000460666SANTOS, LUZ MILLAN OR                                   10502
A0101407690000000495421CUAZON, MARIBEL - DEALERS OF                            10501
A2001400290000000724652SENO JR., JOSEFINO ELNAR                                10501
A0101405070000000741133MAYLENE N. SEVILLA OR                                   10501
A0101405070000000741166MYLINDA M. VERDADERO OR                                 10501
A0101401250021179007001OLIVEROS, SYLVIA OR SHEILA OR                           10503
A0101407270162047398001YACHANG INTERNATIONAL                                   10502
A0101401090171608247001MARY ANN O. ALEMANIA OR                                 10501
A1001400190231040264001WESTBOUND PETRON                                        10502
A1301400470252507868001EDGAR P. CASTILLO, JR. OR                               10501
A0101406620273337587001SIMPLICIO C. BELISARIO JR. OR                           10503
A0101408660274521676001MABASA, CARISSA MOONYEEN S. OR                          10502
A2001400290315087033002ROLIDA, JASON UY OR ROLIDA                              10502
A0101402510341031743001H.R. RAPOSON ARCHITECT &                                10501
A0101402510341396098001SHARON LYN C. ROQUE OR                                  10502
A0101405490392173389001RICARDO R. GO OR                                        10505
A2401400180411338845001ROBERTO T. PERALES OR                                   10510
A2401400180411345642001DR. FRANCISCO OR DRA. LORNA                             10515
A1201400150421039385001JL'S CLEAN UP JANITORIAL &                              10503
A2201400250561478374059NELY B. TAN                                             10501
A2201400250561558363001JOSEPH B. SAWIT OR                                      10501
A0101407720602399405002CLAVER P. RAMOS, M.D. OR                                10503
A0101407690652478374090ESTELA REBANGCOS - DEALERS OF                           10502
A0101407690652478374143SHIRLEY PATALOD - DEALERS OF                            10501
A0101407690652520766007LOLITA SONZA - DEALERS OF                               10501
A0101407690652525001051ANNABELLE BADAYOS - DEALERS OF                          10501
A0101407690652525001060SUSANA MORENO - DEALERS OF                              10501
A0101407690652525001074COLLADO, ANGELYN A. - DEALERS                           10501
A0101408240711379306001RAYMUNDO SUAREZ OR                                      10501
A0101408240711616667001AGUILLON, JUVY MATA OR                                  10501
A0101405070861197518001RICARDO G. CHAN OR                                      10505
A0101405070861541117001BERNARD S. MOLANO OR                                    10502
A0101412500000000041647GARMENTS                                                20500
A0101413280000000041829FRANCISCO, EDMUNDO E.                                   20500
A2801400230000000063083OR CHAVEZ, MA. GESSEL T.                                20500
A0101407690000000154750BARANGAN TRADING                                        20500
A0101401960000000211003GO, MARIA MILAGROS CO                                   20500
A0101405490000000355719CRISTINA C. OR LIBRADO I.                               20500
A0101405070000000414548OR BALSAMO, MYLA FLORES                                 20500
A0101401250000000460666SANTOS, JOCELYN                                         20500
A0101407690000000495421SHOECAT INC.                                            20500
A2001400290000000724652AND SENO, NYMFA QUIBOT                                  20500
A0101405070000000741133MC ABIGAIL D. SEVILLA                                   20500
A0101405070000000741166MARLON D. VERDADERO                                     20500
A0101401250021179007001WARREN                                                  20500
A0101407270162047398001MANAGEMENT SERVICES CORP                                20500
A0101401090171608247001JOHN ALDRIN P. EBIO                                     20500
A1001400190231040264001SERVICE STATION                                         20500
A1301400470252507868001EVANGELINE N. CASTILLO                                  20500
A0101406620273337587001J0CELYN G. BELIS                                        20500
A0101408660274521676001MABASA, GERARD Q                                        20500
A2001400290315087033002SANDRA, UYMATIAO                                        20500
A0101402510341031743001BUILDERS                                                20500
A0101402510341396098001ERLINDA RECOCO                                          20500
A0101405490392173389001EVELYN  GO                                              20500
A2401400180411338845001JANET C. PERALES                                        20500
A2401400180411345642001LORENZO                                                 20500
A1201400150421039385001MANPOWER SERVICE                                        20500
A2201400250561478374059MEMBERS OF NATASHA                                      20500
A2201400250561558363001JOSEFINA B. SAWIT                                       20500
A0101407720602399405002THELMA E. RAMOS                                         20500
A0101407690652478374090SHOECAT INC.                                            20500
A0101407690652478374143SHOECAT INC                                             20500
A0101407690652520766007SHOECAT INC.                                            20500
A0101407690652525001051SHOECAT INC.                                            20500
A0101407690652525001060SHOECAT INC.                                            20500
A0101407690652525001074OF SHOECAT INC.                                         20500
A0101408240711379306001KIMBERLY SUAREZ                                         20500
A0101408240711616667001AGUILLON, LOUIE                                         20500
A0101405070861197518001OLIMPIA C. CHAN                                         20500
A0101405070861541117001CELY N. MOLANO                                          20500
B0101400150000000000204TRANS ASIA RENEWABLE ENERGY CORP.                        1602
B0101400730000000002557NORTHSTAR TRAINING & CONSULTANCY INC                     1603
B0101405940000000002951ALEXANDER COMMERCIAL, INC.                               1602
B0201401020000000005103PCD FUELS & ENERGY RESOURCES CORP.                       1601
B0101411790000000005329RIGELTECH CORPORATION                                    1601
B0101411790000000005330ZIMI TECH, INC.                                          1603
B0101400600000000007792**********                                               1601
B0101411110000000009098NET4SITE PHILIPPINES INC.                                1602
B1301400470000000009532PROSPERITY SUPERMART                                     1602
B2001400290000000020559RD CASH PADALA, INC.- DUMAGUETE                          1605
B1301400210000000023543SAN PABLO LIAM FOODS CORPORATION                         1603
B0101405070000000028919GRAND YOKO BAR AND RESTAURANT INCOR                      1601
B0101407430000000035270TURPS AND TUCKER INTERNATIONAL CORP.                     1602
B0101403320000000037647SIGLO  SHOES MANUFACTURING INC.                          1605
B0101412050000000043416********                                                 1601
B5001400170000000045150ESMART LIFE SOLUTIONS                                    1601
B2401400180000000073641SAN LORENZO RUIZ FISHING INDUSTRY, INC.                  1601
B0101400860011023116001**********                                               1601
B0101400860011242516001*********                                                1603
B0101400860011374746002**********                                               1601
B0101400860011490631002**********                                               1602
B0101400860011792731001**********                                               1603
B0101401700041024357001*****                                                    1603
B0101400150061009769001KEYLAND CORPORATION                                      1605
B0101400600071328360002**********                                               1601
B0601400360083505804002BGC PHILBUILDER INC.                                     1604
B0101401960121024740001**********                                               1605
B0101401830141020262001A. DE GUZMAN PHARMACY                                    1605
B0101401830141028161001EXTERMICON GENERAL SERVICES, INC.                        1603
B0101407140213371370001**********                                               1601
B1001400190231022229001CITY ALLIANCE CHURCH                                     1601
B1001400350233034600001UPTOWN GROUP OF COMPANIES INC.                           1610
B0101406620273029189001RG OFFSHORE FINANCIAL SERVICES LTD.                      1601
B2001400290315044204001ACEBANK CREDIT, INC.                                     1601
B0201400760374006430001CHRIST COMMISSION FOUNDATION INC.                        1602
B0101405490392711553001RABAHPHILIPPINES INC.                                    1601
B2401400180411039945001JMP BUILDING 1                                           1610
B2401400180411427719002PACQUIAO, JINKEE JAMORA                                  1610
B1201400150421031870002BLESSED ASSOCIATION OF RETIRED PERSON                    1602
B0101403320471032147001MEDZ SHOES CORPORATION                                   1602
B0101403320471043462001TRI POINT BUILDERS                                       1604
B1901400160491014714002TALUMPOK SILANGAN MULTI-PURPOSE COOP.                    1602
B1401400110492046339002****                                                     1615
B0101405940512025099002COMTHEX, INC.                                            1605
B0101406880513040116002GREENMILES TRANSPORT SERVICES CO.                        1603
B0101406880513504675001Y-FI CORPORATION                                         1602
B0101403450521011670001**********                                               1602
B0101404000551022188001AGUAMONDE WATER REFILLING STATION                        1601
B0101404000551031038001FUNHAUS BALLOONS AND PARTY NEEDS                         1601
B1301400210682026473001REGION III PESO MANAGERS FEDERATION                      1602
B2801400100712027300001PORTLAND MARINE SERVICES INC.                            1603
B0101406750852456290001**********                                               1602
B0101405070861047281001AVISTELE CORPORATION                                     1601
B1001400350233041564001INFORMATICS COMPUTER INSTITUTE CAG. DE                  11603
B1001400350233041564001ORO CENTER, INC.                                        21600
B1001400350233821100608**********                                               2005
B0101408530516821100608**********                                               2010
B2801400230713821100608**********                                               2002
