A0101411400000000001565REPATACODO, DBU A.B. REPATACODO                          0502
A2801400100000000004720REYES, MYRA DBU MRC DENTAL CLIN                          0501
A3101400160000000006475TENNESSEE H SEVILLA                                      0501
A0101410720000000008642MC BUILT ENTERPRISES                                     0501
A2201400250000000016975PADRE PIO ENTERPRISES                                    0506
A0101408400000000029558MARIA GIDGETA S. CAMPOS                                  0501
A0601400230000000045183MANUEL, JANE SALENGA                                     0501
A0101402930000000053363CALINGASAN, R DBU 2C ENTERPRISE                          0502
A0101400440000000060335LYNDEE ANN D. SIA                                        0501
A1701400230000000097803CUBANGBANG, MARLON VIERNES                               0501
A3401400280000000156654ROEVELLO P CHU OR ZHEENA D CHU                           0501
A0101402640000000201992FRANCISCO, ELIZABETH CASAL                               0502
A0101413570000000206380LEO FREDY N. ALOTA                                       0501
A0101401250000000441052ONGSUECO, SYLVIA K.                                      0501
A0101404420000000471903****                                                     0501
A0101404680000000697872GABRIEL D. BAQUIRAN                                      0502
A0101412760000000767751ROMERO, CATHERINE RIZO                                   0502
A0101402930000000859872ROSEMARIE ALEMANIA                                       0501
A0101414120000000875532R.M. PABUSTAN BUILDERS                                   0502
A0101414120000000875550STORM CONSTRUCTION                                       0502
A0901400220000000888002**********                                               0502
A0601400360000000978889DELA CRUZ, JOEL POYUGAO                                  0502
A1101400120000000992394REYES, CRISTINA MARIE OCASLA                             0502
A0301400790000001010591BARCELO, JENNIFER LANUTAN                                0501
A0101412340000001017503ORDONEZ, MAMERTA ALVAREZ                                 0501
A1001400190000001057589NORMALIS C. REYES                                        0501
A0101413570000001069443***********                                              0501
A3001400130000001271783WINPHARMA DISTRIBUTOR                                    0502
A0101401380000001412708FERRER SR., ALEXANDER CRUZ                               0501
A0101402480000001562192*************                                            0501
A0101408400000001614762CEDENO, NOEMIE DEDICATORIA                               0501
A4101400550000001622771NAAG, I DBU NEW ZUBIRI BUILDERS                          0501
A0101403450000001637943YAP, DY LING OR YU, LE KHENG                             0501
A0101414120000001642597ELICAS TRADING                                           0501
A4101400390000001732412PEREA, PAUL JOSEPH VILLAS                                0502
A4101400390000001732747GERNALE, MARICON CHERYL SORIANO                          0501
A4101400390000001732816VILLANUEVA, NORMAN SALAYO                                0501
A1101400120000001920496ADONIS, LILIAN TOLIBAS                                   0502
A0101402480000001927802***********                                              0503
A0101411080000002243129****************                                         0502
A3101400740000002634700OPULENCIA, CLINT ALMEYDA                                 0501
A0101400440000002639212LEONOR, RENANTE ELORZA                                   0503
A0101409050000002653023MACATANGAY, LALLIE F.                                    0501
A0101401250021478374014IRENE P. FADULLO                                         0501
A0101401700041192370001******                                                   0506
A0101401700041520874001SO, EDUARDO MORALES                                      0502
A0101411080042587892001****************                                         0502
A0101400150061227183001MA. MELISSA C. SERRANO                                   0501
A0101400150061227290001EBALDE, MA. VICTORIA QUIAEM                              0501
A0101400150061229213001IMELDA P. REYES                                          0501
A0101400150061401662001DAYAO, ROSALYN ZAPANTA                                   0501
A0101400150061453761046DE CHAVEZ, DIVINA GRACIA                                 0501
A0101400150061453761077POLICARPIO, JEMUEL AFABLE                                0501
A0101400150061474639001CABARRUS, MARIA REMEDIOS                                 0501
A0101400150061628287001TESORERO, MARY JANE ARTANA                               0502
A0601400100081252521001PALACIO JR., ERNESTO R.                                  0503
A0101400730111334903020SALAZAR, MARIAN TUBIG                                    0501
A0101400730111483566001MONZON, HOPE CUBITA                                      0505
A0101400440161478374076JAYNE D. BARBIN                                          0501
A0101400440161525001104EVELYN G. GARCIA                                         0501
A0101401090171196017002DR. IMELDA L. JAUCIAN                                    0510
A0101401380201320598001CHUA, CHING KAI                                          0502
A0101401380201689041001TAN, ALBERTO GALLARDO                                    0501
A3101400160221533274002DANILO T. RAMILO                                         0502
A3001400130230478374004BALABA, JANETH BORJA                                     0501
A1001400190231520766093DACUTANAN, REYNOZA RADOC                                 0502
A1301400470252478374027RICA D. SANTIAGO                                         0501
A0101401670271186251001DAHLIA P. STO. DOMINGO                                   0502
A0101406460272326885001CARIASO, CONSOLACION JUNIO                               0501
A0801400160311267104001SAN JOSE, BERMUNDO E.                                    0501
A0801400160311501420001MARY CON LOUISE H. EDERADAN                              0503
A0801400160311638278001DE ARROZ, ELMA SAMPIANO                                  0502
A0801400160311748497001SEVERINO, MYRA LUNA VILLARIN                             0501
A0101402480331091817168CUA, DAKILA CARLO ENRIQUEZ                               0501
A0101402480331223605001**********                                               0502
A0101402480331343580001**********                                               0501
A0101402480331444470001**********                                               0505
A0101402480331458551188**********                                               0501
A0101402480331520766046NUNEZ, EVANGELINE                                        0501
A0101402480331573059001CHINGCUANCO, FRANCISCO GO                                0501
A0101408820333224660001********                                                 0501
A0101408820333570500001********                                                 0501
A0101402930381478374009MARIVIC R. DELA CRUZ                                     0501
A0101408790383698989001CANDELARIA, MARY JANE DOMINGO                            0501
A0101408400394027889001TINA S. BERIN FLOWER SHOP                                0505
A0101408400394165609001TAN, REX BARRAMEDA                                       0501
A0101408400394404649001PRECIOUS LARA S. QUIGAMAN                                0503
A0101408400394478374077PEREZ, CONCHITA                                          0502
A0101408400394478374090MARY DUMASLAN                                            0501
A0101408400394478374091ANALOU SASUMAN MONTALES                                  0501
A0901400220432077473001**********                                               0502
A1901400160491244585001MARIO E VILLENA                                          0501
A0101407430503443538001RIVERA, ROWENA MENESES                                   0501
A0101408530516568727001MARKING, AMADO MATA                                      0503
A0101403450521441986001**************                                           0520
A2201400250561256082002JOSEPH P. CORTEZ                                         0504
A0101407720602228071001ANGELITA V. TORRES                                       0501
A0101407720602243511001LIZARES, NICOLAS                                         0501
A0101407720602396366001BRAVO, ARLENE RICARTE                                    0502
A0101410720653478374051MARIO MONTOJO                                            0501
A1301400500684638923001MARCELO, EVELYN CAO                                      0501
A0101407560686478374030BELINDA GUBAC                                            0505
A4101400390813329511003CARLITO B. CRUZ                                          0501
A4101400420814405680001TIBAYAN, CYNTHIA SAPUTIL                                 0501
A4101400420814478374044BERATIO, MARITES M.                                      0501
A4101400420814520766045BOCO, ADELA G.                                           0501
A0101404840851520417001GAREZA, FRANCIS MALONGAYON                               0501
A0101404840851520766037MAGDALENE DE GUZMAN                                      0501
A0101404840851520766073ELIZABETH A. SUAZO                                       0501
A0101404840851520766082ROGELIO LAYOS                                            0501
A0101406750852728177001GARCIA, MARITESS DELA CRUZ                               0501
A0101406750852739034001VERTULFO, AURORA DIZON                                   0501
A0101403320000000037727BERTULDO, AURIE DIA D.                                  10502
A0101412340000000224091ESTRELLADO, MELVIN WAYNE C.                             10501
A1001400480000000606882JADAP, M DBU EMC PLANTING                               10502
A4101400420000000710143GERONDA, RIZALDY DBU HRDG                               10502
A0101403320000001803021MEMBERS OF NATASHA                                      10501
A0101401250021178991002CUNETA, BIENVENIDO ESTRELLA  OR                         10501
A1001400190231380503007DRA. CYNTHIA BACONGA                                    10503
A0101401670271186351003BONITA L. DABU OR                                       10505
A0101406460272740774001JUANITA CO SHIA SY OR JULIE                             10501
A0101400570281370913001MARY ANN P. DE LOS REYES OR                             10501
A0801400160311347053002MA ELENA DIVINAGRACIA OR LLANE                          10501
A0801400160311389143001CHAN, MILAGROS OR                                       10502
A0101402480331219186001CRUZ, MARTINIANA C. OR                                  10502
A0101402480331220031002FEDERICO B. GARCIA OR                                   10501
A0101402480331452117001ENRIQUEZ,LUCENA OR IRENE OR                             10501
A0101402060351212481001LIM JR., EMILIO SUN OR SY,                              10502
A0201400760374047906001SAPAYAN LIM ALVAREZ & LIGUTAN                           10502
A0101408370382205119001DR. FLORANTE P. GONZAGA OR                              10502
A0101408400394417405001EVANGELISTA, JOSELITO OR                                10501
A0101408400394431804002CATABIAN, RACHEL CACHUELA OR                            10502
A2201400250561478374060MARIAN S. BANAAG                                        10501
A2201400250561478374062JENNIFER M. MARTINEZ                                    10501
A4101400390813470914001AZIS, ARMELA MERIADO OR HADJI                           10508
A0101403320000000037727DBU DIAMAS ENTER                                        20500
A0101412340000000224091OR PANGANIBAN, DESIREE G.                               20500
A1001400480000000606882MATERIALS AND GE                                        20500
A4101400420000000710143TIRE RECAPPING S                                        20500
A0101403320000001803021BERNADETTE F. BAUTISTA                                  20500
A0101401250021178991002MA. CONSUELO C. O'CONNOR                                20500
A1001400190231380503007PHILAMCARE DOCTO                                        20500
A0101401670271186351003LUCILA S. CLEMENTE                                      20500
A0101406460272740774001STEVEN CO TIU                                           20500
A0101400570281370913001LUVIE A. DE LOS REYES                                   20500
A0801400160311347053002GRACE DIVINAGRACIA                                      20500
A0801400160311389143001CHAN, NATHANIEL                                         20500
A0101402480331219186001CRUZ, MANUEL SR.                                        20500
A0101402480331220031002EMELITA P GARCIA                                        20500
A0101402480331452117001ENRIQUEZ JR., DE                                        20500
A0101402060351212481001PRISCILLA P.                                            20500
A0201400760374047906001LAW OFFICES                                             20500
A0101408370382205119001DRA. EVELYN R. GONZAGA                                  20500
A0101408400394417405001EVANGELISTA, ROM                                        20500
A0101408400394431804002CATABIAN, RICO                                          20500
A2201400250561478374060MEMBERS OF NATASHA                                      20500
A2201400250561478374062MEMBERS OF NATASHA                                      20500
A4101400390813470914001AZIS JR., SAILAN                                        20500
B1301400470000000009561FUND LINK CREDIT & LOANS, INC.                           1602
B2401400180000000019747DYNAMIC TEAM, INC.                                       1610
B1301400210000000023532SKYMAT FIBERGLASS ENTERPRISES                            1602
B0101410720000000030013JAMISHKA CORP                                            1610
B0101409210000000031169CAISHEN MARKETING SERVICES, INC.                         1602
B0101409180000000036633XCELL PROPERTY VENTURES, INC.                            1601
B0101402480000000045747********                                                 1602
B0101404840000000090195JOY PLANET INC.                                          1602
B0101411400000000230264EVERVOLT ENTERPRISES CO., LTD                            1602
B0101404840000001312310KINGSTON COMMERCIAL AND RESIDENCES                       1602
B0101413860000001767882MANILA PAVILION CONSUMERS COOPERATI                      1601
B0101402480000001927460******                                                   1601
B0101414120000001984187WELL FITT LIFESTYLE CORP                                 1602
B0101400150061024381001EVERGREEN LOGISTICS PHILS. CORP.                         1610
B0101400150061047005001BUREAUSERV GLOBAL INC.                                   1602
B0101400150061230482001CASE PROPERTY MANAGEMENT, INC.                           1602
B0101400600071011304001**********                                               1602
B0101400600071232741002**********                                               1602
B0601400100081024450004ANGELES FORTUNE HONGKONG SEAFOOD REST                    1605
B0101400730111005722003MANILA TEACHERS SAVINGS AND LOAN                         1610
B0101401960121751893001NGO, GRACE JIM                                           1601
B0101400440161007542001PACE REALTY INVESTMENT INCORPORATE                       1601
B0101406620273016438001LAMCO INTERNATIONAL TRADING CO., INC.                    1602
B0101406620273037461002FIRENZE CORPORATION                                      1602
B0801400160311015273001SYSTEMIC FARM CHEMICALS I                                1602
B0101402480331010335001PUREFEEDS CORPORATION                                    1610
B0101402480331016270001NATION PAPER PRODUCTS & PRINTING CO                      1610
B0101402480331034497001*******                                                  1601
B0101402480331047395001**********                                               1601
B0101402480331665824001***************                                          1601
B0101408820333047853001********                                                 1605
B0201400890376037020001BREEDERS AGRIVET SUPPLIES INC.                           1605
B0101402930381100004001MANILA ELECTRIC COMPANY                                  1602
B0101408790383039290001AUTO SOURCES INC.                                        1605
B0101409210398042656001FIELD OUTSOURCE ASIA, INC.                               1606
B0101403030441239806001JETCO MOTOR SALES                                        1604
B4101400390813041394001REY-G HARDWARE AND CONSTRUCTION SUPPLY                   1605
B0101406750852456290001**********                                               1602
B3401400280000000002320MALLARE, B DBU B&E COMPUTER SALES &                     11601
B0301400660000000195215COUNTRYSIDE PRODUCT MANUFACTURING VENTUR                11602
B2801400100712024577001PHILIPPINE COASTAL STORAGE AND                          11605
B3401400280000000002320SERVICES                                                21600
B0301400660000000195215ES, INC.                                                21600
B2801400100712024577001PIPELINE CORP.                                          21600
B0101411080042821100608**********                                               2005
