A1001400190000000016480ANGELITUD, LYDIA LECIAS                                  0501
A0101401250000000020424BALIAO, JOVITA LINGGON                                   0505
A0301400820000000024860HERNAN, PESARLITO T.                                     0503
A0101408820000000027272********                                                 0501
A0101413440000000038100MARY SHERYL G. DELA CRUZ                                 0501
A0101407690000000053881********                                                 0503
A0101400440000000060266JOCELYN B. ANDAYA                                        0501
A2401400180000000073527LAFARDZ MARKETING                                        0501
A4101400550000000081605MAXILOM, SWEETHEART FILNIL PERA                          0501
A1301400500000000213301CORTEZ, ZENAIDA MENOZA                                   0502
A0901400220000000425136ROSOS, LORAINE WAYCO                                     0501
A0601400230000000452759BELMONTE, MARIA PATRICIA DEANG                           0501
A4101400260000000469329FALCUTILA, MARISSA RAMOS                                 0502
A0801400160000000476299*********                                                0503
A1301400210000000540969ROWENA C DE SILVA                                        0501
A1001400480000000606819TAN, LYDIA OR TAN, OLIVER                                0503
A0101413020000000880422LIM-ESTOROSOS, VICKYLYN CHUA                             0501
A4101400550000000900383FERNANDEZ, GILBERT LICUANAN                              0501
A0101407690000000913780MATIGA, RUSSELL DACALOS                                  0502
A0101408240000001038766OBIAS, ROSEMARIE SAN LORENZO                             0502
A6601400120000001065263AMANDE, BEATRIZ NALAZON                                  0501
A3101400740000001093841CORDOVA, MARY JOY DELANTE                                0501
A3001400130000001261261ME3 CONSTRUCTION                                         0501
A0101411820000001356703IBAY DIGINET INTERNET CAFE                               0501
A0101403610000001450828ANDES, EDNA MASAYDA                                      0501
A0101403450000001637885ROSSANA ABALOS                                           0503
A0101406620000001686564DANGANAN, FERRZOBEL LORESCO                              0501
A0301400790000001776172JOSE, ROBERTO NATIVIDAD                                  0502
A0101403320000001803258RODEL A. DANGA                                           0501
A2401400180000001935913PERALES, EVARISTO TAN                                    0501
A0101400440000002035023DOROTEO C. TICZON                                        0502
A1301400500000002063792ANTONIO, ALBERT SILVA                                    0501
A0101400440000002249743DEL ROSARIO, MARIE MADELINE M.                           0501
A3401400280000002323393ANTONINO, LYNNA JOY LIMBANA                              0501
A0101412890000002747879SILCOCK, PAMELA PALLON                                   0501
A0101400730000002882273*****                                                    0501
A0101410850000003101991COQUIA JR., RODRIGO CARDOZO                              0501
A0101413600000003134512EFREN A. BALINAS                                         0501
A0101408950000003171246ABEDES, AIZA DUGAN                                       0502
A0101400150000003198270PAUL ANDREW D. ROSALES                                   0502
A0101409050000003536576NAYYAR, GAUTAM                                           0501
A0101412890000003587800REYES, CARMELITA JUAREZ                                  0501
A0101401090000003600671RUIZ, ELENA DEL ROSARIO                                  0501
A0101401250021180288001VIRGILIO H. DELOS SANTOS                                 0501
A0101400600071457180001**********                                               0501
A0101400730111386485042ELENA B. PEREZ                                           0502
A0101400730111563160002BOONGALING, ALELI MATULAC                                0501
A0101401960121239340001***********                                              0504
A0101400440161186947001ROBERTO L. SENA                                          0502
A0101400440161478374087LORNA V. GALLARDO                                        0501
A0101400440161535732001JAY D. CULALA                                            0502
A0101401090171305034001MA. THERESA C. PINEDA                                    0501
A0101401380201508360001SAN JOSE, ROSIE DATO                                     0502
A0101407140213319312002INGEL, ROLANDO                                           0501
A3101400160221222870001ALFREDO D. LU OR MARITES A. LU                           0510
A1001400190231478374179BACAN, JULIET                                            0501
A0101406620273306796052RIVERA, RITA REICHEL                                     0501
A0101408660274547172001BELMES, MARIBEL DEPAUDHON                                0501
A0101411820277775683001**********                                               0503
A0101400570281203059002TEOFILO O. SAN LUIS JR.                                  0504
A0101400570281468358001DORIS MARIEBEL C. CAMAGAY, M.D.                          0502
A0101400570281492317001ABANO, JESSICA MARIE REYES                               0504
A0801400160311504342001JANG, WON JEON JEONG                                     0503
A6601400120314648495001ADORA, GENARO TUBALLAS                                   0501
A0101402480331020937001**********                                               0503
A0101402480331095758001CAHILES, ROLAN                                           0501
A0101402480331376366001GOKIOCO, FRANCISCO SEE                                   0503
A0101402510341318724004SEGUNDINA Y. CASTRO                                      0502
A0101408790383242406001KAW, ALEXANDER OR KAW, JENNIFER                          0502
A0101408400394423791001VALERIANO, RUTH GRAMPON                                  0503
A0101408400394478374097MARILOU CRUZ                                             0501
A2401400180411442136088***************                                          0501
A2401400180411472836003OMEGA, LEE ANN GENILO                                    0502
A2401400180411478374035MERLINDA D. TAMUDTAMUD                                   0501
A2401400180411514423001DEALA, BERNARDITA GATCHALIAN                             0501
A2401400180411537301001**********************                                   0503
A2401400180411625023001PROVIDO, JULIET MAHINAY                                  0501
A0101403030441241050001**********                                               0503
A0101403320471478374079FILEMON R. SANTOS                                        0503
A0501400170481403300001ATTY. JACQUELINE V. MEJIA                                0502
A1901400160491347259006ALEX A ABACAN                                            0501
A0101405940512035308001UP-TECH BUILDERS                                         0503
A0101405940512338558002CECILIA B. CLAVECILLA                                    0501
A0101405940512478374010COMPANERO, MARILYN ESMABE                                0501
A0101403450521361573001**********                                               0502
A0101403610531635918001PERLAS, RAUL ABELLA                                      0501
A0101403610531762081001MIRANDA, SUSAN ESPINILI                                  0501
A0101404000551150230001ROGELIO OR VERONICA L. CO                                0510
A0101407720602161904001BENJAMIN BENITEZ JR.                                     0501
A0101404260611153241002TAN, ESTEFANIA QUITALIG                                  0501
A0101404420631032465001JANEROSE PRINTING SERVICE                                0501
A0101409920650478374030DELA CALZADA, REGIL OMLANG                               0501
A0101407690652753466001PEREZ, RONALDO DELA CRUZ                                 0501
A0101410720653478374050MYRA B. GERMANO                                          0501
A1301400340683248882001SAW, EDUARDO LAI                                         0501
A1301400500684654056001BEQUIZO, MA. ANTONETTE M.                                0503
A0101408240711384215002RHODA DELOS ANGELES                                      0501
A2801400100712614223001PAULITE, ARTEMIO REYES                                   0501
A4101400260812655003001CATHERINE R. COPIA                                       0501
A0101404840851320776002JONATHAN DANCEL                                          0501
A0101406750852478374004IMELDA TAGUNA                                            0502
A0101405070861027133001WORLDLINKS CABLE WORKS                                   0502
A0601400230891694008001VELASCO, BENITO CUENCO                                   0501
A0101407690000000154750BARANGAN, ROMEO DBU                                     10503
A0101406750000000173033TORRES, NOEL DBU FRANZBUILT                             10501
A0101410300000000191939CARBALLO, LUIS ANTONIO S. OR                            10510
A4101400550000000506814DALAGAN, CATALINO B. OR                                 10501
A0101402510000001025983ROSITA/MARIE STELLA NAVARRO/                            10501
A0101409920000001951971MEMBERS OF NATASHA (SHOECAT INC                         10501
A0101408660000002264871MONTALBO, MONICA G. OR SERRANO,                         10501
A0101407720000002727773QUIBAEL, JOSE MARI VICENTE                              10501
A0101407720000002727791QUIBAEL, MA. PATRICIA BIANCA                            10501
A0101401250021179007001OLIVEROS, SYLVIA OR SHEILA OR                           10502
A0101400150061226265001RAFAEL F. SIMPAO JR. OR                                 10504
A0101401670271217175002TERESITA OLIVEROS OR                                    10505
A0801400160311347053002MA ELENA DIVINAGRACIA OR LLANE                          10502
A0101402640361168629001LUMAPGUID, ELMER RENDON OR                              10502
A0101408950396047389001MELROSHEAN CONSTRUCTION                                 10505
A0101408950396726811001GERARD M. MORALES OR                                    10502
A2401400180411272602001HELEN B. NOGRALES OR EDDIE                              10502
A1901400160491594708001LEONORA H VINAS OR                                      10501
A4101400260812030742002GODGIVEN PHARMACY & GENERAL                             10504
A0101407690000000154750BARANGAN TRADING                                        20500
A0101406750000000173033CONSTRUCTION                                            20500
A0101410300000000191939SALAZAR, EMMANUEL B.                                    20500
A4101400550000000506814DALAGAN, TERESIT                                        20500
A0101402510000001025983MARIO POTENCIANO                                        20500
A0101409920000001951971MUSCA, GRETCHEN MANGAYA                                 20500
A0101408660000002264871JON MICHAEL                                             20500
A0101407720000002727773DELAS ALAS                                              20500
A0101407720000002727791DELAS ALAS                                              20500
A0101401250021179007001WARREN                                                  20500
A0101400150061226265001MELISSA O. SIMPA                                        20500
A0101401670271217175002GREGORIO OLIVEROS                                       20500
A0801400160311347053002GRACE DIVINAGRAC                                        20500
A0101402640361168629001LUMAPGUID, CONCE                                        20500
A0101408950396047389001CORPORATION                                             20500
A0101408950396726811001REGINA ISABEL S.                                        20500
A2401400180411272602001NOGRALES                                                20500
A1901400160491594708001DOMINGO P VINAS                                         20500
A4101400260812030742002MERCHANDISE                                             20500
B0101407270000000010191BREADCORE, INC.                                          1605
B2401400180000000019769WILL & JOE AGGREGATES, INC.                              1603
B0101408660000000034335PROMARK INDUSTRIES, INC.                                 1601
B0101406590000000035601NORZON CONST. AND DEVELOPMENT CORP.                      1620
B0101407270000000043581GREATSURPRISE, INC.                                      1605
B1001400480000000133519KALEB INDUSTRIES, INC.                                   1602
B0101407690000000243985CMS BUILDER                                              1601
B0101404000000000461050SANDMAN 42 INVESTMENTS GROUP INC.                        1601
B0101408240000000832586TREE TRUNK DEVELOPMENT CORPORATION                       1605
B0801400160000001289909EMERALD'GREEN TRAVEL & TOURS CORP.                       1601
B0601400100000002099330RDF FEED, LIVESTOCK & FOODS, INC.                        1610
B1301400500000003071894********                                                 1603
B0101401960121024414001LUNETA PARK FOOD COURT, INC.                             1605
B0101407140213042472001***********                                              1603
B0101406620273017460002ACCENT MICRO PRODUCTS, INC.                              1605
B0101402480331010201001LYS MARKETING CORPORATION                                1605
B0101402930381010731001********                                                 1601
B0101402930381012316001BUILDWORTH DEV. CORP.                                    1602
B0101403030441658787002**********                                               1602
B0101406330472314132001*****                                                    1601
B0501400170481015881003TDG- INSURANCE                                           1610
B0501400170481018109002****                                                     1604
B0501400170481025398002****                                                     1602
B0101407430503006865001AIRTROPOLIS CONSOLIDATORS PHILS. INC.                    1620
B0101405940512020338001ANGEL LEIAIEL EXPRESS INT'L INC                          1605
B0101408110515021706001XORAND ZOLUTIONS CORPORATION                             1603
B0101403450521078888003PUREGOLD PRICE CLUB, INC.                                1620
B0101403450521237153001**********                                               1602
B0101404000551024935002VENTURES CREDIT INCORPORATED                             1603
B0101404000551033872001LEVISSON LAND INC.                                       1602
B0101405070861046931001BUKWANG PRIME INTERNATIONAL AGENCY                       1601
B0101404130000000001321PARADIGM DEVELOPMENT CORPORATION OF                     11603
B0101413600000000206915LEGEND OF ICE RECRUITMENT                               11603
B0601400100081296256001CHRISTOPHER OR LOYA MALLARI FAO CHRISSAN                11603
B0101404130000000001321THE PHILIPPINES                                         21600
B0101413600000000206915& SERVICES INC.                                         21600
B0601400100081296256001AUTO SUPPLY                                             21600
B0801400290591821100608**********                                               2003
