F1301400210000000540845HQ GASOLINE STATION                                      2502CKO
F0201400180181292185001MIGUEL, ROSALINA DELA PENA                               2525CKO
F1901400290261596843001YAFFE CHEN SALON INC.                                    2505CKO
F0101405650322433070001SIASAT, ERLINDA LINSANGAN OR                            12503CKO
F0101405650322433070001SIASAT, JANEFER ANNE L.                                 22500CKO
F1401400110000000034620VIEWERSS MOBILE INC.                                     2601CKR
F0101402640361030194001PERSAN CONSTRUCTION, INC.                                2610CKR
F0101406880513030331001RESIDENCE INN CORPORATION                                2605CKO
F0101409630603045589002PRO BIO PHARMA, INC.                                     2601CKR
F0101402640000000202057CUADRA HEIGHTS LAND PROPERTY                            12601CKR
F0101400730111040071002RALPH ANTHONY REALTY                                    12601CKR
F0101405490392036290002THE MASTER'S ACADEMY FOUNDATION                         12601CKR
F0101402640000000202057DEVELOPMENT                                             22600CKR
F0101400730111040071002CORPORATION                                             22600CKR
F0101405490392036290002INC.                                                    22600CKR
