A0101403450000000009801**************                                           0505
A0101408110000000016771JOSEFINA  F. TUMIBAY                                     0505
A0601400230000000029912BALTAZAR, MARIA LIEZEL LAMPA                             0501
A0601400230000000029952MANALO, FERNANDO STA.CRUZ                                0501
A0101404680000000033070JADE A. ACIO                                             0501
A0101412920000000042019**********                                               0501
A1901400290000000135140EDNA BURGOS DENIOLA                                      0501
A0301400660000000194741LEQUIN, KARREN PESODAS JT                                0501
A0101400150000000253369DELA CRUZ, ANGELA BALASBAS                               0502
A0101406750000000358361DOMINGO, JEREMIAH DE VERA                                0503
A0101404680000000384081BAUTISTA, CARMENCITA LIMETA                              0502
A0101409890000000437370AMURAO, ABIGAEL LEAL                                     0502
A0101405490000000444626RUDOLPH VALENTINO M. PANLILIO                            0501
A0101405650000000526010BELAGUIN, GLYNIS LYNN JAMANDRE                           0501
A0101408790000000600035FDR FOODS-NTC-NCR                                        0506
A1101400120000000652562MACATO, ALEX CUA                                         0502
A0101412050000000697229********                                                 0504
A0101408820000000840620******                                                   0501
A0101410560000000848711LAMBERTO, MARICEL OCILLADA                               0501
A2601400270000001009221RENALYN A. IBARRA                                        0502
A0101412340000001017890CAMINERO, EDILBERTO NARVAEZ                              0502
A0301400660000001020099FIEL, ERIC BUCIO                                         0502
A0101413730000001029561***************                                          0503
A0301400660000001113795VILLADAREZ, RICHARD RANIS                                0501
A0301400660000001113813UY, ANDY BANAC                                           0501
A0101408110000001165851MACARIO, EURA JAYNE TRINIDAD                             0501
A1301400210000001206871FRIAS, EDGARDO PARENA                                    0501
A0101400860000001348603**********                                               0501
A0101404680000001716638YABUT, NICANOR VILLANUEVA                                0501
A4101400390000001732532CAFUIR, MA. JESUSA FUERTE                                0502
A0101412890000001765551URBAN GORILLA ENTERPRISE                                 0501
A1401400110000001806913DE CHAVEZ, LOLITA SANTE                                  0502
A1401400110000001806920LAMES, EDGARDO LLAGADO                                   0501
A1901400290000001926303PAULER PANGANIBAN ANI                                    0501
A2201400250000001932372ERNESTINA G. VELASQUEZ                                   0501
A0301400820000002106143ZAPANTA, ARTURO E.                                       0504
A1001400480000002650860VARQUEZ JR, FELICISIMO DACER                             0501
A1001400190000002659221RAUL C. CABUDOY OR MA.ZENAIDA                            0501
A0101402510000002659943SANTOS, AVEGALE HADAP                                    0502
A0801400160000002660186ESPINOSA, JUANITA SOLAS                                  0501
A0101400860011389659002**********                                               0505
A0101400860011399605001**********                                               0502
A0101400860011514595002**********                                               0502
A0101400860011517871001**********                                               0510
A0101401250021092547002POLINTAN, BILLY TENEBRO                                  0501
A0101401700041536306001TAGO, JASPER LUCERO                                      0503
A0101400150061338964071ROWENA EMILIA P. LIM                                     0501
A0101400150061723725001SY, ACE KENDRICK LABRADOR                                0501
A0101405810072236268001KENG, LOUELLA JOCELYN BARRETTO                           0501
A0601400100081251939002ELIZARDO OR WILMA MARTINEZ                               0502
A0101400730111382955001PRADO, EDWARDO BAARDE                                    0503
A0101400730111386485042ELENA B. PEREZ                                           0502
A0101400730111520766015MARISA C RAMOS                                           0501
A0101400730111643930001AUMENTADO, DONALD REYES                                  0501
A0101401830141326774001BELINDA Y. CHENG                                         0501
A0101400440161466113001CATHERINE E. CABACHETE                                   0501
A0101401090171410329001EVA R. LUBIS                                             0501
A0301400660194270653088*****                                                    0501
A0301400660194779841088*****                                                    0502
A3101400450223391676001QUITILEN, RAQUEL ORUGA                                   0501
A1001400190231034434001HNH BUILDERS AND ENTERPRISES                             0501
A1001400190231038040002TRADEMAX ADVANTECH DISTRIBUTION                          0501
A1001400350233531238001YRASTORZA, MARIA TERESA NERI                             0501
A1901400290261478374021JOCELYN MAULEON MAPOLON                                  0503
A1901400290261538304001OFELIA HIPOLITO LANDICHO                                 0501
A1901400290261551257003ALEJANDRO AFRICA MARALIT                                 0502
A1901400290261659949001JONATHAN PLANAS DE ROXAS                                 0504
A0101406620273613444001GUANZON, APRIL JEANNE VILLARAN                           0501
A2601400270302557854001ANGELITO OR AGNES MELEGRITO                              0501
A6601400120314655880001BOLOS, JOSEPHINE OR JOSEPH                               0501
A6601400120314681785001CHUA, MARILOU FRANCISCO                                  0501
A0101402350321278975002LORDELITA A. MARTINEZ                                    0501
A0101402350321478374008VICTORIA ELLE                                            0501
A0101402350321584873001********                                                 0501
A0101402350321712665001ALEX U. PASCUAL                                          0501
A0101402510341631246001ACIBO, LIBERT AMORGANDA                                  0501
A0101405490392173784001*****                                                    0502
A0101408950396601545001DR. GERARDO O. MENDOZA                                   0501
A0101408950396622079001DR.CHRISTOPHER CHRISTIAN P. ARO                          0502
A1201400150421520473001FLORES, MARY JANE KIMAKIM                                0501
A0501400170481365467003CALLANTA, JOHN SORIANO                                   0520
A1401400110492370418001ALMARIEGO, HELGA ALMACEN                                 0501
A0101407430503578952001ROSETE, MELVINE JONES TAGULAO                            0501
A0101407430503720018001ERNANI C. CAPISTRANO                                     0501
A0101403450521389561001**********                                               0505
A0101407720602166267001BLAISE K. LIAO                                           0501
A0101407720602396414002KATERINA TANYA P. GOSIENGFIAO                            0502
A0101404260611044186001REINIGEN INDUSTRIAL TRADING                              0505
A0101404260611150910003AMUERFINA I. MASIGON                                     0501
A0101404260611478374003TROPA, EMELITA                                           0501
A0101404260611478374075VIVENCIA HATOL                                           0501
A0101404680651170782001LIM, ELISA SAMOT                                         0501
A0101404680651412017001ANA MARIE R. TANARE                                      0501
A0101404680651520766112SUSANA B. FLORENDO                                       0501
A0101404680651525001038ERNESTO J. AQUINO JR.                                    0501
A0101404680651529235001ROWENA O. INDONG                                         0501
A0101404680651534229001CERVEZA, MARIFE TRANCIA                                  0501
A0101404680651689507001MARY ANNE G. HEYRES                                      0501
A0101404680651689507001MARY ANNE G. HEYRES                                      0501
A1301400500684635935001CANOZA, MARLYN MONTE                                     0502
A0101408240711478374009MARIVIC C. FLORA                                         0501
A4101400420814478374146ZETA B. CLIDORO                                          0501
A0101404840851478374063AIRENE ALCANTARA                                         0501
A0101404840851520766104PARAGAS, MARILOU                                         0501
A0101405070861197507001SIY, LUISA SIA                                           0501
A0101405070861197970002OKA, TOSHIKATSU                                          0502
A0101405070861199646001YAP, VANESSA                                             0505
A0101405070861478374086MARLYN C. GABEST                                         0502
A0101405070861778105001CADEVIDA, SIMEON MEDRANO                                 0501
A0101405490000000019918CALIMBAHIN, MARIVIC DBU BIG                             10502
A6601400120000000060795ALCAZAR JR., CESAR GIBA DBU                             10501
A0101400570000000165702MARIA CYNTHIA OR VICTOR ANTHONY                         10501
A0101401250000000460644REBLANDO, MA. ELENA ALCANTARA                           10501
A0101408240000000521942PULIDO, REGINA SALVE LUZURIAGA                          10501
A0101407140000001201910RICHARD JOSEPH JAYMALIN,J.D. OR                         10501
A0101402350000001474379SINGZON, ANA LIZA CASES DBU                             10502
A1901400290000001926387HERNANDEZ, JUNE DBU JUNE AND                            10501
A0101400150061227493001OLIVIA R. SUSA OR                                       10502
A0101400150061697165001SERVER, CATHERINE ANNE B. OR                            10502
A0101401090171196115001AUREA PELAYO-LLANERA                                    10504
A0101401090171197250001PERLA OR RONALDO PAULO                                  10502
A1001400350233077997001JONATHAN ROLIDA OR ANITA ROLIDA                         10502
A0101400570281021967001CHANGING DIGITAL IMAGING                                10501
A0101408370382396864001DR. ROMEO D. SANTOS OR                                  10502
A0101405490392034138001MCMAR & MARY ELECTRICAL                                 10501
A0101409180397669394001HERNANDEZ, ADITHA OR                                    10501
A2201400250561478374006ANGELINA P. QUIBALLO                                    10501
A0101404680651168769002DOMINGUEZ, EVELYN OR DOMINGUEZ,                         10502
A0101406590662455518001ESTRADA, RAFAEL G.                                      10505
A4101400420814342049001MENDOZA, DIVINA LORY ANN E. OR                          10502
A4101400420814418225001LOPEZ, ROSALINA OR                                      10502
A0101405490000000019918BRANDS CLOTHING OUTLET                                  20500
A6601400120000000060795INK FOR CARE & SERVICES                                 20500
A0101400570000000165702STA. ROMANA                                             20500
A0101401250000000460644OR SAMONTE, JASMIN                                      20500
A0101408240000000521942OR PULIDO, EBNARD                                       20500
A0101407140000001201910MARIE CRISTABEL JAYMALIN                                20500
A0101402350000001474379HYDROSYSTEM TRADING                                     20500
A1901400290000001926387YVETTE TRUCKING SERVICES                                20500
A0101400150061227493001JOSE B. SUSA                                            20500
A0101400150061697165001CHRISTINE MICHEL                                        20500
A0101401090171196115001OR TRACY ANN LLANERA                                    20500
A0101401090171197250001VILLAMARZO                                              20500
A1001400350233077997001OR FRANCISCO ROL                                        20500
A0101400570281021967001GRAPHIC                                                 20500
A0101408370382396864001DOLORES S. SANTOS                                       20500
A0101405490392034138001& CONSTRUCTION SUPPLY                                   20500
A0101409180397669394001HERNANDEZ, CESAR                                        20500
A2201400250561478374006MEMBERS OF NATASHA                                      20500
A0101404680651168769002LOURDES TRINIDAD                                        20500
A0101406590662455518001OR REUBEN ENRIQUE                                       20500
A4101400420814342049001MENDOZA, GILBERT                                        20500
A4101400420814418225001LOPEZ JR., RODRI                                        20500
B01014046800000000135618LUDEREY FOOD SERVICE INC.                               1604
B0101404680000000095710MVG HARDWARE                                             1601
B0601400520000000398590SKILL-POWER INSTITUTE, INC.                              1602
B0101404680000000697883GALAXY 1 INC.                                            1601
B0101411110000001037132JOHN BULL BREWING AND DISTILLING IN                      1603
B0201400760000002648279JEMS-K PROPERTY VENTURES INC.                            1610
B0101400860011421932001CAI, JIANJUN                                             1601
B0101400860011702409001**********                                               1601
B0101400150061047452001PRIDEZ FOODS SERVICES, INC.                              1601
B0101405810072027398001JSG PREMIER REAL ESTATE, INC.                            1602
B0601400100081020255001WIDE WIDE WORLD EXPRESS CORPORATION                      1602
B0301400660194044437088*****                                                    1603
B1001400190231009544004RI CHEMICAL CORPORATION                                  1608
B2601400270302039764001MOTORAM MOTOR PARTS                                      1601
B0101402350321046288001TMI FOOD PROCESSING & DEV. INC.                          1602
B0101402350321738079001OLIVAREZ GENERAL HOSPITAL INC.                           1610
B0101405490392575171001ANIMED LABORATORIES, INC.                                1601
B0501400170481038907001JODERON AUTO SUPPLY                                      1605
B0101406880513020147001ALMER MANPOWER CORPORATION                               1602
B0101408110515027103001CITYLAND CONDOMINIUM III, INC.                           1610
B0101404680651367886001LITE SIGNS & DESIGNS                                     1605
B0101405070861457027001SJCM PROPERTIES, INC.                                    1601
B0101404840000001312270FIRST KINGSTON LEISURE AND SERVICES                     11602
B0301400660194350996088DEQUITO, GLEBA VENTOR / LANANG                          11602
B1301400470252033145001CABANATUAN CATHOLIC EDUCATIONAL                         11601
B0101404840000001312270CORPORATION                                             21600
B0301400660194350996088CALTEX SERVICENT                                        21600
B1301400470252033145001SYSTEM                                                  21600
