A0101406330000000011781ARLENE DELA CRUZ                                         0501
A0101407140000000014882**********                                               0502
A6601400120000000022340ROMEROSO, ANECITA BENESISTO                              0501
A0201400890000000028037MENOR, KARLYN V.                                         0501
A0201401020000000056186MACTAN RURAL BANK(LAPU-LAPU CIT                          0501
A0201401020000000056200TRIX SIGNADS AND SERVICES                                0502
A1301400470000000061481LGP MARKETING                                            0501
A0101400730000000112881GUTIERREZ, DOMINICA DALISAY                              0501
A0101413440000000183737ROAN, JOANA MARIE VILLARIN                               0501
A0601400360000000225330HASEGAWA, CECILIA DUQUE                                  0501
A1001400350000000245281BAGARES, AGUSTINA BALALA                                 0501
A0101403030000000320505UY, WILFRED DUYAN                                        0501
A0101400440000000337693ADRIANO, MARIDEL BONZON                                  0501
A0101406750000000358361DOMINGO, JEREMIAH DE VERA                                0503
A0101409890000000437358**********                                               0502
A0801400160000000476368**********                                               0501
A0101404130000000485661MORALES, ANNALYN MOTOL                                   0505
A0101407720000000510767ALFORJA, ENER ENERLAN                                    0501
A0101401380000000682582********                                                 0502
A4101400420000000710507PATTON, MA. CECILIA REYES                                0501
A0101408820000000800199MARILOU B. LEUTERIO                                      0501
A0101400150000000807932YU JR., LUIS NG                                          0502
A0101400730000000833192GLEN T. NIOKO                                            0502
A4101400550000000900350SANTOSIDAD AUTO SUPPLY                                   0501
A1301400210000000915793DOMINGO, LUCRECIO BENABESE                               0501
A4101400550000000981733ACAMPADO, MAUREEN TORIBIO                                0501
A1301400210000000983837BALBUENA, EPIFANIO ABUEME                                0501
A0501400170000001032197VELASCO, ORPHEUS MARTINEZ                                0501
A0101401960000001064562****************                                         0501
A6601400120000001065321BAQUERO, ADELINA DULA                                    0501
A0101402480000001099776TUMANON, ROEL GAMUEDA                                    0501
A0101400570000001134230ZENAIDA O. CACHAPERO                                     0502
A4101400260000001135000EGASAN, MARY GRACE ADOLFO                                0501
A0101411400000001140383MANAG, MAURENE CUNANAN                                   0501
A0101408400000001231127ROSS, JENNIFER DOROMAL                                   0502
A0101406330000001235147VILLARANTE, JERRY GRACIA                                 0501
A0101406880000001286711OKOL, MIGUEL ERNESTO GARCIA                              0503
A0101402510000001292422SANTOS, ERIK MONTALLANA                                  0501
A2001400290000001301255AL KATHERI, JANET LIMBAGA                                0501
A0101412920000001313842JOSEF, IHZA DELA CRUZ                                    0501
A0101412920000001313853APURA, MARILYN CLARO                                     0501
A0201400920000001331782BARTE, RICHILLE YBANEZ                                   0501
A0201400920000001331793TAYLAN, BENEDICTO PE BENITO                              0501
A0601400520000001349582MANALOTO, ISRAEL CUNANAN                                 0501
A0101412760000001399226SORIANO, DIVINE GRACE DIONISIO                           0501
A0101412760000001399248HERNANDEZ, YOLANDA SALAMEA                               0501
A0101401380000001412515MATIENZO, ANNE CRUZADO                                   0501
A0101401380000001412651LEY, VALENTINO TING                                      0503
A0101401380000001412662KILAYCO, MA CLARITA RODRIGUEZ                            0501
A0101401380000001412673GARCIA, DOMINIQUE GUERRERO                               0501
A1301400340000001415601OLAIVAR, ANGELO SOLITO                                   0501
A0101400150000001422235WHAULTER ALWYN PAUL P. CAPATI                            0501
A0101413440000001472760SICAT, CRISTINA MACARAEG                                 0501
A0101413440000001472771COTILLON, ELIGIO COTILLON                                0501
A1401400110000001549271CAMPOS, EDITHA NAVARRO                                   0501
A0101402480000001562016***************                                          0501
A0101402480000001562038***************                                          0502
A0101402480000001562049AQUINO, FLORENCIO LUMABAS                                0501
A0101402770000001570645MANGAT, ROGELIO PADILLA                                  0501
A0101407270000001596785EMELITO RODRIGUEZ                                        0501
A4101400260000001673503BALURAN, RAQUEL GUZON                                    0501
A4101400260000001673532PRECONES, EPHRAIM JULATON                                0501
A0101413570000001682497SUZETTE G. CASTRO                                        0501
A0101406620000001686473SALVACION, BREEZY MACLANG                                0501
A0101406620000001686484TILANO, VICENTE TORRECHANTE                              0501
A0601400230000001687363PELAYO, GINA NUNAG                                       0501
A0101400730000001697174CATERON, NANCY SADIWA                                    0501
A3101400870000001712112PANGANIBAN, FREDERICK VENUS                              0504
A0101400860011086423001**********                                               0503
A0101400860011385484001**********                                               0503
A0101400860011386650002**********                                               0502
A0101400860011442481001*******                                                  0505
A0101400860011496538001**********                                               0505
A0101400860011635682001**********                                               0502
A0101400860011774698001**********                                               0503
A0101401700041192370001******                                                   0506
A0101400150061230957005ZABALETA, JOSE MARIA TARAGABULL                          0505
A0101400150061681415001CALLEJA, HENRY GERARD MACEDA                             0501
A0101400730111412858025JOVITA R. GARCIA                                         0501
A0101400730111422154001MANTUANO, CARMEN SANTOS                                  0502
A0101400730111527208001********                                                 0501
A0101400730111530232002PANTOJA, ERALD PAPA                                      0501
A0101400730111608559001BASCO, SHIRLEY MENDOZA                                   0501
A0101400440161039572093JANICE J. TADURAN                                        0501
A0101400440161478374103LOREGEN R. CATANYAG                                      0502
A0101400440161478374183NORY S. OLIVERON                                         0501
A0101400440161506992001ARCHIE M. SEMBLANTE                                      0502
A0101400440161525001005MERLITA L. ALICANTE                                      0501
A0101407270162333003004MAURO C. AGUSTINES                                       0502
A0101407270162407622001RONALDO S. SANTOS                                        0502
A0101401090171389017001GACULA, BENNYPAUL PANED                                  0501
A0301400660194758323001FERNANDEZ, GIL BREINARD SY                               0501
A0301400660194759587001*****                                                    0501
A0101401380201648879001BELARMINO, MA. JOCELYN SIAN                              0501
A0101401380201663413001MATIAS, HANNAH GUSTO                                     0501
A0101401380201681468002LEE, JAE YOUNG                                           0501
A0101401380201760126001BASILIO, BILLY JOE PALEJO                                0501
A3101400450223028468001NEW ARMSTRONG SECURITY AGENCY                            0502
A1001400190231520766031CARANO-O, JANFIR JANE V                                  0501
A1001400190231520766087MONTE, LEONORA BATERNA                                   0502
A1001400190231577958001GORDIEL, JAMES LESTER UY                                 0501
A1001400350233653539001LABUGA, DIMPLE HYNSON                                    0501
A0801400160311478374092MALLORCA, ROSEMARIE A.                                   0501
A0801400160311483955001TANG, ROWENA LIONG                                       0501
A0801400160311724231001ROMERO, RAMESES MEDINA                                   0501
A1101400120313478374095TOBIAS, ELIZABETH M.                                     0501
A6601400120314771929001GIRAY, ROGELIO IRINCO                                    0501
A0101402480331039950001*********                                                0505
A0101402480331224005002***************                                          0501
A0101402480331224661001EDWIN CHEN OR SYLVIA CHEN                                0504
A0101402480331299634002**************                                           0502
A0101402480331336547001PAGSANGHAN, MA. LUISA VASQUEZ                            0501
A0101402480331343580002***************                                          0502
A0101402480331398901001WICO, ALFREDO YEN                                        0502
A0101402480331458945002*********                                                0506
A0101402480331478374109CARABBACAN, SALLY                                        0502
A0101402480331484152002***************                                          0501
A0101402480331520766081GUEVARRA, LINDA CORPUZ                                   0501
A0101402480331520766101ROBERT, RICARDO                                          0501
A0201400890376192121001TORRES, GIL FERDINAND ABELLO                             0502
A0201400890376458754001NOMBRADO, GILBERT DOMASIS                                0501
A0101408790383658525001GALLARDO, FLORENCE GARCIA                                0501
A0101408400394032420001MARK JOHN FURNITURE                                      0502
A0101408400394036671001CAIT FURNITURE SHOP                                      0501
A0101408400394160344001CALMA, ALFREDO MATAGA                                    0504
A0101408400394162577001REYES, ELSA UNGSOD                                       0501
A0101408400394396735001QUILATAN, ANNA RICHIE ANDRES                             0505
A0101408950396567114001CESAR JOSEPH CURAMENG GLORIA                             0501
A1201400150421257375001MARA ALOHA DIAZ                                          0505
A1201400150421419955001CADWISING, CANDIDO PAGTOC                                0501
A0101403030441240653001**********                                               0501
A0101403320471478374051MYRA ATANGAN                                             0501
A0101406330472035160001QUICKFIRE METAL FABRICATION                              0502
A0101406330472296884001JAYLEE TRADING                                           0502
A0101406330472323079001VIRGINIA P. GARCIA                                       0501
A0101406330472356808002CHRISTIAN E. CANGCO                                      0506
A0501400170481319119001XXXXX                                                    0501
A1401400110492735105001DESEMBRANA, AMELITA SALAZAR                              0501
A0101405940512045823001BALAGAS, ROWENA MERIOLES                                 0501
A0101406880513666065001VILLARMINO, JOSELITO VILLANUEVA                          0502
A0101404130601541269001TUMALA, ANITA TULANG                                     0501
A0101404130601547411001CO, ROYCE NASIS                                          0505
A0101404130601663268001ASPA, ELVIRA CANIMO                                      0501
A0101404260611005236004WILTRON ELECTRONICS                                      0502
A0101404260611150835001HENRY OR LAI SHA CHING                                   0505
A0101409920650478374015FRANCISCO, LUZ LEDESMA                                   0501
A0101404680651520766171JONIS PRELYN MONTILLANO                                  0501
A0101408240711536332002**********                                               0502
A4101400390813046852001**********                                               0501
A0101404840851046725028GENERALES, RHODA ALTEZ                                   0502
A0101406750852296536001CRISANTA L. ALIMAGNO                                     0501
A0101406750852478374039MERCY MOSLARES                                           0501
A0101405070861480682001KING CHUA, ARISTOTLE RAYMOND R.                          0502
A0101406330000000162616LAND OF THE PROMISE TRUCKING                            10502
A0101405070000000414582NICANOR P. NATIVIDAD OR                                 10501
A1601400170000000421190JOHN F. TORROCHA OR                                     10501
A0101411820000000477361REYNALDO C. PIAMONTE OR                                 10501
A6601400120000001370490GALIT, VERNIE GAZO DBU RVG                              10501
A0101409920000001539460SERRANO, LENY ROSE S. OR                                10501
A0101402480000001562050ALON, JOANNE DE JESUS OR                                10502
A0101401700041189210001RIZALINA CHUA OR JOHN CHUA                              10503
A0101401700041355153001BERNARD T. JAO OR                                       10502
A0101400730111478374112STO DOMINGO, CONSTANCIA                                 10501
A0101400440161591337001JENESSEY A. RANCES OR                                   10502
A0101401380201494740001MACARAYAN, FRINCESS T. OR                               10503
A0101401670271192707006FEDERICO C. LIM OR TORRES,                              10501
A0101402510341196487001SALVADOR DIZON OR                                       10501
A0201400890376535273001TOLEDO,HAROLD XAVIER OR CLIMACO                         10501
A0101408400394047545001JOHNMAYSUZANNE FASHION                                  10501
A0101408400394402626001GARCIA, NATIVIDAD P. OR GARCIA                          10510
A0501400170481289695001MEJIA, RANDOLFO R. OR                                   10501
A0101404130601450078001ROBERT B. OCANA OR                                      10502
A0101404260611150840001WILLY CHING OR ISIDORA CHING/                           10505
A0101406590662720126001NGUYEN, ANGELA SERRANO OR                               10501
A0101406590662749087001LOPEZ JR., OSCAR B. OR                                  10501
A0101406330000000162616SERVICES                                                20500
A0101405070000000414582ADORA G. NATIVIDAD                                      20500
A1601400170000000421190ROCHELLE A. TORROCHA                                    20500
A0101411820000000477361MARIA TRACY F. PIAMONTE                                 20500
A6601400120000001370490DIGITAL PRINTING SERVICES                               20500
A0101409920000001539460SABARIA, WILFREDO A.                                    20500
A0101402480000001562050ALON, DARWIN DAVE ORTIZ                                 20500
A0101401700041189210001OR JOANABEE CHUA                                        20500
A0101401700041355153001SHEILA A. JAO                                           20500
A0101400730111478374112CHARLENE                                                20500
A0101400440161591337001JESSIE O. RANCES                                        20500
A0101401380201494740001MACARAYAN, JOHN BRIAN I.                                20500
A0101401670271192707006VIRGINIA CHRISTINE L.                                   20500
A0101402510341196487001ZENAIDA DIZON                                           20500
A0201400890376535273001BRYAN OR GUEVARR                                        20500
A0101408400394047545001COLLECTION                                              20500
A0101408400394402626001JR., HERMOGENES                                         20500
A0501400170481289695001MEJIA, JACQUELIN                                        20500
A0101404130601450078001MARJORIE OCANA                                          20500
A0101404260611150840001GOLDSUN LUMBER                                          20500
A0101406590662720126001ANDREWS, MARGUERITE PAULA                               20500
A0101406590662749087001LOPEZ, GLADICE C.                                       20500
B0101410850000000005643LIKAS YAMAN SERVICE CORP.                                1602
B0101410850000000005676LIKAS SHIP AGENCY INC.                                   1602
B0101410850000000005687METRO MANDAUE SERVICE CORP.                              1602
B0801400160000000010231RD CASH PADALA, INC.                                     1603
B0101401380000000026968SENUBI TRAVEL CORP.                                      1604
B0101408820000000027363********                                                 1605
B0101410140000000038862FIRST OPTION ELECTRONIC SYSTEM PHIL                      1602
B0101409050000000258531HENDERSON BLAKE BUSINESS SOLUTIONS,                      1601
B0101402480000000310374QUALIGEN PHARMACY CORP.                                  1603
B0101401380000000414822GDI LIGHTING SOLUTIONS INC.                              1601
B0101408790000000599737TRAVEL HUB AND SOLUTIONS INT'L. CORP                     1602
B4101400550000000900036BACOOR DOCTORS MEDICAL CENTER INC.                       1601
B0101402480000001100121***************                                          1601
B0101408110000001199253SCV TEXTILE TRADING INC.                                 1601
B0801400160000001289790BORACAY TRANS-PACIFIC PROPERTIES, INC.                   1601
B0101402480000001562312SYTEC CORP.                                              1601
B0101400860011374740004**********                                               1605
B0101400150061016151001RAMONA HOLDINGS CORPORATION                              1602
B0101400150061036959001PINNACLE ASIA, INC.                                      1602
B0301400660194046023088ROPE HANDLERS MINDANAO MOORING SERVICES                  1602
B0301400660194047894088RAD GREEN SOLUTIONS CORPORATION                          1602
B0301400660194789062088*****                                                    1602
B0101401380201038752002R & M ZARAGOZA TRADING                                   1601
B0101401380201525090001HONGKONG MASTER COOK CORPORATION                         1603
B0101401380201622033001**************************                               1601
B1001400350233047939001DE ORO FLAVOR FEST COMPANY                               1601
B0101406620273043116001DAVID AND CUI-DAVID LAW OFFICES                          1602
B0101400570281043944002EXLO MANPOWER AND ALLIED SERVICES, INC.                  1602
B0101405650322034969001ALPHINELAKE WATER REFILLING STATION                      1601
B0101402480331009967001**********                                               1601
B0101402480331015441001L.G. ATKIMSON IMPORT-EXPORT, INC.                        1610
B0101402480331022449001***************                                          1605
B0101402480331030127001NITO SEIKI MANUFACTURING CORPORATION                     1601
B0101402480331035336001******                                                   1603
B0101402480331035791001THE D.I.Y. SHOP CORPORATION                              1601
B0101402480331037639002*************                                            1610
B0101402480331243281001**********                                               1620
B0101402480331367460001************                                             1602
B0101402480331541505001PHARMAGENERICS, INC.                                     1603
B0101402480331748556004QUALIGEN PHARMACY CORP.                                  1603
B0101408820333042383002********                                                 1605
B0101408820333042383003********                                                 1605
B0101403030441039990001**********                                               1602
B0101403320471015404001COVENANT CHILDREN ACADEMY INC.                           1604
B0101403320471020319001LORD OF THE NATIONS, INC.                                1605
B01014063304720209890011 TO 1 MARKETING INC.                                    1605
B1401400110492027896003LUCENA UNITED DOCTORS HOSPITAL, INC                      1606
B0101405940512044411001STARFIRE HOLDINGS CORPORATION                            1602
B0101403450521011675001TORQUE BUILDERS, INC.                                    1604
B0101403450521011989001**********                                               1610
B0101404260611020600001MAKATI SAVINGS COOPERATIVE                               1610
B0101404260611035419002JK HUMANBOND CORPORATION                                 1602
B1301400210682016750001JFL AGRI VENTURE SUPPLIES                                1605
B4101400550815038465004SOUTH EAST ASIAN MEDICAL CENTER INC                      1610
B41014005508157961110022020 CONSTRUCTION AND SUPPLY                             1601
B0101405070861038257001GREAT CRESCENT FLOUR CORPORATION                         1603
B0101406460000000020931GREATWALL MANPOWER & GENERAL                            11602
B0301400660000000195146ATING LUPA BAGONG SIMULA (ALBASI) CORPOR                11605
B0101408400394021928001EMERALD COURT SUBD. HOMEOWNERS                          11601
B0101408400394027710001PATEROS-FORT BONIFACIO TRANSPORT SERVICE                11602
B0101408400394027710002PATEROS-FORT BONIFACIO TRANSPORT SERVICE                11602
B0101406460000000020931SERVICES INC.                                           21600
B0301400660000000195146ATION                                                   21600
B0101408400394021928001ASSOCIATION                                             21600
B0101408400394027710001COOPERATIVE                                             21600
B0101408400394027710002COOPERATIVE                                             21600
B0101402480331821100608**********                                               2010
B0101403320471821100608**********                                               2003
B0101412760476821100608**********                                               2002
