A1001400190000000016402LEGASPI, LUCILO BALATERO                                 0501
A0301400820000000024871JAO, EDMUNDO C.                                          0502
A0101412180000000037932*******                                                  0502
A0101406620000000043990PENAREDONDO, JEFF ROQUE                                  0501
A0201400920000000048155EDIZA, M DBU OULAMS CUISINART T                          0501
A0201401020000000056113LUCHAVEZ, R DBU YULIAN MERCHAND                          0501
A0101406040000000096946REYES, PHILIP COLE                                       0504
A0101413730000000144750**********************                                   0505
A0101406330000000162547FORTUNE PRINT                                            0502
A2801400100000000188341HSU, DONABELLE DONATO                                    0501
A1301400500000000213174ADRIANO, MILAGROS CORREA                                 0501
A0101401670000000237698MATA, CLARISSA SOCORRO URBANES                           0502
A0101409050000000258257JULIE ANN C. BALANSAG                                    0502
A0101402060000000358598SAMSON, VENUS MORTE                                      0501
A0101407140000000446031**********                                               0501
A0101406330000000451261GRAGEDA, ANDRO ALARTE                                    0501
A0101413730000000469147PROLINE PLASTIC CO.                                      0502
A0101413730000000469169DIMALIBOT, LEONORA DE GUIA                               0502
A0101410140000000499054SANSON, N DBU V.A.N.C. GENERAL                           0502
A0101407720000000510512SALUD, CARMENCITA ESGUERRA                               0501
A1401400110000000628659RCBL - YEAR OF THE LAITY                                 0501
A1401400110000000628660HERRERA, GREENE VALLE                                    0501
A0101406330000000683370AGARANO, CHRISTIAN CASTILLANO                            0501
A0101406330000000683381PENAVERDE, LOUIE MANIGBAS                                0501
A0101412050000000697207MIDEL, JONNA ARAGON                                      0501
A0101413440000000702429REYES, MERCEDITA BONCAY                                  0501
A0101413440000000702430QUIAZON, CORAZON NOBLE                                   0501
A0101401670000000739059LUMNA, JANIZAH NENGASCA                                  0501
A0101408950000000776570GRAGEDA, CHRISTOPHER JAVIER                              0501
A0601400100000000786632ABALAYAN, RHEA GOMEZ                                     0501
A0101400150000000807312SUAREZ, JESIECA PONTILLANO                               0501
A0101400440000000821492CHALY LYN O. BUCAD                                       0501
A0101400440000000821516JAIME P. BORRAS JR.                                      0501
A2401400180000000826299GENSAN VIEW RESORT                                       0503
A0101400310000000851343JOSE, ARNOLD DONAYRE                                     0501
A0101413860000000858948DELA TORRE, ANTONIO CARDONA                              0501
A0901400220000000887896**********                                               0501
A0101403450000000889421OLAES, ANABEL GANDIA                                     0501
A0101412050000000890773NICDAO, ED PAUL ISIP                                     0502
A0101406590000000905599MAXWAX CO.                                               0501
A0101401250000000906912NAVATA, ROBENSON A.                                      0501
A1301400340000000926869CUERDO, MARIA ANA SORNE                                  0502
A0101409050000000939351SINGH, JEFFREY BEJASA                                    0502
A0101406620000000962301ALAGAO, KAYE PAGUIO                                      0501
A2001400290000000978214MANGCAO, DYLEN BELLESTA                                  0501
A2001400290000000978225SALES, DASIL AMARO                                       0501
A1301400210000000983791JEFFERSON M OLAIVAR                                      0501
A0101400860000001005376**********                                               0502
A0101402640000001054233BUTCON, MAN DBU MB FREIGHT AND                           0501
A0101402640000001054244BRACERO, ANNALIZA ANCINO                                 0501
A4101400260000001198621ALCAUSIN, EUGENE FREDERICK BAND                          0501
A0101408400000001213461GARCIA, CORNELIA LIBREA                                  0501
A0101408400000001213472BELMONTE, MARIA LUISA ALONSO                             0501
A0101412920000001313762ANGELES, GERALD MANLULU                                  0501
A4101400550000001332416DE GUZMAN, R DBU DOCTOR CLEAN L                          0501
A4101400550000001332581RASE, IRENE LAXAMANA                                     0501
A4101400550000001332592RASE, ARNALDO ROBIS                                      0501
A0101400310000001384761FORTADES, JASMIN TEJERERO                                0501
A0101400860011084001001**********                                               0505
A0101400860011458859001**********                                               0502
A0101400860011634790001**********                                               0504
A0101401250021178954001LIBERTY STATIONERY                                       0506
A0101401700041192370001******                                                   0506
A0101401700041290115001**********                                               0502
A0601400100081403474003TAYAG, DENISE OCAMPO                                     0502
A0601400100081557515001KIM, ESTARLITA CUADRA                                    0502
A0101401830141040554001DREAMBOOKS PUBLICATION                                   0503
A0101407270162333006038LILIBETH C. SARMIENTO                                    0501
A0101407270162333465003AGERICO EDGAR L. AFABLE                                  0501
A0101400310211340967001GANESAN, MARI GRACE PASION                               0502
A0101400310211418194001MARTINEZ, ANABEL                                         0501
A0101400310211478374020GANDIA, VHIRGIE                                          0503
A01014003102114783740340BSIOMA, ARMANDO                                         0502
A0101400310211478374047TABIOSAS, PRECY                                          0501
A0101400310211478374054BEATRIZ OFIAZA                                           0501
A0101400310211478374068LETECIA VETORICO                                         0501
A0101400310211795642001ESPIRITU, RIZI JANE HERNANDEZ                            0501
A0101407140213186173001TAN, SUSAN                                               0501
A3101400160221533272001NICOLAS S. MOLON                                         0503
A3001400130230478374028MAGLASANG, ELIZABETH DAHANG                              0501
A3001400130230767566090HANGOS, SYLVIA BANAAY                                    0503
A1301400470252490342001ELIZABETH E. BAJET                                       0502
A1901400290261405920001MYLENE TABLADILLO CRISOLO                                0506
A1901400290261478374024NANCY MOJARES PALO                                       0504
A1901400290261493025066AIDA BAROJA INDINO                                       0501
A0101411820277775683001**********                                               0502
A2601400270302591563001ROSITA R. CHE                                            0501
A0101405650322326805003SHIRLEY C. ADVISO                                        0501
A0101405650322531153001VILORIA, MARITES QUINTOS                                 0501
A0101408820333042004001********                                                 0502
A0101408820333043035001********                                                 0503
A0101402510341199445001MERCEDITA A. MANZANO                                     0501
A0101402060351349405002YAP, JAMES YU                                            0502
A0101402640361172804003TAMBOBONG, VIVIEN LIM                                    0501
A0101402640361359503001MA. CRISTINA V. ADAO                                     0503
A0101402640361449691001POLICARPIO, MYRNA OCCIANO                                0501
A0101402640361484568002URANZA, CARMELO JIMSON BROSOTO                           0502
A0101402640361632094001**********                                               0504
A0101402640361775971001LIWANAG, MARY JOY LUCERO                                 0501
A0101403030441317772001**********                                               0501
A0101403030441412000001**********                                               0501
A0101403030441556817001**********                                               0505
A0101406330472215905001MARCELO OR ERLINDA DELAS ARMAS                           0503
A0101406330472298552001EDWINA M. PADERNAL                                       0501
A0101406330472397562001PHILIP H. DAYAO                                          0501
A0101406330472478374056REVELINA E. ECLARINAL                                    0501
A0101406330472780167001AGNES D. CHUA                                            0502
A0101410140475738965001GERERO, MARITES LANGUITA                                 0502
A0101403580511156579014IMELDA FUNDALES                                          0502
A0101403450521282364001**********                                               0502
A0101407720602480488001GERALDINE MAJELLA L. JURILLA MD                          0501
A0101407720602549119001SANTOS, EDGAR JOLLY PEREZ                                0502
A1301400340683708672001CANO, ERLINDA PEREZ                                      0501
A1301400500684760808001DEL POSO, MARLON SANTOS                                  0502
A1701400230693478374061BAUTISTA, CRESENCIO RISCAL                               0501
A0101404840851046725021HELEN GELIZON                                            0501
A0101406750852181752001GUIA S. JAVIER                                           0501
A0101406750852298552032FLORDELIZA L. RETARDO                                    0501
A3001400130000000007063GOLDEN HARVEST CATERING                                 10502
A0101406330000000011729GILBERT MILANA DBU GLOBE                                10502
A0101401700000000040217DEL MUNDO, E DBU JPA AUTO PARTS                         10502
A0201400760000000222966BUENO, CHLOE CORTES                                     10501
A0101405490000000444397VIVIAN V. BADEJOS OR JONATHAN                           10501
A0701400260000000670848WALTERS, RESURRECCION JANET                             10503
A0101412500000000739613PINEDA, RAYMOND DBU NDC                                 10501
A0101401960121327478001AIDA MEDEL                                              10502
A0101401090171196095001ALBERTO WONCHAI OR                                      10502
A0101401090171467544001ANDREI DOMINIC A. AVELLANOSA                            10501
A0101400310211005848001ALMANSUR TRADING                                        10501
A0101408950396047389001MELROSHEAN CONSTRUCTION                                 10502
A1201400150421039385001JL'S CLEAN UP JANITORIAL &                              10502
A1201400150421252728001LANSANG, GEORGE D. OR LANSANG,                          10502
A0901400220432746180001ARCILLAS, ESTER G. OR                                   10503
A0101406330472436213002SUSAN CAGUINGUIN OR DIOMEDES                            10503
A0501400170481259032001DR. OSCAR RAMIREZ OR                                    10502
A0101403580511156582001JOSE ABELARDO AGREGADO OR                               10502
A0101403580511388107001ANTONIO G. PEDRO OR                                     10502
A0101406590662641633001ALAZAS, MIMI TOMASA OR ALFONZE                          10501
A3001400130000000007063SERVICES & FASTFOOD                                     20500
A0101406330000000011729MARITIME TRAINING CENTER                                20500
A0101401700000000040217CENTER                                                  20500
A0201400760000000222966OR BUENO, RICHARD CUEVAS                                20500
A0101405490000000444397C. DINOY                                                20500
A0701400260000000670848AVIGUIL TIPONES                                         20500
A0101412500000000739613BUSINESS CENTER                                         20500
A0101401960121327478001OR ROD MEDEL                                            20500
A0101401090171196095001MILAGROS W. LIM                                         20500
A0101401090171467544001OR ANGEL MA. S. AMPIL                                   20500
A0101400310211005848001BY: LUZVIMINDA V                                        20500
A0101408950396047389001CORPORATION                                             20500
A1201400150421039385001MANPOWER SERVICE                                        20500
A1201400150421252728001MARIA CORAZON                                           20500
A0901400220432746180001ARCILLAS JR., OSCAR C.                                  20500
A0101406330472436213002CAGUINGUIN                                              20500
A0501400170481259032001DR. NENITA RAMIR                                        20500
A0101403580511156582001ELIZABETH AGREGADO                                      20500
A0101403580511388107001FELISA C. PEDRO                                         20500
A0101406590662641633001MIKEL OR ANDRE MIKO                                     20500
B0101400440000000029332OMNITECHNOLOGY INDUSTRIAL INC.                           1603
B0101413860000000145264GENTRY SPECIALTY BUILDING SOLUTIONS INC.                 1601
B0101401670000000178541ECO-WIZ PHILS. INC.                                      1601
B0101409050000000258439INFORMATICS COLLEGE CEBU, INC.                           1604
B0101405650000000772812ONE BFCEA INC.                                           1601
B0101408240000000832575BOCUSE FOOD CORP.                                        1606
B0101400150061033285001D' LUCKY ACE DEVELOPMENT CORPORATION                     1601
B0101400440161528688001POWERPHASES CONSTRUCTION SERVICES INC.                   1610
B0101400310211005650002THE SALVATION ARMY BETHANY CHILDREN                      1601
B0101400310211021165001FIL CONCEPT INC.                                         1606
B0101400310211047354001AMBERTECH CORP.                                          1610
B0101406620273017284001ACCENT MICRO TECHNOLOGIES, INC.                          1605
B0101402510341019659002PANDORA EQUIPMENT SPECIALIST CORPORATION                 1601
B0101402060351023992001TRAINING FOR EXCELLENCE CORPORATION                      1603
B0101402640361035752001PRICE CUTS MULTI PURPOSE COOPERATIVE                     1602
B0101402640361038833001KASAGANA-KA DEVELOPMENT CENTER, INC                      1605
B0101402640361041622001DAVID KNIGHT SECURITY AGENCY                             1601
B0201400760374042003001*****                                                    1602
B2401400180411029585001IGLOO STORAGE COMPLEX CORPORATION                        1605
B0101403030441042826001G.O.H. REALTY CORPORATION                                1601
B0101403030441593223001**********                                               1601
B0101406330472314132001*****                                                    1601
B0501400170481015881001TOYOTA DAGUPAN INC.-2                                    1610
B0501400170481018109002****                                                     1605
B0101403580511155828001JOUBERT CONSTRUCTION INC.                                1610
B0101405940512539189001FILLED BY GRACE INC.                                     1603
B0101403450521011968001**********                                               1602
B0101408240711008390001TRANSLIFT SHIP MANAGEMENT, INC.                          1610
B0101405490000001092433SAMBO, EDUARDO DBU WATER WORL REFILLING                 11601
B0101401250021178956001PHILIPPINE NATIONAL GUARD SECURITY                      11605
B0101401090171007908001PERPETUAL SUCCOR HOSPITAL &                             11605
B0101406460272040151001FIRST BARON RESIDENCES CONDOMINIUM                      11603
B6601400120314043609007FUNDACION GRAMEEN PILIPINAS INC.                        11610
B6601400120314612844001MARTINEZ, ANGELINE OR MANUEL OR ORTIZ,                  11605
B2001400290315043596001MILRO MANAGEMENT AND DEVELOPMENT                        11601
B0101405490000001092433STATION                                                 21600
B0101401250021178956001AGENCY, INC.                                            21600
B0101401090171007908001MATERNITY, INC.                                         21600
B0101406460272040151001CORPORATION                                             21600
B6601400120314043609007VICTORIA BRANCH                                         21600
B6601400120314612844001LEOVIGILDO                                              21600
B2001400290315043596001CORPORATION                                             21600
B0101414830400821100608**********                                               2002
B0101414830400821200608**********                                               2002
