A0101404000000000025492HONG, JUN PYO                                            0501
A0101411950000000036217LAZARO, RAYMOND FAUSTINO                                 0501
A0601400230000000045241CANINO, CRISTINA FERNANDEZ                               0501
A2601400270000000084160EVELYN V. ALIVIA                                         0501
A0101406040000000096844********                                                 0501
A5001400170000000170181REMATE, ALMA JOY MALON                                   0501
A0101410560000000268371PERLITA C. IRIMAN                                        0501
A0901400220000000425169**********                                               0502
A0101405650000000448464LUGTU, LESLIE HOWARD PATINO                              0501
A0101411790000000469501AQUINO, ROBIN REYES                                      0501
A1601400170000000497547LEGAZPI COLOR CENTER                                     0501
A0101407720000000510869ESTEBAN, JOCELYN CANDA                                   0501
A0101412470000000520232CASILDO, RONALD ILLORIN                                  0501
A0101411530000000581464**********                                               0502
A4101400420000000711904NARIDO, ARIEL PICARDAL                                   0501
A4101400420000000711915VELASQUEZ, RUSSEL DELA PENA                              0501
A4101400420000000711926VILLAFLOR, MINERVA RAQUINO                               0501
A0101413860000000859069NILLO, CATHERINE BALDEMOR                                0502
A0101413310000000864028CABANSAG, ARMEL CABANATAN                                0501
A0101411370000000903582SOLIMAN, ALLAN GATBONTON                                 0501
A0101406590000000905475SY, KATHERINE MARIE YBANEZ                               0502
A2801400100000000968863MORADOS, MAYUMI ESPORLAS                                 0501
A0601400360000000978703KIM, MYEONGHO                                            0503
A2601400270000001009083MERNELLY R. RAFAEL                                       0501
A2601400270000001009221RENALYN A. IBARRA                                        0501
A0101407430000001028966TOHAMIE D. ANDAMUN                                       0503
A1001400190000001057590ARLYN ATON                                               0501
A0101413150000001067141******                                                   0510
A5501400120000001122001LINDONG, CONCHITA GOLEZ                                  0501
A0101408110000001165811ALBARICO, MARIA CHRISTINE V.                             0501
A0101403610000001174863LEBRIAS, MARITA MONGADO                                  0501
A0101403610000001174896TUSCANO, VIRGILIO BERROYA                                0501
A0101403610000001174921ALOLOR, JOSE RICHARD TAMAYO                              0502
A0301400820000001185791JARED HOTEL AND CONDOTEL                                 0503
A0101405940000001210006ALZONA, ANGELICA ROSELLO                                 0501
A3001400130000001271658VINCARE PHARMA                                           0505
A0101413150000001288171******                                                   0502
A0101409210000001294388GARCIA, MARK STEVEN SALCEDO                              0501
A0101404840000001312612BERIA, MICHAEL JOHN ALARCON                              0501
A1301400500000001412355MARIA HELEN L. DEL POSO                                  0502
A0101400440000001440000LAPASARAN, MARY GRACE FRANCISCO                          0501
A0101413440000001472646CARLO POCHOLO C GONZALEZ                                 0502
A0101413440000001472953ISIDRO, DESIRIE PATRICIO                                 0501
A0101409920000001539642MATALA, WIL DBU WPM TRANSPORT                            0502
A1101400120000001547417REDULA, REMEDIOS                                         0501
A1101400120000001547439GRABILLO, DOLORES CAJARA                                 0501
A2001400290000001557622SIMPORIOS, EDITHA BARTOCES                               0501
A0101413570000001682624EDWIN C. GAGARIN                                         0501
A0601400230000001687403ROQUE, O DBU R.O.D.'S MARKETING                          0501
A0101413150000001688560JANVIER BUGARIN FLORENTINO                               0501
A4101400390000001732612BAGACAY, ROY BEATO                                       0501
A4101400390000001732634RULL, FLORDELUNA DAZA                                    0501
A4101400260000001783611PAGE, MYLA BUARON                                        0501
A3101400160000001792167ROSE ANN V LIBARIO                                       0501
A0101412630000001823296ZABLAN, JOCELYN TAN                                      0501
A2201400250000001932214CORTEZ, RONALD THOMAS ARELLANO                           0505
A2201400250000001932269ANGELINA CARRILLO MENDOZA                                0503
A0101406590000002066924GUEVARA, MELVINE QUERUBIN                                0501
A0101405810072236268001KENG, LOUELLA JOCELYN BARRETTO                           0501
A0101405810072236551001***********                                              0501
A0101405810072300780002MAGNAYE, MA. CECILIA ADRIANO                             0503
A0101405810072367320001**********                                               0506
A0101405810072381557003MATEO, ANALYN CASTILLO                                   0502
A0101405810072381557004MATEO, ANALYN CASTILLO                                   0502
A0101405810072485037001HUNG, ANN JENNY YU                                       0505
A0101405810072545732002DONG, LIANXU GONG                                        0503
A0101401960121238686001*********                                                0501
A0101400440161478374164ELVIRA M. ABUD                                           0501
A0101400440161520766113MARIFE MANZANO                                           0501
A0101407270162203204001OGIE P. DIAZ                                             0502
A0101407270162225350001GRACE Q. AGCAOILI                                        0501
A0101407270162331908088MARLON L. ANTOLIN                                        0501
A0101401090171200500001VENUS OR DANTE ENDAYA                                    0501
A3101400160221478374061ANDREA E GOLVEO                                          0501
A3101400160221533263001DR. DOMINGO O. AMISTAD                                   0504
A1001400190231276493001MERCADAL, ERNIE FLORESCA                                 0505
A1001400190231478374075BARRON, LORNA                                            0502
A0101401670271352051004SUNTAY, MILAGROS GUEVARA                                 0501
A0101406460272089801001**************                                           0506
A0101406460272658165001**********                                               0501
A0101408660274648585001* * * * * * * *                                          0501
A0101405650322047677001THE J. BIJE'S WINDOW SHOP                                0504
A0101405650322307531001*********                                                0501
A0101408820333332886001ALDOVER, EDNA MIRANDA                                    0501
A0101402510341202843003**********                                               0501
A0101402060351370605001*****                                                    0503
A0201400760374478374009MARIEL TORRE                                             0501
A0101408400394502296001RODRIGUEZ, BEVERLY AYUDA                                 0501
A0101408400394535998001ANDAM, KATHERINE KRISTY TOMAS                            0502
A0101408950396397661001LAZARO-DIZON, GERGEN MARIE SERR                          0501
A0101408950396643519001LIM, CATHERINE GRACE LEDESMA                             0503
A0101409180397627793001CLAVEL, VIVIEN SILLA                                     0501
A5501400120410283898004GARCIA, JOSIE JAVELLANA                                  0504
A1901400160491343774001MA REGINA THERESA A BLANDO                               0501
A1401400110492029549002TRIPTORS DIAGNOSTIC CENTRE                               0502
A0101405940512481887001LEONILA P. ANDAL                                         0501
A0101404000551153238001KATIGBAK, VIRGILIO J.                                    0501
A0101404000551340823001JESUS CLINT O. ARANAS                                    0503
A0101407720602333243001MELODIE GRACE M. REMORCA                                 0503
A0101407720602396595001DR. MILAN P. TAMBUNTING                                  0502
A0101406590662209239001ANNIE LOU OR EDGARDO CRUZ                                0501
A1301400210682782329001IMELDA R LANUZA                                          0501
A1301400340683584414001CRUZ, ARISTEO RUBIO                                      0502
A2801400230713096226001SUSI, EMILY SIBUG                                        0502
A4101400420814017785001MONZON GENERAL MERCHANDISING                             0506
A4101400420814298552017LISA A. CLORES                                           0501
A4101400420814422280001DELGADO, ELVIRA CARIENENA                                0502
A4101400420814478374040TAN, IMELDA F.                                           0501
A4101400420814520766119OMNOS, NOVA DESCARTIN                                    0501
A4101400420814559384001RIBOT, NORMA GAJE                                        0501
A4101400420814572265004MA. THERESA A. CHICA                                     0501
A0101404840851520766002CYNTHIA S. GERODIAS                                      0502
A0101406750852625027001PASCUA, MARIA LOURDES ESPIRITU                           0502
A0601400230891788658001LENON, DIOSDADO MANLUTAC                                 0501
A0101407270000000010060SPIRO CLEMENTE OR                                       10504
A1101400120000000010588DE LIRA, MARVIN KENNETH A                               10501
A0101412630000000044700INES, MA. ANGELA DBU MMJ                                10502
A1701400230000000097905LORENZO, JULIETA DBU ONE PONAR                          10502
A0101412920000000276500SALUDEZ, RICARDO JR. DAR DBU                            10502
A4101400420000000710143GERONDA, RIZALDY DBU HRDG                               10501
A0101412470000000853856DY, PAUL ALBERT L. OR                                   10501
A2801400100000000968852MORADOS, MAYUMI ESPORLAS OR                             10501
A0101413310000001073905BUENAVENTURA, NICORALYN D.                              10502
A0101405490000001092728VICENTE V. VILLAREAL OR                                 10501
A0101412630000001823303REROMA, REMEDIOS S. OR                                  10501
A2401400180000001935800PAMA, GERALDINE DAPILAGA DBU                            10501
A0101400150061226989001EDUARDO E. CAEG OR                                      10501
A0101401960121327478001AIDA MEDEL                                              10502
A0101407270162163292001ANICETO P. GO                                           10502
A3101400160221322026001ANDRES D. IGNACIO JR. AND                               10503
A0101408400394412453001TAYAG JR., DANILO OCAMPO  OR                            10501
A0101408400394415942001DELA PENA, ALVIN JOHN R OR DELA                         10501
A0101408950396726811001GERARD M. MORALES OR                                    10502
A0101403610531393288002CHING, IRENE AVERIA OR CHING,NG                         10501
A0101404000551478727001HUANG, GEORGE EMIL SHAU OR                              10501
A0101406590662209239002CRUZ, ANNIE LOU OR EMANUEL OR                           10501
A4101400550815648589004GICA, JENNIFER ALONZO OR                                10502
A0101407270000000010060JENNIFER CLEMENT                                        20500
A1101400120000000010588OR DE LIRA, MA. KATRINA B                               20500
A0101412630000000044700MASTERS FOOD STATION                                    20500
A1701400230000000097905PLACE                                                   20500
A0101412920000000276500LIBERTY STONE SUPPLY                                    20500
A4101400420000000710143TIRE RECAPPING SERVICE                                  20500
A0101412470000000853856SANTOS, ISABEL TERESITA L                               20500
A2801400100000000968852ESPORLAS, PONCIANO                                      20500
A0101413310000001073905DBU 8N ENTERPRISES                                      20500
A0101405490000001092728ANNALISA M. VILLA-REAL                                  20500
A0101412630000001823303ROVILLOS, SATURNINO L.                                  20500
A2401400180000001935800CARLOTA STORE                                           20500
A0101400150061226989001BESSIE C. CAEG                                          20500
A0101401960121327478001OR ROD MEDEL                                            20500
A0101407270162163292001OR MILDRED GO                                           20500
A3101400160221322026001RICKY A. CUETO                                          20500
A0101408400394412453001TAYAG, DEODATO O                                        20500
A0101408400394415942001PENA, MICHELLE K                                        20500
A0101408950396726811001REGINA ISABEL S. MORALES                                20500
A0101403610531393288002OR CHING, JOWELL                                        20500
A0101404000551478727001HUANG, OLIVIA SH                                        20500
A0101406590662209239002ENRICO JOSE                                             20500
A4101400550815648589004GICA, EZRA VAN ABRIGO                                   20500
B2801400100000000004888ASIA INTERNATIONAL AUCTIONEERS FOUN                      1601
B0701400260000000041072MOTHER SETON HOSPITAL EMPLOYEES UNION                    1601
B17014002300000000979615 SISTERS TRADING VENTURES CORPORATION                   1602
B1201400150000000473363THE BAG AND SHOE KOBBLER CORPORATION                     1602
B0101400150000000633378CEU HOLDINGS CORPORATION                                 1602
B1301400210000000915639AVS DISTRIBUTION CENTER                                  1602
B0101412470000000949555OPENSIDE INC.                                            1601
B0101400730000001242631ZIP BUSINESS SERVICES INC                                1601
B0101400150061010613001SECURITY BANK EMPLOYEES UNION                            1601
B0101400150061010833001VELCA TRAVEL & TOURS, INC.                               1601
B0101405810072412798001**********                                               1603
B0101405810072412798002**********                                               1603
B0601400100081013032001MT. VIEW BIBLE BAPTIST CHURCH                            1605
B0601400100081026547002ANGELES FRIED CHICKEN, INC.                              1604
B1001400350233032957001PCCI FINANCE CORPORATION                                 1601
B0101408820333040998008INTELE BUILDERS AND DEV'T CORP.                          1602
B0201400890376037020001BREEDERS AGRIVET SUPPLIES INC.                           1605
B0101408530516481834001**************                                           1601
B0101403450521011872001**********                                               1601
B0101403450521029025001**********                                               1602
B0101403610531224782001**********                                               1603
B0101406590662043617001PERSIAPOLIS COCKTAIL LOUNGE                              1601
B1301400340683456739001LAZATIN JR., EDUARDO NIONES                              1602
B2801400230000000008404A CHILD'S TRUST IS OURS TO NURTURE                      11601
B1001400350000000017085CHAN, ALFREDO DBU GOLDEN ENGINEERING SRS                11602
B0101412630000000024062EMIR HOLDINGS AND MANAGEMENT                            11602
B0101401250000000460575RACELIS, F DBU COLORADO                                 11602
B0101400730111100015004THE PHILIPPINE AMERICAN LIFE AND GENERAL                11603
B1401400110492365609001JEORGE S MALIGAT - PILIPINO HARDWARE AND                11601
B2801400230000000008404(ACTION), INC.                                          21600
B1001400350000000017085OR CHAN, M. K.                                          21600
B0101412630000000024062CORPORATION                                             21600
B0101401250000000460575PRINTING PRESS                                          21600
B0101400730111100015004INSURANCE CO.                                           21600
B1401400110492365609001CONST. SUPPLY                                           21600
