F3201400190000001492855RECEL JR., ESTEBAN REYNON                                2503CKO
F0101400150061043015001RCHITECTS INC.                                           2603CKR
F0201400180181053317001DY, ANTONIO DBU BELCRIS FOODS                            2601CKR
F3101400450223739176001*****                                                    2605CKO
F0101400570281007401003HDR FOODS CORPORATION                                    2605CKR
F0301400240401025953008ECE MARKETING                                            2602CKR
F0901400190431038091001PEASE CORPORATION                                        2601CKR
