A2801400100000000004720REYES, MYRA DBU MRC DENTAL CLIN                          0501
A0101409920000000022066DAVIS, JONALYN ARGUILLES                                 0501
A0101408820000000027352********                                                 0502
A0101401830000000033729ABEJAR, SUSAN GAUNA                                      0501
A0101401700000000040148MANUEL, CHRISTOPHER BONARES                              0502
A0101408660000000059910LAM, EFREN DBU BAN HOK TRADING                           0501
A2401400180000000073538GABAYERON, RINADEL DELOS SANTOS                          0501
A0101400310000000140861SAPALLO, MARIE ANTONETTE MENPIN                          0501
A0101405490000000444502LAWRENCE LEO M. ALIANGAN                                 0501
A0101402060000000445481SAYAROT, BERNARD LOU ENDAYA                              0501
A0101401250000000460531ROSCO, EFREN FAJARDO                                     0502
A0101408110000000474300SALUDO, DESIREE RUALES                                   0501
A0101407560000000477703YOGI PIA BANAL HEBRES                                    0502
A1601400170000000497445LOUMELY M. MAPE                                          0501
A0101403320000000522063VIRGILIO S. VILLALUZ                                     0502
A1301400210000000540801SANTIAGO, EMILY TAMAYO                                   0501
A4101400420000000710405SAUL, EMILYN DIANE MAGDASOC                              0501
A0101403320000000735973**********                                               0502
A0101403320000000736174FONTANILLA, MICHELLE MACAPAGAL                           0502
A0101401670000000739139ISLAO, MADILYN DE VEYRA                                  0501
A0101412500000000739679FRANCISCO, JOSEPH BRYAN CRUZ                             0501
A0101408950000000776650VITALEZ, LALYN ESO                                       0501
A0101408820000000800359SORIANO, ISIDRO GUTIERREZ                                0501
A0101407270000000818326CATHERINE B. LOPEZ                                       0501
A0101407270000000818491RYAN RESELVA                                             0501
A0101407270000000818508TUBONGBANUA, CHRISEL SANTOS                              0501
A0101407270000000818519LAMINARIA, GLORIA                                        0501
A0101400440000000821367ENRIQUEZ, VIVIAN CABRAL                                  0502
A0101409920000000857945TOLENTINO, MARY ANN VERANO                               0501
A0101413860000000859003RUNEZ JR, SAMUEL RUNES                                   0502
A0101404680000000862259ALEXANDER B. UDIONG                                      0503
A0901400220000000887932ATTY. BENJAN B. ILAHAN                                   0501
A0101401250000000907062MARCOS, NONITA NEPOMUCENO                                0501
A0101404840000000943408PAGUNURAN, ETHEL MARIZ MARTIN                            0501
A0101409920000000998638BONABON, LERNED HAN FONACIER                             0501
A0101409050000000999580CONOZA, JORDAN CHRISTIAN TAN                             0501
A0101412340000001017714TAGLE, MARIO PETRAS                                      0502
A0101408240000001038697APARICIO, RENATO FRANCIA                                 0501
A0101412890000001056360AMIDO, NORMA GUEVARA                                     0501
A0101412890000001056382DAYFULL ENTERPRISES                                      0501
A0101413570000001069541**********                                               0501
A0101403610000001174794MALVAR, ROLAN JAMBALOS                                   0501
A0101403610000001174801TAGUINOD, ELISA BEDINA                                   0501
A0101404000000001186818BERGADO, KELVI ANN LICO                                  0501
A0101407560000001276131MARY ANNE DAVID DELICA                                   0501
A0101401830000001281903MANAOIS, MARIE FARLASHE OBACH                            0501
A1301400470000001299043MONRICO EVAN DIAZ JAVIER                                 0501
A2001400290000001301153MENDEZ, MARJORIE MENDOZA                                 0501
A2001400290000001301164BARBA, NIDA CIRCULADO                                    0501
A0201400920000001331742**********                                               0501
A1901400290000001362965ROSANNA GUTIERREZ DE LEON                                0501
A0101402770000001396283EDUARDO VERDILLO VALERIO JR.                             0502
A0101400440000001439801ANOLLADO, RODA CRUZ                                      0501
A0101400440000001439812DILAO, DOROTHY LIMPAJAN                                  0501
A0101412630000001485229DOMINGO, EVELYN AVILA                                    0501
A0101401090000001611303SHARON FELIPE SIMON                                      0501
A0101404130000001614455AGUAVIVA, MADILYN PEREZ                                  0501
A4101400260000001673463PINGOL, LEONILA VILLALON                                 0501
A0101401250021471792001PIOQUINTO, DELIA ROSQUITES                               0501
A0101401700041502022001**********                                               0504
A0101405810072367597002WANG, GUO YANG                                           0502
A0101405810072383395001**********                                               0501
A0101401830141524836001PINGAD, RHODORA DECAPIA                                  0501
A0101400440161039572023JIMMY S. PALISOC                                         0501
A0101400440161478374087LORNA V. GALLARDO                                        0501
A0101407270162039326001TITANIUM ENTERPRISES                                     0502
A0101407270162331904012CHITTY LEE L. BARRA                                      0501
A0101407270162501845001PINILI, DOMINIC MANABAT                                  0502
A0101401090171414799002PERLA R. MARTIN                                          0501
A0101400310211161094001MARCIANO, BELEN                                          0505
A0101400310211478374015RAMIRO, LILY P.                                          0501
A0101400310211722479002MARTICIO, BONIFACIO CUACHIN                              0501
A0101400310211792384001DIANCO, VON BLESLER BELDIA                               0501
A0101407140213485140001**********                                               0501
A3001400130230478374016GAQUIT, EVANNY MAAMO                                     0501
A1001400190231022073001FARASIA EDUCATIONAL LIBRARY COR                          0502
A1001400190231520766049JOCELYN S. LLUBIT                                        0501
A1001400190231520766089CODILLA, ORLAND ORIAS                                    0502
A1001400190231520766109MEJIA, FLORDELIZA CAJANDAB                               0502
A1901400290261415870001BUENAVENTURA ROBLES INFANTE                              0502
A1901400290261689596001MARY ERNESTINE C COLUMBRES                               0501
A0101406620273381533001SY, NELLIE CO                                            0501
A0101406620273518518001RICALDE, ROSARIO RODRIGUEZ                               0502
A0101406620273524437001REAZON, JENNIFER MEDRANO                                 0501
A0101406620273729526001ROQUE, MARIBEL DIMAPILIS                                 0502
A2601400270302631323001MARIA ISABELL R. DULIG                                   0502
A1101400120313634109001ANDALES, IMELDA ANGULO                                   0502
A2001400290315788888002***************                                          0501
A0101402510341232460006LU, HANS TE                                              0501
A0101402060351217444016VIRGILIO S. MAQUILING                                    0501
A1201400150421401964001PARAS, MILLICENT FERMILL                                 0501
A0101405940512155818001ANTONIO C. KO OR LEE MEE LING                            0502
A0101403450521389380001**********                                               0501
A0101403610531358877002BISCO, NELIA DE CASTRO                                   0501
A0101403610531381657016JULIET C. OLIVAS                                         0501
A0101403610531400970001BRILLANTE, ROSARIO AMIL                                  0502
A0101404000551478374002PENAMORA, GIRLIE E.                                      0501
A2201400250561075448001*******                                                  0502
A0101407720602382305001PARDINAN, ROSSANA O.                                     0501
A0101407720602470788001ISIDRO, MARIA JOCELYN CAPULI                             0502
A0101404420631383651001*****                                                    0504
A0101409920650416463001TANCIO, SALLY PANGA                                      0501
A1301400210682284604001REYNALDO C. VALERIO                                      0502
A0101408240711436371001YAP, MILAGROSA ROSLINDA                                  0501
A0101408240711478374022PAGLICAWAN JR., RODOLFO                                  0502
A0101408240711594284001TALANTOR, MA VILMA ERISPE                                0502
A4101400420814520766080MAHILOM, LOTIS N.                                        0501
A0101404840851478374038EVANGELINE UMALI                                         0501
A0101404840851478374062VIOLITA V. GIDUCOS                                       0502
A0101412470000000026786MARIA OR ALBERTO OR ANA                                 10501
A5001400170000000170163LIM, WERNER W OR LIM, MA. ELENA                         10505
A0101412890000000371577CULMINAS, HERMOGENES G.                                 10501
A1101400120000000652362YANG, ROSITA GO OR UY,TIA SHENG                         10505
A2801400230000000937504QUIROZ, DBU JEWEL BUSINESS                              10501
A0101405810000001021172PUA, C DBU MCK SCHOOL & OFFICE                          10502
A0101412890000001056371CALUSA, MA CRISTEL MAICA LEYNO                          10501
A1901400290000001362976DR. JOSE RENE D. DE GRANO OR                            10501
A0101400310211376429003AYROSO, MIRABELLE GO OR                                 10501
A1901400290261099052001ROWENA ANA R CORNEJO                                    10502
A1901400290261513754001CLEA LAYCO PASTETEO OR                                  10501
A0101406620273521300001GARCIA, LEO MCGUIRE OR                                  10501
A0101408950396761506001DONALD C. CRISTOBAL OR MA.                              10501
A0101403320471042842001MIGO MEATSHOP AND FOOD SUPPLY                           10505
A0101405940512360728001ERWIN P. HERNANDEZ OR AGNES                             10501
A0101405940512360981002BERNADETTE T ANTIPORTA OR                               10501
A0101403610531290519002MENDOZA, FREDERICK MIRANDA OR                           10504
A2201400250561400019001GLOTHELDA S. RIVERA                                     10502
A2201400250561478374019ELOISA F. VIGILIA                                       10501
A0101412470000000026786MARGARITA PADILLA                                       20500
A5001400170000000170163 M DBU PRIMUS VE                                        20500
A0101412890000000371577OR CULMINAS, IME                                        20500
A1101400120000000652362OR UY, JOSEPHINE                                        20500
A2801400230000000937504AGENCY AND GEN. SRVCS JT                                20500
A0101405810000001021172SUPPLIES                                                20500
A0101412890000001056371OR CALUSA, RODEL                                        20500
A1901400290000001362976DR. VILMA M. DE GRANO                                   20500
A0101400310211376429003CALINA, ZOILO II                                        20500
A1901400290261099052001OR GALICANO B CORNEJO                                   20500
A1901400290261513754001ROMULO BUJAUE PASTETEO                                  20500
A0101406620273521300001GARCIA, CARMEN                                          20500
A0101408950396761506001FLORDELIZA A. CR                                        20500
A0101403320471042842001CENTER                                                  20500
A0101405940512360728001T. HERNANDEZ                                            20500
A0101405940512360981002GENOVEVO B ANTIPORTA                                    20500
A0101403610531290519002MENDOZA, FELICIANA                                      20500
A2201400250561400019001OR RONNIE F. RIVERA                                     20500
A2201400250561478374019MEMBERS OF NATASHA                                      20500
B0201401020000000042297GLOBAL POWER EQUIPMENT MARKETING CORP.                   1601
B0201401020000000042300CLS PROPERTIES INC.                                      1601
B0101401700041046197001SERVERIGHT MANPOWER SERVICES                             1601
B0101400600071011421002******                                                   1601
B0101405810072034989001TRANSWELL ENGINEERING CO.                                1602
B0101405810072374751001**********                                               1601
B0101407270162019034002FOOD FEST LAND, INCORPORATED                             1602
B0101407270162028545001G-1ST VALUE HOLDINGS, INC.                               1601
B0101407270162040422001******                                                   1602
B0101400310211005645002PHARMATECHNICA LABORATORY INC,                           1603
B0101400310211023184001Q.C. STYROPACKAGING CORPORATION                          1604
B0101400310211034256001KAPIANS VENTURES INC.                                    1602
B0101400310211047121001CLEOMEDICS INC.                                          1602
B1001400350233045991001LYL DEVELOPMENT CORPORATION                              1601
B0101401670271007482001VISEVERSA, INC.                                          1605
B0101409050352039586002MICROSOURCING PHILIPPINES INC.                           1610
B0201400920375031185001MOBEL HAUS PHILIPPINES, INC.                             1605
B0101409180397042565001MEGATRADERS INT'L CORP                                   1602
B0101403030441239806001JETCO MOTOR SALES                                        1604
B0101405940512020791002ACRYDENTAL LABORATORIES, INC.                            1601
B0101403450521012010001********                                                 1603
B0101403450521029023001**********                                               1602
B0101403450521238191001**********                                               1610
B0101404130601024996002UNION CHURCH OF MANILA, INC.                             1610
B1301400340683025550001HONDA MINERVA INC.                                       1601
B1301400340683045643001JOURNEY ELITE MOVER'S CORPORATION                        1602
B1701400230693035209003OUR SAVIOUR'S FOUNDATION, INC.                           1602
B0101408240711036897001EVER THEATRICAL, INC.                                    1601
B2801400100712028940001HUANG CONSTRUCTION CORPORATION                           1605
B2801400100712039090001GREAT WALL EXPLORATION, INC.                             1605
B1201400150000000034380THE LORD IS MY SHEPHERD CHRISTIAN MINIST                11601
B0101407270162558669001UNIPRIME BEAVER STEEL PRODUCT                           11610
B0101406620273026526001LAW FIRM OF KALAW SY VIDA SELVA &                       11602
B0201400760374042294001MANDAUE CEBU MARINE PRODUCTS                            11605
B0201400920375512966002LIM JR., MANUEL OR LIM, IMELDA                          11601
B0101402770391030297001CRW MARKETING SERVICES FOR                              11605
B1201400150000000034380RIES BAGUIO CITY                                        21600
B0101407270162558669001CORPORATION                                             21600
B0101406620273026526001CAMPOS                                                  21600
B0201400760374042294001CORPORATION                                             21600
B0201400920375512966002OR LIM, SANTIAGO                                        21600
B0101402770391030297001PUBLISHERS, INC.                                        21600
B0101405780212821100608**********                                               2001
B0201400760374821100608**********                                               2050
B0101407560686821100608**********                                               2005
