F1301400470252483303001NOMER G. LUNA                                            2505CKO
F0101409500000000217109ASPEN CONSTRUCTION & DEVELOPMEN                          2601CKR
F0101400150061043015001RCHITECTS INC.                                           2602CKR
F0101408110515017722007STORES SPECIALISTS, INC.                                 2602CKO
F4101400260812038727001METRO CAVITE HEALTH SYSTEM INC.                          2610CKR
