F4101400260000000469330DEPANO, ABEL GONZALES                                    2503CKO
F3101400320222448311001YABUT, ERNESTO GONZALES                                  2502CKO
F0101408370382415751001MA. CECILIA CRUZ-REYES M.D.                              2505CKO
F0101404130601611811001ASUNCION, LEOPOLDO MUNAR                                 2502CKO
F0101407690652094884001JONSAY, NICOLO LACERNA                                   2502CKO
F0101402480331635109001*********                                                2603CKR
F0101409890649045548001MAX-TEL INDUSTRIES CORP.                                 2601CKR
F1201400280671025773008*****                                                    2620CKO
F4101400260812024491001FUJISASH PHILIPPINES, INC.                               2603CKR
F0101406750852044869001SAFEBOOKS BUSINESS SOLUTIONS, I                          2602CKR
F0201400180181041625001CEBU HYBRID FARMS CORPORATION                            2702CKC
