F0101400860011038338001ANGELS AT HEART FOODS SHOP                               2504CKO
F0801400160311265955001TIU, MARY CHUA OR TIU, URGONA                            2505CKO
F0201400180001815500841ONG, PACITA YU                                           2601CKO
F0101406620273041169001FIBERCOM TELECOM PHILS., INC.                            2605CKR
F0101400570281042880001CATARMAN OIL MILLS, INC.                                 2602CKR
F01014130200000000567844TH WALL PRODUCTION DESIGN                              12601CKR
F01014130200000000567844TH WALL PRODUCTION DESIGN                              12601CKR
F0101413020000000056784STATION                                                 22600CKR
F0101413020000000056784STATION                                                 22600CKR
