F1901400290261039034001EMMA ANGELA DIMAANO JACOB                                2502CKO
F0101400570281415005001MYLA OR ROBERT CHOA                                      2503CKO
F0101411820000000477481MORPH ANIMATION, INC.                                    2610CK1
F0601400100081041670001ROYAL GARDEN GOLF & COUNTRY CLUB                         2610CKO
F1201400150421031460002CJH SUITES CORPORATION                                   2603CKR
F0101407560686445506001NORTHERN WASHING PROVIDER INC.                           2602CKR
F0101406750852044869001SAFEBOOKS BUSINESS SOLUTIONS,                           12602CKR
F0101406750852044869001INC.                                                    22600CKR
