A0901400220000000012357SANTOS, JOSEPH SABILLANO                                 0501
A0101411790000000039267GO, NILDA FRANCHESCA VILLAMIL                            0503
A0101413310000000039865CONCEPCION, MICHAEL JOSEPH G.                            0501
A2401400180000000073550ALBARRACIN, JEMAR DEGAMO                                 0502
A0301400820000000132629AMIE L. ASOY                                             0501
A0101406750000000172865JIMENEZ, ANGELES JARDIN                                  0502
A0101413440000000183771AMBAS, ARVEE CALLOS                                      0501
A0101402510000000200153LPR GRAPHIC DESIGNS                                      0501
A0101413570000000206351**********                                               0501
A1301400500000000213334RODRIGUEZ, MA THERESA RONQUILLO                          0501
A5001400170000000214002REQUINA, ORWINO ATAY                                     0502
A0601400360000000225341QUILOP, QUEEN ANN CARANTO                                0501
A0101409050000000258304MARY JANE A. CRUZ                                        0501
A0101409890000000437405REYES, MICHAEL CONCEPCION                                0501
A0101405490000000444591******                                                   0501
A0801400160000000476346TSC SUPREME MOTOR SHOP                                   0503
A0101409920000000523584MASACUPAN, PHILIP GONZALES                               0503
A0101413440000000570381NOCUM, LEANDRO CASTELO                                   0502
A0101414090000000648482SALCEDO, ROSALINDA GALLARDO                              0501
A4101400420000000710030TUCAY, ANNIE BONITO                                      0502
A0101403320000000735984************                                             0501
A0101410850000000778827MABOLO ENTERPRISES                                       0501
A0101402930000000859714LAGURA, MAIRA MARIANO                                    0501
A0101402930000000859861ENCARNACION, MARIA CONCEPCION E                          0501
A0101413310000000863941SUMALINOG, KATHERINE MANZANO                             0501
A0101413310000000863970************                                             0501
A0101413020000000880382************                                             0501
A1001400350000000922081**********                                               0501
A0601400520000000986570MANALO, PRINCESS GOMEZ                                   0501
A0101400730000001016493CAMPOS, JOSE PAULO ESPIRITU                              0503
A1001400190000001057534MIGUELA, JUANITO PANGILINAN                              0501
A6601400120000001065343GALIT, ROGELYN DAULAT                                    0505
A0101413310000001073603MANGAO, DAIANA ROSE MASALUNGA                            0501
A0101413310000001073767JOREEN HERNANDEZ R.N.                                    0501
A0101410140000001074679DELGADO, MARIA LEONORA DOLENDO                           0501
A0101410140000001074680FELLORES, GIANFRANCO JARUDA                              0501
A0101405490000001092615SOJI M. BALBIN                                           0501
A0101404000000001186807JAPITANA JR., ANGELITO RAMADA                            0501
A0301400790000001244586GALON, MARREON ANASCO                                    0501
A0101413730000001253172*************                                            0501
A2001400290000001301368FAELNAR, TRINIDAD EULLARAN                               0501
A2001400290000001301379NASSAR, CARLOHF JAN CADIZ                                0501
A6601400120000001370558HECHANOVA, SANDRA CHITONGCO                              0501
A0101405650000001377373MANZO, KAREN IXARA ENRIQUEZ                              0501
A0101413990000001406440ALONZO, MAYNARD VILLAMARZO                               0501
A0101413990000001406451CLAVO DE COMER JR., JESSIE I.                            0501
A0101413440000001472793DINO, ELIZABETH GRACE CASTRO                             0501
A0101412630000001485310BADILLA, EVANGELINE RAMOS                                0501
A0101402770000001570703ESPINA, EDZEL MULLEDA                                    0501
A0101401090000001611358MANGONA, JASMIN JAVIER                                   0501
A0101400730000001697298ALAN J. CASTRO                                           0501
A0101404260000001725151********                                                 0501
A1701400230000001786661CASTILLO, MYRA CELESTE JULIAN                            0502
A0101400860011394631002**********                                               0502
A0101400860011495810003**********                                               0501
A0101400150061527186001ROBLES, ANITA ANTONIO                                    0502
A0101400600071478374004JULIET E. SY                                             0504
A0101400600071719765001********                                                 0501
A0101400730111042129002JONATHAN P. ALVARADO                                     0501
A0101400730111386485042ELENA B. PEREZ                                           0502
A0101400730111483566001MONZON, HOPE CUBITA                                      0503
A0101400440161395112001GERLY T. VILLEGAS                                        0501
A0101400440161478374141GENILA J. TORCENDE                                       0501
A0101407270162087457001******                                                   0501
A0101407270162772005001EDNA G. HURANO                                           0501
A0101401090171474638001CARLOS C. BUENDIA                                        0502
A0101401380201367197001MERCEDITA B. PAREDES                                     0502
A0101401380201763539001NATOC, NINO SARBAN                                       0501
A1001400350233525388001JILL YVES LORRAINE A. LAO                                0501
A1001400350233644458001LAZO, MICHELLE ATINEN                                    0502
A0101406620273216852001TRILLANA, NOEL TONOGBANUA                                0501
A0101400570281186867001DR. DIANA JEAN ROXAS                                     0501
A0801400160311265752001DIVINAGRACIA, LLANE GRACE                                0501
A0801400160311303099001MAY U. QUERUBIN                                          0502
A0801400160311413609001LIM, JOSEPH PO                                           0505
A0101402350321580647001KYEONG, HYEONGPYO                                        0501
A0101402480331031206001**********                                               0503
A0101402480331218887001**********                                               0506
A0101402480331396734001*********                                                0501
A0101402480331520766007MA. NILDA DE JESUS                                       0502
A0101402480331520766095BENITEZ JR., LEO L.                                      0501
A0101402930381347767001JOSE MARIANO R. BONDOC III                               0505
A0101402930381410766001MILADEL LOURDES R BONDOC                                 0503
A0101408400394028886002DEC ORIENTAL FOOD STREET CO. LT                          0502
A0101408400394424269001PEREZ, NICOLO SARANDI                                    0502
A0101408400394478374090MARY DUMASLAN                                            0501
A0101408950396563723001CELLONA, CLARISSA VILLARAMA                              0502
A2401400180411043200001DYNAMIC FORCE SECURITY AGENCY                            0510
A2401400180411564736001CATULPOS, ELMER VILLEGAS                                 0505
A0901400220432708709001MAHILUM, CATHERINE RIZALDE                               0501
A0901400220432731076001JAMANDRE, EMBE ARAGON                                    0501
A0101403030441239072002**********                                               0502
A1901400160491378812001LERMA D CALINGASAN                                       0503
A0101403450521240683001**********                                               0502
A2201400250561297004020NOEMI M. MADAMBA                                         0501
A0101407720602396254001ROXANA M. SISON                                          0502
A0101404260611022508001WORK AT PRINT, INC.                                      0501
A0101404260611040956001POWER ZONE ELECTRICAL SERVICES                           0501
A0101404260611152161001PABLO O. LABRADOR                                        0501
A0101404260611337876002CHING, ROSA MATIAS                                       0503
A0101404260611478374097MILA B. RIELO                                            0501
A0101404260611478374121FLORDELIZA B. HUVALLA                                    0501
A0101404260611510269001EMILIANO ROBERTO M QUIDAY JR                             0502
A0101404420631032465001JANEROSE PRINTING SERVICE                                0501
A0101409920650478374024DUMAWING, LUALHATI SANTIAGO                              0501
A1701400230693478374015FERNANDEZ, FEMA L.                                       0501
A4101400260812566629001JESSICA G. ROSARIO                                       0501
A4101400390813478374020BLANCA, MARRISA                                          0502
A4101400420814710353001GRANADA, MILDRED SISON                                   0502
A0101404840851481664044TAKESHI KANEKO                                           0501
A0101406750852478374004IMELDA TAGUNA                                            0501
A0101400730000000044215LERISSA DELA CRUZ OR LOURDES                            10501
A0101402930000000053318MISAGAL, SYRELL LARASE OR                               10501
A0101410300000000191859PRADO, ANNA JASMIN OR                                   10501
A0101405490000000444580JUSTINIANO E. GORDONCILLO JR JT                         10501
A6601400120000001370569MONTERA, GLENDA GAZO DBU RONVER                         10501
A6601400120000001370570SAYAWAN, ANABELLE ANONUEVO                              10501
A0101400730000001697312DE JESUS, ARTURO BEDUYA                                 10501
A4101400390000001732463COROS, MA. LOURDES DBU IKONG                            10501
A4101400390000001732474DE LA CUADRA, ELIZABETH DBU                             10501
A0101406620273385418001HELOISE PIMPERNEL OR ESTEBAN OR                         10501
A0101400570281347185001CATALINA P. BARON OR                                    10502
A0801400160311380582001CHUA, ANDREW UY OR                                      10501
A0101409050352696779001MONJE, RUDOLFO SUGUITAN OR                              10501
A0101402930381205169001LETICIA OR DOROTEO OR REYNALDO                          10502
A0101402930381205350002MARIANO BONDOC/LOURDES MILADEL/                         10503
A0101402930381283088002JOSEPH VINCENT A. ALBA OR                               10503
A0101405490392713268001MA. LUISA O. CUERDO OR                                  10502
A2401400180411478374061JUNRES AGAD OR                                          10501
A0101403320471560880001REYNALDO JAMERO SANTIAGO JR.                            10501
A1901400160491086902001DANTE D CALINGASAN OR                                   10503
A0101404420631354676001SYJUCO, RAMON M. OR                                     10501
A0101408240711487311001RACHO, DESIDERIO OR TRANQUILINA                         10502
A0101400730000000044215JOYLEEN AQUINO OR REYNALD                               20500
A0101402930000000053318PELAGIO, MICHAEL                                        20500
A0101410300000000191859JIMENEZ III, HERNANI                                    20500
A0101405490000000444580BELINDA G. GORDONCILLO                                  20500
A6601400120000001370569ENTERPRISES                                             20500
A6601400120000001370570OR SAYAWAN, JULIO OLIVA                                 20500
A0101400730000001697312OR SHIENNAH P. DE JESUS                                 20500
A4101400390000001732463MEAT SHOP                                               20500
A4101400390000001732474GLNMV GEN. MERCHANDISE                                  20500
A0101406620273385418001MARIA PILAR MAGA                                        20500
A0101400570281347185001MA. JOSEFINA SAWIT                                      20500
A0801400160311380582001CHUA, PAMELA G.                                         20500
A0101409050352696779001MONJE, ROSALIA TAN                                      20500
A0101402930381205169001JR. OR MARISA PA                                        20500
A0101402930381205350002JUAN MIGUEL BONDOC                                      20500
A0101402930381283088002AGNES A. ALARILLA                                       20500
A0101405490392713268001EUGENIE LOUISE O. CUERDO                                20500
A2401400180411478374061NORMELITA BLANCO                                        20500
A0101403320471560880001OR JOCELYN V. SANTIAGO                                  20500
A1901400160491086902001LERMA D CALINGAS                                        20500
A0101404420631354676001SYJUCO, TEODORA                                         20500
A0101408240711487311001OR ANNA OR ARTHUR                                       20500
B0101411240000000012084PAZ LIFE PLANS HOLDINGS INC                              1601
B1301400210000000023463SAN PABLO MULTI-PURPOSE COOPERATIVE                      1602
B0101411820000000024142HARDCOM COMPUTER SYSTEM CO.                              1601
B0101402480000000028139POWERCORE ELECTRICAL SUPPLIES                            1604
B2401400180000000073670BRIGADA HEALTHLINE CORP.                                 1620
B0101402480000000794350**********                                               1602
B0101402480000001100143KOINONIA HAULING AND SALES INC.                          1602
B0101402480000001562323APARTMENT R US CORP.                                     1601
B0101400860011375355001***********                                              1601
B0101400150061010833001VELCA TRAVEL & TOURS, INC.                               1601
B0101400150061016166001XPLORE PHILIPPINES, INC.                                 1603
B0101407270162036333001DONA ALEJANDRA, INC.                                     1610
B0101407270162046726001VALUE CARE HEALTH SYSTEMS, INC.                          1650
B0101401380201030648001ITEMP HOLDINGS INCORPORATED                              1601
B0101407140213020943001**********                                               1605
B0101401670271047796001TYLERMARK CORPORATION                                    1601
B0101406620273017284001ACCENT MICRO TECHNOLOGIES, INC.                          1605
B0101406620273031145001KOHL INDUSTRIES CORPORATION                              1603
B0101406620273733659001ULTRAGAS CARRIERS CORP.                                  1603
B0801400160311013984002HOPE LENDING CORPORATION                                 1602
B2001400290315041262001SUGAR HILLS AGRICULTURAL CORPORATION                     1601
B2001400290315081901001SILLIMAN UNIVERSITY                                      1650
B0101405650322006303001GIL'S TRADING                                            1605
B0101402480331010038001**********                                               1602
B0101402480331010339001SIA'S AUTOMOTIVE & DIESEL PARTS                          1605
B0101402480331016270001NATION PAPER PRODUCTS & PRINTING CO                      1610
B0101402480331048075001*******                                                  1602
B0101408820333622258002********                                                 1630
B0101402510341037516002PRIMEWORLD MANAGEMENT SERVICES, INC                      1610
B0201400760374030513001RQLIM RESOURCES, INC.                                    1601
B0101402930381008829002AXEIA DEVELOPMENT CORP.                                  1615
B0101408400394030457001LAZER SUPERIOR INSTRUMENTS INC.                          1602
B0101403320471009122001ELDRICH FOODS CORPORATION                                1603
B1901400160491027966001SALESFORCE ONE MARKETING, INC.                           1605
B0101404260611027974001E.B. KARMINE COMMERCIAL                                  1602
B0101404420631034750001DELTA FORCE SECURITY AGENCY                              1602
B0101408240711026678001SAMBEL PACIFIC CORPORATION                               1602
B1101400120000000652960CHILDFUND INTERNATIONAL,USA DBU THE NAME                11610
B0101400730000001242391MANINANG, IRENE ESQUIVEL DBU                            11601
B0101403320471008859001NEW LITE LUMBER & CONSTRUCTION                          11602
B0101403320471034929001MAHALO CAR AIRCONDITIONING &                            11602
B1101400120000000652960CHILDFUND PHILS.                                        21600
B0101400730000001242391D MULTIPLIER                                            21600
B0101403320471008859001SUPPLY                                                  21600
B0101403320471034929001AUTO SERVICES                                           21600
