A1001400190000000016435NAMBATAC, JULIE ANN LOREJO                               0501
A1301400210000000023383WILMA S TOLENADA                                         0501
A0101407690000000053881********                                                 0503
A0201401020000000055930BELL, ESTELA PAGOBO                                      0501
A0101413020000000056802QUIJANO, JESUS ANCHETA                                   0501
A6601400120000000060551SURIO, LYDIA BARAOBADAO                                  0501
A0101407720000000112045CUISON LAW OFFICE                                        0501
A1401400110000000132841*******                                                  0501
A3101400450000000163506PEREZ, RAFAEL SALAMAT                                    0501
A1301400500000000213298DE JESUS, RAMON BANZON                                   0502
A1301400500000000213301CORTEZ, ZENAIDA MENOZA                                   0501
A0101410140000000254420DANCEL, LORNA BUENAVENTURA                               0502
A0101410560000000268353NICODEMUS, MELBA ESCANO                                  0501
A0101412050000000323646SCHUCK, MARIA DEODITA MARGARITA                          0501
A0101414120000000398892A.R.P. TRUCKING                                          0502
A0101414120000000398932R. ACOSTA ENTERPRISES                                    0501
A0101400600000000470073MANGUBAT, JULIETA                                        0501
A0101410140000000482724EPINO, JOSEPH ABAN                                       0501
A0301400950000000566774VILLANUEVA JR., SENEN ALMASE                             0501
A0101407690000000587840LOUIZA MARIE B. SARSOZA                                  0501
A0101411080000000805936YU, CZARINA ANNE DBU RED DRAGON                          0501
A0101407270000000818268ONG, ALVIN CHUN                                          0501
A0101400730000000834446NIEVES BENBAN                                            0502
A0101412470000000853801**********                                               0501
A0101414120000000875641JOSEPHINE OR RENATO VILLONES                             0501
A0101407690000000913837LUCITA T. PASCUA                                         0501
A3001400130000000931333K AND S ENTERPRISES                                      0501
A3001400130000000931373SANCHEZ, AURALYN LUMAMBA                                 0501
A2801400230000000937559SALAO, VICTORIA BAINO                                    0501
A2801400230000000937560ONG, ZENAIDA ROGAEL                                      0501
A3101400870000000957871ABITAL, ROBINSON OBICO                                   0501
A0101409920000000998810OBISPO, LORIE LYNN VERDEJO                               0501
A1001400190000001057454PANANDIGAN, MITCHELLE BACUNATA                           0501
A0101413310000001073723ESPERANZA, JOSEPHINE TANGGO                              0501
A3101400450000001104043CARANZO, MARI BAGACINA                                   0501
A3101400450000001104094PETEROS, JOEYLYNN APORTO                                 0501
A0101414120000001142830BRIGILDO, ISRAEL AUSTRIA                                 0501
A3001400130000001271323CABILING, EMILY PASILONG                                 0501
A3001400130000001271454ZORILLA, MARIE ROSE GONZAGA                              0501
A0101402510000001292400RAHMAN, NADIA GIANAN                                     0501
A0601400520000001349526BONA, LORELIE DE GUZMAN                                  0501
A0101400440000001439607MARYLANE P. PABELICO                                     0501
A0101400440000001439794BAMBAO, LERMA CANAVERAL                                  0501
A0101412630000001485207MANUEL M. ALLEJE                                         0502
A2201400250000001545444MARIA LOURDES T. CUNANAN                                 0501
A0101401090000001611290CALLADO, NORMAN BENJAMIN SI                              0501
A0101413570000001682497SUZETTE G. CASTRO                                        0501
A0601400230000001687323**********                                               0501
A0101400860011389546003**********                                               0503
A0101400860011478374008**********                                               0501
A0101400860011550744001**********                                               0502
A0101400860011580762001**********                                               0502
A0101401250021483705002SISON, ROSIVINI ISIDRO                                   0502
A0101401700041024130001AARON SAMUEL INC.                                        0505
A0101401700041399527001**********                                               0503
A0101400150061227112001PACITA G. LIM                                            0501
A0101400600071233615002********                                                 0502
A0601400100081086512001CAPUTOL, MA. JENNIFER PECJO                              0502
A0601400100081251939002ELIZARDO OR WILMA MARTINEZ                               0502
A0601400100081256597001GIL D. MADLAMBAYAN                                       0502
A0101400730111520766002MA. LIZA C MALAQUE                                       0502
A0101400440161039572063EVELYN Y. BALLADARES                                     0501
A0101400440161525001001SOCORRO R. DE GUZMAN                                     0501
A0101400440161525001088MARIA ELENA B. BONCALO                                   0501
A0101400440161525001112JELLIE ANN D. LOMAHAN                                    0501
A0101400440161781194001MARICHU R. DE CASTRO                                     0501
A0101401090171031508002DUBBEL MEDICAL CORPORATION                               0506
A0101401090171195639002JOSEPHINE M. AGONCILLO                                   0501
A0101401090171427124002MADONNA REMEDIOS V. ALONZO                               0501
A0301400660194734141001ALCEBAR, JONATHAN PANTINOPLE                             0502
A0301400660194779841088*****                                                    0501
A0101407140213194541001**********                                               0501
A3101400450223081363001ANASTACIO, ESTELA LUARCA                                 0501
A3101400450223455809001LANCION, AUREA OR JERIC                                  0502
A3101400450223512390001SAMIANO, JAIME OR MARIA CECILIA                          0502
A3101400450223614000001ARANGUREN, JUPOLD JAMES MAGPANT                          0501
A3001400130230767566026URAG, EDECIO CUDERA                                      0501
A3001400130230767566041ABADIANO, EDGARDO BACALSO                                0502
A1001400190231332648001UBA, VINCENT CABALLERO                                   0502
A1001400190231520766044DELOS REYES, ESTRELLA ALCOBER                            0501
A1001400190231520766119CABANO, BERNADITH CATIWALAAN                             0501
A1301400470252040709001ANGEL INNA TRADING                                       0510
A0101401670271289633003LIM, ROSARIO C.                                          0501
A2601400270302519844001JULIUS CEASAR OR JENNIFER BAYSA                          0505
A2001400290315041547003CARTRONIX LOGISTIC & TRANSPORT                           0501
A2001400290315043507001AMSTEL BEAUTY SALON                                      0501
A0101405650322173157002BENTHAM, TERESITA                                        0501
A0101408820333083635001DAVID III, NOLAN RABE                                    0502
A0101408820333157273001ANITA VARSOVIA                                           0501
A0101408820333294018001*****                                                    0502
A0101408820333494919001MA. JOCELYN REMANES                                      0501
A0101402060351036454001TRITECH TRADING                                          0501
A0101409050352043056001OILEMPIRE INC.                                           0505
A0101409050352734290001*********                                                0503
A0101408400394424700001QUILAY, EVELINDA QUEBEC                                  0501
A0101408950396561962001DR. JONNEL LUGOD LIM                                     0501
A0101408950396572239001PUYAT, MARIA LUISA TICZON                                0503
A2401400180411478374055ABREO, EDRALYN LAYANG                                    0501
A0101403030441240960001**********                                               0502
A0101403320471429191002CECILE CABALLA                                           0504
A0101403320471478374057EMMA G. FELIPE                                           0501
A1401400110492735105001DESEMBRANA, AMELITA SALAZAR                              0501
A1401400110492773514001ABETRIA, MARLENE SALIENDRA                               0501
A0101408110515041358001MADE IN HEAVEN ENTERPRISE                                0501
A0101403450521238594001**********                                               0501
A0101403450521366584001**********                                               0501
A2201400250561039037001TRIZ N' PAO TRADING                                      0501
A2201400250561339917001FELICIDAD MIRANDA SANTOS                                 0502
A0101407720602162133002SILVA, MA. DIVINA BORJA                                  0503
A0101407720602313187002SANTOS, CHRISTINE THERESE AMURA                          0504
A0101404260611150856001WILLIAM OR TRINIDAD CHING                                0502
A0101404260611150856002CHING, WILLIAM OR TRINIDAD                               0502
A0101404260611451653004SUNGA, NERY OCAMPO                                       0501
A0101404260611478374075VIVENCIA HATOL                                           0501
A0101407690652674006001FLORENTIN, LUINELL PAEZ                                  0501
A1301400340683776169001BARAQUIEL, JOCELYN LIM                                   0502
A1301400340683788020001FUENTES, RICHARD MARIANO                                 0501
A1701400230693478374031VILMA R. BAGAY                                           0501
A0101408240711226051002CHAN, ALFREDO OR CHAN, CEFERINA                          0502
A0101408240711383461001SANG, PAUL OR IRIS                                       0502
A0101408240711453117001MICHAEL RICHARD RAMIREZ                                  0501
A0101408240711547758001SALVADOR, DIOSDADO COSCOLLUELA                           0501
A2801400100712478374001BERNARD R. CORPUS                                        0502
A4101400260812299913002CAMPOS, FILOMENA FORTICH                                 0502
A4101400260812478374055ARLENITA E. MORALITA                                     0501
A4101400390813478374058LEDESMA, LUZVIMINDA                                      0501
A4101400420814478374100LORLIE B. AGPOON                                         0501
A4101400420814520766034LEONIDA M. OBELIDOR                                      0501
A4101400420814758362001LACSA, ROSA SIMBALLA                                     0502
A0101404840851478374071MARITESS C. CASARILLA                                    0501
A0101404840851520766086MONTOJO, CHERRY                                          0502
A0101404840851520766184PASCUAL, GLEN IVAN                                       0501
A0101404840851520766194FELIPA O. VILLANUEVA                                     0501
A0101406750852236873002SISORA OLGAH ELUMIR                                      0501
A0101414120000000398961EMERSON VALDEZ OR                                       10501
A1601400170000000497401ALEXANDER S. DELAS ALAS OR                              10501
A2601400270000000561999VICENTE V. ALVAREZ JR. OR                               10501
A0101413990000000631883NEBRIA, ESTER PUJOL OR                                  10501
A0101403320000000736083FLORENDO JR., P DBU BRILLIANT                           10502
A0101412630000000801574SALVADOR T. FLORESCA JR. OR                             10501
A0101409920000000998672MEMBERS OF NATASHA (SHOECAT INC                         10502
A0101409920000000998683MEMBERS OF NATASHA (SHOECAT INC                         10501
A3001400130000001271443BERDIJO, NELSON R. DBU BRYAN                            10501
A0101401250021709223001ROLANDO F. ASTILLERO JR. OR                             10501
A0101400150061326594001REYNALD C. UY OR                                        10501
A0101400150061379943001NORBERTO R. REYES OR                                    10502
A0101401670271186351003BONITA L. DABU OR                                       10501
A6601400120314622580001SOSING, CAROL O. OR FELIPE A.                           10505
A0101402510341305034001PINEDA, MA. THERESA CONCEPCION                          10501
A5501400120410636179018CHIU, VALENTIN & JULIA EILEEN                           10503
A1401400110492222234003MARTINEZ, FERNANDO PELIPADA OR                          10501
A2201400250561478374026MINDA S. BLAYA                                          10501
A0101404260611044000001OPTIMUS SECURITY AND                                    10510
A0101404680651047600001AMCJ METAL & ENGINEERING                                10502
A0101407690652298552010ANGELINA CANETE - DEALERS OF                            10503
A0101407690652478374131TARROQUIN, NORA - DEALERS OF                            10501
A1301400210682395691001AUREA VALERIO OR                                        10501
A0101408240711404554001CANDELARIO OR EMILY OR PATRICK                          10502
A0101408240711656808001RAMIREZ, ANNA CARMELA OR                                10501
A4101400420814506413001IBIAS, JOSEPHINE OCAMPO OR                              10501
A0101414120000000398961EDWINA INOCENCIO                                        20500
A1601400170000000497401MA. VANESSA T. DELAS ALAS                               20500
A2601400270000000561999MYRNA M. ALVAREZ                                        20500
A0101413990000000631883NEBRIA, NATHANIEL CIRUNAY                               20500
A0101403320000000736083PROOF                                                   20500
A0101412630000000801574ADELAIDA O. FLORESCA                                    20500
A0101409920000000998672ALON, CHERRY ANN                                        20500
A0101409920000000998683AJETO, MERCY L.                                         20500
A3001400130000001271443ENTERPRISE                                              20500
A0101401250021709223001GINA A. ASTILLER                                        20500
A0101400150061326594001SHIRLEY G. UY                                           20500
A0101400150061379943001SOLEDAD REYES                                           20500
A0101401670271186351003LUCILA S. CLEMEN                                        20500
A6601400120314622580001OR CAROLYN O.                                           20500
A0101402510341305034001AND CO, ROSARIO                                         20500
A5501400120410636179018& CHRISTIAN VALEEN                                      20500
A1401400110492222234003MARTINEZ, MA. LU                                        20500
A2201400250561478374026MEMBERS OF NATASHA                                      20500
A0101404260611044000001INVESTIGATION AGENCY                                    20500
A0101404680651047600001SERVICES                                                20500
A0101407690652298552010SHOECAT INC.                                            20500
A0101407690652478374131SHOECAT, INC.                                           20500
A1301400210682395691001  AMELIA BICALDO                                        20500
A0101408240711404554001OR ERICA PATINO                                         20500
A0101408240711656808001MICHAEL RICHARD                                         20500
A4101400420814506413001IBIAS, SEGISMUNDO                                       20500
B0101400860000000030279**********                                               1602
B0601400100000000142054LEE SADDI REALTY AND DEVELOPMENT CORP                    1601
B0101404260000000156972PRIME POWER MANPOWER SERVICES                            1650
B2801400100000000188396KOROBAL I&D LTD., INC.                                   1601
B0101410300000000191564FITNESSCAPE CREATIVE STUDIO, INC.                        1604
B0101407690000000243850CREATIVE DISHES & RECIPES INC.                           1602
B0301400950000000566854**********                                               1602
B0101414120000000649127WILCHAT MARKETING                                        1605
B0101401700041619204001MELBER AUTO PARTS CENTER, INC.                           1605
B0101411080042278907001 *****                                                   1602
B0101400150061010675001M & M CONSOLIDATED, INC.                                 1603
B0101400150061010934001SB FOREX, INCORPORATED                                   1602
B0101400150061010937001AIR LIQUIDE PHILIPPINES, INC.                            1602
B0101400440161007221001ILA EXPRESS HAULER                                       1602
B0101407140213631792001ORIGINAL 7 LIME CORPORATION                              1610
B3101400450223010142002FORTUNE CORPORATION                                      1605
B3001400130230044574001SANTOS CLINIC INC.                                       1601
B3001400130230044574001SANTOS CLINIC INC.                                       1601
B1001400190231010658001GROLIER INTERNATIONAL, INC.                              1602
B1001400190231016423001GROLIER INTERNATIONAL FINANCE, INC.                      1602
B0101401670271028082002DDT KONSTRACT, INC.                                      1615
B0501400200292036584001SSS EXPRESS CREDIT, INC.                                 1604
B0501400200292036584002SSS EXPRESS CREDIT, INC.                                 1604
B0101405650322043133001LULUBEE CORPORATION                                      1601
B5501400120410041377001PEOPLE'S GENERAL MERCHANDISE                             1605
B2401400180411033387008BIBIANA FARMS AND MILLS, INC.                            1610
B0101403320471030317001UPLIFT PHILIPPINES INC.                                  1605
B0501400170481018109002****                                                     1603
B1901400160491012586001BSU CONSUMERS COOPERATIVE                                1602
B1601400170494051437001CHASE MEGA CORPORATION                                   1601
B0101403450521504300001TAN, GREGORIO CHUA                                       1602
B0101407720602697838001NCT SPA CORPORATION                                      1601
B0101404260611353663002CLAMAR, GLENDA SUAREZ                                    1601
B0101409890649044639001BISKWIT CO.                                              1604
B1301400340683036384001PLAN ADMINISTRATOR INSTRUCTION'S                         1602
B1301400500684037591001UPLIFT PHILIPPINES, INC.,                                1605
B1701400230693712781002BLAS, SAMUEL SIMEON              JT                      1603
B0101406750852041203006AUTOCIRCULO CORP.                                        1610
B0101401700041536830001TAN, ROBERT JOHNSON RAGOS OR                            11610
B0101401090171007908001PERPETUAL SUCCOR HOSPITAL &                             11605
B0101405650322543721001OMNIBILT CONSTRUCTION AND MAINTENANCE                   11602
B0101405490392045213001E. BEBITA ELECTRIC MOTOR REWINDING                      11602
B0101401700041536830001TAN, GUE LAO                                            21600
B0101401090171007908001MATERNITY, INC.                                         21600
B0101405650322543721001INC.                                                    21600
B0101405490392045213001SERVICES                                                21600
B0101415060385821100608**********                                               2002
B0101415060385821200608**********                                               2002
B0101408950396821100608**********                                               2003
B0101415190402821100608**********                                               2002
B0101415190402821200608**********                                               2002
B0101414120658821100608**********                                               2002
