A0101410980000000012528********                                                 0501
A1301400210000000023229FRANCISCO P CABOTEJA                                     0501
A0101408530000000035925CASTRILLO, MILISA CAOIBES                                0501
A0101407270000000043518ANTZ ADVERTISING                                         0502
A1101400120000000065110BOLECHE, CLARA GACUTAN                                   0501
A0301400530000000065832PERIAS, FE                                               0501
A4101400420000000120696CARMELA G. ROMA                                          0501
A1901400160000000243690PRUDENCIO AGUILA MENDOZA                                 0502
A0101404680000000384161ERLINDA C. TIPONES                                       0501
A4101400260000000469329FALCUTILA, MARISSA RAMOS                                 0502
A1301400210000000540743JONEL MAR S TRINIDAD                                     0501
A0101404840000000683541ELSA G. TAN                                              0501
A0101400730000000686437LASCUNA JR., ROMEO VELASCO                               0501
A0101410690000000710683ABLAO, EUGENE SIVILA                                     0501
A0101403320000000735717BAUTO, GUADA LYNNE CASTILLO                              0501
A0101411080000000805889*****                                                    0502
A0901400220000000887896**********                                               0501
A0101404680000000940909MACARIO EVANO                                            0503
A0201400890000000973451SANCHEZ, EDGAR LIM                                       0501
A0301400530000001009961IBOT, LETHLE P.                                          0501
A0301400530000001010033YABUT, ELVIS G.                                          0501
A0101412340000001017816MARANAN, JENNIFER GONZALES                               0501
A1601400170000001068695MARIA CECILIA V. NEPTUNO                                 0503
A0101413310000001073603MANGAO, DAIANA ROSE MASALUNGA                            0505
A0101412500000001146861CHUA, PAUL YANG                                          0501
A0101413860000001233772RIVERA, LESLIE KAREN CORDIAL                             0501
A0101400860000001348658**********                                               0505
A0101411820000001356645MANGUBAT, VICENTE ALLAN DOMA                             0501
A2801400100000001494511A. TEJ. TRADE & MARKETING DBU M                          0502
A0101402640000001536465ROSAL JR., RUFINO DICIEMBRE                              0503
A0101404680000001617330ZEPPAO FOOD CART                                         0502
A0101403320000001647058TAN, MA LUISA LUZ                                        0501
A1101400120000001920587GLORIA, JACINTA DADULA                                   0501
A1101400120000001920690BORNILLA, MATILDE GLER                                   0502
A1301400500000002063963NICOLAS, JAY JOSEPH GARCIA                               0501
A1101400120000002254888MERCADO, MARK LESLIE MACAYAN                             0502
A0101411820000003006082NOEL ANTONIO G. VILLANO                                  0501
A1301400500000003175762JEFFERSON D. LEE                                         0501
A0101400860011398141002**********                                               0505
A0101400860011449266001**********                                               0502
A0101400860011552265001**********                                               0502
A0101400860011561560001**********                                               0503
A0101400860011685746001**********                                               0505
A0101400860011687970001**********                                               0502
A0101401700041681821001******                                                   0502
A0101400440161045289001RAPTURE CAFE' BAR                                        0502
A0101407270162691727001RODEL J. CELO                                            0502
A0101401090171281347003CECILIA AGLEHAM                                          0502
A0301400530193478374008CHYRL ANN SENANGOTE                                      0502
A0301400530193478374011ABO-ABO, LEONOR                                          0501
A0301400530193637870168LU, KUO HSIEN LEE                                        0502
A0101407140213485140001**********                                               0501
A3101400450223576401001GALLEGO, DHARIA CAJAYON                                  0501
A1901400290261470375002NORA BUQUIR MIRAL                                        0501
A1901400290261499267001ALBERTO GUEVARRA MENDOZA JR.                             0501
A1901400290261499450001ALFIE DIMACULANGAN DIMAANO                               0501
A0101400570281703490001GONZALES, GERARD ERIKSON G.                              0501
A3401400280318086148002FLORENTINO, MIRALUNA LOYOLA                              0503
A0101405650322755728001BARBERS, ROBERT NINO PENA                                0501
A0101408820333047432001***************                                          0501
A0101408820333478374058EMILYN D. VERA                                           0501
A0101402510341677440001BADONG, MARILOU MABAGA                                   0501
A0101409050352603281002NELIA A. SON OR DAVID S. SON                             0501
A0101405490392591892001RIZZA L. ACOL                                            0501
A2401400180411432546001LIM, ROBERT LIM                                          0505
A2401400180411478374004MESRIYA ABDULLAH                                         0501
A0101403030441029489001**********                                               0506
A0101403030441043810001CORE SOURCE TRADING                                      0504
A1901400160491246087001NIDA F UY                                                0501
A1401400110492527962001CARLINE GEN. HARDWARE                                    0502
A0101403580511153476005THERESITA S. TIU                                         0505
A0101407720602318369088MARY HELEN E. SABAS                                      0502
A0101404260611150836001CHING, WILSON OR SUSANA                                  0505
A0101404260611478374053VIOLETA P. ORADA                                         0501
A0101404680651041629001JDC ADVERTISING                                          0501
A0101404680651047522001ELLA ROSE ENTERPRISE                                     0502
A0101404680651170273001MANGILA BUSINESS AGENCY                                  0501
A0101404680651318917001TERESITA G. ADAYO                                        0501
A0101404680651389635001***********                                              0501
A0101404680651478374078CARMELITA C. PABLO                                       0502
A0101404680651478374173MARIBEL L. VALDEPENAS                                    0501
A0101404680651478374187CRISTINA C. DUCUSIN                                      0502
A0101404680651519045001ELIBER J. DIOQUINO                                       0501
A0101404680651520766071EMILY P. PONGPONG                                        0501
A0101404680651520766076ANABEL G. REYES                                          0501
A0101404680651520766157LUZVIMINDA P. ALAGADMO                                   0501
A0101404680651520766170CONCHITA C. MANAPUL                                      0502
A0101404680651520766171JONIS PRELYN MONTILLANO                                  0501
A0101404680651524655001LUTGARDA C. AMADOR                                       0501
A0101404680651525001036JOSEPHINE V. GUIWAN                                      0502
A0101404680651532685001EMMA RUTH C. MARTIN                                      0501
A0101404680651687500001DIANZON, YOLANDA TRIA                                    0501
A1301400500684740616001BELEBER JR., ILDEFONSO PAMPOSA                           0502
A4101400420814478374119ESTRELLA, MARIFE P.                                      0501
A0101404840851478374071MARITESS C. CASARILLA                                    0501
A0101412890000000371599MARITA CHU OR BONIFACIO CHU                             10503
A1601400170000000421047JUVY G. VILLANUEVA DBU                                  10502
A0101412470000000520192ARCA, ESTHER DBU WASABE SPICE                           10502
A0101407270000000818304RICARDO FERNANDEZ DBU                                   10501
A0101412890000001056393GERONIMO, M DBU A.M.-M.A'S                              10501
A0101404680000001617261AMCJ METAL & ENGINEERING                                10502
A2401400180000001676991CASABUENA, RICHARD JOHN JOHN                            10501
A0101400730000002882273DIVINAGRACIA, ROWENA SANDY                              10502
A0601400100081251606002MUNOZ, ANTONIO AND JENNIFER                             10503
A0101402770391211318001TRINIDAD ESPINOZA OR                                    10502
A0101405490392170191001MADONA S. GALUTERA OR                                   10502
A0101403320471047588001RHINA JENEPER C. LIBIRAN DBU                            10502
A0101403580511026941001CECILIA NARVAEZ Y DISENOS                               10502
A0101405940512152920001NELSON T. LAO OR STELLA MARIE                           10502
A2201400250561256285001JESUS C. CHUA                                           10501
A0101404420631504965001SYLVIA CHUA OR                                          10502
A0101404680651047600001AMCJ METAL & ENGINEERING                                10502
A0101404680651171193001RAQUEL PINGOL OR AVELINO                                10504
A0101404680651543781001ROGELIO R. MANALANG OR                                  10501
A0101404680651685284001SEMI R. DEL MUNDO OR                                    10501
A0101407690652037480002U.L. SOMIDO BUILDERS &                                  10501
A0101407690652160042001JOEL B. PASTRANA OR                                     10502
A0101407690652478374032LILIA SOLOMON - DEALERS OF                              10501
A0101406590662207039001HORTENCIA A. BUENAVENTURA OR                            10501
A1301400210682594612001DIONISIO C MENDOZA OR                                   10501
A0101407560686303904002MARIA PIZARRO OR                                        10502
A0101412890000000371599DBU COBO PAVILLION                                      20500
A1601400170000000421047THE BICOL GREENLEAF GRILL                               20500
A0101412470000000520192OF THE ORIENT                                           20500
A0101407270000000818304RG TRUCKING SERV                                        20500
A0101412890000001056393BAKERY                                                  20500
A0101404680000001617261SERVICES                                                20500
A2401400180000001676991FRANCISCO                                               20500
A0101400730000002882273MAGLASANG                                               20500
A0601400100081251606002LAURIE AND ANTON                                        20500
A0101402770391211318001MANUEL ESPINOZA                                         20500
A0101405490392170191001BENJAMIN GALUTER                                        20500
A0101403320471047588001R-GENESIS DRUG STORE                                    20500
A0101403580511026941001INTERIOR                                                20500
A0101405940512152920001CASTILLO LAO                                            20500
A2201400250561256285001OR JOSEFINA G. CHUA                                     20500
A0101404420631504965001ARNOLD PATRICK C                                        20500
A0101404680651047600001SERVICES                                                20500
A0101404680651171193001PINGOL                                                  20500
A0101404680651543781001YOLANDA L. MANALANG                                     20500
A0101404680651685284001NARCISO A. DEL MUNDO                                    20500
A0101407690652037480002INDUSTRIAL SALES                                        20500
A0101407690652160042001TERESA PASTRANA                                         20500
A0101407690652478374032SHOECAT INC                                             20500
A0101406590662207039001MA. THERESA TAN                                         20500
A1301400210682594612001MIRIAM M MENDOZA                                        20500
A0101407560686303904002ANTONIO PIZARRO                                         20500
B0101403580000000015807MEC - SD                                                 1605
B0301400820000000024911DIGOS DOCTORS' HOSPITAL, INC.                            1620
B0101404840000000090300JOY PLANET INC.                                          1603
B0101404680000000095710MVG HARDWARE                                             1601
B0101410300000000191611CLEMENTE, N DBU CNC CREATIVE EVENTS                      1601
B1301400340000000293623A&A GARMENTS CO.                                         1601
B0201401020000000470251SHANGS DEVT. CORP.                                       1601
B0101405940000000886751JVA HARMONY HOTELS, INC.                                 1601
B0101412470000000949544BEYOND METRO POINTE GREENHILLS INC.                      1602
B0101408820000002043692*******                                                  1603
B0301400950000002115673BIO-HEALTH PHARMA CO.                                    1602
B0101400860011399627003**********                                               1605
B0101400860011548332002**********                                               1604
B0101401090171042218001RD CASH PADALA, INC. - AREA 02                           1603
B0301400530193041601001GRANITE CREDIT CORPORATION                               1602
B0101407140213035952001**********                                               1601
B0101407140213041983001CHEMFOUR INCORPORATED                                    1602
B0101408820333049826001*******                                                  1603
B0101405490392332339001**********                                               1603
B0501400170481018109002****                                                     1602
B0101403580511015363076MEC - TMR 2                                              1603
B0101405940512023451001MILKPACT PHILS. INC.                                     1602
B0101404420631046082001EAGLES WING METAL INDUSTRY CO.                           1601
B0101404680651034680002BERNARDINO GENERAL HOSPITAL CORP.                        1602
B0101408240711028488001INTAS DESTINATION MANAGEMENT INC.                        1605
B4101400390813560022001FAITH ACHIEVE PLASTICS CORP.                             1603
B4101400420814034594001ROTARY CLUB OF IMUS                                      1601
B0101401830000000033627CARITAS SALVE CREDIT COOPERATIVE                        11601
B0101402510341016490003WORLD COUNCIL FOR CURRICULUM AND                        11602
B0101401830000000033627(LAS PINAS)                                             21600
B0101402510341016490003INSTRUCTION PHIL                                        21600
B0101401700041821100608**********                                               2003
