F1301400630000000010322DIVINE'S GRILL ASIAN CUISINE CO                          2505CKO
F0101400570281380460001DR. REYNALDO ROSALES                                     2510CKO
F0101400570281465756001DIZON, MARIA TERESA LIM                                  2502CKO
F1801400130151048761001MSU-IIT NMPC KIWALAN BR.                                 2601CKR
F3101400320222025043001MARUBUN/ARROW (PHILS.), INC.                             2605CKR
F3101400450223028412001CERDA MATERNITY CLINIC                                   2602CKO
F0101401670271047018001BUSINESSCOACH INC.                                       2602CKR
F2401400180411049051002MSU-IIT NMPC GEN. SANTOS-1 BR.                           2601CKR
F0301400400413014142002BROSCO CONSTRUCTION & DEV'T.                             2605CKR
F01014130200000000567844TH WALL PRODUCTION DESIGN                              12602CKR
F0101404680651297826002LIM,YOLANDA OR CABIGON, MELISSA                         12605CKR
F0101413020000000056784STATION                                                 22600CKR
F0101404680651297826002OR LANGCAY, SHIE                                        22600CKR
