A0101400600000000007707**********                                               0502
A0101400310000000019372ESTOPIA, REGINE TALATO                                   0501
A0101407690000000025196CASTILLO, MANDRICK EDRA                                  0501
A0601400360000000025618DE JESUS, MA DBU MARJES ENTERPR                          0501
A0101405070000000028828GEDANG, JANIL OCANA                                      0501
A0101411950000000036353CORREA, DULCE BATANES                                    0501
A0101409180000000036735ELLANITA, MAR FRANK GALINDO                              0501
A0101412500000000041589CRUZ, SIMON JONAS JAUCIAN                                0501
A0601400230000000045230VICENCIO, M DBU HCON BUILDERS &                          0502
A0201400920000000048122MATIDIOS, MA DORINA ZAPANTA                              0501
A0101405940000000061754REGINO, MARIA LALAINE LIAMZON                            0501
A3101400870000000074775DE CASTRO, OLIVER ROBLES                                 0502
A1001400190000000124803FANTONIAL, MERILY H.                                     0501
A0101400310000000140781ICARANOM, GINA SABENIANO                                 0501
A0101413860000000145031MENESES, OWEN CALICDAN                                   0501
A0101406460000000182701MINA, KRISTINE JOY BEO                                   0501
A0101413440000000183680LORENA D. FADERANGA                                      0501
A0101410300000000191882RAFALES, CATHERINE DELIMA                                0502
A0101406620000000193760DIAZ, FRANCIS PATRICK TAYENGCO                           0502
A5001400170000000213885PONDOC, NAOMI BACSAN                                     0501
A0101401670000000237676MAGTOTO, CHRISTIAN ALLAN L.                              0501
A1001400350000000245281BAGARES, AGUSTINA BALALA                                 0501
A0901400220000000425227ALIPONGA, RIVERA BADON                                   0501
A0901400220000000425238**********                                               0502
A2401400180000000428051EGOS JR., JEMMERITO CASANA                               0501
A3101400160000000429003MARILOU M DURAN                                          0501
A0101405490000000444320FRANZ MICHAEL G. NIEBRES                                 0501
A0101405490000000444331GAVINA C. LLESIS                                         0502
A0101407140000000446100**********                                               0501
A0601400230000000452920SIMPAUCO, JIMMY TAYAG                                    0501
A0101411400000000484640RODRIGUEZ, VICENTE DE VILLA                              0501
A0101407690000000495530AMBA, GERALDINE PAGASPAS                                 0501
A0101407690000000495541ESPANO, ANA MARIE CABALONGA                              0501
A3801400170000000497923RL TELECOM                                               0501
A0101410140000000499269BULAORO, ANALIE MAGTISA                                  0502
A4101400390000000500461TANEGA, NENET DAGDAG                                     0501
A4101400550000000506916TORRES, BIRDIE VERGARA                                   0501
A0101407720000000510745MORONDOZ, ANA LIZA DIMACALI                              0501
A2601400270000000561711HILLEVI A. ESTRELLA                                      0501
A0101410560000000590625BACALLA, NERISSA BALON                                   0501
A0101410560000000590636ESTORCA, MELANIE BUSILACAN                               0501
A0101410560000000590647SANTOS, JESALYN ADAOAG                                   0501
A1401400110000000628579DY, EDNA AYCARDO                                         0505
A1401400110000000628580TIAGA, EMELIA MARTINEZ                                   0501
A0101413570000000635483MELBA D. LEGASA                                          0501
A0101406330000000683341PIZARRO, NENITA LOPEZ                                    0501
A0101404840000000683563BORNALES, ARLYN ARCA                                     0501
A0101413440000000702305EGOS, ARNOLD VILLERO                                     0501
A4101400420000000710023YAP, LUDYLYN MENDOZA                                     0501
A0101403320000000735882SATUR, NENITA BOROL                                      0502
A0101404680000000767153DENIA, TERESITA GELLANGARIN                              0501
A0101405650000000772936BLOSSOM GENERAL MERCHANDISE                              0501
A0101410850000000778690ALBANO, CARMELITA DE CHAVEZ                              0501
A2401400180000000826102SORIA, DONNA DONES                                       0501
A4101400260000000828780MILLO, AMBER NITRO                                       0501
A4101400550000000900281DOCOG, CRISTETA DE JESUS                                 0501
A0101401250000000906843REGELISA, JOSEPH RYAN ASID                               0501
A0101407690000000913600MARQUI AUTO SUPPLY                                       0501
A1301400340000000926745GALANIDA, EVELYN LANAZA                                  0501
A1301400340000000926756JUSAYAN, FRANCIS TERMULO                                 0501
A3001400130000000931180ORGON WOOD INDUSTRIES                                    0505
A3001400130000000931191RACHO, AGNES ARAGON                                      0501
A0101409050000000939259TIMBANG, JESSE ETCUBANAS                                 0501
A4101400550000000981620STRONG BLOCK CONSTRUCTION                                0501
A0601400230000000989893REPOLLO, JOVY CODASTE                                    0504
A0101405940000001047329NICAVERA, JESSE MARLA                                    0501
A0101405940000001047381MIRANI, DIANA NARESH                                     0502
A0101405940000001047392ANGUSTIA S BARRIENTOS                                    0505
A0101402640000001054186CLEOFAS, MELANIE CRUZ                                    0501
A0101413310000001073450PANGANIBAN, FILOMENA SANTOS                              0501
A1901400290000001189215BULANHAGUI, NORIS MALABANAN                              0501
A1601400170000001194678FRANCIS EDUARD A. AREVALO                                0501
A0101401700041339444001******                                                   0501
A0101400150061038536193FERNANDO, PABLO                                          0501
A0101400150061228710001LAARNI L. AGUSTIN                                        0501
A0101400600071233615002********                                                 0502
A0101406040112209061001ARNOLD C. MENDOZA                                        0501
A0101401960121238895001**********                                               0505
A0101401090171331804002CAROLYN R. DAYRIT                                        0501
A0101400310211380976001PINTADO, MANUEL GUERRERO                                 0502
A0101400310211478374011YEPES, BASILISA                                          0502
A0101400310211706131001NOVILLOS, BERNADETTE ORDAS                               0501
A3101400450223223458004ALVERO, LEAH AURORA TOLENTINO                            0501
A1001400190231629873001BOMEDIANO, ANASTACIA SEMAFRANCA                          0502
A1001400350233783808001MABAYLAN, MARIPAZ ECHEVERIA                              0501
A1901400290261247051001RUFINA LAYLO COMIA                                       0501
A0101401670271636365001MALIWAT, ANGELINA QUITO                                  0501
A0101406620273072069001LEANO, DEVI PESSUMAL                                     0502
A0101406620273473687001LEGASPI, JIMMY LIM                                       0501
A2601400270302596713001MARY GRACE L. LORENZO                                    0501
A0101402510341237033001ARMAND PATRICK R. SALAMAT                                0501
A0101402510341433983002********                                                 0505
A0101402510341433983004********                                                 0505
A0101402060351409718001SUBIJANO, SHERWIN BALTAZAR                               0503
A0101402060351592596001LOPEZ, AUDREY MANCILLA                                   0501
A0101402640361043850001BIENTER-CON ENGINEERING SERVICE                          0502
A0101402640361340310003***********                                              0501
A0101402640361443741001**********                                               0502
A0101402640361551238001LAMPANO, RUDY SULA                                       0502
A0101402640361556417001DOFILES, LUISITO JURILLA                                 0502
A0101408400394492830001MENDOZA IV, JUANITO PALARCA                              0501
A2401400180411032438001DADIANGAS AUTOWORLD PARTS                                0506
A2401400180411487779008LIM, CARLITO TAN                                         0502
A2401400180411621739001JACOB, NOEL RULLON                                       0501
A2401400180411729988001TAN, JOEL RECTO                                          0503
A0101403030441660281001**********                                               0501
A0101403320471478374003LERMA BELICANO                                           0501
A0101403320471478374051MYRA ATANGAN                                             0501
A0101403320471627457001CABIAS, ROMER CALUBAD                                    0502
A0101406330472449297001FEDERICO S. DE VERA JR.                                  0502
A0101406330472478374042VIRGINIA B. RANADA                                       0501
A0101406330472478374052SHIELA D. LAPUENTE                                       0501
A0101406330472479118001JENNIFER DY OR KENNETH DY                                0501
A0501400170481254124001FUERTES, YOLANDA SOTELO                                  0502
A0501400170481318580008*****                                                    0501
A3801400170490762644001LINA CORDOVA YUMANG                                      0501
A0101405940512045611001PENARANDA, JORDANA SALIBA                                0501
A0101403450521238583001**********                                               0510
A0101403450521372678001**********                                               0502
A0101404000551323428001SU HWAN OH                                               0501
A0101404000551340823001JESUS CLINT O. ARANAS                                    0503
A0101404260611046855001PRIMEPOWER TRANSPORT SERVICES                            0505
A0101409920650078394001ZULUETA, GLORIA MAGALLANES                               0501
A0101404680651527652001YOLANDA C. ANG                                           0501
A0101407690652544490001ROSAL, HEYDEE BUENCONSEJO                                0501
A0101407690652609264003DE JESUS, AUGUSTO OR MILA                                0501
A0101407690652648224001LLADONES, ESTRELLITA REYES                               0501
A0101407690652782258001SANTOS, RONALD ZAFRA                                     0501
A0101406590662289338001KIM C. DINO                                              0503
A1301400340683494546001PEREZ, MA. VENUSA ANDAYA                                 0501
A2801400100712430047001LEE, JAMES TAN                                           0502
A4101400420814478374102MALIBIRAN, MARLYN M.                                     0502
A4101400420814520766034LEONIDA M. OBELIDOR                                      0501
A4101400420814520766064ANDAYA, AURORA A.                                        0501
A4101400420814520766119OMNOS, NOVA DESCARTIN                                    0501
A4101400550815658814001ROMUALDO, NICE MATILING                                  0502
A0101404840851214926001**********                                               0502
A0101404840851520766026MENALIZA MABINI                                          0501
A0101404840851520766070ELSA NAVARRO                                             0502
A0101406750852689404001RAYMUNDO, MARVIN TOLENTINO                               0501
A0101405070861397365001UEDA, EDRALIN DUBLIN                                     0501
A0101405070861709078001ASILUM, RICSON RENDELL VERGARA                           0502
A0601400230891409285001NESTOR OR CORAZON YAMBAO                                 0502
A1301400470000000061463DEUS, MARIA ELNORA DE GUZMAN                            10505
A0101407690000000154750BARANGAN, ROMEO DBU                                     10501
A0301400660000000194609AMATOSA, M ALONA BENZ TRUCKING                          10502
A0101406330000000683329EJE, ANA DBU TAMARAW MANPOWER                           10501
A0101400150061406534002GARCIA JR., ANTONIO RIZAL M. OR                         10502
A0101400310211161649001DE LARA, ROLAND JOEY OR                                 10502
A3101400450223456163001ANGSICO, RACHELE THERESA OR                             10503
A1301400470252431548001DR. JOSE RAVINAR AUSTRIA OR                             10502
A1901400290261046969001REYNALDO M ATIENZA JR. DBU                              10504
A1901400290261668899001CHENG, XIAOZHEN OR                                      10505
A0101406620273505335001MA. TERESITA L. ROCA OR                                 10502
A0101407690652398706001QUIRINO G. MANGLIGOT JR. OR                             10501
A0101407690652478374090ESTELA REBANGCOS - DEALERS OF                           10502
A0101407690652525001056ENRIQUE, EMY SANTOS - DEALERS                           10501
A0101407690652525001066BERNARDITA BUDLAO - DEALERS OF                          10501
A0101407690652525001083TULABING, VIOLETA - DEALERS OF                          10501
A0101406590662070270001INOCIAN, MARIA TSARINA OR                               10504
A0101404840851334120001MARY ANN R. PANGAN OR                                   10501
A0101406750852620298001EMILY COLINA OR DOMINGO                                 10501
A1301400470000000061463OR TAGO, ANA LIZA VELARDE                               20500
A0101407690000000154750BARANGAN TRADING                                        20500
A0301400660000000194609SERVICES                                                20500
A0101406330000000683329SVCS                                                    20500
A0101400150061406534002GARCIA, ANNA LIZ                                        20500
A0101400310211161649001DE LARA, REBECCA LAQUI                                  20500
A3101400450223456163001    ROBERTO                                             20500
A1301400470252431548001DRA. AURA LYNN AUSTRIA                                  20500
A1901400290261046969001DIGIGUARD MKTG & SERVICES                               20500
A1901400290261668899001YANG, ZONG CHANG                                        20500
A0101406620273505335001AGNES HILDA L. R                                        20500
A0101407690652398706001MARICHU B. MANGLIGOT                                    20500
A0101407690652478374090SHOECAT INC.                                            20500
A0101407690652525001056OF SHOECAT INC.                                         20500
A0101407690652525001066SHOECAT INC.                                            20500
A0101407690652525001083SHOECAT INC.                                            20500
A0101406590662070270001PAJARO,VICENTE OR YOLANDA                               20500
A0101404840851334120001JOHN NOEL PANGAN                                        20500
A0101406750852620298001COLINA JR                                               20500
B3001400130000000006862ML_BUILDERS INC.                                         1602
B1001400190000000016355ZAMORANOS, CEASAR DANTE                                  1601
B1001400190000000016366CAREWELL BIO-MEDICAL SYSTEMS CO.                         1601
B0101401830000000033616CARITAS SALVE CREDIT COOPERATIVE                         1602
B1601400170000000036148NEW VICENTE DY ENTERPRISES, INC.                         1601
B0701400260000000041061UXNANI INC.                                              1602
B2401400180000000073732TURNSAT INTERNATIONAL LOGISTICS CORP.                    1601
B0101406330000000162718IMPLICARE INTERNATIONAL MGT. RESOURCES                   1602
B0101401670000000178530UNIVERSAL SPECTACLES                                     1603
B0101400570000000749548ALLIANCEJADE GARMENTS CORP.                              1602
B0101405650000000772845NORTHSTAR TRAINING & CONSULTANCY INC                     1603
B0101400150061010688010SB CARDS CORPORATION                                     1610
B0101400600071233681002**********                                               1606
B0101400600071476377003*********                                                1601
B0601400100081024665001CLARK PIPELINE & DEPOT COMPANY, INC                      1602
B0101407140213042472001***********                                              1603
B3001400130230043534001BERRY HAPPY MART INC.                                    1605
B1001400190231092020001RNT COLD BUILDER, INC.                                   1602
B1001400350233535822001CHAN JR., BENJAMIN PO                                    1604
B0101401670271028082002DDT KONSTRACT, INC.                                      1615
B0101406460272038032002WEE COMMUNITY DEVELOPERS, INC.                           1603
B0101406620273017898002FIRST BALFOUR, INC.                                      1620
B0101405650322020813001JOHVER MINERALS, INC.                                    1605
B0101402640361018911001BULLS PAPER PRODUCTS INC.                                1601
B0201400760374032939001GATEWAY MOTORS (CEBU), INC.                              1605
B0101405490392031428007KIDSVILLE CREATIVE SYSTEMS, INC.                         1601
B2401400180411021162001TBB & SONS MARKETING                                     1603
B2401400180411040250088HOME SOLUTIONS DEPOT PLUS                                1605
B0101403030441039990001**********                                               1602
B0101406330472021511001ASSOCIATED WIRE CORP. OF THE PHILS.                      1610
B0101406330472034490002RCBP STO. TOMAS DE VILLANUEVA PARISH                     1602
B0101406330472038572001PASIG STAINLESS CENTER                                   1602
B0101406330472045599001BES SERV LOGISTICS CORP.                                 1603
B0501400170481038907001JODERON AUTO SUPPLY                                      1605
B0101407430503033043001SKYCLUB INC.                                             1601
B0101408110515037833001CWS PHILIPPINES INC.                                     1603
B0101407720602531639001*****************                                        1601
B1301400210682034537002MACH 3 AUTOMOBILES CORP.                                 1605
B0101407560686022668001NEOMEDICA HEALTH SERVICES, INC.                          1610
B0101404840851041620020JOY PLANET INC.                                          1602
B0101405070861020510001SILVERLINK INTL TRAVEL & TOURS CORP.                     1602
B0101405070861022986002SEVEN RED DIAMOND CORPORATION                            1610
B0101402510000000049261GOLDEN AXLE CARGO INTERNATIONAL                         11602
B0301400820000000132618LEI, WILSON OR LEI, MATILDE OR LEI, JAN                 11601
B0101401250021005516001THE PROVINCIAL SUPERIOR OF THE PIOUS                    11604
B1101400120313544308001YU, ROBERT LIM OR YU, PAMELA LIM OR                     11610
B2401400180411338845003ROBERTO OR JANET PERALES JT ANTONIO OR                  11605
B0101407720602005906001ASSOCIATED MEDICAL & CLINICAL                           11605
B0101404260611026599001FILIPINO PEST CONTROL AND GENERAL                       11605
B2801400100712024577001PHILIPPINE COASTAL STORAGE AND                          11605
B4101400550815040997005MAHARLIKA CONCRETE PRODUCTS AND                         11601
B0101402510000000049261FORWARDING, INC.                                        21600
B0301400820000000132618MICHAELSON                                              21600
B0101401250021005516001SOCIETY OF THE                                          21600
B1101400120313544308001YU, RONNIE LIM                                          21600
B2401400180411338845003ADELENE PERALES                                         21600
B0101407720602005906001SERVICES, INC.                                          21600
B0101404260611026599001SERVICES, INC.                                          21600
B2801400100712024577001PIPELINE CORP.                                          21600
B4101400550815040997005CONST. SUPPLY                                           21600
B0101409500473821100608**********                                               2005
