A6601400120000000022408ENANO, EMMA RUIZ                                         0501
A0101400440000000029398SHARON KEITH P. CABRERA                                  0501
A0501400200000000035674BARIRING, AMANDA JENE CADIENTE                           0501
A0501400200000000035685DELGADO, EVELYN VIDAL                                    0501
A0501400200000000035696PAGARIGAN, ALICIA SUBIDO                                 0501
A0101412920000000042042*****                                                    0501
A2601400270000000084160EVELYN V. ALIVIA                                         0501
A0101413730000000144578**********                                               0501
A0101402510000000200120RAMOS, PILIPINO ANGELES                                  0501
A0101407720000000245203*********                                                0501
A1301400470000000366552************                                             0502
A0901400220000000425181**********                                               0503
A0101413730000000469205******************                                       0501
A4101400260000000469329FALCUTILA, MARISSA RAMOS                                 0501
A0101411820000000477383GENALYN L NICANOR                                        0501
A0101405940000000505866SALUD, TEODORICO ANTERO POBLETE                          0502
A1301400210000000540969ROWENA C DE SILVA                                        0501
A0301400950000000566661******                                                   0501
A0101406590000000568769PO, LIEZEL NEPOMUCENO                                    0501
A0101408790000000579773ASIDDAO, HEHERSON MIRANDA                                0501
A0101408790000000579813REBAMONTAN, EDRY ANN BAUTISTA                            0501
A1101400120000000652788PRIMER, HERMINIA AZUCENA                                 0501
A4101400420000000710063AMOR, LYDIA OSIO                                         0501
A4101400420000000710234MILLOMEDA, DELIA V                                       0501
A0101401380000000792070LOPEZ, JOANNA MARIE DURAN                                0501
A0101412630000000801643LIZARDO, LOVELY APRIL CARINO                             0501
A0101411080000000805776********                                                 0501
A0101402930000000859656*******                                                  0501
A0101404420000000866417FLORO, IVY DELA CRUZ                                     0501
A0101412050000000890728HABOC, EDITH POLIDARIO                                   0501
A0101404840000000943259GARDIOLA, DEXTER NICK VALENCIA                           0501
A3101400870000000957815CIPCON, VICKY JANE BALUYOT                               0501
A0101406620000000962352VILLAFUERTE, ZENIEFE CANTES                              0501
A0601400230000000990063LINGAD, CECIL NEPOMUCENO                                 0503
A0801400160000001031321FLORENTINO, JOSSY D.                                     0501
A0801400160000001031332AMIL, WAHAB AHMAD                                        0501
A0101402640000001054266LAO, JOEY TAN                                            0501
A0101413310000001073596LIM, DIANNE ALIPIO                                       0501
A3101400740000001093896DREIMS PHARMA TRADING                                    0501
A0101402480000001099674******                                                   0505
A0101402480000001099721LAYSICO, ALDRIN AMANTE                                   0501
A0101402480000001099765TABARNILLA, JEFFREY AGUILAR                              0501
A5501400120000001121680REYES, REYCEL AGREGADO                                   0501
A3001400130000001271301CABILING, EMILY PASILONG                                 0501
A0101413150000001288206******                                                   0505
A0101412920000001313706MARTIN, AIDA PERALTA                                     0501
A4101400550000001332632********                                                 0503
A4101400550000001332643ESPIRITU, ENWY VELASCO                                   0501
A1901400290000001362932MARITES BULANADI JUMARANG                                0505
A1901400290000001362943HELEN SUSTITUIDO CONSTAN                                 0501
A0101407720000001393084LAGUNDI, JANICE GARCIA                                   0501
A0101412760000001399191ABELIDO, ALEX HECHANOVA                                  0503
A0101401380000001412504RUPERTO, CECIL JOHN                                      0501
A0101401380000001412515MATIENZO, ANNE CRUZADO                                   0501
A0101401380000001412526********                                                 0501
A0101406750000001491709DETERA, MA. GEMMA PUNZALAN                               0501
A0101400860011449713001**********                                               0501
A0101401250021796270001ASTILLERO, AZUCENA B.                                    0501
A0101400150061039917002TALICOL, AUGUSTO                                         0501
A0101400150061229814001LEONCIO C. LIM                                           0501
A0101400150061342460001NISPEROS JR., EMILIO CASCALLA                            0501
A0101400150061536013001ASUNCION, NENITA DESLATE                                 0501
A0101400600071478374003JALIQUE, GENARA                                          0502
A0101400600071478374004JULIET E. SY                                             0503
A0101401960121238747001**********                                               0501
A0101400440161444616001ELMA B. BADILLES                                         0502
A0101400440161478374051LILIA S. FELICES                                         0502
A0101401090171362910001ESTRELLA S. MAJUELO                                      0501
A0101401380201424284001TY JR., KENNETH CO                                       0501
A0101401380201559410001PADON, CLITA GADO                                        0502
A0101407140213190961001**********                                               0505
A0101407140213468749001**********                                               0504
A3101400160221220185001CLEOTILDE C. MALABANAN                                   0501
A3001400130230478374007ABADILLA, JOCELYN MARIE RAVELO                           0501
A3001400130230478374008GAMO, HAYDEE EDEN CAFE                                   0501
A1001400190231292400004JUGADOR, MARIO EBARLE                                    0501
A1001400190231478374006LIBRADO, HAZEL T.                                        0503
A1001400190231478374032LACBAYEN, MARY ANN                                       0502
A1001400190231520766104MAMBUAY, JOSEPHINE WABE                                  0501
A1301400470252430515002**********                                               0501
A1901400290261493025041DRA REEZA Q MARQUEZ                                      0502
A1901400290261530754002DESSIRE MALALUAN ONG                                     0501
A0101406620273215980002GLORIA CHOA CHUA                                         0501
A0101406620273341737001KAMPITAN, MA. THERESA LEDESMA                            0501
A0101406620273393856001BRYAN S. GOMEZ                                           0501
A2601400270302591563001ROSITA R. CHE                                            0501
A0801400160311029906001MJ SORIANO TRADING INC.                                  0504
A0801400160311478374063SUBALDO, ROSELLA VILLANUEVA                              0501
A0801400160311478374082ZAIDA FERNANDEZ TAMON                                    0501
A0801400160311523023001STA. ANA, ELEANOR ACABAL                                 0501
A6601400120314614598001BELLAFLORES, MYRLIN LONGCOP                              0502
A0101402480331020937001**********                                               0502
A0101402480331478374162*****************                                        0501
A0101402480331520766027CABRELA, SUSAN PANOTES                                   0501
A0101402480331520766055*******************************                          0501
A0101402480331520766100REYES, MARICEL                                           0501
A0101402480331559512001*********                                                0502
A0101402480331578582001*****                                                    0501
A0101402480331718244001LOPEZ, RENEE OLAVARIO                                    0501
A0101402510341564483001JULIUS D. CORTEZ                                         0501
A0101402930381478374009MARIVIC R. DELA CRUZ                                     0501
A0101408790383714331001DIAZ, FERDINAND OR DIAZ, DANTE                           0501
A0101408400394026124001GYSERHEAD PURIFIED WATER                                 0501
A0101408400394164395001YBIERNAS, MARICHU PALOMA                                 0501
A0101408400394478374080FIESTADA, PINKY                                          0501
A0101408400394478374090MARY DUMASLAN                                            0501
A0101408400394548186001ANDRES, MA. ANNA PEFANCO                                 0501
A2401400180411478374020MORI, LYDIA                                              0501
A0101403030441239063001**********                                               0503
A0101403030441338392001**********                                               0503
A0101403030441401301003**********                                               0501
A0101403320471076446001********                                                 0501
A0101403320471419141003ANDY P. QUERUBIN                                         0502
A1401400110492092994001ARELLANO, ALBINO ZAMORA                                  0502
A0101405940512556233001BITAS JR., ROBERT RODRIGUEZ                              0501
A0101408530516485540001PEREZ, MARY MILLICENT NACION                             0501
A0101411790518047183001ABORDO, M DBU BELLEIESHUA GENER                          0501
A0101403450521238056001**********                                               0505
A2201400250561503884001DELIE C. CASTILLEJO                                      0501
A0101404130601027289004BENOZA, ROSITA G.                                        0501
A0101404130601081357001GO, MERYL CANDICE LIM                                    0501
A0101404130601451226001HERCE, ANABELEN B.                                       0501
A0101404130601451610001CONCEPCION L. DEL VILLAR                                 0502
A0101407720602421754002LIM, CHRISTINE EBARVIA                                   0501
A0101404260611005236001WILTRON ELECTRONICS                                      0502
A0101404260611478374121FLORDELIZA B. HUVALLA                                    0501
A0101404260611491692001EDGARDO M BALANI                                         0501
A4101400420814362781001ECOFILTERS ENTERPRISES                                   0502
A4101400420814478374044BERATIO, MARITES M.                                      0501
A4101400420814478374123ORDONEZ, ANARIZA                                         0501
A4101400420814520766138SAN PEDRO, ANA LIZA                                      0501
A4101400420814520766140LUCANAS, BLENDA BILAOS                                   0502
A4101400420814562876001*****                                                    0501
A5001400170000000045003LIONG, JULIUS TAN OR LAMBATAN,                          10505
A5001400170000000045047ONG, LESTER UY OR                                       10505
A0101401380000000106505SY, WILFREDO O. DBU TITO ROM                            10502
A1001400190000000124876MEMBERS OF NATASHA (SHOECAT INC                         10501
A1901400290000000135173JUDE RECINTO SEMANA OR                                  10502
A0101408240000000347346SUNIO, JOAN JULIO OR                                    10501
A1201400150000000473494BANEZ, EUGENIO LEONIN OR BANEZ,                         10501
A2601400270000000561751JOEL MOLINA,MARVIN BALAIS,                              10501
A2601400270000000561922ROGELIO D. AZARCON OR                                   10501
A3801400170000000955073LOLITA C. CABUNGCAL OR                                  10501
A3801400170000000955084CORAZON S. MORILLA OR                                   10501
A0301400820000001027809CERVANTES, ROY C. OR CERVANTES,                         10502
A0101402480000001099641MACALE, ROGELIO B. OR MACALE,                           10503
A0101410560000001290886MALAGUENO, CYRUS CLAY JT DBU                            10501
A0101400150061231935002EMILINA P. GARCIA OR                                    10502
A0101400440161393583001ENRICO U. DEE OR                                        10501
A0101406620273352977001MADLANGSAKAY, EFREN ASUNCION OR                         10502
A0101406620273400631001DINDO P. SANCHEZ OR                                     10502
A0201400920375512966002LIM JR., MANUEL OR LIM, IMELDA                          10501
A5501400120410636391028CHIU, JULIA EILEEN & VALENTIN                           10505
A2401400180411478374061JUNRES AGAD OR                                          10501
A1901400160491282845001ARTHUR C MALALUAN OR                                    10501
A0101408240711699640001LOANZON, MARIA PATRICIA                                 10501
A0101406750852025967001FILIPINAS ALLIED MAINTENANCE &                          10505
A5001400170000000045003DANA CORAZON LUA                                        20500
A5001400170000000045047ONG, HAIDEE GO                                          20500
A0101401380000000106505SA CAPITOL RESTAURANT                                   20500
A1001400190000000124876JENNY CALDERON                                          20500
A1901400290000000135173EVELYN UMALI SEMANA                                     20500
A0101408240000000347346SUNIO, NATHANIEL                                        20500
A1201400150000000473494LEONIDES FLOR L.                                        20500
A2601400270000000561751MARICEL SANCHEZ AND CRIST                               20500
A2601400270000000561922EVELYN C. AZARCON                                       20500
A3801400170000000955073JAIME D. CABUNGCAL                                      20500
A3801400170000000955084CLARK MARTIN S. MORILLA                                 20500
A0301400820000001027809FLORA MAY C.                                            20500
A0101402480000001099641JANNESE JEAN                                            20500
A0101410560000001290886CAM TRAVEL SERVICES                                     20500
A0101400150061231935002MA. CARMEN JAVIE                                        20500
A0101400440161393583001ELIZABETH U. DEE                                        20500
A0101406620273352977001MADLANGSAKAY, MA                                        20500
A0101406620273400631001EMILY H. SANCHEZ                                        20500
A0201400920375512966002OR LIM, SANTIAGO                                        20500
A5501400120410636391028& CHRISTIAN VALEEN                                      20500
A2401400180411478374061NORMELITA BLANCO                                        20500
A1901400160491282845001IRENE D MALALUAN                                        20500
A0101408240711699640001OR TOMAS                                                20500
A0101406750852025967001SPECIAL SERVICES                                        20500
B0101404130000000001241PREMIER CREATIVE PACKAGING, INC.                         1604
B0101408240000000005563IIARMEA DEVELOPMENT CORPORATION                          1601
B0101405650000000013065F.O.A.M.S INFLATABLES AND EVENTS, INC.                   1601
B0101412340000000031001ECH FUEL DISTRIBUTORS                                    1601
B0101402480000000045656******                                                   1601
B0101400150000000052702VISMAY INTERNATIONAL CORP. DBU GADG                      1602
B0101400150000000052899DDC LAND INC.                                            1610
B0101404260000000156990RB HORTALEZA VACIADOR AND BEAUTY SU                      1601
B0101408790000000599759FROBE BUILDERS PHILS. INC.                               1603
B0101406590000000905577CNA CULINARY SERVICES, INC.                              1606
B0101402480000001099754****                                                     1602
B0101402480000001100001QUALIGEN PHARMACY CORP.                                  1603
B0101402480000001100012AJKL ENTERPRISES                                         1610
B0101402480000001100023QUALIGEN PHARMACY CORP.                                  1603
B0101402480000001100063SYNERGY SALES INTERNATIONAL CORPORATION                  1601
B0101402480000001100096QUALIGEN PHARMACY CORP.                                  1603
B0101400860011383946001LUA, MAN WA SIA                                          1602
B0101400150061026122002DDC LAND INC.                                            1610
B0101400150061027839001ROSCOR                                                   1602
B0101400600071011304001**********                                               1601
B0101400600071232728001**********                                               1605
B0101401380201041802001D'GLACIERS' MGM INC. - MAC                               1601
B0101401380201041802003D'GLACIERS' MGM INC. - ALABANG                           1601
B3101400160221026446001JOHN PAUL & PETER REPAIR & SERVICES                      1602
B1001400190231043021001UNIPACE CORPORATION                                      1610
B0101406620273012462001COL FINANCIAL GROUP, INC.                                1610
B0101406620273022260001CROWN SYNERGY TRADING CORP.                              1605
B0101406620273039712001OMNIPRIME MARKETING, INC.                                1602
B0101406620273460663001PREMIUMSOLE INTERNATIONAL CORPORATION                    1604
B0101402480331020380001BOUNTY AGRO VENTURES, INC.                               1630
B0101402480331031132001LOTTE ALUMINUM CORPORATION                               1602
B0101402480331032460002NCK PLASTIC MANUFACTURING                                1603
B0101402480331034503001*******                                                  1601
B0101402480331036504001**************                                           1605
B0101402480331038757001UNIFRAME ALUMINUM CORPORATION                            1603
B0101402480331041804001***************                                          1601
B0101402480331044029001********                                                 1602
B0101402480331045776001NOSTRANO FORMA CO.                                       1602
B0101402480331224670001*****                                                    1602
B0101402480331243281001**********                                               1620
B0101402480331580623001*********                                                1601
B0201400920375045372001LIGHT UP ELECTRICAL SERVICES, INC.                       1602
B0101402930381046543001THE CHEF'S TREATS, INC.                                  1601
B2401400180411029556088RELL & RENN FISHING CORPORATION                          1602
B0101403320471206926002LOLITA B COLINA                                          1601
B0101407430503034519001D.G.X. PHILS., INC.                                      1602
B0101404130601030838001ELEV 8 MEDIA, INC.                                       1605
B0101404130601771934002LEE, RENATO MUNAR AND YAN, EDWIN C.                      1601
B0101408240711691416001FIVESOME INC.                                            1601
B4101400550815042993001BAGTEC DRUGSTORE & GENERAL MERCHANDISE                   1601
B0101404840851671030001QUANTUMMEDIA MARKETING INC                               1602
B0101410560000000020322JESUS REIGNS CHRISTIAN ACADEMY (JRCA)                   11604
B0101404260000000550241BUENAOBRA, RUSSPAN BALLA AND                            11601
B4101400550000000900014CAVITE PEOPLE FOR SOCIAL CONCERNS MULTI                 11602
B0101410560110045152001JESUS REIGNS CHRISTIAN ACADEMY (JRCA)                   11602
B2601400270302047202001UY, EDGARDO PUA DBU AGAT MULTI GRAINS                   11604
B0201400920375047524001CUBAROL, VILMA SARMIENTO DBU                            11603
B0101407560686006370005VICTORIANO T. LEY OR                                    11603
B0101410560000000020322FOUNDATION, INC.                                        21600
B0101404260000000550241SESE, BERNADETTE                                        21600
B4101400550000000900014PURPOSE COOP                                            21600
B0101410560110045152001FOUNDATION, INC                                         21600
B2601400270302047202001CENTER  JT                                              21600
B0201400920375047524001NEW FRONTIER LOG                                        21600
B0101407560686006370005CLYDE CHUA                                              21600
B0101409210398821100608**********                                               2004
