A0201400890000000027892FORTRESS ELECTRICAL SUPPLY                               0501
A0101412210000000031450ZARATE, FRANCIS RYAN POBRE                               0501
A0101411370000000042559SANTOS, ELIMGEM DECENA                                   0501
A0101407690000000053881********                                                 0502
A0201401020000000056299DY, EDWIN Y OR DY, BEEWOAN L                             0501
A0301400530000000066099CHAN, MICHAEL OR ERA                                     0501
A0101400730000000112881GUTIERREZ, DOMINICA DALISAY                              0501
A1001400480000000133337TUDTUD, NELSON ATAMOSA                                   0501
A1301400500000000212995LUDETTE FATIMA T. CASTRO                                 0502
A0101406330000000451352DUMANIL, SARA STO DOMINGO                                0505
A0101404840000000475952GONZALES, ROWENA POLLICAR                                0501
A1601400170000000497536WASSER TRADING                                           0501
A0101410140000000499065MORDIDO, LYN ROBELLES                                    0501
A0101410140000000499281MANSOUR, BERNADETTE ANTINERO                             0501
A4101400390000000500530ARCILLA, CAESYLYNNE FORTUNO                              0501
A0101408240000000521793ROMERO, GHIE MARIN                                       0501
A0101408660000000523799MAURICIO III, VICENTE DE CASTRO                          0501
A0101411790000000576056DOMINGUEZ, YOLANDA GOLINGAY                              0501
A0101407690000000587902EMPERADO, ROGER BRIGOLE                                  0501
A0101400440000000596583ELIZABETH G. TALPLACIDO                                  0501
A3401400280000000784692VISTA, LECEL CERILO                                      0501
A0101400440000000821112MADRIDEJOS, LINALYN BACSID                               0501
A0101400730000000833050SY, JOHN JINKY CARREON                                   0501
A0101404420000000866417FLORO, IVY DELA CRUZ                                     0501
A0101413020000000880440RAMOS, KARMJIT KHAUR RIVERA                              0501
A0101412050000000890882********                                                 0501
A0101407690000000913980BRAVO, RHODA LIBUNAO                                     0502
A0101407690000000913991GAVIOLA, MARK PAUL CRUZ                                  0501
A0101407690000000914005OSORIO, MARIA CECILIA BUENO                              0501
A0101407690000000914016******                                                   0501
A0101407690000000914027BUYAYO, ELIZABETH KIDAYAN                                0501
A1301400210000000915800DALOGDOG, DIANA SOMBILLO                                 0501
A3401400280000000972772BRILLO, GOBLEO JEFFERSON GALAGA                          0502
A0101407430000001028944MARY SWEET S. ARCE                                       0501
A0101407430000001028955MARY ANN G. DELOS SANTOS                                 0501
A1001400190000001057410MELCHE HAVANA                                            0501
A0601400230000001062435SANCHEZ, ELMER HILOMEN                                   0501
A4101400420000001063796*********                                                0501
A1401400110000001096128POROL, EMMANUEL ALVAREZ                                  0501
A1301400210000001206762TULAYLAY, DANILO MADULI                                  0501
A3001400130000001271647ROSALES, PAUL VINCENT PLAZA                              0502
A0101402770000001289603MARK B. YANGAT                                           0501
A0101405650000001377271SOTOMIL, JANELLE TRINIDAD                                0501
A1301400340000001415689ABRIOL, ELEONOR MENDOZA                                  0501
A1301400340000001415690ANDRADE, JOCELYN MUNEZA                                  0501
A0101400440000001439987MALAVEGA, NORLINDA REYES                                 0501
A0101413440000001472908BERMIDO, JAIME BUENAFLOR                                 0501
A0301400820000001554707MANAUG, ANICETA R.                                       0501
A2001400290000001557611MACASILJIG, EMELIA DUHAYLUNGSOD                          0501
A3101400160000001559253EDISON R VASQUEZ                                         0501
A0101411240000001563399POLDO, LARRY DE ASIS                                     0502
A0101407270000001596887HANILOU H. FONTANILLA                                    0501
A0101401090000001611438VIDA RESURRECCION R. CORDOVA                             0501
A0101403450000001637852*****                                                    0501
A0101403320000001646802BORJA, PEARL ANGELIE RODRIGUEZ                           0501
A0101400570000001681712GIL M. VICENTE                                           0501
A0101406620000001686611SURAL, DIGNA PAGAL                                       0501
A0601400230000001687072TERRIBLE JR., SANTIAGO PAMINTUA                          0501
A0601400520000001706838MENDOZA, JINKY MEDINA                                    0501
A3401400280000001723393BATACANDOLO, PET ROANA BELDIA                            0501
A0101404260000001725242BENEFREDA RIGON                                          0502
A0101404260000001725253BAUTISTA, KRISTINA ARRIOLA                               0501
A4101400260000001783582PARENO, JUNA VILLARDE                                    0501
A3101400160000001792156MANUEL P REMPILLO                                        0501
A0101408400000001952770MERIAN B BUERE                                           0501
A0101402510000002105486MELENDEZ JR., ALFREDO BRIMBUELA                          0501
A0101400150061396165001SANTIAGO, MA. SOCORRO SANCHEZ                            0502
A0101400730111301951008EVALE, BENIGNA D.                                        0502
A0101400730111520766002MA. LIZA C MALAQUE                                       0502
A0101400730111644159001CASUNCAD, CATHERINE GRAGASIN                             0501
A0101400440161039572053MURIEL PERLAS                                            0501
A0101400440161039572094BALLADARES, GINA BOCATOT                                 0501
A0101400440161478374060LORETA G. TOREJAS                                        0501
A0101400440161520766172LUCELLE A. CABUTIN                                       0501
A0101400440161525001105VIRGIE B. CRUZ                                           0501
A0101400440161525001119NORA S. TALENTO                                          0501
A0101400440161760132001LANDIG, MA. GUIA GONZALES                                0501
A0101407270162199731002TRIFINA O. MARTINEZ                                      0501
A0101407270162370131001CHERRY PIE S. PICACHE                                    0502
A0101401090171202858001MAY T. MAGTOTO                                           0501
A0301400530193268995001**********                                               0510
A0301400530193749518088ROBLES, CELEDONIA F.                                     0501
A0101407140213190585001**********                                               0502
A3101400160221533275001RODOLFO P LUNA                                           0501
A3101400450223223458004ALVERO, LEAH AURORA TOLENTINO                            0501
A3001400130230478374008GAMO, HAYDEE EDEN CAFE                                   0501
A1301400470252501988001DARIUS V. CUNANAN                                        0501
A0101408660274642352001GAVIOLA, ROSEMARIE SEMANA                                0501
A2601400270302533859001BLENDA E. VISAYAN                                        0501
A6601400120314651758001ABIENA, ALDRYN QUINAO                                    0502
A0101408820333639812001BAUTISTA, ENRICO NICOLAS JT                              0502
A0201400760374478374015DACAYANA, ROSALIE SIBLA                                  0501
A0201400890376262969001MAH, GUENDOLYN HECETA                                    0501
A0101402770391529757008EMMANUEL JANIYA                                          0505
A0101408400394478374083FANGON, MA. ALMA LAGOS                                   0502
A5501400120410042696088CAMBARIJAN MOTOR DOK                                     0505
A5501400120410696768008MAREGMEN, JERRY SILIK                                    0502
A2401400180411478374020MORI, LYDIA                                              0502
A0101403030441241013001**********                                               0504
A0101403030441289229002**********                                               0501
A0101406330472027958001A. ANOLIN ENTERPRISES                                    0502
A0101406330472329066002ANTONIO S. DE GUZMAN                                     0510
A0101406330472566475001MICHELLE A. MACALINAO                                    0501
A1401400110492221115001MANOLO A MERCADO                                         0503
A0101407430503452069001DULCE OBUSAN OR IRIS ISLA                                0501
A0101406880513512239001***********                                              0502
A0101406880513565496003EMPLOYEES OF ACTIVE REALTY DEVE                          0501
A0101406880513565496013ABDON, ANTONELLA TURALBA                                 0502
A0101404000551150186001DANIEL OR DEANNA SAMANIEGO                               0506
A0101404000551150194001NILO G. SAMIA                                            0506
A2201400250561555847001**********                                               0503
A0101407690652020765001STARIAN MARKETING                                        0504
A0101407690652397055002BONGO, OLIVER NARVIOS                                    0505
A1301400210682045774001POP WASH LAUNDRY SHOP                                    0501
A1301400210682544771001MARY ANN R DELA CRUZ                                     0505
A2801400230713414628001ENDAYA, MARITES PRONTO                                   0503
A4101400260812362318006MAXIMO P. SARTE                                          0501
A4101400390813478374045FIRMALINO, MELECIA ATIENZA                               0501
A4101400390813478374045FIRMALINO, MELECIA ATIENZA                               0503
A0101404840851424429002MAQUINANA, JOEL MACABUHAY                                0502
A0101404840851520766066CYNTHIA A HERMEDILLA                                     0502
A0101404840851520766132CORNELIA C MONTE                                         0502
A0101406750852036401001E.B.A. CONSTRUCTION                                      0505
A0101401099000001611461RAYMOND P. CLARIN                                        0501
A0101405650000000013156MUNOZ, ANGELITO B.                                      10501
A0101406330000000162456DAVID, EMMANUEL KAVIN OR                                10501
A0101406330000000451363PROCTOR, EUVIE AMUTAN OR                                10501
A0301400950000000566803WALES, MARC-FAITH A. DBU TICKET                         10501
A0101407270000000818304RICARDO FERNANDEZ DBU                                   10501
A3101400450000001149337CORTEZ, MARTIN ROY ALMARIO OR                           10501
A0101409210000001294355NIM, SHEILA E. AND                                      10501
A0601400520000001349662TIMBOL ROMAN MANALOTO                                   10501
A2201400250000001545386EVELYN R. CABASAG                                       10501
A0101402770000001570587CORAZON MADERAZO OR NICOLAS                             10502
A0101402770000001570725VILLAMORA, DBU CHRISTINE MANALO                         10501
A0101401250021179007001OLIVEROS, SYLVIA OR SHEILA OR                           10502
A0101401250021453364001TORREJOS, ALFREDO OR                                    10502
A0101401250021709223001ROLANDO F. ASTILLERO JR. OR                             10501
A0101400730111195461002JOSE L. DIZON OR                                        10501
A0101400440161707212001TEODORO OR ROSARIO OR MARTIN                            10502
A0101407140213300710001CAHAPAY, ANICIA L. OR                                   10501
A1001400190231520766045BALBERAN, FLORA ABOY OR                                 10501
A1301400470252428900001JUAN NEPOMUCENO OR                                      10501
A0101408660274514556002CHOI, JEONG KAY OR                                      10501
A2001400290315790366001KIRIT, GRACE UY                                         10501
A2401400180411272602001HELEN B. NOGRALES OR EDDIE                              10502
A2401400180411501589001VALILA, NOL S. OR VALILA, MA.                           10501
A1201400150421317778001REDEN MANARANG RONQUILLO OR                             10501
A1901400160491709873001OSCAR JOHN D SAUZA OR                                   10501
A0101408110515427749001HILARIO TAMONDONG JR. OR                                10502
A0101404260611478374127BENIGNO G. SURIO JR.                                    10502
A0101407690652160042001JOEL B. PASTRANA OR                                     10501
A0101407690652478374044MA. THERESA BACINILLO - DEALERS                         10501
A1301400500684592585001ROBERTO M CARLOS OR                                     10504
A0101408240711487311001RACHO, DESIDERIO OR TRANQUILINA                         10502
A0601400230891530524001BUENA, JOVEN MANALO OR DONNA                            10501
A0101405650000000013156OR MUNOZ, AILEEN                                        20500
A0101406330000000162456ORTIGUERO, MARIA THERESA                                20500
A0101406330000000451363PROCTOR, MICHAEL VANCE                                  20500
A0301400950000000566803BOX PROMOTIONS, THE                                     20500
A0101407270000000818304RG TRUCKING SERVICE                                     20500
A3101400450000001149337CORTEZ, GRACE TIMOG                                     20500
A0101409210000001294355BARTOLAZO, ALEXANDER M.                                 20500
A0601400520000001349662ACCTNG & TAX CONSULTANCY                                20500
A2201400250000001545386MEMBERS OF NATASHA                                      20500
A0101402770000001570587MADERAZO OR SOFIA POSADAS                               20500
A0101402770000001570725VILLAMORA INTERIOR DESIGN                               20500
A0101401250021179007001WARREN                                                  20500
A0101401250021453364001RYAN ALVIN OR CARMEN                                    20500
A0101401250021709223001GINA A. ASTILLERO                                       20500
A0101400730111195461002JANICE D. DIZON                                         20500
A0101400440161707212001ANTONIO CRISOSTO                                        20500
A0101407140213300710001CAHAPAY, CELEDON                                        20500
A1001400190231520766045BALBERAN, BERNAR                                        20500
A1301400470252428900001SILVIA NEPOMUCENO                                       20500
A0101408660274514556002LUI, LEUNG CHU                                          20500
A2001400290315790366001OR KIRIT, CAROLE                                        20500
A2401400180411272602001NOGRALES                                                20500
A2401400180411501589001LOURDES D.                                              20500
A1201400150421317778001LENIE RONQUILLO                                         20500
A1901400160491709873001GRACE A SAUZA                                           20500
A0101408110515427749001TRISHA MARIE TAMONDONG                                  20500
A0101404260611478374127OR CARMELITA M.                                         20500
A0101407690652160042001TERESA PASTRANA                                         20500
A0101407690652478374044OF SHOECAT INC                                          20500
A1301400500684592585001MILAGROS T. CARLOS                                      20500
A0101408240711487311001OR ANNA OR ARTHUR                                       20500
A0601400230891530524001JAYNE J. BUENA                                          20500
B0101405940000000002922SOLIMAN SECURITY SERVICES, INC.                          1605
B0101404840000000004177JOY PLANET INC.                                          1602
B0101404840000000004199JOY PLANET INC.                                          1602
B0901400220000000012266**********                                               1601
B2201400250000000016997SOLAREN RENEWABLE ENERGY SOLUTIONS CORP.                 1602
B6601400120000000022306NORTHERN SAMAR COLLEGES, INCORPORATED                    1602
B0101413440000000038213ROMBE PHILIPPINES, INC.                                  1605
B2401400180000000073732TURNSAT INTERNATIONAL LOGISTICS CORP.                    1602
B0101406750000000090691THE PLAZA HOTEL BALANGA CITY INC.                        1605
B0101410300000000191542*********                                                1602
B5001400170000000214031**********                                               1601
B0101406330000000432682MAGAYON EMISSION TESTING CENTER, INC.                    1602
B0101404000000000460951ITERA ROBOTA INC.                                        1601
B0101403450000000889381SANTOS, JAN MICHAEL MERCADO DBU JMS                      1605
B0101413440000001085610SEASTEMAS INTERNATIONAL, INC.                            1605
B0101400150061016656001BLUE SPHERE PROPERTIES, INC.                             1601
B0101401960121456874001*****************                                        1603
B0101400440161007221001ILA EXPRESS HAULER                                       1602
B0101400440161043992001AGAPP FOUNDATION, INC.                                   1601
B0101407270162024417001BOUNTIFUL BRANCHES BUSINESS INC.                         1605
B0301400530193037586088I. NEO ENTERPRISES                                       1603
B0101407140213007657001DANTES RADIATOR ENTERPRISES CORP.                        1604
B0101401670271007375003MULTI-FOLD LINKS, INC.                                   1605
B0101401670271026611001MERGE MARKETING STRATEGISTS INC.                         1601
B2601400270302046854001H.A. DULDULAO & CO., INC.                                1605
B2001400290315052317001NRU TRADING                                              1601
B0201400760374042947001MILDS MARKETING                                          1604
B0101403030441303324001**********                                               1602
B0501400170481018109002****                                                     1601
B0101407430503006865002AIRTROPOLIS CONSOLIDATORS PHILS. INC                     1620
B0101403450521011745001**********                                               1602
B0101403450521011799001**********                                               1601
B0101407720602779437001SOUTH BIENALE MARKETING INC.                             1603
B0101404260611027402002ENTRUSTED CORP                                           1605
B0101407690652457728001AUDIOTRON ELECTRICAL INDUSTRIES CORP.                    1602
B1301400210682039340001CDS MACHINE SHOP CORPORATION                             1605
B4101400260812045529001CITISTORES INC.                                          1602
B4101400390813032321001MA-MA'S HOPE HAVEN OF NORWAY, INC.                       1601
B0101406750852041203003AUTOCIRCULO CORP.                                        1610
B1001400480000000041556SAVINGS MUTUAL INTER-COMPANY CREDIT                     11603
B0101400150000000633083PHILIPPINE SUGAR MILLERS ASSOCIATION,                   11605
B0101409050352046629001COMPOUNDING SOLUTIONS INDUSTRIES                        11602
B1001400480000000041556COOPERATIVE                                             21600
B0101400150000000633083INC.                                                    21600
B0101409050352046629001PHILS. INC.                                             21600
B0901400190431821100608**********                                               2002
