F0101407300395212519001CLARIN JR., RICARDO CASIDSID                             2502CKO
F0101410690000000001850COLOR1DIGITAL, INC.                                      2603CKR
F0301400240004013500224MSU-IIT NMPC DAVAO-1 BR.                                 2601CKR
F0301400110191040022118BANANA TELECOMMUNICATIONS, INC.                          2601CKR
F0301400110191040022118BANANA TELECOMMUNICATIONS, INC.                          2601CKR
F0301400110191040022138BANANA TELECOMMUNICATIONS, INC.                          2602CKR
F1501400140291027914002FL MEMORIAL PARKS, INC.                                  2604CKO
F0301400400413014142002BROSCO CONSTRUCTION & DEV'T.                             2605CKR
F3101400740000000013903INDORAMA VENTURES PACKAGING                             12603CKR
F0101407300000000027789METRO ANTIPOLO HOSPITAL AND                             12601CKR
F3101400740000000013903(PHILIPPINES) CO                                        22600CKR
F0101407300000000027789MEDICAL CENTER                                          22600CKR
F0201400180181041625001CEBU HYBRID FARMS CORPORATION                            2702CKC
