A0101405650000000080151RICHARD A MELENCIO                                       0501
A4101400420000000120969RAVAO, DONNA VICEDO                                      0502
A1901400160000000243649ALILIE ANURAN LACSAMANA                                  0501
A0101402480000000310590**************                                           0501
A0101402770000000360821TOLENTINO, MYRA ROQUE                                    0501
A0101404840000000475901MARGIN, ARIANNE MAE CALOPEZ                              0501
A0101406590000000568805LOGARTA, MICHELE TORRALBA                                0501
A0101408790000000579773ASIDDAO, HEHERSON MIRANDA                                0501
A0101411110000000604879JIMENEZ, RHODORA MONTESINO                               0501
A0101413600000000650964ANNE B. HIPOS                                            0501
A0101404840000000683603RAMOS, JUDITH DACUNO                                     0501
A4101400420000000710336CUENCA, AIDELEEN ONESA                                   0501
A0101408820000000800291PONCIANO, ROSEMARIE REBLORA                              0501
A0101401250000000907022BALLESCA, ARCELIE CALUMPIT                               0502
A3101400870000000957951NATAYA, CHARLENE BALDOZ                                  0501
A0101400860000001005456LIM, AILEEN CALIWARA                                     0501
A0101408400000001035301RIVA C GARBOZA                                           0501
A0101408400000001035476ODOYA, CONCHITA ESTACA                                   0502
A0101412890000001056342ONG, CECILIA AND ONG, EDWIN                              0501
A0101412890000001056353DELA CRUZ, EMERSON CUNDANGAN                             0501
A1001400190000001057421FLORES, RICARDO DBU WHEEL SPEC                           0505
A0101413310000001073621RAMOS, MAE ANNE SANTOS                                   0501
A0101413310000001073698SY, KATRINA ANGELA RIEL                                  0501
A3101400740000001093921BUICO, JAMES GELI                                        0501
A1401400110000001096180GARCIA, ALICIA BASCO                                     0501
A5501400120000001121720BELDAD JR., REMEGIO DEBELDOS                             0501
A0101405070000001124452BOCAR, CHINKY SORTIJAS                                   0501
A0301400820000001185791JARED HOTEL AND CONDOTEL                                 0502
A0101404000000001186761CHAN, HENRIETTA PELLEJA                                  0501
A0101404000000001186772FLORES, JOEL MARTINEZ                                    0502
A0101413990000001202435CLG PAINT CENTER                                         0501
A3001400130000001271396DACOSEO, JOSE ARBAN                                      0501
A0101407560000001276108WONG, JOHN JERIC DAGOHOY                                 0501
A0101410560000001290955QUILANTANG, MA. IRENE NARIA                              0501
A1301400470000001299021GIAN PAULINE G. PALAD                                    0501
A0101406620000001686451YSMAEL, MANUEL CHUA                                      0501
A0201400890000001716412UY, FAIRLIE TAN                                          0501
A0101400570000001720592GLORIA ROBE ALMA D. GABUYA                               0501
A0101401090000001721102JONES, CHRISTA NIMPHA M.                                 0501
A0101400860011495810002**********                                               0501
A0101401250021181590001BERNARDO,MARIA SOCORRO CALINGAY                          0505
A0101400150061039916174ROMERO, BENELITO                                         0501
A0101400150061571188001ANTONIO, ANGELYN DALDE                                   0501
A0101400600071478374009******                                                   0502
A0101401960121031303001FJ'S LUCKY HARDWARE                                      0502
A0101401960121096152001***************                                          0502
A0101401960121238671001**********                                               0505
A0101400440161082082001MELANY T. PARCASIO                                       0501
A0101400440161525001095MARITES T. TAPIADOR                                      0501
A0101407270162402587002MA. LOURDES L. SEVILLA                                   0503
A0101401090171196072004CARLOS M. ALMEDA                                         0501
A0101401090171439619001JOCYLINE L. ALMEDA                                       0501
A0101401380201371534001JOSIE ASANON                                             0502
A0101401380201436370001MONSALE, MENLY ABENOJA                                   0501
A1001400190231509590001LAGUYAN, ENGRACIO SALONA                                 0502
A1001400350233503410003APARICI, ARMANDO AKIAT                                   0502
A1301400470252518432001**********                                               0510
A0101401670271192058001CARMEN V. SEGOVIA                                        0505
A0101406460272505947001WEE JR., CESAR LEE                                       0501
A1101400120313478374055OBILLO, EMMA P.                                          0502
A0101405650322298552006RUFA MACABENTA                                           0501
A0101402480331478374002SALOMON, VILMA                                           0502
A0101408820333555007001RICAFORT, FRANCES MAE MAGSALIN                           0501
A0101408820333597106001**********                                               0502
A0101402510341196642001AIDA S. VILLANUEVA                                       0501
A0101402510341331222002ERLINDA C. RECOCO                                        0501
A0101402510341388275001LETICIA R. MOLO                                          0501
A0101402060351212497001LICHAUCO, ERNESTO E.                                     0505
A0101402060351553377001ALVAREZ, JACQUELINE BARRION                              0501
A0201400760374033148001MONARES ENTERPRISES                                      0502
A0201400760374478374005ABATAYO, JENNIFER A.                                     0501
A0201400890376537955001****************                                         0501
A0101402930381485819001LLORCA, GREGORIO LO                                      0501
A0101402930381582582001JOCELYN D. RAMOS                                         0501
A0101408370382376113001ERLINDA C. ORACION M.D.                                  0502
A0101402770391469197001LEOCARDO A. ABRACIA                                      0501
A0101405490392044249001SAMAIREE CLOTHING SHOPPE                                 0502
A0101408400394033958001RCBP-STA MARTHA PARISH                                   0502
A0101408400394038560001R-FER ENTERPRISES                                        0501
A0101408400394409317001BANDWAGON ENTERPRISE                                     0502
A0101408400394478374062APOLIS, SALVACION G.                                     0503
A2401400180411275346001GILMOORE O. ALIAN                                        0502
A2401400180411431120001GELLANG, JOVY ALBARANDO                                  0501
A2401400180411729988001TAN, JOEL RECTO                                          0505
A0101403030441240945001LYDIA T. CHENG                                           0504
A0501400170481253455001NORMELITO QUIMO OR IRENE QUIMO                           0502
A1901400160491246087001NIDA F UY                                                0501
A0101411400517085478001MORALES, NICE LUMANOG                                    0501
A0101403450521649009001*************                                            0501
A0101404000551576603001PEREZ, EVANGELINE MAMARADLO                              0501
A2201400250561253782001VIRGINIA M. ARQUIZA                                      0502
A0101407720602318369061MUNDO, RACHEL M.                                         0501
A0101407720602516697001SOLER, NATIVIDAD DELOS SANTOS                            0501
A0101404420631386485008HERMINIA E. BINIBINI                                     0501
A0101406590662590885001BARRIENTOS, MARITES ABRAHAM                              0501
A1301400500684478374003ELMA I. DE LEON                                          0502
A0101407560686484185001LABRADOR, GEROME CERVANTES                               0501
A0101408240711384215003LOURDES GRACE MAPALAD                                    0502
A0101408240711478374019ESTUYE, GILDA PLACIDES                                   0505
A2801400230713070903001EMETERIO, HONORIO DOMINGO                                0505
A4101400260812478374062SUNNY G. CAPORADO                                        0501
A4101400390813292154001ANGELO OR MARIE LYN MOLATO                               0502
A4101400390813499102002ARAO, MA. LOUELLA RICASATA                               0501
A4101400420814520766107CADAVEDO, ELENITA P.                                     0501
A0101404840851217637007MARILYN N. SANCHEZ                                       0502
A0101405070861476115001REYES, MA. MILAGROS ABRAJANO                             0503
A0101405070861776321001RANARA, MATILDE ALIVIO                                   0501
A0101405070861776717001PEREZ, LACER ALIBIO                                      0501
A0101408240000000039683MIRCHANDANI, SHERYL OR LALA                             10501
A0101402770000000360650AGUIRRE, LORY DBU FIRST LINE                            10502
A0101406590000000568792ANG, RONALD BRYAN AO OR                                 10501
A0101412630000000801501CHUA,SUSAN MARIE                                        10501
A0101411400000001280262IBANEZ, CHRISTIAN GALLARTE                              10501
A0101401380000001412571COLLANTES, EMMANUEL BENEDICT                            10501
A1301400340000001415598TILA, REAGAN CRUZ OR TILA,                              10501
A0101413440000001472668VALENZUELA, JADE CHARMANE ROSE                          10501
A1001400190231040264001WESTBOUND PETRON                                        10502
A1301400470252507868001EDGAR P. CASTILLO, JR. OR                               10502
A0101406620273215629001PATRICK G. SANTOS OR                                    10502
A0101402480331452117001ENRIQUEZ,LUCENA OR IRENE OR                             10501
A0101402930381354198001WILFRIDO OR MA ELENA SANCHEZ OR                         10501
A0101402930381505507001TRINOS, ROCHELLE VERANO OR                              10501
A0101408370382237007001DR. NENITA C. CRUZ OR                                   10505
A0101408400394163404002PILI, JUANITO/LAZARO, JENNIFER/                         10502
A0101408400394412577001REYES, EMMANUEL JOHN JOCSON OR                          10501
A2401400180411530850001SABULAO, ROSALYN B. OR                                  10501
A1201400150421029919001MUNSAYAC HANDICRAFTS INC.                               10502
A2201400250561484428001WILSON LAO SIO OR                                       10502
A0101407720602366430002EDGARDO D. FORES OR                                     10502
A4101400390813043811001OXY CLEAR WATER FILTRATION AND                          10501
A4101400420814481492001MADERA, EILEEN SOLANO OR                                10501
A0101408240000000039683OR MICHAEL                                              20500
A0101402770000000360650TRADING                                                 20500
A0101406590000000568792ANG, ROLANDO JUINIO                                     20500
A0101412630000000801501DBU J-ERYN TRADI                                        20500
A0101411400000001280262OR IBANEZ, MARITA DAVID                                 20500
A0101401380000001412571TARNATE                                                 20500
A1301400340000001415598JACQUELINE ONG                                          20500
A0101413440000001472668J.                                                      20500
A1001400190231040264001SERVICE STATION                                         20500
A1301400470252507868001EVANGELINE N. CASTILLO                                  20500
A0101406620273215629001MONICA S. SANTOS                                        20500
A0101402480331452117001ENRIQUEZ JR., DE                                        20500
A0101402930381354198001MA THERESA MURGA                                        20500
A0101402930381505507001AVILES JR., ISAGANI                                     20500
A0101408370382237007001RODOLFO A. CRUZ                                         20500
A0101408400394163404002LAZARO, ARRHENIU                                        20500
A0101408400394412577001REYES, MARY GRAC                                        20500
A2401400180411530850001SABULAO, INOCENC                                        20500
A1201400150421029919001(ABANAO CARPARK)                                        20500
A2201400250561484428001EDUARD LAO SIO                                          20500
A0101407720602366430002ROWENA M. FORES                                         20500
A4101400390813043811001REFILLING STATIO                                        20500
A4101400420814481492001MADERA, ABEGAIL                                         20500
B0101412890000000006982SHOEMIXX INTERNATIONAL INC.                              1610
B0101411110000000009076E. SAYAGO CONSTRUCTION, INC.                             1601
B1301400500000000011183ANJTON TRADING                                           1601
B0101411820000000024200CHELA MANUFACTURING CORPORATION                          1602
B0101408820000000027432*******                                                  1603
B0101405070000000028908STAR LADY RESTAURANT AND CLUB INC.                       1602
B0101406590000000035601NORZON CONST. AND DEVELOPMENT CORP.                      1603
B0101408530000000035845TIPTOP NET MANUFACTURING                                 1601
B0101413020000000038388**********                                               1601
B0101400860000001005423***********                                              1602
B0101402480000001099754****                                                     1601
B0101400150061010686001AIR NIUGINI                                              1610
B0101400150061010880001SEABOARD-EASTERN INSURANCE CO., INC                      1601
B0101400150061021566005SUGAR MASTER PLAN FOUNDATION, INC.                       1602
B0101400600071232741002**********                                               1602
B0101401960121339004001**********                                               1601
B0101412630132047758001MAJOR HOMES, INC.                                        1605
B0101401090171035575001MOSS MANILA EVENTS HOUSE INC.                            1605
B0101401380201041948001THE METRO SPA - YOUR MASSAGE ON CALL CO.                 1601
B3001400130230044547001AMARIS MERAV CORPORATION                                 1610
B0101400570281007191001ST. JOSEPH COLLEGE WORKERS ASSOCIATION                   1602
B0101402480331025217001INOZA FEED MILLING CORPORATION                           1610
B0101402480331031792001***************                                          1602
B0101402480331220429001*******************                                      1602
B0101402480331635912001MIEL INTERNACIONAL, INC.                                 1610
B0101402480331665824001***************                                          1601
B0101402510341008565002SAN BEDA COLLEGE                                         1620
B0101402930381009073001INTERLINK BUSINESS SOLUTIONS INC                         1601
B0101402930381016251001THE PACIFIC MEAT COMPANY, INC.                           1602
B0101402930381019682001RAWLINGS FOUNDATION INC.                                 1602
B0101408790383040734001RADIOWEALTH FINANCE COMPANY, INC.                        1601
B0101402770391017472002MEGACITY MINISTRIES INCORPORATED                         1602
B0101408950396026318001GLOBAL CITY AUTO SALES, INC.                             1603
B2401400180411032398088ECCO HARDWARE, INC                                       1620
B0101403450521011898001**********                                               1605
B0101404000551005073001BLOCKBUSTER BROADCASTING SYSTEM INC                      1620
B0101404000551016379001RAVEN BROADCASTING CORPORATION                           1620
B0101404420631030262001LICA GAS CENTER                                          1602
B0101406590662045778001KAUNLARAN GROUP OF COMPANIES INC.                        1604
B1301400210682047989001CARLBUILT CONSTRUCTION AND TRADING                       1603
B4101400390813028793001KRATOS TECHNITES CORPORATION                             1602
B0101405070861020451001SOUTHEAST TRAVEL CORPORATION                             1604
B0601400230891251987001SENEN P. QUIAMBAO OR LORETA QUIAMBAO                     1602
B0101405070000000028919GRAND YOKO BAR AND RESTAURANT                           11601
B1101400120313540789001GO, JOHNY CHU OR NGO, CHRISTINE CHU OR                  11601
B0101402930381009107001PHILIPPINE PSYCHIATRIC                                  11610
B0101405070000000028919INCORPORATED                                            21600
B1101400120313540789001GO, DELIA YU                                            21600
B0101402930381009107001ASSOCIATION INC.                                        21600
B0101407980123821100608**********                                               2010
B0101408820333821100608**********                                               2002
B0101409760474821100608**********                                               2002
