F0101409500000000217109ASPEN CONSTRUCTION &                                    12605CKR
F0101409500000000217109DEVELOPMENT CORP                                        22600CKR
F0101408370382521640001INFECTIOUS DISEASE PRACTICE AND                         12601CKR
F0101408370382521640001INNOVATION (I.D.                                        22600CKR
F0101407430503006790003PAIRCARGO - ECCF                                         2603CKO
F0101408530516226243001PABLO P. PAULINO                                         2502CKO
F1301400210682306066002JUANITA CABRERA OR ANTONIO                              12501CKO
F1301400210682306066002CABRERA OR JAYNI                                        22500CKO
F0101408240711381753001ALCOBER, MELINDA OR ALCOBER,                            12503CKO
F0101408240711381753001RUBEN OR LEJANO, REGINA                                 22500CKO
F4101400260812044833001RAJAN TRUCK MOVERS, INC.                                 2603CKO
