F0101410850000000005621TURNSAT INTERNATIONAL LOGISTICS                         12602CKR
F0101410850000000005621CORP.                                                   22600CKR
F0201400180181041625001CEBU HYBRID FARMS CORPORATION                            2702CKC
F0401400270000001912341SYNCHROTEK CORPORATION                                   2603CKR
F0101405100571036688001ALL COUNTS TRANSPORT SERVICES                           12602CKR
F0101405100571036688001CORPORATION                                             22600CKR
F0101404260611027114001ABS PROMOTIONS CORPORATION                               2610CKR
F0101409890649047374001FRIGID ZONE AUTO AIRCON                                 12603CKR
F0101409890649047374001SPECIALIST CO.                                          22600CKR
F1301400340683027056001STI EDUCATION SERVICES                                  12701CKC
F1301400340683027056001GROUP, INC.                                             22700CKC
F0101406750852032744001COSCO INTEGRATED OFFICE SYSTEMS                         12605CKR
F0101406750852032744001INC.                                                    22600CKR
