F0101403320471046476001ZHOEBLESS CORP.                                          2601CKR
F0101409890000000049147BIG QUEEN FOODS CORPORATION                              2605CKR
F4101400390813029130001MODELCOUP INTERNATIONAL INC.                             2603CKO
