F0101406620273037433001QUADCORE CONSTRUCTION &                                 12603CKR
F0101406620273037433001DEVELOPMENT CORP                                        22600CKR
F0101400570281042930001PRIME XYNERGIES FOOD                                    12601CKR
F0101400570281042930001CORPORATION                                             22600CKR
F0101400570281226117001ARCATOMY OR ANGELES GUARIN                               2502CKO
F0101405650322024694004SOUTHVILLE INTERNATIONAL SCHOOL                         12601CKR
F0101405650322024694004& COLLEGES, INC.                                        22600CKR
F4101400550000006044133BINAKAYAN HOSPITAL AND MEDICAL                          12610CK1
F4101400550000006044133CENTER, INC.                                            22600CK1
