F0101401120131030124003MIGALLOS & LUNA LAW OFFICES                              2602CKR
F0101410720653038517001FRISCO FOUNDRY AND MACHINERY                            12550CKO
F0101410720653038517001CORPORATION                                             22500CKO
F0201401280379055788001FIVE WATER DRAGONS DEVELOPMENT                           2601CK1
F0101415190000001745702LIZARDBEAR TASKING INC.                                  2603CK1
F0101413990000000206011HGD SALON                                                2510CKO
F0101408240711078794001ALCANTARA, LELANIE VERONICA                             12510CKO
F0101408240711078794001FACTOR JT                                               22500CKO
F0601400230000006045358ST. JOSEPH HOSPITAL OF REMEDIOS                          2603CK1
