F0301400110191040022138BANANA TELECOMMUNICATIONS, INC.                          2603CKR
F3101400450223014743001CANOSSA COLLEGE                                          2602CKR
F0101412470000003847529LIVAN TRADE CORPORATION                                  2604CK1
F0101407720602024791003ACCUSTOM SOLUTIONS, INC.                                 2601CKR
F4101400420814573133002MAGNETICA ELECTRONICS, INC.                              2602CKO
