F0701400260495037680003MULTI-WARE ECON-SALES                                   12601CKR
F0701400260495037680003CORPORATION                                             22600CKR
F0701400260495037805003PRINCETON ENTERPRISES                                    2601CKR
F0701400260495042019002TREVOR ETON REALTY CORPORATION                           2601CKR
F0101408950000000036939ROQUE EYE CLINIC                                         2610CKR
F0601400100081599944001HEINEN, GERARD WILLEM OR                                12502CKO
F0601400100081599944001GERARD JR.                                              22500CKO
F0101401670271062360001ANGLINYA-LINYA ENTERPISES CORP                           2601CK1
F0101401670271062360002ANGLINYA-LINYA ENTERPISES CORP                           2601CK1
F0101400570281042886001PRIMEX COCO PRODUCTS, INC.                               2603CKR
F0201400760374477235003UY, ALICE SIM                                            2502CKO
F0101408400394031095003LIVINGWATER SYSTEM, INC.                                 2610CKO
F3101400580452029890001SIMUNDAC CALTEX SERVICE STATION                          2601CKR
F0101403290461026170002TRIPLE STAR STAFFING CENTER,INC                          2620CKR
F1401400110492031397001MGDJ CONSTRUCTION                                        2505CKO
