F01014007301110313820010RAL CONFIDENCE ORTHO-DENTAL                            12506CKO
F0101400730111031382001CLINIC                                                  22500CKO
F1801400130151048749001MSU-IIT NMPC TUBOD BR.                                   2602CKR
F0201400180181039605001ATELIER RESIDENCES CONDOMINIUM CORP                      2705CKC
F0301400240401030277088FIRST VITA PLUS MARKETING CORPORATION                    2610CKO
F1201400280671013086003JES                                                      2510CKO
F1201400280000000035032*****                                                   12505CKO
F1201400280000000035032*****                                                   22500CKO
F1301400210682028642001ROYALE PAINT CENTER & HARDWARE                           2606CKO
F1301400210682030278001DOVE TRADING                                             2606CKO
