F1801400130151048758001MSU-IIT NMPC PALA-O ILIGAN BR.                           2602CKR
F3101400160221029706003SAN JOSE HOSPITAL AND MEDICAL                           12602CKR
F3101400160221029706003CENTER, INC.                                            22600CKR
F2001400290315056070003SUMC FOUNDATION, INC.                                    2650CK1
F0101407300000000027789METRO ANTIPOLO HOSPITAL AND                             12602CKR
F0101407300000000027789MEDICAL CENTER                                          22600CKR
F0101403290461167621001FALLER, TERESITA                                         2506CKO
F1401400110492031397001MGDJ CONSTRUCTION                                        2502CKO
F4101400260000001198745VILLANUEVA, MARIA VILINDA ENDAY                          2502CKO
F0101406750852032744001COSCO INTEGRATED OFFICE SYSTEMS                         12605CKR
F0101406750852032744001INC.                                                    22600CKR
