F0101401120131007793002CENTRAL COLLEGES OF THE                                 12610CKR
F0101401120131007793002PHILIPPINES                                             22600CKR
F0201400180181042002001DURATECH HEAVY INDUSTRIES, INC.                          2601CKR
F3101400740000000013903INDORAMA VENTURES PACKAGING                             12604CKR
F3101400740000000013903(PHILIPPINES) CO                                        22600CKR
F3101400580452032175001NEP LOGISTICS, INC.                                      2605CKR
F0101403290000002667656R.C. CAUGMA & COMPANY                                    2601CK1
F0101404130601033659001EL GALLEON BEACH RESORT AND DIVE CAMP                   12603CKO
F0101404130601033659001INC.                                                    22600CKO
