F0101410270000005321259LMS ASIA CORP.                                           2601CK1
F0101413600000005524790SAKURA DIRECT SELLING                                   12602CK1
F0101413600000005524790CORPORATION                                             22600CK1
F0101405490000001935640ZC KINGS MANPOWER AND                                   12605CK1
F0101405490000001935640JANITORIAL SERVI                                        22600CK1
F0101406590662044061002ITEMHOUND CORPORATION                                    2601CKR
F1301400210682496862001ROSARIO C PEREZ   OR                                    12502CKO
F1301400210682496862001EDGARDO J PEREZ                                         22500CKO
