F0101400570281007178002ALFREDO'S STEAK HOUSE INC.                               2605CKR
F0101408400394031095003LIVINGWATER SYSTEM, INC.                                 2620CKO
F0101403580511005485009P.J. LHUILLIER, INC.                                     2602CKR
F0101407720602021008002WAYFAIR TOURS, INC.                                      2601CKR
F0101409890000000049136ENROE MARKETING CORPORATION                              2601CKR
