F0301400110191040022118BANANA TELECOMMUNICATIONS, INC.                          2602CKR
F0301400110191040022138BANANA TELECOMMUNICATIONS, INC.                          2603CKR
F0301400110191040022178BANANA TELECOMMUNICATIONS, INC.                          2602CKR
F3101400160221010538002ADVANCED MEDICAL SYSTEMS, INC.                           2620CKR
F0101406620273023895002RG-FINANCIAL SERVICES LIMITED                           12602CKR
F0101406620273023895002(PHILIPPINES) IN                                        22600CKR
F0101402510341196747002CENTRO ESCOLAR UNIVERSITY                                2650CKR
F0101402510341196747002CENTRO ESCOLAR UNIVERSITY                                2650CKR
F0101409050000007526367EMAPTA VERSATILE SERVICES INC.                           2602CK1
F0101409050000007526469MCN FREEDOM! TECH INC                                    2601CK1
F1401400110492020017002PEOPLE'S GENERAL INSURANCE                              12605CKO
F1401400110492020017002CORPORATION                                             22600CKO
F0101403450521063601017TANGLAW NG BUHAY FOUNDATION,                            12604CK1
F0101403450521063601017INC.                                                    22600CK1
F4101400260812497705001RANEL BAYBAY OR JANEATTE BAYBAY                          2505CKO
