F0101409050352031646004DELTA EARTHMOVING, INC.                                  2610CKR
F1801400130151048761001MSU-IIT NMPC KIWALAN BR.                                 2602CKR
F0101400570281036581001ALEGRE MEDICAL CLINIC                                    2610CKR
F0101408400394030136001ASP MANPOWER SERVICES                                    2610CKR
F0301400820409049152001LLANOS, ALFONSO DBU LLANOS                              12602CKR
F0301400820409049152001MEDICAL CLINIC &                                        22600CKR
F1201400150421017589003CJH HOTEL CORPORATION                                    2610CKR
F4101400260000000002222INVESTRENEUR MULTI-PURPOSE COOPERATIVE                   2603CKO
F4101400390813042421006LIBETH B. MENDOZA                                        2502CKO
