F0101407560686028809001INTERNATIONAL JOURNEYS, INC.                             2602CKR
F0101406620000000962443NIGHTHAWK GLOBAL BUSINESS PROCE                         12605CK1
F0101406620000000962443SERVICES, INC.                                          22600CK1
F2301400150301408683001ESTHER BUNAGAN                                           2610CKO
F0301400240004013500224MSU-IIT NMPC DAVAO-1 BR.                                 2601CKR
F0101408240711469172001MARIA ISABEL OR                                         12515CKO
F0101408240711469172001PHILIP MELLA                                            22500CKO
