F0101413600000002822722GPRS - UNIFIED PRODUCTS AND                             12602CK1
F0101413600000002822722SERVICES INC.                                           22600CK1
F0101401830141041657004PQ HEALTHSHIELD INC                                      2601CK1
F0101402060351009773002GRB ENTERPRISES                                          2605CKR
F0301400820409062963001LLANOS MEDICAL CLINIC                                   12602CK1
F0301400820409062963001AND HOSPITAL                                            22600CK1
F0101409760474039555001CASAS+ARCHITECTS                                         2602CKR
F0101409760474087120001CASAS + ARCHITECTS, INC.                                 2605CKR
F0101407720602052408002ACTIMED INC.                                             2603CKR
F0101405070861037201001FIESTA TOURS & TRAVEL CORP.                              2602CKR
