F0301400110191040022118BANANA TELECOMMUNICATIONS, INC.                          2602CKR
F0301400110191040022138BANANA TELECOMMUNICATIONS, INC.                          2603CKR
F0301400110191040022178BANANA TELECOMMUNICATIONS, INC.                          2601CKR
F0101402350321433270001MA. MAY SANDRINO DE JESUS                               12505CKO
F0101402350321433270001OR JOSE C. DE JESUS JR.                                 22500CKO
F0101409500000000217109ASPEN CONSTRUCTION &                                    12601CKR
F0101409500000000217109DEVELOPMENT CORP                                        22600CKR
F0101411790000003252593DRAKE PERSONNEL (PHILS.), INC.                           2605CK1
F0101411790000003252600ASC GLOBAL RECRUITMENT INC.                              2605CK1
F1301400210682042878002HABITAT TRADING                                          2601CKR
