F1201400150421031460002CJH SUITES CORPORATION                                   2603CKR
F0901400190431038091001PEASE CORPORATION                                        2601CKR
F3101400580000000015658GREENPHILS INC.                                          2605CKR
F0101403580000000214720TRENDS AND CONCEPTS TOTAL                               12610CK1
F0101403580000000214720INTERIOR SOLUTIO                                        22600CK1
F4101400260000001673401ALESTANTE, ALYER MENDOZA                                 2501CKO
