F0601400100081544392001CHOY, CHRISTOPHER KWOK                                   2502CKO
F0101408400394030029001KEVIN'S KUT BARBERS, INC.                                2603CKO
F0101409500000001160478G-DRIVE SOLUTIONS, INC.                                  2605CKR
F0101408240000003501431CONCIERGEMED CLINIC INC.                                 2601CK1
