F6601400120000008490342GELERA, OLIVER GERARD DBU                               12601CK1
F6601400120000008490342GELERA AUTO/CYCL                                        22600CK1
F6601400120314066663001RM MAGARA BUILDERS & SUPPLY INC                          2601CK1
F1801400130151048758001MSU-IIT NMPC PALA-O ILIGAN BR.                           2603CKR
F0201400180181042002001DURATECH HEAVY INDUSTRIES, INC.                          2601CKR
F0301400790000001211681GABUTERO, ROMMEL D OR                                   12601CKR
F0301400790000001211681GABUTERO, MICHEL                                        22600CKR
F0101406620000000962421ARMCO HEALTHCARE SERVICES INC.                           2601CK1
F0101400570281406972001JERRY Q. CHUA, M.D.                                      2502CKO
F0101405650000005382032OLYMPUS GLOBAL LOGISTICS INC.                            2601CK1
F0101409050352031646004DELTA EARTHMOVING, INC.                                  2610CKR
F0101402930381047622001ALLIED TELESIS LABS                                     12601CKR
F0101402930381047622001(PHILIPPINES) IN                                        22600CKR
F0101407720602294877009DR. REBECCA B. SINGSON                                   2602CKR
F0101404680651297826002YOLANDA LIM OR MELISSA CABIGON                          12605CKR
F0101404680651297826002OR SHIELLA LANGC                                        22600CKR
F0101411950000002691303BEYONDCONCEPTS INC.                                      2603CK1
F1701400230000002762605BGMMCM FAST FASHION, INC.                                2701CKC
F1701400230693065711002BGMMCM FAST FASHION, INC.                                2701CKC
F1701400230000008555211MACARAEG, BERNARDO DE GUZMAN DBU SO                      2701CKC
F4101400260812038727001METRO CAVITE HEALTH SYSTEM INC.                          2610CKR
F0101405070861424774001RICHARD NICOLAS M.D. OR MARIE                           12503CKO
F0101405070861424774001ELEANORE NICOLAS M.D.                                   22500CKO
