F0201400180181047201198HINGSING COMMERCIAL CORPORATION                          2702CKC
F0301400110191047580122MEGA DURIAN MOBILE GROUP, INC.                           2603CKR
F0101413600000002822722GPRS - UNIFIED PRODUCTS AND                             12601CK1
F0101413600000002822722SERVICES INC.                                           22600CK1
F0101413600000004661552INSTALINK TRADING CORPORATION                            2601CK1
F0101402930381667403002PRIVE PROPERTIES DEVELOPMENT                            12602CKR
F0101402930381667403002INC.                                                    22600CKR
F0101408240711023579001PARITAS TRADING CORPORATION                              2601CKO
