F6601400120314040469001ESD CRUZ CONSTRUCTION & SUPPLY                           2601CK1
F0201400180000000086913AGUILON JR., ROMEO CANETE DBU                           12505CKO
F0201400180000000086913A-BUILD CONSTRUC                                        22500CKO
F2401400180411057025001BRIA HOMES, INC.                                         2602CK1
F0101404260611033385001LAY BARE WAXING PHILIPPINES                             12603CKR
F0101404260611033385001INCORPORATED                                            22600CKR
F1301400210682418283001PONCIANO E VALENCIA JR OR                               12501CKO
F1301400210682418283001ARLENE C VALENCI                                        22500CKO
F2801400100712368453001SUNGA, NANCY R.              JT                          2515CKO
F0101406750852032744001COSCO INTEGRATED OFFICE SYSTEMS                         12605CKR
F0101406750852032744001INC.                                                    22600CKR
F0101406750852522761002OFFICE ESSENTIALS SYSTEMS                               12601CKR
F0101406750852522761002FURNITURES, INC.                                        22600CKR
