F3101400870225059739001PIMENTEL, S DBU GDNC GAS                                12602CK1
F3101400870225059739001STATION                                                 22600CK1
F0101407140213026129001ECE PHARMACEUTICALS, INC.                                2604CKR
F0101407140213028590001**********                                               2601CKO
F3101400740224664564002SE YOUNG PRECISION CORP.                                 2603CKR
F1301400470252522471001NELSON V. LARGO OR                                      12502CKO
F1301400470252522471001RUVELYN S. LARGO                                        22500CKO
F0101408400394031095003LIVINGWATER SYSTEM, INC.                                 2610CKO
F3101400580452033424001SANDPIPERS TECHNOLOGIES                                 12601CKO
F3101400580452033424001CORPORATION                                             22600CKO
F0101409500473065836001TECHNOPAQ, INC.                                          2601CK1
F4101400390000006103673OBIC OMITLU HOLDINGS, INC.                               2605CK1
F4101400390000006103680OBIC APIL, INC.                                          2605CK1
