F4101400420814012768007UNIDA CHRISTIAN COLLEGES, INC.                           2602CKR
F1801400130000000028679COOPERATIVE UNION OF ILIGAN CIT                          2601CKR
F0201400180181053267001NEW GOODLY MERCANTILE, INC.                              2702CKC
F0301400110191040022118BANANA TELECOMMUNICATIONS, INC.                          2601CKR
F0301400110191040022138BANANA TELECOMMUNICATIONS, INC.                          2603CKR
F0301400110191040022178BANANA TELECOMMUNICATIONS, INC.                          2602CKR
