F0101400150000006432500I-GATEWAY MOBILE PHILIPPINES, I                          2601CK1
F0601400100081599944001HEINEN, GERARD WILLEM OR                                12502CKO
F0601400100081599944001GERARD JR.                                              22500CKO
F0401400270000000100567PILIPINAS MULTI-PURPOSE                                 12610CKR
F0401400270000000100567COOPERATIVE                                             22600CKR
F1901400290261049616001DRA MA. JESSIE IGLE VILLANUEVA                           2502CKO
F0101402480331374859001***********                                              2501CKO
F3101400580452038750001DESCO, INC.                                              2601CKR
F0101405100571036688001ALL COUNTS TRANSPORT SERVICES                           12602CKR
F0101405100571036688001CORPORATION                                             22600CKR
