F4101400420814016644004EMI EMPLOYEES DEVELOPMENT                               12605CKR
F4101400420814016644004COOPERATIVE                                             22600CKR
F4101400420814573133002MAGNETICA ELECTRONICS, INC.                              2602CKO
F0101406750852466130001WILMA P GAMIAO OR                                       12502CKO
F0101406750852466130001CONSTANCIA G DIMAGIBA                                   22500CKO
F1801400130151048749001MSU-IIT NMPC TUBOD BR.                                   2601CKR
F0201400180181420248002ADNAMA MINING RESOURCES, INC.                            2601CK1
F0301400790000001211681GABUTERO, ROMMEL D OR                                   12601CKR
F0301400790000001211681GABUTERO, MICHEL                                        22600CKR
F0101402060000000653907LAY BARE SUPPLIES DISTRIBUTION                           2603CK1
F0101409180397045175001NUFFNANG PHILIPPINES INC.                                2605CKR
F0101404680651297826002LIM,YOLANDA OR CABIGON, MELISSA                         12605CKR
F0101404680651297826002OR LANGCAY, SHIE                                        22600CKR
F1301400340683012920002MEYCAUAYAN COLLEGE INC.                                  2605CKR
