F2301400280304415134002RAZON, LETICIA ENRIQUEZ                                  2501CKO
F0101400570281042885001COCO DAVAO, INC.                                         2603CKR
F0101408240711381753001ALCOBER, MELINDA OR ALCOBER,                            12503CKO
F0101408240711381753001RUBEN OR LEJANO, REGINA                                 22500CKO
F4101400260812036108001N.G. ALVAREZ CONSTRUCTION &                             12602CKR
F4101400260812036108001MAINTENANCE CORP                                        22600CKR
F4101400260812546031001EDNA R. ALVAREZ                                          2502CKO
F0601400230000006045358ST. JOSEPH HOSPITAL OF REMEDIOS                          2605CK1
F0101417710000003747580ASIAPACIFIC PRIME STAFF OPTIONS                          2602CK1
