F0101401120000003190229GRET MARKETING                                           2601CK1
F0101405780212025807002PITSTOP MOTORS (PSM) INC.                                2605CKR
F1901400290261490775001LYNAR REALTY & DEVELOPMENT CORP                          2602CK1
F1901400290261596843001YAFFE CHEN SALON INC.                                    2510CKO
F0201400890376046394001GREENWORLD LED SOLUTIONS, INC.                           2603CKR
F0101407300000000027789METRO ANTIPOLO HOSPITAL AND                             12606CKR
F0101407300000000027789MEDICAL CENTER                                          22600CKR
