F0101406620273019596002TGV BUILDERS, INC.                                       2603CKR
F0101406620273027395002BRANDGATEWAY, INC.                                       2605CKR
F0101408820333031898002PROMETHIUM TRUCKING SERVICES CO                          2610CKR
F0101408400394040949001INFORMATION TECHNOLOGY SERVICES                         12604CKR
F0101408400394040949001MGMT CORP.                                              22600CKR
F0101408110515062411001XORAND SOLUTIONS COMPUTER                               12604CKR
F0101408110515062411001CORPORATION                                             22600CKR
F0101404130601033659001EL GALLEON BEACH RESORT AND DIVE CAMP                   12604CKO
F0101404130601033659001INC.                                                    22600CKO
F0101404130601614586002UNICHAMP MINERAL PHILIPPINES                            12602CKR
F0101404130601614586002INC.                                                    22600CKR
F0101408240711023579001PARITAS TRADING CORPORATION                              2601CKO
F4101400550000006044133BINAKAYAN HOSPITAL AND MEDICAL                          12603CK1
F4101400550000006044133CENTER, INC.                                            22600CK1
