F0201400180000000086913AGUILON JR., ROMEO CANETE DBU                           12605CKO
F0201400180000000086913A-BUILD CONSTRUC                                        22600CKO
F0101405780212025807002PITSTOP MOTORS (PSM) INC.                                2605CKR
F0101402060351018863002FIRST PHIL. SKILLS & EQUIPMENT                          12605CKR
F0101402060351018863002TESTING CORP.                                           22600CKR
F0101414410000001346327TRANSCOM WORLDWIDE                                      12615CK1
F0101414410000001346327(PHILIPPINES) IN                                        22600CK1
F0101408240711381753001ALCOBER, MELINDA OR ALCOBER,                            12502CKO
F0101408240711381753001RUBEN OR LEJANO, REGINA                                 22500CKO
F4101400260812389694001MELCHOR RODEROS OR                                      12501CKO
F4101400260812389694001OLIVIA RODEROS                                          22500CKO
F4101400260000000469330DEPANO, ABEL GONZALES                                    2502CKO
