F0601400360083043610001AMERICAN PLAQUE FACTORY INC.                             2604CKR
F0201400180181057007001R.P. MORA & CO.                                          2601CK1
F3101400740224664564002SE YOUNG PRECISION CORP.                                 2603CKR
F0401400270000000100590PILIPINAS MULTI-PURPOSE                                 12605CKR
F0401400270000000100590COOPERATIVE                                             22600CKR
F0101408370382037135002THE MEDICAL CITY - COMSSA                                2601CKR
F0801400290591395533002xxxxxxxxxxxxxxxxxxxxxxxxxxxxx                            2505CKO
F0101404680651327110001NO NAME                                                  2520CKO
