F0601400360000000978925RONDAYVU MANUFACTURING                                  12610CK1
F0601400360000000978925CORPORATION                                             22600CK1
F0101410850000000005621TURNSAT INTERNATIONAL LOGISTICS                         12602CKR
F0101410850000000005621CORP.                                                   22600CKR
