F0201400180181054203001ALVAREZ AND BORROMEO DEV'T                              12620CK1
F0201400180181054203001CORPORATION (ABD                                        22600CK1
F0101400570281522825001JOSE B. MORAN                                            2503CKO
F0201400760374050546001MANASTEEL CONSTRUCTION MANAGEME                         12504CKO
F0201400760374050546001CONSULTANTS                                             22500CKO
F0101408370382209650001DRS. JULIETA P. ARAMBULO OR                             12510CKO
F0101408370382209650001MIGUEL R. ARAMBULO                                      22500CKO
F0101412760000002068106NUVOPIAZZA  VENTURES INC.                                2601CK1
F0101407430503006761002QUICKFLO FORWARDERS, INC.                                2605CKR
F0101407720602018196004BELO MEDICAL GROUP, INC.                                 2605CKR
F0101407720602531639009INTELLIGENT BEAUTY SKIN                                 12610CKR
F0101407720602531639009SOLUTIONS INC.                                          22600CKR
F0101407690652386436003TIA, KEN YEN                                             2510CKO
