F0101408240711349444001ELENITA A. RAYMUNDO                                      2501CKO
F0601400100000005690393J.C DAVID & ASSOCIATES, INC.                             2602CK1
F1301400470252430385001LEONARDO TING OR ANTONIA TING                            2502CKO
F0201401150378042514008SOUTHERNPHIL DEVELOPMENT AND                            12602CKR
F0201401150378042514008MARKETING CORP.                                         22600CKR
F0101410690000000001850COLOR1DIGITAL, INC.                                      2603CKR
F0101407690000007720158BLISTERS AND BLISTERS, INC.                              2601CK1
F4101400260000000048968PALIPARAN KING CONSTRUCTION SUPPLY                       2602CKO
