F0401400270000004611750RAMY ROJAS JALANDO-ON JT                                12601CK1
F0401400270000004611750DBU FAIH TAXI                                           22600CK1
F1201400150421017589003CJH HOTEL CORPORATION                                    2602CKR
F0801400290591014054002MILAGROSA-J SHIPPING CORP.                               2610CKR
F4101400260812022293005JOMIJOH'S BAKESHOP INC.                                  2601CK1
F4101400260812033409001NEW DASMA GOLD BAKE INC.                                 2601CKO
F4101400260812033409002NEW DASMA GOLD BAKE INC.                                 2601CKO
F4101400390813476613001LAKEPOWER CONVERTER, INC.                                2602CKR
