F0101414090000002244691QUICKMATCH HR SOLUTIONS INC.                             2601CK1
F0101401830141045983001FASTBUILT CONSTRUCTION, INC.                             2610CKO
F0301400790000001211681GABUTERO, ROMMEL D OR                                   12601CKR
F0301400790000001211681GABUTERO, MICHEL                                        22600CKR
F0801400160311368868001CAROLINE Y. TIU OR EDGAR C. TIU                          2504CKO
F0101405650322171692003ALEJANDRO, CATHERINE A.                                  2505CKO
F4101400420814573133002MAGNETICA ELECTRONICS, INC.                              2602CKO
F4101400550815044429001CAMELLA HARDWARE & CONSTRUCTION SUPPLY                   2602CKO
