F0101406590000000905613LA VISTA ASSOCIATION, INC.                               2601CKR
F0101406620273019596002TGV BUILDERS, INC.                                       2603CKR
F0101408400394032365001AC TECHNICAL SERVICES, INC.                              2603CKO
F1401400110492031397001MGDJ CONSTRUCTION                                        2505CKO
F0101403450521063601017TANGLAW NG BUHAY FOUNDATION,                            12602CK1
F0101403450521063601017INC.                                                    22600CK1
