F0101400440161037389002GREAT WAY HARDWARE                                       2602CKR
F0101403290000002667656R.C. CAUGMA & COMPANY                                    2602CK1
F0101407720602020882004UNIVERSAL STAFFING SERVICES,                            12601CKR
F0101407720602020882004INC.                                                    22600CKR
F0101407720602405340002QUIAMBAO, MONICA SISON                                   2502CKO
