F4101400130811028357002978 ELECTRICAL SUPPLY & GENERAL                         12604CKO
F4101400130811028357002MERCHANDISE                                             22600CKO
F3101400580452024497002MADOCS FAST FOOD SERVICE                                 2606CKO
F0101411790000003252593DRAKE PERSONNEL (PHILS.), INC.                           2601CK1
F0101407720602405340002QUIAMBAO, MONICA SISON                                   2502CKO
