F0401400270242031190002ISLAND MERCHANTS CORPORATION                             2605CKR
F0101400570281042880001CATARMAN OIL MILLS, INC.                                 2602CKR
F0101400570281042882001NEW DAVAO OIL MILL INC.                                  2602CKR
F0101402640361006184002FRANCISCO SCHOOL INC.                                    2603CKR
F0201400890000005491330GREENWORLD LED SOLUTIONS, INC.                           2601CK1
F0101406880513029228001PMPI CREATIVE SUITES                                     2602CKO
