F0101413600000004661552INSTALINK TRADING CORPORATION                            2602CK1
F0301400240401030277088FIRST VITA PLUS MARKETING CORPORATION                    2610CKO
F0101403450521063601005TANGLAW NG BUHAY FOUNDATION,                            12604CK1
F0101403450521063601005INC.                                                    22600CK1
F0101403450521063601006TANGLAW NG BUHAY FOUNDATION,                            12604CK1
F0101403450521063601006INC.                                                    22600CK1
F0101403450521063601007TANGLAW NG BUHAY FOUNDATION,                            12607CK1
F0101403450521063601007INC.                                                    22600CK1
F0101404260611033385001LAY BARE WAXING PHILIPPINES                             12605CKR
F0101404260611033385001INCORPORATED                                            22600CKR
F1301400210682042878001HABITAT TRADING                                          2601CKR
F1301400210682042878002HABITAT TRADING                                          2601CKR
