F0201400180181041364008CENTRAL VISAYAS TRUCKING SVC. INC.                       2701CKC
F01014130200000000567844TH WALL PRODUCTION DESIGN                              12602CKR
F0101413020000000056784STATION                                                 22600CKR
F0101409050352023144001EC & M CORPORATION                                       2601CKR
