F01014007301110313820010RAL CONFIDENCE ORTHO-DENTAL                            12505CKO
F0101400730111031382001CLINIC                                                  22500CKO
F1801400130151048770001MSU-IIT NMPC BURU-UN ILIGAN BR.                          2602CKR
F1801400130151048771001MSU-IIT NMPC POBLACION-ILIGAN B                          2601CKR
F0201400180181064247001TAKING YOU FORWARD, INC.                                 2605CK1
F3101400320222039285001AGUILAR, CECILLE YAP                                     2501CKO
F3101400320222355866001ELPIDIO A. SARMIENTO OR                                 12505CKO
F3101400320222355866001EUGENIA S. SARMIENTO                                    22500CKO
F0101400570000000749491SILANGAN FOUNDATION FOR ART, CU                         12505CKO
F0101400570000000749491AND ECOLOGY INC                                         22500CKO
F0101408530516035432001ROGUE MEDIA, INC.                                        2610CKO
F0801400290000000011490THE SUITES AT CALLE NUEVA, INC.                          2601CKR
