F0401400270000002711144GREENEVOLUTION INCORPORATED                              2602CK1
F0101403580511024261003A.R.M. RESOURCES, INC.                                   2620CKR
F0101404130601614586002UNICHAMP MINERAL PHILIPPINES                            12604CKR
F0101404130601614586002INC.                                                    22600CKR
