F0101400570281042886001PRIMEX COCO PRODUCTS, INC.                               2603CKR
F0101407720602021008002WAYFAIR TOURS, INC.                                      2601CKR
F1201400280671768440001BATANES, BONNER S. OR BATANES, BENTER S.                12610CKO
F12014002806717684400016715500142                                              22600CKO
F0101408240711029699001POWER AD & PROMO VENTURE, INC.                           2601CKO
F4101400260812039607027PAULINE PUGAY                                            2502CKO
F4101400550000006044133BINAKAYAN HOSPITAL AND MEDICAL                          12602CK1
F4101400550000006044133CENTER, INC.                                            22600CK1
