F6601400120314040469001ESD CRUZ CONSTRUCTION & SUPPLY                           2602CK1
F0101408370382205190001DR. ARTEMIO A. ROXAS JR.                                 2505CKO
F0101415190000001745699TASKUS, INC.                                             2605CK1
F0101407720602405340002QUIAMBAO, MONICA SISON                                   2502CKO
