F0101400570281441951009HERNANDO L. CRUZ JR.                                     2505CKO
F0101400570281506824001VALERA, ENRICO CASTRO                                    2502CKO
F0101405650322043051001CARLOS TRINIDAD GRAPHICS DESIGN STUDIO                   2601CKO
F0101402510341531580001ROMERO JR., ALEJANDRO TOMZER                             2501CKO
F3201400190000001493090ALDANA, ALAIN DBU NORTHERN TINSMITH                      2602CKO
F4101400260000001673423POTESTADES, MARY GRACE LAJO                              2504CKO
F4101400260812444904003HERNANDEZ, ALLAN SANTOS OR                              12505CKO
F4101400260812444904003HERNANDEZ, JEAN SICO                                    22500CKO
