F0101409890649047374001FRIGID ZONE AUTO AIRCON                                 12603CKR
F0101409890649047374001SPECIALIST CO.                                          22600CKR
F0601400360000003186872ORIGO BPO (PHILS.) LIMITED, INC                          2602CK1
F0401400270242449588006SUKLIN PENA OR BONIFACIO PENA                            2610CKR
F0101403580511018993001DANADA PHILIPPINES, INC.                                 2602CKO
F0101407690652032988001FINE NEEDLE APPAREL                                      2505CKO
