F1801400130151048761001MSU-IIT NMPC KIWALAN BR.                                 2602CKR
F0601400100081685142001POON, WAISILY LOZANO                                     2502CKO
F0101412470000003847529LIVAN TRADE CORPORATION                                  2603CK1
F0701400130493038878002JODANS AIRE MARKETING                                    2604CKO
