F0201400180000000086913AGUILON JR., ROMEO CANETE DBU                           12505CKO
F0201400180000000086913A-BUILD CONSTRUC                                        22500CKO
F0301400110191452532008*******                                                  2502CKO
F4101400260812022293004JOMIJOH'S BAKESHOP INC.                                  2601CKO
F4101400260812033409001NEW DASMA GOLD BAKE INC.                                 2601CKO
