F0601400100000005690393J.C DAVID & ASSOCIATES, INC.                             2601CK1
F3301400120581552659002**********                                               2603CKR
F0101406880513030873001RT LAWRENCE CORPORATION - PHILIPPINES                    2610CKO
F3201400190000001492935SY, MIMI ENA LUCIA PIRA OR                              12501CKO
F3201400190000001492935FERNANDO L. SY J                                        22500CKO
F0101408240711078794001ALCANTARA, LELANIE VERONICA                             12510CKO
F0101408240711078794001FACTOR JT                                               22500CKO
F4101400260812028669001LIVELIHOOD AND ENTERPRISE                               12602CKR
F4101400260812028669001DEVELOPMENT CENT                                        22600CKR
