F0601400100081041580001E.D.Q. HARDWARE                                          2603CKO
F0101412210000007251738AGTECH LABS INC.                                         2602CK1
F1201400150421252666004MENESES, ANGELITA DE GUZMAN OR                          12601CKR
F1201400150421252666004MENESES, RYAN DE                                        22600CKR
F0101403580511024261003A.R.M. RESOURCES, INC.                                   2620CKR
F0101403580511034358001A.R.M. SERVICES COOPERATIVE                              2610CKR
F0101403580511378857001ARM WAREHOUSE MANAGEMENT &                              12610CKR
F0101403580511378857001CONSULTANCY SERV                                        22600CKR
F0101407690652034386001THE COLUMBIA GARDEN RESIDENTS                           12601CKR
F0101407690652034386001ASSOCIATION, INC                                        22600CKR
