F1901400290261282086001DRA. CECILIA MARIE                                      12502CKO
F1901400290261282086001ATIENZA RAMOS                                           22500CKO
F0601400100000002099083CAPAS FOOD HAVEN CORPORATION                             2602CK1
F0201400180181442858001LUYM, JOHN LIM OR                                       12502CKO
F0201400180181442858001LUYM, EVELYN SHI                                        22500CKO
F0401400270242626087002TOYTRUCKS INCORPORATED                                   2601CK1
F0101408400394034368007W HYDROCOLLOIDS, INC.                                    2604CKR
F0101404000551018247002SOLUTIONS EXCHANGE, INC.                                 2603CKR
F4101400260812022293003JOMIJOH'S BAKESHOP INC.                                  2601CKO
F4101400260812022293004JOMIJOH'S BAKESHOP INC.                                  2601CKO
F4101400550000006044133BINAKAYAN HOSPITAL AND MEDICAL                          12610CK1
F4101400550000006044133CENTER, INC.                                            22600CK1
