F0101406590662410879001MOJARES-SYTINGCO, RESURRECION                           12505CKO
F0101406590662410879001OR SYTINGCO, ALDRICH                                    22500CKO
F1301400470252428039003REYNALDO OR LUZVIMINDA PINE                              2505CKO
F1901400290261039254001DR. VINCENT ANDREW MARAJAS                              12501CKO
F1901400290261039254001QUINTO                                                  22500CKO
F6601400120000005195940YELLOW TECHNOZONE                                        2601CK1
F2001400290315070707001RAMAS-UYPITCHING, NIKKI JUSTO                            2505CKO
F0201400760374050546001MANASTEEL CONSTRUCTION MANAGEMENT &                     12604CKO
F0201400760374050546001CONSULTANTS                                             22600CKO
F0101408110515029643001101 BEAT RECORDING STUDIO CO.                            2602CKO
