F0201400180181080425001MR INTERNATIONAL CONTAINER YARD INC                      2701CKC
F3101400320222039222001DAPROZA, IRIS JANUARY LAO                                2503CKO
F0101408400394034368007W HYDROCOLLOIDS, INC.                                    2604CKR
F0101406330472042088001PRIME MKTG. & DIST., INC.                                2701CKC
F1401400110492020017002PEOPLE'S GENERAL INSURANCE                              12605CKO
F1401400110492020017002CORPORATION                                             22600CKO
F0101407430503029122001CUSTOMSTRADE ADVOCATES CO.                               2601CKR
F1201400280000000035032*****                                                   12505CKO
F1201400280000000035032*****                                                   22500CKO
F4101400260812033409001NEW DASMA GOLD BAKE INC.                                 2601CKO
