F0601400360000003186792SAMBON P&E PHILS. CORP.                                  2601CK1
F0101401830141041657004PQ HEALTHSHIELD INC                                      2606CK1
F0101401830141041657005PQ HEALTHSHIELD INC                                      2602CK1
F0401400270242031115001ATC LENDING CORPORATION                                  2601CKR
F0101400570281535953001FRANCISCO P. DALANGIN OR                                12503CKO
F0101400570281535953001MELODY G. DALANGIN                                      22500CKO
F1201400150421031460002CJH SUITES CORPORATION                                   2605CKR
F0101408530516504417001ZOBEL, INIGO URQUIJO                                     2620CKO
F0101409890649047374001FRIGID ZONE AUTO AIRCON                                 12603CKR
F0101409890649047374001SPECIALIST CO.                                          22600CKR
