F0101410850109047682001SL HARBOR BULK TERMINAL CORP.                            2605CKR
F0201400180181043026001MAXTECH ELECTRONICS CENTER                               2701CKC
F0401400270000001912341SYNCHROTEK CORPORATION                                   2603CKR
F0401400270242449588006SUKLIN PENA OR BONIFACIO PENA                            2601CKR
F0101409050352031646004DELTA EARTHMOVING, INC.                                  2610CKR
F0101406880513030873001RT LAWRENCE CORPORATION - PHILIPPINES                    2610CKO
F0101406880513421433001CELONES, FRANCIS NICOLAS                                 2506CKO
F2201400250561029074001MAGANDANG KAPALARAN PRIMARY                             12610CKR
F2201400250561029074001MULTI PURPOSE CO                                        22600CKR
F1201400280671768440001BATANES, BONNER S. OR BATANES, BENTER S.                12610CKO
F12014002806717684400016715500142                                              22600CKO
F4101400260812024491001FUJISASH PHILIPPINES, INC.                               2603CKR
