F0101401090171195635002ELVIRA OR MARIO OR ABIGAIL MILO                          2505CKO
F0101409500000001160478G-DRIVE SOLUTIONS, INC.                                  2605CKR
F0101406880513026861001BONIFACIO WEST DEVELOPMENT CORPORATION                   2602CKO
