F0301400790195065500001JABEZ LA PRIMERA POWER FIVE                             12601CK1
F0301400790195065500001CORP.                                                   22600CK1
F3101400320222065555001J RASAY IMPORTS TRADING CORP                             2601CK1
F3101400450223028412001CERDA MATERNITY CLINIC                                   2502CKO
F0101400570281472968001ESGUERRA, ENRIQUE HILARIO ORLIN                          2501CKO
F0101405650322043051001CARLOS TRINIDAD GRAPHICS DESIGN STUDIO                   2601CKO
F0101402480000005302345GRAND TAIPAN LAND DEVELOPMENT I                          2601CK1
F0201400760374032867003J.I. PRINTERS, INC.                                      2601CKR
F0301400240401022834003DAVAO ORCHARD ROAD, INC                                  2610CKR
F0301400240401025953008ECE MARKETING                                            2601CKR
F0101404680651454676001GLORIA C. PANGAN OR                                     12501CKO
F0101404680651454676001JESUS M. PANGAN                                         22500CKO
F0101405070861020884003FORMTECH BUILDERS CORPORATION                            2703CKC
