F3101400740000000013903INDORAMA VENTURES PACKAGING                             12601CKR
F3101400740000000013903(PHILIPPINES) CO                                        22600CKR
F0401400270000000100567PILIPINAS MULTI-PURPOSE                                 12610CKR
F0401400270000000100567COOPERATIVE                                             22600CKR
F1901400290261282086001DRA. CECILIA MARIE                                      12502CKO
F1901400290261282086001ATIENZA RAMOS                                           22500CKO
F0101402770391551302002CELSO DEL FIERRO MADARANG                                2501CKO
F0301400820409051644001DIWACO                                                   2601CKR
F0301400820409051644002DIWACO                                                   2601CKR
F0101408240711381753001ALCOBER, MELINDA OR ALCOBER,                            12503CKO
F0101408240711381753001RUBEN OR LEJANO, REGINA                                 22500CKO
F4101400260812026423003DO1 GMA INTERNATIONAL CORP.                              2602CKO
