F0401400270242031190002ISLAND MERCHANTS CORPORATION                             2605CKR
F0401400270000000100567PILIPINAS MULTI-PURPOSE                                 12610CKR
F0401400270000000100567COOPERATIVE                                             22600CKR
F0801400160311368868001CAROLINE Y. TIU OR EDGAR C. TIU                          2504CKO
F0101408400394163404003PILI, JUANITO/LAZARO, ARRHENIUS                         12605CKR
F0101408400394163404003/LAZARO,JENNIFER                                        22600CKR
F1201400150421059386001GARSONS DEVELOPMENT CORPORATION                          2601CK1
F3101400580452459908001POWERTECH MULTISERVICES CORP.                            2610CKR
F0101403290461029738001EZRA GENERAL SERVICES INC.                               2605CKR
F0101409500000000217109ASPEN CONSTRUCTION &                                    12610CKR
F0101409500000000217109DEVELOPMENT CORP                                        22600CKR
F0101403580511023910001P.J. LHUILLIER DEVELOPMENT                              12601CKR
F0101403580511023910001CORPORATION                                             22600CKR
F0101403580511023913001PJL CORPORATE CENTRE, INC.                               2601CKR
