F1801400130151048749001MSU-IIT NMPC TUBOD BR.                                   2602CKR
F0401400270242449588006SUKLIN PENA OR BONIFACIO PENA                            2605CKR
F0101401670000008000831JACKPHARMA INC.                                          2601CK1
F0101405650322416908001AGUIRRE, ARISTOTLE LIM                                   2501CKO
F0101402480000005302481EGENERATION AGRI CORP                                    2601CK1
F0101402930381017038002BATARASA CONSOLIDATED, INC.                              2608CKR
F0101403320471046476001ZHOEBLESS CORP.                                          2601CKR
F0101405940512030823008AVID SALES CORPORATION                                   2610CKR
F0101404130601025271002LIBERTAD TOURIST DEVELOPMENT                            12601CKR
F0101404130601025271002INC.                                                    22600CKR
F0101404130601033659001EL GALLEON BEACH RESORT AND DIVE CAMP                   12604CKO
F0101404130601033659001INC.                                                    22600CKO
