F0101407300395370361001CHUA, MA. CRISTINA AGANON                                2505CKO
F0201400180181059949001ROZ LABORATORIES, INC.                                   2601CK1
F0101403580000000214713OFFICE ESSENTIALS SYSTEMS                               12605CK1
F0101403580000000214713FURNITURES INC.                                         22600CK1
F0101406880513029228001PMPI CREATIVE SUITES                                     2602CKO
F0101404840851027809001INFORMATICS COLLEGE NORTHGATE,                          12605CKR
F0101404840851027809001INC.                                                    22600CKR
F0101405070861020884003FORMTECH BUILDERS CORPORATION                            2705CKC
