F0601400100081545308001CRUZ, RUPERTO LIWAG                                      2504CKO
F0601400100081599944001HEINEN, GERARD WILLEM OR                                12502CKO
F0601400100081599944001GERARD JR.                                              22500CKO
F0101407980000003012293THUNDER AUTOMOTIVE PARTS, INC.                           2601CK1
F0301400110191029587008DAVAO EVERFLEX ELECTRICALS &                            12605CKR
F0301400110191029587008GLASSWARE                                               22600CKR
F0101406620273019596002TGV BUILDERS, INC.                                       2603CKR
F0101407430503029122001CUSTOMSTRADE ADVOCATES CO.                               2601CKR
