F0101400150061043015001RCHITECTS INC.                                           2602CKR
F0101401380201034846001WAVERLY TRADING                                          2510CKO
F0401400270242030869002LA CARLOTA PLANTERS ASSN., INC.                          2605CKR
F0101402060000000653907LAY BARE SUPPLIES DISTRIBUTION                           2603CK1
F0101404260611027114001ABS PROMOTIONS CORPORATION                               2610CKR
