F0101409210000004818884LUXASIA, INC.                                            2601CK1
F0101400150061043015001RCHITECTS INC.                                           2602CKR
F0101408370382205190001DR. ARTEMIO A. ROXAS JR.                                 2506CKO
F0101408370382205353001EUSEBIO L. DEBUQUE, M.D.                                 2510CKO
F0101407720602022598002MG MADRID & COMPANY                                      2602CKR
F1201400280671768440001BATANES, BONNER S. OR BATANES, BENTER S.                12610CKO
F12014002806717684400016715500142                                              22600CKO
