F01014130200000000567844TH WALL PRODUCTION DESIGN                              12602CKR
F0101413020000000056784STATION                                                 22600CKR
F0101409890649047073001SOLID-ONE MILLS PHILIPPINES,INC                          2602CKR
F0101401830141350743002CORAZON E. TEODORO                                       2504CKO
F0101403290000002667656R.C. CAUGMA & COMPANY                                    2602CK1
F1901400160491433820001MARICEL A ALCANTARA OR                                  12501CKO
F1901400160491433820001JOEY L ALCANTARA                                        22500CKO
F0101405940512030823008AVID SALES CORPORATION                                   2610CKR
