F0301400790000001211681GABUTERO, ROMMEL D OR                                   12601CKR
F0301400790000001211681GABUTERO, MICHEL                                        22600CKR
F1901400290261039375001DR. TEO BOSCO UY GONZALES                                2501CKO
F1901400290261039411001EDWIN MERCADO OR ALBERT CESAR FALLER JR                 12605CKO
F1901400290261039411001OR LARRY MONTANO                                        22600CKO
F0101406620273031145004KOHL INDUSTRIES CORPORATION                              2603CK1
F0101406620273037433001QUADCORE CONSTRUCTION &                                 12610CKR
F0101406620273037433001DEVELOPMENT CORP                                        22600CKR
F0101405490392036290002THE MASTER'S ACADEMY FOUNDATION                         12601CKR
F0101405490392036290002INC.                                                    22600CKR
