F0101400150061011039002RIO TUBA NICKEL MINING CORP.                             2610CKR
F0101401670271029054002HEALTHWEALTH INTERNATIONAL CORP.                         2610CKO
F0101406620273037433001QUADCORE CONSTRUCTION &                                 12610CKR
F0101406620273037433001DEVELOPMENT CORP                                        22600CKR
F0101400570281042886001PRIMEX COCO PRODUCTS, INC.                               2603CKR
F0101408400394040949001INFORMATION TECHNOLOGY SERVICES                         12605CKR
F0101408400394040949001MGMT CORP.                                              22600CKR
F0101408400394433243001PEREZ, ANITA SARANDI                                     2505CKO
F0101407300000000027789METRO ANTIPOLO HOSPITAL AND                             12602CKR
F0101407300000000027789MEDICAL CENTER                                          22600CKR
F0101406330472433642001RENATO O. CHIU                                           2501CKO
F0101404680651297826002LIM,YOLANDA OR CABIGON, MELISSA                         12605CKR
F0101404680651297826002OR LANGCAY, SHIE                                        22600CKR
