F0201400180181037108002SAN REMIGIO TRUCKING                                    12605CKR
F0201400180181037108002SERVICES, INC.                                          22600CKR
F0201400180181409254001SING, SUSANA YU                                         12505CKO
F0201400180181409254001OR ARTURO SING                                          22500CKO
F3101400160221029706003SAN JOSE HOSPITAL AND MEDICAL                           12602CKR
F3101400160221029706003CENTER, INC.                                            22600CKR
F0401400270242039448002BACOLOD ASTAR TRANSPORT INC                              2602CK1
F1901400290261035027001GREEN NATURE FEEDMILLING CORPORATION                     2603CKO
F1901400290261039017001FARM TECH ANIMAL HEALTH CO.                              2601CKR
F0201400760374032867003J.I. PRINTERS, INC.                                      2602CKR
F0101409500000000217109ASPEN CONSTRUCTION &                                    12610CKR
F0101409500000000217109DEVELOPMENT CORP                                        22600CKR
F0101408110515024895001CREATION STATION, INC.                                   2605CKR
F0101404260611027114001ABS PROMOTIONS CORPORATION                               2616CKR
F0101408240711373583002BAILON, PATRICIA OR                                     12502CKO
F0101408240711373583002CAROLINA PATRICIA BAILON                                22500CKO
