F3101400450223024477001CARE LINE ENTERPRISES                                    2601CKR
F3101400320222039279001PANGANIBAN, ARMINE THERESA                              12504CKO
F3101400320222039279001SENEN                                                   22500CKO
F0401400270242030826003SUMI ASTRO CORPORATION                                   2605CKR
F0401400270242449588006SUKLIN PENA OR BONIFACIO PENA                            2605CKR
F6601400120000005195962MARTINEZ, ANGELINE ORTIZ DBU                            12605CK1
F6601400120000005195962NEW CAMILLE GROC                                        22600CK1
F2401400180411057025001BRIA HOMES, INC.                                         2603CK1
