F0601400360083043789001UET INTERNATIONAL CORP.                                  2603CKR
F0201400180181000757001RNG COASTAL BANK, INC. (A RURAL BANK)                    2701CKC
F0101415190000001745702LIZARDBEAR TASKING INC.                                  2605CK1
F2401400180411057025001BRIA HOMES, INC.                                         2603CK1
F0501400170481445956001FRICK, ANNALEE N. OR                                    12502CKO
F0501400170481445956001ONG JR., JUANITO                                        22500CKO
F0101404000551022435003ARANETA & FAUSTINO LAW OFFICES                           2601CKR
