F0601400100081028022001NEW VISUAL SECURITY SERVICES                             2510CKO
F3101400450223342877002RILI, ERWIN DALE OR FLORIDA                              2515CKO
F0101408400394028797002BELRO ENTERPRISE                                         2605CKO
F4101400260000001198778VILLANUEVA JR., FRANCISCO V.                             2502CKO
