F0301400110191047580168MEGA DURIAN MOBILE GROUP, INC.                           2603CKR
F0101403320471404539001*****                                                    2503CKO
F0701400130493038878002JODANS AIRE MARKETING                                    2603CKO
F4101400260812793776001FIRST PHIL-PACIFIC CASING INC.                           2602CKO
F4101400550000006044133BINAKAYAN HOSPITAL AND MEDICAL                          12602CK1
F4101400550000006044133CENTER, INC.                                            22600CK1
