F0101400310211029980001ACTIVESIGNS INTERNATIONAL CORP.                          2605CKR
F0101401830141476111001EDUARDO GOMER S. GONZALES                                2510CKO
F0301400790195054735001BROTHER BRYAN'S FOOD                                    12605CK1
F0301400790195054735001CORPORATION                                             22600CK1
F0301400790195054735002BROTHER BRYAN'S FOOD                                    12602CK1
F0301400790195054735002CORPORATION                                             22600CK1
F0101403290000000542501VERAFEDE INC.                                            2601CKR
F1401400110492490495002PADUA, LYDIA OR                                         12505CKO
F1401400110492490495002PADUA, ADOLFO                                           22500CKO
