F0201400180181080425001************                                             2701CKC
F0101401670271062360002ANGLINYA-LINYA ENTERPISES CORP                           2601CK1
F0101406620273019596002TGV BUILDERS, INC.                                       2603CKR
F0101402480331020380002**********                                               2610CKR
F0101402510341008068002CEU FACULTY & ALLIED WORKERS                            12605CKR
F0101402510341008068002UNION                                                   22600CKR
F0101411950000002691303BEYONDCONCEPTS INC.                                      2603CK1
F1301400210682306066002JUANITA CABRERA OR ANTONIO                              12501CKO
F1301400210682306066002CABRERA OR JAYNI                                        22500CKO
F4101400260812044826001SEVEN-L AGRIFOOD SYSTEMS, INC.                           2601CKO
