F0301400110191030988001********                                                 2610CKR
F0301400790000001211681GABUTERO, ROMMEL D OR                                   12601CKR
F0301400790000001211681GABUTERO, MICHEL                                        22600CKR
F0401400270242449588008SUKLIN PENA OR BONIFACIO PENA                            2610CKR
F0401400270242449588009SUKLIN OR BONIFACIO PENA                                 2610CKR
F1501400140291027914002FL MEMORIAL PARKS, INC.                                  2604CKO
F0901400190431038091001PEASE CORPORATION                                        2601CKR
