F0301401050000007641569YU, REYNALDO DBU JT FILTEX CENT                          2605CKR
F0101410690600047000002HOLIDAY HILLS STOCK & BREEDING                          12601CKR
F0101410690600047000002CORPORATION                                             22600CKR
F0101410690600047128001PIG IMPROVEMENT COMPANY, INC.                            2601CKR
F0101410850109047682001SL HARBOR BULK TERMINAL CORP.                            2605CKR
F1901400290261039565001UGNAYAN SECURITY AGENCY, INC.                            2601CKR
F0101400570281042885001COCO DAVAO, INC.                                         2602CKR
F3201400190000001493803CECILE Y. YAGO OR                                       12503CKO
F3201400190000001493803ISAGANI Y. YAGO                                         22500CKO
F4101400260812244954003ESTOCADO, REYNANTE JARDINIANO                            2503CKO
F0101405070861197520002QUINTIN C. DEE OR STELLA DEE                             2502CKO
