B0101403450521821100608**********                                               2030
A3001400130230767566064BALAHAY, ETHEL OCULARES                                  0501
A0101405940000005067716ESPARTERO, ALIOTH S.                                     0501
A0101405940000005068286BAYANIN, MA. VIDA BELLE                                  0501
A0101412890000001765506DELA CRUZ, MARK JOSEPH CRUZ                              0502
A0101412890000001765573******                                                   0501
A0101400860011407777001**********                                               0503
B0101400860011409046002**********                                               1601
A0101400860011581564001**********                                               0502
B0101401250021006627002STA. CLARA PARISH CREDIT                                11601
B0101401250021006627002COOPERATIVE                                             21600
A0101400150061392849001PINGOL, TERESA GARCIA                                    0501
B0601400100081025592001HAUSLAND DEVELOPMENT CORPORATION                         1605
A0601400100081092671001IFURUNG, NATIVIDAD GO                                    0501
A0601400360083576587001ANICIETE, NOEL DABU                                      0502
B0101413730000000469676MADRIGAL TRADING CO., INC.                               1601
A0101410850000003503517ADRIANO, ANTONIO SO                                      0501
A0101413310000005299863MANACOP, AIZA MILANA                                     0501
B5001400170000000169891WYT CONSTRUCTION AND DEV'T. CORP.                        1603
A0101400440161582425001JENNIE C. ARGANOZA OR                                   10501
A0101400440161582425001JOMYR C. ARGONOZ                                        20500
A0101401090171196091001BUENA FE A. APEPE                                        0501
B0301400530000001409438GENSAN LCL TRADING, INC.                                 1603
A0101401380201315884002VELUZ, MONTGOMERY CUNETA                                 0501
B3101400160221058785001SANTA CRUZ LAGUNA POLYMEDIC INC                          1601
A3101400450223352819001FARAON, RIZALINA OR                                     10502
A3101400450223352819001BELEN, RHODORA                                          20500
A3101400740000000013823IGNACIO, JOSE CARLO CAGUITQUIT                           0501
A1001400190231520766049JOCELYN S. LLUBIT                                        0501
A1001400190000000016480ANGELITUD, LYDIA LECIAS                                  0501
A1001400350233506103001LIMPIADO, JOVITA CAHIPE                                  0501
B1001400480000004097121******************                                       1601
A1901400290261012553001CARMEL OF OUR LADY MEDIATRIX                            10503
A1901400290261012553001OF ALL GRACE                                            20500
A1901400290261298552105AIDA NABOS REYES                                         0501
A1901400290261478374021JOCELYN MAULEON MAPOLON                                  0506
A0101400570000001681938UDDIN, FRANCES UY                                        0501
B0101400570281027866001MEDICAL EQUIPMENT HEALTH CARE GROUP                      1601
A0101400570281192694001DR. RIZALINO JOSE FELARCA OR                            10502
A0101400570281192694001JOSEFINA FELARCA                                        20500
A1101400120000000652755GALLARON, YOLANDA SALENTES                               0501
A6601400120314625677001ORSOLINO, JOY SURIO                                      0501
B2001400290315058509001SILLIMAN ALUMNI ASSOCIATION, INC.                        1610
B2001400290315058509002SILLIMAN ALUMNI ASSOCIATION, INC.                        1610
B3401400280318045071001ASIA PACIFIC AQUA MARINE, INC.                           1610
A010140251034130131400288888888                                                 0501
A0101402060000002259834BERGADO SR., TEODULO GORNAL                              0501
B0201400920000000047863KOWEN LOGISTICS COMPANY                                  1602
B0201400920000003713448ELOPRE, HERMINIGILDO DBU ELOPRE COFFEE                  11603
B0201400920000003713448SHOP                                                    21600
A0201400920375506750001CORTES, WYLLE ISOK                                       0501
A0201400890000002270111DONGHIL, ERNILO OR CATURAN,                             10501
A0201400890000002270111GAUDENCIO                                               20500
B0201400890376047710001S & S INDUSTRIAL CORPORATION                             1603
A0201400890376080642001GALANG, LORLIE PACURIBOT OR                             10502
A0201400890376080642001GALANG, GLENN AN                                        20500
A0101402930381563576002MAE ANGELES AMIHAN                                       0501
A0101408370382209078001DR. STELLA G. MANALO                                     0502
A0101402770000001571386**********                                               0501
A0101408400394163168001SALAZAR, MARICEL                                         0501
A0101409210000004364294ROCKY CANDA BALIAO                                       0501
A0301400820000003148478BOLO, MONALIZA G. DBU MOTOFIX                           10501
A0301400820000003148478CYCLE TRADING                                           20500
A0301400820000001185768EMMARIE QUINTOS                                          0501
A2401400180411478374061JUNRES AGAD OR                                          10501
A2401400180411478374061NORMELITA BLANCO                                        20500
A1201400150000001863254PRACTICAL ACADEMIC INTERVENTION                          0501
B1201400150000000473421E.S. CLEMENTE DEVELOPMENT AND MANAG                      1603
B1201400150000000473432MGD GOLF TOURNAMENT FOR A CAUSE INC                      1601
A1201400150421400428001PAATAN, ESTEBAN VALDEZ OR                               10503
A1201400150421400428001PAATAN, LILY ANN                                        20500
A0101412760000002067596LAGUARDIA, JASON VALLEJO DBU JV                         10502
A0101412760000002067596& L HOMEWORKS DESIGN                                    20500
B0501400170481258347003COLEGIO DE SAN JUAN DE LETRAN-                          11602
B0501400170481258347003MANAOAG INC.                                            21600
A0501400170481349742001ANTONIO PATUNGAN                                         0501
B1401400110000000167468PETER PAUL PHILIPPINE CORPORATION                        1605
A0101405940000005068333TIOSECO, DAISY MAE CHUA                                  0501
A0101405940000005127031HARTMAN, DAN CARL                                        0501
A0101408110000002907986CONSTANTE C. NORIEGA JR.                                 0501
A0101403450000001769760GUMATAY, RAMON GERMAR                                    0501
B0101403450521238191001**********                                               1610
B0101403450521821200608**********                                               2005
A0101403610531220255002MARY JOY A. DADIVAS OR                                  10501
A0101403610531220255002HUGO A. DADIVAS                                         20500
A0101403610531478374002GRAPE, IMELDA HANDOG                                     0501
A0101403610531710937001CRUZ, CATHERINE DURAN                                    0501
B0101404000551046316001PHILAB INDUSTRIES, INC.                                  1604
A0101404000551292555001LAGDAMEO, ENRIQUE BIENVENIDO                             0502
B0101404130000004437194GAME CRAFT INC.                                          1602
A0101407720602396293001KANAPI, MANUEL LOPEZ OR                                 10510
A0101407720602396293001KANAPI, GLYNISH                                         20500
A0101407720602398542002DR. ROBERT DENNIS J. GARCIA                              0502
B0101404260611035660001BETERAVIA CREDIT CORPORATION                             1603
A0101404260611410374002ESPINOZA, GENEROSA B.                                    0501
A0101404260611478374023OLIVIA M. PAMITTAN                                       0501
A0101409920650393336001TERO, CHRISTOPHER MACALOLOT                              0501
B0101406590000003007289ARSENAL CINEMATOGRAPHY COMPANY INC                       1602
A0101408240711573652001PASILIAO, CAROLINE MAGAT                                 0501
A2801400100000000188152DELA CRUZ, EDITHA LAXAMANA                               0501
B2801400100712000415001PLANTERS DEVELOPMENT BANK                                1601
B2801400100712043405001MALAYAN TOWAGE & SALVAGE CORPORATION                    11605
B2801400100712043405001- SUBIC                                                 21600
B2801400230000001580332NORDSMAIRE GENERAL MERCHANDISE LUMBER &                 11601
B2801400230000001580332HARDWARE                                                21600
A4101400390000000975173NOAH'S ARK MANPOWER SERVICES                             0505
B0101404840000000004133TOM'S WORLD PHILIPPINES CORPORATION                      1602
A0101406750852181208001LOLITA P. JIMENEZ OR ELIAS B.                           10501
A0101406750852181208001JIMENEZ                                                 20500
A0601400230000001687118**********                                               0502
B0601400230000000029672BATTERY DEPOT OF CENTRAL LUZON INC.                      1606
