B0101400150061821100608**********                                               2010
B0101404840851821100608**********                                               2002
B0101402350321015321001BEST CHOICE MINIMART INC.                                1603
A0101400440161525001103OFELIA B. OLERMO                                         0501
A0101400440161525001105VIRGIE B. CRUZ                                           0501
A0101400440161531101001JOVYLYN D. PASCO                                         0503
A0101414090000002282806SAULOG, LESTER IAN CESA                                  0502
A3001400130000008916332CARLOBOS JR., VICTORIO ARREZA                            0501
A0201400760374434972001******                                                   0501
A0101400860000002333557*******                                                  0502
A0101400150000002749740ARANZANSO, TANYA CAPISTRANO                              0501
A0101400150000005794370ADUNA, MICHAEL JOHN MILLER                               0501
B0101400150061030896001TECHNOLUX EQUIPMENT AND SUPPLY CORP                      1601
A0101400150061338964177MARY ANN R. LACHICA                                      0501
A0101400150000002902412NAVATO, MAEBELLE P.                                      0501
A0101400150061684116001MAGRAMO, FREDESWINDA CERDA                               0501
A0101410850109068275001ADRIANO, ANTONIO SO DBU ANTONIO                         10501
A0101410850109068275001S. ADRIANO FURNITURE SHOP                               20500
A0101400730000008619563SOBITO, MA CRISTINA ROCERO                               0501
B0101400730111020534001BAYANIHAN MULTI-PURPOSE AND TRANSPORT                   11601
B0101400730111020534001SERVICE COOP                                            21600
B0101400730000009389940AMARONN FOOD AND SERVICES INCORPORATED                   1602
A0101400730111195576001ROQUE, REYNALDO M. OR                                   10502
A0101400730111195576001ROQUE, ANGELA P.                                        20500
A0101406040000004587680********                                                 0501
A0101412630132053415001FERRIS SOBELL PROPERTIES INC.                            0501
A0101401830000001139953ROSEMARIE S. NOJADERA OR                                10501
A0101401830000001139953ISAGANI M. NOJADERA                                     20500
A0101400440000003671670RUTH L. GOZON                                            0501
A0101400440161525001159MARITES P. MONTALBAN                                     0502
A0101407270000004832651STA. ANA, MARY ANNE SAMSON                               0501
A0101407270000008551013MONTEMAYOR, JESUS RIVERA                                 0502
A0101407270162079197001REGINALD S. VELASCO                                      0504
B0101401090171034513001HAWK SECURITY SERVICE INC.                               1602
A0101401090171195858001ESTELA D. MENDOZA OR                                    10503
A0101401090171195858001AMADO G. MENDOZA                                        20500
B0301400530193038633008JHG TRADING, INC. - A                                    1610
B0301400530193038633088JHG TRADING, INC. - B                                    1610
A0301400790000001010660ORCULLO, NESTOR MEJORADA                                 0501
A0301400790000005692173SIMON, DIOSEE GENTILES                                   0501
A0301400790000002301393BARCELONA, JANET TIZON                                   0501
A0301400790000000435830********                                                 0502
A0101413020000002292719FERRERAS, CHERELINA SANTIAGO                             0501
B1001400190231020380001BOUNTY AGRO VENTURES, INC.                               1610
A1001400350233068377001VMP TRAVEL AND TOURS                                     0503
B1901400290000001363202LIPA MEDICS INC.                                         1602
A1901400290261093134001JOY PANALIGAN KATIGBAK                                   0502
A1901400290261244490001SONIA PINPIN BRIONES                                     0501
A1901400290261298552034MA. LUCIA D CALINGASAN                                   0501
A1901400290261488341110GERADO H. GONZALES                                       0501
A1901400290000005565864VIOLETA CUENCA VILELA                                    0502
B0101401670271007153001LEARNING PARTNERS SCHOOL, INC.                           1602
A0101406460272570208001MENDOZA, ANGELO DEL MUNDO                                0503
A0101408660000006296622ARANETA III, VICENTE MARTIN OR                          10501
A0101408660000006296622JOAN MARIE C. ARANETA                                   20500
A0101412470000000520192ARCA, ESTHER DBU WASABE SPICE                           10503
A0101412470000000520192OF THE ORIENT                                           20500
B0101412470000003847438ALTO INDUSTRIAL ENTERPRISES, INC.                        1602
A0101400570281441951010VICTOR FELIX S. GADDI                                    0503
A0501400200000011150233CASTRO, RHIZZA JOY ARIMAS DBU                           10501
A0501400200000011150233RHIZZA JOY PALAY TRADING                                20500
A2601400270000003510783LIBERTY U. PAJARILLO                                     0501
B0801400160311267838001CHARLY RESOURCES & DEVELOPMENT, INC                      1602
A1101400120000000652788PRIMER, HERMINIA AZUCENA                                 0501
A1101400120000003022333ENFECTANA, EMIL ROY DY                                   0501
B1101400120313036495001MANCERA STORE & HARDWARE SUPPLY INC                      1640
A2001400290000010684427LIM, JONATHAN UY                                         0502
B3401400280000006790987CCC FINANCE CORPORATION                                  1610
A3401400280000003309219ROMULO D. CAPUNONG OR RUELYN C.                         10502
A3401400280000003309219EDUQUE                                                  20500
B0101402350321041173001GO TEC INTERNATIONAL BUSINESS SCHOOL,                   11602
B0101402350321041173001INC.                                                    21600
A0101402350321459520001TIU, DANTE TAN OR JUAN PUAN TIU                         10501
A0101402350321459520001OR TIU, DAN CARLO                                       20500
A0101405650322346354001DAYRIT, ARMANDO RODRIGUEZ                                0502
A0101405650322488260001BARREDO, CARMENCITA CALIXIHAN                            0502
A0101402060000005137371ADVINCULA, LOWELL SIOCO                                  0501
A0101402060000005137531JAVA, ROBERT JOHN GARCIA                                 0501
B0101402060000000653805TOYOTA TAYTAY, RIZAL, INC.                               1602
A0101402060351217441024VINORNA V. LIM                                           0504
A0101402060000000445561OTAKA, SHINICHI                                          0501
A0101402060351553377001ALVAREZ, JACQUELINE BARRION                              0501
A0101409050000008087689TEJADA, IRA IVANA SALOMON                                0501
A0201400760374563441001GOCUAN, MARILOU DUYONGCO                                 0502
A0201400890376592720001********                                                 0502
A0101411660000002309531AGUIRRE, JERICHO ICATAR                                  0501
A0101402770000009247150*********                                                0501
A0101402770391217498011FRANCISCO B. ZAFRA                                       0502
A0101402770391758040001VICTORIA, TOMAS N. OR                                   10503
A0101402770391758040001VICTORIA, LOURDES C.                                    20500
A0101402770391764626001TORRES JR., FIDEL S. OR                                 10503
A0101402770391764626001TORRES, MARIA CECELIA V.                                20500
B0101405490392039342001COMBINED ELECTRO-MECHANICAL SUPPLY, INC.                 1606
A0101408400000000960430DITUCALAN, JAMILA FAISAL                                 0502
A0101408400000007905782OTE, HANIFA MALA                                         0501
A0101408400000010506986BAGO, ROSALIE ESPINOSA                                   0501
B0101408400394034371001W GROUP, INC.                                            1603
B0101408400000000029592W NORTH, INC.                                            1602
B0101408400394609581001W LANDMARK, INC.                                         1603
A1201400150000007556365QUILOP, CARLO CLYDE CO DBU LIKH                          0501
A1201400150421068314001SIBAYAN, VIRGILIO ESTIOCO DBU J                          0501
B0101406330472040053001KUS OFFICE SYSTEM MFG. CORP.                             1602
A0101406330472284397001MARIA TERESA N. KANEKO                                   0501
A0101410140000001074577AURELLANO, SAMUEL BUEZA                                  0501
B0101410140000000038942FLOM ENTERPRISES, INC.                                   1610
B0501400170481015881001TOYOTA DAGUPAN INC.-2                                    1615
A3801400170490068383001SIH, M DBU HM HOME MARK                                 10501
A3801400170490068383001COMMERCIAL                                              20500
A1901400160491307939001EDWIN P CHUA OR EDDIE P CHUA                             0502
B0101403580511020149001PHILIPPINE INTERNATIONAL PROPERTIES                      1601
B0101403580511036608001WELLTHY SOLUTIONS INC.                                   1605
B0101405940512634885001TUGGYS TRAVEL INC.                                       1603
B0101408530516036530001TEAM GLOBAL FACILITY SOLUTIONS INC.                      1603
A0101408530516571877167PEREZ, ANNE CATHERINE TAN                                0502
A0101408530000006599844VINOD SINGH YADAV                                        0502
B0101411400000006560905UBITECHNOLOGY INC.                                       1604
A0101403450521012086001**********                                               0502
B0101403450000000889552CENTURY GLASSCENTER INC.                                 1602
B0101403450521239028002**********                                               1601
A0101403450521240509001**********                                               0502
B2201400250561025293001CENTRAL LUZON DOCTORS' HOSPITAL                          1602
B0101404130601030838001ELEV 8 MEDIA, INC.                                       1605
B0101404130000005017674IPRUDENTIAL STEVEDORING AND PORT                        11605
B0101404130000005017674SERVICES INC                                            21600
B0101404130601100034001ADVATECH INDUSTRIES, INC.                                1602
B0101407720602027106001SKIN AND CANCER FOUNDATION, INC.                         1604
B0101407720000000885634LARRS SKIN SOLUTIONS, INC                                1601
A0101407720602162403001MARY CAROLINE LAGMAN                                     0503
A0101407720602283353001ERWIN HERNANDEZ OR                                      10503
A0101407720602283353001AGNES HERNANDEZ                                         20500
A0101407720602328663002********                                                 0502
A0101407720602373276001MACAPAGAL, ANTONIO RAMIREZ                               0502
A0101407720602396498002CAPISTRANO, MA. EVELYN TORRES                            0501
A0101407720602396894001PADILLA, MA. DOMINGA BELLING                             0503
A0101407720602399815001ALEJANDRO, RUTH MARGARET                                10501
A0101407720602399815001FRANCISCO                                               20500
B01014077206024892100011stMARK GLOBAL MEDICAL SERVICES, INC                     1602
B0101407720000000885805INTELLIGENT BEAUTY SKIN SOLUTIONS INC                    1601
B0101407720602531639005INTELLIGENT BEAUTY SKIN SOLUTIONS INC.                   1601
B0101409890000009468482LOPEZ, ANDREW SANTOS                                     1601
B0101409890000007373153MEDALLA, VILOETA TEJOSO DBU VTM PRI                      1601
A0101413990000004511102MANALO, NORA LEGASPI                                     0501
A0101413990000003431347VILLAME JR., MATEO DELA CRUZ                             0502
B1301400500684602319001*****                                                    1603
A1301400500684611748001CANOZA, MARY JANE C. OR                                 10502
A1301400500684611748001CANOZA, MARK WILLIAM                                    20500
B4101400260000005724169LANDSQUARE MARKETING CORPORATION                         1601
A4101400390813474614001VISORDE, LUNINGNING GERENA                               0501
A4101400420814453380001TOLENTINO, JONETT MISA                                   0501
A4101400420814520766113DE DIOS, NORMA R.                                        0501
A4101400420000000710223ROMERO, MARICRIS BAUTISTA                                0501
A4101400550000006044480QUIOYO, EMELIA BOONGALING                                0502
B4101400550000006044140TELKHA NETWORK INC.                                      1603
A0101404840851478374012SAPORNO, ANNABELLE G.                                    0501
A0101404840851520766037MAGDALENE DE GUZMAN                                      0502
A0101404840851520766126ADELAIDA VILLANUEVA                                      0501
A0101405070861360028001STEVE T. ONG OR YAJUN YE                                 0501
A0601400230000007402144DIZON, JESUS AMELSON SUPAN DBU                          10501
A0601400230000007402144OR DIZON, CHARMAINE M                                   20500
A0601400230000000990012GO, JONATHAN TAN                                         0501
A0601400230891694008001VELASCO, BENITO CUENCO                                   0501
