A1901400290000003252731REBECCA VELASQUEZ ARIOLA                                 0502
A1901400290261042311001DRA REINA D MENDOZA                                      0501
A1901400290261048931001DRA. MARJORIE REYES FELIX                                0501
B1901400290261244374003ELIZABETH LOZANO AND GODOFREDO KATIGBAK                 11602
B1901400290261244374003FOR ARLIKA                                              21600
A1901400290261244374006ELIZABETH KATIGBAK LOZANO                                0502
A1901400290261741509001ROMELIA DE LA CRUZ MACASAET                              0501
A0101400150000012254670MEDINA, JOHN HOWARD DRUECO                               0502
B5001400170000000169722LIM, WILSON TAN OR LIM, MARIA NILA WEE                   1602
A5001400170000000213954LOPEZ, ISOLDE OR TAMAYO, AILYN                          10505
A5001400170000000213954OR TAMAYO, SHEENA                                       20500
A0301400530193702921168SELGAS, ROBERT U. OR                                    10501
A0301400530193702921168SELGAS, ELVIRA R                                        20500
A0301400660194421173001SOLOSOD, CHONA GABULE                                    0501
A3101400160000004952245GENIE MALLARI CHAN                                       0502
B3101400160221004180001LIM, BESSIE LAYGO DBU BATIS NG MAKILING                 11601
B3101400160221004180001SPACE RENTAL                                            21600
B3101400160221004181001EDRUF LIM REALTY AND DEVELOPMENT                        11601
B3101400160221004181001CORPORATION                                             21600
A3101400160221534747001CHING, ROSARIO PUA                                       0501
B1001400190000011057979RD PAWNSHOP, INC.                                        1605
A1001400480000004097223PARCON, NEYRA ACENAS                                     0501
A1901400290000012081268NINA RODRIGUEZ ILAGAN                                    0501
B1901400290261012818001JEM MANAGEMENT AND HOLDING CORP.                         1602
A1901400290261333248001DANTE VALENCIA ANDAL                                     0502
A1901400290261488341011DR MILO G VILLENA                                        0501
A2601400270000002677569DEXTER C. DUMRIQUE                                       0505
A2601400270000009896435DNF NORTHEAST ENTERPRISES                                0510
A2601400270302557323001MELANIE OR REYNALDO AGNES                                0505
B0801400160311065867001ELM INDUSTRIAL SASLES                                    1602
B0801400160311494221001JUCABAN, LEO LAGOS                                       1601
A1101400120000001920678PALMA, JHOWIEN ROYO                                      0502
A6601400120000000060795ALCAZAR JR., CESAR GIBA DBU                             10501
A6601400120000000060795INK FOR CARE & SERVICES                                 20500
B0201400760374044038001RYUKO FASHION LINE                                       1601
B0201400760000005016631POR FIN TRADING CORPORATION                              1601
A0201400760000005156423KOIKE, ROSANA BONES                                      0501
A0201400890376078387001PAGAY, VAN PATTRICK ANTHONNE QU                          0501
A0101402770391355762050EDWIN R. LACSI                                           0501
A0301400820000003148536ROLDAN, JAY ANN B.                                       0502
A0301400820000004073330SORIANO, ROSEMARIE                                       0501
A2401400180000010066354***************                                          0503
B2401400180411044274001******************                                       1603
A0501400170481046585002ANG, JUSSLYNN DBU                                       10504
A0501400170481046585002AVS DISTRIBUTION                                        20500
B0501400170000001072957ALEJO, ERVIN MARQUEZ AND ALEJO, NORMAN                  11602
B0501400170000001072957MARQUEZ                                                 21600
A1901400160491034372001FIESTA HOME CENTER (FHC) CORP                            0505
A1901400160000001718065BOSS HOBS SHOES AND                                     10503
A1901400160000001718065BAG REPAIR SHOP                                         20500
B2201400250000009913124ASSOCIATION OF SUGAR PLANTERS OF CENTRAL                11605
B2201400250000009913124LUZON INC.                                              21600
A2201400250000007122830ADONIS D. GARCIA OR                                     10501
A2201400250000007122830MARY T. GARCIA                                          20500
A2201400250000001066039TIRSO G. POQUIZ                                         10501
A2201400250000001066039INT'L ELECTRIC WIRES PHIL                               20500
A1301400340683406123001TOBIAS, SUSANA FULGENCIO                                 0502
A1301400500000002063963NICOLAS, JAY JOSEPH GARCIA                               0502
A1301400500000004093305NICOLAS, JAY JOSEPH GARCIA                               0501
A4101400260000006043243VALDEMORO, JOCELYN HILARIO                               0501
A4101400390000006302472REYES, ELENITA BONUS                                     0501
A0601400230000005185924GAJE, AGNES DBU JCG AIRCONDITIO                          0502
