A0101415350000006213058DAGSAAN, JAYSON DIAG                                     0501
A0101400150061337098169MA. GISELLE A. LICERALDE                                 0503
A0101400150061777201002SANTOS, ALEXANDER ARAGON                                 0501
A0101403320471063470001CRISANTO C AMBROSIO DBU                                 10501
A0101403320471063470001IHAW-IHAW SA ROTONDA                                    20500
A0101401250021333461001SATURNINO, EDRALIN P.                                   10502
A0101401250021333461001OR SATURNINO, JEANETTE C.                               20500
A0101400150000001422002HERNANDEZ, CARRIE ANN SENIQUE                            0501
A0101400150000003162518LEONARD MEL A. AVILA                                     0501
A0101400150000003601010TAN CHA, JOSE MARI CILLAN                                0501
B0101400150061016942006ASIA PACIFIC EXPRESS CORPORATION                         1605
B0101400150061038212001COCOPALM AGRI GROUP, INC.                                1603
B0101400150061542521001SAN CARLOS BIOPOWER INC.                                 1603
B0101400600071233681002**********                                               1606
A0601400100000007250600SARITA, V DBU JT VCREATIVE                              10501
A0601400100000007250600PRINTING                                                20500
A0601400100081251161001PAMINTUAN, NOVA TANGLAO                                  0502
A0101414090000000399344DY, KATHLEEN CONCEPCION OR                              10501
A0101414090000000399344DY, EDWIN CHUA                                          20500
A0101410850000000259869***************                                          0501
A0101410850109055892001CABANTING, MARISSA B. DBU                               10503
A0101410850109055892001ERLISH HAULING SERVICES                                 20500
A0101412630000000801461FUDALAN JR., OSCAR                                      10502
A0101412630000000801461DBU BAY HEWITT                                          20500
B0101401830000000033616CARITAS SALVE CREDIT COOPERATIVE                        11603
B0101401830000000033616PACO (006)                                              21600
A0101401830141206962001MARIA D. VALIENTE                                        0501
A0101401830141752259001CARANDANG, FREDERICK ANGELES                             0502
A7201400170000003774152MAULANA, ALMERA DIWA                                     0501
B01014129201600584090017RF DELIFOODS ENTERPRISE                                 1601
A0101400440161039572023JIMMY S. PALISOC                                         0503
A0101400440000002034920MARY GRACE S. UGAT                                       0501
A0101407270162526196001CATHERINE H. BAUTISTA                                    0501
A0101407270162587936002WILFRIDO G. TIRONA                                       0501
A0301400530000001409661KE, BINGZHANG OR                                        10503
A0301400530000001409661YE, XIUHUI                                              20500
A0101401380201650549001MONASTRIAL, MARITES B. JT                                0502
A0101410720000000234791VALENTON, BEATRIZ ORBIGOSO                               0502
B0101410720000000008733SMARTSERVE MANPOWER RESOURCES, CO.                       1602
A3101400160221221673001ALMIRA A. DIMACULANGAN                                   0501
A3101400160221478374056ALLAN P. TINAMBACAN                                      0501
A3101400450223391044003GUNTER, FORTUNATA AZORES                                 0502
A1001400190000002170623LEGASPI, L DBU LBL TRAFFIC CONT                          0506
A1001400190231520766125YANA, MAYFLOR DAGOC                                      0501
A1001400350233478374006IBANEZ, ELSA                                             0501
A1001400480000000606819TAN, LYDIA OR TAN, OLIVER                                0506
A1301400760000005989913**********                                               0501
A13014007602530519890020253-051989-002                                          0501
A0101401670271291657001ROMULO M. SANTOS, JR. OR                                10502
A0101401670271291657001KATHERINE LOURDES SANTOS                                20500
A0101406460000001231554WEE, AUDREY ANN SY OR                                   10502
A0101406460000001231554WEE JR., CESAR L                                        20500
B0101406460272039835001TECHNOMED INTERNATIONAL, INC.                            1605
A0101406460272411543002ZAMORA, KERI LYNN N. OR ZAMORA,                         10505
A0101406460272411543002FRANCISCO JAVIER                                        20500
A0101406460272722876002DOROTHY ALINDOGAN                                        0502
A0101406620273381533001SY, NELLIE CO                                            0501
B0101408660274038999001FRASOR GLASS AND ALUMINUM INC.                           1601
A1101400120313542847001LAO, WILSON JOSE S. OR LAO,                             10510
A1101400120313542847001JOVITA T. OR LAO, WILBERT                               20500
A0101402350000000443172TAN JR., PATERNO GOMEZ                                   0501
B0101402350321012513001CONNER HARDWARE CORP                                     1601
B0101402350321035671001YES PURE WATER                                           1601
A0101402350321180459002TING, CHING LAN OR CHANG, CHIAO                         10501
A0101402350321180459002FEI OR CHANG, CHIAO FENG                                20500
A0101402510000000200062BERNALDEZ, LIGAYA MACALINTAL                             0502
A0101409050000003536270URETA, GIDEON                                            0502
B0101409050352018120001ELECTRONIC COMMERCE PAYMENTS, INC.                       1603
A0201401020000004398363AGURO, ROWELA AGRAMON                                    0501
A0101408370000008660613ESGUERRA, CARLOS PONCIANO                               10501
A0101408370000008660613OR MARTINEZ JR, GREGORIO                                20500
A0101408370382461772001MACARR_PARKING CORP.                                     0502
A0101408790383356341001YU, FRANCIS CHUA JT                                      0502
B0101402770000006812484DIAMAS GLAZING AND FACADE SOLUTIONS INC.                 1602
A0101405490392029904001ROSH INDUSTRIAL SUPPLY                                   0501
A0101408950396381963001DR. EMMANUEL RAMOS KASILAG                               0501
A0101409180000005326603IBARDELOZA, ANNALYN SIABOC                               0502
A0101409210000002279018AGONCILLO, CONSUELO FLORES                               0502
B2401400180411035164001MOMMY GINA TUNA RESOURCES (MGTR), INC.                   1605
B2401400180411039574001ROS JETTI STATION                                        1602
A2401400180411478374044UGAT, ELVA T.                                            0502
A1201400150421369824001MARMELINA I. CAIDO OR                                   10502
A1201400150421369824001BENIE C. CAIDO                                          20500
B0901400220000000888199**********                                               1605
B0101412890000000125317LANSANG CONSTRUCTION                                     1601
A0101403320000000735995MORENO, RICO SALINAS                                     0501
A0101403320000008645176BERNARDO, MICHELLE ESGUERRA                              0501
A0101403320000001646711REODICA, TRINIDAD PRIMITIVA                             10501
A0101403320000001646711JOSE                                                    20500
A1901400160491282845001ARTHUR C MALALUAN OR                                    10501
A1901400160491282845001IRENE D MALALUAN                                        20500
A1901400160000000243683RENILO BALMES PANGANIBAN                                 0501
B0701400260000000671027ALL JORD TIRE SUPPLY CORPORATION                         1603
B0101403580511031762001STERLING FLUID SYSTEMS ENTERPRISES INC.                  1605
A0101405940512458148001DACLES, MARICAR LAGRIMAS                                 0501
B0101408110515022478001GLOBERT REALTY & DEVELOPMENT CORPORATION                 1603
B0101408530516035673001FERROTECH STEEL CORPORATION                              1608
A0101411400517381317168*******                                                  0502
A0101403450000001769997**********                                               0501
B0101403610531063771001B.B.L. TRANS. SYSTEM INC.                                1601
A0101404000000005071141PRIMO B AGUAS                                            0501
A0101404130601451302001ROMMEL A. IBUNA                                          0501
B0101404130601563008001I. PRUDENTIAL SHIPPING AGENCY SERVICES                  11605
B0101404130601563008001INC.                                                    21600
A0101407720602288390002ALFONSO U. BENGZON                                       0502
B0101404260611033056001OVT-GRAPHIC LINE INC.                                    1603
A0101404260000004781197TUZAN, E DBU HBLR DOCUMENTATION                          0502
A0101404260611478374109ANGELITA SIQUIJOR                                        0501
A0101409890000002326774NGO, WILLIAM CHUA                                        0501
A0101409890000000437449**********                                               0501
A0101409890000000049034**********                                               0502
A0101409920650478374023RENTIGRADO, ELENA ESTOESTA                               0502
A0101409920000001539631MEMBERS OF NATASHA (SHOECAT INC                         10502
A0101409920000001539631SARILE, MICHELLE                                        20500
A0101413570000003379908CABANIG, MYRA MELAYA                                     0503
B0101410300000000191564FITNESSCAPE CREATIVE STUDIO, INC.                        1604
B1301400210682039340001CDS MACHINE SHOP CORPORATION                             1605
A0101408240711385252001NISA B. CADIZ                                            0501
A2801400100712478374001BERNARD R. CORPUS                                        0502
A4101400260812478374030MA. CONCEPCION S. PARAGUISON                             0501
B0101404840000003069623ROYAL THAI FOOD PHILIPPINES INC                          1601
B0101404840000003069641GAZ DE BAY INC                                           1601
A0101404840851520766067JOSEPHINE V. GABAYERON                                   0501
A0101406750000006974010PARADO, RAY ANTHONY SERRANO                              0502
