B0101413310133821100608**********                                               2002
B1101400120000000653150PERPETUAL HELP MULTI-PURPOSE COOPERATIVE                 1603
B1101400120313045854001LEYTE II ELECTRIC COOPERATIVE, INC.                      1601
B1101400120313045854002LEYTE II ELECTRIC COOPERATIVE, INC.                      1601
B1101400120313045854003LEYTE II ELECTRIC COOPERATIVE, INC.                      1601
A1001400480000005356021TABAN, EARLY JEN ORTALIZ OR                             10501
A1001400480000005356021TABAN, NOEL OLIVEROS                                    20500
B1101400120000000652926BUSINESS FRONTIER CORPORATION                            1603
A1101400120000003197288FLORO M. CAMENFORTE JR.                                  0505
B0101402060351019160001COMPOSITE MATERIALS, INC.                                1605
A0101412890000002747971VERGARA, FERNANDO FERNANDO                               0501
A0101412890000007095447BERNARDO, ZENA BERNARDO                                  0501
A0101407720602397747001ERNESTO OLYMPIA M.D. OR                                 10503
A0101407720602397747001EVA MARIE OLYMPIA                                       20500
A4101400420000004848062MANGUERRA, FERDINAND DELA CRUZ                           0501
A4101400420814456030002AGELLON, LILY RADY AGUINALDO                             0502
A0101400860000002333499**********                                               0502
A0101400860000007087132*******                                                  0501
A0101400860011479962001**********                                               0502
B0101400860011484634001**********                                               1606
B0101401250000007121262BALIAO DENTAL CLINIC & DIAGNOSTIC                       11602
B0101401250000007121262CENTER INC.                                             21600
B0101400150061010975001PHILMETAL PRODUCTS INC.                                  1603
A0101400150061055752053BARTOLOME III, RICARDO MANALOTO                          0501
A0101400150000006004302STA MARIA, CARMEN ELISA RAMOS                            0501
A0101400150061610203001BALLESTEROS, RAMON EMMANUEL N.                           0502
A0101400150061632464002ANGELES, TERESITO AND LADEZA,                           10502
A0101400150061632464002AMON AND DAGDAYA                                        20500
A0101410850000008259161ZHENG, FEI                                               0501
B0101410560110045564001S.M. LAZO MEDICAL CLINIC, INC.                           1610
A0101410560000000848722**********                                               0501
A0101400730000001822300PURACAN, GIEHRJEM PALANG                                 0503
A0101400730000007475821TUMALIWAN JR., GERARDO                                  10503
A0101400730000007475821PURIFICACION                                            20500
B0101400730111036857001FRC SULO RIVIERA HOTEL CORPORATION                       1606
A0101400730111481455001**********                                               0502
A0101401960000006004411***************                                          0501
A0101413310000004626802MATEO, MARIZA MARTIN DBU MMMDC                          10501
A0101413310000004626802GRAPHICS & PRINTING SERVI                               20500
B0101401830000000033569CARITAS SALVE CREDIT COOPERATIVE                        11603
B0101401830000000033569(CALOOCAN)-001                                          21600
A0101401830141582040001EDNA FABREGAS HERNANDEZ                                  0505
A5001400170000000213954LOPEZ, ISOLDE OR TAMAYO, AILYN                          10505
A5001400170000000213954OR TAMAYO, SHEENA                                       20500
A5001400170000002288388PANOZA, PRECIOUS ESTEBAN                                 0501
A0101412920000008813252PADILLA, JOHN RODICA                                     0502
A0101400440000002249641IBE, REBECCA LIZAN                                       0501
A0101407270000004915908LORENZO, TRICIA MARIE SOLANOY                            0501
A0101407270000006862297GREGORIO, JANNA KRISTA GATUSLAO                          0501
A0101407270162720477001MICHELLE C. PINO                                         0502
A0101401090000004753851AIJP FOOD SERVICES                                       0502
A0301400530000001409752URSUA, PRINCESS F.                                       0501
A0301400950000002975013MERCADO, GRACE ARANA                                     0502
A0301400950000002115480**********                                               0502
A0301400950000005707240MANALO, ROWENA DUMILE                                    0503
A0301400950000008869003FINISHING CONCEPT CONSTRUCTION                          10502
A0301400950000008869003SUPPLIES                                                20500
A0101401380201394480001**********                                               0502
B0101413600000000206915LEGEND OF ICE RECRUITMENT                               11603
B0101413600000000206915& SERVICES INC.                                         21600
A3101400160221386295002ROBERT J. BANATIN                                        0501
A3101400450000005960483REYES, AUREA MARCO                                       0501
A3101400450223466114002NATIVIDAD, GINA DUNGO                                    0503
A1001400190000005709060NERY, JASON JAY JASPER AMPER                             0502
A1001400190231478374086LORNA A. OMANDAM                                         0501
A1001400190231520766087MONTE, LEONORA BATERNA                                   0501
A1001400190231520766125YANA, MAYFLOR DAGOC                                      0501
A1301400760000005989851ROSA MIA S. SAGUN                                        0502
B0101406620273017284001ACCENT MICRO TECHNOLOGIES, INC.                          1605
B0101406620000003497347BOUNCE.ASIA ONLINE CORPORATION                           1604
A0101411820000003838211CHERRYLEN TORNO                                          0502
A0501400200000005751646JACINTO, JOCELYN ORPILLA                                 0501
A1101400120313478374113BAJO, MA. GEMINI CATALOGO                                0503
A6601400120314618358001TAN, VALENTIN GATONG                                     0510
A0101402350321179301001PABLO PEFANCO OR                                        10501
A0101402350321179301001ERLINDA PEFANCO                                         20500
A0101402350321179301002PABLO PEFANCO & ERLINDA PEFANCO                         10505
A0101402350321179301002& MA FLORINDA PEFANCO                                   20500
A0101402350321406149003********                                                 0502
A0101405650000006893721BAGATSING, GRACE ABIGAIL CUSTOD                          0501
A0101405650322350126001SABADO, MILAGROS SEBASTIAN                               0502
A0101402060000002259889ROXAS, MA. VERNADETTE HALILI                             0503
A0101402060351365104002VILLANUEVA, ELSA ROMEA                                   0501
A0101409050352717261001MARIA KATRINA JESSICA M.                                10503
A0101409050352717261001GALLEGOS                                                20500
B0201400760374032939002GATEWAY MOTORS (CEBU), INC.                              1605
B0201400760374046340001VINRIO CONSTRUCTION CORP.                                1605
A0201401020377046499001TEH, MARIA ELENA BLANCO DBU                             10502
A0201401020377046499001E.T. PRINTSHOPPE                                        20500
B0101402930000003269254JK COLLECTION & RECOVERY INC.                            1603
B0101402930000003269414ASA COLOR AND CHEMICAL INDUSTRIES INC                    1602
A0101415350000005085052VERA, JOSEPHINE REANTAZO                                 0501
A0101402770391027121001ABBI PRINTHAUZ                                           0502
A0101408400000001213610DAPITO, ZORAIDA VALDERAMA                                0501
A0101408950000005325553SUNTAY, MARIA LOURDES JOSON OR                          10501
A0101408950000005325553PALAD JR., PAOLO EDGARDO                                20500
A0101408950396398206001FRANCISCO VICENTE F. LOPEZ                               0502
A0101409180000003780621IVO KOSTOV NEDIALKOV                                     0501
A0301400820000002106161ONTOLAN, MYRNA M.                                        0501
A0301400820000002271912BARAN, DERICK S.                                         0501
A0301400820409760125002GEPITULAN, DANTE C.                                      0501
A5501400120410682269001LIM, HILBERT OR LIM, HELEN                               0501
A1201400150421685972001JUCUTAN, HEIDI BONDAD OR                                10502
A1201400150421685972001JUCUTAN, ROMMEL                                         20500
A0101412890000005944863DELA  PAZ, MICHELLE BUENAFE                              0502
A0101403320000000452311HYDROMEDICS                                              0501
B0501400170481016209001DAGUPAN FILCO MERCHANDISING                              1602
A1901400160491247764001MARITES E RAMIREZ                                        0501
B1401400110492365609001JEORGE S MALIGAT - PILIPINO HARDWARE AND                11601
B1401400110492365609001CONST. SUPPLY                                           21600
B0101407430503015295001PC SUPPLIES, INC.                                        1602
A0101403580511558749001HENRY D. ANTONIO                                         0504
A0101408110000005288600ANG, CATHRINE ILENE BASA                                 0501
A0101408530516571877100UY, FLORIDA Q.                                           0501
A0101408530000000136121JONATHAN C. CARLOS                                       0502
A0101403450521239193002**********                                               0501
A0101403450521240963001********                                                 0503
A0101404000000003706410MONSANTO, AILEEN LELANIE CO                              0501
A0101404000551519226002FAUSTINO, MANUEL ORDOVEZA OR                            10501
A0101404000551519226002FAUSTINO, RICARDO O.                                    20500
B0101404260611041703001BKM PLUMBING SERVICES                                    1601
A0101404260611079142001DEMINGOY, JANUARY COMORRO                                0501
A0101404260611478374075VIVENCIA HATOL                                           0501
A0101404260611478374119LEA B. DAGANTE                                           0501
A0101409890649044793001**********                                               0501
A0101409890000000209094JAVIER, REGALADO TRINIDAD                                0502
A0101413440000004882960CRUZ, MARX CYRUS COBARRUBIAS                             0501
A0101413440000006680788COLOBONG, BRENDA BALATBAT                                0502
A0101413990000009868991PEREZ, DIANA HONRUBIA                                    0501
B0101414120000004603398WEBLEND INC.                                             1601
A0101414120000006005367NAJOS, ELVIRA ABAO                                       0501
A1301400210000007669303AUGUSTO, ROGEE CASUNO                                    0501
A0101408240000008854559OCAMPO, JOSELITO SAMSON                                  0502
A0101408240000009452906OCAMPO, MARICRIS BERNARDO                                0501
B2801400100712037646002ROOSEVELT PARK VILLAGE HOMEOWNERS A                      1603
A2801400100000007822935FOO, JEROME B. OR FOO, ANA T.                           10510
A2801400100000007822935OR FOO, JUSTIN B                                        20500
A4101400260000003680095CURA, CRISTELLIANA SANTIAGO                              0501
A4101400390813248327001SARIEGO, DANILO BAGONA                                   0501
A4101400390813442190001ASMA, RODELYN MERIADO OR                                10504
A4101400390813442190001ASMA, ROLDAN PAR                                        20500
A4101400420000006969860SANTOCILDES, ARIANNE FAE TARDAG                          0501
A4101400420814436355001BAUTISTA, LOIDA U. OR                                   10502
A4101400420814436355001BAUTISTA, EPITAC                                        20500
A4101400420814520766027ARUTA, CORAZON G.                                        0501
A4101400420814520766108ESPANOLA, MERELY C.                                      0502
A4101400550000006044571TECSON, AIRENNE CELIZ                                    0501
A0101404840851403558001SOLIVERES, YOLANDA A.                                    0502
A0101404840851509778001LABAROZA, RAZEL GOLINGAN                                 0502
A0101404840851520766132CORNELIA C MONTE                                         0502
A0101406750000007879438MANALO, EVANGELINE CASTRO                                0502
B0101413860000001767848FRANSHELL MEDICAL SERVICES INCORPORATED                  1605
A0601400230000002650171SANTOS, K DBU ADRICH ENTERPRISE                          0502
A0601400230891525600001MARILYN OR CONRADO PACLA                                 0510
A0601400230891614688001OLALIA, LUZ FLORES                                       0501
A0601400230891738531001MARK ANTHONY CHUA OR GILBERT A                          10502
A0601400230891738531001TAYAO OR ABELARD                                        20500
