B0101408820333821100608**********                                               2001
A0101412500214062951001NAVARRO, RUBY PACIA DBU GLC                             10501
A0101412500214062951001TRUCKS & EQUIPMENTS                                     20500
A1001400350000007762367**************************                               0502
A0101400730111195439001TAN, ROWENA                                              0501
B0101402060351009365002GREEN VALLEY TOWNHOUSE OWNERS                           11601
B0101402060351009365002ASSOCIATION INC.                                        21600
A0101408370382227014001ANNIE T. COLEMAN                                         0502
A0101412890000000371599MARITA CHU OR BONIFACIO CHU                             10503
A0101412890000000371599DBU COBO PAVILLION                                      20500
A0101412890470340665001POLICARPIO, WILMA D. OR                                 10501
A0101412890470340665001POLICARPIO, REYMIL C.                                   20500
A0101400860000001005365***********                                              0504
A0101400860011421986001*********                                                0510
A0101400860011465021001**************                                           0502
A0101401250000000057065VILLAS, ROGELIA L.                                       0501
A0101401250000000441052ONGSUECO, SYLVIA K.                                      0502
A0101401250000005313422ROTONI, MARIA LUZ CLAUDIO                                0503
B0101400150061447303001TANY FOUNDATION, INC.                                    1605
A0601400520000003187193REES, PINKY LAQUINDANUM                                  0501
A0601400520000004423232LEIDHEUSER, ELIZABETH CHIONG                             0502
B0101410850000001229812CASAS NORTH TRANSPORT INC.                               1603
A0101400730111576442001ROMERO, LYDELYN TIANGSON                                 0502
B0101401960121339004001**********                                               1601
A0101413310000005433363VILLASENOR, MARJORIE ALABADO                             0501
B0101401830000000033569CARITAS SALVE CREDIT COOPERATIVE                        11604
B0101401830000000033569(CALOOCAN)-001                                          21600
B0101401830000000060022CARITAS SALVE CREDIT COOPERATIVE                        11602
B0101401830000000060022(CUBAO 011)                                             21600
A5001400170000001003381CALIMUTAN, OHARA DELA CERNA OR                          10502
A5001400170000001003381CALIMUTAN, REGIN                                        20500
B0101407270000000830368ONE FOOD GROUP MANAGEMENT SERVICES, INC.                 1605
A0101407270162202831003WILLY F. LIM OR                                         10501
A0101407270162202831003MICHAEL O. LIM                                          20500
A0101407270162478141001PHILIP HANS A. PAYAWAL                                   0502
A0101407270162528842003MIGUEL ROBERTO M. GARCIA                                 0503
A0101407270162720032001RONALDO D. PINGOL                                        0502
B0101401090171031978001STUDIO 234 GRAPHICS & DESIGN                             1601
A0101401090171199188001JOSE G. GALURA                                           0501
A0301400660000002913113UY, JOHNY DOMINGUEZ                                      0504
B0301400660000002348541ERVY LOGISTICS                                           1601
A0301400950000002115242**********                                               0501
A0101401380000000026902LEE, SUBEOM                                              0501
B0101401380201043880001ZHONGFA DEVELOPMENT, INC.                                1601
A0101401380201179684001ANTONIA C. CUNETA                                        0505
A0101401380201401087001MONTANO, RONALDO JAVIER                                  0504
A0101413020000000056955MACAPAGAL, JACKY LOU FULGENCIO                           0503
A0101410720210423361001MANUEL, IRENE ALVAREZ                                    0501
A0101410720653586480001IGNACIO, MARICEL DIWATA                                  0501
A3001400130000005708545FAYTONE, MARIA FATIMA MAGNO                              0502
A1301400470252499542001***************                                          0505
A1301400760253087654001CATHERINE F SANVICENTE OR                               10505
A1301400760253087654001VINCENT PAUL P SANVICENTE                               20500
A0101406460000001231485LAO, BONNIBEL OR LAO, ROBERT OR                         10501
A0101406460000001231485LAO, KYLE ANTHON                                        20500
A0101406460272611546001RAMIREZ, MARIOLA VILLANUEVA                              0501
B0101406620000000193942SOURCEFIT PHILIPPINES INC.                               1601
B0101406620000000962523TUNE BRADCO MART INC                                     1602
B0101406620273216386001CITIMEX, INC.                                            1602
A0101406620273720692001******                                                   0502
A0101412470000000520192ARCA, ESTHER DBU WASABE SPICE                           10503
A0101412470000000520192OF THE ORIENT                                           20500
A0101400570281536538001DRA. MARJORIE A. RAMOS                                   0502
A0101411240000000629152RAQUEL, JOMELYN VIRAY                                    0501
A2001400290315087033001ROLIDA, JASON UY                                        10503
A2001400290315087033001OR ONG, WILMER R                                        20500
A2001400290315087033002ROLIDA, JASON UY OR ROLIDA                              10503
A2001400290315087033002SANDRA, UYMATIAO                                        20500
A2001400290315688009001ALGOPERA, LLOYD GARCIA                                   0504
A3401400280000003309219ROMULO D. CAPUNONG OR RUELYN C.                         10506
A3401400280000003309219EDUQUE                                                  20500
A0101402350321179570001EPHRAIM NEAL C. ORTEZA OR                               10501
A0101402350321179570001IMELDA L. OLIVAR                                        20500
A0101402510341318724004SEGUNDINA Y. CASTRO                                      0502
A0101409050000002971384RESULLAR, ALLEN CURAY                                    0501
A0101409050352619345001TOMOHISA OKURA                                           0501
B0201400760374038778001CPERC                                                    1601
B0201400920375035545001GSG ARCHITECTS CO.                                       1601
A0101408370382457717001O.Q. MALANYAON, M.D.                                     0502
A0101408370382728827001AGNES B. GALURA-FAMERO                                   0502
A0101402770391472751004DE GUZMAN, JERVIE RACELIS                                0503
A5501400120000000265718JAVELOSA, TERESITA SEROFIA                               0501
B5501400120000000046842TACURONG FIT MART, INC.                                  1640
B2401400180411026932001NDBRC FOUNDATION KINDERMISSIONSWERK                      1601
A2401400180411272614002BALAYO, JOEL BASCO                                       0510
A0101403320000008284362MARIA SOLEDAD B. MIRASOL                                 0501
B0101403320000000522245MAGPIKIT RESOURCES INC.                                  1603
B0101406330472034490002RCBP STO. TOMAS DE VILLANUEVA PARISH                     1602
A0101406330472296884001JAYLEE TRADING                                           0502
A0101406330472296884001JAYLEE TRADING                                           0502
A0101406330000001235410SHIELA LAPUENTE                                          0501
A0101410140000005945231SUNGA, JERILY TANGLAO                                    0502
A0101412760000002067632VILORIA, REMEDIOS O. OR                                 10501
A0101412760000002067632VILORIA, EDUARDO C.                                     20500
A0501400170000000494651CHU, FELICIANA DBU NEW                                  10502
A0501400170000000494651POZORRUBIO MERCHANDISING                                20500
A3801400170000005287976LUNA, LINAFE GEMPES OR                                  10502
A3801400170000005287976LUNA JR., MANUEL CORREA                                 20500
A3801400170000005288020MAYETTE LAGUSTAN PINEDA                                  0501
A3801400170490063085001EVANGELISTA, OLIVA ILAGAN DBU                           10501
A3801400170490063085001LALAINE COLLECTION                                      20500
A3801400170490759443001ACOB, ELEANOR OR BROTONEL,                              10501
A3801400170490759443001ELVIRA  OR CACHA, EVELYN                                20500
A1901400160000004521311EVELYN APOSTOL LAVISTO                                   0501
A1901400160000000483783PAULA REA S. CASTOR                                      0502
B1401400110492041160001SAN DIEGO BUILDERS                                       1601
A1401400110492560122001VELUZ, NORMAN GAMBOA                                     0502
A1401400110000000132841*******                                                  0501
A1601400170000001360838SALIC, FARIDAH BERTODAN                                  0501
B0101406880000007430260ITALPINAS DEVELOPMENT CORPORATION                        1605
A0101411790518055764291SATO, KAZUTAKA SALES                                     0501
A0101403450521238076002**********                                               0501
A0101403450521238265001**********                                               0502
B0101403450521240030001**********                                               1610
A0101404130601521127001TIMBANG, AMELIA MENDOZA                                  0501
A0101407720602062463026ANGELITO A. BUENVIAJE                                    0501
A0101407720602062463027ANNALIZA J. SERRANO                                      0501
A0101407720602062463028GERMELINA M. MERCADO                                     0501
A0101407720602534681001DE MATA, CHRISTINE DENISSE A.                            0501
B0101404260000000156950PERG SECURITY AGENCY, INC.                               1610
B0101404260000004781357TRACEBEST INC.                                           1610
A0101409890649748239001**********                                               0508
A0101409920650478374005CRISOSTOMO, MA. EMELIA GASPAN                           10501
A0101409920650478374005MEMBERS OF NATAS                                        20500
A1301400210682037806001MANG PABLING MARKETING                                   0502
A0101408240000001038595REVILLA, JEROME COCHANGCO                                0501
A0101408240711384215003LOURDES GRACE MAPALAD                                    0502
B2801400230000000008313STRICKLAND, LAILANI DBU L&L TROPICAL BAY                11601
B2801400230000000008313RESTAURANT JT                                           21600
B2801400230000000008404A CHILD'S TRUST IS OURS TO NURTURE                      11602
B2801400230000000008404(ACTION), INC.                                          21600
A4101400390000007459198GUINOO, BERNARDO PRUDENTE OR                            10503
A4101400390000007459198GUINOO, ANA BOSCH                                       20500
B4101400390000003346198SUPERSTAR PACKAGING CORPORATION                          1601
A4101400550000003267014MALLARI, MICHAEL JOSEPH B.                               0501
A4101400550000003267127NAVEA, A DBU VELJO ENTERPRISES                           0501
A0101404840000003069889MIRANDA, JACK DBU BESTREAD                              10505
A0101404840000003069889TRADING                                                 20500
A0101404840851317230021ROMUALDO M. ALARILLA                                     0502
A0101404840851520766121ESTREMOS, LUNES                                          0502
A0101405070000003439741ALARO, JHON REY PADURA                                   0501
B0601400230891013055001SIX STARS REALTY DEVELOPMENT CORP.                       1603
