B0101408400000004733773SINCERE FACADE PHILIPPINES, INC.                         1603
B0101401250000000057258EXCEL PRO PLACEMENT AND SERVICES, INC.                   1602
A0101400150000002902412NAVATO, MAEBELLE P.                                      0501
A0601400100081254011001PANLILIO, MARIE CARMEN OR                               10501
A0601400100081254011001PANLILIO, AUGUST                                        20500
B0601400520000000398658PATIENT CARE CORPORATION                                 1601
A0101406040112206767001LUZMINIA ALANES OR                                      10502
A0101406040112206767001PEDRO ALANES JR.                                        20500
A0101401960000004419830**********                                               0501
A0101413150000003208335******                                                   0502
A0101412630000001823343CABANELA, JUDITH GUIRNALDA                               0503
B0101401830000006839241CIRIACO C. PASTRANA JR. OR EDMUNDO B.                   11601
B0101401830000006839241CADAVONA                                                21600
A0101401830141667242001VALDEZ, RONALD FAROL                                     0502
A7201400170000003774447LUMAAD, ARLINIEVA MONARCA OR                            10501
A7201400170000003774447LUMAAD, KELT MUTIA                                      20500
A0101412920000005866215LA GUARDIA, JUN PATRICK B.                              10505
A0101412920000005866215AND BARBOSA, RAOUL V.                                   20500
A0101400440161524842001GILBERT S. ESPINOSA                                      0505
A0101400440161525001139JEMARIE S. SALUDAR                                       0501
B0301400530000003573528RD PAWNSHOP, INC.                                        1601
A0301400790000008015121CADALZO, DENNIS SALOMERI DBU UL                          0501
A0101401380000000682582********                                                 0503
A0101401380000005320990**********                                               0502
A0101401380201292373001LIWAG, RAFAEL S. OR LIWAG,                              10502
A0101401380201292373001RALPH GERALD S.                                         20500
A0101412500000009229318MARY JANE TIO OR                                        10501
A0101412500000009229318ERNESTO TIO                                             20500
B0101412500214064913001PRESIDENT PREX EXPRESS CORPORATION                       1601
A0101413600000008636539CAROLINE F. CO                                           0502
B3101400160221019509001DYNASTY ALUMINUM, GLASS &                               11601
B3101400160221019509001GEN. MDSG CORP.                                         21600
B1001400190231306643001*********                                                1601
A1001400190000000124661OBRADOR, LOTESCHIN                                       0501
A1901400290000001362921SY, JEREMY EDWARD AFRICA OR                             10501
A1901400290000001362921SY, MARIA GINA AFRICA                                   20500
A1901400290000002126512JEFFERY CHUA SY OR HANNAH                               10501
A1901400290000002126512ERICKA AFRICA SY                                        20500
A1901400290000008851236EDWARD BONGALOS JAMIS                                    0501
A1901400290261021148001ACR CONSTRUCTION SUPPLY                                  0505
A1901400290261395813001PAZ LAYGO JOSE                                           0501
A1901400290261411419001TERESITA DIMAILIG PERCE                                  0502
A1901400290000007876860DRA. DIVINIA A DIMAYUGA                                  0502
B0101406620000003497074AMERICAN E-DISCOVERY RESOURCES,INC.                      1605
A0101412470000000853834CHUNG, EUN JOO                                           0502
A0101411240000001563333BUKAS, DENIS CONFERIDO                                   0502
B0101411240283821100608**********                                               2002
A2601400270000001009152COSTES,ROLAND DBU NORTHPEARL                            10501
A2601400270000001009152TRADING OR COSTES,VIRGINI                               20500
A2601400270302574301001ALEX UY TY                                               0501
A1101400120000003595977LATORRE, ARCADIO TAN                                     0502
A1101400120313478374205QUIAL, ROXANNE                                           0501
A0201400760374030540001ST. FRANCIS MANPOWER SERVICES                            0501
A0201400920375044441001SUI'S PRINTSONIC                                         0501
B0201400920000006433650CEBU HOLY INSTITUTE OF MARY INC.                         1602
A0201401020000003882100********                                                 0501
B0101402930381022284001INVESTORS ASSURANCE CORPORATION                          1601
A0101402930381381181001BERNARD FAH OR                                          10502
A0101402930381381181001MARIA CAROLINA F                                        20500
A0101408790000005293745GRACE ANNE L. GAZA                                       0501
B0101408790383047956001NOVARAD ASIA PACIFIC CORPORATION                         1603
B0101408790000003845749**********                                               1604
B0101405490392196738001BERNARDO MAINTENANCE SERVICES                            1601
A0101405490392563453002ALLAN L. DE GUZMAN OR                                   10501
A0101405490392563453002MARIVEL R. DE GU                                        20500
A0101408400000001614693ELICARL SALON                                            0502
A0101408400394159750001ROMERO, FRANCISCA BAUTISTA                               0503
B0101408950396564292001*****                                                    1602
A0101409180000002252513ENCABO, CARINA OR ENCABO,                               10503
A0101409180000002252513JESULITO RAMIR                                          20500
A0101409180000003780205SALARDA, JULIUS                                          0501
B0301400820000008105560KYWAYNE TRADING CORPORATION                              1610
B0301400820000008105571COMEDIDO, DANTE L. DBU DL COMEDIDO                      11605
B0301400820000008105571BAKESHOP                                                21600
B0301400820409091735055LIMA, WINDELL BRISTOL DBU DAVAO HOME                    11604
B0301400820409091735055BUILDERS CENTER                                         21600
B5501400120410044488008**********                                               1605
B2401400180411040003002BRIGADA MASS MEDIA CORPORATION                           1610
B2401400180411044070001MABUHAY TECHNOPARK CORPORATION                           1602
A2401400180000003949184SANTOS, PATRICIA CRUZ DBU                               10503
A2401400180000003949184PATRICIA TUBE ICE                                       20500
A2401400180411564736001CATULPOS, ELMER VILLEGAS OR                             10510
A2401400180411564736001CATULPOS, YELCY YASAY                                   20500
B0901400220432043554001GERRY'S GRILL                                            1603
B0101403030441707375001**********                                               1602
A0101403320000001646631SANTIAGO, LEILANI SANTIAGO                               0501
A1901400320000009242079JEROME M ARCEGA                                          0501
A1401400110000007186601xxxxxxxxxxxxxxxxxx                                       0502
A1601400170000001069090MARY NATHALIE P. MONTES                                  0503
B0101407430000000044926JOSEPH BINGE B. MACASERO                                 1601
B0101403580000004540641M22 BUILDERS INC.                                        1610
A0101403580511150737001LUIS JUAN L. VIRATA                                      0510
A0101405940512035308001UP-TECH BUILDERS                                         0503
A0101406880513033856001LLAMAR BEACH RESORT                                      0501
B0101406880513036413001VISAYA KNOWLEDGE PROCESS OUTSOURCING                     1606
A0101408530000001885783UZZIELYN D. DIAZ                                         0504
A0101411400000007169168AMON, ELEAZAR ESLLER                                     0501
A0101403450521073740001TANDAAN, LEO PANTE                                       0503
B0101404000000002799833XURPAS INC.                                              1601
A0101404000551735313001DE LUNA, PATRICK JOHN LUPISAN                            0501
A2201400250561028844002CHRISTIAN HOME FURNISHING                                0504
B2201400250000000016920STAPLERS INC.                                            1601
B0101404260611028921001KICEM TRADERS AND CO. INC.                               1610
A0101409890000003098008REYES, VINCENT ALEGRE                                    0502
A0101407690652096491001JAMES A. CABANERO OR                                    10501
A0101407690652096491001NIDA P. CABANERO                                        20500
A0101407690652478374034EDNA D. PENALVER - DEALERS OF                           10501
A0101407690652478374034SHOECAT, INC.                                           20500
A0101407690652525001060SUSANA MORENO - DEALERS OF                              10501
A0101407690652525001060SHOECAT INC.                                            20500
A0101413570656057650037MAXIMO RITCHIE ENCILA                                    0501
B1301400210682041444001SYCLOR CONSULTAX INC.                                    1602
B1301400210000000023554NORTHCEN DISTRIBUTOR, INC.                               1601
A1301400340683776169001BARAQUIEL, JOCELYN LIM                                   0502
A1701400230000004469730TOMAS, RAMIR ARTHUR MISERALE DB                          0501
B1701400230693621490002***                                                      1606
B4101400260000001199117EG RANESES TRADING CORP.                                 1601
B4101400550000000900036BACOOR DOCTORS MEDICAL CENTER INC.                       1603
A0101412340000002900330ROSELLE B. BORBE                                         0501
A0601400230000000990063**********                                               0506
A0601400230000000452840GOZUN, R-JAY RAMOS OR                                   10510
A0601400230000000452840GOZUN, MYRNA RAM                                        20500
