B1801400130151821100608**********                                               2010
B0101413310000000039978LIBERTAD TRADING CORPORATION                             1601
A1001400350000003867250PEARSON, LAARNIE PEARL ROA                               0502
A1001400350000000922172CAUBE, MARIVIC JAMERO OR                                10503
A1001400350000000922172CAUBE, VICTOR CO                                        20500
B30014001300000034346828TELCOM, INC. - BUTUAN                                   1601
A3001400130230757981001SACAY, RENE CANTOR OR SACAY,                            10501
A3001400130230757981001JOSEPHINE SIMBIT                                        20500
A2001400290315636172001KHO, EVAN HO                                             0502
B0601400100081038307001JOSEPH DENNIS C. SANGALANG                              11603
B0601400100081038307001ACCOUNTING FIRM                                         21600
A0101413310000001073938ESCANO, JOHN ANGELO DIZON DBU                           10502
A0101413310000001073938J.A.D.E TOWING SERVICE                                  20500
A7201400170000002791411HASAN, MOJAHED YUSOP OR                                 10501
A7201400170000002791411HASAN, NAILAH DIMAPORO                                  20500
A0301400790000001010620SIMON, DIOSEE GENTILES                                   0501
A0301400950000002115231**********                                               0501
A3101400450223310377002PENALOZA, RAINIER OR ROMA                                0501
A3101400450223689767001CHAVEZ, DOLORES PAR                                      0501
A3101400740224710022001DAVID, MERRY GRACE CORDERO                               0501
A3001400130000000007063GOLDEN HARVEST CATERING SERVICE                         10502
A3001400130000000007063FASTFOOD                                                20500
A1001400190000002170736MARABE, RIKKA LA VINA AND                               10503
A1001400190000002170736LA VINA, IRISH PARRENO                                  20500
B1001400190231025146001PHIL. PROGRESSIVE MASON CLUB.,                           1601
A1001400190231342333001BUSGANO, HIPOLITO S.                                     0503
A1001400190231478374170ENIOLA, MELODIA                                          0501
A1301400470252476879001JO-MARIO ANGELO E. MATIAS                                0502
B1901400290261027293001LIPA MEDICS INC.                                         1610
A1901400290261298552013LEONILA QUESADA GUEVARRA                                 0501
A1901400290261298552066DOLORES SARMIENTO MANGUIAT                               0501
A1901400290261432900001JULIUS PIO AFRICA RANA OR                               10501
A1901400290261432900001CHARMAINE DE GUZMAN RANA                                20500
A1901400290261478374009LEILA LUMANGLAS OLAVE                                    0502
A1901400290261488341052PERLA I OLAVE                                            0502
A1901400290261499267001ALBERTO GUEVARRA MENDOZA JR.                             0501
A1901400290261772647001ALEX CAMOS BUQUIR                                        0501
A0501400200000000473803OBRA JR., ROGER LAHURAN                                  0501
A1101400120000006186332MAGLASANG, LAARNIE VALES                                 0501
A6601400120000002249794BALDOS, BERNARDO INIGO                                   0503
A0201400920000002250022LIM, MARY ANNE FLORES                                    0501
A5501400120410622095001CORDER, JAIMELITA OR EDWIN                               0501
A2401400180411075579001JALALAGTOY, MARVIN SUAREZ                                0501
A2401400180411478374061JUNRES AGAD OR                                          10502
A2401400180411478374061NORMELITA BLANCO                                        20500
B0501400170481013344001RURAL BANK OF MANGALDAN,INC.                             1601
B0501400170481013344002RURAL BANK OF MANGALDAN,INC.                             1601
A1901400160491476162001GINA A PELESMINA                                         0501
A1601400170494076289001MARIA JOVI B. RAYCO                                      0501
B0701400260000000041083MULTI-WARE ECON-SALES CORPORATION                        1603
B0101403610531821100608**********                                               2005
A1301400210000003104912ZEN TEN TRUCKING AND HAULING SE                          0502
B2801400100712298202002WIDE-WIDE WORLD EXPRESS CORP.                            1603
A2801400230000001734732CITY REJUVENATING SPA                                    0502
A4101400260000005333471RAPISTA, JOHNNY APISTAR                                  0502
A4101400260000002888120CAHINHINAN, MARIA CONSUELO CHAN                          0501
A4101400390813478374020BLANCA, MARRISA                                          0502
B4101400420000000712025LOAN STAR LENDING CORP.                                  1605
