A0101400440000004901564DOVIE T. JERMIA                                          0502
A3001400130000001271312SHAPE & WELL NUTRITIONAL                                10501
A3001400130000001271312PRODUCTS                                                20500
B0101403580511005607002RAM FOOD PRODUCTS, INC.                                  1607
B0101403580511015363079MEC - BPO 3 & 4                                          1602
B0101403580511015363084MEC - PINES PEAK                                         1610
B0101403580000000015738MEC - SPV 5 & 6                                          1610
B0101403450521012009001SYMPHONY TECHNOLOGIES, INC.                              1603
B0101403450521029025001**********                                               1602
A0101403450521238185001********                                                 0502
A0101400860011452222001**********                                               0505
A0101400860011500268001**********                                               0502
A0101400150000008938907LANSANG, JENNIE FOJAS                                    0501
A0101400150000008938918DE LEON, ARIANNE ESCOTA                                  0501
A0101400150000008938941CIDRO, LANI JANE RAMOS                                   0501
A0101400150000008938970CRUZ, VERA DIMAANDAL                                     0501
A0101400150000008938992PISCO, ROMMEL BILBAO                                     0501
A0101400150000008939040PORAZO, JENNY MARIE UNO                                  0501
A0101400150000008939062BAUTISTA, BANJO ESPINO                                   0501
A0101400150000008939091MARAVILLA, CECILIA CANUEL                                0501
B0101400150061000544001CITIBANK - N.A.                                          1601
B0101400150061011053001HOYA LENS PHILIPPINES, INC.                              1620
B0101400150061018828001DOME CAFE FRANCHISE CORP.                                1610
B0101400150061484242001NORTH NEGROS BIOPOWER INC.                               1603
B0101400600000001335637**********                                               1602
B0101405810000000016822VANDA PAPER PRODUCT ENTERPRISES COR                      1602
A0101405810072265481001PLAZA, LEONORA LIM                                       0503
A0101405810000000016559CHUA, HEMAN LAO                                          0501
A0101405810072478374022***************                                          0501
B0601400100081013319001ANGELES CITY UNIVERSAL MARKETING                        11604
B0601400100081013319001CORPORATION                                             21600
B0601400100081018566001BLUE QUEST PURIFIED WATER STATION                        1601
B0601400360000003186645PUNTA DESIGN INCORPORATED                                1603
A0101413730000003715780**********                                               0501
B0101401960121456874001*****************                                        1605
A0101413150000003868300**********                                               0501
A0101412630000004061943SCHOLARSHIP PLANS PHILIPPINES,                          10510
A0101412630000004061943INC.                                                    20500
A0101401830000003508632LIM, JOVEN AGUILAR                                       0502
A0101401830141395937002JAVIER, DIA KRISTINE SERRANO                             0502
A5001400170000002288344ESPERITU, REYMOND NOBLES                                 0501
A0101400440000001440044ESTABILLO, ESTELITA CARPIO                               0501
A0101400440161039572034MARILOU F. TIRADO                                        0501
A0101400440000000596629ZENAIDA O. CALLEJO                                       0501
A0101400440000004901575PALMERO JR, ROMEO CABINTOY                               0502
B0101407270162024200001IGROS MARKETING CORPORATION                              1603
A0101407270162528842003MIGUEL ROBERTO M. GARCIA                                 0505
B0101401090171008012025UNIVERSITY OF SANTO TOMAS                                1602
A0101401090171196035001EDGARDO OR CECILIA ORLINA                                0502
A0301400530193686503001CORPUZ, GLENN A.                                         0502
A0301400790000003969531POL, ANGELITO DILIMA                                     0502
B0301400790000001244531LAGARTO, SHECEL DBU SHEER DEW                           11602
B0301400790000001244531PURIFIED WATER                                          21600
A0301400790000003969542TEYUSING, MICHAEL NG                                     0501
A0101401380000005219927MANGUBAT, PILAR CELESTE MERCADO                          0501
A0101410720653172153001RUTH OR ASTERIO LAGURA                                   0502
A3101400160221222331001MARETO METAL INDUSTRIES                                  0501
A3101400450223588221002GATDULA, JAMAILA AGONCILLO OR                           10501
A3101400450223588221002AGONCILLO, SUSAN                                        20500
A3001400130000000007063GOLDEN HARVEST CATERING SERVICE                         10502
A3001400130000000007063FASTFOOD                                                20500
A3001400130230478374026SONOT, RODERICK AMAHOY                                   0501
B1001400190231064130001OLANDER INDUSTRIAL TRADE CORP.                           1601
A1001400480000000133279DACUDAO, LILUISA OR DACUDAO,LEO                         10502
A1001400480000000133279JT                                                      20500
B0101401670271034948001REALTY INVESTMENTS INC.                                  1605
A0101406620000000962243ROXAS, MANUEL ROQUE                                      0501
A0101406620000001686940TOBIAS, ADRIAN LUIS MA CHENG                             0502
A0101400570000002329780REYES, GABRIEL AGUILA                                    0502
A0501400200292498779003******                                                   0501
A2601400270302698462001ALBERT C. LIM OR NELIA V. LIM                            0502
A0801400160000002681661NOE'S UPHOLSTERY FURNITURE & EN                          0503
A0801400160000006893043HTX TRUCKING SERVICES                                    0501
A0801400160311389143001CHAN, MILAGROS OR                                       10502
A0801400160311389143001CHAN, NATHANIEL                                         20500
A1101400120000000065103BELLO, TERESITA CASTARITAS                               0502
A1101400120313678888001TIU,EDGAR A. OR TIU,MARILYN Y.                          10510
A1101400120313678888001OR TIU,MARC ELDRICH                                     20500
A6601400120000002249823NOCHETE, ELIZABETH NOVILLA                               0502
A0101402350000002310725BAGUINON, SHEILA CASTANEDA                               0501
A0101402350000003080355TAPEL, BERTILLA TATEL                                    0502
B0101402350321031479001MED OPTIONS MULTI SPECIALTY CLINIC                       1602
B0101405650322023520001ACES CHASSIS LEASING INC.                                1602
A0101402060351020683001NMTK GLASS & ALUMINUM SUPPLY                             0502
A0101402060351086918001BENITO, EMMANUEL DETERA                                  0502
B0201400760374033964001BLAZE MANUFACTURING CORP.                                1603
B0201400760000007134341CLS PROPERTIES INC.                                      1602
A0201400920000000048031FMC CATERING SERVICES                                    0501
A0101408370000003774987FAJARDO, PIA LOREN VIVAR                                 0501
A0101408370382186593001DR. RENE V. REYES                                        0503
A0101408370382327513001DR. MICHELLE V. LUCIANO                                  0501
B0101408370382821200608**********                                               2002
A0101408790000005293643DIANE P. PABLICO                                         0502
A0101408790000008935840DAYO, ELDON MAGPANTAY                                    0501
B0101402770391009342001ALIWOOD TRADING CORPORATION                              1604
A0101405490000001092693JOVELYN V. LUCENO                                        0501
A0101408400000006054571LLAMADO, MARK ANTHONY T. DBU                            10502
A0101408400000006054571LDC MARKETING                                           20500
A0101408950000001039383ORIOLA, MARIA CONNIE UNDAG                               0501
A0101408950000008935782CABANTOG, MA. TERESA NOVESTERAS                          0502
A0101408950396563005001DR. ANDREW GABRIEL JACINTO                              10501
A0101408950396563005001TABBERRAH                                               20500
A0101408950000000776763LUQUE, MA. PAZ MILDRED                                   0501
B0101415190402821100608**********                                               2002
B2401400180411036177008VERTICAL BUILDERS                                        1605
A0101403030441300096001**********                                               0501
B0101403320471040565001HUMAN SHELTER REALTY CORPORATION                         1603
B0101403320471064355001SQUARE METER TRADING AND CONSTRUCTION                   11601
B0101403320471064355001CORP.                                                   21600
B0101410140000005945140KASAGANA-KA DEVELOPMENT CENTER,  IN                      1610
B0101412760000002068060SUPERV BUSINESS MANAGEMENT INC.                          1605
B0501400170481018109002****                                                     1602
B0501400170000001072957ALEJO, ERVIN MARQUEZ AND ALEJO, NORMAN                  11603
B0501400170000001072957MARQUEZ                                                 21600
B1901400160491012576001LIMACOR LENDING INVESTOR                                 1602
A1401400110000005181146DIASANTA, IVAN VILLAMAYOR                                0502
A1401400110000007186601xxxxxxxxxxxxxxxxxx                                       0502
B0101407430503044847001BANJAP PHILTRADE INC.                                    1602
A0101407430503225389002BRIAN A. PINEDA OR                                      10501
A0101407430503225389002MA. ELENA G. ARAGON                                     20500
A0101403580000000922667RUBY JEANNE BUERE SAYOC                                  0501
A0101408110000002907964JUAN ARIEL C. COMIA                                      0503
B010141179051805692200188 INFINITY LENDING POOL INC                             1602
B0101411790000007043912MAKATI GOSPEL CHURCH, INC.                               1603
A0101411790518086259001BANDAY, CELESTE EDULLANTES                               0501
B0101403450521011872001**********                                               1601
B0101403450521011913001DIVERSYS SPECTRUM PRODUCTS, INC.                         1610
B0101403450521031613001COMPOSITE ENTERPRISES CORP.                              1603
B0101403450521033882001**********                                               1610
A0101403450521567563001********                                                 0502
B0101404000551005464001JOHN CLEMENTS CONSULTANTS INC.                           1620
B0101404000551063197001VILLAFLOR, IRENE A DBU IRVIL ENTERPRISES                 1601
A2201400250561299317001MIRASOL M. SAN SEBASTIAN OR                             10502
A2201400250561299317001ALLAN M. SAN SEBASTIAN                                  20500
A2201400250561469451001ROMEO A. TAGUINES OR                                    10501
A2201400250561469451001MA. TERESA V. TAGUINES                                  20500
A2201400250000004916092DE GUZMAN, FRANCES MANIALONG                             0501
B0101404130000000696168PHILIPPINE DAILY INQUIRER, INC.                          1601
A0101407720000000245214LEORNA, IRENE CASUBUAN                                   0501
A0101407720602318369109NIDA A. EUSTE                                            0501
A0101407720000006028199DE PADUA, DONNA GONZALEZ                                 0501
A0101404260611150840001WILLY CHING OR ISIDORA CHING/                           10505
A0101404260611150840001GOLDSUN LUMBER                                          20500
B0101409890000003098213AQUINO, VIL DBU JOVAROM COMMERCIAL                       1602
B0101407690652017367002EAGLE BROADCASTING CORPORATION                          11605
B0101407690652017367002(NET 25)                                                21600
A0101407690000005198096MENDOZA, BRYAN PEREZ                                     0501
A0101413440000006680915LAGUESMA, FLORYVEE JOLBITADO                             0501
B0101413440000008938678QUERI, ROLANDO OR BERNADAS, MELCHOR OR                  11602
B0101413440000008938678ARGUELLES,JOSEPH                                        21600
A1301400210000002909340BALAGTAS, RAYMUND JESUSITO CHIC                          0502
A1301400340000002158476ALIPIO, ALMA DELOS SANTOS DBU                           10501
A1301400340000002158476ALIPIO GARMENTS                                         20500
B0101408240711038283002LAGUNA PARKS DEVELOPMENT CORP.                           1603
A4101400420000004847907CHUA, CHARLES TAN                                        0502
A4101400420814478374026FLORENCIA DELA CALZADA                                   0501
A4101400550000000900350SANTOSIDAD AUTO SUPPLY                                   0504
B0101404840851009262002STAR WEALTH REALTY & DEVELOPMENT CO                      1602
A0101404840851217637117MARIEL DE OCAMPO                                         0501
A0101406750000007879256BANGALISAN JR, ROLANDO BARUNGAY                          0501
A0101406750000005666771LONTOK, ARCANGELITA ROMILLA                              0502
A0101405070000006006166AGUASITO, JUNLY HERNANDEZ DBU J                          0501
