B4101400420814571500001TELDATA NETWORK & TECHNICAL SERVICE                      1602
A4101400420814478374030LIGAYA ILANO                                             0501
B0101400730111024044002CREDITNET PHILIPPINES INCORPORATED                       1605
B4101400420814023931001CHRIST'S COMMISSION FOUNDATION, INC                      1610
A4101400420814457337002ORDONEZ, JANE M. OR                                     10501
A4101400420814457337002ORDONEZ, JOSE IB                                        20500
A4101400420814478374043ESPINO, GEMMA D.                                         0501
A4101400420000002345280ACOL, FELOMINA ADOAN                                     0502
A0101408950000005325462HUFANO, MA. CHARMIAN MONTALLANA                          0503
A0101408950000005325582UY CHING, ROSSANA GACAYAN OR                            10502
A0101408950000005325582UY CHING, JOSEPH LOCK                                   20500
A0101408950000005325480NONATO, ROMMEL TALAMAYAN                                 0502
A0101408950396726811001GERARD M. MORALES OR                                    10502
A0101408950396726811001REGINA ISABEL S. MORALES                                20500
A4101400420814520766031GACOSTA, LORENZA N.                                      0502
A0101400730111035979001EMPRESS PRINTING                                         0502
B2401400180411017908001LWC CYCLE MART, INC.                                     1602
A2401400180411479333002NARSOLIS, ANALIZA GARBO                                  0501
B0101403320471008879002GOLDWIN MANUFACTURING                                   11610
B0101403320471008879002LABORATORIES                                            21600
A0101407720602165575005DR. MA. VICTORIA G. BELO                                 0510
A4101400420000000710461TIAMZON JR., ADELARDO REPUYAN                            0501
A4101400420814588219001RODRIGUEZ, GERMAN SANCHEZ                                0502
B0101406750852033894088AVELICON MARKETING CORPORATION                           1602
A0101406750852478374095LORENA N TANGPUZ                                         0501
A0101400860011568362001**********                                               0505
A0101400600071233721001**********                                               0502
A0601400100081040294001MOIKAI INDUSTRIAL SUPPLIES AND                          10503
A0601400100081040294001AUTOMATION SERVI                                        20500
A0601400100081335078001RUSH, MIRIAM OSTONAL                                     0505
B0601400100081557748001BELGOPHIL DEVELOPMENT CORP.                              1602
A0101400730000001822322JAQUELINE F. ERLANDEZ                                    0501
B0101400730000000002557NORTHSTAR TRAINING & CONSULTANCY INC                     1603
A0101406040112055495001********                                                 0505
A0101412630000000045270MASNAYON, GERAMAE GALANZA                                0501
A0101401830000004835172PARADELA, MA. ELVIRA BERTULFO                            0501
B0101401830000000033592CARITAS SALVE CREDIT COOPERATIVE                        11605
B0101401830000000033592TAYUMAN (004)                                           21600
B0101401830000000033605CARITAS SALVE CREDIT COOPERATIVE                        11605
B0101401830000000033605(QUIAPO-005)                                            21600
A0101401830141546547001REATAZA, NELIA MORABE                                    0503
A5001400170000005705197MAGBAGO, JUCEASAR MACALONG                               0501
A0101412920000002359128DIAZ, FRANZ JEREMY AGUAS                                 0502
B0101412920160063351001CELEBRITY CONSTRUCTION                                   1601
A0101407270000007525320RODICA, JOHN MARTIN BINGIL                               0502
A0101407270162380503001**********                                               0501
A0101401090171195906001DR. IRWIN V. RIVERA OR                                  10504
A0101401090171195906001DR. CLARA R. RIVERA                                     20500
A0101401090171200776003ALLAN DE BELEN DE GUZMAN                                 0501
B0301400530193014206001PANABO MULTI-PURPOSE COOPERATIVE                         1604
A0301400660000000194661*****                                                    0501
A0301400790000001244600YBANEZ, RITCHIE AGUIO                                    0501
A0101401380000005320990**********                                               0502
A0101401380201476813002TO, EVELYN LIM                                           0501
A0101401380000002297550**********                                               0501
A0101410720653768067001DELOS REYES, MA. ERIKA WONG                              0501
B3101400740224045253001MADISON SOUTH HOMEOWNERS' ASSOCIATION,                  11601
B3101400740224045253001INC.                                                    21600
A1001400190000003881903BOSSMANN TRADING AND                                    10502
A1001400190000003881903ENGINEERING SERV                                        20500
A1001400190000005709060NERY, JASON JAY JASPER AMPER                             0501
B1001400190231032559001COMMUNITIES CAGAYAN, INC.                                1602
A1001400350233675969001INESIN, LYDIA TRINIDAD                                   0502
A0101401670271228042001TINIO, JUAN ANGEL LIGON                                 10501
A0101401670271228042001OR TINIO, MARIA CELESTE                                 20500
A0101406620000000193691VASQUEZ, PAMELA TELMO                                    0501
B0101406620273017284001ACCENT MICRO TECHNOLOGIES, INC.                          1605
B0101406620273045167001VENTURANZA, HOSTALERO AND COMPANY, CPA'S                 1601
A0101406620273213660001EMILIANA G. MAURICIO                                     0502
A0101406620273337587001SIMPLICIO C. BELISARIO JR. OR                           10504
A0101406620273337587001J0CELYN G. BELISARIO                                    20500
A0101411110000000009189**********                                               0502
A0101411240000008331593TUANGCO, JAMES TAGLE                                     0501
A0801400160311267002001****************                                         0502
A0801400160311478374079MANUEL F. RAGANAS JR.                                    0503
A6601400120314385521001PASAG, DR. CLIFF OR                                     10502
A6601400120314385521001PASAG, DRA. MARI                                        20500
A6601400120314630541002LIAD, ROSIE ORTIZ                                        0502
A0101405650000002325691NAOE, PATRICIA ORONAN                                    0503
A0101405650322041213001EL SEGUNDO TRADING                                       0501
B0101405650322043924001THE PALMRIDGE SCHOOL INC.                                1602
B0101405650000004410062VONWELT INC.                                             1601
A0101402060351445404001ACOSTA, REYNALDO DELA TORRE                              0502
A0101409050000003533593BERONILLA, BRYAN                                         0501
A0101409050000003536309CRUZ, JOEL DIMAANO                                       0501
B0101409050352009377001ESLA LAND DEVELOPERS, INC.                               1604
B0201400760374046036001SAM SOWAH SHIPPING CORPORATION                           1602
B0201400920375526997001**********                                               1602
A0101408370382206455003DR. RUBEN G. KASALA OR                                  10502
A0101408370382206455003DR. MA. CARMELA KASALA                                  20500
A0101415350000006212948ESTEBAN, ELMER ANGELES                                   0502
A0101402770391028626002RED ELEPHANT TRADING                                     0502
B0101405490392047246001JOCELYN C. DELA ROSA DBU JRD FREIGHT                    11601
B0101405490392047246001FORWARDING                                              21600
A0101408950000005325902BOMBAY, CHRISTINE YANGO                                  0502
B0301400820000000132618LEI, WILSON OR LEI, MATILDE OR LEI, JAN                 11601
B0301400820000000132618MICHAELSON                                              21600
A0301400820000006542754CORONADO, TAMERLANE D.                                   0502
A0301400820000007134972YAP, PHILIP UY                                           0510
A0301400820000007372810GOLIMLIM, MARICHU M.                                     0502
A2401400180411275790003MALCAMPO, DIOSIE AGUIRRE                                 0502
A2401400180411276219002NONO, JENNY DIZON                                        0502
A2401400180411288023001MANANGQUIL, MA. SOLEDAD BETITA                           0508
A2401400180000000427985CULLO, KRISTIANNIE LOVE ROSARIO                          0503
A2401400180411605033001SERRANO, DANIEL EMBAYARTE OR                            10510
A2401400180411605033001SERRANO, SYLVIA                                         20500
A1201400150421257375001MARA ALOHA DIAZ                                          0505
A1201400150421478374014PERIDO, MARY JANE                                        0503
A0101403320000008334394NILO L. GO JR.                                           0501
A0101403320471478374079FILEMON R. SANTOS                                        0503
A0101406330472027958001A. ANOLIN ENTERPRISES                                    0502
B0101406330000000432897MITC EMPLOYMENT AGENCY INC.                              1602
A0101406330472478374044ARMES SMITH B. ALVARADO                                  0501
A0101410140475751670001MISAGAL, TRISTAN GRAGAS                                  0501
B0501400170000000018317DAGUPAN DOCTORS VILLAFLOR MEMORIAL                       1601
A0501400170481320433004MELENDEZ, AURORA REYES OR                               10502
A0501400170481320433004COQUIA, MARIBETH                                        20500
B1901400160491341189001VIRGINIA R VARGAS OR                                    11601
B1901400160491341189001RICHARD D LIM                                           21600
A1901400160491546773001IRENEA M ERLANO                                          0501
A1401400110492321242001***************                                          0506
A1401400110000001095916SY, DENNIS LOO                                           0501
A1401400110000000628502MANALO, GLORIA GARCIA                                    0502
B0101407430000001213169FAST LANE INTERNATIONAL LOGISTICS INC.                   1601
A0101407430000003193957ISAAC JAMES D. JIMENEZ DBU                              10505
A0101407430000003193957JADO TRUCKING                                           20500
A0101408530000002980910CLETO, ANTHONY CRUZ                                      0502
A0101408530000001268708ZOBEL, JACOBO TRISTAN CARDENAS                           0510
A0101411790518055764296BESMANO, JOSEPH CEZAR VILLON                             0501
A2201400250000002337982DURIMAN, ERLINDA BALINGIT                                0501
A2201400250561297004070OLIVIA C. TIMBOL                                         0501
A0101407720602163314001SALLY KING JOAQUINO OR                                  10506
A0101407720602163314001JACQUELINE JOAQUINO                                     20500
B0101412180000001293038WESTMONT INDUSTRIAL SALES INC.                           1601
A0101409890649047047001**********                                               0508
B0101409890000006812768REPUBLIC POWDERCOAT CORPORATION                          1605
A0101409920650478374009PABILONIA JR. SALVADOR B.                                0501
A0101413440000006680846VALERO, VALERIE ANNE FELIZA DE                          10501
A0101413440000006680846GUZMAN                                                  20500
A0101414120000000875550STORM CONSTRUCTION                                       0502
A0101406590662478277001SY, RAMONITA YBANEZ                                      0501
B0101410300000000191644KINETICORE CO.                                           1602
A1301400340683763698001MANUEL, MARIVIC LAGMAN                                   0501
A1301400500000000213083JUANITO F. GREGORIO OR AURELIA                          10501
A1301400500000000213083S. GREGORIO                                             20500
B1301400500000005963437SOFIETH FOOD CORP.                                       1605
A1301400500684589977001VIOLAGO, MA. LORENA M.OR                                10501
A1301400500684589977001VIOLAGO, GIDO C.                                        20500
A1701400230693478374056ROSQUITA, RUENA PILAR                                    0501
A0101408240000003955380OCAMPO, MA. CHRISTINA IMPERIAL                           0501
A0101408240711396310001LESTER C. VICTORIA OR                                   10502
A0101408240711396310001GIL JOSE E. PULUMBARIT                                  20500
A4101400390000007459212BERNAL, MARILEN SOSA DBU AKB                            10501
A4101400390000007459212CATERING & FOOD SERVICES                                20500
A0101412340000005566550WHILMA P. PARAS DBU WPP TRAVEL                          10502
A0101412340000005566550CONSULTANCY                                             20500
A0101412340000001017503ORDONEZ, MAMERTA ALVAREZ                                 0501
B0101405070861046894001BUDGET TRAVEL & TOURS, INC.                              1605
A0601400230000003015903ABAD, ARNALDO MAGCALAS                                  10502
A0601400230000003015903OR ABAD, CONCHIT                                        20500
A0601400230000002310252VALENCIA, VICTOR R.                                      0502
A0601400230000000452840GOZUN, R-JAY RAMOS OR                                   10510
A0601400230000000452840GOZUN, MYRNA RAM                                        20500
