B1001400350233821100608**********                                               2010
A0101414120000003190907CHRISTIAN LEYGO OR MHARISTIANE                          10501
A0101414120000003190907LEYGO                                                   20500
B0101410140000007303642KABUHAYAN SA GANAP NG KASARINLAN CR                      1610
A0101400730111587293001AGAD, JENNILYN VALEZA                                    0501
B0101412470000003847507SUGARLAND GLOBAL HOLDINGS INC                            1602
A1401400110492777638001DY, EDNA AYCARDO                                         0506
A0101413990000006434897CASTILLON, DARIAN M. DBU                                10501
A0101413990000006434897D-MANGADA BAG REPAIR SHOP                               20500
B0101400860000000100830**********                                               1602
A0101400860000002333513******                                                   0501
A0101400860011035923001**********                                               0501
A0101400860011452750001**********                                               0501
A0101400860011533026001**********                                               0502
B0101400860000000030268**********                                               1605
A0101401250000002131891MAGAS, CRISANTO PACUMBALA                                0501
A0101411370000003294900FARRALES, MARCUS GLEN B. DBU                            10502
A0101411370000003294900GOLDLINE BROKERAGE SVCS.                                20500
A0101400150000002902605RITUALO, JOEL BANAGA                                     0501
B0101400150061010677001MENZI AGRICULTURAL CORP.                                 1603
B0101400150061047235001ROYAL METRO POINTE DEVELOPMENT INC.                      1602
A0101400150061334116001MICHAEL A.P. ADAMS                                       0503
A0101400150061372223001RAFAEL ANTONIO R. MONTILLA                               0501
B0601400100081256915005KWONG, WILLIAM G. OR                                    11604
B0601400100081256915005ANTONIO, ADELA                                          21600
A0601400100081300983001MARILYN OR JONATHAN LACSON                               0502
A0601400100081478374001SANCHEZ, REGINA OR JERRY                                 0504
A0601400100081796671001ERANIO, CHERLYN BUENO                                    0501
A0601400360000002282260SANTOS, RAMON ARCIGA                                     0502
B0601400360000008477261SABELLON, JACKIELYN CAINGAT DBU KIT                      1601
A0601400360083630850001CALAGUAS, MARIE ROSE REYES                               0501
A0101410850000005316752**********                                               0501
B0101410850109065680001ONIX MOVERS CORPORATION                                  1601
A0101400730000004948529LACUROM, EFREN BASALO                                    0501
A0101400730111047618004RONALDO BAARDE PRADO                                     0501
A0101400730111047618004RONALDO BAARDE PRADO                                     0501
A0101400730111361187001RAYMUNDO JR, JOSE MARCELO                               10503
A0101400730111361187001& OR MARILOU C.                                         20500
A0101400730111423961001ROCES, RAFAEL VILLAREAL                                  0502
A0101400730111540584001CU, CARMEN SY                                            0501
A0101413150000003208233******                                                   0502
A0101412630000005566970ALEJANDRINO, ARGEL MALLARI                               0502
A0101413310000008415343BURGOS, LANI SIOSON                                      0501
B0101401830141032221001CARITAS ET LABORA HUMAN RESOURCE SERVICE                11610
B0101401830141032221001COOP.                                                   21600
B0101401830141036385001P.I. HARDWARE & MILL SUPPLY, INC.                        1601
A7201400170000003774010FERRAZ, JIMMARY VIC CANETE                               0503
B7201400170000007185631CHIONG, GARY LUY                                         1604
B0101400440161022597001PHILMAN POWER CENTER INC.                                1612
A0101400440161030637001AREMCI BUILDERS                                          0505
A0101400440161478374006JOSEPHINE R. VEGA                                        0501
A0101407270000003786750SERVANEZ, IRIS JUNE MINANO or S                         10501
A0101407270000003786750ERVANEZ JR., VIC                                        20500
A0101407270000009717702ARNANTE, EVELYN CEDILLO                                  0501
A0101401090171280976001MA. CLAUDETTE A. AGNES OR                               10501
A0101401090171280976001JONATHAN AGNES                                          20500
A0101401090171341240002RAUL M. SUNICO                                           0502
A0301400530000005300230MIRAFUENTES, MARY JEAN RECANA                            0501
B0301400660000006862640EMARCOS BUILDERS AND SUPPLY                              1602
A0301400660000002913180**********                                               0503
A0301400950000008000660PE BENITO, HAZEL ANN NERI                                0503
A3101400160221674966001ERIC S. CUENTA                                           0501
A3101400450223223308001DRA. JEAN FRANCES A. NOBLEJAS                            0502
B3101400740000000013878S & P MEDICAL AND DENTAL TRADING, INC.                   1605
A1001400190231478374075BARRON, LORNA                                            0501
A1001400190231520766112ALIBIO, NELYBETH TACBOBO                                 0501
A1001400190000000016446JOMOC, RENETH TAGARDA                                    0501
A1001400190000001057396LOLITA B. DULCA                                          0501
A1001400350000003867250PEARSON, LAARNIE PEARL ROA                               0504
A1001400480000006270340DAING, DAISY SALVANA                                     0501
A1301400760000000050499PAOLO'S TRUCKING                                         0505
B1301400760253821100608**********                                               2002
A1901400290000006560103DR. DAISY SANCHEZ-MOSTIERO                               0502
B1901400290261013980001VIC IMPERIAL APPLIANCE CORP.                             1602
A1901400290261048993001PINKY GUCE TANGONAN                                      0502
A1901400290261093134001JOY PANALIGAN KATIGBAK                                   0502
A1901400290261250069001DRA. JABES BUCE CARRASCOSO                               0505
A1901400290261298552105AIDA NABOS REYES                                         0501
A1901400290261298552118CONCEPCION GONZALES ESTIGOY                              0502
A1901400290261392434001HELENGRACE S AFRICA                                      0502
A1901400290261478374031REALYN MARASIGAN CUENCA                                  0503
A1901400290261493025084NESTOR L. ATIENZA                                        0503
A1901400290261567865001ALEX IAN SISON DE LA CRUZ                                0501
B0101401670271020834002EMSYCLAR, INC.                                           1602
B0101401670271020951001LOTUS POINT RESEARCH, INC.                               1602
B0101412470000002338872ACTS ACHI & AHIA, INC.                                   1601
A0101400570000003891550ABELLA, JENEFE BIRAO                                     0501
A0101411240000009692380MALUBAY, VICHELM REY NIERE                               0501
A0801400160000002287669ANTIDO, ELLEN JOY ABAJAR                                 0502
A0801400160311478374056CECILIA B. ASTROLOGO                                     0502
A6601400120000001065310GETALADO, NORIEL LUCERO                                  0501
A6601400120314401883001UY, ELLEN CHRISTINE WAN                                  0502
B2001400290315063250001THE BLU CITRUZ COMPANY                                   1601
A3401400280000005525322DOLOROTA, JEANDY GINCO                                   0502
A3401400280000000784692VISTA, LECEL CERILO                                      0502
A0101402350321478374017RIZA G. SANTOS                                           0501
B0101405650322019221001ROTARY CLUB OF PQUE. METRO                               1601
A0101402510000009366969GALLARON, MARICAR ABAN                                   0504
A0101402510341488964001RADA, ESTER TORRES                                       0501
A0101402060000005137348YAPCHIONGCO, KATRINA BAUTISTA                            0502
A0201400920000001331760MONSANTO, DBU COSMOPOLITAN FILM                         10501
A0201400920000001331760PRODUCTION                                              20500
A0201401020000007458220MADELYN L. TOQUERO                                       0501
A0101402930000007031329DELA CRUZ, MARIBEL CANALE                                0502
B0101402930381040001001TURQUOISE TRAVEL & EVENTS                               11602
B0101402930381040001001MANAGEMENT CORP.                                        21600
A0101402930381552082001CATABAY, JOEL GALOPE                                     0501
A0101408370000000586050CATIBOG, JOLLY JASON SANTOS                              0501
A0101408370000000335584DR. MARIA KAISERIN J.                                   10501
A0101408370000000335584SANTOS-LIPANA                                           20500
B0101408790000000599862GOFAST LOGISTICS INC.                                    1602
B0101402770000006812433CIENTO SYSTEMS CORPORATION                               1602
A0101402770000001571375EDITHA C. DIONISIO                                       0502
A0101408400000000607710AGUILAR, CLAUDETTE CAPULONG                              0501
A0101408400000000471185CRYSTAL, MARY JANE RUEDA                                 0503
A0101408400000003120725ANG, ALFONSO ONG                                         0501
A0101408400394026124001GYSERHEAD PURIFIED WATER                                 0501
A0101408400394408282001DEL ROSARIO,HELEN/GARCIA,EVELYN                         10502
A0101408400394408282001LIM,ELAINE                                              20500
A0101408400000003120703DATUMANONG, JOHAIRAH CAMAMA                              0502
A0101409210000007762794RAMIREZ, GUIDO HONORE CAPULONG                           0501
A0301400820000004745842JAAKRIS FUD HAUZ AND CATERING                           10502
A0301400820000004745842SERVICES                                                20500
A0301400820409093916001RACILLO, FRANK OR                                       10502
A0301400820409093916001RACILLO, MACLARA                                        20500
B5501400120410044008008FRANCISKOZ MOTORCYCLE PARTS,SRVCS &                     11603
B5501400120410044008008ELEC. SUPPLIES                                          21600
A5501400120410677708008PE JR., ARTHUR BORJA OR MARIA                           10501
A5501400120410677708008LUCIA OR SABLON,                                        20500
A2401400180000005536712CALERO, MARIA JOCELYN SUNIO OR                          10501
A2401400180000005536712CALERO, FERNANDO                                        20500
A2401400180411372265001LOPEZ, ALLAN GO                                          0501
A1201400150000006154963DY, VIRGINIA TAN OR GO, ANITA                           10503
A1201400150000006154963DY OR CASTILLO,MARY ROSE                                20500
A0101412890000007095583ELIECEA RED FOOD SERVICES                                0501
B0101406330472034981001DOMINIC CONSTRUCTION, INC.                               1601
A0101406330472296884001JAYLEE TRADING                                           0502
A0101406330472478374043ROLLY A. MALLARI                                         0501
A0101410140000001940110BARRIOS, MARISSA ACHACOSO                                0501
B0101412760476048068001BARBOZA JR., GAUDE DBU GAB MANPOWER                     11601
B0101412760476048068001AND SERVICES                                            21600
B0501400170481065669001JOLECO RESOURCES INC.                                    1601
A0501400170481090478001CAPIRAL, ALEJANDRO C. OR                                10501
A0501400170481090478001CAPIRAL, YOLANDA                                        20500
A3801400170000000955062BABY ROSE B GONZALES                                     0502
A3801400170000002302807SY, EDGARDO CHENG                                        0502
A1901400160491063374001EG PLUS FEEDS AND POULTRY                               10501
A1901400160491063374001SUPPLY                                                  20500
A1901400160000005794927CLEOFE, LOURDES PEREZ                                    0505
A1901400160491641033001ULYSSES M CHAVEZ OR                                     10502
A1901400160491641033001LETICIA M CHAVEZ                                        20500
A1401400110492375798002RIVA, RICHARD                                            0503
A1601400170000000497423MENCHU R. BUADO                                          0501
A1601400170000000497569MARISSA A. ARCANGEL                                      0501
A0101407430503478374009HAIDEE F. LIM                                            0501
A0101403580511156576001NIDAN E. ALBA                                            0502
A0101403580000005328490BULANHAGUI, MA. GINA OTACAN                              0502
A0101403580000003777486PASTRANA, MA TERESA JACOBO                               0501
A0101403580511742901001MARIA CARMELA M. PERALTA                                 0502
B0101405940000000002773BT AUTO SPORT CORP.                                      1603
B0101405940000003571793UNIVILLE DEVELOPMENT CORPORATION                         1601
A0101408110515679384001LUDIVINA L. HIPOLITO                                     0502
B0101411790000005537037FAMOUS PACIFIC FORWARDING PHILS.,INC.                    1602
A0101411790518055764371BANBAH, MUNISH                                           0501
A0101412050000009200202JOAQUIN, ROWENA KRISALYN TORRES                          0501
B0101403450000006055778HT-S VENTURE PHILIPPINES CORPORATION                     1602
A0101404000551408537001PERPETUA, ERICSON MAQUIRANG                              0501
A0101404130601484464001DILAO, MARCELINA HERNANDEZ                               0501
A0101407720602472259001CALILONG, LORELEI IRA                                    0501
A0101404260000007498313BADULIS, REYMAR AGUSTIN                                  0502
A0101404260611005236001WILTRON ELECTRONICS                                      0502
A0101404260000003498420LABRADOR, ROGELIO DBU PRL METAL                          0502
A0101409920000007304903MAGNO, HERMINIA PAJARILLO                                0501
A0101409920000000523584MASACUPAN, PHILIP GONZALES                               0503
A0101407690000000495494CARBUNGCO, MA GLORIA LIMGUANGCO                          0502
A0101407690652462352001DYTOC, JULIET SIA                                       10501
A0101407690652462352001OR FELIZA DYTOC                                         20500
A0101407690652525001056ENRIQUE, EMY SANTOS - DEALERS                           10502
A0101407690652525001056OF SHOECAT INC.                                         20500
A0101413570000001720212NIMFA C. ESPULGAR                                        0501
A0101413990000006278124ENCINARES, ROVILYN RODRIGUEZ                             0501
A0101406590662035265001******                                                   0502
A0101406590662289338001KIM C. DINO                                              0503
A0101410300000006278551MENDOZA, DIANNE DIONISIO                                 0502
A1301400210682555728001MARINA M. ROQUE                                          0506
A1301400340683093687001CANTOR, DANJELLO NAVARRO                                 0501
A1301400340683400365001MEDINA, EUGENIO DE SAGUN                                 0502
A1701400230693478374080MANEJA, MARIEGIN RAMOS                                   0501
A0101408240711378646001FELMA C. ONG                                             0502
A0101408240711399428001JOSELITO OR ROSEMARIE RAFAEL                             0502
A0101408240000003501362RICAFRENTE, MA. ANALYN DELFIN                            0503
A0101408240000003501362RICAFRENTE, MA. ANALYN DELFIN                            0504
A2801400100000006977402CASTILLO, NOEL MERCADO OR FLORE                         10501
A2801400100000006977402S, REBECCA CASTILLO                                     20500
A4101400260812041696001LUCKY RED CONSTRUCTION AND                              10502
A4101400260812041696001TRADING                                                 20500
A4101400260000006042917MANALO, JEFFERSON S. DBU J.S. M                          0501
A4101400260812409493001AMELIA RAZON OR EMILINO RAZON                            0501
A4101400390813329357002DESBARRO, JOHN ONG                                       0501
A4101400420000000018460MABBORANG, GARY D OR                                    10502
A4101400420000000018460MABBORANG, CHARITO D                                    20500
A4101400420000000710103JARIN, MARIA FE SAPINOSO                                 0502
A4101400420814520766131LACSON, MELIZA FRANI                                     0501
A4101400420000002345280ACOL, FELOMINA ADOAN                                     0502
A4101400420000003715724FLAVIANO, PERLITA                                        0501
A4101400550000001332427HILAGA, R DBU RGM EXHIBIT AND                           10502
A4101400550000001332427EVENTS SERVICES                                         20500
B4101400550000000900138WILSTAR HARDWARE AND CONST. SUPPLY CORP.                 1602
A4101400550000007583733SERVELINE MERCHANT                                       0501
A0101412340000001017930SONIA MEDINA SIBI                                        0501
A0101412340000007305520ROWENA P. GONZALES                                       0502
A0101404840851316655007JOSE S. MARCO, JR.                                       0501
A0101405070861197518001RICARDO G. CHAN OR                                      10505
A0101405070861197518001OLIMPIA C. CHAN                                         20500
A0601400230000000452840GOZUN, R-JAY RAMOS OR                                   10510
A0601400230000000452840GOZUN, MYRNA RAM                                        20500
