B1901400290261821100608**********                                               2010
A4101400260000009533699BAYBAY, MICAH JANE DELOS SANTOS                          0502
B0101402350321016640001ST LAWRENCE ACADEMY                                      1601
B1601400170000000036160LEGAZPI FOUR SEASONS                                    11603
B1601400170000000036160RESTAURANT, INC.                                        21600
A0101401250000000907175LUCTO, DIOSA SUAZO                                       0501
A0101401250021180401001LOVEREZ, RENE JORDAN                                     0505
B0101400150000001708425INTELUCK CORPORATION                                     1602
B0101400150061010825001FISHWATER DEVELOPMENT C0RP.                              1601
A0101400150000000806677EMELITA PURISIMA                                         0501
A0101400150061626610001********                                                 0502
A0101400150061775630001RESURRECCION, ALLAN CLOMATA                              0501
A0101400600000000007661******                                                   0502
A0101400600071507394001********                                                 0502
B0101405810072019239002ROYAL PINNACLE ESTATES CORP.                             1601
B0101405810000005943331TRANSWELL ENGINEERING CO.                                1601
A0101405810072235171002SY, LILY LIM                                             0501
B0101405810072557134001JSG PREMIER HOME INC.                                    1601
B0601400100081013041001SEVERINA REALTY CORPORATION                              1604
B0601400100081039107001REPLICAS MARITIME & AVIATION MODELS INC.                 1604
A0601400100000010025002TOLENTINO JR., CESAR LAPIRA DBU                         10503
A0601400100000010025002CELIANTO ENTERPRISES                                    20500
B0601400520000000398670UNIWISE VISUAL ADVERTISING CORPORATION                   1602
A0101413280000000312643CARLOS R. ATAYDE OR                                     10501
A0101413280000000312643CARMEN M. ATAYDE                                        20500
A0101413280000000041852OLA, EDAM CRUZ DBU HIJK SHIRT                           10501
A0101413280000000041852PRINTING & DESIGNS                                      20500
A0101413280000003762247CARGAMENTO JR., E DBU EDILBERTO                         10502
A0101413280000003762247CONSTRUCTION                                            20500
A0101413280092062132001REIKEN AUTOMOTIVE SUPPLY                                 0501
B0101413730000008263883*****                                                    1602
A0101410560110478374011MARIQUIT A. PAREJA                                       0501
B7201400170000003773535JUSTINIANO, MARIO L. AND DELOS SANTOS                   11601
B7201400170000003773535MARIA THERESA M.                                        21600
A7201400170000003774083AMOROSO, CARL LEWIS LEGASPI                              0502
A7201400170000003774163SEPADA, MACARIO NAVARRO OR                              10503
A7201400170000003774163SEPADA, JUVY PACARAT                                    20500
A0101400440000000596590OASAN, CHRISTOPHER GARCIA                                0501
A0101400440000001440000LAPASARAN, MARY GRACE FRANCISCO                          0503
A0101400440161478374076JAYNE D. BARBIN                                          0501
A0101400440161478374198EUFRONIA I. BERGONIA                                     0502
A0101400440161525001159MARITES P. MONTALBAN                                     0502
B0101407270162038101001BIRDS INTERNATIONAL, INC.                                1603
A0101401090171199858001RODELIO DOMINGO LIM                                      0502
A0301400660000005691803**********                                               0501
A0301400950000002115242**********                                               0501
A0301400950000002252017**********                                               0502
A0101401380000000792007DATINGUINOO, MARIGRACE INGUILLO                          0501
A0101401380201299840001KIM, JI YOUNG                                            0501
A0101413020000006296002RUTAQUIO, JOAN TENA                                      0502
A0101410720653478374041HISPANIA MALVAR                                          0501
B0101413600000000206755******                                                   1601
A3101400160000008941380GARCIA, GONZALO R. OR GARCIA,                           10501
A3101400160000008941380PRINCESS MONA LOISE D.                                  20500
A3101400160000000429032LOIDA P CALDERON                                         0501
A3101400450223418716001GARCIA, JESUSA CORAZON PLAZA                             0502
A3101400450223442002001GARCIA, ROSALINA OR                                     10502
A3101400450223442002001JESUSA CORAZON                                          20500
B3001400130230043293001L.M. TING FOODILICIOUS CORPORATION                       1620
A3001400130230478374028MAGLASANG, ELIZABETH DAHANG                              0502
B1001400190231032559001COMMUNITIES CAGAYAN, INC.                                1605
A1001400190231478374001OCERO, ALGENE                                            0502
A1001400190231520766008ADANTE, MAILLEN GALLETO                                  0501
A1001400190231520766119CABANO, BERNADITH CATIWALAAN                             0501
A1001400350000007762538HERNANDEZ, HIYASMIN TAYLO                                0501
A1001400350000008698800TALANDRON, LILIBETH CATAMCO                              0502
A1301400470252478374021RIZANETTE F. SANTOS                                      0501
A1301400470252492023001EVANGELINE D. JAVIER                                     0503
A1301400470000001299043MONRICO EVAN DIAZ JAVIER                                 0501
A1301400470252584562001ROWENA M. REYES                                          0501
B1901400290000001363188RD PAWNSHOP, INCORPORATED                                1606
A0101406620000010591249NICANOR M. MONTESINES                                    0501
A0101406620000010591290ALLAN L. YUMUL                                           0501
A0101406620000010591318ROSSANA S. PAGULAYAN                                     0501
A0101406620000010591341ADELMO S. DANAN                                          0501
A0101406620000010591392RHEA DEBBIELOU A. PARTOSA                                0501
B0101406620273017460002ACCENT MICRO PRODUCTS, INC.                              1605
A0101406620273417637001LAPUZ, ANNE SHARLYNE GOBOY                               0501
A0101408660000000373062CHARITY SOLIS PRICE                                      0501
A0101408660000005109773RICAFORT, JESUS MARTIN JOSE                              0502
B0101408660274048368001PAN GLOBAL REALTY DEVELOPMENT CORPO                      1602
A0101411110000011007488ARITHMETICO G LIM                                        0501
A0101411820000003837952CHRISTOPHER DE JESUS DOMINGO                             0501
A0101411820000001356241HAO, KENNETH MONDIDO                                     0502
A01014118200000049817911OSE WILLIAM L. YUTUC OR                                10501
A0101411820000004981791MICHAEL VINCENT MANALO                                  20500
A0101400570281192586002LORINDA ANG OR JENNY JILL DY OR                         10503
A0101400570281192586002LINDSAY RITZ ANG                                        20500
A0501400200000005751646JACINTO, JOCELYN ORPILLA                                 0502
A2901400130000009071745CRUZ, EDUARDO PUNZALAN                                   0502
A0101402350000005644817H. NOOR, SHAQERA BEL                                     0502
B0101402350000000655436TYCS LOGISTICS INTERNATIONAL INC.                        1601
A0101405650000005284493LOPEZ, IMELDA MARCOSA LAUDE                              0502
A0101405650322522833001JIMENEZ, MARIA JEAN BREBONERIA                           0501
B0101402060351035807001SOLEREX WATER TECHNOLOGIES, INC.                         1610
A0101402060351426733001HILARIO, SIMONE-MARIE RIVERA                             0503
A0101409050000005292888TARA DUENAS                                              0501
A0101409050000003536218CAPCO, MARIA GRACE                                       0502
A0101409050000006319720FRANCISCO, ROBERT TABALANZA                              0501
B0101409050000000258462THE NEW REEDLEY INTERNATIONAL SCHOOL                     1602
A0201400890376038937002ECB TRADING                                              0505
A0101402930000003735233NARVAEZ, GLADYS ELEONOR SAULON                           0501
B0101402930381019173001MANILA LUXURY CONDOMINIUM CORP.                          1601
A0101402930381205136001NORA LACAP AVILA M.D.                                    0502
A0101408370000002264148GALICTO, REMY CATIPUNAN                                  0501
A0101408370382205140001DR. PAULA  A. ALONZO OR                                 10502
A0101408370382205140001DR. DANIEL M. ALONZO                                    20500
A0101408370382398259001DR. MARIA LIZA ASUNCION M. CRUZ                          0503
A0101408370382408785001ANVA KIRSTEN D.L. BRAVO                                  0503
A0101415350000005085081SALAPARE, LOUIE AURELIO AGUILAR                          0501
A0101402770000003488131NERA, JULIUS PATRICK DOMANTAY                           10501
A0101402770000003488131OR NERA, CAROLYN MOSQUEDA                               20500
A0101402770000010082521MARCHAN JR., ROSERIO BITANCUR                            0501
A0101402770391211575001GALLORA, ALFONSO LABUNOS                                 0502
A0101402770391212327003MAGTIBAY, MA. TERESA C. OR                              10501
A0101402770391212327003MAGTIBAY, JERSON C.                                     20500
A0101402770391522092001CABANGON, EVELYN CAPCO OR                               10501
A0101402770391522092001CABANGON, ROLAND CURIA                                  20500
A0101402770391547587001DIGMA, MA. JOSEFA STA. ANA                               0501
A0101402770391706375001BARCELONA, JAYSON JAMES  ABLAZA                          0501
A0101405490000000530874JOYA, MADELYN CASANADA                                   0502
A0101408400000005286411GUILLERMO, PRESCILLA SALISE                              0502
A0101409210000002278891GELITO, KATHERINE MIRANDA                                0502
A0101409210398618789001ALEJANDRINO F. CIRERA                                    0501
A0301400820000002272033ASARAK, YASIR A.                                         0501
A0301400820000007373051CARRIEDO, ELEANOR D.                                     0501
A5501400120410283898002GARCIA, JOSIE JAVELLANA                                  0502
A5501400120410645218001BAUTISTA, ESTHER BASCON                                 10503
A5501400120410645218001OR BAUTISTA, ESC                                        20500
A5501400120000009875518ASUMBRA, JOSEFINA PECSON                                 0501
A2401400180411549938001SALANIO, ISIDRO DIANGCO OR                              10501
A2401400180411549938001SALANIO, CATHERI                                        20500
A2401400180411649335001AMADEO, JAMEMA MILES                                     0503
A0901400220000002300845LIM, RENEEROSE VESAGAS                                   0502
A0901400220000007072444**********                                               0503
A0101403320471560880001REYNALDO JAMERO SANTIAGO JR.                            10501
A0101403320471560880001OR JOCELYN V. SANTIAGO                                  20500
A0101412760000000528205SARAH JAYNE A. SANCHEZ                                   0502
A1901400160491476162001GINA A PELESMINA                                         0501
B0101407430503006854003CARGO DATA EXCHANGE CENTER, INC.                         1603
B0101407430000001212979FRUS CORP.                                               1603
A0101407430503341636001EMILIO A. BRILLANTES                                     0502
B0101403580511575114002TIGER 22 MEDIA CORPORATION                               1610
A0101405940512530528001TIBO, KAREN CHRISSIE LEABRES                             0501
A0101408530516044264001DATA ART DESIGN & PRINT SERVICE                          0501
A0101403450000001769811*******                                                  0501
B0101403450521011736001COFTA MOULDINGS CORPORATION                              1603
A0101403450521240568001**********                                               0501
A0101403610000011007284SIETEREALES, ALVIN MARISTANEZ                            0501
A0101403610531279193002MORANO, ELISA QUEJANO                                    0502
A0101404130000006275994CHUA, GERALDINE SAAVEDRA                                 0503
A0101404130601708628001PABALATE, PACITA BATAC OR                               10501
A0101404130601708628001PABALATE, HELENA                                        20500
A0101407720602303381001CRISOSTOMO, ANGELA UMALI                                 0510
A0101407720602318369139RUEL R. CONCEPCION                                       0501
A0101407720602332279002CAYCO, ANTONIO V. OR                                    10501
A0101407720602332279002CAYCO, MARGARITA                                        20500
A0101407720602341263001RIVERA, LUIS MARCELO                                     0501
A0101407720602401503001MARIA LIZA G. FRANCISCO                                  0506
A0101407720602507664001AUGUSTO D. LITONJUA OR                                  10502
A0101407720602507664001MARY A. LITONJUA                                        20500
A0101404260611151571002GUANZON CHING OR ROCHELLE CHING                          0502
A0101409890649044793001**********                                               0501
A0101409890000000049089GEMSTAR CLEANING SUPPLIES                               10505
A0101409890000000049089INTERNATIONAL                                           20500
A0101409920000001539482RIVAS, MARY ANN JANE                                     0501
B0101411530000006217596VG PINEDA CONSTRUCTION CORPORATION                       1604
A0101413570000002976130FLORINDA J. BUBAN                                        0501
A0101413990000006768558HERRERA, BOBBY L.                                        0502
A0101414120000001142852TERESITA M. PUYAT OR MARY ANN                           10501
A0101414120000001142852MAGNO                                                   20500
A0101414120000009850780R. ACOSTA ENTERPRISES                                    0502
A0101414120000005252864MVG HARDWARE                                             0502
A0101414120000001427601ISABEL MONTERO OR CARLOSA                               10501
A0101414120000001427601TUGADO                                                  20500
A0101406590662035265001******                                                   0503
B0101406590662560649001FOURSPOONS VENTURES CORPORATION                          1602
A0101406590662562414001RUSTE, RUTH ALLEN ANTONIO                                0506
B0101406590662744080002MARKETMIX TRADING INC.                                   1604
A1301400340683249866001XXXXXXXXXXX                                              0503
A1301400340683776169001BARAQUIEL, JOCELYN LIM                                   0502
A1701400230693092725001ALIPIO JR., ISAIAS PASCUA                                0501
A0101408240711375064001DR. MARILYN P. CALILUNG JT                               0501
A0101408240711375102001PANICUCCI, MA. PILAR M. JT                               0501
A0101408240711612460001DE GUZMAN, MA. LOURISA LOREN C.                          0502
A0101408240711643077001PRELIGERA, MARIETA VERGARA                               0501
A4101400260000003679669ROSARIO, JESSICA GUTIERREZ                               0501
A4101400420814520766031GACOSTA, LORENZA N.                                      0502
A4101400420814520766138SAN PEDRO, ANA LIZA                                      0501
A4101400420000001063785RAMIREZ, JEREME                                          0501
A4101400420000004847883PAKIDING, GRACELYN A.                                    0502
A0101412340000005496831FRANKMIN JAMES D. JANTOC                                 0501
A0101404840851520766180CARMELITA M. BARBACENA                                   0501
A0101406750000000017490SESE, ALDEN ANTHONY DIZON                                0501
A0101405070861707742001ELMER G. CHAN                                            0501
