B0101404260611821100608**********                                               2010
A0601400520000002085805ARCEO, MARIA RACHELLE PAMINTUAN                         10501
A0601400520000002085805OR ARCEO, JOEL FRANCISCO                                20500
A0101406620000001686531MANUEL, MAURICE VICTORIA EUGENI                          0501
A0101403320471326734001ANNALIE S. CALMA                                         0502
A0101410690600046558001RANDXELL'S DIGITAL PRINTING &                           10502
A0101410690600046558001PHOTOCOPY CENTER                                        20500
A0101400860011298552007MA. TERESA N. MERCADER                                   0503
A0101400860000000414122*************                                            0503
A0101400150061344118001AMIEL M. MERCADO                                         0504
B0101400600000001335882******                                                   1601
A0101400600071351088001LIM, IT BENG NG                                          0502
A0101405810072362282001GO, ZENAIDA CAMAT                                        0501
B0101405810072412798001**********                                               1603
B0601400100081019978001BACOLOD WORD OF LIFE MINISTRIES, INC.                    1603
A0601400100081318637001CABRERA, CYNTHIA NARCISO                                 0501
B0101413730000001568492*********************                                    1602
B0101414090000000399264BALINGGAO, JOSEPH NG                                     1603
A0101401960121238670001**********                                               0503
A0101412630000004062042RACHO, E DBU RAR ELJAY AUTO SUP                          0502
A0101412630000004062042RACHO, E DBU RAR ELJAY AUTO SUP                          0501
A0101412630000004062042RACHO, E DBU RAR ELJAY AUTO SUP                          0501
A0101401830000003508632LIM, JOVEN AGUILAR                                       0502
A0101400440161039572036ANTONIO S. VILLANDA JR.                                  0501
A0101400440161449465001CRISOSTOMO, JASON MACUTO                                 0501
A0101407270162029071001M+E SALVALOSA & ASSOCIATES                               0501
B0101407270000000010180COUNTRY CHATEAU HOTELIERS CORPORATION                    1602
A0101401090171225244001TERESITA C. NABOR                                        0502
A0301400530000001010051CUBILLO, DOMINGO D. OR                                  10505
A0301400530000001010051CUBILLO, CARMELI                                        20500
B3101400160221024274002STA. CECILIA BUSINESS CENTER                             1601
A3101400870000003592341PATUBO, MARICEL PESCADOR                                 0501
A3101400870000003592341PATUBO, MARICEL PESCADOR                                 0501
A3101400870000006095634TAGUIAM, CHARMAINE VILLAFLOR                             0501
B31014008702250600990012015 PAPER PLANE INC                                     1601
A3001400130230760114088MARTINEZ, NOEL INCHOCO                                   0502
A3001400130230767566037GERARDO TAN REMANDABAN                                   0501
A1001400190231478374012FARINAS, EVA MAE CENTO                                   0502
A1001400190231520766094SALAGUSTE, FELIPE B.                                     0501
A1001400190000000016468NERI, JENNY RACAZA                                       0501
B1001400480000004097121******************                                       1601
B1001400480000004097154SABAL HOSPITAL, INC.                                     1610
B1001400480000004097187VACALARES, EMMANUEL DBU ESV TRADER OR VA                11603
B1001400480000004097187CALARES, ROSARIO                                        21600
A1301400470000002299949KING FHERRY S. ESTAVILLO                                 0501
A0101406620000000193639************                                            10501
A0101406620000000193639************                                            20500
A0101411820277743052001RUBY M. PAMINDANAN                                       0501
B0101412470000002338843WEBLEND INC.                                             1601
A2601400270302567227001ROSITA TAN VALLE                                         0501
A1101400120313478374116MASIN, NANCY KELISTE                                     0501
A1101400120000001547268JADOC, MA. ARIELYN PALOGAN                               0501
A3401400280000000784692VISTA, LECEL CERILO                                      0501
B0101402350321013681001P.J. LHUILLIER, INC.                                     1610
A0101402350321351934001HARASAWA, EUFEMIA BALANGUE                               0501
A0101402350321478374050JESUSA G. CAYLAN                                         0501
A0101405650000000773002BIJE, JOSHUA HILARIO                                     0502
B0101405650322034969001ALPHINELAKE WATER REFILLING STATION                      1601
B0101405650000000772721PREMIERE COMMUNITY PARTNERS, INC.                        1610
B0101405650000004410039MIDNIGHTHOOCH INCORPORATED                               1604
A0101402060000000358623IMMACULATA, ROWENA MARTINEZ                              0501
B0101402930381009648001CHRIST'S COMMISSION FOUNDATION, INC.                     1620
B0101402930000005645912ARTISTESPACE INC.                                        1610
A0101408370382434379001DR. LOURDES JOSEPHINE                                   10503
A0101408370382434379001ANGLIONGTO-RAMOS                                        20500
A0101408370382592860001ANGELINE S. TINGA                                        0502
B01014054903920389180021STSERVE LOGISTICS, INC.                                 1601
B0101405490000002841927EXSELLSYS CORPORATION                                    1601
A0101408400394478374090MARY DUMASLAN                                            0501
A0101409180000003310323PANGILINAN, CHARISSE CRUZ                                0502
A0101409180000003310221HERNANDEZ, RAFAEL ANTONIO E. OR                         10502
A0101409180000003310221CONCEPCION, MARI                                        20500
A0301400820000004746101FAMACION, RAMSEY DBU JARED SUIT                         10502
A0301400820000004746101ES OR FAMACION, BEULAH                                  20500
A2401400180000005536665YABUT, ANDREW MATILDO DBU VDEE                          10502
A2401400180000005536665GENERAL MERCHANDISE                                     20500
A2401400180411275790003MALCAMPO, DIOSIE AGUIRRE                                 0501
A2401400180411487779008LIM, CARLITO TAN                                         0502
A0101403030441239075002**********                                               0502
A0101403030441241050001**********                                               0503
B0101403320471014832001RG BANGALON CORPORATION                                  1620
A0101403320471316949002VIRGINIA GALAMGAM                                        0501
B0101410140475046427001EQUAL LENDING INVESTOR CORPORATION                       1610
A1401400110492222234003MARTINEZ, FERNANDO PELIPADA OR                          10501
A1401400110492222234003MARTINEZ, MA. LUISA                                     20500
A1601400170000001069023MARIA TERESA Q. RANOLA                                   0505
A0101403580000004683085REFE, KRYSTALLE CARREN ROXAS                             0501
B0101403580511005170001JOLOU REALTY AND DEVELOPMENT CORP.                       1603
B0101403580000000214662MEC - SUNTRUST PARKVIEW TOWER 1 & 2                      1610
B0101403580511016440001SUGI MANAGEMENT CORPORATION                              1610
B0101403580000000922883UXMNL INC.                                               1602
A0101403580511771223001CHERILYN FADERAGAO                                       0501
A0101405940512618356001CHAN, CHRISTIANE SHERWIN D.                              0501
A0101408110515313380001MARCO MANUEL Q. LAGDAMEO OR                             10502
A0101408110515313380001DONNA MITZI LAGDAMEO                                    20500
B0101408530516481834001**************                                           1601
A0101403450521608765001**********                                               0502
A0101403610000001174772BERROYA, EDRALIN OLIVAREZ OR                            10505
A0101403610000001174772BERROYA, MA. ANA ESGUERRA                               20500
A0101404000551452012001PANGILINAN, CORAZON CATALASAN                            0501
A0101404000551748664001**********                                               0501
B3301400120581821100608**********                                               2010
B3301400120581821200608**********                                               2001
A0101404130000000321371ALIENTO, JASPER PAJARES                                  0501
A0101407720602283353001ERWIN HERNANDEZ OR                                      10501
A0101407720602283353001AGNES HERNANDEZ                                         20500
B0101404260611821200608**********                                               2003
A0101409920000000523584MASACUPAN, PHILIP GONZALES                               0503
A0101413440000002125480MANUEL, A. DBU OPTIMUM MINDS                            10501
A0101413440000002125480MEDIA                                                   20500
A0101413990000001202377ELLEN MAE L. GONZALES OR                                10501
A0101413990000001202377RONALDO AMADOR G                                        20500
A0101410300000000592198BARBASA, J DBU TIGER WATER                              10502
A0101410300000000592198STATION & GEN ME                                        20500
A1301400210000000540936JOCELYN S APOSTOL                                        0501
A1301400340683492812001SANTOS, LEONORA DISQUITADO                               0506
B1301400500684047515001WEST GRAINS TRADING                                      1601
A0101408240711397533001RONALD P. MERCADO                                        0501
A4101400260000005333415PRADO, DAVID SPENCER GARCIA OR                          10501
A4101400260000005333415PRADO, REGIEBE GARCIA                                   20500
A4101400550000003267127NAVEA, A DBU VELJO ENTERPRISES                           0502
A0101412340000000031136VILLACORTE, BIENVENIDO L. OR                            10501
A0101412340000000031136VILLACORTE, ADELINA C.                                  20500
A0101412340000005837323GIAN KARLO Q. ANDRADE                                    0501
A0101412340000004359882IZUN AISHA M. AL-RASCHID                                 0501
A0101412340000004360592MARY EILEEN J. ARCEO                                     0501
B0101412340000000031012MALATE CONSTRUCTION AND DEVELOPMENT                     11605
B0101412340000000031012CORPORATION                                             21600
B0101404840851214607001KAWASAKI EMPLOYEES MULTI-PURPOSE                        11605
B0101404840851214607001COOPERATIVE                                             21600
A0101404840851281035001NELLIE M. LAW &/OR                                      10503
A0101404840851281035001HERMINIO T. LAW                                         20500
A0101406750852298552032FLORDELIZA L. RETARDO                                    0502
B0101413860000000145275CON-PAC WAREHOUSING INCORPORATED                         1605
B0101418070000901010030**********                                               2003
