B0101403320471821100608**********                                               2010
B2401400180411821100608**********                                               2010
B2401400180411821100608**********                                               2010
B2401400180411821100608**********                                               2010
B2401400180411821100608**********                                               2010
A0601400520000003009270NAGUIT, ALFONSO MIRANDA                                  0501
A3001400130000001271523BERRYL DRUG CORP.                                        0501
A3001400130000002063441JONGKO, JOSE MARI MARCO OR                              10502
A3001400130000002063441JONGKO, DEBORAH ELAINE                                  20500
A1001400190231283324001GICABAO, BENY CHAN                                       0501
A1001400190231478374027EUBRA, LIBERTY O.                                        0501
A0101401670271189366002RUBI A. NGO                                              0502
A1101400120000001920565MONTILLA, SARAH SANCHEZ                                  0501
A1101400120000002254946MEJICA, SORIEL BARDIAGO                                  0503
A2001400290315688009001ALGOPERA, LLOYD GARCIA                                   0504
A0101408370382336346001DR. MA. FAIDA R. REYES                                   0502
A0101408370382422891001DR. MA. NATHALIA N. MONTEMAYOR                           0501
A0101412890000001765751MURIEL, EMMA IMPERIAL                                    0501
B3801400170490058363001CALAPAN WATERWORKS CORPORATION                           1601
A3801400170000000018813LEOVINO P MACARAIG JR. OR                               10502
A3801400170000000018813ARSENIA C MACARAIG                                      20500
A4101400420814520766061ESTILLERO, SUSANA O.                                     0501
A4101400420814520766065ANGUE, HONEYLYN D.                                       0501
A0101400860000003571646**********                                               0501
B0101400860011239489001**********                                               1604
A0101401250000000460688MAGNO, FLORENCE UY                                       0501
A0101411370000002269412BRACAMONTE, JOSEPHINE ROMARAOG                          10501
A0101411370000002269412OR BRACAMONTE, CARLITO                                  20500
A0101411370000000470422CORIA, WILLIAM T. DBU IVERT                             10501
A0101411370000000470422ENTERPRISE                                              20500
A0101400150000001422100BAUTISTA, IRWIN GLENN BAL                                0501
A0101400150061227493001OLIVIA R. SUSA OR                                       10502
A0101400150061227493001JOSE B. SUSA                                            20500
A0101400150061287682001RAFAEL S. ALGARRA OR                                    10501
A0101400150061287682001MARY JOSEPHINE ALGARRA                                  20500
A0101400150061671569001********                                                 0501
A0101400600071234351008*******                                                  0501
A0601400100081504737001KAW, GEMINI DEANG                                        0502
A0601400520000001706792BUNGQUE, ALDRIN CAPILI                                   0501
B0101400730111008426001COUNTRY BANKERS INSURANCE CORPORATION                    1604
A0101400730000001822840ANALYN V. SOLIVA                                         0502
A0101400730111203514009LAILA ABORDO                                             0502
A0101400730111203514051JANETTE HONRADO                                          0502
A0101400730111478374183*****                                                    0502
A0101401830000005095843MELANY MAY M DALIDA OR                                  10501
A0101401830000005095843SANCHO C DALIDA                                         20500
B0101407270162044098001GRANTLINE, INC.                                          1605
B0101407270162044601001BLUEWEAVER, INC.                                         1605
B0101407270162046726001VALUE CARE HEALTH SYSTEMS, INC.                          1650
B0101407270162046726001VALUE CARE HEALTH SYSTEMS, INC.                          1650
A0301400660000000195077VALOR SECURITY AGENCY, INC.                              0505
A0301400950000003249983**********                                               0502
A0301400950196055712001**********                                               0501
A0101401380201371534001JOSIE ASANON                                             0502
A3101400160221478374043MICHELLE M. CARPIO                                       0501
A3101400450223489008001SIO, MINNIE REGINA OR JOSELITO                           0501
A3101400450223576401001GALLEGO, DHARIA CAJAYON                                  0502
B3101400740000000013878S & P MEDICAL AND DENTAL TRADING, INC.                   1605
A1001400190000000016457ANTIGA, LUNITA                                           0501
A1001400480000000041501SALVANA, RODOLFO L OR SALVANA,                          10505
A1001400480000000041501ELIZABETH C                                             20500
B1001400480000000041476SAVINGS MUTUAL INTER-COMPANY CREDIT                     11603
B1001400480000000041476COOPERATIVE                                             21600
B1301400470000000009630FIRST KINGSTON LEISURE AND SERVICES                     11605
B1301400470000000009630CORPORATION                                             21600
A1301400470252667113001***********                                              0504
A1301400760000004522592KRISTOFFER ROMEO E. GATDULA OR                          10501
A1301400760000004522592SANDRA D. GATDULA                                       20500
A0101406620273215629001PATRICK G. SANTOS OR                                    10502
A0101406620273215629001MONICA S. SANTOS                                        20500
B0101406620273313299003**********                                               1605
A0101411110276448822002SYJUICO, WILCON JOHN CHRISTOPHE                         10501
A0101411110276448822002AND DIMAUNAHAN, DORELENE                                20500
B0101412470000000949544BEYOND METRO POINTE GREENHILLS INC.                      1602
A0101400570281720451001VALERIO, MYRA D. OR                                     10501
A0101400570281720451001VALERIO, ANGELO                                         20500
A0101411240000002332503*****                                                    0505
A0101411240000001563468ENRIQUEZ, FRANCIS XAVIER GARCIA                         10501
A0101411240000001563468OR ENRIQUEZ, CARMELITA M.                               20500
A2601400270000000561551RODERICK E. MADRIDEO OR                                 10501
A2601400270000000561551JUANITA S. MADRIDEO                                     20500
A2601400270000000561682JANET A. GELACIO OR                                     10505
A2601400270000000561682BARTOLOME L. GELACIO                                    20500
A2601400270000002257212JOSELITO P. CRISTOBAL                                    0502
B0801400160000001289910ALLI RESOURCE DEVELOPMENT CORPORATI                      1601
A1101400120000000992332EJERCITO, CARLA D. OR                                   10502
A1101400120000000992332EJERCITO, RONALD                                        20500
A6601400120314618108001ABAGON, DENNIS PELO                                      0501
A6601400120314648495001ADORA, GENARO TUBALLAS                                   0501
B3401400280318044735001A & T SANTOS INCORPORATED                                1603
B0101402350321016640001ST LAWRENCE ACADEMY                                      1601
B0101402510341027854001*****                                                    1601
B0101409050000000258531HENDERSON BLAKE BUSINESS SOLUTIONS,                      1603
B0201400760374030466002A.D. GOTHONG MANUFACTURING CORP.                         1602
A0201400760000002047376YUNAM, HARLEY YU                                         0505
A0201400890376667775001BUYSER, MISAN CANAS OR BUYSER,                          10501
A0201400890376667775001IAN CHRISTOPHER                                         20500
B0101408790383040734001RADIOWEALTH FINANCE COMPANY, INC.                        1605
B0101408790000003845670T.F.T. FOOD GLOBAL MARKETING INC.                        1601
A0101408790383765960001PEREGRINA, DONATO BULURAN                                0505
B0101402770391033539001VICTORIA VALLEY ASSOCIATION, INC.                        1602
A0101402770391225339001VICTOR V Y. CASTRILLO OR VICTOR                         10501
A0101402770391225339001A J. CASTRILLO J                                        20500
B0101408400394038538001THE HEAD PASTOR & MINISTER OF KING DAVID                11601
B0101408400394038538001 MINISTRIES                                             21600
B0101408950000000036815ROTARY CLUB OF MAKATI DASMARINAS                         1601
A0101409180000004940712CO, PRECY PRECIOSA                                       0502
B0101409180397044045001CACHO CONSTRUCTIONS, INC.                                1602
A0101412210399094817006TUVILLO, JORELLE OGAME                                   0501
A0301400820000001554809ZAMORA, NAMES                                            0501
B5501400120410042322001TRUMPH MOTORCYCLE CORPORATION                            1605
B5501400120410042322003TRUMPH MOTORCYCLE CORPORATION                            1601
B5501400120410044008008FRANCISKOZ MOTORCYCLE PARTS,SRVCS &                     11603
B5501400120410044008008ELEC. SUPPLIES                                          21600
A0101403030441239686001**********                                               0502
A0101403030441240297001**********                                               0501
B0101403030441314128003**********                                               1601
A0101412890000001765404ACUNA, SALVADOR A OR ACUNA,                             10506
A0101412890000001765404ALONA C                                                 20500
B0101403320471035758001***                                                      1602
A0101403320000001646868MANONG CHRIS TAPSILOGAN                                  0501
B0101406330472020438001DAROMAR DEVELOPMENT CORP.                                1605
B0101406330472206899001DANILO A. MARASIGAN OR RODINA B.                        11605
B0101406330472206899001MARASIGAN                                               21600
A0101406330472215960003ARTHUR N. LINDO                                          0502
A1401400110000000034784ZENG, JUNQIANG                                           0501
A1601400170494047880001AIREEN I. SALAZAR DBU A.                                10501
A1601400170494047880001SALAZAR LEARNING CENTER                                 20500
A0101407430503381561001MARY TERESITA M. DE JOYA                                 0503
A0101407430503381561002MARY TERESITA M. DE JOYA                                 0503
A0101403580511044026001SORORES ENTERPRISE                                       0501
A0101405940000000061652RONA, MARILYN ARGENTE OR                                10501
A0101405940000000061652ASUNCION, ROGELIO ATIENZA                               20500
A0101405940512522504001YU, JONATHAN MARC CHAM OR                               10502
A0101405940512522504001YU, HENRY                                               20500
A0101408110000001823792**********                                               0505
A0101403450000001638097**********                                               0501
B0101404000551005023001MECHANICAL HANDLING EQUIPMENT CO., INC.                  1620
A0101413570656057648005JIM VINCENT L. ACOLOLA                                   0501
A0101413570656057648012JUANCHO M. BEJAR                                         0504
A0101413570656057648084IRENE S. DE GRACIA                                       0502
A0101406590662307518003REYES, SYLVIA SANDEJAS                                   0501
A1301400340683708672001CANO, ERLINDA PEREZ                                      0502
A1301400500000002063850**********                                               0501
B0101408240000003501475TERRAFIRMA HOLDINGS INC.                                 1605
B0101408240711419112001POSITION 1 INC.                                          1601
A0101408240000000521720RICAFRENTE, MA. ANALYN DELFIN                            0501
A2801400100712478374006OLIVIA G. ARAO                                           0501
A2801400230000000937639RAYMUNDO, VILMA JARIEL                                   0501
A4101400260000003680040DEL ROSARIO, MARIE MADELINE MAG                          0501
A4101400420814478374154CABRERA, FELIZA                                          0501
A4101400420814520766134TERESITA A. CASTILLO                                     0502
A4101400420000002345280ACOL, FELOMINA ADOAN                                     0502
B4101400550815042993001BAGTEC DRUGSTORE & GENERAL MERCHANDISE                   1601
A4101400550815181680001MONTARDE, NELSON V. OR                                  10504
A4101400550815181680001MONTARDE, MILDRE                                        20500
A4101400550815693134001LLANES, TUDOR HERNANDEZ OR                              10501
A4101400550815693134001LLANES, PRESCILLA CARRIDO                               20500
A0101412340000003343962SYLVESTER M. JUSTO                                       0501
A0101412340000003718741DIWANI C. ALEGRE                                         0501
A0101412340000004072013MICHAEL REYES TABING                                     0501
A0101412340000004359939MA. CRISTINA E. CUCULLO                                  0501
A0101412340000004360398DIANNA JEANNE B. JIMENEA                                 0501
A0101404840851520766132CORNELIA C MONTE                                         0502
B0101405070000000428966ONEWORLD ALLIANCE LOGISTICS CORPORATION                  1610
A0101405070861531594001********                                                 0502
A0601400230000003638857DIZON, ELIZABETH OLARTE                                  0501
