B0701400130493821100608**********                                               2005
A0101406590662035265001******                                                   0502
A0101410690000000711033TIMBALOPEZ, MONINA DABU                                  0502
A1701400230693478374031VILMA D. BAGAY                                           0501
A0301400950000002974992**********                                               0501
A0101402930000008450782ESPLANA, RYAN JAY JOVEN                                  0501
A1901400290000003252855ELSA VILLAPANDO KASILAG                                  0502
A1901400290000003252797FAUSTINO DURAN VERDADERO JR                              0501
B1901400290261027293001LIPA MEDICS INC.                                         1610
B1901400290261038595002B & V TRADING                                            1605
A1901400290261298552151JEFFER JOHN ESTEBAN MONTEALTO                            0501
A1901400290261493025039MARELLA S. DE CASTRO                                     0501
A1901400290261663904001EVELYN ROSALES PURINO                                    0501
A0101400860011388049002**********                                               0503
A0101400860011404134003**********                                               0503
A0101401250021476357001CATHERINE GO UY                                          0501
A0101400150000003322272RAMIL JULIANO                                            0501
A0101400150000004090333ABALON, JAYSON BALANDAY                                  0501
A0101400150061323526001SHIRLEY MANESE OR MARIA ELENA                           10501
A0101400150061323526001MANESE                                                  20500
A0101400150061337099186REYNALDO ZAPANTA                                         0502
A0101400150061473504001SAGUIL, EDUARDO FABELLA                                 10501
A0101400150061473504001OR ANNE MARIE SA                                        20500
B0101400150061478588001RED PEAK CAPITAL HOLDINGS INC.                           1601
A0601400100081297133001DIZON, CRISANTA GALANG                                   0510
B0601400100081675425001VIRTUAL LANDHOLDINGS DEVELOPMENT GROUP                  11601
B0601400100081675425001CORP.                                                   21600
A0101413280000000041852OLA, EDAM CRUZ DBU HIJK SHIRT                           10501
A0101413280000000041852PRINTING & DESIGNS                                      20500
A0101400730111393421009MARGARITA P. ESTEBAR                                     0506
B0101406040000001392041********                                                 1603
B0101412630000002186461SUNLAND DEVELOPMENT CORP.                                1602
B0101412630000002186461********                                                 1604
B0101401830141056446001GADDI DBU GREENTEK ENVIRONMENTAL ENG.                   11601
B0101401830141056446001SERVICES JT                                             21600
A0101401830141259521001JIMMY N. YANG                                           10501
A0101401830141259521001SONLY PRINTING PRESS                                    20500
B0101400440000005393728RD PAWNSHOP, INCORPORATED                                1603
A0101400440161520766113MARIFE MANZANO                                           0501
A0101407270162479362001ERYMAR D.C. REYES OR                                    10501
A0101407270162479362001AUBREY S. REYES                                         20500
A0101401090171198478001MAFEL C. YSRAEL                                          0501
A0301400530000005300310*****                                                    0506
A0301400790000003969484CODINO, JUDITO LAMOSTE OR                               10501
A0301400790000003969484CODINO, MARY ANN ABAY                                   20500
B0301400950000000566934YUMCHAY VENTURES CORPORATION                             1610
B0101410720653042569001TUGSON CONSTRUCTION & DEV. CORP.                         1605
B0101413600000005524852HIMLAYANG PILIPINO, INC.                                 1610
B0101413600000005524863HIMLAYANG PILIPINO PLANS, INC.                           1610
A3101400160000002761960GABRIEL, MARIA REGINA CASTRO                             0504
A3101400160000004952245GENIE MALLARI CHAN                                       0502
A3101400160221478374002MA. LOURDES T. ELIZON                                    0505
A3101400450223028468001NEW ARMSTRONG SECURITY AGENCY                            0502
B3101400450223647264001BIO-AGRITECHNOLOGY INC.                                  1602
A1001400190231339933001MOORJANI, NOOR G                                         0501
A1001400190000002170769JUGAN, NOUE MALOLOT                                      0501
A1001400350000000922412FHEDZ VENTURES                                           0505
A1301400470252466645001MA. LOURDES M. GOMEZ OR                                 10502
A1301400470252466645001CHRISTOPHER M. GOMEZ                                    20500
A1301400470252559078001MERCEDITA GON GELACIO OR                                10501
A1301400470252559078001JOSE R. GELACIO                                         20500
A1301400470252599213001REYNALDO OR ROSARIO TERESITA OR                         10503
A1301400470252599213001RAYMOND JOSEPH ODULIO                                   20500
A1301400470252599213002REYNALDO OR ROSARIO TERESITA OR                         10501
A1301400470252599213002RAYMOND JOSEPH ODULIO                                   20500
B1301400760000000050871ENCORE LEASING & FINANCE CORP.                           1602
B0101401670271017305001HONGKONG HARDWARE SUPPLIER, INC.                         1601
B0101401670271022903001PHILIPPINE ASSOCIATION OF THE RECORD                    11603
B0101401670271022903001INDUSTRY, INC.                                          21600
B0101401670271025034001M.P.S. FOOD CORP.                                        1603
A0101401670000000016111RAMOS, ANZEL RAMILLE MILLENAS                            0501
B0101401670271477778001VIRTUSIO PR INTERNATIONAL, INC.                          1601
B0101401670271684108001UP ABOVE THE SKYE, INC.                                  1605
A0101406620000000193782CASTILLO, CARMENCITA REYES                               0501
A0101406620273217521003MA. ESMERALDA R. CUNANAN                                 0502
A0101406620273781122001LAXA, FEDERICO AGUSTIN                                   0501
A0101408660000005109831YAO, OLIVIA BORLONGAN                                    0501
B0101411110276046529088BOOK MEDIA PRESS INC.                                    1610
A0801400160311040177001TRI ADVERTISING                                          0502
B0801400160311043928001DELIFRANZ BACKEREI, INC.                                 1602
A0801400160311638278001DE ARROZ, ELMA SAMPIANO                                  0502
A2001400290000003961513SINGGO, TYRONE DOCTO                                     0501
B2001400290315044204001ACEBANK CREDIT, INC.                                     1601
A0101402350000000019138VALENZUELA, MARIJOY CRUZ                                 0501
A0101405650000000448271ACOSTA, GLORIA RAMOS                                     0501
A0101402510341541325002GO, JONATHAN TING                                        0501
A0101409050000007511993TACATA, JOHNDEL TIRI,                                    0501
A0201400760000000476897TUICO JR., NORBERTO BENIGRA                              0501
A0201400890376080642001GALANG, LORLIE PACURIBOT OR                             10505
A0201400890376080642001GALANG, GLENN AN                                        20500
A0101402930000003710745CASTANEDA JR., EDWIN JOSEPH ORT                          0501
B0101402930000005645912ARTISTESPACE INC.                                        1610
B0101402770391009461001CNRG INC.                                                1601
A0101402770000001841123JGL-MA ENTERPRISES                                       0502
B0101405490392487511001SECURFORMS PRINTING CORP.                                1602
A0101405490392552022001MARIA THERESA D SOLIS OR                                10501
A0101405490392552022001BENJAMIN D.SOLIS                                        20500
B0101408400394027710001PATEROS-FORT BONIFACIO TRANSPORT SERVICE                11602
B0101408400394027710001COOPERATIVE                                             21600
A0101408400394162577001REYES, ELSA UNGSOD                                       0501
A0101408950396397661001LAZARO-DIZON, GERGEN MARIE SERR                          0502
B2401400180411035164001MOMMY GINA TUNA RESOURCES (MGTR), INC.                   1605
A2401400180411478374027ELLEN PANTUJAN OR                                       10501
A2401400180411478374027ELMER PANTUJAN                                          20500
B1201400150421496291001LIQUETE, DOLORES SAGUID OR LIQUETE,                     11602
B1201400150421496291001LEONARDO                                                21600
B0101406330472021511003ASSOCIATED WIRE CORP. OF THE PHILS.                      1602
A0101406330000000162616LAND OF THE PROMISE TRUCKING                            10505
A0101406330000000162616SERVICES                                                20500
A0101406330000001235090MONTESSORI AT WORK PRE-SCHOOL                            0502
A0101406330472298552011CARINA F. FALQUERABAO                                    0501
A0101406330472370108002MA. VICTORIA L. ESTRELLA                                 0501
A0101406330472478374046YVONNE M. LOMIBAO                                        0502
B0501400170481018109002****                                                     1602
A3801400170000008481603PENA, JAMIL HUSSEIN DATUKON                              0501
A1901400160491034372001FIESTA HOME CENTER (FHC) CORP                            0505
A1401400110000005526876MACABUAG, P DBU CITITRADE GENER                          0501
A1401400110492444354001************                                             0502
B0701400260000000041152**********                                               1602
B0701400260495821200608**********                                               2001
B0101403580000000214731MILLENNIUM ERECTORS CORPORATION - NORTH                 11605
B0101403580000000214731RESIDENCES                                              21600
B0101403580000007864211MILLENNIUM ERECTORS CORPORATION                          1610
B0101403580000000214702MEC - CAMBRIDGE                                          1610
B0101403580000000383788JER CONSULT CORP.                                        1602
A0101403580511289190002SERAFICO PLACER OR VERNIE BUNO                          10510
A0101403580511289190002OR GREZILDA DENSING                                     20500
A0101405940000008482526FAVILA, ROGER DEFENSOR                                   0501
A0101405940000008482582MANINANG, JENNIFER TOLENTINO                             0501
A0101405940000008482628MENDOZA JR., RODRIGO S                                   0501
A0101405940000008482640ANTONIO, ALVIN JAY S                                     0501
A0101405940000008482662ABALOS II, ANGEL G                                       0501
A0101405940000008482680SAJO, NORMAN M                                           0501
A0101405940000008482691MARIANO, MARJORIE J                                      0501
A0101405940000003121860TAGLE, JULIETA MONTANO OR                               10501
A0101405940000003121860BANGUIS, FELISA CRISTETA                                20500
B0101408110515027103001CITYLAND CONDOMINIUM III, INC.                           1610
A0101408110000006952287CALUSTE, SANDY TUBLE DBU MLS                            10505
A0101408110000006952287STAINLESS STEEL                                         20500
A0101408530516571877078EPPIE C. TITONG III                                      0501
A0101411400000007169146YANDOC, JANICE DELA CRUZ                                 0501
A0101411400517063547001TOKONG, RITCHE MINORCA DBU RMT                          10501
A0101411400517063547001BUSINESS MANAGEMENT CONSU                               20500
A0101411790000002275976GUEVARRA, LEONILA VILLA                                  0501
B0101403450521012212001JERRONE CORPORATION(RADO-CITIZEN SERVICE                11602
B0101403450521012212001CENTER-MAKATI)                                          21600
B0101403450521019328001**********                                               1602
B0101403450521020358001**********                                               1602
B0101403450521038124001**********                                               1602
A0101403450521239350001**********                                               0505
B0101404000551032987001PANOPIO ESCOBER AND ASSOCIATES LAW                       1601
A2201400250000003558190EDWIN S. ESPIRITU OR ANNA                               10501
A2201400250000003558190JESSICA S. ESPIRITU                                     20500
A2201400250561387191001BILLY ROY M. SANTOS                                      0501
A0101410690000000061834IQBAL, BERNADETTE G.                                     0502
A0101410690000000710672BADE, MINERVA V DBU E3V                                 10501
A0101410690000000710672ENTERPRISE                                              20500
A0101404130000001831749REID, JOHN PAOLO PLATA                                   0501
B0101404130601100034002ADVATECH INDUSTRIES, INC.                                1612
B0101407720000000885770LARRS SKIN SOLUTIONS, INC                                1603
A0101407720000000713062ANTONIO, VISITACION TRINIDAD                             0504
A0101407720602283353001ERWIN HERNANDEZ OR                                      10501
A0101407720602283353001AGNES HERNANDEZ                                         20500
A0101407720602341263001RIVERA, LUIS MARCELO                                     0501
A0101407720602750852001TUPAZ, MARIA LOURDES PEREZ                               0501
B0101404260000004781186GOLDEN ALLEY RESOURCES, INC.                             1605
A0101404260000001725526********                                                 0501
B0101409920000005461263MOJICA, ANGELICA DL. OR MANCE, KARYLLE                  11602
B0101409920000005461263ABIGAIL A.                                              21600
B0101409920000005461274MOJICA, ANGELICA DL. OR MANCE, KARYLLE                  11602
B0101409920000005461274ABIGAIL A.                                              21600
B0101409920000005461285MOJICA, ANGELICA DL. OR MANCE, KARYLLE                  11602
B0101409920000005461285ABIGAIL A.                                              21600
B0101409920000005461296MOJICA, ANGELICA DL. OR MANCE, KARYLLE                  11602
B0101409920000005461296ABIGAIL A.                                              21600
B0101409920000005461303MOJICA, ANGELICA DL. OR MANCE, KARYLLE                  11602
B0101409920000005461303ABIGAIL A.                                              21600
B0101409920000005461310MOJICA, ANGELICA DL. OR MANCE, KARYLLE                  11602
B0101409920000005461310ABIGAIL A.                                              21600
B0101409920000005461321MOJICA, ANGELICA DL. OR MANCE, KARYLLE                  11602
B0101409920000005461321ABIGAIL A.                                              21600
B0101409920000005461343MOJICA, ANGELICA DL. OR MANCE, KARYLLE                  11602
B0101409920000005461343ABIGAIL A.                                              21600
B0101409920000005461354MOJICA, ANGELICA DL. OR MANCE, KARYLLE                  11602
B0101409920000005461354ABIGAIL A.                                              21600
B0101409920000005461365MOJICA, ANGELICA DL. OR MANCE, KARYLLE                  11602
B0101409920000005461365ABIGAIL A.                                              21600
A0101409920000000998821LANIP, JOCELYN BOLINA                                    0503
A0101413570000004353811REGADO, FRANCIA COLLANTES                                0501
B0101406590662038794001PRISMODIAL CONSTRUCTION CORPORATION                      1606
A0101406590662693253001BOCALA, JULIET TORRIFIEL                                 0501
A1301400210682246724001FLORENDA A CAMINGAL                                      0501
A1301400210682435928001EMMANUEL DC RAMOS                                        0501
A1301400500000005963368********                                                 0502
B0101408240711028488001INTAS DESTINATION MANAGEMENT INC.                        1605
B0101408240000000832860GATEWAY AIR SERVICES CORPORATION                         1602
A0101408240711323526001SHIRLEY A. MANESE OR MARIA                              10501
A0101408240711323526001ELENA M. ISAAC                                          20500
A2801400100000000004720REYES, MYRA DBU MRC DENTAL                              10501
A2801400100000000004720CLINIC                                                  20500
A2801400100712401674002DEL ROSARIO, DANILO LARACAS                              0501
B4101400260000005724023TRUCKMANS ENTERPRISES, INC.                              1602
A4101400260812244954001REYNANTE J. ESTOCADO                                     0502
A4101400390000007459198GUINOO, BERNARDO PRUDENTE OR                            10504
A4101400390000007459198GUINOO, ANA BOSCH                                       20500
B4101400390813016813001GENERAL CHEMICALS & RESINS                              11601
B4101400390813016813001CONSORTIUM                                              21600
A4101400390000006302472REYES, ELENITA BONUS                                     0501
B4101400550815040996002MARICHE APARTELLE, INC                                   1601
A0101412340000002900330ROSELLE B. BORBE                                         0501
B0101405070861020451001SOUTHEAST TRAVEL CORPORATION                             1602
