B0101407720602821100608**********                                               2005
A0101406460272190124002UNSON, MA. LUISA D.                                      0502
A0101406460000008890508QUILALA, KENNETH JEROME FLORES                           0501
A0101410690000000711033TIMBALOPEZ, MONINA DABU                                  0501
B0101413730000000469701********************                                     1601
A0101410560000010318297MA. CRISTINA G. MANALAD                                  0501
B0101410560110045401001JESUS REIGNS MINISTRIES, INC.                            1601
A0101410560000005836217PROCLEY C. CRISTOBAL                                     0501
A0101400860000005312856**********                                               0501
A0101400860000005313159**********                                               0502
A0101400860011421986001*********                                                0510
A0101400860011522691001**********                                               0505
A0101401250021406139001FELICIANA C. ADIAO                                       0501
A0101400150000002395060DELA CRUZ, ALBERT PANGILINAN                             0501
A0101400150000004619676NERA, ENRICO CAPILE                                      0501
B0101400150061010962002PHILIPPINE WELDING SOCIETY INC.                          1603
A0101400150061039916152DOLORES S. PAULITE                                       0502
A0101400150000000253074EMPLOYEES OF PB COMMUNICATION                            0501
A0101400150061561888001PABLO III, RIZALINO ALEGRE                               0501
A0601400100081684157001REGULACION, JEFFREY ALIM                                 0503
A0101413150000011778104**********                                               0501
A0101407270000007689716PONCE, DARYL ANN JIMENO                                  0501
A0101407270162333154028MYRNA G. REYES                                           0502
A0101401090000002358778RONQUILLO, RESALDO GANDELAN OR                          10502
A0101401090000002358778RONQUILLO, ELEONOR V.                                   20500
B0101401090171008020001UST PARISH                                               1606
A0101401090000001618913EMMANUEL M. BATULAN                                      0501
B0301400660194032481088TOYOTA DAVAO CITY INC.                                   1610
B0301400660194034150168FIRST WELAN CORPORATION                                  1601
A0301400950000000566763**********                                               0501
A0301400950000011694616TAN, JONALYN DBU                                        10501
A0301400950000011694616J.Y. TAN FOODHAUZ                                       20500
B0101401380201018537001VELUZAR(PASAY) INC.                                      1601
B3101400450223018245001PERLA COMPANIA DE SEGUROS, INC.                          1604
B1001400190231306643001*********                                                1601
A1001400190231520766002ABE-ABE, MARYLYN B.                                      0501
A1001400190231520766117TAROY, MARIONNE ANGELOU SALEM                            0501
A1001400190231577958001GORDIEL, JAMES LESTER UY                                 0501
B1001400350233039881008EASTMIN FOOD CHAIN CORPORATION -                        11605
B1001400350233039881008GREENWICH                                               21600
B1001400350233039884008SOUTHMIN FOOD CHAIN CORPORATION -                       11605
B1001400350233039884008JB SUPERCENTER                                          21600
A1001400480000005356021TABAN, EARLY JEN ORTALIZ OR                             10503
A1001400480000005356021TABAN, NOEL OLIVEROS                                    20500
A1301400470000010297140RICO T. SEBASTIAN                                        0501
A1301400470252538628001JENNY BILOG                                              0502
A1301400760000005990003ROWENA D. ALVAREZ                                        0503
A1901400290000011837713CHAVEZ, REMEGIA LAT                                      0501
A0101401670271518087001* * * * * * *                                            0502
B0101406620273009650001CROWN SMART LTD.                                         1606
A0101406620273306796029MACALINAO, CRISTINA                                      0501
A0101406620000002009103EMPLOYEES OF BANKARD, INC.                               0501
B0101406620000009695221APPETITE LABS MARKETIBG GROUP INC.                       1602
A0101411820000005709931FRANZ LEONARD C. REVUELTA OR                            10501
A0101411820000005709931ANECITA G. REVUELTA                                     20500
A0101411820277775683001***********                                              0504
A0101400570000003891550ABELLA, JENEFE BIRAO                                     0503
A0101400570281370913001MARY ANN P. DE LOS REYES OR                             10502
A0101400570281370913001LUVIE A. DE LOS                                         20500
A2001400290000001301591PANIM, MA BERNESA JAVIER                                 0501
A2001400290000008502196TEMBLOR SR., FLORIDO VILLAGONZA                          0501
B2001400290315044204001ACEBANK CREDIT, INC.                                     1601
A2901400130000009071869TEODOSIO, NELSON OTE DBU FORTUN                          0505
A2901400130000009071869TEODOSIO, NELSON OTE DBU FORTUN                          0505
A2901400130000009071870TALISLIS, HERBERT MAGSAEL DBU H                          0502
A0101402350321045652001BOYET AUTOCARE SERVICES                                  0505
B0101405650322018681007LANDCO PACIFIC CORPORATION                               1602
B0101405650322018681008LANDCO PACIFIC CORPORATION                               1602
B0101405650322018681009LANDCO PACIFIC CORPORATION                               1602
B0101405650322018681014LANDCO PACIFIC CORPORATION                               1602
B0101405650322018681015LANDCO PACIFIC CORPORATION                               1602
A0101405650322047677001THE J. BIJE'S WINDOW SHOP                                0505
B0101405650000005382076MENDOZA, JOSHUA DBU RAPIDO TRANSPORT                    11601
B0101405650000005382076NETWORK                                                 21600
A0101405650000000013214LOPEZ, MARIA AGATHA C. OR                               10501
A0101405650000000013214LOPEZ, RODEL D.                                         20500
A0101402510000000049329UNICARE DENTAL, MEDICAL TRADING                         10501
A0101402510000000049329CORPORATION                                             20500
A0101402060351324318001EUN SOO PARK                                             0502
A0101409050000008087503PEREZ, SHIELALYN BIEN                                    0502
B0201401020000003031192BUDGET BUILDERS, INC.                                    1602
B0101415350000007877578J. L. TAGO PARTNERS & COMPANY                            1601
A0101405490392177005001DOMINGA P. BUENAOBRA                                     0501
A0101405490392481659001MARITES Q. FACTURA                                       0501
A0101408950000006424819SUBIDO, NORMA LICUDINE                                   0501
A0101409180000008122290VELASQUEZ, MARILYN AGUIRRE OR                           10501
A0101409180000008122290VELASQUEZ, RAISSA MIKAELA                               20500
A0101409210000009309924OLIVA, RACHEL RANISES                                    0501
A0101409210398704236001PAU, MARIA CARMELA                                       0502
A0101409210398786227001CAPICOY, ANNA CHRISTINA PASTOR                           0510
A0101412210000003448606AREVALO, MARY GRACE MANALO                              10501
A0101412210000003448606OR AREVALO, PAUL YAP                                    20500
A0301400820000007135060ROSALITA, JEFF MARK LAMPAGO DBU                         10502
A0301400820000007135060JMR ENTERPRISES                                         20500
A5501400120410682269001LIM, HILBERT OR LIM, HELEN                               0502
A2401400180000002146334OMAY, Z DBU CRIZA ENTERPRISES                            0502
A2401400180411459505001MARK T. GO OR MADELINE Q. GO                             0502
A1201400150000011167143MADAY-A, MARIA DELIA SUYAT                               0502
 5101400100000010371103                                                           00
A0101403030000001302076TUNGOL, MARJORIE CAJIMAT OR                             10503
A0101403030000001302076TUNGOL SR., RONALDO M                                   20500
B0101403030441011866002**********                                               1610
B0101403030000005944738NAUTS AND VECTORS COMPANY INC.                           1605
A0101403320000011146324PABLO M. FLORES JR.                                      0502
B0101403320471008859001NEW LITE LUMBER & CONSTRUCTION                          11602
B0101403320471008859001SUPPLY                                                  21600
A0101403320471204856001MARISSA D. ALVAREZ                                       0502
A0101403320471667876001BALTAZAR, MARLYN QUEBRAL                                 0501
A0101406330472427734001ERNESTO T. REYES                                         0505
A0101407430000003522574ARVIN D. DELIMA                                          0503
A0101407430000011883551LACAP, MARK ANTHONY VICENTE AND                         10501
A0101407430000011883551PALOMENO, NERINE CABILES                                20500
A0101405940512396511001MARTINEZ JR., GREGORIO SANTOS                           10501
A0101405940512396511001MARTINEZ, MARIA LOURDES                                 20500
A0101408530000000136365BALBOA, CARLO AQUINO                                     0501
B0101408530000000035903INTERNATIONAL SPECIALTY FASHIONS, I                      1603
A0101408530000002980603CASTILLO, WILBERTO PROSPERO                              0501
A0101408530516513043001GUINGONA, MA. VICTORIA G. OR                            10501
A0101408530516513043001LORENZO, MARIA FATIMA G.                                20500
A0101408530000000035981LORRAINE L. LAVARRO                                      0501
A0101411790518095199001FLORES, IRISH PEJI                                       0501
B0101403450000008069205*****************                                        1602
A0101403450521238094001**********                                               0502
A0101403450521238185001********                                                 0502
A0101403450521238266001JERONIMO CO CHIN CHIENG OR                              10502
A0101403450521238266001LAWRENCE COBANKI                                        20500
A0101403450521478374007********                                                 0501
A0101403450521736290001TAN, ANGELINE KUA                                        0501
A2201400250000009019892FROSTVILLE ICE CANDY                                     0501
B0101404130000002121562GOLD NUGGETS HAULING AND TRUCKING CORP.                  1602
B0101404130000003105751GOLD NUGGETS HAULING AND TRUCKING CORP.                  1602
B0101404130000005962092GOLD NUGGETS HAULING AND TRUCKING C                      1602
A0101404130601591767001SISTER, MICHAEL ASTORGA                                  0501
A0101407720000002151439CUEVAS, MICAH ANGELI MASIAN                              0502
A0101407720602397511001ANANIAS A. CORNEJO M.D. OR                              10507
A0101407720602397511001EVANGELINA M. CO                                        20500
A0101407720602496503027JEMELL R. OCAMPO                                         0502
B0101412180000003275181PHDELI CORP.                                             1602
B0101409920000005460602TOP-MAR METAL VENTURES CORP.                             1602
A0101407690652028378002HIGHER GROUND FOOD STATION                               0501
B0101407690000000243952VITORIA REGIO VENCEDOR (VRV) BUILDERS                   11601
B0101407690000000243952CORP.                                                   21600
B0101407690000007720249THERMO-AIRE EXPRESS AIR CONDITIONING                    11603
B0101407690000007720249CORP.                                                   21600
A0101407690652455653001PEREZ, EDGARDO OR PERLA                                  0501
A0101407690000005198096MENDOZA, BRYAN PEREZ                                     0501
B0101411530654047137001GOLF HILLS TERRACES HOMEOWNERS'                         11604
B0101411530654047137001ASSOCIATION INC.                                        21600
A0101413440000000702441ANTONIO, GINA ASIS                                       0501
A0101413990000000969359LOPEZ, REYLAN MOLINO                                     0501
A0101406590662297269001MARTINEZ, ARMAN M. OR MARTINEZ,                         10501
A0101406590662297269001MARIA THERESE G.                                        20500
A1301400500000005963288**********                                               0501
B1701400230000000097983THE BLACK NAZARENE HOSPITAL, INC.                        1601
B0101408240000000832939TRUE NORTH GSA, INC.                                     1602
A0101408240000011487148BENASA, MARIA SUSAN DIMAYUGA                            10502
A0101408240000011487148OR PAPA, SUSAN REYES                                    20500
A0101408240000010148084QUIAMBAO, TERESITA DE LEON                               0503
B2801400100712023802001OLONGAPO CITY-SUBIC BAY CANCER CARE                      1602
A2801400100000005494282DE GUZMAN, ROBERTO DAGANATO DBU                         10502
A2801400100000005494282CNM TRADING                                             20500
B4101400390813016243001SEMITEC ELECTRONICS PHILS.,INC.                          1601
B4101400390813019416002STI COLLEGE-ROSARIO, CAVITE, INC.                        1602
A4101400390000000975037FIGUEROA, MARY ANNE DBU CIUDAD                          10502
A4101400390000000975037UPHOLSTERY SUPPL                                        20500
A4101400390813517833001MERIADO, RANDY CAMO                                      0503
A4101400420000004848119JANOLO, THERESA HERNANDEZ                                0501
A4101400420000003715622LACANARIA, ANGELICA ENALES DBU                           0501
A4101400420000002345331MERCEDITA D. LAGDAMEO                                    0502
A4101400420000002345280ACOL, FELOMINA ADOAN                                     0502
A4101400550000004846824PANGAN, S DBU SDP REALTY                                 0503
A0101412340000003349142CECILIO A. TALACAY                                       0502
A0101404840000010969487GATMAITAN, MA SOCORRO OR JULIAN                         10501
A0101404840000010969487OR JOMINI                                               20500
A0101404840851572213001VENTURA, JAYDEE MANICSIC                                 0502
B0101405070861043213001TEKTON CONSTRUCTION CORP.                                1605
B0601400230891046232001ST. THERESA DIALYSIS CENTER, INC.                        1610
A0601400230891386310001SZE, HOI CHING                                           0504
