B1101400120000000652442GICABAO, KATHLEEN JOY NG OR GICABAO,                    11603
B1101400120000000652442BONGKOK CHAN                                            21600
A1101400120000001547520TAN, MELVIN NATHANIEL ANDRADE                            0502
A0101413730000002289530*                                                        0501
A3001400130000005708545FAYTONE, MARIA FATIMA MAGNO                              0502
A3001400130000008916003HIDALGO, ELBERT ANTHONY VELOSO                           0502
A3001400130000008916069PABILAN, JOSEPHINE QUITORIO                              0501
A3001400130230733226001DAVID, FRANCISCO P. OR DAVID, D                         10503
A3001400130230733226001ANILO C. OR ENTO                                        20500
A3001400130230767566016MONTON, RAUL ESCOLASTICO GOMEZ                           0501
A1101400120000006186365DAROLE, GINA LYN PACE                                    0504
A0101412890000002747926BALDIVICIO, DOLORES VILLARIN                             0502
A0101410690000001284453ILAGAN, JERICHO H DBU                                   10505
A0101410690000001284453ABL SPORTS MANAGEMENT                                   20500
B0101407720000000885714MMC PEDIA ASSOCIATION, INC.                              1601
B0101407720000006945293MEDGATE (PHILIPPINES) HOLDINGS PTY                       1601
A0101407720602166527003ALIPIO S. ABAD JR. OR                                   10505
A0101407720602166527003ADORACION ABAD                                          20500
A0101407720602397271001OZAETA, MA. RAMONA PABLO                                 0501
A0101400150000000807170FRAGANTE, SOCORRO PROTACIO                               0501
A0101400150000011670352GONZALES, MARLON ESTACIO                                 0501
B0101400150061024063001HONDA CARS MAKATI, INC.                                  1605
B0101400150000001708345SKIN SCIENCES LABORATORY, INC.                           1602
A0101400150061055752056BUNSOY, CHRISTIAN ERWIN GARCIA                           0501
A0101400150000000053147MARTIN STEPHAN JAKOB KURER                               0502
A0101400150061739693001FRANCISCO D. VARUA OR MARIA                             10502
A0101400150061739693001MARLENE A. VARUA                                        20500
A0101400150061752745001ALONTE JR., JOSE ANTONIO P. OR                          10501
A0101400150061752745001ALONTE, MARGARITA O.                                    20500
A0601400100081366310001BATUL, REYNALDO OR                                      10502
A0601400100081366310001BATUL, BELLA                                            20500
A0601400360000000978710B. LEGG                                                  0501
A0601400520000001706827TANGLAO, MARIA CECILIA                                  10502
A0601400520000001706827OR TANGLAO, VICTOR                                      20500
A0101400730111386485069DELIA R. PIOQUINTO                                       0502
A0101400730111478374004CRISTINA V. PALMES                                       0502
B0101406040000000096662CONCEPT SPECIALIST, INC.                                 1605
A0101413310000001073574VILLEGAS, LORNA LOTERENA                                 0501
A0101401830000001281910DE GUZMAN, CONCEPCION FRANCISCO                          0501
A7201400170000011141681YTING, NELLY SUAN                                        0502
B7201400170000003773717PERLA COMPANIA DE SEGUROS, INC.                          1603
A0101407270000001597204ARMANDO Z. CERNARDO OR                                  10501
A0101407270000001597204EMMA L. CERNARDO                                        20500
B0101401090171008012004UNIVERSITY OF SANTO TOMAS                                1606
A0101401090000001619030PESO, MARIA CECILIA S. OR                               10502
A0101401090000001619030AQUINO, MARIA CRISTINA                                  20500
A0301400530000006477274LUI, LORETO RABI                                         0502
A0301400530193585849001COSMENO, MARINEO C.                                      0502
A0301400660000008940989BANDAYANON, HEMERITO SENDIN                              0505
A0301400660000000194712DENMARK TRUCKING AND GENERAL SE                         10505
A0301400660000000194712RVICES                                                  20500
A0301400950000006080213ACUIN JR., CARLITO DAYANG                                0502
A0301400950000006080235BALILI, MA. ROSSINI L.                                   0501
A0101401380201672244001******************************                           0501
A0101413600000000206675CECILIA D. AUSTRIA OR ABIGAILLE                         10501
A0101413600000000206675CASEY A. YU                                             20500
A0101413600000002122183AURELIO U. AMPARO                                        0501
B3101400160221010055002CALAMBA LUMBER ENTERPRISES                               1605
B3101400160221016581001ONE WORLD REALTY CO.                                     1603
A3101400870000000074822MAYUGA, RAMON LUCERO                                     0501
B1301400470000007862813EGV UNILEND CORP                                         1603
B1301400470000007862824EVERGREEN CREDIT CORPORATION                             1603
A1301400470252529647001MICHAEL PATRICK L. BANZON OR                            10502
A1301400470252529647001EMILY GRACE V. BANZON                                   20500
A1901400290000001362954WILLIE AMBAL MERCADO                                     0501
A1901400290261244456001LEO YAP ONG OR                                          10505
A1901400290261244456001MEI MEI YULO ONG                                        20500
A1901400290261250069001DRA. JABES BUCE CARRASCOSO                               0505
A0101401670271188831002REGINALDO C. LIM                                         0501
A0101406460000002330643CHAN, SUSAN CHUA OR CHAN,                               10501
A0101406460000002330643ANDREW G.                                               20500
A0101406460272722876011EMPLOYEES OF TECHNOMED INTERNAT                          0501
B0101406620273029729001UNISTAR CREDIT & FINANCE CORP.                           1601
A0101408660000006296768BATE, MA. CARMELA FABELLA                                0502
A0101408660274478374013HERRERA, CHRISANTINA DOMINGO                             0501
A0101408660274547172001BELMES, MARIBEL DEPAUDHON                                0502
B0101411110000000604926CROSSPROPERTY MANAGEMENT INC.                            1610
B0101400570281022440001ST. PAUL UNIVERSITY QUEZON CITY, INC.                    1602
B0101400570281026341001PUBLIC SAFETY SAVINGS AND LOAN ASSOCIATI                 1605
A0101400570000002329762**********                                               0501
A0101411240000008786570ESPALDON, ANNA MARIE DE GUZMAN                           0502
A2601400270000006014875RUEL L. RIVALDE                                          0501
B2601400270000006014784NEW AMITY HOTEL CORPORATION                              1603
A2001400290000004890013RAMAS UYPITCHING, ALEMBERT BRIA                          0501
A2001400290315087033001ROLIDA, JASON UY OR ONG, WILMER                         10501
A2001400290315087033001RODNEY OR ROLIDA                                        20500
A2001400290315636053002RAMAS-UYPITCHING, A. BRIAN OR                           10501
A2001400290315636053002RAMAS-UYPITCHING                                        20500
B0101402350321006710001DASMA CITYWIDE GEN MDSG INC.                             1604
B0101402510341035683001CEU - PHARMACY STUDENT COUNCIL                           1601
A0101402510341198339002SOLINA M. ALER                                           0501
A0101402510341202149003AMALIA L. ABUSTAN                                        0501
A0101402510341309469001CUARESMA, ESTHER ROGON                                   0501
A0101409050000006319731RIVERA, FREDERICK ISIDRO                                 0501
A0101402930000007031272MENDOZA, ALLEN BLESS CASTANEDA                           0501
A0101408370382236431001IMELDA B. REGIO                                          0501
A0101408370382393077001DR. ROBERTO ANTONIO B. USON                              0501
A0101408370382527533001MARIVIC C AGULTO-MERCADAL OR                            10502
A0101408370382527533001GERARD RYAN T MERCADAL                                  20500
A0101402770000000360661MALICDEM, SNOOKY DULATRE                                 0503
A0101402770391242648002YABUT, LEILA VICENCIO                                    0501
A0101405490000002880595MICHAEL JOHN ERIC R BALO DBU                            10501
A0101405490000002880595BLISSFUL HOUSE D                                        20500
A0101408400000006813669ALCONES, NYMPHA BOTE                                     0502
A1201400150421464835001*****                                                    0501
A5101400100000010371165SARCAOGA, DINO REX PATANINDAGAT                         10501
A5101400100000010371165OR SARCAOGA, MINJOY V.                                  20500
A0101403030441240653001**********                                               0501
A0101403030441469355001**********                                               0501
A0101406330000000162592GERODIAS JR., ALBERTO SAMPELO                            0501
A0101410140000001074931LEYSON, JEFFERSON D. OR LEYSON,                         10501
A0101410140000001074931MARRY SHYNE C.                                          20500
A0101412760000000767977ABELIDO, RAYMOND OR MICHELLE                             0502
B0501400170481023482001ARZADON LEISURE CORPORATION                              1605
A1901400160491326737002TEODORA B BORBON OR                                     10502
A1901400160491326737002MA THERESA B CHUA                                       20500
A0101403580511592154001ERLINDA L. BUCUD                                         0501
A0101411790518055764185FERDAUSSEYA S. JUMAT                                     0501
B0101403450521012048001SANYO SEIKI STAINLESS STEEL CORP.                        1602
B0101403450521012125001**********                                               1601
B0101403450521012125001**********                                               1601
B0101403450521012182001**********                                               1601
B0101403450521012193001PRIMER INTERNATIONAL HOLDINGS AND                       11601
B0101403450521012193001MANAGEMENT INC.                                         21600
B0101403450521012194001**********                                               1601
B0101403450521014749001**********                                               1601
B0101403450521019248001**********                                               1601
B0101403450521033602001**********                                               1601
B0101403450521046823001**********                                               1601
B0101403450000000889603**********                                               1601
B0101403450000002975713**********                                               1601
A0101403450521238177002**********                                               0502
A0101403450521238239001*********                                                0501
A0101403450521389380001**********                                               0501
A0101403450521562439001***********                                              0501
A0101410690000002290791BATOON, LYSAN BONGALON                                   0501
B0101404130601027356001ACES PHILIPPINES CELLULAR SATELLITE                      1601
B0101404130000000321480PAYMAYA PHILIPPINES, INC.                                1601
A0101404130601404316003DE JESUS, DONNA KING OR                                 10501
A0101404130601404316003MICHAEL DE JESUS                                        20500
A0101404130000006275994CHUA, GERALDINE SAAVEDRA                                 0503
A0101407720000011666927CASTRO, MELCHOR BOYET SAMONTE                            0501
A0101407720602381963001KASILAG, EMMANUEL R.                                     0501
A0101407720602415232004JULIE ANNE Q. ESPINO                                     0502
A0101404260611151435002LORNA VEJANO AND RAUL VEJANO                             0502
A0101409890649762761001LI, ZHONGFENG OR                                        10504
A0101409890649762761001DENG, MINGXING                                          20500
A0101411530000006792352**********                                               0502
A0101413570656057648230MA ROSE ANN ROBLES                                       0501
A0101413990000001947128MARS STONE SUPPLY                                        0502
A0101406590662065552001ALINDUGAN, MARIVIC BANDELARIA                           10502
A0101406590662065552001DBU S21 TRADING                                         20500
A1301400340000001569326OLLANDA, ARTHUR DE ASIS                                  0501
A1301400500684594780001********                                                 0501
B01014082400000064144331988 DEVELOPMENT CORPORATION                             1602
A0101408240711399798006REYMUNDO II, JULIUS CAESAR OR                           10505
A0101408240711399798006REYMUNDO, PIA MYLAH N.                                  20500
A0101408240000002331282PINEDA, GISBERT DEL CARMEN                               0502
A2801400100000006279816FELARCA, NICK DE GUIA                                    0501
A2801400100712688356001DEL ROSARIO, RICHARD F. OR                              10501
A2801400100712688356001DEL ROSARIO, EVE                                        20500
A2801400230000009022166CAMORONGAN, LORENA MANALAD                               0501
A4101400260812478374073AUREA D. HERRERA                                         0501
A4101400260812594262001ARLYN B. PARAGES                                         0501
A4101400390813478374014ELIZABETH V. EVAL                                        0502
A0101412340000009501111MARIA ELIZABETH A. CORONEL                               0502
B0101404840851046643001STERLING INSURANCE COMPANY, INC.                         1602
A0101404840851298552055SIXTA MELBA C. ENGBINO                                   0502
A0101404840851520766071TERESITA SANTOS                                          0501
A0101406750000007879154ROQUE, MA. CONCEPCION BONUS                              0501
