A0101400440161039572032IAN PAUL A. PADILLA                                      0502
A0101400440000006679692ARLENE CABRERA                                           0501
A0101400440161478374144CELERINA M. MARASIGAN                                    0501
A0101400440161525001091CRISTINA A. PADILLA                                      0502
A0101400440161039572036ANTONIO S. VILLANDA JR.                                  0502
A0101400440161574323001MARISSA P. MAGPAYO                                       0501
A0101400440161186947001ROBERTO L. SENA                                          0502
B0101400440000000337860SEACHON, JOSEPH CLEMENTE                                 1601
A0101400440000004901451JOSEPH C. SEACHON                                        0501
A0101400440161478374060LORETA G. TOREJAS                                        0501
A0101400440161525001174RIZALYN V. GUNTANG                                       0505
A0101400440161621420002CANO, EDWIN SANTOS                                       0501
A0101400440000004889785ELEANOR A. APO                                           0501
A0101400440161478374021DOROTHY D. SANICO                                        0501
A0101400440161525001040DOLORES A. DE GUZMAN                                     0501
A0101409920000003672075CAMPOSANO JR., DANILO E.                                 0501
A0101412920000008813689BORJA, CHARRY AUSTRIA                                    0501
A0101407270000011943065LOCSIN, RONALD MOSQUERA                                  0501
A0101406460272399832001CHAM, EDISON SIY OR CHAM, SONIA                          0501
B0101403580511017678001VF INDUSTRIAL SALES                                      1601
A0101403580511151641001CRISPINO C. CARAS OR                                    10501
A0101403580511151641001PSYCHE T. CARAS                                         20500
A0101406750000001491692DIONISIO, ESPERANZA IMPAS                                0501
A0101406750852043541001GRAFIX VENUE ENTERPRISE                                  0502
A0101400860000010683297**********                                               0503
A0101400860011419699001**********                                               0505
A0101400860011463630001**********                                               0503
A0101400860011533026001**********                                               0502
A0101401250021476357001CATHERINE GO UY                                          0501
A0101400150000000807625TOMOL, WARLITO ABAD                                      0503
B0101400150061019824001EUSKARA HOLDINGS, INC.                                   1605
A0101400150000000253074CIPRES, JAY-RAY CHUA                                     0501
A0101400150061302368002SIRENE CHUA OR ARLEEN SISCAR OR                         10501
A0101400150061302368002JOSEPHINE MAPE                                          20500
A0101400150061761332001RAYNES, LANI ROSE AGRAMON                                0501
B0101400600071516450001********                                                 1601
A0601400360083649312001KIM, KANG WOOK                                           0501
A0101406040000010081453CARANTO, MELISSA MORALA                                  0502
A0101401830141037575002MATATAG PRINTING PRESS                                   0502
A7201400170000003774425ORAIZ, JHONNY ARIEL SARCAUGA                             0502
A7201400170000006487741TAN, GLENDA NADALA                                       0502
A0101400440161029925001VESPER INSURANCE ADJUSTERS                               0505
A0101400440000000060255LOUELLIN L. LIM                                          0501
A0101400440000008201272MEMBERS OF NATASHA SHOECAT INC,                          0501
A0101400440161186924001LETTY D. HAHN JT                                         0504
A0101400440161525001096ZENAIDA F. ISLETA                                        0502
B0101407270162031640001RVG SPARROW HOLDINGS INC.                                1602
A0101407270162333154022JESUS R. MONTEMAYOR                                      0502
A0101401090171062304001TOMASIAN FASTFOOD CORP.                                  0510
A0101401090171069757001ALL JAPAN CONSULTING INC.                                0501
A0101401090171196113001ROMULO ASIS OR LEILANI ASIS                              0501
A0101401090171196114001LEILANI M. ASIS OR                                      10501
A0101401090171196114001ROMULO Z. ASIS                                          20500
A0101401090171196114003LEILANI M. ASIS                                          0501
A0101401090000010238529SUBALDO, JUANITA DE SILVA                                0501
A0301400660000003406248MARANON, ANTHONY GERALD SUAREZ                           0501
A0301400950000005707291SABANDO, RICA ALONZO                                     0501
B0101401380201006932003PITSTOP, INC.                                            1603
A0101410720000006239778*********                                                0501
A0101410720653240354001ONG CHIONG, WILLIAM C. OR                               10501
A0101410720653240354001ONG CHIONG, JULI                                        20500
A3101400160000004362958GARCIA, MARLON DBU M. GARCIA                            10502
A3101400160000004362958CONSTRUCTION                                            20500
A3101400160221221673001ALMIRA A. DIMACULANGAN                                   0501
A3001400130000005708501SOLIMA, ELEUTERIO MORIAL                                 0502
A3001400130000008916321DEL ROSARIO, EDNA MANILENA CERV                          0501
A1001400190231478374083CHIONG, MARIVIC P.                                       0501
A1001400480000002300463GO, MARIA AMBROCIA BORROMEO                              0501
B1901400290261040677001ROTARY CLUB OF LIPA WEST                                 1601
B0101401670000004588490H.S. POW CONSTRUCTION AND DEVELOPMENT                   11603
B0101401670000004588490CORPORATION                                             21600
A0101401670271457284002CONCEPCION, ROEL S. OR                                  10502
A0101401670271457284002CONCEPCION, REGINA L.                                   20500
A0101406460000008890440DUNGCA, ANTHONY CASTILLO                                 0501
A0101406620273215482001PANGAN, CORAZON NENITA CANLAS                            0502
A0101406620273301500002CAESAR A. GUERZON                                        0502
B0101406620273460371001PHIL. MANAGEMENT, INC.                                   1603
A0101406620273468797001ABAS, MA. DOLORES CASTILLO                               0501
A0101406620273720692001******                                                   0502
A0101408660000006296780TOBILLO, PAUL JOSEPH NARVAEZ                             0504
B0101408660274036067001FABRIDUCT AND METAL SYSTEMS, INC.                        1605
B0101411820000000024200CHELA MANUFACTURING CORPORATION                          1604
A0101400570281019045001INTRA TIRE RETREADING                                    0501
A0101400570000001681949SUN, BRYAN HERMOSA                                       0501
A2601400270000000561619RAUL T. SAWIT OR CARMELITA A.                           10502
A2601400270000000561619SAWIT                                                   20500
A2601400270302762450001JOYCE ANN MAYE L. DOON                                   0501
B0801400160311029906001************                                             1601
A6601400120000004440817BAQUERO, ADELINA DULA DBU                               10502
A6601400120000004440817FLORIANA'S GEN.                                         20500
A2001400290315043507001AMSTEL BEAUTY SALON                                      0501
A2001400290315636172001KHO, EVAN HO                                             0502
A0101402350000001474324MARTINEZ, KENNETH BUHAT                                  0502
A0101402350321179431001OSCAR VICEO OR ALELI VICEO OR                           10505
A0101402350321179431001JEFFREY VICEO                                           20500
A0101402350321185166001GARCIA, DANILO M. OR JULIE M.OR                         10502
A0101402350321185166001MARY CHERRIE PIE                                        20500
A0101402350321185166002GARCIA, DANILO M                                         0502
A0101402350321185166003GARCIA, DANILO M                                         0501
A0101402060000002259947REYES, ALEXIS JANEANE ALVAREZ                            0501
A0101402060351043801001EMICOR MARKETING                                         0501
B0201400760374042294001MANDAUE CEBU MARINE PRODUCTS                            11605
B0201400760374042294001CORPORATION                                             21600
A0201400890376063113001DOPPIO COFFEE TRADING                                    0505
A0201400890376535686001SO, RIZZA ANTOINETTE YAP OR                             10501
A0201400890376535686001SO, MAYLINDA YAP                                        20500
A0101402930010120000727**********                                               0501
A0101402930381205288001GRACE F. FAVILA                                          0501
A0101402930381205288002GRACE F. FAVILA OR                                      10501
A0101402930381205288002ALICE FAVILA                                            20500
A0101402930381205288003FAVILA, GRACE FLORES                                     0501
B0101402930381321280001S.D. FLORES CONSTRUCTION CO., INC.                       1601
B0101402930381321280003S.D. FLORES CORPORATION                                  1601
A0101402930381478374009MARIVIC R. DELA CRUZ                                     0501
A0101408370382431185001ARNOLD T. SALUD M.D.                                     0502
A0101408790383670811001GO, MICHAEL GUY                                          0501
A0101402770391035543001MEGACITY MINISTRY CHURCH                                10506
A0101402770391035543001SUPPORT GROUP                                           20500
A0101402770391039271001MMCSG - BUSES                                            0504
A0101405490000004808680CRISTOBAL, CRISTINA CALIP                                0501
A0101408400394436382001INFANTE, ERANIO PUNO                                     0502
A0101409180000004642739VILLARBA, JUNALYN CEDO                                   0501
A0101409180000003310312YLAGAN, TRISTAN GUMAPAS                                  0501
A0101412210000003448628DELA ROSA, ELIZABETH CRUZ                                0501
A0301400820000005196892Marilou Atanacio                                         0501
B5501400120410042035001CYCLERS BYKE HUB                                         1601
B5501400120410046647088YAP MABUHAY ENT., INC.                                   1605
A5501400120410719328001ILAO, YOLANDA CASTILLO                                   0501
A2401400180000000073550ALBARRACIN, JEMAR DEGAMO                                 0501
A2401400180000000826233OXALES, HANNAH LOUISE RAQUEDAN                           0501
B2401400180411017908001LWC CYCLE MART, INC.                                     1602
B2401400180411036177008VERTICAL BUILDERS                                        1610
A1201400150000006253636JAMON, MARY ANNE AMONCIO                                 0501
B1201400150000005357893THERMMS CONSTRUCTION AND DEVELOPMENT                    11610
B1201400150000005357893CORPORATION                                             21600
A1201400150421485874001FLORES, CHIARA MAE FAROL OR                             10502
A1201400150421485874001FLORES, GLENLIEL                                        20500
A0101403030000005944783**********                                               0501
A0101403030441029489001**********                                               0506
B0101403030441039990001TOPTRUCK ENTERPRISES                                     1601
A0101403030441069732001ONGKHO, ERIC CHRISTIAN DBU                              10501
A0101403030441069732001AIMA ELECTRONIC BIKE SHOP                               20500
B0101403320471068309001GAPAN LAND, INC.                                         1601
A0101406330000001235136ROBELO, IRMA MOYA                                        0501
A0101406330000001235352ACOSTA, DOREEN GARCIA                                    0501
A1901400160491298907001SANTISIMA B HERNANDEZ OR                                10501
A1901400160491298907001MARIE JANE H VINAS                                      20500
B1901400160491341189001VIRGINIA V LIM OR                                       11601
B1901400160491341189001RICHARD D LIM                                           21600
A0101403580000004091952CASTANARES, ROBERTO RAPERA                               0502
A0101405940512025796001ROGUES RENDEZVOUZ                                        0502
A0101405940512025796001ROGUES RENDEZVOUZ                                        0502
B0101408530000001275218*******************                                      1601
A0101408530000002980863AQUINO, JOHN JOSEPH ADRIAN ALBE                          0501
A0101408530000002980830MANOJ PAUL, CHEMPALAKUNNIL JACO                          0502
A0101412050519060053001BALITA, EVANGELINE BAYANIN DBU                          10501
A0101412050519060053001JEMIRA TRAVEL AND TOURS                                 20500
A0101403450521240997001**********                                               0502
B0101403610531068638001S T E SHUTTLE SERVICE CORP.                              1605
B2201400250561258273001*****                                                    1605
A0101404130000002121282LOUISITA O. ARISTORENAS OR                              10502
A0101404130000002121282PRECIOUS O. ARISTORENAS                                 20500
A0101407720602271723118ROBERT D. TAN-GATUE                                      0501
A0101404260611478374104JUDITH R LUMBO                                           0501
A0101404260611478374119LEA B. DAGANTE                                           0501
A0101409890000007373153MEDALLA, VILOETA TEJOSO DBU VTM                          0504
A0101411530000010858401**********                                               0502
A0101413440000007953015**********                                               0502
B0101413440000002691643KASAPI-KAAGAPAY SA PANGKABUHAYAN LE                      1601
B0101414120000003584281JD & P FOOD TRADING CORPORATION                          1602
A1301400340000010467422DIONISIO, ROCHELLE SANITA                                0501
B1301400340683353482001MARLENE R. JOSE OR JOSE MARI R. JOSE                     1602
A4101400260812344336001DR. GAVINO T. TAN JR.                                    0501
A4101400390000000975173NOAH'S ARK MANPOWER SERVICES                             0505
A4101400390000007459370POMAREJO, MELBEN PORBOLAN                                0503
A4101400550000002091009PANGAN, SONIA DINGLASAN                                  0501
A0101412340850170611002EDWIN DE LEON ESPIRITU                                   0505
A0101404840000000122658MARIFE DE CASTRO                                         0501
A0101404840000000475985DE GUZMAN, M DBU VERAZZA HOTEL                           0501
A0101404840851549756001BELO, CRISTINE CARREON                                   0501
A0101406750000002040293WILLY, JANE LAMSIE                                       0501
A0101406750000007879154ROQUE, MA. CONCEPCION BONUS                              0501
A0101406750852290414001BULAON, MARITES I. OR                                   10501
A0101406750852290414001BULAON, SONNY T.                                        20500
A0101406750852296707001SAMSON D. HECITA OR                                     10502
A0101406750852296707001JOSEPHINE R. HEC                                        20500
A0101405070861478374089FABIANTES, CHARITY CRES                                  0501
B0101413860000008668664DYNAMIC FOOD FACTORY INC.                                1605
