B0301400370192821100608**********                                               2002
A0101409210398689832001SALUD JR., LEODEGARIO HOCBO                              0501
A0101401250021528042001UBALDE, JUMAR TALENTO OR                                10501
A0101401250021528042001UBALDE, ALONA POTESDA                                   20500
A0101410720653694384001SAMBRANO II, SANTIAGO GARCIA                             0501
A6601400120000005710521CARPIO, WILBERT DIANO                                    0502
A2001400290000001301580BONIOR, MARIO CURATIVO                                   0502
B2001400290315528399001**********                                               1601
A2001400290315685595001TAGLE, FE MARIE DICEN                                    0502
B0101409180397821100608**********                                               2005
A0101400860000005313148******                                                   0506
B0101400860011388376002**********                                               1603
A0101400860011391589003**************                                           0505
A0101400860011514595002**********                                               0502
A0101400860011518992001**********                                               0510
A0101411370000000470400ALCANTARA JR., SEVERO DANAS                              0502
A0101400150000000525433GARCIA, ALFRED BENJAMIN RIVERA                           0501
A0101400150000008743693RAMIREZ, HARE KRISNA MANALO                              0501
B0101400150061010782001LUX MANUFACTURING CORP.                                  1601
B0101400150061010833001VELCA TRAVEL & TOURS, INC.                               1602
A0101400150061087284001RODA, JULIUS R. DBU SJA TRADING                          0502
A0101400150061337010158MA. ROSARIO LOURDES GARCIA                               0501
A0101413280000000041852OLA, EDAM CRUZ DBU HIJK SHIRT                           10501
A0101413280000000041852PRINTING & DESIGNS                                      20500
B0101414090000000399457ANTARA VENTURES INC.                                     1603
A0101410850109055107001BOTE, MARISSA M. DBU SUN CHASER                         10501
A0101410850109055107001TRUCKING                                                20500
A0101410850000003503551DUQUEZ, PRUDENCIO MALDA                                  0502
B0101400730111036857001FRC SULO RIVIERA HOTEL CORPORATION                       1606
A0101401830141377758001********                                                 0502
A0101400440161039572072MEDITA P. ALIMPUANGON                                    0501
A0101400440161478374051LILIA S. FELICES                                         0501
A0101401090171196128001DRS. ROLANDO CABATU OR                                  10502
A0101401090171196128001MARCELLA RUIZ-CABATU                                    20500
A0101401090171381768001MA. CAROLE LISA C. SIBULO                                0502
A0101401090000000210533ALVIN BRIAN C. VELASCO                                   0501
A0301400530193504844111********                                                 0503
A0301400530000001009932TAUTHO, SHIRLEY E.                                       0502
B0301400660000003361931YNIGO & YVANNA CONSOLIDATED CORP.                        1602
B0301400790000002301308AQUINO, ALLAN E. OR                                     11602
B0301400790000002301308AQUINO, DENNIS E                                        21600
A0101410720000002283985DIAZ, CELINA CRUZ                                        0501
A0101412500000001146963SANTOS, GERALD J. OR BALILO,                            10502
A0101412500000001146963VICTOR M.                                               20500
A0101412500000001147017MOLDEZ, AZIEL JIREH                                      0502
A3101400450223352819001FARAON, RIZALINA OR                                     10502
A3101400450223352819001BELEN, RHODORA                                          20500
B3101400450223821100608**********                                               2002
A1301400470252501988001DARIUS V. CUNANAN                                        0501
A1301400470000001299009NIDA S. AQUINO                                           0502
A0101406620000000193760DIAZ, FRANCIS PATRICK TAYENGCO                           0502
B0101411110000003202108CROSSFOODS CORPORATION                                   1605
A0101400570000000749582ALMIRANTE, JAMES VINCENT YABES                           0501
B0101400570281026341001PUBLIC SAFETY SAVINGS AND LOAN ASSOCIATI                 1605
A0101400570281186842001DR. BENITO H. RAMOS JR.                                  0503
B0101410430282821100608**********                                               2002
B2601400270000002677296******                                                   1601
B0801400160311271206001WESTERN LAMP & ELECTRICAL SUPPLY                         1604
A0801400160311504342001JANG, WON JEON JEONG                                     0501
A3401400280318478374006LOVERAS, EMCY DEL ROSARIO                                0505
B0101402350321738079001OLIVAREZ GENERAL HOSPITAL INC.                           1610
A0101409050352600066001FAYE CARLIE CRUZ OR                                     10501
A0101409050352600066001BENSON RYAN CRUZ                                        20500
B0201400890376037020001BREEDERS AGRIVET SUPPLIES INC.                           1605
B0101402930000005646022BARENTS MARKETING CORP.                                  1602
A0101408370000000014513**********                                               0501
A0101405490392173389001RICARDO R. GO OR                                        10505
A0101405490392173389001EVELYN  GO                                              20500
A0101408400394027889001TINA S. BERIN FLOWER SHOP                                0505
A0101408950000004512070GARCIA, ALLAN LAGAYA                                     0504
A0101408950000002255450LIM, ADELINA SABAY                                       0502
A0101409180000003866677WITTIG, LARS BENDSON                                     0502
A5501400120000001121720BELDAD JR., REMEGIO DEBELDOS                             0501
A2401400180000005286911LIM, SUSAN LIM                                           0501
B1201400150000000034379GOSHEN LAND CAPITAL INC.                                 1605
A0101403320471207226001RIZALINA PAGOROGON, M.D.                                 0503
A0101410140000000482702LABASTIDA, ENGRACIO DOTOLLO                              0501
A1901400160491307939001EDWIN P CHUA OR EDDIE P CHUA                             0504
A0101403580511150629008MIRIAM HIPOLITO OR RAMONA PENA                          10501
A0101403580511150629008OR GERALDINE LIM                                        20500
A0101403580511388107001ANTONIO G. PEDRO OR                                     10502
A0101403580511388107001FELISA C. PEDRO                                         20500
A0101405940000001534269**********                                               0501
A0101408110000001823810REMOLACIO, FRANCIS LILIAN DBU                           10503
A0101408110000001823810BLUE SKY TRANSPORT                                      20500
B0101403450521011643001**********                                               1602
B0101403450521011670001**********                                               1601
B0101403450521024677001GRAND MAJESTIC MANUFACTURING CORP.                       1602
A0101403610000009089574LOMBOS, JOSEPH RAMIL BAUTISTA                            0501
A2201400250561028327002******                                                   0502
A0101410690000000710621MALLARI JR., RO DBU ROMA PRINT                           0501
A0101407720602387084002VILLON, ROZAIDA RESTRIVERA                               0502
A0101407720602453214003TUBERA, LEODERICK VELEZ                                  0501
B0101407720602697838001NCT SPA CORPORATION                                      1602
B0101412180000001293152AGORA TECHNOLOGIES, INC.                                 1604
A0101404260611152159001VEDAD, JOSEPHINE ABON                                    0501
A0101413570000003379908CABANIG, MYRA MELAYA                                     0503
A0101413570000005867430*******************                                      0501
B0101413570000003580681FERRER, MARK OLIVER AND FERRER, ADLIN                   11601
B0101413570000003580681MAE                                                     21600
B0101406590000000905657BRAINCHILD SIX INC.                                      1602
B1301400210682012854002BULACAN PUBLIC SCHOOL TEACHERS MULTI-                   11605
B1301400210682012854002PURPOSE COOP INC                                        21600
A1301400210000000540732LUPENA, MA. LINDA GANZON DBU JI                          0501
A1301400340683354466002LEGASPI, CRISTINA D OR ZAMORA                           10505
A1301400340683354466002MARY CATHERINE O                                        20500
A2801400230000001782083DE GUZMAN, LITO C. DBU D.G.L                            10502
A2801400230000001782083MOTOR WORKS & GEN. SRVS                                 20500
A4101400420000007305433MANICIO, MARIA ARMI ORTEGA                               0501
A4101400550000006044628BALDERAMA, CARMELITA DAGALE                              0501
B0101406750852032718001PHILGREEN PLASTICS CORPORATION                           1601
A0101406750852478374002TERESITA LIWANAG                                         0501
B0101406750852491986001SPRINGPHIL TRADING & MFG. INC.                           1601
B0101406750852491986001SPRINGPHIL TRADING & MFG. INC.                           1601
B0101406750852740034001MORE-NING SUN PACKAGING CORP.                            1601
