B0101409050352821100608**********                                               2002
A0101402930381173919001MARIA VICTORIA M. AQUINO                                 0501
A0101400860000005313126*******                                                  0510
A0101400860011035923001**********                                               0502
A0101400860011479919001**********                                               0501
A0101401250000008233312QUIAOIT, JOSE MA. LOPEZ                                  0502
A0101400150061228273001KARLEEN ZITA P. CASINO                                   0501
A0101400150061236944027***************                                          0501
B0101400600000001335693ANDRES, JOENATHAN DBU JOENATHAN ANDRES                  11603
B0101400600000001335693GENERAL MERCHAND                                        21600
B0101405810072029570001PLASTIC CONSUMER CORPORATION                             1602
A0601400100000007254022DIMATULAC, CHARL ALVIZ                                   0501
B0601400100000007185266ANGELES FFTH DEVELOPMENT CORP.                           1610
A0601400360083649312001KIM, KANG WOOK                                           0502
A0101410850000011182653PIGASON, JULIUS ALBERT PUJOL                             0501
A0101410560000000757240BALTAZAR BEATRIZ AND GARBILES                           10502
A0101410560000000757240LETICIA AND FELIX CORAZON                               20500
B0101410560000008979311THRILLON INC.                                            1603
A0101410560000001291032VILLACIETE, DAHLIA SAPE                                  0502
A0101400730000001697389LOPEZ, ERIC G.                                           0501
A0101400730111195439001TAN, ROWENA                                              0501
A0101400730000000645410ASIS, REDENTOR CONSTANCIO                                0501
A0101400730111545796001FAMERONAG, NICON FAMARIN                                 0502
A0101406040112653549001JEANETTE G. SY                                           0505
A7201400170000011187034ALBANO, ANALOU FLORES                                    0501
A0101412920000002359071DELOS REYES, ANNA RAIZA DECENA                           0501
B0101412920000000276711KALAKAL FOOD CONCEPT INC.                                1601
B0101407270162033826001UNI-FILES SAVER CORPORATION                              1610
A0101407270162333006030CAROLYN R. OFILANDA                                      0502
B0101401090171195768002CELIA D. SAYO AND VICTORIA D. ESGUERRA                   1601
A0101401090171200444001FRANCIS ROASA OR ELIZABETH                              10505
A0101401090171200444001ANGELICA ROASA                                          20500
A0101401380201610115001BELTRAN, SYLVIA HAZEL BISMONTE                           0502
A0101410720653768067001DELOS REYES, MA. ERIKA WONG                              0501
A3101400450000005960432LACANILAO, MARKUS DBU MAVLAC                            10502
A3101400450000005960432METAL TRADING                                           20500
A3101400740000006735835DAVIN, LIZA DBU ROMERO DAVIN                            10502
A3101400740000006735835REALTY AND SERVICES                                     20500
A3101400740000000013834SAMUYA, MARITES MAINIT                                   0501
B3101400870225065387002HAFID INDUSTRIAL TECHNOLOGIES INC.                       1601
B1301400760000000050773GG&G DISTRIBUTORS INC.                                   1610
A1901400290000003252731REBECCA VELASQUEZ ARIOLA                                 0501
A1901400290261402217001ROWENA M OLIVERA                                         0502
A1901400290261499267001ALBERTO GUEVARRA MENDOZA JR.                             0501
A1901400290261500749001GERVASIO IGLE GARING OR                                 10502
A1901400290261500749001JULIETA LACORTE GARING                                  20500
B0101401670271477778001VIRTUSIO PR INTERNATIONAL, INC.                          1601
B0101406460272036660001***********                                              1603
A0101406460272345792001********                                                 0501
B0101406460272506117001AXIS DISTRIBUTION, INC.                                  1602
B0101406620273033309002KINGSTON HOLDINGS INC.                                   1601
B0101406620000000962432ORTIGAS TECHNOPOINT REALTY INC.                          1603
A0101406620000000044033EVELYN FERNANDEZ                                         0502
A0101406620273401580001ONG, JIMMY UY                                            0501
A0101406620273444658001GINA L. JULIANO OR                                      10502
A0101406620273444658001NOLY P. JULIANO                                         20500
A0101406620273629194001CAEZAR JR.OR MA. SOCORRO LANUZA                         10502
A0101406620273629194001OR SANDRA FERNAN                                        20500
B0101408660274038999001FRASOR GLASS AND ALUMINUM INC.                           1601
A0101412470000000853834CHUNG, EUN JOO                                           0502
B0101400570281043944002EXLO MANPOWER AND ALLIED SERVICES, INC.                  1602
B0801400160000000009452JESTER FOOD PRODUCTS                                     1603
B0101402350321006984001INTEGRATED HYDRO-PNEUMATIC                              11610
B0101402350321006984001SYSTEMS INC.                                            21600
B0101402350321038337001JC UMEREZ PRIME HOLDINGS CORP.                           1605
A0101402350321278975001LORDELITA A. MARTINEZ OR                                10501
A0101402350321278975001JOHNNY V. MARTIN                                        20500
A0101402350321278975002LORDELITA A. MARTINEZ                                    0501
A0101405650000005284339GALLEGO, RHYAN CAELIAN                                   0501
A0101405650000006893469YSMAEL JR., CARLOS GONZALES                             10501
A0101405650000006893469or YSMAEL, LOURDES MARIA                                20500
B0101405650322018681009LANDCO PACIFIC CORPORATION                               1602
B0101405650322018681010LANDCO PACIFIC CORPORATION                               1601
B0101405650322018681011LANDCO PACIFIC CORPORATION                               1601
B0101405650322018681014LANDCO PACIFIC CORPORATION                               1603
B0101405650322018681015LANDCO PACIFIC CORPORATION                               1601
A0101405650000003491412DE JESUS, CARLO FRANCIS CRUZ                             0505
B0101409050352040597001TOEI ANIMATION PHILS., INC.                              1610
B0101409050000006319257STOK MNL INC.                                            1601
A0101402930000003346701MEDEA R. CHAN                                            0502
A0101402930000003346712MIRIAM L. ESPINA                                         0501
B0101402930000000623410R AND C OUTDOOR MEDIA INC.                               1606
A0101408370000006446193NER, MARK HERNANDEZ                                      0501
A0101408370000009296660SALVACION, ALLAN BRYAN DIOSO                             0501
B0101408370382033381003THE MEDICAL CITY, DEPARTMENT OF SURGERY                  1602
A0101408370382327238001DR. MA. CORAZON A. CASTILLO                              0502
A0101405490392655693001PIMENTEL, WENCESLAO CEZAR                                0501
B0101408400000003120587YSON, SHERILYN CAJUDAY                                   1601
B0101408400394027731001TOYTOWN CORPORATION                                      1620
A0101408400394431284002DIMAGIBA, MA. TERESA ELA                                 0501
A0101409210000007762910PUNO, ANNA CRISTINA TEODORO                              0501
A0301400820000000045485BONCIT, ANNIELIZA C.                                     0501
A5501400120000001121811VILLARUEL, MARIA VIRGINIA                                0503
A5501400120410085274008VILLARUEL, MARIA VIRGINIA H.                             0503
A2401400180000005287021BAYHON JR., EDUARDO DIESTRO                              0504
B2401400180411020380001BOUNTY AGRO VENTURES, INC.                               1605
B2401400180411035164001MOMMY GINA TUNA RESOURCES (MGTR), INC.                   1605
B2401400180411056764001RD PAWNSHOP, INC. - GENSAN REGION                        1603
B2401400180000007476897BRIGADA PUBLISHING CORP.                                 1605
B2401400180000007476900BRIGADA PUBLISHING CORP.                                 1605
A2401400180000001676913***********                                              0501
A2401400180411606823002MONACILLO, MARICHU SABANDAL                              0501
B0901400220000000012324SPECIALIST MOTORCYCLE PARTS &                           11610
B0901400220000000012324ACCESSORIES, INC                                        21600
A0101403030000000993984YAP, AMY DELA CRUZ                                       0502
A0101403320000001646631SANTIAGO, LEILANI SANTIAGO                               0502
B0101403320471008859001NEW LITE LUMBER & CONSTRUCTION                          11602
B0101403320471008859001SUPPLY                                                  21600
B0101403320471019960002DIRECT ELECTRIX EQUIPMENT                               11605
B0101403320471019960002CORPORATION                                             21600
B0101403320471020319001LORD OF THE NATIONS, INC.                                1605
A0101403320000006026940**********                                               0501
A0101406330000004349662EVERLYN G. BANALAGAY OR                                 10502
A0101406330000004349662IVY G. BANALAGAY                                        20500
A0101406330472027958001A. ANOLIN ENTERPRISES                                    0502
B0101410140000007303682SINAG TALA (ST) MICROLENDING CORPOR                      1602
B1901400160491068033001QATAREX CORPORATION                                      1601
B0101407430000001213169FAST LANE INTERNATIONAL LOGISTICS INC.                   1602
A0101407430503178910001MERLYN D. GALLARDO                                       0503
A0101407430503553085001SINTO M. UY OR MADONNA UY                                0505
B0101403580511020821002PAMANA DEVELOPMENT CORPORATION                           1601
A0101403580511388681001BIBIANO N. GARCIA                                        0501
A0101405940000002268733HERNANDEZ, ERLYN PAPA                                    0504
B0101405940512542852001BRIGHTMED PHILS. INC.                                    1602
A0101408530516485329001GILBERT C. ARCILLA OR                                   10502
A0101408530516485329001MA. ISABEL D. ARCILLA                                   20500
A0101408530000006599651JAY R M. PAGUIRIGAN                                      0502
A0101411400000005330012MANGONON, MA. LISETTE LARRACAS                           0502
A0101411790518055764196LIANG, JEN RAY YU                                        0501
B0101411790518821200608**********                                               2002
B0101403450521011670001**********                                               1601
B0101403450000002975677SAFEWAY CUSTOMS BROKERAGE, INC.                          1605
B0101403450521017494001YU ENG KAO ELECTRICAL SUPPLY &                          11602
B0101403450521017494001HDWE, INC                                               21600
A0101403450521238064001**********                                               0501
B0101403450521238946001**********                                               1601
A0101403450521481849001**********                                               0502
A0101403610531068041001PROFUGO, EIREEN T DBU                                   10501
A0101403610531068041001EIJO TRADING                                            20500
A0101403610531219572001DR. JAIME A. BARRON                                      0501
A0101403610531478374002GRAPE, IMELDA HANDOG                                     0501
A0101407720602296819002MA. LOURDES G. GOZALI OR                                10502
A0101407720602296819002VICTOR K. GOZALI                                        20500
A0101407720602396744002ANG, JENNIFER CU                                         0502
A0101404260000003498419LACAP, LARINA LUSABIA                                    0502
A0101409890000006812882REYES, JENNIFER SAN JUAN                                 0501
A0101409890000006277730QIU, LIAO OR DE JESUS, WILTON                            0501
A0101407690652324673001RAFAEL FELIX F. BORROMEO OR                             10503
A0101407690652324673001BERNADETTE CECIL                                        20500
A0101407690652344105001DR. RICARDO S.D. LEDESMA OR                             10501
A0101407690652344105001AVELINA G. LEDES                                        20500
B0101411530000003038257**********                                               1605
A0101413440000010659215**********                                               0502
A0101413570000005867430*******************                                      0501
A0101406590000000568703SUZUKI, JOHN MICHAEL DE VERA                             0501
A0101406590662497384001CAROLINO, ANNE PATRICIA DUERME                           0502
A1301400340683664578001HERMOSO, MARCOS STA. CRUZ                                0501
A0101408240711375520001GARROVILLO, PAULITA OR RENE OR                          10501
A0101408240711375520001JOSE                                                    20500
A2801400100000002253607SPRINGAEL, CHERRY BARBACENA                              0501
B4101400260812012643001KUM KANG CERAMIC PHILS. CO., INC.                        1606
A4101400390000007459198GUINOO, BERNARDO PRUDENTE OR                            10503
A4101400390000007459198GUINOO, ANA BOSC                                        20500
B4101400420814044663001WINWORKS ENTERPRISE                                      1602
A4101400420814478374122AGUILO, RODENA T.                                        0501
A4101400420814520766111COLETA, JEANNETTE C.                                     0502
A0101412340000005566652RODRINA P. CELLAN                                        0501
B0101404840000006365160HERMOSO, BRUCE BRYAN AND MANGULABNAN,                   11601
B0101404840000006365160RICARDO                                                 21600
A0101404840000000085050NIKKI DE ISO                                             0501
A0101404840000000943248ROMINA LOZANDE                                           0503
A0101404840851478374094LETICIA FULLO                                            0501
A0101404840851481664037CHRIS ALMOITE                                            0501
A0101404840851557822001CONDES, DANELES PEREZ                                    0501
A0101406750852615338001CHAVEZ, ANGELO D. OR                                    10501
A0101406750852615338001BARLAAN, CHRISTY                                        20500
A0601400230000005185833DUMAN-AG, MERCEDES MANUEL                                0501
B0601400230000003638993DUCUT, A DBU AMADOR P. DUCUT TAX                        11602
B0601400230000003638993CONSULTANT SERVI                                        21600
A0601400230891597238001VIRAY, LOLITA BUNGAY                                     0501
