B0101411530654821200608**********                                               2001
A0101400440000009896173TAPON, PAUL EVANGEL TURATO                               0501
A0101400440161525001095MARITES T. TAPIADOR                                      0501
A0101414120000006864442VALDEZ, EMERSON V. OR                                   10502
A0101414120000006864442INOCENCIO, EDWIN                                        20500
A0101414120000001142852TERESITA M. PUYAT OR MARY ANN                           10503
A0101414120000001142852MAGNO                                                   20500
B0101400860011464418002**********                                               1605
B0101401250021006625003WODEL, INC.                                              1610
A0101401250000007121400JC DAIS PERFUME REFILLING                               10502
A0101401250000007121400STATION                                                 20500
A0101400150000009399659ABANTE, SEIS ANTHONY CECILIO                             0501
B0101400150000000000191TRANS-ASIA WIND POWER CORPORATION                        1601
A0101400150061226674001FE V. CAPISTRANO                                         0501
A0101400150061720595050PATRICK PETER R. SANTOS                                  0501
B0101405810072412798001**********                                               1603
A0601400100081251810001CHUA, BENITO OR CHUA, CARMELITA                          0502
A0601400360000000978903SERRANO, NATHANIEL EDOQUE                                0503
B0601400520000000398512PAGASA PHILIPPINES LENDING COMPANY, INC.                 1606
A0101400730000000645410ASIS, REDENTOR CONSTANCIO                                0501
A0101401960000000008095ANG, PAUL GO                                             0502
A0101401960000004419881SUNWELL ENTERPRISE                                       0502
B0101401830000000033581CARITAS SALVE CREDIT COOPERATIVE                        11603
B0101401830000000033581(BULACAN) 003                                           21600
A0101401830141259521001JIMMY N. YANG                                           10501
A0101401830141259521001SONLY PRINTING PRESS                                    20500
A0101401830141769877001MALINAO JR., CRISPINO GRANDE                             0501
A0101407270000002334772BOLISAY, ROY SAPIDA                                      0505
A0101401090171198853002ROGELIO B. DE GUZMAN                                     0504
A0301400530193709171001MARIA THERESA R. TAG AT OR                              10501
A0301400530193709171001ZEUS CHRISTOPHER                                        20500
B0301400530193792821088LI, DENNIS JOSEPH T.                                     1601
A0301400790000000435994********                                                 0502
A0101401380000001412640AQUINO, CHARITO MENDOZA                                  0501
B0101401380201525090001HONGKONG MASTER COOK CORPORATION                         1605
B3101400160221065941001GLOBAL MEDICAL CENTER OF LAGUNA, INC                     1601
A3101400160221533266001ANGELITO S. LAZARO JR.                                   0502
A1001400190231478374067DAGANATO, NICANORA BALOS                                 0501
A1001400350000000922412FHEDZ VENTURES                                           0503
A1001400350233478374020ELMA O. GAWAT                                            0501
A1001400480000006270340DAING, DAISY SALVANA                                     0501
B1301400470000003270113OBRIGADO LENDING INVESTOR, INC.                          1601
A1301400760000005990003ROWENA D. ALVAREZ                                        0505
B0101406460272033798001WTA ARCHITECTURE AND DESIGN STUDIO                       1603
A0101406620000000193760DIAZ, FRANCIS PATRICK TAYENGCO                           0501
A0101406620000001686542ENERO, SHERYLL TOLENTINO                                 0501
B0101406620273009744001NORCONSULT MANAGEMENT SERVICES PHILS.,                  11602
B0101406620273009744001INC.                                                    21600
B0101406620273022260001CROWN SYNERGY TRADING CORP.                              1608
B0101406620273031852001EDGE INTERLINKS CORPORATION                              1604
B0101410980000003479470CRAFTISTRY INC                                           1610
A0101400570281021967001CHANGING DIGITAL IMAGING                                10501
A0101400570281021967001GRAPHIC                                                 20500
B0801400160311065656001CNS ELAMP EDUCATION INC                                  1601
A0801400160311478374039LEONORA J. ESFORMA                                       0501
A6601400120314076124001MARCELINO, JOCELYN LESIGUES                              0502
A2901400130000005961395LIMA, ELAINE TRIESTE                                     0501
B0101402060351041162001VENTAJA INTERNATIONAL CORP.                              1602
B0101409050000000258462THE NEW REEDLEY INTERNATIONAL SCHOOL                     1602
A0101409050352513235001RYAN M. HONORAS                                          0503
A0101409050352513235001RYAN M. HONORAS                                          0503
B0201400760374026433001TSUNEISHI HEAVY INDUSTRIES (CEBU), INC.                  1605
B0201400760374044646001FORTY DEGREES CELSIUS INC.                               1602
B0201400760374045286001C.K. BUILDERS CONST. & DEV'T. CORP.                      1605
A0201400920000002249998GALANG, LORLIE PACURIBOT OR                             10501
A0201400920000002249998GLENN ANTHONY GALANG                                    20500
A0201400890376458754001NOMBRADO, GILBERT DOMASIS                                0501
A0101402930000010103627SARMIENTO, ROMINA ANGELA CO                              0501
B0101402930000003269276SKYCLIMBER CORPORATION                                   1602
A0101402930381205320001SIMON BUMANLAG SAWIT OR                                 10501
A0101402930381205320001FILIPINAS TIANGCO SAWIT                                 20500
A0101408370382205328002LIGAYA P. SANGA OR                                      10501
A0101408370382205328002ANNA LEAH P. SANGA                                      20500
A0101408370382205368001DR. EDGARDO R. SAN JUAN                                  0504
A0101408370382379254001DR. CESAR A. DE LEON                                     0501
B0101402770000000080613SPRAYED POLYURETHANE FOAM SYSTEM                        11604
B0101402770000000080613CORPORATION                                             21600
A0101402770391216911001GRACE V. YUZON                                           0501
A0101405490392354250001EDGARDO G. FLORES                                        0501
A0101408400000005286422BONGAROS, NORHAYNI DATUMANONG                            0503
B0301400820000005196750POWER ASSET SERVICES CREDIT CORP.                        1603
B2401400180411040250088HOME SOLUTIONS DEPOT PLUS                                1615
A0901400220000000888064**********                                               0502
B0101406330000000432682MAGAYON EMISSION TESTING CENTER, INC.                    1602
A0101406330472573379001POI HOK SY                                               0501
A0501400170481257787001DR ANTONIO B ESPINO II                                   0501
A0101403580511152927002ANTONIO O. MACEDA JR. OR                                10502
A0101403580511152927002PERLA C. MACEDA                                         20500
B0101408530516033397001SPRINGER INTERNATIONAL, INC.                             1605
B0101411790518066332001OCAMPO AND SURALVO LAW OFFICES                           1601
B0101403450521035140001**********                                               1602
A0101403450521238265001**********                                               0502
A0101403610531224442002GUEVARA, RUEL ALTURA                                     0501
A2201400250561028844002CHRISTIAN HOME FURNISHING                                0504
B2201400250000002924741ZUVIN GEN. MERCHANDISE                                   1601
A0101404130601450195002CAYANES, GLORIA M.                                       0504
A0101407720000004664893PANO, MARICEL VELASCO                                    0501
A0101407720602163476001PAGDANGANAN, ERNEST APACIBLE                             0501
A0101407720602453904001ROSAS, NOEL LANETE                                       0502
B0101407720602531639007INTELLIGENT BEAUTY SKIN SOLUTIONS INC.                   1610
A0101412180000007360381TACDA, RETCHEL GALES                                     0502
B0101412180604066356001PRIMMA ARCHITECTURAL DESIGN INC.                         1601
A0101409920000000998638BONABON, LERNED HAN FONACIER                             0501
A0101409920000005460771MEMBERS OF NATASHA, SHOECAT INC                         10501
A0101409920000005460771ALCANTARA, CORAZON R.                                   20500
B0101407690652035567001NEW COMLOGIK BUSINESS SYSTEMS, INC                       1604
B0101411530000002641783TRI GONZ FLOWER TRADING CORPORATION                      1601
A0101413440000006680982CERDENIA, JO-ANN BASIRGO                                 0501
A0101413440000006680766ENCINAS, THERESE URBANO,                                 0501
A0101413570000005867430*******************                                      0501
B0101413570000000206482E SOURCE SYSTEMS DEVELOPMENT COOPERATIVE                 1610
B0101413570000005867496POWER PRIME HARDWARE AND CONSTRUCTION                   11603
B0101413570000005867496SUPPLY                                                  21600
A0101413990000000206033MARITES R. CONANAN                                       0502
A0101414120000000875572REDESIL CONSTRUCTION                                     0502
B0101414120000003584281JD & P FOOD TRADING CORPORATION                          1602
B0101406590000000035594*****                                                    1605
B0101406590000000905657BRAINCHILD SIX INC.                                      1602
B0101406590000003007289ARSENAL CINEMATOGRAPHY COMPANY INC                       1602
A0101406590662208118001CYNTHIA OR CHERYL MYLA ARCINUE                           0501
A0101410300000004361608REYES, MA CARMEN ALCUAZ                                  0502
A1301400210682478374062MA. ERLINDA C CHUA                                       0501
A1301400210682619589001REGALADO B GOLE OR                                      10501
A1301400210682619589001MIGUELA M GOLE                                          20500
A1301400340000000011616RIVERO, DARLYN ALSON                                     0502
A0101408240711759891001BONTIA, NELIZA MARFA                                     0503
A2801400100000003116703VIRAY, ADRIAN BALUYUT                                    0502
A2801400100712430047001LEE, JAMES TAN                                           0502
A4101400390000006302472REYES, ELENITA BONUS                                     0501
A4101400550000006044355ACP DESIGNS AND BUILDERS                                 0502
A4101400550815696464001SAMONTE, SONIA SINGSON                                   0501
A0101412340000003348678MARIA CELESTE D. SAN ANTONIO                             0501
A0101404840000003409772LELIS, FRANCIS ANTIADO                                   0501
B0101404840851009284001UNIVERSAL GLASS CO., INC.                                1601
A0101404840851520766104PARAGAS, MARILOU                                         0501
A0601400230000000045241CANINO, CRISTINA FERNANDEZ                               0501
B0601400230891045961001MICHIGAN MOTORS, INC.                                    1605
A0601400230000000186867SAPNU, D DBU D.L.S.J GLASS ALUM                          0502
B0601400230000003644853ALL 'BOUT PEOPLE SERVICES & TRADING                      1601
