B0101410270202821100608**********                                               2005
B0101410270202821200608**********                                               2002
A0101410850000002356863PORILLO, DBU PORILLO'S SUGAR                            10501
A0101410850000002356863CANE FARM & TRUCKING SVCS                               20500
A0101400440000001439910JESSIERELL F. NACILLA                                    0501
B2401400180000000019827CHONA U. CARIAGA FOODSHOPPE                              1603
A2401400180411572205001EBRAHIM, MA. AMOR ISHAD                                  0501
A4101400420000000710052JUMAWAN, HARRY FAUSTORILLA                               0503
A4101400420814477593003BAUTISTA, TERESA PONCEJA                                 0503
A4101400550000001622606CATRE, MELANIE PINGOL                                    0501
B0101400860011490631002**********                                               1602
B0101400150061008266001STANDARD INSURANCE CO., INC.                             1601
A0101400150061656681001PASCO, KAREN MIRIAM SORIANO                              0501
A0101400600071092538001CHAN, GIDEON DY OR                                      10510
A0101400600071092538001CHAN, JEANNE P.                                         20500
A0101405810072300425001**********                                               0501
A0101405810072462871001LI, SHAO YA KE                                           0504
A0101405810072545795001**********                                               0501
B0101400730111015420002FELANER REALTY DEVELOPMENT CORPORATION                   1606
A0101401960121238667001MARCELO PASCUAL OR                                      10501
A0101401960121238667001MERCEDES PASCUAL                                        20500
A0101412630000002352369REYES, JOSEPH DENNIS RIVERA                              0501
B0101412630000002186427EASTGATE MARITIME TRAINING CENTER I                      1605
B0101401830141032221001CARITAS ET LABORA HUMAN RESOURCE SERVICE                11610
B0101401830141032221001COOP.                                                   21600
B0101400440000003766923RIVERMOUNT HOTEL & RESORT INC.                           1615
A0301400530193674940001APOLINARIO, FRANCIS A. OR                               10505
A0301400530193674940001LOU JOSEPHINE M.                                        20500
A0301400790000002301280SENEN, PATRICK VINCENT GAPUZAN                           0501
A0301400790000002301273DANGCALAN, MARITES DALOGDOG                              0501
A0101413600000000206824CHESING GENERAL MERCHANDISE                              0502
A3101400160000002761931DIANGKINAY, ENGRACIA CARRO                               0501
B3101400450223022719001GENCARS SAN PABLO, INC.                                  1610
A1001400190000000124803FANTONIAL, MERILY H.                                     0501
A1001400480000003357679SUMANDO, EXEQUIEL MANUEL                                 0502
B1901400290261033408001FEEDS EDITION DISTRIBUTION SYSTEMS INC.                  1615
B1901400290261049824001BONLOU, INC.                                             1610
A1901400290261478374026CRISTY P MOLO                                            0501
B0101406620273047215001UMIC INTERNATIONAL, INC.                                 1605
A0101400570000000749651LIBERTY B. MALUBAY                                       0501
B0101400570281024165001PHILIPPINE SOCIETY OF CLIMACTERIC                       11602
B0101400570281024165001MEDICINE                                                21600
A0101400570281399721001JOFFREY U. UY                                            0501
A6601400120000006154623LAORENO, RAQUEL TUBALLAS DBU                            10501
A6601400120000006154623JURIS TRANSPORT SERVICES                                20500
B0101402350321045454001DIMENSIONAL SERVICE CORPORATION                          1603
A0101402350000003080311PAEZ, LORIE  DBU VOXNET                                 10502
A0101402350000003080311MARKETING                                               20500
A0101402350321597544001ARSITIO, ROBERTO T. OR ARSITIO,                         10501
A0101402350321597544001LUVIZMINDA L.                                           20500
A0101402350321708802001ALMAROSE C. VILLAPANDO                                   0501
B0101402510341060430001********                                                 1601
B0101402060351015284001GREEN VALLEY COUNTRY CLUB                                1601
B0101402060351030802001PACIFIC RESINS INC.                                      1605
A0101402060000000175911CHUA, RENATO BANDRIL OR BONDOC,                         10502
A0101402060000000175911NARCISA NAVARRO                                         20500
A0101402060351444611001BONDOC, NARCISA NAVARRO                                  0502
B0101409050352009648001CHRIST'S COMMISSION FOUNDATION, INC.                    11602
B0101409050352009648001(EASTWOOD)                                              21600
A0201400760000002047332ROBLES, NONILO JAVIER                                    0502
A0201400920375478374009FABRIGAR, ARCELI CALIB-OG                                0501
A0201400920375534474003CHUA, JEFFREY O. OR                                     10501
A0201400920375534474003CHUA, SHEILA FAT                                        20500
A0201400890376691657001CRUZ, CHERRIE ANNE LIONGSON                              0503
A0101402930000000859769SANTOS, VIOLETA DALUSONG  DBU                           10502
A0101402930000000859769VSANTOS TRADING                                         20500
A0101402930381615796001LOTILLA, CATHERINA MANUELA REME                          0501
A0101411660000004597220BONDOC, NARCISA NAVARRO                                  0502
B0101408400000004733773SINCERE FACADE PHILIPPINES, INC.                         1602
A0301400820000000316670TIONG, ARISTON D.                                        0502
A2401400180000000826131MATILOS, JANINE DAVOCOL                                  0501
B0901400220432043554001GERRY'S GRILL                                            1602
B0901400220000000888202**********                                               1601
B0101406330472017558002**********                                               1601
A0101406330472081531001MARIA SHIERILA I. YANG                                   0503
B0101410140000000038895NANOZ, DE LA CRUZ AND ASSOCIATES, C                      1601
A1401400110000001806873********                                                 0501
B1601400170000000497110MULTI-TECH INDUSTRIAL AND ENGINEERING                   11602
B1601400170000000497110SUPPLY CO.                                              21600
B0701400260000000670991PURITAN LAND DEVELOPMENT CORPORATION                     1602
B0701400260000000041130TREVOR ETON REALTY CORPORATION                           1602
A0101407430000002298133EMYLOU L. PATILLA OR                                    10501
A0101407430000002298133MAURICE M. PATILLA                                      20500
A0101407430000002298315EXCEL A. GRESOS                                          0501
A0101407430000001028842JOEL F. ORTILLO                                          0502
B0101408110000003281490SNEDKER DIVERSIFIED TECHNOLOGIES INC.                    1602
A0101411400000000001532AL SHOMALI, MOHAMAD MOSTAFA S.                           0520
B0101403450521046215001CHOI GARDEN SEAFOOD & SHARKSFIN                         11602
B0101403450521046215001RESTAURANT CORP.                                        21600
B0101403450521239028002**********                                               1601
B0101404000551033697001CREDIT CARD ASSOCIATION OF THE                          11602
B0101404000551033697001PHILIPPINES                                             21600
A0101410690000000478962LIM, PAULINO CHU DBU COLTMASTER                          0505
B0101404130601100121002OMRON ASIA PACIFIC PTE. LTD.                             1602
A0101407720000000245214LEORNA, IRENE CASUBUAN                                   0501
A0101407720000004664028BALCE, RIZALDY EBE                                       0501
A0101407720000000112136AQUINO, ENRICO RAMOS                                     0501
A0101407720602478558001JOSE, JENNIFER BERNARDO                                  0503
A0101404260611335308002ALIMBOYONG, JOSEPHINE MAHINAY                            0503
A0101404260611434800001LLARENAS, RODOLFO PARAGATOS                             10502
A0101404260611434800001AND VERNIE BUNO                                         20500
A0101409920000005460726TOLENTINO, ANGELICA G. DBU A.G.                         10501
A0101409920000005460726TOLENTINO TIRE RECAPPING                                20500
B0101407690652039085001JUNBEL INDUSTRIAL SYSTEM CORP.                           1601
A0101407690652525001075DOCDOCIL, GELITA - DEALERS OF                           10502
A0101407690652525001075SHOECAT INC.                                            20500
A0101407690652525001079AILYN C DIZON - DEALERS OF                              10501
A0101407690652525001079SHOECAT INC.                                            20500
B0101413440000001085701ARELLANO UNIVERSITY INC.                                 1601
A0101414120000005252864MVG HARDWARE                                             0503
A0101414120000000875652PABLITO OR RONALD JOHN OR                               10503
A0101414120000000875652PRINCESS JOY OR FE OLIMPI                               20500
A1301400210682478374047JOSIE P. CORONEL                                         0501
A1301400500000000213334RODRIGUEZ, MA THERESA RONQUILLO                          0501
A0101408240711379306001RAYMUNDO SUAREZ OR                                      10502
A0101408240711379306001KIMBERLY SUAREZ                                         20500
A2801400100000003116689SANTOS, MA. GRACE MIRANDA DBU G                          0501
A4101400390000001732736CLAVERIA III, DON VIVENCIO G                             0501
A4101400420814410183002AUSTRIA, ELIZABETH JARDINIANO                            0501
A4101400420814480121001FABREAG, DELIA FLORES OR                                10502
A4101400420814480121001FABREAG, BOBBY F                                        20500
A4101400420814520766021ABUEVA, TERESITA R.                                      0501
A4101400420814520766061ESTILLERO, SUSANA O.                                     0501
A4101400550000001332563GREGORIO, MARLYN GUERRERO                                0501
A0101412340000003340930GERALD D. AUSTRIA                                        0501
A0101412340000003349819ROCHELLE M. ZAMORA                                       0501
A0101404840000005396916ROSALES, ANGELO JOSEPH PALCES                            0501
A0101405070000003439729LIM, LYNDON CO DBU JUBBY FOOD S                          0501
A0101413860000006402984SUPAN, AIREBIE JOY BANDONG                               0501
A0601400230000000989962ZHANG, SHAOPENG                                          0502
