B0101410720000000968123DPE ASIA CONTAINER SERVICES&OUTSOURCING                 11603
B0101410720000000968123SOLUTION INC.                                           21600
B0301400950000000566923DAVAO TOPCHING AUTO PARTS                                1605
B0101410720653006444002OUR LADY OF MOUNT CARMEL PARISH                          1603
A0101410720653043410001SQUARE SPOT ADVERTISING                                  0501
B0101410720000000029850NORDHOFF ENTERPRISES INCORPORATED                        1601
A0101410720653452116001VIRGILIO R. BACQUEL JR.                                  0502
A0101410720653478374025SYLVIA AGBUYA                                            0501
A0101410720653478374048VILLAFLOR E. OPELADA                                     0501
A0101410720653579026001PROLOGO, JORDAN CAMINO                                   0502
A0101410720000000211736GABRIEL, JOEL ORTIZ                                      0503
B0101400150000000633550PHILIPPINE SEVEN CORPORATION                             1601
B0101400150061228665001MALAYAN TOWAGE AND SALVAGE CORPORATION                   1610
A0101401670271457284002CONCEPCION, ROEL S. OR                                  10502
A0101401670271457284002CONCEPCION, REGINA L.                                   20500
A0101400860011040030001**********                                               0501
A0101400860011419699001**********                                               0503
A0101400860011434439001*********                                                0501
A0101400860000001005514**************                                           0502
B0101400150061022669001ST. TYKE, INC.                                           1610
B0101400150061040157001PAMPANGA SUGAR DEVELOPMENT CO.                           1605
A0101400150000000525488REYES, SHEREL LOU BERMUDEZ                               0501
A0601400100000002698500CASTRO, DERRICK SANGIL                                   0501
A0601400100081251944001DAVID, GERARDO MORENO                                    0501
A0101410560000001944210BANES, GENELYN C DBU DARKSIDE                           10502
A0101410560000001944210RESTAURANT AND DISCO BAR                                20500
B0101410560000000757211**********                                               1601
B01014007301110395800013IXDEGREES INC.                                          1602
A0101400730000001822333FRED ANTON O PAANO                                       0501
A0101400730111203514019MELBA ALMARIO                                            0502
A0101400730111393421010MARJORIE BASCO                                           0502
A0101400730111505403001GUEVARRA, FE DELA ROSA                                   0501
A0101401960121238703001**********                                               0502
A0101401960121239340001***********                                              0504
A0101401960000000211025ESTELLA, ROGELIO TAN                                     0502
A0101413150000000038468**********                                               0502
B0101401830141029955001SHELL EMPLOYEES MULTI-PURPOSE COOP. -                   11605
B0101401830141029955001STORE                                                   21600
B0101401830141056446001GADDI DBU GREENTEK ENVIRONMENTAL ENG.                   11601
B0101401830141056446001SERVICES JT                                             21600
A0101401830141409771001ALRIC P. BOBO                                            0501
B0101412920160059440001OPPORTUNITY KAUSWAGAN REMIT, INC.                        1601
A0101400440000002035121RUBY R. BUGAY                                            0502
A0101407270162377333002******                                                   0501
B0101401090171007896001CPA REVIEW SCHOOL OF THE                                11610
B0101401090171007896001PHILIPPINES, INC                                        21600
B0101401090171027703001INSTANT DRUGSTORE AND GENERAL                           11602
B0101401090171027703001MERCHANDISE                                             21600
A0301400530000000025232LYDIA ESTOSE                                             0501
A0301400790000000435994********                                                 0502
A0301400950000002115151**********                                               0505
A0301400950000002975079GOTAMCO, JON CHRISTOPHER GO                              0501
B0101410720000000968163PROPERTY 101 INCORPORATED                                1601
B0101413600000000206880CTS ASSOCIATES INC.                                      1602
A3101400160000001792190MIRAFLOR M CARINGAL                                      0501
B3101400160000000429167NATHANIA SABRINA L VENTURA AND                          11602
B3101400160000000429167SONIA L VENTURA                                         21600
B3101400160221224862001JOYME ROCKSCAPES CORPORATION                             1602
A1001400190000005737471****                                                     0501
A1001400190000000124683ABCEDE, CARMENCITA A.                                    0501
B1001400350000000017041LIMKETKAI HOTEL & RESORT CORPORATION                     1610
A1301400470000005737835FERNANDEZ, CHAROL GAY GONZALES                           0501
B1901400290000001363202LIPA MEDICS INC.                                         1601
B1901400290261034056001DIVINE LOVE GENERAL HOSPITAL INC.                        1620
B19014002900000000307753EN DISTRIBUTION SOLUTIONS INC.                          1602
A1901400290261298552066DOLORES SARMIENTO MANGUIAT                               0501
A0101406620000000577117SEIDEL, EDWARD PUNSALAN                                  0502
B0101406620273009530001MCRP CONSTRUCTION CORPORATION                            1603
B0101406620273010537001SOROPTIMIST INTERNATIONAL                               11601
B0101406620273010537001OF MANDALUYONG                                          21600
A0101411820000001356252ALMARCK T. DELA PENA                                     0502
B0101411820277048023001FORGEMS PLUS TECHNOLOGIES CORPORATION                    1605
A0101400570000000031767NGO, JEROME TIU                                          0502
A0101400570281192972002BALMORES JR., BENJAMIN A.                                0501
A0101411240000002332503*****                                                    0505
A6601400120000002249772ADARAYAN, MA PAZ ORTEA                                   0502
B6601400120314043609010FUNDACION GRAMEEN PILIPINAS INC.                        11605
B6601400120314043609010LAOANG BRANCH                                           21600
A6601400120314079221001TAN, MARVIN JOE CALDERON                                 0501
A6601400120314415183001UY, CHRISTIAN EMMANUEL OR                               10501
A6601400120314415183001UY, FLORIANE                                            20500
A2001400290000005737602ALMOCERA, MARK VINCENT NIPANGUE                          0501
A3401400280000001723495JENNIFER G ONG OR JOHN OWEN ONG                         10501
A3401400280000001723495OR JOAQUIN C GOCHANGCO JR                               20500
A3401400280000001723484ESLABON, M DBU GREYS CAR                                10502
A3401400280000001723484ANATOMY CLINIC                                          20500
A0101402350000000521213TONGO, ROWENA V.                                        10501
A0101402350000000521213OR TONGO, CAESAR D.                                     20500
B0101405650000004410062VONWELT INC.                                             1601
A0101405650322294619001VESES, LILIA HERNANDEZ                                   0502
A0101405650000002325515FERNANDO MARTIN D. TAN                                   0502
A0101402510341085528001METIN, ELENITA LEYNES                                    0502
A0101402510341318724004SEGUNDINA Y. CASTRO                                      0502
B0101402060351033821001BUSMED ARTS, INC.                                        1605
A0101409050000001662380***************                                          0501
B0101409050000000258462THE NEW REEDLEY INTERNATIONAL SCHOO                      1602
A0201400920000002804480MIRANDA, SAMMY                                           0501
A0201401020000000056415SORELA, DBU M.P. SORELA CONSTRU                          0501
A0101402930381472659001MA ELIZABETH F. ESTANISLAO                               0501
B0101408790383059271001F. L. RAMOS CONSTRUCTION COMPANY, INC.                   1601
A0101408790383242406001KAW, ALEXANDER OR KAW, JENNIFER                          0502
A0101405490000001092535APPLE A. SANTIANO                                        0502
B0101405490392006536003GEMINI INTEGRATED SERVICES, INC.                         1605
A0101405490392478374008MARGARITA R. CIELO                                       0501
A0101408400000002921246MENDOZA, JANETTE DE LEON                                 0502
A0101408950396420560001MICHAEL LIM VILLA OR PATRICIA                           10501
A0101408950396420560001YUKIJI JAVIER VILLA                                     20500
A0101408950396571165001DURAN, CECILE TRISHA BADELLES                            0510
A0101409180000000874619DOMINGO, CARMENCITA ALIMARIO                             0501
A0101409210000005737339SAMPANA JR., ALFONSO GAMIDO                              0501
A0101409210000005737340MEDRANO, URSULA GRACE RESUENA                            0501
A0101409210000005737351TANPOCO, GRACE ELICANO                                   0501
B0101409210000000031192LSC CORPORATION                                          1602
A0301400820000003148434BRINAN, REY RITCHER D.                                   0501
B0301400820000005196669BANSALAN MEDICAL CLINIC &                               11601
B0301400820000005196669HOSPITAL, INC.                                          21600
B5501400120000001121742PENDON, NIXONLIE OR PENDON DIVINA                        1605
B5501400120410041377001PEOPLE'S GENERAL MERCHANDISE                             1605
A2401400180411038015001GENSAN ULTIMATE AUTO SUPPLY                             10510
A2401400180411038015001& HARDWARE, INC.                                        20500
A2401400180411342705001LETICIA Y. LIM                                           0505
A0901400220000000012324SPECIALIST MOTORCYCLE PARTS &                           10506
A0901400220000000012324ACCESSORIES, INC.                                       20500
A0901400220432079352001ONG, LIONEL ROY ZAPANTA                                  0502
A0101403320471235198001*****                                                    0501
A0101410140000001074919LEGASPI, ROWENA BIACO                                    0501
A0101410140000001940085LOWELA FELIPE                                            0501
B0101412760000000032004TIGER EYES SECURITY SOLUTION INC.                        1602
B0501400170481018109004*****                                                    1601
A0501400170000001072713ANG, JUSSLYNN MAISIE ONG                                 0501
B1901400160491030520001VETS IN THE CITY VETERINARY CLINIC                       1601
B1601400170000000497143MAGNACRAFT REALTY & DEVELOPMENT                         11605
B1601400170000000497143CORPORATION                                             21600
B0101405940512036113001MFC BISTRO FOODS CORPORATION                             1603
A0101408530000002260026AGNESE, PHILIPPE HENRI H. OR                            10501
A0101408530000002260026AGNESE, THERESA P.                                      20500
A0101408530000002980692ARCOS, MARIA TERESA CENAR OR                            10502
A0101408530000002980692ARCOS, GILBERT TATEL                                    20500
A0101411400000003311122MERCADO, JEFFERSON BONGCO                                0501
A0101412050000002314483DARGANI, JAIKISHAN MOHAN                                 0502
A0101403450000001638100**********                                               0501
A0101403610531355089001MACASAET, DOMINGA YAMBAO                                10501
A0101403610531355089001MACASAET, LOPE MERCADO                                  20500
A0101404000000000574618OH, JONG EUN                                             0501
A0101404000551361003001GAN, EDNA ANGELES                                        0502
B2201400250561026444001ROTARY CLUB OF TARLAC                                    1601
A2201400250561253789002MELIZA TRACY G. FLORES OR                               10503
A2201400250561253789002JOSE ANGELO D. F                                        20500
A2201400250561293366001JOSE ANGELO D. FLORES OR MELIZA                         10503
A2201400250561293366001TRACY MARGARET G                                        20500
A2201400250561297004069STELLA NIMFA B. MENDOZA                                  0501
B0101407720602035637001AIKONTECH CORPORATION                                    1605
A0101407720602363809001DR. MICHAEL SABALZA OR                                  10502
A0101407720602363809001DR. MA. JO ANN SABALZA                                  20500
A0101407720602378666002FILOTEO CERENO FERRER                                    0502
A0101407720602498169001CABRAL-PRODIGALIDAD, PATRICIA A                          0502
B0101412180000000075283ARRC WOOD CONSTRUCT CORP.                                1606
B0101409890649044096001FULLTOP MARKETING                                        1603
A0101413990000004511180CAPILOS, JELSON E. OR                                   10501
A0101413990000004511180CAPILOS, HYACINTH B.                                    20500
A0101410300000000191804RONQUILLO, RONNIE GERALD OR ENR                         10502
A0101410300000000191804IQUEZ, ENRICO LOUIE                                     20500
B1301400210000005040817ROSSEN LENDING CORPORATION                               1605
A1301400210000000540776EDNA S ENANO                                             0503
A1301400210682478374053RUBIROSA C CABUGWASON                                    0502
B1301400340000000982076AMADEO, CIELITO FAUSTINO DBU C.FAUSTINO                 11601
B1301400340000000982076BUILDERS                                                21600
A1701400230000003471732BARNESO, EDISON LAGAZO                                   0501
A0101408240000003955562SO, GERALDINE BAUTISTA                                   0502
A2801400100712311102001CHARINA N. HIPOLITO                                      0501
A4101400260812035863001GREAT CAVITENO TRADING                                   0502
A4101400260812322989001ESTHER DUA BOSITA                                        0504
A4101400260812501573002JAY N. BALICHA                                           0502
A4101400390000000048519ROSALDA, ANNABELLE MECATE                                0505
A0101412340000003342010JOHN MARK T. CORNILLA                                    0501
A0101412340000005496626CATHLEEN L. GARCIA                                       0501
B0101404840000000090195JOY PLANET INC.                                          1603
A0101404840851415679001AMORES, ROSEMARIE B.                                     0502
A0101404840000001312634GARCIA, LEAH DEGUINON                                    0501
A0101405070861027133001WORLDLINKS CABLE WORKS                                   0502
A0101405070861405634001KIKUCHIBARA, ROSALIE OR                                 10505
A0101405070861405634001KIKUCHIBARA, TAM                                        20500
