B1101400120313821100608**********                                               2003
A0101403320471646454001MARY GRACE B. PILOR                                      0501
A0101410690000000710712MONTEMAR, DONN DBU DHLM TRADING                          0501
B0101412890000009624477MARTINA PAULA'S CATERING SERVICE CO.                     1601
A0101400150000002902569RACHO, DONNA VICEDO                                      0505
A0101400150000003322272RAMIL JULIANO                                            0502
A0101400150000003141351BALDWIN H. YU                                            0501
B0101400150061042377001BIOSYSTEMS REAGENTS & INSTRUMENTS,                      11620
B0101400150061042377001INC.                                                    21600
A0101400150061482706001ACERA, JUNE BERIAL                                       0506
B0601400360000000025772CLERMONT PHARMACY AND GEN. MDSE. CO                      1603
A1101400120000003595966BARRETO, DIONNE AMIEL DAYAG                              0501
B1101400120313570675001TIU, SAMUEL PO                                           1620
A0101412890000003508223MOCON, ALFREDO MUTUC                                     0501
A0101413990657047618002LUBOSANA, EDITHA DELA CRUZ                               0501
A0101413990657047618003CUARTERO, MARY GRACE GALAROZA                            0501
A0101400150000000525580RAGOS TY, STEPHANIE TRACY                                0501
A0101400150000003164361JEFFREY L. FABELLA                                       0502
B0101400150000000052855SOLID MILLS CONDOMINIUM CORP.                            1603
B0101400150000000633469RNB TRAVEL AND TOURS CORPORATION                         1603
B0101400150000004090260LEGASPI VILLAGE LAND PROPERTIES, INC                     1605
A0101400150061226728001ZENAIDA S. HERNANDEZ                                     0503
A0601400100081501761001TAN, WINTHEL OR RALPH                                    0502
A0101413730000003715837************************                                 0501
B0101410850000001229794TRANSLOGISTICA INTERNATIONAL                            11605
B0101410850000001229794FREIGHT INC.                                            21600
A0101400730111330014001PO, ELIZABETH T.                                         0501
A0101400730111479460001TABORA, JOSE QUIOGUE                                     0510
A0101413150000000082682******                                                   0503
B0101412630000002186427EASTGATE MARITIME TRAINING CENTER I                      1605
A0101401830000001281998RIVERA, RAMIL DBU ICON RBR                              10501
A0101401830000001281998GLASS AND ALUMINUM SUPPLY                               20500
A7201400170000006487472PRANZA, JONAS SUMALINOG                                  0501
A0101400440000004901451*****                                                    0501
A0101407270000003253949GERONIMO, KEVIN RAE TAN                                  0501
A0101407270000007596549DIZON, DANIEL SAYO                                       0502
A0101401380000005320990**********                                               0503
B0101412500000003408040SOUTHEAST ASIAN COLLEGE, INC.                            1640
B0101413600215821200608**********                                               2001
A3101400160000004362936VELASQUEZ, SONNY RANCES                                  0501
A3101400450223352819001FARAON, RIZALINA OR                                     10502
A3101400450223352819001BELEN, RHODORA                                          20500
A3101400450223459293002CORONADO, ABNER LOPEZ                                    0501
B3101400740000004509535MOLD PARTS MANUFACTURING ASIA INC.                       1605
B3101400870225067274001AIRNAD CONSTRUCTION INC                                  1602
A3001400130000008916116GONGORA, SUSANA VIRAY                                    0501
A3001400130000008916127MANLIGUES, ELVIRA AGOT                                   0503
A1001400350000007762538HERNANDEZ, HIYASMIN TAYLO                                0501
B1001400350233821200608**********                                               2001
B1001400480000000041556SAVINGS MUTUAL INTER-COMPANY CREDIT                     11603
B1001400480000000041556COOPERATIVE                                             21600
A1301400470000003270431CHRISTIAN VINCENT R. SALAZAR                             0501
B1901400290261038595001B & V TRADING                                            1602
A1901400290261470375002NORA BUQUIR MIRAL                                        0501
A1901400290261493025096DR CELESTE TOLENTINO                                     0502
A1901400290000001926310ELMER LUBIGAN ABU OR JOEJYLYN                           10501
A1901400290000001926310MENDOZA ABU                                             20500
A0101401670271186267001ELOISA L. CAMPOS                                         0502
A0101406620000005394709LUISKING, RAMON RICHARD DEL ROS                          0502
B0101406620000000962403GEOWORKS INTERNATIONAL CORPORATION                       1601
B0101406620000004595677GAWIN, INC.                                              1602
A0101411820000000589391LOIS MAE P. MENDOZA                                      0501
A0101412470000000520250**********                                               0501
A0101400570281186562001ENGR. JOSELITO MIRAFUENTES OR                           10501
A0101400570281186562001DR. LANA GAN                                            20500
A0101400570281186867001DR. DIANA JEAN ROXAS                                     0501
A0101400570281511243001DR. REYNANTE C. MIRANO                                   0501
B1101400120000000653069MANCERA STORE & HARDWARE SUPPLY INC                      1602
B1101400120313039185001COASTALVIEW FOODS CORPORATION                            1602
A1101400120000003981146DIU, LORD SHEENA LO DBU MIA BEN                         10502
A1101400120000003981146ENTERPRISES                                             20500
B1101400120313821200608**********                                               2002
B2001400290315040975001COURONNE ALLIANCE CORPORATION                            1603
B0101402350321500384001ONG, JOSEPHINE T. AND HERRERA,                          11602
B0101402350321500384001VICTORIA                                                21600
A0101402350321584873001*******                                                  0501
A0101405650000000080093PULGA, JASMIN BAUTISTA                                   0501
B0201400760374030540001ST. FRANCIS MANPOWER SERVICES                            1601
B0201400920375035545001GSG ARCHITECTS CO.                                       1602
A0201400920375524523001MIEL, PRINCESITA OR MIEL, ALEX                           0502
A0101408370382206275002DR. ELIZABETH P. PACHECO OR                             10502
A0101408370382206275002DR. BENITO M. PACHECO                                   20500
A0101408790000006047861BILAG, GIOVANNI VILLAROZA                                0502
A0101408790000005251143CORTES, MA. LYZA ANDAL                                   0501
B0101411660384821200608**********                                               2002
A0101402770391355762065CASTRO JR., GENARO SANTOS                                0501
A0101408400394554898001CHUA, HOWARD SY                                          0501
A0101412210000010256583DE LUNA, JOMARICRIS SALVADORA                            0502
A5501400120410283898006GARCIA, JOSIE JAVELLANA                                  0501
B0901400220432043565001CASA CANELAR PENSION                                     1603
B0901400220000006214284**********                                               1601
A0101412890000005945071CRISTI, RUSSEL MENDOZA                                   0502
A0101403320000004830973**********                                               0502
A0101403320471030933001JCIP MARIKINA MARIKIT INC.                               0501
A0101403320471066944001RONAND MIGUEL PHARMACY                                   0502
A0101403320471478374002GONZALES, ELIZABETH                                      0501
A0101412760000002067494LOSARIA, LOVELYN VIOLA                                   0502
A0101412760000002306309PALAD, REMEDIOS CALILUNG                                 0501
A1401400110492221994001IGNACIO, JEROMIE LOPEZ                                   0502
A1401400110000000628502MANALO, GLORIA GARCIA                                    0502
B0101407430503414740001ORBIT AIR SYSTEMS, INC.                                  1610
B0101403580511023481001NOVAL AND BUNAG LAW OFFICE                               1605
A0101405940000005068286BAYANIN, MA. VIDA BELLE                                  0501
A0101411790000002275976GUEVARRA, LEONILA VILLA                                  0501
B0101411790000003252520RE'DIS GLOBAL CORP.                                      1603
A2201400250561484428001WILSON LAO SIO OR                                       10501
A2201400250561484428001EDUARD LAO SIO                                          20500
A0101410690000001284475ROSE & J LAMINATION                                      0502
B0101404130601037502001JS PHILIPPINES GLOBAL CORPORATION                        1601
B0101407720000007951797*********                                                1601
A0101407720602166697001MARY MILAGROS D. UY                                      0512
A0101412180000002340665CARANDANG, KRYZTLE VERONICA COR                          0501
A0101412180000006708381AGUIRRE, CORAZON DELA PAZ OR                            10501
A0101412180000006708381AGUIRRE, VIRGINIA M                                     20500
A0101407690652478374131TARROQUIN, NORA - DEALERS OF                            10501
A0101407690652478374131SHOECAT, INC.                                           20500
A0101407690652520766022ELVIE GALENDEZ - DEALERS OF                             10501
A0101407690652520766022SHOECAT INC.                                            20500
A0101413440000006680602CABATANA JR., VICENTE TARSUNA                            0501
B0101406590662029124001NOLSTEAD INC.                                            1603
A0101410300000000026531VELHAGEN, MELISA B.                                      0502
A1301400210000003104912ZEN TEN TRUCKING AND HAULING SE                          0501
A1301400340683367953001FELLO, ROSEMARIE RODIL OR                               10503
A1301400340683367953001FELLO, BISMARK C                                        20500
A1301400500000009723060GERARDO GERRY C. STA. ANA                                0502
B1701400230693821200608**********                                               2001
A0101408240000007478126ALDANA, FELIPE FLORENCIO B.                              0502
A0101408240711226051002CHAN, ALFREDO OR CHAN, CEFERINA                          0501
A0101408240000002822062TY, ANNETTE SO                                           0502
A0101408240711453478001MARIVAN KENNETH BUNCAYO                                  0501
A0101408240000000039741LIM, VENUS LOURDES ARANAS                                0501
A4101400260812027359001MA. MAGDALENA IRABAGON                                   0503
B4101400390000003346187PAGASA PHILIPPINES LENDING COMPANY                       1603
B4101400420814018935001IGLESIA EVANGELICA UNIDA DE CRISTO(ANABU                11602
B4101400420814018935001UNIDA CHURCH)                                           21600
A4101400420814478374044BERATIO, MARITES M.                                      0501
B0101404840851041585008TOM'S WORLD PHILIPPINES CORPORATION                      1601
A0101404840851281071023CHERYLEEN C. FERNANDEZ                                   0501
A0101406750852478374118RUBY FLAVIER                                             0502
A0101405070000001726085RADAM, BENJAMIN PINEDA OR                               10501
A0101405070000001726085RADAM, MARIMY JIMENEZ                                   20500
A0101405070000002282117CAPOQUIAN, JORDAN NANAG                                  0501
A01014050708611979700020KA, TOSHIKATSU                                          0505
A0601400230000006243089TABULA, MARITES CUBACUB                                  0502
