B0101403450521821100608**********                                               2030
A0101408950000002255381ORTILE, MARY ANTONIETTE LUCILLE                          0501
A0101412890000007095561STEAK-OFF GRILL                                          0501
A1001400480000000133279DACUDAO, LILUISA OR DACUDAO,LEO                          0502
A1001400480000003357715OCERO, SHERLITA TUPAS OR OCERO                          10502
A1001400480000003357715MAUREEN ECHAVEZ                                         20500
B0101412470278821200608**********                                               2002
A0101412890000002747824************                                             0501
B3801400170490821100608**********                                               2002
A0101412340000007305702ROWENA P. GONZALES                                       0502
B0101400150061011066001FOOD SOURCE, INC.                                        1605
B0101400150061047585001888 ETHNIC HOME FURNISHING CORP.                         1606
B0301400790000010553972**********                                               1601
B0301400790195066611002EW DAKUTAN RESOURCES CORPORATION                         1601
A0101406750000000172843GABAYNO, DELIA CHAN                                      0502
A0101406750000007879416DUNGO, BUENAFE CABRELA                                   0501
A0101406750852084318001SIBUG, GENEATH P. OR                                    10501
A0101406750852084318001SIBUG, ERNESTO M                                        20500
A0101400860011352579001**********                                               0505
B0101400860011397597003**********                                               1601
B0101400860000001005354**********                                               1602
A0101400860011546416001**********                                               0502
A0101411370000000903553CASEL, LILIBETH DE BELEN                                 0501
B0101400150061018843001E N L COURIER EXPRESS, INC.                              1602
B0101400150061024429001BRONZEOAK PHILIPPINES INC.                               1603
A0101400600000002335731SONSONA, MARIFE CANETE OR                               10501
A0101400600000002335731SONSONA, MELONE CANETE                                  20500
B0101405810072319968009***************                                          1605
A0101405810000001021207CHEN, TINGYU                                             0510
A0601400520000001120385BANAG, ESMERALDO PINEDA                                  0501
A0601400520000005001403MALONZO, ANNABELLE DELA CRUZ                             0501
B0101413730000001568414AP ORIENTAL INDUSTRIAL TRADING, INC                      1601
B0101410560000007071401RFM MACHINERY AND EQUIPMENT                             11603
B0101410560000007071401CORPORATION                                             21600
A7201400170000003774152MAULANA, ALMERA DIWA                                     0502
B7201400170000003773568MN PAMARAN LENDING INVESTORS, INC.                       1605
A5001400170000001003421LEYNO, KATHERINE MARAON                                  0505
A0101401090000005320609BERNICE C. NAVARRO                                       0502
A0101401090171636462001BERNARDITA GWYNNE P. BONDOC                              0501
A0301400530000001409694ALIADO SR., JIMMY M.                                     0502
A0301400530000006239461FAELOGO, ROSALIA PRETAL                                  0502
A0301400950000000566796ILAGAN, LEO AMADO OR                                    10501
A0301400950000000566796ILAGAN, CECILLE                                         20500
A0101401380000005320978KIM, WON KAB                                             0502
A0101401380000005321000AGUSTIN, RUBEN ALFANTE                                   0501
A0101412500214057604001PHILIP M. GARCIA DBU PHILTON                            10501
A0101412500214057604001ENTERPRISES                                             20500
A3101400160000001169193RODOLFO H PRADO                                          0501
A3101400160221386295002ROBERT J. BANATIN                                        0501
A3101400740000010897535PERAS, CHRISTIAN LAURENO OR                             10501
A3101400740000010897535PERAS, GEMMA MARIE REYES                                20500
B3101400740000000013889IM DIGITAL PHIL INC.                                     1610
A1001400190231520766060BEVERLY W. MIGRINO                                       0501
A1001400190000002170769JUGAN, NOUE MALOLOT                                      0501
B1001400480000004097121DABA, ANNIE DBU RICHFIELD AGRICULTURAL                  11602
B1001400480000004097121SUPPLY                                                  21600
B1001400480000004097187VACALARES, EMMANUEL DBU ESV TRADER OR VA                11602
B1001400480000004097187CALARES, ROSARIO                                        21600
A1901400290261245089002SHIRLEY OR DIONISIO GUTIERREZ                           10502
A1901400290261245089002OR DIONISIO GUTIERREZ SR                                20500
B0101406620273460196001CA NEWFOUNDLAND SOLUTIONS, INC.                          1603
A0101410980000002303862DE GUZMAN, DIANE ROSE CARPIO                             0501
A0101410980275081510188********                                                 0502
B0101411110276046529088BOOK MEDIA PRESS INC.                                    1610
A0101412470000005380729ENGUERRA JR., ROBERTO PORTEZ                             0501
A0101400570000004624180GARCIA, ESTRELLA MITRA                                   0501
A0501400200000005751851ALUNING, MANUEL ELVINA                                   0501
A2601400270000002257296RANDY C. GADDUANG                                        0503
A2601400270000007951177RAYMOND RUEL D. VALLE                                    0501
A6601400120000003673158REBADOMIA, RUBY IRINCO                                   0501
A6601400120000003642653SULTAN, ALEX GRUTAS DBU ANDREA                          10501
A6601400120000003642653CONSTRUCTION                                            20500
A6601400120314066475001LOYOGOY, MARLOWE SAGONOY DBU ZA                          0501
A3401400280000003493890LOPEZ, OMAR JEREZA                                       0503
A0101405650000000348903ESPERANZA F. BAYLON                                      0503
B0201400760374046327001PELAYO, R. DBU TOTO ENTERPRISES                         11605
B0201400760374046327001COMMODITIES                                             21600
A0201400920000001331571GARE, BONIFACIO PERA DBU                                10502
A0201400920000001331571GAREMED MARKETIN                                        20500
A0201400890000002270140**************                                           0502
B0201400890376821200608**********                                               2002
A0201401020000002250540PATALINGHUG, ORVEN CIMENI                                0502
A0201401020377046499001TEH, MARIA ELENA BLANCO DBU                             10503
A0201401020377046499001E.T. PRINTSHOPPE                                        20500
A0101402930000010657760SANCHEZ, ROWENA SAN PEDRO OR                            10501
A0101402930000010657760ENRIQUEZ JR., VICTORINO U                               20500
A0101408400000000960430DITUCALAN, JAMILA FAISAL                                 0501
A0101408400394478374092ROSA LAZARO                                              0501
A0101409180000004959635FERRERAS, EDWIN L. DBU BICORE                           10501
A0101409180000004959635ONE NETWORK ENTE                                        20500
B0101409180397753456001PIXEL EYE OOH MEDIA INC.                                 1605
A5501400120000002348325ANG, ANDY MAN CHUNG CHANG                                0505
B1201400150000007556161SALAS, RONALD ANGELES DBU GUSTINE TIRE                  11601
B1201400150000007556161SUPPLY                                                  21600
A5101400100000010371289BARDON, RUEL PALAHANG                                    0502
A5101400100000010371438DURAN, JIZZA BEN PEARL CASINABE                          0502
A0101403030441590302001**********                                               0503
A0101403320000000037738CHAN, CHUN WAH JOHN                                      0501
A0101406330472215990001DFB GLASS & ALUMINUM SUPPLY                              0502
A0101410140000007294757AURELLANO, DBU WARGODS ARENA                            10505
A0101410140000007294757INTERNET CAFE                                           20500
B0101412760476821200608**********                                               2001
B1901400320000000041283SAN ISIDRO MULTI-PURPOSE COOPERATIVE                     1601
B1901400320000000041272SIMCO VILLAGE LEARNING CENTER INC.                       1601
A3801400170000005288053VILLARUEL, VINCENT RENNOEL OR                           10502
A3801400170000005288053VILLARUEL, ROWEN                                        20500
B1901400160491027966001SALESFORCE ONE MARKETING, INC.                           1605
B1901400160491027966003SALESFORCE ONE MARKETING, INC.                           1603
A1401400110000005526701GARCIA, NIESEL SARSABA                                   0501
A0101407430000003193946LOPEZ, JENNIFER N. DBU JLO HIGH                         10501
A0101407430000003193946PERFORMANCE MOTOR SHOP                                  20500
A0101407430000006027903JONAS MARTIN OR MARIAN MARTIN                           10501
A0101407430000006027903DBU SIM ONE TRADING                                     20500
A0101405940000001047381MIRANI, DIANA NARESH  JT                                 0502
A2201400250561094891001ARIS ADY M. MERCADO                                      0502
A0101404130000010896656BUCETA, MARTIE BANDICO                                   0501
A0101404130000010896678JULIANO, WILMA SALON                                     0501
A0101404130000010896689NARDO, ROLANDO PALMARIO                                  0501
B0101407720602016446001INFORMATICS COLLEGE EASTWOOD, INC.                       1605
A0101407720602398798001AVANCENA, MARIA CORAZON MONZON                           0502
B0101404260611022505002SEAA CORPORATION                                         1603
A0101404260611153241002TAN, ESTEFANIA QUITALIG                                  0501
A0101404260000000532290PESTANO, ALBERT L. OR PESTANO,                          10501
A0101404260000000532290LUCIA M.                                                20500
B0101407690652017367001EAGLE BROADCASTING CORPORATION                           1605
A0101407690652478374140BEATRIZ MANIAGO - DEALERS OF                            10501
A0101407690652478374140SHOECAT INC                                             20500
A0101411530000000741713**********                                               0502
B0101408240000000832484RTI SYSTEM AUTOMATION, INC.                              1610
B2801400230000005253630GLOBAL MARITIME LOGISTICS SUPPORT, INC.                  1605
A4101400260000006043250BENIGAY, ROEL LUMINGKIT DBU                             10501
A4101400260000006043250FIRST PHOENIX INDUSTRIAL                                20500
A4101400390813329031002DELA CRUZ, EVANGELINE        OR                         10502
A4101400390813329031002DELA CRUZ, ULYSI                                        20500
A4101400390813387835001LUNA, CHRISTOPHER OR                                    10504
A4101400390813387835001LUNA, CHRISTEL                                          20500
A4101400390000000034095DELA CRUZ, ALYSSA   OR                                  10505
A4101400390000000034095DELA CRUZ, EVANG                                        20500
A4101400550000000315182MARGAJA, FELICITA BITOR                                  0501
A4101400550000001332592RASE, ARNALDO ROBIS                                      0502
A4101400550000006044680CARDENAS, F DBU LUCKY PICK TRAV                          0501
A4101400550815721603001JOHN JOSEPH Q. MACABINGUIL                               0502
A0101412340000004360296LIWAYWAY M. LANGIT                                       0501
A0101412340000007305600MYLEN F. LOVENA                                          0502
A0101404840000008871296SOTTO, JANICE COVERO                                     0501
A0101406750000000480573ACOSTA, GRACE TAMAYO                                     0501
B0101405070861008149001TABAQUERIA DE FILIPINAS INC.                             1606
A0101405070000006006177CELDRAN, JOHN CHARLES EDWARD P.                         10502
A0101405070000006006177DBU LA CRAZY NUN BOUTIQUE                               20500
