A0101410720653046803001BCLOA BUSINESS DATA RESEARCH                            10502
A0101410720653046803001SERVICES                                                20500
A0101410720000008730723DE JESUS, C DBU CARL'S FURNITUR                          0502
A0101410720000001602120*******                                                  0502
A300140013000000826478402NCHEZ, AGNES M.                                        0502
A0101408790000002031492AGUILAR JR., ERNESTO VERONA                              0501
A0101408790000004983246ALLAN V. ARMAS                                           0501
A0101412210000010434896VELMONTE, KENNETH P. OR CAMPOS,                         10503
A0101412210000010434896JOSEPH RAMON L.                                         20500
A1301400340000001415656RIVERA, CESAR DOMINGO                                    0501
A0101406750000004642006MALINIS, LISBETH MANALANG                               10502
A0101406750000004642006OR MARIO MALINIS                                        20500
A0101400860000010683275*********                                                0505
B0101400860011023116001**********                                               1601
A0101400150000005794512MARIA CRISTINA T. RAMOS OR                              10501
A0101400150000005794512RENAN M. RAMOS                                          20500
A0101400150061326594001REYNALD C. UY OR                                        10501
A0101400150061326594001SHIRLEY G. UY                                           20500
A0601400100000002099283DE LEON, WILFREDO SARMIENTO                              0501
B0601400100081022863001SKYLINE AEROTEL, INC.                                    1603
A0601400100000000786574LIM, RIZA LAGMAN DBU ORISSA GAR                          0503
A0601400100081251805002MUNOZ, ANTONIO J. OR                                    10503
A0601400100081251805002MUNOZ, JENNIFER                                         20500
B0601400100081251805004MUNOZ, ANTONIO AND ANACLETO JR. AND                     11603
B0601400100081251805004JENNIFER LAURIE                                         21600
A0601400100081251805006MUNOZ, ANTONIO OR MA. JESUSA                             0503
A0601400100081543029001LUCAS, CARMEN OR                                        10502
A0601400100081543029001SANTOS, MA. LUCI                                        20500
A0601400520000004423209INNO-WORX TRADING AND GENERAL                           10505
A0601400520000004423209SERVICES                                                20500
B0101413730000000469676MADRIGAL TRADING CO., INC.                               1601
A0101414090000006211336ALCAIN, KARL BENEDICK EBRO                               0501
A0101410560000003562070**********                                               0501
B0101400730111022247001AMAARA CORPORATION                                       1603
A0101400730111334903022EMELITA ERCE VILLANUEVA                                  0501
A0101400730111587293001AGAD, JENNILYN VALEZA                                    0501
B0101406040000000096720********                                                 1601
A0101401960121569490001************                                             0502
A5001400170000002288322***********                                              0502
A0101400440000011310180RANILLO, HELEN RONATO                                    0502
A0101407270162351252001WILFREDO C. CUEVAS                                       0502
A0101401090171225244001TERESITA C. NABOR                                        0502
A0101401090171353988001CITADEL C. DE CASTRO                                     0502
A0301400530000000066099CHAN, MICHAEL OR ERA                                     0502
A0301400660000000194552LU, MICHAEL YAP                                          0503
B0301400660000002348541ERVY LOGISTICS                                           1604
A0101413020209057241001***********                                              0502
A0101410720653045404001CENTER FOR URBANIZED HOUSING &                           0501
B0101410720000000968101VIC-VEL REALTY CORPORATION                               1601
B0101413600000005524829PRO EMPIRE TRUCK BODY CORP.                              1601
A3101400160000008941271PEREZ, RICHARD TAGLE                                     0502
A3101400450000000163471ESTIVA, MERCEDITA BALANDAN                               0502
A3101400740000011511623NAZ, YOLANDA ALVAREZ                                     0501
A3101400870000008979560GOMEZ, GERARDO LINA                                      0502
B3001400130230043293001L.M. TING FOODILICIOUS CORPORATION                       1620
B1001400190000002170827VEPCO GROUP DISTRIBUTION CORP.                           1602
A1001400190231520766014BITCO, VICTOR ASIS                                       0501
A1001400190000002170612BAJUYO, MARJORI B                                        0501
A1001400190000008743886BARRON, LORNA ROA                                        0501
B1001400350000007920876PEARSON, PILARCITA ROA AND  HEQUILAN,                   11602
B1001400350000007920876ELVIE CORTEZ                                            21600
A1001400350233658661001MARILEN L. SANTIAGO OR HARVEY                           10501
A1001400350233658661001KLENT A. SANTIAG                                        20500
A1301400760000005990032CABATO, RENATO BAUTISTA                                  0504
A1301400760253087654001CATHERINE F SANVICENTE OR                               10505
A1301400760253087654001VINCENT PAUL P S                                        20500
A0101401670271603732001GREGORIO, REYNALDO CRUZ                                  0501
A0101406620000000193760DIAZ, FRANCIS PATRICK TAYENGCO                           0502
B0101406620273031145001KOHL INDUSTRIES CORPORATION                              1603
B0101406620000003497103GREENROOF CORPORATION                                    1606
A0101411110000002320132CALAYCAY, MARY LOUISE                                   10502
A0101411110000002320132OR GUTIERREZ, MA SOCORRO                                20500
A0101412470000000853834CHUNG, EUN JOO                                           0502
B0101411240283069476001METROSUNNIES CO.                                         1601
A6601400120314612859001CHAN, ARTURO C.                                          0501
B2001400290315015091001DUMAGUETE COCONUT MILLS, INC.                            1602
A0101402510341069373001BONJAN, E DBU KRISTON PRINTING                           0501
A0101402510341202843003**********                                               0501
A0201400760000002047365ALONZO, GABRIEL UY                                       0505
A0201400920375609447001RAMIRO, MARIA ARCELI AVANZADO                            0503
A0201400890000011843913MERCADO, DENNIS BENEDICT BORROM                          0501
A0101402930000007030980LEE, GWANGSHIN                                           0504
B0101408370382069481002ZONTA INTERNATIONAL DISTRICT 17                         11601
B0101408370382069481002CONFERENCE 2017                                         21600
A0101408370382234715003DR. ANTHONY RICHARD G. NUNEZ OR                         10503
A0101408370382234715003DR. IRMA G. TAN-NUNEZ                                   20500
A0101408370382397209002DR. PERCIVAL P. PANGILINAN                               0503
A0101402770000001570770BENJAMIN NAVAL VICTORIA                                  0501
A0101408950396586054001CALMA, LORENZO LICAD OR                                 10501
A0101408950396586054001CALMA, STELLA GUNGON                                    20500
B0101409180000008122683FIRST CIRCLE GROWTH FINANCE CORP.                        1603
A0101412210399094817016MARTIN G. ZAMORA                                         0505
A2401400180000003949140UY, RUBING SIOCO                                         0502
A2401400180411272631001MIGUEL, RAUL JOSEFINO FUENTES                           10505
A2401400180411272631001OR MIGUEL, ALONA                                        20500
A2401400180000000428051EGOS JR., JEMMERITO CASANA                               0502
A1201400150000006154992ANG, ROSEANN ENCINARES OR ANG,                          10503
A1201400150000006154992WESLEY CUA                                              20500
A0101406330472212402001ARTEMIO V. DEL ROSARIO                                   0505
A0101410140000001940198TULANG, CHERRYL MATA                                     0501
B0101410140000000499032V-COPY DUPLICATOR SERVICES AND                           1602
A1901400320000011382773ITURRALDE, MELANE BARTE OR                              10501
A1901400320000011382773ITURRALDE, DAVE RICHARD G                               20500
A1901400160491343774001MA REGINA THERESA A BLANDO                               0501
A1401400110000001806800BRAVO, EVALOR CABUYA OR                                 10501
A1401400110000001806800BRAVO, RUEL BALD                                        20500
A1401400110492427534002BABILONIA, MELCHOR TEJADA OR                            10501
A1401400110492427534002BABILONIA, BRIGI                                        20500
B1601400170000009954534TEKTONE GLOBAL TECHNOLOGIES FOUNDATION                  11603
B1601400170000009954534INC.                                                    21600
B0101407430503069055001ORAGON PORT SERVICES INC.                                1601
A0101403580000010177129*********                                                0501
A0101405940512026524001DAVENNIEL PROMATS MARKETING                              0503
A0101411400000000484468RODEJO, M DBU MYSTIQUE IDEA BEA                          0501
B0101403450000008380898***************                                          1602
A0101403450521237808001**********                                               0501
B0101403610531009930001ALVAREZ BAKESHOP                                         1610
B2201400250561000814001RURAL BANK OF STA. IGNACIA, INC.                         1601
B2201400250561041156008COLINTAN CORPORATION                                     1601
A2201400250000000017290EUGENE Y. GO                                             0501
B0101404130601045407001MULTISOFTWARE ASIA, INC.                                 1602
A0101404130601547411001CO, ROYCE NASIS                                          0506
B0101407720000007951844SNOW WHITE WELLNESS & BEAUTY SPA INC.                    1601
A0101407720602471149001CECILLE R. PUGAL OR                                     10501
A0101407720602471149001ALFREDO PUGAL JR.                                       20500
B0101404260611026121001RCAM - SCPFC LAYFORCE                                    1603
A0101407690000000495472*******                                                  0501
A0101407690000000587811BANAAG, ARVIN PECSON                                     0501
A0101413990657069448001PURPLE BUNNY EVENTS ENTERPRISE                           0501
A0101414120000007655301R.M. PABUSTAN BUILDERS                                   0503
B0101406590000000035550GLOBAL GAS & OIL CARRIERS, INC.                          1603
A0101406590662289338001KIM C. DINO                                              0506
A0101406590662361882001FLORENTINO OR DIVINA LUPE                               10503
A0101406590662361882001LAZARO                                                  20500
B1301400210000000023474RICH-WELL INTERBRAND CORPORATION                         1602
B1301400340683821100608**********                                               2001
A0101408240000007478126ALDANA, FELIPE FLORENCIO B. JT                           0502
A0101408240000009452991ROJAS, CARMENCITA SORIANO                                0502
B0101408240000000832962CARMEL LAND SALES & DEVELOPMENT CORP.                    1610
B2801400100712024577001PHILIPPINE COASTAL STORAGE AND                          11605
B2801400100712024577001PIPELINE CORP.                                          21600
B2801400230000000372729KRJ TRADING                                              1603
A4101400260000001198803NOEL BELINA OR ARLENE BELINA                             0502
A4101400390813478374021JERESANO, ASUNCION L.                                    0501
B41014004200000073054008TH AVENUE FASHION HAUS, INC.                            1601
A0101412340000003340930GERALD D. AUSTRIA                                        0501
A0101404840851217637115ROBERTO T. RONGAVILLA                                    0501
A0101406750000000017490SESE, ALDEN ANTHONY DIZON                                0501
A0101405070861478374086MARLYN C. GABEST                                         0502
