A0101410690000000061834IQBAL, BERNADETTE G.                                     0502
B6601400120000000060886THE RCBC INC.-OUR LADY OF THE ASSUMPTION                11601
B6601400120000000060886PARISH                                                  21600
A4101400420814520766027ARUTA, CORAZON G.                                        0501
A2401400180411478374061JUNRES AGAD OR                                          10502
A2401400180411478374061NORMELITA BLANCO                                        20500
A2401400180411555962001SILVA, VIOLETA P. OR                                    10502
A2401400180411555962001SILVA, MARCELINO                                        20500
A0101404260611005236004WILTRON ELECTRONICS                                      0502
A0101402060351445404001ACOSTA, REYNALDO DELA TORRE                              0502
A0101410690000000001758IGNACIO, JONATHAN DBU JCJ                               10502
A0101410690000000001758MANAGEMENT SERVI                                        20500
A4101400420000000710143GERONDA, RIZALDY DBU HRDG                               10502
A4101400420000000710143TIRE RECAPPING S                                        20500
A4101400420000002345273LEONICIA S. HERRERA                                      0501
A0101400860000001005490**********                                               0502
A0101400860011426836001*********                                                0502
A0101400860011452130001**********                                               0503
A0101400860011483037001CASTRO, ROWENA                                           0502
A0101400860011522544001**********                                               0503
A0101400600071233615002********                                                 0502
B0601400100081026547002ANGELES FRIED CHICKEN, INC.                              1610
A0601400360083649312001KIM, KANG WOOK                                           0502
A0101410560110478374013CYNTHIA EVANGELISTA MENDOZA                              0501
A0101400730111334903012EMELITA E. BATO                                          0501
B0101401960121238699002SO, PONCIANO CHUA                JT                      1601
A0101401960000000211003GO, JOHNSON CHUA OR                                     10501
A0101401960000000211003GO, MARIA MILAGROS                                      20500
B7201400170000003773557ASUGAS, GRACE MARIE N. AND DECIPULO                     11601
B7201400170000003773557WILLEJARDO M.                                           21600
B7201400170000003773524JUSTINIANO, MARIO L. AND DELOS SANTOS                   11601
B7201400170000003773524MARIA THERESA M.                                        21600
A0101407270162333154022JESUS R. MONTEMAYOR                                      0502
A0101401090171196001001MA. MATILDE GONZALEZ                                     0501
A0101401090171201465001MICHAEL JORGE OR CHERYL PERALTA                          0501
A0101401090171290167001BERNADETTE G. BECARES                                    0501
A1001400190231022073001FARASIA EDUCATIONAL LIBRARY COR                          0502
A1001400190231275932001********                                                 0501
A1001400190231520766117TAROY, MARIONNE ANGELOU SALEM                            0502
A1001400350000000017165MEN DBU A&L MARKETING SOLUTIONS                          0502
B0401400300243821100608**********                                               2002
B0401400300243821200608**********                                               2002
B1301400470000000009532PROSPERITY SUPERMART                                     1602
A0101401670271186251001DAHLIA P. STO. DOMINGO                                   0502
B0101401670271657140001NIC'S GOURMET DESSERTS, INC.                             1605
A0101406620000000193662****************                                         0501
B0101406620000000193942SOURCEFIT PHILIPPINES INC.                               1601
A0101410980000000012528IFORE L. YU OR                                          10501
A0101410980000000012528JISELLE COLLEEN                                         20500
B0101400570281027866001MEDICAL EQUIPMENT HEALTH CARE GROUP                      1601
A1101400120313478374099SALAS, ERIKA GALAROSA                                    0501
A3401400280000003309180CAPUNONG, ROMULO DELCANO                                 0502
B0101409050352031646001DELTA EARTHMOVING, INC.                                  1605
A0201400760000001107511OQUIAS, JOCELYN LIM                                      0501
B0201400760374035335001MECHAIRE, INC.                                           1620
A0201400920375478374008OLELA, DONATILLA OMELGO                                  0501
A0201400890000002270202GASPAN, JESUS ANDALES OR                                10502
A0201400890000002270202ENANORIA, ELENITA M.                                    20500
B0201400890376036063002CEBU PRIME MOVER TRANSPORT, INC.                         1601
A0201400890376763623001BELO, EDWARD JOHN DENNIS OR                             10505
A0201400890376763623001BELO, TERESITA L                                        20500
B0201401020000003031152VIRLO CONSTRUCTION DEV. CORP.                            1602
A0101408790000004697003MECANO, ANA DBU MECANO                                  10502
A0101408790000004697003ENTERPRISES                                             20500
A0101405490000004353031BARRAMEDA, ANITA VALIENTE                                0503
A0101405490392029904001ROSH INDUSTRIAL SUPPLY                                   0501
B0101405490000000019981H.E. & G. ENTERPRISES                                    1602
B0101405490392030959002DIAMOND ROAD INTERNATIONAL CORPORATION                   1602
A0101405490392478374008MARGARITA R. CIELO                                       0501
A0101409180397085053001FELIX, SHANETTE YAMBAO                                   0501
B5501400120410044567001RASAY INSURANCE AGENCY AND GENERAL                      11601
B5501400120410044567001SERVICES                                                21600
A5501400120410283898006GARCIA, JOSIE JAVELLANA                                  0501
B5501400120410821100608**********                                               2010
A2401400180411272640001VICKY M. BOJE                                            0502
A2401400180411455559001VENDIX GEN. MERCHANDISE                                  0501
A2401400180411572624001TUTOR, LILIOSA REBOJO                                    0501
B1201400150421025695001PRINTING AND PUBLISHING MULTI-PURPOSE                   11602
B1201400150421025695001COOPERATIVE                                             21600
A0901400220000000425045LOZADA, ELIZABETH GO                                     0501
A0101403320000000736043ADDENBROOKE, TERESITA ABELLA                             0502
B0101403320471043706001M-TRI-R CONSTRUCTION & TRADING CORP                      1605
A0101403320471076446001********                                                 0501
B0501400170481025398002****                                                     1602
B1901400160491821100608**********                                               2005
B1901400160491821200608**********                                               2001
B1401400110492027896004LUCENA UNITED DOCTORS HOSPITAL, INC                      1603
A1401400110492479110001ARTISTA, LEOMAR VITAS                                    0501
A1401400110492502818001OBISPO, ALONA VILLAMAYOR                                 0502
A0101405940512558822002**********                                               0501
B0101408110000000016691CASUAL CLOTHING RETAILERS, INC.                          1610
A0101411400000000001601PANA, EDNA DBU TFGCI JAPANESE R                          0501
B0101403450521032691001************                                             1605
B0101403450521039033001**********                                               1601
A0101403450521368963001YAO, SANDRA MAE YU                                       0502
A0101404000551392721001SAMONTE, MYLENE ISIP                                     0501
A0101404000551478374002PENAMORA, GIRLIE E.                                      0501
B0101412180000001293130BLADESANDBOWS INC.                                       1605
B0101404260000000157015INTERPRO FOOD SPECIALIST INC.                            1610
A0101404260611478374098CECILIA ORIAS                                            0501
A0101409890000000437358**********                                               0501
A0101409920000002260522FERRE, DENNIS TROY DIENZO                                0502
B0101409920000003672013ANGELICA DL MOJICA CORPORATION                           1602
A0101407690000000914016******                                                   0501
A0101407690652298552010ANGELINA CANETE - DEALERS OF                            10502
A0101407690652298552010SHOECAT INC.                                            20500
A0101407690652369463001MARLENE P TRINIDAD OR ARNEL L                           10502
A0101407690652369463001TRINIDAD                                                20500
A0101407690652478374179LENIE ANDO - DEALERS OF                                 10502
A0101407690652478374179SHOECAT INC                                             20500
A0101407690652698616001VELARDE, ARLENE PAROCHA                                  0501
A0101411530000001393711PAULINO, EDWARD REYES                                    0502
A0101411530000002260362MIRANDA, ALBERT MAMERTO MEDINA                          10501
A0101411530000002260362OR MIRANDA, MAY F                                       20500
A0101413440655054550001SOMETHING DIFFERENT BAKESHOP                             0501
A0101413570000005435581DIWAN, AHMAD IMAM                                        0502
A0101406590000003007030BATOCABE, MARY GRACE TABLIZO                             0501
B1301400210000000023270CHENG ENGINEERING                                        1602
A1301400340000002283781RODELIO D. RUBIO OR                                     10502
A1301400340000002283781ALONA D. ALIPIO                                         20500
A1301400340683363297001APOLONIO, MA. CONCEPCION AMURAO                          0502
A1301400500000000213378JEAN G. REYES                                            0501
A0101408240711487311001RACHO, DESIDERIO OR TRANQUILINA                         10502
A0101408240711487311001OR ANNA OR ARTHUR                                       20500
A0101408240711547758001SALVADOR, DIOSDADO COSCOLLUELA                           0502
A4101400390813478374045FIRMALINO, MELECIA ATIENZA                               0502
A4101400390000000048491MARCOSO, NENA MINGO                                      0501
A4101400550000006044673AQUAMASTERS WATER TREATMENT                             10501
A4101400550000006044673INDUSTRIES                                              20500
A0101412340000000319497PINEDA, IMELDA PEREZ                                     0502
A0101412340000006047047RONEL A. ANCHETA                                         0501
A0101412340000006047138RICHARD R. CABANTAC                                      0501
A0101412340000006160221JANE A. ABAYON                                           0501
A0101412340000003343502PHILIP S. GARCIA                                         0501
A0101412340000004360401MARK ALVIN F. REAL                                       0502
A0101404840851478374094LETICIA FULLO                                            0501
A0101404840851520766092VIOLETA G BERMAS                                         0503
A0101404840851520766104PARAGAS, MARILOU                                         0501
A0101404840851542980001MASANGCAY, NORA VERCELES                                 0501
A0101406750000003393140FUENTEBELLA, JOCELYN PANGILINAN                          0501
A0101406750000002040271EVANGELISTA, JOSEFINA MALLARI                            0503
A0601400230891400124001LIDUVINA OR ENRIQUE GRANDA                               0504
