A0101413150000002299392SZE, JACKYSON BALDUGO                                    0504
A0101413150000005168316*****                                                    0502
A0101400150061368113001**********                                               0501
A0101400150000008307033**********                                               0501
A1901400290261021148001ACR CONSTRUCTION SUPPLY                                  0505
B0101412890000007906092PAPAJEK FOOD CORPORATION                                 1602
A0101414120000000398892A.R.P. TRUCKING                                          0502
A0101400860000005312970**********                                               0501
A0101400860011429410001**********                                               0503
A0101400860011452750001**********                                               0501
A0101400860011533026001**********                                               0502
A0101400860011764734001CHEN, DONGYING                                           0502
A0101401250021184686001CHAN, JOHNNY TAN                                         0502
A0101400150000002902672ESQUILLO, JUMAR COLMINAR                                 0501
A0101405810000001021161***************                                          0502
B0601400100000000142101VITAL LIFE SPRING NATURAL HEALING                        1601
A0601400100000002365459MURPHY,JAMES MARSHALL OR MURPHY                         10501
A0601400100000002365459, ANN MARGRATE                                          20500
B0601400100000002099107ONG, ANDREW OR ONG,ING LEE OR ONG, ANSON                11603
B0601400100000002099107OR HAO, EMILIA                                          21600
A0601400100081560024001VERGARA, ELSIE MAGLAMBAYAN                               0501
A0101413280000005279683NUNEZ, TONI CHRISTINA AMAYA                              0501
A0101401960000006004422***************                                          0501
A0101413150000005319320*****                                                    0501
B0101401830000000033649CARITAS SALVE CREDIT COOPERATIVE-                       11603
B0101401830000000033649PASAY (009)                                             21600
A0101401830000003169333MUNAR, JEREMIE V. OR                                    10501
A0101401830000003169333MUNAR, MARK M.                                          20500
A7201400170000003773120ASUGAS, GRACE MARIE NARCISO                              0503
B7201400170000003772907LUIS, ANTONIO ONG OR LUIS, EMMA REDUCTO                  1601
A7201400170000009673141TRAYA, MARY JOY SEPADA OR                               10505
A7201400170000009673141TRAYA, REX JULIUS AM-IS                                 20500
B7201400170000003773739NDC FISHING CORPORATION                                  1602
B5001400170000000169733BRILLANTES, RUTH MARAON                                  1605
A0101407270000010959892LIM, HUAK TECK                                           0501
A0101407270000009673390CRISTOBAL, RONALDO REMORIN                               0502
A0101407270162331904006**********                                               0501
A0301400530000005001669CORTEZ, LEAH CASAS                                       0501
B0301400660000006862920**********                                               1601
B0301400660000000048235DAVAO MULTIBUILD CORPORATION                             1610
A0301400660000006862593**********                                               0502
A0301400950000001379546SARABIA, MAY JOY DUCO                                    0501
A0301400950000008000660PE BENITO, HAZEL ANN NERI                                0503
A0101410720000001602302******                                                   0501
A0101410720653509852001SOMOSIERRA, NERIO G. OR                                 10502
A0101410720653509852001SOMOSIERRA, ANNA                                        20500
A0101412500000003289952TIAM-LEE JR., SIMEON GO                                  0501
B3101400160000010010610FRANCISCO P GARCIA & CYNTHIA T ALARCON                  11610
B3101400160000010010610& LEILA D TORRES                                        21600
A3101400160221042310001STAR NETWORK REALTY                                      0501
B3101400160221056481002FIRST LAGUNA LAND BUSINESS CORPORATION                   1601
A3101400450223310377002PENALOZA, RAINIER OR ROMA                                0501
A3101400450223418716001GARCIA, JESUSA CORAZON PLAZA                             0502
A3001400130000008916149DUAY, MARLOWE T. OR DUAY, WILDE                         10501
A3001400130000008916149LIZA T.                                                 20500
A3001400130000008264751QUINGCO, JOECEL G.                                       0501
B1001400190000000124810GOCHUICO, PETER LIM                                      1603
A1001400190231446795001SAARENAS, LOIDA TAN OR SAARENAS                         10501
A1001400190231446795001JR., JULIAN                                             20500
A1001400190231478374006LIBRADO, HAZEL T.                                        0501
B1001400350233036707001KASANAG DAUGHTERS FOUNDATION, INC.                       1602
B1001400350233039624001ORO LZT MARKETING ENTERPRISES, INC.                      1604
A1001400350233542957001SUMALINOG, RANIE                                         0501
A1001400480000000606819TAN, LYDIA OR TAN, OLIVER                                0505
A1001400480000005356010SEVALLOS-PESQUERA, AILYN TECSON                          0501
A1301400470000000061550FLORENDO M. HOLGADO JR.                                  0504
A1301400760000005989862GARCIA, EDUARDO BARTOLOME OR                            10501
A1301400760000005989862GARCIA, JENALYN PASCUA                                  20500
A1301400760000005989902YVETTE S. MALGAPO                                        0502
A1901400290261047618002EMMA CHAVEZ PINE                                         0501
B1901400290000007876746SPOUSE OF THE BLESSED VIRGIN HOSPITAL                   11602
B1901400290000007876746CORPORATION                                             21600
B0101406620273012462001COL FINANCIAL GROUP, INC.                                1610
B0101406620273042193001MAGUINDANAO DISTRIBUTION                                11601
B0101406620273042193001SYSTEM, INC.                                            21600
A0101411820000000477123**************                                           0501
A0101411820000005380263CESARIO, MARVIN OLIVEROS                                 0501
B0101400570281024165001PHILIPPINE SOCIETY OF CLIMACTERIC                       11603
B0101400570281024165001MEDICINE                                                21600
A0101400570281186842001DR. BENITO H. RAMOS JR.                                  0503
A0101411240000005135911DE TORRES, JULIAN RAMOS                                  0502
A6601400120000005710418MENDADOR, ALMANZOR CHAN                                  0501
A6601400120314624062001GIPAY, MARICEL DIAZ                                      0501
A3401400280000000156621DELA CRUZ, LOIDA GARCIA                                  0502
A3401400280000002323371RAYMUND D. BUENSALIDO OR                                10505
A3401400280000002323371SHIRLEY B. BUENSALIDO                                   20500
B3401400280318821200608**********                                               2001
A2901400130000005961680JAYLO, MA JACINTA CERDON                                 0502
B0101402350321006752001LOPEZVILLE HARDWARE                                      1602
A0101405650000005284339GALLEGO, RHYAN CAELIAN                                   0501
A0101405650322084139001PRECILLA, MARIA ADORACION GABIN                          0501
A0101405650322176916001VALDEZ, FLORA P. OR                                     10501
A0101405650322176916001VALDEZ, LAURO L.                                        20500
A0101405650000010832681RIVERA, MARIA ELLA GARCIA                                0501
B0101402510341021863002SAN BEDA COLLEGE UNION (SBCU)                            1601
A0101402510000000049318********                                                 0501
B0101402060000000653850TAASCOR MANAGEMENT & GENERAL SERVIC                      1603
A0101402060351217441018JOSEPH PAUL J. JAURIGUE                                  0501
A0101402060000005323222CRUZ, MARIE JOCELYN OCAMPO                               0501
A0101409050000000258224AILA CATLEYA V. AGAPOR                                   0501
A0101408370000000014513**********                                               0502
A0101408370382490482001DR. KRISINDA C. DIM-JAMORA                               0502
A0101408370000005220182MALONG, MARIA ELENA AZARRAGA                             0501
A0101415350000005085070MERIOLES, GOLDAMIRA MARQUEZ OR                          10502
A0101415350000005085070MERIOLES JR., OSIAS M.                                  20500
A0101415350000009523348GO, ALVIN PATRICK R.                                     0501
B0101408400394041296001CEBU CARRAGEENAN CORPORATION                             1601
A0101408400394047545001JOHNMAYSUZANNE FASHION                                  10505
A0101408400394047545001COLLECTION                                              20500
A5501400120000002949586RETIRADO ANABELLE OLIGO DBU FLY                          0501
A5501400120000000046882CHIU, VALENTIN & JULIA EILEEN &                         10504
A5501400120000000046882CHRISTIAN & CHRI                                        20500
B2401400180411021162001TBB & SONS MARKETING                                     1605
B2401400180000000073670BRIGADA HEALTHLINE CORP.                                 1630
B2401400180411325173001ERICO T. UY AND ERICA B. UY                              1605
A2401400180000005287043BANTOTO, JUVENAL ABELLA                                  0505
A2401400180411666777088DE MESA, FRANCISCA GUBUAT -                             10504
A2401400180411666777088NICESIAN STORE                                          20500
A1201400150000002325111DE GUZMAN, ANNALYN LLADOC                                0501
A1201400150421317778001REDEN MANARANG RONQUILLO OR                             10501
A1201400150421317778001LENIE RONQUILLO                                         20500
A1201400150421685972001JUCUTAN, HEIDI BONDAD OR                                10502
A1201400150421685972001JUCUTAN, ROMMEL                                         20500
B0101403030000005944738NAUTS AND VECTORS COMPANY INC.                           1605
A0101412890000001056371CALUSA, MA CRISTEL MAICA LEYNO                          10502
A0101412890000001056371OR CALUSA, RODEL B.                                     20500
B0101403320471008879002GOLDWIN MANUFACTURING                                   11610
B0101403320471008879002LABORATORIES                                            21600
A0101403320471478374005JOANN L. ANDAY                                           0503
B0101406330472012365002VERMONT SQUARE TOWNHOMES COND. CORP                      1601
A0101406330472032469001SILVER SPOON GIFT SHOP                                   0501
A0101410140000000499101MEMBERS OF NATASHA (SHOECAT INC                          0501
B0501400170481018109002CSI WAREHOUSE CLUB INC.                                  1605
B0501400170481025398002COSTSAVER'S SUPERMARKET, INC.                            1602
A0501400170481357950002JASPER SPENCER L. ONG                                    0503
A1901400160491035294001BATANGAS CITY GOVERNMENT                                10520
A1901400160491035294001EMPLOYEES CREDIT                                        20500
A1401400110000005526990DIHIANSAN, CHRISTINE BRIOSO                              0501
B0101403580511015363072MEC - EMD ANGONO                                         1610
B0101403580000000214695MEC - SONRIA                                             1605
A0101403580511036648001R2C TRADING                                              0501
A0101408530516618403001BEAVER T. ULGASAN OR                                    10501
A0101408530516618403001MARY JOY L. GUTIERREZ                                   20500
B0101408530516694070001MAJOR MOM NOVELTY GOODS COMPANY, INC                     1601
A0101403450000000889483*********                                                0505
A0101403450521240285002**********                                               0502
A0101403610000007124901LU, JONATHAN GO                                          0505
B0101403610531302489001R SQUARE WASTE MANAGEMENT SERVICES                       1603
A2201400250000006275829BAYAUA, BETHILDE LIES BARZABAL                           0501
A0101404130000002121282LOUISITA O. ARISTORENAS OR                              10502
A0101404130000002121282PRECIOUS O. ARISTORENAS                                 20500
A0101407720000004658328GALLENERO, JENNETTE TOLEDO                               0504
A0101407720000002693150FONTAMILLAS, FAYE TORRES                                 0501
A0101407720602399405002THELMA E. RAMOS OR                                      10503
A0101407720602399405002CLAVER P. RAMOS                                         20500
A0101404260000001725231MARAAN, ELMER MEDINA                                     0501
A0101407690652319667001TANTAMCO, RAMON NICOLAS                                  0510
A0101407690652474247001**********                                               0503
A0101413440000006680880GUPANA, PAUL MARINO REYES                                0501
A0101413990000006278168ENCOMIENDA, ROSEMARIE LABUGUIN                           0502
B0101414120000003584281JD & P FOOD TRADING CORPORATION                          1602
A1301400210000005040577**********                                               0502
A0101408240711396310001LESTER C. VICTORIA OR                                   10502
A0101408240711396310001GIL JOSE E. PULUMBARIT                                  20500
A0101408240711436371001YAP, MILAGROSA ROSLINDA                                  0501
A4101400420000004848080GARCIA, JANETH GARCIA                                    0501
B4101400420814039001001DOMINGUEZ TRANSMAN MACHINE WORKS CO.                     1601
A4101400420000003715564SARIA, LESTER DBU DESERT QUENCH                         10501
A4101400420000003715564WATER REFILLING                                         20500
A0101412340000006160276MA. DYNAH D. TUASON                                      0501
A0101412340000003344943RAYMOND M. OBLEPIAS                                      0502
A0101412340000003438646******                                                   0503
A0101404840851298552055SIXTA MELBA C. ENGBINO                                   0502
A0101406750852025967001FILIPINAS ALLIED MAINTENANCE &                          10505
A0101406750852025967001SPECIAL SERVICES                                        20500
B0101406750852474662001SECURITY MARKETING & PEST MANAGEMENT                    11603
B0101406750852474662001INC.                                                    21600
A0101405070861409490001WU, CHIU HWA                                             0501
A0601400230891506645001SALLY M. DABU OR                                        10503
A0601400230891506645001BERNARDINO D. DABU                                      20500
