A4101400420814520766064ANDAYA, AURORA A.                                        0501
A4101400420814520766033DELA CRUZ, MARILOU M.                                    0501
B0101400860011400685002**********                                               1601
A0101400860011462049001**********                                               0505
A0101400860011495810001**********                                               0501
A0101401250000004969213BAGNOL, NORA ABACAHIN                                    0502
A0101401250000000460586AZUCENA, MARIA PAMELA ENRIQUEZ                           0501
B0101400150061010779001DIAMOND STAR AGRO PRODUCTS, INC.                         1610
B0101405810072019239002ROYAL PINNACLE ESTATES CORP.                             1601
B0101405810072030630001***************                                          1603
B0601400100081038307001JOSEPH DENNIS C. SANGALANG                              11603
B0601400100081038307001ACCOUNTING FIRM                                         21600
A0601400520000002085792PANGILINAN, SER ANTHONY FRANCO                           0501
B0601400520000000398625PADSA ENTERPRISES                                        1602
A0101410560000003562081CUBINAR, ANNALIZA OR                                    10501
A0101410560000003562081CUBINAR, LOLITA G.                                      20500
B0101400730111008382002JEMARA INTERNATIONAL FREIGHT                            11602
B0101400730111008382002SERVICES INC                                            21600
A0101400730111386485079GLYN G. HORTALEZA                                        0502
B0101401830141065311001LUCENA, DANTE BORGE DBU DBL & POT                       11601
B0101401830141065311001FEEDS SUPPLY                                            21600
A7201400170000007185620PUIG, OHLIEMAY INTOL                                     0501
A0101400440000008234633AHMAD A. HASSAN HAGHIGHI FARD                            0501
A0101400440000000060266JOCELYN B. ANDAYA                                        0501
B0101407270000000010180COUNTRY CHATEAU HOTELIERS CORPORATION                    1602
A0101401090171196102001CUEVAS, DR. BERNARDO                                     0505
A0101401090171507609001DOLORES E. MORANTE                                       0501
A0301400530193695426001SAYSON, EDITHA A.                                        0501
A0301400660000000194570DEQUITO, CITZY VENTOR                                    0502
A0101401380000000026888YABUT, MA. NICOLE KRISTINE                              10501
A0101401380000000026888GARCIA                                                  20500
A0101410720653479613001PABLITO OR FE OR RONALD JOHN OR                         10503
A0101410720653479613001PRINCESS JOY FLORES                                     20500
A3101400160000000006464CANDELARIO, EVELYN DBU                                  10502
A3101400160000000006464RALC REALTY                                             20500
A3101400160221671542001EVELYN L. CANDELARIO OR                                 10501
A3101400160221671542001DR. VIRGILIO R. LAZAGA                                  20500
A3101400450223405022001REYES, RIZALINA OR MANOLO                                0501
A3001400130000006145262DELICANO, MECHIEL                                        0501
B1001400190231024431001FMN AGRICULTURAL SUPPLY, INC.                            1603
A1001400190231520766128MAGLANGIT, JONIE QUIACAO                                 0501
A1001400350000000017165MEN DBU A&L MARKETING SOLUTIONS                          0501
A1001400480000000133393FERNANDEZ, RELLA JUSTINA ACENAS                          0502
A1001400480000000474953FERNANDEZ, JOFFREY MAHINAY                               0502
A0101401670271039999001INFINITY INSURANCE SERVICES                              0504
B0101406460272020749001EASTGATE COMPUTER CORPORATION                            1601
B0101406460272038032002WEE COMMUNITY DEVELOPERS, INC.                           1603
A0101406620273452838001CLEMENTE, DANTE DELA CRUZ                                0501
A0101400570281656285001GAERLAN, ANGELA DAVID                                    0502
A1101400120000005608215RIVERA, RAUL CORTEZ OR NIPAL,                           10501
A1101400120000005608215MARIA TERESA RIVERA                                     20500
A1101400120000006080811VALLE, JENIZA CUAYZON                                    0501
B1101400120000006186923ANITO ESTRELLA REALTY CORP.                              1602
B1101400120000006186850ANITO ESTRELLA REALTY CORP.                              1602
A1101400120000005608260SANITA, ERIC SALIENTE                                    0501
A0101402350321179570001EPHRAIM NEAL C. ORTEZA OR                               10501
A0101402350321179570001IMELDA L. OLIVAREZ-ORTEZA                               20500
A0101402510341278435001MARIE ELIZABETH Y. SOLIDUM, MD                          10501
A0101402510341278435001OR CAPT. GIL SOLIDUM                                    20500
A0101402510341399755001********                                                 0501
B0201400760374038778001CPERC                                                    1602
B0201400760374490906001******                                                   1602
B0101402930381009079001THE AMERICAN EYE CORRECTION                             11610
B0101402930381009079001CENTER INC.                                             21600
A0101408790000002031532FLORES, AGNES YDAGDAG                                    0501
B0101408790000000039012ARDENT COMMUNICATIONS, INC.                              1603
B0101408790383065564001URBAN ECO-LIVING DEVELOPMENT CORP.                       1601
B0101402770000001571233LEADER GARMENTS CORPORATION                              1605
B0101405490392030564001NEW FS COOL AIRE INDUSTRIES, INC.                        1603
B0101405490392037042001GETZ ADVANCED MATERIALS, INC.                            1610
B0101405490000001935691WESTCROP LENDING CORPORATION                             1605
A0101405490392177005001DOMINGA P. BUENAOBRA                                     0501
A0101408400000003600251MALINAO, ROLAND JUALO OR                                10501
A0101408400000003600251MALINAO, MARIA ELIZABETH                                20500
B0101408950396046715001PRIMELINK INSURANCE AGENCY, INC.                         1605
A0101408950396562558001DR. LEIZL TUMANDA CANONIGO                               0505
A0101408950396726811001GERARD M. MORALES OR                                    10502
A0101408950396726811001REGINA ISABEL S. MORALES                                20500
B0101408950396738114001ST. LUKE'S MEDICAL CENTER FOUNDATION,INC                 1602
A0101409180397681135001UICHICO, ERNESTO FLORO                                   0501
A5501400120000000047389GRANIL, HAZEL CARBON                                     0501
B5501400120410042035001CYCLERS BYKE HUB                                         1601
A5501400120000006976972BENLYN CAFE                                              0510
A2401400180411032438001DADIANGAS AUTOWORLD PARTS                                0506
A2401400180000007031632MIGUEL, ROSALINA DELA PENA                               0502
A2401400180411455559001VENDIX GEN. MERCHANDISE                                  0501
A2401400180411495221001MANUEL JR., ANTONIO VILLANUEVA                           0501
A2401400180000000428051EGOS JR., JEMMERITO CASANA                               0504
A2401400180411514423001DEALA, BERNARDITA GATCHALIAN                             0502
A2401400180411606598001ESCONDE, MERLINDA MIOMIO                                 0501
A1201400150421478374035DALAN, LINDA G.                                          0505
A0101403030441241050001**********                                               0503
A0101412760000007822042BARRIGA, ROSEMARIE SANDOVAL DBU                         10503
A0101412760000007822042EVCOM FABRICATION                                       20500
A0101412760000002067698OCANA, MA. C0NSUELO ESTRELLA                             0501
A0501400170481252352001DR ESTRELLA B ESPINO                                     0501
A0701400260000001804713LIZARDO, CHRISTOPHER REYES DBU                          10502
A0701400260000001804713CRL TRANSPORT                                           20500
A0701400260000002339084LIZARDO, CHRISTOPHER REYES                               0502
B0101408110515036613001DASECO-AIRE TECHNOLOGIES INCORPORATED                    1602
A0101408530000007304583MAGBOJOS, JOAN LEAH CATAPANG                             0501
A0101411790518055815056MULDONG, JOSE RAFAEL CASAS                               0501
B0101403450521011748001EUROTILES INDUSTRIAL CORP.                               1604
A0101403450521012086001**********                                               0502
B0101403450521028565001**********                                               1601
B0101404000551005043002PHIL COMMERCIAL CAPITAL INC.                             1605
B0101404130000004437252KING, WYDEN ROSARIO                                      1602
A0101404130601708628001PABALATE, PACITA BATAC OR                               10501
A0101404130601708628001PABALATE, HELENA                                        20500
A0101407720000001447872PADILLA, PALOMA PANAY                                    0502
A0101407720602161863003ROBERTO K. MACASAET OR                                  10502
A0101407720602161863003VIRGINIA M. RAFAEL                                      20500
A0101407720602313187002SANTOS, CHRISTINE THERESE AMURA                          0505
B0101407690652047936001WATER DRAGON CONST. & DEVELOPMENT INC.                   1601
A0101407690000000914027BUYAYO, ELIZABETH KIDAYAN                                0501
A0101413440000006680700MARIANO IV, JORGE BARTOLOME                              0501
A0101413570000006763648CHRISTIAN L. PAYANG                                      0501
A0101413570656057648083RENAN M. DAVID                                           0502
A0101414120000006864442VALDEZ, EMERSON V. OR                                   10501
A0101414120000006864442INOCENCIO, EDWIN                                        20500
A0101414120000003190781**********                                               0501
B0101406590662725736001A.C. MOJARES CONSTRUCTION, INC.                          1610
B1301400210000000023463SAN PABLO MULTI-PURPOSE COOPERATIVE                      1603
B1301400340683353482001MARLENE R. JOSE OR JOSE MARI R. JOSE                     1602
A1301400340683361124002BUENAVENTURA, MYLINE SORIANO                             0502
A1301400340683456739001LAZATIN JR., EDUARDO NIONES                              0501
A1301400500000007096520BAUTISTA, SHIELA MARIE OR                               10505
A1301400500000007096520BAUTISTA, ERICKSON                                      20500
A1701400230000001108401LOPEZ JR., CECILIO LAGMAY                                0501
A0101408240711557097001BANTOC, HERMIS SAGUNI                                    0503
A2801400100712401674002DEL ROSARIO, DANILO LARACAS                              0501
A4101400260000006043403RAPISTA, JOHNNY APISTAR                                  0501
A4101400420814520766012SUSAN B. MALBOG                                          0501
A4101400420814557947001SAYAROT, GLENN MAGO                                      0502
B0101404840851021512001STI COLLEGE ALABANG, INC.                                1603
A0101406750000004641656PAMARAN, GINA GALANG                                     0501
A0101406750000004642006MALINIS, LISBETH MANALANG                               10501
A0101406750000004642006OR MARIO MALINIS                                        20500
B0101406750852034933001HYUNDAI ALABANG INC.                                     1605
A0101406750852363664001LEE, VIRGINIA NGO                                        0501
A0101405070861478374086MARLYN C. GABEST                                         0502
