B0401400270242821100608**********                                               2010
B0101401830141821100608**********                                               2002
A0101406880513635484001MONTOYA, JENINA MANABAT                                  0501
A0601400520000001120385BANAG, ESMERALDO PINEDA                                  0501
B5501400120410042897008MARBEL UNIVERSAL TRADING, INC.                           1605
A0101411790518055764152GAGUI, JOE ANTHONY YU                                    0501
A4101400260812774482001PACALDO, DANILO ALINTON                                  0505
A0601400520000001707051LIMON, REMEDIOS Y. OR                                   10501
A0601400520000001707051POLICARPIO, JUDY SUE L                                  20500
A0601400520000001349662TIMBOL ROMAN MANALOTO                                   10501
A0601400520000001349662ACCTNG & TAX CON                                        20500
B0301400530000005001603*******                                                  1601
A0101413020000002292691GONZALES, BENJAMIN PRESENTACION                          0501
A0101400570281186867001DR. DIANA JEAN ROXAS                                     0501
A6601400120314041602001LEXTAN GENERAL MERCHANDISE                               0502
A1201400150421254219002LAO, GEMMA A.                                            0502
B2801400100000004560047JTO CONSTRUCTION CORPORATION                             1602
A0101400860000002333455************                                             0505
A0101400860011376772001**************                                           0502
A0101400860011399605001**********                                               0502
B0101400860011427569001**********                                               1601
A0101401250021180271001ERLINDA V. EQUIBAL                                       0501
A0101400150000003198043Noren A. Perola                                          0501
B0101400150061020654001STATION SQUARE EAST COMMERCIAL                          11601
B0101400150061020654001CORPORATION                                             21600
A0601400100081578724001ROMERO, OFELIA SUBA                                      0501
A0601400360083550544001MERCADO, LUCITO BLAY                                     0503
A0101412630000000801421NOGUERA, MARIA FRANCIA PAGURAYA                          0501
B0101401830000000033570CARITAS SALVE CREDIT COOPERATIVE                        11603
B0101401830000000033570(MALABON)002                                            21600
A0101401830141395937002JAVIER, DIA KRISTINE SERRANO                             0502
B0101407270000004558425CBB PRODUCTIONS EVENTS ORGANIZING &                     11601
B0101407270000004558425MANAGEMENT INC.                                         21600
A0101407270162503308001RONALD S. FRANCISCO                                      0502
A0101401090000004753806GUEVARRA JR., LEONARDO ACOSTA                            0501
B0301400530000000025378D' UNIBUENAS CORPORATION                                 1603
A0101401380000001819996********                                                 0502
A0101401380201641992001FLORES, TOMAS NOGAR                                      0501
A0101413020000000880393CUARESMA, PEDRO DORIA DBU:839                           10502
A0101413020000000880393MACHINE WORKS                                           20500
A3101400160221529439001ESTELLA MARIE M RAMIREZ                                  0501
A1001400190000002266571MARTINEZ JR., MANUEL MABAYO                              0501
A1001400190231446795001******                                                   0501
A1001400190231478374164SARAUS, BAMBET SOGOC                                     0501
A1001400190231520766093DACUTANAN, REYNOZA RADOC                                 0503
A1001400350233478374026ANNABEL ESTOMO                                           0501
B1001400350233611366001**********                                               1602
B1001400480000003357891AYA VENTURES CORP DBU ASONHUAT AGRO INDU                11601
B1001400480000003357891STRIAL GROWER                                           21600
A0101406620000006317791BIEN, RUTH RAMIREZ                                       0501
B0101408660274046031001INTERNATIONAL SPECIALTY RETAILERS, INC.                  1603
B0101408660000001940581RBP INDUSTRIAL SERVICES, INC.                            1601
A0101400570281519630001CARLOS, MARIA ARLENE DUMANDAN                            0501
A0801400160311380582001CHUA, ANDREW UY OR                                      10501
A0801400160311380582001CHUA, PAMELA G.                                         20500
A0801400160311478374039LEONORA J. ESFORMA                                       0501
B3401400280318044735001A & T SANTOS INCORPORATED                                1602
A2901400130000006737739TEMPLONUEVO, GERICK MARIBOJO                             0501
A0101402350321045652001BOYET AUTOCARE SERVICES                                  0506
A0101402350321180985003HO, CHIEN CHUNG OR                                      10501
A0101402350321180985003CHUANG, SHIH-SEN                                        20500
A0101405650322172570002********                                                 0501
A0101405650322743994001DOMINGO, ANNE REJOYCE OR                                10502
A0101405650322743994001JOSEFINA                                                20500
B0101409050000000258571CITY MARQUE LIMITED                                      1601
B0201400760374030466002A.D. GOTHONG MANUFACTURING CORP.                         1604
B0201400760374047828001MTO TECHNOTRENDS INC.                                    1602
A0201400760000005710889DY, CHARLIE BALENA                                       0505
B0101402930381014599001HEALTH SOLUTIONS CORPORATION                             1602
A0101408370382227014001ANNIE T. COLEMAN                                         0502
A0101402770391212232001RODOLFO R. SAN JUAN, M.D.   OR                          10504
A0101402770391212232001LILIA L. SAN JUAN                                       20500
A0101408400394412577001REYES, EMMANUEL JOHN JOCSON OR                          10502
A0101408400394412577001REYES, MARY GRAC                                        20500
A0101408400394478374088MARLENE NECESARIO                                        0501
A0101408400394478374098EDGAR D. NECESARIO                                       0501
A0101408400394639219001ROMERO, FRANCISCO GABION                                 0502
A0101409180000004409858BARRIOS II, MARTIN DE VEGA                               0501
A0101409210000001501455STA JUANA, MARK LOU MARTIN                               0501
A5501400120410691845008INOCENCIO, ELLAIN MARGARET M.                            0503
A2401400180000001676979TUPAS, MARVIN REY DBU BBMT                              10505
A2401400180000001676979TRADING                                                 20500
A2401400180000005536512PROSERV AUTO AND ARCHITECTURAL                          10501
A2401400180000005536512GLASS SUPPLY                                            20500
A2401400180411296485001BONIFACIO, FLORENCIA OR                                 10501
A2401400180411296485001BONIFACIO JR., I                                        20500
A2401400180000000427985CULLO, KRISTIANNIE LOVE ROSARIO                          0502
A0901400220432582218001**********                                               0501
A0501400170000005003041VILLAMIL III, ALFONSO CLAVERIA                          10505
A0501400170000005003041VILLAMIL, NENITA                                        20500
A1601400170000001069090MARY NATHALIE P. MONTES                                  0502
A1601400170000001360725MARY NATHALIE P. MONTES OR                              10502
A1601400170000001360725WINDELL O. CADAG                                        20500
A1601400170000001360736UPTOWN ENTERPRISES                                       0501
B0101407430000000044926JOSEPH BINGE B. MACASERO                                 1602
A0101407430000006147793MARILIZA P. ABONG                                        0501
B0101407430000001213261ROMINE LASERJET TONER CORPORATION                        1601
A0101407430503185438005LETICIA D. JIMENEZ                                       0503
A0101407430503185438006LETICIA D. JIMENEZ                                       0503
A0101403580511570521001ELEONOR B. BAYANI OR                                    10501
A0101403580511570521001JOVITO BAYANI                                           20500
B0101406880513327813001KSY LAND DEVELOPMENT CORPORATION                         1602
A0101406880513565496018HERNANDEZ, RODELIO FARAON                                0501
A0101408110000000380016********                                                 0502
A0101408110515473264001ONG, FRANCES ASUNCION                                    0501
A0101408530516720434001ANDRADE, LEOMARC KEITH COLONA                            0502
A0101412050000000697229********                                                 0504
B0101403450521011608001***********                                              1603
B0101403450521011735001BASIC PACKAGING CORP.                                    1602
B0101403450521037888001STA. ANA MANUFACTURING & DEV'T. INC                      1603
A0101403450521360388001**********                                               0503
A0101404000000003853149DEE, GERARD TIONG                                        0501
A2201400250561255737002WILFREDO Y. SAWIT                                       10501
A2201400250561255737002OR JOSEFINA B. SAWIT                                    20500
A0101407720602196321001**********                                               0501
A0101407720602243511001LIZARES, NICOLAS                                         0501
A0101407720602396606001DR. WILMA A. BALTAZAR OR                                10502
A0101407720602396606001DR. EDGAR BALTAZAR                                      20500
A0101404260000003498408AREVALO, MA. JORLYN                                      0501
A0101404260611493062001NACINO, BERNADETH VILLAR                                 0501
B0101404260000000550252ISOMATIC INC.                                            1601
A0101409920000006336672TORILLA, SOFRONIO NAVA                                   0503
A0101413440000001472873BANARES, EMILIA CHUA                                     0501
A0101413990000002273941CARAMANZANA, EDGAR MABORANG                              0502
B010141030000000019166624-HOUR MOVER SERVICE COMPANY                            1603
A1301400210000001206842REYES, MICHAEL REFUERZO                                  0501
B1301400210682248659001ASIANLAND STRATEGIES CORPORATION                         1605
A1301400210682312156001ELISA LORENZO                                            0501
A0101408240000001038788MAGAT, GRACE JOVEN OR                                   10501
A0101408240000001038788MAGAT, JAMES TORRES                                     20500
B0101408240711023689001ENL COURIER EXPRESS, INC.                                1602
A0101408240711373327001MARVIN PAUL CHASE OR                                    10501
A0101408240711373327001SHELLEE GAYE CHASE                                      20500
A0101408240000000347493COLLANTES, MA. CORAZON TARNATE                           0501
A2801400100000003116703VIRAY, ADRIAN BALUYUT                                    0502
A4101400260812247613001LUZVIMINDA J. ESTOCADO                                   0505
A4101400390000006302523TOLEDO, ANN RICHELLE CASTILLO                            0501
B4101400390000003346165OBIC NOUB INC                                            1605
A4101400390000001732565BOSITO, JOSIE LANGRES                                    0501
A4101400550000001622491DICEN, SALVADOR DIVINA                                   0501
A4101400550815181680001MONTARDE, NELSON V. OR                                  10501
A4101400550815181680001MONTARDE, MILDRED                                       20500
B0101405070861008149001TABAQUERIA DE FILIPINAS INC.                             1606
B0101413860000000145275CON-PAC WAREHOUSING INCORPORATED                         1605
B0101413860000001767815CWI WAREHOUSING & LOGISTICS CORPORA                      1603
B0601400230891043093001TRADERS AUTOCENTER, INC.                                 1603
A0601400230891326099001MACASPAC, MARIANNE A. OR                                10501
A0601400230891326099001MACASPAC, ARLEN                                         20500
A0601400230891627261001RAMOS, ANGELITA BAUTISTA                                 0502
