B0101400150061821100608**********                                               2010
B0101402930381821100608**********                                               2002
B0101402350321821100608**********                                               2005
A0101409210398047601001LAMONTE, E DBU YOB AND ERIN                             10501
A0101409210398047601001GLASS ENTERPRISE                                        20500
A3101400450223223458004ALVERO, LEAH AURORA TOLENTINO                            0501
A0101408530000001886031DANTE A. CASIMIRO                                        0501
A0101400730111588315001AGIR, NATHANIEL Y. OR                                   10503
A0101400730111588315001JARDIOLIN, MAJAR                                        20500
B0101410720000000968163PROPERTY 101 INCORPORATED                                1602
A4101400420814413936001DONCILLO, ROSITA YMATA                                   0501
A0101401250021478374014IRENE P. FADULLO                                         0501
A0101400150000003198178ZARA MAE A. RAMOS                                        0502
A0101400150061228609001CYNTHIA C. JUATON                                        0501
A0101400150061232197002LANIE O. VILLAPANDO                                      0501
B0101400150061357062001LEONCIO LIM OR DEWEY SY OR BELLY ANG                    11601
B0101400150061357062001OR ROBERT CO                                            21600
B0601400100000000032806BLU BLAZE GAZ HAUS                                       1604
A0101400730111386485063LYNETTE E. BENDANILLO                                    0501
A0101413310000005433432SIMON, JADE PONTANARES                                   0501
A0101400440000001439874ABAL, JASON REY ALEJAGA                                  0502
A0101400440000004889854ELISA G. LAMAYEN                                         0501
A0101400440000006679732REVILE C. ABONG                                          0501
A0101400440161478374144CELERINA M. MARASIGAN                                    0501
A0101407270000004915908LORENZO, TRICIA MARIE SOLANOY                            0501
A0101407270162544581001FREDERICK STEPHEN M. BANGUG                              0502
A0101401090171196331001ANTONIO A. ESPEJO                                        0501
A0101401090171312734001DE LARA, AILEEN CYNTHIA F.                               0502
A0101401380000000792092DELA CRUZ, JOANNA COLINA TUAZON                          0501
A0101410720000000095130DAGOC, KATHARINE ERLINDA ORENSE                          0520
A3101400450000005355540SILVA, MILO GENIL                                        0501
A1001400190231275093001CAUMBAN, CRISTY MARIE                                    0502
B1001400350000002048460GOMARTS TRADING CORPORATION                              1610
A1001400480000000474993ESCOBIDO, JOSE LABADAN                                   0501
A1901400290261574550001RUSTY BOBADILLA PEREZ                                    0501
B0101401670271028082002DDT KONSTRACT, INC.                                      1630
A0501400200292500200002BALLESTA, IMELDA QUIMO                                   0502
B2001400290315052317001NRU TRADING                                              1620
B2001400290315698615001********                                                 1602
B3401400280000006790965JL PRIORITY LENDING CORPORATION                          1602
A0101402350321708802001ALMAROSE C. VILLAPANDO                                   0501
B0101405650000000772685WISEMEDIA GROUP, INC.                                    1601
B0101405650000000772685WISEMEDIA GROUP, INC.                                    1601
A0101405650322368071001CALANGI, JOSE MA. SALUMBIDES                             0501
A0201400760000002309713ARRIOLA, LYLL KAREN BIGORNIA                             0502
A0201400920000000991711MAGDUA, MAY ANN DARUNDAY                                 0502
B0201400890000007877250EASTERN PACIFIC SHIPPING CORPORATION                     1601
B0101402930381046346001CONNECTICOM GLOBAL NETWORK INC.                          1605
B0101402930000005645912ARTISTESPACE INC.                                        1610
B0101402930381821200608**********                                               2001
A0101408370382391662001MARK JOSEPH J. REYES                                     0503
A0101415350000007877932CIFRA, DON SEBASTIAN                                    10502
A0101415350000007877932DELA CUESTA                                             20500
A0101402770000003487996CARTA, REMEDIOS ENRIQUEZ                                 0501
A0101408400394478374064MORANDARTE, ANGELITA B.                                  0501
B0101408950000008364494GLOBAL CITY CAR LEASE & TRANSPORT CORP.                  1603
A0101409180000005326603IBARDELOZA, ANNALYN SIABOC                               0502
B0101409210000002783282NUTRIGENICS ASIA INC.                                    1601
A5501400120000002348370LANDOY, AILEEN SUSTIAGA                                  0501
B5501400120410044008008FRANCISKOZ MOTORCYCLE PARTS,SRVCS &                     11602
B5501400120410044008008ELEC. SUPPLIES                                          21600
A5501400120410656138002OBINA, ANGELITA URETA                                    0501
B0901400220432044564001MARCIAN CONVENTION CENTER                                1610
B0101403030000005944670**********                                               1601
A0101410140000001939973CASTILLO, R DBU VRMJ MANPOWER S                          0502
A0101410140475496131001BALILO, ELGIN OR BALILO, LILY                           10501
A0101410140475496131001FRANZ JUNE                                              20500
A0101403580000000016082SWEET BELLA DESSERTS                                     0508
B0101403580000004558750ECOSSENTIAL FOODS CORP.                                  1601
A0101403580000010176962PASTOR, RE DBU REBECCA'S GARDEN                          0502
A0101403580000005328490BULANHAGUI, MA. GINA OTACAN                              0501
A0101403580511493558001HBO ENTERPRISES                                          0502
A0101403580000000016053MARIA CARMINA S. MESIAS                                  0508
A0101403580000000922781GALAURAN, DOMINICK ADOLFO                                0501
B0101408530516033397001SPRINGER INTERNATIONAL, INC.                             1605
A0101408530000000035925CASTRILLO, MILISA CAOIBES                                0502
A0101408530000001268515EL JAY S. DELOS REYES                                    0502
A0101408530000008159451IRENE F. PALACOL                                         0501
A0101411790518055764242PAGKALINAWAN, CHRISTIAN ELEAZAR                          0501
A0101411790518055815146SYLUANCIA, LEONARDO                                      0501
A0101404130601559335001TABULA, FLORANTE HIDALGO                                 0501
B0101407720000000885645A.F. NAVARRETE CONSULTANTS & ASSOCIATES                  1601
B0101412180000007360461ENLIFE GLOBAL INC.                                       1606
A0101411530000005493643CLAUDIO, GABRIEL S                                       0501
A0101413570000001720212NIMFA C. ESPULGAR                                        0501
B0101413990657067587001BALDA & CALALANG CO.                                     1601
A0101414120000000875612LACANO JR., EDGARDO BUNSO                                0502
A0101414120000007655196GARCIA, MERCEDES LOPEZ OR                               10501
A0101414120000007655196GARCIA, ENRIQUE TIANGCO                                 20500
A0101414120000007655301R.M. PABUSTAN BUILDERS                                   0502
A1301400210682470535001JINKY C. GATCHALIAN OR                                  10502
A1301400210682470535001GILBERT T. GATCH                                        20500
A1301400500000002063963NICOLAS, JAY JOSEPH GARCIA                               0502
A4101400420814478374029ENCISO, ESTER A.                                         0502
A4101400420000003715724FLAVIANO, PERLITA                                        0501
A0101412340000002900238SANTOS, RUSSELL JOHN TUMAGOY                             0501
A0101412340000010351270ALLAN ROY P. GARCIA                                      0501
A0101412340000003349557KARL D. VIDAL                                            0501
A0101412340000003349659ANGELENE L. VILLARUZ                                     0501
A0101412340000004557717KATHRINA B. BENITEZ                                      0501
A0101412340000005964247KOUASSI, LANDRY MARTIAL                                  0502
B0101404840851021512001STI COLLEGE ALABANG, INC.                                1602
A0101405070000005619354BARRERA, BERNARD PAGUIRIGAN                              0502
B0101405070861008321001FAIR SHIPPING CORPORATION                                1604
B0101405070861008408001CLINICOMED                                               1605
A0101405070861197518001RICARDO G. CHAN OR                                      10505
A0101405070861197518001OLIMPIA C. CHAN                                         20500
