B0101406620000000015209SUNPRIME FINANCE INC.                                    1610
A0101406620000000044033EVELYN FERNANDEZ                                         0502
A0101402060351217444026RAMOS, MARIA VICTORIA E.                                 0501
B0101402930381008881001CENTURY CANNING CORPORATION                              1601
B0101402930381022284001INVESTORS ASSURANCE CORPORATION                          1602
B0101402930381041626001LUBEMASTER INC                                           1601
A0101402930381706358001QUIEC, GEOFFREY T.   OR                                 10501
A0101402930381706358001QUIEC, EMELENE C                                        20500
B2401400180411057100001L.H.E. CONSTRUCTION & INDUSTRIAL                        11604
B2401400180411057100001SERVICES, INC.                                          21600
A0901400220432705236001432-001523-1                                             0502
A0101410300000002375777******                                                   0502
A0101400860000002333591******                                                   0503
A0101400860000005312992**********                                               0505
A0101400860011784104001**********                                               0503
A0101400150000000807250CHING, CHARLES MALVIN TAN                                0501
B0101400150061018219002SUGAR INDUSTRY FOUNDATION, INC.                          1603
B0101400150061020654001STATION SQUARE EAST COMMERCIAL                          11601
B0101400150061020654001CORPORATION                                             21600
B0101400150061027678002RAKUEN SEIKATSU MANAGEMENT SERVICES                      1603
B0101400150061044906001G-GATEWAY MOBILE PHILIPPINES INC.                        1602
B0101400150000000052702VISMAY INTERNATIONAL CORP. DBU                          11602
B0101400150000000052702GADGETS@EXTREME                                         21600
A0101400150061412381001VILLARUZ, MA. CORAZON A. OR                             10501
A0101400150061412381001VILLARUZ, JOSEPH                                        20500
B0101400150061735126001SOUTH NEGROS BIOPOWER, INC.                              1603
B0101400600071234514001JIMMY CHUA OR LETICIA CHUA OR                           11602
B0101400600071234514001RON FRENSON CHUA                                        21600
A0101405810000001021350*************                                            0501
A0601400100000010683793RONQUILLO, JOY ANGELICA DANGANA                          0501
B0601400100081019724001STINDA PROPERTIES, INC.                                  1601
A0601400100081253179001DE GUZMAN JR., ESMERALDO VILLAN                          0501
A0601400520000002085781RAMIREZ, MICHAEL GABAT                                   0501
A0101410850000000259869***************                                          0503
A0101410850000003503591GARCIA, NIKKO PAULO BALUNSAT                             0502
A0101410850000009034640**********                                               0502
A0101410850000000005778*****                                                    0501
A0101410850000000005712MACANAYA, AMELIA DBU NUMBERS                            10501
A0101410850000000005712AND LETTERS LEARNING CTR                                20500
B0101410850000003503751ONE OPTI MARKETING, INC.                                 1604
A0101410850000006559875MARASIGAN, R DBU FIVE RM                                10501
A0101410850000006559875TRUCKING SERVICEs                                       20500
A0101410850000009034760TABANGCURA, ELSIENOR GALAPON                             0501
A0101410560000001944072VALEN, ROSANA RETIG                                      0501
B0101400730000008233436NORTHSTAR TRAINING & CONSULTANCY INC.                    1601
A0101401830141206150002MA. ROSALINDA M. GUAZON OR                              10502
A0101401830141206150002FERNANDA T. MARIANO                                     20500
A0101401830141409771001ALRIC P. BOBO                                            0502
A0101401830000000535682ADOVISO, ENRICO MARTIN FERNANDE                          0502
A0101407270162085922016SPIRO L. CLEMENTE                                        0502
A0101407270162085922018CLEMENTE, SPIRO LU                                       0502
A0101407270162333006037JANNET OROSCO LOCSIN                                     0501
B0101407270162611696004DELOS SANTOS, ANGELICA OR DELOS SANTOS,                 11601
B0101407270162611696004STEVEN                                                  21600
A0101401090171195421001CONRADO T. VALIX                                         0502
A0101401090171407378001DHARMATOV RAHULA B. ALBANO                               0501
B0301400530000003573528RD PAWNSHOP, INC.                                        1605
A0101401380201506366001*************                                            0502
A3101400160000011773814MANALO, RODEL VILLANUEVA AND                            10502
A3101400160000011773814MEDIARITO, RICHARD RUMMEL                               20500
B3101400450223635512001TOTAL QUALITY MANAGEMENT BUSINESS                       11602
B3101400450223635512001VENTURES                                                21600
A3001400130000000668504CUPAY, MERCY FE GANGCA                                   0501
A1001400190000003017789FELIX C. IGCALINOS DBU IFM GENE                         10502
A1001400190000003017789SERVICES                                                20500
A1001400350233526603001BELTRAN, FRANCISCO LOPEZ                                 0501
A1001400480000000133360ALL TRIO TRADING                                         0504
A1901400290000011679033ANGELICA DYANN MAYUGA PENA                               0502
B1901400290261012814001PJ LHUILLIER, INC.                                       1605
A1901400290261244447002LETICIA BAYLON HIPOLITO OR                              10520
A1901400290261244447002ERNESTO B HIPOLITO JR                                   20500
A0101401670271677083001PARUNGAO, ABEGAIL ADONA                                  0501
A0101406460000000182676PUNZALAN, RAMON TIANGCO                                  0501
A0101406460272314180001********                                                 0503
A0101406460272722876001JOSE R LAVARRO                                           0502
B0101406620273009744001NORCONSULT MANAGEMENT SERVICES PHILS.,                  11602
B0101406620273009744001INC.                                                    21600
B0101406620273010537001SOROPTIMIST INTERNATIONAL                               11602
B0101406620273010537001OF MANDALUYONG                                          21600
A0101408660274519407002ZIALCITA, MA. CRISTINA B.    JT                          0504
A0101411820000004981780DAMIAN, CRISTOPHER SANTOS                                0501
A0101400570281186824001ALEX V. BUENAVENTURA                                     0504
A0101411240000002332496LAWAN, CARINA CRISOLOGO                                  0502
B0801400160000006893130**********                                               1601
A66014001203140421880015G GALVEZ CONSTRUCTION                                  10505
A6601400120314042188001AND SUPPLY                                              20500
A6601400120000011286252CUANICO, MARY ANN CASINAS DBU                           10501
A6601400120000011286252GIAN GEN. MERCHANDISE                                   20500
A2001400290315746119002BUHISAN, CAROLINE LU   JT                                0505
A2001400290315788888002***************                                          0502
A0101402350000000046073ERIC OLIVAREZ                                            0502
A0101402350321542967001ABUNDIENTE, JONATHAN GUMBA                               0502
B0101405650322077417001ELEGANT INFOVENTURES, INC.                               1602
A0101405650000005284493LOPEZ, IMELDA MARCOSA LAUDE                              0503
A0101405650322743994001DOMINGO, ANNE REJOYCE OR                                10502
A0101405650322743994001DOMINGO, JOSEFIN                                        20500
B0101402510341021863002SAN BEDA COLLEGE UNION (SBCU)                            1601
A0101402510341069279001NUNEZ, M DBU MAVIC BAKE SHOP                             0501
A0101402510341325995002ALEX T LIM OR ELISA N LIM                               10501
A0101402510341325995002A.E.L. MARKETING                                        20500
A0201400760000004467341SALIMBANGON, KEN ALFONSO                                 0501
B0201400890376013530017RD PAWNSHOP, INC.                                        1610
B0201400890376036147001WGI GAISANO GROUP, INC.                                  1601
B0101402930381008829002AXEIA DEVELOPMENT CORP.                                  1615
B0101402930381008843001BASIC HOUSING SOLUTIONS, INC.                            1605
B0101408370382047182001CRITICAL CARE NURSES ASSOCIATION OF                     11602
B0101408370382047182001THE PHILIPPINES                                         21600
A0101408370382209736001DRS. PAUL JESUS S MONTEMAYOR OR                         10502
A0101408370382209736001MA. NATHALIA N MONTEMAYOR                               20500
A0101408370382392325001DR. JOSEPHINE B. RAMOS                                   0503
A0101408370382403238001DR. EUGENIO EMMANUEL V. REGALA                          10503
A0101408370382403238001OR MARY JANE M.                                         20500
A0101408370382433161001DR. ANTHONY MARC B. ANCHETA OR                          10502
A0101408370382433161001DR. CELINA Z. ANCHETA                                   20500
A0101408790000005251376GAMBOA, ROSELY BUENDIA                                   0502
A0101411660000005324009SEHWANI, JHARNA ARJANDAS OR                             10501
A0101411660000005324009SEHWANI, RAVIN A                                        20500
A0101411660000005324009SEHWANI, JHARNA ARJANDAS OR                             10501
A0101411660000005324009SEHWANI, RAVIN A                                        20500
A0101415350000005308430GABINETE, MARIE SUZZETTE ZAPA                            0501
A0101415350000006212948ESTEBAN, ELMER ANGELES                                   0502
A0101402770000000360650AGUIRRE, LORY OR AGUIRRE, NOEL                          10502
A0101402770000000360650DBU FIRST LINE TRADING                                  20500
A0101402770000000360901VILLANUEVA, JIMMY MACARAEG                               0501
A0101402770391541324001JUANA Q. MUNCADA                                         0501
B0101409210000005252222ONG,DOROTHY OR CHUA,DORIS OR SEN,DAHLIA                 11603
B0101409210000005252222OR LEDESMA,DIANE                                        21600
B0101412210399067414001STRUCTUREFLEX BUILDERS INC.                              1601
A0301400820409094648001LADAGA, SHERRYL E. OR LADAGA,                           10502
A0301400820409094648001JOSEPH FRANKLYN                                         20500
A2401400180000007031541JUVINREY TRADERS                                         0501
B0101403030000005944841**********                                               1605
A0101403320471398696002BAETIONG, MA. REBECCA A.                                 0501
A0101406330000000162616LAND OF THE PROMISE TRUCKING                            10505
A0101406330000000162616SERVICES                                                20500
A0101406330472462469001YVONNE ALCANTARA OR DANILO                              10501
A0101406330472462469001ALCANTARA OR KRISTIN                                    20500
B0501400170481025398002COSTSAVER'S SUPERMARKET, INC.                            1603
A3801400170000002302772MARISA A. FELIPE OR                                     10502
A3801400170000002302772FROILAN B. FELIP                                        20500
A1901400160491343996001MARIA DOROTHY M HERNANDEZ                                0502
A1401400110000003025214BLUE HIGH POINT TRADING                                  0505
B0701400260000000671083CACERES CABLE TV CORPORATION                             1605
A0101407430000002298304JOSE ELIGIO TEODORO J. OCAMPO                            0508
B0101407430503030067002PRODATANET INCORPORATION                                 1605
A0101407430000001028773ELAINE S. CANLAS                                         0501
A0101407430000001028795RAMIL S. SALICSIC                                        0501
A0101403580511156599042EDELMIRA Z. ALAMBRA                                      0502
B0101405940512041188001PREMIUM WINE EXCHANGE INC.                               1601
A0101403450000000009889VIRGILIO M PERALTA                                       0501
B0101403450521011758001POLYMER CHEMICALS, INC.                                  1601
B0101403450521011759001EM-POL CORPORATION                                       1601
B0101403450521013451001**********                                               1605
A0101403610000011776482VALLO, JERCENEAL NAVARRO                                 0501
B0101403610000001450931PERFECT SIGHT ADVERTISING & TRADING CORP                 1605
B0101403610531518484001A1 STEELFORMER CORP.                                     1602
A2201400250000003558190EDWIN S. ESPIRITU OR ANNA                               10501
A2201400250000003558190JESSICA S. ESPIRITU                                     20500
A2201400250561254811001BABY GRACE G. PALMA                                      0504
A2201400250561309166001LENILIZA TANAMAL BUEN                                    0502
A2201400250561339917001FELICIDAD MIRANDA SANTOS                                 0501
A2201400250000001545513RIVERA, RONNIE FERNANDEZ                                 0502
A0101410690000005383393GESTOPA, ISMAEL TABLIGAN                                 0502
A0101404130601354508001LOLITA M. HODREAL OR                                    10505
A0101404130601354508001JOSEPH M. HODREA                                        20500
B0101407720000000713160GREEN BEAN ORGANIC COFFEE CORP.                          1605
A0101404260000007498324LICAROS, NENITA RAMOS                                    0503
A0101407690000000154750BARANGAN, ROMEO DBU                                     10505
A0101407690000000154750BARANGAN TRADING                                        20500
A0101407690652452375001PALAD, MA. JESUSA FELICIANO                              0502
A0101413440000010659282MENDOZA, JERICO ISLA                                     0501
A0101413570000011120371SUAREZ, NORA                                             0502
A0101414120000001984256MARTINEZ, CONSOLACION APO                                0501
A0101406590662211749002ALONZO, LETICIA TUAZON                                   0501
B0101410300000005331599*****                                                    1601
A1301400210000000983779MALLARI, MARLENE MANANSALA                               0502
A1301400210682510414001VICENTE G CRUZ JR                                        0501
B1301400340000000982043NISHINO LEATHER INDUSTRIES, INC.                         1602
A1301400340683387803001ESGUERRA, DANILO MEDRANO OR                             10504
A1301400340683387803001ESGUERRA, ANGELITA                                      20500
A1301400340683400365001MEDINA, EUGENIO DE SAGUN                                 0502
A1301400500684635536001JOSELYN D SANTOS OR                                     10501
A1301400500684635536001EDGAR D VILLAR J                                        20500
B0101408240711025397005KINGSMEN CORPORATION                                     1605
A0101408240711374194001ELBA S. CRUZ                                             0503
A0101408240000003955431OROBIA, JOSE RAMON INUMERABLE                           10502
A0101408240000003955431JT                                                      20500
A2801400100712278476001UYGONGCO JR., JOSE ROBERTO JT                            0502
A2801400100712401674002DEL ROSARIO, DANILO LARACAS                              0501
B2801400230000001580296DEL ROS AMUSEMENT ENTERPRISES, INC.                      1602
A4101400260812694199001ORTIZ, ELPIDIO RAMOS                                     0503
A4101400420814457337002ORDONEZ, JANE M. OR                                     10501
A4101400420814457337002ORDONEZ, JOSE IBARRA                                    20500
A0101404840000003069889MIRANDA, JACK DBU BESTREAD                              10505
A0101404840000003069889TRADING                                                 20500
A0101406750000004641645FESTEJO, BIANCA JASA DBU BIANCA                         10503
A0101406750000004641645FESTEJO HAIR STA                                        20500
A0101405070000008250220MANUEL, VIC ARANAS                                       0501
A0101405070000010969790LAUREOLA, SUSAN DIZON                                    0502
B0101405070861046894001BUDGET TRAVEL & TOURS, INC.                              1605
A0101405070861478374073ROSARIO V. PARRENO                                       0502
