B0101408240711821100608**********                                               2010
B1001400190231821100608**********                                               2001
A0101413730000000144738**********                                               0502
A0101413150000002299307*******                                                  0502
A0101402930381208975001HAYDEE P PELOBELLO                                       0502
A0101409180000004959704HERNANDEZ, ADITHA ESCALONA                               0501
A0101403320000001646926CLIDORO, GERDIE BARCELON                                 0501
A0101411530000010702660**********                                               0502
B0101401250021044358001PASAY CITY ALLIANCE CHURCH                               1603
A0101401250021698692001ROCELIE M. PALMOS                                        0501
A0101400150000002749648LU, JEFF YU                                              0501
A0101400150000003164069DE VELA, JENIS GARCIA                                    0501
B0101400150061010971001PANANAW NG SINING BAYAN, INC.                            1602
B0101400150061024381001EVERGREEN LOGISTICS PHILS. CORP.                         1610
B0101400150061026823001WESPAC HOLDINGS, INC.                                    1601
A0101400150000000053012ABRAM C. GIDUCOS                                         0501
A0101400150061229814001LEONCIO C. LIM                                           0501
A0101400150061229814002LEONCIO C. LIM                                           0501
A0101400150000000525313PATRICK M. ELLA                                          0502
A0101400150000008307033CORDOVA JR., EBENEZER ADOLFO OR                         10505
A0101400150000008307033CORDOVA, MARIAMEL VIGO                                  20500
B0101400600071233681002**********                                               1606
B0101400600071234158001**********                                               1605
A0601400360083591896001AGARRADO, ARVIN GAUDIA                                   0501
A0601400520000009516747QUIROZ, RICHARD PINEDA                                   0502
B0101414090000007344563BACOLOD ACREDITAR LENDING CORPORATION                    1610
A0101413150000001688617******                                                   0505
A0101412630000004061965SABERON, PAUL RICHARD ABADA                              0502
B0101413310000006144652FUTURISTIC AVIATION AND MARITIME                        11602
B0101413310000006144652ENTERPRISE INC.                                         21600
A0101401830000001139997VIOLAGO, MA. MERCEDES MENDOZA                            0501
A0101401830000008395791LUYA, LORELISA ETHEL RUBICO                              0501
A0101401830141206735001GLORIA C. FRIAS OR ELAYNE ONG                           10501
A0101401830141206735001OR ED RAYMUND C.                                        20500
A7201400170000010822049PAMERON, JANE HAZEL CABASAG                              0503
B0101412920000000276522ENERTHRUST, INCORPORATED                                 1610
A0101407270162342559001FE ANGELITA E. GAMAYA                                    0501
B0101401090171035575001MOSS MANILA EVENTS HOUSE INC.                            1605
A0101401090171195723001LETICIA DEL ROSARIO OR                                  10501
A0101401090171195723001DELFIN DEL ROSARio                                      20500
A0101401090171195723001LETICIA DEL ROSARIO OR                                  10501
A0101401090171195723001DELFIN DEL ROSARIO JR.                                  20500
A0101401090171322573001DR. PORSHIA COMES-NATIVIDAD                              0501
A0101401090171353569001ALETH THERESE L. DACANAY                                 0502
A0301400660000006862651**********                                               0501
B0301400660000006862640EMARCOS BUILDERS AND SUPPLY                              1602
A0301400790000005692173SIMON, DIOSEE GENTILES                                   0501
A0301400790000006269787ONG, RUSSELL RITCHIE BAUTISTA                            0502
A0301400950000010424841LUMBATAN, ALEXIS MALABARBAS                              0501
A0301400950000006080155SANDOVAL, STEPHEN LU                                     0502
B0301400950000009938301LANZONA LAW AND REALTY                                   1601
A0101401380000000682622********                                                 0502
A0101413020000002292731CALIXTO, HEIDI CAMMAYO                                   0501
A0101410720653403612001CABANLIG, LILIAN VALES                                   0501
A0101410720000000967900EFFINGER, JON ERIC                                       0502
A3101400160000012112171MIN, JEONG KEE                                           0501
A3101400870000005565277TAN, RONALD QUING OR TAN,                               10501
A3101400870000005565277ROCHELLE GO                                             20500
A1001400190231380503007DRA. CYNTHIA BACONGA                                    10503
A1001400190231380503007PHILAMCARE DOCTO                                        20500
A1001400350000000017165MEN DBU A&L MARKETING SOLUTIONS                          0501
A0101401670000000237698MATA, CLARISSA SOCORRO URBANES                           0502
B0101406460272015262001*********                                                1603
B0101406460000001231645JUNNA LOGISTICS, INC.                                    1605
A0101406620000003661465PALOMATA, MICHELLE MARAYA                                0502
B0101406620273046998001OAK DRIVE VENTURES, INC.                                 1603
A0101406620273403501001BASA, CATHERINE VIRAY                                    0501
A0101411820000008442728JEMIMAH ADRIELLE DELA ROSA                               0502
A2601400270000007845089MARIE CZABEL S. DY                                       0501
A2601400270000007951177RAYMOND RUEL D. VALLE                                    0501
A2601400270000002312152SONILYN C. LACA                                          0501
A0801400160311478374070GENALYN M. BOTANERO                                      0501
A0101402350000005644715TANGONAN, GERARDO RAQUEPO                                0501
A0101405650322664073001TABIEROS, SATURNINA TACUYAN                              0501
B0101402060351027278001SYBEX ANIMAL HEALTH INC.                                 1601
B0201400760374026692001BUTUAN HJR INTERNATIONAL                                11602
B0201400760374026692001CORPORATION                                             21600
B0201400760000001612824METRO RETAIL STORES GROUP, INC.                          1605
A0201400890000003064833***************                                          0501
A0101402930000000859612LIM, MARY ANN PILAPIL                                    0502
A0101402930000000859656*******                                                  0501
A0101402930000001445381HSU, LAVELYN CARTAGENA                                   0502
A0101408370382205140001DR. PAULA  A. ALONZO OR                                 10502
A0101408370382205140001DR. DANIEL M. ALONZO                                    20500
A0101408370000003775086FUERTE, FATIMA DE GUZMAN                                 0502
A0101408370382455298001BERNICE ELAINE T. ONG M.D. OR                           10505
A0101408370382455298001MELVIN L. ONG                                           20500
A0101408370000000335620GERONIMO, CATHERINE GUARTE                               0501
A0101408370382689103001DINEROS, APRIL JANE DESALISA                             0501
A0101411660000000109311**********                                               0501
A0101402770000007921146QUINTO, DANILO FERNANDEZ OR                             10501
A0101402770000007921146QUINTO, SUSAN SANTOS                                    20500
A0101402770391498109001ONG, EDUARDO HANTIC                                      0501
A0101405490000004353100LOPEZ, MARIA LUZ ONG                                     0501
B0101405490000008380661GOLDENCITY NATURALS PHILS. CORPORAT                      1601
B0101405490392487511001SECURFORMS PRINTING CORP.                                1603
B0101405490392494716001MASTERFLOW INCORPORATED                                  1601
A0101405490000000355673PASCUA, VIOLETA ZACARIAS                                 0501
A0101408400394462068001ABBAS, ANIAH MALOMALO OR                                10501
A0101408400394462068001ABBAS, JOHN-SACA                                        20500
A0101408400394606029001ARIMAO, JUNAIRA PACALUNDO                                0501
A0101408950000009451087HABACON, CRISTINA QUERIMIT OR                           10502
A0101408950000009451087HABACON, GEORGE PAUL T.                                 20500
B0101408950396026318001GLOBAL CITY AUTO SALES, INC.                             1605
B0101408950000004428660DEPARTMENT OF MEDICINE,ST.LUKE'S MEDICAL                11601
B0101408950000004428660CENTER GLOBAL CI                                        21600
A0101408950396726811001GERARD M. MORALES OR REGINA                             10502
A0101408950396726811001ISABEL S. MORALES                                       20500
A0101409180000005326603IBARDELOZA, ANNALYN SIABOC                               0502
A0101409210000007762772MENSALVAS, ROSEBERRY KUA                                 0502
A0101412210000000031443OROSCO, ALBERTO DELA PENA                                0501
A2401400180411023998002ENE MARKETING                                            0502
A1201400150000000034426GARINGARAO, RYAN DUMALAGAN OR                           10504
A1201400150000000034426GARINGARAO, CARM                                        20500
A5101400100000010833957GAW, AIRY LUNA                                           0505
B5101400100000010370895GAW, KELLY LUNA DBU LUCKY C.V.K HAR                      1605
A0101403320000001803145GARGARITA, ROBERT OR GARGARITA                          10501
A0101403320000001803145RICHA SUZETTE                                           20500
B0101403320471009122001ELDRICH FOODS CORPORATION                                1603
B0101403320471022389001PRIME PIZZA INCORPORATED                                 1603
B0101403320471028831001COVENANT CHILDREN, INC.                                  1603
A0101403320471040994002E. LAJERAS BUILDERS AND TRADING                          0501
A0101406330472298552011CARINA F. FALQUERABAO                                    0501
B0101410140000007303682SINAG TALA (ST) MICROLENDING CORPOR                      1603
A0101410140000010760335MEDINA, CHRISTOPHER BRYAN DESTU                          0501
B1401400110492041768001************                                             1603
B1401400110492041768001************                                             1603
B1401400110000003475661QUEEN MARGARETTE HOTEL, INC.                             1605
A1601400170000002333940JERRY U. PALANCA OR                                     10510
A1601400170000002333940KEITH Y. PALANCA                                        20500
A0101407430000011167683ASUGAS, LICEL MANUEL                                     0502
B0101408530516033397001SPRINGER INTERNATIONAL, INC.                             1605
A0101408530516631099001TANGCO, ARTHUR CHUA                                      0501
A0101411790518055764124DIMACULANGAN, LYRA CYRINE LUNA                           0501
A0101411790518094095001MAGCALE, EVANGELINE BORJA                                0502
B0101403450521012171001**********                                               1602
B0101403450521238082001*********                                                1601
A0101403450521240099001**********                                               0501
A0101403450521649009001*************                                            0501
A0101412180603752998001ESPINOSA, CECILIA COSME                                  0501
B0101407690652035567001NEW COMLOGIK BUSINESS SYSTEMS, INC                       1606
A0101411530000007212860**********                                               0502
A0101411530000002260362MIRANDA, ALBERT MAMERTO MEDINA                          10501
A0101411530000002260362OR MIRANDA, MAY                                         20500
A0101413570656057648181MUSLIM, ALIMODING                                        0501
A0101413990000006768638***                                                      0502
A0101413990657478374003MONTON, NAPOLEON ANGAY                                   0501
A0101414120000002879743DE GUZMAN, JENNY MERLIE APOLINA                          0501
A1301400340683249082002RICARDO HERMOSO II OR                                   10501
A1301400340683249082002AGRIPINA HERMOSO                                        20500
A1301400340683528422001MILAOR, SUSANA SAN PABLO                                 0502
A1301400340683788020001FUENTES, RICHARD MARIANO                                 0503
A1701400230000005694102SALAZAR, EDWIN ENRIQUEZ                                  0505
A0101408240000006599946GULINAO, ISAGANI BAUTISTA                                0501
A0101408240711449000001PECACHE, MONICA BAGATSING                                0501
A0101408240711546266001MARASIGAN, GEMMA AGUDO                                   0501
A0101408240711587316001CALLANO, EMELITO VECINA                                  0502
B2801400100000007629276JOBIN-SQM INC.                                           1602
A4101400260812039602001PRICILLAS TRADING                                        0502
B4101400390813560022001FAITH ACHIEVE PLASTICS CORP.                             1604
A4101400420000009270640ILANO, JENNIFER DAYRIT DBU                              10505
A4101400420000009270640DOUBLE EIGHT AUTO SUPPLY                                20500
A4101400420814478374043ESPINO, GEMMA D.                                         0502
A4101400420814520766064ANDAYA, AURORA A.                                        0501
A4101400550000000900350SANTOSIDAD AUTO SUPPLY                                   0503
A4101400550000001332563GREGORIO, MARLYN GUERRERO                                0501
A0101412340000003422693SHEENA D. MAGSISI                                        0501
A0101412340000009501053GERMAN S. CAPATI OR ANA MARIA                           10501
A0101412340000009501053VICTORIA M. GATCHALIAN                                  20500
A0101404840851478374062VIOLITA V. GIDUCOS                                       0503
A0101404840851478374121MARISSA L. ESPARAGOSA                                    0502
A0101404840000000943317PAGSISIHAN, AMELIA VIRAY                                 0502
A0101404840000000943260AGOSTO, ANALYN HAYAHAY                                   0501
A0101406750000004641929ALBA, BRIAN DBU PRYSM TECHNOLOG                          0501
A0101406750000005666771LONTOK, ARCANGELITA ROMILLA                              0503
A0101406750852463950001MAPOY, MANUEL VIZCONDE                                   0501
A0101405070861037846001GOODNESS & MERCY MOVERS                                 10503
A0101405070861037846001SERVICES                                                20500
A0101405070861372200001ERLINDA M. DE JESUS OR ANTONIO                          10501
A0101405070861372200001GONZALES OR ANA GONZALES                                20500
