B0101404260611821100608**********                                               2004
A0101409890000006812939SOLEWIND BUILDERS                                        0501
A3001400130000008916149DUAY, MARLOWE T. OR DUAY, WILDE                         10502
A3001400130000008916149LIZA T.                                                 20500
A0101402930381758467001PATRICIA GENEVIEVE V. TABIA AND                         10501
A0101402930381758467001GABRIEL O. TABIA                                        20500
A0101408370000006446273RODRIGUEZ, BELINDA CRUZ                                  0501
A0101408370382070779001DR. ANDRES R. LIPANA,JR.                                 0502
A0101408370382205897001CHARMAINE L. ROQUE                                       0502
A0101412890000003508198PETRONIO, LEMUEL G                                      10502
A0101412890000003508198OR PETRONIO, FAITH M                                    20500
A0101411790000006543342CHANDRA, FERDINAND                                       0502
A0101412180000000037910********                                                 0501
B0101409890649821100608**********                                               2005
A0101400860000002333568**********                                               0501
B0101400860011376523004**********                                               1602
B0101400860011394544002**********                                               1601
A0101400860011422604001**********                                               0505
A0101400860011552265001**********                                               0502
A0101400860011706509001***************                                          0505
A0101401250000004980532MACOCO, CRISTOPHER MAGBANUA DBU                         10502
A0101401250000004980532CMM ACCOUNTING SERVICES                                 20500
A0101401250000007121400JC DAIS PERFUME REFILLING                               10502
A0101401250000007121400STATION                                                 20500
A0101400150061226702002**********                                               0501
A0101400150061229002001REGINA S. ALCANTARA                                      0501
A0101400150061365573001FERMIN, CORAZON MERCADO                                  0502
A0101400150000004090726CRISTELLE CATES U. REYES                                 0501
A0101400150061738224002NUBLA, MELVIN SIXTO OR                                  10501
A0101400150061738224002NUBLA, KAREN                                            20500
A0101405810072696577001CHAN, MERCELYN TAN                                       0501
A0601400100000002365335TAYAG, MICHAEL SALUNGA                                   0501
A0601400100081360442001DE JESUS, NODY BONIFACIO OR                             10503
A0601400100081360442001DE JESUS, NANETT                                        20500
B0601400360083037368002CLARK INVESTORS AND LOCATORS ASSOCIATION                11601
B0601400360083037368002(CILA)                                                  21600
A0601400360000000225163VALDEZ, CHRISTIAN PAULO BENITEZ                         10501
A0601400360000000225163VALDEZ, MAY BENITEZ                                     20500
A0601400520000005943360GUIAO, JOEL MANABAT OR GUIAO,                           10502
A0601400520000005943360LOTIS DATU                                              20500
B0101413730000002229734****                                                     1601
A0101414090108067349001ORALDENT DENTAL CENTER                                   0501
A0101410560000002316581**********                                               0502
A0101410560000005836148FLORDELIZ N. MONTERAS DBU AGUA                          10501
A0101410560000005836148BENDITA WATER STATION                                   20500
B01014007301110195730012GO GROUP, INC.                                          1620
B0101400730000001242682TOULOUSE FOOD SERVICES INC.                              1605
A0101400730111423961001ROCES, RAFAEL VILLAREAL                                  0502
A0101401960121445141002***************                                          0501
B0101412630132821100608**********                                               2005
A0101413310000001073654********                                                 0502
B0101401830000000033638CARITAS SALVE CREDIT COOPERATIVE                        11604
B0101401830000000033638(MANDALUYONG)008                                        21600
B0101401830000000060040CALVO, DBU TRANSORIENT CONTAINER TE                      1601
A0101401830000003508621TRIA, MANUEL ARBOLEDA OR                                10504
A0101401830000003508621TRIA, MA. CECILIA ZAPANTA                               20500
A7201400170152060879001RENDON, EDNALYN BACAY DBU                               10502
A7201400170152060879001FRIENDLY MOTORS                                         20500
B7201400170152067937001PAGADIAN JUNIOR COLLEGE (PJC), INC.                      1601
A0101412920000008813601DELA CRUZ, EDISON GELITO BALAIS                         10501
A0101412920000008813601OR CASTILLO, ALBERTO B                                  20500
A0101412920000005354478CULASI, ANTONIO CENAS                                    0501
A0101400440161525001183JUANITO P. LUSTERIO                                      0501
A0101407270000000511646JENNIFER M. YAP                                          0503
B0101407270162046726001VALUE CARE HEALTH SYSTEMS, INC.                          1650
B0101407270162046726001VALUE CARE HEALTH SYSTEMS, INC.                          1650
A0101407270162582558001CHENG, EDMUNDO VICTOR ENCISO                             0501
A0101401090000000772236CERTEZA, JOHN CENIDOZA                                   0501
B0101401090171007908001PERPETUAL SUCCOR HOSPITAL &                             11606
B0101401090171007908001MATERNITY, INC.                                         21600
A0301400530193736529088VASQUEZ, BERNIE M OR                                    10505
A0301400530193736529088VASQUEZ, JENI RO                                        20500
B0301400660194014152088*****                                                    1604
B0301400660000003362052DAVAO DYNAMIC INDUSTRIES CORPORATION                     1601
A0101401380201179799001ELEONORA NAGUIAT                                         0502
A0101410720000000234962PILAPIL, RHYAN CARLOS PAGTALUNA                          0501
B0101410720000000968112TAN, R DBU BAGONG PAG-ASA BAKERY &                      11601
B0101410720000000968112GROCERY                                                 21600
A0101410720653478374002ZENAIDA O. CARLOS                                        0501
A0101412500000000740021LIM, AMOS CHIN SE OR LIM,                               10501
A0101412500000000740021JENNIFER LEE                                            20500
A3101400160000000429043MARICAR G MEJIA OR                                      10501
A3101400160000000429043DAVID OLIVER T MEJIA                                    20500
A3001400130230767566026URAG, EDECIO CUDERA                                      0501
B1001400190231043368001SML VENTURES                                             1601
B1001400190231300482001ORO SOLID HARDWARE, INCORPORATED                         1603
A1001400190231520766051NANCIE DAAYATA                                           0501
A1001400350233298395001THERESE B. LUMICAO OR                                   10502
A1001400350233298395001CARMENCITA O. BO                                        20500
A1001400350233526764001LUMICAO, NESTOR OR LUMICAO,                             10502
A1001400350233526764001THERESE                                                 20500
A1301400470000003270471MARIA CELINA DJ. SIMON                                   0501
A1301400470000000009970AIMEE C. VENTANILLA OR                                  10501
A1301400470000000009970SOLITA P. CHUA                                          20500
A0101408660274365658001YAO, YAN LUN                 JT                          0501
A0101400570000003891550ABELLA, JENEFE BIRAO                                     0503
A0101400570281186611001EMERITA R. DOMINGO                                       0501
A0101411240000002332496LAWAN, CARINA CRISOLOGO                                  0502
A0501400200000008945593CAYABYAB, ELVIE BAUTISTA                                 0502
A0501400200292592613001IMPELIDO, RACHELLE MAGLINTE                              0501
A0801400160000002287590**********                                               0502
A2001400290315055993001K. ELMAN CONSTRUCTION                                    0501
A0101402350321179570001EPHRAIM NEAL C. ORTEZA OR                               10501
A0101402350321179570001IMELDA L. OLIVAREZ-ORTEZA                               20500
A0101402510341386137001*****                                                    0503
A0101402060351211701004MA. DOLORES DANNUG                                       0503
A0101402930000000859601SALAGAN, KATRINA TAMAYO                                  0501
B0101402930381009079001THE AMERICAN EYE CORRECTION                             11610
B0101402930381009079001CENTER INC.                                             21600
A0101408370000010341721SCHEIRMAN JR., WILLIAM RUSSELL                          10502
A0101408370000010341721MENDOZA                                                 20500
A0101415350000007878031IBANEZ, KIM EZETH SUMAYA                                 0501
A0101415350000007043810CHEN, TENNYSON G. OR                                    10501
A0101415350000007043810CHEN, MARIA THERESA A.                                  20500
A0101402770000000023703DOMINGUEZ, MA. CARIZA MONTEJO                            0501
A0101405490000003178432MIRIAM D. PANO OR MELANIO B.                            10502
A0101405490000003178432PANO JR.                                                20500
B0101405490000008380621BMS JANITORIAL AND ALLIED SERVICES                       1603
A0101405490392510652001ENCARNACION M. GOLDING                                   0502
B0101408400394027710002PATEROS-FORT BONIFACIO TRANSPORT SERVICE                11602
B0101408400394027710002COOPERATIVE                                             21600
B0101408950396026318001GLOBAL CITY AUTO SALES, INC.                             1604
B0101408950000000036780BRITISH BESPOKE AUTOMOBILES, INC.                        1602
A0101409180000003780205SALARDA, JULIUS                                          0502
A0101409180000003780283LABAGUIS, MICAELA                                        0502
A0101409180000005326603IBARDELOZA, ANNALYN SIABOC                               0504
A0101409180397633993001MANALO, JESULITO ANIT                                    0505
A0101409210000010895511ANGELES, FRANCIS VITUG                                   0501
B5501400120410044488008**********                                               1605
B1201400150000000034380THE LORD IS MY SHEPHERD CHRISTIAN MINIST                11601
B1201400150000000034380RIES BAGUIO CITY                                        21600
B0901400220000006214295**********                                               1602
A5101400100000010833957GAW, AIRY LUNA                                           0504
A0101403030441239063001**********                                               0503
A0101403320000011146324PABLO M. FLORES JR.                                      0501
A0101406330000000683352PETIL, GASPAR WACAL                                      0501
A0101410140000001940110BARRIOS, MARISSA ACHACOSO                                0501
A1901400160000011148724JUSTO, GONDALINA LIMENDOG                                0501
B1901400160000000007467FIRST UNITED 23, INC.                                    1610
A1901400160491529463001JAIME M ACLAN                                            0502
A1401400110000007186623DY, DAVE FRANCIS AYCARDO                                 0505
A1601400170000000099172DELAN JOHN M. LLARENA                                    0501
B0101411400000004555802BOP INTERNATIONAL COMPANY, INC.                          1602
B0101403450521027036001**********                                               1601
B0101403450521030931001***********                                              1602
A0101404130000006275943SILVA, MICHELLE MESTIOLA                                 0501
B0101404130000003105762PACIFIC VALIANT, INC.                                    1601
A0101404130601451188001**********                                               0502
A0101407720602283353001ERWIN HERNANDEZ OR                                      10501
A0101407720602283353001AGNES HERNANDEZ                                         20500
A0101407720602382528001MANGUIAT, MARITES TEJADA                                 0503
A0101407720602397470001DR. ELIZABETH IFURUNG-GONZALES                           0501
A0101407720000003099176PENARANDA JR., ELADIO MIGUEL                             0501
A0101407720602496503015DANIEL M. LUCHANGCO                                      0501
B0101407720602531639001*****************                                        1605
A0101412180000001293374CEDILLA, JEANNETTE REGALADO                              0502
B0101404260611031116003FLORA'S TRADING                                          1602
A0101404260611040956001POWER ZONE ELECTRICAL SERVICES                           0501
B0101404260000004781200G1CAFE INC.                                              1602
A0101409920000007952290PASCUAL, RAMIRO S. OR                                   10502
A0101409920000007952290GIRON, MARIA ELLEN S.                                   20500
A0101407690000000495472NAGERA, MARY CATHERINE                                   0502
A0101407690652034806001BROWNFLY COMMERCIAL                                      0506
A0101407690000000587800*****                                                    0501
A0101411530000006217574MOMMY & ME ENTERPRISES                                   0503
A0101413570000004353902NADAL, JOSE MILOS ALFONSO LIRA                           0501
A0101413990000001947128MARS STONE SUPPLY                                        0502
A0101414120000000875521GERARDO BALA OR MARIA CONSUELO                          10501
A0101414120000000875521BALA OR DIANA PATRICIA                                  20500
A1301400340683453552002NATIVIDAD, EDUARDO PACHECO                               0502
A1301400340683552624001ENRACA, MA. THERESA GREGORIO                             0502
A1301400340000000980201ROMASANTA, ABEGAIL LLORENTE                              0502
A0101408240000000039683MIRCHANDANI, SHERYL OR LALA                             10501
A0101408240000000039683OR MICHAEL                                              20500
A0101408240711430471002*******                                                  0501
A0101408240711488872002JOSEPH BRYAN P. DAVIDE OR                               10501
A0101408240711488872002FLORA MAY F. DAVIDE                                     20500
A2801400100712253346001CHERYLL P. PERALTA                                       0502
A4101400260000003679943TAN, ANGELINA                                            0501
A4101400260000006043352IBANEZ, IMELDA ARENAS                                    0501
B4101400390813016813001GENERAL CHEMICALS & RESINS                              11601
B4101400390813016813001CONSORTIUM                                              21600
B4101400420814047949001SOUTHWOODS SCHOOL OF CAVITE, INC.                        1602
A4101400420814520766139VILLAMAYOR, MINA                                         0501
A4101400420814572265007JAILANE J. CALILAP                                       0501
A4101400550000007583733SERVELINE MERCHANT                                       0501
A0101412340000000224024AURELIO, RACHEL GRACILLA                                 0501
B0101412340000005964065CM2 CONSTRUX, INC.                                       1601
B0101404840000003069641GAZ DE BAY INC                                           1605
A0101404840851478374002VIOLETA Z. PANZO                                         0501
A0101404840851520766099EDLYN BRUNO                                              0501
A0101406750000006303657ARANAS, NOEL SEBASTIAN BAUTISTA                          0501
A0101406750000001491823VILLA-CUTAMORA, SHERRILYN DBU                           10502
A0101406750000001491823DENTAL HAVEN REH                                        20500
A0101406750852637927001VILLA-CUTAMORA, SHERRILYN D.                             0502
A0101405070000000741508RAGAS, REDEEM MONGADO OR                                10501
A0101405070000000741508RAGAS, NILA S.                                          20500
A0601400230000006243089**********                                               0501
B0601400230000003644853ALL 'BOUT PEOPLE SERVICES & TRADING                      1602
