B1401400110492821100608**********                                               2003
B0301400790000003969240D-JAS GENERAL MANPOWER SERVICES, INC.                    1601
A0301400790000001776138ESCAMIS, JOSE PACLAR DBU                                10502
A0301400790000001776138ESCAMIS BUILDERS                                        20500
B1301400760000000050773GG&G DISTRIBUTORS INC.                                   1610
A0101410300000000919546PANGILINAN, MA. CECILIA CRUZ                             0501
B0101400860011305536001**********                                               1601
A0101400860011416442001**********                                               0505
A0101400860011462040002**********                                               0501
A0101401250000007121360BAGALACSA, LYLE ARON CASA                                0501
A0101400150000003162752MARVIN V. BERNARDEZ                                      0501
A0101400150000006619612MENDOZA, ENRICO LUBATON                                  0501
B0101400150061039643001J.M.PIZARRAS AND ASSOCIATES LAW OFFICE                   1605
A0101400150061039917006TANEGA, CARLOS F.                                        0501
B0101400150061043190001NORTHERN STAR ENERGY & FUEL DISTRIBUTION                11605
B0101400150061043190001CORPORATION                                             21600
B0601400100000000142214SIMON AND STANDLEY INTERNATIONAL TRADING                11605
B0601400100000000142214& DEVT CO, INC.                                         21600
B0101410850000001229885LOPEZ, C DBU RCBL TRADING                                1602
A0101410850000006559900TAN, O DBU OGC TRUCKING                                  0503
B0101410560110821200608**********                                               2001
A0101401960121238667001MARCELO PASCUAL OR                                      10505
A0101401960121238667001MERCEDES PASCUAL                                        20500
B0101401830141033573001MAHARLIKA GENERAL MERCHANDISING                          1605
A7201400170000003774436MAATA, JANIETH SARMIENTO OR                             10501
A7201400170000003774436MAATA, JEFFRY PANSIB                                    20500
A5001400170000000213750RATUNIL, JULIETA OR RATUNIL,                            10502
A5001400170000000213750BYRON, OR RATUNIL, CARMEL                               20500
A0101400440000000821425LUZ L. LARIOZA                                           0501
A0101400440000008201232L. GALVEZ CONSTRUCTION                                   0503
A0101400440000001439932CRUZ, SHIRLEY SARI                                       0501
A0101400440161572623001RASIEL S. LATORRE                                        0501
A0101407270162351252001WILFREDO C. CUEVAS                                       0502
A0101401090171201876001SANDRA NAVARRA OR                                       10540
A0101401090171201876001SALVADOR NAVARRA                                        20500
B0301400790000002301342MONTEVERDE II, GEORGE MENDEZ DBU GV & HH                11601
B0301400790000002301342MARKETING                                               21600
A0101401380000000414446ARAGON, VICENTE ESLLER                                   0501
A3101400160000004952632PUMA, MA REINA CRISTINA NUGUIT                           0501
A3101400160221611111001AILEEN A. SOSMENA                                        0501
A3101400450223588221003GATDULA, JAMAILA AGONCILLO OR                           10501
A3101400450223588221003MADERAZO, CRISTINA                                      20500
A1001400190000002266662MARY JOY S. MASTAIL                                      0501
B1001400480000004097103TIU, LEMUEL YAP DBU LERETTE TRUCKING                    11601
B1001400480000004097103SERVICES                                                21600
A1901400290261250069001DRA. JABES BUCE CARRASCOSO                               0505
A1901400290261298552013LEONILA QUESADA GUEVARRA                                 0501
A1901400290261298552066DOLORES SARMIENTO MANGUIAT                               0501
A1901400290261298552105AIDA NABOS REYES                                         0501
B0101406620273033463001ARL BUSINESS CONSULTANCY, INC.                           1602
A0101406620273236978001CALLEJA, HOWARD MACEDA                                   0503
A0101406620273306796025MYLENE J. BICO                                           0502
A0101406620273458914001**********                                               0501
B0101408660274046032001INTERNATIONAL SPECIALTY WEAR, INC.                       1603
A0101400570281188125001LUISITO O. LLIDO, M.D.                                   0502
A6601400120314040857002MEDLINE DRUG & MEDICAL SUPPLY                            0501
A6601400120314041602001LEXTAN GENERAL MERCHANDISE                               0502
A0101402350321323061001ANGELA A. FERRER                                         0501
A0101402350321526808001LUCITA R. TARRAY                                         0502
A0101405650000000525773PANGANDAMAN, SITIENAIDAH                                10502
A0101405650000000525773H.CAMID                                                 20500
B0101405650322543721001OMNIBILT CONSTRUCTION AND MAINTENANCE                   11602
B0101405650322543721001INC.                                                    21600
A0101405650000006893265DOLOR, FLORIDA MATULOY                                   0501
B0101409050352031646001DELTA EARTHMOVING, INC.                                  1610
B0201400760000000222762UY, JOHN CHIU OR JOHN JEFFERSON                          1603
B0201400920375039538001FAST AUTOWORLD PHILIPPINES                              11603
B0201400920375039538001CORPORATION                                             21600
B0201400920375063920001TABOK ALLIED WORKERS COOPERATIVE                         1601
A0101408370000005220073SAUZ, ELKE MARIE ASIADO                                  0502
A0101411660000000595320*****                                                    0501
A01014084000000018553813BSA BUILDERS                                            0503
A0101408400394417530001BRANA, NELSON MASILANG                                   0504
A0101408400394498092001ABIERA, MA. EDNA DIONGLAY                                0501
A0101408950000003983499VILLARUZ III, NICOLAS JUELE                              0501
A0101408950396574308001DR. VERNILO E. LIBAGO                                    0504
B0101409180000000036655WINGSTOP PHILIPPINES INC                                 1610
A0101409210000008707819RABANG, DANNA NICOLE BRIONES                             0501
A0101409210398689832001SALUD JR., LEODEGARIO HOCBO                              0501
A0301400820000002106354VILLARAN, LUZ C.                                         0501
B0301400820000007135004AMASOL, PROCESA OR PONCARDAS, RAYNALDO O                11602
B0301400820000007135004R VELILA, VIVIAN                                        21600
A2401400180411038015001GENSAN ULTIMATE AUTO SUPPLY                             10510
A2401400180411038015001& HARDWARE, INC.                                        20500
B2401400180000000019725S&K INDUSTRIAL SALES AND SERVICES,                       1602
A2401400180411344858001CHUA, MAGDALENA SALAZAR                                  0501
B1201400150000005357906COST OF MONEY LENDING CORPORATION                        1605
A0101412890000007095112LINDO, MERCEDES VILLAFANIA                               0501
A0101412890470057311001MENESES, M DBU DAYNNY                                   10502
A0101412890470057311001ENTERPRISES                                             20500
B0101403320471063913001NAZEL ELECTRICAL SUPPLY INC.                             1601
B0101403320471063948001POBLACION BINAN REALTY, INC.                             1601
A0101406330472499861001*****                                                    0501
B0101406330000000432875**********                                               1605
A0101406330000000451249SITYAR, MA. DOLORES SORIANO                              0503
A1401400110492427534002BABILONIA, MELCHOR TEJADA OR                            10501
A1401400110492427534002BABILONIA, BRIGI                                        20500
A1601400170000008692606PERALTA, NINO KRISTOPHER R. AND                         10501
A1601400170000008692606HILARIO, MELISSA ANN H.                                 20500
A0701400260000001232062GOMEZ, TEOFILO CABANTOG                                  0502
B0101403580000000214673MEC - SHANATA                                            1610
B0101403580511020857001ROBROS INCORPORATED                                      1603
A0101403580511420184003MARIA CAROLINA S. MACASAET                               0515
B0101403580511697760002SUNNYBING INTERNATIONAL TRADING                         11603
B0101403580511697760002CORPORATION                                             21600
A0101405940000005068333TIOSECO, DAISY MAE CHUA                                  0502
A0101405940000005068333TIOSECO, DAISY MAE CHUA                                  0502
B0101405940000001800300STAR MOTORS MANUFACTURING INDUSTRIES                    11601
B0101405940000001800300INC.                                                    21600
A0101408110000008308474MASULIT, AMELIA PESIMO                                   0502
A0101408530000003519402DANICA NINA O. IBANEZ                                    0501
A0101408530000005029152RUBY JOY L. CABILLON                                     0502
B0101403450521021842005WALL VISION CORPORATION                                  1605
B0101403450000000889552CENTURY GLASSCENTER INC.                                 1602
B0101404000551700883001PETRUS INVESTORS INC.                                    1601
A0101404000551780881001NAVASERO, HECTOR THOMAS ARNALDO                          0501
A2201400250000003558081RAMOS, RICARDO RAZON DBU                                10505
A2201400250000003558081AMAZING KIDS INTERACTIVE                                20500
A0101407720602382023001VICENTE FRANCISCO R. HIZON OR                           10502
A0101407720602382023001MARIETTA CRISTINA HIZON                                 20500
A0101407720602396331001RAMON I. DIAZ JR. OR                                    10506
A0101407720602396331001CYNTHIA M. DIAZ                                         20500
A0101413570000005867292REMIGIO, IDELSON CLARO DBU                              10501
A0101413570000005867292NORTHEAST ENGINEERING SER                               20500
A0101414120000006864453PABUSTAN, GLENN ROSAURO PASCUAL                          0502
A0101414120000007655265SILVA, ELIZABETH MERCURIO                                0502
A0101414120000000875914NHOEL JR. CONSTRUCTION                                   0502
B0101414120000000399093*****                                                    1604
B0101414120000000399213JOBS ON THE GO SERVICE COOPERATIVE                       1601
A0101410300000000026462SYCIP,JOHN CARLOS/BANTIGUE,JOHN                         10510
A0101410300000000026462PAUL/ESQUIVIAS,J                                        20500
A0101408240711573652001PASILIAO, CAROLINE MAGAT                                 0502
A4101400260000006043170ZAPE, SILVINO DBU SLZ MARKETING                          0502
A4101400260812246527001ISIDRO B. DELA CRUZ JR. OR                              10510
A4101400260812246527001LILIAN H. DELA CRUZ                                     20500
A0101404840000002327915ALBA, HONEYLYNE MABBORANG                                0502
A0101404840000005396778LOJO, LUZ SOLIDUM                                        0503
A0101404840851424338001PAMITTAN, MYRNA M.                                       0503
A0101404840851478374175CHONA S. SOTES                                           0502
A0601400230000002649916SINGLE CENTAVO FINANCING CORPOR                          0505
