B0101408080514821100608**********                                               2050
B0101400150061046605001HONEST PEOPLE ORIENTED LIVELIHOOD M                      1605
A0101400150061189064001VENTURA, JOSEPHINE BANAAG                                0501
A3101400450000001149291BALDOVINO, ISABEL VALDOPENA                              0501
B3101400450223025343001CAPUA ENTERPRISES                                        1601
A3101400450223442002001GARCIA, ROSALINA OR                                     10502
A3101400450223442002001JESUSA CORAZON                                          20500
A1101400120313547700001NICOLASORA, ALMARIE EULOGIA P.                           0506
A0101407720602485188001BASBAS, CRISTIE APURADO                                  0501
B0101406750852033630001NEO-TES CONSTRUCTION SERVICES                            1601
A0101406750852774013001MARK JEROME SAQUING OR MARY ANN                         10502
A0101406750852774013001SAQUING                                                 20500
A0101400860011393233002**********                                               0505
A0101400860011511921001**********                                               0502
A0101400860011656351001**********                                               0502
A0101401250021179040001NORMA LANORIA VALEROSO                                   0503
A0101401250021688004001SENEN O. GOLI                                            0502
A0101400150000008306967PILAR, EXEQUIEL RODRIGO ARREZA                           0502
B0101400150000001708425INTELUCK CORPORATION                                     1602
A0101400150000003141351***************                                          0501
B0101400150061011178002SOLID MILLS, INC.                                        1601
B0101400150061011178002SOLID MILLS, INC.                                        1601
A0101400150061041250001LM INDUSTRIAL TRADING                                    0501
A0101400150061392849001PINGOL, TERESA GARCIA                                    0501
B0101400600071232728001**********                                               1601
A0601400100000006334005MORADA, FLORDELIZA ZABALATE                              0501
B0601400100081037004001J.A.S. PHILTRADE INC.                                    1602
B0601400100081039107001REPLICAS MARITIME & AVIATION MODELS INC.                 1604
A0601400100081064306001GONZALES, EDUARDO ARONCE DBU                            10501
A0601400100081064306001E.A.G. OR GONZALES, GINA                                20500
B0601400100081251905004TAN, WILFREDO                    JT                      1602
B0601400360000003186883GOLD TREE IMPORT AND EXPORT INC.                         1605
A0601400520000005943564FELIPE, DONNA FIDES SOMERA                               0502
B0101401830141008916001PRIMARY ELECTRICAL & ELECTRONIC                         11603
B0101401830141008916001SUPPLY, INC.                                            21600
A0101401830141409771001ALRIC P. BOBO                                            0502
A0101412920000005915631CASTRO, SONNY VALEN ROMERO                               0501
A0101412920000008911320CARANDANG, RUBY ORBE                                     0501
B0101407270162008343001SPECIALIZED TRADE & MARKETING, INC                       1601
A0101407270162333006012ROSEMARY B. CALINA                                       0501
B0101401090171023763001STO. TOMAS COMMUNITY SAVINGS AND CR                      1601
A0101401090171200611001CATALINO OR TRINIDAD SOLIS                               0501
A0101401090171200765001ANNE MARIE ASERON OR JOMAR                              10501
A0101401090171200765001DEXTER ASERON                                           20500
A0101401090171384189002RAMOS, MARIA CRISTINA ROMERO                             0501
A0301400660000002348530BARIO, ELITO SABAS                                       0501
A0301400950000002115151**********                                               0505
A0101410720000000008671ARANAS, PAUL ANTHONY VALENTON                            0502
A0101410720000002283974******                                                   0501
A0101410720000004626380**********                                               0501
B3101400160221010175001MARYMOUNT DEVELOPMENT CORPORATION                        1603
A3101400450223206930002NAPOLEON ENRIQUEZ II OR                                 10501
A3101400450223206930002FLOR ENRIQUEZ                                           20500
A3101400870225478374002BODORAYA, RUZIEL RAMOS                                   0502
A1001400190231273296001GENTILES, URCESIO C.                                     0502
A1001400190231520766108PALUNPON, EPLIDA J.                                      0501
A1301400470000004626886LOIDA FUNERAL HOME                                       0504
A0101401670271298552001EPPIE P. ORTEGA                                          0501
B0101408660274047925001CNT PROMO AND ADS SPECIALISTS, INC.                      1610
A6601400120000002978041OBAYAN, SAMUEL DATO                                      0501
A6601400120000004440782DIAZ, FREDERICK VON GIRAY                                0501
A0101405650322543641001ABELLA, FREDERICO EDUARDO M. OR                         10502
A0101405650322543641001ABELLA, MA.RAZEL                                        20500
B0101402510341020561001PHILIPPINE PHARMACISTS ASSOCIATION                       1602
A0101402510341522392001TIU, CATALINA PURUGGANAN                                 0501
B0101402060351031939001TOYOTA SHAW, INC.                                        1601
A0101402060351426733001HILARIO, SIMONE-MARIE RIVERA                             0502
B0201400920000000047841CREATIVE IMAGE AND INSIGNIA                             11601
B0201400920000000047841CLOTHESLINE INC.                                        21600
A0201400920375524523001MIEL, PRINCESITA OR MIEL, ALEX                           0502
B0201401020000005109940FAMILY TABLE INC.                                        1605
A0101408370382411639001DR. CONSTANTINO CASTILLO III                             0503
A0101408370382597245001DR. NIKKOH P. MUNOZ                                      0501
A0101402770391211308001*********                                                0504
A0101402770391211579002PETRONILO YANGA                                          0502
A0101402770391380845001ANGEL ALLA P. JUAREZ JR. &/OR                           10501
A0101402770391380845001LAURA P. JUAREZ                                         20500
B0101405490000006214211KIDSVILLE CREATIVE SYSTEMS, INC.                         1602
B0101408400000000077872TECH-ASIA INDUSTRIAL ENTERPRISES                        11602
B0101408400000000077872CORP.                                                   21600
A0101409180000002036620GOMEZ, ACE MALAZZAB                                      0501
A0301400820000001185780RUFEROS, ROY KENNETH OR                                 10501
A0301400820000001185780AREVALO, MICHELLE KAY                                   20500
A0301400820000005991702CARISOSA, JERSON L.                                      0501
A0301400820000006542703TAPANG, JULIUS ADRIAN M. OR                             10501
A0301400820000006542703TAPANG, SHER ANGELI N.                                  20500
A0301400820409092553001JOVER, LEILANNIE RODA                                    0501
A5501400120000002949542ZERRUDO, MA. TERESA G. DBU GOLD                          0501
A5501400120410636179158CHIU, VALENTIN AND JULIA EILEEN                         10501
A5501400120410636179158AND CHRISTIAN VA                                        20500
A2401400180000002146287BAUTISTA, WEDELIZA DIOQUINO                              0502
A1201400150000006154963DY, VIRGINIA TAN OR GO, ANITA                           10502
A1201400150000006154963DY OR CASTILLO,MARY ROSE                                20500
A1201400150421252661001JOHN KWAN OR JENNY KWAN                                  0504
A1201400150421294360001MACASAET, MELISSA BAUTISTA                               0503
A1201400150421520473001FLORES, MARY JANE KIMAKIM                                0501
A0101403030441239047001**********                                               0501
A0101412890000001056393GERONIMO, M DBU A.M.-M.A'S                              10502
A0101412890000001056393BAKERY                                                  20500
A0101406330000001235494DELA CRUZ JR., LORETO CRUZ                               0503
A0101406330472027958001A. ANOLIN ENTERPRISES                                    0502
A1901400160000005794927CLEOFE, LOURDES PEREZ                                    0501
A1901400160491249550005ROSENDA P MACALALAD                                      0502
A1401400110000008912294MANDOCDOC, MYRNA MAULEON                                 0501
A0101407430000003193946LOPEZ, JENNIFER N. DBU JLO HIGH                         10501
A0101407430000003193946PERFORMANCE MOTOR SHOP                                  20500
A0101407430503279466001CARINA S. TALEON OR                                     10501
A0101407430503279466001CESAR L. TALEON                                         20500
A0101403580000002265589SALENGA, MARK JOSEPH DE MESA                             0501
A0101408110000008308496CIOCON, OMEGA OCANA                                      0501
A0101408530000002980534DELA PENA, JONATHAN MARCO LAZCA                          0501
A0101408530000007981740GARCIA, LEIGH LAUREN PADILLA                             0501
B0101412050000001499863BORJA & PARTNERS CONSULTING INC                          1601
A0101403450521239776001**********                                               0501
B0101403610000000015972LAGUNA SCIENCE AND TECHNOLOGY                           11601
B0101403610000000015972COLLEGE INC.                                            21600
A0101404000551519402001SEVILLA, JOANNA BETH MANUCOM                             0501
B2201400250561028028001ASSOCIATION OF SUGAR PLANTERS OF CENTRAL                11610
B2201400250561028028001LUZON INC.                                              21600
A2201400250561428151001JOCELYN T. DIAZ                                          0501
A2201400250000001545580MEMBERS OF NATASHA (SHOECAT INC                         10501
A2201400250000001545580GAUDIOSA A. WAGE                                        20500
A0101407720000004665010*********                                                0502
A0101407720602163494001SHERMAN O. VALERO                                        0504
A0101407720602343467001HENSON, GERARD FORES                                     0501
B0101404260000000003750TRESTON INTERNATIONAL COLLEGE, INC.                      1603
B0101404260000000003761TRESTON INTERNATIONAL COLLEGE, INC.                      1603
A0101404260611237122001JOSEPH TALUSAN OR LIZZA TALUSAN                          0501
A0101411530000002260362MIRANDA, ALBERT MAMERTO MEDINA                          10502
A0101411530000002260362OR MIRANDA, MAY                                         20500
A0101413440000002846400STO. DOMINGO, JESSE J. OR                               10502
A0101413440000002846400STO. DOMINGO, MA                                        20500
A0101413990000001406331CERINEO, JESSICA VILLARANTE                              0501
A0101413990657064294001BARREL SMOKER FOODS                                      0501
B0101414120000003584343ONE SKY CONSTRUCTION, INC.                               1610
A0101414120000004603121FLYRYNE TRAVEL AND TOURS                                 0504
A0101406590662207039001HORTENCIA A. BUENAVENTURA OR                            10501
A0101406590662207039001MA. THERESA TAN                                         20500
A0101406590662211749002ALONZO, LETICIA TUAZON                                   0501
A1301400500000002063992JOSHUA & JAMES CONSTRUCTION                              0502
A1701400230000004469701CORPUZ, FLORINA CONDE DBU ST. M                          0502
A0101408240000005740632LIM, ZARAH ZABLAN                                        0501
A0101408240000000521771CASTILLO, JUAN MIGUEL DOMINGO                           10502
A0101408240000000521771JT                                                      20500
A0101408240711469368001CAGANDA, ANTERO JOSE MADARA                             10501
A0101408240711469368001OR JEANZIE LEE                                          20500
A0101408240000003501362RICAFRENTE, MA. ANALYN DELFIN                            0502
A2801400100000006977453JALANDONI, FLORDELIZA STA MARIA                          0501
B2801400100712020330001HOYA MARINE CORPORATION                                  1602
A2801400100712039498002VECTOR PEST CONTROL                                      0502
A4101400260812771450001MAANO, LEA CIANO                                         0501
A4101400420814478374171MICHAEL G. RIBOT                                         0501
A4101400420814520766012SUSAN B. MALBOG                                          0501
A4101400420814520766064ANDAYA, AURORA A.                                        0501
A4101400420000003309015MARICHU E. DE GUZMAN                                     0501
A4101400550000003839167IMELDA F. TAN                                            0501
A4101400550000002091043RAMIREZ, CYNTHIA TAN                                     0505
A0101412340000007305564ELNA O. GALAROZA                                         0502
A0101404840000005396949ESPORLAS, AURA AREVALO                                   0502
A0101406750000004641656PAMARAN, GINA GALANG                                     0501
B0101406750852709702001DAFARM CORPORATION                                       1601
B0101405070861008155001MANDARIN REALTY CORPORATION                              1601
A0101413860000001886980LUMBAY, M DBU MARK LUMBAY PROJE                          0502
A0601400230000006243114CASTILLO, IVY CLAIRE PARUNGAO                            0501
