A0101412890000002324192*************                                            0503
B0101400860011821100608**********                                               2003
A0101412890000006790196SAN PEDRO, JOSE GERRY FLORES                            10501
A0101412890000006790196OR SAN PEDRO, JEAN SY                                   20500
B0101412890000001765426RCCCW CORPORATION                                        1605
A0101412890000004345113RDCU FURNITURES                                          0501
A0101412890000004345022QUADRAGON SECURITY                                       0502
A0101412890000001056360AMIDO, NORMA GUEVARA                                     0501
B0101412890000000007007CREATIVE FILES INC.                                      1606
A0101412890000001765346SILCOCK, P DBU EIGHTZON CLOTHES                          0501
A0101400600071457180001**********                                               0501
B0101412920160061540001HAP CHAN TRADING AND MANAGEMENT CORP                     1601
B3001400130230043534001BERRY HAPPY MART INC.                                    1603
A3001400130230687070138CERVANTES, SONIA BANAWA                                  0501
A1001400350000000017165MEN DBU A&L MARKETING SOLUTIONS                          0501
A0101402060351386924002SY, PRISCILLA PINILI                                     0503
A0101415350000005356878CALIXTRO, CARMELLA CESAR                                 0502
B0101412890000001765277SUMAGANG, CHRISTIAN  AREN TAN                            1602
A0101414120000007044493MARIA IEDA A. ROY                                        0502
A0101414120000000398892A.R.P. TRUCKING                                          0502
B4101400420000006643387LEAD WITH INTEGRITY AND GOOD GOVERNANCE                 11604
B4101400420000006643387IN HELPING COMMU                                        21600
A4101400420814520766097ORIENDO, CECILIA B.                                      0501
A4101400420814520766139VILLAMAYOR, MINA                                         0501
A0101400860011495265001**********                                               0502
A0101401250021309334001NAIDA T. TALIMAN AND                                    10501
A0101401250021309334001S.MA.APOLONIA S. DUMANDAN                               20500
A0101400150000002749579ALVAREZ, RODERICK GIANAN                                 0503
B0101400150061043646001ARRAKIS HOLDINGS, INC.                                   1602
A0101414090000002282657KIM, JONG HO                                             0501
B0101413310133821100608**********                                               2002
B0101401830141019859001NIPPON WARE MANUFACTURING CORPORATION                    1602
B7201400170000003774265ALINAB, WILSON                                           1601
A0101412920000003464873CADA, VERONICA NG                                        0501
B01014129201600584090017RF DELIFOODS ENTERPRISE                                 1601
A0101400440000002035201CRISANTA M. FREO                                         0501
A0101400440161459294001MARY ANN T. REGINALDO                                    0502
A0101400440161478374008MARY FE I. REDONDO                                       0501
A0101407270000004915908LORENZO, TRICIA MARIE SOLANOY                            0501
B0101407270000000010208CLEAVER, INC.                                            1603
A0101407270162333003001HECTOR S. ANASTACIO                                      0502
A0101407270162528842003MIGUEL ROBERTO M. GARCIA                                 0503
A0101401090171195115002ENRIQUE C. CHUA                                          0502
A0101401090171195890001FELICITAS R. FRANCISCO                                   0501
A0101401090171527856001BOMBARDA, MARY GRACE NAVARRO                             0501
A0101401090171556891001CHARLES ISAAC N. DEITA                                   0501
A0301400660000000194843MADJUS, ROLITO NANTIN                                    0502
A0301400660000002348541ERVY LOGISTICS                                           0505
A0101401380201599894001CHUA, WILLIAM SOL CRUZ                                   0502
A0101413020000002292782TAN, JOSELINDA CASTILLO                                  0501
A0101412500000003290008NINO, ORLSON WELLES FABRUADA                             0501
A3101400870000000957893AVILA, KARMELA CESISTA                                   0501
A1001400190231379465001YBANEZ, CHRISTINA Q.                                     0501
A1001400350233528399003KO, JOSE NELSON AND                                     10502
A1001400350233528399003KO, CHARMAINE                                           20500
A1901400290000000135060ALELI GUTIERREZ PERCE OR                                10502
A1901400290000000135060FLORENCIO D PERCE                                       20500
A1901400290000003252855ELSA VILLAPANDO KASILAG                                  0502
B1901400290261012814001PJ LHUILLIER, INC.                                       1605
B1901400290261027293001LIPA MEDICS INC.                                         1610
B1901400290261029733001PAWNCARE SERVICES INC.                                   1605
A1901400290261038827001RED ROOSTER POULTRY SUPPLIES                             0502
A1901400290261244422001MERCEDES MERCADO HIRANG                                 10501
A1901400290261244422001OR PABLO LASIN HIRANG                                   20500
A1901400290261246101002MADGELINA A DE VILLA OR                                 10502
A1901400290261246101002GERARDO MARIO N DE VILLA                                20500
A1901400290261390520001JOEL PUNZALAN DIMAANO                                    0502
A1901400290261530724001ALICIA B VILLALOBOS OR                                  10510
A1901400290261530724001MARK I VILLALOBOS                                       20500
A1901400290261709396001GRACE AGUILA RAMIREZ                                     0501
A0101406460000002330712QUE, JONATHAN TIYU                                       0501
B0101406460272007511001STERLING GIFTS INC.                                      1605
B0101406460272020749001EASTGATE COMPUTER CORPORATION                            1601
A0101406620000000962232MANIMTIM, NELL MORALES                                   0502
A0101406620000002009187KIM, SEONG EUN                                           0501
A0101400570281076947001JOSE C. GLORIA                                           0502
A0101400570281296123001BANARES, MYRNA N. OR                                    10502
A0101400570281296123001BANARES, LEOPOLDO II J.                                 20500
A0101400570281442779001DR. SANDEE G. GO                                         0501
A0101411240000001563402ORTIZ, CARLO A.                                          0501
A0801400160311458267001LIM, FERNANDO TAN                                        0501
A1101400120313478374032CHAVERO, BERNARDITA V.                                   0501
B1101400120313544308001**********                                               1610
A3401400280000000784607SANGRENES, MICHAEL DILE                                  0502
B0101402350321006894003VITALEZ COMPOUND HOMEOWNERS ASSOCIATION                 11601
B0101402350321006894003INC.                                                    21600
A0101402350321406560001DELA CRUZ, AMYLYNE B.                                    0503
A0101402350321670157001CORPUZ, ANABEL S.                                        0501
B0101402510341021863002SAN BEDA COLLEGE UNION (SBCU)                            1601
A0101402510341325995001ALEX TAN LIM                                             0501
A0101409050000000999619TUMAGAY, ELAINE SUMULONG                                 0501
B0101409050352009377001ESLA LAND DEVELOPERS, INC.                               1603
A0201400760000000989648RAMOS, JULIUS CAESAR NOEL                                0501
B0201400760374249471002COMMONWEALTH INSURANCE COMPANY                          11602
B0201400760374249471002-OPERATING FUND                                         21600
A0201400920000002249998GALANG, LORLIE PACURIBOT OR                             10501
A0201400920000002249998GLENN ANTHONY GALANG                                    20500
B0201400890000002027903GLOBAL REV GEN PTY LTD                                   1601
A0201400890376633154001JIMENEZ, PETER OR JIMENEZ,MARIA                         10503
A0201400890376633154001THEREZA OR ALAZA                                        20500
A0101408370382397942001DR. JULIETA S. MAHUSAY OR                               10505
A0101408370382397942001DR. TEODORO S. MAHUSAY                                  20500
A0101408370382408402001DR. RAUL V. DESTURA OR                                  10505
A0101408370382408402001BABY ASUNCION B.DESTURA                                 20500
A0101415350000006940674EMPLOYEES OF, LENOVO (SINGAPORE                          0501
A0101415350000007043752PARAJAS, ARSENIO P. DBU AAGP EN                          0501
A0101408950000006142707CAPULE, SHARON                                           0502
A0101408950396527606001VERGEL D. GO OR VIRGINIA V. GO                           0501
B0101412210000000031530BREWS AND BLUES, INC.                                    1603
A0301400820000002692055SALAJOG, ALEXANDER DBU AJ                               10501
A0301400820000002692055SALAJOG METAL SCRAP                                     20500
B2401400180411058219001BRIGADA PHARMACY, INC.                                   1610
B0901400220000000012175FLORIVEL M. DE JESUS ACCOUNTING OFFICE                   1602
A0101403030441590302001**********                                               0505
A0101412890000004344967BORROMEO, MARILOU ONG                                    0501
A0101412890000001765802ARANAS, L DBU JADA LUMBER AND                           10504
A0101412890000001765802HARDWARE TRADING                                        20500
A0101403320471467515001IFURUNG, MARVIN MORALES                                  0501
A0101406330000000011752JONAH ROMANO DBU AW ENGINEERING                         10504
A0101406330000000011752SERVICES                                                20500
A0101410140000000499338RUIZ, CRISTINA BALAYAN                                   0501
B0501400170481257491001CARING FOR THE FUTURE FOUNDATION INC                     1604
A16014001700000004210690HARLES P. CLEMENTE III OR                              10501
A1601400170000000421069CHARLES L. CLEME                                        20500
A16014001700000004210690HARLES P. CLEMENTE III OR                              10504
A1601400170000000421069CHARLES L. CLEME                                        20500
A0701400260000000670871**********                                               0501
B0101403580000000922883UXMNL INC.                                               1604
B0101403580000000922930CAM32 INC.                                               1602
A0101403580000005961920PINEDA, BRIAN DBU TWIST OF FATE                         10510
A0101403580000005961920TRADING                                                 20500
A0101403580511153476002THERESITA S. TIU                                         0505
A0101403580511289190002SERAFICO PLACER OR VERNIE BUNO                          10510
A0101403580511289190002OR GREZILDA DENSING                                     20500
A0101403580000005328401PINEDA, KATHERINE TIU                                    0515
A0101403580000005961919PINEDA, KATHERINE TIU                                    0502
A0101403580000005961908PINEDA, BRIAN RAMOS                                      0502
A0101403580000005961891PINEDA, BRIAN RAMOS OR PINEDA,                          10510
A0101403580000005961891KATHERINE TIU                                           20500
A0101403580000002265692TIU, KENNETH LAURENCE SOLDIVILL                          0503
A0101406880000000511026ARMIENDO, EDMALYN JAVIER DBU SH                          0502
A0101406880513791732001VALENZUELA, JULIAN KYLE LIZARES                          0502
A0101408110515386427001DIAZ, MERCEDITA DIONG                                    0501
A0101408530516548003001EUGENE T. TAN                                            0503
A0101408530000000594321JOFFREY G. ROLDAN                                        0504
B0101411400000002639701ELENA E. AMON                                            1604
B0101411790000000005318REM BUILDERS CORPORATION                                 1602
B0101403450521011768002SYSU INT'L. INC                                          1606
B0101403450521011852001CHT CAPITAL RESOURCES INC.                               1602
B0101403450521029023001**********                                               1602
A0101407720602402391001ZARZA-GERON VALERIE RACELA                               0502
B0101412180000003523793MGNP, INC.                                               1606
A0101404260000003498522BATU-AN, ABDULRAHMAN CAMPONG                             0502
A0101409920000001539453PAULINO, RODRIGO SALAZAR                                 0502
A0101413570000005435081NONELON L. ARE                                           0501
B0101413570656061561001TOPLEX ADVERTISING, INC.                                 1602
A0101413990000000726556CHAN, BEVERLY JOANNE SIBBALUCA                           0501
A0101413990000000726512*                                                        0501
A0101413990000000726512GIZA A. CASTRO                                           0501
A0101414120000006864500ANA LIAA MARGARITA A. ROY                                0502
B0101410300000000026428INTERIOR ASIA CONSTRUCTION SUPPLIES &                   11602
B0101410300000000026428SERVICES CORPORA                                        21600
A1301400210000004533602DELA CRUZ, FRANCES RUTH DIONISI                          0501
A1301400500000002063849SOLITA A. BAYAN                                         10504
A1301400500000002063849OR RONALD M. BAYAN                                      20500
A0101408240711432303002PADILLA, BERNADINE BALUYUT                               0501
A0101408240711579997001MARASIGAN, RANDY ALTAREJOS                               0501
A2801400100000002253516ESCOBAR, REBELYN PEREZ                                   0501
A2801400230000002312356VILLAROSA, RODOLFO NAVALES                               0502
A4101400420814478374154CABRERA, FELIZA                                          0502
A4101400420814520766107CADAVEDO, ELENITA P.                                     0501
A4101400420814534123001MAGALLANES, ELADIO PACIA                                 0502
A0101412340000003348770SANTOS, JOAN L.                                          0501
A0101412340000003719099GARCIA, MARIO GIANELICO M.                               0501
A0101404840000005820468GLENSON APPAREL                                          0502
A0101404840851478374175CHONA S. SOTES                                           0502
B0101405070861008408001CLINICOMED                                               1605
B0101405070861022986002SEVEN RED DIAMOND CORPORATION                            1610
A0101405070861197834002DELIM, ROGELIO S. OR                                    10505
A0101405070861197834002DELIM, MILAGROS                                         20500
B0101405070861385408001UY, ROBERT/TAN, EDWIN/MENDOZA, MANUEL/                  11605
B0101405070861385408001LIM, CHARLIE                                            21600
A0601400230000000186823LAZATIN, JANET RITA BAUTISTA                             0503
A0601400230000003015750RICHIE B. PAGCU OR                                      10501
A0601400230000003015750JOSE RICARTE B. PAGCU                                   20500
A0601400230000003015823ALURA, JIMMY SUENO                                      10502
A0601400230000003015823OR ALURA, MERLE                                         20500
