A5501400120000002348325ANG, ANDY MAN CHUNG CHANG                                0505
A5501400120410622095001CORDER, JAIMELITA OR EDWIN                               0503
B0101407720000004959931PERFECT SKIN AND BEAUTY SOLUTIONS INC.                   1610
A0101407720602332798001ARNEL DIAZ OR LOURDES DIAZ                               0502
A0101407720602403595001CARMENCHU MARIE ECHIVERRI OR                            10502
A0101407720602403595001JAY VILLAVICENCIO                                       20500
B0101411820277821100608**********                                               2002
A0101402930381493392001FAVILA, CHERYL VILLARICA OR                             10501
A0101402930381493392001FAVILA, MARIO ANGELO C.                                 20500
B0101411790000007043923CITYLAND FOUNDATION INC                                  1601
A0101404840000004565931PABLO, R DBU UBEE LOGISTICS                              0510
A5501400120410638200001ALAJAR, CELESTINA OR ROLAN OR                           10505
A5501400120410638200001ANNABELLE                                               20500
A1401400110000001096180GARCIA, ALICIA BASCO OR                                 10501
A1401400110000001096180GARCIA, REX ROSALES                                     20500
A1401400110000001549351LAGMAN, CHRISTOPHER ANTHONY OR                          10501
A1401400110000001549351PIAD, MILDRED                                           20500
A0101400860000010683253LAGRIMAS,GINENA O DBU ZED                               10501
A0101400860000010683253ALBERT PRINTING                                         20500
A0101400860000001348658**********                                               0510
B0101400860011305536001**********                                               1601
A0101400860011399497002**********                                               0502
A0101400860011412003001**********                                               0505
A0101411370000005524512URQUICO, ROXANNE SUAZO                                   0502
A0101400150000003162810MARIA SALOME S. BUAN                                     0501
A0101400150000004090333ABALON, JAYSON BALANDAY                                  0501
B0101400150061044999001SDI MEDIA (PHILIPPINES) CORPORATION                      1601
B0101400150000000633505DIGISCRIPT PHILIPPINES INC.                              1605
A0101400150061055752088MARIA CARMEN AGUIRRE                                     0502
A0101400150061192731001SHIRLEY BANGAYAN OR LUCIO RODRI                         10502
A0101400150061192731001GUEZ OR TEOFILO BANGAYAN                                20500
A0101400150061226190001MYRA S. SEVILLA                                          0501
A0101400150000009071421REYES, LORETTA LUMANLAN                                  0501
B0101400600071011304001**********                                               1602
B0101405810072390943001********                                                 1601
B0601400360000000025721ELITECLEAN, INC.                                         1605
B0601400520000001349719MAGTOTO, KELVIN DBU CALULUT CONVENIENCE                 11605
B0601400520000001349719STORE                                                   21600
A0101414090000001652488CALIWANAGAN, MEDWIN CORREA DBU                          10501
A0101414090000001652488CAPE BUILDER'S TRADING &                                20500
B0101400730111008436001PACIFIC PLACE MULTI DEVELOPMENT CORP                     1603
A0101400730111047618004RONALDO BAARDE PRADO                                     0502
A0101400730111429247002SANTOS, CAROL MAE ASIDO OR                              10501
A0101400730111429247002SANTOS, ENRICO                                          20500
A0101400730000000645410ASIS, REDENTOR CONSTANCIO                                0501
A0101401830141206105001ARTHUR G. GAISER OR                                     10502
A0101401830141206105001IRENE A. GAISER                                         20500
A0101401830141582040001EDNA FABREGAS HERNANDEZ                                  0505
A0101412920000003464942LOPEZ, VIVIANE PANAGA                                    0501
B0101400440161007542001PACE REALTY INVESTMENT INCORPORATED                      1601
A0101400440161525001095MARITES T. TAPIADOR                                      0501
B0101407270162051888001SAMAR COCO PRODUCTS MANUFACTURING                       11601
B0101407270162051888001CORPORATION                                             21600
A0101407270162739083005RICHARD A. CHAN                                          0502
A0101401090171195115002ENRIQUE C. CHUA                                          0502
A0301400530000001009943PANTUA, JERSON R.                                        0503
A0301400530000000065967CEPEDA, SHERLY BALILI                                   10505
A0301400530000000065967OR BALILI, MICHELLE                                     20500
A0301400530000001409592DUCAO, CRISTY BALILI OR                                 10505
A0301400530000001409592CEPEDA, SHERLY BALILI                                   20500
A0301400530193082909001BALILI, CELSO J. OR                                     10505
A0301400530193082909001CEPEDA, SHERLY B                                        20500
A0101401380201502664001LEY, RICHARD NOEL CO                                     0501
A0101401380201710619001ALMOGUERRA, ALONA ERATO                                  0502
A0101413020000006295101WU, MARK ANTHONY ONG                                     0502
A0101413020000003055303LAPUEBLA, MARIETA DAYAO DBU MED                          0502
A0101410720000008730785MALIWAT, JETT F. DBU JFM TEXTIL                          0501
B0101410720000000968112TAN, R DBU BAGONG PAG-ASA BAKERY &                      11601
B0101410720000000968112GROCERY                                                 21600
A0101410720000004626379ISHIMURA, LEONIDAS B.                                    0502
A0101410720653733525001SUING, LEONOR PEREZ                                      0502
A0101412500000011898563MILANES, JUAN CARLOS BRIONES                             0501
B0101413600000005524829PRO EMPIRE TRUCK BODY CORP.                              1601
A3101400160221478374019MIRIAM M. MIRABUENO                                      0501
B3101400450223388056002HEIRS OF DR. ANTONIO L. AZORES                           1602
A3101400740000012046518SALDARIEGA, SALDIE ESPINO                                0501
A3101400870000001146521TAYONG, JEFFERSON ARGETE OR                             10501
A3101400870000001146521TAYONG, AIREEN E                                        20500
B3101400870225004262001MEDINA,CATHERINE B. DBU C.B. MEDINA BUIL                11601
B3101400870225004262001DERS AND DESIGNS                                        21600
A3101400870000005410020CONCEPCION, ROEL SACRAMENTO OR                          10501
A3101400870000005410020DE LA ROSA, JOSE                                        20500
A3001400130230767566064BALAHAY, ETHEL OCULARES                                  0501
A1001400350233042653001BLUE ENERGY RESOURCES                                    0504
A1301400470252078703001ERIC E. SERRANO OR                                      10510
A1301400470252078703001DONNABEL A. SERRANO                                     20500
B1301400760000000050871ENCORE LEASING & FINANCE CORP.                           1601
A0101406620000010983141ZAMORA, RUBY JEAN CARRANZA                               0501
A0101406620273519003001GUILAMO, CHRISTIE CASIMSIMAN                             0501
A0101406620273519473001SALUCERAN, MARISOL ENGALAN                               0501
B0101406620273788244001VERDE ENERGY PHILIPPINES INC.                            1602
B0101408660274035400001DAXIE RESTAURANT                                         1601
B0101411820000003085112HARDCOM COMPUTER SYSTEM CO.                              1601
A0101400570000006271843LAURICIO, MARY GRACE SILVA OR                           10501
A0101400570000006271843LAURICIO, PAULO VARGAS                                  20500
A0101400570000006271810DE PEDRO, JAIME GOLEZ                                    0501
A2601400270000000561642ROMINA FRANCESCA C. MOLINA                               0501
A6601400120000002978096HORCA, ROMAR BABIANO                                     0503
A6601400120314668441002MASLOC, SHERRY AMOR GALONO                               0501
B2001400290315044204001ACEBANK CREDIT, INC.                                     1601
A0101402350000005644817H. NOOR, SHAQERA BEL                                     0501
A0101402350000005645132DYL MECHANICAL ENGINEERING                              10502
A0101402350000005645132SERVICES                                                20500
A0101402350321210356001STEVEN W. CHAN                                           0501
A0101402350321503072001GAMBOA, REYNALDO CASTRO                                  0502
A0101402350321503072002GAMBOA SR., REYNALDO OR                                 10502
A0101402350321503072002GAMBOA JR., REYN                                        20500
A0101402510000002105486MELENDEZ JR., ALFREDO BRIMBUELA                          0501
A0101402510341199103002********                                                 0503
A0101402060351217440015CAROLINA PAULA R. CARLOS                                 0503
A0101402060351217441008RENATO R. ERMITA                                         0503
A0101409050000000939351SINGH, JEFFREY BEJASA                                    0503
A0201400920000000047965TOP WASH LAUNDRY SERVICES                                0501
A0201400920375524523001MIEL, PRINCESITA OR MIEL, ALEX                           0502
A0201400890000007401987H.O.U.S.E. TRADING VENTURES                              0502
A0101402930000000623363KING, C DBU EASTERN CIRCLE                              10502
A0101402930000000623363HUMAN RESOUCE SE                                        20500
B0101402930000003269403PETRA CEMENT INC.                                        1601
B0101411660000009219945ADEKAYA 1ST CORP.                                        1602
A0101405490000000126463LORNA V. TUGADE                                          0502
A0101405490392298552043BETTY R. ARENA                                           0502
A0101405490392493712001LUISITO OR JESUSA OR JAMES KIM                          10502
A0101405490392493712001LOUIS HERCE                                             20500
B0101408400000000077912ORDOFOOD ENTERPRISES, INC.                               1601
B0101408400000009874975ORDOFOOD ENTERPRISES, INC.                               1602
A0101408400394523016001AQUINO, IMEE GONZALES                                    0501
A0101408950000012265800GERVACIO, INEZ LEVERIZA                                  0502
B0101408950000008364494GLOBAL CITY CAR LEASE & TRANSPORT CORP.                  1603
A0101408950396431312001TANSENGCO, MARIA LORA GARCIA                             0501
A0101408950000000472946**********************                                   0502
A0101409210000011535390HU, JINGJUAN                                             0501
A0101409210000011535403LI, YIWEI                                                0501
A0101409210000011535414NG HUI JUNG, YVONNE                                      0501
B0101409210000002783413KAPUNAN GARCIA & CASTILLO LAW                           11601
B0101409210000002783413OFFICES                                                 21600
A0101409210000011535425CASTILLO, JOIE OR NG HUI JUNG                           10501
A0101409210000011535425OR LI,YIWEI OR HU,JINGJUA                               20500
A0101412210000001236117FERNANDO, GERALDINE OR                                  10501
A0101412210000001236117FERNANDO, JOSE RODERICK                                 20500
A0101412210000012261766MEDINA, RODNEY GARCES                                    0501
A0301400820000000316670TIONG, ARISTON D.                                        0501
B0301400820000008105553GERONIMO, ALLAN A. AND LADRA, BRENDA A.                  1603
A5501400120000002019056ONG, DANIEL STEVEN DY                                    0502
A5501400120410622095001CORDER, JAIMELITA OR EDWIN                               0503
A2401400180411455559001VENDIX GEN. MERCHANDISE                                  0501
A1201400150421685972001JUCUTAN, HEIDI BONDAD OR                                10502
A1201400150421685972001JUCUTAN, ROMMEL                                         20500
A0901400220000001805129**********                                               0502
A0901400220432478374002EVELYN ALGA DEMECILLO                                    0501
A5101400100000010371110AYCO, ENRIQUE DABIONA                                    0502
A0101403030000005327657*********************                                    0505
A0101403030441594340001**********                                               0501
B0101403320471068309001GAPAN LAND, INC.                                         1603
A0101406330000004349611CORMACK, ROSS ANTHONY STEVENS                            0501
B0101406330472009779001DORADO'S GENERAL CONTRACTOR CORP.                        1605
B3801400170490061924001MORNING STAR PROPERTIES AND DEVELOPMENT                  1603
A1901400160491476162001GINA A PELESMINA                                         0501
A1401400110000010622590CUNANAN, MARIO OCAMPO                                    0501
A1401400110000005526796PALACIO, GERLIE NAVA                                     0502
A1401400110492224475001DIZON, ARLENE L.                                         0504
A1401400110000002286804DIZON, ARLENE L.                                         0504
A1401400110492403388002ENVASE, EDELYN RAMOS                                     0501
A1401400110492502818001OBISPO, ALONA VILLAMAYOR                                 0502
A1601400170000001360805MIQUE, JOEL ORINA                                        0501
A1601400170000011943787ZUNIGA, FELIX OLIVER BARCE                               0501
A1601400170000000421149EVELYN B. DELVO                                          0502
B0101407430503024221001FINE ARTS INTERNATIONAL PHIL., INC.                      1603
A0101407430503478374012ANALIE YPANTO                                            0501
A0101407430000002298315EXCEL A. GRESOS                                          0501
A0101403580000000016082SWEET BELLA DESSERTS                                     0508
B0101405940512007477001SATURN CEMENT MARKETING CORPORATION                      1602
A0101411790000011564082ESTACIO, ANA LIZA DELADIA                                0502
B0101403450000002975702**********                                               1602
A0101403450521238140001**********                                               0502
A2201400250000010425480ROMEO MABUTAS AGLIAM                                     0502
A0101404130000001831681LANDISCHAN, ERIKA HAZEL SANTOS                           0501
B0101404130601022494001CARE BEST INTERNATIONAL, INC.                            1603
B0101404130601039674001RESPACE INC.                                             1602
B0101404130000004437194GAME CRAFT INC.                                          1602
A0101404260611559253001TAN, SABINA LASALA                                       0506
A0101409920000003672097CATANGAY, MANUEL JULARBAL                                0501
A0101409920000001951851MEMBERS OF NATASHA (SHOECAT INC                         10501
A0101409920000001951851ANNALYN E. AMPELOQUIO                                   20500
B0101411530000000013601ROACH INCORPORATED                                       1601
A0101413440000001472942ANAS, MONINA DELA CRUZ                                   0501
A0101413440655004117001MASV TRADING                                             0501
A0101413570000000206351**********                                               0501
A0101413990000001406360AQUINO, ALMA MILAGROS V. DBU                            10502
A0101413990000001406360AQUIVEL PETRON                                          20500
A0101406590662594215001SISON JR., VICTOR OR                                    10501
A0101406590662594215001SISON, MA. ANGELA                                       20500
A1301400210682360990001FERNANDO M. BIGORNIA   OR                               10501
A1301400210682360990001LILIBETH G. BIGO                                        20500
B1301400340000000011941EXCEL WOOD INDUSTRIES, INC.                              1601
B1301400500000005963404PAGASA PHILIPPINES LENDING COMPANY INC.                  1605
A1701400230693710362001CUA, RONALD CU                                           0502
A0101408240000010148153YAP, MILDRED RAVALO                                      0501
A0101408240000012265753WOOLNER, MARY ANN OR                                    10501
A0101408240000012265753WOOLNER, GAVIN JAMES                                    20500
B0101408240711016525002HERMANZ CONSTRUCTION                                     1601
B0101408240711016526002ERICMAR ENTERPRISES, INC.                                1601
B0101408240711033951001MILCOR MANAGEMENT CORPORATION                            1601
B0101408240711036897001EVER THEATRICAL, INC.                                    1601
A0101408240000008160183**********                                               0503
A0101408240711219571001MERCEDES M. OLIVER                                       0502
A0101408240711315945001MANZANO, NORMA YUMUL                                     0501
A0101408240711337534001AVELINA C. CRUZ OR                                      10501
A0101408240711337534001NORMA Y. MANZANO                                        20500
A0101408240711399835001MANZANO, ENRIQUE Y. OR                                  10501
A0101408240711399835001MANZANO, EMMANUEL Y.                                    20500
A0101408240711466241001CALMA, GREGORIO GUNGON                                   0506
A0101408240711469124001MORADA, AGUSTIN F. OR                                   10501
A0101408240711469124001MORADA, ROWENA N.                                       20500
A0101408240000007478239CAMBAY, ALMA CONTRERAS                                   0502
A2801400100000002253549PARAZO, DARLOW BALMORES OR                              10502
A2801400100000002253549PARAZO, RAYDA PALMA                                     20500
A2801400230713045955001LITTLE SCISSORS UNISEX SALON                            10502
A2801400230713045955001(RONNIE B. RUIZ)                                        20500
A4101400260000011418016LOPEZ, FLORENCIO DEMESA                                  0502
A4101400420000000710278DIOSANA, AZALEA DBU AZALEA'S                            10501
A4101400420000000710278FOOD EXPRESS                                            20500
 4101400420000006643387                                                        1  00
A4101400420814478374026FLORENCIA DELA CALZADA                                   0501
A4101400550000001622559PRINCE FERDINAND SHUTTLE                                10501
A4101400550000001622559SERVICE                                                 20500
A0101412340000004359837KRISTIANNE U. CIRINEO                                    0501
A0101412340000007305724RODOLFO D. PAGLICAWAN JR.                                0501
A0101412340000001017930SONIA MEDINA SIBI                                        0502
A0101404840000009616053VENIDA, CHERRY BERMUDEZ                                  0501
A0101404840851046725013MARY JANE A. DE GUIA                                     0501
A0101404840000003069970LORENCITA L. UNO                                         0501
A0101404840851217637084JACQUELINE RAQUEDAN                                      0501
A0101404840851298552056ROSARIO GABAYERON                                        0501
A0101404840851507133001SAMONTANES, ANTONIO CANAYA                               0501
B0101405070861039306001JACINTH TOURS & TRAVEL, INC.                             1605
A0101405070000006006097ALDWIN CANTILLO LOGISTICS                               10502
A0101405070000006006097SERVICES                                                20500
A0101405070861364092001JASON VICTOR G. LACUNA                                   0503
A0101405070861382269001MAIQUEZ, JENNIFER PAMBID                                 0501
A0101405070861478374066ELMER LADRES APAS                                        0501
B0101413860862821100608**********                                               2010
A0601400230000000452839ARCINUE, S DBU SLA ENTERPRISES                           0503
A0601400230000002650171SANTOS, K DBU ADRICH ENTERPRISE                         10501
A0601400230000002650171OR SANTOS, CARMINA                                      20500
A0601400230000000452782GOZUN, R-JAY RAMOS                                      10510
A0601400230000000452782OR GOZUN, MYRNA                                         20500
