A0101408950000004512092BERT DC CHU                                              0502
A0101408950000005325775GO, BENJAMIN ARAGON                                      0502
A0101408950000010111210RHEE, SUNGHWA                                            0510
B0101408950000008364494GLOBAL CITY CAR LEASE & TRANSPORT CORP.                  1602
A0101408950000002255370CHIA, CATHERINE ANNE TEO                                 0503
A0101408950396565613001AGCAOILI, MA. DULCE FLORENCE                             0501
B0101402060000000793922AGUILAR, MICHAEL DBU MCA URBAN FOOD                      1610
B1001400480000000133519KALEB INDUSTRIES, INC.                                   1603
A0101402060000002258831ANGELES, JOSE AMADO RAYMUNDO                            10503
A0101402060000002258831OR ANGELES, LEON                                        20500
A0101405490000006241998PESIMO, NICAR A. DBU LBG CARGO                           0501
A0101400860000000632604**********                                               0502
A0101400860000000632615**********                                               0502
A0101400860011413316001**********                                               0506
A0101400860011491304001**********                                               0510
A0101400860011561560001**********                                               0502
A0101400860011578852001**********                                               0504
A0101400860011617900001**********                                               0504
A0101401250021468980001GENELYN C. CARTON                                        0502
A0101400150061226097001LIM, BELEN OR LIM, TIN CHONG OR                         10502
A0101400150061226097001LIM, CALVIN BERNARD                                     20500
A0101400150061571188001ANTONIO, ANGELYN DALDE                                   0501
A0101400600071233715002********                                                 0505
A0101405810000001021172PUA, C DBU MCK SCHOOL & OFFICE                          10503
A0101405810000001021172SUPPLIES                                                20500
A0601400520000007553519SANTILLANO, DATU MAGBABAYA LARA                          0505
A0101413280000005279609GARCIA, RYAN                                             0501
A0101413280000000312701GUERRERO E. GUZMAN OR VICTORIA                          10501
A0101413280000000312701J. GUZMAN                                               20500
A0101414090000008926996PEYRA, CRISTINA CHAVEZ                                   0501
A0101410850109062884001AVILA, ROLAND DBU RC AVILA                              10501
A0101410850109062884001CONSTRUCTION & ENGINEERIN                               20500
B0101410850109066494001MABOLO M2 TRUCKING & ENTERPRISES CO                      1603
B0101410850109066500001THRAN BULK MOVERS INC.                                   1601
A0101410560000000590545JAMIE C. MOLINA                                          0501
A0101401960121239446001**********                                               0501
A0101413150000003208277******                                                   0501
B0101401830141020262001********                                                 1605
B0101401830000000059972CARITAS SALVE CREDIT COOPERATIVE (NOVA/                 11604
B0101401830000000059972ST.PETER) 010                                           21600
A0101401830141394030003JEFFREY A. SILVA OR                                     10501
A0101401830141394030003OLIVIA G. SILVA                                         20500
A0101412920000000042031DUTERTE, REYNALDO PELIGRO                                0505
A0101412920000003464873CADA, VERONICA NG                                        0501
A0101412920000005354478CULASI, ANTONIO CENAS                                    0502
A0101400440000008201163BERNALES, EDISON ALLIDEM                                 0501
A0101400440161039572023JIMMY S. PALISOC                                         0502
A0101400440000000060200LANIE C. BALISONG                                        0502
A0101400440000000821185CATACUTAN, PRESLYN SAGA                                  0502
A0101400440161506695001RONALDO A. BORJA                                         0502
A0101400440161525001104EVELYN G. GARCIA                                         0501
A0101400440000000821265RUIZ, MARIA LIGAYA REYES                                 0501
A0101401090171201254001NESTOR LINO A. BAGSIT                                    0502
A0301400950000006080155SANDOVAL, STEPHEN LU                                     0501
A0101401380000000792063HAVERIA, ANA MARGARITA                                   0501
A0101401380000001820031SERRANO, JAY JOSEPH C DBU SEVEN                         10502
A0101401380000001820031CONTINENTS TRAVEL & TOURS                               20500
B0101410720000000029850NORDHOFF ENTERPRISES INCORPORATED                        1601
A0101410720653435006001LETICIA NICOL OR CHARLES NICOL                          10501
A0101410720653435006001OR ANA LIZA NICO                                        20500
A0101412500000006708336TAN, JEROME MONTIERO                                     0501
A3101400870000003656360NAPIZA-BENITEZ, MA ETHELWOLDA U                          0501
A3001400130000008264842AGOT, VICENTE ANTEGRA DBU PAMIL                          0510
A3001400130000009103622MEMBERS OF NATASHA, SHOECAT INC                          0501
A3001400130000008264864CACAFRANCA, KARL RUSSEL INOCENC                         10501
A3001400130000008264864IO                                                      20500
A1001400190000002170565CHABON, CLAI DBU SOUTHERNFIELDS                          0502
A1001400190000002266582GAAMIL, JOE ERIC TINONAS DBU                            10501
A1001400190000002266582VICTORY HARDWARE                                        20500
B1001400190000008744123NEOTRINITY CORPORATION                                   1610
A1001400190231478374067DAGANATO, NICANORA BALOS                                 0501
A1001400350000008698800TALANDRON, LILIBETH CATAMCO                              0502
B1001400350000000017154STRONGHOLD INSURANCE CO., INC                            1604
A1001400350233478374001JUNIO, ROGELIA A.                                        0501
A1001400480000003357500SALVACION JR., DIONISIO CAINGLE                          0502
A1301400470252509134001RHONA MELIQUITONES                                       0502
A0101406460000000182596**************                                           0503
A0101406620273038576001VENTURE 11 FOODS EXCHANGE                                0501
A0101406620273226944001CASTRO JR., SALVADOR P. OR                              10503
A0101406620273226944001MA. NORA ZENAIDA                                        20500
A0101411820000001356292AQUINO, AUGUSTO MAURICIO                                 0501
B0101411820000003085141HARDCOM COMPUTER SYSTEM CO.                              1601
A6601400120000003673136DOMINICE, IGMELITA PEDROLA                               0501
B6601400120000003084751THE ROMAN CATHOLIC BISHOP OF CATARMAN-                  11601
B6601400120000003084751DSAC ALAY KAPWA                                         21600
A6601400120000000060795ALCAZAR JR., CESAR GIBA DBU                             10501
A6601400120000000060795INK FOR CARE & SERVICES                                 20500
A6601400120000008490488ARILLO, DINDO CALERA DBU DCA CO                         10502
A6601400120000008490488NSTRUCTION & SUPPLY                                     20500
A0101402350321182462003SALAZAR, ROSALINA R.                                     0502
B0101405650322034238001APLAYA LAIYA CORPORATION                                 1603
A0101402060351009385001JORGE ALOMBRO JR. OR                                    10505
A0101402060351009385001NELIA ALOMBRO                                           20500
A0101409050000003535022JASON ALEXIS JOSE                                        0501
B0201400760374060310001NANAICHI RETAIL STORE                                    1603
A0201400920000002250088LIM, JENNIFER SIADY OR LIM,                             10501
A0201400920000002250088CARLOS                                                  20500
A0101408370382205161001DR. WILLY G. LOPEZ                                       0504
A0101408790383634800001CHERYL B. FAUSTINO                                       0502
A0101415350000005308430GABINETE, MARIE SUZZETTE ZAPA                            0501
B0101402770000001571233LEADER GARMENTS CORPORATION                              1605
A0101405490000005566236CONTI, MA. RIZA AMADA                                    0502
A0101405490392298552043BETTY R. ARENA                                           0502
A0101408400394230018001JOSE H. GAOAT JR. OR                                    10503
A0101408400394230018001JANEFER F. GAOAT                                        20500
A0101408400394478374094NUNEZ, GENIE                                             0501
A0101408400394478374098EDGAR D. NECESARIO                                       0501
A0101408400000001952770MERIAN B BUERE                                           0501
A0101408400394566645001SIMON, SUSAN BABOL JT                                    0501
A0101408950000003171235ONGKEKO, EDUARDO ERASTO SANTIAG                          0501
A0101408950000007458862CHIO, NANCY BORJA OR                                    10502
A0101408950000007458862CHIO, MARTIN CLARENCE ONG                               20500
A0101409210000000043763ENDOZO, ANICIA Q. OR                                    10501
A0101409210000000043763ENDOZO, MELECIO                                         20500
A5501400120410478374001ESTACION, EDELYN                                         0502
B5501400120410683469001RDJ AGRIFARMS INC.                                       1605
A2401400180411275790003MALCAMPO, DIOSIE AGUIRRE                                 0503
A2401400180411577534001LASOLA, EDITHA RIVERAL OR                               10502
A2401400180411577534001LASOLA, ROGELIO                                         20500
A0901400220000000012324SPECIALIST MOTORCYCLE PARTS &                           10510
A0901400220000000012324ACCESSORIES, INC                                        20500
A0101403030441240814002**********                                               0504
A0101403320000001646722VERGARA, ANALYN ALABAN                                   0501
A0101403320471047588001RHINA JENEPER C. LIBIRAN DBU                            10502
A0101403320471047588001R-GENESIS DRUG STORE                                    20500
A0101403320000000067565DE CASTRO, RENIEL DBU                                   10501
A0101403320000000067565E+DC ARQUITECTOS                                        20500
A1901400320489064581001RED GIFT AIRLINE AND HOTEL                              10501
A1901400320489064581001RESERVATIONS SER                                        20500
A1901400160491244619001ALEJANDRO F UY OR                                       10502
A1901400160491244619001APOLONIA AGNES B                                        20500
B1901400160491246031001CARLITO GO/FELIE GO/MYRNA MORALES/MONINA                11601
B1901400160491246031001REMO/CARLEEN SIH                                        21600
B1901400160491246031002CARLITO/FELIE/TIMOTHY GO / MONINA REMO                  11601
B1901400160491246031002/MYRNA MORALES                                          21600
A1401400110000003475832RADONES, ARIEL SACRISTIA                                 0502
B1401400110492046339002******                                                   1620
A1401400110492581940001VELUZ, FRITZCHE GAMBOA                                   0501
A0101407430503225389002BRIAN A. PINEDA OR                                      10501
A0101407430503225389002MA. ELENA G. ARAGON                                     20500
A0101407430503736499001CECILIA R. NALAUNAN                                      0501
A0101403580000000016082SWEET BELLA DESSERTS                                     0508
A0101405940512597822001HERNANDEZ, ANTONIO PENGSON                               0503
A0101411400517775177001DAVA, AYLA TUAZON                                        0501
A0101411790000000039358RANGAS, ADILYN VILLARMIA                                 0501
B0101411790000004808082PDB PROPERTIES, INC.                                     1603
A0101403450521238268001**********                                               0502
A2201400250561028327002******                                                   0502
A0101407720602397901001JAMORA, EDUARDO MAGNO                                    0506
A0101404260611044670001POWER AGRO-PEST TRADING                                  0502
A0101404260611487906002REYES, MA. SHARON FLORES                                 0501
A0101409890649394664001LIM, MA. TERESA GRACE URBANOZO                           0501
A0101409920000000998683MEMBERS OF NATASHA (SHOECAT INC                         10501
A0101409920000000998683AJETO, MERCY L.                                         20500
A0101409920000005460862MEMBERS OF NATASHA, SHOECAT INC                         10502
A0101409920000005460862RAPSING, ANELA REAL                                     20500
A0101413570000002976130FLORINDA J. BUBAN                                        0501
A0101413570656057648143RACQUEL ANGELIQUE LEGASPI                                0501
A0101413990000006768638***                                                      0501
A0101406590662365707001JOSEPHINE P. VELASCO OR                                 10506
A0101406590662365707001ERNESTO U. VELASCO                                      20500
A0101410300000004361660BALOCATING, CARMENCITA C. OR                            10501
A0101410300000004361660BALOCATING III,                                         20500
A0101410300000007613814LOON, JOSE MARTIN AZCARRAGA                              0503
A1301400210682247780001AILEEN A. MUNOZ                                          0502
A1301400210682510414001VICENTE G CRUZ JR                                        0501
B1301400340000005509786***********                                              1603
A1701400230000005694233SALAZAR, MARIBETH SALVADOR                               0502
A1701400230000005694324GARVIDA, GIAN MASER DE LA CRUZ                           0502
A1701400230000001108387MONTERDE, ARNEL MORA                                     0501
A1701400230000001786730LIGOT, CHARITY RANADA OR LIGOT,                         10501
A1701400230000001786730GIANPAOLO JESUS RANADA                                  20500
B0101408240711036910001ASIAN CENTRE FOR INSULATION PHILS.,                      1603
B0101408240000000832735ESQUIRETECH CORP.                                        1601
A0101408240000008160132RICAFRENTE, MA. ANALYN DELFIN                            0503
A2801400100712478374012DELA CRUZ, VANESSA JOY                                   0501
B4101400260812039559001R.C.V.J. INCORPORATED                                    1604
B4101400420000009391922INFORMATICS COLLEGE CAVITE, INC.                         1605
A4101400420000003715724FLAVIANO, PERLITA                                        0501
B4101400550815040996002MARICHE APARTELLE, INC                                   1601
A0101412340000004360683DIANNE MONIQUE A. QUERUBIN                               0501
A0101404840851410953062RUIZ, MARIEVIC                                           0502
B0601400230000000029861**************                                           1602
