B2801400100712821100608**********                                               2002
A0101414120000008642655PLAZA, MICHELLE PADAYAO                                  0501
A0101405810072234892001**********                                               0501
A0101414120000001142852TERESITA M. PUYAT OR MARY ANN                           10501
A0101414120000001142852MAGNO                                                   20500
A0101414120000002879750GARCIA, PIA LAAN TAMAYO                                  0501
A0101414120000006005425BRIONES, MARIA LUZ GENIZA                                0501
B0101414120000003584281JD & P FOOD TRADING CORPORATION                          1602
A0101400150000004915151WEI, QIAN                                                0501
A0101400150000010777730NASOL, SEVERINO DUMANDAL                                 0501
A0101405810072235427001**********                                               0501
A0101405810072242205002**********                                               0502
B0601400360000000025750NT. LIVE INCORPORATED                                    1602
B0601400520000001706918NAGUIT JR., JOSEFINO F. OR                              11610
B0601400520000001706918NAGUIT, MHELODIE                                        21600
A0101413730000002289450***************                                          0501
A0101410850000008264073RICAHUERTA, EDGARDO P DBU 7A7                           10502
A0101410850000008264073ENTERPRISES                                             20500
A0101410560000001944072VALEN, ROSANA RETIG                                      0501
B0101400730111100015004THE PHILIPPINE AMERICAN LIFE AND GENERAL                11605
B0101400730111100015004INSURANCE CO.                                           21600
A0101400730111377984001LEGASPI, JULIETA CABRAL                                  0501
A0101401960121687403001SANTILLAN, SEVILLA OR                                   10501
A0101401960121687403001RANCES, JUANITA                                         20500
A0101401830141037575002MATATAG PRINTING PRESS                                   0502
A0101400440161186940001MARILOU I. DIVINA                                        0506
A0101400440000003671641SENA, LEONILA MAGNO                                      0501
A0101400440161673957001JOBERT F. MEMPIN                                         0502
B0101407270162016355001ONWARD COMMUNICATIONS & SERVICES                         1604
B0101407270162019023001PHILIPPINE BATTERIES,                                   11610
B0101407270162019023001INCORPORATED                                            21600
A0101407270162587936002WILFRIDO G. TIRONA                                       0501
A0101401090171197427002LEVINA D. ZUNIGA                                         0505
B0301400660000006755020**********                                               1602
B0301400660000003368347**********                                               1602
A0301400950000004455527MADIS, GRACE Q. OR                                      10501
A0301400950000004455527MADIS, BENJIE B.                                        20500
A0101412500000002844335NUESTRO, JAN ANGELO VALERA                               0504
B0101413600000005524863HIMLAYANG PILIPINO PLANS, INC.                           1610
A3101400160221419880001ROWENA B. SUN                                            0502
A3101400160221611111001AILEEN A. SOSMENA                                        0501
A3101400450223577252001REYES, PAUL RAMOS                                        0502
A3101400740000010216405GARCIA, EMILY BUEN                                       0501
A3101400740000006735824GARCIA, EMILY B. DBU MMA EVENTS                         10502
A3101400740000006735824SPECIALISTS AND                                         20500
A3101400870000005409923BOCAR, G DBU BOCAR FINE ARTS                            10502
A3101400870000005409923AND SURFACE DECO                                        20500
A3101400870000005410213EVANGELISTA, GISELA CASTILLO                             0501
A1001400190000003881903BOSSMANN TRADING AND                                    10503
A1001400190000003881903ENGINEERING SERV                                        20500
A1001400190000005709242GOKING, GEORGE SIO                                       0502
A1001400190231520766115OTINGGEY, LORIE JANE SAJULGA                             0501
B1001400350233540058188**************                                           1604
A1001400480000008501940BALANA JR., RICHARD ZAMAYLA DBU                         10501
A1001400480000008501940RBJ ENTERPRISES                                         20500
A1301400470252529647001MICHAEL PATRICK L. BANZON OR                            10501
A1301400470252529647001EMILY GRACE V. BANZON                                   20500
B0101401670000000739219HYDRO-TECH ENVIRONMENTAL MGT. INC.                       1605
B0101401670271191081001EAGLECOR, INC.                                           1605
B0101406620000000194041ZIOSOFT INC.                                             1601
B0101406620000003497103GREENROOF CORPORATION                                    1603
B0101406620000003497103GREENROOF CORPORATION                                    1603
A0101406620000000962330DIZON, MARIDEL TRINIDAD                                  0501
A0101406620273335351002ONG, CATHERINE LEE OR CONRADO                           10501
A0101406620273335351002BATE OR CAESAR GUERZON                                  20500
A0101408660000000855910***************                                          0502
A0101408660000005263883CHUA, RUEBY GINIE DELA CRUZ                              0501
A0101408660000000373073ROBERTO MONROY OR                                       10501
A0101408660000000373073ANNELLE MONROY                                          20500
B0501400200292036584001SSS EXPRESS CREDIT, INC.                                 1610
B2601400270000006014722PABLO, NOEL GROSPE DBU PABLO INTEGRATED                 11601
B2601400270000006014722FARM                                                    21600
B0801400160000001289932RD PAWNSHOP, INC. - ILOILO NORTH                         1603
A0801400160311478374088CHERYL C. CONDINO                                        0501
A6601400120000005710316ALCANTARA, MAR SENOBIO                                   0502
A6601400120000005710630DY, FREDERIC JAN TUBELLO                                 0502
A2001400290000003074991TORRENTEGUI, ANNE KATHERINE S                            0501
A0101402350321478374048GLENDA D. ESTRELLA                                       0501
B0101402510341037808001FAIR ALL MARKETING                                       1602
A0101402510341197758001CARMINA P. CATAPANG                                      0501
B0201400760374041914001OUROKU CORPORATION                                       1605
A0201400760374475574001KOIKE, MASAO                                             0503
B0101402930381009648001CHRIST'S COMMISSION FOUNDATION, INC.                     1610
A0101402930381725333001SAMONTE, ROBERTO GONZALES                                0501
A0101408370000000335482ONGOCO, ULYSIS FRANCO                                    0502
B0101408370000007031443SCHEIRMAN & CRUZ PROPERTY HOLDINGS                       1610
A0101408370382327513001DR. MICHELLE V. LUCIANO                                  0502
A0101408370382356042001JOSTELLA D. LOH OR                                      10504
A0101408370382356042001WINSTON C.N. LOH                                        20500
A0101408370382408402001DR. RAUL V. DESTURA OR                                  10505
A0101408370382408402001BABY ASUNCION B. DESTURA                                20500
A0101411660000003580221JAMIE ANNE Y. LEE                                        0501
A0101415350000005085030CARITAN, JOSEPH FERMIN ABESIA                            0502
A0101402770000007413863CUBIL, MICHAEL MALIG-ON                                  0501
A0101402770391550490001MORILLO, ZENAIDA ZAMBRANO OR                            10501
A0101402770391550490001TAN, DANILO GABI                                        20500
A0101408950396402493001DR. MICHAEL CORTEZ PADLAN                                0502
A0101408950396740579001DR. JOANNE CARRILLO CHUASUAN                             0501
A0101409180000008700156CAUTON, ANNA KATRINA HERNANDEZ                           0501
B0101409210398042656001FIELD OUTSOURCE ASIA, INC.                               1606
B0101409210000000031169CAISHEN MARKETING SERVICES, INC.                         1603
B5501400120000007963446UMAHAG, ROY VALLAR AND GARCIA, REYNALD F                11601
B5501400120000007963446ABELLON                                                 21600
A5501400120410656023001BELTRAN, MANUEL OR                                      10502
A5501400120410656023001BELTRAN, ALEGRIA                                        20500
B2401400180411016835001GENERAL TUNA CORPORATION                                 1605
A2401400180411487765001KING, JACKSON OR KING, IRENE OR                         10503
A2401400180411487765001KING, JOHANNA                                           20500
A0101403030000005327588**********                                               0503
B0101403030441033586001LION COMMERCIAL CORPORATION                              1602
B0101403320471039191001MAR-V-RITZ TRADING - BRANCH                              1603
A0101403320471206164002BERLO B. BANGIBAN OR                                    10501
A0101403320471206164002JELYN B.BANGIBAN                                        20500
B0101406330000000432897MITC EMPLOYMENT AGENCY INC.                              1602
B0101412760000000032026SERBIZ MULTI-PURPOSE COOPERATIVE                         1605
A1901400160491247764001MARITES E RAMIREZ                                        0501
A1901400160491298552008VILMA F FALCUNAYA                                        0502
B1401400110000000167446SOUTHERN PROCESSING CORPORATION                          1606
A0101403580511156579014IMELDA FUNDALES                                          0502
B0101408530516039877001VAMOS HOLDINGS INC.                                      1603
A0101411790000008789917SURIO, JENNY GRACE CALIMBO                               0501
A0101411790000010778900HSIEH, YUYUN                                             0501
B0101403450521011872001**********                                               1601
B0101403450521020358001**********                                               1602
B0101403450000008069181ANTARCTICA COLD STORAGE INCORPORATE                      1602
A0101403450521238554001********                                                 0501
A0101403450521239535001******                                                   0501
A0101407720602415232037MA. TERESA CALAUD                                        0501
A0101407720602421097002JOSEPH A. CORDERO, M.D.                                  0502
A0101407720602549119001SANTOS, EDGAR JOLLY PEREZ                                0504
B0101404260611150839001TIONG YAT SY OR LOLITA SY                                1602
A0101407690652442595001ALEJANDRO, LIRIO OR ARIEL                                0501
A0101413440000006680982CERDENIA, JO-ANN BASIRGO                                 0502
A0101413570000010013313JONEE AZUCENA                                            0501
B0101413990000000206204R.R. ENCABO CONSTRUCTORS INCORPORATED                    1605
B0101414120000000399093*****                                                    1604
A0101414120000000875601CELSO OR CONSOLACION                                    10501
A0101414120000000875601MARTINEZ                                                20500
A0101406590662415024001MAXION, PRESCILA ARANSAZO                                0501
A0101410300000002375777******                                                   0502
B1301400210682016750001JFL AGRI VENTURE SUPPLIES                                1606
A1301400340000000926745GALANIDA, EVELYN LANAZA                                  0502
A1701400230000005694277SANTOS, ROBERT JOHN SANTELLA                             0501
A0101408240000000005181POL CAMACHO SECURITY                                    10502
A0101408240000000005181CONSULTANCY                                             20500
B2801400100000000004877ADVANCE MICROSYSTEMS SUBIC INC.                          1602
A2801400230000000063210SALINAS JR., BENJAMIN F DBU FDS                         10501
A2801400230000000063210FAMILY CLINIC GE                                        20500
A4101400420000000018573N.A.J AUTO SUPPLY                                        0501
A0101406750000005666760ONG, BERNADETTE ARABACA                                  0502
B0101406750852066061001CS-PAC GLOBAL BPO INC.                                   1602
A0101406750852181175001ANTONIO S. DOMANTAY OR CONCHITA                         10502
A0101406750852181175001DOMANTAY                                                20500
B0101406750852740034001MORE-NING SUN PACKAGING CORP.                            1602
A0101405070861037846001GOODNESS & MERCY MOVERS                                 10503
A0101405070861037846001SERVICES                                                20500
B0601400230891043356001CARWORLD SUBIC, INC.                                     1610
A0601400230891252526001AGNES MAY P. DE JESUS                                    0501
A0601400230891252526001AGNES MAY P. DE JESUS                                    0501
