B0201400760374821100608**********                                               2050
B0101404130601821100608**********                                               2020
B0101403610531821100608**********                                               2005
A0101402770391527848001DIVINA GOZUM MANUEL OR                                  10501
A0101402770391527848001RONALEEN GOZUM MANUEL                                   20500
A0101413860000009426411**********                                               0502
B0101413730104821100608**********                                               2002
A0101412920000003465018SOTTO, ROSE MARY CORDIAL                                 0501
A3801400170000000497821ELPEDIO R MORTELLA                                       0501
A0101406750000004641645FESTEJO, BIANCA JASA DBU BIANCA                         10503
A0101406750000004641645FESTEJO HAIR STA                                        20500
A0101400860011086423001**********                                               0503
A0101400860011522544001**********                                               0503
A0101401250000002763346**********                                               0505
A0101401250021179007001OLIVEROS, SYLVIA OR WARREN                              10502
A0101401250021179007001OR SHEILA                                               20500
A0101400150000003198190Marigold M. Rejuso                                       0501
B0101400150061031071001ORIX RENTAL CORPORATION                                  1602
B0101400150061044750001ASIA PACIFIC CHARTERING PHIL., INC                       1602
B0101400150000005015570FIRST DIGITAL FINANCE CORPORATION                        1610
A0101400150061326957001JAVIER, MA. THERESA OR LOMIBAO                          10501
A0101400150061326957001JR., ERNESTO                                            20500
A0101400150061329718004ZABALETA JR., JOSE MARIA P OR                           10501
A0101400150061329718004ZABALETA, JOSE M                                        20500
B0101400150061469103001WOODOTER CORP.                                           1601
B0601400100000007185102BEAT SWISS CHALET INN & RESTAURANT                       1602
B0601400360000000025732TECNET ASIA, INC.                                        1603
B0601400360000003186714BSD TRADE SERVICES CORP.                                 1603
B0101413730104821200608**********                                               2001
A0101400730000002882386SANCHEZ, SHIRLEY SANCHEZ                                 0501
B0101400730111007962001PANA MARKETING & DEVT. CORP.                             1601
B0101412920160022330002S.M. CASTRO MANAGEMENT & CONSTRUCTION                   11602
B0101412920160022330002SERVICES                                                21600
A0101407270000006675518LIM, GINALIE PREJOLES                                    0502
A0101401090000003835916NOVIO, RONA REGADO                                       0503
A0101401090171197472001HELEN HIDELITA OR                                       10502
A0101401090171197472001ROMEO JOSEPH IGNACIO                                    20500
A0101401090171367885001TERESA T. SY ORTIN OR                                   10505
A0101401090171367885001DENNIS V. DOROMA                                        20500
A0301400530000011249266GUIDES JR., AGAPITO DEL ROSARIO                          0501
A0301400530000000066113RUDELA, JIVIR S. OR                                     10502
A0301400530000000066113RUDELA, ANALYN C                                        20500
B0301400660194032481088TOYOTA DAVAO CITY INC.                                   1603
B0301400950000002115931DAVAO MARBLED FOOD                                       1601
B0101413020000000038435AVITEK ANIMAL HEALTH INC.                                1605
A0101410720653037434001INTELIASIA CREDIT INVESTIGATION                          0504
B0101412500214067230001JOBSFINDER PLACEMENT AGENCY INC                          1605
A3101400160221220343001LAARNI A. CALAPATIA                                      0502
A3001400130000005446340BALANGA, MARIO FERNANDEZ                                 0501
A3001400130000001261283LIM, EDGAR ALLAN DIAZ                                    0502
A3001400130000005708647IDULSA, LAURA LINAO                                      0501
A3001400130000000931322ML_BUILDERS INC.                                         0502
A3001400130230757981001SACAY, RENE CANTOR OR SACAY,                            10502
A3001400130230757981001JOSEPHINE SIMBIT                                        20500
A1001400190231283324001GICABAO, BENY CHAN OR                                   10501
A1001400190231283324001GICABAO, VILMA A                                        20500
A1001400190231520766011PETALVER, RICKY FLORENTINO                               0501
A1001400190231520766208LACRE, HAYDEE DAGPIN                                     0501
A1001400350000000245281BAGARES, AGUSTINA BALALA                                 0503
A1001400350000000017165MEN DBU A&L MARKETING SOLUTIONS                          0501
A1001400350233528399003KO, JOSE NELSON AND                                     10502
A1001400350233528399003KO, CHARMAINE                                           20500
A1001400350233534612001ANDRADA, ALICE L. OR                                    10502
A1001400350233534612001TAMPARONG, ERNES                                        20500
A1301400470000001299009NIDA S. AQUINO                                           0502
A1901400290000000030800JMARK MICROCREDIT CORPORATION                            0505
A1901400290000007876893DANTE VALENCIA ANDAL                                     0502
A1901400290000003252720DIVINA GINA SANGALANG DE CASTRO                          0501
A0101406460000002330843YOUNG, MARIBETH CARCIDO                                  0501
B0101406460272011530003GLOBE TELECOM, INC.(3)                                   1604
B0101406620273007454001GLOBE ASIATIQUE REALTY HOLDINGS CORP.                    1605
B0101406620273007454005GLOBE ASIATIQUE REALTY HOLDINGS CORP.                    1606
B0101406620000009695163ITECH SYSTEM SOLUTIONS AND SERVICES                      1603
A0101408660000011051435MANNY C. TENG                                            0501
A0101411110000002319951COSETENG, ERICKSON CASIMIRO                              0501
B0101411110000000604891NICHE PLAY INTEGRATED MEDIA INC.                         1602
A0101411820000001356474GENALYN ELE ASUNCION                                     0505
A0101411820000001356792LENNIE C. GUEVARRA                                       0501
A0101400570281388539025ROSALIE B. CABRERA                                       0501
A0101400570000001681847DEE, ANDREW YU                                           0501
A0501400200000004456968******                                                   0510
A6601400120000000060711SIXTO C ESPINA III DBU LFCE                             10501
A6601400120000000060711PETRON JT                                               20500
A6601400120314619929001ZOSA, ALEJANDRO RAMIREZ                                  0505
A2001400290315043996001STOP N' SHOP ENTERPRISE                                  0517
B0101402350321046511001SIDAMO DISTRIBUTION INC.                                 1610
A0101402350321179559001SEVERO LOPEZ                                             0502
A0101405650322368071001CALANGI, JOSE MA. SALUMBIDES                             0501
A0201400760000005711320TECSON, GELINE CABANGANAN                                0501
A0201400760374520766001CARULASAN, KRIZIA JANE BUGO                              0501
A0201400920375764651001JOEL D. MANIWAN                                          0505
B0101402930381008829002AXEIA DEVELOPMENT CORP.                                  1615
B0101402930381040449001MAROLAU GENERAL MERCHANDISE                              1601
B0101402930381758467001PATRICIA GENEVIEVE V. TABIA AND CARLO                   11601
B0101402930381758467001GABRIEL O. TABIA                                        21600
A0101408370382394648002DRS. IRMA GERONIMO TAN NUNEZ OR                         10503
A0101408370382394648002ANTHONY RICHARD G. NUNEZ                                20500
A0101408370382592860001ANGELINE S. TINGA                                        0502
A0101405490000001092626LOUIEDALE S. STA MARIA                                   0502
A0101405490000005643421RUEL S. ORO                                              0502
A0101405490392563453002ALLAN L. DE GUZMAN OR                                   10501
A0101405490392563453002MARIVEL R. DE GU                                        20500
B0101408400394028560007NEW LIFE CHRISTIAN CENTER (THE FORT INC)                 1601
A0101408400394478374094NUNEZ, GENIE                                             0501
A0101408950000011077762BERROYA, MARIA ANNA GUEVARRA                             0502
B0101409180000002036846IMPACTHUB PH INC.                                        1603
B0101409180397062516001PHYSIXARE ADTEK SOLUTIONS, INC                           1602
A0101409210000001294275PINEDA, FEDERICK JOHN RAMOS                              0501
A0101409210000009966701HILARIO, CHRISTINE ARMI SAN JOS                          0501
B0101409210398044082001ALABANG AUTO EXCHANGE                                    1602
A0301400820000007372792ALARO, ROSEMARIE P.                                      0501
B0301400820000001554792VIC IMPERIAL APPLIANCE CORP.                             1601
A0301400820000004745853MANALO, CESAR                                            0501
B2401400180411042194088GSC ECOPARTS                                             1605
A1201400150421478374035DALAN, LINDA G.                                          0505
A1201400150421517016001CASUSI, BERNARDO VALMONTE                                0501
A1201400150421539011001ANG, WESLEY CUA OR ANG, ROSEANN                         10504
A1201400150421539011001E.                                                      20500
B0901400220432750068001**********                                               1602
A0101403030000005327657*********************                                    0501
B0101403320471029785001F.D. ROOSEVELT MEMORIAL SCHOOL, INC                      1602
B0101403320471043308001DAMAYAN AT TIYAGA FOUNDATION, INC.                       1602
B0101403320471066739001FRANCES BUILDERS CORPORATION                             1601
A0101406330472298552011CARINA F. FALQUERABAO                                    0501
A0101406330472313284001ATTY. MAMERTO Z. MONDRAGON                               0503
A0101406330472369996001DOLORES P. SUMADIC                                       0501
A0101410140000001939820MARCELO, RICARDO ROSARIO                                 0501
A0501400170481059315001ABAOAG, MAGELINE DBU M.K.A                              10503
A0501400170481059315001INSURANCE SERVIC                                        20500
B3801400170490058867001KATIPUNAN FOODS SERVICES, INC.                           1615
A1401400110492620230001DELOS SANTOS, ENRICO PEREZ                               0504
A0701400260000003259374**********                                               0501
B0101407430000004491721PETROHEAD INCORPORATED                                   1602
A0101407430503378525001EMMA C. MANALO                                           0501
A0101405940000002268788TESORO, KRISTINE PAULINA PONCE                           0503
A0101408530000002260004CHUA, DERRICK SIGMUND SY                                 0501
B0101408530000001275281THE COVENANT CAR COMPANY, INC.                           1602
B0101408530000003866046TAMBAI YAKITORI-MO SNACK-BAR CORPORATION                 1601
A0101412050000003966763DE LEON, ARTURO PUZON OR                                10502
A0101412050000003966763DE LEON, WILFRED                                        20500
A0101403450521037347002********                                                 0501
A0101403450521237750001***********                                              0501
A0101403450521240509001**********                                               0501
A0101403610531219563001LACDAN, PABLITO OR                                      10502
A0101403610531219563001LACDAN, ZENAIDA                                         20500
B0101403610531659842002DELAMO LENDING INVESTOR CORPORATION                      1603
A2201400250000001932247CLDH EMPLOYEES CREDIT                                   10503
A2201400250000001932247COOPERATIVE                                             20500
B0101404130601100148003UNIESSENCE CHEMICALS PHILIPPINES INC                     1605
B0101407720000000885690THE CATHAY YSS DISTRIBUTORS COMPANY                      1602
B0101412180000001293061CP OPTICS, INC.                                          1605
B0101404260611035660001BETERAVIA CREDIT CORPORATION                             1604
A0101409920000009055614DUQUE, SHIRLEY                                           0501
A0101407690652525001047NOEMI B. BUNDA - DEALERS OF                             10501
A0101407690652525001047SHOECAT INC.                                            20500
A0101411530000000013696DE DIOS, ANTONIO AND                                    10502
A0101411530000000013696DE DIOS, JOSE NOEL                                      20500
A0101413440000006680602CABATANA JR., VICENTE TARSUNA                            0502
A0101413990000005447207LOBO JR., RONALD V. OR                                  10501
A0101413990000005447207LOBO, GALADRIEL U.                                      20500
A0101406590662474394001SANTOS, GLORIA PASION                                    0501
A1301400210682782329001IMELDA R LANUZA OR                                      10501
A1301400210682782329001REGINO A LANUZA                                         20500
A1301400340683388909001BALUYOT, AMELIA RENOSA                                   0506
A0101408240000010148153YAP, MILDRED RAVALO                                      0501
B0101408240000000832702FORTUNE DWELLING BUILDERS AND                           11603
B0101408240000000832702DEVELOPMENT                                             21600
B2801400100000007629276JOBIN-SQM INC.                                           1602
B2801400230000005253721PERLA COMPANIA DE SEGUROS, INC.                          1601
A4101400390813248327001SARIEGO, DANILO BAGONA                                   0501
A4101400420000009343288RANCE, RHODORA GAJETO DBU RGR H                          0502
A4101400420814477593003BAUTISTA, TERESA PONCEJA                                 0502
A0101412340000000484771NORDAN P. TOMPONG                                        0502
A0101412340000003340792KRISTOFFER R. APSAY                                      0501
A0101412340000003341153KIMBERLY APRYL JADE C. BATTON                            0501
A0101412340000003345220SHERRY NELL P. PASUMBAL                                  0501
B0101412340000002879943ROSET CONCIERGE SERVICES INC.                            1610
B0101404840851068196001NEOCOLORS PRODUCTIONS AND ADVERTISI                      1601
A0101406750000000480573ACOSTA, GRACE TAMAYO                                     0502
A0101406750852084318001SIBUG, GENEATH P. OR                                    10501
A0101406750852084318001SIBUG, ERNESTO M                                        20500
A0101406750852689922001SINGSON, MYRA DELOS SANTOS                               0501
B0101413860000001768090FIRST DIGITAL FINANCE CORPORATION                        1605
A0601400230000003015823ALURA, JIMMY SUENO                                      10502
A0601400230000003015823OR ALURA, MERLE                                         20500
A0601400230000005185866CHUA, MARK ANTHONY OR VELASQUEZ                         10504
A0601400230000005185866MYRICK OR LLAVE,                                        20500
A0601400230891035178001LEORLYN IRON WORKS                                       0502
A0601400230891465064001DE GUZMAN JR., CALIOPE LAURENTE                          0502
