A0101400440000001440033RAYMUNDO, LEILANI BUNUAN                                 0502
A0101400440161525001008LEDJIE N. DE LEON                                        0501
B0601400100081253610002NG, WILFREDO M. AND AQUINO, JANET B. AND                11601
B0601400100081253610002BUAN, ROLAND S.                                         21600
A0101400440161186940001MARILOU I. DIVINA                                        0506
A0101400440161314631001*****                                                    0501
A0101400440161503597001JOEL F. TUBOG                                            0503
A3001400130000001271363PALUCA, LIZA MORAL                                       0503
A3001400130000001261249BANJAO, JENELYN LARA                                     0501
A0501400170481255325008ARZADON, VOLTAIRE PORSOVIGAN                             0501
A0101400860000002333444**********                                               0502
A0101400860011035923001**********                                               0503
A0101401250000004648573LOPEZ, LOVEWIN B. AND                                   10501
A0101401250000004648573ABAPO, EVANGELINE R.                                    20500
A0101401250021178978001BAUTISTA, LOLITA DATO OR                                10501
A0101401250021178978001BERTOL, LIEZL B.                                        20500
A0101401700041330733007MANUEL VALLESTEROS                                       0501
B0101400150061010833001VELCA TRAVEL & TOURS, INC.                               1601
B0101400150061038212001COCOPALM AGRI GROUP, INC.                                1603
B0101400150061040558001CORDILLERA EXPLORATION CO., INC                          1602
A0101400150061227441001ERNESTO T. ECHAUZ                                        0503
A0101400150061232035003NORBERTO REYES OR                                       10501
A0101400150061232035003SOLEDAD REYES                                           20500
B0101400150061468081001MONTALBAN METHANE POWER CORP.                            1605
A0101400150061752745001ALONTE JR., JOSE ANTONIO P. OR                          10501
A0101400150061752745001ALONTE, MARGARIT                                        20500
A0601400100081639196001DIMALANTA, ANALYN TEGIO                                  0501
A0101410850109055892001CABANTING, MARISSA B. DBU                               10502
A0101410850109055892001ERLISH HAULING SERVICES                                 20500
A0101410850000000844673**********                                               0501
A0101401960121238686001*********                                                0501
B0101412630000002186438SIOSON, IRINEO PICITO                                    1601
B0101401830141021045001TCTS TRUCKING SERVICES                                   1610
B0101401830000000059972CARITAS SALVE CREDIT COOPERATIVE (NOVA/                 11603
B0101401830000000059972ST.PETER) 010                                           21600
A0101401830141582040001EDNA FABREGAS HERNANDEZ                                  0505
A0101400440161027568001GARB CLOTHING COLLECTION                                 0504
B0101401090000000772350BLUMEX PLUS CREDIT INVESTOR INC.                         1605
A0101401090171198478001MAFEL C. YSRAEL                                          0501
A0101401090171202961001TERESITA N. SANTOS                                       0502
A0101401090171391935001JULIE CHRISTIE G. VISPERAS                               0501
A0101401090171406527001DARWIN HENRY P. PESO OR                                 10501
A0101401090171406527001MARIA CECILIA S. PESO                                   20500
A0101401090171493594001CELINA S. TADY                                           0501
A0101401090171558920001MILAGROSA, REGINA SALES                                  0501
B0301400790000000435647PANABO MULTI-PURPOSE COOPERATIVE                         1604
A0301400950000002115231**********                                               0501
A0101401380201500598001CARREON, DAISY FONG                                      0501
A0101413020000000880320TIONGSON, MELCHOR DBU: M-CEE                            10501
A0101413020000000880320PHARMACY                                                20500
A0101407140213190785001EVELYN C. TAN OR MARK ERWIN C.                          10501
A0101407140213190785001TAN                                                     20500
A0101413600000003851052ANNARIA CORONADO                                         0502
A3101400160000001792156MANUEL P REMPILLO                                        0501
A3101400160221383785001BIENVENIDO V. RIVERA JR. OR                             10501
A3101400160221383785001BELEN P. RIVERA                                         20500
B1001400190231020614001LIM, CHARLES EDWARD W.                                   1601
B1301400470252549109001DIAZ INTEGRATED FARM, INC.                               1610
A1301400470000000009970AIMEE C. VENTANILLA OR                                  10501
A1301400470000000009970SOLITA P. CHUA                                          20500
A1901400290000001362954WILLIE AMBAL MERCADO                                     0501
A1901400290261035941001ARE CONSTRUCTION AND SUPPLY                              0502
A1901400290261056959001QUINO, ALVIN PADUA                                       0501
A1901400290261056962001QUINO, RAQUEL JOAQUIN                                    0501
A1901400290261298552056TERESITA EUGENIO PUNZALAN                                0501
A1901400290261390520001JOEL PUNZALAN DIMAANO                                    0502
A1901400290261642927001KIMBERLY GILLIAN H AMANTE OR                            10501
A1901400290261642927001GUILLANO VICTOR H AMANTE                                20500
A1901400290261668899001CHENG, XIAOZHEN OR                                      10505
A1901400290261668899001YANG, ZONG CHANG                                        20500
B0101406620273037236001SANTOS SANTOS & SANTOS LAW OFFICES                       1601
B0101406620273045167001VENTURANZA, HOSTALERO AND COMPANY, CPA'S                 1601
A0101406620273236978001CALLEJA, HOWARD MACEDA                                   0503
A0101406620273337587001SIMPLICIO C. BELISARIO JR. OR                           10502
A0101406620273337587001J0CELYN G. BELISARIO                                    20500
B0101412470000002338843WEBLEND INC.                                             1601
A0101400570281399721002JOFFREY OR JORDAN UY                                     0501
B2601400270000002677296******                                                   1601
A6601400120000003642744UY, FLORIANE DY                                          0501
A0101402350321179570001NEAL ORTEZA OR                                          10501
A0101402350321179570001IMELDA OLIVAREZ                                         20500
A0101402350321541110001MARY GRACE Q. TUMALAD                                    0501
A0101405650000000348903ESPERANZA F. BAYLON                                      0502
A0101402480000000310669**********                                               0502
A0101402480000001099889***************                                          0510
B0101402480331034497001*******                                                  1601
B0101402480000001562027************                                             1610
A0101408820000000027307BELINARIO, HONEY HYACINTH P.                             0501
A0101408820000001766845*************                                            0501
A0201400760000000223203*************                                            0501
B0201400760000000222762UY, JOHN CHIU OR JOHN JEFFERSON UY                       1605
A0201400890376633154002JIMENEZ, PETER UTLANG OR                                10504
A0201400890376633154002JIMENEZ, MARIA T                                        20500
B0101408790000002659027VISER-PHIL FORMWORK CORP.                                1601
A0101402770000002267121RIVERA, JOHNNY CONTRERAS                                 0501
A0101402770391752292002JUANITA OR TOMAS OR BENJAMIN VI                          0501
A0101408400000001035421ANGELICA BIRTHING HOME AND                              10501
A0101408400000001035421PEDIATRIC PRIMAR                                        20500
A0101408950396565099001DR. BENJAMIN DANIEL S. VALERA                            0502
A5501400120410729506001JOSOL, ARLIEN BACON                                      0501
A2401400180000002146312VENERACION, CECILIA CARANDANG                            0501
A2401400180000002284222AGUSTILO, PEACHIE MAY SINDOL                             0501
B2401400180411016835001GENERAL TUNA CORPORATION                                 1605
B2401400180411031945044ABC DISTRIBUTORS INCORPORATED                            1605
A2401400180000000073527LAFARDZ MARKETING                                        0501
A2401400180411276219002NONO, JENNY DIZON                                        0501
A2401400180411304827001JONATHAN ERWIN VILLASIS                                 10501
A2401400180411304827001JT                                                      20500
A0101403030441707375001**********                                               0502
A0101406330000000011752JONAH ROMANO DBU AW ENGINEERING                         10504
A0101406330000000011752SERVICES                                                20500
B0101406330000000432573FULRUBELL CORPORATION                                    1603
A0101406330472296884001JAYLEE TRADING                                           0502
A0101406330000000683363EDUARDO LEGARIO                                          0501
A1401400110000003475832RADONES, ARIEL SACRISTIA                                 0502
A1601400170000001068593JINKY M. NIEVA                                           0501
A1601400170000001069169EVARDONE, ANA ELENITA B.OR                              10501
A1601400170000001069169BARISO, TERESITA V.                                     20500
B1601400170000000497110MULTI-TECH INDUSTRIAL AND ENGINEERING                   11601
B1601400170000000497110SUPPLY CO.                                              21600
A0101403900501569514001TECSON, ADRIAN CASTRO                                    0501
A0101407430000001028875LANI C. TUQUIB                                           0501
A0101407430503185438005LETICIA D. JIMENEZ                                       0501
A0101407430503185438006LETICIA D. JIMENEZ                                       0501
B0101403580511005607002RAM FOOD PRODUCTS, INC.                                  1604
B0101403580511015363001MILLENNIUM ERECTORS CORPORATION                          1610
B0101403580000000214702MEC - CAMBRIDGE                                          1610
A0101403580511150629008MIRIAM HIPOLITO OR RAMONA PENA                          10501
A0101403580511150629008OR GERALDINE LIMOSNERO                                  20500
A0101403580511156549003MARIO BISCOCHO                                           0501
A0101406880513212176004LIM, EMILE                                               0501
A0101408530000001268651JORDAN R. PAJARILLO                                      0501
A0101411790518055764222HERNANDEZ, MAUREEN LUMBA                                 0501
B0101403450521029023001**********                                               1602
B0101403450521029025001**********                                               1602
A0101403450521241165001**********                                               0502
A0101403450521736290001TAN, ANGELINE KUA                                        0502
B0101403450521778076001**********                                               1601
A0101403610531304005001ANCHORIZ, NERRIZA OR                                    10503
A0101403610531304005001ANCHORIZ, FRANCISCO                                     20500
A0101404000551435680001PAPA, CATALINA ESTRELLA                                  0501
A2201400250561405717001EUGENE Y. GO                                             0501
A0101404130601651761001ASUNCION, EDGARDO MAGDALUYO                              0502
A0101407720602163514002LAGOS, MARIA THERESA                                     0502
A0101407720602280481002ARABE, EDUARDO OR                                       10501
A0101407720602280481002ARABE, EMELITA                                          20500
A0101407720602291724004SEVILLA, JAIME OBIETA                                    0501
A0101407720000000245145VICTOR L. GISBERT OR                                    10502
A0101407720000000245145ARLENE MAY A. GISBERT                                   20500
B0101407720602569898001SHINES DERMTECH SOLUTIONS, CORP.                         1601
A0101407720602581738001DUCUSIN, MA. ANTONINA SUGUITAN                           0501
A0101404260611478374126MA. GLENDA C. TUPAS                                      0501
B0101404420631030262001LICA GAS CENTER                                          1602
A0101409890000002326752EVANGELINE GONZALES ALFONSO                              0502
A0101409920000000523620YONGCO, JEMELITO BATES                                   0502
A1301400210000001206893SOLARES ENGINEERING SERVICES AN                          0501
B1301400340000000011883METAMORPHOSIS SCHOOL INC.                                1602
A1301400340683431327001*****                                                    0501
A1301400340683534881002ABREU, KARLO MAXIMO                                      0502
A1301400340683593629001ALEX R. LUSTRE OR                                       10505
A1301400340683593629001MA. CECILIA Q. L                                        20500
A1701400230000002347333SALAZAR, EDWIN ENRIQUEZ                                  0502
B0101408240711007466001VJ PROPERTIES, INC.                                      1602
B0101408240711036897001EVER THEATRICAL, INC.                                    1601
A0101408240711336084001EVA M. LUMBAN                                            0503
B2801400100712666967001ASIAN HUB CORPORATION                                    1603
A4101400260812403511001BOSITA, CHRISTIAN DUA                                    0501
A4101400390000001732423MOSTAJO, LEILANI ALMARIO                                 0502
A4101400390813248893002MERCY O. ASEGURADO                                       0503
A4101400420814017785001MONZON GENERAL MERCHANDISING                             0510
A4101400420814328455001LARGA, ROMMEL YAP                                        0501
A4101400420814462792001RICHARD W. WU OR LOURDES WU                              0502
A4101400420000000120685NANCY C. ACIDO                                           0501
A4101400550000001332461GONZALES, CARLOS CATALLA                                 0501
A4101400550000003266915ALONSO, MICHELLELIZA PEREZ                               0501
A4101400550815514042001LIM, AURORA TAN                                          0501
A0101412340000003349411RAMIL D. VALENZUELA                                      0501
A0101412340000003716783EUNICO PEDRO D. CUNANAN                                  0501
A0101404840851481664033MICHELLE C TICZON                                        0502
A0101406750852723857001MACALALAD, MAYETTE C.                                   10502
A0101406750852723857001MACALALAD, ERICKSON P.                                  20500
A0601400230000000498591TORRES, OLIVER BORLONGAN                                 0501
