B0301400660194821100608**********                                               2020
A0101410690600085096001YEE, SONNY L. OR YEE, KARRIE                            10504
A0101410690600085096001ANNE CANDACE M.                                         20500
A1101400120313717829001UY, WILSON S. OR                                        10510
A1101400120313717829001UY, CHIQUI RUTH                                         20500
A1101400120000006186792BIGCAS, GILBERT JAN AVILA DBU                           10501
A1101400120000006186792MARTHENA'S HEALTH AND BEA                               20500
A1101400120000000992394REYES, CRISTINA MARIE OCASLA                             0502
A1101400120000003022413DUCENTES, GLORIA TROCINO                                 0501
B1101400120000000653190BOSJAN MAIN MARKETING CORP.                              1605
A1101400120000003981055NAPUTO, CHARLITA C.                                      0501
A1101400120000006186478BOLECHE, MERLINE BANDALA                                 0502
A1101400120313547700001NICOLASORA, ALMARIE EULOGIA P.                           0507
A0101412920000008813623CULASI, ANTONIO CENAS                                    0501
A1101400120000001547268JADOC, MA. ARIELYN PALOGAN                               0501
A1101400120000006080702MANOZA, MARILOU BALLOLA                                  0501
B1101400120313544308001**********                                               1610
A1101400120000006186763PEDOTERA, ARSENIA PACUANCUAN                             0501
A1101400120000005608260SANITA, ERIC SALIENTE                                    0502
B1101400120313543446001TY CHAN HAI,SANTIAGO OR TY,LISA OR TY,                  11602
B1101400120313543446001SHANE LAWRENCE                                          21600
A0101407720602332279002CAYCO, ANTONIO V. OR                                    10501
A0101407720602332279002CAYCO, MARGARITA                                        20500
A0101401830141543824001BENIGNO L. GRAGEDA JR.                                   0501
A0101401090000007525860PE, DEXTER CLIFTON CHUA                                  0501
A3001400130000008916092LOPEZ, RAMIL HERNANDEZ                                   0502
A3001400130230478374237LANQUINO, JOCELYN GIJAN                                  0501
A1101400120000003981293CINCO, RENELYN JOY ALVARAN                               0501
A1101400120000006081125ALONZO, DONNA SILVANO                                    0501
B1101400120000006186832THE REAL ALTERNATIVE INVESTMENT MULTIPUR                11602
B1101400120000006186832POSE COOPERATIVE                                        21600
A6601400120314042058007CHEERS TRADING                                           0505
A0101407720602402493001**********                                               0503
A0101407720602415233011CHARLES MARTIN F. CORPUS                                 0502
A0101400860000011621888AGUILAR, GERLITA BELINO                                  0501
A0101400860011078840001**********                                               0503
B0101400860000005313137**********                                               1601
A01014008600113952310011**********                                              0504
A0101400860011514409001**********                                               0503
A0101400860011665018001**********                                               0501
A0101401250000000441052ONGSUECO, SYLVIA K.                                      0502
B0101401250021006627002STA. CLARA PARISH CREDIT                                11601
B0101401250021006627002COOPERATIVE                                             21600
B0101401250000007121262BALIAO DENTAL CLINIC & DIAGNOSTIC                       11602
B0101401250000007121262CENTER INC.                                             21600
B0101400150061039643001J.M.PIZARRAS AND ASSOCIATES LAW OFFICE                   1605
A0101400150061396165001SANTIAGO, MA. SOCORRO S. OR                             10501
A0101400150061396165001PACIFICADOR, AIN                                        20500
A0101400150061746999001ELEANOR G. COLIANGCO OR RICO                            10505
A0101400150061746999001MA. ANTONIO GONZALEZ                                    20500
A0101400600071233721001**********                                               0502
A0101400600000005943035********                                                 0502
A0101413280000005279643LIM, SUSAN DY                                            0501
A0101410850000003102012MIRAFLOR, JOMAR JOSE                                     0504
A0101410850000008263996MALABAGUIO, JOSEPHINE SARDEA                             0501
A0101410850000005316876RAMOS JR., RODOLFO P. OR                                10501
A0101410850000005316876RAMOS, MA. CARMEN D.C.                                  20500
A0101400730111063473223SEMBRAN, ARMEL MAINES                                    0501
A0101400730111063473224BRUNA, ALLAN JOHN ANDAYA                                 0501
A0101400730111063473225BOLOS, ANTHONY TEJERO                                    0501
A0101400730111063473226ALMERA, JONATHAN PALOMIA                                10501
A0101400730111063473226BORROWER'S OF QUICKLEND                                 20500
A0101400730111063473227IGNACIO,AMADO ESPOSO BORROWER'S                         10501
A0101400730111063473227OF QUICKLEND PHILIPPINES                                20500
A0101400730111063473228COLINDON, MARK ORTINEZ                                  10501
A0101400730111063473228BORROWER'S OF QUICKLEND                                 20500
A0101400730111063473229REYES, JOHN CARLO MANZAN                                 0501
A0101400730111063473230SAN LORENZO, ARMAN J.                                    0501
A0101400730111063473231CAJABAN, JERRY NICK GAMBOA                               0501
A0101400730111063473232MATEOS, MIKO SORIANOSOS                                  0501
A0101401830141724867001GOMEZ, GEORGE CASSIUS ALFONSO F                         10501
A0101401830141724867001OR GOMEZ, JINKY T.                                      20500
A0101412920000000276362PENIALBER, MARK ANTHONY OR                              10501
A0101412920000000276362PENIALBER, NHELL                                        20500
A0101407270000009673538CONCIO, MA.  ROSARIO SANTOS                              0502
A0101407270162331908014JENNIFER C. RAVELA                                       0502
A0101401090000005320563MONZON, VICTORIA  EDNA GARAYBLA                          0502
A0101401090171198373001MARIVIC G. USITA                                         0501
A0101401090171314756001MARY ANDY A. DELOS REYES                                 0502
B0301400530000002318463YANG, ANDREI REYES                                       1605
A0301400530193597051001BAGA, BEATRIZ B. OR                                     10505
A0301400530193597051001BAGA, EDWARD T.                                         20500
B0301400660000000195135DAVAO CORNER PLAS CORPORATION                            1603
B0301400660000003361862SOUTHSHIP HANDLERS PHILIPPINES INC.                      1602
B0301400660000003368381NEXT BPO SOLUTIONS, INC.                                 1603
B0301400660000003368507BANAFAMILYA CORPORATION                                  1603
B0301400950000002115782*************                                            1601
A3101400160221018425001MARIA AURORA L. QUIAMBAO                                 0501
A3101400450000005355539ANGELES, LINDSAY CELINO                                  0501
A3101400870000002007790TANATE, JAIME KATAGUE                                    0501
A3001400130000006145228DEDICATORIA, ROMEO DBU LCM MARK                         10515
A3001400130000006145228ETING                                                   20500
B1001400190231015575001GOLDEN CITY AUTO PARTS & HARDWARE,INC.                   1602
A1301400760000002346129JIMMY C. CENA                                            0503
A1901400290000011227740EVANGELIO, NADINE VILLANUEVA                             0501
B1901400290261040667001PRIMERA AGRO DEVELOPMENT CORPORATION                     1604
A1901400290261530754004DESSIRE MALALUAN ONG                                     0501
A0101406460000000020986YU, A DBU YAMANA POULTRY FARM                            0501
B0101406620000000193931PHILEQUITY MANAGEMENT INC.                               1602
A0101406620273236978001CALLEJA, HOWARD MACEDA                                   0503
B0101406620273733659001ULTRAGAS CARRIERS CORP.                                  1602
A0101408660000008622173CAYABA, TERESITA ARTIENDA                                0502
A0101412470000002295890SY, JOHN ANDREW UY                                       0501
A0101400570281739506001JOHN CLAUDE S. CABREROS OR                              10504
A0101400570281739506001HERBERT R. FERANDEZ                                     20500
A2601400270000001009141ELIZABETH V. FERNANDES                                   0501
A2601400270000002312196GERALD D. GANNOD OR                                     10504
A2601400270000002312196MARY JANE N. GANNOD                                     20500
B2601400270302046854001H.A. DULDULAO & CO., INC.                                1605
B0801400160311458267001LIM, FERNANDO TAN                                        1601
A6601400120000002978096HORCA, ROMAR BABIANO                                     0503
 6601400120314415183001                                                        1  00
A6601400120314612855001SUNDAY LAVIN JR OR IRIANA LAVIN                          0505
A6601400120000001065394SAN PABLO, MELBA DAYMON OR                              10502
A6601400120000001065394UY, IMELDA SAN P                                        20500
B2001400290000002406708FIRST KYOMAN HOLDINGS INC.                               1602
B2001400290315528399001**********                                               1602
A3401400280000002323451PETER RANDY G. DELA CRUZ OR                             10502
A3401400280000002323451CARINA C. DELA CRUZ                                     20500
A3401400280000000784663ALMA V. TORREBLANCA                                      0502
A0101405650000005284248NAANEP, PATRICK CASEY C.                                10501
A0101405650000005284248or NAANEP, MARI                                         20500
A0101405650000009768110LOPENA, MARITES BLANCO OR                               10502
A0101405650000009768110LOPENA, PATRICIO                                        20500
A0101402510000011546159DIPASUPIL, LORNA MACALIPAY                               0501
A0101402510000011629997AGUINALDO, JIEVANNE YANGA                                0501
A0101402510000011629997AGUINALDO, JIEVANNE YANGA                                0501
A0101402510341068838001ALIBUYOG, L DBU KEISHA TOYS STO                          0501
A0101402060351211811002SHARON CATING LIM, M.D. OR                              10503
A0101402060351211811002ROBERTO JAIME LIM                                       20500
A0101409050000003533537CASTILLO, PAULO CESAR S.                                 0501
A0101409050000011616312TEE, KEZIA PAIGE KAKAZU                                  0501
B0201400760374006430001CHRIST COMMISSION FOUNDATION INC.                        1602
A0201400760374537038001HO, RICHELIEU MARIANO SIA                                0501
B0201401020000000005090AROMATISE' INTERNATIONAL INC.                            1601
B0201401020000005109922RED CHERRY 'N SILVER TIPS CORP.                          1610
B0201401020000005109940FAMILY TABLE INC.                                        1605
A0201401020000006598921ESTARDO, MARLIT                                          0501
A0101402930381283149001CARMELO A. ALFILER OR                                   10501
A0101402930381283149001CONCEPCION P. ALFILER                                   20500
B0101402930381296976002JONATHAN RICHIE L. YAP                                   1601
A0101408790000000600024ALFORTE, LOLITA ORTEGA OR                               10501
A0101408790000000600024ALFORTE, RONEL D                                        20500
A0101408790000005251321SANTOS, MA RINNAH JOY D.                                 0501
B0101408790383047253001NUVOLAND PHILIPPINES, INC.                               1605
A0101415350000005028831DE CHAVEZ, MEDARDO DBU MERDEC                           10502
A0101415350000005028831ENTERPRISE                                              20500
B0101405490392030564001NEW FS COOL AIRE INDUSTRIES, INC.                        1603
A0101405490000001092693JOVELYN V. LUCENO                                        0501
A0101408400000005286375OLLET, JEROME ALCANTARA                                  0501
A0101408400394005972001FAUSTINO AND FAUSTINO                                   10506
A0101408400394005972001ENGINEERING                                             20500
A0101409180000003310210SANTIAGO, REGINA SANTOS  OR                             10501
A0101409180000003310210SANTIAGO, JOEL G                                        20500
A0101409210000002278828DIGAMO, LYNDON REY ASOY                                  0502
A0101409210000005251810VILLARUEL, RICHSEL SALAZAR                               0501
B0101409210398043396001PIN HIGH GOLF SHOP                                       1610
A2401400180000000554938DOLERA, CANDELYN FILIPINAS                               0501
A2401400180000005536712CALERO, MARIA JOCELYN SUNIO OR                          10502
A2401400180000005536712CALERO, FERNANDO                                        20500
B2401400180411033387008BIBIANA FARMS AND MILLS, INC.                            1605
A5101400100000010371461ACTUB, JONELYN BERNASOL                                  0502
A5101400100000010371529TABACON, CHARITY LOSANES                                 0502
A5101400100000010833935KAAMINO, MIRALYN BUCAG DBU WELK                          0502
A0101412760000007822144MELENDEZ, EVELYN BACANI                                  0502
A0101412760000002067643PERLAS, CONRADO VERDADERO                                0502
A1901400320000000679147DRJ TRADING AND GENERAL                                 10501
A1901400320000000679147SERVICES                                                20500
A1901400160000009054973FRANCIA, MARIA FATIMA TAN                                0502
A1401400110000008266115YARA, ARNELLEE FAYE AGUNIAS                              0501
A1401400110492635504001TOLOSA, RUBY ROSE ARINO                                  0501
A0101407430503185312003MARIFE VALLADA                                           0501
B0101403580000000383788JER CONSULT CORP.                                        1602
A0101403580511153476004THERESITA S. TIU                                         0505
B0101403580511155828001JOUBERT CONSTRUCTION INC.                                1610
A0101405940000001534327******************                                       0501
A0101411790000004807972MAGDALUYO, PATRICIA SUSANA                               0502
A0101411790518055764208ROMA, MICHAEL LUDOVICE                                   0501
A0101411790518055764300MEDINA, KARLA JEAN MARINAS                               0501
A0101411790518055815069PABIA, MAUREEN GALLARDO                                  0501
A0101411790518055815069PABIA, MAUREEN GALLARDO                                  0501
B0101403450521011852001CHT CAPITAL RESOURCES INC.                               1603
B0101403450521011872001**********                                               1601
B0101403450521021842005WALL VISION CORPORATION                                  1601
A0101403450521238265001**********                                               0502
A0101403450521240285002**********                                               0502
A0101403450521366584001**********                                               0501
A0101403450000008159980***********                                              0501
B0101404130601015014001BC CONCEPTS INC.                                         1610
A0101407720602332201004LIM, MARIA SOCORRO CAEDO                                 0504
A0101407720602397739001LOPA, RAMON ANTONIO BAUTISTA                             0504
A0101407720602399405002THELMA E. RAMOS OR                                      10503
A0101407720602399405002CLAVER P. RAMOS                                         20500
A0101407720602537066001ENJL D. PUNSALAN OR                                     10503
A0101407720602537066001EMIR D. PUNSALAN                                        20500
A0101404260611041714001ALEJANDRO DRUG STORE                                     0501
A0101409890000006812780**********                                               0505
A0101411530000006217523SANTOS, JENNIFER MANGILIT                                0501
A0101413570656057648061CHAVEZ, DIVINA FLORENCE                                  0501
A0101413990000004838091TEJIDO, JEROME BUNAO                                     0501
A1301400340000000926789********                                                 0501
A0101408240000000005181POL CAMACHO SECURITY                                    10502
A0101408240000000005181CONSULTANCY                                             20500
A0101408240711180164001TUPAZ, CORAZON RONQUILLO                                 0501
A2801400100000000004720REYES, MYRA DBU MRC DENTAL                              10501
A2801400100000000004720CLINIC                                                  20500
A2801400100712492404001PINTO, LORENA CABALIDA                                   0501
A4101400260000001198563**********                                               0502
A4101400260812469791001CAROL E. COMIA                                           0501
A4101400260812478374005JENITA Z. PALLE                                          0502
A4101400390000000745299ARAYATA, PHILIP CESAR ABUEG                              0501
A4101400390000006302585ESPINA, MA. LORETTA NICOLAS                              0501
A4101400390813795819001CATABAY, FROILAN CABATUAN                                0501
A4101400420814506413001IBIAS, JOSEPHINE OCAMPO OR                              10501
A4101400420814506413001IBIAS, SEGISMUND                                        20500
A4101400420814520766108ESPANOLA, MERELY C.                                      0502
A4101400420000000710483ESPANOLA, MA. ANGILY CASANDRA                           10502
A4101400420000000710483CARBA                                                   20500
A0101404840000001312554MARIA FE V. MALIG-ON                                     0501
A0101404840851428321001GUTIERREZ, OLIVER OR ROGELIO                             0501
A0101404840851520766144PANA, ZENAIDA C.                                         0501
B0101405070861008411002CASINO ESPANOL DE MANILA                                 1605
B0101405070861031615001MD EXPRESS MANILA, INC.                                  1610
A0101405070861383294001MANLICLIC, ROMANA SOSA                                   0501
A0101405070000003439741ALARO, JHON REY PADURA                                   0501
A0101405070861541808001JANET DASIG DATOR                                        0501
B0101413860000008668744ASIAN CONSOLIDATION INTERNATIONAL                       11603
B0101413860000008668744SERVICES INC.                                           21600
A0101413860000010948202VILLA, MA. THERESA O'LACO                                0501
A0601400230000003015583HERNANDEZ, VILMA VALENCIA                                0505
A0601400230891083893001**********                                               0501
