B0101407300395821100608**********                                               2003
A0101402930010100003649BRAR, MANPREET SINGH                                     0501
B0101402930381022284001INVESTORS ASSURANCE CORPORATION                          1601
B0101402930381033256001BENMARK GROUP HOLDINGS, INC.                             1606
A5501400120410616209008ANG, JOSEPH OR ANG, MA. LINDA                            0502
A4101400420814443810001DORIO, MELANIE AQUITANA                                  0501
A0101401250021406139001FELICIANA C. ADIAO                                       0501
B0101400150061010600001SUAVIS INCORPORATED                                      1612
B0101400150061011150001BORDEAUX MANAGEMENT CORPORATION                          1601
A0101400150061337098062MARIA MYLIN CAYNILA                                      0504
B0601400100081692851001CHIU, TERESITA KOO &/CARLOS KOO &/NELSON                11602
B0601400100081692851001KOO &/ROBERT KOO                                        21600
B0601400360000000978936THE MEDICAL CITY CLARK, INC.                             1610
A0601400520000001120396MANALANG, JAYMAR CAMAYA                                  0501
A0101400440000000060255LOUELLIN L. LIM                                          0501
A0101400440161623684001EDITHA H. VALENCIA                                       0501
A0301400530193044599168INSIDE ROOM INN                                          0502
A0301400660194075360001EGOS, MICHELLE ALBERTO                                   0502
B0301400790000000435727OUR BRIGHT SEEDS, INC.                                   1601
B0301400790195061879003FRANKLIN BAKER, INCORPORATED                             1601
A0101401380201701206001SOLANA, ADELYN TUD                                       0501
B3001400130000001271603RUELAN ENTERPRISES                                       1610
A1001400190000002266628ABEJUELA, RAMON JAVIER                                   0502
A1001400350000004095352PIMENTEL, JOSEPHINE WALTENSPIEL                          0501
A0101401670271482067001DANILA, LOURDES RUBIN                                    0501
A0101410980275076628001TAN, GIAN CARLO UY                                       0501
A0101410980275076628001TAN, GIAN CARLO UY                                       0501
A0101400570281334588001ARACELI ESTEVES ONA                                      0501
A0101400570281361144001ERIC G. IDIESCA                                          0501
A0101400570281508331001MORENO II, MIGUEL MARTIN NOBLE                           0502
A0101411240000001563322CHUA, MARIVIC CHING                                      0502
B0101411240283061941001JUSTRIGHT PHARMACEUTICALS                                1605
A0501400200000002306070ORPIA, MARY HAZELLE BRAULIO OR                          10501
A0501400200000002306070PEREZ, RONALDO P                                        20500
B2601400270302045063001ISABELA UNITED DOCTORS MEDICAL                          11620
B2601400270302045063001CENTER, INC.                                            21600
A3401400280000002323400BELVEDER, PONCE STA ROSA                                 0501
B3401400280318028083002LEMACEL TRADING CORPORATION                              1610
B3401400280000000002320MALLARE, B DBU B&E COMPUTER SALES &                     11601
B3401400280000000002320SERVICES                                                21600
A0101402350000000521479JUANIR, TERESA BARCELON                                  0501
B0101402350000000655538COMGLASCO AGUILA GLASS CORPORATION                       1602
B0101402060351022399001GOLDEN POT N' PAN FOOD SERVICES                         11601
B0101402060351022399001COMPANY                                                 21600
A0201400890000000028059*****                                                    0501
B0101402930381017213018UNIVERSAL ROBINA CORPORATION                            11601
B0101402930381017213018URC - PASSI                                             21600
B0101402930381046346001CONNECTICOM GLOBAL NETWORK INC.                          1602
A0101402930381087949001CAPARAS JR., JOSE LEO LEMUEL D.                         10501
A0101402930381087949001OR CAPARAS, ELER                                        20500
A0101408790383634800001CHERYL B. FAUSTINO                                       0501
B0101402770391031763001SIGMA PACKAGING CORPORATION                              1601
A0101405490000005692500FULE, MARY EVANGELISTA                                   0501
A0101405490392478374008MARGARITA R. CIELO                                       0501
A0101408400394422774001BALLON, MARY GRACE PAYADE                                0501
A0101408950000004512105LUIS JR., LOLITO RODRIGUEZ                               0502
A0101408950000001039394ATIENZA, MARIA ISABEL MANIEGO                            0502
A0101409210000008719371LEE, CHERIE ANG                                          0501
A0301400820000007372821ACLAO, MARILOU G.                                        0502
A2401400180411525470001DE GUZMAN, ERNESTO MANGONI                               0501
A0901400220000006214400**********                                               0502
A0101412890470083434001FELIX VOLTAIRE P LERIO II OR                            10502
A0101412890470083434001NONA D LERIO                                            20500
A0101403320000008719160FLORENTINO, ZANDRO CABOBOS                               0501
A0101403320471483095001MAGLANGKAY, IRENE ESQUIDA                                0501
B0501400170481018109002****                                                     1604
B0501400170481038907001JODERON AUTO SUPPLY                                      1605
A0101407430503403861001AIDA P. PANCHO                                           0502
A0101408110000000380090SANTIAGO, EMMALYN BONIFACIO                              0501
B0101408530000003866115ZP LIFESTYLE TRADING, INC.                               1610
A0101408530000001885750JULIE ANNE MARREY J. CUSI                                0501
B0101411790000000005318REM BUILDERS CORPORATION                                 1603
B0101404000551023227001DZL ENTERPRISES                                          1603
A2201400250000006275738CHARLES, GEORGE CASTRO                                   0501
A2201400250000006275738CHARLES, GEORGE CASTRO                                   0502
A2201400250561478374006ANGELINA P. QUIBALLO                                    10501
A2201400250561478374006MEMBERS OF NATASHA                                      20500
A0101407720000006627898COLAYCO, JOSE VICENTE TORRES                             0502
A0101407720602342947001JOHANNA MARIE SISON                                      0501
A0101413570000001720230MIRANDA, IRENE JAPON                                     0501
B0101406590662018451001ROTARY CLUB OF LOYOLA HEIGHTS                            1601
A0101406590662044702001PTS TUTORIAL AND REVIEW SYSTEMS                          0502
A1301400500000007096520BAUTISTA, SHIELA MARIE OR                               10505
A1301400500000007096520BAUTISTA, ERICKSON                                      20500
A1701400230693711027001AGUSTIN, FERDINAND MENOR                                 0501
A0101408240000003955453CARLOS, ANNJENNET LORAYA                                 0501
A0101408240711530089001JEON, WOONG RYE                                          0502
A0101408240711568686001RAFER, JENNIFER PACAO                                    0503
A2801400100712358472001DECENA S. IGNACIO                                        0510
A4101400260000006043049FALIC, JEANNETTE RUGA                                    0502
A4101400390813406195001LAO, LEONARD OR LAO, SUSANA                              0505
A4101400420814520766110DELA CRUZ, ARMINDA E.                                    0502
A4101400420000004848028EMMA A. MARSHALL                                         0501
B4101400550000000900092MC BASSIG CATERING SERVICES, INC.                        1603
B4101400550000003387973RICHLANE GENERAL MERCHANDISE, INC.                       1610
A0101412340000001017689GILBERT V. GENESE                                        0501
A0101412340000003345333PAUL IVAN A. PEREZ                                       0501
A0101412340000003719180MICHAEL JOHN A. LAPORGA                                  0501
A0101412340000005448397RODA C. ORTIZ LUIS                                       0501
A0101404840851046725003MENDOZA, MA. IRNA M.                                     0502
B0101406750852063980001FORECOURT UNLIMITED, INC                                 1601
B0101406750852063981001FORECOURT COOPERATIVE                                    1601
A0101406750000000173022DE GUZMAN, VERONICA RAFAEL                               0501
B0601400230891028240001SUPER BIKES CENTER BRANCH FUND                           1601
B0601400230000001062366BEARING CENTER & MACHINERY, INC.                         1601
A0601400230891454850001WILLIAM J. NACIONAL                                      0503
