B0101407430503821100608**********                                               2020
A1101400120000006081103BACSAL, EMMYLEEN BATAWAN OR                             10503
A1101400120000006081103BACSAL, DAVID DACUNOS                                   20500
A1101400120000001547235DUGANG, JESSA EBIT                                       0502
A0301400790000001010619CABASAG, JEY R LAGONOY                                   0501
B1101400120000006186872COASTALVIEW FOODS CORPORATION                            1602
B0101410300000000191586******                                                   1602
A0601400360000011032218AGANON, FERDINAND PEREZ                                  0501
A0101400570281553109002ENRIQUE DELGADO COJUANGCO JR.                            0501
A1101400120000006186423VEGA, JILIE UY                                           0501
B0101402930000005645912ARTISTESPACE INC.                                        1610
B0101400860011386371002**********                                               1602
A0101400860011410778002**********                                               0510
A0101401250021179015001BUNYE, EMILINA DELA CRUZ OR                             10501
A0101401250021179015001BUNYE, ERWIN                                            20500
A0101401250021468980001GENELYN C. CARTON                                        0502
A0101400150061520044001CRUZ, ASHLEY JAY SARGAN                                  0502
A0101400150061520044001CRUZ, ASHLEY JAY SARGAN                                  0502
A0101400600071233725001**********                                               0505
A0101405810072234892001**********                                               0501
B0601400360000000978936THE MEDICAL CITY CLARK, INC.                             1610
B0101413730000005316212GARCIA, MYLENE QUIAMBAO                                  1601
A0101410560000005836291PAULO G. QUIZA                                           0503
B0101410560110045564001S.M. LAZO MEDICAL CLINIC, INC.                           1610
B0101400730111008382002JEMARA INTERNATIONAL FREIGHT                            11602
B0101400730111008382002SERVICES INC                                            21600
B0101406040000000096800*********                                                1605
B0101401960121238762001VICENTE CO                                               1601
B0101413310133069200001AZYANTECH CORPORATION                                    1601
B0101412920000000042071SW TRAVELTIME INC.                                       1602
B0101407270162031640001RVG SPARROW HOLDINGS INC.                                1602
A0101407270162374976001GARCIA, ROBERTO VILLASENOR OR                           10502
A0101407270162374976001GARCIA, MARIA BA                                        20500
B0101401090171007908001PERPETUAL SUCCOR HOSPITAL &                             11606
B0101401090171007908001MATERNITY, INC.                                         21600
A0101401090171199911001AUGUSTO OR MA. VICTORIA PIA                              0502
A0101401090171280240004FLORES, MERRIAN RAMOS                                    0501
A0101401090171358533001ANTHONY S. DOMINGO                                       0501
A0301400530193047804088**********                                               0502
B0301400660000003368336JCSPLAS AND INDUSTRIES CORP.                             1602
A0301400660194498945088*******                                                  0502
A0301400790000001010619CABASAG, JEY R LAGONOY                                   0501
A0301400790000001776138ESCAMIS, JOSE PACLAR DBU                                10501
A0301400790000001776138ESCAMIS BUILDERS                                        20500
A0301400790000001776138ESCAMIS, JOSE PACLAR DBU                                10501
A0301400790000001776138ESCAMIS BUILDERS                                        20500
B0301400950000002115840DAVAO BARRIO BISTRO, INC.                                1604
A0301400950000010424881TWENTY-TWENTY INTERIORS AND                             10501
A0301400950000010424881FURNISHING                                              20500
A0101401380201066144002PARTOSA, DBU CARDJILLLY LAND                            10510
A0101401380201066144002SUPERMARKET                                             20500
A0101410720653528817001VINCENT GONZALO SY OR TIMOTHY                           10502
A0101410720653528817001JON SY OR JULIE                                         20500
B0101412500214055614001A.D.P.P. TRUCKING SERVICES CORP.                         1603
A3101400160000008941453JULIANO, JOSEPH ALABADO                                  0501
A3101400160000001559286MICHELLE ROXANNE S MALLARI                               0501
A3101400450223501361001ALVERO, MERLY OR RACHEL                                  0505
A3101400450223702062001BALBUENA, BENIZON BIRON OR                              10501
A3101400450223702062001KIM, SUN                                                20500
B1001400190231027039001CORPUS CHRISTI SCHOOL, INCORPORATED                      1620
B1001400350233036049001RANTRADE INDUSTRIAL SALES CORPORATION                    1601
A1001400350000000017165MEN DBU A&L MARKETING SOLUTIONS                          0501
B1301400470000007862857F.V. DYSICO RICEMILL & TRADING                           1602
A1301400760000000050502SALIENTES, ZOILO HIDALGO                                 0501
A1301400760000001295483LRCAPON TRUCKING SERVICES                                0503
B1301400760000000050871ENCORE LEASING & FINANCE CORP.                           1601
A1901400290000011413577DE GUZMAN, DENNIS SOLOMON                                0501
B1901400290261049824001BONLOU, INC.                                             1610
A1901400290261490189001CARLO JOSE V FUENTEBELLA OR                             10505
A1901400290261490189001SARAH SUZANNE FUENTEBELLA                               20500
A0101401670000002341657**********                                               0501
B0101406460000000712769BARON 3 GARDENS CONDOMINIUM CORPORATION                  1603
A0101406460272377244001ALA, JESSIE ATENTA                                       0501
A0101406620000003661421ROBLEZA, RICHARD DALE                                    0501
B0101411820000003085094MEDINFINITY INC.                                         1602
B0101400570000011364760ALL TIME RETREADERS CORP.                                1603
A0101400570281186603001DR. RESTITUTO C. BUENVIAJE                               0503
B2601400270000000020639IGNACIO DATU OR WILMA DATU                               1625
B0801400160311043928001DELIFRANZ BACKEREI, INC.                                 1602
A1101400120000006080844TIU, LUCHIE LACAMBRA                                     0501
A1101400120000006186809SALCEDA, ETHEL ORBITA                                    0501
A2901400130000005961162SALAS, MICHAEL MANANSALA                                 0502
B0101402350321037880001UNITRADERS ALUMINUM & GLASS CORP.                        1602
A0101402350321427762001CHOY, ENG FAN OR                                        10502
A0101402350321427762001MILA B. AQUINO                                          20500
B0101405650322020812001JOHVER LENDING INVESTORS, INC.                           1602
A0101402510000011325243ANDRES, MYLETTE VELASCO                                  0501
A0101402510341069202001PUCHERO, M DBU NBON ENTERPRISE                           0501
A0201400760000001107511OQUIAS, JOCELYN LIM                                      0501
A0201400890376272044001LEE, JOSEPH KENNETH GUEVARRA OR                         10503
A0201400890376272044001LEE, MA. CARMEN                                         20500
A0201400890376535273001TOLEDO,HAROLD XAVIER OR CLIMACO                         10502
A0201400890376535273001BRYAN OR GUEVARR                                        20500
A0201401020000000055941OUANO, RAQUEL DELIGENCIA                                 0502
A0201401020377085340001MAGALSO, LESLY COMISO                                    0502
A0101402930000010657840VILLAREAL, JENNIFER TIPDAS                               0501
B0101402930000005645952FARMFRESHFORYOU CORPORATION                              1601
A0101408370382033302001DR. ANTHONY KING & PARTNERS                             10503
A0101408370382033302001CARDIAC                                                 20500
A0101408370382410095001DR. EDNA C. BANTA                                        0510
A0101408370382631595001DR. DOMINADOR A. ACOSTA JR.                              0502
A0101408370000009296728FATIMA ANGELICA B. CAMPANA OR                           10502
A0101408370000009296728IMELDA B. CAMPANA                                       20500
A0101411660000001145766*****                                                    0501
A0101405490392225879001DE LUNA, SOTERO B. OR                                   10502
A0101405490392225879001DE LUNA, AIDA S.                                        20500
A0101408400394412577001REYES, EMMANUEL JOHN JOCSON OR                          10502
A0101408400394412577001REYES, MARY GRAC                                        20500
A0101408400000001855450EVANGELINE I. ALIGATO                                    0503
A0101408400394566645001SIMON, SUSAN BABOL JT                                    0501
A0101408400394604389001MOLINA, LORETO OR                                       10501
A0101408400394604389001MOLINA, JEANNETT                                        20500
A0101408950000008554223JUSON, AQUARIUS TAMAYO                                   0501
A0101409180000005326603IBARDELOZA, ANNALYN SIABOC                               0502
B5501400120000005492526DELA PENA, MARIA HENRIETTA CHIU  JT                      1603
B2401400180411034414001DADIANGAS GLASS AND CONSTRUCTION                        11605
B2401400180411034414001DEPOT, INC.                                             21600
A0101403030000011736231**********                                               0501
A01014030304414819410015*********                                               0502
B0101403320471068525001XELAND, INC.                                             1605
A0101403320471478374055BENITO OR REYZEL ESLABA                                  0501
A0101406330472027958001A. ANOLIN ENTERPRISES                                    0502
A0101406330000000683216MASCENON, ALEXANDER BENEDICT                            10502
A0101406330000000683216DE GUZMAN                                               20500
A0101406330000000451249SITYAR, MA. DOLORES SORIANO                              0503
A0501400170000005002975LO, JOHN ALVIN DY                                        0501
A0501400170481046585002ANG, JUSSLYNN DBU                                       10504
A0501400170481046585002AVS DISTRIBUTION                                        20500
A3801400170000001698097ILAO SR., ANTONIO REYES  OR                             10501
A3801400170000001698097ILAO, MARRIETA A                                        20500
A0701400260000005303702TAGUPA, MARIA CECILIA TOLENTINO                          0503
A0101407430000005358556VERMA GAY D. BONAOBRA                                    0501
A0101407430503069192001VGFT FARM                                                0501
A0101407430503445064001MA TERESA C. MOHAMMAD OR                                10501
A0101407430503445064001ALVIN F. COLLANTES                                      20500
B0101403580511005170001JOLOU REALTY AND DEVELOPMENT CORP.                       1601
B0101403580511279958001AGAPITA PROPERTIES, INC.                                 1601
A0101403580000000016053MARIA CARMINA S. MESIAS                                  0506
A0101405940000000061721ALAGAR, DENNIS LIMLINGAN                                 0501
B0101408530516005188001SEARCHERS & STAFFERS CORP.                               1610
A0101411790000002276086LOZANO, CARLITO CULASI                                   0502
A0101411790518055764371BANBAH, MUNISH                                           0504
A0101403450000001638075ACUNA, TERESITA CABRERA                                  0505
B0101403450521011968001**********                                               1602
B0101403450521020045001REZCOAT INC.                                             1601
B0101403450521047163001PACIFIC WORLD PLAZA INTERNATIONAL                       11601
B0101403450521047163001DEVELOPMENT CORP                                        21600
B0101403450521047169001SEMPCO REALTY DEVELOPMENT CORPORATION                    1601
A0101403450000001769913**********                                               0501
A0101403450521622520001**********                                               0501
B0101403610531036390001PETROPLAS TRADING INC.                                   1602
A2201400250561478374006ANGELINA P. QUIBALLO                                    10501
A2201400250561478374006MEMBERS OF NATASHA                                      20500
A2201400250000004916161HAROLD WILSON G. GRIVAS                                  0501
B0101404130601100159001PHIL-DATA BUSINESS SYSTEMS, INC.                         1604
B0101404130601150036001ANGELO KING FOUNDATION, INC.                             1602
A0101404260000001725515NORA B. VALENCIA                                         0501
B0101409890000007373200IHEARTMNL INC.                                           1603
B0101407690652041404001AUBURN POWER TECHNOLOGIES INC.                           1601
A0101407690652173311001RS JARDIN & ASSOCIATES                                   0505
A0101407690652609264005AUGUSTO S. DE JESUS OR                                  10502
A0101407690652609264005MILA S. DE JESUS                                        20500
A0101413570000001682486STEVENS, MARIA ME DBU BMJ INTL                           0501
A0101414120000011288863TORRALBA, MA. EMILIA ASIS                                0501
B0101414120000001984223SOUTH SEA DEV'T. CORP.                                   1603
A1301400210000005040577**********                                               0501
A1301400210682328520001DARIA OR EDUARD REBADOMIA                               10501
A1301400210682328520001OR EDUARD REBADO                                        20500
B0101408240711029537001ED LINK FOUNDATION, INC.                                 1602
A0101408240711396778001MA. FRANCESCA ROMANA OR                                 10501
A0101408240711396778001PHILIPPE SEYER                                          20500
A0101408240711498350001TARUC, RONEL YAMBAO                                      0501
A0101408240711587321001TUBILAG, ROSALITA MARANCA                                0502
A2801400100712584654001GARCIA, RACHELLE EDELO       OR                         10501
A2801400100712584654001GARCIA, EMMANUEL                                        20500
B2801400230000005253703CAYSING MARKETING                                        1602
A4101400390000000034102ABAINZA, ROSALIE BARNUEVO                                0501
A4101400390813037789001SUDS PLUS LAUNDRY SERVICES                               0501
A4101400390813040522001ARAO MACHINE AND WELDING SHOP                            0501
A4101400390813478374045FIRMALINO, MELECIA ATIENZA                               0502
A4101400390813499102002ARAO, MA. LOUELLA RICASATA                               0501
A4101400390813779066001RILLERA, RHEA RESOL                                      0501
A4101400420000003715553********                                                 0501
A4101400550000000005950SEGURITAN, JOCELYN DBU SFC                              10506
A4101400550000000005950OFFICE FURNITURE                                        20500
A0101412340000004988856JOB REY M. CATUNGAL                                      0501
A0101412340000006047150JOEY D. CALIMLIM                                         0501
A0101412340000009207905MARK S. RASTRULLO                                        0501
A0101412340000004360832DANTE M. CRIZALDO                                        0501
B0101404840000000090242SOUTHHILL MEDICAL SPECIALISTS, INC.                      1650
A0101404840851681382001PALOYO, CHONA DE VILLA                                   0501
A0101406750000011106997TUMAMBING, LYNETTE LLAVE                                 0501
A0101406750852478374004IMELDA TAGUNA                                            0501
A0101406750852478374027ELENA HINUNANGAN                                         0501
A0101406750852478374106LETICIA P ALCAIDE                                        0501
B0101405070000000028862WELL CARE SKILLS TRAINING AND ASSESSMENT                11610
B0101405070000000028862CENTER INC.                                             21600
A0101405070000006006133CO, LOLITA SIM OR                                       10501
A0101405070000006006133CO, YVETTE SIM                                          20500
A0601400230000003016031LAMPA, ADRIAN CARLO PANGILINAN                           0503
