B1101400120313821100608**********                                               2002
A0101411790518055764053BELLODO, ATHENA CREEZEL                                 10501
A0101411790518055764053BORBORAN                                                20500
A0101411790518055764168GUEVARRA, GALVIN LISING                                  0501
B0101412760476821100608**********                                               2010
A0101405490000006214080***********                                              0502
A0101405490392034138001MCMAR & MARY ELECTRICAL                                 10501
A0101405490392034138001& CONSTRUCTION S                                        20500
A0101405490392473595001REMBERTO Q. CALIP JR. OR                                10502
A0101405490392473595001MYRA C. CALIP                                           20500
A0101408400000005286524GARCIA, MUSTIOLA STA. ANA                                0501
A4101400420000007305473DURAN, RODOLFO MONGALO DBU                               0501
A4101400420814506413001IBIAS, JOSEPHINE OCAMPO OR                              10501
A4101400420814506413001IBIAS, SEGISMUND                                        20500
B0101400150000006004080BRONZEOAK CLEAN ENERGY INC.                              1602
A0601400100081023131001ADYR TRADING                                             0506
A0601400100081251939002ELIZARDO OR WILMA MARTINEZ                               0502
B0601400100081295398001MALLARI JR., DIOSDADO OR MARY GRACE                     11604
B0601400100081295398001FAO O2 DESIGN                                           21600
A0601400360000000225243SY, JAIME BARRAMEDA                                      0501
A0101413730000000469205******************                                       0502
B0101407980123821200608**********                                               2003
A0101412920000003464891SOLEDAD, HELEN LUCERO OR                                10501
A0101412920000003464891SOLEDAD, BIANCA                                         20500
B0101412920000005354241TABAYOYONG, DENNIS ILUSTRE DBU SMG                      11602
B0101412920000005354241CONSULTING ENGRS                                        21600
A0101400440161039572023JIMMY S. PALISOC                                         0503
A0101400440161478374181GERALDINE N. CUTLER                                      0501
A0101400440161591337001JENESSEY A. RANCES OR                                   10502
A0101400440161591337001JESSIE O. RANCES                                        20500
A0101407270000006265329DASWANI, MEENA T.                                        0501
B0101407270162019023001PHILIPPINE BATTERIES,                                   11605
B0101407270162019023001INCORPORATED                                            21600
B0101407270162019026001RAMCAR TECHNOLOGY, INCORPORATED                          1605
B0101407270162063089001REALITY ENTERTAINMENT, INC.                              1603
A0101407270162293484001MA. TERESA E. GANA                                       0502
A0101401090171335675001ANNIELYN I. CAAG                                         0501
B0301400530000007345522REPHIL ANTIPOLO INC.                                     1602
A0301400530000007345464DE GUZMAN, JASMIN ALINDAO DBU                           10501
A0301400530000007345464BEA MARKETING                                           20500
B0101401380201034271004LC BUILDERS AND DEVELOPERS, INC.                         1604
A0101401380000001412720BARRETTO, STEWART LIM                                    0501
B0101413600000004661552INSTALINK TRADING CORPORATION                            1602
A3101400160221220150002ANGELITO LAZARO OR MARCIANO PUA                         10502
A3101400160221220150002OR LEONILO ERCIA                                        20500
A3101400450000003072493ABANTE, NELDA LIMBO                                      0504
A3101400870000000957666MARASIGAN, JAMES ILAGAN                                  0502
A3001400130230478374028MAGLASANG, ELIZABETH DAHANG                              0502
A1001400190231283324001GICABAO, BENY CHAN OR                                   10501
A1001400190231283324001GICABAO, VILMA A                                        20500
A1001400190231478374179BACAN, JULIET                                            0501
A1001400350233478374020ELMA O. GAWAT                                            0501
A1001400350233533309001MARIO JOSE A. SIA / CAGAYAN DE                          10503
A1001400350233533309001ORO HARDWARE AND                                        20500
A1901400290000003435663ANNALIZA PANGANIBAN GAMEZ                                0501
A1901400290000009031641MARIA ARLENE BRIONES DE VEYRA                            0501
B1901400290261012565001RURAL BANK OF SAN ANTONIO (QUEZON) INC.                  1601
A1901400290261040973001ICT-ED INSTITUTE OF SCIENCE AND                         10503
A1901400290261040973001TECHNOLOGY, INC.                                        20500
A1901400290261244456001LEO YAP ONG OR                                          10505
A1901400290261244456001MEI MEI YULO ONG                                        20500
A1901400290261298552022ALVIN DEL ROSARIO MAGNAYE                                0502
A1901400290261478374240LIZA CUADRA REANO                                        0501
A1901400290000003252720DIVINA GINA SANGALANG DE CASTRO                          0501
A0101401670271745163001ONG, CHRISTOPHER ALLAN L. OR                            10501
A0101401670271745163001ONG, ANNA LISA C.                                       20500
B0101406620000000962432ORTIGAS TECHNOPOINT REALTY INC.                          1603
A0101406620273215980002GLORIA CHOA CHUA                                         0501
A0101408660000006296622ARANETA III, VICENTE MARTIN WOR                          0501
A0101410980000002987086**************                                           0502
A0101411110000000009112DOMINGO P. PANLILIO                                      0503
A0101400570000001134241RUTH A. PELINGEN                                         0501
A0101400570281258962001POOTEN JR., JAMES BAGANO                                 0501
A0801400160311478374008RODELYN LEBUNA                                           0501
B0801400160311494221001JUCABAN, LEO LAGOS                                       1601
A1101400120000005608260SANITA, ERIC SALIENTE                                    0501
A1101400120313708044001CAPUNGCOL, ROMMEL DE PAZ AND                            10503
A1101400120313708044001TAN, JOSE VAN PACUANCUAN                                20500
A6601400120314042312003NORSAM BUILDERS & CONSTRUCTION                          10503
A6601400120314042312003SUPPLY                                                  20500
A3401400280000000156621DELA CRUZ, LOIDA GARCIA                                  0502
A0101402350000003080479SANTOS, JULIE ANN PASCUA                                 0501
A0101402350321478374058DELA CRUZ, MERLITA GABON                                 0501
A0101402510000000200175BARTOLOME, MAAN ROSE TIBERIO                             0501
A0101402510000000200153LPR GRAPHIC DESIGNS                                      0501
B0101402060351038390001MC SHIPPING CORPORATION                                  1603
A0201400920000002250011FELIX S. TAN OR SANDRA MAE TAN                          10501
A0201400920000002250011OR SAMANTHA ALYSSA Y. TAN                               20500
A0201400890000000028059*****                                                    0501
B0101402930000003734861POLICARPIO & ACORDA LAW OFFICE                           1601
A0101402930381205350002MARIANO BONDOC/LOURDES MILADEL/                         10506
A0101402930381205350002JUAN MIGUEL BOND                                        20500
A0101402930381352790001ROGELIO G. SIQUIAN JR.                                   0503
A0101408370000009442213LEE, JEUNESSE TOLEDO                                     0501
A0101408370382398259001DR. MARIA LIZA ASUNCION M. CRUZ                          0503
A0101415350000006733920DE JESUS, IRALYN REFORMA                                 0502
A0101402770391472751004DE GUZMAN, JERVIE RACELIS                                0503
A0101405490000003178421REYNON, RANDY FARAON                                     0502
A0101408400000007540076CARAG, MARC HENRY BUCALING                               0502
A0101408400000004959533VILLARENTE, JULITO SANATE                                0502
A0101408400394033958001RCBP-STA MARTHA PARISH                                   0505
A0101408950396407910001YOUNG, MELISSA LO                                        0502
A0101409180000000874642VILLENA IV, GODOFREDO GACAD                              0501
B0101409180397670520001CASAEUROPA INC.                                          1604
A5501400120000002019090PENDON, NIXONLIE PASTRANA                                0502
A5501400120000002019103PENDON, VENISE NICHOLE VILLOREN                          0502
A5501400120000002348290BASILIO, STEFEN ENDAYA                                   0502
A5501400120410645073001GARCIA, LILIBETH L. OR GARCIA                           10502
A5501400120410645073001JOHN M.                                                 20500
B2401400180411033387008BIBIANA FARMS AND MILLS, INC.                            1605
A2401400180000007031745REGALADO, RONALD SABORNIDO DBU                          10501
A2401400180000007031745REGAL MOVERS                                            20500
A2401400180000007031892TRIPLE M PRAWN FARM                                      0505
A2401400180411478374062DAVIS, PEPITO MALINAO OR                                10501
A2401400180411478374062DAVIS, BERNADITH                                        20500
A2401400180000001935913PERALES, EVARISTO TAN                                    0501
B2401400180411588207001ANG, CYRIL OR ANG, EVELYN OR ANG, CYNRIC                11605
B2401400180411588207001OR ANG, CLINTON                                         21600
A0901400220000006214386D' RANGER SECURITY AGENCY, INC.                          0502
A0101403320000009449027LLOYD CHRISTIAN D. PANGILINAN                            0501
B0101403320471030317001UPLIFT PHILIPPINES INC.                                  1610
A0101412760000001399351SACDALAN, JULIET HALILI                                  0502
A0501400170000002357651SIMON, NIEL ANGELO TAN                                   0501
A0501400170000006300583LIM, CELIA CHUA                                          0502
B0501400170481018109002****                                                     1605
A0501400170000002354678DECENA, ALFREDO AQUINO                                   0504
A1901400160000009446562BALITA, HERMINIA PEREZ                                   0501
A1401400110000003988974REYES, JEFFREY ENRILE                                    0501
A1401400110000009447765CAGUITE, JUNE MERANO                                     0501
A1401400110492604392001ARROYO, RENANTE ONGJUNCO                                 0501
A0101407430503278586004ANTOLIN M. SOSA JR.                                      0510
A0101403580511150648001MANUEL A. POBLADOR                                       0502
A0101405940000003121933KIDDER, GARY PHILLIP OR                                 10502
A0101405940000003121933KIDDER, AMELIE MARIE                                    20500
B0101405940512005556001THE FLOWER FARM CORPORATION                              1605
A0101408110000008396738VILLACORTE, HAZEL ESTEVES                                0502
B0101408530000003866126HOPPLER INC.                                             1602
A0101408530516513043001GUINGONA, MA. VICTORIA G. OR                            10501
A0101408530516513043001LORENZO, MARIA F                                        20500
A0101411790000000005381********                                                 0502
B0101403450521021789001**********                                               1602
A0101403450521237789001**********                                               0501
A0101403450521240099001**********                                               0501
B0101403610531010019001SEPP MARKETING, INC.                                     1601
A0101403610531777113001MENDIOLA, JO RYAN LITONJUA                               0501
B0101404000551029313001SUBIC WEST INTEGRATED DEVELOPMENT                       11603
B0101404000551029313001CORPORATION                                             21600
A0101404000551387815001PARAFINA, ELENA PARCO                                    0501
B2201400250561428755001*****                                                    1603
A0101404260611392885001BANTA, EUGENIA TAMAYO                                    0501
A0101409890000002326741ROJAS, RAYMOND DE VERA                                   0502
A0101409890000006812791**********                                               0501
A0101409920650478374005CRISOSTOMO, MA. EMELIA GASPAN                           10501
A0101409920650478374005MEMBERS OF NATAS                                        20500
A0101413440000000702418GARCIA, GREGORIO REY DBU                                10501
A0101413440000000702418SUPERMASTER'S INSURANCE                                 20500
A0101413440655054550001SOMETHING DIFFERENT BAKESHOP                             0501
A0101413990000002273941CARAMANZANA, EDGAR MABORANG                              0502
A1301400210000005040577**********                                               0501
A1301400210000007669187ONO, GEMMA ELUMBA                                        0502
A1301400210682356262001MIGUELITA M. VINTA OR                                   10501
A1301400210682356262001SOLOMON T. VINTA                                        20500
A1301400210000000540914RAMOS, ALLAN BAUTISTA                                    0501
A1301400210000000540914RAMOS, ALLAN BAUTISTA                                    0501
A1301400340683361153001LICAROS JR, ALEJANDRO LAGPAO OR                         10502
A1301400340683361153001LICAROS, ELSA R.                                        20500
A1301400500000007096611SHERRYL JAEN                                             0501
B0101408240711041799001POWERSHADES TRADING                                      1602
A0101408240711448793001CARLO B. MAGNO                                           0501
A0101408240711699904001LO JR., ROGELIO AMBE                                     0501
A4101400260000001783924GARCIA, GEWYN RAMOS                                      0502
A4101400260000006043129BATALLER, APRIL R.                                       0501
A4101400390813377498002FRANCISCO, AMELIA DY                                     0502
A4101400390813426577003TAPAWAN, MYDA COLUMNA                                    0501
B4101400420814043163001VAYAO WAX MANUFACTURING INC.                             1602
A4101400420814457337002ORDONEZ, JANE M. OR                                     10501
A4101400420814457337002ORDONEZ, JOSE IBARRA                                    20500
A4101400420814520766004SALVACION D. BITANCUR                                    0501
A0101412340000004877283LORIEDEL M. GARCIA                                       0501
A0101412340000008947128JAMIELYNNE D. WANG                                       0501
A0101412340000009441390DE PERIO, ROMINA RIVERA                                  0502
A0101404840000005396847LACHAONA, DESTRY CHA-ALAN                                0501
A0101404840000000122658MARIFE DE CASTRO                                         0501
A0101404840851298552067EMERENCIANA P. BOMBAY &/OR                              10501
A0101404840851298552067JEREMY P. BOMBAY                                        20500
B0101406750000005608540PRO BEATBOX ENTERTAINMENT CONCEPT C                      1605
B0101405070000000028873SHIN SEKAI CORPORATION                                   1603
A0601400230000002650120CAO, MARIA THERESA TUBIG                                 0501
B06014002300000060452907R FINANCE CORP.                                         1605
