B2601400270302821200608**********                                               2003
A2001400290315055993001K. ELMAN CONSTRUCTION                                    0501
B0101412890000000006919VAMECA FOODS INCORPORATED                                1603
A2001400290315478374001MEMBERS OF NATASHA (SHOECAT INC                         10502
A2001400290315478374001ABANTE JR., FELI                                        20500
A3401400280000000972783DELA CRUZ, EMILIO BILLONES                               0501
B1901400160491050626001STCJ MULTIPLE INTELLIGENCE SCHOOL, INC.                  1602
A1901400160491247764001MARITES E RAMIREZ                                        0501
A1901400160491307939001EDWIN P CHUA OR EDDIE P CHUA                             0504
B0101412050000001499881COOLAIRE CONSOLIDATED INCORPORATED                       1601
A0101400860011086656001**********                                               0503
A0101400860011473146002*********                                                0502
A0101400860011517164002**********                                               0502
A0101401250000000460688MAGNO, FLORENCE UY                                       0502
A0101401250000004374583CASTA, LORENA L.                                         0502
A0101400150000003217978MARIA DENISE G. RUBIO                                    0502
A0101400150061227290001EBALDE, MA. VICTORIA QUIAEM                              0501
A0101400150061341283001DIAZ, CYNTHIA MARTINEZ                                   0501
A0101400600071031379001MFT! ENTERPRISES                                         0504
A0101413730000000144578**********                                               0501
B0101400730111039580001SIXDEGREES INC.                                          1601
A0101400730111334903020SALAZAR, MARIAN TUBIG                                    0502
A0101400730111386485063LYNETTE E. BENDANILLO                                    0501
A0101401960121452871001VIENNA MARIE GUANLAO                                     0505
A0101407270000006398236HERRERA, LAI NGAR A                                      0501
A0101401090171199858001RODELIO DOMINGO LIM                                      0501
A0101401090171331804002CAROLYN R. DAYRIT                                        0501
B0301400530193037796168WANSE COMPANY, INC.                                      1604
A0101401380000000682571ANGSIOCO II, JOVITA DIMAFELIX                            0501
A3101400450000002330438PAGUIA, ALBERTO ANGELES                                  0502
B3101400450000000014159FANTASTIC WEB GAMING CO.                                 1602
A3101400450223701659001GRANT INSTITUTE OF TRADE AND                            10505
A3101400450223701659001TECHNOLOGY                                              20500
B3101400740000000013889IM DIGITAL PHIL INC.                                     1605
A3101400740224369648001CHO, MA. CECILIA SAMUYA                                  0501
A3101400740000002634711CACAO, BETTY NALZARO                                     0501
A1001400190000002170667RICHEL S. LOKING                                         0501
A1001400190231731854001APDIAN, BETCHEROS OTOC                                   0501
A1001400350233528720001DUMALAOG, ARNEL GUERRERO                                 0502
A1001400480000001054671SOLIMA, ELEUTE DBU EBSO ENTERPR                         10505
A1001400480000001054671ISES OR SIO, ELEUTERIO                                  20500
A1301400760000001295483LRCAPON TRUCKING SERVICES                                0504
A0101401670271192058001CARMEN V. SEGOVIA                                        0504
B0101406620273046416001FIRST SHELTER VENTURES & REALTY CORP.                    1610
B0101408660274038268001AVO AIRVENT INCORPORATED                                 1601
A0101400570000003891441LEGASPI, MELANIE SONON                                   0502
A0101400570000003891452LEGASPI, MELANIE SONON                                   0502
A0101400570000003891521YU, LESTER CO                                            0502
A0101400570000003891561YU, LESTER CO                                            0502
A2601400270000000561573RUFINO M. BUTAC JR. OR                                  10503
A2601400270000000561573MELISSA B. BUTAC                                        20500
A2601400270000002257172RINSTON R. SERNA                                         0502
A2601400270000002257274FRANCISCO B. ACORDA                                      0502
B2601400270302047202001UY, EDGARDO PUA DBU AGAT MULTI GRAINS                   11604
B2601400270302047202001CENTER  JT                                              21600
A0801400160000000009492LORING, MARIA IA JOY ESPINOSA                            0502
A6601400120314041602001LEXTAN GENERAL MERCHANDISE                               0502
B2001400290315044204001ACEBANK CREDIT, INC.                                     1601
A3401400280000000784692VISTA, LECEL CERILO                                      0502
A0101402060351214812002BANTIGUE, WILLIAM OR ANGELITA                           10502
A0101402060351214812002OR JOHN PAUL OR                                         20500
B0101408790383042893001UNIBAG POLYSACK CORPORATION                              1601
B0101411660000002808080QUANTUM AMUSEMENT CORPORATION                            1602
B0101405490392518855001ISABELLE ROYAL HOTEL & SUITES INC.                       1603
A0101408400000002273252LUCZON, LANIER CABADDU                                   0501
A0101408400394031949001ROBIMIKO ENTERPRISES                                     0503
B0101408400394047325001VICLOR MICROLENDING INVESTOR                            11602
B0101408400394047325001CORPORATION                                             21600
A0101408400394478374090MARY DUMASLAN                                            0501
A0101408400394592886001MARTINEZ, SHERYL ANN GECALE                              0503
A0101409180000003310232HERNANDEZ, RAFAEL ANTONIO E. OR                         10501
A0101409180000003310232HERNANDRZ, MARIA ELENA C.                               20500
A0301400820000005196790NARCISO JR., AGUSTIN OR                                 10504
A0301400820000005196790NARCISO, SHIRLEY                                        20500
B0301400820000002106274LETRERO JR., MAMERTO DBU KJL ENTERPRISES                11605
B0301400820000002106274OR GEOSILYN                                             21600
A2401400180000006038280LEDESMA, JULIE ANN CALISTERIO                            0502
A2401400180411478374056GALINDEZ, IRENE AGCAOILE                                 0501
A1201400150421685972001JUCUTAN, HEIDI BONDAD OR                                10504
A1201400150421685972001JUCUTAN, ROMMEL                                         20500
A0101412760000002262842MERON, ELIZA VILLANUEVA                                  0502
A0501400170481367892001XXXX                                                     0510
A1401400110492222234003MARTINEZ, FERNANDO PELIPADA OR                          10504
A1401400110492222234003MARTINEZ, MA. LU                                        20500
A1401400110492364401001RAFA,RAQUELITA OR RAFA, RENE OR                         10501
A1401400110492364401001RAFA,REI ANTHONY       JT                               20500
B1601400170000000036035SIX IN ONE CORPORATION                                   1603
A1601400170000000421149EVELYN B. DELVO                                          0502
B0101407430000001213125GLOBALAIR LYNX INC.                                      1605
B0101407430503414740001ORBIT AIR SYSTEMS, INC.                                  1610
A0101403580000000016071VILLALUZ, ERNESTO GILERA                                 0503
B0101403580511005188001SEARCHERS & STAFFERS CORP.                               1605
B0101403580511005607002RAM FOOD PRODUCTS, INC.                                  1605
B0101403580511015363001MILLENNIUM ERECTORS CORPORATION                          1610
A0101403580511156599049MARTIN MONARBA                                           0501
A0101403580511558749001HENRY D. ANTONIO                                         0503
B0101408530516037477002VXI GLOBAL HOLDINGS B.V.                                 1605
A0101411790518055764247MACARAYA, ROMEO POLISTICO                                0501
A0101412050000000890882********                                                 0502
A2201400250561315662002LAARNI M. TARRONAS OR                                   10502
A2201400250561315662002RICHARD S. TARRONAS                                     20500
A0101407720602342846003ABLIS-SUN, MARIA LENA DIMAANO                            0501
A0101407720602604028001RODRIGUEZ, ANDREI RHONEIL M.                             0505
A0101413990000000631883NEBRIA, ESTER P. OR                                     10503
A0101413990000000631883NEBRIA, NATHANIEL C.                                    20500
A0101413990000001406371BCD TRANSPORT SERVICES                                   0502
A0101414120000001142852TERESITA M. PUYAT OR MARY ANN                           10501
A0101414120000001142852MAGNO                                                   20500
A0101414120000001751446MARIA GRACE LACUESTA OR RICKY                           10503
A0101414120000001751446LACUESTA OR MILEAH                                      20500
A0101414120000004603150NACIONAL, MARIA CECILIA ABIERRA                          0502
B0101414120000000399213JOBS ON THE GO SERVICE COOPERATIVE                       1602
A0101414120000002879885FCB TECHNOLOGIES                                         0504
A1301400500000001412355MARIA HELEN L. DEL POSO                                  0502
B1301400500684037591001UPLIFT PHILIPPINES, INC.,                                1605
B0101408240711038283002LAGUNA PARKS DEVELOPMENT CORP.                           1603
B0101408240711496116001FIZZFASHION MERCANTILE & TRADING, INC.                   1610
A4101400260812032880001WE'LL CARE BUILDER & CONSULTANC                          0502
A4101400260812444997002MARY ANN SAN DIEGO OR                                   10502
A4101400260812444997002ANTONIO SAN DIEGO                                       20500
A4101400390000000745404ANGELES, ALDOUS SISAYAN                                  0502
A0101404840851217637051CORAZON B. NARVAEZ                                       0501
A0101404840851478374175CHONA S. SOTES                                           0501
B01014067508520371840011ST LINE OFFICE FURNITURES & INTERIORS/                 11610
B0101406750852037184001ANA MAE B. YAPE                                         21600
A0101406750852290414001BULAON, MARITES I. OR                                   10501
A0101406750852290414001BULAON, SONNY T.                                        20500
A0101406750852774013001MARK JEROME SAQUING OR MARY ANN                         10502
A0101406750852774013001SAQUING                                                 20500
B0101413860000001767962COURT OF APPEALS CREDIT COOPERATIVE                      1630
A0601400230000006045427ASIS, JOY DANILYN MAQUINANA                              0501
A0601400230891461262001LUSUNG, CHARINA CATAJOY                                  0502
