B0101408400394821100608**********                                               2003
A2401400180411537301001**********************                                   0503
A0101410690600046558001RANDXELL'S DIGITAL PRINTING &                           10502
A0101410690600046558001PHOTOCOPY CENTER                                        20500
A0101412180000000037910********                                                 0501
A0101400860011464161001**********                                               0505
A0101400860011661386001**********                                               0505
A0101401250021181590001BERNARDO,MARIA SOCORRO CALINGAY                          0505
A0101400150061574645001BERNARDO, ROSALIE DELOS SANTOS                           0501
A0601400360000000225250GUIAO, JEFFREY BONUS DBU J3A                            10510
A0601400360000000225250FOODLINE JT GUIAo, JOAN                                 20500
B0601400520000000398512PAGASA PHILIPPINES LENDING COMPANY, INC.                 1606
A0101413730000003715826********************                                     0502
B0101413730000000144636**********                                               1602
A0101413310000002317933MACALINTAL, CHRISTOPHER                                 10501
A0101413310000002317933DELA CRUZ                                               20500
B0101401830000000033627CARITAS SALVE CREDIT COOPERATIVE                        11605
B0101401830000000033627(LAS PINAS) 007                                         21600
A0101401830141206439001PELAGIO M. ACHACOSO OR                                  10502
A0101401830141206439001ALICIA M. ACHACOSO                                      20500
A0101401830000001140010SANTOS, ROSIELYN LUCERO OR                              10501
A0101401830000001140010SANTOS, MICHAEL DAGAL                                   20500
B0101412920160064980001COGENCIA CONSULTING INC.                                 1601
B0101400440161007542001PACE REALTY INVESTMENT INCORPORATED                      1601
A0101407270000009286115CABILDO, MARICEL CARALDE                                 0501
B0101407270162046726001VALUE CARE HEALTH SYSTEMS, INC.                          1650
B0101407270162046726001VALUE CARE HEALTH SYSTEMS, INC.                          1650
A0101401090171369034001PHILIP L. FUENTES OR                                    10501
A0101401090171369034001RAQUEL A. FUENTE                                        20500
B0301400660000002348541ERVY LOGISTICS                                           1602
B0301400660194469662088**********                                               1603
B0101410720000000029850NORDHOFF ENTERPRISES INCORPORATED                        1601
A0101410720653452116001VIRGILIO R. BACQUEL JR.                                  0501
A3101400160221031838001SPACEPURE SOUTHERN TAGALOG                              10505
A3101400160221031838001WATER STATION                                           20500
A3101400160221220343001LAARNI A. CALAPATIA                                      0502
A3101400160221220455001JACINTA J. TORRES OR                                    10505
A3101400160221220455001RENATO I. TORRES                                        20500
A3101400160221419880001ROWENA B. SUN                                            0502
A1001400190231520766051NANCIE DAAYATA                                           0501
A1001400190231520766086ABANG, ELVIE EGDAMIN                                     0501
A1001400190231520766207LEMOSNERO, MAR JEAN TOYOR                                0501
A1001400350000007762458DARIMBANG, LOURDES CANDY DE LA                          10501
A1001400350000007762458ROSA                                                    20500
A1001400350233546037001ORENCIA V. RAAGAS                                        0501
A1001400480000001054671SOLIMA, ELEUTE DBU EBSO ENTERPR                         10505
A1001400480000001054671ISES OR SIO, ELE                                        20500
B1901400290000001363188RD PAWNSHOP, INCORPORATED                                1603
B1901400290261027293001LIPA MEDICS INC.                                         1610
A1901400290000006560090VIRGINIA S MACASAET OR                                  10501
A1901400290000006560090RICKY C MACASAET                                        20500
A1901400290261478374024NANCY MOJARES PALO                                       0503
A0101401670271383413003*****                                                    0501
A0101400570281186867001DR. DIANA JEAN ROXAS                                     0501
A0501400200000006445025GANAO, JULIUS MARZAN                                     0501
A6601400120314041602001LEXTAN GENERAL MERCHANDISE                               0502
A0101402350321478374050JESUSA G. CAYLAN                                         0501
A0101402350321597544001ARSITIO, ROBERTO T. OR ARSITIO,                         10501
A0101402350321597544001LUVIZMINDA L.                                           20500
A0101405650000006273601H. NOOR, MALIKSAIF BANGON                                0502
B0101405650322035899001CROWN ASIA SALES SPECIALIST, INC.                        1605
B0101405650322036086001VISTALAND INTERNATIONAL MARKETING, INC.                  1610
B0101405650000000772721PREMIERE COMMUNITY PARTNERS, INC.                        1610
A0101405650322093557001CUEVAS, MA. DONATA NADINE OR                            10502
A0101405650322093557001CUEVAS, RAFAEL                                          20500
A0101405650000001912027GUADIZ III, TEOFILO ESTRADA                             10505
A0101405650000001912027OR GUADIZ, GEORGINA R.                                  20500
A0101405650000005284493LOPEZ, IMELDA MARCOSA LAUDE                              0502
A0101405650322670247001LUIS, MARIA DYESEBEL BLANCAS                             0503
A0101402510341727351001FERNANDEZ, BERNARD JOEL ROBLEZA                          0501
B0101402060351035807001SOLEREX WATER TECHNOLOGIES, INC.                         1610
A0201400760374485660001SI, MARGARET ANG                                         0501
A0201400920000000048031FMC CATERING SERVICES                                    0501
A0201400920000001331571GARE, BONIFACIO PERA DBU                                10502
A0201400920000001331571GAREMED MARKETIN                                        20500
A0101408790000009288884ELDON, CHRISTIAN JORN                                    0501
A0101405490392613731001CORAZON OR RICARDO OR MICHAEL                           10502
A0101405490392613731001CHRISTIAN PICHEL                                        20500
A0101408400000005286320AMEROL, ROSLINA MAROHOMSALIC                             0502
A0101408400394478374086MILA TOLENTINO                                           0502
B0101408400394821200608**********                                               2001
A0101408950396563723001CELLONA, CLARISSA VILLARAMA                              0502
B0101412210000005051336GEOGEN CORPORATION                                       1602
A0301400820000005196716PEREZ, DEMETRIO C. OR PEREZ,                            10503
A0301400820000005196716MARYBETH S.                                             20500
A5501400120410624314001MORALES, RAUL OR                                        10502
A5501400120410624314001MORALES, BELINDA                                        20500
A2401400180000007031574HAO, YOLANDA GARCIA OR                                  10501
A2401400180000007031574HAO, HENRY GO                                           20500
B2401400180411032920001GENSAN AURORA AUTO SUPPLY INC.                           1610
A2401400180411478374067CORTAL, CYNTHIA DE LEON                                  0501
A1201400150421039385001JL'S CLEAN UP JANITORIAL &                              10503
A1201400150421039385001MANPOWER SERVICE                                        20500
A1201400150421606494001CALDERON, LORRAINE CHUIDIAN                              0505
A0101412890000007095323STA ANA III, MICHAEL AUGUSTIN N                          0504
A0101412760000000767886TOOR, ODESSA CACHO                                       0501
A0501400170481777043001QUINTO III, ALFREDO ARZADON                              0501
A1401400110000008266331ABESA, MARIA ROSARIO GREGORIA M                          0501
B0701400260000000671083CACERES CABLE TV CORPORATION                             1606
B0101403580511024541001TRADEXCHANGE, INC.                                       1602
B0101403580511046747001HUDDLE ROOM MEDIA INC.                                   1610
A0101408530000007981722CAHANDING, ROLAND RYAN VIDAL                             0501
A0101411400000005330001SALAZAR, JORGE QUINTOS                                   0501
B0101411400000001280579RDC INTERNATIONAL LTD. PHILIPPINES                      11602
B0101411400000001280579BRANCH                                                  21600
B0101403450521033882002*********                                                1610
B0101403450521079217001DEPORRESANMAR CORP.                                      1602
A0101403450521238657001**********                                               0502
A0101403450521360229001**********                                               0501
A0101403450521441986001**************                                           0520
A0101403610531064707001**********                                               0501
A0101403610000001174772BERROYA, EDRALIN OLIVAREZ OR                            10506
A0101403610000001174772BERROYA, MA. ANA ESGUERRA                               20500
A0101404000000001186807JAPITANA JR., ANGELITO RAMADA                            0501
B2201400250000001066160V.M.R. INCORPORATED                                      1601
B0101404130601100161001PRUDENTIAL CUSTOMS BROKERAGE SERVICES,                  11610
B0101404130601100161001INC.                                                    21600
A0101407720602397271001OZAETA, MA. RAMONA PABLO                                 0501
A0101404260611490335001TAN, MARIA JENALYN TULIAO                                0502
A0101409920000000022099DELA VEGA, ANTONIO S. OR                                10501
A0101409920000000022099DELA VEGA, IMELDA                                       20500
A0101411530000002260311**********                                               0501
A1301400210000003104985QUIZON, NELSON GALIT                                     0505
B1301400210682030329001ANDAN ENTERPRISES, INCORPORATED                          1602
B1301400210682030329002ANDAN ENTERPRISES, INC.                                  1602
A1301400500684063139001RUSTIA, NEOBE TERESA CALUAG DBU                          0501
A1301400500000000213163NORVY G. MARCELINO                                       0505
A0101408240711228456002MA. VICTORIA MANIQUIS                                   10504
A0101408240711228456002OR STEVE MANIQUIS                                       20500
A0101408240000000039683MIRCHANDANI, SHERYL OR LALA                             10501
A0101408240000000039683OR MICHAEL                                              20500
A0101408240000003501300MEMBERS OF NATASHA, SHOECAT INC                          0502
B4101400260812039799001LAGAMAYO DENTAL CORPORATION                              1604
A4101400390000000068600CABANGANAN, ANALIZA GELBOLINGO                           0502
A4101400390813775566002TUAZON, MARIO CALDERON                                   0502
A0101412340000006160112MICHELLE A. YAP                                          0501
A0101412340000003718712JOHN CHRISTOPHER R. ABRENICA                             0501
A0101412340000003719088FRANCIS PHILIP A. GANIBI                                 0501
A0101404840851478374011SHERRY ANN N. ABAPO                                      0501
A0101406750000007879381FERNANDEZ, JENNY FABIANA TUBALI                          0501
A0101405070861027133001WORLDLINKS CABLE WORKS                                   0502
A0601400230000006045570GUIAO, JULIETA ONG                                       0505
B06014002300000036448207R FINANCE CORP.                                         1605
B0601400230891386723002ROMEL OR MA. LORETO CANLAS                               1603
