B1901400160491821100608**********                                               2005
A0101409180000003780192SAPASAP, JEANS BASA                                      0501
A0101411790518345722001**** ****** ***                                          0505
A0101413570000006923573MARIA ROSARIO H. LIWANAG                                 0501
A4101400420000003715597DUMA, RAQUEL BIALA                                       0501
B4101400420000000018602MAKEYOURICH INC.                                         1605
A4101400420000003715655DEPANO, ABEL GONZALES DBU                               10502
A4101400420000003715655EXCELLENT DEPANO                                        20500
A4101400420814478374044BERATIO, MARITES M.                                      0501
A4101400420814520766038POLINARIO, THERESA BELLEZA                               0501
A4101400420000002345280ACOL, FELOMINA ADOAN                                     0502
A4101400420814563726001TWANO, ANGELITO DIZON                                    0503
A4101400420814572265006JOCELYN M. TWANO                                         0502
A0101414120000004603110CO, WILBERT KHO                                          0501
A0101414120000006005312JOAQUIN ANG OR MARIA TERESA                             10502
A0101414120000006005312ANG                                                     20500
B0101414120000001984201KAYAK CONSTRUCTION CORP.                                 1620
B0101414120000001984290GREENERGY SOLUTIONS INC.                                 1602
A0101414120000005252922*****                                                    0503
A4101400420814017785001MONZON GENERAL MERCHANDISING                             0510
A4101400420000004847890MEMBERS OF NATASHA (SHOECAT INC                         10502
A4101400420000004847890NELLIE B. CARAIG                                        20500
A4101400420814589735001BERAY, RENE REY PULIDO                                   0520
A4101400420814744380001BARLAS, MONALIZA GOLIPARDO                               0501
A0101400860011425129001**********                                               0501
A0101401250021456301001PALILEO, ROSALIE PUNONGBAYAN                             0501
B0101411370022046185001PRIMORIS MANPOWER SERVICES COMPANY                       1602
B0101400150000000633185SB RENTAL CORPORATION                                    1605
B0101400150000000633390AVIZE INC.                                               1601
A0101400150061226702002**********                                               0501
A0101400600000000007649*********                                                0505
B0601400360083594999001ICE INTERNATIONAL TECHNOLOGIES INC.                      1602
A0101410850000003503966FUNTALBA, DITZ SHANNA ANNE DAVO                          0501
A0101400730111203514043JULIE P. VILLANUEVA                                      0501
A0101401960000001844599*****************                                        0502
A0101401960121238669001**********                                               0503
B0101412630000002186369ARTBUILDERS CONSTRUCTION AND                            11602
B0101412630000002186369MANAGEMENT, INC.                                        21600
A0101400440161525001092EDNA D. DOLORES                                          0502
A0101400440161525001112JELLIE ANN D. LOMAHAN                                    0501
A0101407270162528842001MIGUEL ROBERTO M. GARCIA                                 0505
B0101401090171021847001ALAY SA BATA FOUNDATION, INC                             1602
A0101401090171331007001JONAS Y. SANTIAGO                                        0501
B0301400790000000040940ASIAN HYBRID SEED TECHNOLOGIES, INC                      1606
B0301400790195054051001VILLA JOSEFINA RESORT VILLAGE HOMEOWNERS                11603
B0301400790195054051001ASSOCIATION INC.                                        21600
A1001400190231275288001TAN, ERWIN C.                                           10501
A1001400190231275288001TAN, SHEILA C.                                          20500
B1301400760000000050860ENCORE LEASING & FINANCE CORP.                           1601
A0101401670271291676001FLORENCIA LIM ANGLIN OR                                 10501
A0101401670271291676001DENNIS ANGLIN                                           20500
B0101406460000000712861ALBULARIO & SONS REALTY, INC.                            1602
A0101406460000002331022ONG, ANNA LISA CEDENIO                                   0501
A0101406620000002009212ALCANTARA, GRACELYN ORIAS                                0501
A0101410980000001154330RAMOS, JANEDEL ANN LOPEZ                                 0501
A0101411110276773395088*****************                                        0501
A0101411820000000477145SHERWIN REYMOND M. ICALINA                               0502
A0101411820277796678001CLAROS, MICAH OR                                        10501
A0101411820277796678001CLAROS-CORRUBIA,EVELYN                                  20500
A0801400160000002287578************                                             0501
A0801400160000000476299*********                                                0503
A6601400120000002249830LUCERO, MYRNA DELA TORRE OR                             10501
A6601400120000002249830LUCERO, ARPON ULTRA                                     20500
B6601400120314047332001ST. ANTHONY FARM INSTITUTE OF                           11601
B6601400120314047332001TECHNOLOGY INC.                                         21600
B0101405650322042919001BSU CARGO SYSTEM INC.                                    1601
A0101405650000000525739RUFA MACABENTA                                           0502
A0101402510341429634001TOMAS, MERCEDITA GLINOGA OR                             10501
A0101402510341429634001TOMAS, WENCHIE G                                        20500
A0101402510341625399001GELERA, TITO SOLIS                                       0501
B0101402060351009762002NETERCO-PHILS., INC.                                     1605
A0101402060351217441016FERNANDINO Y. CONCEPCION                                 0502
A0201400890000007369357CHUA, MICHAEL VINCENT BARDINAS                           0501
A0201400890376061781001AZANZA, CEASAR S. DBU MACY'S                            10501
A0201400890376061781001PHOTO VIDEO STORE                                       20500
A0201400890376677066001******                                                   0501
A0101402930000002269281LIM, EDWARD PANTILO                                      0501
B0101402770391025883001DA LEONARDO INDUSTRIAL INC.                              1602
A0101402770391355762066JENNIFER ALFORQUE                                        0502
A0101402770391386798001SANTOS, MARLON LISING                                    0501
A0101402770391472751004DE GUZMAN, JERVIE RACELIS                                0501
B0101402770391630383002FIRST LOAD MASTER AND POWER SERVICE INC.                 1601
B0101405490000005196556CORNERSTONECONSTRUCTION CORPORATION                      1603
B0101405490000000019963NAJIA MOVERS & PROJECT SPECIALIST INC.                   1602
B0101405490000006214193NORTHSHORE HARDWARE & CONSTR                            11603
B0101405490000006214193UCTION SUPPLY                                           21600
A0101405490392493712001LUISITO OR JESUSA OR JAMES KIM                          10501
A0101405490392493712001LOUIS HERCE                                             20500
A0101408400000005286171PONCE, MINA MUSNGI                                       0501
A0101409180000004642739VILLARBA, JUNALYN CEDO                                   0501
B0101409180000000036633XCELL PROPERTY VENTURES, INC.                            1602
A2401400180411495221001MANUEL JR., ANTONIO VILLANUEVA                           0502
A0101403030000000531462HARROW, ALAN JAMES ANTHONY CASA                          0502
A0101403030000005327577**********                                               0502
B0101403030441038216001LAZARO FURNITURE                                         1601
B1901400160491027966001SALESFORCE ONE MARKETING, INC.                           1605
A1901400160491452182004PLATA, DENNIS ESPIRITU                                   0501
A1401400110492433218001MILLA, MAYNARD BUSTAMANTE                                0501
A1601400170000001360690BUCAY, CHARITO PABALAN                                   0501
A0701400260000001069701MAGTUTO, RENATO VILLAFUERTE                              0505
A0101403580000004091894ONGCAPIN, LUZVIMINDA SESE                                0502
B0101403580511045732001AMVI DEVELOPMENT CORPORATION                             1602
A0101403580511196754001CARMELITA E. LA O' JT                                    0502
A0101403580511716577001LEONIDA A. CONCEPCION                                    0502
B0101406880513039406001PHILCOX (PHILIPPINES) INCORPORATED                       1603
A0101411790518055815065ONG, JENNY ROSE MACASO                                   0501
B0101403450521011666001**********                                               1610
A0101403450521240346001**********                                               0502
A0101403450521441986001**************                                           0515
A0101404000000003705866CRISTOPHER T ANCHETA                                     0501
A0101404000000000136503JULIANO, MARIE JOY CRUZ                                  0504
B0101404130601100121002OMRON ASIA PACIFIC PTE. LTD.                             1602
B0101404130601100129002AVENGER HOLDINGS, INC.                                   1601
A0101404130601451711001CATINGAN, HAZEL A.                                       0501
A0101407720000000510712HENSON, KRISTINE JOY SANTOS                              0502
B0101407720602044367001CAL PERSONNEL PROVIDERS                                  1610
A0101407720602342846003ABLIS-SUN, MARIA LENA DIMAANO                            0501
A0101404260000003498482EDNA S PLAN JANITORIAL SERVICES                          0501
A0101404260611335308002ALIMBOYONG, JOSEPHINE MAHINAY                            0503
B0101404260611539146001CARAMBA, VIVIAN VICENTE                                  1602
A0101413440000002125651SENORON, G. DBU COMPUZEL                                10501
A0101413440000002125651COMPUTER SERVICES                                       20500
A0101413570000000206260AC SHOWEREN 2000                                         0502
A0101406590662034547001F.C. DINO CONSTRUCTION                                   0501
A0101406590662209694001MOZO JR., VIRGILIO DELA CRUZ                             0501
A1301400340683478374047DOMIGPE, MAPET SIMBORIO                                  0501
A1301400500000006109122SAMANIEGO, PERRY GALVEZ                                  0502
B0101408240000000832586TREE TRUNK DEVELOPMENT CORPORATION                       1605
A0101408240711448793001CARLO B. MAGNO                                           0502
A0101408240711449303001MORALES, PEARL MERCEDES ARCACHE                          0501
A0101408240711568736001CORDERO, ERIC GO                                         0502
A0101408240711709483001SALON, AILEEN BENITEZ                                    0501
A4101400260812513078001JOY MARIE J. VILLANUEVA                                  0501
A4101400420000002084631MANICIO, MARIA ARMI ORTEGA                               0501
B4101400420814038765001EG&G CONSTRUCTION SUPPLY                                 1603
A4101400420814477593003BAUTISTA, TERESA PONCEJA                                 0502
A4101400420814520766045BOCO, ADELA G.                                           0501
A4101400420814520766051GANZON, WILMA A.                                         0501
A0101404840000004565828MARTINEZ, MELCHOR LAXAMANA                               0501
A0101404840851520766154CORAZON ONIA                                             0501
A0101404840851737546001MERCADO, LAUREL ASPREC                                   0503
A0101406750000002251412ADOLFO, MARIA CORAZON OLA                                0501
B0601400230891021614001QUIOC (D) QUIOC & ASSOCIATE                              1601
