B0101407430503821100608**********                                               2020
B0101407430503821100608**********                                               2020
B5001400170000000045127CHAN, ALFRED UY OR CHAN, AMY TIU OR CHAN                11605
B5001400170000000045127MICHAEL TIU                                             21600
A4101400420000000120696CARMELA G. ROMA                                          0501
A0101407270000006552069KUNGO, BENJAMIN LEE                                      0501
A0101403320471478374006NELIA MORALES                                            0501
A4101400420814478374102MALIBIRAN, MARLYN M.                                     0503
A4101400420814520766034LEONIDA M. OBELIDOR                                      0501
A4101400420814520766108ESPANOLA, MERELY C.                                      0502
A4101400420000000710223ROMERO, MARICRIS BAUTISTA                                0501
A0101412340000003340489ADRIAN S. AGRAVANTE                                      0501
A6601400120000001065372CABILI, JULIUS MICHAEL MACAMAY                           0501
A2401400180411609791001*********                                                0505
A0101405940512285942001LEUS, ROMAN OR LEUS, MICHELLE                            0501
A0101406590000005304916BARBASO, THELMA BALINGIT                                 0501
A0101400860011379561003**********                                               0502
B0101400860011388376002**********                                               1603
A0101400860011413316001**********                                               0503
A0101400860011779757001**********                                               0506
A0101401250000000907131PERICO, AURORA ATIENZA                                   0501
A0101401250021178978001BERTOL, LOLITA B. OR                                    10501
A0101401250021178978001BERTOL, LIEZL B.                                        20500
A0101401250021483705002SISON, ROSIVINI ISIDRO                                   0502
A0101401250021724725001ENRIQUEZ, EDUARDO BUQUING OR                            10501
A0101401250021724725001ENRIQUEZ, MARK ANTHONY H.                               20500
A0101400150000000253427ARNEL C. CUARESMA                                        0501
A0601400100000000142021QUIAMBAO, MARIA LISETTE SANTOS                           0502
A0601400100000002099341VELONZA, VICTORIO CAMBA                                  0503
A0601400100081485664001TAYAG, JOSE HUBERTO S. OR                               10502
A0601400100081485664001TAYAG, JENNIFER                                         20500
A0101410850000003503591GARCIA, NIKKO PAULO BALUNSAT                             0501
B0101410850000000005610AKARI LAND CORPORATION                                   1601
A0101410850109060688001FELY BACULIO TRUCKING SERVICES,                         10501
A0101410850109060688001INC.                                                    20500
A0101401960000001844475****************                                         0505
B0101413310000001928834MONTEROZZA RITZ FOOD CORP.                               1603
A5001400170000000170192SY RATUNIL, ELIZABETH LIM OR                            10501
A5001400170000000170192SY RATUNIL, FERDINAND KHO                               20500
A0101407270162297165001MURIEL A. GAURANO                                        0503
A0101407270162526657001VALERIE ANNE G. MALIG                                    0503
A0101401090000000993400BASAYSAY, LYDIA ANGUSTIA                                 0501
B0101401090171042218001RD CASH PADALA, INC. - AREA 02                           1603
A0101401090171196011003CORAZON T. LIM                                           0506
A0101401090171196330001TAN, EMILY B. OR TAN, STEVENSON                         10502
A0101401090171196330001J.                                                      20500
A0101401090171353988001CITADEL C. DE CASTRO                                     0502
A0101401090171389168003CAGUIOA, DR. PRISCILLA BAETIONG                          0501
A0101401090000000210391CRISTOBAL, SHARAMAIGNE VILLAROS                          0501
A0301400530000003573482QUE, MARTIN SHIN                                         0502
B0301400530000000025287TAGUM PIONEER FOODS CORP. - ADMIN                        1602
A0301400950000002251952**********                                               0506
B0101410720000000029850NORDHOFF ENTERPRISES INCORPORATED                        1602
A0101410720653509852001SOMOSIERRA, NERIO G. OR                                 10502
A0101410720653509852001SOMOSIERRA, ANNA MARIA A.                               20500
B0101413600000002822671AUNICAJ INTERNATIONAL TRADING                           11602
B0101413600000002822671CORPORATION                                             21600
A3101400160000001792190MIRAFLOR M CARINGAL                                      0501
B3101400740224045253001MADISON SOUTH HOMEOWNERS' ASSOCIATION,                  11601
B3101400740224045253001INC.                                                    21600
A3001400130000001261249BANJAO, JENELYN LARA                                     0501
B1001400350233032957001PCCI FINANCE CORPORATION                                 1601
A1301400470252452159001NELLIE STA. ROMANA OR                                   10501
A1301400470252452159001CYNTHIA LEABRES                                         20500
A1301400470252569987001MACTAL, ANGELITO VALENTIN                                0501
B1901400290261015948001CANOSSA ACADEMY                                          1601
B1901400290261034107001FIESTA WORLD MALL CORPORATION                            1610
A1901400290000001975404MARANAN, MERCEDITA DBU REYMER                           10503
A1901400290000001975404DIGITAL PHOTOGRAPHY                                     20500
A1901400290261244456001LEO YAP ONG OR                                          10505
A1901400290261244456001MEI MEI YULO ONG                                        20500
A1901400290261367208001SYLVIA M BRIONES                                         0501
A1901400290261387614001LAILANE M CUSTODIO                                       0503
A1901400290261478374024NANCY MOJARES PALO                                       0503
A1901400290261567865001ALEX IAN SISON DE LA CRUZ                                0501
A1901400290261585775001LITA CUETO MENDOZA OR DORIS                             10502
A1901400290261585775001MARIE MENDOZA MEDINA                                    20500
A0101401670271189366002RUBI A. NGO                                              0502
A0101401670271206317002* * * * *                                                0502
A0101406620000000577082AREVALO, MARY ANN ESPINOSA                               0501
A0101406620000006317751BALISADO, VICENTE EDGAR ALCANTA                          0505
A0101411820000001356452PERECLEO D. MARTINEZ                                     0501
A0101411240000006587553TOLENTINO, EMMANUEL LUSTERIO                             0501
B0801400160000001289829PANAY MEDICAL VENTURES, INC.  PMVI                       1610
A1101400120000002254902BARREDA, EDKENS MARASIGAN                                0501
B1101400120313036495001MANCERA STORE & HARDWARE SUPPLY INC                      1630
B6601400120000000022293U.E.P. ALUMNI ASSOCIATION, INC.                          1601
A6601400120314748301001PUASO, GARRY FRANCO OR ALMA                              0501
A0101402350321654142001LUZMINDA C. BASAY                                        0501
A0101402510000001292280LLAMADO, TERESA CABANEROS                                0501
B0101402060351041162001VENTAJA INTERNATIONAL CORP.                              1601
B0101409050352046872001HEALTHY OPTIONS CORPORATION                              1603
A0201400760374030540001ST. FRANCIS MANPOWER SERVICES                            0501
A0201400760374041860001ONE URBAN CONSTRUCTION                                   0501
A0201400890376039699001MERIT GAS NETWORK CORP.                                  0501
A0201400890376667775001BUYSER, MISAN CANAS OR BUYSER,                          10501
A0201400890376667775001IAN CHRISTOPHER                                         20500
A0201401020000004409103CHAVEZ, RAYMOND A DBU RGSK TRAD                          0502
B0201401020377821100608**********                                               2002
B0201401020377821200608**********                                               2002
B0101402930381010731001********                                                 1601
B0101402930381016251001THE PACIFIC MEAT COMPANY, INC.                           1605
A0101408790383649678002YU, MARK OR LAWRENCE OR STEPHEN                         10520
A0101408790383649678002OR FRANCIS GLENN                                        20500
A0101408400000001213643REGALADO, ANGELA AMOR BALDOS                             0501
A0101408400394162577001REYES, ELSA UNGSOD                                       0501
A0101408400394429737002MAMBUAY, NAIMAH MINANGA                                  0502
A0101408400394478374058CHARINA BENIGNOS                                         0505
A0101408950000002255341MONROY III, HERMOGENES DE JESUS                         10501
A0101408950000002255341OR MONROY, JEANETTE                                     20500
A0101408950000003439150MOLINA, GINA LOMINOQUE                                   0502
A0101408950396567425001DR. SHEILA LYN REMOT RANIN                               0501
A0101409180000002252513ENCABO, CARINA OR ENCABO,                               10503
A0101409180000002252513JESULITO RAMIR                                          20500
A0101409180000005681074ELLA MAE CORPUZ                                          0503
A0301400820000001554650EDGAR FELICANO                                           0501
A2401400180411478374027ELLEN PANTUJAN OR                                       10501
A2401400180411478374027ELMER PANTUJAN                                          20500
A2401400180411637974001MANANGQUIL, JOHN RAY BETITA  JT                          0510
B2401400180411783270088JSDR MARKETING - GEN. SANTOS BRANCH                      1602
B0101403030441042826001G.O.H. REALTY CORPORATION                                1601
A3801400170490783617001ARNULFO S SALVIO OR                                     10502
A3801400170490783617001TERESA R SALVIO                                         20500
A1901400160491282845001ARTHUR C MALALUAN OR                                    10501
A1901400160491282845001IRENE D MALALUAN                                        20500
A1401400110000003988996CARCIDO, JEFFERSON CU                                    0501
A1401400110492521817001ZARSADIAS, YBETT TINAMISAN                               0501
B0101405940512020791002ACRYDENTAL LABORATORIES, INC.                            1601
A0101405940512553594001SIDI, TAL                                                0502
A0101408530516719095001JARDIN, AMELOU CASTILLO                                  0501
B0101412050000000043416********                                                 1601
B0101412050519821100608**********                                               2001
A0101403450521282364001**********                                               0502
A0101403450521441986001**************                                           0515
A0101403450521478374009MEGUITA Z.IGHARAS                                        0502
A0101404000551377329001MONTENEGRO, ROSALIE ROTH                                 0502
A2201400250561028844002CHRISTIAN HOME FURNISHING                                0504
A0101407720602279984001AVELINA QUIENG                                           0501
A0101407720602396333001RAJAGUKGUK, BELEN PANTANGCO                              0502
A0101407720602415233022RADA, MARILYN T.                                         0501
A0101404260611478374081ROSITA VIVIT                                             0502
A0101404260000001725457NELIA A REDELICIA                                        0501
A0101404260000003498373MA. DESIRIE J PATOC                                      0501
A0101406590662283470003RAMNANI, CARMEN OR PRIYA                                 0501
A1301400210000000540856AGUSTIN, MICHAEL DEL ROSARIO                             0501
A1301400210682073330001MICHAEL M AQUINO                                         0501
A1301400340000000100352DE ERE, MARY ANN BULARAN                                 0502
A1701400230693478374015FERNANDEZ, FEMA L.                                       0501
A0101408240711443671001CARMENCITA C. GUIAO                                      0501
A0101408240000000005421HERRERA, IVAN FELIX INCIONG                              0501
A4101400420814520766097ORIENDO, CECILIA B.                                      0501
A4101400550000006044242TOLEDO, ARLA VANESSA DANAYRE                             0501
A4101400550000006044253AIRES, ROSEMARIE CABAO-AN                                0501
A0101412340000000031136VILLACORTE, BIENVENIDO L. OR                            10501
A0101412340000000031136VILLACORTE, ADELINA C.                                  20500
A0101412340000004360343ANNA LEE A. AVES                                         0502
A0101404840000001312532CHICO, DIVINA DE GULA                                    0501
A01014048408510283300013RD ROCKSAND GENERAL                                    10502
A0101404840851028330001MERCHANDISE                                             20500
A0101404840851520766124MARGIE A. PEREZ                                          0501
A0101405070861478374073ROSARIO V. PARRENO                                       0502
B0601400230891012908002JRS BUSINESS CORPORATION                                 1606
B0601400230891021614001QUIOC (D) QUIOC & ASSOCIATE                              1601
B0601400230000000029883ORO OXYGEN CORPORATION                                   1605
