B0301400660194821100608**********                                               2020
B0101405650322821100608**********                                               2005
B0101408950396821100608**********                                               2010
A0101402930381325163001SUSAN D. CORNEJO                                         0501
A2001400290000004889956MARIUS C.C. ONGCOG DBU RAMAR                            10503
A2001400290000004889956TICKETING SERVIC                                        20500
A0101405650000003893589HORMILLOSA, JACQUELINE BARDENAS                          0501
B0101405650322172207001BF TRADERS MULTI-PURPOSE                                11603
B0101405650322172207001COOPERATIVE                                             21600
A0101405650000001377420RELOVA, STEVEN ANTHONY TORRES                            0501
A0101405650322478374002MAVIS W. PAREJA                                          0503
A0101408370382326344001DR. RAOUL S. FELICIANO                                   0505
A2401400180000002284131GARCERA, MARK ZEANREH HERNAEZ                            0501
A0101400150000003141722CALIMBAS, MONICA DIAZ                                    0503
B0101400150061027665001SYNERGY EXPERTISE INCORPORATED                           1602
A0101400150061711212001LAWRENCE KRISTOFFER YU                                   0501
B0601400100081256915005KWONG, WILLIAM G. OR                                    11604
B0601400100081256915005ANTONIO, ADELA                                          21600
A0601400100081348377001MANALESE, MARIA LUZ MANALUS                              0504
A0601400100000006334027BAGUISTAN, FROIGEL MOLINA                                0501
A0601400520000003009309DE LEON, RENATO ESTACIO OR                              10501
A0601400520000003009309MANGIRAL, JOCELYN                                       20500
B0601400520000000398523A.D. REYES CONSULTANCY AND BUSINESS                     11602
B0601400520000000398523SOLUTIONS                                               21600
A0101413730000000469250*******************************                          0501
A0101400730111543954001SALVADOR, WENIFREDA VILLARANDA                           0501
A0101413310000007762254SATAM, SHARE LUCK ANTIPORDA                              0501
A0101401830000000033729ABEJAR, SUSAN GAUNA                                      0501
A0101401830141404416002MAYLA L. UNGOS                                           0501
B7201400170000003773397POGAJA, GLENN VIRGO DBU MAQUESERG CONST.                11602
B7201400170000003773397AND GEN. MDSE.                                          21600
A5001400170000000044982URBAN PAINTS & MORE ENTERPRISES                          0502
A0101412920000002358990ANDEN, MAY EVANGELINE REGASPI                            0501
B0101400440000005393717RD PAWNSHOP, INCORPORATED                                1603
A0101400440161027568001GARB CLOTHING COLLECTION                                 0504
A0101400440000004901440NLR INSURANCE SERVICES                                   0505
A0101400440161525001103OFELIA B. OLERMO                                         0501
A0101400440161617314001ERWIN R. LEANO                                           0501
A0101400440000000821101ORENSE, JULIA AQUINO                                     0501
A0101407270000003254253SPIRO L. CLEMENTE                                        0501
A0101407270000000511635DAVID STEPHEN STA. MARIA                                 0501
A0301400660000001113795VILLADAREZ, RICHARD RANIS                                0501
A0301400950000002252080AYUSTE, ARACELI LANOY                                    0505
B0101401380201034271004LC BUILDERS AND DEVELOPERS, INC.                         1604
A0101401380000000106549********                                                 0501
A0101412500000003289992****                                                     0501
A3101400160000004952483LAIG, LEILA PIA PEREZ                                    0501
A3101400160221218333001KATHERINE OR CARLOS SION                                 0505
A3101400450223466114002NATIVIDAD, GINA DUNGO                                    0503
A3001400130000002063441JONGKO, JOSE MARI MARCO OR                              10502
A3001400130000002063441JONGKO, DEBORAH                                         20500
A3001400130000006145228DEDICATORIA, ROMEO DBU LCM MARK                          0520
A1001400190231283324001GICABAO, BENY CHAN OR                                   10501
A1001400190231283324001GICABAO, VILMA A                                        20500
A1001400480000000133428PARRADO, ANGELICA ECHAVEZ                                0501
A1001400480000006270908SIA, MIKEE TIBUS                                         0501
A0101408660000000059932MARGAS, HELEN DUMAYAC                                    0501
A0101408660000007457994F. CURA INDUSTRIES                                       0504
B0101400570000003451512MEDICAL ACTION GROUP, INC.                               1602
A0101400570281186603001DR. RESTITUTO C. BUENVIAJE                               0502
A0101400570000001681858GO, ROBERTO ONG                                          0504
A0101400570281468058001FERNANDEZ, MA. ASUNCION A.                               0505
B0501400200000004456902CBE ESTRADA PAWNSHOP, INC.                               1602
B0801400160311100161001PRUDENTIAL CUSTOMS BROKERAGE SERVICES,                  11603
B0801400160311100161001INC.                                                    21600
A0101405650322538668004SACARIA, SALIMA LATIP                                    0502
A0101402510000001297252VARGAS, JONATHAN FRANCISCO                               0505
A0101402060000002259947REYES, ALEXIS JANEANE ALVAREZ                            0501
A0101402060000005323233SALCEDO, MA. JAYVECAR NACINO                             0501
A0101409050000003533504JASON ENCARNACION                                        0501
A0101402930381706358001QUIEC, GEOFFREY T.   OR                                 10501
A0101402930381706358001QUIEC, EMELENE C                                        20500
A0101408370382592860001ANGELINE S. TINGA                                        0502
A0101402770391029270001RCABAN-SAN ANTONIO DE PADUA                              0501
A0101402770000000360741PACHECO, ROBERT DAVID                                    0501
A0101405490392029904001ROSH INDUSTRIAL SUPPLY                                   0501
B0101408400000004733751FJN6 FOOD CORPORATION                                    1602
A0101408950000001039441DELA CRUZ, JORDAN YAO                                    0501
A0101408950396396902001RUTH MARIE DIVINAGRACIA                                  0510
A0101408950396458270002EJERCITO JR., CARLOS EJERCITO                            0501
A0101408950000002255307BERTOSO, SHEILA ESPINA OR BERTO                         10501
A0101408950000002255307SO, EDGAR                                               20500
A0101408950000002255307BERTOSO, SHEILA ESPINA OR BERTO                         10501
A0101408950000002255307SO, EDGAR                                               20500
A0101408950396622136001MICHELLE VERGARA DELA CRUZ, M.D                          0503
A0301400820000002692055SALAJOG, ALEXANDER DBU AJ                               10502
A0301400820000002692055SALAJOG METAL SCRAP                                     20500
B5501400120410041087001GREENSTATE SUITES                                        1606
A2401400180411048131001ONTARIO PURIFIED DRINKING WATER                         10501
A2401400180411048131001DISTRIBUTOR                                             20500
A2401400180411320270002SALARDE, GLORIA TIMKANG                                  0502
A0901400220432478374001LEONARD GO LOZADA                                        0501
B0101403320471033860001REMBERLAND REALTY AND DEVELOPMENT                        1603
B0101403320471039191001MAR-V-RITZ TRADING - BRANCH                              1603
B0101403320471043462001TRI POINT BUILDERS                                       1604
B0101403320000006027009OAKS RESIDENCES HOMEOWNERS ASSOCIATION                   1602
B0101403320471062316001ZEAL POWER CONSTRUCTION & DEV'T. CORP.                   1602
B0101403320471206926002LOLITA B COLINA                                          1601
A0101403320471400801001MARILEN I. CRUZ                                         10503
A0101403320471400801001OR DENNIS MICHAEL CRUZ                                  20500
A0101403320471463722001ARMANDO DACANAY                                         10502
A0101403320471463722001OR ALONA DACANAY                                        20500
A0101403320471478374006NELIA MORALES                                            0501
A0101403320000000067532YAGUEL, SALVE L.                                         0502
A0101403320000001646777MYRNA M. CRISOSTOMO                                      0501
A0101410140000000499065MORDIDO, LYN ROBELLES                                    0502
A0101410140000001939900BOBARES, R DBU 3FJ CONSTRUCTION                          0503
A0501400170481046585002ANG, JUSSLYNN DBU                                       10504
A0501400170481046585002AVS DISTRIBUTION                                        20500
A1901400160491244484001IRENE H BERBA OR                                        10510
A1901400160491244484001CARLOS R BERBA                                          20500
A1401400110000000132896MORALES, RAIN DBU DIRL AND JANE                          0501
B0101407430503006865001AIRTROPOLIS CONSOLIDATORS PHILS. INC.                    1620
B0101407430503039663001ACES CHASSIS MANAGEMENT AND MARKETING                   11610
B0101407430503039663001CORP.                                                   21600
A0101407430000001028831LAMBERTO C. AQUINO                                       0502
B0101403580511005154001R.G. MANABAT & CO.                                       1620
B0101403580511015363073MEC - EMD ANTIPOLO                                       1610
A0101403580511642950001RUJOHN B. BARRIENTOS                                     0502
B0101405940512031122001SOLIDGROUP TECHNOLOGIES, CORP.                           1610
B0101406880000001286368FARMVILLE MULTI VENTURES INC.                            1603
A0101406880513197649001HARPER, ANNA MARIA LAMMOGLIA                             0501
A0101406880513351519001PACENCIA C. SIERDA                                       0501
A0101408110000003661790GANESON, KAMA NESON KATHAMUTHU                           0501
B0101411790000004808082PDB PROPERTIES, INC.                                     1603
A0101403450000000889501********                                                 0501
A0101403450000006055552CO, SUN LIN AKA JOHN LIM                                 0501
A0101403610531707024001NUNEZ, ANGELITO RONQUILLO                                0502
A0101404000000003707340WAYLORD S PUNZALAN                                       0501
B0101407720000006945248PERFECT SKIN AND BEAUTY SOLUTIONS INC                    1602
A0101407720602161918001MARY ANNE LUCIANO-AMON OR                               10503
A0101407720602161918001JONATHAN M. AMON                                        20500
A0101407720602166653018LUCITA F. SULIAN                                         0501
A0101407720602349929002**********                                               0502
A0101407720602382805001BAGABALDO, ZENAIDA GARCIA                                0501
A0101407720602398224001CUSTODIO, DEOGRACIAS BANABAN                            10501
A0101407720602398224001OR CUSTODIO, ELEANOR                                    20500
B0101407720602531639004INTELLIGENT BEAUTY SKIN SOLUTIONS INC.                   1602
A0101404260000003498482EDNA S PLAN JANITORIAL SERVICES                          0503
A0101413990657478374014LABTIC, DULCE D.                                         0501
A0101406590662289338001KIM C. DINO                                              0503
A1301400210000005040760MARCELINO, RUBY DEOGRACIAS                               0501
A0101408240000003955293BILLANO, EDNA YAMBAO OR HERNAN                           0502
B0101408240711023931001CHRIST'S COMMISSION FOUNDATION, INC.                     1620
A0101408240711453307001TU, LIWAYWAY S.                                          0501
A2801400100712487899001NOCUM, LEANDRO CASTELO                                   0503
A4101400390000001732423MOSTAJO, LEILANI ALMARIO                                 0502
A4101400390813478374003AUXTERO, ELANE                                           0501
A4101400420814478374162RODORA A. CAUSAREN                                       0501
A4101400420000000120696CARMELA G. ROMA                                          0502
A4101400550000003839327QUIAMBAO, ALEXANDER DORONILA                             0503
A0101412340000003719011RAINIER ERNIE U. DIZON                                   0501
A0101412340000007305520ROWENA P. GONZALES                                       0502
A0101404840851281035001NELLIE M. LAW &/OR                                      10503
A0101404840851281035001HERMINIO T. LAW                                         20500
A0101404840851478374002VIOLETA Z. PANZO                                         0501
A0601400230000007402100ALBANO, GIENAH PACLA DBU HYDROE                          0501
A0601400230000001062457RAMOS, MANILYN GOZUN OR                                 10501
A0601400230000001062457RAMOS, JOHN RAYM                                        20500
