B3101400320222821100608**********                                               2003
A0301400790000005691990EMBALSADO JR., ALBERTO GEMPESAW                          0502
A0301400790000002301273DANGCALAN, MARITES DALOGDOG                              0501
B1001400480000000133268**********                                               1610
A3801400170490761000001NENITA R BERNARDO                                        0501
A0101405940512558822002**********                                               0501
A0101400860011385744004**********                                               0505
B0101400860011403904004**********                                               1605
A0101400860011435365001**********                                               0505
A0101400860011685244001BANDIOLA, SIDNEY MORALES                                 0501
A0101401250021183070002CORLET, EVELYN LACERNA                                   0502
B0101411370000000018135FOKUSI FACADE INC.                                       1602
A0101400150061179137001JAIME C. DEL ROSARIO                                     0506
A0101400150061456754001ANCHETA, ANGELINO TAGUIBAO                              10502
A0101400150061456754001OR ANCHETA, CANDELARIA                                  20500
A0601400100081025360002AMOR REFRIGERATION & AIR                                10501
A0601400100081025360002CONDITION REPAIR                                        20500
A0101410560000003562070**********                                               0501
B0101400730111042347001*********                                                1605
A0101401960000004419870SY, MA. KATHERINE LAO DBU                               10501
A0101401960000004419870DAINTY MARKETING                                        20500
B0101401960121238699002SO, PONCIANO CHUA                JT                      1601
A0101401830141546547001REATAZA, NELIA MORABE                                    0503
A0101400440000004901451*****                                                    0501
A0101400440161563905001MARICAR C. QUINONES OR                                  10501
A0101400440161563905001RONIEL S. QUINONES                                      20500
A0101407270162496878002ABIGAIL SULVITA                                          0502
A0101401090171196222001MILDRED M. TAYAG                                         0502
B0301400530193641218168********                                                 1602
B0301400660194014140088*****                                                    1603
A3101400160221478374002MA. LOURDES T. ELIZON                                    0505
A3101400160221674966001ERIC S. CUENTA                                           0501
A3101400450223403586001NUA, CHRISTIAN JOHN OR RICHARD                          10520
A3101400450223403586001OR MELODY                                               20500
A3001400130000001261169LIM, MICHELLE ZOSA                                       0503
B3001400130000006004660RAD KC'S LCM CORPORATION                                 1610
A1001400190000005709100NERY, JASON JAY JASPER AMPER                             0501
B1301400470000003270113OBRIGADO LENDING INVESTOR, INC.                          1601
A1301400760000005379520LUIS V. CHUA                                             0502
B0101412470000000949544BEYOND METRO POINTE GREENHILLS INC.                      1602
B0101411240283063413001ZOEB ENTERPRISE                                          1601
A0501400200000005751599BALMEDIANO, MYRNA SOLIVEN OR                            10505
A0501400200000005751599BALMEDIANO, ISMAEL                                      20500
B0501400200292021985002FOREST LAKE DEVELOPMENT, INC.                            1610
A1101400120313038039001QUICKBOY GRAFIX                                          0501
A1101400120313038041001BAJ PHARMACEUTICALS                                      0501
A6601400120000008490364BANZON, CHARL E. DBU CEB ENG'G.                         10502
A6601400120000008490364& CONST. SUPPLY                                         20500
B0101402350321035857001MOBICAR TRADING CORPORATION                              1602
A0101402350321179435001ANTONIO SANDIKO AND/OR                                  10501
A0101402350321179435001ARCELI SANDIKO                                          20500
B0101405650322024999001SUPERIOR MAINTENANCE SERVICES, INC.                      1630
B0101405650322043924001THE PALMRIDGE SCHOOL INC.                                1602
B0101405650322543721001OMNIBILT CONSTRUCTION AND MAINTENANCE                   11602
B0101405650322543721001INC.                                                    21600
A0101402510341199652001BERMIDO, CHARITO MANZANO                                 0503
A0101409050352065203002BARRICA, CRISTINA R                                     10501
A0101409050352065203002DBU QME ENTERPRISES                                     20500
B0201400760000000989706SORIANO, ADRIAN IBAY                                     1602
A0201400760374033157001WISE OWL GENERAL MERCHANDISE                             0501
B0201400890376047100001MANDAUE PRINT SHOP CORPORATION                           1605
B0101402930000005645912ARTISTESPACE INC.                                        1610
A0101408370000009484444MUNOZ, ALFRED RAIMOND OR                                10501
A0101408370000009484444ALMAJAR, MARIANN N.                                     20500
B0101402770391009346001R.D. SAMANIEGO ROOFING CORP.                             1602
B01014054903920389180021STSERVE LOGISTICS, INC.                                 1601
B0101405490392081974001HALCHEM INDUSTRIAL SALES, INC.                           1610
B0101405490392518855001ISABELLE ROYAL HOTEL & SUITES INC.                       1605
A0101408400000001855416EBRON, ANA LEA SADIA                                     0501
A0101408400394397357001CLAUDIO, JOHN FITZ JERALD SANCH                          0501
A0101408400394606034001PANDA, DIANALAN MACABANDING                              0501
A0101409180000004375166ALEJANDRO, ROMULUS S.                                    0501
A0101409180000009240784APPAVU, ARVIND KINGSELY                                  0501
A0101409180000009240820KRISTIAN M. CABRERA                                      0501
A0101409180000009240875CHRISTOFFER J. CALINAO                                   0501
A0101409180000009240897CLAIRE ANNE GUINEVERE M. DYCOCO                          0501
A0101409180000009240922ISRAR ELAHI                                              0501
A0101409180000009240944MA. ARMIE C. ESPEJON                                     0501
A0101409180000009240988KURALOVIAN GANESAN                                       0501
A0101409180000009241112MELISSA ANN T. MEDENILLA                                 0501
A0101409180000009241145GRACE MAY B. MEDINA                                      0501
A0101409180000009241258BALA VENKATESH SAH PE                                    0501
B1201400150000007556132CASA INFINI BUILDERS AND REALTY CO. LTD.                 1610
A1201400150421685972001JUCUTAN, HEIDI BONDAD OR                                10502
A1201400150421685972001JUCUTAN, ROMMEL                                         20500
A1201400150421797008001SACAY, EVELYN OLIDA                                      0502
A0101403030441239031002**********                                               0501
A0101403320000001803190HILARIO, MICHAEL OR HILARIO                             10502
A0101403320000001803190ANNA MARIA GWEND                                        20500
A0101406330000002278004FLORESTA, WILLIAM LEE OR                                10501
A0101406330000002278004FLORESTA, MARIA LOURDES                                 20500
B0101406330000000432966ARGENTFARM PRODUCTS SPECIALIST INC.                      1602
A0101406330472477539001MA. VICTORIA G. DIEZ                                     0501
A0101406330472508335002RAMIR R. ALVAREZ                                         0503
A3801400170000009483116CHUA, GLORIA TEJADA                                      0501
B1901400160000000007467FIRST UNITED 23, INC.                                    1610
A1401400110492543613001AVELLANO, BEVERLY MARTINEZ                               0501
B0101407430000001213170BN VIEL TRANSPORT & LOGISTICS INC.                       1602
B0101403580511037494001MAGENTE BPO CO. LTD.                                     1602
A0101403580511403658008HERMINIGILDO G. MURAKAMI                                 0501
A0101403580511693764001MESIAS, MARIA CARMINA SANTIAGO                           0502
A0101408530516615903016**********                                               0502
B0101403450521011628001*********                                                1610
B0101403450521011672001**********                                               1610
A0101404000000003853138AQUINO, LAARNI MILAN OR                                 10501
A0101404000000003853138AQUINO, FREDDIE LANGIT                                  20500
A0101410690000000001805MAGNO, JANUARY BARBOSA                                   0501
A0101410690000000710712MONTEMAR, DONN DBU DHLM TRADING                          0501
A0101407720602164307001GABRIEL G. GABRIEL M.D. OR                              10502
A0101407720602164307001CAROLINE C. GABRIEL                                     20500
A0101407720602283353001ERWIN HERNANDEZ OR                                      10501
A0101407720602283353001AGNES HERNANDEZ                                         20500
A0101407720602396604001SANTOS, REBECCA CHUNG                                    0510
A0101407720602398588001GARCIA, JOSEFITA AZCONA                                  0502
A0101407720000002693116PUNO, MARIA PATRICIA ANN TANEDO                          0501
B0101409890000006812746ASEA INDUSTRIAL CORPORATION                              1605
A0101407690000000025174MADRIAGA, LUZMINDA CAMINA                                0502
A0101407690000006242188LEE, AURORA M OR LEE-CATALAN,                           10502
A0101407690000006242188YASMIN M                                                20500
A0101407690652047335001******                                                   0510
A0101407690000000025123LINCUNA, JULIUS BANZON                                   0502
A0101407690000000053881********                                                 0506
A0101413440000006680602CABATANA JR., VICENTE TARSUNA                            0501
A0101413440000002125393ORMIL ENTERPRISE                                         0502
A0101413570000005867430*******************                                      0501
A0101406590000003007023GALON, JOSEPHINE DELA CRUZ                               0501
A0101406590662669602001EVARDONE, BEN PAGARAN                                    0501
A0101410300000003290140LACHICA, MARGARET GERTRUDE FERR                          0501
A1301400210000002909000MENDOZA, ENRICO LUBATON                                  0501
B1301400210682248659001ASIANLAND STRATEGIES CORPORATION                         1605
A1301400340000002283763********                                                 0501
B1301400340683023491001EMPRESS CHEMICAL INDUSTRIES, INC.                        1602
B1301400340000006402502********                                                 1602
A0101408240000008854468ULEP, MARICEL HAJI AHMAD                                 0501
B2801400230000001580296DEL ROS AMUSEMENT ENTERPRISES, INC.                      1601
A0101412340000008076120RUVICRES A. BAYLON                                       0501
B0101404840851018774001FIL-LABOR COMM'L & INDUSTRIAL CORP.                      1601
A0101404840000006364872CORTEZ, KRIS DBU KENZO AND KLOE                          0502
A0101404840851478374094LETICIA FULLO                                            0501
B0101416740010501011041**********                                               2002
