B0101408400394821100608**********                                               2005
B0101400860011821100608**********                                               2002
B0101410850109821100608**********                                               2030
A0101406620273398300002MABORANG, JOHANNA VELASCO                                0502
B0101408790000000039012ARDENT COMMUNICATIONS, INC.                              1603
A0101412890000009833612FLORES, MA AISSA ONG                                     0502
B0101410140475821100608**********                                               2002
B0101400860000000030382**********                                               1601
B0101400860000000030393**********                                               1601
B0101400860011239489001**********                                               1604
A0101400860011504202002**********                                               0501
A0101400150000000807636TESALONA, MARIA CLAUDETTE CRUZ                           0502
A0101400150000011152677ONA, DARRYL EDISON DE OCAMPO                             0501
A0101400150000011152859BUENCONSEJO, BERNARD MONTEALEGR                          0501
A0101400150000011152917TALABUCON, LORETO EMMANUEL LAND                          0501
A0101400150000011152973CORPUZ, JEROME FRANCISCO                                 0501
A0101400150000011153050ISNIT, PETER DARYL MACARANAS                             0501
A0101400150000011153221SARIPH II, YUSUF TANGGOL                                 0501
A0101400150000011153330GABRIEL, ZYRYLL CONCEPCION                               0501
A0101400150000011153363LONTOK, ZOILO LUIS ONGSIAKO                              0501
A0101400150000011153410CARDINAL, JOEL EDWARD BERCES                             0501
A0101400150000011153465ABOGADO, KRIZELLE AINA WEEKEMAN                          0501
A0101400150000011153512DE LUNAS, MARY ANN TUTANES                               0501
A0101400150000011153556ORTIZ, PATRICIA ANN MARIE SANTO                          0501
A0101400150000011153590DOLLENTE, KAYLA GRACE ROMEROSO                           0501
A0101400150000011153636CO, JAN MICHAEL LAO                                      0501
A0101400150000011153669MARQUEZ, IVAN KRISTOFF GONZALES                          0501
A0101400150000011153738CALDERON, JEFFREY IGNACIO                                0501
A0101400150000011153870PULUTAN, FERNAND KRISTOPHER ABR                          0501
A0101400150000011153910NINO, ACE GEROME MAGBANUA                                0501
A0101400150000011153950CHINCHUNTIC, REVALIZA FELICIANO                          0501
A0101400150000011154008ANILLO, PAULINE HANNA DEL POSO                           0501
A0101400150000011154060CONCEPCION, CIELO MAGLANA                                0501
A0101400150000011154173KURODA, MAMORU NMN                                       0501
A0101400150000011155234LAT, ALELIE LANDICHO                                     0501
A0101400150000011155290ILAGAN, KATHLEEN JOY GALVEZ                              0501
A0101400150000011155303LABESORES, ELAINE JOY BACOLOD                            0501
A0101400150000011155325YAMADA, AKIHITO NMN                                      0501
A0101400150061227144001BENJAMIN CHUA OR SIRENE CHUA                             0501
A0101400150000002394625KATIGBAK, CARMENCITA D.                                  0506
A0101400150000002394636KATIGBAK, CARMENCITA D.                                  0503
A0101400150061230586001**********                                               0502
A0101400600000000007707**********                                               0503
B0101400600071233610005********                                                 1605
A0101400600071235565001**********                                               0501
A0101400600071235573001**********                                               0501
B0101405810000000016873TRUETEMPER HARDWARE CORPORATION                          1601
A0101405810072478053001***************                                          0501
A0101405810072573964001CHUA, JEFF SEBASTIAN                                     0510
B0601400100081013319001ANGELES CITY UNIVERSAL MARKETING                        11604
B0601400100081013319001CORPORATION                                             21600
A0601400100081251941001MARCELINO ALAPAG OR                                     10504
A0601400100081251941001JASMINDA ALAPAG                                         20500
A0601400520000002085963CANLAPAN, ARNOLD OR                                     10510
A0601400520000002085963CANLAPAN, REBECCA                                       20500
A0101414090000008926996PEYRA, CRISTINA CHAVEZ                                   0501
A0101410850000003101899CONTAPAY, MELVIN LARRAGA                                 0502
A0101410850000009034651MARCHAN, HELEN PERALTA                                   0501
A0101410850000000005778*****                                                    0501
A0101410850109066227001APAN, NICANOR J DBU ERLNICE                             10501
A0101410850109066227001CARGO SERVICES                                          20500
A0101400730000002858002BORROWERS OF EASYCASH LENDING                           10501
A0101400730000002858002COMPANY INC.                                            20500
A0101400730111386485042ELENA B. PEREZ                                           0502
A0101401960000000211003GO, JOHNSON CHUA OR                                     10501
A0101401960000000211003GO, MARIA MILAGROS CO                                   20500
A0101401960121569490001************                                             0502
A0101412630000007168723BERNARDINO, RONNA RAMIREZ                                0501
A0101413310000005433352ANGCO, JULIE ANN MOJICA OR                              10502
A0101413310000005433352ANGCO, KELVIN AN                                        20500
A0101401830141378973001ALBINO S. JACINTO JR., M.D.                              0501
A0101401830141409771001ALRIC P. BOBO                                            0502
B7201400170000007185591TUAL, MARINA T. BELZA, RODELITH T.                       1601
A7201400170000011160700LOQUIAS, CECILIA VIDAD                                   0503
A7201400170000009673112LADLAD JR., JOSE BANA                                    0501
A7201400170000011158200ESPANOLA, ANGELA J.OR                                   10501
A7201400170000011158200ESPANOLA, RENNOR ANDREW C                               20500
B5001400170000001003410DY JR., DIONESIO K. AND                                 11601
B5001400170000001003410JUAN JR., MARLOU                                        21600
A0101412920000003465070TALEON-PARAZO, ANGELENE TAMAYO                           0501
A0101407270162775985001EDNEL V. PASCUAL                                         0501
A0101401090171399340001CARMEN S. QUESADA                                        0501
A0101401090171500760001ERIC B. ZERRUDO                                          0502
A0101401090171504210001ALBINA R. GANDALLA                                       0501
A0301400950000004455470CHUA, JOSE ANTONIO ANG OR CHUA,                         10501
A0301400950000004455470MARY JULIE CRISTINA ANG                                 20500
A0101401380000001412504RUPERTO, CECIL JOHN                                      0501
B0101401380201016338001ELECTRO-R023 ENTERPRISES                                 1601
A0101401380201374236002PENA, JULIETA MILLARE                                    0503
A0101413020000003353773ACOBA JR., DOMINADOR VICENTE                             0501
A0101410720653089998001ABANA, IDERLINA TAGUIAM                                  0501
A0101410720653528817001VINCENT GONZALO SY OR TIMOTHY                           10502
A0101410720653528817001JON SY OR JULIE                                         20500
A3101400160221566216001CABALLERO, RICHIE                                        0502
B3101400450223017929001PILI BATTERY SALES, INC.                                 1602
A3101400450223056521002SAMIANO DENTAL CORP DBU THE                             10501
A3101400450223056521002NAME AND STYLE OF SMILE                                 20500
A3101400870000000074811ARAPAN, VIVENCIO AGUPITAN                                0501
A1001400190231520766087MONTE, LEONORA BATERNA                                   0501
B1001400350233076793001BINHI MICROENTERPRISE DEVELOPMENT                       11605
B1001400350233076793001FOUNDATION INC.                                         21600
A1001400350233503410003APARICI, ARMANDO AKIAT                                   0502
B1001400350233588824001TAN, LEH WAN                                             1603
A1301400470000000061463DEUS, MARIA ELNORA DE GUZMAN                            10505
A1301400470000000061463OR TAGO, ANA LIZA VELARDE                               20500
B1301400470000000009594CHRISTIAN IAN CONSTRUCTION CORPORATION                   1601
A1301400470252482273001DRA. LEONOR J. DIZON                                     0501
A1901400290000003435670LILYBETH HERNANDEZ VALDESANCHO                           0501
B1901400290000001363133TRIDEA ADVERTISING                                       1601
A1901400290261411419001TERESITA DIMAILIG PERCE                                  0502
A1901400290261659949001JONATHAN PLANAS DE ROXAS                                 0502
B0101401670000008000871TRIUMPHUS, INC.                                          1603
A0101406620000005395086MORAGA, MELANIE MANIMBO                                  0501
B01014086602740679710013810 DISCON 2017                                         1601
A0101400570000002329791CADIZ, ERWIN ORIJUELA                                    0501
A0101400570281466604001BONGALA, TERESA DIANA BOLISAY                            0503
A0101400570281519630001CARLOS, MARIA ARLENE DUMANDAN                            0502
A0101400570281521977001SAYO, LUIS PAJARO                                        0502
A0101400570281595882001LEDESMA, JOSE FORTUNATO GAMBOA                           0505
A0801400160000006893112BATA, MARICEL FERNANDEZ                                  0503
B0801400160311043928001DELIFRANZ BACKEREI, INC.                                 1602
A0801400160311478374004MAELYN HACERMIDA                                         0502
A0101402350321792674001EDGARDO M. NOLOS                                         0502
B0101402510341037951001D' MULTI-ESSENCE PRODUCTS                                1602
A0101402510341045146001GOLDEN DIMSUM FOOD EXPRESS                               0502
B0101409050000007526389MACUJA, J DBU MC8 LINES CONSTRUCTION                     1602
A0101409050000000022500VIOLETA R. BULANTE OR MARIA                             10501
A0101409050000000022500VIRGINIA A. DAIY                                        20500
A0201400920000001331862***********                                              0501
A0201400920375478374008OLELA, DONATILLA OMELGO                                  0501
A0101402930381209797001LAURA VICTORIA A.S. YUSON                                0502
A0101402930381209797002LAURA VICTORIA Y. LAYUG                                  0502
B0101408370382042505001RUN ORGANIC COFFEE CO.                                   1601
A0101408370382404604001DR. MARIANN N. ALMAJAR                                   0505
A0101408370000009296604DE GUZMAN JR., ROLANDO L                                10502
A0101408370000009296604DE GUZMAN, KARLA MA U                                   20500
A0101408370382445729001DR. JASON D. ROSCA                                       0501
B0101408790383047956001NOVARAD ASIA PACIFIC CORPORATION                         1603
B0101411660000002808040GETZ PHARMA (PHILS.), INC.                               1602
A0101402770000007413790CRUZ, DAISY ARRAZ                                        0501
A0101402770391035543001MEGACITY MINISTRY CHURCH                                10505
A0101402770391035543001SUPPORT GROUP                                           20500
A0101402770391039387002VERTICAL GROUP INTERNATIONAL CO                         10505
A0101402770391039387002MARKETING                                               20500
B0101402770000001571693PRIMEBUILDERS CORPORATION                                1601
A0101402770391212232001RODOLFO R. SAN JUAN, M.D. OR                            10505
A0101402770391212232001LILIA L. SAN JUAN                                       20500
A0101402770391406405002MAGTIBAY, FROILAN S.  OR                                10502
A0101402770391406405002MAGTIBAY, CATHER S.                                     20500
A0101405490000006241943MINERVA V. VILLACORTA                                    0501
A0101408400000003421310PUSTA, CHARITO ORILLANEDA                                0502
A0101408400000010506913VERDERA, RODEL BONG RESABA                               0501
A0101408400394027889001TINA S. BERIN FLOWER SHOP                                0505
A0101408400394033093001KOLETZ ART GALLERY                                       0501
A0101408400394036671001CAIT FURNITURE SHOP                                      0501
A0101408400000010507001VITALES, MISAEL RANTE                                   10501
A0101408400000010507001OR VITALES, MARIBEL FRIAS                               20500
A0101408400000001035432MAGLONZO, LETICIA GUARDACASA                             0501
A0101409180000011055762MA. LYRA P. ABAT                                         0501
A0301400820000007372974DOHINOG, JEMA M.                                         0501
B5501400120000000046853LAUNDRYWORLD LAUNDRY SYSTEM CORP.                        1603
A5501400120410636179018CHIU, VALENTIN & JULIA EILEEN                           10504
A5501400120410636179018& CHRISTIAN & CH                                        20500
B1201400150421025695001PRINTING AND PUBLISHING MULTI-PURPOSE                   11602
B1201400150421025695001COOPERATIVE                                             21600
A0101403030000000320505**********                                               0501
A0101403030441241013001**********                                               0512
A0101403320000001647036LORENZO RENAN E. TORRES                                  0503
A0101403320471042842001MIGO MEATSHOP AND FOOD SUPPLY                           10510
A0101403320471042842001CENTER                                                  20500
A0101403320471047588001RHINA JENEPER C. LIBIRAN DBU                            10502
A0101403320471047588001R-GENESIS DRUG STORE                                    20500
A0101403320471196429001SOLIVEN, AIDA GARCIA                                    10501
A0101403320471196429001MEDINA, PAZ SOLIVEN                                     20500
B0101403320471206926002LOLITA B COLINA                                          1601
A0101403320471480971001GINA T. CALABIO                                          0502
B0101403320471513805001DREAM HOUSE BUILDER & REALTY INC.                        1601
A0101410140000001939933**********                                               0501
B0101410140000005945195ARDI HEALTH SERVICES, INC.                               1605
A0101410140475401189001AGUIRRE, CECILIA DILAO                                   0501
A1901400320000002296108MARILYN M BERBERABE                                      0503
A1901400160491244619001ALEJANDRO F UY OR                                       10502
A1901400160491244619001APOLONIA AGNES B                                        20500
A1901400160491282845001ARTHUR C MALALUAN OR                                    10501
A1901400160491282845001IRENE D MALALUAN                                        20500
A1401400110000008266280MORALES, JOLITO GEQUINTO                                 0501
A1401400110492221180002SIA, ERWIN THOMAS C.                                     0505
A1401400110492519846001ABASTILLAS, ROMMEL HILL                                  0502
A1601400170494083045001YONZON, KATHERINE BRONDIAL                               0502
A0101407430000010719452BARRY PEARCE                                             0501
B0101407430000011163663MARY GRACE G. SABIO AND ARLYN V. BULAN                   1601
B0101407430503067977001MARK ALFRED F. LAFUENTE DBU JML CARGO                   11601
B0101407430503067977001TRANSPORT                                               21600
A0101403580000004683030MANALO, MICHAEL VINCENT SAULOG                           0501
A0101403580511150595001MAXIMO P. MARIANO                                        0501
A0101405940000005359782************                                             0505
A0101408530516571877077OLIVERA, TAMIYA NICOLE DE VERA                           0505
A0101408530516656163001************                                             0502
B0101403450521011653001SIERRA MERCANTILE                                        1602
B0101403450521020547001**********                                               1604
A2201400250561038458001PTT SOUTH RAMP GASOLINE STATION                          0501
A2201400250561478374006ANGELINA P. QUIBALLO                                    10501
A2201400250561478374006MEMBERS OF NATASHA                                      20500
A0101404130601014815104MATILDE M. CUPIDO                                        0501
A0101404130601450094003LORQUEL PASCUAL OR ANNIE                                10502
A0101404130601450094003PASCUAL                                                 20500
A0101404130601450094004PASCUAL, LORQUEL OR PASCUAL,                            10501
A0101404130601450094004ANNIE S.                                                20500
A0101404130601657531001MORFE, REYNALDO LUNAR                                    0501
A0101407720602493587001CABUJAT, ROSEMARIE BALIBALOS                             0504
A0101404260611005236004WILTRON ELECTRONICS                                      0502
B0101404260000000156972PRIME POWER MANPOWER SERVICES                            1650
B0101404260000000156972PRIME POWER MANPOWER SERVICES                            1650
A0101409920000010528662PENAFLORIDA, EMELITA L. DBU                             10502
A0101409920000010528662JEEMILES ENTERPRISES JT                                 20500
A0101411530000011163830VALLEJOS, CRISTY RANESES                                 0501
A0101413440000002125291VALDEHUEZA, MARILYN ADSUARA                              0501
A0101413440000006680915LAGUESMA, FLORYVEE JOLBITADO                             0501
A0101413570000001682679ARNOLD HAIRDRESSING SYSTEM CO.                           0505
A0101413990657478374017ARCA, ROBERTO REBATO                                     0501
A0101414120000000398881ALDOVINO, LINO PINEDA                                    0502
A0101410300000005237781CHAN, RINGO DEL ROSARIO                                  0501
A0101410300663792087001YBANEZ, ROSALIE VILLANUEVA OR                           10503
A0101410300663792087001NELSON JR., JOHN                                        20500
A1701400230693478374079GAN, MARIETTA FERNANDEZ                                  0502
A0101408240000006600299LEE, SOOKYOUNG                                           0501
A0101408240000006599991ESTERA, WINSTON GEORGE B.                               10502
A0101408240000006599991OR LLAMAS, ROGIELYN P.                                  20500
A0101408240711228456002MA. VICTORIA MANIQUIS                                   10502
A0101408240711228456002OR STEVE MANIQUIS                                       20500
A0101408240711372181001BELEN H. SANTIANO                                        0501
A0101408240711373410001MELITON OR PACITA GOYENA                                 0501
A2801400100000002253561DEL GALLEGO, ALICIA SANTOS                               0502
B4101400390813028210001GOLDEN DRAGON MOTOR SALES CORP.                          1603
A4101400390000000745299ARAYATA, PHILIP CESAR ABUEG                              0504
A4101400390000000500405TORRES, ANGIELYN BLANCAFLOR                              0502
B4101400390000006103559LEAD WITH INTEGRITY AND GOOD GOVERNANCE                 11605
B4101400390000006103559IN HELPING COMMU                                        21600
A4101400420814357382003REMULLA, GILDA VASQUEZ                                   0501
A0101412340000003438908ANNE B CHUA OR JOSE S BANGAYAN                          10502
A0101412340000003438908OR RAQUEL T BANGAYAN                                    20500
A0101406750852195748001MALABORBOR, LOURDES S.                                   0501
A0101406750852478374002TERESITA LIWANAG                                         0501
A0101406750000000357959TOMANGLAO, ALICIA IBAYAN                                 0501
B0101406750852709702001DAFARM CORPORATION                                       1602
B0101413860000001767962COURT OF APPEALS CREDIT COOPERATIVE                      1630
B06014002300000060452907R FINANCE CORP.                                         1605
