B0101405650322821100608**********                                               2003
A0301400530000002318561VILLANUEVA, FEDERICO MAGPAYO OR                         10501
A0301400530000002318561VILLANUEVA, MARI                                        20500
A1901400290000010957101ALPHA GRACE BAUZON CABIC                                 0501
A6601400120314678477001GARROTE, LYEAN CAPOQUIAN                                 0501
A0101408370382376113001ERLINDA C. ORACION M.D.                                  0501
A0101408370000005220039TUAZON, MA. CRISTINA SANTOS                              0502
A0101408950396669013001DR. MARIO MAULEON PANALIGAN                              0503
A0101400860000002333499**********                                               0502
A0101400860011449713001**********                                               0502
A0101400860011654737002**********                                               0502
A0101400860011669392001**********                                               0508
A0101400150000002902423FORMACION, MA. MERA SANAGUSTIN                           0502
B0101400150061010617001REPUBLIC GLASS HOLDINGS CORP.                            1601
B0101400150061010885003SBM LEASING, INC.                                        1605
A0101400150061042974001NG, WILLIAM DBU                                         10501
A0101400150061042974001WELLINGTON ENTERPRISES                                  20500
B0101400600071235062001*******                                                  1601
B0101405810000005943342PLASTIC TECHNOBAG CO. LTD.                               1601
A0101405810072068606001FRANCISCO, A DBU ICHINEN COMMER                          0501
A0601400100000000786767TAN, JUANITA YU OR TAN, ADRIEN                          10501
A0601400100000000786767YU                                                      20500
A0601400100000009324049REUTTER, MARIA CHERRYL EVIDENTE                          0502
A0101414090000001652433JANGSIK YUN                                              0504
B0101414090000007344563BACOLOD ACREDITAR LENDING CORPORATION                    1605
A0101410850000011182788IMAI, JUNICHI                                            0501
A0101410560000001944221SALVADOR O. MONTERO                                      0501
A0101400730000001822680BALBES, JASMINE MONTEPOSO OR                            10503
A0101400730000001822680JARDIOLIN, MAJAR                                        20500
A0101406040000000096979********                                                 0503
B0101406040000000096968********                                                 1602
A0101401960121238672001**********                                               0502
A0101401830000011483953GABITA, PAMELA GARCIA                                    0501
B0101401090171021847001ALAY SA BATA FOUNDATION, INC                             1602
A0301400530000008495212************                                             0501
A0301400530000011089575CESAR, SONNY BOY NAVARRO                                 0503
B0301400530000000025356RAZONABLE, MARILOU DBU VICTORY                          11602
B0301400530000000025356JAM AGRI BUY AND                                        21600
B0301400660000003368370******                                                   1602
A0301400950000000566785FERNANDEZ, NESTY VANLORD CHI                             0502
A0301400950000001379073FERNANDEZ, NESTY VANLORD CHI                             0501
A0101413600000003851074ELAINROSE FAITH ESBERTO                                  0501
B3101400160000000006588PASEO UNO DE CALAMBA, INC.                               1603
A3001400130000005708658MALBAS, EVA PRIMA CABRERA                                0501
A3001400130000008916310ARAKAWA, MELLIE GRACE POSTRERO                           0501
B1001400190231033210001NEW CON CONSTRUCTION SUPPLY                              1601
A1301400760000003415596PATRICK C. MUNCAL OR                                    10501
A1301400760000003415596LEA IVY F. MUNCA                                        20500
A1301400760000005379393ANTIMANO, ALVIN CORNELIO OR                             10501
A1301400760000005379393ANTIMANO, ELEONOR R.                                    20500
A0101406460000002331000YAP, MICHAEL KEN BLAS                                    0501
A0101406620000002009201GANCAYCO, MARIA CARMEN                                  10501
A0101406620000002009201BERNADETTE K.                                           20500
A0101411820000000589408ARLYNE B. BRANDA                                         0503
A0101400570000003891418BUAN, DENISE MARIE RODILL                                0501
A0101400570000001681790ELIZABETH U. BLACKA                                      0501
A0101400570000001681916BLACKA, ELIZABETH UBIAS                                  0501
A0101400570000006272051BAGAIN, ANDREA MARTHA DE BORJA                           0501
A0101400570281186627001GRACE R. BATTAD                                          0502
A0101400570281188687001LORGENE A. MATA OR                                      10503
A0101400570281188687001CLARISSA MATA                                           20500
A0101400570281361144001ERIC G. IDIESCA                                          0501
B0801400160000002676840JAVELLANA, DANTE ALMONTE                                 1601
B0801400160311040442001ILOILO ASIAN LUMBER & HARDWARE,                         11601
B0801400160311040442001INC.                                                    21600
A0101402510341200729002FERNANDEZ, JIM L. OR                                    10501
A0101402510341200729002FERNANDEZ, MARIS                                        20500
B0101402060000006931968GET QUALIFIED SOLUTIONS, INC.                            1602
A0101402060000009179622AUGUSTO ROSALES &/OR                                    10503
A0101402060000009179622TERESITA S. ROSA                                        20500
A0101409050352645570002EMMANUEL P. CUASAY I                                     0501
A0201400760000002047132MARR, CHERYL ANN COMEROS                                 0502
A0201400760000002047445SANCHEZ, MARICHU SOCO                                    0501
B0201400760000005016740CEBU SENTRA PLASTICS CORPORATION                         1602
B0201400760000005016773CEBU RICH DEVELOPMENT AND REALTY CO                      1602
A0201400760374718187001LMT BUSINESS ENTERPRISES &                              10503
A0201400760374718187001MANAGEMENT                                              20500
B0201400920375035929001UPLAND STOCK FEEDS, INC.                                 1602
B0101402930381008880001AIRTIME MARKETING INC (PHILS.)                           1602
A0101408370000010341754ROMANO, IAN ROD FELICIANO OR                            10505
A0101408370000010341754CRUZ, XAVIER YUL RIVERA                                 20500
A0101408370382660357001DRS. THERESA MARIE R. CACAS OR                          10501
A0101408370382660357001JEANNE MARIE R. MARQUEZ                                 20500
A0101408370382685982001MICHAEL JOHN FRANCIS GASTON OR                          10502
A0101408370382685982001RETSIEL LORRENZ L. LAZARO                               20500
B0101408790383068696001GROLIER EMPLOYEES & WORKERS ASSOCIATION                  1601
A0101411660000005323951DOMINGO, ILUMINADA VIVIEN RUIZ                           0501
A0101402770391029270001RCABAN-SAN ANTONIO DE PADUA                              0501
B01014054903920389180021STSERVE LOGISTICS, INC.                                 1601
A0101408950000007459063ANG, EDMUND ONG OR                                      10501
A0101408950000007459063ANG, VANESSA SECADES                                    20500
A0101408950396563723001CELLONA, CLARISSA VILLARAMA                              0503
A0101409180000003780643VIOLETA VOLODKEVICIUTE                                   0501
A0101412210000000238522QUERODA, MARICRIS ILAGAN                                 0501
A0101412210000003448571SALONGA, MICAELA FAESKA SALAMAT                          0501
A0101412210000011288492SACAMOS, ANA PATRIZIA FABIAN                             0502
B0301400820000005991871ARCHIMED VENTURES INCORPORATED                           1604
A5501400120410622095001CORDER, JAIMELITA OR EDWIN                               0503
A2401400180000000073527LAFARDZ MARKETING                                        0502
A2401400180000007031541JUVINREY TRADERS                                         0501
B2401400180411276067001GAISANO DADIANGAS, INC.                                  1610
A1201400150000007556354AQUINO, KEVIN JAN MAGLAYA                                0503
B1201400150421013432001BAGUIO MAHARLIKA MULTI PURPOSE                          11605
B1201400150421013432001COOP.                                                   21600
B1201400150421013432002BAMACO - CR OPERATIONS                                   1603
A1201400150000000034437YSIT, EFRAIM TANDOC                                      0501
A0101412890000001765562CRUZ, AMANDA OR FERDINAND OR                            10502
A0101412890000001765562BERNADETTE                                              20500
A0101412890000002748003CRUZ, BERNADETTE L. OR                                  10502
A0101412890000002748003CRUZ, JOVITO F.                                         20500
A0101403320471539876001TARUN, HAIDEE GUMIRAN                                    0501
A0101403320471539876001TARUN, HAIDEE GUMIRAN                                    0501
B0101410140475045534001J-BREN STAR CORP. DOING BUSINESS UNDER                  11602
B0101410140475045534001THE NAME AND STY                                        21600
A0101412760000002306229DE GUZMAN, DUSTIN EWALD DANTES                           0501
A0101412760000002067632VILORIA, REMEDIOS O. OR                                 10501
A0101412760000002067632VILORIA, EDUARDO                                        20500
A1901400160491244540002GLORIA G ILAGAN OR CESARIO A                            10501
A1901400160491244540002ILAGAN JR                                               20500
B1401400110492046339002******                                                   1620
A1601400170000001837863RENE N. ESPLANA OR                                      10502
A1601400170000001837863GLORYDEL B. ALAPAD                                      20500
B1601400170000009954545DENNIS M. BATOCABE AND ADERMA ANGELIE                   11605
B1601400170000009954545ALCAZAR                                                 21600
A0701400260000006215663SENAR, VIRGILIO BENIGNO RANOLA                           0502
B0701400260000000041130TREVOR ETON REALTY CORPORATION                           1601
B0101407430000008901315ROMINE LASERJET TONER CORPORATION                        1603
A0101407430000004687527IRENE M. PALUERO                                         0502
B0101403580000007864233MILLENNIUM ERECTORS CORPORATION                          1603
A0101403580511150629008MIRIAM HIPOLITO OR RAMONA PENA                          10501
A0101403580511150629008OR GERALDINE LIMOSNERO                                  20500
A0101403580511226758001OCAMPO, RUSTICO MORSE                                    0501
B0101405940512673704001METROLEASE (PHILS.) INC.                                 1601
A0101408530516485540001PEREZ, MARY MILLICENT NACION                             0501
A0101411790000011045780ZUBIRI, RACHEL SULIBA                                    0509
B0101403450521011836002UECM FOUNDATION,INC.                                     1601
A0101403450521238056001**********                                               0505
A0101403610000000015818AGUJO, MARILUZ SANCHEZ OR                               10503
A0101403610000000015818AGUJO, JUANITO JR. M.                                   20500
A2201400250561639490001AUDREY LIM TAN                                           0501
A0101407720000007936141HUAN, CONNIE HUI                                         0502
B0101407720602027414001GAN ADVANCED OSSEOINTEGRATION CENTER                     1610
A0101404260611335308002ALIMBOYONG, JOSEPHINE MAHINAY                            0503
A0101409890649748239001**********                                               0508
A0101413570000002906647EMMANUEL J. AGCAOILI OR                                 10501
A0101413570000002906647MILDRED O. AGCAOILI                                     20500
A0101413990000006768638***                                                      0501
A1301400210682544084001CASTRO, DOROTEA FELIPE                                   0502
A1301400500000007833647ROBLES, ANGELINE ESTHER OR                              10501
A1301400500000007833647ROBLES, JUAN RENATO                                     20500
A1301400500000006218566*****                                                    0502
A1301400500000009723140GARCIA, TEDDY MANALAYSAY                                 0503
A1701400230000008555211MACARAEG, BERNARDO DE GUZMAN DB                          0501
A0101408240711375826001QUIAMBAO, AKIHITO GUSTAVOS                              10502
A0101408240711375826001OR QUIAMBAO, BEATRIZ                                    20500
A0101408240711392814001HECTOR OR NELIA BETITA                                   0501
A0101408240711490981001MILLS, AMPARO OR VICENTE JR.                             0501
A4101400260812246527001ISIDRO B. DELA CRUZ JR. OR                              10510
A4101400260812246527001LILIAN H. DELA CRUZ                                     20500
A4101400420814036899001RODRIGUEZ- GUETA DENTAL CLINIC                           0501
B4101400420814038765001EG&G CONSTRUCTION SUPPLY                                 1602
A4101400550000010508602M.A. NACIONAL BUILDERS                                   0501
A0101412340000003340547MICHAEL V. ALBANO                                        0502
A0101412340000003438748LEE L. ZAMORA                                            0501
B0101404840851009288001CHRIST BAPTIST CHURCH                                    1602
B0101404840000006365251NEW GENERATION LINK CONTRACTING AND                     11602
B0101404840000006365251TRADING SERVICES                                        21600
A0101404840851632183001ARABE, ALEJANDRO BAUTISTA                                0501
A0101406750000002251383MORALES, GLORIA REYES                                    0505
A0101406750852796614001********                                                 0501
