A0101402770391063860001DAZZLE TIP NAIL LOUNGE                                   0501
A0101402510000003072415DE JESUS, NORIKO MEDINA                                  0501
B0301400950000002115202GUEVARRA, GEMMA D. OR                                   11601
B0301400950000002115202GUEVARRA, ARTURO                                        21600
A0101412470000000853834CHUNG, EUN JOO                                           0502
B0101412470278821100608**********                                               2005
A0101405940000005359213RAZON, DIANA LYN NEGAPATAN                               0502
A0101401250021181229001MACAPAGAL, MARIA JUANITA R.                             10502
A0101401250021181229001OR MACAPAGAL, GIL M.                                    20500
B0101400150061010997001EASTWIND GARMENT MANUFACTURING CORP.                     1602
B0101400150061011050001A & A SECURITIES, INC.                                   1605
A0101400150061226837001BIENVENIDO P. NABLE                                      0501
A0101400150061337099199ARLENE C. YU                                             0501
B0601400100000002099243ECOHYGIENE SALES INC.                                    1605
A0601400100081504737001KAW, GEMINI DEANG                                        0502
B0601400100081791191001TOTAL HYGIENICARE INC.                                   1610
A0101413280000000041852OLA, EDAM CRUZ DBU HIJK SHIRT                           10501
A0101413280000000041852PRINTING & DESIGNS                                      20500
A0101414090000003314923DE CASTRO, ENRICO LLOREN OR                             10502
A0101414090000003314923DE CASTRO, RIZEL ORIT                                   20500
B0101400730111008426001COUNTRY BANKERS INSURANCE CORPORATION                    1603
A7201400170000008719193MALACO, ELYN ALBIOS                                      0501
B7201400170152821200608**********                                               2002
B5001400170153821100608**********                                               2002
A0101400440000001440000LAPASARAN, MARY GRACE FRANCISCO                          0502
A0101400440161190481001HELEN LEONG OR ROSALINDA LI                              0505
A0101400440161478374008MARY FE I. REDONDO                                       0501
A0101400440161525001105VIRGIE B. CRUZ                                           0501
B0101407270000008578214ELEFANO, PIERRE JAN CAVESTANY  AND UY,                  11601
B0101407270000008578214CARLA MARIE L.                                          21600
A0101407270162428027001VIUDEZ, EMERSON MARCELO                                 10502
A0101407270162428027001OR VIUDEZ IV, ENRIQUE                                   20500
A0101401090000001611427QUINTO, EDWARD ASTORAS                                   0501
A0101401090171331630001MARIA ARCELI G. MAGSINO                                  0501
A0101401090171399334003CATHERINE R. CORDOVA                                     0501
A0101401090171457831002ERIC P. REDOTA OR                                       10502
A0101401090171457831002RACHEL N. REDOTA                                        20500
A0301400530000003573540GO, JOANNE LU OR XU, ZHIPEI                              0505
B0301400530193034066168TAGUM COMMERCIAL & REALTY                               11650
B0301400530193034066168CORPORATION                                             21600
A0301400530193478374008CHYRL ANN SENANGOTE                                      0502
B0301400790000001776230OLAGUER, DENISE ALEXANDRA DBU                           11601
B0301400790000001776230LJDA ENTERPRISE                                         21600
A0301400950000005707091ALCUIZAR, VERGILIA BRUNIDOR                              0502
A0301400950000002115322HAO, LIEZL DBU 168MH TRUCKING &                         10505
A0301400950000002115322HEAVY EQUIPMENT                                         20500
B0301400950000002115997MERCY MATERNITY CENTER, INC.                             1603
A0101401380000001412742EDUARDO, ANGELINA BALDIMO                                0501
B0101410720000005786770ISIP MANA BUILDERS AND REALTY COMPA                      1602
A0101410720653089998001ABANA, IDERLINA TAGUIAM                                  0501
A0101410720000002283963MACARAYAN, LUZVISMINDA URBI                              0505
B3101400160221045923001SUNRICH MANUFACTURING CORPORATION                        1610
A3101400450223028468001NEW ARMSTRONG SECURITY AGENCY                            0502
B3101400740224022200003*                                                        1610
B1001400190231039064001*****                                                    1604
B1001400190231300482001ORO SOLID HARDWARE, INCORPORATED                         1603
A1001400190231520766105ABUCAYON, MEBB BALA-ON                                   0501
A1001400190231520766128MAGLANGIT, JONIE QUIACAO                                 0501
A1001400480000000041454SIMON, GEORGIE ABECIA OR                                10502
A1001400480000000041454SIMON, JOEL CAGA                                        20500
A1001400480000002300338ERESO, LILIA SIA                                         0503
A1001400480000002300452ESCO, CASEMERO CALATRAVA                                 0501
A1001400480000003357500SALVACION JR., DIONISIO CAINGLE                          0501
A1301400470000004626875CENEN C. BANSALE OR                                     10501
A1301400470000004626875MELINDA O. BANSALE                                      20500
A1301400470252525105001FILIPINA M. MAGTALAS                                     0505
A1901400290000003252822ROMA PARAN RECINTO                                       0502
A1901400290000008740056SANG SHIK YOON OR MYOUNG JA KIM                          0501
B1901400290261063999001DEA HAN APPAREL, INC.                                    1601
A0101406460272442863001********                                                 0501
B0101406620273012462001COL FINANCIAL GROUP, INC.                                1615
B0101406620273418054001ART CARTS, INC.                                          1605
A0101412470000000520209STA ROSA, PATRICIA MAE MARTINEZ                          0502
A0101400570281186530001CARLOS AGUILA OR                                        10502
A0101400570281186530001MERCEDES AGUILA                                         20500
A0101400570000000470546DR. JEANETTE TAACA-BITO OR                              10503
A0101400570000000470546IVANA VICTORIA TAACA                                    20500
A0101400570281327832001REYES, JOSE MARI AGUILA                                  0503
A0101400570281388539001JOSEFINA S. SUMAYA                                       0504
A0101400570281507924001RAMOS JR., MIGUEL ARAOJO                                 0502
A2601400270000002677547MILA R. VALDEZ                                           0502
A0801400160000000476368**********                                               0501
A0801400160311269696001MARY TIU OR ALICE TIU OR                                10503
A0801400160311269696001CAROLINE TIU                                            20500
B0801400160311637269001ASIAN TULIP HOLDINGS CORPORATION                         1601
B6601400120314047332001ST. ANTHONY FARM INSTITUTE OF                           11601
B6601400120314047332001TECHNOLOGY INC.                                         21600
A0101402510341353926001ROLANDO G. GALAO OR                                     10506
A0101402510341353926001RUE B. GALAO                                            20500
A0101409050000003642088JULIANO, MICHELLE                                        0501
A0201400920000000991711MAGDUA, MAY ANN DARUNDAY                                 0501
A0201400920375478374008OLELA, DONATILLA OMELGO                                  0502
A0101402930381725333001SAMONTE, ROBERTO GONZALES                                0501
A0101408370382076283001BLESILDA E. CONCEPCION                                   0503
A0101408370382205302001DR. ARDEA ARDEOLA RABOR                                  0502
A0101408790000008468151JOSE MA ANTONIO M. MACALINO                              0501
B0101402770391009705002VICTORIA VALLEY CONDOMINIUM INTEGRATED                  11602
B0101402770391009705002CORPORATION                                             21600
B0101402770000000080635PHILIPPINE SKYBIRD INDUSTRIAL                           11603
B0101402770000000080635CORPORATION                                             21600
A0101402770391242648002YABUT, LEILA VICENCIO                                    0501
A0101402770391470637001LACANIENTA, LUCILA FELIZARDO                             0501
A0101405490392510652001ENCARNACION M. GOLDING                                   0502
A0101408950396463758001CHUA, CARLOS EMMANOEL                                   10503
A0101408950396463758001MOSSESGELD                                              20500
A0101408950396659332001DR. ANGELICA ANNE ACEDILLO CHUA                          0501
A0101409210000000043752EARL NICHOLLSON CHUA                                     0501
A0101409210000001294275PINEDA, FEDERICK JOHN RAMOS                              0501
A0101409210000006605483BLESSIE ZARZUELA                                         0501
A0301400820000002271956COMAINGKING, JESUS B.                                    0501
A2401400180411478374020MORI, LYDIA                                              0502
A2401400180411514423001DEALA, BERNARDITA GATCHALIAN                             0502
B0901400220000006214295**********                                               1602
A0901400220000000012299GAYON, MARINA TACHADO                                    0502
A0501400170000006300583LIM, CELIA CHUA                                          0501
B0501400170481015881001TOYOTA DAGUPAN INC.-2                                    1615
A0501400170000001032153UNGOS, ROWENA ORFINADA                                   0505
A3801400170000008741453SAN JUAN, MARVIN PARCON                                  0501
A3801400170000008741624NAVAL, MAYBEL ACLAN                                      0501
A0101407430503036726001MINOU EXPRESS CUSTOMS BROKERAGE                          0502
A0101403580511028909001E.M. MOLINA'S CONSULTANCY FIRM                           0501
A0101405940000004476262MARCELO-ABARRO, MONICA LEONOR T                          0502
A0101406880000006986772SANANMUANG, SATAWAT                                      0502
B0101408110515020436002JMD INTERNATIONAL CORPORATION                            1607
B0101412050000000890984NINON RETAIL CONCEPTS, INC.                              1604
A0101403450000001769708**************                                           0501
B0101403450521011748001EUROTILES INDUSTRIAL CORP.                               1605
A0101403450521239620001**********                                               0502
A0101403450000006055665***********                                              0501
A0101404000000003284520PEDRO, LEAH ANGELIE GALUPO                               0501
A0101404000551229789001GUTIERREZ, ALEXANDRA KATRINA L.                          0501
A0101404130000006275972ASUIT, ESTRELLA                                          0501
A0101407720602283353001ERWIN HERNANDEZ OR                                      10501
A0101407720602283353001AGNES HERNANDEZ                                         20500
A0101412180000002340665CARANDANG, KRYZTLE VERONICA COR                          0501
A0101409920650478374028RENDON, RENELYN GABATAN                                  0501
B0101413570000000206522HOLY SPIRIT COMMUNITY MULTIPURPOSE                      11601
B0101413570000000206522COOPERATIVE                                             21600
A0101414120000001142863*****                                                    0501
B0101414120000003584281JD & P FOOD TRADING CORPORATION                          1602
A0101414120000007655185NELLCON BUILDERS AND                                    10501
A0101414120000007655185CONSTRUCTION SUPPLY                                     20500
B1301400210682039698002SEVENTY SEVEN TRAVELLERS INN                            11601
B1301400210682039698002CORPORATION                                             21600
A1301400210682245308001ERNESTO REYES JR.                                        0505
B1701400230693035209003OUR SAVIOUR'S FOUNDATION, INC.                           1602
A1701400230693063867001ILOCOS IELTS REVIEW CENTER                               0501
A1701400230693662898002DUQUEZ, REYNALDO AQUINO                                  0501
B0101408240000000832940VIVAMANILA INC.                                          1601
A4101400390813478374045FIRMALINO, MELECIA ATIENZA                               0503
B4101400420814034500001PRODLINE ENTERPRISES COMPANY                             1603
A4101400550000004846846OBISPO, ARIEL PARUMOG                                    0501
A4101400550000006044311SALVACION ELECTRONICS SALES                             10503
A4101400550000006044311CENTRE                                                  20500
A4101400550815737397001PIQUERO, EMILY FERNANDO                                  0502
A0101412340000003343462ALLAN ROY R. GARCIA                                      0501
A0101412340000006808206MARIO LUIGI UMALI                                        0501
A0101404840851211074001RODRIGO SP VIVO &/OR                                    10506
A0101404840851211074001JULIA A VIVO                                            20500
A0101405070000003439741ALARO, JHON REY PADURA                                   0501
A0101413860000000145020DASIGAN, ANGELITA GONZALES                               0501
A0101413860000000145151**********                                               0502
B0101413860000001768090FIRST DIGITAL FINANCE CORPORATION                        1610
B0601400230891039268001GOLDIE PLUS LENDERS, INC.                                1605
A0601400230000000452839ARCINUE, S DBU SLA ENTERPRISES                           0502
B0601400230891647141001PATERNO &/OR MA EVANGELINE LUCIANO OR                   11605
B0601400230891647141001JOANNE K PALO                                           21600
