B3401400280000000002342VIC IMPERIAL APPLIANCE CORP.                             1604
A0101405490392170537002LORNA V. TUGADE                                          0501
A0101412340000002900381MADRONERO, JEFANNIE EPIZ                                 0501
A0101400860000000100830**********                                               0502
A0101400860000002333411**********                                               0505
A0101400860011763516001**********                                               0501
B0101401250021006625003WODEL, INC.                                              1610
A0101401250021392635001DEL ROSARIO, JAIME CHUIDIAN                              0506
A0101401250021478374014IRENE P. FADULLO                                         0501
A0101401250021688004001SENEN O. GOLI                                            0502
B0101400150061010644001JESUS V. DEL ROSARIO FOUNDATION,INC                      1610
B0101400150061010688010SB CARDS CORPORATION                                     1605
B0101400150061010688010SB CARDS CORPORATION                                     1605
A0101400150061179137001JAIME C. DEL ROSARIO                                     0506
A0101400150061365731001BASILISA R. ROBEA                                        0503
A0101400150061626610001********                                                 0501
B0101400600071011421002******                                                   1601
B0601400100081013032001MT. VIEW BIBLE BAPTIST CHURCH                            1610
B0601400100081013032002MT. VIEW BIBLE BAPTIST CHURCH                            1605
A0601400360000000978710B. LEGG                                                  0501
A0601400520000001349617TIATCO, LIRNA PINEDA                                     0503
A0101400730111386485079GLYN G. HORTALEZA                                        0502
A0101400730111529561002BALANE, RAZEL DE DIOS                                    0502
A0101401960121096152001***************                                          0502
B0101400440161025954001DEX INTERNATIONAL CO.                                    1604
B0101400440161032916001S.D. CUBILLAN CONSTRUCTION                               1601
B0101400440161186956001NUMERIANO H. HERNANDEZ                                   1602
A0101400440161478374008MARY FE I. REDONDO                                       0501
A0101400440161525001125MAY M. RAMOS                                             0501
B0101407270162019056001QUICKSERVE EQUIPMENT & SERVICES INC                      1605
B0101407270162036459001ULTRATECH PRINTING CORP.                                 1605
B0101407270162040845001RDJ INDUSTRIAL SUPPLY, INC.                              1602
A0101407270162331908091EDUARDO G. DE GUZMAN                                     0504
A0101401090171196054001DRS. EMILIANO OR BEATRICE                               10504
A0101401090171196054001CANONIGO                                                20500
A0101401090171510164001MARIA CECILIA D. LOBO                                    0501
A0301400530193574863001DAGAANG, DAISYDARIO OR JENNE                            10505
A0301400530193574863001OR DAISYJENNE OR                                        20500
A0301400660000002348483*****                                                    0502
A3101400160221220998001DANILO C. CUEVAS                                         0502
A3101400450223019912001LAGUNA HEALTH SERVICES                                  10510
A3101400450223019912001COOPERATIVE                                             20500
A3101400450223028468001NEW ARMSTRONG SECURITY AGENCY                            0502
A1001400190000000016402LEGASPI, LUCILO BALATERO                                 0502
A1001400190231520766083ASUNCIONITA G. ALBULADORA                                0501
A1001400480000000606853**********                                               0502
B1001400480000003357891AYA VENTURES CORP DBU ASONHUAT AGRO INDU                11601
B1001400480000003357891STRIAL GROWER                                           21600
A1901400290000002926696ARLENE REYES MINDANAO                                    0501
B1901400290261027293001LIPA MEDICS INC.                                         1610
A1901400290261057642002CUENCA, NINA ANGELINA TANCHANCO                         10501
A1901400290261057642002DBU CUENCA JEWELRY                                      20500
A1901400290261244411001DR. WILLIAM M TEMPLO                                     0505
A1901400290261415870001BUENAVENTURA ROBLES INFANTE                              0504
A0101401670271186213001ALICE OR BENEDICT OR LAWRENCE                           10502
A0101401670271186213001OR PATRICIA A.I.                                        20500
B0101406620273017284001ACCENT MICRO TECHNOLOGIES, INC.                          1605
B0101406620273216386001CITIMEX, INC.                                            1602
A0101406620273409244001MANIPOL JR., MARIO MANDRIQUE                             0501
A0101408660274494662001CRUZ JR., LAMBERT LONTOK                                 0501
B0101410980000000171975AMMC - AVERY MANILA MARKETING CORP.                      1602
B0101411820000000024142HARDCOM COMPUTER SYSTEM CO.                              1601
A1101400120000002254855AJERO II, ALFONSO CADAVERO                               0502
A1101400120000003022373BANTULA, EVELISA                                         0501
A1101400120000001547440CRUZA, EDUARDO ANIANO                                    0501
A0101402510000000049329UNICARE DENTAL, MEDICAL TRADING                         10501
A0101402510000000049329CORPORATION                                             20500
A0101402510341331222002ERLINDA C. RECOCO                                        0502
B0101402060351035807001SOLEREX WATER TECHNOLOGIES, INC.                         1620
A0101402060351038689001E.E. REYES ENTERPRISES                                   0501
A0101402060351408020001***************                                          0502
B0201400920375036250188OCEAN TRANSPORT GROUP OF COMPANIES, INC.                 1602
A0101408370382391120001DR. SALVADOR M. EUSTAQUIO                                0502
A0101408370382795237001DR. LUIGI PIERRE S. SEGUNDO                              0501
A0101408790000000599931INCIONG, ARNULFO LUPERA                                  0501
A0101411660000002309417ROMERO, MICHAEL LAGMAN                                   0506
B0101408400394027797001BY THE YARD FABRIC CENTER                                1602
A0101408400394478374075VIOLETA I MANUEL                                         0501
A1201400150421562203001ESTRELLA, MICHAEL GALVEZ                                 0504
A0901400220000000012324SPECIALIST MOTORCYCLE PARTS &                           10504
A0901400220000000012324ACCESSORIES, INC                                        20500
B0101403030441011894001REXSSEL AUTO PARTS CENTER                                1601
B0101403030441012179001**********                                               1602
B0101403030441239806001JETCO MOTOR SALES                                        1604
A0501400170481046585004ANG, JUSSLYNN DBU AVS                                   10502
A0501400170481046585004DISTRIBUTION CEN                                        20500
A1901400160000001718065BOSS HOBS SHOES AND                                     10502
A1901400160000001718065BAG REPAIR SHOP                                         20500
A1401400110492221687001CABRIGA, BENILDA ESPEDIDO                                0504
A1601400170000001069205HECHANOVA, ROSA GRACIA REYTA                             0502
A0101407430503036416001JUPITER'S BUTCHER SHOP                                   0505
A0101407430503153283005NGO, PATRICK S.                                          0501
B0101403580511017392001LENRICK CORPORATION                                      1602
B0101403580000000922883UXMNL INC.                                               1602
A0101403580511151398002ARIZA TERESA MANGALILE OR                               10501
A0101403580511151398002REYNALDO JOSE MANGALILE                                 20500
A0101408110515631447001CHRISTINE E. THOGERSEN                                   0501
B0101408530516034772001INFOSTORAGE CORPORATION                                  1603
A0101408530516485362001MELVIN ALLAN D. VICERAL                                  0501
A0101408530000001885663IGMEDIO L. GARDOSE II                                    0501
B0101403610531046502001SAN PEDRO APOSTOL PARISH                                 1603
A0101403610531047978001TIMONES, ALPHA PINTACASI                                10503
A0101403610531047978001DBU JAZKY BUILDERS                                      20500
A0101404000000003706272CAMBALIZA, ROMULO PANEM                                  0501
B0101410690000000001861FIVE STAR COLORPRINT, INC.                               1602
A0101404130601450078001ROBERT B. OCANA OR                                      10502
A0101404130601450078001MARJORIE OCANA                                          20500
A0101407720602006037001MA. LORNA S. BANGAYAN                                    0501
A0101409920000001952007MEMBERS OF NATASHA (SHOECAT INC                         10501
A0101409920000001952007ALCANTARA, RONNIE S.                                    20500
A0101409920000001952018MEMBERS OF NATASHA (SHOECAT INC                         10502
A0101409920000001952018NICDAO, MARIA L.                                        20500
A0101413440000003298260ROSIMO, MARLIE SAMSON                                    0501
A0101413440000002846319DIUCO JR., GENEROSO SERRANO                              0502
A0101413570000001682599LOLITA L. ALMAZAN                                        0502
A0101406590662058367001CALDERON, JASON D. DBU YUNO                             10501
A0101406590662058367001JAPANESE LEARNING CENTER                                20500
A0101406590662711909001NANIONG, JASON MARTIN A. OR                             10501
A0101406590662711909001NANIONG, JUSTIN MICHAEL A                               20500
A1301400500000000213265VINCENT P. JAVIER OR                                    10505
A1301400500000000213265TERESITA F. JAVIER                                      20500
A0101408240000000039609LAWS, JACQUELINE MICHELLE                                0501
A0101408240711466241001CALMA, GREGORIO GUNGON                                   0503
A2801400100712495268002LEE, JOSEPHINE GLECINDA TULAO                           10502
A2801400100712495268002LEE, JAMES TAN                                          20500
A2801400230713308421001BASTO, LORALIE DELA CRUZ                                 0501
A4101400390000000975300ALBELDA, RONNEL DBU PRETORIAN                           10501
A4101400390000000975300TRANSPORT SERVIC                                        20500
B4101400420814018935001IGLESIA EVANGELICA UNIDA DE CRISTO(ANABU                11602
B4101400420814018935001UNIDA CHURCH)                                           21600
B4101400420814034973001JOVEN TIRE ENTERPRISE                                    1601
A4101400420814436355001BAUTISTA, LOIDA U. OR                                   10502
A4101400420814436355001BAUTISTA, EPITAC                                        20500
A4101400420814520766056MULIG, ESTER R.                                          0501
B4101400420814571500001TELDATA NETWORK & TECHNICAL SERVICE                      1602
A4101400550000002090962JESSIE CASTILLO OR PETER SIMON                          10501
A4101400550000002090962LARA OR EVANGELINE LUNAR                                20500
A0101412340000004360310JOVILYN C. ESTARIS                                       0502
A0101406750852388877001LAMBUSON, MARIA AGNES PENAMANTE                          0501
A0101405070861604027002KIM, DONGRYUL                                            0503
