A3001400130230767566032GERALDINE P. MALBAS                                      0501
A3401400280000000972783DELA CRUZ, EMILIO BILLONES                               0501
A3401400280318085116001GALINO, RODELIA VILLARUZ                                 0501
A0101408400000000029525PELAEZ, MARIA ANGELINA ARAULLO                           0501
A0101414120000000398932R. ACOSTA ENTERPRISES                                    0503
A4101400420814478374026FLORENCIA DELA CALZADA                                   0501
A4101400420814520766095SHERYL NICOLAS MENDOZA                                   0502
A0101400860011409220002**********                                               0503
A0101400860011533026001**********                                               0502
A0101400860011685244001BANDIOLA, SIDNEY MORALES                                 0502
A0101401250000002131891MAGAS, CRISANTO PACUMBALA                                0501
A0101400150061369552001ROMEO TONGOL OR                                         10504
A0101400150061369552001FLORDELIZA TONGO                                        20500
B0101400600071233702001FE ZAMORA                                                1601
B0101405810072018018001AIMWAY PLASTIC & PRINTING CORP.                          1602
B0101405810072020925003DW PLASTIC CORP.                                         1603
B0101405810072029570001PLASTIC CONSUMER CORPORATION                             1603
B0101405810072045865001UNO FOREX INCORPORATED                                   1602
A0101405810072361243002PONSARAN, MARY JANE RAMOS                                0503
A0101405810072374800001**********                                               0503
A0101400730111483566001MONZON, HOPE CUBITA                                      0501
A0101413150000003208277******                                                   0501
B0101401830000000059972CARITAS SALVE CREDIT COOPERATIVE (NOVA/                 11603
B0101401830000000059972ST.PETER) 010                                           21600
A0101401830141292667003MAGTALAS, GEMMA OR LEE MARVIN                           10505
A0101401830141292667003OR JOHN GEMMO                                           20500
A0101407270162333003004MAURO C. AGUSTINES                                       0502
A0101401090171035426001BIG MARTHA ENTERPRISES                                   0510
B0301400370192821100608**********                                               2002
B0301400530193014284008COLOURLAND INC. - TAGUM                                  1602
B0301400530193038459169PIONEER BEE CORP. 2                                      1605
A0301400530193478374008CHYRL ANN SENANGOTE                                      0502
A0301400530193702921168SELGAS, ROBERT U. OR                                    10501
A0301400530193702921168SELGAS, ELVIRA R                                        20500
A0301400790000002301331SORROCHE, RONALD JAY UY                                  0501
B0101401380201011227001PHILTRANCO SERVICES ENTERPRISES, INC                     1610
B0101410720653043060001METRO DRY CLEAN VENTURES, INC.                           1602
B0101410720000000968123DPE ASIA CONTAINER SERVICES&OUTSOURCING                 11603
B0101410720000000968123SOLUTION INC.                                           21600
A0101410720653478374010SOCORRO JIMENEZ                                          0502
A0101412500000000739657****                                                     0501
B3101400160221033214001RD CASH PADALA, INC. AREA 02                             1603
A3101400160221220185001CLEOTILDE C. MALABANAN                                   0501
A3101400450000005256093ELLIOT, DENNIS DINDIN                                    0501
B3101400450223028412001CERDA MATERNITY CLINIC                                   1604
B3101400740000004509535MOLD PARTS MANUFACTURING ASIA INC.                       1605
A1001400190231272349001CHAN, MICHAEL L.                                         0502
A1001400350233042653001BLUE ENERGY RESOURCES                                    0502
B1001400350233042688001SOLIDMARK, INC.                                          1605
B1001400350000000017096AYA VENTURES CORPORATION                                 1604
A1001400350233525240001CASINO, ANGELICA RODRIGUEZ                               0501
B1301400470000003270135EPS HAULING COMPANY INC.                                 1601
B0101406620273460663001PREMIUMSOLE INTERNATIONAL CORPORATION                    1605
A0101411820000004981751ROBERTO ANTONIO VALERA OR                               10501
A0101411820000004981751OLIVE JOY CABACUNGAN                                    20500
A0101411820277792428002YAP, JOHN MILTON EMBILE                                  0501
A0101411240000001563480LIM, DAVID YU OR LIM, PETER                             10502
A0101411240000001563480YU OR HSIEHSHIN, JEAN                                   20500
A6601400120314478374005LOPEZ, MARIALYN P.                                       0502
A3401400280000002323531VILLARUZ, ISAAC BUARON                                   0501
A3401400280318478374001MARILYN B. BISMANOS                                      0502
B0101402350321024658002OLIVAREZ COLLEGE INC.                                    1608
A0101402350321179570001NEAL ORTEZA OR                                          10501
A0101402350321179570001IMELDA OLIVAREZ                                         20500
A0101402350321478374058DELA CRUZ, MERLITA GABON                                 0501
B0101402060351038390001MC SHIPPING CORPORATION                                  1603
A0101402930000003179582GERNALIN, E DBU UNIMAN CONSTRUC                          0502
A0101402930381207239001MA. CELINA R. VELUZ                                      0502
A0101408790000000039132PANGILINAN, MARIANNIE E. OR                             10502
A0101408790000000039132PANGILINAN, JASMIN E.                                   20500
B0101405490392019217001SHEMA RESOURCES, INC.                                    1603
B0101405490000003905184NORTHSHORE HARDWARE AND CONSTRUCTION                    11602
B0101405490000003905184SUPPLY                                                  21600
A0101408950000002255450LIM, ADELINA SABAY                                       0502
A5501400120000000046871CHIU, VALENTIN & JULIA &                                10503
A5501400120000000046871CHRISTIAN & CHRI                                        20500
A2401400180000002284302LAMADRID, BRENDA MARJORIE QUINE                          0502
B2401400180411031945001ABC DISTRIBUTORS INCORPORATED                            1605
B2401400180411338845003ROBERTO OR JANET PERALES JT ANTONIO OR                  11601
B2401400180411338845003ADELENE PERALES                                         21600
A2401400180411478374035MERLINDA D. TAMUDTAMUD                                   0501
B0101403030441011865001**********                                               1601
A0101403030441241050001**********                                               0503
A0101403030441289229002**********                                               0501
A0101403030441707375001**********                                               0502
A0101412890470340665001POLICARPIO, WILMA D. OR                                 10501
A0101412890470340665001POLICARPIO, REYMIL C.                                   20500
A3801400170490756116001ALEXANDER E ROJAS OR                                    10501
A3801400170490756116001JULIET A ROJAS                                          20500
A1901400160000005752781JOSE A. ALARCA JR., OR                                  10501
A1901400160000005752781JOANNE R. ALARCA                                        20500
A1901400160491086902001DANTE D CALINGASAN OR                                   10504
A1901400160491086902001LERMA D CALINGASAN                                      20500
A1901400160491326737002TEODORA B BORBON OR                                     10502
A1901400160491326737002MA THERESA B CHUA                                       20500
A1401400110000000034722GAGAN, ROMA SANGAHIN                                     0501
A0101407430503241449001GEMMA LIWAG OR                                          10502
A0101407430503241449001ROMMEL LIWAG                                            20500
B0101403580511005154001R.G. MANABAT & CO.                                       1620
A0101403580511028909001E.M. MOLINA'S CONSULTANCY FIRM                           0501
A0101403580511152926001MARIO T. MANANGHAYA OR                                  10503
A0101403580511152926001REMEDIOS C. MANA                                        20500
A0101403580511156579014IMELDA FUNDALES                                          0502
A0101403580511311247001JOCELYN V. FRANCISCO                                     0501
A0101403580511388107001ANTONIO G. PEDRO OR                                     10502
A0101403580511388107001FELISA C. PEDRO                                         20500
A0101406880513568091001CALALO, ABEL JAN SAYAT                                   0502
B0101408110000001199260PHILIPPINE VETERANS BANK - TRUST &                      11601
B0101408110000001199260MANAGEMENT GROUP                                        21600
A0101408530516526319001********                                                 0502
A0101411790000000469643KEH, KENNETH KHOE                                        0501
B0101403450521353210002**********                                               1601
A2201400250561424857001ELEN L. YUTUC                                           10501
A2201400250561424857001OR ROY Y. YUTUC                                         20500
A0101407720602367885001SY ORTIN, TERESA TAN                                     0505
A0101413440000000570289CACAO, MARILEEN ATIENZA                                  0501
A0101413570000001682679ARNOLD HAIRDRESSING SYSTEM CO.                           0503
A0101413990000001406564CONSEJEROS, MYRA M.                                      0501
B0101414120000001142818CAS PROPERTIES INC.                                      1603
A0101410300000004361660BALOCATING, CARMENCITA C. OR                            10501
A0101410300000004361660BALOCATING III, EMILIANO                                20500
A0101410300000000592198BARBASA, J DBU TIGER WATER                              10502
A0101410300000000592198STATION & GEN MERCHANDISE                               20500
A0101410300000000191815CARBALLO, LUIS ANTONIO S. OR                            10503
A0101410300000000191815SALAZAR, EMMANUEL B.                                    20500
A0101410300000000191939CARBALLO, LUIS ANTONIO S. OR                            10506
A0101410300000000191939SALAZAR, EMMANUEL B.                                    20500
A1301400210000002909124COLOMA, EDMIR LESTER PASCUAL                             0501
A1301400210682386606001MADRID, MA. CECILIA BUHAIN                               0501
A1301400210682505284003DON JEROME SP MENDIOLA                                  10501
A1301400210682505284003MA KLAIRE Y MEND                                        20500
A1301400500000005041110ABESAMIS, MARIA TERESA VILLAROM                          0504
A0101408240000000039683MIRCHANDANI, SHERYL OR LALA                             10501
A0101408240000000039683OR MICHAEL                                              20500
A2801400100712039498002VECTOR PEST CONTROL                                      0502
A4101400260812423341001ESTEFANIA B. RANDOY                                      0505
A0101412340000003342270JERIC VONN D. DALMACIO                                   0501
A0101412340000003438624BERNADETTE A. HODGES                                     0501
A0101406750852084318001SIBUG, GENEATH P. OR                                    10501
A0101406750852084318001SIBUG, ERNESTO M                                        20500
A0101406750000002040260TOLENTINO, ROSALINA SABATER                              0501
A0101405070861197518001RICARDO G. CHAN OR                                      10505
A0101405070861197518001OLIMPIA C. CHAN                                         20500
B0101413860862059523001INTERNATIONAL SEAMEN MUTUAL LABOR A                      1601
A0601400230891698269001DIMABUYU, LESLIE BALUYUT                                 0501
