B0101403030441821100608**********                                               2005
A0101415350000005027241CATAMORA, MA LIZA LORENA ARVESU                          0501
A0101413570656057648182NACIONAL, JOMALYNNE JANE                                 0501
A1101400120000006186581IANZEIL N. SALVATIERRA                                   0501
A1101400120313478374094AGAPITO, ROSA POLICARPIO                                 0502
A1101400120000006186478BOLECHE, MERLINE BANDALA                                 0502
B1701400230693621490002***                                                      1606
A0601400230000000990052DAYAO, MARIBEL MASIBAC                                   0501
A1101400120000000652799MONTEJO, SHERELL CANEDA                                  0501
A1101400120000001547508DESUASIDO, IMELDA FAJARDO                                0502
A0301400820000002106274LETRERO JR., MAMERTO DBU KJL EN                         10505
A0301400820000002106274OR GEOSILYN                                             20500
A0301400820000004073498DE LUNA, JANILEE P.                                      0501
A0301400820000004746083PALAGTIW, TERESITA                                       0501
A2801400100712311102001CHARINA N. HIPOLITO                                      0501
A2801400100712311102001CHARINA N. HIPOLITO                                      0501
A0101400860000010683231**********                                               0501
A0101401250000000460586AZUCENA, MARIA PAMELA ENRIQUEZ                           0501
B0101400150061022993001VICTORIA PEAKS MINING CORPORATION                        1601
A0101400600000000007707**********                                               0503
B0101405810000000016822VANDA PAPER PRODUCT ENTERPRISES COR                      1602
A0101405810072316984001HEMAN CHUA                                               0501
A0101405810000000016559CHUA, HEMAN LAO                                          0501
B0601400100081048059001PACIFIC BREEZES, INC. DBU CENTRAL                        1601
A0601400100081615489001SOLIMAN JR., PABLO ZAMORA                                0504
A0101410850000012024347SANTIAGO, MARIA CORAZON AGUBA                            0501
A0101410560000005280917PADILLA, GLORIA WON                                      0502
A0101400730111200799002UNGOCO, EMMA LAGUARDIA                                   0510
A0101401830000000535591LINGBAOAN, JOEY ARAVELO                                  0501
A7201400170000006487610SALDIVAR, SUCENA ANG                                     0502
A7201400170000012026861OCAPAN, LIENAH MARIE BAYA                                0501
A0101407270162093047001MA. ROWENA P. MARAVILLA                                  0501
A0101407270162333154014RONALDO DE LEON                                          0501
B0101401090171008190002PSBA REGULAR                                             1620
A0101401090171202809001KASHMER T. CRUZ                                          0501
A0301400530000011715223SISON, MARICRIS VILLAREAL                                0501
A0301400530000012029122ALERIA, RANDY PLACIDO                                    0501
A0301400530000012031477BALIENTE, NETCHIE CIFRA                                  0501
A0301400660000000194610MANLEGRO, TERESITA YABUT                                 0501
B0301400790000008014997DETRIOT TRUCK AND PARTS, INC.                            1602
A0301400950000002975013MERCADO, GRACE ARANA                                     0505
A0301400950000002115377MANGAHAS, REX REYES                                      0501
A0101401380000005320843TORRES, JESSRAEL SALONGA                                 0502
A0101401380201294252001JIMENEZ, MA. SOLEDAD NAVARRETE                           0503
A0101401380201554626001BANGURAN, MYRNA BRINGAS                                  0501
A0101413020000003055405AVO-AIR ENGINEERING SERVICES                             0502
A0101410720000009157046TORRALBA, JUAN PAULO                                     0502
A1001400190231520766019GO, JUDITH SATURNO                                       0501
A1001400190231520766103BALCUEVA, CESAR S.                                       0501
A1001400190231520766119CABANO, BERNADITH CATIWALAAN                             0501
A1001400350000000922058ARENO, ANN JANE BUCO                                     0504
A1301400470000001299185MA. CRISTINA B. CARLOS                                   0501
A1301400470252482273001DRA. LEONOR J. DIZON                                     0501
A1301400470252599213001REYNALDO OR ROSARIO TERESITA OR                         10503
A1301400470252599213001RAYMOND JOSEPH ODULIO                                   20500
B0101401670271045353001DETECTNET SECURITY CREDIT COOPERATIVE                    1602
A0101401670271361002001JOSE ABRAHAM V. PLANA II OR                             10503
A0101401670271361002001RACQUEL Y. PLANA                                        20500
A0101406620000001686882AVINANTE, BERNARD CONCEPCION                             0501
A0101406620000010200907DORIS MARIE CONCEPCION DIZON                             0501
A0101406620000003661578TAN, APRIL LYNN LEE                                      0501
A0101408660000000059818****************                                         0501
B0101412470000000949544BEYOND METRO POINTE GREENHILLS INC.                      1604
A0101400570000011680790CO, WOODWARD JOHN L. AND                                10501
A0101400570000011680790SAMONTE, JANYA CAREENA A.                               20500
B0101400570281032931001AMMIRAGLIO INC.                                          1602
A0101400570281186617001DR. SALLY RACHEL T. MACAPAGAL                            0506
A2601400270000000019510GILBERT T. FAGEL OR                                     10503
A2601400270000000019510AILEEN A. FAGEL                                         20500
A2601400270302574301001ALEX UY TY                                               0501
B0801400160000002676793TRI-LINE CAR CARE CENTER                                 1603
B1101400120313036685001MN MACATO BUILDERS                                       1601
A1101400120313094914001CHU,VISITACION UY OR CHU, GARY                          10502
A1101400120313094914001OR HO,EVANGELINE                                        20500
B01014023503210067510010SM SHIPPING PHILS., INC.                                1610
B010140565000000296078523 ANDME PHARMACEUTICAL CORPORATION                      1610
A0101405650322093557001CUEVAS, MA. DONATA NADINE OR                            10502
A0101405650322093557001CUEVAS, RAFAEL                                          20500
A0101402510341306760002BAELLO, MARIA LOURDES ROXAS                              0502
A0101402060000002259925RICARDO, KEVIN CHRISTOPHER CORO                          0501
A0101402060351036454001TRITECH TRADING                                          0501
B0101402060000000022777PORK PRODUCERS FEDERATION OF THE PH                      1602
A0201400890376667775001BUYSER, MISAN CANAS OR BUYSER,                          10501
A0201400890376667775001RENZIE RAFAEL CA                                        20500
B0101402930381007647001EDELSTAHL DRAINAGE SYSTEMS ASIA INC.                     1603
B0101402930381016835001GENERAL TUNA CORPORATION                                 1602
B0101402930381047467001FLUID SOLUTIONS, INC.                                    1601
B0101402930000000057481CENTURY PACIFIC FOOD, INC.                               1602
A0101402930381309259001CECILE Z. VAN STRATEN OR                                10505
A0101402930381309259001JEROEN K. VAN STRATEN                                   20500
A0101402930381615796001LOTILLA, CATHERINA MANUELA REME                         10501
A0101402930381615796001OR LOTILLA JR., PERPETUO                                20500
A0101408370382205119001DR. FLORANTE P. GONZAGA                                  0501
B0101408790383040792001SAN MIGUEL MILLS, INC.                                   1601
A0101408790000005251194SUN, ALLEE LOURDES TIOZON                                0502
A0101411660000008590427MENDOZA II, VIGOR DE DIOS                                0502
A0101411660384079596001HAO, RENEE KARMA DY                                      0501
A0101411660384079598001******                                                   0501
A0101415350000005085052VERA, JOSEPHINE REANTAZO                                 0501
A0101415350000011336735JUAN, BRANDOLF GANA-AN                                   0501
A0101415350000009103742CATAPANG, JESSICA NAMUCO OR                             10501
A0101415350000009103742CARANDANG, JOHN CARLO ADA                               20500
A0101402770000001841130A.B. MANALANG ENGINEERING SVCS                          10502
A0101402770000001841130AND INDUSTRIAL SUPPLY                                   20500
A0101408400000003515120CASTILLO, ROCHELLE BONITA MARQU                          0501
A0101408400000011472865OPALLA, CHERRY ABADIANO                                  0501
B0101408400394027943001BEST DEAL FOOD CORPORATION                               1605
A0101408400394351061001GARRIDO, TRINIDAD FLORES                                 0502
A0101408400394563581001ISON, AMERIZZA GOMEZ                                     0502
A0101408400394622099001INOY, MELVIN DELA CRUZ                                   0502
A0101408950000003171246ABEDES, AIZA DUGAN                                       0502
A0101409210000003297676JEREMY PAUL OBIAL                                        0502
A0101412210000000238544QUIOHILAG, ABAIGEAL LIM                                  0501
A0101412210000012019100PATERNO, JOSEPH BONIFACIO                                0502
A2401400180000002146378CHAN, KRISTINE ANNE ILUMBA                               0501
B2401400180411044545001H THE 3RD CONCRETE WORKS                                11605
B2401400180411044545001CORPORATION                                             21600
A2401400180411320270002SALARDE, GLORIA TIMKANG                                  0502
A2401400180411333023088BOHOLST, PERCY SISTOSO                                   0505
A5101400100000010833991PROSIA, RODRIGO PALALIMPA                                0502
A5101400100000010371096DESIERTO, ODELIO PAPAS DBU BUTC                          0501
B0101403030441327386001**********                                               1605
B0101406330000000432875**********                                               1603
A0501400170481062489001CHUA, JOHN VINCENT ONG DBU JOHN                          0505
A1901400160491069802001BICO JR., DBU TROY DANIEL                               10501
A1901400160491069802001TRUCKING SERVICES                                       20500
A1401400110000010622481VILLAVERDE, ROY LENNON DE LEON                           0501
B1401400110000005945457POWERPHIL HR NETWORKS, INC.                              1602
A1601400170000009954221DIZON, GLENDA ABELLANO                                   0501
A0101407430503478374016ANALYN O. GARCIA                                         0501
B0101403580511067513001CYBERAGE CONSTRUCTION CORP.                              1603
A0101405940000001534258BAUTISTA, JUVY PAGSUGUIRON                               0501
A0101405940000005359902YU, HENRY LEE  OR                                       10501
A0101405940000005359902YU, CATHERINE                                           20500
B0101405940512020791002ACRYDENTAL LABORATORIES, INC.                            1601
A0101405940512025796001ROGUES RENDEZVOUZ                                        0505
B0101408530000001275172PHILIPPINE BRITISH ASSURANCE CO., INC                    1615
A0101411400000002301126PALMA, APRIL NORICH SUAZO                                0503
B0101411400000006561082CRYSTAL SHIPPING INC.                                    1601
A0101411400517063547001TOKONG, RITCHE MINORCA DBU RMT                          10502
A0101411400517063547001BUSINESS MANAGEM                                        20500
B0101411400000008250019RED SKY COMMS, INC.                                      1610
A0101403610000012026452ROSARIO, ROSA ISABEL DE VERA                             0501
A0101403610531036734001PASTRANA, MARIA DBU JRAE                                10502
A0101403610531036734001DRUGSTORE                                               20500
A0101403610531219303001DR. ROMEO R. ANDAYA  OR                                 10504
A0101403610531219303001DR. ANGELITA Y.                                         20500
A0101403610000001450828ANDES, EDNA MASAYDA                                      0502
A2201400250000003558070VIRGINIA G. ROBLES OR ROBERTO                           10502
A2201400250000003558070G. ROBLES                                               20500
A2201400250000001066073JCP AND 3 SONS TRADING CO.                               0502
A2201400250000001066073JCP AND 3 SONS TRADING CO.                               0501
A2201400250000004404960RJ MANALANG CAR CARE CENTER                              0502
A0101404130000004622731APELIT, MARGIE BERMEJO                                   0501
B0101404130601100007001SMART COMMUNICATIONS, INC.                               1601
B0101404130601100007006SMART COMMUNICATIONS, INC.                               1601
A0101404130601708628001PABALATE, PACITA BATAC OR                               10501
A0101404130601708628001PABALATE, HELENA                                        20500
A0101407720602364355001PALANCA-CHEN, MARCELLE QUIRINO                           0510
A0101407720000003886831CASTRO, MARC ANTHONY                                     0502
A0101407720000003886831CASTRO, MARC ANTHONY                                     0503
B0101412180000003275170TECHNICAL DIVING PHILIPPINES INC.                        1601
B0101404260000000550350LUGTU, ROLANDO RESURRECCION                              1601
A0101409890000002636217CELIZ JR., NORETO MEDALLE                                0502
A0101409890000009468482**********                                               0501
A0101409890649774914001ELEFANO, ROSITA CASTRO                                   0502
A0101407690000000914061MERJUDIO, EDNA PANGAN                                    0501
A0101407690652376998001CALAOAGAN, BENJAMIN SACRAMENTO                           0501
B0101407690652422144001MELENCIO MEDEL OR CORAZON MEDEL                          1603
A0101407690652478374194ARQUILLANO, GLORIA - DEALERS OF                         10501
A0101407690652478374194SHOECAT, INC                                            20500
A0101407690000000053881********                                                 0506
B0101413440000009006735OPEN HAND SCHOOL FOR APPLIED ARTS I                      1605
A0101413570000010111636CUALES, MARK FRANCIS ROTA                                0503
A0101413570000001682486STEVENS, MARIA ME DBU BMJ INTL                           0502
A0101413570000001720212NIMFA C. ESPULGAR                                        0501
A0101413990000001947128MARS STONE SUPPLY                                        0503
A0101414120000005252922*****                                                    0505
B0101414120000007655378ABMARAC CORPORATION                                      1601
A0101410300000011355649TORIO, JACOB PRADO                                       0501
A1301400500000007096600SANTOS, DARWIN SAN PEDRO OR                             10503
A1301400500000007096600SANTOS, CARLA MAY CRUZ                                  20500
A0101408240000003955168SILVESTRE, MARIA ISABEL VALERO                           0501
B0101408240711033368001ST. ELOI PAWNSHOP OPERATORS, INC.                        1601
B0101408240711036910001ASIAN CENTRE FOR INSULATION PHILS.,                      1603
A0101408240000008854537MICHAEL SHAM MIRCHANDANI                                 0501
B2801400100712036235001MS-JC INT'L. LOGISTICS INC.                              1603
B2801400230000000008379BACON MARKETING                                          1601
A2801400230713070903001EMETERIO, HONORIO DOMINGO                                0504
A2801400230000009021618DE GUZMAN, ADELAIDA VILUAN                               0503
A4101400390000000745313NOEL JOVEN M. OBILLO                                     0501
A4101400390000007459392FAMOUS CARE MEDICAL CLINIC, LAB                         10501
A4101400390000007459392& DIAGNOSTIC CENTER                                     20500
A4101400390813333041001MARIO C. GENUINO JR.                                     0501
A4101400420814520766110DELA CRUZ, ARMINDA E.                                    0501
A4101400550000010508584SAGUION, ALEX MALAPO                                     0503
A4101400550815665040001PACOMIO, MYLANE BLANCHE                                  0501
A4101400550815693134001LLANES, TUDOR HERNANDEZ OR                              10501
A4101400550815693134001LLANES, PRESCILL                                        20500
A0101412340000003438851HETAJOBE, JONATHAN BORBON                                0501
A0101404840851317230012RAUL M. ARROYO                                           0501
A0101404840000004565880MACALINTAL, RUBYLYN AMOR M.                              0501
A0101406750000000172887PANTOJA, GRENALYN REYES                                  0501
A0101406750852478374117IDA MACARO                                               0501
A0101406750852796614001********                                                 0502
B0101405070861042933001DENOVO EXPRESS ENDEAVOURS CORPORATION                    1602
A0101405070861395697002MINOZA, MARLYN SENDEN                                    0501
