B0101406620273821100608**********                                               2010
B0101406620273821100608**********                                               2010
B0101406620273821100608**********                                               2010
B0101406620273821100608**********                                               2010
B0101406620273821100608**********                                               2010
B0101406620273821100608**********                                               2010
B0101406620273821100608**********                                               2010
B0101406620273821100608**********                                               2010
B0101406620273821100608**********                                               2010
B0101406620273821100608**********                                               2010
B0101409920650821100608**********                                               2002
B0101400150000004980781LED-ETICKLES MEDIA ADVERTISING INC                       1602
B0101400570281036353001ST. LUKE'S MEDICAL CENTER DEPT. OF                      11602
B0101400570281036353001OB-GYN, INC.                                            21600
A2001400290315669458001LABRADOR, MICHELLE DESUSA                                0501
A2001400290315688009001ALGOPERA, LLOYD GARCIA                                   0504
A0101400150000009666271TORRES, RONBERTO VICENTE                                 0501
A0101400150000009666306LEVISTE, MARK GIL TORRIZO                                0501
A0101400150000009666339MARCELINO, KATHERINE SANTOS                              0501
A0101400150061364365007SOYE LEE                                                 0501
A0101400150061701388001SUALIBIO, EMILY SOLERO                                   0501
A0101410850000003503820STA. MARIA, R DBU MSCR TRUCKING                          0504
B0101410850000003503711SL MARIVELES DRYDOCKING & SHIPYARD                      11602
B0101410850000003503711CORPORATION                                             21600
B0101410560000008979286BANG'S REALTY CORP.                                      1605
A0101410560000005836206GULAM, NORMA ABID                                        0502
A0101401960000002331813LADARAN, LANI VILLANUEVA                                 0501
A0101401960121285558002**********                                               0501
B0101401830141021045001TCTS TRUCKING SERVICES                                   1610
B0101401830141065622001DE LEON, GAERARD ALLEN NILO DBU GADL                    11601
B0101401830141065622001TRADING                                                 21600
B0101412920160065603001CELEBRITY CONSTRUCTION INC.                              1601
B0101412920160065608001VCENTRAL INC.                                            1601
B0101412920160065611001VISIONPROPERTIES DEVELOPMENT CORPOR                      1601
A0101400440000008201283JAMES E. PACHECO                                         0501
A0101407270162587936002WILFRIDO G. TIRONA                                       0501
B0301400950000002115986G.A. MERCADO LENDING INVESTOR, INC.                      1610
B0101401380201042553001MUSTANG SECURITY AGENCY, INC.                            1610
A0101401380201079813001CHOI, JIANN                                              0503
A0101413020209057107001SANTOS, JESSALY JAPSON DBU RJ S                         10505
A0101413020209057107001AN PRINTING SERV                                        20500
B0101413600000002822671AUNICAJ INTERNATIONAL TRADING                           11602
B0101413600000002822671CORPORATION                                             21600
B3101400160221031027001ALLIED DOCTORS FOOD RESOURCES, INC.                      1605
A3101400160221478374004SIERVO, MARY JANE RAMOS                                  0501
A3101400160000000006475TENNESSEE H SEVILLA                                      0501
A3101400740224065586001BARROS, LUISABETH G. DBU YOUR                           10501
A3101400740224065586001LIBRARY SALON AND SPA                                   20500
A3101400740224708687001JABOLA, VENUS VIDAL                                      0501
A3001400130230478374004BALABA, JANETH BORJA                                     0501
A3001400130000001261103FERRER,ODELIO Y. OR FERRER, IVY                         10502
A3001400130000001261103M. OR VALEROSO,                                         20500
A1001400350233042653001BLUE ENERGY RESOURCES                                    0504
A1001400480000003357691ANG, ANDY MAN CHUNG CHANG                                0503
B0101406460272015262001*********                                                1602
A0101406460272391534001MA. VICENTA G. NAVAL OR                                 10502
A0101406460272391534001COSME ILDEFONSO                                         20500
A0101406620273359512001ANALISA M. CABALLAR JT                                   0502
B0101406620273460663001PREMIUMSOLE INTERNATIONAL CORPORATION                    1608
A0101408660274648585001* * * * * * * *                                          0501
B0101411820000000024142HARDCOM COMPUTER SYSTEM CO.                              1601
B0101411820000003085112HARDCOM COMPUTER SYSTEM CO.                              1601
A0101411820277092345001RIZADA, CHRISTINE MAE MONTALLA                           0502
B0101400570281027866001MEDICAL EQUIPMENT HEALTH CARE GROUP                      1602
A2601400270000007951177RAYMOND RUEL D. VALLE                                    0501
A2001400290000000924618AGUILAR, FRANCIELO RIVAL                                 0501
A2001400290315636172001KHO, EVAN HO                                             0502
A3401400280000003309139TERESA A. SANTOS OR                                     10501
A3401400280000003309139MARIA CONSUELO A. ALMONTE                               20500
B0101402350321006984001INTEGRATED HYDRO-PNEUMATIC                              11610
B0101402350321006984001SYSTEMS INC.                                            21600
A0101402350321180459002TING, CHING LAN OR CHANG, CHIAO                         10501
A0101402350321180459002FEI OR CHANG, CH                                        20500
B0101405650000000772652MARY MOUNT SCHOOL                                        1605
A0101405650322204636001TADIWAN, NORA YUZON                                      0501
A0101405650322388029001REYES, MARIA CRISTINA V. OR MA.                         10501
A0101405650322388029001SOPHIA OR JOSE G                                        20500
A0101402060351211723001MELINDA V. MEMBREBE                                      0501
A0201400920375039398001QCS PHILS. - CONSULTANCY & TRAI                          0505
B0101402930381040001001TURQUOISE TRAVEL & EVENTS                               11602
B0101402930381040001001MANAGEMENT CORP.                                        21600
A0101402930381205376002ROGELIO LUSONG OR                                       10502
A0101402930381205376002EVELYN LUSONG                                           20500
A0101408370382319789001ROCHELA B. CUAYCONG OR                                  10502
A0101408370382319789001CESAR A. CUAYCONG                                       20500
A0101408790000002031452MONTELIBANO, JOSEPH ALOYSIUS BE                          0501
A0101408790000005251194SUN, ALLEE LOURDES TIOZON                                0502
A0101411660000005323922**********                                               0502
A0101408400000006813790CUAYCONG, RIZZI ANDRADA                                  0501
A0101408400000001855450EVANGELINE I. ALIGATO                                    0506
A0101409210000009663038GARCIA, ANGELINE COMBALICER                              0501
A0101409210000009663421JOSE, CATHERINE VILLALON                                 0501
A5501400120410633077001CLAVISILLAS, JOSIE OR                                   10501
A5501400120410633077001CLAVISILLAS, RON                                        20500
A5501400120410652031001CABUCAY, EFREN VASQUEZ                                   0502
B2401400180411016835001GENERAL TUNA CORPORATION                                 1605
B2401400180000000073663CENTURY PACIFIC FOOD, INC.                               1605
B2401400180000007476795DAVAO SECURED HIGHLANDS, INC.                            1602
A2401400180411537301001**********************                                   0503
A2401400180411555962001SILVA, VIOLETA P. OR                                    10502
A2401400180411555962001SILVA, MARCELINO                                        20500
A2401400180411610828001PACHECO JR., SIMPLICIO OR                               10501
A2401400180411610828001PACHECO, MARIA THERESA                                  20500
A2401400180411666777088DE MESA, FRANCISCA GUBUAT -                             10504
A2401400180411666777088NICESIAN STORE                                          20500
A0901400220000001805090**********                                               0502
A0101403030441306357001**********                                               0501
A0101412890000001765562CRUZ, AMANDA OR FERDINAND OR                            10502
A0101412890000001765562BERNADETTE                                              20500
A0101412890000002748003CRUZ, BERNADETTE L. OR                                  10502
A0101412890000002748003CRUZ, JOVITO FERDINAND                                  20500
A0101412890000007095101CARO JR., ANTONIO DAROY                                  0501
B0101412890000001765266I-SHARE CLUB, INC.                                       1601
A0101412890000001056393GERONIMO, M DBU A.M.-M.A'S                              10502
A0101412890000001056393BAKERY                                                  20500
A0101412890000000371431BARBUENA, GINA B.                                        0501
A0101412890000007095681********************                                     0501
A0101403320000009160349PUTIAN, MADILYN SARALDE                                  0503
A0101403320471065627001SCHEMA ENTERPRISES                                       0510
A0101406330000004349491ESPIRITU, EMILIA BAUTISTA OR                            10502
A0101406330000004349491ESPIRITU, ELOISA                                        20500
A0101406330000004349520PALMA, ANGELI ROSE LAPUZ                                 0501
B0101406330472040053001KUS OFFICE SYSTEM MFG. CORP.                             1602
A0101406330472341319001MARILOU P. TORRES                                        0502
A0101406330472351343002MARIETA S. PERERAS OR RAYMOND                           10502
A0101406330472351343002OR RHEA ELFLEDA                                         20500
A0101406330000001235410SHIELA LAPUENTE                                          0501
A0101405940000005068042BALTAZAR, DORIS DE MESA                                  0501
A0101405940000007298511BISNAR, DYNA ELOSORIO                                    0501
B0101411790000003252553THE HIMALAYA DRUG COMPANY                                1601
A0101412050000003966763DE LEON, ARTURO PUZON OR                                10502
A0101412050000003966763DE LEON, WILFRED                                        20500
B0101403450521011774002**********                                               1602
B0101403450521778076001**********                                               1602
A0101404000000003853149DEE, GERARD TIONG                                        0501
A0101407720602390297001PREYSLER, MARIVIC G.                                     0501
A0101407720602397494001GENARA M. LIMSON M.D. OR                                10501
A0101407720602397494001ANTONIO LIMSON                                          20500
A0101407720602397820001SIBAYAN, SANTIAGO ANTONIO B.                            10501
A0101407720602397820001OR SIBAYAN, SUSAN                                       20500
A0101407720602415232036MARITES COLORADO                                         0502
B0101412180000001293061CP OPTICS, INC.                                          1605
B0101404260611043675001CIS BAYAD CENTER, INC.                                   1603
B0101404260611043675001CIS BAYAD CENTER, INC.                                   1603
B0101404260611044359158GREAT ARCHER SALES                                       1603
A0101404260611151435002LORNA VEJANO AND RAUL VEJANO                             0501
A0101404260000006374263BALDEVARONA, SALLY SICIO                                 0502
A0101409890649721710001MAPILI, ERICK RYAN RIVERA                                0501
A0101409920000000998605ECHEVARRIA, DBU JOHN CARL ENTER                          0501
A0101413440000000570256********                                                 0501
A0101413570000003379908CABANIG, MYRA MELAYA                                     0503
A0101406590662332022003TORRIJOS, LOUIE ORENDAIN                                 0501
A1301400210000005040737BEGASO, CRESENCIA DE JESUS                               0502
A1301400340683445514002DE JESUS, ROMARICO MACAPAGAL                             0501
A1301400500000004093112*************                                            0501
A1301400500000006218486********                                                 0505
A0101408240000003955340SIMPAO, MELISSA OCHANGCO                                 0501
A4101400260812040216001CARELYNNE REALTY                                         0501
A4101400390813017514001PRESTIGE AUTO CARE                                       0501
A4101400420814520766111COLETA, JEANNETTE C.                                     0502
A0101404840000001312543CERBITO, SALVACION                                       0501
B0101404840000003069623ROYAL THAI FOOD PHILIPPINES INC                          1603
A0101404840851520766026MENALIZA MABINI                                          0501
A0101405070861478374067TIRSO M. ARROJO JR.                                      0502
A0101405070861553114001IDANMAL, RAJESH KUMAR                                    0501
A0601400230000001687118**********                                               0502
A0601400230000009662973DIZON, QUENNIE HAZEL BALTAZAR                            0501
B0601400230891029282001L5 & SONS FINANCING CORP.                                1610
B0601400230891038771001GLOBAL CARS PHILS., INC.                                 1602
