A4101400420814506413001IBIAS, JOSEPHINE OCAMPO OR                              10501
A4101400420814506413001IBIAS, SEGISMUND                                        20500
A4101400420814520766064ANDAYA, AURORA A.                                        0501
A4101400420000004847890MEMBERS OF NATASHA (SHOECAT INC                         10502
A4101400420000004847890NELLIE B. CARAIG                                        20500
B0101400860000001005423***********                                              1602
A0101400860011394631002**********                                               0502
A0101400860011485313002**********                                               0501
A0101400860011541643001**********                                               0505
A0101411370000003294842BUENCAMINO, FRANCIS S. DBU                              10504
A0101411370000003294842BUENCAMINO PRESS                                        20500
B0101400150061010938001GROLIER FAMILY MULTI PURPOSE COOP.                       1610
B0101400150061010975001PHILMETAL PRODUCTS INC.                                  1602
B0101400150061028210001GOLDEN DRAGON MOTOR SALES CORP.                          1605
B0101400150061043663001CONSTELLATION TRAVELS, INC.                              1602
A0101400150000000806702DOM ANTONOINE FORTIN OR                                 10503
A0101400150000000806702MARIA ZENAIDA AN                                        20500
A0101400600000001025114CARMELITA V. NATIVIDAD JR.                               0502
A0101405810072235171001**********                                               0505
A0101405810072327817001**********                                               0502
A0101405810072462871001LI, SHAO YA KE                                           0503
B0601400100000000032760RDF FEED, LIVESTOCK & FOODS, INC.                        1610
B0601400360083043705001JTO EVERLAND RESORT CORPORATION                          1602
A0101410850000000005712MACANAYA, AMELIA DBU NUMBERS                            10501
A0101410850000000005712AND LETTERS LEARNING CTR                                20500
A0101400730111478374179MARIA LUISA S. TRUJILLO                                  0501
A7201400170000003772918TAN, ROSITA LUY OR TAN, MELANIE                         10502
A7201400170000003772918LUY OR TAN, MICHAEL LUY                                 20500
B7201400170000007185671**********                                               1601
A5001400170000005705142UY, WINSTON YOUNG                                        0503
A5001400170000005705197MAGBAGO, JUCEASAR MACALONG                               0501
A0101400440000003705888ASERON III, MELQUIADES MARTINEZ                          0501
A0101400440161039572029LORNA A. CERRO                                           0501
A0101400440161520766101FE M. GLODO                                              0501
B0101407270000008545433********                                                 1601
A0101407270162029071001M+E SALVALOSA & ASSOCIATES                               0502
B0101407270162056115001GOOD VOYAGE BATTERY DISTRIBUTOR MAR                      1602
A0101407270000003254015CLEMENTE, SPIRO LU                                       0502
A0101407270000000511555CLEMENTE, SPIRO LU                                       0502
A0101407270000000511544CLEMENTE, SPIRO LU                                       0502
A0101407270162085922017SPIRO L. CLEMENTE                                        0501
A0101407270162331908045NATALIE PEREZ                                            0501
A0101401090000001618895PAEZ, ANA RUBY MARBELLA                                  0501
B0101401090171016399002UST MEDICAL ALUMNI ASSOCIATION INC.                      1603
B0101401090171016399006UST MEDICAL ALUMNI ASSOCIATION INC                       1601
A0101401090171198150001FR. ERMITO G. DE SAGON, O.P.                             0503
A0301400530000003573299PEREZ, APRIL JOY GARCIA                                  0501
A0301400530000003573380CALAWIGAN, AICY VILLAGONZA JT                            0502
A0301400950000002115548HERNAEZ JR., EDUARDO DBU GULF                           10501
A0301400950000002115548MARINE CREWING SERVICES                                 20500
A0101401380000008519773CLAROS, STEVEN RHINE CHIU                                0501
A0101410720653505843001LIMONGCO, GRACE POLO                                     0501
A0101413600000000206824CHESING GENERAL MERCHANDISE                              0502
B3101400740224017345001PALMPHIL GARMENTS PHILIPPINE CORPORATION                 1610
B3101400740000000013889IM DIGITAL PHIL INC.                                     1610
A3001400130230478374004BALABA, JANETH BORJA                                     0501
B1001400190231022229001CITY ALLIANCE CHURCH                                     1601
A0101406460272722876104PANGILINAN, MARIETA SANTOS                               0501
A0101400570281191853002GREGORIO, JULIETA ORBISO                                 0501
A0101400570281203059002TEOFILO O. SAN LUIS JR.                                  0505
A0501400200000002306150PACIS, WILMA RAMOS                                       0502
A2601400270000001009118JOSELITO G. VALENCIA                                     0502
A2601400270302574301001ALEX UY TY                                               0501
A0801400160311478374055LURELA FERASOL                                           0502
B0101402350321035857001MOBICAR TRADING CORPORATION                              1602
A0101402350321415696003MANGUBAT, PAOLO TOLENTINO                                0501
A0101405650000000525911TORRES, ROD JEFFREY GUMABAO                              0501
B0101405650322024533001TUGADE ASSOCIATES, INC.                                  1602
A0101405650322170702003ADAN, ANTONIO D. OR                                     10501
A0101405650322170702003ADAN, GRACE CASTANEDA                                   20500
A0201400890000000027892FORTRESS ELECTRICAL SUPPLY                               0503
B0201401020377047785001ANSECA DEVELOPMENT CORPORATION                           1605
A0201401020000000056415SORELA, DBU M.P. SORELA CONSTRU                          0501
A0101408370000006446073ZARSUELA, EDWIN STA CRUZ                                 0502
B0101408790000000599880HANSTON COMMERCIAL AND INDUSTRIAL                       11602
B0101408790000000599880CORPORATION                                             21600
A0101415350000005028831DE CHAVEZ, MEDARDO DBU                                  10502
A0101415350000005028831MERDEC ENTERPRISE                                       20500
A0101402770000007413909BRIONES, RUEL PANALIGAN                                  0502
A0101408400000006054571LLAMADO, MARK ANTHONY T. DBU                            10501
A0101408400000006054571LDC MARKETING                                           20500
A0101408950000006424842CELLONA, MARK CAUSIN                                     0502
A0101409210000002278891GELITO, KATHERINE MIRANDA                                0502
B0101409210000006599020INDENTRADE SYSTEMS, CORP.                                1601
B1201400150421030320001NORTH LUZON TRUCKING FORWARDERS CORP.                    1605
A0901400220432294143001**********                                               0501
B0101403030441707375001**********                                               1602
A0101412890000001765404ACUNA, SALVADOR A OR ACUNA,                             10506
A0101412890000001765404ALONA C                                                 20500
A0101412890000000007514RICO T RIVERA DBU WISEMIX                               10502
A0101412890000000007514CONSTRUCTION SUPPLY                                     20500
A0101403320000008555608MILAN, ROLANDO ESTRADA                                   0501
A0101403320471572245002DOMINGO M. HERRERA JR. OR                               10501
A0101403320471572245002JENETH B. HERRERA                                       20500
A0101406330472214807001EMELDA P. LINDAYAG                                       0501
A0101406330472622987001EMMANUEL H. GERONIMO                                     0502
A0101412760000002067723SANTIAGO, CHERRY R. OR                                  10501
A0101412760000002067723HAO, GERRYSON C.                                        20500
A0101412760000002306229DE GUZMAN, DUSTIN EWALD DANTES                           0501
A0101412760000000208626COMIA, M DBU CINCTURE                                   10502
A0101412760000000208626BIO-ASSETS MARKETING                                    20500
B0101412760000002068139UML FARM TRADING AND MARKETING CORP.                     1601
A1901400160491244625001CESAR L CASTOR                                           0501
A1901400160491250555001MARCELO  BUQUID JR OR                                   10501
A1901400160491250555001JOSEPHINE BUQUID                                        20500
B1401400110492011585002LUCENA GREENVIEW, INC.                                   1602
A1401400110000007186623DY, DAVE FRANCIS AYCARDO                                 0505
B0101403580511155828001JOUBERT CONSTRUCTION INC.                                1610
A0101405940000001534269**********                                               0501
A0101403450521357127001**********                                               0501
A0101403610531219472002NAVOA JR., FILOMENO CORPUZ OR                           10501
A0101403610531219472002NAVOA, NANETTE P.                                       20500
B0101404000551038492001UP STAGE RESTAURANT & BAR CAFE INC.                      1602
B0101404000551043890001VILLA MASSETO GROUP INC.                                 1601
A2201400250000006736321ROSSINI B. GALICIA OR                                   10501
A2201400250000006736321EVA B. BALANCIO                                         20500
A2201400250561302797001RANDOLPH C. TAJANLANGIT OR                              10510
A2201400250561302797001CATALINA B. TAJANLANGIT                                 20500
A0101409890000003097943PACHEO, JOHN REY RAMOS                                   0504
A0101407690000006736441PERALTA, JEOFFREY DBU                                   10502
A0101407690000006736441J. PERALTA ENTERPRISES                                  20500
A0101411530000006217483**********                                               0501
A0101413440000002846262SARET, MARIA JENNIFER JADE M.                            0505
A0101413990000006278157MONTERDE, MARGARITA CAMAGON                              0502
A0101406590662289338001KIM C. DINO                                              0503
A0101406590662470961001VALMOCINA, ESTRELLA C. OR                               10510
A0101406590662470961001GUTIERREZ, MARY ANNE                                    20500
A0101408240000003955533RUBIO, KARLA PERALTA JT                                  0501
A0101408240000007478126ALDANA, FELIPE FLORENCIO B.                              0502
A0101408240000003955431OROBIA, JOSE RAMON INUMERABLE                           10502
A0101408240000003955431JT                                                      20500
A2801400100712676952001ROSALINDA E. LICO                                        0501
A4101400420000004847952SUNGA III, NORBERTO ROBLES                               0501
A4101400420814520766138SAN PEDRO, ANA LIZA                                      0501
B0101404840851021512001STI COLLEGE ALABANG, INC.                                1603
A0101404840000003069878RICAROS, FIDELA C.                                       0501
A0101404840851520766037MAGDALENE DE GUZMAN                                      0502
A0101406750852478374027ELENA HINUNANGAN                                         0501
B0101405070861017328003SHEPHERD'S NOVELTY CORNER                                1603
B0101405070861031615001MD EXPRESS MANILA, INC.                                  1610
B0101418100410452000011**********                                               2002
