B0801400160311821100608**********                                               2010
B1301400470000000009561FUND LINK CREDIT & LOANS, INC.                           1602
A0101411240000007844991GAERLAN, GERALDINE RODRIGUEZ                             0501
A0101411240283238100001PUA, WILSON PO                                           0502
B0101402770000000023770YOUR FRIENDLY CAR CARE SERVICE AND SPARE                11601
B0101402770000000023770PARTS SUPPLY COR                                        21600
A0101400860000000414100**********                                               0502
A0101400860011458859001**********                                               0501
B0101400150061011079001QUASHA ANCHETA PENA & NOLASCO                           11610
B0101400150061011079001LAW OFFICE                                              21600
A0101400150061228073002CHONG, SANDRA S. or                                     10501
A0101400150061228073002CHONG, CHRISTOPHER S.                                   20500
A0601400100081358072002NOEL C. DAVID                                            0505
B0601400360000003186656LACSINA, ORLANDO ESTACIO JT                              1601
A0101413280092062132001REIKEN AUTOMOTIVE SUPPLY                                 0501
B0101413730104821100608**********                                               2001
B0101413730104821200608**********                                               2001
A0101410850000000259949CABREIRA, CLIFFORD PAUL                                 10501
A0101410850000000259949KALINGKING                                              20500
A0101410850000003194089DIATE, JENTRIX MARK TALLEDO                              0501
A0101400730111386485175IVANHOE O. MARASIGAN                                     0502
A0101400730111392127002MILES, ELIZABETH G.                                     10502
A0101400730111392127002OR JARDIOLIN, MA                                        20500
A0101401830000003647363BUTAC, CECILIA DELA ROSA                                 0501
A0101401830141531808001URGINO, ROBERT VICTOR MOORE                              0501
A0101407270000009066899DE OCAMPO, MARIA ROSELA HIPOLIT                          0502
B0101407270162028688001KAISA CONSULTING COMPANY, INC.                           1608
A0101407270000001597215CASANE, R DBU CASANE LIGHTS TRA                          0502
A0101407270162681015001JEFFRE P. TOLENTINO                                      0501
A0101401090171390398001CORPUZ, MARY JHO-ANNE TOLENTINO                          0502
A0301400530000000066088********                                                 0505
B0301400530000005001603*******                                                  1602
A0301400530000000066113RUDELA, JIVIR S. OR                                     10502
A0301400530000000066113RUDELA, ANALYN C                                        20500
B0301400530193821200608**********                                               2002
A0301400790000003969371BACOLOD, BONNIE KINTANAR                                 0502
B0101401380201018537001VELUZAR(PASAY) INC.                                      1601
A0101413600000005794603JUANCHO D. CAALIM                                        0501
A3101400160221772429001MEDINA, VILMA ALVIAR                                     0501
A3101400450000005355653RAMOS, JAIME ESPINA                                      0501
A1001400480000000133337TUDTUD, NELSON ATAMOSA                                   0501
B1301400470252821100608**********                                               2001
B1301400470252821200608**********                                               2001
A1901400290000008851823HYDIE HARINA SEVILLANO                                   0501
A1901400290000009384990JIM BRYAN PALMA PANTAS                                   0501
A1901400290000009779004MELODY OCTAVIANO GUTIERREZ                               0501
B1901400290261049824001BONLOU, INC.                                             1620
A1901400290261061718001CUMAGUN, DULCIS MA. PURISSIMA R                         10503
A1901400290261061718001DBU DULCISSIMA BAKESHOP                                 20500
A1901400290261488341009ANTONIO M BANAAG                                         0501
A1901400290261585775001LITA CUETO MENDOZA OR DORIS                             10502
A1901400290261585775001MARIE MENDOZA MEDINA                                    20500
A1901400290261604519001PATRICK KAIBIGAN SILVA                                   0501
A0101406620000000577071ANG, CHARLES WILLIAM ONG OR                             10501
A0101406620000000577071ANG, JANESSA CHENG                                      20500
A0101406620000004925913YOUNG, DIVINE GRACE DBU                                 10502
A0101406620000004925913TRIMYL TRADING                                          20500
A0101406620273393856001BRYAN S. GOMEZ                                           0501
A0101406620273477411002ESPINA, NORMA RODRIGUEZ                                  0501
A0101406620273506724001PARCON, JERRY FRANK CAYONA                               0506
B0101411110000000009043ACADEMY OF ST. ELIZABETH, LAGUNA,                       11602
B0101411110000000009043PHILIPPINES INC.                                        21600
B0101411240000000629312VIBAL GROUP, INC.                                        1605
B0801400160311066020001ILOILO FIELDS OF LIGHT CORPORATION                       1601
B0801400160311821200608**********                                               2005
B1101400120313061199001KALIPUNAN NG MALILIIT NA MAGNINIYOG NG                  11602
B1101400120313061199001PILIPINAS-LEYTE                                         21600
A0101402350321180179002NISHIDA, NATALIA AUDITOR                                 0501
B0101402510341014966001CEUFAWU-SOP                                              1602
A0101402060351413570001WONG, EILEEN SY                                          0501
A0201400760374720031001******                                                   0505
A0201400920000002804480MIRANDA, SAMMY                                           0501
B0101402930381017213003UNIVERSAL ROBINA CORPORATION                            11602
B0101402930381017213003URC - GD                                                21600
A0101408370382431146001DR. ETHEL L. MENDOZA                                     0501
A0101411660000002309560RIVERA, VENUS TUMPALAN                                   0501
A0101402770391022532001VIREX ENTERPRISES                                        0501
B0101405490392006563001CAPTIVE PRINTING CORPORATION                             1607
A0101405490392034138001MCMAR & MARY ELECTRICAL                                 10502
A0101405490392034138001& CONSTRUCTION S                                        20500
B0101405490392034314001RAEMANN CORPORATION                                      1602
B0101405490392047246001JOCELYN C. DELA ROSA DBU JRD FREIGHT                    11601
B0101405490392047246001FORWARDING                                              21600
A0101408400394030681001BANIG HANDICRAFT AND NOVELTIES                           0502
A0101409180000009241225OLIVER JOHN PAPICA                                       0501
A0101409180000004959635FERRERAS, EDWIN L. DBU BICORE                           10501
A0101409180000004959635ONE NETWORK ENTE                                        20500
A0301400820000002106285FONTANILLA, ARNOLD S. OR FONTAN                         10510
A0301400820000002106285EVELYN D.                                               20500
A0301400820000006542765LEAL, ARVIN JAY A.                                       0502
A0301400820000003148616MANGKIKIS, MAYPEARL LAARNIE P.                          10501
A0301400820000003148616OR MANGKIKIS, NOEL C.                                   20500
A5501400120000002348325ANG, ANDY MAN CHUNG CHANG                                0505
B2401400180411032860001GIO DENTAL DEPOT CO., INC.                               1602
B0101412890000007906092PAPAJEK FOOD CORPORATION                                 1602
B0101403320471024602001*********                                                1602
A0101406330000007331735**********                                               0505
A0101406330472027958001A. ANOLIN ENTERPRISES                                    0502
A0101406330472405124001MARIETTA ONG                                             0501
A0101406330472436213002SUSAN CAGUINGUIN OR DIOMEDES                            10503
A0101406330472436213002CAGUINGUIN                                              20500
A1401400110000008266080COMBALICER, NYRIE CAPIO                                  0501
B1401400110492040383001RCBL - ST. MICHAEL ARCHANGEL PARISH                      1603
B0101407430000000035316D' FRADA ALLIED SERVICES INC.                            1602
B0101407430503385656004**********                                               1602
B0101405940512020338001ANGEL LEIAIEL EXPRESS INT'L INC                          1605
A0101408530000000489692SANTIAGO, ELIZABETH LALU                                 0501
A0101408530516556974001CASTILLO, RUSSELL C. OR                                 10501
A0101408530516556974001CASTILLO, CHRIST                                        20500
A0101411400000005330023EBBAH, CZARINA ALEGRE                                    0501
B0101411790000004808082PDB PROPERTIES, INC.                                     1603
A0101412050000006005163**********                                               0502
B0101403450000008380774**************                                           1606
B0101403610000001174550CASUBUAN, JOSEPH LOPEZ DBU MODERN                       11601
B0101403610000001174550ROOFING CENTER                                          21600
A0101404000551426801001CASTILLO, EVERLY ALVAREZ                                 0501
A0101404000000001186716BRAGADO, CATHERINE GONZALES OR                          10502
A0101404000000001186716BRAGADO, PETER L                                        20500
A2201400250561448364001DR. CARMELO A. MENDOZA OR                               10502
A2201400250561448364001DR. JACQUELINE L. MENDOZA                               20500
A0101409920650478374005CRISOSTOMO, MA. EMELIA GASPAN                           10501
A0101409920650478374005MEMBERS OF NATASHA                                      20500
A0101409920000009055590MEMBERS OF NATASHA, SHOECAT INC                         10502
A0101409920000009055590HERRERA, MICHAEL JOHN B.                                20500
B0101407690652039085001JUNBEL INDUSTRIAL SYSTEM CORP.                           1601
B0101407690000000243930M & HC EQUIPMENT PHILIPPINES INC.                        1601
A0101407690652478374131TARROQUIN, NORA - DEALERS OF                            10501
A0101407690652478374131SHOECAT, INC.                                           20500
A0101407690652478374194ARQUILLANO, GLORIA - DEALERS OF                         10501
A0101407690652478374194SHOECAT, INC                                            20500
A0101407690000001919946REBADOMIA, MARIETA - DEALERS OF                         10501
A0101407690000001919946SHOECAT INC.                                            20500
A0101407690652525001067MAILA M. NACIN - DEALERS OF                             10501
A0101407690652525001067SHOECAT INC.                                            20500
A0101407690652525001079AILYN C DIZON - DEALERS OF                              10501
A0101407690652525001079SHOECAT INC.                                            20500
A0101407690652643259001JOSE MARIA AUGUSTO DE JESUS OR                          10505
A0101407690652643259001AUGUSTO THEODORE                                        20500
A0101407690000000243810PAGUIO, ANA CARDENAS                                     0502
A0101413440000006680602CABATANA JR., VICENTE TARSUNA                            0501
A0101413990000001947128MARS STONE SUPPLY                                        0502
B0101414120000001984165UNITED ACHIEVER ASSESSMENT & TRAINING                   11602
B0101414120000001984165CENTER INC.                                             21600
B0101414120658821200608**********                                               2001
B0101410300000007614691VELVET STAGE EVENTS INTERNATIONAL C                      1601
A1301400210682245727001FALLORINA T. MANAHAN OR                                 10503
A1301400210682245727001 MANUEL P. MANAH                                        20500
B1301400340000005264751**********                                               1610
A1301400340683055116001BENIGNO D. GUEVARRA DBU IRON                            10502
A1301400340683055116001ANGELO ENGINEERING                                      20500
A1301400500000004093087ME-ANN'S EGG DEALER                                      0505
A0101408240711443671001CARMENCITA C. GUIAO                                      0501
B4101400390813028639001SUNPINO DEVELOPMENT CO., INC.                            1602
A0101404840851217637053REYNALDO Y. CABREROS &/OR                               10502
A0101404840851217637053MARISSA D. CABRE                                        20500
A0101404840851542980001MASANGCAY, NORA VERCELES                                 0501
A0601400230000002310092PARAFINA, LORENZA ALIPIO                                 0501
