B0101401700041821100608**********                                               2003
B0101412470278821100608**********                                               2005
A3001400130230094974001BRAVO, ROSEPT EBARLE                                     0503
A1601400170000001360678LLENO, MARGIE REONAL                                     0501
A0101401250021456301001PALILEO, ROSALIE PUNONGBAYAN                             0501
B0101401700041821200608**********                                               2002
A0101400150000002902412NAVATO, MAEBELLE P.                                      0501
A0101400150061611802001BUMANGLAG, JULIUS AGONOY OR                             10501
A0101400150061611802001BUMANGLAG, JERRE                                        20500
B0101400600071325386001********                                                 1601
A0101400600000000007649*********                                                0505
A0101405810072393833001**********                                               0501
A0101405810000000016582SHI, LIANQIANG SHI                                       0502
A0101405810072478374022***************                                          0501
A0601400100000001442808BERNARDO, LILIAN VILLAPANA                               0503
B0601400100081015753001TAPANG REALTY COMPANY                                    1602
A0601400100081251805003ANTONIO J. MUNOZ OR                                     10502
A0601400100081251805003JENNIFER LAURIE                                         20500
B0101412630132058324001SANALILAND CORP.                                         1602
B7201400170000006150818CALALAGAN, MORID DAGADAS AND KUMPA,                     11601
B7201400170000006150818MAIMONA AGCO                                            21600
A7201400170000003773995TORRICO, REVELINO LLANDA                                 0501
A5001400170000001003421LEYNO, KATHERINE MARAON                                  0505
A5001400170000000213750RATUNIL, JULIETA OR RATUNIL,                            10501
A5001400170000000213750BYRON, OR RATUNIL, CARMEL                               20500
A5001400170000000044982ANTONIO, JORDANNE DBU URBAN                             10502
A5001400170000000044982PAINTS & MORE ENTERPRISES                               20500
B5001400170000000169777ZAPANTA, FRANCIS ANTHONY C OR ZAPANTA                   11605
B5001400170000000169777TOMAS GERMINIANO                                        21600
B5001400170000000214013CHAN, PATRI B. OR                                       11602
B5001400170000000214013CHAN, JIMMY S.                                          21600
B5001400170000000169799ZORAYDA LENDING SERVICES CORPORATION                     1605
B0101400440161026381001KRISTINE JEWELLERY, INC.                                 1601
B0101400440000003766967COOPERATIVE HEALTH MANAGEMENT FEDERATION                 1610
A0101400440161798533001MINGOY JR., ANDIOLO PATCHICO                             0501
A0101401090171200998001LUCAS OR NADINEE ARCEO                                  10502
A0101401090171200998001OR ABIGAIL ARCEO                                        20500
A0101401090171353569001ALETH THERESE L. DACANAY                                 0501
A3101400160000000429123LAIDA P DE GRACIA                                        0501
B3101400160221047376001JFA ELECTRICAL CONSTRUCTION AND GENERAL                 11602
B3101400160221047376001SERVICES INC.                                           21600
A3101400160221708935001ELENITA G. CUSTODIO AND                                 10501
A3101400160221708935001RODEL M CUSTODIO                                        20500
A1001400350000000922105FACTURA, JACKELOU CORONEL                                0501
A1001400350000000245281BAGARES, AGUSTINA BALALA                                 0502
A1001400350000000244233CELLONA, JOSETTE MERCEDES AND                           10501
A1001400350000000244233GIMENES, GARETH                                         20500
A1001400350000002367320WAGAN, FLORDELIZ BAANG                                   0501
A1301400470252428900001JUAN NEPOMUCENO OR                                      10502
A1301400470252428900001SILVIA NEPOMUCENO                                       20500
A1301400760000005379400ESMINO, REGALADO BALANGUE                                0501
A1301400760000005379411MARQUEZ, VON RYAN JAGON                                  0502
B0101406620273007454005GLOBE ASIATIQUE REALTY HOLDINGS CORP.                    1610
A0101406620273236978001CALLEJA, HOWARD MACEDA                                   0503
B0101412470000000949555OPENSIDE INC.                                            1601
B0101412470278821200608**********                                               2001
A2601400270000002312196GERALD D. GANNOD OR                                     10502
A2601400270000002312196MARY JANE N. GANNOD                                     20500
B2601400270302046854001H.A. DULDULAO & CO., INC.                                1605
A1101400120313478374074UNGAB, ROSALINDA B.                                      0502
A0101402060351217441011EMMANUEL Y. GO                                           0501
B0201400760374036911001CEBU ATG REALTY DEVELOPMENT CORP.                        1601
B0201400920375035473001UNI KEANNE TRANSPORT SERVICES                            1605
B0201400890376060530001MAV COMPANIES LOGISTICS INC.                             1601
B0201400890376060531001MAV COMPANIES AGGREGATES INC.                            1601
B0101402930381009073001INTERLINK BUSINESS SOLUTIONS INC                         1602
A0101402930381080348001FERNANDEZ, ESMERALDA CASTRO                              0501
A0101408370382391120001DR. SALVADOR M. EUSTAQUIO                                0502
A0101402770391242648002LEILA V. YABUT                                           0501
A0101408400394712542001******                                                   0506
A0101409180000003780421ESPERANZA LUZ BUNI                                       0501
A0101409180000006291869ALDEE CELIS                                              0501
A2401400180411060506188GONZALES, JERISSA HONG OR                               10501
A2401400180411060506188GONZALES, JERILLE GAY H.                                20500
A2401400180411542448002GUATLO, ANNA MARIE VILLASENCIO                           0502
A0101403030441029489001**********                                               0506
A0101403030441239449002**********                                               0501
B0501400170481018109002****                                                     1604
B1401400110000000167479CHRIST'S COMMISSION FOUNDATION, INC                      1602
A1401400110492395854001MERCEDES C. BARCELONA                                    0501
A1401400110492543613001AVELLANO, BEVERLY MARTINEZ                               0501
A0101407430503512816001ROBVI ROSE M. DAPLAS                                     0502
A0101405940512151522003********                                                 0501
A0101408530000001885812PRINCESS JOANNE FIDESS B.                               10502
A0101408530000001885812CABALO                                                  20500
A0101403450521791474001********                                                 0501
A0101403610531662330001BERROYA, MARK LESTER AMOR  OR                           10502
A0101403610531662330001BERROYA, CONNIE MORADA                                  20500
A2201400250561019818003KIS ENTERPRISES                                          0510
A0101407720602162070001DR. CLEMENTE GATMAITAN OR                               10504
A0101407720602162070001CARLOS P. GATMAITAN JT                                  20500
A0101407720602198350002MEDINA, CLEOFE B.                                        0505
A0101407720602358468001TORRES, MA. TERESA ANCIANO                               0506
A0101407720602480488001GERALDINE MAJELLA L. JURILLA MD                          0501
A0101404260611463567001TABANG, ARIEL ROCHA                                      0501
A0101409920000001952052MEMBERS OF NATASHA (SHOECAT INC                         10501
A0101409920000001952052PICORRO, ANNALIZA D.                                    20500
A0101407690652034806001BROWNFLY COMMERCIAL                                      0504
B0101407690000003767891IDESCO CONSTRUCTION AND DEVELOPMENT CORP                 1602
A0101407690652399727002QUIAMCO, CONSOLACION GIVA                                0501
A0101413570000001069603DR. JOEY A. MACATANGAY                                   0501
B0101413570000000206482E SOURCE SYSTEMS DEVELOPMENT COOPERATIVE                 1610
A0101413990000003141157**********                                               0502
A0101406590662317770001NUVAL, CYNTHIA DALAO                                     0502
A1301400500000004093292********                                                 0501
A1701400230693478374071QUILIT, RIZALINA ANCHETA                                 0501
A0101408240711490981001MILLS, AMPARO OR VICENTE JR.                             0501
A2801400100712744757001MORALES, FELISA JOY CLEMENTE                             0501
B2801400230000000372770DBA GLOBAL SHARED SERVICES INC.                          1603
A0101404840000000475901MARGIN, ARIANNE MAE CALOPEZ                              0501
A0101404840000005820344DELOS SANTOS, MARY ELIZABETH H.                          0502
A0101404840851213312001MARQUEZ, THELMA P.                                       0501
A0101406750000002040248AINZA, ROWENA MORALES                                    0502
B0101406750852046880001DAKKI CLASSICS CONCEPTS, INC.                            1605
A0101406750852451505003ROY, ZENAIDA ABERIA                                      0501
B0101405070861022087001AIR SPACE TRAVEL AND TOURS INC.                          1605
A0101405070861197518001RICARDO G. CHAN OR                                      10505
A0101405070861197518001OLIMPIA C. CHAN                                         20500
A0101405070000003439690GUTIERREZ, ROSIE VALERO                                  0501
A0101405070861553114001IDANMAL, RAJESH KUMAR                                    0501
A0601400230891738531001CHUA, MARK ANTHONY GARCHITORENA                         10502
A0601400230891738531001TAYAO, GILBERT A                                        20500
