B0101402640361821100608**********                                               2006
B0101415510010601010116**********                                               2005
B0101415510920062000022**********                                               2001
A4101400420000001063832MADRID, CHERYL CALMA                                     0501
A0101400440000002035041MARIA GEVELA CARDINOZA                                   0501
A3101400160221220998001DANILO C. CUEVAS                                         0502
A1001400350000002367262ENRIQUEZ, FRANCIS RICHARD ACOST                          0501
A1001400350233503410003APARICI, ARMANDO AKIAT                                   0502
B0101409890649821200608**********                                               2001
A4101400420814520766108ESPANOLA, MERELY C.                                      0502
A4101400420814520766110DELA CRUZ, ARMINDA E.                                    0502
A4101400420814520766131LACSON, MELIZA FRANI                                     0502
B0101400860000000030304****************                                         1601
A0101401250021285234001CHUANG, KE CHANG                                         0501
B0101411370000000017956SUNLI-TECH INDUSTRIAL CO.                                1601
B0101400150000004090106LAUDERDALE CORPORATION                                   1605
B0101400150061025214001MAA CONSULTANTS, INC.                                    1601
A0101400150061229814002LEONCIO C. LIM                                           0501
A0101400150061315349055DENNIS JOY EJERCITO                                      0501
A0101400150061412381001VILLARUZ, MA. CORAZON A. OR                             10501
A0101400150061412381001VILLARUZ, JOSEPH                                        20500
A0101400600000001335579********                                                 0502
A0101400600071719765001********                                                 0501
A0601400100081251651002DIMAL JR., MARCELINO M.                                  0501
A0601400100081504737001KAW, GEMINI DEANG                                        0502
A0101413730000002289490**************                                           0501
A0101410560000001944083GABAS, EVANGELINE ESPONILLA                              0501
A0101401830000003508632LIM, JOVEN AGUILAR                                       0502
B0101401830141042468001M3J CREATIVE SIGNS ADVERTISING SERVICES                  1601
A0101401830141546547001REATAZA, NELIA MORABE                                    0501
A7201400170000003773222ARANDING, ARNEIL BALBIN                                  0501
A0101400440161186940001MARILOU I. DIVINA                                        0506
A0101407270000007961228ROSALES, HIEDIE RIA OCIDO                                0501
B0101407270000000830562HADDOXWIND, INC.                                         1603
A0101407270162587936002WILFRIDO G. TIRONA                                       0501
A0101401090171415630001GERTRUDES M. CALLANGAN                                   0501
B0301400530193037483168TAGUM AB MARKETING BUY & SELL                           11605
B0301400530193037483168AGRI PRODUCTS                                           21600
A0301400530000001010022PALMERO, ELMAR C.                                        0501
A0301400950000002115942DUERO, EDRICO N. OR DUERO,                              10502
A0301400950000002115942GENELIE                                                 20500
A3101400160221533266001ANGELITO S. LAZARO JR.                                   0502
A3001400130230478374028MAGLASANG, ELIZABETH DAHANG                              0501
A1001400190231509590001LAGUYAN, ENGRACIO SALONA                                 0504
B1001400350233039880008NORMIN FOOD CHAIN CORPORATION - JOLLIBEE                11605
B1001400350233039880008LIMKETKAI                                               21600
B1001400350233039881008EASTMIN FOOD CHAIN CORPORATION -                        11602
B1001400350233039881008GREENWICH                                               21600
B1001400350233039881018EASTMIN FOOD CHAIN CORPORATION -                        11605
B1001400350233039881018JOLLIBEE GATEWAY                                        21600
A1301400760000001295370RAQUEL J. GALANG OR                                     10505
A1301400760000001295370RODERICK V. GALANG                                      20500
B0101406620000003497103GREENROOF CORPORATION                                    1606
A0101400570000000031847MERCEDES L. LAUREOLA                                     0502
A0101400570281255738001SAWIT, JOSEFINA BARON                                    0501
A0101400570281345943001EDWIN C. DE LEON, M.D. OR                               10501
A0101400570281345943001MAYBELLE S. DE LEON                                     20500
A0101400570281388539063HENRY L. DE GUZMAN                                       0501
A0801400160311389143001CHAN, MILAGROS OR                                       10502
A0801400160311389143001CHAN, NATHANIEL                                         20500
A6601400120314612878001DORADO JR., LOPE ESPARTO                                 0503
A0101402350321526808001LUCITA R. TARRAY                                         0502
B0101405650322077417001ELEGANT INFOVENTURES, INC.                               1602
A0101405650000005284493LOPEZ, IMELDA MARCOSA LAUDE                              0502
A0101405650322369942002POLICARPIO III, JOSE JAIME M.                            0502
A0101405650322637767001DELA DINGCO, ANGELO PEREZ                                0501
A0101402060351009385001JORGE ALOMBRO JR. OR                                    10505
A0101402060351009385001NELIA ALOMBRO                                           20500
B0101402060000000793922AGUILAR, MICHAEL DBU MCA URBAN FOOD                      1610
A0101402060351217440025ARLENE F. MANGURAY                                       0502
A0101409050000003536521GUTIERREZ, SHERYLL                                       0501
B0101402640361821200608**********                                               2002
B0201400760374452730001C & L INTERNATIONAL PACKAGING CORP.                      1605
B0101408790383040734002RADIOWEALTH FINANCE COMPANY, INC.                        1610
A0101408790000005169115JUAN R. SUMPAYCO MOVERS                                  0503
A0101405490392478374012MARIVIC R. ALIPORO                                       0503
A0101408400394033093001KOLETZ ART GALLERY                                       0501
A0101408400394036671001CAIT FURNITURE SHOP                                      0501
A0101408950396564623001STEVE L. LIM M.D.                                        0505
A0101409180000004375337RAMOS, ENRICO                                            0502
B5501400120000001121742PENDON, NIXONLIE OR PENDON DIVINA                        1605
B5501400120410821200608**********                                               2001
B2401400180411038345001PHILFRESH CORPORATION                                    1605
A2401400180411048131001ONTARIO PURIFIED DRINKING WATER                         10501
A2401400180411048131001DISTRIBUTOR                                             20500
A2401400180411345375002YABUT, CESAR ANTHONY P.                                 10502
A2401400180411345375002OR YABUT, CARMEN                                        20500
A2401400180411478374051SORIA, LEIZEL ASIS                                       0501
A0901400220000006214386D' RANGER SECURITY AGENCY, INC.                          0501
A0101403320000000067441JAVIER, MARIA SUZETTE YONAHA                             0501
A0101403320000006027389BALLETA, MARK ANTHONY DOMINGO                            0501
A0101403320000004831061JOSEFINA P. MILLA                                        0502
A0101403320000000522176ALCANTARA, RAEZA LUMBAG                                  0505
A3801400170000000018755REX WESLEY CATIBOG AND KHARINE                           0501
B0101403580511005203001CORPORATE BUSINESS CENTRE CORP.                          1603
B0101403580000000922872PJ LHUILLIER, INC.                                       1602
A0101403580511036648001R2C TRADING                                              0501
A0101403580511156550002SARITA S. GARRATON                                       0503
B0101408530000000035903INTERNATIONAL SPECIALTY FASHIONS, I                      1603
B0101411400000006560892THOMPSON, CELINA DE PEDRO DBU DENTA                      1601
A0101403450521357926001**********                                               0501
B0101404000551005120001QUEST BROADCASTING, INC.                                 1620
B0101404000551024348001APPLESEED MONTESSORI INCORPORATED                        1601
A2201400250561681705001ELEANITA RIVERA &/OR GLOTHELDA                          10505
A2201400250561681705001RIVERA &/OR CONSOLACION A                               20500
A0101407720602396506002DR. ESTELA Z. CABRERA                                    0501
B0101404260000004781200G1CAFE INC.                                              1601
B0101404420631821100608**********                                               2002
B0101407690652042381001AUGUSTO S. DE JESUS FARM & LIVESTOCK                     1602
A0101407690652478374145MA. ROUMELA LUISA MIJARES -                             10501
A0101407690652478374145DEALERS OF SHOECAT, INC.                                20500
A0101407690000000243810PAGUIO, ANA CARDENAS                                     0502
B0101413990000006498106NORTHEAST DEVELOPMENT & ACQUISITIONS                    11601
B0101413990000006498106CORPORATION                                             21600
B0101406590000000905657BRAINCHILD SIX INC.                                      1602
A1301400210000002284999ANGULO, OSCAR CASTRO OR                                 10502
A1301400210000002284999ANGULO, EMELITA VICTORIA                                20500
B1301400210000005040817ROSSEN LENDING CORPORATION                               1610
A1301400210682555728001MARINA M. ROQUE                                          0506
A1301400340000002283741CECILIA R. PRODON                                        0502
A1701400230693478374044CECILIA CORRALES                                         0501
B0101408240000000005552PACIFIC AOE LOGISTICS INC.                               1602
A0101408240711410292003**********                                               0505
A2801400100712744757001MORALES, FELISA JOY CLEMENTE                             0501
A2801400230000005253258FAJARDO, TIMOTHY PAUL TOLENTINO                          0501
A4101400550000003839349DE LUNA, MONETTE JASARENO OR                            10501
A4101400550000003839349DE LUNA, PATRICK JOHN                                   20500
A0101412340000007901762DEBBIE LYNN C. MANAY                                     0501
A0101404840851520766067JOSEPHINE V. GABAYERON                                   0501
B0101405070861047281001AVISTELE CORPORATION                                     1601
B0101405070000000428922ALLSEAS INTERNATIONAL SHIPMANAGEMENT                    11602
B0101405070000000428922PHILIPPINES INC.                                        21600
A0601400230000003638993DUCUT, A DBU AMADOR P. DUCUT TA                          0501
