A0101410300663776849001******                                                   0503
A0101410300000000026508TAGLE, E DBU E.S. TAGLE TRADING                          0502
A0101413860000006463807RAMOS, GRACE BRUAN                                       0503
A0101410300000007613949JARO, ANNA LIZZA A.                                      0502
A0101408950396501550002ANDREW POBLETE                                           0501
B0501400170481023482001ARZADON LEISURE CORPORATION                              1605
A2801400100712380695001NOMER A. TALIBONG                                        0502
B0101406750000000090559GLOBAL ACCESS FINANCIAL SERVICES, INC                    1606
A0101400860000002333513******                                                   0501
B0101400860011409046002**********                                               1601
B0101400860011418038001**********                                               1603
A0101400860011568806001**********                                               0505
A0101400860011693273001*************                                            0503
A0101400860011743392001**********                                               0503
A0101401250021453364001TORREJOS, ALFREDO OR                                    10501
A0101401250021453364001RYAN ALVIN OR CARMEN                                    20500
A0101401250021771670001FLORANDA, NAGEL DIMATATAC                                0501
A0101400150000001422075MANDAP, MARK JOSEPH DUNGCA                               0502
A0101400150000003218226PIA VANESSA V. SORIANO                                   0501
A0101400150000006551044NAKPIL, MARY GERALDINE ANN                              10501
A0101400150000006551044LOPEZ                                                   20500
B0101400150061010809001VENDOME INSURANCE AGENCY KONSULT, INC.                   1603
B0101400150061010850001GOODFAITH EQUITIES CORPORATION                           1601
A0101400150061073859002WILSON O. SANTOS                                         0501
A0101400150000000000022FORTU, ANNE LORRAINE FESALBONI                           0502
A0101400600071478374004JULIET E. SY                                             0505
A0101405810000001021172PUA, C DBU MCK SCHOOL & OFFICE                          10503
A0101405810000001021172SUPPLIES                                                20500
A0101405810072282399003**********                                               0502
B0101405810072522580001GONG, YONGBIN YANG                                       1602
B0601400100081200942001CHENG, SZE KIT                                           1610
A0601400360000000225250GUIAO, JEFFREY BONUS DBU J3A                            10510
A0601400360000000225250FOODLINE JT GUIA                                        20500
A0601400360083533728001LU, SHUN-PING                                            0501
A0101410850000009159628MENDOZA, LAWRENCE LEE                                    0502
A0101400730111334903003OFRECIO, EDNA Q.                                         0501
A0101400730111527208001********                                                 0501
B0101406040112764714001********                                                 1601
B0101412630000002186570JEC REALTY CORPORATION                                   1602
A0101413310000001073530PACAMARRA, GILMARIE FE SALVA                             0501
A0101401830141206536001PEDRO S. FLORES OR                                      10505
A0101401830141206536001IRMA G. FLORES                                          20500
A0101401830141366498001GRACE I. RIVERA-JACINTO, MD                              0501
A0101400440161478374008MARY FE I. REDONDO                                       0501
A0101407270000007525295CORTEZ, ALFRED BALATBAT                                  0501
A0101407270000011022703RAMIREZ-DORDE, KAREN ANN T                               0501
A0101407270162385235002RAFAEL M. MERCADO                                        0502
A0101407270162465291003JEFFREY R. JETURIAN                                      0506
B0101401090171051858001NAZROS CORP.                                             1601
A0301400530000002318561VILLANUEVA, FEDERICO MAGPAYO OR                         10501
A0301400530000002318561VILLANUEVA, MARI                                        20500
A0101401380000010190353PAULINO, ENRIQUE DBU KAKA RESTO                         10501
A0101401380000010190353BAR OR PAULINO, DIONNE                                  20500
A0101412500000000739624LOZANO, CARLO ANTONIO TANGANGCO                          0501
A0101413600000008636506DIRK MARTENS                                             0502
A3101400160221533266001ANGELITO S. LAZARO JR.                                   0504
A3101400160221675534001PIUS WESLEY F. QUIAMBAO                                  0501
B1001400190231038390001MC SHIPPING CORPORATION                                  1603
A1001400350233777505001CESAR, NEMAS ACERA                                       0501
A1001400480000003357771ESTILLORE, YVONNE GUMAPAC                                0501
A1301400760000005989913YOUSEF, HALA MANUEL                                      0501
A1901400290000005565820JUDITH ATE VIRTUDAZO                                     0501
B0101401670271045353001DETECTNET SECURITY CREDIT COOPERATIVE                    1602
A0101406460000002331011BAVIERA, PORTIA CASTELLANO                               0503
A0101406460272686557001TANWANGCO, ALEX FERNANDEZ OR                            10510
A0101406460272686557001TANWANGCO, ANDRE                                        20500
B0101406620273313299003**********                                               1605
B0101410980275047209001PIONEER STATIONERS, INC.                                 1602
B0101411820277048023001FORGEMS PLUS TECHNOLOGIES CORPORATION                    1605
B0101400570281026341001PUBLIC SAFETY SAVINGS AND LOAN ASSOCIATI                 1605
A0501400200000005137188GANANCIAL,SHERLYN DBU MAX GEL                           10501
A0501400200000005137188ELECTRONIC SERVICE CENTER                               20500
A2601400270000009497863ROCHELLE ANNE C. LOPEZ OR MARK                          10501
A2601400270000009497863ANTHONY C. CABACCAN                                     20500
B2601400270000005301739GAUDIOSO TALAVERA JR OR EMILIA                          11605
B2601400270000005301739TALAVERA                                                21600
B1101400120000000652880YAO, ANTHONY ROBERTSON GO AND YAO, MARK                 11610
B1101400120000000652880ALAIN GO                                                21600
A2001400290000001557699RIVERA, JOHN SOLANA                                      0501
A2001400290315044204002ACEBANK CREDIT, INC.                                     0501
A0101402350000001474324MARTINEZ, KENNETH BUHAT                                  0502
B0101402350000000655492RD PAWNSHOP, INCORPORATED                                1605
A0101402350000005645150QUEG, CHRISTOPHER MULI DBU CM                           10502
A0101402350000005645150QUEG TRUCKING SERVICES                                  20500
A0101402350321184624001VICEO, JENNIFER R. OR ALELI OR                          10510
A0101402350321184624001OSCAR OR KATRINA                                        20500
A0101402350321455174001CARVAJAL, DOROTHY S. OR                                 10501
A0101402350321455174001CARVAJAL, KIM AP                                        20500
A0101402350321478374058DELA CRUZ, MERLITA GABON                                 0501
A0101402350321712665001ALEX U. PASCUAL                                          0501
B0101409050000000258531HENDERSON BLAKE BUSINESS SOLUTIONS,                      1602
A0101409050352088185001ROLITA Q. GO                                             0501
B0201400760000002047412CHING, JOSEPHINE LIMCHESING DBU                          1602
B0201400760374249471001COMMONWEALTH INSURANCE COMPANY                           1604
B0201400920375526997001**********                                               1602
A0201400890376062347001LYLIE HOTEL                                              0501
B0201400890376067733001COR HARDWARE                                             1601
A0201400890376192121001TORRES, GIL FERDINAND ABELLO                             0502
A0201401020000000470193LOUIE PENA'S TRAVEL TOURS & EVE                          0503
A0101402930013100000240DE DIOS, MARIO MANOTOK                                   0503
A0101402930013100000282OCAMPO, CHARITY DELA ROSA                                0503
B0101402930000005646153ENGAGE MEDIA MAVEN INC.                                  1603
A0101402930000000859918GAERLAN, PATRICK SEVA                                    0501
A0101408370000007461061ENGUITO JR., ANTONIO C.                                  0501
B0101408370000000014586THE MEDICAL CITY DEPARTMENT OF MEDICINE                 11601
B0101408370000000014586INC.                                                    21600
A0101408790383787785001GUEVARA, CRISTINA JOSEFINA JT                            0501
A0101402770391043391001IMPRENTA ISABEL                                          0502
A0101405490000001876173DE GUZMAN, REYNATO CERENO                                0502
A0101405490000002252995ALPAY, FERDINAND AUSTRIACO                               0501
A0101405490000006214160LUCIANO, LIZELLE SAMSON                                  0501
A0101405490392281900001MERCIA B. GEROBIN OR                                    10501
A0101405490392281900001ALEJANDRO B. GER                                        20500
A0101405490392554799001ALLEN NEIL V. PAJARELLANO OR                            10502
A0101405490392554799001FLORANITA V. PAJ                                        20500
B0101408400000003120587YSON, SHERILYN CAJUDAY                                   1601
A0101408400000003421445ANONUEVO, JEANELYN MALANO                                0503
A0101408950396281443001SHIA, JOHNNY TORRES OR                                  10502
A0101408950396281443001SHIA, VICTORIA TAURO                                    20500
A0101408950396643519001LIM, CATHERINE GRACE LEDESMA                            10502
A0101408950396643519001OR LIM, JONNEL LUGOD                                    20500
A0101409210000000043843CHING, CAROLYN QUE PE                                    0501
A0901400220000000888042**********                                               0503
A0101403030441289498002**********                                               0501
B0101403320471009016001ABBA EQUIPMENTS TRADING AND                             11602
B0101403320471009016001SERVICES INC.                                           21600
A0101403320471032385001CHRISTIAN OR EVANGELINE                                 10501
A0101403320471032385001VALENCERINA                                             20500
A0101403320471400801001MARILEN I. CRUZ                                         10503
A0101403320471400801001OR DENNIS MICHAEL CRUZ                                  20500
A0101403320471442721001CANDIDO M. MANEJA OR                                    10502
A0101403320471442721001GLADYS MANEJA                                           20500
A0101406330000004349611CORMACK, ROSS ANTHONY STEVENS                            0501
A0101406330000006943526DELOS REYES, ESTRELLITA MONTERO                          0501
B01014063304720209890011 TO 1 MARKETING INC.                                    1610
B0101406330000000432619INNOVATI INTERNATIONAL INCORPORATED                      1601
B0101406330000007845723JZI CONELI VENTURES INC.                                 1605
B0101406330472367379002********                                                 1601
A0501400170481253600001NARDING C. CAMERO OR                                    10502
A0501400170481253600001JULIE C. CAMERO                                         20500
A0501400170000001032153UNGOS, ROWENA ORFINADA                                   0505
A3801400170000005702723DE LEON, ANTONIO ROXAS OR                               10501
A3801400170000005702723DE LEON, JESITA                                         20500
A1401400110492412423001LUNA, MA. TERESA MAGBOO OR                              10503
A1401400110492412423001LUNA, EDWIN                                             20500
A1601400170000000421149EVELYN B. DELVO                                          0502
B0101407430000008901326CERILO C. CATALAN DBU CERILO'S CATERING                 11602
B0101407430000008901326SERVICES                                                21600
A0101407430503434847002JOCELYN L. CUSTORIO                                      0501
B0101405940000008478964SGG HEALTH TRADING CORP                                  1604
B0101408530516005188001SEARCHERS & STAFFERS CORP.                               1610
A0101408530516548003001*************                                            0503
A0101408530516765274111*************                                            0503
B0101403450521022132002AIRTIGHT TECHNICAL COMPONENTS MKTG.                      1601
A0101403450521239572002ONG, SIN CHIOK                                           0501
B0101403610000003053130**********                                               1602
A0101403610531220632001BLANDO, LETICIA SALEM OR                                10501
A0101403610531220632001BLANDO JR., LUIS                                        20500
A2201400250561028844002CHRISTIAN HOME FURNISHING                                0501
A0101407720000000245087VILLAREAL, EDWARD CEA                                    0501
A0101407720602081606001DY, JAY VILLAR                                           0502
A0101407720602398542002DR. ROBERT DENNIS J. GARCIA                              0502
A0101407720602405364001YATCO, MARIA LOURDES GARCIA                              0504
B0101412180000008320045BLUMONT PRIME RESOURCES INC.                             1605
A0101404260611353663002CLAMAR, GLENDA SUAREZ                                    0501
A0101407690652525001034ROSALIE VERDE - DEALERS OF                              10501
A0101407690652525001034SHOECAT INC.                                            20500
A0101407690000000053881********                                                 0506
A0101413440000002339562RIVERA, GEORGE IVAN DE JESUS                             0502
A0101413440000004882931DEL ROSARIO, MARCOS VALENTIN                             0502
A0101413570000003379993KARREN ANNE M. CARNERO OR                               10502
A0101413570000003379993RYAN CONRAD D. C                                        20500
A0101414120000001642586TIBOR, FERNANDO EMBALADO                                 0501
A0101414120000009850906ABELLA, GRACE RAMOS OR ECLIPSE,                         10501
A0101414120000009850906JOANNE BACSAL                                           20500
A0101406590662519616001MATEO, ARLYN OR LORENZO JR. OR                          10502
A0101406590662519616001LORLYNN OR GERRALD CARLO                                20500
A0101410300000000026462SYCIP,JOHN CARLOS/BANTIGUE,JOHN                         10510
A0101410300000000026462PAUL/ESQUIVIAS,JOAQUIN                                  20500
B1301400210000000915593CHIN, NINO BONITO SEDIGO DBU MESHAC                      1601
A1301400340000003458199OCAMPO,ANGELICA RAISSA ESPIRITU                          0501
A1301400500000000213312RAMOS, LORINO IBERIO ARZADON                             0502
A1701400230000002347286CORPUZ, NONILONE RAGUAL                                  0501
A1701400230000002347286CORPUZ, NONILONE RAGUAL                                  0504
A0101408240711518229001CHUNG, HYUK JIN                                          0510
B2801400100712024726001SWEET TOOTH CORPORATION                                  1606
B2801400100712031823001REYES, DIANO, TUMANDA & CO.                              1602
A2801400100712255396001VITT O GUTIERREZ OR                                     10502
A2801400100712255396001MARY ANN GUTIERREZ                                      20500
B4101400390813019416002STI COLLEGE-ROSARIO, CAVITE, INC.                        1602
A4101400390000000048640DAMIAN, KAREN BULSECO                                    0501
B4101400420814034500001PRODLINE ENTERPRISES COMPANY                             1605
A4101400420000004847890NELLIE B. CARAIG                                        10502
A4101400420000004847890NELLIE B. CARAIG                                        20500
A4101400550000000506927ELLEMA, JEMELLE GARCIA                                   0502
A0101406750000007879154ROQUE, MA. CONCEPCION BONUS                              0501
B0101413860000000145300**********                                               1610
