B0101410690000000710796WH & P REALTY CORP.                                      1602
A0101400440161358347001MA. ELSA T. APOSTOL                                      0501
A0101410720653579026001PROLOGO, JORDAN CAMINO                                   0502
A0101405650000000772969DAVADILLA, KENNETH LOUIS CARTON                          0501
A0101405650000004822202SIA CUNCO, KUH SORRERA                                   0502
A0101405650000002325548GREGORIO, DALMACIO HILARIO                               0502
A0101400150000002749762AREJOLA, MARK NATHANIEL LEDESMA                          0502
B0101400150061000633001PHILIPPINE BANK OF COMMUNICATIONS                        1603
B0101400150061039626002MENZI & CO., INC.                                        1602
A0101405810000001021172PUA, C DBU MCK SCHOOL & OFFICE                          10503
A0101405810000001021172SUPPLIES                                                20500
B0601400100000002099421**************************                               1603
A0601400100081251941001MARCELINO ALAPAG OR                                     10504
A0601400100081251941001JASMINDA ALAPAG                                         20500
A0601400100081742493001SANTIAGO, FELICISIMO VALENCIA                            0502
A0601400520000001706883MERCADO, MARGIE Z DBU LINCEL                            10501
A0601400520000001706883GEMOSEAN LEARNING CENTER                                20500
A0601400520000004423294DALUSUNG, ROSEL B DBU VERSATILE                         10503
A0601400520000004423294VENTURES GENERAL MDSE                                   20500
A0101410850000000472428RAFOLS, R DBU REY RAFOLS                                10505
A0101410850000000472428ENTERPRISES                                             20500
A0101410560000003562070**********                                               0501
A0101410560000000020195LELIANE D. TORRES                                        0503
B0101400730111007949002THE TOWER CORPORATION                                    1602
A0101401960000006004502ILETO, TERESITA DIZON                                    0501
A0101401960121239548001MELANIE YAO                                              0501
A0101412630000004598132BOLANOS, ELLEN JAVIER                                    0501
A0101401830141409771001ALRIC P. BOBO                                            0501
A7201400170000006487912GUANZON, ROCHELLE R.                                    10501
A7201400170000006487912OR GUANZON, JUAN                                        20500
A5001400170000000213841GAMALINDA, ELENA TUBAON                                  0501
A0101400440000007121768NIEVA, GENELYN ESTRADA                                   0502
A0101400440000004889843RONIELYN M. MAGLINES                                     0501
A0101400440000007121757SHIRLEY CARULLO                                          0501
A0101407270000007824726ABELLA, MA. ANGELES TORRES                               0501
A0101407270000007827101HERNANDEZ, LOVELYN CRUZ                                  0501
B0101407270162008369001NMS CONSTRUCTION COMPANY                                 1604
A0101407270162331908150RAMON DANIEL S. RIVERO                                   0501
A0101407270162680672001CRUZ, LEONARDO BALLION                                   0502
A0101401090171195628003PUNSALAN, PATRIA PEREZ OR                               10502
A0101401090171195628003KING, LARRY SIA                                         20500
A0101401090171196365001JOSEFINA R. TORRES                                       0501
A0101401090171197850001TERESITA G. ALMADIN                                     10501
A0101401090171197850001OR ROMEO G. ALMAdin                                     20500
A0101401090171288509002FLORENCE C. NAVIDAD                                      0501
B0301400530193022834168DAVAO ORCHARD ROAD, INC                                  1610
B0301400530193041601001GRANITE CREDIT CORPORATION                               1602
A0301400530193478374008CHYRL ANN SENANGOTE                                      0502
B0101401380201041802001D'GLACIERS' MGM INC. - MAC                               1602
A3101400450223024178001PANATEK REFRIGERATION                                   10501
A3101400450223024178001AND AIRCONDITIONG                                       20500
A3101400870000000957757BALLESTER, RAQUEL DEL ROSARIO                            0502
A1001400190000003017789FELIX C. IGCALINOS DBU IFM GENE                         10502
A1001400190000003017789SERVICES                                                20500
A1001400190231478374170ENIOLA, MELODIA                                          0501
A1001400350233042653001BLUE ENERGY RESOURCES                                    0502
A1001400350000000017165MEN DBU A&L MARKETING SOLUTIONS                          0501
A1001400480000002300430YU, WINEFREDO NISNISAN DBU                              10504
A1001400480000002300430WINKIM TRUCKING                                         20500
A1901400290261585775001LITA CUETO MENDOZA OR DORIS                             10502
A1901400290261585775001MARIE MENDOZA MEDINA                                    20500
A0101406460272079157001RUELO, ARSENIO BERGONIO                                  0501
B0101406620273212676001**********                                               1601
A0101406620273495068001DANILO B. ESCARLAN                                       0501
A0101408660274478374012ELSA R. ETCUBANAS                                        0501
B0101411820000003085112HARDCOM COMPUTER SYSTEM CO.                              1601
A0101412470000000026822O, HERBERT LAO DBU EASYBUYS CAR                         10504
A0101412470000000026822TRADING                                                 20500
A0101400570281034589001JAMTRX ENTERTAINMENT                                     0502
A1101400120000003981168MAHID M. SIDIC DBU MAHID                                10501
A1101400120000003981168CELLPHONE ACCESSORIES                                   20500
A6601400120314700597001BACOY, SHARON OR                                        10503
A6601400120314700597001BARBARONA, FELIX OR LUZ                                 20500
B200140029000000240667377 LIVING SPACES INC.                                    1605
B3401400280318821200608**********                                               2001
B0101402350321037708002RD CASH PADALA, INC.- AREA 1                             1603
B0101405650322046297001HERRERA, ERIC DBU HOTWHEELS TRADING                      1602
B0101405650000000772743BF FEDERATION OF HOMEOWNER ASSOCIATION                   1601
B0101402510341031237001VIACAREM RESTAURANTS                                     1601
A0101402510000000200153LPR GRAPHIC DESIGNS                                      0501
B0101409050352821200608**********                                               2002
A0201400760000000222922PELUCHI ESSENTIALS SPA                                   0501
B0201400890376062549001GIBBY'S EQUITY GROUP, INC.                               1601
A0101402930000003710745CASTANEDA JR., EDWIN JOSEPH ORT                          0501
B0101402930000005645912ARTISTESPACE INC.                                        1610
A0101408370382399194001DR. FRANKIE V. FERNANDEZ                                 0501
B0101411660000005434782G-MAX ENVIRONMENTAL SOLUTIONS INC.                       1601
A0101405490000000232511MICHSJA MOPET MAY C. FELIX                               0502
A0101405490392034138001MCMAR & MARY ELECTRICAL                                 10501
A0101405490392034138001& CONSTRUCTION S                                        20500
A0101405490000002880551MARIE GRACE BUITRE DBU CEDAR                            10503
A0101405490000002880551TREE CONS. SUPPL                                        20500
A0101408400000004490244JISON, VICTOR LEDESMA                                    0502
A0101408950000005325571TAN, JOHN ERIC NGO OR                                   10501
A0101408950000005325571QUIROZ,BERNICE VILLANUEVA                               20500
B0101409180397062516001PHYSIXARE ADTEK SOLUTIONS, INC                           1601
A0101409180397696150001MARINO, SALVY OR MARINO, HECTOR                         10501
A0101409180397696150001OR NAVOA, NANETT                                        20500
A0101412210000001236340GERARDO IGNACIO B. ONGKINGCO                             0502
A2401400180000002146287BAUTISTA, WEDELIZA DIOQUINO                              0502
B2401400180411014376006PENBANK, INC. (A PRIVATE DEV'T BANK) -                  11605
B2401400180411014376006FISHPORT BRANCH                                         21600
A2401400180411442136088***************                                          0501
A2401400180000001676913***********                                              0501
A2401400180411513730001CUEVAS, ARWIN ROYCE LEYVA                                0502
B1201400150421025695001PRINTING AND PUBLISHING MULTI-PURPOSE                   11603
B1201400150421025695001COOPERATIVE                                             21600
B1201400150421496291001LIQUETE, DOLORES SAGUID OR LIQUETE,                     11602
B1201400150421496291001LEONARDO                                                21600
A0101403030441239184002**********                                               0501
A0101412890000000371431BARBUENA, GINA B.                                        0501
B1401400110492365609001JEORGE S MALIGAT - PILIPINO HARDWARE AND                11601
B1401400110492365609001CONST. SUPPLY                                           21600
A1401400110000001806833EMETERIO C MINDANAO                                      0502
A1401400110492777638001DY, EDNA AYCARDO                                         0506
A1601400170000001360816RANCES, ARLON DE LUNA                                    0501
B0101403580511015363081MEC - SUNTRUST PARKVIEW                                  1603
B0101405940512021383001FRIENDLY ALLIANCES & MEDIA EXPRESSIONS                   1610
A0101411400000002301171*****                                                    0502
A0101411790000000039303GAN, JOSEPHINE DELA CRUZ                                 0501
A0101411790518055764012ALARCON, REDIMER MANABAT                                 0501
B0101410690000000001861FIVE STAR COLORPRINT, INC.                               1602
B0101404130601016662001PAYROLL SERVICE PROVIDERS, INC                           1603
B0101404130000000001263DYNASTRUCT INC.                                          1605
B0101404130601100161001PRUDENTIAL CUSTOMS BROKERAGE SERVICES,                  11610
B0101404130601100161001INC.                                                    21600
A0101404130601451810002YOTOKO, MA. LUCILA CANDIDA C.                            0501
A0101407720000000713051SANTIAGO, CYMBELINE PEREZ                                0501
A0101407720000003099176PENARANDA JR., ELADIO MIGUEL                             0501
A0101404260000003498533JOUSELYN PONTILLAS                                       0501
A0101409890000006812804MACASPAC, SUKHJINDER DBU CENTRA                          0502
B0101414120000001984212MEGACEM INC.                                             1603
A0101414120000004603398WEBLEND INC.                                             0501
B0101406590662045778001KAUNLARAN GROUP OF COMPANIES INC.                        1602
A1301400210000000540969ROWENA C DE SILVA                                        0501
A1301400210682245727001FALLORINA T. MANAHAN OR                                 10502
A1301400210682245727001 MANUEL P. MANAH                                        20500
A1301400210000002909362NEPOMUCENO, ANNABELLE TALUSAN                            0502
A1301400340000002158443********                                                 0502
A1301400340683764616001DAZO, CHASTITY AILEEN CALONZO                            0501
B0101408240711026617001TOKYO HEALTHLINK, INC.                                   1603
A0101408240711403809001MARY MAUREEN H. ALBARRACIN                               0505
A2801400100000002253561DEL GALLEGO, ALICIA SANTOS                               0502
B4101400260812045529001CITISTORES INC.                                          1601
A4101400260000003679807JOAN DANTE                                               0501
A4101400260812581221001FIDELA B. AOAY                                           0501
B4101400390813036410001THE BOAT SHOP CORPORATION                                1602
A4101400390000003389479REMULLA, N DBU V.N.R. CONSTRUCT                          0503
A4101400550815042023002AUTOWELL TRADING                                         0505
A0101412340000003761802LARRY BOY M. CHAVEZ                                      0501
A0101412340000005440186MARIBETH G. NOLEAL                                       0501
A0101404840851710251001MALAIKA, ABDULAZIZ OR GONZALES,                         10501
A0101404840851710251001KARIMA                                                  20500
B0101406750852023612001LAS PINAS CITY MEDICAL CENTER, INC.                      1610
A0601400230891682041001ERNESTO A. BALTAZAR OR                                  10502
A0601400230891682041001ANGELITO M. LOPE                                        20500
