B7201400170000003773591JELAY CONSTRUCTION AND SUPPLY                            1602
A3001400130000000931191RACHO, AGNES ARAGON                                      0501
A1101400120000000010624ACEBEDO, VIVENCIA CHUA                                  10501
A1101400120000000010624OR ACEBEDO, RAMON BALUTE                                20500
A1101400120000000652351YAO, RONALD PHILIP GO                                    0501
A1901400160491054530001E C G INDUSTRIAL SERVICES                                0501
A0101400860011035923001**********                                               0505
A0101400860011394631002**********                                               0502
A0101400860011422604001**********                                               0505
A0101401250021180359001PASCUA, SYLVIA C. OR                                    10501
A0101401250021180359001PASCUA, ANTONIO S.                                      20500
A0101400150000005729353PEDROSO, DAN CARLO ARCANGEL                              0501
A0101400150000005729440TANDIAMA, ALELI ANN DELA CRUZ                            0501
B0101400150061000452002DEUTSCHE BANK AG MANILA BRANCH                           1601
B0101400150061025214001MAA CONSULTANTS, INC.                                    1601
B0101400150061027783001CRESCENT MINING AND DEVELOPMENT                         11601
B0101400150061027783001CORP.                                                   21600
A0101400150061226134001ANECTO C. TORREFRANCA                                    0501
B0101400600071328360002**********                                               1601
A0101400600071508998001*********                                                0503
B0101405810000000016811SK PLASTIC RELIANCE COMPANY                              1603
A0101405810000001021172PUA, C DBU MCK SCHOOL & OFFICE                          10502
A0101405810000001021172SUPPLIES                                                20500
B0601400100081040805001LA GRANDE VITA CORPORATION                               1602
B0601400100081256915005KWONG, WILLIAM G. OR                                    11603
B0601400100081256915005ANTONIO, ADELA                                          21600
A0601400520000002086040BARRION, JENN DBU LGB SECURITY                           0502
B0101400440161022597001PHILMAN POWER CENTER INC.                                1612
A0101400440000002035201CRISANTA M. FREO                                         0501
A0101400440161395112001GERLY T. VILLEGAS                                        0501
A0101400440161525001139JEMARIE S. SALUDAR                                       0501
A0101400440161673957001JOBERT F. MEMPIN                                         0502
A0101407270000003254253CLEMENTE, SPIRO LU                                       0502
A0101407270162599488001ROMEO M. SALAZAR OR                                     10505
A0101407270162599488001BERNADETTE V. SA                                        20500
A0101401090000003835927MASANQUE MEDICAL EQUIPMENTS                              0502
A0301400530193779171188DAMASCO, RHEA MOCCA MAE C. OR                           10502
A0301400530193779171188DAMASCO, JAY R O                                        20500
B0301400660000003361953ORIENTAL & MOTOLITE MARKETING CORP.                      1602
B0301400790000000040940ASIAN HYBRID SEED TECHNOLOGIES, INC                      1605
B0101413600000002822740ENA POWER BUILDERS INC.                                  1604
A3101400160000000006475TENNESSEE H SEVILLA                                      0501
A3101400450223418716001GARCIA, JESUSA CORAZON PLAZA                             0501
A3101400450223442002001GARCIA, ROSALINA OR                                     10502
A3101400450223442002001JESUSA CORAZON                                          20500
B3101400870225059600001LAGUNA AAAWATER CORPORATION                              1601
B1001400190231059632001ADVANCED INJECTION SYSTEM SALES& SERVICE                11601
B1001400190231059632001CENTER INC.                                             21600
A1001400190000001057396LOLITA B. DULCA                                          0501
A1001400190231740856001YASAY, OLIVE BITANG OR                                  10501
A1001400190231740856001YASAY, MARINA BI                                        20500
A1001400350000000922321LIBRON, NANETTE RANISES                                  0502
A1001400350233478374022EDILLOR, DORISITA S.                                     0501
B0401400140241821100608**********                                               2010
B0401400140241821100608**********                                               2002
A1901400290000001926274GIRLIDIA SANCHEZ PANALIGAN OR                           10503
A1901400290000001926274RODOLFO MARANAN PANALIGAN                               20500
A1901400290261293874001LIEZL DINGLASAN LLAVE OR                                10503
A1901400290261293874001RONNIE CUBERO LLAVE                                     20500
A1901400290261488341018ALBERT CESAR S FALLER JR                                 0502
B1901400290261535730001SOUTH LUZON HIGH RISK PREGNANCY AND IN-                 11602
B1901400290261535730001FERTILITY CENTER                                        21600
A0101406460272376552001CEDENIO, ANNA LISA UY OR                                10501
A0101406460272376552001CEDENIO, ELIZABE                                        20500
A0101406460000002330989********                                                 0501
A0101406620000000577106CALANTUAN III, BENIGNO TOGONON                           0501
B0101406620273039952001VERSATECH INTERNATIONAL, INC.                            1602
B0101406620273040722001ARDENT NETWORKS INC.                                     1602
B0101406620273045381001LEMON MYRTLE INDUSTRIES CORP.                            1601
B0101406620273046907001RS CONCEPTS, INC.                                        1610
B0101411110000000842557**********                                               1601
B0101412470000003847405NEW LA UNION PLYWOOD TRADING CENTER                     11606
B0101412470000003847405INC.                                                    21600
A0801400160000002681661NOE'S UPHOLSTERY FURNITURE & EN                          0503
A0801400160000000009452JESTER FOOD PRODUCTS                                     0505
B1101400120000000652971FIL PRODUCTS SERVICE TELEVISION OF                      11620
B1101400120000000652971TACLOBAN CITY                                           21600
A1101400120000003981102MEMBERS OF NATASHA (SHOECAT INC                          0502
A6601400120314593270001DIAZ, REO OR MARIEGIL OR                                10505
A6601400120314593270001REMEDIOS                                                20500
A6601400120314612961001SALAVARRIA, VICKY OR CRISALDO                            0502
A6601400120314668441002MASLOC, SHERRY AMOR GALONO                               0501
A0101402350000003080297MARCELO, JE DBU SECURE COSMETIC                          0502
A0101402350321548644002MANZANO, MARIO OR                                       10502
A0101402350321548644002MANZANO, SHIRLEY                                        20500
A0101405650000004822220YANGUAS, DOSIE SALDANA                                   0501
B0101405650000000772685WISEMEDIA GROUP, INC.                                    1601
A0101405650322755197001ZERRUDO, LAURENCE UYTIEPO                                0501
B0101402510341026003001PHILSOFT TECHNOLOGIES GROUP, INC.                        1601
B0101409050352009377001ESLA LAND DEVELOPERS, INC.                               1605
B0201400760374043228001MAYHWA STEEL CORPORATION                                 1605
A0201400760374260158002PINEDA, ALFREDO B.                                       0501
A0201400920000002250146YEO, JOAN DANIEL                                         0502
A0201400920375770629001GOMEZ, CHRISTOPHER BAYLON                                0501
A0201400890376535273001TOLEDO,HAROLD XAVIER OR CLIMACO                         10502
A0201400890376535273001BRYAN OR GUEVARR                                        20500
B0201400890376668181001ST. MARK'S RESIDENCIA, INC.                              1603
A0201401020000000056233BIG ATIN TRADING                                         0505
B0101402930381008829002AXEIA DEVELOPMENT CORP.                                  1615
A0101402930381488888001EDWARD P. LIM                                            0502
A0101408370382391600002DR. JONATHAN A.I. SANDEJAS OR                           10505
A0101408370382391600002DR. MELISSA P. SANDEJAS                                 20500
A0101408790000000579266BARREIRO JR., ANTONIO CEFERINO                          10501
A0101408790000000579266VILLAR                                                  20500
A0101408790000002326110CUNANAN, POLLY MICHELLE QUIDES                           0501
A0101408790000005895345MATHERS, MELINDA ADVINCULA                               0501
B0101408790000005594681RADIOWEALTH FINANCE COMPANY, INC.                        1605
B0101408790000000038997TIPPING POINT TRADING AND CONST. INC.                    1601
A0101411660000004597220BONDOC, NARCISA NAVARRO                                  0502
A0101402770391684633001VERONICA AVERIA BAUTISTA                                 0503
A0101408400394478374090MARY DUMASLAN                                            0501
A0101408950000004998149CHRISTIAN DENNIS E. RICABLANCA                           0501
A0101408950000005325417LI, FAT KA PAZZIUAGAN                                    0501
A0101408950396398206001FRANCISCO VICENTE F. LOPEZ                               0502
B0101409180397044045001CACHO CONSTRUCTIONS, INC.                                1602
A5501400120410635886001ARANDIA, LINA CONCEPCION                                 0502
A5501400120410638200001ALAJAR, CELESTINA OR ROLAN OR                           10505
A5501400120410638200001ANNABELLE                                               20500
B2401400180411036768001MJ CARGO EXPRESS LOGISTICS, INC.                         1615
B2401400180411040250001HOME SOLUTIONS DEPOT PLUS                                1605
A1201400150000000473205OBILLO, CORAZON AVILA                                    0501
A1201400150000001863094SOMNGI, ESTEBAN ACROPEN                                  0502
A1201400150421344076001ULAT, MAREBEL RUEDA                                      0504
A1201400150421478374014PERIDO, MARY JANE                                        0503
A0101406330472370108002MA. VICTORIA L. ESTRELLA                                 0501
 0101406330472462179001                                                           00
A0101406330472478374037LOLITA D. AMADOR                                         0501
A0101410140000000482702LABASTIDA, ENGRACIO DOTOLLO                              0501
A0101410140000001940110BARRIOS, MARISSA ACHACOSO                                0501
B0501400170481013098001MOTORPLAZA INCORPORATED                                  1603
B0501400170481023482001ARZADON LEISURE CORPORATION                              1605
A1901400160491247840001OFELIA D FETALVERO OR                                   10501
A1901400160491247840001HARRY F FETALVERO                                       20500
A1901400160491414715001JOSEPHINE A CONCEPCION                                   0501
A1401400110492554317001HERRERA, JOEL CORNEJO                                    0501
A0701400260000000041005KALAW, REYNALDO ORTEGA                                   0501
A0101405940000001534190PANGANIBAN, RANGIE MIANO                                 0501
A0101405940512356426001BERNADETTE P. RAMIREZ OR                                10501
A0101405940512356426001CESAR S. RAMIREZ                                        20500
A0101408110000003661829MONTANO, GIANPAOLO PERLADO                               0501
A0101408110515297214001LOURDES C. ALDEA-SALVADOR                                0501
B0101412050000000890973MCQUEEN AND TOW MATER, INC.                              1602
B0101403610531044231001BLOOMING STAR                                            1603
A0101403610531219303001DR. ROMEO R. ANDAYA  OR                                 10502
A0101403610531219303001DR. ANGELITA Y. ANDAYA                                  20500
A0101403610531220921002MEALA, BELEN PARACALE                                    0503
A0101403610531762297001HO, HELEN TAN OR                                        10502
A0101403610531762297001TAN, DOLORES LIM                                        20500
B2201400250000000016920STAPLERS INC.                                            1601
B0101404130601046104001BOOMERANG CORPORATE OUTSOURCING                         11602
B0101404130601046104001SOLUTIONS, INC.                                         21600
A0101404130601354900001YBANEZ, JUDITH JANDA                                     0501
B0101404130000004437252KING, WYDEN ROSARIO                                      1603
A0101407720602163161002DY, PRUDENCIO DOLORES                                    0502
B0101404260611033056001OVT-GRAPHIC LINE INC.                                    1603
A0101404260611153476004TIU, THERESITA SOLDIVILLO                                0510
A0101404260611478374115FE S. BONDOC                                             0501
A0101404260611478374129RUBY VIRTUDAZO                                           0501
A0101409920000000998821LANIP, JOCELYN BOLINA                                    0503
A0101407690652442595001ALEJANDRO, LIRIO OR ARIEL                                0501
A0101407690652478374034EDNA D. PENALVER - DEALERS OF                           10501
A0101407690652478374034SHOECAT, INC.                                           20500
A0101407690652478374044MA. THERESA BACINILLO - DEALERS                         10502
A0101407690652478374044OF SHOECAT INC                                          20500
A0101407690652525001019NACENO, LOURDES B. - DEALERS OF                         10501
A0101407690652525001019SHOECAT INC.                                            20500
A0101407690652525001075DOCDOCIL, GELITA - DEALERS OF                           10501
A0101407690652525001075SHOECAT INC.                                            20500
A0101407690652741995001ESTACIO JR., FELIPE ADONA                                0502
A0101407690000000243810PAGUIO, ANA CARDENAS                                     0502
A0101411530000002260220PACLEB, LYNN R OR                                       10501
A0101411530000002260220PACLEB, NOEL G                                          20500
A0101413990000001947128MARS STONE SUPPLY                                        0501
A0101406590662044702001PTS TUTORIAL AND REVIEW SYSTEMS                          0501
A0101406590662044702001PTS TUTORIAL AND REVIEW SYSTEMS                          0501
B1301400210682012687001DJ PARADISE RESORT, INC.                                 1610
A1301400340683478374058RUBIO, YUME ADANTE                                       0501
A1301400500000001412424PAULA NEA M. DE VERA                                     0501
B1301400500000002063941GIANT LUMBER & HARDWARE CO.                              1602
A1701400230693095574001GUZON, BENJAMIN ALEJO OR GUZON,                         10503
A1701400230693095574001MARIA CORAZON CHUA                                      20500
A0101408240711323526001SHIRLEY A. MANESE OR MARIA                              10501
A0101408240711323526001ELENA M. ISAAC                                          20500
A0101408240711384215003LOURDES GRACE MAPALAD                                    0501
A0101408240000002331237AURELIO, LILIA PADERNA                                   0503
A0101408240711511389001ESCOTE, SHERYLLIN SILO OR                               10501
A0101408240711511389001ESCOTE, ACE ANTHONY                                     20500
B2801400100712036235001MS-JC INT'L. LOGISTICS INC.                              1602
B2801400230000000372729KRJ TRADING                                              1601
B4101400390813019416002STI COLLEGE-ROSARIO, CAVITE, INC.                        1602
A0101412340000003340627MELANIE ISABEL N. ALLERA                                 0501
A0101412340000003719631HAZEL M. TORRES                                          0501
B0101404840851013980002VIC IMPERIAL APPLIANCE CORP.                             1601
A0101404840000003069878RICAROS, FIDELA C.                                       0501
A0101404840851520122001TAYAWA, PERPETUA CARPENA                                 0501
A0101404840851520766161HELEN S. CARNECER                                        0501
B0101406750852039992088MERCURY ACE TRADING                                      1601
