A0101412630000000852346PERALTA, MARILYN CASTANEDA                               0503
A2401400180411609791001*********                                                0505
A0101414090000001652331ABIERA, GABRIEL PHILLIPE AMURAO                          0505
A0101407270000004832651MARY ANNE S. STA. ANA                                    0501
A0101412890000009833554AMIDO, ANNA LIZA GUEVARA                                 0502
B0101403580511067513001CYBERAGE CONSTRUCTION CORP.                              1603
A0101403580511420184003MARIA CAROLINA S. MACASAET                               0525
A0101401250021453364001TORREJOS, ALFREDO OR                                    10502
A0101401250021453364001RYAN ALVIN OR CARMEN                                    20500
A0101400150000003218420JOANNE G. TOPACIO                                        0502
A0101400150061226158001LUCY Y. DY OR                                           10501
A0101400150061226158001ANASTASIA Y. DY                                         20500
A0101400150061226877001TRADEL, LIBERTY M.                                       0502
A0101400150061232020052GO, ROBERT U.                                            0501
A0101400150061368976001GRACE R. ABESAMIS &/OR                                  10501
A0101400150061368976001ROBERT GLEN R. A                                        20500
A0101400150061618555001GALANG III, EMILIO FEDERICO CAL                          0501
B0101400600071011311001*****                                                    1601
A0101405810072334553004**********                                               0502
A0101405810072359000003MATEO, JOYLEEN CASTILLO                                  0502
A0101405810072521040001***************                                          0501
A0101405810072544534001PORNELOS, RAUL REYES                                     0502
A0601400520000001706792BUNGQUE, ALDRIN CAPILI                                   0501
A0601400520000009516890TFP TRADING & CONSTRUCTION                              10502
A0601400520000009516890SUPPLY                                                  20500
A0101414090108067349001ORALDENT DENTAL CENTER                                   0501
A0101401960000004419830**********                                               0501
A0101401960121461565001PO, JOY ALEXIS TAN                                       0501
A0101412630000004062064BANZUELA, ELEANOR ADORNA                                 0501
A0101413310000001073858PICART, ROSEMARIE LIM                                    0501
A0101413310000004626802MATEO, MARIZA MARTIN DBU MMMDC                          10502
A0101413310000004626802GRAPHICS & PRINTING SERVI                               20500
B0101413310133821200608**********                                               2001
B7201400170000003773240WEE, PATRICK TOE                                         1601
A7201400170000003773375PAQUIT, RODELY SUMONDONG                                10503
A7201400170000003773375OR PAQUIT, DENNIS BATION                                20500
A0101407270000002334721MOPER ANGELICA P. PAPA                                   0502
A0101401090171061610001VESTRA MARKETING                                         0502
A0301400530000005691170AMING, MERIAM OCAMPO                                     0501
A0301400530000010370593MABANGLO, ARTHUR GOROSPE                                 0502
A0301400660000006862873DEQUITO, CITZY VENTOR                                    0502
B0301400660000003368490ARBICON, INC.                                            1602
A0301400790000011483880NORTE, MARIA ROSY DELA TRINIDAD                          0501
B0101410720653042569001TUGSON CONSTRUCTION & DEV. CORP.                         1605
B3101400160221063410001SUNFRUITIONS FOODS CORPORATION                           1603
A3101400160221218333001KATHERINE OR CARLOS SION                                 0503
B3101400740224024279002SPORTS MIX MARKETING CORPORATION                         1605
A3101400870000005410002CANASA, ISRAEL DACANAY                                   0502
A1001400350233520728001CARLOS BENEDICT A. TAN OR                               10502
A1001400350233520728001SONIA B. TAN                                            20500
A1001400350233559184001KHO, PACITA T. OR CORDERO,                              10501
A1001400350233559184001KORINA K.                                               20500
A1001400480000000041432BATO JR., LOPE LARANJO                                   0502
A1001400480000003357704BUDIONGAN, JOSE GUDMALIN                                 0502
B1901400290261041112001G&G MANPOWER & PROFESSIONAL SERVICES                     1602
A0101401670271356341002*****                                                    0505
B0101406460272021222001ORION WIRE & CABLE INC.                                  1602
B0101406620000009695123PLANET LUXURY, INC.                                      1602
A0101410980000000171895CASMIR A. QUERUBIN                                       0501
B2601400270302045063001ISABELA UNITED DOCTORS MEDICAL                          11620
B2601400270302045063001CENTER, INC.                                            21600
B0801400160311058407002MADISON HOTEL PHL                                        1601
B0801400160000001290011*************                                            1602
B0801400160311793743002XING KONG HOTEL VENTURES, INC.                           1601
A1101400120000000652813BONGOT, BEVERLY DURAN                                    0501
A1101400120000000652351YAO, RONALD PHILIP GO                                    0502
A1101400120000000652540VILLEGAS, MALCOLM JAMES P. OR                           10503
A1101400120000000652540VILLEGAS, ALVIN                                         20500
A6601400120314668441002MASLOC, SHERRY AMOR GALONO                               0501
B2001400290315064947001XTENSA INC.                                              1602
A0101402350321498650001********                                                 0501
A0101405650322424552001AGUIRRE, MARISSA LIM                                     0501
B0101402510341008056001CEU CONSUMERS COOPERATIVE, INC.                          1601
B0101402510341008474001CEU CONSUMERS COOPERATIVE                                1602
B0101402060351009376001AVC CHEMICAL CORPORATION                                 1605
B0201400920000000007996SUNPRIDE FOODS, INC.                                     1601
A0201401020000000056288SHEN, DINGHUA                                            0502
A0201401020000005250602CALOG, MARK KENNETH INTONG                               0502
A0101402930381283149001CARMELO A. ALFILER OR                                   10501
A0101402930381283149001CONCEPCION P. ALFILER                                   20500
A0101402770391535293001BAYOT, RICARDO GONZALES                                  0505
A0101405490000004353020MATUTE, HENRY ALEJANDRO                                  0501
B0101408400394020654001STATION SQUARE EAST COMMERCIAL CORP                      1605
B0101408400394032168001ALQUIROS FOOD CORPORATION                                1602
B0101408400394032168001ALQUIROS FOOD CORPORATION                                1602
B0101408400394032168001ALQUIROS FOOD CORPORATION                                1602
B0101408400000003120521GILIGAN'S ISLAND BAGUIO, INC.                            1602
B0101408400000003120554GILIGAN'S ISLAND BAGUIO, INC.                            1602
A0101408400000001981688REGALADO JR., ARTURO BENESISTO                           0503
A0101408400394159787001MANGIBIN, DELFIN OR ALTHEA                              10501
A0101408400394159787001MANGIBIN                                                20500
A0101408950000011298878NUGUID, ROMEO SALUD                                      0505
A0101409180397681135001UICHICO, ERNESTO FLORO                                   0501
A0301400820000001554912SAGARINO, MARIA CECILIA OR                              10501
A0301400820000001554912SAGARINO, JOSE JIMMY                                    20500
A1201400150000011167092RIEGO, ALMEO ANDRADA                                     0502
A0901400220000007072477**********                                               0501
A0101403030441240945001**********                                               0502
A0101412890000009833612FLORES, MA AISSA ONG                                     0502
A0101403320471068390001CHUA, JAN HENDRICK LEE DBU JAN                          10502
A0101403320471068390001HENDRICK FITNESS GYM                                    20500
B0101406330000000432682MAGAYON EMISSION TESTING CENTER, INC.                    1602
B0101406330000000162478JOSE JR.,IGNACIO/REGIO,ELISA/SAYOS,MA.CE                11602
B0101406330000000162478CILIA/MATRE,DANI                                        21600
A0101406330000004349593LILIBETH B. VITO                                         0501
A0501400170000000018215VILLANUEVA, ENRIQUE MEJIA                                0502
A3801400170000008068844SENO, IRENEO TECSON                                      0501
B1901400160491341189001VIRGINIA R VARGAS OR                                    11601
B1901400160491341189001RICHARD D LIM                                           21600
A1401400110492391345002R'S WINE CENTER                                          0502
B0101403580511027243001LAS CASAS DE CALA BUENA CORPORATION                      1602
A0101403580511691950001BALDE, CARMEL LYNNE MAGAT                                0501
A0101408530000002980512MENENDEZ, MA. PILAR URRA                                 0501
A0101408530516571877097JESUS R. LICUANAN                                        0501
A0101411790518055764300MEDINA, KARLA JEAN MARINAS                               0501
A0101412050000000367953HERNANDEZ, VITTA CARLA DAMES                             0501
B0101403450521011599001**********                                               1601
B0101403450521022302001**********                                               1602
A0101403450521238054001**********                                               0501
A0101403450521441986001**************                                           0520
B0101404130601035484001CARE BEST INTERNATIONAL SECURITY                        11604
B0101404130601035484001SERVICES, INC.                                          21600
A0101407720602378956001ROWELL, VERMEN V.                                        0505
A0101404260611150840001WILLY CHING OR ISIDORA CHING/                           10505
A0101404260611150840001GOLDSUN LUMBER                                          20500
A0101404260000006374252MENDOZA, DAISY LAPIDEZ                                   0501
A0101404260611480122001DAVID, ELIAS FALLARME                                    0501
A0101409890000000049089GEMSTAR CLEANING SUPPLIES                               10505
A0101409890000000049089INTERNATIONAL                                           20500
B0101409920650044950001EINSTEIN SCHOOL FOR KIDS, INC.                           1601
A0101407690000000025196CASTILLO, MANDRICK EDRA                                  0501
A0101407690652776010001HENDEVE, MARIA ROSSICA LOUIE                             0501
B0101406590662043490001CARMEL MKTG & TECHNOLOGY CORP.                           1603
B0101406590662045778001KAUNLARAN GROUP OF COMPANIES INC.                        1602
B1301400210682016750001JFL AGRI VENTURE SUPPLIES                                1604
A1301400340683501003001GO, LLOYD CHUA OR CHERYL B GO                            0502
A1301400340683542735002BIUNAS, REMEDIOS GREGORIO                                0502
A1701400230000005694200BAQUIRAN, EDWARD GANIRON                                 0502
A0101408240711386762001TUGADE, PAUL LOUIE OR JOSE                              10503
A0101408240711386762001ARTURO OR FININA                                        20500
A0101408240711488872002JOSEPH BRYAN P. DAVIDE OR                               10502
A0101408240711488872002FLORA MAY F. DAVIDE                                     20500
A4101400550000010508573DUCUSIN, MARGIE ORTEGA                                   0501
A0101412340000002900318******                                                   0502
B0101404840851018774001FIL-LABOR COMM'L & INDUSTRIAL CORP.                      1601
A0101404840851316655001VIRGILIO L. DE JESUS, JR.                                0502
A0101404840000000085129ESTELA A. BOCO                                           0501
A0101404840851692867001FERMIN, ALEX BALAIS                                      0502
A0101406750000002251412ADOLFO, MARIA CORAZON OLA                                0502
B0101406750852047491001STA. RITA 168 BUILDERS CORPORATION                       1605
B0101406750852068658001ESPIRITU, JOBELLE V DBU RAMPSTART E                      1601
A0101405070000006006177CELDRAN, JOHN CHARLES EDWARD P.                         10504
A0101405070000006006177DBU LA CRAZY NUN BOUTIQUE                               20500
A0101405070861197518001RICARDO G. CHAN OR                                      10505
A0101405070861197518001OLIMPIA C. CHAN                                         20500
A0101405070861198897002QUIZON, MARIE C.                                         0501
A0101405070861478374086MARLYN C. GABEST                                         0502
A0601400230000005185888LAUS, MONINA PALMA DBU LAUS                             10503
A0601400230000005185888MENS AND LADIES WORLD BOU                               20500
A0601400230891783317001BAQUING, FE OCAMPO                                       0501
