A0101403320000007495205MUNOZ, ADRIAN BOLEDO                                     0501
A0601400520000005943393MANGUERRA, CATHERINE ENRIQUEZ                           10501
A0601400520000005943393OR MANGUERRA, LARA                                      20500
A1001400190231478374041MARIVIC D. MARFORI                                       0501
A0101406750000004641678DIONISIO JR., ERNESTO NAPIZA DB                          0501
A0101400860000002333591******                                                   0502
A0101400860011426955001MACAVINTA, GERALDINE O. OR                              10510
A0101400860011426955001MACAVINTA JR., JUANITO                                  20500
A0101400860011514409001**********                                               0503
A0101400860011559271001**********                                               0505
A0101400860011663274001**********                                               0502
A0101400860011774698001**********                                               0505
A0101401250021688004001SENEN O. GOLI                                            0502
B0101400150061027783001CRESCENT MINING AND DEVELOPMENT                         11601
B0101400150061027783001CORP.                                                   21600
A0101400150061563463002VANZUELA, BEVER LIZA BRUCE                               0502
B0601400100081030352001LIVING STONE INTERNATIONAL SCHOOL INC.                   1605
A0601400100081032955001JENPREZ LAUNDRYNET                                       0501
A0101413730000005959762******************************                           0510
B0101413730000001568538******************************                           1610
A0101410850109053560002HERNANDEZ, JUNE JT DBU JUNE AND                         10502
A0101410850109053560002YVETTE TRUCKING                                         20500
A0101401830000005577973ICO, JOEL CATIMBANG                                      0502
A0101400440161027568001GARB CLOTHING COLLECTION                                 0504
A0101400440000000029423ROBINA P. OTAZA                                          0502
A0101400440000000821538MARITES T. JIMENEZ                                       0501
A0101400440161459294001MARY ANN T. REGINALDO                                    0502
A0101401090000007480415***                                                      0502
A0101401090171196210002LOPEZ, MA. CRISTINA OR                                  10502
A0101401090171196210002RAMOS, HUBERT                                           20500
A0101401090171202867001BALBIN, ROSEMARY BUSICO                                  0502
A0101401090171388800002ELIZABETH F. MANJARES                                    0501
A0101401090000001619012ROMMEL P. ROMANO OR MARIA                               10501
A0101401090000001619012MARGARITA M. ROMANO                                     20500
A0301400530000007345420PAGLINAWAN, KATHYHINA GADO                               0501
A0301400530193686503001CORPUZ, GLENN A.                                         0501
B0301400660000003361873C-ONE TRADING CORPORATION                                1604
A0101401380000000682731SERENIO, ANNA MARIE RAGAS                                0501
A0101413020000000056966MATERIALES, SHIRLEY RIVERO OR                           10503
A0101413020000000056966MATERIALES JR.,                                         20500
A0101412500000003289838AMARILA, ELMA BADAJOS                                    0502
B0101413600000000206879COOL TECHNICAL SYSTEMS MAINTENANCE                       1605
A3101400160000007520129DELA CRUZ, RONALDO MENDIOLA AND                         10501
A3101400160000007520129BONGAIS, EFREN ANDRADA                                  20500
A3101400160221478374062LANI R PEREZ                                             0501
A3101400450223588221001GATDULA, JAMAILA  OR AGONCILLO,                         10501
A3101400450223588221001JAYVEE OR JOSE                                          20500
B3101400740224821100608**********                                               2010
A3101400870225478374002BODORAYA, RUZIEL RAMOS                                   0501
A1301400760000005989782ALVIN D.G. SANTILLANA OR                                10501
A1301400760000005989782JOANN S. SILVERIO                                       20500
A0101401670271383413003*****                                                    0501
A0101401670271762634001TALABUCON, VANESSA GRACE BUAT                            0501
A0101408660274346120001SHI, FENG LIAN CHEN                                      0501
A0101408660274648585001* * * * * * * *                                          0501
A0101412470000002135962NG, STEVE HOI OR KUNG, SUSAN GO                          0501
A0101400570281020605001FIRST BORN SNACK CORNER                                  0502
B0101400570000005666402AUDIO AUTOMATION AUTHORITY INC.                          1602
A0101400570281186881001MA. ZENEIDA S. SANTAMARIA AND                           10503
A0101400570281186881001MA. VERONICA S. BOUHASHI                                20500
A0101400570281192586002LORINDA ANG OR JENNY JILL DY OR                         10502
A0101400570281192586002LINDSAY RITZ ANG                                        20500
A0101400570281366194002DR. DINA M. PERALTA OR                                  10502
A0101400570281366194002DR. FRANCISCO PERALTA                                   20500
A0101400570281371058001DR. SHERRIE ISABEL Q. DE OCAMPO                          0503
A0101400570281704593001SANTIAGO, AMIEL H. OR                                   10503
A0101400570281704593001ALCANTARA, MIA A                                        20500
B0101410430282821100608**********                                               2002
B0101410430282821200608**********                                               2001
A0501400200000005751599BALMEDIANO, MYRNA SOLIVEN OR                            10503
A0501400200000005751599BALMEDIANO, ISMA                                        20500
A0501400200000005751635PERDIDO JR., LEONARDO DIWATA OR                         10501
A0501400200000005751635FLORES, JOAN MAY PASTRANA                               20500
A0801400160311478374079MANUEL F. RAGANAS JR.                                    0502
A1101400120000003022511SABALLA, BELLA CORITANA DBU                             10501
A1101400120000003022511BKS JUNKSHOP                                            20500
A6601400120314630541002LIAD, ROSIE ORTIZ                                        0502
A2001400290000000978269UYMATIAO, CATHLEEN AMIL                                  0503
B0101402350000000046028IGOLD COMMUNICATIONS INC.                                1603
A0101402350321455174001CARVAJAL, DOROTHY S. OR                                 10501
A0101402350321455174001CARVAJAL, KIM APPLE S.                                  20500
B0101405650322043032001LEAN MANAGEMENT AND PEOPLE SOLUTION                      1601
A0101402510341395836001TAGUIBAO, CHRISTOBAL CADALIN                             0501
A0101402510341476842001SUSAN I. BALAGTAS OR                                    10501
A0101402510341476842001DELFIN G. BALAGTAS                                      20500
A0101409050352717261001MARIA KATRINA JESSICA M.                                10502
A0101409050352717261001GALLEGOS                                                20500
A0101409050352734686001LYNDON J. TABLANTE OR                                   10503
A0101409050352734686001KIMBERLY TABLANT                                        20500
B0201400760374038778001CPERC                                                    1602
A0201400760374478374015DACAYANA, ROSALIE SIBLA                                  0501
A0201400920375502567001CELESTINO "DINO" DURANO SYBICO                          10502
A0201400920375502567001III                                                     20500
B0201401020000005109933ACE LOGISTICS INC.                                       1605
A0101415350000005356889MARCELO, LEA D. OR GABINETE                             10502
A0101415350000005356889MARIE SUZZETTE Z.                                       20500
A0101415350000005308430GABINETE, MARIE SUZZETTE ZAPA                            0501
A0101415350000005028831DE CHAVEZ, M DBU MERDEC ENTERPR                          0502
A0101402770391211885001CAMERINO, MA. GEMMA SIMPELO                              0501
A0101402770391529757003WENYFREDA B. SY                                          0501
A0101402770391617226001FERNANDEZ, FE OR                                        10501
A0101402770391617226001FERNANDEZ, ETHELWOLDO                                   20500
A0101402770391756907001MAKAYAN JR., CONRADO ADORNA                              0502
A0101405490000005566407INOCENCIO, SHARIE LUCES                                  0501
A0101405490392375066001LEE, CHUL WOO                                            0502
A0101408400000005286466MARGARITO PLANTS AND                                    10501
A0101408400000005286466FLOWER SHOP                                             20500
B0101408400394027524001SAINT JO FLORAL DESIGNS & DECORS                         1602
A0101408400394164395001YBIERNAS, MARICHU PALOMA                                 0501
A0101408400394526097001MANALILI, LIZ GRACE ABILA OR                            10502
A0101408400394526097001MANALILI, CRIS V                                        20500
A0101408950396501550002ANDREW POBLETE                                           0501
A0101409210000002802735COLORADA, SHEILA ANDRES                                  0501
A0101409210000002802735COLORADA, SHEILA ANDRES                                  0501
A0301400820000003148467GALEOS JR., JUAN PANERIO                                 0501
A2401400180000002146185SUICO, RENATO PADAL                                      0502
A2401400180411290049001EDGAR C. FAUNI                                           0503
A2401400180411478374020MORI, LYDIA                                              0502
A2401400180411478374035MERLINDA D. TAMUDTAMUD                                   0501
A2401400180411487765001KING, JACKSON OR KING, IRENE OR                         10502
A2401400180411487765001KING, JOHANNA                                           20500
A2401400180000000428051EGOS JR., JEMMERITO CASANA                               0502
A1201400150000001863301TAN, DARWIN ANG                                          0502
A0901400220000002300845LIM, RENEEROSE VESAGAS                                   0501
B0901400220432043565001CASA CANELAR PENSION                                     1602
A0901400220432079352001ONG, LIONEL ROY ZAPANTA                                  0502
A0901400220000000012299GAYON, MARINA TACHADO                                    0502
A0101403320000001646602PERALTA, MARITES FARINAS                                 0501
A0101403320000001803203ARROJADO, ARTURO CARTUJANO                               0501
A0101403320471205827001JOWIN TRINIDAD OR                                       10501
A0101403320471205827001MARISSA TRINIDAD                                        20500
A0101406330000001235136ROBELO, IRMA MOYA                                        0501
A0101406330472296884001JAYLEE TRADING                                           0502
A0101406330472478374043ROLLY A. MALLARI                                         0501
A0101406330472691386001EDILBERT HOMO GERONIMO                                   0502
A0501400170000000018306LLAMAS, ULDARICO MARTINEZ                                0501
B0501400170481018109002****                                                     1605
B0501400170481038907001JODERON AUTO SUPPLY                                      1605
B1401400110492036888008CHRIS MARR MARKETING, INC                                1606
A1401400110492041611001BLUECLICKER COMPUTER CENTER                              0505
A1401400110000003025214BLUE HIGH POINT TRADING                                  0504
A1401400110492543613001AVELLANO, BEVERLY MARTINEZ                               0501
A1601400170000000497423MENCHU R. BUADO                                          0501
B0101407430503023639001LAMBERT WILLIAMS LOGISTICS, INC.                         1610
A0101407430503185438005LETICIA D. JIMENEZ                                       0502
A0101407430503736499001CECILIA R. NALAUNAN                                      0501
A0101405940512746092001BELLO, JANET RANILE                                      0501
A0101408530000000489743BARRIE BRADLEY                                           0501
A0101408530000004647996MANUEL, JUAN CARLOS OTEYSA                               0501
A0101411790518055764037ASTORGA, REYDEL GARSAIN                                  0501
A0101411790518055764190LASANGUE, MARIE KRISTINE                                10501
A0101411790518055764190JASARENO                                                20500
A0101403450000007072568PEDRAZA, ELIZABETH MACARAIG                              0501
A0101403450000001638097**********                                               0501
A0101403450521238239001*********                                                0501
A0101403450521563148001**********                                               0501
A0101404000000005039903KIM, SEUNG WOOK                                          0502
A2201400250000004916092DE GUZMAN, FRANCES MANIALONG                             0501
B0101404130601045483001NORTHSTAR TECHNOLOGIES INDUSTRIAL                       11602
B0101404130601045483001CORP.                                                   21600
A0101407720602396823001DR. RAQUEL M. ALVAREZ                                    0503
A0101412180000000501493MANLONGAT, MA THERESA DIZON                              0501
B0101404260611035660001BETERAVIA CREDIT CORPORATION                             1603
A0101404260611366377001MAGSUMBOL, RISSA REYES                                   0501
A0101404260000001725213CRUZ, CAROL ANN VINLUAN                                  0502
A0101404260611478374075VIVENCIA HATOL                                           0501
A0101409920000002260431CANTOR, RACHELLE LUNA                                    0502
A0101413440000000570358**********                                               0503
A0101413440000001472873BANARES, EMILIA CHUA                                     0501
A0101413570000005435150AYODELE RAPHEAL JOLOMI                                   0501
A0101413570000001720132ALLIE V. AGUSTIN                                         0501
A0101413570656057648027PHILIP Z. ATANACIO                                       0501
A0101413570656057648108MANUEL D. DOMINGO JR.                                    0501
A0101413570656057648190JENNYMAR A. ORNEDO                                       0501
A0101413990000006768581NEBRIA, ESTER P. DBU BUTTER-NUT                         10503
A0101413990000006768581BAKESHOP                                                20500
A0101414120000003190890CRISTE, RODELLA VILLAFLOR                                0501
B0101414120000000399195SAMAHAN NG MGA MARALITA SA SITIO                        11601
B0101414120000000399195MABILOG, INC.                                           21600
B0101414120000001984165UNITED ACHIEVER ASSESSMENT & TRAINING                   11601
B0101414120000001984165CENTER INC.                                             21600
A0101406590000000568747ENDRIGA SR., VICTOR BERMEJO                              0501
A1301400210000000540936JOCELYN S APOSTOL                                        0501
A1301400210000005040624MAGIN, RASPBERRY MANZANO                                 0501
B1301400210000005040920SENORA CARMEN RESTO GARDEN                               1620
A1301400340683361105001DELA CRUZ, ESTER SANTIAGO                                0502
A1301400340683361124002BUENAVENTURA, MYLINE SORIANO                             0502
A1301400340683361153001LICAROS JR, ALEJANDRO LAGPAO OR                         10502
A1301400340683361153001LICAROS, ELSA R.                                        20500
A0101408240711219571001MERCEDES M. OLIVER                                       0502
A4101400260812032880001WE'LL CARE BUILDER &                                    10503
A4101400260812032880001CONSULTANCY SERVICES                                    20500
A4101400260812444997002MARY ANN SAN DIEGO OR                                   10503
A4101400260812444997002ANTONIO SAN DIEGO                                       20500
A4101400390813248327001SARIEGO, DANILO BAGONA                                   0501
A4101400550000001332592RASE, ARNALDO ROBIS                                      0502
A4101400550000002344145FUENTES, NAZARENA DOMINO                                 0502
A0101404840000002327868SORREDA, ERIKA ROMA MALABANAN                            0502
A0101404840851410953059OFREDO C. EYOYO                                          0502
A0101406750000000500198CRUZ, MARIE JENNIFER ORENDAIN                            0501
A0101406750852786134001MONTON, ROMEL MARIVELES                                  0501
B0601400230000003016013CUBACUB, MARY ROSE BASILIO                               1601
A0601400230000005510229PONCE, LOURDES TANJUTCO                                  0502
