B0101408950396821100608**********                                               2005
A0101411790518055815116RIC ALIMAN ROSANTO                                       0501
A0101400570281324938001RICARDO PATROCINIO OR                                   10501
A0101400570281324938001JENNIFER PATROCI                                        20500
A0101405650322759155001RABELAS, MA. VELMA DINO                                  0502
A0101408400394478374057EVELYN M. BONGAT                                         0503
 0101409210000005251923                                                           00
B0101409210398042656001FIELD OUTSOURCE ASIA, INC.                               1606
B0101401250021040371001ENHANCE CARGO MOVERS CORP.                               1608
A0101401250000004980532MACOCO, CRISTOPHER MAGBANUA DBU                         10501
A0101401250000004980532CMM ACCOUNTING SERVICES                                 20500
B0101400150000000052720SOUTHKEY DEVELOPMENT CORP.                               1610
A0101400150000003157942CRIS DAVID MIRADOR                                       0502
B0101400150061010780001REXOR & COMPANY, INC.                                    1605
B0101400150061030876001JP GUILDS, INC.                                          1603
B0101400150000001708538ESQUIRE FINANCING INC                                    1605
A0101400150061229814002LEONCIO C. LIM                                           0501
A0101400150061369552001ROMEO TONGOL OR                                         10504
A0101400150061369552001FLORDELIZA TONGO                                        20500
A0101400150061392265002WARNER, CAROL PEREYRA OR                                10502
A0101400150061392265002RONALD WARNER                                           20500
A0101400600071426579001**************                                           0501
B0601400100081296256001CHRISTOPHER OR LOYA MALLARI FAO CHRISSAN                11603
B0601400100081296256001AUTO SUPPLY                                             21600
A0601400520000001120385BANAG, ESMERALDO PINEDA                                  0501
A0601400520000005943513BUCO, DONALD DELA PENA                                   0502
A0101413280000000312643CARLOS R. ATAYDE OR                                     10501
A0101413280000000312643CARMEN M. ATAYDE                                        20500
A0101413280000005084862TORRES, ROBERT JASON LIWANAG                             0501
A0101413280092055822001CHERLYN ANN SO DBU C.A.S                                10501
A0101413280092055822001PROPERTY MANAGEM                                        20500
B0101413280000000041921GREENHILLS HEIGHTS CONDO ASSOCIATION,                   11602
B0101413280000000041921INC.                                                    21600
A0101410850000006559897RAYOS, A DBU CAMRAY BUILDERS &                          10503
A0101410850000006559897TRADING                                                 20500
A0101410850109064349001CAPILI, CHRISTOPHER DBU SUPER                           10503
A0101410850109064349001SEVEN TRADING                                           20500
B0101410850109821100608**********                                               2003
A0101400730111047618004RONALDO BAARDE PRADO                                     0502
A0101412630000000044755HUAB, PETER JAMES MACARAIG                               0502
A0101412630000000801483CABANES, JEANNE BETH LABASAN                             0502
B0101412630000002186369ARTBUILDERS CONSTRUCTION AND                            11605
B0101412630000002186369MANAGEMENT, INC.                                        21600
A0101400440161186940001MARILOU I. DIVINA                                        0506
A0101400440161478374141GENILA J. TORCENDE                                       0501
A0101400440161520766193LEILANIE P. LOCSIN                                       0501
A0101400440161525001131RIA B. IBANEZ                                            0501
B0101407270162034609001PRIDELANDS REALTY AND DEVELOPMENT C                      1601
A0101401090000009572001CORDEL F. TRINCHERA                                      0501
A0101401090171369758001MARY VIVIEN MADELO OR ANASTACIA                         10503
A0101401090171369758001RICO OR RICHARD FRANCIA                                 20500
A0301400660194721952088TAN SR.,JAIME OR TAN, VICTORIA                           0510
A0101401380201618189001CINCO, ROSA OR LAM, LAURENCE                             0505
B0101412500000000041738ABBU,SANTAMARIA,ESTONIDO & ASSOCIATES                   11602
B0101412500000000041738DESIGN GROUP                                            21600
A3101400450000005355471CIGARAL, PEDRITO EXCONDE                                 0502
A3001400130000001261249BANJAO, JENELYN LARA                                     0501
A3001400130230478374240OPENA, CHARI C.                                          0501
A1001400190231520766117TAROY, MARIONNE ANGELOU SALEM                            0501
A1001400350000000922014PEARSON, PILARCITA ROA                                   0502
A1001400350233528399003KO, JOSE NELSON AND                                     10502
A1001400350233528399003KO, CHARMAINE                                           20500
B0101406620273025877001EASTBAY PROPERTY & DEVELOPMENT, INC                      1603
A0101406620273358539001MARIA TERESA L. JAHRLING OR                             10501
A0101406620273358539001ANGELO JAHRLING                                         20500
A0101410980000005709582PASAGUI, RYAN REY LIM                                    0502
B0101412470000000026764MA ASUNCION REYES AND JUAN ENRIQUEZ AND                 11601
B0101412470000000026764IGNACIO ENRIQUEZ                                        21600
A0101400570281186617001DR. SALLY RACHEL T. MACAPAGAL                            0503
A0101400570281388539054MARIA TERESA T. RODRIGUEZ                                0502
A0101411240000002332496LAWAN, CARINA CRISOLOGO                                  0501
A2601400270302478374002ESEM A. GALIZA                                           0501
B0801400160000005656915JD AGRO PROJECTS INCORPORATED                            1602
A0801400160311478374093AMELIA H. TAYCO                                          0501
A1101400120000001547520TAN, MELVIN NATHANIEL ANDRADE                            0502
A1101400120000003022384ELCARTE, ERNA GONZAGA                                    0501
A1101400120000006186616GALO, TERESITA ECLE                                      0501
A0101409050000006171273MICHELLE R. UMALI                                        0502
A0201400760000005156474GESALEM, JONATHAN DBU LINCOLN T                          0505
B0201400760000005156474GESALEM, JONATHAN DBU LINCOLN                           11605
B0201400760000005156474TRADING                                                 21600
B0201400890376059709001CUCINA MOBILI CEBU, INC.                                 1601
A0201400890376080642001GALANG, LORLIE PACURIBOT OR                             10505
A0201400890376080642001GALANG, GLENN AN                                        20500
A0201400890376192121001TORRES, GIL FERDINAND ABELLO                             0502
A0101408370000000335511MONTEROZO, MERLYN RIVERA                                 0502
A0101408370000003775031SARMIENTO, AUGUSTO OR SARMIENTO                         10501
A0101408370000003775031DOLORES ELIZABETH S.                                    20500
A0101408370382795237001DR. LUIGI PIERRE S. SEGUNDO                              0501
A0101402770391214496001FRANCISCO KUAN WONG OR                                  10505
A0101402770391214496001JOYAL KUAN WONG                                         20500
B0101408400394032168001ALQUIROS FOOD CORPORATION                                1602
A0101408400394160344001CALMA, ALFREDO MATAGA                                    0506
A0101408950396166135001ERIC P. HERNANDEZ OR                                    10506
A0101408950396166135001MARIANNE P. HERN                                        20500
A0101408950396278592001DR. ERIC P. HERNANDEZ OR                                10506
A0101408950396278592001DR. MARIANNE P.                                         20500
A0101408950000005325855MALIWAT, EVALISA DYQUIANGCO                              0502
A0101409180000004375166ALEJANDRO, ROMULUS S.                                    0501
B0101409210000000031238******                                                   1620
A0101412210000005302812QUEVENCO, MIRIAM CECILIA                                10502
A0101412210000005302812MAGBANUA                                                20500
B0301400820000008105553GERONIMO, ALLAN A. AND LADRA, BRENDA A.                  1603
A5501400120000002019023PINGOY, ALBERT YUSAY                                     0504
B2401400180411021162001TBB & SONS MARKETING                                     1605
B2401400180411030534001GENSAN-PRIMAL AUTO PARTS                                 1605
B2401400180411040003003BRIGADA MASS MEDIA CORPORATION                           1605
A2401400180000001676913***********                                              0501
A2401400180000000073469TAPUZ, JOSEFINO TORCUATOR                                0501
A0101403320000000735762LORENZO RENAN E. TORRES                                  0501
A0101403320000001803010LORENZO, DANIEL JUN ABULENCIA                            0502
A0101403320000000522176ALCANTARA, RAEZA LUMBAG                                  0505
A0101403320000000067463ZEPEDA, ABYGAIL ALIERMO                                  0501
A0101406330000000162490TARP INK ENTERPRISES                                     0502
A0101406330472513598001JOSEPH T. MAMUAD OR                                     10501
A0101406330472513598001MARY AUBREY R. MAMUAD                                   20500
A0101412760000007822111TIEMPO, ROY MAUREAL                                      0501
B1901400160491026197001OMEGA MANPOWER MANAGEMENT CORP.                          1610
A1401400110000008266193SAMIJON, M DBU SAMIJON AGRI AND                          0501
A0701400260495064850001GAITE, NEIL BALLESTEROS DBU                             10501
A0701400260495064850001GAITE SERVICE STATION                                   20500
A0101407430000000359513PAUL MICHAEL R. PALUERO                                  0501
B0101407430000000035270TURPS AND TUCKER INTERNATIONAL CORP.                     1601
A0101407430503736499001CECILIA R. NALAUNAN                                      0501
A0101403580511420184003MARIA CAROLINA S. MACASAET                               0515
A0101405940512666891001ADAN, RONALDO PALENCIA                                   0502
B0101408110515017881001GROUP MANAGEMENT CORPORATION                             1603
A0101408110515036233001HARE 17TH TRADING                                        0503
B0101408530000007318034DICE205 CO.                                              1602
B0101411400000004555799BF CORPORATION                                           1601
B0101411400000001280648THE MANNA CUISINE CORPORATION                            1601
A0101411790518055764137ESTRADA, MARK TWAIN MENDOZA                              0501
B0101403450521017837001**********                                               1601
A0101403610531219647001ISLAN, MYLENE AWAYAN                                     0501
A2201400250561478374066MARY ROSE C. ALFONSO                                    10501
A2201400250561478374066MEMBERS OF NATASHA                                      20500
B0101410690000001284208BIGBELL INTERPHIL CORPORATION                            1601
B0101407720602035999001GALLANTRY SECURITY & INVESTIGATION                       1605
A0101407720602480488001GERALDINE MAJELLA L. JURILLA MD                          0501
A0101404260611150837001EMILIANO OR MARIETTA REYES                               0502
A0101404260611335308002ALIMBOYONG, JOSEPHINE MAHINAY                            0503
A0101404260611337876002CHING, ROSA MATIAS                                       0503
A0101409920000007304867CALUMINGA, THELMA RAMOS                                  0501
A0101413990000000205898**********                                               0501
A0101413990000006768638***                                                      0501
A0101406590662036406001RODRIGUEZ, RACHEL DBU RED                               10503
A0101406590662036406001ROASTER GOURMET                                         20500
B0101406590000003007314SINAG CONSULTANCY GROUP INC.                             1610
A1301400210000000540936JOCELYN S APOSTOL                                        0501
B1701400230693034429001LAOAG SOLID 8 DISTRIBUTION SERVICES                      1601
A0101408240000007478091MURCIA, CHARISSE MAY ALCANTARA                           0501
A0101408240711219571001MERCEDES M. OLIVER                                       0502
A0101408240711375826001QUIAMBAO, AKIHITO GUSTAVOS REYE                          0502
A0101408240711396310001LESTER C. VICTORIA OR                                   10502
A0101408240711396310001GIL JOSE E. PULU                                        20500
A4101400260000006043181BUNGHANOY, AVITA SOLINGUHAY                              0501
A4101400260812478374055ARLENITA E. MORALITA                                     0501
A4101400390000000048611JARANILLA - DE JESUS, RIZALIE A                          0503
A4101400390000003389491MALAJITO, ERLINDA SERRANO                                0501
A4101400420000000121024REGACHO, REYNALDO GALARITA OR                           10501
A4101400420000000121024REGACHO, SONIA S                                        20500
A4101400420814305214001ONG, CRISTINA SANTARIN                                   0501
A4101400420814422280001DELGADO, ELVIRA CARIENENA                                0502
A4101400420814478374102MALIBIRAN, MARLYN M.                                     0502
A4101400420814478374196DINO, LUZVIMINDA                                         0501
A4101400420814520766045BOCO, ADELA G.                                           0501
A4101400420814520766138SAN PEDRO, ANA LIZA                                      0501
A4101400420814572265006JOCELYN M. TWANO                                         0502
A4101400420814710353001GRANADA, MILDRED SISON                                   0502
A4101400420814768923001VIRTUZ, SALVADOR ABAQUITA OR                            10502
A4101400420814768923001VIRTUZ, REBECCA                                         20500
A4101400550000004846824PANGAN, S DBU SDP REALTY                                 0503
A0101404840000003069981ATIENZA, SHIRLEY                                         0501
A0101404840851520766067JOSEPHINE V. GABAYERON                                   0501
B0101406750000000090708GLOBAL ACCESS FINANCIAL SERVICES, INC.                   1606
A0101406750852656672001FELIX, ROMEL GANZON                                      0505
A0101405070000003439683PANINGBATAN, MARIA APRIL L DBU                          10501
A0101405070000003439683MAKI BELA TRUCKING SERVIC                               20500
A0101405070861478374073ROSARIO V. PARRENO                                       0502
A0601400230000005185833DUMAN-AG, MERCEDES MANUEL                                0501
