A0101406750852182559001*****                                                    0510
A0101400440161520766101FE M. GLODO                                              0501
A0101400440161525001183JUANITO P. LUSTERIO                                      0501
B0101405650322038688002LANDCO/ALC                                               1605
A0101412760000002067574CABREZA, EUGENE CUARESMA DBU                            10501
A0101412760000002067574REXELINE ENTERPR                                        20500
A0101412050000001499669NOVEDA, RODRIGO GAPASIN                                  0501
A0101412050000008837141SANTOS, ROMMELITO DE JOSE DBU                           10501
A0101412050000008837141ROMSANAIRE TRADING                                      20500
A0101400860011401071002**********                                               0502
A0101400860011442261001**********                                               0504
A0101400860011496074002**********                                               0501
A0101400860011520168001********                                                 0505
A0101400860011552522001**********                                               0505
A0101400860011568203001**********                                               0505
A0101401250000007390243ONSTYLE PHOTOGRAPHY                                      0505
A0101400150000002902752FISCHER, JANICE TUMAMBING                                0501
B0101400150061010838003INFORMATICS COMPUTER INSTITUTE, INC                      1605
B0101400150061026727001MALAYAN TOWAGE & SALVAGE CORPORATION                     1602
A0101400150061228996001MELANIE A. MARCOS                                        0501
A0101400150061492948001PORCEL, HAROLD PRADO                                     0501
B0101400600071234351001**********                                               1603
A0101400600071234351008*******                                                  0501
A0601400100000006092639ARRIBE, BAZIL CHRISTIAN OR                              10501
A0601400100000006092639ARRIBE, CHARMIE DUNGCA                                  20500
A0601400100081615537001BAIS, LEONOR RIVERA                                      0503
A0601400360000008460195BERNARTE, MINETTE MANIAUL                                0501
A0601400520000005943440ENGCO, LEAH DOMINGO OR ENGCO,                           10502
A0601400520000005943440GREGORIO SUAYAN                                         20500
B0601400520000001349719MAGTOTO, KELVIN DBU CALULUT CONVENIENCE                 11605
B0601400520000001349719STORE                                                   21600
A0101413280000005084828MELITA M. ARANEZ OR                                     10503
A0101413280000005084828ARIANNE MARIELLE                                        20500
A0101413730000002289483ONG, HOSANNA TENG                                        0501
B0101406040112033244001PATIO VICTORIA CORPORATION                               1603
A0101401960121238669001**********                                               0503
A0101412630000009425407MANUEL C. BALDEO JR. AS SEC APP                          0510
B0101401830141028161001EXTERMICON GENERAL SERVICES, INC.                        1603
B0101401830000000033569CARITAS SALVE CREDIT COOPERATIVE                        11605
B0101401830000000033569(CALOOCAN)-001                                          21600
B0101401830000000033605CARITAS SALVE CREDIT COOPERATIVE                        11605
B0101401830000000033605(QUIAPO-005)                                            21600
B0101401830000001282279AISHEEN TRADERS INC                                      1602
B0101400440000002846575COMMANDER SECURITY SERVICES, INC.                        1620
B0101400440000000337791TOPCOM SECURITY AGENCY INC.                              1610
B0101400440000003766887STARCOM MANPOWER AND ALLIED SERVICE                      1605
B0101400440000003766887STARCOM MANPOWER AND ALLIED SERVICE                      1605
A0101400440161525001139JEMARIE S. SALUDAR                                       0501
A0101400440161525001174RIZALYN V. GUNTANG                                       0505
A0101407270162696578002AIRLIA LIMPANGAN                                         0502
A0101401090000005221367LIU, MA. IRENE DELA CRUZ                                 0501
A0101401090171195155001MA. AUXILIADORA R. REBURIANO                             0501
A0101401090171196112001DARIO T. GARCIA                                         10501
A0101401090171196112001OR ELSINOR GARCI                                        20500
A0101401090171198420002GIL A. CAUYAN                                            0501
A0101401090171200776003ALLAN DE BELEN DE GUZMAN                                 0501
B0301400530000003573528RD PAWNSHOP, INC.                                        1605
A0301400530000010370662BENEMERITO, MARIA CLAMUCHA                               0505
A0301400660000006862731**********                                               0510
B0301400660000006755122**********                                               1602
A0301400790000000435881CHU, ROMEL S OR TAN, CHARLIE S                          10503
A0301400790000000435881OR HU SU, CHING YI                                      20500
B0101401380201034271004LC BUILDERS AND DEVELOPERS, INC.                         1604
A0101410720000002283996RANOLA, RONN MARLOWE CABILLON                            0501
B3101400160221224862001JOYME ROCKSCAPES CORPORATION                             1602
A3101400450223352819001FARAON, RIZALINA OR                                     10502
A3101400450223352819001BELEN, RHODORA                                          20500
A3101400450223588221002GATDULA, JAMAILA AGONCILLO OR                           10501
A3101400450223588221002AGONCILLO, SUSAN                                        20500
A3101400870000000957666MARASIGAN, JAMES ILAGAN                                  0502
A1001400190231478374090HOY, MINELLYN J.                                         0501
A1001400190231520766106MATURAN, EUMEDE JUAREZ                                   0501
A1001400480000003357748DEDEL, PATRICK JUNE YEMA                                 0501
A1301400470252569987001MACTAL, ANGELITO VALENTIN                                0501
A1301400760000004522592KRISTOFFER ROMEO E. GATDULA OR                          10502
A1301400760000004522592SANDRA D. GATDUL                                        20500
A1901400290261298552022ALVIN DEL ROSARIO MAGNAYE                                0502
A1901400290261356002001MARICEL REJANO LUCERO                                    0501
A0101406460000000021763***************                                          0501
A0101408660274519407002ZIALCITA, MA. CRISTINA B.    JT                          0501
A0101410980000002986987YEUNG, MARIBETH PO                                       0502
B0101410980000006014551VENTURA, FATIMA DOMINIQUE CERVANTES                      1601
B0101411820000003085141HARDCOM COMPUTER SYSTEM CO.                              1601
A0101411240000001563322CHUA, MARIVIC CHING                                      0503
B0101411240283046151001DISTINCTION LAMPS AND FURNITURE, INC.                    1601
A2601400270000007951177RAYMOND RUEL D. VALLE                                    0501
B2601400270302046854001H.A. DULDULAO & CO., INC.                                1602
A0801400160311478374103MERLINDA GUARDAMANO INAYAN                               0501
A3401400280318478374002PIONELO, LENIDIE DEVELOS                                 0501
B0101402350321020540001UMEREZ PROPERTIES                                        1603
B0101402350321031479001MED OPTIONS MULTI SPECIALTY CLINIC                       1602
A0101402350321180119001SHERENA O. PARUCHA OR                                   10501
A0101402350321180119001VIRGILIO B. PARU                                        20500
A0101402350321463175001CRISANTO P. MALONZO                                      0501
A0101402350000005645172GARCIA, ELFLEDA MENDOZA                                  0502
A0101405650000000348721GANA, TERESITA V. OR                                    10505
A0101405650000000348721GANA, JOSE MARIA                                        20500
A0101405650000006893721BAGATSING, GRACE ABIGAIL CUSTOD                          0501
B0101405650322025100001GLOBAL PACKAGING SYSTEMS AND MATERIALS                  11601
B0101405650322025100001CORP.                                                   21600
B0101405650000000013003CARISSA PROPERTIES SPECIALIST, INC.                      1605
A0101402510000005211129GENORGA, MERCEDES OCAMPO                                 0520
B0101409050352212676001LIAMZON, MA. ANTONIA/FRANCISCO/FRANCIS                  11601
B0101409050352212676001KEVIN/CATHERINE                                         21600
A0101409050000009981151FLORENTINO, ROWENA DE LEON                               0502
B0201400760374033207001W.T. CONSTRUCTION, INC.                                  1606
B0201400760000001612948LMDC CORP.                                               1605
A0201400890376522560001SU, SEYMOUR UY                                           0501
B0101402930381010731001********                                                 1601
B0101402930000005645894CE INTERNATIONAL DISEGNO INC                             1602
A0101402930381331314001JESUS C. SORIANO OR                                     10501
A0101402930381331314001MA. SALLY MAY D.                                        20500
A0101408370000005220006VILLANUEVA, ANNALIZA PEREZ                               0501
A0101408370000000335584DR. MARIA KAISERIN J.                                   10501
A0101408370000000335584SANTOS-LIPANA                                           20500
B0101408790383039290001AUTO SOURCES INC.                                        1605
A0101411660000000489345ACIERTO, MARY GRACE MOJICA                               0501
A0101415350000007878071GALENDEZ, MICHAEL TUAZON                                 0502
A0101405490392034138001MCMAR & MARY ELECTRICAL                                 10502
A0101405490392034138001& CONSTRUCTION S                                        20500
A0101405490000001092693JOVELYN V. LUCENO                                        0501
B0101408400394034368001W HYDROCOLLOIDS, INC.                                    1604
A0101408400394365559001LEDESMA, ROY C OR                                       10501
A0101408400394365559001LEDESMA, KATHLEE                                        20500
A0101408400394365559002LEDESMA, ROY CABAGAY                                     0501
A0101408400394412594001DE VILLA, ARRIEL DE ROXAS                                0502
A0101408400394431804002CATABIAN, RACHEL CACHUELA OR                            10503
A0101408400394431804002CATABIAN, RICO                                          20500
A0101408400394473872001ARCA, ROWENA LUGTU  OR                                  10502
A0101408400394473872001ARCA, EMMANUEL D                                        20500
A0101408400394478374022CORNELIO, REY OR CORNELIO,                              10501
A0101408400394478374022ROSALIE                                                 20500
A0101408400394669904001LAUD, GIZELLE VILLANUEVA                                 0501
A0101408950000000776570GRAGEDA, CHRISTOPHER JAVIER                              0502
A0101408950000011055740LORELEI L. VEA                                           0501
A0101409180000004409790SARMIENTO, KRISTINE MADRIGAL                             0501
A0101409180000004409858BARRIOS II, MARTIN DE VEGA                               0502
B0101409180397042779002***                                                      1603
A0101409180397621225001GAQUIT, ANNA LIZA BELTRAN                                0501
A0101409180397669394001HERNANDEZ, ADITHA OR                                    10501
A0101409180397669394001HERNANDEZ, CESAR                                        20500
A0101409210000005251923TRIAS, AGNES DE JESUS                                    0502
A0101409210398436507001FERNANDO M. AMADOR OR                                   10501
A0101409210398436507001JANICE F. AMADOR                                        20500
A0101409210398519633001ROSALES, MARIEL CABRERA                                  0501
A0101409210398689832001SALUD JR., LEODEGARIO HOCBO                              0501
A0101409210398704236001PAU, MARIA CARMELA                                       0502
A0101412210000000238486JUMAWAN, FERDINAND TUBAYAN                               0501
A0301400820000001185780RUFEROS, ROY KENNETH OR                                 10501
A0301400820000001185780AREVALO, MICHELLE KAY                                   20500
A0301400820000007372809CAI, LILI                                                0502
A5501400120410719328001ILAO, YOLANDA CASTILLO                                   0502
A5501400120410787960001TANTERAS, EDWIN MONTEJO                                  0502
A2401400180000010066223RENOY, HARLEY IVY QUEEN BURGOS                          10501
A2401400180000010066223DBU MIONE DRILLING SRVCS                                20500
A2401400180000007031632MIGUEL, ROSALINA DELA PENA                               0503
A2401400180000000073538GABAYERON, RINADEL DELOS SANTOS                          0501
A2401400180411501589001VALILA, NOL S. OR VALILA, MA.                           10501
A2401400180411501589001LOURDES D.                                              20500
A1201400150421301485002GO, ROLANDO DISTOR                                       0502
A1201400150421371201001MEDALLA, OSCAR D. OR MEDALLA,                           10505
A1201400150421371201001KATHERINE                                               20500
A1201400150421386553001SAINGAN, MARILOU MASEDMAN                                0502
B0101403030441707375001**********                                               1602
B0501400170481398688001GWENDOLYN S. TAN AND JOHN O. TAN OR                     11601
B0501400170481398688001ENOCH O. TAN                                            21600
A3801400170000010083017**********                                               0502
A0101403580000010176951BANTILING, IAN PATRICK PUNZALAN                          0501
B0101403580511015363016MILLENNIUM ERECTORS CORPORATION (SF)                     1605
A0101403580511196754001CARMELITA E. LA O' JT                                    0502
A0101403580511341306001JUAN N. OROLA JR.                                        0502
A0101405940000005068322ALCANTARA, ARMIN SAMONTE                                 0501
A0101405940000002268697RONDARIO, CELESTE EDEN MORCO                             0502
B0101405940512041188001PREMIUM WINE EXCHANGE INC.                               1601
A0101411790518055764033ARLEGUI, ZILLAH GERMINO                                  0502
B0101403450521034408001**********                                               1602
A0101403450521238583001**********                                               0510
A0101403450521238642001*********                                                0502
B2201400250561028028002ASSOCIATION OF SUGAR PLANTERS OF CENTRAL                11605
B2201400250561028028002LUZON, INC.                                             21600
A2201400250561088535001CHRISTOPHER JORDAN L. CHUA                               0502
A2201400250561258530005ERWIN T. AQUINO                                          0501
B0101404130000000001281ALS MARINE CENTER CORPORATION                            1602
A0101407720602463611002FRANCISCA R. ORTEGA OR FRESCO                           10501
A0101407720602463611002O. HERRERA                                              20500
A0101412180000002340701RODRIGUEZ, ERICKSON ADARNA OR                           10501
A0101412180000002340701RODRIGUEZ, JOVITA ADARNA                                20500
A0101404260611478374115FE S. BONDOC                                             0502
A0101409920650478374005CRISOSTOMO, MA. EMELIA GASPAN                           10501
A0101409920650478374005MEMBERS OF NATASHA                                      20500
B01014134400000090067248MANOR 8BINGO8 CORP.                                     1602
A0101413570000006072551TANYA ALEXANDRA LEONOR                                   0501
A0101413570000006923573MARIA ROSARIO H. LIWANAG                                 0501
A0101413990000003141168PASCUA, JERICKSON LOUIE TAN                              0502
B0101406590000000905657BRAINCHILD SIX INC.                                      1602
A1301400340683249082002RICARDO HERMOSO II OR                                   10501
A1301400340683249082002AGRIPINA HERMOSO                                        20500
A1301400500000004093087ME-ANN'S EGG DEALER                                      0505
A0101408240000003955380OCAMPO, MA. CHRISTINA IMPERIAL                           0501
B0101408240711008262001TRANSOIL CORPORATION                                     1610
A0101408240711417025001LUPOT, JULIUS CALACAT                                    0504
A4101400260812041696001LUCKY RED CONSTRUCTION AND                              10502
A4101400260812041696001TRADING                                                 20500
B4101400260000005724023TRUCKMANS ENTERPRISES, INC.                              1603
B4101400260000005724045JOHN AND LORHEN TRADING CORPORATION                      1601
A4101400420000000710472FLORES, MAXIMO ESPIRITU                                  0501
A4101400420000000120970REYAN S. LINCAY                                          0501
A0101412340000007305564ELNA O. GALAROZA                                         0501
A0101404840000003409987TARE, NORA GUTIERREZ                                     0501
A0101406750000006303340GUZMAN, LILIA ACUESTA                                    0501
A0101406750000005666806DINCO, PAULO FLORENTINO                                  0501
A01014067508520359810014K MEDICAL & DENTAL SUPPLY                               0503
A0101406750852520766001EHINA, PIEDAD VELASCO                                    0501
B0101405070861034415001ROTARY CLUB OF DOWNTOWN MANILA                           1601
A0101413860000000145286SEA BREEZE LAUNDRY CO. INC.                              0504
A0601400230000000990052DAYAO, MARIBEL MASIBAC                                   0501
B0601400230000006045381RD PAWNSHOP, INCORPORATED                                1605
B0601400230891023794002MEGA FROST ICE CREAM BAR                                 1602
A0601400230000002310092PARAFINA, LORENZA ALIPIO                                 0501
