B0101400150061030299001INFOSERVE INCORPORATED                                   1602
B0101400150061010644001JESUS V. DEL ROSARIO FOUNDATION,INC                      1610
A0101400150061179137001JAIME C. DEL ROSARIO                                     0506
A0101400440000000821130SIMON, MA. ISABEL ROMANO                                 0501
A0101400440161186930002LAURO M. AMANTE                                          0501
A0101412340000003345548JOSEPH BENJAMIN B. QUINTAL                               0502
A0101400150061229814003LEONCIO C. LIM AND/OR                                   10501
A0101400150061229814003SIRENE L. ONG JT                                        20500
A0101400440161575225001EARL JIMSON R. GARCIA                                    0501
B0101402930381039036001CULINARY EVENTS, INC.                                    1603
A0101403610531219500001**********                                               0501
B0101407720602026114001**********                                               1602
A0101407720602283353001ERWIN HERNANDEZ OR                                      10501
A0101407720602283353001AGNES HERNANDEZ                                         20500
A0101407720602286255002**********                                               0502
A0101407720602397745001DE JESUS, CELESTINA MARCOJOS                             0501
A0101413440000011382966MAGALONA, JANERY JILL JACINTO                            0501
B0101400860000000030371********                                                 1603
A0101400860011327775001RECALDE, FE CORAZON ENRIQUEZ                             0501
A0101400860011412603002**********                                               0505
A0101400860011453178001**********                                               0502
A0101400860011573883001SEE, MARY LAO                                            0501
A0101400860011663274001**********                                               0502
A0101400150000009217818CHANG, ERICA RITZ LEE                                    0501
A0101400150061391302001BARRERA, EUDORA ANDRADE                                  0501
A0101400150061430140001MIMI C. QUA                                              0501
A0101400150061455323001MANGLAPUS, ANA DEL ROSARIO OR                           10501
A0101400150061455323001MANGLAPUS II, VA                                        20500
B0101400150061542521001SAN CARLOS BIOPOWER INC.                                 1603
B0101405810072029570001PLASTIC CONSUMER CORPORATION                             1602
A0101405810072385132001***********                                              0503
B0601400100081023056001ADDERLEY DATA ENCODING SERVICES                          1601
B0601400360000000978936THE MEDICAL CITY CLARK, INC.                             1610
B0601400520000000398512PAGASA PHILIPPINES LENDING COMPANY, INC.                 1606
B0101400730111033529001THE REMCO TRANSPORT, INC                                 1610
A0101400730000001016471VIOLETA O. SANOY                                         0502
A0101400730000001822862ALVENDIA, AMADOR PAHATI                                  0502
A0101413310000002317999CONCEPCION, BERNABE TAYAMORA                             0501
A0101401830141546547001REATAZA, NELIA MORABE                                    0503
A7201400170000011158200ESPANOLA, ANGELA J. OR                                  10501
A7201400170000011158200ESPANOLA, RENNOR ANDREW C                               20500
A0101400440161030637001AREMCI BUILDERS                                          0505
A0101400440161478374008MARY FE I. REDONDO                                       0502
A0101400440161520766189PRESCILA P. DOTONG                                       0501
B0101407270162028688001KAISA CONSULTING COMPANY, INC.                           1608
A0101407270162496878001AGNES TABARANGAO                                         0501
A0101401090171197481002MA. NOEMI OR ELIEZER SALAZAR                             0502
A0101401090171310841001BANEZ, CRISMELITA MARINAS                                0501
A0101401090171342914001ELIZABETH ANGELICA L. ROASA                              0502
A0101401090171388995001ANTONIO P. AFRICA                                        0501
A0101401090171432366001MICHAEL RONALD OR                                       10501
A0101401090171432366001SHARIE MADARANG                                         20500
B0301400950000006080360***********                                              1601
A0101413020000006295258ALIPIO, VIOLETA DEL ROSARIO                              0502
B0101410720653031938001YIGGM CORPORATION                                        1606
B0101410720000000029850NORDHOFF ENTERPRISES INCORPORATED                        1601
A0101410720653505843001LIMONGCO, GRACE POLO                                     0502
A0101412500214069317001VILLALBA, ARTHUR AGUSTIN DBU                            10501
A0101412500214069317001GAMMA GRAY MARKETING                                    20500
A3101400450223223483001GALVEZ, RODOLFO OR ANGELINA                              0505
A3101400450223310377002PENALOZA, RAINIER OR ROMA                                0501
A3101400450223489008001SIO, MINNIE REGINA OR JOSELITO                           0501
A3101400450223701659001GRANT INSTITUTE OF TRADE AND                            10505
A3101400450223701659001TECHNOLOGY                                              20500
A3101400870225069990001SANGGALANG, FORTUNATO B. DBU                            10501
A3101400870225069990001GREENVALI MARKETING                                     20500
A1001400190000002820082VILLAMALA JR., VICENTE TY                                0501
B1001400190231014376003PENBANK, INC.(A PRIVATE DEVELOPMENT                      1603
B1001400190231064130003OLANDER INDUSTRIAL TRADE CORP.                           1602
A1001400190000002170769JUGAN, NOUE MALOLOT                                      0501
A1001400190231629873001BOMEDIANO, ANASTACIA SEMAFRANCA                          0502
A1301400470000001299061SHERWIN ORDONEZ CONSTANTINO                              0505
B1301400470000007862755FMN DEVELOPERS CORP.                                     1610
A1301400470252466645001MA. LOURDES M. GOMEZ OR                                 10502
A1301400470252466645001CHRISTOPHER M. GOMEZ                                    20500
B0101406460272043457001TARSIER SECURITY AGENCY, INC.                            1602
A0101406460272372178001DE LEON, IBIE BAUTISTA                                   0501
B0101406620273026285001DBQUEST, INC.                                            1602
A0101406620000000193840TAN, APRIL LYNN LEE                                      0501
A0101411820000000477214ENAMARIE LIZZETTE C.                                    10501
A0101411820000000477214MEDENCELES- VILLALON                                    20500
A0101412470000010561703CHAN, KIRSTIN GELYNNE SIH                                0501
B0101411240000005136932LIVORRI INTERNATIONAL TRADING CORPO                      1602
A2601400270000007845078CATHERINE CZARINA S. DY                                  0503
B2601400270000000020680MEGABUCKS CONSTRUCTION &  DEVELOPMENT                   11601
B2601400270000000020680CORP                                                    21600
A2601400270000000561784CAUAYAN UNITED ENTERPRISE &                             10501
A2601400270000000561784CONSTRUCTION BUILDERS                                   20500
A0801400160000000476313REX MUZONES                                              0502
A6601400120000005710630DY, FREDERIC JAN TUBELLO                                 0502
B2001400290315047753001SILLIMAN UNIVERSITY COMMUNITY COOP.                      1610
B2001400290315066625001IINNRU REALTY CO.                                        1604
A3401400280000002323495APOLINARIO, ANTONIO DARIA                                0501
B0101402350321006431001OLIVAREZ REALTY CORP.                                    1608
B0101402350321006431002OLIVAREZ REALTY CORP. (CONDOMINIUM)                      1608
B0101405650000004410039MIDNIGHTHOOCH INCORPORATED                               1610
A0101402510000000200102ALVAREZ, ROGELA CARLA CHANG                              0502
B0101402060351027278001SYBEX ANIMAL HEALTH INC.                                 1601
B0101402060351035807001SOLEREX WATER TECHNOLOGIES, INC.                         1610
B0201401020000000005078COMMONWEALTH INSURANCE COMPANY                           1602
B0101402930381033903001T.H.E. TRAVEL GURU INC.                                  1602
A0101402770391033536001BEST BUY MOTTO ENTERPRISE                                0501
A0101402770391527984001DUMDUMAYA, JENNY PESTANO                                 0501
B0101402770391752292001JUANITA OR TOMAS OR BENJAMIN                            11601
B0101402770391752292001VICTORIA                                                21600
B0101402770391752292002JUANITA OR TOMAS OR BENJAMIN                            11601
B0101402770391752292002VICTORIA                                                21600
A0101405490000005566292JAPOS, JEANETTE UY                                       0501
A0101408400000001614682BULAN, PONCIANA CAJES                                    0501
A0101408950000007458913**************                                           0503
A0101408950000000776609DEL PRADO, BETTINA AQUINO                                0501
B0101408950000004428659INTELLYTICS, INC.                                        1602
A0101408950396501244001DR. RHESA MAY MANALOTO MARTINEZ                          0501
A0101408950000001785566MARCIA, JOSE PROTACIO DIJAMCO                            0501
A0101408950000010111283CRISTI-LIMSON, MARGARET JOYCE A                          0502
A0101409210000007864119PELAEZ, CARLAMAE ALVEEN MAQUIRA                          0501
B0101412210000000031512WALL STREET ACCOUNTING AND BUSINESS                     11602
B0101412210000000031512SOLUTIONS INC.                                          21600
A5501400120000000046922CHIU, VALENTIN & JULIA EILEEN                           10505
A5501400120000000046922CHRISTIAN & CHRI                                        20500
A5501400120000009875796CHIU, VALENTIN SIRA                                      0501
A2401400180411075579001JALALAGTOY, MARVIN SUAREZ                                0502
A0101412890000001056462GO, FLORINDA DE GUZMAN OR                               10501
A0101412890000001056462MANALILI, ZARAH JANE G.                                 20500
A0101403320000012127358ARLAN PAULO AMACANIN OR                                 10501
A0101403320000012127358ANNA DOMINIQUE AMACANIN                                 20500
A0101403320471189593001LEVISTE, DIONISIA JAYECTIN OR                           10501
A0101403320471189593001SANTIAGO T. LEVISTE                                     20500
B0101403320471206926002LOLITA B COLINA                                          1601
A0101403320000000067503OCHOSA, BERNARDO R.                                     10501
A0101403320000000067503OCHOSA, EMMA B.                                         20500
B0501400170481029507001ARCINUE DEVELOPMENT CORPORATION                          1601
B0501400170481029507002ARCINUE DEVELOPMENT CORPORATION                          1601
B0501400170481038907001JODERON AUTO SUPPLY                                      1605
B1901400160491012827001PORT CITY CREDIT AND LOANS CORP.                         1602
B1401400110492365609001JEORGE S MALIGAT - PILIPINO HARDWARE AND                11601
B1401400110492365609001CONST. SUPPLY                                           21600
B0701400260000000670991PURITAN LAND DEVELOPMENT CORPORATION                     1602
B0701400260000000041130TREVOR ETON REALTY CORPORATION                           1602
A0101407430503225389002BRIAN A. PINEDA OR                                      10501
A0101407430503225389002MA. ELENA G. ARAGON                                     20500
A0101407430000003193348IGNACIO, FLORA MAASIN                                    0503
A0101403580000004683074FELICIANO, JOSE DANIEL ANTONIO                           0501
B0101405940512027232002SCANDINAVIAN MOTORS CORPORATION                          1601
A0101405940000001047341**********                                               0501
A0101411400000012119281HWANG , SANG  WON                                        0501
A0101411790000011045791VILLARUEL, MARY GRACE LOPEZ                              0501
A0101411790518055815130SATURNINO, MARINELA SANTOS                               0501
A0101403450521238060001*********                                                0502
A0101407720000000510665QUIBOLEN, MARICRIS MIRANDA                               0501
A0101407720000000051130LEGASPI, LILIAN DOMINGUEZ                                0505
A0101407720602328663002********                                                 0502
A0101407720602397746003NOLIDO, ANNA MARIE SAGE                                  0503
A0101412180000000908418SEKIAI, PRECIOSA STA CRUZ                                0501
A0101412180603767813001JOSE, VENILDA VENUS ANGELES                              0502
A0101404260000006374489RAMOS, DARWIN REYES                                      0501
A0101404260611478374048CHERRY F. NAIGAR                                         0501
A0101404260611690641001SABABAN, NINFA LAGDAMEN                                  0501
A0101409890649047047001**********                                               0510
A0101407690000010166224LEA MARIE OR MARK MORALES OR                            10505
A0101407690000010166224JOSE MA AUGUSTO DE JESUS                                20500
A0101413440000002846400STO. DOMINGO, JESSE J. OR                               10502
A0101413440000002846400STO. DOMINGO, MA                                        20500
B0101413570656821100608**********                                               2001
B0101413570656821100608**********                                               2001
A0101406590662065552001ALINDUGAN, MARIVIC BANDELARIA                           10502
A0101406590662065552001DBU S21 TRADING                                         20500
B1301400340683025550001HONDA MINERVA INC.                                       1601
B0101408240711026678001SAMBEL PACIFIC CORPORATION                               1602
A0101408240711312576001DE OCAMPO, MA. JOSEFINA OR                              10502
A0101408240711312576001DE OCAMPO III, PACIFICO                                 20500
A0101408240711385845004DE OCAMPO III, PACIFICO LAGDAME                          0502
A0101408240000000347506DE OCAMPO III, PACIFICO LAGDAME                         10502
A0101408240000000347506OR TAMONDONG, TRISHA                                    20500
A0101408240000008160143ROWENA P. GONZALES                                       0502
A0101408240711480597001CABUSLAY, EDGARDO OR SUSAN                               0502
B2801400100712021648002BIG IRON TRADING AND DEVELOPMENT INC.                    1603
A2801400230000000937480ROLDAN, RUTH MARIE ALBANO                                0501
A4101400260000006043403RAPISTA, JOHNNY APISTAR                                  0503
A4101400420814328455001LARGA, ROMMEL YAP                                        0501
A4101400550000001622468PARCUTELA, LOLITA DE JESUS                               0501
A0101412340000006047252TEDDY GRANT G. CRUZ                                      0501
A0101412340000007847274NERISSA F. FUCLAN                                        0501
A0101412340000009889390ANDRAE RAOUL C. BAGUIO                                   0501
A0101412340000010218127GABRIEL S. SALCEDO                                       0501
A0101412340000003348703RICHARD DANIEL M. SANCHEZ                                0501
A0101412340000003719113JUNICE H. GENELOSA                                       0501
A0101404840851046725006MELA M. GEROLAO                                          0501
B0601400230891030502001SUPERIOR LAND HOLDINGS CORPORATION                       1602
B06014002300000036448207R FINANCE CORP.                                         1610
A0601400230000007402122TULOP, HELEN ACAR DBU STRONGSCR                          0505
