A0101413020000003055405AVO-AIR ENGINEERING SERVICES                             0501
B1401400110492046339002******                                                   1620
A0101400440161525001033MARY JANE V. MACALINAO                                   0501
A0101412050000002314552********                                                 0501
A0101406750852478374117IDA MACARO                                               0501
A0101400860000003571680*************                                            0501
A0101400860011487539001**********                                               0506
B0101400860011691846001**********                                               1602
A0101400150000000253278GELANO, ANGELO RECTO                                     0502
B0101400150061011081002ROASTERS PHILIPPINES, INC.                               1603
B0101400150061032087002CGF ACADEMY OF LEARNING & LEADERSHIP INC                 1602
A0101400600071235483001**********                                               0501
B0101405810072045865001UNO FOREX INCORPORATED                                   1602
A0101405810072373265003MANANSALA, JOYCEE CATARATA                               0502
B0101405810072412798001**********                                               1603
A0101405810000001021207CHEN, TINGYU                                             0510
A0601400100081040294001MOIKAI INDUSTRIAL SUPPLIES AND                          10503
A0601400100081040294001AUTOMATION SERVI                                        20500
A0601400100081401956001AQUINO, ANA MARIE DIMATULAC                              0501
A0101414090000003315022EDEN REGALA FLORES                                       0501
B0101410850109063996001EON PETROLEUM CORPORATION                                1601
A0101410850000000259927USI, BENEDICT CALISIN                                    0501
A0101406040000000096811********                                                 0501
B0101401960121011794001KKK HEAVY EQUIPMENT & SUPPLY                             1601
A0101401960121348042001YAP, HELEN SY                                            0501
A0101412630000007158110BALDEO JR., MANUEL CRUZ                                  0502
A0101401830141393108001SUSAN G. JULIANO                                         0501
A0101401830141461686001JOSEPH APOLLO H. GUINEZ OR                              10503
A0101401830141461686001SUSAN G. JULIANO                                        20500
B0101400440161044234001EXTRASORGEN MANPOWER AND ALLIED SER                      1603
A0101400440000008201221SNOOKY M. PANOY                                          0501
A0101400440161459294001MARY ANN T. REGINALDO                                    0502
A0101400440161537092001EVANGELINE R. BAUTISTA                                   0502
B0101401090000000772383THE OTHER WHOLE CHICKEN INC.                             1602
A0101401090171330509001PABLITO A. BAYBADO JR.                                   0501
A0301400530000008307573MAQUIDATO, REY ABAN                                      0501
B0301400530000005001603*******                                                  1601
A0301400530000007345486MAGUGPO UCCP CHRISTIAN SCHOOL,                           0503
A0301400530193699585001BENEMERITO, MARIA C.                                     0502
A0101413020000000880451ALCANTARA, ALDEA DEALA                                   0501
B0101413600000002822671AUNICAJ INTERNATIONAL TRADING                           11602
B0101413600000002822671CORPORATION                                             21600
A3101400870225488378002CABATIC, BENJIE VENTEREZ                                 0501
A1001400190000001057498LIGTAS, JOSE CALALIN                                     0502
A1001400190231478374086LORNA A. OMANDAM                                         0501
A1001400190231520766085OBSIOMA, MADELYN A.                                      0501
A1001400190231520766119CABANO, BERNADITH CATIWALAAN                             0501
A1001400190000000016480ANGELITUD, LYDIA LECIAS                                  0501
A1001400190000001057589NORMALIS C. REYES                                        0501
A1001400350000000922014PEARSON, PILARCITA ROA                                   0502
B1001400350000007920876PEARSON, PILARCITA ROA AND  HEQUILAN,                   11602
B1001400350000007920876ELVIE CORTEZ                                            21600
A1001400350000000922207MAXIMO A. UY OR                                         10505
A1001400350000000922207JEORGE HERNANITO                                        20500
A1001400350000003867272BERNALES, CHRISTOPHER ERA OR                            10502
A1001400350000003867272BERNALES, JESSICA LOU S.                                20500
A1001400350000000017165MEN DBU A&L MARKETING SOLUTIONS                          0501
B1001400350233076793001BINHI MICROENTERPRISE DEVELOPMENT                       11605
B1001400350233076793001FOUNDATION INC.                                         21600
A1001400350233503410003APARICI, ARMANDO AKIAT                                   0502
A1001400350233611366001**********                                               0504
B1301400470000003270102LFCI-KPP KASANIB SA PAGABOT NG                          11610
B1301400470000003270102PANGARAP INC.                                           21600
B0101406620273016438001LAMCO INTERNATIONAL TRADING CO., INC.                    1602
B0101406620273039952001VERSATECH INTERNATIONAL, INC.                            1602
B0101406620273313299003**********                                               1605
A0101406620273393333001FLORES JR., RICARDO RAMOS                               10501
A0101406620273393333001OR FLORES, ZARA ZAPANTA                                 20500
A0101406620273489850001RODOLFO P. DE GUZMAN JR. OR                             10501
A0101406620273489850001ROSARIO K. DE GUZMAN                                    20500
A0101408660000005263849LIM, ARISTOTLE C. OR                                    10502
A0101408660000005263849LIM, JENNIFER                                           20500
A0101408660274547172001BELMES, MARIBEL DEPAUDHON                                0501
B0101410980275047209001PIONEER STATIONERS, INC.                                 1602
A0101410980275076915001LUNA, RUFINO YAP                                        10501
A0101410980275076915001OR LUNA, MA.DOLO                                        20500
A0101411110000000009145DAVID, ACE MENDOZA                                       0502
A0101411820000005380143RUEL M. DE CASTRO                                        0501
A0101400570000008735246DE JESUS, MARTY LIM                                      0501
B0101400570281023797002PROVINCIAL SUPERIOR OF THE PHILIPPINE                   11601
B0101400570281023797002PROVINCE OF THE                                         21600
A0101411240000008755831ONG, JOYCE ANN SY                                        0501
A0801400160311267088001ROSY G. MONTEJO                                          0501
A2001400290315636761001VILLABERT, WINSTON TAN OR                               10501
A2001400290315636761001VILLABERT, MARIT                                        20500
A3401400280000001723473AMELIA A. ZAMORA                                         0501
B0101402350321031463001STATE ENTERPRISE                                         1605
B0101402350321037708002RD CASH PADALA, INC.- AREA 1                             1603
A0101402350321584873001*******                                                  0501
A0101405650000006273601H. NOOR, MALIKSAIF BANGON                                0502
B0101405650322025100001GLOBAL PACKAGING SYSTEMS AND MATERIALS                  11601
B0101405650322025100001CORP.                                                   21600
B0101405650322036086001VISTALAND INTERNATIONAL MARKETING, INC.                  1610
B0101405650322044669001ABIX CONSTRUCTION & DEVELOPMENT COR                      1601
B0101405650000000772685WISEMEDIA GROUP, INC.                                    1601
A0101405650322526192001FUNTILA, CAROL PAULINE TAMAYO                            0501
A0101402510341200871001EULOGIO V. VERON JR.                                    10501
A0101402510341200871001OR RIZALINA J. V                                        20500
B0201400760000000989706SORIANO, ADRIAN IBAY                                     1602
A0201400760000002047241TE, SHELAMAR LOUREN BAUTISTA                             0502
B0201400760374045286001C.K. BUILDERS CONST. & DEV'T. CORP.                      1605
B0201400760000001612948LMDC CORP.                                               1605
A0201400760374537038001HO, RICHELIEU MARIANO SIA                                0501
B0101402930381009022001GREENRICH MANSION CONDOMINIUM CORP.                      1610
A0101402930381478374009MARIVIC R. DELA CRUZ                                     0501
A0101408790000000579802QUIMQUE, MA PAULINE IRIS D. OR                          10501
A0101408790000000579802QUIMQUE, MA PREC                                        20500
A0101402770000000360912***************                                          0502
A0101405490000004353031BARRAMEDA, ANITA VALIENTE                                0505
A0101408950000000776490AQUINO, CHERILYN RUIZ                                    0502
A0101408950396387468001ABELLA, ANDREI CESAR SANARES                             0501
A0101408950000001785566MARCIA, JOSE PROTACIO DIJAMCO                            0501
B0301400820000000316710KWAN, PAO GAN LI OR KWAN,                               11602
B0301400820000000316710MARLON                                                  21600
A2401400180000003949151ONG, JANNETTE KO                                         0502
B1201400150000005357973CASA INFINI REALTY MANAGEMENT CO. L                      1602
A0901400220000000425169**********                                               0503
A0101403320000001647036LORENZO RENAN E. TORRES                                  0502
A0101403320000001803190HILARIO, MICHAEL OR HILARIO                             10502
A0101403320000001803190ANNA MARIA GWENDOLYN                                    20500
A0101403320000008762330GISELLE V. IBAROLA                                       0501
B0101403320471041480001ITP CONSTRUCTION INC                                     1620
A0101403320471042842001MIGO MEATSHOP AND FOOD SUPPLY                           10510
A0101403320471042842001CENTER                                                  20500
A0101403320471193254001JOSEPHINE S. BAYSA                                       0503
A0101403320471235198001*****                                                    0501
A0101406330000004349560FERRER, GINALYN HERNANDEZ OR                            10501
A0101406330000004349560FERRER, MARLON TAPIADOR                                 20500
A0101406330472494607001MARIA ELIZA E. SANCHEZ OR BRIAN                         10502
A0101406330472494607001JOSEPH SANCHEZ                                          20500
A0501400170000008755131TINGA, ABEGAIL LOPEZ                                     0501
A0501400170481255549001*****                                                    0504
B1901400320000000041283SAN ISIDRO MULTI-PURPOSE COOPERATIVE                     1601
B1901400320000000041272SIMCO VILLAGE LEARNING CENTER INC.                       1601
A1401400110492412423001LUNA, MA. TERESA MAGBOO OR                              10503
A1401400110492412423001LUNA, EDWIN                                             20500
A1401400110492652676001DEZA, VIVIAN P. OR                                      10505
A1401400110492652676001DEZA JR., ARSENI                                        20500
B0101403580511029847002BAGONG BARRIO HYPERMART & PROPERTIES                    11602
B0101403580511029847002CORPORATION                                             21600
A0101403580511196754001CARMELITA E. LA O' JT                                    0502
A0101405940000001534236LUIG, ISABEL DBU ESOLIMAN INTEG                          0505
A0101405940512157443001CECILIA B. WYSON OR                                     10501
A0101405940512157443001ROBERT T. WYSON                                         20500
B0101408110000003281434CYBERONE.PH, INC.                                        1601
B0101408110000003281503SEPTUS INC.                                              1601
B0101408110000008308310HESTIA DEVT. CORP.                                       1601
B0101411400000006560905UBITECHNOLOGY INC.                                       1602
A0101411790518055815027MANABAT, ELAINE BUNDALIAN                                0501
A0101411790518055815036MARINO, MARIA LORELIE RODELAS                            0501
A0101403450521238905001**********                                               0502
A0101403450521282364001**********                                               0502
A0101403450521360229003**********                                               0501
A0101404000000007643123JOVER, PILARCITA PEDREZUELA                              0501
A0101407720000004658846PANLILIO, JAY MICHAEL BACANI                             0502
A0101407720602397745001DE JESUS, CELESTINA MARCOJOS                             0501
A0101404260611659908001LIM, EDNA MAGDANGAL                                     10503
A0101404260611659908001OR ORLANDO LIM                                          20500
A0101409920000001951942MEMBERS OF NATASHA (SHOECAT INC                         10502
A0101409920000001951942TULAYBA, ARLENE                                         20500
A0101413570000002906578DIVEREP GENERAL MERCHANDISE                              0501
A0101413990000006434922AGUSTIN, JANET J. DBU JAN &                             10502
A0101413990000006434922LEON GENERAL MERCHANDISE                                20500
A1301400210682544771001MARY ANN R DELA CRUZ                                     0505
A1301400340683075365001DELA CRUZ, JUANITA AMAD                                  0502
B1301400340683353482001MARLENE R. JOSE OR JOSE MARI R. JOSE                     1602
A2801400230000001734750CAPILI, YOLANDA MAGTANONG                                0502
B2801400230000005253561PRAGMATIC DEVELOPMENT & CONSTRUCTION                    11605
B2801400230000005253561CORP.                                                   21600
B4101400260812045529001CITISTORES INC.                                          1602
A4101400390813478374014ELIZABETH V. EVAL                                        0502
A0101404840000000943391MARIA CRISTINA MANGOSING                                 0501
A0101404840851298552067EMERENCIANA P. BOMBAY &/OR                              10501
A0101404840851298552067JEREMY P. BOMBAY                                        20500
A0101404840851711784001DE GUZMAN, JERMAINE ROSE DE LOS                          0501
A0101404840851791747001BALMES, GERVACIO OR SARADAT,                            10501
A0101404840851791747001MONICA OR GALLAG                                        20500
A0601400230000003638857DIZON, ELIZABETH OLARTE                                  0502
A0601400230000001687232CHRISTLE M.TUNGUL OR                                    10502
A0601400230000001687232LIONEL M. TUNGUL                                        20500
