B0101408790383821100608**********                                               2005
A1901400320000005492582LACSAMANA, JOEBERT M.   OR                              10501
A1901400320000005492582LACSAMANA, TIFFA                                        20500
A0101405810072441666001**********                                               0505
B0101400150061017496001**********                                               1602
B0101400150061027665001SYNERGY EXPERTISE INCORPORATED                           1602
B0101400150000000000146LOTTEWORLD IMPORT & EXPORT, INC.                         1601
A0101412890000001765404ACUNA, SALVADOR A OR ACUNA,                             10506
A0101412890000001765404ALONA C                                                 20500
B0101412890000007906143*****************                                        1605
A0101400860011387667001**********                                               0501
A0101400860011393144002**********                                               0505
A0101400860011397525002**********                                               0502
B0101400860011548332002**********                                               1602
A0101400860011559647001**********                                               0505
B0101400860011792731001**********                                               1603
A0101400860011793672001**********                                               0505
A0101400150000000525591MEDINA, LOLITO DEL MUNDO OR                             10501
A0101400150000000525591MEDINA, EVELYN                                          20500
A0101400150000006004251MIRANDA, MARY GRACE LUCERO                               0501
A0101400150061189114001********                                                 0510
A0101400150000000806724CALICDAN, JAYSON M.                                      0501
A0101400150061344118001AMIEL M. MERCADO                                         0502
A0101400150061615327002TAN, ANGELA GABIANO OR                                  10501
A0101400150061615327002CO, SUSAN YU                                            20500
B0601400100081026547002ANGELES FRIED CHICKEN, INC.                              1610
B0601400100081047066001JETT FORCE INTEGRATED SECURITY SYSTEMS                  11610
B0601400100081047066001INC.                                                    21600
A0601400100000006092491GONZALES, ELSA LIWANAG                                   0501
A0601400520000003187313PAROLI, VIRGILIA SOLIMAN OR                             10502
A0601400520000003187313PAROLI, ANTONIO                                         20500
A0101413730000002289518**************************                               0501
A0101400730111195439001TAN, ROWENA                                              0501
B0101406040000000096633*********                                                1601
A0101401960121434461001***********                                              0501
A0101401830141546547001REATAZA, NELIA MORABE                                    0503
B0101400440161019210001UKC COMMERCIAL PRESS, INC.                               1601
A0101400440000004901495GENELYN C. RODILLA                                       0501
B0101407270000004558367SANTIAGO, DAREEN DEL MONTE                               1601
A0101401090171063399001DE VILLA, A DBU ARETE RESEARCH                          10501
A0101401090171063399001& REVIEW CENTER                                         20500
A0101401090171195137001DRA. ESTELA RIVERA OR                                   10502
A0101401090171195137001LEAH SOCORRO RIVERA                                     20500
A0101401090171196270001ENRIQUE H. CARANDANG M.D.                                0506
B0301400530193044968008ASIAMOTOR, INC.                                          1620
A0301400660000002913282**********                                               0503
A0301400660000007029143COCHERO TRUCKING                                         0502
A0301400660000007029132JTY MARKETING                                            0503
B0101401380201043041001IBARRA BIO MED INT'L. TRADING CORP.                      1610
A0101413020000003055405AVO-AIR ENGINEERING SERVICES                             0501
A3101400450000011118691IGE, KENNY                                               0501
A3101400450223394475001*****                                                    0501
A3101400450223479277001AGONCILLO JR, JOSE OR SUSAN                             10501
A3101400450223479277001CHARITO                                                 20500
B3101400740224017345001PALMPHIL GARMENTS PHILIPPINE CORPORATION                 1603
A1001400190000002266651GALLANA JR., EDGAR REY BILLIONE                          0501
B1001400190231274341003JAVIER, WILFREDO G.                                      1603
A1001400190231478374012FARINAS, EVA MAE CENTO                                   0501
A1001400190231478374117ASINO, ANNABEL M.                                        0501
A1001400190231478374162TORAYNO, DELILAH B.                                      0501
B1001400350233039880008NORMIN FOOD CHAIN CORPORATION - JOLLIBEE                11610
B1001400350233039880008LIMKETKAI                                               21600
A1301400470252622269001GABRIEL C. NOCUM JR.                                     0502
A0101401670271349150001BERNAL, EDUARDO RAMOS                                    0501
B0101406460000001231645JUNNA LOGISTICS, INC.                                    1605
B0101406620273033463001ARL BUSINESS CONSULTANCY, INC.                           1602
B0101406620273045167001VENTURANZA, HOSTALERO AND COMPANY, CPA'S                 1601
B0101406620000000194103SUPREME POWER CORPORATION                                1601
B0101406620000000962523TUNE BRADCO MART INC                                     1602
B0101406620000009695298JK CAPITAL FINANCE, INC.                                 1604
A0101406620273236978001CALLEJA, HOWARD MACEDA                                   0503
A0101406620273475403001DEE, ALVIN YANG OR                                      10502
A0101406620273475403001LAUREL, JOANNA DEE                                      20500
A0501400200000001081021ALTHEA NORTHERN RETREADERS                              10501
A0501400200000001081021ENTERPRISES                                             20500
B0501400200000004456924UNIHOK COMMERCIAL HOLDINGS,                             11605
B0501400200000004456924INCORPORATED                                            21600
B2601400270000002677332CHRIST'S COMMISSION FOUNDATION, INC                      1602
A2601400270302045645001RISING DRAGON ENTERPRISE                                 0501
A1101400120000000652380CAYUBIT JR., SERAFIN ASERON                              0502
A6601400120000008490411*                                                        0501
B6601400120000006154190CARITAS CATARMAN FOUNDATION (CCF)                        1601
B6601400120314539341008PORAQUE, VICENTE TAN OR TAN, SANTOS LEE                  1605
B6601400120314617698002CATARMAN DOCTORS HOSPITAL, INC.                          1605
A6601400120314618083088PORAQUE, JULIO TAN                                       0503
B0101402350321006923002LOPEZ VILLAGE HOMEOWNERS ASSOCIATION                    11603
B0101402350321006923002INC. PHASE I-B                                          21600
A0101402510341202843003**********                                               0501
B0101402510341204183001ANA ABERILLA AND GILBERT MURILLO                         1601
A0101409050000000999551BORJA, ARIANNE MAE KRIS BERNAS                           0502
A0101409050000006319731RIVERA, FREDERICK ISIDRO                                 0501
B0201400760374045910001AUTOWELT INC.                                            1603
A0201400890000006961864NEGRITE, DARFRENTE ELIZALDE                              0501
B0201400890376037750001TWIN PEAKS WAXERS CORP.                                  1602
B0101402930000005646084WOMAD UPTOWN FOOD INC                                    1630
A0101402930381513391001GARCINEZ JR., SATURNINO M.                               0501
B0101408790000000599851RAKSO COMPUTER TECHNOLOGY, INC.                          1603
B0101415350000003212448VESTICOM, INC.                                           1601
A0101402770000001571160ABEL B. MADRID                                           0501
A0101405490392298552038MANUEL G. IBAÑEZ                                         0502
B0101408400394028561001KAW AND UNSON THE ANIMAL HOUSE CO.                       1601
A0101408400394165609001TAN, REX BARRAMEDA                                       0501
A0101408950000005325720MONZON, NAPOLEON PASCUAL                                 0501
A0101408950396155683001HERNANDEZ, ERROL PAPA                                    0503
A2401400180411498553001***************                                          0501
B0901400220432043554001GERRY'S GRILL                                            1602
B0901400220432043554001GERRY'S GRILL                                            1601
A0101403030441481559001**********                                               0501
B0101412890470821100608**********                                               2002
B0101403320000006027061MARIKINA FOOD CORPORATION                                1603
B0101403320471065376001CHEESECARTEL FOOD CORPORATION                            1602
A0101403320471478374016SONIA SALANIO                                            0501
B0101406330000000432700J30 ADS WORX CO.                                         1601
A0101406330472478374032ROSALINDA R. TOMAS                                       0501
A0101406330472767447001MARY SUSAN D. DEVELLERES                                 0504
A0101406330472780167001AGNES D. CHUA                                            0502
A0101410140000001939900BOBARES, R DBU 3FJ CONSTRUCTION                          0502
B0501400170000000018317DAGUPAN DOCTORS VILLAFLOR MEMORIAL                       1601
A1901400320000010407295SOLOMON, MARY GRACE SERVERA                              0502
B3801400170490067782001MINDORO GEOTHERMAL POWER CORPORATION                     1601
A3801400170000005288122ESTEVES, FLORINDO ECHANOVA                               0501
B1901400160491012587001BSU CREDIT COOPERATIVE                                   1602
A1901400160491635678001MARIVIC ATIENZA CANTES                                   0501
B1401400110492365609001JEORGE S MALIGAT - PILIPINO HARDWARE AND                11601
B1401400110492365609001CONST. SUPPLY                                           21600
A1401400110492674430001SALCEDO, LORENA OR                                      10501
A1401400110492674430001SALCEDO, RAMONATO                                       20500
B1601400170000000036126SUNWEST CONSTRUCTION AND DEVELOPMENT                    11605
B1601400170000000036126CORPORATION                                             21600
B0101407430503010445001PHILIPPINE AIRPORT GROUND SUPPORT                       11640
B0101407430503010445001SOLUTIONS INC.                                          21600
A0101405940000004476200SACREZ, JEROME BANCA                                     0501
A0101408530000009788852DEANNA D. GINER                                          0502
A0101408530516656163001************                                             0502
A0101403450000006055654***********                                              0501
A0101403450000001638064************                                             0501
A0101403450521240651001**********                                               0501
A0101403450000000889318********                                                 0502
B0101403450521475573001**********                                               1602
A0101403610000007124854ALVAREZ, ROMARICO TERCERO                                0503
A0101403610531304005001ANCHORIZ, NERRIZA OR                                    10505
A0101403610531304005001ANCHORIZ, FRANCI                                        20500
A0101403610531400970001BRILLANTE, ROSARIO AMIL                                  0502
A0101403610531492951001BONCALES, ANDRES GONZAGA                                 0502
A2201400250000001065952ALICE B. DE VERA                                         0501
B0101407720602041221001MMC PEDIA ASSOCIATION, INC.                              1601
A0101407720602785772001ESCUREL, CAROLINA NAGUIT                                 0503
A0101404260611478374097MILA B. RIELO                                            0501
A0101409920000001539584SANTILLAN JR., SERVILLANO F. OR                         10501
A0101409920000001539584SANTILLAN, EVELYN T.                                    20500
A0101409920000001539500TAMAYO, NARISSA                                         10510
A0101409920000001539500DBU SZAMANTA ENTERPRISE                                 20500
A0101409920000000022088ASUNCION, MARILYN JUANEZA                                0501
A0101407690652091655001LICUDINE, DANILO OPENA                                   0501
A0101407690652481536002MA KATHRYN ROSE H. MIGUEL  OR                           10504
A0101407690652481536002ROSALINA S.J. IS                                        20500
B0101407690652505889001VANCOUVER HILL PRESCHOOL, INC.                           1601
A0101413440000000038151EFREN F. FADERANGA                                       0501
A0101413440000006680766ENCINAS, THERESE URBANO,                                 0501
A0101413440000006680937CELESTINO, GEMMA TERESA ANGELES                          0501
A0101413990000001406564CONSEJEROS, MYRA M.                                      0501
A0101414120000007044500DELA CRUZ, SHEYNNA CAMILLE DBU                           0502
A0101406590662207039001HORTENCIA A. BUENAVENTURA OR                            10501
A0101406590662207039001MA. THERESA TAN                                         20500
A0101410300000006278460KING, JULIUS NO                                          0501
A1301400210000005040760MARCELINO, RUBY DEOGRACIAS                               0501
A1301400340000003458202TECSON, RENITA FLORO                                     0501
A1701400230000010357252TAYLAN, LERMA FE FREZ                                    0502
B0101408240711036897001EVER THEATRICAL, INC.                                    1601
A0101408240711383150001AURELIO III OR AURELIO JR.                              10501
A0101408240711383150001OR AARON LITONJUA                                       20500
A0101408240711443671001CARMENCITA C. GUIAO                                      0501
A0101408240711610248001CAYACAP, MARY JANE MANTE                                 0501
A2801400100712525700001AMADOR JR., RODOLFO BALTAZAR                             0501
A4101400550000004846824PANGAN, S DBU SDP REALTY                                 0503
A4101400550815693134001LLANES, TUDOR HERNANDEZ OR                              10501
A4101400550815693134001LLANES, PRESCILL                                        20500
A0101412340000003342407JUAN PAULO DEL ROSARIO                                   0501
A0101412340000004920941MARVIN S. DELFINO                                        0501
A0101412340000008947151MARIA LORNA C. PESONS                                    0501
A0101412340000003343622REYNALDO P. GOMEZ                                        0501
A0101412340000003349397VERDICT ED B. VALDEZ                                     0502
A0101412340000002900381MADRONERO, JEFANNIE EPIZ                                 0501
A0101412340000007305702ROWENA P. GONZALES                                       0502
A0101412340000002266840NENITA A. CHAN                                           0501
A0101404840000000683574NELIA L. BABILA                                          0502
A0101404840851217637074HENRY RAQUEDAN                                           0501
A0101404840851520766050COLO, ANATALIA                                           0501
A0101406750852478374098JOCELYN ARBOSO                                           0501
A0601400230000003015750RICHIE B. PAGCU OR                                      10501
A0601400230000003015750JOSE RICARTE B. PAGCU                                   20500
A0601400230000005185924GAJE, AGNES DBU JCG AIRCONDITIO                          0502
A0601400230000001687152TANEDO, KENT ANTHONY ROQUE                               0501
