B0101400600071821100608**********                                               2005
B0101405490392821100608**********                                               2005
A0301400790000002301393BARCELONA, JANET TIZON                                   0502
A0101410300000007613927MURILLO, VINCENT JOSEPH SORIANO                          0501
A0101410300000006278460KING, JULIUS NO                                          0501
A0101400150000001708221B.P. ASTUDILLO                                           0501
A0101400150000004090384ONG, EDUARDO NGO                                         0501
A0101400150061229214001PROSPERIDAD A. RONDILLA                                  0501
A0101400150000001422348EMPLOYEES OF PB COM                                      0501
B0101400150061534780001STRAITS WINE COMPANY WHOLESALERS, INC.                   1602
A0101400600000005942463******                                                   0504
A0101405810072690310001NARCISO SUNGA III OR                                    10502
A0101405810072690310001OFELIA SUNGA                                            20500
A0601400100000002072704LISING, FRANCIS GOMEZ or                                10510
A0601400100000002072704LISING, FRANKLIN GOMEZ                                  20500
A0601400520000001349662TIMBOL ROMAN MANALOTO                                   10501
A0601400520000001349662ACCTNG & TAX CON                                        20500
B0101410850109064800001JVO OSTEEN CORPORATION                                   1601
A0101410560000000590614CHAVEZ, JONALIE RAIPAN                                   0501
A0101406040112329333001LEO V. MORADA                                            0501
A0101401830000005691090PERCIL, FRANCIS MAPANO                                   0501
A0101401830141769877001MALINAO JR., CRISPINO GRANDE                             0501
A7201400170152060879001RENDON, EDNALYN BACAY DBU                               10502
A7201400170152060879001FRIENDLY MOTORS                                         20500
A0101400440000005393604CASTILLO, ELAINE MARTINEZ                                0501
A0101400440161520766105CECILIA P. GUANGCO                                       0501
B0101407270000004558367SANTIAGO, DAREEN DEL MONTE                               1602
A0101407270162234668002NATY S. CHAN-YU, M.D.                                    0501
A0101401090171197582002ALBERTO P. PAULINO JR.                                   0501
A0301400660000001020102RODRIGUEZ, DARREN ALAMPAYAN                              0506
B0301400790000008015001PILAY, ROMANITO B DBU ST JOHN OF THE                    11602
B0301400790000008015001CROSS HOSPITAL                                          21600
B0301400790195064826001HERRADURA, GLICERIO L. DBU WHITE                        11601
B0301400790195064826001EAGLE RICE MILL                                         21600
A0101401380201476813002TO, EVELYN LIM                                           0501
A0101401380201508360001SAN JOSE, ROSIE DATO                                     0503
A0101401380201725122001****************************                             0505
A0101413020000000056988AGUSTIN, FL DBU FIX AND CARE                            10504
A0101413020000000056988REF & AIRCON REP                                        20500
A3101400450000005355528PAGKALIWANGAN, VENUS LEI BRIONE                          0501
A3101400450223336281001RUBIN, RODOLFO JOSUE                                     0502
B3001400130000006004728AMPAYON AGRO-INDUSTRIAL CORPORATION                      1605
A1001400190231478374067DAGANATO, NICANORA BALOS                                 0501
A1301400470000002299870MANUEL BIEN S. PINE                                      0505
A1301400470252507995001VERA A. BORROMEO AND                                    10502
A1301400470252507995001MARY GRACE B. SANTOS                                    20500
B0101401670000006812342GALAHAD LABOR SERVICE COOPERATIVE                        1603
A0101406460272677065001YAPJUANGCO, DIVINA GRACIA T. OR                         10502
A0101406460272677065001YAPJUANGCO, SAMU                                        20500
A0101406620273540800001RODRIGUEZ, ANTONIO ALVAREZ                               0502
A0101412470000002136130DAVID, CECILIA SUMULONG                                  0502
A0101400570000000749651LIBERTY B. MALUBAY                                       0501
A0101400570000003891463LEGASPI, MELANIE SONON                                   0501
A0101400570000009187340***                                                      0501
A0101400570000009189273RODRIGUEZ, JENNIFER PORQUERINO                           0501
A0101400570281186617001DR. SALLY RACHEL T. MACAPAGAL                            0503
A2601400270000002677569DEXTER C. DUMRIQUE                                       0503
A2601400270000002257161RACHEL A. GALOLO                                         0502
B2601400270302047202001UY, EDGARDO PUA DBU AGAT MULTI GRAINS                   11606
B2601400270302047202001CENTER  JT                                              21600
A0801400160000000009492LORING, MARIA IA JOY ESPINOSA                            0502
A0801400160000002681729MA. FE M. FACTO                                          0505
A0801400160311478374103INAYAN, MERLINDA GUARDAMANO                              0501
A6601400120000000060711SIXTO C ESPINA III DBU LFCE                             10502
A6601400120000000060711PETRON JT                                               20500
A0101402350321296828002MARITES G. GASIS                                         0501
A0101405650322531153001VILORIA, MARITES QUINTOS                                 0501
A0101402510341198142001MA. VICTORIA M. AC-AC                                    0501
B0101402060351009368002RESINS INCORPORATED                                      1602
A0101402060351377158001CALIZON JR., MOISES VILLACORTE                           0501
A0201400760000005436482DYCHAUCO, NEIL SHERWIN PHUA                              0502
A0201400920000001331560AGUILA JR., ROGELIO VARGAS                               0501
A0101402930000002269183AVELLANEDA, EVALOR AVELLANO                              0501
A0101402930000007030980LEE, GWANGSHIN                                           0503
A0101402930000000859769SANTOS, VIOLETA DALUSONG  DBU                           10501
A0101402930000000859769VSANTOS TRADING                                         20500
A0101402930000003710790TE, WILSON ARRIOLA OR                                   10501
A0101402930000003710790TE, IMMANUEL ARRIOLA                                    20500
A0101408370382211448001DR. JOSE PAOLO A. PRADO                                  0501
A0101408370382433161001DR. ANTHONY MARC B. ANCHETA OR                          10502
A0101408370382433161001DR. CELINA Z. ANCHETA                                   20500
A0101415350000006213116CAMAT, RAYVINE FERRER                                    0501
A0101402770000007921022QUERI, HONEY DELA CRUZ                                   0501
A0101402770000001570725DBU CHRISTINE MANALO VILLAMORA                          10501
A0101402770000001570725INTERIOR DESIGNS                                        20500
A0101405490392341023001JAZMIN P. GONZALES                                       0502
A0101408950396565099001DR. BENJAMIN DANIEL S. VALERA                            0502
B010141221000000344877132ND STREET PRIME DINER INC.                             1610
B0101412210000005051370SMART & PLAN CONSTRUCTION AND                           11601
B0101412210000005051370CONSULTANTS INC.                                        21600
B0101412210000003881221SMART & PLAN CONSTRUCTION AND                           11601
B0101412210000003881221CONSULTANTS INC.                                        21600
B0101412210000007251647SMART & PLAN CONSTRUCTION AND                           11601
B0101412210000007251647CONSULTANTS INC.                                        21600
B0101412210399061660001NEWMINCO PACIFIC MINING CORPORATION                      1601
A2401400180411587639001GILBERO, EVELYN BUT-AY                                   0502
A1201400150421253022001GARCIA, LEONILA LANSANG                                  0501
A0101412760000001399351SACDALAN, JULIET HALILI                                  0502
A1901400160491063657001ASEPTIQUE TAILORING SHOP                                 0501
A1401400110492041611001BLUECLICKER COMPUTER CENTER                              0505
A1401400110492170180001TAI, KUO AN OR                                          10501
A1401400110492170180001SUMINISTRADO, BE                                        20500
A1601400170000000421161GEORGIA SOFIA GIMENEZ-LUISTRO                           10505
A1601400170000000421161OR LUISITO B. LUISTRO                                   20500
B0101405940000000002984SHINCREATIVE GLOBAL DESIGN INC.                          1602
B0101405940000000002984SHINCREATIVE GLOBAL DESIGN INC.                          1602
A0101408530000000594309JOHN REX V. ARENAS                                       0501
A0101408530000001885772LAMUG, JESELLE ANNE LANZONIDA                            0501
A0101412050519056257001BIHASA, GEORGE MARCO T. DBU                             10502
A0101412050519056257001JAZZ INNOVATIVE                                         20500
A0101403450000006055574*********                                                0502
B0101403450521353210002**********                                               1601
A0101403610531221338001REFORMA, MA. SHEREELLE A.    OR                         10502
A0101403610531221338001REFORMA, BENISON                                        20500
A2201400250561478374010ZENAIDA L. REYES                                        10501
A2201400250561478374010MEMBERS OF NATASHA                                      20500
A0101410690000000570672DE GUZMAN, DARLITO GARCIA                               10501
A0101410690000000570672OR YAO CHEN                                             20500
A0101404130000000165104SANTOS, MARJORIE GAY DIAMANTE                            0501
B0101404130601038411001SURELUCK WOOD ENTERPRISE                                 1601
A0101404130601694003001TAN, DE DION KHO OR                                     10501
A0101404130601694003001TAN, NANCY L.                                           20500
A0101407720000007936192CARPIO, BERNARDO SANTOS                                  0502
A0101407720602287906001FLORENCIO GERARDO                                       10505
A0101407720602287906001CAEDO JR. M.D.                                          20500
A0101407720602402391001ZARZA-GERON, VALERIE RACELA                              0502
B0101404260000004781266RD PAWNSHOP, INCORPORATED                                1605
A0101404260611478374108DELIA BACSA                                              0501
A0101404260000001725515NORA B. VALENCIA                                         0502
A0101409920000001951993PANGILINAN, CAROLINE B. OR                              10502
A0101409920000001951993PANGILINAN, MARI                                        20500
A0101407690000000587895MANLIMOS, AMALYN DELANI                                  0501
A0101413570000007451512JUNEDELL AZUCENA                                         0501
A0101413570656057648074NONALEAM DUMLAO                                          0501
A0101413990000001406564CONSEJEROS, MYRA M.                                      0501
B1301400210000008173751GALVEZ, ERIC FLORES DBU ERIC AND EL                      1601
A1301400210682782329001IMELDA R LANUZA OR                                      10501
A1301400210682782329001REGINO A LANUZA                                         20500
A1301400340683248882001SAW, EDUARDO LAI                                         0501
A0101408240000003955595BROWN-ARANETA, MICHELLE LANA                             0502
A0101408240711390504002ROXAS, CHITO OR SHEILA                                   0510
B2801400230000000372729KRJ TRADING                                              1602
B4101400390813766574001SCIENCE TECHNOLOGY INSTITUTE OF ROSARIO                  1602
A4101400390000001732565BOSITO, JOSIE LANGRES                                    0501
A4101400550000002091021PIYEZA MOLINO AUTO PARTS                                 0503
B0101404840851042694001YILIN FASTFOOD VENTURE INCORPORATED                      1610
A0101404840851452055002AREVALO, MARITES FAJARDO                                 0502
A0101404840851478374115ERLINDA O. PRADO                                         0501
A0101406750000004641576DAVID, SANDY DBU PRO BEATBOX                            10505
A0101406750000004641576ENTERTAINMENT CO                                        20500
A0601400230000000990052DAYAO, MARIBEL MASIBAC                                   0501
