B0101406040112821100608**********                                               2005
B0201400920375821200608**********                                               2005
A0101410690000003027603PANELO, REYLEE LOZADA                                    0502
A0101413440000006680766ENCINAS, THERESE URBANO,                                 0501
A0101410690600046558001RANDXELL'S DIGITAL PRINTING &                           10502
A0101410690600046558001PHOTOCOPY CENTER                                        20500
A0101405650000006273601H. NOOR, MALIKSAIF BANGON                                0501
B0101405940000003571737HOT DISK CORP.                                           1602
A0101400860011494998001**********                                               0504
A0101400860011496074002**********                                               0501
A0101400860011527983002**********                                               0501
A0101400860011528078001**********                                               0505
A0101401250021709223001ROLANDO F. ASTILLERO JR. OR                             10501
A0101401250021709223001GINA A. ASTILLERO                                       20500
A0101400150000006551215GILBERTO REPIZO OR                                      10502
A0101400150000006551215MYREEN REPIZO                                           20500
A0101400150000006551271MANAUIS, ARJAY CUNTAPAY                                  0502
B0101400150000001708681IRC PROPERTIES INC.                                      1605
B0101400150000006004160FIRST GTM PHILIPPINES, INC.                              1602
A0101400150061229832001DIANA HERNANDEZ-PERALTA M.D.                            10510
A0101400150061229832001P&D PERALTA MED.                                        20500
A0101400150061294042001YVONNE JOANNA P. MARCELO                                 0502
A0101400150061331787095MAYBEL G. DANTES                                         0502
B0101400600000000007741**********                                               1601
A0101406040112684740001***********                                              0501
B0101401830141037764001MICHAELJONA TRUCKING SERVICES, CO.                       1602
A0101400440000001440000LAPASARAN, MARY GRACE FRANCISCO                          0501
A0101400440000004901451*****                                                    0501
A0101407270000007918332ANGELITO SIMBA JR.                                       0501
A0101407270162331908140LORELA Z. ALIPIO                                         0501
A0101407270162333006016MA. CIELO VILLEGAS                                       0501
B0101401090000000772441B.A. ELECTRICAL SUPPLY                                   1620
A0101401090171196097001HERNANDO OR LEONCIA OLONAN OR                           10502
A0101401090171196097001BIANCA NIKKOLA OLONAN                                   20500
A0101401090171504210001ALBINA R. GANDALLA                                       0501
A0301400950000002252017**********                                               0501
B0101401380201030322001JOHNPAUL'S COMMERCIAL PLACE                              1606
A0101401380201554626001BANGURAN, MYRNA BRINGAS                                  0501
A0101412500000000739657****                                                     0501
B1001400190231020380001BOUNTY AGRO VENTURES, INC.                               1610
A1001400190000000124752LEGASPI, CAROLINA                                        0501
A1001400480000003357555RUAMAR, JOSE RONIE MARFA                                 0505
A1301400760253087654001CATHERINE F SANVICENTE OR                               10503
A1301400760253087654001VINCENT PAUL P SANVICENTE                               20500
A1901400290000003252622AEREEN CORTIGUERRA REYES                                 0501
A1901400290261488341038DR ALICE L LACORTE                                       0502
A1901400290261488341049DR. JOHN RODOLFO D. SUAN JR.                             0501
A1901400290261530754004DESSIRE MALALUAN ONG                                     0501
A0101401670000002341715DOLLISEN, JORGE REGALADO                                 0501
A0101406620000002009234INFANTE, DANDIN YANOS                                    0502
A0101406620000003661396**************                                           0503
B0101406620000000962512ALLIANCE SELECT FOODS INTERNATIONAL                      1605
A0101400570281385805001MARIA ELENA T. LAGNITON                                  0504
A0501400200292498779001******                                                   0502
A1101400120000001920485NAVALES, RICHARD GOMEZ                                   0501
B6601400120314612845001LOMAGDONG, PETER OR TANG, PATRICIA OR                   11602
B6601400120314612845001LOMAGDONG, JOYCE                                        21600
A6601400120314622580001SOSING, CAROL O. OR FELIPE A.                           10505
A6601400120314622580001OR CAROLYN O.                                           20500
A0101402350321180138001CALALES, MARILOU S.                                      0501
A0101402350321184585001AGUIPO, ADELA PADILLO                                    0501
A0101402350321597544001ARSITIO, ROBERTO T. OR ARSITIO,                         10501
A0101402350321597544001LUVIZMINDA L.                                           20500
A0101405650000002325571DEQUIT, DBU PHARMA ASIA DRUGSTO                         10502
A0101405650000002325571RE & GENERAL MERCHANDISE                                20500
A0101402510341478374008MARY GRACE B. ANDRES                                     0502
A0101402060351295053001VINCENT ADRIAN H. ERMITA                                 0501
A0101409050000003533424CHRISTOPHER S. PAPA                                      0501
B0101409050352044117001D VISAGE INTERNATIONAL CORPORATION                       1602
B0201400760374043348001EEIKAIWA INC.                                            1601
A0201400760374625386001MIKI, MASAFUMI                                           0501
B0201400920000000048020DONG JUAN CENTRAL CORPORATION                            1601
A0201400920375478374015GAYO, LOURDES O.                                         0502
A0201400890000005196432BARTE, ANNAMIE MONDARES                                  0501
A0201400890376535273001TOLEDO,HAROLD XAVIER OR CLIMACO                         10503
A0201400890376535273001BRYAN OR GUEVARR                                        20500
A0101408370382319789001ROCHELA B. CUAYCONG OR                                  10502
A0101408370382319789001CESAR A. CUAYCON                                        20500
A0101408370000005220182******                                                   0501
A0101408790000003811987AEA POWER BUILDERS                                       0502
A0101411660000004597213CHENG, PEARLY ANNE CRUZ                                  0501
A0101411660000005324130PENALBA, FRANCIS LEO MONTECILLO                          0502
A0101402770000006812611FELIX, ELEANOR MAKABUHAY                                 0502
B0101402770391032924001HARRIS MEMORIAL COLLEGE, INC                             1605
A0101408400000005286320AMEROL, ROSLINA MAROHOMSALIC                             0502
A0101409180000005326341DADAN, MIGUELLE MARCO BALANCAR                           0502
B0301400820000005991871ARCHIMED VENTURES INCORPORATED                           1602
A5501400120410275634002BAUTISTA, RYAN REYES OR PIODOS                          10505
A5501400120410275634002EMARIE LEE                                              20500
A2401400180411478374004MESRIYA ABDULLAH                                         0501
B1201400150000000473370BAGONG PAG-ASA ENTREPRENEURS SAVINGs &                  11605
B1201400150000000473370CREDIT COOP.                                            21600
A0901400220432478374002EVELYN ALGA DEMECILLO                                    0501
B0901400220432750068001NOCOM, JOSELITO GABRIEL                                  1601
A0101403320000007914705RICARDO J OLMEDO JR.                                     0501
A0101406330000007331677MANALIGOD, CAROL CARINO                                  0501
B0101412760000000767784YU, J DBU PRIME CUTS SOURCE GEN                         11603
B0101412760000000767784MERCHANDISE                                             21600
A0101412760000002306229DE GUZMAN, DUSTIN EWALD DANTES                           0501
B0101412760000002068082PRIME CUTS SOURCE GENERAL MERCHANDISE                   11603
B0101412760000002068082CORPORATION                                             21600
B1401400110492027100002SACRED HEART COLLEGE                                     1601
A1401400110492320667002AVERIA, SOLOMON DY OR                                   10501
A1401400110492320667002AVERIA, MA.SARAH                                        20500
A1601400170494083045001YONZON, KATHERINE BRONDIAL                               0501
B0101407430000001213056AERO EQUIPT AVIATION INC.                                1601
A0101407430503736499001CECILIA R. NALAUNAN                                      0501
B0101403580511005521001R.G. MANABAT & CO. (CONFI-ACCT)                          1602
B0101403580511038113001MACEDA VALENCIA & CO.                                    1604
A0101403580511151510002NOEL SALAZAR OR ARIZA MANGALILE                         10502
A0101403580511151510002OR SUSAN EVANGELISTA                                    20500
A0101403580511420184003MARIA CAROLINA S. MACASAET                               0515
B0101403580511669538001MATCHPOINT HR SOLUTIONS, INC.                            1610
B0101411400000000230300ANARCHY VILA INTERNATIONAL INC.                          1602
A0101412050000000890882********                                                 0502
B0101403450521011879001*********                                                1605
A0101403610531370621001KUMAR, MANISH                                            0502
A0101403610531441399002RACSA, ROLY MICHAEL ROXAS                                0504
B0101404000551005464003JOHN CLEMENTS CONSULTANTS INC.                           1620
A2201400250561478374025LUZMINDA M. GACILAN                                     10501
A2201400250561478374025MEMBERS OF NATASHA                                      20500
A0101410690000003027636BALIAO, JOVITA LINGGON                                   0502
B0101407720000000885645A.F. NAVARRETE CONSULTANTS & ASSOCIATES                  1601
A0101409920000001539522CEDENO, NOEMIE DEDICATORIA                               0502
A0101411530654089400001**********                                               0501
A0101413440000002125291VALDEHUEZA, MARILYN ADSUARA                              0501
A0101413570656057648039MARY ROSALIE D. ACUPAN                                   0501
A0101413990000000205898**********                                               0501
A0101413990000005252562VILLAREAL, ETHELINE GUANZON                              0505
B0101406590662045778001KAUNLARAN GROUP OF COMPANIES INC.                        1602
A0101406590662470961001VALMOCINA, ESTRELLA C. OR                               10510
A0101406590662470961001GUTIERREZ, MARY ANNE                                    20500
A0101406590662679888002*****                                                    0501
A1301400210000000983804REUEL L DE LEON                                          0501
A1301400340000005264773PURI, JOVILYN GRUTA                                      0502
B1301400340683353482001MARLENE R. JOSE OR JOSE MARI R. JOSE                     1602
A1301400500000002063992JOSHUA & JAMES CONSTRUCTION                              0503
A2801400100712017190002DE PESTERS PEST MANAGEMENT                               0503
B2801400100712258102002DE PESTERS PEST MGNT CONSULTANT BY:                     11603
B2801400100712258102002NAPOLEON CAMBA                                          21600
A2801400100000002253590REYES, MA. LERMA MARIANO                                 0501
A2801400230000001782130GOLDEN STATE ALUMINUM GLASS &                           10504
A2801400230000001782130GENERAL MERCHANDISING                                   20500
B4101400390813021892003FAREMO INTERNATIONAL, INC.                               1610
A4101400390813474614001VISORDE, LUNINGNING GERENA                               0501
A4101400550000007583700DEFENSOR, WILFREDA COS                                   0501
A0101412340000007396914MA. ARLENE T. CALANGI                                    0501
A0101412340000007305520ROWENA P. GONZALES                                       0502
A0101406750000006303413CALO, ROWENA AMISTAD                                     0501
B0101406750852041203001AUTOCIRCULO CORP.                                        1620
A0101405070861478374086MARLYN C. GABEST                                         0502
A0601400230891471229001LOLITA C. CRUZ                                           0501
B0101416870000401010112**********                                               2002
B0101416870920042000022**********                                               2001
B0101416450002002000829**********                                               2010
B0601400650920492000022**********                                               2001
