B1001400190231821100608**********                                               2002
A0101402060351211811002SHARON CATING LIM, M.D.                                  0505
A0101400860011488357001*************                                            0503
A0101400860011687970001**********                                               0502
A0101401250000007121400********                                                 0504
A0101411370022774052001MARISSA M. RAMIREZ OR                                   10502
A0101411370022774052001LEONARD M. RAMIREZ                                      20500
A0101400150000007280380HUMARANG, ROBERT HERNANDEZ                               0501
B0101400150061010962002PHILIPPINE WELDING SOCIETY INC.                          1603
A0101400150061552908001CHING, JOSELITO CENTENO                                  0501
A0601400100000002072657FERRARIS, JANNETTE CELIS                                 0501
A0601400100081253555002MENDIOLA, JOSEPHINE ADARVE                               0501
A0601400360000007539708VICENCIO, JORGE AMADO DIZON                             10501
A0601400360000007539708OR PILAPIL III, ANTONINO                                20500
A0101410560000005836262MORITA H. NACOR                                          0501
B0101400730000008233436NORTHSTAR TRAINING & CONSULTANCY IN                      1601
B0101401960121024414001LUNETA PARK FOOD COURT, INC.                             1610
A5001400170000002288311VILLAMIL, MARISSA PULIDO                                 0501
A0101400440161039572023JIMMY S. PALISOC                                         0502
A0101400440161520766159CHONA Y. ELUMBRA                                         0502
A0101400440161525001105VIRGIE B. CRUZ                                           0501
A0101400440161525001139JEMARIE S. SALUDAR                                       0501
A0101400440161525001173ELIZABETH V. FAJARDO                                     0501
A0101401090171195426001JEROME ARCANGEL OR                                      10503
A0101401090171195426001MA. CORAZON ARCANGEL                                    20500
A0101401090171198478001MAFEL C. YSRAEL                                          0501
A0101401090171598675001LADY ANN B. CUEVAS OR MARVIN                            10502
A0101401090171598675001GAYE P. ABRIGO                                          20500
B0301400660000000048224*****                                                    1610
B0301400660000002348541ERVY LOGISTICS                                           1601
B0301400950000002115202GUEVARRA, GEMMA D. OR                                   11601
B0301400950000002115202GUEVARRA, ARTURO                                        21600
B0101401380201034155001TINOLEY DIGITAL PHOTOGRAPHY INC.                         1605
B0101401380201044448088SWANSHOCK TRADING CO., INC.                              1602
A0101410720000000008642MC BUILT ENTERPRISES                                     0501
A0101410720653452116001VIRGILIO R. BACQUEL JR.                                  0502
A0101410720653565189001VICTO, BERNARD KING QUIJANO                              0503
A3101400870000005410360**********                                               0502
B1001400190231821200608**********                                               2001
A1001400350233510261001SOSMENA JR., FILEMON VEGA                                0503
A1901400290000008740056SANG SHIK YOON OR MYOUNG JA KIM                          0501
A1901400290261016395001GOLDEN OIL GASOLINE STATION                              0502
B1901400290261060606001F.J.H. HARDWARE & ELECTRICAL SUPPLIES                    1601
A1901400290261250069001DRA. JABES BUCE CARRASCOSO                               0505
A1901400290261357419001MARIA CRISTINA C CAYMO                                   0501
A1901400290261585775001LITA CUETO MENDOZA OR DORIS                             10502
A1901400290261585775001MARIE MENDOZA MEDINA                                    20500
A1901400290000003252702ELMER SANDOVAL GUYOS                                     0501
A0101401670271192170001GERARDO R. MENDOZA                                       0510
A0101400570000003891429RAFAEL, NORMA DUQUE                                      0504
A0101400570281186530001CARLOS AGUILA OR                                        10502
A0101400570281186530001MERCEDES AGUILA                                         20500
A0101400570281189230002REX EDWARD OR CRISTINA SUPAPO                            0501
A0501400200000000035630BUENO, RAYMUND M. OR BUENO,                             10501
A0501400200000000035630ANGELICA MODESTA                                        20500
A0501400200000005137188GANANCIAL,SHERLYN DBU MAX GEL                           10501
A0501400200000005137188ELECTRONIC SERVICE CENTER                               20500
A2601400270302561307001MEDEL C. RAMIREZ                                         0501
A6601400120314628682001JULATON, EMILY TORRES                                    0501
A2001400290000002319586VILLARMEA, GAYLE LOUISE OPADA                            0501
A2901400130000005961128**********                                               0501
A0101402510000003533060QUE, ALFREDO CHING                                       0503
A0101402510341196591001MARIA CORAZON SAPUAY QUINABO                             0501
A0101402060000002259925RICARDO, KEVIN CHRISTOPHER CORO                          0501
B0101402060351009431001RPP SAVINGS AND LOANS ASSOCIATION, INC.                  1603
A0201400760000005156485GESALEM, JONATHAN UY                                     0505
A0201400760000005710903ORLANES, GILBERT RUELO                                   0501
A0201400760374033157001WISE OWL GENERAL MERCHANDISE                             0501
A0201400920000002250146YEO, JOAN DANIEL                                         0505
B0101411660000000032242ALERT GENERAL SERVICES CORPORATION                       1608
A0101402770391211308001*********                                                0504
B0101405490392043958001LIPA TRADING CENTER                                      1601
A0101408400000002273252LUCZON, LANIER CABADDU                                   0501
A0101408400000008744798ARIMADO, DIANNE THEA GARCIA                              0501
A0101408400000001952883GABRIEL TAILORING AND GENERAL                           10501
A0101408400000001952883MERCHANDISE                                             20500
A0101409210000009966734ABRACOSA, ANGELICA DE CHAVEZ                             0501
A2401400180000006038280LEDESMA, JULIE ANN CALISTERIO                            0502
B0901400220432750068001NOCOM, JOSELITO GABRIEL                                  1602
A0101403320000010592862REYES, MARY JANE T.                                      0501
B0101403320471067145001GRAND JADE HOME HARDWARE AND SUPPLIES                    1601
A1901400160491062780001CAFE DE ALPS                                             0502
A1901400160491387269001EDGAR U UNTALAN OR                                      10501
A1901400160491387269001AILEEN B UNTALAN                                        20500
B0101408530516032963001387 AUTO CENTER, INC.                                    1602
A0101411790518055764187LACERNA, KARENENA MOAJEORMATION                          0501
A0101411790518705718003ABCEDE, JAY-ANNE SARIO                                   0502
A0101404130000001173591ARCE, MELISSA MAYOR                                      0502
A0101404130000006275909DEL ROSARIO, GIZELLE ROSE PADUA                          0502
A0101404260611478374096ADALIA D. ABCEDE                                         0501
A0101404260000003498373MA. DESIRIE J PATOC                                      0501
A0101409920650478374024DUMAWING, LUALHATI SANTIAGO                              0501
A0101409920000000998569MEMBERS OF NATASHA (SHOECAT INC                         10501
A0101409920000000998569PEDROSA, JULIE                                          20500
A0101414120000004603081BRIONES, HELEN RUTH PASCUAL                              0502
B0101414120000007655367RIX INTEGRATED CO., INC.                                 1603
A0101406590662347924001JULETTE BATARA                                           0510
A1701400230000004469712MUSNI JR., CARLITO  DBU FHAROYO                          0510
A0101408240000000347197VASAY, RUBY ANNE BUENAFLOR                               0502
A0101408240711399428001JOSELITO OR ROSEMARIE RAFAEL                             0501
A4101400260000003679943TAN, ANGELINA                                            0501
A4101400420814478374146ZETA B. CLIDORO                                          0501
A4101400550000006044651AAT COMPUTER SUPPLY                                      0502
A4101400550815478374008LORELYN C. PARCIA                                        0502
A0101412340000007305735LESTER A. MERAN DBU TYCOON                              10501
A0101412340000007305735MANOR ENTERPRISE                                        20500
A0101406750000001491732SUPAN, YANEZA STA MARIA                                  0501
B0101406750852041203001AUTOCIRCULO CORP.                                        1620
