B0601400100081821100608**********                                               2010
B1401400110492821100608**********                                               2003
A0101412890000004345146ORTIZ, ANGELO ENCISO                                     0502
A0101402060351043801001EMICOR MARKETING                                         0501
B01014020603514784560019R MANPOWER AND SERVICES INC.                            1601
A0101406620273563901001DELA CRUZ, GEMMA BELLE OR                               10501
A0101406620273563901001DELA CRUZ, BLESILDA                                     20500
B0101412890470821200608**********                                               2002
A0101400570281364099001RAUL NESTOR A. ANCHETA OR                               10503
A0101400570281364099001MARIA CARMEN ANC                                        20500
A2001400290315087033002ROLIDA, JASON UY OR ROLIDA                              10502
A2001400290315087033002SANDRA, UYMATIAO                                        20500
B0101402060351009544001RI CHEMICAL CORPORATION                                  1608
A0101409210000007762910PUNO, ANNA CRISTINA TEODORO                              0501
A2401400180000010248949CHAN, EUGENIO KEE                                        0501
B0101413990657821200608**********                                               2001
A0101400860000008653390*******                                                  0504
A0101400860011483349001**********                                               0503
A0101401250021546071001CABRERA, MARICEL LEONARDO OR                            10501
A0101401250021546071001GERALD CABRERA                                          20500
A0101400150000002749660PRIETO JR., ALEJANDRO RAMON OR                          10503
A0101400150000002749660PRIETO, MARIA ZENAIDA                                   20500
A0101400150000002902263***********                                              0501
B0101400150061447303001TANY FOUNDATION, INC.                                    1605
B0601400100081821200608**********                                               2005
B0601400360083787720001PISHON CLARK PHILIPPINES INC.                            1603
A0101410850000009034582UY, ROWENA RUBIDO                                        0501
A0101410850000002356910RUBIO, N DBU KEKIAKI GENERAL                            10501
A0101410850000002356910MERCHANDISE                                             20500
A0101410850000000472428RAFOLS, R DBU REY RAFOLS                                10510
A0101410850000000472428ENTERPRISES                                             20500
B0101410850000007294273BICOL OIL MILL & REFINERY CORPORATION                    1601
B0101410850109066494001MABOLO M2 TRUCKING & ENTERPRISES CO                      1601
B0101410560110821200608**********                                               2001
A0101400730000008619507*******************                                      0501
A0101412630000000045263HUERTO JR., PETRONIO ASINAS                              0502
A0101412630000000801621LIBREA JR., ENRICO MAURICE S.                            0501
A0101401830141281212001IMELDA G. CABALUM                                        0502
A0101401830000009555182LIM, RAMON CHRISTIAN MAULEON                             0501
A7201400170000003773017EDULSA, NELSON CALME OR                                 10502
A7201400170000003773017EDULSA, CRISANTA                                        20500
A7201400170000003774112AMPIL, FLOYD TABAYAG                                     0501
A0101400440000003671743ARGANOZA II, JOMYR CALUGAY                               0502
A0101400440000003671743ARGANOZA II, JOMYR CALUGAY                               0502
A0101400440000000821196JETHRO JEWELRY SHOP                                      0501
A0101400440000000821196JETHRO JEWELRY SHOP                                      0501
A0101400440000000821301TOPCOM CONVENIECE STORE                                  0505
A0101400440000007904858ASERON III, MELQUI DBU ASERON S                          0501
A0101400440161520766113MARIFE MANZANO                                           0501
A0101400440161525001174RIZALYN V. GUNTANG                                       0504
A0101400440161582425001JENNIE C. ARGANOZA OR                                   10501
A0101400440161582425001JOMYR C. ARGONOZ                                        20500
A0101400440161582425001JENNIE C. ARGANOZA OR                                   10501
A0101400440161582425001JOMYR C. ARGONOZ                                        20500
A0101401090171348816001MARCIANA AGNES G. PONSARAN                               0501
A0101401090171494997001RAMON OR VANESSA ANNE GONZALEZ                           0504
A0301400660000006862639TALADUA, RAPH ANTHONY FLORES                             0501
B0301400660000003406011*****                                                    1601
B0301400790195821100608**********                                               2001
B0301400790195821200608**********                                               2002
B0301400950000002115742LKT REALTY DEVELOPMENT CORPORATION                       1601
A0101413600000002276491PONCIANO E. RIVERA JR. OR                               10505
A0101413600000002276491TERESITA C. RIVERA                                      20500
A3101400740000010258476SOBOL, VALERIE GOROSPE                                   0501
B3101400740224041294004MOLD PARTS MANUFACTURING ASIA I                          1601
A1001400190000005709220PANANDIGAN, MITCHELLE BACUNATA                           0501
B1001400190231020614001LIM, CHARLES EDWARD W.                                   1601
A1001400350000007762403CABALUNA, MAYBELLE ONDAP                                 0501
A1301400470000003270471MARIA CELINA DJ. SIMON                                   0501
B0101401670271007482001VISEVERSA, INC.                                          1605
B0101401670271038486001POWER FASHION INC.                                       1605
A0101400570281200175001MARLENE M. GONZALES                                      0501
A0501400200000005751635PERDIDO JR., LEONARDO DIWATA OR                         10501
A0501400200000005751635FLORES, JOAN MAY                                        20500
B0501400200292021985001FOREST LAKE DEVELOPMENT, INC.                            1602
B0101405650000000772703BASE SECURITY AGENCY & INTER - INV. INC.                11605
B0101405650000000772703BSAI                                                    21600
B0101405650000005381897NUTRIMENTO PURO INC.                                     1603
B0101405650322543721001OMNIBILT CONSTRUCTION AND MAINTENANCE                   11602
B0101405650322543721001INC.                                                    21600
A0101402510341433983002********                                                 0505
A0101402510341433983003********                                                 0505
A0101402510341433983007********                                                 0505
A0101402510341511864003JACALAN JR., TIRSO WILLIAMS                              0501
B0101402060351009762002NETERCO-PHILS., INC.                                     1605
A0101402060000000175911CHUA, RENATO BANDRIL OR BONDOC,                         10503
A0101402060000000175911NARCISA NAVARRO                                         20500
A0101409050000006319651JONGKO, JELAINE MASANGKAY                                0501
B0201400920375035929001UPLAND STOCK FEEDS, INC.                                 1602
A0201400920000002804480MIRANDA, SAMMY                                           0502
A0201401020000009499110LORENA G. UNIDO                                          0501
A0101408370382461772001MACARR_PARKING CORP.                                     0506
A0101408370382663801001DRS. RICARDO G. ROCO OR                                 10503
A0101408370382663801001URSULA V. ROCO                                          20500
A0101415350000007877852PELAYO, JESCTONI TORRES                                  0502
A0101402770391195487002APILADO, FEDERICO C.                                     0501
A0101402770391338470001ALARCON, EMELITA DE LEON                                 0501
A0101408400394038560001R-FER ENTERPRISES                                        0501
A0101409210000002802735COLORADA, SHEILA ANDRES                                  0501
A0101412210000008068713BEJOSA, THEEZA DANIELLE PEPITO                           0501
B0101403030441238962002**********                                               1601
B0101403030441239806001JETCO MOTOR SALES                                        1604
A0101403030441299321002**********                                               0501
A0101406330472207383001*****                                                    0501
A0101406330472298552001EDWINA M. PADERNAL                                       0501
B0501400170481013100002DAGUPAN IMAGING CENTER                                   1602
A0501400170481259032001DR. OSCAR RAMIREZ OR                                    10503
A0501400170481259032001DR. NENITA RAMIR                                        20500
B0501400170481403222001VILLAFLOR, VIVENCIO V. OR                               11603
B0501400170481403222001RAMIREZ, OSCAR                                          21600
B1401400110000003475643*******                                                  1602
A1401400110492364401001RAFA,RAQUELITA OR RAFA, RENE OR                         10501
A1401400110492364401001RAFA,REI ANTHONY                                        20500
B1401400110492821200608**********                                               2001
A0101407430000000521071TERESITA V. LORENZO                                      0501
A0101407430503557193001ENRICO P. ERIDIO                                         0501
B0101403580511005591001PUHUNAN INC.                                             1603
A0101405940512151522003********                                                 0501
B0101403450521011666002********                                                 1603
B0101403450521011947001**********                                               1602
A0101403450521239777001**********                                               0501
A0101407720602210403001JOSEPHINE QUINTOS-APOSTOL OR                            10503
A0101407720602210403001CARLOS FAUSTINO                                         20500
A0101407720602343467001HENSON, GERARD FORES                                     0502
B0101404260611027402002ENTRUSTED CORP                                           1605
A0101404260000000550105CADION, ROVI KALAW                                       0502
A0101404260611478374075VIVENCIA HATOL                                           0501
A0101409890000006277552TIU, BEAUTILLISA ADIONG                                  0501
B010141030000000019166624-HOUR MOVER SERVICE COMPANY                            1604
A1301400210682246147001MA. ANGELA O. CELERIDAD                                  0502
A1301400210000005040253GONZALES, CELINE ANGELICA BUHAI                          0501
B1701400230000002762525TOWN BAKERY AND CITY GROCERY INC.                        1602
A1701400230000008555335GARCIA, AURORA RAMELB                                    0510
A1701400230693478374044CECILIA CORRALES                                         0501
A0101408240711396310001LESTER C. VICTORIA OR                                   10502
A0101408240711396310001GIL JOSE E. PULUMBARIT                                  20500
A4101400260000000974045ANTONIO, WILFREDO GALANG                                 0501
B4101400260812046539001PALIPARAN-BACAO MANPOWER SERVICE CO                      1601
A4101400260812389694002OLIVIA P. RODEROS                                        0501
A4101400390813478374003AUXTERO, ELANE                                           0501
A4101400420814520766051GANZON, WILMA A.                                         0501
A4101400420000000120798MILO, ROMELDA F.                                         0501
A4101400550000003266982*****                                                    0501
A0101412340000000484822GARCIA, JERIELLE CAGASAN                                 0501
A0101412340000009839201JUSTIN CLAIRE S. LIM                                     0501
A0101404840000004565782GRANADO, JEAN B.                                         0501
A0101404840851217637017AMELIA L. FLORDELIS                                      0502
A01014067508520359810014K MEDICAL & DENTAL SUPPLY                               0503
A0101406750852774013001MARK JEROME SAQUING OR MARY ANN                         10502
A0101406750852774013001SAQUING                                                 20500
A0101405070000000414548BALSAMO, VINCENT ALIOY                                  10501
A0101405070000000414548OR BALSAMO, MYLA                                        20500
B0101405070861043213001TEKTON CONSTRUCTION CORP.                                1605
A0601400230000000990063**********                                               0506
