B0101408530516821100608**********                                               2010
A0101414120000000398950PENGSON, LORNA GUTIERREZ                                 0502
A0101414120000005252864MVG HARDWARE                                             0502
B0101414120000004603296MEGAMAN VENTURES AND CONSTRUCTIONS,                      1603
B0101405940512038848001JADE ENTERTAINMENT AND GAMING                           11603
B0101405940512038848001TECHNOLOGIES,INC                                        21600
A0101400440161520766079MARCELINA LAPUZ                                          0502
B0301400950196821100608**********                                               2002
B0101403580511821200608**********                                               2001
A0101414120000003584150NICOLO-MARTIN MARKETING                                  0501
A0101400860011669207001**********                                               0505
B0101400150000000633094KINETIC PHILS. ELECTRICAL CONSTRUCTION                  11604
B0101400150000000633094INC                                                     21600
A0101400730000000645692ELEGIDO, FELIX ERIA OR                                  10501
A0101400730000000645692LEONA D. ELEGIDO                                        20500
A0101400730111375290001TOLENTINO, NERREN VIRAY                                  0510
A0101401960000005392496LAPORE, ROMEO FELIPRADA                                  0502
B0101401960121024740001**********                                               1605
A0101413150000001288331******                                                   0501
A0101401830000001281910DE GUZMAN, CONCEPCION FRANCISCO                          0501
A0101401830141465885001IDUROT, CHARISSA V.                                     10501
A0101401830141465885001OR IDUROT, UZIEL S.                                     20500
A0101401830141752259001CARANDANG, FREDERICK ANGELES                             0501
A0101400440161525001033MARY JANE V. MACALINAO                                   0501
B0101407270000003254395SUCCERO SERVICES CORPORATION                             1603
A0101407270162333006037JANNET OROSCO LOCSIN                                     0501
A0101407270162479362001ERYMAR D.C. REYES OR                                    10502
A0101407270162479362001AUBREY S. REYES                                         20500
A0101407270162587936002WILFRIDO G. TIRONA                                       0501
A0101401090000005320314**********                                               0505
A0101401090171201345002MA. CECILIA OR RAMIL                                    10502
A0101401090171201345002TIO CUISON                                              20500
B0301400530000003573528RD PAWNSHOP, INC.                                        1601
A0301400530000003573288COSMENO, JELLY JUANILLO                                  0501
B0301400660000000048326CANADA, PAULENE CHAVEZ                                   1605
A0301400660000005691767VILLALBA, ERIKA MAITA VILLAGRAC                          0501
A0301400790000003969564CONANAN, EVE MOMONGAN                                    0502
A0101413020000000880553***************                                          0502
A0101413600000003134556BERMIN L. TIU                                            0502
B3101400160221013530024RD PAWNSHOP, INC.                                        1603
A1001400190231235649001DUGADUGA, METHOSALEM                                     0501
B1001400480000003357840BALDADO, MARIA LYDIA PEPITO DBU JOMARI                  11601
B1001400480000003357840TRUCKING SERVICE                                        21600
A1301400760000005990021VELASCO, MARYLYN SAMSON                                  0501
B0101400570000000031687PHILIPPINE DERMATOLOGICAL SOCIETY, INC.                  1601
A0101400570281188687001LORGENE A. MATA OR                                      10503
A0101400570281188687001CLARISSA MATA                                           20500
A0101400570000003891561YU, LESTER CO                                            0501
A0101411240000002332496LAWAN, CARINA CRISOLOGO                                  0501
B0101411240283046151001DISTINCTION LAMPS AND FURNITURE, INC.                    1601
A0501400200000005751782MISLANG, JANELY DELA CRUZ                                0502
A2601400270000002312221BETTY D. ABUAN JR. OR                                   10503
A2601400270000002312221JOCELYN C. ABUAN                                        20500
B0801400160311043928001DELIFRANZ BACKEREI, INC.                                 1602
A3401400280000001723531PAJUTINING, JANICE GIGAN                                 0501
A2901400130000005961260TORRALBA, MYLA S. DBU MAURO'S L                          0503
A0101402350321365573001CORAZON M. FERMIN OR ROSARIO C.                         10501
A0101402350321365573001MERCADO OR JOSE                                         20500
A0101402510341459564001YU, ELIZABETH ANN DIZON OR                              10502
A0101402510341459564001YU, MONICA ANN D                                        20500
B0101402060000006931979ESLA LAND DEVELOPERS, INC.                               1606
B0101402060000006931991ASSURANT BPO SOLUTIONS INC.                              1601
B0201400760374043666001FORMWORKS RUBIA ARCHITECTS                               1601
B0201400760374047828001MTO TECHNOTRENDS INC.                                    1602
B0201400760000001612802CRUISERS PROPERTY MANAGEMENT CORP.                       1601
B0201400920000000048020DONG JUAN CENTRAL CORPORATION                            1601
A0201400920000000991766**********                                               0501
A0201400920375034984002CITY LIGHT ELECTRONICS SERVICE                           0505
A0101402770000000360785BETANIA, PONCIANO DBU                                   10501
A0101402770000000360785LBAJ ENTERPRISES                                        20500
A0101402770391478374049DELA TORRE, EDITHA ZARAGOZA                              0501
A0101408950000001760607PANDAN, MARIA JANET MAPA                                 0503
B0301400820000005991871ARCHIMED VENTURES INCORPORATED                           1604
B2401400180411057100001L.H.E. CONSTRUCTION & INDUSTRIAL                        11604
B2401400180411057100001SERVICES, INC.                                          21600
A2401400180411478374044UGAT, ELVA T.                                            0502
A0101403030441239106001**********                                               0501
B0101403030441314128003**********                                               1601
B3801400170490058867001KATIPUNAN FOODS SERVICES, INC.                           1610
B0101407430000001213169FAST LANE INTERNATIONAL LOGISTICS INC.                   1601
A0101407430000001028831LAMBERTO C. AQUINO                                       0502
A0101403580511156578016RANDY TOLENTINO                                          0501
A0101403580511399649001RIVA B. APELIT                                           0501
A0101403580511592154001ERLINDA L. BUCUD                                         0501
A0101405940000005359782************                                             0505
B0101403610000006637114RD PAWNSHOP, INC.                                        1603
A2201400250000001065941SAKAKURA, YUJI                                           0501
B0101407720000006028166MEDGATE PHILIPPINES, INC.                                1601
A0101407720000000245203*********                                                0502
A0101407720602381639001MARIA PRINCESS L. KANAPI                                 0501
A0101407720602496503011KANDY KANE F. BORJA                                      0501
A0101407720602527643001IGNACIO, ROBERTO GERARDO MASLOG                          0502
A0101404260611042511001KEN TAXI                                                 0505
A0101409920000001951880MEMBERS OF NATASHA (SHOECAT INC                         10502
A0101409920000001951880DEJUCOS, PURITA                                         20500
B0101413440000008938678QUERI, ROLANDO OR BERNADAS, MELCHOR OR                  11602
B0101413440000008938678ARGUELLES,JOSEPH                                        21600
B0101414120000000399195SAMAHAN NG MGA MARALITA SA SITIO                        11601
B0101414120000000399195MABILOG, INC.                                           21600
A0101406590662408363001BUENAVENTURA, ROBERTO OR                                10501
A0101406590662408363001BUENAVENTURA, VANESSAJANE                               20500
B1301400210000000540890EL MOLINO CONSTRUCTION SUPPLY CO.                        1603
B1301400340683045643001JOURNEY ELITE MOVER'S CORPORATION                        1602
A1301400340683456739001LAZATIN JR., EDUARDO NIONES                              0501
A2801400100000000188294MENDOZA, VERNIE E DBU VEJ                               10502
A2801400100000000188294TRADING                                                 20500
A2801400100712495268002LEE, JOSEPHINE GLECINDA TULAO                           10501
A2801400100712495268002LEE, JAMES TAN                                          20500
A4101400260000003680073AYUSTE, PRINCESS PENALOSA                                0502
A4101400550000006044457PENA, MARJORIE HIPOLITO                                  0506
A4101400550000010177750DELA PAZ, MARFELY ORIAL                                  0501
A4101400550000010177892REGONDOLA, MA LOURDES APOSTOL                            0501
A4101400550000010177983REGONDOLA, KENNETH BRYAN APOSTO                          0501
A4101400550000010178042PELLAZAR, LILIBETH MELO                                  0501
A0101412340000002900330ROSELLE B. BORBE                                         0501
B0101404840851013980002VIC IMPERIAL APPLIANCE CORP.                             1601
A0101406750000006303588CHUA, LEA THERESE LUCRECIA CANT                          0501
A0101406750000001491841PULIDO, MARIA LUISA T. OR                               10502
A0101406750000001491841PULIDO, ROMEO J.                                        20500
A0101405070861202773002HUI, CHING CHUEN                                         0501
A0101405070000003439741ALARO, JHON REY PADURA                                   0501
A0601400230000005510229PONCE, LOURDES TANJUTCO                                  0501
A0601400230000007402224ANGELES, JAY MANABAT                                     0501
A0601400230000007252742GUTIERREZ, LEIZEL YABUT                                  0502
A0601400230000000045230VICENCIO, M DBU HCON BUILDERS &                          0502
