B0101402480331821100608**********                                               2010
B0101402480331821100608**********                                               2010
B0101402480331821100608**********                                               2010
B0101402480331821100608**********                                               2010
B0101402480331821100608**********                                               2010
A0101406880513492451001CHAN, RAYMOND AMOR                                       0501
A0101406880513562329001ROXAS, STEPHEN CHIONG                                    0502
B0101413730000000469734L.Y.S. HARDWARE & INDUSTRIAL SALES INC.                  1606
A0101400440000000821538MARITES T. JIMENEZ                                       0501
A0101400440161478374198EUFRONIA I. BERGONIA                                     0501
A0101400440161539330001SUBA, MARINEL BONGBONGA                                  0501
A3101400160221061032001CARABIDO, GIDEON ARIZAPA DBU                            10501
A3101400160221061032001SIPRA CLOTHIERS                                         20500
A3001400130000002063441JONGKO, JOSE MARI MARCO OR                              10502
A3001400130000002063441JONGKO, DEBORAH                                         20500
B3001400130230043534001BERRY HAPPY MART INC.                                    1603
A3001400130230478374026SONOT, RODERICK AMAHOY                                   0501
A0101402930381706358002**********                                               0501
A0101409920000001539573ARELLANO, ESTER                                          0501
A0101411530000006217512**********                                               0502
B0101413860000001768107ALLSTAR WORLDWIDE EXPRESS CO.                            1603
B0101413860000001768016GOLD PATCH LINK INTERNATIONAL, INC.                      1603
B0101400860011305536001**********                                               1601
A0101400860011498256002**********                                               0503
A0101400860011550744001**********                                               0502
B0101401250021006627002STA. CLARA PARISH CREDIT                                11601
B0101401250021006627002COOPERATIVE                                             21600
B0101401250021016688001ST. MARY'S ACADEMY-PASAY CITY, INC.                      1604
A0101400150000001422100BAUTISTA, IRWIN GLENN BAL                                0501
B0101400150061010833001VELCA TRAVEL & TOURS, INC.                               1602
B0101400600071011304001**********                                               1602
B0101400600000001335637**********                                               1602
B0101405810000000016811SK PLASTIC RELIANCE COMPANY                              1603
A0101405810000001021172PUA, C DBU MCK SCHOOL & OFFICE                          10503
A0101405810000001021172SUPPLIES                                                20500
A0101405810072265481001PLAZA, LEONORA LIM                                       0503
A0101405810000000016559CHUA, HEMAN LAO                                          0501
B0101410560000000020355YUMANG, AMOR VERGARA OR DAGUIO, MELARITA                11602
B0101410560000000020355LA TORRE                                                21600
B0101400730111201825001HEIRS OF CALIXTO CHIKIAMCO                               1601
A0101400730111386485042ELENA B. PEREZ                                           0502
A0101406040000000096979********                                                 0503
B0101401960121024740001**********                                               1606
A0101412630000004062086BANZUELA, ELEANOR ADORNA                                 0502
B0101412630000002186570JEC REALTY CORPORATION                                   1603
B0101401830141008844001BM POWER SUPPLY & ELECTRIC SERVICES                      1605
A0101400440161039572072MEDITA P. ALIMPUANGON                                    0501
A0101407270000006189342MACATANGAY, RAUL MANALO                                  0502
A0101401090171196066002MARY JOCELYN OR REDARIO LAYGO                            0502
A3101400160000001169262ANTILLON, HONEYLET SANTIAGO                              0501
A3101400450223320762001DRA. NATIVIDAD CARIAGA                                   0502
A3101400740224046678001INSON WATER MARKET                                       0503
A3001400130000000068364SALEM, RICHEL TRUGILLO                                   0501
A3001400130000000007041CHAQ GLASS & ALUMINUM SUPPLY                             0501
A3001400130000001271312SHAPE & WELL NUTRITIONAL                                10501
A3001400130000001271312PRODUCTS                                                20500
A1001400190231478374162TORAYNO, DELILAH B.                                      0501
A1001400480000000041545SADIE, GILDA DIAZ DBU RGIE                              10505
A1001400480000000041545TRADING OR SADIE, RICKY S                               20500
B0101406620273026285001DBQUEST, INC.                                            1602
B0101406620273041055001UST HS BATCH '72                                         1601
A0101406620273236978001CALLEJA, HOWARD MACEDA                                   0503
A0101406620273306796004FE FORTUNATA R. RIO                                      0501
A0101406620273446883001VERZOSA, SALUD                                           0502
B0101408660000001940610WESTMINN CONSTRUCTION AND DEVELOPME                      1602
A0101400570281186627001GRACE R. BATTAD                                          0502
A0101400570281188241001CUNANAN, MA. CORAZON Z.                                  0505
A0101400570000000749628LANIE V. GARCIA                                          0501
A0501400200000004456968******                                                   0510
A2601400270302782510001JENNY C. QUESADA                                         0501
A0801400160000003976370ESPINOSA, MANUEL VINCENT OCCENA                          0501
A0801400160311406638002TAN, DELIA PATRIMONIO                                    0502
B2001400290315528399001**********                                               1601
A3401400280318478374006LOVERAS, EMCY DEL ROSARIO                                0505
A0101402350321179307001GRACE C. AUJERO OR                                      10501
A0101402350321179307001FREDELINO L. AUJERO                                     20500
A0101402510341733749002ALCALA, GINA CALA-OR                                     0505
B0201400760000005016671PILIPINAS DONGYUE AUTOCLAVE AERATED                      1603
A0201400890376058683001JUICYFIED HEALTHY CAFE                                   0502
A0101402930000003710723PANGILINAN, EMILIO CRUZ OR                              10505
A0101402930000003710723PANGILINAN, LIZA MARY C.                                20500
A0101408370382205161001DR. WILLY G. LOPEZ                                       0505
A0101411660000006727666MA CECILIA SISON                                         0501
A0101411660000005324021BAUTISTA, JAYSON GIL BOMBAIS                             0501
A0101402770391404096001PANLILIO, MYLENE BAGON                                   0503
A0101408400394563581001ISON, AMERIZZA GOMEZ                                     0501
A0101408950000000036951RICHARD TANSECO HIZON                                    0501
A0101408950396615148001COBARRUBIAS, PAUL DESTREZA                               0502
A0101409180000003866677WITTIG, LARS BENDSON                                     0501
A0101409210000006796112UY, ELAINE GRACE PENALOSA                                0501
A0101409210000006796225CHUA, CHARLES JANSEN CABILANGAN                          0501
B0101409210000002783384ELEVATE PHILIPPINES INC.                                 1604
B5501400120410041534001NOTRE DAME OF NEW ILOILO, INC.                           1602
A5501400120410656138002OBINA, ANGELITA URETA                                    0501
A2401400180000003949140UY, RUBING SIOCO                                         0501
A2401400180411044483001OUR LADY OF PERPETUAL HELP                              10501
A2401400180411044483001PARISH                                                  20500
A2401400180411514423001DEALA, BERNARDITA GATCHALIAN                             0501
A2401400180411666777088DE MESA, FRANCISCA GUBUAT -                             10504
A2401400180411666777088NICESIAN STORE                                          20500
A1201400150000002325071BACAGAN, ARIGEL LONOGAN                                  0502
A0901400220432478374002EVELYN ALGA DEMECILLO                                    0501
A0101412890000001056575UDOG, MA GINA SAN PEDRO                                  0503
A0101412890000006790196SAN PEDRO, JOSE GERRY FLORES                            10501
A0101412890000006790196OR SAN PEDRO, JEAN SY                                   20500
B0101403320471019960002DIRECT ELECTRIX EQUIPMENT                               11604
B0101403320471019960002CORPORATION                                             21600
B1901400160491027966001SALESFORCE ONE MARKETING, INC.                           1605
B1901400160491029733001PAWNCARE SERVICES INC.                                   1605
A1601400170000000421047JUVY G. VILLANUEVA DBU                                  10502
A1601400170000000421047THE BICOL GREENLEAF                                     20500
B0101406880513036413001VISAYA KNOWLEDGE PROCESS OUTSOURCING                     1606
A0101411790000006797939LOTA, JEANNI MAE PIDO                                    0501
A0101411790000006797980VALDEZ, NATHALIE ESPIRITU                                0501
A0101411790518055815182VILLAGRACIA, MADELYNE MAI OCADO                          0501
B0101403450521011872001**********                                               1601
B0101403450521014870004PARAMOUNT LIFE & GENERAL INS. CORP.                      1604
B0101403450521017837001**********                                               1601
A0101403450521238220001**********                                               0502
A0101403610531308186001ANDAL, REGINALD R. OR                                   10503
A0101403610531308186001ANDAL, MA. PENEL                                        20500
A0101404000000001187019***                                                      0501
A2201400250000001932258RCT MED PHARMA CORPORATION                               0502
A2201400250561478374062JENNIFER M. RAMOS                                       10501
A2201400250561478374062MEMBERS OF NATAS                                        20500
A0101407720602295336001AGUIRRE, ANGELITA MIGUEL                                 0501
A0101404260611478374017BERTULANO, LUZVIMINDA                                    0502
A0101409890000006800039GORGONA, SEM OR ARENZANA, GAMAL                         10501
A0101409890000006800039IEL OR LAURA, LEO OR JUNA                               20500
A0101411530000002260271**********                                               0502
A1301400210682247780001AILEEN A. MUNOZ                                          0502
A0101408240711046744001NAGTALON, B DBU SINCERAE                                10501
A0101408240711046744001BAKESHOP                                                20500
B0101408240000000832893WOWA'S FAST FOODS INC.                                   1610
A0101408240711292762001HERMINA H. TAGAYUN OR                                   10502
A0101408240711292762001CRIS B. TAGAYUN                                         20500
A0101408240711478374008CRONILA C. COLO                                          0501
A2801400100712580150001FELIZARDO, DYNALYN ARGOS                                 0501
B4101400550000000900036BACOOR DOCTORS MEDICAL CENTER INC.                       1603
A4101400550815693134001LLANES, TUDOR HERNANDEZ OR                              10501
A4101400550815693134001LLANES, PRESCILLA CARRIDO                               20500
A0101404840000000475952GONZALES, ROWENA POLLICAR                                0502
A0101404840851046725013MARY JANE A. DE GUIA                                     0501
A0101404840851298552055MELBA C. ENGBINO                                         0502
A0101404840851520766063LORELIE P. DALIGDIG                                      0501
A0101404840851520766073ELIZABETH A. SUAZO                                       0501
A0101406750000003393111BARANDA, ANA-ELISA MAICO                                 0501
A0101405070861027133001WORLDLINKS CABLE WORKS                                   0502
A0101405070861567893001MABANDOS, ELMA ENRIQUEZ                                  0501
B0601400230891043090001HAIMA CARS CORPORATION                                   1603
