B0101403030441821100608**********                                               2005
B0101401700041821100608**********                                               2005
B0101401120131821100608**********                                               2002
B1201400280671821200608**********                                               2001
A0601400520000001349582MANALOTO, ISRAEL CUNANAN                                 0503
A0601400520000001349719MAGTOTO, KELVIN DBU CALULUT                             10505
A0601400520000001349719CONVENIENCE STORE                                       20500
B0301400530193041338001CALIAN AGRI-VENTURES, INC.                               1605
A2401400180411478374047YOLANDA L. NINGAL                                        0502
B0501400170000000018408COLEGIO DE DAGUPAN, INC.                                 1601
B0501400170481023482001ARZADON LEISURE CORPORATION                              1605
A0501400170481062103001ANG, JUSSLYNN MAISIE ONG DBU SO                          0501
A0501400170481253455001NORMELITO QUIMO OR IRENE QUIMO                           0502
B1601400170494821200608**********                                               2001
B2601400140691821200608**********                                               2001
A0101401250000002763346**********                                               0505
B0101401250000000057203CONTEMPORAIN FOODS, INC.                                 1601
A0101401250021713630001RUTH E. LUMAWAG                                          0502
B0101401700041821200608**********                                               2002
B0101400150061010900001ROTARY CLUB OF MAKATI SOUTH                              1602
B0101400150061030497001NAF GLOBAL INC.                                          1610
B0101400150061048055001HOME DEVELOPMENT MUTUAL FUND                             1601
B0101400150000000633094KINETIC PHILS. ELECTRICAL CONSTRUCTION                  11602
B0101400150000000633094INC                                                     21600
B0101400150061227575001INTERCON FUND RESOURCE, INC.                             1601
A0101400150000002749615CAINAP, MAY NABO                                         0501
A0101405810072236268001KENG, LOUELLA JOCELYN BARRETTO                           0501
A0101405810072361243002PONSARAN, MARY JANE RAMOS                                0503
B0601400100081044381001BWSI-CLPI BRANCHES, INC.                                 1603
B0601400100000002099330RDF FEED, LIVESTOCK & FOODS, INC.                        1610
A0601400100081254011001PANLILIO, MARIE CARMEN OR                               10501
A0601400100081254011001PANLILIO, AUGUST                                        20500
B0601400100081256915004WILLIAM G. KWONG OR ANTONIO, ADELA                       1603
B0601400100081256915005KWONG, WILLIAM G. OR                                    11604
B0601400100081256915005ANTONIO, ADELA                                          21600
A0601400100081379374001YUMUL, JOSE LAYUG                                        0503
A0101413280000002317671MA. CRISTINA DUMIGPE                                     0501
A0101413280000005084931KINTANAR, NORMA CHRISTIE VILLAL                          0501
B0101414090108062652001GAJUKI ENTERPRISE                                        1601
A0101410850000007904723CU, ELBERTO ZALDIVAR                                     0501
A0101410560000002316569**********                                               0501
B0101401960121011793001CAPITOL STATIONERY MFG. CO., INC.                        1605
B0101401120131821200608**********                                               2001
A0101400440161029925001VESPER INSURANCE ADJUSTERS                               0503
A0101400440000000060200LANIE C. BALISONG                                        0502
A0101400440000000596629ZENAIDA O. CALLEJO                                       0501
B0101407270162037305001MICROGOLD INFORMATION SOLUTION AND                      11610
B0101407270162037305001PRODUCTS, INC.                                          21600
A0101407270162401795001MAHOR, NICOLAS C                                         0501
A0101401090171196057001ALITA R. CONDE                                           0502
A0101401090000001611427QUINTO, EDWARD ASTORAS                                   0501
B0301400660000003362007PAMAT, JULIETO CANETE                                    1601
B0301400660000000022824PHILSAGA MINING CORPORATION                              1605
A0301400660000000048359DIZON, ROMULO ENRIQUE MANGA                              0501
A0301400660194606143002ANGCOS, ROEL ONGCOY                                      0501
A0301400790000001010619CABASAG, JEY R LAGONOY                                   0501
A0301400950000002115446*********                                                0501
B0101401380201006932003PITSTOP, INC.                                            1603
B0101401380201183447002CASINO BAR PHILS., INC.                                  1603
B3101400160221025324001LAGUNA MRI CENTER INC.                                   1620
B3101400160221031027001ALLIED DOCTORS FOOD RESOURCES, INC.                      1605
A3101400450223529066001MORENO, MICHELLE CALALO                                  0503
A3001400130000000007063GOLDEN HARVEST CATERING SERVICE                         10502
A3001400130000000007063FASTFOOD                                                20500
B1001400190231273242001INTEGRATED LIVESTOCK & POULTRY                           1601
A1001400350000000922401COLEGIO, ELEANOR DAEL                                    0501
A1301400470252634995001LOUISE L. ANG AND LOED L. ANG                            0510
B1301400760253038825002VOLT HAROLD MARKETING CORPORATION                        1601
B1301400760253047879002DON PHILIP MARKETING CORPORATION                         1601
B1301400760253051030002ROYCE CREDIT AND FINANCIAL SERVICES,INC.                 1601
B1301400760253062601001EXTREME MOTOR BIKE TRADING CORPORATION                   1601
B1301400760253062602001VOLT IVAN MARKETING CORPORATION                          1601
B1301400760253062604001KEVIN HENRY MARKETING CORPORATION                        1601
B1301400760253062605001ROYCE MOTORCYCLE TRADE CORPORATION                       1601
B1301400760253062606001JAN WILLIAM MARKETING CORPORATION                        1601
B0101401670000000739219HYDRO-TECH ENVIRONMENTAL MGT. INC.                       1603
A0101406620273306796024MA. LIWAYWAY TAN                                         0501
A0101406620273417637001LAPUZ, ANNE SHARLYNE GOBOY                               0502
A0101408660000005109853BALDOZA, JOAN JEAN FAJARDO                               0502
A0101410980000006014335LIM, JENNIFER MARIE WEE                                  0501
A0101412470000002136049THAL BUILDERS                                            0503
B0101400570281059415001EPISCOPAL CATHEDRAL OF ST. MARY &                       11601
B0101400570281059415001ST. JOHN, INC.                                          21600
A2601400270302698462001ALBERT OR NELIA LIM                                      0502
B0801400160311268198001JOHNEL REALTY DEVELOPMENT CORP.                          1601
A1101400120000006186401DOROJA, LORIEFE  T.                                      0501
A0101405650000005284339GALLEGO, RHYAN CAELIAN                                   0502
B0101402510341060430001********                                                 1601
A0101402510341541325002GO, JONATHAN TING                                        0501
A0101402060351483772001CAPUMPUE, ADOR PEREZ                                     0503
A0101409050000000999551BORJA, ARIANNE MAE KRIS BERNAS                           0501
A0101409050352648933001ROSEMARIE D. ANTONIO                                     0501
A0201400890000003163711ESPINA, JOSE AARON ROSKA                                 0501
A0201400890000002270231CORTES, MARICEL M.                                       0502
A0201400890376062448001NOMADIC UNDERWATER & TOURS                               0502
B0201400890376062603001DTA BNK INC.                                             1601
B0101402930000000057532PALINSAD JIMENEZ & ASSOCIATES                            1601
A0101402930000003710621FAVILA, ALICE A. OR                                     10503
A0101402930000003710621ABIOG, ARLENE A.                                        20500
A0101408790000005251110CLARINO, RANDY LUBAN                                     0501
A0101408790383616793001UMALI, TONISITO MACHIAVELLI                             10501
A0101408790383616793001CASUGBO                                                 20500
A0101402770391025704001JLD GIFTS & MAGAZINES                                    0505
A0101409180000003866677WITTIG, LARS BENDSON                                     0501
B0301400820409091735055DAVAO HOME BUILDERS CENTER OR LIMA,                     11602
B0301400820409091735055DIANA                                                   21600
A0301400820409091735055DAVAO HOME BUILDERS CENTER OR L                         10501
A0301400820409091735055DIANA                                                   20500
B2401400180411014575003SOCSKSARGEN FEDERATION OF FISHING &                     11603
B2401400180411014575003ALLIED IND.                                             21600
B2401400180411033387008BIBIANA FARMS AND MILLS, INC.                            1605
A2401400180411478374020MORI, LYDIA                                              0502
A2401400180411478374040CHERRY S. VICTORIANO                                     0502
A2401400180000001935913PERALES, EVARISTO TAN                                    0501
B0101403030441012179001**********                                               1602
A0101403030441029489001**********                                               0506
B0101412890470821200608**********                                               2001
B0101410140000000038895NANOZ, DE LA CRUZ AND ASSOCIATES, C                      1601
A0101412760000000528147CRUZ, LADY CLAIRE BALDEMORO                              0501
A0101412760000000767977ABELIDO, RAYMOND OR MICHELLE                             0502
B0101412760000000031990PRIVE PROPERTIES DEVELOPMENT INC.                        1601
A0501400170000002354623CARDOZO, JENNY MAE GARCIA                                0501
B0501400170481025398002****                                                     1601
A0501400170481046585002ANG, JUSSLYNN DBU                                       10503
A0501400170481046585002AVS DISTRIBUTION                                        20500
A0501400170481253055002VELASCO, MELANDREW T. OR                                10504
A0501400170481253055002VELASCO, MA. TER                                        20500
B1901400160491027966003SALESFORCE ONE MARKETING, INC.                           1603
A1901400160491339841001MELINDA M ILAGAN                                         0502
A1601400170494057284001F2M TOWER                                                0501
A0701400260000006599440OLIVAN, PHILIP MARK UY                                   0505
A0101407430503434847002JOCELYN L. CUSTORIO                                      0501
A0101407430000002298315EXCEL A. GRESOS                                          0501
A0101406880513197649001HARPER, ANNA MARIA LAMMOGLIA                             0501
A0101411790518055764113DE LUNA, ALVEN PONGAN                                    0501
B0101403450521011637002LIM YEE WAN CO., INC.                                    1605
B0101403450521011735001BASIC PACKAGING CORP.                                    1602
A0101403450521366584001**********                                               0501
A0101403450000001769771SANTOS, EMMA CASTILLO                                    0501
A0101404000000000461181LAZARTE, LINCOLN JOHN NICDAO                             0501
A0101407720602166653018LUCITA F. SULIAN                                         0501
A0101407720602461436003JANICE STEPHANIE                                        10503
A0101407720602461436003GIMENEZ-MENDOZA                                         20500
A0101409920000002260497QUELLA, JOSEPH YAPANA                                    0501
A0101409920000006336990PASCUAL, MA. MADELYNE VINAS                              0503
A0101411530000003238253**********                                               0502
A0101413570000005435212ROY A. SANTOS                                            0502
B0101414120000000399053REDBALL TECHNICA INC.                                    1603
A0101406590000003007052SANCHEZ, LUZVIMINDA BERNABE                              0501
A0101406590662346608001ELAINE O. LOPEZ OR                                      10501
A0101406590662346608001CARMELO ELISEO Y. LOPEZ                                 20500
B0101404710681821200608**********                                               2002
A1301400500000000011274*************                                            0505
B1301400500684821200608**********                                               2001
A0101408240000006599991ESTERA, WINSTON GEORGE B.                               10502
A0101408240000006599991OR LLAMAS, ROGIELYN P.                                  20500
A2801400230000005752376ZAFRA, ANGIL DBU D-J VELOCITY                           10501
A2801400230000005752376RENT                                                    20500
A4101400260812041334001M.B. JIMENEZ RICE DEALER T                               0505
A4101400260812041696001LUCKY RED CONSTRUCTION AND                              10502
A4101400260812041696001TRADING                                                 20500
A4101400390813248893002MERCY O. ASEGURADO                                       0504
A4101400550000006044480QUIOYO, EMELIA BOONGALING                                0501
A41014005508150438550013RD GEN FUEL STATION                                     0501
A4101400550000003839156CERVAS, A DBU JHAVEZ EVADERE                            10502
A4101400550000003839156ENTERPRISES                                             20500
A0101404840000004565840FLORES, FELICIANA DBU JRFS                              10501
A0101404840000004565840ENTERPRISES                                             20500
B0101405070861046931001BUKWANG PRIME INTERNATIONAL AGENCY                       1603
