B0101408530516821100608**********                                               2010
A0101400440161039572092JOSEFINA R. JONES                                        0501
A0101400440161602321001ROLAND B. GALVAN                                         0501
A0201400920000002804480MIRANDA, SAMMY                                           0501
A2401400180411514423001DEALA, BERNARDITA GATCHALIAN                             0502
A1601400170000001360816RANCES, ARLON DE LUNA                                    0501
A0101400860011298552007MA. TERESA N. MERCADER                                   0503
A0101400860011467833002**********                                               0503
A0101400860011685244001BANDIOLA, SIDNEY MORALES                                 0501
A0101400150000001708221BERNADETTE ASTUDILLO OR J.                              10501
A0101400150000001708221ARGEL ASTUDILLO                                         20500
A0101400150000003162518LEONARD MEL A. AVILA                                     0502
A0101400150000004090431DE LEON, NATHALY CLAIRE GRAY                             0501
A0101400150000000525488REYES, SHEREL LOU BERMUDEZ                               0501
A0101400150000001422133SAMBALE, ANALYN M. OR                                   10501
A0101400150000001422133SAMBALE, ALBERTO                                        20500
A0101400150061226120003JUAN RAMON C. GARCIA                                     0505
A0101400150000002394738CANO, MARIA THERESA RESMA OR                            10501
A0101400150000002394738RESMA, DOMINGA A                                        20500
A0101400150061596273002YAP, TYRONE JUSTIN CHAM OR YAP                          10502
A0101400150061596273002ENG CHING, TYRON                                        20500
B0101400600071037743001O. LEDESMA & CO., INC.                                   1601
A0601400100081258197001IAN M. MADLAMBAYAN                                       0502
A0601400520000012434332GALLARDO, LEONARD FLORES                                 0501
A0101410560000001944174ROWENA PADILLA FRANCIA                                   0501
A0101400730000009269452IGUAL, NINA DIZON                                        0503
B0101400730000000659649AMITY MARINE DOCUMENTATION SERVICES                      1604
A0101400730111347787002CHAVEZ, LYNN FLORENTINO                                  0501
A0101400730111423961001ROCES, RAFAEL VILLAREAL                                  0502
B0101406040112037881001WATERFRONT SUPERVISOR'S CREDIT COOP                      1601
A0101406040000003332954NERVES, JOSE ROLITO NAPA DBU                            10503
A0101406040000003332954JRN GENERAL MERC                                        20500
B0101401960121011797001**********                                               1601
B0101401960121241247001**********                                               1601
B0101413150000000038606TRADETON CORPORATION                                     1601
A0101413150000003208335******                                                   0502
A7201400170000010016056GANANCIAL JR., CARLOS FUENTES                            0501
A0101412920000005354332CAMBA, PERRY PARADO                                      0502
B0101400440161025954001DEX INTERNATIONAL CO.                                    1605
A0101400440000006679732REVILE C. ABONG                                          0501
A0101407270000012419419LASALA JR., APOLONIO QUESADA                             0502
A0101407270162087457001DURAN, MERLY                                             0501
A0101407270162093047001MA. ROWENA P. MARAVILLA                                  0501
A0101407270162333006005BEATRIZ A. FLORES                                        0501
A0101401090171004580001APEXPOINT PHARMACEUTICAL &                              10501
A0101401090171004580001MEDICAL SUPPLIES MFTG.                                  20500
A0101401090171195630001MA.CORAZON T. UNAS OR                                   10502
A0101401090171195630001JOHN EDWARD T. U                                        20500
A0101401090171430122001EVANGELINE D. PANIZAL                                    0502
B0301400530000003573528RD PAWNSHOP, INC.                                        1605
B0301400530000008044353PARADO, TJ JOSSIE FERNANDEZ DBU TJ                      11605
B0301400530000008044353GASOLINE STATION                                        21600
A0301400660194737283088ZHI VENUS INDUSTRIAL SUPPLY                              0502
B0301400790000002301342MONTEVERDE II, GEORGE MENDEZ DBU GV & HH                11601
B0301400790000002301342MARKETING                                               21600
A0101413020000000880531***************                                          0505
A0101410720000009157160MONTER, DAVE ANTHONY TAN                                 0502
A0101410720653458986001ALVAREZ, ERLINDA TORNO                                   0501
A0101410720653478374018RUPEREZ, MAREVIC B.                                      0501
B0101412500000000041750FAITH BAPTIST CHURCH INC.                                1605
B3101400160000010010609BEST SOUTHERN GENESIS MOTORS INC.                        1605
B3101400160221037479001TABLERIA LA CONFIANZA CO., INC.                          1601
A3001400130000008264722TAN, DOROTHY CARIN QUEDI                                 0501
A3001400130000008264853AMOIN, MARILYN B                                         0502
B1001400190000002170850RD PAWNSHOP, INC.                                        1603
B1001400350233037895001CEBU SOUTHERN MOTORS, INC.                               1605
A1001400480000001054642DO, GLORIA TOLITOL                                       0501
A1301400470252478374028NORMA S. BALLESTEROS                                     0506
A1301400760000002346130GARY MATEO                                               0501
B0101401670000004588478SUNDAY TRANSPORT SVCS,. INC.                             1601
A0101401670271301223001DUJUNCO, ELIGIO UYCOFE                                   0503
A0101406460272376552001ONG, ANNA LISA UY OR                                    10501
A0101406460272376552001CEDENIO, ELIZABE                                        20500
A0101406460272590425001SALVADOR, WINEBELLE DELFINO                              0501
A0101406460272590425001SALVADOR, WINEBELLE DELFINO                              0504
A0101400570281453706002SHIRLEY C. TEEHANKEE OR MARIE                           10502
A0101400570281453706002THERESE C. TEEHANKEE                                    20500
A0101400570281546762001MANLULU, ELIZABETH EDRALIN                               0501
A0801400160000007444302WOO, JOHN KENNETH FINES OR                              10502
A0801400160000007444302WOO, PATRICIA SE                                        20500
A0801400160311317813001SUSAN M. APOSTOLERO                                      0501
B6601400120000000060864PALAPAG FINANCING COMPANY INC.                           1601
A6601400120314617580001DORADO, ANITA ACEDILLA                                   0501
A0101402350321533961001GAMBOA, ERIC S. OR                                      10502
A0101402350321533961001GAMBOA, SHIELA P                                        20500
B0101405650322006460001SOUTHGATE SERVICE CENTER, INC.                           1605
A0101402510000011695102GLORIOSO, NORMAN PENAFLOR                                0501
A0101402060351211723001MELINDA V. MEMBREBE                                      0501
A0101409050000006729526EDUARDO LEGASPI DALISAY                                  0502
A0201400760000000476933ABUTAZIL, JERIC REI TEMPLO                               0505
B0201400760374033008001METAPHIL INTERNATIONAL, INC                              1605
B0201400760374042003001*****                                                    1602
B0101402930000003734861POLICARPIO & ACORDA LAW OFFICE                           1601
A0101408370000000586016SAMONTE, CRISTY EVANGELISTA                              0502
A0101408790000006623098AILEEN T. MATIC                                          0501
B0101411660384046301001JJACCIS DEVELOPMENT CORPORATION                          1603
A0101402770391022532001VIREX ENTERPRISES                                        0501
A0101402770000006642793SUESS, FLORENCIA GERODIAS DBU                           10502
A0101402770000006642793FGS ENTERPRISES JT                                      20500
B0101405490392026110001BULACAN GARDEN CORPORATION                               1601
A0101408400000005286397NAVALTA, BERNADETTE AMBION                               0503
B0101408400394047325001VICLOR MICROLENDING INVESTOR                            11603
B0101408400394047325001CORPORATION                                             21600
A0101408400394162700001FLORES, CATHERINE DOMINGO                                0502
A0101408950000003171291MAGNAYE, MARIA GRACIA SAPIN OR                          10501
A0101408950000003171291MAGNAYE, EVANGELINE                                     20500
A0101408950396389054001LUZ, XERES DIMALALUAN                                    0501
A0101408950396574308001DR. VERNILO E. LIBAGO                                    0504
A0101409180000005326603IBARDELOZA, ANNALYN SIABOC                               0504
B0301400820409067037001PHARMA ELEVEN MEDICAL SUPPLY, INC.                       1602
A2401400180000001935793PACULANAN, NORMA REPONTE                                 0503
B2401400180411056150001GENSAN TBB & SONS MARKETING, INC.                        1601
B2401400180411056764001RD PAWNSHOP, INC. - GENSAN REGION                        1603
A2401400180411495221001MANUEL JR., ANTONIO VILLANUEVA                           0502
A1201400150421299356004LARANANG, BENITA CRISELDA                               10503
A1201400150421299356004MANONGDO                                                20500
B0901400220000000888166**********                                               1605
A0901400220432708709001MAHILUM, CATHERINE RIZALDE                               0501
B0101403320471041480001ITP CONSTRUCTION INC                                     1620
A0101403320471478374006NELIA MORALES                                            0502
A0101403320471686138001********                                                 0501
A1901400320000000679250RUEL FLORES ILAO                                         0501
A3801400170000000154185EVANGELISTA, BABY DAISY DBU                             10502
A3801400170000000154185R.D.E. BEAUTY CE                                        20500
B1901400160491027966001SALESFORCE ONE MARKETING, INC.                           1605
A1901400160491066789001MONTENEGRO JR. DBU IRAYA HOTEL                          10502
A1901400160491066789001AND RESTAURANT                                          20500
A1901400160491358723001GERLIE M MIRASOL OR                                     10501
A1901400160491358723001MICKEL F MIRASOL                                        20500
A1601400170000009954283ARAGON, ELVIRA LATAGAN                                   0501
A1601400170000012438658IMELDA A. SIAPNO OR                                     10501
A1601400170000012438658ANNIE V. LLEDO                                          20500
B1601400170000009954523ARTISAN'S SPECIALTY COFFEE                               1601
B0101407430503028651001TMC TRUCKING SERVICES                                    1601
A0101407430503378986001VILMA SANCHEZ MONTILLA                                   0501
A0101405940000000505822DINGLASAN, JUAN JOSE ANTONIO                            10502
A0101405940000000505822FRANCO                                                  20500
A0101408530516568727001MARKING, AMADO MATA                                      0504
A0101411790518345722001**** ****** ***                                          0502
A0101403450521238057004********                                                 0503
B0101403450521239481001**********                                               1602
A0101403610000001174823HERNANDEZ, CORAZON SULAYAO                               0503
A0101403610000006637089DELOS REYES JR., NICASIO EMPIO                           0501
A0101403610531004577001TAN, ELESON B DBU BRIGHTPLAS                            10501
A0101403610531004577001MANUFACTURING OR CO, IVY                                20500
A0101403610531355089002MACASAET, DOMINGA YAMBAO                                10502
A0101403610531355089002OR MACASAET, LOPE                                       20500
A0101403610531478374003ARANA, MA. CORAZON B.                                    0502
A0101407720602294548001RONDAIN, ELIZABETH ESPINOSA                              0502
A0101412180000012436970ESCOBAR, EDGAR MACABEO                                   0501
A0101404260611037351001SMD JANITORIAL SERVICES                                  0501
A0101404260611151435002LORNA VEJANO AND RAUL VEJANO                             0502
A0101404260611478374099TERESITA DOLLOPAC                                        0502
B0101409890000006812768REPUBLIC POWDERCOAT CORPORATION                          1605
A0101409920000011312591QUILLO, MARISSA DOMINGO                                  0501
A0101409920000010528639BERNARDO, JOEL O. DBU                                   10502
A0101409920000010528639OR BERNARDO, IRENE                                      20500
A0101413570000008173580MAGAO, JESSICA SALE                                      0502
A0101413570656057648219REDOR, LILLE GARGACE                                     0501
A0101413990000006278237DE CASTRO - AGBUYA, HAYDEE AMOR                          0501
A0101414120000002172527AMELIA DE JESUS OR EDGARDO                              10501
A0101414120000002172527DE JESUS                                                20500
A0101414120000000398972ULDERICO MERCED TRUCKING                                 0504
A0101414120000005252853******                                                   0501
B0101414120000007655378ABMARAC CORPORATION                                      1601
B1301400210682038636001FBIC INDUSTRIAL ESTATE ASSOCIATION                       1602
A1301400210000000023229FRANCISCO P CABOTEJA                                     0501
A1301400340683555340001MORAGA, SHIRLEY ANDAYA                                   0501
A1301400500684069321001TWIN DRAGON 88 TRANSPORT                                10501
A1301400500684069321001CORPORATION                                             20500
A0101408240000003955293BILLANO, EDNA YAMBAO OR HERNAN                           0501
A0101408240000007478217FABUNAN, MARIA THERESA ALIPIO                            0501
B0101408240711026678001SAMBEL PACIFIC CORPORATION                               1603
A0101408240000002821872SANTILLAN, ENYA GABOR                                    0504
A0101408240000008160143ROWENA P. GONZALES                                       0502
A0101408240000000347493COLLANTES, MA. CORAZON TARNATE                           0501
A0101408240711664151001CARINAN, LISI STA. ANA                                   0501
B2801400230000000008335OLONGAPO ELECTRICITY DISTRIBUTION                       11601
B2801400230000000008335COMPANY, INC.                                           21600
A4101400260812245992001JOSE P. ALUZAN OR                                       10501
A4101400260812245992001JOANNA MARIE C. ALUZAN                                  20500
A4101400260812381353001JESUS R. AMBAT                                           0502
A4101400260812541863001RACQUEL MARICAR G. MALLARI                               0501
A4101400260000011418152BISA, MELCHORA HUERTAZUELA                               0501
A4101400390000001732849DELA CRUZ, HAYDEE LLAMADO                                0501
A4101400550000010508573DUCUSIN, MARGIE ORTEGA                                   0502
A4101400550000004846824PANGAN, S DBU SDP REALTY                                 0503
A0101404840000000122658MARIFE DE CASTRO                                         0501
A0101404840851416355001SUREL, ANDREA H.                                         0502
A0101406750000007879256BANGALISAN JR, ROLANDO BARUNGAY                          0501
B0101406750852004552001RODRIGUEZ, RHOMMEL FERRER  DBU RODI                      1601
B0101406750000010508904PALOMO, KELLY GAMBOA DBU 526 INFINITY                   11601
B0101406750000010508904HOME DECOR AND                                          21600
A0101406750852629078001VICENCIO JR., MACARIO TAN                                0501
B0101405070861028566001AVESTA REALTY, INC.                                      1602
