A0101402930000001445450ALVES, LETICIA PLACIGO                                   0502
A0101413150000003868424*********                                                0502
A0101413150000003208175******                                                   0505
A0101409210000005252164CHUA, DANICA CHOI OR CHUA,                              10501
A0101409210000005252164KESTER TAN                                              20500
A0101400440161649340001EZRA AQUI N. DIAZ                                        0501
B3001400130000006004671UHLAND LOANS CORPORATION                                 1602
A1901400290000002337748NOVA RIVERA DE CASTRO                                    0501
A0101406460272287912001********                                                 0501
A0101412890000009833849DADO, MANOLITO DBU UBINCUBE                             10501
A0101412890000009833849ENTERPRISES                                             20500
A1401400110000000628568MAYUGA, LOURDES MAGTURO                                  0501
A0101400860000008319346*********                                                0501
A0101401250021034026001PETS AHOY FEEDS AND                                     10502
A0101401250021034026001POULTRY SUPPLY                                          20500
A0101411370000003294900FARRALES, MARCUS GLEN B. DBU                            10502
A0101411370000003294900GOLDLINE BROKERAGE SVCS.                                20500
A0101400150000003165200Maria Cecilia C. Maglonso                                0501
B0101400150000004703393PHILIPPINE TRAVEL AGENCIES ASSOCIATION                   1605
B0101400150000001708681IRC PROPERTIES INC.                                      1605
A0101405810072291768001**********                                               0501
B0601400100081025333001TRUE NORTH MANUFACTURING SERVICES CORP.                  1610
A0601400100081387358002DAVID, AR-JAY TINIO                                      0502
A0601400100081498065001VILLANUEVA, JERRY OR ORLITA                              0501
A0101400730000002882433LI, MARYANN NOVALES                                      0501
A0101406040112656270001*********                                                0501
A0101413150000001688617******                                                   0505
A0101401830141341133001MA. ROSARIO P. SANCHEZ                                   0501
B7201400170152067937001PAGADIAN JUNIOR COLLEGE (PJC), INC.                      1602
A0101400440000009591871ROSANA CATCHO                                            0501
A0101407270000001596967LORNA D. GARCIA                                          0501
A0101407270162333154022JESUS R. MONTEMAYOR                                      0502
B0101401090171032121001ALLPOINTS TRAVEL SERVICES, INC.                          1603
A0101401090171197250001VILLAMARZO, RONALDO OR PERLA OR                         10502
A0101401090171197250001ANNA MARIA ALIPIO                                       20500
A0301400660000001113795VILLADAREZ, RICHARD RANIS                                0501
B0101401380201034247001HOBBIES OF ASIA INC.                                     1604
A0101401380201179886001ROLDAN, ERNESTO LIMJAP                                   0502
A3101400160000006497836WAGAN, IANNE MARIE DEDUMO                                0502
A3101400160221068533001POLINTAN, MARIETTA CONSULTA                             10501
A3101400160221068533001DBU MJ STEEL ENTERPRISES                                20500
A3101400450000005960501******                                                   0506
B3101400450223709906001SPC HARDWARE & CONSTRUCTION SUPPLY                       1601
A3101400870000005410360**********                                               0505
A1001400190231520766117TAROY, MARIONNE ANGELOU SALEM                            0501
A1001400190231525462002OCIONES, CRISTINA TERESA MORENO                          0501
B1001400480000003357891AYA VENTURES CORP DBU ASONHUAT AGRO INDU                11601
B1001400480000003357891STRIAL GROWER                                           21600
B1301400470000000009630FIRST KINGSTON LEISURE AND SERVICES                     11620
B1301400470000000009630CORPORATION                                             21600
B1301400470000000009685FIRST KINGSTON LEISURE AND SERVICES                     11610
B1301400470000000009685CORPORATION                                             21600
A0101401670271186882001ATIENZA, ANGEL MEDARDO G.                                0501
A0101401670271193994001PATRICIO L. RAPADA                                       0502
A0101406620000006317860DELGADO, JUDY GRACE TIONGCO                              0502
B0801400160000001289932RD PAWNSHOP, INC. - ILOILO NORTH                         1603
B6601400120314040180001NORTHERN LIGHT HOME DEPOT                                1602
A2001400290315044705002REMAN GLASS & ALUMINUM                                   0501
B2001400290315635862088**********                                               1601
A2901400130000009071869TEODOSIO, NELSON OTE DBU FORTUN                          0503
A0101402350000011252672FAVIS, JEZREEL JOY                                       0501
A0101405650000009768012EDITA LAGARNIA OR MARIANNE                              10505
A0101405650000009768012MADER OR ARTEMIO LAGARNIA                               20500
A0101405650322052876001DUMALE, DBU TOPS MODULAR                                10501
A0101405650322052876001BUILDERS                                                20500
A0101405650322172164002AQUINO, CHRISTIAN CASTRO                                 0502
A0101402510000010100800GAZMIN, NERIZA GRACIA REYES                              0502
A0101402510341068537001DELENA, A DBU DELCHAN                                   10502
A0101402510341068537001CONSTRUCTION SUPPLY                                     20500
A0101402060000005137291VILLARICO, JEFF VIBARES                                  0501
B0101402060351009544001RI CHEMICAL CORPORATION                                  1608
A0101409050352600066001FAYE CARLIE CRUZ OR                                     10501
A0101409050352600066001BENSON RYAN CRUZ                                        20500
A0201400760374038501001RENS MARINE SERVICES BY                                 10501
A0201400760374038501001PRIMO P. PAULIN                                         20500
A0201400760000008869845SOLON, ENRICO MENDOZA OR                                10501
A0201400760000008869845MEDINA, ADELE MERCEDES                                  20500
B0101402930013130000244R.I. ARCADIO CONSTRUCTION CORPORATION                    1604
B0101402930000008462540JEVANT TECHNOLOGIES PHILIPPINES                         11601
B0101402930000008462540CORPORATION                                             21600
B0101408370000007031443SCHEIRMAN & CRUZ PROPERTY HOLDINGS                       1605
A0101408370382432851001DR. FELITA C. LUCENA OR                                 10510
A0101408370382432851001LEMUEL V. LUCENA                                        20500
A0101408370382527801002PHILIP LANCE ANTHONY A. LIU                              0501
A0101415350000007878053SAYAS, PHILIP CEZAR GAPUZ                                0502
A0101402770000002267121RIVERA, JOHNNY CONTRERAS                                 0502
A0101409210000002802688JUNGAYA, MARIA REINA MARTIREZ                            0501
A0101412210399094817004ARNILO C. MILAOR                                         0501
A5501400120000006976990HABLERO, CESTHER MARI CASTANEDA                          0501
A5501400120410611619001PERNIA, NELLY M. OR                                     10505
A5501400120410611619001PERNIA, JOSE REY                                        20500
A2401400180000007031723LA MIRADA INN                                            0503
A1201400150421039385001JL'S CLEAN UP JANITORIAL &                              10502
A1201400150421039385001MANPOWER SERVICE                                        20500
A1201400150421254557001EDUARDO OR PRESLY FERNANDEZ                              0501
A1201400150421685972001JUCUTAN, HEIDI BONDAD OR                                10503
A1201400150421685972001JUCUTAN, ROMMEL                                         20500
B0101412890000009624488********************                                     1602
B0101403320471068525001XELAND, INC.                                             1601
A0101412760000002067654IMPERIAL, CAROLINA PADPAD                                0501
B0501400170481018109002CSI WAREHOUSE CLUB INC.                                  1605
B0501400170481025398002COSTSAVER'S SUPERMARKET, INC.                            1601
A1901400160491448897001DELIA P PORTUGAL                                         0501
B1401400110000000034693LUCENA CITY PHARMA CORPORATION                           1601
B0101407430000001213089ASSOCIATED FREIGHT CONSOLIDATORS, INC.                   1601
B0101403580511005607002RAM FOOD PRODUCTS, INC.                                  1610
B0101403580511046747001HUDDLE ROOM MEDIA INC.                                   1610
A0101403580511185911001MA DOLORES G. VELASQUEZ                                  0501
B0101405940000005359582DMCI PROJECT DEVELOPERS, INC.                            1602
A0101408530000000136387PABELONA, CRISTINA MAGNO                                 0501
A0101408530000001885794EDITHA M. MOJAR                                          0502
A0101403450521315367001********                                                 0501
A0101403610000007105853ALVAREZ, SHIELA MARI TEMPLADO                            0502
B0101403610531068539001REAL-PRENEUR CORP.                                       1601
A0101403610531279108002FERRER, DOMINGO G.  OR                                  10501
A0101403610531279108002KALAW, MA. CRISTINA F.                                  20500
A0101409890649047047001**********                                               0508
A0101409920000009981548ABDON, FEDILITA ROSARIO                                  0501
B0101409920000000437001BELTRAN, RA DBU MJR2 PRINTING SERVICES                   1605
A0101407690000002348832ALUNDAY, TERESITA AREVALO                                0501
A0101407690000003207343RECODO, NEOMILYN BALANAY                                 0501
A0101407690652478374044MA. THERESA BACINILLO - DEALERS                         10502
A0101407690652478374044OF SHOECAT INC                                          20500
A0101407690652513136001GUINTO, ROSARIO OR WINSTON                               0502
A0101411530000000013674DAYRIT, MA. KATRINA NARCISO                              0503
A0101413570000011338833CARL A. ALLEN JR.                                        0501
A0101414120000007655298STORM CONSTRUCTION                                       0502
B0101414120000001751480MANVILL RESOURCES CORP.                                  1610
B0101414120000004603412VALOR HEALTH PHARMA INC.                                 1602
A0101406590000000568872LECAROZ-ELIZALDE, CHRISTINA S.                           0501
A0101406590662694250001VIDANES, ELIZABETH ALVIAR                                0501
B1301400210000005041007***                                                      1603
A1301400210682478374062MA. ERLINDA C CHUA                                       0501
A1301400340683456739001LAZATIN JR., EDUARDO NIONES                              0502
A1301400500000000213265VINCENT P. JAVIER OR TERESITA                           10505
A1301400500000000213265F. JAVIER                                               20500
B0101408240000006414575PRO LOGISTIC SOLUTIONS PHIL. INC.                        1605
A0101408240711418819006RICA S. BAGATSING                                        0503
B2801400100712021660002BIG IRON RESORT, INC.                                    1603
B2801400100000003116656DIZON, JORDAN MANGALINO DBU OPTIMA                      11602
B2801400100000003116656MONEY EXCHANGE                                          21600
A4101400260812039607023MONTALES, MA. GLERISSA                                   0501
A4101400420814298552026JOSEFINA FERNANDEZ                                       0502
A4101400420814478374163MA. CORAZON C. REATAZAN                                  0502
A0101412340000008947060CHARMAINE JOY A. NAVORA                                  0501
A0101412340000003344578GRAN LABRADOR L. MARTINEZ                                0501
A0101412340000003438442ANCHETA, RUEL JARME                                      0501
A0101412340000007305564ELNA O. GALAROZA                                         0501
A0101404840851542980001MASANGCAY, NORA VERCELES                                 0501
A0101405070861198897002QUIZON, MARIE C.                                         0501
A0601400230891627261001RAMOS, ANGELITA BAUTISTA                                 0503
B0601400230000007954041MERCADO, AILLEEN DIMACALI                                1605
