A0101400860000001348625**********                                               0501
A0101401250000004374641DOMINGO, EDWIN V. OR                                    10505
A0101401250000004374641DOMINGO, LAURA MANUELA S.                               20500
A0101401250021688004001SENEN O. GOLI                                            0502
A0101400150000001422337MANGOBA, DENNIS C.                                       0501
B0101400150061018828001DOME CAFE FRANCHISE CORP.                                1610
B0101400150061021085001SEAOIL PHILIPPINES, INC.                                 1610
B0101400150061032927002RFM CORPORATION                                          1602
B0101400150061227678001GOP ADVERTISING                                          1602
A0101400150061697165001SERVER, CATHERINE ANNE B. OR                            10502
A0101400150061697165001CHRISTINE MICHEL                                        20500
A0101400600000000007649*********                                                0510
B0101405810072020925003DW PLASTIC CORP.                                         1602
A0101405810072234892001**********                                               0501
A0101405810072573964001CHUA, JEFF SEBASTIAN                                     0505
B0601400360000000978936THE MEDICAL CITY CLARK, INC.                             1610
B0601400520000001349662TIMBOL ROMAN MANALOTO                                   11601
B0601400520000001349662ACCTNG & TAX CON                                        21600
A0101413280092062132001REIKEN AUTOMOTIVE SUPPLY                                 0501
A0101410560000001944072VALEN, ROSANA RETIG                                      0501
A0101400730111347787002CHAVEZ, LYNN FLORENTINO                                  0501
A0101400730111386485074GEMMA D. VAPOROSO                                        0501
A0101400730111478374028LIBRADA MAGNO                                            0501
A0101406040000000096811********                                                 0501
A0101401830000001281998RIVERA, RAMIL DBU ICON RBR                              10501
A0101401830000001281998GLASS AND ALUMINUM SUPPLY                               20500
A0101401830141068402001MACAILAO, CHRISTIAN SELDA DBU                           10501
A0101401830141068402001U3 TRADING                                              20500
B7201400170000006487785LADLAD, EMSA BANA                                        1601
B7201400170000006487887CARBONEL, JEAN TAN                                       1601
A7201400170000003774447LUMAAD, ARLINIEVA MONARCA OR                            10501
A7201400170000003774447LUMAAD, KELT MUT                                        20500
B7201400170000003773637MDSDOC CORPORATION                                       1601
A5001400170000000213976SUPIL, MICHAEL PACULANANG                                0501
A0101401090171035426001BIG MARTHA ENTERPRISES                                   0506
A0101401090171196029003DURAN, JOSE OR EVELYN DURAN                              0505
A0101401090171196097001HERNANDO OR LEONCIA OLONAN OR                           10502
A0101401090171196097001BIANCA NIKKOLA OLONAN                                   20500
A0301400660000000194832ESTANO, BEWEL JOY LEYSON                                 0501
A0301400950000010424870MILLANO, CARL MURILLO                                    0502
B0301400950000006054097IN-VITRO FERTILIZATION - DAVAO (IVF)                     1602
A0301400950000010424807WHICH CRAFT SHOP                                         0502
A0101401380201502664001LEY, RICHARD NOEL CO                                     0501
B3101400160221031027001ALLIED DOCTORS FOOD RESOURCES, INC.                      1605
A3101400450223455809001LANCION, AUREA OR JERIC                                  0502
A3101400740000000013798MOLINA, JOJO TERONES                                     0501
A3101400740000006349482RONGAVILLA, ALVIN CRIS                                   0501
B3101400740224068263001R12 EMS PHILS INC                                        1601
A3001400130000001261249BANJAO, JENELYN LARA                                     0501
A1001400190000000124752LEGASPI, CAROLINA                                        0501
A1001400190231622631002UNCHUAN, CHARLES NACUA                                   0502
B1001400480000003028931BELICAN, ALDIN TORNIADO DBU BELICAN                     11602
B1001400480000003028931TRUCKING                                                21600
A1001400480000008501940BALANA JR., RICHARD ZAMAYLA DBU                         10501
A1001400480000008501940RBJ ENTERPRISES                                         20500
B1301400470252465637001RAFAEL DR. CLEMENTE                                      1602
A1901400290000003252902LYDIA ESPIRITU ASIADO                                    0501
A1901400290261042311006OLIVE AGUZAR                                             0502
A1901400290261246101002MADGELINA A DE VILLA OR                                 10501
A1901400290261246101002GERARDO MARIO N DE VILLA                                20500
A0101401670271007151001ST. JOSEPH THE PATRIARCH PARISH                         10524
A0101401670271007151001CHURCH                                                  20500
A0101406620273306796058MARICAR S. SAN PEDRO                                     0501
A0101410980000001154283EVELYN C. CHOA OR                                       10502
A0101410980000001154283MAUREEN GIZELLE                                         20500
A0501400200292567569001LARILYN D. GATCHALLAN                                    0501
A2601400270000002312163ALEJANDRO Q. UY III                                      0502
A0801400160000000476346TSC SUPREME MOTOR SHOP                                   0503
B1101400120000006186930COASTALVIEW FOODS CORPORATION                            1602
B1101400120313046425001BLACKGOLD AGRIVET INC.                                   1601
A1101400120000006186616GALO, TERESITA ECLE                                      0502
A0101402510341395821002ALAMILLO, JUANITA P. OR                                 10502
A0101402510341395821002ALAMILLO, KENNET                                        20500
B0101409050352044426001DELTA CONCRETE CORPORATION                               1610
B0201400760000007134756DE LOS SANTOS,ROGELIO DBU HOUSING SUPPLY                11602
B0201400760000007134756OR JANE DE LOS S                                        21600
A0201400760374434972001******                                                   0501
B0201401020000000042297GLOBAL POWER EQUIPMENT MARKETING CORP.                   1602
A0101402930000010657782LIWANAG, MICHAEL PAGLINAWAN                              0501
A0101405490392034138001MCMAR & MARY ELECTRICAL                                 10502
A0101405490392034138001& CONSTRUCTION S                                        20500
A0101405490392170122001LEONIDES A. SANTOS OR                                   10501
A0101405490392170122001CONCHITA R. SANT                                        20500
A0101405490392210745001CANTOR, MA. SOCORRO G.                                   0501
A0101408400394478374075VIOLETA I MANUEL                                         0501
A0101409180000003780409ESTACION, ENRIQUE R                                      0501
A0101409210000002803049MAYO, ANNA MARIE TULIAO                                  0501
A0101409210000009966701HILARIO, CHRISTINE ARMI SAN JOS                          0501
B0101409210000000031192LSC CORPORATION                                          1602
B0101409210000002783384ELEVATE PHILIPPINES INC.                                 1602
A0301400820000008056991LADERA, CRISTITO                                         0505
A2401400180000001676902PANGOLIMA, JAKARIA PANGOLIMA                             0501
A2401400180411048131001ONTARIO PURIFIED DRINKING WATER                         10501
A2401400180411048131001DISTRIBUTOR                                             20500
B2401400180411068112001SALANGSANG JR., RODRIGO KIMPO DBU                       11601
B2401400180411068112001DRIGG'S SUITES                                          21600
A2401400180411555962001SILVA, VIOLETA P. OR                                    10501
A2401400180411555962001SILVA, MARCELINO                                        20500
B1201400150421013238001JARCO REALTY AND DEV. CORP.                              1625
A1201400150421299356004LARANANG, BENITA CRISELDA                               10503
A1201400150421299356004MANONGDO                                                20500
A5101400100000010371507ARATEA, ARNEL TANGOG                                     0501
A1901400160491392399001DANTE V DIMAANDAL OR                                    10505
A1901400160491392399001DIONISIA R DIMAANDAL                                    20500
A1401400110492220705001ZETA, DULCE CORAZON LONTOC                               0502
A1401400110000001806873********                                                 0502
A1401400110492502818001OBISPO, ALONA VILLAMAYOR                                 0502
A0101407430503529155001JONATHAN M. RAFAEL                                       0501
B0101403580000007864375RED REX AUTO SALON INC.                                  1601
A0101405940000005067841ADRIAN S. ARCEO                                          0501
B0101405940512030823001AVID SALES CORPORATION                                   1602
B0101405940512030823002AVID SALES CORPORATION                                   1605
B0101405940512030823003AVID SALES CORPORATION                                   1605
A0101405940512285886001HUI HUN SO TAN                                           0502
A0101408530516543430012SHERWIN LOPEZ                                            0502
A0101408530516571877140SORILLA, ELTON JOHN SORONGON                             0502
A0101408530000007719660SINGH, ANANT                                             0501
A0101408530516622804001HENRY P. CUREG AND                                      10503
A0101408530516622804001EDNA Y. CUREG                                           20500
A0101411790000010203155CATRAL, KRISTEL DIANA PASCUAL                            0502
A0101403450000009517568**********                                               0502
A0101403450521238152002**********                                               0506
A0101403450521238266001JERONIMO CO CHIN CHIENG OR                              10501
A0101403450521238266001LAWRENCE COBANKI                                        20500
A0101403610000011328544CALUGAY, ROWENA PAALA                                    0501
A2201400250561478374066MARY ROSE C. ALFONSO                                    10501
A2201400250561478374066MEMBERS OF NATASHA                                      20500
B0101404130601018644001LEXMEDIA DIGITAL CORPORATION                             1601
B0101404130601018644002LEXMEDIA DIGITAL CORPORATION                             1601
B0101404130601027990001PRINT TOWN, INC.                                         1601
B0101404130601027990002PRINT TOWN, INC.                                         1601
B0101404130000005962081EXEQSERVE CORPORATION                                    1610
B0101404130601100111004FEP PRINTING CORPORATION                                 1601
B0101404130601100124001ALLIANCE MEDIA PRINTING, INC.                            1601
B0101404130601100124002ALLIANCE MEDIA PRINTING, INC.                            1601
B0101404130601100126001NEWSPAPER PARAPHERNALIA, INC.                            1601
B0101404130601100126002NEWSPAPER PARAPHERNALIA, INC.                            1601
B0101404130601100199001FEP PRINTING CORP.                                       1601
B0101407720000000885521JALANDONI JR., JESUS AND MACASAET JR.,                  11601
B0101407720000000885521ROBERTO                                                 21600
A0101407720602285561002MENDOZA, GERALDINE PAYAOAN                               0502
A0101407720602402391001ZARZA-GERON, VALERIE RACELA                              0502
A0101407690652386943001******                                                   0501
B0101407690652537622001CREATIVE DISHES & RECIPES INC.                           1603
A0101411530000010858412**********                                               0504
A0101413440000002706072PORCIUNCULA, CATHERINE OR                               10503
A0101413440000002706072PORCIUNCULA, JOSE PAOLO                                 20500
B0101413440000001085621R-II BUILDERS, INC.                                      1602
A0101413570000002906578DIVEREP GENERAL MERCHANDISE                              0501
A0101414120000001751457R.S. BAUTISTA TRUCKING                                  10503
A0101414120000001751457SERVICES                                                20500
B0101414120000003584281JD & P FOOD TRADING CORPORATION                          1602
A0101414120000009850779CIAN BSI ENTERPRISES                                     0502
A0101406590662208118001CYNTHIA OR CHERYL MYLA ARCINUE                           0501
B0101410300000007614577FIRST JOMIKA REALTY AND DEVELOPMENT                      1605
B1301400210682245013002JAIME K. CRISOSTOMO                                      1601
A1301400500000007096542CRISTINA S. CRUZ                                         0501
B0101408240000000832633A & V MALITLIT DEVELOPMENT CORPORATION                   1605
A2801400100000002253470SAUNDERS, MARIBETH AGUILLON                              0501
A2801400100712495268002LEE, JOSEPHINE GLECINDA TULAO                           10502
A2801400100712495268002OR LEE, JAMES TAN                                       20500
A2801400100712553031001PROHHOROV, GINA OCOL                                     0502
A4101400260812366199001LOLITA O. AMANTE                                         0501
A0101406750000010508846FANDIDA, MARTINA NIANGO                                  0501
B0101405070861038257001GREAT CRESCENT FLOUR CORPORATION                         1605
A0101405070000003439718CHAN, RICARDO GONATO                                     0503
A0101405070861197650002********                                                 0502
B0101405070861635019001SY, DANILO BARAOIDAN OR SY, BETTY TIU                    1602
A0101413860000001887090UMLAS, SUSAN GATTOC                                      0502
A0101413860000011263215SARABIA IV, FEDERICO DIVINAGRAC                          0501
 0601400230000001062504                                                           00
