B0101402480331821100608**********                                               2010
B0101407720602821100608**********                                               2005
A0301400660000002348530BARIO, ELITO SABAS                                       0501
A0301400660194079451001DEOCAREZA, ELENA CONSOLACION                             0501
A0101402060351211784001ANDRES &/OR CYNTHIA PEREZ                                0502
A0101402060351367081001CLAVECILLAS, ELIZABETH C. &/OR                          10502
A0101402060351367081001CLAVECILLAS, REY                                        20500
B0601400520000002085890**********                                               1602
A0301400530000000065923POWER-UP TIRES, BATTERY AND                             10524
A0301400530000000065923AUTO SUPPLY                                             20500
B0301400530000000065945TAGUM SEAFOODS AND GRILL CORPORATION                     1604
B0301400530193555747168YANG, CHAO CHENG                                         1610
A0301400530193738511001GAMENG, RUBEN ABAYA                                      0502
A1001400190231478374116ESTRELLITA E. BERMUDEZ                                   0502
B1001400350233036049001RANTRADE INDUSTRIAL SALES CORPORATION                    1601
A1001400350233528399003KO, JOSE NELSON AND                                     10501
A1001400350233528399003KO, CHARMAINE                                           20500
A0101402060000000042253COLLARGA, ERIC DBU TECHYPE I.T.                         10501
A0101402060000000042253SERVICES OR AVEL                                        20500
A0101405490392381437001KIM, MI HEE                                              0501
A0101405490000000444313BENITO M. LOJO                                           0503
A0101405490000000444477MARIA TERESINA G. MESINA OR                             10505
A0101405490000000444477ALFONSO E. MESIN                                        20500
B1401400110492028287001MARYHILL COLLEGE, INCORPORATION                          1605
A4101400390813038383001EL MINA PAWNSHOP                                         0505
A4101400390000000975173NOAH'S ARK MANPOWER SERVICES                             0505
B4101400420814497546001**********                                               1601
A4101400420000002345280ACOL, FELOMINA ADOAN                                     0502
A4101400420000004847918VIDAL, TRAZY ALMERIA                                     0501
A0101400860011384021001**********                                               0503
A0101400860011442481001*******                                                  0505
A0101400860011458859001**********                                               0501
A0101400860011595281001LAWS, EMILY REYNOSO OR                                  10505
A0101400860011595281001LAWS, JOSEPH REY                                        20500
A0101400860011626861001**********                                               0501
B0101411370000000018168**********                                               1603
A0101400150061349858002GARCIA, JUAN RAMON CORTES                                0503
A0101400730111484431001ARIEL PERALES OR                                        10510
A0101400730111484431001MAJAR JARDIOLIN                                         20500
A7201400170000003773222ARANDING, ARNEIL BALBIN                                  0502
A0101400440000000337580ESPIRITU, HAZEL MANGENTE                                 0501
A0101400440000000821549PENOSO, LILIA RODULFO                                    0501
A0101400440000000596516ESGUERRA, RAMON HIPOLITO                                 0501
A0101401090171157026001ISIDORA A. LEE                                           0502
A0101401090171197427002LEVINA D. ZUNIGA                                         0506
A0101401090000001618742BOLONG, DAVID TALAVERA                                   0502
A0101401090171478374010MARISSA T. ROLLAN                                        0501
B0301400530193037483168TAGUM AB MARKETING BUY & SELL                           11605
B0301400530193037483168AGRI PRODUCTS                                           21600
A0301400530193686503001CORPUZ, GLENN A.                                         0502
A0301400530000000065956SINGH, ESTER SOMOSOT                                     0501
A0301400790000001010660ORCULLO, NESTOR MEJORADA                                 0501
B0101401380201018537001VELUZAR(PASAY) INC.                                      1601
A0101401380201315884002VELUZ, MONTGOMERY CUNETA                                 0501
A3101400160221483687001BONIFACIO B. NOGALES                                     0502
A3101400160221611111001AILEEN A. SOSMENA                                        0501
A3101400450223550865002LOPEZ, CELIA CONDUCTO                                   10510
A3101400450223550865002OR LOPEZ, PAOLO                                         20500
A1001400190231511493001GALAGNARA, JUVY DAIS                                     0501
B1001400480000004097121******************                                       1601
A1301400470252442538001DOMINGO, CARLITO OR                                     10501
A1301400470252442538001DOMINGO, SONIA                                          20500
A1301400470252620184001ARMANDO A. SANTIN OR                                    10501
A1301400470252620184001ADELYN L. SANTIN                                        20500
A1901400290261033073002NESLIET BUILDERS AND GENERAL                            10503
A1901400290261033073002MERCHANDISE                                             20500
A1901400290261193220001JOSEPHINE YU TAN                                         0501
A1901400290261244563001MARIBEL F CABAL                                          0501
A1901400290261567865001ALEX IAN SISON DE LA CRUZ                                0501
A1901400290261663904001EVELYN ROSALES PURINO                                    0501
B0101401670271017305001HONGKONG HARDWARE SUPPLIER, INC.                         1601
A0101406620273217408005ATTY ALFREDO V. LAZARO JR JT                             0505
A0101408660000000059807MARCELO, ROMAN B.                                        0501
A0101408660274642352001GAVIOLA, ROSEMARIE SEMANA                                0501
B0101410980000000171975**********                                               1602
B0101410980000000171975AMMC - AVERY MANILA MARKETING CORP                       1602
A0101400570281022921001SALON DE ORIENT                                          0503
A6601400120314612870001MAGPAYO, FORTUNATO OR AILEEN                             0502
B2001400290000000020560VIMLE UNIVERSAL SOLUTIONS INC.                           1601
A3401400280000001723495JENNIFER G ONG OR JOHN OWEN ONG                         10501
A3401400280000001723495OR JOAQUIN C GOCHANGCO JR                               20500
A3401400280000000972801FIGUEROA, MA. ANTONETTE HONRADO                          0501
A0101402350321319273002VALDEZ, MIGUELA D. OR                                   10501
A0101402350321319273002VALDEZ, REDENCIO L.                                     20500
A0101405650000005284373DE LEON, ALEXANDRA ANDOLONG                              0504
B0101405650000000772685WISEMEDIA GROUP, INC.                                    1601
B0101405650000005381802AUTOCURE ECOSYSTEMS TECHNOLOGY CO.                       1605
A0101405650322743994001DOMINGO, ANNE REJOYCE OR                                10502
A0101405650322743994001DOMINGO, JOSEFINA                                       20500
A0101402060000000358565DECENDARIO, MARICHU TADLAN                               0501
A0201400890000003410226*****************                                        0501
A0201401020000003882133ARMADA, JOHN MICHAEL CANETE                              0501
B0201401020000003031129DEL PRADO, JOSE VICE DBU DE LARRA FOODS                  1602
B0101402930381046543001THE CHEF'S TREATS, INC.                                  1601
B0101402930000003269470HOSPITALITY TECHNOLOGY TRENDS                           11603
B0101402930000003269470PHILIPPINES, INC                                        21600
B0101405490000006214182SIEGNATURES INC.,                                        1603
A0101405490000005210171TOCJAYAO, EVELYN PIMENTEL                                0501
B0101408400394032168001ALQUIROS FOOD CORPORATION                                1603
A0101408400394160353001JARDIOLIN, JAMES HILADO                                  0504
A0101408950000003171279POBLETE, ROSEMARIE JEAN JAUCIAN                          0502
A0101408950000004512070GARCIA, ALLAN LAGAYA                                     0502
A0101409210000002279007SOLIS, MARIA AIRA ANNE ONG                               0501
A0101412210000003979073FERDINAND D. ONG                                         0501
B0301400820000005991586PAPERINK ENTERPRISES                                     1601
A5501400120410042696088CAMBARIJAN MOTOR DOK                                     0505
A5501400120000002019158SUPERIO, MERLYN G. DBU DIAMOND                          10502
A5501400120000002019158MEMORIAL CARE SA                                        20500
A5501400120000000047323BARONIA, FIDENCIO MILAN                                  0501
A2401400180411478374047YOLANDA L. NINGAL                                        0501
A2401400180411744426001ENGCONG, JAY CUEVAS                                      0501
B0101406330472040053001KUS OFFICE SYSTEM MFG. CORP.                             1602
B0101406330000000432573FULRUBELL CORPORATION                                    1603
B0101406330000000432608FULRUBELL CORPORATION                                    1603
B0101406330000000432900GLOBE MARITIME TRAINING CENTER - MA                      1604
B0101406330472441865001HALTBAR INDUSTRIES, INC.                                 1603
A0101406330000000451216MARIBEL P. ZAFE OR                                      10503
A0101406330000000451216NOEL B. ZAFE                                            20500
A0101406330472766049001VERONIDIA G. DELA CRUZ                                   0501
A0101410140475478374005ORENSE, EVELYN                                           0501
B0501400170481015881001TOYOTA DAGUPAN INC.-2                                    1615
B1901400320000000041301FIRST INNER TRADE CREDIT CORPORATION                     1610
B1401400110492037847001LUCBAN BROADCASTING SYSTEM                               1601
A1401400110492554317001HERRERA, JOEL CORNEJO                                    0501
B0101407430503047489001MANILA INTERNATIONAL FREIGHT                            11610
B0101407430503047489001FORWARDERS, INC.                                        21600
A0101405940000003121780BETITA, ANA FRANCESCA ASUNCION                          10502
A0101405940000003121780DBU CHALKMARK MULTIMEDIA                                20500
A0101405940512474569001MANAOIS, CYNTHIA HISTORILLO                              0502
A0101408530516571877123ROBERTO PAOLO DE GUZMAN                                  0501
B0101411400000006560916CKO MUSIC PLATINUM, INC.                                 1605
B0101403450000002975780***********                                              1603
A0101403450521238141001**********                                               0502
A0101403450521339022001**********                                               0502
A0101404000000003284433VIRREY, ELVIRA NUNEZ                                     0501
B0101404000551036631002TECHNICAL INSURANCE BROKERS, INC                         1601
A0101404000551403800001***                                                      0502
B0101404000551782554001SHINING STAR FARMS & FOREST DEVELOPMENT                 11603
B0101404000551782554001CORP.                                                   21600
A2201400250561256082002JOSEPH P. CORTEZ                                         0503
A2201400250561782345001GELACIO ROMAN MANALANG                                   0501
B0101404130601015346002GLOBAL GAS & OIL CARRIERS, INC.                          1603
A0101407720602377521001CLAUDINE RAE L. JAVIER                                   0501
A0101407720602378666002FILOTEO CERENO FERRER                                    0502
B0101407720602428613001DERMA 360 CORP.                                          1601
B0101407720602821200608**********                                               2001
A0101409890000003098008REYES, VINCENT ALEGRE                                    0501
A0101409920000000998683MEMBERS OF NATASHA (SHOECAT INC                         10501
A0101409920000000998683AJETO, MERCY L.                                         20500
A0101407690652443947001NOLIBETH L. RUELOS OR                                   10501
A0101407690652443947001VINCENT A. RUELO                                        20500
A0101407690652478374140BEATRIZ MANIAGO - DEALERS OF                            10501
A0101407690652478374140SHOECAT INC                                             20500
A0101407690652520766034ANNABELLE P. TANALGO - DEALERS                          10501
A0101407690652520766034OF SHOECAT, INC.                                        20500
A0101407690652520766034ANNABELLE P. TANALGO - DEALERS                          10501
A0101407690652520766034OF SHOECAT, INC.                                        20500
A0101407690000000025152MONCEDA, MARINA - DEALERS OF                            10501
A0101407690000000025152SHOECAT INC.                                            20500
B0101407690652537622001CREATIVE DISHES & RECIPES INC.                           1602
B0101407690000000243850CREATIVE DISHES & RECIPES INC.                           1602
A0101407690652556332001PENERO, ROGEL BELTRAN                                    0501
A0101411530000003448220**********                                               0501
A0101413570000003379880ANGELICA F. FELIPE OR                                   10501
A0101413570000003379880ROBERT O. FELIPE                                        20500
A0101413990000006807087**********                                               0501
A0101413990000006434933BUENO, MELDRICK MACALMA                                  0501
A0101414120000004603183SILVA, ELIZABETH MERCURIO                                0503
A0101414120000000875481AMPILAM ENTERPRISES                                      0502
A0101414120000000649047TEJA, LORENA DELA CRUZ                                   0501
A0101406590662297269001MARTINEZ, ARMAN M. OR MARTINEZ,                         10501
A0101406590662297269001MARIA THERESE G.                                        20500
B0101410300663044788001SKINBASICS CORPORATION                                   1601
B1301400340683041966002TPG MANCOM SERVICE COOPERATIVE                           1602
A1301400340683087471001BAUTISTA, GINA AQUINO OR                                10502
A1301400340683087471001BAUTISTA, RODERI                                        20500
A0101408240711377890002******                                                   0502
A0101408240000003955431OROBIA, JOSE RAMON INUMERABLE                           10501
A0101408240000003955431JT                                                      20500
A2801400100712401674002DEL ROSARIO, DANILO LARACAS                              0501
A4101400390000001732412PEREA, PAUL JOSEPH VILLAS                                0502
A0101412340000004360729JHOANNE CORINTHIA L. DE GUZMAN                           0501
A0101404840851520766194FELIPA O. VILLANUEVA                                     0503
A0101406750852182475001ANALIZA B. HIZOLE                                        0501
A0101405070000001726121CASAS, CRISTINA DBU CNC                                 10505
A0101405070000001726121SHIPPING AGENCY                                         20500
A0101405070861478374066ELMER LADRES APAS                                        0501
A0101405070000005619263TEMPLONUEVO, AMELIA SARTO                                0501
