B0101407560686021818001HRBS GENERAL SERVICES INC.                               1603
B3101400870225056098001TWENTYFIFTHFOOD CORP.                                    1601
B0101407270000000830540QUANTUS BUSINESS SERVICES, INC.                          1610
A0101407270162333301001AILEEN T. TEMPLONUEVO                                    0501
A0101407270162465291003JEFFREY R. JETURIAN                                      0505
B0301400660000000195328TYRENE SHIPPING CORPORATION                              1603
B0101403320471030317001UPLIFT PHILIPPINES INC.                                  1605
B0101403320471040565001HUMAN SHELTER REALTY CORPORATION                         1603
A0101403320471205944001LOURDES V. DE CASTRO                                     0501
A0101403320471483816002FRESHNAIDA D. VERSOZA                                    0501
A0101407560686624543001ROANNE E. DRUECO                                         0501
A0101406750000003393162GHALAINI, GHASSAN ABDULL RAZZAK                          0501
B0101400860011374845003**********                                               1601
A0101400860011478374008LEONORA MACARANAS                                        0501
A0101400860011498803001**********                                               0501
B0101401250021019457001BOAZ AND JACHIN FOOD COMPANY                             1603
A0101401700041046244001R.D. AUTO PARTS & SERVICES                               0510
A0101401700041360888001ANNEE SAIDA T. ESCLETO                                   0503
B0101400150061025214001MAA CONSULTANTS, INC.                                    1601
B0101400150000000633390AVIZE INC.                                               1602
A0101400150000001422246BOGNADON, NELLY LABLABONG                                0501
A0101400150061236944101NOEMI T. BOLIVAR                                         0501
A0101400600071233668001**********                                               0502
A0101410850000003503482CANILLAS, MARTIN LAPPAY DBU                             10501
A0101410850000003503482MARCCHARM INDUSTRIAL                                    20500
A0101410560000001944163CAINDOG, CHERRIE ADARNI                                  0501
A0101400730000000112881GUTIERREZ, DOMINICA DALISAY                              0501
B0101412630000002186392EASTGATE MARITIME CORPORATION                            1602
A0101401830141752259001CARANDANG, FREDERICK ANGELES                             0503
A5001400170000000213761ISAW, NEIL JOHN ATAYAN                                   0501
B0101400440161007395001K SERVICO TRADE, INC.                                    1602
A0101407270000003254260SOLANGON, CHERYL CONSTANTINO                             0501
A0101401090171196001001MA. MATILDE GONZALEZ                                     0501
A0301400660000000194570DEQUITO, CITZY VENTOR                                    0503
B0301400660194044769038LUMINOUS DEVELOPMENT CORPORATION                         1605
B0101401380000000106732ANIMAL FIRST PET PRODUCTS CORPORATION                   11605
B0101401380000000106732DOING BUSINESS                                          21600
A0101401380000000682622********                                                 0501
A0101400310211082426001MORALES, NORIELYN VILLELA                                0502
A0101400310211157412001EDUARDO MORENO OR                                       10502
A0101400310211157412001LOURDES MORENO                                          20500
A0101400310211157887002ICASIANO, BENEDICTO OR                                  10504
A0101400310211157887002ICASIANO, JUDITH                                        20500
A0101400310211376429002*****                                                    0504
B0101400310211750497001MONAREL LOANS INC.                                       1601
A0101407140213239085001**********                                               0502
B0101407140213289570001**********                                               1603
B3101400870225057700001AGORA TECHNOLOGIES, INC.                                 1601
B1001400190000002170849SY, STEPHEN                                              1605
A1001400190231478374170ENIOLA, MELODIA                                          0501
A1001400480000000474953FERNANDEZ, JOFFREY MAHINAY                               0501
B1301400470000003270102LFCI-KPP KASANIB SA PAGABOT NG                          11610
B1301400470000003270102PANGARAP INC.                                           21600
A1301400470000002299825REINA CONCEPCION M. BERNABE                              0501
B0101406460272020749001EASTGATE COMPUTER CORPORATION                            1601
A0101406460272377244001ALA, JESSIE ATENTA                                       0501
A0101406460272517619001SAMILEY, CAROLINA OLIVEROS                               0501
A0101406620000000193760DIAZ, FRANCIS PATRICK TAYENGCO                           0501
B0101406620273022260001CROWN SYNERGY TRADING CORP.                              1605
A0101400570281045125001ROADWAY MOTORPARTS TRADING                               0501
B0101411240000000629312VIBAL GROUP, INC.                                        1601
A2601400270000003259567TRISTAN JARVIS M. TOLENTINO                              0503
B0101402350321031479001MED OPTIONS MULTI SPECIALTY CLINIC                       1602
A0101402350321478374059BERNARDITA D. LOPEZ                                      0501
B0101405650322023520001ACES CHASSIS LEASING INC.                                1602
B0101405650000000772743BF FEDERATION OF HOMEOWNER ASSOCIATION                   1601
B0101402480331022449001***************                                          1605
B0101402480331030127001NITO SEIKI MANUFACTURING CORPORATION                     1601
B0101402480331032278001MT. CARMEL PRINT HOUSE                                   1602
A0101402480331057764001ASPE, MARVI DBU MRD MASTER                              10501
A0101402480331057764001SCREW BOLTS TRADING                                     20500
B0101402060351009376001AVC CHEMICAL CORPORATION                                 1605
A0101402060351212245001MARIA MUTYA T. FAIGAO OR                                10501
A0101402060351212245001EUGENIE F. FAIGA                                        20500
A0101402930381205137001DR. ROMANITO C. CABALONA OR                             10506
A0101402930381205137001LORETA E. CABALONA                                      20500
B0101408400394028489001KING'S HOLLY, INC.                                       1601
A0101408400394478374058CHARINA BENIGNOS                                         0504
A0101409180000004642739VILLARBA, JUNALYN CEDO                                   0501
B0101409180397044045001CACHO CONSTRUCTIONS, INC.                                1602
A2401400180411041996001BRIGADAROCK GARDEN RESORT                                0510
A2401400180411478374061JUNRES AGAD OR                                          10501
A2401400180411478374061NORMELITA BLANCO                                        20500
A0101403320000001803441TRIVI TRADING                                            0501
A0101412760000001399799GONZALEZ, LEN JOSEPH ABELLA                              0501
A0501400170000002354612CARAS, ALFREDO CARBONILLA                                0502
B0501400170481258347003OUR LADY OF MANAOAG COLLEGE, INC.                        1601
A0501400170481329536001PERLA C. ROMERO OR                                      10501
A0501400170481329536001BIENVENIDO S ROM                                        20500
B1401400110492033323001STA. BARBARA HOMES HOMEOWNERS                           11601
B1401400110492033323001ASSOCIATION                                             21600
A0701400260000001804553COLIS JR., BERMUDO FERNANDEZ                             0501
A0701400260495054474002GUARDA, GIGI DBU MYCA ANN AUTO                          10501
A0701400260495054474002SUPPLY                                                  20500
A0101407430000001028820MORALES, RHEA E. DBU                                    10505
A0101407430000001028820LAN ASTUTE LOGISTICS                                    20500
B0101403580511005339002NONILLION HOLDING CORPORATION                            1602
B0101403580511046747001HUDDLE ROOM MEDIA INC.                                   1602
A0101403580511152491001FERMIN ANTONIO S. FRANCISCO OR                          10504
A0101403580511152491001MA. CARMELA M. FRANCISCO                                20500
A0101403580000000016053MARIA CARMINA S. MESIAS OR                              10508
A0101403580000000016053MARIA CRISTINA S. RIVERA                                20500
B0101408530516035673001FERROTECH STEEL CORPORATION                              1608
A0101408530000001885710MARIA JHOANNA L. QUIZON                                  0502
A0101408530516629972001ESTACIO, DANIEL LLANTO                                   0502
B0101408530516698301001HYDRATA, INC.                                            1601
B0101411400000001280626POWER QUALITY ENGINEERING LIMITED-R                      1605
A0101412050519057647001OJEDA JR., OSCAR Y. DBU AMIKOS                          10501
A0101412050519057647001FOOD CORNER AND BIONA, SH                               20500
A0101412050000000367931ANDRES, RONELIA ECALNER                                  0501
A0101403610531581656001RECASATA, MARIA CATHLEA T. OR                           10501
A0101403610531581656001TROZADO, FELICIDAD                                      20500
A0101404000000003950743EVANGELISTA, JENNIFER DE LEON                            0501
A0101404130000001831692***********                                              0502
B0101404130000000321519CARENETT_PHILIPPINES INC.                                1605
A0101404130601450200001LIE, LAI HOCK                                            0501
A0101404130601549706001BARIUAN, DONNABEL CARIAGA                                0501
A0101404130601663268001ASPA, ELVIRA CANIMO                                      0501
B0101404130601669890001HODREAL HOLDINGS INC.                                    1605
A0101412180000000501511YU, VENGIE TUPAZ                                         0502
A0101404420000000471896JANETTE S. TRISTAN                                       0501
A1301400500000002063849SOLITA A. BAYAN                                         10503
A1301400500000002063849OR RONALD M. BAYAN                                      20500
A1701400230693478374063CASTILLO, NORALIN TAJA                                   0501
B0101408240000000832597RNUABLE ENERGY CORPORATION                               1604
B0101408240000000832893WOWA'S FAST FOODS INC.                                   1605
A2801400100712090543001DELGADO, JUNIVER DELOS SANTOS                            0502
A2801400100712553031001PROHHOROV, GINA OCOL                                     0502
A4101400550000002091050BUNDA, AMYSKY ALEGRE                                     0502
A4101400550000003267105MCMAR & MARY ELECTRICAL                                 10501
A4101400550000003267105& CONSTRUCTION SUPPLY                                   20500
A0101412340000004360212PATRICK MARTIN R. DELA CUEVA                             0502
A0101412340000004360489STU B. RAMOS                                             0503
A0101404840851478374094LETICIA FULLO                                            0501
A0101406750000000358036QUINAWAYAN, JHOGIE NAZARETH                              0505
A0101406750852478374115CRISENCIA S BATACANDULO                                  0502
B0101406750852491986001SPRINGPHIL TRADING & MFG. INC.                           1602
A0101406750852704935001*************                                            0501
B0101405070861036139001GETAWAY TOURS INTERNATIONAL, INC.                        1601
