B2201400250561821100608**********                                               2005
A0101403450521392545001NANETTE CHRISTY Y. ONG                                   0501
A0101406590662296475001RAMOS, MA. JESUSA FERNANDEZ OR                          10501
A0101406590662296475001RAMOS, JOSE FRAN                                        20500
A0101400860011395102002**********                                               0502
A0101400860011524796001**********                                               0502
A0101401250021185179001CABRERA, ZENAIDA SANTOS                                  0501
A0101401250021688004001SENEN O. GOLI                                            0503
A0101400150000000807567RESURRECCION, MILDRED PAGSUYUIN                          0501
A0101400150000007710518SOLER, REOBEN                                            0502
B0101400150000005015536D' LUCKY ACE DEVELOPMENT CORPORATION                     1601
A0101400150061226965002TAN III, BIENVENIDO ANTONIO OR                          10501
A0101400150061226965002EUFEMIO, ALBERT                                         20500
A0101400150061242841001MA. AURORA ORTIZ  OR                                    10501
A0101400150061242841001MA. AURORA CARLA ORTIZ                                  20500
A0101400150061335074001YU KIM TENG, DAPHNIE CHUA                                0501
B0101400150061571157001WOODHOUSE HOLDINGS CORPORATION                           1601
B0101400150061571158001PROVENANCE HOLDINGS CORPORATION                          1601
A0601400100081424085001ALAPAG, JASMINDA B. OR                                  10502
A0601400100081424085001ALAPAG, MARCELIN                                        20500
A0601400100081501761001TAN, WINTHEL OR RALPH                                    0501
A0601400520000001707051LIMON, REMEDIOS Y. OR                                   10501
A0601400520000001707051POLICARPIO, JUDY                                        20500
A0101413280000005279650VALMADRID, BABY RUTH RONDOLO                             0501
A0101413730000000469158***************                                          0501
A0101413730000005959773*****                                                    0501
A0101400730000000833410GOMEZ, EDWIN VITUG                                       0501
B0101400730111015088001MANILA TEACHERS MUTUAL AID SYSTEM                        1601
A0101401960000004419830**********                                               0501
A0101413310000009641130DE JESUS, CHERYL ANN GRACE ZAFR                          0501
A0101407270000004915931LIM, EDUARDO IGNO                                        0502
B0101407270162044098002GRANTLINE, INC.                                          1605
A0101407270162599488001ROMEO M. SALAZAR OR                                     10505
A0101407270162599488001BERNADETTE V. SA                                        20500
B0101401090171031978001STUDIO 234 GRAPHICS & DESIGN                             1601
B0101401090171041259001THOMASIAN HEART SPECIALIST ALUMNI                       11602
B0101401090171041259001ASSOCIATION,INC.                                        21600
A0101401090171195610001WILFREDO/CYNTHIA/MARIFEL MITZI/                         10503
A0101401090171195610001CYNTHIA MARIE FERNANDEZ                                 20500
A0101401090171353824003**********                                               0503
A0101401090171386744001RODERICK M. ENDAYA                                       0501
A0301400950000008869054**********                                               0505
B0301400950000009938334COASTLAND CONSTRUCTION AND DEVELOPMENT                  11601
B0301400950000009938334CORPORATION                                             21600
A0101410720653385187001SERVILLANO H. GALVEZ JR. OR                             10504
A0101410720653385187001KAREN F. GALVEZ                                         20500
A0101410720653478374002ZENAIDA O. CARLOS                                        0501
A0101410720000000211736GABRIEL, JOEL ORTIZ                                      0505
B0101412500000000739748HI-END DATA I.T. SERVICES INC.                           1601
A3101400160000004952483LAIG, LEILA PIA PEREZ                                    0502
B3101400160221019509001DYNASTY ALUMINUM, GLASS &                               11601
B3101400160221019509001GEN. MDSG CORP.                                         21600
B1001400190231061482001MAGSAYO, ALLAN CASTRO DBU                               11601
B1001400190231061482001SCORPION SACKS M                                        21600
B1001400190231064130001OLANDER INDUSTRIAL TRADE CORP.                           1602
B1001400190231064130003OLANDER INDUSTRIAL TRADE CORP.                           1602
A1001400190231342333001BUSGANO, HIPOLITO S.                                     0503
A1001400350000011297740DUHAYLONGSOD, RANKIN POCULAN                             0501
A1001400350000004095341OPENA, RAYMOND ABRIOL                                    0501
A1901400290261585775001LITA CUETO MENDOZA OR DORIS                             10502
A1901400290261585775001MARIE MENDOZA MEDINA                                    20500
A0101401670000003181655ADINA, LILIA TOMAS                                       0502
B0101401670000000016286PSE-CST JV CORP.                                         1603
A0101401670000005039812ROBERTO OR AUDREY OR CAREN                              10503
A0101401670000005039812JOSEPHINE CRISOLOGO                                     20500
A0101401670271228042001TINIO, JUAN ANGEL LIGON                                 10501
A0101401670271228042001OR TINIO, MARIA                                         20500
B0101406460000000020931GREATWALL MANPOWER & GENERAL                            11604
B0101406460000000020931SERVICES INC.                                           21600
B0101406460000000182409MAN ASIA MANPOWER AND GENERAL SERVI                      1601
B0101406460000001231781L'EPICERIE CORPORATION                                   1601
B0101406620273025674001PHIL. GAME FISHING FOUNDATION INC.                       1602
B0101406620273046416001FIRST SHELTER VENTURES & REALTY CORP.                    1605
B0101406620273046416002FIRST SHELTER VENTURES & REALTY CORP.                    1605
B0101411820000003085112HARDCOM COMPUTER SYSTEM CO.                              1601
A0501400200000006445229DUCLAYAN, JUDITH GOMEZ                                   0502
A2601400270000002312152SONILYN C. LACA                                          0501
B0801400160000005656982**********                                               1603
B2001400290315041265001DUMAGUETE GOLDEN RULE STORE                              1601
A0101402350000005644782BARJA, ARCHIE ROMARAOG                                   0501
B0101402350000000046051ALLSTUFF TRADERS INC.                                    1603
A0101402350321415696003MANGUBAT, PAOLO TOLENTINO                                0501
A0101402350321640781001ELVIRA O. DURA                                           0501
B0101405650322027007001PINOY EXPRESS HATID PADALA SERVICES INC.                 1610
A0101405650322346354003DAYRIT, ARMANDO RODRIGUEZ JT                             0505
B0101402510341024728001YAHU "G" FOODS CORPORATION                               1606
A0201400890000008415667ZERRUDO, ARNIE CHEN CAVAN                                0501
A0201401020000006598863JUMAWAN, DEAN VINCENT AGAN                               0501
A0201401020000000056113LUCHAVEZ, R DBU YULIAN                                  10503
A0201401020000000056113MERCHANDISE                                             20500
A0101408790000005250971FERRANCO, PATRICK OJANO                                  0501
A0101408790000009466322MIRANDA, MA. EDEN PENULIAR                               0502
A0101402770391214496001FRANCISCO KUAN WONG OR                                  10505
A0101402770391214496001JOYAL KUAN WONG                                         20500
A0101402770391473763001DONBERT E. BUMATAY OR                                   10502
A0101402770391473763001ISABELITA L. ESGUERRA                                   20500
A0101402770391743730001UMALI, EDUARDO BASCONCILLO                               0501
A0901400220000006214499OH, ROBERT SAAVEDRA                                      0503
A0901400220432339854001**********                                               0503
B0901400220432750068001**********                                               1602
A5101400100000010371256BASA, RALPH MANUEL VALLAR DBU M                          0502
A0101403030000005327624TAN, WILLIE LO                                           0501
A0101412890000011812985SERAFIN, RHEGEL RAAGAS                                   0501
A0101412890000007095750ANGELES, CRISTINA DBU INTERIOR                          10502
A0101412890000007095750PERSPECTIVE MARKETING                                   20500
B3801400170490060785001CALAPAN GOLDEN EAGLE MART, INC.                          1610
B3801400170490060790001MINDORO GOLDEN EAGLE DISTRIBUTION CORP                   1605
B3801400170490069637001JACK DANIEL'S REALTY CORPORATION                         1601
A1901400160491247764001MARITES E RAMIREZ                                        0501
A1401400110000007186601xxxxxxxxxxxxxxxxxx                                       0503
A1401400110000006680282*************                                            0503
B0101407430000001213125GLOBALAIR LYNX INC.                                      1605
A0101407430503369731001LILIBETH M. ARCEGA OR                                   10502
A0101407430503369731001PATRICIO M. ARCEGA                                      20500
A0101403580000007265274NAONG, MA. FAYE DBU JAFRAN                              10501
A0101403580000007265274CONSTRUCTION                                            20500
B0101405940000000002773BT AUTO SPORT CORP.                                      1605
A0101408530000002980603CASTILLO, WILBERTO PROSPERO                              0501
B0101403450521011878001**********                                               1602
A0101403450521237475001**********                                               0501
A0101403450521241170001**********                                               0502
B2201400250000007719977R & A FASTFRATE CORP.                                    1605
A2201400250561315662002LAARNI M. TARRONAS OR                                   10502
A2201400250561315662002RICHARD S. TARRONAS                                     20500
A2201400250561478374026MINDA S. BLAYA                                          10501
A2201400250561478374026MEMBERS OF NATASHA                                      20500
B0101404130000003105733CO, MA. TERESA ROZON  DBU GR8ESCAPE                      1602
A0101407720000003886944DELA CRUZ, CHERADE LORAINE PALE                          0502
A0101407720000004664375MACALINDONG, JHOANNA EUNICE                             10501
A0101407720000004664375PACIS                                                   20500
A0101407720602165558001PAGTANAC-PAGUNTALAN, ROSARIO                             0503
A0101407720602165575005DR. MA. VICTORIA G. BELO                                 0505
A0101407720602166869002CHAN, LUZ GARCIA                                         0501
A0101407720602295336001AGUIRRE, ANGELITA MIGUEL                                 0501
A0101407720602318369074ELIZABETH Z. DIVINO                                      0502
A0101407720602339048001CABRERA, ALFREDO DE JESUS                                0501
A0101407720602340512009GENOVEVA C. BALLADA                                      0501
A0101407720602374401001DE GRANO, JOANNE DAVAC                                   0502
A0101407720000002727831ARMYLA B. PALOMAR                                        0501
A0101404260000006374439IBANEZ, MARIA GIRLIE JERESANO                            0501
A0101404260000000532290PESTANO, ALBERT L. OR PESTANO,                          10502
A0101404260000000532290LUCIA M.                                                20500
A0101407690000006736463CENTENO, MICHELLE DBU ASRA                              10503
A0101407690000006736463DOCTORS MEDICAL CLINIC                                  20500
A0101407690652512043002ESQUIERO, DENNIS DE GUZMAN                               0501
A0101407690652525001079AILYN C DIZON - DEALERS OF                              10501
A0101407690652525001079SHOECAT INC.                                            20500
A0101411530654089400002**********                                               0501
B0101413990000006498139K BEST FOOD INNOVATIONS INC.                             1601
B0101413990000006498128NY ONE INTERNATIONAL INC.                                1601
A0101406590000003007096ARROYO, MA LOURDES TUASON                                0501
A0101406590000005305117PAGULAYAN, ALFREDO OR RODRIGUEZ                         10502
A0101406590000005305117FILOMENA                                                20500
A0101406590662418327001LABIS, ERWIN MARPURI                                     0501
B1301400210000000915673EDCON CARGOTRANS, INC.                                   1601
B1301400340683025654001RANAIL MOLDMAKER & GENERAL SERVICES                      1602
A1301400340000002158476ALIPIO, ALMA DELOS SANTOS DBU                           10501
A1301400340000002158476ALIPIO GARMENTS                                         20500
B1301400340000006402502********                                                 1602
A1301400340683597443001**********                                               0502
A1301400500000000212951GUILLERMO, ALVIN MANLAPIG                                0502
B1301400500000005963437SOFIETH FOOD CORP.                                       1605
B2801400100712042633001SUBIC DRYDOCK CORPORATION                                1610
A4101400260000009533713BAUTISTA, KHRISTINE CRISOSTOMO                           0501
A4101400420000008280604VITAMOG, JERIELENE REYES DBU                            10501
A4101400420000008280604KIRZANDZOE FASHION MERCHA                               20500
A4101400420814520766027ARUTA, CORAZON G.                                        0501
A4101400420814520766138SAN PEDRO, ANA LIZA                                      0502
A4101400420000000120696CARMELA G. ROMA                                          0501
A0101412340000003340490ARLEEN M. AGRIPA                                         0502
A0101404840851217637095MELINDA VILLAGOMESA                                      0501
A0101404840851520766163JOCELYN ANONUEVO                                         0501
A0601400230000010702819SANTOS, MARK KEVIN JIMENEZ                               0501
B0601400230891821100608**********                                               2010
