B0101407430503821100608**********                                               2010
B0501400170481821100608**********                                               2010
A2001400290000002319520CADAMPOG, JOSE GLENN CENIZA                              0502
A2001400290315688009001ALGOPERA, LLOYD GARCIA                                   0504
B0101408110515055656002THE WHOLE ONE YARD INC.                                  1601
A0101400440161525001159MARITES P. MONTALBAN                                     0502
A0301400950000001379568TAOJO, MUTYA SANTIAGO                                    0502
A0101403580511369144001ANDREW C. THAY OR                                       10503
A0101403580511369144001MOIRA O. THAY                                           20500
A0101403580511558749001HENRY D. ANTONIO                                         0503
A0101403580511691950001BALDE, CARMEL LYNNE MAGAT                                0501
A0101400150000000807636TESALONA, MARIA CLAUDETTE CRUZ                           0501
A0101400150000003600893PINEDA, MARIA CARMELA ERICA LEG                          0502
B0601400100081029288001ST. JOHN INTEGRATED SCHOOL OF ANGELES                   11610
B0601400100081029288001CITY, PAMPANGA                                          21600
A0101410850000000005803JOSE, SHARON KAYE LU                                     0501
B0101400730111042347001*********                                                1602
B0101400730000000002580DALCA CORPORATION                                        1602
A0101400730000002882411SANTOS, NERISSA BAUTISTA                                 0501
A0101413310000001928936CABANSAG, ARMEL CABANATAN DBU                           10502
A0101413310000001928936AVIATOURS TRAVEL SERVICES                               20500
A0101401830141207260001ZETA L. ROQUE                                            0501
A0101401830141540968001MARY ANN R. ARCANO                                       0502
A0101400440161039572023JIMMY S. PALISOC                                         0501
A0101400440000000060346JANICE C. BILBAO                                         0502
A0101400440000002035198DOVIE T. JERMIA                                          0502
A0101400440161520766193LEILANIE P. LOCSIN                                       0501
A0101400440161525001052MARY B. MONDRAGON                                        0501
A0301400790000000435909KASER, NELIDA AREVALO                                    0501
A0301400950000003249927MARY JULIE CRISTINA A. CHUA                              0501
B3101400160221027279002TORCHRESEARCH RESOURCES CORP.                            1602
A3101400450000002092935SIMBULAN, KARLA ANGEL HERRERA                            0502
A3101400450223352819001FARAON, RIZALINA OR                                     10502
A3101400450223352819001BELEN, RHODORA                                          20500
A3101400450223455809001LANCION, AUREA OR JERIC                                  0502
A3101400450223693052001FERRER, PAMELA PIA OR MELVIN                            10506
A3101400450223693052001JOHN OR AUSTRIA, APRYL                                  20500
A1301400470252478374029ANGELO F. LINDAIN                                        0502
B0101406620273025877001EASTBAY PROPERTY & DEVELOPMENT, INC                      1603
A0101406620273409244001MANIPOL JR., MARIO MANDRIQUE                             0501
A0101411820277092345001RIZADA, CHRISTINE MAE MONTALLA                           0502
A0101400570000001134252AMBATALI, JOSEPHINI PESCADOR                            10501
A0101400570000001134252OR JACINTO, ROSA                                        20500
B0501400200292021985001FOREST LAKE DEVELOPMENT, INC.                            1602
A2601400270000002677569DEXTER C. DUMRIQUE                                       0501
A1101400120000001920714TAMAYO, ALMA A. OR                                      10501
A1101400120000001920714TAMAYO, GERARDO                                         20500
A6601400120000000060711ESPINA III, SIXTO OR                                    10501
A6601400120000000060711ESPINA, LYRA FAY                                        20500
B2001400290315044204001ACEBANK CREDIT, INC.                                     1601
A2001400290315044705002REMAN GLASS & ALUMINUM                                   0501
A0101402350321180985003HO, CHIEN CHUNG OR                                      10501
A0101402350321180985003CHUANG, SHIH-SEN                                        20500
A0101402350321503072001GAMBOA, REYNALDO CASTRO                                  0502
A0101405650000002325691NAOE, PATRICIA ORONAN                                    0502
A0101402510341196514001JAIME LIM OR CHRISTINA LIM OR                           10501
A0101402510341196514001GINA LIM                                                20500
A0101402510341196514001JAIME LIM OR CHRISTINA LIM OR                           10501
A0101402510341196514001GINA LIM                                                20500
A0101402060351009359001JIANDANI, SURESH G. OR                                  10501
A0101402060351009359001JIANDANI, KAVITA                                        20500
B0201400760374249471002COMMONWEALTH INSURANCE COMPANY                          11602
B0201400760374249471002-OPERATING FUND                                         21600
B0101402930381019173001MANILA LUXURY CONDOMINIUM CORP.                          1601
B0101402930381040190001DIME CREDIT AND COLLECTION SERVICES                      1601
A0101402930381205169001LETICIA OR DOROTEO OR REYNALDO                          10502
A0101402930381205169001JR. OR MARISA PALINES                                   20500
B0101402770391041647001G B B TECH ELECTRO MECHANICAL & DEV. INC                 1604
A0101405490000002880573WENCESLAO C. PIMENTEL DBU                               10503
A0101405490000002880573MGV COMMERCIAL                                          20500
A0101408400394478374057EVELYN M. BONGAT                                         0503
A0101408400394491188001BESA, ARMERT SABANGAN                                    0502
A0101408950396773717001AGUILAR, JOSEPHINE CABRERA                               0502
A0101409180000003780409ESTACION, ENRIQUE R                                      0501
A0101409180000004375166ALEJANDRO, ROMULUS S.                                    0501
A0101409180000004796778COO, JANE V.                                             0501
B0301400820409055791001CONSOLIDATED COOPERATIVE BANK                            1601
A0301400820409760125002GEPITULAN, DANTE C.                                      0501
A2401400180000002284802YATOR, BERNADETTE DIAZ                                   0501
B1201400150421025695001PRINTING AND PUBLISHING MULTI-PURPOSE                   11602
B1201400150421025695001COOPERATIVE                                             21600
B1201400150421025695002PRINTERS N PUBLISHERS SERVICE                           11601
B1201400150421025695002COOPERATIVE                                             21600
A0101403320000001803190HILARIO, MICHAEL OR HILARIO                             10502
A0101403320000001803190ANNA MARIA GWENDOLYN                                    20500
B0101403320000001647229ARMANDO U. KHONG HUN GENERAL                            11601
B0101403320000001647229CONTRACTOR INC.                                         21600
A0101403320471603471001BADIOLA JR., DANILO GARIANDO OR                         10501
A0101403320471603471001BADIOLA, RADLYNE                                        20500
A1401400110492621336001MOISES, JESSIE LOSAURO                                   0501
B0701400260000000041141HOLY CHILD REALTY & DEVELOPMENT INC                      1601
A0101407430503421013006IRIES A. RIVERA                                          0501
A0101405940512366890005CASTILLO, RAFAEL RICAFRANCA OR                          10501
A0101405940512366890005CASTILLO, REBECCA                                       20500
A0101408110000001364825YUHENGCO, JEFFERSON JOHN CHUA                            0501
A0101411790518055764174INOFERIO, AARON NEIL AVANZADO                            0502
A0101411790518055764187LACERNA, KARENENA MOAJEORMATION                          0501
A0101411790518055764205HIPOL, RONALD MACARANAS                                  0501
A0101403610531475509001DE BELEN, VICTOR CONCEPCION                              0505
A0101404130601288502002JOCELYN LOPEZ                                            0501
B0101407720000000885656JBB & AFB CORPORATION                                    1602
A0101407720000000510870SALUD, VINCENT CERVANTES                                 0502
A0101404260000000550292J.J. DRILLTEK CORPORATION                                0501
A0101404260611150902001MARITESS OR BERNARD PAMA                                 0501
A0101404260611150932002DELIA D. UY                                              0501
A0101409890649748239001**********                                               0508
A0101407690652020765001STARIAN MARKETING                                        0505
B0101407690652042938001SIGNWOOD HARDWARE & LUMBER SUPPLY                        1603
A0101407690000000154750BARANGAN, ROMEO DBU                                     10503
A0101407690000000154750BARANGAN TRADING                                        20500
A0101407690652319667001TANTAMCO, RAMON NICOLAS                                  0510
A0101407690652324673001RAFAEL FELIX F. BORROMEO OR                             10503
A0101407690652324673001BERNADETTE CECILLE                                      20500
A0101407690652478374179LENIE ANDO - DEALERS OF                                 10502
A0101407690652478374179SHOECAT INC                                             20500
A0101411530000000013674DAYRIT, MA. KATRINA NARCISO                              0503
A0101406590662546625001RAMA, REINA MAITIM                                       0506
A1301400210000000023394FILIPINAS A CALAYAG                                      0501
A1301400340683378423001OCAMPO, MA. LEONORA EUGENIO                              0502
A1701400230000002762832ANG, MARY ANN LIU                                        0510
B0101408240711028488001INTAS DESTINATION MANAGEMENT INC.                        1605
A4101400260812249154001RIZALDY J. ESTOCADO                                      0501
A4101400420000002084595TONIO, EDNALYN                                           0501
A4101400550000000900350SANTOSIDAD AUTO SUPPLY                                   0503
A0101412340000004360558RIZA MARIE C. BELGIRA                                    0501
A0101406750000000172990ANCHETA, JENNET TOMAMANG                                 0502
A0101406750852043541001GRAFIX VENUE ENTERPRISE                                  0502
A0101405070861478374086MARLYN C. GABEST                                         0502
A0601400230000003638915JOSE, PRECY TANHUECO or                                 10501
A0601400230000003638915JOSE, JEFFREY PALLER                                    20500
A0601400230891738531001CHUA, MARK ANTHONY GARCHITORENA                         10502
A0601400230891738531001TAYAO, GILBERT A                                        20500
