B0101400570281821100608**********                                               2005
B0301400370192821100608**********                                               2002
B0101415350000005028933DE DIOS, MA. REGINA G. DBU GRABENGO OR                  11605
B0101415350000005028933DE DIOS, ARIEL F                                        21600
A0101410720000006128792LAUCHENGCO JR., R DBU G.R.O.W.                          10501
A0101410720000006128792ENTERPRISE                                              20500
A0101410720653528817001VINCENT GONZALO SY OR TIMOTHY                           10502
A0101410720653528817001JON SY OR JULIE                                         20500
B0101405940000001800300STAR MOTORS MANUFACTURING INDUSTRIES                    11601
B0101405940000001800300INC.                                                    21600
A4101400420814478374122AGUILO, RODENA T.                                        0501
A4101400420814520766064ANDAYA, AURORA A.                                        0501
A0601400100081724887001MAYAMAYA, LEAH DEL ROSARIO                               0501
A0601400520000002085963CANLAPAN, ARNOLD OR CANLAPAN                            10505
A0601400520000002085963REBECCA                                                 20500
A3001400130000002063441JONGKO, JOSE MARI MARCO OR                              10502
A3001400130000002063441JONGKO, DEBORAH                                         20500
A3001400130230687040108JAQUE, ROMEO /OR                                        10510
A3001400130230687040108JAQUE, CONCORDIA                                        20500
A0301400820000001554821ACLAO, MARILOU G.                                        0501
B5501400120000000003232********                                                 1603
A1201400150421299356004LARANANG, BENITA CRISELDA                               10502
A1201400150421299356004MANONGDO                                                20500
B0101412180604821100608**********                                               2001
A4101400420000004847941CARTAGENA, CRISTINA MELLENDRES                           0501
A4101400420814422280001DELGADO, ELVIRA CARIENENA                                0502
A4101400420814478374041SABANDO, JULIUS C.                                       0501
A4101400420814520766077DOMINGUEZ, SYLLIE                                        0501
A4101400420000000120696CARMELA G. ROMA                                          0501
A0101401250021797345001PALIC, SENEN ROSET                                       0502
B0101400150061047262001SUPER GT MOTOR SALES AND SERVICES INC.                   1603
A0101400150061289689001ROBERTO S. REYES OR                                     10501
A0101400150061289689001PIA MARIE I. REY                                        20500
A0101400600071478374003JALIQUE, GENARA                                          0502
B0601400100000005690406SAVERS ELECTRONIC WORLD INC. DBU SA                      1605
B0601400100000005690417SAVERS ELECTRONIC WORLD INC. DBU SA                      1605
A0601400360000000978856CAPAN, LITO ROSE SANTIAGO                                0501
A0601400520000001706792BUNGQUE, ALDRIN CAPILI                                   0501
A0601400520000001349617TIATCO, LIRNA PINEDA                                     0503
A0101410850000003503966FUNTALBA, DITZ SHANNA ANNE DAVO                          0503
A0101400730000002882313YAP JR., ENRIQUE YNSON                                   0501
A0101400730000001822577REMO JR., JOSE HARI                                     10503
A0101400730000001822577OR REMO, EVELINA                                        20500
B0101406040000003547580********                                                 1602
A0101412630000006706129NAMOC, REX BARNES                                        0501
A0101401830141205675002AMELIA I. CAPISTRANO                                     0501
B7201400170000003773637MDSDOC CORPORATION                                       1601
A0101400440161039572065MARIETTA M. ASOQUE                                       0501
B0101407270000000830426DROPBOX, INC.                                            1602
A0101407270162331908049RIVERA, SHEILA                                           0502
A0101407270162333154028MYRNA G. REYES                                           0501
A0101401090000007164156NAVARRO, DAN CHRYSLER ELVINA                             0501
A0101401090171199408001MA. CRISTINA C. DORIA                                    0502
A0101401090171615473001EMERALD C. SUAREZ                                        0502
A0301400950000005707182HERRERO, KENNETH DON SEPULVEDA                           0502
A0101410720210788809001RAFOLS, CECILIA ANNE LIM                                 0501
A0101410720000002283930LADIA, APRIL IRIS RUPIDO                                 0504
A0101413600000006779686HOMER NEPOMUCENO                                         0501
A1001400190231446795001******                                                   0501
A1001400480000000133279**********                                               0502
B1001400480000000133593DELUXE RANCH TRANSPORT CORPORATION                       1602
A1301400470252482273001DRA. LEONOR J. DIZON                                     0501
A1301400470252599213001REYNALDO OR ROSARIO TERESITA OR                         10503
A1301400470252599213001RAYMOND JOSEPH ODULIO                                   20500
B0101401670271028082002DDT KONSTRACT, INC.                                      1630
B0101406620273040722001ARDENT NETWORKS INC.                                     1602
B0101412470000002338843WEBLEND INC.                                             1601
A0101400570000006271649MACOLOR, LINA AGANAN                                     0501
B0101400570000003451556DE LOS SANTOS MEDICAL CENTER, INC.                       1610
A0101400570281360976001DR. ERLINDA N. ARMOVIT                                   0503
A2601400270302557323001MELANIE OR REYNALDO AGNES                                0505
B2001400290315040978001E KHO RURAL DEVELOPMENT ENTERPRISE                       1605
A2001400290315048040001SILVER RIVERS                                           10503
A2001400290315048040001CONSTRUCTION SUPPLIES                                   20500
A0101405650000004822220YANGUAS, DOSIE SALDANA                                   0501
A0101405650322174203001VARIN, LEONORMA                                          0501
A0101405650322642348001********                                                 0501
B0101402510341037808001FAIR ALL MARKETING                                       1602
B0101408790383047956001NOVARAD ASIA PACIFIC CORPORATION                         1603
B0101402770391021795001EARL METAL & PLASTIC PARTS FABRICATORS                  11620
B0101402770391021795001INC.                                                    21600
A0101402770391340396001ERLINDA D. VILLANUEVA                                    0504
A0101402770391354941001RAYMOND D. VILLANUEVA                                    0501
B0101405490000000020008101 VENTURES SUPPORT CORPORATION                         1605
A0101405490392170537002LORNA V. TUGADE                                          0502
A0101405490392298552043BETTY R. ARENA                                           0502
A0101405490000000444313BENITO M. LOJO                                           0503
A0101408400000001855461AQUINO, ELEANORE ANNE ARCEO                              0501
A0101408400394444684001**********                                               0502
A0101408400394478374094NUNEZ, GENIE                                             0501
B0101409210398044082001ALABANG AUTO EXCHANGE                                    1603
B5501400120410042495001TOPLAND FARMERS COOPERATIVE                              1601
B2401400180411031945001ABC DISTRIBUTORS INCORPORATED                            1605
A1201400150421333438001LYMAN B. SALVADOR                                        0502
B0101403030441021825001**********                                               1603
A0101403030441497564001**********                                               0501
B0101403320000000037567EESC CONSTRUCTION INC.                                   1602
A0101403320471311190002*****                                                    0505
A0101406330472478374044ARMES SMITH B. ALVARADO                                  0501
A0101406330472478374046YVONNE M. LOMIBAO                                        0502
A0101406330472767447001MARY SUSAN D. DEVELLERES                                 0504
A0101412760000002067632VILORIA, REMEDIOS O. OR                                 10501
A0101412760000002067632VILORIA, EDUARDO C.                                     20500
A0501400170000002357359SINO CRUZ, KRISTOFERSON GARCIA                           0502
B1901400320000000041283SAN ISIDRO MULTI-PURPOSE COOPERATIVE                     1601
B1401400110000003475650RCBL - OUR LADY OF SORROWS PARISH                        1610
A1401400110492221115001MANOLO A MERCADO                                         0503
A1401400110000000132841*******                                                  0501
B0701400260000000671038PARISH OF ST. ANTHONY OF PADUA DUGCAL                   11601
B0701400260000000671038MISSION STATION                                         21600
A0101407430000002298177MELODY M. GREGORIO                                       0501
A0101407430503036416001JUPITER'S BUTCHER SHOP                                   0510
B0101405940512038848001JADE ENTERTAINMENT AND GAMING                           11603
B0101405940512038848001TECHNOLOGIES,INC                                        21600
B0101405940512041188001PREMIUM WINE EXCHANGE INC.                               1601
B0101405940000000886717CAR AWARDS GROUP INC.                                    1602
A0101406880513016429002CHADA ENTERPRISES                                        0501
B0101408530000000035889R.L. SUSANO REALTY CORPORATION                           1602
A0101411400000000484617REPOSO, CLARITA GADDI                                    0502
A0101403610531220255002MARY JOY A. DADIVAS OR                                  10501
A0101403610531220255002HUGO A. DADIVAS                                         20500
A0101403610531220632001BLANDO, LETICIA SALEM OR                                10501
A0101403610531220632001BLANDO JR., LUIS                                        20500
B0101404000551272100001RUNNING CREEK REALTY INC                                 1601
A2201400250000002337982DURIMAN, ERLINDA BALINGIT                                0501
A2201400250561028327002******                                                   0502
A0101410690000001284497JEHAR ENTERPRISES                                        0502
B0101404130601047731001RICH MEDIA MANILA INCORPORATED                           1601
A0101404130601450077001RODOLFO S. IBUNA                                         0505
B0101404130601621189001PROPEL MANILA 360, INC.                                  1601
B0101404130601621189001PROPEL MANILA 360, INC.                                  1601
A0101404130601644287001CABARDO, CHUCK LUIGI PASCUA                              0502
A0101412180000000501540GO, ANA BLANCA YAP                                       0505
A0101406590000000131762CLAUDIO, ALICIA ARANSAZO                                 0501
A0101410300663790131001VALDEZ, JENNIFER ANN Z OR VALDE                         10503
A0101410300663790131001Z, PABLO BASILIO                                        20500
A1301400210682510414001VICENTE G CRUZ JR                                        0502
A1301400340683249082002RICARDO HERMOSO II OR                                   10501
A1301400340683249082002AGRIPINA HERMOSO                                        20500
A1301400340683404572001CRESPO, ANGELIZA DALUSONG OR                            10503
A1301400340683404572001CRESPO JR., CARLOS BANEZ                                20500
B1301400500000005963404PAGASA PHILIPPINES LENDING COMPANY INC.                  1605
B0101408240711028643001MPM CORPORATION                                          1601
B0101408240000000005563IIARMEA DEVELOPMENT CORPORATION                          1603
A0101408240711390039001CHRISTOPHER OR RAMON CARRION                             0502
A0101408240711429939004CARMELA CARAGUE                                          0501
A0101408240711561246001LARUAN, ORLANDO ALBERTO                                  0502
A4101400260812292364001AMELIA C. VIDALLON                                       0502
A4101400260812478374017VIOJAN, PRISCILA CABAMALAN                               0501
A4101400550815181680001MONTARDE, NELSON V. OR                                  10501
A4101400550815181680001MONTARDE, MILDRED                                       20500
A4101400550815693134001LLANES, TUDOR HERNANDEZ OR                              10501
A4101400550815693134001LLANES, PRESCILLA CARRIDO                               20500
A0101404840000005396949ESPORLAS, AURA AREVALO                                   0502
A0101404840851478374012SAPORNO, ANNABELLE G.                                    0501
A0101406750000000358310TRIAS, AGNES DE JESUS                                    0502
A0101406750000002950770LOPEZ, CARLO RAFOLS                                      0502
A0101406750852774013001MARK JEROME SAQUING OR MARY ANN                         10502
A0101406750852774013001SAQUING                                                 20500
A0101405070000001726278CHUA, ANGELICA DU                                        0501
B0101413860000000145344SUPREME COURT EMPLOYEES MULTI-PURPO                      1630
A0601400230000000990052DAYAO, MARIBEL MASIBAC                                   0502
A0601400230891627261001RAMOS, ANGELITA BAUTISTA                                 0502
