B0101407300395821100608**********                                               2003
A0101404260611478374089MARILOU MERCADO                                          0502
A3101400450000003072493ABANTE, NELDA LIMBO                                      0505
B0101400440000000337819LAZARO, RUPERTH & LAZARO, MARIA THERESA                  1603
B0301400660194469662088**********                                               1603
A0201400890376192121001TORRES, GIL FERDINAND ABELLO                             0502
B1201400150000005357893THERMMS CONSTRUCTION AND DEVELOPMENT                    11603
B1201400150000005357893CORPORATION                                             21600
A0101412340000005566550WHILMA P. PARAS DBU WPP TRAVEL                          10502
A0101412340000005566550CONSULTANCY                                             20500
A0101400860011422604001**********                                               0505
A0101400860011529455001**********                                               0503
A0101401250021417583001LUNA, MARY ANN SESE                                      0501
A0101400150000003164805JENNY ISABEL S. LABIANO                                  0501
B0101400150000000633094KINETIC PHILS. ELECTRICAL CONSTRUCTION                  11602
B0101400150000000633094INC                                                     21600
B0101400150000001708561MONTE SOLAR ENERGY INC.                                  1601
A0101400150061618672001WONG, JOHN MATHEW DAYAG                                  0502
B0601400100081013397001MUNOZ, JUICO ENT., INC.                                  1604
A0601400100081251805006MUNOZ, ANTONIO OR MA. JESUSA                             0504
B0101400730111019776001TRAVELFAST INTERNATIONAL                                 1601
A0101400730000001822602CARREDO, RAMON MANLUNAS                                  0505
A0101400730111298364001**********                                               0502
A0101400730000001822862ALVENDIA, AMADOR PAHATI                                  0502
A0101400730111561049001EMMANUEL G. CUEVAS                                       0501
A0101401960000001844500**********                                               0502
A0101413310000001073745BATAC, MARY GRACE G. DBU MOTHER                         10501
A0101413310000001073745BEAR TUTORIAL & LEARNING                                20500
A0101413310000006870871BERNARDO, CHRISTOPHER MANALO                             0501
A0101412920000001313739ADAZA, EVA VERA OR                                      10504
A0101412920000001313739ADAZA, ROQUITO S                                        20500
A0101400440000004889912MARIA VICTORIA F. ORACION                                0501
B0101401090171031777001PUSONG BUSILAK, INC.                                     1602
A0101401090171035426001BIG MARTHA ENTERPRISES                                   0506
A0101401090171195764001FORTUNATO B. SEVILLA III                                 0501
A0101401090171198394001MA. SOCORRO GUAN HING OR                                10503
A0101401090171198394001ALEX GUAN HING                                          20500
A0101401090171200699001MARCIA S. CRISTOBAL                                      0502
B0301400530193037617168PIONEER BUENAS COMMODITIES CORP.                         1620
A0301400530193738511001GAMENG, RUBEN ABAYA                                      0502
A0301400660000000194832ESTANO, BEWEL JOY LEYSON                                 0501
A0301400790000001244600YBANEZ, RITCHIE AGUIO                                    0501
A0101401380000001412606CAIRME, GINA BAGSIK                                      0501
A0101401380000005320854TAN, JHONNY ANG                                          0502
A0101401380201508360001SAN JOSE, ROSIE DATO                                     0502
A0101401380000001820002********                                                 0501
A0101412500000007130623**********                                               0501
A3101400160221221944001MARCIANA A. RUFFY                                        0501
A3101400450223028468001NEW ARMSTRONG SECURITY AGENCY                            0502
A1001400190231061482001MAGSAYO, ALLAN CASTRO DBU                               10501
A1001400190231061482001SCORPION SACKS MARKETING                                20500
A1001400350233543683001DONGGAY, CERAEL CAGA-ANAN                               10502
A1001400350233543683001OR DONGGAY, FELI                                        20500
A1001400480000001054795ERENO, MARINA GALLANA                                    0501
A1901400290000006560103DR. DAISY SANCHEZ-MOSTIERO                               0502
A1901400290000001926263LORAMEN M MAGSINO OR                                    10501
A1901400290000001926263MICHAEL D MAGSINO                                       20500
B1901400290000001363188RD PAWNSHOP, INCORPORATED                                1603
B1901400290261041112001G&G MANPOWER & PROFESSIONAL SERVICES                     1603
B1901400290261060897002PADC LIVESTOCK FARM CORPORATION                          1604
A1901400290261585775001LITA CUETO MENDOZA OR DORIS                             10502
A1901400290261585775001MARIE MENDOZA MEDINA                                    20500
B0101406460000000182501SPECIALFX PRODUCTIONS INC.                               1601
B0101406620000004595666ESBE INDUSTRIAL BUILDERS & CONTRACTORS                  11602
B0101406620000004595666CORPORATION                                             21600
B0101411110276046529088BOOK MEDIA PRESS INC.                                    1610
B0501400200000004456902CBE ESTRADA PAWNSHOP, INC.                               1602
A2601400270000000562010ARNEL VIC S. BATTAD                                      0501
A2601400270302510455001MARIBEL L. DELA CRUZ                                     0502
A1101400120000003197022BALENA, ROLIO JABOL                                      0501
A1101400120313537396001VILLEZA, ROMEO NIEVES                                    0503
A6601400120314041602001LEXTAN GENERAL MERCHANDISE                               0502
A66014001203140421880015G GALVEZ CONSTRUCTION                                  10503
A6601400120314042188001AND SUPPLY                                              20500
A6601400120314780845001RECARE, VILMA GORGONA                                    0501
A2001400290315641895001WENCESLAO, JUNE CLEO OR                                 10502
A2001400290315641895001WENCESLAO, ANTON                                        20500
B0101405650322024999001SUPERIOR MAINTENANCE SERVICES, INC.                      1630
B0101409050352009374001ESLA MANAGEMENT AND CONSULTING                          11604
B0101409050352009374001CORPORATION                                             21600
A0201400920375316580001LIM, PERRY TAN                                           0502
B0201400890376061445001CITILINE ELECTRIC & BUILDER'SUPPLY                       1602
A0201400890376513914001*********                                                0501
A0201401020000000055941OUANO, RAQUEL DELIGENCIA                                 0501
A0101402930381205241005DR ACHILLES OR FE DELILAH OR                            10503
A0101402930381205241005ACHILLES BARTOLO                                        20500
A0101408370382327513001DR. MICHELLE V. LUCIANO                                  0502
A0101408370382391637001DR. REGINA Y. SANTIAGO-AQUIAS                            0502
A0101408370382437913001DR. CATHERINE M. LAZARO OR                              10503
A0101408370382437913001ISMAEL L. LAZARO                                        20500
A0101408370382445729001DR. JASON D. ROSCA                                       0501
A0101408370382660357001DRS. THERESA MARIE R. CACAS OR                          10501
A0101408370382660357001JEANNE MARIE R. MARQUEZ                                 20500
B0101402770391030206001METRO-RIZAL CHRISTIAN CHURCH, INC                        1602
B0101405490392038676001CLASSIC CHARACTERS (C.C.I.) INC.                         1605
B0101405490000001935691WESTCROP LENDING CORPORATION                             1605
A0101405490392638455001FE V. BERSALONA                                          0501
A0101408400000005286524GARCIA, MUSTIOLA STA. ANA                                0501
A0101408400394424977001DE GUZMAN, LAURA OR DE GUZMAN                           10501
A0101408400394424977001JR., ROLANDO A                                          20500
B0101408950396026318001GLOBAL CITY AUTO SALES, INC.                             1604
A0101409180000003310287BAUTISTA, AIDA DIANA DELA CRUZ                           0501
A0301400820000004746101FAMACION, RAMSEY DBU JARED SUIT                         10502
A0301400820000004746101ES OR FAMACION, BEULAH                                  20500
A0301400820000001027832TORRES, REY P.                                           0501
A2401400180411038015001GENSAN ULTIMATE AUTO SUPPLY                             10510
A2401400180411038015001& HARDWARE, INC.                                        20500
A2401400180411478374044UGAT, ELVA T.                                            0502
B1201400150421821100608**********                                               2002
A0901400220432478374002EVELYN ALGA DEMECILLO                                    0501
A0901400220432754178001**********                                               0501
A0101403030441239184001DARWIN NG                                                0501
A0101412760000002067574CABREZA, EUGENE CUARESMA DBU                            10501
A0101412760000002067574REXELINE ENTERPRISES                                    20500
A0501400170000005002997LIMON, MARIA FE LOURDES MARAMBA                          0502
A0501400170481468771001CHU TAN, WINSTON LALATA                                  0503
A1901400160491660523001LEXTER LINA GUTIERREZ                                    0502
A1401400110000001549293HAO, LILIBETH MANLUGON OR HAO,                          10501
A1401400110000001549293KATHERINE GAYLE                                         20500
B1401400110492011585002LUCENA GREENVIEW, INC.                                   1602
B1401400110492031376001LUCENA WHEELER ENTERPRISE INC.                           1601
A1401400110000003988996CARCIDO, JEFFERSON CU                                    0501
A1601400170000000421229*********                                                0502
B0101407430503027621001PMEI LEASING CORPORATION                                 1602
A0101408530000002260162MARDO, ESTENILY MADERA                                   0501
A0101411400000000484468RODEJO, M DBU MYSTIQUE IDEA BEA                          0501
A0101412050000000890882********                                                 0502
B0101412050000001499909ASCENCION DEVELOPMENT CORPORATION                        1602
A0101403450000000889363ARES, MICHAEL ERNE                                       0501
A0101403450521240285002**********                                               0502
B0101403610531044399001AURORA QUINTO ESPINO TRUCKING                            1605
A0101403610531221338001REFORMA, MA. SHEREELLE A.    OR                         10504
A0101403610531221338001REFORMA, BENISON                                        20500
A0101407720602296141001ROMULO AUZA TROCINO OR MARIA                            10505
A0101407720602296141001CORAZON V. TROCINO                                      20500
A0101407720602341866003SONGCO, JAIME STO. DOMINGO                               0503
A0101404260611478374052ROSEMARY F. ROLDAN                                       0504
A0101407690652034151001D' ABET JUNK SHOP                                        0502
A0101407690652209580003LUIS, GRACIA EVANGELISTA                                 0501
A0101407690652298552012ANALIRIO GENERALI - DEALERS OF                          10502
A0101407690652298552012SHOECAT , INC.                                          20500
A0101407690652715002001EFREN A. BARROQUINA  OR                                 10501
A0101407690652715002001MARILYN S. BARROQUINA                                   20500
A0101406590000000568816LEDESMA, JOHN MICHAEL ORBE                               0501
A0101406590000005304892MENDOZA, JASON ANGELES                                   0502
A1301400210000003104985QUIZON, NELSON GALIT                                     0505
A1301400340000000926870CUERDO, AYA                                              0502
B1301400340683025550001HONDA MINERVA INC.                                       1601
A1301400340000000926869CUERDO, MARIA ANA SORNE                                  0502
A1301400500684777122001VALERA, LORETO HINLO                                     0502
A0101408240000000521913CABAUATAN, EMILY LASAM                                   0501
B0101408240711038557001THE BRIDGE SCHOOL, INC.                                  1605
A0101408240711336084001EVA M. LUMBAN                                            0504
A0101408240711544342001VILLANUEVA, EDGAR                                        0502
A0101408240711563145001SUGURAN, OLIVE JILL VELASCO                              0501
B2801400100712021648002BIG IRON TRADING AND DEVELOPMENT INC.                    1601
B4101400260000001198892PHOENIX READY MIX CONCRETE DEV. & C                      1610
A4101400260000001198734ANGUE, ANSELMO PAITON                                    0503
A4101400260812403511001BOSITA, CHRISTIAN DUA                                    0501
A4101400260812712319001MENDOZA, ROWENA GARCIA                                   0501
A4101400390000001732736CLAVERIA III, DON VIVENCIO G                             0501
A0101412340000003341671ROMMEL C. CARANDANG                                      0501
A0101404840000000475952GONZALES, ROWENA POLLICAR                                0502
A0101404840000000004020TORRES, MARY ROSE S.                                     0501
A0101404840851560728001VENTURA, JOEL DELA PENA                                  0501
A0601400230891546989001VALENCIA, MYRNA MANUEL                                   0506
