B0101405940512673704001METROLEASE (PHILS.) INC.                                 1601
A0101400440000000060255LOUELLIN L. LIM                                          0501
A0101400440000006679663AIDA S. RIVERA                                           0502
A0101410720653478374010SOCORRO JIMENEZ                                          0502
B0101400440000005393717RD PAWNSHOP, INCORPORATED                                1605
B0101400440000000337780KNIGHT COMMANDER ARMORED & SECURITY                     11605
B0101400440000000337780SERVICES INC                                            21600
B0101400440000000337773VIENNA PORCELANA PHILS. INC.                             1620
B0101400440000000337808COMMANDER AUTOMATION & ELECTRONIC                       11605
B0101400440000000337808SECURITY SYS INC                                        21600
A0101400440000002035001INTEGRITY DIAGNOSTIC CENTER                              0505
A0101400440161525001006EUFELYN J. DOYDORA                                       0501
B1901400290261007151002OBLATES OF SAINT JOSEPH (PHIL. PROV.),                  11601
B1901400290261007151002INC.                                                    21600
A1901400290261057642002CUENCA, NINA ANGELINA TANCHANCO                         10502
A1901400290261057642002DBU CUENCA JEWELRY                                      20500
A1901400290000007876859PHILLIP YOHANN TRADING                                   0502
A0101411240000000012040MLC                                                      0505
A0101406590000011312897BRIGILDO, ROXANE TANO                                    0501
A0101400860011374752002**********                                               0505
B0101400860011490631002**********                                               1602
A0101400860011568203001**********                                               0505
B0101401250021006617001SPEARHEAD MACHINE SHOP                                  11603
B0101401250021006617001CORPORATION                                             21600
B0101411370000009102761PRONTO METRO DISTRIBUTION SERVICES                       1602
A0101400150000001422042RICO PAMFILO, RENA MORELOS                               0501
A0101400150000003162865MICHAEL R. CABALLERO                                     0502
A0101400150000003164092LORY ANN T. DEL MONTE                                    0502
A0101400150000003165200Maria Cecilia C. Maglonso                                0501
A0101400150000003141500ROQUE, DANTE VILLAMOR                                    0503
B0101400150061041993001FILPROGRESS CREDIT CO., INC.                             1601
A0101400150061226470002RUFINO, ARMITA B.                                        0506
A0101400150061226737002SALVADOR B. ZAMORA II                                    0503
A0101400150061227864001DENNIS IGNACIO                                           0502
A0101400150061228725002NUNEZ, JOEL RUFINO                                       0501
B0101405810072235346001*********                                                1602
B0101405810072301363001**********                                               1602
A0601400100081251939002ELIZARDO OR WILMA MARTINEZ                               0502
A0601400100081395539004DELA CRUZ, TERESA SUGANOB                                0501
A0101414090000001652477SANTOS, MARCELO J OR SANTOS,                            10502
A0101414090000001652477MYRNA MANGILIT                                          20500
A0101400730111643930001AUMENTADO, DONALD REYES                                  0501
A0101401960121238705001**********                                               0503
A0101401960121504516001YAP, ANNIE BEE SY                                        0501
B0101412630132047758001MAJOR HOMES, INC.                                        1605
B0101412630000000024091FALCON, LUISITO MONTALVO                                 1601
A0101401830141206540001MEGA NURSERY ORCHIDS                                     0505
B5001400170000005705255HUANG, PATRICIA DY OR HUANG, WAN NING OR                11605
B5001400170000005705255PULVERA, MIA H.                                         21600
A0101407270000000818417LICUP, ROSEMARY MATANZA                                  0502
A0101401090171481442001STA. ANA, ALVIN MACARAIG                                 0501
A0101401090171490307001BENJAMIN A. BAUTISTA JR.                                 0501
B0301400530193040936168QUICK LUBE TIRE & SERVICE CENTER, INC                    1602
A0301400530000000065923POWER-UP TIRES, BATTERY AND                             10524
A0301400530000000065923AUTO SUPPLY                                             20500
A0301400660000005691723**********                                               0501
A0301400660000008940989BANDAYANON, HEMERITO SENDIN                              0501
B0301400660000006755195LOPZCOM BUILDERS CORPORATION                             1603
A0301400950000000566723FERNANDEZ, NESTY VON CHI                                 0502
A0101401380201577691001GATO, EDNA CABANGON                                      0502
A3101400160221533269001JOSE P. SANTIAGO JR.                                     0501
A3101400160221534752001MARISSA S. SANTIAGO                                      0501
A3101400740000001692457MALABANAN, MILANNIE G. OR                               10502
A3101400740000001692457MALABANAN, ROHNELL C.                                   20500
B3101400870225044849001OMNITECHNOLOGY INDUSTRIAL INC.                           1603
A1001400190231339933001MOORJANI, NOOR G                                         0502
A1001400190231358911001WILLKOM, RICHTER OR ERLINDA                             10501
A1001400190231358911001OR LILLIBELLE                                           20500
A1001400190231520766009MAGBUNAG, CONSORCIA TORRES                               0501
A1001400190231520766031CARANO-O, JANFIR JANE V                                  0501
A1001400190231520766128MAGLANGIT, JONIE QUIACAO                                 0501
A1001400190000008743886BARRON, LORNA ROA                                        0502
A1001400350000004095374YEE, AREEN DAGUPLO                                       0501
B1001400350233039883018CENMIN FOOD CHAIN CORPORATION -                         11605
B1001400350233039883018JOLLIBEE XAVIER                                         21600
A1001400350233478374020ELMA O. GAWAT                                            0501
A1001400350000003867261SIA, RAMIL UAYAN                                         0501
A1001400480000006270340DAING, DAISY SALVANA                                     0502
B0101406620273012462001COL FINANCIAL GROUP, INC.                                1615
B0101406620273037288001BALAYAN DISTILLERY INC.                                  1601
A0101400570281532404001ONG, EARLEEN SENO                                        0502
A0101411240000005136469SANTIAGO, MA. CORAZON DIZON DBU                         10502
A0101411240000005136469CORS ENTERPRISES                                        20500
A2601400270000007951166CABACUNGAN, JOSEPHINE BONITA S.                         10503
A2601400270000007951166OR CABACUNGAN, JUNE D.                                  20500
B0801400160311014079002C C C FINANCE CORPORATION                                1610
B0801400160311268076001MACAVINTA, MA. THERESA L.        JT                      1610
A0801400160311638278001DE ARROZ, ELMA SAMPIANO                                  0502
B2001400290315055459001SMSBI                                                    1602
A2001400290000000724890RAYMOND, PRISTINE MARTINEZ OR                           10501
A2001400290000000724890RAYMOND JR., JOH                                        20500
A2001400290000000924670UYPITCHING, CECILIA JUSTO                                0501
A2901400130000009071905MALIGALIG, MARIEL BELARMINO DBU                         10503
A2901400130000009071905MARISCO HARDWARE TRADING                                20500
A0101402350321025863001PROGRESSIVE MASON CLUB                                  10501
A0101402350321025863001(SOUTH MANILA CH                                        20500
A0101402350321382603001GONZALEZ, MARIE JACINTO                                  0502
B0101405650322016488003CALOOCAN BEARING AND PARTS CORP.                         1610
B0101405650000000772630PTP MOROLLING MARKETING                                  1601
B0201400760374046036001SAM SOWAH SHIPPING CORPORATION                           1602
B0201400760374046036003SAM SOWAH SHIPPING CORPORATION                           1602
B0201400760000000033310SAM SOWAH SHIPPING CORPORATION                           1602
A0201400890376192121001TORRES, GIL FERDINAND ABELLO                             0502
A0101402930000007031034SISON, REGGIE SOFIA SABADO                               0501
A0101411660000004845358BORJA, MELODY PACLE                                      0501
A0101415350000007877870PANA, CARLA SANGALANG                                    0501
A0101402770391013439001JIREH'S CAR PAINT SHOP                                   0502
A0101402770000001570725DBU CHRISTINE MANALO VILLAMORA                          10501
A0101402770000001570725INTERIOR DESIGNS                                        20500
A0101402770391472751004DE GUZMAN, JERVIE RACELIS                                0503
B0101405490392006541001GLOBALTECH AUTOMATION, INC.                              1605
B0101405490392019217001SHEMA RESOURCES, INC.                                    1605
A0101405490392558162001RONIE MARIE P. REYES                                     0501
A0101408950000011434501BIENVENIDO OR ESPERANZA CABRAL                          10502
A0101408950000011434501OR BRIAN MICHAEL CABRAL                                 20500
A0301400820000005196738JOLLIE D. ANDO JR.                                       0501
A0301400820000005196909GARCIA, ROSALINA                                         0501
A0301400820000005196910MERCEDITA SENTILLAS ESPANOLA                             0501
A2401400180000001676991CASABUENA, RICHARD JOHN JOHN                            10501
A2401400180000001676991FRANCISCO                                               20500
A1201400150000001863094SOMNGI, ESTEBAN ACROPEN                                  0502
B1201400150421020245001BAGUIO BUS LINE ASSOCIATION, INC.                        1601
A1201400150421257375001MARA ALOHA DIAZ OR VICENTE DIAZ                          0501
A5101400100000010371110AYCO, ENRIQUE DABIONA                                    0502
A0101403030441239184001DARWIN NG                                                0501
B0101403320471068821001TELEPRENEUR CORP.                                        1601
A0101406330472323631001JONATHAN G. TANDOG OR                                   10501
A0101406330472323631001MARIBEL S. TANDOG                                       20500
B1401400110492028896002CARLOS DRUGS-LUCENA, INC                                 1601
A1601400170000001069216LARRY M. RIVERO                                          0503
A0101403580511156578021LALAINE B. MANALO                                        0501
B0101405940512030146001CHINO ROCES ESTATES ASSOCIATION INC.                     1601
A0101411790000011564082ESTACIO, ANA LIZA DELADIA                                0501
A0101412050000000890882********                                                 0502
A0101412050000002314494********                                                 0502
B0101403450521011639001**********                                               1602
B0101403450521011735001BASIC PACKAGING CORP.                                    1602
B0101403450521011748001EUROTILES INDUSTRIAL CORP.                               1606
B0101403450521011882004PAN PACIFIC TRAVEL CORPORATION                           1603
A0101403450521238948001**********                                               0505
A0101403450521357127001**********                                               0501
A0101403610531219568002OLIVAREZ, RAUL IMZON                                     0501
A0101407720602382406001SAMANIEGO, RENE MENDOZA                                  0502
A0101407720602397494001GENARA M. LIMSON M.D. OR                                10501
A0101407720602397494001ANTONIO LIMSON                                          20500
B0101409920650047984001INNOTREND BUILDERS                                       1602
A0101409920000000998605ECHEVARRIA, DBU JOHN CARL ENTER                          0501
A0101411530000003238264SANTOS, JAYSON MANGILIT                                  0501
A0101413440000006680766ENCINAS, THERESE URBANO                                  0501
A0101413570656057648054RIANNE CASAS                                             0501
A0101413570000002976192*************                                            0503
A0101413990000006278124ENCINARES, ROVILYN RODRIGUEZ                             0502
A0101414120000009850837SABIO, JENNIFER CALAMIONG                                0501
A0101414120000000398892A.R.P. TRUCKING                                          0502
A1301400210682478374053RUBIROSA C CABUGWASON                                    0504
B1301400500684078255001TORRANO, RODEL V. OR                                    11602
B1301400500684078255001TORRANO, GLENDA                                         21600
A2801400230000005253532DAQUIZ, MYRA THILDE BATOON                               0501
A4101400390813725926001MANALO, AVEGAIL JULIAN                                   0501
A4101400420814422280001DELGADO, ELVIRA CARIENENA                                0502
A4101400550000000199371PAMATMAT, MERLINDA BANAS                                 0501
A4101400550000007583802LEE, CHOONG HO                                           0502
A0101406750000002040102GIMENEZ, ENRIQUE BENZON                                  0501
A0101406750852530398001REYES, LOLITA LARGADO                                    0501
A0101405070861008886002AD INT'L. SS & MS                                        0520
B0101405070861047281001AVISTELE CORPORATION                                     1601
A0101405070861087185001FORTUN, MARIA DOLORES REMULLA                            0501
A0101405070861090860001DELOSO, LOLITA REBECCA                                   0501
A0601400230000000990052DAYAO, MARIBEL MASIBAC                                   0501
