A0101400440161525001173ELIZABETH V. FAJARDO                                     0501
A0101413310000006735755RAMOS, JOEL VICENTE P. OR                               10502
A0101413310000006735755RAMOS, EDGARDO P.                                       20500
A0101400440000001439863MARY JONEN T. GUILLERMO                                  0501
A0101400440000009591860BANGAYAN, ALEXANDER SO                                   0501
B0101400440161007221001ILA EXPRESS HAULER                                       1602
A0101400440000002035023DOROTEO C. TICZON                                        0502
A0101400440161541478001ERWIN S. AGUSTIN                                         0504
A0101400440161591337001JENESSEY A. RANCES OR                                   10502
A0101400440161591337001JESSIE O. RANCES                                        20500
A3001400130230767566088YU, ODILIO UY                                            0501
A0101412890000001765539BONGALOS, MA. THERESA S. OR                             10501
A0101412890000001765539ADRIAN LINDON Q.                                        20500
A0101405940512338558002CECILIA B. CLAVECILLA                                    0501
A0101406590000005305093LLAMAS, TOMAS CORDERO                                    0501
A0101406590662455518001ESTRADA, RAFAEL G.                                      10505
A0101406590662455518001OR REUBEN ENRIQUE                                       20500
A0101400860000000031563***********                                              0501
A0101400860011035923001**********                                               0502
A0101400860011395625002**********                                               0502
A0101400860011504621001********                                                 0502
A0101400860011707584001**********                                               0502
A0101400150000000000022FORTU, ANNE LORRAINE FESALBONI                           0501
A0101400150061356527001ANG, ROBERT OR SY, DEWEY OR ANG                         10501
A0101400150061356527001BELLY                                                   20500
A0101400600071235483001**********                                               0501
A0101400600071373478001**********                                               0505
A0101400600000005942521******                                                   0502
B0601400100000000032782BARANGAY CUTCUT MULTIPURPOSE COOPER                      1601
A0601400100000010025013OSTONAL, HARLAN MAMISAO DBU IKA                          0505
A0601400100081251805001ANTONIO OR MA. JESUSA MUNOZ                              0501
A0601400100081639196001DIMALANTA, ANALYN TEGIO                                  0502
A0101410560000010318344SYLVIA P MARIANO OR                                     10510
A0101410560000010318344FEDELINA S PANGILINAN                                   20500
A0101400730111386485175IVANHOE O. MARASIGAN                                     0502
A0101412630000000045292***************                                          0501
A0101413310000004735735TOMENES, JOSEPHINE BUENO                                 0501
B0101401830000000059972CARITAS SALVE CREDIT COOPERATIVE (NOVA/                 11604
B0101401830000000059972ST.PETER) 010                                           21600
A0101407270162539457001MARIA LACSINA A. DIAZ OR                                10502
A0101407270162539457001JOHN PAOLO N. CA                                        20500
A0101401090171232456001DRS. ALBERT OR DAISY ISMAEL                              0503
A0101401090171331804002CAROLYN R. DAYRIT                                        0501
B0301400660000011140160ALIP RIVER DEVELOPMENT & EXPORT CORp.                    1610
A0301400660000010221982BIALA, FLORIANA GARAY                                    0502
A0301400950000008000717ANG, JAN KRISTOFFER TE                                   0502
A3101400450223483002001BUENAVENTURA, ANNA KARINA OR                            10501
A3101400450223483002001SOFIA OR ESEO, GUIA                                     20500
A3101400450223529066001MORENO, MICHELLE CALALO                                  0503
B3101400870225069385001PHILKOR DYNAMICS SOLUTION AND SOURCING                  11601
B3101400870225069385001INDUSTRY INC.                                           21600
A3001400130230687070138CERVANTES, SONIA BANAWA                                  0501
A1001400190000002266526MELITANTE, REY ADRIAN DBU REDLI                          0502
A1001400190231478374012FARINAS, EVA MAE CENTO                                   0501
A1001400350000000922014PEARSON, PILARCITA ROA                                   0502
A1001400350000007762390MERCURIO, MARY SHEILA CABALLERO                          0503
A1001400350233528399003KO, JOSE NELSON AND                                     10502
A1001400350233528399003KO, CHARMAINE                                           20500
A1001400350233529082001QUEJA, AILSA QUILALA                                     0502
A1001400480000008501940BALANA JR., RICHARD ZAMAYLA DBU                         10501
A1001400480000008501940RBJ ENTERPRISES                                         20500
B1301400760253044451001CONSUMERREACH, INC.                                      1610
B1301400760000000050751CONSUMERREACH, INC.                                      1605
B1301400760000000050791CONSUMERREACH, INC.                                      1605
B1301400760000000050853CONSUMERREACH, INC.                                      1610
B0101401670271672165001DATA LAND INC.                                           1605
A0101406620000009018673LA NOUVELLE IMAGE DERMATOLOGY                           10502
A0101406620000009018673& PLASTIC SURGERY CLINIC                                20500
A0101406620273216080001MARIA CONCESSA V. DAROY                                  0501
A0101408660000006296633PARAS, JEJOMA TAMODRA                                    0501
A0101400570281043930002REALTY & ENTREPRENEURSHIP                               10501
A0101400570281043930002ACADEMY OF THE P                                        20500
A0101411240000000629436LLONILLO, MARY GRACE OR LOPEZ,                          10502
A0101411240000000629436ELAINE OR TAN, M                                        20500
B6601400120314043609001FUNDACION GRAMEEN PILIPINAS INC.                         1605
A0101402060351361407002TAMONDONG, RUTH D. &/OR                                 10501
A0101402060351361407002VILLEGAS, DEONA                                         20500
A0201400760000002047161RKONSTRUCT CONSTRUCTION                                 10503
A0201400760000002047161SERVICES                                                20500
A0201400890376272044002LEE, JOSEPH KENNETH G. OR                               10503
A0201400890376272044002LEE, MARIA CARME                                        20500
B0201401020000000005012CEBU PREMIER SALES ENTERPRISES,                         11601
B0201401020000000005012INCORPORATED                                            21600
A0101402930010120000565VILLALOBOS, DBU MD PRINT WORLD                           0505
B0101402930381008939001KAINOS FOUNDATION, INC.                                  1601
A0101408370382457717001O.Q. MALANYAON, M.D.                                     0502
A0101408790000005251132DOLORITO, HERSHEY SAN DIEGO                              0501
A0101402770000001571222ORA-GROMGLIENG, CHONA NAVAL                              0501
A0101402770391608769001MARIA ELIZA IGNACIO CRISANTO                             0501
A0101402770391764626001TORRES JR., FIDEL S. OR                                 10503
A0101402770391764626001TORRES, MARIA CECELIA V.                                20500
A0101408400000006253210GREGORIO, HEIDI GLORIA MARIS WE                          0502
A0101408950000006424791BALTAZAR, CYRIL OCAMPO                                   0501
A0101408950000009451156MALANAO, RIGIL KENTAURUS R. OR                          10501
A0101408950000009451156MALANAO, MONICA                                         20500
A0101409180000004409778CASTILLO, DARIE ABAYON                                   0501
B0101409180000009085149ROSS SYSTEMS INTL INC.                                   1601
A0101409210000002802688JUNGAYA, MARIA REINA MARTIREZ                            0501
A0101409210000003297530ARTHUR POLICARPIO                                        0502
A0101409210000004736090VALLEJOS, KARLVIN CHESTER CASAM                          0502
A5501400120000002348290BASILIO, STEFEN ENDAYA                                   0502
A0501400170481536304001BANEZ, CORAZON M. OR                                    10502
A0501400170481536304001BANEZ, MARCO PAO                                        20500
A1901400160000007425870PULUSAN, LUISITA MALABUYOC                               0501
B1901400160491027966001SALESFORCE ONE MARKETING, INC.                           1605
B1901400160491027966003SALESFORCE ONE MARKETING, INC.                           1605
B1401400110492041160001SAN DIEGO BUILDERS                                       1602
B1401400110000005945480VIEWERSS MOBILE INC.                                     1601
A1401400110492222049001AMORSOLO S. NIEVA                                        0508
B0101407430503006790002PEOPLE'S AIR CARGO AND WAREHOUSE INC                     1605
A0101403580511642950001RUJOHN B. BARRIENTOS                                     0502
A0101405940512152920001***********                                              0501
A0101408530000005493132MENENDEZ, MA. PILAR URRA  OR                            10501
A0101408530000005493132MENENDEZ URRA, ANA MARIA                                20500
A0101408530000011820341LUCAS, RACHEL RAMOS                                      0501
B0101408530000001275252MANAHAN, ENAGE-ARANGUREN AND ORTEGA                     11602
B0101408530000001275252LAW OFFICES                                             21600
A0101408530516571877097JESUS R. LICUANAN                                        0501
A0101411790000000039267GO, NILDA FRANCHESCA VILLAMIL                            0503
A0101403610531219572001DR. JAIME A. BARRON                                      0501
B0101403610531706312001MEDCARE HEALTHLINE INC.                                  1601
A2201400250561030475001HAPPY WORKERS MULTI-PURPOSE                             10502
A2201400250561030475001COOPERATIVE                                             20500
A2201400250561484428001WILSON LAO SIO OR                                       10502
A2201400250561484428001EDUARD LAO SIO                                          20500
A0101407720000011819351LIWANAG, MIA PAMELA BENEDICTOS                           0501
A0101407720000004664773SALAZAR, DJONIVIC GARDIOLA                               0501
A0101407720602243680002PRING, AGUEDA S.                                         0501
B0101404260000004781266RD PAWNSHOP, INCORPORATED                                1605
B0101413570000000206540KASECO HOMEOWNERS ASSOCIATION INC.                       1601
A0101413990000011819215DIMAYA, KHRISTINE IRIS LAURETO                           0501
A0101406590000011637262SAYAGO, ERNIE MANALO                                     0501
A0101406590000000568758BAUCA, MYRA MEDRANO                                      0501
B0101406590000000905657BRAINCHILD SIX INC.                                      1602
A0101410300000006278471TRINIDAD, CATHERINE LADIA                                0502
B0101410300000005331691SPECIFIED CONTRACTORS AND DEVELOPME                      1602
A0101408240000011815320TORRENO, RACHELLE ENRIQUEZ                               0501
B0101408240000006414422YAVIN TECHNOLOGIES INC.                                  1601
A0101408240711199637001GIL JOSE E. PULUMBARIT JR.                               0501
A0101412340000003438691BACCAY, ERIC SALAGAN                                     0501
A0101404840000003410022CRUZ, BETHANY LAURON                                     0501
B0101406750000005608595METROWIDE HOMEBUILDERS, INC.                             1630
B0101406750000005608431METROWIDE HOMEBUILDERS, INC.                             1610
B0601400230000002649972GARBES AND GARBES TRADING CORPORATION                    1601
