A0101410300000002375744SUAREZ, ARLENE A. OR                                    10503
A0101410300000002375744SUAREZ, JONATHAN                                        20500
A0101412500000008821329DY, MILDRED YANG OR DY, DALE                            10501
A0101412500000008821329DERRICK YANG                                            20500
B0301400660000003368347SKY TEAM SERVICES, INC.                                  1601
A0101407720602397131002**********                                               0501
B0101413860000001767871JUMBO WORLDWIDE EXPRESS LOGISTICS I                      1605
A0101400600000001335626********                                                 0503
A0101400600000005942947********                                                 0501
A0101410850109046512001*****                                                    0501
A0101410560000005280462ROSE MARY S. RAPADAS                                     0501
A0101410560000008864315MANINGAS, ROLAND BUENA                                   0501
A0101413150000000038559******                                                   0501
B0101412630000002186570JEC REALTY CORPORATION                                   1603
A0101413310000008866253VILLASENOR, FLORIAN MANGCUCANG                           0501
B0101401830000000033581CARITAS SALVE CREDIT COOPERATIVE                        11603
B0101401830000000033581(BULACAN) 003                                           21600
A0101401830141206735001GLORIA C. FRIAS OR ELAYNE ONG                           10501
A0101401830141206735001OR ED RAYMUND C. FRIAS                                  20500
A0101401830141540968001MARY ANN R. ARCANO                                       0503
A0101401830141558701001JAMIAS, ARSENIA DELA CRUZ                                0501
A7201400170000003773222ARANDING, ARNEIL BALBIN                                  0502
A0101407270000000818417LICUP, ROSEMARY MATANZA                                  0502
A0101407270000003254311BOBBY G. JACINTO                                         0502
A0101401090171196095001ALBERTO WONCHAI OR                                      10502
A0101401090171196095001MILAGROS W. LIM                                         20500
A0101401090171225530001BEE-GIOK TAN-SALES OR                                   10502
A0101401090171225530001RENATO SALES                                            20500
A0101401090171280240004FLORES, MERRIAN RAMOS                                    0501
A0301400660000006862617BANGAYAN, EDWARD LAWRENCE UY                             0501
B0301400790000003969240D-JAS GENERAL MANPOWER SERVICES, INC.                    1601
B0301400950196821100608**********                                               2002
A0101401380000001412662KILAYCO, MA CLARITA RODRIGUEZ                            0501
A0101401380201620015001TAN, ROBERTO LEBOSADA                                    0501
A01014130200000030553367A7 ENTERPRISES                                          0503
A0101412500000000041567ALEGRE, JOYCE S. OR ALEGRE,                             10501
A0101412500000000041567JAMES CEDRIC Y.                                         20500
A0101413600000003851267ERWIN T. CAPISAN                                         0502
A0101413600000008636506DIRK MARTENS                                             0501
A3101400160000000429156SOSMENA, JONATHAN A OR                                  10501
A3101400160000000429156SOSMENA, AILEEN                                         20500
B3101400160221024274002STA. CECILIA BUSINESS CENTER                             1601
A3101400160000006497814LU, MARITES A. OR LU, JUSTIN A                           0505
B3101400450223037708001RD CASH PADALA, INC.                                     1603
A3101400450223056521002SAMIANO DENTAL CORP DBU THE                             10501
A3101400450223056521002NAME AND STYLE OF SMILE                                 20500
A3101400450223545635002ALINA, EMERISSA OR                                      10502
A3101400450223545635002GATDULA, ENRICO                                         20500
B3001400130000000067263INTERPACE- GAISANO BUTUAN CINEMA                         1605
B1001400190000002170849SY, STEPHEN                                              1610
A1001400190231036837001RTD MARKETING                                            0505
A1001400190231520766110MAYOR, CARMELITA ANGCAY                                  0501
A1001400190000001057523MEDA B. REYES                                            0501
A1001400190000002170758JUGAN, JUDITH MALOLOT                                    0501
A1001400190000002170769JUGAN, NOUE MALOLOT                                      0501
A1301400760000005989691ANGELO REYZER C. TULOD OR                               10501
A1301400760000005989691SHYLYN S. TULOD                                         20500
B0101401670271007087001BELSON SECURITIES, INC.                                  1610
B0101406620273036155001CENTRA EVOLUTION MANAGEMENT, INC.                        1601
B0101406620273038508001AMTI COMPUTERS SUBIC INC.                                1605
A0101412470000002086375NAKPIL, JOSE ANDRES OR                                  10501
A0101412470000002086375DE CASTRO, MARIA GUIA                                   20500
B0101400570281046883001SURE CURE PHARMA INC.                                    1602
A0101400570281188687001LORGENE A. MATA OR                                      10503
A0101400570281188687001CLARISSA MATA                                           20500
A0101400570281333519001EDITHA M. SIMEON                                         0505
A1101400120000000652788PRIMER, HERMINIA AZUCENA                                 0501
A1101400120000006186570JACER, MARICHU FUENTES                                   0501
A6601400120000002978085QUIDILLA, RICARDO MACROHON DBU                          10505
A6601400120000002978085SAMBO BAKESHOP                                          20500
A6601400120000003642846FLORESCA, MANOLITO ESTERNON DBU                         10505
A6601400120000003642846RMF SARI SARI ST                                        20500
A6601400120314415183002UY, CHRISTIAN EMMANUEL WAN                               0501
A2001400290315688009001ALGOPERA, LLOYD GARCIA                                   0501
A3401400280318478374001MARILYN B. BISMANOS                                      0502
B0101402510341025648001EXPRESSIONS STATIONERY SHOP, INC.                        1601
A0101402510341331222002ERLINDA C. RECOCO                                        0501
B0101409050000000258462THE NEW REEDLEY INTERNATIONAL SCHOOL                     1601
A0201400760000000222999SEMILLA, FRANKLET MORADOS                                0502
B0201400760374682272002OUANO, RUPERTO VILLAFLOR OR                             11602
B0201400760374682272002JAYME, STEPHEN R                                        21600
A0201400760374720031001******                                                   0505
B0201400920375034855001SHELLS TREASURES INTERNATIONAL CORP                      1605
A0201400890376763623001**********                                               0503
B0101402930381024568001MCKS FOOD FOR THE HUNGRY                                11605
B0101402930381024568001FOUNDATION, INC                                         21600
B0101402930381039036001CULINARY EVENTS, INC.                                    1603
A0101402930381064211001MAYO, J DBU S.E.A. MANAGEMENT                           10501
A0101402930381064211001SERVICES                                                20500
A0101408790000005169115JUAN R. SUMPAYCO MOVERS                                  0503
A0101411660000002309560RIVERA, VENUS TUMPALAN                                   0501
A0101411660000004597220BONDOC, NARCISA NAVARRO                                  0502
A0101405490392298552043BETTY R. ARENA                                           0502
B0101408400000006813590EMPIRE LUXURY LIFESTYLE CORP.                            1605
B0101407300395821200608**********                                               2001
A0101408950396559428001HERNANDEZ, MARIANNE PEREZ OR                            10506
A0101408950396559428001PEREZ, MA. MARGARITA                                    20500
B0101409180397062516001PHYSIXARE ADTEK SOLUTIONS, INC                           1602
A2401400180411625087001QUILLOPO, ANABELLE BREZO                                 0501
B1201400150421032018001DAP-AYAN TI JOHN HAY EMPLOYEES CREDIT                   11603
B1201400150421032018001COOP.                                                   21600
A1201400150421329809001LAVARIAS, BENEDICT POLIG                                 0501
A0101403030441349976001**********                                               0502
B0101412890000003727899RUSTY LOPEZ ENTERPRISES INC.                             1601
B0501400170481025398002****                                                     1602
A0501400170000000494702TOMELDEN, FELICE RITCHIE RAE                            10510
A0501400170000000494702DBU NOVAJEST MARKETING                                  20500
A0501400170481254282001DR RODRIGO SEGUI OR                                     10501
A0501400170481254282001DR CARLA SEGUI                                          20500
B0501400330482821100608**********                                               2002
B0501400330482821200608**********                                               2002
A3801400170000001698097ILAO SR., ANTONIO REYES  OR                             10501
A3801400170000001698097ILAO, MARRIETA ASI                                      20500
A3801400170000005288144ATIENZA, CARMELITA PAGTAKHAN                             0501
A1901400160491247764001MARITES E RAMIREZ                                        0501
A1601400170000001837863RENE N. ESPLANA OR                                      10502
A1601400170000001837863GLORYDEL B. ALAP                                        20500
A0701400260000003259432ZAMORA, JULIUS SOPENA                                    0503
B0701400260000000671061PENALOZA, JONATHAN HIPOLITO DBU NAGA                    11602
B0701400260000000671061UNITED BEARING S                                        21600
A0101407430503378525001EMMA C. MANALO                                           0501
A0101408110000004869270TIANSAY, MA. CARMEN SERRANILLA                           0501
A0101411790000008789837MEJIA, ISAH MAY SANCHEZ                                  0501
A0101411790000008789939VALLESTERO, DONNA CURA                                   0501
A0101411790000008789951VICEDO, AMABLE GENERAO                                   0501
B0101411790000003252542****************                                         1602
A0101404000551662398001GAVILAN, JABEZ JOHN VINSON                               0501
B0101404130601022494001CARE BEST INTERNATIONAL, INC.                            1604
B0101404130601037502001JS PHILIPPINES GLOBAL CORPORATION                        1602
B0101404130000000001241PREMIER CREATIVE PACKAGING, INC.                         1604
B0101407720602020269001VOYAGER TRAVEL & TOURS, INC.                             1610
A0101407720602162070001DR. CLEMENTE GATMAITAN OR                               10503
A0101407720602162070001CARLOS P. GATMAITAN JT                                  20500
A0101407720602163514002LAGOS, MARIA THERESA MARTA B.                            0501
A0101407720602200210001EDITHA C. DIZON                                          0501
A0101407720602397425001HENSON, MARIA THERESA GUEVARA                            0505
A0101412180000008530778TAN, DAVE BENEDICTO                                     10501
A0101412180000008530778OR TAN, FRANKLYN                                        20500
B0101404260611027402002ENTRUSTED CORP                                           1605
A0101404260611478374078SUPERAL, CORAZON                                         0502
A0101409890649723947002TONGOS, ROMARICO MACARANAS OR                           10501
A0101409890649723947002TONGOS, RALPH JU                                        20500
A0101413570000007373820GONZALO, LAARNI CASTILLO OR                             10502
A0101413570000007373820GONZALO, MANUEL CASIPE                                  20500
A0101414120000002879885FCB TECHNOLOGIES                                         0502
A0101414120000005252864MVG HARDWARE                                             0502
A0101410300663064228001FOREFRONT ADVERTISING & MARKETI                          0501
A0101410300000002375891PAZCOGUIN, HERNANI ALDABA                                0503
A1301400340000000926870CUERDO, AYA                                              0503
A1301400340000000100330LAPENA, RAYMOND RANDALL CERTEZA                          0501
A1301400500000000213210RBN ENGINEERING & DEVELOPMENT                            0502
A0101408240711375763001TUGADE-HLATKY, PILAR                                     0501
B2801400100712014887001PRUDENTIAL GUARANTEE AND                                11603
B2801400100712014887001ASSURANCE INC.                                          21600
A2801400100712278476001UYGONGCO JR., JOSE ROBERTO JT                            0502
A2801400100712393694004CABRERA, ISAGANI CEZAR JT                                0501
B2801400230000000372770DBA GLOBAL SHARED SERVICES INC.                          1603
A4101400260000006043210BONGOLAN, NORMITA SALINAS                                0501
B4101400260812021911001VIANKA REALTY CORPORATION                                1610
B4101400260812599931001EMILIANO BOSITA AND MA. TERESITA URCIA                   1610
A4101400420814520766061ESTILLERO, SUSANA O.                                     0502
A4101400550000000315182MARGAJA, FELICITA BITOR                                  0502
A4101400550815693134001LLANES, TUDOR HERNANDEZ OR                              10501
A4101400550815693134001LLANES, PRESCILL                                        20500
A0101412340000004702629VANNESSA B. PAGAOA                                       0501
A0101412340000002900290MARINA F. ASUGAS                                         0501
A0101404840000005396938DIMAUNAHAN, MAY TENORIO                                  0501
A0101404840851424429002MAQUINANA, JOEL MACABUHAY                                0502
B0101413860000000145275CON-PAC WAREHOUSING INCORPORATED                         1605
