B0301400530193821100608**********                                               2010
B0101409500473821100608**********                                               2005
A3101400870000002007738RECTO, MARY ANN PACAIGUE                                 0501
A0101401380201792598001GAGALANG, MARIO JUNTEREAL                                0502
A0101400150000004915180RIVERA JR., RODRIGO PABELLO                              0502
A0101400440000003671670RUTH L. GOZON                                            0502
B1001400190231020380001BOUNTY AGRO VENTURES, INC.                               1610
B1001400350000000244404GOLDEN MACHINE WORKS CORPORATION                         1602
A1001400350233478374006IBANEZ, ELSA                                             0501
A0101405650322294619002VESES, LILIA HERNANDEZ OR                               10502
A0101405650322294619002VESES, ANTONIO M                                        20500
A0101409920000000523573MEMBERS OF NATASHA (SHOECAT INC                         10501
A0101409920000000523573JOANNE L. MABULA                                        20500
A4101400420814520766061ESTILLERO, SUSANA O.                                     0501
A4101400420814520766085ANNALIZA P. PRADO                                        0502
A4101400420000000120696CARMELA G. ROMA                                          0501
B0101400860000001005423***********                                              1602
A0101400860011420919001**********                                               0505
A0101400860011634071001**********                                               0505
B0101400150061037837001TIBOD DEVELOPMENT CORPORATION                            1601
A0101400150061226678001PAMELA A. CASIN                                          0501
A0101400150061231736002PUNO, CARMELITA DE MESA OR                              10501
A0101400150061231736002SANTIAGO, MA. SO                                        20500
A0101400150061315349079NOEMI V. UNIDAD                                          0501
A0101400150061316369004ROWENA M. PENALES                                        0501
A0101405810072235427001**********                                               0501
A0101405810000000016559CHUA, HEMAN LAO                                          0501
A0601400100081251773001KIT, AUREA OR CALADIAO,                                 10510
A0601400100081251773001JOSSANAH NINA                                           20500
A0601400100081251815001DIZON, CLEOPATRA S.                                      0501
A0601400100081639196001DIMALANTA, ANALYN TEGIO                                  0501
A0101413730000000144716*********************                                    0501
A0101400730111478374028LIBRADA MAGNO                                            0502
A0101400730111478374179MARIA LUISA S. TRUJILLO                                  0502
B0101412630000002186392EASTGATE MARITIME CORPORATION                            1605
A0101401830141546547001REATAZA, NELIA MORABE                                    0503
A5001400170000000213750RATUNIL, JULIETA OR RATUNIL,                            10501
A5001400170000000213750BYRON, OR RATUNIL, CARMEL                               20500
A5001400170000002288242AJOC, RODOLFO PAPELLERAS OR                             10504
A5001400170000002288242AJOC, MARY JUNE BERMUDO                                 20500
A0101400440161186940001MARILOU I. DIVINA                                        0506
A0101400440161193622001ROSALINA T DINO OR ROMMEL DINO                           0502
A0101400440000000821276MANAOIS, VICTORIA PENALBER                               0501
A0101400440161539330003MARINEL B. SUBA                                          0501
A0101401090171196059001VENANCIO BESAVILLA JR. OR                               10503
A0101401090171196059001MIMOSA BESAVILLA                                        20500
A0101401090171314587003AURORA S. CRUZ                                           0504
A0301400530000000066044**********                                               0502
B0301400530000000066088********                                                 1605
A0301400530000003088082SAMAR, REMEGIO ESPANO                                    0501
B0301400530193038633008JHG TRADING, INC. - A                                    1610
B0301400530193038633088JHG TRADING, INC. - B                                    1610
B0301400530193043054001TAGUM CITY COUNCIL OF WOMEN, INC.                        1605
A0301400530193583614088VILLANUEVA, MELISSA MAY OR                              10502
A0301400530193583614088VILLANUEVA, PHIL                                        20500
A0301400790000002301393BARCELONA, JANET TIZON                                   0501
A0101401380000001819996********                                                 0502
A0101401380201653570001BASILIO, ELENA R. OR BASILIO,                           10502
A0101401380201653570001MARCELINA R.                                            20500
B0101412500214056030001CBL FOODLINE TRAINING & CONSULTANCY                     11601
B0101412500214056030001SERVICES                                                21600
A3101400160000001559300PRIUSS DIAGNOSTICS AND MEDICAL                          10503
A3101400160000001559300SUPPLY                                                  20500
A3101400450223352819001FARAON, RIZALINA OR                                     10502
A3101400450223352819001BELEN, RHODORA                                          20500
A3101400740224059395001MALIHAN OR MANGILIN DBU JK AND                          10501
A3101400740224059395001EL FOOD AND BEVERAGE                                    20500
B1001400190000002170849SY, STEPHEN                                              1605
A1001400190231520766036ONIPA, JANE ROSE P                                       0502
A1001400190231520766092TACBOBO, BEATRIZ WABE                                    0501
A1001400480000000133279**********                                               0502
A1001400480000003357500SALVACION JR., DIONISIO CAINGLE                          0501
B0101401670271191081001EAGLECOR, INC.                                           1605
A0101401670271352051006SUNTAY, MILAGROS GUEVARA OR                             10501
A0101401670271352051006SUNTAY, APOLONIO                                        20500
A0101411110276087065088**************                                           0505
B0101400570281059415001EPISCOPAL CATHEDRAL OF ST. MARY &                       11601
B0101400570281059415001ST. JOHN, INC.                                          21600
A0101400570281186867001DR. DIANA JEAN ROXAS                                     0501
A0101400570281187547001LILIAN CRUZ ELLO                                         0501
A0101400570281388539056ROMEO RYDYL M. OBSUM JR.                                 0502
A0101400570281405220002AGNES FELIZA L. EDILLON                                  0501
A0501400200000004456957COBARDO, LEVI DAGSAAN                                    0501
B0801400160311013984002HOPE LENDING CORPORATION                                 1610
B0801400160311032170001VISAYAS GOODWILL CREDIT (ILOILO)                        11610
B0801400160311032170001CORPORATION                                             21600
A0801400160311399110001DRA. ELLEN ABELITA OR                                   10510
A0801400160311399110001DANILO ABELITA                                          20500
B6601400120314043609001FUNDACION GRAMEEN PILIPINAS INC.                         1605
A0101405650000000525751ZAFRA, APRIL ROSE PENALBA                                0501
A01014056503220410060013805 PHARMACY                                            0501
A0101405650322174596002VIRAY, MELINDA A.                                        0505
A0101405650322634117002B.ESPIRITU OR E.ESPIRITU OR A.                          10501
A0101405650322634117002OCAMPO OR C.DE CASTRO                                   20500
B0101402510341006711001SANCHEZ, ANDREW OR SANCHEZ, AIDA C.                      1602
A0101402060351496056001LANDRITO, JUANITO CARLOS                                 0502
A0201400760000005156394DINGCONG, HOSEA RYAN ROSELLO                             0501
A0201400760000000222922PELUCHI ESSENTIALS SPA                                   0501
B0201400890376058962001RACCON BUILDERS                                          1605
A0101408370382206275002DR. ELIZABETH P. PACHECO OR                             10502
A0101408370382206275002DR. BENITO M. PACHECO                                   20500
A0101408370382434379001DR. LOURDES JOSEPHINE                                   10501
A0101408370382434379001ANGLIONGTO-RAMOS                                        20500
A0101408370382570492001DR. GLENICE KANE C. NOCOM OR                            10505
A0101408370382570492001ELIZABETH C. NOCOM                                      20500
A0101411660000001145799ANIANO D ALCANTARA                                       0504
A0101411660000002309371RAJAN BHAGWANDAS GIDWANI                                 0505
A0101402770000000360785BETANIA, PONCIANO DBU                                   10501
A0101402770000000360785LBAJ ENTERPRISES                                        20500
A0101405490000000444342CYNTHIA M. GARCIA OR                                    10501
A0101405490000000444342CECILIO L. GARCIA                                       20500
A0101405490392573069001ILYANA VITA E. LIM OR                                   10501
A0101405490392573069001RONALD JAMES U. LIM                                     20500
A0101408400394478374086MILA TOLENTINO                                           0502
A0101408950000003978861PLACIDO, NARCISA CABALLERO                               0502
A0101408950396761506001DONALD C. CRISTOBAL OR MA.                              10501
A0101408950396761506001FLORDELIZA A. CRISTOBAL                                 20500
A0101409180000004892571JENNIFER DELA CRUZ                                       0501
A0101409180000004375177DOMINOE BANEZ                                            0501
A0101412210000005302812QUEVENCO, MIRIAM CECILIA                                10502
A0101412210000005302812MAGBANUA                                                20500
A0101412210399516046001RODRIGUEZ, BEATRICE R OR                                10501
A0101412210399516046001LIM, FRANCIS RYAN B                                     20500
A2401400180411496346001OCIEL, MARIA MAGDALINA S. OR                            10505
A2401400180411496346001OCIEL, RANDY L.                                         20500
A2401400180411572205001EBRAHIM, MA. AMOR ISHAD                                  0501
A1201400150421256218001PARAMJIT DHUTY OR AJMER SINGH                            0502
A0101403030441240814002**********                                               0504
A0101403320000000037727BERTULDO, AURIE DIA D.                                  10506
A0101403320000000037727DBU DIAMAS ENTERPRISES                                  20500
A0501400170481400649001REYNA, CICEL MANAOIS                                     0502
B0501400170481528391001KONSEPTO DAGUPENO INCORPORATED                           1603
A1401400110000001549340CAPIRAL, ROSALIE BELESARIO                               0501
B1401400110492022856001PARADISE MEMORIAL PARK, INC.                             1603
A1401400110000001806833EMETERIO C MINDANAO                                      0502
A1601400170000000421161GEORGIA SOFIA GIMENEZ-LUISTRO                           10505
A1601400170000000421161OR LUISITO B. LUISTRO                                   20500
B0101407430503385656004**********                                               1602
B0101403580000000214673MEC - SHANATA                                            1610
B0101403580000000214695MEC - SONRIA                                             1610
B0101403580511017560001MSC EMPLOYEES CREDIT COOPERATIVE                         1605
B0101403580511038552001J DEL INVESTMENTS AND MANAGEMENT CORP.                   1610
A0101403580511045499001BUGANA FARM                                              0501
A0101403580511152455002CORINNA Y. CASTANEDA                                     0510
A0101403580511327851001MARIETA G. DEL ROSARIO                                   0501
A0101403580511420184003MARIA CAROLINA S. MACASAET                               0515
A0101408110515041358001MADE IN HEAVEN ENTERPRISE                                0501
A0101408530000000594485ANONAS G. SOLAS                                          0502
A0101411790000000576056DOMINGUEZ, YOLANDA GOLINGAY                              0501
A0101412050000001499790JAVIER, RAUL SORIANO                                     0501
A0101403610531478374002GRAPE, IMELDA HANDOG                                     0501
A2201400250000002337862ALPHA PINGOL DIMARUCOT                                   0502
A2201400250000003316492******                                                   0502
A2201400250561076745001GUADALUPE N. SABADO OR                                  10510
A2201400250561076745001ROSSINI B. GALICIA                                      20500
A0101407720000000510541SUMALBAG, DIANA PERALTA                                  0501
A0101407720602283353001ERWIN HERNANDEZ OR                                      10501
A0101407720602283353001AGNES HERNANDEZ                                         20500
A0101407720602367391001STO. DOMINGO JR., MANUEL RAMON                          10502
A0101407720602367391001FRANCISCO                                               20500
A0101407720602403595001CARMENCHU MARIE ECHIVERRI OR                            10502
A0101407720602403595001JAY VILLAVICENCIO                                       20500
A0101407720602417297001SUNTAY, MARCUS LESTER RODRIGUEZ                          0501
A0101407720602566655002CARLOS-VILLAPANDO, EMPRESS                              10501
A0101407720602566655002ELIZA C.                                                20500
A0101404260000001725151********                                                 0502
B0101404260000000550412GOLDLAND HOTEL CONCEPTS INC.                             1605
A0101413570000001720212NIMFA C. ESPULGAR                                        0501
A0101413990000002422873BUENVIAJE, MICHELLE PILAR C. OR                         10501
A0101413990000002422873BUENVIAJE, JOHN                                         20500
B0101406590000003007336OUTBOUND EDUCATION AND INTERNSHIP I                      1601
A0101410300000000026531VELHAGEN, MELISA B.                                      0501
A1301400210000000915884CABRAL, RANDALL REYES                                    0501
B1301400500684029282001L5 & SONS FINANCING CORP.                                1610
A1701400230693662898002DUQUEZ, REYNALDO AQUINO                                  0501
A0101408240711429939004CARMELA CARAGUE                                          0501
A0101408240711717256001LAWS, KATRINA OR LAWS, JOSEPH                           10505
A0101408240711717256001OR LAWS, TIMOTHY                                        20500
B4101400420814045898001ANNIE CANDY MANUFACTURING                                1602
A4101400420814520766027ARUTA, CORAZON G.                                        0501
A4101400420814520766034LEONIDA M. OBELIDOR                                      0501
A4101400420814520766108ESPANOLA, MERELY C.                                      0502
A0101412340000002266884MARGELETTE B. BAUTISTA                                   0503
A0101404840851329120001XXXXXXXXXXXXXX                                           0502
A0101404840851413054001EDO, NENE GURO                                           0501
A0101404840851478374071MARITESS C. CASARILLA                                    0501
A0101404840851520766002CYNTHIA S. GERODIAS                                      0502
A0101404840851520766067JOSEPHINE V. GABAYERON                                   0501
A0101406750852182475001ANALIZA B. HIZOLE                                        0501
A0101406750000000173022DE GUZMAN, VERONICA RAFAEL                               0501
A0601400230000000186867SAPNU, D DBU D.L.S.J GLASS ALUM                          0501
