B0301400950196821100608**********                                               2004
B0101402930000003734861POLICARPIO & ACORDA LAW OFFICE                           1601
A0101409210000009966723CONCHA, CHERI MAE GUANZON                                0501
B0101403320471235950001LUCIA DE LOS ANGELES DI RAMOS                            1601
A0101403610000010315798CARANDANG, CRESILDA ACLAO                                0501
B0101400150000000633469RNB TRAVEL AND TOURS CORPORATION                         1603
A0101400150000004090646LEGAL ASSET SEARCH FUND                                  0501
A0101400150061227452002KIAMZON, ENYA TOLEDO                                     0501
A0101400150061297582002RUBIO, GREGORIO VILLARIVERA                             10502
A0101400150061297582002OR RUBIO, DALISAY NAJERA                                20500
A0101400150061338964158MARY JANE NEBREJA                                        0501
A0101400150061398095001PEREZ, ZENAIDA HERNANDEZ                                 0501
B0601400100081037698001REPROCRAFTERS, INC.                                      1605
B0601400100081037699001NEOART CORP.                                             1605
A0601400100081253293001RIVERA, HERRIE RAYMOND H. OR                            10501
A0601400100081253293001RIVERA, IRENE D.                                        20500
A0101413730000002289610*******                                                  0501
A0101410560000000020151JERLYN B. SAMSON                                         0501
B0101400730111015420002FELANER REALTY DEVELOPMENT CORPORATION                   1606
A0101400730111334903015ATIENZA JR., ROLANDO                                     0501
A0101401960121754920001PAZ, FLOSERFIDA GUANLAO                                  0501
A0101413150000005944330******                                                   0501
A0101401830141740190001LEBRON, LUIS FRANCISCO VILLACOR                          0501
B7201400170000006487785LADLAD, EMSA BANA                                        1601
A7201400170000009673083YBANEZ, RICK ANGELO LAGERA                               0502
A0101412920000002358990ANDEN, MAY EVANGELINE REGASPI                            0501
A0101407270000007525313***************                                          0501
B0101407270162008343001SPECIALIZED TRADE & MARKETING, INC                       1601
B0101407270162037305001MICROGOLD INFORMATION SOLUTION AND                      11610
B0101407270162037305001PRODUCTS, INC.                                          21600
A0101407270162587936002WILFRIDO G. TIRONA                                       0501
A0101407270162690201001******                                                   0501
A0101401090171199436001DARYL OR HELEN OR CARMELO                               10501
A0101401090171199436001DICHOSO                                                 20500
A0101401090171330568001FELICIDAD G. PERENA                                      0501
A0301400790000006269787ONG, RUSSELL RITCHIE BAUTISTA                            0501
A0301400950000002115140**********                                               0503
A0101410720000000234853ESGUERRA, MARLENE ASUNCION                               0501
A0101413600000011921532MARIO GIOVANNI LAPITAN                                   0501
B3101400160221033466001BLOOM WITH LOOMS LOGISTICS, INC.                         1601
A3101400160221508212001MARICEL A MAHIYA  OR                                    10501
A3101400160221508212001RICHARD MAHIYA                                          20500
B3101400450223016839003LANDCO PACIFIC CORPORATION                               1601
A3101400740000011893880PEREZ, JOEL ORTIZ                                        0501
A3001400130000001271669OLACO, BELINDA LACORTE                                   0501
A3001400130000009103651BANJAO, ANACORITA G                                      0501
A3001400130230698427001GILOS JR., DEMETRIO FALERION                             0501
A1001400190231520766015CALUMBA, VICTOR ARQUITA                                  0501
A1001400190231520766110MAYOR, CARMELITA ANGCAY                                  0501
A1001400350233527628001GO, TRINIDAD ONG OR GO, GONZALO                          0502
A1001400480000006270340DAING, DAISY SALVANA                                     0502
A1301400470000005394469MARYJON DELA CRUZ PASCUA                                 0502
B1301400470000003270157L5 & SONS FINANCING CORP.                                1610
A1901400290000001737715DONNA BELLE STONEY M MATIBAG                             0501
A1901400290000003252844PEDRO ELLAZAR RAMOS JR                                  10501
A1901400290000003252844OR LEAH GRACE LINAS RAMOS                               20500
A0101401670271380710001FRANCISCO JR., ANTONIO ZARRIS                            0504
B0101406620273032436001NORSOPHIL METAL RESOURCES, INC.                          1603
B0101406620000004595677GAWIN, INC.                                              1610
A0101406620273510288001VALDEZ, ROBERT PADILLA                                   0501
A0101408660000005263883CHUA, RUEBY GINIE DELA CRUZ                              0501
A0101411110000004342870*******                                                  0501
A0101400570281186576001DR. ROSEMARIE JEAN J. POBLETE                            0502
A0101400570281361144001ERIC G. IDIESCA                                          0501
A0101400570281507815001LAXAMANA, LINA CORTEZ                                    0505
A0801400160000002676782GAW, CHENONG LIMSUI DBU ONE                             10501
A0801400160000002676782PLUS ONE                                                20500
A0801400160311055600001DORILLO, FLORENCIA LOMILLO DBU                          10505
A0801400160311055600001GAYFLOR EDUCATIONAL DEV.                                20500
A2001400290000010684336CHUA, JEOREX POBLACION OR CHUA,                         10501
A2001400290000010684336MELANIE ROSE GAR                                        20500
A0101402350000011252690DINAGAY JR., JOVINO ALBA                                 0502
A0101405650000008159068DIARESCO, MICO LAO                                       0501
A0101405650000000448271ACOSTA, GLORIA RAMOS                                     0501
A0101405650000003491401RESPETO, LILIBETH GALAURA                                0502
A0101405650322670247001LUIS, MARIA DYESEBEL BLANCAS                             0503
A0101402510000010100753**********                                               0501
A0101402510341063757001LKTC GENERAL MERCHANDISING                               0502
A0201400760374559596001MISSION, SONNY QUINING                                   0502
B0201400920375042734001A. LIM DEVELOPMENT INC.                                  1602
A0201400920375045050001BIG START REVIEW AND TRAINING                           10502
A0201400920375045050001CENTER                                                  20500
B0201400920000000047743HOWDY LEMON JAPAN INC.                                   1605
B0201400920000008813736LOMOCSO, GRACE  DBU LOMOCSO ADVERTISING                 11605
B0201400920000008813736& ENGINEERING                                           21600
B0201400890376047645001****************                                         1601
B0201400890376052650001NEWSAN TRADING LTD. CO.                                  1605
A0101402930000007031250CUA, GEORGE NICHOLAS OR                                 10502
A0101402930000007031250CUA, MICHAEL BENNETT                                    20500
A0101402930381150057001PAUL TANCHI OR JENNY TANCHI                              0501
A0101402930381419788001ALMARITA JIMENEZ OR                                     10501
A0101402930381419788001MA. REGINA COELI                                        20500
A0101408370000000335631NANALE, MELYN PABUNA                                     0501
A0101408370382205155003DR. ERWIN B. ALCAZAREN                                   0502
A0101402770000006642793SUESS, FLORENCIA GERODIAS DBU                           10502
A0101402770000006642793FGS ENTERPRISES JT                                      20500
A0101402770391423524001******************                                       0501
A0101405490392170363002SONIA T. OLIVEROS                                        0502
A0101408400394403584001FELIZARDO ROMERO OR                                     10501
A0101408400394403584001FLORDESETS ROMER                                        20500
A0101408400394427962002SALONGA, JEFFREY V. AND                                 10502
A0101408400394427962002SALONGA, MA. DAN                                        20500
A0101408400394475772001QUEPPET, ANALYN MARTINEZ                                 0502
A0101409210000007762954TOLENTINO, JENAIDA MANDADO                               0502
A0301400820000008995442GERALDINO, HERBERT CONDEVILLAMA                          0501
A5501400120000000046882CHIU, VALENTIN & JULIA EILEEN &                         10504
A5501400120000000046882CHRISTIAN & CHRI                                        20500
A5501400120410636391008CHIU, JULIA EILEEN R.                                    0502
B2401400180000000073692BROTHERS D & D INC.                                      1610
A2401400180411478374020MORI, LYDIA                                              0502
A2401400180411478374044UGAT, ELVA T.                                            0502
A2401400180411478374054LUENGO, IMELDA AMPO                                      0502
A0101412890000001056382DAYFULL ENTERPRISES                                      0502
A0101403320000001647070SUAREZ, MA LIZA DAGU OB                                  0501
A0101403320000011921338MENDOZA, PHIDEL LOUIE APILADO                            0501
A0101403320471069582001ANGEL AND SOFIA FISH STALL                               0501
B0101406330472034895001PRIME MKTG. AND DIST., INC.                              1603
B0101406330000000432864**********                                               1603
A0101410140000001939984DELANTAR, DARMEL URAGA                                   0501
B0501400170481013156001K SERVICO TRADE, INC.                                    1603
A0501400170481043466001RUSKIN MARKETING                                         0505
A1401400110000000628604LANDAYAN, CHRISTOPHER CRISTOBAL                          0502
B0101403580000010847380MEC - HOJ                                                1610
B0101403580511015363073MEC - EMD ANTIPOLO                                       1610
B0101403580000000015738MEC - SPV 5 & 6                                          1610
B0101403580000000214662MEC - SUNTRUST PARKVIEW TOWER 1 & 2                      1610
B0101403580000000214673MEC - SHANATA                                            1605
B0101403580511043263001VY INDUSTRIAL BUILDERS, INC.                             1601
A0101403580511152926001MARIO T. MANANGHAYA OR                                  10503
A0101403580511152926001REMEDIOS C. MANANGHAYA                                  20500
A0101403580511156579016ROBERTO L. TAN                                           0501
A0101411790518055764189LARIOSA, MARITES DULAY                                   0501
A0101403450521341597001**********                                               0502
A0101403610000011919870POLVORIZA, BERNABE VILLAR                                0501
A0101403610000011925063POLVORIZA, MYLENE VILLAR                                 0501
A2201400250561258530020MERDENIO M. ESPINOZA                                     0502
A2201400250561655717001JAIME Y. MARIANO                                         0504
A0101404130601339897001DR. LESLIE V. TIU                                        0501
B0101407720602007039001TRINITY WOMAN & CHILD CENTER                            11610
B0101407720602007039001THE BIRTH PLACE                                         21600
A0101407720602364262001UY, EDWARD CO                                            0501
A0101407720000005100161DE JOYA, MADELENE ANG                                    0501
A0101412180000005360145HUMPHREY, HAYDEE DELA CRUZ                               0501
A0101404260000005446904**********                                               0502
A0101404260000003498373MA. DESIRIE J PATOC                                      0501
A0101409890000003098008**********                                               0505
A0101407690652045019001AXIS ROOF SERVICES                                       0502
A0101407690652520766005GILNNA M. MALIGAT - DEALERS OF                          10502
A0101407690652520766005SHOECAT INC.                                            20500
A0101407690652535392001MYLENE GENER BUENCAMINO                                  0501
A0101414120000008642622AGRAVANTE, CESAR LUCERO                                  0501
B0101414120000011765218MEGAMAN POWERTRADE, INC.                                 1610
A1301400340683055116001BENIGNO D. GUEVARRA DBU IRON                            10503
A1301400340683055116001ANGELO ENGINEERING                                      20500
A1301400340683478374039ABAOAG, CELIA SALVADOR                                   0502
A0101408240711546859001CALIG, TERESITA MACATUAY                                 0501
B2801400100000004560025MONTEONE CONSTRUCTION CORPORATION                        1605
A2801400230000001734732CITY REJUVENATING SPA                                    0503
A4101400260000000002142TAJANLANGIT, JACKIE C.                                   0501
A4101400390813043811001OXY CLEAR WATER FILTRATION AND                          10501
A4101400390813043811001REFILLING STATIO                                        20500
A4101400390813581946001FRANCISCO, GERALD LIWANAG                                0501
A4101400420814357382003REMULLA, GILDA VASQUEZ                                   0501
A0101412340000003438782JOCELYN B. REYES OR GEOFFREY                            10501
A0101412340000003438782JONATHAN B. REYES                                       20500
A0101412340000003340821ZARINA S. ARAQUE-AGORILLA                                0501
A0101412340000003348861MARIBETH C SARMIENTO                                     0501
A0101412340000007305757EVELYN D. ALVAREZ                                        0501
A0101404840000005396701ADARAYAN, LITO LAGARTO                                   0501
A0101406750852006782001MANSUETO DELA CRUZ OR                                   10501
A0101406750852006782001MARY GRACE DELA                                         20500
A0101406750852069612001LOPEZ, ERIN JAN JARDIN DBU J.A.                         10501
A0101406750852069612001ENTERPRISE                                              20500
A0101406750852084318001SIBUG, GENEATH P. OR                                    10502
A0101406750852084318001SIBUG, ERNESTO M                                        20500
A0101406750852478374055ALBINA, ANALIZA                                          0502
A0101413860000002314249DE LEON, ANGELITA VELASQUEZ                              0501
A0601400230000000989962ZHANG, SHAOPENG                                          0502
B0601400230891028118001D.M. AUTO SUPPLY                                         1605
B06014002300000060452907R FINANCE CORP.                                         1605
A0601400230000000452782GOZUN, R-JAY RAMOS                                      10510
A0601400230000000452782OR GOZUN, MYRNA                                         20500
