A0101409210000002802768ESER, GLADYS ROSAL                                       0501
B0101400600071328360002**********                                               1601
A0301400950000002251970CEZAR B. BETONIO OR                                     10501
A0301400950000002251970EMMA M. BETONIO                                         20500
A3101400450223418716001GARCIA, JESUSA CORAZON PLAZA                             0503
A0101403320471534421001MICHAEL JOHN A. BAGALAY                                  0501
A1601400170000000094040MARY SYLA A. SURITDA                                     0501
A0101403610531355089001MACASAET, DOMINGA YAMBAO                                10501
A0101403610531355089001MACASAET, LOPE M                                        20500
B0101400860011023909001**********                                               1602
B0101400860011374845003**********                                               1601
A0101400860011379561003**********                                               0502
A0101400860011594952001**********                                               0505
A0101400860000005313002*****                                                    0501
A0101401250000000460688MAGNO, FLORENCE UY                                       0502
A0101401250021502605001GILLIAM, MA. ELIZA CANGGAS                               0501
A0101400150000008044240TRINIDAD, CAROL ANN CABRAL                               0502
A0101400150061226678001PAMELA A. CASIN                                          0501
A0101400150061226995001ANNA MARIA R. AGUILAR                                    0501
A0101400150061341283001DIAZ, CYNTHIA MARTINEZ                                   0501
A0101400600071507394001********                                                 0502
A0101400730111203514067ELIZABETH MILES                                          0501
A0101400730111429247002SANTOS, CAROL MAE ASIDO OR                              10502
A0101400730111429247002SANTOS, ENRICO                                          20500
B7201400170000000040699PAULIN, GYRNYLL ALBARRACIN AND APURA                    11601
B7201400170000000040699LODINIE BRAZA                                           21600
A0101400440000003705946ESTELITA MELEGRITO                                       0502
A0101400440161520766147EVANGELINE GARAY                                         0501
B0101407270162044098002GRANTLINE, INC.                                          1605
A0101407270162333154028MYRNA G. REYES                                           0501
A0101401090171509976001SALES, RENATO SANTOS                                     0502
B0301400950000000566901UNITED WIL MANPOWER AND ALLIED SERVICES,                11605
B0301400950000000566901INC.                                                    21600
B0301400950000000566945BIG Z QUALITY FOODS CORPORATION                          1610
B0101401380201370046001**********                                               1603
A0101413020000002292680**********                                               0501
A0101410720000000882793FALCON, EJAY LASAP                                       0501
A0101410720000002283941OLEDAN, NELSA GASING                                     0502
B0101410720000000008722ACELIS SAL OFFSHORE PHILS. INC.                          1601
A0101410720000000211769GAN, ROWENA NAVARRO                                      0502
A0101410720653528817001VINCENT GONZALO SY OR TIMOTHY                           10502
A0101410720653528817001JON SY OR JULIE SY                                      20500
A0101413600000004661472WILLIAM P. TAN                                           0503
A3101400450000005960432LACANILAO, MARKUS DBU MAVLAC                            10501
A3101400450000005960432METAL TRADING                                           20500
B1301400470000000009561FUND LINK CREDIT & LOANS, INC.                           1602
B0101406620273017284001ACCENT MICRO TECHNOLOGIES, INC.                          1605
B0101406620273022309001VISOR RESOURCES, INC.                                    1606
A0101406620000000051061MANCILLA, MICHAEL LEE                                   10501
A0101406620000000051061OR MANCILLA, MILLYNETE                                  20500
A0101410980000006014379GONZALES, E DBU AITWINS INTERNA                          0501
A0101411110000004342881UMALI, KRISTEL JOY ANGULO                                0502
B0101412470000003847416FUNDACION SANSO, INC.                                    1601
A0101400570000006271730ADAN, CHRISTINA HOYUMPA                                  0502
A0101400570281186571001SOCORRO D. MARQUEDA                                      0504
A0501400200292567569001LARILYN D. GATCHALLAN                                    0501
A0801400160311478374070GENALYN M. BOTANERO                                      0501
A1101400120313478374016NAVAL, DOLLY Q.                                          0502
A6601400120000003642653SULTAN, ALEX GRUTAS DBU ANDREA                          10501
A6601400120000003642653CONSTRUCTION                                            20500
B3401400280318044735001A & T SANTOS INCORPORATED                                1605
B2901400130319821100608**********                                               2002
A0101402350000002310678MONES, ELMIE LANTACA                                     0502
A0101402350321019626001JASMINN'S LAUNDRY CARE                                   0501
A0101402350000000655356CANDIDATO, ADRIL VERANO DBU                             10501
A0101402350000000655356ADZ MANPOWER SER                                        20500
B0101402060351039870001CHYNNA SALES & DISTRIBUTION INC.                         1620
A0201401020000003031129DEL PRADO, JOSE VICE DBU DE LAR                          0502
A0101408370000000476722MALABUYOC, JANETH ATIENZA                                0501
A0101408370382206455001DR. RUBEN G. KASALA OR                                  10502
A0101408370382206455001DR. MA. CARMELA KASALA                                  20500
A0101408370382207153001MA. TERESITA Z. CABREIRA                                 0503
B0101408790383043155001PHILPACKAGING CORPORATION                                1603
A0101405490392034138001MCMAR & MARY ELECTRICAL                                 10502
A0101405490392034138001& CONSTRUCTION S                                        20500
A0101409210000008707819RABANG, DAWNA NICOLE BRIONES                             0501
A0301400820000002272055DELA VICTORIA, MERLE D.                                  0502
A5501400120410787960001TANTERAS, EDWIN MONTEJO                                  0502
A0901400220000000012324SPECIALIST MOTORCYCLE PARTS &                           10505
A0901400220000000012324ACCESSORIES, INC.                                       20500
A0101403030441240348001GODOFREDO SY                                             0502
A0101412890000000371431BARBUENA, GINA B.                                        0501
A0101406330000004349611CORMACK, ROSS ANTHONY STEVENS                            0501
A0101406330472027958001A. ANOLIN ENTERPRISES                                    0502
B0101406330472040053001KUS OFFICE SYSTEM MFG. CORP.                             1603
A0101406330472215960003ARTHUR N. LINDO                                          0502
A1901400160491343996001MARIA DOROTHY M HERNANDEZ                                0502
A1901400160491589431001MARILOU D BOOL                                           0510
B1401400110492026354001TALIPAN BUILDERS                                         1605
B1401400110492031376001LUCENA WHEELER ENTERPRISE INC.                           1601
B1401400110492031376001LUCENA WHEELER ENTERPRISE INC.                           1601
A1601400170000002333962AGUILAR, MARIVIC JADIE                                   0503
B0101407430000000035349COALESCE SALES INC.                                      1605
A0101408530516042413001DENTAPRIME DENTAL SERVICES                               0503
A0101411790000006797980VALDEZ, NATHALIE ESPIRITU                                0502
A0101411790518055764224RADA, PIA ANGELA VERANO                                  0501
B0101403450521239197001**********                                               1605
A0101403450000001769771SANTOS, EMMA CASTILLO                                    0501
B0101403610531023320001SOUTHERN HEIGHTS MONTESSORI, INC                         1601
B0101404000551760337001VERNIDA VALLEY INC.                                      1603
A2201400250561255737002WILFREDO Y. SAWIT                                       10501
A2201400250561255737002OR JOSEFINA B. SAWIT                                    20500
A0101404130000005962252CU, ANGELITO DEQUINA                                     0501
A0101407720000003886944DELA CRUZ, CHERADE LORAINE PALE                          0501
A0101407720602280481002ARABE, EDUARDO OR                                       10501
A0101407720602280481002ARABE, EMELITA                                          20500
A0101407720602299636001GREGORIO GERRY F. FERNANDEZ                              0502
A0101407720602332279002CAYCO, ANTONIO V. OR                                    10501
A0101407720602332279002CAYCO, MARGARITA                                        20500
A0101404260611150856002CHING, WILLIAM OR TRINIDAD                               0502
A0101404260611606896001LAGOS, MA. CONSUELO CUYUGAN                              0501
A0101409920000000523595GARCIA, MARITES VILLAGRACIA                              0501
A0101413570656057648079MA. LOURDES V. ESCOBIDO                                  0503
A1301400210682248910001HECTOR PAGDANGANAN OR                                   10502
A1301400210682248910001  LOLITA PAGDANG                                        20500
B1301400500000005963404PAGASA PHILIPPINES LENDING COMPANY INC.                  1605
B0101408240000005679150POWERBEE ALLIED SERVICES INC.                            1602
A0101408240000001038562FERNANDEZ, CHARLES HESED OR                             10502
A0101408240000001038562FERNANDEZ, STEPHANIE ANNE                               20500
A4101400420000000120743VILLANUEVA, ROWENA ALARCON                               0503
B4101400420000007305360VIC IMPERIAL APPLIANCE CORP.                             1602
B4101400420814018935001IGLESIA EVANGELICA UNIDA DE CRISTO(ANABU                11602
B4101400420814018935001UNIDA CHURCH)                                           21600
A4101400550815478374001ONAYAN, CAROLINA BAUTISTA                                0501
A0101412340000003438760THERESITA G. HERRERA                                     0501
A0101404840851317230020JEFFREY R. DIZON                                         0502
A0101404840000005396778LOJO, LUZ SOLIDUM                                        0503
A0101404840851478374190MARIE JEAN A. MOLDEZ                                     0503
A0101406750852617055001PUA, HERMINIA SALAS                                      0501
A0601400230000000498619NEPOMUCENO, NOLI SICAT                                   0502
B0601400230000000029883ORO OXYGEN CORPORATION                                   1602
A0601400230891738531001MARK ANTHONY CHUA OR GILBERT A                          10502
A0601400230891738531001TAYAO OR ABELARD                                        20500
