A1701400230000002347446RIA, JENNIFER VICENTE                                    0502
B0101408400394025709001METRO RETAIL STORES GROUP, INC.                          1620
A0101401250021183954001KAWI, HEDELISA A.                                        0502
A0101400570281186611001EMERITA R. DOMINGO                                       0501
A0101400860000002333580**********                                               0503
B0101400860011043377002WAI-YING FASTFOOD                                        1610
A0101400860011550110001**********                                               0502
A0101400150000004915333AGUILAR, ANGELIE GATCHALIAN                              0501
A0101400150000009217818CHANG, ERICA RITZ LEE                                    0501
A0101400150000009400486HOKIMOTO, NOBUYUKI NMN                                   0501
A0101400150000012463677WATANABE, HIDEHIKO NIL                                   0501
B0101400150061020750001NATIONWIDE DISTRIBUTORS, INC.                            1606
B0101400150061021925001EASTERN PETROLEUM CORPORATION                            1610
B0101400150061046649001STAR TRENDS APPAREL CORPORATION                          1602
B0101400150000000633550PHILIPPINE SEVEN CORPORATION                             1602
A0101400150000004090679AGUILAR, RENILDA GATCHALIAN DBU                          0501
A0101400150061231578001GEMMA L. AGANAD                                          0502
A0101400150000003600940PUJOL, PACITA MAPE                                       0501
A0101400150061547918001TAMAYO, KRIZALDY PEREZ                                   0505
A0101400150061780152001MARTHYN S. CUAN OR MARIE GRACE                          10502
A0101400150061780152001VERA CRUZ                                               20500
B0601400100081044499001CLARK ELECTRIC DISTRIBUTION CORPORATION                  1602
A0101414090000000648562CHOA, NELSON GO                                          0501
A0101414090000006211450CHOA, NELSON GO                                          0501
A0101410560000001291043MELVIN G. BESINGA                                        0501
B0101410560000007071350KAIBIGANG MAAASAHAN MULTI-PURPOSE                       11610
B0101410560000007071350COOPERATIVE                                             21600
B0101410560000008979366JVR PLACEMENT CO. INC.                                   1605
A0101400730111644159001CASUNCAD, CATHERINE GRAGASIN                             0501
A0101400730111678134001ACAIN, SHELLANE CASTILLO                                10505
A0101400730111678134001OR MAJAR, JARDIO                                        20500
A0101406040112653549001JEANETTE G. SY                                           0510
A0101413150000001288217******                                                   0501
A0101413150000000082700******                                                   0501
A0101412630000004062064BANZUELA, ELEANOR ADORNA                                 0502
A0101413310000009641152DIZON, YOLANDA ALABANZA                                  0501
A7201400170000003774112AMPIL, FLOYD TABAYAG                                     0501
A0101407270000004573600TALAVERA, RONAN MOTA                                     0501
A0301400660000006862873DEQUITO, CITZY VENTOR                                    0502
B0101413600000002822740ENA POWER BUILDERS INC.                                  1602
A3101400160221302073001DAVID R. BARTOLO OR ELIZABETH                           10501
A3101400160221302073001H. BARTOLO                                              20500
A3101400160221478374027ERNESTINA S. VILLANUEVA                                  0501
A3101400450000000163482LAMAR, ANTONIETA C.                                      0502
A3101400450223455809001LANCION, AUREA OR JERIC                                  0502
A1001400190231478374116ESTRELLITA E. BERMUDEZ                                   0501
A1001400190000002170769JUGAN, NOUE MALOLOT                                      0501
B1001400350233039881018EASTMIN FOOD CHAIN CORPORATION -                        11605
B1001400350233039881018JOLLIBEE GATEWAY                                        21600
B1001400350233039882018WESTMIN FOOD CHAIN CORPORATION -                        11605
B1001400350233039882018JB PUERTO                                               21600
B1301400470000000009696MAKOBOBI DISTRIBUTORS INC.                               1602
B0101406460272040204001A & N HOLDINGS CORPORATION                               1610
A0101406620273228390001NG, MELISSA ONG                                          0501
A0101406620273361839001LORNA C. FIELDS                                          0501
A0101406620273491779001GUZMAN, JOMAR MABBORANG                                  0501
A0101408660000006296655MADAMBA, JOSE MA ENRIQUE RUTAQU                          0502
A0101408660274087502001**********                                               0501
B0101411110000001037063UNI-ORIENT PROPERTIES, INC.                              1601
A0101411820000000477361REYNALDO C. PIAMONTE OR                                 10501
A0101411820000000477361MARIA TRACY F. P                                        20500
A0101411820000002328452GENISES C. SOLOMON                                       0505
B0101411820277048022001FORGEMS MARKETING COMPANY, INC.                          1610
A0101412470000000520130FLORES, GINA CRUZ                                        0502
A0101400570281419686001ANTONIO C. VALERA III                                    0501
A2601400270302574301001ALEX UY TY                                               0501
A6601400120000001370741TAN, MARTIN JUNBOY OR                                   10502
A6601400120000001370741TAN, MARIA MELISSA                                      20500
B6601400120000003084739BESTGOLD MARKETING CORP.                                 1601
A0101405650000009767931JARICAL, LEAH ESPOSO                                     0501
A0101402510341399626001TAMAYO, HONEY LIZA C.                                    0502
A0101409050000011151065SAPORSANTOS, REGINA ANTONIO                              0502
B0201400890000007877243**********                                               1602
A0201400890376763623001**********                                               0501
A0101408370382205131001DR. ELENA C. AZARRAGA                                    0505
A0101408790383549402001*****                                                    0501
A0101415350000011119930BAYOT, MICHAEL E.                                        0501
B0101402770391009312001CAPITAL GARMENT CORPORATION                              1602
B01014027700000068124627 SEA AIR & LAND LOGISTICS SERVICES                      1602
A0101408400000011472821MANANSALA, MELITA COLORADO                               0502
A0101408400394514933001CERVANTES, MICHAEL CRUZ                                  0501
A0101409180000003780125SANTIAGO L. BALLESTEROS                                  0501
A0101409180000005326621PACARAT, MARICEL GONTINAS                                0501
B0101409180397041522001UNI-PRESIDENT (PHILIPPINES) CORPORATION                  1601
A0101409210000010895675CACHERO, RHIZA JOY DE CASTRO                             0501
B0101409210000000031307GFL METRO COMMUNITIES INC.                               1601
B0101409210398055893001PHILMOVERS HAULING AND LOGISTICS INC.                    1605
A0101412210000011968082DE CASTRO, MA LOURDES ANN                               10502
A0101412210000011968082ARAULLO                                                 20500
A0301400820000008105622CABALLERO, MARY JANE GUNSI DBU                          10501
A0301400820000008105622MJ CABALLERO CALL CENTER                                20500
B1201400150421019772002MUSAR MUSIC CORPORATION                                  1605
A1201400150421252759002AVILA, BERNADETTE OR                                    10510
A1201400150421252759002AVILA, EDGAR                                            20500
A1201400150421348560001ABRATIQUE, BRIGIDA CECILIA                               0501
B1201400150421425048001MUSAR LEASING AND DEVELOPMENT                           11605
B1201400150421425048001CORPORATION                                             21600
A0101403030441239409001**********                                               0502
A0101403320000012446229GREGORIO G. SOTO OR                                     10501
A0101403320000012446229JOSEFINA S. FAJARDO                                     20500
B0101403320471035191001ST. GABRIEL CREDIT COOPERATIVE                           1601
A0101403320471342086001MARIA ELIZABETH B. CAMIT                                 0502
A0101406330000009181482MECHTRADE ENGINEERING SERVICES                           0505
A0501400170000009954016SORIANO, IAN ANTHONY CAYABYAB                            0501
A0501400170481385350002MARILYN TAN FERNANDEZ                                    0501
A0501400170481679606001CARINO, JOSEPHINE B. OR                                 10501
A0501400170481679606001BANGSAL, CARMELI                                        20500
A3801400170000005288133RABINO, FE FORTU                                         0501
A1401400110000005526990DIHIANSAN, CHRISTINE BRIOSO                              0501
B1401400110000003475730RCBL - OUR LADY OF LOURDES PARISH                        1601
A0101407430503394289001TAN, BERNARDINA ANGELIE LINA                             0501
A0101408530000007981813MOJICA, ALLEN ALBERT                                     0501
A0101408530516482667001GADDI, FATIMA LUCIA SARENAS                              0501
A0101411790518055815123SAMSON, MAIKA JOY CERBITO                                0501
A0101412050000011929196QU, HUAYI                                                0501
B0101403450521011955001KINGSWOOD TRADING CO., INC.                              1603
B0101403450521011989001**********                                               1610
B0101403450521012107001**********                                               1601
B0101403450521037888001STA. ANA MANUFACTURING & DEV'T. INC                      1603
A0101403610000012469353LAMSEN, CORNELIA RABINO                                  0501
A2201400250000006275829BAYAUA, BETHILDE LIES BARZABAL                           0502
B2201400250000001066171THE LAUGHING CARABAO BREWERY INC.                        1601
A0101407720602301013001ZSHORNACK, EDWARD DENNIS JAVIER                          0501
A0101407720602353878001TARRIELA, MARIANO TRAMBULO                               0501
B0101407720602531639008INTELLIGENT BEAUTY SKIN SOLUTIONS INC.                   1602
B0101407720000000017683MAKI ADVERTISING COMPANY, INC.                           1601
B0101407720000000017701BODYOLOGY, INC.                                          1601
A0101412180000006471332MANZANO, JANINE DAET                                     0501
B0101412180603047294001COUNTRYBEST INTERNATIONAL PLACEMENT                      1602
A0101411530000003238297**********                                               0501
B0101411530000006217596VG PINEDA CONSTRUCTION CORPORATION                       1604
A0101413570000004353822LUMAGBAS, CATHERINE REDOBLE                              0501
A0101413990000000206066MARKVENT ENTERPRISES                                     0501
A0101414120000001142863*****                                                    0501
A0101406590662209733001PANGILINAN, ANTHONY N. OR                               10504
A0101406590662209733001PANGILINAN, MA.CECILIA                                  20500
A0101406590662673251001ABARABAR, MARILOU YU                                     0501
B1301400210000005041109*****                                                    1604
B1301400210682040563001ACTISERVE CORP.                                          1605
A1301400340000001415770********                                                 0501
A0101408240711292762001HERMINA H. TAGAYUN OR                                   10501
A0101408240711292762001CRIS B. TAGAYUN                                         20500
B0101408240711458793001RICHETEC INC.                                            1610
A0101408240000000522001OROBIA, JOSE RAMON INUMERABLE                            0501
A4101400390813329511003CARLITO B. CRUZ                                          0501
A4101400420814478374030LIGAYA ILANO                                             0501
A0101412340000003341357JEANNE APRIL MARIE BRUNEAU                               0501
A0101412340000007404373ENJELICA D. TAN                                          0501
A0101404840851210994001LIGAYA P. GASCON OR                                     10503
A0101404840851210994001MARIA LOVELY DEL                                        20500
A0101404840000000254551YUJI OTA                                                 0501
A0101404840851520766179CORAZON GUPIT                                            0501
B0101405070000006006002SFM EXPRESS LOGISTICS CORPORATION                        1601
