B0301400530193821100608**********                                               2005
B0101405070861821100608**********                                               2003
B4101400420814571500001TELDATA NETWORK & TECHNICAL SERVICE                      1602
A4101400420000006643445MAGNETICA ELECTRONICS, INC.                              0501
A0601400100081044590001FJP TRADING AND AGRI SUPPLY                              0503
B0101402930381022284001INVESTORS ASSURANCE CORPORATION                          1601
A0101412210000003448548BRIOSO, MA. KRISTINA MONICA                             10502
A0101412210000003448548MIRASOL                                                 20500
B3801400170000000955131VIC IMPERIAL APPLIANCE CORPORATION                       1603
A0101406750000001491852DELA TORRE, RODA JANE ANTONIO                           10502
A0101406750000001491852OR DECENA, ARNULFO                                      20500
B0101406750852044723001AMGEN INSURANCE CENTRE                                   1601
A0101406750000002040124MALABANAN, RONALYN BANAYO                                0501
A0101406750852478374118RUBY FLAVIER                                             0502
A0101400860011420919001**********                                               0505
A0101400860011467833001**********                                               0502
A0101400860011467833002**********                                               0502
A0101400860011518992001**********                                               0505
B0101400150061024429001BRONZEOAK PHILIPPINES INC.                               1603
B0101400150000004703360ACTION.ABLE INC.                                         1605
A0101400150061189064001VENTURA, JOSEPHINE BANAAG                                0501
A0101400150061227793001**********                                               0501
A0101400150061229814001LEONCIO C. LIM                                           0501
A0101400600071351088001********                                                 0501
B0601400100000000142054LEE SADDI REALTY AND DEVELOPMENT CORP                    1601
A0101413280000005084931NORMA CHRISTIE V. KINTANAR                               0501
A0101410850000003503482CANILLAS, MARTIN LAPPAY DBU                             10502
A0101410850000003503482MARCCHARM INDUSTRIAL                                    20500
A0101410850109062884001DBU AVILA CONSTRUCTION &                                10501
A0101410850109062884001ENGINEERING SUPPLIES                                    20500
A0101400730111472699002LARGA, ANGELITA ZOLETA                                   0503
A0101401830000000535551ABELLARE, JOSHUA GABUAT OR                              10501
A0101401830000000535551PANAJON, DANNAH VIOLA                                   20500
A0101401830141377758001********                                                 0502
A0101400440000000596630MARY ANN A. OYARDO                                       0501
A0101407270000000818326CATHERINE B. LOPEZ                                       0501
A0101401090171196072003CARLOS M. ALMEDA                                         0510
A0101401090171196080003GIL Y. GAMILLA OR                                       10510
A0101401090171196080003CARLOS M. ALMEDA                                        20500
A0101401090171203461002LEAH SOCORRO N. RIVERA OR                               10503
A0101401090171203461002ESTELA RIVERA                                           20500
A0101401090171353569001ALETH THERESE L. DACANAY                                 0502
A0101401090171417916003CARMEN R. ALVIAR                                         0501
A0101413020000000056795CHUA, PH HERMELINA UBALDO                                0505
A0101412500214056550001PABALAN, PONCIANO LOPEZ DBU P.L                         10501
A0101412500214056550001PABALAN CONSTRUC                                        20500
A3101400450223558607001MACATOL JR., DANIEL GARAY                                0501
A3101400870000002328036YU, RICCI CASTILLO                                       0503
A3001400130000000931373SANCHEZ, AURALYN LUMAMBA                                 0501
A3001400130000001271363PALUCA, LIZA MORAL                                       0502
B1001400190231015069001*******                                                  1605
A1001400190231093042001ALBASE, RAMON BURACHO                                    0502
A1001400480000002659783REFUGIO, SOFRONIO RETUTAS                                0502
B1301400470000005394203MAYUMI S. PALILIO AND VAL E. PALILIO                     1605
A1901400290000001926303PAULER PANGANIBAN ANI                                    0502
B1901400290261027293001LIPA MEDICS INC.                                         1610
A1901400290261244344001AVELINA B DE GUZMAN OR                                  10502
A1901400290261244344001BENJAMIN D DE GUZMAN                                    20500
A1901400290261244456001LEO YAP ONG OR                                          10505
A1901400290261244456001MEI MEI YULO ONG                                        20500
A1901400290261337520001DRA NATALIA B CARDONA OR                                10505
A1901400290261337520001DR DANILO C CARDONA                                     20500
A1901400290261355605001PAZ CRISTIANA TIAMSIM LANDICHO                           0501
A1901400290261432900001JULIUS PIO AFRICA RANA OR                               10501
A1901400290261432900001CHARMAINE DE GUZMAN RANA                                20500
A1901400290261567865001ALEX IAN SISON DE LA CRUZ                                0501
B0101406620273009744001NORCONSULT MANAGEMENT SERVICES PHILS.,                  11602
B0101406620273009744001INC.                                                    21600
B0101406620273044714001SUPREME CHOICE INTEGRATED FARM INC.                      1604
B0101411820277048022001FORGEMS MARKETING COMPANY, INC.                          1605
A0101411820277775683001**********                                               0502
B0101412470000003847518JAD SIGNATURE BREADS INC.                                1603
A0101400570281186881002SANTAMARIA, MA. ZENEIDA SERRANO                          0502
A0101400570281423865002RIBAYA, VICTORIA CABRERA                                 0502
A0501400200000001081032CERDINO, REGINA ALMAZAN                                  0501
A1101400120000001547359SIERRAS, JASMINE DBU QUTE TRIP                          10505
A1101400120000001547359GASOLINE STATION                                        20500
A0101402350321548644002MANZANO, MARIO OR                                       10502
A0101402350321548644002MANZANO, SHIRLEY                                        20500
A0101405650000006273601H. NOOR, MALIKSAIF BANGON                                0501
B0101405650322024999001SUPERIOR MAINTENANCE SERVICES, INC.                      1630
B0101405650322172336001RCBP-OUR LADY OF GRACE PARISH                            1601
A0101405650322172897001ORTILLO, JOEL OR                                        10503
A0101405650322172897001ORTILLO, JASMIN                                         20500
A0101405650000000348903ESPERANZA F. BAYLON                                      0502
A0101405650322400866001LEVISTE, PANCHO M. OR                                   10502
A0101405650322400866001LEVISTE, EDITHA                                         20500
A0101402510000007968976CORPUZ, LAURA AQUINO                                     0502
A0101409050000000939351SINGH, JEFFREY BEJASA                                    0501
A0101409050000003536521GUTIERREZ, SHERYLL                                       0501
A0101409050352570678002DENNIS M. SILVA                                          0501
A0201400760000005710981CUIZON, JOVEN PANSIT                                     0502
B0201400760000005711104SANDRA YOUNG OR JANICE LORRAINE YOUNG                    1601
A0201400920000001331515MORILES, ALEJO DBU XPOST MEDIAT                          0502
A0201400920000001331559JNJ FURNITURE AND DESIGNS                                0504
A0201400920000000007861TONACAO, MILAGROS PUGASAN OR                            10502
A0201400920000000007861TONACAO, JIMMY C                                        20500
A0201400890000000027892FORTRESS ELECTRICAL SUPPLY                               0502
B0101402930000000038753TRAVEL WAREHOUSE, INC.                                   1605
A0101402930000000053381DELA CRUZ, LOMER HOPE BEBOSO                             0502
A0101402930381547751001FREDRICK IVAN LEE HO                                     0501
A0101408370382209736001DRS. PAUL JESUS S MONTEMAYOR OR                         10502
A0101408370382209736001MA. NATHALIA N MONTEMAYOR                               20500
A0101408370382431175001EDITA Q. SALUDARES M.D.                                  0502
A0101408370382484207001DR. EDWIN RAYMOND B. BALATBAT                            0505
A0101411660000000595222ANITA PINEDA SISON                                       0503
B0101402770391024738001EASTWAY INDUSTRIES, INC.                                 1601
A0101402770391319133001ALMIN, WENDA RESUELLO                                    0502
A0101408400394454919001TAPULAO, MARIA MERCEDES OR                              10502
A0101408400394454919001TAPULAO, ALBERT                                         20500
A0101408400394572617001NARIZ, ELENA PILAR                                       0501
A0101408950000005325491ALMARIA, MARIE JOSEPHINE CONFED                         10501
A0101408950000005325491AND BONGALA, TERESA DIANA                               20500
A0101409180000004959635FERRERAS, EDWIN L. DBU BICORE                           10501
A0101409180000004959635ONE NETWORK ENTE                                        20500
A0101409210000004092200******                                                   0501
B0101409210000000031238******                                                   1620
B2401400180411031958001***********                                              1602
B2401400180411044855001GOLDEN ATLANTIC MERCHANDISING                            1605
A2401400180411432546001LIM, ROBERT LIM OR LIM, GINA                            10510
A2401400180411432546001NAZARENO                                                20500
A1201400150000000473272SEVILLA, JEMIMA ACHAPERO                                 0502
A1201400150000002325053PICARDO, GRACE MELODY RIVERA                             0501
B1201400150421253585001ANGELES DIAZ                                             1602
B0101403320471206926002LOLITA B COLINA                                          1601
B0101406330000000162661BRILLIANT IMAGE, INC.                                    1603
A0101406330472206499001LUZVIMINDA H. GERONIMO OR                               10503
A0101406330472206499001LUZDIVINA H. GERONIMO                                   20500
B0501400170481018109001*********                                                1601
A0501400170000002354510BERMUDEZ, ELSIE MALAPIRA OR                             10502
A0501400170000002354510LEIZA JR., JUANI                                        20500
A3801400170000000955040EDWIN C ACOB                                             0501
B1901400160491029820003MONTENEGRO SHIPPING LINES, INC.                          1605
A1901400160491247764001MARITES E RAMIREZ                                        0501
B0701400260000000041083MULTI-WARE ECON-SALES CORPORATION                        1603
B0701400260000000041130TREVOR ETON REALTY CORPORATION                           1601
B0101408110515044192001ASIA SOCIETY FOR SOCIAL IMPROVEMENT AND                 11605
B0101408110515044192001SUSTAINABLE                                             21600
B0101408530516033397001SPRINGER INTERNATIONAL, INC.                             1605
A0101408530000001268504JONN DAVID S. BALTAZAR                                   0501
A0101408530000001886086DENVER A. SISON                                          0503
A0101411400000003311144KIM, JEONGHEE                                            0502
A0101411790000000469596**********                                               0502
A0101407720602377521001CLAUDINE RAE L. JAVIER                                   0501
A0101407720602397425001HENSON, MARIA THERESA GUEVARA                            0501
A0101404260000003498391SILVA, ARISTOTLE GIMOTEA                                 0501
A0101409920000007304685MONTILLA, JUSTIN JONAS ANDRADA                           0501
A0101414120000005252853******                                                   0501
B0101406590000000035594*****                                                    1604
B1301400500684602319001*****                                                    1603
B0101408240711028488001INTAS DESTINATION MANAGEMENT INC.                        1605
A0101408240711084120001NOCON, MICHAEL FRANCIS QUIBILAN                         10502
A0101408240711084120001AND FLORO, MICHA                                        20500
A2801400100000002253549PARAZO, DARLOW BALMORES                                  0502
B2801400100000004560070HAYER SUBIC INTERNATIONAL TRADING,                       1601
B4101400390000003346187PAGASA PHILIPPINES LENDING COMPANY                       1603
A4101400420814478374132OCAMPO, FIDES P.                                         0501
A4101400420814520766084PADILLA, ROSEMARIE E.                                    0501
A0101404840000003410011MENDOZA, MARY ANN GRANADA                                0502
A0101404840851478374126ERLINDA DE DIOS                                          0501
A0101404840000000475941*************                                            0502
A0101404840000001312634GARCIA, LEAH DEGUINON                                    0501
B0101406750000000090559GLOBAL ACCESS FINANCIAL SERVICES, INC                    1602
B0101406750000000090708GLOBAL ACCESS FINANCIAL SERVICES, INC.                   1602
A0101406750852084318001SIBUG, GENEATH P. OR                                    10502
A0101406750852084318001SIBUG, ERNESTO M                                        20500
A0101405070861087185001FORTUN, MARIA DOLORES REMULLA                            0501
A0101405070861197518001RICARDO G. CHAN OR                                      10505
A0101405070861197518001OLIMPIA C. CHAN                                         20500
A0101405070861478374066ELMER LADRES APAS                                        0501
