B0801400160311821100608**********                                               2010
B0101408950396821100608**********                                               2010
A0101410300000011355592*****                                                    0501
A1101400120000003022384ELCARTE, ERNA GONZAGA                                    0501
A1101400120000000065103BELLO, TERESITA CASTARITAS                               0501
B0101408790000010384528JVC HENGUN ADVERTISING INC.                              1602
B0101401830141033573001MAHARLIKA GENERAL MERCHANDISING                          1605
A0101401830000001281998RIVERA, RAMIL DBU ICON RBR                              10502
A0101401830000001281998GLASS AND ALUMINUM SUPPLY                               20500
A0101401830141069584001GELIDO, BIANCA GRACIELA DBU                             10501
A0101401830141069584001BDG EVENTS MANAGEMENT                                   20500
A0101401830141292667003MAGTALAS, GEMMA OR LEE MARVIN                           10505
A0101401830141292667003OR JOHN GEMMO                                           20500
A0101412470000005380285QUIRINO, ALELI ANGELA GUZMAN                             0502
A1101400120000003197211HERNANDEZ, MAY CONDE                                     0501
A0101408400000003515073MAGO, MAYBELLE DELA CRUZ                                 0501
A0101403610531317615001LAL, CHAMAN                                              0501
A0101410690000001285303CORTEZ, DARWIN AUDIE DBU WINCOR                         10505
A0101410690000001285303CONSTRUCTION                                            20500
A0101400860000008319404**********                                               0505
A0101400860000010683322***********                                              0501
A0101400860011496538001**********                                               0505
A0101400860000001005445************                                             0502
A0101400860011742231001**********                                               0505
A0101400860000001005401**********                                               0502
A0101400150061227037001ELMA CASTILLO                                            0502
A0101400150061230586001MARTIN STEPHAN JAKOB KURER                               0502
A0101400150061232229001MA ARLEEN SISCAR                                         0501
B0101400600071234185001BALAY, FRANCISCO OR BALAY, MELLY                        11601
B0101400600071234185001BALAY, ANDREW                                           21600
A0101405810072236268001KENG, LOUELLA JOCELYN BARRETTO                           0501
B0601400100081013030001SEVERINA REALTY CORPORATION                              1602
A0601400100000007250600SARITA, V DBU JT VCREATIVE                              10505
A0601400100000007250600PRINTING                                                20500
A0601400100081251941001MARCELINO ALAPAG OR                                     10504
A0601400100081251941001JASMINDA ALAPAG                                         20500
A0601400520000009516883GODINEZ, VERGEL DELA PENA OR                            10502
A0601400520000009516883GODINEZ, OLIVE QUIROZ                                   20500
B0601400520000001706883MERCADO, MARGIE Z DBU LINCEL GEMOSEAN                   11602
B0601400520000001706883LEARNING CENTER                                         21600
A0101414090000000399388CATAPANG, MICHAEL                                        0501
A0101414090000006211325DILIGENCIA, MARIA REGINA P OR                           10501
A0101414090000006211325DILIGENCIA, MARK V                                      20500
A0101414090000000399220ECHEVARRIA III, LEOPOLDO P.                              0505
A0101410850000000005789AUSTRIA, MA. DOLORES RODRIGUEZ                           0501
A0101410850000000778689CORTEZ, DOMENICO ALLESSANDRO                            10501
A0101410850000000778689MAGTOTO                                                 20500
A0101410850000011219268BALBARINO, GENEROSA SILVESTRE                            0501
B0101400730000008477863B&R FINEST  AND FAMOUS FOODS CORPORATION                 1610
A0101400730000004948683MENCHIE T. ALCORAN                                       0503
A0101400730111386713001DELOS SANTOS, JOCELYN RAMILO                             0510
A0101400730111452111001PEREZ IV, MAURICIO GUTIERREZ OR                         10502
A0101400730111452111001JARDIOLIN, MAJAR                                        20500
A0101401960000001844599*****************                                        0501
A0101401960121239548001MELANIE YAO                                              0501
A0101401960000006004411***************                                          0501
A0101401960000001844500**********                                               0502
B0101401830141037764001MICHAELJONA TRUCKING SERVICES, CO.                       1602
A0101401830141341513001EDWINA O. SEVERO                                         0501
B0101407270000003254395SUCCERO SERVICES CORPORATION                             1603
A0101401090171198531002JOHN DONNIE A. RAMOS                                     0501
A0101401090171200998001LUCAS OR NADINEE ARCEO                                  10502
A0101401090171200998001OR ABIGAIL ARCEO                                        20500
A0101401090171306146002QUE, MARY CHRISTIE DY                                    0501
A0301400530000009156947CAI, SHAOXIN                                             0503
B0301400530193038166088FUTURE OPTIONS DISTRIBUTION SYSTEM, INC.                 1605
B0301400530000000065945TAGUM SEAFOODS AND GRILL CORPORATION                     1602
B0301400530000007345500DIOCESAN PRINTING PRESS AND PUBLISH                      1603
B0301400660000003368490ARBICON, INC.                                            1603
A0101401380201776189001********                                                 0501
A0101410720000009157080TUANO, MARIA NORMA CABIADES                              0501
B0101410720000000008711DERMCARE PROFESSIONAL SKIN, HAIR &                       1603
A0101410720653534948001SANTOS, MARIA ROSARIO MORALES                            0501
A3101400870000000957655BITHAO, C DBU BP-1 CAR AUDIO                            10502
A3101400870000000957655AND ACCESSORIES                                         20500
A3101400870000005565222SUAREZ, M DBU BIOSERV WATER                             10501
A3101400870000005565222REFILLING STATION                                       20500
A3001400130000001271363PALUCA, LIZA MORAL                                       0503
A3001400130000008264864CACAFRANCA, KARL RUSSEL INOCENC                         10501
A3001400130000008264864IO                                                      20500
A1301400760000010743223CORDOVA, MARK LOUI RUBIO                                 0501
A1301400760253056374001EDNA'S CAKELAND                                          0510
A1901400290000001975255JIAO, AGNES TUBILLEJA                                    0502
B1901400290261012705001MARY MEDIATRIX MEDICAL CENTER                            1601
B1901400290261038595002B & V TRADING                                            1605
A1901400290261298552151JEFFER JOHN ESTEBAN MONTEALTO                            0501
B0101401670271040550001STRUKTURA TEKNIKA SERVICES COMPANY                       1610
B0101406620273022409001COMMUNITY OF PRAISE, INC.                                1602
A0101406620273358539001MARIA TERESA L. JAHRLING OR                             10502
A0101406620273358539001ANGELO JAHRLING                                         20500
A0101406620273583990001TARROQUIN, MARLYN GERARDO                                0501
A0101408660000011967432WILKERSON, ARLENE MENDOZA                                0502
A0101408660000011967658LIM, IMELDA NIERE                                        0501
A0101408660000011967761HERNANDEZ, GIRELY TEVES                                  0501
B0101408660274038999001FRASOR GLASS AND ALUMINUM INC.                           1601
B0101400570281041722001DALLAS AUTO SERVICE CENTER, INC.                         1610
A0101411240000007844991GAERLAN, GERALDINE RODRIGUEZ                             0503
B0501400200292036584001SSS EXPRESS CREDIT, INC.                                 1610
B0801400160000001289932RD PAWNSHOP, INC. - ILOILO NORTH                         1603
A0801400160000002681729MA. FE M. FACTO                                          0505
A0801400160311478374056CECILIA B. ASTROLOGO                                     0502
A1101400120000001920532MEDRANO, JEFF JAYMELL JARAMILLA                          0501
A1101400120313478374066FUNCION, LANIE ECIJA                                     0502
A1101400120313478374103ENVERZO, NARISSA LEONORA G.                              0501
A2001400290000000724890RAYMOND, PRISTINE MARTINEZ OR                           10501
A2001400290000000724890RAYMOND JR., JOH                                        20500
A0101402350321415696004MANGUBAT, PAOLO T.                                       0501
A0101405650000002960901BALUBAR, TEODORA VILLEGAS                                0501
B0101405650322046297001HERRERA, ERIC DBU HOTWHEELS TRADING                      1602
A0101405650322551484001CHUNG, PIEN LUNG                                         0501
A0101402510000007838488PANGAIBAT, ALIZA MACARAYA                                0501
B0101409050352047267001BOW & WOW, INC.                                          1601
A0201400760000005711091CANOY, ARMAND HENZKEL BANGOLAN                           0501
B0201400760000005711104SANDRA YOUNG OR JANICE LORRAINE YOUNG                    1601
B0201400760000001612959**********                                               1601
B0201400760000001612960**********                                               1601
A0201400920375478374015GAYO, LOURDES O.                                         0502
A0101408370000002264160MACAPAGAL, MICHAEL SANTOS                                0502
A0101408370382042666001TMC DEPARTMENT OF ORTHOPEDICS                            0501
A0101408790383698989001CANDELARIA, MARY JANE DOMINGO                            0502
A0101402770000007921033ABDULRAHMAN, ROWENA DITUCALAN                            0503
B0101402770391009346001R.D. SAMANIEGO ROOFING CORP.                             1602
B0101402770000006812495RAMONLIM CONSTRUCTION & DEVELOPMENT                      1601
A0101405490000006299821ROMERO, ESTELITA ENDAYA                                  0502
A0101405490392341291001LYDIA R. CAYOG                                           0501
B0101408400000006813603NANOTECH INTERNATIONAL LIFT SERVICE                      1603
A0101408400394443611001MAGBANUA, JOSEFINA SANTIAGO                              0502
A0101408950000002255370CHIA, CATHERINE ANNE TEO                                 0503
B0101408950000006424882H2004 VENTURES INC.                                      1601
A0101409180000011955590ABENALES, REGINA ISABEL HEMBRAD                          0501
A0101409180000011955607BERNARDINO JR., JUAN RODRIGUEZ                           0501
A0101409210000007762965YABUT, FHREA MYLIE NEMIS                                 0502
A0101412210000011967443VERCUDIA, CLAIRE ANNE BASBAS                             0502
A0101412210000011967636LATAYAN, MARIA TEOFEL PALIS                              0502
A0101412210000011967738JARA, RIO ARBIS                                          0502
A0101412210000011967852ALCANAR, RYAN BALID                                      0502
A0101412210000011967910ZALAMEDA, AILEEN MISA                                    0502
A0101412210000011968020TANTOCO, JOANNA MARIGOLD FLORES                          0502
A0101412210000011968082DE CASTRO, MA LOURDES ANN ARAUL                          0502
A0101412210000011968140JACINTO, CORAZON CALICDAN                                0502
A0101412210000011968195TY, VALERIE TEE                                          0502
A0101412210000011968253YAP JR., ENRIQUE YNSON                                   0502
A0101412210000011968300TIENG, RONALD CHUA                                       0502
A0101412210000011968344KELLEY, ALAN BORISH                                      0502
A0101412210000011968388GOMEZ, RODEL GERONIMO                                    0502
A0101412210000011968435GESMUNDO, NAOMI GRACE OBIAL                              0502
A0101412210000011968468CHAHWAN, RAMI NA                                         0502
A0101412210000011968480LORENZO, RONALDO AVILA                                   0502
A0101412210000011968515ROA, ENRIQUE SAN JUAN                                    0502
A0101412210000011968537UY, DARIUS YNSON                                         0502
A0101412210000011968559ONG, RAYMOND TAN                                         0502
A0101412210000011968560RIGOR, NINA ANDREA LIWANAG                               0502
A0301400820000004746101FAMACION, RAMSEY DBU JARED SUIT                         10502
A0301400820000004746101ES OR FAMACION,                                         20500
A0301400820000001185768EMMARIE QUINTOS                                          0501
A5501400120000005492220ROCKWELL, SHARON SILVA                                   0501
A2401400180411034282001N. CONGSON CONSTRUCTION SUPPLY                           0510
A0101412890000001056411DELA  CUESTA, RAMON RAMOS                                0501
A0101403320471069582001ANGEL AND SOFIA FISH STALL                               0501
A0101403320471069597001RACHIES CAR AIRCON &                                    10501
A0101403320471069597001AUTO ELECTRICALS                                        20500
A0101403320471069684001MARMITA, FRANCIS DBU                                    10501
A0101403320471069684001ROOFTECH TRADING                                        20500
B1901400320000000041261SAN ISIDRO MULTI-PURPOSE COOPERATIVE                     1601
B1901400320000000041283SAN ISIDRO MULTI-PURPOSE COOPERATIVE                     1601
A1901400320489632830001ANTHONY E BAGON                                          0502
A1901400160491069610001M.C.C.D. ENGINEERING SERVICES                           10501
A1901400160491069610001& TRADING                                               20500
A1901400160491300270001JOSEPH ANTHONY R JAVIER OR                              10501
A1901400160491300270001JEMELLE T JAVIER                                        20500
A1901400160491635678001MARIVIC ATIENZA CANTES                                   0501
A1401400110000005526989FLORES, JESSICA REGIO                                    0501
A1401400110000005526990DIHIANSAN, CHRISTINE BRIOSO                              0501
A1401400110492220879001ANGLO, ROMEO F. OR                                      10502
A1401400110492220879001ANGLO, CECILIA N                                        20500
B1601400170000000036193EAST JAVA COMPANY                                        1605
A0101403580000000383722MICHAEL GERARD PELAYO OR                                10502
A0101403580000000383722KARLENE THERESE                                         20500
A0101403580000002265501IRINCO, RONALD ORBITA                                    0502
A0101403580511005290001ETHEL T. YUSON                                           0501
A0101403580511026941001CECILIA NARVAEZ Y DISENOS                               10502
A0101403580511026941001INTERIOR                                                20500
A0101403580511156550002SARITA S. GARRATON                                       0503
A0101403580511369144001ANDREW C. THAY OR                                       10503
A0101403580511369144001MOIRA O. THAY                                           20500
A0101403580511509576001EMMANUEL P. BONOAN                                       0505
A0101403580511642826001GEM P. TORRES                                            0501
A0101408530000000489670SANTOS, MAY FORTES                                       0501
A0101408530516471293001CALICDAN, ENRIQUE S. OR                                 10502
A0101408530516471293001CALICDAN, FLORIT                                        20500
A0101408530516488690001**********                                               0501
B0101403450521021821001********                                                 1603
B0101403450000001769902SACABEN, LOURDES IGNACIO DBU FOUR SQUARE                11601
B0101403450000001769902CARGO HANDLERS                                          21600
A0101403450521238628001**********                                               0501
A0101403450521239867001**********                                               0503
A0101403450521386450001********                                                 0501
A0101403450521753734001TAN, BENJAMIN MASA                                       0502
A0101403450521791474001********                                                 0501
A0101403610531762081001MIRANDA, SUSAN ESPINILI                                  0501
A0101404130000000485661MORALES, ANNALYN MOTOL                                   0504
A0101407720000000051174CAOILI, JANICE CAMPOS                                    0504
A0101407720602398462001GOMEZ, JOHN MANALO OR                                   10502
A0101407720602398462001GOMEZ, MA. PAZ C                                        20500
A0101412180000008320272GO, MARIA TERESA SELIM DBU                              10501
A0101412180000008320272XYMED MEDICAL ENTERPRISES                               20500
B0101412180000007360483********                                                 1601
A0101413440000004882960CRUZ, MARX CYRUS COBARRUBIAS                             0501
A0101413570000005743791MATT LESTER N. MATEL                                     0502
A0101413570000005867430*******************                                      0501
A0101413990000009469441DELA CRUZ JR., EDILBERTO PANGIL                          0501
A0101413990000001947128MARS STONE SUPPLY                                        0502
A0101414120000003584092MARCELO, CARLOS LEANDRO                                 10501
A0101414120000003584092CASTILLO                                                20500
A0101410300000011355478*****                                                    0503
A1301400210000005040555HAO, BELINDA VIQUIERA                                    0503
B1301400210682016750001JFL AGRI VENTURE SUPPLIES                                1606
A1301400340683361124002BUENAVENTURA, MYLINE SORIANO                             0502
A1701400230000005694142RACCA, SOCRATES CACAYURIN                                0502
B0101408240711032925001PARENTS ASSOCIATION OF DE LA SALLE ZOBEL                 1601
B0101408240711419112001POSITION 1 INC.                                          1601
A0101408240711441984001SANTOS, MARIA VIRGINIA QUESADA                           0501
B0101408240711492799001CENTER FOR INFECTIOUS DISEASE AND TRAVEL                11602
B0101408240711492799001MEDICINE-CIDTRAM                                        21600
B2801400230713045988001NGE TRADING                                              1602
A4101400420000003715724FLAVIANO, PERLITA                                        0501
A4101400420814758362001LACSA, ROSA SIMBALLA                                     0501
A4101400550000010508766MORILLO, YOLANDA MARTIN                                  0502
A4101400550000003267127NAVEA, A DBU VELJO ENTERPRISES                           0503
A0101404840000010969476FERNANDO, RONALD JOVINAL OR                             10501
A0101404840000010969476FERNANDO, MARILOU M.                                    20500
B0101406750852474662001SECURITY MARKETING & PEST MANAGEMENT                    11603
B0101406750852474662001INC.                                                    21600
A0101405070861478374086MARLYN C. GABEST                                         0502
