B0101400280051821100608**********                                               2005
A0101403580000004614022BANTILING, ELENITA PUNZALAN                              0502
B0101403580511005591001PUHUNAN INC.                                             1603
B0101403580511017465001PHILROS REALTY DEVELOPMENT CORPORATION                   1603
B0101403580511046747001HUDDLE ROOM MEDIA INC.                                   1602
A0101403580511150639001DAPHNE B. ROLDAN                                         0502
A0101403580000000016053MARIA CARMINA S. MESIAS OR                              10506
A0101403580000000016053MARIA CRISTINA S RIVERA                                 20500
B0101400280051821200608**********                                               2003
A0101407270162496878002ABIGAIL SULVITA                                          0502
A0101407270162515784002WINSTON Y. MABASA                                        0501
B0301400820000001554672TRUMPH MOTORCYCLE CORPORATION                            1601
A2401400180411525820001**********                                               0502
B0101410690000000710796WH & P REALTY CORP.                                      1601
B0101411370000000018146G.I. PHILIPPINES CORP.                                   1601
B0101400150061021914001E- SCRIBIR INC.                                          1605
B0101400150061024063001HONDA CARS MAKATI, INC.                                  1602
B0101400150061040542001MEGABUILD 101, INC.                                      1602
B0101400600071046603001JOESAFAT ANDRES DBU JOESAFAT GENERAL                    11603
B0101400600071046603001MERCHANDISE                                             21600
A0101400600000001335693ANDRES, JOENATHAN DBU JOENATHAN                         10506
A0101400600000001335693ANDRES GENERAL MERCHANDIS                               20500
A0101400600071233721001**********                                               0502
B0101405810072018018001AIMWAY PLASTIC & PRINTING CORP.                          1601
B0101405810072029570001PLASTIC CONSUMER CORPORATION                             1603
B0101405810072040421001SK-T COMPANY                                             1601
B0601400100081253610002NG, WILFREDO M. AND AQUINO, JANET B. AND                11601
B0601400100081253610002BUAN, ROLAND S.                                         21600
A0601400100081478374009JOWELL MIRANDA                                           0502
A0601400520000002085907BONDOC, AURORA LACANLALE                                 0501
B0601400520000000398614ENNEAD CORPORATION                                       1601
B0601400520000000398614ENNEAD CORPORATION                                       1601
A0101410850000000472359BUERANO JR., WILSON TEJADA                               0501
A0101400730111386485162DINA F. ALIBIO                                           0502
A0101400730111472699002LARGA, ANGELITA ZOLETA                                   0503
A0101413310000004735791DELA CRUZ, LAARNI VILLA                                  0501
A0101400440000002035154BARBAS, GLORIA FLORES                                    0501
A0101400440161520766074REMEDIOS C. USI                                          0501
A0101407270000000818326CATHERINE B. LOPEZ                                       0501
A0101407270000003253949GERONIMO, KEVIN RAE TAN                                  0501
A0101407270000003254106SIGUAN, PERLITA LABUTAP                                  0501
B0101407270162008543001INTERNATIONAL HEAVY EQUIPMENT                           11610
B0101407270162008543001CORPORATION                                             21600
B0101407270162019008001ORIENTAL & MOTOLITE MARKETING CORP.                      1610
B0101407270162019026001RAMCAR TECHNOLOGY, INCORPORATED                          1605
B0101407270162029071001M+E SALVALOSA & ASSOCIATES                               1601
B0101407270162041489001******                                                   1604
B0101407270162085922002SPIRO LU CLEMENTE AND                                   11603
B0101407270162085922002JOSEF CHUA LU                                           21600
A0101407270162086660001******                                                   0503
B0101401090171016138001BETTER HEARING PHILIPPINES, INC.                         1602
A0101401090171225244001TERESITA C. NABOR                                        0504
A0301400660000001113795VILLADAREZ, RICHARD RANIS                                0501
A3001400130230711844001BLACANO JR., ADOLFO LACORTE                              0501
A1301400470252599213001REYNALDO OR ROSARIO TERESITA OR                         10503
A1301400470252599213001RAYMOND JOSEPH ODULIO                                   20500
A1901400290000002337782REYNALDO JOVES GARCIA                                    0501
A1901400290261244345001FERNANDO C GO OR LUCY S GO                              10502
A1901400290261244345001OR ALDWIN S GO                                          20500
A1901400290261325140001CRESENCIANA P DE CASTRO                                  0501
A1901400290261530754004DESSIRE MALALUAN ONG                                     0501
A1901400290261585775001LITA CUETO MENDOZA OR DORIS                             10502
A1901400290261585775001MARIE MENDOZA MEDINA                                    20500
B0101406620273017284001ACCENT MICRO TECHNOLOGIES, INC.                          1605
B2001400290315081901001SILLIMAN UNIVERSITY                                      1650
A0101405650000002960810LIMCAOCO, RAFAEL ACUNA                                   0501
B0101405650000002960752SAVORICH CORPORATION                                     1601
B0101405650000004410039MIDNIGHTHOOCH INCORPORATED                               1602
A0101402510000003533060QUE, ALFREDO CHING                                       0502
A0101402510341196690001PATRICIA R. ALVIAR                                       0501
B0101402060351009762002NETERCO-PHILS., INC.                                     1605
A0101402060351324318001EUN SOO PARK                                             0502
B0101409050352043844001COLLEGE OF ARTS & SCIENCES OF ASIA & THE                11602
B0101409050352043844001PACIFIC - TAYTAY                                        21600
A0201401020000004398363AGURO, ROWELA AGRAMON                                    0501
A0101408370000003775100DRS. CECILE CASIMIRO OR MA. LUZ                         10502
A0101408370000003775100CASIMIRO-QUERUBIN                                       20500
B0101408790000003845749ZANCHARY'S TRADING                                       1602
A0101408400394478374087JANET L BASSIG                                           0501
B0101409210000002783384ELEVATE PHILIPPINES INC.                                 1602
A0301400820000001027923BANGOY, RICARDO A.                                       0501
A2401400180000002146152SANTIAGO, CLARITA CASTRO                                 0501
A2401400180411459505001MARK T. GO OR MADELINE Q. GO                             0502
A0101410140000000499065MORDIDO, LYN ROBELLES                                    0501
A3801400170490056258001VICAR ADVERTISING AND PROMOTION                          0502
A0101407430503478374017RIC L. ABADIANO                                          0502
B0101403580511023481001NOVAL AND BUNAG LAW OFFICE                               1605
A0101403580511150737004LUIS JUAN L. VIRATA JT                                   0510
A0101403580511151532002CYNTHIA R. MAMON                                         0506
A0101403580511576080001ANNA LIZA R ABRENICA OR                                 10503
A0101403580511576080001ROGER E. ABRENICA                                       20500
A0101403580511767569001EVA FEHDA Y. BORNILLA                                    0501
A0101403580511775206001NILA P. DACANAY                                          0501
A0101405940512452748001GALAMGAM, GARETTE LOVELL T.                             10505
A0101405940512452748001OR JANE GALAMGAM                                        20500
B0101405940512634885001TUGGYS TRAVEL INC.                                       1601
A0101408530516571877097JESUS R. LICUANAN                                        0501
A0101411790518055764266SANTOS, CATHERINE TEPACE                                 0501
B0101403450521011626001**********                                               1603
B0101403450521011744001CBK CONSTRUCTORA, INC.                                   1603
A0101403450521238119001**********                                               0502
A0101403450521241170001**********                                               0502
A0101404000000005039947HISUG, FEVE DE PADUA                                     0501
A0101410690000000061834IQBAL, BERNADETTE G.                                     0502
A0101410690000001284442ESPIRITU III, OSCAR GAYATIN DBU                         10505
A0101410690000001284442SUREGOLD FOOD PRODUCTS                                  20500
B0101404130000003105751GOLD NUGGETS HAULING AND TRUCKING CORP.                  1602
A0101407720602397129001SADILI, MA. ADELINA TOLENTINO                            0503
A0101407720602781245001PENASERADA, LEAH AMOROSO                                 0501
A0101406590662741385001AIDA OR NOEL OR MANOLETTE ROQUE                         10502
A0101406590662741385001OR RACHEL RODRIGUEZ                                     20500
A1301400210000000983768BULAONG, BERNARDITHA NOLASCO                             0501
A1301400340000000100374PRADO, ERLINDA SORIENTE                                  0501
A0101408240000000521902COMBALECER, LETICIA TORRES                               0501
B0101408240711492799002CENTER FOR INFECTIOUS DISEASE & TRAVEL                  11601
B0101408240711492799002MEDICINE, INC.                                          21600
A2801400100000000496839FEDINES, APRIL ANN DE VERA                               0501
A4101400260000000048877***                                                      0503
B4101400390813043887001R2J HARDWARE AND CONSTRUCTION SUPPLY                     1602
A4101400550815648589004GICA, JENNIFER ALONZO OR                                10501
A4101400550815648589004GICA, EZRA VAN ABRIGO                                   20500
A0101406750000000017461RICASA, BRIGIDA DBU MAGNETIC                            10510
A0101406750000000017461CATERING ENTERPR                                        20500
A0101406750852478374095LORENA N TANGPUZ                                         0501
A0101406750000002040260TOLENTINO, ROSALINA SABATER                              0501
A0101406750852654631001VEGA, JERRY OGENA                                        0503
A0101405070000002281961CAMARSE, RONNIE VITALICIO                                0501
B0101405070000001161324KEANO MANPOWER AGENCY INC.                               1602
B0101417680410472000011**********                                               2002
