B0101400150061821100608**********                                               2010
B0101400150061821100608**********                                               2010
B0101400150061821100608**********                                               2010
B0101400150061821100608**********                                               2010
B0101400150061821100608**********                                               2010
B0101400150061821100608**********                                               2010
B0101402930381821100608**********                                               2002
B1401400110492821100608**********                                               2003
B0301400950196821100608**********                                               2004
B0301400950196821100608**********                                               2004
B0301400950196821100608**********                                               2004
B0301400950196821100608**********                                               2004
B0301400950196821100608**********                                               2004
B0301400950196821100608**********                                               2004
A0101412920000005354296ABROGENA, SHARON LOPEZ                                   0501
A1101400120000000652511BASTIAS, ROSANNA QUISUMBING                              0504
A1101400120000003197175LAGRIMAS, DENNIS CILLO                                   0501
B1101400120000000653161PERPETUAL HELP MULTI-PURPOSE COOPERATIVE                 1605
B0101409050000000258582BITUMEN GLOBAL ALLIANZ INC.                              1603
A0301400820000002106241JOVELYN LANGTHORNE                                       0501
A0301400820000005991564MELINITA ZAMORA                                          0501
A0101412050000000043416********                                                 0501
A0101400860011384021001**********                                               0503
A0101400860011452130001**********                                               0502
A0101400860011452222001**********                                               0505
A0101400860011790112001HUANG, QINGNONG                                          0504
B0101400860011799224001**********                                               1601
A0101401250021180208001GERVASIO, REMEDIOS SAMONTE                               0503
B0101400150061010810001TREE LAND DEVELOPMENT & RESOURCES C                      1601
B0101400150061010995001REFERENCE DEVELOPMENT CORPORATION                        1601
B0101400150061011056001MULTINATURAL RESOURCES AND                               1601
A0101400150061383637001DE GUZMAN, CATHERINE YANG                                0501
B0101400600071011421002******                                                   1602
A0601400100081254197001RAUL G. NARCISO OR MARIA                                10501
A0601400100081254197001ROSEANNA S. NARC                                        20500
A0601400100081357036001MUTSUJI, LEONORA MANGUERA                                0502
B0601400360000003186849TSS TRIXAN SUPPORT SERVICES                              1603
A0601400360083751281001MALLARI, JAMES ROBERT SARMIENTO                          0503
A0101410850000000259938GORDON, ANNE MARIE CUNADA                                0512
B0101410850000000005676LIKAS SHIP AGENCY INC.                                   1605
A0101410850000003102169NABONG, E DBU GED ELECTRICAL                            10501
A0101410850000003102169MARINE SERVICES                                         20500
A0101410850000003503493***********                                              0502
A0101410850109075882001DIONISIO, SUSANA REYES                                   0501
A0101400730000002882422DECIAR, ROANNE KAYE OLVIDA                              10501
A0101400730000002882422OR DECIAR, RUTHER O.                                    20500
A0101400730000002882411SANTOS, NERISSA BAUTISTA                                 0502
A0101401960000002331813LADARAN, LANI VILLANUEVA                                 0501
A0101401960000005392510***********                                              0501
B0101401960121011793001CAPITOL STATIONERY MFG. CO., INC.                        1606
A0101401960121096152001***************                                          0502
A0101412630000009425281**********                                               0503
A0101401830141069455001AGUILOS, ARNULFO STORM DBU MMRA                         10501
A0101401830141069455001CONSTRUCTION SERVICES                                   20500
A7201400170000000040575ELCAMEL, BELEN PEDROZA                                   0502
B5001400170000000045025S. A. MALON LENDING CORP.                                1602
A0101412920000011166511FLORENDO, EMMANUEL CARBUNGCO                             0502
A0101407270000000818360EMMANUEL E. CABALTIERRA                                  0501
A0101407270000004915908LORENZO, TRICIA MARIE SOLANOY                            0501
B0101407270162036585001STA. MARIA INDUSTRIAL PARK CORPORATION                   1610
B0101407270162036585002STA. MARIA INDUSTRIAL PARK CORPORATION                   1610
A0101401090171198373001MARIVIC G. USITA                                         0501
A0301400790000002301393BARCELONA, JANET TIZON                                   0501
A0301400950000008869065MALOMPONG, DONNA MAY TABUCAN                             0502
B0301400950000006054133DAVAO MASONIC CENTER FOUNDATION                          1601
B0301400950000002115731MINDANAONE EXPERTS DISTRIBUTORS, INC.                    1602
A0301400950000002251952**********                                               0506
B0101401380201023821001DAIRO AIRE CORPORATION                                   1603
B0101401380201042553001MUSTANG SECURITY AGENCY, INC.                            1605
A0101410720000009157035LEE, HILDA YATCO                                         0504
A3101400740000009424073DE CHAVEZ, CAROLINA CARPIO                               0502
A3101400870000003515502LLEGADO, GREGORIO                                        0501
A1001400190231520766011PETALVER, RICKY FLORENTINO                               0501
A1001400190231520766085OBSIOMA, MADELYN A.                                      0501
A1001400190000000124803FANTONIAL, MERILY H.                                     0501
A1001400350000007762458DARIMBANG, LOURDES CANDY DE LA                          10501
A1001400350000007762458ROSA                                                    20500
A1001400350233478374001JUNIO, ROGELIA A.                                        0501
B1001400480000004097103TIU, LEMUEL YAP DBU LERETTE TRUCKING                    11601
B1001400480000004097103SERVICES                                                21600
B1001400480000008501808ALFRA FOODS CORP.                                        1605
A1301400470252634995001LOUISE L. ANG AND LOED L. ANG                            0510
A1301400760000005990065STA. ANA, CLARISSA PADRE JUAN                            0502
A1901400290000011534313DRAGONE, MARICEL MANIGBAS                                0501
A1901400290261567865001ALEX IAN SISON DE LA CRUZ                                0501
B0101406620273012462006COL FINANCIAL GROUP, INC.                                1610
A0101406620273071783001**********                                               0501
B0101408660274046031001INTERNATIONAL SPECIALTY RETAILERS, INC.                  1603
B0101408660274046031001INTERNATIONAL SPECIALTY RETAILERS, INC.                  1603
B0101408660274046032001INTERNATIONAL SPECIALTY WEAR, INC.                       1603
B0101412470000003847490DOMINICAN SCHOOL (MANILA), INC.                          1615
A2601400270000002312221BETTY D. ABUAN JR. OR                                   10510
A2601400270000002312221JOCELYN C. ABUAN                                        20500
A1101400120000006186741LATORRE, NOEL TAN DBU MEAT D                            10505
A1101400120000006186741SHRIMP RESTAURANT                                       20500
A1101400120000006186770LATORRE, NOEL TAN DBU SKYE                              10505
A1101400120000006186770COFFEE AND WINE BAR                                     20500
A1101400120000006186570JACER, MARICHU FUENTES                                   0501
A1101400120000006186650INGAO, RONA ABANAG                                       0503
B2001400290000007832400RITESTREET LENDING CORPORATION                           1602
A0101405650000005284373DE LEON, ALEXANDRA ANDOLONG                              0505
B0101405650322024999001SUPERIOR MAINTENANCE SERVICES, INC.                      1650
A0101405650322478374002MAVIS W. PAREJA                                          0502
A0101402510341068838001*********                                                0502
B0101402060000010846672WBE SNAPPY LOGISTICS INC.                                1605
A0101409050000006986727JAVIER, JOY SOLOMON                                      0505
A0101409050352022592001IRRIGATION ENTERPRISES                                   0502
B0201400760000007134756DE LOS SANTOS,ROGELIO DBU HOUSING SUPPLY                11605
B0201400760000007134756OR JANE DE LOS S                                        21600
A0201400760374625964001SOLON, ENRICO MENDOZA                                    0501
A0201400760000008869845SOLON, ENRICO MENDOZA OR                                10501
A0201400760000008869845MEDINA, ADELE ME                                        20500
A0201400920375521457001VILLAR, BERNARDO N. OR                                  10503
A0201400920375521457001VILLAR, CARMELA                                         20500
A0201400920375770629001GOMEZ, CHRISTOPHER BAYLON                                0501
A0201400890000007668548IGNACIO, ANNA LOURDES LEGARIO                            0501
A0201400890376534224001PAYOT, CARLOS COPERNICUS OR                             10502
A0201400890376534224001PAYOT, ANA ISABE                                        20500
B0201401020000002250595********                                                 1602
B0201401020000002250602********                                                 1603
B0201401020000007458195TITCO, MA. CHERIELENE S. DBU WELLSTUFF                  11602
B0201401020000007458195TRADERS                                                 21600
A0101402930381205350002MARIANO BONDOC/LOURDES MILADEL/                         10505
A0101402930381205350002JUAN MIGUEL BONDOC                                      20500
A0101408370382205224001NORMAN S. BUSTOS, M.D.                                   0503
A0101408370382416284001DR. BERNARDITA O. POLICARPIO OR                         10502
A0101408370382416284001DR. REUBEN D. POLICARPIO                                20500
A0101408370382497608001DR. AZENETTE LACUNA-MENDOZA OR                          10501
A0101408370382497608001TRISTAN PHILIP MENDOZA                                  20500
A0101405490000000444477MARIA TERESINA G. MESINA OR                             10504
A0101405490000000444477ALFONSO E. MESIN                                        20500
A0101405490392478374008MARGARITA R. CIELO                                       0502
A0101405490392716223001MARYVIL C. ANDAYA                                        0501
A0101408400394030081001XPRINT CO.                                               0505
A0101408400000001213665RUFO, MARLON VENTURA                                    10501
A0101408400000001213665OR RUFO, MARLEA BAUAG                                   20500
A0101409180000003866677WITTIG, LARS BENDSON                                     0501
A0101409180000004375382TAN, MARK HANSLEY                                        0501
B0101412210000007251669PABAZA IMPORT & EXPORT INC.                              1603
A0301400820000006542812MILAN, JANICE CALIP                                      0502
B5501400120000002949735VALEENLAND REALTY CORPORATION DBU                        1602
B2401400180000007476842TOYOTA GENERAL SANTOS INC.                               1602
A2401400180411572205001EBRAHIM, MA. AMOR ISHAD                                  0501
A1201400150421252693002ALEJANDRIA, ARCELY ALABADO OR                           10503
A1201400150421252693002ALEJANDRIA, ARMAND                                      20500
A0901400220000000425045LOZADA, ELIZABETH GO                                     0501
A0101403030441300096001**********                                               0501
A0101406330472027958001A. ANOLIN ENTERPRISES                                    0502
A0101406330000000162490TARP INK ENTERPRISES                                     0502
A0101406330000009181493WHITE DOVE PRINT HAUZ                                    0505
A0501400170481319119001ENOCH O. TAN OR                                         10501
A0501400170481319119001GWENDOLYN S. TAN                                        20500
A1901400320000009104307DE CHAVEZ, JOSEPHINE BORBON                              0501
A1401400110492018536001MANDERANA BUILDERS AND ENG'G                            10501
A1401400110492018536001SERVICES                                                20500
A1401400110492023002001THESAURUS DRUGSTORE & GENERAL                           10505
A1401400110492023002001MERCHANDISE                                             20500
B1401400110492046339002******                                                   1620
B1401400110000000167457SUPER MAK FOOD CORPORATION                               1605
A1401400110492069392001TAN, K DBU GRANADILLAS PASSIFLO                          0501
A1401400110492300971001WILFREDO J. LAVAREZ                                      0501
A0101403580000005961873NOLASCO, GIL DBU FAR EAST                               10502
A0101403580000005961873INDUSTRIAL SALES                                        20500
A0101403580511156576001NIDAN E. ALBA                                            0504
A0101408530000001268571ANGELO L. REYES                                          0501
A0101403450521239801001CHARLIE S. TAN OR                                       10505
A0101403450521239801001MYRABELLE C. TAN                                        20500
A0101403450521357926001**********                                               0501
A0101403610000011867846SARABIA, JONALYN LIZA                                    0501
A0101403610000001174954HERNAEZ, JOEL A.                                         0502
B0101403610000006637114RD PAWNSHOP, INC.                                        1603
A0101403610531370621001KUMAR, MANISH                                            0502
A0101404130601297269002ARMAN M. MARTINEZ                                        0502
A0101407720602326333001SATURNINO PEREZ JAVIER                                   0502
A0101407720602546061002BURLAOS, MARISTELA MANGASANG                             0501
B0101412180000000038020HYUNDAI ASIA RESOURCES, INC.                             1605
B0101404260611037884001EJFA PROFESSIONAL DEVELOPMENT CORP.                      1605
B0101404260000000156990RB HORTALEZA VACIADOR AND BEAUTY SU                      1602
A0101409890649044793001**********                                               0501
A0101409920000005460771MEMBERS OF NATASHA, SHOECAT INC                         10501
A0101409920000005460771ALCANTARA, CORAZON                                      20500
A0101413570000007307902ANNA RITA GENEROSO                                       0501
A0101413570000009426159WERNLI, MA. LISSA CHERYL BULLEN                          0502
A0101413570656057648190JENNYMAR A. ORNEDO                                       0501
A0101413990000003141157**********                                               0503
B0101406590662045169001ANG LABAN NG INDIGINONG FILIPINO (ALIF)                  1605
A1301400210682245509001DR. DANILO SACDALAN OR                                  10502
A1301400210682245509001  DRA. CECILIA S                                        20500
A1301400210000001206871FRIAS, EDGARDO PARENA                                    0501
A1301400210682676826001ANDREW I GALINDON                                        0501
A1301400500684614519001TEOFISTA V. RODRIGUEZ OR                                10501
A1301400500684614519001EDWIN V. RODRIGU                                        20500
A2801400100712494193001DIANO, BLESILDA MISTICA                                  0501
A4101400260000006043250BENIGAY, ROEL LUMINGKIT DBU                             10502
A4101400260000006043250FIRST PHOENIX INDUSTRIAL                                20500
A4101400390813248893002MERCY O. ASEGURADO                                       0504
A4101400420000008280535FRIAL, RICKY TITO QUITEVIS DBU                           0501
A4101400420814298552007NOEMI S. GARCIA                                          0502
A4101400420000004847941CARTAGENA, CRISTINA MELLENDRES                           0501
A0101412340000002900283MARIFE B. VIADO                                          0501
A0101406750000001491830FORTIFAES, CHARISSE ANNE                                10501
A0101406750000001491830CARITOS                                                 20500
A0101405070000003439683PANINGBATAN, MARIA APRIL L DBU                          10502
A0101405070000003439683MAKI BELA TRUCKING SERVIC                               20500
A0101413860000002314227BONCAVIL, CLARISSA MORRE                                 0501
A0601400230000006243045PALOMO, JEROME BUSTOS                                    0503
