B2401400180411821100608**********                                               2010
A0101402930381207563001ELENITA B. GONZALES OR                                  10501
A0101402930381207563001EMETERIO D. GONZ                                        20500
A0101408370382422891001DR. MA. NATHALIA N. MONTEMAYOR                           0502
A0101405810000002314643XIE, JIABIN                                              0502
A0301400950000008000660PE BENITO, HAZEL ANN NERI                                0502
A0101408370382372061001DR. ELSA S. DIONISIO                                     0502
A0101403580511770331001MARISTELLA B. CLAUDIO                                    0501
A4101400390813043811001OXY CLEAR WATER FILTRATION AND                          10501
A4101400390813043811001REFILLING STATIO                                        20500
A4101400390000000379271LIONGSON, MARIA ERIKA GONO                               0501
A4101400390000000379204ARIAS, RIZA BULACLAC                                     0501
A0101400860011086423001**********                                               0502
A0101400860011410778002**********                                               0510
A0101400860011501216001**********                                               0503
A0101411370000002269343**********                                               0501
A0101411370000005524670***                                                      0501
B0101400150061017638003ITG REVOLVING FUND                                       1601
B0101400150061048055001HOME DEVELOPMENT MUTUAL FUND                             1601
A0101400150061150547001ANG, JONATHAN ONG                                        0501
A0101400600071233729001**********                                               0501
B0601400100081013158001TRUST INTERNATIONAL PAPER CORPORATION                    1610
B0601400100081042835001FORTUNE HONGKONG SEAFOOD RESTAURANT                     11610
B0601400100081042835001(NEWSTREET)                                             21600
A0101413730000007317224*******************************                          0501
A0101410850109053560002HERNANDEZ, JUNE JT DBU JUNE AND                         10501
A0101410850109053560002YVETTE TRUCKING                                         20500
A0101410850000006560001VELASQUEZ, DBU R.M. VELASQUEZ                           10510
A0101410850000006560001ENTERPRISES                                             20500
A0101400730000009156481BADOL, VALERIE                                           0501
B0101400730000008477863********                                                 1605
A0101412630000000045281MAPALAD, RAQUEL HERNANDEZ                                0501
B0101412630132047758001MAJOR HOMES, INC.                                        1605
B0101413310000000040024LIBERTAD TRADING CORPORATION                             1601
A0101401830000001281910DE GUZMAN, CONCEPCION FRANCISCO                          0501
A0101400440000001439863MARY JONEN T. GUILLERMO                                  0501
A0101400440161186930002LAURO M. AMANTE                                          0501
A0101400440161478374144CELERINA M. MARASIGAN                                    0501
A0101400440161511479003SUTICO C. MENDOZA                                        0501
A0101401090171061610001VESTRA MARKETING                                         0501
B0101401090171065066001C & E PUBLISHING, INC.                                   1601
A0101401090171413170001CECILIA OR MARIA FLORIZA                                10501
A0101401090171413170001BUENAFLOR                                               20500
B0301400950000002115840DAVAO BARRIO BISTRO, INC.                                1604
B0101410720653035483001GERMALIN ENTERPRISES, INCORPORATED                       1605
A0101413600000005355153MUHAMMAD AFZAL HUSSAIN                                   0505
A3101400870225056008001MANAIG, A DBU ASSETS EYE                                10501
A3101400870225056008001MANAGEMENT SERVICES                                     20500
A1001400350000003867232MIRABUENO, RAYMUND BUSTAMANTE                            0501
B0101401670000004588412ASIAN PERSONAL CARE GEN. SERVICES I                      1604
A0101406620000005394709LUISKING, RAMON RICHARD DEL ROS                          0502
A0101406620273035687001GOLDRICH MANAGEMENT SERVICES                             0503
B0101408660000001940610WESTMINN CONSTRUCTION AND DEVELOPME                      1602
A0101408660000006296633TAMODRA, JEJOMA ESTOYA                                   0501
A0101412470000000853787**********                                               0501
B0101400570281041722001DALLAS AUTO SERVICE CENTER, INC.                         1610
A0101400570281388539035MYRA M. RAMOS                                            0501
A0501400200000004456968******                                                   0510
A1101400120000001920496ADONIS, LILIAN TOLIBAS                                   0502
A1101400120313535537001COLLERA, LEONOR M. OR                                   10504
A1101400120313535537001COLLERA JR., AGU                                        20500
B1101400120313543970001VILLEGAS,VICENTE OR VILLEGAS,ROBERTA OR                 11602
B1101400120313543970001VILLEGAS,MALCOLM                                        21600
A1101400120000000652540VILLEGAS, MALCOLM JAMES P. OR                           10503
A1101400120000000652540VILLEGAS, ALVIN                                         20500
A6601400120314686638001ROALLOS, ALICE CUEVAS                                    0503
B01014023503210067510010SM SHIPPING PHILS., INC.                                1610
A0201400760000000223189VAN SPALL, MONIQUE ALEJANDRINO                           0501
A0201400760000002309684********                                                 0502
B0201400760374031471001PHILPACIFIC INSURANCE BROKERS & MANAGERS                11610
B0201400760374031471001INC.                                                    21600
A0101402930000007031261TUMANDA, EMMANUEL ALADIN DAMPOG                          0501
A0101408370382436793001DR. ESTHER FREDELYN M. TOMAS                             0502
A0101405490000005566452BENDANA, STEFANIE ANN MATIONG                            0501
B0101405490000006214262IZAKAYA DEN FOOD CORPORATION DOING                       1602
A0101409210000007763002JERUSALEM, GRACE FARINAS                                 0501
A5501400120000006976881MANGALUS, LOUIE FAUNE                                    0501
A2401400180000007031541JUVINREY TRADERS                                         0501
A0901400220000000888042**********                                               0503
A0101403030441240375001**********                                               0502
B0101406330472040053001KUS OFFICE SYSTEM MFG. CORP.                             1602
A0101406330472215905001MARCELO OR ERLINDA DELAS ARMAS                           0503
A0101406330000000451329LANTO, PEDRO SILVA                                       0501
A0101412760000002306229DE GUZMAN, DUSTIN EWALD DANTES                           0501
A3801400170000002302761NANCY M VINAS                                            0502
A1401400110492478374017JOSEPHINE ECLAVEA                                        0501
B1401400110492500431001STRONG BRIDGES POULTRY FARM INC.                         1603
A0101407430503375315003LILIAN LIZA C. MACATO                                    0501
A0101408110000008396692AQUINO, MANUEL MANALILI                                  0501
A0101411790518055815116RIC ALIMAN ROSANTO                                       0501
A0101412050000005330632CORONEL, JOAN DUTALLAS OR                               10501
A0101412050000005330632CORONEL,CRISTINO BIGTASIN                               20500
A2201400250000003316492******                                                   0502
B0101404130601025459001RAMOS, RONALDO BALILO DBU ERICMAN                       11602
B0101404130601025459001PRINTING SERVICE                                        21600
B0101407720000000885770LARRS SKIN SOLUTIONS, INC                                1610
B0101407720000004959931PERFECT SKIN AND BEAUTY SOLUTIONS INC.                   1605
A0101407720602286255002**********                                               0502
A0101407720602366390001CABRERA, GRACE LUNA                                      0510
B0101412180000007360472FOREXWORLD PHILIPPINES, INC.                             1610
A0101407690652028378002HIGHER GROUND FOOD STATION                               0502
B0101407690652042938001SIGNWOOD HARDWARE & LUMBER SUPPLY                        1603
A0101407690652525001029TIRSA QUINTERO - DEALERS OF                             10501
A0101407690652525001029SHOECAT INC.                                            20500
A0101413440000000702281JIMENEZ, LETICIA E. OR                                  10501
A0101413440000000702281JIMENEZ, ARTURO                                         20500
A0101413440000006680777TELEN, MARIA REGINA GANA                                 0502
A1301400210000000983815FELICITAS S SUNGA                                        0503
A1301400500000007096600SANTOS, DARWIN SAN PEDRO OR                             10501
A1301400500000007096600SANTOS, CARLA MAY CRUZ                                  20500
A1701400230000002347446RIA, JENNIFER VICENTE                                    0502
A1701400230000005694142RACCA, SOCRATES CACAYURIN                                0503
A0101408240000000005461SANCHEZ, MARIANO ALTOBAR                                 0503
B0101408240711029537001ED LINK FOUNDATION, INC.                                 1602
A4101400260000006043061DEPANO, ABEL DBU EXCELLENT                              10503
A4101400260000006043061DEPANO DENTAL CL                                        20500
A4101400390000001404266SOLAS, SAMARITAN CATARATA                                0502
A4101400550000000315142JMBR TRADING                                             0501
A0101412340000003341682JOSEPHINE PAULA FE A. CARINO                             0501
B0101412340000000031012MALATE CONSTRUCTION AND DEVELOPMENT                     11620
B0101412340000000031012CORPORATION                                             21600
A0101404840851046725013MARY JANE A. DE GUIA                                     0501
A0101404840851212259001ANORMA, MELCHOR R.                                       0501
A0101405070000006006097CANTILLO, ALDWIN C. DBU ALDWIN                          10502
A0101405070000006006097C. CANTILLO LOGISTICS SER                               20500
A0101405070861321046001MARK LAURENCE V. LEBRIA OR                              10503
A0101405070861321046001GERLY D.C. LEBRIA                                       20500
A0101405070861321046002GERLY LEBRIA OR                                         10501
A0101405070861321046002MARK LAURENCE LEBRIA                                    20500
B0101413860000001767815CWI WAREHOUSING & LOGISTICS CORPORA                      1603
