A0101413150000005319262*********                                                0502
A0101413150000006294200LIU, HUAN                                                0502
B0101402060351018216001RGC EMPLOYEES SAVINGS & LOAN ASSOCIATION                11601
B0101402060351018216001INC.                                                    21600
A0101402060351217443002PEREZ, DENNIS ALBERTO                                    0501
A0101402060351211701003MA. DOLORES C. DANNUG OR                                10503
A0101402060351211701003EDNA S. CABALDE                                         20500
A0601400360000011032218AGANON, FERDINAND PEREZ                                  0501
A0101405650000010318953SANTOS, JULY SAQUIN OR                                  10502
A0101405650000010318953SANTOS, SAMMY SAN JOSE                                  20500
A0101412210000005302903PIMENTEL, RYAN ARENAS OR                                10501
A0101412210000005302903TIANGSON, FATIMA AGUEDA A                               20500
A2401400180411683511001AGUINALDO, BARBETTE BALABA OR                           10501
A2401400180411683511001AGUINALDO, ARNOL                                        20500
A2201400250561255010005EMMANUEL D. PASCUAL                                      0502
A2201400250561255737002WILFREDO Y. SAWIT                                       10501
A2201400250561255737002OR JOSEFINA B. SAWIT                                    20500
A0101412180603792162001FUENTES, ROLANDO BINARAO                                 0501
A0101400860011477042001**********                                               0503
A0101401250000000522438MANINGKAL, JOY DE JESUS                                  0501
A0101401250021401825001CHUA, REYNALDO MAGNO OR                                 10506
A0101401250021401825001CHUA, EMMA GESLANI                                      20500
A0101411370000005524403GAURANO, RIO LAO OR                                     10501
A0101411370000005524403GAURANO, RAICEPH APUADA                                 20500
A0101411370000002269496MABALO, CHRISLYNE RIVERA                                 0501
B0101400150061010924001TRAINERS OF OFFICE PROFESSIONALS INC.                    1601
B0101400150061010961001NORTHWOOD RESOURCES CORPORATION                          1601
A0101400150061231736002PUNO, CARMELITA DE MESA OR                              10501
A0101400150061231736002SANTIAGO, MA. SO                                        20500
A0101400150061271857001JEGIE PEREDA OR                                         10503
A0101400150061271857001EDNA PEREDA                                             20500
A0101400150061329718001ZABALETA JR., JOSE MARIA PONS                           10501
A0101400150061329718001OR ZABALETA, JOS                                        20500
A0101400600000002335720LI, MAOHUA                                               0502
B0101400600071040008001*******                                                  1601
B0101405810072083905001HONG, HAN MING                                           1601
A0601400100000006334163CALARA, RYAN COLUMBRILLO                                 0501
B0601400360000008477272BPOTEL COM INC.                                          1602
A0101413730000007317291************                                             0502
A0101410850000000778678AHING, SHIELA MARY ANG                                   0505
A0101410560000000590556GUTIERREZ, DOMINICA DALISAY                              0501
A0101400730000011264310URBANO III, JEAN ALFRED                                 10505
A0101400730000011264310ESCALANTE                                               20500
A0101406040112173363001RAUL D. PEIG OR EMILIE C. PEIG                           0502
B0101413150000005944129******                                                   1601
B0101401830141056446001GADDI DBU GREENTEK ENVIRONMENTAL ENG.                   11604
B0101401830141056446001SERVICES JT                                             21600
B0101401830141060435001AMBM ELECTRICAL SUPPLY AND                              11604
B0101401830141060435001SERVICES                                                21600
A0101401830141259521001JIMMY N. YANG                                           10501
A0101401830141259521001SONLY PRINTING PRESS                                    20500
A0101401830141382810001MARTIN, KATHERINE SERAPIO                                0501
A0101401090171279624001VASQUEZ, ROSS DIZON                                      0501
A0101401090171467544001ANDREI DOMINIC A. AVELLANOSA                            10501
A0101401090171467544001OR ANGEL MA. S. AMPIL                                   20500
A0301400660000000048360DOMINGO, LAARNI GARCIA                                   0501
B0301400660194014152088*****                                                    1602
A0101401380000002297492VICENTE, JANINA TUBAN                                    0501
A0101413020000000056722CASTELL, CHRISTOPHER M. OR                              10502
A0101413020000000056722CASTELL, MARIA M                                        20500
B0101413600000000206926GPRS-UNIFIED PRODUCTS                                   11601
B0101413600000000206926AND SERVICES INC                                        21600
A3101400160221419880001ROWENA B. SUN                                            0502
A1001400190000002170736MARABE, RIKKA LA VINA AND                               10505
A1001400190000002170736LA VINA, IRISH P                                        20500
B1001400480000011807931UMAHAG, ROY VALLAR AND LARGO, GERALDINE                 11601
B1001400480000011807931HASIL                                                   21600
A1901400290000011805713BENITO NOEL MAGCAWAS RIVERA                              0501
A0101401670000000237603BELEN, PAULO ENRICO PAGDANGANAN                          0503
B0101406620273022309001VISOR RESOURCES, INC.                                    1606
B0101406620000009695389LINKWISE TECHNOLOGY PHILIPPINES INC                      1601
A0101400570281344782001LYDE ALDAY-MAGPANTAY, M.D.                               0501
A2601400270000000561573RUFINO M. BUTAC JR. OR                                  10502
A2601400270000000561573MELISSA B. BUTAC                                        20500
B0801400160000001289881STARK PUBLISHING                                         1603
B0801400160311077458001FUTURETRUST FINANCE CORPORATION                          1603
B1101400120000000653138THE BAGACAY ROYAL THREE CORPORATION                      1601
A1101400120000006186478BOLECHE, MERLINE BANDALA                                 0502
A0101402350000005644691SANDOVAL, MONETTE ANDRADA                                0501
A0101405650000000080082TAZON, EDELYN ANIVES                                     0501
B0101405650000000772652MARY MOUNT SCHOOL                                        1605
A0101405650322329598001WARZECHA, JULIET BERONDO                                 0501
B0101402060351022399001GOLDEN POT N' PAN FOOD SERVICES                         11601
B0101402060351022399001COMPANY                                                 21600
B0101402060351417579001CLAVERIA TREE NURSERY, INC.                              1601
B0201400890376034920002CREAM N BAKE (CAPITOL)                                   1605
B0201400890376034920005CREAM N BAKE CAKES & PASTRIES                            1605
B0201400890376052652001MANSON TRADING                                           1601
A0101408370382419166001JOHN JERUSALEM A. TIONGSON M.D.                          0510
A0101411660000010562006VARGAS, RAUL ESPANOL                                     0502
A0101402770000000361011JUCUTAN, DIONISIO CABLAS OR                             10501
A0101402770000000361011JUCUTAN, VIENNA PELECIA                                 20500
B0101402770391009532001RIDGEMONT HOMEOWNERS ASSN., INC.                         1603
A0101405490392032343001TWIN PEAK BRASSIERES                                    10504
A0101405490392032343001MANUFACTURING IN                                        20500
A0101405490000000126463LORNA V. TUGADE                                          0502
A0101405490000005566470MERCENE, ERWIN SALAZAR                                   0501
A0101408400000011077626PALUSTRE, BEVERLY JANDUSAY                               0502
A0101408950000006424819SUBIDO, NORMA LICUDINE                                   0501
A5501400120000000046882CHIU, VALENTIN & JULIA EILEEN &                         10504
A5501400120000000046882CHRISTIAN & CHRI                                        20500
A5501400120000005492184FRESCO, ARLENE LOZADA                                    0503
A5501400120000005492355FRESCO, ARLENE LOZADA                                    0503
A2401400180411304827001JONATHAN ERWIN VILLASIS OR                              10501
A2401400180411304827001DORIZZA VILLASIS                                        20500
A1201400150421068393001DIAZ, MARA ALOHA CUENCA DBU                             10501
A1201400150421068393001ALOHA ENTERPRISES                                       20500
A0101403030441289229002**********                                               0501
A0101403030441513973001GINA Y. TECSON                                           0502
B0101412890000003727888MIN SHIANG CORP                                          1602
B0101412890000003727913ADD RESEARCH PAINTS & CHEMICALS , INC.                   1601
B0101406330000000432733PRECISION CRESTEC, INC.                                  1605
A0101406330472428084001DARWIN JEBB YLO OR MARILEN YLO                           0502
B0101410140000005945173AMOS, RAMIL ENRIQUEZ DBU MATRIX REA                      1601
A0101412760000000528205SARAH JAYNE A. SANCHEZ                                   0501
A0101412760000000528205SARAH JAYNE A. SANCHEZ                                   0502
A0501400170000002354532FERNANDEZ, ALIPIO SERAFIN DAVID                          0501
A0501400170000002354510BERMUDEZ, ELSIE MALAPIRA OR                             10502
A0501400170000002354510LEIZA JR., JUANI                                        20500
A1401400110000010622652TAN, FERNANDO LIM                                        0501
A0701400260000006215641LANUZA, ROSE ANN TOLENTINO                               0501
B0101407430503036696001SKY AVIATION LEARNING CENTER, INC.                       1603
B0101407430000006027743ERNESTO PRACALE JR OR SUSANA STO DOMINGO                11605
B0101407430000006027743DBU WIKLIN INDUS                                        21600
A0101403580511388107001ANTONIO G. PEDRO OR                                     10501
A0101403580511388107001FELISA C. PEDRO                                         20500
A0101405940000007540721SUMUGAT, MARILOU TARROJA                                 0501
A0101408530000001268548MOY, MARIA LOURDES MOSSESGELD                            0503
A0101411790000011045791VILLARUEL, MARY GRACE LOPEZ                              0501
A0101411790000011805202VIRGO, MARY JANE KO                                      0501
A0101411790518055764185FERDAUSSEYA S. JUMAT                                     0501
B0101411790000004808082PDB PROPERTIES, INC.                                     1605
B0101403610000003053163SGP CHAIN SOLUTIONS, INC.                                1602
A0101407720000011666927MELCHOR S. CASTRO                                        0501
A0101407720000004664120BATULAN, LEONEIL SANICO                                  0502
A0101407720602161863003ROBERTO K. MACASAET OR                                  10502
A0101407720602161863003VIRGINIA M. RAFAEL                                      20500
A0101407720602165250004CAROLINA ABESAMIS-DRILON OR                             10503
A0101407720602165250004CARISSE DIANA DRILON                                    20500
A0101407720602165250005CAROLINA ABESAMIS-DRILON OR                             10505
A0101407720602165250005CHRISTIAN DRILON                                        20500
A0101407720602298846008LAMBERTO U. OCAMPO OR                                   10501
A0101407720602298846008ANNABELLE SARMIENTO                                     20500
A0101407720602472259001CALILONG, LORELEI IRA                                    0501
A0101407720602543599001PIZARRO, MARILOU DE GUZMAN                               0501
A0101404260611478374109ANGELITA SIQUIJOR                                        0501
A0101409890000006277570LAGUYO, VICTOR TUBERA                                    0501
A0101411530000001393722**********                                               0501
A0101413990657061436001BIRR GLASS, ALUMINUM AND UPVC                           10502
A0101413990657061436001TRADING                                                 20500
A0101413990000000206033MARITES R. CONANAN                                       0502
A0101414120000000649025GERNESON ESPENORIO OR                                   10502
A0101414120000000649025RHEA ESPENORIO                                          20500
A0101414120000003190890CRISTE, RODELLA VILLAFLOR                                0501
A0101410300000007613778HABANA, ANTONIO DEL ROSARIO                              0501
A0101410300663737649001ERLINDA G SANTOS                                         0502
A1301400340683534881002ABREU, KARLO MAXIMO                                      0502
A1301400340683542735002BIUNAS, REMEDIOS GREGORIO                                0502
A1301400500000009723213VILLACORTA, MARWIN MALDICINO                             0503
A1701400230000004469672ALCID, GRACE LIM                                         0503
B1701400230000008555022KOOKEE HOUSE, INC.                                       1610
A0101408240000010148113ENRIQUEZ, JOSE MARIA ALVARO                             10502
A0101408240000010148113ADAP                                                    20500
B0101408240000000832713LAS TUAZON AND SONS REALTY, INC.                         1601
A0101408240711375240001**********                                               0505
A0101408240711560372001DEL ROSARIO, KATRINA OR FRANCO                          10501
A0101408240711560372001OR TERESA                                               20500
A2801400230000001734761FERMIDA CONSTRUCTION SERVICES                           10501
A2801400230000001734761AND SUPPLIES                                            20500
A4101400260000000048742EUSEBIO, ANTHONY DBU                                    10501
A4101400260000000048742APE CONSTRUCTION                                        20500
A0101412340000004360121CATHERINE B. PAMPLONA                                    0501
A0101412340000009501133JOSEPH RAMON L. CAMPOS                                   0503
A0101404840000005396949ESPORLAS, AURA AREVALO                                   0502
A0101404840851046725012MEDILYN G. CAMMAYO                                       0502
A0101404840000000232835MONZON, EMELITA TUAZON                                   0501
A0101406750000001491830FORTIFAES, CHARISSE ANNE                                10501
A0101406750000001491830CARITOS                                                 20500
A0101406750000007879154ROQUE, MA. CONCEPCION BONUS                              0501
A0101405070861380698001REYES SR., RENATO SISCAR                                 0501
A0101405070861478374020SOL G. CONFLOR                                           0503
A0601400230891454850001WILLIAM J. NACIONAL                                      0503
