A6601400120000001065263AMANDE, BEATRIZ NALAZON                                  0501
B0101400600071233681002**********                                               1606
A0301400530000000025232LYDIA ESTOSE                                             0501
A1901400290261309818037JERICO SERVENTO CALIBOSO                                 0502
A1901400290261355605001PAZ CRISTIANA TIAMSIM LANDICHO                           0501
A1901400290261488341018ALBERT CESAR S FALLER JR                                 0501
A1901400290261642927001KIMBERLY GILLIAN H AMANTE OR                            10501
A1901400290261642927001GUILLANO VICTOR AMANTE                                  20500
A0101400860011047935001************                                             0501
A0101400860011473146002*********                                                0502
A0101401250021180838001MARTINEZ, TERESITA G. OR                                10501
A0101401250021180838001DELA PENA, FLORENCIA G.                                 20500
B0101400150000000633436HUBB STORES AND SERVICES, INC.                           1605
A0101400150000006551226MONTIEL, MARIA CECILIA CONSTANT                          0501
A0101400600071233729001**********                                               0501
A0101400600071295528002********                                                 0502
A0101405810072444240001*************                                            0505
A0101405810072552611001ADELIA CABRERA                                           0505
A0601400100081392271001SANTOS, EDNA MARRIZA CUARTERO                            0501
A0601400520000001706827TANGLAO, MARIA CECILIA                                  10501
A0601400520000001706827OR TANGLAO, VICTOR                                      20500
A0101410850000003503562**********                                               0504
A0101410850109046512001*****                                                    0501
B0101410850000001229852SWM SHIPMANAGEMENT INC.                                  1605
A0101410850000008263974DE GUZMAN, R DBU METROLANDIA                            10502
A0101410850000008263974REAL ESTATE SERVICE                                     20500
A0101410560000005280939CELZO, ARIEL TENGCO                                      0501
A0101410560000005836217PROCLEY C. CRISTOBAL                                     0501
B0101400730000010487540EDKAM FOOD VENTURES INC                                  1601
A0101400730000001016493CAMPOS, JOSE PAULO ESPIRITU                              0503
A0101401960121318781001**********                                               0502
A0101401830000005691034HIPOLITO, ZARINA OCULAM                                  0501
A0101401830141530136001RACELLE MARY B. ABANES OR                               10501
A0101401830141530136001LUIS FRANCISCO V. LEBRON                                20500
A7201400170000009673061JAVIER, REZYL FAITH ALO                                  0501
A0101407270000003253790HUNG, KIT LING                                           0501
B0301400530193034066168TAGUM COMMERCIAL & REALTY                               11650
B0301400530193034066168CORPORATION                                             21600
B0301400530193044706199ROYAL CROWNE BEVERAGES                                   1605
B0301400660000003368325**********                                               1601
A0301400790000001244600YBANEZ, RITCHIE AGUIO                                    0501
A0101413020000003055369JCBC ENTERPRISES                                         0502
B0101412500000000041669ACETECH, INC.                                            1605
A3101400160221221032002ARMI ANTIA P MATANGUIHAN    OR                          10502
A3101400160221221032002ARIEN C POLINTAN                                        20500
A3101400740000010322720DHIMAN, VIRENDER                                         0501
B3001400130000000931322ML_BUILDERS INC.                                         1602
A1001400190000002170656AMELINA E. FACTURA                                       0501
A0101401670000005039801ACKERMAN, EMIL DAVID NOEL                               10501
A0101401670000005039801CAINTIC                                                 20500
B0101406460272821200608**********                                               2005
A0101408660274668915001TEMPORAL, DENNIS OLAVIDES                                0501
A0101411110000000604802MORENO, NILDA NUNEZ                                      0501
A0101400570000001681712GIL M. VICENTE                                           0502
A2601400270000007845090MELINDA B. REOTIRAS                                      0502
A2601400270000000562010ARNEL VIC S. BATTAD                                      0502
A6601400120314614489001ARANDIA JR., GERMAN OR SHIRLEY                           0501
B0101405650322543721001OMNIBILT CONSTRUCTION AND MAINTENANCE                   11602
B0101405650322543721001INC.                                                    21600
A0101409050352067503001CORTEZ, E DBU QUEEN TILES ADHES                          0501
A0101409050352666540001PLACIDA A. NUNEZ OR JAYME G.                            10501
A0101409050352666540001NUNEZ                                                   20500
B0201400920375034855001SHELLS TREASURES INTERNATIONAL CORP                      1605
B0201400890376035150001EAL DEVELOPMENT GROUP, INC.                              1604
B0101402930381021732001PENEL INTERNATIONAL, INC.                                1601
B0101408790000002659050ARDENT COMMUNICATIONS, INC.                              1602
A0101411660000004845290ABAN, CARLO MIGUEL SANTOS                                0501
A0101402770391211961001ANTONIO V. PRADO                                         0502
A0101405490000006214039PEREZ SR., RENATO PEREZ                                  0501
A0101405490000006242002OCAB, ARLENE M.  DBU WORKZONE F                          0501
A0101405490392478374008MARGARITA R. CIELO                                       0502
A0101408400394160353001JARDIOLIN, JAMES HILADO                                  0506
A0101408400394468516002ORATE, MARIA ELISA VALDEVIESO                            0501
A0301400820000008995599SUMAGIT, DANILO SUNIEGA                                  0501
A2401400180000002284802YATOR, BERNADETTE DIAZ                                   0501
A0901400220000003069065**********                                               0505
A0101403030441239686001**********                                               0502
A0101407430503184785001PATRICIA Q. AUSTRIA                                      0502
B0101403580511067513001CYBERAGE CONSTRUCTION CORP.                              1601
A0101412050000002314483DARGANI, JAIKISHAN MOHAN OR                             10501
A0101412050000002314483RAMCHANDANI, DIVYA H.                                   20500
B0101403450521011637002LIM YEE WAN CO., INC.                                    1605
A0101403450521376958001FU, ABIGAIL JAYE AYROSO                                  0501
A0101403610000006643172ALVARO, TERESITA CORPUZ                                  0501
A2201400250000002337982DURIMAN, ERLINDA BALINGIT                                0502
A2201400250561339671001JOSELITO D. SISON                                        0502
A0101404130000005962194FONTE, BERNICE KATHRYN CO                                0501
A0101404260611478374075VIVENCIA HATOL                                           0501
A0101404260611478374076NEREZA P RULL                                            0502
A0101407690000005197953PARADO, REYMILYN APOLONIO                                0501
A0101407690652298552012ANALIRIO GENERALI - DEALERS OF                          10502
A0101407690652298552012SHOECAT , INC.                                          20500
A0101413990000001195222VASQUEZ, ROMEO P. OR                                    10501
A0101413990000001195222VASQUEZ, MARIA JENNIFER S                               20500
A0101406590000000568816LEDESMA, JOHN MICHAEL ORBE                               0501
A0101406590000002277523********                                                 0501
A1701400230000005694102SALAZAR, EDWIN ENRIQUEZ                                  0505
B2801400100712024577001PHILIPPINE COASTAL STORAGE AND                          11605
B2801400100712024577001PIPELINE CORP.                                          21600
B2801400230000005253612GLOBAL TERMINALS AND DEVELOPMENT, INC.                   1605
A2801400230000000937548VITUG, QUIRINO DBU VI-JETT                              10502
A2801400230000000937548ACCOUNTING OFFIC                                        20500
B2801400230000005253623GLOBAL HOTEL & LEISURE PROPERTIES, INC.                  1605
A2801400230000009021652VANTA, PAZ DBU MACHASHIE'S KITC                          0501
A4101400260000005333459IGNACIO, JOSELITO CONCEPCION                             0502
A4101400390813245064002ISMAEL M. MERCADO                                        0501
A0101404840000009615932ILDEFONSO, REIZEL MARGARETTE M                           0501
A0101404840851424429002MAQUINANA, JOEL MACABUHAY                                0502
A0101404840851737546001MERCADO, LAUREL ASPREC                                   0503
A0601400230891730709001EMBESAN, ARNOLD AQUINO                                   0503
