B0101412920160065859001RSB-66 SECURITY AGENCY CORP.                             1601
A0101400440161039572010MYRNA A. CANELAS                                         0502
A0101400440161358347001MA. ELSA T. APOSTOL                                      0501
A1001400350233777505001CESAR, NEMAS ACERA                                       0501
A0201400890000004869372MONTEROLA, CARLO PINEDA                                  0501
A0101402930381283088002JOSEPH VINCENT A. ALBA OR                               10502
A0101402930381283088002AGNES A. ALARILLA-ALBA                                  20500
A0101408370382211811001DR. SHARON CATING LIM                                    0501
A0101400860011504621001********                                                 0502
A0101400860011663274001**********                                               0502
A0101400860011793672001**********                                               0505
B0101401250021006627002STA. CLARA PARISH CREDIT                                11601
B0101401250021006627002COOPERATIVE                                             21600
A0101400150000003162256KRISTOFFER NELSON L. AGNOTE                              0501
B0101400150061010688010SB CARDS CORPORATION                                     1610
B0101400150061021566001SUGAR MASTER PLAN FOUNDATION, INC.                       1603
B0101400150061021566005SUGAR MASTER PLAN FOUNDATION, INC.                       1602
B0101400150061021914001E- SCRIBIR INC.                                          1605
B0101400150061044905001RISING TIDE MOBILE ENTERTAINMENT, INC.                   1605
A0101400730000001697389LOPEZ, ERIC G.                                           0501
A0101412920000005675727TUMALA, JEFFREY PANTINO                                  0501
A0101412920000005354445LAFUENTE, ANASTACIA ALEJANDRO                            0502
A0101400440161039572029LORNA A. CERRO                                           0501
A0101400440000002035041MARIA GEVELA CARDINOZA                                   0501
A0101407270000007918332ANGELITO SIMBA JR.                                       0502
B0101407270162036459001ULTRATECH PRINTING CORP.                                 1610
B0101407270000000830506HANSBURY, INC.                                           1605
A0101401090171196061001ROBERTO OR ROLANDO ANASTACIO                            10506
A0101401090171196061001OR MA. TERESA BELMONTE                                  20500
A0101401090171196094001ANGELES &/OR BEATRICE ALORA                              0502
A0301400530193659725008********                                                 0502
A0101410720653409732001ATIENZA, OLIVA MAILA ANYAYAHAN                           0501
A0101410720653575025001CRISTINA G. CUEVAS                                       0503
B0101410720653650376001MICRO QUADKEYS CORPORATION                               1620
A3101400160221220343001LAARNI A. CALAPATIA                                      0502
B3101400160221224862001JOYME ROCKSCAPES CORPORATION                             1602
B1001400190231092020001RNT COLD BUILDER, INC.                                   1603
A1001400190231520766003VALDEHUEZA, CHARLES ADRIAN                              10501
A1001400190231520766003OCERO                                                   20500
A1001400190000002170758JUGAN, JUDITH MALOLOT                                    0501
B1001400350000000244368PHILIPPINE GAMS GENERAL INSURANCE AND                   11610
B1001400350000000244368FINANCIAL SRVCS                                         21600
B1901400290261012814001PJ LHUILLIER, INC.                                       1605
A1901400290261042311007DR. AVITO SAGUN NICANOR                                  0502
A1901400290261557802001JOAN A CABAGUIO                                          0501
A1901400290261689596001MARY ERNESTINE C COLUMBRES                               0501
A0101401670271223800001CO, GEORGE Y.                                            0502
A0101406620000000193651VILLACENTINO, GUIA JOVEN OR                             10501
A0101406620000000193651MARLON TIQUE                                            20500
B0101406620273041414001GANO I-TOUCH PHILIPPINES INCORPORATED                    1605
A0101408660274511572001VIRREY, WINDA LUBIAN                                     0501
A0101400570000009827001SANTOS, ROBERT PADILLA                                   0501
A0101400570281020605001FIRST BORN SNACK CORNER                                  0502
B0101400570000005666402AUDIO AUTOMATION AUTHORITY INC.                          1602
A2601400270000007951177RAYMOND RUEL D. VALLE                                    0501
A0801400160311065867001ELM INDUSTRIAL SASLES                                    0501
A3401400280000004958574AMAZING DISCOVERIES                                     10505
A3401400280000004958574TRAVEL AND TOURS                                        20500
A0101402350321530494001CHRISTINE PEARL P. LIM                                   0501
A0101402510000008859470JARENCIO, WILFREDO GAMOS                                 0501
A0101409050000008491072ABANILLA, MINERVA NAVERA                                 0501
A0201400760374625964001SOLON, ENRICO MENDOZA                                    0501
A0201400890000007668526YAP, JOSEPH ANTHONY CAUSIN                               0501
A0201400890376545727001SY, VICENTE OR CHARITO OR VANCE                         10501
A0201400890376545727001CEDRIC OR CHUA,                                         20500
A0101402930381065908001PABILLARE, CARMINA GARCIA                               10501
A0101402930381065908001DBU AEE PHARMACY                                        20500
A0101408370382625178001DR. KAREN ANNE R. BALANA                                 0502
A0101408790000004483090MA. TERESA D. BO-OT                                      0501
A0101411660384743363001REMEDIOS D. DE GUZMAN                                    0502
A0101405490000002253112KASAN, JOSEPHINE ABRAHAM                                 0505
A0101408950000007458913**************                                           0503
B0101409180397063543001IBARDELOZA, M DBU KATCAN CONSTRUCTION                    1602
A0101409210398344507001ROXAS, NARCISA NARRA                                     0502
A5501400120000000047356JOCSON, JACKIELYN COCJIN                                 0501
B5501400120000002949735VALEENLAND REALTY CORPORATION DBU                        1602
A5501400120000006976767VILLORENTE, GRACIANO FUENTES DB                          0502
A0901400220432368117001**********                                               0501
A0101412890000001056360AMIDO, NORMA GUEVARA                                     0502
B0101412890000000006960HAPAG SA MARIKINA FOOD SERVICES, INC.                    1620
A0101403320471205840001*****                                                    0506
A0101403580511369144001ANDREW C. THAY OR                                       10502
A0101403580511369144001MOIRA O. THAY                                           20500
A0101405940000005359446BANIEL, BEN FABALE                                       0502
B0101405940000005359720UNITED GATEWAY BUILDERS INCORPORATE                      1601
A0101411400000003750598DR. TWINKY D. BELINO                                     0502
B0101411400000006560892THOMPSON, CELINA DE PEDRO DBU DENTAGEM                  11601
B0101411400000006560892DENTAL CLINICS                                          21600
B0101403450521238191001**********                                               1610
B0101410690600821200608**********                                               2001
A0101404130601278977001************                                             0501
A0101404130601450861001NENEBETH B. BERMIDO OR                                  10501
A0101404130601450861001JAIME F. BERMIDO                                        20500
B0101407720602026114001**********                                               1602
A0101407720602397820001SIBAYAN, SANTIAGO ANTONIO B.                            10501
A0101407720602397820001OR SIBAYAN, SUSAN                                       20500
A0101404260611025450001VESTIGE VISUALS                                          0505
A0101409890000006277643**********                                               0502
A0101407690000000154750BARANGAN, ROMEO DBU                                     10505
A0101407690000000154750BARANGAN TRADING                                        20500
A0101407690000001919902OSTREA, MARILOU DBU M. ZOILO                            10502
A0101407690000001919902TRADING                                                 20500
A0101414120000007655152CUYEGKENG, DANNIELLE TABUJARA D                          0501
B0101406590662206754001EDWIN L. DIZON/NSWE ENTERPRISES                          1601
A0101406590662480379001OAFALLAS, REZ SIGUENZA                                   0501
A1301400500000003070139SUGAR DADDY MARKETING                                    0502
B0101408240000006414422YAVIN TECHNOLOGIES INC.                                  1601
A4101400260812292364001AMELIA C. VIDALLON                                       0501
A4101400420814298552026JOSEFINA FERNANDEZ                                       0502
A4101400420814342049001MENDOZA, DIVINA LORY ANN E. OR                          10504
A4101400420814342049001MENDOZA, GILBERT                                        20500
A4101400420814478374044BERATIO, MARITES M.                                      0501
A4101400420000002345273LEONICIA S. HERRERA                                      0501
A4101400550000000315062SUSON, STEVEN OGABANG                                    0502
A4101400550815478374008LORELYN C. PARCIA                                        0502
A0101404840851770300001MARLON R. PAPARES OR MA. MARGAR                         10501
A0101404840851770300001ITA N. PAPARES                                          20500
B0601400230000006045381RD PAWNSHOP, INCORPORATED                                1605
B0601400230000003644871PAIS CARRIERS INC.                                       1601
A0601400230891257217001RICARDO M. CALILUNG                                      0501
