B0501400170481821100608**********                                               2010
A0101410140000007294791CAMARAO, VIRGINIA MAGUDDAYAO                             0504
A0101410690600784905001BELICENA, WILBERT POBLADOR                               0501
A0101410720000007843367SISON, MAE ROSALES OR SISON,                            10501
A0101410720000007843367SAMUEL BENJAMIN SUAREZ                                  20500
A1101400120000000992332EJERCITO, CARLA D. OR                                   10502
A1101400120000000992332EJERCITO, RONALD                                        20500
A0501400170000002357651SIMON, NIEL ANGELO TAN                                   0501
A0101410720000007843298GARCIA, RENE ANN MINDO                                   0501
A0101411240000007845001CARSOLA, AGNES COLLADO                                   0501
A6601400120000000060831YONGCO, MARIE UY                                         0502
B0101410980275821200608**********                                               2002
A0101402930013120000301MANZANO, AGATON RADOC                                    0501
B0101402930000000623410R AND C OUTDOOR MEDIA INC.                               1606
A0101402930381615796001LOTILLA, CATHERINA MANUELA REME                          0501
A0101412890000002747971VERGARA, FERNANDO FERNANDO                               0501
A0101410690000000711033TIMBALOPEZ, MONINA DABU                                  0501
A0101407720602403595001CARMENCHU MARIE ECHIVERRI OR                            10502
A0101407720602403595001JAY VILLAVICENCIO                                       20500
A4101400420814478374156OLIVIA V. ALGARA                                         0501
A4101400420814520766093DELA CRUZ, MA. NIDA F.                                   0502
B0101401250021013681001P.J. LHUILLIER, INC.                                     1605
A0101400150000002394818INOCENCIO, JOEL MACARAEG                                 0501
A0101400150000002902741NG, JOSEPH ABADILLOS                                     0501
A0601400520000002270913MICLAT, IMELDA ANCHETA OR                               10505
A0601400520000002270913MICLAT, EDWIN GATUS                                     20500
A0101413730000003715837************************                                 0501
A0101413730000002289581**********************                                   0501
A0101410560000001944072VALEN, ROSANA RETIG                                      0501
A0101410560000005836080REYNA, CRISTETA REBECCA LAVIDES                          0503
A0101400730000002661601DELOS SANTOS, AILENE IRAIDA                             10501
A0101400730000002661601FAJARDO                                                 20500
B0101400730111015420002FELANER REALTY DEVELOPMENT CORPORATION                   1606
A0101400730111478374198DE VERA, NORLINDA                                        0501
B0101401830141008844001BM POWER SUPPLY & ELECTRIC SERVICES                      1605
A7201400170000003774032TINGCANG, PILAR PALICTE                                  0502
A7201400170000003774436MAATA, JANIETH S. OR                                    10502
A7201400170000003774436MAATA, JEFFRY P.                                        20500
A7201400170000008719193MALACO, ELYN ALBIOS                                      0503
B0101412920160066132001SUREMED DIALYSIS & URGENT CARE CENT                      1603
B0101401090171197481007SALAZAR, MA. NOEMI AND RIVERA, CLARA AND                11601
B0101401090171197481007LLAMAS, AGNES                                           21600
A0101401090171468916001FRANCISCO, MA. GENEVIEVE RAMOS                           0502
B0301400660000003368416MABVCO AGRI-SUPPLIES & SERVICES, INC.                    1606
A0101413020000006295098VICENCIO, ROBERT ALAIN PARINAS                           0501
A0101410720653173243001ARLENE MAE LIM OR DOLORES LIM                            0501
B0101412500000000041750FAITH BAPTIST CHURCH INC.                                1605
A3101400160000008941237MONILON, CAMILLE GAYLE OBRERO                            0501
B3101400160221047376001JFA ELECTRICAL CONSTRUCTION AND GENERAL                 11603
B3101400160221047376001SERVICES INC.                                           21600
B3101400450223040091001YAKAP AT HALIK MULTI-PURPOSE COOPERATIVE                 1605
A3001400130000008264842AGOT, VICENTE ANTEGRA DBU PAMIL                          0505
A1301400760000005379462HENRI R. CAJUCOM                                         0501
B1301400760000000007143CONSUMERREACH, INC.                                      1610
A0101401670000007413385MANCAO, CHRISTIAN EMMANUEL VILL                          0502
A0101401670271186264002ATENDIDO, ANITA OR                                      10501
A0101401670271186264002ATENDIDO, RAYMUND                                       20500
A0101401670000000016195WU, SHI MUH SY                                           0501
A0101401670271475286001ALBERNINA PASCUAL-LOPEZ                                  0502
A0101411820000004981791JOSE WILLIAM L. YUTUC OR                                10503
A0101411820000004981791MICHAEL VINCENT S. MANALO                               20500
A0101411240000007845001CARSOLA, AGNES COLLADO                                   0502
B0801400160311447288001MARIA FE EMILY DIVINAGRACIA OR                          11601
B0801400160311447288001LLANE GRACE DIVI                                        21600
A6601400120000003642846FLORESCA, MANOLITO ESTERNON DBU                         10505
A6601400120000003642846RMF SARI SARI STORE                                     20500
A0101402350000005645183RAVANILLA, HELEN CORPUZ                                  0501
B0101402350321037880001UNITRADERS ALUMINUM & GLASS CORP.                        1602
A0101402350000000145640PATRICK E. YAP                                           0501
B0101402350321456451001ROADSTAR MARKETING & TRUCKING, INC.                      1610
B0101405650322036086001VISTALAND INTERNATIONAL MARKETING, INC.                  1610
B0101405650000002960741LEAN MANAGEMENT AND PEOPLE SOLUTION                      1601
A0101402510341417224001NEILIA A. BALANON                                        0501
B0101409050352043882001NONITO SHOES AND BAGS SUBCONTRACTOR                      1605
B0201400920375038353001WEST OCEAN LINES & TRANSPORT, INC.                       1606
A0201400890000005491556NGO, ALVIN OMEGA                                         0501
A0101408370000000335493DRS.CARYCE EMMA G. JURIDICO OR                          10502
A0101408370000000335493JOHN FELMORE A.JURIDICO                                 20500
A0101408370382473958001DR. MARIANNA S. SIOSON OR                               10501
A0101408370382473958001PAOLO ENRIQUE S. SIOSON                                 20500
B0101411660000007555737HORIZON CONDOMINIUM ASSOCIATION, IN                      1601
B0101411660384821100608**********                                               2003
A0101402770000007413950FALLARIA JR., BENJAMIN OBSUM                            10503
A0101402770000007413950DBU BF & MF ENTERPRISE                                  20500
A0101405490000001092557KIKUCHI, RUBY JT                                         0502
A0101408400000008744765RAMOS, JOHN WALTER BELLO                                 0501
B0101408400000008699916NEW LIFE CHRISTIAN CENTER (THE FORT                      1602
A0101408400394569664001DALUSAG, MARY JANE ORIS OR                              10501
A0101408400394569664001NUNEZ, SHIRLEY M                                        20500
A0101408400394590854001GAA, RIZA NOBLEZA                                        0501
A0101408950000000472913ANGELES, ARNOLD DIOSDADO SILVA                           0502
A0101409180000005326272AVANCENA, ERIKA PILAR FLEUR OR                          10502
A0101409180000005326272AVANCENA, DIEGO                                         20500
A0101409180000004375155MARCELO C. ALCANTARA                                     0502
A0301400820000004746101FAMACION, RAMSEY DBU JARED SUIT                         10502
A0301400820000004746101ES OR FAMACION, BEULAH                                  20500
B0301400820409091735055LIMA, WINDELL BRISTOL DBU DAVAO HOME                    11604
B0301400820409091735055BUILDERS CENTER                                         21600
A5501400120410616229001ESCANO, CLAIRE BASAN                                     0502
A2401400180411075579001JALALAGTOY, MARVIN SUAREZ                                0502
A2401400180411478374020MORI, LYDIA                                              0502
A2401400180411514423001DEALA, BERNARDITA GATCHALIAN                             0502
A0101412890000005945093FRANCISCO, DOJIE DIZON                                   0502
B0101406330472040053001KUS OFFICE SYSTEM MFG. CORP.                             1603
B0101406330472441865001HALTBAR INDUSTRIES, INC.                                 1603
A0101410140000001939882BUGAWAN, CORINNA VALIENTE                                0502
A0101410140000001940063ARCENAS, CRESENCIA (MEMBERS OF                          10502
A0101410140000001940063NATASHA (SHOECAT                                        20500
A0501400170481536304001BANEZ, CORAZON M. OR                                    10502
A0501400170481536304001BANEZ, MARCO PAO                                        20500
B1901400320000000041283SAN ISIDRO MULTI-PURPOSE COOPERATIVE                     1601
A1401400110492460411001DATO, VINCENT EDWARD SALAMAT                             0502
A0101405940000005359275PASTORIN, MARIA RUSSEL AGUIRRE                           0502
A0101411400000003311144KIM, JEONGHEE                                            0502
A0101411790000009977275ESGUERRA, AIDGEILYN DECENA                               0501
B0101411790000004808082PDB PROPERTIES, INC.                                     1602
B0101412050000001499932IBEACON INC.                                             1601
A0101403610000007124854ALVAREZ, ROMARICO TERCERO                                0504
A0101403610000009973642CABATINGAN, JOHANNA APRIL                               10501
A0101403610000009973642DURANGO                                                 20500
B0101407720000000885792MG LANTING SECURITY SPECIALIST                          11601
B0101407720000000885792AGENCY INC.                                             21600
B0101407720000000885792MG LANTING SECURITY SPECIALIST                          11601
B0101407720000000885792AGENCY INC.                                             21600
A0101407720602294677001RAYMUND I. DURAN OR                                     10503
A0101407720602294677001IRENE MAE T. DURAN                                      20500
A0101407720602378197001GUIEB-PREYSLER, MARIVIC ALDEA                            0501
A0101407720602397464001CESARIO, RODRIGO GONZALES                                0505
B0101404260611035660001BETERAVIA CREDIT CORPORATION                             1603
A0101404260611398690001IGNACIO, ADELAIDA SUNGA                                  0504
A0101409920000005197862MOJICA, VICTORIA DE LEON                                 0502
B0101407690652036815001TAGALINIS, INC.                                          1605
B0101407690000000243843IDESCO CONSTRUCTION AND DEVELOPMENT CORP                 1602
A0101407690000003207274REYES, AL JUDE CLEMENTE                                  0503
A0101407690000000913826LEA MARIE MORALES OR MILA DE                            10502
A0101407690000000913826JESUS OR JOSE MA AUGUSTO                                20500
A0101407690652656697001FERNANDEZ, EVA RIVERAL                                   0501
B0101413570000000206522HOLY SPIRIT COMMUNITY MULTIPURPOSE                      11602
B0101413570000000206522COOPERATIVE                                             21600
A0101413570656057648176RONNA MYR M. NANAO                                       0501
B0101413570656821200608**********                                               2001
A0101413990000000969257SAPITAN, RUBY TIONGSON                                   0505
A1301400500000009723053RUBIO, CAREN VALENZUELA                                  0501
A1301400500000002063963NICOLAS, JAY JOSEPH GARCIA                               0503
B0101408240711036910001ASIAN CENTRE FOR INSULATION PHILS.,                      1603
A0101408240711376338002GOYENA, PACITA CASAS                                     0502
A0101408240711536525001CALABAZARON, JOYCE PAJATIN                               0501
A0101408240711652748001SUAREZ, ANTONIO MENCHACA OR                             10501
A0101408240711652748001SUAREZ, MIGUEL ANTONIO                                  20500
A2801400100712494193001DIANO, BLESILDA MISTICA                                  0501
A4101400260000009533564ESTOCADO, EDITHA JARDINIANO                              0503
A4101400260812478374056EMILY T. DIAZ                                            0502
A4101400420000009343211DE LEON, ERNESTO SAGURIT DBU                            10501
A4101400420000009343211WALYUMI BAKESHOP                                        20500
A4101400550000006044480QUIOYO, EMELIA BOONGALING                                0501
A0101404840851281071019ROSALINA D. FRANCISCO                                    0501
A0101404840851520766073ELIZABETH A. SUAZO                                       0501
A0101406750852301290001JIMENEZ, EDITHA RANOCO                                   0503
B0601400230000003015590ESCOBIDO, SHIELA MANATA                                  1601
