B0301400240401821100608**********                                               2020
B0101408790383821100608**********                                               2005
B0501400170481821100608**********                                               2010
A1701400230000004469650CANTORNA, GENEVIEVE ALBANO                               0501
B0101412180604821100608**********                                               2003
A0101406750852078501001TAKEDA, RACQUEL G. OR                                   10502
A0101406750852078501001JULAO, FLORENCE                                         20500
A4101400420000000121013CRUZ, CESAR ALEJANDRO                                    0501
A4101400420000000710234MILLOMEDA, DELIA V                                       0501
A4101400420814758362001LACSA, ROSA SIMBALLA                                     0502
B0601400520000004423385THE XEVERA HOMEOWNERS ASSOCIATION,                       1605
A0601400520000007553122LAPUZ, JIMMY PEREZ DBU                                  10501
A0601400520000007553122J.S.S. FURNITURE                                        20500
A0101400730000000112972MARINAS, MARIARITA MANAGUIO                              0501
A0101400730111386485042ELENA B. PEREZ                                           0502
A0301400950000002115173SY, ROMEO LICAROS DBU BISMARK                           10501
A0301400950000002115173MARKETING                                               20500
B2101400190229821200608**********                                               2002
A1001400350000000245281BAGARES, AGUSTINA BALALA                                 0501
A1001400350233478374026ANNABEL ESTOMO                                           0501
A2401400180411537301001**********************                                   0503
A0101414120000004603081BRIONES, HELEN RUTH PASCUAL                              0501
A4101400420000002084391VALLE, ROBERTO JATULAN                                   0501
A4101400420814520766082TIHUME, NOEMI C.                                         0501
A0101413860000007255970BATANGAN, HAZEL JOY CUCIO                                0503
B0101400150000000052720SOUTHKEY DEVELOPMENT CORP.                               1605
B0601400100000000032806BLU BLAZE GAZ HAUS                                       1606
B0601400360000003186838P4 HUMAN RESOURCE SOLUTION, INC.                         1603
B0601400520000000398647TELESIGHT COMPUTER AND SURVEILLANCE                     11602
B0601400520000000398647SYSTEM                                                  21600
A0101400730111386485175IVANHOE O. MARASIGAN                                     0502
A0101401960000000211070GO, WILSON CHUA                                          0501
A0101401960000000008040**********                                               0505
B0101401960121608874001******                                                   1602
A7201400170000006487912GUANZON, ROCHELLE RENIA OR                              10501
A7201400170000006487912GUANZON, JUANITO ESPINOSA                               20500
B7201400170000003773671LAFFICO MPC - MAIN                                       1605
A5001400170000000213750RATUNIL, JULIETA OR RATUNIL,                            10501
A5001400170000000213750BYRON, OR RATUNI                                        20500
A0101401090171196081001DRS. MANUEL OR CYNTHIA ZACARIAS                          0510
A0101401090171198825001JOSE V. NABOR                                            0502
A0301400530000003573562VILLAMOR, CONNIE DELRIO                                  0502
A0301400660000002348472NANIE DORADO OR RICHARD DORADO                           0502
A0301400950000002115300ILA ENTERPRISES                                          0504
B0101410720210764716001J.C.T. EZ LOAN CORPORATION                               1601
B0101410720000000029996J.C.T. EZ LOAN CORPORATION                               1602
A3101400160221220343001LAARNI A. CALAPATIA                                      0502
A3101400160221220455001JACINTA J. TORRES OR                                    10502
A3101400160221220455001RENATO I. TORRES                                        20500
A3101400160221565262001MARIANNE R. ESTRELLADO                                   0501
B1001400190231017478002CHURCH IN CAGAYAN DE ORO, INCORPORATED                   1604
B1001400190231043368001SML VENTURES                                             1601
A1001400350233528399003KO, JOSE NELSON AND                                     10502
A1001400350233528399003KO, CHARMAINE                                           20500
B1001400480000000133440DAHILAYAN FOREST PARK, INC.                              1610
A1301400470252497161001LUCILA L. DELA CRUZ                                      0502
B0101401670000000016286PSE-CST JV CORP.                                         1603
A0101401670271193954001TERRENCE ANTHONY K. LEE                                  0501
B0101406460272015262001*********                                                1603
A0101406620273489416001TANCHULING, PATRICIA IRIS OR                            10502
A0101406620273489416001TANCHULING, VINC                                        20500
A0101406620273719678001*****                                                    0504
A0101411820000004981791JOSE WILLIAM L. YUTUC OR                                10501
A0101411820000004981791MICHAEL VINCENT MANALO                                  20500
A0101400570281399721001JOFFREY U. UY                                            0501
B0501400200000000035710GOLDEN DRAGON MOTOR SALES CORP.                          1601
A0801400160000002287647LYDIA E. GRABATO                                         0503
B0801400160000001289829PANAY MEDICAL VENTURES, INC.  PMVI                       1610
B2001400290315052317001NRU TRADING                                              1610
A3401400280000000156654ROEVELLO P CHU OR ZHEENA D CHU                           0502
A0101402510341302063001BERNABE, KENNETH AGRUSA                                  0501
A0101402060351510942001CARLOS, JOSE MARIA GALAN                                 0502
A0101409050000000022420JERGEN B. MACUJA                                         0503
A0201400760000002047445SANCHEZ, MARICHU SOCO                                    0501
A0201400920000004087365MATA, JAYMAR ONG                                         0501
A0201400890376080642001GALANG, LORLIE PACURIBOT OR                             10502
A0201400890376080642001GALANG, GLENN AN                                        20500
B0201400890376821200608**********                                               2004
A0101402930381658198001MORENO, ABEGAIL VASQUEZ                                  0502
B0101408790383821200608**********                                               2001
A0101402770391366438007RUBY D REYES                                             0501
A0101408400394554252001INCISO, LEONORA CARANI                                   0502
A0101409180000003882315PHOEBE BERNARDO                                          0501
B2401400180000000073710MABUHAYONE CORPORATION                                   1602
B0101405520442821200608**********                                               2005
B0501400170481018109002****                                                     1603
A0501400170481357950002JASPER SPENCER L. ONG                                    0505
A3801400170490055006001MICHAEL OR CARYL MONTALES DBU                           10501
A3801400170490055006001MONTALES LEARNING CENTER                                20500
A0101403580000005328514GASPAR, FHAYE KHRYZ LIM OR                              10501
A0101403580000005328514JIMENEZ, MARGARET C.                                    20500
A0101405940000002268653BANIEL, BEN FABALE                                       0502
B0101405940000005359606SOMNOMED PHILIPPINES, INC.                               1602
A0101406880513565496015NIPALES, DONNA S.                                        0501
A0101408530516162636001ODIVER, DENNIS S. OR ODIVER,                            10501
A0101408530516162636001DIVINAGRACIA S.                                         20500
A0101403450521397819001**********                                               0501
A0101403610000007927431BADUEL, BERNARD AUSTRIA                                  0501
B0101404000551062716001HESTIA DEVT. CORP.                                       1601
A0101407720000006028406PEREGRINO R. LORENZO VII OR                             10503
A0101407720000006028406CHERYL B. LORENZO                                       20500
A0101407720602161917001GOYLOS, LORENA CALVO                                     0501
A0101407720602382406001SAMANIEGO, RENE MENDOZA                                  0502
A0101407720602581738001DUCUSIN, MA. ANTONINA SUGUITAN                           0502
B0101412180000001293152AGORA TECHNOLOGIES, INC.                                 1604
A0101409920650416463001TANCIO, SALLY PANGA                                      0501
A0101411530000003238344BEYOND SCENTS ENTERPRISES                                0502
A0101413570000000206260AC SHOWEREN 2000                                         0501
B0101413570000003580681FERRER, MARK OLIVER AND                                 11601
B0101413570000003580681PARAGAS, ADLIN                                          21600
A1301400210000005040577**********                                               0501
A1301400210682045774001POP WASH LAUNDRY SHOP                                    0502
A1301400340000002283752JUANITO C. IGNACIO OR                                   10502
A1301400340000002283752MARY GRACE V. IGNACIO                                   20500
A1301400340683055116001BENIGNO D. GUEVARRA DBU IRON                            10502
A1301400340683055116001ANGELO ENGINEERING                                      20500
A1301400500000000213265VINCENT P. JAVIER OR                                    10505
A1301400500000000213265TERESITA F. JAVIER                                      20500
A1301400500000005963153ONG, ANALIZA GONZALES                                    0504
A1701400230000005694102SALAZAR, EDWIN ENRIQUEZ                                  0504
A1701400230000004469643SALAZAR, MARIBETH DBU  NORTH                            10505
A1701400230000004469643TECH BUILDERS                                           20500
A0101408240000000039683MIRCHANDANI, SHERYL OR LALA                             10501
A0101408240000000039683OR MICHAEL                                              20500
A0101408240711520090001PLACIDO, JOHANNA P. OR                                  10503
A0101408240711520090001POSADAS, DANILO                                         20500
B2801400100712035549001AUTOTEC AUTOMOTIVE TESTING AND EMISSION                 11602
B2801400100712035549001CENTER INC.                                             21600
A2801400230000002312301GAMBOA, LOVELY KAHAEL DOMINGUEZ                         10510
A2801400230000002312301OR PURUGGANAN, AJ P.                                    20500
B4101400260812012607002FOUR STEPS CORPORATION                                   1605
B4101400260812012607005FOUR STEPS CORPORATION                                   1605
A4101400260000001783957DEPANO, ABEL DBU EXCELLENT                              10502
A4101400260000001783957DEPANO DENTAL CLINIC                                    20500
A4101400260812389694002OLIVIA P. RODEROS                                        0501
A0101406750852333142001MOLINA, MARITES SUZARA                                   0506
B0101406750852456290001**********                                               1602
B0101405070861457027001SJCM PROPERTIES, INC.                                    1603
B0601400230891038825001VOLT HAROLD MARKETING CORPORATION                        1601
B06014002300000036448207R FINANCE CORP.                                         1605
B0101415800920162000022**********                                               2001
