B0101407430503821100608**********                                               2020
B0101403450521821100608**********                                               2030
A0101400440000000342390APOSTOL, MARLO RAMOS OR                                 10504
A0101400440000000342390APOSTOL, MELANIE CUYCO                                  20500
A0101400440000003671670RUTH L. GOZON                                            0501
A0101400440161322205002LEONCIO P. SANTIAGO OR                                  10503
A0101400440161322205002LOLITA M. SANTIA                                        20500
A0101402930000003179559CAMBA, T DBU MICROPROCESSOR RSR                         10502
A0101402930000003179559PROTEK TECH'L ES                                        20500
A0101405810072316984001**********                                               0501
A0101400730111334903018ROMEO VELASQUEZ                                          0501
A0101400440161040977001JKRFG UPGRADE ENTERPRISE                                 0505
A0101400440000004901411VILLAVICENCIO, RAMON PARAFINA                            0501
A1101400120000000652835GO, SHERRY ALETTA UY OR                                 10501
A1101400120000000652835GO, MARILYN UY                                          20500
A2001400290000000924572MARTY, CRESLYNN MARIE CERINO                             0501
A2001400290000008910947WALKER, KELLY DYAN TESORO                                0501
B2001400290000002406793TAHIR, SAMSODIN AND RAYMOND PRISTINE                    11601
B2001400290000002406793AND KIM, MI SEON                                        21600
B0101409890000003098173V.T. LAGUYO CONSTRUCTION, INC.                           1602
B0101400860011490631002**********                                               1602
A0101400860011493899001**********                                               0505
A0101401250000002763346**********                                               0505
B0101401250000007121280BUSKOWITZ FINANCE INC.                                   1605
A0101411370000002269372BELEN, MICHAEL ANGELO SUAVERDEZ                          0502
B0101400150061484242001CENTRAL TARLAC BIOPOWER INC.                             1603
A0101400150000000525422ORDIZ, ARLENE CASTILLO                                   0501
B0101400600071027347001*****                                                    1601
B0101400600071045155001*******                                                  1602
B0601400360000000025750NT. LIVE INCORPORATED                                    1601
A0101410850109064349001CAPILI, C DBU SUPER SEVEN                               10501
A0101410850109064349001TRADING                                                 20500
B0101410560110045481001JESUS REIGNS MINISTRIES (JRM)                           11601
B0101410560110045481001FOUNDATION, INC.                                        21600
A0101400730000000833396CARBONELL, LEVINA IBALE                                  0504
A0101400730000001016471VIOLETA O. SANOY                                         0502
A0101401960121238672001**********                                               0502
A0101413150000002299318*                                                        0502
A0101413150000005319233********                                                 0501
A0101413310000005433272SARMIENTO, FRANCES OFELIA S.                             0503
A5001400170000000045003LIONG, JULIUS TAN OR LIONG,                             10505
A5001400170000000045003DANA CORAZON LAMBATAN                                   20500
A0101412920000008924847PEREZ, MARICEL RAMOS                                     0501
A0101400440161314631001*****                                                    0501
A0101400440161525001119NORA S. TALENTO                                          0501
A0101407270000005417421JOSEPH CUIZON                                            0502
A0101401090171195905001EVANGELINE MEJICO                                        0501
B0301400530193035726167TAGUM PIONEER FOODS CORP. - 1                            1605
B0301400530193035726188TAGUM PIONEER FOODS CORP. - DT                           1605
B0301400530193038459168PIONEER BEE CORPORATION 1                                1605
B0301400530193038459169PIONEER BEE CORP. 2                                      1605
A0301400530193551188168GONG, SHUJIAN                                            0502
A0301400660000005691778MANALASTAS, XAVIER ERIC BANDIOL                          0502
B0301400660000003368381NEXT BPO SOLUTIONS, INC.                                 1603
A0301400660194304371001*****                                                    0510
A0301400950000008921211BELARMINO, MITCHEL GERANGAYA                             0501
B0101413600000000206926GPRS-UNIFIED PRODUCTS                                   11601
B0101413600000000206926AND SERVICES INC                                        21600
A0101413600000005354850CYNTHIA S. PERALTA                                       0503
A3101400160000002762029PADILLA, MARIA CRISTINA SADILI                           0502
A3101400160221061032001CARABIDO, GIDEON ARIZAPA DBU                            10501
A3101400160221061032001SIPRA CLOTHIERS                                         20500
B1001400190231064130003OLANDER INDUSTRIAL TRADE CORP.                           1601
B1001400190231064343001NORTH MIN. YAN-YAN MARKETING CORP.                       1601
B1001400350233041564001INFORMATICS COMPUTER INSTITUTE CAG. DE                  11605
B1001400350233041564001ORO CENTER, INC.                                        21600
A1001400350233529082001QUEJA, AILSA QUILALA                                     0502
A1001400350233532089001MARIO T. JUNI OR RUTH S. JUNI                            0510
A1301400470000004626864ANNA ROBERTA C. MENDOZA                                  0501
A1301400760000003415610ROMAN P. CASTILLO                                        0501
A1301400760000001295370RAQUEL J. GALANG OR                                     10505
A1301400760000001295370RODERICK V. GALANG                                      20500
A0101406460000000182596**************                                           0503
B0101406460272036660001***********                                              1603
A0101408660274655734002DOLOR, LESTER GLENN BUENO                                0501
A0101412470000000520250**********                                               0501
A0101400570281388539029MATILDE C. ASUNCION                                      0501
A2601400270302729503001MELECIO B. DAWEY                                         0501
B1101400120000000652442GICABAO, KATHLEEN JOY NG OR                             11603
B1101400120000000652442GICABAO, BONGKOK                                        21600
A1101400120000006186558GO, HANS HENDRICK UY DBU H                              10501
A1101400120000006186558SNACKS AVENUE                                           20500
A1101400120000006186581IANZEIL N. SALVATIERRA                                   0501
B6601400120314612845001LOMAGDONG, PETER OR TANG, PATRI                         11603
B6601400120314612845001LOMAGDONG, JOYCE                                        21600
A6601400120000002249910YRUMA, ALBERT OR EMELITA                                 0510
A2901400130000006742265SALAZAR, ANN CONCEPCION                                  0504
A0101402350000005567484SERRANO, NERITA BACOY                                    0502
A0101402350321180562001**********                                               0502
A0101402060351217440018MARY EVELYN C. CHEN                                      0501
B0101402060351217550002PETRON VALLE VERDE                                       1606
A0101409050000005122525MA. ANGELICA LOUISE NAVAL                                0501
A0101409050000002971486SALAS, KATHERINE MARTIN                                  0501
B0201400920375031185001MOBEL HAUS PHILIPPINES, INC.                             1605
B0201400920375047811001ALCORDO INTERNATIONAL, INC.                              1601
B0201400920000000007974NEW YUTEK HARDWARE  & INDUSTRIAL SUPPLY                 11610
B0201400920000000007974CORP.                                                   21600
B0201400920000006433627*********                                                1603
A0201400890000003163711ESPINA, JOSE AARON ROSKA                                 0502
A0201400890376667775001BUYSER, MISAN CANAS OR BUYSER,                          10501
A0201400890376667775001RENZIE RAFAEL CANAS                                     20500
A0101408370382416284001DR. BERNARDITA O. POLICARPIO OR                         10501
A0101408370382416284001DR. REUBEN D. POLICARPIO                                20500
A0101408370382545939002DRS. JEANNE MARIE R. MARQUEZ OR                         10502
A0101408370382545939002ARTHUR JOSEPH M. MARQUEZ                                20500
A0101408790000000579233MARIA LOURDES G. ARAGON                                  0501
B0101411660000000751553SOUTHDRIVE HOMES, INC.                                   1601
A0101402770391478374023FELIPE, MA. LUISA L.                                     0501
B0101405490000000019963NAJIA MOVERS & PROJECT SPECIALIST INC.                   1602
A0101405490392170537002LORNA V. TUGADE                                          0502
A0101408400000001952883GABRIEL TAILORING AND GENERAL                           10501
A0101408400000001952883MERCHANDISE                                             20500
A0101408400394478374083FANGON, MA. ALMA LAGOS                                   0502
A0101408400394717440001RICANA, IVONNE PEDRAGOZA                                 0501
A0101408950396504044001**********                                               0502
A0101409210000008922287AREJOLA, NASTAAJA FRANCESCA BIA                          0501
A0101409210000008922390CALDERON, MARIA STEPHANIE ESGUE                          0501
A0101409210000008922458MITRA, EDELIZA HERNANDEZ                                 0501
A0101409210000008922516REGIO, REGINALD JAMES ALABA                              0501
A0101409210000008922561SANTOS, IAN CLARK FLORES                                 0501
A0301400820000002272022ENCALLADO, LUZETTE C.                                    0502
A0301400820000007135060ROSALITA, JEFF MARK LAMPAGO DBU                         10502
A0301400820000007135060JMR ENTERPRISES                                         20500
A5501400120410719328001ILAO, YOLANDA CASTILLO                                   0502
A2401400180411075579001JALALAGTOY, MARVIN SUAREZ                                0501
A2401400180411442136088***************                                          0501
A1201400150421455733001TUVERA-ORBITA, XENIA FERRER                              0501
B0901400220432750068001NOCOM, JOSELITO GABRIEL                                  1601
A0101403030441092217001**********                                               0502
B0101412890000003727866SUMMIT CONSTRUCTION AND DEVELOPMENT                      1602
B0101403320471035191001ST. GABRIEL CREDIT COOPERATIVE                           1601
A0101410140000001940063ARCENAS, CRESENCIA (MEMBERS OF                          10502
A0101410140000001940063NATASHA (SHOECAT                                        20500
A1401400110492064340001DY, D DBU DAVE AND GOLIATH ENTE                          0501
A0101407430000001028802LITA T. GUZMAN                                           0501
B0101405940512005476001A.C. HERNANDEZ & CO. INC.                                1605
A0101405940512338558002CECILIA B. CLAVECILLA                                    0501
A0101408110515365513003KARIMA HASSAN T. CASTRO OR                              10501
A0101408110515365513003DANIEL OLIVER CASTRO II                                 20500
B0101403610000000015943P.A. ALVAREZ PROPERTIES AND DEVELOPMENT                 11602
B0101403610000000015943CORPORATION                                             21600
B0101403610531042737001ASIA PACIFIC ENVIRONMENTAL MAIN                         11602
B0101403610531042737001SERVICES INC.                                           21600
B0101403610531043009001DEMARCIA REALTY AND DEVELOPMENT COR                      1601
A0101403610531707487001GARCIA, FRANCES CERDENA OR                              10501
A0101403610531707487001CARRASCO, EUNICE JANE C.                                20500
A0101404000000003853081GESTIADA, RUBY BENIG                                     0501
B2201400250000000016913ABRAHM CHASE CORPORATION                                 1603
A2201400250000007122749RICARDO Y. DIMARUCOT DBU R.Y.                           10503
A2201400250000007122749DIMARUCOT ENTERPRISES                                   20500
A0101404130000006275932GILLEN, DELMAFE FESTIN                                   0505
A0101407720602382305001PARDINAN, ROSSANA O.                                     0502
A0101407720000000245076SANSANO, OLIVER MONTENEGRO                               0504
A0101404260000003498602DEROCA, MARVIN GARCIA                                    0501
A0101404260611478374075VIVENCIA HATOL                                           0501
A0101409890649748239001**********                                               0508
A0101407690000000495512MARIA BELEN FEDERIZON OR                                10502
A0101407690000000495512JOSE RENEIRIO FEDERIZON                                 20500
B0101407690000006736543JAMAMA.CONSTRUCTION INC.                                 1602
A0101407690000006736463CENTENO, MICHELLE DBU ASRA                              10502
A0101407690000006736463DOCTORS MEDICAL CLINIC                                  20500
A0101407690652520766005GILNNA M. MALIGAT - DEALERS OF                          10501
A0101407690652520766005SHOECAT INC.                                            20500
A0101411530000006217483**********                                               0501
A0101413440000006680602CABATANA JR., VICENTE TARSUNA                            0501
A0101413570000004353797GRACE F. GANGANO                                         0503
A0101406590662594215001SISON JR., VICTOR OR                                    10501
A0101406590662594215001SISON, MA. ANGELA                                       20500
B1301400210682248659001ASIANLAND STRATEGIES CORPORATION                         1605
A1301400210000000023229FRANCISCO P CABOTEJA                                     0501
A1301400340683542735002BIUNAS, REMEDIOS GREGORIO                                0502
A0101408240000007478115PLANAS, MANUEL BUENAVENTURA                              0501
A0101408240711530967001RUSTE, CHRISTOPHER PATRICK OR                           10501
A0101408240711530967001RUSTE, JOANNE KATHLYN                                   20500
A0101408240711562355001BERMUDEZ, ROBERT SANTIAGO OR                            10501
A0101408240711562355001BERMUDEZ, ANA LY                                        20500
B2801400100000006434988FLORES, MONALIZA DASIG                                   1601
A2801400100712311102001CHARINA N. HIPOLITO                                      0501
B4101400390813036443001JINHOEMB CORPORATION                                     1603
A4101400550815478374008LORELYN C. PARCIA                                        0502
A0101412340000008391873RACHELLE R. GOMEZ                                        0501
A0101412340000008906327MA. OLIVE E. AREVALO                                     0501
A0101404840000000683574NELIA L. BABILA                                          0502
A0101406750000004642131ABION, VICTOR RODRIGUEZ                                  0501
B0101406750000005608493SOUTHERN HELEVICLE TRADING                               1602
A0101405070861525181001GOMEZ, PEDMAR SICCION                                    0501
A0601400230000002310150VILLEGAS, FRITZIE CABUSAO                                0501
A0601400230000005185833DUMAN-AG, MERCEDES MANUEL                                0501
B0601400230000000029672BATTERY DEPOT OF CENTRAL LUZON INC.                      1610
A0601400230891328611001ENGR. NELSON G. LINGAT                                   0501
