A0101412890000003508154FALCONIT, CARLA PAGUIA                                   0501
A0101412470000010561714UY, MARK BENEDICT ABELITA                                0502
A1101400120000003022373BANTULA, EVELISA FALLE                                   0501
A0101408400000003844917RAMOS, DIANE MAE ALAMA                                   0501
A2401400180411658464001FRUTO, RUTH GENAYAS                                      0501
A0101403580000000016082SWEET BELLA DESSERTS                                     0508
B0101403580511043261001FILIPINAS BENSON INDUSTRIAL &                           11602
B0101403580511043261001DEVELOPMENT CORP                                        21600
A0101403580000005961931VERA, RUFIA DOROTHY C.                                   0505
A0101400860000002333411**********                                               0505
B0101400860011394967002**********                                               1605
A0101400860011397772002**********                                               0505
A0101400860011403031002**********                                               0502
A0101400860000005313024*                                                        0503
A0101400860011412407003**********                                               0503
A0101400860011498256002**********                                               0502
A0101400860011509252001**********                                               0505
A0101400860011549648001**********                                               0505
B0101400150061011006002LUCY CORPORATION                                         1601
B0101400150061015628001PETRON CORPORATION                                       1602
A0101400150061039916064MEA, ROSALIE                                             0501
B0101400150061048107001HIGH POINTE PROPERTY GROUP, INC.                         1601
B0101400150061284390001UPTREND STRATEGIC SERVICES, INC.                         1601
A0101400150061323526001SHIRLEY MANESE OR MARIA ELENA                           10501
A0101400150061323526001MANESE                                                  20500
B0101400600071045158001*******                                                  1603
B0101400600071282495001********                                                 1603
A0601400100081367112001REYES, AMIEL OR RACHELLE                                 0503
A0101413280092062132001REIKEN AUTOMOTIVE SUPPLY                                 0501
A0101406040112553569001ANNALIZA C. MANDAGUIT                                    0501
A0101401960121311168001**********                                               0501
A0101401960121348042001YAP, HELEN SY                                            0501
B0101401960121557119001**********                                               1601
A0101412920000005354252PEDRON, ALEXANDER ERICSON LUGTU                          0501
A0101407270000007525422EULOGIO, ENRICO SAMSON                                   0504
B0101407270162040113001EVERGREEN ENVIRONMENTAL RESOURCES INC.                   1605
A0101401090171195644001LEONORA N. COLLANTES                                     0501
A0101401090000000037761TIMBOL, LETICIA ZUNIGA OR                               10501
A0101401090000000037761TIMBOL, RODOLFO                                         20500
A0101401090171199858001RODELIO DOMINGO LIM                                      0502
A0101401090171200124001CRISTETA L. SUMERA                                       0502
A0101401090000010238507CRUZ, MELFREDA DIZON                                     0501
A0101401090171462651001MYRA OR ALLAN LAMBIO                                     0502
A0301400660000000194672DUMALE, CANDIDO NAVARRO                                  0505
B0301400660000003368507BANAFAMILYA CORPORATION                                  1610
B0301400660194469662088**********                                               1605
A0301400950000006080257CADORNA, JUDITH DBU TOUGH18                             10502
A0301400950000006080257TIRE MARKETING                                          20500
A0101413020000006295247TOLENTINO, JUDY ANN JAMIL                                0502
B0101410720653043060001METRO DRY CLEAN VENTURES, INC.                           1603
B0101410720210047660001PROSERVE MULTI RESOURCES SPECIALIST                      1601
A0101413600000005355120******                                                   0505
A3101400160000008941226ROSEANN P ALCARAZ                                        0501
B3101400160221038352001AKAGI GOMU PHILS. CORP.                                  1603
B3101400160221045295001PANASONIC PRECISION DEVICES PHILS. CORP.                11601
B3101400160221045295001WORKERS UNION                                           21600
A3101400160221402966001JUAN A. LAGUNZAD  OR                                    10503
A3101400160221402966001THELMA D. LAGUNZAD                                      20500
A3101400160221534754001RODOLFO L. PUA                                           0501
A3101400450223026834001*****                                                    0503
A3101400450223056521002SAMIANO DENTAL CORP DBU THE                             10501
A3101400450223056521002NAME AND STYLE OF SMILE                                 20500
A3101400450223365991001REYES, DR. RUEL RAMOS OR                                10503
A3101400450223365991001JANET JOY                                               20500
A3101400450223693052001FERRER, PAMELA PIA OR MELVIN                            10506
A3101400450223693052001JOHN OR AUSTRIA,                                        20500
A3101400450223693053001AUSTRIA, APRYL LYNN EVANGELISTA                          0510
A3101400870000000957940FARCON, JENYLYN REYES OR                                10501
A3101400870000000957940DE MATA, NENETTE                                        20500
A30014001300000012717902ERMOSADA, JAME DORIA                                    0502
A3001400130000000007063GOLDEN HARVEST CATERING SERVICE                         10502
A3001400130000000007063FASTFOOD                                                20500
B3001400130000006004706RUELAN, NEIL DBU RUELAN ENTERPRISES                      1602
A1001400190231478374086LORNA A. OMANDAM                                         0501
A1001400190231520766086ABANG, ELVIE EGDAMIN                                     0501
A1001400190000002170747CABILAO, LORENA BINGCOLADO                               0501
A1001400350000007762470ORTENCIO, RONA OCHO                                      0501
A1001400350233272028001MAANDIG, ERLINDA B. OR                                  10503
A1001400350233272028001MAANDIG, CARLSTO                                        20500
B1001400350000002367273CHAN JR., BENJAMIN PO                                    1605
B1301400470000000009561FUND LINK CREDIT & LOANS, INC.                           1602
A1301400760000000050568VICTOR DEL ROSARIO ENTERPRISES                           0502
A0101401670000007555624ABIERA, LIZA HERNANDEZ                                   0501
A0101401670271404994001LYDIA GOMEZ SALAROSAN or                                10502
A0101401670271404994001RONALD SALAROSAN                                        20500
A0101401670271475286001ALBERNINA PASCUAL-LOPEZ                                  0502
B0101406460272047405001ACEBUCHE, E DBU EL ACEBUCHE BUI                          1605
B0101406620000000194041ZIOSOFT INC.                                             1601
B0101406620273212676001**********                                               1601
A0101406620000000043990PENAREDONDO, JEFF ROQUE                                  0501
A0101411820000005380183JIMMY PUYING CANUTO                                      0502
A0101400570000005666453YU, LESTER CO                                            0501
A0501400200000005751759ANDRADA, EVELYN MORDENO OR                              10502
A0501400200000005751759ANDRADA, BENJAMIN M.                                    20500
A0801400160000006893210APISTAR, TERESITA JAVELLANA                              0502
B0801400160311267059001DULALIA'S INCORPORATED                                   1602
B0801400160311267111001CHRIST THE KING MEMORIAL PARK, INC.                      1604
B0801400160311269417001C.G. TAN GENERAL SERVICES                                1604
A0801400160311478374055LURELA FERASOL                                           0502
A1101400120000000652697CASTILLOTE, GRACITA G.                                   0502
A1101400120000005608191CELSO, GORGIE CAROLA                                     0501
A2001400290000003961615BARROCA, GODOFREDO BANTUG                                0501
A2001400290000004889956MARIUS C.C. ONGCOG DBU RAMAR                            10503
A2001400290000004889956TICKETING SERVICES                                      20500
A2001400290315688009001ALGOPERA, LLOYD GARCIA                                   0502
A3401400280318478374002PIONELO, LENIDIE DEVELOS                                 0501
A2901400130000005961253YABUT, MARK ARBUES DELA CRUZ DB                          0502
A0101402350321179301002PABLO PEFANCO & ERLINDA PEFANCO                         10505
A0101402350321179301002& MA FLORINDA PEFANCO                                   20500
A0101405650322416023001DIMAFELIX, FERNANDO PERALTA                              0501
A0101402510000001292371PERRERAS, ROSEMARIE MIRALLES                             0501
B0101402060351085656001REBINTECH CONSTRUCTION, INC.                             1603
B0201400760374030466002A.D. GOTHONG MANUFACTURING CORP.                         1602
A0201400920375034669001**********                                               0502
A0201400890000006717053DACAY, RAMON UY OR DACAY,                               10501
A0201400890000006717053THELMA DY PICO                                          20500
B0201400890000005491363ECC SCHOOL OF GLOBAL COMMUNICATION                       1602
A0201400890376080642001GALANG, LORLIE PACURIBOT OR                             10505
A0201400890376080642001GALANG, GLENN AN                                        20500
A0101402930000002269183AVELLANEDA, EVALOR AVELLANO                              0502
A0101402930000010657833ARGARIN, CAMILLE CUYUGAN                                 0501
B0101402930381040001001TURQUOISE TRAVEL & EVENTS                               11602
B0101402930381040001001MANAGEMENT CORP.                                        21600
B0101402930381041465001INTERLINK I.T. LEARNING SERVICES                         1601
A0101402930381325163001SUSAN D. CORNEJO                                         0501
A0101402930381631315001******                                                   0501
A0101408370382211448001DR. JOSE PAOLO A. PRADO                                  0501
B0101408790000003845761DESIERTO AND DESIERTO LAW FIRM                           1605
A0101411660000003580294RICA JOANNA C. NICOMEDES                                 0501
B0101402770391630383002FIRST LOAD MASTER AND POWER SERVICE INC.                 1601
A0101405490000002253010ROSEMAE J. SISON                                         0501
A0101405490000006214040VIRATA JR., TEODORO CECILIO                              0501
B0101405490392006511001TACKS AND BUTTONS APPAREL, INC.                          1601
A0101405490392173720001ALMA T. MADDATU                                          0501
A0101405490000006241943MINERVA V. VILLACORTA                                    0501
A0101408400394524529001EMERSON CRUZ OLIVER                                      0501
A0101408950000005325480NONATO, ROMMEL TALAMAYAN                                 0503
A0101409180000003882439KENNETH PATRICK C. UY                                    0502
A5501400120000006976847ABRENICA, CHRISTOPHER RALPH NOL                          0501
B2401400180411031945001ABC DISTRIBUTORS INCORPORATED                            1605
B2401400180000007476813SUBA GREEN VENTURES, INC.                                1605
A2401400180411272423002RAMON S. CHUA                                            0501
A1201400150421253022001GARCIA, LEONILA LANSANG                                  0501
A1201400150421253953001CRISTINA F. TEJADA                                       0503
A1201400150421257375001MARA ALOHA DIAZ                                          0505
A5101400100000010834001BANGCOYO, SHEILA CANOY OR BANGC                         10501
A5101400100000010834001OYO, ROCKY                                              20500
A0101403030000010411342SHI, YAQING                                              0503
B0101403030441239806001JETCO MOTOR SALES                                        1604
A0101412890000001056342ONG, CECILIA AND ONG, EDWIN                              0501
A0101412890000007095732TRABALLO, M DBU MARK ANTHONY                            10502
A0101412890000007095732ROCK SUPPLY                                             20500
A0101403320471069301001BACK OFFICE SYSTEM SERVICES                              0501
A0101410140000001939933FERRER, J DBU AJ1201 TREAD                              10501
A0101410140000001939933ENTERPRISES                                             20500
B0501400170481018109001CSI WAREHOUSE CLUB INC.                                  1602
A1401400110000003988912TAN, ROLLY                                               0501
A1401400110492367614001DE MESA, CECILDA LAGAR JT                                0501
A1401400110492367614001DE MESA, CECILDA LAGAR JT                                0501
A1601400170000001360758TAN, ROBERTO LISTANA                                     0501
A0101407430000003193946JENNIFER N. LOPEZ DBU JLO HIGH                          10502
A0101407430000003193946PERFORMANCE MOTOR SHOP                                  20500
A0101403580511478502001PATAC, KRISTINE LANARIA                                  0501
A0101405940000005359446BANIEL, BEN FABALE                                       0501
B0101405940000008479030MY ONE BAHAY CORPORATION                                 1601
B0101405940000008479030MY ONE BAHAY CORPORATION                                 1601
A0101405940512478374010COMPANERO, MARILYN ESMABE                                0501
A0101408530516571877145RODOLFO H. HERRERA JR.                                   0501
A0101403450521239682001**********                                               0501
A0101403450000001769771SANTOS, EMMA CASTILLO                                    0501
A0101403610531290519002MENDOZA, FREDERICK MIRANDA OR                           10505
A0101403610531290519002MENDOZA, FELICIANA                                      20500
A0101407720000009414153TAMAYO, MARIA BIDA OLIVIA SIY                            0501
A0101407720602166062001FRANCISCO T. AGUSTIN, JR.                                0503
A0101407720602381371001SHIELA H. PAGDANGANAN OR                                10502
A0101407720602381371001ERNEST PAGDANGANAN                                      20500
A0101407720602396272001ROMANA BORROMEO OR RAFAEL                               10501
A0101407720602396272001BORROMEO OR RUTH SY                                     20500
A0101407720602399337001MARIO BENITO F. BAUTISTA                                10502
A0101407720602399337001OR JOSEPHINE L. BAUTISTA                                20500
A0101407720602436863001ACEBUCHE, NILO BORJA OR                                 10501
A0101407720602436863001ACEBUCHE, AMELITA                                       20500
A0101407720602470788001ISIDRO, MARIA JOCELYN CAPULI                             0502
A0101404260611353663002CLAMAR, GLENDA SUAREZ                                    0501
A0101404260611469967001MERLYN CABADDU                                           0501
A0101404260611478374075VIVENCIA HATOL                                           0501
A0101404260000000532056REGINA C ALTO                                            0501
A0101404260611524854001CLEMENTE, WILMA RUIZ                                     0502
B0101404260611537674001KLINI-KAYA MEDICAL SPECIALISTS INC.                      1605
B0101409890000000004673**********                                               1605
A0101409920650478374005CRISOSTOMO, MA. EMELIA GASPAN                           10501
A0101409920650478374005MEMBERS OF NATASHA                                      20500
A0101407690652034806001BROWNFLY COMMERCIAL                                      0510
A0101407690652359181001JOSE M. CASTRO OR VICTORIA G.                           10502
A0101407690652359181001CASTRO                                                  20500
A0101407690652520766007LOLITA SONZA - DEALERS OF                               10501
A0101407690652520766007SHOECAT INC.                                            20500
A0101407690652698616001VELARDE, ARLENE PAROCHA                                  0501
B0101411530654821100608**********                                               2001
A0101413440655054477001LAND FIRST REALTY                                        0501
A0101406590000003007212STAMBOEL, IRSYAD KAUTZAR                                 0501
B1301400340683022873001MERFEL PLASTIC PRODUCTS                                  1602
A1701400230000005694102SALAZAR, EDWIN ENRIQUEZ                                  0505
B1701400230693034406001ZS ALONZO FARM SUPPLY                                    1601
A1701400230693043742001CAFE JUAN                                                0503
A0101408240000010148040SANTILLAN, IMMANUEL ANTONIO GAB                          0501
A0101408240000008160143ROWENA P. GONZALES                                       0502
A0101408240711503432001BRIGIDA M. OCTAVIO                                       0501
A2801400100712251595001VALDEZ, CORAZON REYES                                    0502
A2801400230713068651001PARAS, EDMUND ERIC CASTANAR DBU                         10501
A2801400230713068651001SERVANT SPORTSWEAR                                      20500
A4101400260000001198836JAPZON, GINA ASAYTUNO DBU                               10501
A4101400260000001198836GREENLEX SPACE RENTAL                                   20500
B4101400420814037047001GRJ JARO PAWNSHOP CORP.                                  1603
B4101400550815040996002MARICHE APARTELLE, INC                                   1601
B4101400550815040997003MAHARLIKA CONCRETE PRODUCTS AND CONST.                  11601
B4101400550815040997003SUPPLY                                                  21600
A4101400550000003267127NAVEA, A DBU VELJO ENTERPRISES                           0502
A0101412340000007305644MAYLENE S. ABELLA                                        0502
A0101404840000004565880MACALINTAL, RUBYLYN AMOR M.                              0501
A0101406750000006303340GUZMAN, LILIA ACUESTA                                    0501
A0101406750000005666817CDB ACCOUNTING AND TAXATION SER                         10502
A0101406750000005666817VICES                                                   20500
A0101405070000011289100ESPERIDION, BRANDON MAR GUMBAN                           0501
