A3101400870000009082457REYEL, JERUBELLE JOY MUPAZ                               0501
B6601400120314617698002CATARMAN DOCTORS HOSPITAL, INC.                          1605
A0101412890000005913442*****************                                        0502
A0101403320000001646993RIOLITA E. FLORES                                        0501
A0101400860000005312981**********                                               0502
A0101400860011395673001**********                                               0506
B0101401250021039454001PREMIUM PLASTIC GROUP MFG. CORP.                         1601
A0101400150000003600893PINEDA, MARIA CARMELA ERICA LEG                          0502
A0101400150000008860971ZUNIGA, LLEANDRO                                         0501
B0101400150061032615001HKR EQUIPMENT CORPORATION                                1615
B0101400150061036320003IPM CONSTRUCTION & DEVELOPMENT CORP                      1610
B0101400150061038470001MAA DEVELOPMENT CORPORATION                              1601
A0101400150061707501001ANG, JEANILLE ALYANNA UY                                 0501
A0601400100081254011001PANLILIO, MARIE CARMEN OR                               10501
A0601400100081254011001PANLILIO, AUGUSTO                                       20500
A0601400100081462821001TAN, CHRISTOPHER RYAN TAGUBA                             0505
A0101414090000001652433JANGSIK YUN                                              0502
A0101400730111334903011SUSANA M. CATIIS                                         0501
B0101400730000008477534ALVENDIA, AMADOR PAHATI                                  1601
B0101401830000000033570CARITAS SALVE CREDIT COOPERATIVE                        11605
B0101401830000000033570(MALABON)002                                            21600
B5001400170000005705244CHAN, PATRI BAJAMUNDE                                    1602
A5001400170000000214020ARNOCO, MARIETA DIAMANTE                                 0502
A0101400440000002035041MARIA GEVELA CARDINOZA                                   0501
B0101407270162033286001DESIGN.STUDIO INC.                                       1602
B0101407270162037305001MICROGOLD INFORMATION SOLUTION AND                      11610
B0101407270162037305001PRODUCTS, INC.                                          21600
B0101407270162059581001PALM CORNED BEEF CORNER INC.                             1603
A0101407270162293885001MARTINEZ, RAYMOND VALERA                                 0501
A0101407270162469205001MICHELLE CABRERA-MANUEL                                  0501
A0101407270162679099001KA HU KHO OR LEE BE KHO OR                              10501
A0101407270162679099001KAREN KHO LI                                            20500
A0101401090171196210002LOPEZ, MA. CRISTINA OR                                  10502
A0101401090171196210002RAMOS, HUBERT                                           20500
A0101401090171335981001JOCELYN OR FERNANDO ORBASIDO                             0501
A0301400530193678516168BRIAN F. INVENTOR OR                                    10501
A0301400530193678516168CECILLE C. INVEN                                        20500
A0301400530193718494008LU, HARRY POLINA OR                                     10503
A0301400530193718494008KE, BING ZHANG                                          20500
A0101401380201565925001MERCADO, NOYMINDA ALVAREZ                                0503
A0101410720653043410001SQUARE SPOT ADVERTISING                                  0502
A3101400160000000429156SOSMENA, JONATHAN A OR                                  10501
A3101400160000000429156SOSMENA, AILEEN                                         20500
A3101400160221478374009GINA A. FACUN                                            0501
A3101400160000000428988ANGELES, CRISELLE MACASADIA                              0501
A3101400740224064725001MENDOZA, ODESA DBU VALOIS                               10501
A3101400740224064725001CATERING SERVICES                                       20500
A3001400130000000068211BATTAD, ARNULFO RICAFORTE                                0501
A1301400470252040709001ANGEL INNA TRADING                                       0510
A1301400470252634995001LOUISE L. ANG AND LOED L. ANG                            0510
A0101406620000003661454HEO, DAE HOI                                             0501
A0101406620273217521001VICTOR P. DELA DINGCO                                    0502
A0101411820000003838233APRIL JOY TUBIL                                          0502
B0101411820000003085112HARDCOM COMPUTER SYSTEM CO.                              1601
A0801400160000000476346TSC SUPREME MOTOR SHOP                                   0503
A3401400280000004958621CASTRO, MARILYN DELA CRUZ                                0501
B3401400280000004959162LAS ISLAS TRAVEL AND TOURS PH, INC.                      1601
A3401400280318736732001TERESA A. SANTOS OR MA. AILEEN                          10501
A3401400280318736732001A. SANTOS OR TINA S. ONG                                20500
A0101402350000001474324MARTINEZ, KENNETH BUHAT                                  0501
A0101402350321045652001BOYET AUTOCARE SERVICES                                  0506
A0101405650000004822231AZARCON JR., DBU                                        10501
A0101405650000004822231NOVAMIND BUILDERS                                       20500
A0101405650000000525871CEDILLA, PATRICK JOSEPH V.                              10501
A0101405650000000525871OR CEDILLA, LILIAN                                      20500
A0101405650000000348903ESPERANZA F. BAYLON                                      0502
A0201400760374047906001SAPAYAN LIM ALVAREZ & LIGUTAN                           10502
A0201400760374047906001LAW OFFICES                                             20500
B0201400920000000047954***********                                              1601
A0101402930000007031136TORRES, RANDY CASTRO                                     0501
A0101402930000000623363KING, C DBU EASTERN CIRCLE                              10502
A0101402930000000623363HUMAN RESOUCE SE                                        20500
A0101408370382488821001DR. ROSALYN C. SARMIENTO                                 0501
A0101411660000002309440GATCHALIAN, ARMINA BENDOL                                0502
A0101411660000005324101LIM, DAVID DY                                            0502
A0101411660000009107255SANTIAGO, MARIAN MEDINA                                  0501
A0101411660000009115822ESTRELLADO, MARIA VILMA                                  0501
B0101402770391046279001LEGACY RENOVE INC.                                       1610
A0101402770000006642793SUESS, FLORENCIA GERODIAS DBU                           10502
A0101402770000006642793FGS ENTERPRISES                                         20500
A0101402770391212246001MARIVIC N. FELIZARDO/                                   10502
A0101402770391212246001SWEETHEART COLLECTION                                   20500
A0101405490000006241903PALLON, EMILY C. DBU MIL-LON EN                          0501
B0101405490392332339001**********                                               1603
A0101405490000004353086AMBROSIO, JOB ADRIAN MESINA                              0501
A0101405490392712307020LASTIMOSA, EMELIA ATIENZA                                0501
B0101408400000003120612GLOBAL LEADERS INTERNATIONAL SCHOOL                      1605
A0101409210000006929993JOHN JOEY C. ABUEDO                                      0501
A5501400120000006976836ESTRABON JR, FELIX TAPLERAS                              0504
A5501400120410638200001ALAJAR, CELESTINA OR ROLAN OR                           10505
A5501400120410638200001ANNABELLE                                               20500
A5501400120410665205001ULANGKAYA, ASSAM OR JUVY                                 0502
A1201400150421311928001RAMOS, GLORIA SILOY                                      0501
A0101412890000001765539BONGALOS, MA. THERESA S. OR                             10501
A0101412890000001765539ADRIAN LINDON Q.                                        20500
A0101403320000009110161OLLADAS, WIEN FELIPE GOTOYCO                             0501
A0101403320471042210001ANLI ENTERPRISES                                         0502
A0101403320000001646766EROSA TRADING                                            0502
B0501400170000000018317DAGUPAN DOCTORS VILLAFLOR MEMORIAL                       1601
B0501400170481064698001MOTORCENTRUM CORPORATION                                 1601
A0501400170481253600001NARDING C. CAMERO OR                                    10502
A0501400170481253600001JULIE C. CAMERO                                         20500
A1901400160491562857001JVICTOR MARKETING CORPORATION                            0508
A1401400110000007186583BARRERA, NIEVALYN BABAO                                  0502
B1401400110492027100002SACRED HEART COLLEGE                                     1601
A1401400110492220730002MOISES G. DOLLANO JR.- MGDJ                             10501
A1401400110492220730002CONSTRUCTION                                            20500
A1601400170000000421069CHARLES P. CLEMENTE III OR                              10505
A1601400170000000421069CHARLES L. CLEMENTE JR.                                 20500
A1601400170000001068593JINKY M. NIEVA                                           0501
A1601400170000001069216LARRY M. RIVERO                                          0502
A0101403580000000383664MA. LUISA SYLVIA A. ABELLO                               0503
A0101406880513392342002RAMIREZ, MA. ELENA MANGAMPO                              0501
A0101408110000009108652FERNANDO, MARIA ANGELICA ACAYAN                          0501
A0101408110000006952287CALUSTE, SANDY TUBLE DBU MLS                            10505
A0101408110000006952287STAINLESS STEEL                                         20500
A0101411790518055764037ASTORGA, REYDEL GARSAIN                                  0501
B0101403450521528015001************                                             1601
A0101407720000004664893PANO, MARICEL VELASCO                                    0501
A0101407720602397129001SADILI, MA. ADELINA TOLENTINO                            0503
A0101407720602499900001***************                                          0501
B0101404260611057756001SYNERGOS PASSION ASIA, INC.                              1604
A0101404260611478374003TROPA, EMELITA                                           0501
A0101409920000003672075CAMPOSANO JR., DANILO E.                                 0501
A0101407690000001919913JAIRUS RAE ENTERPRISE/                                  10501
A0101407690000001919913BOBBY ALEJO                                             20500
A0101407690000006736441PERALTA, JEOFFREY DBU                                   10504
A0101407690000006736441J. PERALTA ENTER                                        20500
A0101407690652525001047NOEMI B. BUNDA - DEALERS OF                             10501
A0101407690652525001047SHOECAT INC.                                            20500
A0101407690652525001051ANNABELLE BADAYOS - DEALERS OF                          10501
A0101407690652525001051SHOECAT INC.                                            20500
B0101407690652537622001CREATIVE DISHES & RECIPES INC.                           1602
A0101407690000000243810PAGUIO, ANA CARDENAS                                     0502
A0101407690652786467001MADRONO, BENJAMIN PLAZA                                  0501
A0101413570656060828003EMPERADO, R DBU WISMORE ENTERPR                          0501
A0101413990000002962883BUHAIN, VICTOR PEREZ                                     0501
A0101413990000006434933BUENO, MELDRICK MACALMA                                  0503
A0101408240000000005181POL CAMACHO SECURITY                                    10502
A0101408240000000005181CONSULTANCY                                             20500
A0101408240000006599935DEL ROSARIO, FRANCO GOMEZ                                0501
B0101408240711492799003CENTER FOR INFECTIOUS DISEASE AND TRAVEL                11602
B0101408240711492799003MEDICINE                                                21600
B2801400230000001580332NORDSMAIRE GENERAL MERCHANDISE LUMBER &                 11603
B2801400230000001580332HARDWARE                                                21600
A4101400260000006043250BENIGAY, ROEL LUMINGKIT DBU                             10501
A4101400260000006043250FIRST PHOENIX INDUSTRIAL                                20500
B4101400390813027260001PHILS-JEON GARMENTS, INC.                                1604
A0101412340000006047218CATHERINE ANNE REYES                                     0501
A0101405070000005619434TIAOQUI, ARTURO VITA                                     0503
