A6601400120314668441002MASLOC, SHERRY AMOR GALONO                               0501
A2401400180000001935840JUNASA, HELEN GRACE CALUMPANG                            0501
A2401400180000007031881CUSTODIO, GLACE SANTIAGO DBU VA                          0502
A1401400110000010622663HADLEY, ELIZABETH LAZARTE                                0501
A0101405940000001534269**********                                               0501
B0101400860000005313137**********                                               1601
A0101400860011398777002**********                                               0506
A0101400860011416222002**********                                               0502
A0101400860011552522001**********                                               0502
A0101400150000003164343MARGARITA ISABEL B. ESCUETA                              0501
B0101400150061014955001METROBANK CARD CORPORATION (A FINANCE                   11602
B0101400150061014955001COMPANY)                                                21600
A0101400150061226911001FLORA CECILIA SANTOS                                     0501
A0101400150061632464002ANGELES, TERESITO AND LADEZA,                           10501
A0101400150061632464002AMON AND DAGDAYA                                        20500
B0101400600071313239001MERCEDITA J. BERNARDO                                    1602
A0101405810072508200001XIE, XINGYAN                                             0501
A0101400730111198710001FERNANDEZ, HENRY F. OR                                  10502
A0101400730111198710001FERNANDEZ, AMELIA                                       20500
A0101400730111278185002ARANDELA, MARY GRACE                                     0501
A0101401960000004419830**********                                               0501
A0101401960121238895001**********                                               0505
A0101412630000000801574SALVADOR T. FLORESCA JR. OR                             10501
A0101412630000000801574ADELAIDA O. FLOR                                        20500
A7201400170000003773222ARANDING, ARNEIL BALBIN                                  0502
B5001400170000000169824VICTORY CHRISTIAN FELLOWSHIP OF                         11603
B5001400170000000169824ZAMBOANGA CITY                                          21600
A0101400440161478374189CORAZON C. BOLA                                          0501
A0101407270000001597260PEREZ, JO MICHELLE GONZALES                              0501
A0101407270000007525375LIM, NELLIE CACHO                                        0501
A0101401090000001611369SULQUIANO, REX HERRERA                                   0502
A0101401090171197827001EDWIN S. MARTIN                                          0501
A0101401090171278999001JANINE MARGARITA R. DIZON                                0501
A0101401090171362910001ESTRELLA S. MAJUELO                                      0501
A0301400530193617407001DAHILOG, FELY L. OR                                     10501
A0301400530193617407001DAHILOG, MA. EDI                                        20500
A0301400790000003969360********                                                 0502
A0301400790000005692026GENTILES JR., FILIPINIO CASCABE                          0502
B0301400790000002301342MONTEVERDE II, GEORGE MENDEZ DBU GV & HH                11601
B0301400790000002301342MARKETING                                               21600
A0101401380201519240001PERLADO, EDWIN MAGPANTAY                                 0501
B0101413020000001175531INFRAMACHINERIES CORPORATION                             1601
A0101410720000004626380**********                                               0501
A0101410720653579026001PROLOGO, JORDAN CAMINO                                   0502
B3101400160000010773043FRANCISCO P GARCIA & CYNTHIA T ALARCON                  11610
B3101400160000010773043& LEILA D TORRES                                        21600
A3101400160221220343001LAARNI A. CALAPATIA                                      0502
A3101400160221478374058MARIBEL S SIBOR                                          0501
B3001400130000006004728AMPAYON AGRO-INDUSTRIAL CORPORATION                      1610
A3001400130230478374026SONOT, RODERICK AMAHOY                                   0501
A1001400190000000016402LEGASPI, LUCILO BALATERO                                 0504
B1001400190231272348001LAO, SHERWIN                                             1602
A1001400190231520766112ALIBIO, NELYBETH TACBOBO                                 0501
A1001400350233478374001JUNIO, ROGELIA A.                                        0501
A1001400480000000041523PO, MARILOU TRAJANO OR PO,                              10503
A1001400480000000041523MAUREEN TRAJANO                                         20500
A1301400470252497499001DON G. BERNABE OR REINA                                 10501
A1301400470252497499001CONCEPCION M. BERNABE                                   20500
A1301400470000002299825REINA CONCEPCION M. BERNABE                              0501
A0101408660000000523802PARINAS, SHARA CALLOS                                    0501
A0101400570000004624208MARY GRACE B. ONGUE                                      0502
A0101400570281361144001ERIC G. IDIESCA                                          0501
B0801400160000005656971COMMUNITY'S HOPE AND INITIATIVE FOR LAS-                11610
B0801400160000005656971TING DEV., INC.                                         21600
B0801400160311067398001AC DISTRIBUTORS, INCORPORATED                            1601
A6601400120314641810001SACABEN, RICO LEO REBADULLA                              0501
A6601400120314674720001OSITO SOMORAY JR.                                        0501
A3401400280318736732001TERESA A. SANTOS OR MA. AILEEN                          10501
A3401400280318736732001A. SANTOS OR TINA S. ONG                                20500
A2901400130000005961231SAZON, EDITHA MARAVILLA                                  0505
A0101405650000000080093PULGA, JASMIN BAUTISTA                                   0501
A0101405650000006273594*********                                                0501
A0101405650000000080117*******                                                  0501
A0101402510000000200153LPR GRAPHIC DESIGNS                                      0501
A0101402510341381018001DANICA FRANCIA SANCHEZ CAUDAL                            0501
A0101402060351213195001SARINGAN, MARCELA J.                                     0501
A0101402060000000358678DAX VENTURA S. VELANDO                                   0502
A0101409050352694168001********                                                 0505
B0201400760374006430001CHRIST COMMISSION FOUNDATION INC.                        1602
B0201400760000007134596LANTAW SEAFOOD AND GRILL INC.                            1605
A0201400760374681548001ESPINA, RIA LIDIA GELAGA                                 0501
A0201400760374700415001GONZALES, ANTHONY GERARD YBANEZ                          0505
A0101402930000007030888LIM, EDWARD PANTILO                                      0502
A0101415350000007877910QUIBEDO, MELECIA II SIDO                                 0501
A0101402770000006642793SUESS, FLORENCIA GERODIAS DBU                           10502
A0101402770000006642793FGS ENTERPRISES                                         20500
A0101402770000009247218E.U. CRUZ WOODWORKS                                      0501
A0101405490392176390002MELANIE MACARUBBO OR ARTHUR                             10501
A0101405490392176390002MACARUBBO                                               20500
A0101408400000001835150YU, CHUNHUA                                              0505
A0101412210000002714569SANTIAGO, ROCKWEL RAFAEL                                 0501
A0101412210000008654440TREYES, LEAH LAZARO                                      0501
B0101412210000005051370SMART & PLAN CONSTRUCTION AND                           11603
B0101412210000005051370CONSULTANTS INC.                                        21600
B0101412210000007251647SMART & PLAN CONSTRUCTION AND                           11602
B0101412210000007251647CONSULTANTS INC.                                        21600
A0301400820000004746101FAMACION, RAMSEY DBU JARED SUIT                         10502
A0301400820000004746101ES OR FAMACION, BEULAH                                  20500
A0301400820409094648001LADAGA, SHERRYL E. OR LADAGA,                           10501
A0301400820409094648001JOSEPH FRANKLYN                                         20500
A5501400120000002019125GARCIA, JOSIE JAVELLANA                                  0501
A5501400120410789217001LIM, RITZEL DELA CRUZ                                    0501
A2401400180000007031756********                                                 0501
A1201400150421453286001FLORENDA J. ABELLERA OR JAROD                           10501
A1201400150421453286001JAMES A. MANGUNAY                                       20500
A0901400220000006214513**********                                               0502
B0101403030000005944669**********                                               1602
A0101403030441303194001**********                                               0505
A0101403320000010934262ANDREA T. LORIAGA                                        0501
B0101403320471034459001LORDCHEM INTL. CORP.                                     1605
A0101403320471205738001REBECCA MENDOZA OR                                      10501
A0101403320471205738001FLORANTE MENDOZA                                        20500
A0101403320471509879001EDILBERTO BARTOLOME AND                                 10501
A0101403320471509879001RONALD BERCILLA                                         20500
A0101410140000005945231SUNGA, JERILY TANGLAO                                    0502
A1901400320000000679250RUEL FLORES ILAO                                         0501
A1401400110000003063425SANTOS, WILFREDO GASPAR                                  0502
A1401400110492622560001MORATO, CHERRYL DECHAVEZ                                 0502
A1601400170000001069023MARIA TERESA Q. RANOLA                                   0510
A0701400260000006215607DOROIN, DOROTHY NEIL BOTOR                               0501
A0101407430000002298279JERSON B. MASIGLAT                                       0502
B0101407430503036950001PASSAGES MANPOWER, INC.                                  1601
A0101407430503041466001AFCSI-ASIA FREIGHT FORWARDERS                            0502
A0101407430503185437004SHIRLEY B. RENIEDO                                       0502
A0101405940512285942001LEUS, ROMAN OR LEUS, MICHELLE                            0501
A0101408530000007981911PINEDA, MARIA CARMELA ERICA                             10502
A0101408530000007981911LEGASPI                                                 20500
A0101408530516041758001CLAR-US PRINTING ENTERPRISE                              0501
A0101411790000010938737MALALUAN, CHRISTOPHER JOHN P.                            0502
A0101411790000010941103ARAGONES, MA JUVILLE ANORMA                              0501
A0101411790518055815148TAGORDA, MARIANNE TAN                                    0501
A0101403450521238265001**********                                               0502
A0101403450521239620001**********                                               0502
A0101403450521360229001**********                                               0501
A2201400250000003072153BRUCE DANIEL S. RIVERA OR                               10502
A2201400250000003072153GLOTHELDA S. RIVERA                                     20500
B0101411530000000013612J.M. SANVICENTE TRUCKING                                11601
B0101411530000000013612SERVICES INC.                                           21600
B0101413570000000206631MB VERSOZA POWER SYSTEM INC.                             1610
A0101413570000000635596MEMBERS OF NATASHA                                      10501
A0101413570000000635596DOROTEA R. JACIN                                        20500
B1301400210682066886001DE JESUS, GILBERT ESPIRITU DBU FAMI                      1601
A1301400210682405530003MARITA Y. ESPIRITU                                       0501
A1701400230693478374031VILMA D. BAGAY                                           0501
A1701400230000001786752**                                                       0502
A0101408240000003955248TAPALES, LUISA NAKPIL                                    0502
A0101408240711478374015EMILY MONTILLANO                                         0502
A2801400230000002312447PAJELA, MARY JANE LABANDELO                             10502
A2801400230000002312447OR PAJELA, BENIGNO RAMOS                                20500
A2801400230713771317001NACIONAL, NATHANIEL ARZAGA                               0501
A4101400260812444997002MARY ANN SAN DIEGO OR                                   10503
A4101400260812444997002ANTONIO SAN DIEG                                        20500
A4101400260000000002142TAJANLANGIT, JACKIE C.                                   0501
A0101412340000003719146LIALYN L. IBANEZ                                         0502
A0101412340000003438828DIA, ANGELIQUE CHRIS PARIL                               0501
A0101404840851046725002MA GERALDINE F. BOCADO                                   0502
A0101404840000004565953RODULFO, CLARIVEL M.                                     0501
A0101404840851210994001LIGAYA P. GASCON OR                                     10503
A0101404840851210994001MARIA LOVELY DEL                                        20500
A0101405070861207900001LAGMAN, PRIMITIVO MANIEGO                                0501
A0101405070861531594001****************                                         0502
A0601400230891328611001ENGR. NELSON G. LINGAT                                   0501
