B0101405070861821100608**********                                               2002
B0101405070861821100608**********                                               2002
B0101400310211821100608**********                                               2001
B0101400310211821100608**********                                               2001
B0101400310211821100608**********                                               2001
B0101400310211821100608**********                                               2001
B0101400310211821100608**********                                               2001
B0101400310211821100608**********                                               2001
B0101400310211821100608**********                                               2001
B0101407270162059581001PALM CORNED BEEF CORNER INC.                             1601
A3401400280318763645001DESAMPARADO, NOVA NAVARRO                                0505
A0101414120000000875612LACANO JR., EDGARDO BUNSO                                0501
A0101414120000004603110CO, WILBERT KHO                                          0501
A0101414120000000875509RESNA BUILDERS & SUPPLIES                                0502
B5001400170153821100608**********                                               2002
B5001400170153821200608**********                                               2001
B0101400310211821200608**********                                               2001
B3401400280318028083002LEMACEL TRADING CORPORATION                              1610
A0101408370382093446001DR. AGAPITO S. FORTUNO JR                               10502
A0101408370382093446001OR MARICHU D. FORTUNO                                   20500
A0101412890000002747948*************                                            0501
A0101405940512035308001UP-TECH BUILDERS                                         0503
B0101416740010501011041**********                                               2002
A0101400860000002333444**********                                               0501
B0101400860011427569001**********                                               1601
A0101400860011496636002**********                                               0503
A0101400860011498256001**********                                               0501
A0101400860011606340001**********                                               0505
A0101400860011661386001**********                                               0504
A0101401250000000907299CRUZ, JOSEFINA BARIAS                                    0501
A0101400150000002902398SEGOVIA, HENRY FALCATAN                                  0501
A0101400150061465795001GARCIA, ANGELA BLANCA PILATIS                            0501
A0101400150061564610175CHIRDSAK A. BASA                                         0501
A0101400600071720668001*******                                                  0501
B0601400100081253610001WILFREDO M. NG                                           1601
A0101400730000000645410ASIS, REDENTOR CONSTANCIO                                0501
A0101401960000000008095ANG, PAUL GO                                             0502
A0101401830141366498001GRACE I. RIVERA-JACINTO, MD                              0501
A5001400170000002288402DAYMIEL, JOSE MIGUEL MIRANDA                             0501
A0101400440000000596630MARY ANN A. OYARDO                                       0501
A0101401090171195768001CELIA DANGANAN-SAYO OR                                  10504
A0101401090171195768001ERNESTO NICOLAS                                         20500
A0101401090171373185001DAN PAUL A. PATRICIO                                     0503
A0101401090171373185001DAN PAUL A. PATRICIO                                     0503
A0101401090171376119006MARC LADISLA OR JOHN REYES                              10503
A0101401090171376119006OR ALFONSE ADALIA                                       20500
A0301400530193047254189TAGUM TRIO LUMBER CORP.                                  0510
A0301400950196781964001GALOTERA, FRANCIS TENG                                   0501
A3101400160221675534001PIUS WESLEY F. QUIAMBAO                                  0501
B3101400870225054540001ONE SOURCE GENERAL SOLUTIONS INC.                        1602
A3001400130000000007041CHAQ GLASS & ALUMINUM SUPPLY                             0502
B1001400190231272348001LAO, SHERWIN                                             1602
A1001400190231295205002ANG, SIOK BIN                                            0501
A1001400190231520766031CARANO-O, JANFIR JANE V                                  0501
A1001400190000002170656AMELINA E. FACTURA                                       0501
B1001400350233036049001RANTRADE INDUSTRIAL SALES CORPORATION                    1601
A1001400350233539705001SIMBAJON, ELENA P.                                       0502
B1001400350233540058188**************                                           1602
B0401400140241821200608**********                                               2002
A1901400290261245515001OFELIA LUBIS SUBOL                                       0501
B0101406460272021222001ORION WIRE & CABLE INC.                                  1602
A0101406460272336562001SEMILLA, JENELYN PAJINAG                                 0502
A0101411820000001356521ANN CLARIZ T. DE LEON                                    0501
A0101400570000004919068VILLANUEVA, EUGENE LIBONGCO                              0501
A0101400570281453706002SHIRLEY CHEONG TEEHANKEE, M.D.                           0502
B0501400200292036584002SSS EXPRESS CREDIT, INC.                                 1605
A6601400120314041602001LEXTAN GENERAL MERCHANDISE                               0502
A3401400280318478374002PIONELO, LENIDIE DEVELOS                                 0501
A0101405650000002960901BALUBAR, TEODORA VILLEGAS                                0501
B0101405650322024999001SUPERIOR MAINTENANCE SERVICES, INC.                      1630
B0101405650322172207001BF TRADERS MULTI-PURPOSE                                11603
B0101405650322172207001COOPERATIVE                                             21600
B0101402060351009401001PHIL. IRON CONSTRUCTION & MARINE WORKS,                 11605
B0101402060351009401001INC.                                                    21600
A0101402060351566849001YABUT, FELINO CANJA                                      0501
A0101409050352621170001**********                                               0505
B0201400760374031471002PHILPACIFIC INSURANCE BROKERS &                         11610
B0201400760374031471002MANAGERS, INC.                                          21600
B0201400760374033217001DISCIPLING ANOTHER TO LOVE JESUS AS                      1601
A0201400760374478374015DACAYANA, ROSALIE SIBLA                                  0501
A0201400760000000222886JAYME, STEPHEN RODRIGUEZ                                 0502
A0201400890000002270691BALDELOVAR, ALICIA VILAR                                 0501
A0101402770391013439001JIREH'S CAR PAINT SHOP                                   0502
A0101402770391340733001DOMINGO, CESAR ESGUERRA                                  0501
A0101405490000000232453ROMEL P. ALMEDA                                          0502
A0101405490392307722003JIEL C. SANTOS                                           0502
A0101408400394431373001MABANAG, BERNARDO N. OR                                 10501
A0101408400394431373001MABANAG, MERLYN                                         20500
A0101408400394642089001MAQUILING, ELLEN TAMIO                                   0501
A0101408950000000472924VICTORINO, LUIGI MANUELE ARRIET                          0501
A0101408950000001785544MALABANAN, M DBU                                        10505
A0101408950000001785544ONE MEGA LOGISTICS                                      20500
A0101408950000005325428ROSELLON, GERALD ERICK SANTOS                            0502
A0101408950396583694001VILLAGOMEZA, ELSA GUERZO                                 0502
A0101412210000004644519SAN LUIS, CHRISTIAN IAN GARCIA                           0501
A0301400820000002692180SUMAYO, JOSELITO U.                                      0503
A5501400120000001122063NAVARRO JR., ROMERICO BALUYOT                            0501
B2401400180411027465002ROTARY CLUB OF DADIANGAS                                 1601
B2401400180411033012001RUGELA FISHING INDUSTRIES INC                            1605
B2401400180411038988088AIMICAN CORPORATION                                      1601
B2401400180411040906001JOLYROB FISHING                                          1605
A2401400180000000555015ONG, AIRA MAE JAVIER DBU SMARTA                         10503
A2401400180000000555015IRE AIRCON SPECI                                        20500
A2401400180411338845004PERALES, ROBERTO TAN         JT                          0505
A2401400180411478374020MORI, LYDIA                                              0501
A2401400180411680952001ALCOVER, MA. SOCORRO TENAJA                              0502
A0101403030441673721001**********                                               0502
A0101403320000001646631SANTIAGO, LEILANI SANTIAGO                               0502
B0101403320471009043001ABCOR INDUSTRIAL CORPORATION                             1605
B0101403320471015404001COVENANT CHILDREN ACADEMY INC.                           1605
A0101403320471692905001ANTONIO S. CHUA                                          0501
A0101403320471740182001DELA CRUZ, GRACE MARY RAMOS                              0501
A0101406330000001235114VILLANUEVA, JAN KEVIN MALLARI                            0502
A0101406330000000451370VILLARANTE, MARIA LUZ PELAYO                             0502
A0101406330472462878001BENNY S. DE GUZMAN                                       0502
A0101406330000000451249SITYAR, MA. DOLORES SORIANO                              0503
A1401400110492090259001JIMENEZ, ROSEMARIE FLORES                                0501
B1401400110492365609001JEORGE S MALIGAT - PILIPINO HARDWARE AND                11601
B1401400110492365609001CONST. SUPPLY                                           21600
A1401400110000000628502MANALO, GLORIA GARCIA                                    0502
A0101407430503225389002BRIAN A. PINEDA OR                                      10501
A0101407430503225389002MA. ELENA G. ARAGON                                     20500
B0101403580000000383788JER CONSULT CORP.                                        1602
B0101405940000003571806DIVERSIPRO INC.                                          1602
A0101408110000000016731NELSON M. TALAVERA                                       0501
A0101408530000002260139PAREDES, ULYSSES NOLAN CAMARADO                          0501
B0101411400000001280557ROMEO B SIRA DBU RBSS PROJECT MANAGEMENT                11601
B0101411400000001280557SERVICES                                                21600
A0101407720602516697001SOLER, NATIVIDAD DELOS SANTOS                            0501
B0101412180000001293152AGORA TECHNOLOGIES, INC.                                 1603
B0101404260000000156990RB HORTALEZA VACIADOR AND BEAUTY SU                      1601
B0101404260000000157004INTERPRO FOOD SPECIALIST INC.                            1605
A0101404260611150856002CHING, WILLIAM OR TRINIDAD                               0502
A0101404260000003498533JOUSELYN PONTILLAS                                       0501
A0101409920000001951891MEMBERS OF NATASHA (SHOECAT INC                         10501
A0101409920000001951891BARTE, CECILE                                           20500
A0101407690000003207212ACOSTA, BIENVENIDO ABE NARCISA                           0503
A0101413570000003379953MICAWAYAN, ALIMODEN LANTO                                0502
A0101414120000000875572REDESIL CONSTRUCTION                                     0502
A1301400340683075365001DELA CRUZ, JUANITA AMAD                                  0502
A1301400340683552624001ENRACA, MA. THERESA GREGORIO                             0502
A1301400500000003070140ONG, JUANCHO ANGELES                                     0502
A1701400230693478374040BAGAOISAN, DRIANITA CABANILLA                            0501
B2801400100712024577001PHILIPPINE COASTAL STORAGE AND                          11605
B2801400100712024577001PIPELINE CORP.                                          21600
A2801400100712278476001UYGONGCO JR., JOSE ROBERTO JT                            0502
A4101400260812387086001NOEL L. HERRERA OR                                      10501
A4101400260812387086001ALICIA N. HERRERA                                       20500
A4101400390813307928001DELICANA, SHIRLEY DORILAG                                0501
A4101400420814017785001MONZON GENERAL MERCHANDISING                             0505
A4101400420814362781001ECOFILTERS ENTERPRISES                                   0502
A4101400420814478374156OLIVIA V. ALGARA                                         0501
A4101400420814478374171MICHAEL G. RIBOT                                         0501
A4101400420814506413001IBIAS, JOSEPHINE OCAMPO OR                              10501
A4101400420814506413001IBIAS, SEGISMUND                                        20500
A0101404840851046725013MARY JANE A. DE GUIA                                     0501
A0101404840000001312725GUERRERO, EDELMARIE BOBIS                                0501
A0101404840851428321001GUTIERREZ, OLIVER OR ROGELIO                             0501
A0101405070861529478001THELENE OSTAN MANUEL                                     0501
B0101405070861821200608**********                                               2001
