B0101409050352821100608**********                                               2003
A0101412050000004513080GARCIA, JOSEPH FRANCIS BARREDO                           0501
B0901400190431821100608**********                                               2005
B0101411370022821100608**********                                               2001
A0601400520000002270913MICLAT, IMELDA ANCHETA                                   0505
B0301400660000000022846FILIPINAS PORT SERVICES, INCORPORATED                    1605
B0301400660194047373088*****                                                    1602
B0301400660194047387001*****                                                    1610
A3001400130000005446282ARENDAIN, ROBERT CALINGACION                             0501
A3001400130000001271312SHAPE & WELL NUTRITIONAL                                10502
A3001400130000001271312PRODUCTS                                                20500
B0101403450521029235001*******                                                  1605
A0101403610000001174943MIR & RYVI HOME OF ORGANICS COM                          0502
A0101403610531762081001MIRANDA, SUSAN ESPINILI                                  0501
A0101400860000001005489*************                                            0502
A0101400860011504377002**********                                               0503
B0101411370022047151168BARON AGRICULTURAL & INDUSTRIAL COR                      1601
B0101400150061010985001PHILIPPINE SUGAR RESEARCH INSTITUTE                     11605
B0101400150061010985001FOUNDATION, INC.                                        21600
B0101400150061036528001ALTUS COMMUNICATIONS INC.                                1601
B0101400150061047005001BUREAUSERV GLOBAL INC.                                   1605
A0101400150061338964140BENITO LAMBERTE                                          0501
A0101400150061596273001YAP, TYRONE JUSTIN CHAM                                  0502
A0601400100081251899001YALUNG, ROBERT OR MA. CRISTINA                          10502
A0601400100081251899001OR SANTOS, MA. L                                        20500
B0601400100081295398001MALLARI JR., DIOSDADO OR MARY GRACE                     11604
B0601400100081295398001FAO O2 DESIGN                                           21600
A0601400100081552852001SANTOS, MA. LUCILA DIZON OR                             10502
A0601400100081552852001EDWIN MARK                                              20500
A0101410850000003101980**********                                               0501
A0101410850109055892001CABANTING, MARISSA B. DBU                               10504
A0101410850109055892001ERLISH HAULING SERVICES                                 20500
A0101400730111334903034MARCOS DELIN                                             0501
A0101400730111545796001FAMERONAG, NICON FAMARIN                                 0501
A0101401960121379115002ESGUERRA, MA. NIMFA BERNADOS                             0502
A0101401960121464343001**********                                               0502
A0101401830141206435001EMMA G. CHUA                                             0502
A0101401830141409771001ALRIC P. BOBO                                            0501
A0101401830141531808001URGINO, ROBERT VICTOR MOORE                              0501
A0101401830141582040001EDNA FABREGAS HERNANDEZ                                  0505
A7201400170000003773222ARANDING, ARNEIL BALBIN                                  0501
B0101400440161007542001PACE REALTY INVESTMENT INCORPORATE                       1601
A0101400440000000060288ROSELYN T. AMARO                                         0501
A0101407270000006265329DASWANI, MEENA T.                                        0501
A0101407270162331908088MARLON L. ANTOLIN                                        0502
A0101401090171200883001MA. VENICE M. PICADIZO                                   0501
B0301400530193034066168TAGUM COMMERCIAL & REALTY                               11605
B0301400530193034066168CORPORATION                                             21600
B0301400660194047064088CVM PETRON SERVICE STATION                               1605
A0301400660194407464001BOLOSITO, ARLENE REGIS                                   0502
B0301400950000002115731MINDANAONE EXPERTS DISTRIBUTORS, INC.                    1602
A3101400450223352819001FARAON, RIZALINA OR                                     10502
A3101400450223352819001BELEN, RHODORA                                          20500
A3101400870000002861538ALEMAN, EULALIA JAUM                                     0503
A1001400190000002266504MARABE, RIKKA AND LA VINA,                              10502
A1001400190000002266504IRISH OR MARABE, LUIGI                                  20500
A1001400190000002170612**********                                               0501
B1001400480000004097096RUAMAR JR., EDGAR DBU XTRA PAINT CENTER                 11604
B1001400480000004097096& GEN. MDSE                                             21600
A1301400470252478374018ELIZABETH P. BARNACHEA                                   0501
B0101406460272020749001EASTGATE COMPUTER CORPORATION                            1601
B0101406620273031145003KOHL INDUSTRIES CORPORATION                              1601
A0101411110000000009145DAVID, ACE MENDOZA                                       0501
B0101411110276042213088MINOX VALVES AND FITTINGS PHIL. INC                      1601
A0101400570000003891550ABELLA, JENEFE BIRAO                                     0502
B0101400570281046883001SURE CURE PHARMA INC.                                    1605
A0101400570281399721002JOFFREY OR JORDAN UY                                     0501
A0501400200000005751588AGUSTIN, MUELVYN PARAYNO                                 0503
B0501400200000004456913CBE ESTRADA PRIME HOLDINGS, INC.                         1602
A1101400120000003022500GO, LEE HUA UYKIM DBU SOLID                             10505
A1101400120000003022500SALES OR GO SR., SALVADOR                               20500
A1101400120000003981077CERVANTES JR, VIVENCIO V DBU                            10501
A1101400120000003981077VIVENCIO VILLAMOR                                       20500
A3401400280000001723440EDUQUE, JESSIE ECARAN OR EDUQUE                         10501
A3401400280000001723440RUELYN CAPUNONG                                         20500
A0101402350321025863001PROGRESSIVE MASON CLUB                                  10501
A0101402350321025863001(SOUTH MANILA CHAPTER)                                  20500
A0101402350321315650001WONG, JUDY ANG                                           0501
B0101405650322034969001ALPHINELAKE WATER REFILLING STATION                      1601
B0101405650322036086001VISTALAND INTERNATIONAL MARKETING, INC.                  1608
B0101402060351009394002CHEMSERVE INC.                                           1601
B0101402060351009401002PHIL. IRON CONSTRUCTION AND MARINE                      11601
B0101402060351009401002WORKS, INC.                                             21600
B0201400760374044646001FORTY DEGREES CELSIUS INC.                               1603
A0201400760374720031001******                                                   0503
A0101408370000003775031SARMIENTO, AUGUSTO OR SARMIENTO                         10502
A0101408370000003775031DOLORES ELIZABETH S.                                    20500
A0101408370382392437001DR. RONALD S. PEREZ                                      0502
B0101408400000006054593RED POINT BUILDERS PHILS. CO.                            1601
B0101412210000000031552MANTRA RESOURCES CORP.                                   1605
A5501400120410478374002EVELYN P. BOLIVAR                                        0502
A1201400150421478374035DALAN, LINDA G.                                          0505
B0101406330472028479001TRU-SERV MARKETING CORPORATION                           1602
B0101406330000000432944PIPETECH CONST. CO. INC.                                 1602
A0101412760000002067698OCANA, MA. C0NSUELO ESTRELLA                             0502
B3801400170490058565001KRUSTY PATTY PIZZA CORP.                                 1601
A0101407430000006450831BUENO, FERDINAND VICENTINA                               0501
A0101407430000006450860FALLORIN, MYLA BARTOLO                                   0501
B0101403580511015363076MEC - TMR 2                                              1602
B0101405940512031122001SOLIDGROUP TECHNOLOGIES, CORP.                           1605
B0101408530516032240001BEL-AIR VILLAGE ASSOCIATION, INC.                        1605
B010141179051805692200188 INFINITY LENDING POOL INC                             1601
A0101412050000002314472PINGOL, ANTHONY FERNANDEZ                                0501
B0101403450521035140001**********                                               1602
A0101404000551153238001KATIGBAK, VIRGILIO J.                                    0501
A0101407720602296819002MA. LOURDES G. GOZALI OR                                10502
A0101407720602296819002VICTOR K. GOZALI                                        20500
A0101407720602396413002DR. RAMON FRANCISCO OR                                  10502
A0101407720602396413002IRENE FRANCISCO                                         20500
B0101412180000001293083CAPTIVEIGHT INC.                                         1605
A0101404260000003498471TALISAYSAY, LEO DBU ARVADA WAYS                          0502
B0101404260000004781200G1CAFE INC.                                              1601
A0101404260611151571002*******                                                  0504
A0101404260611636432001DEDEL, MARY ANNE MAKASIAR                               10504
A0101404260611636432001AND KENNETH DEDE                                        20500
A0101406590000000568758BAUCA, MYRA MEDRANO                                      0501
A0101406590662470961001VALMOCINA, ESTRELLA C. OR                               10510
A0101406590662470961001GUTIERREZ, MARY                                         20500
A1301400340683361153001LICAROS JR, ALEJANDRO LAGPAO OR                         10502
A1301400340683361153001LICAROS, ELSA R.                                        20500
A1301400340683501003001GO, LLOYD CHUA OR CHERYL B GO                            0502
A1301400500684058869001YOUNG BUILDER'S TRADING                                  0501
A0101408240711748102001GASTON, SANDRA MONTECILLO                                0501
A2801400230000001782094PARPAN, MARILOU DBU VISTA RENT                          10503
A2801400230000001782094A CAR OR PARPAN, EDDIE N.                               20500
A4101400550000000315062SUSON, STEVEN OGABANG                                    0501
A0101412340000000484771TOMPONG, NORDAN POLI                                     0502
B0101404840851009292001GEMSTAR MARKETING                                        1605
A0101404840851217637031JOSELITO DANCEL                                          0502
A0101405070861197650002********                                                 0502
A0601400230000000452839ARCINUE, S DBU SLA ENTERPRISES                           0502
