A0101407720602542559001JOSEPH BATAC OR JECEVEL BATAC                            0501
A0101412340000006225349MA. FATIMA B. INFANTE                                    0501
A0101412340000003719664NORIEL D. VILLAREAL                                      0501
B0101406460000001231703T.A.G. MINERAL RESOURCES, INC.                           1605
A0101402350000001474324MARTINEZ, KENNETH BUHAT                                  0501
B0101402350000000655492RD PAWNSHOP, INCORPORATED                                1603
A0101408370382391120001DR. SALVADOR M. EUSTAQUIO                                0502
A0101412890000002324192*************                                            0503
A0101412890000005945031************                                             0504
A0101403320471387853001MIRANDA SR., DESIDERIO LUMBANG                           0501
A0101411790518055764249FERNANDEZ, JACQUELINE ROSE C.                            0501
A0101400860011412003001**********                                               0505
A0101400860011429714003**********                                               0502
B0101400860011496636002**********                                               1603
A0101400860011522544001**********                                               0503
A0101400860011532614001**********                                               0502
A0101400860011687970001**********                                               0502
B0101400150061016166001XPLORE PHILIPPINES, INC.                                 1608
B0101400150061016361001ZONTA CLUB OF MAKATI                                     1610
B0101400150061040542001MEGABUILD 101, INC.                                      1603
A0101400150061231736002PUNO, CARMELITA DE MESA OR                              10501
A0101400150061231736002SANTIAGO, MA. SO                                        20500
A0101400150061314942001CORPUS, SALVADOR BAYOT OR                               10501
A0101400150061314942001CORPUS, MIA THERESA Q.                                  20500
A0101400150061380452001EUGENIO, JUDDEUS ABADILLA                                0501
B0101400600000001335819********                                                 1602
B0101400600000001335820********                                                 1601
B0101400600000001335831********                                                 1601
A0101405810072312400003************                                             0501
A0101405810072328069001VASQUEZ, SOCORRO                                         0502
A0101405810000000016560***************                                          0502
B0101405810072507268003**********                                               1601
A0601400100081033029001KSC SHUTTLE SERVICE                                     10505
A0601400100081033029001BY: KRISTINE S. CRUZ                                    20500
B0601400100081295509001SALVADOR, ROWENA AND SULA, REGINA AND                   11605
B0601400100081295509001TAN, WILFREDO                                           21600
A0101413730000000144670*****************                                        0501
A0101410560000003562116**********                                               0502
A0101401830000001281910DE GUZMAN, CONCEPCION FRANCISCO                          0501
A7201400170000000040597AZUCENAS, IMELDA VERDIDA DBU                            10502
A7201400170000000040597P & D MANPOWER SERVICES                                 20500
A5001400170000002288311VILLAMIL, MARISSA PULIDO                                 0501
B5001400170000000045025S. A. MALON LENDING CORP.                                1601
A0101400440161039572036ANTONIO S. VILLANDA JR.                                  0501
B0101407270162046726001VALUE CARE HEALTH SYSTEMS, INC.                          1650
B0101407270162046726001VALUE CARE HEALTH SYSTEMS, INC.                          1650
A0101407270162739083005RICHARD A. CHAN                                          0501
A0101401090171031166001GEA CABLING SERVICES                                     0502
A0101401090171032179001AJMLARA & ASSOCIATES                                     0504
A0101401090171403296002JOAN CHRISTI S. TROCIO                                   0502
A0101401090000000993411UY, ROBERTO NICOLAS                                      0501
A0101401090171673469002MARCELO, CIELO MARIA CASTRO                              0501
A0301400660000000194592*****                                                    0501
B0301400660000003368381NEXT BPO SOLUTIONS, INC.                                 1602
A0301400660194737283088ZHI VENUS INDUSTRIAL SUPPLY                              0501
A0301400660194739252001COMO, MYRA CASTRO                                        0501
A0301400790000002301393BARCELONA, JANET TIZON                                   0501
A0101401380000000026877RUPIDO, GERALD DELOS REYES                               0502
A0101410720000000211930NAPOCOR VILLAGE MULTI-PURPOSE                           10501
A0101410720000000211930COOPERATIVE                                             20500
A0101413600000002122270JUANCHO D. CAALIM                                        0502
A3101400160221222984001THELMA M. PASTRANA                                       0502
A3001400130000005708465MARASIGAN, PAULITA PAZ SALUDEZ                           0501
A1001400190000000016468NERI, JENNY RACAZA                                       0501
A1001400350000000245361PAJO, APRIL TABIAN                                       0501
A1001400350233478374020ELMA O. GAWAT                                            0501
A1001400480000000133279**********                                               0502
B1001400480000000133593DELUXE RANCH TRANSPORT CORPORATION                       1602
B1301400760000000050717EJA AGRITECH CORPORATION                                 1605
B0101406460000000182461********                                                 1601
A0101406620273502279001LOTILLA JR., PERPETUO MERCADO                            0501
A0101410980000005709582PASAGUI, RYAN REY LIM                                    0502
A0101411820000002328452GENISES C. SOLOMON                                       0505
A0101400570281192945001MINDA D. BUENVIAJE                                       0502
A0101411240000008592725DIOSANA, FRANZIA ZAMUDIO                                 0501
A6601400120314071890001MARTIRES, MYLA TURLA                                     0502
A0101402350321683053001NOVA N. NICOLAS                                          0501
A0101402510341197758001CARMINA P. CATAPANG                                      0501
A0101408370000006446240CRUZ, JOHN CHRISTIAN DE LEON                             0505
A0101408370382408402001DR. RAUL V. DESTURA OR                                  10505
A0101408370382408402001BABY ASUNCION B. DESTURA                                20500
A0101408790000000579266BARREIRO JR., ANTONIO CEFERINO                          10502
A0101408790000000579266VILLAR                                                  20500
B0101408790383039290001AUTO SOURCES INC.                                        1605
A0101415350000005085081SALAPARE, LOUIE AURELIO AGUILAR                          0501
B0101402770391009441001ST. ANTHONY HOMEOWNERS' ASSOCIATION INC.                 1602
A0101409180000005326472DEL ROSARIO, CARINA SAMSON                               0501
A0101409180397696150001MARINO, SALVY OR MARINO, HECTOR                         10501
A0101409180397696150001OR NAVOA, NANETT                                        20500
B0301400820000005991871ARCHIMED VENTURES INCORPORATED                           1603
B0301400820409091735055LIMA, WINDELL BRISTOL DBU DAVAO HOME                    11605
B0301400820409091735055BUILDERS CENTER                                         21600
A5501400120000002019023PINGOY, ALBERT YUSAY                                     0504
A5501400120410641408002GASCON, MERCEDITA TALAPIAN                               0505
B2401400180411032398088ECCO HARDWARE, INC                                       1620
A2401400180411075579001JALALAGTOY, MARVIN SUAREZ                                0501
B0901400220432044564001MARCIAN CONVENTION CENTER                                1610
A0101412890000005944921CAMACHO, ARMIN CAMAMA                                    0501
A0101403320000001803189KHONG HUN, ARMANDO OR KHONG HUN                         10501
A0101403320000001803189MARY KATHLYN                                            20500
A0101403320000008595640TAGLE, MARVIN JOHN YANG                                  0501
A0101406330472035709001MUSIC101 MUSIC TRAINING CENTER                           0501
B0101406330472040053001KUS OFFICE SYSTEM MFG. CORP.                             1603
A0501400170481252349002LALAS, MAEVA DELA CRUZ                                   0502
A0501400170000002357473QUINTO III, ALFREDO ARZADON                              0503
A3801400170000005288042DE LEON, JESITA CACHA  OR                               10502
A3801400170000005288042DE LEON, ANTONIO ROXAS                                  20500
A1901400160000005794927CLEOFE, LOURDES PEREZ                                    0501
A0101407430503400693001CHITO S. ANONUEVO                                        0501
A0101403580000005961873NOLASCO, GIL DBU FAR EAST                               10502
A0101403580000005961873INDUSTRIAL SALES&TOOLING                                20500
B0101403580000004558721JOUBERT CONSTRUCTION INC.                                1603
A0101403580511156579014IMELDA FUNDALES                                          0502
A0101405940000000505673MATURAN, MARITESS SANTOS                                 0502
B0101405940512037554001THE COVENANT CAR COMPANY, INC.                           1603
A0101405940512363820001FELIX GO CHUNG                                           0501
B0101405940512539189001FILLED BY GRACE INC.                                     1604
A0101406880513565496025MARIA DIVINA T. OBEDIENCIA                               0501
B0101408110000000016640PHILIPPINE VETERANS BANK - TRUST &                      11601
B0101408110000000016640MANAGEMENT GROUP                                        21600
B0101408110000001199191PHILIPPINE VETERANS BANK - TRUST                        11601
B0101408110000001199191MANAGEMENT GROUP                                        21600
B0101408110000001199271PHILIPPINE VETERANS BANK - TRUST &                      11601
B0101408110000001199271MANAGEMENT GROUP                                        21600
B0101411400000001280524GCURRIE INC. DOING BUSINESS UNDER T                      1603
B0101411790000004808106SPECTRUMED INC.                                          1603
B0101403450521238061002**********                                               1602
A0101403450521239750002EDDIE L. CHUA                                            0502
A0101403450521240285002**********                                               0502
A0101403450521366584002ONG, PABLO JAPCO                                         0501
A2201400250561478374060MARIAN S. BANAAG                                        10501
A2201400250561478374060MEMBERS OF NATASHA                                      20500
B0101404130601035484001CARE BEST INTERNATIONAL SECURITY                        11604
B0101404130601035484001SERVICES, INC.                                          21600
A0101404260611478374012RUBEN P. SANTOS                                          0501
A0101404260611522264001CHONG, KIMSFER SY OR JANICE JAO                          0501
A0101413440000000702269PERALTA, BUENAVENTURA MARASIGAN                          0502
A0101413990000001947128MARS STONE SUPPLY                                        0502
A0101410300000000919488ALEJANDRIA, ANGELITO S.                                  0501
A1301400340683478374039ABAOAG, CELIA SALVADOR                                   0502
A1301400500684594780002CASTRO, RAYMUNDO OR                                     10502
A1301400500684594780002CASTRO, ROSEMARIE                                       20500
B1301400500684654056001BEQUIZO, MA. ANTONETTE M.                                1603
A0101408240000000005461SANCHEZ, MARIANO ALTOBAR                                 0501
B0101408240711033951001MILCOR MANAGEMENT CORPORATION                            1602
A0101408240711292762001HERMINA H. TAGAYUN OR                                   10501
A0101408240711292762001CRIS B. TAGAYUN                                         20500
A0101408240000003501362RICAFRENTE, MA. ANALYN DELFIN                            0502
B2801400100712023513001SMA FUELS INC.                                           1601
A4101400390000003346103YABUT, ANNALIZA GAMBOA DBU AGY                          10501
A4101400390000003346103MANAGEMENT SERVICES AGENC                               20500
A0101412340000003343193ROY R. FERRER                                            0501
A0101412340000006326547GRACITA P. GOSIENGFIAO                                   0501
A0101412340000004360212PATRICK MARTIN R. DELA CUEVA                             0502
B0101412340000000031045ANCIENT MOUNT CONST. INC.                                1601
A0101405070861197752001GARBRIEL RIPOLL, JR. OR                                 10505
A0101405070861197752001MARGARITA V. RIPOLL                                     20500
A0101413860000000145008GALICIA, MARY ANN GONZALES JT                           10501
A0101413860000000145008DAVID, ERLINDA                                          20500
B06014002300000036448207R FINANCE CORP.                                         1605
