B0101402060351821100608**********                                               2005
B0101400570281821100608**********                                               2005
A2401400180411574010001TUPAS, KHERYL PARRENO OR                                10502
A2401400180411574010001TUPAS, NINA LEONILA                                     20500
A0101400440000000596641LUZVIMINDA EVANGELISTA                                   0502
A0101400440161563348001GERALDINE C. LUMAGDA                                     0501
B0301400660000000022824PHILSAGA MINING CORPORATION                              1605
A0101400440161478374181GERALDINE N. CUTLER                                      0501
A0101402930000000859725YLALIM, JENALYN ALZULA                                   0501
B0101402930381022284001INVESTORS ASSURANCE CORPORATION                          1601
B0501400170481020083003COLEGIO DE DAGUPAN, INC.                                 1620
B3801400170000000955131VIC IMPERIAL APPLIANCE CORPORATION                       1603
A0101400860000001348738************                                             0501
A0101400860011088429001**********                                               0501
A0101400860011405002004**********                                               0503
A0101401250000000907131PERICO, AURORA ATIENZA                                   0501
A0101401250000004374618MACOCO, CRISTOPHER MAGBANUA                              0502
A0101400150000005794512MARIA CRISTINA T. RAMOS OR                              10501
A0101400150000005794512RENAN M. RAMOS                                          20500
B0101400150061010779001DIAMOND STAR AGRO PRODUCTS, INC.                         1610
B0101400150061057491001REBELSTUDIOS INC                                         1605
A0101400150061226983001AGNES ADELA V. ALCID                                     0501
A0101400150061468533001LO, NONIE YOUNG                                          0503
B0601400100081251716001MUNOZ, JESUSA E.                                         1601
B0601400360083037368002CLARK INVESTORS AND LOCATORS ASSOCIATION                11602
B0601400360083037368002(CILA)                                                  21600
A0101414090000001652433YUN, JANGSIK                                             0502
A0101410850000003503820STA. MARIA, R DBU MSCR TRUCKING                          0503
A0101410850000000472428RAFOLS, R DBU REY RAFOLS ENTERP                          0510
A0101410560000005280440**********                                               0502
A0101410560000001291032VILLACIETE, DAHLIA SAPE                                  0502
A0101400730000000833301LORENO, MA EDNA DELICANA                                 0501
B0101400730000000002591*****                                                    1601
B0101401960121238769001**********                                               1602
A0101412630000006694193BOTE, CHONA TIONGCO                                      0501
A0101412630000006699383TIRONA, MA TERESA PUNO                                   0501
A0101413310000006695892BANQUIL, JENNIFER RIVERA                                 0501
A5001400170000003324132LACAYA I, LOUIS FELIPE BERMUDEZ                          0501
A0101412920000006688380OCTAVIANO, MARITES GOMEZ                                 0501
A0101400440000004901495GENELYN C. RODILLA                                       0501
A0101400440161459294001MARY ANN T. REGINALDO                                    0502
A0101400440161520766101FE M. GLODO                                              0501
A0101400440161525001112JELLIE ANN D. LOMAHAN                                    0501
A0101407270162300223002DANIELA A. PAYAWAL OR                                   10501
A0101407270162300223002SERGIO B. PAYAWA                                        20500
A0101407270162507882001ALETH ARTHER M. ONG                                      0501
A0101401090171232456001DRS. ALBERT OR DAISY ISMAEL                              0503
A0101401090171415824001MARIA CATALINA GO OR                                    10502
A0101401090171415824001APOLINARIO GO                                           20500
A0301400790000001776183SAMSON, PETER JOHN PIELAGO                               0501
A0101401380201776189001********                                                 0503
A0101410720000004626380**********                                               0501
B0101410720653035012001GENERIC SAVES DRUGSTORE                                  1604
A0101410720000000008642MC BUILT ENTERPRISES                                     0501
A0101410720653175575001ORIZA OR OSCAR INOCENTES                                 0501
A0101410720210228523001VIGILIA, REYNALDO ROBLES OR                             10501
A0101410720210228523001VIGILIA, ELEANOR GAY CRUZ                               20500
A0101410720653565189001VICTO, BERNARD KING QUIJANO                              0501
A3101400450223028468001NEW ARMSTRONG SECURITY AGENCY                            0502
A3101400450223223458004ALVERO, LEAH AURORA TOLENTINO                            0501
A3101400450223550865002LOPEZ, CELIA CONDUCTO                                   10501
A3101400450223550865002OR LOPEZ, PAOLO                                         20500
A3001400130000000068211BATTAD, ARNULFO RICAFORTE                                0501
A3001400130000000067183CURITANA, COLEEN BARRIENTOS                              0502
A3001400130230796142001TANO, MERLINA RAGAS                                      0501
A1001400190231427280002GAYAPA, JESSICA GADIAN                                   0502
A1001400480000000606819TAN, LYDIA OR TAN, OLIVER                                0505
A1301400470000003270500CONSTANTINO A. LACSAMANA                                 0501
B1301400470000003270113OBRIGADO LENDING INVESTOR, INC.                          1601
A1301400760000000050499PAOLO'S TRUCKING                                         0505
A1901400290261513732001ROSELLE MARIE DE LEON AZUCENA                            0501
B0101401670000000016300NEWLINE INDUSTRIES, INC.                                 1603
A0101406460272192255001DY, SIOTKENG G.                                          0510
A0101406620273301500005MENDIOLA, GABRIEL JOSE E.                                0501
A0101406620273587784001MENDIOLA, JOCELYN OR MENDIOLA,                          10501
A0101406620273587784001GABRIEL OR TANCH                                        20500
A0101411820000000589408ARLYNE B. BRANDA                                         0503
A0101412470000005380296ABAD, YOLANDA SOCORRO QUIRINO                            0501
A0101412470000002136061ROMAN, ROSANNA RELUCIO OR                               10505
A0101412470000002136061LORENZANA, ANGELA ROWENA                                20500
A0101400570281186881002SANTAMARIA, MA. ZENEIDA SERRANO                          0502
A0101400570281200404001SAMUEL Y. LIM OR BETTY D. LIM                            0501
B0501400200000000035710GOLDEN DRAGON MOTOR SALES CORP.                          1601
B0501400200292043488001BEJ LENDING INVESTOR CORPORATION                         1601
A2601400270000002677547MILA R. VALDEZ                                           0503
A6601400120000001370490GALIT, VERNIE GAZO DBU RVG                              10501
A6601400120000001370490DIGITAL PRINTING                                        20500
A6601400120314668441002MASLOC, SHERRY AMOR GALONO                               0501
B3401400280000004959173MENN LOGISTICS SERVICES INC.                             1602
B0101402350321046288001TMI FOOD PROCESSING & DEV. INC.                          1602
B0101405650000000772743BF FEDERATION OF HOMEOWNER ASSOCIATION                   1601
B0101402510341196738001BERNARDO MAINTENANCE SERVICES                            1602
A0101402510341198085001DR. ANTONIO N. MIRADOR                                   0502
A0101402510341487199001NESTOR B. ESTABILLO                                      0501
B0101409050352043882001NONITO SHOES AND BAGS SUBCONTRACTOR                      1605
A0101409050352047884001SSTSHIPPING CORPORATION                                  0501
B0101402930381038648001LARGEN MED INC.                                          1606
A0101405490000000444513RYAN MARCK WONG JIMENEA                                  0501
A0101405490392024649001T.G. MONTEJO WELL DRILLING &                            10503
A0101405490392024649001FABRICATION                                             20500
B0101405490000003905184NORTHSHORE HARDWARE AND CONSTRUCTION                    11602
B0101405490000003905184SUPPLY                                                  21600
B0101408400394030962004H B C INC. - MARKET MARKET BRANCH                        1603
A0101408400394039740001KAINAN SA STAFFHOUSE                                     0510
A0101408400394478374087JANET L BASSIG                                           0502
B0101409180397024348001APPLESEED MONTESSORI INCORPORATED                        1601
A0101409210000006695209ACERO, LANI AFABLE                                       0501
A0301400820000002272055DELA VICTORIA, MERLE D.                                  0502
A1201400150421253953001CRISTINA F. TEJADA                                       0503
A0101403320000001803338CALAQUIAN JR., RUBEN NUGUID                              0502
B0101403320471009122001ELDRICH FOODS CORPORATION                                1603
B0101403320471019960002DIRECT ELECTRIX EQUIPMENT                               11601
B0101403320471019960002CORPORATION                                             21600
B0101403320471030317001UPLIFT PHILIPPINES INC.                                  1605
A0101403320000006026740RIVERA JR., EUFROCINIO PASCO                             0502
A0101403320471543698001JONATHAN R MANUCAT                                       0501
A0101410140000001940001VALENCIA, CECILIA PULIDO                                 0502
A3801400170000005287910MARIE VIC LOZANO NG                                      0502
A0101407430000004687403JUDITH R. VILLACRUCIS OR                                10505
A0101407430000004687403LUZ C. AMORES                                           20500
B0101405940512041188001PREMIUM WINE EXCHANGE INC.                               1601
B0101408110515044994001GOLFERS MONEY EXCHANGE                                   1603
A0101412050000001499669NOVEDA, RODRIGO GAPASIN                                  0501
A0101403450000001637976*********                                                0501
A0101403450521012086001**********                                               0502
A0101403450521237287001*********                                                0501
A2201400250000001066006BERLYN T. COSTALES OR                                   10505
A2201400250000001066006JOYCE D. GOMEZ                                          20500
A0101407720000000713073ARLENE GRACE RODRIGUEZ MD                                0501
A0101407720602398798001AVANCENA, MARIA CORAZON MONZON                           0501
A0101407720000000713120VIZCARRA, MELINDA JAVIER                                 0502
A0101412180000006696811DIZON, MENCHIE VIDUYA                                    0501
A0101412180000006696851DY, FRANCIS JOSEPH MANIQUIS                              0501
A0101412180000006696884GARCIA, LIBERTY PINEDA                                   0501
A0101412180000006696920LOCKE, ROBERT ALEXIS                                     0501
A0101412180000006696953MAGLEO, RONALD GERALD PAMPOLINA                          0501
A0101404260000001725231MARAAN, ELMER MEDINA                                     0501
A0101404260611312084001CHING KIN NAM OR ROSA CHING                              0502
B0101413440000000038213ROMBE PHILIPPINES, INC.                                  1605
B0101414120000000399100LPA AND PARTNERS CO.                                     1601
B0101406590662378975003SULLERA, CHARMAINE M. AND                               11601
B0101406590662378975003LANOT, OLIVIA S.                                        21600
B0101410300663082813001DELTA GRID POWER SYSTEM CORPORATION                      1603
A1301400210682435928001EMMANUEL DC RAMOS                                        0501
A1301400340683353482001MARLENE R. JOSE OR JOSE MARI R.                          0502
A1301400340683678684001BAGOAN, MAOKI IBRAHIM                                    0501
A1301400340683764616001DAZO, CHASTITY AILEEN CALONZO                            0501
A1301400340683795151001ASIATICO, VIOLETA ZUNIEGA                                0501
B1301400500684046266001NORTHGATE PROPERTY VENTURES, INC.                        1601
A1301400500684594780002CASTRO, RAYMUNDO OR                                     10502
A1301400500684594780002CASTRO, ROSEMARIE                                       20500
A1701400230000000097858TAYLAN, ALEJANDRO BAPTISTA                               0502
A2801400100712311102001CHARINA N. HIPOLITO                                      0501
A2801400230000001782083DE GUZMAN, LITO C. DBU D.G.L                            10502
A2801400230000001782083MOTOR WORKS & GEN. SRVS                                 20500
B4101400390813019416002STI COLLEGE-ROSARIO, CAVITE, INC.                        1602
A0101404840000005396990OLASCO, REY BERNALDEZ                                    0501
B0101404840000003069685CHOWLEEMIEN FOODS INCORPORATED                           1605
A0101406750852519587001DE LEON, ENECIA VILLAGOMEZ                               0502
A0101413860000000859092GACULA, SARAH JUNE ALAS                                  0501
A0601400230000000990052DAYAO, MARIBEL MASIBAC                                   0502
A0601400230000003638857DIZON, ELIZABETH OLARTE                                  0501
B0601400230891040013001OCAMPO'S METROSALES INC.                                 1602
