B0101403450521821100608**********                                               2030
B0201400210371821100608**********                                               2010
A0301400530000001010040MENGUITA, KAREN JANE ONGBAY                              0502
B0301400530193641218168********                                                 1602
A0601400520000002086017**********                                               0503
A0601400520000002271012VINOYA, MARIA THERESA E OR                              10501
A0601400520000002271012VINOYA, EVANGELINE E                                    20500
B0201400210371821200608**********                                               2002
A0101408400394078250001MALA, ARATOC DISOCOR                                     0502
A0101400860011500268001**********                                               0502
A0101400860011546416001**********                                               0502
A0101400860011605108001**********                                               0503
A0101400860011618820001**********                                               0505
B0101400150061018828001DOME CAFE FRANCHISE CORP.                                1610
A0101400150061720595056SHERENE P. LLAVE                                         0501
A0101400600071234544002CHOW, ALICIA CHUA                                        0502
A0101410850000003503831BRABANTE, RYAN GELITO                                    0502
A0101410850109053560002HERNANDEZ, JUNE JT DBU JUNE AND                         10502
A0101410850109053560002YVETTE TRUCKING                                         20500
A0101410850000003503482CANILLAS, MARTIN LAPPAY DBU                             10502
A0101410850000003503482MARCCHARM INDUSTRIAL                                    20500
A0101401960000002331755*************                                            0502
A0101401960000001844599*****************                                        0501
A0101401830141206536001PEDRO S. FLORES OR                                      10505
A0101401830141206536001IRMA G. FLORES                                          20500
B5001400170000000169880WEE, VERNA L. AND PONCE, RECILMA N. AND                 11601
B5001400170000000169880RAMOS, CATHERINE                                        21600
A0101412920000000585757ACUNA III, EMILIANO S.                                   0502
B0101407270162037605002MAINE CITY PROPERTY HOLDING CORP.                        1605
A0101407270162163292001ANICETO P. GO                                           10502
A0101407270162163292001OR MILDRED GO                                           20500
A0101401090171478374008FERNANDO J. DELA CRUZ                                    0502
B0301400530193034066168TAGUM COMMERCIAL & REALTY                               11650
B0301400530193034066168CORPORATION                                             21600
A0301400530193585849001COSMENO, MARINEO C.                                      0502
B3101400160221025078001FUKAI RUBBER PHILS. INC.                                 1601
B3101400160221028210002GOLDEN DRAGON MOTOR SALES CORP.                          1603
B3101400160221043434001NY SAN FELIX LTD. CORP.                                  1602
B3101400450223018245001PERLA COMPANIA DE SEGUROS, INC.                          1604
B3101400740000000013947KU, KUO JEN AND                                         11602
B3101400740000000013947KARUNUNGAN, AURO                                        21600
A1001400190231520766125YANA, MAYFLOR DAGOC                                      0501
A1001400190231629873001BOMEDIANO, ANASTACIA SEMAFRANCA                          0502
B1001400480000003028931BELICAN, ALDIN TORNIADO DBU BELICAN                     11602
B1001400480000003028931TRUCKING                                                21600
A1301400760000001295472WILLIE ONG DBU FUEL ZONE                                10505
A1301400760000001295472GASOLINE STATION                                        20500
B0101401670000000178512MANA ASIAN SENSATIONAL SPA CO.                           1601
B0101406620000000962501SEENERGY MULTI-PURPOSE COOPERATIVE                       1601
A0101406620273326896009HU, JACK HO                                              0502
A0101408660274547172001BELMES, MARIBEL DEPAUDHON                                0502
A0101400570281186530001CARLOS AGUILA OR                                        10502
A0101400570281186530001MERCEDES AGUILA                                         20500
A0101400570281186603001DR. RESTITUTO C. BUENVIAJE                               0504
A0801400160311298552119EDNA A. FADERUGAO                                        0502
A1101400120000003197095IBANEZ, JENNY LIND BUENO                                 0501
A6601400120000001065263AMANDE, BEATRIZ NALAZON                                  0501
A6601400120314622580001SOSING, CAROL O. OR FELIPE A.                           10505
A6601400120314622580001OR CAROLYN O.                                           20500
A6601400120314674720001OSITO SOMORAY JR.                                        0501
B0801400320320821100608**********                                               2002
B0801400320320821200608**********                                               2002
B0101402350321035857001MOBICAR TRADING CORPORATION                              1602
A0101402350321415696003MANGUBAT, PAOLO TOLENTINO                                0501
A0101402350321708802001ALMAROSE C. VILLAPANDO                                   0501
B0101409050352036822001WAX IN WAX OUT WAX SALON INC.                            1605
B0201400920000000048020DONG JUAN CENTRAL CORPORATION                            1601
B0101402930381040393001RESOURCE ONE CORPORATION                                 1601
B0101402930381047467001FLUID SOLUTIONS, INC.                                    1601
A0101402930000000053363CALINGASAN, R DBU 2C ENTERPRISE                          0502
A0101408370382502527001DR. NARCISA Q. FAJARDO OR                               10502
A0101408370382502527001DR. MA. FLORENTINA GOMEZ                                20500
A0101408790000002031463CASTANEDA, CAMILLA ANN LASALA                            0501
A0101405490000000444557LEO ERAYA PIANGCO                                        0501
A0101405490000001092626LOUIEDALE S. STA MARIA                                   0502
A0101405490392170537002LORNA V. TUGADE                                          0501
A0101408400000002921279DESQUITADO, CYNTHIA NALING                               0503
B0101408400000002386223SUNRISE ULTIMAX ASIA INC                                 1601
A0101408400394310173001SANCHEZ, JOEL CASTILLO                                   0503
A0101408400000001213512GUEVARA, NORMA RAYOS DEL SOL                             0501
B0101409180000004959828Z-WELL PHILIPPINE REALTY DEVELOPMENT                    11605
B0101409180000004959828CORPORATION                                             21600
A0301400820000005196716PEREZ, DEMETRIO C. OR PEREZ,                            10501
A0301400820000005196716MARYBETH S.                                             20500
A0301400820000002692180SUMAYO, JOSELITO U.                                      0503
B2401400180411056764001RD PAWNSHOP, INC. - GENSAN REGION                        1603
A2401400180411478374047YOLANDA L. NINGAL                                        0501
A1201400150000001863276KLEMSON MEDICAL SUPPLY                                   0502
A0101412890000003883767LIBRON, ZENIA ELOISA GELBOLINGO                          0501
A0101412890470340665001POLICARPIO, WILMA D. OR                                 10501
A0101412890470340665001POLICARPIO, REYMIL C.                                   20500
A0501400170000005002953ORFINADA, TERRY A. OR                                   10502
A0501400170000005002953ORFINADA, ALBERTO R.                                    20500
B0501400170481018109002****                                                     1605
A0501400170481046585002ANG, JUSSLYNN DBU                                       10502
A0501400170481046585002AVS DISTRIBUTION                                        20500
B0501400170481060681001RAEL KITZ CORPORATION                                    1601
A1401400110492433218001MILLA, MAYNARD BUSTAMANTE                                0501
A0101403580000000922678FERMIN FRANCISCO OR                                     10503
A0101403580000000922678MA. CARMELA FRANCISCO                                   20500
B0101408530516005188001SEARCHERS & STAFFERS CORP.                               1605
B0101408530516524823001SL TEMPS INC.                                            1605
A0101411790000006647603CAYANAN, MYRA FACTOR                                     0501
A0101411790000006647636GALANG, EFFIE CAMPOSAGRADO                               0501
A0101411790000006647670GARCIA, MICHELLE ICABANDI                                0501
A0101411790000006647692GATCHALIAN, RACHELLE JOY NARVAS                          0501
A0101411790000006647738GLAZER, CHERRYL MORANO                                   0501
A0101411790000006647818JORVINA, GERRY MALABORBOR                                0501
A0101411790000006647841JORVINA, JOSEPH MALABORBOR                               0501
A0101411790000006647881MANATA, ARNEL LLABORE                                    0501
A0101411790000006647932NAZARENO, MARIANNE LORRAINE FRA                          0501
A0101411790000006647961PAULINO, FLORENTINO DISTOR                               0501
A0101411790000006648008SAUADAN , SHIRLEY MABBORANG                              0501
A0101411790000006648053VILLANUEVA, RONABETH I.                                  0501
A0101403450521238172001**********                                               0501
B0101404130000002121562GOLD NUGGETS HAULING AND TRUCKING CORP.                  1602
B0101404130601621189001PROPEL MANILA 360, INC.                                  1602
B0101407720000000885689THE CATHAY DRUG COMPANY, INC.                            1605
A0101407720000001393324FORES, LEO BIENVENIDO MANUEL                             0503
A0101407720602443838001GONZALES, DENNIS MALDO OR                               10501
A0101407720602443838001GONZALES, RIZALINA PICO                                 20500
A0101407720602488057001LAMBAN, ARLENE BAYLA                                     0501
A0101404260000005446904**********                                               0502
A0101404260611150840001WILLY CHING OR ISIDORA CHING/                           10505
A0101404260611150840001GOLDSUN LUMBER                                          20500
A0101407690000000154750BARANGAN, ROMEO DBU                                     10503
A0101407690000000154750BARANGAN TRADING                                        20500
A0101407690652520766005GILNNA M. MALIGAT - DEALERS OF                          10501
A0101407690652520766005SHOECAT INC.                                            20500
A0101407690652520766022ELVIE GALENDEZ - DEALERS OF                             10501
A0101407690652520766022SHOECAT INC.                                            20500
A0101411530000002260242**********                                               0501
A0101413440000000702441ANTONIO, GINA ASIS                                       0501
A0101413990000000206033MARITES R. CONANAN                                       0502
A0101410300000000026462SYCIP,JOHN CARLOS/BANTIGUE,JOHN                         10510
A0101410300000000026462PAUL/ESQUIVIAS,J                                        20500
A0101410300000000592132DE CASTRO, PAUL JAMES R.                                 0503
B1301400340683023491001EMPRESS CHEMICAL INDUSTRIES, INC.                        1602
A1301400500000003070093AMISTAD, RONALDO ESTAVILLEO                              0503
B0101408240711028488001INTAS DESTINATION MANAGEMENT INC.                        1605
A0101408240711336084001EVA M. LUMBAN                                            0504
B4101400260000006043818IMUS FAMILY HOSPITAL INC.                                1610
A4101400260812389694003RODEROS, OLIVIA PIORES                                   0501
A4101400260812681817001VICEDO, ERMINDA VILLAFLORES                              0501
B4101400390813016813001GENERAL CHEMICALS & RESINS                              11601
B4101400390813016813001CONSORTIUM                                              21600
A0101412340000003344443WENDY A. MAITIM                                          0503
A0101412340000003349455RAMIL DELA CRUZ VARGAS                                   0501
A0101412340000004557706NOEMIE B. ROBERONTA                                      0501
A0101404840851046725028GENERALES, RHODA ALTEZ                                   0502
A0101404840000000683585ROXANNE P. AGUILLON                                      0502
A0101404840851478374062VIOLITA V. GIDUCOS                                       0503
A0101404840851520766002CYNTHIA S. GERODIAS                                      0502
B0101406750000000090822METROWIDE HOMEBUILDERS, INC.                             1610
B0101406750000005608584METROWIDE HOMEBUILDERS, INC.                             1630
A0101406750000000017472GATUS, ROSALYN RUFO                                      0501
B0101418810853821100608**********                                               2002
B0101418810853821200608**********                                               2002
A0101405070861380698001REYES SR., RENATO SISCAR                                 0501
A0601400230000005185833DUMAN-AG, MERCEDES MANUEL                                0501
A0601400230000001687374DAVID, NOEL CALIWAG                                      0502
