B0101408110515037833001CWS PHILIPPINES INC.                                     1603
B0101408110515041304001RUSTAN EMPLOYEES CREDIT COOPERATIVE                      1610
A0101404000000007927511LEI ANN B PALACAY                                        0501
B0101404000551026854001MACKIM PRINTS, INC.                                      1602
A0101404000551166600005EVELYN SORONGON                                          0501
A0101404000551786199001DANGUE, PRISTINE FRANCESCA                              10501
A0101404000551786199001PADUGA                                                  20500
A0101409920000000998843AVENA, MELANIE ANTONIO                                   0501
A0101400860011539810001**********                                               0505
A0101401250000007121422LASALA, VILLY GRACE ACLA                                 0501
B0101401250021044358001PASAY CITY ALLIANCE CHURCH                               1603
B0101401250021044358002PASAY CITY ALLIANCE CHURCH                               1602
A0101401250021478374014IRENE P. FADULLO                                         0501
A0101400150000006689612VICTOR CONRADO A. ALAMPAY                                0501
A0101400150000006689685ALFONSO LUIS A. ALAMPAY                                  0501
A0101400150000006689947MARY ANN M. DEL ROSARIO                                  0501
A0101400150000006690413RISCHELLE C. SANTOS                                      0501
A0101400150000006690464RENILDA P. PUNZALAN                                      0501
A0101400150000006690577JANE P. SIGA                                             0501
A0101400150000006774743JENNIFER S. GALERA                                       0501
B0101400150061047235001ROYAL METRO POINTE DEVELOPMENT INC.                      1602
A0101400150061315349084DAPHNIE YU KIM TENG                                      0501
A0101400150061632464002ANGELES, TERESITO AND LADEZA,                           10502
A0101400150061632464002AMON AND DAGDAYA                                        20500
A0601400100081315126001GOMEZ, MARVIN BERNARDO OR                               10503
A0601400100081315126001GOMEZ, MADELENE                                         20500
A0601400520000000398476WAMPY PRINTS AND DESIGNS                                 0501
A0601400520000002085883MA, JENNIFER TECSON DBU                                 10501
A0601400520000002085883D'AFFAIR FURNITURE                                      20500
A0601400520000002085883MA, JENNIFER TECSON DBU                                 10501
A0601400520000002085883D'AFFAIR FURNITURE                                      20500
A0101410850000003503482CANILLAS, MARTIN LAPPAY DBU                             10502
A0101410850000003503482MARCCHARM INDUSTRIAL                                    20500
A0101410560000001943995MONTALBAN, MYRA SUGANOB                                  0501
B0101400730111014312001NGC MEDICAL SPECIALIST CLINIC, INC.                      1610
A0101400730000001697298ALAN J. CASTRO                                           0501
A0101400730111423961003ROCES, RAFAEL VILLAREAL OR                              10502
A0101400730111423961003ALCALDE, REYNALD                                        20500
B0101406040000003547608OCEANCELL TRADING INTERNATIONAL                         11605
B0101406040000003547608CORPORATION                                             21600
A0101412630000007158081MUNCADA, ROSARIO SO                                      0502
B0101413310000001928856PRIME INTERNATIONAL CONTACT LENS                        11602
B0101413310000001928856INTERNATIONAL                                           21600
A0101407270000003264986MAMMUAD, ROGELIO REPANI                                  0502
A0101401090171031508002DUBBEL MEDICAL CORPORATION                               0506
A0101401090171033023002EXCELINK INSURANCE AGENCY                                0502
B0101401090000000210482BLUMEX PLUS CREDIT INVESTOR INC.                         1605
A0101401090171195908001SAN AGUSTIN, ANGELITA CELEBRE                            0501
A0101401090171197490001GRECEBIO JONATHAN D. ALEJANDRO                           0502
B0101401380201018537001VELUZAR(PASAY) INC.                                      1601
A0101401380201566837001ALARCON, LAILA ABADIER                                   0501
A0101410720000006239803CAUDAL, MA. THERESA MATA                                 0505
A0101412500000007564567NG, PATRICK DEL ROSARIO                                  0501
A3101400450223352819001FARAON, RIZALINA OR                                     10502
A3101400450223352819001BELEN, RHODORA                                          20500
A1001400190231380503007DRA. CYNTHIA BACONGA                                    10503
A1001400190231380503007PHILAMCARE DOCTO                                        20500
A1001400190231520766092TACBOBO, BEATRIZ WABE                                    0501
A1001400350000000245281BAGARES, AGUSTINA BALALA                                 0503
A1001400480000000606819TAN, LYDIA OR TAN, OLIVER                                0506
A1301400470000000061463DEUS, MARIA ELNORA DE GUZMAN                            10505
A1301400470000000061463OR TAGO, ANA LIZA VELARDE                               20500
A0101406620000000193628ACEDILLO, MA. JULIET DASIG                               0504
A0101406620000000577106CALANTUAN III, BENIGNO TOGONON                           0501
A0101406620273280285001PELAGIO / ROSARIO / REBECCA /                           10501
A0101406620273280285001RAFAEL / ROWENA                                         20500
A0101406620000003661443MARY MICHELLE PRUDENCE BOLLOZOS                          0501
B0101411110000000604959**********                                               1601
B0101411820000003085112HARDCOM COMPUTER SYSTEM CO.                              1601
A0101400570281344782001LYDE ALDAY-MAGPANTAY, M.D.                               0502
A0801400160000001031332AMIL, WAHAB AHMAD                                        0502
B1101400120000000652904COASTALVIEW FOODS CORPORATION                            1603
A0101402350321478374058DELA CRUZ, MERLITA GABON                                 0501
A0101402510341241561001PEREGRINA, MA LOLITA SERRANO                             0501
A0101402060351009359001JIANDANI, SURESH G. OR                                  10501
A0101402060351009359001JIANDANI, KAVITA                                        20500
B0101402060351009544001RI CHEMICAL CORPORATION                                  1608
A0101402060351444611001BONDOC, NARCISA NAVARRO                                  0502
B0101409050352009648001CHRIST'S COMMISSION FOUNDATION, INC.                    11602
B0101409050352009648001(EASTWOOD)                                              21600
A0101409050352645570003MYRNA P. CUASAY                                          0501
A0101402930381094837001DUGENIA, ANTHONY FULO OR                                10503
A0101402930381094837001MARY JOYCE O. DU                                        20500
A0101405490000005566349CAMU-LURON, MARIA ANTONETTE BAY                          0501
A0101405490392034892001JABEZTECH TRADING                                        0510
B0101405490392332339001**********                                               1603
A0101408400394039740001KAINAN SA STAFFHOUSE                                     0508
B0101409180397062516001PHYSIXARE ADTEK SOLUTIONS, INC                           1602
A0101409210000005252175SARMIENTO, GERARD REDOBLADO                              0501
B0101412210000000031512WALL STREET ACCOUNTING AND BUSINESS                     11602
B0101412210000000031512SOLUTIONS INC.                                          21600
A0301400820000002106161ONTOLAN, MYRNA M.                                        0501
A5501400120000006976778ARDIENTE, ROEL BALBARONO                                 0502
A2401400180411037686001DADIANGAS HEAVEN STAR MARKETING                          0505
B2401400180411056764001RD PAWNSHOP, INC. - GENSAN REGION                        1603
B0101403030000000320425**********                                               1601
A0101406330472027958001A. ANOLIN ENTERPRISES                                    0502
A0101406330000001235341A.A.S.M. TRANSPORT SERVICES                              0502
A0101406330000007331713QUICKFLAMES METAL FABRICATION                            0502
A0101406330472464109002FLORANTE FALCON OR                                      10501
A0101406330472464109002EVELINA FALCON                                          20500
B0101406330472490418001KENSETSU METRO CORP.                                     1610
A0501400170481256494001ALFEO OR LALAINE BAUTISTA                                0501
A3801400170000002302983RENATO L ABALOS                                          0501
A1901400160000007556832CALLEJA, MARIA DEL CARMEN                                0501
A1901400160491455587001JOSE L CHUA OR MARYLOU T CHUA                            0501
B1401400110492033323001STA. BARBARA HOMES HOMEOWNERS                           11601
B1401400110492033323001ASSOCIATION                                             21600
A1401400110000003475643*******                                                  0502
B0101407430503038048001CLASSIQUE IDEAS INTERIOR DESIGNS INC.                    1605
A0101407430000004687403********                                                 0505
B0101408110000006055501XORAND SOLUTIONS COMPUTER CORPORATION                    1602
A0101403450521238097001RAYMOND PUA                                              0503
A0101403450521240509001**********                                               0503
A0101403450000001638031UY, MARJORIE CHUA                                        0501
A0101410690000002290804AGUILOS, LINDSEY BUNNAO                                  0501
A0101407720602162363001JOHNNY B. SINON, M.D. OR                                10505
A0101407720602162363001VIRGINIA J. SINON                                       20500
A0101407690652324673001RAFAEL FELIX F. BORROMEO OR                             10503
A0101407690652324673001BERNADETTE CECILLE                                      20500
A0101414120000001142790MAGHUYOP, ROMINIA BERNARDINE                            10501
A0101414120000001142790HERRERA                                                 20500
A0101414120000001427509TRILLANES VIII, CALIXTO JACOBO                           0501
A0101414120000005252911NGO, JASEN GO                                            0502
A0101414120000004603150NACIONAL, MARIA CECILIA ABIERRA                          0502
A0101414120000000875889PIC-VAI CONSTRUCTION                                     0504
A0101414120000007655301R.M. PABUSTAN BUILDERS                                   0502
A0101410300000006278584NANAGAS III, VITALIANO HORACIO                           0502
A1301400210000000540776EDNA S ENANO                                             0504
A1301400340683494901001***                                                      0501
B1301400340683821100608**********                                               2002
A2801400100712404040001ABERAS, MARY ANN DIANGZON                                0502
A2801400230713045955001LITTLE SCISSORS UNISEX SALON                            10501
A2801400230713045955001(RONNIE B. RUIZ)                                        20500
B4101400260000005724056EG RANESES TRADING CORP.                                 1601
B4101400260000005724045JOHN AND LORHEN TRADING CORPORATION                      1601
A4101400260812469303001GUIA, LEAH SCHOFIELD OR                                 10501
A4101400260812469303001GUIA, SAMUEL IBA                                        20500
A4101400420814357382003REMULLA, GILDA VASQUEZ                                   0501
A4101400420814478374146ZETA B. CLIDORO                                          0501
B0101404840851061723001INNOVATIVE VENTURES LAND DEVELOPMENT                    11601
B0101404840851061723001PHIL. CORP.                                             21600
A0101404840851542980001MASANGCAY, NORA VERCELES                                 0501
A0101406750000007879198DUMLAO JR., ROGELIO BASILIO                              0501
A0101406750000007879234MESIA, JESSICA MALAGENO                                  0501
A0101406750000006303242ABDULAZIS, EDORA CECILE ERESTAI                          0501
A0101405070861380698001REYES SR., RENATO SISCAR                                 0501
A0101413860000000859047ALEJANDRE, MARIA TERESA MAGNAYE                         10502
A0101413860000000859047JT ALEJANDRE, JENNIE                                    20500
A0601400230000005185899CANLAS, RACHELLE ALFONSO                                 0501
