B0101402930381821100608**********                                               2003
A3101400740000001692424DIG, SHERYLL REYES                                       0501
A0101403580511081650001MYRA LIZA S.J. STO. TOMAS                                0501
B0101406460000001231690INTELLISERVE TRADING INCORPORATED                        1601
A0601400100081033811001CIRENEJ ENTERPRISES CO.                                  0505
A0101400440161680560001SHEILA M. CRUZ                                           0502
B0101406460272012461001INFORMATICS HOLDINGS PHILS INC                           1605
A1101400120000006080888TIU, MARVIN ERICSON YU                                   0505
A0101405650322047677001THE J. BIJE'S WINDOW SHOP                                0505
A0101401250000000460666SANTOS, LUZ MILAN OR                                    10501
A0101401250000000460666SANTOS, JOCELYN SANTOS                                  20500
A0101401250021453364001TORREJOS, ALFREDO OR                                    10502
A0101401250021453364001RYAN ALVIN OR CARMEN                                    20500
A0101400600071236517002******                                                   0502
A0601400100000007253854**********                                               0502
B0601400520000001349662TIMBOL ROMAN MANALOTO                                   11601
B0601400520000001349662ACCTNG & TAX CON                                        21600
A0101400730000000833396CARBONELL, LEVINA IBALE                                  0504
A0101400730111203514015GONZALES, KARLEEN B.                                     0503
B0101406040112033244001PATIO VICTORIA CORPORATION                               1601
B0101401960121023340001**********                                               1601
B0101401960121043211001MANILA HI-Q FOOTWEAR SUPPLY CO                           1601
A0101401960121397501001**********                                               0502
B0101401830141060435001AMBM ELECTRICAL SUPPLY AND                              11604
B0101401830141060435001SERVICES                                                21600
B0101401830000001282473ASS.OF OFF-DOCK CFS OPERATORS OF THE                    11601
B0101401830000001282473PHILS.(ACOP) INC                                        21600
A7201400170000010016056GANANCIAL JR., CARLOS FUENTES                            0501
A0101400440161443113001ARVIN JON A. FU OR                                      10502
A0101400440161443113001DERYL BANGAYAN FU                                       20500
A0101407270000010020789ABLANIDA, JEANETTE VILLANUEVA                            0501
B0101407270162008369001NMS CONSTRUCTION COMPANY                                 1605
A0101407270000006862286VILLANUEVA, ALBERT FEDELINO DBU                          0501
A0101407270162512914001PASTOR, MARIA CRISTINA FELICE B                          0501
B0101401090171007908001PERPETUAL SUCCOR HOSPITAL &                             11605
B0101401090171007908001MATERNITY, INC.                                         21600
B0101401090171021620001UST HOSPITAL CREDIT COOPERATIVE                          1606
A0101401090171640961001DENNIS OR JENNIFER BUENAVENTURA                          0505
A0301400530000005001647REYES, NENITA CATAYAS                                    0502
A0301400530193356168188MILA A. BRIONES                                          0503
A0301400530000008307551GONZALES, SYLVIA EUGENIO or                             10505
A0301400530000008307551GONZALES SR., RE                                        20500
B0101401380201026436088L & G INN CORPORATION                                    1605
A0101401380201066144002PARTOSA, DBU CARDJILLLY LAND                            10501
A0101401380201066144002SUPERMARKET                                             20500
A3101400160000001276028CARIAS, FRANKLIN HERNAEZ                                 0501
A1001400190000002266651GALLANA JR., EDGAR REY BILLIONE                          0501
A1001400190231342333001BUSGANO, HIPOLITO S.                                     0503
A1001400190231511493001GALAGNARA, JUVY DAIS                                     0501
A1001400190231539053001TAN, JEANNIE GALOS                                       0505
A1001400350000000922014PEARSON, PILARCITA ROA                                   0503
A1001400350233539784001ANITA U. ROLIDA OR                                      10501
A1001400350233539784001FRANCISCO L. ROLIDA                                     20500
A1001400350233644458001LAZO, MICHELLE ATINEN                                    0502
B1001400480000000133508TURNSAT INTERNATIONAL LOGISTICS                         11606
B1001400480000000133508CORPORATION                                             21600
B1301400760253038825002VOLT HAROLD MARKETING CORPORATION                        1602
B1301400760253047879002DON PHILIP MARKETING CORPORATION                         1602
B1301400760253048151001ELITE MOTORBIKE SALES CORPORATION                        1602
B1301400760253051030002ROYCE CREDIT AND FINANCIAL SERVICES,INC.                 1602
B1301400760253062602001VOLT IVAN MARKETING CORPORATION                          1602
B1301400760253062604001KEVIN HENRY MARKETING CORPORATION                        1602
B1301400760253062605001ROYCE MOTORCYCLE TRADE CORPORATION                       1601
B1301400760253062606001JAN WILLIAM MARKETING CORPORATION                        1602
A1901400290000001975288FLORINDA MASAS BARTE                                     0503
A1901400290000003252742NACACHI, ALLYSSA NIKKA OLARTE                            0501
B1901400290000001363188RD PAWNSHOP, INCORPORATED                                1606
A1901400290000004366110MIDAS TOUCH TRADING                                      0501
B1901400290261066130001PHIL. RBA VET TRADING CORPORATION                        1605
B1901400290261170180001KUO AN TAI OR LAWRENCE BRIAN C ILARDE OR                11601
B1901400290261170180001LARRY JAPA                                              21600
A1901400290261298552066DOLORES SARMIENTO MANGUIAT                               0501
A1901400290261411419001TERESITA DIMAILIG PERCE                                  0502
A1901400290261465984001ALANN NAVARRO LAS                                        0501
A1901400290261493025050MYLA M LALUNA                                            0502
A1901400290261493025087DR JOSELITO C RAMOS                                      0502
B1901400290261535730001SOUTH LUZON HIGH RISK PREGNANCY AND IN-                 11601
B1901400290261535730001FERTILITY CENTER                                        21600
B0101406460272035154001STUDIO84 INC.                                            1602
A0101406620273471129001TAN, APRIL LYNN LEE                                      0502
A0101406620000000043978AGUIRRE, ALEXANDER PAR                                   0503
A0101408660000000373073ROBERTO MONROY OR                                       10501
A0101408660000000373073ANNELLE MONROY                                          20500
A0101411820000005380110VILLANUEVA, CHARLES BADONG                               0501
A0101400570281536569001JIMENEZ, JANE LIZA DIOLAZO                               0501
A0801400160000006272842BAGUMBARAN, CINDYMAGNE MACALAM                           0502
B0801400160311100161001PRUDENTIAL CUSTOMS BROKERAGE SERVICES,                  11603
B0801400160311100161001INC.                                                    21600
A0801400160311478374004MAELYN HACERMIDA                                         0501
A1101400120000001547508DESUASIDO, IMELDA FAJARDO                                0501
B1101400120000000653161PERPETUAL HELP MULTI-PURPOSE COOPERATIVE                 1605
A1101400120313478374079MARIJOE NOVE CORANEZ                                     0503
A6601400120000001065263AMANDE, BEATRIZ NALAZON                                  0501
B6601400120314043609002FUNDACION GRAMEEN PILIPINAS INC.                        11605
B6601400120314043609002GEL BRANCH                                              21600
B6601400120314043609008FUNDACION GRAMEEN PILIPINAS INC.                        11605
B6601400120314043609008PALAPAG BRANCH                                          21600
B20014002903150452920018 BULLS CONTRACTORS FEDERATION INCO                      1601
A0101402510341280600001ANNA LIZA V JAVIER                                       0502
B0101402930381041518001PANPISCO TECHNOLOGIES, INC.                              1603
A0101408790000008954630ARTHUR P. TANGARA JR.                                    0501
A0101402770000001841174DEL ROSARIO, ALFREDO RAYOS                               0502
A0101405490392591892001RIZZA L. ACOL                                            0501
B0101405490392728198001AUTOMOBILICO INC.                                        1602
B0101408400394034367001W LAND HOLDINGS, INC.                                    1603
B0101408400394041333001W TOWER CONDOMINIUM CORPORATION                          1603
B0101408400394047845001BIOSPHERE GROUP HOLDINGS, INC.                           1603
B0101408950396821200608**********                                               2001
A0101412210000009674213CANTILLER JR., ERNESTO DE LUNA                           0501
B0101412210399821100608**********                                               2002
B0101412210399821200608**********                                               2001
A0301400820000002106230DIONIO JR., NELSON E.                                    0501
A2401400180411478374027ELLEN PANTUJAN OR                                       10502
A2401400180411478374027ELMER PANTUJAN                                          20500
A0101410140000001940187DAY, MA. LYNN GERONIMO                                   0501
B0101410140000000038895NANOZ, DE LA CRUZ AND ASSOCIATES, C                      1601
A0501400170000000018306LLAMAS, ULDARICO MARTINEZ                                0501
A1901400160000009054973FRANCIA, MARIA FATIMA TAN                                0501
A0101407430503082483001MARIETTA D. ZAMORANOS                                    0501
B0101403580511005607002RAM FOOD PRODUCTS, INC.                                  1610
A0101403580511150595001MAXIMO P. MARIANO                                        0501
B0101403580511243690001COASTAL ROAD CORPORATION                                 1603
A0101405940000001047352CHUA, BARTON ONG                                         0503
A0101408530000007981802PALARCA, AURELIO MATAMIS                                 0502
B0101408530000000035878OUTCOMM INC.                                             1610
A0101411400000005157222AQUINO, ELYN FAITH MARCELO DBU                          10501
A0101411400000005157222ELYNJEFF TRADING                                        20500
A0101411790000002275998REAL, MICHELLE TACSON                                    0501
B0101412050000000043438RUSTEZE INC.                                             1602
A0101403450000001769811*******                                                  0501
B0101403450000000135613AGILE GLOBAL FORWARDING, INC.                            1603
A2201400250561484428001WILSON LAO SIO OR                                       10502
A2201400250561484428001EDUARD LAO SIO                                          20500
B0101407720602022821001BLITZ MARKETING AND EVENTS, INC.                         1602
A0101407720602343284001MARY ANGELINE RECTO OR                                  10501
A0101407720602343284001RODRIGO RECTO JR                                        20500
A0101407720602464099001GOMEZ, MARIE RHIAMAR SAULER                              0501
B0101404260611034715001LAY BARE FRANCHISING CORPORATION                         1605
A0101404260611151313001AQUINO, LUCIANO                                          0501
A0101404260611153476004TIU, THERESITA SOLDIVILLO                                0510
A0101404260611416854004LLARENAS, MELANIO PARAGATOS                             10510
A0101404260611416854004AND VERNIE BUNO                                         20500
B0101409920000000857990QUIZAN, ROMANA C. OR                                    11602
B0101409920000000857990GORRE, RODELYN Q                                        21600
A0101407690000000913600MARQUI AUTO SUPPLY                                       0502
A0101413570656057648175RHEZA FE C. NACIONALES                                   0501
A0101413570000005867412JACABAN, ANALYN VILLANUEVA DBU                           0502
A0101413570000000635530CARLOS ANGELO O. GOZON                                   0501
A0101413990000006278237DE CASTRO - AGBUYA, HAYDEE AMOR                          0501
A4101400390813635911001PARCO, VIRGINIA IGNACIO                                  0501
A4101400420814478374122AGUILO, RODENA T.                                        0501
A0101404840000004565953RODULFO, CLARIVEL M.                                     0501
B0101405070861008149001TABAQUERIA DE FILIPINAS INC.                             1606
B0101405070861018666001SAN ANDRES MARKET VENDORS & COMT'Y MULTI                11610
B0101405070861018666001PURPOSE COOP.                                           21600
B0101405070861198521002MSYTR                                                    1602
B0101405070861565051001BLAUGRANA CORPORATION                                    1606
A0601400230000007402155VICENCIO, VERGEL MACAPAGAL                               0504
A0601400230000005185935SANKEM TRADING                                           0520
