B0101400570281821100608**********                                               2005
A0101410560000001290897DAVID, GRECILDA ALBERO                                   0502
A3101400870000000074786KARUNUNGAN, ALLAN MALALUAN                               0503
A0101414120000001142852TERESITA M. PUYAT OR MARY ANN                           10505
A0101414120000001142852MAGNO                                                   20500
A0101414120000005252864MVG HARDWARE                                             0502
A0101414120000006005367NAJOS, ELVIRA ABAO                                       0501
A0101414120000001427601ISABEL MONTERO OR CARLOSA                               10501
A0101414120000001427601TUGADO                                                  20500
A0101400860011742231001**********                                               0502
B0101400150061010633001ALECAL CORP.                                             1602
B0101400150061010636001TRUSTO CORP.                                             1602
B0601400100081013321001BIO-TECH MARKETING CORPORATION                           1604
A0601400100081572327001PONCE, AILEEN OR ROBERTO JR.                             0502
B0601400520000001349719MAGTOTO, KELVIN DBU CALULUT CONVENIENCE                 11605
B0601400520000001349719STORE                                                   21600
A0101410560000001290897DAVID, GRECILDA ALBERO                                   0502
B0101400730111035655001FSL INT'L. MANPOWER & PROMOTION SERVICES                11601
B0101400730111035655001INC.                                                    21600
A0101400730111203514058MARY ANNE CUARTERO                                       0501
A0101400730111203514059REYNALDO N. SALAMANCA JR.                                0501
A0101400730111520766064LITA L. LARIZA                                           0501
A0101400730111520766071PRECIOUS B. RAYMUNDO                                     0501
A0101400730111718087001PASAGUE, LALAINE TRINANES                                0501
A0101400440000000060335LYNDEE ANN D. SIA                                        0501
A0101400440161520766098JUDITH D. BRISO                                          0501
A0101400440161520766194LINO M. VILLANUEVA                                       0501
A0101400440161520766194LINO M. VILLANUEVA                                       0502
A0101407270162642564001BEATRICE E. DE SANTOS OR MARIA                          10502
A0101407270162642564001VICTORIA E. JALU                                        20500
B0101401090171007896001CPA REVIEW SCHOOL OF THE                                11610
B0101401090171007896001PHILIPPINES, INC                                        21600
A0101401090171508189001JORDA, ANNABELLE ALAYON                                  0501
A0301400790000002301239NATAD, JULIET ALBARILLO                                  0502
A0101413020000002292742PASCUAL, JIMBE CABAUATAN                                 0502
A0101410720653503650001TAPE, ANA LYN HERRERA                                    0504
A0101413600000001430620JULIO CESAR R. AGUILUZ                                   0501
A3101400160000000429076LORETO, ERNANI ENRICO EUSEBIO                            0501
A1001400190231520766042GEOTORO, INES MANGUILIMOTAN                              0501
A1001400350233478374033CARAOS, PATROSENIA T.                                    0501
B1301400470000000009674KASAPI MICROFINANCE & RURAL DEVELOPMENT                 11601
B1301400470000000009674INC.                                                    21600
A1301400470252478374028NORMA S. BALLESTEROS                                     0506
B0101401670271007115001RAMIREZ AND CUTTER, INC.                                 1603
B0101410980000006014562TECHNOMED INTERNATIONAL, INC.                            1603
B0101411820000001356827PRINTTALK ADVERTISING INC.                               1610
A0101400570281186598003DR. BIENVENIDO S. GADDI OR                              10506
A0101400570281186598003NORA B. GADDI                                           20500
A0101400570281186881002SANTAMARIA, MA. ZENEIDA SERRANO                          0502
A0101400570281360693001DR. CRISTOPHER F. PEREZ                                  0503
B2301400280304821100608**********                                               2002
B2301400280304821200608**********                                               2002
A0801400160311794356001GALLOS JR., GLICERIO JOPSON                              0503
A6601400120000000060802PAMBUENA, LINA AMARO                                     0505
A0101402350000003080399BALUTAN, ROSALIE TALISAYSAY                              0501
A0101402350321242269001**********                                               0502
B0101402350321738079001OLIVAREZ GENERAL HOSPITAL INC.                           1610
A0101405650000002960843ZAMORA, ENRICO RAMIREZ                                   0501
A0101402510341202843003**********                                               0501
A0101409050000007511806VALLE, ARLENE REBELLON                                   0501
A0201400920000000048031FMC CATERING SERVICES                                    0501
A0201400920375478374015GAYO, LOURDES O.                                         0502
A0201400890000000973462***************                                          0502
A0101402930000003710610DAVID, RIZALYN ENRIQUEZ                                  0501
B0101402930381017086002HEALTH GALLERY INC.                                      1603
B0101402930381040001001TURQUOISE TRAVEL & EVENTS                               11602
B0101402930381040001001MANAGEMENT CORP.                                        21600
A0101402930000003710701PALINES, LETICIA VILLASENOR                              0502
A0101408370382205140001DR. PAULA  A. ALONZO OR                                 10502
A0101408370382205140001DR. DANIEL M. ALONZO                                    20500
A0101408370000000586005REMUCAL, MARY GERALDINE B.                               0501
A0101408790000005954083CULLADO, MA. CORALYN SAGRADO                             0501
B0101402770391009346001R.D. SAMANIEGO ROOFING CORP.                             1602
A0101402770391217498028PETATE, XENIA Z.                                         0501
A0101405490000002253112KASAN, JOSEPHINE ABRAHAM                                 0505
A0101405490000004353111JAVIER JR., JAIME JOSE MARUDO                            0501
B0101405490392029037001KOI-MO, KOI-KO INC.                                      1603
A0101408400000007539851REVILLA, MARC DENACE TAN                                 0501
B0101408400000008319897NEXTERIORS CONSTRUCTION CORPORATION                      1601
A0101408400394424700001QUILAY, EVELINDA QUEBEC                                  0501
A0101408400394478374062APOLIS, SALVACION G.                                     0502
A0101408950000000045963SEDIGO, SIMON VICTOR ADVIENTO                            0501
A0101408950396572239001PUYAT, MARIA LUISA TICZON                                0505
B0101409180397056094001REGUS SERVICE CENTRE, PHILIPPINES B.V.                   1602
B0101409180397056423001REGUS MANAGEMENT PHILIPPINES, INC.                       1602
A0301400820000007372821ACLAO, MARILOU G.                                        0502
A2401400180000001676991CASABUENA, RICHARD JOHN JOHN                            10501
A2401400180000001676991FRANCISCO                                               20500
A2401400180411744426001ENGCONG, JAY CUEVAS                                      0501
B1201400150421039600001CIMAS VERDES CORPORATION                                 1606
A1201400150421200676001MAULBECKER, HEINRICH                                     0501
A0101410140000001074704LABORTE, BELEN GARCIA                                    0501
A1901400160491366464001ANA MARIA H BALMES                                       0502
A1901400160491659463001GLORIA JARO PENA                                         0502
A1401400110492620230001DELOS SANTOS, ENRICO PEREZ                               0503
B0101407430503509183002RICKNETH DISTRIBUTION, INC.                              1602
B0101405940512584781002MCSENERGY PHILIPPINES INC.                               1601
A0101408110000007864626TABAFUNDA, DIANE MATALOG                                 0501
B0101408110000000016673GRAPHIS ET AMORE, INC.                                   1601
B2201400250561088535001CHRISTOPHER JORDAN L. CHUA                               1601
A0101410690000003027636BALIAO, JOVITA LINGGON                                   0502
A0101404130000000043934DELA CRUZ, MA. ELINORE                                  10502
A0101404130000000043934DE CASTRO                                               20500
B0101404130601045483001NORTHSTAR TECHNOLOGIES INDUSTRIAL                       11602
B0101404130601045483001CORP.                                                   21600
B0101404130601100007002SMART COMMUNICATIONS, INC.                               1602
A0101412180000000908390LIM, LEA YAP                                             0502
A0101409890649087161001DELOS REYES, DANNE LOVELL SAN B                          0501
A0101409920000000523573MEMBERS OF NATASHA (SHOECAT INC                         10501
A0101409920000000523573JOANNE L. MABULAY                                       20500
A0101413570000007373795GO, CHRISTIAN ROBERT VEZA                                0501
A0101413570000007373795GO, CHRISTIAN ROBERT VEZA                                0501
A0101413570000001682679ARNOLD HAIRDRESSING SYSTEM CO.                           0505
A0101413990000003141157**********                                               0503
A0101413990000000206033MARITES R. CONANAN                                       0502
B1301400210682038636001FBIC INDUSTRIAL ESTATE ASSOCIATION                       1602
A1301400340683361153001LICAROS JR, ALEJANDRO LAGPAO OR                         10502
A1301400340683361153001LICAROS, ELSA R.                                        20500
A0101408240000006599991ESTERA, WINSTON GEORGE B.                               10501
A0101408240000006599991OR LLAMAS, ROGIELYN P.                                  20500
A0101408240711478374019ESTUYE, GILDA PLACIDES                                   0505
A2801400230000001734732CITY REJUVENATING SPA                                    0502
A4101400390000001404266SOLAS, SAMARITAN CATARATA                                0502
A4101400550000002091123BALAGOT, MARICEL DELA CRUZ                               0501
B0101412340000002900363ANZAK MODERN MUSIC PRODUCTION                            1601
A0101404840000006364805ALCANTARA, CAROL BORBE                                   0501
A0101404840851298552055SIXTA MELBA C. ENGBINO                                   0501
