A0101413310000005433147CONCEPCION, TERESITA GUINTO OR                          10501
A0101413310000005433147CONCEPCION, ANTONIO R.                                  20500
B0301400790000001244531LAGARTO, SHECEL DBU SHEER DEW                           11602
B0301400790000001244531PURIFIED WATER                                          21600
A0101400860011385484001**********                                               0503
A0101400860011452130001**********                                               0502
A0101400150000008044233DE JESUS, JOSE ZOSIMO TEANO                              0502
A0101400150000005794352TISANG, IAN CHRISTOPHER OMAMBAC                          0501
B0101400150061047585001888 ETHNIC HOME FURNISHING CORP.                         1606
A0101400150061226201001GODOFREDO R. GALINDEZ JR.                                0501
B0101400150061230978001CHRIST'S GOSPEL FELLOWSHIP                              11603
B0101400150061230978001MINISTRIES, INC.                                        21600
A0101400150061398232002TOH, GRACE SHANG YANG                                    0502
B0101400150061436247001SEAWOOD RESOURCES INC.                                   1603
A0101400150000008307033**********                                               0501
B0101400600071396921001**********                                               1605
A0101400600071523473001*******                                                  0501
B0101405810072369274002***********                                              1605
A0601400100081765431001CASTILLO, MADELYN MARIANO                                0501
A0101410850000000259949CABREIRA, CLIFFORD PAUL                                 10501
A0101410850000000259949KALINGKING                                              20500
B0101410850000001229874HAWK LAND TRANSPORT CORP.                                1601
A0101401960121561929001SAN JOSE, CORAZON SERRANO                                0510
A5001400170000000045003LIONG, JULIUS TAN OR LIONG,                             10505
A5001400170000000045003DANA CORAZON LAMBATAN                                   20500
B0101407270162028545001G-1ST VALUE HOLDINGS, INC.                               1601
B0101407270162039491001UMALAG FARMS, INC.                                       1603
B0101407270162044104002BARDSTOWN, INC.                                          1605
B0101407270000000830368ONE FOOD GROUP MANAGEMENT SERVICES, INC.                 1605
B0101407270162050373002AMARELA, INC.                                            1605
A0101407270162579169002GERALDINE J. LUALHATI                                    0501
A0101401090000007525882ALFAR, SHEILA ISRA                                       0502
A0101401090000007525717ALFAR, SHEILA ISRA OR                                   10502
A0101401090000007525717BAOAYAN, RODNEY AURELIO                                 20500
B0101401090171007898002SICCION MARKETING, INCORPORATED                          1602
A0101401090000007525637GIL Y. GAMILLA OR MA. CORAZON                           10506
A0101401090000007525637ZAIDA N. GAMILLA                                        20500
A0101401090171197714001LUCILA O. BANCE                                          0502
B0101401090171198717001UST ENGINEERING ALUMNI ASSN., INC.                       1601
A0301400790000003968710CHIN, AGNES ANN ALMEN OR                                10502
A0301400790000003968710CHIN, EDWARD LAM                                        20500
B0101410720653035012001GENERIC SAVES DRUGSTORE                                  1604
A0101410720653505843001LIMONGCO, GRACE POLO                                     0502
A0101412500000010542122ARMODOVAL, JAY REX SACATIW                               0501
B0101413600000005524829PRO EMPIRE TRUCK BODY CORP.                              1602
A3101400160221355631001HOSPICIO E. MAUNAHAN OR                                 10502
A3101400160221355631001JULIETA S. MAUNAHAN                                     20500
A3101400450000005355471CIGARAL, PEDRITO EXCONDE                                 0503
A3101400740000000013867ROBLES, ROSALINDA BASE                                   0502
A3101400740000010216405GARCIA, EMILY BUEN                                       0502
A3101400740000006735824GARCIA, EMILY B. DBU MMA EVENTS                         10504
A3101400740000006735824SPECIALISTS AND                                         20500
A1001400190000005944501ACOSTA, NELSON SEVILLA DBU STRA                          0501
A1301400760000000050568VICTOR DEL ROSARIO ENTERPRISES                           0503
B1301400760000000050728VICTOR R. DEL ROSARIO RICE MILL CORP.                    1603
B1301400760000000050860ENCORE LEASING & FINANCE CORP.                           1601
B1301400760000000050871ENCORE LEASING & FINANCE CORP.                           1601
A0101401670271536521001FADRILAN, GILBERT PEREZ                                  0501
A0101406460000001285558**********                                               0501
A0101406620273072069001LEANO, DEVI PESSUMAL                                     0502
B0101411820277048022001FORGEMS MARKETING COMPANY, INC.                          1605
A0101400570281360975001DR. NERISSA A. DE JESUS OR                              10503
A0101400570281360975001LEONCIO NILO P.                                         20500
A0101411240000010531983OLIVES, TRYSH DANIELLE LOZARES                           0501
A2601400270000009497870EDGAR T. GALGALAN                                        0503
A2601400270000002677365BULACAN CONCRETE PRODUCT                                 0501
B0801400160311046688002HI-GRADE LIQUID OXYGEN CORP.                             1605
B6601400120000001370850NITA ENTERPRISES                                         1610
A0101408370382452112001ANAFLOR D. RAZO                                          0501
A0101411660000010389001ROGUEL, NELDA MARASIGAN                                  0501
B0101411660384066810001HERNAN, BIRON DBU GLOBAL PHARMATRADE                     1601
A0101411660000000751137FREDERICK JOEL LIM OR                                   10501
A0101411660000000751137IMELDA ONG                                              20500
A0101402770000001841094BLANQUISCO, JEFFREY TUAZON DBU                          10505
A0101402770000001841094JT BLANQUISCO TRADING                                   20500
A0101408400000003120623PEREZ, PAMELA MANECLANG                                  0501
A0101408950396563284001DIMAGIBA, RICHARD VINCENT                               10501
A0101408950396563284001NICOLA JT                                               20500
A0101412210000003979073FERDINAND D. ONG                                         0501
B0301400820409067037001PHARMA ELEVEN MEDICAL SUPPLY, INC.                       1601
A2401400180411572205001EBRAHIM, MA. AMOR ISHAD                                  0501
A1201400150421299356004LARANANG, BENITA CRISELDA                               10503
A1201400150421299356004MANONGDO                                                20500
A0101403030000000531462HARROW, ALAN JAMES ANTHONY CASA                          0501
B0101403320000000037567EESC CONSTRUCTION INC.                                   1603
A0101406330000002277847MASCENON, ALEXANDER CHARLES DG.                          0501
A0101412760000002067610SANCHEZ, SARAH JAYNE ALBAN DBU                           0501
A0501400170481302479001CORONEL, LILIA AQUINO                                    0501
A1901400160491043905001GRANBY TRADING & CONSTRUCTION                            0505
A1401400110000006680282LOPINAC JR., NIETO GONZALES                              0502
A1401400110492047646001ALCANTARA, MARIO DBU JOCALDAR                           10501
A1401400110492047646001ENTERPRISES                                             20500
A1601400170000001360634ALDON, CONSUELO DAYTO                                    0501
A1601400170000001837863RENE N. ESPLANA OR                                      10503
A1601400170000001837863GLORYDEL B. ALAPAD                                      20500
A1601400170000001360792CHEN, ZE DENG                                            0502
B1601400170000005992232BICOL MEMORIAL PARK INCORPORATED                         1605
A0101407430000005358670MICHAEL G. TORRES OR                                    10501
A0101407430000005358670MARGARET J. DIMAALA                                     20500
A0101407430000003193877CAPUL, J. DBU JEACA HAULING                             10501
A0101407430000003193877AND TRUCKING SERVICES                                   20500
A0101407430503376232001REGIE DE GUZMAN CALAHATI                                 0501
A0101407430503452069001DULCE OBUSAN OR IRIS ISLA                                0501
A0101408530000002980994MABINI, WANDA BARRAMEDA                                  0502
A0101411790518055764153GALANG, JOBERT ARDALES                                   0501
A0101411790518055815081PEREZ, MARY GRACE BACLAGAN                               0501
A0101411790518092044001GONZALES, MARIA ZARAH ANGELICA                           0501
A0101403450521239750002EDDIE L. CHUA                                            0502
A0101407720602161863003ROBERTO K. MACASAET OR                                  10501
A0101407720602161863003VIRGINIA M. RAFAEL                                      20500
A0101404260000005446993GREGORIO, LUZ MONTICALVO                                 0501
B0101404260000000550401ATLAS GLOBAL ADVANTAGE, INC.                             1602
A0101404260000007498335MARY GRACE C. ABAN                                       0501
A0101409890000000049089GEMSTAR CLEANING SUPPLIES                               10505
A0101409890000000049089INTERNATIONAL                                           20500
A0101413570000005867430*******************                                      0501
B0101413570000002906705PAMINTUAN, ALEX DBU TOPLEX                              11604
B0101413570000002906705ADVERTISING SERV                                        21600
B0101413570656061561001TOPLEX ADVERTISING, INC.                                 1604
A1301400340000006402422DE GUZMAN, DENNIS CHING DBU ALL                         10502
A1301400340000006402422ACCESS ENTERPRISE                                       20500
A1301400340000000926881EMBUSCADO, MARIFLOR BLANCO                               0501
A1301400500000007096571LUISITO R. MIRANDA                                       0501
A0101408240711383461001SANG, PAUL OR IRIS                                       0503
B2801400100000003400573JAMJLE PROPERTIES (SUBIC) AND                           11605
B2801400100000003400573DEVELOPMENT CORP                                        21600
A2801400230713045955001LITTLE SCISSORS UNISEX SALON                            10502
A2801400230713045955001(RONNIE B. RUIZ)                                        20500
B2801400230000000372729KRJ TRADING                                              1602
B2801400230713065735001ST. BENILDE CENTER FOR GLOBAL COMPETENCE                11601
B2801400230713065735001INC.                                                    21600
B4101400260812024721001DORMBUILT, INC.                                          1603
A4101400260812617470001HELEN B. SADORRA                                         0501
A4101400550000002091009PANGAN, SONIA DINGLASAN                                  0501
A4101400550000006044480QUIOYO, EMELIA BOONGALING                                0501
A4101400550815769411001MAGCAIYO, MARICAR VIVAS OR                              10501
A4101400550815769411001MAGCAIYO, ALVIN BALIWAG                                 20500
A0101404840851520766071TERESITA SANTOS                                          0501
A0101405070861368305001TANABE, MASUMI MORIYAMA                                  0503
B0101413860000000145344SUPREME COURT EMPLOYEES MULTI-PURPO                      1650
B0601400230891028118001D.M. AUTO SUPPLY                                         1605
