A1101400120313478374116MASIN, NANCY KELISTE                                     0501
B0101402930000005646022BARENTS MARKETING CORP.                                  1602
B0101400150000000633083PHILIPPINE SUGAR MILLERS ASSOCIATION,                   11605
B0101400150000000633083INC.                                                    21600
A0801400160311785590001********                                                 0503
A0101410690000000061834IQBAL, BERNADETTE G.                                     0502
A0101409890000003097950JUNATAS, DELFIN ROXAS                                    0502
A0101400860011452130001**********                                               0502
A0101400860011610224001**********                                               0510
A0101400150000007280584JIANG, DAOXIN                                            0501
B0101400150061025214001MAA CONSULTANTS, INC.                                    1601
B0101400150061036528001ALTUS COMMUNICATIONS INC.                                1602
B0101400150061040558001CORDILLERA EXPLORATION CO., INC                          1602
A0101400150061236944155GINGER FERRER TULIO                                      0501
A0101400600000001335648********                                                 0502
A0601400100000007253898PAMINTUAN,ROCHELLE DBU BISNEX                           10501
A0601400100000007253898MARKETING OR BAUTISTA,ERI                               20500
A0601400100081251729003JOSE PAOLO OR MELISSA FELICIANO                          0501
A0101413150000003208197*******                                                  0501
A0101400440000000821425LUZ L. LARIOZA                                           0501
A0101400440000002035741CARMI M. MAGDARAOG                                       0502
A0101400440161478374198EUFRONIA I. BERGONIA                                     0501
A0101400440161520766189PRESCILA P. DOTONG                                       0501
A0101400440161525001166CELESTE G. CASABAR                                       0501
A0101407270000004915908LORENZO, TRICIA MARIE SOLANOY                            0501
B0101407270162019024001RAMCAR, INCORPORATED                                     1605
B0101407270162062905001REXXIN PLASTIC PRODUCTS INC.                             1605
A0101401090171196209001NORBERTO V. MARTINEZ                                     0510
A0101401090171462332001MELODIA B. GESLANI                                       0502
A0301400530000001009909CAHIYANG, EVANGELINE REVILLA                             0501
B0301400530193044706199ROYAL CROWNE BEVERAGES                                   1603
A0301400530193583614088VILLANUEVA, MELISSA MAY OR                              10502
A0301400530193583614088VILLANUEVA, PHILIP                                      20500
A0301400530193699754001BUTALID, FELINA L.                                       0503
A0301400530000007345475VILLANUEVA, PHILIP OR VILLANUEV                         10503
A0301400530000007345475A, MELISSA                                              20500
A0301400530193729179088VILLANUEVA, PHILIP OR                                   10501
A0301400530193729179088VILLANUEVA, MELISSA                                     20500
A0301400660000000194643MANILA, MARIA ZENAIDA ARFAPO                             0501
A0301400660194731082088PEJI, JUNE ANN SOLER OR PEJI,                           10505
A0301400660194731082088JONATHAN CORTES                                         20500
B0301400660000006862793AUNISA R. BALCITA OR RONNIE M. BALCITA                   1601
A0301400790000003969611BERSABAL, AGNES TUBANG OR                               10502
A0301400790000003969611BERSABAL, MARVIN ROMERO                                 20500
A0101410720653385187001SERVILLANO H. GALVEZ JR. OR                             10504
A0101410720653385187001KAREN F. GALVEZ                                         20500
A0101412500000003289952TIAM-LEE JR., SIMEON GO                                  0501
A3001400130000008915971JUBAC, CHARLES TATAD                                     0501
A1001400190231520766117TAROY, MARIONNE ANGELOU SALEM                            0501
A1001400190000000124730GORME, MARIANITA L.                                      0501
B1001400350233036774001RER DRIVE PHASE II NEIGHBORHOOD                         11601
B1001400350233036774001ASSOCIATION INC.                                        21600
A1301400470252446871001DANILO G. SARMENTA OR                                   10503
A1301400470252446871001JUDITH A. SARMENTA                                      20500
B0101406620273020543001GOLDEN DRAGON INDUSTRIAL CORPORATION                     1602
A0101406620273306796004FE FORTUNATA R. RIO                                      0501
B0101411110000003202051**********************                                   1601
A0101400570281186611001EMERITA R. DOMINGO                                       0501
B0801400160000005656959NATASHA SALES & MARKETING CORP.                          1601
A1101400120000000652380CAYUBIT JR., SERAFIN ASERON                              0502
A1101400120313478374028NEGRIDO, JINKY G.                                        0501
A3401400280000001723495JENNIFER G ONG OR JOHN OWEN ONG                         10501
A3401400280000001723495OR JOAQUIN C GOC                                        20500
A0101402510000007408815JUAN, DIANA GRACE CRUZ                                   0502
A0101409050000001353213*****                                                    0502
B0201400760374020279001*****                                                    1620
B0101402930381008829002AXEIA DEVELOPMENT CORP.                                  1615
A0101405490000005210228JIMENEZ, MARIO LAS PINAS                                 0502
A0101408400000007539942**********                                               0505
A0101408400000002921133MARILYN R. ALMARIO                                       0501
B0101409180397024361001ASALUS CORPORATION                                       1603
A1201400150421295296002YAP, EDISON LEE                                          0501
A1201400150000001863301TAN, DARWIN ANG                                          0504
A0901400220000000012324SPECIALIST MOTORCYCLE PARTS &                           10504
A0901400220000000012324ACCESSORIES, INC.                                       20500
B0101403030441024113001FITNESS SUPPLEMENTS PHILS. INC.                          1605
A0101403030441041524001**********                                               0504
A0101403320000009305755VIRGILIO S LATOY                                         0501
A0101406330000001235090MONTESSORI AT WORK PRE-SCHOOL                            0502
A0101406330472419583001AN TO YU                                                 0501
A0101406330472478374046YVONNE M. LOMIBAO                                        0502
A0101406330472479414003GEORGE B. CASQUEJO JR.                                   0501
B1901400160491012827001PORT CITY CREDIT AND LOANS CORP.                         1605
A1901400160491298552008VILMA F FALCUNAYA                                        0502
A0101407430503036416001JUPITER'S BUTCHER SHOP                                   0510
A0101407430503760338001S. ALFREDO A. OBRERO III OR                             10501
A0101407430503760338001ALFREDO F. OBRERO                                       20500
A0101405940000001210040ROBENIOL, GABRIEL TADENA                                 0501
A0101406880513212176004LIM, EMILE                                               0501
B0101406880513769110001SAFESOFT SOLUTIONS PHILIPPINES, INC                      1601
A0101408110000008795731AGUASITO, JUNLY HERNANDEZ DBU                           10503
A0101408110000008795731JUNKO BAR & RESTAURANT                                  20500
B0101408110000008308412SOL, ANTHONY SINTINA DBU NOBUNAGA                       11603
B0101408110000008308412JAPANESE RESTAUR                                        21600
A0101408110515427749001HILARIO TAMONDONG JR. OR                                10502
A0101408110515427749001TRISHA MARIE TAMONDONG                                  20500
B0101411400000002639701ELENA E. AMON                                            1605
A0101411790518055764371BANBAH, MUNISH NMN                                       0501
A0101403450000007072682***********                                              0502
B0101403610531064981001SOUTH CITY EXPRESS INC.                                  1601
B0101404000551038491001BLUE ANGEL KARAOKE BAR, INC                              1602
A0101404000551452012001PANGILINAN, CORAZON CATALASAN                            0501
A0101404130000002329120OLESCO, JACQUELINE TABILOG                               0501
B0101404130601039674001RESPACE INC.                                             1602
A0101407720602271723099CELINA D. CIFRA                                          0501
A0101407720602390297001PREYSLER, MARIVIC G.                                     0501
A0101407720602399405002THELMA E. RAMOS OR                                      10503
A0101407720602399405002CLAVER P. RAMOS M.D.                                    20500
A0101404260611478374091ROSITA LLANES                                            0501
A0101409890000006812780**********                                               0505
A0101407690652297173003LAQUINDANUM, ELIAS CONCEPCION                            0502
A0101407690652525001080DEL SOCORRO, ROSALIE - DEALERS                          10503
A0101407690652525001080OF SHOECAT, INC.                                        20500
A0101407690652525001081AGUSTINO, ROWENA - DEALERS OF                           10501
A0101407690652525001081SHOECAT INC.                                            20500
A0101411530000006792392SULIT, ROBERTO SANTIAGO  OR                             10501
A0101411530000006792392SULIT, SARA YAP                                         20500
A0101413440000002846320DIVINAGRACIA, CARMELA OR                                10501
A0101413440000002846320DIVINAGRACIA, MA                                        20500
B0101406590662022845001CAJ INFORMATION SOLUTIONS CORP.                          1602
B1301400210000008173773KUMPADRES MODERN CONCOCTION CORP.                        1601
A1301400210682673429001CHERRY ROSE P CALDERON                                   0501
B1301400340683353482001MARLENE R. JOSE OR JOSE MARI R. JOSE                     1602
A1301400340683456739001LAZATIN JR., EDUARDO NIONES                              0501
B1701400230000002762558STA. TERESITA HOSPITAL  (STH) INC.                       1601
A2801400100000005475323SMITH, WILMA CORDITA                                     0502
B2801400100712044135001MAXUS SUBIC FOOD AND SERVICES, INC.                      1601
B2801400230000000008391BERTES, VALIENTE VOLANTE DBU                            11603
B2801400230000000008391V2B BUILDERS                                            21600
A4101400260812478374055ARLENITA E. MORALITA                                     0501
A4101400260812478374062SUNNY G. CAPORADO                                        0501
A4101400420000003715655DEPANO, ABEL GONZALES DBU                               10505
A4101400420000003715655EXCELLENT DEPANO                                        20500
A4101400420000002345331MERCEDITA D. LAGDAMEO                                    0501
A4101400420000008280546RODILYN R. JUTIZ                                         0501
A4101400420814620451001TAN, BETTY TIU                                           0503
A4101400550000006044388LEANO, LIZA PATILAN                                      0503
A0101412340000002900352GHIE M. ROMERO                                           0501
B0101404840851009292001GEMSTAR MARKETING                                        1605
A0101404840851520766065TAYSON, FERNANDO                                         0501
A0101406750000006303577MORIS, JOSEPHINE LANZA                                   0501
A0101406750000006303635TUBALINAL, TERESITA PINEDA                               0501
A0601400230000003015823ALURA, JIMMY SUENO                                      10502
A0601400230000003015823OR ALURA, MERLE                                         20500
