B0101402510341821100608**********                                               2005
A0101409180000003780363TECSON, ANGELICA CALDERON                                0501
A0101402930381354198001WILFRIDO OR MA ELENA SANCHEZ OR                         10502
A0101402930381354198001MA THERESA MURGA                                        20500
A0101408400394478374056JENNIFER C. TIMOLA                                       0502
A4101400550815648589004GICA, JENNIFER ALONZO OR                                10502
A4101400550815648589004GICA, EZRA VAN ABRIGO                                   20500
A2001400290315042654001GFR TIRE SUPPLY AND SERVICE                             10503
A2001400290315042654001CENTER                                                  20500
A0101402930381208046001**********                                              10502
A0101402930381208046001**********                                              20500
B0101413860862821200608**********                                               2001
A0101400860011084001001**********                                               0505
A0101400860011394779002**********                                               0503
B0101400150061011185001CPIII, INC.                                              1601
B0101400150000000052888PETER PAUL PHILIPPINE CORPORATION                        1620
A0101400150061226941001ROBERTO L. CO OR                                        10501
A0101400150061226941001DOLORES I. CO                                           20500
A0101400150061396548001ALIMURUNG, BENJAMIN N. OR                               10501
A0101400150061396548001ALIMURUNG, ALICE                                        20500
A0101400150000002749615CAINAP, MAY NABO                                         0502
B0101400600071476377003*********                                                1601
B0101405810072361051003**********                                               1601
B0601400100081013321001BIO-TECH MARKETING CORPORATION                           1604
A0601400100081501761001TAN, WINTHEL OR RALPH                                    0502
A0601400520000005001374LAXAMANA, KC OHLA VALENCIA                               0502
A0101400730000001822760DY, MERYLL LYN YU DBU MYTY                              10501
A0101400730000001822760MARKETING                                               20500
A0101400730000001822771DY, G DBU GWDY MARKETING                                 0501
A0101400730000001822782LIM, C DBU LOEWE MARKETING                               0501
A0101413150000003868377******                                                   0502
A0101413310000005433352ANGCO, JULIE ANN MOJICA OR                              10502
A0101413310000005433352ANGCO, KELVIN ANG                                       20500
A0101412920000000276460OBTINALLA, RODELIA NELMIDA                               0502
A0101412920000008813252PADILLA, JOHN RODICA                                     0502
A0101401090171202066003MARIA JORQUESA A. HAKCHOLNA                              0502
A0301400530193047866001MALBAS, MAHINAY & CO., CPA'S                             0502
A0301400660000000194570DEQUITO, CITZY VENTOR                                    0502
B0301400660000000048213G.J.T.F. BUILDERS AND CONTRACTORS, INC.                  1603
B0301400660000000195011C-ONE TRADING CORPORATION                                1610
A0301400660194084735001LABARITE, JOSEFA MANCERAS                                0502
B0101413020000000038388ASISI SYSTEM CORP.                                       1603
A0101413020000000880393CUARESMA, PEDRO DORIA DBU:839                           10502
A0101413020000000880393MACHINE WORKS                                           20500
B0101410720653036522001**********                                               1605
A0101413600000004661438DR. ROSARIO D. CABRERA                                   0502
A3101400160000001169222MACRINA M. AUREADA                                       0501
A3101400870225217498010ALMARIO, ARNOLD B.                                       0501
A3001400130000002063441JONGKO, JOSE MARI MARCO OR                              10502
A3001400130000002063441JONGKO, DEBORAH                                         20500
A0101406460272287912001********                                                 0501
A0101406620000001686780PANGILINAN, GENALYN RUBY POLIDA                          0501
A0101406620000005394987BACANI, EDISON                                           0505
B0101406620273033463001ARL BUSINESS CONSULTANCY, INC.                           1602
A0101406620273314677002GEORGE G. ANGEL OR GLENDA M.                            10501
A0101406620273314677002AGUILA                                                  20500
A0101406620273553996001CHONG, KATE MING                                         0501
B0101411110276086971088STRADCOM CORPORATION                                     1602
A0101400570281191853002GREGORIO, JULIETA ORBISO                                 0501
B0101411240283065913001DAELIFT TRADING INC.                                     1601
A6601400120314612855001SUNDAY LAVIN JR OR IRIANA LAVIN                          0505
A6601400120314612876001DERAMPATUN, ASIS DORADO                                  0502
B3401400280318045071001ASIA PACIFIC AQUA MARINE, INC.                           1610
A0101409050000003536430OSENA, ANGELICA                                          0502
B0101409050000007526458RELIANCE HR BUSINESS SOLUTION CORP.                      1602
A0201400920000002804504BARENG, NATHALYN C.                                      0503
A0201401020000003031129DEL PRADO, JOSE VICE DBU DE LAR                          0503
B0201401020000005109922RED CHERRY 'N SILVER TIPS CORP.                          1610
B0201401020000005109940FAMILY TABLE INC.                                        1605
B0101402930000005646153ENGAGE MEDIA MAVEN INC.                                  1603
A0101408370382434379001DR. LOURDES JOSEPHINE                                   10502
A0101408370382434379001ANGLIONGTO-RAMOS                                        20500
A0101408370382527801002PHILIP LANCE ANTHONY A. LIU                              0502
A0101408790000005555682MARIE KIRSTIN C. DE JESUS                                0501
A0101408790000005251376GAMBOA, ROSELY BUENDIA                                   0501
A0101408790000004697112FERRER, PENELOPE DE GUZMAN                               0501
A0101402770000007935779BOTE, CECILE TEMPROSA                                    0501
B0101402770391015995001CLAYTON INDUSTRIAL CORPORATION                           1604
B0101402770391031763001SIGMA PACKAGING CORPORATION                              1601
A0101402770391712538001RAMOS, MA. CRISTINA JOYCEE                               0501
A0101405490000002253010ROSEMAE J. SISON                                         0501
A0101405490000003178432MIRIAM D. PANO OR MELANIO B.                            10502
A0101405490000003178432PANO JR.                                                20500
A0101408400394785469001OLLERO, CECILIA DAVAL SANTOS                             0501
A0101408950396529242001DR. EVAN GLENN SILVERIO VISTA                            0505
A0101409180000009241225OLIVER JOHN PAPICA                                       0501
B0101409180397044045001CACHO CONSTRUCTIONS, INC.                                1603
A0101409210000005739648MAGTOTO, JOVILYN CRUZ                                    0501
A0101409210000008922287AREJOLA, NASTASSJA FRANCESCA                            10501
A0101409210000008922287BIANCA DELA CRUZ                                        20500
A5501400120000002019056ONG, DANIEL STEVEN DY                                    0501
B2401400180411276067001GAISANO DADIANGAS, INC.                                  1610
A0901400220000002300845LIM, RENEEROSE VESAGAS                                   0502
A0101403030441239795001**********                                               0501
A0101403030441351775001**********                                               0503
A0101403030441594340001**********                                               0501
A0101412890000001056575UDOG, MA GINA SAN PEDRO                                  0505
A0101410140000000499190DOMINGUEZ, ANNA                                          0501
A0501400170481046585002ANG, JUSSLYNN DBU                                       10502
A0501400170481046585002AVS DISTRIBUTION                                        20500
B1901400160491027966001SALESFORCE ONE MARKETING, INC.                           1605
A1401400110000007186623DY, DAVE FRANCIS AYCARDO                                 0506
A1401400110492391345002R'S WINE CENTER                                          0502
A1401400110000000132841*******                                                  0501
A1401400110492777638001DY, EDNA AYCARDO                                         0506
A1601400170000001360689ALBERT S. ALEGRE                                         0501
A1601400170494066242001BALOLOY, DBU LEIBAR LABORATORY                          10501
A1601400170494066242001OR BALOLOY, LEA B.                                      20500
A0101407430000005358589ROSALIE CLAIRE A. CERVANTES                              0502
B0101407430000001213078PEAK FREIGHT SOLUTIONS INC.                              1602
A0101407430503512816001ROBVI ROSE M. DAPLAS                                     0502
B0101403580511015278001MTV INVESTMENT PROPERTIES HOLDINGS                      11605
B0101403580511015278001CORPORATION                                             21600
B0101403580511015363083MEC - CT                                                 1610
A0101403580511420184003MARIA CAROLINA S. MACASAET                               0520
A0101403580511513845001LETICIA C. DELOS SANTOS                                  0503
B0101403610531035875001G'TECHNOLOGIES INTL. INC.                                1605
A0101403610531066447001TUDTUD, E DBU VME ENTERPRISE                             0501
A0101403610531762297001HO, HELEN TAN OR                                        10502
A0101403610531762297001TAN, DOLORES LIM                                        20500
A2201400250561383886001WILFREDO D. TOLDANES                                    10501
A2201400250561383886001OR ROWENA O. TOLDANES                                   20500
A0101404130601450411001NIDA D. AGCAOILI OR                                     10501
A0101404130601450411001LEOPOLDO A. AGCA                                        20500
A0101407720602006037001MA. LORNA S. BANGAYAN                                    0501
B0101407720602027414001GAN ADVANCED OSSEOINTEGRATION CENTER                     1610
B0101404260611030938001BUON FORTUNO REALTY DEVELOPMENT                         11601
B0101404260611030938001COMPANY, INC.                                           21600
A0101404260611150840001WILLY CHING OR ISIDORA CHING/                           10505
A0101404260611150840001GOLDSUN LUMBER                                          20500
B0101411530000000013594**********                                               1601
A0101413440000002846433********                                                 0501
A0101413990000003037112ABAD, MA. THERESITA NAZAL                                0501
A0101406590662297269001MARTINEZ, ARMAN M. OR MARTINEZ,                         10501
A0101406590662297269001MARIA THERESE G.                                        20500
B1301400210000000023474RICH-WELL INTERBRAND CORPORATION                         1602
A1301400210682435928001EMMANUEL DC RAMOS                                        0501
B1301400340683005408001REPUBLIC COURIER SERVICE INC.                            1602
A0101408240711432303002PADILLA, BERNADINE BALUYUT                               0501
A0101408240711528457001CUERVA, ISABEL BECK                                      0501
A4101400260000005333653DE ERE, NOIDA URIAN                                      0502
A4101400260812468473002BIANAN, RODNER AYUKIL                                    0501
A4101400260812576194001NOEL N. RAZON                                            0502
A4101400390000007459198GUINOO, BERNARDO PRUDENTE OR                            10502
A4101400390000007459198GUINOO, ANA BOSC                                        20500
A0101404840851046725006MELA M. GEROLAO                                          0501
A0101404840851520766180CARMELITA M. BARBACENA                                   0501
B0101406750852041698001MELIX MANPOWER & JANITORIAL SERVICES                     1610
B0101406750852066428001FUNRIDE TRANSPORT CORP.                                  1601
A0101406750852184616001EUGENE T. MANGUBAT                                       0502
A0101405070861478374020SOL G. CONFLOR                                           0503
A0101413860000000859047MARIA TERESA M. ALEJANDRE OR                            10502
A0101413860000000859047JENNIE M. ALEJANDRE                                     20500
A0601400230000001687061LINGAT, PAOLA ANGELICA MERCADO                           0502
