A1101400120000006081023SALINAS, ANTONIO DELA CRUZ                               0505
A1101400120000000652471TANOLA, EVE MARGALLO                                     0501
A1101400120000006081056CONDE, ALEXIS CELL ABROGAR                               0502
A1101400120000006081103BACSAL, EMMYLEEN BATAWAN OR                             10503
A1101400120000006081103BACSAL, DAVID DACUNOS                                   20500
B1101400120000006186952COASTALVIEW FOODS CORPORATION                            1602
A1101400120000006186729CHUA, ROMEO ALCONABA DBU                                10501
A1101400120000006186729ERR BUILDERS                                            20500
A1101400120313478374071ZACARIAS, MARIA FE C.                                    0501
B1101400120000000653190BOSJAN MAIN MARKETING CORP.                              1605
A1101400120000003022413DUCENTES, GLORIA TROCINO                                 0501
A1101400120000003981317CANETE, ALEXIS JAN DY DBU                               10503
A1101400120000003981317CANETE ENTERPRISE                                       20500
A1101400120000001547520TAN, MELVIN NATHANIEL ANDRADE                            0502
A0201400920000000048020DONG JUAN CENTRAL CORPORATION                            0501
A0101403320000001803383REGINALDO S. SAN JUAN                                    0502
A3801400170000005287998CHUA, MARVIN SEE                                         0501
A0101400860000002333513******                                                   0501
A0101400860000009198274************                                             0502
A0101400860011447798002**********                                               0502
A0101400860011478374007**********                                               0501
A0101400860011500268001**********                                               0503
B0101400860000010683286***********                                              1610
A0101400860011571320001**********                                               0503
A0101400860011658981001**********                                               0502
A0101400150000000807118YOUNG, LAUREN ANNE TALDE                                 0501
B0101400150061028210001GOLDEN DRAGON MOTOR SALES CORP.                          1605
A0101400150061038536048JOSET R. ANGELES                                         0501
A0101400150061039916172ERICKSON A. RODRIGUEZ                                    0501
B0101400150000000052786AMANDA CARINA HOLDINGS, INC.                             1602
B0101400150000009694615ICONNECT INTEGRATED SOLUTIONS INC.                       1605
A0101400150061643324001MONTINOLA III, AURELIO REYES                             0502
A0601400100000007250702CANCIO, JIAMEI LIAMCO DBU ONE P                          0501
A0101413730000000144761****************                                         0503
A0101410560000010093459GAMARA, ROSEMARIE PUEBLO                                 0501
B0101400730111033923002QUICKLEND PHILIPPINES INC.                               1601
A0101400730000001822806LEE, R DBU ROLIM MARKETING                               0502
A0101406040112094295001********                                                 0501
A0101401960000000211092TJL METALLIC CRAFT                                       0501
A0101412630000007158110BALDEO JR., MANUEL CRUZ                                  0503
A0101401830000011228970AQUINO, ELIZABETH GALAURA                                0501
B0101401830141044673001CAMBRIA REALTY & DEVELOPMENT CORPORATION                 1603
B0101401830000000059961CONSUELO INDUSTRIES, INC.                                1601
B0101401830000001282280MECOMARK, INC.                                           1601
A0101401830141069914001DELA CRUZ, ERRA SILVA                                   10501
A0101401830141069914001DBU ERRA ENTERPRISE                                     20500
A5001400170000002288242AJOC, RODOLFO PAPELLERAS OR                             10502
A5001400170000002288242AJOC, MARY JUNE                                         20500
A0101400440161417387001ARNOLD F. AVILES                                        10501
A0101400440161417387001OR MADELYN M. AV                                        20500
A0101400440161478374076JAYNE D. BARBIN                                          0501
A0101400440161478374198EUFRONIA I. BERGONIA                                     0502
A0101400440161532798001MARILYN A. MONIS                                         0502
A0101407270000000818337PHILIP LOUIE Y. KING                                     0502
A0101401090000012192102ABOGADO, JANNEL NOVINO                                   0501
A0101401090171195871001BONIFACIO T. SIMBUL OR                                  10501
A0101401090171195871001MARYLOU J. SIMBUL                                       20500
A0101401090171196054001DRS. EMILIANO OR BEATRICE                               10503
A0101401090171196054001CANONIGO                                                20500
A0101401090171442848001ALAN REGIN S. MALVAR                                     0501
A0301400530193774589001CREDO, ARIEL S.                                          0501
A0301400660000007029070ALVAREZ, MARITONI CRUZ                                   0501
A0301400660000000475569ASUNCION, ARMANDO FUENTES                                0501
A0301400790000002301319**********                                               0501
B0301400790195054277001BODEGA SALES CENTER CORPORATION                          1605
A0301400790000008015121CADALZO, DENNIS SALOMERI DBU                            10501
A0301400790000008015121ULTRA-GOLD MOTOR TRADING                                20500
A0101413020000006295134CORTES, CHRISTOPHER PARUNGO                              0501
B0101410720653015121001HAYAVILLE HOMEOWNERS ASSOCIATION                         1601
B0101410720000000008733SMARTSERVE MANPOWER RESOURCES, CO.                       1602
B0101410720210764716001J.C.T. EZ LOAN CORPORATION                               1602
B0101413600000004661529EIGENTECH CORPORATION                                    1602
B3101400160000010010610FRANCISCO P GARCIA & CYNTHIA T ALARCON                  11610
B3101400160000010010610& LEILA D TORRES                                        21600
A3101400160221041876001GOLDEN ADVENTURES TRAVEL & TOUR                          0501
A3101400450223221513001FANDINO, DULCE GALLIVO                                   0501
A3101400450000005355471CIGARAL, PEDRITO EXCONDE                                 0503
A3101400740224069136002HERNANDEZ, FERDINAND VIRTUCIO D                          0501
A3101400740000002634740JABOLA, MICHAEL CONTRERAS                                0502
A3001400130000005446340BALANGA, MARIO FERNANDEZ                                 0501
A3001400130000001261283LIM, EDGAR ALLAN DIAZ                                    0502
A3001400130000005708523MANGAO, NECITAS BATALUNA                                 0501
A3001400130230478374004BALABA, JANETH BORJA                                     0501
A3001400130000008264813SALUDES, GUILLERMA L.                                    0502
A3001400130000008915971JUBAC, CHARLES TATAD                                     0501
A3001400130230757981001SACAY, RENE CANTOR OR SACAY,                            10502
A3001400130230757981001JOSEPHINE SIMBIT                                        20500
A1001400190231427280002GAYAPA, JESSECA GADIAN                                   0501
A1001400190231520766020LUBIDO, CAROLINE JARALES                                 0501
A1001400190231520766051NANCIE DAAYATA                                           0501
A1301400760000009812211DELA MERCED, MARICEL MARILAG                             0501
B1301400760000010656830ELITE MOTORBIKE SALES CORPORATION                        1605
A1301400760000000007296CATHERINE F. SANVICENTE OR                              10501
A1301400760000000007296SANDY M. FERRER                                         20500
A1901400290261244408001ISIDRO HERNANDEZ OR                                     10505
A1901400290261244408001ISABELITA HERNANDEZ                                     20500
A1901400290261488341099FLORENCE AMORADO SANTOS                                  0502
B0101401670271007081001BELSON DEVELOPMENT CORPORATION                           1604
A0101406460000000182610LUNA, MARK ANTHONY NUBLA OR                             10503
A0101406460000000182610LUNA, GWENDOLYN                                         20500
A0101406620000012200136DELGADO, GUIDO ALFREDO ACERO                             0501
A0101406620000012200318IBASCO, RONALDO DY LIACCO                                0501
A0101406620273341737001KAMPITAN, MA. THERESA LEDESMA                            0501
A0101406620273357236001GABRIELE G. BOSCHI OR                                   10503
A0101406620273357236001JULIE MARIE J. B                                        20500
A0101410980000002303782JOVEN, ROMAR VINCE SANTOS                                0501
A0101411820000000023952SISON JR., JAIME DELA FUENTE                             0501
A0101400570000003891452LEGASPI, MELANIE SONON                                   0501
A0101400570000003891550ABELLA, JENEFE BIRAO                                     0503
A0101400570281422071001DRA. ELSIE B. PASCUA                                     0503
B0101411240283065913001DAELIFT TRADING INC.                                     1603
B6601400120314040691001NORTHERN SAMAR ELECTRIC COOPERATIVE,INC.                 1610
A6601400120314041602001LEXTAN GENERAL MERCHANDISE                               0502
A6601400120314612853001INTAL, FERNANDO OR MARLENE                               0502
A6601400120314612866001ALCERA, JUNELL PAUL OR JENNIFER                          0505
A6601400120314622580001SOSING, CAROL O. OR FELIPE A.                           10505
A6601400120314622580001OR CAROLYN O.                                           20500
A0101402350321180119001SHERENA O. PARUCHA OR                                   10501
A0101402350321180119001VIRGILIO B. PARU                                        20500
A0101402350321280548001NASSER, MA. THERESA BUSTOS                               0501
B0101402510341025666001SAN BEDA LAW ALUMNI ASSOCIATION                         11602
B0101402510341025666001INC.                                                    21600
B0101402510341047174001OWEN DREXLER FASHION COLLECTIONS                         1602
B0101402060351178024001**********                                               1604
A0101402060351211701001DANNUG, MARIA DOLORES CARLOS OR                         10501
A0101402060351211701001EDGARDO D. OR AN                                        20500
A0101409050000006986670TOREDA, MARIA CONSUELO BENATTI                           0501
A0201400760000005711273BURDEOS, VITA JOY OLEDAN                                 0502
B0201400760000007134501LAND MOVERS MARKETING AND SALES INC                      1602
A0201400760374520766001CARULASAN, KRIZIA JANE BUGO                              0501
A0201400920375044441001SUI'S PRINTSONIC                                         0502
A0201401020000003031129DEL PRADO, JOSE VICE DBU DE LAR                          0502
A0101402930000003710610PAJARILLO, RIZALYN D. OR                                10502
A0101402930000003710610PAJARILLO, JIMMY S.                                     20500
A0101408370382206445001CHONA D. CAPILI                                          0502
A0101408790000004983348ANGELITA D. CRUZ                                         0501
B0101408790000006025827WINROCK INTERNATIONAL INSTITUTE FOR                     11602
B0101408790000006025827AGRICULTURAL DEV                                        21600
B0101402770391025883001DA LEONARDO INDUSTRIAL INC.                              1601
B0101402770391043080001ADT MONTESSORI SCHOOL, INC.                              1602
A0101405490000005210159OBAR, DONNA MARIE NAVARRO                                0501
B0101405490392043682001MIRROR YOUR WORLD GLASS AND ALUMINUM                    11605
B0101405490392043682001SUPPLY                                                  21600
A0101408400000006253243LIM, JIAN JEBIE REYES                                    0503
A0101408400000001035421ANGELICA BIRTHING HOME AND                              10501
A0101408400000001035421PEDIATRIC PRIMAR                                        20500
A0101408400394416106002BARRA, REINE NG                                          0501
A0101408400000001952883GABRIEL TAILORING AND GENERAL                           10501
A0101408400000001952883MERCHANDISE                                             20500
A0101408400394569664001DALUSAG, MARY JANE ORIS OR                              10501
A0101408400394569664001NUNEZ, SHIRLEY M                                        20500
A0101408950000011764755POSAS, CATHERINE DIZON OR                               10501
A0101408950000011764755POSAS, FABIO ENRIQUE                                    20500
A0101409210000009309753SENIR, MARIA MICHIKO REYES                               0501
A0101409210000011535367TOMAS, MARVIN JAKE LUNA                                  0501
A0101412210000002714649ROQUE, LEOVIR CABRERA                                    0502
A0101412210000000031381*********************                                    0503
B0301400820000005196669BANSALAN MEDICAL CLINIC &                               11605
B0301400820000005196669HOSPITAL, INC.                                          21600
A1201400150421040810001"H3" HYDRO HEALTH HABIT (17 STA                         10501
A1201400150421040810001IED DRINKING                                            20500
A0901400220000000012368SANCHEZ, NANCY DAGALEA                                   0501
B0101403030441237338001**********                                               1601
A0101403030441239449002**********                                               0501
A0101403030441241050001**********                                               0503
A0101412890470674791001OPINION, SYLVIA P.                                       0502
A0101403320471067069001HOJAS, S DBU GILSUN'S TIRE                              10501
A0101403320471067069001SUPPLY & VULCANIZING                                    20500
B0101406330472020438001DAROMAR DEVELOPMENT CORP.                                1605
B0101406330000009413725EFF POTATO CORNER                                        1601
A0101406330472211599001ANGELITA D. PUNZALAN OR                                 10502
A0101406330472211599001DAISY P. VILLANUEVA                                     20500
B0101412760000007821903EBLACKBOARDS SOLUTIONS INC.                              1602
B0101412760000007821954OLYMPUS COPY PRINTING CORP.                              1603
A0501400170000000495290VELASCO, NORMAN MARTINEZ                                 0501
B1401400110492046339002******                                                   1620
A0101407430000002298257ABDULLA, AISA PINEDA                                     0502
B0101407430503034519002D.G.X. PHILS., INC.                                      1603
B0101407430503034519003D.G.X. PHILS., INC.                                      1603
A0101403580000003311731ANABEL N. TAN OR WILLY C. TAN                            0501
A0101403580000010602341TIO III, STEVE DANIEL VENANCIO                          10501
A0101403580000010602341OR TIO, MARIAN HAZEL                                    20500
A0101405940000005359782************                                             0505
A0101408530000007304521DE GUZMAN, ROSE SHARON PATRICIA                          0501
A0101408530000007304429GALIGAO, ANGELINE GABUCAYAN                              0501
A0101408530000001268560GUILBERT P. SAMPEDRO                                     0502
A0101411790000006647603CAYANAN, MYRA FACTOR                                     0501
B0101411790000007043967ALLIANCE OF NON-STOCK SAVINGS AND LOAN                  11602
B0101411790000007043967INSTITUTIONS INC                                        21600
A0101403450000007072728**********                                               0501
B0101403450521011604001CROWN ASIA COMPOUNDERS CORP.                             1610
B0101403450521012215001*********                                                1601
B0101403450521021842005WALL VISION CORPORATION                                  1603
A0101403450521238950001**********                                               0501
A0101403450521366866001**********                                               0501
A0101403450521678458001*********                                                0502
B0101404130601016662001PAYROLL SERVICE PROVIDERS, INC                           1603
B0101404130601037382001TIMECARGO LOGISTICS CORPORATION                          1601
A0101407720602364355001PALANCA-TAN, MARCELLE MARIE                              0510
A0101407720602566684001CHU, MICHELLE CHAN                                       0502
B0101404260611030938001BUON FORTUNO REALTY DEVELOPMENT                         11602
B0101404260611030938001COMPANY, INC.                                           21600
B0101404260611150847001ALOG, DIONISIO OR OFELIA OR FREDERICK                   11603
B0101404260611150847001DAVID, ARLENE A.                                        21600
A0101404260611469967001MERLYN CABADDU                                           0501
A0101409890649725660001**********                                               0501
A0101413440000006680937CELESTINO, GEMMA TERESA ANGELES                          0501
B0101414120000001984165UNITED ACHIEVER ASSESSMENT & TRAINING                   11602
B0101414120000001984165CENTER INC.                                             21600
A0101410300000000191815CARBALLO, LUIS ANTONIO S. OR                            10505
A0101410300000000191815SALAZAR, EMMANUE                                        20500
A0101410300000000191939CARBALLO, LUIS ANTONIO S. OR                            10505
A0101410300000000191939SALAZAR, EMMANUE                                        20500
A1301400210000005040577**********                                               0501
B1301400210682012959001COLEGIO DE CALUMPIT INC.                                 1620
A1301400210682628277001ADELIA MARIA B SOTO OR                                  10502
A1301400210682628277001MANOLET C SOTO                                          20500
B1301400500000003070093AMISTAD, RONALDO ESTAVILLEO                              1603
A1301400500684594780002CASTRO, RAYMUNDO OR                                     10502
A1301400500684594780002CASTRO, ROSEMARIE                                       20500
A0101408240000002821996NICHOLAS, JANET SECADES                                  0501
A0101408240000009452991ROJAS, CARMENCITA SORIANO                                0501
A0101408240711592204001MIRANDA, FATIMA MALIWAT                                  0503
B0101408240711691416001FIVESOME INC.                                            1601
A2801400230000002312345SAGALA, ROWENA DEREZ OR                                 10501
A2801400230000002312345SAGALA, JOSE MAXIMINO                                   20500
A4101400260000010623531WATERS, ARLENE V. DBU DENT360                           10505
A4101400260000010623531DENTAL DIAGNOSTIC CENTER                                20500
A4101400390000003389504ELENA C. CARAIG                                          0505
A4101400420000002084460MARISSA GUNAO                                            0502
A4101400550000001332427HILAGA, R DBU RGM EXHIBIT AND                           10501
A4101400550000001332427EVENTS SERVICES                                         20500
A4101400550000006044651AAT COMPUTER SUPPLY                                      0502
A0101412340000003340661JULIUS CEZAR I. AMBROSIO                                 0501
A0101404840000006364872CORTEZ, KRIS DBU KENZO AND KLOE                          0502
A0101404840851217637018EDNA M. FAGARA                                           0502
A0101406750000002040282ACIBAR, SHELLA RICAFRENTE                                0501
A0101406750000000480722CASTRO, ROBEY DBU MIMARO GENERA                          0501
A0101406750852236873002SISORA OLGAH ELUMIR                                      0501
A0101405070000011289097GUARIN, ARTHUR GOMEZ                                     0502
A0101405070000005619241LIN, TERESITA REYES                                      0501
A0601400230000002650108TUAZON, REMIGIO ESCANO                                   0501
