A0101412890000002747948**********                                               0501
A1001400350000000922190RIVERA, JACKIE LOU VILLAROYA                             0502
B2001400290000008441309MALAHAY-MOSQUEDA, PAMELA AND SAYSON, KAR                11601
B2001400290000008441309EN MAE ARBOLEDA                                         21600
B0101414120000003584281JD & P FOOD TRADING CORPORATION                          1602
A4101400420000007305433MANICIO, MARIA ARMI ORTEGA                               0501
A4101400420000008280513SANTOS, RHADE DBU LTRJ PRAWNS                           10501
A4101400420000008280513AND CRABS TRADING                                       20500
A4101400420814478374122AGUILO, RODENA T.                                        0501
A0101401250021774999001ZABALA, JOY SARAH FAJARDO                                0501
A0101400150061039916023MEMBERS OF CWSLAI - REGULAR CA                           0501
A0101400150061227864001DENNIS IGNACIO                                           0503
A0101400600000002335786********                                                 0501
B0101400600071234351001**********                                               1603
A0601400100000002698402MONTEROS, CRISTALIN MAGAT                                0501
A0601400100000006092548****************************                             0501
A0601400100081251631002**********                                               0505
A0601400100081464717001ADELINA CHAMBERS OR                                     10501
A0601400100081464717001HARRIS PAUL CHAM                                        20500
A0601400100081751039001BENSIMON, ASSY BERNARD                                   0504
A0601400520000001706792BUNGQUE, ALDRIN CAPILI                                   0501
A0601400520000002270913MICLAT, IMELDA ANCHETA OR                               10505
A0601400520000002270913MICLAT, EDWIN GATUS                                     20500
A0601400520000003187182ALMERIA, ALDWIN EVANGELISTA                              0501
A0101413730000002289609**********************                                   0501
A0101410560000001944174ROWENA PADILLA FRANCIA                                   0501
B0101401830141044673001CAMBRIA REALTY & DEVELOPMENT CORPORATION                 1603
A5001400170000000213885PONDOC, NAOMI BACSAN                                     0501
A0101412920000005354412DOMINGUEZ, DEXTER BAUTISTA                               0501
A0101400440000001439732ANALY M. VILLARMA                                        0501
A0101400440161525001104EVELYN G. GARCIA                                         0501
A0101400440161525001125MAY M. RAMOS                                             0501
A0101407270000008454973ROSELYN S. SUANTE                                        0501
B0101407270162038101001BIRDS INTERNATIONAL, INC.                                1603
A0101407270162587936002WILFRIDO G. TIRONA                                       0501
A0101401090171329912002MICHAEL S. CUNANAN                                       0501
A0101401090171500760001ERIC B. ZERRUDO                                          0501
A0101401090171536816001STEPHANIE C. REYES                                       0501
A0101401090171666435001DONDI C. LIM                                             0501
A0301400530000005300332ORDONIO, GINALINE HEPGANO                                0501
B0301400660194789062088*****                                                    1601
A0101401380201695057001ONG, MARGARET HONG OR                                   10501
A0101401380201695057001ONG, JOHN CARY LEE                                      20500
A0101410720000007017392VILLA, C  DBU CHINLEI HAULING                           10501
A0101410720000007017392SERVICES                                                20500
A0101410720000001602302******                                                   0501
B0101410720000005786736S+P GLASS CO.                                            1602
A0101410720653528817001VINCENT GONZALO SY OR TIMOTHY                           10502
A0101410720653528817001JON SY OR JULIE SY                                      20500
B3101400160221037479001TABLERIA LA CONFIANZA CO., INC.                          1601
A3101400160221217497021CYNTHIA B. PEREZ                                         0501
A3101400160221478374043MICHELLE M. CARPIO                                       0501
A3101400450223403586001NUA, CHRISTIAN JOHN OR RICHARD                          10510
A3101400450223403586001OR MELODY                                               20500
A3101400450223442002001GARCIA, ROSALINA OR                                     10502
A3101400450223442002001JESUSA CORAZON                                          20500
A3101400740000006349482RONGAVILLA, ALVIN CRIS RONGAVIL                          0501
B3101400740224041741001CASA DEL NINO MONTESSORI SCHOOL CIUDAD                  11603
B3101400740224041741001DE CALAMBA, INC.                                        21600
A3001400130000006145262DELICANO, MECHIEL                                        0501
A1001400190000002170736MARABE, RIKKA LA VINA AND                               10505
A1001400190000002170736LA VINA, IRISH P                                        20500
A1301400760000005379520LUIS V. CHUA                                             0501
A0101406620000006317831LEYSON, OFELIA RECTA                                     0501
A0101406620273075498001MONTIEL, CYNTHIA RITA TIQUE                              0501
A0101406620273212596002ANG, BEE FERRANCULLO                                     0501
A0101406620273236978001CALLEJA, HOWARD MACEDA                                   0503
A0101406620273313236001HARRY YU OR ROSA YU                                      0501
B0101412470000002338883FUNDACION SANSO, INC.                                    1603
B0101412470000003847490DOMINICAN SCHOOL (MANILA), INC.                          1605
A0101400570000002329648UMALI, MA NENITA CANSANA                                 0501
A0101400570281628531001BILLARDO H. DEL ROSARIO, M.D.                            0505
A1101400120000001547337ALDIANO, FLORDELUNA LATO                                 0501
A1101400120000003595966BARRETO, DIONNE AMIEL DAYAG                              0501
A1101400120000001547235DUGANG, JESSA EBIT                                       0502
A6601400120000001370536CORNILLEZ, LIDANY FUENTEBLANCA                           0502
A6601400120000003673158REBADOMIA, RUBY IRINCO                                   0501
A6601400120314612939001TOBES,SANTIAGO OR TOBES,CECILIA                          0501
A6601400120314622580001SOSING, CAROL O. OR FELIPE A.                           10505
A6601400120314622580001OR CAROLYN O.                                           20500
B0101402350321006710001DASMA CITYWIDE GEN MDSG INC.                             1604
B0101402350000000046017SAN DIONISIO CREDIT COOPERATIVE                          1605
A0101402350321485233001TUI, CHARLES ANGELO                                      0503
A0101405650000000080082TAZON, EDELYN ANIVES                                     0501
A0101405650000000525717TAMBUNTING, JOY MYRA SALVADOR                            0505
B0101402510341037808001FAIR ALL MARKETING                                       1602
B0101402060351009368002RESINS INCORPORATED                                      1601
A0101402060351211701006DANNUG, MARIA DOLORES CARLOS                             0502
B0101409050000000258571CITY MARQUE LIMITED                                      1602
A0201400890000008445643BANAC, ROSALYN LAO                                       0501
A0101408370382433152001DR. ARSENIA V. CRUZ OR                                  10502
A0101408370382433152001MR. ARMANDO E. CRUZ                                     20500
A0101408790000008455152VUGS, EELCO NMN                                          0501
B0101408790000005594716SELSYN ELECTRIC PRODUCT INC.                             1602
A0101411660000005324009SEHWANI, JHARNA ARJANDAS                                 0501
A0101415350000006213003DE GUZMAN, MARIA KATRINA R. OR                          10501
A0101415350000006213003DE GUZMAN, MARK ANTHONY R                               20500
B0101408950396047627001OB GYN DEPARTMENT SLMC GC                                1601
A0101408950396389054001LUZ, XERES DIMALALUAN                                    0501
B0301400820000005196669BANSALAN MEDICAL CLINIC &                               11604
B0301400820000005196669HOSPITAL, INC.                                          21600
A5501400120000002348325ANG, ANDY MAN CHUNG CHANG                                0505
A2401400180411272714001PAGCO, MARCELO TOLENTINO                                 0501
A2401400180411478374069JUBAN, MARIVIC BABA                                      0501
A2401400180000000073469TAPUZ, JOSEFINO TORCUATOR                                0501
A0901400220000006214400**********                                               0502
A0101412890000007095061GEROLAGA, ARLYN SANTOS                                   0501
A0101412890000001765631CATALIG, LYDIA LANDAYAN                                  0501
A0101412890000003508198PETRONIO, LEMUEL GENOTIVA                                0501
A0101403320000002351322DULAY, BELEN MAGNAYE                                     0501
B0101403320471008859001NEW LITE LUMBER & CONSTRUCTION                          11602
B0101403320471008859001SUPPLY                                                  21600
B0101403320471009016001ABBA EQUIPMENTS TRADING AND                             11603
B0101403320471009016001SERVICES INC.                                           21600
A0101403320000001803327JULIUS CEAZAR SHOE CREATION                              0505
A0101403320000006026842*********                                                0502
A0101403320471209343001SHERLITO OR PRISCILA BERNAL                              0501
A0101410140000001074646MEMBERS OF NATASHA (SHOECAT INC                          0501
A0101405940000000061583CASAS, JOHN VICTOR ABEJURO OR                           10501
A0101405940000000061583CASAS, CECILIA TRINIDAD                                 20500
B0101405940512005329001TRIANON INTERNATIONAL, INC.                              1610
B0101405940000005359571TOPSTRASSE GLOBAL INC.                                   1603
A0101405940512597822001HERNANDEZ, ANTONIO PENGSON                               0503
A0101406880513016429002CHADA ENTERPRISES                                        0502
A0101411790518055764263SOBREDO, FIDES BEFINNA DINO                              0501
A0101411790518055815079PENANUEVA, ANN CHESKA ASPRAH                             0501
A0101403610531034542001ESQUIVEL'S GARDEN AND RESORT                             0502
A0101403610531232548001**********                                               0506
A0101404000000001186863DELFIN, ANNA TAN OR MANUEL OR                           10503
A0101404000000001186863ALEJANDRO OR FRA                                        20500
B0101407720602027833001PHILIPPINE CENTER FOR DIABETES EDUCATION                11602
B0101407720602027833001FOUNDATION INC.                                         21600
A0101407720602394399001CRUEL, ALDABELLE LABANEN                                 0502
A0101407720602397271001OZAETA, MA. RAMONA PABLO                                 0501
A0101407720602483110001YU, MICHELLE ANABELLE MERCADO                            0504
B0101404260000000550230INTERPRO FOOD SPECIALIST INC.                            1610
A0101404260611335308002ALIMBOYONG, JOSEPHINE MAHINAY                            0503
A0101404260611478374075VIVENCIA HATOL                                           0501
A0101404260611478374115FE S. BONDOC                                             0501
B0101407690652042938001SIGNWOOD HARDWARE & LUMBER SUPPLY                        1603
A0101407690652478374027MARILOU S. BAGON - DEALERS OF                           10501
A0101407690652478374027SHOECAT INC.                                            20500
A0101407690652478374128LOIDA M. MAYOLA - DEALERS OF                            10502
A0101407690652478374128SHOECAT INC.                                            20500
A0101407690652478374140BEATRIZ MANIAGO - DEALERS OF                            10501
A0101407690652478374140SHOECAT INC                                             20500
A0101407690652520766005GILNNA M. MALIGAT - DEALERS OF                          10501
A0101407690652520766005SHOECAT INC.                                            20500
A0101407690652525001067MAILA M. NACIN - DEALERS OF                             10501
A0101407690652525001067SHOECAT INC.                                            20500
A0101407690652763117001MARILYN BAGGAYAN AND CONSTANCE                           0502
A0101411530000003448300**********                                               0503
A0101413570000001069443**************                                           0501
A0101413570656057648210ERIC JAN ROVELO                                          0501
A0101413570656057652143BLESILDA SERRANO                                         0501
A1301400210000000540936JOCELYN S APOSTOL                                        0501
B1301400210682012962001STO. ROSARIO CREDIT & DEVELOPMENT                       11605
B1301400210682012962001  COOPERATIVE                                           21600
A1301400340683454647001PARAISO, RICARDO MADLANGSAKAY                            0501
A1301400500000005963277VENTURINA, REGINO VICTORIA                               0502
A1701400230000005694102SALAZAR, EDWIN ENRIQUEZ                                  0503
A1701400230000004469643SALAZAR, MARIBETH DBU  NORTH                            10503
A1701400230000004469643TECH BUILDERS                                           20500
A1701400230693478374044CECILIA CORRALES                                         0501
B0101408240711536077001DOUDOUCE HOLDINGS, INC.                                  1601
B4101400130811821200608**********                                               2001
A4101400260812344336001DR. GAVINO T. TAN JR.                                    0504
A4101400260812478374055ARLENITA E. MORALITA                                     0501
A4101400260000000002142TAJANLANGIT, JACKIE C.                                   0502
A4101400260812545584001ZALDY T. CARDENO                                         0501
B4101400260812821100608**********                                               2005
A4101400550000000981897SANTIAGO, ETHELBERT HIMONGALA                            0502
A0101412340000001017827BALLELOS, KAREN R. OR                                   10502
A0101412340000001017827MERCADO, DEXTER M.                                      20500
A0101412340000004543624ROMMEL JAN F. TANAP                                      0501
A0101412340000005448397RODA C. ORTIZ RUIZ                                       0501
A0101404840000005396949ESPORLAS, AURA AREVALO                                   0502
A0101404840851316655013NAPOLEON N. ESCALONA, JR.                                0501
A0101406750000004822913AMMIE PE                                                 0502
A0101406750852478374085CARMELA REVESENCIO                                       0501
A0101413860862063529001TAN,LAISA GENEVIEVE DBU MANILA                          10502
A0101413860862063529001PACIFIC TRAVEL & TOURS                                  20500
