B0101407270162821100608**********                                               2010
B0101406330472821100608**********                                               2003
B0101402930381064292001ESEC ORAL CARE INC.                                      1601
B0101402930000005645985MAGIC BROTH, INC.                                        1620
A0101400150061334116001MICHAEL A.P. ADAMS                                       0502
B2001400290315081901001SILLIMAN UNIVERSITY                                      1650
B0101408110515017722001STORES SPECIALISTS, INC.                                 1615
A0101400150000000525488REYES, SHEREL LOU BERMUDEZ                               0501
A0101400150061364435001BINAMIRA, PETER ABUEVA                                   0502
A0101400150061564610064BUENAFLOR, MARIA GERALDINE ROSE                          0501
B0101400600000001335693ANDRES, JOENATHAN DBU JOENATHAN ANDRES                  11603
B0101400600000001335693GENERAL MERCHAND                                        21600
A0101400600071295528002********                                                 0502
A0101410560000000590556GUTIERREZ, DOMINICA DALISAY                              0501
B0101401960121011796001**********                                               1606
A0101413310000005433147CONCEPCION, TERESITA GUINTO OR                          10501
A0101413310000005433147CONCEPCION, ANTONIO D.                                  20500
B0101407270000009010137LEDESMA, JULIO LUIS MEDINA AND MARQUEZ,                 11601
B0101407270000009010137CLARESSA                                                21600
B0101401090171037028001MENDOZA & DEL MUNDO JANITORIAL                          11602
B0101401090171037028001SERVICES                                                21600
A0101401090171407453001DIAZ, ALEJANDRO FUENTEBELLA                              0501
A0301400530193702921168SELGAS, ROBERT U. OR                                    10501
A0301400530193702921168SELGAS, ELVIRA R                                        20500
A0301400950000002115582************                                             0501
A0101401380201564133001NABLO, RODOLFO ORANTE                                    0501
A3101400160221557336001JOSELITO M GUEVARRA                                      0503
A3101400160221662314001ROLLAN ERIC P. ESTUITA                                   0501
A3101400740000001692515BARTE, HENRY PANALIGAN                                   0501
A3101400740224369648001CHO, MA. CECILIA SAMUYA                                  0501
A3101400870000002007783OLIVA, MARIA AISA IVYREENE                              10501
A3101400870000002007783DOMINGUEZ                                               20500
A3101400870000005410224BLANCO, RUSSELL SIMSUANGCO                               0502
B1001400190231038674001ORO INTEGRATED COOPERATIVE HO                            1603
A1001400190000002266651GALLANA JR., EDGAR REY BILLIONE                          0501
A1001400190000000016457ANTIGA, LUNITA                                           0501
A1301400470000001299094MILAGROS R. LAGASCA                                      0502
A1301400760000005989902YVETTE S. MALGAPO                                        0501
B0101406460272038032004WEE COMMUNITY DEVELOPERS, INC.                           1605
A0101406460272548275001SUNGA, PETER EDWIN JAO OR                               10502
A0101406460272548275001SY JR., MARCIANO                                        20500
A0101411820000003838051CARMELITA C. MACARAEG                                    0501
A0101400570000003891429RAFAEL, NORMA DUQUE                                      0503
A0101400570000009010240GATPO, ARIAM ONG                                         0501
B2601400270000002677332CHRIST'S COMMISSION FOUNDATION, INC                      1602
A0801400160000001031387DIMATULAC, NENITA MENDERICO                              0502
A1101400120313478374074UNGAB, ROSALINDA B.                                      0501
A1101400120000006186616GALO, TERESITA E.                                        0501
B0101402510341031237001VIACAREM RESTAURANTS                                     1602
A0101402510341196507001EVELYN SA. CALBAY                                        0502
B0201400920375035545001GSG ARCHITECTS CO.                                       1601
A0101402930381686667001MACALALAD, JACKIE LOU BOAC                               0501
B0101408790000006025769STORM FLEX SYSTEMS, INC.                                 1603
A0101411660000002309371RAJAN BHAGWANDAS GIDWANI OR                             10505
A0101411660000002309371MAYA BHAGWANDAS GIDWANI                                 20500
A0101402770391028626002RED ELEPHANT TRADING                                     0502
A0101402770000003488153***************                                          0501
B0101402770391630383002FIRST LOAD MASTER AND POWER SERVICE INC.                 1601
A0101405490000001876213DELEZ, JOSIELYN CABALZA                                  0501
A0101408400000006813658MEJIA, ANGELA FLORES                                     0501
A0101408400394524529001EMERSON CRUZ OLIVER                                      0501
A0101408400394605254001*****                                                    0504
A0101408950396501244001DR. RHESA MAY MANALOTO MARTINEZ                          0501
A0101409210000002802768ESER, GLADYS ROSAL                                       0501
B5501400120000005492399DSSD FAMILY REALTY DEVELOPMENT CORP                      1610
A5501400120410276880008DIONISIO, FRANCISCO OR                                  10501
A5501400120410276880008CARMELITA                                               20500
A2401400180411272736001YU JR., LITO TAN                                         0501
A1201400150000006155040ZAMBRANO, IMELDA COL COLI                                0502
A0101403030441241050001**********                                               0503
B0101406330472027929001STO. TOMAS DE VILLANUEVA PAROCHIAL                      11602
B0101406330472027929001SCHOOL                                                  21600
A0101406330000000451216MARIBEL P. ZAFE OR                                      10503
A0101406330000000451216NOEL B. ZAFE                                            20500
A0501400170481285059001CHUA, CRISTINA YU OR                                    10501
A0501400170481285059001CHUA, STEVEN                                            20500
B1901400160491012898001BNHS - TEMCO                                             1602
A1901400160491546773001IRENEA M ERLANO                                          0501
A0101407430000002298315EXCEL A. GRESOS                                          0501
A0101405940000000886973**********                                               0501
B0101405940512020791002ACRYDENTAL LABORATORIES, INC.                            1601
B0101405940000005359606SOMNOMED PHILIPPINES, INC.                               1603
A0101403450521080109001***********                                              0502
A0101403450521240625001GO, DERRICK WANG                                         0501
B0101404130601031961001THERMAC INSULATION INDUSTRIES, INC.                      1602
B0101404130601100148003UNIESSENCE CHEMICALS PHILIPPINES INC                     1605
A0101407720602396744002ANG, JENNIFER CU                                         0502
B0101412180000001293090ADVANI, GHANSHYAM PARASRAM DBU SICHEL &                 11605
B0101412180000001293090SICHEL ENTERPRIS                                        21600
A0101406590662363449001LA VINA, ANGELINA SAN JUAN                               0501
B0101406590662659846001THE KIMBERLEY PLACE INC.                                 1602
A0101406590000005305191QUE, MARTINIANO DE JESUS                                 0501
A1301400210682034420001CHOSEN BY GOD CHURCH, INC.                               0502
A1701400230693095574001GUZON, BENJAMIN ALEJO OR GUZON,                         10505
A1701400230693095574001MARIA CORAZON CH                                        20500
B0101408240711062863001ILWOOTEC E & C PHILIPPINES INC.                          1605
A0101408240711383150001AURELIO III OR AURELIO JR.                              10501
A0101408240711383150001OR AARON LITONJUA                                       20500
B2801400230713045988001NGE TRADING                                              1602
A4101400390000007459212BERNAL, MARILEN SOSA DBU AKB                            10501
A4101400390000007459212CATERING & FOOD                                         20500
A4101400390813248327001SARIEGO, DANILO BAGONA                                   0501
A4101400420814017785001MONZON GENERAL MERCHANDISING                             0510
A4101400420814248330001ALCALDE, DANILO SANTACERA                               10501
A4101400420814248330001OR ALCALDE, NORE                                        20500
A4101400420814478374044BERATIO, MARITES M.                                      0501
A4101400420814520766134TERESITA A. CASTILLO                                     0502
A4101400420814520766138SAN PEDRO, ANA LIZA                                      0501
A0101404840851478374193JONALYN BACALANGCO                                       0501
A0101406750852728177001GARCIA, MARITESS DELA CRUZ                               0501
B0101405070861030148001STEELPRO PHILIPPINES INC.                                1601
A0101405070861629632001GONZALES, NOLINA Q. OR GONZALES                         10501
A0101405070861629632001LOUIE                                                   20500
A0601400230891253086001ENGR. EMER C. FELICIANO OR                              10501
A0601400230891253086001EDITA B. FELICIA                                        20500
