A0101402060351211788002ROMUALDEZ, FRANCISCO C. OR                              10501
A0101402060351211788002ROMUALDEZ, ANNA                                         20500
A4101400420000004848142TAN, RICKY TIU                                           0510
A4101400420814478374026FLORENCIA DELA CALZADA                                   0501
A4101400420814478374171MICHAEL G. RIBOT                                         0501
A4101400420000000120696CARMELA G. ROMA                                          0501
A0101400440161186940001MARILOU I. DIVINA                                        0506
A0101400440161541478001ERWIN S. AGUSTIN                                         0502
A0301400660000002348530BARIO, ELITO SABAS                                       0501
B0301400660000000195306G.E. 64 ENTERPRISES, INC.                                1605
A0301400660194725413001ALTAMIRANO JR., RAFAEL CLEMENTE                          0501
B0101402060351009368001RESINS, INC.                                             1603
B1201400150000005357906COST OF MONEY LENDING CORPORATION                        1605
A4101400420814520766131LACSON, MELIZA FRANI                                     0501
A0101400150061227290001EBALDE, MA. VICTORIA QUIAEM                              0502
A0101400600000001335579********                                                 0502
A0601400100000000786767TAN, JUANITA YU OR TAN, ADRIEN                          10501
A0601400100000000786767YU                                                      20500
A0101406040000000096811********                                                 0501
A0101401960121239340001***********                                              0504
A0101401830000001281885SANTOS JR., LAURO DOCENA                                 0502
B0101400440000005393728RD PAWNSHOP, INCORPORATED                                1603
A0101400440000004889843RONIELYN M. MAGLINES                                     0501
A0101400440161525001026LERA B. CUISON                                           0501
A0101407270000001597011FROILAN TEJADA                                           0502
A0101401090171236982001JOVENCIO G. APOSTOL                                      0502
A0101401090000000210317EBBA, EDGARDO ESGUERRA                                   0502
B0301400530193406201168*** ****** ***                                           1601
A0301400530193704187088MERCED, TERESITA S. OR                                  10502
A0301400530193704187088MERCED, PETER V.                                        20500
A1001400190000002266593LABASTIDA, CELSO S. DBU EDCEL                           10501
A1001400190000002266593ENGINEERING SERVICES JT                                 20500
A0101401670271298552001EPPIE P. ORTEGA                                          0501
A0101406620273358539001MARIA TERESA L. JAHRLING OR                             10501
A0101406620273358539001ANGELO JAHRLING                                         20500
A0101406620273471170001PANGILINAN, WILHELM JOSEPH C.                            0501
A0801400160000002287534CLAVEL, VIVIEN SILLA                                     0501
B0101402350321006984001INTEGRATED HYDRO-PNEUMATIC                              11610
B0101402350321006984001SYSTEMS INC.                                            21600
B0101402350321031479001MED OPTIONS MULTI SPECIALTY CLINIC                       1602
A0101402350321296828002MARITES G. GASIS                                         0501
A0101402060351036454001TRITECH TRADING                                          0503
A0201400760374047906001SAPAYAN LIM ALVAREZ & LIGUTAN                           10502
A0201400760374047906001LAW OFFICES                                             20500
A0201400760374711842007CUA, DAVID HUA OR                                       10501
A0201400760374711842007CUA, DEMI MYRRH                                         20500
A0101402930381347955001ILUMIN C. ZAMORA                                         0501
A0101408370382205314001CABRERA, MARY JANE SILAYAN                               0501
A0101408370382397168001DR. CRISTINA C. BERNARDO                                 0505
A0101408400000005286320AMEROL, ROSLINA MAROHOMSALIC                             0502
A0101408950396601545001DR. GERARDO O. MENDOZA                                   0502
A0101409210000005251752KHALILI, AMINA AMY LANE SY                               0501
B0101412210399821100608**********                                               2001
A0301400820000004745973NAVARRO, AVIS MARAVILLA                                  0502
B5501400120000000046853LAUNDRYWORLD LAUNDRY SYSTEM CORP.                        1603
A12014001504212536240016UANZON, ALICE D. OR                                    10506
A1201400150421253624001GUANZON, DELFINO                                        20500
A0101406330000004349519MENDEZ, RELYN NICOLAS DBU                               10502
A0101406330000004349519MENDEZ BAKERY                                           20500
A0101406330472215830002RICARDO D. MASIGLAT JR.                                  0501
B0501400170481038907001JODERON AUTO SUPPLY                                      1604
A0501400170481350777002SISON, MARIA RESURRECCION                                0501
A0501400170481536304001BANEZ, CORAZON M. OR                                    10503
A0501400170481536304001BANEZ, MARCO PAO                                        20500
B1901400320000000041272SIMCO VILLAGE LEARNING CENTER INC.                       1601
A1401400110000000132896MORALES, RAIN DBU DIRL AND JANE                          0501
A1401400110492652676001DEZA, VIVIAN P. OR                                      10505
A1401400110492652676001DEZA JR., ARSENIO                                       20500
B0101407430503017546001ALL-TO-CUSTOMS BROKERAGE & FREIGHT                      11605
B0101407430503017546001CORPORATION                                             21600
B0101411400000001280579RDC INTERNATIONAL LTD. PHILIPPINES                      11601
B0101411400000001280579BRANCH                                                  21600
A0101411790518427760003TAN, ANTONIO TAN                                         0501
B0101407720602031597001A.F. NAVARRETE AND PARTNERS CO.                          1601
A0101407720602298709001JOSEPH B. BARRIL OR FE ANA                              10502
A0101407720602298709001BARRIL                                                  20500
A0101407720602313257002PARRA, JOSEPH DINULOS                                    0503
A0101407720602396465001CRISOSTOMO, THELMA DIMALANTA                             0512
A0101413570000002906669PADERNAL, MARIVIC                                       10501
A0101413570000002906669DBU ARMAV MARKET                                        20500
A0101413990000000969235PEROL, MA RANA TUYA                                      0503
B1301400210682000613001AGRICOM RURAL BANK, INC.                                 1601
A1301400340683361153001LICAROS JR, ALEJANDRO LAGPAO OR                         10502
A1301400340683361153001LICAROS, ELSA R.                                        20500
A2801400230000000937548VITUG, QUIRINO DBU VI-JETT                              10502
A2801400230000000937548ACCOUNTING OFFICE                                       20500
A4101400420814520766027ARUTA, CORAZON G.                                        0501
A4101400550000002091009PANGAN, SONIA DINGLASAN                                  0502
A4101400550815047719001CABUNTOCAN, GAY TAGHAP                                   0502
A0101412340000003341642JIHAD E. CAPISTRANO                                      0501
A0101412340000005624102NEIL STEPHEN P. SANDOVAL                                 0501
A0101412340000004360296LIWAYWAY M. LANGIT                                       0501
A0101412340000003438748LEE L. ZAMORA                                            0501
A0101412340000002900330ROSELLE B. BORBE                                         0501
A0101412340000002900370MARINEL O. OBIDO                                         0502
A0101406750852510152001OLINO, ARMSTRONG SACARE                                  0501
A0101406750852534985002CONCHE, NELIA OCLOS                                      0501
B0101405070861046186001LUXURY VACATION HOLIDAYS & TOURS INC.                    1601
A0601400230000000990052DAYAO, MARIBEL MASIBAC                                   0501
A0601400230000000452782GOZUN, R-JAY RAMOS                                      10510
A0601400230000000452782OR GOZUN, MYRNA                                         20500
