B0101400150061821100608**********                                               2010
A0801400160311327543001CONCEPCION S. DUMAYAS OR                                10502
A0801400160311327543001RODOLFO S. DUMAY                                        20500
A0101406040000000014724********                                                 0504
A0101406620000002279638ROSARIO, NONY LIM UY DBU NONY R                          0505
A0101404260611741074001GENETIANO, EDNA WINES                                    0501
A0101402510341433983001********                                                 0505
A0101402510341433983003********                                                 0505
A0101402510341433983004********                                                 0505
B0101406750000005608540PRO BEATBOX ENTERTAINMENT CONCEPT C                      1607
A0101406750852478374095LORENA N TANGPUZ                                         0501
A0101411370000005524272MANCILLA, MERIAM ARGARIN                                 0502
A0101400150000001422560MA. SONIA DE GUZMAN                                      0501
B0101400150061005488001HOLCIM PHILIPPINES MANUFACTURING CO                      1603
B0101400150061010833001VELCA TRAVEL & TOURS, INC.                               1601
A0101400150000000806746GINA D PINZA                                             0501
A0101400150061471610001DE GUZMAN, OLIVIA RELINGO                                0501
A0101400150061564610083ELAINE YEE SY                                            0501
A0101400150061684116001MAGRAMO, FREDESWINDA CERDA                               0501
B0101400150061821200608**********                                               2002
B0601400100081029282001L5 & SONS FINANCING CORP.                                1605
B0601400100000002099192PACIFIC BREEZES, INC. DBU CENTRAL                        1602
A0601400100081256597001GIL D. MADLAMBAYAN                                       0502
A0601400100081358072002NOEL C. DAVID                                            0505
A0601400100081374563001SOLVASON, STEPHEN ROBERT                                10502
A0601400100081374563001OR MARIA THERESA                                        20500
A0601400520000004423192CARPIO, SHEILA BORRERO                                   0502
B0101414090000002244760DELOSANS CONSTRUCTION AND DEVELOPMENT                   11602
B0101414090000002244760CORPORATION                                             21600
A0101406040000002272408ONG, CHRISTOPHER SY                                      0503
A0101412630000000801654GAOAT, ROBERTO GACOSCOS                                  0501
B0101401830141039167012CARITAS SALVE CREDIT COOPERATIVE                         1601
A0101401830141044349001D'COLD MAN AIR CON SERVICES                              0502
A0101412920000011166613ORTIZ, JOCELYN SORIANO                                   0502
A0101412920000008813554ANGELES, IMELDA TOLEJANO                                 0502
B0101400440000005393717RD PAWNSHOP, INCORPORATED                                1605
A0101400440000004901440NLR INSURANCE SERVICES                                   0502
A0101400440161582425001JENNIE C. ARGANOZA OR                                   10503
A0101400440161582425001JOMYR C. ARGONOZ                                        20500
B0101407270162046726001VALUE CARE HEALTH SYSTEMS, INC.                          1650
B0101407270162046726001VALUE CARE HEALTH SYSTEMS, INC.                          1650
B0101407270000011558279REALITY ENTERTAINMENT, INC.                              1605
A0101407270000011150186JOY BACERRA DBU SMART MOVERS                            10503
A0101407270000011150186TRUCKING SERVICE                                        20500
A0101407270162424105001ALEXANDER M. VIADO                                       0501
A0101401090000012345287ANDRADE, MA. TRIZA DELGADO                               0501
B0101401090000000772145KIDNEY AND UROLOGIC DISEASES FOUNDATION,                11602
B0101401090000000772145INC.                                                    21600
A0101401090000000210351UY, CHIN                                                 0501
A0101401090171198513001CORAZON DE CASTRO TAN                                    0501
A0101401090171203892002RIVERA, CLARA REYES                                     10501
A0101401090171203892002AND DE CASTRO, CITADEL                                  20500
A0101401090171232314001ELMA L. NAGORITE                                         0502
B0101401090000000210493CENTER FOR RESEARCH EDUCATION AND                       11601
B0101401090000000210493ACADEMIC TRAININ                                        21600
A0301400660000002913113UY, JOHNY DOMINGUEZ                                      0502
B0301400660194044707088CRISTY TAN                                               1603
A0301400660194772365001**********                                               0510
A0301400950000008000660PE BENITO, HAZEL ANN NERI                                0503
A0301400950000002115231**********                                               0501
B0101401380201034247001HOBBIES OF ASIA INC.                                     1604
A0101401380000001820002********                                                 0503
A0101413020000003353820PRINCESA, MA CONCEPCION ESGUERR                          0502
A3101400740000006735879BALBOA, REYNALDO DBU GREAT HEAD                         10504
A3101400740000006735879BUILDING SYSTEM                                         20500
A3101400740224369648001CHO, MA. CECILIA SAMUYA                                  0501
A3001400130000008916116GONGORA, SUSANA VIRAY                                    0502
B3001400130230043018003CARAGA AGRICULTURAL BUSINESS CORP                        1605
B1001400190000000016366CAREWELL BIO-MEDICAL SYSTEMS CO.                         1605
A1901400290000005565922AVELINA KATIGBAK RECTO                                   0501
B1901400290000001363213TOYOTA LIPA, BATANGAS, INC.                              1602
A1901400290261366172001MYLA VIVAS GONZALES                                      0502
A1901400290261478374007PUREZA BALETA SALES                                      0502
A0101401670000002341668************                                             0501
A0101401670000011364593********                                                 0501
B0101401670000000739253A.L. SALAZAR CONSTRUCTION, INC.                          1605
A0101401670271186208001BENJAMIN C. RAMOS OR                                    10504
A0101401670271186208001VIRGINIA S. RAMOS                                       20500
A0101401670271534014001CHUA, CHARLENE DY                                        0501
B0101406620273011597001POWER MAC CENTER, INC.                                   1602
B0101406620273044714001SUPREME CHOICE INTEGRATED FARM INC.                      1604
A0101406620000002279638ROSARIO, NONY LIM UY DBU NONY R                          0505
A0101406620000004926030CO, J DBU MATIMPRO SALES                                 0501
A0101406620273361839001LORNA C. FIELDS                                          0501
A0101406620273403656001ROSARIO, NONY LIM OR                                    10502
A0101406620273403656001ROSARIO, TIONG C                                        20500
B0101408660000000373175CREATIVE PRODUCTS CORPORATION                            1601
A0101408660274630330001*****                                                    0501
A0101410980000001154409TAN, NELLIE ANN JT                                       0501
A0101400570000003891383VIER, JULIUS VERNIE BRUCELAS                             0501
A0101400570281200404001SAMUEL Y. LIM OR BETTY D. LIM                            0501
A0101411240000000629378**********                                               0501
A2601400270000002677581ALFARO, CHERRY MARIE GAMBOA                              0501
B0801400160000001289932RD PAWNSHOP, INC. - ILOILO NORTH                         1603
A2001400290000003160705CALUMPANG, ILYN BANQUERIGO                               0501
A2001400290000001974029ALEXIS SECURITY AGENCY PROVIDER                          0501
A3401400280000004959128BERGANIO, NOLI BAUTISTA                                  0502
A3401400280000001723531PAJUTINING, JANICE GIGAN                                 0501
A0101402350000000521213TONGO, ROWENA V.                                        10501
A0101402350000000521213OR TONGO, CAESAR                                        20500
B0101405650322414700002AGENCIA DE EMPENOS DE MYRNA B. AGUIRRE                   1602
B0101402060351009369003POLYMER PRODUCTS PHILS., INC.                            1601
B0101402060351009369004POLYMER PRODUCTS PHILS., INC.                            1601
B0101402060351009369005POLYMER PRODUCTS PHILS., INC.                            1601
B0101402060351009369006POLYMER PRODUCTS PHILS., INC.                            1601
B0101402060000006931720POLYMER PRODUCTS PHILS., INC.                            1601
B0101402060000006931731POLYMER PRODUCTS PHILS., INC.                            1601
B0101402060000006931742POLYMER PRODUCTS PHILS., INC.                            1601
B0101402060000006931764POLYMER PRODUCTS PHILS., INC.                            1601
B0101402060000006931775POLYMER PRODUCTS PHILS., INC.                            1601
B0101402060000006931786POLYMER PRODUCTS PHILS., INC.                            1601
B0101402060351015284001GREEN VALLEY COUNTRY CLUB                                1601
A0101402060351211701004MA. DOLORES DANNUG                                       0503
B0101409050000007526469MCN FREEDOM! TECH INC                                    1601
B0201400920000006433683CASTALLOY TECHNOLOGY CORPORATION                         1605
A0201400890000003645123SOCO, GLENN ANTHONY OCAMPO                               0502
A0201400890000011310920PEPINO, ELIZAR DIANO                                     0501
B0201400890376035149001MYNIMO, INC.                                             1601
A0201400890376520766003MANCAO, MA. RINALYN B.                                   0501
A0201400890376633154002JIMENEZ, PETER UTLANG OR                                10503
A0201400890376633154002JIMENEZ, MARIA THERESA                                  20500
B0101402930381041518001PANPISCO TECHNOLOGIES, INC.                              1603
B0101402930000005646153ENGAGE MEDIA MAVEN INC.                                  1604
A0101402930381241546001DRS. AMIEL CORNELIO DELA CRUZ                           10502
A0101402930381241546001OR MA. LENNIE DELA CRUZ                                 20500
A0101402930000000053352SANTIAGO JR., JURADO SISON                               0501
A0101408370000003775031SARMIENTO, AUGUSTO OR SARMIENTO                         10501
A0101408370000003775031DOLORES ELIZABETH S.                                    20500
A0101408370382313183001DR. SIDNEY Y. CHENG                                      0504
A0101408370382409089001DR. ELIZZA S. SENSENG OR                                10504
A0101408370382409089001IMMANUEL DOMINIC SENSENG                                20500
A0101408370382593318001DRS. MICHAEL JOSEPH B. REYES OR                         10501
A0101408370382593318001SEIZAN MARIE E. REYES                                   20500
A0101402770391211580001MALLONGA, JESSIE ROBERT PADILLA                          0501
A0101405490000005692497MARCIANO, MARILYN FERRER                                 0501
A0101408400000006129211YAMBAO, JOHN PHILLIP PRAICO                              0501
B0101408400394004426001THE 1ST TRI-G SECURITY AGENCY, INC.                      1601
A0101408400394479058001PACALUNDO, JONAIDA OR PACALUNDO                         10501
A0101408400394479058001OR PACALUNDO, MA                                        20500
A0101408950000004998149CHRISTIAN DENNIS E. RICABLANCA                           0501
A0101408950000011077808SAMSON, ROSELIE MANGUBAT                                 0501
A0101408950000004512150CASTILLO, JOSEFINO CORTEZ                                0504
A0101408950396572239001PUYAT, MARIA LUISA TICZON                                0505
A0101409210000009309924OLIVA, RACHEL RANISES                                    0501
B0101409210398042656001FIELD OUTSOURCE ASIA, INC.                               1606
A0301400820000001185779DUGASAN, BENJAMIN E. OR DUGASAN                         10502
A0301400820000001185779ERLINDA D.                                              20500
A5501400120000002019067BENDITA, MARITES VILLASFER                               0503
B5501400120410043920001FILLAND PRIME PROPERTIES, INC.                           1602
A5501400120410636168001SUENO, JOCELYN BERNARDO                                  0510
A2401400180000002284266DONGOSA, JANETTE GUEVARRA                                0503
B2401400180000000073710MABUHAYONE CORPORATION                                   1603
A2401400180000010066201TAN, ANDRESTINE TEMPLADO                                 0503
A2401400180411478374020MORI, LYDIA                                              0502
A2401400180411639793001SEVILLA, RITCHE LIM OR                                  10503
A2401400180411639793001SEVILLA, EVA BAR                                        20500
A1201400150421039385001JL'S CLEAN UP JANITORIAL &                              10505
A1201400150421039385001MANPOWER SERVICE                                        20500
B1201400150000007556201LUCKY SIGN GOLDEN REALTY CORPORATION                     1602
A0901400220000006214386D' RANGER SECURITY AGENCY, INC.                          0502
A0101412890000009833678ZAPATA, ISIDORA OCAMPO                                  10501
A0101412890000009833678OR CABAL, THERESE ZAPATA                                20500
B0101406330472212424001JUAN C. JANEO JR. OR ERLINDA C. JANEO                    1602
A0101406330472397562001PHILIP H. DAYAO                                          0502
A0101406330000000451216MARIBEL P. ZAFE OR                                      10502
A0101406330000000451216NOEL B. ZAFE                                            20500
A0101412760000001399293PEREZ, GABRIEL REYNALDO P. OR                           10501
A0101412760000001399293PEREZ, REYNALDO                                         20500
A0101412760000002067632VILORIA, REMEDIOS O. OR                                 10501
A0101412760000002067632VILORIA, EDUARDO                                        20500
A0101412760000002067632VILORIA, REMEDIOS O. OR                                 10501
A0101412760000002067632VILORIA, EDUARDO                                        20500
A0501400170000001032113DAVID, ERMO ABULENCIA                                    0501
A0501400170481294192001ROMERO, REYNALDO VALDEZ                                  0501
B1901400160491012917001ALPS THE BUS INC.                                        1610
A1901400160491470708001CECILIA D ABJELINA OR DEAN                              10501
A1901400160491470708001THOMAS T ABJELINA                                       20500
A1601400170000003845250DON M. PENAFLOR                                          0502
A1601400170000009954476VELASCO, KAY TEMPLONUEVO                                 0501
B1601400170000000497092SUNWEST CONSTRUCTION AND DEVELOPMENT                    11615
B1601400170000000497092CORPORATION                                             21600
A0101403900501551221001AMOGUIS, ARCHIEVAL REALICA                               0501
B0101407430503021044001HOUSE OF TRAVEL, INC.                                    1602
B0101405940000008478964SGG HEALTH TRADING CORP                                  1610
A0101408530516571877046PORCIUNCULA, ANA MARIE ALMERIA                           0501
A0101408530516615903010GLENNMORE P. CUREG                                       0501
B0101408530516758816001ZAB INSURANCE AGENCY, INC.                               1602
A0101412050000003966763DE LEON, ARTURO PUZON OR                                10502
A0101412050000003966763DE LEON, WILFREDA PADILLA                               20500
B0101403450521011646001**********                                               1602
B0101403450521011974001**********                                               1604
B0101403450521037080001************                                             1601
B0101403450521238245001**********                                               1604
A0101403450521238948002CATUNGAL, JONATHAN                                       0501
A2201400250561529504002*****                                                    0502
A0101404130601450094003LORQUEL PASCUAL OR ANNIE                                10502
A0101404130601450094003PASCUAL                                                 20500
B0101407720602026691001CAJ GENERAL MERCHANDISE                                  1601
A0101407720602389965001NORMAN OR PAULITA OR NORMA                              10501
A0101407720602389965001ABASTILLAS                                              20500
A0101407720602396366001BRAVO, ARLENE RICARTE                                    0502
A0101407720602480488001GERALDINE MAJELLA L. JURILLA MD                          0501
A0101404260000006374343*******                                                  0503
A0101404260000006374343RHAYAN DEL ROSARIO CRUZ                                  0503
A0101411530000000581442MILLIGAN, MARIA CONCEPCION OR                           10502
A0101411530000000581442PABALAN, FERDINAND                                      20500
A0101414120000000398910REYNOSO, ALMA VILLANUEVA                                 0501
A0101414120000001984143VERZOSA, SANTANINA SALIH                                 0501
A0101414120000000398972ULDERICO MERCED TRUCKING                                 0504
A1301400500000007096542CRISTINA S. CRUZ                                         0502
B0101408240711008252001PETROLIFT INC.                                           1610
B0101408240711045349001TECHNOMARINE ENTERPRISES PHILS., INC                     1601
A0101408240711396310001LESTER C. VICTORIA OR                                   10502
A0101408240711396310001GIL JOSE E. PULUMBARIT                                  20500
A0101408240000011487228*********                                                0505
A4101400260000003680022BICOS, MARVIN SOBREMONTE                                 0502
B4101400260000005724056EG RANESES TRADING CORP.                                 1602
A4101400260812249154001RIZALDY J. ESTOCADO                                      0501
A4101400260812401183001ELORNA G. RANESES                                        0501
A4101400260000003679943TAN, ANGELINA                                            0501
B4101400390813004424001EASYFAST TRANSPORT SERVICES INC.                         1601
B4101400390000006103560LEAD WITH INTEGRITY AND GOOD GOVERNANCE                  1605
A4101400390813327100001ROSALITO B. DY OR                                       10502
A4101400390813327100001NENITA B. DY                                            20500
B4101400420000000018533MICROBASE MOTORBIKE CORP.                                1602
A4101400420000011952113TERANIA, ANGELICA CECILIO                                0501
A4101400420000003715713LAPENA, MICHELLE DBU LMZ                                10502
A4101400420000003715713PHARMACY AND GENERAL MERC                               20500
A4101400420814480121001FABREAG, DELIA FLORES OR                                10502
A4101400420814480121001FABREAG, BOBBY F                                        20500
A4101400420814506413001IBIAS, JOSEPHINE OCAMPO OR                              10501
A4101400420814506413001IBIAS, SEGISMUND                                        20500
A4101400550815046007001DIGIBOX PRINTING SERVICES                                0501
A4101400550000007583864RIVERA, ROSALINDA LOVERIA                                0502
B0101404840000006365171KAWASAKI EMPLOYEES MULTI-PURPOSE CO                      1605
A0101404840851413610001GUIRIT, CLARITA E.                                       0501
A0101406750852084318001SIBUG, GENEATH P. OR                                    10502
A0101406750852084318001SIBUG, ERNESTO M                                        20500
B0101405070861021288002JOPAUEN REALTY CORPORATION                               1605
B0101405070861021288003JOPAUEN REALTY CORPORATION                               1605
B0101405070861021288004JOPAUEN REALTY CORPORATION                               1605
A0101413860000011229702CRUZABRA, JEREMIAS EVANGELISTA                           0502
A0601400230000005510150SANGA, WILBERT QUIAMBAO                                  0501
A0601400230891363362001MARITESS P. FLORES                                       0501
A0601400230000001687352DEVERA, JANICE ANDICO                                    0501
