A0101400440000000337580ESPIRITU, HAZEL MANGENTE                                 0501
A0101400440000005393615BEFE C. ANGCAY                                           0502
A0101402350321478374013ROSALINA M. MARAVILLA                                    0501
A0501400170481254008001EVA C VISPERAS                                           0501
B1401400110492044819001ACYATAN & CO., CPA'S                                     1601
B1401400110000003475661QUEEN MARGARETTE HOTEL, INC.                             1604
B1401400110000000034619TEE, JAMES ANG OR                                       11603
B1401400110000000034619TEE, SALLY ONG                                          21600
B01014067508520371840011ST LINE OFFICE FURNITURES & INTERIORS/                 11606
B0101406750852037184001ANA MAE B. YAPE                                         21600
A0101406750852290414001BULAON, MARITES I. OR                                   10501
A0101406750852290414001BULAON, SONNY T.                                        20500
B0601400230000006045609VILLAPANDO JR., SERAPIO NOMBILA                          1601
A0101400860000001005489*************                                            0501
A0101400860011350677001**********                                               0501
B0101400860000007087085*******                                                  1601
A0101400860011478516001**********                                               0502
A0101400150000003141431GO, YVETTE DY                                            0501
B0101400150061025214001MAA CONSULTANTS, INC.                                    1601
B0101400150000006432555ESTATEWINE INC.                                          1602
B0101400600071233702001FE ZAMORA                                                1601
B0101400600071516450001********                                                 1601
A0101410850000006560034SEMANA, JUDE                                            10502
A0101410850000006560034DBU SEMANA TRUCKING                                     20500
A0101400730000008619529DELA CRUZ, MA. TERESA CODOG                              0502
A0101401960121408365003***********                                              0505
B0101412630000000024040MONDAVI CONDOMINIUM CORPORATION                          1605
A0101413310000005433501SEVILLA, CHERWIN PETER MORON                             0502
A0101401830000009375675RICHARD REDRICK P. SALIMBAO OR                          10501
A0101401830000009375675JESUSA V. SALIMBAO                                      20500
B0101401830141056446001GADDI DBU GREENTEK ENVIRONMENTAL ENG.                   11602
B0101401830141056446001SERVICES JT                                             21600
A0101412920000001313773VICTORINO, JOCELYN DELA CRUZ                             0501
A0101400440161193622001ROSALINA T DINO OR ROMMEL DINO                           0502
A0101400440161478374126DELIA SERRANO                                            0501
A0101401090171157026001ISIDORA A. LEE                                           0502
A0301400950000005707171LEGARDE, JHONNA CUSTODIO                                 0502
A0101410720000006239869******                                                   0503
B0101410720210821200608**********                                               2001
A0101412500000007633112CHAN, DERRICK UY                                         0502
A0101412500000010768853LIBUNAO, FERDINAND CRUZ                                  0501
A3101400450223494342001BELEN, RHODORA OR TOM OLIVER                             0501
A3101400740000006735857JARABELO, NATANIEL MADRID DBU                           10502
A3101400740000006735857COZY TREK RENT A CAR                                    20500
A3101400870000005410224BLANCO, RUSSELL SIMSUANGCO                               0501
A3101400870000005565299DE GUZMAN, FRANCIS HAFID D. OR                          10501
A3101400870000005565299DE GUZMAN, ELIZA                                        20500
B3001400130230043534001BERRY HAPPY MART INC.                                    1605
A3001400130000008264784SANCHEZ, AGNES M.                                        0501
A3001400130230767566012RAFIL, SHARON PEROCHO                                    0501
A1001400190231520766007BENGAR, JOSPEH E.                                        0501
A1001400190231520766010LOPEZ, MICHELLE ENCABO                                   0501
A1001400350233478374020ELMA O. GAWAT                                            0501
A1301400760000003415596PATRICK C. MUNCAL OR                                    10501
A1301400760000003415596LEA IVY F. MUNCA                                        20500
A1901400290261244564002ANITA LUMBERA SAUZ                                       0503
A1901400290261333248001DANTE VALENCIA ANDAL                                     0501
A0101406620000003661498*************                                            0501
A0101400570281192945001MINDA D. BUENVIAJE                                       0502
A0501400200292735444001OYAMAN, GENEVIVE ABANDO                                  0502
A2601400270000003259523SALLY JANE H. MEDRANO                                    0501
A0801400160000002681729MA. FE M. FACTO                                          0505
A2001400290000005395877TABADA-CHU, DINAH BAGARES                                0502
B2001400290000002406708FIRST KYOMAN HOLDINGS INC.                               1602
A2901400130000009071723DELA CRUZ, CYNTHIA GRACE CERRAD                          0505
A0101402060351022310001CONLINK MARKETING SERVICES                               0501
A0101402060351039467003LAY BARE WAXING SALON                                    0501
A0101402060351039467004LAY BARE WAXING SALON                                    0501
A0101402060351460779001GOMEZ, MAYLENE LAVERIA                                   0503
B0101409050352043882001NONITO SHOES AND BAGS SUBCONTRACTOR                      1605
A0101409050000007511891LEYRAN, JENNIFER SICILIA SALMIN                          0501
A0101402930000000859758CELFO, R DBU R.F. CELFO                                 10502
A0101402930000000859758FINANCIAL CONSUL                                        20500
A0101402930381283088002JOSEPH VINCENT A. ALBA OR                               10502
A0101402930381283088002AGNES A. ALARILL                                        20500
A0101402930381419788001ALMARITA JIMENEZ OR                                     10501
A0101402930381419788001MA. REGINA COELI                                        20500
B0101408790000000599782ELTEK POWER INCORPORATED                                 1601
A0101415350000010052072CANDO, HELEN JOYCE P.                                    0501
A0101402770391029270001RCABAN-SAN ANTONIO DE PADUA                              0502
B0101405490392598457001FORBES DENTAL PROSTHETICS INC.                           1601
A0101408950396576467001DR. JOANNA TERESA MARGARITA                             10501
A0101408950396576467001L. MANALO                                               20500
A0101412210000003448691MATONDO, DANICA VILLANUEVA                               0503
B5501400120000005492413SURALLAH PENVIL FAMILY COMMERCIAL,                       1605
A5501400120000009875609CHIU, JULIA EILEEN ROBLEZA                               0501
B2401400180411014550001GSC PROGRESSIVE MULTI-PURPOSE COOP.                      1604
B2401400180411031390001SYNCHROTEK CORPORATION                                   1605
B2401400180411032703001TOYOTA GENERAL SANTOS INC.                               1610
B2401400180000007476853ECA RESOURCES, INC.                                      1602
A0901400220000001805129**********                                               0502
B0901400220000000888177**********                                               1603
B0101406330472024207001TERRAVUE, INC.                                           1605
A1901400160000007556809MANGUIAT, ELMA MANIGBAS                                 10503
A1901400160000007556809OR MANGUIAT, ROMEL TIPAN                                20500
B1901400160491290764001CASTOR CEPILLO-GONZALES ALDAY LAW OFFICE                 1601
B1401400110492046339002******                                                   1620
A1601400170000001360689ALBERT S. ALEGRE                                         0502
A0701400260000003259432ZAMORA, JULIUS SOPENA                                    0503
A0101403580511308112001WILFREDO Z. PALAD                                        0505
A0101408530516571877165KIMMY P. SO                                              0501
A0101408530000003519431SHERWIN C. SANGRADOR                                     0501
A0101408530000008159451IRENE F. PALACOL                                         0501
A0101411790518055815012LUSTERIO, MARICEL CORDOVA                                0501
A0101411790518055815064OLINDAN, ZARAH KATHRYN FRUTO                             0501
A0101403450521237750001***********                                              0501
A0101403450521310248001**********                                               0501
A2201400250000006275852GARCIA, MINERVA TABION                                   0501
B0101410690000001284395ALDANA, MA. ELENA M. DBU PANSOL TRADING                  1604
B0101404130000000001218EXEMPLAR 168 MANPOWER CORP.                              1605
A0101407720000004664933MAGSAJO, MARITES CALINGASAN                              0501
B0101407720602031597001A.F. NAVARRETE AND PARTNERS CO.                          1601
A0101407720602516697001SOLER, NATIVIDAD DELOS SANTOS                            0501
A0101407720602516697001SOLER, NATIVIDAD DELOS SANTOS                            0501
B0101404260000004781324AMAZIGRACE MANPOWER SERVICES                             1650
A0101404260611526457001BAUTISTA, JULIE ANN OLARTE                               0502
A0101407690652034806001BROWNFLY COMMERCIAL                                      0504
B0101407690652039085001JUNBEL INDUSTRIAL SYSTEM CORP.                           1602
B0101407690652042938001SIGNWOOD HARDWARE & LUMBER SUPPLY                        1603
B0101407690652044546002GLB PLUMBING AND FIRE PROTECTION SYSTEM                  1601
A0101407690652478374145MA. ROUMELA LUISA MIJARES -                             10501
A0101407690652478374145DEALERS OF SHOEC                                        20500
A0101407690652520766005GILNNA M. MALIGAT - DEALERS OF                          10501
A0101407690652520766005SHOECAT INC.                                            20500
A0101407690652525001060SUSANA MORENO - DEALERS OF                              10501
A0101407690652525001060SHOECAT INC.                                            20500
A0101413440000001472646CARLO POCHOLO C GONZALEZ                                 0502
A0101413570656057648074NONALEAM DUMLAO                                          0501
A0101413990000000206033MARITES R. CONANAN                                       0502
A0101408240711226916002FONG, NOREEN CARRILLO                                    0502
A0101408240711611720001QUINTO, DEVANIEL QUERUBIN                                0501
A2801400100000000004720REYES, MYRA DBU MRC DENTAL                              10501
A2801400100000000004720CLINIC                                                  20500
A2801400230000005253510MARTINEZ, GIRLIE MONDALA                                 0505
A4101400260000001783924GARCIA, GEWYN RAMOS                                      0502
A4101400420000009343142DE LEON, RYAN BISONA DBU KATHRI                          0501
A4101400420814520766064ANDAYA, AURORA A.                                        0501
A4101400550000002091010UNIFIL MANPOWER RESOURCES                                0510
A4101400550815478374001ONAYAN, CAROLINA BAUTISTA                                0502
A0101412340000009990390CHRISTOPHER R. LIM                                       0501
A0101412340850082898001******                                                   0502
A0101405070000002282082NOLASCO, ELVA CATHERINE INDON                            0502
B0101405070861038991001TOYOTA MANILA BAY CORPORATION                            1601
A0101405070861366707001ARELLANO, MA. ELENA BALLESTEROS                          0502
A0101405070861476115001REYES, MA. MILAGROS ABRAJANO                             0502
A0601400230000007402224********************                                     0501
A0601400230891419883001GALVAN, EVANGELINE GATDULA                               0503
