B0501400170481821100608**********                                               2010
A0101402930381205226001LEH, MICHAEL OR LEH, EMELITA,                           10502
A0101402930381205226001OR LEH, JOSEPH OR LEH, CA                               20500
A0201400760374478374015DACAYANA, ROSALIE SIBLA                                  0501
A0101413860000010948202VILLA, MA. THERESA O'LACO                                0501
A1001400480000005356065GONZALES, TONNIE MAE MONTERO                             0502
B1001400480000001054671SOLIMA, ELEUTE DBU EBSO ENTERPR                         11605
B1001400480000001054671ISES OR SIO, ELE                                        21600
B1001400480000003028931BELICAN, ALDIN TORNIADO DBU BELICAN                     11603
B1001400480000003028931TRUCKING                                                21600
B1001400480000007775311SILAGAN, ARLENE BALBAO DBU JEANICA                      11605
B1001400480000007775311HYRAULIC TRADING                                        21600
A0101400570000011680830ONG, ROBBY SO                                            0501
B0101411240283004314001VONK GLOBAL INC.                                         1602
A0101408370382363874001ANAFE O. GLORIA                                          0510
B2401400180411014376005PENBANK, INC. (A PRIVATE DEV'T BANK) -                  11605
B2401400180411014376005CALUMPANG BRANCH                                        21600
A0101410690000000061834IQBAL, BERNADETTE G.                                     0502
A0101410690000000710609LIM, MARK SHERWIN T. OR                                 10501
A0101410690000000710609LIM, CARLA D.                                           20500
A1701400230000005694113ALBANO, BENJAMIN JOSEPH EUGENIO                          0501
A1701400230000011255240LAO, HANDY DBU NEW VERTEXT HAND                         10503
A1701400230000011255240Y PHONES                                                20500
A0101400860011379561003**********                                               0502
A0101400860011422264001**********                                               0503
A0101400860000005313046**********                                               0502
A0101400860000000100863**********                                               0503
A0101400860011553516001**********                                               0505
A0101400860011610224001**********                                               0510
A0101401250000007121400********                                                 0502
B0101411370000007861796MCT GABRIELLE REALTY DEVELOPMENT INC.                    1602
A0101400150000000253234ESTANISLAO, RONNA MA LARGO                               0503
A0101400150000003162803MARIA RELA J. BRASILENO                                  0501
B0101400150061010688010SB CARDS CORPORATION                                     1610
B0101400150061035853001EPICUREAN PARTNERS EXCHANGE, INC.                        1602
B0101400150061036325001AIKO ENVIRONMENTAL & GENERAL MANPOWER                   11601
B0101400150061036325001SERVICES INC                                            21600
A0101400150061038536046JOHN ANDREWS                                             0501
B0101400150061226355002TAGANITO MINING CORP.                                    1602
B0101400150061226498001CYCLOPHIL EDUCATIONAL PROMOTION                          1602
A0101400150061226678001PAMELA A. CASIN                                          0501
A0101400150061697165001SERVER, CATHERINE ANNE B. OR                            10502
A0101400150061697165001CHRISTINE MICHEL                                        20500
A0101400600071242964001**********                                               0502
B0601400100081013321001BIO-TECH MARKETING CORPORATION                           1604
B0601400100000000142214SIMON AND STANDLEY INTERNATIONAL TRADING                11605
B0601400100000000142214& DEVT CO, INC.                                         21600
B0601400100081256780001MICRO-B, INC.                                            1604
A0601400520000009516543DAVID, MARK ANTHONY MARCELO                              0501
A0101413280000005279609GARCIA, RYAN                                             0501
A0101400730000011970644PAGARAN, GEMMA MACALOS                                   0501
A0101400730111478374020FERMANES, LILIA S                                        0502
A0101401960121240760001**********                                               0501
A0101401960000006004422***************                                          0501
B0101412630000002186472PHILIPPINE CHRISTIAN LITERATURE INC                      1601
B0101401830141045610001INTERZONAL COURIER SERVICE                               1601
A0101401830141069176001DEL VALLE, PEPITO DBU VIPECK                            10501
A0101401830141069176001GRAPHIC DESIGNS                                         20500
A0101401830141349607001AGNES G0 GAISER - BURAC                                  0501
B0101400440161037389001GREAT WAY HARDWARE                                       1602
A0101400440161039572072MEDITA P. ALIMPUANGON                                    0501
A0101400440161041615001VIEW CARDS ENTERPRISE                                    0502
A0101400440161525001139JEMARIE S. SALUDAR                                       0501
A0101407270000008824200MARIA CRISTINA MENDOZA                                   0501
A0101407270000006916830MANALILI, MOISES PANGAN                                  0503
B0101407270162019525001CASTFOOD CORPORATION                                     1602
A0101407270162333301001AILEEN T. TEMPLONUEVO                                    0501
A0101401090171334282001**********                                               0501
A0101401090171392691001JOJO F. BLANZA OR                                       10501
A0101401090171392691001MAILA M. BLANZA                                         20500
A0101401090171519520002IRENE K. CHIANG                                          0502
A0101401090171519520006IRENE OR YU-YUAN CHIANG                                  0502
A0301400530193047804088**********                                               0502
B0301400530000008307700APEX PREMIER PHARMACEUTICAL AND CON                      1601
A0301400660000003406066**********                                               0501
B0301400660000003368483DABAW FND LENDING INVESTOR, INC.                         1601
A0101410720653470975001BELTRAN, ROBERT LUI                                      0502
A0101410720653478374012MYRA E. ISIP                                             0502
A0101412500000012322142BROCAL, EDGARDO MORALES                                  0501
B3101400740000004509535MOLD PARTS MANUFACTURING ASIA INC.                       1605
A3101400870000000957917GATDULA, J DBU SIX PENCE                                10502
A3101400870000000957917TRUCKING SERVICE                                        20500
A3001400130000001261249BANJAO, JENELYN LARA                                     0501
A3001400130000008264784SANCHEZ, AGNES M.                                        0502
A1001400350233478374001JUNIO, ROGELIA A.                                        0501
A1001400480000000606853**********                                               0502
B1001400480000000041476SAVINGS MUTUAL INTER-COMPANY CREDIT                     11603
B1001400480000000041476COOPERATIVE                                             21600
B1001400480000003357840BALDADO, MARIA LYDIA PEPITO DBU JOMARI                  11601
B1001400480000003357840TRUCKING SERVICE                                        21600
A1001400480000003357748DEDEL, PATRICK JUNE YEMA                                 0502
A1301400470000003270562CHRISTIAN A. GONZALES                                    0501
B1301400470000003270135EPS HAULING COMPANY INC.                                 1601
B1301400470000007862777FUND LINK CREDIT AND LOANS, INC.                         1602
A0101401670000000237552CORONA, CHRISTOPHER TIMON                                0501
B0101401670000000739173MALL TILE EXPERTS CORPORATION                            1602
A0101406460000002331113***************                                          0501
B0101406460000001231656EASTGATE COMPUTER CORPORATION                            1601
B0101406460272041376001EUROASIA MARBLE & GRANITE INC                            1605
A0101408660000000373073ROBERTO MONROY OR                                       10501
A0101408660000000373073ANNELLE MONROY                                          20500
A0101400570000006271930ERAZO, CHRISTOPHER SEBRIO                                0502
A0501400200000005751782MISLANG, JANELY DELA CRUZ                                0502
A2601400270000007951177RAYMOND RUEL D. VALLE                                    0501
A0801400160000001031354DUREMDES, DANIEL JOB                                     0502
A1101400120000003981168MAHID M. SIDIC DBU MAHID                                10505
A1101400120000003981168CELLPHONE ACCESSORIES                                   20500
A1101400120000000652351YAO, RONALD PHILIP GO                                    0502
B1101400120000000652880YAO, ANTHONY ROBERTSON GO AND YAO, MARK                 11601
B1101400120000000652880ALAIN GO                                                21600
A2001400290000011716755DUMALAG, ANTHONY TOLOMIA DBU                            10502
A2001400290000011716755ADS EDGE ADVERTISING                                    20500
A3401400280000011150660ACEVEDO, FREDERICK ESCUTIN                               0502
B0101402350321045454001DIMENSIONAL SERVICE CORPORATION                          1602
A0101402350000000019127ARDIENTE, MARIA CORAZON C. OR                           10501
A0101402350000000019127ARDIENTE, EDUARDO C.                                    20500
B0101405650000005381977M.S.A. HOLDINGS, INC.                                    1601
B0101405650000005381988MBA HOLDING COMPANY, INC                                 1601
A0101402060351217440025ARLENE F. MANGURAY                                       0501
A0101409050000000258371JUSAY, RICHARD MANOZA                                    0501
A0101409050000005698997FE ESPERANZA J. PINGKIAN                                 0503
A0101409050000002971475EQUIPAJE, GERARD PAOLO ISIP                             10503
A0101409050000002971475OR FELICIANO, RU                                        20500
A0201400760000005711137**********                                               0502
B0201400760374068630001GREEN ECO TREE RECYCLING CORPORATION                     1602
B0201400760374068630002GREEN ECO TREE RECYCLING CORPORATION                     1602
A0201400760374478374011ALMENE, MA. LOPER RUIZ                                   0501
B0201400920000006433672CAMBAYOG METAL CRAFT CORP.                               1601
A0201400890000011928637LATONIO, KANNETH BORRES                                  0501
A0201400890376522560001SU, SEYMOUR UY                                           0501
A0201400890376545727001********                                                 0501
B0101402930381008843001BASIC HOUSING SOLUTIONS, INC.                            1605
B0101402930381010731001********                                                 1601
A0101402930381426314001MARIA CRISTINA G. RAMIREZ OR                            10501
A0101402930381426314001FRANCIS ERWIN C. RAMIREZ                                20500
A0101408370382205338001DR. EMITERIO M. BANATIN JR.                              0503
A0101408370000000586050CATIBOG, JOLLY JASON SANTOS                              0501
A0101408790000010422856BONOAN, EDUARDO P.                                       0502
A0101408790000009466260LAGRIMAS, MARIA DIMPNA ALIX                              0501
A0101402770391353811001GARY P. HERNANDEZ OR                                    10503
A0101402770391353811001EZEL S. HERNANDEZ                                       20500
A0101402770000009722910BERNARDITA B. PECSON                                     0501
A0101408400000001213574MARGO POTS AND FLOWERS                                   0501
A0101408950396294877002SINGSON, REBECCA BAUTISTA                                0502
A0101408950000000036991ROQUE, BARBARA LOPEZ                                     0502
A0101408950000000776763LUQUE, MA. PAZ MILDRED                                   0501
B0101409180397000796001SUMMIT RURAL BANK OF LIPA CITY, INC                      1601
A0301400820000007372810GOLIMLIM, MARICHU M.                                     0503
B2401400180411035164001MOMMY GINA TUNA RESOURCES (MGTR), INC.                   1610
B2401400180411040250088HOME SOLUTIONS DEPOT PLUS                                1615
B2401400180000000073670BRIGADA HEALTHLINE CORP.                                 1620
B2401400180000000019769WILL & JOE AGGREGATES, INC.                              1605
A0101412890000000371599COBO PAVILLION                                           0503
A0101403320000012323403LUISITO M. FLORES                                        0501
A0101403320471400801001MARILEN I. CRUZ                                         10503
A0101403320471400801001OR DENNIS MICHAEL CRUZ                                  20500
B0101406330472008908002M.R. REALTY CORPORATION                                  1602
B0101406330472032850002ASIAN COATINGS PHILS. INC.                               1602
B0101406330472045827001PRIMARK TOOLING INDUSTRIES CORPORATION                   1605
B0101406330000000432795GSD SECURITY AGENCY, INC.                                1601
A0101406330472206513002**********                                               0505
B0501400170481025398002COSTSAVER'S SUPERMARKET, INC.                            1602
A0501400170481556172001VALENZUELA, ROBERTO TOLENTINO                            0501
A190140032000001138275102CAL, NILEA DIMAANO                                     0502
A3801400170000011559756ACOB, ANNALISSA COCHICO                                  0501
A1401400110000001806873********                                                 0502
A0701400260000006215641LANUZA, ROSE ANN TOLENTINO                               0502
A0101407430503736499001CECILIA R. NALAUNAN                                      0502
A0101403580511152729001MARIXI G. CARLOS                                         0502
B0101405940000000002995KONA COFFEE AND DELI COMPANY INC.                        1604
B0101405940000000002984SHINCREATIVE GLOBAL DESIGN INC.                          1602
A0101405940512360728001ERWIN P. HERNANDEZ OR                                   10501
A0101405940512360728001AGNES T. HERNAND                                        20500
B0101405940512510160001SIMPLY GREAT DELI INC.                                   1604
B0101408530516005188001SEARCHERS & STAFFERS CORP.                               1610
B0101408530516524823001SL TEMPS INC.                                            1610
A0101408530000003519384DEBBIE ROSE S. SANTOS                                    0503
A0101408530000010083364***********                                              0502
A0101411400000003750521MOLINA, JOYCE LA PENA                                    0501
A0101411790518055764057BERNABE, ARIANE JELLIE OSANO                             0501
A0101411790518055815027MANABAT, ELAINE BUNDALIAN                                0501
A0101411790518055815073PAMBID, MINETTE VELASCO                                  0501
A0101411790000000005381********                                                 0503
A0101412050000011855533LIU, LINJIE                                              0501
A0101403610000012282672SAMONTE, PATRICK ALBERT ESCOTE                           0501
A0101403610531223397001CASTILLO, LOURDES JANAMIEL                               0501
A2201400250561028327002ALLAN P. GAYONA                                          0502
B22014002500000077199993 KIS FOOD STORE CORPORATION                             1601
B22014002500000000169863 KIS FOOD STORE CORPORATION                             1601
A0101407720602332279002CAYCO, ANTONIO V. OR                                    10501
A0101407720602332279002CAYCO, MARGARITA                                        20500
B0101412180603044261001GENESIS 8 ENTERPRISES                                    1602
A0101409890000000209174PUNZALAN, MICAH ELIGENE ROXAS                            0503
A0101409890000000049089GEMSTAR CLEANING SUPPLIES                               10504
A0101409890000000049089INTERNATIONAL                                           20500
B0101409890000000209196METROSTEEL REALTY DEVELOPMENT CORP.                      1601
B0101409890000000209203METROSUMMIT REALTY & CONST. CORP.                        1601
A0101409890649071782001YMAZ, FERDINAND VERA OR                                 10501
A0101409890649071782001SEE, DEXTER CHAN                                        20500
A0101409920000000022088ASUNCION, MARILYN JUANEZA                                0501
A0101409920000000998569MEMBERS OF NATASHA (SHOECAT INC                         10502
A0101409920000000998569PEDROSA, JULIE                                          20500
A0101407690000002348712BALUYOT, AILEEN DOLLENTE                                 0502
A0101407690000000914027BUYAYO, ELIZABETH KIDAYAN                                0501
B0101414120000003584281JD & P FOOD TRADING CORPORATION                          1602
A0101406590000000568703SUZUKI, JOHN MICHAEL DE VERA                             0501
A0101406590662004368001VIDANES, ELIZABETH DBU VIDANES                          10501
A0101406590662004368001MARKETING&MANAGEMENT SERV                               20500
A1301400210000001206842REYES, MICHAEL REFUERZO                                  0502
A1301400210000002284944ANGULO, AGNES CLEMENTE OR                               10502
A1301400210000002284944ANGULO, OLIVER C                                        20500
B1301400210682012678001JAM ASIA PROPERTIES, INC.                                1601
B1301400210682248659001ASIANLAND STRATEGIES CORPORATION                         1605
A1301400340000000926870CUERDO, AYA                                              0503
A1301400340683244776002CRUZ, GENELITA S. OR                                    10501
A1301400340683244776002CRUZ, ALFREDO R.                                        20500
A1301400340683537487001PILIIN, VICTORIANA ARCILLO                               0501
A0101408240711478374016HERMA B. CEJES                                           0501
A0101408240711572348001SALAPAR, MA FE POSITAR                                   0501
B2801400100000003116678PINEDA, RAYMUNDO AURELIO VITUG                           1602
B2801400100712016718001CENTERPOINT FOODS CORPORATION                            1620
B28014001000000001883631 AIMHIGH SECURITY AGENCY INC.                           1605
B2801400100000000004844VMK SUBIC VENTURES INC.                                  1603
A2801400100712426402001CHUA, WILSON CATIGAWAN                                   0501
A2801400100712701754001DALIT, MADONNA VERSOZA                                   0501
A4101400390813482809001EVANGELINE E. AGCAOILI OR                               10502
A4101400390813482809001CARLITO E. AGCAOILI                                     20500
A4101400420814357382003REMULLA, GILDA VASQUEZ                                   0501
A4101400550000006044311SALVACION ELECTRONICS SALES                             10505
A4101400550000006044311CENTRE                                                  20500
A0101412340000004360007JONAH DAVID                                              0501
A0101404840000005396949ESPORLAS, AURA AREVALO                                   0503
A0101405070861150232001SILVESTRE, JOEL GAMALINDA OR                            10504
A0101405070861150232001SILVESTRE, ELIZABETH GARF                               20500
A0601400230891047523001GUINTO, A DBU ADELIZA G. GUINTO                          0501
B0601400230000000029883ORO OXYGEN CORPORATION                                   1602
A0601400230891627261001RAMOS, ANGELITA BAUTISTA                                 0503
