B0201400210371821100608**********                                               2010
A3101400870000007678417SOTELO, DEXTER JONOS                                     0501
B1101400120000000653190BOSJAN MAIN MARKETING CORP.                              1605
A0101403450000000889409********                                                 0501
A1101400120000006080797GLORIA JR., SALVADOR CAGATIN                             0501
A0101408370382391662002MARK JOSEPH J. REYES OR                                 10502
A0101408370382391662002LORALYN R. REYES                                        20500
A0101408370000000335584DR. MARIA KAISERIN J.                                   10501
A0101408370000000335584SANTOS-LIPANA                                           20500
A0101408400394078250001MALA, ARATOC DISOCOR                                     0501
A0101408950000000472913ANGELES, ARNOLD DIOSDADO SILVA                           0502
A0101408950000000036940CARIAZO, MARY ROSE TEJADA                                0501
B2401400180000007476751GAISANO, PAUL SY                                         1605
A1401400110000003475832RADONES, ARIEL SACRISTIA                                 0502
A1401400110492364401001RAFA,RAQUELITA OR RAFA, RENE OR                         10501
A1401400110492364401001RAFA,REI ANTHONY                                        20500
A0101400860011504202002**********                                               0502
A0101400860000000031610**********                                               0502
B0101400150000005015570FIRST DIGITAL FINANCE CORPORATION                        1605
A0101400150061226167001GASPAR R. ANDRES JR.                                     0501
A0101400150061341283001DIAZ, CYNTHIA MARTINEZ                                   0501
B0601400100000000142214SIMON AND STANDLEY INTERNATIONAL TRADING                11605
B0601400100000000142214& DEVT CO, INC.                                         21600
A0601400520000002085792PANGILINAN, SER ANTHONY FRANCO                           0501
A0101413730000003715837************************                                 0502
A0101412630000001823274TURINGAN, MARIA ELENA LASAFIN                            0501
A0101401830000005690902IBUAN, LOREMAGNE SIAPCO                                  0501
A0101400440000001439910JESSIERELL F. NACILLA                                    0501
B0101400440000003766887STARCOM MANPOWER AND ALLIED SERVICE                      1610
A0101400440000006679794PENA, GINA DBU PENGINS GENERAL                          10503
A0101400440000006679794MERCHANDISE                                             20500
A0101400440161520766042MONINA H. DUKA                                           0501
A0101400440161520766084GODELINA C. AQUINO                                       0501
A0101400440161525001173ELIZABETH V. FAJARDO                                     0501
B0101407270162062361001METRO STONERICH CORPORATION                              1601
A0101401090171199702001NELIA T. LOPEZ AND MAY T.                               10501
A0101401090171199702001MAGTOTO                                                 20500
A0101401090171510472001SEMBRANO, VIRGINIA ALDE                                  0501
A0301400530000001009932TAUTHO, SHIRLEY E.                                       0502
A0301400950000005707320TOLENTINO JR., MODESTO MORENO                            0501
A0101401380201294252001JIMENEZ, MA. SOLEDAD NAVARRETE                           0503
A0101401380201371534001JOSIE ASANON                                             0502
A0101413600000002122218IRENEO O. ONZO                                           0502
A3101400450000005355471CIGARAL, PEDRITO EXCONDE                                 0502
B1001400190231039064001*****                                                    1604
B1001400190231273115001LEGACY SALES & PRINTING PRESS                            1602
A1301400470252478374021RIZANETTE F. SANTOS                                      0501
A1301400470252518432001*************                                            0510
A1301400470252529647001MICHAEL PATRICK L. BANZON OR                            10501
A1301400470252529647001EMILY GRACE V. BANZON                                   20500
B0101401670271029786001AGUIRRE & AGUIRRE LAW FIRM                               1602
B0101406460272036660001***********                                              1603
B0101406620273021176001MERCURY SYSTEMS CORPORATION                              1601
B0101406620273037236001SANTOS SANTOS & SANTOS LAW OFFICES                       1601
A0101406620000000193840TAN, APRIL LYNN LEE                                      0501
A0101406620273529780001WONG, MERLITA MALACA OR                                 10501
A0101406620273529780001WONG, KRISTINE ALMERA M.                                20500
A0101400570281518037001TAN, WINDFIELD LIM                                       0502
A0101400570281713969001SOLO, MARCELO DELA CRUZ                                  0501
A0101411240000002332532LAMSEN, RAMON MACASIEB                                   0501
A0101411240000006548930CALUBIA, GRACE-AN BALENDES                               0502
B0101411240283062097001ALLIED FILIPINO OVERSEAS WORKERS                        11601
B0101411240283062097001INSURANCE AGENCY                                        21600
A2601400270000002312163ALEJANDRO Q. UY III                                      0501
A1101400120000006966832YOUNG, AGAPITA FERNANDEZ                                 0501
A0101402510341199103001CORAZON D. HUANG                                         0502
A0101402510341199103002********                                                 0502
A0101402510341548325001SANGOYO, JONAS BULURAN                                   0502
A0101402060000005137348YAPCHIONGCO, KATRINA BAUTISTA                            0501
B0101402060000000653850TAASCOR MANAGEMENT & GENERAL SERVIC                      1604
A0101402060351211701006DANNUG, MARIA DOLORES CARLOS                             0503
B0201401020000000042355CEBU RINGO TRUCKING INC.                                 1602
A0101408370382391637001DR. REGINA Y. SANTIAGO-AQUIAS                            0502
A0101408790383698989001CANDELARIA, MARY JANE DOMINGO                            0501
A0101411660000002309371RAJAN BHAGWANDAS GIDWANI                                 0505
B0101405490392006541001GLOBALTECH AUTOMATION, INC.                              1605
B0101405490000006214193NORTHSHORE HARDWARE & CONSTR                            11603
B0101405490000006214193UCTION SUPPLY                                           21600
A0101405490392170537002LORNA V. TUGADE                                          0502
A0101405490392177005001DOMINGA P. BUENAOBRA                                     0501
A0101405490392341023001JAZMIN P. GONZALES                                       0502
A0101405490392547709001FLORA AVILA SARMIENTO                                    0501
A0101408400000006253243LIM, JIAN JEBIE REYES                                    0502
A0101408400000006253243LIM, JIAN JEBIE REYES                                    0501
A0101408400000005286422BONGAROS, NORHAYNI DATUMANONG                            0502
A0101408400394409975001LUZON, MARY JANE DE TORRES                               0501
A0101408400394478374094NUNEZ, GENIE                                             0501
A0101408400394485330001SALVO, ROBERTO CASTROVERDE                               0501
A5501400120410742136002PARUNGAO, RAYMUND POSADAS                                0502
A5501400120410787960001TANTERAS, EDWIN MONTEJO                                  0502
A2401400180411478374035MERLINDA D. TAMUDTAMUD                                   0502
A2401400180411496346001OCIEL, MARIA MAGDALINA S. OR                            10501
A2401400180411496346001OCIEL, RANDY L.                                         20500
A0101403320000001646993RIOLITA E. FLORES                                        0501
A0101403320000001803338CALAQUIAN JR., RUBEN NUGUID                              0502
A0101403320471028478001FILJOY ELECTRICAL AND                                   10501
A0101403320471028478001ELECTRONICS                                             20500
B0101403320471041653001CRYSTAL DREAMS DEVELOPMENT CORPORATION                   1604
A0101403320471205802001EFREN M MALABANAN OR                                    10501
A0101403320471205802001ERLINDA M MALABANAN                                     20500
A0101403320471206073001TERESA S. CHUA TEK                                       0502
A0101403320000000452173SUMULONG, MARIA BANATIN                                  0502
B0501400170481015879001TDG VEHICLE SALES DEPARTMENT                             1615
A3801400170000005288042DE LEON, JESITA CACHA  OR                               10501
A3801400170000005288042DE LEON, ANTONIO ROXAS                                  20500
B3801400170490061924001MORNING STAR PROPERTIES AND DEVELOPMENT                  1602
A1901400160000007661056ARNIGO, DANILO OR ARNIGO,                               10501
A1901400160000007661056MORENA OR ARNIGO, LEMUEL                                20500
B1901400160491246031001CARLITO GO/FELIE GO/MYRNA MORALES/MONINA                11601
B1901400160491246031001REMO/CARLEEN SIH                                        21600
B1901400160491246031002CARLITO/FELIE/TIMOTHY GO / MONINA REMO                  11601
B1901400160491246031002/MYRNA MORALES                                          21600
A1401400110492367614001DE MESA, CECILDA LAGAR JT                                0502
A1601400170000000421263MARIA VICTORIA T. DE BELEN                              10501
A1601400170000000421263OR WINSTON M. DE BELEN                                  20500
A1601400170000001069227NUNEZ, IRENE AJERO                                       0503
A1601400170494076432001EUGENE C. CUA OR ALLEN A. CUA                            0501
A0701400260000006599462**********                                               0501
A0701400260000005303742BOLOFER, GIOVANNI BUEN                                   0501
A0101407430000003193326JEREMIAS L. TESTADO                                      0501
B0101407430503036696001SKY AVIATION LEARNING CENTER, INC.                       1603
B0101405940000003571793UNIVILLE DEVELOPMENT CORPORATION                         1602
A0101408530000007717806DELA CUESTA, MARIA SHIELA MARCE                          0501
A0101408530000007717862RIAD, JOHN MAURICE NABIL                                 0501
B0101403450521015337001**********                                               1605
B0101403450521029025001**********                                               1602
B0101403450521238191001**********                                               1610
A0101403450521240285002**********                                               0502
B0101403610531022135001HI-VISION CHAUSSURES INC.                                1605
A2201400250561258530016MARVIN H. ESPINOSA                                      10503
A2201400250561258530016EMPLOYEES OF IEWPC                                      20500
A0101404130601595494088GO, ANTHONY LIM                                          0502
A0101407720602081606001DY, JAY VILLAR                                           0502
A0101407720602283353001ERWIN HERNANDEZ OR                                      10501
A0101407720602283353001AGNES HERNANDEZ                                         20500
A0101407720602397271001OZAETA, MA. RAMONA PABLO                                 0501
A0101407720602398224001CUSTODIO, DEOGRACIAS BANABAN                            10501
A0101407720602398224001OR CUSTODIO, ELEANOR                                    20500
B0101412180000001293090ADVANI, GHANSHYAM PARASRAM DBU SICHEL &                 11605
B0101412180000001293090SICHEL ENTERPRIS                                        21600
A0101409920000000998569MEMBERS OF NATASHA (SHOECAT INC                         10501
A0101409920000000998569PEDROSA, JULIE                                          20500
A0101409920000001951851MEMBERS OF NATASHA (SHOECAT INC                         10501
A0101409920000001951851ANNALYN E. AMPELOQUIO                                   20500
A0101407690000000587895MANLIMOS, AMALYN DELANI                                  0501
A0101407690000002348763DALISAY, MA. ELENA GECOMO                                0501
A0101407690652020765001STARIAN MARKETING                                        0505
A0101407690652034806001BROWNFLY COMMERCIAL                                      0504
B0101407690652042016001TRIPLE LUCK MERCHANDISE                                  1601
B0101407690652042938001SIGNWOOD HARDWARE & LUMBER SUPPLY                        1603
A0101407690652478374140BEATRIZ MANIAGO - DEALERS OF                            10501
A0101407690652478374140SHOECAT INC                                             20500
A0101407690652525001073ELVIRA D. BASA  DEALERS OF                              10502
A0101407690652525001073SHOECAT, INC.                                           20500
A0101407690652554052005ALCANTARA, MICHAEL QUIGLEY                               0502
A0101413990000003431314DELA CRUZ, CARLITO B. OR                                10502
A0101413990000003431314DELA CRUZ, SHIRLEY A.                                   20500
B1301400500684029282001L5 & SONS FINANCING CORP.                                1601
B0101408240711036897001EVER THEATRICAL, INC.                                    1601
A0101408240711516971001ADOLPHO M. GUERZON                                       0504
B4101400550000000900036BACOOR DOCTORS MEDICAL CENTER INC.                       1603
B0101404840851022231001PAINTPLAS CORPORATION                                    1602
A0101404840851298552067EMERENCIANA P. BOMBAY &/OR                              10501
A0101404840851298552067JEREMY P. BOMBAY                                        20500
A0101404840851478374012SAPORNO, ANNABELLE G.                                    0502
A0101404840851520766142ANITA DOGILIO                                            0501
A0101404840851522784001BROZAS, MERCEDES MISION                                  0502
A0601400230000005510207DIZON, DIANNA C DBU ROZ-DAY IRO                          0501
