A0101408790383698989001CANDELARIA, MARY JANE DOMINGO                            0502
B0101409890000003098173V.T. LAGUYO CONSTRUCTION, INC.                           1602
B0101409920000001539642MATALA, WILLIAM DBU WPM TRANSPORT                       11602
B0101409920000001539642SERVICES                                                21600
A0101408240000002821883PADILLA, EMMANUEL DELAS ALAS                             0501
B0101408240711026678001SAMBEL PACIFIC CORPORATION                               1602
A0101408240711232945004SALOM, HERMELITA JIMENEZ                                 0503
A0101408240711375498001CONRADO OR JOSEFINA OR GRACE                            10501
A0101408240711375498001OR GILDA SANTIAGO                                       20500
B0101400150000001708403NEGROS ISLAND SOLAR POWER INC.                           1601
A0101406040112095866001********                                                 0502
A2601400270302478374003GRACE C. BANCUD                                          0501
A0101412890000002747948**********                                               0501
A0101404260611478374077LUCIA CAPILITAN                                          0502
A0101409920000000523642LEONOR, NOEL RAFAEL BESAS                                0501
A0101409920650478374024DUMAWING, LUALHATI SANTIAGO                              0501
A4101400260812035863001GREAT CAVITENO TRADING                                   0502
B0101400150061011066001FOOD SOURCE, INC.                                        1605
B0101400150061011066002FOOD SOURCE, INC.                                        1605
A0101400150061292057006SISON, GIDEON GOCHIOCO                                   0503
B0101400600071234158001**********                                               1605
B0101405810072018018001AIMWAY PLASTIC & PRINTING CORP.                          1602
B0101405810072029570001PLASTIC CONSUMER CORPORATION                             1603
A0101405810000001021172PUA, C DBU MCK SCHOOL & OFFICE                          10503
A0101405810000001021172SUPPLIES                                                20500
A0101405810072234892001**********                                               0501
A0101405810072354724003FUENTES, LILIA S.                                        0501
A0601400100000002365551STO DOMINGO, JEFFRIE ALCOBENDAS                         10502
A0601400100000002365551OR STO DOMINGO,                                         20500
A0601400100081251939002ELIZARDO OR WILMA MARTINEZ                               0501
B0601400100081295398001MALLARI JR., DIOSDADO OR MARY GRACE                     11604
B0601400100081295398001FAO O2 DESIGN                                           21600
B0101413730000000469745*********************                                    1601
A0101406040000000096811********                                                 0501
A0101412630000007158070ARANETA, JANYLAINE PALESTROQUE                           0502
A0101413310000001073574VILLEGAS, LORNA LOTERENA                                 0501
B0101401830141019859001NIPPON WARE MANUFACTURING CORPORATION                    1602
A0101412920000005193922DESPOJO, JUDITHA LACHICA                                 0501
A0101412920000005354503JIMENEZ, EDUARD CALDERON OR                             10501
A0101412920000005354503CALPO, JANOS CARL MONFORT                               20500
B0101400440161007221001ILA EXPRESS HAULER                                       1602
A0101400440161478374018MA. DELIA P. FERMANTE                                    0501
A0101400440161525001094MARIFE M. ENDE                                           0502
A0101407270000000511635DAVID STEPHEN STA. MARIA                                 0501
A0101407270162333006013CONCEPCION DELIGERO                                      0501
A0101401380000000414402VERGARA, MANUEL DIONALDO                                 0501
A3001400130000001261249BANJAO, JENELYN LARA                                     0501
A1001400190000005709140TAN, RENARIO TOYLO                                       0502
B1001400190000000016311AREA FCL CARGO LOGISTICS, INC.                           1602
B1001400190231272340001SIA, TOMAS C. OR GINA B.                                 1601
A1001400350000007762390MERCURIO, MARY SHEILA CABALLERO                          0503
A0101401670271406125002VIOLETA LINA ENRIQUEZ                                    0501
A0101406620000003661498*************                                            0501
A0101406620000005394732ULIBAS-MONTERO, MARIA KAREN                             10501
A0101406620000005394732RIZA B.                                                 20500
A0101412470000002086400NISHIZAWA, EMILY MANALO                                 10502
A0101412470000002086400OR TUSI, WILLIAM                                        20500
A0101400570281519977001KATHERINE V. HERNANDEZ                                   0502
A0801400160000008651838LAO, DONNIE TAN                                         10501
A0801400160000008651838OR LAO, ELAINE TAN                                      20500
B0801400160311035991001HAPI ILOILO CORPORATION                                  1602
A0801400160311478374088CHERYL C. CONDINO                                        0501
A0801400160311553780001COSTA, HENRY CERDENIA                                    0503
A6601400120000001065292AOYANG, DONABEL CERBITO                                  0501
A6601400120314668441002MASLOC, SHERRY AMOR GALONO                               0501
A0101402350321478374059BERNARDITA D. LOPEZ                                      0501
A0101402350321722290001CATHERINE N. ANGELO                                      0501
B0101405650000000013101MRR PAPER PRINTS & GRAPHICS COMPANY                      1610
A0101405650000000772936BLOSSOM GENERAL MERCHANDISE                              0503
A0101402510341196524001ORENSE, MARIA LIZA MARISTELA                             0501
A0101408370382205133001DR. ROWENA P. RIVERA OR                                 10503
A0101408370382205133001REBECCA P. RIVERA                                       20500
A0101408370000003775100DRS. CECILE CASIMIRO OR MA. LUZ                         10503
A0101408370000003775100CASIMIRO-QUERUBIN                                       20500
A0101408370382408300001DR. RODRIGO C. SANTOS OR                                10501
A0101408370382408300001DR. ALWYN JOHANNA SANTOS                                20500
A0101408790383511958001DELOS REYES, NADINE ANNE                                10501
A0101408790383511958001CZIARAH MERCADO                                         20500
A0101405490392038127001FEB 5 TRUCKING                                           0503
A0101408400000001952741ORINA, CHRISTOPHER PASCUAL                               0501
A0101408400394036671001CAIT FURNITURE SHOP                                      0501
A5501400120000006976734VILLA, LORETA JAVIER                                     0501
B5501400120410688775001GREFAB PROPERTIES, INC.                                  1601
A2401400180411478374027ELLEN PANTUJAN OR                                       10502
A2401400180411478374027ELMER PANTUJAN                                          20500
A1201400150421776673001CORREOS, GEROME DUA                                      0503
A3801400170000002302807SY, EDGARDO CHENG                                        0501
B1901400160491012762001ATI-BATANGAS, INC.                                       1610
A1401400110492023002001THESAURUS DRUGSTORE & GENERAL                           10505
A1401400110492023002001MERCHANDISE                                             20500
B1401400110492365609001JEORGE S MALIGAT - PILIPINO HARDWARE AND                11601
B1401400110492365609001CONST. SUPPLY                                           21600
A0101408530000001268628MARIA AIZA F. DINO                                       0505
B0101411790518821100608**********                                               2002
A0101403450521241170001**********                                               0502
A0101403450521478374007********                                                 0501
A0101403450521679548001**********                                               0502
B0101404000551005119001DOMINGO, R DBU LAW FIRM OF R.V. DOMINGO                 11610
B0101404000551005119001& ASSOCIATES                                            21600
B2201400250561026458001SDE (PHILIPPINES) CORPORATION                            1605
A2201400250561417945001MARIEL ANGELA I. PRINCIPE OR                            10501
A2201400250561417945001MAZIAR C. KHALEDI                                       20500
A2201400250561478374066MARY ROSE C. ALFONSO                                    10501
A2201400250561478374066MEMBERS OF NATASHA                                      20500
A0101410690000004481852SKIP TRACE HUMAN RESOURCE                               10502
A0101410690000004481852SERVICES                                                20500
A0101404130000001831692***********                                              0502
A0101404130000000485723YEE, SONNY L DBU SLY POULTRY                            10506
A0101404130000000485723FARM                                                    20500
A0101404130601451610001CONCEPCION L. DEL VILLAR                                 0503
A0101412180000000037950********                                                 0503
B0101404260611035660001BETERAVIA CREDIT CORPORATION                             1603
B0101404260000000157004INTERPRO FOOD SPECIALIST INC.                            1602
B0101404260000004781200G1CAFE INC.                                              1601
A0101404260611478374109ANGELITA SIQUIJOR                                        0501
B0101409890000007373095ONYANG'S FOOD PRODUCT MANUFACTURING                      1602
A0101409920000002260402ATENTO, SHERRY CLAIRE SOLEDAD F                          0501
B0101409920650044950001EINSTEIN SCHOOL FOR KIDS, INC.                           1601
A0101413440000001472873BANARES, EMILIA CHUA                                     0501
A0101413990000001406360AQUINO, ALMA MILAGROS V. DBU                            10502
A0101413990000001406360AQUIVEL PETRON                                          20500
A0101413990000000726512GIZA A. CASTRO                                           0502
A0101413990000004511077ESPEJO, MA. CAMILLE T. OR                               10501
A0101413990000004511077ESPEJO, MARLO L.                                        20500
A1301400210000000915851DARCEN, DIANA INGENTE                                    0501
A1301400210000005040486ALEJO, GUILLERMO CAPULE                                  0501
B1301400210000000540890EL MOLINO CONSTRUCTION SUPPLY CO.                        1603
A1301400210000005040282HARA, ROBERTO OPLE DBU R.O.H. T                          0510
A1301400210000000540914RAMOS, ALLAN BAUTISTA                                    0501
A1301400340000002283809PONSECA, CARLOS ALEXANDER MARTI                          0501
A0101408240711375102001PANICUCCI, MA. PILAR M. JT                               0501
A0101408240711466097001GALANG, JOEL CADAVILLO OR                               10502
A0101408240711466097001FLORENCE JOANNA                                         20500
B0101408240711691416001FIVESOME INC.                                            1601
A2801400100712021525001CONTAWE HATCHERY                                         0502
A2801400230000002312356VILLAROSA, RODOLFO NAVALES                               0502
A2801400230000002312447PAJELA, MARY JANE LABANDELO                             10504
A2801400230000002312447OR PAJELA, BENIGNO RAMOS                                20500
A4101400260000001783924GARCIA, GEWYN RAMOS                                      0501
A4101400260812389694002OLIVIA P. RODEROS                                        0501
A4101400260812565457001DEMANDANTE, CELSO VILLAREAL                              0503
A4101400390000007459234RODRIGUEZ, JOHNNY AMIX                                   0502
B4101400390813036410001THE BOAT SHOP CORPORATION                                1602
A4101400550000004846960PADILLA, ROSELY                                          0501
A4101400550000003266982*****                                                    0501
A0101412340000003438577LETICIA M. WALSH                                         0502
A0101412340000002266884MARGELETTE B. BAUTISTA                                   0505
A0101404840000001312554MARIA FE V. MALIG-ON                                     0501
A0101404840851281071012ELIZABETH D. BATARILAN                                   0501
A0101404840851520766155JOSEFINA VERGARA                                         0501
A0101406750000000172989VELEZ, PALMY REPRADO                                     0501
A0101406750000000090639REY, MARK DARRELL DBU ARISE                             10502
A0101406750000000090639TRADING                                                 20500
B0101418810853821100608**********                                               2002
A0101405070000001256480NATIVIDAD, JOCELYN MARINDA                               0501
A0101413860000001887012GALICIA, MARY ANN GONZALES                               0501
