B0101400570281821100608**********                                               2010
B2801400100712821100608**********                                               2002
B0101412890470821100608**********                                               2002
A0101403320471311190002*****                                                    0505
B2801400100000000004811TRADER RIC'S RESORT CORPORATION                          1601
A0101400860011086656001**********                                               0503
B0101400860011352814001**********                                               1602
A0101400860011398141002**********                                               0505
B0101400150061010834001CITY OFFICE EQUIPMENT, INC.                              1604
A0101400150061236944008GRACE R. DE ASIS                                         0501
A0101400150061311743050RAYMUND PUYAT                                            0502
A0101400150061315349055DENNIS JOY EJERCITO                                      0502
A0101400150061496726001CALMA, JOYSEN SOPHIA TAGUBA                              0502
A0101400600071233721001**********                                               0502
B0101400600071325386001********                                                 1601
A0601400360000005039510PEREZ, RYAN LHEO DUCUSIN                                 0501
A0601400520000004423221AYSON, KAREN JHOY JIMENEZ                                0501
A0101414090000000399388******                                                   0501
A0101410560000005280520JANNETTE C. ATUEL                                        0501
B0101400730111035695001AFRO-ASIAN TRAVEL AND TOURS, INC.                        1602
A0101401830000001139953ROSEMARIE S. NOJADERA OR                                10501
A0101401830000001139953ISAGANI M. NOJADERA                                     20500
B0101401830141056446001GADDI DBU GREENTEK ENVIRONMENTAL ENG.                   11602
B0101401830141056446001SERVICES JT                                             21600
A0101401830141206947001ADELA M. ROBLES                                          0501
A0101401830141579042001CATHERINE P. ABULENCIA OR                               10501
A0101401830141579042001NAMIE P. ABULENCIA                                      20500
A7201400170000003773073SARMIENTO, MARY JOAN BRANZUELA                           0502
B7201400170000003773637MDSDOC CORPORATION                                       1601
A5001400170000002288344ESPERITU, REYMOND NOBLES                                 0501
A0101412920000005354592NIEVA, GENELYN ESTRADA                                   0502
B0101407270162035346001TECHNOSPORTS INC.                                        1601
A0301400530000001009943PANTUA, JERSON R.                                        0502
B0301400790000000435738NEW GREAT LUMBER AND CONSTRUCTION                       11601
B0301400790000000435738SUPPLY, INC.                                            21600
A0301400950000002115344************                                             0501
A0301400950000002115140**********                                               0502
A0301400950000008000637MALIM, EMMANUEL JOSEPH APAT                              0501
A0101413020000003055381MALONG, CHARISE LASMARIAS                                0502
A0101413020000006295112GO TAN, M DBU WORLD STAR MARKET                          0502
B0101410720653035012001GENERIC SAVES DRUGSTORE                                  1604
B0101410720653043060001METRO DRY CLEAN VENTURES, INC.                           1603
A0101410720653385187001SERVILLANO H. GALVEZ JR. OR                             10504
A0101410720653385187001KAREN F. GALVEZ                                         20500
A0101410720653478374010SOCORRO JIMENEZ                                          0503
A0101410720653565189001VICTO, BERNARD KING QUIJANO                              0503
A0101410720653579026001PROLOGO, JORDAN CAMINO                                   0502
A0101413600000003134487******                                                   0502
B3101400160221026446001JOHN PAUL & PETER REPAIR & SERVICES                      1602
A3101400160221218333001KATHERINE OR CARLOS SION                                 0505
A3101400160221478374062LANI R PEREZ                                             0501
A3101400450000003739479PESIGAN, ROSALINA AND                                   10501
A3101400450000003739479PAPERA, ELENA                                           20500
A3101400740000006735824GARCIA, EMILY B. DBU MMA EVENTS                         10504
A3101400740000006735824SPECIALISTS AND CATERING                                20500
A3101400740000002634711CACAO, BETTY NALZARO                                     0501
A3101400870000005565255DE GUZMAN JR., O DBU ODG                                10501
A3101400870000005565255ENGINEERING SERVICES                                    20500
B3001400130230043534001BERRY HAPPY MART INC.                                    1604
A3001400130000008264740SUMAYO, ERADYL D                                         0501
A1001400190231478374086LORNA A. OMANDAM                                         0501
A1001400190231520766017RABANES, ELECTA CAMPION                                  0501
A1001400350000004095232VILLODRES, AVRIL GRACE BOKINGO                           0501
A1001400350000000017165MEN DBU A&L MARKETING SOLUTIONS                          0501
B1301400470000003270135EPS HAULING COMPANY INC.                                 1601
A1301400470252763998001BEVERLY C. EVANGELISTA                                   0501
A0101401670000005039801ACKERMAN, EMIL DAVID NOEL CAINT                          0503
B0101406620000003497347BOUNCE.ASIA ONLINE CORPORATION                           1602
A0101408660274478374012ELSA R. ETCUBANAS                                        0501
A0101408660274478374012ELSA R. ETCUBANAS                                        0501
B0101411110000000009098NET4SITE PHILIPPINES INC.                                1602
B0101411110000001037096TECHNOVORE SYSTEMS INC.                                  1601
B0101412470000002338912PRESCON PHILIPPINES, INC.                                1602
A0101400570000000470604RABANAL, EVELYN TINONG DBU RAKI                          0502
B0801400160311065123001FASOY, CARLOS CIRCULO DBU FASOY IND                      1601
A2001400290000000924447CLAVEL, ALAN ZAMORA                                      0503
A2001400290315087033001ROLIDA, JASON UY                                        10503
A2001400290315087033001OR ONG, WILMER R                                        20500
A3401400280000003309271RICARTO, LERMA DEGONES                                   0501
B3401400280318044735001A & T SANTOS INCORPORATED                                1601
A2901400130000005961322PACIFICO, EDLYN ESCALONA DBU PA                          0502
A0101402350321282385001EVELYN D. ARRANZA                                        0505
A0101402350321455174001CARVAJAL, DOROTHY S. OR                                 10501
A0101402350321455174001CARVAJAL, KIM AP                                        20500
A0101402350321478374013ROSALINA M. MARAVILLA                                    0501
A0101405650000000525911TORRES, ROD JEFFREY GUMABAO                              0501
B0101405650322077417001ELEGANT INFOVENTURES, INC.                               1601
A0101405650322211688001PEDRO C. DUMANA JR. OR                                  10501
A0101405650322211688001DELIA S. DUMANA                                         20500
A0101405650000000525739RUFA MACABENTA                                           0502
A0101405650322497703001BASCON, PHILLIP HOWARD                                   0502
A0101402510341478374008MARY GRACE B. ANDRES                                     0502
A0101402060351009385001JORGE ALOMBRO JR. OR                                    10505
A0101402060351009385001NELIA ALOMBRO                                           20500
A0101402060351213405001LEOZALDY C. LINTAG &/OR                                 10501
A0101402060351213405001DEANA M. LINTAG                                         20500
A0101402060351495895002ARCEO, FLORDELIZA CHAVEZ                                 0501
B0201400890376045807001**********                                               1620
B0101402930381014599001HEALTH SOLUTIONS CORPORATION                             1601
A0101402930381216288001JOSELYN C. TIU                                           0505
A0101402930000007031181MACARIOLA, MARIA ELENA TURIJA                            0501
A0101408790000008651918MALAYA D. DEL ROSARIO                                    0501
A0101408790383242406001KAW, ALEXANDER OR KAW, JENNIFER                          0502
A0101411660000006727666MA CECILIA SISON                                         0503
A0101402770391217498014BERNARDO UMALI                                           0502
B0101408400000001258599PASAY ULTRASOUND AND PERINATAL SVC.                      1602
A0101408400394478374077PEREZ, CONCHITA                                          0501
A0101412210000008068673VALENZUELA, ANNABELLE VITTI C.                           0501
A0301400820000002692179CUBIO JR, EDUARDO DANO                                   0501
A0301400820000004745962NAKILA, ARMAGIDON M.                                    10501
A0301400820000004745962DBU ALDON PJ MARKETING                                  20500
A5501400120410675739001BAYLON, EDWIN ELLON                                      0501
A2401400180411668703001DRA. MYRA J. ATENDIDO OR DR.                            10505
A2401400180411668703001BOBBIE EDUARDO A                                        20500
A1201400150000006154992ANG, ROSEANN ENCINARES OR ANG,                          10503
A1201400150000006154992WESLEY CUA                                              20500
A1201400150000006154929BUSOY, JENNILYN DUMAQUITA                                0501
A1201400150000001863312LAO, IMELDA DBU LINDI HOTEL                              0502
A0901400220000006214502**********                                               0501
B0101403030441012035003SIMPLEX INDUSTRIAL CORPORATION                           1605
B0101403030441012035004SIMPLEX INDUSTRIAL CORPORATION                           1605
B0101403030441012035005SIMPLEX INDUSTRIAL CORPORATION                           1605
A0101403030441594340001**********                                               0501
A0101403320000006026820MANGUSSAD, YOLANDA ALVIAR                                0502
A0101403320000006027378DE JESUS, SHEILA TRINIDAD                                0501
A0101403320471193254001JOSEPHINE S. BAYSA                                       0505
A0101406330472213272001JOHANNA L. ROMUALDEZ                                     0502
A0101406330472478374055ESPERANZA L. MALABOTE                                    0501
B0501400170481064698001MOTORCENTRUM CORPORATION                                 1604
A1601400170000000099029MYRA T. LAUSON                                           0501
A1601400170000000497423MENCHU R. BUADO                                          0501
A0101405940512204623002EDUARDO B. MANZANO                                       0502
B0101411400000001280557ROMEO B SIRA DBU RBSS PROJECT MANAGEMENT                11602
B0101411400000001280557SERVICES                                                21600
B0101403450521011675001TORQUE BUILDERS, INC.                                    1606
B0101403450521011989001**********                                               1610
A0101404000000007655009RACAZA, RAYMOND GERARD SISON                             0505
A2201400250561030356001RELIABLE PESOREMIT(PHILS.),INC.                          0503
A0101404130000001831727DIMAPILIS, TERESITA GUNIO                                0501
B0101407720602031597001A.F. NAVARRETE AND PARTNERS CO.                          1601
A0101407720602241314001**********                                               0502
A0101412180000000259501CABEBE JR., BER DBU B. CABEBE                           10508
A0101412180000000259501ENGINEERING AND CONSULTIN                               20500
A0101404260000003498613PARAS, ROMMEL CASTOR                                     0501
A0101404260611478374075VIVENCIA HATOL                                           0501
B0101414410612821100608**********                                               2002
A4101400260000000377479PETALCO, BABELITO V. OR                                 10501
A4101400260000000377479PETALCO, VIRGILI                                        20500
B4101400390000006103537KRATOS TECHNITES CORPORATION                             1603
A4101400420000000120674MARILYN BOSTRILLO                                        0501
A4101400420000004847883PAKIDING, GRACELYN A.                                    0501
A4101400420000004847890MEMBERS OF NATASHA (SHOECAT INC                         10502
A4101400420000004847890NELLIE B. CARAIG                                        20500
A4101400550000007583700DEFENSOR, WILFREDA COS                                   0501
A0101406750000003393140FUENTEBELLA, JOCELYN PANGILINAN                          0501
A0101406750000006303566TOLENTINO, MELDRID HERMOSO                               0501
A0101406750852181175001ANTONIO S. DOMANTAY OR CONCHITA                         10501
A0101406750852181175001DOMANTAY                                                20500
