B0101406330472821100608**********                                               2005
A0101412890000002747857ROBLES, ROBBY SANTOS  AND                               10504
A0101412890000002747857JOHN CARLO ROBLES                                       20500
B0101412890000000006919VAMECA FOODS INCORPORATED                                1603
A0101412890000000371599MARITA CHU OR BONIFACIO CHU                             10502
A0101412890000000371599DBU COBO PAVILLION                                      20500
B0101402930000000057481CENTURY PACIFIC FOOD, INC.                               1605
A2001400290315724878001CHAVEZ, CECILIA CUBELO                                   0501
B0101402060351009544001RI CHEMICAL CORPORATION                                  1610
A0101402060351217440025ARLENE F. MANGURAY                                       0502
B1301400210682034537002MACH 3 AUTOMOBILES CORP.                                 1605
A0101400860011568821001**********                                               0505
B0101401250021006948001PANGARAP FOUNDATION, INC.                                1605
A0101401250021298552002CLARITA ARCEGA                                           0502
A0101400150061073873001CHARLENE DIANE NEY-REYES                                 0501
A0101400150061331787095MAYBEL G. DANTES                                         0502
A0101400150061338964181ROSE H. LABAYO                                           0501
A0101400150061642127001VILLALON, LUIS MARTIN ENAGE                              0501
B0101400600071233748002**********                                               1601
A0101405810072334553004**********                                               0502
A0101405810072391337001MONZON, SHARON NGO                                       0501
A0601400520000001706838MENDOZA, JINKY MEDINA                                    0501
A0101413730000003715768*******************                                      0505
B0101413730000001568414AP ORIENTAL INDUSTRIAL TRADING, INC                      1601
A0101410850109058582001CHRISTINE MAY BURLAZA'S CUSTOMS                         10501
A0101410850109058582001BROKERAGE                                               20500
B0101400730000000002591*****                                                    1601
A0101400730111478374112STO DOMINGO, CONSTANCIA                                 10501
A0101400730111478374112CHARLENE                                                20500
A0101400730111643930001AUMENTADO, DONALD REYES                                  0501
A0101401960121239446001**********                                               0501
B0101401960121240767001PRESTIGE INDUSTRIAL SUPPLY INC.                          1602
A5001400170000000045138UY JR., ROBERTO TAN                                      0501
A0101400440161478374008MARY FE I. REDONDO                                       0501
A0101400440161525001117CATHY B. DELA PAZ                                        0501
A0101407270000003254311BOBBY G. JACINTO                                         0503
B0101407270162044141001RADIFF, INC.                                             1605
B0101407270162044875001CRONEWOOD, INC.                                          1605
B0101407270162046726001VALUE CARE HEALTH SYSTEMS, INC.                          1650
B0101407270162046726001VALUE CARE HEALTH SYSTEMS, INC.                          1650
B0101407270000000830482NUTRIDOUGH, INC.                                         1610
A0101401090000001618931ESCOBAR, MARIA LOURDES B.                                0501
A3101400450223576401001GALLEGO, DHARIA CAJAYON                                  0502
A1301400470252490222001ALAIN CRISPIN W. WY OR                                  10501
A1301400470252490222001ARLENE D. WY                                            20500
B0101411110000002320052SIA, JEFFREY MANALO                                      1602
B0101411110276776821008HYGIENIC PROCESS AND PACKAGING PHIL INC                  1603
A0101400570000003891390PASAHOL, JANINE LAQUI                                    0502
B0101400570281043564001ST. JOSEPH'S COLLEGE OF QUEZON CITY                     11601
B0101400570281043564001ALUMNI ASSO.                                            21600
A0101400570000000749480MDCARE AT FISHER CO. DBU THE NA                          0502
B2601400270302733483001JENNIFER OR EMILIA TALAVERA OR GAUDIOSO                 11605
B2601400270302733483001TALAVERA JR.                                            21600
 1101400120000003197051                                                           00
A6601400120000001370894OLANDIA, LUZ MONTERO                                     0501
B6601400120314041984001SAMNEST FOOD CORPORATION                                 1602
A6601400120314071890001MARTIRES, MYLA TURLA                                     0502
B6601400120314617698001CATARMAN DOCTORS HOSPITAL, INC.                          1603
A3401400280000003309242BICLAR JR., ALBERTO ALMASOL                              0501
A0101402060351030004001ZANVEL MANPOWER SERVICES                                 0505
A0101409050000005384852JEREMIAS NAVARRO                                         0502
A0201400760374030540001ST. FRANCIS MANPOWER SERVICES                            0501
A0201400760374625964001SOLON, ENRICO MENDOZA                                    0501
B0101402930381008800001THE PEARL PLAZA INC.                                     1603
B0101402930381038710001BENMAR REALTY DEVELOPMENT CORPORATION                    1602
A0101402930381283088002JOSEPH VINCENT A. ALBA OR                               10503
A0101402930381283088002AGNES A. ALARILLA                                       20500
A0101402930381575372001ROGEN B. REYES OR                                       10504
A0101402930381575372001JO ANN P. REYES                                         20500
A0101402770391617226001FERNANDEZ, FE OR                                        10501
A0101402770391617226001FERNANDEZ, ETHELWOLDO                                   20500
A0101405490000005466020MA RESURRECCION A. LIM                                   0501
A0101408400000001981702MARCELO, LEA DE GUIA                                     0501
B0101408400394028111001FRANCEDALE MARKETING                                     1602
A0101408400000004959544LUCHAVEZ, AILYN ORDINARIO                                0502
A0101408950396046680001CHARLES E. BONTILE DBU GENESIS                          10505
A0101408950396046680001LIFETECH MARKETI                                        20500
A0101408950000000776763LUQUE, MA. PAZ MILDRED                                   0501
A2401400180411478374047YOLANDA L. NINGAL                                        0501
A1201400150421029919001MUNSAYAC HANDICRAFTS INC.                               10501
A1201400150421029919001(ABANAO CARPARK)                                        20500
A1201400150421039385001JL'S CLEAN UP JANITORIAL &                              10503
A1201400150421039385001MANPOWER SERVICE                                        20500
B1201400150421496291001LIQUETE, DOLORES SAGUID OR LIQUETE,                     11602
B1201400150421496291001LEONARDO                                                21600
A0901400220000001805027BLACK ARROW SECURITY AGENCY INC                          0501
B0101403030000001302203**********                                               1601
B0101403030000000008886**********                                               1601
A0101412890000004345022QUADRAGON SECURITY                                       0502
B0101406330000000432900GLOBE MARITIME TRAINING CENTER - MA                      1604
B0501400170481018109002****                                                     1605
B3801400170490821100608**********                                               2002
B1401400110492031376001LUCENA WHEELER ENTERPRISE INC.                           1601
B1401400110492046339002******                                                   1615
A1401400110492652676001DEZA, VIVIAN P. OR                                      10505
A1401400110492652676001DEZA JR., ARSENI                                        20500
A1401400110492781561001NECESSITO, AGNES LIRIO                                   0502
A0701400260000000040962CASTANEDA, NENEBETH ESMERALDA                           10501
A0701400260000000040962OR CASTANEDA, ROBERTO                                   20500
A0701400260000002339062EGWARAS, ERLINDA SARAZA                                  0501
A0101407430503181551001DICKSON R. ESCOLAR OR LOURDES                           10501
A0101407430503181551001OR MARY ANN ESCOLAR                                     20500
B0101403580511005406001SHINRYO (PHILIPPINES) COMPANY, INC.                      1605
B0101403580511015363083MILLENNIUM ERECTORS CORPORATION                          1610
A0101403580000000016082SWEET BELLA DESSERTS                                     0508
B0101403580511038113001MACEDA VALENCIA & CO.                                    1605
A0101403580511513845001LETICIA C. DELOS SANTOS                                  0503
B0101408110515059030001LOS PRIMOS CASTRO COMPANY                                1601
B0101411400000000230242MONARCH AGRICULTURAL PRODUCTS, INC.                      1601
A0101404000000001186892HALAGAO, ROLY RANGPAS                                    0501
A0101404000000003706089MICHELLE M BAGNES                                        0501
A0101404130601547411001CO, ROYCE NASIS                                          0505
A0101407720602163494001SHERMAN O. VALERO                                        0506
A0101407720602271723010LUZ LACUNA-TAMAYO OR                                    10508
A0101407720602271723010EDMUND B. TAMAYO                                        20500
A0101407720602397743001NAZARETH, STEPHEN MAGSINO                                0501
A0101407720602507664001AUGUSTO D. LITONJUA OR                                  10505
A0101407720602507664001MARY A. LITONJUA                                        20500
A0101404260611340993001GLEAN, MA. JOSEPHINE LIMBO                               0502
A0101404260611416854004LLARENAS, MELANIO PARAGATOS                             10505
A0101404260611416854004AND VERNIE BUNO                                         20500
B0101414120000003584270WELL-BUILT SPECIALTY CONTRACTORS, INC.                   1603
B0101414120000003584343ONE SKY CONSTRUCTION, INC.                               1610
A1701400230000005426579BAQUIRAN, JAYBEE GALAM                                   0501
A1701400230000005455869ESTRELLA, SME JUNACHO GALINATO                           0501
B0101408240000000832655GAONWORLD INC.                                           1602
B0101408240711036910001ASIAN CENTRE FOR INSULATION PHILS.,                      1603
A0101408240711228456002MA. VICTORIA MANIQUIS                                   10501
A0101408240711228456002OR STEVE MANIQUIS                                       20500
A0101408240000002822062TY, ANNETTE SO                                           0501
A0101408240711648101001YI, KYUSUNG                                              0502
A2801400230000001782094PARPAN, MARILOU DBU VISTA RENT                          10503
A2801400230000001782094A CAR OR PARPAN, EDDIE                                  20500
A4101400390000000500541ASIS, ABEL QUIERRA                                       0501
A0101412340000003345019NINO BRIAN A. PACIO                                      0501
A0101404840851217637018EDNA M. FAGARA                                           0501
A0101404840851520766105ALICAWAY, HELEN                                          0501
A0101406750852079211001BALANLAYOS, ELISA M. OR                                 10501
A0101406750852079211001EMBESTRO, MYRNAL                                        20500
A0101406750852478374027ELENA HINUNANGAN                                         0501
A0101406750000000357982DIOLA, ROSE MARIE TAGLE                                  0501
A0101405070861478374074STA. ANA PURISIMA                                        0502
B0601400230891027774001MINERVA TRADING HOUSE OF MOTORCYCLE                      1601
B0101415800001601050124**********                                               2002
