B0201400920375821100608**********                                               2005
B0101408370382045343001THE MEDICAL CITY PSYCHIATRY AND WE CARE                 11602
B0101408370382045343001ASSOCIATION INC                                         21600
A0101408370382391433002DR. FREDERICK P. VICENTE                                 0502
A0101408370382408402001DR. RAUL V. DESTURA OR                                  10503
A0101408370382408402001BABY ASUNCION B. DESTURA                                20500
A0101412890000005913242BELVIS, GOODY LACSON                                     0502
A0101406460272369676001CO, ADELA GO                                             0501
A0101403450521238554001********                                                 0501
B0101400150000004090140PETER PAUL COCONUT WATER CORPORATIO                      1620
A0101400150061229814002LEONCIO C. LIM                                           0501
B0101400600071043829001********                                                 1601
B0601400100081013319001ANGELES CITY UNIVERSAL MARKETING                        11603
B0601400100081013319001CORPORATION                                             21600
A0601400100000002365324GULAPA, ADRIANO VINUYA                                   0503
A0601400360000000978732MAGTIRA, J DBU SAINT HOMOBONUS                          10501
A0601400360000000978732PHARMA HEALTH EN                                        20500
A0601400520000004423181AIRLANE.COM AIRCONDITION                                10505
A0601400520000004423181SERVICES AND TRADING                                    20500
A0101412630000000180414BONIFACIO, JOCELYN MADRID                                0501
A0101413310000002317875RUSSEL, STEVYE LINN ANDAL                                0502
B0101401830141021045001TCTS TRUCKING SERVICES                                   1610
B0101412920000000276533MIRAMAR MANPOWER SERVICES, INC.                          1602
A0101400440161039572003JUDELITA S. ECHUAL                                       0501
A0101400440000000029423ROBINA P. OTAZA                                          0501
A0101407270162331904006**********                                               0501
A0101401090171196210002LOPEZ, MA. CRISTINA OR                                  10501
A0101401090171196210002RAMOS, HUBERT                                           20500
A0101401090171409077003RAUL CRUZ JR. & JOSE PEDRO                              10505
A0101401090171409077003CABRERA                                                 20500
A0101401090171410434001EDGARDO A. MANICSIC OR                                  10501
A0101401090171410434001NANCY A. MANICSIC                                       20500
B0301400530193014269168COMMODITY LENDING INVESTOR, INC.                         1601
A0301400530193551646168ROTERSOS, LETICIA D. OR                                 10503
A0301400530193551646168ROTERSOS, MANUEL                                        20500
A0301400950000002115300ILA ENTERPRISES                                          0502
A0101401380000000520487BASA, MARILYN ZABALE                                     0501
A0101401380000005219950VINLUAN, AGNES QUIROS                                    0502
A0101412500000006244588ESTUDILLO, LEW GAPUZ AND RAMOS,                         10501
A0101412500000006244588MICAELA VIRGINIA GAPUZ                                  20500
A3101400160000005459798DE ROXAS, HONELYN MIRANDA                                0501
A3101400160221221196002LEONILO ERCIA                                            0510
A3101400160221386295002ROBERT J. BANATIN                                        0501
A3101400160221533266001ANGELITO S. LAZARO JR.                                   0502
A1001400190231520766049JOCELYN S. LLUBIT                                        0501
B0101401670271038486001POWER FASHION INC.                                       1605
A0101401670271289633003LIM, ROSARIO C.                                          0501
A0101406460272377244001ALA, JESSIE ATENTA                                       0501
A0101411820000002328452GENISES C. SOLOMON                                       0504
A0101411820000001356441BUENO, MAIDA DONCIRAS                                    0501
B0101412470000003847449GAUFRE WAFELS INC.                                       1605
A0101400570281307585001INES ESPINOSA-HUNGRIANO                                  0502
A0101400570281492317001ABANO, JESSICA MARIE REYES                               0505
A1101400120000000652788PRIMER, HERMINIA AZUCENA                                 0501
A1101400120313060219001**********                                               0501
A1101400120000001547235DUGANG, JESSA EBIT                                       0501
A6601400120314678477001GARROTE, LYEAN CAPOQUIAN                                 0501
A2001400290315636761001VILLABERT, WINSTON TAN OR                               10505
A2001400290315636761001VILLABERT, MARIT                                        20500
A2001400290315666711001MARIUS CRESENCIO C ONGCOG OR                            10503
A2001400290315666711001AGRIPINE THERESE                                        20500
B0101402350321034292001JACINTHE MANUFACTURING CORPORATION                       1602
A0101402350321323061001ANGELA A. FERRER                                         0501
B0101405650322006303001GIL'S TRADING                                            1606
B0101405650322543721001OMNIBILT CONSTRUCTION AND MAINTENANCE                   11602
B0101405650322543721001INC.                                                    21600
A0201400920375635534001*************                                            0502
A0201400920375778475001HEALTH WELLNESS VENTURES                                10503
A0201400920375778475001PHILIPPINES CORP                                        20500
B0201400920375821200608**********                                               2002
B0201401280379821100608**********                                               2003
B0101402930381040001001TURQUOISE TRAVEL & EVENTS                               11602
B0101402930381040001001MANAGEMENT CORP.                                        21600
A0101408370000005220080NERY, EMILY ROSE CRUZ                                    0502
A0101408370000003775111**********                                               0505
A0101408370382211811001DR. SHARON CATING LIM                                    0501
A0101408370382552579001RAMON Q. SISON JR OR                                    10502
A0101408370382552579001VICTORIA S. SISON                                       20500
A0101408790000000599891DE GUZMAN, MA GUIA SALINAS                               0501
A0101411660000000109311**********                                               0501
B0101402770391035790001NEWBIG FOUR J CONSTRUCTION INC.                          1604
A0101402770391426559001APOLINAR LOZADA NARIO                                    0502
A0101408400000001855416EBRON, ANA LEA SADIA                                     0501
A0101408400000001981600YU, ELVIS ANG                                            0501
A0101408400394506485001EBAJAN, ALEX BERGADO                                    10501
A0101408400394506485001OR EBAJAN, MERCE                                        20500
B0101409180397043819001VALUE ADVERTISING                                        1602
A0101409210000003297530ARTHUR POLICARPIO                                        0501
B0101409210398042656001FIELD OUTSOURCE ASIA, INC.                               1606
A0301400820000001554821ACLAO, MARILOU G.                                        0501
A2401400180000001676957MERCADO, MABEL POVADORA                                  0505
A2401400180000003949195MERCADO, MABEL P. DBU KKJJ                              10505
A2401400180000003949195BULILIT PETRON S                                        20500
A2401400180411272614002BALAYO, JOEL BASCO                                       0510
A2401400180411478374047YOLANDA L. NINGAL                                        0501
A2401400180000001676913***********                                              0501
B0901400220432307053088**********                                               1601
A0101403030441043810001CORE SOURCE TRADING                                      0504
B0101403030441239806001JETCO MOTOR SALES                                        1604
A0101410140000000499338RUIZ, CRISTINA BALAYAN                                   0501
A0101410140000002307819SAN AGUSTIN, NATIVIDAD BARCELON                          0501
A0501400170000001072684VELASCO, MARIA CRISTINA ARIZALA                          0501
B0501400170481258347003COLEGIO DE SAN JUAN DE LETRAN-                          11604
B0501400170481258347003MANAOAG INC.                                            21600
A0501400170481480835001ONG, FRENZY CLAIRE FERRER                                0501
A1401400110000000132896MORALES, RAIN DBU DIRL AND JANE                          0501
A0101407430000001028853LEONARD REY S. LITAP                                     0501
A0101407430503757454001YOLANDA M. HUQUERIZA                                     0502
B0101403580511020857001ROBROS INCORPORATED                                      1603
B0101403580511515198001ATMA INTERNATIONAL CORPORATION                           1601
A0101406880513197649001HARPER, ANNA MARIA LAMMOGLIA                             0501
B0101408110000000016708PROTEMPS, INC.                                           1602
A0101411400000005329784ABEJO, JONI REYES                                        0501
A0101403450521238076005**********                                               0505
A0101403450521371189001QUE, BENJAMIN ONG                                        0503
A0101403450521582387001**********                                               0501
A2201400250000004916092DE GUZMAN, FRANCES MANIALONG                             0501
A0101404130601451433001SABADO, DOMINIC E.                                       0501
A0101407720602161917001GOYLOS, LORENA CALVO                                     0501
A0101407720602163314001SALLY KING JOAQUINO OR                                  10504
A0101407720602163314001JACQUELINE JOAQU                                        20500
B0101412180604060196001JL BUSINESS & TECHNOLOGY                                11601
B0101412180604060196001CONSULTANCY, INC                                        21600
B0101412180000001293163CAPUNO, WILSON CAPIZ DBU CAPCHEM                        11601
B0101412180000001293163MARKETING                                               21600
A0101404260611478374104JUDITH R LUMBO                                           0501
B0101404260611537674001KLINI-KAYA MEDICAL SPECIALISTS INC.                      1604
A0101409890000000209112ANONAS, TERESITA DIZON OR ANONA                         10501
A0101409890000000209112S, GERARDO B.OR                                         20500
A0101409890000000437449**********                                               0501
A0101409890649723947002TONGOS, ROMARICO MACARANAS OR                           10501
A0101409890649723947002TONGOS, RALPH JU                                        20500
A0101409920000005460748SEO, KERSTIEN NAYNES                                     0501
A0101409920000001539664PALINES, NANCY ARMINIO                                   0501
A0101409920000001539664PALINES, NANCY ARMINIO                                   0501
A1301400210000005040613MANLAPAZ JR., RAULITO CRUZ                               0502
B1301400210000000915628BULACAN AGRO-INDUSTRIAL SUBD.                            1601
A1301400340683249082002RICARDO HERMOSO II OR                                   10501
A1301400340683249082002AGRIPINA HERMOSO                                        20500
A1301400500000002063805VENDIVIL, MA. TERESITA OCAMPO                            0501
A1301400500000002063981WONG, JOHN TAM                                           0520
A0101408240711385252001NISA B. CADIZ                                            0502
A0101408240711655327001MACAS, RONA FABIANO                                      0502
B2801400100712019694001LUNTIAN LANDSCAPING AND GENERAL                         11602
B2801400100712019694001SERVICES                                                21600
B4101400390000003346187PAGASA PHILIPPINES LENDING COMPANY                       1605
A0101404840851520766181ANISAH ALI                                               0501
A0601400230000002310105SAPNU, ROMMEL ANTONIO                                    0501
B0601400230891039268001GOLDIE PLUS LENDERS, INC.                                1605
B0601400230891647141001PATERNO &/OR MA EVANGELINE LUCIANO OR                   11605
B0601400230891647141001JOANNE K PALO                                           21600
