B0101400570281821100608**********                                               2005
B0101406590662024281005A.C. MOJARES CONSTRUCTION                                1605
A3101400870000009926776TUMANDAO, JAYSON JULIANO                                 0501
A3101400870000009932498PEUKER, MICHAEL                                          0501
B2001400290315063250001THE BLU CITRUZ COMPANY                                   1603
A0101402060351009359001JIANDANI, SURESH G. OR                                  10501
A0101402060351009359001JIANDANI, KAVITA                                        20500
A0101409210000007762903UY, DANNUEL GO                                           0502
B0101403610531046502001SAN PEDRO APOSTOL PARISH                                 1603
A0101400860000005312981**********                                               0502
A0101401250021180271001ERLINDA V. EQUIBAL                                       0501
B0101400150000000633436HUBB STORES AND SERVICES, INC.                           1603
A0101400150061227098001TITA CARANTO OR PIO CARANTO                              0501
B0601400100081013322001LACTO B INCORPORATED                                     1604
B0601400100081013322001LACTO B INCORPORATED                                     1604
A0601400100000002365437DELA CRUZ, RAMIR DE JESUS                               10502
A0601400100000002365437OR DELA CRUZ, MARIBEL                                   20500
A0601400100081372331001FREDIE/PERLITA SO                                        0501
A0101413730000002229676***************                                          0501
A0101414090000006211581LOZADA, EDITHA NAVARRO                                   0501
B0101410850000001229863PARKER CHUA AND TIMMIE CHUA                             11605
B0101410850000001229863AND LLOYD CHUA                                          21600
A0101410850109046512001*****                                                    0501
A0101410560000002316581**********                                               0502
A0101410560000005280462ROSE MARY S. RAPADAS                                     0502
A0101410560000005280666BEVERLY KATE M. BUGARIN OR                              10501
A0101410560000005280666GERARD B. BUGARIN                                       20500
A0101400730000000833396CARBONELL, LEVINA IBALE                                  0503
A0101400730111478374179MARIA LUISA S. TRUJILLO                                  0501
A0101412630000000045350ENRIQUE, MARY JANE BOLISAY                               0501
A0101412630000009425101DAVID, MICHAEL CABER                                     0502
A0101412920000002359048SY, GENE ALLISTER ENCARNACION                            0502
A0101407270000000010060SPIRO CLEMENTE OR                                       10503
A0101407270000000010060JENNIFER CLEMENT                                        20500
A0101407270162300223002DANIELA A. PAYAWAL OR                                   10501
A0101407270162300223002SERGIO B. PAYAWA                                        20500
A0101401090171196116001JOSEFINA A. GAUDIANO                                     0501
A0101401090171337852001MA. CORAZON IMELDA H. LINGAN                            10501
A0101401090171337852001OR AUDIE LINGAN                                         20500
B0301400530000000065945TAGUM SEAFOODS AND GRILL CORPORATION                     1604
A0301400530000005300372ANINON, AILEEN VILLANUEVA                                0501
B0101401380201037945001LUCKY HORSES CONSTRUCTION SUPPLY                         1610
A0101413600000003134487******                                                   0502
A3101400450223588221001GATDULA, JAMAILA  OR AGONCILLO,                         10501
A3101400450223588221001JAYVEE OR JOSE                                          20500
A3101400740000006735824GARCIA, EMILY B. DBU MMA EVENTS                         10504
A3101400740000006735824SPECIALISTS AND CATERING                                20500
A3001400130000001271312SHAPE & WELL NUTRITIONAL                                10501
A3001400130000001271312PRODUCTS                                                20500
B3001400130000006004739SERVIAM MULTI-PURPOSE COOPERATIVE                        1602
A3001400130000008264784SANCHEZ, AGNES M.                                        0501
A1001400190231509590001LAGUYAN, ENGRACIO SALONA                                 0504
A1301400470252478374030JERICA P. MATAMMU                                        0503
A0101401670000005039787BAGOTLO, ANDREA JEAN APELO                               0501
B0101401670271038514001DWIGHTSTEEL BUILDING SYSTEMS INC.                        1604
A0101406620273284854001JOCELYN LI                                               0501
B0101408660000001940610WESTMINN CONSTRUCTION AND DEVELOPME                      1602
A0101411820000001356372IDALA, GLORIA CONSUELO MANZANO                           0502
A0101411820277775683001***********                                              0504
B0801400160311066091001EXPI'S BALLOON MAGIC, PARTY NEEDS AND                   11601
B0801400160311066091001CATERING SERVICE                                        21600
A0801400160311380582001CHUA, ANDREW UY OR                                      10501
A0801400160311380582001CHUA, PAMELA G.                                         20500
A0801400160311478374053JONNA O. ALCAIN                                          0501
A0801400160311478374104RUBIE BAGAFORO                                           0501
A1101400120000000652380CAYUBIT JR., SERAFIN ASERON                              0501
A1101400120000006186423VEGA, JILIE UY                                           0501
B6601400120314047332001ST. ANTHONY FARM INSTITUTE OF                           11601
B6601400120314047332001TECHNOLOGY INC.                                         21600
A6601400120314627348001RUBILLOS, LADY ANN MIJARES                               0503
A6601400120314668441002MASLOC, SHERRY AMOR GALONO                               0502
A2001400290315688009001ALGOPERA, LLOYD GARCIA                                   0504
A0101402350321180274002JULIE O. GREGORIO                                        0502
A0101402350321365573001CORAZON M. FERMIN OR ROSARIO C.                         10502
A0101402350321365573001MERCADO OR JOSE                                         20500
B0101402350321713326001IDESCON, INC.                                            1602
A0201400760000002047041ANG, STEPHANIE JOIE JAYME                               10501
A0201400760000002047041OR JAYME, STEPHE                                        20500
A0201400760000005429961MENDOZA, MARIANITA OUANO                                 0501
B0201400760374041858001HELPMATE TRADING AND SERVICES                            1601
B0201400760374682272002OUANO, RUPERTO VILLAFLOR OR                             11601
B0201400760374682272002JAYME, STEPHEN R                                        21600
A0101402930381066107001CHERRINGTON, V DBU URATEIT SOFT                          0501
A0101411660000004597220BONDOC, NARCISA NAVARRO                                  0502
A0101415350000005085030CARITAN, JOSEPH FERMIN ABESIA                            0501
A0101402770391013439001JIREH'S CAR PAINT SHOP                                   0501
A0101402770000006642793SUESS, FLORENCIA GERODIAS DBU                           10501
A0101402770000006642793FGS ENTERPRISES                                         20500
A0101402770391063860001DAZZLE TIP NAIL LOUNGE                                   0502
A0101405490000002253021BANZIL, VENESSA TANTICO                                  0502
A0101405490392170537002LORNA V. TUGADE                                          0502
A0101405490000004808668DAISY B. MAJAIT                                          0501
A0101408400000007539986ESTRADA, JUDY AZUR                                       0502
B0101408400394030962004H B C INC. - MARKET MARKET BRANCH                        1604
B0101408400000003120521GILIGAN'S ISLAND BAGUIO, INC.                            1602
B0101408400000003120554GILIGAN'S ISLAND BAGUIO, INC.                            1602
A0101408400394444684001**********                                               0502
A0101408400394478374063LACSON, MARITES                                          0502
A0101408950000005325902BOMBAY, CHRISTINE YANGO OR BOMB                         10502
A0101408950000005325902AY, ALEXANDER S.                                        20500
A0301400820000001185622DOMINGO, MARIA ROSELA P. OR                             10503
A0301400820000001185622DOMINGO, RITA P.                                        20500
A0301400820000007372809CAI, LILI                                                0502
A5501400120000001121851BECIOS, DELIA SOLIVIO                                    0501
A1201400150000000473541DACANAY, E DBU ERLINDA I.                               10505
A1201400150000000473541DACANAY RICE COM                                        20500
B1901400160491027966003SALESFORCE ONE MARKETING, INC.                           1603
A1901400160000000483783PAULA REA S. CASTOR                                      0502
B1401400110492046339002******                                                   1620
A1401400110000008266422OABEL, NILO VICTOR MALLARI OR                           10501
A1401400110000008266422YAMBOT, KRISHIA HONEYCA                                 20500
A1601400170000001069056CHRISTOPHER S. CO                                        0505
A0101407430000003193946LOPEZ, JENNIFER N. DBU JLO HIGH                         10501
A0101407430000003193946PERFORMANCE MOTOR SHOP                                  20500
A0101405940000008203507HARRIS C. MACATANGAY                                     0503
A0101406880000000511060MANGULABNAN, MILAGROS RAMOS                              0501
B0101406880513021335001ACTIVE REALTY AND DEVELOPMENT CORP.                      1615
B0101406880000001286357KRIS FINSOFTWARE, INC.                                   1603
A0101406880513197649001HARPER, ANNA MARIA LAMMOGLIA                             0501
A0101408530516471293001CALICDAN, ENRIQUE S. OR                                 10501
A0101408530516471293001CALICDAN, FLORITA L.                                    20500
A0101408530000009248604ROALD ANTHONY M. MOSCARDON                               0501
A0101408530516615903017GEMMA H. FLORECE                                         0501
A0101408530516670117001NONOY, MERLY JUMAMIL                                     0501
B0101403450521011745001**********                                               1602
B0101403450521020418001**********                                               1605
B0101403450521029023001**********                                               1602
A0101403610000001450771O. ESCUDERO FUNERAL HOME                                 0504
A0101404000000003284513CANAOAY, MARIELLE DELOS SANTOS                           0501
B2201400250000001545535PARAGON MANPOWER & GENERAL SERVICES                      1603
A2201400250000001545580MEMBERS OF NATASHA (SHOECAT INC                         10501
A2201400250000001545580GAUDIOSA A. WAGE                                        20500
A2201400250561503884001DELIE C. CASTILLEJO                                      0501
A0101404130000000043898BAUTISTA, VIVIAN ARAGO                                   0501
A0101407720000004561773PIA, JASON ALLANI                                        0501
A0101407720602377521001CLAUDINE RAE L. JAVIER                                   0501
A0101407720000005100109STO. DOMINGO, MARINETTE TUASON                           0501
A0101407720602396826002REMEDIOS G. SUNTAY                                       0502
A0101407720602450511001CARCASONA, ALEJANDRA M.                                  0501
A0101407720602547907001DR. CORINA MAE G. TIU-DY                                 0503
A0101407720602692869001NIELSEN, KAREN LUCERO                                    0502
B0101404260611042763001ACJEM INDUSTRIAL MANPOWER & GEN.                        11605
B0101404260611042763001SERVICES, INC.                                          21600
A0101404260611150910003AMUERFINA I. MASIGON                                     0501
A0101404260611337823001MACARIA OR MANUEL TAN                                    0502
A0101404260611478374084JEAN GONGOB                                              0501
A0101404260611487906002REYES, MA. SHARON FLORES                                 0501
A0101404260611524854001CLEMENTE, WILMA RUIZ                                     0502
A0101409920000003672100LAMOSAO, MICHELLE ABANES                                 0502
B0101409920650044950001EINSTEIN SCHOOL FOR KIDS, INC.                           1601
A0101410300000006278471TRINIDAD, CATHERINE LADIA                                0502
A0101410300000005237816PANGANIBAN III, DELFIN RAYMUND                          10502
A0101410300000005237816OR PANGANIBAN, NERISSA                                  20500
A1301400210000005040555HAO, BELINDA VIQUIERA                                    0503
B1301400210000005040960ARMS-ABUNDANCE HOMES REALTY SALES,                       1602
B0101408240711032925017DLSZ (DE LA SALLE SANTIAGO ZOBEL SC                      1601
A4101400260000006043118KAHBLESS, AKA DBU KAHBLESS                              10502
A4101400260000006043118INTERNATIONAL ENTERPRISES                               20500
B4101400260812681389001MARIVIC B AGUIBIADOR OR DAVID B CHARLTON                 1603
A4101400390000001732725CARAIG, ROSALINO PEREZ                                   0501
A4101400390813470914001AZIS, ARMELA MERIADO OR HADJI                           10510
A4101400390813470914001AZIS JR., SAILAN                                        20500
A0101412340000001017816MARANAN, JENNIFER GONZALES                               0501
A0101404840851520766152ADELIA CEMINIANO                                         0501
A0101406750852046899001VARGAS, ELENNETT DBU AVIS DE                            10502
A0101406750852046899001PASSAGE EVENTS M                                        20500
A0101406750852478374095LORENA N TANGPUZ                                         0501
A0101405070000005619354BARRERA, BERNARD PAGUIRIGAN                              0502
B06014002300000036448207R FINANCE CORP.                                         1610
B0601400230891338856001SZE KIT CHENG                                            1610
A0601400230000007402188CHUA, MARK ANTHONY GARCHITORENA                          0502
