A0101408950000006142707CAPULE, SHARON                                           0505
A0101400440000008201323ROELA D. WATTANG                                         0501
A0101400440161520766125FELY TUBELLO                                             0501
A0101400440161525001139JEMARIE S. SALUDAR                                       0501
B0101402930000000038691THE SPINAL CORPORATION                                   1601
A4101400390000000034073NELLA O. MERCADO                                         0502
A0601400520000001120385BANAG, ESMERALDO PINEDA                                  0501
A0101400440161039572043CERENO, GLECY GUTIERREZ                                  0505
A0101400440000000337637DOMINIQUE FAYE C. CERBAS                                 0501
A0101400440000001439663MEDCON PHARMA                                            0502
B0101400440161528688001POWERPHASES CONSTRUCTION SERVICES INC.                   1610
A0101412890000009833576BORLAGDATAN, MARILYN GABUMPA                             0501
A0101405940512319431001*******                                                  0501
A0101400150000000807943CARDENAS, ORLY A. OR                                    10502
A0101400150000000807943CARDENAS, JACQUE                                        20500
A0101400150000003322403MICHAEL Q. RECTO                                         0502
B0101400150061036959001PINNACLE ASIA, INC.                                      1602
B0101400150061043646001ARRAKIS HOLDINGS, INC.                                   1602
A0101400150061227793001ANASTASIA DY OR EVELYN DY                                0501
A0101400150061236944048JENNIFER TRINITY S. MAYNIGO                              0501
A0101400150061334116001MICHAEL A.P. ADAMS                                       0503
A0101400150000000806713SEVIDAL, KYLA ISABEL VILLA                               0501
A0101405810072236551001***********                                              0501
A0101405810072582749001VACAL, CARMELITA CALALANG                                0501
A0601400100081251829001FELICIANO, EREDITO OR ROSA ANA                           0501
A0601400100000010683782LOWE, LIBERTY SAGUN                                      0501
A0601400360000008460184CALAGUAS, PETER JOSEPH AVIADO                           10501
A0601400360000008460184OR CALAGUAS, LULU SISON                                 20500
A0601400520000001349491MANALASTAS, MINDA CORREA                                 0502
B0601400520000000398512PAGASA PHILIPPINES LENDING COMPANY, INC.                 1606
A0101400730000001697298ALAN J. CASTRO                                           0501
A0101400730111452111001PEREZ IV, MAURICIO GUTIERREZ                             0503
A0101401960121239340001***********                                              0504
A0101412630000004062086BANZUELA, ELEANOR ADORNA                                 0502
A0101412630000006694193BOTE, CHONA TIONGCO                                      0501
B0101401830141026671001BRIGGS CONSTRUCTION AND GENERAL SERVICES                11602
B0101401830141026671001COMPANY                                                 21600
B0101401830000000033616CARITAS SALVE CREDIT COOPERATIVE                        11603
B0101401830000000033616PACO (006)                                              21600
B0101401830141068064001THE BARKING ZOO PH. CO.                                  1605
A0101401830141404416002MAYLA L. UNGOS                                           0501
A0101400440000000060266JOCELYN B. ANDAYA                                        0502
A0101400440161186961001AGNES DEE OR GREGORIO DEE OR                            10502
A0101400440161186961001THOMAS GREGORY D                                        20500
B0101407270162050380003DROPBOX, INC.                                            1605
B0101407270162053928002QUANTUS BUSINESS SERVICES, INC.                          1605
B0101407270162054806002NUTRIDOUGH, INC.                                         1603
A0101401090000011504680DE JESUS, FRANCIS LAWRENCE BERM                          0501
A0101401090171196038001REBECCA A. CASTRO, M.D.                                  0503
A0101401090171328970001RAYMOND C. TORRES                                        0501
B0301400660194682021088DEC PETROLEUM HAULER & SALES                             1601
A0301400660194737283088ZHI VENUS INDUSTRIAL SUPPLY                              0502
B0301400790195068705001MARIA ROSY DAVAO MOTORS CORP.                            1601
A0101413020000000056999SOMBILLO, A DBU THE K-CAMP                              10503
A0101413020000000056999TUTORIAL & REVIE                                        20500
B0101412500000000041749UNITED DOCTORS MEDICAL CENTER, INC.                      1620
A3101400450223403586001NUA, CHRISTIAN JOHN OR RICHARD                          10520
A3101400450223403586001OR MELODY                                               20500
A3001400130230478374239ATO, AIREN BERNADEZ                                      0501
A1001400350000007762538HERNANDEZ, HIYASMIN TAYLO                                0501
A1001400480000005355831CARILLO, MERLONE DAMING                                  0501
A1901400290000001363064MARIANO BENEDICTO GUTIERREZ JR.                          0501
B0101401670271028082002DDT KONSTRACT, INC.                                      1630
A0101401670271611836001ERNEST LAUREL B ARCILLA OR                              10502
A0101401670271611836001IRENE ROSE R ARCILLA                                    20500
A0101401670271611836001ERNEST LAUREL B ARCILLA OR                              10502
A0101401670271611836001IRENE ROSE R ARCILLA                                    20500
A0101406620273038576001VENTURE 11 FOODS EXCHANGE                                0501
B0101406620000004595735E11 VENTURES INC.                                        1601
B0101406620273460663001PREMIUMSOLE INTERNATIONAL CORPORATION                    1608
A0101406620273575453002**********                                              10501
A0101406620273575453002**********                                              20500
A0101408660274539990001BELTRAN, EDGARDO MAR D. OR                              10501
A0101408660274539990001BELTRAN, MARIA C                                        20500
B0101400570281027403001ITALIT CONSTRUCTION & DEVELOPMENT CORP.                  1602
A0101400570281563751001ANNABELLE R. BORROMEO OR                                10502
A0101400570281563751001ANDRES D. BORROM                                        20500
A0101411240000011511503ROLDAN, REX ESPANTO                                      0501
A0501400200000005751760SISON, JESUS BENITO PELAEZ                               0502
A2601400270000009896424GALGALAN, EDGAR TAPURO                                   0503
B2001400290315044204001ACEBANK CREDIT, INC.                                     1601
B0101405650000000772721PREMIERE COMMUNITY PARTNERS, INC.                        1610
A0101405650000000525820CHAM, DBU AQUAFAIRY PURIFIED                            10501
A0101405650000000525820WATER STATION                                           20500
B0101405650000005381886SMS CEBU, INC.                                           1615
A0101402510341081001001BALHAG, RAUL ESTOLE OR BALHAG,                          10501
A0101402510341081001001ROSALIE SANTOS                                          20500
A0201400890376080642001GALANG, LORLIE PACURIBOT OR                             10505
A0201400890376080642001GALANG, GLENN AN                                        20500
A0201401020000000056415SORELA, DBU M.P. SORELA CONSTRU                          0501
A0101402930000010657942CACDAC, MA. RIVINA ALDAY                                 0501
A0101402930381423656004MADELINE ZIALCITA-VILLAPANDO                             0501
B0101408790000010384539GLOBAL GOLDGOAL INC.                                     1602
A0101408790000000931093KAW, CHRISTIAN ALLEN CHEN                                0501
A0101408790383551241001PEREZ IV, FRANCISCO B. OR                               10501
A0101408790383551241001PEREZ, MARIVIC S                                        20500
A0101408400000001952718CUTANDA, LYNMOR ARIOLA                                   0501
A0101408400394039740001KAINAN SA STAFFHOUSE                                     0508
A0101408400000001981688REGALADO JR., ARTURO BENESISTO                           0503
A0101408950000002255409LIM, EDNA LAPUZ OR                                      10502
A0101408950000002255409LIM, ALVIN CHE                                          20500
A0301400820000004073374TUBLE, DESIREE                                           0501
A1201400150000006253772TAOPO JR., NILO CLAPIS                                   0503
A5101400100000010371201JUMAWID, ARCELI MAURO                                    0501
B0101412760000002068093M.P. REG STRUCTURAL SYSTEM CORPORAT                      1605
A0501400170481602456001RAMIREZ, FRANCIS NILOOBAN                                0501
A1901400320000009104318BERBERABE, DANILO MARCAIDA                               0502
A1901400160491326737002TEODORA B BORBON OR                                     10502
A1901400160491326737002MA THERESA B CHU                                        20500
A1401400110000003988996CARCIDO, JEFFERSON CU                                    0501
B0701400260000007895810PRINCETON ENTERPRISES INCORPORATED                       1604
A0101403580511031783001ROYAL BARGE TRAVEL AND TOURS                             0510
A0101405940000011512740SAVERON, GRACE CATHERINE GONZAL                          0501
B0101405940512005328001MAY BLOSSOM CAR RENTAL, INC.                             1602
A0101408530000010580184DOMINGO, MARI ANGELINE PICAR                             0501
A0101408530000007981722CAHANDING, ROLAND RYAN VIDAL                             0501
B0101403610531009928002LAMP METALS INDUSTRIES                                   1602
B0101403610531035657001A1 STEELFORMER CORP.                                     1602
B0101404130601506100005LINK RI LOGISTICS INC.                                   1602
A0101407720000004664791ROBLES, JOHN RUSSEL CUETO                                0501
B0101407720602006018001HEALTH LAB AND MEDICAL SERVICES, INC.                    1610
A0101407720602341731001************                                             0502
A0101407720602396245001******                                                   0503
A0101407690000000587895MANLIMOS, AMALYN DELANI                                  0501
B0101407690652008210001AERO COOL SYSTEM                                         1602
B0101407690652042938001SIGNWOOD HARDWARE & LUMBER SUPPLY                        1603
A0101407690000000913600MARQUI AUTO SUPPLY                                       0502
A0101407690652520766012CLARITA BUENAVENTE - DEALERS OF                         10503
A0101407690652520766012SHOECAT INC.                                            20500
B0101413440000001085610SEASTEMAS INTERNATIONAL, INC.                            1605
A0101413440000003298173MACANAS, MA. LINDA ADVINCULA                             0504
A0101413570000005867372ULGADO JR., NORBERTO NOSA                                0503
A0101414120000005252864MVG HARDWARE                                             0502
A0101414120000001427510ENRIQUEZ JR., ALBERTO DE JOYA                            0501
A1301400210000000540936JOCELYN S APOSTOL                                        0502
A1301400340000002283923**********                                               0502
A0101408240711323526001SHIRLEY A. MANESE OR MARIA                              10501
A0101408240711323526001ELENA M. ISAAC                                          20500
A2801400230000005253281EMETERIO, EVELYN PANCHO                                  0501
A4101400260000003679909GOVMEDIC TRADING                                         0501
A4101400260000000377479PETALCO, BABELITO V. OR                                 10501
A4101400260000000377479PETALCO, VIRGILI                                        20500
A4101400390000006302585MEMBERS OF NATASHA, SHOECAT INC                          0501
A0101412340000004543635ADELA FAYE L. FLORES                                     0501
A0101412340000003345060KIM ALDOUS T. PALABAY                                    0501
A0101404840000010969443SANTOS, KEVIN VERZOSA                                    0501
A0101404840851478374193JONALYN BACALANGCO                                       0501
B0101404840851490100001ACTIVE-CONCISE TECH. INC.                                1603
A0101406750000000173000SUMANG, WILFREDO SALONGA                                 0502
A0101406750000008644082MISOLA, ERIC REYES                                       0501
A0101406750852380584002RABE, LEAH                                               0501
A0601400230891340091001BAUTISTA, LUZ B. OR                                     10501
A0601400230891340091001BAUTISTA, DANILO                                        20500
