B3001400130230043293001L.M. TING FOODILICIOUS CORPORATION                       1605
A1101400120313478374077ROMO, ALILY P.                                           0502
A4101400420000000120710APOSTOL, MICHAEL DE VERA                                 0501
A4101400420814085521001DEL ROSARIO, JAVIER GUIMAN                               0501
A4101400420814422280001DELGADO, ELVIRA CARIENENA                                0501
A0101400860011235553001**********                                               0502
B0101401250021016688001ST. MARY'S ACADEMY-PASAY CITY, INC.                      1604
B01014001500610108470016776 AYALA AVE. CONDOMINIUM CORP.                        1605
A0101400150061227291002**********                                               0501
A0101400150061315349045BETTINA JOY L. SANGA                                     0502
B0101410850000001229709POWERFREIGHT LOGISTICS SERVICES, INC.                    1607
B0101410850000001229732POWERFREIGHT LOGISTICS SERVICES, INC.                    1607
A0101410850000003102147RAYMUNDO, MARK ANTHONY JT DBU                           10502
A0101410850000003102147MLR TRANSPORT SERVICES                                  20500
A0101410850109055934001ANDAL, MARK GREGORY JT DBU                              10502
A0101410850109055934001RUMKOR TRUCKING                                         20500
B0101410850000001229852SWM SHIPMANAGEMENT INC.                                  1605
A0101400730111008318001ANIFEL MANAGEMENT AND GENERAL                            0506
A0101400730111393421005DAVI N. DELOS SANTOS                                     0503
B0101413150000000038651******                                                   1603
A0101412630000000045292***************                                          0501
B0101400440161027073001SILVER ARROW STOCK FARM, INC.                            1601
A0101400440161478374189CORAZON C. BOLA                                          0501
A0101400440161478374198EUFRONIA I. BERGONIA                                     0501
A0101400440161520766193LEILANIE P. LOCSIN                                       0501
A0101400440161525001006EUFELYN J. DOYDORA                                       0501
A0101400440161525001105VIRGIE B. CRUZ                                           0501
B0101401090171036158001AIRBORNE MAINTENANCE AND ALLIED                         11602
B0101401090171036158001SERVICES INC.                                           21600
A0101401090171196008001JESUS OR AMELIA POBLETE                                  0502
B3101400160221031027001ALLIED DOCTORS FOOD RESOURCES, INC.                      1605
B3101400160221284706001INSTITUTE FOR FOUNDATIONAL                              11605
B3101400160221284706001LEARNING, INC.                                          21600
A3101400450223612365001ARAGO, ANDREW HIZON RODA                                 0503
A1001400190231520766086ABANG, ELVIE EGDAMIN                                     0501
B1001400480000004097143NERI, MAY LOIS WABE DBU MOMMY INDAY                      1601
A1901400290261087553001MARIA JEOFFRIZA SARMIENTO DIAZ                          10503
A1901400290261087553001OR RUBYRONA D LLAVE                                     20500
A0101408660000002264893CHAN, CHERYL JOY ANG                                     0502
A0101410980275771013001**********                                               0502
A0101400570281544571001CRUZ, BORIS CAMPOS                                       0501
A2601400270000000561693ROMARICK G. TABUCOL                                      0501
A0801400160311478374037PDNA T. CARIAGA                                          0502
B1101400120000000652442GICABAO, KATHLEEN JOY NG OR                             11603
B1101400120000000652442GICABAO, BONGKOK                                        21600
B6601400120314042361001AGRICULTURAL DEVELOPMENT WORKERS & EMP.                 11603
B6601400120314042361001MULTI-PURPOSE                                           21600
A2001400290000002319531SANOY, EZELBETHA ABLON OR                               10502
A2001400290000002319531SANOY, REY CECIL                                        20500
B0101402350321029733001PAWNCARE SERVICES INC.                                   1610
A0101405650000005222519LUMBAN, ANGELIE LUMBRES                                  0501
A0101405650322172897001ORTILLO, JOEL OR                                        10503
A0101405650322172897001ORTILLO, JASMIN                                         20500
A0201400920000000047976MEMBERS OF NATASHA SHOECAT INC                          10501
A0201400920000000047976TUBIN, ELVIRA BO                                        20500
B0201400890376058694001ALLWHEEL AUTOMOTIVE INC.                                 1601
B0201400890376058698001AUTO GLOBAL INC.                                         1601
A0201401020000002250562URGELLO, ALVIN SACEDON                                   0501
A0101405490000004353075********                                                 0502
B0101408400000003120521GILIGAN'S ISLAND BAGUIO, INC.                            1602
A0101408400394484523001CUYA, DENNIS PATILLA                                     0501
A0101408950396564553001NEIL STEPHEN ANGELO A. TORRES                            0502
A1201400150421301842002SALIM, WAHID MOHAMMED                                    0501
B0101403030000000531406**********                                               1603
A0101403320000001646631SANTIAGO, LEILANI SANTIAGO                               0502
B0101403320471039191001MAR-V-RITZ TRADING - BRANCH                              1603
B0101403320000001647150ARKTEK SYSTEM BUILDERS INC.                              1602
A0101403320471567177001JOCELYN P. TIGLAO                                        0501
A3801400170000002302761NANCY M VINAS                                            0502
A1901400160000003198685FRANCIS LUCENA OR SHIELA COMIA                          10501
A1901400160000003198685OR ARNEL HIBO                                           20500
A1901400160491641033001ULYSSES M CHAVEZ OR                                     10502
A1901400160491641033001LETICIA M CHAVEZ                                        20500
A1401400110492367614001DE MESA, CECILDA LAGAR JT                                0502
A1601400170000000421149EVELYN B. DELVO                                          0502
A0101403450521012086001**********                                               0502
A0101404000000001186807JAPITANA JR., ANGELITO RAMADA                            0501
A0101404000551166600005EVELYN SORONGON                                          0501
A0101404000000001186994SANTOS, MARIDEL DASMARINAS                               0501
A2201400250561083413001SUSA NINA A. SAPAD                                       0501
A0101407720000003886966ONGUDA, JOCELYN BARBA                                    0501
A0101407720000000245203*********                                                0501
B0101411530000000013630THE BODY SPA AND WAXING LOUNGE CORP                      1601
A0101413570000001069443*************                                            0501
B0101406590662045778001KAUNLARAN GROUP OF COMPANIES INC.                        1602
B0101411950680821100608**********                                               2002
B1301400340000000982010COLOR MY WORLD, INCORPORATED                             1601
A1301400340683361105001DELA CRUZ, ESTER SANTIAGO                                0501
B0101408240000000832757RARE GLOBAL FOOD TRADING CORP.                           1602
A0101408240711373874001MARILYN P. ALTAREJOS JT                                  0502
A0101408240711465361003RAZON, CONCHITA OR                                      10503
A0101408240711465361003DEL ROSARIO, TERESA                                     20500
A0101408240711699904001LO JR., ROGELIO AMBE                                     0501
B2801400100712025730002YESE TRADING CORP.                                       1602
A2801400100712478374001BERNARD R. CORPUS                                        0503
A4101400390000000500530ARCILLA, CAESYLYNNE FORTUNO                              0503
A4101400390813723742001SANTIAGO, EMILY SANTOS                                   0503
A4101400420000000710143GERONDA, RIZALDY DBU HRDG                               10501
A4101400420000000710143TIRE RECAPPING S                                        20500
A4101400420814478374146ZETA B. CLIDORO                                          0501
A4101400420000000120776JARO, JEREMIAH PABILLION                                 0502
A4101400420814768923001VIRTUZ, SALVADOR ABAQUITA OR                            10501
A4101400420814768923001VIRTUZ, REBECCA                                         20500
A0101412340000003344163JULIE ANN S. LEONG                                       0501
A0101404840851520766163JOCELYN ANONUEVO                                         0501
A0101406750852182713001CATALYST MEDICAL SUPPLY                                  0503
A0101406750852445042001BATHAN, ISAGANI GASALATAN OR                            10501
A0101406750852445042001BATHAN, MARIA PE                                        20500
A0101406750852583609001ECHANO, ANNIE MANTES                                     0501
