B0101401090171821100608**********                                               2004
B0101400730111008382002JEMARA INTERNATIONAL FREIGHT                            11602
B0101400730111008382002SERVICES INC                                            21600
A0101412500000009637090ABARABAR, TERESITA LAURIO                                0501
A0101408370382391439001EDREN S. MONTERDE OR                                    10502
A0101408370382391439001LORNA O. MONTERDE                                       20500
A0101408370000009296546ROXAS, MANUEL FRANCISCO TANADA                           0503
A0101408400000005286320AMEROL, ROSLINA MAROHOMSALIC                             0504
A0101407720602397568001CLOMA, ROSARIO MENDOZA                                   0502
A0101400860000002333580**********                                               0503
A0101400860011575863001**********                                               0501
A0101401250021178973001VICENTE S. BERNARDO OR                                  10510
A0101401250021178973001ARACELI C. BERNARDO                                     20500
A0101401250021287294002MARIETTA CHAVEZ ONOFRE                                   0501
A0101401250021758900001******                                                   0501
A0101400150000001422622BAJAR, ROY BENEDICT CRUCILLO                             0502
B0101400150061024429001BRONZEOAK PHILIPPINES INC.                               1603
A0101400150061365731001BASILISA R. ROBEA                                        0505
A0101400150000000052980HERNANDEZ, BRENDA SOLIDUM                                0502
A0601400360000000978856CAPAN, LITO ROSE SANTIAGO                                0501
A0601400520000005001301MANUCUM, RIZALITO TANGLAO  OR                           10501
A0601400520000005001301MANUCUM, MAURA PALO                                     20500
A0101400730111334903033KERWYN D. GARCIA                                         0501
A0101400730000000112676PEREZ, EDITHA ORTIZ                                      0501
A0101401830141473879002MALINAO, EVELYN DE GUZMAN                                0501
A0101407270000009655194GARCIA, DANIELLE CLAUDINE ORTEG                         10501
A0101407270000009655194OR CRAWFORD, BILLY JOE                                  20500
B0101407270162050140003NORTHPOINT, INC.                                         1605
B0101407270162052125002DELISCENTS, INC.                                         1605
B0101407270162053928002QUANTUS BUSINESS SERVICES, INC.                          1610
A0101401090171196008001JESUS OR AMELIA POBLETE                                  0505
A0101401090171200386001DR. JULIE TAN LI-YU                                      0505
A0101401090171349823001LEAH ANN S. SARMIENTO                                    0501
B0101401090171821200608**********                                               2001
A0301400530000008044284NEO, MARY LORRAINE LIAO                                  0502
A0301400530000003573493MORENO, ISAIAS LOYOLA                                    0503
A0301400950000005707068SON, PATRICK JAMES BERNAL                                0501
A0301400950000005707080*************                                            0501
B0301400950000002115651ZILVERBAND, INC.                                         1602
A0301400950000002115231**********                                               0501
A0101401380000000106505SY, WILFREDO O. DBU TITO ROM                            10503
A0101401380000000106505SA CAPITOL RESTAURANT                                   20500
A0101401380201182816002MAYORES, ENERIO A.                                       0505
A0101410720653374377001NERI, ROCELIA ROMAN                                      0501
A0101410720653452116001VIRGILIO R. BACQUEL JR.                                  0501
A0101412500000002304763RIOS, NINNO CORONEL                                      0501
A3001400130230478374241PAGAPONG, NEN KENNETH D.                                 0501
A1001400190231478374067DAGANATO, NICANORA BALOS                                 0501
A1001400190231478374170ENIOLA, MELODIA                                          0501
A1001400190231520766036ONIPA, JANE ROSE P                                       0501
A1001400190231520766103BALCUEVA, CESAR S.                                       0501
A1001400190000001057603EDA C. CAWALING                                          0501
A1001400190000001057625REPUNO, REBECCA                                          0501
A1001400350000000922292OH, EDWARD YU                                            0501
A1001400350233675969001INESIN, LYDIA TRINIDAD                                   0502
A0101401670000008015381OBEN, MARIA MARGARITA SUACO                              0502
A0101406460272529147001BIACAN, MARIA TERESA LAYGO                               0501
B0101406620273036393001REYES, REYES & RIVERA-LUMIBAO LAW                       11602
B0101406620273036393001OFFICES                                                 21600
B0101406620000000194143MATCH CONTRACT FURNITURE, INC.                           1602
A0101406620273547486001BACANI, SENEN CARLOS                                     0502
B0101400570281024862001FILIPINO SOCIETY OF COMPOSERS, AUTHORS &                11615
B0101400570281024862001PUBLISHERS, INC.                                        21600
A0101400570281508723001RAMOS, ROBERTO VILLARAMA                                 0502
B0101411240283046060001GRAND STAR GENERAL CONTRACTOR                            1604
B0101405650322033184002ASIA PLUS CORPORATION                                    1610
A0101405650322076859001LUGTU, RAUL L. OR                                       10502
A0101405650322076859001LUGTU, EMELINE P                                        20500
B0101402510341063891002BMS JANITORIAL AND ALLIED SERVICES                       1601
A0101402060351021408001V.R. BENITO ARCHITECTURAL SERVI                          0505
A0101402060351588151001CASAPAO, ELIZABETH ESLIT                                10502
A0101402060351588151001CASAPAO, MANUEL                                         20500
B0201400760374055989001GOLDEN GREAT PEAK ENGLISH INC.                           1602
A0201400760374695307001ARRIOLA, EDISON JOHN AURELLADO                           0503
A0201400890000003163711ESPINA, JOSE AARON ROSKA                                 0501
A0101408370382416284001DR. BERNARDITA O. POLICARPIO OR                         10501
A0101408370382416284001DR. REUBEN D. POLICARPIO                                20500
A0101408370382502182001CHRISTOPHER OLIVER NAZAL OR                             10501
A0101408370382502182001MARILES HERNANDEZ-NAZAL                                 20500
B0101408790000002659129SUNFISH ASIA ENERGY SOLUTIONS INC.                       1603
A0101408790000000579244FABIAN, JESUS DIOSDADO LAGAZO                            0504
A0101402770391473263001LEONARDO, DANILO OR                                     10501
A0101402770391473263001LEONARDO, MA. CONCHITA                                  20500
B0101405490392006536003GEMINI INTEGRATED SERVICES, INC.                         1605
A0101408400000000960430DITUCALAN, JAMILA FAISAL                                 0501
A0101408400000005286433RAFER, JANE NAMORO                                       0501
A0101408400394472125002MELOCOTON, MA. LORRAINE OR                              10502
A0101408400394472125002ALRAFAEI, EBRAHIM                                       20500
A0101408950396563503001DR. SUE- ANN RIVERA LOCNEN                               0502
A0101409180000005326712DELA CRUZ, DENNIS TABUJARA                               0503
B0101409210000002783282NUTRIGENICS ASIA INC.                                    1601
B0101409210398703674001J.LEGACY BUILDERS CORPORATION                            1604
A0101412210000000031392EMMANUEL L. SAMSON                                       0502
A0901400220000000012324SPECIALIST MOTORCYCLE PARTS &                           10505
A0901400220000000012324ACCESSORIES, INC.                                       20500
A0101403030441239186001**********                                               0505
B0101412890000001765302SOFTWALK MANUFACTURING, INC.                             1610
B0101403320471024815001GOLDRICH FOODS CORPORATION                               1603
B0101403320471063948001POBLACION BINAN REALTY, INC.                             1601
A0101403320471442993001RUBY-MAE R. BOSTRE                                       0501
B0501400170481013150001MEDICAL CITY DAGUPAN, INC.                               1603
A1901400160491416981001JOEL C ATIENZA                                           0501
B1401400110492065190001FIRST QUEZON REALTY CO., INC.                            1601
A1401400110492620230001DELOS SANTOS, ENRICO PEREZ                               0503
B0701400260495037805002PRINCETON ENTERPRISES                                    1602
B0701400260000000041130TREVOR ETON REALTY CORPORATION                           1602
B0101407430503017546001ALL-TO-CUSTOMS BROKERAGE & FREIGHT                      11605
B0101407430503017546001CORPORATION                                             21600
B0101403580000000214662MEC - SUNTRUST PARKVIEW TOWER 1 & 2                      1610
A0101403580511319991001KATHERINE PANTOJA DEL ROSARIO                            0501
B0101403580511575114002TIGER 22 MEDIA CORPORATION                               1610
B0101405940512646550001COGNITECH CLINICAL RESEARCH INC.                         1601
A0101408110000001823810REMOLACIO, FRANCIS LILIAN DBU                           10503
A0101408110000001823810BLUE SKY TRANSPORT                                      20500
A0101408530000008656431ABROGENA, JAANA LOREEN F.                                0501
B0101403450521011882004PAN PACIFIC TRAVEL CORPORATION                           1603
B0101403450521020358001**********                                               1602
A0101404000000003706410AILEEN LELANIE S CO                                      0501
B0101404000551700890001HEADLAND ROAD CAPITAL INC.                               1602
A2201400250000006736252EDC TYREQUEST  MARKETING                                 0502
A2201400250561478374060MARIAN S. BANAAG                                        10501
A2201400250561478374060MEMBERS OF NATASHA                                      20500
A0101404130000002121317IBUNA, MARY JEAN ABIERA                                  0501
A0101407720602313008001LEE, BERNADETTE D.                                       0503
B0101404260000004781335LIM, HERMAN DONATO DBU ONEFULL TRADING                   1604
A0101404260611150840002WILLY OR ELIZABETH CHING                                 0501
A0101404260611478374126MA. GLENDA C. TUPAS                                      0501
A0101409890000000209163CAMBRONERO, ELENITA APO                                  0502
B0101409890000000049169WQ CONSTRUCTION &TRADING CORP.                           1601
A0101409890000000437449**********                                               0501
B0101411950680821100608**********                                               2002
A1301400210000007669289GONZALES, MARK OLIVER SANTIAGO                           0503
A1301400210682478374051IRMA S CRUZ                                              0501
B0101408240711028488001INTAS DESTINATION MANAGEMENT INC.                        1605
A0101408240711643338001ARCAYA, MICHELLE GRASPARIL                               0501
A4101400260000000002273BERNARD MOJICA AND MARIA CRISTI                          0550
A4101400260812035863001GREAT CAVITENO TRADING                                   0502
A4101400390000001732441RICAFRENTE, MARILYN DBU                                 10501
A4101400390000001732441RICAFRENTE SMOKE                                        20500
A4101400390813386208001FAUSTINO, MARY LIGAYA OR                                10502
A4101400390813386208001FAUSTINO JR., DO                                        20500
A0101412340000007305564ELNA O. GALAROZA                                         0502
A0101404840851481664029VIRGILIO MONTANO                                         0502
B0101406750852023612001LAS PINAS CITY MEDICAL CENTER, INC.                      1610
A0101406750852478374098JOCELYN ARBOSO                                           0501
B0601400230000000029729JARE TRADING CORPORATION                                 1605
