A0101412920000005354616PAUNIL, MARLYN GRACE BEA                                 0501
B0101412920000000276562ALPHA STONEWORKS ENTERPRISES                             1603
A0101400150061230098001SALVADOR R. SERRANO                                      0501
A0301400530000001009943PANTUA, JERSON R.                                        0502
A0301400530000005300361TIMBOL, MARILOU SUBALDO                                  0502
A0201400920000000991755SHARPE, JOY LACANIENTA                                   0501
B0201400920000000007952GDS SECURITY AND DETECTIVE AGENCY                        1602
A0101406590662207412001PACHECO, JOSEFINA D.                                     0501
A0101400860011443455002**********                                               0505
A0101400860011493899001**********                                               0510
A0101400150000006004273TORRES, OLIVIA DELA CRUZ                                 0502
A0101400150000010843262MONJUSHIRO, YUTAKA NIL                                   0501
A0101400150061226989001EDUARDO E. CAEG OR                                      10501
A0101400150061226989001BESSIE C. CAEG                                          20500
A0101400150061227649001BELINDA GUEVARRA                                         0502
A0101400150061389261001AYSON, JOEL RAYMOND REDULA                               0502
A0601400520000005943513BUCO, DONALD DELA PENA                                   0502
B0601400520000005943702IMPACT BALIBAGO ARTS AND CRAFTS                          1602
A0101414090000006211461BENEDICTO, LIZA COJANO                                   0501
A0101400730111520766068MONILLA, MARIEL CAMACHO                                  0501
A0101400730111565363001TIU, DAVID TERENCE YAO                                   0501
A0101406040112094173001********                                                 0501
A0101401830000001282199ABAYA, MIG DBU MULTI-OPTION                             10502
A0101401830000001282199TRADING                                                 20500
B7201400170000003773477RONALD O. DIAZ OR LORRAINE C. DIAZ                       1602
A7201400170000010822049PAMERON, JANE HAZEL CABASAG                              0501
A5001400170000000214002REQUINA, ORWINO ATAY                                     0501
A5001400170000000214020ARNOCO, MARIETA DIAMANTE                                 0502
A0101400440161520766062ENGELINE N. MACAILING                                    0501
A0101407270162333006016MA. CIELO VILLEGAS                                       0501
A0101401090171196062001DRS. GIL OR ZAIDA GAMILLA                                0506
A0101401090171399403001JOHN JOSEPH T. FERNANDEZ                                 0502
A0301400530000003087381RAMISCAL, ASTERIO MERILLANA                              0505
A0301400530000005300190EDANO, ALVIC GANZON                                      0501
B0301400530193042539001******** *********                                       1620
A0301400530193702921168SELGAS, ROBERT U. OR                                    10501
A0301400530193702921168SELGAS, ELVIRA R                                        20500
B0301400790000000435738NEW GREAT LUMBER AND CONSTRUCTION                       11601
B0301400790000000435738SUPPLY, INC.                                            21600
A0101410720653478374002ZENAIDA O. CARLOS                                        0501
A3101400160221222009001REYNALDO A. GEDORIA OR                                  10501
A3101400160221222009001MA. EVANGELINE O. GEDORIA                               20500
A3001400130000000668480URIARTE, JORIME JANE NGO                                 0502
B3001400130230048097001PENALOZA, VICTOR DBU UBIC BEARING AND                   11603
B3001400130230048097001SEALS DEPOT                                             21600
A3001400130230478374005NAVARRO, RUTH MINISTROS                                  0501
A1001400190000002170736MARABE, RIKKA LA VINA AND                               10505
A1001400190000002170736LA VINA, IRISH P                                        20500
B1001400350000002048404VELOX ENERGY PHILIPPINES CORPORATIO                      1601
B0101406460272020749001EASTGATE COMPUTER CORPORATION                            1601
A0101406620000004926201REQUILMAN, OLIVER CHAN                                   0502
A0101406620273366025003BOMBAY, RIA VILLANUEVA                                   0501
B0101406620273459504001SANOSIL PHILIPPINES INC.                                 1602
B0101408660000005990481KNIGHT HAWK SECURITY FORCE, INC.                         1602
A2601400270000009641727VERONICA C. TUBBAN                                       0502
A0101402350321038584002HEALTHY 8 WATER REFILLING                               10501
A0101402350321038584002STATION                                                 20500
B0101405650322043032001LEAN MANAGEMENT AND PEOPLE SOLUTION                      1601
A0101405650322150163001CASIBANG, NATALIA T.                                     0506
A0201400760000002047052TAJANLANGIT, DALISAY DALISAY                             0501
B0201400920000000007923AVANT TEACH INTERNATIONAL CORP.                          1610
A0201400920000002804480MIRANDA, SAMMY                                           0501
A0101402930000000053381DELA CRUZ, LOMER HOPE BEBOSO                             0501
A0101402930000010657760SANCHEZ, ROWENA SAN PEDRO OR                            10501
A0101402930000010657760ENRIQUEZ, VICTORINO USANA                               20500
B0101408790000002659163ACCRUE BUOYANT CORPORATION                               1601
A0101408790000005251230SI, HYLAND HAO                                           0503
A0101408790383797493001ONG, MARIO JOEL SAN JUAN                                 0501
A0101408400394067458001BAUTISTA, DENNIS ESCANDOR                                0501
A0101408400394067472002ABUAN, SHEILA MARIE MENDOZA                              0501
A0101408400394483376001IBRAHIM, ROHANIE BUBONG POTANO                           0503
A0101408400394508074001WEE, LEE HIONG TAN                                       0503
A0101408950000003171188DE CASTRO JR, MANUEL LEUTERIO                            0502
A0101409180000006375897DE VEGA, IRENE LIBUT                                     0510
B0101409180397046582001MENARCO PROPERTY MANAGEMENT AND DEV'T                   11603
B0101409180397046582001CORP.                                                   21600
B0101409180000000036644THE TABLE GROUP, INC.                                    1610
B0101409180000008122832REDSCOPE COMMUNICATIONS, INC.                            1602
A0101409180397681135001UICHICO, ERNESTO FLORO                                   0501
A5501400120000000265718JAVELOSA, TERESITA SEROFIA                               0501
B2401400180411056764001RD PAWNSHOP, INC. - GENSAN REGION                        1603
A0101406330472027958001A. ANOLIN ENTERPRISES                                    0502
A0101406330000000162490TARP INK ENTERPRISES                                     0502
A0101406330472350070001ARIEL R. RABE                                            0501
A0101406330472478374044ARMES SMITH B. ALVARADO                                  0501
B0501400170481015881001TOYOTA DAGUPAN INC.-2                                    1615
A0701400260000003259374**********                                               0501
A0101407430000004687469ALVIN B. BLANZA                                          0501
B0101407430000006027801LIGHT RAIL MANILA CORPORATION                            1604
A0101407430503478374009HAIDEE F. LIM                                            0501
B0101403580511037494001MAGENTE BPO CO. LTD.                                     1602
A0101403580511420184003MARIA CAROLINA S. MACASAET                               0520
A0101408530000010839024MERCADO, NATHANIEL CEPATO                                0501
A0101411790000010846052CAMERINO, CARLO MERCADO                                  0501
A0101411790000010729423BALIUAG, RITO BIMBO OR BALIUAG,                         10501
A0101411790000010729423MARY JOYCE                                              20500
A0101412050000008837276MAJOMETANO, BRIMEN SON PADILLA                           0501
A0101403610531219563001LACDAN, PABLITO OR                                      10502
A0101403610531219563001LACDAN, ZENAIDA                                         20500
A2201400250561342534003ROWENA B. FERRER                                        10501
A2201400250561342534003OR JENNIFER L. FERRER                                   20500
A0101407720602164307001GABRIEL G. GABRIEL M.D. OR                              10501
A0101407720602164307001CAROLINE C. GABRIEL                                     20500
A0101407720602397271001OZAETA, MA. RAMONA PABLO                                 0501
A0101407720602496503028MELVIN V. CHAN                                           0501
B0101413570000003580705ELAD CONSTRUCTION AND SUPPLY INC.                        1602
A0101413990000002962918CLAVERIA, RODOLFO MISUGAS                                0503
A1301400210000007669289GONZALES, MARK OLIVER SANTIAGO                           0503
B1301400500684037591001UPLIFT PHILIPPINES, INC.,                                1605
B1301400500000005963404PAGASA PHILIPPINES LENDING COMPANY INC.                  1605
B0101408240711059660001ST. JAMES THE GREAT PARISH                               1605
B2801400230000000008313STRICKLAND, LAILANI DBU L&L TROPICAL BAY                11601
B2801400230000000008313RESTAURANT JT                                           21600
A2801400230000001734709CUSTODIO, JAMEEL DBU JACUDIBI                           10503
A2801400230000001734709BUSINESS SOLUTIO                                        20500
A2801400230000005253281EMETERIO, EVELYN PANCHO                                  0501
A4101400390813478374046PAGDONSOLAN, ELMA T.                                     0501
B0101412340000005964112WME PHILS. CORP.                                         1605
A0101404840851046725019LETICIA QUINANOLA                                        0501
A0101404840000006364872CORTEZ, KRIS DBU KENZO AND KLOE                          0501
A0101406750852182653002WILSON, ERLINDA JOSON                                    0501
A0601400230000003638960DIZON, JOSE JUN G. DBU INTERTEC                          0501
