A1701400230000005694113ALBANO, BENJAMIN JOSEPH EUGENIO                          0501
B0101412050519061409001O.S.A. CLEAN AND COMFY LAUNDRY AND DRY                  11602
B0101412050519061409001CLEAN SERVICES                                          21600
A3401400280000002323451PETER RANDY G. DELA CRUZ OR                             10501
A3401400280000002323451CARINA C. DELA C                                        20500
A1401400110492221687001CABRIGA, BENILDA ESPEDIDO                                0503
B0101407720602026114001**********                                               1602
A2801400230000006792869PALAPAS, HELEN GRACE SAMONTE                             0501
A0101406750000006303533TORREJOS, ANA MARIE ESPINO                               0501
A0101406750000000172898MANAN, ABDUL RAKIM ELIAS                                 0501
B0101411370000000018124AIO FINANCE GROUP INC.                                   1601
B0101400150061015841002ENZIMA INTERNATIONAL, INC.                               1602
B0101400150061036528001ALTUS COMMUNICATIONS INC.                                1601
B0101400600071325133001**********                                               1602
A0101400600071534842002****************                                         0502
B0101419200093821100608**********                                               2002
B0101419200093821200608**********                                               2002
A0101400730111047618009CATHERINE C ESPINO                                       0501
A0101400730000001697174CATERON, NANCY SADIWA                                    0501
A0101401960121238730001PURIFICACION S. WALLMAN                                  0502
A0101413310000007762243ANTIPORDA, REMEDIOS CAGARA OR                           10501
A0101413310000007762243ANTIPORDA, SEVERINO O.                                  20500
B0101413310000001928823GEO MEDICAL CONTACT LENS INC.                            1602
A0101400440161186924001LETTY D. HAHN JT                                         0504
A0101400440161520766193LEILANIE P. LOCSIN                                       0501
B0101407270162040422001******                                                   1601
B0101407270162040845001RDJ INDUSTRIAL SUPPLY, INC.                              1603
A0101401090000008548078YU, SHERWIN TAN AND LAYGO, MARY                         10501
A0101401090000008548078JOCELYN AND YU, WINSTON                                 20500
A0101401090171200617001JOSE RICARTE OR                                         10502
A0101401090171200617001MARIZZA ORIGENES                                        20500
A0101401090171201680002RAFAEL P. BANTAYAN JR.                                   0502
A0101401090171283101002MA. CARLOTA B. DECENA                                    0501
A0101401090171463204001JERRYZALDY & SALLY TUGBO                                 0502
B0301400530193041601001GRANITE CREDIT CORPORATION                               1602
A0301400660194618862001TAJON, NONILO                                            0501
A0101412500000001147040****                                                     0501
B3101401550220821100608**********                                               2002
B3101401550220821200608**********                                               2002
A3101400160000004362903REYVELINDA E GUEVARRA                                    0502
A3101400450000003072539AZORES, NANILO CABELA OR                                10501
A3101400450000003072539SAHAGUN, ANGELITO PULUTAN                               20500
A3101400450000003739479PESIGAN, ROSALINA AND                                   10501
A3101400450000003739479PAPERA, ELENA                                           20500
A3101400450223223458004ALVERO, LEAH AURORA TOLENTINO                            0501
A3101400450000005355471CIGARAL, PEDRITO EXCONDE                                 0502
A3101400450223478374005DE LEON, MA. FE G.                                       0501
A3101400450223489008001SIO, MINNIE REGINA OR JOSELITO                           0501
A3101400450223612365001ARAGO, ANDREW HIZON RODA                                 0502
B3101401420228821100608**********                                               2002
B3101401420228821200608**********                                               2002
A1301400470252045619001GOLEM ENTERPRISES                                        0504
B1301400760000000007201CONSUMERREACH, INC.                                      1610
B1901400290261038035001LMI GROUP FOOD CO. LTD.                                  1605
B1901400290261046556001MEAT ADVANTAGE EXCHANGE INC.                             1620
A1901400290000006560090VIRGINIA S MACASAET OR                                  10501
A1901400290000006560090RICKY C MACASAET                                        20500
A1901400290261411419001TERESITA DIMAILIG PERCE                                  0502
A1901400290261432900001JULIUS PIO AFRICA RANA OR                               10501
A1901400290261432900001CHARMAINE DE GUZMAN RANA                                20500
B0101406460000001231714FUNPACK MARKETING                                        1601
A0101406620273285955001SANTOS, ROMMEL G. OR                                    10502
A0101406620273285955001SANTOS, VILMA T.                                        20500
A0101412470000002136107**********                                               0505
A0101400570281186576001DR. ROSEMARIE JEAN J. POBLETE                            0502
A0101400570281405383001JEZIEL P. MISSION                                        0503
A0101400570281491697001LAXAMANA, EFREN CORTEZ                                   0501
A0501400200292735444001OYAMAN, GENEVIVE ABANDO                                  0502
A2601400270000000561448NICK MARKETING                                           0501
B0801400160311014846001CITI APPLIANCE CORPORATION                               1612
A1101400120313478374096MAGLALANG, MARISA YADAWON                                0501
A3401400280000001723440EDUQUE, JESSIE ECARAN OR EDUQUE                         10502
A3401400280000001723440RUELYN CAPUNONG                                         20500
A2901400130000005961208HABAGAT, MELVIN MAGANTO                                  0502
A0101405650000000348903ESPERANZA F. BAYLON                                      0502
A0101402510000000200164EVELYN M. TOLENTINO                                      0505
A0101402510341063757001LKTC GENERAL MERCHANDISING                               0501
B0101402060351032851001MONARK EQUIPMENT CORPORATION                             1601
B0101402060351033204001ROYAL DAVAO DEVELOPMENT CORPORATION                      1602
A0101402060351043801001EMICOR MARKETING                                         0501
A0201400920000002804480MIRANDA, SAMMY                                           0501
A0101408370382336346001DR. MA. FAIDA R. REYES                                   0502
A0101408370382356042001JOSTELLA D. LOH OR                                      10504
A0101408370382356042001WINSTON C.N. LOH                                        20500
A0101408370382416284001DR. BERNARDITA O. POLICARPIO OR                         10501
A0101408370382416284001DR. REUBEN D. POLICARPIO                                20500
A0101405490000000232540JENNET D. RECALDE                                        0502
A0101405490000003633178NADIYA W. STAMBOEL                                       0501
A0101408400394431804002CATABIAN, RACHEL CACHUELA OR                            10501
A0101408400394431804002CATABIAN, RICO                                          20500
A0101409180000001237321VILLAMOR, ROWENA ODTUHAN                                 0501
A0101409210000007762630DAZA, EMELYN LIBAO                                       0501
A0301400820000004745882ABADIA, ROLANDO B.                                      10501
A0301400820000004745882DBU ROSELAND TRADELINK                                  20500
A2401400180000003949122RAMOS, RENE ANGELO FAMORCAN                              0503
B2401400180000000073670BRIGADA HEALTHLINE CORP.                                 1620
B2401400180000000019827CHONA U. CARIAGA FOODSHOPPE                              1603
B2401400180411058219001BRIGADA PHARMACY, INC.                                   1610
A0101412890000005945082AMIT, MARY ANN GOMEZ                                     0501
A0101410140000001939973CASTILLO, R DBU VRMJ MANPOWER S                          0502
A3801400170490793031001RUEL D QUINZON                                           0502
B1401400110000000034693LUCENA CITY PHARMA CORPORATION                           1601
A1401400110492220854002DIHIANSAN, SAMUEL OR DIHIANSAN,                         10501
A1401400110492220854002CHRISTINE                                               20500
A1401400110492788204001***************                                          0505
A1601400170494076289001MARIA JOVI B. RAYCO                                      0501
A0101407430000001028897JOVITO G. FERNANDEZ                                      0501
A0101405940512151522003********                                                 0501
A0101405940512522504001YU, JONATHAN MARC CHAM OR                               10502
A0101405940512522504001YU, HENRY                                               20500
A0101408530000002980512MENENDEZ, MA. PILAR URRA                                 0501
A0101408530000001268560GUILBERT P. SAMPEDRO                                     0503
B0101411400000006560983PMG INTEGRATED COMMUNICATIONS PHILI                      1605
A0101411790000006647738GLAZER, CHERRYL MORANO                                   0501
A0101411790518055764103CUNANAN, KATHYRINE MARIE                                10501
A0101411790518055764103CABISADA                                                20500
B0101412050519821100608**********                                               2005
A0101403450521238290001****                                                     0502
B0101403450521238946001**********                                               1601
A0101403450521526933001**********                                               0502
A2201400250000002337982DURIMAN, ERLINDA BALINGIT                                0502
B2201400250000007719897GARCIA MOM & KIDS CO.                                    1602
A0101410690000003027578ALVAREZ JR., ARIEL VILLA                                 0503
A0101410690600046558001RANDXELL'S DIGITAL PRINTING &                           10502
A0101410690600046558001PHOTOCOPY CENTER                                        20500
B0101404130601016662001PAYROLL SERVICE PROVIDERS, INC                           1603
A0101404130601595494088GO, ANTHONY LIM                                          0502
A0101407720000004658328GALLENERO, JENNETTE TOLEDO                               0502
A0101407720602161863003ROBERTO K. MACASAET OR                                  10502
A0101407720602161863003VIRGINIA M. RAFAEL                                      20500
A0101407720602166527002ALIPIO ABAD JR. OR ADORACION                            10510
A0101407720602166527002ABAD OR ANABELLE ABAD                                   20500
A0101407720602396902001DIVINAGRACIA, RUTH MARIE                                 0510
A0101407720602489773001MERCADER, MARY JOSEPH ABITRIA                            0501
A0101404260000001725639************                                             0502
A0101404260611312084001CHING KIN NAM OR ROSA CHING                              0502
A0101404260611337876002CHING, ROSA MATIAS                                       0503
A0101404260000001725355**********                                               0501
B0101409470632821100608**********                                               2001
A0101407690000005198143PREPOSE, GENESIS MARIE CAINDOY                           0501
A0101407690652034151001D' ABET JUNK SHOP                                        0501
A0101407690652093160001SABIANO, JOLLY PENAFLORIDA                               0503
A0101407690652609264005AUGUSTO S. DE JESUS OR                                  10502
A0101407690652609264005MILA S. DE JESUS                                        20500
A0101407690652698616001VELARDE, ARLENE PAROCHA                                  0501
A0101413440000002339573CABRERA, LEOTHENY ALBANO                                 0503
A0101413570656057648046GENALINE E.CRUZ                                          0502
A0101406590000000568758BAUCA, MYRA MEDRANO                                      0501
A0101410300000006278697DELAS ALAS, MARTINA EILEEN HERN                          0510
B1301400340683043242001INNOVA HOMES REALTY CORPORATION                          1601
B1701400230693043669001JKM INFINEON TECHNOLOGIES CORP.                          1602
B3201400190694821200608**********                                               2002
A2801400100712362318001SARTE, MAXIMO PAREDES                                    0501
A2801400230000005752387BALDEO, ROSA MARIA BUSTAMANTE                           10505
A2801400230000005752387OR MONTANO, GENEVIEVE                                   20500
A2801400230000000937480ROLDAN, RUTH MARIE ALBANO                                0501
B4101400260812024721001DORMBUILT, INC.                                          1603
A4101400260000006042940JIMENEZ, EDWIN MOREDO                                    0501
A4101400260000006043090SAN PEDRO, MA. ROSITA F.                                 0501
A4101400420814559384001RIBOT, NORMA GAJE                                        0501
A4101400420814572265012NAVIDA NORA G.                                           0501
A4101400550000004846904FERNANDEZ, HONIE VENUS ALMENDRA                          0503
A0101412340000003564470MARIVIC A. NARRA                                         0501
A0101404840000005820457QUINIANO, SAMUEL CELAJE                                  0502
A0101404840851520766008ERLINDA G. MATOCINOS                                     0505
A0101406750000004642131ABION, VICTOR RODRIGUEZ                                  0501
B0101405070861008408001CLINICOMED                                               1605
B0101415640012102000014**********                                               2003
B0101415640920212000022**********                                               2001
