B0101406750852821100608**********                                               2005
A1101400120000000652351YAO, RONALD PHILIP GO                                    0501
B0101408530516032240001BEL-AIR VILLAGE ASSOCIATION, INC.                        1602
B0101400150061228576001KZPC HOLDINGS, INC.                                      1601
A0101400150061514440001SACLAYAN, MYRNA BAUTISTA                                 0501
A0101407720602161917001GOYLOS, LORENA CALVO                                     0501
A4101400420000000710052JUMAWAN, HARRY FAUSTORILLA                               0506
A4101400420814357382003REMULLA, GILDA VASQUEZ                                   0501
A4101400420000000120970REYAN S. LINCAY                                          0501
A4101400420814522913002GUELOS, PERSEUS PANES                                    0501
A4101400420814559300001FANER, FRANCIS MERCADO or                               10502
A4101400420814559300001FANER, HOPE FAMARIN                                     20500
A0101412340000003341244MARC LAWRENCE P. BOCALAN                                 0501
A0101412340000003908601GENERALISMA B. OBREGON                                   0501
A0101412340000004360132MAMANGUN, MARHIELLE DE VERA                              0501
A0101400860011298552007MA. TERESA N. MERCADER                                   0503
A0101400860011384021001**********                                               0503
A0101400860011529457001**********                                               0505
A0101400860011549648001**********                                               0505
A0101400860011743392001**********                                               0502
A0101401250000007121422LASALA, VILLY GRACE ACLA                                 0502
A0101401250021040561001WOODROSE HEALTHCARE MARKETING                           10505
A0101401250021040561001SERVICES                                                20500
A0101401250021468980001GENELYN C. CARTON                                        0501
B0101400150061011181001BIO MINERALS DEVELOPMENT CORP.                           1603
A0601400100000009323951SAMSON, ROBERTO TABAMO                                   0502
A0101410850000009034344MACANAYA, AMELIA BAGADIONG                               0501
A0101410850000009159628MENDOZA, LAWRENCE LEE                                    0501
A0101410850000003503482CANILLAS, MARTIN LAPPAY DBU                             10502
A0101410850000003503482MARCCHARM INDUSTRIAL                                    20500
A0101412630000000045350ENRIQUE, MARY JANE BOLISAY                               0501
A7201400170000003774367MEJOS, ANIEVER ANTEGA                                    0501
A7201400170000007185671**********                                               0502
A0101400440000003671692DAISY D. JACOB OR BALLESTEROS,                          10503
A0101400440000003671692AGNES OR GUANZON                                        20500
A0101400440161478374129HAZEL R. SALATAN                                         0502
A0101407270000006265329DASWANI, MEENA T.                                        0501
A0101407270000009529502EQUIPAJE, ARON GINO ISIP                                 0501
A0101407270162474002002GELACIA M. DALOG                                         0503
A0101407270000003253927FADUL, MARXIE MAOLEN FORLALES                            0501
B0101401090000000210482BLUMEX PLUS CREDIT INVESTOR INC.                         1605
A0101401090171196097001HERNANDO OR LEONCIA OLONAN OR                           10502
A0101401090171196097001BIANCA NIKKOLA OLONAN                                   20500
A0101401090171322573001DR. PORSHIA COMES-NATIVIDAD                              0501
A0101401090171491755001OLIVIA C. GO                                             0502
A0301400530000000066124LICAYAN, PRINCE LLOYD M. OR                             10502
A0301400530000000066124LICAYAN, ZENAIDA                                        20500
B0301400660194071888168SABIDO ENTERPRISES INC.                                  1601
A0301400660194734141001ALCEBAR, JONATHAN PANTINOPLE                             0504
A0301400790000008015096TILOS, MARCELINO DBU NOYNOY                             10501
A0301400790000008015096MOTORCYCLE PARTS                                        20500
A0301400950000000566683CARISSA ANNE C. DELOS SANTOS                             0501
B0301400950196821100608**********                                               2004
B0101413020000000038388ASISI SYSTEM CORP.                                       1603
A0101410720000001602113PALAD, L DBU E.L. PALAD                                 10502
A0101410720000001602113CONTRUCTION                                             20500
A0101410720000001602302******                                                   0501
B3101400870225061853001RAIDAN TRADING & CONSTRUCTION, INC.                      1605
A3101400870000002327982MAGTALAS, ENGELBERT ALINSOD                              0501
A3001400130000005708501SOLIMA, ELEUTERIO MORIAL                                 0501
A3001400130000008915982LAGURIN, LEIZA VILLANUEVA                                0505
B3001400130000006004717BAKERS ENTERPRISES                                       1602
B3001400130230064445001GOLDEN SEACRAFT MARINE CORPORATION                       1605
A3001400130230478374238PONO, DARWIN E.                                          0501
A3001400130230478374239ATO, AIREN BERNADEZ                                      0501
A1001400190000005709220PANANDIGAN, MITCHELLE BACUNATA                           0501
A1001400350000000017843SIA, BENINO S. OR                                       10501
A1001400350000000017843SIA, MARY JEAN V                                        20500
A1001400350000007762538HERNANDEZ, HIYASMIN TAYLO                                0501
A1001400480000000133337TUDTUD, NELSON ATAMOSA                                   0501
B1001400480000004097234ONAHON, DANIEL BARTH V DBU GREAT FIRST                  11601
B1001400480000004097234TRAVEL AND TOURS                                        21600
A1301400470000000061463DEUS, MARIA ELNORA DE GUZMAN                            10505
A1301400470000000061463OR TAGO, ANA LIZA VELARDE                               20500
A1301400470000003270419**********                                               0501
B0101400570281038754001ZENSHO JAPANESE RESTAURANT AND SUSHI                    11605
B0101400570281038754001BAR                                                     21600
A0101400570281388539039ROSAURO E. MANUEL                                        0501
A0101400570281493863001RAYMOND VINCENT P. JURILLA, M.D                          0501
A0501400200000006445149PALMA, FRIYA BASADA                                      0502
B0501400200292065366001PHILIPPINE DENTAL ASSOCIATION-PANGASINAN                11601
B0501400200292065366001CHAPTER                                                 21600
B1101400120313036439002ACME BUILDERS CORPORATION                                1605
B1101400120000006186832THE REAL ALTERNATIVE INVESTMENT MULTIPUR                11602
B1101400120000006186832POSE COOPERATIVE                                        21600
B1101400120000000652880YAO, ANTHONY ROBERTSON GO AND YAO, MARK                 11603
B1101400120000000652880ALAIN GO                                                21600
B6601400120314612844001MARTINEZ, ANGELINE OR MANUEL OR ORTIZ,                  11605
B6601400120314612844001LEOVIGILDO                                              21600
A0101402350000005645172GARCIA, ELFLEDA MENDOZA                                  0502
A0101405650000008025227RIVERA JR., CONRADO SANTIAGO OR                         10502
A0101405650000008025227RIVERA, SALUD JIMENEZ                                   20500
A0101402510000009421461FERRER, RAQUEL ORUGA                                     0501
A0101402510341278752001HIPOLITO JR., LORENZO SANTOS                             0501
A0101402510341449825001AGUILAR, MANILYN CAPISPISAN                              0501
B0101408370000001991660FOURTH VALLE VERDE ASSOCIATION INC.                      1603
A0101408370382409914002ALONZAGA, JOEMILY VILLANUEVA                             0501
A0101408370382622435001JORGE C. GREGORIO OR                                    10503
A0101408370382622435001LISA CORAZON R.GREGORIO                                 20500
B0101408790000000599726KESTREL IMC CORP.                                        1605
A0101408790383797493001ONG, MARIO JOEL SAN JUAN                                 0501
A0101411660384047607001QUEEN'S LAIR HAIR CARE AND                              10510
A0101411660384047607001BEAUTY SALON                                            20500
A0101402770391187974003DEE PONA, DARWIN ANTIPOLO                                0501
A0101405490392170537002LORNA V. TUGADE                                          0502
A0101405490000006241943MINERVA V. VILLACORTA                                    0501
B0101408400000006813614GODALLE, FRANKIE SUS                                     1602
A0101408400394540946001SANGDAAN, KATHLEENE ROSE CONDAT                          0502
B0101409180000000036644THE TABLE GROUP, INC.                                    1610
A0101412210000009551173YMATA, RYAN CONSULTA                                     0501
A0101412210000009552412CERIALES, ALMEETRA                                       0501
A0301400820000001185780RUFEROS, ROY KENNETH OR                                 10501
A0301400820000001185780AREVALO, MICHELLE KAY                                   20500
A0301400820000002271956COMAINGKING, JESUS B.                                    0501
B5501400120410040096001RDJ CORPORATION                                          1605
A5501400120410283898001GARCIA, JOSIE OR                                        10510
A5501400120410283898001GARCIA, GERARDO                                         20500
A5501400120000006976712PALLORINA, LOURDES LEYSA                                 0501
A2401400180411023998002ENE MARKETING                                            0502
A2401400180411478374020MORI, LYDIA                                              0502
A1201400150421321871001PALLE, SHERWIN MALUNHAO                                  0501
A0101403030441590302001**********                                               0503
A0101412890000002747926BALDIVICIO, DOLORES VILLARIN                             0502
A0101406330000004349519MENDEZ, RELYN NICOLAS DBU                               10503
A0101406330000004349519MENDEZ BAKERY                                           20500
B0101406330472043677001EXPRESS LANE MINIMART                                    1602
B0101406330472043678001NORIMART SUPERMARKET                                     1602
A0101406330472573166001ROSA Z. TIUTING                                          0501
A0501400170481039591001MACA DEO REGALIA REALTY                                  0502
B1401400110000000167479CHRIST'S COMMISSION FOUNDATION, INC                      1601
A1401400110000000628502MANALO, GLORIA GARCIA                                    0502
B0701400260000001069701MAGTUTO, RENATO VILLAFUERTE                              1605
A0101407430503370564001DAVILENE OR QUINTIN BARELLANO                           10501
A0101407430503370564001OR MA. SOTERA HERNANDEZ                                 20500
A0101407430503478374012ANALIE YPANTO                                            0501
A0101403580511151532002CYNTHIA R. MAMON                                         0506
A0101405940512026524001DAVENNIEL PROMATS MARKETING                              0503
A0101408110000000380090SANTIAGO, EMMALYN BONIFACIO                              0501
A0101408110000001823832PATATAG, WILFREDO DBU FLASSIQUE                         10502
A0101408110000001823832FINE FURNITURE & INTERIOR                               20500
B0101408530516033397001SPRINGER INTERNATIONAL, INC.                             1605
A0101408530000000035925CASTRILLO, MILISA CAOIBES                                0501
A0101408530000004647930LIM, MICHAEL CHRIS FENIX                                 0501
A0101412050000000890882********                                                 0502
B0101403450521012010001********                                                 1603
B0101403450521036992001********                                                 1601
A0101403450521238267001*******                                                  0502
A0101403450521478374010MARICEL L. MORTIZ                                        0501
B0101403610531029447001QUEENS BEST COOKING OIL AND                             11602
B0101403610531029447001MARKETING CORP.                                         21600
A0101403610531220632001BLANDO, LETICIA SALEM OR                                10501
A0101403610531220632001BLANDO JR., LUIS                                        20500
B0101403610000006637114RD PAWNSHOP, INC.                                        1603
A2201400250561253929002BENJAMIN DAVID CUDAL                                     0501
A0101410690000003027636BALIAO, JOVITA LINGGON                                   0502
B0101407720000000885770LARRS SKIN SOLUTIONS, INC                                1601
A0101407720602162144001SUSAN ABAD OR ANTOINETTE                                10502
A0101407720602162144001KATRINA ONGKIKO                                         20500
A0101407720602298846008LAMBERTO U. OCAMPO OR                                   10501
A0101407720602298846008ANNABELLE SARMIENTO                                     20500
A0101407720602342044001DR. DARWIN ALBERT DASIG                                  0501
B0101412180000007360449PREMIERE GLOBAL LAND REALTY 888 INC                      1603
A0101409920000005461194GUASCH, MARY GRACE SABOLAAN                              0502
A0101409920000001283410CHAVEZ, SARAH DBU SMC FURNITURE                          0505
A0101413570656057648158GRETCHEN B. MAGLINTE                                     0501
A0101413570000005867361DOMINGO, MARK VINCENT MACALINO                           0501
A0101413990000001947128MARS STONE SUPPLY                                        0502
A0101413990657065398001L.R. LIPATA CONSTRUCTION                                 0501
A0101406590000005305139MAYO, HELEN PETINES                                      0502
A0101410300000006278419TAN, HANS GARCIA                                         0501
A0101410300000000191815CARBALLO, LUIS ANTONIO S. OR                            10505
A0101410300000000191815SALAZAR, EMMANUE                                        20500
A1701400230693043742001CAFE JUAN                                                0503
B0101408240711039556001TIP-TOP MARKETING                                        1610
B0101408240000000832893WOWA'S FAST FOODS INC.                                   1610
B0101408240000000832804WOWA'S FAST FOODS INC.                                   1610
 0101408240000000832757                                                           00
A0101408240711323526001SHIRLEY A. MANESE OR MARIA                              10501
A0101408240711323526001ELENA M. ISAAC                                          20500
A0101408240711379193001MARIA LEAH OR MARTIN LORENZO                             0502
A0101408240711643338001ARCAYA, MICHELLE GRASPARIL                               0501
A2801400230000005253281EMETERIO, EVELYN PANCHO                                  0501
A4101400260812469791001CAROL E. COMIA                                           0502
A4101400260812629092001ELLEN C. BUCAO                                           0502
A4101400390813248893002MERCY O. ASEGURADO                                       0505
A0101412340000004360792CHRISTINE MAY P. CABANTOG                                0501
A0101404840851478374165MERLITA C. SANTILLAN                                     0502
A0101404840851520766178ROWENA C. PUNZALAN                                       0501
B0601400490890821100608**********                                               2002
