B0101400150061057491001REBELSTUDIOS INC                                         1601
B0101400150061038131001GNPOWER MARIVELES COAL PLANT LTD. CO.                    1601
A0501400170481377879001GERARDO D. MAPATAC                                       0501
A0101403580511028909001E.M. MOLINA'S CONSULTANCY FIRM                           0501
A4101400420814520766106TORINO, MELIZA                                           0501
A0101401250000000907131PERICO, AURORA ATIENZA                                   0501
A0101401250000002131817PERICO, JOSEPH MARIA AGUSTIN                             0501
A0101401700041188748001WILLIAM C. TING TAN OR                                  10501
A0101401700041188748001HELEN O. TAN                                            20500
A0101401700041193436002CORAZON C. LOBENDINO                                     0505
A0101400150000004709702DE GUZMAN, ELIX LOPEZ                                    0501
A0101400150000002902718TOLENTINO, ROMEL TUCAY                                   0501
B0101400150061016862001CAGAYAN ELECTRIC POWER & LIGHT CO., INC.                 1603
B0101400150061043419001SOUTH LUZON THERMAL ENERGY CORPORATION                   1606
A0101400150061456754001ANCHETA, ANGELINO TAGUIBAO                              10502
A0101400150061456754001OR ANCHETA, CANDELARIA                                  20500
B0101400600071325386001********                                                 1601
A0101400730111452394001LOPAE, GRACE SAFLOR                                      0501
A0101400730111567230001MAGUIDALA, ASMIAH SAID                                  10505
A0101400730111567230001QR AMER MAGUIDALA                                       20500
B0101400440161007221001ILA EXPRESS HAULER                                       1602
A0101400440161525001105VIRGIE B. CRUZ                                           0501
A0101407270000003253961RUTAQUIO, JOAN TENA                                      0502
A0101401090171195863002ERLINDA B. REYES                                         0505
A0101401090171198524001ENCARNITA OR REYNALDO CRUZ                               0501
A0101401090171202261001REMEDIOS A. BIAVATI                                     10501
A0101401090171202261001OR SAMUEL Y. ALVIOLA                                    20500
A0101401090171337108001MARIA ANGELA N. OCONER                                   0501
A0301400530000002318583LIBRE, MARISSA NAQUINES                                  0505
A0101401380000001412651LEY, VALENTINO TING                                      0502
B3101400160221044050001MARGIMEL CORPORATION                                     1601
A3001400130000000944714LIM, KLAUDIO DIAZ                                        0502
A1001400350000000245281BAGARES, AGUSTINA BALALA                                 0502
A1001400350233528399003KO, JOSE NELSON AND                                     10501
A1001400350233528399003KO, CHARMAINE                                           20500
A1001400480000002300418LA VICTORIA, ELAINE BASA OR                             10501
A1001400480000002300418LA VICTORIA, ALVIN GAMOLO                               20500
B1301400470000000009561FUND LINK CREDIT & LOANS, INC.                           1602
A1301400470252503090002ERBITO B. TIONGSON OR                                   10505
A1301400470252503090002CHRISTINE S. TIONGSON                                   20500
A1901400290000000135220MARGGIE LUMBERA SALES                                    0501
A1901400290000001926296DINDO PATRON BARTE OR FLORINDA                          10503
A1901400290000001926296MASAS BARTE                                             20500
A1901400290000003435663ANNALIZA PANGANIBAN GAMEZ                                0502
A1901400290000003435670LILYBETH HERNANDEZ VALDESANCHO                           0501
B1901400290261012814001PJ LHUILLIER, INC.                                       1603
B1901400290261027293001LIPA MEDICS INC.                                         1610
A1901400290261290534001EDNA G IMPERIAL OR                                      10501
A1901400290261290534001LUCITO N IMPERIAL                                       20500
A1901400290261356002001MARICEL REJANO LUCERO                                    0501
A1901400290261488341038DR ALICE L LACORTE                                       0502
A1901400290261490189001CARLO JOSE V FUENTEBELLA OR                             10505
A1901400290261490189001SARAH SUZANNE FUENTEBELLA                               20500
A1901400290000000135093MARITES LIM SANCHEZ                                      0502
A0101406460000000182596**************                                           0503
A0101406460000002359839ALBERTO, AILEEN PINEDA                                   0502
B0101406460000000020931GREATWALL MANPOWER & GENERAL                            11602
B0101406460000000020931SERVICES INC.                                           21600
B0101406460000000712769BARON 3 GARDENS CONDOMINIUM CORPORATION                  1603
A0101406460272442863001********                                                 0501
A0101406460272590425001SALVADOR, WINEBELLE DELFINO                              0503
B0101406620273031145002KOHL INDUSTRIES CORPORATION                              1601
B0101406620273041414001GANO I-TOUCH PHILIPPINES INCORPORATED                    1605
B0101411820277048023001FORGEMS PLUS TECHNOLOGIES CORPORATION                    1605
A2601400270302631323001MARIA ISABELL R. DULIG                                   0501
A0801400160000002287578************                                             0501
B0801400160000001289932RD PAWNSHOP, INC. - ILOILO NORTH                         1602
A0801400160311478374103INAYAN, MERLINDA GUARDAMANO                              0501
B1101400120000000653092COCOMART COMMODITIES INCORPORATED                        1605
A3401400280000000972783DELA CRUZ, EMILIO BILLONES                               0502
A3401400280318736732001TERESA A. SANTOS OR MA. AILEEN                          10501
A3401400280318736732001A. SANTOS OR TINA S. ONG                                20500
A3401400280000003309139TERESA A. SANTOS OR MARIA                               10501
A3401400280000003309139CONSUELO A. ALMONTE                                     20500
A0101402350321564527001YANQUILING, NATIVIDAD G.                                 0502
A0101405650322368071001CALANGI, JOSE MA. SALUMBIDES                             0501
A0101405650322526192001FUNTILA, CAROL PAULINE TAMAYO                            0501
A0101402480000002975462**********                                               0502
B0101402480331034503001*******                                                  1601
B0101402480331036207009MYGENERICS PHARMACY INC.                                 1603
A0101402480331454280002****                                                     0502
B0101402480331748556013QUALIGEN PHARMACY CORP.                                  1603
B0101402480331748556015QUALIGEN PHARMACY CORPORATION                            1603
B0101402480000000028173QUALIGEN PHARMACY CORP.                                  1603
B0101402480000000028219QUALIGEN PHARMACY CORP.                                  1603
B0101402480000001100001QUALIGEN PHARMACY CORP.                                  1603
A0101408820333624440001******                                                   0502
A0101408820000000408724******                                                   0502
A0101402510341197651001MERCADO, ROWENA EVALLE                                   0502
A0101402060351211731001SANTOS JR., RODOLFO S.                                   0501
A0201400760374041860001ONE URBAN CONSTRUCTION                                   0502
A0201400890000003410226*****************                                        0501
B0201401150378821100608**********                                               2003
A0101408370382407309003JOHANN MICHAEL G REYES DBU                              10501
A0101408370382407309003JMGREYES EYE CLINIC                                     20500
A0101411660000002881150JOSE C PEPITO JR DBU JCAP                               10501
A0101411660000002881150SIMPLIFIED BUILDING CONST                               20500
A0101405490000002880642CARLOS A. SANTANA                                        0503
A010140549039201910700220/20 ENTERPRISES                                        0502
A0101405490392034892001JABEZTECH TRADING                                        0505
A0101408400000000403778DELFIN, NERIO DELENA                                     0501
B0301400820000000132618LEI, WILSON OR LEI, MATILDE OR LEI, JAN                 11601
B0301400820000000132618MICHAELSON                                              21600
B0301400820000001554792VIC IMPERIAL APPLIANCE CORP.                             1601
B2401400180411023294001RD TUNA VENTURES, INC.                                  11620
B2401400180411023294001TIN:001-947-522                                         21600
A0101403030441012152001BELTON MANSION RES. CONDO. CORP                          0503
B0101403030441039990001**********                                               1602
A0101403030000001302087**********                                               0501
B1901400320000000041261SAN ISIDRO MULTI-PURPOSE COOPERATIVE                     1601
A1901400320489057626001PINK CONFETTI CAKES                                     10501
A1901400320489057626001AND PASTRIES                                            20500
B1901400160491050626001STCJ MULTIPLE INTELLIGENCE SCHOOL, INC.                  1602
B1901400160000000007467FIRST UNITED 23, INC.                                    1605
A1901400160491055189001ROMELINA ACOSTA VILLENA                                  0501
A1401400110492223854001CHUCHI C. SIA                                            0502
A0101403900501712681001YUPANGCO, GLENN LEMUEL PEPITO                            0501
B0101407430503027906001CHURCH STRENGTHENING MINISTRY INC.                       1610
A0101407430503736499001CECILIA P. REVAREZ                                       0501
B0101403580511005199002ACE FOODS, INC.                                          1603
B0101403580511005339002NONILLION HOLDING CORPORATION                            1605
B0101403580511017560001MSC EMPLOYEES CREDIT COOPERATIVE                         1605
A0101408110000004703520PATANA, ARCHIMEDES CABANGIS                              0501
A0101408530516506423002***************                                          0501
A0101408530000001268446YAMBOT, SHIELA MARIE PANGILINAN                          0501
B0101403450521011639001**********                                               1605
A0101403450521238152001**********                                               0502
A0101403450521238152002**********                                               0505
A0101403450521238152003**********                                               0502
A0101404000000003706136BATUCAN, PAUL ANWAR ROBLE                                0501
A0101404000551414870001LIMSON, ELIZABETH OR                                    10502
A0101404000551414870001CASTILLO, EVERLY                                        20500
A0101404000551735313001DE LUNA, PATRICK JOHN LUPISAN                            0501
A2201400250561028327002******                                                   0502
A2201400250000001932270DIZON, DANILO GAMBOA DBU NEW                            10503
A2201400250000001932270DAN'S ELECTRONIC                                        20500
B2201400250000004405218HARMONIC RESOURCES CORPORATION                           1610
A2201400250561258530025CATHERINA T. DOMINGO                                    10501
A2201400250561258530025EMPLOYEES OF IEWPC                                      20500
A2201400250561478374006ANGELINA P. QUIBALLO                                    10501
A2201400250561478374006MEMBERS OF NATASHA                                      20500
A2201400250561484428001WILSON LAO SIO OR                                       10501
A2201400250561484428001EDUARD LAO SIO                                          20500
A2201400250561484428001WILSON LAO SIO OR                                       10501
A2201400250561484428001EDUARD LAO SIO                                          20500
A0101404130601422572003MOJICA, NERCHILLE DE GUZMAN                              0505
B0101404130601506100005LINK RI LOGISTICS INC.                                   1603
A0101407720602241314001**********                                               0502
A0101407720000001393335************                                             0501
A0101407720602382305001PARDINAN, ROSSANA O.                                     0501
A0101407720602390297001PREYSLER, MARIVIC G.                                     0501
A0101407720602399337001MARIO BENITO F. BAUTISTA                                10502
A0101407720602399337001OR JOSEPHINE L. BAUTISTA                                20500
A0101404260000000003830MACACADO, NENITA NAZARIO                                 0501
A0101404420000000471921SANCHEZ, MARY GRACE BERNABE                              0501
A0101404420631719037001ALBERT C BARRERA OR                                     10502
A0101404420631719037001ROLEN C BARRERA                                         20500
A0101409890000000209123NADONGA, ADRIANA LALU                                    0501
A0101407690652048116001DALIDA, JANE DBU ALPINE CREST                           10501
A0101407690652048116001CONSTRUCTION                                            20500
A0101407690000001919888LLUBIT, JOSERRY DBU JBL BLDRS                            0502
B0101407690652096491001JAMES A. CABANERO OR NIDA P. CABANERO                    1601
A0101407690652478374169MEDRAN, ESTELA RAVINA - DEALERS                         10501
A0101407690652478374169OF SHOECAT INC.                                         20500
A0101407690652525001056ENRIQUE, EMY SANTOS - DEALERS                           10502
A0101407690652525001056OF SHOECAT INC.                                         20500
A0101407690652525001075DOCDOCIL, GELITA - DEALERS OF                           10501
A0101407690652525001075SHOECAT INC.                                            20500
A0101407690000001919899DE LEON, LIADENETH - DEALERS OF                         10501
A0101407690000001919899SHOECAT INC.                                            20500
A0101406590662044117001D VISAGE INTERNATIONAL                                  10502
A0101406590662044117001CORPORATION                                             20500
A0101406590662207039001HORTENCIA A. BUENAVENTURA OR                            10501
A0101406590662207039001MA. THERESA TAN                                         20500
A0101411950000000490802LABATA, REY SOLON                                        0502
A1301400210682325433001WILHELMINA DC DOMINGO                                    0501
A1701400230000001786850CHINO EARL V. AGUINALDO                                  0501
A0101408240711643338001ARCAYA, MICHELLE GRASPARIL                               0501
A4101400260812478374055ARLENITA E. MORALITA                                     0501
B4101400390813036443001JINHOEMB CORPORATION                                     1602
A4101400420814520766056MULIG, ESTER R.                                          0501
A4101400420814520766119OMNOS, NOVA DESCARTIN                                    0502
A4101400550000000506814DALAGAN, CATALINO B. OR                                 10504
A4101400550000000506814DALAGAN, TERESITA S.                                    20500
B0101404840851018774001FIL-LABOR COMM'L & INDUSTRIAL CORP.                      1601
A0101404840851212512001TESORO, JOY A.                                           0502
A0101404840851217640001CONCEPCION L. FERRER                                     0501
A0101406750852202851001UDAN, JOSIE Q. OR                                       10502
A0101406750852202851001UDAN, RENEE L.                                          20500
B3101401130000202000257**********                                               2002
