B0101402930000003269436BONETTO VENTURES INC.                                    1602
A0101402930381206921002EDUARDO P. PILAPIL OR                                   10502
A0101402930381206921002TERESITA R. PILA                                        20500
A0101405490392554799001ALLEN NEIL V. PAJARELLANO OR                            10502
A0101405490392554799001FLORANITA V. PAJ                                        20500
B0101405810000000016822VANDA PAPER PRODUCT ENTERPRISES COR                      1601
A0101405810000000016559CHUA, HEMAN LAO                                          0501
A7201400170000002791342OMAR, KHALID A.                                          0502
A0101400570281186580001DR. ARSENIO C. CANTOS OR                                10503
A0101400570281186580001DRA. CORAZON CAN                                        20500
A0101400570281694778001MAEBEN D. CADILO                                         0501
A0101403320000001803338CALAQUIAN JR., RUBEN NUGUID                              0503
A0101412050000002314494********                                                 0502
B0101403610531013980001VIC IMPERIAL APPLIANCE CORP.                             1603
A0101403610531792048001MORDIDO, IRMA GAMBA                                      0501
A4101400420814520766004SALVACION D. BITANCUR                                    0501
A0101400860000005313171**********                                               0502
A0101400860011498803002**********                                               0502
A0101400860011663274001**********                                               0502
A0101400860011685244001BANDIOLA, SIDNEY MORALES                                 0501
A0101400860011737873001**********                                               0502
B0101401250021006948001PANGARAP FOUNDATION, INC.                                1605
A0101401250021185179001CABRERA, ZENAIDA SANTOS                                  0501
B0101400150061011058001CHATHAM HOUSE CONDOMINIUM CORP.                          1605
A0101400600071234544002CHOW, ALICIA CHUA                                        0502
A0101405810000005314961MARQUEZ, RAMONCITO GUTIERREZ                             0501
B0601400100081042604002CRK LUMBER AND HARDWARE                                  1603
A0601400360083591473001CANDA, EDLYN DIMACALI                                    0502
A0101413280092062132001REIKEN AUTOMOTIVE SUPPLY                                 0501
A0101413730000002229701*************                                            0501
A0101413730000000469698**********************                                   0501
B0101413730000003715779**********************                                   1603
A0101400730111008318001ANIFEL MANAGEMENT AND GENERAL                           10504
A0101400730111008318001SERVICES CORP                                           20500
B0101400730111008593001TITAN TRAVEL & TOURS, INC.                               1603
B0101401830141020262001********                                                 1602
A7201400170000003773142CARBONEL, JOHN PICO                                      0502
A0101412920000005354445LAFUENTE, ANASTACIA ALEJANDRO                            0502
B0101407270162044738002BARTLE BEYL, INC.                                        1605
B0101407270162053928002QUANTUS BUSINESS SERVICES, INC.                          1605
B0101401090171007908001PERPETUAL SUCCOR HOSPITAL &                             11606
B0101401090171007908001MATERNITY, INC.                                         21600
A0101401090000001619030PESO, MARIA CECILIA S. OR                               10502
A0101401090000001619030AQUINO, MARIA CRISTINA S.                               20500
A0301400530000003087329VALDIVIA JR., ABELARDO SAN LUIS                         10505
A0301400530000003087329OR VALIDIVIA, AL                                        20500
A0301400530000008495212************                                             0501
A0301400530000006239472PABROQUIZ, JONELYN VISAYA                                0502
B0301400660000003361862SOUTHSHIP HANDLERS PHILIPPINES INC.                      1604
A0101401380000000682622********                                                 0501
A3101400160000000428988ANGELES, CRISELLE MACASADIA                              0501
A3101400160221534754001RODOLFO L. PUA                                           0501
A3101400450223223556001*****                                                    0505
B3001400130230042943088VENTURA PLYWOOD PHILIPPINES INC.                         1610
A3001400130000000007041CHAQ GLASS & ALUMINUM SUPPLY                             0502
B3001400130000006004671UHLAND LOANS CORPORATION                                 1601
A3001400130230094974001BRAVO, ROSEPT EBARLE                                     0503
A1001400190231520766110MAYOR, CARMELITA ANGCAY                                  0501
A1301400470000001299196PRECILLA DR. NADORA OR                                  10503
A1301400470000001299196REYNALDO E. NADORA                                      20500
A1301400470252495255001IMELDA IRENE V. ULIP OR                                 10501
A1301400470252495255001JUANITO I. ULIP                                         20500
A1301400760000005379553NAPOLEON G. INTERIOR                                     0505
A0101406460272677065001YAPJUANGCO, DIVINA GRACIA T. OR                         10502
A0101406460272677065001YAPJUANGCO, SAMU                                        20500
A0101406620000001686871*******                                                  0501
A0101406620273471129001TAN, APRIL LYNN LEE                                      0501
A0101410980000002303873LABRADOR, KENNETH MARK CORPUZ                            0501
A0801400160311029906001************                                             0505
A6601400120000000060380ADRIATICO, ROMEO VILLASIN                                0502
A3401400280000000784618UYGEN JR., FRANCISCO MOSQUETE                           10502
A3401400280000000784618OR UYGEN, ANN RELANO                                    20500
A0101405650000000525751ZAFRA, APRIL ROSE PENALBA                                0501
A01014056503220410060013805 PHARMACY                                            0501
A0101402510341504575001CRISTOBAL, RAQUEL CIRIACO                                0501
A0201400920000002804515J-NEIL MARKETING AND AGRIVET                            10503
A0201400920000002804515SUPPLY                                                  20500
A0201400920000002804504BARENG, NATHALYN C.                                      0503
A0201400890376458754001NOMBRADO, GILBERT DOMASIS                                0501
A0201400890376745254001BUYSER, IAN CHRISTOPHER COLETO                           0501
A0201400890376763623001**********                                               0503
A0101402930000003710814PISON, MARIA TERESA PENA                                10503
A0101402930000003710814DBU CITRUS                                              20500
A0101408370382391455001PEREZ, GINA MEDRANO                                      0501
A0101408370382497608001DR. AZENETTE LACUNA-MENDOZA OR                          10501
A0101408370382497608001TRISTAN PHILIP MENDOZA                                  20500
A0101408790000002326085MAFE, MUNIRAH REALON                                     0501
A0101402770000002267121RIVERA, JOHNNY CONTRERAS                                 0501
B0101405490000006214222MEGANESS PHARMA MARKETING                                1601
A0101408400394419461001MARIA AURORA AQUINO BARROS                               0501
A0101408950000000472946**********************                                   0503
B0101409180397042779002***                                                      1603
B0101412210000005051336GEOGEN CORPORATION                                       1602
A0301400820000001185780RUFEROS, ROY KENNETH OR                                 10501
A0301400820000001185780AREVALO, MICHELLE KAY                                   20500
B0301400820000008105553GERONIMO, ALLAN A. AND LADRA, BRENDA A.                  1601
A5501400120000005492195AUTENTICO, ARLENE SAMON                                  0501
B5501400120410044567001RASAY INSURANCE AGENCY AND GENERAL                      11601
B5501400120410044567001SERVICES                                                21600
B5501400120410274984158ONG, DANILO & ONG, SUSAN & ONG, DANNY                   11605
B5501400120410274984158& ONG, DANIEL                                           21600
A5501400120000000265850SUENO, ISMAEL JADE BERNARDO                              0503
A5501400120410729506001JOSOL, ARLIEN BACON                                      0501
B2401400180411014383001RD EMPLOYEES CREDIT COOPERATIVE                          1610
A2401400180000000555015ONG, AIRA MAE JAVIER DBU SMARTA                         10503
A2401400180000000555015IRE AIRCON SPECI                                        20500
B0101403030000005944670**********                                               1601
A0101403030441594340001**********                                               0501
A0101403320471368704001AGNES M. DE JESUS                                        0501
A0101403320471478374016SONIA SALANIO                                            0501
A0101403320471550493001VILLAMIEL, MARIA ANTONIA ESCASA                          0502
A0101403320000001646879EIFFEL JARVIS H. DIAZ                                    0501
A0101410140000001939940REGODO, EDITA SANOZA                                     0501
A3801400170000002302783GANIR JR., ANGEL PANGALIMAN                              0501
B1901400160491027004001MONTE VICTOIRE INN CORPORATION                           1602
A1901400160491298907001SANTISIMA B HERNANDEZ OR                                10501
A1901400160491298907001MARIE JANE H VINAS                                      20500
A1901400160491476162001GINA A PELESMINA                                         0501
A1401400110000002286826BALDONADO, WILFREDO ALCANTARA                            0501
A1401400110000000132841*******                                                  0501
B0101407430503023081003INTERNATIONAL JOB RECRUITMENT AGENCY INC                 1601
B0101407430503030067002PRODATANET INCORPORATION                                 1605
B0101407430503040319001BAYVIEW MANAGEMENT CONSULTANTS INC.                      1602
B0101407430000006027801LIGHT RAIL MANILA CORPORATION                            1601
B0101403580511046747001HUDDLE ROOM MEDIA INC.                                   1602
A0101403580511151980001ALLAN T. BUGANTE OR                                     10502
A0101403580511151980001NENITA C. BUGANT                                        20500
A0101405940000000002739********                                                 0501
A0101405940000008495861VALIAO JR., NORMAN L                                     0501
A0101406880513565496018HERNANDEZ, RODELIO FARAON                                0501
A0101408110515041358001MADE IN HEAVEN ENTERPRISE                                0501
A0101408110515349308006YOLANDA L. DUMARAOS                                      0501
A0101408530516571877194SANCHO, MARIA TERESA R.                                  0501
A0101408530516765274111*************                                            0501
B0101403450000000135588ALOHA PLASTIC PRODUCTS, INC.                             1603
A0101403450521238076005**********                                               0505
A0101403610000008497754MARCELO, MARIE FE SOCAN                                  0501
B0101403610531009928002LAMP METALS INDUSTRIES                                   1602
B0101403610531063589001RS CHRISAN BUILDERS CORPORATION                          1601
A0101404000000005867207DELA VEGA, MARIA GERALDINE LLAG                          0501
A2201400250000001545422DAVID, FELIPE ANGELES                                    0503
A0101404130000001614513TIONGSON, WILMA LOURDES CUEVAS                           0501
A0101404130601708628001PABALATE, PACITA BATAC OR                               10501
A0101404130601708628001PABALATE, HELENA JOY B.                                 20500
B0101407720602027414001GAN ADVANCED OSSEOINTEGRATION CENTER                     1610
A0101407720000000245203*********                                                0501
A0101407720602341807001DR. JOSE DANTE P. DATOR                                  0502
B0101404260000004781324CARAMBA, AMAZIGRACE BERNICA VICENTE                      1620
A0101404260000000532290PESTANO, ALBERT L. OR PESTANO,                          10501
A0101404260000000532290LUCIA M.                                                20500
A0101409890649774914001ELEFANO, ROSITA CASTRO                                   0502
A0101409920000002260453CALANGLANG, LOURDES NIETO                                0502
A0101411530000003238333**********                                               0502
A0101413440000002125348**********                                               0501
A0101413570000007307851VINCENT GALICIA                                          0501
A0101410300000000191804RONQUILLO, RONNIE GERALD OR ENR                         10501
A0101410300000000191804IQUEZ, ENRICO LO                                        20500
A0101410300663082423001LICUP, DINAH DALUSONG                                    0501
B1301400210682039698001SEVENTY SEVEN TRAVELLERS INN CORP.                       1604
A1301400210000003104912ZEN TEN TRUCKING AND HAULING SE                          0501
B1301400500684062494001AGUIZEN TRANSPORT CORPORATION                            1601
A1301400500684635536001JOSELYN D SANTOS OR                                     10501
A1301400500684635536001EDGAR D VILLAR J                                        20500
A2801400230000002312436OCAMPO, GINA SAMSEL                                      0502
B4101400260812047082001SERENITA INC.                                            1601
A4101400260000003679625RONG, RAYSA POSTRANO                                     0501
A4101400390813333041001MARIO C. GENUINO,JR.                                     0501
A4101400420814462792001RICHARD W. WU OR LOURDES WU                              0502
A4101400550815047816001VILLANUEVA, MELANIE AWATIN                               0502
A0101412340000003343702RONALD JOHN A. GUZMAN                                    0501
B0101404840851022231001PAINTPLAS CORPORATION                                    1604
A0601400230000000990052DAYAO, MARIBEL MASIBAC                                   0501
B0101418490002802000408**********                                               2005
