B0101406620273821100608**********                                               2010
B0101404840851821100608**********                                               2003
B0601400360083821100608**********                                               2003
A0101402060351217441011EMMANUEL Y. GO                                           0501
A0101405810000001021172PUA, C DBU MCK SCHOOL & OFFICE                          10503
A0101405810000001021172SUPPLIES                                                20500
A0101405810072367597002WANG, GUO YANG                                           0502
B0101413280092065449001P.C. COMMODITIES, INC.                                   1601
A0301400530193584721168YANG, CHAOWEI                                            0505
A1001400350000000922105FACTURA, JACKELOU CORONEL                                0501
A1001400350000000922150OH, EDMUND YU                                            0501
A1901400290000000135220MARGGIE LUMBERA SALES                                    0501
A1901400290000009022600RAYMUND OCAMPO ONA                                       0501
A1901400290000009110143JOSELITO NORBERTE UMALI II                               0501
A1901400290000009110376AUGUSTUS CAESAR P APALISOK                               0501
A1901400290000009322258MARJORIE SANDRA A GONZALES                               0501
A1901400290000009322521LOVELYN T MATIENZO                                       0501
B1901400290261027293001LIPA MEDICS INC.                                         1620
B1901400290261047995001SPOUSE OF THE BLESSED VIRGIN                            11605
B1901400290261047995001HOSPITAL INC.                                           21600
B1901400290000007876746SPOUSE OF THE BLESSED VIRGIN HOSPITAL                   11603
B1901400290000007876746CORPORATION                                             21600
A1901400290261048991001DRA EDELWISSA ILAGAN GUTIERREZ                           0501
A1901400290000007876859PHILLIP YOHANN TRADING                                   0501
A1901400290261099052001ROWENA ANA R CORNEJO                                    10502
A1901400290261099052001OR GALICANO B CORNEJO                                   20500
A1901400290261244696002ELIZABETH G MUTIA                                        0501
A1901400290261390520001JOEL PUNZALAN DIMAANO                                    0502
A1901400290261488341049DR. JOHN RODOLFO D. SUAN JR.                             0501
A1901400290261489659001MICHAEL FRADES MAPALAD                                   0501
A0101402770000001571397ZABALZA, MA. ARVY VELASCO                                0501
A1901400160000002291501KERVIN FRANCIS DE LA CRUZ LIM                            0501
B1901400160491065413001CREATIVE HOTEL CONCEPTS, INC.                            1601
A2801400100712701754001DALIT, MADONNA VERSOZA                                   0501
A0101401250000008459970CAIDO, MA. CONCEPCION TORINO                             0501
A0101400150000003876860EMPLOYEES OF ADP (PHILIPPINES),                          0501
A0101400150000000807421MIGUEL ENCARNACION                                       0501
A0101400600071271611001**********                                               0502
B0101405810000000016811SK PLASTIC RELIANCE COMPANY                              1603
A0601400100081464717001ADELINA CHAMBERS OR                                     10501
A0601400100081464717001HARRIS PAUL CHAM                                        20500
A0601400520000007553144SICAT, ARNEL GUZMAN DBU CARD                            10501
A0601400520000007553144WASTE HAULING AND GENERAL                               20500
A0101413280000000041852OLA, EDAM CRUZ DBU HIJK SHIRT                           10501
A0101413280000000041852PRINTING & DESIGNS                                      20500
A0101410560000000020195LELIANE D. TORRES                                        0503
A0101410560000005836217PROCLEY C. CRISTOBAL                                     0502
B0101400730000000002591*****                                                    1603
A0101400730111478374009VERGARA, GLENDA                                          0503
A0101406040000006014288REYES, PHILIP COLE DBU GREAT                            10502
A0101406040000006014288SPEED TRADING OR ALVIZ, H                               20500
A0101401830141208052002RICARDO S. CRUZ                                          0501
A0101401090171400297001REYES, RENATO MENDOZA                                   10503
A0101401090171400297001OR REYES, ERLINDA                                       20500
A0101401090000001619030PESO, MARIA CECILIA S. OR                               10502
A0101401090000001619030AQUINO, MARIA CR                                        20500
A0301400530000001009994PADAYHAG, WINNIE L.                                      0502
B0301400530193038459168PIONEER BEE CORPORATION 1                                1605
A0301400530000001409621ARASA, ELEUTERIA A.                                      0501
A0301400790000000435830********                                                 0505
A0101413020000003055405AVO-AIR ENGINEERING SERVICES                             0501
B0101412500214055614001A.D.P.P. TRUCKING SERVICES CORP.                         1602
A0101412500000001147091COLLANTES, ABIGHAYLE TRINIDAD                            0501
B3101401390219821100608**********                                               2002
B3101401390219821200608**********                                               2002
A3101400160221386295002ROBERT J. BANATIN                                        0501
A3101400160221528693001ABESAMIS, ENRIQUE GUY                                    0501
A3101400450223612365001ARAGO, ANDREW HIZON RODA                                 0504
A3101400870000003505553DUMAYAS, MARICEL AMIT                                    0501
A3101400870000002328116CRUZ, GERALDIN ABESAMIS                                  0501
A3101400870000005565346TUMULAK, RAMON CHUA                                      0501
A1001400190000003881903BOSSMANN TRADING AND                                    10502
A1001400190000003881903ENGINEERING SERV                                        20500
A1001400190231446795001SAARENAS, LOIDA TAN OR SAARENAS                         10501
A1001400190231446795001JR., JULIAN                                             20500
B1001400350000000922252CAUBE, MARIVIC JAMERO DBU                               11603
B1001400350000000922252CAFE LERIS                                              21600
A1001400350233599284001ELEAZAR, NANCY CONCEMINO                                 0501
A1901400290000000135220MARGGIE LUMBERA SALES                                    0501
A1901400290000009022600RAYMUND OCAMPO ONA                                       0501
A1901400290000009110376AUGUSTUS CAESAR P APALISOK                               0501
A1901400290000009322258MARJORIE SANDRA A GONZALES                               0501
A1901400290000009322521LOVELYN T MATIENZO                                       0501
B1901400290261027293001LIPA MEDICS INC.                                         1620
B1901400290261047995001SPOUSE OF THE BLESSED VIRGIN                            11605
B1901400290261047995001HOSPITAL INC.                                           21600
B1901400290000007876746SPOUSE OF THE BLESSED VIRGIN HOSPITAL                   11603
B1901400290000007876746CORPORATION                                             21600
A1901400290261048991001DRA EDELWISSA ILAGAN GUTIERREZ                           0501
A1901400290000007876859PHILLIP YOHANN TRADING                                   0501
A1901400290261099052001ROWENA ANA R CORNEJO OR                                 10502
A1901400290261099052001GALICIANO B CORNEJO                                     20500
A1901400290261244696002ELIZABETH G MUTIA                                        0501
A1901400290261390520001JOEL PUNZALAN DIMAANO                                    0502
A1901400290261488341049DR. JOHN RODOLFO D. SUAN JR.                             0501
A1901400290261489659001MICHAEL FRADES MAPALAD                                   0501
B0101401670271672666001NTC IMPORT EXPORT INC                                    1605
A0101406620273375598004VIRGINIA SAPINA                                          0502
B0101406620273545544001SUMMIT TEAM WELLNESS CORP.                               1601
B0101410980000003479492SKOPE TECHNOLOGY INC.                                    1604
B0101412470000007317888ROSANNA ROMAN AND ANGELA LORENZANA AND                  11603
B0101412470000007317888PABLO ROMAN III                                         21600
A2601400270000007845090MELINDA B. REOTIRAS                                      0502
A0801400160000007444302WOO, JOHN KENNETH FINES OR                              10502
A0801400160000007444302WOO, PATRICIA SE                                        20500
A0101402350000005644691SANDOVAL, MONETTE ANDRADA                                0501
A0101402350321179516001BENITEZ ROQUE JR.                                        0501
A0101402350321180985001CHIEN CHUNG HO                                           0501
A0101402350321478374054ALEGERE S. TAPAO                                         0502
A0101405650322174596002VIRAY, MELINDA A.                                        0505
A0101405650000003491412DE JESUS, CARLO FRANCIS CRUZ                             0505
B0101402510341196738001BERNARDO MAINTENANCE SERVICES                            1601
A0101402510341202149003AMALIA L. ABUSTAN                                        0501
A0101402510341353926001ROLANDO G. GALAO OR                                     10506
A0101402510341353926001RUE B. GALAO                                            20500
A0101402060000000445436J. ANTONIO FORWARDING SERVICES                           0504
A0101402060351211787001MENELEO &/OR FILOMENA CARLOS                             0501
A0101402060351217446001MERLYN H. MIRANDA &/OR                                  10502
A0101402060351217446001ELISEO MIRANDA                                          20500
A0101402060351295053001VINCENT ADRIAN H. ERMITA                                 0501
A0101409050000002971555OMENGAN, ROWENA RUTH ALCANTARA                           0503
A0101409050000006462951*****                                                    0503
A0101402930000000859781SY, ANDY                                                 0501
A0101402930000000859770METT MOTIVATIONAL ENGLISH                               10501
A0101402930000000859770TRAINING                                                20500
B0101402930381042916001PACIFIC-RIM HARVESTER, INC.                              1602
A0101402930381337834001CHESHIRE J. QUE OR                                      10501
A0101402930381337834001ROSEMARIE J. QUE                                        20500
A0101408790000007727311KATHERINE NOVEMBER M. GRUPO                              0502
A0101402770391355762049DENIEGA, WILLIAM DELA CRUZ                               0504
A0101405490000004808657PALLON, EMILY CASTANEDA                                  0501
A0101405490392571716001GERALDINE O. ACTHLEY OR                                 10501
A0101405490392571716001RAQUEL A. TAJONERA                                      20500
A0101408400000006054531BAURA, EVANGELINE RAZO                                   0501
A0101408400394478374094NUNEZ, GENIE                                             0501
A0101408950396163482001KASILAG, RAYNATO R.                                      0504
A0101408950396564553001NEIL STEPHEN ANGELO A. TORRES                            0503
A0101409180000009241087DAVE ED JUSTIN MARTIN                                    0501
A0101412210000000238500ZAMBRANO, SUZANNE JUANEZA                                0501
B0101412210000007251681LSC CORPORATION DOING BUSINESS UNDER THE                11602
B0101412210000007251681NAME AND STYE OF                                        21600
A0101412210399094817016MARTIN G. ZAMORA                                         0505
B0101419880406821100608**********                                               2002
B0101419880406821200608**********                                               2002
B5501400120410042731001KENDRICK MANPOWER, ENGINEERING AND                      11605
B5501400120410042731001ALLIED SERVICES                                         21600
A5501400120000005492322TUMAMPIL, TYRON VON BUSTAMANTE                           0505
B2401400180411033733033ECA RESOURCES, INC.                                      1602
B1201400150421496291001LIQUETE, DOLORES SAGUID OR LIQUETE,                     11601
B1201400150421496291001LEONARDO                                                21600
A0101403030441043810001CORE SOURCE TRADING                                      0504
A0101403030441295353001**********                                               0501
A0101403030441338392001**********                                               0505
A0101403320000009600722CYRUS BRIAN C. BUENAVENTURA                              0501
B0101403320471019960002DIRECT ELECTRIX EQUIPMENT                               11605
B0101403320471019960002CORPORATION                                             21600
A0101410140000006015407EDORIA, DBU MLE VALVE ENTERPRIS                          0502
A0101410140000001939933**********                                               0501
B0501400170481018109001*********                                                1601
B0501400170481018109002****                                                     1604
B0501400170481025398002****                                                     1601
A3801400170490771120001ROMEL B DEINLA OR                                       10502
A3801400170490771120001ELVIRA A DEINLA                                         20500
A1901400160000007556809MANGUIAT, ELMA MANIGBAS                                 10501
A1901400160000007556809OR MANGUIAT, ROMEL TIPAN                                20500
A1901400160491244534001MA PERPETUA J TENG                                       0503
B0101407430000006027801LIGHT RAIL MANILA CORPORATION                            1602
B0101403580000000214731MILLENNIUM ERECTORS CORPORATION - NORTH                 11605
B0101403580000000214731RESIDENCES                                              21600
A0101403580511028909001E.M. MOLINA'S CONSULTANCY FIRM                           0501
A0101403580511156599042EDELMIRA Z. ALAMBRA                                      0501
A0101403580511395817001MA. BELINDA A. ENRIQUEZ                                  0501
A0101405940512285886001HUI HUN SO TAN                                           0502
B0101406880513155494001G & O  REALTY AND DEVELOPMENT CORP.                      1602
A0101406880513197649001HARPER, ANNA MARIA LAMMOGLIA                             0501
A0101406880513573270001TURALBA JR., ANTONIO VALERA                              0502
A0101408530000000594485ANONAS G. SOLAS                                          0501
A0101403450521239693001*********                                                0505
A0101403610000009605090APELO, JOSEPH ALLAN PAUL DURAN                           0501
B0101403610531659842002DELAMO LENDING INVESTOR CORPORATION                      1603
A0101403610531662330001BERROYA, MARK LESTER AMOR  OR                           10502
A0101403610531662330001BERROYA, CONNIE                                         20500
B0101404000551083687001ADELANTADO CORPORATION                                   1602
A2201400250000003558190EDWIN S. ESPIRITU OR ANNA                               10501
A2201400250000003558190JESSICA S. ESPIRITU                                     20500
B0101404130601035458001CITYLAND CONDOMINIUM VIII, INC.                          1605
A0101404130000001173626DANTE A. TOLEDO                                          0502
A0101407720000001393266ALCANTARA, IVY GAY SENARILLOS                            0501
B0101407720602005906001ASSOCIATED MEDICAL & CLINICAL                           11610
B0101407720602005906001SERVICES, INC.                                          21600
B0101407720000006028166MEDGATE PHILIPPINES, INC.                                1601
A0101407720602397444002JOSE T. SANCHEZ OR                                      10510
A0101407720602397444002TERESITA R. SANCHEZ                                     20500
A0101407720602397746003NOLIDO, ANNA MARIE SAGE                                  0502
B0101404260000000156990RB HORTALEZA VACIADOR AND BEAUTY SU                      1601
A0101404260000003498653IGNACIO, ADELAIDA SUNGA DBU                             10503
A0101404260000003498653CARLSAMS TRANSPORT SERVIC                               20500
A0101404260000003498653IGNACIO, ADELAIDA SUNGA DBU                             10503
A0101404260000003498653CARLSAMS TRANSPO                                        20500
A0101404260611317695001DENSING, CRISTETO BRAGAT                                 0503
A0101404260000006374252MENDOZA, DAISY LAPIDEZ                                   0501
A0101404260611493062001NACINO, BERNADETH VILLAR                                 0501
A0101404260611778918001GARCIA, NATHANIEL CRUDA                                  0502
A0101409890000003097972**********                                               0501
A0101409890649747345004SORIANO, DONNA MARCELA OR                               10501
A0101409890649747345004SORIANO, GERARDO                                        20500
A0101407690652319667001TANTAMCO, RAMON NICOLAS                                  0510
A0101407690652571557001BANTILLO, VICTOR VILLARISCO                              0501
A0101414120000006005458JOHN RUZZEL TRUCKING                                     0502
A0101406590000003007223EVANGELISTA, LALA MARIE LACSON                           0502
A0101406590000000568747ENDRIGA SR., VICTOR BERMEJO                              0510
A0101406590662487808001MARY CAESARYLE S. GENATO OR                             10501
A0101406590662487808001ADRIEL MEYNARD A. GENATO                                20500
B0101406590662661015001DESTINATIONS UNLIMITED TRAVEL AGENCY INC                 1603
B1301400210682016750001JFL AGRI VENTURE SUPPLIES                                1605
A1301400210000003104912ZEN TEN TRUCKING AND HAULING SE                          0501
A1701400230000002763011RUMBAOA, ACE JOSEPH RAMOS                                0501
A0101408240000009593279MENESES, DEAN MARC CALIWAG                               0501
A0101408240000009593359BONGAR, JEFFREY ANDRADE                                  0501
B0101408240000006414393KWANTLEN DEVELOPMENT CORPORATION                         1602
B2801400230000000372781GR888T C CORPORATION (CHOAS)                             1602
B2801400230000001580285GR888T C CORPORATION - (YBC)                             1601
A4101400390000001732623AZUL, VERNADETH DHOREEN PRANI                            0501
B4101400390000006103673OBIC OMITLU HOLDINGS, INC.                               1605
B4101400390000006103680OBIC APIL, INC.                                          1605
A0101412340000003341459JEFFREY S. CABRERA                                       0501
A0101412340000004360616ARTURO C. TOLENTINO                                      0501
B0101404840851013980002VIC IMPERIAL APPLIANCE CORP.                             1601
A0101404840851298552055SIXTA MELBA C. ENGBINO                                   0501
A0101404840851520766073ELIZABETH A. SUAZO                                       0501
A0101406750000006303231SENERES, MINERVA MAANO                                   0501
B0101406750852034199001JOCANIMA CORPORATION                                     1603
A0101406750852078501001TAKEDA, RACQUEL G.                                       0501
A0101406750852084318001SIBUG, GENEATH P. OR                                    10501
A0101406750852084318001SIBUG, ERNESTO M                                        20500
A0101405070861037846001GOODNESS & MERCY MOVERS                                 10503
A0101405070861037846001SERVICES                                                20500
B0101405070861047281001AVISTELE CORPORATION                                     1601
A0101405070861367320001WILLIAM LIM & BERNARD BARRERA                            0503
A0601400230000000029923VARGAS, ELVIN OLIVEROS                                   0502
