B0201400890376821100608**********                                               2004
A0101412920000011166497GABAS, NEIL BACALSO                                      0501
A0101400440000010744584MACOLOR, LINA AGANAN                                     0501
B0101400440161013681001P.J. LHUILLIER, INC.                                     1606
B0101400440161029733001PAWNCARE SERVICES INC.                                   1605
A0101400440000000821538MARITES T. JIMENEZ                                       0501
B1101400120313039102001ALVEZ COMMERCIAL INCORPORATED                            1601
B0201400760000007134421**********                                               1601
A0101403320471047588001RHINA JENEPER C. LIBIRAN DBU                            10502
A0101403320471047588001R-GENESIS DRUG STORE                                    20500
A0101412050000011229319GONZALEZ, MARTIN FULGENCIO                               0501
A0101406590662457304001ESQUIVIAS, JOAQUIN PABLO A.                              0502
A0101400860011425868001**********                                               0502
A0101400860011534620001**********                                               0502
A0101400150000003157975GRADY SAMUEL WHITE                                       0502
A0101400150000003218620ANDREW P. YABUT                                          0502
A0101400150000009995197YAKIT, RENE RANOCO                                       0501
B0101400150061042352001LESLIE CORPORATION                                       1601
A0101400150061229054001RAYMUNDO L. LOGAN                                        0502
A0101400150061236944003JENNIFER ONG                                             0501
A0101400150061337010175JOSEFINA GOOCO                                           0501
B0101400150061506034001NOVEL CAPITAL, INC.                                      1610
B0101400600000005943104*******                                                  1601
B0101400600000005943126FASTCHOICE MKTG. CO.                                     1601
B0101400600000005943126******                                                   1601
B0101400600000005943148******                                                   1601
A0101400600071720668001*******                                                  0502
B0101405810072011448001C.P.P.C CONSUMER PACKAGING PRODUCT CORP.                 1603
A0101405810072575229001RAMOS, RHODERICK DE LEON                                 0501
B0601400100081013322001LACTO B INCORPORATED                                     1604
A0601400100081286804004WARD, BARRY MAXWELL                                      0501
A0601400520000009516565MEDINA, JASMIN MITMUG                                    0501
A0101414090000003314810CAMACHO, MIKHAIL DUNGO                                   0501
A0101414090000001652433JANGSIK YUN                                              0505
A0101414090000010560835JAMILO, ERLINDA BALAG                                    0501
B0101414090000007344410TRI STATE & MELTING POT BISTRO GROUP INC                 1601
B0101400730000008477545MANILA BAY TRANSPORT SERVICE COOPERATIVE                 1601
A0101400730111203514058MARY ANNE CUARTERO                                       0501
B0101401960121240763001*************                                            1603
A0101413310000001073541DASCO, EVA YAGO                                          0501
 0101413310000004626820                                                           00
A0101401830000012011902BAUTISTA, ROMEO CATUBAO                                  0501
B0101407270162046726001VALUE CARE HEALTH SYSTEMS, INC.                          1650
B0101407270162046726001VALUE CARE HEALTH SYSTEMS, INC.                          1650
A0101407270162331908046EVANGELISTA, LENORE P.                                   0502
A0101407270162386004001PAULINO M. SERVADO JR. OR                               10501
A0101407270162386004001VIOLETA C. SERVA                                        20500
A0101407270162435350001******                                                   0501
A0101407270162496878002ABIGAIL SULVITA                                          0502
A0101407270162524638001BENJAMIN G. ALCARAZ OR                                  10501
A0101407270162524638001MARIA LERISSA AL                                        20500
A0101407270162526196001CATHERINE H. BAUTISTA                                    0502
B0101401090000000210482BLUMEX PLUS CREDIT INVESTOR INC.                         1610
A0101401090171391935001JULIE CHRISTIE G. VISPERAS                               0501
A0301400660000005691881CHIU, PETER PAUL VINCENT CUE                             0501
A0301400790000005692004BULLECER III, VINCENT CAYETANO                           0502
B0301400790000002301342MONTEVERDE II, GEORGE MENDEZ DBU GV & HH                11601
B0301400790000002301342MARKETING                                               21600
A0101401380000001820002********                                                 0502
B0101410720000005786736S+P GLASS CO.                                            1601
A0101412500000011745943BROCAL, EDGARDO MORALES                                  0501
A3101400160221478374052MARTA L BONDOC                                           0501
A3101400160221478374058MARIBEL S SIBOR                                          0501
B3101400160000000006602LA SUERTE MULTI-SALES INC.                               1610
B3101400450223010142002FORTUNE CORPORATION                                      1605
A3101400450000000163506PEREZ, RAFAEL SALAMAT                                    0501
A3101400740224789111001MABEZA, ALVIN MACABATAO                                  0501
A3101400870000001712123ADRALES, NOEMI ACEBEDO OR                               10501
A3101400870000001712123VILLANUEVA, JUVE                                        20500
A1001400190000002170781RAMIREZ, RHESA CABAGO                                    0501
B1001400350000000017143VEPCO GROUP DISTRIBUTION CORP.                           1601
A1001400350000000922412FHEDZ VENTURES                                           0505
A1001400480000000606819TAN, LYDIA OR TAN, OLIVER                                0505
B0101401670271038641001DIGITEL MOBILE PHILS., INC.                              1601
B0101406620273033463001ARL BUSINESS CONSULTANCY, INC.                           1602
A0101406620273327382001GLORIA UNSON OR WAYNE UNSON                              0502
A0101406620273362867002BUMAGAT, REGINA BALLON                                   0501
A0101406620000003661578TAN, APRIL LYNN LEE                                      0501
A0101408660000000034164PAGANO CALDE, LYSSA GRACE SISON                          0501
B0101411110000001037074NIECER TRADING COMPANY INC.                              1602
B0101411820000000024142HARDCOM COMPUTER SYSTEM CO.                              1601
A0101412470000000520283PAGUIA, MYRA ANTONETTE DIONISIO                          0501
B0101400570000002104147AB1 MEGA BUILDERS INC.                                   1601
A0101400570281192945001MINDA D. BUENVIAJE                                       0502
A0501400200292567569001LARILYN D. GATCHALLAN                                    0501
A2601400270302264756001EDDIE T. RIVER0 OR                                      10502
A2601400270302264756001HENRIETTA U. RIVERO                                     20500
A2601400270000000084182DONALD C. DUMRIQUE                                       0501
A1101400120000001920601MARTINEZ JR., RENATO BARRANTES                           0501
B2001400290000000020571PHILIPPINE REACHWELL DISTRIBUTION                       11605
B2001400290000000020571CORPORATION                                             21600
A3401400280000006791100FERNANADO D. BEGAS JR.,                                 10502
A3401400280000006791100DBU BEGAS MERCHANDISING                                 20500
B0101402350000000655492RD PAWNSHOP, INCORPORATED                                1605
B0101405650322033340001PRIME ADVANTAGE PROPERTIES SPECIALIST,                  11605
B0101405650322033340001INC.                                                    21600
A0101402510341196735001AILEEN R. PATRON                                         0501
A0101402510341198276001SEGUBAN, DANILO H.                                       0501
A0101402510341199103001CORAZON D. HUANG                                         0502
A0101402510341232460006LU, HANS TE                                              0502
A0101402510341589311001VILLARAMA, MARIA CONCEPCION                             10505
A0101402510341589311001FLORES                                                  20500
A0101409050000000601374SIA, JOANA ANDRES                                        0501
B0201400920375036273001PROFOOD INTERNATIONAL CORP.                              1603
B0201400920375038353001WEST OCEAN LINES & TRANSPORT, INC.                       1606
A0201400890000011310931MARTINEZ, WELBYR SAN JOSE                                0505
B0201400890000007877301RD PAWNSHOP, INC.                                        1607
A0101408370382399401001DR. EMILY ROSE C. BELEN OR                              10501
A0101408370382399401001DR. POCHOLO P. BELEN                                    20500
A0101408370000002264080CHAVEZ, CHRISTINE LAOANG                                 0501
A0101408790000005251029MECANO, ANA LUZ SALONGA OR                              10502
A0101408790000005251029CHUA, GHIN ENG                                          20500
A0101411660000005323922**********                                               0502
A0101411660000004845290ABAN, CARLO MIGUEL SANTOS                                0501
A0101411660000010561981MANALO, ROSALIA SAN JUAN                                 0502
A0101411660000000032117EDESSA R. MENDOZA                                        0501
A0101402770000004842193**********                                               0501
A0101402770391403646001PANGILINAN, JOSEPH MANIO                                 0502
A0101405490392225879001DE LUNA, SOTERO B. OR                                   10501
A0101405490392225879001DE LUNA, AIDA S.                                        20500
A0101405490392301424001ENCARNACION O. SANTIANO                                  0501
B0101408400394028560004NEW LIFE CHRISTIAN CENTER (THE FORT)                     1602
B0101408400000008699916NEW LIFE CHRISTIAN CENTER (THE FORT                      1602
B0101408400394069832001ABSA BUILDERS                                            1602
A0101408950396559428001HERNANDEZ, MARIANNE PEREZ OR                            10507
A0101408950396559428001PEREZ, MA. MARGARITA                                    20500
A0301400820000002271956COMAINGKING, JESUS B.                                    0501
A0301400820000004073410MALAJOS, ROLANDO                                         0501
A2401400180411514423001DEALA, BERNARDITA GATCHALIAN                             0502
A2401400180411666890088TIONGSON, RALIN SOLIVIO                                  0501
A0901400220000007072499**********                                               0502
B0101403320471041866001ITP PROPERTIES CORPORATION                               1620
A0101403320471478374016SONIA SALANIO                                            0501
A0101412760000007822188CLAMOR, CARLO CABIDOG DBU JQC                           10502
A0101412760000007822188INSURANCE SERVICES                                      20500
A0501400170000000495272VELASCO, GRACIAN TIRAO                                   0501
A0501400170481377879001GERARDO D. MAPATAC                                       0501
A1901400320000012038798MERCADO, MARISEL GARCIA                                  0501
A1901400160000005794905JEFFREY M PEREZ                                          0503
B0101407430000001213169FAST LANE INTERNATIONAL LOGISTICS INC.                   1601
A0101405940000012041200CO, DIANE MARIE ANG                                      0501
A0101403450000000889461DEE, VIRGINIA PO                                         0501
A0101403450521077932001ROSARIO, ERIN LOU MONILLAS                               0501
B0101403450521238052009**********                                               1601
A0101403450521241279001CHUA GUION HONG OR CHONG, RUBY                           0510
A0101403450521423441002**********                                               0501
A0101404130601754700001BORCENA, ANA MARIEL TUMANG                               0501
B0101407720000006028177BIOCARE LIFESCIENCES, INC.                               1602
A0101407720602376178002CABRAL, ANGELICA AMPIL                                   0501
A0101404260000000156803ORDONA, JEREMIAH RAMILO                                  0502
A0101407690652207772001ROBIN OR TERESITA SY SUAN                                0502
A0101411530000000741713**********                                               0501
A0101406590662209694001MOZO JR., VIRGILIO DELA CRUZ                             0501
A1301400340683456739001LAZATIN JR., EDUARDO NIONES                              0502
A0101408240000008854548GATCHALIAN, JOSE SANCHEZ                                 0503
A0101408240000008854479ORTIGAS, GERALDINE JAVIER                                0502
B0101408240000000832780WOWA'S FAST FOODS INC.                                   1610
A0101408240711536525001CALABAZARON, JOYCE PAJATIN                               0502
A0101408240711681273001PACIENTE, LIANN DELDOC                                   0502
A2801400100000000004720REYES, MYRA DBU MRC DENTAL                              10501
A2801400100000000004720CLINIC                                                  20500
A2801400230000005752303JEM'S GASOLINE STATION                                   0501
B4101400260812025637001MAXIMO PAREDES SARTE (MPS) FINANCING                     1602
A4101400260000010623440TOLEDO, SHERWIN H. DBU SOEYCE                           10503
A4101400260000010623440ENTERPRISES                                             20500
A4101400390813248327001SARIEGO, DANILO BAGONA                                   0501
A4101400420814520766134TERESITA A. CASTILLO                                     0502
A4101400550815048121001IGNACIO, ELLEN JOY TRINIDAD                              0501
A0101412340000005139748RAMOSO, AMANDA                                           0501
A0101412340000003422802ANGELICO A. SALGADO                                      0501
A0101412340000007305564ELNA O. GALAROZA                                         0501
A0101405070000005619423CUEVAS, LIBRALYN CATUBIG                                 0501
A0101405070861027133001WORLDLINKS CABLE WORKS                                   0502
B0601400230000002650051GUILING, ERICSON DBU JOASH TRADING                       1610
A0601400230000002650171SANTOS, K DBU ADRICH ENTERPRISE                         10501
A0601400230000002650171OR SANTOS, CARMI                                        20500
A0601400230891326099001MACASPAC, MARIANNE A. OR                                10501
A0601400230891326099001MACASPAC, ARLEN                                         20500
A0601400230891402549001BENEDICT O. DUNGAO OR                                   10503
A0601400230891402549001ANGELICA A. DUNG                                        20500
A0601400230000000990030TALAVERA, FRANCIS GADDI                                 10502
A0601400230000000990030OR TOLENTINO, FE                                        20500
