B0101402060351009401001PHIL. IRON CONSTRUCTION & MARINE WORKS,                 11605
B0101402060351009401001INC.                                                    21600
A0101402060351211780001ALBERTO TAYENGCO &/OR                                   10501
A0101402060351211780001JOANNA INFANTE                                          20500
A0101412890000005913242BELVIS, GOODY LACSON                                     0505
A0101412890000005913333SANTIANO, JUAN MIGUEL ARROYO                             0502
A0101404260611150902001MARITESS OR BERNARD PAMA                                 0501
A0101400860011391589003**************                                           0505
A0101400860011422604001**********                                               0505
A0101400860011743703001**********                                               0510
A0101401250000000441074BUNYE, EMILINA DELA CRUZ OR                             10501
A0101401250000000441074DELA CRUZ, LUISITO                                      20500
A0101401250021478374001BAGTAS, JOSEPHINE P.                                     0501
A0101400150000002671532LORENZO SIXTO T. LICHAUCO                                0502
A0101400150000003162267APRIL ROSE P. AGONCILLO                                  0501
B0101400150000000000124WORLD AVIATION CORPORATION                               1603
A0101400150061039917040CRUZ, REMEDIOS OR                                       10501
A0101400150061039917040CRUZ, EXEQUIEL                                          20500
B0101400150000001708629INNOVEND CORPORATION                                     1603
B0101400150000004980781LED-ETICKLES MEDIA ADVERTISING INC                       1602
B0601400100081038277001B-12 CONSTRUCTION & TRADING CORP.                        1602
B0601400100081042607001W.O. VALENCIA GROUP HOTEL & RESTAURANT                   1605
A0601400100081251829001FELICIANO, EREDITO OR ROSA ANA                           0501
B0601400360000003186861LAZATIN, MARLON REYES DBU M.R. LAZATIN                  11601
B0601400360000003186861ENTERPRISE                                              21600
A0601400520000001349651******                                                   0502
A0101413730000000469125*******************                                      0501
A0101410850000006559897***********                                              0501
B0101406040000008915373********                                                 1602
B0101406040000006025332********                                                 1602
A0101412630000002040551MACARAEG, MARIANNE CAASI                                 0501
A0101401830141433370001ARNALDO P. SERRANO                                       0502
A0101401830141623471001JAVIER, ARJEAN AND CARLOS, DIA                          10501
A0101401830141623471001KRISTINE AND CASTRO, KATR                               20500
A0101401830141752259001CARANDANG, FREDERICK ANGELES                             0501
A0101412920000000041972MARIECRIS F. CABALLA                                     0501
B0101400440000005393717RD PAWNSHOP, INCORPORATED                                1610
A0101400440161525001104EVELYN G. GARCIA                                         0501
B0101407270162046726001VALUE CARE HEALTH SYSTEMS, INC.                          1650
B0101407270162046726001VALUE CARE HEALTH SYSTEMS, INC.                          1650
B0301400790195053525001EMCELI PROPERTY HOLDINGS CORP                            1601
B0301400950000002115862********                                                 1601
A0301400950000002115300ILA ENTERPRISES                                          0504
A0101412500000000739657****                                                     0502
B0101412500000000739737MIKEWELL WORLD OF HOUSEHOLD PRODUCTS                    11610
B0101412500000000739737CORPORATION                                             21600
B0101412500000000739760OMEGA ONE ON ONE FITNESS AND WELLNESS                   11603
B0101412500000000739760CENTER INC.                                             21600
A0101413600000005355200******                                                   0502
A3101400450223352819001FARAON, RIZALINA OR                                     10502
A3101400450223352819001BELEN, RHODORA                                          20500
A3001400130000000007041CHAQ GLASS & ALUMINUM SUPPLY                             0502
B1001400190231039064001*****                                                    1605
B1001400190231040271001ROADNET 2000 ENTERPRISES                                 1602
A1001400350233478374001JUNIO, ROGELIA A.                                        0501
A1001400350233635947001GOMEZ, CHRISTOPHER IAN CARILLO                           0501
B1001400480000007775333CALVARIO, RONALD MARK ANTHONY CASIN                      1601
A1301400470000001299210A.V. PAWAY ENTERPRISES                                   0501
A1301400470252428022001DRA. MA. CLARISSA ELIZABETH                             10502
A1301400470252428022001VILLAROMAN                                              20500
A1301400470252497161001LUCILA L. DELA CRUZ                                      0502
A0101401670000000079225BALLESTEROS, LALAINE BAUTISTA                            0502
B0101401670000008000860PIXELCRAFT DIGITAL PRINTING SUPPLIES INC                 1602
A0101401670271186314001DINA OR GERALD OR MARTIN OR MA.                         10501
A0101401670271186314001PILAR OR JOSEFIN                                        20500
B0101406620273012462001COL FINANCIAL GROUP, INC.                                1615
B0101406620273012462006COL FINANCIAL GROUP, INC.                                1610
A0101406620273236978001CALLEJA, HOWARD MACEDA                                   0503
A0101406620273678366002MAGHIRANG JR., ROSAURO GRANARIO                          0502
B0101411240000000012073ADVANTAGE-VEGA BUSINESS SERVICES INC.                    1601
A0101411240000002332452BAUTISTA, ANNA NICOLE POVADORA                           0502
A6601400120314612973001CABILI, MANUEL MELFORD OR                               10504
A6601400120314612973001MANUEL OR TERESITA OR ZYB                               20500
A0101405650000002960901BALUBAR, TEODORA VILLEGAS                                0501
A0101402510000005803549TAMAYO, MA. CARMENCITA ALMA                             10501
A0101402510000005803549JOSE                                                    20500
A0101402510341201255001MARLENE G. CORPUZ                                        0501
B0101402060351044989001IGLOO CARRIERS, INC.                                     1612
B0201400890376013530017RD PAWNSHOP, INC.                                        1610
A0201400890376633154002JIMENEZ, PETER UTLANG OR                                10503
A0201400890376633154002JIMENEZ, MARIA THERESA                                  20500
A0101402930381094233001ROCHA, MANUELA GUARDIANO OR                             10501
A0101402930381094233001ROCHA, JOSE MARIA                                       20500
A0101402930381464744001MICHAEL L. RIVERO                                        0502
A0101408370000002264024CAPIRAL, RAUL ELLARD SERRA                               0501
A0101415350000008010437KALINGKING, GRACITA ISABEL                              10501
A0101415350000008010437VILLARMIA                                               20500
A0101405490000004808657PALLON, EMILY CASTANEDA                                  0501
B0101405490392043918001GOLDENGRACE MARKETING INC.                               1601
A0101405490392563453002ALLAN L. DE GUZMAN OR                                   10501
A0101405490392563453002MARIVEL R. DE GU                                        20500
A0101408950000003171199MAGLINAO, NELSON MEDALLA                                 0503
A0101409180000003310185VIZMONTE, FRANCINE NELANIE P.                            0501
A0101409180000009240802ANGELYN BADEO                                            0501
A0101409180000009241178FRANCIS MERCADER                                         0501
A0101409180000009241281DAMJAN SARIOL                                            0501
A0101409180000009241383RECHELLE D. VALENZUELA                                   0501
A0101409180000009241418JOBY VARGHESE                                            0501
A0101409180000008122303CANALIN, DINO EDUARDO ARNESTO                            0501
B0101409180397056094001REGUS SERVICE CENTRE, PHILIPPINES B.V.                   1605
B0101409180000002036846IMPACTHUB PH INC.                                        1601
B0101409210000006598954TOUCH BPN INC.                                           1603
B2401400180411014376002PENBANK, INC. (A PRIVATE DEVELOPMENT                    11603
B2401400180411014376002BANK)                                                   21600
B2401400180411040906001JOLYROB FISHING                                          1605
A2401400180411637974001MANANGQUIL, JOHN RAY BETITA  JT                          0510
A1201400150421351199003DALANGIN, MIRIAM AQUINO                                  0501
A0101403030441029489001**********                                               0506
B0101403030000005944738NAUTS AND VECTORS COMPANY INC.                           1605
B0101412760000000031990PRIVE PROPERTIES DEVELOPMENT INC.                        1601
B0501400170481279179001HONDA CARS PANGASINAN, INC.                              1601
B1901400160491030520001VETS IN THE CITY VETERINARY CLINIC                       1602
A1401400110000008266280MORALES, JOLITO GEQUINTO                                 0501
A0101407430503381561003MARY TERESITA M. DE JOYA                                 0503
A0101403580000005328536OLINGAY, FRANCES JOAN PERILLO                            0501
A0101405940512020021002F. LEANO AND COMPANY                                     0502
B0101405940512028730001S' SERVICES, INC.                                        1602
B0101406880000001286357KRIS FINSOFTWARE, INC.                                   1601
A0101408110515732443001MANUEL MELCHOR C. AGUMBAY                                0503
A0101408530000000489670SANTOS, MAY FORTES                                       0501
A0101408530000007981831OLAYTA, GRICELMA LEYNES                                  0501
A0101411790518055764287EMPLOYEES OF ETRADE INFORMATION                          0501
B0101403450521011769001SAFEWAY CUSTOMS BROKERAGE, INC.                          1610
B0101403450521015552001**********                                               1603
A0101403610531532327001CAJIPE, VIOLETA UY                                       0501
A0101404000000009085872GECA, FERDINAND TENORIO                                  0502
A0101404000551295747001ILAGAN, MARIA GILERA                                     0501
B0101404000551706229001PHILKO-CHEM LOGISTICS, INC.                              1610
A0101407720602396824001ALVAREZ, VICTOR MUSCA                                    0503
A0101407720602415232015JONNALYN FORONDA                                         0501
B0101404260611005306001THE HOUSE OF RACOR ADS., INC.                            1605
B0101404260611026750001GREAT ARCHER SALES                                       1602
A0101404260000007498335MARY GRACE C. ABAN                                       0501
A0101413440000000702481VENTURA, JESSICA JOYCE DUMENDEN                          0501
A0101413570656057648011MONA LISSA BEGONIA                                       0501
A0101413570000003380061ESTANISLAO IV, NORBERTO IGMEN                            0502
A0101406590000002277596BABCOCK, MONICA ANGELINE OR                             10505
A0101406590000002277596ROSALES, MARINELLA                                      20500
A0101406590000005305093LLAMAS, TOMAS CORDERO                                    0501
A0101408240711383150001AURELIO III OR AURELIO JR.                              10501
A0101408240711383150001OR AARON LITONJUA                                       20500
A0101408240711547758001SALVADOR, DIOSDADO COSCOLLUELA                           0502
A2801400100000000004753GRIVA, KRISTINE PULIDO                                   0501
A2801400100712039498002VECTOR PEST CONTROL                                      0501
A2801400100000000004720REYES, MYRA DBU MRC DENTAL                              10501
A2801400100000000004720CLINIC                                                  20500
A4101400260000006043090SAN PEDRO, MA. ROSITA F.                                 0501
A4101400420814520766110DELA CRUZ, ARMINDA E.                                    0501
A0101412340000003340490ARLEEN M. AGRIPA                                         0501
A0101412340000003345446CARISSA C. PRAGADOS                                      0502
B0101406750000005608453LOREDO, ELMER DE LUNA                                    1602
A0101406750000004641576DAVID, SANDY DBU PRO BEATBOX                            10505
A0101406750000004641576ENTERTAINMENT CO                                        20500
B0101405070000001161335W4 ALLIANCE SECURITY AGENCY, INC.                        1601
A0101405070861397365001UEDA, EDRALIN DUBLIN                                     0501
