A0101414120000006005298ROY, REY GUIANG                                          0502
A0101414120000003584150NICOLO-MARTIN MARKETING                                  0501
B0101414120000004603321R.M. BARTOLOME CONTRACTOR SERVICES                       1605
A0301400530000003573540GO, JOANNE LU OR XU, ZHIPEI                              0505
A3101400870000000957939ARROYO, ALMA CIELO DE RAMOS                              0501
A3001400130000005446340BALANGA, MARIO FERNANDEZ                                 0501
A3001400130230045294001TABASA, RICKY CARPIANO                                   0502
B2401400180411040003003BRIGADA MASS MEDIA CORPORATION                           1605
A2401400180411041996001BRIGADAROCK GARDEN RESORT                                0510
A0101410690600046558001RANDXELL'S DIGITAL PRINTING &                           10502
A0101410690600046558001PHOTOCOPY CENTER                                        20500
B4101400260812039799001LAGAMAYO DENTAL CORPORATION                              1601
A0101400860011035923001**********                                               0505
A0101400860011559995001**********                                               0503
A0101400860011615005001**********                                               0501
A0101411370000000350423CHIONG, JEFFREY BERMOY                                   0506
A0101400150000003141562KHEMLANI, JANICA JACINTO OR                             10501
A0101400150000003141562BRIONGOS, BEN REI ASIS                                  20500
A0101400150061277712001AFANTE, LIZA ALCANTARA                                   0501
A0101405810000002314603WANG, BAOLIANG                                           0505
A0101405810072234548002TRONCALES, EDGARDO RADAM                                 0510
A0101405810072236268001KENG, LOUELLA JOCELYN BARRETTO                           0501
A0101405810072383395001**********                                               0501
A0101405810000001021207CHEN, TINGYU                                             0510
A0601400520000002270997ENGCO, LEAH DOMINGO OR ENGCO,                           10501
A0601400520000002270997GREGORIO SUAYAN                                         20500
A0101413280000000041852OLA, EDAM CRUZ DBU HIJK SHIRT                           10502
A0101413280000000041852PRINTING & DESIGNS                                      20500
A0101400730000000833141ALMAZAN, SHIELLA MARIE LIZARDO                           0501
B0101400730111036857001FRC SULO RIVIERA HOTEL CORPORATION                       1606
A0101413150000003868377******                                                   0501
A0101413150000002299283TEH, ANTONIO SI                                          0502
A0101401830000000865101YABUT, NINA CHRIS GARCIA                                 0501
B0101401830141008836001STO. NINO PARISH CHURCH                                  1610
A0101401830141060435001AMBM ELECTRICAL SUPPLY AND                              10502
A0101401830141060435001SERVICES                                                20500
A0101401830141292912001EDUARDO P. AMBAS OR                                     10503
A0101401830141292912001JOSEPHINE M. AMBAS                                      20500
A0101401830141410817001AMBUYO, AMANDA DIMAPILIS                                 0502
A0101401830141543824001BENIGNO L. GRAGEDA JR.                                   0501
B0101412920000000276522ENERTHRUST, INCORPORATED                                 1605
A0101400440161385731001ROSANNA L.JUSTADO                                        0501
A0101400440161520766060CRESENCIA CLEOFE                                         0501
B0101407270162008343001SPECIALIZED TRADE & MARKETING, INC                       1601
B0101407270162036459001ULTRATECH PRINTING CORP.                                 1610
A0101401090171390398001CORPUZ, MARY JHO-ANNE TOLENTINO                          0501
A0301400660000000048326CANADA, PAULENE CHAVEZ                                   0510
B0301400660000002913215MANALANG, JANUS CARLO DELA VICTORIA                      1605
A0301400950000004455550CADUAN, MICHELLE D. OR                                  10502
A0301400950000004455550CADUAN, MARLYN D.                                       20500
B0301400950000002115662G.A. MERCADO LENDING INVESTOR, INC.                      1610
A0101401380000000414402VERGARA, MANUEL DIONALDO                                 0501
B0101401380201041802001D'GLACIERS' MGM INC. - MAC                               1602
A3001400130230700871001MUNOZ, BALTAZARA ESCATRON                                0501
B1001400190231014206001PANABO MULTI-PURPOSE COOPERATIVE                         1605
A1001400190231039064001*****                                                    0504
A1001400480000002659783REFUGIO, SOFRONIO RETUTAS                                0502
B1301400470252041195001GAMECOCKS BREEDERS ORGANIZATION OF                      11605
B1301400470252041195001NUEVA ECIJA, INC                                        21600
A0101406460272722876011FLAVIANO, ILUMINADA ALCANTARA                            0501
A0101406460272722876104PANGILINAN, MARIETA SANTOS                               0501
B0101400570281032093001ALPHA VICTORIA HOMEOWNERS ASSOCIATION                    1602
A0101400570281359777001LILY LIM LEY                                             0503
A0101400570281383821001LUISA L. ANG LEY OR LILY L. LEY                          0502
A0501400200000005751635PERDIDO JR., LEONARDO DIWATA OR                         10501
A0501400200000005751635FLORES, JOAN MAY PASTRANA                               20500
A0801400160000002287669ANTIDO, ELLEN JOY ABAJAR                                 0502
B0801400160000001289892WEST VISAYAN CONFERENCE                                  1603
B0801400160311414617001ANOCHE ASSOCIATES INTERNATIONAL, INC.                    1610
A1101400120000001547268JADOC, MA. ARIELYN PALOGAN                               0501
B1101400120000000652879TY, WILLIAM LOBRIO OR TY, MARILOU CHU                    1605
A6601400120314043084001SOLID M CONSTRUCTION                                     0504
B6601400120314612844001MARTINEZ, ANGELINE OR MANUEL OR ORTIZ,                  11602
B6601400120314612844001LEOVIGILDO                                              21600
B2001400290315047753001SILLIMAN UNIVERSITY COMMUNITY COOP.                      1610
B3401400280318821100608**********                                               2003
A0101402350321035519001ANTONIO'S GARMENTS                                      10502
A0101402350321035519001SUB-CONTRACTING                                         20500
B0101402350321037708002RD CASH PADALA, INC.- AREA 1                             1604
B0101402350000000046091ACHIEVE A CAREER TODAY TRAINING CENTER                  11602
B0101402350000000046091& DEV'T. INC.                                           21600
A0101402350321179400001NILDA Q. APISTAR                                         0505
A0101402510341196514001JAIME LIM OR CHRISTINA LIM OR                           10503
A0101402510341196514001GINA LIM                                                20500
B0101402060351023992001TRAINING FOR EXCELLENCE CORPORATION                      1601
B0201400760374041982001OSAM ENTERPRISES                                         1601
A0201400760000002047030SOLON, ENRICO ANTON CLIMACO                              0501
A0201400890376458754001NOMBRADO, GILBERT DOMASIS                                0501
B0201401020000000005078COMMONWEALTH INSURANCE COMPANY                           1602
B0101402930000000623385BMC WELTRADE CORP.                                       1620
B0101408370000000014597MANILA HEALTHTEK INC.                                    1605
B0101408370382028184001PROSER HEALTH SERVICES INC.                              1601
B0101408370000000014666SOLIDWORKS ADVERTISING INC.                              1601
A0101408370382042666001TMC DEPARTMENT OF ORTHOPEDICS                            0501
A0101408370382391922002DR. LOUIS G. GONZAGA OR                                 10502
A0101408370382391922002CHERYLL D. GONZAGA                                      20500
A0101408370382461772001MACARR_PARKING CORP.                                     0502
A0101411660000002309560RIVERA, VENUS TUMPALAN                                   0501
B0101411660000002808120DATEM HOMES, INC.                                        1605
A0101402770391213549001RAMON OR MARILOU VILLARETE                               0502
A0101408400394429737002MAMBUAY, NAIMAH MINANGA                                  0503
A0101408950000000776785AMANTE, ANGEL JOAQUIN MANUEL                             0502
B0101409210000000031192LSC CORPORATION                                          1602
A0101409210398344507001ROXAS, NARCISA NARRA                                     0502
B0101412210000005051336GEOGEN CORPORATION                                       1602
A5501400120000005492220ROCKWELL, SHARON SILVA                                   0501
B5501400120410611616008DARAUG JR., RICARDO OR                                  11605
B5501400120410611616008DARAUG, DELIA                                           21600
B5501400120410611616008DARAUG JR., RICARDO OR                                  11601
B5501400120410611616008DARAUG, DELIA                                           21600
A2401400180000000073527LAFARDZ MARKETING                                        0502
B2401400180411040906001JOLYROB FISHING                                          1610
A2401400180411478374047YOLANDA L. NINGAL                                        0502
A0101403030441029489001**********                                               0506
A0101403320000000067554SANTOS ESTRELLA, AILLEEN VILLAR                          0501
B0101403320471032147001MEDZ SHOES CORPORATION                                   1602
B0101403320000001647241RDT LIONSIDE MOTORS CORP.                                1603
B0101403320000001647252RDT AUTOHAUS CORP.                                       1603
B0101403320471206926002LOLITA B COLINA                                          1601
A0101403320471442993001RUBY-MAE R. BOSTRE                                       0501
A0101403320471478374079FILEMON R. SANTOS                                        0503
B0501400170000001072957ALEJO, ERVIN MARQUEZ AND ALEJO, NORMAN                  11602
B0501400170000001072957MARQUEZ                                                 21600
A1901400160491244619001ALEJANDRO F UY OR                                       10502
A1901400160491244619001APOLONIA AGNES B UY                                     20500
B1401400110492365609001JEORGE S MALIGAT - PILIPINO HARDWARE AND                11601
B1401400110492365609001CONST. SUPPLY                                           21600
B1601400170000000497041ROOTWORX, INC.                                           1601
A0701400260000000041005KALAW, REYNALDO ORTEGA                                   0501
A0101407430503185437004SHIRLEY B. RENIEDO                                       0502
B0101403580511667036001GOLDLINK RESOURCES AND SOLUTIONS INC.                    1602
A0101405940000001047318OREO, NOLI BOY BONDUCAN                                  0501
A0101405940000005068202POLICARPIO, NINONARD SALES                               0501
B0101405940512005312002SHASTA CONCRETE SYSTEM                                   1605
A0101405940512293252004NEAL JOSE O. GONZALES                                    0504
B0101405940512634885001TUGGYS TRAVEL INC.                                       1602
B0101408110515046683001OROSA KAHAYON LAGDAMEO LAW OFFICES                      11602
B0101408110515046683001OKL LAW OFFICES                                         21600
A0101408530516622804001HENRY P. CUREG AND                                      10505
A0101408530516622804001EDNA Y. CUREG                                           20500
B0101403450521012010001********                                                 1603
B0101403450521028565001**********                                               1602
B0101403450521238946001**********                                               1601
A0101403450521239693001*********                                                0505
B0101404000551005023001MECHANICAL HANDLING EQUIPMENT CO., INC.                  1620
A0101404000551340823001JESUS CLINT O. ARANAS                                    0503
A0101404000000000025469CARMONA, JOSE FABIAN PONCE OR                           10503
A0101404000000000025469CARMONA, MARCO C                                        20500
A0101404000551793388001DUMAGAT, MARICAR MEERA &                                10501
A0101404000551793388001DUMAGAT, MARK AN                                        20500
A0101404130601450174001MARISSA A. TALENTO                                       0501
A0101407720000007035156TIAMSON, MARIA SHARON LAGAJINO                           0501
A0101407720602381721001MARIA FE P. VILLAFRIA                                    0504
A0101409920650478374030DELA CALZADA, REGIL OMLANG                               0501
A0101409920000000998569MEMBERS OF NATASHA (SHOECAT INC                         10501
A0101409920000000998569PEDROSA, JULIE                                          20500
A0101413990000000206022BAUTISTA, LOLITA SUAREZ                                  0501
A0101413990000004511077ESPEJO, MA. CAMILLE T. OR                               10501
A0101413990000004511077ESPEJO, MARLO L.                                        20500
B1301400210682039698001SEVENTY SEVEN TRAVELLERS INN CORP.                       1602
B1301400210000005040817ROSSEN LENDING CORPORATION                               1605
B1301400210682248659001ASIANLAND STRATEGIES CORPORATION                         1610
A1301400340683433734001DELA RAMA, CARMELITA LOZADA                              0504
A1301400340683776169001BARAQUIEL, JOCELYN LIM                                   0501
A1301400500684478374003ELMA I. DE LEON                                          0503
A1701400230000005694033MATA, RICHARD SIBAYAN                                    0501
A0101408240711594684001SABILA, GENARO BARAWID                                   0501
B2801400230000000372730JEM SECURITY AGENCY CORP.                                1603
A2801400230000000063210SALINAS JR., BENJAMIN F DBU FDS                         10501
A2801400230000000063210FAMILY CLINIC GEN DENTIST                               20500
B4101400260812039799001LAGAMAYO DENTAL CORPORATION                              1601
A4101400390000001404266SOLAS, SAMARITAN CATARATA                                0502
A4101400390813775566002TUAZON, MARIO CALDERON                                   0502
A0101404840000001312725GUERRERO, EDELMARIE BOBIS                                0501
A0101405070861197518001RICARDO G. CHAN OR                                      10505
A0101405070861197518001OLIMPIA C. CHAN                                         20500
A0101405070861380698001REYES SR., RENATO SISCAR                                 0501
