B3501400180317821100608**********                                               2001
B3501400180317821200608**********                                               2001
A0101400150000001422042RICO PAMFILO, RENA MORELOS                               0501
B0101400150061010809001VENDOME INSURANCE AGENCY KONSULT, INC.                   1603
B0101400150061033285001D' LUCKY ACE DEVELOPMENT CORPORATION                     1601
B0101400150061226857001ARL MARITIME SERVICES INC.                               1603
A0101400150061337098169MA. GISELLE A. LICERALDE                                 0501
B0101402770391009705002VICTORIA VALLEY CONDOMINIUM INTEGRATED                  11602
B0101402770391009705002CORPORATION                                             21600
A0101402770391357751002LEONGSON, ROBERTO OR LEONGSON,                           0501
A0101405490000002141042ALCOREZA, MA.SALOME SISCAR                               0503
B0101400860011389659002**********                                               1603
A0101400860011559271001**********                                               0505
A0101400150061337098069VANESSA CHENG                                            0502
A0101400150061520152001ENGRACIO U. ANG JR.                                      0501
A0601400100000005050311MEJIA, ALLAN SANGALANG                                   0501
B0601400100000000142236ANGELES FORTUNE (HONGKONG) SEAFOOD                       1605
A0101401960121552708001************                                             0502
A0101401960000001844566PANESA, SALVACION VALEZA                                 0501
A7201400170000002791319**********                                               0503
B0101412920000000276711KALAKAL FOOD CONCEPT INC.                                1601
B0101407270162031133001LUCKY CENTRO VENTURES INC.                               1605
A0101401090000006348770LOPEZ, ARNULFO VILLAMOR                                  0501
A0101401090171200238001EDEN G. TOLENTINO                                        0501
A0301400660000000194672DUMALE, CANDIDO NAVARRO                                  0505
B0301400660194044769038LUMINOUS DEVELOPMENT CORPORATION                         1605
A0301400790000000435909KASER, NELIDA AREVALO                                    0501
A0101401380000002297607ABELLA, BRIAN DALE RIVERA                                0501
B0101401380000000106721CFS BAREBOAT CORP.                                       1620
A0101401380201502664001LEY, RICHARD NOEL CO                                     0501
A0101401380201712683001MARCELO, EUGENE MANALANG                                 0502
A3101400160000002355819ELEPANO, RODOLFO CLEMENTE OR                            10502
A3101400160000002355819PICO, GILDA ELEPANO                                     20500
A3001400130000001271363PALUCA, LIZA MORAL                                       0501
A1001400190231520766119CABANO, BERNADITH CATIWALAAN                             0502
A1001400190000002170656AMELINA E. FACTURA                                       0501
A1001400350000000922058ARENO, ANN JANE BUCO                                     0502
B1001400350000000244404GOLDEN MACHINE WORKS CORPORATION                         1602
A1001400350233503410003APARICI, ARMANDO AKIAT                                   0502
A1901400290000001975357JOAN DIMAANO MILLAVE                                     0501
A1901400290000002337782REYNALDO JOVES GARCIA                                    0501
B1901400290000001363188RD PAWNSHOP, INCORPORATED                                1603
B1901400290261821100608**********                                               2010
B1901400290261821200608**********                                               2002
B0101401670271555562003GREEN ASIA REAL ESTATE AND DEVELOPMENT                  11601
B0101401670271555562003INC.                                                    21600
A0101408660000005109853FAJARDO, JOAN JEAN CUIZON                                0501
A0101411240000001563468ENRIQUEZ, FRANCIS XAVIER GARCIA                         10501
A0101411240000001563468OR ENRIQUEZ, CARMELITA                                  20500
B3401400280318045071001ASIA PACIFIC AQUA MARINE, INC.                           1610
A0101402350321533961001GAMBOA, ERIC S. OR                                      10502
A0101402350321533961001GAMBOA, SHIELA P.                                       20500
B0101405650000000772743BF FEDERATION OF HOMEOWNER ASSOCIATION                   1601
A0101402510000006342576PENAFLOR, JOSE CECILIO GAMMAD                            0501
A0101409050000003535077BUENAFLOR, MARIA BIANCA YAP                              0502
B0201400760374042947001MILDS MARKETING                                          1604
A0201400760374043710001TAYUD SANDBLASTING & PAINTING                           10501
A0201400760374043710001SERVICES                                                20500
B0201400760000001612891TOLEDO DEVELOPMENT SERVICES                              1604
A0201400760374091750001******                                                   0510
A0201400920000000047976MEMBERS OF NATASHA SHOECAT INC                          10501
A0201400920000000047976TUBIN, ELVIRA BO                                        20500
B0101402930381008829002AXEIA DEVELOPMENT CORP.                                  1615
B0101402930381019173001MANILA LUXURY CONDOMINIUM CORP.                          1601
B0101402930000000057470J.H. PAJARA CONSTRUCTION CORPORATION                     1606
A0101402930381419788001ALMARITA JIMENEZ OR                                     10501
A0101402930381419788001MA. REGINA COELI JIMENEZ                                20500
A0101402930381658198001MORENO, ABEGAIL VASQUEZ                                  0501
B0101408370382670506001ASIAN HAIR RESTORATION CENTER, INC.                      1610
B0101402770000000080679PANGAN, AVELINO OR PANGAN, ADRIAN BRENT                 11602
B0101402770000000080679DBU TUFFLINE MAR                                        21600
A0101402770391319133001WENDA R. ALMIN                                           0502
A0101405490000002253010ROSEMAE J. SISON                                         0501
A0101405490000002880551MARIE GRACE BUITRE DBU CEDAR                            10503
A0101405490000002880551TREE CONS. SUPPL                                        20500
A0101408400000001981600YU, ELVIS ANG                                            0501
A0101409180000003780687FRANCHETTE BERNADETTE UMALI                              0501
A0301400820000000814168MINAPIT JURADA                                           0501
A2401400180411338845001ROBERTO T. PERALES OR                                   10510
A2401400180411338845001JANET C. PERALES                                        20500
A2401400180411362696001LILIAN C. YUSTE OR JIMMY YUSTE                           0502
A2401400180411478374020MORI, LYDIA                                              0501
A2401400180000001935913PERALES, EVARISTO TAN                                    0501
A0901400220000003069065**********                                               0502
B0101403030441012179001**********                                               1602
B0101406330472027929001STO. TOMAS DE VILLANUEVA PAROCHIAL                      11602
B0101406330472027929001SCHOOL                                                  21600
B0101406330000000432802FLEXTONE CO.                                             1602
B0101406330000000432820SIVI INTERNATIONAL TRADING INCORPOR                      1601
B0101406330000000432831OTO MARKETING, INC                                       1610
A0101410140000001940143DONOS, OLGA CROGILDO                                     0501
A1401400110000001806800BRAVO, EVALOR CABUYA OR                                 10501
A1401400110000001806800BRAVO, RUEL BALD                                        20500
B1401400110492010096001THE HOUSE OF HALINA INC.                                 1602
B1401400110492021158001CALMAR LAND DEVELOPMENT CORPORATION                      1601
A1401400110492320667002AVERIA, SOLOMON DY OR                                   10501
A1401400110492320667002AVERIA, MA.SARAH                                        20500
A1401400110492412423001LUNA, MA. TERESA MAGBOO OR                              10503
A1401400110492412423001LUNA, EDWIN                                             20500
A1601400170000001069227NUNEZ, IRENE AJERO                                       0503
B0101407430503044847001BANJAP PHILTRADE INC.                                    1602
B0101403580511012378001LOYOLA EMPLOYEES ASSOCIATION                             1601
B0101403580511015363001MILLENNIUM ERECTORS CORPORATION                          1610
B0101403580000000214702MEC - CAMBRIDGE                                          1610
A0101403580000000016053MARIA CARMINA S. MESIAS                                  0506
B0101405940512005556001THE FLOWER FARM CORPORATION                              1604
A0101408110515365513003KARIMA HASSAN T. CASTRO OR                              10502
A0101408110515365513003DANIEL OLIVER CASTRO                                    20500
B0101408530516005188001SEARCHERS & STAFFERS CORP.                               1605
A0101412050000006005163**********                                               0501
B0101403450521011745001**********                                               1602
B0101403450000002975666***********                                              1602
B0101403450521038001001********                                                 1601
A0101403450521192368001NGO, TERESITA TAN OR                                    10504
A0101403450521192368001NGO, EDGAR KING                                         20500
A0101403450000001769997**********                                               0501
A0101407720602318369109NIDA A. EUSTE                                            0501
A0101407720000000112158CHUA, JEFFREY LIM                                        0503
A0101407720602613056001CHUA, MA. REDELEEN GAMBOA                                0501
B0101404260611023318001EUNEE TRADERS AND CO. INC.                               1605
A0101409890649748239001**********                                               0508
A0101413440000000702418GARCIA, GREGORIO REY DBU                                10501
A0101413440000000702418SUPERMASTER'S INSURANCE                                 20500
A0101413440000001472602GP-GENESIS DIALYSIS CLINIC                              10502
A0101413440000001472602DIAGNOSTIC CENTER                                       20500
A0101413570000001069596JOHN ROSS R. DELA CRUZ                                   0501
A0101413570656057648085AILEEN DE GUIA                                           0501
A0101413570656057648251ROD MARK VILLADOS                                        0502
A0101413990000002962907REYES, EDWIN CASTILLO                                    0501
A0101413990000003431336*****                                                    0505
A0101406590000005305208LEE, EVANGELINE MONDEJAR                                 0501
B1301400210682038666001EMERALD MANAGEMENT SERVICES &                           11601
B1301400210682038666001CONSULTANCY                                             21600
A1301400210682500958001ESTRELLITA M. ESTABILLO                                  0501
A1301400500000000213021DARCEN, SOLEDAD MERCADO                                  0501
A1701400230693478374031VILMA D. BAGAY                                           0501
A4101400260000003679750REVECHO, BJON UGAY                                       0502
B4101400260000003679783GNM MAHNLEN TRADING INC.                                 1605
B4101400550000003387980PRIMEVIEW CONSTRUCTION CORP.                             1601
A0101412340000002900330ROSELLE B. BORBE                                         0501
A0101404840851520766067JOSEPHINE V. GABAYERON                                   0501
A0101405070861650421001CO, CATHERINE SIM                                        0501
