B0101408660274821100608**********                                               2003
B2801400230713821200608**********                                               2001
A0101414120000006864533BUCAS, JOVEN ILAO                                        0502
A0101400440000001439663MEDCON PHARMA                                            0502
A0101400440161092595001DIONSON, ROCELYN CABALIN                                 0501
A0101414120000001142863*****                                                    0501
A0101414120000007655185NELLCON BUILDERS AND                                    10501
A0101414120000007655185CONSTRUCTION SUP                                        20500
A0101405810000009970158WANQING WU                                               0501
A0101415350000007043752PARAJAS, ARSENIO P. DBU AAGP                            10504
A0101415350000007043752OR PARAJAS, GRACE                                       20500
B0101403580511046747001HUDDLE ROOM MEDIA INC.                                   1602
A0101403580000000016053MARIA CARMINA S. MESIAS                                  0508
A0101403580511775206001NILA P. DACANAY                                          0501
B0101406590000006921593SAMUEL T. AGUSTIN II CONSTRUCTION CORP.                  1603
A0101400860011568203001**********                                               0503
A0101400150000000253278GELANO, ANGELO RECTO                                     0501
A0101400150000009401525JULIETA D. TAOPO                                         0502
B0101400150000004090260LEGASPI VILLAGE LAND PROPERTIES, INC                     1602
B0101405810072018018001AIMWAY PLASTIC & PRINTING CORP.                          1602
B0101405810072029570001PLASTIC CONSUMER CORPORATION                             1602
A0101405810072334553001**********                                               0502
B0601400100000000032782BARANGAY CUTCUT MULTIPURPOSE COOPER                      1601
B0601400100000005690593BALIGRILL FOOD CORPORATION                               1605
B0601400100000005690600BALIGRILL FOOD CORPORATION                               1603
B0601400360000003186849TSS TRIXAN SUPPORT SERVICES                              1602
B0601400520000004423396GO JR., LUIS BENITO AND SERRANO, FRANCIS                11603
B0601400520000004423396PEROCHO                                                 21600
A0601400520000001349560MAGAT, ALLAN MANLAPIG DBU MAGAT                         10501
A0601400520000001349560ACCOUNTING FIRM                                         20500
A0101410560000001944210BANES, GENELYN C DBU DARKSIDE                           10502
A0101410560000001944210RESTAURANT AND DISCO BAR                                20500
A0101400730111334903012EMELITA E. BATO                                          0501
A0101400730111477184001MARCOS, BEVERLY MEYAS                                    0502
A0101401960000002331664***********                                              0501
A0101401960121238763003**********                                               0503
A0101401960121380499001**********                                               0501
A0101412630000007158081MUNCADA, ROSARIO SO                                      0501
A0101413310000002318003DELA CRUZ, JOEL ANQUI                                    0501
B0101401830141043106001CHEF'S SECRET INC.                                       1601
B0101401830141059061001URGINO, MARIA CARMENCITA DBU MARICAR'S                  11601
B0101401830141059061001DANCE STUDIO                                            21600
A0101401830141066133001BINALA, PAUL ANTHONY Y DBU                              10501
A0101401830141066133001EPL GENERAL MERCHANDISE                                 20500
B0101401830141066155001BUCE, ANTONIO C DBU BDMA MOTOR WORKS JT                  1601
A0101401830141206536001PEDRO S. FLORES OR                                      10505
A0101401830141206536001IRMA G. FLORES                                          20500
A0101400440161039572036ANTONIO S. VILLANDA JR.                                  0501
A0101400440000008201261MARY JANE C. JAYA                                        0501
A0101400440161525001119NORA S. TALENTO                                          0501
A0101407270162033562001BIG DAWG HOSTING INTERNET CAFE                           0501
B0101407270162044681001SYSTEMPLUS CONSULTANCY CO.                               1601
A0101401090171481442001STA. ANA, ALVIN MACARAIG                                 0501
B0301400660000003361862SOUTHSHIP HANDLERS PHILIPPINES INC.                      1602
B0301400660000000195306G.E. 64 ENTERPRISES, INC.                                1605
B0301400660000003361891TUNAY AGRI-CHEMICALS CORPORATION                         1606
B0301400660194469662168*****                                                    1605
A3101400160000008941351CRISOSTOMO, JONA YAMBOT                                  0502
B3101400160221024274002STA. CECILIA BUSINESS CENTER                             1601
A3101400450223206930002NAPOLEON ENRIQUEZ II OR                                 10501
A3101400450223206930002FLOR ENRIQUEZ                                           20500
A3101400450000005355471CIGARAL, PEDRITO EXCONDE                                 0503
A3101400450000000163506PEREZ, RAFAEL SALAMAT                                    0501
A3001400130000000668480URIARTE, JORIME JANE NGO                                 0502
A1001400190231274272001****                                                     0503
A1001400190000000016468NERI, JENNY RACAZA                                       0501
A1301400470000000009970AIMEE C. VENTANILLA OR                                  10501
A1301400470000000009970SOLITA P. CHUA                                          20500
A0101408660000006296780TOBILLO, PAUL JOSEPH NARVAEZ                             0502
A2601400270000005301739GAUDIOSO TALAVERA JR OR EMILIA                          10503
A2601400270000005301739TALAVERA                                                20500
A1101400120000001547520TAN, MELVIN NATHANIEL ANDRADE                            0502
A1101400120313478374074UNGAB, ROSALINDA B.                                      0501
A1101400120000005608191CELSO, GORGIE CAROLA                                     0501
A0101402350000003880499SOLITARIO, SANDRA DAHILOG OR                            10501
A0101402350000003880499SOLITARIO, KIM CASEY D.                                 20500
A0101402350321638427001RONALYN O. MUGAR                                         0502
B0101402350321738079001OLIVAREZ GENERAL HOSPITAL INC.                           1610
A0101405650000006893389MACATULA, JOEL OCHOA                                     0502
B0101405650322025100001GLOBAL PACKAGING SYSTEMS AND MATERIALS                  11601
B0101405650322025100001CORP.                                                   21600
B0101405650322045649001SILVERLINE INDUSTRIAL SUPPLY                             1601
A0101405650322225574001HORNSHAW, ALICIA S. OR                                  10503
A0101405650322225574001HORNSHAW, RAYSON                                        20500
A0101405650322677389001FERRER, DANILO LIQUETE                                   0501
B0101405650322821200608**********                                               2001
A0101402510000001025983ROSITA/MARIE STELLA NAVARRO/                            10501
A0101402510000001025983MARIO POTENCIANO                                        20500
A0201400920000000048031FMC CATERING SERVICES                                    0502
A0201400890000002270195*********                                                0501
A0101408370382313183001DR. SIDNEY Y. CHENG                                      0504
A0101408370382392979001-----------                                              0503
A0101408790000002031492AGUILAR JR., ERNESTO VERONA                              0501
A0101415350000007877852PELAYO, JESCTONI TORRES                                  0501
B0101402770000001571728NONILON BORJA AND MONICA DE BELEN AND BO                11601
B0101402770000001571728NIFACIO ANDRADE                                         21600
A0101402770391035543001MEGACITY MINISTRY CHURCH                                10504
A0101402770391035543001SUPPORT GROUP                                           20500
B0101402770391039149001ASIA PACIFIC ACCELERATED CHRISTIAN                      11603
B0101402770391039149001SCHOOL                                                  21600
A0101405490392032343001TWIN PEAK BRASSIERES                                    10504
A0101405490392032343001MANUFACTURING IN                                        20500
A0101408950000003171202LIM, CHAUNCEY KESTER LAO                                 0501
A0301400820000001554763DICO, ELSA OR GEMINA, VANESSA                            0501
A5501400120000005492377JAVELLANA, LEMUEL MASA                                   0501
B0101403030441303324001**********                                               1602
A0101403030441673721001**********                                               0505
B0101412890000000006942SOLID INTEGRATED COMPANY, INC.                           1601
B0501400170481013156001K SERVICO TRADE, INC.                                    1603
A0501400170481046585002ANG, JUSSLYNN DBU                                       10502
A0501400170481046585002AVS DISTRIBUTION                                        20500
A1901400160491282845004ARTHUR MALALUAN AND                                     10501
A1901400160491282845004MILA PANGANIBAN                                         20500
A1401400110492621336001MOISES, JESSIE LOSAURO                                   0501
A0101407430000000044879OLIVER E. SALTA                                          0501
A0101405940000000002739********                                                 0501
A0101405940000005068286BAYANIN, MA. VIDA BELLE                                  0501
B0101405940000000002940DLSU MED CLASS 1991 INC.                                 1602
B0101408530000001275172PHILIPPINE BRITISH ASSURANCE CO., INC                    1615
A0101408530000000489590SANDOY, ROVIC AGUTAYA                                    0503
A0101408530000000489572SRIKANTH SRINIVASAN                                      0501
B0101403450000006055836**********                                               1610
B0101403450521013451001**********                                               1605
A0101403450521238157003**********                                               0503
A0101403450521239151001**********                                               0505
A2201400250561478374062JENNIFER M. RAMOS                                       10501
A2201400250561478374062MEMBERS OF NATASHA                                      20500
A0101407720602353609002ANTONIO V. SANTIAGO                                      0502
A0101407720602385918001BERNARDO, CARMINA                                        0505
A0101407720602396414002KATERINA TANYA P. GOSIENGFIAO                            0502
A0101404260611478374097MILA B. RIELO                                            0501
A0101404260611615265001VEGA, JUVIE SABUCLALAO                                   0501
A0101409920000001951982MEMBERS OF NATASHA (SHOECAT INC                         10501
A0101409920000001951982TORRELIZA, GINA                                         20500
A0101406590662035265001******                                                   0502
B1301400210682038666001EMERALD MANAGEMENT SERVICES &                           11601
B1301400210682038666001CONSULTANCY                                             21600
B1301400500000005963404PAGASA PHILIPPINES LENDING COMPANY INC.                  1606
B0101408240711039263001STALWART REALTY, INC.                                    1620
B0101408240000002419923NUTRIBASICS CORPORATION                                  1605
B2801400230000005253561PRAGMATIC DEVELOPMENT & CONSTRUCTION                    11610
B2801400230000005253561CORP.                                                   21600
A4101400260000009533575ASUNCION, BENJAMIN P. DBU B.P.                          10502
A4101400260000009533575ASUNCION TRADING AND CONS                               20500
A4101400390000001404266SOLAS, SAMARITAN CATARATA                                0502
B4101400420814012637001ANABU DEVELOPMENT COOPERATIVE                           11605
B4101400420814012637001(ANADECO)                                               21600
A4101400420000003715564SARIA, LESTER DBU DESERT QUENCH                         10501
A4101400420000003715564WATER REFILLING                                         20500
A4101400420814520766074VESTUIR, ROSALINDA                                       0501
A4101400550815693134001LLANES, TUDOR HERNANDEZ OR                              10501
A4101400550815693134001LLANES, PRESCILL                                        20500
A0101412340000000031090BUDOMO, JENNIFER MARCELINO                               0501
A0101412340000007305520ROWENA P. GONZALES                                       0502
A0101404840000008871303TOLISORA, MELODY VILLAREAL                               0502
A0101404840851478374062VIOLITA V. GIDUCOS                                       0503
A0101406750852182653002WILSON, ERLINDA JOSON                                    0501
B0601400230000006045289R3NM GEN. SERVICES & TRADING CORPOR                      1602
