A0101403320000010449260PASA, MARGIE TANGPUZ                                     0501
B4101400420814034973001JOVEN TIRE ENTERPRISE                                    1601
A0101400150061330224003LAGDAMEO, ROWENA PINLAC                                  0501
A0101400150061370228181MARIA THERESA DALUMPINES                                 0501
A0101409210000002278953CARLOS, ZANDRO LUIS SAMPANG                              0501
A0101409210000006605347REBONG, SAMUEL                                           0502
A0101409210000009966789SAGNIT, ANTHONY MAGNO                                    0501
B0101400860000001005423***********                                              1602
A0101400860000001348738************                                             0502
B0101400860000000030359********                                                 1605
A0101400860011425868001**********                                               0502
A0101400860000000100863**********                                               0503
A0101401250021476357001CATHERINE GO UY                                          0501
A0101400150000006239261CONSULTA, JOSEPH CHRISTIAN O.                            0502
B0101400150000001708572ALGO LEASING AND FINANCE INC.                            1601
A0101400150061227493001OLIVIA R. SUSA OR                                       10502
A0101400150061227493001JOSE B. SUSA                                            20500
A0101400150061229814001LEONCIO C. LIM                                           0501
A0101400150061341283001DIAZ, CYNTHIA MARTINEZ                                   0501
A0101400150061370657001EVANGELINE S. JOSON OR LEARDO                           10501
A0101400150061370657001T. JOSON JR.                                            20500
A0101400150061564610064BUENAFLOR, MARIA GERALDINE ROSE                          0501
B0601400100081035921001MOTHER'S CAKE HOUSE AND RESTO, INC.                      1605
B0601400100081296256001CHRISTOPHER OR LOYA MALLARI FAO CHRISSAN                11603
B0601400100081296256001AUTO SUPPLY                                             21600
A0601400520000002085792PANGILINAN, SER ANTHONY FRANCO                           0502
A0601400520000005001374LAXAMANA, KC OHLA VALENCIA                               0502
A0101413730000002229723***********************                                  0501
A0101410850000002356896*************                                            0510
B0101400730000000002513CITIMILES TOURS AND TRAVEL CO.                           1601
B0101400730000009053430ADSATTACK INC.                                           1602
A0101413310000009641038PLANA, RHOLETTE FRANCO                                   0501
A0101401830000003508632LIM, JOVEN AGUILAR                                       0502
A0101401830141239325001CRUZ, VERNON CRUZ                                        0504
A0101400440161382309001DIMAL, PATRICK MANUEL                                    0501
A0101400440161525001131RIA B. IBANEZ                                            0501
A0101400440000000596516ESGUERRA, RAMON HIPOLITO                                 0501
A0101400440161565865001MARIA KATHRINA G. SALVADOR                               0502
A0101407270000003254220REYES, LEO ALDRIN CANAVERAS                              0501
B0101407270162033826001UNI-FILES SAVER CORPORATION                              1610
B0101407270162061497001GRAND TAIPAN LAND DEVELOPMENT INC.                       1603
A0101401090000001618606AMADO VICTOR A. BELTRAN                                  0505
A0101401090171197850001TERESITA G. ALMADIN                                     10501
A0101401090171197850001OR ROMEO G. ALMADIN                                     20500
A0101401090171199075001LORNA O. KUGENUMA                                        0502
A0101401090000007525728LOLITA S. VILLARANTE                                     0501
B0301400530193041076168BLACK FIGHTER SECURITY AGENCY, INC                       1610
B0301400530193691303188********                                                 1605
A0301400530193699585001BENEMERITO, MARIA C.                                     0503
A0101401380201180023001EVELYN DEL MUNDO                                         0505
A3101400160221478374027ERNESTINA S. VILLANUEVA                                  0501
B3101400450000000014126PERLA COMPANIA DE SEGUROS, INC.                          1601
A3101400450223489008001SIO, MINNIE REGINA OR JOSELITO                           0501
B3001400130000006004693DEDICATORIA, ROMEO DBU LCM MARKETIN                      1610
A3001400130000008264762RICHELLE SUMIPO DRESSED CHCKEN                           0501
A1001400190231478374159TILLO, ROMEO B.                                          0501
A1001400190000001057636VIRTUDAZO, JENEFER S.                                    0501
A1301400470252497161001LUCILA L. DELA CRUZ                                      0503
A0101401670271475286001ALBERNINA PASCUAL-LOPEZ                                  0502
B0101406460000001231656EASTGATE COMPUTER CORPORATION                            1601
A0101400570281019045001INTRA TIRE RETREADING                                    0503
A0101400570281423865002RIBAYA, VICTORIA CABRERA                                 0502
A0101400570000000470604RABANAL, EVELYN TINONG DBU                              10502
A0101400570000000470604RAKIS FOOD SERVICE                                      20500
A0501400200292567569001LARILYN D. GATCHALLAN                                    0501
A2601400270302574301001ALEX UY TY                                               0501
A6601400120000001065292AOYANG, DONABEL CERBITO                                  0501
B0101402350321024658002OLIVAREZ COLLEGE INC.                                    1608
B0101402350321046288001TMI FOOD PROCESSING & DEV. INC.                          1604
A0101402510341433983002********                                                 0505
A0101409050000000601403MILITAR, JODIELYN GUSTILO                                0501
B0101409050352039982002RIVERSTAR FOOD CORPORATION                              11603
B0101409050352039982002(ADMIN)                                                 21600
B0101409050000007526389MACUJA, J DBU MC8 LINES CONSTRUCTION                     1604
B0201400760374033217001DISCIPLING ANOTHER TO LOVE JESUS AS                      1601
A0201400920000001331559JNJ FURNITURE AND DESIGNS                                0505
B0201401020000000470211DULCINEA SUITES AND HOTEL                                1601
B0101408370382045343001THE MEDICAL CITY PSYCHIATRY AND WE CARE                 11602
B0101408370382045343001ASSOCIATION INC                                         21600
A0101408370382409914002ALONZAGA, JOEMILY V.                                    10501
A0101408370382409914002ALONZAGA, KENNETH L.                                    20500
A0101405490000006214142******                                                   0502
A0101405490392016165001FRANTER TRADING & CONTRACTOR                             0503
A0101408950000007459041NAVA, REGINA CASTILLO                                    0501
A0101408950000003171291MAGNAYE, MARIA GRACIA SAPIN OR                          10501
A0101408950000003171291MAGNAYE, EVANGELINR                                     20500
B0101408950396037899001NOLSEN CONSTRUCTION & TRADING                            1602
A0101409210000005251861MORALES, BELINDA FLORENDO                                0501
A0101409210000005251861MORALES, BELINDA FLORENDO                                0501
A0301400820000002271956COMAINGKING, JESUS B.                                    0501
A0301400820000007134870COMIA, JULIETO MORTA                                     0502
A1201400150421200676001MAULBECKER, HEINRICH                                     0501
A1201400150421542693001KVAALEN, SVEIN OLAV OR KVAALEN,                         10501
A1201400150421542693001ARLENE FONTANILLA                                       20500
B0101403030441336479001**********                                               1602
A0101403320471478374003BELICANO, LERMA D.                                       0501
A0101403320471547066001CRUZ, KRISTIN JOYCE DE GUZMAN                           10501
A0101403320471547066001CRUZ, ALEX S.                                           20500
B1401400110492365609001JEORGE S MALIGAT - PILIPINO HARDWARE AND                11601
B1401400110492365609001CONST. SUPPLY                                           21600
B0101407430000001213192SHIMBURUM CENTER CORP.                                   1602
B0101407430000001213238PEREZ, CRISTY DBU CRISTY F PEREZ CUSTOMS                11602
B0101407430000001213238BROKERAGE                                               21600
A0101407430503281227003EMMA T. CUREG                                            0501
A0101407430503378986001VILMA SANCHEZ MONTILLA                                   0501
B0101405940000005359571TOPSTRASSE GLOBAL INC.                                   1603
B0101405940000005359593STAR MOTOR ARMORING TECHNOLOGIES, INC.                   1602
A0101408530000006599855**************                                           0503
A0101411790518055815081PEREZ, MARY GRACE BACLAGAN                               0501
B0101403450521011744001CBK CONSTRUCTORA, INC.                                   1603
B0101403450521011882004PAN PACIFIC TRAVEL CORPORATION                           1603
B0101403450521012032001**********                                               1603
A0101403610000007125000PILI, GISELLA ALVAREZ                                    0502
A2201400250561037321001PTT NORTH RAMP GASOLINE STATION                          0501
A2201400250000006736218BALOT, FLORENCIA CATACUTAN DBU                          10501
A2201400250000006736218SAN FRANCISCO REALTY                                    20500
A2201400250561253789001MELIZA TRACY G. FLORES                                   0501
B0101404130601563008001I. PRUDENTIAL SHIPPING AGENCY SERVICES                  11605
B0101404130601563008001INC.                                                    21600
B0101407720000006945282GREEN LIFT ELECTRO SYSTEMS &                            11602
B0101407720000006945282SERVICES, INC.                                          21600
A0101407720602318369101JOHNNY B. SINON, MD                                      0505
B0101412180000001293016JENNIEDEDIOS INC.                                        1603
B0101404260611005561001WILSTRONG LUMBER & HARDWARE                              1603
A0101404260000006374252MENDOZA, DAISY LAPIDEZ                                   0501
A0101413570656057648042RACQUEL CRUZ                                             0501
A0101413990657067002001DIGISENSE SENSOR SYSTEMS                                10501
A0101413990657067002001DEVELOPMENT                                             20500
A0101413990000007318687WILHELMINA C. REYES                                      0501
A1301400210682478374032EVELYN P. PEREZ                                          0501
A1301400340683590977001NON, JOHN VIADO                                          0501
A1301400500000000011274*************                                            0510
A1301400500684058869001YOUNG BUILDER'S TRADING                                  0502
A2801400100000005475389SERVITO, ALMA RESIDE                                     0502
B2801400100000001494511MANABAT, CRISTINA DBU A. TEJ. TRADE &                   11602
B2801400100000001494511MARKETING                                               21600
A4101400260812042426001MAC-3-A CONSTRUCTION SUPPLY                              0502
A4101400260812417728001NANETTE V. VILLANUEVA                                    0501
A4101400390000001404266SOLAS, SAMARITAN CATARATA                                0502
B4101400390000003346187PAGASA PHILIPPINES LENDING COMPANY                       1603
A4101400420000003715564SARIA, LESTER DBU DESERT QUENCH                         10501
A4101400420000003715564WATER REFILLING                                         20500
A4101400420814478374162RODORA A. CAUSAREN                                       0501
A4101400420814480121001FABREAG, DELIA FLORES OR                                10502
A4101400420814480121001FABREAG, BOBBY F                                        20500
A4101400420000007305502ESCOBAR, ANGELITA E.                                     0501
A0101412340000007404373ENJELICA D. TAN                                          0501
A0101412340000007305564ELNA O. GALAROZA                                         0501
A0101412340000007305644MAYLENE S. ABELLA                                        0501
A0101404840000004565919VARGAS, RHODORA N.                                       0502
A0101404840851542980001MASANGCAY, NORA VERCELES                                 0501
A0101405070861449261002RONCO, LEABETH LOPEZ                                     0501
A0601400230000000452840GOZUN, R-JAY RAMOS OR                                   10510
A0601400230000000452840GOZUN, MYRNA RAM                                        20500
A0601400230891746394001**********                                               0502
