B0301400530193821100608**********                                               2005
A0101402060000002258831ANGELES, JOSE AMADO RAYMUNDO                            10503
A0101402060000002258831OR ANGELES, LEON                                        20500
B0101402060351030802002PACIFIC RESINS INC.                                      1602
A0101411370000000470422CORIA, WILLIAM T. DBU IVERT                             10501
A0101411370000000470422ENTERPRISE                                              20500
A3001400130000008264802AREZO, JOVIE L.                                          0501
A0101402510000011695033ORTEGA, DECELYNDA CABARDO                                0503
A0101402060351414987003NOBLE, FELICISIMA CASANOVA                               0502
A0101400860011402005002********                                                 0502
A0101400860011483037001CASTRO, ROWENA                                           0502
A0101400860011542443001**********                                               0505
A0101400860011615005001**********                                               0501
B0101401250021040083001LIWAYWAY MARKETING CORPORATION                           1601
A0101411370000005524421BATUIGAS, AURORA REBOQUIO                                0501
A0101400150000003163904MANILETTE R. CORPUZ                                      0501
A0101400150000003217978MARIA DENISE G. RUBIO                                    0501
A0101400150000003218620ANDREW P. YABUT                                          0502
A0101400150000003322283LEGATA, JOSE JR. MEJIA                                   0501
B0101400150061010855001MANTA EQUITIES, INC.                                     1610
A0101400150061227746001ROSA MARIA G. TUMANGDAY                                  0501
B0101400600071233748002**********                                               1601
A0101405810072234892001**********                                               0501
B0101405810072361051003**********                                               1602
A0101414090000002282828MEDINA, DORIS MARIE MENDOZA                              0501
A0101414090000001652397DUQUE, ALVIN RYAN YANGA DBU                             10501
A0101414090000001652397SCHOONER EYEGLAS                                        20500
A0101410850000003503977MARINAS, MARIARITA MANAGUIO                              0501
A0101410850109046512001ELORIAGA, CARMELITA DBU BLUE                            10501
A0101410850109046512001DIAMOND TRAVEL CONSULTANC                               20500
B0101410850000007294291BALYENA TANKER CORPORATION                               1602
A0101410850000008264153CORDOVA, C DBU CLC BOTTLE                               10503
A0101410850000008264153RECYCLING CENTER                                        20500
A0101410560000002316558LAGASCA, CHERIELYN                                       0501
A0101410560000010093459GAMARA, ROSEMARIE PUEBLO                                 0501
A0101400730000001016540DEL ROSARIO, ANGELICA RAMIREZ                            0501
A0101400730111370569001MANABAT, DANILO MORALES OR                              10501
A0101400730111370569001ARLENE MANABAT                                          20500
A0101400730111718087001PASAGUE, LALAINE TRINANES                                0501
A0101401960121380499001**********                                               0501
A0101401830141205414001SABIJON, THELMA SEBALLOS                                 0502
B7201400170000003773579JESUS BAJAMUNDE JR. & GRACE MARIE ASUGAS                11602
B7201400170000003773579& HERNANE CORTEZ                                        21600
A7201400170000009673287BOLOTAOLO, ROSE MARIE NADALA                             0501
A5001400170000000214002REQUINA, ORWINO ATAY                                     0502
A0101407270162331908032LIZA LEAH JUINIO                                         0501
A0101407270162387970001******                                                   0503
B0301400530193037586088I. NEO ENTERPRISES                                       1606
A0301400530000001409405NEO EMPIRE HOLDINGS CORPORATION                          0506
A0301400530193504844111********                                                 0503
B0301400530193551574001********                                                 1605
A0301400790000001244600YBANEZ, RITCHIE AGUIO                                    0501
A0101401380000000106505SY, WILFREDO O. DBU TITO ROM                            10503
A0101401380000000106505SA CAPITOL RESTAURANT                                   20500
B0101401380000000106721CFS BAREBOAT CORP.                                       1620
B0101412500000003408153********                                                 1604
A0101413600000005794654AMELYN G. ALCANTARA                                     10501
A0101413600000005794654DBU BLUEPRINT ENTERPRISE                                20500
B3101400160221284706002INSTITUTE FOR FOUNDATIONAL LEARNING INC                  1603
B3101400160000004362787INSTITUTE FOR FOUNDATIONAL LEARNING INC                  1602
A3101400450000011364300JALANDONI, BENJAMIN FRANCIS OR                          10501
A3101400450000011364300MARGARITA VIVIEN                                        20500
A3001400130000002063485BATUCAN JR., IRENEO PAYLADO                              0501
B1001400190231026876001PEOPLE'S AGRI SERVICE & SUPPLY, INC                      1605
A1001400190231520766093NODADO, REYNOZA                                          0501
A1001400190000001057396LOLITA B. DULCA                                          0501
A1001400350000000922058ARENO, ANN JANE BUCO                                     0504
A1001400350000008698797DIESTO, ROBERTO CHIU OR                                 10501
A1001400350000008698797DIESTO, DOLORES CHIO                                    20500
B1001400480000000133582HI-TEK ELECTRO MECHANICAL SALES &                       11602
B1001400480000000133582SERVICES CORP.                                          21600
A1301400470252033790001A-1 SHELL SERVICE STATION                                0502
A1301400470252434868001************                                             0501
A1301400470252478374018ELIZABETH P. BARNACHEA                                   0502
A1301400470252763998001BEVERLY C. EVANGELISTA                                   0501
A1901400290000011678803PATRICIA ISABEL ILAGAN BAUTISTA                          0502
B1901400290261033408001FEEDS EDITION DISTRIBUTION SYSTEMS INC.                  1610
A0101401670000001598503MACARAMBON, FAROUK M. DBU FIAT                          10505
A0101401670000001598503CONTRUCTION SERVICES                                    20500
B0101401670000009426068MONTON VIRGIE GOMEZ DBU LAVAPORT TRADING                11604
B0101401670000009426068INTERNATIONAL                                           21600
B0101401670000011534364***********                                              1603
A0101406460272478192001NEBRIL, DONNALYN SAN JUAN                                0501
A0101406620000001686735PEREZ, RENE ANDOG                                        0501
A0101406620000002009110HYGEIA C. CALAOR                                         0501
A0101411820000001356769NATHANIEL L. LOPEZ                                       0501
A0801400160311398506001PALMARES, REGIL CORDERO                                  0505
A0801400160311478374103MERLINDA GUARDAMANO INAYAN                               0501
A0101402350321478374058DELA CRUZ, MERLITA GABON                                 0501
A0101405650000006893469YSMAEL JR., CARLOS GONZALEZ OR                          10501
A0101405650000006893469YSMAEL, LOURDES MARITA                                  20500
B0101405650322025345001ARGO INTERNATIONAL FORWARDERS INC.                       1601
A0101405650000010319085PULUMBARIT, GIL REYES                                    0502
A0101402510000001292371PERRERAS, ROSEMARIE MIRALLES                             0501
A0101402510341202209003********                                                 0501
A0101402510341318724004SEGUNDINA Y. CASTRO                                      0502
A0101409050000006987731MICHAEL ANGELES                                          0502
A0101409050000011151065SAPORSANTOS, REGINA ANTONIO                              0502
A0101409050352657801001DAVID ROMELLE C. VIRAY                                   0501
A0201400920000000048013BUDOMO, MARYTHER HEYROSA OR                             10501
A0201400920000000048013HEYROSA, XENIA M                                        20500
B0201400920375034692001HERMAG VILLAGE HOMEOWNERS                               11602
B0201400920375034692001ASSOCIATION                                             21600
A0201400920375034984002CITY LIGHT ELECTRONICS SERVICE                           0505
B0201400890000007877250EASTERN PACIFIC SHIPPING CORPORATION                     1602
B0201400890000007877330ESPRINT SYSTEMS, INC.                                    1602
A0101408370000009296762MENDOZA, SARAH CHRISTINE DOMING                          0502
A0101402770000010082601FALLARIA, BENJO MARCO N. OR                             10501
A0101402770000010082601FALLARIA, BENEDICT N.                                   20500
A0101408400394396735001QUILATAN, ANNA RICHIE ANDRES                            10510
A0101408400394396735001OR QUILATAN, ANATALIA A.                                20500
A0101408400394478374094NUNEZ, GENIE                                             0502
A0101408950000012093060TAN, DARYL PESTANO                                       0501
A0101408950000010507165ABAYA-BLAS, ROSARIO SALUD                                0501
A0101408950396770365001PALENCIA, JENIFFER QUIAMBAO                              0501
A0301400820000006542801FAGUTAO, FERNAND OR                                     10501
A0301400820000006542801FAGUTAO, CYD CELESTE                                    20500
A0301400820000007372810GOLIMLIM, MARICHU M.                                     0503
B0301400820409091735055LIMA, WINDELL BRISTOL DBU DAVAO HOME                    11601
B0301400820409091735055BUILDERS CENTER                                         21600
B0301400820409091735055LIMA, WINDELL BRISTOL DBU DAVAO HOME                    11601
B0301400820409091735055BUILDERS CENTER                                         21600
B2401400180411056764001RD PAWNSHOP, INC. - GENSAN REGION                        1603
A2401400180411059128001ELZANO ENTERPRISE                                        0502
A0901400220000000012299GAYON, MARINA TACHADO                                    0502
A5101400100000010371103GABRINO, GENEVIEVE CHINGBEE TUL                          0501
B0101406330000000432886PAN-EURASIA SALES MARKETING CORPORATION                  1601
A0101406330472214807001EMELDA P. LINDAYAG OR                                   10501
A0101406330472214807001MIGUEL P. LINDAYAG                                      20500
A0101406330472296884001JAYLEE TRADING                                           0504
A0101406330472495381001ERICK JASON LATORRE JOSE                                 0502
A0101406330472520087001MARIA MERLY R. CASTILLANO                                0501
A0101412760000002306229DE GUZMAN, DUSTIN EWALD DANTES                           0501
A0501400170000006300629GAZMEN, ARNEL GERARD RAYOS                               0502
A0501400170481385350001MARILYN FERNANDEZ OR CAROLINE                           10502
A0501400170481385350001FERNANDEZ                                               20500
B1901400160491068033002QATAREX CORPORATION                                      1601
A1401400110492329425003CUACHON III, NORBERTO AMILHAMJA                          0502
A1601400170000001360758TAN, ROBERTO LISTANA                                     0501
A1601400170494069923001GENARA FARM                                              0501
A0101403580511403658007ROBERTO G. MANABAT                                       0503
B0101408530516033225001KONECT COMPANY                                           1601
A0101408530516508072001TOMACRUZ, ANTHONY R. OR                                 10501
A0101408530516508072001TOMACRUZ, MA. GE                                        20500
B0101411400000001280477NEXT TECH. RESOURCES CORPORATION                         1601
A0101403450000009517648**********                                               0501
B0101403450521011620002FAR EAST ALCOHOL CORPORATION                             1605
B0101403450521011910001KITCHEN BEAUTY MARKETING                                 1605
B0101403450521238191001**********                                               1610
A0101410690000000710741FAJARDO, MARIA RAMONA CANLAS                             0501
A0101407720602396594001LIBORO, RAMON LUIS KALUAG                                0506
A0101412180000003275483ECHEVARRIA, MARILYN REYES                                0504
A0101412180000002340621RODRIGUEZ JR., ALFONSO RONDILLA                          0501
A0101404260611392885001BANTA, EUGENIA TAMAYO                                    0501
A0101404260611478374085ROSALINA SUMILE                                          0501
A0101409920000001951942MEMBERS OF NATASHA (SHOECAT INC                         10501
A0101409920000001951942TULAYBA, ARLENE                                         20500
A0101414120000011288903NGO, JASEN GO OR NGO, HENRY TIN                         10502
A0101414120000011288903G OR CO, WHILBERT KHO                                   20500
A1301400210000000983780EDWIN DG ESPIRITU                                        0501
A1301400210000007669289GONZALES, MARK OLIVER SANTIAGO                           0503
A1301400340000006402375*********                                                0502
A1301400340683378168001RODIL, CONSUELO CREUS                                    0501
A1701400230000007430931BRINGAS, WILBOR ABELLA                                   0501
B1701400230693621490002***                                                      1606
A0101408240000006600368CALILUNG JR., REGIDOR PAJEL                              0501
A0101408240000006599968DEL ROSARIO, FRANCO GOMEZ OR                            10501
A0101408240000006599968DEL ROSARIO, TERESA T.                                  20500
A0101408240711399428001JOSELITO OR ROSEMARIE RAFAEL                             0501
A0101408240711414062001JEAN PULUMBARIT OR                                      10502
A0101408240711414062001JEAN PILAR PULUMBARIT                                   20500
A0101408240711448793001CARLO B. MAGNO                                           0502
A0101408240711618385001RONALD MANESE OR LEO PRINCIPE                           10502
A0101408240711618385001OR PIO RENATO                                           20500
A4101400260000003679750REVECHO, BJON UGAY                                       0502
A4101400260812613746001LEONARDO V. USTARES JR. OR                              10501
A4101400260812613746001ARMIDA C. USTARE                                        20500
A4101400420000000710392BRAZIL, EVELYN AGBAN                                     0501
A4101400420814478374144JOCELYN TALANA                                           0501
A4101400420814768923001VIRTUZ, SALVADOR ABAQUITA OR                            10502
A4101400420814768923001VIRTUZ, REBECCA                                         20500
A0101404840851478374038EVANGELINE UMALI                                         0502
A0101405070000011289097GUARIN, ARTHUR GOMEZ                                     0501
A0601400230000010702740DIMAPILIS, CATHERINE FRIDITH SA                          0502
