A0101409210000010358357JERUS EMMANUELLE E. CUYCO                                0502
A1101400120000006186730MERCADER, LEDY ABONG                                     0501
A0101412890000005913402FELICIANO, V DBU VDKS                                   10502
A0101412890000005913402CONSTRUCTION                                            20500
A0101414120000002879794GOLDEN ORYZA MARKETING                                   0502
A0101413150000001288308******                                                   0501
B3101400870225054761001DE JESUS, T DBU JDT TRANSPORT AND                       11602
B3101400870225054761001GENERAL SERVICES                                        21600
A1001400480000003357668CARREON, RAMIL GORRES                                    0501
A1101400120000006081056CONDE, ALEXIS CELL ABROGAR                               0502
B0101400860011374845003**********                                               1601
A0101400860011382654002**********                                               0505
A0101400860000009496371**********                                               0505
A0101400860011394716002**********                                               0503
A0101400860011542443001**********                                               0505
A0101400860011568203001**********                                               0505
A0101401250021180031001ROSALINDA G. CRUZ                                        0501
A0101401250021180271001ERLINDA V. EQUIBAL                                       0501
A0101411370000003294900FARRALES, MARCUS GLEN B. DBU                            10502
A0101411370000003294900GOLDLINE BROKERAGE SVCS.                                20500
A0101400150000001422519SENIER, JOECYVIR S.                                      0501
A0101400150000002374427DIZON, EDEN TITA JOSEF                                   0501
B0101400150061010838002INFORMATICS COMPUTER INSTITUTE, INC                      1605
A0101400150061226097001LIM, BELEN OR LIM, TIN CHONG OR                         10502
A0101400150061226097001LIM, CALVIN BERNARD                                     20500
A0101400150061226097002LIM, BELEN OR LIM, TIN CHONG OR                         10502
A0101400150061226097002CHOA, KAREN OR CHOA, LAY                                20500
A0601400360000002282260SANTOS, RAMON ARCIGA                                     0502
A0601400360000007539719EVARISTO, BONIFREDO BARRERA DBU                          0502
A0101413280000000041852OLA, EDAM CRUZ DBU HIJK SHIRT                           10501
A0101413280000000041852PRINTING & DESIGNS                                      20500
A0101410850109058582001CHRISTINE MAY BURLAZA'S CUSTOMS                         10501
A0101410850109058582001BROKERAGE                                               20500
A0101410560000005280713MARICAR R. DELFIN                                        0501
B0101400730000002102298TRIPLE A GENERAL SERVICES, INC.                          1601
A0101400730111386485175IVANHOE O. MARASIGAN                                     0502
A0101400730111477189001DE GUIA, JULIET MIRANDA                                  0503
B0101401960121674903001BAKEWELL PRODUCTS INC.                                   1601
B0101413150000000082773**********                                               1602
A0101412630000003959508YGAN, RUTH ADVENTO                                       0501
B0101401830141008845002PANDACAN TRANSPORT SERVICE & MULTI-                     11602
B0101401830141008845002PURPOSE COOP.                                           21600
B7201400170000003773499BATBATAN, ARNOLD J. OR BATBATAN,                        11602
B7201400170000003773499NEMESIA M.                                              21600
A7201400170000008258431LAURENCIANA JR., ANTONIO NUICO                           0502
B0101400440161007542001PACE REALTY INVESTMENT INCORPORATED                      1601
A0101400440161673957001JOBERT F. MEMPIN                                         0502
A0101407270162387970001******                                                   0503
A0101407270162684452001DUSTIN EDWARD GUIYAB                                     0502
A0101401090171337824001FE MARSHA V. NICOLAS                                     0502
A0101401090171520995002IRANE B. ANURAN                                          0502
A0301400530000003088082SAMAR, REMEGIO ESPANO                                    0502
B0301400660000003361971IMAGE CARS DAVAO, INC.                                   1610
B0301400660194046002088GARDEN BY THE BAY CORPORATION                            1603
B0101401380201041802003D'GLACIERS' MGM INC. - ALABANG                           1601
A0101401380201476813002TO, EVELYN LIM                                           0501
B3101400160221029999001STAR HONDA, INC.                                         1610
B3101400160221037489002CITIBIKE CREDIT CORPORATION                              1610
B3101400160221059839001MOTORCENTRAL SALES CORPORATION                           1610
A3101400450000002092899SIMBULAN, DENNIS DE LEON                                 0501
B1001400190000002170850RD PAWNSHOP, INC.                                        1603
B1001400190231022073001FARASIA EDUCATIONAL LIBRARY COR                          1601
A1001400190231520766031CARANO-O, JANFIR JANE V                                  0501
A1001400190231520766110MAYOR, CARMELITA ANGCAY                                  0501
A1001400350233478374026ANNABEL ESTOMO                                           0501
A1301400470000005394403EUBRIAN T. BANTIGUE                                      0502
A1301400470252634995001LOUISE L. ANG AND LOED L. ANG                            0510
A0101401670000000237701TAYAG, FREDY LINGAD                                      0504
B0101406620000009695152GVALUE TRADING CORP.                                     1603
A0101410980000002987086**************                                           0502
A0101412470000005380285QUIRINO, ALELI ANGELA GUZMAN                             0502
A0101400570281347185001CATALINA P. BARON OR                                    10502
A0101400570281347185001MA. JOSEFINA SAWIT                                      20500
A0101400570281361144001ERIC G. IDIESCA                                          0501
A0101411240000010567718ONG, JEFFERSON AARON SY                                  0501
B0801400160311271206001WESTERN LAMP & ELECTRICAL SUPPLY                         1604
A1101400120000006081078ANDRADE JR., ROSARIO RUBIS                               0501
B1101400120000000652926BUSINESS FRONTIER CORPORATION                            1603
A1101400120313549737002YU, RONNIE LIM                                           0501
A3401400280000000156654ROEVELLO P CHU OR ZHEENA D CHU                           0502
A0101402350321177047001FRANCIS C. PAREDES                                       0501
A0101402510000001554030ROQUE, JUDE ERICSON PEREA                                0501
A0101402510341196679001CALIXTRO, ANGELINA FARALA                                0501
A0201400920375503351001**********                                               0502
B0201400890376035672001SUPREMO REALTY AND DEVELOPMENT CORP                      1601
A0101402930381478374004ANALIN ARTIOLA                                           0501
A0101408370382506085001CRUZ, LINDA ARRIOLA                                      0501
A0101408790000000039063CO, MA. JULIETA LIM                                      0502
A0101411660000000109260MERELY Z. CANESO                                         0502
A0101411660000005324185GENEROSO, VALERIE CHRISTINA REY                          0501
A0101411660000005324323DUAVIT, MICHAEL JOHN ROY                                 0501
A0101411660000005324334DUAVIT JR., GILBERTO ROY                                 0501
B0101411660000000751495*****                                                    1602
B0101411660000009219956GROUP MANAGEMENT AND DEVELOPMENT IN                      1601
B0101411660000009219967DUAL MANAGEMENT & INVESTMENTS, INC.                      1601
A0101415350000007043752PARAJAS, ARSENIO P. DBU AAGP                            10505
A0101415350000007043752OR PARAJAS, GRAC                                        20500
B0101402770391040285001FRONTIER ELECTRONIC TRADING                              1602
B0101402770391040288001CYBER FRONTIER ELECTRONICS TRADING                       1602
A0101402770391383276004PRECY Y. CADAOAS                                         0501
A0101408950396569875001BERNARDO, MARIA CRISTINA CORNEL                          0505
A0101409180000004375166ALEJANDRO, ROMULUS S.                                    0501
B0101409210398042284001D FORT EXPRESS LOANS & CREDIT, INC.                      1603
B0301400820000000024911DIGOS DOCTORS' HOSPITAL, INC.                            1620
A2401400180000002146312VENERACION, CECILIA CARANDANG                            0501
B2401400180411017908001LWC CYCLE MART, INC.                                     1602
A1201400150000006154952GO, ANITA DY OR GO, FREDERICK                           10502
A1201400150000006154952DY                                                      20500
A1201400150421311570001MARIO LIM                                                0501
B0101403030441593223001**********                                               1601
A0101412890000009833532***********                                              0503
A0101412890000007095550*********                                                0501
A0101406330000002277892TORREFIEL, MYRNA MIRANDA                                 0501
A1401400110000010402972PARK, YONGSOO                                            0501
A1401400110000001806873********                                                 0501
A0701400260000002339095BERNARDO JR., JAIME MIRALLES OR                         10502
A0701400260000002339095BERNARDO, CYRIL                                         20500
B0101407430503028318001LONGHORN TRANSPORT SERVICES INC.                         1605
B0101407430503043975001SEAHAWK TRANSPORT, INC.                                  1605
B0101403580511044725001AGAPITA PROPERTIES, INC. CONDOMINIUM                    11602
B0101403580511044725001CORPORATION                                             21600
A0101403580511153476002THERESITA S. TIU                                         0505
A0101405940000001534269**********                                               0501
A0101411790000000469596**********                                               0502
A2201400250000007122727GARCIA, ADONIS DE VERA DBU DOC                          10501
A2201400250000007122727DIAMONG MARKETING                                       20500
A0101410690000000001758IGNACIO, JONATHAN DBU JCJ                               10502
A0101410690000000001758MANAGEMENT SERVI                                        20500
A0101404130000001173682NAKAO, HIRONOBU                                          0501
B0101404130601024227001AQUATREAT ENVIRONMENTAL SYSTEMS INC                      1602
A0101404130601450518001GEORGE T. SIY &/OR ANGELINE SIY                         10502
A0101404130601450518001FIECHTER ET AL                                          20500
A0101407720602283353001ERWIN HERNANDEZ OR                                      10501
A0101407720602283353001AGNES HERNANDEZ                                         20500
A0101407720602381721001MARIA FE P. VILLAFRIA                                    0504
A0101407720000005100194BERNARDO, CARMINA GRECIA                                 0503
A0101407720602399405002THELMA E. RAMOS OR                                      10503
A0101407720602399405002CLAVER P. RAMOS                                         20500
A0101407720602402493001**********                                               0503
A0101404260611478374085ROSALINA SUMILE                                          0501
A0101404260611606896001LAGOS, MA. CONSUELO CUYUGAN                              0502
A0101409890000000437449**********                                               0501
A0101413570000001069512SYLVIALINA F. DAGUIMOL                                   0501
B0101413990657821100608**********                                               2002
A0101414120000001142932PIALA, WILLIAM BENTING                                   0501
A0101414120000006864460JAQUIACA, JEROME ALBERT CORTES                           0502
A1301400340000000100363ADINA, ANGELO RAY AURELIO OR                            10501
A1301400340000000100363ADINA, RAY MARTINEZ                                     20500
A1301400340683245916001GARCIA, CRISTINA GALLEGO                                 0501
A1301400340683406123001TOBIAS, SUSANA FULGENCIO                                 0502
A1301400340683478374049DONATO, NENITA M.                                        0503
A1301400500000000213265VINCENT P. JAVIER OR                                    10505
A1301400500000000213265TERESITA F. JAVIER                                      20500
A1301400500000002063918RNV APPLIANCE SERVICE CENTER                             0504
A1301400500684478374003ELMA I. DE LEON                                          0501
A0101408240711390039001CHRISTOPHER OR RAMON CARRION                             0502
B0101408240000000832600YU, ROLANDO UY OR YU, LEONAIDA                           1601
A0101408240000001038700YU, RANDOLPH NATHANIEL MALVEDA                          10501
A0101408240000001038700OR YU, LEONAIDA                                         20500
A0101408240711525040002FLORO, MICHAEL CHAVES                                    0501
A0101408240711613544001MANISAN, FREDEVER MARIBAO                                0501
A2801400230000001734732CITY REJUVENATING SPA                                    0502
A4101400260812403511001BOSITA, CHRISTIAN DUA                                    0502
A4101400390000007459198GUINOO, BERNARDO PRUDENTE OR                            10503
A4101400390000007459198GUINOO, ANA BOSC                                        20500
A4101400390000003346103YABUT, ANNALIZA GAMBOA DBU AGY                          10501
A4101400390000003346103MANAGEMENT SERVI                                        20500
B4101400420814038765001EG&G CONSTRUCTION SUPPLY                                 1602
A4101400420814342049001MENDOZA, DIVINA LORY ANN E. OR                          10505
A4101400420814342049001MENDOZA, GILBERT                                        20500
A4101400420814357382003REMULLA, GILDA VASQUEZ                                   0501
A0101412340000003719168ERNIE FRANCIS C. JARDIN                                  0501
A0101404840000000683585ROXANNE P. AGUILLON                                      0501
A0101404840851481664045AKIHIKO ISOZAKI                                          0501
A0101406750000007879154ROQUE, MA. CONCEPCION BONUS                              0501
A0601400230000003015903ABAD, ARNALDO MAGCALAS                                  10502
A0601400230000003015903OR ABAD, CONCHIT                                        20500
