B1001400190231821100608**********                                               2001
B1101400120313821100608**********                                               2003
B0101408660274048368001PAN GLOBAL REALTY DEVELOPMENT CORPO                      1602
A0101400440161520766193LEILANIE P. LOCSIN                                       0501
B1101400120000000653150PERPETUAL HELP MULTI-PURPOSE COOPERATIVE                 1603
A0101403320000011807544******                                                   0501
A4101400390000007459369LIM, PATRICK ADONACION DBU                              10502
A4101400390000007459369FLYINGCOLOURS REALTY                                    20500
A0101400150000002902718TOLENTINO, ROMEL TUCAY                                   0501
B0101400150061026597001HONDA MOTOR SPORTS INC.                                  1605
B0101412920000000276562ALPHA STONEWORKS ENTERPRISES                             1603
A0101400440000000596630MARY ANN A. OYARDO                                       0501
A1101400120000000652351YAO, RONALD PHILIP GO                                    0502
A0301400820000005196852DIMAANDAL, EVA                                           0501
A0101400860000001005467**********                                               0505
A0101400860000001005514**************                                           0505
B0101401250021040371001ENHANCE CARGO MOVERS CORP.                               1608
A0101401250021180271001ERLINDA V. EQUIBAL                                       0501
A0101401250021183991001JUDITH M. TICZON                                         0501
B0101400150061011117001CARAVEL RESOURCES, INC.                                  1601
B0101400150061011143001ZABALETA & CO., INC.                                     1610
B0101400150061015841002ENZIMA INTERNATIONAL, INC.                               1602
B0101400150061038261001TOON CITY ANIMATION, INC.                                1601
B0101400150061047235001ROYAL METRO POINTE DEVELOPMENT INC.                      1603
A0101400150061337099016AMADO ANDRADA JR.                                        0501
A0101400150061400244001********                                                 0501
A0601400100000002099312TAKAYANAGI, ATSUSHI                                      0501
A0601400100081251835003TORRES, ROBERT E.                                        0503
A0101413730000003715837************************                                 0502
A0101414090000006211650HAN, JIYOUNG                                             0501
B0101400730111024044002CREDITNET PHILIPPINES INCORPORATED                       1605
A0101400730111203514039JOVIDEH SONIDO                                           0501
A0101400730111360495001REMO, EVELINA MUNOZ                                      0503
A0101406040000000014768******                                                   0501
A0101413150000003868300**********                                               0501
A0101401830141209664001ROBERTO S. SANCHEZ                                       0502
A0101412920000008813430ACABADO, CYRIL ALTARES                                   0501
A0101400440161525001139JEMARIE S. SALUDAR                                       0501
A0101401090171200611001CATALINO OR TRINIDAD SOLIS                               0501
A0101401090171479987001MA.FARRAH ARACELI B.PANGANIBAN                           0501
B0301400660194047064088CVM PETRON SERVICE STATION                               1605
A0301400790000003969611BERSABAL, AGNES TUBANG OR                               10501
A0301400790000003969611BERSABAL, MARVIN                                        20500
A0301400790000005691990EMBALSADO JR., ALBERTO GEMPESAW                          0502
B0101401380201006746003FIREHOUSE PHILIPPINES, INC.                              1603
B0101401380201026760001PAG & D BAR & ENTERTAINMENT CORP.                        1603
A0101412500000003289992****                                                     0501
B0101413600000005524863HIMLAYANG PILIPINO PLANS, INC.                           1610
B3101400160221016060001SUNPACK CONTAINER & PACKAGING CORP.                      1602
A3101400450000002330472IRLANDEZ, ROSALIE OR                                    10501
A3101400450000002330472IRLANDEZ JR, ROSAURO                                    20500
A3101400450223019912001LAGUNA HEALTH SERVICES                                  10510
A3101400450223019912001COOPERATIVE                                             20500
A3101400870000005565211VALERIO JR., E DBU WEBER                                10505
A3101400870000005565211FORWARDING SERVICES                                     20500
A3101400870225069424001VENTURA, R DBU NIGHT SHIFT                              10501
A3101400870225069424001SOFTWARE CONSULTANCY                                    20500
A1001400190000008743875OCERO, ALGENE ALEJAN                                     0504
B1001400190231039064001*****                                                    1604
A1001400190231478374001OCERO, ALGENE                                            0502
A1001400480000005355886LIMBACO, RONALDO CABANA                                  0502
A1301400470000003270460RIGOR, PAOLA MARIE BIANCA                               10501
A1301400470000003270460OR RIGOR, NINO ANGELO                                   20500
B1301400470000003270102LFCI-KPP KASANIB SA PAGABOT NG                          11610
B1301400470000003270102PANGARAP INC.                                           21600
B1301400760000000050820V.PALILIO CORPORATION                                    1601
A1901400290000001917313NEONEVA PIAD MAGTAAS                                     0502
B1901400290261027293001LIPA MEDICS INC.                                         1620
B1901400290261034056001DIVINE LOVE GENERAL HOSPITAL INC.                        1620
B1901400290261535730001SOUTH LUZON HIGH RISK PREGNANCY AND IN-                 11602
B1901400290261535730001FERTILITY CENTER                                        21600
B0101401670271041152001PHILADELPHIA BUSINESS INITIATIVES INC.                   1602
B0101408660000000373200TERRENAL AGRICULTURAL CORPORATION                        1601
B0101411820277048022001FORGEMS MARKETING COMPANY, INC.                          1610
A0101400570281018864002PERFECTO'S TRADING                                       0501
A2601400270302478374002ESEM A. GALIZA                                           0501
A1101400120000000652380CAYUBIT JR., SERAFIN ASERON                              0502
A6601400120000001065270ECHALUCE, FRANCISCO CHIN                                 0505
A6601400120000008490433MARTINEZ, JONATHAN BALBERAN DBU                         10501
A6601400120000008490433J'S JAVIER FURNITURE                                    20500
A6601400120314612973001CABILI,MANUEL MELFORD OR MANUEL                         10503
A6601400120314612973001OR TERESITA OR ZYBELLE                                  20500
A2001400290000002783117MATILDO, RUBY ANN JANGCAN                                0501
A0101402350000000521242CHING, MICHELLE LIM                                      0501
B0101405650000000772834MIFFI LOGISTICS CO. INC.                                 1605
B0101402510341020561001PHILIPPINE PHARMACISTS ASSOCIATION                       1602
A0101402510341283063001GALVAN SR., FERNANDO CABUANG OR                         10501
A0101402510341283063001GALVAN, MARY ANN D.                                     20500
A0201400760000005156474GESALEM, JONATHAN DBU LINCOLN                           10510
A0201400760000005156474TRADING                                                 20500
A0201400890376039667001PROTECH WATER SYSTEMS                                    0505
B0101402930920130000049FINASWIDE CREDIT CORPORATION                             1605
A0101402930381626170001JEREH C. RUFIN OR                                       10501
A0101402930381626170001TRICIA RUFIN                                            20500
B0101402770000000023805GOOD HEART FOOD AND INDUSTRIAL                          11602
B0101402770000000023805CORPORATION                                             21600
A0101408400394378428001SEVILLA, RAINALDO MEJIA OR                              10501
A0101408400394378428001JOSEPHINE SEVILL                                        20500
A0101408950000010434550CADIZ, KRISTEL MARIE CAPUCHINO                           0502
A0101408950000007458862CHIO, NANCY BORJA OR                                    10501
A0101408950000007458862CHIO, MARTIN CLA                                        20500
B0301400820409091735055LIMA, WINDELL BRISTOL DBU DAVAO HOME                    11601
B0301400820409091735055BUILDERS CENTER                                         21600
B5501400120000007963413JBJAVELLANA VETERINARY SUPPLIES, IN                      1605
B2401400180411014383001RD EMPLOYEES CREDIT COOPERATIVE                          1612
B2401400180411021636002PHILBEST CANNING CORPORATION                             1605
B2401400180411033733033ECA RESOURCES, INC.                                      1603
B2401400180411069002001PA FUEL 118 CORPORATION                                  1601
A0101403320000011834952JOSE M. DELA CUZ IV OR                                  10501
A0101403320000011834952ERIKA I. PANGAN                                         20500
A0101403320000011835404JOSEPHINE P. ROBANCHO                                    0501
A0101403320471205809002UMALI, FLORENTINO ILAGAN OR                             10503
A0101403320471205809002MARIA LILIBETH DE GUZMAN                                20500
B0501400170000000018317DAGUPAN DOCTORS VILLAFLOR MEMORIAL                       1602
A1901400160000011821399DE GUZMAN, REALYNNE ALBERTO                              0501
A1401400110000000132841*******                                                  0501
A0101407430503527093001JIKKIE L. INES OR                                       10501
A0101407430503527093001GIAN PAOLO S. INES                                      20500
B0101403580511005504001EXCHANGE PROPERTIES RESOURCES CORP.                      1602
B0101403580000000214684K.S.T. PROPERTIES, INC.                                  1605
A0101408530516631099001TANGCO, ARTHUR CHUA                                      0501
B0101403450521017837001**********                                               1601
B0101403450000008069238SAVEMORE SOLUTIONS INC.                                  1602
A0101403450000001638053*************                                            0501
A0101403450521239350001**********                                               0506
A0101403450000009517682****************                                         0503
B0101403610531069397001CASTASUS ACCOUNTING FIRM                                 1601
A0101410690000004969942RICARDO SIMMONDS POBLETE II                             10502
A0101410690000004969942OR CECILIA ESTRELLA                                     20500
A0101407720602351011001CARMELITA A. YANGA                                       0501
B0101412180000001293038WESTMONT INDUSTRIAL SALES INC.                           1602
A0101412180000000501482********                                                 0502
B0101404260611034987001JS TRAVEL & TOURS                                        1603
A0101409920000010528975**********                                               0502
A0101413570656057648155MANTARING, LOURDES                                       0502
A0101413570656057648255ALI SIGARI                                               0501
A1301400210682673429001CHERRY ROSE P CALDERON                                   0501
A1301400500000009723060GERARDO GERRY C. STA. ANA                                0502
A1301400500000000213210RBN ENGINEERING & DEVELOPMENT                            0503
A1301400500000011254407GARBIDA, GABRIEL GUEVARRA                                0502
B0101408240711033951001MILCOR MANAGEMENT CORPORATION                            1602
A0101408240000008854424TAGAYUN, HERMINIA HERNANDEZ                             10501
A0101408240000008854424OR NAVARRO, AURORA                                      20500
A0101408240711630742001SAYO, MARK ANTHONY PAMINAR                               0501
A2801400100000006977402CASTILLO, NOEL MERCADO OR FLORE                         10501
A2801400100000006977402S, REBECCA CASTI                                        20500
A2801400100712094982001DIAZ, EDWIN BACANI                                       0502
A4101400260812478374076MAILYN L. EVASCO                                         0504
B4101400390000003346187PAGASA PHILIPPINES LENDING COMPANY                       1603
A4101400390000000379157VICTA, GIL SANTIAGO                                      0501
A4101400390813478374065ESGUERRA, SUSANA                                         0501
B4101400550000000900036BACOOR DOCTORS MEDICAL CENTER INC.                       1603
B4101400550000000900138WILSTAR HARDWARE AND CONST. SUPPLY CORP.                 1602
A0101412340000007305542MOSQUITE, CANDECELINA O.                                 0501
A0101405070000005619354BARRERA, BERNARD PAGUIRIGAN                              0502
A0101405070861196343001EDGARDO DAVID OR ANGELINA DAVID                         10505
A0101405070861196343001OR MARY ELAINE DAVID                                    20500
A0601400230000007402224********************                                     0501
