A0101411790518739962001SO, DOROTHY UY                                           0501
B0601400520084821100608**********                                               2002
B0101400730000000002591*****                                                    1602
A0101400730111718087001PASAGUE, LALAINE TRINANES                                0501
B5101400100433821100608**********                                               2002
B5101400100433821200608**********                                               2002
B0101403320471041480001ITP CONSTRUCTION INC                                     1620
A0101407720602241314001**********                                               0502
A0101414120000000649070EVANGELISTA, HAZEL ROQUE                                 0501
A0101400860011388350001**********                                               0506
A0101400860011391589003**************                                           0503
B0101400860011394967002**********                                               1605
A0101400860011397182002**********                                               0503
A0101400860011419840001**********                                               0504
A0101400860011463295001**********                                               0501
A0101400860011468485001MANALO, DAISY PICAZO                                     0501
A0101400860011478374007**********                                               0501
A0101400860011516358001**********                                               0503
A0101400860011581564001**********                                               0502
A0101400860000001005514**************                                           0505
A0101400860011705520001**********                                               0503
A0101400860011742046001**********                                               0503
A0101400860011783032001**********                                               0502
A0101401250000000906894ANGELES, LEMUEL CERIOLA                                  0501
A0101401250000008460042URIARTE, MARIA VANESSA ARAGO                             0502
B0101401250021016688001ST. MARY'S ACADEMY OF PASAY CITY, INC.                   1604
A0101411370000005524272MANCILLA, MERIAM ARGARIN                                 0502
A0101400150000008677701PORTO, CHRISTIAN PAUL                                    0501
B0101400150061027783001CRESCENT MINING AND DEVELOPMENT                         11601
B0101400150061027783001CORP.                                                   21600
A0101400150061396165001SANTIAGO, MA. SOCORRO S. OR                             10501
A0101400150061396165001PACIFICADOR, AINA LEE S.                                20500
B0101400150061542521001SAN CARLOS BIOPOWER INC.                                 1603
A0101405810072385132001***********                                              0503
A0101405810072518695002***************                                          0501
A0601400100081382795001ACIBIZ, GERARDO ARAWIRAN                                 0502
A0601400520000001349582MANALOTO, ISRAEL CUNANAN                                 0503
A0601400520000010363543DE JESUS, ROBERT BRYAN YAMBAO                            0501
B0601400520084821100608**********                                               2001
B0101410560000007071394AFFORDABLE LENDING CORP.                                 1601
A0101400730000005208811CABUAL, EVELYN FERNANDEZ                                 0502
A0101412630000000801621LIBREA JR., ENRICO MAURICE S.                            0501
A0101412630000004062013**********                                               0501
B0101401830000000060022CARITAS SALVE CREDIT COOPERATIVE                        11602
B0101401830000000060022(CUBAO 011)                                             21600
B0101412920160022330002S.M. CASTRO MANAGEMENT & CONSTRUCTION                   11602
B0101412920160022330002SERVICES                                                21600
A0101400440161039572072MEDITA P. ALIMPUANGON                                    0501
B0101401090171008455001UNIVERSITY OF SANTO TOMAS FACULTY UNION                 11610
B0101401090171008455001(USTFU)                                                 21600
A0301400790000005691990EMBALSADO JR., ALBERTO GEMPESAW                          0502
B0301400790000002301342MONTEVERDE II, GEORGE MENDEZ DBU GV & HH                11601
B0301400790000002301342MARKETING                                               21600
A0301400950000001379615CABALLERO, MARY LYNN ONG                                10502
A0301400950000001379615OR CABALLERO, GLENN                                     20500
A0101410720000000882833MIRANDA, LOURDES DAVID                                   0501
A0101410720653380605002DR. ANNE MARIE REALISTA PE                              10506
A0101410720653380605002AGUIRRE-ENECO                                           20500
A0101410720653528817001VINCENT GONZALO SY OR TIMOTHY                           10502
A0101410720653528817001JON SY OR JULIE SY                                      20500
B1001400190231040264001CHABON, CLA DBU WESTBOUND PETRON SERVICE                11603
B1001400190231040264001STATION                                                 21600
A1001400190231380503007DRA. CYNTHIA BACONGA                                    10505
A1001400190231380503007PHILAMCARE DOCTO                                        20500
A1001400190231520766089CODILLA, ORLAND ORIAS                                    0501
A1001400480000003357511RAMOS, MARY JECELLE GO                                   0501
B0101401670271007075002ACS MANUFACTURING CORPORATION                            1610
A0101401670000009425509GARBIDA, GABRIEL GUEVARRA                                0502
B0101406460272007487001FOODMACH, INC.                                           1604
A0101406620000010200770JASMIN JOSEFA P. AGBON                                   0501
A0101406620000010200838W BRIAN CABACTULAN                                       0501
A0101406620000010200907DORIS MARIE CONCEPCION DIZON                             0501
B0101406620273007454005GLOBE ASIATIQUE REALTY HOLDINGS CORP.                    1605
B0101406620000000962421ARMCO HEALTHCARE  SERVICES INC.                          1601
B0101406620000000962421ARMCO HEALTHCARE  SERVICES INC.                          1601
B0101406620000000962421ARMCO HEALTHCARE  SERVICES INC.                          1601
A0101406620273216083002EMILIA DELOS SANTOS                                      0501
B0101406620273791354001APPETITE LABS MARKETING GROUP INC.                       1602
B0101406620000009695221APPETITE LABS MARKETIBG GROUP INC.                       1602
A0101408660000005109853BALDOZA, JOAN JEAN FAJARDO                               0503
B0101400570281007176001ASIAN INSTITUTE OF LITURGY & MUSIC                       1601
A0101400570000001681870CABALZA, DUNKIRK JOHN RIVERA                             0502
A0101411240000000629356**********                                               0501
A0801400160000000009492LORING, MARIA IA JOY ESPINOSA                            0502
A0801400160000001031332AMIL, WAHAB AHMAD                                        0502
B2001400290000002406760MILLER SOLUTIONS DEVELOPMENT INC.                        1602
A0101402350321287566002LETICIA M. FERNANDEZ                                     0502
A0101402350321336040001CHERRY O. OGAYON                                         0502
B0101405650322024999001SUPERIOR MAINTENANCE SERVICES, INC.                      1630
B01014056500000029607964-S HOMEOWNERS' ASSOCIATION, INC                         1601
B0101402510341047030001APRICA PRODUCTS PHILIPPINES INC                          1602
B0101409050352040431001PACIFIC STARR ALLIANCE CORP.                             1603
A0201400890000002270231CORTES, MARICEL M.                                       0502
B0201400890376045807001**********                                               1640
A0201400890376595445001SUMALINOG, TRINIDAD ROMULO                               0501
A0201401020000000055952DANO, JOSIE DANAS                                        0502
A0101402930000010367336GURBANMUHAMMEDOVA, GULAYIM                               0501
A0101402930381388763001ULYSSES M. MEJIA                                         0501
A0101402930381472168001BELTRAN, NOEL AQUINO                                     0501
B0101402930381484407001GOLD SUN TRAVEL SERVICES                                 1601
A0101408370000002264182NOGUERA, JEANNIE TAN                                     0501
A0101408370000009296773MARIANO, MELCHOR TOLENTINO                               0502
A0101408400000006969028MIRALLES, ERNESTO DIZON                                  0502
B0101408400000003120532BRUNO BUILDERS                                           1601
A0101408950396567591001DR. DANILO V. CONSTANTINO II                             0501
A0101408950000003171304CONSTANTINO II, DANILO VILLANUE                          0501
A0101409210000002803016SALVADOR, HERMILIZA POLICARPIO                           0501
B0101409210000004818895JDP CONSULTING LTD. CO.                                  1601
A5501400120000005492202TIU, CARMEN MALABUYOC                                    0503
A5501400120410275634002BAUTISTA, RYAN REYES OR PIODOS                          10505
A5501400120410275634002EMARIE LEE                                              20500
A2401400180411023998002ENE MARKETING                                            0502
B2401400180411033833088JOLISA AGRIBUSINESS CORPORATION                          1610
B2401400180411035164001MOMMY GINA TUNA RESOURCES (MGTR), INC.                   1605
B2401400180411056764001RD PAWNSHOP, INC. - GENSAN REGION                        1603
A1201400150421776673001CORREOS, GEROME DUA                                      0503
A0101403030441240227002**********                                               0501
B0101403030441494655001**********                                               1610
A0101412890000007095287***************                                          0501
A0101403320000006027265EUGENE DENICE S. CORDOVA                                 0501
A0101403320471065202001MALLARE JR., MARCELO DOMINGO DB                          0501
A0101406330472214807001EMELDA P. LINDAYAG OR                                   10501
A0101406330472214807001MIGUEL P. LINDAYAG                                      20500
A0101406330472298552011CARINA F. FALQUERABAO                                    0501
A0501400170481349742001ANTONIO PATUNGAN                                         0501
A0101407430000004687516BARCELON, JODEE GAYONDATO                                0501
B0101405940512020791002ACRYDENTAL LABORATORIES, INC.                            1601
B0101405940000000002808DMC URBAN PROPERTY DEVELOPERS INC.                       1601
B0101405940512702149001VANDEM MACHINERY TRADERS, INC.                           1605
A0101411790000002276031CUETO, MARIA TERESA CASTILLO                             0502
B0101403450521011639001**********                                               1602
B0101403450521023389001RIVIERA MERCANTILE SYSTEMS INC.                          1610
B0101403450000002975804***********                                              1603
A2201400250000001066006BERLYN T. COSTALES OR                                   10505
A2201400250000001066006JOYCE D. GOMEZ                                          20500
A2201400250000003558190EDWIN S. ESPIRITU OR ANNA                               10501
A2201400250000003558190JESSICA S. ESPIRITU                                     20500
A2201400250561256887002RESTITUTO V. BALMACEDA JR.                               0502
A0101404130000001614488ABELLA, SIXTO ANTONIO MARTINEZ                           0503
A0101407720602166653012DR. ERIC S. NUBLA JR.                                    0502
A0101407720602227789001CARANTO, BERNARD S. OR                                  10501
A0101407720602227789001CARANTO, TITA S.                                        20500
A0101407720602298846008LAMBERTO U. OCAMPO OR                                   10501
A0101407720602298846008ANNABELLE SARMIENTO                                     20500
B0101404260611023159001KIM CARLO GARMENT INDUSTRIES                             1601
B0101404260000000156972PRIME POWER MANPOWER SERVICES                            1650
B0101404260000000156972PRIME POWER MANPOWER SERVICES                            1650
A0101404260611041714001ALEJANDRO DRUG STORE                                     0501
A0101404260000001725639************                                             0503
A0101404260611150915001ANGELINA L. MANABAT                                      0501
B0101407690000000243923EVER READY CREDIT AND FINANCE CORP.                      1603
A0101407690000005198132BERMASE, ELIZABETH TAN                                   0501
A0101407690652207359001AMELIA G. AREVALO                                        0504
B0101407690000000243941JAMS BAKELAND FOODS INC.                                 1610
A0101407690652525001047NOEMI B. BUNDA - DEALERS OF                             10501
A0101407690652525001047SHOECAT INC.                                            20500
A0101407690000000025152MONCEDA, MARINA - DEALERS OF                            10501
A0101407690000000025152SHOECAT INC.                                            20500
A0101407690652528874001PEREZ, EMERITA TUAZON                                    0501
A0101413440000002846331IDO, REYNALDO CASENAS                                    0502
A0101414120000000875463FERDINAND OR ANNE MARIE ENECO                            0502
A1301400210000000023229FRANCISCO P CABOTEJA                                     0501
A1301400340683529077002RIVERO, CELESTINA MADRIAGA                               0501
A1701400230000008555186LEE, ALAIN CHUA DBU VIKING CONS                          0502
B2801400100000007629221SIGMA PACIFIC BPO SOLUTIONS CORP.                        1603
A2801400230000005253281EMETERIO, EVELYN PANCHO                                  0501
A4101400260812478374055ARLENITA E. MORALITA                                     0501
A4101400420000000121091BALUYOT, NATHANIEL SANCHEZ                               0501
A4101400420000009343175REGALARIO, VIVIAN T                                      0502
A4101400420814568834001BARCELON, ALEX DAYANDAYAN                               10502
A4101400420814568834001BARCELON, ZORAIDA                                       20500
A0101406750000010369690MARCIAL, MAE THESSA FUENTES                              0501
B0101406750852040331001INTUITIVE MEDICAL BUSINESS SOLUTION                     11605
B0101406750852040331001INC.                                                    21600
B0101405070000003417547INDIGINA PHILIPPINES, INC.                               1605
B0601400230000007402166MALANG, HENRY T DBU SADELMI CONSTRUCTION                11603
B0601400230000007402166AND TRADING                                             21600
A0601400230000007402188CHUA, MARK ANTHONY GARCHITORENA                          0502
