A0101400150061229814003**********                                               0501
B0501400170481015881001TOYOTA DAGUPAN INC.-2                                    1615
A0101401250000004374652CASTILLO, ROSELYN VILLAR DBU                            10502
A0101401250000004374652LOREANE ROSE FOOD CORNER                                20500
B0101411370000000017978JNE MANILA TECHNICAL SERVICES CORP.                      1601
B0101400150061021085001SEAOIL PHILIPPINES, INC.                                 1610
B0101400150061043190001NORTHERN STAR ENERGY & FUEL DISTRIBUTION                11605
B0101400150061043190001CORPORATION                                             21600
B0101400150061047262001SUPER GT MOTOR SALES AND SERVICES INC.                   1603
B0101400150061226909001STARS TRAVEL, INC.                                       1603
B0101405810072821200608**********                                               2002
A0601400360000008460162MICLAT, MICHAEL CO                                       0502
B0601400360000000978936THE MEDICAL CITY CLARK, INC.                             1610
B0601400360083821200608**********                                               2001
A0601400520000005001432SERRANO, JELEZA PEROCHO OR                              10502
A0601400520000005001432SERRANO, ARNEL FRANCISCO                                20500
B0101406040112821200608**********                                               2003
A0101413310000001928936CABANSAG, ARMEL CABANATAN DBU                           10503
A0101413310000001928936AVIATOURS TRAVEL                                        20500
A0101401830141429591001VENERACION M. PAGULAYAN                                  0501
A0101401830000000201845CRUZ, ARLENE ROBERTO OR                                 10502
A0101401830000000201845CRUZ, VERNON CRUZ                                       20500
A7201400170000006487472PRANZA, JONAS SUMALINOG                                  0501
A5001400170000000045047ONG, LESTER UY OR                                       10505
A5001400170000000045047ONG, HAIDEE GO                                          20500
A0301400950000008000659TINDOY, FEDILINA PARALUMAN ALVA                          0501
A0101401380000005320865AGUILOS, SHERWIN JANDAYAN                                0502
A0101410720000004626380**********                                               0501
A0101410720653240354001ONG CHIONG, WILLIAM C. OR                               10501
A0101410720653240354001ONG CHIONG, JULI                                        20500
B3101400450223028468001NEW ARMSTRONG SECURITY AGENCY                            1602
B3101400450223821200608**********                                               2001
A1001400190000005709220PANANDIGAN, MITCHELLE BACUNATA                           0501
A1001400190231520766107DELIA ENRIQUEZ                                           0501
B1301400760000000007121GLOBAL CARS PHILS., INC.                                 1610
A0101406620000004926030CO, J DBU MATIMPRO SALES                                 0501
A0101400570000006271843LAURICIO, MARY GRACE SILVA                               0502
A0101400570281186842001DR. BENITO H. RAMOS JR.                                  0501
A0101400570281191287001CARIDAD M. BANGUI                                        0501
A0101400570281443866001ANA MARIA S. POHANG OR                                  10501
A0101400570281443866001KATRINA S. MARTI                                        20500
A0101400570000001681927ANA MARIA LORETTA S. POHANG                              0501
A0101400570000001681858GO, ROBERTO ONG                                          0503
B0801400160311268198001JOHNEL REALTY DEVELOPMENT CORP.                          1601
A1101400120000003197095IBANEZ, JENNY LIND BUENO                                 0502
A1101400120000006186616GALO, TERESITA ECLE                                      0501
A66014001203140421880015G GALVEZ CONSTRUCTION                                  10503
A6601400120314042188001AND SUPPLY                                              20500
A3401400280000000156621DELA CRUZ, LOIDA GARCIA                                  0502
A3401400280000004958563NORTHVILLE CHRISTIAN ACADEMY                             0501
A3401400280000000784663ALMA V. TORREBLANCA                                      0501
B0101405650000000012933CASTLE MERCHANTS AND HAULAGES INC.                       1605
B0101402060351009365002GREEN VALLEY TOWNHOUSE OWNERS                           11601
B0101402060351009365002ASSOCIATION INC.                                        21600
B0101402930381008829002AXEIA DEVELOPMENT CORP.                                  1615
A0101402930381478374010LEONILA Y. DAIZ                                          0503
A0101402770391757431003**********                                               0501
A0101409210000001294300CARLO L PAMINTUAN                                        0501
A0301400820000000316670TIONG, ARISTON D.                                        0502
B0301400820409821200608**********                                               2001
B5501400120000002949757VALEENLAND REALTY CORPORATION DBU R                      1601
A0901400220432079352001ONG, LIONEL ROY ZAPANTA                                  0502
A0101412890000001056206GERONIMO, ANNABELLE ELEANOR LIM                         10502
A0101412890000001056206OR GERONIMO, MAR                                        20500
B0101412890000000007007CREATIVE FILES INC.                                      1606
A0101406330000006943606VALENZUELA, MYRNA ILADA                                  0501
A1901400160491476162001GINA A PELESMINA                                         0502
A1901400160491635678001MARIVIC ATIENZA CANTES                                   0501
A0101403580000009899423AGUILAR, ALBERT CASAMA                                   0501
A0101403580000009899598DELA CRUZ, DARLENE JOYCE MINGUE                          0501
B0101403580511020857001ROBROS INCORPORATED                                      1603
A0101403580000000016082SWEET BELLA DESSERTS                                     0507
A0101406880000008781091GAMILLA, KRISTINE MARIE GAMBOA                           0501
B0101408110000003281434CYBERONE.PH, INC.                                        1601
B0101408110000003281503SEPTUS INC.                                              1601
B0101408110515821200608**********                                               2001
A0101411790000009907559VILLANUEVA, MA ALMA SOMBRA                               0501
A0101411790000009908483CABILLO, ARNULFO                                         0501
A0101411790518055764202BENITEZ, GLADYS MADARANG                                 0501
B0101412050519821200608**********                                               2001
B0101403450521011605003********                                                 1601
B0101403450521021842005WALL VISION CORPORATION                                  1605
B0101403450521028565001**********                                               1601
A0101403450521313321001**********                                               0501
B0101403610531821200608**********                                               2001
A0101404000000008554627BANTANG, JENNIFER BERTUBIN                               0501
A0101407720000007936283PASTORFIDE, GIA CONCEPCION                               0501
A0101407720602298709001JOSEPH B. BARRIL OR FE ANA                              10504
A0101407720602298709001BARRIL                                                  20500
A0101407720602313257002PARRA, JOSEPH DINULOS                                    0505
A0101407720602384186003SARMIENTO, JOSIERINA YANEZA                              0502
A0101407720602398670002PAULITA ANOVER VILLEGAS                                  0503
A0101404260611478374077LUCIA CAPILITAN                                          0502
A0101413570000001069541**********                                               0502
A0101413990657064294002ESPERA, RINALDI O. DBU BARREL                           10501
A0101413990657064294002SMOKER FOODS                                            20500
A0101410300000000919626********                                                 0501
B1301400210682821100608**********                                               2050
A13014005000000070964408810 OH KAMURA TRADING                                   0501
A0101408240000006600302AMORANTO, MARLENE DEL ROSARIO                            0501
A0101408240000006599991ESTERA, WINSTON GEORGE B.                               10502
A0101408240000006599991OR LLAMAS, ROGIELYN P.                                  20500
A2801400100000007822968FERNANDO, RAY ANTHONY DBU                               10501
A2801400100000007822968TALASKY TRAVEL AND TOURS                                20500
B4101400260812012643001KUM KANG CERAMIC PHILS. CO., INC.                        1603
A4101400260000000469329FALCUTILA, MARISSA RAMOS                                 0503
A4101400260000006042991CRISTINA P. IGNACIO                                      0501
B4101400260812821200608**********                                               2005
A4101400390000002293609PANGAN, RICHARD BAUTISTA                                 0501
A4101400420000000710030TUCAY, ANNIE BONITO                                      0501
A4101400420814281659001MORALES, LALAINE DIATO                                   0501
A4101400420000002345331MERCEDITA D. LAGDAMEO                                    0502
B4101400550815040996002MARICHE APARTELLE, INC                                   1601
A4101400550815047619001HIMOC, RUBY ESTOR                                        0501
B0101412340850821200608**********                                               2002
A0101404840851481664025JONATHAN C. SANTOS                                       0501
B0101406750852474662001SECURITY MARKETING & PEST MANAGEMENT                    11603
B0101406750852474662001INC.                                                    21600
A0101405070861380698001REYES SR., RENATO SISCAR                                 0501
A0601400230000000990012GO, JONATHAN TAN                                         0501
