B0101406620273821100608**********                                               2010
B0101406620273821100608**********                                               2010
B0101406620273821100608**********                                               2010
B0101407300395821100608**********                                               2004
B0101401830141821100608**********                                               2002
A3101400740000006349482RONGAVILLA, ALVIN CRIS                                  10501
A3101400740000006349482RONGAVILLA                                              20500
B2001400290315052317001NRU TRADING                                              1610
B2001400290000002406628RAMAS UYPITCHING, NICOLAS S DBU NRU                      1610
A0101402770000001571397ZABALZA, MA. ARVY VELASCO                                0501
B0101414120000003584281JD & P FOOD TRADING CORPORATION                          1602
A0101400860000005313104*                                                        0505
B0101400860011375881002*********                                                1601
A0101400860011399497002**********                                               0506
A0101400860011568203001**********                                               0503
B0101400860011570928001**********                                               1601
A0101400150000003157942CRIS DAVID MIRADOR                                       0502
B0101400150061033461001WOODCHILD HOLDINGS, INC                                  1601
B0101400150000001708681IRC PROPERTIES INC.                                      1605
A0101400150061229009001MANGLAPUS III, RAUL JAY OR                              10501
A0101400150061229009001MANGLAPUS, JENNIFER JANE                                20500
A0101400150061315349085TERESA M. ALCANTARA                                      0501
A0601400100000002365551STO DOMINGO, JEFFRIE ALCOBENDAS                         10503
A0601400100000002365551OR STO DOMINGO,                                         20500
A0601400100081251806002MUNOZ JR., ANACLETO JUICO                                0502
A0601400100081424085002ALAPAG, JASMINDA BRIONES OR                             10502
A0601400100081424085002SARMIENTO, FE SA                                        20500
B0601400520000001706883MERCADO, MARGIE Z DBU LINCEL GEMOSEAN                   11602
B0601400520000001706883LEARNING CENTER                                         21600
B0101410850000001229670NARRA TANKER CORPORATION                                 1602
B0101410850000001229681MOLAVE TANKER CORPORATION                                1602
B0101410850000001229692MAPLE TANKER CORPORATION                                 1602
A0101410560000001290933ODCHIGUE, CORDIALAE ORJALESA                             0502
A0101400730000004948529LACUROM, EFREN BASALO                                    0501
A0101400730111195439001TAN, ROWENA                                              0501
B0101401830000000059972CARITAS SALVE CREDIT COOPERATIVE (NOVA/                 11603
B0101401830000000059972ST.PETER) 010                                           21600
A0101412920000005354478CULASI, ANTONIO CENAS                                    0502
A0101400440000006679732REVILE C. ABONG                                          0501
A0101400440161602321001ROLAND B. GALVAN                                         0501
A0101401090171197389001SANDRA C. SY                                             0501
A0101401090171197930001ROWENA OR EMMANUEL BATOON                                0501
A0301400950000001379546SARABIA, MAY JOY DUCO                                    0501
A0301400950000008000791MALUBAY, EMILY ARNAIZ                                    0502
A0101410720000002283930LADIA, APRIL IRIS RUPIDO                                 0504
A0101413600000005794687JUBY BERNADETTE R. RUIZ                                  0503
B0101413600000005524863HIMLAYANG PILIPINO PLANS, INC.                           1610
B3101400160221013530024RD PAWNSHOP, INC.                                        1603
B3101400740224821100608**********                                               2005
A3001400130000005708545FAYTONE, MARIA FATIMA MAGNO                              0502
A1001400190231520766110MAYOR, CARMELITA ANGCAY                                  0501
B1001400350000000017096AYA VENTURES CORPORATION                                 1604
A1001400350233478374033CARAOS, PATROSENIA T.                                    0501
B1001400480000004097154SABAL HOSPITAL, INC.                                     1610
A1301400470000003270431CHRISTIAN VINCENT R. SALAZAR                             0502
A1301400760000005379502MAILEEN B. CAJUCOM                                       0502
A0101401670271228042001TINIO, JUAN ANGEL LIGON                                 10501
A0101401670271228042001OR TINIO, MARIA CELESTE                                 20500
B0101406620273047822001ROCKHAUS REALTY AND DEVELOPMENT INC.                     1601
A0101410980000005709606LIMKETKAI, GLENN TAN                                     0501
A0101400570281395118001HONEYLIN C. ROXAS                                        0501
A0101411240000001563402ORTIZ, CARLO A.                                          0501
A0501400200292065414001GO, BERNARD C DBU ST. BERNARD'S                         10501
A0501400200292065414001TRDG & GEN.MERCHANDISE                                  20500
A0501400200292065414001GO, BERNARD C DBU ST. BERNARD'S                         10501
A0501400200292065414001TRDG & GEN.MERCHANDISE                                  20500
A1101400120000003022373BANTULA, EVELISA                                         0501
A1101400120313478374074UNGAB, ROSALINDA B.                                      0501
A6601400120314612856001FRANZUELA, SARAH S.                                      0505
A0101402510341047849002GONZALES, DBU MARGON PRINTING P                          0501
A0101409050000008087565BERNAL, MALVIN ARRIOLA                                   0501
A0101409050352065203002BARRICA, CRISTINA R                                     10501
A0101409050352065203002DBU QME ENTERPRI                                        20500
B0201400760374006430001CHRIST COMMISSION FOUNDATION INC.                        1602
A0201400760374550346001COLE, MELISSA VILLADOLID OR                             10501
A0201400760374550346001COLE, BONIFACIO                                         20500
A0201400920000000048053YU, WILSON LIM                                           0505
A0201401020000009581126DAWATAN, JULIET PACINO                                   0501
A0201401020000009581159APILIS JR., ARNOLD GENATA                                0502
A0201401020000009581193JAPSON, RICHARD MAGALLON                                 0502
A0201401020000009581206BAGTAS, ALLAN PAULO FULO                                 0501
A0201401020000009581228BUENAVENTURA, ERNEST PAUL GUTIE                          0502
A0201401020000009581239LAURENTE, GIANNA TAWNNI INTONG                           0501
A0201401020000009581251PATALINGHUG, RUSTY RACOBA                                0501
A0201401020000009581262MAGLAQUI, KLARENZ LLOYD CRUZ                             0501
A0201401020000009581273DE GUZMAN, SHYREL PALATINO                               0501
A0201401020000009581291DOCTOR, FLORVEN REAMBONANZA                              0501
A0201401020000009581308BORJA, MARY ANTONETTE CLARIANES                          0502
A0201401020000009581319PLANTERAS, RALPH JOHN SARNE                              0501
A0201401020000009581331CABANERO, RONALD GABIJAN                                 0501
A0201401020000000470193LOUIE PENA'S TRAVEL TOURS & EVE                          0503
A0101408790000005251029MECANO, ANA LUZ SALONGA OR                              10501
A0101408790000005251029CHUA, GHIN ENG                                          20500
A0101408790383694524001CHANYUNGCO, JOSE R. OR                                  10503
A0101408790383694524001CHANYUNGCO, CONC                                        20500
A0101415350000006731280MALVAR, NANETTE CHAVES                                   0502
A0101405490000000355571MA ANASTACIA S. OR RITA THERESE                         10501
A0101405490000000355571S. DELA MERCED                                          20500
B0101408400394034123001DOKIKS FOOD CORPORATION                                  1601
A5501400120000006976950MENOR, HAZEL JOY OBRA                                    0502
A2401400180000002146185SUICO, RENATO PADAL                                      0502
B2401400180000007476751GAISANO, PAUL SY                                         1603
B2401400180000000019769WILL & JOE AGGREGATES, INC.                              1602
A0901400220432478374001LEONARD GO LOZADA                                        0501
A0901400220000000425045LOZADA, ELIZABETH GO                                     0501
A0101403030441239409001**********                                               0502
A0101410140475738965001GERERO, MARITES LANGUITA                                 0505
A0501400170000006300721DESCANZO, ANGELIQUE GUADALUPE F                          0501
A0501400170481319119001XXXXX                                                    0501
A0501400170481485605001MACARAEG, MERIAM REASONDA                                0503
A1601400170000001068600MADELAR, EDILBERTO MANZANILLA                            0501
A0701400260000005303713EVANGELISTA, EDUARDO ERNESTO                            10502
A0701400260000005303713ALMEDA                                                  20500
B0101407430503042216001HIGH COMMAND AVIATION SECURITY                          11605
B0101407430503042216001SERVICES CORP.                                          21600
B0101403580511005400001IA CAMPBELL & ASSOCIATES INC                             1610
B0101403580511005445013MILLENNIUM BUSINESS SERVICES, INC.                       1602
A0101405940000009582443SESE, KARMELLA JAYNE DOCTOR                              0501
B0101405940000000886740IMMERSIVE MEDIA, INC.                                    1610
A0101405940512423714001ELISA MAGTIBAY OR VINCENT                               10503
A0101405940512423714001MAGTIBAY                                                20500
B0101408110515044192001ASIA SOCIETY FOR SOCIAL IMPROVEMENT AND                 11605
B0101408110515044192001SUSTAINABLE                                             21600
A0101408110515349308003CLEOTILDE B. FRANCISCO                                   0501
A0101408530516044264001DATA ART DESIGN & PRINT SERVICE                          0501
A0101411400000005329820CARUNGIN, CHAD REY VICTORIO                              0501
A0101403450000007072580*********                                                0501
A0101403450521238088001**********                                               0503
B0101403450521239481001**********                                               1602
A0101403450521478374007********                                                 0501
A0101403450521563148001**********                                               0502
A0101404130601237439001ANCHETA, MIRAFLOR PEREZ                                  0501
A0101407720000000017643QUIAMBAO, ROBERTO ACHILLES OR                           10501
A0101407720000000017643MONICA LUZ CARMEN                                       20500
A0101407720602161854002**********                                               0502
A0101407720602363809001DR. MICHAEL SABALZA OR                                  10502
A0101407720602363809001DR. MA. JO ANN SABALZA                                  20500
A0101407720602378666002FILOTEO CERENO FERRER                                    0502
A0101407720602396824001ALVAREZ, VICTOR MUSCA                                    0502
B0101409890000007373120**********                                               1602
A0101413440000000570427DANAO, SANTIAGO BALONDO                                  0502
A0101413440655054477001LAND FIRST REALTY                                        0501
A0101413570656057354002CLEVER MINDS MARKETING                                   0501
B0101414120000000399133Q CLEAN LIVING PHILS. CORP.                              1602
B0101406590662065462001ALCANTARA, MARLYN DACORO DBU OMG ARTS &                 11602
B0101406590662065462001FRAME SHOP                                              21600
A1301400340000005264780INSIGNE, MERNANDO VOLUNTAD                               0503
A1301400500000000213265VINCENT P. JAVIER OR                                    10505
A1301400500000000213265TERESITA F. JAVI                                        20500
A0101408240000000347493COLLANTES, MA. CORAZON TARNATE                           0501
A0101408240711667452001LU, MYLEE BAS                                            0501
A0101408240711721738001AURELIO, LEAH LUZURIAGA                                  0502
A4101400390000002293609PANGAN, RICHARD BAUTISTA                                 0501
A4101400390813791358001VASQUEZ, RICARDO DE OCAMPO                               0501
A4101400550000006044651AAT COMPUTER SUPPLY                                      0502
B0101405070861022087001AIR SPACE TRAVEL AND TOURS INC.                          1605
A0101405070000006006086CHAN, OLIMPIA CALUGAY                                    0502
A0601400230000003015750RICHIE B. PAGCU OR                                      10501
A0601400230000003015750JOSE RICARTE B.                                         20500
