B0201400920375821100608**********                                               2005
A4101400260812247613001LUZVIMINDA J. ESTOCADO                                   0505
A4101400260812396084001JOSEFINO S. REBANCOS, M.D.                              10505
A4101400260812396084001LIGAYA S. REBANCOS                                      20500
A4101400260000006043049FALIC, JEANNETTE RUGA                                    0502
A3001400130000001271341SURALTA, GEGINIA MONTICINO                               0501
A1101400120000009119568KO, JEFFERSON UY OR                                     10502
A1101400120000009119568KO, GERARDA LETABA                                      20500
A2001400290315688009001ALGOPERA, LLOYD GARCIA                                   0504
A0101408370000008667712DIMAYUGA, CESAR CIPRIANO D.L.                           10505
A0101408370000008667712DIMAYUGA, MARY ELIZABETH                                20500
B0101405490392030493001V5 CONSTRUCTION & DEV'T CORPORATION                      1603
A0101400860011407777001**********                                               0505
A0101400860011608631001**********                                               0502
A0101401250000002290104ATUY, FLOREIVIC JOGEI BENLOT                             0501
A0101401250000008233334ANDRADA, MALOU CARBONILLA                                0502
B0101401250021038065001NEW IMAGE MULTI-LINE INDUSTRIAL                         11601
B0101401250021038065001RESOURCES                                               21600
A0101401250021179020001LLAMADO, REYNALDO C. OR                                 10501
A0101401250021179020001LLAMADO, NATIVID                                        20500
A0101401250021185870001CATHERINE B. RELAMIDA OR                                10502
A0101401250021185870001IBARO B. RELAMIDA                                       20500
A0101401250021366032001GALES, GLORIA MASILANG                                   0501
B0101400150000000052720SOUTHKEY DEVELOPMENT CORP.                               1610
A0101400150000003141511WEEKUN, RITCHE LIM                                       0503
B0101400150061009769001KEYLAND CORPORATION                                      1610
B0101400150061010688010SB CARDS CORPORATION                                     1610
B0101400150061026122002DDC LAND INC.                                            1605
A0101400150061039917013TOLENTINO, HORACIO                                       0501
A0101400150061236944046JOHANNA S. HERNANDEZ                                     0502
A0101400150061315447001SUBIDO, M.D. JONAS CERTEZA                               0501
A0101400150061684116001MAGRAMO, FREDESWINDA CERDA                               0501
B0101400600071325386001********                                                 1601
B0101405810072507268003**********                                               1601
B0601400100081256780001MICRO-B, INC.                                            1604
A0601400360000007539793SUAREZ, RAMON JOSE FLORES OR                            10502
A0601400360000007539793SUAREZ, GLORIA DE LEON                                  20500
A0601400520000004423192CARPIO, SHEILA BORRERO                                   0501
A0601400520000005943542ARCEO, TEEJAY ROMERO                                     0501
A0101413730000000144589**********                                               0503
A0101406040000008915471********                                                 0504
A0101406040112209765001**********                                               0502
A0101406040000000014724********                                                 0502
A0101406040000001392007********                                                 0501
A0101401960121238456001**********                                               0501
B0101401960121821200608**********                                               2001
A0101412630000007158092BAYANI L. MANALASTAS                                     0501
A7201400170000009673152SAMSON, ADELFA ALIVIO                                    0502
A7201400170000000040575ELCAMEL, BELEN PEDROZA                                   0501
A7201400170000003774010FERRAZ, JIMMARY VIC CANETE                               0503
A7201400170000011141681YTING, NELLY SUAN                                        0501
B5001400170000000169904GREEN SUMMIT REALTY AND MANAGEMENT                      11601
B5001400170000000169904CONSULTANCY CO.                                         21600
A0101400440000001439732ANALY M. VILLARMA                                        0501
A0101400440000009591882LIEZEL G. OBSIOMA                                        0502
A0101400440161520766189PRESCILA P. DOTONG                                       0501
A0101407270000006761482ARGUELLES, LUIS LLANERA                                  0501
A0101401090171195906001DR. IRWIN V. RIVERA OR                                  10508
A0101401090171195906001DR. CLARA R. RIVERA                                     20500
A0101401090171196210002LOPEZ, MA. CRISTINA OR                                  10502
A0101401090171196210002RAMOS, HUBERT                                           20500
A0101401090171196330001TAN, EMILY B. OR TAN, STEVENSON                         10502
A0101401090171196330001J.                                                      20500
A0101401090171199148001MA. RHODA C. RECTO                                       0501
A0101401090171293965003VIVECA JANE OR CHARLIE                                  10502
A0101401090171293965003DEOCADIZ                                                20500
A0301400530000003088082SAMAR, REMEGIO ESPANO                                    0502
B0301400530193037617168PIONEER BUENAS COMMODITIES CORP.                         1620
A0301400530193776115001EDPAN, JANE G.                                           0501
A0301400660000005691778MANALASTAS, XAVIER ERIC BANDIOL                          0502
B0301400790195053525001EMCELI PROPERTY HOLDINGS CORP                            1601
A0101412500000003290008NINO, ORLSON WELLES FABRUADA                             0501
A0101413600000005228024MADELAINE J. AURELIO                                     0501
A3101400740000011158222MORALES, MARVERICK L. OR                                10501
A3101400740000011158222MORALES, RAYCHELLE MAE A.                               20500
A1001400190231276909002**********                                               0501
A1001400190231520766042GEOTORO, INES MANGUILIMOTAN                              0501
A1001400350000008698822TAN, CLAUDETTE DIANE SAMONTE                             0502
A1001400480000008501922BOLLOZOS, SHELDON LABASAN                                0501
A1301400470252428703001FERDINAND S. PUNO OR                                    10501
A1301400470252428703001BABELET E. PUNO                                         20500
A1301400470252484142001LOUIE CHUA KING                                          0503
A1901400290261337520001DRA NATALIA B CARDONA OR                                10505
A1901400290261337520001DR DANILO C CARDONA                                     20500
B0101401670271555562003GREEN ASIA REAL ESTATE AND DEVELOPMENT                  11601
B0101401670271555562003INC.                                                    21600
A0101406460000002359862LIN, CHERRIE JAYCE ONG                                   0501
B0101406620273215897003PATHLAND DEVELOPMENT CORP.                               1610
A0101406620273357236001GABRIELE G. BOSCHI OR                                   10502
A0101406620273357236001JULIE MARIE J. BOSCHI                                   20500
B0101411110000003202062******                                                   1602
A0101400570281332030002DR. SIMEON D. TANZO A.K.A                               10501
A0101400570281332030002DR. SAMMY TANZO                                         20500
B0101411240283046060001GRAND STAR GENERAL CONTRACTOR                            1604
B0101411240283068012001CEBU FORT LEGEND CORP.                                   1601
B0101411240283068013001MANILA QUEEN FORT CORP.                                  1601
B0101411240283068015001PASIG HIGH QUALITY CORP.                                 1601
A2601400270302794359001VENILDA S. ZARA                                          0501
A0801400160311478374070GENALYN M. BOTANERO                                      0501
A1101400120000000065103BELLO, TERESITA CASTARITAS                               0501
A2001400290315644867001SY, BENSON GO                                           10501
A2001400290315644867001SY, MARGIE TERES                                        20500
A0101402350321242269001**********                                               0502
A0101402510341544597001CLARITA B BUENAGUA OR                                   10501
A0101402510341544597001CLARIBILLE B BUENAGUA                                   20500
A0101402060351695619001ADVINCULA, JENNIFER BATALLER                             0501
A0201400760374260158002PINEDA, ALFREDO B.                                       0501
A0201400760374720031001******                                                   0503
A0201400920000000048053YU, WILSON LIM                                           0505
A0201400920375044441001SUI'S PRINTSONIC                                         0501
B0201400920000000047874TURBO TRANSPORT INC.                                     1603
A0101408370382407250002DR. ALWYN JOHANNA C. SANTOS                              0501
A0101408370382408300001DR. RODRIGO C. SANTOS OR                                10502
A0101408370382408300001DR. ALWYN JOHANNA SANTOS                                20500
A0101408370382416284001DR. BERNARDITA O. POLICARPIO OR                         10502
A0101408370382416284001DR. REUBEN D. POLICARPIO                                20500
A0101408370382455223001DR. ROMMEL D. BAUTISTA                                   0503
A0101408370000003774998MERCADO, JOSEFINA FAMORCA                                0501
A0101411660000002309560RIVERA, VENUS TUMPALAN                                   0501
A0101415350000007878031IBANEZ, KIM EZETH SUMAYA                                 0501
A0101415350000007043752PARAJAS, ARSENIO DBU AAGP ENTER                         10506
A0101415350000007043752PRISES OR PARAJAS, GRACE                                20500
A0101405490000005210193DEL ROSARIO, EDGARDO CRUZ                                0501
B0101405490000000020008101 VENTURES SUPPORT CORPORATION                         1605
A0101409180000001694260PENUS, LINA ROSE SARAVIA                                 0501
A0101409210000006599075GARCIA, JOVY GALIT OR                                   10501
A0101409210000006599075GARCIA, LORETA E                                        20500
A0101412210000001236242AYQUE, FELIX RICARDUS LUCKY R.                           0502
A5501400120410650364008SAY, GILDA OR DANNY OR HENRY OR                         10502
A5501400120410650364008HELEN                                                   20500
A2401400180411026519003CITY BANKERS ASSOCIATION OF                             10501
A2401400180411026519003GENERAL SANTOS                                          20500
A2401400180411044483001OUR LADY OF PERPETUAL HELP                              10501
A2401400180411044483001PARISH                                                  20500
A2401400180411051200002NOLEAL, MARLON M. DBU MRP AUTO                          10502
A2401400180411051200002CENTER OR NOLEAL, ROSIE D                               20500
A2401400180411478374067CORTAL, CYNTHIA DE LEON                                  0501
A2401400180411496346001OCIEL, MARIA MAGDALINA S. OR                            10505
A2401400180411496346001OCIEL, RANDY L.                                         20500
A2401400180411539646003ONCADA, VANESSA CALUBIA OR                              10505
A2401400180411539646003ONCADA, JOSEPH Q                                        20500
A2401400180411574010001TUPAS, KHERYL PARRENO OR                                10502
A2401400180411574010001TUPAS, NINA LEONILA                                     20500
B0901400220432821100608**********                                               2001
B0101403030441011866004**********                                               1610
A0101403320000011173509ARIANE MADISON O. ALI                                    0501
B0101403320471035191001ST. GABRIEL CREDIT COOPERATIVE                           1601
A0101403320471067995001LEE, MICHAEL A. DBU                                     10501
A0101403320471067995001HAYWARD PRINTING                                        20500
A0101406330000002278004FLORESTA, WILLIAM LEE OR                                10502
A0101406330000002278004FLORESTA, MARIA                                         20500
B0101406330472010916001COLLINS INTERNATIONAL TRADING CORP.                      1601
B0101406330472027368002R & A FASTFRATE CORP.                                    1603
B0101406330472040053001KUS OFFICE SYSTEM MFG. CORP.                             1602
A0101406330000007331713QUICKFLAMES METAL FABRICATION                            0502
A0101406330000000451216MARIBEL P. ZAFE OR                                      10502
A0101406330000000451216NOEL B. ZAFE                                            20500
A0101406330472657550001**********                                               0502
A0101410140000006015407EDORIA, DBU MLE VALVE ENTERPRIS                          0505
A0501400170481252349002LALAS, MAEVA DELA CRUZ                                   0501
B1901400320489062995002CLEVERGOLD CREDIT CORPORATION                            1605
A1901400160491559018001ROWENA M MAKALINTAL                                      0501
A1401400110000008266137ORTE, ARMIDA RANIAG                                      0502
A1401400110000011176986BUSTILLO, JOERY GALDIANO                                 0501
B1401400110492046339002******                                                   1620
B1401400110000005945457POWERPHIL HR NETWORKS, INC.                              1603
B1401400110000005945479TRIOWNED CONSTRUCTION COMPANY                            1602
A1401400110492220879001ANGLO, ROMEO F. OR                                      10502
A1401400110492220879001ANGLO, CECILIA N                                        20500
B0101405940000005359606SOMNOMED PHILIPPINES, INC.                               1605
B0101403450521029235001*******                                                  1605
B0101403450000008380752ISTEEL, INC.                                             1605
A2201400250000003558230GAYONA, ALLAN PADILLA                                    0502
A2201400250561478374038ZENAIDA B. DELA CRUZ                                    10501
A2201400250561478374038MEMBERS OF NATASHA                                      20500
B0101410690000006663610DRAF OFFICE FURNITURE CONCEPTS INC                       1605
A0101404130601237439001ANCHETA, MIRAFLOR PEREZ                                  0501
B0101407720602015710001MMC MANAGER'S COUNCIL LOAN ACCOUNT                       1601
A0101407720602518149001TARRIELA, MARIA ARMELA CASTILLO                          0502
A0101409890000006812860GAJUDO, JAY VALLEDO                                      0502
A0101409890649723947002**********                                               0501
A0101413570000004353877NEDIRA, GINALYN BERONGOY                                 0502
A0101413990000002962872VARILLA, CHRISTOPHER REY ANINON                          0501
A0101414120000000649081MC EDRICK TRUCKING SERVICES                              0504
A1301400210000000540710ALFONSO, MA. LOURDES PASCO                               0502
A1301400340000000926870CUERDO, AYA                                              0503
A1301400340000000926858SABATER, VICTOR JOSEPH SALIG                             0501
A1301400340000005265043GUEVARRA, RUEL BALDOS                                    0501
A1301400340683542735002BIUNAS, REMEDIOS GREGORIO                                0502
A1301400500000006218533ABALOS, ROSSANA DE GUZMAN                                0502
A1301400500000009723202CASADORES, JIMMY ESCARPE                                 0501
A1301400500684762106001VICEO III, JAIME S.                                      0501
A0101408240000006600222LOPEZ, RICARDO LUNA                                      0502
A0101408240000008160132RICAFRENTE, MA. ANALYN DELFIN                            0502
A0101408240711557139001NAVA, JACQUELINE OBENITA                                 0501
A0101408240711648194001NEBREJA, ANDRE NUNEZ                                     0502
A4101400260000006043403RAPISTA, JOHNNY APISTAR                                  0502
A4101400390000006302483BAGUINDA, FARIDAH MUSTAPHA DBU                          10503
A4101400390000006302483FARD'S FASHION S                                        20500
A4101400550000000315142JMBR TRADING                                             0501
B0101404840851009282001KAWASAKI MOTORS PHILS. CORP.                             1603
B0101404840000000090213SAPLALA AND SANTILLAN SMILE SYM                          1601
A0101404840851320776034MA. CRISTINA DOVAL SANTOS                                0503
A0101404840851478374171LORENA A. ARES                                           0502
A0101406750852022181001DATHAN ENTERPRISES                                       0505
A0601400230000000452782GOZUN, R-JAY RAMOS                                      10510
A0601400230000000452782OR GOZUN, MYRNA                                         20500
