B0101402060351821100608**********                                               2010
B2401400180000000073663CENTURY PACIFIC FOOD, INC.                               1605
B0101405810000000016811SK PLASTIC RELIANCE COMPANY                              1603
A0101405810072284224001*********                                                0501
B0301400660194046395088DAVSAM LINK CORPORATION                                  1601
A0101400860011236212001**********                                               0501
A0101400860011398810001**********                                               0502
A0101400860011449713001**********                                               0502
A0101400860000001005332***********                                              0504
A0101400860000001005558**********                                               0502
A0101400860011496074002**********                                               0501
A0101400860011548447001**********                                               0502
A0101400860011653864001**********                                               0503
A0101400150000000807790CRUZ, JOHN JOHN REVILLAME                                0501
A0101400150000003141551***********                                              0501
B0101400150061042091001CREAMLINE DAIRY CORPORATION                              1601
B0101400150000001708414SAN CARLOS CLEAN ENERGY INC.                             1602
A0101400150061292057001GIDEON G. SISON                                          0503
A0101400150061327950002TORRIJOS, ABDULIA ESPIRITU                               0502
A0101400150061531871001MAANO, OLIVER ALVIAR                                     0501
A0101400150061656681001PASCO, KAREN MIRIAM SORIANO                              0501
A0101400150000010296950SEMPIO, VANESA BUSTILLO                                  0501
A0101405810072328069001VASQUEZ, SOCORRO                                         0502
B0101400730111014312001NGC MEDICAL SPECIALIST CLINIC, INC.                      1610
A0101400730111201201001CHUA, WILLIAM H. OR                                     10501
A0101400730111201201001CHUA, TITA P.                                           20500
A0101400730111478374017VEBELITA G. GALLETO                                      0502
B0101413150124821100608**********                                               2005
B0101413150124821200608**********                                               2003
A0101412630000001823376SIMBRE, JOAN ILAGAN                                      0501
B0101401830141029955001SHELL EMPLOYEES MULTI-PURPOSE COOP. -                   11605
B0101401830141029955001STORE                                                   21600
A0101401830141653090001JOSELITO ALBERTO S. CASTRO OR                           10502
A0101401830141653090001KATRINA INEZ S. JAVIER                                  20500
B0101400440161007221001ILA EXPRESS HAULER                                       1602
B0101400440000000029321PERLA COMPANIA DE SEGUROS, INC.                          1601
A0101400440000002035041MARIA GEVELA CARDINOZA                                   0501
A0101400440161402507001ANNABEL A. LACOSTALES                                    0501
A0101401090171196066002MARY JOCELYN OR REDARIO LAYGO                            0502
A0101401090171196077001EUSEBIO E. LLAMAS OR                                    10503
A0101401090171196077001LOURDES LLAMAS                                          20500
A0101401090171197481002MA. NOEMI OR ELIEZER SALAZAR                             0502
B0301400530000001409392PHILFRUITS PREMIUM CORPORATION                           1603
A0301400530193478374008CHYRL ANN SENANGOTE                                      0502
A0301400790000002301393BARCELONA, JANET TIZON                                   0501
A0301400790000005692071AL-AG, WILMAR ECHAVEZ                                    0502
A0301400790000005692128AMANDORON, MAXIMO POTANE                                 0501
B0101401380201038251001PRIME ROCK PHILIPPINES, INC.                             1601
B0101401380000000026968SENUBI TRAVEL CORP.                                      1601
B3101400160221000717001MARITIME SAVINGS BANK CORPORATION                        1601
B3101400160221013530024RD PAWNSHOP, INC.                                        1603
B3001400130230821100608**********                                               2010
B3001400130230821200608**********                                               2005
B1001400190231276633001SIA, TOMAS &/OR ANNIE &/OR GINA                         11604
B1001400190231276633001&/OR HENRY                                              21600
A1001400190000000016457ANTIGA, LUNITA                                           0501
A1001400190000002170770LAGUMEN, LOUELLA CATALAN                                 0501
B1301400760000000050740TILAH CORPORATION                                        1606
B0101401670000004588490H.S. POW CONSTRUCTION AND DEVELOPMENT                   11603
B0101401670000004588490CORPORATION                                             21600
B0101401670271706669001OOOZE INC.                                               1601
A0101406620273341737001KAMPITAN, MA. THERESA LEDESMA                            0501
B0101400570281047291001FARMACIA NI DOK INCORPORATED                             1602
A0101400570281385805001MARIA ELENA T. LAGNITON                                  0504
A0101400570281417780001JOYCELYN TAN TANZO, D.M.D.                               0502
A0801400160000007444320DUMARA-OG, MARY EARL DARYL SERE                          0501
A1101400120000003981168MAHID M. SIDIC DBU MAHID                                10502
A1101400120000003981168CELLPHONE ACCESSORIES                                   20500
A1101400120000000065121ALVARADO, LIEZEL CASINO                                  0501
B6601400120314043068001NEW ECONOMY HARDWARE AND ELECTRICAL                     11602
B6601400120314043068001SUPPLY                                                  21600
A2001400290315641654001LOZANO, PALMA JANE LIMPIADO                              0501
A3401400280318087389001URSOS, DYANA JANE LOYOLA                                 0501
A0101402350321536804001MANZANERO, LIGAYA I.                                     0501
A0101402510341554527001GO, LONG CHEN OR                                        10501
A0101402510341554527001GO, CECILE ONG                                          20500
A0101402060351509743001FERNANDEZ, LIGAYA PERENA OR                             10501
A0101402060351509743001MA. VICTORIA F.                                         20500
A0101408370000010341743TING, CHRISTIAN NEVIN GARGANTA                           0502
A0101408790383242406001KAW, ALEXANDER OR KAW, JENNIFER                          0502
A0101402770000007935757GASTANES, MARY ROCHELLE CABRAL                           0502
A0101402770000001570725DBU CHRISTINE MANALO VILLAMORA                          10501
A0101402770000001570725INTERIOR DESIGNS                                        20500
B0101405490000000019963NAJIA MOVERS & PROJECT SPECIALIST INC.                   1602
A0101405490392595522001DELA CRUZ, JEFFREY CORPUZ                                0501
A2401400180000002146185SUICO, RENATO PADAL                                      0502
B2401400180411033012001RUGELA FISHING INDUSTRIES INC                            1605
A2401400180000010066110MACABANGON, MARLON GUNDUL OR                            10505
A2401400180000010066110MACABANGON, BENEDICTA L.                                20500
A0101403320000000067543ATENDIDO, MANUEL T. JT                                  10501
A0101403320000000067543DBU ATENDIDO REALTY                                     20500
B0101412760000007821812MAKE STUDIOS INC.                                        1602
A3801400170000000955120DANTE A ALBUERA DBU                                     10501
A3801400170000000955120D.A. ALBUERA ENT                                        20500
A1601400170494057284001F2M TOWER                                                0501
A1601400170494057284001F2M TOWER                                                0501
A0101407430000003193439MARK JHON O. ALMASE                                      0501
A0101403450521238269001**********                                               0505
A0101403610531368279001PITERO, MARLENE NEPOMUCENO                               0502
B0101404130601018049001GRAINS PER POUND ENTERPRISES, INC.                       1601
B0101404130601100034002ADVATECH INDUSTRIES, INC.                                1612
B0101407720000007951844SNOW WHITE WELLNESS & BEAUTY SPA INC.                    1601
B0101404260611037364001MMF METAL FABRICATION                                    1605
A0101404260000007498288DE GUZMAN, MARILOU GREGORIO                              0501
A0101404260000000003772CRESPO, FLORENCE SANGA                                   0501
A0101409920000005460817MEMBERS OF NATASHA, SHOECAT INC                         10501
A0101409920000005460817BUCAD, EDNA O.                                          20500
A0101413570656057648174MELANIE MENDEZ                                           0501
B0101406590662037318001NETWORK TWENTYONE, INC.                                  1602
A0101406590662207039001HORTENCIA A. BUENAVENTURA OR                            10501
A0101406590662207039001MA. THERESA TAN                                         20500
A1301400340000000926927DELA CRUZ, RONNEL SANTIAGO                               0501
A1301400340683380503008ALVEZA, TRIGIDIA DE VERA                                 0501
A1301400500684594780002CASTRO, RAYMUNDO OR                                     10502
A1301400500684594780002CASTRO, ROSEMARIE                                       20500
A4101400260000000469329FALCUTILA, MARISSA RAMOS                                 0503
A4101400260000000002120LUCIANO, MARIA PAZ GOMEZ                                 0502
A4101400260812299913002CAMPOS, FILOMENA OR CAMPOS,                             10501
A4101400260812299913002BERNIE OR CAMPOS, ROMINA                                20500
A4101400260812478374055ARLENITA E. MORALITA                                     0501
A4101400260812643003001ROCILLO, EDWIN AURE                                      0502
A4101400550000006044344MAGAT, REANNE CARREON                                    0501
A4101400550000009642975IGLESIAS, WILMA RICACHO                                  0502
A0101412340000004360030MARIA LUISA C. CUSTODIO                                  0501
A0101404840000000943226DE LEON, RODERICK DELA CRUZ                              0502
A0101404840851791747001BALMES, GERVACIO OR SARADAT,                            10501
A0101404840851791747001MONICA OR GALLAG                                        20500
A0101406750000008644195GELING, MARIA LUISA ALOTA                                0502
A0101406750000010717701SILVESTRE, EVELYN RAMIREZ AND                           10501
A0101406750000010717701SILVESTRE, AIMEE CAROLYN                                20500
A0101405070861027133001WORLDLINKS CABLE WORKS                                   0502
A0601400230000006045552LYDIA F PINGUL OR FRANCISCO                             10502
A0601400230000006045552GABRIEL P MANALAC                                       20500
