B0101408370382821100608**********                                               2005
B0101410850109821100608**********                                               2020
A0101413280000012091951ARTURO BENEDICTO VILLALON JR.                            0501
A0501400200000004457045MARINAS, SUSAN TAMPUECO                                  0501
A0101400860011486501001************                                             0501
A0101411370000005524523PATRICIO, ELIZALDE DE VILLA                              0503
B0101400150061044736001MARSMAN DRYSDALE TRAVEL, INC.                            1605
A0101400150000000000055SOBEJANA, KATRYN ROSE VERDIN                             0501
A0101400150061231678001GALANG, SHIRLEY DELA CRUZ                                0502
A0101400150061315349084DAPHNIE YU KIM TENG                                      0501
A0101400600071233729001**********                                               0501
B0601400100081253610002NG, WILFREDO M. AND AQUINO, JANET B. AND                11606
B0601400100081253610002BUAN, ROLAND S.                                         21600
A0601400100081254197001RAUL G. NARCISO OR ROSEANNA SY                          10501
A0601400100081254197001NARCISO                                                 20500
A0101413280000005279694**********                                               0501
B0101413280000000041932UYSEKUA INDUSTRIAL CORPORATION                           1601
B0101413280092821100608**********                                               2002
B0101410560000000757240BALTAZAR BEATRIZ & GARBILES LETICIA                     11601
B0101410560000000757240& FELIX CORAZON                                         21600
A0101410560000000020195LELIANE D. TORRES                                        0505
A0101410560000000590545JAMIE C. MOLINA                                          0501
A0101400730111386712001FERANIL, EDNA DECENA                                     0505
A0101400730111393421017MAGDALENA D. JAVIER                                      0501
A0101400730111703359001JAVIER, MAGDALENA DIONISIO                              10506
A0101400730111703359001OR MAJAR B. JARD                                        20500
A0101401960121240766001*********                                                0501
A0101401960121422607001**********                                               0501
A0101413310000005433147CONCEPCION, TERESITA GUINTO OR                          10501
A0101413310000005433147CONCEPCION, ANTO                                        20500
A0101401830141207213002LILIA C. GALINDO OR                                     10501
A0101401830141207213002REBECCA C. BUENAVENTURA                                 20500
B7201400170000002791433DIEROSEL L. PULMANO OR JULIUS M. PULMANO                 1603
A7201400170000006487518ARANDING, LIZA MEDADO                                    0501
A5001400170000000214020ARNOCO, MARIETA DIAMANTE                                 0502
A0101412920000002358990ANDEN, MAY EVANGELINE REGASPI                            0501
A0101412920000005354616PAUNIL, MARLYN GRACE BEA                                 0501
B0101412920160004029001REYES, VIRGINIA KHO DBU SMVR TRANSPORT                  11601
B0101412920160004029001OR REYES, ALVIN                                         21600
B0101400440161007395001K SERVICO TRADE, INC.                                    1603
A0101407270162333154018MA. LINDA C. JAVIER                                      0502
B0101401090000000772441B.A. ELECTRICAL SUPPLY                                   1610
A0101401090000003835927MASANQUE MEDICAL EQUIPMENTS                              0503
A0101401090171196005001MARCELINO BANZON OR                                     10504
A0101401090171196005001NINA BANZON                                             20500
A0101401090171198756002MARILOU OR EMMA SANTIAGO                                 0501
A0101401090171384034001MARK ANTHONY D. ABENIR                                   0502
B0301400660000000195259ORIENTAL & MOTOLITE MARKETING CORP.                      1605
A0301400950000001379477CCD AUTO HUB AUTO SERVICE                               10503
A0301400950000001379477CENTER                                                  20500
A0101401380000010190604MUYA, MARLON BATHAN                                      0505
A0101401380000000106505SY, WILFREDO O. DBU TITO ROM                            10503
A0101401380000000106505SA CAPITOL RESTAURANT                                   20500
A0101401380201517488001BENEDICTO, HERIBERTH MEDINA                              0501
A0101412500000012140064RAMOS, NORMA MAABA                                       0501
A3101400160000000006500ANNIEFER P MERCADO                                       0502
B3101400160221041596001LOS BANOS DOCTOR'S HOSPITAL INC                          1604
B3101400450223022719001GENCARS SAN PABLO, INC.                                  1610
A1001400190000001057534MIGUELA, JUANITO PANGILINAN                              0503
A1001400190231040827001NAMOC, ANTOLIN JAGAPE DBU                               10502
A1001400190231040827001FOUR N ONE PARTS SUPPLY                                 20500
A1001400190231520766125YANA, MAYFLOR DAGOC                                      0501
A1001400190231520766128MAGLANGIT, JONIE QUIACAO                                 0501
A1001400480000002300430YU, WINEFREDO NISNISAN DBU                              10501
A1001400480000002300430WINKIM TRUCKING                                         20500
A1301400760000000050693MARLON P. MALLARI or LEONCIA                            10502
A1301400760000000050693S. MALLARI                                              20500
A1301400760000005379520LUIS V. CHUA                                             0502
A1301400760000005379531JOBY L. MORENO OR                                       10504
A1301400760000005379531LAWRENCE G. MORENO                                      20500
B1901400290261036122001LODLOD PARISH MULTI-PURPOSE COOPERATIVE                  1605
A1901400290261488341020ARVIN G BRIONES                                          0503
A1901400290000003252720DIVINA GINA SANGALANG DE CASTRO                          0501
B0101406460272020749001EASTGATE COMPUTER CORPORATION                            1601
B0101406620000000194176RIOFIL CORPORATION                                       1650
A0101400570281187259001DR. GREGORIO G. ROGELIO                                  0505
A0501400200000002306092VICENTE, MARK CYRILL PAGUYO OR                          10502
A0501400200000002306092VICENTE, RUTH GAIL M.                                   20500
A0801400160311478374106SORILLA, HAYDEE                                          0501
A0101405650000010319103ALCANTARA, TRINNA QUIDAYAN                               0501
B0101405650000005381999AIRSCAPE TRAVELS, INC.                                   1602
A0101402510341188778002DELA CRUZ, MERIAM VILLAREAL                              0503
A0101402510341415300002UY, JOANNE CHRISTINE HUANG                               0501
A0101402510341432796001SARET, BERNARDETTE LEVISTE                               0501
A0101402510341687903001RUBIO, MICHAEL JOHN YOUNG                                0501
A0101409050352600066001FAYE CARLIE CRUZ OR                                     10501
A0101409050352600066001BENSON RYAN CRUZ                                        20500
A0201400920000000048031FMC CATERING SERVICES                                    0502
B0201400920375526997001**********                                               1602
B0201400890376056536001MULTIFARMS AGRO-INDUSTRIAL DEV. CORP                     1601
B0101402930381033256001BENMARK GROUP HOLDINGS, INC.                             1606
A0101408790000008159206ALVARADO, CHRISTIAN EMMANUEL CO                          0505
A0101411660000000751262BONIFACIO G ONG                                          0501
A0101402770000000440019GABRIEL, ELVIRA VILLAVERDE                               0501
A0101405490392563453002ALLAN L. DE GUZMAN OR                                   10501
A0101405490392563453002MARIVEL R. DE GU                                        20500
A0101408400394160353001JARDIOLIN, JAMES HILADO                                  0504
A0101408400394161082001CAMILA OR ANGELITO JIMENEZ                               0501
A0101408400000002921122MINOZA, GLORYVI                                          0501
A0101408400394500051001MATIBAG, ABRAHAM TIMAJO                                  0502
A0101408950000007571493MANLAPAZ, MA.LUISA DE VILLA                              0501
B5501400120410044008008FRANCISKOZ MOTORCYCLE PARTS,SRVCS &                     11602
B5501400120410044008008ELEC. SUPPLIES                                          21600
A1201400150421606494001CALDERON, LORRAINE CHUIDIAN                              0505
B0901400220432043554001GERRY'S GRILL                                            1603
B5101400100433821100608**********                                               2002
A1601400170000000497569MARISSA A. ARCANGEL                                      0501
A0101405940000000002739********                                                 0501
B0101405940512018341001C.B. ANDREW PHILIPPINES INC                              1603
B0101408530516033471001PHILIPPINE BRITISH ASSURANCE CO., INC.                   1603
A0101408530516044264001DATA ART DESIGN & PRINT SERVICE                          0501
B0101403450000000889632LATTDS DEVELOPMENT CORPORATION                           1601
A0101403610531219534002DUNGLAO, FELICIDAD ANCHORIZ                             10502
A0101403610531219534002OR DUNGLAO, JOSE                                        20500
A2201400250561297004018DILIDAN S. PASION                                        0501
A2201400250561297004056CRISPINA E. JOSE                                         0501
B0101410690000001284395ALDANA, MA. ELENA M. DBU PANSOL TRADING                  1604
A0101407720602161918001MARY ANNE LUCIANO-AMON OR                               10505
A0101407720602161918001JONATHAN M. AMON                                        20500
A0101407720602783206001VISEY, FARRAH TORRES                                     0501
A0101404260611046855001PRIMEPOWER TRANSPORT SERVICES                            0505
A0101404260611484749002BAHALA, AURELIA MANINANG                                 0505
A0101404260611778918001GARCIA, NATHANIEL CRUDA                                  0502
A0101411530000006217574MOMMY & ME ENTERPRISES                                   0503
A0101411530000000013703SABERON, RAUL DBU                                       10504
A0101411530000000013703RALCO COMMERCIAL                                        20500
A0101413440000000570245BERMEJO IV, EDMUND UNATING                               0502
A0101413440000001472602GP-GENESIS DIALYSIS CLINIC                              10502
A0101413440000001472602DIAGNOSTIC CENTE                                        20500
A0101413570000000635643JOANALINE Z. EVANGELISTA                                 0502
A0101413570000000635530CARLOS ANGELO O. GOZON                                   0501
A0101406590662088189001LESACA, JOHN PHILIP JACOB                                0503
A1301400210682040042001EDUARD ALLAN TRADING                                     0501
B1301400210000005040953EDEL'S PLANT NURSERY                                     1603
A1301400500000009723286CASTRO, REYNOSA VALERO OR                               10502
A1301400500000009723286REYES, REYNA ANN CASTRO                                 20500
A0101408240711544932001INSIGNE, REBECCA TAMARES                                 0502
B2801400100712024870001SIGMA PACIFIC BPO SOLUTIONS CORP.                        1605
B2801400100000007629221SIGMA PACIFIC BPO SOLUTIONS CORP.                        1605
A2801400100000005475378CORTEZA, JOHN PATRICK TALAVERA                          10510
A2801400100000005475378OR CORTEZA, RIA GUINTO                                  20500
B2801400230000000008404A CHILD'S TRUST IS OURS TO NURTURE                      11601
B2801400230000000008404(ACTION), INC.                                          21600
A4101400260812047321001MEDCREST MULTISPECIALTY DIAGNOS                         10502
A4101400260812047321001CLINIC & PHARMAC                                        20500
A4101400260000009533575ASUNCION, BENJAMIN P. DBU B.P.                          10502
A4101400260000009533575ASUNCION TRADING                                        20500
A4101400390000003389435JEMELY M. PUNZALAN                                       0502
A4101400420814478374156OLIVIA V. ALGARA                                         0501
A4101400420814562876001*****                                                    0502
A0101404840851478374094LETICIA FULLO                                            0502
A0101405070861197518001RICARDO G. CHAN OR                                      10505
A0101405070861197518001OLIMPIA C. CHAN                                         20500
A0601400230000000186867SAPNU, D DBU D.L.S.J GLASS ALUM                          0502
