B0101407430503821100608**********                                               2020
A0101403320000010380279SILLONA, MARGIE JUSTINIANO                               0501
A0101403320471310708002SATOQUIA, NEIL MENDOZA                                   0501
A0101412630000004938029LINTAG, MA. MELODY CRUZ                                  0501
A2001400290315669458001SAGUBAN, MICHELLE LABRADOR                               0501
B0101402930381035410001IDEYA FOTO IMAGERY                                       1602
A0101400860011387943002**********                                               0504
A0101400860011498803002**********                                               0502
A0101400860011578978001**********                                               0503
A0101400860011618820001**********                                               0505
A0101411370000003294842BUENCAMINO, FRANCIS S. DBU                              10504
A0101411370000003294842BUENCAMINO PRESS                                        20500
A0101400150000007903542ROSENFELD, FREDERICK S                                   0501
B0101400150061014878001**********                                               1610
B0101400150000004703393PHILIPPINE TRAVEL AGENCIES ASSOCIATION                   1605
A0101400150061567341002CORDOVA JR., EBENEZER ADOLFO OR                         10501
A0101400150061567341002CORDOVA, MARIAME                                        20500
A0101400600000005942463******                                                   0505
A0101400600071234136001**********                                               0506
A0601400100000000032500LACSINA, MARVIN OR CHERYLLAD                             0502
A0601400360083576587001ANICIETE, NOEL DABU                                      0502
A0601400360000000025652SAUNDERS, MICHELLE AGUILLON                              0502
A0101413280000005279661KAWACHI, JAYVIR HIZON OR                                10501
A0101413280000005279661KAWACHI, MICHELLE ANN R.                                20500
A0101410560000001944072VALEN, ROSANA RETIG                                      0501
B0101401830141008845001PANDACAN TRANSPORT SERVICE & MULTI-                     11603
B0101401830141008845001PURPOSE COOP.                                           21600
B0101401830141037520001DLPRO PHOTOGRAPHY                                        1601
B7201400170152058498001CHANG, ALAIN MICHAEL D. DBU STARLIGHT                   11602
B7201400170152058498001GENERAL MDSE.                                           21600
A0101400440161525001159MARITES P. MONTALBAN                                     0502
A0101407270000003253523SALAZAR, GARY SAZON                                      0502
A0101407270000004915908LORENZO, TRICIA MARIE SOLANOY                            0501
B0101407270000007747091GALLIBER INTERNATIONAL, INC.                             1607
A0101401090171195610001WILFREDO/CYNTHIA/MARIFEL MITZI/                         10503
A0101401090171195610001CYNTHIA MARIE FERNANDEZ                                 20500
A0101401090171195610002WILFREDO/CYNTHIA/MARIFEL MITZI/                         10502
A0101401090171195610002CYNTHIA MARIE FERNANDEZ                                 20500
A0301400530000002318561VILLANUEVA, FEDERICO MAGPAYO OR                         10501
A0301400530000002318561VILLANUEVA, MARI                                        20500
B0301400530193044968008ASIAMOTOR, INC.                                          1620
A0301400950000005707308NOGRALES, MARIA MARGARITA M. OR                         10505
A0301400950000005707308NOGRALES, KARLO ALEXEI B.                               20500
A0301400950000006080199ANGELES, LAWRENCE GONZALES                               0501
B0301400950196821100608**********                                               2005
A0101401380201508360001SAN JOSE, ROSIE DATO                                     0502
A0101413020000003353831UY, DARWIN CO                                            0502
A0101413020000002292680**********                                               0501
B3101400160221045923001SUNRICH MANUFACTURING CORPORATION                        1610
A3101400870000001712112PANGANIBAN, FREDERICK VENUS                              0503
A1001400190231520766103BALCUEVA, CESAR S.                                       0501
A1001400190000002170656AMELINA E. FACTURA                                       0501
A1001400350233543794001LABRADORES, JENIELYN GALARRITA                           0502
A1001400480000002300383GUINTO, JEAN MAGO OR GUINTO,                            10501
A1001400480000002300383NEMER SARDEA                                            20500
A1901400290000004366103WONG, GWENDOLYN KU                                       0502
A1901400290261042311003DR IAN ANTONIO G ATIENZA                                 0501
A1901400290261244456001LEO YAP ONG OR                                          10505
A1901400290261244456001MEI MEI YULO ONG                                        20500
A1901400290261488341051WILSON P CHUA                                            0502
A1901400290261772647001ALEX CAMOS BUQUIR                                        0501
B0101406620273017284001ACCENT MICRO TECHNOLOGIES, INC.                          1605
B0101406620000003497289NATURASI, INC                                            1602
A0101406620273236978001CALLEJA, HOWARD MACEDA                                   0503
B0101411110000000604891NICHE PLAY INTEGRATED MEDIA INC.                         1602
B0101411110276066958001ROTARY CLUB OF DOWNTOWN SAN JUAN (RCDSJ)                 1601
A0101400570281022080002COSMOPOLITAN AD                                          0510
B0101400570281032093001ALPHA VICTORIA HOMEOWNERS ASSOCIATION                    1603
A0501400200000004456968******                                                   0510
A2001400290000000978269UYMATIAO, CATHLEEN AMIL                                  0503
A2001400290315641895001WENCESLAO, JUNE CLEO OR                                 10502
A2001400290315641895001WENCESLAO, ANTON                                        20500
A0101402350000000521213TONGO, ROWENA V.                                        10501
A0101402350000000521213OR TONGO, CAESAR                                        20500
A0101402350321581290001PANTONIAL, ELIZA J.                                      0502
A0101402510341196445001ROSITA G. SANTOS OR                                     10502
A0101402510341196445001HEPTY D. SANTOS                                         20500
A0101402510341198617001**********                                               0501
A0101402510341399626001TAMAYO, HONEY LIZA C.                                    0501
A0101402060351009359001JIANDANI, SURESH G. OR                                  10501
A0101402060351009359001JIANDANI, KAVITA                                        20500
A0101402060351217440026CARLOS III, MENELEO G.                                   0501
B0201400920000006433638CEED FORMING CORPORATION                                 1603
A0201400920375609447001RAMIRO, MARIA ARCELI AVANZADO                            0502
A0201400890376513355001REYNES JR., AUGUSTO DAHAB                                0501
A0101402930000007030924AVILA, NORA LACAP OR AVILA,                             10502
A0101402930000007030924MYLEEN LACAP                                            20500
A0101408370382498940001DR. MARIA VANESSA H. DE VILLA                            0501
A0101408370382506085001CRUZ, LINDA ARRIOLA                                      0501
A0101402770000009722881ABORDE, JASON GABARDA OR                                10501
A0101402770000009722881ABORDE, ROMA LEAH GALANG                                20500
A0101402770391617226001FERNANDEZ, FE AUSEJO OR                                 10501
A0101402770391617226001FERNANDEZ, ETHEL ESCUDERO                               20500
A0101405490392170537002LORNA V. TUGADE                                          0502
A0101408400394523016001AQUINO, IMEE GONZALES                                    0501
A0101408950000008554223JUSON, AQUARIUS TAMAYO                                   0501
A0101408950396563723001CELLONA, CLARISSA VILLARAMA                              0503
A5501400120410616229001ESCANO, CLAIRE BASAN                                     0502
A5501400120410677345001RODRIGUEZ, KATHEREN T.                                   0501
A2401400180000000073590GUMBOC, LUALHATI CONSTANTINO                             0501
A2401400180411478374057ELLEN J. DIMACUTAC                                       0502
A0101403320000010312908RODNEY M. FLORES OR                                     10501
A0101403320000010312908CYNTHIA LANDAYAN                                        20500
A0101403320471066944001RONALD MIGUEL PHARMACY                                   0501
B0101406330472027929001STO. TOMAS DE VILLANUEVA PAROCHIAL                      11602
B0101406330472027929001SCHOOL                                                  21600
B0101406330472034895001PRIME MKTG. AND DIST., INC.                              1603
A0101410140000000499134LANORIAS, JOVENNES DAVID                                 0502
B0501400170481025398002COSTSAVER'S SUPERMARKET, INC.                            1603
B3801400170000000955131VIC IMPERIAL APPLIANCE CORPORATION                       1603
B0701400260000000041130TREVOR ETON REALTY CORPORATION                           1602
A0101407430000001028773ELAINE S. CANLAS                                         0501
A0101403580511693764001MESIAS, MARIA CARMINA SANTIAGO                           0502
B0101405940000003571737HOT DISK CORP.                                           1602
A0101405940512356426001BERNADETTE P. RAMIREZ OR                                10501
A0101405940512356426001CESAR S. RAMIREZ                                        20500
A0101408530000002260048GO, ANNABELLE TAN                                        0502
A0101411790518055815013MABANGLO, JIENA RIKKA AUSTRIA                            0501
B0101412050000007801530COOLAIRE CONSOLIDATED INCORPORATED                       1605
B0101403450521011955001KINGSWOOD TRADING CO., INC.                              1603
B0101403450521021842005WALL VISION CORPORATION                                  1603
B0101403450521036992001********                                                 1601
A2201400250561484428001WILSON LAO SIO OR                                       10501
A2201400250561484428001EDUARD LAO SIO                                          20500
B0101407720602035792001SECTION OF CARDIOLOGY                                    1601
B0101407720000007951797*********                                                1601
A0101407720602162133002SILVA, MA. DIVINA BORJA                                  0503
A0101407720602166527003ALIPIO S. ABAD JR. OR                                   10505
A0101407720602166527003ADORACION ABAD                                          20500
A0101407720602279984001AVELINA QUIENG                                           0501
A0101407720602296141001ROMULO AUZA TROCINO OR MARIA                            10505
A0101407720602296141001CORAZON V. TROCINO                                      20500
A0101407720602335924007NORBERTO B. AQUINO                                       0505
A0101407720602795728001SAN GABRIEL, FRANCIS LOPA OR                            10503
A0101407720602795728001CAEDO, MA. ASUNCION                                     20500
B0101404260000004781368GENSHIELD SECURITY SERVICES INC.                         1605
A0101404260000003498408AREVALO, MA. JORLYN                                      0501
B0101409890649044096001FULLTOP MARKETING                                        1601
A0101409890000003097932**********                                               0501
A0101409920000001951993PANGILINAN, CAROLINE B. OR                              10503
A0101409920000001951993PANGILINAN, MARIA KARIZ B                               20500
A0101409920650764979001CU, JOSEPH BURAGA OR CU, MA.                            10501
A0101409920650764979001LOURDES ISMAELA                                         20500
B0101413990000006498117KASAGANA-KA DEVELOPMENT CENTER, INC.                     1606
B0101413990000003182556PRECISE SOLUTION SECURITY AGENCY,                       11602
B0101413990000003182556INCORPORATED                                            21600
A1301400210682478374060ROBERTA CARLOS                                           0501
A2801400100712020067001KINIER REAL ESTATE                                       0501
A2801400100000002253590REYES, MA. LERMA MARIANO                                 0501
B2801400100712736615001NOUA SUBIC CORPORATION DOING BUSINE                      1602
A4101400260000006043403RAPISTA, JOHNNY APISTAR                                  0501
B4101400390000003346198SUPERSTAR PACKAGING CORPORATION                          1601
B4101400390813026108001IIEE NORTHERN CAVITE CHAPTER                             1601
A0101412340000010368179BLESSIE ROSE L. CARPENA                                  0501
A0101412340000007305724RODOLFO D. PAGLICAWAN JR.                                0501
B0101404840000000122636MJM EVENTS MANAGEMENT SERVICES                           1603
B0101406750852023612001LAS PINAS CITY MEDICAL CENTER, INC.                      1610
A0101406750852066750001AVECILLA, JULIUS C. DBU JCA TRU                          0503
A0101405070861478374086MARLYN C. GABEST                                         0502
