A1701400230693038725001DISHNET ELECTRONICS SUPPLY                               0502
A1101400120313547700001NICOLASORA, ALMARIE EULOGIA P.                           0506
A1101400120313563739001GARGANERA, EDD DELOS SANTOS                              0502
A1401400110492531512001SALVANERA, ZIEGFREDO AGUILAN                             0501
B0101409890649821200608**********                                               2001
B1101400120000006186930COASTALVIEW FOODS CORPORATION                            1601
B1101400120000000652971FIL PRODUCTS SERVICE TELEVISION OF                      11620
B1101400120000000652971TACLOBAN CITY                                           21600
A1101400120000006186650INGAO, RONA ABANAG                                       0501
B0201400920375821200608**********                                               2002
B0101400860000000100852**********                                               1602
A0101400860011393568001***********                                              0502
A0101400860011527043001**********                                               0502
A0101400860011541655001**********                                               0502
A0101400150000002394772BORSIGUE, RYAN F. OR                                    10501
A0101400150000002394772BORSIGUE, ANN MA                                        20500
B0101400150000000633196DURAFLAME GAS CORP.                                      1602
A0101400150061473504001SAGUIL, EDUARDO FABELLA                                 10501
A0101400150061473504001OR SAGUIL, ANNE MARIE                                   20500
A0601400100000005050286LANSANG, MICHAEL JEROME M.                               0502
B0601400100081020255001WIDE WIDE WORLD EXPRESS CORPORATION                      1604
A0101406040000008915482LIM, SHEAN ROZEN                                         0502
B0101401830141821200608**********                                               2001
B0101407270162023333001MEDIA TOUCHSTONE VENTURES, INC.                          1605
B0101407270162044107002KNOXPORT, INC.                                           1605
B0101407270162044164002SOLUTIONS EXPERTS AND ENABLERS, INC                      1605
A0101401090171197918001DRS. MELVIN R. MARCIAL OR                               10501
A0101401090171197918001MARIA PAULETTE M                                        20500
A0301400530193560797088********                                                 0501
A0101401380000005320876**********                                               0502
A0101412500000003289992****                                                     0501
A3101400450000001149291BALDOVINO, ISABEL VALDOPENA                              0501
A3101400450223352819001FARAON, RIZALINA OR                                     10502
A3101400450223352819001BELEN, RHODORA                                          20500
A3101400740000010216405GARCIA, EMILY BUEN                                       0501
A3001400130000000068211BATTAD, ARNULFO RICAFORTE                                0501
A3001400130000001261307LIM, EDGARDO BALANSAG                                    0502
A3001400130230711844001BLACANO JR., ADOLFO LACORTE                              0501
A1001400190000002170521GALAPIN, RAUL L                                          0501
B1001400350000007920876PEARSON, PILARCITA ROA AND  HEQUILAN,                   11602
B1001400350000007920876ELVIE CORTEZ                                            21600
A1001400350000000922058ARENO, ANN JANE BUCO                                     0504
A1301400470252620184001ARMANDO A. SANTIN OR                                    10501
A1301400470252620184001ADELYN L. SANTIN                                        20500
A1301400760000005379520LUIS V. CHUA                                             0502
B0101401670271022313001PASDA, INCORPORATED                                      1603
A0101406620000000193708BORJA, JENNIFER GREJALDO                                 0501
B0101406620273022950001SYS RESOURCES, INC.                                      1601
A0101406620273301500002CAESAR A. GUERZON                                        0502
A0101400570281043930002REALTY & ENTREPRENEURSHIP                               10501
A0101400570281043930002ACADEMY OF THE PHILIPPINE                               20500
B0501400200000004456902CBE ESTRADA PAWNSHOP, INC.                               1605
B0501400200292821200608**********                                               2001
A2601400270000007951177RAYMOND RUEL D. VALLE                                    0501
A2601400270000000562010ARNEL VIC S. BATTAD                                      0502
B0801400160311059958002GRAND CANYON MULTI HOLDINGS, INC.                        1601
B0801400160311060028002GRANDCARS INCORPORATED                                   1601
A0101402350000005645172GARCIA, ELFLEDA MENDOZA                                  0502
A0101405650322289707001GRANADOS, ADOLFO OCAMPO OR                              10501
A0101405650322289707001GRANADOS, LIDA C                                        20500
B0101402510341018003001COLEGIO MEDICO-FARMACEUTICO                             11606
B0101402510341018003001DE FILIPINAS INC                                        21600
A0101402510000000200062BERNALDEZ, LIGAYA MACALINTAL                             0502
A0101402510341204057001CHARRY SO CHAN OR                                       10502
A0101402510341204057001STEVE LAWRENCE C                                        20500
A0101402510341733749002ALCALA, GINA CALA-OR                                     0505
A0201400920375478374015GAYO, LOURDES O.                                         0503
A0101402930000003710814PISON, MARIA TERESA PENA                                10505
A0101402930000003710814DBU CITRUS                                              20500
A0101408790000000579751JACQUELINE CALIXTO                                       0501
B0101402770391035790001NEWBIG FOUR J CONSTRUCTION INC.                          1604
B0101402770391752292001JUANITA OR TOMAS OR BENJAMIN                            11601
B0101402770391752292001VICTORIA                                                21600
B0101402770391752292002JUANITA OR TOMAS OR BENJAMIN                            11601
B0101402770391752292002VICTORIA                                                21600
B0101408400394028489001KING'S HOLLY, INC.                                       1602
A0101408400000001035421ANGELICA BIRTHING HOME AND                              10502
A0101408400000001035421PEDIATRIC PRIMAR                                        20500
B0101408400000004733751FJN6 FOOD CORPORATION                                    1602
A0101408400000001952883GABRIEL TAILORING AND GENERAL                           10501
A0101408400000001952883MERCHANDISE                                             20500
A0101408950396566973001SY, ALEJANDRO GARCIA OR                                 10507
A0101408950396566973001SY, BESSIE ISIDR                                        20500
A0101412210000005302910JABLA, NEMELEY FLORIG                                    0501
A0301400820000005196790NARCISO JR., AGUSTIN OR                                 10505
A0301400820000005196790NARCISO, SHIRLEY                                        20500
A5501400120000005492220ROCKWELL, SHARON SILVA                                   0501
A2401400180000003949140UY, RUBING SIOCO                                         0502
A2401400180411275790003MALCAMPO, DIOSIE AGUIRRE                                 0501
A1201400150000002325060ESTRELLA, MARK NINO ARMILLOS                             0503
A0901400220432582218001**********                                               0501
A0101403030441241050001**********                                               0503
B0101403030441821200608**********                                               2001
B0101406330472032269001MONTECRUZ ENTERPRISES, INC.                              1610
A0101406330472428084001DARWIN JEBB YLO OR MARILEN YLO                           0502
A0101406330472479118001JENNIFER DY OR KENNETH DY                                0501
A0101406330000001235370F. G. NUCUM                                              0502
B0501400170481029507001ARCINUE DEVELOPMENT CORPORATION                          1602
B0501400170481038907001JODERON AUTO SUPPLY                                      1605
A0501400170000001032102ONG, JASPER SPENCER L. OR                               10501
A0501400170000001032102ONG, FRENZY CLAI                                        20500
A1901400160000004521311EVELYN APOSTOL LAVISTO                                   0501
B1901400160491037372002FINO PROPERTY VENTURES, INCORPORATED                     1601
B1901400160491341189001VIRGINIA R VARGAS OR                                    11601
B1901400160491341189001RICHARD D LIM                                           21600
A1901400160491546773001IRENEA M ERLANO                                          0501
A1401400110492041611001BLUECLICKER COMPUTER CENTER                              0505
A1401400110492433218001MILLA, MAYNARD BUSTAMANTE                                0501
A1401400110492652676001DEZA, VIVIAN P. OR                                      10505
A1401400110492652676001DEZA JR., ARSENI                                        20500
A1601400170000001069023MARIA TERESA Q. RANOLA                                   0501
B0101405940000001800322CREATIVE HOTHOUSE MANILA INC.                            1603
B0101408530000007318001INNOVANTAGE INC.                                         1602
A0101411400000000230111NEPOMUCENO, ARIEL FRANCISCO                              0503
B0101403450000008069238SAVEMORE SOLUTIONS INC.                                  1601
A0101403450521241170001**********                                               0502
A0101403450521356203003**********                                               0502
B2201400250561821200608**********                                               2002
B0101410690000000710796WH & P REALTY CORP.                                      1602
A0101404130000005962274INFANTE, MA. ROANNE PADUA                                0501
B0101404130601621189001PROPEL MANILA 360, INC.                                  1602
A0101404260611287984002*****                                                    0501
A0101404260611542053001ARDUO, MERCEDITA BALDOMERO OR                           10501
A0101404260611542053001ARDUO SR., REYNALDO                                     20500
A0101409890000000209174PUNZALAN, MICAH ELIGENE ROXAS                            0502
A0101409920000007304721DE VILLA, MARY ANN OLIVA                                 0501
B0101413990000000206226EREHWON ARTWORLD CORP.                                   1602
A1301400210682040042001EDUARD ALLAN TRADING                                     0501
B1301400210682248659001ASIANLAND STRATEGIES CORPORATION                         1610
A1701400230000003471732BARNESO, EDISON LAGAZO                                   0502
B0101408240711025397005KINGSMEN CORPORATION                                     1605
B01014082407110399320021975 BROTHERS IN ARMS INC. DOING BU                      1605
A0101408240711180164001TUPAZ, CORAZON RONQUILLO                                 0501
A0101408240711384215003LOURDES GRACE MAPALAD                                    0501
A2801400230000005253270NIEVA, JOANN SNYDER OR                                  10501
A2801400230000005253270GANGCUANGCO, MARY ROSE S.                               20500
B2801400230000001580296DEL ROS AMUSEMENT ENTERPRISES, INC.                      1601
A4101400550000004846835MARQUEZ JR., RAMON BALASOLLA                             0501
B0101412340000005964076PRESTIGE PEOPLE SOLUTIONS INC.                           1603
A0101406750000002251252FERNANDEZ, MARICRIS PASCUA                               0502
A0101406750000005666817CDB ACCOUNTING AND TAXATION SER                         10502
A0101406750000005666817VICES                                                   20500
A0601400230891664298001ALMARIO, RENATO SICAT                                    0505
