B1401400110492821100608**********                                               2003
B3001400130000003434706MARASIGAN, ARNEL SALUDEZ                                 1602
B3001400130000003434648HAPPYALL3 BUILDERS CORPORATION                           1610
B0101406460000000182330ARMORED TRANSPORT PLUS, INCORPORATE                      1602
A0101412470000000853834CHUNG, EUN JOO                                           0502
A1201400150421533137001RULLODA, ELMER BORROMEO                                  0508
A0101400860000001348681*                                                        0502
A0101400860011352579001**********                                               0505
A0101400860011395459004**********                                               0505
A0101400860011402223002**********                                               0505
A0101400860011474635001**********                                               0501
B0101400860011485580001**********                                               1605
A0101400860011533026001**********                                               0502
A0101400860011572208001**********                                               0502
A0101400860000001005514**************                                           0503
A0101400860011686506001**********                                               0502
A0101401250021709863001MAGDALENA S. TENGCO OR                                  10501
A0101401250021709863001EUFRACIA N. TENGCO                                      20500
B0101411370022047151168BARON AGRICULTURAL & INDUSTRIAL                         11601
B0101411370022047151168CORPORATION                                             21600
A0101400150000000807170FRAGANTE, SOCORRO PROTACIO                               0501
A0101400150000003600893PINEDA, MARIA CARMELA ERICA LEG                          0502
B0101400150061021480001LEISURE AND ALLIED INDUSTRIES PHILS                      1610
B0101400150061024429001BRONZEOAK PHILIPPINES INC.                               1603
A0101400150061323526001SHIRLEY MANESE OR MARIA ELENA                           10501
A0101400150061323526001MANESE                                                  20500
A0101400150061555486001PERALTA, ANA FE DULDULAO                                 0502
A0101400150000003141420MARIE CARMELA A. TANJUTCO                                0501
A0601400100081259090001OCAMPO, NELIA D. OR                                     10501
A0601400100081259090001OCAMPO, ALEJANDR                                        20500
A0101400730111203514025EDITO C. VERBA                                           0502
A0101400730111582716001MANINANG, IRENE ESQUIVEL                                 0501
A0101406040112173363001RAUL D. PEIG OR EMILIE C. PEIG                           0501
A0101401960000000211069TAN, ANTHONY DIAS                                        0505
B0101401960121023340001**********                                               1601
A0101401960121238670001**********                                               0503
A0101412630000000044733GARCIA, GILBERTO MARTIN                                  0501
A0101412630000000801363PEREZ, MICHAEL RYAN NICER                                0501
B0101401830141008916001PRIMARY ELECTRICAL & ELECTRONIC                         11603
B0101401830141008916001SUPPLY, INC.                                            21600
A0101401830141711776001MARQUESES, AUGUSTO UMALI OR                             10501
A0101401830141711776001GARCIA, CARMELO                                         20500
A0101400440161511479003SUTICO C. MENDOZA                                        0501
A0101400440000000029434VITRIOLO, JERVIE DELA CRUZ                               0501
A0101400440161670356001MA. ESTELA CLEOFE                                        0502
A0101407270000006916830MANALILI, MOISES PANGAN                                  0501
B0101407270162039491001UMALAG FARMS, INC.                                       1601
A0101407270162382424001DANILO A. REMENTINA                                      0503
A0101407270162692465001REYNANTE G. CORTEZ                                       0502
A0101401090171198388001FELICITAS E. PONCIANO                                    0501
A0101401090171198434002DRS. MARY JOCELYN LAYGO OR GIL                          10501
A0101401090171198434002GONZALEZ OR ROLANDO LOPEZ                               20500
A0101401090171662520001HELEN D. YU OR MARY JOCELYN Y.                          10501
A0101401090171662520001LAYGO                                                   20500
A0301400790000002301393BARCELONA, JANET TIZON                                   0501
B0301400790000003969240D-JAS GENERAL MANPOWER SERVICES, INC.                    1601
B0101401380201034271004LC BUILDERS AND DEVELOPERS, INC.                         1604
A0101412500000000739657****                                                     0501
A0101413600000002276491PONCIANO E. RIVERA JR. OR                               10505
A0101413600000002276491TERESITA C. RIVERA                                      20500
A3101400160221220343001LAARNI A. CALAPATIA                                      0501
A1001400190231380503001JANA JOY TUSALEM                                        10502
A1001400190231380503001PHILAMCARE DOCTO                                        20500
A1001400190231380503007DRA. CYNTHIA BACONGA                                    10503
A1001400190231380503007PHILAMCARE DOCTOR                                       20500
A1001400190231478374056AMANTIAD, MAY                                            0501
A1001400190231520766085OBSIOMA, MADELYN A.                                      0501
A1001400190000001057625REPUNO, REBECCA                                          0501
B1001400350000000017096AYA VENTURES CORPORATION                                 1604
A1301400470252040709001ANGEL INNA TRADING                                       0510
A1301400760000002346129JIMMY C. CENA                                            0502
B1301400760253821100608**********                                               2002
A0101401670271186208001BENJAMIN C. RAMOS OR                                    10505
A0101401670271186208001VIRGINIA S. RAMOS                                       20500
A0101401670271534014001CHUA, CHARLENE DY                                        0501
B0101406460000000712769BARON 3 GARDENS CONDOMINIUM CORPORATION                  1605
A0101406620000002279649YOON, SUNGKEUN                                           0501
A0101406620273403042001SANTOS, REDENTOR DELA CRUZ                               0502
A0101406620273417637001LAPUZ, ANNE SHARLYNE GOBOY                               0501
A0101408660274732414001DELOS SANTOS, VIDA GOLAMCO                               0501
A0801400160000002681729MA. FE M. FACTO                                          0505
A0801400160311478374034ROSEMARIE R. TUBIANO                                     0501
A1101400120000001920587GLORIA, JACINTA DADULA                                   0501
A6601400120314617688001CARANZO JR., EXUPERANCIO OR                             10504
A6601400120314617688001CARANZO, MARY                                           20500
A6601400120314668441002MASLOC, SHERRY AMOR GALONO                               0501
A6601400120314702171001ANDAYA, REYMUNDO M.                                     10502
A6601400120314702171001OR ANDAYA, LETICIA A.                                   20500
A2001400290000004634953BAENA, JOSE FERNANDO CANLAS                              0501
A0101402350321179303002WONG, FAI CHUN OR                                       10501
A0101402350321179303002WONG, TRINIDAD A.                                       20500
A0101402350321618569001DAMASO, GLORIA SANCHEZ                                   0501
A0101402060351009359001JIANDANI, SURESH G. OR                                  10501
A0101402060351009359001JIANDANI, KAVITA                                        20500
B0101402060351009638001EUCLID INTERNATIONAL LAND, INC.                          1601
A0101402060351213592002ESMIR B. &/OR ADELINA V. DUQUE                           0501
B0201400760374272956001YU, DESSUM LIM OR YU, EMMA LAU                           1601
A0201400890000005491534PEPITO, RYAN MARTINEZ                                    0501
A0201401020000002250482LIM, TANYA LOU RIVERA                                    0501
A0101408370382035804001TMC DEPARTMENT OF OPHTHALMOLOGY                          0501
A0101402770391217498008BROWN, IMELDA A.                                         0502
A0101408400000005286200GARCIA, RODEL GALIT                                      0501
B0101408400394028375001LEARN AND PLAY BOOK STORE                                1601
B0101408400000002386263CORMANT TECHNOLOGIES INC.                                1603
A0101408400000002921020RELOVA, LAURENT V DBU LRD ARCHI                          0501
A0101408400394412453001TAYAG JR., DANILO OCAMPO  OR                            10502
A0101408400394412453001TAYAG, DEODATO O                                        20500
A0101408400394604389001MOLINA, LORETO OR                                       10501
A0101408400394604389001MOLINA, JEANNETT                                        20500
A0101408950396392501001BAMBALAN, JOCELYN CENIZAL                                0503
A0101408950396567114001CESAR JOSEPH CURAMENG GLORIA                             0502
A0101408950396695350001ARANDIA, EDSEL FERNANDEZ                                 0501
A0101409210000001294548AGUILAR, JAMES RUSSEL ONG                                0501
A0101409210000003297530ARTHUR POLICARPIO                                        0501
B2401400180411033733033ECA RESOURCES, INC.                                      1602
B2401400180411044070001MABUHAY TECHNOPARK CORPORATION                           1602
A2401400180411478374062DAVIS, PEPITO MALINAO OR                                10502
A2401400180411478374062DAVIS, BERNADITH                                        20500
A2401400180000002146367ONG, FE LEAH PACAYRA                                     0502
A1201400150421478374066FLORES, JONATHAN                                         0501
A0901400220000000887987MUESCO, MAYBELLENE JOY ANDOG                             0501
A0101403030441371461001DANILO TAN JR.                                           0501
A0101412890000000125442ARMANDO DE VERA VENTINILLA                               0501
A0101403320471205738001REBECCA MENDOZA OR                                      10501
A0101403320471205738001FLORANTE MENDOZA                                        20500
A0101410140000001940201COMIA, RODERICK ILOSO                                    0501
B0501400170481029507001ARCINUE DEVELOPMENT CORPORATION                          1602
A1901400160000003429485BERGANTINO, HARRIET MARIE                               10501
A1901400160000003429485MARQUEZ                                                 20500
A1401400110000003063425SANTOS, WILFREDO GASPAR                                  0502
A1601400170000001360769DON B. NICOL OR MA. DONNA                               10501
A1601400170000001360769MARCY B. NICOL                                          20500
A1601400170000007026100VICTOR N. RAYCO                                          0501
B0101403580511005400001IA CAMPBELL & ASSOCIATES INC                             1606
B0101403580511015363081MEC - SUNTRUST PARKVIEW                                  1602
B0101403580511015363084MEC - PINES PEAK                                         1605
A0101403580511150595001MAXIMO P. MARIANO                                        0501
A0101403580511152927002ANTONIO O. MACEDA JR. OR                                10502
A0101403580511152927002PERLA C. MACEDA                                         20500
A0101403580511388107001ANTONIO G. PEDRO OR                                     10502
A0101403580511388107001FELISA C. PEDRO                                         20500
B0101405940512028580001AUTOMETICS CAR CARE, INC.                                1607
A0101405940512530528001TIBO, KAREN CHRISSIE LEABRES                             0501
A0101408530000000489801SALES, JUSTINE MAE CALSINA                               0501
A0101408530000003519413TAN, WILKINS TING                                        0502
A0101408530000001268560GUILBERT P. SAMPEDRO                                     0503
B0101403450521011910001KITCHEN BEAUTY MARKETING                                 1605
A0101403450521238266001JERONIMO CO CHIN CHIENG OR                              10501
A0101403450521238266001LAWRENCE COBANKI                                        20500
A0101403610531219303001DR. ROMEO R. ANDAYA  OR                                 10502
A0101403610531219303001DR. ANGELITA Y.                                         20500
B0101403610531706312001MEDCARE HEALTHLINE INC.                                  1601
A0101404000551150500002SAMIA, RYAN                                              0502
A2201400250000004916201CIPRIANO GALANZA OR MARIAN                              10501
A2201400250000004916201ROMILYN GALANZA JT                                      20500
A2201400250000001066073JCP AND 3 SONS TRADING CO.                               0503
A0101404130000001831807TAN, ELISEO ANG                                          0502
B0101407720000000885667VIRTUPAK, INC.                                           1601
A0101407720602164307001GABRIEL G. GABRIEL M.D. OR                              10502
A0101407720602164307001CAROLINE C. GABR                                        20500
A0101407720602291724004SEVILLA, JAIME OBIETA                                    0501
A0101407720602339048001CABRERA, ALFREDO DE JESUS                                0501
B0101404260000000550372TPF EVENTS MANAGEMENT CORP.                              1603
A0101404260000000532290PESTANO, ALBERT L. OR PESTANO,                          10501
A0101404260000000532290LUCIA M.                                                20500
A0101409890000006812779TIAMLEE, ALEXANDER TAN OR TIAML                         10502
A0101409890000006812779EE, VICTORIA OR TIAMLEE,D                               20500
A0101409890000006812780TIAMLEE, ALEXANDER TAN OR TIAML                         10502
A0101409890000006812780EE, VICTORIA OR CHUA, HIL                               20500
B0101409890000006812677REPUBLIC SUCAT POWDERCOAT CORPORATI                      1602
A0101409920000000523631ADLAON, JULIET ALVARAN                                   0502
B0101409920000005461263***********                                              1601
B0101409920000005461274**********                                               1601
B0101409920000005461285***********                                              1601
B0101409920000005461296**********                                               1601
B0101409920000005461303**********                                               1601
B0101409920000005461310**********                                               1601
B0101409920000005461321***********                                              1601
B0101409920000005461343**********                                               1601
B0101409920000005461354***********                                              1601
B0101409920000005461365*********                                                1601
B0101411530000000013630THE BODY SPA AND WAXING LOUNGE CORP                      1601
A0101413440000002125257*******                                                  0510
A0101413570656057648015JOSE PAULO E. BORJA                                      0501
B0101406590662038794001PRISMODIAL CONSTRUCTION CORPORATION                      1606
A0101410300000000026531VELHAGEN, MELISA B.                                      0501
A0101410300000006278493CABARRUS, GEORGE D OR CABARRUS                          10502
A0101410300000006278493GRACE OR CABARRUS, ANA B                                20500
B1301400210000000023496JELLI'S GAS STATION                                      1602
A1301400210682245136001ELIZABETH L. ALONZO                                      0505
A1301400210682405530003MARITA Y. ESPIRITU                                       0501
A1301400340683552607001PERLAS, NOLI DURAN                                       0502
A1301400500000001412413MANOLITO C. ASILO                                        0502
A1301400500684594780002CASTRO, RAYMUNDO OR                                     10502
A1301400500684594780002CASTRO, ROSEMARIE                                       20500
B0101408240711043751001MARTIN'S AUTO ACCESSORIES & SERVICE                      1601
A0101408240711417025001LUPOT, JULIUS CALACAT                                    0504
A0101408240711478374022PAGLICAWAN JR., RODOLFO                                  0502
A4101400390000000745299ARAYATA, PHILIP CESAR ABUEG                              0502
A4101400390813442190001ASMA, RODELYN MERIADO OR                                10505
A4101400390813442190001ASMA, ROLDAN PAR                                        20500
B4101400390813560022001FAITH ACHIEVE PLASTICS CORP.                             1604
B4101400550000000900069JEEMEE ENTERPRISE INC.                                   1602
A0101404840851175235001CEPRES, LOURDES BALAGUER                                 0501
A0101404840851217637095MELINDA VILLAGOMESA                                      0501
A0101404840000000683494JOEBERT CORNEJO                                          0502
A0101404840851520766099EDLYN BRUNO                                              0501
B0101406750852032718001PHILGREEN PLASTICS CORPORATION                           1602
A0101406750852478374027ELENA HINUNANGAN                                         0501
A0101406750852510152001OLINO, ARMSTRONG SACARE                                  0502
A0101406750852535545002RABUTIN, ROLANDO TORRES                                  0502
A0101406750852680577001RODRIGUEZ, RHOMMEL FERRER                                0501
A0101413860000000145008GALICIA, MARY ANN GONZALES JT                           10501
A0101413860000000145008DAVID, ERLINDA                                          20500
A0101413860000000145020DASIGAN, ANGELITA GONZALES                               0501
