B0101403320471068943001LOGICONSTRUCT INC.                                       1601
A0101414090000008926996PEYRA, CRISTINA CHAVEZ                                   0501
A3101400450000005960530PAPERA, ELENA DE GORIO                                   0501
A0101412470000002086444NAKPIL, JOSE ANDRES OR DE                               10501
A0101412470000002086444CASTRO, MARIA GUIA                                      20500
B0101412470000003847449GAUFRE WAFELS INC.                                       1605
A1601400170000000421161GEORGIA SOFIA GIMENEZ-LUISTRO                           10505
A1601400170000000421161OR LUISITO B. LUISTRO                                   20500
A1601400170000001069056CHRISTOPHER S. CO                                        0505
A0101400860000010683253LAGRIMAS,GINENA O DBU ZED                               10501
A0101400860000010683253ALBERT PRINTING SERVICES                                20500
A0101400860011478374002RENDOQUE, WIRANDA SAUDI                                  0502
A0101401250000000460586AZUCENA, MARIA PAMELA ENRIQUEZ                           0501
B0101411370000000017945ST.THERESE OF THE CHILD JESUS INSTITUTE                 11601
B0101411370000000017945OF ARTS&SCIENCES                                        21600
B0101411370000000018168**********                                               1605
A0101400150000003197580Sherwin G. Marasigan                                     0502
B0101400600071325133001**********                                               1602
B0101405810072011448001C.P.P.C CONSUMER PACKAGING PRODUCT CORP.                 1603
A0101405810000001021172PUA, C DBU MCK SCHOOL & OFFICE                          10503
A0101405810000001021172SUPPLIES                                                20500
B0101405810000000016862LINK IMPORT EXPORT ENTERPRISES, INC                      1601
A0101405810072354724003FUENTES, LILIA S.                                        0501
B0601400100081030352001LIVING STONE INTERNATIONAL SCHOOL INC.                   1603
A0601400100081254011001PANLILIO, MARIE CARMEN OR                               10501
A0601400100081254011001PANLILIO, AUGUST                                        20500
A0101414090000003314861ASPILLAGA, HERMINIO LAROYA                               0501
A0101410850000011276492LI, CHO PAN                                              0501
A0101410850000003503631BULUSAN JR., R DBU ROBUST                               10502
A0101410850000003503631GENERAL INDUSTRIES                                      20500
B0101410850109063583001BRITISH ROLLMAKERS (CHINA) LTD.                          1601
B0101410850000007294382DAHN BERGER PHILS. CONSTRUCTION                         11602
B0101410850000007294382COPRORATION                                             21600
A0101410560000010318333ARIANE JOY M UBANE                                       0502
B0101400730111008311001COUNTRY BANKERS LIFE INSURANCE CORP.                     1605
A0101400730111392034001SENA, GLENDA A. OR MAHAR B.                             10502
A0101400730111392034001JARDIOLIN                                               20500
A0101400730111741862001ATTY. H. JAMES WILMOT                                   10504
A0101400730111741862001OR JODETH S. AGUIRRE                                    20500
A0101401960000002331835TOMAS, LESLEY JOYCE ONG                                  0501
A7201400170000003773062PACIENCIA JR., SATURNINO BUCOG                           0501
A5001400170000000044982URBAN PAINTS & MORE ENTERPRISES                          0502
A5001400170000000214002REQUINA, ORWINO ATAY                                     0503
B5001400170000008743795PETRA CEMENT INC.                                        1601
A0101407270000006715659REYES, ARVIN SINANG                                      0501
A0101407270162611696002ANGELICA DELOS SANTOS OR                                10501
A0101407270162611696002CARLO MAR DELOS                                         20500
A0101407270162611696003ANGELICA DELOS SANTOS OR                                10501
A0101407270162611696003MARIE ANGELA DEL                                        20500
B0101407270162611696004DELOS SANTOS, ANGELICA DE JESUS  JT                      1601
A0101401090171197581001AGRIPINA OR REMIGIO CORPUZ                               0505
A0101401090171415824001MARIA CATALINA GO OR                                    10501
A0101401090171415824001APOLINARIO GO                                           20500
B0301400530000005001603*******                                                  1602
A0301400530000003573517CHAVEZ, IMELDA DBU LUCKY 4 MARK                          0501
B0301400790000002301342MONTEVERDE II, GEORGE MENDEZ DBU GV & HH                11601
B0301400790000002301342MARKETING                                               21600
A0101401380000000682622********                                                 0501
A0101410720653505843001LIMONGCO, GRACE POLO                                     0502
A3101400160000011243762PRIMO, MANUEL AROSTELA                                   0501
A3101400160221557336001JOSELITO M GUEVARRA                                      0504
A3101400160000004362903REYVELINDA E GUEVARRA                                    0502
A3101400450000003072493ABANTE, NELDA LIMBO                                      0505
B3101400870000005960687NORTHSTAR TECHNOLOGIES INDUSTRIAL                       11602
B3101400870000005960687CORPORATION                                             21600
B3101400870225069107001PINEDA, E DBU LIZQUEN COUNTRY FARM                       1601
B1001400190231014504006ROY D. TANCINCO                                          1603
A1001400190231520766012UBALDE, RICHEL TECSON                                    0501
A1001400350000008698811NAMBATAC, EUSAN JOHN PERALTA                            10501
A1001400350000008698811DBU JVP PAINTS AND HARDWA                               20500
A1001400350000007762436XXXXXXXXXX                                               0502
B1001400480000004097154SABAL HOSPITAL, INC.                                     1610
A1901400290261407573001ABELARDO F RELLORA OR                                   10502
A1901400290261407573001AMELIA R RELLORA                                        20500
B0101406620000009695152GVALUE TRADING CORP.                                     1603
A0101400570281399955002DR. EMMANUEL GATCHALIAN OR                              10506
A0101400570281399955002DR. LESLIE GATCHALIAN                                   20500
A0101400570000001681927ANA MARIA LORETTA S. POHANG                              0501
B0101400570281821200608**********                                               2001
A6601400120314622580001SOSING, CAROL O. OR FELIPE A.                           10505
A6601400120314622580001OR CAROLYN O.                                           20500
B3401400280318044735001A & T SANTOS INCORPORATED                                1605
A0101405650000011688552MANALO, SHIRLEY LAVAREZ                                  0501
A0101405650000011688585ROCHAT, ROSSANA LAVAREZ                                  0501
A0101405650000011688643LAVAREZ, ROCHELLE DE LEON                                0501
A0101405650000011688723BRADLEY, THOMAS ARTHUR                                   0501
A0101405650000011688767ANDAG, NORMAN SEGUIA                                     0501
A0101405650322526192001FUNTILA, CAROL PAULINE TAMAYO                            0501
B0201400760374043793001VIRGINIA FOOD, INC.                                      1601
B0201400760000007134512*************                                            1601
A0201400760374327615001MANIQUIS, MA. CELESTE MARTINEZ                           0502
B0201400920375041285001VIRLO CONSTRUCTION DEV. CORP.                            1601
A0201400920375478374019ENRIQUEZ, DIVINA GRACIA ZABALA                           0501
A0201400890376056207001MARDZ AIRCONDITIONING SUPPLY &                          10502
A0201400890376056207001SERVICES                                                20500
A0201401020000003031129DEL PRADO, JOSE VICE DBU DE LAR                          0502
A0101408370000000476682BURGOS, DARREN MARIE ARRIOLA                             0501
A0101408370382436793001DR. ESTHER FREDELYN M. TOMAS                             0501
A0101408400000010506942CHAN, KENNETH MARIE MERICO                               0502
A0101408400000011167029CHAN,K DBU KEICEEJOGRATS BURGER                          0501
A0101409210000005252073CALAUSTRO, MARIA LOURDES DIZON                           0501
A5501400120410636179018CHIU, VALENTIN & JULIA EILEEN                           10504
A5501400120410636179018& CHRISTIAN & CH                                        20500
A5501400120410729506001JOSOL, ARLIEN BACON                                      0501
B2401400180411032703001TOYOTA GENERAL SANTOS INC.                               1612
B1201400150421023348006PINES CITY BAPTIST CHURCH, INC                           1602
A0101403030441043810001CORE SOURCE TRADING                                      0510
B0101403320471008879002GOLDWIN MANUFACTURING                                   11610
B0101403320471008879002LABORATORIES                                            21600
B0101403320471027546002WINFAITH ENTERPRISES                                     1603
A0101403320471325110002EDUARDO BORLAGDAN                                        0502
A0101403320000000067532YAGUEL, SALVE L.                                         0501
B0101406330472027929001STO. TOMAS DE VILLANUEVA PAROCHIAL                      11602
B0101406330472027929001SCHOOL                                                  21600
B0101406330000000432642ZEKE VENTURES PHILS. INC.                                1605
A0101406330472536028001ARLES MIRANDILLA OR KRISTINE                            10501
A0101406330472536028001MIRANDILLA                                              20500
B0101412760000007821954OLYMPUS COPY PRINTING CORP.                              1602
A0101407430000003193957ISAAC JAMES D. JIMENEZ DBU                              10510
A0101407430000003193957JADO TRUCKING                                           20500
A0101407430503323538001MARITES U. ARBOLEDA                                      0501
A0101403580511044026001SORORES ENTERPRISE                                       0501
A0101403580511774280001ANDREW JAMES GERARD D. RUIZ                              0502
A0101408530000004647930LIM, MICHAEL CHRIS FENIX                                 0502
A0101403450000001769811*******                                                  0502
A0101403610000006637034**********                                               0501
A0101403610000011690345CORPUZ, MA LYNDA CAYANONG                                0501
A0101403610531220632001BLANDO, LETICIA SALEM OR                                10501
A0101403610531220632001BLANDO JR., LUIS                                        20500
A0101403610000006643172ALVARO, TERESITA CORPUZ                                  0501
A0101407720000000713017TIN, ALVIN CONSTANTINE TENEDERO                          0502
B0101412180000003523793MGNP, INC.                                               1606
A0101404260000000156789NICOLAS, EVELYN C.                                       0504
A0101409890000006812826CEA, EDWARD CHRISTIAN TE                                 0501
A0101409890000009468631SAMPELO, MARISOL ARAGONES                                0501
A0101409920000010528639BERNARDO, JOEL O. DBU                                   10502
A0101409920000010528639OR BERNARDO, IRENE C                                    20500
A0101413990000010191254MARANTAN, ERICK SORIANO                                  0501
A0101414120000002879772SUMARGO, MERALUNA ALPUERTO                               0501
A0101414120000003584218TUA, ANNE CHRISTINE MINDO                                0501
A0101414120000011288976LIN, HUNG - JEN                                          0501
A0101414120000011288965DOROTHEO, POLEE CASINILLO                                0501
A0101414120000000875914NHOEL JR. CONSTRUCTION                                   0502
A0101414120000000875834GCI TRANSPORT                                            0503
B0101414120000007655425FISHLINK EXPRESS INC.                                    1601
A0101410300000011355478VAN CAMPENHOUT, ADRIANUS JOHANN                          0501
B0101408240711028488001INTAS DESTINATION MANAGEMENT INC.                        1610
A0101408240711443671001CARMENCITA C. GUIAO                                      0501
A2801400230713070903001EMETERIO, HONORIO DOMINGO                                0501
A4101400260000001673503BALURAN, RAQUEL GUZON                                    0502
A4101400390000001404299CASA, IREENE CASERES                                     0501
A4101400420000000710303VILLASIS, HOVER GAIL REYES                               0501
B4101400420814042599001ASIA MEDIC DIAGNOSTIC AND SPECIALTY                      1620
A4101400420000003715564SARIA, LESTER DBU DESERT QUENCH                         10501
A4101400420000003715564WATER REFILLING                                         20500
A4101400420000000121057ROMERO, JOCELYN FERRERA                                  0502
A4101400420814520766110DELA CRUZ, ARMINDA E.                                    0501
B0101404840851021512001STI COLLEGE ALABANG, INC.                                1603
A0101405070861197650002********                                                 0501
A0601400230000007252593SOTTO, CATHERINE SOTELO                                  0501
