A0101410690600046558001RANDXELL'S DIGITAL PRINTING &                           10502
A0101410690600046558001PHOTOCOPY CENTER                                        20500
A0101411240000008937204DIANGSON, SALVADOR ACEVEDO                               0501
B4101400130811821100608**********                                               2002
A1901400290000005565875MARIA CONSUELO JOSE CUETO                                0501
A1901400290261040973001ICT-ED INSTITUTE OF SCIENCE AND                         10502
A1901400290261040973001TECHNOLOGY, INC.                                        20500
B1901400290261047995001SPOUSE OF THE BLESSED VIRGIN                            11605
B1901400290261047995001HOSPITAL INC.                                           21600
B1901400290000007876746SPOUSE OF THE BLESSED VIRGIN HOSPITAL                   11603
B1901400290000007876746CORPORATION                                             21600
B1901400290000000030844MANGUERA, FERNANDO DBU KIA ORA FOOD                      1610
B1901400290000001363075TGBG8 CORP.                                              1610
B1901400290000000030855FUTURE5 INC.                                             1610
A1901400290261298552118CONCEPCION GONZALES ESTIGOY                              0502
A1901400290261478374029CRISTINA BITUIN LORIA                                    0501
B6601400120000003084717DATO JR., BAYANI EVARISTO DBU CSJ                       11601
B6601400120000003084717CONSTRUCTION                                            21600
A0101411790000004807990RAMOS, JANUARIO BERNARDO                                 0502
A0101410690000001285303CORTEZ, DARWIN AUDIE DBU WINCOR                         10505
A0101410690000001285303CONSTRUCTION                                            20500
A0101401250021368766001ZAGUIRRE, ELIZA R. OR                                   10501
A0101401250021368766001ZAGUIRRE, RENATO B.                                     20500
A0101400150061430140001**********                                               0501
A0101400600071478374004JULIET E. SY                                             0502
A0101400600071508998001*********                                                0503
A0101405810072236261001**********                                               0503
A0101405810072385132001***********                                              0503
A0601400100081251815001DIZON, CLEOPATRA S.                                      0501
A0601400100081403474003TAYAG, DENISE OCAMPO                                     0502
A0601400100081588114001MASAGCA, ELSIE DIMARUCUT                                 0501
A0601400100081604957001BARREDO, ELIZABETH OMBAO                                 0502
B0101410850109064435001F3 SCHOOL & OFFICE SUPPLY CO.                            1601
A0101400730111429247002SANTOS, CAROL MAE ASIDO OR                              10502
A0101400730111429247002SANTOS, ENRICO                                          20500
A0101400730111469886001ALVENDIA, AMADOR PAHATI                                  0510
B0101406040112009142001ASIAN TERMINALS, INC.                                    1610
A0101401960000005392474******************                                       0501
A0101413310000005433552QUINAHAN, EUNICE LLANOS                                  0501
A0101412920000005193911ZEPEDA, JACK ALLAN BONDOY                                0501
A0101412920000005354478CULASI, ANTONIO CENAS                                    0502
A0101400440161039572069IMELDA A. ESTRADA                                        0501
B0101400440000002846575COMMANDER SECURITY SERVICES, INC.                        1610
B0101400440000002846575COMMANDER SECURITY SERVICES, INC.                        1610
B0101400440000000337882PHILIPPINE SECURITY & SAFETY                            11605
B0101400440000000337882PROFESSIONAL                                            21600
A0101400440000002035001INTEGRITY DIAGNOSTIC CENTER                              0505
A0101400440161525001159MARITES P. MONTALBAN                                     0501
B0101407270162767108002WONG, LARA KRISELLE LIM OR JOSE, MILES                  11601
B0101407270162767108002VINCENT DEE                                             21600
A0301400530000003087392MANGARON, GLORIA LAGRAMA                                 0503
A0101401380000001412606CAIRME, GINA BAGSIK                                      0501
A3101400160000008968250PAHURIRAY, MISCHELLE DISEPEDA                            0501
A3101400160221478374053CHRISTOPHER D LISING                                     0501
B3101400450223022719001GENCARS SAN PABLO, INC.                                  1610
A3101400450223046748001PLAN ELECTROTECH CENTER                                  0502
A3101400450000005355471CIGARAL, PEDRITO EXCONDE                                 0503
A3101400870000005410337ISLA, VINCENT PINCA                                      0502
A3101400870000005409923BOCAR, G DBU BOCAR FINE ARTS                            10502
A3101400870000005409923AND SURFACE DECORATIONS                                 20500
A3101400870000005565335ESTRAVO, EULALIA MAGPAYO                                 0502
B3101400870225821100608**********                                               2003
A1001400190231295205002ANG, SIOK BIN                                            0501
A1001400190231478374006LIBRADO, HAZEL T.                                        0501
A1001400190000002170781RAMIREZ, RHESA CABAGO                                    0501
B1001400350000000017121ROYAL TEAK ACRES INC.                                    1601
A1001400350233543683001DONGGAY, CERAEL CAGA-ANAN                               10502
A1001400350233543683001OR DONGGAY, FELI                                        20500
A1001400350233653580001EVELYN OH OR EDWARD OH OR                               10503
A1001400350233653580001EDMUND OH                                               20500
A1301400470252547786002EFREN G. DELA CRUZ                                       0501
A1301400760000001295483LRCAPON TRUCKING SERVICES                                0503
A0101411110000005356710DELA PENA, MARILYN M.                                    0503
A0101400570000007237790BRACERO, MARY ANN DURAN                                  0501
A0101400570281186562001ENGR. JOSELITO MIRAFUENTES OR                           10501
A0101400570281186562001DR. LANA GAN                                            20500
A0101411240000000629367PO, CARMENCITA SUN                                       0505
B0501400200292036584001SSS EXPRESS CREDIT, INC.                                 1610
A2601400270000002312174JONATHAN U. CORPUZ                                       0503
A6601400120000003672866APULI, ALMA JEPOLLO                                      0502
B6601400120000000060922I AM WHO I AM FOUNDATION, INC.                           1601
A3401400280318478374002PIONELO, LENIDIE DEVELOS                                 0501
B0101402350000000046108ABSOLUTE INDUSTRIAL SOLUTIONS, INC.                      1601
A0101402510341199103001CORAZON D. HUANG                                         0501
A0101402060000002258897***********                                              0502
A0101402060000002258831ANGELES, JOSE AMADO RAYMUNDO                            10502
A0101402060000002258831OR ANGELES, LEONORA OR AN                               20500
B0101402060351386715002REGINA OR CRISTINA C. CRUZ OR CONCEPCION                11602
B0101402060351386715002C. VESAGAS                                              21600
A0101402060351604435001BUIQUIL, EDDIE D. OR BUIQUIL,                           10502
A0101402060351604435001MARITES B.                                              20500
A0101409050000003533446ONGKIKO, MA. CONCEPCION                                  0501
A0101409050000006986590RUIVIVAR, KATHRINA JOYCE BOCOBO                          0501
B0201400890376034920004CREAM N BAKE CAKES & PASTRIES                            1610
B0201400890376045790002*************                                            1603
B0201400890376045790003****************                                         1603
A0201401020000002250482LIM, TANYA LOU RIVERA                                    0501
B0201401020000003031152VIRLO CONSTRUCTION DEV. CORP.                            1605
A0101408370000002264002MEJIA, MARGARITA NAHLEEN NAGUIT                          0503
A0101408370382335988001DR. CORNELIO G. BANAAG JR. OR                           10505
A0101408370382335988001DR. JOSEPHINE V. BANAAG                                 20500
A0101405490000000444682QUICOY, DUNCAN MONTEALTO                                 0502
B0101405490392029745001MESINA BROTHERS, INCORPORATED                            1601
B0101405490000003905173KANITY PRINTING INC.                                     1603
A0101405490000005566236CONTI, MA. RIZA AMADA                                    0502
A0101408400000003844928MENDOZA, ANNECIA DAIZ                                    0501
A0101408400000004490095MACABEO, MINERVA BELDAD                                  0501
A0101408400394427962002SALONGA, JEFFREY V. AND                                 10503
A0101408400394427962002SALONGA, MA. DANELI                                     20500
A0101409180397621225001GAQUIT, ANNA LIZA BELTRAN                                0501
B2401400180411017908001LWC CYCLE MART, INC.                                     1602
A2401400180411044483001OUR LADY OF PERPETUAL HELP                              10501
A2401400180411044483001PARISH                                                  20500
B1201400150000005357893THERMMS CONSTRUCTION AND DEVELOPMENT                    11610
B1201400150000005357893CORPORATION                                             21600
A1201400150421459509001TEE, CHITO LAYUGAN                                       0503
A0101412890000005913351***********                                              0501
A0101412890000005913260********                                                 0504
A0101403320000007908703**********                                               0501
A1901400320000002296108MARILYN M BERBERABE                                      0503
B1901400320489377416001ALLEN A MACARAIG AND LUISA F MACARAIG                    1601
A1901400160491246087001NIDA F UY                                                0501
A1401400110492222663001SALAZAR, GERARDO CARMELO B.                              0501
B0101407430503023639001LAMBERT WILLIAMS LOGISTICS, INC.                         1610
A0101407430503558249001JIMENEZ, FLORENCE VILLANUEVA                             0502
A0101407430503736499001CECILIA R. NALAUNAN                                      0501
A0101403580511152575001REX REDENTOR C. BERDOS                                   0503
A0101405940000005568523CARLOS, NAYDHA                                           0501
A0101408530000000489516PESQUERA, RONNIE JACOB BERNALDE                          0501
B0101408530516037477002VXI GLOBAL HOLDINGS B.V.                                 1605
A0101408530000001885761GAMBOA, STACY SEZY CHUA                                  0502
A0101411790000000469461PANGILINAN, R DBU RLRM ENTERPRI                          0504
B0101403450521011878001**********                                               1602
B0101403450521028565001**********                                               1602
A0101403450521361575001PO, PAULINE LU                                           0501
A0101404000000003284433VIRREY, ELVIRA NUNEZ                                     0501
A0101404000551515186001JOSE, FRANCIS PARONG                                     0501
A2201400250000003558116LUIS S, TORRES III OR                                   10501
A2201400250000003558116ROSARIO FILOMENA                                        20500
A2201400250561337407001CONRADO T. BAUTISTA JR.                                  0502
A0101410690000000710694TAN, DENNIS LI                                           0501
A0101407720000004665021TONGCO, CRISTINA GARCIA                                  0501
A0101407720000005100263CASTILLO, VICTOR REY GONZALES                            0501
A0101407720602398260002JON EDWARD B. JURILLA OR                                10504
A0101407720602398260002JOAN S. GATCHALIAN                                      20500
A0101409890649047047001**********                                               0508
A0101411530000000741713**********                                               0502
A0101413570000004353957RAMEL H. OROZCO OR                                      10502
A0101413570000004353957NORA B. OROZCO                                          20500
A0101413570000005867343LIM, ROSALYN ROSANTO DBU FEROSA                          0502
A0101413990000008443469DELA CRUZ, LEONARDO TABUZO                               0501
A0101406590000008970663ASUSULA, REYNALDO SAYSON                                 0502
A0101406590662070270003INOCIAN, MARIA TSARINA PAJARO                           10501
A0101406590662070270003OR PAJARO, IRENE OR ZOAN                                20500
A1301400500000001412388GERONIMO G. QUIZA JR. OR                                10501
A1301400500000001412388MA ROSELLE P. QUIZA                                     20500
A1701400230000003471674CASTRO, ROMERO GAOIRAN                                   0502
B1701400230000002762683ASTRONIC MULTI TRADE CORPORATION                         1610
B1701400230000001159148AUTO - MEKANIKO MULTI TRADE CORPORATION                  1601
A4101400260812030742002GODGIVEN PHARMACY & GENERAL                             10510
A4101400260812030742002MERCHANDISE                                             20500
B4101400260000001199106H3 CONCRETE BUILDERS INC.                                1610
A4101400390813478374059CUEVAS, MERIAM                                           0501
A4101400420814520766108ESPANOLA, MERELY C.                                      0502
A4101400420000000710223ROMERO, MARICRIS BAUTISTA                                0501
A4101400550000001332370RODRIGUEZ, NELIA GENER OR                               10501
A4101400550000001332370RODRIGUEZ, NELIA                                        20500
A4101400550000006044480QUIOYO, EMELIA BOONGALING                                0501
B0101404840851013980002VIC IMPERIAL APPLIANCE CORP.                             1601
 0101404840851478374171                                                           00
B0101406750852024005001**********                                               1601
A0601400230891698269001DIMABUYU, LESLIE BALUYUT                                 0501
