B0101405070861821100608**********                                               2002
B0101401830141821100608**********                                               2003
A0101409920000000523700CHOA, SORAYA ANG                                         0501
A0101403320000000067623GALI, CHARLES PATRICK MARIANO                            0501
A0101406750000002040066GUIYAB, MA. ELENA ONCHER                                 0501
B0101400150061011178002SOLID MILLS, INC.                                        1602
A0101400150061038536152DE VERA, EDGAR TOLETE                                    0505
A1701400230000004469650CANTORNA, GENEVIEVE ALBANO                               0501
A1701400230000008555357GARCIA, ANGELICA RAMELB                                  0503
B0101406750000005608595METROWIDE HOMEBUILDERS, INC.                             1610
A0101406750852636445001MANGURNONG, AMAPOLA CELESTRE                             0501
B0101401250000007121262BALIAO DENTAL CLINIC & DIAGNOSTIC                       11602
B0101401250000007121262CENTER INC.                                             21600
A0101400150000003164014MAICYL B. DE GUZMAN                                      0501
B0101400150000004703360ACTION.ABLE INC.                                         1606
A0101400150061226801001LORETTA G. MANGILIT OR                                  10502
A0101400150061226801001REYNALDO T. MANGILIT                                    20500
A0101400150061456754001ANCHETA, ANGELINO TAGUIBAO                              10501
A0101400150061456754001OR ANCHETA, CANDELARIA UY                               20500
A01014058100000000165600**************                                          0501
B0601400100081034790001SHINMEI CREDIT AND LOANS CORP.                           1601
B0601400100000000032760RDF FEED, LIVESTOCK & FOODS, INC.                        1610
A0601400100081358072002NOEL C. DAVID                                            0505
A0101413730000001253281****************                                         0501
A0101413150000003208302***********                                              0501
B0101401830141008916001PRIMARY ELECTRICAL & ELECTRONIC                         11603
B0101401830141008916001SUPPLY, INC.                                            21600
B0101401830141066155001BUCE, ANTONIO C DBU BDMA MOTOR WORKS JT                  1601
A0101401830000001140010SANTOS, ROSIELYN LUCERO OR                              10501
A0101401830000001140010SANTOS, MICHAEL DAGAL                                   20500
B7201400170000003773626**********                                               1605
B0101407270162019008001ORIENTAL & MOTOLITE MARKETING CORP.                      1610
B0101407270162034733001ADARNA HOUSE, INC.                                       1601
A0101407270162673794001IMEE P. LIM                                              0501
A0101401090171196027001RUFINUS CORONEL OR REMEDIOS                             10501
A0101401090171196027001CORONEL                                                 20500
A0101401090171196089001ISABEL C. CO HUY                                         0502
A0101401090171197664001ELIZABETH D. CORTEZ                                      0501
A0101401090171198970001JOSELITO F. DAVID                                        0503
B0301400530000006477303BUENAS HOME CENTER CORP.                                 1605
A0301400950000010424818COLOMA, MARIA VIRGINIA ASUNCION                          0501
A0101410720653475723001LIWAG, NATHANIEL NUNEZ                                   0502
A3101400450223271858001COSICO, NINEVETCH BELEN                                  0501
A3101400450223550865002LOPEZ, CELIA CONDUCTO                                   10510
A3101400450223550865002OR LOPEZ, PAOLO                                         20500
A3101400740000010216405GARCIA, EMILY BUEN                                       0502
B3001400130000008264933ROSE EXCELLENCE CORPORATION                              1610
B1001400190231039064001*****                                                    1603
A1001400350000000922058ARENO, ANN JANE BUCO                                     0502
B0101406460000001231656EASTGATE COMPUTER CORPORATION                            1601
A0101406620000010982973CASILI, DESIREE LUPAC                                    0501
B0101406620000000962403GEOWORKS INTERNATIONAL CORPORATION                       1601
A0101406620273524846001PABUSTAN, REMEDIOS MATIC                                 0501
B0101408660274047925001CNT PROMO AND ADS SPECIALISTS, INC.                      1610
B0101411110000007950783SANDI, JAMES ROBINSON DBU VANROB CUSTOMS                11601
B0101411110000007950783BROKERAGE                                               21600
A0101411820000003837985SHERYLE R. ENOPIA                                        0501
B0101400570000002104147AB1 MEGA BUILDERS INC.                                   1601
A0101400570281360408001DR.ERLYN PATRICE LOVELY SIASOCO                          0501
A0501400200000002306092VICENTE, MARK CYRILL PAGUYO OR                          10502
A0501400200000002306092VICENTE, RUTH GAIL M.                                   20500
A0801400160000000476299*********                                                0503
A6601400120000002978110ANIBAN, FELICIDAD MARINO                                 0501
A6601400120314042312001NORSAM BUILDERS & CONSTRUCTION                          10502
A6601400120314042312001SUPPLY                                                  20500
A6601400120314068303001CABILI, MANUEL MELFORD DBU                              10501
A6601400120314068303001CATARMAN BUILDERS SUPPLY                                20500
A0101405650000000080071JORDUELA, NOBY BAUTISTA                                  0501
B0101405650322543721001OMNIBILT CONSTRUCTION AND MAINTENANCE                   11602
B0101405650322543721001INC.                                                    21600
A0101402510341197455001DR. LEONILA S. CASTRO                                    0501
A0101402060351009385001JORGE ALOMBRO JR. OR                                    10505
A0101402060351009385001NELIA ALOMBRO                                           20500
B0101402060351028684001EMSI MARKETING NETWORK                                   1603
A0101409050000006986716PARAGAS, LEAH PATRICE BORJA                              0501
A0101409050352045605001MYC DIGITAL PRINTING & SERVICES                          0501
B0101402930381014599001HEALTH SOLUTIONS CORPORATION                             1602
B0101402930381017086002HEALTH GALLERY INC.                                      1602
B0101402930381794289001ACCURACY INTERNAL BUSINESS SOLUTIONS INC                 1602
A0101408370000002264068MYCAH S. CABALONA OR ANGELO                             10501
A0101408370000002264068ROMAN E. CABALONA                                       20500
B0101408790000000599880HANSTON COMMERCIAL AND INDUSTRIAL                       11602
B0101408790000000599880CORPORATION                                             21600
B0101408790383043155001PHILPACKAGING CORPORATION                                1603
B0101408790000003845749**********                                               1602
B0101408790383067717001EMERALD FIELDS TRADING INC.                              1601
B0101408790383084533001AVISO VALUATION & ADVISORY CORP.                         1603
A0101402770000001571262WILFREDO DE CASTRO DBU VECS                             10503
A0101402770000001571262POULTRY PROCESSING                                      20500
A0101402770391529757033CATCHILLAR, RONALDO SARDADILLAS                          0501
A0101402770391589915001CATCHILLAR, RONALDO SARDADILLAS                          0501
B0101405490392006536003GEMINI INTEGRATED SERVICES, INC.                         1605
B0101405490392518855001ISABELLE ROYAL HOTEL & SUITES INC.                       1605
B0101408400394722352001MANANSALA HOLDINGS, INC.                                 1601
A0101409180000004409814PALLANAN, CRISTIAN MANZON                                0501
A0101409180000009769124MACARIO, RENE BOY SIBUL                                  0502
B0101409180397670520001CASAEUROPA INC.                                          1604
A5501400120410636391028CHIU, JULIA EILEEN & VALENTIN                           10505
A5501400120410636391028& CHRISTIAN & CH                                        20500
B2401400180411037264001CEVCEG MARKETING                                         1602
A2401400180411455559001VENDIX GEN. MERCHANDISE                                  0501
A1201400150421256250001BAY-ED, JOSEPHINE K.                                     0502
B1201400150421366008001SUN, FELIPE TAN                  JT                      1604
A0901400220000007072499**********                                               0502
B0101403320471030588001TACTICAL PERFORMANCE  (TPC) CORPORATION                  1610
A0101403320471489460001ALMA CALAVERA OR                                        10503
A0101403320471489460001KENNETH CALAVERA                                        20500
A0101406330000001235363FERNANDO P. MENDOZA JR. OR                              10502
A0101406330000001235363MARIA ELEONOR G. MENDOZA                                20500
A0101406330000011105972BRANDO PAUL B. CABEROS                                   0502
B0101412760000001399584VILLANUEVA,DBU RNV'S EVENTUALLY                         11603
B0101412760000001399584YOURS EVENTS MAN                                        21600
A0101412760000000528205SARAH JAYNE A. SANCHEZ                                   0501
A0501400170481257285001ELVIRA G. VIRAY                                          0501
A1901400320000011275620CUNANAN, RAUL HERMEDILLA                                 0501
A1901400160000009256953MICIANO, JAKE CRIS LEYCO                                 0501
A1901400160491346311001NIDA M LACSAMANA                                         0501
A1901400160000002291487MONTALBO, MARIA REGINA TORMON                            0501
A1401400110492221115001MANOLO A MERCADO                                         0504
A1601400170000001069170GILDA MAY S. BITARA OR                                  10504
A1601400170000001069170FRANCIS RAEL C. BITARA                                  20500
B1601400170000000036035SIX IN ONE CORPORATION                                   1603
B0101407430503006808001FAIR TRAVEL AND TOURS CORP.                              1603
B0101407430503024216001BASIC POLYPRINTERS & PACKAGING CORP.                     1605
B0101403580511016440001SUGI MANAGEMENT CORPORATION                              1610
A0101405940000004476240DEJORAS, ANNA KARINA MERCADO                             0501
A0101405940000007540612GONZALES, MICHAEL CONDE                                  0501
B0101405940512043643001CALAMANSIAN REALTY, INC.                                 1601
A0101408530000001886031DANTE A. CASIMIRO                                        0501
A0101412050000000367908*************                                            0502
B0101403450521011774002**********                                               1602
B0101403450521011888001**********                                               1603
B0101403450521011967001ERNES REALTY CORPORATION                                 1601
B0101403450521020418001**********                                               1605
B0101403450521032691001************                                             1605
A2201400250000007122749RICARDO Y. DIMARUCOT DBU R.Y.                           10504
A2201400250000007122749DIMARUCOT ENTERPRISES                                   20500
A0101407720602316120001LUCIA CASTRO-FORES OR                                   10501
A0101407720602316120001MIGUEL EDGARDO FORES                                    20500
A0101407720602359786001JIMMY B. ARAGON                                          0502
A0101407720602374721001MOHASHIEN SOLIVEN MALO-MAHMOOD                           0502
A0101407720602382305001PARDINAN, ROSSANA O.                                     0502
A0101407720602397820001SIBAYAN, SANTIAGO ANTONIO B.                            10501
A0101407720602397820001OR SIBAYAN, SUSAN                                       20500
B0101404260000000550361FELICITAS HAVEN RESORT                                   1601
A0101409890000009468540PASCOL, PEREGRINO ABAYA                                  0501
A0101409920650478374004DADULA, IRENE INES FAVOR                                10501
A0101409920650478374004MEMBERS OF NATASHA                                      20500
A0101411530000002260311**********                                               0501
A0101411530654083914001**********                                               0501
B1301400210682012854002BULACAN PUBLIC SCHOOL TEACHERS MULTI-                   11605
B1301400210682012854002PURPOSE COOP INC                                        21600
A1301400210000003104912ZEN TEN TRUCKING AND HAULING SE                          0507
A1301400500000000212995LUDETTE FATIMA T. CASTRO                                 0502
B1301400500684029282001L5 & SONS FINANCING CORP.                                1615
A1701400230693635864001SORIANO, JOSE JOEY QUINTO                                0502
A0101408240000000521913CABAUATAN, EMILY LASAM                                   0501
A0101408240711379193001MARIA LEAH OR MARTIN LORENZO                             0501
A0101408240711744706001ASI, LEA DE LEON                                         0501
A2801400100712405165001FOO, DICKSON TAM                                        10502
A2801400100712405165001OR FOO, SUSAN TAN                                       20500
A2801400230000002312823CASTANEDA, VERONICA ONG                                  0501
A2801400230000005752376ZAFRA, ANGIL DBU D-J VELOCITY                           10502
A2801400230000005752376RENT                                                    20500
A4101400260000001783611PAGE, MYLA BUARON                                        0501
A4101400260000009533600DE DIOS, MARIA DOMINGO                                   0502
A4101400260812409493001AMELIA RAZON OR EMILINO RAZON                            0502
A4101400260812478374055ARLENITA E. MORALITA                                     0501
A4101400420814520766110DELA CRUZ, ARMINDA E.                                    0501
A4101400550815047719001CABUNTOCAN, GAY TAGHAP                                   0502
A0101412340850084786001MIRACLE GRACE S. DUMIP-IG                                0501
A0101404840000004565851JACKY I. LEONARDO                                        0501
A0101404840851298552056ROSARIO GABAYERON                                        0501
A0101406750000003393162GHALAINI, GHASSAN ABDULL RAZZAK                          0501
A0101406750852202851001UDAN, JOSIE Q. OR                                       10502
A0101406750852202851001UDAN, RENEE L.                                          20500
A0101406750852388583001CALIVARA, MARITES LIABRES                                0502
A0101406750852399637002CAYANAN, CRISANTO REYES                                  0502
A0101406750852617055001PUA, HERMINIA SALAS                                      0501
A0101405070000002282139GUARIN, JULIAN BRIONES                                   0502
B0101405070861020510001SILVERLINK INTL TRAVEL & TOURS CORP.                     1610
B0101413860000000145275CON-PAC WAREHOUSING INCORPORATED                         1605
A0601400230000003015772VICENCIO, CRISTINA DELA CRUZ                             0501
