A0301400660194725513168*****                                                    0502
A0301400530193694916001MAGALLANES, RICHARD A.                                   0501
A1001400480000002659783REFUGIO, SOFRONIO RETUTAS                                0501
A2401400180411431120001GELLANG, JOVY ALBARANDO                                  0501
A0101406750000004641587RICASA, BRI DBU MAGNETIC HOUSE                          10520
A0101406750000004641587RENTAL                                                  20500
A0101400860011520168001**********                                               0505
A0101400860011534620001**********                                               0501
A0101400150000003600900BARRIO, MA HENCEL VILLAGONZALO                           0501
B0101400150061040242004MANUELA CORPORATION                                      1601
A0101400150061173261001AGNILA, HONORIO R.                                       0502
A0101400150061226426001TAKANORI FUJIMURA                                        0503
A0101400150061226426002FUJIMURA, TAKANORI M. OR                                10503
A0101400150061226426002HIROKO FUJIMURA                                         20500
B0601400100000000786803SIMON AND STANLEY INTERNATIONAL TRADING                 11602
B0601400100000000786803& DEVELOPMENT CO                                        21600
A0601400360083641046001BROCKHURST, WERNER                                       0501
A0101414090000002282668TUBONGBANUA, FE FRANCIA                                  0501
A0101410560000000848733PANGILINAN, MARIO AMIEL CORTEZ                           0501
A0101400730000002882262LUMAUIG, CICERO DAIT                                     0501
A0101406040112092241001********                                                 0501
B0101401960121035297001APO MERCANTILE, INC.                                     1601
A0101401830000000865083ZABALA III, ARMANDO CABUTAJE                             0501
B0101401830000000033581CARITAS SALVE CREDIT COOPERATIVE                        11603
B0101401830000000033581(BULACAN)003                                            21600
A0101401830000001281910DE GUZMAN, CONCEPCION FRANCISCO                          0501
A5001400170000000170141MOISES, RACHEL OR TIU, REBECCA                          10505
A5001400170000000170141OR TIU, EDUARDO                                         20500
A0101412920000006150072LAGANAS JR., MAMERTO VARGAS                              0501
B0101400440161027962002CASAYRA CORPORATION                                      1601
A0101400440161039572029LORNA A. CERRO                                           0501
A0101400440000002035023DOROTEO C. TICZON                                        0502
A0101400440000003671692DAISY D. JACOB OR BALLESTEROS,                          10502
A0101400440000003671692AGNES OR GUANZON                                        20500
A0101401090171277387001MA. THERESA F. ESTOYA                                    0501
A0301400530000001409694ALIADO SR., JIMMY M.                                     0502
A0301400530000000065832PERIAS, FE                                               0501
A0301400660000001020102RODRIGUEZ, DARREN ALAMPAYAN                              0504
A0301400790000003969353JOSE, ROBERTO NATIVIDAD                                  0502
A0101401380201299840001KIM, JI YOUNG                                            0501
A3101400160000001792190MIRAFLOR M CARINGAL                                      0501
A3101400160221757524001ANOYO, RENELYN TERRENAL                                  0502
A3101400450000002092968MUNOZ, JOCELYN LIMUACO                                   0502
B1001400190231417579001CLAVERIA TREE NURSERY, INC.                              1602
B1001400480000000133593DELUXE RANCH TRANSPORT CORPORATION                       1602
A1301400470000002299836RIVERA, SUSANA PAJARILLAGA                               0501
B0101401670271017449001HK HARDWARE SUPPLIER CO., INC.                           1601
A0101401670271216325001VITALIANO N. AGUIRRE II                                  0501
B0101401670271477778001VIRTUSIO PR INTERNATIONAL, INC.                          1602
A0101408660000000059932MARGAS, HELEN DUMAYAC                                    0501
B0101411110000001037143LOS PADRES, INC.                                         1602
A0101400570281500167001**********                                               0504
A0501400200000004456968******                                                   0510
A1101400120000001547337ALDIANO, FLORDELUNA LATO                                 0503
A1101400120313535537001COLLERA, LEONOR M. OR                                   10504
A1101400120313535537001COLLERA JR., AGUSTIN                                    20500
B6601400120314043609004FUNDACION GRAMEEN PILIPINAS INC.                        11605
B6601400120314043609004CATARMAN 2 BR.                                          21600
A6601400120314612868001FE ADRIATICO OR MIGUEL ARIATICO                          0503
A3401400280318478374004MELANIE B. BALDOMERO                                     0502
A3401400280000001723360RICHELLE V. ALMONGUERA                                   0501
A0101402350000001474357GONZALES, ALICE LAZARITO                                 0501
A0101402350000003080355TAPEL, BERTILLA TATEL                                    0502
B0101402350321046511001SIDAMO DISTRIBUTION INC.                                 1602
A0101402350321179521001FELLIZAR, CESAR OR EMILIA OR                            10504
A0101402350321179521001ABUDA, MICHELE                                          20500
B0201400760000000222762UY, JOHN CHIU OR JOHN JEFFERSON UY                       1610
B0201400920375035545001GSG ARCHITECTS CO.                                       1602
A0201400890376056207002MARDZ AIRCONDITIONING SUPPLY &                          10501
A0201400890376056207002SERVICES                                                20500
A0101402930381205187002JOCELYN M. RESURRECCION                                  0501
A0101402930381205376002ROGELIO LUSONG OR                                       10502
A0101402930381205376002EVELYN LUSONG                                           20500
A0101402930381325916001ARNOLD R. LAIGO                                          0502
A0101408370382319789001ROCHELA B. CUAYCONG OR                                  10501
A0101408370382319789001CESAR A. CUAYCONG                                       20500
A0101408790000002031492AGUILAR JR., ERNESTO VERONA                              0502
 0101402770000001571693                                                           00
B2401400180411036779001********                                                 1603
B2401400180411055962001BROKENSHIRE COLLEGE SOCSKSARGEN,                        11620
B2401400180411055962001INC.                                                    21600
B2401400180411338845003ROBERTO OR JANET PERALES JT ANTONIO OR                  11602
B2401400180411338845003ADELENE PERALES                                         21600
B0101403030441314128003**********                                               1601
B0101403030441593223001**********                                               1601
A0101403320000006027298ROSALES, EMERSON TARUN                                  10501
A0101403320000006027298rosales, pedro                                          20500
A0101412760000002067632VILORIA, REMEDIOS O. OR                                 10502
A0101412760000002067632VILORIA, EDUARDO C.                                     20500
A1601400170000001069056CHRISTOPHER S. CO                                        0505
A0101407430000000446662MORTA JR., LAURENTINO ENDERES                            0505
A0101403580511150629008MIRIAM HIPOLITO OR RAMONA PENA                          10501
A0101403580511150629008OR GERALDINE LIMOSNERO                                  20500
A0101406880000001286619TONOG, JO LEO G. OR TONOG,                              10502
A0101406880000001286619CLARE BIANCA V.                                         20500
B0101406880513038577001ACTIVE LAND ESTATE SALES INC.                            1610
A0101408530516571877145RODOLFO H. HERRERA JR.                                   0501
A0101408530000001268402RONEL RICHIE E. TAMARGO                                  0501
B0101403610000000016008LEE TOP BUILD INDUSTRIES CORP.                           1602
B0101403610531010097001UNI FUNDS INCORPORATED                                   1601
A0101403610531707487001GARCIA, FRANCES CERDENA OR                              10501
A0101403610531707487001CARRASCO, EUNICE JANE C.                                20500
A0101403610531717691001PONCE, LUISA BERNABE                                     0501
A2201400250561297004034EMMANUEL DIAZ MARALIT                                    0501
A2201400250561342534003ROWENA B. FERRER                                        10501
A2201400250561342534003OR JENNIFER L. FERRER                                   20500
A0101404130000000321439POLANCOS, MICHAEL JIM PEREZ                              0503
A0101407720000004664933MAGSAJO, MARITES CALINGASAN                              0501
A0101407720602325737001FELIPE R. REA                                            0501
A0101407720602382305001PARDINAN, ROSSANA O.                                     0501
B0101404260000000157037INTERPRO FOOD SPECIALIST INC.                            1605
B0101407690652033021002ENHANCE FEED SOLUTIONS, INC.                             1602
B0101407690652041404001AUBURN POWER TECHNOLOGIES INC.                           1601
B0101407690652042938001SIGNWOOD HARDWARE & LUMBER SUPPLY                        1603
A0101407690652520766005GILNNA M. MALIGAT - DEALERS OF                          10501
A0101407690652520766005SHOECAT INC.                                            20500
A0101407690652525001047NOEMI B. BUNDA - DEALERS OF                             10501
A0101407690652525001047SHOECAT INC.                                            20500
A0101407690652525001080DEL SOCORRO, ROSALIE - DEALERS                          10503
A0101407690652525001080OF SHOECAT, INC.                                        20500
A0101407690652525001081AGUSTINO, ROWENA - DEALERS OF                           10501
A0101407690652525001081SHOECAT INC.                                            20500
A0101407690000000053881********                                                 0502
A1301400500684059327001SANTOS, FLORANTE GUANSING                                0501
A1301400500684059329001DUMBRIQUE, JANET SANTOS                                  0501
A1301400500684059330001SANTOS, ROMEO GUANZING                                   0501
B0101408240000000832860GATEWAY AIR SERVICES CORPORATION                         1602
A0101408240711232945004SALOM, HERMELITA JIMENEZ                                 0505
B2801400100712015381001PHIL-PAN SUBIC VENTURES INC.                             1602
A2801400100000000004720REYES, MYRA DBU MRC DENTAL CLIN                          0501
A4101400260000005333357TAN, JAYSON LIM                                          0503
A4101400390813478374014ELIZABETH V. EVAL                                        0502
A0101404840851520766180CARMELITA M. BARBACENA                                   0501
A0101406750000004822851ARVIN S. BARRETO                                         0501
A0101406750000004822931ANGELINA A. DEL ROSARIO                                  0501
A0101406750000004822986****                                                     0501
A0101406750000004823012KIMPEE E. JACINTO                                        0501
A0101406750000004823023ELENITA N. SENTONES                                      0501
A0101406750852043322001JMRS TOURS & TRAVEL                                      0503
B1901400450000102000013**********                                               2002
