A0101400730111520766068MONILLA, MARIEL CAMACHO                                  0501
B0101400440000005393882JKRFG UPGRADE BUSINESS SOLUTION CORP.                    1605
A0101403320000010704053WHELCHEL, MICHAEL DAVID BILGERA                         10501
A0101403320000010704053OR WHELCHEL, ANGELICA                                   20500
A0101400440000000596630MARY ANN A. OYARDO                                       0501
A0101410720000006239869******                                                   0503
A0101408400394492627001ICAY, DARWIN BERNABE                                     0502
B2401400180411056453001PINOY BOSSING TYRES CENTER, INC.                         1603
B2801400230713821100608**********                                               2001
A0101400860000005312981**********                                               0502
A0101411370000005524670***                                                      0502
B0101400150061011076001GENERAL METAL CONTAINER CORPORATION                      1605
A0101400150000000000033IBARRA, PEACE EUSTAQUIO                                  0501
A0101405810072234684002TAN, RAYMOND                                             0501
A0101405810072391337001MONZON, SHARON NGO                                       0501
A0601400360083043693001R3J BUILDER AND TRADING                                  0502
B0601400360000000978936THE MEDICAL CITY CLARK, INC.                             1610
B0601400520000004423385THE XEVERA HOMEOWNERS ASSOCIATION,                       1605
A0601400520000007553753CELTRONIX DR.CELFONE                                    10505
A0601400520000007553753SALES & SERVICES                                        20500
A0101413730000000144625*******************                                      0501
A0101410560000005280893MANGARIN, CHRISTIAN ABAC                                 0502
A0101400730111342821001LEDESMA, EVELYN PRUDENTE                                 0501
A0101406040112420268001JONATHAN T. REYES                                        0502
A0101401960000006004535SY, ESTER CHOA                                           0501
B0101401830141032221001CARITAS ET LABORA HUMAN RESOURCE SERVICE                11610
B0101401830141032221001COOP.                                                   21600
A0101401830141040554001DREAMBOOKS PUBLICATION                                   0502
B7201400170000007185562CARUMBA, MARGIE SEPADA OR CARUMBA,                      11601
B7201400170000007185562DANIECITO PASCO                                         21600
A0101400440000008234600LABADIA, JONATHAN DAVID                                  0505
B0101400440161821200608**********                                               2002
A0101401090171196091001BUENA FE A. APEPE                                        0501
A0101401090171200080003JOSELITO B. ZULUETA                                      0501
A0101401090171776742001ARNOLD C. JOSUE                                          0501
A0101401090171787698001INGUSAN, CRISTINA TOLENTINO OR                          10502
A0101401090171787698001INGUSAN, ARFINE TOLENTINO                               20500
B0101401380201041802001D'GLACIERS' MGM INC. - MAC                               1602
B0101410720653022858002FOODKING CUISINE & SERVICES INC                          1602
A0101410720000000029781MARCOS, MYLAJOY TAMAYO                                   0501
A0101413600000005355011LORNA Z. TECSON                                          0502
A0101413600000002122321CANTERAS, MARIANNE DBU CANVASS                          10505
A0101413600000002122321PRINTS MARKETING                                        20500
A3101400870000005565335ESTRAVO, EULALIA MAGPAYO                                 0502
A3001400130000005708545FAYTONE, MARIA FATIMA MAGNO                              0502
A3001400130000001261103FERRER,ODELIO Y. OR FERRER, IVY                         10501
A3001400130000001261103M. OR VALEROSO,                                         20500
B1001400350233042688001SOLIDMARK, INC.                                          1605
A1001400480000000133279DACUDAO, LILUISA OR DACUDAO,LEO                          0502
A1301400470000005394301ELEZSUR I. CANCIO                                        0501
A0101401670271415195001ARLYN L. SOLITARIO                                       0504
B0101406460000001231634INTELLISERVE TRADING INCORPORATED                        1602
A0101406620273361194001DANILO T. CHUA JR.                                       0504
B0101412470000000949544BEYOND METRO POINTE GREENHILLS INC.                      1602
A0801400160000006893123SALIENDRA, MARY ANNE SORRILLA                            0502
B34014002803187788880880318778888088                                            1605
A0101402350000005567484SERRANO, NERITA BACOY                                    0502
A0101402350321035519001ANTONIO'S GARMENTS                                      10502
A0101402350321035519001SUB-CONTRACTING                                         20500
A0101405650000006273601H. NOOR, MALIKSAIF BANGON                                0502
B0101405650322024533001TUGADE ASSOCIATES, INC.                                  1602
A0101405650322617592001MALANA, LOURDES MONDERO                                  0501
B0101402060000006931822ASSURANT MANAGED SOLUTIONS INC.                          1601
A0101402060351211709001MARGARITA B. DINGLASA OR                                10502
A0101402060351211709001ERNESTO D. DINGL                                        20500
A0101402060351652524001SYTANGCO, ROY IMPERIAL OR                               10503
A0101402060351652524001TAGALA, GINA ADA                                        20500
A0101409050000009981100LAGUARDIA, MARIBEL MALABANAN                             0501
A0101402930000000623363KING, C DBU EASTERN CIRCLE                              10502
A0101402930000000623363HUMAN RESOUCE SERVICES                                  20500
A0101402930381209432003JOSELYN T. PEREZ OR                                     10505
A0101402930381209432003EXEQUIELITO PERE                                        20500
A0101408370000010341721SCHEIRMAN JR., WILLIAM RUSSELL                          10505
A0101408370000010341721MENDOZA                                                 20500
B0101408370000007031410VIRI CIBUS MEDICINAM, INC.                               1602
A0101402770391211321002ASIS, DANILO B.                                          0501
A0101402770000001571386ANTONIA O. MANGAMPO                                      0501
A0101405490392029745001MESINA BROTHERS, INCORPORATED                            0502
A0101412210000004644582PAYABYAB, SHEENA ROSE CHUA                               0501
A0101412210000005303075CRUZ, MARIA PATRICIA CHELO                               0502
B0101412210000000031512WALL STREET ACCOUNTING AND BUSINESS                     11602
B0101412210000000031512SOLUTIONS INC.                                          21600
B0101412210399821100608**********                                               2002
A5501400120410622095001CORDER, JAIMELITA OR EDWIN                               0502
A2401400180411623776001SAUBAN, MARIA LUISA BANDIOLA                             0502
A0901400220000000012324SPECIALIST MOTORCYCLE PARTS &                           10510
A0901400220000000012324ACCESSORIES, INC.                                       20500
A0101403320471047334001OLIVAR, MARIA CRISTINA DBU AI2                          10502
A0101403320471047334001DECALS & STICKER                                        20500
A0101403320471616539001ROLANDO D DELA CRUZ                                      0502
B0101406330472028479001TRU-SERV MARKETING CORPORATION                           1602
A0101406330000000162616LAND OF THE PROMISE TRUCKING                            10505
A0101406330000000162616SERVICES                                                20500
A0101412760000000767977ABELIDO, RAYMOND OR MICHELLE                             0502
A0501400170481318580009SINLAO, ANA CRISTINA LEGASPI                             0510
A1401400110492788204001***************                                          0510
A0101403900501569514001TECSON, ADRIAN CASTRO                                    0501
B0101403900501821100608**********                                               2003
A0101407430000004687561JAN IVY L. DELA CRUZ                                     0502
A0101405940000001534190PANGANIBAN, RANGIE MIANO                                 0501
B0101405940000005359720UNITED GATEWAY BUILDERS INCORPORATED                     1602
A0101408530000010861402ANOSO, MARY GRACE JAVIER                                 0501
A0101408530000010861624HARI, ROWENA ESTAYO                                      0501
A0101411400000005330012MANGONON, MA. LISETTE LARRACAS                           0502
B0101411790000004808082PDB PROPERTIES, INC.                                     1605
A0101411790000000469483JARLOC, ELIJJAH JOJI E.                                  0501
A0101403450000006055665***********                                              0501
A0101407720602358468001TORRES, MA. TERESA ANCIANO                               0506
A0101404260611478374099TERESITA DOLLOPAC                                        0502
A0101409920000001951931MEMBERS OF NATASHA (SHOECAT INC                         10501
A0101409920000001951931TRASPORTE, GINA                                         20500
A0101413570656057648254JONNIE SIAO                                              0501
B0101413990000000206168ASPEN COLDSTORAGE INC.                                   1603
A0101414120000006005367NAJOS, ELVIRA ABAO                                       0501
A0101406590000003007030BATOCABE, MARY GRACE TABLIZO                             0501
B0101406590662030130001MANILA WATER COMPANY, INC.                               1603
A0101410300000000919455*****                                                    0501
A1301400210000005040242SALAMAT, JOSE JIMMY LIONGSON                             0505
A1701400230000000097790ASIS, MARY JEANE PAGUSAN                                 0501
A0101408240000009453038ROJAS, CARMENCITA SORIANO                                0501
A2801400230000009022086JALANDONI, FLORDELIZA STA MARIA                          0501
A4101400260000006043050ROQUE, NERIZZA MERCADO DBU DKR                           0502
A4101400390000000379215VYTINGCO, ANALIZA ANGELIA                                0501
A4101400420814357382003REMULLA, GILDA VASQUEZ                                   0501
A4101400420000002084595TONIO, EDNALYN                                           0501
A4101400550000003266959LATAP, MAXIMO MAGDAONG                                   0501
A0101405070861321046001MARK LAURENCE V. LEBRIA OR                              10510
A0101405070861321046001GERLY D.C. LEBRI                                        20500
B0601400230000006045381RD PAWNSHOP, INCORPORATED                                1605
