A0101408370000006446302VELASQUEZ, ELIZABETH RAE C.                              0501
A1101400120000001920714TAMAYO, ALMA A. OR                                      10502
A1101400120000001920714TAMAYO, GERARDO                                         20500
A1101400120000000065110BOLECHE, CLARA GACUTAN                                   0501
B1101400120313549737002YU, RONNIE LIM                                           1601
A0101400440000000596630MARY ANN A. OYARDO                                       0501
B0101400440000003766923RIVERMOUNT HOTEL & RESORT INC.                           1601
A0101400440161478374175MARYLEN R. MORADA                                        0503
A0101400440161525001159MARITES P. MONTALBAN                                     0502
A0101400570281021967001CHANGING DIGITAL IMAGING                                10501
A0101400570281021967001GRAPHIC                                                 20500
B0101400570281025791002BUSINESSWORLD PUBLISHING CORPORATIO                      1601
A0101400570281047282001WORLDTECH ENGINEERING &                                 10503
A0101400570281047282001INDUSTRIAL SALES                                        20500
B1101400120000006186883ONG, VIRGINIA PO AND ONG, WAN LIAN PO                    1601
A1101400120000001547337ALDIANO, FLORDELUNA LATO                                 0501
A1101400120000005608260SANITA, ERIC SALIENTE                                    0502
A0101400860011395673001**********                                               0506
A0101400860011449713001**********                                               0502
B0101400860011486476001**********                                               1604
A0101400860011492247001**********                                               0501
A0101400860011541134002**********                                               0502
A0101400860011770533001**********                                               0503
A0101400150000003197900Carol M. Osorio                                          0501
A0101400150000009401489TANADA, EVANGELINE ROSE                                 10501
A0101400150000009401489HONRALES                                                20500
A0101400150061382237001FILIPINAS T. PINSON OR                                  10501
A0101400150061382237001LIGAYA T. MAGANA                                        20500
B0101400150061494758001MACOLYTES INC.                                           1610
A0601400100081022019001CLARK HOUSE OF WINE & GEN MDSE.                         10503
A0601400100081022019001BY: CSC                                                 20500
A0601400100081478374009JOWELL MIRANDA                                           0502
A0101406040112687823001********                                                 0502
A0101401960000002331813LADARAN, LANI VILLANUEVA                                 0502
A0101401960121237943001**********                                               0502
A0101401960121239446001**********                                               0501
A0101413150000000082711***                                                      0501
A0101413310000003169271MEJICO, MA. CELESTE CAPILI                               0501
A7201400170000003774221MANCO JR., ANIANO RAMIREZ                                0501
A7201400170000009673232GARCIA, GENETTE MONDARTE                                 0501
A7201400170000012099235SUPERALES JR., DEMETRIO BENIDA                           0501
A7201400170000012099246YANG, EVELIA LASTIMOSA                                   0502
A5001400170000002288311VILLAMIL, MARISSA PULIDO                                 0501
A0101400440000000821414MARY ANTONETTE APIT-ESCOBER                              0501
A0101400440161525001105VIRGIE B. CRUZ                                           0501
A0101407270000003254060ORDINARIO, ROEL BUEN CONDE                               0502
A0101407270000008409187PASCUAL, JEMAR COSTA                                     0501
A0101407270162331908140LORELA Z. ALIPIO                                         0502
A0101401090171080484001APOLINARIO, JOSEPH SWIN                                  0501
A0101401090171368751001RUBEN TINDUGAN JR.                                       0501
A0101401090171447070001ELEANOR LETRAN &/OR ARNELFA                             10502
A0101401090171447070001PALIZA &/OR DAIS                                        20500
A0101401090171493594001CELINA S. TADY                                           0501
B3101400160000000429134MA ANGELA GARCIA AND LEONILO ERCIA                      11603
B3101400160000000429134AND JULIETA PUA                                         21600
A3101400160000011243860RESUELLO, MARJORIE DON                                   0501
B3101400160221010177001SUNSTAR LAND RESOURCES MANAGEMENT                        1605
A3101400450000008015201DM SKIN CARE WELLNESS CENTER                             0505
A3101400450223222902001PENALOZA, JAN ALBERT DE ROMA                             0501
A3101400870000003515386FONTANILLA, LIEZL RIVERO                                 0502
A1001400190231032517001FRAN-FRAN TRADING                                        0503
B1001400190000008744189CABAHUG, DIONISIO YLANAN DBU GOLDEN                      1610
A1001400190231279583002PATRIANA, ROQUE CASTILLO                                 0502
A1001400190231478374006LIBRADO, HAZEL T.                                        0501
A1001400190231520766036ONIPA, JANE ROSE P                                       0501
A1001400190231520766112ALIBIO, NELYBETH TACBOBO                                 0501
A1001400350000011297642DOLERA, JESSE JOHN GARZON                                0501
A1001400350000000017165MEN DBU A&L MARKETING SOLUTIONS                          0501
A0101406460000002359920CHAN, KENDRICK LESTER SIH                                0502
B0101406460000000182483WEE COMMUNITY DEVELOPERS, INC.                           1605
A0101406620273215629001PATRICK G. SANTOS OR                                    10502
A0101406620273215629001MONICA S. SANTOS                                        20500
B0101406620273216139001ABANO PAMFILO PARAS PINEDA AGUSTIN                      11603
B0101406620273216139001LAW OFFICE                                              21600
A0101406620000009018611MADLANGSAKAY, EFREN ASUNCION                             0501
A0101406620273489850001RODOLFO P. DE GUZMAN JR. OR                             10501
A0101406620273489850001ROSARIO K. DE GUZMAN                                    20500
A0101406620273553969001CONRADO G. BELISARIO                                     0502
A0101412470000000853834CHUNG, EUN JOO                                           0502
A0101412470000000520192ARCA, ESTHER DBU WASABE SPICE                           10503
A0101412470000000520192OF THE ORIENT                                           20500
B0101400570281007593001KINGSFORD ENVIRONMENTAL PHILS INC.                       1602
A0101400570281437988001MUNOZ, CAROLINA NOGOY                                    0501
A0101411240283781478001DINOPOL JR., CRISTETO ESTRELLA                           0502
A2601400270000009896424EDGAR T. GALGALAN                                        0501
A2601400270302593825001LAILA M. MANZANO                                         0502
A1101400120000006186434ZALDARRIAGA, MONA BACUYAG                                0501
A1101400120000006186478BOLECHE, MERLINE BANDALA                                 0502
A6601400120000001065292AOYANG, DONABEL CERBITO                                  0501
A6601400120314612973001CABILI,MANUEL MELFORD OR MANUEL                         10504
A6601400120314612973001OR TERESITA OR Z                                        20500
A6601400120314625677001ORSOLINO, JOY SURIO                                      0501
A6601400120314674720001OSITO SOMORAY JR.                                        0501
A3401400280000003493798FORMILLEZA, JR BERNAL                                    0501
A3401400280000006791100FERNANADO D. BEGAS JR.,                                 10502
A3401400280000006791100DBU BEGAS MERCHANDISING                                 20500
A3401400280318478374006LOVERAS, EMCY DEL ROSARIO                                0510
A0101402350321319273002VALDEZ, MIGUELA D. OR                                   10501
A0101402350321319273002VALDEZ, REDENCIO                                        20500
A0101402350321478374013ROSALINA M. MARAVILLA                                    0501
A0101402350000005645172GARCIA, ELFLEDA MENDOZA                                  0501
A0101402350321708802001ALMAROSE C. VILLAPANDO                                   0501
B0101402350321738079001OLIVAREZ GENERAL HOSPITAL INC.                           1610
A0101409050000000939351DELA CRUZ, JOSEPHINE                                     0501
A0201400890000012414003EAMIGUEL, WENDY LOU LANORIAS                             0501
A0201400890376458754001NOMBRADO, GILBERT DOMASIS                                0501
A0101402930381505507001TRINOS, ROCHELLE VERANO OR                              10502
A0101402930381505507001AVILES JR., ISAG                                        20500
B0101408370382044770001CARRASCAL NICKEL CORPORATION                             1601
A0101402770391354941001RAYMOND D. VILLANUEVA                                    0502
A0101402770391757431003**********                                               0501
A0101405490000006241943MINERVA V. VILLACORTA                                    0501
A0101408400000001213461GARCIA, CORNELIA LIBREA                                  0502
A0101408400394478374054SANTOS, ALMA MANUEL                                      0501
A0101408950000009450999SACLAO, ERICKSON VILLARIN                                0501
B0101408950000000036837ST. LUKE'S MEDICAL CENTER (GLOBAL CITY)                 11603
B0101408950000000036837EMPLOYEES ASSOCI                                        21600
A0101409180000012364022SRINIVAS GOPAL, SATISH                                  10501
A0101409180000012364022BINDINGNAVALE                                           20500
B5501400120000005492213CORDERO, CHURCHIL FEDOC                                  1601
A2401400180411667641001ALCONES, CHERRY PERLA JAMERO                             0501
A0101403030000011253842**********                                               0501
B0101403030441366237004**********                                               1602
A0101403320471004527001RED COUCH KTV BAR                                        0501
A0501400170481254469002OSCAR ARCINUE OR LUCIA DE VERA                           0505
B1901400320489821100608**********                                               2002
B1901400160491341189001VIRGINIA V LIM OR                                       11601
B1901400160491341189001RICHARD D LIM                                           21600
A1901400160491671043001DOMINGO JAVIER MERCADO                                   0501
A1401400110000005526763NADELA JR., ANDRES OCAMPO                                0501
B1401400110000000034693LUCENA CITY PHARMA CORPORATION                           1601
A1401400110000000132841*******                                                  0501
A0101403580000004614022BANTILING, ELENITA PUNZALAN                              0502
A0101403580511420184003MARIA CAROLINA S. MACASAET                               0525
B0101405940512025675001THE MARKETING EXECUTIVES OF THE PHARMACE                11602
B0101405940512025675001(MEPI)                                                  21600
A0101408530000001268617YU, YUN-TING                                             0501
A0101411790000012418325JEFFREY LAWRENCE YU CHANG                               10501
A0101411790000012418325CABRAL                                                  20500
B0101403450521011748001EUROTILES INDUSTRIAL CORP.                               1606
A0101403610000012385956JACINTO, PATRICK RYAN NG                                 0501
A0101410690000000061845DAYAO JR., FELICIANO IAN B                               0501
B0101410690000006663654LULU-PHILS. INT'L. EXCHANGE, INC.                        1602
A0101404130000005962398FETALINO, JENA FORMILLEZA                                0503
B0101404130000000001270GAME CRAFT, INC.                                         1602
B0101404130000004437183GAME CRAFT, INC.                                         1602
A0101404130601451188001**********                                               0501
A0101404130000000001350FRONDA, ALEX MANANGAN                                    0501
B0101412180000001293130BLADESANDBOWS INC.                                       1605
B0101412180000008320103VERTICAL SPACE INTERIORS, INC                            1610
A0101409920650078985001REYES, ANGELINA BERSABE                                  0501
A0101409920650478374028RENDON, RENELYN GABATAN                                  0501
A0101407690000000587800*****                                                    0501
A0101407690652478374145MA. ROUMELA LUISA MIJARES -                             10501
A0101407690652478374145DEALERS OF SHOEC                                        20500
A0101413440000006680620PASAJOL, DENNIS NAVARRO                                  0501
B01014134400000090067248MANOR 8BINGO8 CORP.                                     1601
A0101413570000003380043SALVADOR, ALVIN ROI ESCUDERO                             0502
A0101413570000005435241SALVADOR, ALVIN ROI ESCUDERO OR                         10502
A0101413570000005435241GONZALES, DANIEL                                        20500
A1301400210000005040577**********                                               0501
A1301400210000003105051SANTOS, NOREEN PAGCALIWAGAN                              0501
A1301400210000000540652LEONCIO, GENE ANTHONY GIRON DBU                          0501
A1301400210682345728001DR. SEVERINO DE GUZMAN JR. OR                           10502
A1301400210682345728001  DRA. VIOLETA D                                        20500
A1301400340000002283741CECILIA R. PRODON                                        0503
A1301400340000002283810EDNAVE, KERIMA ANN GARCIA                                0505
A1301400340683501003001GO, LLOYD CHUA OR CHERYL B GO                            0502
A1301400500684094788001GERODIAS, ANALYN ALCANTARA                               0503
B0101408240000008160081TANCINCO JR., M DBU MARTIN'S CAR                        11601
B0101408240000008160081ACCESSORIES PART                                        21600
A0101408240000008160212ASUGAS, MARINA                                           0501
A2801400100000007822924LADERA JR., QUIRINO PALER                                0501
A2801400100000011266830MANZANO, LAILANI OSALBO                                  0501
B2801400100000004560069SUPPLY OILFIELD SERVICES (SUBIC), INC.                   1601
A2801400100712320516001CLEMENTS, ANTHONY ALLEN                                  0502
A2801400230000000008288ALONZO, JHOANNE DELOS SANTOS                             0501
A4101400390000000048451MARY ROSE S. MUSA                                        0501
A4101400420814307650002JARO, MARINELA ALCARAZ                                   0501
A4101400420814418225001LOPEZ, ROSALINA OR                                      10501
A4101400420814418225001LOPEZ JR., RODRIGO                                      20500
A4101400420814772658001SAYAROT, JOLINE PEREZ OR                                10503
A4101400420814772658001SAYAROT, MICHAEL RAVELO                                 20500
A0101412340000003341693ALLAN CHRISTOPHER C. CARLOS                              0501
A0101404840000009615950BANOGON, ALLAN EDWARD E.                                 0501
A0101404840000010969432BIEN, MARK ALMAZAN                                       0501
B0101406750000000480900DORON BUILDERS & CONSTRUCTION SUPPL                      1603
A0101406750852615338001BARLAAN, CHRISTY                                         0501
A0601400230000003015823ALURA, JIMMY SUENO                                      10502
A0601400230000003015823OR ALURA, MERLE                                         20500
A06014002300000074022796E CASTRO, RICARDO MANUEL PEDRO                          0505
