B0101400570281821100608**********                                               2005
A0101400730111207597001DILIP R. DHANANI                                         0505
A0101400440000004901440NLR INSURANCE SERVICES                                   0502
A0301400790000011509732ELISEO JR., BENJAMIN CASTILLO                            0501
B0101413600000000206915LEGEND OF ICE RECRUITMENT                               11604
B0101413600000000206915& SERVICES INC.                                         21600
A0101413990000003141168PASCUA, JERICKSON LOUIE TAN                              0502
A0101406590000011588062MATUGUINAS, ROMAN DE VERA                                0501
B0101406590662016073001PACUCOA, INC.                                            1650
A0101406590662749087001LOPEZ JR., OSCAR B. OR                                  10502
A0101406590662749087001LOPEZ, GLADICE C                                        20500
B0101400860011305536001**********                                               1601
A0101400860011529339001**********                                               0501
A0101400860011608256001**********                                               0502
B0101400860011678167001**********                                               1604
A0101401250000000907095SY, JANETH M.                                            0501
A0101401250000002763346**********                                               0505
A0101411370000005524421BATUIGAS, AURORA REBOQUIO                                0501
A0101411370000005524498BERAME, JUNRILL ANERO                                    0502
A0101400150000003157986JACOB MAX WOHLMAN                                        0501
A0101400150000010296892AGPULDO, MICHELE MARIE PALERMO                           0501
A0101405810072234574001*********                                                0503
A0101405810072344420003CHING, JENNIFER TIN                                      0502
A0101405810072373265003MANANSALA, JOYCEE CATARATA                               0502
A0601400520000004423294DALUSUNG, ROSEL B DBU VERSATILE                         10503
A0601400520000004423294VENTURES GENERAL MDSE                                   20500
A0101410560000001944043GOODNESS & MERCY MOVERS                                 10503
A0101410560000001944043SERVICES                                                20500
A0101400730000000833396CARBONELL, LEVINA IBALE                                  0503
A0101400730111063473217RIVERA, JHON GILBERT SERRANO                             0501
A0101400730111063473218JEFFREY PAMILARAN CAMILA                                 0501
A0101400730111063473220CEPEDA JR., RUBEN VINALON                                0501
A0101400730111203514001JOSEPHINE M. BILLONES                                    0502
B0101406040112011442003HILLTOP MEDICAL EQUIPMENT &                             11601
B0101406040112011442003SUPPLIES CORP.                                          21600
A0101413310000009641170BERBA, MARY CHRIS BALLADARES                             0501
A0101400440161372611001NOEL C. DALISAY OR ELOISHA                              10501
A0101400440161372611001P. DALISAY                                              20500
A0101400440161670356001MA. ESTELA CLEOFE                                        0502
A0101407270000007596549DIZON, DANIEL SAYO                                       0502
B0101407270162038101001BIRDS INTERNATIONAL, INC.                                1603
A0101407270162331908108WILLIAM VILORIA                                          0501
B0101401090171008004001ASSOCIATION OF CATHOLIC UNIVERSITIES OF                 11601
B0101401090171008004001THE PHILIPPINES                                         21600
A0101401090171033023002EXCELINK INSURANCE AGENCY                                0502
A0101401090171309681002FRANCIS MARIE A. PURINO                                 10501
A0101401090171309681002OR STEPHANIE C. ANDRES                                  20500
A0101401090000002358665SAMBUANG JR., RODRIGO INGENIERO                          0502
A0101401090171464641001GREGORIA DE LEON NUEVAS                                  0501
A0301400660000010221993**********                                               0502
A0101401380000000792081DE LUNA, MARIBEL MORADA                                  0501
A0101401380201491950002TABAJEN, MALVIN RIVERA                                   0501
A0101401380201559410001PADON, CLITA GADO                                        0503
A0101410720000006239723LADIA, APRIL IRIS RUPIDO                                 0501
A0101410720000007843425LADIA, APRIL IRIS RUPIDO                                 0504
A0101413600000008442615WILLIAM P. TAN                                           0502
B0101413600000002122372INTERNATIONAL ACADEMY OF AESTHETIC                      11602
B0101413600000002122372SCIENCES INC.                                           21600
B3101400160221037479001TABLERIA LA CONFIANZA CO., INC.                          1601
A1001400190231520766119CABANO, BERNADITH CATIWALAAN                             0501
B1001400350000007920876PEARSON, PILARCITA ROA AND  HEQUILAN,                   11602
B1001400350000007920876ELVIE CORTEZ                                            21600
A1001400350233528399003KO, JOSE NELSON AND                                     10502
A1001400350233528399003KO, CHARMAINE                                           20500
B1001400350233611366001MENDOZA, MARGARET LITONJUA OR DE                        11604
B1001400350233611366001MARCAIDA, JAN RO                                        21600
A1001400480000002300383GUINTO, JEAN MAGO OR GUINTO,                            10502
A1001400480000002300383NEMER SARDEA                                            20500
A1301400470000003270471MARIA CELINA DJ. SIMON                                   0502
A1301400470000003270573LESTER MARC G. BERGADO                                   0501
A1901400290000001975288FLORINDA MASAS BARTE                                     0502
A1901400290000001363086MARIELLE JOY T ARGONZA AND                              10501
A1901400290000001363086LOU VINCENT J RODRIGUEZ                                 20500
A1901400290261042311012LORETOSOL C. GALLARDO-CASTILLO                           0501
B1901400290000001363177WESTERN BATANGAS UROLOGY SPECIALISTS INC                 1602
A1901400290261244339001RUDY BARRETO MANGUIAT OR                                10503
A1901400290261244339001BENITO BARRETO MANGUIAT                                 20500
A1901400290261246773003PUREZA AFRICA KATIGBAK OR                               10501
A1901400290261246773003EDEL KATIGBAK CASTRO                                    20500
A1901400290261493025051DR. ERWIN PEREA MARALIT                                  0502
A1901400290000001926434DR.JULIETA ATIENZA-VILLANUEVA                            0505
A0101401670271745163001ONG, CHRISTOPHER ALLAN L. OR                            10501
A0101401670271745163001ONG, ANNA LISA C                                        20500
A0101406620000005394761******                                                   0501
B0101406620273018580001DIAMOND OFFICE FURNITURE INC.                            1604
A0101411110000005356710DELA PENA, MARILYN M.                                    0503
A0101411820000001356190EMMANUEL MARTIN V. NOLASCO                               0501
B0101400570281007188002KIMURA CHAVES ENTERPRISE, INC.                           1602
A0101400570000001681825TEODUCIO SENA DBU                                       10502
A0101400570000001681825GAARA ENTERPRISE                                        20500
A0101400570281187211001WILFREDO VILLAMIN OR                                    10502
A0101400570281187211001PRISCILLA VILLAM                                        20500
B2601400270000000020673JPGLOBAL VENTURES CORPORATION                            1603
A2001400290315733226002DAVID, FRANCISCO OR DANILO OR                           10504
A2001400290315733226002LINABOG, ALLAN                                          20500
A3401400280000000156621DELA CRUZ, LOIDA GARCIA                                  0502
B0101402350321041623001ICLA CHRISTIAN ACADEMY INC.                              1602
B0101405650322034381001FUDMAN CANTEEN                                           1605
A0101405650322172897001ORTILLO, JOEL OR                                        10503
A0101405650322172897001ORTILLO, JASMIN                                         20500
A0101405650322795084001PAULO B. VALDEZ OR                                      10501
A0101405650322795084001STEPHANEY ANN S.                                        20500
A0101409050000005698997FE ESPERANZA J. PINGKIAN                                 0501
A0101409050000002971442ADVINCULA, JESUS FERNANDEZ                               0502
B0101409050000011333194TUTAAN, JENNIFER ANDRADA JT                              1601
B0201400760374033207001W.T. CONSTRUCTION, INC.                                  1606
B0201400760374047477001MARRO MARKETING CORPORATION                              1601
A0201400760374478374015DACAYANA, ROSALIE SIBLA                                  0501
A0201400920000000991700LUZADA, JELSON ROMAS                                     0501
A0201400890376667775001BUYSER, MISAN CANAS OR BUYSER,                          10501
A0201400890376667775001RENZIE RAFAEL CA                                        20500
A0101411660000011611851PERATER, GILBERT ALIDO                                   0501
A0101408400000007264533DULNUAN, RHONA MARIE HAGUILING                           0502
B0101409180397041823001THE INFINITY CONDOMINIUM CORPORATION                     1603
B0101409210000006598998LOYOLA MEMORIAL CHAPELS AND CREMATO                      1601
A0301400820000010546391ALALONG, FILIBETH HERUELA                                0503
B5501400120410046322198DSO GLOBAL DISTRIBUTION, INC.                            1605
B2401400180411056764001RD PAWNSHOP, INC. - GENSAN REGION                        1603
B2401400180000011298947GLOBAL DYNAMIC STAR SECURITY AGENCY, INC                 1610
A2401400180411344858001CHUA, MAGDALENA SALAZAR                                  0501
A1201400150421369824001MARMELINA I. CAIDO OR                                   10502
A1201400150421369824001BENIE C. CAIDO                                          20500
A0101403030441063529002TAN, LAISA GENEVIEVE BELLO DBU                          10501
A0101403030441063529002MANILA PACIFIC TRAVEL & T                               20500
A0101403030441380539001**********                                               0503
A0101403320000011605702MICHELLE WILLA U. ORTIZ                                  0505
B0101403320471027450002********                                                 1601
A0101406330000006943526DELOS REYES, ESTRELLITA MONTERO                          0501
B0101406330000007845698LAMBERTO B. BOTICANO JR. AND                            11601
B0101406330000007845698NICOLE L. YUZON                                         21600
A0101406330000011105983LIBAY JR., CARMELITO MAGAT                               0501
A0101406330000011106008LANTO, PEDRO SILVA                                       0501
A0101406330472482447001MELVIN G. LAVINA OR HOWELL                              10501
A0101406330472482447001G. LAVINA                                               20500
B0501400170481020083003COLEGIO DE DAGUPAN, INC.                                 1610
A1901400320000011382751BACAL, NILEA DIMAANO                                     0501
A3801400170490782699001ROBERT SEE UY OR                                        10501
A3801400170490782699001CATHERINE CHUA UY                                       20500
A1401400110000000628580TIAGA, EMELIA MARTINEZ                                   0502
A1401400110000000628502MANALO, GLORIA GARCIA                                    0502
A1601400170000001360703BENJAMIN PO OR MONA PO OR                               10505
A1601400170000001360703ORLANDO ROCES                                           20500
B0101407430000001212991YEUNG MARINE PRODUCTS, INC.                              1602
A0101407430503410640003ANTONIO M. ALERIA                                        0502
A0101407430503736499001CECILIA R. NALAUNAN                                      0501
A0101405940512360728001ERWIN P. HERNANDEZ OR                                   10501
A0101405940512360728001AGNES T. HERNAND                                        20500
A0101408530000002980910CLETO, ANTHONY CRUZ                                      0502
A0101408530516670117001NONOY, MERLY JUMAMIL                                     0501
A0101411400000003311122MERCADO, JEFFERSON BONGCO                                0501
A0101411790000004531811GLAZER, DORON                                            0501
A0101411790000004537775GLAZER, CHERRYL MORANO                                   0501
A0101411790518055764224RADA, PIA ANGELA VERANO                                  0501
B0101403450521011653001SIERRA MERCANTILE                                        1601
B0101403450521011764001**********                                               1601
A0101403450521309909001MA. TERESA R. SURATOS                                    0501
A0101403610531068892001RACSA, ROLY MICHAEL R DBU MERAV                         10501
A0101403610531068892001ENTERPRISE                                              20500
A2201400250561478374062JENNIFER M. RAMOS                                       10501
A2201400250561478374062MEMBERS OF NATASHA                                      20500
A2201400250000004916092DE GUZMAN, FRANCES MANIALONG                             0501
A0101404260000006374423QUINTO, MARIE SOL MANALIGOD                              0501
B0101404260611044359158GREAT ARCHER SALES                                       1602
A0101404260611150840002WILLY OR ELIZABETH CHING                                 0501
A0101407690000010774473DIEL, AMOR DALAYAP                                       0502
A0101407690652478374131TARROQUIN, NORA - DEALERS OF                            10501
A0101407690652478374131SHOECAT, INC.                                           20500
A0101413440000006680891SAMONTE, JANYA CAREENA ADVINCUL                          0503
A0101413570000007373795GO, CHRISTIAN ROBERT VEZA                                0503
A0101413570656057648034GRACE ALMAZAN                                            0501
A0101413570656057648262LARICEL TABIEN                                           0501
B0101414120000004603398WEBLEND INC.                                             1601
A0101406590662590885001BARRIENTOS, MARITES ABRAHAM                              0502
B1301400210682039340001CDS MACHINE SHOP CORPORATION                             1605
B0101408240711027172001SHARMILA, INC.                                           1601
A2801400100712478374001BERNARD R. CORPUS                                        0503
A2801400230000005253492PENAS, MARY VIOLETTE PATERNO OR                         10501
A2801400230000005253492PENAS, GREGORIO CALISURA                                20500
A4101400260000009533622HERNANDEZ, LAARNI LIWAG                                  0501
A4101400260000006042991CRISTINA P. IGNACIO                                      0502
A4101400260812629092001ELLEN C. BUCAO                                           0502
A4101400550815047721001VILLANUEVA, ROSEMARIE MEDINA                             0501
A0101412340000003343815MARY GRACE M. IMPERIAL                                   0501
B0101412340000000031012MALATE CONSTRUCTION AND DEVELOPMENT                     11610
B0101412340000000031012CORPORATION                                             21600
B0101404840851013980002VIC IMPERIAL APPLIANCE CORP.                             1601
A0101404840000000683585ROXANNE P. AGUILLON                                      0501
A0101404840000003069925VALENCIA, JUDY D.                                        0503
A0101404840851478374115ERLINDA O. PRADO                                         0501
B0101404840851671030001QUANTUMMEDIA MARKETING INC                               1604
B0101406750852044723001AMGEN INSURANCE CENTRE                                   1601
A0101405070000010298354SINGSON, MARIKU CORRECHE                                 0501
A0101405070861202025001ROSALES, DOLORES G.                                      0502
A0101405070861382269001MAIQUEZ, JENNIFER PAMBID                                 0501
A0601400230000002650120CAO, MARIA THERESA TUBIG                                 0502
B0601400230000010299211RD PAWNSHOP, INCORPORATED                                1605
