A0101405490000004353133MARISSA E. ORO                                           0502
B0101405490000000019981H.E. & G. ENTERPRISES                                    1601
B0101405490000001935691WESTCROP LENDING CORPORATION                             1605
A0101409180000003780687FRANCHETTE BERNADETTE UMALI                              0501
A2001400290000000046433NG, CHRISTOPHER SO OR                                   10502
A2001400290000000046433NG, MAVICEL GRAC                                        20500
A2001400290315685595001TAGLE, FE MARIE DICEN                                    0503
A0101405490000003178410RAMOS, JOHN DARIUS NARCISO                               0504
A0101405490000000355593EMILY C. PALLON                                          0501
A0101400860011086656001**********                                               0503
B0101400860011242516001*********                                                1603
A0101400860011394716002**********                                               0502
A0101400860011774698001**********                                               0505
A0101400150000003218653MICHELLE D. YAP                                          0501
A0101400150061039917040CRUZ, REMEDIOS OR                                       10501
A0101400150061039917040CRUZ, EXEQUIEL                                          20500
B0101400150061047817001TOMITA INDUSTRIAL & MACHINERY INC.                       1602
B0101400150061047820001TOYAMA INC.                                              1602
A0101400150061337099186REYNALDO ZAPANTA                                         0502
A0101400150061387199001AGUILAR, LEAH MOLINYAWE                                  0501
A0101400730111386485162DINA F. ALIBIO                                           0503
A0101400730111478374020FERMANES, LILIA S                                        0501
A0101406040000001391960********                                                 0503
A0101401960000001844522***************                                          0501
A0101412630000001485172ARCILLA, FE INFANTE                                      0502
B0101401830141044673001CAMBRIA REALTY & DEVELOPMENT CORPORATION                 1603
B7201400170000003772981LADLAD, EMSA BANA                                        1601
A0101400440000004901451SEACHON, JOSEPH CLEMENTE                                 0501
A0101400440000000060346JANICE C. BILBAO                                         0502
B0101400440000003766967COOPERATIVE HEALTH MANAGEMENT FEDERATION                 1610
B0101400440000003766887STARCOM MANPOWER AND ALLIED SERVICE                      1605
A0101400440161452744001CRISTINA P. UMALI                                        0501
A0101410720653037434001INTELIASIA CREDIT INVESTIGATION                          0504
A0101410720653286682002MACAISA, MICHELLE ABADA                                  0502
A0101410720653402452001JONE P. LIU CHIANG OR                                   10501
A0101410720653402452001LEO VILLAVERT                                           20500
A1301400760000000050693MARLON P. MALLARI                                        0501
B0101406460272033798001WTA ARCHITECTURE AND DESIGN STUDIO                       1605
B0101406460000000020931GREATWALL MANPOWER & GENERAL                            11602
B0101406460000000020931SERVICES INC.                                           21600
A0101400570281186601002DR. JOSE PEPITO AMORES                                   0502
A0101400570281391563001CASTRO, MARIA PAZ APACIBLE                               0501
A0101411240000002332485CHUA, ALEXANDER YU                                       0501
A2601400270000002677569DEXTER C. DUMRIQUE                                       0501
B1101400120313036491001AQUALINE CONSTRUCTION                                    1620
A0101402350000002310770SIAPUATCO, VICENTE TULIO                                 0502
B0101402350321041173001GO TEC INTERNATIONAL BUSINESS SCHOOL,                   11602
B0101402350321041173001INC.                                                    21600
A0101402350321708802001ALMAROSE C. VILLAPANDO                                   0501
A0101405650000000080117*******                                                  0501
B0101409050000000258582BITUMEN GLOBAL ALLIANZ INC.                              1603
B0101409050000000022562ULTRAPAVE DEVELOPMENT CORPORATION                        1602
B0101402930381017086002HEALTH GALLERY INC.                                      1605
B0101402930381022284001INVESTORS ASSURANCE CORPORATION                          1601
A0101402930381325163001SUSAN D. CORNEJO                                         0501
A0101408370382042666001TMC DEPARTMENT OF ORTHOPEDICS                            0501
A0101408790000000579357MA. RINA S. VILLARIZA                                    0502
B0101408790000002659129SUNFISH ASIA ENERGY SOLUTIONS INC.                       1603
A0101411660000005238477LUCAS, MARIA ROSELLE                                     0503
A0101408950000000045963SEDIGO, SIMON VICTOR ADVIENTO                            0501
A0101408950000004512172DE VEYRA, ELSON PETER BRANDES                           10501
A0101408950000004512172OR AENLLE, FATIMA VIDA P.                               20500
A0101408950396563723001CELLONA, CLARISSA VILLARAMA                              0503
A0101409180000003310243CARILLO, VIEL MERCK MINOSA                               0501
B2401400180000000073710MABUHAYONE CORPORATION                                   1602
A2401400180411432546001LIM, ROBERT LIM OR LIM, GINA                            10510
A2401400180411432546001NAZARENO                                                20500
A2401400180411478374020MORI, LYDIA                                              0501
B1201400150421496291001LIQUETE, DOLORES SAGUID OR LIQUETE,                     11602
B1201400150421496291001LEONARDO                                                21600
A0101403030441029489001**********                                               0506
A0101403030441241013001**********                                               0503
B0101412760000000031990PRIVE PROPERTIES DEVELOPMENT INC.                        1601
A1401400110492221180002SIA, ERWIN THOMAS C.                                     0506
A1401400110492493108001DEQUITO, BERNABE VILLANUEVA                              0501
A0101407430503036416001JUPITER'S BUTCHER SHOP                                   0505
B0101403580511027603001K.S.T. PROPERTIES, INC.                                  1610
B0101408530000001275172PHILIPPINE BRITISH ASSURANCE CO., INC                    1615
A0101408530000001268639LLANES, JOVENCITO DE VERA                                0502
A0101411790000000005381********                                                 0503
B0101403450521011872001**********                                               1601
A0101403450521239801001CHARLIE S. TAN &/OR                                     10505
A0101403450521239801001MYRABELLE C. TAN                                        20500
A0101403450521324412001**********                                               0502
A0101403610531219572003BARRON, DR. JAIME ALBERTO                                0502
B0101404130601042675002IPRUDENTIAL STEVEDORING AND PORT                        11605
B0101404130601042675002SERVICES INC                                            21600
A0101404130601354508001LOLITA M. HODREAL OR                                    10505
A0101404130601354508001JOSEPH M. HODREAL JR                                    20500
B0101407720602006018001HEALTH LAB AND MEDICAL SERVICES, INC.                    1610
A0101407720602086996001NICHOLOFF JR., THEODORE JAMES R                          0501
A0101407720602271723138SIERRA ROMA HERNANDEZ                                    0502
B0101404260611027402002ENTRUSTED CORP                                           1605
A0101404260611478374077LUCIA CAPILITAN                                          0501
A0101409920000000998605ECHEVARRIA, DBU JOHN CARL ENTER                          0501
A0101409920650478374022ECHEVARRIA, MELANIE ESCOTO                               0501
A1301400340683417734001VILLACERAN, LEONARDO FORROSUELO                          0502
A1301400500000003070173MIRANDA, LOURDES BARROZO                                 0501
B1301400500684058385001EVERBEST MANPOWER GENERAL SERVICES                       1601
A0101408240711219571001MERCEDES M. OLIVER                                       0502
A0101408240711427627002********                                                 0502
A0101408240711478374009MARIVIC C. FLORA                                         0501
A0101408240711490981001MILLS, AMPARO OR VICENTE JR.                             0501
A0101408240711494310001SUAREZ, MANUEL OR MARIA ROSANNA                          0502
A0101408240711777513001PRATS, MARIA MARGARITA BARRIOS                           0501
A4101400390813042793001KING BHATS DRY GOODS                                     0503
A4101400550815045531001JR-RK'S PIZZERIA                                         0501
A4101400550815478374008LORELYN C. PARCIA                                        0502
A0101412340000003342823CLARK M. ELIGUE                                          0501
A0101404840000003409903ADDUN, JOCELYN BRITANICO                                 0502
A0101404840000000122603JASON A. SESPENE                                         0501
A0101404840851478374179SALVADOR R. MANUEL                                       0505
A0101404840851656725001JULE ROSALES FUNE                                        0502
B0101406750852019930001BUSINESS SUPPORT AND TECHNOLOGY                         11601
B0101406750852019930001CORPORATION                                             21600
A0101406750852376030001VILMA REGLOS MAALA                                       0501
B0101405070861046009001SKYRISE TRAVEL & TOURS                                   1601
B0601400230891030219001ALPHA SIERRA INDUSTRIAL SOLUTION CORP.                  11602
B0601400230891030219001(ASISCO)                                                21600
B1301400890012402000559**********                                               2002
