B0101405810072361051003**********                                               1601
A1301400500000003070139SUGAR DADDY MARKETING                                    0502
A1101400120000000652620GO, COCAINE YOUNG OR GO,                                10502
A1101400120000000652620NICHOLAS JASON FUENTES                                  20500
A0501400170481253455001NORMELITO QUIMO OR IRENE QUIMO                           0502
B0501400170481821200608**********                                               2001
A0101403610000002347231MERCADO, ALMA BERROYA                                    0501
A0101400600071684249001******                                                   0503
B0101405810072011448001C.P.P.C CONSUMER PACKAGING PRODUCT CORP.                 1603
B0101405810072020925003DW PLASTIC CORP.                                         1602
B0101405810072029570001PLASTIC CONSUMER CORPORATION                             1602
B0101405810000000016822VANDA PAPER PRODUCT ENTERPRISES COR                      1604
A0101405810000000016559CHUA, HEMAN LAO                                          0501
A0101405810072387220001**********                                               0501
A0101405810072545795001**********                                               0501
A0601400100081022019001CLARK HOUSE OF WINE & GEN MDSE.                         10501
A0601400100081022019001BY: CSC                                                 20500
A0601400100081040294001MOIKAI INDUSTRIAL SUPPLIES AND                          10504
A0601400100081040294001AUTOMATION SERVI                                        20500
A0601400100081251783001ANTONIO, ADELA L.                                        0501
A0601400100081251939002ELIZARDO OR WILMA MARTINEZ                               0502
A0601400100081382865005REYES, LIBERATO OR GLORIA                                0501
A0601400100081467712001JESUSA VARGAS DYCHIOCO                                   0502
A0601400520000005943440ENGCO, LEAH DOMINGO OR ENGCO,                           10502
A0601400520000005943440GREGORIO SUAYAN                                         20500
A0101406040000008915482LIM, SHEAN ROZEN                                         0502
A0101406040000000096811********                                                 0501
A0101406040112094295001********                                                 0501
A0101412630000009425101DAVID, MICHAEL CABER                                     0502
B0101407270162037305001MICROGOLD INFORMATION SOLUTION AND                      11610
B0101407270162037305001PRODUCTS, INC.                                          21600
A0101407270000002334710DELOS REYES, EDMUND IBE                                  0501
A0101401090000005320530AGUILAR, CARLOS ANGELO DAVID                             0501
A0101401090171196120003MERCY LEE-JATICO OR                                     10502
A0101401090171196120003MATTHEW STEPHEN                                         20500
A0101401090171271520001CRISTINO A. CARBONELL                                    0502
A0101401090171358689001MA. ELENA &/OR CESAR RAMIREZ                             0502
A0101401090171448116002SYLVIA BERNARTE-ALS OR                                  10501
A0101401090171448116002ANDREA MARIE BERNALES                                   20500
A0301400660194606143002ANGCOS, ROEL ONGCOY                                      0502
A0101410720653505147001****                                                     0501
A3001400130000008916190MONTERO, ALDRIN LIGUEZ                                   0501
A3001400130230478374007ABADILLA, JOCELYN MARIE RAVELO                           0501
B1001400190231064343001NORTH MIN. YAN-YAN MARKETING CORP.                       1605
A1001400190231520766017RABANES, ELECTA CAMPION                                  0501
A1001400350233704243001QUEJA, QUERITESS QUILALA                                 0502
B1001400480000004097234ONAHON, DANIEL BARTH V DBU GREAT FIRST                  11601
B1001400480000004097234TRAVEL AND TOURS                                        21600
A1301400760000002346027MELANIE M. FRANCISCO                                     0502
B1301400760000000050740TILAH CORPORATION                                        1606
A0101401670271186305002ROBERTO OR AUDREY OR CZARINA                            10503
A0101401670271186305002JOANNE CRISOLOGO                                        20500
A0101401670271338381001MA. ANNALIZA A. BARTOLOME OR                            10501
A0101401670271338381001DINO ANTONIO BAR                                        20500
A0101401670000000237676MAGTOTO, CHRISTIAN ALLAN L.                              0501
A0101406460272289071002********                                                 0501
A0101406620000004926030CO, J DBU MATIMPRO SALES                                 0501
A0101411110000001036811PEARL JOY U. BANGAYAN OR                                10501
A0101411110000001036811JULIET U. BANGAYAN                                      20500
A0101400570281618936001MEJILLA, BERNADINE MIRANDA                               0501
A2601400270000009497863ROCHELLE ANNE C. LOPEZ OR MARK                          10502
A2601400270000009497863ANTHONY C. CABACCAN                                     20500
A0801400160311265769002COLADA, JANETTE GARIN                                    0503
A1101400120000001547520TAN, MELVIN NATHANIEL ANDRADE                            0502
A1101400120000003595911TUMAMBING, MARLON AGUIRRE                                0502
A6601400120314646431001DUBONGCO JR., ARTURO OR                                 10503
A6601400120314646431001DUBONGCO, ARLENE                                        20500
A3401400280000002323451PETER RANDY G. DELA CRUZ OR                             10501
A3401400280000002323451CARINA C. DELA CRUZ                                     20500
B0101402510341030386001OLIAND HAUTE COUTURE, INC.                               1602
A0101409050000010609708VANOUS, MIROSLAV NMN                                     0501
A0101409050000010609760MUNOZ, CARLOS ELVERT VERRA                               0501
A0101409050000010609822STEFAN, GRANT PETER                                      0501
A0101409050000010609931LEE, CHI LIN TONY NMN                                    0501
A0101409050000010610003YU, YEN CHENG NMN                                        0501
A0101409050000010610054LAWAS, RONALDO ANGELES                                   0501
A0101409050000010610098PANGILINAN, MARJORIE AQUINO                              0501
A0101409050000010610145PYKE, MICHAEL SEAN                                       0502
A0101409050000010610178WALLS SMITH, ANTHONY AARON                               0502
B0201400760374036795001********                                                 1605
B0201400760000001612971PDY METAL RECYCLING CORPORATION                          1605
A0201400920000000991722MORILES, GRACIANO MELGAR                                 0501
A0201400920000000048031FMC CATERING SERVICES                                    0502
A0201400890000007877443**************                                           0501
A0201401020000000056233BIG ATIN TRADING                                         0505
B0101402930381009107001PHILIPPINE PSYCHIATRIC                                  11610
B0101402930381009107001ASSOCIATION INC.                                        21600
A0101408370382314711001DR. CRISTINA TERESA C. SAMONTE                           0501
A0101408370382336346001DR. MA. FAIDA R. REYES                                   0502
A0101402770391211961001ANTONIO V. PRADO                                         0501
A0101402770391326383002YANZON, MICHELLE BALAORO                                 0501
A0101402770391476396002RICHARD A. SARMIENTO                                     0502
A0101405490000005566236CONTI, MA. RIZA AMADA                                    0502
A0101405490392172250001ERLINDA R. HABANA                                        0501
A0101405490392298552043BETTY R. ARENA                                           0502
A0101408400000000077923LUNASIN, FRENZY CORONADO                                 0501
A0101408400000001952770MERIAN B BUERE                                           0501
A0101408950396567114001CESAR JOSEPH CURAMENG GLORIA                             0501
B0101409180397062516001PHYSIXARE ADTEK SOLUTIONS, INC                           1601
A0301400820000004073341SUSAN MELCHOR                                            0501
B5501400120000006976676FABIE, MEL JOSE CRISOSTOMO DBU BFE                       1601
A0901400220000000425045LOZADA, ELIZABETH GO                                     0501
A0101403030000010538775SYLING, BENEDICT PATRICK SO                             10501
A0101403030000010538775OR SYLING, BILLIE CHING                                 20500
A0101403030000010602089**********                                               0501
A0101403030441240945001**********                                               0502
A0101406330000000011861SOFIA D. TUNDAG                                          0504
A0101406330472370108002MA. VICTORIA L. ESTRELLA                                 0502
A0101406330472372718001PRISCILA BADELLES                                        0502
A0101406330472691386001EDILBERT HOMO GERONIMO                                   0501
A1901400160000000243661FRANCIS VISAYA VILLAPANDO                                0501
A1901400160491494343001RAINIER C UNTALAN OR                                    10504
A1901400160491494343001RELYN M UNTALAN                                         20500
A1401400110000001806873********                                                 0501
B0101407430503023639001LAMBERT WILLIAMS LOGISTICS, INC.                         1610
A0101405940000002268653BANIEL, BEN FABALE                                       0502
B0101408530516035673001FERROTECH STEEL CORPORATION                              1608
A0101411790000010619844DIMACULANGAN, MARK IAN ALDEA                             0501
B0101403450000008380763**********                                               1605
A0101404130601288502004ODELIA PALMA OR RENATO R. PALMA                          0501
A0101407720602396596001DR. REGINA MACALINTAL-CANLAS                            10505
A0101407720602396596001OR DR. MANUEL CANLAS                                    20500
A0101407720602401487001MAE C. SYKI-YOUNG, MD                                    0504
A0101407720602415232033ROSEMARIE C. ONG                                         0501
A0101404260611150837001EMILIANO OR MARIETTA REYES                               0503
A0101409890000006812860GAJUDO, JAY VALLEDO                                      0502
A0101413440000002125315DOMINGUEZ, DARWIN VITAL                                  0502
A0101413570656057648286AMELIA VILLAMOR                                          0502
A0101410300000007614219MELCHOR, GISELA MILLAR                                   0501
A0101410300000007614048BALABAGAN, MARICEL CABUG                                 0501
A1301400210000009982212GUAMOS, RODEL ALVAREZ                                    0503
A1301400340000000926938MOLINA, REALYN COSTO                                     0502
A1301400340683282868001DR. JUAN FRANCO TORDESILLAS OR                          10502
A1301400340683282868001DR. ROWENA TORDESILLAS                                  20500
A1301400340683478374051MARABINI N. CANTOR                                       0501
A1301400340683564481001REMO, NILO AVENDANO                                      0501
A1301400500000007193800MA. CRISTINA CRUZ OR                                    10501
A1301400500000007193800J. ADRIAN CRUZ                                          20500
B0101408240711028488001INTAS DESTINATION MANAGEMENT INC.                        1605
A0101408240711384215002RHODA DELOS ANGELES                                      0501
A0101408240711453117001MICHAEL RICHARD RAMIREZ                                  0501
A0101408240711605454001**********                                               0501
A2801400100712311102001CHARINA N. HIPOLITO                                      0501
A2801400100712701754001DALIT, MADONNA VERSOZA                                   0501
A4101400260812643003001ROCILLO, EDWIN AURE                                      0502
A0101404840000000122658MARIFE DE CASTRO                                         0501
B0101406750000000090997PAPERS & PIGMENTS PRINTING PRESS CO                      1604
A0101406750852292958001VARONA, ALICIA PEREZ                                     0501
A0101405070861197522001NOLIE HANS OR BENJAMIN M. LIM                            0506
A0601400230000003015823ALURA, JIMMY SUENO                                      10502
A0601400230000003015823OR ALURA, MERLE                                         20500
