B0101406590662821100608**********                                               2003
A0101400440000008201283JAMES E. PACHECO                                         0501
A0101400440161478374018MA. DELIA P. FERMANTE                                    0501
A0101400440161478374021DOROTHY D. SANICO                                        0501
A4101400260812299913002CAMPOS, FILOMENA FORTICH                                 0501
A0101400440000002034811LUZANDE JR., BIBIANO ALINDOGAN                           0502
A0101400440161029925001VESPER INSURANCE ADJUSTERS                               0503
A0101400440000006679692ARLENE CABRERA                                           0501
A0101400440161478374008MARY FE I. REDONDO                                       0501
A0101404260000010023540QUINTANA, ROBERT REYES                                   0501
A4101400260000003679943TAN, ANGELINA                                            0501
A0101401250000007390254GOLDEN TIGER FILMS                                       0502
A0101411370000003294922MEMBERS OF NATASHA, SHOECAT INC                         10502
A0101411370000003294922GARROTE, MARILYN C.                                     20500
A0101400150000003197620MARTINEZ, MARIE CAROLYN DORONIO                          0501
B0101400150061010833001VELCA TRAVEL & TOURS, INC.                               1602
B0101400150061029149001ASIAN PLAZA INC.                                         1601
B0101400150061030812002PHINMA CORPORATION                                       1601
A0101400150000005015650AQUINO, CELESTE DIVINA ANGELES                           0502
A0101400150061430140001**********                                               0501
B0101400600071328360002**********                                               1601
A0101410850000009034582UY, ROWENA RUBIDO                                        0501
A0101410850109066227001APAN, NICANOR J DBU ERLNICE                             10501
A0101410850109066227001CARGO SERVICES                                          20500
A0101400730000005317135NADALA, DANIEL CAPON                                     0501
A0101401960000001844613**********                                               0502
B0101401830000000033638CARITAS SALVE CREDIT COOPERATIVE                        11604
B0101401830000000033638(MANDALUYONG)008                                        21600
B7201400170000003773728THE ROMAN CATHOLIC BISHOP OF                            11601
B7201400170000003773728PAGADIAN, INC.                                          21600
B7201400170000006487461FARMACIA JUANA                                           1602
A0101412920000005354616PAUNIL, MARLYN GRACE BEA                                 0501
B0101400440161007221001ILA EXPRESS HAULER                                       1602
A0101407270000008185622PAYUMO, MARY GRACE LIGON                                10501
A0101407270000008185622OR PAYUMO, TARA JULIUS                                  20500
A0101407270162460613001EDGARDO L. RUSTIA                                        0502
A0101401090171033023002EXCELINK INSURANCE AGENCY                                0502
A0101401090171196038001REBECCA A. CASTRO, M.D.                                  0504
B0301400660000003368490ARBICON, INC.                                            1602
A0301400660194421173001SOLOSOD, CHONA GABULE                                    0501
B0301400950000002115931DAVAO MARBLED FOOD                                       1605
A0101401380201559410001PADON, CLITA GADO                                        0502
A3101400160000010054803KEMPIS, LOURDES GABRIOLA AND                            10501
A3101400160000010054803KEMPIS, JESELLE GABRIOLA                                20500
A3101400450223206930002NAPOLEON ENRIQUEZ II OR                                 10501
A3101400450223206930002FLOR ENRIQUEZ                                           20500
B3101400870225065314001KALIOREXI CORP.                                          1601
A3101400870000005410020CONCEPCION, ROEL SACRAMENTO OR                          10501
A3101400870000005410020DE LA ROSA, JOSE GLEN Y.                                20500
A1001400190231478374128BONIFACIO, LIZA                                          0501
B1001400350233611366001**********                                               1604
A1001400480000005355966WEE, VERNA LIZARDO                                       0502
A0101406460272232218001MARIANO, NORMITA T.                                      0501
B0101408660274047925001CNT PROMO AND ADS SPECIALISTS, INC.                      1610
B0101400570281026341001PUBLIC SAFETY SAVINGS AND LOAN ASSOCIATI                 1605
A0101400570281186611001EMERITA R. DOMINGO                                       0501
A0101400570281519630001CARLOS, MARIA ARLENE DUMANDAN                            0502
A2601400270000007951177RAYMOND RUEL D. VALLE                                    0501
A1101400120000006186343JABINES, DYANN JAIME DBU LA                             10501
A1101400120000006186343BOTICA DYANN                                            20500
A6601400120314071890001MARTIRES, MYLA TURLA                                     0503
A6601400120314617868088LUCERO, SINCLAIRE A. OR MIRA R.                          0505
B3401400280000006790965JL PRIORITY LENDING CORPORATION                          1602
A3401400280000001723382BENLIRO, ALFIE TIANCHON                                  0501
A0101405650000000525831*********                                                0502
A0101405650000005284493LOPEZ, IMELDA MARCOSA LAUDE                              0502
A0101405650322321476001DE GUZMAN, MYRNA SARMIENTO OR                           10501
A0101405650322321476001DE GUZMAN, GAZEL                                        20500
A0101405650322321476001DE GUZMAN, MYRNA SARMIENTO OR                           10501
A0101405650322321476001DE GUZMAN, GAZEL                                        20500
A0101402510341081001001BALHAG, RAUL ESTOLE OR BALHAG,                          10501
A0101402510341081001001ROSALIE SANTOS                                          20500
A0101402060351217441009RONILO MATAS                                             0503
B0201400760000005016711PALERMO GRAND RENEWABLE ENERGY MANA                      1603
A0201400760374478374015DACAYANA, ROSALIE SIBLA                                  0501
A0101402930000007031290SIEMBRA, SHIRLEY HOPE DOYO                               0501
A0101408370382400439001DR.CORAZON JESUSA SERAFICA-DIAZ                          0501
A0101408370000005220039TUAZON, MA. CRISTINA SANTOS                              0502
A0101408370382550455001SIA, AMELITO ESGUERRA                                    0503
B0101411660000000032253DENNIS M PENA AND DIONISIO L MEDENILLA                  11601
B0101411660000000032253JR.                                                     21600
A0101402770391013439001JIREH'S CAR PAINT SHOP                                   0502
A0101402770391560307001LEONARD REYES OCAMPO                                     0501
B0101408950000004428659INTELLYTICS, INC.                                        1602
A0101408950396695350001ARANDIA, EDSEL FERNANDEZ                                 0501
A0101409180000005326603IBARDELOZA, ANNALYN SIABOC                               0502
A0301400820000007372821ACLAO, MARILOU G.                                        0502
A0301400820000003148605DENUNA, LYNETTE ANN B.                                   0501
A0301400820000007372963DUAY, LEAH S.                                            0505
A1201400150421301485002GO, ROLANDO DISTOR                                       0502
A0901400220000006214499OH, ROBERT SAAVEDRA                                      0503
A0901400220432731076001JAMANDRE, EMBE ARAGON                                    0501
A0101403030441239449002**********                                               0501
A0101412890000002747777SALIBA, JULIETA SALIGUMBA                                0502
B0101403320000000522325L.B.T AND SONS CO., INC                                  1601
B0101406330472044383001REPUBLIC AVENUE EXPRESS MINIMART                         1602
A0101406330000000162616LAND OF THE PROMISE TRUCKING                            10505
A0101406330000000162616SERVICES                                                20500
A0101406330472459699001NANCY G. HAMOR                                           0502
A0501400170481252361001LO, JOSEPH GUANZON OR                                   10503
A0501400170481252361001LO, RUBY                                                20500
A1901400160000007423301CAGUIMBAL, GIOVANNI INCIONG                              0502
A1601400170000000421292HENRY S. CHUA OR                                        10501
A1601400170000000421292NIDA C. CHUA                                            20500
B0701400260000000671090VAN TRI-SWORD CORPORATION                                1601
A0101407430503378430001DOUGLAS ARTHUR U. LIMTONG OR                            10502
A0101407430503378430001JANE R. LIMTONG                                         20500
A0101407430000002298188MIGUEL MANUEL S. DAVID                                   0505
A0101403580511327851001MARIETA G. DEL ROSARIO                                   0501
A0101408530000001268548MOY, MARIA LOURDES MOSSESGELD                            0501
A0101411790000006543342CHANDRA, FERDINAND                                       0501
A0101411790518705718003ABCEDE, JAY-ANNE SARIO                                   0501
B0101403450521011602002GOTHIC SALES, INC.                                       1601
A0101403450521240683001**********                                               0501
A0101403450000001769771SANTOS, EMMA CASTILLO                                    0501
B2201400250000007719977R & A FASTFRATE CORP.                                    1605
A2201400250561387191001BILLY ROY M. SANTOS                                      0501
A0101404130601327516001ARAGA, RACHIELLE VILLANUEVA                              0501
A0101407720000000245214LEORNA, IRENE CASUBUAN                                   0502
A0101404260611405033003GASCON, JENNIFER DEDEL                                   0506
A0101404260611478374121FLORDELIZA B. HUVALLA                                    0501
A0101404260000000532056REGINA C ALTO                                            0501
A0101409920000007952307VILLANUEVA, RALPH ALAIN MARTIN                           0501
A0101407690652031549001GOLDEN POWER BATTERY CENTER                              0505
A0101407690652045019001AXIS ROOF SERVICES                                       0502
A0101413440000002339528MACATLANG JR., RODRIGO C.                                0503
A0101414120000006864533BUCAS, JOVEN ILAO                                        0502
A0101414120000000875652PABLITO OR RONALD JOHN OR                               10503
A0101414120000000875652PRINCESS JOY OR                                         20500
A0101406590000005305117PAGULAYAN, ALFREDO OR RODRIGUEZ                         10501
A0101406590000005305117FILOMENA                                                20500
B0101406590000000905511MAINEVENT AND MARKETING CORP.                            1602
B1301400210000000023576LA CONSOLACION UNIVERSITY PHILIPPIN                      1615
A1301400340683361153001LICAROS JR, ALEJANDRO LAGPAO OR                         10502
A1301400340683361153001LICAROS, ELSA R.                                        20500
A1301400340683763698001MANUEL, MARIVIC LAGMAN                                   0501
A1301400500684589879001YULO III, ANTONIO P. OR                                 10505
A1301400500684589879001YULO , ANGELINA                                         20500
A1301400500684594780002CASTRO, RAYMUNDO OR                                     10502
A1301400500684594780002CASTRO, ROSEMARIE                                       20500
A1701400230693763026001SANCHEZ, REX GUILLERMO  OR                              10501
A1701400230693763026001MARLENE                                                 20500
B0101408240000000832791WOWA'S FAST FOODS INC.                                   1610
B2801400100712024577001PHILIPPINE COASTAL STORAGE AND                          11605
B2801400100712024577001PIPELINE CORP.                                          21600
A4101400260000006043403RAPISTA, JOHNNY APISTAR                                  0501
B4101400390813019416002STI COLLEGE-ROSARIO, CAVITE, INC.                        1602
A4101400390000003346103YABUT, ANNALIZA GAMBOA DBU AGY                          10501
A4101400390000003346103MANAGEMENT SERVI                                        20500
A4101400420814015061002AUTO AIRE CAR AIRCON SERVICE                             0502
A4101400420814453380001TOLENTINO, JONETT MISA                                   0501
A4101400550000000900321SAYAMAN, MARIEL VILLANUEVA                               0501
A0101412340000005566703MERENCILLA, RIANE ROXAS                                  0501
A0101412340000002900352GHIE M. ROMERO                                           0501
A0101404840851046725013MARY JANE A. DE GUIA                                     0501
A0101404840000005820446ERLINDA J. GONZALVO                                      0501
A0101404840851217637038MA.CORAZON M. MENDOZA                                    0501
A0601400230891627261001RAMOS, ANGELITA BAUTISTA                                 0503
