B0101408790383821100608**********                                               2005
B0101408790383821100608**********                                               2005
B0101408790383821100608**********                                               2005
B0101408790383821100608**********                                               2005
B0101408790383821100608**********                                               2005
A0101413440000002125428FADERANGA, L. DBU CAI MARK                              10502
A0101413440000002125428ENTERPRISE                                              20500
B0301400790195821100608**********                                               2002
A0101410720653343214002INOCENTES JR., OSCAR LLANES                              0501
B0101403580000000922883UXMNL INC.                                               1602
B0101411790000004808082PDB PROPERTIES, INC.                                     1605
B0101407720000006028166MEDGATE PHILIPPINES, INC.                                1602
A0101407720602379811001NOEL S. AYPA OR MA. CARMEN                              10503
A0101407720602379811001TERESA G. AYPA                                          20500
A0101407720602396606001DR. WILMA A. BALTAZAR OR                                10501
A0101407720602396606001DR. EDGAR BALTAZAR                                      20500
A0101401250021769158001VASQUEZ, ANTONIO GERVASIO                                0501
A0101411370000003548958CRUZ, CHRISTIAN VENDIVEL OR                             10501
A0101411370000003548958CRUZ, RACQUEL GO                                        20500
B0101400150061010736001SPCASTRO, INC.                                           1605
B0101400150061015622001BRYSON HOLDINGS, INC.                                    1601
A0101400150061039916160RAMIREZ, MA. ROSARIO OR                                 10501
A0101400150061039916160RAMIREZ, CASSIUS                                        20500
B0101400150061043459001MARSMAN ESTATE PLANTATION, INC.                          1601
B0101400150061045876001MD NABUNTURAN AGRI-VENTURES, INC.                        1601
B0101400150061045877001MD RIO VISTA AGRI-VENTURES, INC.                         1601
B0101400150061045878001MD DAVAO AGRI-VENTURES, INC.                             1601
B0101400150061045879001MD PANABO AGRI-VENTURES, INC.                            1601
B0101400150061045880001MD ISALON ORGANIC BANANA AGRI-VENTU                      1601
B0101400150000005015490MOUNTAIN PEAK FRESH PRODUCE, INC                         1601
B0101400150000004703428MARSMAN DRYSDALE AGRIBUSINESS HOLDI                      1601
A0101400150061236944067ANALIZA CASTRO-OBLENIDA                                  0501
A0101400150061292057002SISON, GIDEON GOCHIOCO                                   0501
A0101400600071233715002********                                                 0502
A0101400600000005943091CHERRY B. PANA                                           0501
A0101405810000001021172PUA, C DBU MCK SCHOOL & OFFICE                          10503
A0101405810000001021172SUPPLIES                                                20500
A0101405810072236433001NG, SHUK YU                                              0501
B0101405810072236433002NG, SHUK YU                                              1601
A0101405810072265481001PLAZA, LEONORA LIM                                       0505
A0101405810072295356001CO, JEANY                                                0501
A0601400520000004423294DALUSUNG, ROSEL B DBU VERSATILE                         10503
A0601400520000004423294VENTURES GENERAL                                        20500
A0101414090000004803623RELOVA, CHRISTIAN MABANTA                                0501
A0101410560000005836228**********                                               0501
A0101410560000005836079NANCY Y. OBLIGACION                                      0502
A0101410560000001290842PAGGAO, HONEYLET OTEYZA                                  0501
B0101400730111008593001TITAN TRAVEL & TOURS, INC.                               1602
A0101400730111418969001TORREFRANCA, DELIA MILAN                                 0501
A0101406040112561120001AGBANGLO, CECIL RAMOS                                    0501
A0101412630000010867399CRUZ, J ADRIAN ORTEGA JT                                 0501
B0101401830000000033638CARITAS SALVE CREDIT COOPERATIVE                        11604
B0101401830000000033638(MANDALUYONG)008                                        21600
A0101401830141206536001PEDRO S. FLORES OR                                      10505
A0101401830141206536001IRMA G. FLORES                                          20500
B0101412920000000276711KALAKAL FOOD CONCEPT INC.                                1601
A0101407270162458099001CHANDA F. ESPIRITU                                       0501
A0101401090171195768001CELIA DANGANAN-SAYO OR                                  10503
A0101401090171195768001ERNESTO NICOLAS                                         20500
A0101401090171196101002GREGORIO OR MARISSA DIZON                                0501
A0301400530193774589001CREDO, ARIEL S.                                          0501
A0301400660000000194461DELA CRUZ, ABIGAIL CONSTANTINO                           0502
A0301400660000008941033FERNANDEZ, GIL BREINARD SY OR                           10503
A0301400660000008941033REPONTE, RUBELYN RABOSA                                 20500
A0301400790000002301779ALVEZ, RUVELYN ESCUADRO                                  0505
A0301400790000005691990EMBALSADO JR., ALBERTO GEMPESAW                          0502
A0301400950000005706981**********                                               0502
B0101401380201042254001RISE AND SHINE REALTY INC.                               1605
B0101401380000003954450RASRI MARKETING, INC.                                    1605
A0101413020000003055370HOMENA, EDWIN SABAS RECTO JUANE                          0502
B0101410720653035012001GENERIC SAVES DRUGSTORE                                  1604
A0101410720653565189001VICTO, BERNARD KING QUIJANO                              0504
B3101400870225045529002CITISTORES INC.                                          1601
B1001400190231092020001RNT COLD BUILDER, INC.                                   1604
A1001400350000008698888GARCIA, LYNDIE MAE CASINO                                0502
A1001400350000007762538HERNANDEZ, HIYASMIN TAYLO                                0502
B1001400480000000133593DELUXE RANCH TRANSPORT CORPORATION                       1602
A1301400470252538611001LIWAYWAY LUCITA M. OGANIZA OR                           10501
A1301400470252538611001LEOPOLDO F. OGANIZA                                     20500
A1301400470000003270431CHRISTIAN VINCENT R. SALAZAR                             0501
A1901400290000000135231MARC MACUHA RECTO OR                                    10501
A1901400290000000135231VANESSA PANGILINAN RECTO                                20500
A1901400290261488341187BERNARDO S FONTANILLA                                    0501
A1901400290261488341188LOURDES D FONTANILLA                                     0501
A0101406460000002359908*******************                                      0502
A0101406460272770235001LOPEZ, SUSANNA LIM                                       0502
B0101406620273039952001VERSATECH INTERNATIONAL, INC.                            1602
B0101406620273040722001ARDENT NETWORKS INC.                                     1602
A0101412470000005380638DY, JACKSON KO                                           0502
A0101400570281188125001LUISITO O. LLIDO, M.D.                                   0501
A0101411240000000012033**********                                               0502
A2601400270000000561802DULCE T. SIQUIAN OR EGDONA M.                           10502
A2601400270000000561802MANANQUIL                                               20500
A0801400160000002287681PECAOCO, COZETTE JAMERLAN                                0501
B0801400160000000010220FAIRPOINT MARKETING CORPORATION                          1602
A3401400280000011150740DENOSTA, JUDY DEQUINA                                    0501
A2901400130000009071983FULGENCIO, CECELLE FRANCISCO                             0504
B0101405650322018011001MONTESSORI DE MANILA, INC.                               1602
A0101402510000007408815JUAN, DIANA GRACE CRUZ                                   0502
B0101402510341020281001CEU SCHOOL OF PHARMACY                                   1601
A0101402510341433983005********                                                 0505
A0101402510341433983008********                                                 0505
A0101402060351030241001ALEXANDRIA GAME FARM                                     0505
A0101402060351045373001FARMHAND ENTERPRISES                                     0505
A0101402060351211788002ROMUALDEZ, FRANCISCO C. OR                              10501
A0101402060351211788002ROMUALDEZ, ANNA                                         20500
A0101402060351445404001ACOSTA, REYNALDO DELA TORRE                              0501
A0101402930381208046001**********                                              10502
A0101402930381208046001**********                                              20500
A0101408370382460206001AVELINO, MARIA MAGDALENA SOYOSA                          0501
B0101402770391046279001LEGACY RENOVE INC.                                       1605
A0101405490000012359132ILAGAN, ARTHUR MADERAZO                                  0502
A0101408400394406707002TUASON, MICHELLE MARIE RIVERA                            0502
A0101408400394534911001GONZALES, DANILO RICAHUERTA                              0501
A0101409180000008700156CAUTON, ANNA KATRINA HERNANDEZ                           0501
A0101409180000003780090JACQUELINE P. GULAY                                      0502
A0101409180000003882224ROCERO, ANA JOY                                          0502
B0101409180000000036644THE TABLE GROUP, INC.                                    1610
A0101412210000000977380BLOMDAHL, ELEANOR PENA                                   0501
A0301400820000004746050TRINIDAD, QUEENIE MAE C.                                 0501
A1201400150421252782001NORMA AREVALO OR FILOTEO                                10510
A1201400150421252782001AREVALO                                                 20500
A0101403320000012323403LUISITO M. FLORES                                        0501
B0101403320471009043001ABCOR INDUSTRIAL CORPORATION                             1605
B0101403320471020319002LORD OF THE NATIONS, INC.                                1602
B0101403320471027702001SAINTS AND ANGELS REALTY CORPORATION                     1603
A0101403320471478374041DIANA DENNIS                                             0501
A0101410140000002307773DAWAL, FLORENCE JACINTO                                  0501
B0101407430503006854003CARGO DATA EXCHANGE CENTER, INC.                         1603
A0101407430000004687403********                                                 0505
A0101407430503181177002TERESA T. ALBARICO                                       0501
A0101407430000002298224VALIAO, REYNALDO SOLERO                                  0501
A0101407430503674542001********                                                 0505
B0101405940512033252001KROMINCO, INC.                                           1601
B0101405940512034259001CENTRAL BOOK STORE, INC.                                 1601
A0101405940512462757003TERESITA CUEVAS/HELEN JAVINAR/                          10503
A0101405940512462757003JOHN DEE FLORES                                         20500
A0101411790000012367254IGNACIO, ANNALYN BEJAR                                   0501
A0101411790000012366973PANG, LEI                                                0501
A0101411790518055815106RIANO, KRISTEL LILY RAMIREZ                              0501
B0101403450521239197001**********                                               1605
A0101403450521240915001**********                                               0503
A0101403450521465655001**********                                               0501
A2201400250561254555002MARILYN M. BALIGOD AND                                  10501
A2201400250561254555002MICHELLE M. NUNA                                        20500
A2201400250561308260001*****                                                    0501
A0101410690000001284486ONGCHAN, MANUEL CO                                       0501
B0101404130000000001321PARADIGM DEVELOPMENT CORPORATION OF                     11605
B0101404130000000001321THE PHILIPPINES                                         21600
A0101407720602163314003JOAQUINO, SALLY KING OR                                 10502
A0101407720602163314003JOAQUINO, JACQUELINE ANN                                20500
A0101407720602163314004JOAQUINO, SALLY KING OR                                 10502
A0101407720602163314004JOAQUINO, JACQUELINE ANN                                20500
A0101407720000001393324FORES, LEO BIENVENIDO MANUEL                             0503
B0101407720602569898001SHINES DERMTECH SOLUTIONS, CORP.                         1601
A0101407720602694030001CUCUECO, RACHELLE CLAUDIO                                0501
A0101412180000007360381TACDA, RETCHEL GALES                                     0501
A0101407690652020765001STARIAN MARKETING                                        0505
A0101407690652028378002HIGHER GROUND FOOD STATION                               0502
B0101407690652042938001SIGNWOOD HARDWARE & LUMBER SUPPLY                        1603
A0101407690000000913600MARQUI AUTO SUPPLY                                       0502
A0101413440000006680766ENCINAS, THERESE URBANO                                  0502
A0101413990657064294002ESPERA, RINALDI O. DBU BARREL                           10501
A0101413990657064294002SMOKER FOODS                                            20500
B0101406590662043139001HAVEN OF LEARNING TUTORIAL AND THERAPY                  11602
B0101406590662043139001CENTER CO.                                              21600
A0101406590662346608001ELAINE O. LOPEZ OR                                      10503
A0101406590662346608001CARMELO ELISEO Y                                        20500
B1301400210682009648001CHRIST'S COMMISSION FOUNDATION,                          1604
A1301400210682340751001WILLY & WILFRED GO & JANETTE                            10504
A1301400210682340751001ATENDIDO & WILLI                                        20500
A1301400340000002158432PEPANIO, JEFFREY CASTILLO                                0501
A0101408240000012189812ANDERSON, KEVIN JAMES                                    0505
A0101408240711396778001MA. FRANCESCA ROMANA OR                                 10501
A0101408240711396778001PHILIPPE SEYER                                          20500
A2801400100000005475254RAFOLS, ROCHIE TANGARO                                   0501
A2801400100000006279827KIM, MIJEONG                                             0501
B2801400100000006434966SM BLOOMING PHILS. INC.                                  1601
B4101400260000006043534MEZELJO BARN YARD FOOD CORP.                             1602
A4101400550000001332449GALVEZ, MAUREEN MARTIN                                   0501
A0101412340000009501053********                                                 0503
A0101404840000003410022CRUZ, BETHANY LAURON                                     0501
A0101406750000008644042SALAN, JOAN JUMAMOY                                      0501
A0601400230891370231002SAMSON, CLEOFE ROQUE                                     0501
A0601400230891705598001TALENS, CORAZON CALALANG                                 0501
