B0101408790383821100608**********                                               2010
B0101412180000001293130BLADESANDBOWS INC.                                       1605
A1101400120000003197011CHUA, THERESA ANG OR                                    10501
A1101400120000003197011CHUA, PETER JUSTIN ANG                                  20500
A1101400120000005608191CELSO, GORGIE C.                                         0501
B0101410300000000191564FITNESSCAPE CREATIVE STUDIO, INC.                        1603
A0101410300663790131001VALDEZ, JENNIFER ANN Z OR VALDE                         10502
A0101410300663790131001Z, PABLO BASILIO                                        20500
A0501400200000008992323PASOQUIN, HARRY DE GUZMAN OR                            10501
A0501400200000008992323ENGUITO, BERNADETTE L.                                  20500
A1101400120000006080833BALVERDE, MARY JANE LAGARDE                              0501
A1101400120000003981055NAPUTO, CHARLITA C.                                      0501
A0101408400394481765001BATALLA, ILUMINADA PAULINO                               0501
B0101410300000000191597STAR E GARDEN INC.                                       1602
A1301400500000008992436AQUINO, JULIUS H. & BALITA,                             10501
A1301400500000008992436ROWELL A. & ONG, BENEDICK                               20500
B1301400500000002063941GIANT LUMBER & HARDWARE CO.                              1602
A4101400260812478374005JENITA Z. PALLE                                          0502
B0101400860011023116001**********                                               1602
B0101400860011375200002**********                                               1603
A0101400860011402005002**********                                               0502
B0101400860011409046003**********                                               1601
B0101400860011412598001**********                                               1601
A0101400860011442261001**********                                               0503
A0101400860011517871001**********                                               0510
A0101400860011522691001**********                                               0505
A0101400860011534620001**********                                               0503
A0101400860011541134002**********                                               0502
A0101401250000000441052ONGSUECO, SYLVIA K.                                      0502
B0101400150000006432555ESTATEWINE INC.                                          1601
A0101400150061356288002FERNANDEZ, EDINA T OR                                   10502
A0101400150061356288002FERNANDEZ, VERNON KEITH                                 20500
A0101400600071457180001**********                                               0501
B0601400100081013321001BIO-TECH MARKETING CORPORATION                           1604
B0601400100081013322001LACTO B INCORPORATED                                     1604
B0601400100081256780001MICRO-B, INC.                                            1604
A0601400360000007539731ORONCE, RULEO MIRANDA DBU ROLLE                          0502
B0601400520000005943666EGG MASTER ASSOCIATION, INC.                             1602
A0601400520000001349617TIATCO, LIRNA PINEDA                                     0503
A0101413730000000144578**********                                               0501
A0101413730000000144716*********************                                    0501
A0101400730000002882295CRUZ, MARIA THERESA ALONZO                               0501
A0101400730111198710001FERNANDEZ, HENRY F. OR                                  10502
A0101400730111198710001FERNANDEZ, AMELI                                        20500
A0101400730111478374151MELANIE T. SIGUE                                         0501
B0101406040000000096633*********                                                1601
A0101413150000005319262*********                                                0501
A0101401830000002274353CUEVAS, ALFREDO SIDERIO                                  0502
A7201400170000003774298MADARANG, PRECY JANE YBANEZ                              0502
B5001400170000000169868TIU, JONATHAN ALABASTRO AND TIU, LAARNI                 11603
B5001400170000000169868ALABASTRO                                               21600
A0101400440000002035052MAGNO N. BASIUANG                                        0501
B0101400440000000337922COMMANDER SECURITY TRAINING CENTER, INC.                 1610
A0101400440161478374189CORAZON C. BOLA                                          0501
A0101407270000008989177JENNY D. RIVERO                                          0501
A0101407270000008551013MONTEMAYOR, JESUS RIVERA                                 0502
B0301400530000008044353PARADO, TJ JOSSIE FERNANDEZ DBU                          1605
B0301400530000000025378D' UNIBUENAS CORPORATION                                 1603
A0301400660000003406215SUNRISE VIEW BEACH RESORT                                0501
A0101413600000002122241JOSE FRANCISCO CABOCHAN DBU                             10502
A0101413600000002122241J. CABOCHAN LAW OFFICE                                  20500
A3101400450223310377002PENALOZA, RAINIER OR ROMA                                0501
A3101400450223455809001LANCION, AUREA OR JERIC                                  0501
A3101400870000001712163TUAZON, ALLAN SANTOS OR TUAZON                          10502
A3101400870000001712163EDNA BLANCA ALDIANO                                     20500
A3001400130000005708545FAYTONE, MARIA FATIMA MAGNO                              0502
B1001400190000000124810GOCHUICO, PETER LIM                                      1603
A1001400190231478374075BARRON, LORNA                                            0502
A1001400190231478374116ESTRELLITA E. BERMUDEZ                                   0502
A1001400190231529489001GO, JUANITA QUIMBO                                       0501
A1301400470252542724001EMMANUEL S. PAYNOR OR                                   10502
A1301400470252542724001MA. CRISTINA SALAS-PAYNOR                               20500
A1901400290000004366074ALELI CHOI CAGAS                                         0501
A1901400290000008850591JUDYLYN CALDE AMBAL                                      0501
A1901400290261244339001RUDY BARRETO MANGUIAT OR                                10503
A1901400290261244339001BENITO BARRETO MANGUIAT                                 20500
A1901400290261488341186DR. ANSBERT SALINDONG CO                                 0501
A1901400290261499267001ALBERTO GUEVARRA MENDOZA JR.                             0501
A1901400290261560789001MA. DONNA LANZO MARANON                                  0501
A1901400290261585775001LITA CUETO MENDOZA OR DORIS                             10502
A1901400290261585775001MARIE MENDOZA MEDINA                                    20500
B0101401670271017449001HK HARDWARE SUPPLIER CO., INC.                           1601
A0101401670271333076001BENJAMIN C. VICENTE                                      0502
A0101406460272466369001COSTALES, FE MYBELLENE AGUILAR                          10501
A0101406460272466369001OR COSTALES, ART                                        20500
B0101406620273031145001KOHL INDUSTRIES CORPORATION                              1603
A0101406620273519559001EDUARTE, LOLITA CADAPAN                                  0502
A0101406620273524437001REAZON, JENNIFER MEDRANO                                 0501
A0101406620273535100001LEGASPI, KAREN GARCIA                                    0501
A2601400270000002677376KI WATER REFILLING STATION &                            10502
A2601400270000002677376TECHNOLOGY SYSTEM                                       20500
A1101400120000001920623VELARDE, EDUARDO GO OR                                  10505
A1101400120000001920623VELARDE, ELIZABETH YU                                   20500
A1101400120000003197197TIU, IAN JUN ARANEZ                                      0501
A1101400120000003022544PULMA, MARY ANN G. DBU GASPANG-                         10501
A1101400120000003022544AGUILLON BIRTHING CLINIC                                20500
A1101400120000003981102EVARDONE IV, REYNALIS ORGAS                              0501
A1101400120313478374071ZACARIAS, MARIA FE C.                                    0501
A1101400120313478374103ENVERZO, NARISSA LEONORA G.                              0501
A1101400120000000652697CASTILLOTE, GRACITA G.                                   0501
B3401400280000004959173MENN LOGISTICS SERVICES INC.                             1602
A3401400280318478374009MIRAFLOR A. DELOS SANTOS                                 0501
A0101405650000006893607VILLANUEVA, MICHAEL DIZON                                0502
A0101405650000000448362WALTENSPIEL, JASON CORTEZ                                0504
A0101402510341527844001HONDA, MARITES CUENTO                                    0501
A0101402060351217446001MERLYN H. MIRANDA &/OR                                  10502
A0101402060351217446001ELISEO MIRANDA                                          20500
A0101402060351324318001EUN SOO PARK                                             0502
A0101409050000005292888TARA DUENAS                                              0501
A0101409050352734686001LYNDON J. TABLANTE OR                                   10502
A0101409050352734686001KIMBERLY TABLANT                                        20500
A0201400760374038501001RENS MARINE SERVICES BY                                 10501
A0201400760374038501001PRIMO P. PAULIN                                         20500
A0201400760374260158002PINEDA, ALFREDO B.                                       0501
A0201400760374660084001DALUMPINES,SHECKY MAE VILLAVERT                          0501
A0201401020000000055996MAGALLANES, ALPHA ALICANTE                               0501
B0201401020000005109900CEBU DULCINEA HOTEL AND SUITES INC.                      1601
A0101408370382205180001DR. JAIME  S. SAMANIEGO                                  0505
A0101408370382391120001DR. SALVADOR M. EUSTAQUIO                                0502
A0101408370382489193001DR. MICHAEL EDMOND S. DAZO                              10502
A0101408370382489193001OR ARLENE S. DAZO                                       20500
A0101402770000006642806CARABUENA, ALONA DUBLIN                                  0502
A0101402770000007413790CRUZ, DAISY ARRAZ                                        0501
B0101402770391009425001JELSON'S ENTERPRISE CORP.                                1603
B0101405490000006214273BUENAVENTURA, EDVIN ESTRELLA                             1601
A0101405490000002253112KASAN, JOSEPHINE ABRAHAM                                 0505
A0101405490392535348001ANNE KRISTINE P. OR MICHAEL                             10501
A0101405490392535348001P. SEBASTIAN                                            20500
A0101405490000000355719CRISTOBAL, IMMANUEL C. OR                               10501
A0101405490000000355719CRISTINA C. OR L                                        20500
A0101405490000002140950CASTRO, CITA BRUNA                                       0502
B0101408400394032168001ALQUIROS FOOD CORPORATION                                1602
A0101408400000001035421ANGELICA BIRTHING HOME AND                              10501
A0101408400000001035421PEDIATRIC PRIMAR                                        20500
A0101408400394162521002SEE, ROY STEVENSON PUA                                   0501
A0101408400394506485001EBAJAN, ALEX BERGADO                                    10501
A0101408400394506485001OR EBAJAN, MERCE                                        20500
A0101409210000002279018AGONCILLO, CONSUELO FLORES                               0501
B0101412210399013839001DAVAO LIGHT & POWER CO. INC.                             1610
A0301400820000000316641PLAZOS, LOLITA V.                                        0501
B5501400120410041534001NOTRE DAME OF NEW ILOILO, INC.                           1602
A5501400120000006976596FIGUEROA, RONELLYN BILLONES DBU                          0520
A5501400120410283898002GARCIA, JOSIE JAVELLANA                                  0501
A5501400120410283898006GARCIA, JOSIE JAVELLANA                                  0501
A5501400120000002019125GARCIA, JOSIE JAVELLANA                                  0502
A5501400120000006976790CHIU, VALENTIN SIRA                                      0501
A1201400150421685972001JUCUTAN, HEIDI BONDAD OR                                10502
A1201400150421685972001JUCUTAN, ROMMEL                                         20500
A0901400220000000887987MUESCO, MAYBELLENE JOY ANDOG                             0501
A0101412890000005913271ZUBIA, PERLA BARANGAN                                    0501
A0101412890000007095298VOCES, NORA RUBIO                                        0502
A0101412890470511412001TORRES, NELSON DOGILLO                                   0501
A0101403320471627457001CABIAS, ROMER CALUBAD                                    0501
A0101410140475728876001MERCADO, DAMASO P. OR                                   10502
A0101410140475728876001MERCADO, CARMELI                                        20500
A0101412760000000767762MERCADO, LORNA DIMAFELIX                                 0501
B1401400110492046339002******                                                   1620
A1401400110492047717001KKT CONST. & SUPPLY                                      0501
A1401400110492064455001PONTIOSO, A DBU ASTROPEX                                10501
A1401400110492064455001BUILDERS AND SUPPLY                                     20500
A1401400110492521817001ZARSADIAS, YBETT TINAMISAN                               0502
A0701400260000003259421SISON III, ANTHONY FRANCIS ABRE                          0501
B0101407430000001213261ROMINE LASERJET TONER CORPORATION                        1602
A0101407430503181551001DICKSON R. ESCOLAR                                      10501
A0101407430503181551001OR MARY ANN R. ESCOLAR                                  20500
B0101403580511015363083MILLENNIUM ERECTORS CORPORATION                          1610
A0101403580000000016082SWEET BELLA DESSERTS                                     0510
A0101403580511152455002CORINNA Y. CASTANEDA                                     0505
A0101411790000006499627CHAVEZ, MARIA RUBY ANN COMIA                             0502
B0101411790000004808082PDB PROPERTIES, INC.                                     1603
A0101403450000001638075ACUNA, TERESITA CABRERA                                  0504
B0101403450000002975666***********                                              1605
A0101403610000008998123CASTILLO, CHRISGENE ADRIANO                              0501
A0101403610000008998156DOLON, EDITA TAMSI                                       0501
A2201400250561344240001UY, JESUS ANG                                            0501
B0101404130601045407001MULTISOFTWARE ASIA, INC.                                 1602
A0101404130601450094003LORQUEL PASCUAL OR ANNIE                                10502
A0101404130601450094003PASCUAL                                                 20500
A0101404130601450094004PASCUAL, LORQUEL OR PASCUAL,                            10501
A0101404130601450094004ANNIE S.                                                20500
A0101404130601451089001SANTOS, JOSEFINA R.                                      0501
B0101404130601555406001TALIFUEGO PROPERTIES, INC.                               1601
A0101407720000004664591ESPERA, RINALDI ODOVER                                   0501
A0101404260611478374085ROSALINA SUMILE                                          0501
A0101409920000001539522CEDENO, NOEMIE DEDICATORIA                               0502
A0101407690000001919902OSTREA, MARILOU DBU M. ZOILO                            10502
A0101407690000001919902TRADING                                                 20500
A0101407690000005198132BERMASE, ELIZABETH TAN                                   0501
A0101406590000000131579JEREZ, JOANNE ROXANE DBU                                10502
A0101406590000000131579ROXIEMAR CONSTRUCTION                                   20500
A1301400210000000023263MARIE CONCEPCION C ESTACIO                               0501
A1301400210000005040533***                                                      0502
A1301400340000000926927DELA CRUZ, RONNEL SANTIAGO                               0501
A0101408240000000005461SANCHEZ, MARIANO ALTOBAR                                 0503
A0101408240711046744001NAGTALON, B DBU SINCERAE                                10501
A0101408240711046744001BAKESHOP                                                20500
A0101408240711226051002CHAN, ALFREDO OR CHAN, CEFERINA                          0501
B4101400260812011381001CENTURY SAVINGS BANK CORPORATION                         1601
A4101400390000000048651TIAMZON, ALTHEA MARIA SANTOS                             0502
B0101404840000001312463LF GLOBAL LOGISTICS SOLUTIONS INC.                       1602
A0601400230000005510207DIZON, DIANNA C DBU ROZ-DAY IRO                          0501
