B0101400860011821100608**********                                               2001
A0101412210000001347644TOBIAS, ALVIN ANTONIO                                    0501
A1601400170000001837863RENE N. ESPLANA OR                                      10501
A1601400170000001837863GLORYDEL B. ALAP                                        20500
B1601400170494052236004LEGASPI HOPE CHRISTIAN SCHOOL, INC.                      1605
A0101409920000006336912PANGANIBAN JR., FERNANDO VERGAR                          0502
A4101400260812399439001ANA G. TANAKA                                            0502
A0101400440000002034920MARY GRACE S. UGAT                                       0501
B3401400280000000002397CAPIZ ARCHDIOCESAN SOCIAL ACTION CENTER                 11601
B3401400280000000002397INC.                                                    21600
A0101400860000005313024*                                                        0505
A0101400860011453144001*********                                                0505
A0101400860011634877001**********                                               0505
A0101401250000000907288CASTILLO, ROSELYN VILLAR                                 0502
B0101400150061018245001PERLA COMPANIA DE SEGUROS, INC.                          1601
A0101400150061231268003TAN, CORAZON J.                                          0501
A0101400150061242841001MA. AURORA ORTIZ  OR                                    10501
A0101400150061242841001MA. AURORA CARLA ORTIZ                                  20500
A0101400150061292057001GIDEON G. SISON                                          0504
A0101400150000006551179AMORA, IMELDA MARIE A. OR                               10502
A0101400150000006551179AMORA, NICOLO NOEL P.                                   20500
B0101400600071516450001********                                                 1601
B0101405810000005943320D.W. PLASTIC CORPORATION                                 1601
B0101405810000005943331TRANSWELL ENGINEERING CO.                                1601
B0101405810000005943342PLASTIC TECHNOBAG CO. LTD.                               1601
A0101405810072353703003GUO, ZHI SHEN                                            0505
A0101405810072385132001***********                                              0503
B0601400100000002365573ONG, HEIDI ISABELLE OR ANDREW OR ANSON                   1602
A0601400100081025360002AMOR REFRIGERATION & AIR                                10501
A0601400100081025360002CONDITION REPAIR                                        20500
B0601400100081253610002NG, WILFREDO M. AND AQUINO, JANET B. AND                11604
B0601400100081253610002BUAN, ROLAND S.                                         21600
B0101413280000000041910INTERNET OF THINGS PHILIPPINES INC.                      1601
A0101414090000003314941RUIZ, JOANA MARIZ PERINION                               0501
A0101410560000002316456REYES, REDENTOR HERNANDEZ                                0501
A0101400730000002882422DECIAR, ROANNE KAYE OLVIDA                              10501
A0101400730000002882422OR DECIAR, RUTHER OLVIDA                                20500
A0101400730000002882502ULOB, GUARDINO MARTINEZ                                  0502
A0101400730111203514008LYNIE J. TUMABINI                                        0502
A0101400730111203514008LYNIE J. TUMABINI                                        0502
A0101400730111334903038DAX P. MALIWAT                                           0501
A0101400730111364907640HAO, JAMES NGA KOK NGO                                   0501
B0101400730111482881001CASA BOCOBO HOTEL, INC.                                  1605
B0101400440161013681001P.J. LHUILLIER, INC.                                     1605
B0101400440161029733001PAWNCARE SERVICES INC.                                   1605
A0101400440161591337001JENESSEY A. RANCES OR                                   10502
A0101400440161591337001JESSIE O. RANCES                                        20500
A0301400530000003573288COSMENO, JELLY JUANILLO                                  0501
A0301400530193778099001GARLEY, LEAH ROSETTE N.                                  0501
A0301400660194774595001CIMAGALA JR., OSCAR TINGA                                0501
B0101412500000000041705SYNERGY GLOBAL LOGISTICS SOLUTION INC.                   1602
B0101412500214055614001A.D.P.P. TRUCKING SERVICES CORP.                         1601
A3101400160000006497723YAMBALLA, CLETO CUSTODIO                                 0501
B3101400870225054035001WAKABA PHILIPPINES, INC                                  1603
A3101400870000005565211VALERIO JR., E DBU WEBER                                10504
A3101400870000005565211FORWARDING SERVICES                                     20500
B3101400870225061853001******                                                   1601
A3001400130000002063474ANTIPASADO, ROMELITO ALISOSO OR                         10510
A3001400130000002063474ANTIPASADO, ANGE                                        20500
A1001400190231520766079JANDAYAN, SATURNINA S.                                   0501
A1001400190231622631002UNCHUAN, CHARLES NACUA                                   0501
A1001400480000001054711VILIRAN, PRINCESS SYBIL BADAJOS                          0502
A1001400480000005355944BONGCAYAO, CARLO EMIL NAZAREA                            0501
B0101401670271028082002DDT KONSTRACT, INC.                                      1630
A0101412470000002136049**********                                               0502
A0101400570000001681961SALAZAR, LISETTE GREGORIO JT                            10501
A0101400570000001681961TRINIDAD, JESUSA                                        20500
A0101400570281397860001CASTIGADOR, GUISEPPE FAJARDO                             0502
A2601400270000000561642ROMINA FRANCESCA C. MOLINA                               0501
A2601400270302762450001JOYCE ANN MAYE L. DOON                                   0501
A0801400160000002287669ANTIDO, ELLEN JOY ABAJAR                                 0502
A1101400120000006186672CORDOVA, MA. KRISTINE AGUILON                           10501
A1101400120000006186672DBU RACKS ENTERPRISE                                    20500
A1101400120313478374099SALAS, ERIKA GALAROSA                                    0501
A1101400120000000652351YAO, RONALD PHILIP GO                                    0502
A6601400120000002249772ADARAYAN, MA PAZ ORTEA                                   0503
A2001400290315666711001MARIUS C. C. ONGCOG OR AGRIPINE                         10503
A2001400290315666711001T. L. ONGCOG                                            20500
B0101405650322024999001SUPERIOR MAINTENANCE SERVICES, INC.                      1630
B0101402510341021863002SAN BEDA COLLEGE UNION (SBCU)                            1601
A0201400760000005436482DYCHAUCO, NEIL SHERWIN PHUA                              0501
B0201400760374041858001HELPMATE TRADING AND SERVICES                            1601
A0201400920000001331504GARCIA, NILA NOYA                                        0505
A0201400920375478374008OLELA, DONATILLA OMELGO                                  0501
A0101415350000008247030GUISON, AZENITH MADRIGAL                                 0501
B0101402770391028967001R.M. LIM CONSTRUCTION                                    1601
B0101402770000001571233LEADER GARMENTS CORPORATION                              1605
B0101402770000001571579LEADER GARMENTS CORPORATION                              1605
A0101408400394515663001PAUNTE, SARAMINA PAUDAC                                  0502
A0101409210000000043752EARL NICHOLLSON CHUA                                     0502
A0301400820000004745882ABADIA, ROLANDO B.                                      10501
A0301400820000004745882DBU ROSELAND TRADELINK                                  20500
A1201400150000001863276KLEMSON MEDICAL SUPPLY                                   0502
B0101403030441039990001TOPTRUCK ENTERPRISES                                     1601
B0101403030441631353001ANG CHING HUAN & SONS RESOURCE                          11605
B0101403030441631353001PHIL                                                    21600
A0101403320471365878001*******                                                  0502
A1401400110000001806873********                                                 0502
A1601400170000000497423MENCHU R. BUADO                                          0501
A0101407430503333427005ABNER G. LACSON OR                                      10501
A0101407430503333427005EVELYN D. LACSON                                        20500
A0101405940000002268788TESORO, KRISTINE PAULINA PONCE                           0502
B0101406880513025405001NIKKA TRADING                                            1610
B0101406880513034765001DEVELOPED LOGICAL TECHNIQUES FOR AIR-                   11610
B0101406880513034765001CONDITIONING TEC                                        21600
B0101406880513047642001SPECIAL PHILIPPINE EYE CARE SOLUTIONS                   11605
B0101406880513047642001FOUNDATION, INC.                                        21600
B0101406880513384055002NT GLOBAL, INC.                                          1605
A0101406880513565178001ROMA, ANDRONICA TAPIA                                    0505
B0101408530516033397001SPRINGER INTERNATIONAL, INC.                             1605
A0101408530516571877073ANALYN C. ABORDE                                         0502
B0101403450521036992001********                                                 1601
B0101403610000006637114RD PAWNSHOP, INC.                                        1603
A0101403610531400970001BRILLANTE, ROSARIO AMIL                                  0502
A0101403610531444284001DUENAS, RENDER MACASPAC                                 10502
A0101403610531444284001OR DUENAS, RYAN                                         20500
A0101403610531662330001BERROYA, MARK LESTER AMOR  OR                           10502
A0101403610531662330001BERROYA, CONNIE                                         20500
B0101404000000000460991DAVID'S SALON INC.                                       1601
A2201400250561258513006ADY NOEL MERCADO                                         0502
A0101404130601692777001PASCUAL, GAMALIEL CABRERA OR                            10505
A0101404130601692777001PASCUAL, MA. LOURDES L.                                 20500
B0101407720602044367001CAL PERSONNEL PROVIDERS                                  1610
A0101407720602161917001GOYLOS, LORENA CALVO                                     0501
A0101407720000006028235DE LA ROSA, MARGARITA REGINA                            10502
A0101407720000006028235CASTILLO                                                20500
A0101407720602715175001LACONICO, MINERVA MAGNO                                  0501
A0101404260000000550183SABLAD, BALBINO GUERRERO                                 0501
A0101404260611416131001ORA, ROMEO FOLLOSCO OR                                  10501
A0101404260611416131001JOSEFINA                                                20500
A0101413570000005867310LEJANO, VIRGILIA PAHAYAHAY DBU                           0505
A1301400210000002284944ANGULO, AGNES CLEMENTE OR                               10502
A1301400210000002284944ANGULO, OLIVER CASTRO                                   20500
B1301400210000005041109*****                                                    1602
A1301400500000003070060ROLANDO F. BUNAG OR                                     10501
A1301400500000003070060DIVINE MEI C. BUNAG                                     20500
A0101408240711400412005MIRCHANDANI, MICHAEL OR SHERYL                          10501
A0101408240711400412005OR SHAM OR LALA                                         20500
A0101408240711427132001SORIANO, AVELINA OR REYNALDO                             0501
A4101400260812719068001CHAVEZ, MAY LOPEZ OR                                    10501
A4101400260812719068001LAPAN, MYLEN CHAVEZ                                     20500
A4101400550000001332427HILAGA, R DBU RGM EXHIBIT AND                           10501
A4101400550000001332427EVENTS SERVICES                                         20500
A4101400550815648105001REODIQUE, MELANIE AGUSTIN                                0502
A0101404840851217637064CESAR D. CO                                              0502
A0101404840851520766144PANA, ZENAIDA C.                                         0501
A0101406750000003393140FUENTEBELLA, JOCELYN PANGILINAN                          0501
B0101405070861024779001SEAVIEW IMPORT EXPORT CORPORATION                        1602
