A3001400130000001271312SHAPE & WELL NUTRITIONAL                                10501
A3001400130000001271312PRODUCTS                                                20500
A1401400110000001806873********                                                 0502
A4101400420814298552007NOEMI S. GARCIA                                          0502
A0101400150000002749773MALCAMPO, MARK ANTHONY DE LEON                           0501
A0101400150000002902581MALALUAN, RANDY SANDOVAL                                 0501
A3001400130000006145193ALBIVA, JERSON TAO-ON                                    0501
A3001400130230478374026SONOT, RODERICK AMAHOY                                   0501
A3001400130230774540001UYGIOCO, JEANY PASCUA                                    0502
A0101401670000000237698MATA, CLARISSA SOCORRO URBANES                           0502
A0101408370382445179001********                                                 0502
A0101408370382508055001**********                                               0501
A0101405490000004353064MORALES, ADELAINE MARIE ALMEDA                           0501
A0101405490000005210171TOCJAYAO, EVELYN PIMENTEL                                0502
A0101409180000002252626PIONILLA, HERBERT CRUZ AND                              10502
A0101409180000002252626PIONILLA, KAREN LOU ANDRE                               20500
A4101400420814478374030LIGAYA ILANO                                             0501
A4101400420814520766108ESPANOLA, MERELY C.                                      0502
B0101417420000801010012**********                                               2002
A0101400860000003571680*************                                            0501
B0101418940012821100608**********                                               2002
B0101418940012821200608**********                                               2002
A0101400150000003197897JOYCE CATHERINE C. ORTEGA                                0502
B0101400150061011066001FOOD SOURCE, INC.                                        1605
A0101400150000002749659*********                                                0502
A0101400150061230586001**********                                               0502
A0101400150061335760003SUBIDO, DIANE GRACE ABELLA                               0501
A0101400150061430140001**********                                               0501
B0101400150061514776001THE KATE HELPING KIDS FOUNDATION IN                      1601
B0101400600000001335808GIHON FASHION APPAREL INC.                               1601
A0101400600071496801002******                                                   0501
B0101400600071603898001*******                                                  1602
B0601400100081021931001PHILKO SILICATE CORPORATION                              1610
A0601400360083548972001MANITI, JOEL MANALESE                                    0503
A0601400360083576587001ANICIETE, NOEL DABU                                      0502
B0601400520000004423396GO JR., LUIS BENITO AND SERRANO, FRANCIS                11602
B0601400520000004423396PEROCHO                                                 21600
B0101413730000000469676MADRIGAL TRADING CO., INC.                               1601
B01014140900000003994462 TORRE LORENZO CONDOMINIUM CORP.                        1605
A0101410850000003503642EVANGELISTA, K DBU NEOSTAR INTE                          0501
A0101410560000001944072VALEN, ROSANA RETIG                                      0501
B0101400730111015420002FELANER REALTY DEVELOPMENT CORPORATION                   1606
A0101406040112055495001********                                                 0505
A0101413150000003208313******                                                   0502
A0101401830141061615001DE LEON, JANINE ALYSSA DBU                              10501
A0101401830141061615001GOLDEN BIMBEE KITCHENETTE                               20500
A0101401830141724867001GOMEZ, GEORGE CASSIUS ALFONSO                           10502
A0101401830141724867001FARRALES                                                20500
B7201400170000003773502**********                                               1605
A7201400170000003773193ALUYEN, VICTOR EMMANUEL TOH                              0501
A0101400440161039572049ALCALA O. GENUINO                                        0502
A0101400440161525001159MARITES P. MONTALBAN                                     0501
A0101407270000007170061MUTUC, LILIAN BIGOY                                      0501
A0101407270162661232002CARLA MARIE UY                                           0501
A0101401090000001618782KRYZLER FOOD STATION                                     0502
A0101401090171195858001ESTELA D. MENDOZA OR                                    10502
A0101401090171195858001AMADO G. MENDOZA                                        20500
A0101401090171198531002JOHN DONNIE A. RAMOS                                     0501
B0301400530000001409741ROBLES, EDDIE DBU VICTORIA CONSTRUCTION                 11601
B0301400530000001409741CELEDONIA ROBLES                                        21600
B0101401380201026760001PAG & D BAR & ENTERTAINMENT CORP.                        1603
B0101401380000000106732ANIMAL FIRST PET PRODUCTS CORPORATION                   11605
B0101401380000000106732DOING BUSINESS                                          21600
A0101401380201574670001AVENA, MERIAM BATICUATRO                                 0503
B0101412500000000739737MIKEWELL WORLD OF HOUSEHOLD PRODUCTS                    11605
B0101412500000000739737CORPORATION                                             21600
A0101413600000002122343PETE A. NOGALIZA DBU CRECIENTE                          10505
A0101413600000002122343INTERNATIONAL MARKETING                                 20500
B3101400160221013980001VIC IMPERIAL APPLIANCE CORPORATION                       1606
A3101400450223405022001REYES, RIZALINA OR MANOLO                                0501
A1001400190000001057614ENDERES, EMMANUEL                                        0502
A1301400760253056374001EDNA'S CAKELAND                                          0525
A1901400290000001195142ESTEBAN ALDRIN HERNANDEZ BISA                           10502
A1901400290000001195142OR DONNA MARIE G ORILLA                                 20500
B1901400290000001363213TOYOTA LIPA, BATANGAS, INC.                              1601
A1901400290261246142002EFREN REYES OR LUTGARDA REYES                           10502
A1901400290261246142002OR SAMUEL KIM REYES                                     20500
A1901400290261250069001DRA. JABES BUCE CARRASCOSO                               0505
A1901400290261298552056TERESITA EUGENIO PUNZALAN                                0501
A1901400290261298552105AIDA NABOS REYES                                         0501
A1901400290000001975222DRA. AUREA TOPACIO HERNANDEZ                             0501
A1901400290261390520001JOEL PUNZALAN DIMAANO                                    0502
A1901400290261488341084DRA LILIA M BANAAG                                       0502
A1901400290261538304001OFELIA HIPOLITO LANDICHO                                 0501
A1901400290261542971001DIVINIA ALTAMIRANO DIMAYUGA OR                          10503
A1901400290261542971001AMANDO BRIONES DIMAYUGA                                 20500
A1901400290261692693001SUZELLE MARIZ JAVIER LUMBERA                             0501
A0101401670000003181633GOROSIN, EMMARIE DEL PRADO                               0502
B0101401670000000016297KASKAL PHILS. INC.                                       1601
B0101406620273024855068TANGENT SOLUTIONS, INC.                                  1605
A0101406620273236978001CALLEJA, HOWARD MACEDA                                   0503
A0101406620273301500004CONRADO F. BATE                                          0502
A0101408660000000855863GONZALES, DENNIS MANGUBAT                                0501
B0101408660000005990429NAGA STEEL DEPOT INC.                                    1602
B0101408660000005990430NSD BUILDERS DEPOT INC.                                  1602
A0101411110276075793088HAHN, KI SUK                                             0501
A0101411820277775683001**********                                               0502
A0101400570281186636001REYNALDO R. PENILLA                                      0502
A0101400570281442475001AQUINO-AQUINO, PRUDENCE VALERA                           0501
A0801400160000001031387DIMATULAC, NENITA MENDERICO                              0502
B0101402350321012513001CONNER HARDWARE CORP                                     1601
B0101402350321034292001JACINTHE MANUFACTURING CORPORATION                       1602
B0101405650000000772743BF FEDERATION OF HOMEOWNER ASSOCIATION                   1601
A0101402510341523660001TAN, MICHAEL LO                                          0501
A0101402060351503188001CANAYON, SHIRLEY AZARCON OR                             10501
A0101402060351503188001CANAYON, IVAN PH                                        20500
A0201400760000000222864SMART RESIDENTIAL MAINTENANCE                           10504
A0201400760000000222864SERVICES                                                20500
A0201400920000000048031FMC CATERING SERVICES                                    0502
A0101402770391013439001JIREH'S CAR PAINT SHOP                                   0501
B0101402770391035790001NEWBIG FOUR J CONSTRUCTION INC.                          1604
A0101402770391326383002YANZON, MICHELLE BALAORO                                 0501
A0101405490000005210240MORADA, RONALD ALLAN AMORES                              0502
B0101405490000002841949******                                                   1602
B0101405490000003905151ASIA PRIME REALTY NETWORK, INC.                          1602
B0101405490000003905151ASIA PRIME REALTY NETWORK, INC.                          1602
B0101405490392332339001**********                                               1603
A0101408400394027889001TINA S. BERIN FLOWER SHOP                                0505
A0101408400394417405001EVANGELISTA, JOSELITO OR                                10501
A0101408400394417405001EVANGELISTA, ROM                                        20500
A0101409180000006267296EMPLOYEES OF, REGUS SERVICE CEN                          0501
A0101409180000006267296NOEL PARASO                                              0501
B0101409180397024348001APPLESEED MONTESSORI INCORPORATED                        1601
A0101409180397486750002TARROZA, MICHELLE CANAUAY                                0503
A0301400820000001185622DOMINGO, MARIA ROSELA P. OR                             10503
A0301400820000001185622DOMINGO, RITA P.                                        20500
A2401400180000001676957MERCADO, MABEL POVADORA                                  0505
B2401400180411056764001RD PAWNSHOP, INC. - GENSAN REGION                        1603
B2401400180411061639001BUILDMORE CONSTRUCTION DEPOT                             1605
A2401400180411478374054LUENGO, IMELDA AMPO                                      0502
A0901400220000006214386D' RANGER SECURITY AGENCY, INC.                          0502
A0901400220000000425238**********                                               0501
A0101403030441239062002**********                                               0501
A0101403320471038308001METALBASE MARKETING                                      0502
A0101412760000000767802ROBLES, NORA SAN BUENAVENTURA                            0501
B0101412760000000032004TIGER EYES SECURITY SOLUTION INC.                        1603
A1901400160491343996001MARIA DOROTHY M HERNANDEZ                                0502
A0701400260000000040962CASTANEDA, NENEBETH ESMERALDA                           10503
A0701400260000000040962OR CASTANEDA, ROBERTO                                   20500
B0701400260000000671005BRENTWOOD COLLEGE OF ASIA, INTERNATIONAL                11602
B0701400260000000671005SCHOOL INC.                                             21600
B0101406880000001286415CASES CHUN & ASSOCIATES LAW OFFICES                      1605
A0101408110000001823832PATATAG, WILFREDO DBU FLASSIQUE                         10502
A0101408110000001823832FINE FURNITURE & INTERIOR                               20500
A0101408530000002980523BONOSTRO, ANGELINE CALLEJO                               0501
B0101403450521011744001CBK CONSTRUCTORA, INC.                                   1603
A0101403450521238265001**********                                               0502
A0101403450521240821001**********                                               0501
A0101403610000007124901LU, JONTHAN GO                                           0504
A0101403610531362783002PARAISO, MARIVIC CUARESMA                                0501
A2201400250561783603002JEVY C. BALMORES                                         0502
B0101404130601100034001ADVATECH INDUSTRIES, INC.                                1602
A0101404130601379819001NOLASCO, MA. SUSAN DOMINGUEZ                             0501
B0101407720000000713160GREEN BEAN ORGANIC COFFEE CORP.                          1605
A0101407720000004659138GUTIERREZ, ANDREA LUZ TAN                                0501
A0101407720602489773001MERCADER, MARY JOSEPH ABITRIA                            0501
A0101407720602496503028MELVIN V. CHAN                                           0501
B0101412180000001293038WESTMONT INDUSTRIAL SALES INC.                           1602
A0101412180000000037932*******                                                  0501
B0101407690652017367002EAGLE BROADCASTING CORPORATION                          11605
B0101407690652017367002(NET 25)                                                21600
A0101413440000000570303GUARINA, R. DBU GEOMATICA                               10501
A0101413440000000570303ENGINEERING                                             20500
A0101413570000001682679ARNOLD HAIRDRESSING SYSTEM CO.                           0503
A0101406590662386545001MALVAS, BELINDA NAVA                                     0501
A1301400210000002909135BERNARDO JR., PASCUAL QUETUA                             0502
A1301400210000005040533BERNARDO, JESSIE MAGPAYO                                 0502
A1301400210682325433001WILHELMINA DC DOMINGO                                    0501
A1301400210682478374032EVELYN P. PEREZ                                          0501
A1301400340683590977001NON, JOHN VIADO                                          0501
A0101408240711383484001CZARINA M. SANCHEZ                                       0502
A0101408240711547758001SALVADOR, DIOSDADO COSCOLLUELA                           0502
A4101400260000005333619POLICARPIO, MANNY B. OR                                 10501
A4101400260000005333619POLICARPIO, RITCHIE LOU R                               20500
B4101400260000000048991*****                                                    1603
A4101400390813367632001ZALDIVAR, ARNOLD DELLEM                                  0501
A4101400420000004848108ISABELO, MORMON TUBELLO                                  0505
A4101400420000000120867KAREN MABAYLAN                                           0501
A4101400420814572942001ABLAZA, REINA DE GUZMAN                                  0501
A4101400550000006044413RELATORRES, IRENEO MAGAYONES                             0501
A0101412340000006338441SAMMY KAY G. PUA                                         0501
A0101412340000002266884MARGELETTE B. BAUTISTA                                   0501
A0101412340000003438544CHERMAINE PORTIA P. LODERO                               0501
A0101412340850091247001ROSTRATA, DANILO DELA CRUZ                               0502
B0101404840851013980002VIC IMPERIAL APPLIANCE CORP.                             1601
A0101404840851478374098MARITES DERAYAL                                          0502
A0101404840851742817001QUICO, RICA ANNE MANUEL                                  0501
