B0101408530516821100608**********                                               2010
A0101402930000003710483VERDOLAGA, MA. GEORGINA DE JESU                          0501
A0101403320471659935001LORALYN G. DEL PRADO OR                                 10501
A0101403320471659935001ISIDRO DEL PRADO                                        20500
A0101412890000001056360AMIDO, NORMA GUEVARA                                     0501
A0101412890000004345022QUADRAGON SECURITY                                       0501
A0101400440161039572095WISHELLE C. RECLA                                        0501
A0101400440000000821196JETHRO JEWELRY SHOP                                      0501
B0101400440000000337751COMMANDER RANGE & SPORTS CLUB, INC.                      1605
B0101400440000000337773VIENNA PORCELANA PHILS. INC.                             1610
B0101400440000000337922COMMANDER SECURITY TRAINING CENTER, INC.                 1605
B0101400440000000337882PHILIPPINE SECURITY & SAFETY                            11605
B0101400440000000337882PROFESSIONAL                                            21600
A0101400440000002035001INTEGRITY DIAGNOSTIC CENTER                              0505
A0101400440161525001173ELIZABETH V. FAJARDO                                     0501
B0301400660000003361873C-ONE TRADING CORPORATION                                1602
B0101415060385821100608**********                                               2003
A0101412890000005913311ROBLES, MA, CRISTINA S.                                 10505
A0101412890000005913311OR ROBLES, MARIA KRISTINA                               20500
A0101403320000001646879EIFFEL JARVIS H. DIAZ                                    0502
A0701400260000001804724AMPONGAN, ANDRES PALACIO DBU                            10502
A0701400260000001804724ANDRES AMPONGAN TRADING                                 20500
A0101406590662207517002CASINO, ROSITA M.                                        0501
A0101401250021178973001VICENTE S. BERNARDO OR                                  10510
A0101401250021178973001ARACELI C. BERNARDO                                     20500
A0101401250021180208001GERVASIO, REMEDIOS SAMONTE                               0502
A0101411370000003294842BUENCAMINO, FRANCIS S. DBU                              10504
A0101411370000003294842BUENCAMINO PRESS                                        20500
A0101400150000000253289URBANO, LAUREN MAY ZARATE                                0501
A0101400150000001422326HERMELITA H. AMBROCIO                                    0501
A0101400150000005794238JANICE I. ARIZOBAL OR                                   10501
A0101400150000005794238CHRISTIAN R. ARIZOBAL                                   20500
B0101400150061011066002FOOD SOURCE, INC.                                        1605
A0101400150000000053012ABRAM C. GIDUCOS                                         0501
A0101400150061521561001ANCHETA JR., ANGELINO UY OR                             10502
A0101400150061521561001MA. CATHRINA ANCHETA                                    20500
A0101400150061521561002ANGELINO ANCHETA JR., OR                                10502
A0101400150061521561002MA. CATHRINA ANCHETA                                    20500
A0101400600000001025114CARMELITA V. NATIVIDAD JR.                               0501
A0101400600071426579001**************                                           0501
A0101400600071478374010NELIA D. ESPINO                                          0501
A0601400100081028046001TANDEM INTERIOR DESIGN STUDIO                            0505
A0601400100000000141864DEL ROSARIO, ROCELLE PENA                                0504
B0601400360000000025772CLERMONT PHARMACY AND GEN. MDSE. CO                      1602
B0601400520000001349719KELVIN MAGTOTO DBU CALULUT CONVENIENCE                  11605
B0601400520000001349719STORE                                                   21600
A0101413280000005084839CLAUDIO PE YAO                                           0501
B0101406040112038776001ELIJAH HOUSE MINISTRY, PHILIPPINES                       1602
A0101401960121241244001**********                                               0501
A0101401960121370725001**********                                               0501
A0101413150000003868424*********                                                0502
A0101412630000000801483CABANES, JEANNE BETH LABASAN                             0501
B0101401830141259521001JIMMY N. YANG (SONLY PRINTING PRESS)                     1601
A0101401830000000201798OQUINDO, MARICEL CANETA                                  0501
A0101407270000006596218BRICENIO, GERRY BORELA                                   0502
A0101407270000006594416ARANA, RONIE VILLANUEVA                                  0501
B0101407270162019525001CASTFOOD CORPORATION                                     1602
B0101407270162043148001LA COMMERCIALE M&J REALTY                               11605
B0101407270162043148001INCORPORATED                                            21600
B0101407270000003254395SUCCERO SERVICES CORPORATION                             1602
A0101401090171195610001WILFREDO/CYNTHIA/MARIFEL MITZI/                         10503
A0101401090171195610001CYNTHIA MARIE FERNANDEZ                                 20500
A0101401090171196080003GIL Y. GAMILLA OR                                       10505
A0101401090171196080003CARLOS M. ALMEDA                                        20500
A0101401090171432366001MICHAEL RONALD OR                                       10501
A0101401090171432366001SHARIE MADARANG                                         20500
A0301400530000000065832PERIAS, FE                                               0502
A0301400950000002252080AYUSTE, ARACELI LANOY                                    0502
A3101400160221220343001LAARNI A. CALAPATIA                                      0502
A3101400160221478374002MA. LOURDES T. ELIZON                                    0505
A3101400450223693052001FERRER, PAMELA PIA OR MELVIN                            10510
A3101400450223693052001JOHN OR AUSTRIA, APRYL                                  20500
A1001400190231520766112ALIBIO, NELYBETH TACBOBO                                 0501
A1001400190000001057396LOLITA B. DULCA                                          0501
A1001400350233042653001BLUE ENERGY RESOURCES                                    0502
B0101406460272038032004WEE COMMUNITY DEVELOPERS, INC.                           1602
B0101406460000000182483WEE COMMUNITY DEVELOPERS, INC.                           1602
B0101406460000000712849WEE COMMUNITY DEVELOPERS, INC.                           1602
B0101406620273012462006COL FINANCIAL GROUP, INC.                                1610
B0101406620273036393001REYES, REYES & RIVERA-LUMIBAO LAW                       11602
B0101406620273036393001OFFICES                                                 21600
A0101406620273403501001BASA, CATHERINE VIRAY                                    0501
A0101410980000006014324CHUA, MARITES OR TAN, MARILENE                          10503
A0101410980000006014324OR YEUNG, MARIBETH                                      20500
A0101412470000005380570ACHURRA JR., ANTONIO QUITZON                             0501
A0101412470000002136049TAN, ARVIN DBU THAL BUILDERS                             0503
B0101400570281043944002EXLO MANPOWER AND ALLIED SERVICES, INC.                  1602
A2601400270000000561988ROSALINDA S. ORDONEZ                                     0501
A0801400160311267104001SAN JOSE, BERMUNDO E.                                    0501
A6601400120314645040001PLANDEZ, JOSEPH PEDONG                                   0502
B0201401020000000005023***************                                          1602
A0101402930000003710610DAVID, RIZALYN ENRIQUEZ                                  0501
A0101408370382313183001DR. SIDNEY Y. CHENG                                      0504
A0101408370382431146001DR. ETHEL L. MENDOZA                                     0501
A0101408790000005251007GEMPEROSO, JUSTIN YU                                     0501
B0101408790383021087001OCEAN TANKERS CORPORATION                                1605
B0101408790000003845727CAPABILITY PHILIPPINES, INC.                             1601
B0101405490000003905151ASIA PRIME REALTY NETWORK, INC.                          1602
A0101408400000005286433RAFER, JANE NAMORO                                       0502
B0101408400394041333001W TOWER CONDOMINIUM CORPORATION                          1603
A0101408400394444391001MANALO, MARYLOU REYES                                    0501
A0101408400394478374090MARY DUMASLAN                                            0501
A0101408400000001981699HONRALES, ARIEL OR HONRALES,                            10503
A0101408400000001981699CANDY                                                   20500
A0101408950396499730001DEMETILLO, YOSHIKO KITADA                                0501
A0101408950396565472001DEBBIE GUANI DY MEGUIZO OR                              10503
A0101408950396565472001DONALD JUDE UY MEGUIZO                                  20500
B0101409180397670520001CASAEUROPA INC.                                          1604
B0101409210000000031250********                                                 1601
B2401400180000000073663CENTURY PACIFIC FOOD, INC.                               1610
A2401400180411478374035MERLINDA D. TAMUDTAMUD                                   0501
A2401400180000000073469TAPUZ, JOSEFINO TORCUATOR                                0501
B0901400220000000888133ZC SECURITY CREDIT CORPORATION                           1602
A0901400220000000425136ROSOS, LORAINE WAYCO                                     0501
A0101403320000001647036LORENZO RENAN E. TORRES                                  0504
A0101403320471478374057EMMA G. FELIPE                                           0502
A1901400160491249671003MARIA LUISA P PEREZ                                      0501
A1401400110000004891050**********                                               0501
B1401400110492013980002IMPERIAL APPLIANCE PLAZA                                 1601
A1601400170000001360656HOMER O. REYES                                           0501
A1601400170000001360587TRIPLE S & J TRANSPORT SERVICES                          0501
B0101403580511027620001PROSERVE MANWORKS INC.                                   1650
B0101403580511027620001PROSERVE MANWORKS INC.                                   1650
B0101403580511044725001AGAPITA PROPERTIES, INC. CONDOMINIUM                    11602
B0101403580511044725001CORPORATION                                             21600
B0101403580511046747001HUDDLE ROOM MEDIA INC.                                   1602
A0101403580511388681001BIBIANO N. GARCIA                                        0502
A0101411400000000001510DE LOS SANTOS, MELANIE DAIZ                              0502
A0101411790000002275998REAL, MICHELLE TACSON                                    0502
A0101411790000006499592BUENAVENTURA, ANA LIZA TOBIAS                            0501
A0101403450000001769811*******                                                  0501
A0101403450521080109001TAN, ROQUE TECK HSIN                                     0501
A2201400250000002337982DURIMAN, ERLINDA BALINGIT                                0501
A2201400250561040968001PADRE PIO ENTERPRISES                                    0506
A0101410690000000710730DABLIO, PANFILA BARANDA                                  0502
A0101410690600784905001BELICENA, WILBERT POBLADOR                               0501
B0101407720602026114001**********                                               1602
B0101407720000000885623LARRS SKIN SOLUTIONS, INC                                1603
A0101407720602283353001ERWIN HERNANDEZ OR                                      10501
A0101407720602283353001AGNES HERNANDEZ                                         20500
A0101407720602295336001AGUIRRE, ANGELITA MIGUEL                                 0501
A0101409920000000022088ASUNCION, MARILYN JUANEZA                                0501
A0101407690000000495432DAGUIO, ROSEFINA ENTOMA                                  0501
A0101407690652691934001ALDAY, VANESSA MAE GIDA                                  0501
A0101413570000006596430DOMINGO, MARIA THERESA M.                                0501
A0101413570656060708001CARPIO, WILFREDO J. DBU                                 10501
A0101413570656060708001WJ CARPIO AUTO SUPPLY                                   20500
B0101406590662023706001TOPBEST PEST SERVICES, INC.                              1605
A0101406590662209733001PANGILINAN, ANTHONY N. OR                               10501
A0101406590662209733001PANGILINAN, MA. CECILIA                                 20500
A1701400230000001786861PASION, IMELDA FELICITAS RAMIRE                          0502
B0101408240711023642001SAM SUNG PHILIPPINES CO., INC.                           1601
A0101408240000000005181POL CAMACHO SECURITY                                    10501
A0101408240000000005181CONSULTANCY                                             20500
A0101408240711396778001MA. FRANCESCA ROMANA OR                                 10501
A0101408240711396778001PHILIPPE SEYER                                          20500
A2801400100712380695001NOMER A. TALIBONG                                        0502
A4101400260812249154001RIZALDY J. ESTOCADO                                      0501
A4101400260812545584001ZALDY T. CARDENO                                         0501
A4101400390813506856001CALDEJON, NESMON DAVE        OR                         10501
A4101400390813506856001CALDEJON, CHRIST                                        20500
A0101412340000003341619DEXTER N. CANONIGO                                       0502
B0101404840851013980002VIC IMPERIAL APPLIANCE CORP.                             1601
A0101404840851520766032MILA SALAZAR                                             0502
B0101405070861019664001TRAVELEASE, INC.                                         1601
B0101405070861046931001BUKWANG PRIME INTERNATIONAL AGENCY                       1602
A0601400230891479259001AMELIA M. ARCE                                           0501
B0101417970001501050106**********                                               2001
