A0101403320471066944001RONAND MIGUEL PHARMACY                                   0501
A0101403320471209242001LOPEZ, AGUEDA D.                                         0502
A0101411370000007861821ALABASTRO, J DBU J.P. ALABASTRO                          0502
A0101400150000003164838RHIA S. LAUREA                                           0501
A0101400150000002902423FORMACION, MA. MERA SANAGUSTIN                           0502
A0101400150000010220796CARLO JOSE T. FIDELINO OR                               10501
A0101400150000010220796KARISSA FAYE C. FIDELINO                                20500
A0101400600071373478001**********                                               0505
A0101405810072354724003FUENTES, LILIA S.                                        0501
A0101405810000005315008TRONCALES, CHARLENE FRANCO                               0504
A0601400100081251899001YALUNG, ROBERT OR MA. CRISTINA                          10502
A0601400100081251899001OR SANTOS, MA. L                                        20500
A0601400100081251914002TANG, EVA OR ROBERT                                      0501
B0601400360000003186714BSD TRADE SERVICES CORP.                                 1602
A0601400520000005943462MANALO, PATRICK REGALA OR                               10501
A0601400520000005943462MANALO, AILEL SUZZET                                    20500
A0101414090000006211245TIERRA, HASMIN DE LEON                                   0501
B0101401960121011796001**********                                               1605
A0101401830000001281885SANTOS JR., LAURO DOCENA                                 0502
A0101401830141061615001DE LEON, JANINE ALYSSA DBU                              10501
A0101401830141061615001GOLDEN BIMBEE KI                                        20500
A7201400170000003774367MEJOS, ANIEVER ANTEGA                                    0502
B5001400170153821100608**********                                               2002
B0101412920160066132001SUREMED DIALYSIS & URGENT CARE CENTER                   11603
B0101412920160066132001(SDUCC) INC.                                            21600
A0101400440161520766083ROWENA B. DAVID                                          0501
A0101400440161525001139JEMARIE S. SALUDAR                                       0501
A0101401090000001619030PESO, MARIA CECILIA S. OR                               10502
A0101401090000001619030AQUINO, MARIA CRISTINA                                  20500
A0101401090171506804002CUNANAN, ELAINE CHEEAY                                   0502
A0301400530193037521168NEN ELECTRICAL &                                        10505
A0301400530193037521168CONSTRUCTION SUP                                        20500
A0301400530193551188168GONG, SHUJIAN                                            0502
A0301400530193697653001PACE, MELYN T. AND                                      10506
A0301400530193697653001EUGENIO, EMILIA                                         20500
A0101412500000005300565VALDEZ, PERICLES UBERITA                                 0502
A3101400450223019912001LAGUNA HEALTH SERVICES                                  10510
A3101400450223019912001COOPERATIVE                                             20500
A3101400450223221366002*****                                                    0501
A3001400130000000668479CALUMPANG, CRISTOPHER NAPOLES                            0501
A3001400130000000668480URIARTE, JORIME JANE NGO                                 0504
A3001400130000009103622CALLANGA, JEGER B.                                       0501
A1001400190000005709020RAAGAS, MANOLO LAGAS                                     0501
A1001400190231275679001GOKING, CRISTITA S.                                      0502
A1001400190231731854001APDIAN, BETCHEROS OTOC                                   0502
B1001400350233036561001GRAND CITY HOTELS, INC. (NEW DAWN                       11615
B1001400350233036561001PENSIONNE)                                              21600
A1001400480000006270340DAING, DAISY SALVANA                                     0501
B0101401670271020951001LOTUS POINT RESEARCH, INC.                               1604
B0101401670000000739173MALL TILE EXPERTS CORPORATION                            1601
A0101412470000005380672FERMO, MARIA ROSE CAREN BITUIN                           0501
A0101400570000006271985GOITIA, JOSE ANTONIO EJERCITO                            0501
A0101400570281423865002RIBAYA, VICTORIA CABRERA                                 0501
A0101400570281514703001SEVERA C. RONQUILLO OR                                  10501
A0101400570281514703001TITO P. RONQUILLO                                       20500
A2601400270000002312163ALEJANDRO Q. UY III                                      0501
A6601400120314617580001DORADO, ANITA ACEDILLA                                   0501
A0101402350321772013001NELLY A. MARQUEZ                                         0501
A0101402060000009179542BERMIO, ANGELI LENON OR                                 10510
A0101402060000009179542LIM, ROBERTO JAIME                                      20500
A0201400760374711838008CUA, MIRIAM MASING OR                                   10505
A0201400760374711838008CUA, DAVIDSON MA                                        20500
B0101408370000010555212GLADYS T.CHUA, RICHARD A. MORENO AND                    11601
B0101408370000010555212RACQUEL DE LEON                                         21600
A0101408370382445179001********                                                 0502
A0101411660000005238477LUCAS, MARIA ROSELLE                                     0503
B0101411660384046304001ELITE GLOBAL SOURCING PHIL. INC.                         1602
B0101405490000006214222MEGANESS PHARMA MARKETING                                1601
A0101408400394063196018ARQUIZA, ROCHELLE DIESTRO                                0503
A0101408950396774843001MOLINA, MA. CRISTINA FAMADOR                             0501
A0101412210000005302965QUIRUZ, JOYCE-E UMALI                                    0501
A0301400820000000316670TIONG, ARISTON D.                                        0501
B0301400820409091735055LIMA, WINDELL BRISTOL DBU DAVAO HOME                    11603
B0301400820409091735055BUILDERS CENTER                                         21600
B5501400120410041534001NOTRE DAME OF NEW ILOILO, INC.                           1602
A2401400180000005287021BAYHON JR., EDUARDO DIESTRO                              0502
B2401400180000000019747DYNAMIC TEAM, INC.                                       1610
A0101403320000010312908RODNEY M. FLORES OR                                     10502
A0101403320000010312908CYNTHIA LANDAYAN                                        20500
A0501400170481046585002ANG, JUSSLYNN DBU                                       10504
A0501400170481046585002AVS DISTRIBUTION                                        20500
A1901400320489067117001GML TRAVEL AND TOURS                                     0501
A0101407430000005358909MICHAEL D. BENAVIDEZ OR                                 10501
A0101407430000005358909EILEEN L. BENAVIDEZ                                     20500
A0101403580000000383664MA. LUISA SYLVIA A. ABELLO                               0504
B0101403580511005143001INTERPACIFIC TRANSIT, INC.                               1610
B0101403580000002185413ACUMU CONSULTANTS INC.                                   1602
A0101403580511152491001FERMIN ANTONIO S. FRANCISCO OR                          10504
A0101403580511152491001MA. CARMELA M. F                                        20500
B0101405940512022289003MGNP, INC.                                               1606
B0101405940512022806001JY & SONS REALTY CO., INC.                               1602
A0101411790518681263002TIMOG, ANALIZA MANAHAN                                   0505
A0101403450521240346001**********                                               0502
A0101403610531717691001PONCE, LUISA BERNABE                                     0501
B2201400250561013339001PHIL. NATIONAL GUARD SECURITY                           11605
B2201400250561013339001AGENCY INC.                                             21600
B22014002500000000169863 KIS FOOD STORE CORPORATION                             1601
A2201400250561538260001JOHN A. FELICIANO OR                                    10502
A2201400250561538260001JOSEFINA M. FELICIANO                                   20500
A0101407720000000112136AQUINO, ENRICO RAMOS                                     0502
A0101410300000003290140LACHICA, MARGARET GERTRUDE FERR                          0501
A1301400210682245149001ERNESTO VENTURA                                         10503
A1301400210682245149001 OR LETICIA VENT                                        20500
A1301400500684364561002BUGAY, ERBE MANGULABNAN                                  0502
B0101408240711008262001TRANSOIL CORPORATION                                     1610
A0101408240711391840001HISTORIA, ROBIN COSME                                    0502
A0101408240711478374019ESTUYE, GILDA PLACIDES                                   0505
A4101400390000000975191SANCHEZ, SENEN DE JESUS                                  0501
A4101400420000000120696CARMELA G. ROMA                                          0501
A4101400550815693134001LLANES, TUDOR HERNANDEZ OR                              10501
A4101400550815693134001LLANES, PRESCILLA CARRIDO                               20500
A0101412340000003341113JAY-R E. BARRERA                                         0501
A0101412340000003344790KAREEN MICHELLE T. NADADO                                0501
A0101412340000001017861DERECHO, VIRGINIA ALCONERA                               0501
A0101405070861380698001REYES SR., RENATO SISCAR                                 0501
B0101405070861821200608**********                                               2001
A0601400230000001687118**********                                               0503
A0601400230000002650006FERNANDEZ, DIONISIO MENSALVAS                            0501
A0601400230000005510149ALBAYALDE, CHERRYLYN AURE                                0502
