A1401400110000005526843CALAYCAY, RAINELDA GUERRERO                              0501
A0101400150061227130001EDUARDO I. PLANA OR                                     10501
A0101400150061227130001OLIVER P. PLANA                                         20500
B2601400270302047342001WOODSIDE PROPERTIES AND LAND CORPORATION                 1601
B0101402350321006894003VITALEZ COMPOUND HOMEOWNERS ASSOCIATION                 11601
B0101402350321006894003INC.                                                    21600
A0101402350321481833001CRUZ, EDWARD KEITH O. OR                                10501
A0101402350321481833001CRUZ, ROWENA JANE L.                                    20500
A1401400110000007186583**************                                           0502
A1401400110492090259001JIMENEZ, ROSEMARIE FLORES                                0501
A1401400110492702850001LLAGAS, SUSAN REYES                                      0501
A0101400860000003571704**********                                               0502
B0101400860000005313137**********                                               1601
A0101400860011420919001**********                                               0505
A0101400860011615005001**********                                               0501
A0101400860000001005514**************                                           0505
B0101401250021034955001GLOBAL WINDS CORPORATION                                 1601
A0101401250021309334001NAIDA T. TALIMAN AND                                    10502
A0101401250021309334001S.MA.APOLONIA S. DUMANDAN                               20500
B0101400150061005123003ARK TRAVEL EXPRESS, INC.                                 1610
B0101400150000000633094KINETIC PHILS. ELECTRICAL CONSTRUCTION                  11603
B0101400150000000633094INC                                                     21600
B0101400150000000633390AVIZE INC.                                               1602
B0101400150000001708663MDR MANAGEMENT PARTNERS INC                              1602
B0101400150061226857001ARL MARITIME SERVICES INC.                               1603
A0101400150061354288001CORAZON G. TAGLE                                         0501
A0101400150061697165001SERVER, CATHERINE ANNE B. OR                            10502
A0101400150061697165001CHRISTINE MICHEL                                        20500
A0601400100081254005001TANGLAO, CARMELO OR                                     10501
A0601400100081254005001TANGLAO, MARILOU                                        20500
A0601400520000005943440ENGCO, LEAH DOMINGO OR ENGCO,                           10502
A0601400520000005943440GREGORIO SUAYAN                                         20500
B0101414090000002244662THINKSCAPE RESEARCH SERVICES INC.                        1603
A0101400730111203514026ELEONOR LACUROM                                          0501
A0101400730111203514058MARY ANNE CUARTERO                                       0501
A0101400730000001822373AGUSTIN, JOSEPHINE DAYRIT                                0502
A0101401960000004419750WEE, JOHANNE DBU VALLEY ROCK EN                          0502
A0101401090171198513001CORAZON DE CASTRO TAN                                    0501
B0101401380201030648001ITEMP HOLDINGS INCORPORATED                              1601
B0101401380201041948001THE METRO SPA - YOUR MASSAGE ON CALL CO.                 1601
A3101400160221533266001ANGELITO S. LAZARO JR.                                   0502
A3101400740000009424073DE CHAVEZ, CAROLINA CARPIO                               0501
A3101400870000000957655BITHAO, C DBU BP-1 CAR AUDIO                            10502
A3101400870000000957655AND ACCESSORIES                                         20500
A3001400130000001261261ME3 CONSTRUCTION                                         0502
A3001400130230478374236SALES, CHARRIE ANN SINGCO                                0501
B1001400190231064259001CDO N-CAR, INC.                                          1601
B0101406620273026509001DG3 IDOCS, INC.                                          1602
A0101408660000000373011LAM, E DBU BAN HOK TRADING                               0503
A0501400200000002306092VICENTE, MARK CYRILL PAGUYO OR                          10502
A0501400200000002306092VICENTE, RUTH GAIL M.                                   20500
B0501400200000004456902CBE ESTRADA PAWNSHOP, INC.                               1605
B0501400200292821100608**********                                               2004
A2601400270302574301001ALEX UY TY                                               0501
A0801400160311055600001DORILLO, FLORENCIA LOMILLO DBU                          10505
A0801400160311055600001GAYFLOR EDUCATIONAL DEV.                                20500
A1101400120000000652493BELETA, REBECCA OBAOB                                    0503
A6601400120000006154747BARBARONA,SHERWIN OR IVY ROSE                           10502
A6601400120000006154747OR BARBARONA,LUZ OR FELIX                               20500
A2001400290000000924492LABRADOR, FELICIANO JR. DESUSA                           0501
A3401400280318478374004MELANIE B. BALDOMERO                                     0502
A0101402350321180985003HO, CHIEN CHUNG OR                                      10501
A0101402350321180985003CHUANG, SHIH-SEN                                        20500
A0101402350321366339001VIRGINIA TOLENTINO OR                                   10501
A0101402350321366339001TITO TOLENTINO                                          20500
A0101402350321526808001LUCITA R. TARRAY                                         0502
A0101405650322369598001YANG, YI CHENG OR                                       10502
A0101405650322369598001SHU, SALLY Y.                                           20500
B0101402060000000358781SPT LAND PROPERTIES, INC.                                1602
B0201400760374731732001ASIAN GATEWAY COMMUNICATION SUPPORT                     11601
B0201400760374731732001CENTER, INC.                                            21600
A0201400920000000047965TOP WASH LAUNDRY SERVICES                                0501
A0201400920375522475001MANUEL, FAYE AIMEE CABRERA                               0501
A0201401020000005250680ALINDAJAO, LIZIL ENTAC                                   0501
A0101402930381566712001JOYSA GARCIA OR DANIEL BONDAD                           10502
A0101402930381566712001OR ERICKSON RAMOS                                       20500
A0101408370000003775013******                                                   0502
A0101408370000005220017********                                                 0501
A0101408790000000579324MARTINEZ, RAUL SANTOS                                    0505
A0101411660000002309406ALCAZAREN, SOCORRO PADILLA                               0502
A0101411660000003580294RICA JOANNA C. NICOMEDES                                 0501
B0101402770391009317001FIBERTEX CORPORATION                                     1605
A0101409180000002036613THREE B AND C KONSTRUCT                                  0501
B0101409210000005252222ONG,DOROTHY OR CHUA,DORIS OR SEN,DAHLIA                 11606
B0101409210000005252222OR LEDESMA,DIANE                                        21600
B0101409210000000031250******                                                   1601
A5501400120000002949600HUERTAS, ALEX SUSTENTO                                   0502
A5501400120000005492253CIRINEO, LILA MARIE LITERAL                              0505
B5501400120000007963377EASY PAY FINANCE CORPORATION                             1610
A5501400120410636179018CHIU, VALENTIN & JULIA EILEEN                           10503
A5501400120410636179018& CHRISTIAN & CH                                        20500
A2401400180000000073527LAFARDZ MARKETING                                        0502
A1201400150000000034437YSIT, EFRAIM TANDOC                                      0501
B0101403320471065150001COUTHY WACX INC                                          1601
B0101406330000000432900GLOBE MARITIME TRAINING CENTER                          11604
B0101406330000000432900- MANILA - INC.                                         21600
A0101406330472206357001ROBERT ANG/YVETTE MONICA ANG/                           10502
A0101406330472206357001SHIRLEY ANG/MARK EVAN ANG                               20500
A0501400170481365467003CALLANTA, JOHN SORIANO                                   0505
A3801400170000000154174JOSELITO C MALABANAN                                     0502
B0701400260000000041083MULTI-WARE ECON-SALES CORPORATION                        1605
B0701400260000000670980TOYOTA CAMARINES SUR, INC.                               1610
A0101405940000005067750PABULAYAN, ROSANA D.                                     0501
A0101405940512462757003TERESITA CUEVAS/HELEN JAVINAR/                          10503
A0101405940512462757003JOHN DEE FLORES                                         20500
B0101408110515035536001E & V ELECTRICAL INC.                                    1605
B0101411400000008249827CKO MUSIC PLATINUM, INC.                                 1610
A0101403610531219568002OLIVAREZ, RAUL IMZON                                     0501
B0101404000000002799713NORALYZ LAND PHILS. INC                                  1601
A2201400250561253789001MELIZA TRACY G. FLORES                                   0501
A0101404130000002121248SAPALICIO, JENETTE GABITAN                               0502
A0101407720602373276001MACAPAGAL, ANTONIO RAMIREZ                               0502
A0101407720602396506002DR. ESTELA Z. CABRERA                                    0501
A1301400210682405530003MARITA Y. ESPIRITU                                       0501
A1301400340683467501001ROBERTO P. BANIGUED                                      0503
B1301400500684092779001DAVID, DONNA LIZA A. OR                                 11601
B1301400500684092779001DAVID, FELISA A.                                        21600
A1301400500684594780002CASTRO, RAYMUNDO OR                                     10502
A1301400500684594780002CASTRO, ROSEMARIE                                       20500
B0101408240711034586001ALCOP ENTERPRISES                                        1601
B0101408240711042252001MARINELINK TANKERS CORPORATION                           1610
B0101408240711043680001OCEANLINK TANKERS INCORPORATED                           1605
A4101400260000003679943TAN, ANGELINA                                            0501
A0101406750000005666817CDB ACCOUNTING AND TAXATION SER                         10502
A0101406750000005666817VICES                                                   20500
A0101406750000007879303SUMUGAT, MARILOU TARROJA                                 0501
