A6601400120314737040001DURA, CARLITO OR DURA, RENY                              0503
B0101405490000003905184NORTHSHORE HARDWARE AND CONSTRUCTION                    11602
B0101405490000003905184SUPPLY                                                  21600
A0101405490392341023001JAZMIN P. GONZALES                                       0502
B0101400150061036083001ANNEXUS INTERNATIONAL RELOCATION                        11602
B0101400150061036083001SERVICE, INC.                                           21600
A0101400150061039916044MICHAEL ALAN B. HERNANDEZ OR                            10501
A0101400150061039916044ESTELA MARIE R. HERNANDEZ                               20500
A0101400150061456754002ANCHETA, ANGELINO TAGUIBAO                               0501
A3001400130230478374025DECAMOTAN, JOCYGLIN VILLAMOR                             0501
A0101411110000001713348********                                                 0501
A0101402060000000445516SAMPANG, RICARDO MARCELO                                 0501
A0101401250000000460633MALAYGAY, MARIA FELY SALVINO                             0501
B0101411370000000017978JNE MANILA TECHNICAL SERVICES CORP.                      1601
A0101400150000000807118YOUNG, LAUREN ANNE TALDE                                 0502
B0101400150061010670001ASIASEC EQUITIES INC.                                    1610
A0101400150061764595001LORENZO, CLARISSA BAUTISTA  OR                          10501
A0101400150061764595001LORENZO, LAWRENC                                        20500
A0601400100000002365415BIOCARLES, BERNARDO TUGADE                               0503
B0601400100000002099083CAPAS FOOD HAVEN CORPORATION                             1602
A0101410560000000590567SABAR, MARY GRACE BACONGAN                               0501
B0101400730111043177001RANDOM HOUSE GARMENTS MANUFACTURING                      1601
A0101400730111377984001LEGASPI, JULIETA CABRAL                                  0502
A0101401960000004419783***************                                          0501
A0101401960121285558001**********                                               0501
A0101400440161040977001JKRFG UPGRADE ENTERPRISE                                 0507
B0101407270162031049001CBB FOOD, BEVERAGE AND SERVICES COR                      1601
A0101401090000002358756PALISOC, JULIET ESCALONA                                 0501
A0301400660000000194712DENMARK TRUCKING AND GENERAL SE                         10505
A0301400660000000194712RVICES                                                  20500
A0101401380000000682622********                                                 0501
A0101410720653478374002ZENAIDA O. CARLOS                                        0501
A3001400130000000668479CALUMPANG, CRISTOPHER NAPOLES                            0501
A1001400350000000922190RIVERA, JACKIE LOU VILLAROYA                             0502
A1001400350000000017165MEN DBU A&L MARKETING SOLUTIONS                          0502
A0101401670000002341635ARSAGA, MARLON ALAMIS                                    0505
B0101406620273036337001BG GLOBAL PHILS., INC.                                   1610
B0101406620273037461002FIRENZE CORPORATION                                      1602
B0101408660000001940592J.F PROXIMO HOLDINGS & DEVELOPMENT                       1601
A0101411820000001356747PAUL JOHN RECTO GONZAGA                                  0502
B0101400570281030526001TAPEMASTER MARKETING                                     1601
A0101411240000002332441BARIT JR., WILLY CO                                      0502
A0101411240000001563402ORTIZ, CARLO A.                                          0501
A6601400120000003642744FLORIANE UY OR CHRISTIAN                                10501
A6601400120000003642744EMMANUEL UY                                             20500
A0101402350000002310758RAVANILLA, JAIME CABUG                                   0501
A0101402060351604435001BUIQUIL, EDDIE D. OR BUIQUIL,                           10502
A0101402060351604435001MARITES B.                                              20500
A0201400760374030829001TOPSPIN CONSTRUCTION & SUPPLIES                          0501
A0201400760374041860001ONE URBAN CONSTRUCTION                                   0501
A0201400890376080642001GALANG, LORLIE PACURIBOT OR                             10502
A0201400890376080642001GALANG, GLENN AN                                        20500
A0101405490000002253101BENDANA, JACOB CONCEPCION                                0502
A0101405490392563453002ALLAN L. DE GUZMAN OR                                   10502
A0101405490392563453002MARIVEL R. DE GUZMAN                                    20500
A0101408400394462591002VILMA REGALADO OR BALTAZAR                              10503
A0101408400394462591002REGALADO                                                20500
A0101409180000005454753LILIAN G. CEDENO                                         0501
A0301400820409092553001JOVER, LEILANNIE RODA                                    0501
A5501400120410283898002GARCIA, JOSIE JAVELLANA                                  0502
A2401400180411059128001LIM, KASSERINE JOY ELENZANO DBU                         10501
A2401400180411059128001ELZANO ENTERPRISE                                       20500
A0101412760000002262733PERICO, JOSEPH MARIA AGUSTIN                             0501
B1901400160000000007467FIRST UNITED 23, INC.                                    1605
B1401400110000000034700QUEEN MARGARETTE HOTEL, INC.                             1610
B1401400110000003475661QUEEN MARGARETTE HOTEL, INC.                             1610
A0101411790518055815057NAVALTA, CHRISTINE JUDITH                               10501
A0101411790518055815057DONGAIL                                                 20500
A0101404000000005231732ADRIAN S CUYUGAN                                         0501
A0101404000551509002001CAMACHO, JOSEPH CAPUCHINO                                0502
A2201400250561795226001BENIN, BLESSILDA B. OR                                  10501
A2201400250561795226001BENIN, BENEDICTO S.                                     20500
A0101404130601451711001CATINGAN, HAZEL A.                                       0501
A0101404130000002121000MARIA LOURDES ROSARIO S.                                10501
A0101404130000002121000GONZALES                                                20500
A0101407720000000713131SANTOS, MARIA CLARIZA M.                                 0501
A0101407720602200210001EDITHA C. DIZON                                          0501
A0101407720602332798001ARNEL DIAZ OR LOURDES DIAZ                               0503
A0101404260000001725297KOREAN LANGUAGE CULTURE (KLC) T                          0502
A0101404260611156772001ALINEA, LEONORA OR LENI A PIA                            0502
A0101411530000000178881BERBANO, JOY ANNE VIDAL                                  0501
B0101414120000000399184CANTILEVER CONSTRUCTION CORPORATION                      1602
B0101414120000001984234CAT'S EYE KING INTERNATIONAL INC.                        1602
B0101414120000001984336LRKD MARKETING AND TECHNOLOGY SERVICES                  11603
B0101414120000001984336CORP.                                                   21600
A0101414120000000875845LAGURA II, REGENT ASTERIO G.                             0502
A1301400210682435928001EMMANUEL DC RAMOS                                        0501
A1701400230000001786638PASCUA, MINERVA SINANG                                   0502
A1701400230000001786752**                                                       0501
A1701400230000001787000ELARMO, REV ENGELBERT BARBASTRO                          0501
A0101408240711336084001EVA M. LUMBAN                                            0504
A2801400100712401674002DEL ROSARIO, DANILO LARACAS                              0501
B2801400230000001580354DE OCAMPO, FILOMENA S. AND TRAYFALGAR,                  11601
B2801400230000001580354MARITES D.                                              21600
A4101400550000002091032ABRAHAM, GINU                                            0502
A0101412340000003348872JAMES RANDOLPH B. SEBASTIAN                              0501
A0101404840000000475996MANNAG, ANTONIO QUILANG                                  0501
A0101404840000003069925VALENCIA, JUDY D.                                        0503
A0101404840851478374193JONALYN BACALANGCO                                       0501
A0101406750852084318001SIBUG, GENEATH P. OR                                    10501
A0101406750852084318001SIBUG, ERNESTO M                                        20500
A0601400230000003015550SAMIA, RETINA PANGILINAN                                 0501
