E0101406590000000905624CHANBAR BUILDERS CORPORATION                             2303CKP
E2601400140691363701002ALEXANDER OR ROSEMARIE                                  12201CKP
E2601400140691363701004ALEXANDER OR ROSEMARIE OR                               12201CKP
