A0101407560686177870001JOSE V. YASON III                                        0503
B0101401700041007416001**********                                               1603
A0101411080000000806079*****                                                    0501
A0101411080000000026202******                                                   0501
A0101400280000001390990JANICE B. INVENTOR OR                                   10501
A0101400280000001390990JOHN PAULO G. RA                                        20500
A0101400280051047718002CGH DEPARTMENT OF                                       10501
A0101400280051047718002PEDIATRICS POSTGRAD                                     20500
A0101400280051234275001SALAZAR, ROMMEL TAN OR                                  10501
A0101400280051234275001SALAZAR, PEARLIE                                        20500
A0101407850000000045930CORAZON T. MALENAB OR ANTONIO                           10502
A0101407850000000045930E. MALENAB JR.                                          20500
A0101407850102011722001DAIKING MANUFACTURING                                    0505
A0101407980123331572001*****                                                    0503
B0201400180181262083001LIM, ROLANDO K.                                          1601
B0301400110191013894001LC BONGUYAN & CO. CPA'S                                  1602
A0301400110191478374005EVELINA Y. ABAO                                          0501
A0301400370192370289002GO, TONY HONG                                            0505
B0101407140213033784001HIGHLAND TRACTOR PARTS, INC.                             1605
A0101407140213190801001**********                                               0501
A0101407140213358764001**********                                               0502
A0101407140213517498001QUINTIN L. PAREDES III OR                               10501
A0101407140213517498001MA. ASUNCION G. PAREDES                                 20500
A0401400140000002366269HO, MA MARCELINA COO OR                                 10503
A0401400140000002366269KING COO, ROBERT CHUA                                   20500
B0401400140000004949339SEGUNDINA F. HALLAZGO OR SIMPLICIO Y.                   11601
B0401400140000004949339HALLAZGO                                                21600
B0401400140241020565003FALCOR MARKETING CORPORATION                             1602
B0401400140241044595001SRAC-GKR AGRIVENTURES, INC.                              1603
B0401400140000003690482BACOLOD KYLT REALTY, INC.                                1603
A0401400270000006252308ELSA P. ANTOLIHAO                                        0505
A0401400270242034041001CONSUELO'S SUPERMART, INC.                               0510
A0401400270242390821001ROSEMARIE OR THOMAS OR RAYMUNDO                         10501
A0401400270242390821001RAMOS OR PATRICIA KILAYKO                               20500
A0401400270242520766036ANELYN M. VILLANUEVA                                     0501
A0401400270242742317001ISLA NEGRENSE TRAVEL & TOURS                            10502
A0401400270242742317001INC.                                                    20500
B0401400300243062147001MAYFLOR AND ME ONLINE, INC.                              1601
A0101410430000001523853MARTELINO, IRENE BUENDIA                                 0501
A2301400150301372668001YOLANDA B. ASUNCION                                      0501
B3501400180317007151003OBLATES OF SAINT JOSEPH (PHIL. PROV                      1601
B3501400180000001115473CHUA, EFREN TAN JT                                       1601
A0101402480331031206001**********                                               0502
B0101402480000005302629*********                                                1610
B0101408820333042004001********                                                 1602
A0101408820333332886001ALDOVER, EDNA MIRANDA                                    0501
A0101408820333364185002DE GUZMAN, ELSA ANASCO                                   0502
A0101408820333478374062SANDRA G. BUENO                                          0501
A0101408820333597106001**********                                               0503
A0201400210371478374035ZAMBO, EVELYN FERNANDEZ                                  0502
A0201400210371478374036DIMAISIP JR., RUDOLFO                                    0502
A0301400240000007225163ARCEO, RACHEL ANN MALATA                                 0501
B0301400240401033416001TITA D'Z KAINAN                                          1610
B0301400240401037491188MASTERS, INC.                                            1602
B0301400240401037491188MASTERS, INC.                                            1603
B0301400240000003080151***************                                          1603
B0301400240000003080151***************                                          1602
A0301400240401572022001PAQUINGAN, CESAR OR                                     10505
A0301400240401572022001PAQUINGAN, HILDA                                        20500
A0901400190431307053002431-002548-7                                             0502
B0901400190431325089001ROSELAND HARDWARE (431-001255-4)                         1603
A0901400190431457936001DELOS REYES, GERTRUDES ISO                               0501
A0101403290461032698001SPEEDLINE APPLIANCE SERVICE                             10502
A0101403290461032698001CENTER                                                  20500
A0101403290000005382798MARIA ANNA FATIMA O JACINTO                              0501
A0101409500000000343764ILLESCAS, ERIC REYES                                     0505
B0701400130493037805001PRINCETON ENTERPRISES                                    1602
A0701400130493060014001BONAVENTE, RECHIE E. DBU R.E.                           10503
A0701400130493060014001BONAVENTE POULTRY AND AGR                               20500
A0101408080000005626611SHIRLEY BURAC                                            0501
A0101408080514458622005WATANABE, CHIHO                                          0501
A0101405100571536572001*****                                                    0505
A3301400120581478374040ALMA A. CAGULADA                                         0501
A3301400120581550519001CATURZA JR., OBDULIO BONDALO                             0506
A3301400120000000989040RUBLICA, ELSIE PUJANES OR                               10502
A3301400120000000989040RUBLICA, ABIGAEL                                        20500
A0801400290000000011434SAGGE, BRYAN BERNARDINO OR                              10501
A0801400290000000011434BALTAZAR BERNARD                                        20500
B0101404420631542146001GERONIMO, SANTIAGO NICOLAS JT                            1601
B0101409470000000671512SIR PATRICK SECURITY SERVICES                            1601
A0101414670000001340681MARIA SOCORRO DELA CRUZ                                 10501
A0101414670000001340681MAGRAMO                                                 20500
A0101404710000004655705LEONARDO C. BELANDO                                      0502
A0101404710000000884431*************                                            0502
A1301400630000000975464RAMOS, EMILIANO ALEJANDRO                                0501
B1301400630000007331871M.S. RAMOS CONSTRUCTION INC.                             1602
A0101417390019100000736ADWANI, DAYARAM PARARAM                                  0505
A0101415510920060000100CABILES, ELIBENA ANGUSTIA                                0501
A0101415510920060000258CRISTOBAL, ANNA MARIE P. OR                             10502
A0101415510920060000258CRISTOBAL, RAFAE                                        20500
A0101416160000003732192SEVERINO, ARLENE CARLOS                                  0501
B0101415800016120000393**********                                               1601
A0101417840017100016435**********                                               0502
A3101401000000003746321DELA CRUZ, ANGELIE ANN DANTE                             0501
A0101417000023120001566CRUZ, MERLITA D.                                         0501
A0101417000025120000678CAYETANO, MARK CAESAR S.                                10502
A0101417000025120000678CAYETANO, SUSAN S.                                      20500
A0101417000025120002085BAUTISTA JR., SESINANDO A. OR                           10503
A0101417000025120002085PELICANO, VANESSA MARIE                                 20500
B0101417710000003747659RSG MKTG. CORP.                                          1610
A0101416580920440000167SARMIENTO, RAFAEL GUTIERREZ                              0502
A0101418100920450000115CADAG, AMANDA DELA MERDED OR CA                          0502
A1001400510920500000054ESTILLORE, FE GENTALLAN OR                              10503
A1001400510920500000054ESTILLORE, JOEL LAO                                     20500
