B0101410270000000023161MAJORALPHA RESOURCES INC.                                1601
B0401400270000003187995ORIENTAL & MOTOLITE MARKETING                           11601
B0401400270000003187995CORPORATION                                             21600
A0101407560686223955001***********                                              0502
A0101407560000000003414GONZALEZ, JUAN MIGUEL PARADERO                           0502
B2601400140691284442002ELVIRA S. ILAGAN                                         1605
A0101416160002120000911AMALIA D. SALONGA                                        0502
A0101416160002120000627ROSARIO T. VILOG                                         0502
A0101416160014100000751JOSE ROSARIO G. BANGALON OR                             10520
A0101416160014100000751MA. JOANAH B. BANGALON                                  20500
A0101416160920140000012ESTRELLITA G. CULALA                                     0501
A0101416160920310000093MELANIA F. TAI                                           0501
A0101416160920140000853HAZEL V. VINUYA                                          0506
A0101416160900001042103PERLA E. RAMOS                                           0501
A0101416900920390002658GATELA, MICHAEL MODESTO ANTIDO                           0501
A0101416900900001146908MAGBANUA, ROSEMARIE ROBLON                               0501
A0101416900900001019222SOLIVIO, DANIEL CONDE                                    0502
A0101417680000003692831JULIE CHRISTY B. DELA CRUZ                               0501
B0101417680000003693032BERNADETTE N. CHUA DBU BLUE BASKET CON                  11602
B0101417680000003693032VENIENCE STORE                                          21600
A0101401700041194155002**********                                               0502
A0101401700041458452001YAMSUAN, EVA HABANA                                      0501
B0101401700041536830001TAN, ROBERT JOHNSON RAGOS OR                            11610
B0101401700041536830001TAN, GUE LAO                                            21600
B0101400280051011291001LA PIETA MEMORIAL SERVICES INC.                          1602
A0101400280051233691001LITA ESPINO                                              0502
B0101407850102309658002ONG, JENNIFER CHENG                                      1601
A0101407980123479193001*****                                                    0501
A0101407980123527445001*****                                                    0502
B0101401120000003190149MAXIMUM DATA INFRASTRUCTURE TECHNOLOGIES                11602
B0101401120000003190149INC.                                                    21600
A0101401120000000872942MA. KARLA JOSEE C. ILAGAN                                0501
B1801400130151033214001RD CASH PADALA, INC.                                     1603
B1801400130151273659001*****                                                    1610
A1801400130151735742001FABRIGAR, IDA LERADO                                     0501
B0301400110191040022018BANANA TELECOMMUNICATIONS, INC.                          1601
A0301400110191283168108********                                                 0501
A0301400110191478374177LEAH BANEZ                                               0501
A0301400110191478374195EFREN N. ALBURO                                          0502
A0301400110191483454188TAN, HERBERT LIONG                                       0501
A0301400110191520766005PALEN, ISABEL F.                                         0501
A0301400110191736953001AQUINO, MARIA TERESA REFUELA                             0501
B0301400370192014202001MILSI EMPLOYEES MULTI-PURPOSE COOP.                      1608
A0301400370192035703001ARTES MARKETING                                          0501
A0301400370192478374010ALIMA, ELSIE                                             0503
A0301400370192478374014NIDA L. VELEZ                                            0501
A0301400370192641547001BELOY, CHERILYN DUROPAN                                  0501
A0101400310211388725001TOMANIOG, MYLA OR TOMANIOG,                             10502
A0101400310211388725001LEONORO JR.                                             20500
B0101407140213035952001**********                                               1601
A0101407140213190892003**********                                               0501
A0101407140213191736001**********                                               0501
A0101407140213555310001YU, MARIA THERESA FUCANAN OR                            10501
A0101407140213555310001YU, MICHAEL TAN                                         20500
A3101400320000005041763BOLIMA, ANGEL GAMBOA                                     0503
B0401400140241033411001DAILY APPLE DISTRIBUTION, INC.                           1603
A0401400140241470836001CRUZ, RUBY TANIA CRUZ OR CRUZ,                          10502
A0401400140241470836001MINERVA GARCIA                                          20500
A0401400140241474065002SALAZAR, SHARON H. OR                                   10501
A0401400140241474065002SALAZAR, BENITO                                         20500
A0401400140241672391001LIZARES, AMELITO VALDERRAMA                              0502
A0101410430282471200001AIDA OR JONATHAN OR JOSEPHINE                           10502
A0101410430282471200001OR PETER RAYMOND                                        20500
A0101410430282776924001NOLASCO, ELPIDIO CASES                                   0502
A1501400140291257287002ROWENA P. SILAO OR                                      10502
A1501400140291257287002CATALINO V. SILAO                                       20500
A1501400140000000984330NAPOLEON G. ANCHETA JR.                                  0501
A2301400150301039801001*********                                                0502
A2601400300000002280980GAMIDO, SHIELA MARIE ANDRES                              0502
A3901400100000000966554MEMBERS OF NATASHA (SHOECAT INC                          0501
B3501400180317044850001ALL SNACKS MARKETING INCORPORATED                        1601
B3501400180317726449001********                                                 1607
A3501400180000002375099NARAGA, GENEVIEVE JONIDA GO                              0501
B0101402480331026799001HYPIG GENETICS, INC.                                     1610
B0101402480331296876001**********                                               1604
A0101402480331478374160MIRAFUENTES, MARELYN                                     0502
A0101408820333682547001MAGSIPOC, AIDA JAUOD                                     0502
A0101414700000002335291LLAGAS, MARIA ROSA MANUKAY                               0502
A0101402640361478374074MARIANO, LOLITA MIRANDA                                  0502
A0101402640000000201969HELEN MILLEZA                                            0502
B0201400210371044712001GRANTIX CORPORATION                                      1604
A0201400210371478374018EPILI, LORNA LUAB                                        0501
B0101407300395040018001SHOETECH GENERAL MDSG. INC.                              1601
A0101407300395216392002RODA SANTOS-TANCO                                        0502
A0101407300395298199001ROY BENEDI-AN CRUCERO                                    0501
A0101407300395628162001SAN AGUSTIN, GESSETTE AQUINO OR                         10505
A0101407300395628162001SAN AGUSTIN, RAYMOND                                    20500
A0301400240000000195733CORVERA-YU OPTICAL CLINIC                                0502
A0301400240000001053872RQM PRINT SHOP                                           0501
A0301400240401619349040JOEL G. MORA                                             0501
A0301400240000000195697CASER, MICHAEL FERNANDEZ                                 0504
B0301400400413032201088RASI COMPUTER, INC.                                      1602
B0301400400413045068001KING ROY MARKETING                                       1602
B0301400400000000047572PRESTIGE BOATS CORPORATION                               1603
B0901400190431020058001431-001358-0                                             1602
B0901400190431026224003ZAMBOANGA GOLF & COUNTRY CLUB, INC.                     11601
B0901400190431026224003431-002552-3                                            21600
B0901400190431027378002431-001903-2                                             1602
B0901400190000003168676Z.C. ALTHEA FISHING CORPORATION                          1610
A0901400190431457936001DELOS REYES, GERTRUDES ISO                               0501
A0101405520442478374011MARILOU BARIN                                            0501
A3101400580452215661001ALZONA, APOLINARIO ALMONTE                               0505
A3101400580452779212001CALO, JONATHAN KEE                                       0501
B0101403290461006069001FORTUNE ENGINEERING RESOURCES                            1601
A0101403290000000058677JUDITHA TAPAOAN                                          0501
A1401400110492220730640DOLLANO JR., MOISES GRANADA                             10701
A1401400110492220730640MGDJ CONSTRUCTIO                                        20700
A0701400130493025198001MANUBAY AGRO-INDUSTRIAL & DEVEL                         10504
A0701400130493025198001CORP., INC.                                             20500
A0101408080000000572207FIGUEROA, JAYCEE LETTE TALUSIG                           0501
B3301400120581044259001JAN SURPLUS CENTER                                       1605
A0801400290591379251001TORATO, CHONA SANTA ANA                                  0501
A0101404420000002358147****                                                     0502
B0101404680000000095710MVG HARDWARE                                             1601
A0101404680651461651001LOURDES P. AMBITO                                        0501
A0101404680651520766157LUZVIMINDA P. ALAGADMO                                   0501
A0101404680651520766171JONIS PRELYN MONTILLANO                                  0501
A0101404680000000013509VILMA D. SAGAY                                           0501
A1201400280671492895001GUINTO, VENANCIO DE SILVA OR                            10502
A1201400280671492895001JANINE                                                  20500
A0101414670000001340681MARIA SOCORRO DELA CRUZ                                 10501
A0101414670000001340681MAGRAMO                                                 20500
A0101411950000002788870********                                                 0501
A0101407560000001276119JUMIG, BASILIO ARMAMENTO                                 0502
B0101407560686040555001*************                                            1602
B0101407560000000003538****************                                         1602
A2601400140000002278139MARK JOHN S. FRANCISCO                                   0501
A2601400140691474051001MIRADORA M. MAGBITANG OR                                10501
A2601400140691474051001DEOS ERIC M. MAGBITANG                                  20500
A3201400190000001492811MACARSE, ROSEMARIE REFUERZO                              0501
A4101400130811345009001VILMA ESGUERRA BURGOS                                    0503
A4101400130000002920801OLIVAR, ABIGAIL CRUZAT                                   0503
A0601400490000001066513NISAY, LEILA NOCEDAL                                     0501
A0101416870004120000549SERVICE, RICH TENT REWINDING                             0501
A0101415510006120000177MA. URSULA S. BABULA OR                                 10502
A0101415510006120000177MAXIMA LATORRE                                          20500
A0101416320920070000248*******************************                          0501
A0101417260920130000105SIGARRA, MARIA KRISTINA ANN ALC                          0501
A0101415770000003802468**********                                               0502
A0101415770019120001895**********                                               0502
A0101415640000003689163MARICUELO, ANA LIZA R.                                   0501
A0101415640021120000141VALERIO SR., MARIETTO M. OR                             10501
A0101415640021120000141VALERIO, ARLYNE M.                                      20500
A0101415640920210000275BONDOC DBU AMONZEL TRADING                               0501
A3101400900000003677925**********                                               0501
A0101418360900001054256******                                                   0501
A0101416580900001174493DOMINGO, ARMIN SANTOS                                    0502
A0101416610900001096772TEODORO, BLESILDA DIEGO                                  0501
