A1501400140291025422001P.C. GATSON SERVICES, INC.                               0502
A1501400140000000148747MARILYN G. MARINAS DBU                                  10501
A1501400140000000148747STRATFIELD JUNK SHOP                                    20500
B0101417970015130000042CUSTOMER CHOICE CORP.                                    1602
A3101400320000005537993BRAGAIS, EMERSON DELMO                                   0501
A0101408080000004978481FRANCIS MENDIOLA                                         0501
A0101407560000001276171ONG, ARLINE AZAJAR                                       0501
B0101407560686040555001*************                                            1601
A0101407560686303904002MARIA PIZARRO OR                                        10502
A0101407560686303904002ANTONIO PIZARRO                                         20500
A3101401000920180000184PIOL, EDUARDO YLING                                      0503
B0101400280051751930001REINFRO DESIGN CORP.                                     1601
B0101407850000003294295TECHICO, BENITO GOSIACO                                  1601
A0101407850102383524001LORNA S. CAPULLA                                         0505
A0101407850102460147002**********                                               0501
A0101407980123393770002*****                                                    0502
A0101407980123487410001*****                                                    0501
A1801400130151276590001CORAZON L. LEE OR ROLAND O. LEE                          0505
A1801400130151329322001LOURDES T. TOBAT                                         0504
A0201400180181043344088***********************                                  0505
A0301400370000001802751ONG, MARGARET ANG OR                                    10502
A0301400370000001802751ONG, CYRIL REYES                                        20500
B0101400310211023039001MULTIPLAST CORP.                                         1604
B0101400310211023184001Q.C. STYROPACKAGING CORPORATION                          1604
B0101400310211042537001***                                                      1603
B0101410430282048125001INSTITUTE OF UROLOGY                                     1604
A2301400150301684540001CATHERINE L. SANTOS                                      0503
A3901400100000002308652ROLANDO M. VILLASENCIO                                   0503
A3901400100000000966576***                                                      0503
A3501400180000000262202CONCEPCION, JOCELYN LEANO OR                            10501
A3501400180000000262202YARA, AMELITA IG                                        20500
A3501400180000003175875LAO, PAUL ELTON TAN OR                                  10501
A3501400180000003175875GO, SHEENA ANGEL                                        20500
B3501400180000001866715ULTIMATE ADVENTURE PALAWAN TRAVEL A                      1601
B0101402480331036504001**************                                           1605
B0101402480000002906181***************                                          1601
B0101402480331058340001ONG, JAN MICHAEL SYLIANGCO DBU COLLQUIN                 11602
B0101402480331058340001MARKETING                                               21600
A0101402480331407902001***************                                          0502
B0101402480331540978001***************                                          1602
B0101408820333515192002BALTAZAR, MARIA ANDREA GIMAN                             1603
A0101408820333600504001DOLLENTE, SUSAN OROSCO                                   0501
B0201400210371031390001SYNCHROTEK CORPORATION                                   1602
A0101407300000000228033AGUSTIN, MARY GRACE MATEO                                0501
A0301400240000004841043TOBOG, MARY ANN FELIPE                                   0502
B0301400240000003080100RD PAWNSHOP, INC.-DAVAO REGION                           1603
A0901400190431302205002BERNARDO, MISAEL S OR                                   10505
A0901400190431302205002BERNARDO, MILDRE                                        20500
B0101405520442021308001**********                                               1601
A0101405520000001028506**********                                               0501
B0101405520442522808001**********                                               1601
A3101400580000002813505MARCELLANA, DONOVAN VENTURA                              0501
A3101400580000002813469LAPIZ, RUTH VELARDE OR LAPIZ,                           10502
A3101400580000002813469DANILO REYES                                            20500
B3101400580452021454001CHURCH OF GOD WORLD MISSIONS OF THE                     11602
B3101400580452021454001PHILIPPINES, INC                                        21600
B0101403290461026170001TRIPLE STAR STAFFING CENTER, INC.                        1605
A0101409500000001855832PASCUAL, EDNA BALBAR                                     0501
A0101409760000000113140******                                                   0501
A0701400130000001192405ARMENA, MARLENE TIANES                                   0501
A0701400130493241730001JOSEPHINE L.U. SIA                                       0505
A0701400130493785795002BONAVENTE, JENNEFER OR                                  10502
A0701400130493785795002BONAVENTE, GEORGE                                       20500
B0101408080514017841001BUENSALIDO PUBLIC RELATIONS OFFICE                       1601
B0101408080514031817003PHILIPPINE HEALTHCARE EDUCATORS, INC                     1603
A0101405100571373045001CHEN, BENJIE LOUIE LIM                                   0501
B3301400120581040385001FORTUNE ENTERPRISES                                      1602
A3301400120581550519001CATURZA JR., OBDULIO BONDALO                             0504
A0101404420631354676001SYJUCO, RAMON M. OR                                     10501
A0101404420631354676001SYJUCO, TEODORA                                         20500
A0101404420631386485013LILIBETH BAMBA                                           0501
A0101409470000000020082EVELYN D. DE VEGA                                        0501
A0101404680000000940870ESPIRITU, IMELDA RAMOS                                   0501
B01014046800000000135618LUDEREY FOOD SERVICE INC.                               1602
A0101404680000000767120LOCAR B. DESALES                                         0501
A0101404680000001617352FE R. LIM                                                0501
A0101404680651545666001MERCELITA P. MANCILE                                     0501
A1201400280000004512963RAYOS JR., ANTONIO MONDRAGON                             0501
A1201400280000003186309CALBID, ELVIE DEPAYSO                                    0502
A1201400280671255089001ATOS, MARK HENRY E.                                     10501
A1201400280671255089001671-002278-0                                            20500
A1201400280671350148001ESIONG, ELSON OR ESIONG, KIMBER                         10505
A12014002806713501480016710025493                                              20500
A0101404710681293799001LLENADO, REENA GRACE DE LEON                             0504
A1301400630000003354298PILI, MA. CRISTINA SANGALANG                            10501
A1301400630000003354298DBU PIL ZAKI ENTERPRISES                                20500
A0101407560000001770812ZALDY-MAR HAULING SERVICES                               0502
B0101407560000000477889TOPLITE LUMBER CORPORATION                               1601
A0101407560686478374070MAURA G. CAGAS                                           0502
B2601400140691261586001RAYMOND P. ESPIDOL & CESARITA D. ESPIDOL                 1603
A4101400130811305355002NALLAS, VICTORIA DE VERA                                 0502
A0601400490890723344001DE JESUS, FE ROSARIO ABADEJOS                            0501
A0101417390000003803052BUBAN, FAYMA DBU JANKON FOOD                            10501
A0101417390000003803052LANE                                                    20500
A0101416870004120000565**********                                               0501
A3101401000018100004751FAIGAO, RODOLFO ESTUDILLO                                0502
A0101415770019120002433DAMASO, BRENDA GARROVILLAS                               0501
A0101416450020100001951AYAPANA JR., FRANCIS EDUARDO PA                          0501
A0101415640920210000385WONG, LIONER                                            10503
A0101415640920210000385OR WONG, MARLA C                                        20500
A1301400890920240000061RENTON, ROWENA PILI                                      0501
A1301400890920240000252REYES, MARIA LUZVIMINDA SORIANO                          0501
A0101417000025120001151BAUTISTA JR., ALVINO HOMILLANO                           0505
A0101417000025120002131DELA RAMA, FIEL PALAPAS                                  0502
A0101416900920390000941DOMASIAN, WILLIAM LUNAS                                  0501
A0101416580900001138900DAVID, MARISSA BONIFACIO                                 0502
