F0101406590000000905613LA VISTA ASSOCIATION, INC.                               2603CKR
F1801400130151048890001MSU-IIT NMPC PAGADIAN BR.                                2601CKR
F0101406620273019596002TGV BUILDERS, INC.                                       2603CKR
F0101405490392033703001MATA STEEL ENTERPRISES                                   2510CKO
F0101407720602350933001MA. ZITA ZAGALA MERIALES                                 2505CKO
F0101406750000000091023PLUS CONSTRUCTION INDUSTRIES                            12601CK1
F0101406750000000091023CORP.                                                   22600CK1
