A0101406590000003007096ARROYO, MA LOURDES TUASON                                0501
A3001400130000001271330PITOGO, VINICAR PASA                                     0502
A0101412890000001056206GERONIMO, ANNABELLE ELEANOR LIM                         10502
A0101412890000001056206OR GERONIMO, MARLON                                     20500
B0101409470632821100608**********                                               2001
B3001400130230043534001BERRY HAPPY MART INC.                                    1603
A3001400130230767566090HANGOS, SYLVIA BANAAY                                    0503
B0101406880513621005001NIKKA TRADING, INC.                                      1610
A0101406590662082409002MEDINA, CRISPIN P. OR                                   10501
A0101406590662082409002ANTONIO, MARITESS D.                                    20500
A0101406590662412101002ANTONIO, MARITESS DIVINAGRACIA                           0501
A0101400860011435365001**********                                               0505
A0101400860011487539001**********                                               0505
B0101400860011488646001**********                                               1605
A0101400860011675338001**********                                               0505
A0101401250000000020424BALIAO, JOVITA LINGGON                                   0505
B0101400600071396916001II                                                       1605
B0601400100081013041001SEVERINA REALTY CORPORATION                              1603
B0601400100081675425001VIRTUAL LANDHOLDINGS DEVELOPMENT GROUP                  11601
B0601400100081675425001CORP.                                                   21600
A0601400520000005001323CUIZON, MARIA LUZ AQUINO                                 0502
A0101413280000000041852OLA, EDAM CRUZ DBU HIJK SHIRT                           10502
A0101413280000000041852PRINTING & DESIGNS                                      20500
B0101413730000000144681*******************                                      1601
B0101410850000001229852SWM SHIPMANAGEMENT INC.                                  1610
A0101400730111386485175IVANHOE O. MARASIGAN                                     0502
A0101401830141060435001AMBM ELECTRICAL SUPPLY AND                              10501
A0101401830141060435001SERVICES                                                20500
A0101401830000001281943ISUGA, CORAZON JOY TEANO                                 0501
A0101401830141546547001REATAZA, NELIA MORABE                                    0503
A0101400440161525001103OFELIA B. OLERMO                                         0501
A0101400440161525001119NORA S. TALENTO                                          0501
A0101407270162036357001CIRCLES PLASTIC MANUFACTURING                            0510
A0101401090000001618822AVGENT COPY CENTER                                       0502
A0101401090171195893001DR. RICARDO AGBAYANI                                     0501
A0101401090171672462001BIENVINIDO R. MAGCARANG                                  0501
A0301400530000002318561VILLANUEVA, FEDERICO MAGPAYO OR                         10501
A0301400530000002318561VILLANUEVA, MARI                                        20500
A0301400530000003573493MORENO, ISAIAS LOYOLA                                    0504
A0301400950000002252051**********                                               0503
B0101401380201041467001D' GREAT ROVERS EVENTS                                  11602
B0101401380201041467001MANAGEMENT                                              21600
A0101401380201436370001MONSALE, MENLY ABENOJA                                   0502
A3101400450223019912001LAGUNA HEALTH SERVICES                                  10510
A3101400450223019912001COOPERATIVE                                             20500
B3101400450223647264001BIO-AGRITECHNOLOGY INC.                                  1603
B3001400130230042943088VENTURA PLYWOOD PHILIPPINES INC.                         1610
A1001400190231478374116ESTRELLITA E. BERMUDEZ                                   0501
B1001400350233036707001KASANAG DAUGHTERS FOUNDATION, INC.                       1602
B1001400350233512004001VILLALBA, CHARLIE L.                                     1602
A1301400470252497161001LUCILA L. DELA CRUZ                                      0503
A1301400470252507660003JANE V. JUATCO OR                                       10504
A1301400470252507660003FLORENCIO M. JUATCO JR.                                 20500
B0101401670000000178552LA JOYA PROPERTY HOLDINGS, INC.                          1602
B0101401670271020886001AR INSURANCE AGENCY, INC.                                1602
B0101406620273037461002FIRENZE CORPORATION                                      1602
A0101406620000000193840TAN, APRIL LYNN LEE                                      0501
A0101406620000003661578TAN, APRIL LYNN LEE                                      0501
B0101408660274036067001FABRIDUCT AND METAL SYSTEMS, INC.                        1604
B0101411110000000009098NET4SITE PHILIPPINES INC.                                1602
A0101412470000002135940KUNG, SUSAN GO                                           0502
A2601400270000002312101NELIA A. CORTEZ OR MARVIN T.                            10501
A2601400270000002312101CORTEZ                                                  20500
B2601400270302047342001WOODSIDE PROPERTIES AND LAND CORPORATION                 1601
A1101400120000000992394REYES, CRISTINA MARIE OCASLA                             0502
A3401400280000003309208CAPCOR MOTORS CORPORATION                                0502
B0101402350321046288001TMI FOOD PROCESSING & DEV. INC.                          1602
A0101402350321416175001MORILLO, ZENAIDA MACASAYA                                0502
A0201400760000000222864SMART RESIDENTIAL MAINTENANCE                           10503
A0201400760000000222864SERVICES                                                20500
B0201400920375036273001PROFOOD INTERNATIONAL CORP.                              1604
A0201400890376080642001GALANG, LORLIE PACURIBOT OR                             10502
A0201400890376080642001GALANG, GLENN AN                                        20500
B0101408790383040950001REDDS CONSTRUCTION & DEVELOPMENT                        11603
B0101408790383040950001CORPORATION                                             21600
A0101411660000000595222ANITA PINEDA SISON                                       0503
B0101411660000000032242ALERT GENERAL SERVICES CORPORATION                       1605
A0101405490000002141020APOSTOL, MARIA  CELINA ALARCON                           0501
A0101405490000004352976GAYO, SHERYLLYN BAGASBAS                                 0501
A0101405490392552022001MARIA THERESA D SOLIS OR                                10501
A0101405490392552022001BENJAMIN D. SOLI                                        20500
A0101408400394311423002GUEVARA, NORMA RAYOS DEL SOL                             0501
A0101408400394459747001VELASCO, GUIA SOL BERNAL                                 0503
A0101408400394471974002PESICO, GINA GERALDINO                                   0501
A0101408400394473872001ARCA, ROWENA LUGTU  OR                                  10501
A0101408400394473872001ARCA, EMMANUEL D                                        20500
A0101408400394547873001MERCADO, SOLEDAD MENDOZA                                 0501
A0101408400394569664001DALUSAG, MARY JANE ORIS OR                              10501
A0101408400394569664001NUNEZ, SHIRLEY M                                        20500
A0101408950000002255370CHIA, CATHERINE ANNE TEO                                 0503
A2401400180000001677001WONG, RUDILYN ARSA                                       0501
A2401400180411333023088BOHOLST, PERCY SISTOSO                                   0505
A2401400180411478374047YOLANDA L. NINGAL                                        0501
A1201400150421252661001JOHN KWAN OR JENNY KWAN                                  0504
A1201400150421304908001ARSENIA G. SUMADCHAT                                     0502
A0101412890000000371431GINA B BARBUENA                                          0501
B0101403320000000037567EESC CONSTRUCTION INC.                                   1601
A1901400160491422212001OLIVER B BORILLO OR                                     10503
A1901400160491422212001MARIBEL C BORILLO                                       20500
B1401400110000005945457POWERPHIL HR NETWORKS, INC.                              1603
B0101407430503032802001FLIGHT CARE AVIATION PHILS. INC.                         1602
A0101407430503036416001JUPITER'S BUTCHER SHOP                                   0510
A0101407430503041466001AFCSI-ASIA FREIGHT FORWARDERS                            0502
A0101407430000003193946LOPEZ, JENNIFER N. DBU JLO HIGH                         10501
A0101407430000003193946PERFORMANCE MOTOR SHOP                                  20500
A0101403580511156578022YUKIO YAMASHIRO                                          0501
A0101403580511242579001RITA M. ESTELLA                                          0508
A0101408530516499116001***********                                              0503
B0101411790000003252520RE'DIS GLOBAL CORP.                                      1603
A0101411790000000469596**********                                               0501
B0101403450521011938001FAS DEVELOPMENT CORPORATION                              1603
B0101403450521078888003PUREGOLD PRICE CLUB, INC.                                1620
A0101403610531581656001RECASATA, MARIA CATHLEA T. OR                           10501
A0101403610531581656001TROZADO, FELICID                                        20500
A0101403610531792048001MORDIDO, IRMA GAMBA                                      0502
B0101404000551038491001BLUE ANGEL KARAOKE BAR, INC                              1602
A0101404000551519226002FAUSTINO, MANUEL ORDOVEZA OR                            10501
A0101404000551519226002FAUSTINO, RICARDO O                                     20500
A2201400250561299317001MIRASOL M. SAN SEBASTIAN OR                             10501
A2201400250561299317001ALLAN M. SAN SEBASTIAN                                  20500
A2201400250000001545513RIVERA, RONNIE FERNANDEZ                                 0501
A0101404130000002121102LEDESMA, STEPHANIE BEATRICE JAN                          0501
B0101404130601045483001NORTHSTAR TECHNOLOGIES INDUSTRIAL CORP                   1603
A0101404130601150580001WERLE P. GALANG                                          0502
A0101407720602242690001LIDA J. JUGO                                             0503
A0101407720602398542002DR. ROBERT DENNIS J. GARCIA                              0502
A0101407720000000713006BISQUERA, MARY ROSE YAP                                  0504
A0101407720602547907001DR. CORINA MAE G. TIU-DY                                 0503
A0101407720602549119001SANTOS, EDGAR JOLLY PEREZ                                0503
A0101413570000005688071PILAR MARIA BALTAZAR                                     0501
A0101414120000000875521GERARDO BALA OR MARIA CONSUELO                          10501
A0101414120000000875521BALA OR DIANA PATRICIA                                  20500
A0101414120000000875652PABLITO OR RONALD JOHN OR                               10503
A0101414120000000875652PRINCESS JOY OR                                         20500
A0101406590000000131579JEREZ, JOANNE ROXANE DBU                                10502
A0101406590000000131579ROXIEMAR CONSTRUCTION                                   20500
A0101406590662689114001ALVAREZ JR., AGUSTIN PARAFINA                            0501
A1301400340683478374030JENELYN M. VIOLANDA                                      0501
A1301400500000000213265VINCENT P. JAVIER OR                                    10505
A1301400500000000213265TERESITA F. JAVIER                                      20500
A1301400500684635536001JOSELYN D SANTOS OR                                     10501
A1301400500684635536001EDGAR D VILLAR J                                        20500
B1301400500000005963164LOPEZ, VIRGINIA GADI OR ANGELES, RUTH                   11602
B1301400500000005963164MAGTOTO                                                 21600
A1701400230000000097734LUIS, CLEMENTE J. OR OFELIA VIC                         10503
A1701400230000000097734TORIA OR CARMELL                                        20500
B2801400100000004560025MONTEONE CONSTRUCTION CORPORATION                        1603
B4101400260812046575001INFINITE NATURALLE GROUP CORP.                           1601
A0101404840000002327799TANTIADO, CHERY MICHELLE LIRIO                           0502
A0101404840000004565862CLOTILDE P. ARROYO                                       0501
A0101406750000000172763HATANO, CYNTHIA VELARDE                                  0502
A0101406750000004642200SARMIENTO, MARIE ANNE RIVERA                             0501
B0101406750000000090884TAMBO REALTY CORPORATION                                 1605
B0101406750000000090895MEGA PACIFIC PROPERTY HOLDINGS & DE                      1605
