F0101414090000002244760DELOSANS CONSTRUCTION AND DEVEL                          2601CK1
F1001400190231048773001MSU-IIT NMPC COGON-CDO BR.                               2601CKR
F1901400160491043709016CYNTHIA C CRESENCIA                                      2501CKO
F0101407720602404950001ADAPON, MARY ANN ARKONCEL                                2502CKO
