B1301400760253821100608**********                                               2003
A7201400170000011454390ANDIGON, GINA NANO                                       0501
A0101401250021039948001HARI GARMENTS MANUFACTURING                              0502
A0101400150000001422280BELVEDER, EZECHIEL ODULIO                                0501
B01014001500610108470016776 AYALA AVE. CONDOMINIUM CORP.                        1605
A0101400150061338964181ROSE H. LABAYO                                           0501
B0101400150061591606001NICKEL ASIA HOLDINGS INC                                 1601
A0101400600071057858001BESTA SHIPPING LINES, INC.                               0503
A0101400600000001335499********                                                 0502
B0101405810072019239002ROYAL PINNACLE ESTATES CORP.                             1602
B0101405810072030270001VITALIANO INC.                                           1603
A0601400100000001442882REYES, MARION AQUINO                                     0501
A0601400100081025360002AMOR REFRIGERATION & AIR                                10502
A0601400100081025360002CONDITION REPAIR                                        20500
B0601400100000005690393J.C DAVID & ASSOCIATES, INC.                             1602
A0601400100081254011001PANLILIO, MARIE CARMEN OR                               10501
A0601400100081254011001PANLILIO, AUGUST                                        20500
A0601400100081388417001ALONZO, MA.EFIGENIA DEL ROSARIO                          0501
A0601400100081639196001DIMALANTA, ANALYN TEGIO                                  0502
A0101400730111334903020SALAZAR, MARIAN TUBIG                                    0502
B0101400730111482881001CASA BOCOBO HOTEL, INC.                                  1605
A0101401960000000211025ESTELLA, ROGELIO TAN                                     0501
B0101413150000000038593******                                                   1601
B0101401830141058941001WRIGHT, WILLIAM SISON DBU                               11601
B0101401830141058941001CMWW TRADING                                            21600
A0101407270000004915891QUELAPIO, GERALD CEZAR CASTRO                            0502
A0101407270000013188273MAGAUAY, NELIEZA SANTOS                                  0501
B0101407270162062905001REXXIN PLASTIC PRODUCTS INC.                             1610
A0101407270162501845001PINILI, DOMINIC MANABAT                                  0502
A0101407270162784731001DELOS SANTOS, NIDA ANG                                   0501
A0101407270162784731001DELOS SANTOS, NIDA ANG                                   0501
A0101401090171200079001SUAREZ, CONSUELO GONZALEZ                                0501
A0101401090171355654001MA. ELENA ISABEL TRINIDAD                               10501
A0101401090171355654001DELOS SANTOS                                            20500
A0301400530193340608001********                                                 0501
A0301400660000006862593VILLAGRACIA, FERNANDO                                    0502
B0301400660000008941033FERNANDEZ, GIL BREINARD SY OR                           11605
B0301400660000008941033REPONTE, RUBELYN                                        21600
B0301400660000012086652**********                                               1605
A0301400790000002301393BARCELONA, JANET TIZON                                   0501
A0301400950000010424852CANUSA IV, MENDRADO OR                                  10502
A0301400950000010424852CANUSA, CHRISTINE MARIE                                 20500
A0101401380201397314002ONG, JERRY ANG                                           0505
A0101401380201500598001CARREON, DAISY FONG OR CARREON                          10501
A0101401380201500598001JR., PONCIANO SIKANGKO                                  20500
A0101401380201599894001CHUA, WILLIAM SOL CRUZ                                   0502
B0101412500000000041670MOLDEX REALTY INC.                                       1603
A0101413600000005355222FERNANDO O. MENDOZA                                      0501
A3101400160221519790001MALAYA JR., ELI RODRIGUEZ                                0502
B3101400450223022719001GENCARS SAN PABLO, INC.                                  1610
A3001400130000008264762RICHELLE SUMIPO DRESSED CHICKEN                          0501
A3001400130230478374028MAGLASANG, ELIZABETH DAHANG                              0502
A3001400130000001261249BANJAO, JENELYN LARA                                     0501
B1001400190231273242001INTEGRATED LIVESTOCK & POULTRY                           1601
A1001400480000010131509LADRADA, CARLITO MABAO                                   0501
B1301400760000010656852MARY JANE SIOJO ENTERPRISES                              1603
A1901400290000003252775MARIFE SIMONDAC GUITES                                   0501
A1901400290261405037001DENNIS L ATIENZA OR MARIA                               10502
A1901400290261405037001SOCORRO K ATIENZA                                       20500
B0101406620273000377001HONGKONG & SHANGHAI BANKING CORP. LTD.                   1601
B0101406620273009530001MCRP CONSTRUCTION CORPORATION                            1605
B0101406620273025607006DELL EQUIPMENT & CONSTRUCTION CORP.                      1601
B0101406620273033463001ARL BUSINESS CONSULTANCY, INC.                           1602
B0101406620273036337001MAX FAIR GROUP PHILS., INC.                              1605
A0101406620273284854001JOCELYN LI                                               0501
A0101406620273359512001ANALISA M. CABALLAR JT                                   0502
A0101406620273359512002CABALLAR, ANALISA MANCENIDO                              0502
A0101406620273420925001NAING, MILBOON TRINIDAD                                  0501
A0101406620273537726001CONDES, ELMA MARCHADESCH                                 0501
A0101408660274506864002**********                                               0501
A0101408660274506864002**********                                               0501
B0101411820000003085112HARDCOM COMPUTER SYSTEM CO.                              1601
A0101411820277789246002CORNEJA, SHERWIN                                         0501
A0101412470000000853834CHUNG, EUN JOO                                           0502
B0101412470000003847472**********                                               1602
A0101400570000000749680RUEDA, JOSEPHINE REYES                                   0501
A0501400200292502440001ONTALAN III, FRANCISCO KUAN                              0503
A0501400200292567569001LARILYN D. GATCHALLAN                                    0501
A2601400270000000084433FERDINAND SENDIN DBU SENDIN                             10510
A2601400270000000084433GRAINS&MILLING CENTER  JT                               20500
A0801400160000004224144EMPLOYEES OF TRANSCOM WORLDWIDE                          0501
B0801400160311035991001HAPI ILOILO CORPORATION                                  1601
A1101400120313478374093GIMARANGAN, JINKY A.                                     0501
B2001400290315042342001LUZON RAM CYCLES, INC.                                   1601
B2001400290315042343001VISAYAS RAM CYCLES, INC.                                 1601
A0101409050000012667426CHARLZ ADANO                                             0502
A0201400760000008869812LAGASCA, JACQUELYN CABELIN                               0502
B0201400760374042394001GOTHONG SOUTHERN SHIPPING LINES INC                      1601
B0201400760374047544001GODSPEED MEGAMERCHANTS CO. INC.                          1601
B0201400920000011194095LIM, IZAK KIEFER LEE OR LIM, PERRY TAN                  11602
B0201400920000011194095OR LIM, ESTER                                           21600
A0201401020000005250691PANGATUNGAN, ALEMODEN AYING                              0502
B0101402930381022589001ALAD MINING AND DEV'T CORP                               1602
A0101402930381423656004MADELINE ZIALCITA-VILLAPANDO                             0501
B0101402930381525358001MIRACLE SOYBEAN FOOD INTERNATIONAL                       1601
A0101408790000010423331VILLACORTA III, BENJAMIN M.                              0501
A0101411660000005324072MAMA, SALMA MACARIK                                      0501
B0101402770391026829002CIGEL INDUSTRIES                                         1601
A0101402770391211266001GELING JR., CIRIACO IGUAL                               10501
A0101402770391211266001OR GELING, NANCY AQUINO                                 20500
A0101405490000010702091DARYANANI, RAVI HIRANAND                                 0502
A0101408400394456995001KHATNANI, ASHOK HARKISHAN                                0501
A0101408950000000472913ANGELES, ARNOLD DIOSDADO SILVA                           0502
A0101408950000013182155OLIQUIANO, GERALD BIMBO ECHANES                          0501
A0101408950000013182246LOPEZ, CHENEE CALLEJA                                    0501
B0101408950000002768427FWD LIFE INSURANCE CORPORATION                           1615
A0101408950396483245002LEDESMA, KATHLEEN ROSE VARANDMA                          0501
A0101408950000012458492TY, MARIA JOAN RANOSA                                    0503
A0101408950000007458862CHIO, NANCY BORJA OR                                    10502
A0101408950000007458862CHIO, MARTIN CLARENCE                                   20500
A0101409210000013179745ANGELES, ETHEL MARIE TIGLAO                              0501
A0101409210000013179814NIVAL, JONAH VERLIENETZ INOSANT                          0501
A0101409210000013179881CABIGON, JULIUS IVAN FANILAG                             0501
A2401400180411284689001DEMONTANO, RODOLFO BARROSO                               0502
A2401400180411472836003OMEGA, LEE ANN GENILO                                    0502
A2401400180411587639001GILBERO, EVELYN BUT-AY                                   0502
B0101412890000003727924R. ABALOS CONSTRUCTION CO.                               1630
B1901400160491012917002ALPS THE BUS INC.                                        1602
B1901400160491012917004ALPS THE BUS INC.                                        1602
B1901400160491012917005ALPS THE BUS INC.                                        1602
B1901400160491017583006SAN ISIDRO MULTI-PURPOSE COOP.                           1601
A1901400160491048459001KLENSTAR MANPOWER SERVICE                               10502
A1901400160491048459001SPECIALIST                                              20500
A1901400160491307939001EDWIN P CHUA OR EDDIE P CHUA                             0502
B1401400110000004461961CLICK START BATTERY CENTER, INC.                         1602
A1401400110000002286815TELAR, NEPOMUCENO LORETIZO                               0502
A1401400110492313436002CRIZALDO D VALBUENA                                      0502
A1401400110492370418001ALMARIEGO, HELGA ALMACEN                                 0501
B1601400170000000497030GLOBALINK NETWORK INTERFACE INC.                         1610
B0101407430000001213056AERO EQUIPT AVIATION INC.                                1601
B0101405940512005312002SHASTA CONCRETE SYSTEM                                   1605
B0101405940512041188001PREMIUM WINE EXCHANGE INC.                               1601
A0101408530000002260037************************                                 0501
B0101408530000001275230PHIL-BIKE CONVENTION INC.                                1601
A0101408530000002980761ADRANEDA, JOSE VICTOR                                   10503
A0101408530000002980761AVIGUETERO                                              20500
B0101411400000001280502PHIL. TRAVEL A LA CARTE INC.                             1601
A0101403450000001769975**********                                               0501
B0101403450521011832001SEABULK MARINE CORPORATION                               1601
B0101403450521011838001**********                                               1601
B0101403450521038170002EVERGREEN ASIA FABRICATION WORKS                         1601
B0101403450521038888001**********                                               1601
B0101403450521078888003************                                             1601
A0101403450521238621001**********                                               0501
B0101403450521238621002**********                                               1601
A0101403450521356203002**********                                               0502
A2201400250561424692001JUDITH C. DELA VEGA                                     10502
A2201400250561424692001OR HAROLD P. DELA VEGA                                  20500
A2201400250561503884001DELIE C. CASTILLEJO                                      0501
A0101404130000009533382PANTIG, MARY GRACE GARCIA                                0501
B0101404130601025459001RAMOS, RONALDO B. DBU ERICMAN PRINTING                  11602
B0101404130601025459001SERVICES INC.                                           21600
B0101404130601100142001FOOD INDUSTRIES, INC.                                    1603
B0101407720000007951844SNOW WHITE WELLNESS & BEAUTY SPA INC.                    1601
A0101407720602373364001MACALINTAL, MERCEDITA OR                                10502
A0101407720602373364001MACALINTAL JR. NAZARIO                                  20500
A0101404260000006374376DENSING, CRISTETO BRAGAT                                 0502
A0101404260611406159001VIVO, RODRIGO OR RODRIGO PEDRO                           0501
A0101404260611446831001PABICO, ALEJANDRO AREVALO                                0501
A0101409890000006800039GORGONA, SEM OR ARENZANA, GAMAL                         10502
A0101409890000006800039IEL OR LAURA, LE                                        20500
A0101411530000005493730**********                                               0501
A0101413570000004353731CRUZ, JOSE MA. ALEXIS CONGCO                             0501
A0101413990000002962850NUGUID, JOSE LEANDRO L. OR                              10501
A0101413990000002962850NUGUID, TRICIA MICHELLE D                               20500
A0101413990000006278237DE CASTRO - AGBUYA, HAYDEE AMOR                          0501
A0101413990000006434897CASTILLON, DARIAN M. DBU                                10501
A0101413990000006434897D-MANGADA BAG REPAIR SHOP                               20500
A0101414120000006005298ROY, REY GUIANG                                          0503
A0101414120000011765149CALUB JR., NAPOLEON FONTANILLA                           0501
A0101414120000000875834GCI TRANSPORT                                            0502
B0101414120000000399060ALGIRA CORPORATION                                       1603
A1301400210000009982198PAULINO, ALEXANDER SARMIENTO                             0501
A1301400210000009982518IMCS TRUCKING                                            0505
B13014002100000081738601960 METAL INDUSTRIES INC.                               1604
A1301400340683249866001XXXXXXXXXXX                                              0506
A1301400500000000213043DE LEON, ARLENE PLAZA                                    0502
B0101408240000002419941ALFONSO GAS & FUEL STATION, INC.                         1602
A0101408240000001038846AMORANTO, ROMMEL OR MARLENE OR                          10501
A0101408240000001038846OMARK OR ROBIN OR STEFFI                                20500
A4101400390000000379373CHUA, MARIA MILAGROS LIM                                 0501
B4101400420814034594001ROTARY CLUB OF IMUS                                      1601
A4101400420000003715622LACANARIA, ANGELICA ENALES DBU                           0502
A4101400420000000120856NAPILI, EMELY DACOYCOY                                   0502
A4101400420814443810001DORIO, MELANIE AQUITANA                                  0501
A4101400420814520766082TIHUME, NOEMI C.                                         0501
A4101400550000000315182MARGAJA, FELICITA BITOR                                  0502
A4101400550000010508584SAGUION, ALEX MALAPO                                     0503
A0101412340000005496591LANCELOT C. DATUIN                                       0501
A0101412340000003349193MARISSA MAE R. TANA                                      0501
A0101404840000010969283CUMPAS, ALEXANDER ACOSTA                                 0501
A0101406750852478374065MARIVEL L. MANGUERRA                                     0502
