B0101407430503821100608**********                                               2010
B0101405650322821100608**********                                               2005
B0501400170481821100608**********                                               2010
B0101409500473821100608**********                                               2005
A2401400180000005536698CASTILLO, ROBERTO ALCASID OR                            10501
A2401400180000005536698CASTILLO, JULIET NALUZ                                  20500
B0101412470000003847450EVIZA HEALTH SOLUTIONS INC.                              1603
B0101400440161026216001TELEGA, INC.                                             1605
A0101400440000003705957OFELIA R. LEYSON                                         0501
A0101400440000004901440NLR INSURANCE SERVICES                                   0505
A0101400440161525001070MARIBEL S. SOLEDAD                                       0501
A3101400870000005992783PANTALEON, CONCEPCION CASTILLO                          10501
A3101400870000005992783OR PANTALEON, MARLON                                    20500
A1001400350000000922394GAID, MARILYN SAGUING DBU GMG                           10501
A1001400350000000922394GENERAL MERCHANDISE                                     20500
A2001400290000006036751SINGGO, TYRONE DOCTO                                     0501
A0101408370382502182001CHRISTOPHER OLIVER NAZAL OR                             10501
A0101408370382502182001MARILES HERNANDEZ-NAZAL                                 20500
B1201400150421013242002NORTH QUAD CREDIT CORPORATION                            1601
A1201400150421254262001RENATO ROMERO &/0R                                      10501
A1201400150421254262001MA. GRACIA G. RO                                        20500
B0101403320471022749001LES SACS MANUFACTURING                                   1602
A0101403320471209343001SHERLITO OR PRISCILA BERNAL                              0501
A0101403320471463722001ARMANDO DACANAY                                         10501
A0101403320471463722001OR ALONA DACANAY                                        20500
A0101403320000000067532YAGUEL, SALVE L.                                         0502
A0101404000000003707260ROMMEL DELA CRUZ PANTANILLA                              0501
A0101404000551405189001DE LA CRUZ,AURELIO JOHN LEDESMA                          0501
B0101400150000001708692UNITED CORE GROUP ASIA, INC.                             1602
A0101400150061430140001**********                                               0501
A0101400150061529770001CRUZ, ERLINDA OR                                        10501
A0101400150061529770001CRUZ, VERONICA GRACE                                    20500
A0101400600000000007616ANGEL T. CONCEPCION JR. OR                              10503
A0101400600000000007616MAJA MARIE C. CONCEPCION                                20500
A0601400100081382138001MANGUERRA JR., WILFREDO TORRES                           0510
A0601400100081382138002MANGUERRA JR., WILFREDO TORRES                           0510
B0601400360000000978936THE MEDICAL CITY CLARK, INC.                             1610
A0101413730000000469701********************                                     0501
A0101400440161520766042MONINA H. DUKA                                           0501
A0101400440161525001104EVELYN G. GARCIA                                         0501
B0101407270162040845001RDJ INDUSTRIAL SUPPLY, INC.                              1603
A0101407270162587936002WILFRIDO G. TIRONA                                       0501
B0101401090171026286001UST COL. OF ARCH. ALUMNI ASSO., INC                      1605
A0101401090171198365001JHONA L. FREO                                            0502
B0301400530193038166088FUTURE OPTIONS DISTRIBUTION SYSTEM, INC.                 1605
A0301400530000003573368DAGONDON, NINA SORIANO DBU 3EN'                          0503
A0301400530000003573404V8 AGRIVET AND FARM SUPPLY                               0501
B0301400660194046073088WEST EMPIRE SEAFOODS AND CHINESE RESTAUR                11610
B0301400660194046073088ANT                                                     21600
A0101401380201079813001CHOI, JIANN                                              0502
A0101401380201704606001AMING, HAKIM TAWASIL                                     0501
A3101400740224651043001TORRES, REYNEN SABIO OR                                 10505
A3101400740224651043001TORRES, JOANNE R                                        20500
A1001400190231478374128BONIFACIO, LIZA                                          0501
A1001400350233478374020ELMA O. GAWAT                                            0501
B1001400480000000133268**********                                               1610
A1001400480000003357544MORENO, ELEANOR PANARES                                  0503
A1901400290000003252673CASTILLO, RACHEL ACALLAR                                 0501
A0101406620000000193760DIAZ, FRANCIS PATRICK TAYENGCO                           0501
A0101406620273505335001MA. TERESITA L. ROCA OR                                 10502
A0101406620273505335001AGNES HILDA L. R                                        20500
B0101406620273692749001EAS GROUP ASIA INC                                       1603
A0101411820000002328598ALBERASTINE, RUBE OBEMIO                                 0503
A0101400570281361144001ERIC G. IDIESCA                                          0501
A0501400200000000473881******                                                   0501
B0801400160311034965001RACSO'S PETRON STATION                                   1605
A3401400280000000972801FIGUEROA, MA. ANTONETTE HONRADO                          0501
A3401400280000001723531PAJUTINING, JANICE GIGAN                                 0501
B0101402350321012513001CONNER HARDWARE CORP                                     1601
B0101402350321039906001SHAWN MARTI ENTEPRISES                                   1603
B0101405650322652077001CHICK FLICK FASHION COLLECTION INC.                      1601
A0101402510341202763004JULIA M. MORENO                                          0501
A0101402060000002258897***********                                              0502
A0101409050000004855001RICHARD RAYMUND DAYUNOT                                  0501
B0201400760000005156452REAL IMAGINATION HOME & GARDEN                          11602
B0201400760000005156452FURNISHINGS                                             21600
A0201400890000001716412UY, FAIRLIE TAN                                          0501
A0101402930381687257001MARQUEZ JR., JUANITO GONZALES                            0501
A0101408370382593318001DRS. MICHAEL JOSEPH B. REYES OR                         10501
A0101408370382593318001SEIZAN MARIE E. REYES                                   20500
B0101408790383039290001AUTO SOURCES INC.                                        1605
B0101402770391009343003STEELITE CONSTRUCTION CORPORATION                        1602
A0101408400000004490244JISON, VICTOR LEDESMA                                    0502
A0101408400394517830001LORENZO, JOEL M. OR                                     10503
A0101408400394517830001LORENZO, JOYCE T                                        20500
A0101408400394650469001SALAMANCA, JOSEPHINE MOJICA                              0501
A0101408950396562558001DR. LEIZL TUMANDA CANONIGO                               0503
A0101408950396709443001CABALUNA, MA. LOURDES JOSEFINA                           0510
B0101415190402821100608**********                                               2001
B0101415190402821200608**********                                               2001
A0301400820000002106310AQUINO, ROLAND RAPHAEL A.                                0501
A2401400180000005536687YAP JR., ENRIQUE BARRERA                                 0504
B2401400180411044070001MABUHAY TECHNOPARK CORPORATION                           1602
A2401400180411442136088***************                                          0501
A2401400180411478374061JUNRES AGAD OR                                          10502
A2401400180411478374061NORMELITA BLANCO                                        20500
B0901400220000000012175FLORIVEL M. DE JESUS ACCOUNTING OFFICE                   1602
A0101406330472027958001A. ANOLIN ENTERPRISES                                    0502
A0101406330472044643001A.S.P. BASIC ENTERPRISES                                 0503
A0101406330000001235272VHANZ HARDWARE                                           0502
A0101406330000001235329BALUARTE TRUCKING                                        0502
A0101406330000000451216MARIBEL P. ZAFE OR                                      10502
A0101406330000000451216NOEL B. ZAFE                                            20500
A0101406330472536028001ARLES MIRANDILLA OR KRISTINE                            10501
A0101406330472536028001MIRANDILLA                                              20500
B0501400170481821200608**********                                               2002
A1901400160491562857001JVICTOR MARKETING CORPORATION                            0510
B1401400110000004461972SUPER MAK FOOD CORPORATION                               1602
A0101407430000006048780MICHAEL S. HILAHAN                                       0501
B0101407430503006760001INTERNATIONAL CONSOLIDATOR PHILS., INC.                  1603
A0101403580511153475001LAURENCITO R. TIU                                        0510
A0101405940512456137001JUDY LIM OR MICHAEL LIM                                  0501
A0101405940512474569001MANAOIS, CYNTHIA HISTORILLO                              0502
A0101408110000001165800GRUTA, VENIZA CAMPOSANO                                  0502
A0101408530000001268480SALAMAT, MARICRIS SUELA                                  0501
A0101403450000001769800************                                             0501
A0101403450000001770065*********                                                0501
A0101404000551229789001GUTIERREZ, ALEXANDRA KATRINA L.                          0501
B22014002500000000169863 KIS FOOD STORE CORPORATION                             1601
A2201400250561253782001VIRGINIA M. ARQUIZA                                      0501
A2201400250561253782001VIRGINIA M. ARQUIZA                                      0501
A0101410690000003027498ILUMIN, VILLA DELOS SANTOS                               0501
B0101407720000000885770LARRS SKIN SOLUTIONS, INC                                1610
B0101404260000004781186GOLDEN ALLEY RESOURCES, INC.                             1602
A0101404260611154350002TEODOSIO, SOL MELANIA PASTRANA                           0502
A0101404260611416854003LLARENAS, MELANIO PARAGATOS                              0502
A0101404260611524854001CLEMENTE, WILMA RUIZ                                     0502
A0101409890649047047001**********                                               0506
A0101409890000002161411LLORICO RODERICK CAMACHO DBU JO                          0501
A0101407690000003207230URBIZTONDO JR., GODOLIVO BUNIEL                          0501
A0101407690652045951001JMK BUILDERS CONSTRUCTION                                0503
A0101407690000001919877RIVERA, CATHYRINE ESTACIO                                0501
A0101407690652768531001CORAZON DE LEON OR JOSE DE LEON                         10501
A0101407690652768531001OR JOSEFA RICASA                                        20500
A0101407690652786467001MADRONO, BENJAMIN PLAZA                                  0501
B0101413570656821100608**********                                               2001
B0101413570656821200608**********                                               2001
A0101406590000002277574ASUSULA, REYNALDO SAYSON                                 0504
A0101406590000005305004LIBUNAO, ALFREDO DE GUZMAN                               0503
A1301400210682478374027MARY ANN M. DE LEON                                      0501
A1301400500000002063992JOSHUA & JAMES CONSTRUCTION                              0502
A1301400500000004093214T ROD ENERGY ELECTROMECH                                10502
A1301400500000004093214TRADING AND SERVICES                                    20500
B4101400260812059608001HEATSENSOR TRADING AND                                  11601
B4101400260812059608001CALIBRATION INC.                                        21600
A4101400260812460928001FELINA S. ANTANG                                         0501
A4101400420814520766012SUSAN B. MALBOG                                          0501
B4101400420814821100608**********                                               2002
A4101400550000000506814DALAGAN, CATALINO B. OR                                 10504
A4101400550000000506814DALAGAN, TERESITA S.                                    20500
A4101400550815047552002SHEILA S. TROVELA                                        0502
A0101412340000003348598MARIANNE B. SABIO                                        0501
A0101412340000001017503ORDONEZ, MAMERTA ALVAREZ                                 0501
A0101404840851478374086EDITHA ALOJADO                                           0501
A0601400230891738531001CHUA, MARK ANTHONY GARCHITORENA                         10502
A0601400230891738531001TAYAO, GILBERT A                                        20500
B0101418100410452000011**********                                               2002
