A4101400260000000002142TAJANLANGIT, JACKIE C.                                   0502
A0101410850000000005778*****                                                    0501
A0101407720000000051112YAMBAO JR., EDUARDO ONGLEO                               0502
A0301400820000000316670TIONG, ARISTON D.                                        0502
A0101401250000000460633MALAYGAY, MARIA FELY SALVINO                             0501
A0101413730000000469147PROLINE PLASTIC CO.                                      0503
A1901400160000000483783CASTOR, PAULA REA SERRANO                                0501
A0101405650000000525853IMELDA B. VILLALON                                       0501
A0101412470000000853834**********                                               0502
A0301400660000001020102RODRIGUEZ, DARREN ALAMPAYAN                              0502
A1001400190000001057614ENDERES, EMMANUEL                                        0501
A2201400250000001066073JCP AND 3 SONS TRADING CO.                               0501
A6601400120000001370718CABAEL, ALFIE TANO                                       0501
A0101400730000001822806LEE, R DBU ROLIM MARKETING                               0502
A0101412630000001823310SALVADOR, ARLENE IGNACIO                                 0501
A0101408400000001952770MERIAN B BUERE                                           0501
A0201400760000002047365ALONZO, GABRIEL UY                                       0505
A0301400790000002301273DANGCALAN, MARITES DALOGDOG                              0501
A0101411820000002328510ORSOLINO, KRIS PACRIN                                    0501
A0101400570000002329820AGONCILLO, SHERYLLE JANNE ANN R                          0501
A4101400420000002345280ACOL, FELOMINA ADOAN                                     0501
A0101412210000002714570SANCHEZ, CHRISTIAN PAYSON                                0501
A0101400150000002749579ALVAREZ, RODERICK GIANAN                                 0502
A0101406590000003007223EVANGELISTA, LALA MARIE LACSON                           0502
A1901400290000003252633AZUCENA, JAY ERIC LIBRADO                                0501
A0101407270000003253523SALAZAR, GARY SAZON                                      0501
A3101400870000003515444SANTOS, MARIA DOLORES UEDA                               0501
A0101409180000003780067GIGI M. TRINIDAD                                         0502
A0101409180000003780089RAPISURA, SHERYLYN MARIE                                 0501
A0101409180000003780114ROSHEL GUTIERREZ-MADRID                                  0501
A0101409180000003780216APOLINARIO, JOREL O.                                     0501
A0101409180000003780250RELATADO, AILENE S.                                      0501
A0101409180000003780307VILLANUEVA, MELISSA DIZON                                0501
A0101409180000003780341RICHARD CAJES                                            0501
A0101409180000003780392JAO, ERICH LESTER                                        0501
A0101409180000003780410BAUTISTA JR., EDGAR ROLDON                               0503
A0101409180000003780501MANALO, BJORN LLOYD                                      0501
A0101409180000003780632OMER SOFTIC                                              0501
A4101400550000003839327QUIAMBAO, ALEXANDER DORONILA                             0502
A0101409180000003906956ALBERT C. PASICOLAN                                      0501
A0101409180000003906967JAYSON S. AMOR                                           0501
A0101409180000003906978MARIA ISABEL BERNAL                                      0505
A0101409180000003906989LOIDA S. SAMSON                                          0501
A0101405490000004107264JEFFREY A. PALCE                                         0501
A0101412340000004360729JHOANNE CORINTHIA L. DE GUZMAN                           0501
A0101409180000004375257EDMUND ESPARAS                                           0502
A0101409180000004375382TAN, MARK HANSLEY                                        0501
A6601400120000004493590ERIC E. LEBECO                                           0501
A1001400480000004833227VERSOZA, LUZVELINDA LACHICA                              0501
A0101400860011389612002**********                                               0504
A0101401250021478374003FRIAS, CELIA SILVANIA                                    0502
A0101400150061189064001VENTURA, JOSEPHINE BANAAG                                0501
A0101400150061337098171LINDA LIM HONG                                           0501
A0101400150061430140001**********                                               0501
A0101405810072377502002SHI, CAIXIA SY                                           0503
A0101410560110478374013CYNTHIA EVANGELISTA MENDOZA                              0501
A0101400730111203514007UNGOCO, EMMA L.                                          0502
A0101407270162333003007******                                                   0501
A0101407270162587936002WILFRIDO G. TIRONA                                       0501
A0101401090171194540001MA. FRIEDA Z. HAPAN                                      0501
A0101401090171196270001ENRIQUE H. CARANDANG M.D.                                0506
A0101401090171405617001RITA G. DETERALA                                         0501
A0301400660194741928088*****                                                    0505
A3101400450223223458004ALVERO, LEAH AURORA TOLENTINO                            0501
A3101400450223576401001GALLEGO, DHARIA CAJAYON                                  0502
A1001400350233531238001YRASTORZA, MARIA TERESA NERI                             0502
A1001400350233542957001SUMALINOG, RANIE                                         0501
A1901400290261250069001DRA. JABES BUCE CARRASCOSO                               0505
A1901400290261298552066DOLORES SARMIENTO MANGUIAT                               0501
A1901400290261425881003EDITHA A ZARA                                            0501
A0101406460272232218001MARIANO, NORMITA T.                                      0501
A0101400570281186867001DR. DIANA JEAN ROXAS                                     0501
A0501400200292500200002BALLESTA, IMELDA QUIMO                                   0502
A2601400270302574301001ALEX UY TY                                               0501
A2601400270302782510001JENNY C. QUESADA                                         0501
A0101405650322298552009CARMEN T. ADOR                                           0501
A0101405650322551484001CHUNG, PIEN LUNG                                         0501
A0101405650322764401001CASTILLO, RICHARD MICHAEL ORTEG                          0502
A0101402510341243662001BALANZAR, CONSUELO R.                                    0501
A0101402060351553377001ALVAREZ, JACQUELINE BARRION                              0501
A0101408400394550097001AMAGO JR., EDGAR MAGDARAOG                               0502
A0101408950396618195001NAZARIO, JOYCE LARAMINA KAPAUAN                          0501
A5501400120410677345001RODRIGUEZ, KATHEREN T.                                   0501
A2401400180411455559001VENDIX GEN. MERCHANDISE                                  0502
A2401400180411514423001DEALA, BERNARDITA GATCHALIAN                             0502
A0101403030441239005001**********                                               0502
A0101403030441594340001**********                                               0502
A1901400160491339841001MELINDA M ILAGAN                                         0502
A1901400160491659463001GLORIA JARO PENA                                         0502
A0101407430503377193001ROMEO A. MARTINEZ                                        0502
A0101411790518055815087PORTILLO, AARON SAMSON                                   0501
A0101411790518681263002TIMOG, ANALIZA MANAHAN                                   0504
A0101403450521238267001LILY CO                                                  0502
A0101403450521239921088*********                                                0510
A0101403450521240366001**********                                               0504
A0101403450521241279001CHUA GUION HONG OR CHONG, RUBY                           0505
A0101403610531044036001REVLINE ELITE AUTOWORKS                                  0502
A2201400250561258530008MARY JANE A. LEE                                         0501
A0101407720602318369117ORLANDO A. RUIZ                                          0501
A0101407720602496503027JEMELL R. OCAMPO                                         0502
A0101404260611478374075VIVENCIA HATOL                                           0501
A0101404260611478374076NEREZA P RULL                                            0501
A0101404260611478374104JUDITH R LUMBO                                           0501
A1301400210682478374062MA. ERLINDA C CHUA                                       0501
A0101408240711381161001GUADA C. SANTOS                                          0510
A2801400100712039498002VECTOR PEST CONTROL                                      0502
A4101400260812681817001VICEDO, ERMINDA VILLAFLORES                              0501
A4101400390813478374053VILLAVICENCIO, ERVIE RATONEL                             0502
A4101400420814520766121LOBATON, JENNYLN                                         0501
A3101400870000000957655BITHAO, C DBU BP-1 CAR AUDIO                            10502
A0101408240000001038788MAGAT, GRACE JOVEN OR                                   10501
A1601400170000001069170GILDA MAY S. BITARA OR                                  10503
A0101401090000001619030PESO, MARIA CECILIA S. OR                               10501
A3401400280000001723520VICTORIANO, MARIA GLYNNA JOY                            10502
A0501400200000002306070ORPIA, MARY HAZELLE BRAULIO OR                          10501
A0101406460000002330643CHAN, SUSAN CHUA OR CHAN,                               10501
A0101401250021309334001NAIDA T. TALIMAN AND                                    10501
A0101401250021709223001ROLANDO F. ASTILLERO JR. OR                             10501
A0101401830141070560001MARIANO, DERICK OR HECITA,                              10501
A3101400450223483002001BUENAVENTURA, ANNA KARINA OR                            10501
A3101400450223701659001GRANT INSTITUTE OF TRADE AND                            10503
A3101400870225057529001TEH, G DBU FRENWAY PRODUCTS                             10501
A1001400350233528399003KO, JOSE NELSON AND                                     10501
A1301400470252524992001FLOR M. CUCIO OR                                        10505
A1901400290261244344001AVELINA B DE GUZMAN OR                                  10502
A1901400290261323396001VERONICA PEREZ CADAVONA                                 10505
A0101400570281021967001CHANGING DIGITAL IMAGING                                10501
A0101402770391197949001MELODIE U. ANG OR                                       10501
A0101405490392473595001REMBERTO Q. CALIP JR. OR                                10501
A0101405490392758395001ROBERTO V. SALAS OR                                     10501
A0101408400394401247002CAPISTRANO, LORALAI REYES OR                            10501
A2401400180411478374062DAVIS, PEPITO MALINAO OR                                10502
A0101404130601451645001MONTEBON, LYN RHONA F. OR                               10501
A0101408240711323526001SHIRLEY A. MANESE OR MARIA                              10501
A0101408240711395808001HERMENEGILDO P. MANZANO JR. OR                          10502
A3101400870000000957655AND ACCESSORIES                                         20500
A0101408240000001038788MAGAT, JAMES TORRES                                     20500
A1601400170000001069170FRANCIS RAEL C. BITARA                                  20500
A0101401090000001619030AQUINO, MARIA CRISTINA S.                               20500
A3401400280000001723520DELA CRUZ                                               20500
A0501400200000002306070PEREZ, RONALDO PANTIG                                   20500
A0101406460000002330643ANDREW G.                                               20500
A0101401250021309334001S.MA.APOLONIA S.DUMANDAN                                20500
A0101401250021709223001GINA A. ASTILLERO                                       20500
A0101401830141070560001JOSEPHINE OR HERNAN, MARI                               20500
A3101400450223483002001SOFIA OR ESEO, GUIA                                     20500
A3101400450223701659001TECHNOLOGY                                              20500
A3101400870225057529001MARKETING OR CHUA, GERALD                               20500
A1001400350233528399003KO, CHARMAINE                                           20500
A1301400470252524992001FELIPE R. CUCIO JR.                                     20500
A1901400290261244344001BENJAMIN D DE GUZMAN                                    20500
A1901400290261323396001OR RONALD M CADAVONA                                    20500
A0101400570281021967001GRAPHIC                                                 20500
A0101402770391197949001JO ALLEN U. ANG                                         20500
A0101405490392473595001MYRA C. CALIP                                           20500
A0101405490392758395001ARLYN D. SALAS                                          20500
A0101408400394401247002CAPISTRANO JR.,                                         20500
A2401400180411478374062DAVIS, BERNADITH                                        20500
A0101404130601451645001CAPUCION, ERMA E                                        20500
A0101408240711323526001ELENA M. ISAAC                                          20500
A0101408240711395808001NORMA Y. MANZANO                                        20500
B0101405810000000016811SK PLASTIC RELIANCE COMPANY                              1603
B0101412340000000030979GENNEX SOLUTIONS PHILS. INC.                             1603
B0701400260000000041130TREVOR ETON REALTY CORPORATION                           1602
B0101404130000000696168PHILIPPINE DAILY INQUIRER, INC.                          1601
B0101407270000000830631EERA MARKETING                                           1605
B0101408240000000832962CARMEL LAND SALES & DEVELOPMENT CORP.                    1610
B0101406590000000905511MAINEVENT AND MARKETING CORP.                            1602
B0101406590000000905657BRAINCHILD SIX INC.                                      1602
B4101400260000001199093SOLOMON MULTI-PURPOSE COOPERATIVE (                      1602
B0101405490000001935719KIDSVILLE CREATIVE SYSTEMS, INC.                         1602
B0201401020000002250595********                                                 1602
B0201401020000002250602********                                                 1602
B0201401020000002250620********                                                 1602
B0201401020000002250631********                                                 1602
B0201401020000002250642********                                                 1602
B0101412470000002338912PRESCON PHILIPPINES, INC.                                1602
B3101400870000004821556********                                                 1601
B0101400860011427569001**********                                               1601
B0101400150061057678001TWO PACSTAR REALTY CORPORATION                           1601
B0101405810072029570001PLASTIC CONSUMER CORPORATION                             1603
B0101405810072034989001TRANSWELL ENGINEERING CO.                                1601
B0101407270162008343001SPECIALIZED TRADE & MARKETING, INC                       1601
B0301400660194046300088SAGREX CORPORATION                                       1605
B0301400660194797020088TAN, WILSON PASCUAL                                      1602
B3101400160221020497001AGUA CALIENTE HOT SPRING RESORT                          1603
B1901400290261015948001CANOSSA ACADEMY                                          1602
B1901400290261036122001LODLOD PARISH MULTI-PURPOSE COOPERATIVE                  1605
B6601400120314665528001**********                                               1601
B2401400180411032920001GENSAN AURORA AUTO SUPPLY INC.                           1610
B0501400170481013150001MEDICAL CITY DAGUPAN, INC.                               1603
B0501400170481015881001TOYOTA DAGUPAN INC.-2                                    1615
B0101407430503028651001TMC TRUCKING SERVICES                                    1601
B2201400250561088535001CHRISTOPHER JORDAN L. CHUA                               1601
B0101407720602031597001A.F. NAVARRETE AND PARTNERS CO.                          1601
B0101406590662038794001PRISMODIAL CONSTRUCTION CORPORATION                      1606
B4101400420814047949001SOUTHWOODS SCHOOL OF CAVITE, INC.                        1602
B0101405490392046814001BERNARDO, JOEL DBU JOE-JENN HEALTH CARE                 11601
B0101403450521032691001FEDCHEM MANUFACTURING &                                 11601
B0101405490392046814001SERVICES                                                21600
B0101403450521032691001DISTRIBUTION INC                                        21600
