F0101400570281296116001DR. EDGARDO M. BONDOC                                    2502CKO
F0101400570281465756001DIZON, MARIA TERESA LIM                                  2502CKO
F1001400350000000017063MSU-IIT NMPC CARMEN-CDO BR.                              2601CKR
F0101403290461044268001A.E. JIMENEZ & COMPANY                                   2606CKR
F4101400420814573133002MAGNETICA ELECTRONICS, INC.                              2602CKO
