B1901400160491821100608**********                                               2005
B0101406460272007511001STERLING GIFTS INC.                                      1605
A0101401670000000237701TAYAG, FREDY LINGAD                                      0503
A0101401670000002341646TAN, HINES HENRICSON TAO                                 0501
B0101409760474821100608**********                                               2002
A0101400150000000253358TOLENTINO, PATRICIA BEATRIZ                              0501
A0101400150000008306956VELICARIA, MARIS LOU SELUDO                              0501
B0101400600000000007770******                                                   1601
A0101400600071235565001**********                                               0501
A0101405810072236268001KENG, LOUELLA JOCELYN BARRETTO                           0501
A0101405810072531616001**********                                               0506
A0601400100081040294001MOIKAI INDUSTRIAL SUPPLIES AND                          10505
A0601400100081040294001AUTOMATION SERVICE                                      20500
B0601400100081253610002NG, WILFREDO M. AND AQUINO, JANET B. AND                11604
B0601400100081253610002BUAN, ROLAND S.                                         21600
A0101410850000000005778*****                                                    0501
A0101410850109055934001ANDAL, MARK GREGORY JT DBU                              10510
A0101410850109055934001RUMKOR TRUCKING                                         20500
A0101410850000003503660********                                                 0510
A0101410850109063750002MITRA, LEO ARMILLO DBU DONDON                           10501
A0101410850109063750002JUNKSHOP                                                20500
B0101400730111482881001CASA BOCOBO HOTEL, INC.                                  1605
A0101413310000009300156MULI, PERLITA RUBIANO                                    0501
A0101401830000001281998RIVERA, RAMIL DBU ICON RBR                              10501
A0101401830000001281998GLASS AND ALUMIN                                        20500
A7201400170000007185573ABUBAKAR, RAHIMA MINALANG                                0501
A5001400170000000170163LIM, WERNER W OR LIM, MA. ELENA                         10505
A5001400170000000170163M DBU PRIMUS VENTURE                                    20500
A5001400170000002288242AJOC, RODOLFO PAPELLERAS OR                             10504
A5001400170000002288242AJOC, MARY JUNE BERMUDO                                 20500
B0101400440161037389001GREAT WAY HARDWARE                                       1602
B0101400440161528688001POWERPHASES CONSTRUCTION SERVICES INC.                   1604
A0101407270162525008001RAYMOND S. FERNANDEZ                                     0503
A0101407270000001596945CELESTE C. NAPIGKIT                                      0501
A0101401090171196115001AUREA PELAYO-LLANERA                                    10504
A0101401090171196115001OR TRACY ANN LLANERA                                    20500
A0101401090171749142001MARIA THERESA F. TRINIDAD OR                            10502
A0101401090171749142001ART JOSEPH F. TRINIDAD                                  20500
A0301400530000001409774DUMALUAN, MARIA LUZ D. OR                               10510
A0301400530000001409774DUMALUAN, DOLORE                                        20500
A0301400530000008307551GONZALES, SYLVIA EUGENIO or                             10505
A0301400530000008307551GONZALES SR., RENATO                                    20500
A0301400530193674940001APOLINARIO, FRANCIS A. OR                               10505
A0301400530193674940001LOU JOSEPHINE M.                                        20500
A0301400790000003969473GENTILES JR., FILIPINIO                                 10503
A0301400790000003969473CASCABEL                                                20500
A0301400950000002115560LANOSA, CELESTIAL BUENAVENTE                             0501
A0101412500000007885412CHAN, DERRICK UY OR                                     10501
A0101412500000007885412CHAN, TIMOTHY UY                                        20500
A3101400160000001559213IAN GARY C DELA TORRE                                   10501
A3101400160000001559213JACQUELINE A DELA TORRE                                 20500
A3101400450223028468001NEW ARMSTRONG SECURITY AGENCY                            0502
A3101400450223223458004ALVERO, LEAH AURORA TOLENTINO                            0501
B1001400190231272348001LAO, SHERWIN                                             1602
A1001400190231520766119CABANO, BERNADITH CATIWALAAN                             0501
A1001400480000000133279DACUDAO, LILUISA OR DACUDAO,LEO                         10501
A1001400480000000133279JT                                                      20500
B1001400480000000133593DELUXE RANCH TRANSPORT CORPORATION                       1602
A0101401670271189366002RUBI A. NGO                                              0502
A0101401670271216325001VITALIANO N. AGUIRRE II OR                              10501
A0101401670271216325001MARISSA L. AGUIRRE                                      20500
A0101406460000002359920CHAN, KENDRICK LESTER SIH                                0502
B0101406620273007454005GLOBE ASIATIQUE REALTY HOLDINGS CORP.                    1606
A0101406620000004926052DE GUZMAN, ROSARIO OR DE GUZMAN                         10501
A0101406620000004926052CARLA OR DE GUZMAN MA. C                                20500
A0101408660274508076001WEE, WINSTON LEE HIONG LEE                               0501
B0101411110000000009098NET4SITE PHILIPPINES INC.                                1602
A0101400570000006271985GOITIA, JOSE ANTONIO EJERCITO                            0501
A0101400570281347185001CATALINA P. BARON OR                                    10502
A0101400570281347185001MA. JOSEFINA SAW                                        20500
A0101400570281491697001LAXAMANA, EFREN CORTEZ                                   0505
A0101400570281503551001JAREN R. CABUDOL                                         0501
A0101400570281553903001BONOAN, DEODATO JOSE REFORMA                             0501
A0101400570000003891561YU, LESTER CO                                            0501
A0101411240283064871001GRAY STONES SPA                                          0501
A1101400120000003022413DUCENTES, GLORIA TROCINO                                 0501
A1101400120313478374099SALAS, ERIKA GALAROSA                                    0501
B6601400120314040691001NORTHERN SAMAR ELECTRIC COOPERATIVE,INC.                 1610
A6601400120314612864001CHIN, ARNOLD OR ALMA                                     0503
A6601400120314614572001OSIDO, ARNIZA VIRTUDES                                   0502
A2001400290315688009001ALGOPERA, LLOYD GARCIA                                   0503
A2901400130000005961253YABUT, MARK ARBUES DELA CRUZ DB                          0501
A0101402350321478374008VICTORIA ELLE                                            0501
A0101402350321542967001ABUNDIENTE, JONATHAN GUMBA                               0502
A0101402350321708802001ALMAROSE C. VILLAPANDO                                   0501
A0101402510000009175162BULANADI, VERGEL LLOYD B.                                0501
A0101402510000009317897VILLORIA, MARY ANN GRACE L. OR                          10501
A0101402510000009317897VILLORIA, NOELITO L.                                    20500
A0101402510341405258001CHRISTINE N. FRESCO                                      0502
A0101402510000000049370MR. RAUL S. OLIVEROS                                     0502
B0101402060000000653827EUSTYLE OF LINES, SOLUTIONS AND ARTS                    11601
B0101402060000000653827(E.L.S.A), INC.                                         21600
A0101402060351496056001LANDRITO, JUANITO CARLOS                                 0501
B0201401020000000005023***************                                          1601
A0101402930000007030899OMBAC, KATHERINE REYES                                   0502
B0101402930381041771001AII SYSTEMS, INC.                                        1601
A0101402930000003710790**********                                               0501
A0101402930381478374009MARIVIC R. DELA CRUZ                                     0501
A0101408790000005251387**********                                               0501
A0101402770391360120001CEFERINO V. PRONTO JR.                                   0501
A0101408400000003421310PUSTA, CHARITO ORILLANEDA                                0501
B2401400180411022591001DOMINGO TENG FISHING INDUSTRY                            1601
B2401400180000000073692BROTHERS D & D INC.                                      1610
A2401400180411542448001GUATLO, ANNA MARIE VILLASENCIO                           0501
A2401400180411572205001EBRAHIM, MA. AMOR ISHAD                                  0501
A1201400150421258042002AURORA CASTEL OR ATTY. PHILIP                           10502
A1201400150421258042002CESAR CASTEL                                            20500
B0901400220000000888166**********                                               1602
A0101403030000000993995**********                                               0501
A0101403030441239686001**********                                               0502
A0101403030441469355001**********                                               0501
B0101403320471027104001ZENITH FOOTWEAR, INC.                                    1605
B0101410140000000038884PROFESSIONAL GAMER'S THRONE CO. LTD                      1603
A0501400170481334870001BRENDA U SALCEDO                                         0501
A0501400170481409728002ANG, JUSSLYNN MAISIE ONG                                 0501
A1901400320489632830001ANTHONY E BAGON                                          0501
B1901400160491027966001SALESFORCE ONE MARKETING, INC.                           1605
A1401400110492620230001DELOS SANTOS, ENRICO PEREZ                               0503
A1401400110492773514001ABETRIA, MARLENE SALIENDRA                               0501
A1601400170000001360736UPTOWN ENTERPRISES                                       0502
A0701400260000003259363DELA CRUZ, JULIUS ESPINOSA                               0501
B0101407430503028318001LONGHORN TRANSPORT SERVICES INC.                         1605
B0101403450521011749001TWF CUSTOMS BROKERAGE CORPORATION                        1610
A0101403450521389380001**********                                               0501
A0101403610531036734001PASTRANA, MARIA DBU JRAE                                10502
A0101403610531036734001DRUGSTORE                                               20500
A0101403610531064267001HEPOS, E DBU LCJ MOTORCYCLE                             10501
A0101403610531064267001SHOP AND PARTS                                          20500
A0101404000000001187031LUNA, ANNE CHERISSE SY                                   0502
B0101404000551005114001ASSOCIATION OF PETROCHEMICAL                             1605
A0101404000551375486001SUSAN Y. MAGBUHOS OR                                    10501
A0101404000551375486001MA. ELENA ALBERT                                        20500
A0101404000551478374002PENAMORA, GIRLIE E.                                      0501
A0101407720000007936232VINCENT PEPITO F. YAMBAO JR. OR                         10501
A0101407720000007936232MARIEDEL C. YAMBAO                                      20500
A0101407720602341731001************                                             0502
B0101404260000000156972PRIME POWER MANPOWER SERVICES                            1650
B0101404260000000156972PRIME POWER MANPOWER SERVICES                            1650
B0101409890000006812724CAMPUS CATER CORE CORP.                                  1601
A0101409920000005460839MEMBERS OF NATASHA, SHOECAT INC                         10502
A0101409920000005460839MARTIN, SHIRVIE SHEEN D.                                20500
A0101413570000000635603CABACUNGAN JR., TORENIO CASEM                            0501
B0101413990000003141146**********                                               1601
A1301400210000005040635***                                                      0502
A1301400340683614499001ESPINO, MARIE CARTERO                                    0503
A1301400500000005963379EVANGELISTA, ROGELIO CONCEPCION                          0501
A0101408240000008160109INOCENCIO, S DBU WHESHA PHARMAC                         10502
A0101408240000008160109PHARMACY                                                20500
A0101408240711226916002FONG, NOREEN CARRILLO                                    0502
A0101406750000002040293WILLY, JANE LAMSIE                                       0501
A0101406750852084318001SIBUG, GENEATH P. OR                                    10501
A0101406750852084318001SIBUG, ERNESTO M                                        20500
A0101405070861380698001REYES SR., RENATO SISCAR                                 0501
A0101405070861478374086MARLYN C. GABEST                                         0502
A0601400230000005185866CHUA, MARK ANTHONY OR VELASQUEZ                         10503
A0601400230000005185866MYRICK OR LLAVE,                                        20500
B0601400230000006045325LEAD WITH INTEGRITY AND GOOD GOVERN                      1603
