F0101401670271062360001ANGLINYA-LINYA ENTERPISES CORP                           2601CK1
F0101401670271356341001FRANCIS OR GLENN OR MARK OR                             12520CKO
F0101401670271356341001LAWRENCE OR STEPHEN YU                                  22500CKO
F0101400570281028261001CATHEDRAL HEIGHTS BUILDING                              12605CKR
F0101400570281028261001COMPLEX ASSOCIAT                                        22600CKR
F0201400210000004959500PRINCE RETAIL MERCHANDISING INC                          2620CK1
F0101405490392036290002THE MASTER'S ACADEMY FOUNDATION                         12601CKR
F0101405490392036290002INC.                                                    22600CKR
F3101400580452541714001BUNGAY, EVELYN ESGUERRA OR                              12615CKO
F3101400580452541714001BUNGAY, GELLYN E                                        22600CKO
F0101407720602022598002MG MADRID & COMPANY                                      2602CKR
F0101409890649045548001MAX-TEL INDUSTRIES CORP.                                 2601CKR
