B0101402480331821100608**********                                               2010
B0101407300395821100608**********                                               2002
B0101409210398821100608**********                                               2010
B0101409210398821200608**********                                               2001
A0301400530193060848001LEPA MILL MASTER                                         0501
B2401400180000000019769WILL & JOE AGGREGATES, INC.                              1603
A2401400180000005286933LAS, JUANITA CAPONHAG                                    0502
A0101400440161039572023JIMMY S. PALISOC                                         0501
A0101400440161520766098JUDITH D. BRISO                                          0501
B0301400950000002115742LKT REALTY DEVELOPMENT CORPORATION                       1601
A6601400120314613974002UY, CESAR LIM                                            0502
A0201400760000005156554YU, LENNIE KRISTINE BORROMEO                             0501
B0201400760374033207001W.T. CONSTRUCTION, INC.                                  1605
A0201400920375034984002CITY LIGHT ELECTRONICS SERVICE                           0505
B0101402930381008829002AXEIA DEVELOPMENT CORP.                                  1615
A2401400180000000073550ALBARRACIN, JEMAR DEGAMO                                 0501
B2401400180000000073710MABUHAYONE CORPORATION                                   1602
A2401400180411478374069JUBAN, MARIVIC BABA                                      0501
A0101412890000001056597SEKITO, EDITHA PAULO                                     0501
A0101400860000003571704**********                                               0501
A0101400860011429410001**********                                               0503
A0101400860011479962001**********                                               0502
B0101400860011515297002**********                                               1602
A0101400860011541134002**********                                               0502
A0101400860011591125001**********                                               0502
A0101400860011653651001**********                                               0502
A0101400860011743392001**********                                               0503
B0101411370000000018135FOKUSI FACADE INC.                                       1602
A0101400150000005794461MAGNAYE, MARICEL TABORA                                  0502
A0101400600071719765001********                                                 0501
B0601400100081016360001T. CAPATI ESTATE & DEVELOPMENT CORP                      1601
A0601400100081590627001BASILIO, ADAMSON CUNANAN                                 0501
A0601400100000005050388*************************                                0501
A0601400100081639196001DIMALANTA, ANALYN TEGIO                                  0501
A0101413280000002317671MA. CRISTINA DUMIGPE                                     0501
B0101410850000000000646MG8 TERMINAL INC.                                        1605
A0101410850000003503493***********                                              0502
A0101410560000005836046MARTIJA, IRVIN CAHINDE DBU                              10510
A0101410560000005836046OROVIDA MARKETING                                       20500
A0101401960121238456001**********                                               0501
A0101401830141367511001VELASCO, MA. TERESA ABUYO                                0501
A0101412920000006721199VERGARA, VIVIAN OLIVO                                    0505
A0101400440000000596630MARY ANN A. OYARDO                                       0501
A0101400440161623684001EDITHA H. VALENCIA                                       0501
A0101407270000003253961RUTAQUIO, JOAN TENA                                      0502
B0101407270162019008001ORIENTAL & MOTOLITE MARKETING CORP.                      1610
B0101407270162019655001BATTERYWORLD INCORPORATED                                1605
B0101407270162037305001MICROGOLD INFORMATION SOLUTION AND                      11610
B0101407270162037305001PRODUCTS, INC.                                          21600
B0101407270162038101001BIRDS INTERNATIONAL, INC.                                1603
A0101407270162291617001JOSEPHINE C. MATEO                                       0501
A0101407270162745468001CORPUZ, MILNORE AGARPAO                                  0501
A0101401090171199227001MARIA NATALIA R. DIMAANO                                 0502
A0101401090171335888001MANEJA, WARREN SALANDANAN                                0501
A0301400790000002301228*********                                                0502
A0301400950000002115253*********                                                0503
A0301400950000002974981PERONA, EMMA CAL                                         0502
B3101400450223037708001RD CASH PADALA, INC.                                     1603
A1001400190000002820082VILLAMALA JR., VICENTE TY                                0502
B1001400190000001057669HEXAGONTECH AUTOMATION, INC.                             1602
A1001400190231478374075BARRON, LORNA                                            0502
A1001400190231520766171WILDY G. OCHIGUE                                         0502
A1001400350000000922401COLEGIO, ELEANOR DAEL                                    0501
B1001400480000004097201PARV ENGINEERING SERVICES                                1602
A1001400480000003357566TABINGO, ROD LAMANERO OR                                10502
A1001400480000003357566TABINGO, MAE JOY                                        20500
A0101401670271292571001CHRIS RYAN R. CRUZ OR JANICE                            10504
A0101401670271292571001CLAIRE C. CUASO-CRUZ                                    20500
A0101406460000002331011BAVIERA, PORTIA CASTELLANO                               0505
A0101406620273439598001CHING, GEORGE SIA                                        0501
B0101406620000006317773DY, DANILO MAGSINO AND DY, JESUSA                        1610
A0101406620000004926052DE GUZMAN, ROSARIO OR DE GUZMAN                         10501
A0101406620000004926052CARLA OR DE GUZMAN, MA. C                               20500
A0101411240000001563333BUKAS, DENIS CONFERIDO                                   0501
B2601400270000000020673JPGLOBAL VENTURES CORPORATION                            1603
A6601400120000000060380ADRIATICO, ROMEO VILLASIN                                0502
A6601400120000003673012VASQUEZ, FERDINAND ENDONELA                              0503
A2001400290315688009001ALGOPERA, LLOYD GARCIA                                   0504
B0101402350321041623001ICLA CHRISTIAN ACADEMY INC.                              1602
B0101402350000000046108ABSOLUTE INDUSTRIAL SOLUTIONS, INC.                      1602
A0101402350321478374059BERNARDITA D. LOPEZ                                      0501
A0101405650000000448453AQUINO, CHRISTIAN CASTRO                                 0501
A0101405650000000525739RUFA MACABENTA                                           0501
B0101402510341055539001AIO FX TRADE INC.                                        1601
A0101402510341202843003**********                                               0501
A0101402510341543493001VICTOR M. TOPACIO                                        0501
A0101409050000003533582CLEMENTE, JANICE R.                                      0502
A0201400890000006717053DACAY, RAMON UY OR DACAY,                               10501
A0201400890000006717053THELMA DY PICO                                          20500
B0201400890376037020001BREEDERS AGRIVET SUPPLIES INC.                           1605
A0201400890376080642001GALANG, LORLIE PACURIBOT OR                             10502
A0201400890376080642001GALANG, GLENN AN                                        20500
A0101402930000000623363KING, C DBU EASTERN CIRCLE                              10501
A0101402930000000623363HUMAN RESOUCE SE                                        20500
A0101402930381207769002TANCHI JR., PETER HOWARD                                 0501
A0101402930381325163001SUSAN D. CORNEJO                                         0501
A0101408370382205155003DR. ERWIN B. ALCAZAREN                                   0502
A0101408370382207662001DR. CELSO F. BATE OR                                    10501
A0101408370382207662001MRS. SOPHIA S. BATE                                     20500
B0101402770391033539001VICTORIA VALLEY ASSOCIATION, INC.                        1602
A0101402770391216029001MANUEL A. DE LEON                                        0501
A0101402770391478374049EDITHA DELA TORRE                                        0501
A0101402770391644678001SEBASTIAN, HELEN TAN OR                                 10501
A0101402770391644678001SEBASTIAN, ARTHUR CUCHON                                20500
A0101405490000001092693JOVELYN V. LUCENO                                        0501
A0101405490392510652001ENCARNACION M. GOLDING                                   0501
B0101408400000001258599PASAY ULTRASOUND AND PERINATAL SVC.                      1601
A0101408400394033832001DANNY'S UPHOLSTERY SHOP                                  0504
A0101408400000001952883GABRIEL TAILORING AND GENERAL                           10501
A0101408400000001952883MERCHANDISE                                             20500
A0101408400000001952770MERIAN B BUERE                                           0501
A0101408950396046916001DentalOne, Inc.                                          0503
A0101408950396563436001ARLENE ANTONIO GUANZON                                   0502
A0101408950000002255494DE VERA, JR. DELFIN DE OCAMPO                            0501
A0101409210000005737340MEDRANO, URSULA                                          0502
A2401400180000000554938DOLERA, CANDELYN FILIPINAS                               0501
A2401400180411478374039ABRENICA, COSMECIA L.                                    0502
A2401400180411478374059ANALITA R. SUICO                                         0501
B1201400150421032655001BAGUIO STONECENTER INC.                                  1602
A0101403030441241050001**********                                               0503
A0101412890000001056206GERONIMO, ANNABELLE ELEANOR LIM                         10502
A0101412890000001056206OR GERONIMO, MARLON                                     20500
A0101412890000004345044SILCOCK, PAMELA                                          0502
A0101412890000004344923SAMSON, SHELLA LEGASPINA                                 0501
A0101412890000001765346SILCOCK, P DBU EIGHTZON CLOTHES                          0501
A0101406330000000162627RAPSING, RAZEL CANAWAY                                   0501
A0101406330472031925001MILES DONUT HOUSE                                        0502
A0101406330472215905001MARCELO OR ERLINDA DELAS ARMAS                           0503
A0101406330472298552011CARINA F. FALQUERABAO                                    0501
A0101406330000001235181SHERALYN B. ONTONG                                       0503
A0101406330472542494001TEODORA A. RAZON                                         0502
A0501400170481254609001DR. ARTHUR OR ROSARIO PITARGUE                           0501
A0501400170481357950002JASPER SPENCER L. ONG                                    0503
A0501400170481365467003CALLANTA, JOHN SORIANO                                   0505
B0501400170000000494673QUINTO III, ALFREDO/YUCHONGTIAN II,JOSE                 11602
B0501400170000000494673NIELSEN/ RAPHAEL                                        21600
A3801400170490757939001RENEL GARCIA MEDINA                                      0501
A1401400110000001549340CAPIRAL, ROSALIE BELESARIO                               0501
A1401400110000004891090JOYAS, VICENTE MANDOCDOC                                 0501
A1601400170000001068593JINKY M. NIEVA                                           0501
A1601400170000000036502SEADOG DINER                                             0501
B1601400170000000497172PACARDO, MARC JOSEPH DBU MARC &                         11601
B1601400170000000497172JOSEPH'S EVENTS                                         21600
A0101407430000003193899PASJ CUSTOMS BROKERAGE                                   0505
B0101403580511024541001TRADEXCHANGE, INC.                                       1601
A0101408530516522098001CHAN, COLIN CRAIG G.                                     0501
A0101408530516656163001************                                             0502
A0101403450000001769811*******                                                  0502
A0101403450521238088001**********                                               0503
A0101403450521239572002ONG, SIN CHIOK                                           0501
A0101403450521447292001LIM, LEONCIA                                             0501
A0101404000000003950765SOLIMAN, CATHERINE CRISOSTOMO                            0501
A0101404000000003853081GESTIADA, RUBY BENIG                                     0501
B0101404000551038492001UP STAGE RESTAURANT & BAR CAFE INC.                      1602
B2201400250000000016913ABRAHM CHASE CORPORATION                                 1601
A2201400250000001066073JCP AND 3 SONS TRADING CO.                               0501
B2201400250000001066171THE LAUGHING CARABAO BREWERY INC.                        1601
A0101404130601450094003LORQUEL PASCUAL OR ANNIE                                10502
A0101404130601450094003PASCUAL                                                 20500
A0101407720000000051174CAOILI, JANICE CAMPOS                                    0504
A0101407720000000112205VALERIE KRISTINE MARIE VILLEGAS                         10501
A0101407720000000112205SANTILLAN                                               20500
A0101407720000003505228SOLER, JULIE ANN DIWA OR                                10505
A0101407720000003505228COSON, JAY CLEMENT L.                                   20500
A0101407720602376695001REINALDO GONZALES OR NANCY                              10501
A0101407720602376695001GONZALES OR NORA GONZALES                               20500
A0101404260000000532283UNI STOP DRUG & GENERAL                                 10501
A0101404260000000532283MERCHANDISE                                             20500
A0101409920000000118625DILE, BEBERLYN MUNEZ                                     0502
A0101409920000000998661MEMBERS OF NATASHA (SHOECAT INC                         10501
A0101409920000000998661CALORA, DOMINGA                                         20500
B0101407690652035567001NEW COMLOGIK BUSINESS SYSTEMS, INC                       1603
A0101407690652041716001******                                                   0501
A0101407690652455653001PEREZ, EDGARDO OR PERLA                                  0501
A0101407690652525001047NOEMI B. BUNDA - DEALERS OF                             10501
A0101407690652525001047SHOECAT INC.                                            20500
A0101411530000006217483**********                                               0501
A0101413440000002125600RCCG BUILDERS AND TRADING                                0501
A1301400210000000540798EDMAR DL SAN VICENTE OR                                 10501
A1301400210000000540798TONI PAULO A VAL                                        20500
B1301400210000000915593CHIN, NINO BONITO SEDIGO DBU MESHAC                      1601
A13014003406830874710010AUTISTA, GINA AQUINO OR                                10502
A1301400340683087471001BAUTISTA, RODERICK RAMOS                                20500
A1301400340683523858001PURIFICACION, DYAN CRISEL D. OR                         10501
A1301400340683523858001PURIFICACION, MA                                        20500
A1301400340683669247001DELOS REYES, RIZALDY JOSE                                0502
A1301400500684683001001TUAZON, JENIFFER L.                                      0501
B1301400500000000213414MATEA ESTEVEZ OR JOEY ESTEVEZ OR JOSEPH                 11603
B1301400500000000213414ANTHONY ESTEVEZ                                         21600
A1701400230000006717651AGUINALDO, ELIZABETH CARIAGA                             0501
A1701400230000002762985RUBIO, J DBU JOE 10'S                                   10502
A1701400230000002762985RESIDENTIALS                                            20500
A0101408240000000039392RAMIREZ, RENATO OR AURORA                                0502
A0101408240000000039592AURELIO, L DBU LPA DRAPERY                              10501
A0101408240000000039592TRENDS SHOP                                             20500
A0101408240000000521920REVILLA, WILMA GUJELDE                                   0501
A0101408240711507742001DEMAVIVAS, RIA ZARRA                                     0501
B2801400230000000372781GR888T C CORPORATION (CHOAS)                             1602
A4101400260000005333335BLANCO, MARCELINA SUAYBAGUIO                             0502
A4101400260812245444001EVELINA P. SAPIDA                                        0501
A4101400260812246527001ISIDRO B. DELA CRUZ JR. OR                              10510
A4101400260812246527001LILIAN H. DELA C                                        20500
A4101400260812478374062SUNNY G. CAPORADO                                        0501
A0101412340000004877307RONNIE C. PLANTILLA                                      0501
A0101404840000004565782GRANADO, JEAN B.                                         0501
B0101404840851060813001NEXT ASIALAND INC.                                       1601
A0101404840851478374002VIOLETA Z. PANZO                                         0501
B0101406750852023612001LAS PINAS CITY MEDICAL CENTER, INC.                      1610
A0101406750852184574001DELA ROSA, DANILO V. OR                                 10501
A0101406750852184574001DELA ROSA, VILMA                                        20500
A0101405070861035394088AMITY SATELLITE SYSTEMS,                                10512
A0101405070861035394088INCORPORATED                                            20500
A0101405070861478374067TIRSO M. ARROJO JR.                                      0502
A0101413860000001886866AMIRIL, AMILBAHAL HASSAN                                 0501
