F0301400530193060665001RAVELO, DARWIN BAGA DBU D.B. RAVELO                      2701CKC
F0101414090000002244691QUICKMATCH HR SOLUTIONS INC.                             2601CK1
F0101402350321025115001TECHNOLOGY PLUS INDUSTRIES, INC                          2601CKR
F0101408400394031095003LIVINGWATER SYSTEM, INC.                                 2610CKO
F1201400150421031460002CJH SUITES CORPORATION                                   2603CKR
F0101405940512507335001TRIANON DIAGNOSTICS, INC.                                2605CKR
F0101410690600047000002HOLIDAY HILLS STOCK & BREEDING                          12601CKR
F0101410690600047000002CORPORATION                                             22600CKR
F0101410690600047128001PIG IMPROVEMENT COMPANY, INC.                            2601CKR
