A0101413150000001288291******                                                   0502
A2201400250000003558116LUIS S, TORRES III OR                                   10502
A2201400250000003558116ROSARIO FILOMENA                                        20500
A2201400250561478374060MARIAN S. BANAAG                                        10501
A2201400250561478374060MEMBERS OF NATASHA                                      20500
A0101400150000003218328ALLAN ADRIAN M. TANALIGA                                 0501
A0101411660000010561981MANALO, ROSALIA SAN JUAN                                 0502
B0101401250021006948001PANGARAP FOUNDATION, INC.                                1606
B0101401250021006948003PANGARAP FOUNDATION, INC.                                1603
A0101401250000007121400********                                                 0502
A0101401250021478374003FRIAS, CELIA SILVANIA                                    0502
A0101401250021536726001AURELIO D. RIVERA JR. OR                                10503
A0101401250021536726001CRISTINA E. RIVERA                                      20500
B0101400150000000000124WORLD AVIATION CORPORATION                               1603
B0101400150061037656001TAO SHIPPING CORP.                                       1602
B0101400150061458867001AREA MARKET STRUCTURE LABORATORY INC                     1601
B0101405810072030630002SK PLASTIC RELIANCE COMPANY                              1603
A0101413730000002289570****                                                     0501
A0101400730111386702001CARTAGENA, CRISTINA M.                                   0504
A0101400730111458403002ABREGANA, CLEOFE TAMPOS                                  0502
A0101406040000008915511********                                                 0501
A0101406040112235065001ERNESTO P. LEONES                                        0502
A0101412630000007818924ROAN, REGINALDO REYES OR                                10501
A0101412630000007818924ROAN, KATHERINE GRAGASIN                                20500
A0101401830141069176001DEL VALLE, PEPITO DBU VIPECK                            10501
A0101401830141069176001GRAPHIC DESIGNS & PRINTS                                20500
A0101401830141283129001YOLANDA M. LIM                                           0502
B0101412920160059095001TORIBIO, EMELY DUAY DBU HIC PRINTING                    11602
B0101412920160059095001SERVICES                                                21600
A0101400440000004889912MARIA VICTORIA F. ORACION                                0503
A0101400440161190481001HELEN LEONG OR ROSALINDA LI                              0505
A0101400440161459294001MARY ANN T. REGINALDO                                    0502
A0101400440161478374129HAZEL R. SALATAN                                         0502
A0101400440161525001112JELLIE ANN D. LOMAHAN                                    0501
A0101407270000005770032DEE, MARTIN REDMOND ESCOLAR                              0501
A0101407270000000818480CLEMENTE, SPIRO LU                                       0502
A0101407270000000511555CLEMENTE, SPIRO LU                                       0502
A0101407270000000511544CLEMENTE, SPIRO LU                                       0502
A0101401090171203024001VICTORIA D. CORRAL                                       0501
A0101401090171330509001PABLITO A. BAYBADO JR.                                   0501
A0301400950000002252051**********                                               0505
A0101401380201508360001SAN JOSE, ROSIE DATO                                     0502
A0101410720653693151001SAMBRANO, CARMELITA ASIS                                 0501
A3101400160221386295002ROBERT J. BANATIN                                        0501
B3101400450223028468001NEW ARMSTRONG SECURITY AGENCY                            1602
A1001400190231520766013PATALINGHUG, BEVERLY MERCADO                             0501
A1001400190231520766125YANA, MAYFLOR DAGOC                                      0501
A1001400190000000124887EDNA B. BITOY                                            0501
A1301400470000007863401ANGEL INNA TRADING                                       0505
A1301400470252452965001AURORA R. CARBONELL OR                                  10501
A1301400470252452965001SEVERO B. CARBONELL                                     20500
A0101406460000002330643CHAN, SUSAN CHUA OR CHAN,                               10501
A0101406460000002330643ANDREW G.                                               20500
A0101406620273477411002ESPINA, NORMA RODRIGUEZ                                  0501
A0101408660000006296917CABANSAG, ARMEL CABANATAN                                0505
A0101410980000002986987YEUNG, MARIBETH PO                                       0502
A0101411820000005709913ELLEN EUGENIO BINAY                                      0501
B0101400570281040437001STANDOUT MOTORS, INC.                                    1601
A0101400570000000031767NGO, JEROME TIU                                          0504
A0101400570281191853002GREGORIO, JULIETA ORBISO                                 0501
A0101400570281296123001BANARES, MYRNA N. OR                                    10503
A0101400570281296123001BANARES, LEOPOLD                                        20500
A0101400570281383821001LUISA L. ANG LEY OR LILY L. LEY                          0501
A0501400200000005751960MANAOIS, JANETTE DELAS ALAS                              0501
A0501400200000006272211MANAOIS, AUGUSTO ISIDRO ROSARIO                          0501
A2601400270000002257172RINSTON R. SERNA                                         0502
A2001400290000011150460UY, HUBERT LIM OR BARRAMEDA,                            10501
A2001400290000011150460RONILLA BAJAR                                           20500
A2001400290315788888001**********                                               0501
B3401400280000006790965JL PRIORITY LENDING CORPORATION                          1602
A2901400130000009071789ICAMINA, MARY KAREN VERONICA RO                          0501
A0101402350321278975002LORDELITA A. MARTINEZ                                    0501
A0101402350321296032001GONZALES, NEAL JOSE ORTIZ                                0505
A0101409050352718990001DOLORES T. ONG OR PATRICK                               10501
A0101409050352718990001RICHMOND T. ONG                                         20500
B0201400760374046027001NOBLE HORIZONS DEVELOPMENT                              11601
B0201400760374046027001CORPORATION                                             21600
A0201400760000000222922PELUCHI ESSENTIALS SPA                                   0501
A0201400760374054009001ALLIED HOMES MARKETING                                   0501
A0201400760374681022001SAPAYAN, IAN ANTHONY PADERANGA                           0501
B0201400920000000007832JTL CABINET CONCEPTS                                     1605
A0201400920000006792034LIM, ROSARIO TAN                                         0501
A0201400890000010290103ROBINSON, MICHAEL FRANK LABRADO                          0501
B0201401020000000304101EIGHTY-EIGHT SEA LAND REALTY & SERV                      1605
A0101402930000010657840VILLAREAL, JENNIFER TIPDAS                               0501
A0101408370382475326001DR. ALMIDA A. REODICA                                    0501
A0101408790000003812086ADAN, ALLAN RAY MERCADO                                  0504
A0101408790383649678002YU, MARK OR LAWRENCE OR STEPHEN                         10510
A0101408790383649678002OR FRANCIS GLENN                                        20500
A0101408790000000039096YU, MARK ANTHONY LU OR YU,                              10510
A0101408790000000039096LAWRENCE KRISTOFFER                                     20500
B0101408790383710805001NOVEL FINANCE COMPANY INCORPORATED                       1610
A0101415350000006731319LIBREA, JANINE LAYGO                                     0501
A0101408400000001855381ABSA BUILDERS                                            0502
A0101408400000001855381ABSA BUILDERS                                            0501
A0101408400000001855381ABSA BUILDERS                                            0502
A0101408400394525833001NOVERO, JUDITH NAVATA                                    0501
A0101409180000002036642GARCIA, KAREN MICHELLE PADILLA                           0501
A0101403030441239051001**********                                               0501
A0101403030441317676001**********                                               0505
B0101403030441382008001**********                                               1602
A0501400170481365467003CALLANTA, JOHN SORIANO                                   0505
A1401400110000001549282CAMALIGAN, CHRISTIAN SANTOALLA                           0501
B1401400110492013980002IMPERIAL APPLIANCE PLAZA                                 1601
B1401400110492028287001MARYHILL COLLEGE, INCORPORATION                          1605
A1401400110492029549002TRIPTORS DIAGNOSTIC CENTRE                               0504
B1401400110000009019734RCBL - PAG-IBIG SA KAPWA                                 1602
A0101403900501570433001OCTAVO, MELODY COLISTENG                                 0501
B0101403580511005154001R.G. MANABAT & CO.                                       1620
A0101408530000007456644MARIBETH L. GO                                           0501
A0101408530000001886053MOYO, LINETH AVEN                                        0501
B0101411400000001280557ROMEO B SIRA DBU RBSS PROJECT MANAGEMENT                11601
B0101411400000001280557SERVICES                                                21600
B0101403450521010718003********                                                 1602
A0101403450521307617002**********                                               0502
A0101404130000009533382PANTIG, MARY GRACE GARCIA                                0501
B0101404130000004437223CAPTIVATE SHOPPER MARKETING INC.                         1605
A0101404130601345507001ADRIATICO, ULYSSES CORPUS                                0501
A0101407720602164307001GABRIEL G. GABRIEL M.D. OR                              10502
A0101407720602164307001CAROLINE C. GABRIEL                                     20500
A0101407720602386725001COLOMA, FAY AGARPAO                                      0503
A0101407720602461436003JANICE STEPHANIE                                        10503
A0101407720602461436003GIMENEZ-MENDOZA                                         20500
A0101407720602515940001TIGLAO, JENNIFER THERESA                                10501
A0101407720602515940001GONZALES                                                20500
A0101407720602613056001CHUA, MA. REDELEEN GAMBOA                                0501
B0101412180000000075409EMPEROR'S 168 PALACE INC.                                1605
A0101404260000001725639************                                             0503
A0101404260611312084001CHING KIN NAM OR ROSA CHING                              0501
A1701400230000008555255SANTIAGO, DOLORES CENTENO                                0502
A2801400100712296090001JAIME JESUS D ROJO, M.D. OR                             10510
A2801400100712296090001MARGARET MANUEL-                                        20500
A2801400100000000004775ESPIRITU, MARIA JENNIFER VICENT                          0504
A2801400230713074852001DOMINGUEZ, MARIVIC MANDADERO                             0503
A4101400260812383492002MARIA OLIVIA V. MARAAN                                   0502
A4101400260000003679943TAN, ANGELINA                                            0501
A4101400420814520766004SALVACION D. BITANCUR                                    0501
A4101400420814520766045BOCO, ADELA G.                                           0501
A4101400550000000315182MARGAJA, FELICITA BITOR                                  0502
A4101400550000002091123BALAGOT, MARICEL DELA CRUZ                               0502
A4101400550815557725001VALDEZCO, EDWIN BACANI                                   0502
A0101412340000003438599HENRY S. NGUYEN                                          0501
A0101412340000009501133JOSEPH RAMON L. CAMPOS                                   0503
A0101404840000008871274REYES, RUTH ALCIDO                                       0501
B0101404840000000090286I & E CONSTRUCTION CORPORATION                           1603
B0101404840000006365295PI COOL GAGS, INC.                                       1601
B0101406750000000090691THE PLAZA HOTEL BALANGA CITY INC.                        1606
B0101406750000005608493SOUTHERN HELEVICLE TRADING                               1601
A0101406750852084318001SIBUG, GENEATH P. OR                                    10501
A0101406750852084318001SIBUG, ERNESTO M                                        20500
A0101405070000005619456NAVEA, MAY-ANNE PIERRE EYO                               0501
