A0101405650322047677001THE J. BIJE'S WINDOW SHOP                                0505
A6601400120000009613674GALVEZ, GENARO CASTILLO                                  0503
A0101405650322172570002YAP, NELSON ALVAREZ                                      0502
A0101400860000005312981**********                                               0502
B0101400860011394967002**********                                               1605
A0101401250000008233265HABIB, MARIJILL AQUINO                                   0503
B0101400150000001708345SKIN SCIENCES LABORATORY, INC.                           1603
A0101400150000002749615CAINAP, MAY NABO                                         0501
A0101405810000014023240SY, HERMAN                                               0502
A0601400100000019172906GUDA, JERIZA SAQUIDO                                     0501
B0601400100000007185073GARDEN DINE RESTAURANT INC.                              1602
A0601400100000002365380VALERIO, NARDITO GONZALES DBU                           10502
A0601400100000002365380JUNAR                                                   20500
A0601400360000008460253SIRIN, ALPER SUAT                                        0501
B0601400520000001349719MAGTOTO, KELVIN DBU CALULUT CONVENIENCE                 11605
B0601400520000001349719STORE                                                   21600
A0101414090000000648500CHOA, CLYTIE GAY CO TONG                                 0501
A0101414090000003314763CHOA, CLYTIE GAY CO TONG JT                              0501
B0101414090000019139810KMONOSI MANPOWER SOLUTIONS INC.                          1601
A0101401960000001844475****************                                         0505
A0101401830141205769001JOSEFINA V. VALMOCENA OR                                10503
A0101401830141205769001NANCY S. VALMOCE                                        20500
A7201400170000009463761ALUYEN, RONDALE TAN                                      0502
A7201400170000007185886DELA CRUZ, ANGELES SABULBERO                             0503
A7201400170000015855180SUPERALES, ROEL BENIDA DBU                              10502
A7201400170000015855180VICTORIA ETIK FARM                                      20500
A0101412920000016899962COMXAI COMPUTER TRADING                                  0502
A0101400440161186956001NUMERIANO H. HERNANDEZ                                   0502
A0101400440000010744824CHRISTINE R. OBTINALLA                                   0502
B0301400530000015818770MARTIN, MARY MARGARET YU DBU NOEL'S                     11601
B0301400530000015818770HOTPLATE DINER'S                                        21600
B0301400660000006755133CINDERBLOCKS TRADE & SERVICES, INC.                      1602
A0301400660000016080454GONZAGA, RUBEN JABINES                                   0502
B0301400790000002301342MONTEVERDE II, GEORGE MENDEZ DBU GV & HH                11601
B0301400790000002301342MARKETING                                               21600
A0301400950000002115413CUNANAN, ELEANOR G. DBU EB                              10503
A0301400950000002115413MARKETING SERVIC                                        20500
A0101401380000015796686BALAHADIA, CESARIO LATAYAN OR                           10502
A0101401380000015796686CARAQUEL, CECIL BALAHADIA                               20500
A0101401380000000682571ANGSIOCO II, JOVITA DIMAFELIX                            0503
A0101412500000019179823ALMORADO, MIRASOL LOPEZ                                  0502
A0101412500000019182626GRAFIL, KEVIN A. AND HERNANDEZ,                         10501
A0101412500000019182626SABRINA KRISTINE B.                                     20500
B0101412500000009179091ASHDOD INC                                               1602
B3101400160000010010610FRANCISCO P GARCIA & CYNTHIA T ALARCON                  11610
B3101400160000010010610& LEILA D TORRES                                        21600
A3101400160000017091271CLARETE, JOHN KRISTOFFER CASTIL                          0501
A3101400450000005960530PAPERA, ELENA DE GORIO                                   0501
B3101400740000014277568K LINE AUTO SOLUTIONS, INC.                              1602
B3101400870225065314001KALIOREXI CORP.                                          1601
A3001400130000014779954SOLIS JR., JAIME AZUMBRADO                               0501
A3001400130000009103662SERRANO, GENELIN                                         0501
A1001400480000003357668CARREON, RAMIL GORRES                                    0501
A1001400480000014024152LAJOT, DORWIN ZUNIGA                                     0504
A1001400480000018546724CHAN, CHONA MAY LIMBACO JT                               0501
A1301400470000016656969RONA-ROSE G. MOISES                                      0502
A1301400470000017541094SERGIO S. REGUYAL                                        0502
A1301400760000017951512EDITHA VIJANDRE NAEL                                     0502
A1901400290000001926296DINDO PATRON BARTE OR FLORINDA                          10502
A1901400290000001926296MASAS BARTE                                             20500
A1901400290000001975288FLORINDA MASAS BARTE                                     0502
A1901400290000018582579DE GUZMAN, ROMMEL EXTRA                                  0501
A1901400290000018582568TONZO, JONALYN SARIGUMBA                                 0501
B1901400290261004758001PHILTIMES CREDIT CORPORATION                             1602
B1901400290261025650002FIESTA HOME CENTER (FHC) CORP.                           1610
A1901400290261244447002LETICIA BAYLON HIPOLITO OR                              10510
A1901400290261244447002ERNESTO B HIPOLI                                        20500
A0101401670000005039834TEH, JASON SY OR TAMAYO, JEROME                         10501
A0101401670000005039834CABRERA                                                 20500
B0101406620273028521001I-REMIT INC.                                             1602
B0101408660274047925001CNT PROMO AND ADS SPECIALISTS, INC.                      1620
A0101411820277775683001***********                                              0502
A0101412470000000520130FLORES, GINA CRUZ                                        0503
B0101400570000011364782PHYLUM PRODUCTS, INC.                                    1602
A0101400570000000470546JEANETTE TAACA-BITO OR MARIA                            10503
A0101400570000000470546VICTORIA BITO                                           20500
A0101400570000011504060GLORINA DIVINA P. OROZCO                                 0501
A0101411240000017194242LINCHANGCO, ETHELENE DENISE DIO                          0501
A0501400200000015227153ARIAGA, JUN-KEVIN CARPIZO                                0501
B0801400160000011219695WATERWORLD CEBU PHILIPPINES CORPORATION                  1606
A0801400160311478374008RODELYN LEBUNA                                           0501
A6601400120000011286310MARTIRES, ROMMEL GAMAY OR                               10502
A6601400120000011286310MARTIRES, MHEL J                                        20500
A6601400120000008490331APOSTOL, MELANIE DBU SKIN CARE                          10503
A6601400120000008490331DERMA & SPA CENT                                        20500
B6601400120314066663001RM MAGARA BUILDERS & SUPPLY INC                          1602
A2001400290000008502196TEMBLOR SR., FLORIDO VILLAGONZA                          0501
A2001400290000015798193EMPERADO, JENNIFER POLO                                  0501
B2001400290315044204001cCEBANK CREDIT, INC.                                     1601
A0101405650000000348721GANA, TERESITA V. OR                                    10505
A0101405650000000348721GANA, JOSE MARIA                                        20500
B0101405650322043032001LEAN MANAGEMENT AND PEOPLE SOLUTION                      1601
B0101402510341020561001PHILIPPINE PHARMACISTS ASSOCIATION                       1602
A0101402510000000200062BERNALDEZ, LIGAYA MACALINTAL                             0501
B0101409050352044362001COREWARE TECHNOLOGIES INCORPORATED                       1605
A0201400920000015820825S3RA PRINTING PRESS                                      0503
A0201400890000014638003ABELLA, THOMAS THADDEUS BOLOCON                          0501
B0101402930000013314551BPO CORP.                                                1601
A0101402930000003179504TANCHI, PETER FU OR                                     10502
A0101402930000003179504TANCHI, DEONNA LYNN                                     20500
A0101408790000019178488OCAMPO, MARC JOSEPH KALEL LAGO                           0503
A0101411660000006727666MA CECILIA SISON                                         0503
B0101411660000009219978ASIA PACIFIC FORM AND STRUCTURE, IN                      1601
A0101405490392307722003JIEL C. SANTOS                                           0502
B0101408950000006424900ASSOCIATION OF RESPIRATORY CARE                         11601
B0101408950000006424900PRACTITIONERS,                                          21600
A0101408950000001039412DRILON, CECILIA VICTORIA ORENA                           0502
A0101408950396773717001AGUILAR, JOSEPHINE CABRERA                               0502
A0101409180000005295321CHRISTINE RABAGO                                         0501
A0101409180000006071289NATIVIDAD, ROWENA BRAVO                                  0501
A0101409210000008922561SANTOS, IAN CLARK FLORES                                 0501
A0101409210000013276427VELVEZ, JOWELL TINAWIN                                   0501
A0101412210000008068673VALENZUELA, ANNABELLE VITTI C.                           0501
A5501400120000013825533BELONIO, IMELDA LEYSA                                    0501
A5501400120000015561232SURMION, KIMBERLY JEAN BULAQUEN                          0502
B2401400180411040250088HOME SOLUTIONS DEPOT PLUS                                1610
A2401400180411344858001CHUA, MAGDALENA SALAZAR                                  0501
B0101403030441029489001**********                                               1606
B0101403030441240945001**********                                               1601
A0101412890000001056371CALUSA, MA CRISTEL MAICA LEYNO                          10502
A0101412890000001056371OR CALUSA, RODEL                                        20500
A0101412890000011812985RHEGEL RAAGAS SERAFIN                                    0502
A0101412890470057311001MENESES, M DBU DAYNNY                                   10502
A0101412890470057311001ENTERPRISES                                             20500
A0101403320000014340513EMMANUEL A. MARQUEZ                                      0502
B0101403320471024815001GOLDRICH FOODS CORPORATION                               1603
A0101403320471478374016SONIA SALANIO                                            0501
A0101406330000014144986ALVAREZ, BRENDA MAALIHAN                                 0503
B0101406330472027929001STO. TOMAS DE VILLANUEVA PAROCHIAL                      11601
B0101406330472027929001SCHOOL                                                  21600
B0101406330472040053001KUS OFFICE SYSTEM MFG. CORP.                             1604
B0101406330472044383001REPUBLIC AVENUE EXPRESS MINIMART                         1602
A0101410140000018716642CURIOSO, LEONIDA FLORES                                  0502
B0501400170481018109002CSI WAREHOUSE CLUB INC.                                  1602
B0501400170481025398002COSTSAVER'S SUPERMARKET, INC.                            1602
A0501400170481254008001EVA C VISPERAS                                           0501
B1401400110000012353310SUNNY & SCRAMBLE EGG DEALER CORPORATION                  1601
B1401400110492036888008CHRIS MARR MARKETING, INC                                1606
A1401400110492378227001VEJERANO, ROBERTO MAMORE                                 0501
A1401400110492595818001ARQUIZA, JOSE RAMIL REGODON                              0501
A1601400170000001069056CHRISTOPHER S. CO                                        0505
A0701400260000018427273DIAZ, NORA GALIVO                                        0501
B0101403580511015363001MILLENNIUM ERECTORS CORPORATION                          1610
B0101405940512702149001VANDEM MACHINERY TRADERS, INC.                           1605
A0101408530000010580195ARANA, LYNDON JAY VILLARAZA                              0501
A0101408530000005493143BULDA, MARK JAY                                          0502
A0101411400000010984224LICO, MICHAEL FLORENCIO                                  0501
A0101412050000000367908NG, MARISOL DY                                           0502
A0101403450521239736001**********                                               0501
A0101403450521239777001**********                                               0501
A2201400250000013859055CRUZ, MARIZA COCHON                                      0501
B2201400250000000016913ABRAHM CHASE CORPORATION                                 1602
A0101404130000016160882ALILAO, DOLORES DEP-ASEN                                 0501
A0101404260611478374053VIOLETA P. ORADA                                         0501
A0101404260611480122001DAVID, ELIAS FALLARME                                    0501
A0101409920000017595561RECIBIO, REGINALDO GO                                    0501
A0101413440000015534973CALIVA, LYDIA TIONGSON                                   0501
A0101413570000015977005GERONIMO, GLENDA CORMARIE ESPLA                          0501
A0101413570000016547570LOSABIO, IMELDA HERRADURA                                0501
A0101413990000009073354JFF ELECTRICAL CONSTRUCTION                              0503
A0101410300000000191939CARBALLO, LUIS ANTONIO S. OR                            10505
A0101410300000000191939SALAZAR, EMMANUE                                        20500
A1301400210000005040577**********                                               0501
A1301400210682478374062MA. ERLINDA C CHUA                                       0501
A1301400500000000213210RBN ENGINEERING & DEVELOPMENT                            0503
A1301400500684589879001YULO III, ANTONIO P. OR                                 10505
A1301400500684589879001YULO , ANGELINA                                         20500
A4101400260000019172928NOGALADA, KRISTINE PASUMBAL                              0501
A4101400390813478374014ELIZABETH V. EVAL                                        0501
A0101406750000011370340BANTILING, JOSE PANES                                    0502
A0101406750852478374098JOCELYN ARBOSO                                           0501
A0101405070000018667880AUDRY AZANA FELICIANO                                    0501
B0101413860000014575665MILLENNIAL LOGISTICS CORPORATION                         1602
