F0101404680651297826002LIM,YOLANDA OR CABIGON, MELISSA                         12605CKR
F0101404680651297826002OR LANGCAY, SHIE                                        22600CKR
F0201400180001815500841ONG, PACITA YU                                           2601CKO
F0101403290000000542512VECTOR OUTSOURCING SOLUTIONS                            12605CKR
F0101403290000000542512PHILS INC                                               22600CKR
F4101400260000000469330DEPANO, ABEL GONZALES                                    2503CKO
F0101406750000000091023PLUS CONSTRUCTION INDUSTRIES                            12602CK1
F0101406750000000091023CORP.                                                   22600CK1
