A0101410850000003503977MARINAS, MARIARITA MANAGUIO                              0502
A0101410850000009034606DE LOS REYES, JESTONI DE LA                             10501
A0101410850000009034606CRUZ                                                    20500
A0101403320000014463420UY, MARIA U. DBU                                        10503
A0101403320000014463420MAR UY STEEL SUPPLIES                                   20500
A0101410690000003027625BENJAMIN C PILOTIN JR OR                                10504
A0101410690000003027625MARIA HOSANNA A                                         20500
A0101409210000002802666CAI, XIAOCHUN                                            0501
A0101400150061496726001CALMA, JOYSEN SOPHIA TAGUBA                              0501
A0101400150061666405001POBLETE, JOYCE LERONA                                    0502
A6601400120000003672888DIAZ, IRVIN KIM GIRAY                                    0501
A6601400120314624062001GIPAY, MARICEL DIAZ                                      0502
A0101400860000002333455************                                             0505
A0101400860011533026001**********                                               0502
A0101400860011568203001**********                                               0505
A0101400150000007280431MARIA DENISE A. STA. CRUZ OR                            10501
A0101400150000007280431LYDIA A. ARBOLEDA OR LORI                               20500
A0101400150000014518711DELA CRUZ, VANESSA CYRE JAVIER                           0501
B0101400150061010613001SECURITY BANK EMPLOYEES UNION                            1601
A0101400150000009657856DE LEON, DIGNA PILI                                      0502
A0101405810072234609002TAN, JOSEFINA MANOSCA                                    0505
A0101405810072373265003MANANSALA, JOYCEE CATARATA                               0502
A0601400100000009324141RUADIL, MIA PINEDA                                       0502
A0601400100000013256747VINUYA, ALVIN MIRANDA                                    0502
A0601400100000011854181MUNOZ, ANTONIO JUICO                                     0501
A0601400100081329402003VALENCIA, WILFRIDO OR HELEN                              0504
A0101413280000005084891**********                                               0501
A0101410850000008259161ZHENG, FEI                                               0502
A0101410850000009034640**********                                               0502
A0101400730111478374112STO DOMINGO, CONSTANCIA                                 10501
A0101400730111478374112CHARLENE                                                20500
A0101413150000000038468**********                                               0502
A0101412630000000180389MARQUEZ, MA. ELIZA LIMCOLIOC                             0501
A0101412630000007158121ROSETE, ALEXANDER TAN                                    0501
A7201400170000003773193ALUYEN, VICTOR EMMANUEL TOH                              0502
A7201400170000007185619YBANEZ, LAURA LAGERA                                     0501
A7201400170000009673185**********                                               0501
A0101407270000004915880DISTOR, JOY D                                            0501
A0101407270000011651506CAMITAN, MARIA DONNAH GUIA LERO                          0503
A0101401090171737823001JENNY LYNN P. MENDOZA                                    0501
A0301400530000001409650DING, SHUIBEI OR                                        10505
A0301400530000001409650CHEUNG, HENRY B.                                        20500
B0301400530000000025378D' UNIBUENAS CORPORATION                                 1603
A0301400530193583614088VILLANUEVA, MELISSA MAY OR                              10502
A0301400530193583614088VILLANUEVA, PHIL                                        20500
A0301400530000007345475VILLANUEVA, PHILIP OR VILLANUEV                         10502
A0301400530000007345475A, MELISSA                                              20500
A0301400530193729179088VILLANUEVA, PHILIP OR                                   10502
A0301400530193729179088VILLANUEVA, MELI                                        20500
B0301400660000003361971IMAGE CARS DAVAO, INC.                                   1610
B0301400660000000195306G.E. 64 ENTERPRISES, INC.                                1605
A0301400950000011694650LUY, CHRISTIE THERESE OR                                10501
A0301400950000011694650MALINTAD, CAEZAR RYAN                                   20500
A0101401380201630387001LAI, ZHIYONG                                             0502
A0101412500000014541403VILLAOS, DAISY PALANCA                                   0501
A3101400160000014366048ARGAMOSA, ALLAN MANAS                                    0501
A3101400160000014366071ABALOS, ARLENE CABUGOS                                   0501
A3101400160000014366060PINGAD, REBECCA GONZALES                                 0501
A3101400160221534754001RODOLFO L. PUA                                           0501
A3101400740000006735857JARABELO, NATANIEL MADRID DBU                           10501
A3101400740000006735857COZY TREK RENT A CAR                                    20500
A3001400130000010813475LU, JETT BERNARD YAP OR                                 10501
A3001400130000010813475BATUCAN, MARICRIS BANZON                                20500
A1901400290000007876882JOSELITO CANTOS LOPEZ                                    0502
A1901400290000014535543ETHEL ROSALES LIPAT                                      0501
A0101401670271039999001INFINITY INSURANCE SERVICES                              0502
A0101401670271186251001DAHLIA P. STO. DOMINGO                                   0502
A0101401670271508917001KARL BENEDICT R. FAVILA                                  0502
B0101406460000010284852MAXWEB, INC.                                             1602
A0101406460272377244001ALA, JESSIE ATENTA                                       0501
A0101406620273489850001RODOLFO P. DE GUZMAN JR. OR                             10502
A0101406620273489850001ROSARIO K. DE GUZMAN                                    20500
B0101400570281015729002ST. LUKE'S MEDICAL CENTER EMPLOYEES                     11602
B0101400570281015729002ASSOCIATION                                             21600
A0101400570281532404001ONG, EARLEEN SENO                                        0502
A0101411240000014537603RABO, MARIA VICTORIA PASCUAL                             0501
A2601400270000007951177RAYMOND RUEL D. VALLE                                    0501
A0801400160000011336422SO, MARIA COO DBU OTANI BAZAR                            0502
B0801400160000005656971COMMUNITY'S HOPE AND INITIATIVE FOR LAS-                11615
B0801400160000005656971TING DEV., INC.                                         21600
A0101402350000002310725BAGUINON, SHEILA CASTANEDA                               0501
A0101402350321179400001NILDA Q. APISTAR                                         0501
A0101402350321618389001ELVIRA V. MAGLONZO OR                                   10502
A0101402350321618389001MARICRIS V. MAGL                                        20500
A0101405650000006893312LAXA, EUSSEL JOY F.OR                                   10502
A0101405650000006893312LAXA, PAUL NICOLAS A.                                   20500
B0101402060351009544001RI CHEMICAL CORPORATION                                  1606
A0101402060351217440025ARLENE F. MANGURAY                                       0502
A0101409050000014525436LUSABIA, SARAH MAE AUJERO                                0501
A0201400890000000973440COLINA, TERESITA LLANTO                                  0501
B0101402930000003269470HOSPITALITY TECHNOLOGY TRENDS                           11603
B0101402930000003269470PHILIPPINES, INC                                        21600
A0101402930381209050001GRACE DIMAANO OR                                        10501
A0101402930381209050001ALFREDO DIMAANO                                         20500
A0101408370382319789001ROCHELA B. CUAYCONG OR                                  10502
A0101408370382319789001CESAR A. CUAYCONG                                       20500
A0101408370382661460001DEBBIE JOSEFINE G. FRANCISCO OR                         10502
A0101408370382661460001JAY FIDELI A. FRANCISCO                                 20500
A0101411660000003580192COSTELO, EVANGELINE PADILLA                              0501
B0101405490392006563001CAPTIVE PRINTING CORPORATION                             1607
A0101405490392032343001TWIN PEAK BRASSIERES                                    10504
A0101405490392032343001MANUFACTURING INC.                                      20500
A0101405490000006241998PESIMO, NICAR A. DBU LBG CARGO                           0502
A0101408950000005325508ZERNA, MARY KRISTELEE RAGAY                              0501
B0101409180000008122661OAK DRIVE HOTELS AND RESORTS INC.                        1602
A0101409180397241594001LACSON, REY DAVID SIBUMA                                 0501
A0101409180000003310221HERNANDEZ, RAFAEL ANTONIO E. OR                         10502
A0101409180000003310221HERNANDEZ, MARIA                                        20500
B2401400180000011299024LAPASARAN, RODULFO P. DBU R & J TRADING                 11602
B2401400180000011299024AND SERVICES                                            21600
A2401400180411479333002NARSOLIS, ANALIZA GARBO                                  0501
A2401400180411487765001KING, JACKSON OR KING, IRENE OR                         10502
A2401400180411487765001KING, JOHANNA                                           20500
A5101400100000011337072ALINCASTRE, REY JOSEPH CABATO                            0501
B0101403030000005944738NAUTS AND VECTORS COMPANY INC.                           1607
B0101403320471008879002GOLDWIN MANUFACTURING                                   11610
B0101403320471008879002LABORATORIES                                            21600
A0101403320471042842001MIGO MEATSHOP AND FOOD SUPPLY                           10510
A0101403320471042842001CENTER                                                  20500
A0101403320471325110002EDUARDO BORLAGDAN                                        0504
A0101403320471478374053*************                                            0501
A0101403320471478374079SANTOS, FILEMON R.                                       0502
A0101412760000002306229DE GUZMAN, DUSTIN EWALD DANTES                           0501
B0101412760000007821976JONECO TECH MARKETING CORP.                              1601
A0101412760000000528205SARAH JAYNE A. SANCHEZ                                   0502
A0101412760000000528205SANCHEZ, SARAH JAYNE                                     0501
B0501400170481023482001ARZADON LEISURE CORPORATION                              1605
B1901400160000013489615ALLEN UY GENERAL MERCHANDISING CO.                       1601
B1901400160491022987001BATANGAS HEALTH CARE MULTI-PURPOSE COOP                  1602
B1901400160491022987004BATS HEALTH CARE MULTI-PURPOSE COOP                      1603
B1401400110492046339002******                                                   1625
A1401400110492777638001DY, EDNA AYCARDO                                         0510
A0101407430000003193291TAN, BLESILDA SOLIS                                      0501
B0101407430503022062002PEOPLE'S AIRPORT SERVICES CORP.                          1605
B0101407430000008901326CERILO C. CATALAN DBU CERILO'S CATERING                 11601
B0101407430000008901326SERVICES                                                21600
A0101405940000000505980MARTINEZ, M DBU MARIA THERESE                           10503
A0101405940000000505980FLOWER SHOP                                             20500
B0101405940512258230002KADIWA TRANSPORT CORPORATION                             1601
A0101405940000001534269**********                                               0501
B0101408530516033358001FMCB, INC.                                               1602
B0101408530516036530001TEAM GLOBAL FACILITY SOLUTIONS INC.                      1603
B0101408530516190991001MALLORCA REALTY, INC.                                    1604
A0101408530000000594229BOGAYONG, KARINA PAMELA PATERNO                          0501
A0101408530516774975001RELOZA, VICENTE ANTONIO A. OR                           10501
A0101408530516774975001RELOZA, MA. VERO                                        20500
A0101411790000011046250DIZON, MARY ELIZABETH                                    0502
B0101411790518821100608**********                                               2004
A0101412050000013875540LIN, JING                                                0502
B0101403450521011624001**********                                               1602
A0101403450521356203003**********                                               0502
A2201400250000012982431ABELLERA, CHARINA RAMOS                                  0501
A2201400250561297004031ELMER DEL ROSARIO                                        0501
A2201400250561342534003ROWENA B. FERRER                                        10501
A2201400250561342534003OR JENNIFER L. FERRER                                   20500
A2201400250561402767001EUSEBIO L. AQUINTEY                                      0501
A0101410690000006663552DELA PAZ, AURELIO PERALTA                                0503
A0101404130000000321440REYES, LEONILA CANTOS                                    0501
A0101407720602396245001******                                                   0503
B0101412180000003275290INTERNATIONAL EXPERTS FOR TECHNICAL                     11605
B0101412180000003275290SUPPORT SERVICES                                        21600
A0101409890000000049089GEMSTAR CLEANING SUPPLIES                               10503
A0101409890000000049089INTERNATIONAL                                           20500
A0101409920000001539522CEDENO, NOEMIE DEDICATORIA                               0502
A0101409920000009981537MUSCA, MARY GRACE VACUNAWA                               0501
A0101407690000012227024BILLOSO, GIAN CHRISTINE ASIS                             0502
A0101407690000003207230URBIZTONDO JR., GODOLIVO BUNIEL                          0501
A0101407690000008045874CRUZ, MARITES ZOILO DBU TICKLAI                          0502
A0101413990000002962849RIVERA, REYNALDO M. OR                                  10502
A0101413990000002962849RIVERA, VIRGINIA F.                                     20500
A0101414120000007655141BAYLAN, MAGNOLIA CABATIC                                 0501
B0101414120000004603467ARAKK VENTURES CORP.                                     1601
B0101414120000004603398WEBLEND INC.                                             1601
B1301400210682040563001ACTISERVE CORP.                                          1605
A1301400340000002158476ALIPIO, ALMA DELOS SANTOS DBU                           10501
A1301400340000002158476ALIPIO GARMENTS                                         20500
A1301400340683511819002DELA CRUZ, NESTOR AGUILERA                               0501
A1701400230000004469683AGUSTIN, MARILOU MARIANO                                 0501
A1701400230000005694102SALAZAR, EDWIN ENRIQUEZ OR SALA                         10505
A1701400230000005694102ZAR, MARIBETH SALVADOR                                  20500
A0101408240000010148022RIPOLL, TIRSO UBAGO                                     10502
A0101408240000010148022OR RIPOLL, ROMAN VICENTE                                20500
B0101408240711032925004PARENTS ASSOCIATION OF DE LA SALLE                      11602
B0101408240711032925004ZOBEL                                                   21600
A0101408240000008160161QUINONES, C DBU CGQ MACHINE                             10501
A0101408240000008160161SHOP                                                    20500
A0101408240000000039810YUZON, SYLVIA PIMENTEL                                   0501
A2801400100000014468938RUIZ, LORENZ  MARIAE MATURINO                            0501
B2801400100000000004844VMK SUBIC VENTURES INC.                                  1602
B4101400420000009392076**********                                               1602
A0101412340000009501031INGENTE, CAMILLE ANDREA CARAGAY                          0502
B0101405070861018666001SAN ANDRES MARKET VENDORS & COMT'Y MULTI                11610
B0101405070861018666001PURPOSE COOP.                                           21600
B0101405070861044965001MEGA-PRO INTERNATIONAL RESOURCES, INC.                   1606
A0101405070861478374086MARLYN C. GABEST                                         0502
