B0101407430503821100608**********                                               2020
A0101400570281344838001AUGUSTO GUTIERREZ REYES OR                              10502
A0101400570281344838001MARITA REYES                                            20500
A5501400120000005492213CORDERO, CHURCHIL FEDOC                                  0501
A0101400860000000414122*************                                            0503
A0101400860011496074002**********                                               0501
A0101400860000001005376**********                                               0502
A0101400860011575074001**********                                               0502
A0101400860000005312890**********                                               0502
A0101400860011774698001**********                                               0505
B0101400150061016942006ASIA PACIFIC EXPRESS CORPORATION                         1605
B0101400150000001708469STO. TOMAS PACO LAND CORP.                               1601
A0101400150000000253052CARINGIAN, ELENA SAMPANG                                 0501
A0101400600000000007707**********                                               0503
A0101400600071233615002********                                                 0502
B0101400600071282495001********                                                 1602
A0601400360000005039521CUYUGAN, LORRAINE MICHAEL BELAR                          0501
A0101410850000002356783NONES, EMMA RIVERA OR NONES,                            10503
A0101410850000002356783SAMUEL BERMUDEZ                                         20500
A0101400730111198377001STARADUB, ROBERT PATRICK                                 0501
A0101400730111203514007UNGOCO, EMMA L.                                          0502
A0101400730111203514038ARIEL PERALES                                            0505
A0101400730111370569001MANABAT, DANILO MORALES OR                              10501
A0101400730111370569001ARLENE MANABAT                                          20500
A0101400730111386485063LYNETTE E. BENDANILLO                                    0501
B0101406040000000096633*********                                                1601
B0101401830000001140076CZERENAH C. YUSE DBU TOPONE GRAPHICS                    11601
B0101401830000001140076DESIGN SERVICES                                         21600
A0101401830141461686001JOSEPH APOLLO H. GUINEZ OR                              10502
A0101401830141461686001SUSAN G. JULIANO                                        20500
A5001400170000000044982URBAN PAINTS & MORE ENTERPRISES                          0502
A0101412920000002359048SY, GENE ALLISTER ENCARNACION                            0502
A0101412920000003464873CADA, VERONICA NG                                        0501
B0101412920160065795001UNIFIED BROKERS AND APPRAISERS SERVICES                 11601
B0101412920160065795001INC.                                                    21600
A0101400440000000596607GIRLIE B. SANCHEZ                                        0502
A0101400440161525001105VIRGIE B. CRUZ                                           0501
A0101400440161525001159MARITES P. MONTALBAN                                     0501
A0101407270000001596923KATHERINE SUZANNE B. ROBLES                              0501
A0101407270162331908018CATHERINE MADONNA C. CRUZ                                0501
B0101407270162558669001UNIPRIME BEAVER STEEL PRODUCT                           11610
B0101407270162558669001CORPORATION                                             21600
A0301400530000005300229DE GUZMAN, HUBERT HONORATO LAYE                          0501
B0301400950000006054100**********                                               1605
A0101401380201517488001BENEDICTO, HERIBERTH MEDINA                              0501
A0101401380201787198001CAHANAP, FLORO ALVARINA                                  0501
A0101410720653478374002ZENAIDA O. CARLOS                                        0501
A0101412500000002304763****                                                     0501
B3101400160221039189001SPRINGDALE GARDENS HOMEOWNERS                           11603
B3101400160221039189001ASSOCIATION                                             21600
A3101400160221506317001RACHELLE B. ALVIAR                                       0503
A3101400160221533272001NICOLAS S. MOLON                                         0502
A3001400130000008264802AREZO, JOVIE L.                                          0501
A3001400130000008264813SALUDES, GUILLERMA L.                                    0501
A1001400190231478374006LIBRADO, HAZEL T.                                        0501
A1001400350233478374006IBANEZ, ELSA                                             0501
A1001400480000003357500SALVACION JR., DIONISIO CAINGLE                          0501
B0401400300243821100608**********                                               2002
A1301400470252529647001MICHAEL PATRICK L. BANZON OR                            10501
A1301400470252529647001EMILY GRACE V. BANZON                                   20500
B0101401670000004588569BEATI FV CORPORATION                                     1603
B0101406460000001231736***********                                              1601
A0101406620000006317860DELGADO, JUDY GRACE TIONGCO                              0502
B0101406620273017460002ACCENT MICRO PRODUCTS, INC.                              1605
A0101406620273588625001VALDERAMA, ROBERT VALENCIA OR                           10501
A0101406620273588625001VALDERAMA, MA. M                                        20500
A0101411820000002328612RIOJA, DAISY GO                                          0501
A0101400570281186603001DR. RESTITUTO C. BUENVIAJE                               0502
A0101400570281361144001ERIC G. IDIESCA                                          0501
A0501400200292567569001LARILYN D. GATCHALLAN                                    0501
A2601400270000008654177FORMOSO, CHRISTOPHER JOHN A. OR                         10506
A2601400270000008654177FORMOSO, MA. VICTORIA V.                                20500
A0801400160311483955001TANG, ROWENA LIONG                                       0501
A1101400120000002254902BARREDA, EDKENS MARASIGAN                                0501
A6601400120000005710269HORCA, ROMEO PETRONIO                                    0501
A6601400120314612961001SALAVARRIA, VICKY OR CRISALDO                            0502
A6601400120000005710543RUADAP, REDENTOR ADALLA                                  0501
A2001400290000000924447CLAVEL, ALAN ZAMORA                                      0503
A2001400290000001973680AMISTOSO, JORE GARNICA                                   0501
A3401400280000000002671BORRES JR., ALEJANDRE FUENTES                            0501
B0101405650000000772732LEISURE FARMS TAGAYTAY, INC.                             1601
B0101405650000000772685WISEMEDIA GROUP, INC.                                    1601
A0101402510341622026001ALER III, DIOSDADO MARTINEZ                              0501
A0101402510341670455001RECTO, ESTER CHIONG                                      0501
A0101409050000005698997FE ESPERANZA J. PINGKIAN                                 0504
B0101409050000000258491INFORMATICS COLLEGE CALOOCAN, INC.                       1604
A0201400920000000048031FMC CATERING SERVICES                                    0501
A0201400890376633154001JIMENEZ, PETER OR JIMENEZ,MARIA                         10503
A0201400890376633154001THEREZA OR ALAZA                                        20500
A0201400890376633154003JIMENEZ, PETER UTLANG OR                                10503
A0201400890376633154003JIMENEZ, MARIA T                                        20500
A0201400890376762070001JIMENEZ, MARIA THERESA ALMARIO                           0503
B0101402930381019173001MANILA LUXURY CONDOMINIUM CORP.                          1601
B0101402930000000038720MANILA ELECTRIC COMPANY                                  1602
A0101402930381205320001SIMON BUMANLAG SAWIT OR                                 10501
A0101402930381205320001FILIPINAS TIANGC                                        20500
A0101408370382209111001DR. JOSEFINA C. PONCIANO OR                             10503
A0101408370382209111001RANDOLF C. PONCIANO                                     20500
A0101408370000002264080CHAVEZ, CHRISTINE LAOANG                                 0501
A0101405490000000232453ROMEL P. ALMEDA                                          0502
A0101405490000000444568GRAYCOCHEA, EDWARD PETER NAVARR                          0501
B0101408400394025834001TRELLIS RESTAURANT, INC.                                 1605
A0101408400394410824001DUNGO, MA. ELIZABETH FAIGAL                              0501
A0101408400394459747001VELASCO, GUIA SOL BERNAL                                 0502
A0101408400394530015001CERAFICA, JOHN MENDIOLA                                  0501
B5501400120410041377001PEOPLE'S GENERAL MERCHANDISE                             1605
A2401400180411542448002GUATLO, ANNA MARIE VILLASENCIO                           0502
A0901400220432708709001MAHILUM, CATHERINE RIZALDE                               0501
B0901400220432750068001NOCOM, JOSELITO GABRIEL                                  1602
A0101403030441239072002**********                                               0501
A0101412890000002747857ROBLES, ROBBY SANTOS  AND                               10505
A0101412890000002747857JOHN CARLO ROBLES                                       20500
B3801400170000008481603PENA, JAMIL HUSSEIN D AND PENA, KRISTIN                 11601
B3801400170000008481603CHARLOTTE D                                             21600
A3801400170000009776243GERONIMO, NANETTE MONTELLANO                             0501
B1401400110492065652001RODRIGUEZ PROPERTY VENTURES AND DEV                      1601
A1401400110000000132841*******                                                  0501
A1401400110492783910001***********                                              0501
A1601400170000008078462GIL STA. ANA OR FRANCIS BITARA                          10501
A1601400170000008078462OR JOVEN STO. DOMINGO                                   20500
B0701400260000000041072MOTHER SETON HOSPITAL EMPLOYEES UNION                    1601
B0101407430000000044926JOSEPH BINGE B. MACASERO                                 1601
A0101407430000006147793MARILIZA P. ABONG                                        0501
B0101407430000007512029U GO SUNRISE TRAVEL AND TOURS INC.                       1605
A0101408110515041358001MADE IN HEAVEN ENTERPRISE                                0501
B0101408110000008308441SYSTEM TECHNIK MACHINERIES AND PRODUCTS                 11603
B0101408110000008308441CORP.                                                   21600
A0101408530000007304532SANDRA MARIE R. AGUILAR OR MARI                         10502
A0101408530000007304532A ELENA RODRIGUEZ OR JOSE                               20500
B0101403450521040479001CL METALS & WIRE MFG. CORP.                              1602
A0101403610531792048001MORDIDO, IRMA GAMBA                                      0502
B0101404000551021415001UNITED ROYALE CORPORATION                                1601
A0101404000551509002001CAMACHO, JOSEPH CAPUCHINO                                0501
A2201400250561039037001TRIZ N' PAO TRADING                                      0501
A2201400250000006736252EDC TYREQUEST  MARKETING                                 0502
A0101404130000005962172CASTILLO, EMMA APOLINAR                                  0501
A0101407720602381963001KASILAG, EMMANUEL R.                                     0501
A0101404260000003498631ACIERDA, R DBU ROGER ACIERDA FL                          0505
A0101413440000002706072PORCIUNCULA, CATHERINE R. OR                            10502
A0101413440000002706072PORCIUNCULA, JOS                                        20500
A0101413570000005867430*******************                                      0501
A0101413990000000726512GIZA A. CASTRO                                           0501
A0101413990000000726512***                                                      0501
A0101413990000002273963AVILA, ANNABELLE CARRERAS                                0506
A0101414120000001142852TERESITA M. PUYAT OR MARY ANN                           10502
A0101414120000001142852MAGNO                                                   20500
A0101414120000002879743DE GUZMAN, JENNY MERLIE APOLINA                          0501
B0101414120000003584281JD & P FOOD TRADING CORPORATION                          1602
A0101406590662070270001INOCIAN, MARIA TSARINA OR                               10505
A0101406590662070270001PAJARO,VICENTE OR YOLANDA                               20500
A0101406590662070270003INOCIAN, MARIA TSARINA PAJARO                           10504
A0101406590662070270003OR PAJARO, IRENE OR ZOAN                                20500
A0101406590662289338001KIM C. DINO                                              0503
B0101410300000005331691SPECIFIED CONTRACTORS AND DEVELOPME                      1602
A0101410300000000191939CARBALLO, LUIS ANTONIO S. OR                            10510
A0101410300000000191939SALAZAR, EMMANUEL                                       20500
A1301400340683559768002YU, ARIELLE CRISTINA CLEMENTE                            0510
A1301400500684611748001CANOZA, MARY JANE C. OR                                 10501
A1301400500684611748001CANOZA, MARK WILLIAM                                    20500
A0101408240000002331317DAVID, PAUL UY                                           0502
B0101408240711026678001SAMBEL PACIFIC CORPORATION                               1602
A2801400230713243636001PARAISO, JOCELYN A.                                      0501
A4101400420000003715564SARIA, LESTER DBU DESERT QUENCH                         10501
A4101400420000003715564WATER REFILLING                                         20500
A4101400550000000981740REYES, RUBY ROSE VINUYA                                  0503
A4101400550000003267014MALLARI, MICHAEL JOSEPH B.                               0501
A0101412340000003344545MARVIN S. MARALIT                                        0501
A0101412340000004359882IZUN AISHA M. AL-RASCHID                                 0501
A0101412340000004359951QUENNIE A. BRITOS                                        0501
A0101412340000004360489STU B. RAMOS                                             0503
A0101404840851478374115ERLINDA O. PRADO                                         0501
A0101404840851520766126ADELAIDA VILLANUEVA                                      0501
A0101404840851520766175RUTH CONDE                                               0502
B0101405070000000428966ONEWORLD ALLIANCE LOGISTICS CORPORATION                  1610
B0101413860000000145202DE MESA, RAMIL DBU SEASONS TRAVEL AND                   11601
B0101413860000000145202TOURS                                                   21600
