F1201400280671768440001BATANES, BONNER S. OR BATANES, BENTER S.                12605CKO
F12014002806717684400016715500142                                              22600CKO
F0101410850000000005621TURNSAT INTERNATIONAL LOGISTICS                         12606CKR
F0101410850000000005621CORP.                                                   22600CKR
F0101400570281415005001MYLA OR ROBERT CHOA                                      2503CKO
F0301400400413030796088FIVE STAR SURPLUS AND HARDWARE                           2605CKR
F0101409760474039976001R.G. CASAS REALTY, INC.                                  2601CKR
F1201400280671025773008*****                                                    2610CKO
