A0101410850000000005789AUSTRIA, MA. DOLORES RODRIGUEZ                           0501
A0101404680000000013509VILMA D. SAGAY                                           0501
A0101409210000000043723BELISTA, VANESSA GLORY DELA CRU                          0501
A5001400170000000044960VILLAFUERTE, CELESTINO AMPLAYO                           0502
A0101400310000000140832CATACUTAN, NAANNIEL LOBO                                 0501
A0101413440000000183646WENIE L. VALE                                            0501
A0301400660000000194552LU, MICHAEL YAP                                          0502
A0101413600000000206777EFREN A. BALINAS                                         0502
A0101409890000000437449**********                                               0501
A0101405490000000444400TEODORA A. VICTORIA                                      0501
A0101413990000000726556CHAN, BEVERLY JOANNE SIBBALUCA                           0501
A0101401700000000890568**********                                               0501
A0101400600000001025114CARMELITA V. NATIVIDAD JR.                               0501
A2201400250000001066119MICHAEL G. TUMANG                                        0501
A3101400450000001104032BOADO, FE FUNDAN                                         0501
A0201400920000001331862***********                                              0501
A0101400440000001440033RAYMUNDO, LEILANI BUNUAN                                 0502
A0101407270000001597113JESUSA T. TARUN                                          0501
A0101407270000001597146******                                                   0502
A0101403320000001646602PERALTA, MARITES FARINAS                                 0501
A0101406620000001686768GUERZON, ANGELUZ                                         0501
A0101406620000001686928EVIO, JENNIFER RAPAS                                     0502
A0301400790000001776149YUNOS, JOCELYN JIKIRI                                    0501
A0101401960000001844599*****************                                        0501
A0101410140000001939740ABAD, JO-ANNE CAISA                                      0501
A4101400550000002091050BUNDA, AMYSKY ALEGRE                                     0501
A0601400100000002099261QUIWA, JEREMIAH BADAGUAS                                 0502
A0301400820000002106132J 777 AGRI MARKETING CORP.                               0505
A0101400150000002374450DY, MARGARET PILARES                                     0501
A3101400740000002634722CUEVAS, BETO MAGPANTAY                                   0501
A0101400310000002659681MARFIL, VIOLETA LAVEGA                                   0501
A0101400150061383934001TEVES, MA. VICTORIA GRACE                                0503
A0101400150061799966001MARIA JOCELYN SIMON                                      0501
A0101400730111347787002CHAVEZ, LYNN FLORENTINO                                  0501
A0101400730111561049001EMMANUEL G. CUEVAS                                       0501
A0101406040112718720001CRISTINA L. CHAN                                         0501
A0101400440161520766113MARIFE MANZANO                                           0501
A0101400440161525001002NERISSA N. RELAO                                         0501
A0101400440161525001125MAY M. RAMOS                                             0501
A0101407270162333003004MAURO C. AGUSTINES                                       0502
A0101400310211017809002JAZMED ENTERPRISE                                        0503
A0101400310211157803002TECSON, EDITA OR TECSON, VICTOR                          0502
A0101400310211403886003ROMAN JR., VENANCIO SEVILLA                              0505
A0101400310211552076001HERRERA, BOBBY LEONARDO                                  0501
A0101400310211738119001QUEZANA, EXCELYN MANGUERRA                               0501
A3101400160221557336001JOSELITO M GUEVARRA                                      0502
A1001400350233335599001DELA CRUZ, THELMA MAANDIG                                0501
A0101406620273399420001SAMSIN, JOAN CARINUGAN                                   0501
A0101408660274519407001ZIALCITA, MA. CRISTINA B.                                0502
A2601400270302557854001ANGELITO OR AGNES MELEGRITO                              0501
A6601400120314677757001GONZALES, IGNACIO DELA CRUZ                              0501
A2001400290315044705002REMAN GLASS & ALUMINUM                                   0502
A0101408820333478374067MARICEL D. VALSOTE                                       0501
A0101402060351460779001GOMEZ, MAYLENE LAVERIA                                   0503
A0101402770391478374032ELPEDIA C. ABRASALDO                                     0502
A2401400180411478374035MERLINDA D. TAMUDTAMUD                                   0501
A2401400180411478374039ABRENICA, COSMECIA L.                                    0501
A2401400180411504221002REYES, ARMANDO CESAR ARENAS                              0501
A2401400180411658464001FRUTO, RUTH GENAYAS                                      0501
A0101407430503180949001DOLORES SANTOS DELA CRUZ                                 0502
A0101407430503757454001YOLANDA M. HUQUERIZA                                     0501
A0101406880513500465001SABLAN, JOEL SEBASTIAN                                   0502
A0101406880513565496019EMPLOYEES OF ACTIVE REALTY DEVE                          0501
A0101408530516571877123ROBERTO PAOLO DE GUZMAN                                  0501
A0101411400517588921001CHUA, JOHNNY GOODWIN ARCENAL                             0501
A0101403450521238088001**********                                               0503
A0101403610531279193002MORANO, ELISA QUEJANO                                    0502
A0101403610531478374002GRAPE, IMELDA HANDOG                                     0501
A2201400250561361310001LESLIE T.BAUN                                            0501
A0101404130601521127001TIMBANG, AMELIA MENDOZA                                  0501
A0101404680651168760001BONIFACIO A. CATUBAY                                     0501
A0101404680651520766008JOSEPHINE J. CUESTA                                      0502
A0101404680651520766114ROSITA GO                                                0502
A0101404680651520766178REBECCA J. REY                                           0501
A0101404680651570260001ALMA A. UMAYAM                                           0501
A0101404680651642388001PERNITO G. PIAMONTE                                      0502
A0101404680651688227001LIWANAG, ALFREDO GUINTO                                  0501
A0101404680651731015001ISABEL P. ABAYA                                          0501
A0101407560686478374024LORNA SIBAYAN                                            0501
A1701400230693478374040BAGAOISAN, DRIANITA CABANILLA                            0501
A1701400230693478374047BENITO, ROVILLA GOODALE                                  0501
A4101400390813017514001PRESTIGE AUTO CARE                                       0501
A4101400420814520766027ARUTA, CORAZON G.                                        0502
A0101404840851542980001MASANGCAY, NORA VERCELES                                 0501
A0601400230891054400001OPTACOOL ENTERPRISES                                     0501
A0601400230891525600001MARILYN OR CONRADO PACLA                                 0510
A0101407270000000010060SPIRO CLEMENTE OR                                       10505
A4101400260000001135011OMELGO, RAMIL MERSADO OR OMELGO                         10502
A0101409210000001294719FOLEY, ANA MARIE                                        10501
A2201400250000001545579GINA MONTALBAN                                          10501
A0101402770000001571062VICTORINO DE CASTRO III DBU FSV                         10502
A0101402770000001571073HAZEL-LYNN ALMINIANA DBU WEB EY                         10502
A0101408820000001880628TIU, CHERRY SALAZAR DBU                                 10505
A0101410560000001944050CARMELO, CHARY ISABEL JADE                              10501
A0101401090171749142001MARIA THERESA F. TRINIDAD OR                            10502
A0101400310211157887002ICASIANO, BENEDICTO OR                                  10503
A0101401670271186351003BONITA L. DABU OR                                       10501
A0201400760374046327001PELAYO, R. DBU TOTO ENTERPRISES                         10505
A0201400920375521457001VILLAR, BERNARDO N. OR                                  10503
A0101402770391550490001MORILLO, ZENAIDA Z.                                     10501
A1201400150421253216001PIOK, BRIGIT P. OR                                      10502
A1201400150421329088003DR. LILY MUNSAYAC-SUNGA OR                              10502
A0101403320471207895001AMBROSIO OR JOSEPHINE TOBIAS                            10502
A0101404130601708628001PABALATE, PACITA BATAC OR                               10501
A0101407270000000010060JENNIFER CLEMENT                                        20500
A4101400260000001135011MARIVIC PARAN                                           20500
A0101409210000001294719OR FOLEY, NICHOLAS                                      20500
A2201400250000001545579MEMBERS OF NATASHA                                      20500
A0101402770000001571062E POULTRY PROCESSING SERV                               20500
A0101402770000001571073E CCTV & I.T. SERVICES                                  20500
A0101408820000001880628LEGEN-DAIRY ICE                                         20500
A0101410560000001944050CARATAO                                                 20500
A0101401090171749142001ART JOSEPH F. TRINIDAD                                  20500
A0101400310211157887002ICASIANO, JUDITH                                        20500
A0101401670271186351003LUCILA S. CLEMENTE                                      20500
A0201400760374046327001COMMODITIES                                             20500
A0201400920375521457001VILLAR, CARMELA                                         20500
A0101402770391550490001TAN, DANILO G.                                          20500
A1201400150421253216001PIOK, TIBURCIO                                          20500
A1201400150421329088003DR. BENITO V. SU                                        20500
A0101403320471207895001OR MARK ALVIN TOBIAS                                    20500
A0101404130601708628001PABALATE, HELEN                                         20500
B0101408530000000035867WE SEARCH @ SEARCHERS & STAFFERS CORP.                   1602
B5001400170000000045092BUCAD, VILMA RECAMARA                                    1602
B0101406040000000096662CONCEPT SPECIALIST, INC.                                 1605
B0301400660000000195157WISDOM EDUCATIONAL MATERIALS PUBLIS                      1603
B0101413600000000206915LEGEND OF ICE RECRUITMENT & SERVICE                      1603
B0101409050000000258542BAUER FOUNDATIONS PHILIPPINES, INC.                      1605
B0101404130000000321542iPRUDENTIAL STEVEDORING AND PORT SE                      1605
B0101400150000000633492GATEWAY LOGISTICS, INC                                   1602
B0101407270000000830693DAILYTREATS, INC.                                        1605
B0101407270000000830700DELIGHTFULTWIST, INC.                                    1605
B0101407270000000830711GRAN DELECTA, INC.                                       1605
B0101407270000000830733DELISCENTS, INC.                                         1605
B0101407270000000830751CLARKSVILLE FOOD, INC.                                   1605
B0101411110000000842557**********                                               1601
B4101400260000001199082ARTHUR B. ALVIAR AND JOANNE S. ESPIRITU                  1603
B0101406880000001227401CLASSIC TRAVELHAUS, INC.                                 1610
B0101402770000001571626BEARING CENTER & MACHINERY, INC.                         1601
B5501400120000002018946TIU, CARMEN M. OR TIU, GLADYS M.                         1605
B0601400100081026547002ANGELES FRIED CHICKEN, INC.                              1605
B0601400100081035921001MOTHER'S CAKE HOUSE AND RESTO, INC.                      1605
B0101407270162016355001ONWARD COMMUNICATIONS & SERVICES                         1604
B0101407270162019024001RAMCAR, INCORPORATED                                     1602
B0101407270162046726001VALUE CARE HEALTH SYSTEMS, INC.                          1650
B0101407270162046726001VALUE CARE HEALTH SYSTEMS, INC.                          1650
B0101407270162047697001ONE SOURCE FACILITY SERVICES CORP.                       1601
B0101401670271477778001VIRTUSIO PR INTERNATIONAL, INC.                          1601
B0101406460272020749003EASTGATE COMPUTER CORPORATION                            1601
B2601400270302039764001MOTORAM MOTOR PARTS                                      1601
B0101402060351035807001SOLEREX WATER TECHNOLOGIES, INC.                         1605
B0101402770391009325001SAKURAI PHILIPPINES CORP.                                1603
B0101402770391211301001TENG MU KUNG                                             1603
B01014054903920389180021STSERVE LOGISTICS, INC.                                 1601
B0101407430503043975001SEAHAWK TRANSPORT, INC.                                  1605
B0101406880513021335001ACTIVE REALTY AND DEVELOPMENT CORP.                      1610
B0101408530516005188001SEARCHERS & STAFFERS CORP.                               1610
B0101408530516036896001UNITED GRAPHIC EXPRESSION CORPORATION                    1606
B0101404000551005464001JOHN CLEMENTS CONSULTANTS INC.                           1620
B0101404130601100036002SCIENCE OF IDENTITY FOUNDATION, INC.                     1601
B0101406750852032718001PHILGREEN PLASTICS CORPORATION                           1601
B0101406750852491986001SPRINGPHIL TRADING & MFG. INC.                           1601
B0101406750852740034001MORE-NING SUN PACKAGING CORP.                            1601
B3801400170000000018777ANTONIO CATIBOG II OR ZENAIDA CATIBOG OR                11605
B0101407270162019023001PHILIPPINE BATTERIES,                                   11610
B1201400150421017756001KEYSTER PARTS AND GENERAL                               11601
B3801400170000000018777HAZELYN ACEDERA                                         21600
B0101407270162019023001INCORPORATED                                            21600
B1201400150421017756001MERCHANDISE                                             21600
