A0101406590000000035481EVELYN D. MASCARINAS                                     0502
A0201400920000000047965TOP WASH LAUNDRY SERVICES                                0501
A1001400190000000124632ARLIGUE, RACSIEL C                                       0501
A1901400160000000243683RENILO BALMES PANGANIBAN                                 0501
A5501400120000000265901GO, ERICKSON ANG                                         0501
A0101408240000000521913CABAUATAN, EMILY LASAM                                   0501
A0101408790000000579795BMS LAMPS DECORS & SUPPLIES                              0503
A0101411530000000581464DE ASIS, ARNULFO P                                       0503
A0101400440000000596527MARY ALEXIS M. MARTIN                                    0501
A0101401700000000890535SAN DIEGO JR, VICENTE ESPINO                             0501
A2001400290000000978269UYMATIAO, CATHLEEN AMIL                                  0501
A2201400250000001066073JCP AND 3 SONS TRADING CO.                               0501
A0101404840000001312689CASALLA JR., TEODULO                                     0501
A0101407720000001393142MORADA, ROCHELLE ESPERANZA                               0501
A2201400250000001545488MARY GRACE LUMNA GARCIA                                  0501
A1201400150000001863123BAGSINGIT, RAUL PALSIW                                   0501
A1301400500000002063805VENDIVIL, MA. TERESITA OCAMPO                            0501
A0101402640000002069569VIERNES  ELCID IVANHOE  DBU AUT                          0501
A0101413440000002125257*******                                                  0505
A0101413150000002299307*******                                                  0502
A1001400480000002300407REYES, ALEXANDRIA HERRERA                                0502
A0101413280000002317693JOSEPH E. ESMERIA                                        0501
A0101409890000002326752EVANGELINE GONZALES ALFONSO                              0501
A0101413440000002339580CABATANA, MARIA CECILIA SANTOS                           0501
A0101409050000002971402LEONARDO, JASPER RICO MENDOZA                            0501
A0101402480000002975513*********                                                0505
A0101413570000002976163MIRANDA, MARELYN GALES                                   0501
A0101404680000003000464no name                                                  0501
A0101404680000003000555EMILOU M. DE LEON                                        0502
A3101400450000003072493ABANTE, NELDA LIMBO                                      0502
A0101400150000003322396ANTHONY C. PILARTA                                       0501
A0101412340000003344432RAMIL E. MAISO                                           0501
A0101412340000003348872JAMES RANDOLPH B. SEBASTIAN                              0501
A3101400450000003478284ALARVA, CLARIBEL TALAVERA                                0501
A0101402930000003710501REYES, ANGELIQUE MALAZARTE                               0501
A0101400310000004075154AGUILUS, SHERRYLL ILAO                                   0501
A0101400310000004075198BATO, MARIE CLAIRE PEREZ                                 0501
A0101400310000004075245DEE, MOLLY NIU                                           0501
A0101400310000004075256DIGNO, KARREN VIDALLON                                   0501
A0101400310000004075278FLORDELIZA, JOCELYN ARIAR                                0501
A0101400310000004075289GATMAITAN JR., TEOPISTO FLORO                            0501
A0101400310000004075314LANUZA, JOSEPH URCIA                                     0501
A0101400310000004075358NORONA, NORLIE ALVEZ                                     0501
A0101400310000004075369REYES JR., PERFECTO FEROL                                0501
A0101400860011401071002**********                                               0502
A0101400860011402718002**********                                               0503
A0101400860011469369001**********                                               0501
A0101400860011532614001**********                                               0502
A0101401700041191000001PAUL JEFFREY PO                                          0503
A0101400150061077965063LOVE ANNE CARMEN A ALDABA                                0501
A0101400150061227328001DIMAYUGA, MA. VICTORIA BANTUG                            0502
A0101400600071038169001******                                                   0505
A0101400600071236517002******                                                   0502
A0101405810072242205002**********                                               0502
A0101405810072367320001**********                                               0506
A0101405810072444240001*************                                            0503
A0101406040112209765001**********                                               0502
A0101401830141040554001DREAMBOOKS PUBLICATION                                   0502
A0101401830141551597001MARIA VEOSELYN B. ESTRELLA                               0502
A0101400440161478374181GERALDINE N. CUTLER                                      0501
A0101407270162692465001REYNANTE G. CORTEZ                                       0502
A0101401090171198410001IMELDA S. DORADO                                         0501
A3101400450223478374005DE LEON, MA. FE G.                                       0502
A1001400190231370866001*******                                                  0501
A1101400120313478374032CHAVERO, BERNARDITA V.                                   0501
A2001400290315673185001TAHIR, SAMSODIN TOMAWIS                                  0502
A0101402480331478374035MARINAY, JOSEPHINE                                       0501
A0101402480331750722001PERALTA, GLORIA BORBE                                    0501
A0101408820333647405001********                                                 0501
A0101402930381472168001BELTRAN, NOEL AQUINO                                     0501
A0101411660384659794001RICHARD P. USITA                                         0502
A0101408400394478374034MERLA M TANO                                             0502
A0101408950396397661001LAZARO-DIZON, GERGEN MARIE SERR                          0502
A0101408950396654080001DR. DENNIS PESTANO SERRANO                               0501
A2401400180411455559001VENDIX GEN. MERCHANDISE                                  0501
A2401400180411478374047YOLANDA L. NINGAL                                        0501
A2401400180411479333002NARSOLIS, ANALIZA GARBO                                  0501
A1201400150421027554001R.A.J. CE CONSTRUCTION                                   0510
A0101403030441239449002**********                                               0501
A0101403030441413980001**********                                               0502
A0501400170481252349002LALAS, MAEVA DELA CRUZ                                   0502
A0101406880513323152001LAUREL, JUAN MIGUEL YULO                                 0502
A0101404000551361003001GAN, EDNA ANGELES                                        0502
A2201400250561519949001DOLORES CURIOSO GAMBOA                                   0501
A0101407720602243511001LIZARES, NICOLAS                                         0501
A0101407720602378666002FILOTEO CERENO FERRER                                    0502
A0101404260611478374077LUCIA CAPILITAN                                          0501
A0101404680651415804001HEDDA U. SOLIS                                           0501
A0101406590662711800002ROQUE, EVELYN VALDOMAR                                   0502
A1301400340683495036001MARCELO, ELENA RIVERA                                    0510
A1301400500684690469001MARCELINO, GILLYN DE GUZMAN                              0502
A1301400500684779575001RIVERA JR., DOMINGO SANTIAGO                             0501
A0101408240711478374011LYDIA A. INVENTOR                                        0501
A4101400260812681817001VICEDO, ERMINDA VILLAFLORES                              0501
A4101400420814298552007NOEMI S. GARCIA                                          0502
A4101400420814520766119OMNOS, NOVA DESCARTIN                                    0502
A0101404840851520766126ADELAIDA VILLANUEVA                                      0501
A0101402350000001474379SINGZON, ANA LIZA CASES DBU                             10501
A2801400100000001494533CABIARA, ANTONIO CABANAG                                10501
A0101401090000001618942PIATREL ECCLESIASTICAL                                  10502
A0101404680000001716605AGONCILLO, DBU AGONCILLO BOOK                           10501
A0101413440000002339539HERNANDEZ JR., RICARDO B. OR                            10501
A0101410300000002375857GARRUCHO, CECILIA B. OR GARUCCH                         10501
A0101400150000002902445LETICIA E. QUERQUEZ OR                                  10502
A0101409050000002971475EQUIPAJE, GERARD PAOLO ISIP                             10502
A1101400120000003022511SABALLA, BELLA CORITANA DBU                             10501
A0101401830141536580001ALFONSO L. GAGUI JR. OR                                 10501
A0301400530193702921168SELGAS, ROBERT U. OR                                    10501
A2001400290315641895001WENCESLAO, JUNE CLEO OR                                 10501
A0101402060351588151001CASAPAO, ELIZABETH ESLIT                                10502
A0101402930381207255002JOCELYN BARTOLOME OR                                    10501
A2401400180411478374027ELLEN PANTUJAN OR                                       10501
A2401400180411478374061JUNRES AGAD OR                                          10501
A2401400180411666777088DE MESA, FRANCISCA GUBUAT -                             10504
A2201400250561478374025LUZMINDA M. GACILAN                                     10501
A0101408240711228456002MA. VICTORIA MANIQUIS                                   10502
A4101400260812047321001MEDCREST MULTISPECIALTY DIAGNOS                         10502
A0601400230891253086001ENGR. EMER C. FELICIANO OR                              10501
A0101402350000001474379HYDROSYSTEM TRADING                                     20500
A2801400100000001494533OR CABIARA, REBECCA                                     20500
A0101401090000001618942ART GALLERY                                             20500
A0101404680000001716605COLLECTION                                              20500
A0101413440000002339539HERNANDEZ, CATHERINE                                    20500
A0101410300000002375857O, MARIA CLARA YSABEL B.                                20500
A0101400150000002902445ARNEL N. QUERQUEZ                                       20500
A0101409050000002971475OR FELICIANO, RUEL PAUIG                                20500
A1101400120000003022511BKS JUNKSHOP                                            20500
A0101401830141536580001MARIA BELLA A. GAGUI                                    20500
A0301400530193702921168SELGAS, ELVIRA R                                        20500
A2001400290315641895001WENCESLAO, ANTON                                        20500
A0101402060351588151001CASAPAO, MANUEL                                         20500
A0101402930381207255002CANDIDO EDUARDO BARTOLOME                               20500
A2401400180411478374027ELMER PANTUJAN                                          20500
A2401400180411478374061NORMELITA BLANCO                                        20500
A2401400180411666777088NICESIAN STORE                                          20500
A2201400250561478374025MEMBERS OF NATASHA                                      20500
A0101408240711228456002OR STEVE MANIQUIS                                       20500
A4101400260812047321001CLINIC & PHARMAC                                        20500
A0601400230891253086001EDITA B. FELICIA                                        20500
B0101405940000000002984SHINCREATIVE GLOBAL DESIGN INC.                          1602
B2401400180000000019827CHONA U. CARIAGA FOODSHOPPE                              1603
B0101412340000000030888WIT AUTO GROUP CORP.                                     1605
B0101407140000000266211MHA PRINTING                                             1602
B0101405650000000772652MARY MOUNT SCHOOL                                        1605
B0101407720000000885770LARRS SKIN SOLUTIONS, INC                                1605
B0101411110000001037154SOUTH PACIFIC (Y.S.) HOLDINGS, INC.                      1602
B2201400250000001065963EXCITE AUTOMOBILES, INC.                                 1610
B0101405940000003571737HOT DISK CORP.                                           1601
B0101401700041023607001GBU AUTO SPARE PARTS SUPPLY                              1603
B0101401090171039914001SIMPLELINE INC.                                          1601
B2001400290315052317001NRU TRADING                                              1610
B0101402350321037708002RD CASH PADALA, INC.-AREA 1                              1603
B0101402480331010044001SUPERCAST FOUNDRY & MACHINERY                            1610
B0201400920375035929001UPLAND STOCK FEEDS, INC.                                 1602
B0101408790383047956001NOVARAD ASIA PACIFIC CORPORATION                         1602
B5501400120410654342008SAY, CLETO OR FELING OR HELEN OR DANNY                   1605
B2401400180411040003005BRIGADA MASS MEDIA CORPORATION                           1610
B2401400180411056764001RD PAWNSHOP, INC. - GENSAN REGION                        1603
B0501400170481018109002****                                                     1604
B0101403450521011938001FAS DEVELOPMENT CORPORATION                              1602
B0101403450521078888003PUREGOLD PRICE CLUB, INC.                                1620
B0101403610531021346001ST. PETERS BAKESHOP INC.                                 1603
B0101404420631701574001ARIOM TECH COMPUTER SYSTEM                               1606
B1301400340683036384001PLAN ADMINISTRATOR INSTRUCTION'S                         1602
B0601400230891036335001BLUE VOYAGE TRAVEL SERVICES                              1601
B0101401830000000033627CARITAS SALVE CREDIT COOPERATIVE                        11602
B0101401830000000033638CARITAS SALVE CREDIT COOPERATIVE                        11602
B2801400100000003400528SUBIC METRO LANKA INTERNATIONAL                         11601
B0101401250021178953002TENSUAN, ERNESTO OR NECITAS OR                          11610
B0101402480331056082002BISHOP OF LIGHTHOUSE BIBLE BAPTIST                      11601
B0101402480331056082003BISHOP OF LIGHTHOUSE BIBLE BAPTIST                      11601
B0201400760374249471002COMMONWEALTH INSURANCE COMPANY                          11602
B0101407720602005906001ASSOCIATED MEDICAL & CLINICAL                           11610
B0101401830000000033627(LAS PINAS) 007                                         21600
B0101401830000000033638(MANDALUYONG)008                                        21600
B2801400100000003400528CORPORATION                                             21600
B0101401250021178953002EMMANUEL                                                21600
B0101402480331056082002CHURCH                                                  21600
B0101402480331056082003CHURCH                                                  21600
B0201400760374249471002-OPERATING FUND                                         21600
B0101407720602005906001SERVICES, INC.                                          21600
B0101400600071821100608**********                                               2005
B0101413280092821100608**********                                               2002
B0101407720602821100608**********                                               2005
A1301400500000000213163                                                         0505
