B0101401380201821100608**********                                               2002
A0101403610531064267001HEPOS, E DBU LCJ MOTORCYCLE                             10501
A0101403610531064267001SHOP AND PARTS                                          20500
B0101403610000006637170CATALONIA, M DBU MJ CATALONIA TRADING &                 11604
B0101403610000006637170CONSTRUCTION                                            21600
A0101403610000007124821ALVAREZ, PETER JUDE TERCERO                              0504
B0101403610000012969816GERODIAS, JARDINE MUYOT JT                               1601
A0101403610000012973138GERODIAS, MARIA LUISA MUYOT OR                          10502
A0101403610000012973138SLAGLE, JENILEE                                         20500
A1701400230000002347344PAMANI, FLORANTE ADVINCULA OR                           10501
A1701400230000002347344PAMANI, NORMA SAPADEN                                   20500
A1701400230000012227586LAGAN, JHONA MAY MIGUEL                                  0501
A0101400860011498803001**********                                               0501
A0101400860011498803002**********                                               0501
A0101401250900001131787SANCEBUCHE, NOEME CABILLO                                0502
A0101400150000000760805FELIPE, JOY HERNANDEZ                                    0501
A0101400150000004090311DENIEGA, ANN LYN FITERO                                  0505
B0101400150061021085001SEAOIL PHILIPPINES, INC.                                 1610
B0101400150061043190001NORTHERN STAR ENERGY & FUEL DISTRIBUTION                11605
B0101400150061043190001CORPORATION                                             21600
B0101400150000009694579AUDIOWAV MEDIA INC.                                      1610
A0101400150061228992001ROBERTO R. TIONG                                         0502
A0101400150061315314001FADERON, ANNABEL CRUZ                                    0501
B0101400600000001335693ANDRES, JOENATHAN DBU JOENATHAN ANDRES                  11603
B0101400600000001335693GENERAL MERCHAND                                        21600
B0101405810072040696002PLASTIC TECHNOBAG CO. LTD.                               1601
A0101410850000003101899CONTAPAY, MELVIN LARRAGA                                 0504
B0101410850000000005643LIKAS YAMAN SERVICE CORP.                                1606
A0101410560000016199878FABIAN, MYRNA LIPATA                                     0502
A0101400730000000833396CARBONELL, LEVINA IBALE                                  0503
B0101400730111035655001FSL INT'L. MANPOWER & PROMOTION SERVICES                11601
B0101400730111035655001INC.                                                    21600
B0101413150000000082773**********                                               1602
A0101400440161027568001GARB CLOTHING COLLECTION                                 0503
A0101400440000002035023DOROTEO C. TICZON                                        0502
A0101400440000010744562GALLARDO, LORNA VASQUEZ                                  0501
A0101400440000016275673SIO JR., ROMAN DEXTER DIMARUCUT                          0503
A0101400440161520766189PRESCILA P. DOTONG                                       0502
A0101407270000007987077BRAGAS, DIANE KAREN BUTAY                                0502
A0101401090171200336001MATEO R. BAGSIC                                          0503
A0101401090171200998001LUCAS OR NADINEE ARCEO                                  10502
A0101401090171200998001OR ABIGAIL ARCEO                                        20500
A0101401090171293965003VIVECA JANE OR CHARLIE                                  10502
A0101401090171293965003DEOCADIZ                                                20500
A0101401090171378964001POLLY T. BLANCO                                          0501
A0101401090171586038001SANTIAGO, MYLA RASING                                    0501
A0301400530000000065978MAGLENTE, EUGENE L. DBU                                 10503
A0301400530000000065978JAMCARS AUTO SUP                                        20500
A0301400530000001409570RHEAN MARKETING INCORPORATED                             0501
A0301400530193478957001RUFILA, LLEUWELYN BUSTAMENTE                             0501
A0301400950000006080417**********                                               0501
A0101401380000015062530MUYA, MARLON BATHAN                                      0503
A0101401380000015062632GALLARDO, JAKE MEJICO                                    0502
B0101401380000014548822MUYA, MARLON BATHAN DBU                                 11603
B0101401380000014548822NEWREIGN TRADING                                        21600
B0101401380201016338001ELECTRO-R023 ENTERPRISES                                 1601
A0101401380201186475001ORTIZ, ROLANDO REYES                                     0501
A0101413020000014434232CO, JEREMIAH Q. OR CO, OFELIA Q                          0501
A0101410720653030880001NAPOCOR VILLAGE HOMEOWNERS ASSO                         10502
A0101410720653030880001INC.                                                    20500
A0101410720000006128850AGUILAR, ARAMIS BOLIVAR                                  0501
A3101400160000015974900ARANSAZO, CAMILLE NIDO                                   0501
A3101400450223221513001FANDINO, DULCE GALLIVO                                   0501
A3101400740000001692457MALABANAN, MILANNIE G. OR                               10502
A3101400740000001692457MALABANAN, ROHNELL C.                                   20500
B3101400740224041741002CASA DEL NINO MONTESSORI SCHOOL CIUDAD                  11602
B3101400740224041741002DE CALAMBA, INC.                                        21600
A3101400870000016564422LABONETE, MARIANE BISCOCHO                               0501
B1001400190000008744123NEOTRINITY CORPORATION                                   1610
A1001400190231539053001TAN, JEANNIE GALOS                                       0505
A1001400480000014186804SALABE, CHRISTY LEPARTO                                  0503
B1001400480000004097223PARCON, NEYRA ACENAS                                     1601
A1301400470252040709001ANGEL INNA TRADING                                       0505
A1301400760000012981056LUWIS MARC CARIAGA CHUA                                  0501
A1901400290261244348001ROLANDO M REYES OR                                      10502
A1901400290261244348001DRA. ERLINDA V REYES                                    20500
B0101401670271045353001DETECTNET SECURITY CREDIT COOPERATIVE                    1602
B0101406620273026285001DBQUEST, INC.                                            1602
A0101406620273417637001LAPUZ, ANNE SHARLYNE GOBOY                               0502
A0101408660000006296746SULIGUIN, RODERICK REYES                                 0502
A0101408660000013602209ONG, FRANCESCA MONROY                                    0501
A0101410980000002987086**************                                           0503
B0101411820277059475002PROPERTY 101, INCORPORATED                               1601
A0101411240000007844991GAERLAN, GERALDINE RODRIGUEZ                             0504
A0501400200000006445025GANAO, JULIUS MARZAN                                     0501
A0501400200000016519523VITUG, JONATHAN ACOSTA                                   0501
A0801400160311478374008RODELYN LEBUNA                                           0501
A6601400120000008490477PAREDES, JEKYLL TIBERIO DBU JT                           0505
A6601400120314071890001MARTIRES, MYLA TURLA                                     0502
A0101405650000011810767ICAY, CHRISTINE MARIE SABIT                              0501
A0201400760000000223189VAN SPALL, MONIQUE ALEJANDRINO                           0502
B0201400890000012352862BB. SUGBU CHARITY FOUNDATION INC.                        1601
A0201400890376056207001MARDZ AIRCONDITIONING SUPPLY &                          10502
A0201400890376056207001SERVICES                                                20500
A0201400890376535273001TOLEDO,HAROLD XAVIER OR CLIMACO                         10502
A0201400890376535273001BRYAN OR GUEVARR                                        20500
B0201400890376661159001SHS-B BATCH 1985 FOUNDATION INC                          1601
A0201400890376667775001BUYSER, MISAN CANAS OR BUYSER,                          10501
A0201400890376667775001RENZIE RAFAEL CA                                        20500
B0101402930000000057532PALINSAD JIMENEZ & ASSOCIATES                            1601
A0101408370382408402001DR. RAUL V. DESTURA OR                                  10505
A0101408370382408402001BABY ASUNCION B. DESTURA                                20500
A0101408370000006446039LABIO, MADALINEE ETERNITY DIZON                          0503
A0101408370000015475780NILDA T. TESTADO                                         0502
A0101408370382660357001DRS. THERESA MARIE R. CACAS OR                          10501
A0101408370382660357001JEANNE MARIE R. MARQUEZ                                 20500
A0101411660000000489389OCA, SHANI ROSE SANTOS                                   0501
A0101402770391535293001BAYOT, RICARDO GONZALES                                  0505
A0101408400394448107001MATUTINA, CARINA UMLAS                                   0501
B0101409180397024348001APPLESEED MONTESSORI INCORPORATED                        1601
A0101409210000007762794RAMIREZ, GUIDO HONORE CAPULONG                           0501
A0301400820000014657880JUMAWAN, EDMUND YUSON                                    0502
A5501400120410636391028CHIU, JULIA EILEEN & VALENTIN                           10505
A5501400120410636391028& CHRISTIAN & CH                                        20500
A0901400220000011299262THREE J BUILDERS AND DEVELOPER                           0502
A5101400100000011337243BALAGULAN, ABNER TUQUIB                                  0501
A5101400100000010371096DESIERTO, ODELIO P DBU BUTCHAY                          10501
A5101400100000010371096TRUCKING SERVICES                                       20500
A5101400100000010371223ABINES JOHN PAUL BOTIGAN DBU RE                          0501
A0101403030000016387430**********                                               0501
A0101403320471402087001CECILIA L. DIAMANTE                                      0502
A0101403320471539876001TARUN, HAIDEE GUMIRAN                                    0501
A0101406330000011106082ABEL, SIMON PETER MIRABEL                                0501
B0501400170481015879001TDG VEHICLE SALES DEPARTMENT                             1620
B0501400170481038907001JODERON AUTO SUPPLY                                      1605
A0501400170481059315001ABAOAG, MAGELINE DBU M.K.A                              10502
A0501400170481059315001INSURANCE SERVIC                                        20500
A1901400320000016566439PLACENTE, DAX DAVEN ALEGRADO                            10502
A1901400320000016566439DBU TOP STAR HARDWARE & C                               20500
A1401400110492041611001BLUECLICKER COMPUTER CENTER                              0505
A1401400110492220879001ANGLO, ROMEO F. OR                                      10501
A1401400110492220879001ANGLO, CECILIA N                                        20500
A0701400260000006215652DE LEON, GERALD JIMENEZ                                  0501
B0701400260000000671027ALL JORD TIRE SUPPLY CORPORATION                         1601
B0101407430503033971001ENVIROTEK RESOURCE RECOVERY CENTER INC.                  1601
A0101407430000006027896KND ENTERPRISE                                           0501
B0101405940512027420001ENGLISH SPEAKING UNION PHILIPPINES INC.                  1601
B0101405940000003571737HOT DISK CORP.                                           1602
A0101408530000007304481MOSINABRE, SACARIAS LISONDRA                             0501
A0101408530000001886031DANTE A. CASIMIRO                                        0501
A0101408530000008159564DENVER S. GUADILLA                                       0501
A0101403610000008998156DOLON, EDITA TAMSI                                       0501
A0101403610000016521469LU, LESLIE ESPELETA                                      0501
A0101403610531444284001DUENAS, RENDER MACASPAC                                 10501
A0101403610531444284001OR DUENAS, RYAN                                         20500
A2201400250561038458001PTT SOUTH RAMP GASOLINE STATION                          0501
A0101404130000009533382PANTIG, MARY GRACE GARCIA                                0502
A0101407720000000510869ESTEBAN, JOCELYN CANDA                                   0501
B0101407720602007039001TRINITY WOMAN & CHILD CENTER                            11610
B0101407720602007039001THE BIRTH PLACE                                         21600
A0101407720602402391001ZARZA-GERON, VALERIE RACELA                              0502
B0101412180000003275192SOLIDPOINT MANPOWER AND ALLIED SERV                      1605
A0101409920650478374004DADULA, IRENE INES FAVOR                                10502
A0101409920650478374004MEMBERS OF NATASHA                                      20500
B0101407690652030137001ROLLING GREEN REALTY & DEVELOPMENT                      11605
B0101407690652030137001CORPORATION                                             21600
A0101407690652096491001JAMES A. CABANERO OR                                    10503
A0101407690652096491001NIDA P. CABANERO                                        20500
B0101407690652505889001VANCOUVER HILL PRESCHOOL, INC.                           1601
A0101407690000001919855JOSE MARIA AUGUSTO DE JESUS OR                          10501
A0101407690000001919855LEA MARIE MORALE                                        20500
A0101411530000013604234SUSAN B. SARMIENTO OR MARIO M.                          10502
A0101411530000013604234SARMIENTO                                               20500
A0101413440000002706072PORCIUNCULA, CATHERINE OR                               10504
A0101413440000002706072PORCIUNCULA, JOSE PAOLO                                 20500
A0101413570000006703631ARCHIBALD G. TORRES                                      0501
A0101414120000002879743DE GUZMAN, JENNY MERLIE APOLINA                          0502
B0101414120000007655367RIX INTEGRATED CO., INC.                                 1603
B0101414120000000399042SIGNED & DELIVERED, INC.                                 1602
A0101406590662594215001SISON JR., VICTOR OR                                    10501
A0101406590662594215001SISON, MA. ANGELA                                       20500
B1301400210682697928001NELXYS ADMINISTRATIVE AND GENERAL                       11610
B1301400210682697928001SERVICES, INC.                                          21600
A1301400340683092718001GUMBAN, ROLANDO SEMPIO                                   0501
A1301400500000009723231VELASCO, MYLENE LAZARO                                   0503
A0101408240711379306001RAYMUNDO SUAREZ OR                                      10502
A0101408240711379306001KIMBERLY SUAREZ                                         20500
A4101400260000010623833EVANO, CYNTHIA SORIANO                                   0502
A4101400260000010623531WATERS, ARLENE V. DBU DENT360                           10505
A4101400260000010623531DENTAL DIAGNOSTI                                        20500
B4101400390813016813001GENERAL CHEMICALS & RESINS                              11601
B4101400390813016813001CONSORTIUM                                              21600
A4101400420000000711926VILLAFLOR, MINERVA RAQUINO                               0501
A4101400420000015173885DEPANO, ABEL GONZALES                                    0503
A4101400420000012882834LOPEZ, BERNADITH SORIANO                                 0501
A4101400550000000315062SUSON, STEVEN OGABANG                                    0501
A0101412340000004360718MAICA D. AUSTRIA                                         0501
A0101404840000012411271BACARRISAS, JANICE AMPARO OR                            10502
A0101404840000012411271BACARRISAS, MICHAEL IAN                                 20500
A0101404840000016229373AVILLANOSA, SHARON JANE TEJADA                           0501
A0101404840851520766104PARAGAS, MARILOU                                         0502
A0101406750000006303260ISIDORO, JANE FRANCES S.                                 0501
A0101406750852583609001ECHANO, ANNIE MANTES                                     0501
A0101405070861240149002HENRY C. KHO                                             0501
B0101413860000009426411**********                                               1601
A0601400230000003015823ALURA, JIMMY SUENO                                      10502
A0601400230000003015823OR ALURA, MERLE                                         20500
A0601400230000002650108TUAZON, REMIGIO ESCANO                                   0501
