B0101400150061821100608**********                                               2010
A0101400440161478374189CORAZON C. BOLA                                          0501
A0101406620000000962170ORTEZA, REA PERALTA                                      0501
A1101400120000003197062COLLERA, JUSTIN MACATO                                   0504
A0201400920375478374015GAYO, LOURDES O.                                         0502
A0101401250021509883001JIMENEZ, MA. THERESA HILARIO                             0501
A0101400150000010560351CORTEZ, ALEAHNA MAE PASCUAL                              0501
A0101400150000012145903GADDI, PHILLIP JASON PALCES                              0502
B0101400150061047452001PRIDEZ FOODS SERVICES, INC.                              1610
B0101400150061230482001CASE PROPERTY MANAGEMENT, INC.                           1602
A0101400150061337099104MA. SOCORRO SANTOS                                       0501
A0101400150061337099127CARMENCITA L. TAN                                        0501
A0101400150061372223001RAFAEL ANTONIO R. MONTILLA                               0501
A0101400150000004090704SYLIANTENG, BENEDICT EMANUEL PA                          0502
B0101400150061705124001ACTA POWER CORPORATION                                   1602
A0101400600000008914978TIU, MARC LOUISE ESPIRITU                                0501
A0101400600071233721001**********                                               0502
B0101405810072383141002WANG, CIHAI                                              1602
A0601400100081358739002CHUA, IRENE ANUNCIACION REYES                           10502
A0601400100081358739002OR REYES, GLORIA                                        20500
A0101414090000003314810CAMACHO, MIKHAIL DUNGO                                   0502
A0101414090000006212000BARAOIDAN, ABIGEIL IGNACIO                               0501
A0101410560000001291021ELEQUIN, IAN RUVEN ARELLANO                              0502
A0101400730000007475821TUMALIWAN JR., GERARDO                                  10504
A0101400730000007475821PURIFICACION                                            20500
A0101400730111334903033KERWYN D. GARCIA                                         0501
B0101406040000010858029MERIDIAN CARGO FORWARDERS, INC.                          1610
B0101401830000012733589UY JR., SANTOS SALEM DBU JOCAR                          11610
B0101401830000012733589DELIVERY SERVICE                                        21600
A7201400170000003774367MEJOS, ANIEVER ANTEGA                                    0502
B7201400170152004320001PROXIM-A INTERNATIONAL, INC.                             1610
A7201400170000006487832SUPERALES, ERASMO COGALITO DBU                          10502
A7201400170000006487832SUPERALES CONST. & SUPP.                                20500
A0101400440000002035063BUGA, JULIET BONADOR                                     0501
A0101400440161478374120MYRNA Q. NEPOMUCENO                                      0501
A0101401090171200400001MICHAEL ANTHONY C. VASCO                                 0502
B0301400790000002301342MONTEVERDE II, GEORGE MENDEZ DBU GV & HH                11601
B0301400790000002301342MARKETING                                               21600
A0101401380000010190659MUSNI, MICHAEL ANTONIO JANEIRO                           0502
A0101401380201502664001LEY, RICHARD NOEL CO                                     0501
B0101410720000011276710AVAN & CO. INC.                                          1603
A0101410720653172730002DE GUZMAN, ANGELINA GONZALES                             0502
A0101412500000002304712CASTANEDA III, ISABELO MARQUEZ                           0502
A0101412500000014850752GABRIEL, MARIA LOURDES REYES                             0501
A3101400160000014796253CARLOS, MARIA CARLA MARGARET M.                          0501
A3101400160000014696372REYES, PAULA CITADEL BANDIAN                             0501
A3101400160221478374004SIERVO, MARY JANE RAMOS                                  0501
A3101400740000006735891CABUNTOCAN, J OR CABUNTOCAN, C                          10505
A3101400740000006735891DBU MINAMOTO ENTERPRISES                                20500
B3101400870000005960756PUREMED INTERNATIONAL INC.                               1601
B1001400190000002170690GOCHUICO, PETER LIM DBU METRO FASTENERS                 11603
B1001400190000002170690AND INDUSTRIAL                                          21600
A1001400190000008743886BARRON, LORNA ROA                                        0501
B1001400480234821200608**********                                               2001
B1301400470000000009696MAKOBOBI DISTRIBUTORS INC.                               1603
A1301400470000003270584SONNY J. CARINO                                          0501
A1301400470252428703001FERDINAND S. PUNO OR                                    10501
A1301400470252428703001BABELET E. PUNO                                         20500
A1301400470252496058002ROMANITO DR. JUATCO                                      0503
A1301400470252541824001HERNANI F. BANTUG OR                                    10503
A1301400470252541824001ELAINE T. BANTUG                                        20500
A0101406620273458914001**********                                               0503
A0101406620273502279001LOTILLA JR., PERPETUO MERCADO                            0501
A0101408660000000372963PACIS, OSCAR AGCAOILI                                    0501
B0101411820000000477430CONLINS COFFEE WORLD, INC.                               1602
A0101412470000000853834CHUNG, EUN JOO                                           0502
A0101412470000010561849Celina Maria De Castro                                   0502
B0101412470000003847530*******                                                  1601
A0101412470000000520192ARCA, ESTHER DBU WASABE SPICE                           10501
A0101412470000000520192OF THE ORIENT                                           20500
A2601400270000011826910CYRUS C. BALIGOD                                         0501
B1101400120000000010680NEW LEYTE ASIA TRADING CORPORATION                       1602
A6601400120000003642915LIM, NARCISO TIU DBU N & C                              10501
A6601400120000003642915LEASE SERVICES                                          20500
A6601400120000011286263DORADO,JOSHUA CLARENCE DBU JCAD                         10502
A6601400120000011286263ENGINEERING & SUPPLY JT                                 20500
A6601400120314627865001BALANQUIT, DAISY LILY MOSCARE                            0501
A0101405650000000348903ESPERANZA F. BAYLON                                      0502
B0101402510341027740001ENTER INTERNATIONAL PHILIPPINES, INC.                    1603
A0101402510341198085001DR. ANTONIO N. MIRADOR                                   0502
A0101402060000011455133DINGLASAN, ANDREW LUCAS                                  0501
A0101402060000009179564SUPETRAN, ISABELO ERNESTO LUMAQ                          0501
A0101402060000000445414BANSER, FLORDELIZA QUIAMBAO                              0503
B0201400760000005711104SANDRA YOUNG OR JANICE LORRAINE YOUNG                    1601
B0201400760000007134665ROSAL BACALLA  FORTUNA HELMUTH-VEGA                      1601
A0201401020000002250453CASTRO, ANTONIO JOSE LUIS ARABI                          0501
B0101402930381020092002ASIAN BAPTIST CLEARING HOUSE INC.                       11602
B0101402930381020092002OPERATIONAL ACCT                                        21600
B0101411660000007555737HORIZON CONDOMINIUM ASSOCIATION, IN                      1602
A0101402770000007413961AYO, JENNIFER JOSE                                       0501
A0101405490000006300050PALLON, EMILY CASTANEDA                                  0501
B0101405490392032671001VEGA STAR GAS AND SERVICE STATION INC.                   1602
A0101408400000012951714TABABA, JENELYN HURADA                                   0502
A0101408400394408716001CHIU, ARLENE UY                                          0501
A0101408950000011434530HERBOSA, GRACE ANNE BANSON                               0502
A0101409180000011749478ANNA CAUTON OR LUCAS CAUTON III                         10501
A0101409180000011749478OR ROSSELL MICLA                                        20500
B0101409180397024348001APPLESEED MONTESSORI INCORPORATED                        1601
B0101409180000009085092HILSOFT INC.                                             1602
A0101409210398047601001LAMONTE, E DBU YOB AND ERIN                             10501
A0101409210398047601001GLASS ENTERPRISE                                        20500
B0101409210000000031238******                                                   1610
B0101409210000002783413KAPUNAN & CASTILLO LAW OFFICES                           1601
A0101409210398785387001GERONIMO, RICHARD SANTIAGO                               0502
A0101412210000011968253YAP JR., ENRIQUE YNSON                                   0502
A0301400820000000024893ALIVO, JOENALD C.                                        0501
B5501400120000012653491VALEENLAND REALTY CORPORATION DBU R                      1602
A5101400100000010370953DABLIO, RAIA ELLORIN DBU RED-I                           0501
A1901400160000014845340DOMINGO, MARIA CHRISTINE WONG                            0501
A1401400110000013091559BUERA, ALICIA DBU VJ NARVAEZ GE                          0501
A1401400110492044819001ACYATAN & CO., CPA'S                                     0502
A1401400110492669090001ACYATAN, ANTONIO PACALDA                                 0502
A1601400170000000421310LEONARDO B. GONZALES                                     0502
B1601400170000000036068MAXIFUELS CORP.                                          1601
A1601400170494076289001MARIA JOVI B. RAYCO                                      0501
B0101407430503026877001LINEHAUL EXPRESS ROAD FEEDER SERVICES,                  11601
B0101407430503026877001INC.                                                    21600
B0101405940000000002762MILKPACT PHILS. INC.                                     1602
B0101408530516038496001ANGLO-EUROPEAN SERVICES, INC.                            1602
B0101403450521011639001**********                                               1602
A0101403450521238290001********                                                 0501
B0101403610000014824456WILCORE PHILIPPINES, INC.                                1601
A0101403610531036734001PASTRANA, MARIA DBU JRAE                                10502
A0101403610531036734001DRUGSTORE                                               20500
A2201400250000001066073JCP AND 3 SONS TRADING CO.                               0503
B0101404130601100074001KING'S DEVELOPMENT, INC.                                 1603
A0101407720000002693172DAVID, SAMUEL SOLIVEN                                    0502
A0101407720000010907736QUIOGUE, ALMA PURA GILLEGO                               0501
A0101407720000012155970MARIA LUZ M. ESPINOSA OR                                10502
A0101407720000012155970VERNICE E. SALVADORA                                    20500
B0101407720602027414001GAN ADVANCED OSSEOINTEGRATION CENTER                     1610
A0101407720602332201004LIM, MARIA SOCORRO CAEDO                                 0505
A0101407720602565407001CASIHAN, CECILIO DECILOS                                 0501
B0101412180000008320103VERTICAL SPACE INTERIORS, INC                            1610
A0101412180603073677001SARMIENTO, DANILO RIVAS                                  0506
A0101412180603634983001CUEVAS, BERNADETTE S. OR                                10502
A0101412180603634983001CUEVAS, REYNALDO M.                                     20500
A0101404260000003498408AREVALO, MA. JORLYN                                      0501
B0101409920000005460602TOP-MAR METAL VENTURES CORP.                             1602
B0101411530654047365001FIRSTCORE MULTI-PURPOSE COOPERATIVE                      1601
A0101413440000000183760GUEVARA, PEDRITO OR CHONA                                0502
A0101413570000005867430*******************                                      0501
A0101413990000001406360AQUINO, ALMA MILAGROS V. DBU                            10502
A0101413990000001406360AQUIVEL PETRON                                          20500
A0101413990000014848407H.S.B. REFRIGERATION AND AIRCON                         10501
A0101413990000014848407SERVICES                                                20500
A1301400210000002909179BELLO, ALTHEA LOU CASTILLO                               0501
B1301400210000008174009****                                                     1602
B1301400340683501003001GO, LLOYD CHUA OR CHERYL B GO                            1602
A1701400230000013742417AUINGAN, APRIL LORETO                                    0501
B0101408240711036910001ASIAN CENTRE FOR INSULATION PHILS.,                      1603
A0101408240711441984001SANTOS, MARIA VIRGINIA QUESADA                           0501
A2801400230000009021618DE GUZMAN, ADELAIDA VILUAN                               0502
A4101400260000011418243YAMAGUCHI, LOLITA PADILLA                                0501
B4101400260812043809001UPLIFT DASMARINAS                                        1610
A4101400260000002888346CLAUDIA M. NABOS                                         0502
A4101400390000000975253TUAZON, ELIZABETH CALDERON                               0502
B4101400390000000034022GLOBAGILITY INC.                                         1601
B4101400390000008744878E-NAKA-MA CORPORATION                                    1601
A4101400420814590260001LAZATIN, PURIFICACION ARROYO                             0501
A4101400550815047967001REBANCOS, LIGAYA SALVIO                                  0501
A0101412340000007305564ELNA O. GALAROZA                                         0501
B0101404840851009292001GEMSTAR MARKETING                                        1605
A0101406750000010508857ESPINOSA, ELSIE PARNONCILLON                             0501
B0101406750000005608620HIGHLINK COMMUNICATIONS AND MARKETING                   11601
B0101406750000005608620INC.                                                    21600
A0101405070861478374066ELMER LADRES APAS                                        0501
A0101413860000009426780ABIZO, JENNIFER FLORES OR ABIZO                         10501
A0101413860000009426780 EUGENE JAMES FLORES                                    20500
A0601400230000014703170AVILA, SHARMAINE JOY CARINO DBU                         10504
A0601400230000014703170RSN LIGHTINGS OR                                        20500
