B0101407430503821100608**********                                               2020
A0101403320000000736152DEL ROSARIO, ROMMEL ELISEO                               0501
A0101403320000001646868CRISTOPHER T. ADSACA                                     0501
A0101403320000004830940BORCENA, CHRISTIAN DONN AQUINO                           0502
A0101403320000008156150VALENTIN Z. ASUNCION JR. OR                             10501
A0101403320000008156150MA. CARMEN Z. ASUNCION                                  20500
A0101403320471063020001VENTURA, EVI DBU E STRUCTURES                           10501
A0101403320471063020001EVENT SERVICES                                          20500
A0101411820000001356441MAIDA DONCIRAS BUENO                                     0503
B2001400290000002406719WEE, VERNA L. & VIOLETA, LEAH L. & VENDA                11603
B2001400290000002406719NO, LIBERTY T.                                          21600
A0101402060351009385001JORGE ALOMBRO JR. OR                                    10505
A0101402060351009385001NELIA ALOMBRO                                           20500
A0101402060351386924002SY, PRISCILLA PINILI                                     0504
A0101402060351434359001USON, RODOLFO RODRIGUEZ                                  0501
B2401400180411014376005PENBANK, INC. (A PRIVATE DEV'T BANK) -                  11605
B2401400180411014376005CALUMPANG BRANCH                                        21600
B2401400180411044070001MABUHAY TECHNOPARK CORPORATION                           1602
A0101400860000001005536**********                                               0503
A0101400860011387131002**********                                               0502
A0101400860011483037001CASTRO, ROWENA                                           0502
A0101400860011495810001**********                                               0501
A0101400860011656088001**********                                               0502
A0101400860011715602001**********                                               0502
A0101400150000003218328ALLAN ADRIAN M. TANALIGA                                 0501
A0101400150061337855001YNIGUEZ, EPIFANIA GONZALES                               0501
B0101400600071025563001**********                                               1601
B0101405810072019239002ROYAL PINNACLE ESTATES CORP.                             1601
B0101405810072034021001ACCUFORM FABRICATION INC.                                1601
A0101405810000001021321SHI, QUNMEI                                              0501
A0601400360000002282282DIMALANTA, ANNA CATALINA ANIAG                           0501
A0601400520000005943513BUCO, DONALD DELA PENA                                   0501
A0101413280000000041852OLA, EDAM CRUZ DBU HIJK SHIRT                           10501
A0101413280000000041852PRINTING & DESIGNS                                      20500
A0101410850000008210831CAPATI, REGGIE ACUNA                                    10501
A0101410850000008210831OR ACUNA, TERESITA C.                                   20500
A0101410850109046512001*****                                                    0501
A0101400730111199062001ESPIRITU JR., DOMINADOR I.                               0501
B0101401960121023340001**********                                               1601
A0101413310000002317999CONCEPCION, BERNABE TAYAMORA                             0501
A0101413310000004626773RAMOS, A DBU RAMSION ENTERPRISE                          0502
B0101401830141028708001RONAR GENERAL CONTRACTOR                                 1610
B7201400170000003773579BAJAMUNDE JR., JESUS BLANCIA JT                          1602
A7201400170000000040575ELCAMEL, BELEN PEDROZA                                   0501
A7201400170000003774301ALIVIO, ROGER ENGLISA OR                                10502
A7201400170000003774301ALIVIO, JENNIFER CATALAN                                20500
A0101400440161478374144CELERINA M. MARASIGAN                                    0501
A0101400440161525001159MARITES P. MONTALBAN                                     0502
A0101407270162333154022JESUS R. MONTEMAYOR                                      0502
A0101401090171196101002GREGORIO OR MARISSA DIZON                                0501
A0101401090171197481002MA. NOEMI OR ELIEZER SALAZAR                             0502
A0301400530000000065923POWER-UP TIRES, BATTERY AND                             10524
A0301400530000000065923AUTO SUPPLY                                             20500
A0301400660194731082088PEJI, JUNE ANN SOLER OR PEJI,                           10505
A0301400660194731082088JONATHAN CORTES                                         20500
A0101401380000000682633ABAYA, JOSEFA YVETTE CASTRO                              0502
A0101401380000005219905COBARRUBIAS, MARIA CECILIA                              10502
A0101401380000005219905DELA CRUZ                                               20500
A0101401380201740429001MANALO, LORADELLE PURIFICACION                           0501
A0101413600000007006782SHERWIN GILBERT I. ESTEBAN                               0501
A3101400870000005410020CONCEPCION, ROEL SACRAMENTO OR                          10501
A3101400870000005410020DE LA ROSA, JOSE GLEN Y.                                20500
B1001400190000002170849SY, STEPHEN                                              1605
A1001400190231478374179BACAN, JULIET                                            0501
A1001400190000000124730GORME, MARIANITA L.                                      0501
B0101406460000000020931GREATWALL MANPOWER & GENERAL                            11604
B0101406460000000020931SERVICES INC.                                           21600
B0101406620273033463001ARL BUSINESS CONSULTANCY, INC.                           1602
B0101406620273036155001CENTRA EVOLUTION MANAGEMENT, INC.                        1601
A0101406620273038576001VENTURE 11 FOODS EXCHANGE                                0501
A0101406620273521300001GARCIA, LEO MCGUIRE OR                                  10501
A0101406620273521300001GARCIA, CARMEN                                          20500
B0101411110000003202119CROSSFOODS CORPORATION                                   1605
A0101411820000001356496ANICIA SOUZA DE MESA                                     0502
A0101411820000000589408ARLYNE B. BRANDA                                         0505
B0101411240283036923001CRYSTALITE DISTRIBUTION GROUP INC.                       1601
A2601400270000002677365BULACAN CONCRETE PRODUCT                                 0502
A0801400160000000009492LORING, MARIA IA JOY ESPINOSA                            0502
B0801400160311025468002SANTELLEN CORPORATION                                    1602
B0801400160000001289921ULTRADE PHIL. SERVICE CORPORATION                        1602
B1101400120000000652442GICABAO, KATHLEEN JOY NG OR                             11603
B1101400120000000652442GICABAO, BONGKOK                                        21600
A1101400120000001547491ALBAO, ARRIANE RUIZ                                      0501
B2001400290315044204001ACEBANK CREDIT, INC.                                     1601
A3401400280000000156621DELA CRUZ, LOIDA GARCIA                                  0502
A0101402350321176404002MATIAS, GINA A. OR DANILO M. OR                         10501
A0101402350321176404002MATIAS JR., DANILO A.                                   20500
A0101402350321331009001SIANY P. PADURA                                          0502
A0101405650000006893345SALUD, SHALIMAR DANAS                                    0502
A0101405650322047677001THE J. BIJE'S WINDOW SHOP                                0506
A0101402510341395836001TAGUIBAO, CHRISTOBAL CADALIN                             0501
A0101409050000007591651ALANIE SANCHEZ                                           0502
B0201400760374745313001EVO ENVIRO SOLUTIONS, INC.                               1603
B0201400890376045790003****************                                         1603
A0201400890376731894001JIMENEZ, JEREMY MICHAEL ALMARIO                         10502
A0201400890376731894001OR JIMENEZ, MARIA THERESA                               20500
A0201401020000000055941OUANO, RAQUEL DELIGENCIA                                 0502
A0101408790000003701340MARIA ASUNCION V. LAGMAN                                 0501
B0101402770391030634001CITY GREEN - AS STYLE                                    1605
A0101405490000003178432MIRIAM D. PANO OR MELANIO B.                            10502
A0101405490000003178432PANO JR.                                                20500
A0101405490000007362781OREILLY, PETER JOSEPH                                    0501
A0101408950000005325560CRUZ, RACHEL MARIE ARGENTE                               0502
A0101408950000004512058TABLANTE, EMILIANO BAULA                                 0501
A0101408950396576467001DR. JOANNA TERESA MARGARITA                             10501
A0101408950396576467001L. MANALO                                               20500
B0101409210000000031192LSC CORPORATION                                          1602
A5501400120410633077001CLAVISILLAS, JOSIE OR                                   10501
A5501400120410633077001CLAVISILLAS, RON                                        20500
B2401400180411032703001TOYOTA GENERAL SANTOS INC.                               1610
B2401400180000000019747DYNAMIC TEAM, INC.                                       1610
A2401400180000000073561JANROBS MARKETING                                        0503
A0901400220432478374002EVELYN ALGA DEMECILLO                                    0501
A0101403030000000008933**********                                               0501
A0101403320471358101001*****                                                    0501
B0101410140000000499032V-COPY DUPLICATOR SERVICES AND                           1602
A0101410140475478374010PELAEZ, BEATRIZ GUEVARRA                                 0501
A1901400160000007581026MERCADO, CELIS DE LEON                                   0501
A1901400160000000243690PRUDENCIO AGUILA MENDOZA                                 0502
A1601400170000000497423MENCHU R. BUADO                                          0501
A1601400170000000099132JSA PRINTING SUPPLY                                      0505
A0101405940000008203507MACATANGAY, HARRIS C                                     0501
A0101405940512360728001ERWIN P. HERNANDEZ OR                                   10501
A0101405940512360728001AGNES T. HERNAND                                        20500
B0101406880000001286493FRANSIX CO. INC.                                         1601
A0101408110000007498175SAN DIEGO, S DBU 999 FOOD AND                           10505
A0101408110000007498175BEVERAGE                                                20500
B0101408530000001275252MANAHAN, ENAGE-ARANGUREN AND ORTEGA                     11601
B0101408530000001275252LAW OFFICES                                             21600
A0101403450000001637863***********                                              0502
B0101403450521021842005WALL VISION CORPORATION                                  1605
B0101403450521028565001**********                                               1602
A0101403450000001638064************                                             0501
B0101403450521240030001**********                                               1610
A2201400250000001066006BERLYN T. COSTALES OR                                   10505
A2201400250000001066006JOYCE D. GOMEZ                                          20500
A0101407720000003886900LAM, ELIZABETH DAHIL                                     0501
B0101412180000003523782DE CASTRO, DENISE LOREENA VILLAR DBU DDC                11603
B0101412180000003523782ARCHITECTURE STU                                        21600
B0101404260611027974001E.B. KARMINE COMMERCIAL                                  1602
B0101404260611027994001DELRENE EB CONTROLS CENTER                               1602
A0101409920000000022088ASUNCION, MARILYN JUANEZA                                0501
A0101409920000000998683MEMBERS OF NATASHA (SHOECAT INC                         10501
A0101409920000000998683AJETO, MERCY L.                                         20500
A0101411530000002260231MOYA, MARIE DELOS SANTOS                                 0501
A0101410300000006278431ROQUE, EVELYN VALDOMAR                                   0502
A1301400500000007510227SANTOS, MA. ASUNCION REYES                               0502
A0101408240711228456002MA. VICTORIA MANIQUIS                                   10502
A0101408240711228456002OR STEVE MANIQUIS                                       20500
A4101400390813019225002CUARTOS GLASS & ALUMINUM SUPPLY                          0504
A0101404840851298552056ROSARIO GABAYERON                                        0501
A0101406750852617055001PUA, HERMINIA SALAS                                      0501
A0601400230891788658001LENON, DIOSDADO MANLUTAC                                 0501
