A0101407720602516892001EDUVAS-LOZADA, RUTH MESINA                               0501
B1901400290261646923001ZENAIDA PAZ OR MA JESSIE VILLANUEVA OR                  11601
B1901400290261646923001ISABELITA IGLE                                          21600
B0101400150061025672002EASTERN POWER EXPRESS COMPANY, INC.                      1603
A0301400660000002348472NANIE DORADO OR RICHARD DORADO                           0502
B0301400950000002115680MINTRADE CORP.                                           1601
B0301400950000002115719**********                                               1602
B0101401380000003954529EVEB CORPORATION                                         1602
A0101412890000000371362MARK JOSEPH T BAUA                                       0501
A0101412890000000371555**************                                           0502
B0101400860011023116001**********                                               1602
A0101400860011393233002**********                                               0505
A0101400860011661386001**********                                               0505
A0101401250000000020457YAO, ROBERT CASTRO                                       0502
B0101401250021183347002PREHEAT ENGINEERING & TECHNICAL SERVICES                 1601
A0101400150000000760816ELVA C. GERONIMO OR                                     10502
A0101400150000000760816DANIEL B. GERONIMO                                      20500
A0101400150000003218306ADAM PAUL G. TAN                                         0501
A0101400150000009832653LAZARO, SVEN JASON SACDALAN                              0501
B0101400150061033759001D.M. CONSUNJI, INC.                                      1601
B0101400150000001708590MARSTEVEN HOLDINGS, INC                                  1603
A0101400150061348948001JOSE PERPETUO M. LOTILLA                                 0512
A0101400150061368675001JESSE O. ANG                                             0502
A0101400150061398232002TOH, GRACE SHANG YANG                                    0502
B0101400600071025563001**********                                               1602
A0101405810072518695002***************                                          0502
B0601400100081013321001BIO-TECH MARKETING CORPORATION                           1604
B0601400100081013322001LACTO B INCORPORATED                                     1604
B0601400360000003186907MEDINA FLORES PALARCA & OFRIN                            1602
A0601400520000000398476WAMPY PRINTS AND DESIGNS                                 0501
B01014132800000000418632ND PASADENA PLACE NEIGHBORHOOD                         11601
B0101413280000000041863ASSOCIATION INC.                                        21600
A0101414090000008926996PEYRA, CRISTINA CHAVEZ                                   0502
B0101410850000007294451MB FREIGHT CONNECT PHILS., INC.                          1602
B0101410850000001229709POWERFREIGHT LOGISTICS SERVICES, INC.                    1605
B0101410850000001229732POWERFREIGHT LOGISTICS SERVICES, INC.                    1605
B0101410850000001229801MJASPER LOGISTICS CORP.                                  1603
B0101410560000000020388RUFFY, CARMEN C. DBU EQUITY PETRON                      11601
B0101410560000000020388SERVICE CENTER                                          21600
B0101400730111032532001MULTI DESTINATIONS, INC.                                 1602
A0101400730000000833192GLEN T. NIOKO                                            0502
B0101400730000009389940AMARONN FOOD AND SERVICES INCORPORATED                   1602
A0101406040112206801001EMMELINE D. NICOLAS                                      0502
A0101406040112208634001TEOFILA BORLONGAN                                        0502
A0101401960121238731001**********                                               0505
B0101413150000000082773**********                                               1602
A0101400440161625470001KRISTINE A. CECILIA                                      0501
B0101407270162040422001******                                                   1601
A0101407270162331908135REMIGIO C. CRUZ, JR.                                     0501
A0101401090171196039001MANUEL C. MEJIA JR.                                      0504
A0101401090171203107001ANDREW T. FRANCISCO                                      0501
B0301400530000000065923POWER-UP TIRES, BATTERY AND                             11624
B0301400530000000065923AUTO SUPPLY                                             21600
B0301400530000009035154GABRIELLA HEAVY EQUIPMENT RENTAL, I                      1602
A0301400530193740270001YABO, MEZIEL B.                                          0501
B0301400660194469662168*****                                                    1603
A0301400790000003969564CONANAN, EVE MOMONGAN                                    0501
B0301400950000012244767LUCKY 4 CITY APPLIANCE CORP.                             1604
A0101401380000005320990*********                                                0505
A0101401380201043506002KOMMODITIES TODAY GENERAL                               10505
A0101401380201043506002MERCHANDISE                                             20500
A0101401380201508360001SAN JOSE, ROSIE DATO                                     0502
A0101410720653288723001BARANGAN, JOSEPHINE TUNGPALAN                            0505
A0101412500000001146758MARIANO, RICHEL PELIGRO                                  0502
A0101412500000013423637DEQUINA, RAMON BIALOGLOVSKI                              0501
A0101413600000009611901GIL ORJALO JR.                                          10501
A0101413600000009611901OR AILEEN ORJALO                                        20500
B3101400450223024154002FORTUNE GENERAL INSURANCE CORP.                          1601
A3101400450223223458004ALVERO, LEAH AURORA TOLENTINO                            0501
A3101400870000000074786KARUNUNGAN, ALLAN MALALUAN                               0501
A3001400130000009103593PINEDA, NOEL DBU NU KIN                                  0502
A3001400130230478374238PONO, DARWIN E.                                          0502
B1001400190000000124650MINDANAO GOLDEN GRAINS                                  11601
B1001400190000000124650CORPORATION                                             21600
A1001400190231520766025BALBERAN, FLORA ABOY                                     0501
B1001400350233044580001GTS CONSTRUCTION SUPPLY AND DEVELOPMENT                 11610
B1001400350233044580001CORPORATION                                             21600
A1001400350233579422001*****                                                    0501
B1301400470000000009561FUND LINK CREDIT & LOANS, INC.                           1602
A1301400760000001295518REBECCA R. CENA                                          0501
A1301400760000002346152JIMMY C. CENA OR                                        10502
A1301400760000002346152REBECCA R. CENA                                         20500
A1301400760000008698979TAYAO, GILBERT ANTHONY B.  JT                            0502
A1901400290000011794480MA MELANIE R MACASO OR                                  10501
A1901400290000011794480ENRIQUE MENELEO D MACASO                                20500
B1901400290261033408001FEEDS EDITION DISTRIBUTION SYSTEMS INC.                  1610
A0101401670000002341759CHUNG, LYNNA GOYMA                                       0501
B0101401670271017449001HK HARDWARE SUPPLIER CO., INC.                           1601
A0101401670271186264002ATENDIDO, ANITA OR                                      10502
A0101401670271186264002ATENDIDO, RAYMUND                                       20500
B0101408660274035031001HAREM, INC.                                              1602
A0101408660274527967001TAN, SHE LING                                            0501
A0101408660274748250001SANTOS, PAULITA SANCHEZ                                  0501
A0101400570000000165699PAPA, ENRIQUE LUIS DIAZ                                  0501
A0101411240000013422656BAUTISTA, ALVIN ASTUDILLO                                0501
A0101411240000013432343ARCILLA, JOHN BENEDICK BARTOLOM                          0501
A0101411240000013432489VELARDE, DONDEE JULIUS OCAMPO                            0501
A0101411240000013432581GERONIMO, CHERYLL DEL ROSARIO                            0501
A0101411240000013432763BELO, MARK LANTICAN                                      0501
A0101411240000013433211DELA PAZ III, TEOFILO TAYO                               0501
B0501400200000006444744AQUINO, EDWIN GUTIERREZ DBU LINKPRO BUSI                11601
B0501400200000006444744NESS SOLUTIONS                                          21600
A0501400200000011150335RAMIREZ, RAFFY GABAT                                     0502
B2601400270302008426001COUNTRY BANKERS INSURANCE CORP.                          1601
A0801400160000011336553SO, JAN LAWRENCE GO                                      0503
A6601400120000003673001AFUNDAR, ROGER NOYNAY DBU RNA                           10502
A6601400120000003673001CONSTRUCTION AND SUPPLY                                 20500
A6601400120000005710521CARPIO, WILBERT DIANO                                    0502
A6601400120314643787001SAISES, ROMUALDO OR                                     10503
A6601400120314643787001SAISES, ZENAIDA                                         20500
A2001400290000000094557BAEL, RITA PATROCINIO                                    0501
B2001400290000000020515***************************                              1601
B3401400280000000002342VIC IMPERIAL APPLIANCE CORP.                             1604
A0101402350321480369002ROSALIN B. AMADA OR                                     10501
A0101402350321480369002RAMEL M. AMADA                                          20500
A0101402350321542967001ABUNDIENTE, JONATHAN GUMBA                               0502
B0101405650000000013112DEARJOHN SERVICES, INC.                                  1601
B0101405650000000772652MARY MOUNT SCHOOL                                        1605
A0101402510000011695164ALIVIO, NATHANIEL RONDINA OR                            10502
A0101402510000011695164ALIVIO, NORMA RONDINA                                   20500
B0101402510341043547001GARANTISADO SASH WORKS                                   1601
A0201400760000008869765*********                                                0502
B0201400920375046651001CFG QUICKSERVE                                           1605
A0201400920375534474003CHUA, JEFFREY OR CHUA, SHEILA                           10503
A0201400920375534474003FATIMA OR CHUA, MATTHEW                                 20500
B0201400890000012352862BB. SUGBU CHARITY FOUNDATION INC.                        1601
B0201400890376034720001CEBU AGRI CHEM TRADE INC.                                1602
B0201400890376035150001EAL DEVELOPMENT GROUP, INC.                              1602
B0201400890376041232001NEW GRANT DISTRIBUTION CORP.                             1602
A0201400890376515284001TING, ANTHONY CHUA OR TING,                             10502
A0201400890376515284001GRACE UN                                                20500
A0101402930381205134001EDMUNDO SANIEL OR                                       10501
A0101402930381205134001MEDIADORA SANIEL                                        20500
A0101408370000005220108QUINTERO, ROLY T. OR                                    10501
A0101408370000005220108QUINTERO, JENNIFER  L.                                  20500
A0101408370382403238002DR. EUGENIO EMMANUEL V. REGALA                          10503
A0101408370382403238002OR DR. JOHN P. QUEROL                                   20500
A0101408370382728807001MA. KATHRINA THERESE BUNDALIAN                           0501
A0101408790000000579733MARCUS AURELIO PISON                                     0501
B0101411660000000751553SOUTHDRIVE HOMES, INC.                                   1601
B0101411660000002808131TOPHILL MODERN HOMES, INC.                               1601
A0101415350000006213070DULAY, MAYBELLINE SALCEDO                                0501
A0101402770391211318001TRINIDAD ESPINOZA OR                                    10501
A0101402770391211318001MANUEL ESPINOZA                                         20500
A0101402770391213520001ISIDRO, MARIA LUISA OR                                  10501
A0101402770391213520001ISIDRO, ROBERTO                                         20500
A0101402770391216279001BERNARDO, WILFRIDO DE GUZMAN                             0501
A0101402770391217498029DE GUZMAN, LALAINE                                       0501
A0101402770391343901001OCAMPO, ROMMEL ESQUIBAL                                  0502
A0101402770391355762053VIADO, ALFIE BATTAD                                      0502
A0101402770391383276008BARBOSA, JOHN PAULO DEL VALLE                            0502
A0101402770391406956001************                                             0501
A0101402770391550490001MORILLO, ZENAIDA ZAMBRANO OR                            10501
A0101402770391550490001TAN, DANILO GABIANO                                     20500
A0101408400394089355097EMPLOYEES OF W LANDMARK, INC                             0501
A0101408400394401872001ORDOVEZA, JOSE MA LINO                                   0501
B0101408400394722352001MANANSALA HOLDINGS, INC.                                 1601
A0101408400394727990001FERNANDEZ, MARJORIE LYNN JASMIN                          0502
A0101408950000013413046BUENAVENTURA, KRISTINE ANNE HEB                          0501
A0101408950396563183001HUERTO, ANTONIO PETRONIO SIMPAO                          0502
A0101408950396736406001DEFENSOR, MA. THERESA AMADOR                             0502
A0101409180000003310141LEGASPI, GIL PHILIP CAUSING                              0501
A0101409180000005326665PASCUA, RACHELLE IBARRA                                  0501
B0101409180397652693001***                                                      1601
A0101412210399094817006TUVILLO, JORELLE OGAME                                   0501
A0301400820000005991724SUDAY, CHERRY S.                                         0501
A0101403030441025544001**********                                               0505
B0101403030441031034002**********                                               1610
A0101403030441239188001******************                                       0505
A0101403030441483655001**********                                               0501
A0101412890000001056462GO, FLORINDA DE GUZMAN OR                               10501
A0101412890000001056462MANALILI, ZARAH JANE G                                  20500
A0101412890000005913362SAIGANO, LEONILA MENDOZA                                 0501
A0101406330472021239001DJ ANNE ENTERPRISES                                      0501
B0101406330000000432619INNOVATI INTERNATIONAL INCORPORATED                      1601
B0101406330000000432660LIGHTHOUSE MVETC, INC.                                   1602
A0101406330472215960003ARTHUR N. LINDO                                          0502
A0101406330472460738003MA. SUSAN P. MORA                                        0501
B0101406330472667877001FOREVERSPORTS, INC.                                      1605
A3801400170000000497930ARACELI S MANALO                                         0501
A3801400170000008068855TOLENTINO, MARINA ORDONEZ  OR                           10501
A3801400170000008068855TOLENTINO, EDWIN C                                      20500
A1401400110492364401001RAFA,RAQUELITA OR RAFA, RENE OR                         10501
A1401400110492364401001RAFA,REI ANTHONY                                        20500
A0701400260000001231981SABIDO, CECILE ANG                                       0501
A0101407430000003058513REGALIZA, TYRONE MENDIOLA                                0502
B0101407430000000035316D' FRADA ALLIED SERVICES INC.                            1603
A0101405940000003121820ALMERIDO, BERNARD PIMENTEL                               0501
A0101408530000002980772ADRANEDA, LOUIS ALPHONSO                                10503
A0101408530000002980772AVIGUETERO                                              20500
B0101412050000000890911KALIMERA, INC.                                           1602
A0101403450000001769708**************                                           0501
B0101403450521026346001J.G.D. REALTY AND DEVELOPMENT CORP.                      1610
B0101403450521028263001JAMES, JAIME & SONS CORPORATION                          1610
A0101403450521238052007**********                                               0510
A0101403450521238076004**********                                               0502
A0101403450521554894002SON, LEONIDES TAN                                        0502
B0101403610531036705002A.P.D. LEASING OF REAL PROPERTY                          1602
A0101403610531219288001SARMIENTO, EDUARDO R. OR                                10510
A0101403610531219288001SARMIENTO, FRANCISCA A.                                 20500
A2201400250000002337982DURIMAN, ERLINDA BALINGIT                                0501
A2201400250561484428001WILSON LAO SIO OR                                       10502
A2201400250561484428001EDUARD LAO SIO                                          20500
B0101404130601030838001ELEV 8 MEDIA, INC.                                       1603
B0101404130000002121584INCUBIX TECHNOLOGIES INC.                                1601
B0101404130000005961953HELLENIC POWER PHILS. CORP.                              1603
A0101404130601489045001LLORENTE, CHEFORD A. OR                                 10502
A0101404130601489045001LLORENTE, MA. RU                                        20500
B0101404130601669890001HODREAL HOLDINGS INC.                                    1603
A0101407720000004664940MAGNO, JENNIFER YUVIENCO                                 0501
A0101407720602398885001TORRES, ROSALIO PASCUAL                                  0502
A0101404260000005447036KAWAKAMI, SHINJI RAMOS                                   0501
A0101404260611005749001ROCKLAND PROTECTION &                                   10501
A0101404260611005749001INVESTIGATION AG                                        20500
A0101404260611005749001ROCKLAND PROTECTION &                                   10505
A0101404260611005749001INVESTIGATION AG                                        20500
B0101404260611018794002HAVEN MONTESSORI, INC.                                   1601
A0101404260611478374010MARITES R. LACSON                                        0501
A0101404260611478374077LUCIA CAPILITAN                                          0502
B0101407690652042938001SIGNWOOD HARDWARE & LUMBER SUPPLY                        1603
A0101407690000000913600MARQUI AUTO SUPPLY                                       0502
A0101407690000000154841GARCIA, JANNES IAN SILVA                                 0501
A0101413570000005435230SARIP, KHALID SULTAN                                     0502
A0101413570000005435223MAROHOM, AMINODEN BAZER                                  0502
A0101413570000012301583CASTILLO, DANICA ANA                                     0501
A0101413570656057648015JOSE PAULO E. BORJA                                      0501
B1301400340683043242001INNOVA HOMES REALTY CORPORATION                          1601
A1701400230000008555255SANTIAGO, DOLORES CENTENO OR                            10501
A1701400230000008555255SANTIAGO, KATHREENAH C.                                 20500
A0101408240000003310976LEANDRO JULIAN                                           0501
A0101408240000002822095VILAR JR., RAFAEL MALOLES                                0501
B0101408240711027127001NARCISO BROS., INC.                                      1601
A0101408240000006599935DEL ROSARIO, FRANCO GOMEZ                                0501
A0101408240711664308001PELOBELLO, DIVINA MANZANO                                0501
B2801400100712582034001DONGHYUP PHIL. INC.                                      1603
B4101400260000006043476DISCIPLES OF CHRIST FOUNDATION "FOR GODS                11601
B4101400260000006043476GLORY" (FGG) INC                                        21600
B4101400260000001198869GREENLEX  SYSTEM SERVICES INC.                           1602
A4101400420000008280604VITAMOG, JERIELENE REYES DBU                            10502
A4101400420000008280604KIRZANDZOE FASHION MERCHA                               20500
A4101400420814085521001DEL ROSARIO, JAVIER GUIMAN                               0501
A4101400420814520766033DELA CRUZ, MARILOU M.                                    0502
A4101400420814520766046CUENCA, JULIE B.                                         0501
A4101400550000004847036GATDULA, CYNTHIA VILLALUNA                               0501
A4101400550000006044480QUIOYO, EMELIA BOONGALING                                0501
A4101400550815047926001PANDANAN, JOAQUIN CRUZ                                   0501
B4101400550000000900070SOLDIERS' HILLS IV, BACOOR, CAVITE                       1601
A0101404840000013416085DE OCAMPO, MONICA ROMA PUNONGBA                          0501
A0101404840000013416223IBITA, ANNA CLARISSA UNTALAN                             0501
A0101404840851216453001JOSEFINO J. GASCON                                       0501
A0101406750000004641601ARANAS, AMELIA GUEVARRA                                  0501
B0101406750852034933001HYUNDAI ALABANG INC.                                     1610
A0101405070000000541677BRAGANZA, NORA BALLARES                                  0501
B0101405070000001161335W4 ALLIANCE SECURITY AGENCY, INC.                        1602
A0101405070000005619434TIAOQUI, ARTURO VITA OR                                 10502
A0101405070000005619434MERCADO, PATRICIA TIAOQUI                               20500
B0101413860000010275851EXPRESSLEAD LOGISTICS CORPORATION                        1605
A0601400230000006045570GUIAO, JULIETA ONG                                       0505
