F0101401120131367396002BARBARA ANNE C. MIGALLOS                                 2602CKO
F0101409890000000049147BIG QUEEN FOODS CORPORATION                              2605CKR
F0101407560686028809001INTERNATIONAL JOURNEYS, INC.                             2604CKR
F0101406750000000090515PROSWEAL HEALTHCARE INC.                                 2605CKR
