A0101413860000001233772RIVERA, LESLIE KAREN CORDIAL                             0501
A0101400440000004889876MARICEL D. BACOLOD                                       0504
A0101408400000006813716ALTAVANO, WHENPHEN ODCHIMAR                              0501
A2401400180000002284802YATOR, BERNADETTE DIAZ                                   0502
B2401400180411040003001BRIGADA MASS MEDIA CORPORATION                           1601
A2401400180000003949031BALOLONG, WILMA BESARIO DBU                             10501
A2401400180000003949031JCWC FISHING                                            20500
A2401400180411542448002GUATLO, ANNA MARIE VILLASENCIO                           0502
A0101410300000000026531VELHAGEN, MELISA B.                                      0502
A0101413860000001886991DELA TORRE, CRISANTO CARDONA                             0501
B0101400860000005313137**********                                               1601
A0101400860011475361001**********                                               0505
A0101400860011520168001********                                                 0505
A0101400150000002394692CLERIGO, JOHN CARLOS BALOIS                              0501
B0101400150061016435001DEVELOPER SYSTEMS CORPORATION                            1601
B0101400150061021914001E- SCRIBIR INC.                                          1605
B0101400150061023844001ANG BENG UH FOUNDATION, INC.                             1601
B0101400150061025388001RTN FOUNDATION, INC.                                     1601
B0101400150061026095001ELYSEE REALTY AND DEVELOPMENT                           11601
B0101400150061026095001CORPORATION                                             21600
B0101400150061026626001BENGSONS INVESTMENT AND REALTY                          11601
B0101400150061026626001CORPORATION                                             21600
B0101400150061028018001AU MOUNTAIN INVESTMENTS CORP.                            1601
B0101400150061035190001FUEL USING ETHANOL LTD., INC.                            1603
A0101400150061226414001ANG, PHILIP T. OR ANG, EVELYN                           10501
A0101400150061226414001D.                                                      20500
A0101400150061227109002EVELYN D. ANG                                            0501
A0101400150061228465001EDWIN A. AQUINO                                          0501
A0101400150061349858002GARCIA, JUAN RAMON CORTES                                0505
B0101400150061447303001TANY FOUNDATION, INC.                                    1605
A0101400600071392909001********                                                 0501
A0101400600071514369001********                                                 0501
A0601400100081033811001CIRENEJ ENTERPRISES CO.                                  0505
B0601400100000007185073GARDEN DINE RESTAURANT INC.                              1603
A0601400100081251939002ELIZARDO OR WILMA MARTINEZ                               0502
A0601400100081256596001CALAGUAS, CORAZON OR FRANCISCO                           0501
A0601400100081358739001CHUA, IRENE ANUNCIACION                                 10503
A0601400100081358739001OR REYES, GLORIA                                        20500
A0601400520000000398341LIMIN, NOLI MUNDIA                                       0501
B0601400520000000398625PADSA ENTERPRISES                                        1602
A0101413280092062132001REIKEN AUTOMOTIVE SUPPLY                                 0501
A0101414090000006211563JUGO, CHELOY CORINA CASTILLO                             0501
B0101400730111005722004MANILA TEACHERS SAVINGS AND LOAN AS                      1601
B0101401960121238800001***************                                          1602
A0101413150000002299330******                                                   0503
A0101413150000006294175TAN, SUY TIN                                             0501
A0101413310000001073585CHEN, CHARLENE JIM                                       0501
B0101401830000000033581CARITAS SALVE CREDIT COOPERATIVE                        11603
B0101401830000000033581(BULACAN) 003                                           21600
A0101401830141541569001LUSPO, MARIA CARMINA AVANEZ                              0501
A7201400170000011454298NEGAPATAN, ROY ORGE                                      0501
A7201400170000012479517GONZALES, MARY NELLIE LACHARON                           0501
B0101400440000000337820JOSE J. INGARAN                                          1601
A0101400440161520766075ERA G. LAMATA                                            0501
A0101407270000012488796BULGAR, JEFFREY BEATO                                    0501
B0101401090171007908001PERPETUAL SUCCOR HOSPITAL &                             11606
B0101401090171007908001MATERNITY, INC.                                         21600
A0101401090171195893001DR. RICARDO AGBAYANI                                     0501
A0101401090171365718002MA. ANNALEAH S. CRUZ                                     0501
A0101401090171509275002NOEL E. ESTRELLA                                         0501
A0101401090171775528001JULIETA A. PERALTA                                       0503
A0301400530000003573540GO, JOANNE LU OR XU, ZHIPEI                             10505
A0301400530000003573540OR XU, JUNJIE                                           20500
B0101401380201006734001JAMMA PRINTING SERVICES                                  1602
A0101401380201506506001PALMA, THELLIE SALVADOR                                  0502
A0101413020000000057003********                                                 0501
A0101410720653027645001AZERI INDUSTRIAL SALES                                   0506
A0101412500000012489215BAGOS, JUN JUN BOY CASTILLO                              0501
A0101413600000006604913EDELIZ T. TAN                                            0501
A1001400190231312425001TAN, ROGELIO LIM                                         0502
A1001400190231446795001SAARENAS, LOIDA TAN OR SAARENAS                         10501
A1001400190231446795001JR., JULIAN                                             20500
A1001400190231539053001TAN, JEANNIE GALOS                                       0505
A1001400350000000922190RIVERA, JACKIE LOU VILLAROYA                             0502
B0101406620000000014991KST GROUP OF COMPANIES INC.                              1602
B0101411110276045887001GARDEN BARN INC.                                         1601
B0101411110276087065088**************                                           1603
A0101411820000001356241HAO, KENNETH MONDIDO                                     0502
B0101412470000002086353ISABELA ASIA STAR CORP.                                  1606
A0101400570000006272102MAGDALEINE D. CHANG OR ROMAIN                           10501
A0101400570000006272102HOTTERBEEX                                              20500
A0101400570281361144001ERIC G. IDIESCA                                          0501
A0101400570281388539039ROSAURO E. MANUEL                                        0502
A0101411240000002332496LAWAN, CARINA CRISOLOGO                                  0502
A0501400200000006445069ALAMAY JR., MOISES PANGLAO                               0502
A2601400270000011716431MASAGANA (MRH) GRAINS CENTER                             0505
B0801400160000000010242NORTH DRAGON CONSTRUCTION & SUPPLY INC.                  1601
A6601400120314691285002MERCADER, MARICAR OR FERDINAND                           0502
A2001400290315688009001ALGOPERA, LLOYD GARCIA                                   0504
A3401400280000000784527GABOR, ROSEMARIE JANE JAYME                              0502
A0101405650000000080082TAZON, EDELYN ANIVES                                     0501
A0101405650000008025330ROBENTA, RODERICK ACLADO                                 0501
A0101405650322301537001TAN, NORBERTO GONZAGA                                    0501
B0101405650322497703001BASCON, PHILLIP HOWARD                                   1603
A0101402510341004253001KODARI AUTHENTIC RESTAURANT                              0501
B0101402510341037808001FAIR ALL MARKETING                                       1602
A0101402060000009179713MARQUEZ JR., JUANITO GONZALES                            0501
A0101409050000006319662MARALIT, MARIA KRISTINA JUNIO                            0501
A0201400760000005156463WINDY YAP OR SOCRATES YAP                                0502
B0201400760000007134341CLS PROPERTIES INC.                                      1601
B0201400760374531639001INTELLIGENT BEAUTY SKIN                                 11601
B0201400760374531639001SOLUTIONS INC.                                          21600
A0101408370382420560001DR. MICHAEL VILLA OR                                    10505
A0101408370382420560001DR. PATRICIA YUKIJI VILLA                               20500
A0101405490392341023001JAZMIN P. GONZALES                                       0501
A0101405490392563453002ALLAN L. DE GUZMAN OR                                   10501
A0101405490392563453002MARIVEL R. DE GUZMAN                                    20500
A0101405490392591892001RIZZA L. ACOL                                            0502
A0101408400394414282001DE MESA, EDWIN OR                                       10502
A0101408400394414282001DE MESA, CARMEL                                         20500
A0101412210000012172159LIN, YONGPING THADDEUS                                   0501
A0301400820000000316670TIONG, ARISTON D.                                       10501
A0301400820000000316670OR TIONG, FLORITA C.                                    20500
A0301400820000007373033FUENTES, ELVIE D.                                        0501
B2401400180000000019747DYNAMIC TEAM, INC.                                       1610
A2401400180000002284233CLARITO, HERMILY CLAIRE RAFIL                            0501
A2401400180411625087001QUILLOPO, ANABELLE BREZO                                 0501
A1201400150421027541001DL SILVER INTERNATIONAL, INC.                            0505
A1201400150421152351001JISON, THERESE                                           0501
A0101403030000008089334TAN, JESUSA POTIAN                                       0505
A0101406330472027958001A. ANOLIN ENTERPRISES                                    0502
A0101406330472343967001********                                                 0501
A0101406330472539438002ROWENA M. FUNG                                           0501
A3801400170000002302783GANIR JR., ANGEL PANGALIMAN                              0501
B1401400110492013980002IMPERIAL APPLIANCE PLAZA                                 1601
A1401400110492066928001CAMONIAS, E DBU J'MAR MARKETING                          0501
A1601400170000000497514DANTE D. VALLADOLID                                      0501
A1601400170000002334072COLLADA, CARLO LEO SEVILLA                               0501
A0701400260000012479164BICHARA, MA. LUZ MACABUHAY AND                          10501
A0701400260000012479164CASIN, MA. ROWENA ACERO                                 20500
A0101407430000000447090TIRO, GILMAR DAGONDON                                    0501
A0101407430503036416001JUPITER'S BUTCHER SHOP                                   0510
B0101407430000004491787NEW FAR TRUCKING SERVICES, INC.                          1605
B0101407430503069253001NINE DRAGONS VENTURES                                    1601
B0101407430503385656004**********                                               1602
B0101403580511005400001IA CAMPBELL & ASSOCIATES INC                             1615
A0101403580511348160001FLORENDA M. NAVERA                                       0501
A0101403580511424422001ELIZALDE S. UY                                           0501
A0101403580000000016053MARIA CARMINA S. MESIAS                                  0508
B0101405940512035177001FRONTIERS UNLIMITED NETWORK, CO., INC.                   1602
A0101408530000008159564DENVER S. GUADILLA                                       0501
B0101408530516694070001MAJOR MOM NOVELTY GOODS COMPANY, INC                     1601
B0101403450521011657001UPTOWN INDUSTRIAL SALES, INC.                            1610
B0101403450521011872001**********                                               1601
B0101403450521021141001PETBOWE TRADING CORPORATION                              1601
B0101403450521032872001GRANVILLE TRADING CORPORATION                            1601
B0101403450521036992001********                                                 1601
A0101403610000007105951CABABAT, LILIBETH CRUZ                                   0501
B0101403610531013980001VIC IMPERIAL APPLIANCE CORP.                             1603
A0101403610531035023001KAXWAX, INC.                                             0504
A0101403610531478374002GRAPE, IMELDA HANDOG                                     0501
A2201400250561484428001WILSON LAO SIO OR                                       10502
A2201400250561484428001EDUARD LAO SIO                                          20500
A0101410690000000001758IGNACIO, JONATHAN DBU JCJ                               10502
A0101410690000000001758MANAGEMENT SERVI                                        20500
B0101410690600821100608**********                                               2005
B0101404130000009342376PROVENTA CONSULTING LIMITED                              1602
A0101407720602296258001GIRLIE C. ABILLE                                         0501
A0101412180000000560212BALUYUT, WILLIAM HERBERT RAMOS                           0501
B0101404260611028921001KICEM TRADERS AND CO. INC.                               1610
A0101404260000006374252MENDOZA, DAISY LAPIDEZ                                   0501
A0101404260611478374121FLORDELIZA B. HUVALLA                                    0501
A0101409920650478374024DUMAWING, LUALHATI SANTIAGO                              0501
A0101407690652700817001PITOGO, CECILIA JALEM                                    0501
A0101413440000000702236*******                                                  0501
B0101413440000002691592ZABAT, KHELVIN MIRANDA AND                              11602
B0101413440000002691592ZABAT, MICHELLE                                         21600
A0101413440000006680802ZAMORA, J. RYAN LIBRES                                   0501
A0101413990000001947128MARS STONE SUPPLY                                        0503
A1301400340683424357002LAO, ALMA RUBY OR                                       10502
A1301400340683424357002LAO, JOSELITO                                           20500
A1301400500000000213185ESCOPETE JR., ORLANDO SANTOS                             0502
B1301400500684047341001COUPLED ENERGY TECHNICAL SVCS INC.                       1602
A1301400500000002063992JOSHUA & JAMES CONSTRUCTION                              0502
A0101408240711180164001TUPAZ, CORAZON RONQUILLO                                 0501
A0101408240711372919001CHRISTINE OR MANUEL LUIS                                10501
A0101408240711372919001IDQUIVAL                                                20500
A0101408240711374373002**********                                               0501
A0101408240711375763001TUGADE-HLATKY, PILAR                                     0501
A0101408240711559730001MAGSUCI, KARL BAUTISTA OR                               10502
A0101408240711559730001MAGSUCI, MONICA                                         20500
B2801400230713045817001ROWENA MINOO SAMURAI, INC.                               1610
B4101400390813045716001LEGEND JANITORIAL & MANPOWER SERVICE                     1605
A4101400390813378814001GIGI D. ABOGADO                                          0501
B4101400420814012637001ANABU DEVELOPMENT COOPERATIVE                           11605
B4101400420814012637001(ANADECO)                                               21600
A4101400420814478374162RODORA A. CAUSAREN                                       0501
A4101400420814520766027ARUTA, CORAZON G.                                        0501
A4101400420814520766135MOTILLA, ROSELLE                                         0501
B4101400550815040996002MARICHE APARTELLE, INC                                   1601
A4101400550000000005938EVANGELISTA, CHARISMA TOLENTINO                          0504
A0101404840000000943351DEL ROSARIO, JONATHAN CORONEL                            0502
A0101406750000002040293WILLY, JANE LAMSIE                                       0502
A0101406750000003393220APOLINARIO, VIRGINOR ROXAS OR                           10503
A0101406750000003393220TOLENTINO, ORLAN                                        20500
A0101406750000010369690MARCIAL, MAE THESSA FUENTES                              0501
B0101406750000005608642TRANSGLOBAL TRAVEL AND TOURS INC.                        1603
B0101405070861008149001TABAQUERIA DE FILIPINAS INC.                             1606
B0101405070861565051001BLAUGRANA CORPORATION                                    1606
A0101413860000000859003RUNEZ JR, SAMUEL RUNES                                   0503
