B1201400150421821100608**********                                               2001
B0101414120000003584350LRKD MARKETING AND TECHNOLOGY SERVICES                  11604
B0101414120000003584350CORP.                                                   21600
A0101414120000000649116STEADFAST BUILDERS, THE                                  0502
A0101410720000007017449HON. MANOLET O. LAVIDES                                  0501
B0101411240000007844451NIC'S GOURMET DESSERTS, INC.                             1604
B0101405490392821200608**********                                               2001
A0101403610531475509001DE BELEN, VICTOR CONCEPCION                              0505
B0101400860011086656001**********                                               1603
B0101400150061010688010SB CARDS CORPORATION                                     1610
B0101400150000001708345SKIN SCIENCES LABORATORY, INC.                           1602
A0101400150061315349055DENNIS JOY EJERCITO                                      0502
A0101400150061337099127CARMENCITA L. TAN                                        0501
A0101405810072395559001XIE, DUI                                                 0501
B0101400730111015420002FELANER REALTY DEVELOPMENT CORPORATION                   1606
B0101400730111036857001FRC SULO RIVIERA HOTEL CORPORATION                       1606
B0101400730111036857001FRC SULO RIVIERA HOTEL CORPORATION                       1606
B0101400730111037800001AMALGAMATED PUBLICATIONS, INC.                           1603
A0101400730111304745001AUSTRIA, ERNESTO CRUZ OR                                10505
A0101400730111304745001EVELYN AUSTRIA                                          20500
A0101400730111347787002CHAVEZ, LYNN FLORENTINO                                  0501
A0101401960121436064001TAGLE, IMELDA CHUA                                       0501
B5001400170000000169857LINK RI LOGISTICS INC.                                   1605
B0101412920160066369001BORGONA, DBU KHYNECARE PHARMACEUTICAL                   11601
B0101412920160066369001TRADING                                                 21600
B0101407270162038101001BIRDS INTERNATIONAL, INC.                                1603
B0101407270162046726001VALUE CARE HEALTH SYSTEMS, INC.                          1650
B0101407270162046726001VALUE CARE HEALTH SYSTEMS, INC.                          1650
A0101407270162351252001WILFREDO C. CUEVAS                                       0502
A0101401090000000993422SIA, DEXTER JOHN CAMACHO                                 0502
B0101401090171008020002UST PARISH STORE                                         1602
B0101401090171008020003UST PARISH - STOLE FEE                                   1602
A0101401090171196210003MA. CRISTINA S. LOPEZ, M.D.                              0503
A0101401090171196303004**********                                               0501
A0301400660000000194621PARDILLO, JUDITHA ARFAPO                                 0501
B0301400790195054069088BF RETAIL & DISTRIBUTION CORP.                           1603
A0301400950000008921211BELARMINO, MITCHEL GERANGAYA                             0501
B0301400950000002115800************                                             1601
B0101410720000000030020BINGO PALACE CORPORATION                                 1605
A0101413600000009790572MARVIN LESTER CASANADA                                   0502
A3101400160000001559231MARY JANE G BAUTISTA                                     0501
B3101400160221031027002ALLIED DOCTORS FOOD RESOURCES, INC.                     11602
B3101400160221031027002(COMFORT ZONE)                                          21600
A3101400450000003739479*****                                                    0501
A3001400130230757981001SACAY, RENE CANTOR OR SACAY,                            10502
A3001400130230757981001JOSEPHINE SIMBIT                                        20500
A1001400480000008501940BALANA JR., RICHARD ZAMAYLA DBU                         10501
A1001400480000008501940RBJ ENTERPRISES                                         20500
B0101406460000000020931GREATWALL MANPOWER & GENERAL                            11602
B0101406460000000020931SERVICES INC.                                           21600
A0101406460272197187001AGCAOILI, CANDIDA CABATU OR                             10502
A0101406460272197187001AGCAOILI, TEODOR                                        20500
A0101406460272388652001CHUA, ANGEL TAN                                          0501
A0101406460272556054001TAYAG, DEODATO OCAMPO                                    0501
A6601400120314041602001LEXTAN GENERAL MERCHANDISE                               0502
B6601400120314612868001FE ADRIATICO OR MIGUEL ARIATICO                          1603
B6601400120314821200608**********                                               2005
A3401400280000005525344CAPUNONG, ROMULO DELCANO                                 0502
A0201400920000005168710PARILLA, CARL BISNAR DBU CARL                           10502
A0201400920000005168710PARILLA TRADING                                         20500
A0201400890376763623001**********                                               0505
A0101402930000003710756RAMISCAL, ANNA BELINDA MORALES                           0502
A0101402930010120000565VILLALOBOS, DBU MD PRINT WORLD                           0505
A0101408370382660357001DRS. THERESA MARIE R. CACAS OR                          10501
A0101408370382660357001JEANNE MARIE R. MARQUEZ                                 20500
A0101402770391013439001JIREH'S CAR PAINT SHOP                                   0503
A0101402770391028626002RED ELEPHANT TRADING                                     0502
A0101402770000001570587CORAZON MADERAZO OR NICOLAS                             10502
A0101402770000001570587MADERAZO OR SOFIA POSADAS                               20500
A0101405490392174685001VICTORIA T. ANGULO                                       0501
A0101408400000005286524GARCIA, MUSTIOLA STA. ANA                                0502
A0301400820000002271945VOSOTROS, BONIFACIO K.                                   0502
A0301400820000007372810GOLIMLIM, MARICHU M.                                     0503
B1201400150000007556121HERITAGE MANSION BUFFET RESTAURANT AND                  11610
B1201400150000007556121CAFE                                                    21600
B1201400150421821200608**********                                               2001
A0901400220000006214502**********                                               0502
B0101403320471066581001ITP CONSTRUCTION INC. - GUANGXI                         11602
B0101403320471066581001HYDROELECTRIC                                           21600
B0101406330472046636001ENERTECH SYSTEMS INDUSTRIES, INC.                        1610
A0101410140000000482713OPENA, RUBEN HINGPIS                                     0503
A0101412760000001399880ABUDA, SANDRA MARLENE SANDOVAL                           0502
B0501400170000000018317DAGUPAN DOCTORS VILLAFLOR MEMORIAL                       1601
B0501400170481015881001TOYOTA DAGUPAN INC.-2                                    1615
A0501400170481318580005ANA CRISTINA L. SINLAO                                   0510
A1901400160491055120001ALBA, LALAINE MANALO                                     0501
B0701400260000000041083MULTI-WARE ECON-SALES CORPORATION                        1605
B0101403580511561842001DAWAAT INTERNATIONAL CORP.                               1604
A0101405940000005067921CATHERINE CHIQUI F. DIONISIO                             0502
A0101405940000005067921CATHERINE CHIQUI F. DIONISIO                             0502
A0101405940512366890005CASTILLO, RAFAEL RICAFRANCA OR                          10501
A0101405940512366890005CASTILLO, REBECC                                        20500
A0101408530000007456871MARY KRISTINE N. CRUZ                                    0501
A0101408530000001885630BARBARA ANNE VICEDO                                      0501
B0101411400000004555799BF CORPORATION                                           1602
B0101403450521011647001**********                                               1603
A2201400250000007122807RAMOS, CARLOS DALEON DBU RAMOS                           0503
B0101404130601017612001VJON CONSTRUCTION                                        1606
A0101407720602381785001GUZMAN JR., PATRICIO BALA                                0502
A0101407720602402581001DENNIS DAMASO OR                                        10501
A0101407720602402581001MA. ROSARIO DAMASO                                      20500
A0101407720602591314001DR. MA. CECILIA G. GONZALES                              0501
A0101404260611335308002ALIMBOYONG, JOSEPHINE MAHINAY                            0503
A0101404260611478374052ROSEMARY F. ROLDAN                                       0504
B0101413440000002691632BREW NATION PHILIPPINES CORPORATION                      1605
B0101414120000000399071KONSTRUTEK BUILDERS AND TECHNICAL                       11601
B0101414120000000399071SERVICES INC.                                           21600
A0101408240711609524002REYES, MARIA ELMA MONTELOYOLA                            0501
B2801400230713045988001NGE TRADING                                              1602
B4101400260000000002273BERNARD MOJICA AND MARIA CRISTI                          1601
A4101400260000006043396MENDOZA, MARIA JANICE M. DBU                            10506
A4101400260000006043396CREZYLREN FOOD STOP                                     20500
A4101400260812519502001APOSTOL, JESSIE BOY MARTINEZ                             0502
B4101400390000003346187PAGASA PHILIPPINES LENDING COMPANY                       1603
A0101404840000008871412INFANTE, MARK ESCOVIDAL                                  0502
B0101404840000006365171KAWASAKI EMPLOYEES MULTI-PURPOSE CO                      1605
A0101404840851415679001AMORES, ROSEMARIE B.                                     0502
A0101404840851520766163JOCELYN ANONUEVO                                         0501
A0101404840851579779001MENDOZA, DELIGHT COMETA                                  0503
B0101405070861019664001TRAVELEASE, INC.                                         1602
A0101405070000008250202ALCID, ANA MELISSA MAPUA DBU NA                          0502
A0101405070861357456002CARLOS RIVERA/ARISTOTLE NAGUIT                          10501
A0101405070861357456002MA. MAE FLORENTINO                                      20500
A0601400230000007252662CALAYAG, JUDY GOPEZ                                      0502
A0601400230000002650171SANTOS, K DBU ADRICH ENTERPRISE                          0502
