A0101400600000000007690********                                                 0501
A0101411110000000009189**********                                               0502
A0101410560000000020195LELIANE D. TORRES                                        0503
A1301400210000000023263MARIE CONCEPCION M CRUZ                                  0501
A0101404420000000026133****                                                     0501
A0101412630000000045321**********                                               0502
A1901400290000000135128JEFFERSON RECIO LAS                                      0501
A0101404000000000136536NAVASERO, SYLVIA ARNALDO                                 0501
A0601400100000000141933CANLAS, ROGEL YAP                                        0501
A0101401380000000414286********                                                 0510
A0801400160000000476346TSC SUPREME MOTOR SHOP                                   0504
A1101400120000000652493BELETA, REBECCA OBAOB                                    0505
A0101401380000000792018********                                                 0502
A0101401380000000792132********                                                 0501
A0101400440000000821447MERISSA O. VERUEN                                        0501
A0101408400000001213501FERNANDEZ2 AND CO ENTERPRISES C                          0502
A0101412920000001313831TARUN, GEROLD BELTRAN                                    0501
A0101405650000001377328ZAMORA, JOSEPH ENRICO IGNACIO                            0501
A0101412760000001399602JOEY L. LAQUINAY                                         0501
A0101405940000001534269**********                                               0501
A0101402480000001562152********                                                 0502
A4101400550000001622582MONTE, MARIA EVA BOLANOS                                 0501
A4101400390000001732634RULL, FLORDELUNA DAZA                                    0501
A4101400390000001732736CLAVERIA III, DON VIVENCIO G                             0501
A1701400230000001786810NORTHPOINT COMPUTER TECHNOLOGY                           0502
A0301400820000002106274KJL ENTERPRISES                                          0505
A0801400160000002867269EVANGELINE S. BEDANO                                     0501
A0101400860011081984001**********                                               0501
A0101400860011089290001**********                                               0501
A0101400860011444169001**********                                               0505
A0101400860011458859001**********                                               0501
A0101400860011734377001CRUZ, ROWENA ARCEGA                                      0503
A0101400150061337010158MA. ROSARIO LOURDES GARCIA                               0501
A0101400150061508836001ERIC LIM LEE OR CHRISTINE LEE                            0503
A0601400100081501761001TAN, WINTHEL OR RALPH                                    0501
A0601400360083043693001R3J BUILDER AND TRADING                                  0502
A0101400440161092595001DIONSON, ROCELYN CABALIN                                 0501
A0101400440161520766075ERA G. LAMATA                                            0501
A0101400440161520766125FELY TUBELLO                                             0501
A0101400440161525001033MARY JANE V. MACALINAO                                   0502
A0101401090171471784001JULIE ANNE O. JARDIOLIN                                  0503
A0101401090171491755001OLIVIA C. GO                                             0501
A0101401380201572546001GUZMAN, JOSEPH JOVEL GIRON                               0501
A0101406620273217408005ATTY ALFREDO V. LAZARO JR JT                             0505
A2601400270302567227001ROSITA TAN VALLE                                         0501
A2601400270302574301001ALEX UY TY                                               0501
A0801400160311413609001LIM, JOSEPH PO                                           0505
A0801400160311478374053JONNA O. ALCAIN                                          0501
A6601400120314614598001BELLAFLORES, MYRLIN LONGCOP                              0502
A0101402480331016848002**********                                               0502
A0101402480331026378001**********                                               0502
A0101402480331219210001ROSARITO DE DIOS                                         0503
A0101402480331223116001*********                                                0501
A0101402480331354947001*****                                                    0502
A0101402480331478374086JEANETTE LEVANTINO                                       0501
A0101402480331478374162*****************                                        0501
A0101402480331520766027CABRELA, SUSAN PANOTES                                   0502
A0101402060351314596001MA. THERESA C. SAN PEDRO                                 0501
A0101402640361041449001ROBEQ ENTERPRISES                                        0505
A0101408370382404604001DR. MARIANN N. ALMAJAR                                   0503
A0101402770391046569001BHOP ACCOUNTING & TAX SERVICES                           0502
A0101402770391404096002MYLENE B. PANLILIO                                       0503
A0101402770391575057002EVANGELINE RAMOS VENTURA                                 0501
A0101402770391608769001MARIA ELIZA IGNACIO CRISANTO                             0501
A0101408400394030081001XPRINT CO.                                               0510
A0101408400394033093001KOLETZ ART GALLERY                                       0501
A0101408400394037262001A & F JANITORIAL SUPPLIES                                0501
A0101408400394554898001CHUA, HOWARD SY                                          0505
A0101409210398612916002AMPIG, MARK CHRISTIAN OTERO                              0503
A0101403030441319374002**********                                               0502
A0101403320471206060001CARLOS M. GO                                             0501
A0101403320471478374051MYRA ATANGAN                                             0501
A1401400110492041611001BLUECLICKER COMPUTER CENTER                              0503
A1401400110492222617005ANGELINA Z. ARAGONA                                      0502
A1401400110492622560001MORATO, CHERRYL DECHAVEZ                                 0505
A0101408110515679547002************                                             0502
A0101403450521608765001**********                                               0502
A0101404000551735313001DE LUNA, PATRICK JOHN LUPISAN                            0501
A0101404130601450538001ONG, JOSEPHINE R.                                        0501
A0101407720602163717001EDWIN E. DIMAYUGA                                        0504
A0101407720602384186003SARMIENTO, JOSIERINA YANEZA                              0502
A0101407720602397660001LAZARO, GISELLE MARY SERRANO                             0503
A0101407720602427225001MADRID JR., MARIO GARCIA                                 0502
A0101407720602658355001GAMBOA, ARVIN JOSEPH REYES                               0502
A0101407720602752994001CASTRO, CARLA VICTORIA ESPINA                            0503
A0101404260611432372001PERALTA, ELIZABETH GAMBOA                                0502
A0101404260611480122001DAVID, ELIAS FALLARME                                    0502
A0101411530654168711001**********                                               0501
A1701400230693650375001CARAG, MARCO JEREMY LUZOD                                0501
A1701400230693662898002DUQUEZ, REYNALDO AQUINO                                  0501
A0101408240711381955001RENATO OR JUANITA PAET                                   0502
A4101400420814520766119OMNOS, NOVA DESCARTIN                                    0501
A4101400420814600531001GRAGEDA, JOSEPH BRIAN SANTOS                             0502
A0101412340850082898001******                                                   0502
A0101404840851520766097CURAY, TEODORA                                           0502
A0101405070861197496001DE JESUS, JOSEFINA                                       0501
A0101404260000000550127SALAZAR, CARL P DBU ACN OFFICE                          10503
A0101406590000000568714REVIL, VICENTE HOMER B. OR                              10501
A1101400120000000652551CHUA, LETECIA Y. OR                                     10502
A6601400120000001370683CHAN,MARIA CHRISTINA DBU NENENG                         10501
A0101413280000002648337MITCHELLE ZARAH HORTALEZA OR                            10501
A0601400100081040294001MOIKAI INDUSTRIAL SUPPLIES AND                          10502
A0101401090171337852001MA. CORAZON IMELDA H. LINGAN                            10501
A3101400450223311764001MUNOZ, JOUBERT ABANIA                                   10501
A3101400450223588221001GATDULA, JAMAILA  OR AGONCILLO,                         10501
A3001400130230788996001ORA, JONATHAN ABOC OR                                   10506
A1001400350233543683001DONGGAY, CERAEL CAGA-ANAN                               10502
A0801400160311267899001RAMON J. JAVELOSA OR                                    10502
A66014001203140421880015G GALVEZ CONSTRUCTION                                  10502
A0101402510341494855001CYRIL CHRISTINE MARIE DE GUZMAN                         10505
A0101408400394230018001JOSE H. GAOAT JR. OR                                    10503
A0101408400394378428001SEVILLA, RAINALDO MEJIA OR                              10501
A0101408400394569664001DALUSAG, MARY JANE ORIS OR                              10501
A0101408400394604389001MOLINA, LORETO OR                                       10501
A0101412890470086848001IGMIDIO ROBLES AND                                      10504
A1401400110492023002001THESAURUS DRUGSTORE & GENERAL                           10505
A0101407430503434075002ISMAEL V. DE LEON OR                                    10501
A0101404260611381117001JUSI, GRACELDA BUNGAY                                   10502
A0101409920650478374011MELFLOR M. SILVINO                                      10501
A0101409920650478374012CATUBAY, GLORIA JIMENEZ                                 10501
A1301400340683087471001BAUTISTA, GINA AQUINO OR                                10502
A0101407560686606416001ARTURO M. LANGUIDO OR                                   10504
A0101404260000000550127MART                                                    20500
A0101406590000000568714REVIL, JO KRISTINE C.                                   20500
A1101400120000000652551CHUA, LUCINA Y.                                         20500
A6601400120000001370683FURNITURE-MOULDING MAKER                                20500
A0101413280000002648337MARY ROSE HORTALEZA                                     20500
A0601400100081040294001AUTOMATION SERVI                                        20500
A0101401090171337852001OR AUDIE LINGAN                                         20500
A3101400450223311764001OR ANASTACIA SHE                                        20500
A3101400450223588221001JAYVEE OR JOSE J                                        20500
A3001400130230788996001ORA, MARISSA ROA                                        20500
A1001400350233543683001OR DONGGAY, FELI                                        20500
A0801400160311267899001GRACE M. JAVELOSA                                       20500
A6601400120314042188001AND SUPPLY                                              20500
A0101402510341494855001AND VISSIA DE GUZMAN                                    20500
A0101408400394230018001JANEFER F. GAOAT                                        20500
A0101408400394378428001JOSEPHINE SEVILL                                        20500
A0101408400394569664001NUNEZ, SHIRLEY M                                        20500
A0101408400394604389001MOLINA, JEANNETT                                        20500
A0101412890470086848001ANNE JAMACA FIGUEROA                                    20500
A1401400110492023002001MERCHANDISE                                             20500
A0101407430503434075002ADELINA L. DE LEON                                      20500
A0101404260611381117001OR EDGARDO R. JU                                        20500
A0101409920650478374011MEMBERS OF NATASHA                                      20500
A0101409920650478374012MEMBERS OF NATASHA                                      20500
A1301400340683087471001BAUTISTA, RODERI                                        20500
A0101407560686606416001IMELDA LANGUIDO                                         20500
B3001400130000000007029CROSS LUG TRADING                                        1602
B0101411530000000013630THE BODY SPA AND WAXING LOUNGE CORP                      1601
B3101400450000000014126PERLA COMPANIA DE SEGUROS, INC.                          1601
B0101401670000000016300NEWLINE INDUSTRIES, INC.                                 1603
B0101401380000000027056AGUIRRE, A DBU ANNDEE MANPOWER SERVICES                  1601
B0101402480000000028219QUALIGEN PHARMACY CORP.                                  1602
B0601400230000000029741ROYCE CREDIT AND FINANCIAL SERVICES                      1601
B0101402480000000045678QUALIGEN PHARMACY CORP.                                  1602
B0101404260000000156950PERG SECURITY AGENCY, INC.                               1605
B0101411080000000805970**********                                               1602
B0101411080000000806024**********                                               1601
B0101403450000000889574***********                                              1604
B0101400860011375881002*********                                                1601
B0101400860011459113001**********                                               1602
B0101400860011487274001**********                                               1602
B0101400860011507585001LU, SHAOYI                                               1605
B0101401700041007688001PRESIDENT DEVELOPMENT CORP.                              1610
B0101400150061045973001PACSPORTS PHILS., INC.                                   1605
B0101401380201034271004LC BUILDERS AND DEVELOPERS, INC.                         1604
B0101407140213007571002MONIC & COMPANY INC                                      1603
B0101407140213035952001**********                                               1601
B2001400290315047753001SILLIMAN UNIVERSITY COMMUNITY COOP.                      1610
B0101402480331010218001**********                                               1602
B0101402480331010297001HOLLY FARMS INC.                                         1610
B0101402480331017181001**********                                               1603
B0101402480331033378001***************                                          1601
B0101402480331219691001*****                                                    1604
B0101402480331224186001**********                                               1602
B0101402480331224236002TWIN A PRINTING INC.                                     1605
B0101402480331368549088***********                                              1605
B0101402480331541505008PHARMAGENERICS, INC.                                     1602
B0101402480331541505011PHARMAGENERICS, INC.                                     1602
B0101402480331748556007QUALIGEN PHARMACY CORP.                                  1602
B0101408820333041260001********                                                 1602
B0101402510341026660001SAMSON COLLEGE OF SCIENCE & TECHNOLOGY                   1610
B0101402640361032684001GREENSTONE PACKAGING CORP.                               1603
B0101408400394031125001ESPIRITU VITALES ESPIRITU LAW OFFICE                     1602
B0101409210398054022001GALAXYSHIPPING SERVICES INC.                             1601
B0101409210398054024001ELITISTCARGO SERVICES INC.                               1601
B0101409210398054025001ACELEAD SHIPPING CORP.                                   1601
B0101409210398054028001DUNFENG SHIPPING PHILS. CORP.                            1601
B0101409210398054029001STARSLAND TRANSPORT SERVICES INC.                        1601
B0101403030441039990001**********                                               1602
B0101403320471032188001GOLD INDUSTRIAL GAS SALES (GIGS)                         1602
B0101410140475047994001PASIG PARISH CREDIT COOPERATIVE                          1605
B1401400110492042503001LUCENA ROOFWARE TRADING & SERVICES                       1601
B0101407720602026521001*******                                                  1602
B1301400210682038636001FBIC INDUSTRIAL ESTATE ASSOCIATION                       1602
B0101408240711032925021DLSZ (DE LA SALLE SANTIAGO ZOBEL SCHOOL)                 1601
B0101408240711032925022DLSZ (DE LA SALLE SANTIAGO ZOBEL SCHOOL)                 1601
B0101408240711041799001POWERSHADES TRADING                                      1602
B2801400100712032123001ZAMBALES MEDICAL MISSION GROUP HOSP                      1602
B0601400230891008843001BASIC HOUSING SOLUTIONS, INC.                            1605
B0601400100081296256001CHRISTOPHER OR LOYA MALLARI FAO CHRISSAN                11603
B0101407140213046798001WALTER CRISTOBAL DBU CRISTOBAL                          11604
B6601400120314043609011FUNDACION GRAMEEN PILIPINAS INC.                        11605
B0601400100081296256001AUTO SUPPLY                                             21600
B0101407140213046798001ADS AND CONCEPT                                         21600
B6601400120314043609011FEED BRANCH                                             21600
B0601400230891821100608**********                                               2010
