A0101410720000000008620SANTOS, KEIO MARK TUYA                                   0502
A0201400890000000027972******************                                       0501
A2801400230000000063192DE VERA, MIGUEL MONTEMAYOR                               0501
A0101410720000000095152SANTOS JR., ROBERT SAN PEDRO                             0502
A0101402060000000147613AGUIRRE, KITCHIE REBANCOS                                0502
A1001400480000000474942DACALOS, GENMAR MANLOSA                                  0502
A0101410140000000499134LANORIAS, JOVENNES DAVID                                 0502
A0101404680000000767153DENIA, TERESITA GELLANGARIN                              0502
A0101404420000000866519ELPEDES, ROBERTO NOLASCO                                 0501
A0301400660000001020099FIEL, ERIC BUCIO                                         0505
A3101400450000001149291BALDOVINO, ISABEL VALDOPENA                              0501
A0301400950000001379604BRYAN YAP LIM                                            0502
A0101407270000001597259SACRAMENTO, GEORVY APOLINARIO                            0501
A0101408400000001614659MILLARI, JOANNA EVA MARIE C.                             0501
A0701400260000001804600VILUFRA AGRI SOLUTIONS                                   0501
A0101408400000001855483COQUIA, MARY GRACE AGRA                                  0501
A0101410140000001939973CASTILLO, R DBU VRMJ MANPOWER S                          0501
A0101409920000002260453CALANGLANG, LOURDES NIETO                                0502
A1301400470000002299949ESTAVILLO, KING FHERRY SAMIN                             0501
A0101412890000002324192*************                                            0503
A2201400250000002337982DURIMAN, ERLINDA BALINGIT                                0501
A0301400660000002348563*****                                                    0503
A0101412890000002747879SILCOCK, PAMELA PALLON                                   0502
A0101404680000003000511GUMAPAC JR., DBU VMIG INDUSTRIA                          0503
A0101404680000003000555EMILOU M. DE LEON                                        0501
A1101400120000003022486LLEVADO, LINO CARANAGAN                                  0501
A0101408950000003171235ONGKEKO, EDUARDO ERASTO SANTIAG                          0501
A0101412340000003340638ROXANNE B. ALMARIO                                       0501
A0101412340000003349535MARIFE TRINIDAD T. VERMUDO                               0501
A3101400450000003478284ALARVA, CLARIBEL TALAVERA                                0501
A0101412340000003717264RONALD C. TOLENTINO                                      0501
A0101412890000004344934RODRIGUEZ, DINDO M                                       0501
A0501400200000004456968******                                                   0510
A0101400860011234687001CLARENCE T. DUNGAN                                       0502
A0101400860011507585002**********                                               0501
A0101400150061230957006JOSE MARIA T. ZABALETA JT                                0505
A0101400150061311743050RAYMUND PUYAT                                            0502
A0101405810072545732002DONG, LIANXU GONG                                        0503
A0601400360083693423001CALADIAO, CHERYL ARCE                                    0501
A0101401830141543824001BENIGNO L. GRAGEDA JR.                                   0502
A0101400440161478374051LILIA S. FELICES                                         0502
A0101407270162203614002ROBERTO LEYBA                                            0501
A0101407270162493078001GINNY M. OCAMPO                                          0502
A0101407270162503308001RONALD S. FRANCISCO                                      0502
A0101407270162678350001MARY ANN C. ONGYIU                                       0502
A0101401090171195629001HERMINIGILDO G. RANERA                                   0505
A0101401090171198730001DR. NELSON T. LIM                                        0501
A0101400310211478374093ANITA F. CANON                                           0501
A0101400310211478374101AMBALAN, SHEILA OPTO                                     0501
A0101406620273213490002MANUEL B. MATEO                                          0502
A0101400570281187271001SIA, STEPHEN TAN                                         0502
A6601400120314612870001MAGPAYO, FORTUNATO OR AILEEN                             0502
A6601400120314627348001RUBILLOS, LADY ANN MIJARES                               0502
A6601400120314761671001CORILLA, MARIEDEL SAMPAYAN                               0501
A0101402480331218888001*******                                                  0502
A0101408820333040578001********                                                 0501
A0201400760374720031001******                                                   0503
A0101402770391028626002RED ELEPHANT TRADING                                     0503
A2401400180411044483001OUR LADY OF PERPETUAL HELP PARI                          0501
A0101403030441279569001**********                                               0506
A0101403450521238642001*********                                                0505
A0101403450521441986001**************                                           0520
A0101407720602162403001MARY CAROLINE LAGMAN                                     0503
A0101409890649774914001ELEFANO, ROSITA CASTRO                                   0501
A0101409920650478374023RENTIGRADO, ELENA ESTOESTA                               0501
A0101404680651034098001NOVAVILLE PAINT CENTER                                   0502
A0101404680651170273001MANGILA BUSINESS AGENCY                                  0501
A0101404680651170612002REA F. SORILLA                                           0501
A0101404680651230380001ROMEO C. RUBI                                            0501
A0101404680651478374026JULIETA S. FACAL                                         0501
A0101404680651478374180PRISCILA B. RUBIO                                        0502
A0101404680651517847001LUCILA C. BERNAL                                         0505
A0101404680651520766071EMELY P. PONGPONG                                        0501
A0101404680651520766168MIRASOL T. FIRMALINO                                     0501
A2801400100712430047001LEE, JAMES TAN                                           0502
A4101400420814520766004SALVACION D. BITANCUR                                    0501
A4101400550815648105001REODIQUE, MELANIE AGUSTIN                                0501
A0101404840851046725002MA GERALDINE F. BOCADO                                   0502
A0101405070861401501001ROLDAN, JOSEPHINE MARAVILLA                              0502
A0101407720000000245145VICTOR L. GISBERT OR                                    10501
A0101402770000000360923PERLITA CELOSA OR                                       10501
A0101412050000000697190RIVERA, TEODO DBU BLAZE EFX                             10501
A0101412630000000801574SALVADOR T. FLORESCA JR. OR                             10502
A0101407140000001201910RICHARD JOSEPH JAYMALIN,J.D. OR                         10501
A0101406750000003393220APOLINARIO, VIRGINOR ROXAS OR                           10502
A3101400870000004112154BARRINUEVO, TIMOTEI ALMENDRAL                           10501
A0101406040112197166003ZOSIMO FAJARDO JR. OR                                   10501
A0101402350321085678001GUZMAN, ESTRELLA E. OR                                  10502
A0101405650322093557001CUEVAS, MA. DONATA NADINE OR                            10502
A0101409050352765781001RAYMUND ZIEGFRED S. FRUTO OR                            10501
A5501400120410636179018CHIU, VALENTIN & JULIA EILEEN                           10502
A1901400160491244484001IRENE H BERBA OR                                        10505
A0101407720602330505002NAZARIO A. MACALINTAL JR. OR                            10503
A0101407720602397509001VICTOR L. GISBERT OR                                    10501
A0101404680651168769002DOMINGUEZ, EVELYN OR DOMINGUEZ,                         10502
A0101410720653385187001SERVILLANO H. GALVEZ JR. OR                             10503
A2801400100712255396001VITT O GUTIERREZ OR                                     10503
A0101407720000000245145ARLENE MAY A. GISBERT                                   20500
A0101402770000000360923FRANCISCO CELOSA                                        20500
A0101412050000000697190EVENTS PRODUCTIO                                        20500
A0101412630000000801574ADELAIDA O. FLORESCA                                    20500
A0101407140000001201910MARIE CRISTABEL JAYMALIN                                20500
A0101406750000003393220TOLENTINO, ORLANDO MOYA                                 20500
A3101400870000004112154AND ISLETA, ANGELA LEAH                                 20500
A0101406040112197166003VOLTAIRE IAN V. FAJARDO                                 20500
A0101402350321085678001GUZMAN, NOEL M.                                         20500
A0101405650322093557001CUEVAS, RAFAEL                                          20500
A0101409050352765781001MARIA PATRICIA C                                        20500
A5501400120410636179018& CHRISTIAN & CH                                        20500
A1901400160491244484001CARLOS R BERBA                                          20500
A0101407720602330505002MERCEDITA M. MACALINTAL                                 20500
A0101407720602397509001ARLENE MAY A. GISBERT                                   20500
A0101404680651168769002LOURDES TRINIDAD                                        20500
A0101410720653385187001KAREN F. GALVEZ                                         20500
A2801400100712255396001MARY ANN GUTIERREZ                                      20500
B0101411080000000026348DOXO INGREDIENTS INC.                                    1604
B0101410720000000029850NORDHOFF ENTERPRISES INCORPORATED                        1601
B0101402930000000057532PALINSAD JIMENEZ & ASSOCIATES                            1601
B0101404680000000095710MVG HARDWARE                                             1601
B0101407270000000830631EERA MARKETING                                           1602
B4101400550000000900058HARRELL HORNE INTEGRATED SCHOOL,INC                      1605
B0101407430000001213261ROMINE LASERJET TONER CORPORATION                        1601
B0101404680000001296573**********                                               1602
B0101401090000003007530RICHARD G. ANG AND MANUEL CARLITO F ROUX                 1603
B0101402930000003269276SKYCLIMBER CORPORATION                                   1601
B7201400170000003773477DIAZ, RONALD ORDIZ                                       1601
B0101400150061032076002NEXTRANS INCORPORATED                                    1605
B0101405810072374751001**********                                               1601
B0101410720210764716001J.C.T. EZ LOAN CORPORATION                               1602
B0101406620273031145001KOHL INDUSTRIES CORPORATION                              1610
B0101402480331031792001***************                                          1602
B0101402480331573059001CHINGCUANCO, FRANCISCO GO                                1602
B0101402510341030386001OLIAND HAUTE COUTURE, INC.                               1602
B0201400760374041858001HELPMATE TRADING AND SERVICES                            1601
B0201400760374045286001C.K. BUILDERS CONST. & DEV'T. CORP.                      1605
B0101402930381032706001BAPTIST BIBLE COLLEGE OF ASIA PACIFIC                    1602
B0101402770391009346001R.D SAMANIEGO ROOFING CORP                               1602
B0101408400394027943001BEST DEAL FOOD CORPORATION                               1605
B5501400120410041087001GREENSTATE SUITES                                        1605
B0101406880513037027001OBADIAH INCORPORATED                                     1602
B0101406880513038002001JEFCON INCORPORATED                                      1602
B2201400250561016174001NAY'S HOUSE INCORPORATED                                 1601
B0101407720602027414001GAN ADVANCED OSSEOINTEGRATION CENTER                     1603
B0101404680651027819001EXCELLENT PLASTIC PRODUCTS MFG. CO.                      1602
B0101404680651029207002FORTUNE GAS CORPORATION                                  1606
B0101404680651036331001TWIRLEE FOODS CORP.                                      1603
B0101410720653650376001MICRO QUADKEYS CORPORATION                               1610
B0101401830000000033581CARITAS SALVE CREDIT COOPERATIVE-                       11602
B0101400150000000633083PHILIPPINE SUGAR MILLERS ASSOCIATION,                   11605
B0101402480331057301001LUMINAIRE PRINTING AND PUBLISHING                       11601
B0101409180397777777008DHOLWANI, GEETA OR DHOLWANI, MADHU OR                   11601
B0101401830000000033581BULACAN                                                 21600
B0101400150000000633083INC.                                                    21600
B0101402480331057301001CORPORATION                                             21600
B0101409180397777777008WANI, VICTOR OR                                         21600
B0101415640012102000014**********                                               2103
B0101407430503821100608**********                                               2110
