A0101402510000000049370MR. RAUL S. OLIVEROS                                     0502
A1401400110000000132841*******                                                  0501
A0101413730000000144625SIA, GEORGE ORPILLA                                      0502
A0101401090000000210522JMR INTERIOR DESIGNS                                     0501
A4101400550000000315171**********                                               0501
A4101400260000000469329FALCUTILA, MARISSA RAMOS                                 0501
A0101400150000000525513********                                                 0502
A0301400950000000566683CARISSA ANNE C. DELOS SANTOS                             0501
A4101400420000000710096VICENTE, MARYDEL HOLLERO                                 0501
A0101406880000000745033NATIVIDAD, HELEN BAYONA                                  0503
A0101404420000000866393JENEVEB E. SALAYSAY                                      0502
A1001400350000000922229FERNANDEZ, LUCENA PEDROTES                               0501
A0301400790000001010619CABASAG, JEY R LAGONOY                                   0502
A0101402770000001570612ANCHETA, DENNIS NINO ALFAR                               0501
A0101404260000001725468ROSARIO, GAINES MARIE GARCIA                             0501
A1701400230000001786850CHINO EARL V. AGUINALDO                                  0501
A0101413860000001886935PANGANDAMAN, SALEM DIMAPORO                              0504
A1901400290000001975233RIENY ROSE ARIOLA BENEDICTO                              0501
A0101413020000002292782TAN, JOSELINDA CASTILLO                                  0501
A2201400250000002337806CHARLIE A. ONG                                           0501
A0601400100000002365313IMACS BUILDERS                                           0505
A0101409050000002652924BESIN, FRELAN A.                                         0501
A0101409050000002652935CARLOS. ANA VICTORIA                                     0501
A0101409050000002652957EQUIZA, OMAR A.                                          0501
A0101409050000002652980GUTIERREZ, DINA B.                                       0501
A0101409050000002653001MACASPAC, NERISSA O.                                     0501
A0101409050000002653034PAO, EVERLOU M.                                          0501
A0101409050000002653045SIENES, DEXTER A.                                        0501
A0101409050000002653078ESTACIO, ARNETH D.                                       0501
A0101409050000002653089REYES, ROWEL Y.                                          0501
A0101409050000002653136BELTRAN, RYAN U.                                         0501
A0101409050000002653158BERNARDO, MARLON D.                                      0501
A0101409050000002653170ANDRION, CARLO H.                                        0501
A0101400150061236944175MARIA GINA B. SAMSON                                     0501
A0601400360083082854001*********                                                0501
A0101401960121238747001**********                                               0501
A0101400440161478374199LUZMINDA S. LIM                                          0501
A0101400440161525001103OFELIA B. OLERMO                                         0501
A0101400440161525001135MARIFEL S. BOOC                                          0501
A0101401090171195427002URSULA E. REGIO                                          0503
A0101401090171705836001MENDOZA, RE-ANN-MAE FELICIANO                            0501
A3001400130230767566041ABADIANO, EDGARDO BACALSO                                0504
A1901400290261042311007DR. AVITO SAGUN NICANOR                                  0501
A1901400290261355605001PAZ CRISTIANA TIAMSIM LANDICHO                           0501
A1901400290261478374007PUREZA BALETA SALES                                      0502
A0101406620273306796025MYLENE J. BICO                                           0501
A0101406620273375724001JULIETA LAGMAY                                           0502
A0101408660274547172001BELMES, MARIBEL DEPAUDHON                                0502
A0101400570281191853002GREGORIO, JULIETA ORBISO                                 0501
A6601400120314703570001MARINO, LUZ RAMIREZ                                      0501
A0101402350321036762001TRADE SPECS BUILDERS                                     0501
A0101402350321179400001NILDA Q. APISTAR                                         0505
A0101402350321182462003SALAZAR, ROSALINA R.                                     0501
A0101402350321314524001BALATBAT JR., VIRGILIO VIZCARRA                          0502
A0101402350321478374054ALEGERE S. TAPAO                                         0502
A0101402350321478374059BERNARDITA D. LOPEZ                                      0501
A0101402350321561924003BONZO, TEODULO DALORAN                                   0501
A0101408820333682547001MAGSIPOC, AIDA JAUOD                                     0502
A0101402930381402177002**********                                               0501
A0101402930381478374004ANALIN ARTIOLA                                           0501
A0101403030441660281001**********                                               0502
A0101403320471419366001VILVESTRE, HELEN MARAVILLA                               0503
A0501400170481252599002GOYENA, CRISTETA LORIA                                   0501
A3801400170490707231001SHERWIN REYMOND M ICALINA                                0501
A3801400170490786195001PATRICK C GO                                             0501
A1401400110492669090001ACYATAN, ANTONIO PACALDA                                 0502
A0101407430503036416001JUPITER'S BUTCHER SHOP                                   0501
A0101407430503043601001M.R. SUNGA TRADING                                       0501
A0101406880513456319001DIMANALATA, MIGUEL DAGANTA                               0501
A0101404000551371853001AVILA, MERCEDITA CUNNANAN                                0501
A0101407720602381721001MARIA FE P. VILLAFRIA                                    0505
A0101407720602492004001MARIA IMELDA BELEN VITUG-SALES                           0501
A0101410720653242444003GARCIA, ENRIQUE TIANGCO                                  0501
A0101410720653565189001VICTO, BERNARD KING QUIJANO                              0503
A0101406590662037319001N21 BUSINESS SUPPORT TRADING                             0505
A0101406590662363529001CASTRO, SOFIA QUEYQUEP                                   0501
A1301400210682325433001WILHELMINA DC DOMINGO                                    0501
A1301400210682478374027MARY ANN M. DE LEON                                      0501
A1301400210682478374062MA. ERLINDA C CHUA                                       0501
A0101407560686542714001MARICAR C. NUEVO                                         0501
A0101408240711512871001MORANO, RENATO OR TERESITA                               0502
A2801400100712278476001UYGONGCO JR., JOSE ROBERTO JT                            0502
A4101400260812409493001AMELIA RAZON OR EMILINO RAZON                            0501
A4101400420814478374009FELOMINA PERICO                                          0501
A4101400420814520766065ANGUE, HONEYLYN D.                                       0501
A0101404840851481664025JONATHAN C. SANTOS                                       0502
A3101400160000000006413MARGERY A LLANES OR                                     10502
A0101409890000000049089GEMSTAR CLEANING SUPPLIES                               10506
A0101402930000000623363KING, C DBU EASTERN CIRCLE                              10501
A0101401960121327478001AIDA MEDEL                                              10502
A1001400350233528399003KO, JOSE NELSON AND                                     10502
A1901400290261513754001CLEA LAYCO PASTETEO OR                                  10501
A1901400290261585775001LITA CUETO MENDOZA OR DORIS                             10503
A0101403320471042842001MIGO MEATSHOP AND FOOD SUPPLY                           10505
A0101408110515696022001ROMEO V. BATO OR                                        10503
A0101404260611154103001GENARO OR ESTRELLA OR                                   10506
A0101409890649747345004SORIANO, DONNA MARCELA OR                               10501
A0101404840851791747001BALMES, GERVACIO OR SARADAT,                            10501
A3101400160000000006413MARCO SAMUEL M APOLEGA                                  20500
A0101409890000000049089INTERNATIONAL                                           20500
A0101402930000000623363HUMAN RESOUCE SE                                        20500
A0101401960121327478001OR ROD MEDEL                                            20500
A1001400350233528399003KO, CHARMAINE                                           20500
A1901400290261513754001ROMULO BUJAUE PASTETEO                                  20500
A1901400290261585775001MARIE MENDOZA MEDINA                                    20500
A0101403320471042842001CENTER                                                  20500
A0101408110515696022001BENJAMIN T. ALONZO                                      20500
A0101404260611154103001MA. SOCORRO DETE                                        20500
A0101409890649747345004SORIANO, GERARDO                                        20500
A0101404840851791747001MONICA OR GALLAGA, RAFAEL                               20500
B0101406040000000096633*********                                                1601
B0101405650000000772721PREMIERE COMMUNITY PARTNERS, INC.                        1605
B0101405650000000772743BF FEDERATION OF HOMEOWNER ASSOCIATION                   1601
B0101406880000001227441UNISPHERE INTERNATIONAL, INC.                            1601
B0101400150061011137001PRIVATE SECTOR SMDF                                      1603
B0101400150061025214001MAA CONSULTANTS, INC.                                    1601
B0601400100081039107001REPLICAS MARITIME & AVIATION MODELS INC.                 1604
B0101400440161022597001PHILMAN POWER CENTER INC.                                1612
B0101401090171035575001MOSS MANILA EVENTS HOUSE INC.                            1605
B0101406620273040722001ARDENT NETWORKS INC.                                     1602
B0101406620273045167001DCA AND PARTNERS, CPAS                                   1601
B1101400120313036439002ACME BUILDERS CORPORATION                                1605
B01014023503210067510010SM SHIPPING PHILS., INC.                                1610
B0101405650322033184002ASIA PLUS CORPORATION                                    1605
B0101408820333034334001PINTAKASI TRANSPORT INC.                                 1602
B0101402640361038833001KASAGANA-KA DEVELOPMENT CENTER, INC                      1605
B0201400760374043348001EEIKAIWA INC.                                            1601
B0101402930381046346001CONNECTICOM GLOBAL NETWORK INC.                          1602
B0101405490392006536003GEMINI INTEGRATED SERVICES, INC.                         1605
B0101403320471041480001ITP CONSTRUCTION INC                                     1610
B0101406880513039126002BLUE MAGNET MARKETING SOLUTIONS INC                      1605
B0101404000551083687001ADELANTADO CORPORATION                                   1602
B0101406750852045113001E.J. WATCH & JEWELRY SERVICE CENTER CO.                  1602
B3101400740224045253001MADISON SOUTH HOMEOWNERS' ASSOCIATION,                  11601
B5501400120410044008008FRANCISKOZ MOTORCYCLE PARTS,SERVICES &                  11603
B1401400110492365609001JEORGE S MALIGAT - PILIPINO HARDWARE AND                11602
B0101408110515014870001PARAMOUNT LIFE & GENERAL INSURANCE                      11610
B3101400740224045253001INC.                                                    21600
B5501400120410044008008ELECTRICAL SUPPL                                        21600
B1401400110492365609001CONST. SUPPLY                                           21600
B0101408110515014870001CORPORATION                                             21600
