B0101402350321821100608**********                                               2002
A0101409210398047601001LAMONTE, E DBU YOB AND ERIN                             10501
A0101409210398047601001GLASS ENTERPRISE                                        20500
B0101409210398015788001PETNET, INC.                                             1604
A0101400860000002333411**********                                               0505
A0101401250021478374003FRIAS, CELIA SILVANIA                                    0502
B0101411370000000017990PHILIPPINE WOMEN'S UNIVERSITY                            1605
A0101400150000000807589RODRIGUEZ, RUBEN DACUMOS                                 0501
A0101400150000002749637REYES, MARITES YCONG                                     0501
A0101400150061226702002**********                                               0501
A0101400150061315349055DENNIS JOY EJERCITO                                      0501
A0601400100000000786698LIM, RICKY NABLO                                         0502
A0601400100081032955001JENPREZ LAUNDRYNET                                       0502
A0601400100081335893001GUBAC, AMELITA OR MARK ANDREI                            0501
A0601400100081424085001ALAPAG, JASMINDA B. OR                                  10502
A0601400100081424085001ALAPAG, MARCELIN                                        20500
B0601400360000008477243HAAZIN INC.                                              1603
A0101410850000002356863PORILLO, DBU PORILLO'S SUGAR                            10501
A0101410850000002356863CANE FARM & TRUCKING SVCS                               20500
A0101410850109060464001***************                                          0502
B0101400730111019776001TRAVELFAST INTERNATIONAL                                 1601
A0101400730000000645410ASIS, REDENTOR CONSTANCIO                                0501
A0101407270000003254162LI, HOU WAN HOWARD HUNG                                  0502
B0101407270162031082002BELLDY COMMERCIAL                                        1603
B0101401090171008027001UST MEDICAL FACULTY ASSOCIATION                          1601
B0101401090171008043001SAMAHANG MANGGAGAWA NG UST                               1603
B0101401090171015592001UNIVERSITY ATHLETIC ASSOCIATION OF                      11603
B0101401090171015592001THE PHILS., INC.                                        21600
B0301400530193037617168PIONEER BUENAS COMMODITIES CORP.                         1620
B0301400530193040936168QUICK LUBE TIRE & SERVICE CENTER, INC                    1602
B0301400530000001409741ROBLES, EDDIE DBU VICTORIA CONSTRUCTION                 11602
B0301400530000001409741CELEDONIA ROBLES                                        21600
B0101413020000001175428ALL HEALTHY HEALTH VENTURES, INC.                        1602
A0101410720653453143001AGCAOILI, MARY CONPIA TORRES                             0502
A0101410720000007653241RADER, MIRASOL BARNES                                    0501
A0101410720000000211736GABRIEL, JOEL ORTIZ                                      0504
B1001400190000002170850RD PAWNSHOP, INC.                                        1610
A1001400190231520766049JOCELYN S. LLUBIT                                        0501
A1001400190231520766089CODILLA, ORLAND ORIAS                                    0501
A1001400190231520766112ALIBIO, NELYBETH TACBOBO                                 0501
A1301400760000005379520LUIS V. CHUA                                             0502
A0101406460000002330632MESINA, CHARMAINE FRANCISCO                              0501
A0101406460272190124002UNSON, MA. LUISA D.                                      0502
B0101406620000003497278JOBIN-SQM INC.                                           1605
A0101406620000004926085JOHANNA Y. DEE                                           0501
A0101400570281767998001BERNARDINO, EDWIN ROLDAN                                 0501
A0501400200000000473881******                                                   0502
A2601400270302556418001RONNIE P. BALOLONG                                       0501
B1101400120000006186883ONG, VIRGINIA PO AND ONG, WAN LIAN PO                    1601
A1101400120000000652471TANOLA, EVE MARGALLO                                     0501
A1101400120000005608260SANITA, ERIC SALIENTE                                    0501
A0101402350321179561001TERESITA R. ORIS OR                                     10501
A0101402350321179561001RODOLFO P. ORIS                                         20500
A0101402350321406560001DELA CRUZ, AMYLYNE B.                                    0502
A0101405650322326805003SHIRLEY C. ADVISO                                        0501
B0101402510341026003001PHILSOFT TECHNOLOGIES GROUP, INC.                        1601
A0101402060000002258864ZAMORA, MARY FRANCES ROA                                 0501
B0201400920375042734001A. LIM DEVELOPMENT INC.                                  1602
A0201400890000003645123SOCO, GLENN ANTHONY OCAMPO                               0502
B0201400890376060914001UE ASIA HYDRAULIC ENTERPRISES                            1601
A0201401020000008693643JARA, KATRINA KENJI UY                                   0501
A0201401020377046499001TEH, MARIA ELENA BLANCO DBU                             10503
A0201401020377046499001E.T. PRINTSHOPPE                                        20500
A0201401020377085340001MAGALSO, LESLY COMISO                                    0501
A0101408370382593318001DRS. MICHAEL JOSEPH B. REYES OR                         10501
A0101408370382593318001SEIZAN MARIE E. REYES                                   20500
A0101408400394478374094NUNEZ, GENIE                                             0501
A0101408400394508074001WEE, LEE HIONG TAN                                       0503
A0101408950000002255461GERON, MARIA ANNA VANESSA A.                             0501
A0101409210000008707819RABANG, DANNA NICOLE BRIONES                             0501
A2401400180000001935742AYUBAN, MERIAM VILLARES OR                              10502
A2401400180000001935742AYUBAN, MAYLENE                                         20500
A2401400180000007031541**********                                               0501
B0901400220432307053088**********                                               1602
A0101403320000006026893**********                                               0501
B0101403320471034929001MAHALO CAR AIRCONDITIONING &                            11604
B0101403320471034929001AUTO SERVICES                                           21600
A0101403320471047588001RHINA JENEPER C. LIBIRAN DBU                            10502
A0101403320471047588001R-GENESIS DRUG STORE                                    20500
A0101410140000001074748GUTIERREZ, LEILANIE AUTENCIO                             0501
B1901400160491027966003SALESFORCE ONE MARKETING, INC.                           1603
A0101408110000007864671ADEL, MA CECILIA LABRAGUE                                0501
B0101408110515017881005GROUP MANAGEMENT CORPORATION                             1603
B0101408110515044192001ASIA SOCIETY FOR SOCIAL IMPROVEMENT AND                 11605
B0101408110515044192001SUSTAINABLE                                             21600
A0101408110515392865001FRANCIS CONRAD L. MEDALLA                                0501
A0101408530000004647861CORNELIA, ROMANESS TAHIR                                 0502
B0101408530516033397001SPRINGER INTERNATIONAL, INC.                             1605
A0101403450521239572002ONG, SIN CHIOK                                           0501
A0101403450000000009878EBORA, JOSSIE ALMAREZ                                    0501
B0101404000551005048001METROPOLITAN EQUESTRIAN AND                              1602
B0101404130000002121562GOLD NUGGETS HAULING AND TRUCKING CORP.                  1602
B0101404130000003105751GOLD NUGGETS HAULING AND TRUCKING CORP.                  1602
B0101407720000000885703MAKATI MEDICAL CENTER-MEDICAL STAFF                     11603
B0101407720000000885703ASSOCIATION INC.                                        21600
A0101407720602470788001ISIDRO, MARIA JOCELYN CAPULI                             0502
B0101404260611030903001ASIAN INSTITUTE OF COMPUTER STUDIES                      1605
A0101404260611151571002*******                                                  0505
A0101411530000007212860**********                                               0502
B0101411530000000013630THE BODY SPA AND WAXING LOUNGE CORP                      1601
A0101413570000000206260AC SHOWEREN 2000                                         0503
B0101413990000003182556PRECISE SOLUTION SECURITY AGENCY,                       11602
B0101413990000003182556INCORPORATED                                            21600
B0101406590662059749001GOLALIAN PROPERTIES INC                                  1601
A0101406590662590885001BARRIENTOS, MARITES ABRAHAM                              0502
A1301400340000006402386GREGORIO, MIGUELA DELA CRUZ DBU                         10502
A1301400340000006402386MEL ART ENTERPRISE                                      20500
A1301400340683456739001LAZATIN JR., EDUARDO NIONES                              0501
A1301400340683552624001ENRACA, MA. THERESA GREGORIO                             0502
A1301400500000000213378JEAN G. REYES                                            0501
B1701400230000001159148AUTO - MEKANIKO MULTI TRADE CORPORATION                  1601
B0101408240000006414393KWANTLEN DEVELOPMENT CORPORATION                         1601
B0101408240000006414411BAYAN MUNA REALTY CORPORATION                            1601
A0101408240711574916001CABILANGAN, JENNIFER VISCO                               0502
B2801400100712018856002PTT PHILIPPINES CORP.                                    1605
B2801400100712024577001PHILIPPINE COASTAL STORAGE AND                          11605
B2801400100712024577001PIPELINE CORP.                                          21600
B2801400230713045817001ROWENA MINOO SAMURAI, INC.                               1610
B2801400230000001580296DEL ROS AMUSEMENT ENTERPRISES, INC.                      1601
A2801400230000001782021BITANGCOL, CHARITO DE JESUS                              0501
B4101400390000006103560LEAD WITH INTEGRITY AND GOOD GOVERN                      1605
A4101400390813292154001ANGELO OR MARIE LYN MOLATO                               0502
B4101400550815040996002MARICHE APARTELLE, INC                                   1601
A0101412340000003718712JOHN CHRISTOPHER R. ABRENICA                             0501
A0101412340000002900329SERAFIN D MOLDEZ DBU SC MOLDEZ                          10501
A0101412340000002900329ENGINEERING &CONSTRUCTION                               20500
B0101404840851009268001FAMOUS LUMBER & CONST. SUPPLY                            1602
A0101404840000000943248ROMINA LOZANDE                                           0501
B0101405070000006005965LEBRIA TRANSPORT AND ALLIED SERVICES                    11610
B0101405070000006005965CORP                                                    21600
B0601400230000006045381RD PAWNSHOP, INCORPORATED                                1603
