A0101400150061039916082DANIEL LEDESMA                                           0501
A0101400150061227107001KIM H. APOLEGA                                           0501
A2901400130000005961128SALAS, MICHAEL                                           0502
A2401400180000000073550ALBARRACIN, JEMAR DEGAMO                                 0501
A2401400180411023998002ENE MARKETING                                            0502
B2401400180411032398088ECCO HARDWARE, INC                                       1610
A0101403320471310708003SATOQUIA, NEIL MENDOZA                                   0501
A0101407720602471893001ASUNCION-GALIMPIN, ELEANOR                              10502
A0101407720602471893001PANGANIBAN                                              20500
A0101410300000000191655VIRGILIO P. LABRADOR JR. AND                            10501
A0101410300000000191655RONIE A. SALEY                                          20500
A0101400860011341510001**********                                               0502
B0101400860011485580001**********                                               1603
A0101400150000001707984ABANILLA, JOSE ALBERTO LIGON                             0501
A0101400150000003769160ADAMS, JANET RICO                                        0501
A0101400150000003601152FANDINO, NATHANIEL ROSS OR                              10502
A0101400150000003601152FANDINO, MARGARITA ANNA                                 20500
B0101400150000001708447PHILIPPINE VENDING CORPORATION                           1605
A0101400150061226997001*********                                                0502
A0101400150061226997001ROREEN TAN                                               0502
A0101400150061236944159JOYCE L. SO                                              0501
A0101400150061307470001ALOCILJA, MARGARITA                                      0502
A0101400150061331787095MAYBEL G. DANTES                                         0502
B0101400150061544526001PHILIPPINE STRAITS WINE HOLDINGS                        11601
B0101400150061544526001CORPORATION                                             21600
A0101400150061739693001FRANCISCO D. VARUA OR MARIA                             10501
A0101400150061739693001MARLENE A. VARUA                                        20500
A0101400600071351088001********                                                 0501
A0101413280000000041852OLA, EDAM CRUZ DBU HIJK SHIRT                           10501
A0101413280000000041852PRINTING & DESIGNS                                      20500
A0101414090000006211563JUGO, CHELOY CORINA CASTILLO                             0501
B0101414090000007344483RTFJ MOVERS, INC.                                        1602
A0101412630132444595001GABRIEL, MARIA TERESA BERGONIO                           0501
A0101401830141361720001CLEMENTE, HERMINIA FULLIER                               0501
B0101407270000000830540QUANTUS BUSINESS SERVICES, INC.                          1602
A0101401090171029816001RB TECHNO-POWER ENTERPRISES                              0503
A0101401090000000210306CUVIN, PURIFICACION BORBE DBU P                          0502
A0101401090000004753828VICERRA, RYAN RHAY PONCE                                 0503
A0101401090171337108001MARIA ANGELA N. OCONER                                   0501
A0301400530000000066044BONGO, PORFERIO LORETERO                                 0503
B0301400530193629929188FLORES, ANGELITO S. OR FLORES, MARIA                    11605
B0301400530193629929188FE S.                                                   21600
A0301400660000000194552LU, MICHAEL YAP                                          0503
A0301400660194084735001LABARITE, JOSEFA MANCERAS                                0502
A0301400950000008000820LAYNO, NICHOLE VANESSA TAUTHO                            0502
B0301400950000000566945BIG Z QUALITY FOODS CORPORATION                          1610
A0101410720000007653241RADER, MIRASOL BARNES                                    0501
A0101412500000005300452BENTULAN, RICO FERNANDEZ                                 0510
A3101400160221478374002MA. LOURDES T. ELIZON                                    0505
A3101400450223478374004MORENO, JONALYN                                          0501
A1001400190231478374006LIBRADO, HAZEL T.                                        0501
A1001400190231478374075BARRON, LORNA                                            0501
A1001400350233478374001JUNIO, ROGELIA A.                                        0501
B1301400760253038964001EAST-WEST SEED COMPANY, INC.                             1602
A1901400290000003252888ROSAFE PAGCALIWANGAN OR                                 10505
A1901400290000003252888EDWIN PAGCALIWANGAN                                     20500
A1901400290261244687001CARMELITA B LUISTRO OR                                  10501
A1901400290261244687001JOSE B LUISTRO JR                                       20500
A1901400290261387614001LAILANE MANDO CUSTODIO                                   0502
A1901400290261493025041DRA REEZA Q MARQUEZ                                      0502
A1901400290261689596001MARY ERNESTINE C COLUMBRES                               0501
A0101406620273216083002******                                                   0501
A0101408660000002264893*************                                            0502
A0101411820000001356503GIL B. CONCEPCION JR.                                    0501
A0101412470000000853798YARA, MARK PHILIP                                        0502
A0101400570281186881002SANTAMARIA, MA. ZENEIDA SERRANO                          0502
A0101400570281340990001JOSEFA A. PALANCA OR JOSEPHINE                          10505
A0101400570281340990001P. RAFER                                                20500
A0101400570281344838001AUGUSTO GUTIERREZ REYES OR                              10502
A0101400570281344838001MARITA REYES                                            20500
A0101400570281749261001PARENAS, JEFFRY MARTINEZ                                 0502
A0801400160000006272897TRADIO, GERALDINE BARBARA                                0502
A1101400120000003022533LIM, RICHARD YAP                                         0503
A2001400290000006776716TARIAO, SUSAN ALVAR                                      0501
B2001400290000002406753NEGROS ORIENTAL II ELECTRIC COOPERA                      1601
B2001400290000002406720DY, LOREEN LAO AND YAO, MARIANNE SY                      1601
A2001400290315771486001MIOLE, CARLITO TOLIBAS                                   0501
A2901400130000005961253YABUT, MARK ARBUES DELA CRUZ DB                          0501
A0101402350321406149003********                                                 0502
A0101402510341277724001PRUDENTE, JOSEPHINE ESGRINA                              0502
A0101402060351217441008RENATO R. ERMITA                                         0501
A0101402060351349405002YAP, JAMES YU                                            0502
B0201400760374047196001DAICHI PETRO ENERGY RESOURCES                           11601
B0201400760374047196001CORPORATION                                             21600
B0201400760374682272002OUANO, RUPERTO VILLAFLOR OR                             11602
B0201400760374682272002JAYME, STEPHEN R                                        21600
B0201400920000000047863KOWEN LOGISTICS COMPANY                                  1602
B0201400920000006433627*********                                                1603
A0201400920375524523001MIEL, PRINCESITA OR MIEL, ALEX                           0502
B0201401020000005109900CEBU DULCINEA HOTEL AND SUITES INC.                      1601
B0101402930000000623443BLUE MANILA, INC.                                        1601
A0101402770391529757022FRANCIS U. VALENCIA                                      0504
B0101408400394035588001JUANSIXATE CO. INC.                                      1604
A0101408400394542845001PINEDA, DINDO DOMINGO                                    0502
A0101408400394712542001******                                                   0506
A0101408950396761506001DONALD C. CRISTOBAL OR MA.                              10501
A0101408950396761506001FLORDELIZA A. CRISTOBAL                                 20500
A5501400120410619219001PALMA, WILLIAM PEJI                                      0502
A0101410140000001074908MEMBERS OF NATASHA (SHOECAT INC                         10501
A0101410140000001074908PENA, DINA Y.                                           20500
B0501400170481015881001TOYOTA DAGUPAN INC.-2                                    1615
A0501400170481308672001MADELYN F. DECENA                                        0505
B1401400110492011585002LUCENA GREENVIEW, INC.                                   1602
B1601400170000009954523CHAN, RALPH LAWRENCE YAO DBU ARTISAN'S                  11601
B1601400170000009954523SPECIALTY COFFEE                                        21600
B0701400260000000041083MULTI-WARE ECON-SALES CORPORATION                        1605
B0701400260000000670980TOYOTA CAMARINES SUR, INC.                               1610
A0101407430503043601001M.R. SUNGA TRADING                                       0501
A0101407430000006027903JONAS MARTIN OR MARIAN MARTIN                           10501
A0101407430000006027903DBU SIM ONE TRADING                                     20500
A0101403580511153475001LAURENCITO R. TIU                                        0510
A0101403580511237144004VALENCIA, JOSE OR MA FLORECITA                          10502
A0101403580511237144004OR MA CLARISE                                           20500
A0101403580000003777395MANABAT, ROBERTO GAN                                     0502
A0101403580511666605001ADA, JOCELYN ELVINIA                                     0502
A0101405940000005068008JERRY S. CANTEMPRATE                                     0503
A0101405940512035308001UP-TECH BUILDERS                                         0503
A0101408530516179564001MARTIN, REBECCA                                          0501
A0101408530516578215030DELLA, TERRY JEAN SANTIAGO                               0502
B0101411400000008249849AL BATRA RECRUITMENT AGENCY, INC.                        1603
B0101411400000008249970EKO MUSIC PLATINUM, INC.                                 1610
B010141179051805692200188 INFINITY LENDING POOL INC                             1602
B0101411790000004808082PDB PROPERTIES, INC.                                     1605
A0101403450521582387001**********                                               0501
B0101404130000005961960SPIRALYTICS INC.                                         1606
B0101404130601100074001KING'S DEVELOPMENT, INC.                                 1605
A0101407720000006028235DE LA ROSA, MARGARITA REGINA                            10502
A0101407720000006028235CASTILLO                                                20500
A0101407720602454953001BERNARDO, JASMIN MELISSA BALLEN                          0503
A0101407720602510641001LACSON, SHARON MARISSE ALFON                             0502
A0101404260611152257001MA. JENNIFER L. ROJALES                                  0502
A0101404260611478374091ROSITA LLANES                                            0501
B0101409890000006812688INK DELIVERY ONLINE INC                                  1602
A0101414120000009850928FRANCISCO GARCIA III OR                                 10501
A0101414120000009850928BLESILA GARCIA                                          20500
A0101414120000002879743DE GUZMAN, JENNY MERLIE APOLINA                          0501
B0101406590000003007303STUDY PALS ABC INC.                                      1601
A0101410300000000191837VISAYA, LILIBETH ORDONIO                                 0502
A1301400340683520107001ROSELADA, MILAGROS DIMARUCOT                             0502
A1301400340000005264933COMPANERO, NORMAN BANICO                                 0502
A1301400500684772140001ISABEL S. AZURIN                                         0502
A0101408240000009452991ROJAS, CARMENCITA SORIANO                                0502
A0101408240000007478182LIMJUCO, MA. CRISTINA GUTIERREZ                          0501
A0101408240711404008001****                                                     0503
A2801400100000007895952EDUSADA, SHAUN KRISTINE AMORES                           0501
B2801400100712019694001ESGUERRA, G DBU LUNTIAN LANDSCAPING &                   11602
B2801400100712019694001GENERAL SERVICES                                        21600
A2801400100712394915001SMITH, DONALD LEWIS                                      0501
A4101400260812423341001ESTEFANIA B. RANDOY                                      0505
A4101400390813017514001PRESTIGE AUTO CARE                                       0501
A4101400550000006044435PARTOSA, ERMILITA MACABUTAS                              0501
A4101400550000007583864RIVERA, ROSALINDA LOVERIA                                0502
A0101404840851281071016ELSA A. LUSUEGRO                                         0501
A0101404840000001312714RAFAEL COLOMA                                            0501
A0101405070000000741315MOSENABRE, DECOROSO PULGO OR                            10501
A0101405070000000741315MOSENABRE, VILMA                                        20500
A0601400230000006045416BALDOMERO, STEPHEN DABIN                                 0501
B0601400230891021614001QUIOC (D) QUIOC & ASSOCIATE                              1601
B0601400230891029282001L5 & SONS FINANCING CORP.                                1610
