B0101412050000000890951GRANDJURY SECURITY SERVICES INC.                         1605
B0101410850000015815600ANGELOGISTICS COMPANY LIMITED                            1601
B0101400150000000633469RNB TRAVEL AND TOURS CORPORATION                         1603
A1901400290261411419001TERESITA DIMAILIG PERCE                                  0502
B0201400760000013668870MANGLAPUS, MIKHAEL MARTIN APAWAN DBU                     1601
A0101410300000014299211TRINIDAD, CATHERINE LADIA                                0502
A0101410300663725977001CRUZ, EDGARDO CORONEL                                    0501
A0101400860000002333513******                                                   0501
A0101400860011397165002**********                                               0503
A0101400860011634071001**********                                               0505
A0101411370000005524421BATUIGAS, AURORA REBOQUIO                                0501
A0101400150000009666339MARCELINO, KATHERINE SANTOS                              0501
A0101400150000003164116CANDICE AMOR M. DELA CRUZ                                0501
A0101400150000008307088UNIDAD, KIM RUSSELL VILLORA                              0501
A0101400150000009399780AQUINO, CATHERINE MACARO                                 0501
A0101400150000013758791LEDESMA IV, JULIO ARENAS                                 0502
B0101400150061014673001COFFEE MASTERS, INC.                                     1610
B0101400150061044906001G-GATEWAY MOBILE PHILIPPINES INC.                        1601
A0101400150000006551248OSOTEO, CATHERINE ENRIQUEZ                               0501
A0101400150061231736002PUNO, CARMELITA DE MESA OR                              10501
A0101400150061231736002SANTIAGO, MA. SOCORRO                                   20500
A0101400600000002335764********                                                 0505
B0101400600071234185001BALAY, FRANCISCO OR BALAY, MELLY                        11601
B0101400600071234185001BALAY, ANDREW                                           21600
A0101400600000000007649*****                                                    0505
B0101405810072083905001HONG, HAN MING                                           1601
A0101405810072355505002*************                                            0501
B0601400100081022878001DM CRISSAN AUTO SUPPLY & CAR ACCESSORIES                11604
B0601400100081022878001SAN FERNANDO                                            21600
B0601400100000000032760RDF FEED, LIVESTOCK & FOODS, INC.                        1610
B0601400100000002099330RDF FEED, LIVESTOCK & FOODS, INC.                        1610
B0601400360000003186849TSS TRIXAN SUPPORT SERVICES                              1603
A0601400360083649312001KIM, KANG WOOK                                           0501
A0601400520000011139363GONZALES, ROWENA TONGOL                                  0505
A0101410850000003102023MARCIANO ABESAMIS SR. OR                                10505
A0101410850000003102023CLAUDIA ABESAMIS                                        20500
A0101400730111408329001CLARITA LIM MARIANO                                      0502
A0101413150000005959966LUMANUG JR., AGA LOPEZ DBU SINI                          0504
A0101413150000005944129******                                                   0501
A0101413310000000863963CONCEPCION, MICHAEL JOSEPH G.OR                         10501
A0101413310000000863963CONCEPCION, JACQUELINE R.                               20500
A0101413310000002317999CONCEPCION, BERNABE TAYAMORA OR                         10501
A0101413310000002317999GABRIEL, JOANNA GONZALES                                20500
A7201400170000011141681YTING, NELLY SUAN                                        0504
A7201400170000011454389CATIIL, MARIFIE ARSULA                                   0501
A7201400170152060879001RENDON, EDNALYN BACAY DBU                               10502
A7201400170152060879001FRIENDLY MOTORS REPUBLIC                                20500
A5001400170000000214002REQUINA, ORWINO ATAY                                     0501
A5001400170000014111927PATAGOC, HANA LIBATO                                     0501
A0101400440000014296785YU, XIN                                                  0502
A0101407270000014296876DOMAYAN, JOEL ALBERCA                                    0502
B0101407270162040422001******                                                   1601
A0101401090171195709001ANGELITA S. SARILE                                       0501
A0101401090171196038001REBECCA A. CASTRO, M.D.                                  0506
A0101401090171669871001REYES, MARC ANTHONY OSIAS                                0501
A0301400530000006477274LUI, LORETO RABI                                         0504
A0301400530000003087330DECASA, LEOPOLDO COMPOC                                  0501
A0301400530000016115796TAPIC, JEMSLIE MANTALABA DBU                            10501
A0301400530000016115796ECO WIN ENTERPRISES                                     20500
A0301400950000008869032HUTALLE, RONILA JABONERO                                 0501
A0101410720000013857548SORIANO, ANNA LIEZL DELOS REYES                          0501
B0101412500000000041750FAITH BAPTIST CHURCH INC.                                1605
A3101400160000012033279PIAMONTE, ADELITA LUCERNAS                               0501
A3101400160000012033600ORO, GIRLLIE MAY ALVAREZ                                 0501
A3101400160221220343001LAARNI A. CALAPATIA                                      0502
A3101400450223418716001GARCIA, JESUSA CORAZON PLAZA                             0502
A3101400450223456163001ANGSICO, RACHELE THERESA OR                             10502
A3101400450223456163001    ROBERTO                                             20500
A3101400740000011893880PEREZ, JOEL ORTIZ                                        0501
B3001400130000006004693DEDICATORIA, ROMEO DBU LCM MARKETING                     1605
B1001400190000013508704YU, ALLAN TRINIDAD DBU MICHIBA MARKETING                11605
B1001400190000013508704YU, YVETTE VIRTU                                        21600
B1001400190000005708983GARAY, FLORENTINE TECSON DBU GARAY                       1601
A1001400350000003867250PEARSON, LAARNIE PEARL ROA                               0504
A1301400470000005394436SHELLA MARIE C. SANTOS                                   0502
A1301400470000010297231**********                                               0501
B1301400470000003270613GENEROSO D. MINOR                                        1603
A1301400760000008699067VOLTAIRE S. CHUA                                         0505
B1301400760000000007121GLOBAL CARS PHILS., INC.                                 1610
A1901400290000003252866KADER, FELICIDAD BALBA                                   0501
A1901400290000012632529DAQUIOAG, ARLENE CORPUZ                                  0501
A1901400290000012735774NANCY EVANGELISTA LAPID                                  0501
A1901400290261312691001MA. TERESA LUCELA MIRABEL OR                            10501
A1901400290261312691001JOEL CARDEL MIRA                                        20500
B0101406620000000015209SUNPRIME FINANCE INC.                                    1610
A0101406620273524437001REAZON, JENNIFER MEDRANO                                 0501
A0101406620273524437001REAZON, JENNIFER MEDRANO                                 0501
A0101408660000005109773RICAFORT, JESUS MARTIN JOSE                              0502
A0101411110000000604802MORENO, NILDA NUNEZ                                      0501
A0101411820000001356736SANTOS, EVENA FLOR CACABILOS                             0502
A0101400570000011504053JINKY C. GAMIT                                           0502
A0501400200000011150380ALAMAY JR., MOISES PANGLAO DBU                          10505
A0501400200000011150380JMP TRADING                                             20500
B0501400200000006444777ACOSTA, JASMIN SALVADOR DBU JAZZ CUT IT                 11601
B0501400200000006444777SALON                                                   21600
A0501400200292567569001LARILYN D. GATCHALLAN                                    0501
B1101400120000000653014ANDRADE,WILLIAM AND ANDRADE,VIRGILIO AND                11601
B1101400120000000653014ANDRADE,FRANCISC                                        21600
A1101400120000006186570JACER, MARICHU FUENTES                                   0501
A1101400120000000652351YAO, RONALD PHILIP GO                                    0502
A6601400120000010637620NACARIO, JOSELITO GALAROZA                               0501
A6601400120000002978041OBAYAN, SAMUEL DATO                                      0502
A6601400120314622237001ADRIATICO, DON BASILIO C.                               10502
A6601400120314622237001OR MELIKA O.                                            20500
A2901400130000009071676SAZON, CEDRIC MARAVILLA                                  0503
A0101402510000007714761TENDERO, MARIA PAMELA GATBONTON                          0501
B0201400760374033046001TAISHOU LAND CORPORATION                                 1601
A0201400920000000048031FMC CATERING SERVICES                                    0504
B0101402930381041518001PANPISCO TECHNOLOGIES, INC.                              1603
A0101402930381546261001THERESE NARCISA Q. FAJARDO                               0502
B0101402930381794289001ACCURACY INTERNAL BUSINESS SOLUTIONS INC                 1602
A0101408790000000600024ALFORTE, LOLITA ORTEGA OR                               10501
A0101408790000000600024ALFORTE, RONEL D                                        20500
A0101411660000015086092MARANAN, JANIVIEVE CRAME                                 0501
A0101405490000006300210MANLULU, ANTHONY VOAN                                    0501
A0101405490000016108057GRAVADOR, ERNESTO ROLANDO                               10501
A0101405490000016108057SARMIENTO                                               20500
A0101408950396695350001ARANDIA, EDSEL FERNANDEZ                                 0501
A0101408950396726811001GERARD M. MORALES OR REGINA                             10502
A0101408950396726811001ISABEL S. MORALES                                       20500
B0101409180000008122832REDSCOPE COMMUNICATIONS, INC.                            1602
A0101409210000005252233DE AUSTRIA, PRINCE CROMWELL P.                          10501
A0101409210000005252233OR DE AUSTRIA, MICHELLE B                               20500
A0301400820000007372996DOMINGO, RITA P. OR DOMINGO,                            10502
A0301400820000007372996SOTERO C.                                               20500
A0301400820000010907361ANDRIN JR., PAULO A.                                    10503
A0301400820000010907361OR ANDRIN, MERLITA D.                                   20500
A2401400180411442136088***************                                          0501
A2401400180411606823002MONACILLO, MARICHU SABANDAL                              0501
B0901400220000001805016**********                                               1602
A5101400100000010834090BAJAN, ISRAEL VILLALUNA                                  0504
A5101400100000010834078GABRINO, GENEVIEVE CHINGBEE TUL                         10505
A5101400100000010834078ANG JT                                                  20500
A0101403320000012881966MA. SYLVETTE G. MARCELO                                  0501
A0101406330472298552011CARINA F. FALQUERABAO                                    0501
A0101406330000004349593LILIBETH B. VITO                                         0502
A0501400170481252349002LALAS, MAEVA DELA CRUZ                                   0502
A1401400110000010622481VILLAVERDE, ROY LENNON DE LEON                           0502
A1401400110492300971001WILFREDO J. LAVAREZ                                      0503
A1401400110000006680260TAN, JUAN KRISTOFER ABULENCIA                            0501
A0701400260000003259432ZAMORA, JULIUS SOPENA                                    0504
A0101407430000011167650UY, MICHAEL JOHN GESMUNDO                                0501
A0101407430503185438006LETICIA D. JIMENEZ                                       0503
B0101408530516034772001INFOSTORAGE CORPORATION                                  1603
B0101408530000007318114KASAKOO, INC.                                            1601
A0101408530000005493143********                                                 0502
A0101411790518055764001ABALOS, MICHELLE VILAR                                   0501
A0101412050000000323613ZULUETA, DBU CEM TECHNOLOGY                             10502
A0101412050000000323613ENTERPRISE                                              20500
A0101403450521376958001FU, ABIGAIL JAYE AYROSO                                  0501
A0101403610000016107823DUCAY, SANTIAGO FABIAN                                   0501
A0101403610000016107925ORLINA, CHRISTIAAN CLAIRE SANTO                          0501
A2201400250000012982486SEVERINO, MARIA FELICITAS PEREZ                          0501
A0101407720602298846008LAMBERTO U. OCAMPO OR                                   10501
A0101407720602298846008ANNABELLE SARMIE                                        20500
A0101407720000000713006BISQUERA, MARY ROSE YAP                                  0505
A0101407720602496503015DANIEL M. LUCHANGCO                                      0501
A0101407720602549119001SANTOS, EDGAR JOLLY PEREZ                                0505
A0101412180000016114673MARTIN JR., DELIO VALIENTE                               0501
A0101404260611287984002*****                                                    0501
A0101409890649047047001**********                                               0510
A0101409920000000523697VILLANUEVA, DBU DB VILLANUEVA                           10501
A0101409920000000523697CONSTRUCTION & SUPPLY                                   20500
A0101411530000000741684TEODORO, CARMELA KARLA V                                 0501
A0101411530000000013703SABERON, RAUL DBU                                       10503
A0101411530000000013703RALCO COMMERCIAL                                        20500
A0101413570000016116351ARCHI21 ARCHITECTURAL DESIGN                            10501
A0101413570000016116351STUDIO                                                  20500
A0101413570656057648184HONNIE ROSE NIEVA                                        0501
A0101413990000016114042BAUTISTA, ROGENEL CHRISTIAN T.                          10501
A0101413990000016114042OR BAUTISTA, GENE DOMINGA                               20500
A1301400210000000983757RODOLFO C BONIFACIO OR                                  10505
A1301400210000000983757YOLANDA S BONIFA                                        20500
A1301400210000013218974***                                                      0503
B1301400210000008174009****                                                     1603
A1301400210682555728001MARINA M. ROQUE                                          0506
A1301400340683456739001LAZATIN JR., EDUARDO NIONES                              0502
B1301400500000012953965UY, HOOVER TAN                                           1601
A1301400500684728846001DELLOSA, NIKKI VANESSA LACSON                            0501
A0101408240000001038711PIMENTEL, MAE ANNE LIM                                   0501
B0101408240711041799001POWERSHADES TRADING                                      1601
A0101408240711383461001SANG, PAUL OR IRIS                                       0501
B2801400100712035549001AUTOTEC AUTOMOTIVE TESTING AND EMISSION                 11602
B2801400100712035549001CENTER INC.                                             21600
B4101400260000006043421FOUR STEPS CORPORATION                                   1605
A4101400390000016112644ASERCION, JUNAVI B                                       0501
A4101400390000016112702RAMIREZ, MARY GRACE P                                    0501
A4101400390000016112768SOL CRUZ, LEIGH GO                                       0501
A4101400390000016112791TAGLE, ROMMEL ASEO                                       0501
A4101400390000016112826VALINO, ROSELLE S                                        0501
A4101400390000016112848VIERNES, SUSETTE M                                       0501
A4101400390000016112871JARRELL, DEXTER DULAY                                    0501
A4101400390000016112893RUMBAOA, MICHAEL V                                       0501
A4101400390000016112917BAGGAYAN, AVELYN C                                       0501
A4101400390000016112939BAGGAYAN, RODRIGO A                                      0501
A4101400390000016112940BAQUIRAN, LILIBETH S                                     0501
A4101400390000016112962QUINTO, DAISYLYN C                                       0501
A4101400390000016112973SOL CRUZ, JOANA P                                        0501
A4101400390000016112991VILLANUEVA, NIKKI P                                      0501
A4101400390000016113005VILLANUEVA, SEAN J                                       0501
A4101400550000004846824PANGAN, S DBU SDP REALTY                                 0503
A4101400550815478374008LORELYN C. PARCIA                                        0502
A0101412340000004988856JOB REY M. CATUNGAL                                      0501
A0101412340000006047138RICHARD R. CABANTAC                                      0502
A0101412340000003438599HENRY S. NGUYEN                                          0501
A0101404840851572213001VENTURA, JAYDEE MANICSIC                                 0502
A0101406750000010508868ALMANZOR, CLARIFA DE TORRES                              0501
A0101405070861395697002MARLYN SENDEN MINOZAN                                    0501
A0101405070861478374066ELMER LADRES APAS                                        0501
A0101413860000001233670DE LEON, EVANGELINE PASIOLES                             0502
