A0101400440000002034782CHARITO IBANEZ                                           0502
A1601400170000001069227NUNEZ, IRENE AJERO                                       0503
A0101404260611337823001MACARIA OR MANUEL TAN                                    0501
A0101400860000001005365***********                                              0503
A0101400860011462040002**********                                               0502
A0101400860011514595002**********                                               0502
A0101400860011539633001**********                                               0501
A0101400860011542443001**********                                               0505
B0101401250000000020731CEMENTINA CORPORATION                                    1601
A0101401250021290543001KAUR, KALDEEP OR                                        10502
A0101401250021290543001SINGH, AMANDEEP                                         20500
A0101400150000000807556MENDOZA, MAGDALENA CRUZ                                  0501
B0101400150061010845001LUCY PROPERTIES, INC.                                    1602
A0101400150061228725002NUNEZ, JOEL RUFINO                                       0501
A0101400150061292057004SISON, GIDEON GOCHIOCO                                   0503
A0101400150061292057006SISON, GIDEON GOCHIOCO                                   0504
A0101405810072234635002DY, SUSANA                                               0501
A0101405810072367294001**********                                               0503
B0101405810072412798001**********                                               1603
B0601400100081039107001REPLICAS MARITIME & AVIATION MODELS INC.                 1604
A0601400100081478374001SANCHEZ, REGINA OR JERRY                                 0504
A0601400520000001706827TANGLAO, MARIA CECILIA T.                               10502
A0601400520000001706827OR TANGLAO, VICT                                        20500
A0101413280000002648337MITCHELL ZARAH HORTALEZA OR                             10501
A0101413280000002648337MARY ROSE HORTALEZA                                     20500
A0101410850000000005789AUSTRIA, MA. DOLORES RODRIGUEZ                           0501
A0101410560000002316638FILART, REGINA SANDEJAS OR                              10501
A0101410560000002316638FILART, ALBERTO UBALDO                                  20500
A0101412630000000801370ANTE, RICHARDSON NARISMA                                 0501
A0101401830000001281885SANTOS JR., LAURO DOCENA                                 0502
A0101400440000001440044ESTABILLO, ESTELITA CARPIO                               0501
A0101400440000004901433SUAN, ROSALYN VALENCIA                                   0501
A0101400440161520766014LINA M. SISON                                            0501
B0101401090000000772441B.A. ELECTRICAL SUPPLY                                   1605
A0301400790000001010693BACALI, JOVI TINGSON OR                                 10503
A0301400790000001010693BACALI, KRYSMAE                                         20500
A0101401380000000682684ALLAUIGAN, BERNARD UMAYAM                                0502
A0101413020000002292811********                                                 0503
A0101410720000000029821AGNO, MARITESS LIPPAD OR                                10501
A0101410720000000029821AGNO, NEIL DELOS REYES                                  20500
A0101410720653409732001ATIENZA, OLIVA MAILA ANYAYAHAN                           0501
A0101410720653452116001VIRGILIO R. BACQUEL JR.                                  0503
A0101410720210479517001MEDINA, ADELE MERCEDES SOLON                             0501
A0101413600000002122230MARY GRACE EDEJER                                        0501
B3101400160221224862001JOYME CONSTRUCTION SUPPLIES, INC.                        1602
A3101400450223085265001MEDRANO, NELSON MARQUEZ                                 10502
A3101400450223085265001OR RIVERA, JULIE J.                                     20500
A3101400450223391044003GUNTER, FORTUNATA AZORES                                 0501
A3001400130000001271567LIBRES JR., PONCIANO NICOLASORA                          0501
A1001400190000002170623LEGASPI, L DBU LBL TRAFFIC CONT                          0503
A1001400190000005198461HELLO, MARK ANTHONY LAGRADA OR                          10501
A1001400190000005198461ACUESTA, RUBEN VICTOR                                   20500
A1001400190231520766089CODILLA, ORLAND ORIAS                                    0502
A1001400190231520766107DELIA ENRIQUEZ                                           0501
A1001400190000001057636VIRTUDAZO, JENEFER S.                                    0501
A1001400350233478374006IBANEZ, ELSA                                             0501
A1001400480000003357566TABINGO, ROD LAMANERO OR                                10502
A1001400480000003357566TABINGO, MAE JOY O                                      20500
A1901400290261016395001GOLDEN OIL GASOLINE STATION                              0502
A1901400290261248453001LEONARDO RETANA GARING                                  10502
A1901400290261248453001OR BUENA FLORES GARING                                  20500
A1901400290261390520001JOEL PUNZALAN DIMAANO                                    0502
A1901400290261407573001ABELARDO F RELLORA OR                                   10502
A1901400290261407573001AMELIA R RELLORA                                        20500
A1901400290261432900001JULIUS PIO AFRICA RANA OR                               10501
A1901400290261432900001CHARMAINE DE GUZMAN RANA                                20500
A1901400290261488341026FRITZIE B TENORIO                                        0502
A1901400290000000135093MARITES LIM SANCHEZ                                      0502
B0101401670271020951001LOTUS POINT RESEARCH, INC.                               1603
A0101406620273401579001CHIKIAMCO, TERESITA VALLARTA                             0501
A0101406620273681482001GUTIERREZ, PAOLO LORENZO CASTAN                          0501
A0101408660274519407001ZIALCITA, MA. CRISTINA B.                                0501
B0101411110276118888008JJIPP INCORPORATED                                       1605
A0101411820000002328623MARIELLE R. HUGO                                         0501
A0101411820000002328598ALBERASTINE, RUBE OBEMIO                                 0502
A0501400200292694336002PACIS, WILMA RAMOS                                       0502
B0801400160000001289892WEST VISAYAN CONFERENCE                                  1602
A0801400160311413609001LIM, JOSEPH PO                                           0505
A6601400120314044682001QUINNREEVE'S MOTORCYCLE PARTS                            0502
B0101402510341031237001VIACAREM RESTAURANTS                                     1602
B0101402510341058658001PRICEWIDE, INC.                                          1601
A0101402060000000562065ARGANOSA, MAGDALENA LYN SARZUEL                          0502
B0101402060351017870003HANIN CORPORATION                                        1605
A0101402060351217440015CAROLINA PAULA R. CARLOS                                 0503
A0101409050352622303001PRINCESS P. SNELL                                        0501
A0201400920000001331851MANSUETO, NEIL ANTHONY DBU BROD                          0501
A0201400920375316580001LIM, PERRY TAN                                           0502
A0201400920375503351001**********                                               0501
A0201400890000002270202GASPAN, JESUS ANDALES                                    0501
A0101408370382209111002PONCIANO, JOSEFINA COLARINA  OR                         10503
A0101408370382209111002PONCIANO, PAULO JOSE C.                                 20500
A0101408370382211811001DR. SHARON CATING LIM                                    0501
A0101402770391029270001RCABAN-SAN ANTONIO DE PADUA                              0502
A0101402770000000360650AGUIRRE, LORY DBU FIRST LINE                            10502
A0101402770000000360650TRADING                                                 20500
B0101405490392030959002DIAMOND ROAD INTERNATIONAL CORPORATION                   1601
B0101405490000003905184NORTHSHORE HARDWARE AND CONSTRUCTION                    11602
B0101405490000003905184SUPPLY                                                  21600
A0101408400394039740001KAINAN SA STAFFHOUSE                                     0506
A0101408950000004998149CHRISTIAN DENNIS E. RICABLANCA                           0501
A0101408950396726811001GERARD M. MORALES OR                                    10502
A0101408950396726811001REGINA ISABEL S.                                        20500
A0101412210399094817002TEODY A. PASCUAL                                         0501
A0301400820000001185791****                                                     0501
A0301400820000000024893ALIVO, JOENALD C.                                        0501
B2401400180411035164001MOMMY GINA TUNA RESOURCES (MGTR), INC.                   1610
A0101412890000001056360AMIDO, NORMA GUEVARA                                     0501
A0101412890470086848001IGMIDIO ROBLES AND                                      10503
A0101412890470086848001ANNE JAMACA FIGUEROA                                    20500
B0101406330472027929001STO. TOMAS DE VILLANUEVA PAROCHIAL                      11602
B0101406330472027929001SCHOOL                                                  21600
B0101406330472028479001TRU-SERV MARKETING CORPORATION                           1602
A0101406330000000683216MASCENON, ALEXANDER BENEDICT                            10502
A0101406330000000683216DE GUZMAN                                               20500
A0101410140475478374010PELAEZ, BEATRIZ GUEVARRA                                 0501
A1401400110492041611001BLUECLICKER COMPUTER CENTER                              0505
A1401400110000000132896MORALES, RAIN DBU DIRL AND JANE                          0501
B1401400110000004461949DY, E DBU ENJ-F MEGA STORE                               1603
A1401400110000003988923DY, EDNA AYCARDO                                         0505
A1601400170000001069103KEN CLEMENTE OR CHARLES CLEMENT                         10503
A1601400170000001069103E JR OR LORENA CLEMENTE                                 20500
A0701400260000002339095BERNARDO JR., JAIME MIRALLES OR                         10502
A0701400260000002339095BERNARDO, CYRIL                                         20500
B0101407430000001213056AERO EQUIPT AVIATION INC.                                1601
A0101407430503182387001MARLON M. VILLANUEVA                                     0502
A0101407430503356367001REYNALDO A. LALUSIN                                      0501
A0101405940000002268788TESORO, KRISTINE PAULINA PONCE                           0502
A0101405940512399500001MYRA A. BULAN                                            0502
A0101405940512534017001MARCELO, RONIE DEMAPANAG                                 0501
B0101408110515035109001UNIVERSAL LMS FINANCE AND LEASING CORP.                  1601
B0101408110000001199300PC&V COMMUNICATIONS, INC.                                1601
A0101408530516571877148MARIAN C. ADVENTO                                        0501
A0101408530000001885721JACKIE LOU R. BAUTISTA                                   0501
A0101411400000001280313GARCIA JR., EXPEDITO GARCIA                              0501
A0101411790518055764240MARIA CRISTINA D. PUYAT                                  0501
A0101411790518055815027MANABAT, ELAINE BUNDALIAN                                0501
A0101403450000001769953**********                                               0502
A0101403450521238269001**********                                               0505
A0101403450521346715001MURILLO, MARY JANE BARBAS                                0502
A2201400250561478374025LUZMINDA M. GACILAN                                     10501
A2201400250561478374025MEMBERS OF NATAS                                        20500
A0101404130601634366001BERNARDINO, ASUNCION ALANES                              0501
B0101407720000000713160GREEN BEAN ORGANIC COFFEE CORP.                          1604
A0101407720602161917001GOYLOS, LORENA CALVO                                     0501
A0101407720602396366001BRAVO, ARLENE RICARTE                                    0502
A0101407720602492004001MARIA IMELDA BELEN VITUG-SALES                           0501
B0101404260611030938001BUON FORTUNO REALTY DEVELOPMENT                         11602
B0101404260611030938001COMPANY, INC.                                           21600
A0101404260000000532283UNI STOP DRUG & GENERAL MERCHAN                          0501
B0101413440000000038184THE ONE DYNAMIC THREE REALTY AND                        11605
B0101413440000000038184DEVELOPMENT CORP                                        21600
A0101413570000002976152MANINGDING, MARIA MARILI CABALL                          0501
A0101413570656057648098CRISELDA DELA PAZ                                        0501
A0101413570656057648127JOCEL GUAN                                               0501
A0101413570656057648178KERVIN NAVARRETE                                         0501
A0101406590000000131706CARRANZA, JANITH BOTALON                                 0501
A0101406590662630506001******                                                   0501
A1301400340000000926938MOLINA, REALYN COSTO                                     0501
A1301400340683378168001RODIL, CONSUELO CREUS                                    0501
B1301400340683456739001LAZATIN JR., EDUARDO NIONES                              1602
A1301400340683603484001PARINAS, MA. LEA DIONISIO                                0502
B0101408240000000832644COLLYER SHIPPING PHILIPPINES, INC.                       1610
B0101408240000000832962CARMEL LAND SALES & DEVELOPMENT CORP.                    1610
A0101408240711295749001REMELITA ROBINSON                                        0502
A4101400260812478374017PRISCILA R. CABAMALAN                                    0501
A0101412340000003340672RANDY D. AMILLAR                                         0501
A0101412340000000224035LUNA, NORBERTO CORRAL                                    0501
A0101404840000000475952GONZALES, ROWENA POLLICAR                                0502
A0101404840851298552055MELBA C. ENGBINO                                         0502
A0101404840851520766178ROWENA C. PUNZALAN                                       0501
A0101404840000000683461BALMES, GERVACIO FRAGO                                   0501
A0101406750000000172989VELEZ, PALMY REPRADO                                     0501
A0101406750000000090673DIMAIYACAN, MARCELINA MANALO                             0501
A0101406750000002040248AINZA, ROWENA MORALES                                    0502
A0101405070861197518001RICARDO G. CHAN OR                                      10505
A0101405070861197518001OLIMPIA C. CHAN                                         20500
A0101405070861321046001MARK LAURENCE V. LEBRIA OR                              10502
A0101405070861321046001GERLY D.C. LEBRI                                        20500
A0601400230891698269001DIMABUYU, LESLIE BALUYUT                                 0501
