F3101400320222048669001DIZON-CRISTOBAL, ANA VI BUNYI                            2501CKO
F3201400190000001492855RECEL JR., ESTEBAN REYNON                                2505CKO
F4101400390813039464018CHARVY D. DATOR                                          2502CKO
