A0101402640000000042457AVENGER TRUCK BODY BUILDER                               0504
A0301400530000000065832PERIAS, FE                                               0501
A2401400180000000073550ALBARRACIN, JEMAR DEGAMO                                 0502
A4101400420000000120696CARMELA G. ROMA                                          0501
A0101411370000000350434VENZON, JAMES PAUL PINANA                                0501
A0101411790000000469603A.B.P.O.S. BUSINESS PROCESS OUT                          0501
A0101404420000000472235*****                                                    0501
A4101400550000000506905HAYAG, MACRINA ISABEL BOQUIREN                           0501
A0101407720000000510825ALBAY, WILSON SABADO                                     0501
A0101406590000000568816LEDESMA, JOHN MICHAEL ORBE                               0501
A0101413020000000880484***************                                          0501
A0101410720000000882884BARTOLOME JR., ENRIQUE ROASA                             0501
A0901400220000000888042**********                                               0502
A0101401700000000890626ARENAS, EDWIN PASIA                                      0505
A0101401250000000906832JOY Q. LINGATONG                                         0501
A0101400860000001005434**********                                               0503
A0101400860000001005525**********                                               0501
A0101412890000001056171RLC WATER ESSENTIALS                                     0501
A1601400170000001069001MICHELLE D. ARANDIA                                      0501
A0301400660000001113795VILLADAREZ, RICHARD RANIS                                0501
A5501400120000001122063NAVARRO JR., ROMERICO BALUYOT                            0501
A3101400870000001177117LUMAGUI, MARIA NELIA MANIPOL                             0502
A0701400260000001231981SABIDO, CECILE ANG                                       0501
A0101412210000001236140VAQUERO, JUAN IGNACIO RODRIGUEZ                          0501
A0101405070000001256462ORQUILLANO, JOCELYN BAILEN                               0501
A0101409210000001294680CORRALES, DONNA MARIE TUPAZ                              0501
A4101400550000001332405RIVERA, ROSALINDA LOVERIA                                0502
A3101400870000001712152LANCETA, CLAUDIA LATAYAN                                 0502
A0101405070000001726110BANDIOLA, JANERIE ALAR                                   0501
A1401400110000001806964SY, LILIBETH NG                                          0501
A0101400730000001822500DE LEON, GLADYS MARI                                     0501
A0101410140000001939728VILLEGAS, ALYSSA MARIE ALCOSEBA                          0501
A0601400520000002270931FERRER, SIMON VALERIO                                    0502
A1401400110000002286804DIZON, ARLENE L.                                         0504
A0101400150000002374530ACOSTA, HARRY WILLIAM DEL CASTI                          0502
A0101412050000002857823HUENEFELD, CHARLES EWALD H.                              0501
A0101400860011377649001**********                                               0502
A0101400860011426836001*********                                                0502
A0101400860011573883001SEE, MARY LAO                                            0501
A0101400860011626823001**********                                               0503
A0101400860011654737002**********                                               0503
A0101400860011794959001**********                                               0506
A0101401250021529111001REBLANDO, MA. ELENA ALCANTARA                            0502
A0101401700041330733010ROLANDO TANTE                                            0501
A0101401700041339444001******                                                   0501
A0101400150061341245014LIM, ROBERTO CECILIO                                     0502
A0101400150061453761066ARNOLD T. LACHICA                                        0501
A0101400730111478374153LUZLYN F. CUBELO                                         0501
A0101401830141503457001MODALES, EDMAR LEJERO                                    0501
A0101401830141540968001MARY ANN R. ARCANO                                       0502
A0101401830141546547001REATAZA, NELIA MORABE                                    0503
A0101400440161478374006JOSEPHINE R. VEGA                                        0502
A0101400440161525001139JEMARIE S. SALUDAR                                       0501
A0101401090171457732001MARCELA MILA D. DAYA                                     0501
A0101407140213190389001**********                                               0501
A3101400450223455809001LANCION, AUREA OR JERIC                                  0502
A3101400450223612365001ARAGO, ANDREW HIZON RODA                                 0503
A1001400190231478374027EUBRA, LIBERTY O.                                        0501
A1001400350233635947001GOMEZ, CHRISTOPHER IAN CARILLO                           0501
A1301400470252482273001DRA. LEONOR J. DIZON                                     0501
A1301400470252491349001ANTONIO I. CHUA JR.                                      0502
A0101401670271206317002* * * * *                                                0502
A0101406620273399420001SAMSIN, JOAN CARINUGAN                                   0501
A0101400570281383821001LUISA L. ANG LEY OR LILY L. LEY                          0502
A0101402060351324318001EUN SOO PARK                                             0502
A0201400760374478374009MARIEL TORRE                                             0501
A0201400920375478374008OLELA, DONATILLA OMELGO                                  0501
A2401400180411272632001BONA GRACE T. RONDINA                                    0502
A0101403030441583043001**********                                               0505
A0101403580511150595001MAXIMO P. MARIANO                                        0501
A0101403580511152455002CORINNA Y. CASTANEDA                                     0505
A0101403580511156576001NIDAN E. ALBA                                            0502
A0101403580511279669001JOSEPHINE MATEO-BULURAN                                  0501
A0101403580511420184003MARIA CAROLINA S. MACASAET                               0507
A0101403580511499197001ALEXANDER ROQUE                                          0501
A0101405940512026524001DAVENNIEL PROMATS MARKETING                              0503
A0101403450521238290001****                                                     0501
A0101404000551478374002PENAMORA, GIRLIE E.                                      0501
A0101404000551755312001LEGASPI, LIZA D.                                         0502
A2201400250561076745001GUADALUPE N. SABADO                                      0501
A2201400250561076745001GUADALUPE N. SABADO                                      0504
A0101404260611150835001HENRY OR LAI SHA CHING                                   0505
A0101410720653768067001DELOS REYES, MA. ERIKA WONG                              0501
A0101406590662528331001PRAGO, MARIA VICTORIA FADERANGA                          0501
A1301400210682246147001MA. ANGELA O. CELERIDAD                                  0502
A1301400340683574319001ELLI, RAFAEL ABASTILLAS                                  0501
A4101400260812015061001AUTO AIRE CAR AIRCON SERVICES                            0502
A4101400260812631418001MICHAEL LIM TAN                                          0510
A4101400550815696464001SAMONTE, SONIA SINGSON                                   0501
A0101404840851478374086EDITHA ALOJADO                                           0501
A0101404840851520766026MENALIZA MABINI                                          0501
A0101404840851520766068SONIA VILLARIN                                           0501
A0101404840851520766167MARILOU RICANA                                           0503
A0101404840851520766178ROWENA C. PUNZALAN                                       0501
A0101405070861032590001J-VEL-PIL TRANSPORT SERVICES                             0502
A0101405070861380698001REYES SR., RENATO SISCAR                                 0501
A0101405070861478374066ELMER LADRES APAS                                        0501
A4101400260000000377479PETALCO, BABELITO V. OR                                 10501
A0601400230000000452782GOZUN, R-JAY RAMOS                                      10510
A1001400350000000922241CAUBE, MARIVIC JAMERO OR                                10501
A1001400350000000922252CAUBE, MARIVIC JAMERO DBU                               10501
A0301400790000001010693BACALI, JOVI TINGSON OR                                 10501
A0101405070000001124350DESCALZO, MARIA KHARIN H. OR                            10501
A0101410690000001284362CAYABYAB, RONALD BAUTISTA OR                            10501
A0101400570000001681892LEAH ACOSTA OR                                          10502
A0101409180000001694306CABRERA, ESPERANZA DBU E.E.C.                           10502
A0101409920000001951828MEMBERS OF NATASHA (SHOECAT INC                         10501
A0101400150061396548001ALIMURUNG, BENJAMIN N. OR                               10501
A0101400440161591337001JENESSEY A. RANCES OR                                   10502
A3101400450223019912001LAGUNA HEALTH SERVICES                                  10510
A0101401670271228042001TINIO, JUAN ANGEL LIGON                                 10501
A1101400120313043824001LOLITA HEIGHTS REALTY                                   10502
A0101408370382234715003DR. ANTHONY RICHARD G. NUNEZ OR                         10502
A2401400180411478374017PERPECTUO BULAQUINA, JR.  OR                            10501
A0101407720602161863003ROBERTO K. MACASAET OR                                  10502
A0101410720653385187001SERVILLANO H. GALVEZ JR. OR                             10503
A0101410720653528817001VINCENT GONZALO SY OR TIMOTHY                           10502
A4101400420814506413001IBIAS, JOSEPHINE OCAMPO OR                              10501
A0101406750852296707001SAMSON D. HECITA OR                                     10503
A4101400260000000377479PETALCO, VIRGILI                                        20500
A0601400230000000452782OR GOZUN, MYRNA                                         20500
A1001400350000000922241CAUBE, VICTOR CODAL                                     20500
A1001400350000000922252CAFE LERIS                                              20500
A0301400790000001010693BACALI, KRYSMAE MONTILLO                                20500
A0101405070000001124350DESCALZO, LUZVIM                                        20500
A0101410690000001284362RODALYN                                                 20500
A0101400570000001681892LEONILA PE ACOSTA                                       20500
A0101409180000001694306SOURCE PRODUCTS ENT.                                    20500
A0101409920000001951828LALA, MARIAM A.                                         20500
A0101400150061396548001ALIMURUNG, ALICE                                        20500
A0101400440161591337001JESSIE O. RANCES                                        20500
A3101400450223019912001COOPERATIVE                                             20500
A0101401670271228042001OR TINIO, MARIA CELESTE                                 20500
A1101400120313043824001DEVELOPMENT CORP                                        20500
A0101408370382234715003DR. IRMA G. TAN-NUNEZ                                   20500
A2401400180411478374017EMMA C. BULAQUIN                                        20500
A0101407720602161863003VIRGINIA M. RAFAEL                                      20500
A0101410720653385187001KAREN F. GALVEZ                                         20500
A0101410720653528817001JON SY OR JULIE                                         20500
A4101400420814506413001IBIAS, SEGISMUND                                        20500
A0101406750852296707001JOSEPHINE R. HECITA                                     20500
B0101411110000000009098NET4SITE PHILIPPINES INC.                                1602
B0101405070000000028880CLUB YOKO BAR AND RESTAURANT INC.                        1601
B0101401670000000178552LA JOYA PROPERTY HOLDINGS, INC.                          1601
B0101405070000000428966ONEWORLD ALLIANCE LOGISTICS CORPORATION                  1610
B0101404000000000461107BASIC BNBI SOLUTIONS INC.                                1602
B0101400150000000633458PATH 2 PURCHASE INC.                                     1601
B0101400150000000633516VALENZUELA CITICARE MEDICAL CENTER-                      1602
B0301400530000001409803REPHIL STATION INC.                                      1601
B0101412890000001765426RCCCW CORPORATION                                        1605
B0101413310000001928867AFFORDAMEDS GENERICS INC.                                1601
B0101401700041537647001C NMZSBI INC.                                            1605
B0101400150061014955001METROBANK CARD CORPORATION (A FINAN                      1605
B0101400150061035214001GOLDLUSH HOLDINGS, INC.                                  1601
B0101400150061044736001MARSMAN DRYSDALE TRAVEL, INC.                            1605
B0101400730111015420002FELANER REALTY DEVELOPMENT CORPORATION                   1606
B0101401830141039490001DRINK ARTWORK STATION                                    1602
B0101401830141044349001D'COLD MAN AIR CON SERVICES                              1601
B01014010901710435610013M PETROLEUM DEALER CORP.                                1602
B0101401670271020886001AR INSURANCE AGENCY, INC.                                1602
B0101411240283047591001MOVIMENTO 5 CORPORATION                                  1603
B0101402510341024728001YAHU "G" FOODS CORPORATION                               1605
B0201400760374031953001B AND E SEA TRANSPORT CORP.                              1601
B2401400180411035163088GOLDEN GENESIS MARINE RESOURCES CORP.                    1603
B1201400150421013242002NORTH QUAD CREDIT CORPORATION                            1601
B0101403320471040565001HUMAN SHELTER REALTY CORPORATION                         1602
B1401400110492046339002****                                                     1615
B0101403580511703493001SINGAZILIAN UNLIMITED SKILLS CORPORATION                 1602
B2201400250561041156008COLINTAN CORPORATION                                     1601
B0101404420631368212001*******                                                  1610
B0101405070861008149001TABAQUERIA DE FILIPINAS INC.                             1606
B0101405070861197658001****************                                         1602
B0101401830000000033638CARITAS SALVE CREDIT COOPERATIVE                        11602
B0101401830000000033649CARITAS SALVE CREDIT COOPERATIVE                        11602
B0101401830000001282188R. E. LEGASPI BUILDER AND DEVELOPMENT                   11602
B0101404260611042763001ACJEM INDUSTRIAL MANPOWER & GEN.                        11603
B0101410720653030880001NAPOCOR VILLAGE HOMEOWNERS ASSOCIATION                  11601
B0101401830000000033638MANDALUYONG                                             21600
B0101401830000000033649PASAY                                                   21600
B0101401830000001282188CORPORATION                                             21600
B0101404260611042763001SERVICES, INC.                                          21600
B0101410720653030880001INC.                                                    21600
