F1901400160491040836004DR MA JOYCELYN R MERCADO                                 2501CKO
F0101403580511152455002CORINNA Y. CASTANEDA                                     2505CKO
F0101411240000000011974TY, MANDA LYNN VELOSO                                    2601CKR
F1801400130151048771001MSU-IIT NMPC POBLACION-ILIGAN B                          2601CKR
F0201400180181054440001ASIAN WAVE SEAFOOD CORP.                                 2601CK1
F0101408370382011532004PROFESSIONAL SERVICES, INC.                              2602CKR
F0101403320471046476001ZHOEBLESS CORP.                                          2601CKR
