A2801400100000014389741PICACHE, EDGAR NAVARRO                                   0501
A0101413990000006278113VARONA, HENRY ALABADO                                    0501
A0101400860011386650002**********                                               0505
A0101400860000010683264*************                                            0505
A0101400860011463583002*********                                                0502
B0101405810072034176001**********                                               1605
B0101413730000001568470DELOS SANTOS, RHOEL DBU ADELKO PRINTING                 11601
B0101413730000001568470PRESS                                                   21600
A7201400170000003773120ASUGAS, GRACE MARIE NARCISO                              0502
A5001400170000000214002REQUINA, ORWINO ATAY                                     0501
B5001400170000000045025S. A. MALON LENDING CORP.                                1602
A0101400440161520766032ALMA M. CULALA                                           0501
B0101407270162063089001REALITY ENTERTAINMENT, INC.                              1610
B0101407270162063091001MOTHERSHIP, INC.                                         1610
B0301400530193040936168QUICK LUBE TIRE & SERVICE CENTER, INC                    1602
B0301400530193042539001NELSHENE MARKETING                                       1610
A0301400530193678516168BRIAN F. INVENTOR OR                                    10502
A0301400530193678516168CECILLE C. INVEN                                        20500
B0301400660000003368325SAN JUAN TIBUNGCO PETRON GAS STATION                     1602
A0301400660000014406601LIPORADA, CECILIA REYNA                                  0502
A0301400660194737283088ZHI VENUS INDUSTRIAL SUPPLY                              0502
A0301400790000001776092OBEREZ JR., GENARO OR OBEREZ,                           10501
A0301400790000001776092JAY VINCENT U.                                          20500
A0301400790000005691990EMBALSADO JR., ALBERTO GEMPESAW                          0502
A0301400950000008869032HUTALLE, RONILA JABONERO                                 0501
B3101400450223709906001SPC HARDWARE & CONSTRUCTION SUPPLY                       1602
A3001400130230478374004BALABA, JANETH BORJA                                     0501
B1301400470000007863003FGMM KASANIB ENTERPRISE INC.                             1605
A1901400290261040803001EDCO SECURITY AND INVESTIGATION                         10504
A1901400290261040803001AGENCY                                                  20500
A1901400290000000030673ABDON OR EVELYN OLIVEROS DBU                            10504
A1901400290000000030673ARCO FORCE SECURITY                                     20500
A1901400290261244409001ESPERANZA PAZ M LEYEZA OR                               10502
A1901400290261244409001JUAN GUALBERTO M LEYEZA                                 20500
B0101406620273216386001CITIMEX, INC.                                            1602
A0101406620273341737001KAMPITAN, MA. THERESA LEDESMA                            0501
A0501400200000004456957COBARDO, LEVI DAGSAAN OR                                10501
A0501400200000004456957COBARDO, GRACE CARBONELL                                20500
A0801400160000012928360TIO, JEFFREY GO DBU WINEGARD                            10505
A0801400160000012928360MARKETING OR TIO, ENG HUY                               20500
B6601400120000003084751THE ROMAN CATHOLIC BISHOP OF CATARMAN-                  11601
B6601400120000003084751DSAC ALAY KAPWA                                         21600
B6601400120000005195973TANGHAN CORPORATION                                      1601
B0201400760374045286001C.K. BUILDERS CONST. & DEV'T. CORP.                      1610
B0201400920375047811001ALCORDO INTERNATIONAL, INC.                              1602
B0201401020000000005056PRECISION POINT, INCORPORATED                            1601
A0201401020000000056415SORELA, DBU M.P. SORELA CONSTRU                          0501
A0101402770391212232001RODOLFO R. SAN JUAN OR                                  10504
A0101402770391212232001LILIA L. SAN JUAN JT                                    20500
A0101402770391217366002ESGUERRA, NESTOR UMALI                                  10501
A0101402770391217366002ESGUERRA, KRISTINE AGNES                                20500
B0101405490392575171001ANIMED LABORATORIES, INC.                                1603
A0101405490000005566470MERCENE, ERWIN SALAZAR                                   0501
A0101408950000001039383ORIOLA, MARIA CONNIE UNDAG                               0501
A0301400820000002271945VOSOTROS, BONIFACIO K.                                   0503
A0301400820000010907332PERIA, MARITES S.                                        0502
B2401400180411014575003SOCSKSARGEN FEDERATION OF FISHING &                     11603
B2401400180411014575003ALLIED IND.                                             21600
B5101400100000010370997KABALIKAT PARA SA MAUNLAD NA BUHAY                       1610
A1901400160000000243605ADRIAN  DANIEL GUTIERREZ ABU OR                         10501
A1901400160000000243605WILYNN MATULIN B                                        20500
A1901400160491012830001SANDSTORM CONSTRUCTION                                   0501
B1401400110492028287001MARYHILL COLLEGE, INCORPORATION                          1605
A1401400110492041611001BLUECLICKER COMPUTER CENTER                              0505
A0101403610000015381601CANONIZADO, ZORAIDA MACASERO                             0501
B0101403610000015381452CANONIZADO, ZORAIDA MACASERO DBU                        11601
B0101403610000015381452LKZ FOOD STATION                                        21600
A0101403610531478374002GRAPE, IMELDA HANDOG                                     0501
B0101404260000000156972PRIME POWER MANPOWER SERVICES                            1650
A0101413990000002422873BUENVIAJE, MICHELLE PILAR C. OR                         10501
A0101413990000002422873BUENVIAJE, JOHN JERICHO D                               20500
A0101413990000005252682BUENVIAJE, JOHN JERICHO DEE                              0501
A0101413990000015379458FORMADERO III, CONRADO S. DBU                           10501
A0101413990000015379458LE'CONFORM BUILDER                                      20500
A0101413990000006768558HERRERA, BOBBY L.                                        0501
A0101414120000014550626PAREL, MARIVIC MAGBANUA                                  0501
A1301400500000005963379EVANGELISTA, ROGELIO CONCEPCION                          0502
A1301400500684094788001GERODIAS, ANALYN ALCANTARA                               0503
A1701400230693478374060ROMOSOD, ADELA PASCUA                                    0501
A0101408240711378646001FELMA C. ONG                                             0502
A0101408240711383150001AURELIO III OR AURELIO JR.                              10501
A0101408240711383150001OR AARON LITONJU                                        20500
A2801400100000014389752VILLAPLAZA, SOLOMON DANONG                               0501
B4101400260000006043512MEGATECHNIP INCORPORATED                                 1601
A4101400260812409493001AMELIA RAZON OR EMILINO RAZON                            0502
A4101400390813671136001LINARIS I. ESTEPA                                        0502
A4101400420000000710030TUCAY, ANNIE BONITO                                      0501
A0101404840851424338001PAMITTAN, MYRNA M.                                       0505
A0101406750852478374095LORENA N TANGPUZ                                         0501
A0101405070861366707001ARELLANO, MA. ELENA BALLESTEROS                          0502
A0601400230000010703072**********                                               0502
