B0101406590662821100608**********                                               2010
B3101400740224031685002SAN MIGUEL YAMAMURA PACKAGING                           11601
B3101400740224031685002CORPORATION                                             21600
B3101400740224031685003SAN MIGUEL YAMAMURA PACKAGING                           11601
B3101400740224031685003CORPORATION                                             21600
B3101400740224031685004SAN MIGUEL YAMAMURA PACKAGING                           11601
B3101400740224031685004CORPORATION                                             21600
B3101400740224031685005SAN MIGUEL YAMAMURA PACKAGING                           11601
B3101400740224031685005CORPORATION                                             21600
A3001400130000001271403xxxxxxxxxx                                               0501
B3001400130000003434671CORONET WOOD INDUSTRIES, INCORPORAT                      1605
A0101400570281047282001WORLDTECH ENGINEERING &                                 10503
A0101400570281047282001INDUSTRIAL SALES                                        20500
B0801400160311013980001VIC IMPERIAL APPLIANCE CORP.                             1650
A6601400120314612871001**********                                               0502
A0101408790000004983246ALLAN V. ARMAS                                           0501
A0101408790000004983257RONALDO C. ASTORGA                                       0501
A0101408790000004983279GLORIA G. AURE                                           0501
A0101408790000004983291HANS VOLTAIRE R. BAYABORDA                               0501
A0101408790000004983326JOSEPH B. CANAPI                                         0501
A0101408790000004983348ANGELITA D. CRUZ                                         0501
A0101408790000004983360EARLMON IGNACIO D. ELEGADO                               0501
A0101408790000004983382MICHAEL I. FORTUNA                                       0501
A0101408790000004983393OLIVIA D. FRANCISCO                                      0501
A0101408790000004983417ALVIN PATRICK R. GO                                      0501
A0101408790000004983439JOSE JUAN PAOLO S. GUADARRAMA                            0501
A0101408790000004983451MARIA CONCEPCION S. JULIAN                               0501
A0101408790000004983473EDWARD G. LUMBAQUIN                                      0501
A0101408790000004983508MARIA CONCEPCION A. LUNA                                 0501
A0101408790000004983520EDGAR F. MORALES JR.                                     0501
A0101408790000004983542MYLEENE L. PAGUIA                                        0501
A0101408790000004983560CARLO CEZAR H. PAGULAYAN                                 0501
A0101408790000004983582REY F. PEREA                                             0501
A0101408790000004983600OLIVER LEE B. REFORMADO                                  0501
A0101408790000004983622RODERICK E. RIVAS                                        0501
A0101408790000004983640GILBERT S. TORRES                                        0501
A0101408790000004983662GENEROSO G. VILLANUEVA                                   0501
A0101408790000004983695RITHCE M. ACOSTA                                         0501
A0101408790000004983720ALLAN RONALD H. ROSALDO                                  0501
A0501400170000000018306LLAMAS, ULDARICO MARTINEZ                                0501
A0501400170481257443001JUANITO L ONG JR                                         0502
A1401400110000005120847TAN, PHILIP CU                                           0501
A1401400110000003025225PANTALEON, ANITA DBU NSTP AIDES                          0501
A0101410690000003027523********                                                 0502
A0101412340000003718934HENRY B. CHAVEZ                                          0501
A0101400860011398358001**********                                               0501
A0101400150000005129373AGUILAR, ALLEN AGUSTIN                                   0501
A0101400150061231438001NADONZA, RANILO                                          0501
A0101400150061615508001LUY, ERNESTO TAN                                         0504
A0101400600000000007707**********                                               0502
A0101400600000001335579********                                                 0501
A0101400600071092538001CHAN, GIDEON DY OR                                      10510
A0101400600071092538001CHAN, JEANNE PAR                                        20500
B0101405810072029570001PLASTIC CONSUMER CORPORATION                             1602
A0101405810072234892001**********                                               0502
A0101405810072353703003GUO, ZHI SHEN                                            0505
A0101405810072375139003OCAMPO, RAMON DE VERA                                    0502
A0101405810072518663002BAIT-IT, VICTORINO ORO                                   0501
A0601400360083252485001SANGIL, MAXIMO LUMANLAN                                  0501
B0101413730000001568425BYSMP BLESS THE CHILDREN FOUNDATION, INC                 1602
A0101410560000001291010SUMAGAYSAY, JENNIFER MACHADO                             0501
A0101400730000001822851TANEO, LETICIA FAJARDO                                   0501
A0101406040000001391960********                                                 0501
B0101401830000000033627CARITAS SALVE CREDIT COOPERATIVE                        11605
B0101401830000000033627(LAS PINAS) 007                                         21600
A5001400170000001003421LEYNO, KATHERINE MARAON                                  0505
A5001400170000002288344ESPERITU, REYMOND NOBLES                                 0501
A0101400440000001440033RAYMUNDO, LEILANI BUNUAN                                 0502
B0101401090000000772481RED IMAGES TIMELESS PHOTOGRAPHY INC.                     1605
A0101401090171200588001BOBBY S. PARENO                                          0501
B0301400530193038166088FUTURE OPTIONS DISTRIBUTION SYSTEM, INC.                 1610
B0301400530193788422001ZHANG, HUAN                                              1602
A0101413600000002276491RIVERA JR., PONCIANO EUGENIO                             0505
A3101400450223394475001*****                                                    0502
A3101400870000002861538ALEMAN, EULALIA JAUM                                     0501
A1001400190231520766118AUSTRIA, MARY FILIPINA PINGGOY                           0502
A1001400190231577958001GORDIEL, JAMES LESTER UY                                 0501
A1001400350233478374033CARAOS, PATROSENIA T.                                    0501
A1301400470000001299163XP BUILDERS                                              0505
A1301400470252090729001LAWRENCE G. MORENO OR                                   10502
A1301400470252090729001JOBY L. MORENO                                          20500
A1301400470252478374028NORMA S. BALLESTEROS                                     0506
B0101406620273016438001LAMCO INTERNATIONAL TRADING CO., INC.                    1602
A0101400570000005134310CASTRO, SONNY VALEN ROMERO                               0501
A0101400570000005134350CASTRO, STEPHEN JOSEPH ROMERO                            0501
A0101400570000005134383CASTRO JR., SANTIAGO ROMERO                              0501
A0101400570000005134401CASTRO SR., SANTIAGO MENDOZA                             0501
A0501400200000001081054RAMOS, TORIBIA RODRIGO                                   0501
B0801400160000001289829PANAY MEDICAL VENTURES, INC.  PMVI                       1605
A0801400160311478374088CHERYL C. CONDINO                                        0501
A1101400120000003981179BALEOS JR., JOSE RONQUILLO DBU                          10502
A1101400120000003981179APEX AUTO PARTS                                         20500
B1101400120313537282001TY, WILLIAM LOBRIO OR TY, MARILOU CHU OR                11610
B1101400120313537282001TY, NINO WILLIAM                                        21600
A0101402350321478374058DELA CRUZ, MERLITA GABON                                 0501
A0101402510341202209003********                                                 0501
A0101402060351319677002HAK JIN KIM                                              0502
A0101409050000000999551BORJA, ARIANNE MAE KRIS BERNAS                           0501
A0101409050000002971486SALAS, KATHERINE MARTIN                                  0501
A0201400760000002047063BARCE, HITLER MAGLANGIT                                  0501
A0201400920000004087354UZOAGBA, PRINCE GABRIEL                                  0501
B0201400920375042734001A. LIM DEVELOPMENT INC.                                  1602
B0101408790383047956001NOVARAD ASIA PACIFIC CORPORATION                         1603
A0101402770391527848001DIVINA GOZUM MANUEL                                      0501
B0101402770391782889001IAN JOSEPH C. FUENTEZ OR REYNALDO C.                    11602
B0101402770391782889001FUENTEZ JR.                                             21600
B0101405490000001935680HUGE MANUFACTURING CORPORATION                           1603
B0101405490000000019963NAJIA MOVERS & PROJECT SPECIALIST INC.                   1602
A0101408950000004998149CHRISTIAN DENNIS E. RICABLANCA                           0501
A1201400150000001863334BADUA III, EDUARDO MANZANO OR                           10502
A1201400150000001863334BADUA, JO-ANN BALLESTEROS                               20500
A1201400150421520473001FLORES, MARY JANE KIMAKIM                                0501
A0101403030441239047001**********                                               0501
A0101406330472022555001AUDIO EXCELLENCE MARKETING                               0505
A0101406330472041459001PROTECH SECURITY MARKETING                               0505
B0101406330472045827001PRIMARK TOOLING INDUSTRIES CORPORATION                   1605
A0501400170481331784001**********                                               0501
B3801400170490058559001MEMVESELL CONSTRUCTION AND REALTY                       11601
B3801400170490058559001SPECIALIST INC.                                         21600
A0701400260000001804644PRIELA, ROCHELLE ONTENGCO OR                            10501
A0701400260000001804644PRIELA, GIAN PAOLO PENA                                 20500
B0101403580511005281001SUN MICROSYSTEMS PHILIPPINES INC.                        1601
B0101403580511020857001ROBROS INCORPORATED                                      1603
A0101403580511150751001VIOLA V. CRUZ OR                                        10505
A0101403580511150751001RUFIA DOROTHY C. VERA                                   20500
A0101403580511642950001RUJOHN B. BARRIENTOS                                     0502
A0101405940000005067881JONNIEL YAO                                              0501
A0101408530516615903010GLENNMORE P. CUREG                                       0503
B0101411790000002658308BRAINSWAY ASIA INC.                                      1601
A0101403450000001769964TAN, DIANA                                               0501
B0101403450521019391001**********                                               1610
A0101403610000000015818AGUJO, MARILUZ SANCHEZ OR                               10503
A0101403610000000015818AGUJO, JUANITO JR. M.                                   20500
B0101403610531044823001WELLSPRING OF GRACE SCHOOL, INC.                         1602
A0101403610531712013001LUMPAS, MARILYN DEL ROSARIO                              0501
A0101407720000002693150FONTAMILLAS, FAYE TORRES                                 0501
A0101407720602332279002CAYCO, ANTONIO V. OR                                    10501
A0101407720602332279002CAYCO, MARGARITA                                        20500
A0101407720602685847001ROXAS, EDWARDO GUANGCO                                   0501
A0101404260611018041001JP LONEZA CONSTRUCTION                                  10503
A0101404260611018041001& TRADING                                               20500
B0101404260611047841001PR GAZ, INC.                                             1605
A0101404260611451349001SAMUEL L. ESGUERRA                                       0501
A0101404260611500923001BESMONTE, ARNEL BERMUNDO                                 0502
A0101409890000002326796***                                                      0501
A0101413570656057648169HANS MONTENEGRO                                          0502
A1301400340683391841002EVELYN M. BAUL OR                                       10502
A1301400340683391841002EDUARDO T. BAUL                                         20500
A1301400500000001412388GERONIMO G. QUIZA JR. OR                                10501
A1301400500000001412388MA ROSELLE P. QUIZA                                     20500
A1301400500684589879001YULO III, ANTONIO P. OR                                 10505
A1301400500684589879001YULO , ANGELINA                                         20500
A1301400500000002063792ANTONIO, ALBERT SILVA                                    0501
A1701400230000001108401LOPEZ JR., CECILIO LAGMAY                                0501
B1701400230693043669001JKM INFINEON TECHNOLOGIES CORP.                          1602
B0101408240000000832735ESQUIRETECH CORP.                                        1601
A0101408240000000039530MORADA, VICTOR GERARDO M. OR                            10501
A0101408240000000039530MORADA, MARIA MAI MONICA                                20500
A2801400100712582575001LLANTADA, JOANNA LEE BACALA                              0501
B2801400230000001580310NILE NIIGATA SUBIC CORP.                                 1601
A4101400260000003679961FORTICH, HENRY OCHOA                                     0503
A4101400390000003389504CARAIG, ELENA CONSIGO                                    0501
A4101400420814405680001TIBAYAN, CYNTHIA SAPUTIL                                 0501
A0101412340000004360412CHRISTOPHER R. LIM                                       0501
A0101404840851520766121ESTREMOS, LUNES                                          0501
B0101406750000000090822METROWIDE HOMEBUILDERS, INC.                             1605
A0101406750852582771001DIMAPILIS, CARMINA BLANCAFLOR                            0502
A0101405070861478374066ELMER LADRES APAS                                        0501
A0101405070861478374067TIRSO M. ARROJO JR.                                      0502
A0601400230000000045241CANINO, CRISTINA FERNANDEZ                               0501
A0601400230000001062435**********                                               0502
