A0101405650322522833001JIMENEZ, MARIA JEAN BREBONERIA                           0501
A0101409180000011749478ANNA CAUTON OR LUCAS CAUTON III                         10501
A0101409180000011749478OR ROSSELL MICLA                                        20500
A1001400350233478374033CARAOS, PATROSENIA T.                                    0502
A1901400290000014042347FAIZAR FRANCISCO P TUBADJIL                              0502
A1101400120000013536722MANCERA, RAINIER DY DBU D RIZ M                          0501
A1101400120000006186467BOCAR, GILBERT GONZALES DBU                             10501
A1101400120000006186467BOCAR STORE                                             20500
A0101400860000004497510************                                             0502
B0101400860011023116001**********                                               1602
A0101400150000003162810MARIA SALOME S. BUAN                                     0501
A0101400150000003876871EMPLOYEES OF ADP (PHILIPPINES),                          0501
A0101400150000017571850ALSIM, ALBERT ESPELETA                                   0501
A0101400150000017571901ARIGO, MYRA NOCHE                                        0501
A0101400150000013484323STA. ANA, EMYLYN SAMPAN                                  0501
B0101400150061011066001FOOD SOURCE, INC.                                        1605
A0101400150061229009001MANGLAPUS III, RAUL JAY OR                              10501
A0101400150061229009001MANGLAPUS, JENNI                                        20500
A0101400600071234544002CHOW, ALICIA CHUA                                        0501
A0101400600000000007649EDMOND KE CHUNG                                          0505
A0101405810000000016559CHUA, HEMAN LAO                                          0502
B0601400100081026547002ANGELES FRIED CHICKEN, INC.                              1610
A0601400100081374646001PAULE, BERNICE DELA CRUZ                                 0501
A0101413730000011325101*********************                                    0501
A0101413730000002289490**************                                           0501
B0101413730000000144636**********                                               1602
A0101414090000011597741RAMOS, CHARMAINE LORENZA A.                              0501
A0101410850000003102067SOLOMON, JANE MERIN                                      0502
A0101400730000011634854VITUG, CRISOSTOMO BELTRAN                                0503
A0101400730000000645410ASIS, REDENTOR CONSTANCIO                                0502
A0101401830141724867001GOMEZ, GEORGE CASSIUS ALFONSO F                         10501
A0101401830141724867001OR GOMEZ, JINKY                                         20500
B7201400170000006487785LADLAD, EMSA BANA                                        1601
B7201400170000013006825ARIEL S. VILLANUEVA                                      1601
A7201400170000011454287OBAOB, MARIE FE MARAASIN                                 0502
A7201400170000011454414ISHIBASHI, ROWENA VIRTUDEZ                               0501
A7201400170000015855180SUPERALES, ROEL BENIDA DBU                              10501
A7201400170000015855180VICTORIA ETIK FARM                                      20500
A0101400440161520766159CHONA Y. ELUMBRA                                         0502
B0101407270162039491001UMALAG FARMS, INC.                                       1603
A0101401090000009373931CO, EDNA ANTONIO                                         0501
A0101401090171196061001ROBERTO OR ROLANDO ANASTACIO                            10506
A0101401090171196061001OR MA. TERESA BELMONTE                                  20500
A0101401090171448116002SYLVIA BERNARTE-ALS OR                                  10502
A0101401090171448116002ANDREA MARIE BERNALES                                   20500
B0301400660000012086710**********                                               1601
A0301400790000006269856DEDELES, ARMAN CASCABEL                                  0503
A0301400790000001776092OBEREZ JR., GENARO OR OBEREZ,                           10501
A0301400790000001776092JAY VINCENT U.                                          20500
A0301400950000002115231**********                                               0502
A0101401380000015796686BALAHADIA, CESARIO LATAYAN                               0502
A0101410720000015623293SANTOS, NOEL MARIANO                                     0502
A0101410720000011909687CUA, JEOSEN SY DBU KNIGHT-                              10501
A0101410720000011909687TELECOM VARIETY                                         20500
A0101410720000000211770PRISTINE DAWN NAILS SPA                                  0502
A0101410720653237008001TUMACAS, AVELINA AUSTRIA OR                             10502
A0101410720653237008001TUMACAS, JESUSITO                                       20500
A3101400450000011907561AVANZADO, GRACIA GUERRA                                  0502
A3101400450000017427482LAILO, WINIE ARMEDILLA                                   0501
A3101400450223046748001PLAN ELECTROTECH CENTER                                  0502
A3101400450223352819001FARAON, RIZALINA OR                                     10502
A3101400450223352819001BELEN, RHODORA                                          20500
A3101400740000016346253TALORONG, JOSEPHINE PANES                                0501
A3001400130000010813486MANANSALA, NINA ASIS                                     0502
B1001400190231029291001CHIU, BEE BING DBU JAMESON CONSTRUCTION                 11610
B1001400190231029291001SUPPLY OR LIM, G                                        21600
A1001400190231520766025BALBERAN, FLORA ABOY                                     0501
A1001400190231520766040TAHURAN, EVELYN CABILAO                                  0501
A1001400190231520766093NODADO, REYNOZA                                          0501
B1001400350000014511952R AND OTHER SVS PARTNERS LTD. CO.                        1603
A1001400350000015675473GALVEZ JR, LEODEGARIO LABADAN                            0502
A1301400470000013690223RUVELYN S. LARGO                                         0502
A1301400760000005990383WOODY JOHN G. ESPERA                                     0501
A1901400290000017290198MASUPIL, MICHELLE TORRES                                 0501
A1901400290000017290187MASUPIL, ZORAYDA TORRES                                  0501
A1901400290261478374031REALYN CUENCA EVANGELISTA                                0502
A0101401670000000843663TAN, PRINCESS ALEXIS GO                                  0501
B0101401670000004588503PRINCE ROCKWELL MONEY CHANGER                           11604
B0101401670000004588503CORPORATION                                             21600
B0101401670000004588445THE ASTRA GROUP, INC.                                    1605
A0101401670271189366002RUBI A. NGO                                              0502
B0101406460000000182370WEE COMMUNITY DEVELOPERS, INC.                           1605
A0501400200000014573943CAMPOS, LIZ AMOR GARCIA                                  0502
B0801400160311391813002*******                                                  1601
A1101400120000000992394REYES, CRISTINA MARIE OCASLA                             0502
A2901400130000017579623REYES, CICIRO ARBOLEDA                                   0501
B0101405650000014062301FILTECH TRADE RESOURCES, INC                             1601
B0101405650000005381864FAM 5 CORE PROPERTY LEASING CORP                         1601
B0101402510000011827020******                                                   1602
B0101402060000011455428ADHARA HOLDINGS CORPORATION                              1602
A0101402060351009385001JORGE ALOMBRO JR. OR                                    10505
A0101402060351009385001NELIA ALOMBRO                                           20500
A0101402060351479109001ALMADEN, ROSALINDA CLACIO                                0501
A0101409050000001353162LAZAM, ROMMEL ASPIRAS                                    0501
A0101409050000007511931GALLEGO, MARIA MONINA ANGELO                             0501
B0201400760000000989706SORIANO, ADRIAN IBAY                                     1602
A0201401020000007935411RODRIGUEZ, MYRA DEL CASTILLO                             0501
A0101402930381205320001SIMON BUMANLAG SAWIT OR                                 10501
A0101402930381205320001FILIPINAS TIANGC                                        20500
A0101408790000014749978G26 TALENTS MANAGEMENT                                   0502
B0101408790000003845749**********                                               1602
A0101408790383551241001PEREZ IV, FRANCISCO B. OR                               10501
A0101408790383551241001PEREZ, MARIVIC S                                        20500
A0101402770391029270001RCABAN - SAN ANTONIO DE PADUA                           10501
A0101402770391029270001PARISH                                                  20500
B0101402770391782889001FUENTEZ, IAN JOSEPH CRUZ JT                              1602
A0101408400394566645001SIMON, SUSAN BABOL JT                                    0501
B0101408950000015963907BAYOCA, RHEA BRIONES DBU LINGSNET                       11602
B0101408950000015963907ENTERPRISE                                              21600
A0101408950396563503001DR. SUE- ANN RIVERA LOCNEN                               0504
A0101408950396567591001DR. DANILO V. CONSTANTINO II                             0501
A0101408950000003171304CONSTANTINO II, DANILO V. OR                            10501
A0101408950000003171304CONSTANTINO, NOEMI C.                                   20500
A0101408950396773717001AGUILAR, JOSEPHINE CABRERA                               0502
B0101409180000000874773R.R. ENCABO CONSTRUCTORS INC.                            1605
B0301400820000010546620DRACO WOLVERINE AGRICULTURAL CORP.                       1608
A5501400120000006976847ABRENICA, CHRISTOPHER RALPH NOL                          0502
A0101406330000014145176MADRID, PETER ANTHONY GILBOY                             0502
B0101406330472021511001ASSOCIATED WIRE CORP. OF THE PHILS.                      1610
A0101406330472436213002SUSAN CAGUINGUIN OR DIOMEDES                            10504
A0101406330472436213002CAGUINGUIN                                              20500
A0101406330472696737001RECHIE LOPEZ RAZON                                       0501
A0101410140000000499383USON, PERLA PORTUGUEZ                                    0501
B0101412760000007821976JONECO TECH MARKETING CORP.                              1602
A0501400170000013464650ROSARIO, MARGIE DE GUZMAN                                0502
A3801400170000017553512LEGASPI, EFREN S. DBU E.S.L.                            10501
A3801400170000017553512BUILDERS AND PARTS SUPPLY                               20500
A0701400260000006599622MUSTERA, MARK AMIEL OR MARY                             10502
A0701400260000006599622FAYE DBU SPINCITY TIRE                                  20500
B0101407430503006821002ADMIN - PEOPLE'S AIR CARGO                               1605
B0101403580000010847431WHC LAKE SOLAR CORP.                                     1601
B0101403580511005591001PUHUNAN INC.                                             1603
B0101403580511033792001LIONKING INDUSTRIAL CORPORATION                          1601
B0101411400000008249849AL BATRA RECRUITMENT AGENCY, INC.                        1603
B0101403450521030931001***********                                              1604
B0101403450000010454161PHILIPPINE FOREMOST MILLING COPORAT                      1601
A0101403450521238266001JERONIMO CO CHIN CHIENG OR                              10502
A0101403450521238266001LAWRENCE COBANKI                                        20500
A0101403450521392456001**********                                               0501
A0101403610531068892001RACSA, ROLY MICHAEL R DBU MERAV                         10506
A0101403610531068892001ENTERPRISE                                              20500
A2201400250000004916110GOMER VILLANUEVA CAPINPIN                                0504
A2201400250561088535001CHRISTOPHER JORDAN L. CHUA                               0501
A0101404130601657831001LAURON, MARCOS ARCADIO GALANG                            0502
B0101407720602006018001HEALTH LAB AND MEDICAL SERVICES, INC.                    1610
A0101407720602398588001GARCIA, JOSEFITA AZCONA                                  0502
A0101407720602403595001CARMENCHU MARIE ECHIVERRI OR                            10502
A0101407720602403595001JAY VILLAVICENCIO                                       20500
A0101407720602785772001ESCUREL, CAROLINA NAGUIT                                 0503
A0101407690652478374044MA. THERESA BACINILLO - DEALERS                         10501
A0101407690652478374044OF SHOECAT INC                                          20500
A0101413570000005911086MAGALONA, EMMANUELLE                                     0501
A0101410300000000026531VELHAGEN, MELISA B.                                      0501
A0101410300663776849001******                                                   0503
A1301400210000007669289GONZALES, MARK OLIVER SANTIAGO                           0503
B1301400210000005041007***                                                      1603
A1301400340000014341841DELA CRUZ, CECILE CASTRO                                 0502
B0101408240000002419923NUTRIBASICS CORPORATION                                  1602
A0101408240711374373001*************                                            0501
A4101400260000011418072WONG-ESPIRITU, ABEGAIL ANTIVOLA                          0502
A4101400260000017549603GADICHO, WILBUR JURIA                                    0501
A4101400260812246527001ISIDRO B. DELA CRUZ JR. OR                              10510
A4101400260812246527001LILIAN H. DELA CRUZ                                     20500
A4101400260812494463001EMILY V. CARPIO                                          0503
A4101400390000000975253ELIZABETH C. TUAZON                                      0502
A4101400420814342049001MENDOZA, DIVINA LORY ANN E. OR                          10510
A4101400420814342049001MENDOZA, GILBERT                                        20500
A4101400420000015978202DELA CRUZ, ARMINDA                                       0501
A4101400420814567731001GASGONIA, REBECCA ARAUJO                                 0501
A0101404840000009615994ALCARAZ, MA CARMEN JIMENEZ OR                           10501
A0101404840000009615994ALCARAZ, JO JASON TULLAO                                20500
B0101404840851021512001STI COLLEGE ALABANG, INC.                                1603
B0101404840851029765001SENG HIENG FASTFOOD                                     11610
B0101404840851029765001INCORPORATED                                            21600
A0101404840851520766180CARMELITA M. BARBACENA                                   0501
B0101404840000003069685CHOWLEEMIEN FOODS INCORPORATED                           1605
A0101406750000016396493MALDOS JR., ARTURO CASTANTE                              0501
A0101406750852711795001MARCELINO, NIELSON GRAMMS MIRAN                          0503
A0601400230000013259519LORENZO-REDOBLADO, ZARINA GUEVA                         10502
A0601400230000013259519OR YAO, REGINA C                                        20500
A0601400230000002650028CORDOVA JR., IGNACIO DBU NICHE                          10505
A0601400230000002650028ADVISORS                                                20500
A0601400230891398766001..........                                               0502
A0601400230891627261001RAMOS, ANGELITA BAUTISTA                                 0503
