A1101400120000006080877CHUA, NIZZA CLAVECILLAS                                  0505
B1101400120000006187113SARC FOODS CORPORATION                                   1602
A1101400120000006186343JABINES, DYANN JAIME DBU LA                             10501
A1101400120000006186343BOTICA DYANN                                            20500
A1101400120000000652471TANOLA, EVE MARGALLO                                     0501
A1101400120000006186763PEDOTERA, ARSENIA PACUANCUAN                             0501
B0101412180000001293049AUTO MAGIC CORPORATION                                   1602
A0101400860011402080002**********                                               0503
A0101411370000005524403GAURANO, RIO LAO OR                                     10501
A0101411370000005524403GAURANO, RAICEPH APUADA                                 20500
A0101405810072395559001XIE, DUI                                                 0502
B0601400100000000142214SIMON AND STANDLEY INTERNATIONAL TRADING                11605
B0601400100000000142214& DEVT CO, INC.                                         21600
A0601400100000011854181MUNOZ, ANTONIO JUICO                                     0502
B0601400100000007185380MUNOZ, ANTONIO JUICO                                     1602
A0601400100081297133001DIZON, CRISANTA GALANG                                   0510
A0601400100081358072002NOEL C. DAVID                                            0505
A0601400520000001120385BANAG, ESMERALDO PINEDA                                  0501
A0601400520000007553393RIVERA,JOSEPH SAENZ DBU SAND                            10505
A0601400520000007553393EXPRESS TRADING AND HAULI                               20500
B0601400520000000398647TELESIGHT COMPUTER AND SURVEILLANCE                     11602
B0601400520000000398647SYSTEM                                                  21600
A0601400520000007553144SICAT, ARNEL GUZMAN DBU CARD                            10502
A0601400520000007553144WASTE HAULING AN                                        20500
A0101401960000006004411***************                                          0501
A0101401830000015508973RELLEVE, CARLA VIERNES                                   0501
A7201400170000009673141TRAYA, MARY JOY SEPADA OR                               10503
A7201400170000009673141TRAYA, REX JULIUS AM-IS                                 20500
A0101412920000001313780ANGELES, THEODOSIA BUSUEGO                               0501
A0101407270000015597901OBISPO, RAPHAELLA PIEGA                                  0501
A0101407270162382424001DANILO A. REMENTINA                                      0503
A0101401090000003178589RAVINA, ELIMAR ALUPAY                                    0501
A0101401090171203082002JUDE PADAMA GUIANG                                       0501
A0301400530000001009994PADAYHAG, WINNIE L.                                      0502
B0301400530193035726167TAGUM PIONEER FOODS CORP. - 1                            1605
B0301400660194044417088JCDIS MARKETING                                          1605
B0301400660000003361919DAVAO CONSUMER LINKAGE CORPORATION                       1604
A0301400950000010701025GOODWIN, GRAY SELWYN                                     0502
A0301400950000010701116SUBA AN, BRYAN SACAY                                     0501
A0101401380000012373089BOLALIN, JOEZER BIGAY                                    0501
A0101401380000000682622********                                                 0501
A0101401380201571293002ALQUIZA, EMELITA ALVARINO                                0502
A0101412500000002304763****                                                     0501
A0101412500000014364199BAUTISTA, JAN HEIDEL ADEFUIN                             0501
B3101400160000010010610FRANCISCO P GARCIA & CYNTHIA T ALARCON                  11610
B3101400160000010010610& LEILA D TORRES                                        21600
B1001400190000002170827VEPCO GROUP DISTRIBUTION CORP.                           1601
A1001400190231520766024ALCOS, LIESIL SARIGUMBA                                  0501
A1001400480000001054682GOMEZ, JAMES B OR GOMEZ, JEROME                         10503
A1001400480000001054682OR BAJAS, LYDIA                                         20500
A1001400480000014023962NATIVIDAD, ELAINE TONGOL                                 0501
B1301400760000005989593ROYCE MOTOR CENTER, INC.                                 1602
B1301400760253062765001MOTORHUB INC.                                            1602
A0101406460272237293001**********                                               0501
A0101406460272237293002****************                                         0501
A0101406620000012950879GAJITA, JEFF BRYAN SALOMON                               0502
B0101406620000003497314POWERCYCLE INC.                                          1601
B0101406620000003497303GENTRADE INTERNATIONAL PHILIPPINES                       1601
B0501400200292036584001SSS EXPRESS CREDIT, INC.                                 1610
A0801400160000011336553SO, JAN LAWRENCE GO                                      0503
B1101400120313038526001LEYTE LUMBER YARD & HARDWARE CO.INC                      1610
A2901400130000011947461TABERNILLA, IKE GONZALES                                 0502
A0101402350321416868001JO, YONG HYUN                                            0501
A0101402510341200871001EULOGIO V. VERON JR.                                    10501
A0101402510341200871001OR RIZALINA J. VERON                                    20500
A0101409050000003536127YULO, SHEROICK NOEL                                      0501
A0101409050000002333400ALLAGADAN, ERIC CAYETANO                                 0501
A0201400760374047906001SAPAYAN LIM ALVAREZ & LIGUTAN                           10502
A0201400760374047906001LAW OFFICES                                             20500
A0101402930381311758001********                                                 0503
A0101408370382232546001DR. RAUL E. RAMBOYONG                                    0502
A0101408370382398259001DR. MARIA LIZA ASUNCION M. CRUZ                          0503
A0101408370382618960001JOHN GEOFFREY G. PALISOC                                 0502
A0101405490000015580493ACUNA, GREGG GELLA OR                                   10501
A0101405490000015580493ACUNA, RHODORA GARCIA                                   20500
A0101405490000015582837OROFINO,AUBREY DBU ARO DESIGN                           10501
A0101405490000015582837ARCHITECT'S & ASSOCIATES                                20500
B0101405490392034314001RAEMANN CORPORATION                                      1601
A0101408400394089469001DIVINAGRACIA, MARIA ESPERANZA G                          0502
A0101408950000015598831LIM, JON ENOS TE                                         0501
A0101408950396659332001DR. ANGELICA ANNE ACEDILLO CHUA                          0501
A0101409180000004959635FERRERAS, EDWIN L. DBU BICORE                           10501
A0101409180000004959635ONE NETWORK ENTE                                        20500
A5501400120000014838590SONGCUYA, PRINCESS GRACE DAJAY                           0502
B5501400120000007963377EASY PAY FINANCE CORPORATION                             1610
B5501400120000007963424MARBEL UNIVERSAL TRADING, INC.                           1603
B5501400120000000046893GRV FAMILY COMMERCIAL, INC.                              1625
B5501400120000005492413SURALLAH PENVIL FAMILY COMMERCIAL,                       1605
A5501400120410636168001SUENO, JOCELYN BERNARDO                                  0505
A5501400120000009875570SUENO, JOCELYN BERNARDO                                  0504
B5501400120000014312317DELA PENA, MARIA HENRIETTA CHIU                          1605
B2401400180000011299080BRIGADA PUBLISHING CORP.                                 1605
A2401400180411513730001CUEVAS, ARWIN ROYCE LEYVA                                0502
A1201400150000011167161GARCIA, PATRICK KELVIN GAPUZ                             0501
A1201400150000013825908IBASCO, ZABRINA DUMAGUING                                0502
B0101403030000015468638**********                                               1604
B0101403030441239186001**********                                               1605
B0501400170481018109002CSI WAREHOUSE CLUB INC.                                  1603
B0501400170481025398002COSTSAVER'S SUPERMARKET, INC.                            1601
A1901400160491347259015FE D FAYTAREN                                            0501
A1401400110492220775001AMORIN, NADIA JARAYA                                     0501
A0101407430503508540001ROBERTO P. JAO                                           0501
B0101403580511005504001EXCHANGE PROPERTIES RESOURCES CORP.                      1602
A0101403580000002265556ROBERTO CASTANARES JR. OR                               10501
A0101403580000002265556NORA CHRISELLE G                                        20500
B0101405940512005312002SHASTA CONCRETE SYSTEM                                   1605
B0101411400000001280488L' ABRE DU VOYAGEUR INC.                                 1602
A0101411790000011046603CORBILLA, IAN BASTIDA                                    0501
A0101412050000013259013MARY JANE A. CABANTAC                                    0502
B0101403450521011637002LIM YEE WAN CO., INC.                                    1605
A2201400250000007122727GARCIA, ADONIS DE VERA DBU DOC                          10501
A2201400250000007122727DIAMOND MARKETING                                       20500
B0101407720000000713160GREEN BEAN ORGANIC COFFEE CORP.                          1605
B0101407720000006028166MEDGATE PHILIPPINES, INC.                                1602
A0101407720602381795001FORES, MIGUEL EDGARDO MANUEL                            10502
A0101407720602381795001OR FORES, LUCIA                                         20500
A0101407720602516544001CAPULE, RODEL VENTURA                                    0502
A0101412180000013805200MIRANDA, CHRISTINE DE GUZMAN                             0501
B0101404260000012711498REBEL MANILA BRAND MARKETING SERVICES IN                 1602
B0101404260000004781266RD PAWNSHOP, INCORPORATED                                1605
A0101404260611478374091ROSITA LLANES                                            0501
A0101404260611478374121FLORDELIZA B. HUVALLA                                    0501
B0101404260000004781222**********                                               1601
A0101409920000013391356DE GUZMAN, NOEMY BARBO                                   0502
B0101413440000014245206DELTA AIR INTERNATIONAL AVIATION                        11605
B0101413440000014245206ACADEMY INC.                                            21600
B0101413990000000206226EREHWON ARTWORLD CORP.                                   1602
A0101406590000000568758BAUCA, MYRA MEDRANO                                      0501
B0101406590662027606001XANLAND PLACE CONDOMINIUM                               11601
B0101406590662027606001CORPORATION                                             21600
A1301400210000009982529ROSARIO, JESUS SANTOS                                    0502
A1301400210000000023394FILIPINAS A CALAYAG                                      0501
A1301400210000001206882GIPIT, GEMMA C.                                          0501
A1301400500000012953841AIZA MARIE G. SANTOS                                     0501
A0101408240000007478159Rapanot, Ronald C. or Server,                           10502
A0101408240000007478159Christine Michelle B                                    20500
A0101408240711750749001VILLAHERMOSA, MA CRISTITA BERNA                          0501
A4101400260000013704371CASALA, CHRISTOPHER BRYAN                                0501
A4101400260000012868561DE OCAMPO, NELSON GOMEZ                                  0501
B4101400260812012769004PHILIPPINE PIZZA, INC.                                   1603
A4101400260000009533542TONGO, CAESAR DIAZ                                       0505
A4101400260812478374062SUNNY G. CAPORADO                                        0501
A4101400260000003679943TAN, ANGELINA                                            0501
B4101400390813027260001PHILS-JEON GARMENTS, INC.                                1605
B4101400390813028793001KRATOS TECHNITES CORPORATION                             1605
B4101400390000003346187PAGASA PHILIPPINES LENDING COMPANY                       1603
A4101400390000000500529CALMA, MARLISA NARVAEZ                                   0501
A4101400550000000900350SANTOSIDAD AUTO SUPPLY                                   0503
A4101400550000001332416DOCTOR CLEAN LAUNDRY SERVICES                            0501
A0101412340000007305757EVELYN D. ALVAREZ                                        0501
A0101404840000005396665CARREON, KEVIN CHRISTIAN YU                              0502
A0101404840851046725002MA GERALDINE F. BOCADO                                   0502
A0101404840851516732001CARPIO, ANA MARIA RUALO                                  0501
A0101406750852273334001PERFECTO, ANN MARIE D.                                   0501
A0601400230000007402100ALBANO, GIENAH PACLA DBU HYDROE                          0501
