F0101401380000005960136ULTRAVIAL INDUSTRIES INC.                                2602CK1
F0101407430503029122001CUSTOMSTRADE ADVOCATES CO.                               2601CKR
F0101404130601611811001ASUNCION, LEOPOLDO MUNAR                                 2502CKO
F4101400260812039607015MARIE VIC JUNGCO                                         2502CKO
F4101400260000000002171CAPACIO, MILAGROS RAFOL                                  2502CKO
F4101400390813042421001VOLTAIRE VENTURA                                         2501CKO
