A0101403450000000009787*********                                                0501
A0101400310000000019343UCOL, JAN MAIKO DAKANAY                                  0501
A0101400860000000031610**********                                               0502
A0101400730000000112881GUTIERREZ, DOMINICA DALISAY                              0501
A4101400420000000120970REYAN S. LINCAY                                          0501
A0101406460000000182643CO, CEFERINA GO                                          0501
A0101410980000000533737REYES, JOY AMORA                                         0501
A0101410980000000533759TIOSIC, RUSTICA TANSENGCO                                0501
A0101413440000000570358**********                                               0503
A0101412920000000585757ACUNA III, EMILIANO S.                                   0502
A0101408530000000594230DE VERA, JENNIFER BARELLANO                              0501
A0101411660000000595222ANITA PINEDA SISON                                       0502
A0101400440000000596583ELIZABETH G. TALPLACIDO                                  0501
A0101400730000000833192GLEN T. NIOKO                                            0502
A0101400310000000851376CALALAY, ADAM ROSALES                                    0501
A0101410140000001074691MEMBERS OF NATASHA (SHOECAT INC                          0501
A0301400820000001185791JARED SUITES                                             0502
A2201400250000001545422DAVID, FELIPE ANGELES                                    0501
A0101407430000001664035KARIMMA CRISTINA B. SULTAN                               0502
A3401400280000001723531PAJUTINING, JANICE GIGAN                                 0501
A0101413860000001887012GALICIA, MARY ANN GONZALES                               0501
A0101410140000001939922ENCALLADO, CARLO CRUZ                                    0501
A1001400190000002170667RICHEL S. LOKING                                         0501
A0101412050000002314432BARTOLOME, CORAZON ROSAL                                 0501
A3101400450000002330392SIMBULAN, KARLA ANGEL HERRERA                            0502
A0101400150000003163022REGIN D. CASTILLO                                        0501
A0101400150000003322443RICHARD B. VILLANUEVA                                    0501
A0101406750000003393140FUENTEBELLA, JOCELYN PANGILINAN                          0501
A0101412920000003465007CABIGAN, AGNES STA. CRUZ                                 0501
A0101401670000003675194BAUTIL, ASMERAH AMAIKURUT                                0501
A0101400310000004075176ANGELES, JACKLENE BAUTISTA                               0501
A0101400310000004075201BAYHON, JEREMIAH JOEL FRANCO                             0501
A0101400310000004075212BANGUBONG JR., LEODIVICO ALUNAN                          0501
A0101400310000004075223DE LARA, ROXANNE MAGASO                                  0501
A0101400310000004075290GELI, JAY-VAN BALANSAG                                   0501
A0101400310000004075303GONZALES, RENINO ENRIQUEZ                                0501
A0101400310000004075325MALABANAN, RONALDO LAZARO                                0501
A0101400310000004075336MENDOZA, MARICAR BOLANOS                                 0501
A0101401090000004442255SITCHON, ALICIA SERRA                                    0501
A0101400860011400959002**********                                               0505
A0101400860011478374008LEONORA MACARANAS                                        0501
A0101400860011569183001**********                                               0502
A0101400150061073880001MA. REGINA CRISTINA L. LIM                               0501
A0101400600071233615002********                                                 0502
A0101405810072234684002TAN, RAYMOND                                             0501
A0101405810072545795001**********                                               0501
A0101400730111477184001MARCOS, BEVERLY MEYAS                                    0501
A0101401830141378973001ALBINO S. JACINTO JR., M.D.                              0501
A0101400440161039572051MARIA EDILINA S. BULAC                                   0501
A0101400440161478374010*****                                                    0503
A0101400440161760130001CANDELARIO, MYRNA SATURNINO                              0501
A0101401090171201465001MICHAEL JORGE OR CHERYL PERALTA                          0501
A0101401380201493851001ALFECHE, GREGORIA REDOLLA                                0501
A0101400310211024891001PENIEL PHARMACEUTICAL                                    0502
A0101400310211031032001FNC FOOD & BEVERAGES MACHINERY                           0501
A0101400310211086765001TARRAYO, CHRISTIAN STA. MARIA                            0501
A0101400310211166714001CELIA S. BUNDA                                           0502
A0101400310211381810001DALISAY, AMELIA PAGDANGANAN                              0502
A0101400310211477900001ASAMA, ALEX LAYSON                                       0501
A3101400160221478374031ROMEO C. OLIVEROS                                        0501
A1301400470252490894001RUTH G. ARENAS                                           0502
A0101406620273294329001**********                                               0510
A0101406620273720692001******                                                   0502
A0101400570281186536001DR. MERCY ANTOINETTE GAPPI                               0502
A6601400120314619632002FAJARDO, REYNALDO ARCENO                                 0501
A0101402350321708802001ALMAROSE C. VILLAPANDO                                   0501
A0101408820333519150001DELAGON, CONCISO AYSON                                   0501
A0101402510341433983001********                                                 0505
A0101402510341433983002********                                                 0505
A0101402510341433983003********                                                 0505
A0101402510341433983006********                                                 0505
A0101402640361548882001MIRANDA, HIEDEE ARCEGA                                   0501
A0201400760374478374015DACAYANA, ROSALIE SIBLA                                  0501
A0201400890376591320001CO, ALEXANDER PANTUAN                                    0502
A0101402770391029270001RCABAN-SAN ANTONIO DE PADUA                              0501
A0101402770391706375001JAYSON JAMES A. BARCELONA                                0501
A0101408400394478374063LACSON, MARITES                                          0502
A0101408400394478374090MARY DUMASLAN                                            0501
A0101408400394534911001GONZALES, DANILO RICAHUERTA                              0501
A0101403030441240375001**********                                               0502
A0101403320471314885002BOSETA, MARITES RAMIREZ                                  0502
A1401400110492372983002FLORES, MYRNA ABAYLE                                     0501
A0101407720602387946001EDUARDO S. RONDAIN M.D.                                  0510
A0101407690652373670001REYES, CONSTANCE BERBANO                                 0501
A1301400210682424320001PRISCILLA B. BAESA                                       0501
A1301400210682478374053RUBIROSA C CABUGWASON                                    0502
A2801400100712487899001NOCUM, LEANDRO CASTELO                                   0502
A2801400100712718080001ABANTO, MARGIE LAT                                       0501
A4101400260812494718001JOCELYN M. FRENCILLO                                     0502
A4101400420814520766045BOCO, ADELA G.                                           0501
A0101404840851217637031JOSELITO DANCEL                                          0502
A0101404840851217637044ALFREDO B. ALARCON                                       0502
A0601400230891515560001LIBERTY INES D. LACSON                                   0502
A0601400230891664298001ALMARIO, RENATO SICAT                                    0505
A1601400170000000421190JOHN F. TORROCHA OR                                     10501
A0101407690000000913757FALLER, DOMINIC DBU D' MINOR                            10505
A2001400290000000978043UTV CONSTRUCTION & ENG'G.                               10502
A0101406880000001286619TONOG, JO LEO G. OR TONOG,                              10501
A0101403320000001803156LIME LIGHT CONSTRUCTION AND                             10501
A0501400170000002354510BERMUDEZ, ELSIE MALAPIRA OR                             10502
A0101400310000004075267EUGENIO, TERESA KRIS MARIE                              10501
A0101408820000004441172LEE, JOHNCHANG OR                                       10501
A0101400730111392127002MILES, ELIZABETH G.                                     10505
A1001400190231275077001TAN, EDUARDO                                            10502
A1901400290261087553001MARIA JEOFFRIZA SARMIENTO DIAZ                          10502
A0101402510341200871001EULOGIO V. VERON JR.                                    10501
A0101402510341541150001SUMILONG, ANNA CHRISTINA A. AND                         10502
A0101402060351214812002BANTIGUE, WILLIAM OR ANGELITA                           10502
A0101408400394506485001EBAJAN, ALEX BERGADO                                    10501
A0101403320471042842001MIGO MEATSHOP AND FOOD SUPPLY                           10510
A1401400110492220879001ANGLO, ROMEO F. OR                                      10502
A0101407690652525001051ANNABELLE BADAYOS - DEALERS OF                          10501
A0101407560686495878001HSIEH, YAO YI OR                                        10501
A4101400420814436355001BAUTISTA, LOIDA U. OR                                   10502
A1601400170000000421190ROCHELLE A. TORROCHA                                    20500
A0101407690000000913757ORGAN MKTG & SERVICES                                   20500
A2001400290000000978043SERVICES                                                20500
A0101406880000001286619CLARE BIANCA V.                                         20500
A0101403320000001803156DEVELOPMENT                                             20500
A0501400170000002354510LEIZA JR., JUANITO Q.                                   20500
A0101400310000004075267ESPIRITU                                                20500
A0101408820000004441172LEE, JEANNA JEAN YU                                     20500
A0101400730111392127002OR JARDIOLIN, MA                                        20500
A1001400190231275077001TAN, LUCIA                                              20500
A1901400290261087553001OR RUBYRONA D LLAVE                                     20500
A0101402510341200871001OR RIZALINA J. V                                        20500
A0101402510341541150001SUMILONG, ROMMEL                                        20500
A0101402060351214812002OR JOHN PAUL OR NAGUIAT,                                20500
A0101408400394506485001OR EBAJAN, MERCE                                        20500
A0101403320471042842001CENTER                                                  20500
A1401400110492220879001ANGLO, CECILIA N.                                       20500
A0101407690652525001051SHOECAT INC.                                            20500
A0101407560686495878001HSIEH, TE YUAN L                                        20500
A4101400420814436355001BAUTISTA, EPITAC                                        20500
B0101410690000000001838COLOR1DIGITAL, INC.                                      1601
B1901400320000000041283SAN ISIDRO MULTI-PURPOSE COOPERATIVE                     1601
B0201401020000000056368CHUA, JOSEPH DBU COMPOSTELA ICE PLANT                    1601
B6601400120000000060911SAMNORTH BUILDERS CORP.                                  1601
B0101406590000000905566CRAVINGS FOOD SERVICES, INC.                             1605
B0101402480000001100165MMG METAL RECYCLING, INC.                                1606
B1901400290000001363097SILANGAN POULTRY FARM, INC.                              1601
B0101400150000001708607GATESSOFT CORP.                                          1601
B0101400860011023116001**********                                               1602
B0101405810072011448001C.P.P.C CONSUMER PACKAGING PRODUCT CORP.                 1602
B0101405810072019239002ROYAL PINNACLE ESTATES CORP.                             1601
B0101405810072034989001TRANSWELL ENGINEERING CO.                                1601
B0101405810072040696002PLASTIC TECHNOBAG CO. LTD.                               1602
B0101400310211005815001STI COLLEGE - MUNOZ EDSA, INC.                           1605
B3101400450223365119002VICTOR HUGO ENERGY CORPORATION                           1601
B1901400290261033408001FEEDS EDITION DISTRIBUTION SYSTEMS INC.                  1620
B0101406620273015217001LANDPATCH CORP.                                          1604
B0801400160311043928001DELIFRANZ BACKEREI, INC.                                 1602
B0101402480331033229004TGP DRUGSTORE                                            1603
B0101402480331033229035TGP DRUGSTORE                                            1603
B0101402480331541505004PHARMAGENERICS, INC.                                     1603
B0101402480331561080001*********                                                1601
B0101403030441593223001**********                                               1601
B0101403320471206926002LOLITA B COLINA                                          1601
B1401400110492038082001MT. BANAHAW HEALTH PRODUCTS CORPORATION                  1601
B0101406880513281235002LUCKY MONEY LENDING CO., INC.                            1603
B0101403450521011675001TORQUE BUILDERS, INC.                                    1606
B0101403450521312243001*********                                                1603
B0101404260611033056001OVT-GRAPHIC LINE INC.                                    1602
B0101407690652008210001AERO COOL SYSTEM                                         1602
B0101406590662016073001PACUCOA, INC.                                            1650
B0101407560686006370007**********                                               1601
B4101400390813019416002STI COLLEGE-ROSARIO, CAVITE, INC.                        1602
B0101404840851013980002VIC IMPERIAL APPLIANCE CORP.                             1601
B0101406750852047491001STA. RITA 168 BUILDERS CORPORATION                       1605
B0101407430503017546001ALL-TO-CUSTOMS BROKERAGE & FREIGHT                      11605
B0101407430503017546001CORPORATION                                             21600
B0101402350321821100608**********                                               2005
