F0101400570281506759001EDUARDO ROMMEL S. POBLETE                                2502CKO
F4101400260812039607018JEANETTE MENDOZA                                         2503CKO
F4101400260812039607018JEANETTE MENDOZA                                         2502CKO
F0101400150000000052797CONTROTEK SOLUTIONS, INC.                                2602CKR
F1801400130151048751001MSU-IIT NMPC TIBANGA MAIN BR.                            2602CKR
F0101407690652029452004CA TELEMARKETING INC.                                    2610CKR
