B1901400290261821100608**********                                               2005
B1901400290261821100608**********                                               2002
B1901400290261821100608**********                                               2005
A0101412920000014085793DE GUZMAN, MARIA LILIBETH UMALI                          0501
A0101403610000014607224DE GUZMAN, MERVIN MIRANDA                                0501
A0101410300000006278631BANTIGUE, MARIA LUISA OR                                10503
A0101410300000006278631BANTIGUE, JOHN PAUL                                     20500
B0101406590662023341005PAMAHAY DEVELOPMENT CORPORATION                          1601
A0101410300000002375857GARRUCHO, CECILIA B. OR                                 10503
A0101410300000002375857GARRUCHO, MARIA CLARA Y B                               20500
B0101400860011023114001**********                                               1606
A0101401250000008136521ONGSUECO, SYLVIA KIUNISALA                               0501
A0101400150000003162290MARLON A. AGUSTIN                                        0501
A0101400150000004996701RAMIREZ, RUSSELL MARQUEZ                                 0501
A0101400150000014011842MILLAR, DONNE MITCHELLE                                 10501
A0101400150000014011842SOLIVEN                                                 20500
A0101400150000014709458TAMERA, LUIRENE, YSON                                    0501
A0101400150000003141686BAJA III, LAURO CASTRO                                   0501
A0101400150000011138337ZAIDE III, RAFAEL LIM                                    0503
B0101400150000011872970WESTVIEW PROPERTIES, INC.                                1603
B0101400150061058779004ADSTRAT ADVERTISING                                     11604
B0101400150061058779004STRATEGIES, INC.                                        21600
A0101400150061091484001VELOSO, BENILDA ANCHETA OR                              10501
A0101400150061091484001ANCHETA, ALONZO                                         20500
A0101400150000002749671LUSPO, RENELYN IGNACIO                                   0502
B0101400600071234185001BALAY, FRANCISCO OR BALAY, MELLY                        11601
B0101400600071234185001BALAY, ANDREW                                           21600
A0601400360000014800701SANTIAGO, CARLO GLENN MACALINO                           0501
A0101413730000011325043CHUA, MICHELLE LYNN PHOA DBU                            10501
A0101413730000011325043SATB PRODUCTION                                         20500
A0101400730000000833410GOMEZ, EDWIN VITUG                                       0501
A0101400730000005317055CARMINA JOY A. UY-IGUIRON OR                            10501
A0101400730000005317055CLARK KENNETH M. IGUIRON                                20500
A0101400730111203514006****                                                     0501
A0101412630000001823376SIMBRE, JOAN ILAGAN                                      0502
A0101413310000010284783HIPONIA, JESSERINE PINEDA                                0502
B5001400170000010100451*********                                                1605
A0101400440000004889803ALBIA, HELEN S.                                          0501
A0101400440000004901564DOVIE T. JERMIA                                          0502
A0101400440161044130001KNUFFNA MARKETING                                        0502
A0101400440161459294001MARY ANN T. REGINALDO                                    0502
A0101400440161520766042MONINA H. DUKA                                           0501
A0101401090000014635851**********                                               0501
A0101401090171200081001TAN, EDGARDO T.                                          0501
A0101401090000007525933LABANDA, LEANDRO COSTA                                   0501
B0301400660000003362052DAVAO DYNAMIC INDUSTRIES CORPORATION                     1602
A0301400660000008941033FERNANDEZ, GIL BREINARD SY OR                           10510
A0301400660000008941033REPONTE, RUBELYN                                        20500
B0301400950000002115742LKT REALTY DEVELOPMENT CORPORATION                       1601
A0101401380000013916582SHI, TING                                                0501
A0101401380000000682622********                                                 0501
A0101401380201606146002ANGELES, SONNY BOMBITA                                   0501
A0101401380000001412628CORNEJA, EMILIO CAMINIO                                  0501
A0101410720000004626380**********                                               0501
A0101412500000003289992****                                                     0501
A0101413600000008442513MARIA ENA L. SABALO DBU SEALINE                         10502
A0101413600000008442513CATERING FOOD SERVICES                                  20500
B0101413600000005524807TRUCKMASTER GOLDEN BODY MFG. CORP.                       1602
B0101413600000005524830HOH-WELL BUILDER SYSTEMS, INC.                           1601
A3101400160000008941226ROSEANN P ALCARAZ                                        0501
A3101400160000012033742BELTRAN, ANA MARIEL YNCLINO OR                          10501
A3101400160000012033742BELTRAN, NATHANIEL MEJIA                                20500
A3101400160000014696343BACAT, VERONICA PERALTA                                  0501
B3101400160221031027001ALLIED DOCTORS FOOD RESOURCES, INC.                      1602
A3101400450223225286001ARAMBULO, ANTONIO OR BELEN                               0501
A3101400450223494342001BELEN, RHODORA OR TOM OLIVER                             0501
A1001400350000004095421PAJO, DANTE BETONIO                                      0501
B1001400350233039881018EASTMIN FOOD CHAIN CORPORATION -                        11605
B1001400350233039881018JOLLIBEE GATEWAY                                        21600
A1301400470000003270493MAILEEN L. VILLEGAS                                      0501
A1901400290261772647001ALEX CAMOS BUQUIR OR                                    10501
A1901400290261772647001MARIA LUCY GUCE BUQUIR                                  20500
A0101401670000013222321SOLIVEN, VICTORIO FERDINAND RAM                          0501
A0101401670271455765001BARING, PRELA DIMAWALA                                   0501
A0101401670000003181597CHING, CHARLES LAWRENCE LUA                              0501
A0101406460272392629001MALVAR, MA. ELIZABETH GUANZON                            0502
A0101408660000000059761TOBILLO, CECILIO NARVAEZ                                 0504
A0101411820000008442860CARMELO M. ELEAZAR II                                    0502
B2601400270302045063001ISABELA UNITED DOCTORS MEDICAL                          11620
B2601400270302045063001CENTER, INC.                                            21600
B2601400270302698462001ALBERT C. LIM OR NELIA V. LIM                            1602
A0801400160311267899001RAMON J. JAVELOSA OR                                    10501
A0801400160311267899001GRACE M. JAVELOS                                        20500
B1101400120000000652993RIVER VALLEY DISTRIBUTION, INC.                          1601
A6601400120314040566001GLENCARE PHARMACY                                        0505
B6601400120000000022391BANICO, AILYN BACAY                                      1601
A6601400120314612853001INTAL, FERNANDO OR MARLENE                               0502
B2001400290315044204001ACEBANK CREDIT, INC.                                     1601
A3401400280000006791086DEL ROSARIO, CHERYL ANNE VILLAC                          0501
A0101402350000000521413REMELYN F. PIA                                           0502
A0101402350000012300422PASANDALAN, FARNIZA JT                                   0501
B0101402510341020561002PHILIPPINE PHARMACISTS ASSOCIATION                       1602
B0101402510341020561002PHILIPPINE PHARMACISTS ASSOCIATION                       1602
A0101409050000005122525MA. ANGELICA LOUISE NAVAL                                0501
B0201400760374032939002GATEWAY MOTORS (CEBU), INC.                              1605
A0201400890000003657783VILLAMOR, MICHELLE DUCAY                                 0501
A0201400890376677066001******                                                   0501
B0101402930920130000106REAL CONNECT CALL CENTER INC.                            1610
B0101408370382045343001THE MEDICAL CITY PSYCHIATRY AND WE CARE                 11602
B0101408370382045343001ASSOCIATION INC                                         21600
B0101408370000010545161NEDSTEEL CONSTRUCTION & DEVELOPMENT                      1601
A0101408370382194449001**********                                               0502
A0101408370000005220153ROCO, RUIGENE VILLAREAL                                  0501
A0101408370000010833188BERNARDINO, RICCA MAE ROCO                               0502
A0101408790000011535043DE VERA, HENRY TIGNO DBU LOVE                           10501
A0101408790000011535043YOUR SKIN DERMACLINIC                                   20500
A0101408400000006253243LIM, JIAN JEBIE REYES                                    0502
A0101408400394431284002DIMAGIBA, MA. TERESA ELA                                 0502
A0101408400394639219001ROMERO, FRANCISCO GABION                                 0501
A0101409180000011749832*********                                                0501
A0101409180000004375406OLGA JEAN T. YOINGCO                                     0501
A0101409180397486750002TARROZA, MICHELLE CANAUAY                                0503
A0101409210000014368493PAR-ANDRES, MARIA ROWENA ALMONT                          0502
A0101412210000012172104MAPA, JOSE MANUEL DE LEON                               10502
A0101412210000012172104OR MAPA, MARTHA ROJO                                    20500
A0301400820000012928542BELDORO, LORRAINE V.                                    10501
A0301400820000012928542OR BELDORO, RAMIL S.                                    20500
A2401400180000010066252DEVERA, EDGAR SURMILLON                                  0502
A2401400180000010066332FUERTE, CHERYL JOAQUIN                                   0501
A0101412890000009833690AMERNA, EMMIE MARIE LABOS                                0502
A0101412890000000371453DOLERA, PERLA DE GRACIA                                  0502
A0101406330472370108002MA. VICTORIA L. ESTRELLA                                 0502
A0101406330472481679001MA. CRISTINA LOPEZ OR                                   10501
A0101406330472481679001ROGELIO LOPEZ                                           20500
A0101410140000002307819SAN AGUSTIN, NATIVIDAD BARCELON                          0502
A0501400170000012558464OGATIS, SHIRLEY ALKONGA                                  0502
B1901400160491018232002AMA COMPUTER COLLEGE - BATANGAS CITY                     1601
A1901400160000001718087GUNZEN RESOURCES ENTERPRISE                              0502
A1901400160000005794892ALCANTARA, JOEY L. OR                                   10502
A1901400160000005794892ALCANTARA, MARICEL A.                                   20500
B1601400170000014244914PACARDO, MARC JOSEPH DBU MARC &                         11602
B1601400170000014244914JOSEPH'S EVENTS                                         21600
A0701400260000013603691YU, ZENNIA MORENO                                        0502
A0101403580000002265589SALENGA, MARK JOSEPH DE MESA                             0501
B0101403580511031762001STERLING FLUID SYSTEMS ENTERPRISES INC.                  1606
B0101405940512034259001CENTRAL BOOK STORE, INC.                                 1605
A0101408530000000489692SANTIAGO, ELIZABETH LALU                                 0502
A0101408530000000594485ANONAS G. SOLAS                                          0502
A0101411400000003750598DR. TWINKY D. BELINO                                     0504
A0101411400000010984246DELDIO, MANUEL FIDELIS                                   0502
A0101403450521238594001**********                                               0501
B2201400250000004404960RJ MANALANG CAR CARE CENTER                              1603
A0101410690000000001758IGNACIO, JONATHAN DBU JCJ                               10501
A0101410690000000001758MANAGEMENT SERVICES & INT                               20500
A0101404130000005962194FONTE, BERNICE KATHRYN CO                                0501
B0101404130601100106001METROPOLITAN MANAGEMENT CORP.                            1602
A0101407720602332279002CAYCO, ANTONIO V. OR                                    10501
A0101407720602332279002CAYCO, MARGARITA                                        20500
A0101404260611155266001YU, SUSANA OR EDDIE                                      0501
A0101404260611478374097MILA B. RIELO                                            0501
A0101409890000011486470NADONGA, ADRIANA LALU                                    0501
A0101409920650078985001REYES, ANGELINA BERSABE                                  0501
B0101413570000005867485POWER BUILT HARDWARE AND CONSTRUCTION                   11603
B0101413570000005867485SUPPLY                                                  21600
A0101413990000014814689SANTOS, NELIA DANAO                                      0501
A0101413990000014814805SANTOS JR., GENEROSO DANAO                               0501
A0101413990000014814907SANTOS, ESTEBAN DANAO                                    0501
A0101413990000014815320OPENA, JOHN MICHAEL CAMILING                             0501
B0101414120000007655378ABMARAC CORPORATION                                      1601
A0101406590662297269001MARTINEZ, ARMAN M. OR MARTINEZ,                         10501
A0101406590662297269001MARIA THERESE G.                                        20500
A1301400210682405530003MARITA Y. ESPIRITU                                       0501
A1301400340000002283781RODELIO D. RUBIO OR                                     10502
A1301400340000002283781ALONA D. ALIPIO                                         20500
A1301400340683564481001REMO, NILO AVENDANO                                      0501
A1301400500684594780002CASTRO, RAYMUNDO OR                                     10502
A1301400500684594780002CASTRO, ROSEMARIE                                       20500
A0101408240000014813868RAMOS, MARICEL ILAG                                      0501
A0101408240711689610001RODRIGUEZ, MA. LUISA L. JT                               0502
A4101400260000012886461SUNEJA, PUNEET                                           0501
B4101400260000005724181SERENITA INC.                                            1602
A4101400260000003680095CURA, CRISTELLIANA SANTIAGO                              0501
A4101400420000000120992IMPERIAL, SALVADOR ADVINCULA                             0501
A4101400420814017785001MONZON GENERAL MERCHANDISING                             0510
A4101400420814520766110DELA CRUZ, ARMINDA E.                                    0501
A4101400550000004846824PANGAN, S DBU SDP REALTY                                 0503
A0101412340000014081722LLOUELA JOY V. SANCHEZ                                   0501
B0101404840000006365400GCF SOUTH METRO, INC.                                    1605
A0101404840000004565862CLOTILDE P. ARROYO                                       0502
A0101404840851213312001MARQUEZ, THELMA P.                                       0501
A0101404840851214711001ELIZABETH ARCEO                                          0501
A0101406750000004642160DUMO, ROLAND LICLICAN                                    0501
A0101405070000011795778CHEN, YI                                                 0501
