B0101408950396821100608**********                                               2005
B0101412890000005913442BORROMEO JR., B DBU BYJ MARKETING                        1602
A0101412920000005354558CARANDANG, RUBY ORBE                                     0501
A0101401670000006975520DELA CRUZ, LUIS TOLENTINO                                0501
A1101400120000001547520TAN, MELVIN NATHANIEL ANDRADE                            0502
A1101400120000000652511BASTIAS, ROSANNA QUISUMBING                              0503
A1101400120000001547508DESUASIDO, IMELDA FAJARDO                                0501
A1101400120000002254800CU, WILSON CHAN OR                                      10505
A1101400120000002254800CU, ALBERT CHAN                                         20500
B1101400120000006186941COASTALVIEW FOODS CORPORATION                            1602
A0101412890000002324261PAGHUBASAN, GLENN ROSE MARABUT                           0501
A0101411790518055764191LAWYER, CHRISTIAN APOLLO URQUIA                          0501
B0101401250000007121262BALIAO DENTAL CLINIC & DIAGNOSTIC                       11602
B0101401250000007121262CENTER INC.                                             21600
A0101401250021194572001BASCON, ED DANTE                                         0502
A0101411370000003294882CHANDRASEKAR, SANJAY                                     0506
B0101400150061009719001WOODSON PROPERTY HOLDINGS                                1601
A0101400150000000525488REYES, SHEREL LOU BERMUDEZ                               0501
A0101400150061316369004ROWENA M. PENALES                                        0501
A0101400600000005942481ABELLO, ROLANDO OR                                      10501
A0101400600000005942481ABELLO, MARIA KRISHNA                                   20500
A0101405810072235172001LIM, JULIE GUAT                                          0501
A0601400100081590627001BASILIO, ADAMSON CUNANAN                                 0501
A0601400520000007553315TAYAG, TRISHA LOUISE GUTIERREZ                           0501
A0101413280000011101690CHRISTIAN C.LIM                                          0501
A0101413730000007317291************                                             0502
A0101414090000006211563JUGO, CHELOY CORINA CASTILLO                             0501
A0101410850000009034720ROQUE, KATRINA LIGON OR ROQUE,                          10502
A0101410850000009034720CRISANTO SANTOS                                         20500
B0101410850000003503573NATURAL LOGISTICS, INC.                                  1601
B0101410850000001229841BERNARDO, J DBU ORAYLE NATURALS PURIFIED                11601
B0101410850000001229841DRINKING WATER                                          21600
B0101410850000007294228JDD5 LOGISTIC ENTERPRISE SERVICES, INC                   1602
A0101410560000001291043MELVIN G. BESINGA                                        0501
A0101410560000000268331ROSE MARIE S. BRAZIL                                     0501
A0101410560000001291010SUMAGAYSAY, JENNIFER MACHADO                             0501
A0101400730111478374179MARIA LUISA S. TRUJILLO                                  0501
A0101406040112657540001**********                                               0503
A0101401960000006004411***************                                          0501
B0101401830141027203001ARTWORK PRODUCTION AND TELEPROMPTER                     11602
B0101401830141027203001SERVICES                                                21600
A0101412920000003465121MACAALAY, MALOU ANICETE                                  0502
A0101412920000008813412VASQUEZ JR., ROBERTO BITO-ONAN                           0501
A0101400440161478374175MARYLEN R. MORADA                                        0502
A0101400440161520766084GODELINA C. AQUINO                                       0501
B0101407270162021675001TACTICAL PROMOTIONS, INC.                                1610
B0101407270162040422001******                                                   1601
A0101407270162081565001EDUARD P. VELASCO                                        0504
A0101401090171033023002EXCELINK INSURANCE AGENCY                                0502
A0101401090171410434001EDGARDO A. MANICSIC OR                                  10501
A0101401090171410434001NANCY A. MANICSIC                                       20500
A0301400530000011097306MATSUMOTO, JUVELYN BANTAWIG                              0501
A0101401380000000682651PILI, RC JENNIE MAE ASISTIO                              0501
A0101410720000007843298GARCIA, RENE ANN MINDO                                   0501
B0101412500000003408108EUROKONZEPT MARKETING PHILIPPINES I                      1601
B0101412500000003408153********                                                 1602
A0101413600000006779686HOMER NEPOMUCENO                                         0501
A0101413600000003851132SHYELA MARIE BADLON                                      0502
A3101400160221478374062LANI R PEREZ                                             0501
A3101400160221556308001ROSALIA E AGBAYANI                                       0501
B3101400740224821100608**********                                               2005
A3101400870000005410020CONCEPCION, ROEL SACRAMENTO OR                          10501
A3101400870000005410020DE LA ROSA, JOSE                                        20500
A3001400130000002063441JONGKO, JOSE MARI MARCO OR                              10502
A3001400130000002063441JONGKO, DEBORAH                                         20500
A3001400130230478374004BALABA, JANETH BORJA                                     0501
A1301400470252499542001***************                                          0505
A1301400470252507901001GIL C. SURATOS OR                                       10501
A1301400470252507901001MARIA CRISTINA C. SURATOS                               20500
A1901400290261244456001LEO YAP ONG OR                                          10505
A1901400290261244456001MEI MEI YULO ONG                                        20500
A0101406460000002330876SEE, LALAINE GO                                          0501
B0101406460272043457001TARSIER SECURITY AGENCY, INC.                            1602
B0101406620273026509001DG3 IDOCS, INC.                                          1602
A0101406620273452007001CASQUEJO, MA. TERESA LOPEZ                              10502
A0101406620273452007001OR CASQUEJO, JEROME                                     20500
A0101408660274514556002CHOI, JEONG KAY OR                                      10502
A0101408660274514556002LUI, LEUNG CHU                                          20500
A0101400570000000749628LANIE V. GARCIA                                          0501
A0101411240000001563457*****                                                    0501
A0501400200000005751880BUENAVENTURA, ESMERALDA NICOLAS                          0502
B0801400160000001289932RD PAWNSHOP, INC. - ILOILO NORTH                         1603
B1101400120000000652391ONG, VIRGINIA PO OR ONG, WEE CHI PO OR                  11602
B1101400120000000652391ONG, WAN LIAN PO                                        21600
A1101400120000003197266YAP JR., ROSENDO ANG                                     0501
A2001400290315662278002********                                                 0501
B3401400280000000002320MALLARE, B DBU B&E COMPUTER SALES &                     11602
B3401400280000000002320SERVICES                                                21600
B0101402350321171971001RADIAL ARCH CONSTRUCTION INC.                            1603
B0101402350321738079001OLIVAREZ GENERAL HOSPITAL INC.                           1610
B0101405650322024999001SUPERIOR MAINTENANCE SERVICES, INC.                      1640
B0101405650322045513001INTERCHEMEX LABORATORIES INC.                            1601
A0101402060000000358565DECENDARIO, MARICHU TADLAN                               0502
A0101402060351040443001Q-TECH TESTING LABORATORY                                0503
A0101402060351045711001JASA ENTERPRISE                                          0501
A0101402060351314596001MA. THERESA C. SAN PEDRO                                 0501
A0101402060351378851001ALBERTO, EMIL JOHN M. OR                                10502
A0101402060351378851001ALBERTO, ANN                                            20500
B0201400760374020279001*****                                                    1620
B0201400760374452730001C & L INTERNATIONAL PACKAGING CORP.                      1605
B0201400920000000047732J810 CONSTRUCTION CORP.                                  1610
A0201400890000003410226*****************                                        0501
A0201400890376056207001MARDZ AIRCONDITIONING SUPPLY &                          10502
A0201400890376056207001SERVICES                                                20500
A0201400890376272044001LEE, JOSEPH KENNETH GUEVARRA OR                         10505
A0201400890376272044001LEE, MA. CARMEN                                         20500
B0201401020000007458093AQUILINI MACTAN RENEWABLE ENERGY, I                      1605
A0101402930000000859907SALAMAT, ADRIAN LEAL                                     0501
B0101402930381040001001TURQUOISE TRAVEL & EVENTS                               11602
B0101402930381040001001MANAGEMENT CORP.                                        21600
B0101402930381045839001EQUILAND PROPERTY MANAGEMENT (EPMC)                      1601
A0101408370382493699002DRS. ROMMEL P. TOLENTINO OR                             10501
A0101408370382493699002LAARNI B. TOLENTINO                                     20500
B0101402770000000080635PHILIPPINE SKYBIRD INDUSTRIAL                           11603
B0101402770000000080635CORPORATION                                             21600
A0101402770391319133001ALMIN, WENDA RESUELLO                                    0502
B0101405490000005196545ZC KINGS MANPOWER AND JANITORIAL                        11605
B0101405490000005196545SERVICES COOP.                                          21600
A0101405490392170151001MINDA A. TIMTIMAN                                        0504
A0101408400000001258588MJZION FURNITURE SHOP                                    0501
A0101408400394067869001LAPUZ, ELAINE JOY DBU STREETKID                          0501
A0101408400394559421001ORIDO JR, ALEJO LIGSAY                                   0501
A0101408950000007458953YAO, OLIVIA BORLONGAN                                    0501
A0101408950000004512069LAO, JONATHAN GIL CALUMPANG                              0502
A0301400820000007135060ROSALITA, JEFF MARK LAMPAGO DBU                         10502
A0301400820000007135060JMR ENTERPRISES                                         20500
A2401400180000000826164LAUTENGCO JR., PAULINO VENERACI                          0501
B2401400180411033733033ECA RESOURCES, INC.                                      1602
B2401400180000000073710MABUHAYONE CORPORATION                                   1602
A2401400180411275346001GILMOORE O. ALIAN                                        0501
A1201400150000006154963DY, VIRGINIA TAN OR GO, ANITA                           10503
A1201400150000006154963DY OR CASTILLO, MARY ROSE                               20500
B5101400100000010370851CGT GREEN AGRO CORPORATION                               1605
B5101400100000010370873JLT FLEET MASTER INC.                                    1605
A0101403030441412000001**********                                               0502
B0101406330472035139001R.S. SUPER BATCH INCORPORATED                            1601
B1901400160491341189001VIRGINIA R VARGAS OR                                    11601
B1901400160491341189001RICHARD D LIM                                           21600
A1401400110000003475923CALPE, GLENNYS ESTRELLA                                  0501
A1601400170000000497423MENCHU R. BUADO                                          0501
A0101407430503036416001JUPITER'S BUTCHER SHOP                                   0510
B0101407430503067873001FSKR ENTERPRISES                                         1601
A0101403580511380317001RHODORA G. LAGAMSON                                      0501
A0101405940000005068264RUBERSON P. TRIA                                         0501
A0101408530000002260180RICHARD O. PERALTA                                       0501
A0101408530000000594394ARNOLD LAT FERNANDEZ                                     0501
B0101411790000003252553THE HIMALAYA DRUG COMPANY                                1602
B0101411790518821100608**********                                               2005
B0101403450521038505001***********                                              1601
A0101403450521238076005**********                                               0505
A0101403450521250633001**********                                               0502
A0101403610531569350001VISAYA, CHRISTOPHER LOSEO                                0502
A2201400250000004916110GOMER VILLANUEVA CAPINPIN                                0502
A0101404130000005962109TUAZON, PHILIP DE GUZMAN DBU P.                          0501
A0101404130000001173615KING, ARTHUR CELESTINO                                   0502
A0101404130601629623001GARCIA, AIZZA VIA BARRIENTOS                             0501
A0101407720602271723028DR. RITA JOSEPHINE DOLENDO                               0502
A0101407720602384186003SARMIENTO, JOSIERINA YANEZA                              0502
A0101407720602513148001DOLENDO, RITA JOSEPHINE ESPIRIT                          0502
A0101404260611338813001CASTILLO, ALREZEL ROBLES                                 0503
A0101409890000006812906**********                                               0502
A0101409890000006812939LIM JR., MARTIN NALDA DBU SOLEW                          0501
A0101409920000007304878MANCE, KARYLLE ABIGAIL A. OR                            10501
A0101409920000007304878MANCE, JERWIN ALLEN M                                   20500
B0101407690000000243832IDESCO CONSTRUCTION AND DEVELOPMENT CORP                 1602
A0101407690652478374034EDNA D. PENALVER - DEALERS OF                           10501
A0101407690652478374034SHOECAT, INC.                                           20500
A0101413570000009020017REYES, RALPH GARRI GASES                                 0501
A0101413990000006768581NEBRIA, ESTER P. DBU BUTTER-NUT                         10503
A0101413990000006768581BAKESHOP                                                20500
A0101414120000000398932R. ACOSTA ENTERPRISES                                    0501
A1301400340683427695001********                                                 0502
A1301400500000007096520BAUTISTA, SHIELA MARIE OR                               10505
A1301400500000007096520BAUTISTA, ERICKSON                                      20500
B0101408240711036910001ASIAN CENTRE FOR INSULATION PHILS.,                      1603
A0101408240711379848001GINA MARIE R. MEDINA                                     0501
B0101408240711492799002CENTER FOR INFECTIOUS DISEASE & TRAVEL                  11601
B0101408240711492799002MEDICINE, INC.                                          21600
A4101400260812478374030MA. CONCEPCION S. PARAGUISON                             0501
A4101400420814506413001IBIAS, JOSEPHINE OCAMPO OR                              10501
A4101400420814506413001IBIAS, SEGISMUND                                        20500
A4101400420000002345280ACOL, FELOMINA ADOAN                                     0502
A4101400420000004848028EMMA A. MARSHALL                                         0501
A4101400550000007583813ARCARDO, M DBU DRJ HAULING                              10502
A4101400550000007583813SERVICES                                                20500
A0101412340000003348714NELSON C. SANGALANG                                      0501
A0101404840000003409874*****                                                    0501
A0101404840000001312532CHICO, DIVINA DE GULA                                    0501
B0101404840851009292001GEMSTAR MARKETING                                        1605
A0101404840851478374115ERLINDA O. PRADO                                         0501
A0101405070000010969783JONIGA, AIRIZ VIEN MALLARI                               0501
A0101405070861197981001IDANMAL, MANOJ                                           0501
A0101413860000000145008GALICIA, MARY ANN GONZALES JT                           10501
A0101413860000000145008DAVID, ERLINDA                                          20500
A0101413860000009967015ARCEGA, ANA RHEA DELA CRUZ                               0501
A0101413860000009966990DOMINGO, MAYNILA ESGUERRA                                0501
A0601400230000006045592MACALINO, REYNA VILLANUEVA                               0501
B06014002300000036448207R FINANCE CORP.                                         1610
A0601400230000000989973SAPNU, ALBERT EVANGELISTA                                0502
A0601400230000007402188CHUA, MARK ANTHONY GARCHITORENA                          0502
A0601400230000007954121CHUA, MARK ANTHONY GARCHITORENA                          0502
