A0101406040112647403001MICHAEL HICKS OR ROBBYLYN C. SO                          0502
A0101401250021478374014IRENE P. FADULLO                                         0501
B3001400130000003434648HAPPYALL3 BUILDERS CORPORATION                           1610
A2201400250561085982001ALLEN BRIAN SY CO                                        0501
A0101400860011449807001**********                                               0503
A0101400150061229214001PROSPERIDAD A. RONDILLA                                  0501
A0101400150061315349055DENNIS JOY EJERCITO                                      0501
A0101400150061315349084DAPHNIE YU KIM TENG                                      0501
B0101405810072412798001**********                                               1603
A0601400360083630850001CALAGUAS, MARIE ROSE REYES                               0502
A0101410560000001944174ROWENA PADILLA FRANCIA                                   0502
B0101400730111019171002RHINE FOODS CORPORATION                                  1605
B0101400730111025203001JADE VINE, INC.                                          1601
A0101406040000000096844********                                                 0502
A0101413150000003868300**********                                               0501
A0101413310000004626740JUSTO, RICHARD DADO DBU                                 10501
A0101413310000004626740LUAU HAWAIIAN GRILL                                     20500
B0101413310133821100608**********                                               2002
A0101401830141058941001WRIGHT, WILLIAM SISON DBU                               10501
A0101401830141058941001CMWW TRADING                                            20500
A0101401830141292667003MAGTALAS, GEMMA OR LEE MARVIN                           10502
A0101401830141292667003OR JOHN GEMMO                                           20500
A5001400170000000213896CASTILLON, ALVIN TABAL                                   0502
A5001400170000000213954LOPEZ, ISOLDE OR TAMAYO, AILYN                          10504
A5001400170000000213954OR TAMAYO, SHEEN                                        20500
A5001400170000002288297VERDUGUEZ, JAMES PAGHACIAN                               0501
B5001400170000000169824VICTORY CHRISTIAN FELLOWSHIP OF                         11601
B5001400170000000169824ZAMBOANGA CITY                                          21600
A0101400440161520766159CHONA Y. ELUMBRA                                         0502
A0101407270000003253961RUTAQUIO, JOAN TENA                                      0502
B0101407270162016355001ONWARD COMMUNICATIONS & SERVICES                         1603
A0101407270000004832673JULIUS CAESAR C. BABAO                                   0501
A0101407270162454469002JOSE A. LADIM                                            0501
A0101401090000003238031MORENO, MATTHEW ALFONSO                                  0501
A0101401090171033023002EXCELINK INSURANCE AGENCY                                0502
A0101401090000001619023BANAW ENTERPRISES                                        0501
A0101401090171198394001MA. SOCORRO GUAN HING OR                                10502
A0101401090171198394001ALEX GUAN HING                                          20500
A0101401090171201395001JOSE S. BLAS                                             0501
A0101401090171469542001ENRICO H. BICOL                                          0501
A0301400660000003406011*****                                                    0502
A0301400950000002975068**********                                               0502
B0301400950000000566901UNITED WIL MANPOWER AND ALLIED SERVICES,                11605
B0301400950000000566901INC.                                                    21600
A0101401380201563163001********                                                 0501
A0101401380000002297470MURAOKA, MA. ANGELITA CORTEZ                             0502
A0101401380000000106516JUNG, HEESUN                                             0503
A0101412500000001146805ARROJADO, JENNIFER DY                                    0501
B1001400190231274999001CHRIST'S COMMISSION FOUNDATION,                          1610
A1001400480000000606820VARQUEZ, GLADYS LUSTRE OR                               10502
A1001400480000000606820VARQUEZ JR., FELICISIMO                                 20500
A1301400760000002346129JIMMY C. CENA                                            0501
A1901400290000003252731REBECCA VELASQUEZ ARIOLA                                 0501
B1901400290261013980001VIC IMPERIAL APPLIANCE CORP.                             1602
A1901400290000001975404MARANAN, MERCEDITA DBU REYMER                           10502
A1901400290000001975404DIGITAL PHOTOGRAPHY                                     20500
A1901400290261663904001EVELYN ROSALES PURINO                                    0501
A0101406460272314180001********                                                 0503
A0101406620000000193760DIAZ, FRANCIS PATRICK TAYENGCO                           0502
B0101406620000000962443NIGHTHAWK GLOBAL BUSINESS PROCESS                       11605
B0101406620000000962443SERVICES, INC.                                          21600
B0101400570281007188002KIMURA CHAVES ENTERPRISE, INC.                           1602
A0801400160311267063001**********                                               0502
A1101400120313478374104EMADIN, LLANA L.                                         0501
A1101400120000000652351YAO, RONALD PHILIP GO                                    0501
B1101400120313544308001YU, ROBERT LIM OR YU, PAMELA LIM OR                     11610
B1101400120313544308001YU, RONNIE LIM                                          21600
A6601400120314668441002MASLOC, SHERRY AMOR GALONO                               0501
B0101402350321035857001MOBICAR TRADING CORPORATION                              1602
A0101402350321182462003SALAZAR, ROSALINA R.                                     0501
B0101405650322077417001ELEGANT INFOVENTURES, INC.                               1602
B010140251034105899600199 NUC MARKETING CORPORATION                             1602
A0101402060000000562101ALONSABE, ARLAN S.                                       0501
A0201400760000000989693UY, VINCENT JOHN GOKIANGKEE                              0501
A0201400890000002270286RACAZA, GEMMA YAP                                        0505
A0201400890376080642001GALANG, LORLIE PACURIBOT OR                             10501
A0201400890376080642001GALANG, GLENN AN                                        20500
A0101408790000005293698LUCILLE V. MANANTAN                                      0501
B0101408790383084533001CCGA REALTY CORPORATION                                  1603
B0101402770000001571659BARUELO, WARREN EPISCOPE AND BARUELO,                   11602
B0101402770000001571659JENNIFER IGNACIO                                        21600
B0101402770391044158001VLF WOOD VENEERS                                         1602
A0101408400394030681001BANIG HANDICRAFT AND NOVELTIES                           0501
A0101408400394478374062APOLIS, SALVACION G.                                     0502
A0101408950000000776529PULIDO, RICHARD NAVARRO OR                              10502
A0101408950000000776529CHIO, MARTIN CLA                                        20500
B0101409180397670520001CASAEUROPA INC.                                          1604
B1201400150421009374001ESLA MANAGEMENT AND CONSULTING                           1610
A1201400150421514301001SADSAD, JOSE ROSENDO MARTINEZ                            0502
A1201400150421789029001CO, JOHN SALVADOR                                        0502
A0101403030441528979002**********                                               0506
B0101403320471035191001ST. GABRIEL CREDIT COOPERATIVE                           1601
B0101403320471206926002LOLITA B COLINA                                          1601
A0101406330000001235272VHANZ HARDWARE                                           0502
A0101406330472478374042VIRGINIA B. RANADA                                       0501
A1901400160491339841001MELINDA M ILAGAN                                         0502
A1901400160491547151002GINA F TORIAGA OR                                       10501
A1901400160491547151002BERNARDO I TORIAGA                                      20500
A1401400110492433218001MILLA, MAYNARD BUSTAMANTE                                0501
A0701400260000001804666PEREZ, RODOLFO PAANO DBU TRUSTY                         10501
A0701400260000001804666SPEED TRADING                                           20500
A0101407430503181127001ALBERT S. SAW                                            0501
A0101405940512155541004OLIVIA S. ALTAREJOS OR YVONNE                           10502
A0101405940512155541004BARANDA OR MA. OFELIA M.                                20500
A0101405940512652774001GO, KIAN LIN LI OR                                      10501
A0101405940512652774001UY, NANCY LAO                                           20500
B0101406880513022143001PENTACAPITAL MANAGEMENT CORPORATION                      1610
A0101408530516543430011HIBIONADA, ERELYN BATALLA                                0501
A0101403450521077932001ROSARIO, ERIN LOU MONILLAS                               0502
A0101403450521279272001***********                                              0501
B0101403610531026008002MISSION TO THE WORLD PHILIPPINES                        11603
B0101403610531026008002FOUNDATION, INC.                                        21600
B0101404130601100036002SCIENCE OF IDENTITY FOUNDATION, INC.                     1601
A0101407720000004665009TOLENTINO JR., ROMEO BARRETO                             0501
B0101407720602030155003DEPARTMENT OF DERMATOLOGY MAKATI MEDICAL                11601
B0101407720602030155003CENTER FOUNDATIO                                        21600
B0101404260611005561001WILSTRONG LUMBER & HARDWARE                              1602
B0101404260611018794002HAVEN MONTESSORI, INC.                                   1601
A0101404260611478374076NEREZA P RULL                                            0502
B0101407690652046975001MARBAS, DBU SPHINX ENG'G SOLUTIONS                       1601
B0101407690000000243952VITORIA REGIO VENCEDOR (VRV) BUILDERS                   11601
B0101407690000000243952CORP.                                                   21600
A0101407690652478374027MARILOU S. BAGON - DEALERS OF                           10501
A0101407690652478374027SHOECAT INC.                                            20500
A0101407690652478374145MA. ROUMELA LUISA MIJARES -                             10501
A0101407690652478374145DEALERS OF SHOECAT INC.                                 20500
A0101407690652525001064JOAQUIN JUANCE - DEALERS OF                             10501
A0101407690652525001064SHOECAT INC.                                            20500
A0101411530000000741713**********                                               0501
B0101411530654821100608**********                                               2002
A0101413440000002706072PORCIUNCULA, CATHERINE R. OR                            10502
A0101413440000002706072PORCIUNCULA, JOSE PAOLO C                               20500
A0101413990000000205898**********                                               0502
A1301400210682582829001ELENA G DEL ROSARIO OR                                  10503
A1301400210682582829001VICTORIA G DEL R                                        20500
A1301400500000000213174ADRIANO, MILAGROS CORREA                                 0501
A1701400230000005417727ONG, ERIC ENRIQUE CORTINA                                0502
A1701400230000005418311JALOCON, JULIE ANN TAMAYO                                0501
A1701400230693058994001PALM GROVE SAUD HOLIDAY COMPLEX                          0501
A0101408240000000005461SANCHEZ, MARIANO ALTOBAR                                 0501
B2801400100000003400506COLLEGE OF SUBIC MONTESSORI SUBIC B                      1601
B2801400230713045817001ROWENA MINOO SAMURAI, INC.                               1610
A2801400230000001782083DE GUZMAN, LITO C. DBU D.G.L                            10502
A2801400230000001782083MOTOR WORKS & GEN. SERVCS                               20500
A2801400230000000937480ROLDAN, RUTH MARIE ALBANO                                0501
A4101400550000000005950SEGURITAN, JOCELYN DBU SFC                              10506
A4101400550000000005950OFFICE FURNITURE                                        20500
B0101404840851039541001CBC INTEGRATED SCHOOL, INC.                              1602
A0101406750000002251372SALAZAR, RICCI GOMEZ                                     0502
B0101406750852458767001ACCUHEALTH DIAGNOSTICS INC.                              1602
B0101405070861008460005STARS TRAVEL INCORPORATED                                1602
A0101405070861032590001J-VEL-PIL TRANSPORT SERVICES                             0503
B0101405070861043213001TEKTON CONSTRUCTION CORP.                                1605
