F0101410690600047000002HOLIDAY HILLS STOCK & BREEDING                          12601CKR
F0101410690600047000002CORPORATION                                             22600CKR
F0101410690600047128001PIG IMPROVEMENT COMPANY, INC.                            2601CKR
F0601400360083040826001SG ECO INDUSTRIES INC.                                   2602CKR
F0601400360083045604001IGO2 GROUP INC.                                          2601CKR
F0101402060351040213001SOUTH POLE URBAN FOODS CORP.                             2615CKO
F0201401020000000042344AIR YOU GO TRAVELS EXPERIENCE C                          2605CK1
F3101400580452455447001QUEZCA CORPORATION                                       2602CKO
F1301400210682306066002JUANITA D CABRERA OR                                    12501CKO
F1301400210682306066002JAYNIE D CABRERA                                        22500CKO
