F1901400290261038302001ROMMEL BARTE LOJO                                        2502CKO
F1001400480000000133600INDORAMA VENTURES PACKAGING (PH                         12605CKR
F0101401670271555562004GREEN ASIA REAL ESTATE AND                              12602CKR
F0101404680651297826002LIM,YOLANDA OR CABIGON, MELISSA                         12605CKR
F1001400480000000133600ILIPPINES) CORPO                                        22600CKR
F0101401670271555562004DEVELOPMENT INC                                         22600CKR
F0101404680651297826002OR LANGCAY, SHIE                                        22600CKR
