A2801400100000000004731ESCOTO, JESUSA DALIT                                     0501
A0101405810000000016559CHUA, HEMAN LAO                                          0501
A0101411660000000032082BERNARD LEO U. ZAPANTA                                   0503
A0101407430000000044891NIAH D. NERY                                             0502
A0201401020000000056164IYAS, PAUL JOHN YAN                                      0501
A1901400290000000135093MARITES LIM SANCHEZ                                      0502
A0901400220000000425045LOZADA, ELIZABETH GO                                     0501
A0101404840000000475952GONZALES, ROWENA POLLICAR                                0501
A0201400890000000973519EMERALD BUILDERS                                         0501
A0101405940000001047381MIRANI, DIANA NARESH  JT                                 0502
A0601400520000001349548VALENCIA, HOMER GALANG                                   0501
A0101400150000001422020ARAW II, BIENVENIDO MALVATAN                             0502
A4101400260000001673503BALURAN, RAQUEL GUZON                                    0502
A0101403320000001803327JULIUS CEAZAR SHOE CREATION                              0505
A0101407690000001919833COOL CLASS GARMENTS ENTERPRISE                           0502
A1901400290000001926230MARYCRIS PASION MEDINA                                   0505
A0101406750000002040293WILLY, JANE LAMSIE                                       0501
A1301400340000002283832GERONIMO, TRECETINE CABIGAS                              0503
A0101407690000002348865MANESE, MA. CHERRY MALABED                               0501
A0101410300000002375868COLORADO, BENIGNO P.                                     0503
A0101407140000002631734ONG, PHILIP CHAN                                         0501
A0101413570000002976170MANGALAO, MARILOU ORCADO                                 0501
A0101410980000002987013TAN, RENATO SALENGA                                      0501
A1301400500000003070139SUGAR DADDY MARKETING                                    0502
A0601400520000003187193REES, PINKY LAQUINDANUM                                  0501
A0101400860011384021001**********                                               0503
A0101400860011412773001**********                                               0503
A0101401700041190452002******                                                   0510
A0101401700041752697001********                                                 0502
A0101400150061229814003**********                                               0501
A0101400730111195973001NAVIDAD, LALAINE M.                                      0503
A0101400730111520766067ROJAS, ANGELIE L.                                        0502
A0101401090171478374008FERNANDO J. DELA CRUZ                                    0501
A0101401090171546320001CHARITO P. MALONG                                        0501
A0101407140213190892003**********                                               0501
A0101407140213385506002**********                                               0501
A1001400190231427280002GAYAPA, JESSICA GADIAN                                   0502
A1001400350233478374006IBANEZ, ELSA                                             0501
A1901400290261339478001GLORIA M ARCEGA                                          0506
A1901400290261390520001JOEL PUNZALAN DIMAANO                                    0502
A0101406620273511411001MORALES, APRILYN MARQUEZ                                 0503
A0101400570281399721001JOFFREY U. UY                                            0501
A2601400270302561103001NATHANIEL E. CADAUAN                                     0501
A2601400270302591563001ROSITA R. CHE                                            0501
A0801400160311034254001MUZONES WELFARE FOUNDATION                               0502
A6601400120314646593001CUI, ETHEL TAN                                           0501
A0101405650322696138001FERRER, NERVIN NIEVERA                                   0501
A0101402060351479109001ALMADEN, ROSALINDA CLACIO                                0501
A0101402770391350329001EMALYN G. TIGLAO                                         0501
A0101408400394404649001PRECIOUS LARA Q. ALCARAZ                                 0503
A0101408400394478374095HERMOSURA, EUGENIA BISNAR                                0501
A0101403320471206073001TERESA S. CHUA TEK                                       0501
A0101406330472443761001MICHAEL RUDOLPH E. SERVITO                               0503
A0101411790518055764031PATRICK B ARCE                                           0501
A0101403450521240285002**********                                               0502
A0101403450521241170001**********                                               0502
A0101403450521389380001**********                                               0501
A0101404130601451188001**********                                               0502
A0101407720602392725001DAVID HAROLD C.GOSIENGFIAO,M.D.                          0520
A0101407720602396366001BRAVO, ARLENE RICARTE                                    0502
A0101407720602404060001MARZO, MARIA ROWENA FERNANDEZ                            0502
A0101404260611152088001POLLY OR ALEXANDER LIM                                   0501
A0101404260611405033003GASCON, JENNIFER DEDEL                                   0503
A0101404420631040228001DGPRINT ADVERTISING CO.                                  0502
A0101404680651449019002LAVADIA, NESTOR BRAVO                                    0502
A0101407690652045019001AXIS ROOF SERVICES                                       0502
A0101407690652173311001RS JARDIN & ASSOCIATES                                   0505
A0101408240711372181001BELEN H. SANTIANO                                        0501
A0101404840851213737001*****                                                    0502
A0101404840851595185001SABAUPAN, HAZEL BELGA                                    0501
A0101404840851636387001MATHISEN, MARITES ESTE                                   0501
A0101406750852625027001PASCUA, MARIA LOURDES ESPIRITU                           0501
A0101405070861197507001SIY, LUISA SIA                                           0501
A0601400230891035178001LEORLYN IRON WORKS                                       0502
A0601400230891083893001**********                                               0501
A0601400230891527563001MELINDA M. MANALO                                        0501
A1901400290000000135173JUDE RECINTO SEMANA OR                                  10502
A0101406460000000182610LUNA, MARK ANTHONY NUBLA OR                             10503
A0101408400000001035421ANGELICA BIRTHING HOME AND                              10501
A0101412630000001823303REROMA, REMEDIOS S. OR                                  10502
A4101400420000002345251HILARIO, ANABELLE CANGCO DBU A.                         10505
A0101411400000003750554LORENZO, JOSEPHINE DELA CRUZ                            10502
A0101401250021040561001WOODROSE HEALTHCARE MARKETING                           10503
A0101400730111478374112STO DOMINGO, CONSTANCIA                                 10501
A0101401960121327478001AIDA MEDEL                                              10502
A0301400530193571748168UY, EMERALD L. OR                                       10515
A1901400290261050401001DIOSDADO M CAPUCHINO                                    10502
A1901400290261244339001RUDY BARRETO MANGUIAT OR                                10510
A1901400290261244345001FERNANDO C GO OR LUCY S GO                              10502
A0101408820333549965001REYES, KAREN CLAIRE CALIMAG OR                          10501
A0201400890376545727001SY, VICENTE OR CHARITO OR VANCE                         10501
A0101405490392563453002ALLAN L. DE GUZMAN OR                                   10501
A0101406330472462469001YVONNE ALCANTARA OR DANILO                              10501
A0101404130601450094003LORQUEL PASCUAL OR ANNIE                                10502
A0101404420631171777001LUISITO C. LAZARO OR                                    10501
A0101407690652478374140BEATRIZ MANIAGO - DEALERS OF                            10501
A0101407690652525001081AGUSTINO, ROWENA - DEALERS OF                           10501
A0101407690652563634001RUEL L. LECAROS  OR                                     10502
A1301400500684635536001JOSELYN D SANTOS OR                                     10501
A0101408240711400412001MICHAEL MIRCHANDANI OR                                  10501
A0101404840851415656001LEAL, MARIETTA I. OR                                    10502
A1901400290000000135173EVELYN UMALI SEMANA                                     20500
A0101406460000000182610LUNA, GWENDOLYN                                         20500
A0101408400000001035421PEDIATRIC PRIMAR                                        20500
A0101412630000001823303ROVILLOS, SATURNINO L.                                  20500
A4101400420000002345251HILARIO GENERAL MERCHANDI                               20500
A0101411400000003750554OR JOHANA KELLY LORENZO                                 20500
A0101401250021040561001SERVICES                                                20500
A0101400730111478374112CHARLENE                                                20500
A0101401960121327478001OR ROD MEDEL                                            20500
A0301400530193571748168UY, CIARA ISABEL                                        20500
A1901400290261050401001DBU DMC DIAGNOSTIC CENTER                               20500
A1901400290261244339001BENITO BARRETO MANGUIAT                                 20500
A1901400290261244345001OR ALDWIN S GO                                          20500
A0101408820333549965001CALIMAG, KATHLEE                                        20500
A0201400890376545727001CEDRIC OR CHUA,                                         20500
A0101405490392563453002MARIVEL R. DE GUZMAN                                    20500
A0101406330472462469001ALCANTARA OR KRISTINE                                   20500
A0101404130601450094003PASCUAL                                                 20500
A0101404420631171777001ZENAIDA P. LAZARO                                       20500
A0101407690652478374140SHOECAT INC                                             20500
A0101407690652525001081SHOECAT INC.                                            20500
A0101407690652563634001JOVITA M. LECAROS                                       20500
A1301400500684635536001EDGAR D VILLAR J                                        20500
A0101408240711400412001SHAM MIRCHANDANI                                        20500
A0101404840851415656001LEAL, LEONARDO L                                        20500
B0101400730000000002557NORTHSTAR TRAINING & CONSULTANCY INC                     1601
B17014002300000000105665 SISTERS REALTY & DEVELOPMENT CORP                      1602
B0101410980000000012380PERSONNEL DEPOT MANPOWER RESOURCES INC.                  1602
B0101405810000000016822VANDA PAPER PRODUCT ENTERPRISES COR                      1602
B0101411240000000629356**********                                               1601
B0601400360000000978925RONDAYVU MANUFACTURING CORPORATION                       1602
B0101413440000001085610SEASTEMAS INTERNATIONAL, INC.                            1605
B0101405490000001092477ARKIMETRICS INC.                                         1601
B0101407430000001213169FAST LANE INTERNATIONAL LOGISTICS INC.                   1601
B0301400530000001409803REPHIL STATION INC.                                      1601
B0201401020000003031061PIAMONTE, RABBI DBU BTS CARGO SOLUTIONS                  1602
B0101400150061010833001VELCA TRAVEL & TOURS, INC.                               1601
B0101407270162019073001SUNNY SMILE FOOD CORP.                                   1605
B0101407270162019074001WHOLESOME FOODS INC.                                     1605
B0101407270162024565001GUSTOSERVE BUSINESS, INC.                                1605
B0101407270162042616001GLOCAL AGRAQ VENTURES INC.                               1605
B0101401380201525090001HONGKONG MASTER COOK CORPORATION                         1603
B0101406460272020749001EASTGATE COMPUTER CORPORATION                            1601
B1101400120313036439002ACME BUILDERS CORPORATION                                1605
B0101402480331037795001MIOKA BIOSYSTEMS CORPORATION                             1601
B0101402770391020935001GRANT IND'L SALES CORP.                                  1601
B0101405490392030564001NEW FS COOL AIRE INDUSTRIES, INC.                        1603
B0101409210398055893001PHILMOVERS HAULING AND LOGISTICS INC.                    1601
B0101403030441303324001**********                                               1602
B01014063304720209890011 TO 1 MARKETING INC.                                    1605
B1901400160491012762001ATI-BATANGAS, INC.                                       1610
B1901400160491027966001SALESFORCE ONE MARKETING, INC.                           1605
B0101403450521017837001**********                                               1601
B0101404130601019213002CORONA REALTY AND DEVELOPMENT CORP.                      1603
B0101404130601046670001ARKHI INTERIOR DESIGN AND BUILDERS                       1602
B0101404260611022505001SEAA CORPORATION                                         1603
B0101404260611022505002SEAA CORPORATION                                         1603
B0101407690652043033001R3TECH INDUSTRIAL AND TRADING CORP.                      1603
B0101408240711041158001ACCUWORK COMPANY, INC.                                   1605
B0101407690652017367002EAGLE BROADCASTING CORPORATION                          11605
B0101407690652017367002(NET 25)                                                21600
